{
  "_format": "hh-sol-artifact-1",
  "contractName": "OperatingAllocation",
  "sourceName": "contracts/core/auxiliary/allocations/OperatingAllocation.sol",
  "abi": [
    {
      "inputs": [
        {
          "components": [
            {
              "internalType": "address",
              "name": "Governor",
              "type": "address"
            },
            {
              "internalType": "address",
              "name": "Tcp",
              "type": "address"
            }
          ],
          "internalType": "struct OperatingAllocation.ConstructorParams",
          "name": "params",
          "type": "tuple"
        }
      ],
      "stateMutability": "nonpayable",
      "type": "constructor"
    },
    {
      "anonymous": false,
      "inputs": [
        {
          "indexed": true,
          "internalType": "address",
          "name": "dest",
          "type": "address"
        },
        {
          "indexed": false,
          "internalType": "uint256",
          "name": "count",
          "type": "uint256"
        }
      ],
      "name": "IncentiveDistributed",
      "type": "event"
    },
    {
      "anonymous": false,
      "inputs": [
        {
          "indexed": true,
          "internalType": "address",
          "name": "receiver",
          "type": "address"
        },
        {
          "indexed": false,
          "internalType": "uint128",
          "name": "count",
          "type": "uint128"
        }
      ],
      "name": "LockPositionIncreased",
      "type": "event"
    },
    {
      "anonymous": false,
      "inputs": [
        {
          "indexed": true,
          "internalType": "address",
          "name": "newGuardian",
          "type": "address"
        }
      ],
      "name": "NewGuardian",
      "type": "event"
    },
    {
      "anonymous": false,
      "inputs": [
        {
          "indexed": true,
          "internalType": "address",
          "name": "receiver",
          "type": "address"
        },
        {
          "indexed": true,
          "internalType": "uint8",
          "name": "lockDurationMonths",
          "type": "uint8"
        },
        {
          "indexed": false,
          "internalType": "uint256",
          "name": "count",
          "type": "uint256"
        }
      ],
      "name": "TokensLocked",
      "type": "event"
    },
    {
      "inputs": [],
      "name": "dao",
      "outputs": [
        {
          "internalType": "contract ITokenLockDao",
          "name": "",
          "type": "address"
        }
      ],
      "stateMutability": "view",
      "type": "function"
    },
    {
      "inputs": [
        {
          "internalType": "uint128",
          "name": "count",
          "type": "uint128"
        }
      ],
      "name": "getTokens",
      "outputs": [],
      "stateMutability": "nonpayable",
      "type": "function"
    },
    {
      "inputs": [],
      "name": "governor",
      "outputs": [
        {
          "internalType": "address",
          "name": "",
          "type": "address"
        }
      ],
      "stateMutability": "view",
      "type": "function"
    },
    {
      "inputs": [],
      "name": "guardian",
      "outputs": [
        {
          "internalType": "address",
          "name": "",
          "type": "address"
        }
      ],
      "stateMutability": "view",
      "type": "function"
    },
    {
      "inputs": [
        {
          "internalType": "address",
          "name": "user",
          "type": "address"
        },
        {
          "internalType": "uint256",
          "name": "count",
          "type": "uint256"
        }
      ],
      "name": "increaseTotalAllocation",
      "outputs": [],
      "stateMutability": "nonpayable",
      "type": "function"
    },
    {
      "inputs": [
        {
          "internalType": "address",
          "name": "",
          "type": "address"
        }
      ],
      "name": "lockPositions",
      "outputs": [
        {
          "internalType": "uint128",
          "name": "totalAllocation",
          "type": "uint128"
        },
        {
          "internalType": "uint128",
          "name": "tokensAllocated",
          "type": "uint128"
        },
        {
          "internalType": "uint256",
          "name": "cumulativeTokensAllocatedxLockYears",
          "type": "uint256"
        }
      ],
      "stateMutability": "view",
      "type": "function"
    },
    {
      "inputs": [
        {
          "internalType": "uint128",
          "name": "count",
          "type": "uint128"
        },
        {
          "internalType": "uint8",
          "name": "lockDurationMonths",
          "type": "uint8"
        }
      ],
      "name": "lockTokensIntoDao",
      "outputs": [],
      "stateMutability": "nonpayable",
      "type": "function"
    },
    {
      "inputs": [],
      "name": "minAverageYearsLocked",
      "outputs": [
        {
          "internalType": "uint256",
          "name": "",
          "type": "uint256"
        }
      ],
      "stateMutability": "view",
      "type": "function"
    },
    {
      "inputs": [],
      "name": "pendingGuardian",
      "outputs": [
        {
          "internalType": "address",
          "name": "",
          "type": "address"
        }
      ],
      "stateMutability": "view",
      "type": "function"
    },
    {
      "inputs": [],
      "name": "recieveGuardianship",
      "outputs": [],
      "stateMutability": "nonpayable",
      "type": "function"
    },
    {
      "inputs": [
        {
          "internalType": "address",
          "name": "_dao",
          "type": "address"
        }
      ],
      "name": "setDao",
      "outputs": [],
      "stateMutability": "nonpayable",
      "type": "function"
    },
    {
      "inputs": [],
      "name": "startTime",
      "outputs": [
        {
          "internalType": "uint64",
          "name": "",
          "type": "uint64"
        }
      ],
      "stateMutability": "view",
      "type": "function"
    },
    {
      "inputs": [],
      "name": "token",
      "outputs": [
        {
          "internalType": "address",
          "name": "",
          "type": "address"
        }
      ],
      "stateMutability": "view",
      "type": "function"
    },
    {
      "inputs": [],
      "name": "tokenMinter",
      "outputs": [
        {
          "internalType": "contract ITokenIncentiveMinter",
          "name": "",
          "type": "address"
        }
      ],
      "stateMutability": "view",
      "type": "function"
    },
    {
      "inputs": [
        {
          "internalType": "address",
          "name": "newGuardian",
          "type": "address"
        }
      ],
      "name": "transferGuardianship",
      "outputs": [],
      "stateMutability": "nonpayable",
      "type": "function"
    }
  ],
  "bytecode": "0x610100604052348015620000135760006000fd5b50604051620022b8380380620022b88339818101604052810190620000399190620002ce565b5b80600001518160200151670de0b6b3a76400005b82825b8173ffffffffffffffffffffffffffffffffffffffff1660808173ffffffffffffffffffffffffffffffffffffffff1660601b815260140150508073ffffffffffffffffffffffffffffffffffffffff1660a08173ffffffffffffffffffffffffffffffffffffffff1660601b81526014015050620000d6336200016660201b60201c565b5b5050620000e9620001ee60201b60201c565b67ffffffffffffffff1660c08167ffffffffffffffff1660c01b815260080150508060e081815260200150505b5050508060000151600460006101000a81548173ffffffffffffffffffffffffffffffffffffffff021916908373ffffffffffffffffffffffffffffffffffffffff1602179055505b506200032e565b80600060006101000a81548173ffffffffffffffffffffffffffffffffffffffff021916908373ffffffffffffffffffffffffffffffffffffffff1602179055508073ffffffffffffffffffffffffffffffffffffffff167fb6182387b7ea948602a7e04e662a27ce251dc3dd014eacaed10dce36b41bf1a560405160405180910390a25b50565b600062000208426200021060201b6200089617909060201c565b905080505b90565b6000680100000000000000008210151562000296576040517f08c379a00000000000000000000000000000000000000000000000000000000081526004018080602001828103825260118152602001807f6d6f7265207468616e203634206269747300000000000000000000000000000081526020015060200191505060405180910390fd5b8190506200029f565b919050566200032d565b6000815190506001600160a01b03811681141515620002c85760006000fd5b5b919050565b600060408284031215620002e0578081fd5b604051604081018181106001600160401b0382111715620002fd57fe5b80604052506200030d83620002a9565b81526200031d60208401620002a9565b6020820152809150505b92915050565b5b60805160601c60a05160601c60c05160c01c60e051611f3262000386600039806107b9528061133352508061066452806112ac5250806105eb528061087452806115ee5250806107955280611b5c5250611f326000f3fe60806040523480156100115760006000fd5b50600436106100fa5760003560e01c806378e9792511610098578063d4ce8c1011610067578063d4ce8c1014610244578063d9e92bf714610262578063f60d7af41461027e578063fc0c546a1461029a576100fa565b806378e97925146101ba5780639cef4240146101d8578063c5c57a22146101f4578063cfb3647b14610226576100fa565b80634162169f116100d45780634162169f14610144578063452a9320146101625780636637b88214610180578063762c31ba1461019c576100fa565b80630b54d683146101005780630c340a241461011c5780633d2ec4001461013a576100fa565b60006000fd5b61011a60048036038101906101159190611de0565b6102b8565b005b6101246102cd565b6040516101319190611e1f565b60405180910390f35b6101426102f3565b005b61014c6103ab565b6040516101599190611e6f565b60405180910390f35b61016a6103d1565b6040516101779190611e1f565b60405180910390f35b61019a60048036038101906101959190611d6d565b6103f7565b005b6101a461063c565b6040516101b19190611e1f565b60405180910390f35b6101c2610662565b6040516101cf9190611edf565b60405180910390f35b6101f260048036038101906101ed9190611d6d565b610686565b005b61020e60048036038101906102099190611d6d565b61072b565b60405161021d93929190611e97565b60405180910390f35b61022e610793565b60405161023b9190611e47565b60405180910390f35b61024c6107b7565b6040516102599190611ecd565b60405180910390f35b61027c60048036038101906102779190611d90565b6107db565b005b61029860048036038101906102939190611dbd565b61085f565b005b6102a2610872565b6040516102af9190611e1f565b60405180910390f35b6102c8828261092863ffffffff16565b5b5050565b600460009054906101000a900473ffffffffffffffffffffffffffffffffffffffff1681565b610352600160009054906101000a900473ffffffffffffffffffffffffffffffffffffffff1673ffffffffffffffffffffffffffffffffffffffff163373ffffffffffffffffffffffffffffffffffffffff161461097f63ffffffff16565b610383600160009054906101000a900473ffffffffffffffffffffffffffffffffffffffff166109fb63ffffffff16565b600160006101000a81549073ffffffffffffffffffffffffffffffffffffffff02191690555b565b600260009054906101000a900473ffffffffffffffffffffffffffffffffffffffff1681565b600060009054906101000a900473ffffffffffffffffffffffffffffffffffffffff1681565b610456600060009054906101000a900473ffffffffffffffffffffffffffffffffffffffff1673ffffffffffffffffffffffffffffffffffffffff163373ffffffffffffffffffffffffffffffffffffffff161461097f63ffffffff16565b61046581610a8363ffffffff16565b15156104dc576040517f08c379a000000000000000000000000000000000000000000000000000000000815260040180806020018281038252600e8152602001807f4e6f74206120636f6e747261637400000000000000000000000000000000000081526020015060200191505060405180910390fd5b600073ffffffffffffffffffffffffffffffffffffffff16600260009054906101000a900473ffffffffffffffffffffffffffffffffffffffff1673ffffffffffffffffffffffffffffffffffffffff161415156105a5576040517f08c379a000000000000000000000000000000000000000000000000000000000815260040180806020018281038252600f8152602001807f44616f20616c726561647920736574000000000000000000000000000000000081526020015060200191505060405180910390fd5b80600260006101000a81548173ffffffffffffffffffffffffffffffffffffffff021916908373ffffffffffffffffffffffffffffffffffffffff1602179055506106377f0000000000000000000000000000000000000000000000000000000000000000827fffffffffffffffffffffffffffffffffffffffffffffffffffffffffffffffff610a9d63ffffffff16565b5b5b50565b600160009054906101000a900473ffffffffffffffffffffffffffffffffffffffff1681565b7f000000000000000000000000000000000000000000000000000000000000000081565b6106e5600060009054906101000a900473ffffffffffffffffffffffffffffffffffffffff1673ffffffffffffffffffffffffffffffffffffffff163373ffffffffffffffffffffffffffffffffffffffff161461097f63ffffffff16565b80600160006101000a81548173ffffffffffffffffffffffffffffffffffffffff021916908373ffffffffffffffffffffffffffffffffffffffff1602179055505b5b50565b60036000506020528060005260406000206000915090508060000160009054906101000a90046fffffffffffffffffffffffffffffffff16908060000160109054906101000a90046fffffffffffffffffffffffffffffffff16908060010160005054905083565b7f000000000000000000000000000000000000000000000000000000000000000081565b7f000000000000000000000000000000000000000000000000000000000000000081565b61083a600460009054906101000a900473ffffffffffffffffffffffffffffffffffffffff1673ffffffffffffffffffffffffffffffffffffffff163373ffffffffffffffffffffffffffffffffffffffff161461097f63ffffffff16565b61085a8261084f83610ca9909063ffffffff16565b610d4363ffffffff16565b5b5050565b61086e81610f3c63ffffffff16565b5b50565b7f000000000000000000000000000000000000000000000000000000000000000081565b6000680100000000000000008210151561091b576040517f08c379a00000000000000000000000000000000000000000000000000000000081526004018080602001828103825260118152602001807f6d6f7265207468616e203634206269747300000000000000000000000000000081526020015060200191505060405180910390fd5b819050610923565b919050565b6109578261094c6109418460ff16610f7f63ffffffff16565b610fe163ffffffff16565b61101763ffffffff16565b61097a826fffffffffffffffffffffffffffffffff1682336114d463ffffffff16565b5b5050565b8015156109f7576040517f08c379a000000000000000000000000000000000000000000000000000000000815260040180806020018281038252600e8152602001807f4e6f7420417574686f72697a656400000000000000000000000000000000000081526020015060200191505060405180910390fd5b5b50565b80600060006101000a81548173ffffffffffffffffffffffffffffffffffffffff021916908373ffffffffffffffffffffffffffffffffffffffff1602179055508073ffffffffffffffffffffffffffffffffffffffff167fb6182387b7ea948602a7e04e662a27ce251dc3dd014eacaed10dce36b41bf1a560405160405180910390a25b50565b60006000823b905060008111915050610a9856505b919050565b600060008473ffffffffffffffffffffffffffffffffffffffff1663095ea7b360e01b8585604051602401808373ffffffffffffffffffffffffffffffffffffffff16815260200182815260200192505050604051602081830303815290604052907bffffffffffffffffffffffffffffffffffffffffffffffffffffffff19166020820180517bffffffffffffffffffffffffffffffffffffffffffffffffffffffff83818316178352505050506040518082805190602001908083835b602083101515610b8257805182525b602082019150602081019050602083039250610b5c565b6001836020036101000a0380198251168184511680821785525050505050509050019150506000604051808303816000865af19150503d8060008114610be4576040519150601f19603f3d011682016040523d82523d6000602084013e610be9565b606091505b5091509150818015610c2a5750600081511480610c295750808060200190516020811015610c175760006000fd5b81019080805190602001909291905050505b5b1515610ca1576040517f08c379a00000000000000000000000000000000000000000000000000000000081526004018080602001828103825260028152602001807f534100000000000000000000000000000000000000000000000000000000000081526020015060200191505060405180910390fd5b50505b505050565b600070010000000000000000000000000000000082101515610d36576040517f08c379a00000000000000000000000000000000000000000000000000000000081526004018080602001828103825260128152602001807f6d6f7265207468616e203132382062697473000000000000000000000000000081526020015060200191505060405180910390fd5b819050610d3e565b919050565b6000816fffffffffffffffffffffffffffffffff16111515610dd0576040517f08c379a00000000000000000000000000000000000000000000000000000000081526004018080602001828103825260058152602001807f4e6f6f702e00000000000000000000000000000000000000000000000000000081526020015060200191505060405180910390fd5b610e5981600360005060008573ffffffffffffffffffffffffffffffffffffffff1673ffffffffffffffffffffffffffffffffffffffff16815260200190815260200160002060005060000160009054906101000a90046fffffffffffffffffffffffffffffffff166fffffffffffffffffffffffffffffffff1661172190919063ffffffff16565b600360005060008473ffffffffffffffffffffffffffffffffffffffff1673ffffffffffffffffffffffffffffffffffffffff16815260200190815260200160002060005060000160006101000a8154816fffffffffffffffffffffffffffffffff02191690836fffffffffffffffffffffffffffffffff1602179055508173ffffffffffffffffffffffffffffffffffffffff167f39269bcc94baba79914cd1fbb42780568649c4411ad91db4c52e1e029bde31e28260405180826fffffffffffffffffffffffffffffffff16815260200191505060405180910390a25b5050565b610f5981610f4e6117ce63ffffffff16565b61101763ffffffff16565b610f7b33826fffffffffffffffffffffffffffffffff166117e963ffffffff16565b5b50565b6000600c610fc162015180610fa961016d8667ffffffffffffffff1661184c90919063ffffffff16565b67ffffffffffffffff1661184c90919063ffffffff16565b67ffffffffffffffff16811515610fd457fe5b049050610fdc565b919050565b600061100d82610ff56117ce63ffffffff16565b67ffffffffffffffff1661191c90919063ffffffff16565b905080505b919050565b6000826fffffffffffffffffffffffffffffffff161115156110a4576040517f08c379a00000000000000000000000000000000000000000000000000000000081526004018080602001828103825260048152602001807f4e6f6f700000000000000000000000000000000000000000000000000000000081526020015060200191505060405180910390fd5b6000600360005060003373ffffffffffffffffffffffffffffffffffffffff1673ffffffffffffffffffffffffffffffffffffffff1681526020019081526020016000206000506040518060600160405290816000820160009054906101000a90046fffffffffffffffffffffffffffffffff166fffffffffffffffffffffffffffffffff166fffffffffffffffffffffffffffffffff1681526020016000820160109054906101000a90046fffffffffffffffffffffffffffffffff166fffffffffffffffffffffffffffffffff166fffffffffffffffffffffffffffffffff16815260200160018201600050548152602001505090506111c58382602001516fffffffffffffffffffffffffffffffff1661172190919063ffffffff16565b81602001906fffffffffffffffffffffffffffffffff1690816fffffffffffffffffffffffffffffffff168152602001505080600001516fffffffffffffffffffffffffffffffff1681602001516fffffffffffffffffffffffffffffffff161115151561129e576040517f08c379a000000000000000000000000000000000000000000000000000000000815260040180806020018281038252600f8152602001807f546f6f206d616e7920746f6b656e73000000000000000000000000000000000081526020015060200191505060405180910390fd5b6113236113106112ef6112e47f00000000000000000000000000000000000000000000000000000000000000008667ffffffffffffffff166119b990919063ffffffff16565b611a5663ffffffff16565b856fffffffffffffffffffffffffffffffff16611a8590919063ffffffff16565b8260400151611aab90919063ffffffff16565b81604001909081815260200150507f000000000000000000000000000000000000000000000000000000000000000061137f82602001516fffffffffffffffffffffffffffffffff168360400151611b3490919063ffffffff16565b101515156113f8576040517f08c379a000000000000000000000000000000000000000000000000000000000815260040180806020018281038252601d8152602001807f4176657261676520756e6c6f636b2074696d6520746f6f2073686f727400000081526020015060200191505060405180910390fd5b80600360005060003373ffffffffffffffffffffffffffffffffffffffff1673ffffffffffffffffffffffffffffffffffffffff16815260200190815260200160002060005060008201518160000160006101000a8154816fffffffffffffffffffffffffffffffff02191690836fffffffffffffffffffffffffffffffff16021790555060208201518160000160106101000a8154816fffffffffffffffffffffffffffffffff02191690836fffffffffffffffffffffffffffffffff160217905550604082015181600101600050909055905050505b5050565b600073ffffffffffffffffffffffffffffffffffffffff16600260009054906101000a900473ffffffffffffffffffffffffffffffffffffffff1673ffffffffffffffffffffffffffffffffffffffff161415151561159e576040517f08c379a000000000000000000000000000000000000000000000000000000000815260040180806020018281038252600b8152602001807f44616f206e6f742073657400000000000000000000000000000000000000000081526020015060200191505060405180910390fd5b6115ae3084611b5a63ffffffff16565b600260009054906101000a900473ffffffffffffffffffffffffffffffffffffffff1673ffffffffffffffffffffffffffffffffffffffff166327fb04747f00000000000000000000000000000000000000000000000000000000000000008585856040518563ffffffff1660e01b8152600401808573ffffffffffffffffffffffffffffffffffffffff1681526020018481526020018360ff1681526020018273ffffffffffffffffffffffffffffffffffffffff168152602001945050505050602060405180830381600087803b15801561168b5760006000fd5b505af11580156116a0573d600060003e3d6000fd5b505050506040513d60208110156116b75760006000fd5b8101908080519060200190929190505050508160ff168173ffffffffffffffffffffffffffffffffffffffff167f603b80bf3fe3620c8b3029a98c48ed6d0a750f155cd9ad74e5a33637b6e27612856040518082815260200191505060405180910390a35b505050565b6000826fffffffffffffffffffffffffffffffff168284019150816fffffffffffffffffffffffffffffffff16101515156117c7576040517f08c379a000000000000000000000000000000000000000000000000000000000815260040180806020018281038252600c8152602001807f6164642d6f766572666c6f77000000000000000000000000000000000000000081526020015060200191505060405180910390fd5b5b92915050565b60006117e142610896909063ffffffff16565b905080505b90565b6117f98282611b5a63ffffffff16565b8173ffffffffffffffffffffffffffffffffffffffff167faf2b23cbaeeb4ac51eb45799ad2661590f109d149e349e2c1b8a89b769c46846826040518082815260200191505060405180910390a25b5050565b600060008267ffffffffffffffff16148061189e57508267ffffffffffffffff168267ffffffffffffffff1683850292508267ffffffffffffffff1681151561189157fe5b0467ffffffffffffffff16145b1515611915576040517f08c379a000000000000000000000000000000000000000000000000000000000815260040180806020018281038252600c8152602001807f6d756c2d6f766572666c6f77000000000000000000000000000000000000000081526020015060200191505060405180910390fd5b5b92915050565b60008267ffffffffffffffff1682840191508167ffffffffffffffff16101515156119b2576040517f08c379a000000000000000000000000000000000000000000000000000000000815260040180806020018281038252600c8152602001807f6164642d6f766572666c6f77000000000000000000000000000000000000000081526020015060200191505060405180910390fd5b5b92915050565b60008267ffffffffffffffff1682840391508167ffffffffffffffff1611151515611a4f576040517f08c379a000000000000000000000000000000000000000000000000000000000815260040180806020018281038252600d8152602001807f7375622d756e646572666c6f770000000000000000000000000000000000000081526020015060200191505060405180910390fd5b5b92915050565b6000611a796301e133808367ffffffffffffffff16611b3490919063ffffffff16565b9050611a80565b919050565b6000611aa08383670de0b6b3a7640000611c0a63ffffffff16565b905080505b92915050565b60008282840191508110151515611b2d576040517f08c379a000000000000000000000000000000000000000000000000000000000815260040180806020018281038252600c8152602001807f6164642d6f766572666c6f77000000000000000000000000000000000000000081526020015060200191505060405180910390fd5b5b92915050565b6000611b4f83670de0b6b3a764000084611c0a63ffffffff16565b905080505b92915050565b7f000000000000000000000000000000000000000000000000000000000000000073ffffffffffffffffffffffffffffffffffffffff16634cd7a31583836040518363ffffffff1660e01b8152600401808373ffffffffffffffffffffffffffffffffffffffff16815260200182815260200192505050600060405180830381600087803b158015611bec5760006000fd5b505af1158015611c01573d600060003e3d6000fd5b505050505b5050565b6000600060006000198587098587029250828110838203039150506000811415611c4d57600084111515611c3e5760006000fd5b83820492508292505050611d04565b8084111515611c5c5760006000fd5b6000848688099050828111820391508083039250600085866000031690508086049550808404935060018182600003040190508083028417935083506000600287600302189050808702600203810290508050808702600203810290508050808702600203810290508050808702600203810290508050808702600203810290508050808702600203810290508050808502955085508595505050505050611d045650505050505b939250505056611efb565b60008135905073ffffffffffffffffffffffffffffffffffffffff811681141515611d3a5760006000fd5b5b919050565b6000813590506fffffffffffffffffffffffffffffffff811681141515611d675760006000fd5b5b919050565b600060208284031215611d7e578081fd5b611d8782611d0f565b90505b92915050565b6000600060408385031215611da3578081fd5b611dac83611d0f565b9150602083013590505b9250929050565b600060208284031215611dce578081fd5b611dd782611d40565b90505b92915050565b6000600060408385031215611df3578182fd5b611dfc83611d40565b9150602083013560ff811681141515611e13578182fd5b809150505b9250929050565b600060208201905073ffffffffffffffffffffffffffffffffffffffff831682525b92915050565b600060208201905073ffffffffffffffffffffffffffffffffffffffff831682525b92915050565b600060208201905073ffffffffffffffffffffffffffffffffffffffff831682525b92915050565b60006060820190506fffffffffffffffffffffffffffffffff80861683528085166020840152508260408301525b949350505050565b60006020820190508282525b92915050565b600060208201905067ffffffffffffffff831682525b92915050565bfea26469706673582212202a1468cd5b0da7a28fc6742cfc122105dc459b873547f31cbc62afc7cb3f4a2564736f6c63430007060033",
  "linkReferences": {},
  "deployedLinkReferences": {}
}