{
  "_format": "hh-sol-artifact-1",
  "contractName": "TestUniswapV3SwapPay",
  "sourceName": "contracts/uniswap-v3-core/test/TestUniswapV3SwapPay.sol",
  "abi": [
    {
      "inputs": [
        {
          "internalType": "address",
          "name": "pool",
          "type": "address"
        },
        {
          "internalType": "address",
          "name": "recipient",
          "type": "address"
        },
        {
          "internalType": "bool",
          "name": "zeroForOne",
          "type": "bool"
        },
        {
          "internalType": "uint160",
          "name": "sqrtPriceX96",
          "type": "uint160"
        },
        {
          "internalType": "int256",
          "name": "amountSpecified",
          "type": "int256"
        },
        {
          "internalType": "uint256",
          "name": "pay0",
          "type": "uint256"
        },
        {
          "internalType": "uint256",
          "name": "pay1",
          "type": "uint256"
        }
      ],
      "name": "swap",
      "outputs": [],
      "stateMutability": "nonpayable",
      "type": "function"
    },
    {
      "inputs": [
        {
          "internalType": "int256",
          "name": "",
          "type": "int256"
        },
        {
          "internalType": "int256",
          "name": "",
          "type": "int256"
        },
        {
          "internalType": "bytes",
          "name": "data",
          "type": "bytes"
        }
      ],
      "name": "uniswapV3SwapCallback",
      "outputs": [],
      "stateMutability": "nonpayable",
      "type": "function"
    }
  ],
  "bytecode": "0x60806040523480156100115760006000fd5b50610017565b6106b6806100266000396000f3fe60806040523480156100115760006000fd5b506004361061003b5760003560e01c8063f13cdf9014610041578063fa461e331461005d5761003b565b60006000fd5b61005b6004803603810190610056919061038f565b610079565b005b61007760048036038101906100729190610415565b61012d565b005b8673ffffffffffffffffffffffffffffffffffffffff1663128acb08878786883388886040516020016100ae939291906104a5565b6040516020818303038152906040526040518663ffffffff1660e01b81526004016100dd9594939291906104db565b6040604051808303816000875af11580156100fd573d600060003e3d6000fd5b505050506040513d601f19601f82011682018060405250810190610121919061058f565b50505b50505050505050565b600060006000848481019061014291906105b7565b9250925092506000821115610247573373ffffffffffffffffffffffffffffffffffffffff16630dfe16816040518163ffffffff1660e01b8152600401602060405180830381865afa15801561019d573d600060003e3d6000fd5b505050506040513d601f19601f820116820180604052508101906101c191906105f3565b73ffffffffffffffffffffffffffffffffffffffff166323b872dd8433856040518463ffffffff1660e01b81526004016101fd9392919061061c565b6020604051808303816000875af115801561021d573d600060003e3d6000fd5b505050506040513d601f19601f820116820180604052508101906102419190610656565b50610343565b6000811115610342573373ffffffffffffffffffffffffffffffffffffffff1663d21220a76040518163ffffffff1660e01b8152600401602060405180830381865afa15801561029c573d600060003e3d6000fd5b505050506040513d601f19601f820116820180604052508101906102c091906105f3565b73ffffffffffffffffffffffffffffffffffffffff166323b872dd8433846040518463ffffffff1660e01b81526004016102fc9392919061061c565b6020604051808303816000875af115801561031c573d600060003e3d6000fd5b505050506040513d601f19601f820116820180604052508101906103409190610656565b505b5b5050505b505050505661067f565b73ffffffffffffffffffffffffffffffffffffffff8116811415156103765760006000fd5b505b565b8015158114151561038b5760006000fd5b505b565b600060006000600060006000600060e0888a0312156103ae5760006000fd5b87356103b981610351565b8097505060208801356103cb81610351565b8096505060408801356103dd8161037a565b8095505060608801356103ef81610351565b809450506080880135925060a0880135915060c088013590505b92959891949750929550565b60006000600060006060858703121561042e5760006000fd5b8435935060208501359250604085013567ffffffffffffffff808211156104555760006000fd5b818701915087601f830112151561046c5760006000fd5b81358181111561047c5760006000fd5b88602082850101111561048f5760006000fd5b6020830194508093505050505b92959194509250565b600060608201905073ffffffffffffffffffffffffffffffffffffffff851682528360208301528260408301525b949350505050565b600073ffffffffffffffffffffffffffffffffffffffff8088168352602087151581850152866040850152818616606085015260a06080850152845191508160a085015260005b828110156105425781818701015160c082870101525b8181019050610522565b8281111561055457600060c084870101525b505060c07fffffffffffffffffffffffffffffffffffffffffffffffffffffffffffffffe0601f8301168401019150505b9695505050505050565b60006000604083850312156105a45760006000fd5b82519150602083015190505b9250929050565b600060006000606084860312156105ce5760006000fd5b83356105d981610351565b8093505060208401359150604084013590505b9250925092565b6000602082840312156106065760006000fd5b815161061181610351565b809150505b92915050565b600060608201905073ffffffffffffffffffffffffffffffffffffffff80861683528085166020840152508260408301525b949350505050565b6000602082840312156106695760006000fd5b81516106748161037a565b809150505b92915050565bfea26469706673582212200e31bae204847b5a3e6df7a59e26529a3c39d4217bc2b3e2595bcc4f6e44cb4664736f6c634300080c0033",
  "linkReferences": {},
  "deployedLinkReferences": {}
}