{
  "_format": "hh-sol-artifact-1",
  "contractName": "TDaoPositionNFT",
  "sourceName": "contracts/core/TDao/TDaoPositionNFT.sol",
  "abi": [
    {
      "inputs": [
        {
          "internalType": "contract ITDao",
          "name": "_tDao",
          "type": "address"
        },
        {
          "internalType": "contract ITDaoPositionNFTDescriptor",
          "name": "_descriptor",
          "type": "address"
        }
      ],
      "stateMutability": "nonpayable",
      "type": "constructor"
    },
    {
      "anonymous": false,
      "inputs": [
        {
          "indexed": true,
          "internalType": "address",
          "name": "owner",
          "type": "address"
        },
        {
          "indexed": true,
          "internalType": "address",
          "name": "approved",
          "type": "address"
        },
        {
          "indexed": true,
          "internalType": "uint256",
          "name": "tokenId",
          "type": "uint256"
        }
      ],
      "name": "Approval",
      "type": "event"
    },
    {
      "anonymous": false,
      "inputs": [
        {
          "indexed": true,
          "internalType": "address",
          "name": "owner",
          "type": "address"
        },
        {
          "indexed": true,
          "internalType": "address",
          "name": "operator",
          "type": "address"
        },
        {
          "indexed": false,
          "internalType": "bool",
          "name": "approved",
          "type": "bool"
        }
      ],
      "name": "ApprovalForAll",
      "type": "event"
    },
    {
      "anonymous": false,
      "inputs": [],
      "name": "PositionDescriptorUpdateAbdicated",
      "type": "event"
    },
    {
      "anonymous": false,
      "inputs": [
        {
          "indexed": true,
          "internalType": "contract ITDaoPositionNFTDescriptor",
          "name": "newPositionDescriptor",
          "type": "address"
        }
      ],
      "name": "PositionDescriptorUpdated",
      "type": "event"
    },
    {
      "anonymous": false,
      "inputs": [
        {
          "indexed": true,
          "internalType": "address",
          "name": "from",
          "type": "address"
        },
        {
          "indexed": true,
          "internalType": "address",
          "name": "to",
          "type": "address"
        },
        {
          "indexed": true,
          "internalType": "uint256",
          "name": "tokenId",
          "type": "uint256"
        }
      ],
      "name": "Transfer",
      "type": "event"
    },
    {
      "inputs": [],
      "name": "abdicateDescriptorUpdate",
      "outputs": [],
      "stateMutability": "nonpayable",
      "type": "function"
    },
    {
      "inputs": [
        {
          "internalType": "address",
          "name": "to",
          "type": "address"
        },
        {
          "internalType": "uint256",
          "name": "tokenId",
          "type": "uint256"
        }
      ],
      "name": "approve",
      "outputs": [],
      "stateMutability": "nonpayable",
      "type": "function"
    },
    {
      "inputs": [
        {
          "internalType": "address",
          "name": "owner",
          "type": "address"
        }
      ],
      "name": "balanceOf",
      "outputs": [
        {
          "internalType": "uint256",
          "name": "",
          "type": "uint256"
        }
      ],
      "stateMutability": "view",
      "type": "function"
    },
    {
      "inputs": [],
      "name": "baseURI",
      "outputs": [
        {
          "internalType": "string",
          "name": "",
          "type": "string"
        }
      ],
      "stateMutability": "view",
      "type": "function"
    },
    {
      "inputs": [
        {
          "internalType": "uint64",
          "name": "tokenID",
          "type": "uint64"
        }
      ],
      "name": "burn",
      "outputs": [],
      "stateMutability": "nonpayable",
      "type": "function"
    },
    {
      "inputs": [],
      "name": "canUpdateDescriptor",
      "outputs": [
        {
          "internalType": "bool",
          "name": "",
          "type": "bool"
        }
      ],
      "stateMutability": "view",
      "type": "function"
    },
    {
      "inputs": [],
      "name": "descriptor",
      "outputs": [
        {
          "internalType": "contract ITDaoPositionNFTDescriptor",
          "name": "",
          "type": "address"
        }
      ],
      "stateMutability": "view",
      "type": "function"
    },
    {
      "inputs": [
        {
          "internalType": "uint256",
          "name": "tokenId",
          "type": "uint256"
        }
      ],
      "name": "getApproved",
      "outputs": [
        {
          "internalType": "address",
          "name": "",
          "type": "address"
        }
      ],
      "stateMutability": "view",
      "type": "function"
    },
    {
      "inputs": [
        {
          "internalType": "address",
          "name": "owner",
          "type": "address"
        },
        {
          "internalType": "address",
          "name": "operator",
          "type": "address"
        }
      ],
      "name": "isApprovedForAll",
      "outputs": [
        {
          "internalType": "bool",
          "name": "",
          "type": "bool"
        }
      ],
      "stateMutability": "view",
      "type": "function"
    },
    {
      "inputs": [
        {
          "internalType": "address",
          "name": "account",
          "type": "address"
        },
        {
          "internalType": "uint256",
          "name": "tokenID",
          "type": "uint256"
        }
      ],
      "name": "isApprovedOrOwner",
      "outputs": [
        {
          "internalType": "bool",
          "name": "",
          "type": "bool"
        }
      ],
      "stateMutability": "view",
      "type": "function"
    },
    {
      "inputs": [
        {
          "internalType": "address",
          "name": "dest",
          "type": "address"
        }
      ],
      "name": "mintTo",
      "outputs": [
        {
          "internalType": "uint64",
          "name": "id",
          "type": "uint64"
        }
      ],
      "stateMutability": "nonpayable",
      "type": "function"
    },
    {
      "inputs": [],
      "name": "name",
      "outputs": [
        {
          "internalType": "string",
          "name": "",
          "type": "string"
        }
      ],
      "stateMutability": "view",
      "type": "function"
    },
    {
      "inputs": [],
      "name": "nextPositionID",
      "outputs": [
        {
          "internalType": "uint64",
          "name": "",
          "type": "uint64"
        }
      ],
      "stateMutability": "view",
      "type": "function"
    },
    {
      "inputs": [
        {
          "internalType": "uint256",
          "name": "tokenId",
          "type": "uint256"
        }
      ],
      "name": "ownerOf",
      "outputs": [
        {
          "internalType": "address",
          "name": "",
          "type": "address"
        }
      ],
      "stateMutability": "view",
      "type": "function"
    },
    {
      "inputs": [
        {
          "internalType": "address",
          "name": "account",
          "type": "address"
        }
      ],
      "name": "positionIDs",
      "outputs": [
        {
          "internalType": "uint64[]",
          "name": "IDs",
          "type": "uint64[]"
        }
      ],
      "stateMutability": "view",
      "type": "function"
    },
    {
      "inputs": [
        {
          "internalType": "address",
          "name": "from",
          "type": "address"
        },
        {
          "internalType": "address",
          "name": "to",
          "type": "address"
        },
        {
          "internalType": "uint256",
          "name": "tokenId",
          "type": "uint256"
        }
      ],
      "name": "safeTransferFrom",
      "outputs": [],
      "stateMutability": "nonpayable",
      "type": "function"
    },
    {
      "inputs": [
        {
          "internalType": "address",
          "name": "from",
          "type": "address"
        },
        {
          "internalType": "address",
          "name": "to",
          "type": "address"
        },
        {
          "internalType": "uint256",
          "name": "tokenId",
          "type": "uint256"
        },
        {
          "internalType": "bytes",
          "name": "_data",
          "type": "bytes"
        }
      ],
      "name": "safeTransferFrom",
      "outputs": [],
      "stateMutability": "nonpayable",
      "type": "function"
    },
    {
      "inputs": [
        {
          "internalType": "address",
          "name": "operator",
          "type": "address"
        },
        {
          "internalType": "bool",
          "name": "approved",
          "type": "bool"
        }
      ],
      "name": "setApprovalForAll",
      "outputs": [],
      "stateMutability": "nonpayable",
      "type": "function"
    },
    {
      "inputs": [
        {
          "internalType": "contract ITDaoPositionNFTDescriptor",
          "name": "newDescriptor",
          "type": "address"
        }
      ],
      "name": "setPositionDescriptor",
      "outputs": [],
      "stateMutability": "nonpayable",
      "type": "function"
    },
    {
      "inputs": [
        {
          "internalType": "bytes4",
          "name": "interfaceId",
          "type": "bytes4"
        }
      ],
      "name": "supportsInterface",
      "outputs": [
        {
          "internalType": "bool",
          "name": "",
          "type": "bool"
        }
      ],
      "stateMutability": "view",
      "type": "function"
    },
    {
      "inputs": [],
      "name": "symbol",
      "outputs": [
        {
          "internalType": "string",
          "name": "",
          "type": "string"
        }
      ],
      "stateMutability": "view",
      "type": "function"
    },
    {
      "inputs": [],
      "name": "tDao",
      "outputs": [
        {
          "internalType": "contract ITDao",
          "name": "",
          "type": "address"
        }
      ],
      "stateMutability": "view",
      "type": "function"
    },
    {
      "inputs": [
        {
          "internalType": "uint256",
          "name": "index",
          "type": "uint256"
        }
      ],
      "name": "tokenByIndex",
      "outputs": [
        {
          "internalType": "uint256",
          "name": "",
          "type": "uint256"
        }
      ],
      "stateMutability": "view",
      "type": "function"
    },
    {
      "inputs": [
        {
          "internalType": "address",
          "name": "owner",
          "type": "address"
        },
        {
          "internalType": "uint256",
          "name": "index",
          "type": "uint256"
        }
      ],
      "name": "tokenOfOwnerByIndex",
      "outputs": [
        {
          "internalType": "uint256",
          "name": "",
          "type": "uint256"
        }
      ],
      "stateMutability": "view",
      "type": "function"
    },
    {
      "inputs": [
        {
          "internalType": "uint256",
          "name": "tokenID",
          "type": "uint256"
        }
      ],
      "name": "tokenURI",
      "outputs": [
        {
          "internalType": "string",
          "name": "",
          "type": "string"
        }
      ],
      "stateMutability": "view",
      "type": "function"
    },
    {
      "inputs": [],
      "name": "totalSupply",
      "outputs": [
        {
          "internalType": "uint256",
          "name": "",
          "type": "uint256"
        }
      ],
      "stateMutability": "view",
      "type": "function"
    },
    {
      "inputs": [
        {
          "internalType": "address",
          "name": "from",
          "type": "address"
        },
        {
          "internalType": "address",
          "name": "to",
          "type": "address"
        },
        {
          "internalType": "uint256",
          "name": "tokenId",
          "type": "uint256"
        }
      ],
      "name": "transferFrom",
      "outputs": [],
      "stateMutability": "nonpayable",
      "type": "function"
    }
  ],
  "bytecode": "0x60a06040526001600a601c6101000a81548160ff0219169083151502179055503480156200002d5760006000fd5b5060405162003f0938038062003f09833981810160405281019062000053919062000496565b5b6040518060400160405280601a81526020017f54727573746c6573732046696e616e636520506f736974696f6e0000000000008152602001506040518060400160405280600c81526020017f5444616f506f736974696f6e00000000000000000000000000000000000000008152602001505b81815b5b620000e36301ffc9a760e01b620001be60201b60201c565b5b8160066000509080519060200190620000ff929190620003cf565b5080600760005090805190602001906200011b929190620003cf565b50620001346380ac58cd60e01b620001be60201b60201c565b6200014c635b5e139f60e01b620001be60201b60201c565b6200016463780e9d6360e01b620001be60201b60201c565b5b50505b50508173ffffffffffffffffffffffffffffffffffffffff1660808173ffffffffffffffffffffffffffffffffffffffff1660601b81526014015050620001b581620002d160201b60201c565b5b505062000534565b63ffffffff60e01b817bffffffffffffffffffffffffffffffffffffffffffffffffffffffff19161415151562000260576040517f08c379a000000000000000000000000000000000000000000000000000000000815260040180806020018281038252601c8152602001807f4552433136353a20696e76616c696420696e746572666163652069640000000081526020015060200191505060405180910390fd5b600160006000506000837bffffffffffffffffffffffffffffffffffffffffffffffffffffffff19167bffffffffffffffffffffffffffffffffffffffffffffffffffffffff1916815260200190815260200160002060006101000a81548160ff0219169083151502179055505b50565b600a601c9054906101000a900460ff16151562000325576040517f08c379a00000000000000000000000000000000000000000000000000000000081526004016200031c90620004d7565b60405180910390fd5b80600a60086101000a81548173ffffffffffffffffffffffffffffffffffffffff021916908373ffffffffffffffffffffffffffffffffffffffff160217905550600a60089054906101000a900473ffffffffffffffffffffffffffffffffffffffff1673ffffffffffffffffffffffffffffffffffffffff167fbe261926e6f803a22831f49bbb304297a70132e30e6ef1aed7a304b2a7dfea9460405160405180910390a25b50565b828054600181600116156101000203166002900490600052602060002090601f01602090048101928262000407576000855562000458565b82601f106200042257805160ff191683800117855562000458565b8280016001018555821562000458579182015b8281111562000457578251826000509090559160200191906001019062000435565b5b5090506200046791906200046b565b5090565b62000471565b808211156200048d576000818150600090555060010162000471565b50905662000533565b6000600060408385031215620004aa578182fd5b8251620004b78162000516565b809250506020830151620004cb8162000516565b809150505b9250929050565b600060208252600b60208301527f43616e742075706461746500000000000000000000000000000000000000000060408301526060820190505b919050565b6001600160a01b038116811415156200052f5760006000fd5b5b50565b5b60805160601c61399e6200056b60003980610a5b5280610c5e5280610fe15280611b055280611e715280612206525061399e6000f3fe60806040523480156100115760006000fd5b50600436106101be5760003560e01c80635a11a9ad116100fa57806395d89b4111610098578063b88d4fde11610072578063b88d4fde146104f8578063c87b56dd14610514578063d4d5efb614610544578063e985e9c514610562576101be565b806395d89b41146104a25780639dbead42146104c0578063a22cb465146104dc576101be565b8063701d99b0116100d4578063701d99b01461041c57806370a0823114610426578063755edd171461045657806392208f3714610486576101be565b80635a11a9ad1461039e5780636352211e146103ce5780636c0360eb146103fe576101be565b806323b872dd1161016757806342842e0e1161014157806342842e0e14610304578063430c2081146103205780634c92beb7146103505780634f6ccce71461036e576101be565b806323b872dd1461029a5780632f745c59146102b6578063303e74df146102e6576101be565b8063095ea7b311610198578063095ea7b31461024257806318160ddd1461025e5780631c8249051461027c576101be565b806301ffc9a7146101c457806306fdde03146101f4578063081812fc14610212576101be565b60006000fd5b6101de60048036038101906101d991906132d7565b610592565b6040516101eb919061349d565b60405180910390f35b6101fc610602565b6040516102099190613501565b60405180910390f35b61022c600480360381019061022791906133cc565b6106ac565b604051610239919061341d565b60405180910390f35b61025c6004803603810190610257919061327f565b610757565b005b6102666108be565b6040516102739190613638565b60405180910390f35b6102846108df565b604051610291919061364a565b60405180910390f35b6102b460048036038101906102af9190613148565b6108f9565b005b6102d060048036038101906102cb919061327f565b610984565b6040516102dd9190613638565b60405180910390f35b6102ee6109ea565b6040516102fb91906134b1565b60405180910390f35b61031e60048036038101906103199190613148565b610a10565b005b61033a6004803603810190610335919061327f565b610a3a565b604051610347919061349d565b60405180910390f35b610358610a59565b60405161036591906134d9565b60405180910390f35b610388600480360381019061038391906133cc565b610a7d565b6040516103959190613638565b60405180910390f35b6103b860048036038101906103b391906130e5565b610aaa565b6040516103c59190613445565b60405180910390f35b6103e860048036038101906103e391906133cc565b610b73565b6040516103f5919061341d565b60405180910390f35b610406610bb2565b6040516104139190613501565b60405180910390f35b610424610c5c565b005b610440600480360381019061043b91906130e5565b610d37565b60405161044d9190613638565b60405180910390f35b610470600480360381019061046b91906130e5565b610e22565b60405161047d919061364a565b60405180910390f35b6104a0600480360381019061049b9190613324565b610fdf565b005b6104aa611083565b6040516104b79190613501565b60405180910390f35b6104da60048036038101906104d591906133e8565b61112d565b005b6104f660048036038101906104f19190613243565b6111d0565b005b610512600480360381019061050d919061318d565b6113a4565b005b61052e600480360381019061052991906133cc565b611431565b60405161053b9190613501565b60405180910390f35b61054c611501565b604051610559919061349d565b60405180910390f35b61057c6004803603810190610577919061310c565b611514565b604051610589919061349d565b60405180910390f35b600060006000506000837bffffffffffffffffffffffffffffffffffffffffffffffffffffffff19167bffffffffffffffffffffffffffffffffffffffffffffffffffffffff1916815260200190815260200160002060009054906101000a900460ff1690506105fd565b919050565b606060066000508054600181600116156101000203166002900480601f01602080910402602001604051908101604052809291908181526020018280546001816001161561010002031660029004801561069d5780601f106106725761010080835404028352916020019161069d565b820191906000526020600020905b81548152906001019060200180831161068057829003601f168201915b505050505090506106a9565b90565b60006106bd826115b363ffffffff16565b1515610714576040517f08c379a000000000000000000000000000000000000000000000000000000000815260040180806020018281038252602c8152602001806138c2602c913960400191505060405180910390fd5b6004600050600083815260200190815260200160002060009054906101000a900473ffffffffffffffffffffffffffffffffffffffff169050610752565b919050565b600061076882610b7363ffffffff16565b90508073ffffffffffffffffffffffffffffffffffffffff168373ffffffffffffffffffffffffffffffffffffffff16141515156107f1576040517f08c379a00000000000000000000000000000000000000000000000000000000081526004018080602001828103825260218152602001806139176021913960400191505060405180910390fd5b8073ffffffffffffffffffffffffffffffffffffffff166108166115d863ffffffff16565b73ffffffffffffffffffffffffffffffffffffffff1614806108515750610850816108456115d863ffffffff16565b61151463ffffffff16565b5b15156108a8576040517f08c379a00000000000000000000000000000000000000000000000000000000081526004018080602001828103825260388152602001806138156038913960400191505060405180910390fd5b6108b883836115e563ffffffff16565b505b5050565b60006108d560026000506116a8909063ffffffff16565b90506108dc565b90565b600a60009054906101000a900467ffffffffffffffff1681565b61091661090a6115d863ffffffff16565b826116cb63ffffffff16565b151561096d576040517f08c379a00000000000000000000000000000000000000000000000000000000081526004018080602001828103825260318152602001806139386031913960400191505060405180910390fd5b61097e8383836117df63ffffffff16565b5b505050565b60006109dd82600160005060008673ffffffffffffffffffffffffffffffffffffffff1673ffffffffffffffffffffffffffffffffffffffff168152602001908152602001600020600050611a4890919063ffffffff16565b90506109e4565b92915050565b600a60089054906101000a900473ffffffffffffffffffffffffffffffffffffffff1681565b610a34838383604051806020016040528060008152602001506113a463ffffffff16565b5b505050565b6000610a4c83836116cb63ffffffff16565b9050610a53565b92915050565b7f000000000000000000000000000000000000000000000000000000000000000081565b60006000610a98836002600050611a7090919063ffffffff16565b50905080915050610aa556505b919050565b60606000610abd83610d3763ffffffff16565b90508067ffffffffffffffff81118015610ad75760006000fd5b50604051908082528060200260200182016040528015610b065781602001602082028036833780820191505090505b50915081506000600090505b81811015610b6b57610b2a848261098463ffffffff16565b8382815181101515610b3857fe5b602002602001019067ffffffffffffffff16908167ffffffffffffffff16815260200150505b8080600101915050610b12565b50505b919050565b6000610ba682604051806060016040528060298152602001613877602991396002600050611ab19092919063ffffffff16565b9050610bad565b919050565b606060096000508054600181600116156101000203166002900480601f016020809104026020016040519081016040528092919081815260200182805460018160011615610100020316600290048015610c4d5780601f10610c2257610100808354040283529160200191610c4d565b820191906000526020600020905b815481529060010190602001808311610c3057829003601f168201915b50505050509050610c59565b90565b7f000000000000000000000000000000000000000000000000000000000000000073ffffffffffffffffffffffffffffffffffffffff163373ffffffffffffffffffffffffffffffffffffffff16141515610cec576040517f08c379a0000000000000000000000000000000000000000000000000000000008152600401610ce390613555565b60405180910390fd5b6000600a601c6101000a81548160ff0219169083151502179055507f88ed789c9703c009a915c15b497a9b05ae6f0bbbc4fed4347fff2eea43fe504060405160405180910390a15b5b565b6000600073ffffffffffffffffffffffffffffffffffffffff168273ffffffffffffffffffffffffffffffffffffffff1614151515610dc1576040517f08c379a000000000000000000000000000000000000000000000000000000000815260040180806020018281038252602a81526020018061384d602a913960400191505060405180910390fd5b610e16600160005060008473ffffffffffffffffffffffffffffffffffffffff1673ffffffffffffffffffffffffffffffffffffffff168152602001908152602001600020600050611ade909063ffffffff16565b9050610e1d565b919050565b6000610e3333611b0163ffffffff16565b1515610eaa576040517f08c379a000000000000000000000000000000000000000000000000000000000815260040180806020018281038252600e8152602001807f4e6f7420417574686f72697a656400000000000000000000000000000000000081526020015060200191505060405180910390fd5b67ffffffffffffffff67ffffffffffffffff16600a60009054906101000a900467ffffffffffffffff1667ffffffffffffffff16101515610f56576040517f08c379a00000000000000000000000000000000000000000000000000000000081526004018080602001828103825260088152602001807f4f766572666c6f7700000000000000000000000000000000000000000000000081526020015060200191505060405180910390fd5b600a60009054906101000a900467ffffffffffffffff1690508050600a600081819054906101000a900467ffffffffffffffff168092919060010191906101000a81548167ffffffffffffffff021916908367ffffffffffffffff16021790555050610fd2828267ffffffffffffffff16611b5e63ffffffff16565b809050610fda565b919050565b7f000000000000000000000000000000000000000000000000000000000000000073ffffffffffffffffffffffffffffffffffffffff163373ffffffffffffffffffffffffffffffffffffffff1614151561106f576040517f08c379a000000000000000000000000000000000000000000000000000000000815260040161106690613555565b60405180910390fd5b61107e81611d7263ffffffff16565b5b5b50565b606060076000508054600181600116156101000203166002900480601f01602080910402602001604051908101604052809291908181526020018280546001816001161561010002031660029004801561111e5780601f106110f35761010080835404028352916020019161111e565b820191906000526020600020905b81548152906001019060200180831161110157829003601f168201915b5050505050905061112a565b90565b61113c33611e6d63ffffffff16565b15156111b3576040517f08c379a000000000000000000000000000000000000000000000000000000000815260040180806020018281038252600e8152602001807f4e6f7420417574686f72697a656400000000000000000000000000000000000081526020015060200191505060405180910390fd5b6111cc8167ffffffffffffffff16611eca63ffffffff16565b5b50565b6111de6115d863ffffffff16565b73ffffffffffffffffffffffffffffffffffffffff168273ffffffffffffffffffffffffffffffffffffffff1614151515611284576040517f08c379a00000000000000000000000000000000000000000000000000000000081526004018080602001828103825260198152602001807f4552433732313a20617070726f766520746f2063616c6c65720000000000000081526020015060200191505060405180910390fd5b806005600050600061129a6115d863ffffffff16565b73ffffffffffffffffffffffffffffffffffffffff1673ffffffffffffffffffffffffffffffffffffffff16815260200190815260200160002060005060008473ffffffffffffffffffffffffffffffffffffffff1673ffffffffffffffffffffffffffffffffffffffff16815260200190815260200160002060006101000a81548160ff0219169083151502179055508173ffffffffffffffffffffffffffffffffffffffff166113506115d863ffffffff16565b73ffffffffffffffffffffffffffffffffffffffff167f17307eab39ab6107e8899845ad3d59bd9653f200f220920489ca2b5937696c318360405180821515815260200191505060405180910390a35b5050565b6113c16113b56115d863ffffffff16565b836116cb63ffffffff16565b1515611418576040517f08c379a00000000000000000000000000000000000000000000000000000000081526004018080602001828103825260318152602001806139386031913960400191505060405180910390fd5b61142a8484848461202b63ffffffff16565b5b50505050565b6060600a60089054906101000a900473ffffffffffffffffffffffffffffffffffffffff1673ffffffffffffffffffffffffffffffffffffffff16632bf2bc8f611482846120ac909063ffffffff16565b6040518263ffffffff1660e01b815260040161149e919061364a565b60006040518083038186803b1580156114b75760006000fd5b505afa1580156114cc573d600060003e3d6000fd5b505050506040513d6000823e3d601f19601f820116820180604052508101906114f5919061334b565b90506114fc565b919050565b600a601c9054906101000a900460ff1681565b6000600560005060008473ffffffffffffffffffffffffffffffffffffffff1673ffffffffffffffffffffffffffffffffffffffff16815260200190815260200160002060005060008373ffffffffffffffffffffffffffffffffffffffff1673ffffffffffffffffffffffffffffffffffffffff16815260200190815260200160002060009054906101000a900460ff1690506115ad565b92915050565b60006115cc82600260005061213e90919063ffffffff16565b90506115d3565b919050565b60003390506115e2565b90565b816004600050600083815260200190815260200160002060006101000a81548173ffffffffffffffffffffffffffffffffffffffff021916908373ffffffffffffffffffffffffffffffffffffffff160217905550808273ffffffffffffffffffffffffffffffffffffffff1661166183610b7363ffffffff16565b73ffffffffffffffffffffffffffffffffffffffff167f8c5be1e5ebec7d5bd14f71427d1e84f3dd0314c0f7b2291e5b200ac8c7c3b92560405160405180910390a45b5050565b60006116bf8260000160005061216663ffffffff16565b90506116c6565b919050565b60006116dc826115b363ffffffff16565b1515611733576040517f08c379a000000000000000000000000000000000000000000000000000000000815260040180806020018281038252602c8152602001806137e9602c913960400191505060405180910390fd5b600061174483610b7363ffffffff16565b90508073ffffffffffffffffffffffffffffffffffffffff168473ffffffffffffffffffffffffffffffffffffffff1614806117b957508373ffffffffffffffffffffffffffffffffffffffff166117a1846106ac63ffffffff16565b73ffffffffffffffffffffffffffffffffffffffff16145b806117d057506117cf818561151463ffffffff16565b5b9150506117d956505b92915050565b8273ffffffffffffffffffffffffffffffffffffffff1661180582610b7363ffffffff16565b73ffffffffffffffffffffffffffffffffffffffff16141515611873576040517f08c379a00000000000000000000000000000000000000000000000000000000081526004018080602001828103825260298152602001806138ee6029913960400191505060405180910390fd5b600073ffffffffffffffffffffffffffffffffffffffff168273ffffffffffffffffffffffffffffffffffffffff16141515156118fb576040517f08c379a000000000000000000000000000000000000000000000000000000000815260040180806020018281038252602481526020018061379f6024913960400191505060405180910390fd5b61190c83838361217f63ffffffff16565b61191d6000826115e563ffffffff16565b61197481600160005060008673ffffffffffffffffffffffffffffffffffffffff1673ffffffffffffffffffffffffffffffffffffffff16815260200190815260200160002060005061230690919063ffffffff16565b506119cc81600160005060008573ffffffffffffffffffffffffffffffffffffffff1673ffffffffffffffffffffffffffffffffffffffff16815260200190815260200160002060005061232e90919063ffffffff16565b506119e6818360026000506123569092919063ffffffff16565b50808273ffffffffffffffffffffffffffffffffffffffff168473ffffffffffffffffffffffffffffffffffffffff167fddf252ad1be2c89b69c2b068fc378daa952ba7f163c4a11628f55a4df523b3ef60405160405180910390a45b505050565b6000611a60836000016000508361239963ffffffff16565b60001c9050611a6a565b92915050565b6000600060006000611a8e866000016000508661243063ffffffff16565b915091508160001c8160001c809050935093505050611aaa5650505b9250929050565b6000611acd846000016000508460001b846124e463ffffffff16565b60001c9050611ad7565b9392505050565b6000611af5826000016000506125fe63ffffffff16565b9050611afc565b919050565b60007f000000000000000000000000000000000000000000000000000000000000000073ffffffffffffffffffffffffffffffffffffffff168273ffffffffffffffffffffffffffffffffffffffff16149050611b59565b919050565b600073ffffffffffffffffffffffffffffffffffffffff168273ffffffffffffffffffffffffffffffffffffffff1614151515611c06576040517f08c379a00000000000000000000000000000000000000000000000000000000081526004018080602001828103825260208152602001807f4552433732313a206d696e7420746f20746865207a65726f206164647265737381526020015060200191505060405180910390fd5b611c15816115b363ffffffff16565b151515611c8d576040517f08c379a000000000000000000000000000000000000000000000000000000000815260040180806020018281038252601c8152602001807f4552433732313a20746f6b656e20616c7265616479206d696e7465640000000081526020015060200191505060405180910390fd5b611c9f6000838361217f63ffffffff16565b611cf681600160005060008573ffffffffffffffffffffffffffffffffffffffff1673ffffffffffffffffffffffffffffffffffffffff16815260200190815260200160002060005061232e90919063ffffffff16565b50611d10818360026000506123569092919063ffffffff16565b50808273ffffffffffffffffffffffffffffffffffffffff16600073ffffffffffffffffffffffffffffffffffffffff167fddf252ad1be2c89b69c2b068fc378daa952ba7f163c4a11628f55a4df523b3ef60405160405180910390a45b5050565b600a601c9054906101000a900460ff161515611dc3576040517f08c379a0000000000000000000000000000000000000000000000000000000008152600401611dba90613594565b60405180910390fd5b80600a60086101000a81548173ffffffffffffffffffffffffffffffffffffffff021916908373ffffffffffffffffffffffffffffffffffffffff160217905550600a60089054906101000a900473ffffffffffffffffffffffffffffffffffffffff1673ffffffffffffffffffffffffffffffffffffffff167fbe261926e6f803a22831f49bbb304297a70132e30e6ef1aed7a304b2a7dfea9460405160405180910390a25b50565b60007f000000000000000000000000000000000000000000000000000000000000000073ffffffffffffffffffffffffffffffffffffffff168273ffffffffffffffffffffffffffffffffffffffff16149050611ec5565b919050565b6000611edb82610b7363ffffffff16565b9050611eef8160008461217f63ffffffff16565b611f006000836115e563ffffffff16565b600060086000506000848152602001908152602001600020600050805460018160011615610100020316600290049050141515611f5a57600860005060008381526020019081526020016000206000611f599190613076565b5b611fb182600160005060008473ffffffffffffffffffffffffffffffffffffffff1673ffffffffffffffffffffffffffffffffffffffff16815260200190815260200160002060005061230690919063ffffffff16565b50611fc982600260005061261790919063ffffffff16565b5081600073ffffffffffffffffffffffffffffffffffffffff168273ffffffffffffffffffffffffffffffffffffffff167fddf252ad1be2c89b69c2b068fc378daa952ba7f163c4a11628f55a4df523b3ef60405160405180910390a4505b50565b61203c8484846117df63ffffffff16565b61204e8484848461263f63ffffffff16565b15156120a5576040517f08c379a000000000000000000000000000000000000000000000000000000000815260040180806020018281038252603281526020018061376d6032913960400191505060405180910390fd5b5b50505050565b60006801000000000000000082101515612131576040517f08c379a00000000000000000000000000000000000000000000000000000000081526004018080602001828103825260118152602001807f6d6f7265207468616e203634206269747300000000000000000000000000000081526020015060200191505060405180910390fd5b819050612139565b919050565b6000612159836000016000508360001b61287063ffffffff16565b9050612160565b92915050565b60008160000160005080549050905061217a565b919050565b6121908383836128a763ffffffff16565b600073ffffffffffffffffffffffffffffffffffffffff168373ffffffffffffffffffffffffffffffffffffffff1614156121ca57612301565b600073ffffffffffffffffffffffffffffffffffffffff168273ffffffffffffffffffffffffffffffffffffffff16141561220457612301565b7f000000000000000000000000000000000000000000000000000000000000000073ffffffffffffffffffffffffffffffffffffffff16632e74e628612251836120ac909063ffffffff16565b6040518263ffffffff1660e01b815260040161226d919061364a565b60206040518083038186803b1580156122865760006000fd5b505afa15801561229b573d600060003e3d6000fd5b505050506040513d601f19601f820116820180604052508101906122bf91906132b0565b1515612300576040517f08c379a00000000000000000000000000000000000000000000000000000000081526004016122f7906135d3565b60405180910390fd5b5b505050565b6000612321836000016000508360001b6128ad63ffffffff16565b9050612328565b92915050565b6000612349836000016000508360001b6129f863ffffffff16565b9050612350565b92915050565b600061238b846000016000508460001b8473ffffffffffffffffffffffffffffffffffffffff1660001b612a9763ffffffff16565b9050612392565b9392505050565b60008183600001600050805490501115156123ff576040517f08c379a000000000000000000000000000000000000000000000000000000000815260040180806020018281038252602281526020018061374b6022913960400191505060405180910390fd5b826000016000508281548110151561241357fe5b906000526020600020900160005b5054905061242a565b92915050565b60006000828460000160005080549050111515612498576040517f08c379a00000000000000000000000000000000000000000000000000000000081526004018080602001828103825260228152602001806138a06022913960400191505060405180910390fd5b600084600001600050848154811015156124ae57fe5b906000526020600020906002020160005b5090508060000160005054816001016000505492509250506124dd56505b9250929050565b6000600084600101600050600085600019166000191681526020019081526020016000206000505490506000811415839015156125bd576040517f08c379a00000000000000000000000000000000000000000000000000000000081526004018080602001828103825283818151815260200191508051906020019080838360005b838110156125825780820151818401525b602081019050612566565b50505050905090810190601f1680156125af5780820380516001836020036101000a031916815260200191505b509250505060405180910390fd5b5084600001600050600182038154811015156125d557fe5b906000526020600020906002020160005b50600101600050549150506125f756505b9392505050565b600081600001600050805490509050612612565b919050565b6000612632836000016000508360001b612bd263ffffffff16565b9050612639565b92915050565b60006126688473ffffffffffffffffffffffffffffffffffffffff16612d64909063ffffffff16565b15156126775760019050612868565b60006127e863150b7a0260e01b6126926115d863ffffffff16565b888787604051602401808573ffffffffffffffffffffffffffffffffffffffff1681526020018473ffffffffffffffffffffffffffffffffffffffff16815260200183815260200180602001828103825283818151815260200191508051906020019080838360005b838110156127175780820151818401525b6020810190506126fb565b50505050905090810190601f1680156127445780820380516001836020036101000a031916815260200191505b5095505050505050604051602081830303815290604052907bffffffffffffffffffffffffffffffffffffffffffffffffffffffff19166020820180517bffffffffffffffffffffffffffffffffffffffffffffffffffffffff838183161783525050505060405180606001604052806032815260200161376d603291398773ffffffffffffffffffffffffffffffffffffffff16612d7e9092919063ffffffff16565b905060008180602001905160208110156128025760006000fd5b8101908080519060200190929190505050905063150b7a0260e01b7bffffffffffffffffffffffffffffffffffffffffffffffffffffffff1916817bffffffffffffffffffffffffffffffffffffffffffffffffffffffff191614925050506128685650505b949350505050565b60006000836001016000506000846000191660001916815260200190815260200160002060005054141590506128a1565b92915050565b5b505050565b6000600083600101600050600084600019166000191681526020019081526020016000206000505490506000811415156129e65760006001820390506000600186600001600050805490500390506000866000016000508281548110151561291157fe5b906000526020600020900160005b5054905080876000016000508481548110151561293857fe5b906000526020600020900160005b508190906000191690555060018301876001016000506000836000191660001916815260200190815260200160002060005081909090555086600001600050805480151561299057fe5b600190038181906000526020600020900160005b5060009055905586600101600050600087600019166000191681526020019081526020016000206000506000905560019450505050506129f2565050506129f0565b60009150506129f2565b505b92915050565b6000612a0a8383612da163ffffffff16565b1515612a87578260000160005082908060018154018082558091505060019003906000526020600020900160005b90919091909150906000191690558260000160005080549050836001016000506000846000191660001916815260200190815260200160002060005081909090555060019050612a9156612a90565b60009050612a91565b5b92915050565b6000600084600101600050600085600019166000191681526020019081526020016000206000505490506000811415612b8557846000016000506040518060400160405280866000191681526020018560001916815260200150908060018154018082558091505060019003906000526020600020906002020160005b9091909190915060008201518160000160005090600019169055602082015181600101600050906000191690555050846000016000508054905085600101600050600086600019166000191681526020019081526020016000206000508190909055506001915050612bcb56612bc9565b828560000160005060018303815481101515612b9d57fe5b906000526020600020906002020160005b50600101600050819090600019169055506000915050612bcb565b505b9392505050565b600060008360010160005060008460001916600019168152602001908152602001600020600050549050600081141515612d5257600060018203905060006001866000016000508054905003905060008660000160005082815481101515612c3657fe5b906000526020600020906002020160005b509050808760000160005084815481101515612c5f57fe5b906000526020600020906002020160005b50600082016000505481600001600050906000191690556001820160005054816001016000509060001916905590505060018301876001016000506000836000016000505460001916600019168152602001908152602001600020600050819090905550866000016000508054801515612ce657fe5b600190038181906000526020600020906002020160005b60008201600050600090556001820160005060009055505090558660010160005060008760001916600019168152602001908152602001600020600050600090556001945050505050612d5e56505050612d5c565b6000915050612d5e565b505b92915050565b60006000823b905060008111915050612d7956505b919050565b6060612d938484600085612dd863ffffffff16565b9050612d9a565b9392505050565b6000600083600101600050600084600019166000191681526020019081526020016000206000505414159050612dd2565b92915050565b6060824710151515612e35576040517f08c379a00000000000000000000000000000000000000000000000000000000081526004018080602001828103825260268152602001806137c36026913960400191505060405180910390fd5b612e4485612d6463ffffffff16565b1515612ebb576040517f08c379a000000000000000000000000000000000000000000000000000000000815260040180806020018281038252601d8152602001807f416464726573733a2063616c6c20746f206e6f6e2d636f6e747261637400000081526020015060200191505060405180910390fd5b600060008673ffffffffffffffffffffffffffffffffffffffff1685876040518082805190602001908083835b602083101515612f0e57805182525b602082019150602081019050602083039250612ee8565b6001836020036101000a03801982511681845116808217855250505050505090500191505060006040518083038185875af1925050503d8060008114612f70576040519150601f19603f3d011682016040523d82523d6000602084013e612f75565b606091505b5091509150612f8b828286612f9e63ffffffff16565b92505050612f965650505b949350505050565b60608315612fb25782905061306f5661306e565b600083511115612fca5782518084602001fd5061306d565b816040517f08c379a00000000000000000000000000000000000000000000000000000000081526004018080602001828103825283818151815260200191508051906020019080838360005b838110156130325780820151818401525b602081019050613016565b50505050905090810190601f16801561305f5780820380516001836020036101000a031916815260200191505b509250505060405180910390fd5b5b5b9392505050565b50805460018160011615610100020316600290046000825580601f1061309c57506130bb565b601f0160209004906000526020600020908101906130ba91906130be565b5b50565b6130c3565b808211156130dd57600081815060009055506001016130c3565b509056613749565b6000602082840312156130f6578081fd5b81356131018161370b565b809150505b92915050565b600060006040838503121561311f578081fd5b823561312a8161370b565b80925050602083013561313c8161370b565b809150505b9250929050565b6000600060006060848603121561315d578081fd5b83356131688161370b565b80935050602084013561317a8161370b565b80925050604084013590505b9250925092565b6000600060006000608085870312156131a4578081fd5b84356131af8161370b565b8094505060208501356131c18161370b565b8093505060408501359150606085013567ffffffffffffffff8111156131e5578182fd5b808601905086601f82011215156131fa578182fd5b803561320d61320882613691565b613666565b818152886020838501011115613221578384fd5b8160208401602083013783602083830101528093505050505b92959194509250565b6000600060408385031215613256578182fd5b82356132618161370b565b80925050602083013561327381613734565b809150505b9250929050565b6000600060408385031215613292578182fd5b823561329d8161370b565b80925050602083013590505b9250929050565b6000602082840312156132c1578081fd5b81516132cc81613734565b809150505b92915050565b6000602082840312156132e8578081fd5b81357fffffffff00000000000000000000000000000000000000000000000000000000811681141515613319578182fd5b809150505b92915050565b600060208284031215613335578081fd5b81356133408161370b565b809150505b92915050565b60006020828403121561335c578081fd5b815167ffffffffffffffff811115613372578182fd5b808301905083601f8201121515613387578182fd5b805161339a61339582613691565b613666565b8181528560208385010111156133ae578384fd5b6133bf8260208301602086016136d6565b8093505050505b92915050565b6000602082840312156133dd578081fd5b813590505b92915050565b6000602082840312156133f9578081fd5b813567ffffffffffffffff811681141515613412578182fd5b809150505b92915050565b600060208201905073ffffffffffffffffffffffffffffffffffffffff831682525b92915050565b600060208083018184528085518083526040860191508387019250845b8181101561348e5767ffffffffffffffff8451168352848301925084840193505b600181019050613462565b50508093505050505b92915050565b600060208201905082151582525b92915050565b600060208201905073ffffffffffffffffffffffffffffffffffffffff831682525b92915050565b600060208201905073ffffffffffffffffffffffffffffffffffffffff831682525b92915050565b60006020825282518060208401526135208160408501602087016136d6565b60407fffffffffffffffffffffffffffffffffffffffffffffffffffffffffffffffe0601f8301168401019150505b92915050565b600060208252600e60208301527f4e6f7420417574686f72697a656400000000000000000000000000000000000060408301526060820190505b919050565b600060208252600b60208301527f43616e742075706461746500000000000000000000000000000000000000000060408301526060820190505b919050565b600060208252602660208301527f43616e74207472616e7366657220746f6b656e206265666f726520756e6c6f6360408301527f6b2074696d65000000000000000000000000000000000000000000000000000060608301526080820190505b919050565b60006020820190508282525b92915050565b600060208201905067ffffffffffffffff831682525b92915050565b6000604051905081810181811067ffffffffffffffff8211171561368657fe5b80604052505b919050565b600067ffffffffffffffff8211156136a557fe5b60207fffffffffffffffffffffffffffffffffffffffffffffffffffffffffffffffe0601f8401160190505b919050565b60005b838110156136f55780820151818401525b6020810190506136d9565b83811115613704576000848401525b505b505050565b73ffffffffffffffffffffffffffffffffffffffff8116811415156137305760006000fd5b5b50565b801515811415156137455760006000fd5b5b50565bfe456e756d657261626c655365743a20696e646578206f7574206f6620626f756e64734552433732313a207472616e7366657220746f206e6f6e20455243373231526563656976657220696d706c656d656e7465724552433732313a207472616e7366657220746f20746865207a65726f2061646472657373416464726573733a20696e73756666696369656e742062616c616e636520666f722063616c6c4552433732313a206f70657261746f7220717565727920666f72206e6f6e6578697374656e7420746f6b656e4552433732313a20617070726f76652063616c6c6572206973206e6f74206f776e6572206e6f7220617070726f76656420666f7220616c6c4552433732313a2062616c616e636520717565727920666f7220746865207a65726f20616464726573734552433732313a206f776e657220717565727920666f72206e6f6e6578697374656e7420746f6b656e456e756d657261626c654d61703a20696e646578206f7574206f6620626f756e64734552433732313a20617070726f76656420717565727920666f72206e6f6e6578697374656e7420746f6b656e4552433732313a207472616e73666572206f6620746f6b656e2074686174206973206e6f74206f776e4552433732313a20617070726f76616c20746f2063757272656e74206f776e65724552433732313a207472616e736665722063616c6c6572206973206e6f74206f776e6572206e6f7220617070726f766564a2646970667358221220020006e289c82f0edc95d4e70a17f67833886366cb1e3149ce76edf2789b76b264736f6c63430007060033",
  "linkReferences": {},
  "deployedLinkReferences": {}
}