{
  "_format": "hh-sol-artifact-1",
  "contractName": "TDaoPositionNFT",
  "sourceName": "contracts/core/TDao/TDaoPositionNFT.sol",
  "abi": [
    {
      "inputs": [
        {
          "internalType": "contract ITDao",
          "name": "_tDao",
          "type": "address"
        },
        {
          "internalType": "contract ITDaoPositionNFTDescriptor",
          "name": "_descriptor",
          "type": "address"
        }
      ],
      "stateMutability": "nonpayable",
      "type": "constructor"
    },
    {
      "anonymous": false,
      "inputs": [
        {
          "indexed": true,
          "internalType": "address",
          "name": "owner",
          "type": "address"
        },
        {
          "indexed": true,
          "internalType": "address",
          "name": "approved",
          "type": "address"
        },
        {
          "indexed": true,
          "internalType": "uint256",
          "name": "tokenId",
          "type": "uint256"
        }
      ],
      "name": "Approval",
      "type": "event"
    },
    {
      "anonymous": false,
      "inputs": [
        {
          "indexed": true,
          "internalType": "address",
          "name": "owner",
          "type": "address"
        },
        {
          "indexed": true,
          "internalType": "address",
          "name": "operator",
          "type": "address"
        },
        {
          "indexed": false,
          "internalType": "bool",
          "name": "approved",
          "type": "bool"
        }
      ],
      "name": "ApprovalForAll",
      "type": "event"
    },
    {
      "anonymous": false,
      "inputs": [],
      "name": "PositionDescriptorUpdateAbdicated",
      "type": "event"
    },
    {
      "anonymous": false,
      "inputs": [
        {
          "indexed": true,
          "internalType": "contract ITDaoPositionNFTDescriptor",
          "name": "newPositionDescriptor",
          "type": "address"
        }
      ],
      "name": "PositionDescriptorUpdated",
      "type": "event"
    },
    {
      "anonymous": false,
      "inputs": [
        {
          "indexed": true,
          "internalType": "address",
          "name": "from",
          "type": "address"
        },
        {
          "indexed": true,
          "internalType": "address",
          "name": "to",
          "type": "address"
        },
        {
          "indexed": true,
          "internalType": "uint256",
          "name": "tokenId",
          "type": "uint256"
        }
      ],
      "name": "Transfer",
      "type": "event"
    },
    {
      "inputs": [],
      "name": "abdicateDescriptorUpdate",
      "outputs": [],
      "stateMutability": "nonpayable",
      "type": "function"
    },
    {
      "inputs": [
        {
          "internalType": "address",
          "name": "to",
          "type": "address"
        },
        {
          "internalType": "uint256",
          "name": "tokenId",
          "type": "uint256"
        }
      ],
      "name": "approve",
      "outputs": [],
      "stateMutability": "nonpayable",
      "type": "function"
    },
    {
      "inputs": [
        {
          "internalType": "address",
          "name": "owner",
          "type": "address"
        }
      ],
      "name": "balanceOf",
      "outputs": [
        {
          "internalType": "uint256",
          "name": "",
          "type": "uint256"
        }
      ],
      "stateMutability": "view",
      "type": "function"
    },
    {
      "inputs": [
        {
          "internalType": "uint64",
          "name": "tokenID",
          "type": "uint64"
        }
      ],
      "name": "burn",
      "outputs": [],
      "stateMutability": "nonpayable",
      "type": "function"
    },
    {
      "inputs": [],
      "name": "canUpdateDescriptor",
      "outputs": [
        {
          "internalType": "bool",
          "name": "",
          "type": "bool"
        }
      ],
      "stateMutability": "view",
      "type": "function"
    },
    {
      "inputs": [],
      "name": "descriptor",
      "outputs": [
        {
          "internalType": "contract ITDaoPositionNFTDescriptor",
          "name": "",
          "type": "address"
        }
      ],
      "stateMutability": "view",
      "type": "function"
    },
    {
      "inputs": [
        {
          "internalType": "uint256",
          "name": "tokenId",
          "type": "uint256"
        }
      ],
      "name": "getApproved",
      "outputs": [
        {
          "internalType": "address",
          "name": "",
          "type": "address"
        }
      ],
      "stateMutability": "view",
      "type": "function"
    },
    {
      "inputs": [
        {
          "internalType": "address",
          "name": "owner",
          "type": "address"
        },
        {
          "internalType": "address",
          "name": "operator",
          "type": "address"
        }
      ],
      "name": "isApprovedForAll",
      "outputs": [
        {
          "internalType": "bool",
          "name": "",
          "type": "bool"
        }
      ],
      "stateMutability": "view",
      "type": "function"
    },
    {
      "inputs": [
        {
          "internalType": "address",
          "name": "account",
          "type": "address"
        },
        {
          "internalType": "uint256",
          "name": "tokenID",
          "type": "uint256"
        }
      ],
      "name": "isApprovedOrOwner",
      "outputs": [
        {
          "internalType": "bool",
          "name": "",
          "type": "bool"
        }
      ],
      "stateMutability": "view",
      "type": "function"
    },
    {
      "inputs": [
        {
          "internalType": "address",
          "name": "dest",
          "type": "address"
        }
      ],
      "name": "mintTo",
      "outputs": [
        {
          "internalType": "uint64",
          "name": "id",
          "type": "uint64"
        }
      ],
      "stateMutability": "nonpayable",
      "type": "function"
    },
    {
      "inputs": [],
      "name": "name",
      "outputs": [
        {
          "internalType": "string",
          "name": "",
          "type": "string"
        }
      ],
      "stateMutability": "view",
      "type": "function"
    },
    {
      "inputs": [],
      "name": "nextPositionID",
      "outputs": [
        {
          "internalType": "uint64",
          "name": "",
          "type": "uint64"
        }
      ],
      "stateMutability": "view",
      "type": "function"
    },
    {
      "inputs": [
        {
          "internalType": "uint256",
          "name": "tokenId",
          "type": "uint256"
        }
      ],
      "name": "ownerOf",
      "outputs": [
        {
          "internalType": "address",
          "name": "",
          "type": "address"
        }
      ],
      "stateMutability": "view",
      "type": "function"
    },
    {
      "inputs": [
        {
          "internalType": "address",
          "name": "account",
          "type": "address"
        }
      ],
      "name": "positionIDs",
      "outputs": [
        {
          "internalType": "uint64[]",
          "name": "IDs",
          "type": "uint64[]"
        }
      ],
      "stateMutability": "view",
      "type": "function"
    },
    {
      "inputs": [
        {
          "internalType": "address",
          "name": "from",
          "type": "address"
        },
        {
          "internalType": "address",
          "name": "to",
          "type": "address"
        },
        {
          "internalType": "uint256",
          "name": "tokenId",
          "type": "uint256"
        }
      ],
      "name": "safeTransferFrom",
      "outputs": [],
      "stateMutability": "nonpayable",
      "type": "function"
    },
    {
      "inputs": [
        {
          "internalType": "address",
          "name": "from",
          "type": "address"
        },
        {
          "internalType": "address",
          "name": "to",
          "type": "address"
        },
        {
          "internalType": "uint256",
          "name": "tokenId",
          "type": "uint256"
        },
        {
          "internalType": "bytes",
          "name": "_data",
          "type": "bytes"
        }
      ],
      "name": "safeTransferFrom",
      "outputs": [],
      "stateMutability": "nonpayable",
      "type": "function"
    },
    {
      "inputs": [
        {
          "internalType": "address",
          "name": "operator",
          "type": "address"
        },
        {
          "internalType": "bool",
          "name": "approved",
          "type": "bool"
        }
      ],
      "name": "setApprovalForAll",
      "outputs": [],
      "stateMutability": "nonpayable",
      "type": "function"
    },
    {
      "inputs": [
        {
          "internalType": "contract ITDaoPositionNFTDescriptor",
          "name": "newDescriptor",
          "type": "address"
        }
      ],
      "name": "setPositionDescriptor",
      "outputs": [],
      "stateMutability": "nonpayable",
      "type": "function"
    },
    {
      "inputs": [
        {
          "internalType": "bytes4",
          "name": "interfaceId",
          "type": "bytes4"
        }
      ],
      "name": "supportsInterface",
      "outputs": [
        {
          "internalType": "bool",
          "name": "",
          "type": "bool"
        }
      ],
      "stateMutability": "view",
      "type": "function"
    },
    {
      "inputs": [],
      "name": "symbol",
      "outputs": [
        {
          "internalType": "string",
          "name": "",
          "type": "string"
        }
      ],
      "stateMutability": "view",
      "type": "function"
    },
    {
      "inputs": [],
      "name": "tDao",
      "outputs": [
        {
          "internalType": "contract ITDao",
          "name": "",
          "type": "address"
        }
      ],
      "stateMutability": "view",
      "type": "function"
    },
    {
      "inputs": [
        {
          "internalType": "uint256",
          "name": "index",
          "type": "uint256"
        }
      ],
      "name": "tokenByIndex",
      "outputs": [
        {
          "internalType": "uint256",
          "name": "",
          "type": "uint256"
        }
      ],
      "stateMutability": "view",
      "type": "function"
    },
    {
      "inputs": [
        {
          "internalType": "address",
          "name": "owner",
          "type": "address"
        },
        {
          "internalType": "uint256",
          "name": "index",
          "type": "uint256"
        }
      ],
      "name": "tokenOfOwnerByIndex",
      "outputs": [
        {
          "internalType": "uint256",
          "name": "",
          "type": "uint256"
        }
      ],
      "stateMutability": "view",
      "type": "function"
    },
    {
      "inputs": [
        {
          "internalType": "uint256",
          "name": "tokenID",
          "type": "uint256"
        }
      ],
      "name": "tokenURI",
      "outputs": [
        {
          "internalType": "string",
          "name": "",
          "type": "string"
        }
      ],
      "stateMutability": "view",
      "type": "function"
    },
    {
      "inputs": [],
      "name": "totalSupply",
      "outputs": [
        {
          "internalType": "uint256",
          "name": "",
          "type": "uint256"
        }
      ],
      "stateMutability": "view",
      "type": "function"
    },
    {
      "inputs": [
        {
          "internalType": "address",
          "name": "from",
          "type": "address"
        },
        {
          "internalType": "address",
          "name": "to",
          "type": "address"
        },
        {
          "internalType": "uint256",
          "name": "tokenId",
          "type": "uint256"
        }
      ],
      "name": "transferFrom",
      "outputs": [],
      "stateMutability": "nonpayable",
      "type": "function"
    }
  ],
  "bytecode": "0x60a06040526001600a601c6101000a81548160ff0219169083151502179055503480156200002d5760006000fd5b5060405162003c7d38038062003c7d83398181016040528101906200005391906200031b565b5b6040518060400160405280601a81526020017f54727573746c6573732046696e616e636520506f736974696f6e0000000000008152602001506040518060400160405280600c81526020017f5444616f506f736974696f6e00000000000000000000000000000000000000008152602001505b81815b8160006000509080519060200190620000e59291906200025a565b508060016000509080519060200190620001019291906200025a565b505b50505b50508173ffffffffffffffffffffffffffffffffffffffff1660808173ffffffffffffffffffffffffffffffffffffffff1660601b8152601401505062000153816200015c60201b60201c565b5b5050620003fd565b600a601c9054906101000a900460ff161515620001b0576040517f08c379a0000000000000000000000000000000000000000000000000000000008152600401620001a7906200035c565b60405180910390fd5b80600a60086101000a81548173ffffffffffffffffffffffffffffffffffffffff021916908373ffffffffffffffffffffffffffffffffffffffff160217905550600a60089054906101000a900473ffffffffffffffffffffffffffffffffffffffff1673ffffffffffffffffffffffffffffffffffffffff167fbe261926e6f803a22831f49bbb304297a70132e30e6ef1aed7a304b2a7dfea9460405160405180910390a25b50565b82805462000268906200039b565b90600052602060002090601f0160209004810192826200028c5760008555620002dd565b82601f10620002a757805160ff1916838001178555620002dd565b82800160010185558215620002dd579182015b82811115620002dc5782518260005090905591602001919060010190620002ba565b5b509050620002ec9190620002f0565b5090565b620002f6565b80821115620003125760008181506000905550600101620002f6565b509056620003fc565b60006000604083850312156200032f578182fd5b82516200033c81620003df565b8092505060208301516200035081620003df565b809150505b9250929050565b60208152600b60208201527f43616e7420757064617465000000000000000000000000000000000000000000604082015260006060820190505b919050565b60008160011c905060018216801515620003b657607f821691505b60208210811415620003d857634e487b7160e01b600052602260045260246000fd5b505b919050565b6001600160a01b03811681141515620003f85760006000fd5b505b565b5b60805160601c61383e6200043f60003960008181610a2801528181610cdb01528181610fd30152818161195001528181611c91015261214b015261383e6000f3fe60806040523480156100115760006000fd5b50600436106101b35760003560e01c80635a11a9ad116100ef57806395d89b4111610098578063b88d4fde11610072578063b88d4fde146104cf578063c87b56dd146104eb578063d4d5efb61461051b578063e985e9c514610539576101b3565b806395d89b41146104795780639dbead4214610497578063a22cb465146104b3576101b3565b806370a08231116100c957806370a08231146103fd578063755edd171461042d57806392208f371461045d576101b3565b80635a11a9ad146103935780636352211e146103c3578063701d99b0146103f3576101b3565b806323b872dd1161015c57806342842e0e1161013657806342842e0e146102f9578063430c2081146103155780634c92beb7146103455780634f6ccce714610363576101b3565b806323b872dd1461028f5780632f745c59146102ab578063303e74df146102db576101b3565b8063095ea7b31161018d578063095ea7b31461023757806318160ddd146102535780631c82490514610271576101b3565b806301ffc9a7146101b957806306fdde03146101e9578063081812fc14610207576101b3565b60006000fd5b6101d360048036038101906101ce9190612b6d565b610569565b6040516101e09190612dcc565b60405180910390f35b6101f16105ee565b6040516101fe9190612e30565b60405180910390f35b610221600480360381019061021c9190612c63565b610688565b60405161022e9190612d01565b60405180910390f35b610251600480360381019061024c9190612b15565b61071d565b005b61025b610858565b6040516102689190613526565b60405180910390f35b61027961086d565b6040516102869190613538565b60405180910390f35b6102a960048036038101906102a491906129de565b610887565b005b6102c560048036038101906102c09190612b15565b6108fc565b6040516102d29190613526565b60405180910390f35b6102e36109b7565b6040516102f09190612de0565b60405180910390f35b610313600480360381019061030e91906129de565b6109dd565b005b61032f600480360381019061032a9190612b15565b610a07565b60405161033c9190612dcc565b60405180910390f35b61034d610a26565b60405161035a9190612e08565b60405180910390f35b61037d60048036038101906103789190612c63565b610a4a565b60405161038a9190613526565b60405180910390f35b6103ad60048036038101906103a8919061297b565b610af8565b6040516103ba9190612d74565b60405180910390f35b6103dd60048036038101906103d89190612c63565b610c1b565b6040516103ea9190612d01565b60405180910390f35b6103fb610cd9565b005b6104176004803603810190610412919061297b565b610db4565b6040516104249190613526565b60405180910390f35b6104476004803603810190610442919061297b565b610e7a565b6040516104549190613538565b60405180910390f35b61047760048036038101906104729190612bbb565b610fd1565b005b610481611075565b60405161048e9190612e30565b60405180910390f35b6104b160048036038101906104ac9190612c7f565b61110f565b005b6104cd60048036038101906104c89190612ad9565b61117c565b005b6104e960048036038101906104e49190612a23565b61119f565b005b61050560048036038101906105009190612c63565b611216565b6040516105129190612e30565b60405180910390f35b6105236112e6565b6040516105309190612dcc565b60405180910390f35b610553600480360381019061054e91906129a2565b6112f9565b6040516105609190612dcc565b60405180910390f35b60007f780e9d63000000000000000000000000000000000000000000000000000000007bffffffffffffffffffffffffffffffffffffffffffffffffffffffff1916827bffffffffffffffffffffffffffffffffffffffffffffffffffffffff191614806105e257506105e18261139863ffffffff16565b5b90506105e9565b919050565b6060600060005080546106009061366b565b80601f016020809104026020016040519081016040528092919081815260200182805461062c9061366b565b80156106795780601f1061064e57610100808354040283529160200191610679565b820191906000526020600020905b81548152906001019060200180831161065c57829003601f168201915b50505050509050610685565b90565b60006106998261148563ffffffff16565b15156106da576040517f08c379a00000000000000000000000000000000000000000000000000000000081526004016106d19061324a565b60405180910390fd5b6004600050600083815260200190815260200160002060009054906101000a900473ffffffffffffffffffffffffffffffffffffffff169050610718565b919050565b600061072e82610c1b63ffffffff16565b90508073ffffffffffffffffffffffffffffffffffffffff168373ffffffffffffffffffffffffffffffffffffffff16141515156107a1576040517f08c379a000000000000000000000000000000000000000000000000000000000815260040161079890613353565b60405180910390fd5b8073ffffffffffffffffffffffffffffffffffffffff166107c66114fa63ffffffff16565b73ffffffffffffffffffffffffffffffffffffffff1614806108015750610800816107f56114fa63ffffffff16565b6112f963ffffffff16565b5b1515610842576040517f08c379a0000000000000000000000000000000000000000000000000000000008152600401610839906130dc565b60405180910390fd5b610852838361150763ffffffff16565b505b5050565b6000600860005080549050905061086a565b90565b600a60009054906101000a900467ffffffffffffffff1681565b6108a46108986114fa63ffffffff16565b826115ca63ffffffff16565b15156108e5576040517f08c379a00000000000000000000000000000000000000000000000000000000081526004016108dc9061341d565b60405180910390fd5b6108f68383836116c863ffffffff16565b5b505050565b600061090d83610db463ffffffff16565b82101515610950576040517f08c379a000000000000000000000000000000000000000000000000000000000815260040161094790612e8b565b60405180910390fd5b600660005060008473ffffffffffffffffffffffffffffffffffffffff1673ffffffffffffffffffffffffffffffffffffffff16815260200190815260200160002060005060008381526020019081526020016000206000505490506109b1565b92915050565b600a60089054906101000a900473ffffffffffffffffffffffffffffffffffffffff1681565b610a018383836040518060200160405280600081526020015061119f63ffffffff16565b5b505050565b6000610a1983836115ca63ffffffff16565b9050610a20565b92915050565b7f000000000000000000000000000000000000000000000000000000000000000081565b6000610a5a61085863ffffffff16565b82101515610a9d576040517f08c379a0000000000000000000000000000000000000000000000000000000008152600401610a9490613482565b60405180910390fd5b600860005082815481101515610adc577f4e487b7100000000000000000000000000000000000000000000000000000000600052603260045260246000fd5b906000526020600020900160005b50549050610af3565b919050565b60606000610b0b83610db463ffffffff16565b90508067ffffffffffffffff811115610b4d577f4e487b7100000000000000000000000000000000000000000000000000000000600052604160045260246000fd5b604051908082528060200260200182016040528015610b7b5781602001602082028036833780820191505090505b50915081506000600090505b81811015610c1357610b9f84826108fc63ffffffff16565b8382815181101515610bda577f4e487b7100000000000000000000000000000000000000000000000000000000600052603260045260246000fd5b602002602001019067ffffffffffffffff16908167ffffffffffffffff16815260200150505b8080610c0b906136c6565b915050610b87565b50505b919050565b600060006002600050600084815260200190815260200160002060009054906101000a900473ffffffffffffffffffffffffffffffffffffffff169050600073ffffffffffffffffffffffffffffffffffffffff168173ffffffffffffffffffffffffffffffffffffffff1614151515610cca576040517f08c379a0000000000000000000000000000000000000000000000000000000008152600401610cc1906131a6565b60405180910390fd5b80915050610cd456505b919050565b7f000000000000000000000000000000000000000000000000000000000000000073ffffffffffffffffffffffffffffffffffffffff163373ffffffffffffffffffffffffffffffffffffffff16141515610d69576040517f08c379a0000000000000000000000000000000000000000000000000000000008152600401610d609061309d565b60405180910390fd5b6000600a601c6101000a81548160ff0219169083151502179055507f88ed789c9703c009a915c15b497a9b05ae6f0bbbc4fed4347fff2eea43fe504060405160405180910390a15b5b565b6000600073ffffffffffffffffffffffffffffffffffffffff168273ffffffffffffffffffffffffffffffffffffffff1614151515610e28576040517f08c379a0000000000000000000000000000000000000000000000000000000008152600401610e1f90613141565b60405180910390fd5b600360005060008373ffffffffffffffffffffffffffffffffffffffff1673ffffffffffffffffffffffffffffffffffffffff168152602001908152602001600020600050549050610e75565b919050565b6000610e8b3361194c63ffffffff16565b1515610ecc576040517f08c379a0000000000000000000000000000000000000000000000000000000008152600401610ec39061309d565b60405180910390fd5b67ffffffffffffffff67ffffffffffffffff16600a60009054906101000a900467ffffffffffffffff1667ffffffffffffffff16101515610f42576040517f08c379a0000000000000000000000000000000000000000000000000000000008152600401610f3990612e4c565b60405180910390fd5b600a60009054906101000a900467ffffffffffffffff1690508050600a600081819054906101000a900467ffffffffffffffff1680929190610f8390613705565b91906101000a81548167ffffffffffffffff021916908367ffffffffffffffff16021790555050610fc4828267ffffffffffffffff166119a963ffffffff16565b809050610fcc565b919050565b7f000000000000000000000000000000000000000000000000000000000000000073ffffffffffffffffffffffffffffffffffffffff163373ffffffffffffffffffffffffffffffffffffffff16141515611061576040517f08c379a00000000000000000000000000000000000000000000000000000000081526004016110589061309d565b60405180910390fd5b61107081611b9263ffffffff16565b5b5b50565b6060600160005080546110879061366b565b80601f01602080910402602001604051908101604052809291908181526020018280546110b39061366b565b80156111005780601f106110d557610100808354040283529160200191611100565b820191906000526020600020905b8154815290600101906020018083116110e357829003601f168201915b5050505050905061110c565b90565b61111e33611c8d63ffffffff16565b151561115f576040517f08c379a00000000000000000000000000000000000000000000000000000000081526004016111569061309d565b60405180910390fd5b6111788167ffffffffffffffff16611cea63ffffffff16565b5b50565b61119a61118d6114fa63ffffffff16565b8383611e1863ffffffff16565b5b5050565b6111bc6111b06114fa63ffffffff16565b836115ca63ffffffff16565b15156111fd576040517f08c379a00000000000000000000000000000000000000000000000000000000081526004016111f49061341d565b60405180910390fd5b61120f84848484611f8e63ffffffff16565b5b50505050565b6060600a60089054906101000a900473ffffffffffffffffffffffffffffffffffffffff1673ffffffffffffffffffffffffffffffffffffffff16632bf2bc8f61126784611ff9909063ffffffff16565b6040518263ffffffff1660e01b81526004016112839190613538565b60006040518083038186803b15801561129c5760006000fd5b505afa1580156112b1573d600060003e3d6000fd5b505050506040513d6000823e3d601f19601f820116820180604052508101906112da9190612be2565b90506112e1565b919050565b600a601c9054906101000a900460ff1681565b6000600560005060008473ffffffffffffffffffffffffffffffffffffffff1673ffffffffffffffffffffffffffffffffffffffff16815260200190815260200160002060005060008373ffffffffffffffffffffffffffffffffffffffff1673ffffffffffffffffffffffffffffffffffffffff16815260200190815260200160002060009054906101000a900460ff169050611392565b92915050565b60007f80ac58cd000000000000000000000000000000000000000000000000000000007bffffffffffffffffffffffffffffffffffffffffffffffffffffffff1916827bffffffffffffffffffffffffffffffffffffffffffffffffffffffff1916148061146357507f5b5e139f000000000000000000000000000000000000000000000000000000007bffffffffffffffffffffffffffffffffffffffffffffffffffffffff1916827bffffffffffffffffffffffffffffffffffffffffffffffffffffffff1916145b8061147957506114788261205563ffffffff16565b5b9050611480565b919050565b6000600073ffffffffffffffffffffffffffffffffffffffff166002600050600084815260200190815260200160002060009054906101000a900473ffffffffffffffffffffffffffffffffffffffff1673ffffffffffffffffffffffffffffffffffffffff16141590506114f5565b919050565b6000339050611504565b90565b816004600050600083815260200190815260200160002060006101000a81548173ffffffffffffffffffffffffffffffffffffffff021916908373ffffffffffffffffffffffffffffffffffffffff160217905550808273ffffffffffffffffffffffffffffffffffffffff1661158383610c1b63ffffffff16565b73ffffffffffffffffffffffffffffffffffffffff167f8c5be1e5ebec7d5bd14f71427d1e84f3dd0314c0f7b2291e5b200ac8c7c3b92560405160405180910390a45b5050565b60006115db8261148563ffffffff16565b151561161c576040517f08c379a000000000000000000000000000000000000000000000000000000000815260040161161390613038565b60405180910390fd5b600061162d83610c1b63ffffffff16565b90508073ffffffffffffffffffffffffffffffffffffffff168473ffffffffffffffffffffffffffffffffffffffff1614806116a257508373ffffffffffffffffffffffffffffffffffffffff1661168a8461068863ffffffff16565b73ffffffffffffffffffffffffffffffffffffffff16145b806116b957506116b881856112f963ffffffff16565b5b9150506116c256505b92915050565b8273ffffffffffffffffffffffffffffffffffffffff166116ee82610c1b63ffffffff16565b73ffffffffffffffffffffffffffffffffffffffff16141515611746576040517f08c379a000000000000000000000000000000000000000000000000000000000815260040161173d906132ee565b60405180910390fd5b600073ffffffffffffffffffffffffffffffffffffffff168273ffffffffffffffffffffffffffffffffffffffff16141515156117b8576040517f08c379a00000000000000000000000000000000000000000000000000000000081526004016117af90612f94565b60405180910390fd5b6117c98383836120c463ffffffff16565b6117da60008261150763ffffffff16565b6001600360005060008573ffffffffffffffffffffffffffffffffffffffff1673ffffffffffffffffffffffffffffffffffffffff1681526020019081526020016000206000828282505461182f9190613617565b9250508190909055506001600360005060008473ffffffffffffffffffffffffffffffffffffffff1673ffffffffffffffffffffffffffffffffffffffff1681526020019081526020016000206000828282505461188d91906135f7565b925050819090905550816002600050600083815260200190815260200160002060006101000a81548173ffffffffffffffffffffffffffffffffffffffff021916908373ffffffffffffffffffffffffffffffffffffffff160217905550808273ffffffffffffffffffffffffffffffffffffffff168473ffffffffffffffffffffffffffffffffffffffff167fddf252ad1be2c89b69c2b068fc378daa952ba7f163c4a11628f55a4df523b3ef60405160405180910390a45b505050565b60007f000000000000000000000000000000000000000000000000000000000000000073ffffffffffffffffffffffffffffffffffffffff168273ffffffffffffffffffffffffffffffffffffffff161490506119a4565b919050565b600073ffffffffffffffffffffffffffffffffffffffff168273ffffffffffffffffffffffffffffffffffffffff1614151515611a1b576040517f08c379a0000000000000000000000000000000000000000000000000000000008152600401611a129061320b565b60405180910390fd5b611a2a8161148563ffffffff16565b151515611a6c576040517f08c379a0000000000000000000000000000000000000000000000000000000008152600401611a6390612f55565b60405180910390fd5b611a7e600083836120c463ffffffff16565b6001600360005060008473ffffffffffffffffffffffffffffffffffffffff1673ffffffffffffffffffffffffffffffffffffffff16815260200190815260200160002060008282825054611ad391906135f7565b925050819090905550816002600050600083815260200190815260200160002060006101000a81548173ffffffffffffffffffffffffffffffffffffffff021916908373ffffffffffffffffffffffffffffffffffffffff160217905550808273ffffffffffffffffffffffffffffffffffffffff16600073ffffffffffffffffffffffffffffffffffffffff167fddf252ad1be2c89b69c2b068fc378daa952ba7f163c4a11628f55a4df523b3ef60405160405180910390a45b5050565b600a601c9054906101000a900460ff161515611be3576040517f08c379a0000000000000000000000000000000000000000000000000000000008152600401611bda906132af565b60405180910390fd5b80600a60086101000a81548173ffffffffffffffffffffffffffffffffffffffff021916908373ffffffffffffffffffffffffffffffffffffffff160217905550600a60089054906101000a900473ffffffffffffffffffffffffffffffffffffffff1673ffffffffffffffffffffffffffffffffffffffff167fbe261926e6f803a22831f49bbb304297a70132e30e6ef1aed7a304b2a7dfea9460405160405180910390a25b50565b60007f000000000000000000000000000000000000000000000000000000000000000073ffffffffffffffffffffffffffffffffffffffff168273ffffffffffffffffffffffffffffffffffffffff16149050611ce5565b919050565b6000611cfb82610c1b63ffffffff16565b9050611d0f816000846120c463ffffffff16565b611d2060008361150763ffffffff16565b6001600360005060008373ffffffffffffffffffffffffffffffffffffffff1673ffffffffffffffffffffffffffffffffffffffff16815260200190815260200160002060008282825054611d759190613617565b9250508190909055506002600050600083815260200190815260200160002060006101000a81549073ffffffffffffffffffffffffffffffffffffffff021916905581600073ffffffffffffffffffffffffffffffffffffffff168273ffffffffffffffffffffffffffffffffffffffff167fddf252ad1be2c89b69c2b068fc378daa952ba7f163c4a11628f55a4df523b3ef60405160405180910390a4505b50565b8173ffffffffffffffffffffffffffffffffffffffff168373ffffffffffffffffffffffffffffffffffffffff1614151515611e89576040517f08c379a0000000000000000000000000000000000000000000000000000000008152600401611e8090612ff9565b60405180910390fd5b80600560005060008573ffffffffffffffffffffffffffffffffffffffff1673ffffffffffffffffffffffffffffffffffffffff16815260200190815260200160002060005060008473ffffffffffffffffffffffffffffffffffffffff1673ffffffffffffffffffffffffffffffffffffffff16815260200190815260200160002060006101000a81548160ff0219169083151502179055508173ffffffffffffffffffffffffffffffffffffffff168373ffffffffffffffffffffffffffffffffffffffff167f17307eab39ab6107e8899845ad3d59bd9653f200f220920489ca2b5937696c3183604051611f809190612dcc565b60405180910390a35b505050565b611f9f8484846116c863ffffffff16565b611fb18484848461224b63ffffffff16565b1515611ff2576040517f08c379a0000000000000000000000000000000000000000000000000000000008152600401611fe990612ef0565b60405180910390fd5b5b50505050565b60006801000000000000000082101515612048576040517f08c379a000000000000000000000000000000000000000000000000000000000815260040161203f906134e7565b60405180910390fd5b819050612050565b919050565b60007f01ffc9a7000000000000000000000000000000000000000000000000000000007bffffffffffffffffffffffffffffffffffffffffffffffffffffffff1916827bffffffffffffffffffffffffffffffffffffffffffffffffffffffff19161490506120bf565b919050565b6120d583838361240963ffffffff16565b600073ffffffffffffffffffffffffffffffffffffffff168373ffffffffffffffffffffffffffffffffffffffff16141561210f57612246565b600073ffffffffffffffffffffffffffffffffffffffff168273ffffffffffffffffffffffffffffffffffffffff16141561214957612246565b7f000000000000000000000000000000000000000000000000000000000000000073ffffffffffffffffffffffffffffffffffffffff16632e74e62861219683611ff9909063ffffffff16565b6040518263ffffffff1660e01b81526004016121b29190613538565b60206040518083038186803b1580156121cb5760006000fd5b505afa1580156121e0573d600060003e3d6000fd5b505050506040513d601f19601f820116820180604052508101906122049190612b46565b1515612245576040517f08c379a000000000000000000000000000000000000000000000000000000000815260040161223c906133b8565b60405180910390fd5b5b505050565b60006122748473ffffffffffffffffffffffffffffffffffffffff16612540909063ffffffff16565b156123f7578373ffffffffffffffffffffffffffffffffffffffff1663150b7a026122a36114fa63ffffffff16565b8786866040518563ffffffff1660e01b81526004016122c59493929190612d29565b602060405180830381600087803b1580156122e05760006000fd5b505af192505050801561231157506040513d601f19601f8201168201806040525081019061230e9190612b94565b60015b6123a1575b5b3d8060008114612343576040519150601f19603f3d011682016040523d82523d6000602084013e612348565b606091505b50600081511415612392576040517f08c379a000000000000000000000000000000000000000000000000000000000815260040161238590612ef0565b60405180910390fd61239a565b805181602001fd5b505b6123f2565b63150b7a0260e01b7bffffffffffffffffffffffffffffffffffffffffffffffffffffffff1916817bffffffffffffffffffffffffffffffffffffffffffffffffffffffff19161491505061240156505b612400565b60019050612401565b5b949350505050565b61241a83838361255a63ffffffff16565b600073ffffffffffffffffffffffffffffffffffffffff168373ffffffffffffffffffffffffffffffffffffffff1614156124635761245e8161256063ffffffff16565b6124aa565b8173ffffffffffffffffffffffffffffffffffffffff168373ffffffffffffffffffffffffffffffffffffffff161415156124a9576124a883826125bc63ffffffff16565b5b5b600073ffffffffffffffffffffffffffffffffffffffff168273ffffffffffffffffffffffffffffffffffffffff1614156124f3576124ee8161276363ffffffff16565b61253a565b8273ffffffffffffffffffffffffffffffffffffffff168273ffffffffffffffffffffffffffffffffffffffff161415156125395761253882826128de63ffffffff16565b5b5b5b505050565b60006000823b90506000811191505061255556505b919050565b5b505050565b60086000508054905060096000506000838152602001908152602001600020600050819090905550600860005081908060018154018082558091505060019003906000526020600020900160005b909190919091509090555b50565b600060016125cf84610db463ffffffff16565b6125d99190613617565b905060006007600050600084815260200190815260200160002060005054905081811415156126e2576000600660005060008673ffffffffffffffffffffffffffffffffffffffff1673ffffffffffffffffffffffffffffffffffffffff168152602001908152602001600020600050600084815260200190815260200160002060005054905080600660005060008773ffffffffffffffffffffffffffffffffffffffff1673ffffffffffffffffffffffffffffffffffffffff16815260200190815260200160002060005060008481526020019081526020016000206000508190909055508160076000506000838152602001908152602001600020600050819090905550505b6007600050600084815260200190815260200160002060005060009055600660005060008573ffffffffffffffffffffffffffffffffffffffff1673ffffffffffffffffffffffffffffffffffffffff16815260200190815260200160002060005060008381526020019081526020016000206000506000905550505b5050565b6000600160086000508054905061277a9190613617565b905060006009600050600084815260200190815260200160002060005054905060006008600050838154811015156127db577f4e487b7100000000000000000000000000000000000000000000000000000000600052603260045260246000fd5b906000526020600020900160005b505490508060086000508381548110151561282d577f4e487b7100000000000000000000000000000000000000000000000000000000600052603260045260246000fd5b906000526020600020900160005b5081909090555081600960005060008381526020019081526020016000206000508190909055506009600050600085815260200190815260200160002060005060009055600860005080548015156128bc577f4e487b7100000000000000000000000000000000000000000000000000000000600052603160045260246000fd5b600190038181906000526020600020900160005b506000905590555050505b50565b60006128ef83610db463ffffffff16565b905081600660005060008573ffffffffffffffffffffffffffffffffffffffff1673ffffffffffffffffffffffffffffffffffffffff16815260200190815260200160002060005060008381526020019081526020016000206000508190909055508060076000506000848152602001908152602001600020600050819090905550505b505056613807565b60006020828403121561298c578081fd5b813561299781613794565b809150505b92915050565b60006000604083850312156129b5578081fd5b82356129c081613794565b8092505060208301356129d281613794565b809150505b9250929050565b600060006000606084860312156129f3578081fd5b83356129fe81613794565b809350506020840135612a1081613794565b80925050604084013590505b9250925092565b600060006000600060808587031215612a3a578081fd5b8435612a4581613794565b809450506020850135612a5781613794565b8093505060408501359150606085013567ffffffffffffffff811115612a7b578182fd5b808601905086601f8201121515612a90578182fd5b8035612aa3612a9e826135ab565b613554565b818152886020838501011115612ab7578384fd5b8160208401602083013783602083830101528093505050505b92959194509250565b6000600060408385031215612aec578182fd5b8235612af781613794565b809250506020830135612b09816137bd565b809150505b9250929050565b6000600060408385031215612b28578182fd5b8235612b3381613794565b80925050602083013590505b9250929050565b600060208284031215612b57578081fd5b8151612b62816137bd565b809150505b92915050565b600060208284031215612b7e578081fd5b8135612b89816137d2565b809150505b92915050565b600060208284031215612ba5578081fd5b8151612bb0816137d2565b809150505b92915050565b600060208284031215612bcc578081fd5b8135612bd781613794565b809150505b92915050565b600060208284031215612bf3578081fd5b815167ffffffffffffffff811115612c09578182fd5b808301905083601f8201121515612c1e578182fd5b8051612c31612c2c826135ab565b613554565b818152856020838501011115612c45578384fd5b612c56826020830160208601613636565b8093505050505b92915050565b600060208284031215612c74578081fd5b813590505b92915050565b600060208284031215612c90578081fd5b813567ffffffffffffffff811681141515612ca9578182fd5b809150505b92915050565b60008151808452612ccc816020860160208601613636565b60207fffffffffffffffffffffffffffffffffffffffffffffffffffffffffffffffe0601f8301168501019150505b92915050565b600060208201905073ffffffffffffffffffffffffffffffffffffffff831682525b92915050565b600073ffffffffffffffffffffffffffffffffffffffff808716835280861660208401525083604083015260806060830152612d686080830184612cb4565b90505b95945050505050565b600060208083018184528085518083526040860191508387019250845b81811015612dbd5767ffffffffffffffff8451168352848301925084840193505b600181019050612d91565b50508093505050505b92915050565b600060208201905082151582525b92915050565b600060208201905073ffffffffffffffffffffffffffffffffffffffff831682525b92915050565b600060208201905073ffffffffffffffffffffffffffffffffffffffff831682525b92915050565b602081526000612e436020830184612cb4565b90505b92915050565b60208152600860208201527f4f766572666c6f77000000000000000000000000000000000000000000000000604082015260006060820190505b919050565b60208152602b60208201527f455243373231456e756d657261626c653a206f776e657220696e646578206f7560408201527f74206f6620626f756e6473000000000000000000000000000000000000000000606082015260006080820190505b919050565b60208152603260208201527f4552433732313a207472616e7366657220746f206e6f6e20455243373231526560408201527f63656976657220696d706c656d656e7465720000000000000000000000000000606082015260006080820190505b919050565b60208152601c60208201527f4552433732313a20746f6b656e20616c7265616479206d696e74656400000000604082015260006060820190505b919050565b60208152602460208201527f4552433732313a207472616e7366657220746f20746865207a65726f2061646460408201527f7265737300000000000000000000000000000000000000000000000000000000606082015260006080820190505b919050565b60208152601960208201527f4552433732313a20617070726f766520746f2063616c6c657200000000000000604082015260006060820190505b919050565b60208152602c60208201527f4552433732313a206f70657261746f7220717565727920666f72206e6f6e657860408201527f697374656e7420746f6b656e0000000000000000000000000000000000000000606082015260006080820190505b919050565b60208152600e60208201527f4e6f7420417574686f72697a6564000000000000000000000000000000000000604082015260006060820190505b919050565b60208152603860208201527f4552433732313a20617070726f76652063616c6c6572206973206e6f74206f7760408201527f6e6572206e6f7220617070726f76656420666f7220616c6c0000000000000000606082015260006080820190505b919050565b60208152602a60208201527f4552433732313a2062616c616e636520717565727920666f7220746865207a6560408201527f726f206164647265737300000000000000000000000000000000000000000000606082015260006080820190505b919050565b60208152602960208201527f4552433732313a206f776e657220717565727920666f72206e6f6e657869737460408201527f656e7420746f6b656e0000000000000000000000000000000000000000000000606082015260006080820190505b919050565b60208152602060208201527f4552433732313a206d696e7420746f20746865207a65726f2061646472657373604082015260006060820190505b919050565b60208152602c60208201527f4552433732313a20617070726f76656420717565727920666f72206e6f6e657860408201527f697374656e7420746f6b656e0000000000000000000000000000000000000000606082015260006080820190505b919050565b60208152600b60208201527f43616e7420757064617465000000000000000000000000000000000000000000604082015260006060820190505b919050565b60208152602960208201527f4552433732313a207472616e73666572206f6620746f6b656e2074686174206960408201527f73206e6f74206f776e0000000000000000000000000000000000000000000000606082015260006080820190505b919050565b60208152602160208201527f4552433732313a20617070726f76616c20746f2063757272656e74206f776e6560408201527f7200000000000000000000000000000000000000000000000000000000000000606082015260006080820190505b919050565b60208152602660208201527f43616e74207472616e7366657220746f6b656e206265666f726520756e6c6f6360408201527f6b2074696d650000000000000000000000000000000000000000000000000000606082015260006080820190505b919050565b60208152603160208201527f4552433732313a207472616e736665722063616c6c6572206973206e6f74206f60408201527f776e6572206e6f7220617070726f766564000000000000000000000000000000606082015260006080820190505b919050565b60208152602c60208201527f455243373231456e756d657261626c653a20676c6f62616c20696e646578206f60408201527f7574206f6620626f756e64730000000000000000000000000000000000000000606082015260006080820190505b919050565b60208152601160208201527f6d6f7265207468616e2036342062697473000000000000000000000000000000604082015260006060820190505b919050565b60006020820190508282525b92915050565b600060208201905067ffffffffffffffff831682525b92915050565b600060405190507fffffffffffffffffffffffffffffffffffffffffffffffffffffffffffffffe0601f830116810181811067ffffffffffffffff821117156135a05761359f613763565b5b80604052505b919050565b600067ffffffffffffffff8211156135c6576135c5613763565b5b60207fffffffffffffffffffffffffffffffffffffffffffffffffffffffffffffffe0601f8401160190505b919050565b6000821982111561360b5761360a613732565b5b82820190505b92915050565b60008282101561362a57613629613732565b5b82820390505b92915050565b60005b838110156136555780820151818401525b602081019050613639565b83811115613664576000848401525b505050505b565b60008160011c90506001821680151561368557607f821691505b602082108114156136bf577f4e487b7100000000000000000000000000000000000000000000000000000000600052602260045260246000fd5b505b919050565b60007fffffffffffffffffffffffffffffffffffffffffffffffffffffffffffffffff8214156136f9576136f8613732565b5b6001820190505b919050565b600067ffffffffffffffff8083168181141561372457613723613732565b5b60018101925050505b919050565b7f4e487b7100000000000000000000000000000000000000000000000000000000600052601160045260246000fd5b565b7f4e487b7100000000000000000000000000000000000000000000000000000000600052604160045260246000fd5b565b73ffffffffffffffffffffffffffffffffffffffff8116811415156137b95760006000fd5b505b565b801515811415156137ce5760006000fd5b505b565b7fffffffff000000000000000000000000000000000000000000000000000000008116811415156138035760006000fd5b505b565bfea26469706673582212201bb5883336af972a4b6adcae8df3e7d1b6cb51bb2698aaa65c7b2b5187635a5764736f6c63430008040033",
  "linkReferences": {},
  "deployedLinkReferences": {}
}