{
  "_format": "hh-sol-artifact-1",
  "contractName": "TDaoPositionNFT",
  "sourceName": "contracts/core/TDao/TDaoPositionNFT.sol",
  "abi": [
    {
      "inputs": [
        {
          "internalType": "contract ITDao",
          "name": "_tDao",
          "type": "address"
        },
        {
          "internalType": "contract ITDaoPositionNFTDescriptor",
          "name": "_descriptor",
          "type": "address"
        }
      ],
      "stateMutability": "nonpayable",
      "type": "constructor"
    },
    {
      "anonymous": false,
      "inputs": [
        {
          "indexed": true,
          "internalType": "address",
          "name": "owner",
          "type": "address"
        },
        {
          "indexed": true,
          "internalType": "address",
          "name": "approved",
          "type": "address"
        },
        {
          "indexed": true,
          "internalType": "uint256",
          "name": "tokenId",
          "type": "uint256"
        }
      ],
      "name": "Approval",
      "type": "event"
    },
    {
      "anonymous": false,
      "inputs": [
        {
          "indexed": true,
          "internalType": "address",
          "name": "owner",
          "type": "address"
        },
        {
          "indexed": true,
          "internalType": "address",
          "name": "operator",
          "type": "address"
        },
        {
          "indexed": false,
          "internalType": "bool",
          "name": "approved",
          "type": "bool"
        }
      ],
      "name": "ApprovalForAll",
      "type": "event"
    },
    {
      "anonymous": false,
      "inputs": [],
      "name": "PositionDescriptorUpdateAbdicated",
      "type": "event"
    },
    {
      "anonymous": false,
      "inputs": [
        {
          "indexed": true,
          "internalType": "contract ITDaoPositionNFTDescriptor",
          "name": "newPositionDescriptor",
          "type": "address"
        }
      ],
      "name": "PositionDescriptorUpdated",
      "type": "event"
    },
    {
      "anonymous": false,
      "inputs": [
        {
          "indexed": true,
          "internalType": "address",
          "name": "from",
          "type": "address"
        },
        {
          "indexed": true,
          "internalType": "address",
          "name": "to",
          "type": "address"
        },
        {
          "indexed": true,
          "internalType": "uint256",
          "name": "tokenId",
          "type": "uint256"
        }
      ],
      "name": "Transfer",
      "type": "event"
    },
    {
      "inputs": [],
      "name": "abdicateDescriptorUpdate",
      "outputs": [],
      "stateMutability": "nonpayable",
      "type": "function"
    },
    {
      "inputs": [
        {
          "internalType": "address",
          "name": "to",
          "type": "address"
        },
        {
          "internalType": "uint256",
          "name": "tokenId",
          "type": "uint256"
        }
      ],
      "name": "approve",
      "outputs": [],
      "stateMutability": "nonpayable",
      "type": "function"
    },
    {
      "inputs": [
        {
          "internalType": "address",
          "name": "owner",
          "type": "address"
        }
      ],
      "name": "balanceOf",
      "outputs": [
        {
          "internalType": "uint256",
          "name": "",
          "type": "uint256"
        }
      ],
      "stateMutability": "view",
      "type": "function"
    },
    {
      "inputs": [
        {
          "internalType": "uint64",
          "name": "tokenID",
          "type": "uint64"
        }
      ],
      "name": "burn",
      "outputs": [],
      "stateMutability": "nonpayable",
      "type": "function"
    },
    {
      "inputs": [],
      "name": "canUpdateDescriptor",
      "outputs": [
        {
          "internalType": "bool",
          "name": "",
          "type": "bool"
        }
      ],
      "stateMutability": "view",
      "type": "function"
    },
    {
      "inputs": [],
      "name": "descriptor",
      "outputs": [
        {
          "internalType": "contract ITDaoPositionNFTDescriptor",
          "name": "",
          "type": "address"
        }
      ],
      "stateMutability": "view",
      "type": "function"
    },
    {
      "inputs": [
        {
          "internalType": "uint256",
          "name": "tokenId",
          "type": "uint256"
        }
      ],
      "name": "getApproved",
      "outputs": [
        {
          "internalType": "address",
          "name": "",
          "type": "address"
        }
      ],
      "stateMutability": "view",
      "type": "function"
    },
    {
      "inputs": [
        {
          "internalType": "address",
          "name": "owner",
          "type": "address"
        },
        {
          "internalType": "address",
          "name": "operator",
          "type": "address"
        }
      ],
      "name": "isApprovedForAll",
      "outputs": [
        {
          "internalType": "bool",
          "name": "",
          "type": "bool"
        }
      ],
      "stateMutability": "view",
      "type": "function"
    },
    {
      "inputs": [
        {
          "internalType": "address",
          "name": "account",
          "type": "address"
        },
        {
          "internalType": "uint256",
          "name": "tokenID",
          "type": "uint256"
        }
      ],
      "name": "isApprovedOrOwner",
      "outputs": [
        {
          "internalType": "bool",
          "name": "",
          "type": "bool"
        }
      ],
      "stateMutability": "view",
      "type": "function"
    },
    {
      "inputs": [
        {
          "internalType": "address",
          "name": "dest",
          "type": "address"
        }
      ],
      "name": "mintTo",
      "outputs": [
        {
          "internalType": "uint64",
          "name": "id",
          "type": "uint64"
        }
      ],
      "stateMutability": "nonpayable",
      "type": "function"
    },
    {
      "inputs": [],
      "name": "name",
      "outputs": [
        {
          "internalType": "string",
          "name": "",
          "type": "string"
        }
      ],
      "stateMutability": "view",
      "type": "function"
    },
    {
      "inputs": [],
      "name": "nextPositionID",
      "outputs": [
        {
          "internalType": "uint64",
          "name": "",
          "type": "uint64"
        }
      ],
      "stateMutability": "view",
      "type": "function"
    },
    {
      "inputs": [
        {
          "internalType": "uint256",
          "name": "tokenId",
          "type": "uint256"
        }
      ],
      "name": "ownerOf",
      "outputs": [
        {
          "internalType": "address",
          "name": "",
          "type": "address"
        }
      ],
      "stateMutability": "view",
      "type": "function"
    },
    {
      "inputs": [
        {
          "internalType": "address",
          "name": "account",
          "type": "address"
        }
      ],
      "name": "positionIDs",
      "outputs": [
        {
          "internalType": "uint64[]",
          "name": "IDs",
          "type": "uint64[]"
        }
      ],
      "stateMutability": "view",
      "type": "function"
    },
    {
      "inputs": [
        {
          "internalType": "address",
          "name": "from",
          "type": "address"
        },
        {
          "internalType": "address",
          "name": "to",
          "type": "address"
        },
        {
          "internalType": "uint256",
          "name": "tokenId",
          "type": "uint256"
        }
      ],
      "name": "safeTransferFrom",
      "outputs": [],
      "stateMutability": "nonpayable",
      "type": "function"
    },
    {
      "inputs": [
        {
          "internalType": "address",
          "name": "from",
          "type": "address"
        },
        {
          "internalType": "address",
          "name": "to",
          "type": "address"
        },
        {
          "internalType": "uint256",
          "name": "tokenId",
          "type": "uint256"
        },
        {
          "internalType": "bytes",
          "name": "_data",
          "type": "bytes"
        }
      ],
      "name": "safeTransferFrom",
      "outputs": [],
      "stateMutability": "nonpayable",
      "type": "function"
    },
    {
      "inputs": [
        {
          "internalType": "address",
          "name": "operator",
          "type": "address"
        },
        {
          "internalType": "bool",
          "name": "approved",
          "type": "bool"
        }
      ],
      "name": "setApprovalForAll",
      "outputs": [],
      "stateMutability": "nonpayable",
      "type": "function"
    },
    {
      "inputs": [
        {
          "internalType": "contract ITDaoPositionNFTDescriptor",
          "name": "newDescriptor",
          "type": "address"
        }
      ],
      "name": "setPositionDescriptor",
      "outputs": [],
      "stateMutability": "nonpayable",
      "type": "function"
    },
    {
      "inputs": [
        {
          "internalType": "bytes4",
          "name": "interfaceId",
          "type": "bytes4"
        }
      ],
      "name": "supportsInterface",
      "outputs": [
        {
          "internalType": "bool",
          "name": "",
          "type": "bool"
        }
      ],
      "stateMutability": "view",
      "type": "function"
    },
    {
      "inputs": [],
      "name": "symbol",
      "outputs": [
        {
          "internalType": "string",
          "name": "",
          "type": "string"
        }
      ],
      "stateMutability": "view",
      "type": "function"
    },
    {
      "inputs": [],
      "name": "tDao",
      "outputs": [
        {
          "internalType": "contract ITDao",
          "name": "",
          "type": "address"
        }
      ],
      "stateMutability": "view",
      "type": "function"
    },
    {
      "inputs": [
        {
          "internalType": "uint256",
          "name": "index",
          "type": "uint256"
        }
      ],
      "name": "tokenByIndex",
      "outputs": [
        {
          "internalType": "uint256",
          "name": "",
          "type": "uint256"
        }
      ],
      "stateMutability": "view",
      "type": "function"
    },
    {
      "inputs": [
        {
          "internalType": "address",
          "name": "owner",
          "type": "address"
        },
        {
          "internalType": "uint256",
          "name": "index",
          "type": "uint256"
        }
      ],
      "name": "tokenOfOwnerByIndex",
      "outputs": [
        {
          "internalType": "uint256",
          "name": "",
          "type": "uint256"
        }
      ],
      "stateMutability": "view",
      "type": "function"
    },
    {
      "inputs": [
        {
          "internalType": "uint256",
          "name": "tokenID",
          "type": "uint256"
        }
      ],
      "name": "tokenURI",
      "outputs": [
        {
          "internalType": "string",
          "name": "",
          "type": "string"
        }
      ],
      "stateMutability": "view",
      "type": "function"
    },
    {
      "inputs": [],
      "name": "totalSupply",
      "outputs": [
        {
          "internalType": "uint256",
          "name": "",
          "type": "uint256"
        }
      ],
      "stateMutability": "view",
      "type": "function"
    },
    {
      "inputs": [
        {
          "internalType": "address",
          "name": "from",
          "type": "address"
        },
        {
          "internalType": "address",
          "name": "to",
          "type": "address"
        },
        {
          "internalType": "uint256",
          "name": "tokenId",
          "type": "uint256"
        }
      ],
      "name": "transferFrom",
      "outputs": [],
      "stateMutability": "nonpayable",
      "type": "function"
    }
  ],
  "bytecode": "0x60a06040526001600a601c6101000a81548160ff0219169083151502179055503480156200002d5760006000fd5b50604051620042ef380380620042ef833981810160405281019062000053919062000335565b5b6040518060400160405280601a81526020017f54727573746c6573732046696e616e636520506f736974696f6e0000000000008152602001506040518060400160405280600c81526020017f5444616f506f736974696f6e00000000000000000000000000000000000000008152602001505b81815b8160006000509080519060200190620000e592919062000257565b5080600160005090805190602001906200010192919062000257565b505b50505b50508173ffffffffffffffffffffffffffffffffffffffff1660808173ffffffffffffffffffffffffffffffffffffffff168152602001505062000150816200015960201b60201c565b5b5050620003fc565b600a601c9054906101000a900460ff161515620001ad576040517f08c379a0000000000000000000000000000000000000000000000000000000008152600401620001a49062000378565b60405180910390fd5b80600a60086101000a81548173ffffffffffffffffffffffffffffffffffffffff021916908373ffffffffffffffffffffffffffffffffffffffff160217905550600a60089054906101000a900473ffffffffffffffffffffffffffffffffffffffff1673ffffffffffffffffffffffffffffffffffffffff167fbe261926e6f803a22831f49bbb304297a70132e30e6ef1aed7a304b2a7dfea9460405160405180910390a25b50565b8280546200026590620003b7565b90600052602060002090601f016020900481019282620002895760008555620002da565b82601f10620002a457805160ff1916838001178555620002da565b82800160010185558215620002da579182015b82811115620002d95782518260005090905591602001919060010190620002b7565b5b509050620002e99190620002ed565b5090565b620002f3565b808211156200030f5760008181506000905550600101620002f3565b509056620003fb565b6001600160a01b03811681141515620003315760006000fd5b505b565b60006000604083850312156200034b5760006000fd5b8251620003588162000318565b8092505060208301516200036c8162000318565b809150505b9250929050565b60208152600b60208201527f43616e7420757064617465000000000000000000000000000000000000000000604082015260006060820190505b919050565b60008160011c905060018216801515620003d257607f821691505b60208210811415620003f457634e487b7160e01b600052602260045260246000fd5b505b919050565b5b608051613eb46200043b60003960008181610a2801528181610c6901528181610f6101528181611b8501528181611ed801526124cc0152613eb46000f3fe60806040523480156100115760006000fd5b50600436106101b35760003560e01c80635a11a9ad116100ef57806395d89b4111610098578063b88d4fde11610072578063b88d4fde146104cf578063c87b56dd146104eb578063d4d5efb61461051b578063e985e9c514610539576101b3565b806395d89b41146104795780639dbead4214610497578063a22cb465146104b3576101b3565b806370a08231116100c957806370a08231146103fd578063755edd171461042d57806392208f371461045d576101b3565b80635a11a9ad146103935780636352211e146103c3578063701d99b0146103f3576101b3565b806323b872dd1161015c57806342842e0e1161013657806342842e0e146102f9578063430c2081146103155780634c92beb7146103455780634f6ccce714610363576101b3565b806323b872dd1461028f5780632f745c59146102ab578063303e74df146102db576101b3565b8063095ea7b31161018d578063095ea7b31461023757806318160ddd146102535780631c82490514610271576101b3565b806301ffc9a7146101b957806306fdde03146101e9578063081812fc14610207576101b3565b60006000fd5b6101d360048036038101906101ce9190612d10565b610569565b6040516101e09190612d39565b60405180910390f35b6101f16105ee565b6040516101fe9190612dcf565b60405180910390f35b610221600480360381019061021c9190612deb565b610688565b60405161022e9190612e09565b60405180910390f35b610251600480360381019061024c9190612e5a565b61071d565b005b61025b610858565b6040516102689190612e8d565b60405180910390f35b61027961086d565b6040516102869190612e9f565b60405180910390f35b6102a960048036038101906102a49190612ebb565b610887565b005b6102c560048036038101906102c09190612e5a565b6108fc565b6040516102d29190612e8d565b60405180910390f35b6102e36109b7565b6040516102f09190612f02565b60405180910390f35b610313600480360381019061030e9190612ebb565b6109dd565b005b61032f600480360381019061032a9190612e5a565b610a07565b60405161033c9190612d39565b60405180910390f35b61034d610a26565b60405161035a9190612f2a565b60405180910390f35b61037d60048036038101906103789190612deb565b610a4a565b60405161038a9190612e8d565b60405180910390f35b6103ad60048036038101906103a89190612f52565b610ad2565b6040516103ba9190612f7b565b60405180910390f35b6103dd60048036038101906103d89190612deb565b610ba9565b6040516103ea9190612e09565b60405180910390f35b6103fb610c67565b005b61041760048036038101906104129190612f52565b610d42565b6040516104249190612e8d565b60405180910390f35b61044760048036038101906104429190612f52565b610e08565b6040516104549190612e9f565b60405180910390f35b61047760048036038101906104729190612fd4565b610f5f565b005b610481611003565b60405161048e9190612dcf565b60405180910390f35b6104b160048036038101906104ac9190612ffd565b61109d565b005b6104cd60048036038101906104c8919061304b565b61110a565b005b6104e960048036038101906104e4919061315d565b61112d565b005b61050560048036038101906105009190612deb565b6111a4565b6040516105129190612dcf565b60405180910390f35b61052361150a565b6040516105309190612d39565b60405180910390f35b610553600480360381019061054e919061321c565b61151d565b6040516105609190612d39565b60405180910390f35b60007f780e9d63000000000000000000000000000000000000000000000000000000007bffffffffffffffffffffffffffffffffffffffffffffffffffffffff1916827bffffffffffffffffffffffffffffffffffffffffffffffffffffffff191614806105e257506105e1826115bc63ffffffff16565b5b90506105e9565b919050565b6060600060005080546106009061325a565b80601f016020809104026020016040519081016040528092919081815260200182805461062c9061325a565b80156106795780601f1061064e57610100808354040283529160200191610679565b820191906000526020600020905b81548152906001019060200180831161065c57829003601f168201915b50505050509050610685565b90565b6000610699826116a963ffffffff16565b15156106da576040517f08c379a00000000000000000000000000000000000000000000000000000000081526004016106d1906132b5565b60405180910390fd5b6004600050600083815260200190815260200160002060009054906101000a900473ffffffffffffffffffffffffffffffffffffffff169050610718565b919050565b600061072e82610ba963ffffffff16565b90508073ffffffffffffffffffffffffffffffffffffffff168373ffffffffffffffffffffffffffffffffffffffff16141515156107a1576040517f08c379a00000000000000000000000000000000000000000000000000000000081526004016107989061331a565b60405180910390fd5b8073ffffffffffffffffffffffffffffffffffffffff166107c661171e63ffffffff16565b73ffffffffffffffffffffffffffffffffffffffff1614806108015750610800816107f561171e63ffffffff16565b61151d63ffffffff16565b5b1515610842576040517f08c379a00000000000000000000000000000000000000000000000000000000081526004016108399061337f565b60405180910390fd5b610852838361172b63ffffffff16565b505b5050565b6000600860005080549050905061086a565b90565b600a60009054906101000a900467ffffffffffffffff1681565b6108a461089861171e63ffffffff16565b826117ee63ffffffff16565b15156108e5576040517f08c379a00000000000000000000000000000000000000000000000000000000081526004016108dc906133e4565b60405180910390fd5b6108f68383836118ec63ffffffff16565b5b505050565b600061090d83610d4263ffffffff16565b82101515610950576040517f08c379a000000000000000000000000000000000000000000000000000000000815260040161094790613449565b60405180910390fd5b600660005060008473ffffffffffffffffffffffffffffffffffffffff1673ffffffffffffffffffffffffffffffffffffffff16815260200190815260200160002060005060008381526020019081526020016000206000505490506109b1565b92915050565b600a60089054906101000a900473ffffffffffffffffffffffffffffffffffffffff1681565b610a018383836040518060200160405280600081526020015061112d63ffffffff16565b5b505050565b6000610a1983836117ee63ffffffff16565b9050610a20565b92915050565b7f000000000000000000000000000000000000000000000000000000000000000081565b6000610a5a61085863ffffffff16565b82101515610a9d576040517f08c379a0000000000000000000000000000000000000000000000000000000008152600401610a94906134ae565b60405180910390fd5b600860005082815481101515610ab657610ab5613513565b5b906000526020600020900160005b50549050610acd565b919050565b60606000610ae583610d4263ffffffff16565b90508067ffffffffffffffff811115610b0157610b00613089565b5b604051908082528060200260200182016040528015610b2f5781602001602082028036833780820191505090505b50915081506000600090505b81811015610ba157610b5384826108fc63ffffffff16565b8382815181101515610b6857610b67613513565b5b602002602001019067ffffffffffffffff16908167ffffffffffffffff16815260200150505b8080610b9990613575565b915050610b3b565b50505b919050565b600060006002600050600084815260200190815260200160002060009054906101000a900473ffffffffffffffffffffffffffffffffffffffff169050600073ffffffffffffffffffffffffffffffffffffffff168173ffffffffffffffffffffffffffffffffffffffff1614151515610c58576040517f08c379a0000000000000000000000000000000000000000000000000000000008152600401610c4f906135b4565b60405180910390fd5b80915050610c6256505b919050565b7f000000000000000000000000000000000000000000000000000000000000000073ffffffffffffffffffffffffffffffffffffffff163373ffffffffffffffffffffffffffffffffffffffff16141515610cf7576040517f08c379a0000000000000000000000000000000000000000000000000000000008152600401610cee90613619565b60405180910390fd5b6000600a601c6101000a81548160ff0219169083151502179055507f88ed789c9703c009a915c15b497a9b05ae6f0bbbc4fed4347fff2eea43fe504060405160405180910390a15b5b565b6000600073ffffffffffffffffffffffffffffffffffffffff168273ffffffffffffffffffffffffffffffffffffffff1614151515610db6576040517f08c379a0000000000000000000000000000000000000000000000000000000008152600401610dad90613658565b60405180910390fd5b600360005060008373ffffffffffffffffffffffffffffffffffffffff1673ffffffffffffffffffffffffffffffffffffffff168152602001908152602001600020600050549050610e03565b919050565b6000610e1933611b8163ffffffff16565b1515610e5a576040517f08c379a0000000000000000000000000000000000000000000000000000000008152600401610e5190613619565b60405180910390fd5b67ffffffffffffffff67ffffffffffffffff16600a60009054906101000a900467ffffffffffffffff1667ffffffffffffffff16101515610ed0576040517f08c379a0000000000000000000000000000000000000000000000000000000008152600401610ec7906136bd565b60405180910390fd5b600a60009054906101000a900467ffffffffffffffff1690508050600a600081819054906101000a900467ffffffffffffffff1680929190610f11906136fc565b91906101000a81548167ffffffffffffffff021916908367ffffffffffffffff16021790555050610f52828267ffffffffffffffff16611bde63ffffffff16565b809050610f5a565b919050565b7f000000000000000000000000000000000000000000000000000000000000000073ffffffffffffffffffffffffffffffffffffffff163373ffffffffffffffffffffffffffffffffffffffff16141515610fef576040517f08c379a0000000000000000000000000000000000000000000000000000000008152600401610fe690613619565b60405180910390fd5b610ffe81611dd963ffffffff16565b5b5b50565b6060600160005080546110159061325a565b80601f01602080910402602001604051908101604052809291908181526020018280546110419061325a565b801561108e5780601f106110635761010080835404028352916020019161108e565b820191906000526020600020905b81548152906001019060200180831161107157829003601f168201915b5050505050905061109a565b90565b6110ac33611ed463ffffffff16565b15156110ed576040517f08c379a00000000000000000000000000000000000000000000000000000000081526004016110e490613619565b60405180910390fd5b6111068167ffffffffffffffff16611f3163ffffffff16565b5b50565b61112861111b61171e63ffffffff16565b838361207163ffffffff16565b5b5050565b61114a61113e61171e63ffffffff16565b836117ee63ffffffff16565b151561118b576040517f08c379a0000000000000000000000000000000000000000000000000000000008152600401611182906133e4565b60405180910390fd5b61119d848484846121e763ffffffff16565b5b50505050565b606060006000604051806020016040528060008152602001509050600060405180602001604052806000815260200150905060006040518060200160405280600081526020015090506111fc866116a963ffffffff16565b1561142757600193508350600a60089054906101000a900473ffffffffffffffffffffffffffffffffffffffff1673ffffffffffffffffffffffffffffffffffffffff1663dbe16c07876040518263ffffffff1660e01b81526004016112629190612e8d565b600060405180830381865afa158015611280573d600060003e3d6000fd5b505050506040513d6000823e3d601f19601f820116820180604052508101906112a99190613729565b92508250600a60089054906101000a900473ffffffffffffffffffffffffffffffffffffffff1673ffffffffffffffffffffffffffffffffffffffff1663b3154c08876040518263ffffffff1660e01b81526004016113089190612e8d565b600060405180830381865afa158015611326573d600060003e3d6000fd5b505050506040513d6000823e3d601f19601f8201168201806040525081019061134f9190613729565b91508150611403600a60089054906101000a900473ffffffffffffffffffffffffffffffffffffffff1673ffffffffffffffffffffffffffffffffffffffff1663c7ab2dbc886040518263ffffffff1660e01b81526004016113b19190612e8d565b600060405180830381865afa1580156113cf573d600060003e3d6000fd5b505050506040513d6000823e3d601f19601f820116820180604052508101906113f89190613729565b61225263ffffffff16565b60405160200161141391906137b2565b604051602081830303815290604052905080505b6114d78461146d576040518060400160405280600581526020017f66616c73650000000000000000000000000000000000000000000000000000008152602001506114a7565b6040518060400160405280600481526020017f74727565000000000000000000000000000000000000000000000000000000008152602001505b8484846040516020016114bd94939291906137fa565b60405160208183030381529060405261225263ffffffff16565b6040516020016114e7919061392b565b60405160208183030381529060405294505050505061150556505050505b919050565b600a601c9054906101000a900460ff1681565b6000600560005060008473ffffffffffffffffffffffffffffffffffffffff1673ffffffffffffffffffffffffffffffffffffffff16815260200190815260200160002060005060008373ffffffffffffffffffffffffffffffffffffffff1673ffffffffffffffffffffffffffffffffffffffff16815260200190815260200160002060009054906101000a900460ff1690506115b6565b92915050565b60007f80ac58cd000000000000000000000000000000000000000000000000000000007bffffffffffffffffffffffffffffffffffffffffffffffffffffffff1916827bffffffffffffffffffffffffffffffffffffffffffffffffffffffff1916148061168757507f5b5e139f000000000000000000000000000000000000000000000000000000007bffffffffffffffffffffffffffffffffffffffffffffffffffffffff1916827bffffffffffffffffffffffffffffffffffffffffffffffffffffffff1916145b8061169d575061169c826123d663ffffffff16565b5b90506116a4565b919050565b6000600073ffffffffffffffffffffffffffffffffffffffff166002600050600084815260200190815260200160002060009054906101000a900473ffffffffffffffffffffffffffffffffffffffff1673ffffffffffffffffffffffffffffffffffffffff1614159050611719565b919050565b6000339050611728565b90565b816004600050600083815260200190815260200160002060006101000a81548173ffffffffffffffffffffffffffffffffffffffff021916908373ffffffffffffffffffffffffffffffffffffffff160217905550808273ffffffffffffffffffffffffffffffffffffffff166117a783610ba963ffffffff16565b73ffffffffffffffffffffffffffffffffffffffff167f8c5be1e5ebec7d5bd14f71427d1e84f3dd0314c0f7b2291e5b200ac8c7c3b92560405160405180910390a45b5050565b60006117ff826116a963ffffffff16565b1515611840576040517f08c379a000000000000000000000000000000000000000000000000000000000815260040161183790613973565b60405180910390fd5b600061185183610ba963ffffffff16565b90508073ffffffffffffffffffffffffffffffffffffffff168473ffffffffffffffffffffffffffffffffffffffff1614806118c657508373ffffffffffffffffffffffffffffffffffffffff166118ae8461068863ffffffff16565b73ffffffffffffffffffffffffffffffffffffffff16145b806118dd57506118dc818561151d63ffffffff16565b5b9150506118e656505b92915050565b8273ffffffffffffffffffffffffffffffffffffffff1661191282610ba963ffffffff16565b73ffffffffffffffffffffffffffffffffffffffff1614151561196a576040517f08c379a0000000000000000000000000000000000000000000000000000000008152600401611961906139d8565b60405180910390fd5b600073ffffffffffffffffffffffffffffffffffffffff168273ffffffffffffffffffffffffffffffffffffffff16141515156119dc576040517f08c379a00000000000000000000000000000000000000000000000000000000081526004016119d390613a3d565b60405180910390fd5b6119ed83838361244563ffffffff16565b6119fe60008261172b63ffffffff16565b6001600360005060008573ffffffffffffffffffffffffffffffffffffffff1673ffffffffffffffffffffffffffffffffffffffff16815260200190815260200160002060008282825054611a539190613aa2565b9250508190909055506001600360005060008473ffffffffffffffffffffffffffffffffffffffff1673ffffffffffffffffffffffffffffffffffffffff16815260200190815260200160002060008282825054611ab19190613ac1565b925050819090905550816002600050600083815260200190815260200160002060006101000a81548173ffffffffffffffffffffffffffffffffffffffff021916908373ffffffffffffffffffffffffffffffffffffffff160217905550808273ffffffffffffffffffffffffffffffffffffffff168473ffffffffffffffffffffffffffffffffffffffff167fddf252ad1be2c89b69c2b068fc378daa952ba7f163c4a11628f55a4df523b3ef60405160405180910390a4611b7b8383836125bc63ffffffff16565b5b505050565b60007f000000000000000000000000000000000000000000000000000000000000000073ffffffffffffffffffffffffffffffffffffffff168273ffffffffffffffffffffffffffffffffffffffff16149050611bd9565b919050565b600073ffffffffffffffffffffffffffffffffffffffff168273ffffffffffffffffffffffffffffffffffffffff1614151515611c50576040517f08c379a0000000000000000000000000000000000000000000000000000000008152600401611c4790613ae1565b60405180910390fd5b611c5f816116a963ffffffff16565b151515611ca1576040517f08c379a0000000000000000000000000000000000000000000000000000000008152600401611c9890613b20565b60405180910390fd5b611cb36000838361244563ffffffff16565b6001600360005060008473ffffffffffffffffffffffffffffffffffffffff1673ffffffffffffffffffffffffffffffffffffffff16815260200190815260200160002060008282825054611d089190613ac1565b925050819090905550816002600050600083815260200190815260200160002060006101000a81548173ffffffffffffffffffffffffffffffffffffffff021916908373ffffffffffffffffffffffffffffffffffffffff160217905550808273ffffffffffffffffffffffffffffffffffffffff16600073ffffffffffffffffffffffffffffffffffffffff167fddf252ad1be2c89b69c2b068fc378daa952ba7f163c4a11628f55a4df523b3ef60405160405180910390a4611dd4600083836125bc63ffffffff16565b5b5050565b600a601c9054906101000a900460ff161515611e2a576040517f08c379a0000000000000000000000000000000000000000000000000000000008152600401611e2190613b5f565b60405180910390fd5b80600a60086101000a81548173ffffffffffffffffffffffffffffffffffffffff021916908373ffffffffffffffffffffffffffffffffffffffff160217905550600a60089054906101000a900473ffffffffffffffffffffffffffffffffffffffff1673ffffffffffffffffffffffffffffffffffffffff167fbe261926e6f803a22831f49bbb304297a70132e30e6ef1aed7a304b2a7dfea9460405160405180910390a25b50565b60007f000000000000000000000000000000000000000000000000000000000000000073ffffffffffffffffffffffffffffffffffffffff168273ffffffffffffffffffffffffffffffffffffffff16149050611f2c565b919050565b6000611f4282610ba963ffffffff16565b9050611f568160008461244563ffffffff16565b611f6760008361172b63ffffffff16565b6001600360005060008373ffffffffffffffffffffffffffffffffffffffff1673ffffffffffffffffffffffffffffffffffffffff16815260200190815260200160002060008282825054611fbc9190613aa2565b9250508190909055506002600050600083815260200190815260200160002060006101000a81549073ffffffffffffffffffffffffffffffffffffffff021916905581600073ffffffffffffffffffffffffffffffffffffffff168273ffffffffffffffffffffffffffffffffffffffff167fddf252ad1be2c89b69c2b068fc378daa952ba7f163c4a11628f55a4df523b3ef60405160405180910390a461206c816000846125bc63ffffffff16565b505b50565b8173ffffffffffffffffffffffffffffffffffffffff168373ffffffffffffffffffffffffffffffffffffffff16141515156120e2576040517f08c379a00000000000000000000000000000000000000000000000000000000081526004016120d990613b9e565b60405180910390fd5b80600560005060008573ffffffffffffffffffffffffffffffffffffffff1673ffffffffffffffffffffffffffffffffffffffff16815260200190815260200160002060005060008473ffffffffffffffffffffffffffffffffffffffff1673ffffffffffffffffffffffffffffffffffffffff16815260200190815260200160002060006101000a81548160ff0219169083151502179055508173ffffffffffffffffffffffffffffffffffffffff168373ffffffffffffffffffffffffffffffffffffffff167f17307eab39ab6107e8899845ad3d59bd9653f200f220920489ca2b5937696c31836040516121d99190612d39565b60405180910390a35b505050565b6121f88484846118ec63ffffffff16565b61220a848484846125c263ffffffff16565b151561224b576040517f08c379a000000000000000000000000000000000000000000000000000000000815260040161224290613bdd565b60405180910390fd5b5b50505050565b6060600082511415612278576040518060200160405280600081526020015090506123d1565b6000604051806060016040528060408152602001613e3f60409139905060006003600285516122a79190613ac1565b6122b19190613c42565b60046122bd9190613c86565b905060006020826122ce9190613ac1565b67ffffffffffffffff8111156122e7576122e6613089565b5b6040519080825280601f01601f1916602001820160405280156123195781602001600182028036833780820191505090505b509050818152600183018586518101602084015b81831015612389576003830192508251603f8160121c168501518253600182019150603f81600c1c168501518253600182019150603f8160061c168501518253600182019150603f81168501518253506001810190505b61232d565b6003895106600181146123a357600281146123b3576123be565b613d3d60f01b60028303526123be565b603d60f81b60018303525b50505050508093505050506123d1565050505b919050565b60007f01ffc9a7000000000000000000000000000000000000000000000000000000007bffffffffffffffffffffffffffffffffffffffffffffffffffffffff1916827bffffffffffffffffffffffffffffffffffffffffffffffffffffffff1916149050612440565b919050565b61245683838361277063ffffffff16565b600073ffffffffffffffffffffffffffffffffffffffff168373ffffffffffffffffffffffffffffffffffffffff161415612490576125b7565b600073ffffffffffffffffffffffffffffffffffffffff168273ffffffffffffffffffffffffffffffffffffffff1614156124ca576125b7565b7f000000000000000000000000000000000000000000000000000000000000000073ffffffffffffffffffffffffffffffffffffffff16632e74e628612517836128a7909063ffffffff16565b6040518263ffffffff1660e01b81526004016125339190612e9f565b602060405180830381865afa158015612551573d600060003e3d6000fd5b505050506040513d601f19601f820116820180604052508101906125759190613ccb565b15156125b6576040517f08c379a00000000000000000000000000000000000000000000000000000000081526004016125ad90613cf4565b60405180910390fd5b5b505050565b5b505050565b60006125eb8473ffffffffffffffffffffffffffffffffffffffff16612903909063ffffffff16565b1561275e578373ffffffffffffffffffffffffffffffffffffffff1663150b7a0261261a61171e63ffffffff16565b8786866040518563ffffffff1660e01b815260040161263c9493929190613d59565b6020604051808303816000875af192505050801561267857506040513d601f19601f820116820180604052508101906126759190613da4565b60015b612708575b5b3d80600081146126aa576040519150601f19603f3d011682016040523d82523d6000602084013e6126af565b606091505b506000815114156126f9576040517f08c379a00000000000000000000000000000000000000000000000000000000081526004016126ec90613bdd565b60405180910390fd612701565b805181602001fd5b505b612759565b63150b7a0260e01b7bffffffffffffffffffffffffffffffffffffffffffffffffffffffff1916817bffffffffffffffffffffffffffffffffffffffffffffffffffffffff19161491505061276856505b612767565b60019050612768565b5b949350505050565b61278183838361292c63ffffffff16565b600073ffffffffffffffffffffffffffffffffffffffff168373ffffffffffffffffffffffffffffffffffffffff1614156127ca576127c58161293263ffffffff16565b612811565b8173ffffffffffffffffffffffffffffffffffffffff168373ffffffffffffffffffffffffffffffffffffffff161415156128105761280f838261298e63ffffffff16565b5b5b600073ffffffffffffffffffffffffffffffffffffffff168273ffffffffffffffffffffffffffffffffffffffff16141561285a5761285581612b3563ffffffff16565b6128a1565b8273ffffffffffffffffffffffffffffffffffffffff168273ffffffffffffffffffffffffffffffffffffffff161415156128a05761289f8282612c3e63ffffffff16565b5b5b5b505050565b600068010000000000000000821015156128f6576040517f08c379a00000000000000000000000000000000000000000000000000000000081526004016128ed90613dcd565b60405180910390fd5b8190506128fe565b919050565b600060008273ffffffffffffffffffffffffffffffffffffffff163b119050612927565b919050565b5b505050565b60086000508054905060096000506000838152602001908152602001600020600050819090905550600860005081908060018154018082558091505060019003906000526020600020900160005b909190919091509090555b50565b600060016129a184610d4263ffffffff16565b6129ab9190613aa2565b90506000600760005060008481526020019081526020016000206000505490508181141515612ab4576000600660005060008673ffffffffffffffffffffffffffffffffffffffff1673ffffffffffffffffffffffffffffffffffffffff168152602001908152602001600020600050600084815260200190815260200160002060005054905080600660005060008773ffffffffffffffffffffffffffffffffffffffff1673ffffffffffffffffffffffffffffffffffffffff16815260200190815260200160002060005060008481526020019081526020016000206000508190909055508160076000506000838152602001908152602001600020600050819090905550505b6007600050600084815260200190815260200160002060005060009055600660005060008573ffffffffffffffffffffffffffffffffffffffff1673ffffffffffffffffffffffffffffffffffffffff16815260200190815260200160002060005060008381526020019081526020016000206000506000905550505b5050565b60006001600860005080549050612b4c9190613aa2565b90506000600960005060008481526020019081526020016000206000505490506000600860005083815481101515612b8757612b86613513565b5b906000526020600020900160005b5054905080600860005083815481101515612bb357612bb2613513565b5b906000526020600020900160005b508190909055508160096000506000838152602001908152602001600020600050819090905550600960005060008581526020019081526020016000206000506000905560086000508054801515612c1c57612c1b613e0c565b5b600190038181906000526020600020900160005b506000905590555050505b50565b6000612c4f83610d4263ffffffff16565b905081600660005060008573ffffffffffffffffffffffffffffffffffffffff1673ffffffffffffffffffffffffffffffffffffffff16815260200190815260200160002060005060008381526020019081526020016000206000508190909055508060076000506000848152602001908152602001600020600050819090905550505b505056613e3d565b7fffffffff00000000000000000000000000000000000000000000000000000000811681141515612d0c5760006000fd5b505b565b600060208284031215612d235760006000fd5b8135612d2e81612cdb565b809150505b92915050565b600060208201905082151582525b92915050565b60005b83811015612d6c5780820151818401525b602081019050612d50565b83811115612d7b576000848401525b505050505b565b60008151808452612d9a816020860160208601612d4d565b60207fffffffffffffffffffffffffffffffffffffffffffffffffffffffffffffffe0601f8301168501019150505b92915050565b602081526000612de26020830184612d82565b90505b92915050565b600060208284031215612dfe5760006000fd5b813590505b92915050565b600060208201905073ffffffffffffffffffffffffffffffffffffffff831682525b92915050565b73ffffffffffffffffffffffffffffffffffffffff811681141515612e565760006000fd5b505b565b6000600060408385031215612e6f5760006000fd5b8235612e7a81612e31565b80925050602083013590505b9250929050565b60006020820190508282525b92915050565b600060208201905067ffffffffffffffff831682525b92915050565b60006000600060608486031215612ed25760006000fd5b8335612edd81612e31565b809350506020840135612eef81612e31565b80925050604084013590505b9250925092565b600060208201905073ffffffffffffffffffffffffffffffffffffffff831682525b92915050565b600060208201905073ffffffffffffffffffffffffffffffffffffffff831682525b92915050565b600060208284031215612f655760006000fd5b8135612f7081612e31565b809150505b92915050565b60006020808301818452808551808352604086019150838701925060005b81811015612fc55767ffffffffffffffff8451168352848301925084840193505b600181019050612f99565b50508093505050505b92915050565b600060208284031215612fe75760006000fd5b8135612ff281612e31565b809150505b92915050565b6000602082840312156130105760006000fd5b813567ffffffffffffffff81168114151561302b5760006000fd5b809150505b92915050565b801515811415156130475760006000fd5b505b565b60006000604083850312156130605760006000fd5b823561306b81612e31565b80925050602083013561307d81613036565b809150505b9250929050565b7f4e487b7100000000000000000000000000000000000000000000000000000000600052604160045260246000fd5b565b600060405190507fffffffffffffffffffffffffffffffffffffffffffffffffffffffffffffffe0601f830116810181811067ffffffffffffffff8211171561310657613105613089565b5b80604052505b919050565b600067ffffffffffffffff82111561312c5761312b613089565b5b60207fffffffffffffffffffffffffffffffffffffffffffffffffffffffffffffffe0601f8401160190505b919050565b6000600060006000608085870312156131765760006000fd5b843561318181612e31565b80945050602085013561319381612e31565b8093505060408501359150606085013567ffffffffffffffff8111156131b95760006000fd5b808601905086601f82011215156131d05760006000fd5b80356131e36131de82613111565b6130ba565b8181528860208385010111156131f95760006000fd5b816020840160208301376000602083830101528093505050505b92959194509250565b60006000604083850312156132315760006000fd5b823561323c81612e31565b80925050602083013561324e81612e31565b809150505b9250929050565b60008160011c90506001821680151561327457607f821691505b602082108114156132ae577f4e487b7100000000000000000000000000000000000000000000000000000000600052602260045260246000fd5b505b919050565b60208152602c60208201527f4552433732313a20617070726f76656420717565727920666f72206e6f6e657860408201527f697374656e7420746f6b656e0000000000000000000000000000000000000000606082015260006080820190505b919050565b60208152602160208201527f4552433732313a20617070726f76616c20746f2063757272656e74206f776e6560408201527f7200000000000000000000000000000000000000000000000000000000000000606082015260006080820190505b919050565b60208152603860208201527f4552433732313a20617070726f76652063616c6c6572206973206e6f74206f7760408201527f6e6572206e6f7220617070726f76656420666f7220616c6c0000000000000000606082015260006080820190505b919050565b60208152603160208201527f4552433732313a207472616e736665722063616c6c6572206973206e6f74206f60408201527f776e6572206e6f7220617070726f766564000000000000000000000000000000606082015260006080820190505b919050565b60208152602b60208201527f455243373231456e756d657261626c653a206f776e657220696e646578206f7560408201527f74206f6620626f756e6473000000000000000000000000000000000000000000606082015260006080820190505b919050565b60208152602c60208201527f455243373231456e756d657261626c653a20676c6f62616c20696e646578206f60408201527f7574206f6620626f756e64730000000000000000000000000000000000000000606082015260006080820190505b919050565b7f4e487b7100000000000000000000000000000000000000000000000000000000600052603260045260246000fd5b565b7f4e487b7100000000000000000000000000000000000000000000000000000000600052601160045260246000fd5b565b60007fffffffffffffffffffffffffffffffffffffffffffffffffffffffffffffffff8214156135a8576135a7613544565b5b6001820190505b919050565b60208152602960208201527f4552433732313a206f776e657220717565727920666f72206e6f6e657869737460408201527f656e7420746f6b656e0000000000000000000000000000000000000000000000606082015260006080820190505b919050565b60208152600e60208201527f4e6f7420417574686f72697a6564000000000000000000000000000000000000604082015260006060820190505b919050565b60208152602a60208201527f4552433732313a2062616c616e636520717565727920666f7220746865207a6560408201527f726f206164647265737300000000000000000000000000000000000000000000606082015260006080820190505b919050565b60208152600860208201527f4f766572666c6f77000000000000000000000000000000000000000000000000604082015260006060820190505b919050565b600067ffffffffffffffff8083168181141561371b5761371a613544565b5b60018101925050505b919050565b60006020828403121561373c5760006000fd5b815167ffffffffffffffff8111156137545760006000fd5b808301905083601f820112151561376b5760006000fd5b805161377e61377982613111565b6130ba565b8181528560208385010111156137945760006000fd5b6137a5826020830160208601612d4d565b8093505050505b92915050565b7f646174613a696d6167652f7376672b786d6c3b6261736536342c0000000000008152600082516137ea81601a850160208701612d4d565b601a818401019150505b92915050565b7f7b22657869737473223a0000000000000000000000000000000000000000000081526000855161383281600a850160208a01612d4d565b80830190507f2c20226e616d65223a2200000000000000000000000000000000000000000000600a8201528551613870816014840160208a01612d4d565b8082019150507f222c20226465736372697074696f6e223a220000000000000000000000000000601482015284516138af816026840160208901612d4d565b8082019150507f222c2022696d616765223a202200000000000000000000000000000000000000602682015283516138ee816033840160208801612d4d565b8082019150507f227d0000000000000000000000000000000000000000000000000000000000006033820152603581019150505b95945050505050565b7f646174613a6170706c69636174696f6e2f6a736f6e3b6261736536342c00000081526000825161396381601d850160208701612d4d565b601d818401019150505b92915050565b60208152602c60208201527f4552433732313a206f70657261746f7220717565727920666f72206e6f6e657860408201527f697374656e7420746f6b656e0000000000000000000000000000000000000000606082015260006080820190505b919050565b60208152602560208201527f4552433732313a207472616e736665722066726f6d20696e636f72726563742060408201527f6f776e6572000000000000000000000000000000000000000000000000000000606082015260006080820190505b919050565b60208152602460208201527f4552433732313a207472616e7366657220746f20746865207a65726f2061646460408201527f7265737300000000000000000000000000000000000000000000000000000000606082015260006080820190505b919050565b600082821015613ab557613ab4613544565b5b82820390505b92915050565b60008219821115613ad557613ad4613544565b5b82820190505b92915050565b60208152602060208201527f4552433732313a206d696e7420746f20746865207a65726f2061646472657373604082015260006060820190505b919050565b60208152601c60208201527f4552433732313a20746f6b656e20616c7265616479206d696e74656400000000604082015260006060820190505b919050565b60208152600b60208201527f43616e7420757064617465000000000000000000000000000000000000000000604082015260006060820190505b919050565b60208152601960208201527f4552433732313a20617070726f766520746f2063616c6c657200000000000000604082015260006060820190505b919050565b60208152603260208201527f4552433732313a207472616e7366657220746f206e6f6e20455243373231526560408201527f63656976657220696d706c656d656e7465720000000000000000000000000000606082015260006080820190505b919050565b6000821515613c7a577f4e487b7100000000000000000000000000000000000000000000000000000000600052601260045260246000fd5b82820490505b92915050565b6000817fffffffffffffffffffffffffffffffffffffffffffffffffffffffffffffffff0483118215151615613cbf57613cbe613544565b5b82820290505b92915050565b600060208284031215613cde5760006000fd5b8151613ce981613036565b809150505b92915050565b60208152602660208201527f43616e74207472616e7366657220746f6b656e206265666f726520756e6c6f6360408201527f6b2074696d650000000000000000000000000000000000000000000000000000606082015260006080820190505b919050565b600073ffffffffffffffffffffffffffffffffffffffff808716835280861660208401525083604083015260806060830152613d986080830184612d82565b90505b95945050505050565b600060208284031215613db75760006000fd5b8151613dc281612cdb565b809150505b92915050565b60208152601160208201527f6d6f7265207468616e2036342062697473000000000000000000000000000000604082015260006060820190505b919050565b7f4e487b7100000000000000000000000000000000000000000000000000000000600052603160045260246000fd5b565bfe4142434445464748494a4b4c4d4e4f505152535455565758595a6162636465666768696a6b6c6d6e6f707172737475767778797a303132333435363738392b2fa2646970667358221220996baa6c61dcb2723a062c4d21f0bc6027fedae1e997a5e9d69b36e596fdc87164736f6c634300080c0033",
  "linkReferences": {},
  "deployedLinkReferences": {}
}