{
  "_format": "hh-sol-artifact-1",
  "contractName": "LendHue",
  "sourceName": "contracts/core/tokens/LendHue.sol",
  "abi": [
    {
      "inputs": [
        {
          "components": [
            {
              "internalType": "contract IGovernor",
              "name": "Governor",
              "type": "address"
            }
          ],
          "internalType": "struct ILendHue.ConstructorParams",
          "name": "params",
          "type": "tuple"
        }
      ],
      "stateMutability": "nonpayable",
      "type": "constructor"
    },
    {
      "anonymous": false,
      "inputs": [
        {
          "indexed": true,
          "internalType": "address",
          "name": "owner",
          "type": "address"
        },
        {
          "indexed": true,
          "internalType": "address",
          "name": "spender",
          "type": "address"
        },
        {
          "indexed": false,
          "internalType": "uint256",
          "name": "value",
          "type": "uint256"
        }
      ],
      "name": "Approval",
      "type": "event"
    },
    {
      "anonymous": false,
      "inputs": [],
      "name": "Stopped",
      "type": "event"
    },
    {
      "anonymous": false,
      "inputs": [
        {
          "indexed": true,
          "internalType": "address",
          "name": "from",
          "type": "address"
        },
        {
          "indexed": true,
          "internalType": "address",
          "name": "to",
          "type": "address"
        },
        {
          "indexed": false,
          "internalType": "uint256",
          "name": "value",
          "type": "uint256"
        }
      ],
      "name": "Transfer",
      "type": "event"
    },
    {
      "inputs": [
        {
          "internalType": "address",
          "name": "owner",
          "type": "address"
        },
        {
          "internalType": "address",
          "name": "spender",
          "type": "address"
        }
      ],
      "name": "allowance",
      "outputs": [
        {
          "internalType": "uint256",
          "name": "",
          "type": "uint256"
        }
      ],
      "stateMutability": "view",
      "type": "function"
    },
    {
      "inputs": [
        {
          "internalType": "address",
          "name": "spender",
          "type": "address"
        },
        {
          "internalType": "uint256",
          "name": "amount",
          "type": "uint256"
        }
      ],
      "name": "approve",
      "outputs": [
        {
          "internalType": "bool",
          "name": "",
          "type": "bool"
        }
      ],
      "stateMutability": "nonpayable",
      "type": "function"
    },
    {
      "inputs": [
        {
          "internalType": "address",
          "name": "account",
          "type": "address"
        }
      ],
      "name": "balanceOf",
      "outputs": [
        {
          "internalType": "uint256",
          "name": "",
          "type": "uint256"
        }
      ],
      "stateMutability": "view",
      "type": "function"
    },
    {
      "inputs": [
        {
          "internalType": "address",
          "name": "account",
          "type": "address"
        },
        {
          "internalType": "uint256",
          "name": "amount",
          "type": "uint256"
        }
      ],
      "name": "burnFrom",
      "outputs": [],
      "stateMutability": "nonpayable",
      "type": "function"
    },
    {
      "inputs": [],
      "name": "decimals",
      "outputs": [
        {
          "internalType": "uint8",
          "name": "",
          "type": "uint8"
        }
      ],
      "stateMutability": "view",
      "type": "function"
    },
    {
      "inputs": [
        {
          "internalType": "address",
          "name": "spender",
          "type": "address"
        },
        {
          "internalType": "uint256",
          "name": "subtractedValue",
          "type": "uint256"
        }
      ],
      "name": "decreaseAllowance",
      "outputs": [
        {
          "internalType": "bool",
          "name": "",
          "type": "bool"
        }
      ],
      "stateMutability": "nonpayable",
      "type": "function"
    },
    {
      "inputs": [],
      "name": "governor",
      "outputs": [
        {
          "internalType": "contract IGovernor",
          "name": "",
          "type": "address"
        }
      ],
      "stateMutability": "view",
      "type": "function"
    },
    {
      "inputs": [
        {
          "internalType": "address",
          "name": "spender",
          "type": "address"
        },
        {
          "internalType": "uint256",
          "name": "addedValue",
          "type": "uint256"
        }
      ],
      "name": "increaseAllowance",
      "outputs": [
        {
          "internalType": "bool",
          "name": "",
          "type": "bool"
        }
      ],
      "stateMutability": "nonpayable",
      "type": "function"
    },
    {
      "inputs": [
        {
          "internalType": "address",
          "name": "dest",
          "type": "address"
        },
        {
          "internalType": "uint256",
          "name": "count",
          "type": "uint256"
        }
      ],
      "name": "mintTo",
      "outputs": [],
      "stateMutability": "nonpayable",
      "type": "function"
    },
    {
      "inputs": [],
      "name": "name",
      "outputs": [
        {
          "internalType": "string",
          "name": "",
          "type": "string"
        }
      ],
      "stateMutability": "view",
      "type": "function"
    },
    {
      "inputs": [],
      "name": "stopped",
      "outputs": [
        {
          "internalType": "bool",
          "name": "",
          "type": "bool"
        }
      ],
      "stateMutability": "view",
      "type": "function"
    },
    {
      "inputs": [],
      "name": "symbol",
      "outputs": [
        {
          "internalType": "string",
          "name": "",
          "type": "string"
        }
      ],
      "stateMutability": "view",
      "type": "function"
    },
    {
      "inputs": [],
      "name": "totalSupply",
      "outputs": [
        {
          "internalType": "uint256",
          "name": "",
          "type": "uint256"
        }
      ],
      "stateMutability": "view",
      "type": "function"
    },
    {
      "inputs": [
        {
          "internalType": "address",
          "name": "to",
          "type": "address"
        },
        {
          "internalType": "uint256",
          "name": "amount",
          "type": "uint256"
        }
      ],
      "name": "transfer",
      "outputs": [
        {
          "internalType": "bool",
          "name": "",
          "type": "bool"
        }
      ],
      "stateMutability": "nonpayable",
      "type": "function"
    },
    {
      "inputs": [
        {
          "internalType": "address",
          "name": "from",
          "type": "address"
        },
        {
          "internalType": "address",
          "name": "to",
          "type": "address"
        },
        {
          "internalType": "uint256",
          "name": "amount",
          "type": "uint256"
        }
      ],
      "name": "transferFrom",
      "outputs": [
        {
          "internalType": "bool",
          "name": "",
          "type": "bool"
        }
      ],
      "stateMutability": "nonpayable",
      "type": "function"
    },
    {
      "inputs": [
        {
          "internalType": "bytes4",
          "name": "",
          "type": "bytes4"
        }
      ],
      "name": "validUpdate",
      "outputs": [
        {
          "internalType": "bool",
          "name": "",
          "type": "bool"
        }
      ],
      "stateMutability": "view",
      "type": "function"
    }
  ],
  "bytecode": "0x60a0604052600160076000509090553480156200001c5760006000fd5b5060405162001e3738038062001e378339818101604052810190620000429190620001f9565b5b80600001515b6040518060400160405280600881526020017f4c656e64204875650000000000000000000000000000000000000000000000008152602001506040518060400160405280600781526020017f4c656e64487565000000000000000000000000000000000000000000000000008152602001505b8160036000509080519060200190620000d792919062000138565b508060046000509080519060200190620000f392919062000138565b505b50508073ffffffffffffffffffffffffffffffffffffffff1660808173ffffffffffffffffffffffffffffffffffffffff16815260200150505b505b50620002b2565b82805462000146906200026d565b90600052602060002090601f0160209004810192826200016a5760008555620001bb565b82601f106200018557805160ff1916838001178555620001bb565b82800160010185558215620001bb579182015b82811115620001ba578251826000509090559160200191906001019062000198565b5b509050620001ca9190620001ce565b5090565b620001d4565b80821115620001f05760008181506000905550600101620001d4565b509056620002b1565b6000602082840312156200020d5760006000fd5b604051602081018181106001600160401b03821117156200023e57634e487b7160e01b600052604160045260246000fd5b806040525082516001600160a01b038116811415156200025e5760006000fd5b80825250809150505b92915050565b60008160011c9050600182168015156200028857607f821691505b60208210811415620002aa57634e487b7160e01b600052602260045260246000fd5b505b919050565b5b608051611b62620002d56000396000818161044901526105ce0152611b626000f3fe60806040523480156100115760006000fd5b50600436106101055760003560e01c8063449a52f81161009857806395d89b411161006757806395d89b41146102c9578063a457c2d7146102e7578063a9059cbb14610317578063dd62ed3e1461034757610105565b8063449a52f81461024357806370a082311461025f57806375f12b211461028f57806379cc6790146102ad57610105565b806318160ddd116100d457806318160ddd146101a757806323b872dd146101c5578063313ce567146101f5578063395093511461021357610105565b806306fdde031461010b578063095ea7b3146101295780630c340a2414610159578063113cf1ab1461017757610105565b60006000fd5b610113610377565b604051610120919061139c565b60405180910390f35b610143600480360381019061013e919061143f565b610411565b6040516101509190611472565b60405180910390f35b610161610447565b60405161016e9190611486565b60405180910390f35b610191600480360381019061018c91906114ae565b61046b565b60405161019e9190611472565b60405180910390f35b6101af610490565b6040516101bc91906114ff565b60405180910390f35b6101df60048036038101906101da9190611511565b6104a2565b6040516101ec9190611472565b60405180910390f35b6101fd6104ea565b60405161020a9190611558565b60405180910390f35b61022d6004803603810190610228919061143f565b6104f8565b60405161023a9190611472565b60405180910390f35b61025d6004803603810190610258919061143f565b6105be565b005b6102796004803603810190610274919061156d565b6106ef565b60405161028691906114ff565b60405180910390f35b610297610743565b6040516102a49190611472565b60405180910390f35b6102c760048036038101906102c2919061143f565b610756565b005b6102d161080b565b6040516102de919061139c565b60405180910390f35b61030160048036038101906102fc919061143f565b6108a5565b60405161030e9190611472565b60405180910390f35b610331600480360381019061032c919061143f565b6109ae565b60405161033e9190611472565b60405180910390f35b610361600480360381019061035c9190611596565b6109e4565b60405161036e91906114ff565b60405180910390f35b606060036000508054610389906115d4565b80601f01602080910402602001604051908101604052809291908181526020018280546103b5906115d4565b80156104025780601f106103d757610100808354040283529160200191610402565b820191906000526020600020905b8154815290600101906020018083116103e557829003601f168201915b5050505050905061040e565b90565b60006000610423610a7963ffffffff16565b9050610436818585610a8663ffffffff16565b600191505061044156505b92915050565b7f000000000000000000000000000000000000000000000000000000000000000081565b600660005060205280600052604060002060009150909054906101000a900460ff1681565b6000600260005054905061049f565b90565b600060006104b4610a7963ffffffff16565b90506104c7858285610c6163ffffffff16565b6104d8858585610cfe63ffffffff16565b60019150506104e356505b9392505050565b6000601290506104f5565b90565b6000600061050a610a7963ffffffff16565b90506105ad818585600160005060008673ffffffffffffffffffffffffffffffffffffffff1673ffffffffffffffffffffffffffffffffffffffff16815260200190815260200160002060005060008973ffffffffffffffffffffffffffffffffffffffff1673ffffffffffffffffffffffffffffffffffffffff168152602001908152602001600020600050546105a29190611660565b610a8663ffffffff16565b60019150506105b856505b92915050565b6105cc610faa63ffffffff16565b7f000000000000000000000000000000000000000000000000000000000000000073ffffffffffffffffffffffffffffffffffffffff166380f556056040518163ffffffff1660e01b8152600401602060405180830381865afa158015610638573d600060003e3d6000fd5b505050506040513d601f19601f8201168201806040525081019061065c9190611680565b73ffffffffffffffffffffffffffffffffffffffff163373ffffffffffffffffffffffffffffffffffffffff161415156106cb576040517f08c379a00000000000000000000000000000000000000000000000000000000081526004016106c2906116a9565b60405180910390fd5b6106db828261100563ffffffff16565b5b6106ea61118063ffffffff16565b5b5050565b6000600060005060008373ffffffffffffffffffffffffffffffffffffffff1673ffffffffffffffffffffffffffffffffffffffff16815260200190815260200160002060005054905061073e565b919050565b600560009054906101000a900460ff1681565b610764610faa63ffffffff16565b600061077683336109e463ffffffff16565b90508181101515156107bd576040517f08c379a00000000000000000000000000000000000000000000000000000000081526004016107b4906116e8565b60405180910390fd5b6107e6836107cf610a7963ffffffff16565b84846107db9190611727565b610a8663ffffffff16565b6107f6838361119063ffffffff16565b505b61080661118063ffffffff16565b5b5050565b60606004600050805461081d906115d4565b80601f0160208091040260200160405190810160405280929190818152602001828054610849906115d4565b80156108965780601f1061086b57610100808354040283529160200191610896565b820191906000526020600020905b81548152906001019060200180831161087957829003601f168201915b505050505090506108a2565b90565b600060006108b7610a7963ffffffff16565b90506000600160005060008373ffffffffffffffffffffffffffffffffffffffff1673ffffffffffffffffffffffffffffffffffffffff16815260200190815260200160002060005060008673ffffffffffffffffffffffffffffffffffffffff1673ffffffffffffffffffffffffffffffffffffffff168152602001908152602001600020600050549050838110151515610988576040517f08c379a000000000000000000000000000000000000000000000000000000000815260040161097f90611746565b60405180910390fd5b61099b8286868403610a8663ffffffff16565b6001925050506109a85650505b92915050565b600060006109c0610a7963ffffffff16565b90506109d3818585610cfe63ffffffff16565b60019150506109de56505b92915050565b6000600160005060008473ffffffffffffffffffffffffffffffffffffffff1673ffffffffffffffffffffffffffffffffffffffff16815260200190815260200160002060005060008373ffffffffffffffffffffffffffffffffffffffff1673ffffffffffffffffffffffffffffffffffffffff168152602001908152602001600020600050549050610a73565b92915050565b6000339050610a83565b90565b600073ffffffffffffffffffffffffffffffffffffffff168373ffffffffffffffffffffffffffffffffffffffff1614151515610af8576040517f08c379a0000000000000000000000000000000000000000000000000000000008152600401610aef906117ab565b60405180910390fd5b600073ffffffffffffffffffffffffffffffffffffffff168273ffffffffffffffffffffffffffffffffffffffff1614151515610b6a576040517f08c379a0000000000000000000000000000000000000000000000000000000008152600401610b6190611810565b60405180910390fd5b80600160005060008573ffffffffffffffffffffffffffffffffffffffff1673ffffffffffffffffffffffffffffffffffffffff16815260200190815260200160002060005060008473ffffffffffffffffffffffffffffffffffffffff1673ffffffffffffffffffffffffffffffffffffffff1681526020019081526020016000206000508190909055508173ffffffffffffffffffffffffffffffffffffffff168373ffffffffffffffffffffffffffffffffffffffff167f8c5be1e5ebec7d5bd14f71427d1e84f3dd0314c0f7b2291e5b200ac8c7c3b92583604051610c5391906114ff565b60405180910390a35b505050565b6000610c7384846109e463ffffffff16565b90507fffffffffffffffffffffffffffffffffffffffffffffffffffffffffffffffff81141515610cf757818110151515610ce3576040517f08c379a0000000000000000000000000000000000000000000000000000000008152600401610cda90611875565b60405180910390fd5b610cf68484848403610a8663ffffffff16565b5b505b505050565b600073ffffffffffffffffffffffffffffffffffffffff168373ffffffffffffffffffffffffffffffffffffffff1614151515610d70576040517f08c379a0000000000000000000000000000000000000000000000000000000008152600401610d67906118b4565b60405180910390fd5b600073ffffffffffffffffffffffffffffffffffffffff168273ffffffffffffffffffffffffffffffffffffffff1614151515610de2576040517f08c379a0000000000000000000000000000000000000000000000000000000008152600401610dd990611919565b60405180910390fd5b610df383838361138c63ffffffff16565b6000600060005060008573ffffffffffffffffffffffffffffffffffffffff1673ffffffffffffffffffffffffffffffffffffffff168152602001908152602001600020600050549050818110151515610e82576040517f08c379a0000000000000000000000000000000000000000000000000000000008152600401610e799061197e565b60405180910390fd5b818103600060005060008673ffffffffffffffffffffffffffffffffffffffff1673ffffffffffffffffffffffffffffffffffffffff16815260200190815260200160002060005081909090555081600060005060008573ffffffffffffffffffffffffffffffffffffffff1673ffffffffffffffffffffffffffffffffffffffff16815260200190815260200160002060008282825054610f249190611660565b9250508190909055508273ffffffffffffffffffffffffffffffffffffffff168473ffffffffffffffffffffffffffffffffffffffff167fddf252ad1be2c89b69c2b068fc378daa952ba7f163c4a11628f55a4df523b3ef84604051610f8a91906114ff565b60405180910390a3610fa384848461139263ffffffff16565b505b505050565b600260076000505414151515610ff5576040517f08c379a0000000000000000000000000000000000000000000000000000000008152600401610fec906119e3565b60405180910390fd5b600260076000508190909055505b565b600073ffffffffffffffffffffffffffffffffffffffff168273ffffffffffffffffffffffffffffffffffffffff1614151515611077576040517f08c379a000000000000000000000000000000000000000000000000000000000815260040161106e90611a22565b60405180910390fd5b6110896000838361138c63ffffffff16565b8060026000828282505461109d9190611660565b92505081909090555080600060005060008473ffffffffffffffffffffffffffffffffffffffff1673ffffffffffffffffffffffffffffffffffffffff168152602001908152602001600020600082828250546110fa9190611660565b9250508190909055508173ffffffffffffffffffffffffffffffffffffffff16600073ffffffffffffffffffffffffffffffffffffffff167fddf252ad1be2c89b69c2b068fc378daa952ba7f163c4a11628f55a4df523b3ef8360405161116191906114ff565b60405180910390a361117b6000838361139263ffffffff16565b5b5050565b600160076000508190909055505b565b600073ffffffffffffffffffffffffffffffffffffffff168273ffffffffffffffffffffffffffffffffffffffff1614151515611202576040517f08c379a00000000000000000000000000000000000000000000000000000000081526004016111f990611a61565b60405180910390fd5b6112148260008361138c63ffffffff16565b6000600060005060008473ffffffffffffffffffffffffffffffffffffffff1673ffffffffffffffffffffffffffffffffffffffff1681526020019081526020016000206000505490508181101515156112a3576040517f08c379a000000000000000000000000000000000000000000000000000000000815260040161129a90611ac6565b60405180910390fd5b818103600060005060008573ffffffffffffffffffffffffffffffffffffffff1673ffffffffffffffffffffffffffffffffffffffff168152602001908152602001600020600050819090905550816002600082828250546113059190611727565b925050819090905550600073ffffffffffffffffffffffffffffffffffffffff168373ffffffffffffffffffffffffffffffffffffffff167fddf252ad1be2c89b69c2b068fc378daa952ba7f163c4a11628f55a4df523b3ef8460405161136c91906114ff565b60405180910390a36113868360008461139263ffffffff16565b505b5050565b5b505050565b5b50505056611b2b565b600060208083528351808285015260005b818110156113cd57828187010151604082870101525b82810190506113ad565b818111156113df576000604083870101525b5060407fffffffffffffffffffffffffffffffffffffffffffffffffffffffffffffffe0601f830116850101925050505b92915050565b73ffffffffffffffffffffffffffffffffffffffff81168114151561143b5760006000fd5b505b565b60006000604083850312156114545760006000fd5b823561145f81611416565b80925050602083013590505b9250929050565b600060208201905082151582525b92915050565b600060208201905073ffffffffffffffffffffffffffffffffffffffff831682525b92915050565b6000602082840312156114c15760006000fd5b81357fffffffff000000000000000000000000000000000000000000000000000000008116811415156114f45760006000fd5b809150505b92915050565b60006020820190508282525b92915050565b600060006000606084860312156115285760006000fd5b833561153381611416565b80935050602084013561154581611416565b80925050604084013590505b9250925092565b600060208201905060ff831682525b92915050565b6000602082840312156115805760006000fd5b813561158b81611416565b809150505b92915050565b60006000604083850312156115ab5760006000fd5b82356115b681611416565b8092505060208301356115c881611416565b809150505b9250929050565b60008160011c9050600182168015156115ee57607f821691505b60208210811415611628577f4e487b7100000000000000000000000000000000000000000000000000000000600052602260045260246000fd5b505b919050565b7f4e487b7100000000000000000000000000000000000000000000000000000000600052601160045260246000fd5b565b600082198211156116745761167361162f565b5b82820190505b92915050565b6000602082840312156116935760006000fd5b815161169e81611416565b809150505b92915050565b60208152600e60208201527f4e6f7420417574686f72697a6564000000000000000000000000000000000000604082015260006060820190505b919050565b60208152601660208201527f4275726e206578636565647320616c6c6f77616e636500000000000000000000604082015260006060820190505b919050565b60008282101561173a5761173961162f565b5b82820390505b92915050565b60208152602560208201527f45524332303a2064656372656173656420616c6c6f77616e63652062656c6f7760408201527f207a65726f000000000000000000000000000000000000000000000000000000606082015260006080820190505b919050565b60208152602460208201527f45524332303a20617070726f76652066726f6d20746865207a65726f2061646460408201527f7265737300000000000000000000000000000000000000000000000000000000606082015260006080820190505b919050565b60208152602260208201527f45524332303a20617070726f766520746f20746865207a65726f20616464726560408201527f7373000000000000000000000000000000000000000000000000000000000000606082015260006080820190505b919050565b60208152601d60208201527f45524332303a20696e73756666696369656e7420616c6c6f77616e6365000000604082015260006060820190505b919050565b60208152602560208201527f45524332303a207472616e736665722066726f6d20746865207a65726f20616460408201527f6472657373000000000000000000000000000000000000000000000000000000606082015260006080820190505b919050565b60208152602360208201527f45524332303a207472616e7366657220746f20746865207a65726f206164647260408201527f6573730000000000000000000000000000000000000000000000000000000000606082015260006080820190505b919050565b60208152602660208201527f45524332303a207472616e7366657220616d6f756e742065786365656473206260408201527f616c616e63650000000000000000000000000000000000000000000000000000606082015260006080820190505b919050565b60208152600d60208201527f4c43205265656e7472616e637900000000000000000000000000000000000000604082015260006060820190505b919050565b60208152601f60208201527f45524332303a206d696e7420746f20746865207a65726f206164647265737300604082015260006060820190505b919050565b60208152602160208201527f45524332303a206275726e2066726f6d20746865207a65726f2061646472657360408201527f7300000000000000000000000000000000000000000000000000000000000000606082015260006080820190505b919050565b60208152602260208201527f45524332303a206275726e20616d6f756e7420657863656564732062616c616e60408201527f6365000000000000000000000000000000000000000000000000000000000000606082015260006080820190505b919050565bfea2646970667358221220a16fb21faa61e5a007629c28c2aa5c93134126b11a9b4a432b018a30899b3db564736f6c634300080c0033",
  "linkReferences": {},
  "deployedLinkReferences": {}
}