{
  "_format": "hh-sol-artifact-1",
  "contractName": "TestnetMultiMint",
  "sourceName": "contracts/core/auxiliary/TestnetMultiMint.sol",
  "abi": [
    {
      "inputs": [
        {
          "internalType": "contract TruEth",
          "name": "_truEth",
          "type": "address"
        }
      ],
      "stateMutability": "nonpayable",
      "type": "constructor"
    },
    {
      "inputs": [
        {
          "internalType": "contract IERC20",
          "name": "chainEth",
          "type": "address"
        },
        {
          "internalType": "uint256",
          "name": "chainEthCount",
          "type": "uint256"
        },
        {
          "internalType": "uint256",
          "name": "truEthMintCount",
          "type": "uint256"
        },
        {
          "internalType": "address[]",
          "name": "targetAddresses",
          "type": "address[]"
        }
      ],
      "name": "multiMint",
      "outputs": [],
      "stateMutability": "nonpayable",
      "type": "function"
    },
    {
      "inputs": [],
      "name": "truEth",
      "outputs": [
        {
          "internalType": "contract TruEth",
          "name": "",
          "type": "address"
        }
      ],
      "stateMutability": "view",
      "type": "function"
    }
  ],
  "bytecode": "0x60a06040523480156100115760006000fd5b5060405161077338038061077383398181016040528101906100339190610076565b5b8073ffffffffffffffffffffffffffffffffffffffff1660808173ffffffffffffffffffffffffffffffffffffffff16815260200150505b506100af566100ae565b6000602082840312156100895760006000fd5b81516001600160a01b038116811415156100a35760006000fd5b809150505b92915050565b5b60805161069d6100d660003960008181607d0152818160a1015261017d015261069d6000f3fe60806040523480156100115760006000fd5b506004361061003b5760003560e01c8063d2f827eb14610041578063eda9ac4f1461005f5761003b565b60006000fd5b61004961007b565b60405161005691906102d8565b60405180910390f35b6100796004803603810190610074919061036f565b61009f565b005b7f000000000000000000000000000000000000000000000000000000000000000081565b7f000000000000000000000000000000000000000000000000000000000000000073ffffffffffffffffffffffffffffffffffffffff1663fe9fbb80336040518263ffffffff1660e01b81526004016100f89190610491565b602060405180830381865afa158015610116573d600060003e3d6000fd5b505050506040513d601f19601f8201168201806040525081019061013a91906104b9565b151561017b576040517f08c379a0000000000000000000000000000000000000000000000000000000008152600401610172906104ea565b60405180910390fd5b7f000000000000000000000000000000000000000000000000000000000000000073ffffffffffffffffffffffffffffffffffffffff16634e6cca8f83836040518363ffffffff1660e01b81526004016101d6929190610529565b600060405180830381600087803b1580156101f15760006000fd5b505af1158015610206573d600060003e3d6000fd5b505050506000600090505b81518110156102cc578473ffffffffffffffffffffffffffffffffffffffff166323b872dd33848481518110151561024c5761024b610596565b5b6020026020010151876040518463ffffffff1660e01b8152600401610273939291906105c7565b6020604051808303816000875af1158015610293573d600060003e3d6000fd5b505050506040513d601f19601f820116820180604052508101906102b791906104b9565b505b80806102c490610601565b915050610211565b505b5050505056610666565b600060208201905073ffffffffffffffffffffffffffffffffffffffff831682525b92915050565b73ffffffffffffffffffffffffffffffffffffffff8116811415156103255760006000fd5b505b565b7f4e487b7100000000000000000000000000000000000000000000000000000000600052604160045260246000fd5b565b60008135905061036981610300565b5b919050565b6000600060006000608085870312156103885760006000fd5b843561039381610300565b80945050602080860135935060408601359250606086013567ffffffffffffffff808211156103c25760006000fd5b818801915088601f83011215156103d95760006000fd5b8135818111156103ec576103eb610329565b5b8060051b6040517fffffffffffffffffffffffffffffffffffffffffffffffffffffffffffffffe0603f830116810181811085821117156104305761042f610329565b5b80604052508093508281528581019350858286010192508b8311156104555760006000fd5b85850194505b8285101561047e5761046c8561035a565b845285840193505b858501945061045b565b8096505050505050505b92959194509250565b600060208201905073ffffffffffffffffffffffffffffffffffffffff831682525b92915050565b6000602082840312156104cc5760006000fd5b8151801515811415156104df5760006000fd5b809150505b92915050565b60208152600e60208201527f4e6f7420417574686f72697a6564000000000000000000000000000000000000604082015260006060820190505b919050565b6000604082018483526020604081850152818551808452606086019150828701935060005b818110156105865773ffffffffffffffffffffffffffffffffffffffff8551168352838301925083850194505b60018101905061054e565b50508093505050505b9392505050565b7f4e487b7100000000000000000000000000000000000000000000000000000000600052603260045260246000fd5b565b600060608201905073ffffffffffffffffffffffffffffffffffffffff80861683528085166020840152508260408301525b949350505050565b60007fffffffffffffffffffffffffffffffffffffffffffffffffffffffffffffffff82141561065a577f4e487b7100000000000000000000000000000000000000000000000000000000600052601160045260246000fd5b6001820190505b919050565bfea264697066735822122020f0dbcd7d50a8e87a54ace007d811a63bbec0589b3924b877ff3fb04ff48e7d64736f6c634300080c0033",
  "linkReferences": {},
  "deployedLinkReferences": {}
}