{
  "_format": "hh-sol-artifact-1",
  "contractName": "EnumerableUint128SetTestable",
  "sourceName": "contracts/core/mocks/EnumerableUint128SetTestable.sol",
  "abi": [
    {
      "inputs": [
        {
          "internalType": "uint128",
          "name": "value",
          "type": "uint128"
        }
      ],
      "name": "add",
      "outputs": [
        {
          "internalType": "bool",
          "name": "",
          "type": "bool"
        }
      ],
      "stateMutability": "nonpayable",
      "type": "function"
    },
    {
      "inputs": [
        {
          "internalType": "uint256",
          "name": "index",
          "type": "uint256"
        }
      ],
      "name": "at",
      "outputs": [
        {
          "internalType": "uint128",
          "name": "",
          "type": "uint128"
        }
      ],
      "stateMutability": "view",
      "type": "function"
    },
    {
      "inputs": [
        {
          "internalType": "uint128",
          "name": "value",
          "type": "uint128"
        }
      ],
      "name": "contains",
      "outputs": [
        {
          "internalType": "bool",
          "name": "",
          "type": "bool"
        }
      ],
      "stateMutability": "view",
      "type": "function"
    },
    {
      "inputs": [],
      "name": "getAll",
      "outputs": [
        {
          "internalType": "uint128[]",
          "name": "",
          "type": "uint128[]"
        }
      ],
      "stateMutability": "view",
      "type": "function"
    },
    {
      "inputs": [],
      "name": "length",
      "outputs": [
        {
          "internalType": "uint256",
          "name": "",
          "type": "uint256"
        }
      ],
      "stateMutability": "view",
      "type": "function"
    },
    {
      "inputs": [
        {
          "internalType": "uint128",
          "name": "value",
          "type": "uint128"
        }
      ],
      "name": "remove",
      "outputs": [
        {
          "internalType": "bool",
          "name": "",
          "type": "bool"
        }
      ],
      "stateMutability": "nonpayable",
      "type": "function"
    }
  ],
  "bytecode": "0x60806040523480156100115760006000fd5b50610017565b6109c0806100266000396000f3fe60806040523480156100115760006000fd5b50600436106100775760003560e01c806353ed51431161005157806353ed5143146100fb5780637208e1e414610119578063e0886f901461014957610077565b80631f7b6d321461007d57806343114db81461009b57806344121cc5146100cb57610077565b60006000fd5b610085610179565b6040516100929190610748565b60405180910390f35b6100b560048036038101906100b0919061075a565b61019a565b6040516100c2919061079b565b60405180910390f35b6100e560048036038101906100e0919061075a565b6101bf565b6040516100f2919061079b565b60405180910390f35b6101036101e4565b60405161011091906107af565b60405180910390f35b610133600480360381019061012e919061075a565b610205565b604051610140919061079b565b60405180910390f35b610163600480360381019061015e9190610810565b61022a565b604051610170919061082e565b60405180910390f35b6000610190600060005061024f909063ffffffff16565b9050610197565b90565b60006101b382600060005061026890919063ffffffff16565b90506101ba565b919050565b60006101d882600060005061035990919063ffffffff16565b90506101df565b919050565b60606101fb60006000506105a0909063ffffffff16565b9050610202565b90565b600061021e82600060005061064690919063ffffffff16565b9050610225565b919050565b600061024382600060005061069990919063ffffffff16565b905061024a565b919050565b600081600001600050805490509050610263565b919050565b600061027a838361064663ffffffff16565b151561034957826000016000508290806001815401808255809150506001900390600052602060002090600291828204019190066010025b9091909190916101000a8154816fffffffffffffffffffffffffffffffff02191690836fffffffffffffffffffffffffffffffff1602179055508260000160005080549050836001016000506000846fffffffffffffffffffffffffffffffff166fffffffffffffffffffffffffffffffff1681526020019081526020016000206000508190909055506001905061035356610352565b60009050610353565b5b92915050565b60006000836001016000506000846fffffffffffffffffffffffffffffffff166fffffffffffffffffffffffffffffffff16815260200190815260200160002060005054905060008114151561058e5760006001826103b89190610883565b90506000600186600001600050805490506103d39190610883565b9050600086600001600050828154811015156103f2576103f16108a2565b5b90600052602060002090600291828204019190066010025b9054906101000a90046fffffffffffffffffffffffffffffffff169050808760000160005084815481101515610443576104426108a2565b5b90600052602060002090600291828204019190066010025b6101000a8154816fffffffffffffffffffffffffffffffff02191690836fffffffffffffffffffffffffffffffff16021790555060018361049c91906108d3565b876001016000506000836fffffffffffffffffffffffffffffffff166fffffffffffffffffffffffffffffffff1681526020019081526020016000206000508190909055508660000160005080548015156104fa576104f96108f3565b5b60019003818190600052602060002090600291828204019190066010025b6101000a8154906fffffffffffffffffffffffffffffffff02191690559055866001016000506000876fffffffffffffffffffffffffffffffff166fffffffffffffffffffffffffffffffff16815260200190815260200160002060005060009055600194505050505061059a56505050610598565b600091505061059a565b505b92915050565b60608160000160005080548060200260200160405190810160405280929190818152602001828054801561063757602002820191906000526020600020906000905b82829054906101000a90046fffffffffffffffffffffffffffffffff166fffffffffffffffffffffffffffffffff1681526020019060100190602082600f010492830192600103820291508084116105e25790505b5050505050905080505b919050565b60006000836001016000506000846fffffffffffffffffffffffffffffffff166fffffffffffffffffffffffffffffffff1681526020019081526020016000206000505414159050610693565b92915050565b60008183600001600050805490501115156106e9576040517f08c379a00000000000000000000000000000000000000000000000000000000081526004016106e090610924565b60405180910390fd5b8260000160005082815481101515610704576107036108a2565b5b90600052602060002090600291828204019190066010025b9054906101000a90046fffffffffffffffffffffffffffffffff16905061073e565b9291505056610989565b60006020820190508282525b92915050565b60006020828403121561076d5760006000fd5b81356fffffffffffffffffffffffffffffffff8116811415156107905760006000fd5b809150505b92915050565b600060208201905082151582525b92915050565b60006020808301818452808551808352604086019150838701925060005b81811015610801576fffffffffffffffffffffffffffffffff8451168352848301925084840193505b6001810190506107cd565b50508093505050505b92915050565b6000602082840312156108235760006000fd5b813590505b92915050565b60006020820190506fffffffffffffffffffffffffffffffff831682525b92915050565b7f4e487b7100000000000000000000000000000000000000000000000000000000600052601160045260246000fd5b565b60008282101561089657610895610852565b5b82820390505b92915050565b7f4e487b7100000000000000000000000000000000000000000000000000000000600052603260045260246000fd5b565b600082198211156108e7576108e6610852565b5b82820190505b92915050565b7f4e487b7100000000000000000000000000000000000000000000000000000000600052603160045260246000fd5b565b60208152602260208201527f456e756d657261626c655365743a20696e646578206f7574206f6620626f756e60408201527f6473000000000000000000000000000000000000000000000000000000000000606082015260006080820190505b919050565bfea2646970667358221220cfb0075c55f36e751fef1bee9ee003577f2b368e8f075a3abe11f1011117c14064736f6c634300080c0033",
  "linkReferences": {},
  "deployedLinkReferences": {}
}