{
  "_format": "hh-sol-artifact-1",
  "contractName": "TcpSafeCastTestable",
  "sourceName": "contracts/core/mocks/TCPSafeCastTestable.sol",
  "abi": [
    {
      "inputs": [
        {
          "internalType": "int256",
          "name": "a",
          "type": "int256"
        }
      ],
      "name": "_toInt128",
      "outputs": [
        {
          "internalType": "int128",
          "name": "r",
          "type": "int128"
        }
      ],
      "stateMutability": "pure",
      "type": "function"
    },
    {
      "inputs": [
        {
          "internalType": "int256",
          "name": "a",
          "type": "int256"
        }
      ],
      "name": "_toInt16",
      "outputs": [
        {
          "internalType": "int16",
          "name": "r",
          "type": "int16"
        }
      ],
      "stateMutability": "pure",
      "type": "function"
    },
    {
      "inputs": [
        {
          "internalType": "int256",
          "name": "a",
          "type": "int256"
        }
      ],
      "name": "_toInt24",
      "outputs": [
        {
          "internalType": "int24",
          "name": "r",
          "type": "int24"
        }
      ],
      "stateMutability": "pure",
      "type": "function"
    },
    {
      "inputs": [
        {
          "internalType": "uint256",
          "name": "a",
          "type": "uint256"
        }
      ],
      "name": "_toInt256",
      "outputs": [
        {
          "internalType": "int256",
          "name": "r",
          "type": "int256"
        }
      ],
      "stateMutability": "pure",
      "type": "function"
    },
    {
      "inputs": [
        {
          "internalType": "int256",
          "name": "a",
          "type": "int256"
        }
      ],
      "name": "_toInt32",
      "outputs": [
        {
          "internalType": "int32",
          "name": "r",
          "type": "int32"
        }
      ],
      "stateMutability": "pure",
      "type": "function"
    },
    {
      "inputs": [
        {
          "internalType": "int256",
          "name": "a",
          "type": "int256"
        }
      ],
      "name": "_toInt64",
      "outputs": [
        {
          "internalType": "int64",
          "name": "r",
          "type": "int64"
        }
      ],
      "stateMutability": "pure",
      "type": "function"
    },
    {
      "inputs": [
        {
          "internalType": "int256",
          "name": "a",
          "type": "int256"
        }
      ],
      "name": "_toInt8",
      "outputs": [
        {
          "internalType": "int8",
          "name": "r",
          "type": "int8"
        }
      ],
      "stateMutability": "pure",
      "type": "function"
    },
    {
      "inputs": [
        {
          "internalType": "uint256",
          "name": "a",
          "type": "uint256"
        }
      ],
      "name": "_toUint128",
      "outputs": [
        {
          "internalType": "uint128",
          "name": "r",
          "type": "uint128"
        }
      ],
      "stateMutability": "pure",
      "type": "function"
    },
    {
      "inputs": [
        {
          "internalType": "uint256",
          "name": "a",
          "type": "uint256"
        }
      ],
      "name": "_toUint16",
      "outputs": [
        {
          "internalType": "uint16",
          "name": "r",
          "type": "uint16"
        }
      ],
      "stateMutability": "pure",
      "type": "function"
    },
    {
      "inputs": [
        {
          "internalType": "uint256",
          "name": "a",
          "type": "uint256"
        }
      ],
      "name": "_toUint160",
      "outputs": [
        {
          "internalType": "uint160",
          "name": "r",
          "type": "uint160"
        }
      ],
      "stateMutability": "pure",
      "type": "function"
    },
    {
      "inputs": [
        {
          "internalType": "uint256",
          "name": "a",
          "type": "uint256"
        }
      ],
      "name": "_toUint176",
      "outputs": [
        {
          "internalType": "uint176",
          "name": "r",
          "type": "uint176"
        }
      ],
      "stateMutability": "pure",
      "type": "function"
    },
    {
      "inputs": [
        {
          "internalType": "uint256",
          "name": "a",
          "type": "uint256"
        }
      ],
      "name": "_toUint184",
      "outputs": [
        {
          "internalType": "uint184",
          "name": "r",
          "type": "uint184"
        }
      ],
      "stateMutability": "pure",
      "type": "function"
    },
    {
      "inputs": [
        {
          "internalType": "uint256",
          "name": "a",
          "type": "uint256"
        }
      ],
      "name": "_toUint192",
      "outputs": [
        {
          "internalType": "uint192",
          "name": "r",
          "type": "uint192"
        }
      ],
      "stateMutability": "pure",
      "type": "function"
    },
    {
      "inputs": [
        {
          "internalType": "uint256",
          "name": "a",
          "type": "uint256"
        }
      ],
      "name": "_toUint216",
      "outputs": [
        {
          "internalType": "uint216",
          "name": "r",
          "type": "uint216"
        }
      ],
      "stateMutability": "pure",
      "type": "function"
    },
    {
      "inputs": [
        {
          "internalType": "int256",
          "name": "a",
          "type": "int256"
        }
      ],
      "name": "_toUint256",
      "outputs": [
        {
          "internalType": "uint256",
          "name": "r",
          "type": "uint256"
        }
      ],
      "stateMutability": "pure",
      "type": "function"
    },
    {
      "inputs": [
        {
          "internalType": "uint256",
          "name": "a",
          "type": "uint256"
        }
      ],
      "name": "_toUint32",
      "outputs": [
        {
          "internalType": "uint32",
          "name": "r",
          "type": "uint32"
        }
      ],
      "stateMutability": "pure",
      "type": "function"
    },
    {
      "inputs": [
        {
          "internalType": "uint256",
          "name": "a",
          "type": "uint256"
        }
      ],
      "name": "_toUint40",
      "outputs": [
        {
          "internalType": "uint40",
          "name": "r",
          "type": "uint40"
        }
      ],
      "stateMutability": "pure",
      "type": "function"
    },
    {
      "inputs": [
        {
          "internalType": "uint256",
          "name": "a",
          "type": "uint256"
        }
      ],
      "name": "_toUint48",
      "outputs": [
        {
          "internalType": "uint48",
          "name": "r",
          "type": "uint48"
        }
      ],
      "stateMutability": "pure",
      "type": "function"
    },
    {
      "inputs": [
        {
          "internalType": "uint256",
          "name": "a",
          "type": "uint256"
        }
      ],
      "name": "_toUint64",
      "outputs": [
        {
          "internalType": "uint64",
          "name": "r",
          "type": "uint64"
        }
      ],
      "stateMutability": "pure",
      "type": "function"
    },
    {
      "inputs": [
        {
          "internalType": "uint256",
          "name": "a",
          "type": "uint256"
        }
      ],
      "name": "_toUint8",
      "outputs": [
        {
          "internalType": "uint8",
          "name": "r",
          "type": "uint8"
        }
      ],
      "stateMutability": "pure",
      "type": "function"
    },
    {
      "inputs": [
        {
          "internalType": "uint256",
          "name": "a",
          "type": "uint256"
        }
      ],
      "name": "_toUint96",
      "outputs": [
        {
          "internalType": "uint96",
          "name": "r",
          "type": "uint96"
        }
      ],
      "stateMutability": "pure",
      "type": "function"
    }
  ],
  "bytecode": "0x60806040523480156100115760006000fd5b50610017565b611758806100266000396000f3fe60806040523480156100115760006000fd5b506004361061017c5760003560e01c806387112273116100d9578063be0bdabc1161008d578063d142b87711610067578063d142b877146104e2578063e13450ca14610512578063fa514ee5146105425761017c565b8063be0bdabc14610452578063d093dc4e14610482578063d0dcdf7b146104b25761017c565b806393fcc268116100be57806393fcc268146103c2578063a8d43fc9146103f2578063b414a9be146104225761017c565b8063871122731461036257806391ab11b6146103925761017c565b806347af8c4a11610130578063668e8b4a11610115578063668e8b4a146102d25780636cabde0d146103025780636dc3c604146103325761017c565b806347af8c4a14610272578063529e9fea146102a25761017c565b80630dd3fd46116101615780630dd3fd46146101e257806322174fe7146102125780632e510f3f146102425761017c565b80630147e1e3146101825780630d2506e4146101b25761017c565b60006000fd5b61019c600480360381019061019791906110c5565b610572565b6040516101a991906115ed565b60405180910390f35b6101cc60048036038101906101c791906110c5565b61058f565b6040516101d9919061169d565b60405180910390f35b6101fc60048036038101906101f791906110a9565b6105ac565b6040516102099190611132565b60405180910390f35b61022c600480360381019061022791906110c5565b6105c9565b60405161023991906116b6565b60405180910390f35b61025c600480360381019061025791906110a9565b6105e6565b60405161026991906110e1565b60405180910390f35b61028c600480360381019061028791906110c5565b610603565b6040516102999190611701565b60405180910390f35b6102bc60048036038101906102b791906110c5565b610620565b6040516102c991906115ad565b60405180910390f35b6102ec60048036038101906102e791906110c5565b61063d565b6040516102f99190611685565b60405180910390f35b61031c600480360381019061031791906110c5565b61065a565b60405161032991906115c3565b60405180910390f35b61034c600480360381019061034791906110c5565b610677565b6040516103599190611585565b60405180910390f35b61037c600480360381019061037791906110c5565b610694565b6040516103899190611120565b60405180910390f35b6103ac60048036038101906103a791906110a9565b6106b1565b6040516103b9919061115c565b60405180910390f35b6103dc60048036038101906103d791906110a9565b6106ce565b6040516103e9919061110b565b60405180910390f35b61040c600480360381019061040791906110c5565b6106eb565b60405161041991906116ec565b60405180910390f35b61043c600480360381019061043791906110a9565b610708565b6040516104499190611673565b60405180910390f35b61046c600480360381019061046791906110a9565b610725565b6040516104799190611147565b60405180910390f35b61049c600480360381019061049791906110a9565b610742565b6040516104a991906110f6565b60405180910390f35b6104cc60048036038101906104c791906110c5565b61075f565b6040516104d99190611644565b60405180910390f35b6104fc60048036038101906104f791906110c5565b61077c565b6040516105099190611618565b60405180910390f35b61052c600480360381019061052791906110c5565b610799565b60405161053991906116d0565b60405180910390f35b61055c600480360381019061055791906110c5565b6107b6565b6040516105699190611561565b60405180910390f35b6000610585826107d3909063ffffffff16565b905080505b919050565b60006105a28261083e909063ffffffff16565b905080505b919050565b60006105bf82610897909063ffffffff16565b905080505b919050565b60006105dc8261091a909063ffffffff16565b905080505b919050565b60006105f982610974909063ffffffff16565b905080505b919050565b600061061682610a03909063ffffffff16565b905080505b919050565b600061063382610a63909063ffffffff16565b905080505b919050565b600061065082610ab9909063ffffffff16565b905080505b919050565b600061066d82610b11909063ffffffff16565b905080505b919050565b600061068a82610b7b909063ffffffff16565b905080505b919050565b60006106a782610be3909063ffffffff16565b905080505b919050565b60006106c482610c56909063ffffffff16565b905080505b919050565b60006106e182610cd6909063ffffffff16565b905080505b919050565b60006106fe82610d58909063ffffffff16565b905080505b919050565b600061071b82610dad909063ffffffff16565b905080505b919050565b600061073882610e02909063ffffffff16565b905080505b919050565b600061075582610e89909063ffffffff16565b905080505b919050565b600061077282610f0a909063ffffffff16565b905080505b919050565b600061078f82610f79909063ffffffff16565b905080505b919050565b60006107ac82610fe5909063ffffffff16565b905080505b919050565b60006107c982611041909063ffffffff16565b905080505b919050565b60007701000000000000000000000000000000000000000000000082101515610831576040517f08c379a0000000000000000000000000000000000000000000000000000000008152600401610828906111b0565b60405180910390fd5b819050610839565b919050565b6000650100000000008210151561088a576040517f08c379a00000000000000000000000000000000000000000000000000000000081526004016108819061126d565b60405180910390fd5b819050610892565b919050565b60007fffffffffffffffffffffffffffffffffffffffffffffffffffffffff8000000082121580156108cc5750638000000082125b151561090d576040517f08c379a000000000000000000000000000000000000000000000000000000000815260040161090490611171565b60405180910390fd5b819050610915565b919050565b6000660100000000000082101515610967576040517f08c379a000000000000000000000000000000000000000000000000000000000815260040161095e906112ac565b60405180910390fd5b81905061096f565b919050565b60007fffffffffffffffffffffffffffffffff8000000000000000000000000000000082121580156109b557506f8000000000000000000000000000000082125b15156109f6576040517f08c379a00000000000000000000000000000000000000000000000000000000081526004016109ed906113e7565b60405180910390fd5b8190506109fe565b919050565b60006c0100000000000000000000000082101515610a56576040517f08c379a0000000000000000000000000000000000000000000000000000000008152600401610a4d90611369565b60405180910390fd5b819050610a5e565b919050565b60006201000082101515610aac576040517f08c379a0000000000000000000000000000000000000000000000000000000008152600401610aa390611522565b60405180910390fd5b819050610ab4565b919050565b600064010000000082101515610b04576040517f08c379a0000000000000000000000000000000000000000000000000000000008152600401610afb90611171565b60405180910390fd5b819050610b0c565b919050565b600076010000000000000000000000000000000000000000000082101515610b6e576040517f08c379a0000000000000000000000000000000000000000000000000000000008152600401610b65906113a8565b60405180910390fd5b819050610b76565b919050565b60007401000000000000000000000000000000000000000082101515610bd6576040517f08c379a0000000000000000000000000000000000000000000000000000000008152600401610bcd90611465565b60405180910390fd5b819050610bde565b919050565b60007f800000000000000000000000000000000000000000000000000000000000000082101515610c49576040517f08c379a0000000000000000000000000000000000000000000000000000000008152600401610c40906112eb565b60405180910390fd5b819050610c51565b919050565b60007fffffffffffffffffffffffffffffffffffffffffffffffffffffffffffffff808212158015610c885750608082125b1515610cc9576040517f08c379a0000000000000000000000000000000000000000000000000000000008152600401610cc09061132a565b60405180910390fd5b819050610cd1565b919050565b60007fffffffffffffffffffffffffffffffffffffffffffffffffffffffffff8000008212158015610d0a57506280000082125b1515610d4b576040517f08c379a0000000000000000000000000000000000000000000000000000000008152600401610d4290611426565b60405180910390fd5b819050610d53565b919050565b600061010082101515610da0576040517f08c379a0000000000000000000000000000000000000000000000000000000008152600401610d979061132a565b60405180910390fd5b819050610da8565b919050565b600060008212151515610df5576040517f08c379a0000000000000000000000000000000000000000000000000000000008152600401610dec906111ef565b60405180910390fd5b819050610dfd565b919050565b60007fffffffffffffffffffffffffffffffffffffffffffffffff80000000000000008212158015610e3b575067800000000000000082125b1515610e7c576040517f08c379a0000000000000000000000000000000000000000000000000000000008152600401610e73906114a4565b60405180910390fd5b819050610e84565b919050565b60007fffffffffffffffffffffffffffffffffffffffffffffffffffffffffffff80008212158015610ebc575061800082125b1515610efd576040517f08c379a0000000000000000000000000000000000000000000000000000000008152600401610ef490611522565b60405180910390fd5b819050610f05565b919050565b60007b0100000000000000000000000000000000000000000000000000000082101515610f6c576040517f08c379a0000000000000000000000000000000000000000000000000000000008152600401610f63906114e3565b60405180910390fd5b819050610f74565b919050565b6000780100000000000000000000000000000000000000000000000082101515610fd8576040517f08c379a0000000000000000000000000000000000000000000000000000000008152600401610fcf9061122e565b60405180910390fd5b819050610fe0565b919050565b60006801000000000000000082101515611034576040517f08c379a000000000000000000000000000000000000000000000000000000000815260040161102b906114a4565b60405180910390fd5b81905061103c565b919050565b600070010000000000000000000000000000000082101515611098576040517f08c379a000000000000000000000000000000000000000000000000000000000815260040161108f906113e7565b60405180910390fd5b8190506110a0565b91905056611721565b6000602082840312156110ba578081fd5b813590505b92915050565b6000602082840312156110d6578081fd5b813590505b92915050565b600060208201905082600f0b82525b92915050565b60006020820190508260010b82525b92915050565b60006020820190508260020b82525b92915050565b60006020820190508282525b92915050565b60006020820190508260030b82525b92915050565b60006020820190508260070b82525b92915050565b60006020820190508260000b82525b92915050565b60208152601160208201527f6d6f7265207468616e2033322062697473000000000000000000000000000000604082015260006060820190505b919050565b60208152601260208201527f6d6f7265207468616e2031383420626974730000000000000000000000000000604082015260006060820190505b919050565b60208152601260208201527f76616c7565206e6f7420706f7369746976650000000000000000000000000000604082015260006060820190505b919050565b60208152601260208201527f6d6f7265207468616e2031393220626974730000000000000000000000000000604082015260006060820190505b919050565b60208152601160208201527f6d6f7265207468616e2034302062697473000000000000000000000000000000604082015260006060820190505b919050565b60208152601160208201527f6d6f7265207468616e2034382062697473000000000000000000000000000000604082015260006060820190505b919050565b60208152601260208201527f746f6f2062696720666f7220696e743235360000000000000000000000000000604082015260006060820190505b919050565b60208152601060208201527f6d6f7265207468616e2038206269747300000000000000000000000000000000604082015260006060820190505b919050565b60208152601160208201527f6d6f7265207468616e2039362062697473000000000000000000000000000000604082015260006060820190505b919050565b60208152601260208201527f6d6f7265207468616e2031373620626974730000000000000000000000000000604082015260006060820190505b919050565b60208152601260208201527f6d6f7265207468616e2031323820626974730000000000000000000000000000604082015260006060820190505b919050565b60208152601160208201527f6d6f7265207468616e2032342062697473000000000000000000000000000000604082015260006060820190505b919050565b60208152601260208201527f6d6f7265207468616e2031363020626974730000000000000000000000000000604082015260006060820190505b919050565b60208152601160208201527f6d6f7265207468616e2036342062697473000000000000000000000000000000604082015260006060820190505b919050565b60208152601260208201527f6d6f7265207468616e2032313620626974730000000000000000000000000000604082015260006060820190505b919050565b60208152601160208201527f6d6f7265207468616e2031362062697473000000000000000000000000000000604082015260006060820190505b919050565b60006020820190506fffffffffffffffffffffffffffffffff831682525b92915050565b600060208201905073ffffffffffffffffffffffffffffffffffffffff831682525b92915050565b600060208201905061ffff831682525b92915050565b600060208201905075ffffffffffffffffffffffffffffffffffffffffffff831682525b92915050565b600060208201905076ffffffffffffffffffffffffffffffffffffffffffffff831682525b92915050565b600060208201905077ffffffffffffffffffffffffffffffffffffffffffffffff831682525b92915050565b60006020820190507affffffffffffffffffffffffffffffffffffffffffffffffffffff831682525b92915050565b60006020820190508282525b92915050565b600060208201905063ffffffff831682525b92915050565b600060208201905064ffffffffff831682525b92915050565b600060208201905065ffffffffffff831682525b92915050565b600060208201905067ffffffffffffffff831682525b92915050565b600060208201905060ff831682525b92915050565b60006020820190506bffffffffffffffffffffffff831682525b92915050565bfea26469706673582212207b6a4b4ef2f107fb9603a7e90642fa86608a768e28b1254fb1e38d02853b115864736f6c63430008040033",
  "linkReferences": {},
  "deployedLinkReferences": {}
}