{
  "_format": "hh-sol-artifact-1",
  "contractName": "Auctions",
  "sourceName": "contracts/core/logic/Auctions.sol",
  "abi": [
    {
      "inputs": [
        {
          "components": [
            {
              "internalType": "contract IGovernor",
              "name": "Governor",
              "type": "address"
            },
            {
              "internalType": "contract IProtocolLock",
              "name": "ProtocolLock",
              "type": "address"
            },
            {
              "internalType": "contract IHue",
              "name": "Hue",
              "type": "address"
            }
          ],
          "internalType": "struct IAuctions.ConstructorParams",
          "name": "params",
          "type": "tuple"
        }
      ],
      "stateMutability": "nonpayable",
      "type": "constructor"
    },
    {
      "anonymous": false,
      "inputs": [
        {
          "indexed": true,
          "internalType": "uint64",
          "name": "auctionID",
          "type": "uint64"
        },
        {
          "indexed": true,
          "internalType": "address",
          "name": "bidder",
          "type": "address"
        },
        {
          "indexed": false,
          "internalType": "uint256",
          "name": "bid",
          "type": "uint256"
        }
      ],
      "name": "DeficitAuctionBid",
      "type": "event"
    },
    {
      "anonymous": false,
      "inputs": [
        {
          "indexed": true,
          "internalType": "uint64",
          "name": "auctionID",
          "type": "uint64"
        },
        {
          "indexed": true,
          "internalType": "address",
          "name": "winner",
          "type": "address"
        }
      ],
      "name": "DeficitAuctionSettled",
      "type": "event"
    },
    {
      "anonymous": false,
      "inputs": [
        {
          "indexed": true,
          "internalType": "uint64",
          "name": "auctionID",
          "type": "uint64"
        },
        {
          "indexed": true,
          "internalType": "uint256",
          "name": "count",
          "type": "uint256"
        },
        {
          "indexed": false,
          "internalType": "uint64",
          "name": "maxEndTime",
          "type": "uint64"
        }
      ],
      "name": "DeficitAuctionStarted",
      "type": "event"
    },
    {
      "anonymous": false,
      "inputs": [
        {
          "indexed": false,
          "internalType": "uint64",
          "name": "extension",
          "type": "uint64"
        }
      ],
      "name": "ExtensionPerBidUpdated",
      "type": "event"
    },
    {
      "anonymous": false,
      "inputs": [
        {
          "indexed": false,
          "internalType": "uint64",
          "name": "duration",
          "type": "uint64"
        }
      ],
      "name": "MaxAuctionDurationUpdated",
      "type": "event"
    },
    {
      "anonymous": false,
      "inputs": [
        {
          "indexed": false,
          "internalType": "uint64",
          "name": "size",
          "type": "uint64"
        }
      ],
      "name": "MaxBatchSizeUpdated",
      "type": "event"
    },
    {
      "anonymous": false,
      "inputs": [
        {
          "indexed": false,
          "internalType": "uint256",
          "name": "size",
          "type": "uint256"
        }
      ],
      "name": "MaxSurplusLotSizeUpdated",
      "type": "event"
    },
    {
      "anonymous": false,
      "inputs": [
        {
          "indexed": false,
          "internalType": "uint64",
          "name": "duration",
          "type": "uint64"
        }
      ],
      "name": "MinAuctionDurationUpdated",
      "type": "event"
    },
    {
      "anonymous": false,
      "inputs": [
        {
          "indexed": false,
          "internalType": "uint256",
          "name": "delta",
          "type": "uint256"
        }
      ],
      "name": "MinBidDeltaUpdated",
      "type": "event"
    },
    {
      "anonymous": false,
      "inputs": [
        {
          "indexed": false,
          "internalType": "uint256",
          "name": "size",
          "type": "uint256"
        }
      ],
      "name": "MinLotSizeUpdated",
      "type": "event"
    },
    {
      "anonymous": false,
      "inputs": [
        {
          "indexed": false,
          "internalType": "uint256",
          "name": "bound",
          "type": "uint256"
        }
      ],
      "name": "ReservesBufferLowerBoundUpdated",
      "type": "event"
    },
    {
      "anonymous": false,
      "inputs": [
        {
          "indexed": false,
          "internalType": "uint256",
          "name": "bound",
          "type": "uint256"
        }
      ],
      "name": "ReservesBufferUpperBoundUpdated",
      "type": "event"
    },
    {
      "anonymous": false,
      "inputs": [],
      "name": "Stopped",
      "type": "event"
    },
    {
      "anonymous": false,
      "inputs": [
        {
          "indexed": true,
          "internalType": "uint64",
          "name": "auctionID",
          "type": "uint64"
        },
        {
          "indexed": true,
          "internalType": "address",
          "name": "bidder",
          "type": "address"
        },
        {
          "indexed": false,
          "internalType": "uint256",
          "name": "bid",
          "type": "uint256"
        }
      ],
      "name": "SurplusAuctionBid",
      "type": "event"
    },
    {
      "anonymous": false,
      "inputs": [
        {
          "indexed": true,
          "internalType": "uint64",
          "name": "auctionID",
          "type": "uint64"
        },
        {
          "indexed": true,
          "internalType": "address",
          "name": "winner",
          "type": "address"
        }
      ],
      "name": "SurplusAuctionSettled",
      "type": "event"
    },
    {
      "anonymous": false,
      "inputs": [
        {
          "indexed": true,
          "internalType": "uint64",
          "name": "auctionID",
          "type": "uint64"
        },
        {
          "indexed": true,
          "internalType": "uint256",
          "name": "count",
          "type": "uint256"
        },
        {
          "indexed": false,
          "internalType": "uint64",
          "name": "maxEndTime",
          "type": "uint64"
        }
      ],
      "name": "SurplusAuctionStarted",
      "type": "event"
    },
    {
      "anonymous": false,
      "inputs": [
        {
          "indexed": false,
          "internalType": "uint32",
          "name": "duration",
          "type": "uint32"
        }
      ],
      "name": "TwapDurationUpdated",
      "type": "event"
    },
    {
      "anonymous": false,
      "inputs": [
        {
          "indexed": false,
          "internalType": "uint256",
          "name": "size",
          "type": "uint256"
        }
      ],
      "name": "maxDeficitLotSizeUpdated",
      "type": "event"
    },
    {
      "inputs": [
        {
          "internalType": "uint64",
          "name": "auctionID",
          "type": "uint64"
        },
        {
          "internalType": "uint128",
          "name": "bid",
          "type": "uint128"
        }
      ],
      "name": "bidDeficitAuction",
      "outputs": [],
      "stateMutability": "nonpayable",
      "type": "function"
    },
    {
      "inputs": [
        {
          "internalType": "uint64",
          "name": "auctionID",
          "type": "uint64"
        },
        {
          "internalType": "uint128",
          "name": "bid",
          "type": "uint128"
        }
      ],
      "name": "bidSurplusAuction",
      "outputs": [],
      "stateMutability": "nonpayable",
      "type": "function"
    },
    {
      "inputs": [],
      "name": "checkReservesAndStartAuctions",
      "outputs": [],
      "stateMutability": "nonpayable",
      "type": "function"
    },
    {
      "inputs": [
        {
          "internalType": "uint64",
          "name": "",
          "type": "uint64"
        }
      ],
      "name": "deficitAuction",
      "outputs": [
        {
          "internalType": "uint128",
          "name": "count",
          "type": "uint128"
        },
        {
          "internalType": "uint128",
          "name": "bid",
          "type": "uint128"
        },
        {
          "internalType": "address",
          "name": "bidder",
          "type": "address"
        },
        {
          "internalType": "uint48",
          "name": "endTime",
          "type": "uint48"
        },
        {
          "internalType": "uint48",
          "name": "maxEndTime",
          "type": "uint48"
        }
      ],
      "stateMutability": "view",
      "type": "function"
    },
    {
      "inputs": [
        {
          "internalType": "uint64",
          "name": "auctionID",
          "type": "uint64"
        }
      ],
      "name": "deficitAuctionComplete",
      "outputs": [
        {
          "internalType": "bool",
          "name": "",
          "type": "bool"
        }
      ],
      "stateMutability": "view",
      "type": "function"
    },
    {
      "inputs": [],
      "name": "deficitAuctionCount",
      "outputs": [
        {
          "internalType": "uint64",
          "name": "",
          "type": "uint64"
        }
      ],
      "stateMutability": "view",
      "type": "function"
    },
    {
      "inputs": [
        {
          "internalType": "uint64",
          "name": "auctionID",
          "type": "uint64"
        }
      ],
      "name": "deficitAuctionLive",
      "outputs": [
        {
          "internalType": "bool",
          "name": "",
          "type": "bool"
        }
      ],
      "stateMutability": "view",
      "type": "function"
    },
    {
      "inputs": [],
      "name": "extensionPerBid",
      "outputs": [
        {
          "internalType": "uint64",
          "name": "",
          "type": "uint64"
        }
      ],
      "stateMutability": "view",
      "type": "function"
    },
    {
      "inputs": [
        {
          "internalType": "uint64",
          "name": "start",
          "type": "uint64"
        },
        {
          "internalType": "bool",
          "name": "surplus",
          "type": "bool"
        }
      ],
      "name": "getAllAuctions",
      "outputs": [
        {
          "components": [
            {
              "internalType": "uint128",
              "name": "count",
              "type": "uint128"
            },
            {
              "internalType": "uint128",
              "name": "bid",
              "type": "uint128"
            },
            {
              "internalType": "address",
              "name": "bidder",
              "type": "address"
            },
            {
              "internalType": "uint48",
              "name": "endTime",
              "type": "uint48"
            },
            {
              "internalType": "uint48",
              "name": "maxEndTime",
              "type": "uint48"
            }
          ],
          "internalType": "struct IAuctions.Auction[]",
          "name": "_auctions",
          "type": "tuple[]"
        },
        {
          "internalType": "uint256[]",
          "name": "_auctionIDs",
          "type": "uint256[]"
        },
        {
          "internalType": "bool[]",
          "name": "_isComplete",
          "type": "bool[]"
        }
      ],
      "stateMutability": "view",
      "type": "function"
    },
    {
      "inputs": [],
      "name": "governor",
      "outputs": [
        {
          "internalType": "contract IGovernor",
          "name": "",
          "type": "address"
        }
      ],
      "stateMutability": "view",
      "type": "function"
    },
    {
      "inputs": [],
      "name": "hue",
      "outputs": [
        {
          "internalType": "contract IHue",
          "name": "",
          "type": "address"
        }
      ],
      "stateMutability": "view",
      "type": "function"
    },
    {
      "inputs": [],
      "name": "hueToBeBought",
      "outputs": [
        {
          "internalType": "uint256",
          "name": "",
          "type": "uint256"
        }
      ],
      "stateMutability": "view",
      "type": "function"
    },
    {
      "inputs": [],
      "name": "hueToBeSold",
      "outputs": [
        {
          "internalType": "uint256",
          "name": "",
          "type": "uint256"
        }
      ],
      "stateMutability": "view",
      "type": "function"
    },
    {
      "inputs": [],
      "name": "latestAuctionCompletionTime",
      "outputs": [
        {
          "internalType": "uint64",
          "name": "",
          "type": "uint64"
        }
      ],
      "stateMutability": "view",
      "type": "function"
    },
    {
      "inputs": [],
      "name": "maxAuctionDuration",
      "outputs": [
        {
          "internalType": "uint64",
          "name": "",
          "type": "uint64"
        }
      ],
      "stateMutability": "view",
      "type": "function"
    },
    {
      "inputs": [],
      "name": "maxBatchSize",
      "outputs": [
        {
          "internalType": "uint64",
          "name": "",
          "type": "uint64"
        }
      ],
      "stateMutability": "view",
      "type": "function"
    },
    {
      "inputs": [],
      "name": "maxDeficitLotSize",
      "outputs": [
        {
          "internalType": "uint256",
          "name": "",
          "type": "uint256"
        }
      ],
      "stateMutability": "view",
      "type": "function"
    },
    {
      "inputs": [],
      "name": "maxSurplusLotSize",
      "outputs": [
        {
          "internalType": "uint256",
          "name": "",
          "type": "uint256"
        }
      ],
      "stateMutability": "view",
      "type": "function"
    },
    {
      "inputs": [],
      "name": "minAuctionDuration",
      "outputs": [
        {
          "internalType": "uint64",
          "name": "",
          "type": "uint64"
        }
      ],
      "stateMutability": "view",
      "type": "function"
    },
    {
      "inputs": [],
      "name": "minBidDelta",
      "outputs": [
        {
          "internalType": "uint256",
          "name": "",
          "type": "uint256"
        }
      ],
      "stateMutability": "view",
      "type": "function"
    },
    {
      "inputs": [],
      "name": "minLotSize",
      "outputs": [
        {
          "internalType": "uint256",
          "name": "",
          "type": "uint256"
        }
      ],
      "stateMutability": "view",
      "type": "function"
    },
    {
      "inputs": [],
      "name": "reservesBufferLowerBound",
      "outputs": [
        {
          "internalType": "uint256",
          "name": "",
          "type": "uint256"
        }
      ],
      "stateMutability": "view",
      "type": "function"
    },
    {
      "inputs": [],
      "name": "reservesBufferUpperBound",
      "outputs": [
        {
          "internalType": "uint256",
          "name": "",
          "type": "uint256"
        }
      ],
      "stateMutability": "view",
      "type": "function"
    },
    {
      "inputs": [
        {
          "internalType": "uint64",
          "name": "extension",
          "type": "uint64"
        }
      ],
      "name": "setExtensionPerBid",
      "outputs": [],
      "stateMutability": "nonpayable",
      "type": "function"
    },
    {
      "inputs": [
        {
          "internalType": "uint64",
          "name": "duration",
          "type": "uint64"
        }
      ],
      "name": "setMaxAuctionDuration",
      "outputs": [],
      "stateMutability": "nonpayable",
      "type": "function"
    },
    {
      "inputs": [
        {
          "internalType": "uint64",
          "name": "size",
          "type": "uint64"
        }
      ],
      "name": "setMaxBatchSize",
      "outputs": [],
      "stateMutability": "nonpayable",
      "type": "function"
    },
    {
      "inputs": [
        {
          "internalType": "uint256",
          "name": "size",
          "type": "uint256"
        }
      ],
      "name": "setMaxDeficitLotSize",
      "outputs": [],
      "stateMutability": "nonpayable",
      "type": "function"
    },
    {
      "inputs": [
        {
          "internalType": "uint256",
          "name": "size",
          "type": "uint256"
        }
      ],
      "name": "setMaxSurplusLotSize",
      "outputs": [],
      "stateMutability": "nonpayable",
      "type": "function"
    },
    {
      "inputs": [
        {
          "internalType": "uint64",
          "name": "duration",
          "type": "uint64"
        }
      ],
      "name": "setMinAuctionDuration",
      "outputs": [],
      "stateMutability": "nonpayable",
      "type": "function"
    },
    {
      "inputs": [
        {
          "internalType": "uint256",
          "name": "delta",
          "type": "uint256"
        }
      ],
      "name": "setMinBidDelta",
      "outputs": [],
      "stateMutability": "nonpayable",
      "type": "function"
    },
    {
      "inputs": [
        {
          "internalType": "uint256",
          "name": "size",
          "type": "uint256"
        }
      ],
      "name": "setMinLotSize",
      "outputs": [],
      "stateMutability": "nonpayable",
      "type": "function"
    },
    {
      "inputs": [
        {
          "internalType": "uint256",
          "name": "bound",
          "type": "uint256"
        }
      ],
      "name": "setReservesBufferLowerBound",
      "outputs": [],
      "stateMutability": "nonpayable",
      "type": "function"
    },
    {
      "inputs": [
        {
          "internalType": "uint256",
          "name": "bound",
          "type": "uint256"
        }
      ],
      "name": "setReservesBufferUpperBound",
      "outputs": [],
      "stateMutability": "nonpayable",
      "type": "function"
    },
    {
      "inputs": [
        {
          "internalType": "uint32",
          "name": "duration",
          "type": "uint32"
        }
      ],
      "name": "setTwapDuration",
      "outputs": [],
      "stateMutability": "nonpayable",
      "type": "function"
    },
    {
      "inputs": [
        {
          "internalType": "uint64",
          "name": "auctionID",
          "type": "uint64"
        }
      ],
      "name": "settleDeficitAuction",
      "outputs": [],
      "stateMutability": "nonpayable",
      "type": "function"
    },
    {
      "inputs": [
        {
          "internalType": "uint64",
          "name": "auctionID",
          "type": "uint64"
        }
      ],
      "name": "settleSurplusAuction",
      "outputs": [],
      "stateMutability": "nonpayable",
      "type": "function"
    },
    {
      "inputs": [],
      "name": "shouldStartAuctions",
      "outputs": [
        {
          "internalType": "uint256",
          "name": "surplusAmount",
          "type": "uint256"
        },
        {
          "internalType": "uint256",
          "name": "deficitAmount",
          "type": "uint256"
        }
      ],
      "stateMutability": "view",
      "type": "function"
    },
    {
      "inputs": [],
      "name": "stop",
      "outputs": [],
      "stateMutability": "nonpayable",
      "type": "function"
    },
    {
      "inputs": [],
      "name": "stopped",
      "outputs": [
        {
          "internalType": "bool",
          "name": "",
          "type": "bool"
        }
      ],
      "stateMutability": "view",
      "type": "function"
    },
    {
      "inputs": [
        {
          "internalType": "uint64",
          "name": "",
          "type": "uint64"
        }
      ],
      "name": "surplusAuction",
      "outputs": [
        {
          "internalType": "uint128",
          "name": "count",
          "type": "uint128"
        },
        {
          "internalType": "uint128",
          "name": "bid",
          "type": "uint128"
        },
        {
          "internalType": "address",
          "name": "bidder",
          "type": "address"
        },
        {
          "internalType": "uint48",
          "name": "endTime",
          "type": "uint48"
        },
        {
          "internalType": "uint48",
          "name": "maxEndTime",
          "type": "uint48"
        }
      ],
      "stateMutability": "view",
      "type": "function"
    },
    {
      "inputs": [
        {
          "internalType": "uint64",
          "name": "auctionID",
          "type": "uint64"
        }
      ],
      "name": "surplusAuctionComplete",
      "outputs": [
        {
          "internalType": "bool",
          "name": "",
          "type": "bool"
        }
      ],
      "stateMutability": "view",
      "type": "function"
    },
    {
      "inputs": [],
      "name": "surplusAuctionCount",
      "outputs": [
        {
          "internalType": "uint64",
          "name": "",
          "type": "uint64"
        }
      ],
      "stateMutability": "view",
      "type": "function"
    },
    {
      "inputs": [
        {
          "internalType": "uint64",
          "name": "auctionID",
          "type": "uint64"
        }
      ],
      "name": "surplusAuctionLive",
      "outputs": [
        {
          "internalType": "bool",
          "name": "",
          "type": "bool"
        }
      ],
      "stateMutability": "view",
      "type": "function"
    },
    {
      "inputs": [],
      "name": "twapDuration",
      "outputs": [
        {
          "internalType": "uint32",
          "name": "",
          "type": "uint32"
        }
      ],
      "stateMutability": "view",
      "type": "function"
    },
    {
      "inputs": [
        {
          "internalType": "bytes4",
          "name": "",
          "type": "bytes4"
        }
      ],
      "name": "validUpdate",
      "outputs": [
        {
          "internalType": "bool",
          "name": "",
          "type": "bool"
        }
      ],
      "stateMutability": "view",
      "type": "function"
    }
  ],
  "bytecode": "0x60e060405260016002600050909055670e4b4b8af6a70000600360005090905568878678326eac900000600460005090905569043c33c1937564800000600560005090905569043c33c19375648000006006600050909055662386f26fc10000600760005090905566b1a2bc2ec5000060086000509090556005600960006101000a81548167ffffffffffffffff021916908367ffffffffffffffff160217905550610708600960086101000a81548167ffffffffffffffff021916908367ffffffffffffffff16021790555062015180600960106101000a81548167ffffffffffffffff021916908367ffffffffffffffff1602179055506202a300600960186101000a81548167ffffffffffffffff021916908367ffffffffffffffff160217905550610708600c60186101000a81548163ffffffff021916908363ffffffff160217905550348015620001555760006000fd5b50604051620060183803806200601883398181016040528101906200017b919062000670565b5b806000015181602001515b815b8073ffffffffffffffffffffffffffffffffffffffff1660808173ffffffffffffffffffffffffffffffffffffffff1660601b815260140150505b508073ffffffffffffffffffffffffffffffffffffffff1660a08173ffffffffffffffffffffffffffffffffffffffff1660601b815260140150505b5050806040015173ffffffffffffffffffffffffffffffffffffffff1660c08173ffffffffffffffffffffffffffffffffffffffff1660601b81526014015050600060405180610160016040528063ddf31e6760e01b7bffffffffffffffffffffffffffffffffffffffffffffffffffffffff19167bffffffffffffffffffffffffffffffffffffffffffffffffffffffff191681526020016334b1447560e01b7bffffffffffffffffffffffffffffffffffffffffffffffffffffffff19167bffffffffffffffffffffffffffffffffffffffffffffffffffffffff19168152602001638d56248a60e01b7bffffffffffffffffffffffffffffffffffffffffffffffffffffffff19167bffffffffffffffffffffffffffffffffffffffffffffffffffffffff19168152602001633a3a63df60e01b7bffffffffffffffffffffffffffffffffffffffffffffffffffffffff19167bffffffffffffffffffffffffffffffffffffffffffffffffffffffff1916815260200163887c67d960e01b7bffffffffffffffffffffffffffffffffffffffffffffffffffffffff19167bffffffffffffffffffffffffffffffffffffffffffffffffffffffff19168152602001634ae8470d60e01b7bffffffffffffffffffffffffffffffffffffffffffffffffffffffff19167bffffffffffffffffffffffffffffffffffffffffffffffffffffffff1916815260200163afea44ef60e01b7bffffffffffffffffffffffffffffffffffffffffffffffffffffffff19167bffffffffffffffffffffffffffffffffffffffffffffffffffffffff19168152602001630fb4e2b360e01b7bffffffffffffffffffffffffffffffffffffffffffffffffffffffff19167bffffffffffffffffffffffffffffffffffffffffffffffffffffffff191681526020016375d0ef5260e01b7bffffffffffffffffffffffffffffffffffffffffffffffffffffffff19167bffffffffffffffffffffffffffffffffffffffffffffffffffffffff191681526020016337ca44fc60e01b7bffffffffffffffffffffffffffffffffffffffffffffffffffffffff19167bffffffffffffffffffffffffffffffffffffffffffffffffffffffff1916815260200163c433c80a60e01b7bffffffffffffffffffffffffffffffffffffffffffffffffffffffff19167bffffffffffffffffffffffffffffffffffffffffffffffffffffffff191681526020015090506000600090505b8150600b81101562000661576001600160005060008484600b81101515620005e2577f4e487b7100000000000000000000000000000000000000000000000000000000600052603260045260246000fd5b60200201517bffffffffffffffffffffffffffffffffffffffffffffffffffffffff19167bffffffffffffffffffffffffffffffffffffffffffffffffffffffff1916815260200190815260200160002060006101000a81548160ff0219169083151502179055505b8080620006589062000700565b91505062000591565b50505b506200074b566200074a565b60006060828403121562000682578081fd5b604051606081018181106001600160401b0382111715620006b157634e487b7160e01b83526041600452602483fd5b80604052508251620006c3816200072d565b808252506020830151620006d7816200072d565b806020830152506040830151620006ee816200072d565b80604083015250809150505b92915050565b60006000198214156200072157634e487b7160e01b81526011600452602481fd5b6001820190505b919050565b6001600160a01b03811681141515620007465760006000fd5b505b565b5b60805160601c60a05160601c60c05160601c615840620007d860003960008181610abb01528181610de10152818161240a015281816126fe0152612c7a0152600081816138e10152613a200152600081816108c7015281816109c101528181610b5f015281816113b50152818161342a0152818161367f01528181613aaa0152613d7001526158406000f3fe60806040523480156100115760006000fd5b50600436106103045760003560e01c806354f634fb1161019d5780638d56248a116100ef578063c433c80a11610098578063d7abba0c11610072578063d7abba0c1461084f578063ddf31e671461086b578063faf95d2d1461088757610304565b8063c433c80a146107e7578063caa98b6014610803578063d005d2eb1461083357610304565b8063a958c033116100c9578063a958c033146107a3578063afea44ef146107ad578063c2b6722a146107c957610304565b80638d56248a1461074d5780639052537e1461076957806399e1998f1461078757610304565b806375d0ef52116101515780637eb12af71161012b5780637eb12af7146106f557806387d2fecd14610713578063887c67d91461073157610304565b806375d0ef521461068957806375f12b21146106a55780637d695351146106c357610304565b806360aad9bf1161018257806360aad9bf14610619578063616cb0cf14610637578063651cf64d1461065557610304565b806354f634fb146105cb578063597e899f146105e957610304565b80633427c4ef116102565780634079b8fc1161020a5780634ae8470d116101e45780634ae8470d14610573578063541348761461058f57806354cccf08146105ad57610304565b80634079b8fc1461050957806348c9581e146105395780634a2304b11461055757610304565b806337ca44fc1161023b57806337ca44fc146104a15780633a3a63df146104bd57806340601add146104d957610304565b80633427c4ef1461045157806334b144751461048557610304565b80631b875768116102b857806327399e211161029257806327399e21146103f75780632913daa014610415578063323741741461043357610304565b80631b8757681461039c57806325df9538146103ba57806326d89545146103d957610304565b80630fb4e2b3116102e95780630fb4e2b3146103325780630fe869071461034e578063113cf1ab1461036c57610304565b806307da68f51461030a5780630c340a241461031457610304565b60006000fd5b6103126108a5565b005b61031c6108c5565b6040516103299190614f54565b60405180910390f35b61034c60048036038101906103479190614c6c565b6108e9565b005b61035661095c565b604051610363919061553c565b60405180910390f35b61038660048036038101906103819190614b1a565b610965565b6040516103939190614f40565b60405180910390f35b6103a461098a565b6040516103b1919061557f565b60405180910390f35b6103c26109a4565b6040516103d092919061554e565b60405180910390f35b6103e1610da6565b6040516103ee9190615567565b60405180910390f35b6103ff610dbc565b60405161040c919061553c565b60405180910390f35b61041d610dc5565b60405161042a919061557f565b60405180910390f35b61043b610ddf565b6040516104489190614f7c565b60405180910390f35b61046b60048036038101906104669190614c6c565b610e03565b60405161047c9594939291906154d6565b60405180910390f35b61049f600480360381019061049a9190614c03565b610eb8565b005b6104bb60048036038101906104b69190614c6c565b610f55565b005b6104d760048036038101906104d29190614c03565b611017565b005b6104f360048036038101906104ee9190614c6c565b611086565b6040516105009190614f40565b60405180910390f35b610523600480360381019061051e9190614c6c565b6110eb565b6040516105309190614f40565b60405180910390f35b610541611150565b60405161054e919061557f565b60405180910390f35b610571600480360381019061056c9190614c6c565b61116a565b005b61058d60048036038101906105889190614c03565b6115bd565b005b610597611648565b6040516105a4919061557f565b60405180910390f35b6105b5611662565b6040516105c2919061553c565b60405180910390f35b6105d361166b565b6040516105e0919061553c565b60405180910390f35b61060360048036038101906105fe9190614c6c565b611674565b6040516106109190614f40565b60405180910390f35b6106216116d8565b60405161062e919061553c565b60405180910390f35b61063f6116e1565b60405161064c919061553c565b60405180910390f35b61066f600480360381019061066a9190614c6c565b6116ea565b6040516106809594939291906154d6565b60405180910390f35b6106a3600480360381019061069e9190614c6c565b61179f565b005b6106ad611861565b6040516106ba9190614f40565b60405180910390f35b6106dd60048036038101906106d89190614c8f565b611874565b6040516106ec93929190614e66565b60405180910390f35b6106fd61200b565b60405161070a919061557f565b60405180910390f35b61071b612025565b604051610728919061553c565b60405180910390f35b61074b60048036038101906107469190614c03565b61202e565b005b61076760048036038101906107629190614c03565b61209d565b005b61077161210c565b60405161077e919061553c565b60405180910390f35b6107a1600480360381019061079c9190614cc7565b612115565b005b6107ab6127b3565b005b6107c760048036038101906107c29190614c6c565b612874565b005b6107d1612917565b6040516107de919061557f565b60405180910390f35b61080160048036038101906107fc9190614c3b565b612931565b005b61081d60048036038101906108189190614c6c565b6129b4565b60405161082a9190614f40565b60405180910390f35b61084d60048036038101906108489190614c6c565b612a18565b005b61086960048036038101906108649190614cc7565b612e44565b005b61088560048036038101906108809190614c03565b6135ee565b005b61088f613660565b60405161089c919061557f565b60405180910390f35b6108b361367a63ffffffff16565b6108c16136da63ffffffff16565b5b5b565b7f000000000000000000000000000000000000000000000000000000000000000081565b6108f761367a63ffffffff16565b80600960086101000a81548167ffffffffffffffff021916908367ffffffffffffffff1602179055507fc41bd7d4803c68b43810c1acff639a83bc8d9f370d8aafaf52bf152c732e0caf8160405161094f919061557f565b60405180910390a15b5b50565b60066000505481565b600160005060205280600052604060002060009150909054906101000a900460ff1681565b600c60109054906101000a900467ffffffffffffffff1681565b600060003073ffffffffffffffffffffffffffffffffffffffff167f000000000000000000000000000000000000000000000000000000000000000073ffffffffffffffffffffffffffffffffffffffff166385aa61036040518163ffffffff1660e01b815260040160206040518083038186803b158015610a265760006000fd5b505afa158015610a3b573d600060003e3d6000fd5b505050506040513d601f19601f82011682018060405250810190610a5f9190614b8e565b73ffffffffffffffffffffffffffffffffffffffff16141515610ab7576040517f08c379a0000000000000000000000000000000000000000000000000000000008152600401610aae906150f4565b60405180910390fd5b60007f000000000000000000000000000000000000000000000000000000000000000073ffffffffffffffffffffffffffffffffffffffff166375172a8b6040518163ffffffff1660e01b815260040160206040518083038186803b158015610b205760006000fd5b505afa158015610b35573d600060003e3d6000fd5b505050506040513d601f19601f82011682018060405250810190610b599190614c1f565b905060007f000000000000000000000000000000000000000000000000000000000000000073ffffffffffffffffffffffffffffffffffffffff16639624e83e6040518163ffffffff1660e01b815260040160206040518083038186803b158015610bc45760006000fd5b505afa158015610bd9573d600060003e3d6000fd5b505050506040513d601f19601f82011682018060405250810190610bfd9190614b67565b73ffffffffffffffffffffffffffffffffffffffff16630dca59c16040518163ffffffff1660e01b815260040160206040518083038186803b158015610c435760006000fd5b505afa158015610c58573d600060003e3d6000fd5b505050506040513d601f19601f82011682018060405250810190610c7c9190614c1f565b90506000610c986008600050548361372490919063ffffffff16565b90506000610cb46007600050548461372490919063ffffffff16565b90506000600a610ccd838561374a90919063ffffffff16565b610cd791906155ee565b905082610cf2600d600050548761374a90919063ffffffff16565b1115610d3c578083600d6000505487610d0b919061568b565b610d15919061568b565b610d1f919061559b565b96508650600460005054871015610d37576000965086505b610d9c565b81610d55600e600050548761376590919063ffffffff16565b1015610d9b5780600e6000505486610d6d919061559b565b83610d78919061568b565b610d82919061559b565b95508550600460005054861015610d9a576000955085505b5b5b50505050505b9091565b600c60189054906101000a900463ffffffff1681565b600d6000505481565b600960009054906101000a900467ffffffffffffffff1681565b7f000000000000000000000000000000000000000000000000000000000000000081565b600a6000506020528060005260406000206000915090508060000160009054906101000a90046fffffffffffffffffffffffffffffffff16908060000160109054906101000a90046fffffffffffffffffffffffffffffffff16908060010160009054906101000a900473ffffffffffffffffffffffffffffffffffffffff16908060010160149054906101000a900465ffffffffffff169080600101601a9054906101000a900465ffffffffffff16905085565b610ec661367a63ffffffff16565b8060046000508190909055506004600050546000101515610ee75760006000fd5b600560005054600460005054101515610f005760006000fd5b600660005054600460005054101515610f195760006000fd5b7f4ef33b2d85532aa2e1ae3100d20137f031644ce9fdce16cef60da325607dd04281604051610f48919061553c565b60405180910390a15b5b50565b610f6361367a63ffffffff16565b80600960186101000a81548167ffffffffffffffff021916908367ffffffffffffffff160217905550600960189054906101000a900467ffffffffffffffff1667ffffffffffffffff16600960109054906101000a900467ffffffffffffffff1667ffffffffffffffff16101515610fdb5760006000fd5b7f18f52500bf2819c004e98748a693e237955bc5aca194741a0d3954775257e8698160405161100a919061557f565b60405180910390a15b5b50565b61102561367a63ffffffff16565b80600660005081909090555060066000505460046000505410151561104a5760006000fd5b7f366fef0231e50d43e76d8b48806aa9f2b349a6ad9725d47012f8c2e8c37f23fb81604051611079919061553c565b60405180910390a15b5b50565b60006110978261378063ffffffff16565b6110a25760006110df565b6110dd600b60005060008467ffffffffffffffff1667ffffffffffffffff1681526020019081526020016000206000506137f063ffffffff16565b155b90506110e6565b919050565b60006110fc8261386f63ffffffff16565b611107576000611144565b611142600a60005060008467ffffffffffffffff1667ffffffffffffffff1681526020019081526020016000206000506137f063ffffffff16565b155b905061114b565b919050565b600960189054906101000a900467ffffffffffffffff1681565b6111786138df63ffffffff16565b6111866139bc63ffffffff16565b6111958161167463ffffffff16565b15156111d6576040517f08c379a00000000000000000000000000000000000000000000000000000000081526004016111cd90615076565b60405180910390fd5b6000600b60005060008367ffffffffffffffff1667ffffffffffffffff1681526020019081526020016000206000506040518060a00160405290816000820160009054906101000a90046fffffffffffffffffffffffffffffffff166fffffffffffffffffffffffffffffffff166fffffffffffffffffffffffffffffffff1681526020016000820160109054906101000a90046fffffffffffffffffffffffffffffffff166fffffffffffffffffffffffffffffffff166fffffffffffffffffffffffffffffffff1681526020016001820160009054906101000a900473ffffffffffffffffffffffffffffffffffffffff1673ffffffffffffffffffffffffffffffffffffffff1673ffffffffffffffffffffffffffffffffffffffff1681526020016001820160149054906101000a900465ffffffffffff1665ffffffffffff1665ffffffffffff16815260200160018201601a9054906101000a900465ffffffffffff1665ffffffffffff1665ffffffffffff16815260200150509050600073ffffffffffffffffffffffffffffffffffffffff16816040015173ffffffffffffffffffffffffffffffffffffffff16141580156113ae5750600081602001516fffffffffffffffffffffffffffffffff16115b1561144f577f000000000000000000000000000000000000000000000000000000000000000073ffffffffffffffffffffffffffffffffffffffff16634cd7a315826040015183602001516040518363ffffffff1660e01b8152600401611416929190614df6565b600060405180830381600087803b1580156114315760006000fd5b505af1158015611446573d600060003e3d6000fd5b50505050611489565b61147d81600001516fffffffffffffffffffffffffffffffff16600e6000505461374a90919063ffffffff16565b600e6000508190909055505b806040015173ffffffffffffffffffffffffffffffffffffffff168267ffffffffffffffff167fd1b34ce351dc1a4cb6c40bb878ba19a12c4c44d35e7bdbeca7b5ebe947da312f60405160405180910390a3600b60005060008367ffffffffffffffff1667ffffffffffffffff16815260200190815260200160002060006000820160006101000a8154906fffffffffffffffffffffffffffffffff02191690556000820160106101000a8154906fffffffffffffffffffffffffffffffff02191690556001820160006101000a81549073ffffffffffffffffffffffffffffffffffffffff02191690556001820160146101000a81549065ffffffffffff021916905560018201601a6101000a81549065ffffffffffff02191690555050505b5b6115b9613a1163ffffffff16565b5b50565b6115cb61367a63ffffffff16565b8060086000508190909055506008600050546007600050541015156115f05760006000fd5b670de0b6b3a764000060086000505410151561160c5760006000fd5b7f4bc8e401359fe0a4abb5d7751170f1b17eabe34299bc6311dedc5ac91cdf8dbf8160405161163b919061553c565b60405180910390a15b5b50565b600960109054906101000a900467ffffffffffffffff1681565b60086000505481565b60036000505481565b60006116858261378063ffffffff16565b6116905760006116cc565b6116cb600b60005060008467ffffffffffffffff1667ffffffffffffffff1681526020019081526020016000206000506137f063ffffffff16565b5b90506116d3565b919050565b60056000505481565b60076000505481565b600b6000506020528060005260406000206000915090508060000160009054906101000a90046fffffffffffffffffffffffffffffffff16908060000160109054906101000a90046fffffffffffffffffffffffffffffffff16908060010160009054906101000a900473ffffffffffffffffffffffffffffffffffffffff16908060010160149054906101000a900465ffffffffffff169080600101601a9054906101000a900465ffffffffffff16905085565b6117ad61367a63ffffffff16565b80600960106101000a81548167ffffffffffffffff021916908367ffffffffffffffff160217905550600960189054906101000a900467ffffffffffffffff1667ffffffffffffffff16600960109054906101000a900467ffffffffffffffff1667ffffffffffffffff161015156118255760006000fd5b7fac2bc07b99cee6cd70e0c8cef6d433d70824a6a3d1eee502bc8938640a980a9481604051611854919061557f565b60405180910390a15b5b50565b600060009054906101000a900460ff1681565b60606060606060008461189d57600c60089054906101000a900467ffffffffffffffff166118b5565b600c60009054906101000a900467ffffffffffffffff165b67ffffffffffffffff169050600060008790505b828167ffffffffffffffff16101561192c57866118f4576118ef8161378063ffffffff16565b611904565b6119038161386f63ffffffff16565b5b15611918578180611914906156df565b9250505b5b80806119249061571e565b9150506118c9565b508067ffffffffffffffff81111561196d577f4e487b7100000000000000000000000000000000000000000000000000000000600052604160045260246000fd5b6040519080825280602002602001820160405280156119a657816020015b611993614a4e565b81526020019060019003908161198b5790505b50945084508067ffffffffffffffff8111156119eb577f4e487b7100000000000000000000000000000000000000000000000000000000600052604160045260246000fd5b604051908082528060200260200182016040528015611a195781602001602082028036833780820191505090505b50935083508067ffffffffffffffff811115611a5e577f4e487b7100000000000000000000000000000000000000000000000000000000600052604160045260246000fd5b604051908082528060200260200182016040528015611a8c5781602001602082028036833780820191505090505b5092508250600060008890505b838167ffffffffffffffff161015611fff578715611d4957611ac08161386f63ffffffff16565b1515611acb57611fec565b600a60005060008267ffffffffffffffff1667ffffffffffffffff1681526020019081526020016000206000506040518060a00160405290816000820160009054906101000a90046fffffffffffffffffffffffffffffffff166fffffffffffffffffffffffffffffffff166fffffffffffffffffffffffffffffffff1681526020016000820160109054906101000a90046fffffffffffffffffffffffffffffffff166fffffffffffffffffffffffffffffffff166fffffffffffffffffffffffffffffffff1681526020016001820160009054906101000a900473ffffffffffffffffffffffffffffffffffffffff1673ffffffffffffffffffffffffffffffffffffffff1673ffffffffffffffffffffffffffffffffffffffff1681526020016001820160149054906101000a900465ffffffffffff1665ffffffffffff1665ffffffffffff16815260200160018201601a9054906101000a900465ffffffffffff1665ffffffffffff1665ffffffffffff16815260200150508783815181101515611c83577f4e487b7100000000000000000000000000000000000000000000000000000000600052603260045260246000fd5b60200260200101819052508067ffffffffffffffff168683815181101515611cd4577f4e487b7100000000000000000000000000000000000000000000000000000000600052603260045260246000fd5b6020026020010190908181526020015050611cf4816129b463ffffffff16565b8583815181101515611d2f577f4e487b7100000000000000000000000000000000000000000000000000000000600052603260045260246000fd5b602002602001019015159081151581526020015050611fdd565b611d588161378063ffffffff16565b1515611d6357611fec565b600b60005060008267ffffffffffffffff1667ffffffffffffffff1681526020019081526020016000206000506040518060a00160405290816000820160009054906101000a90046fffffffffffffffffffffffffffffffff166fffffffffffffffffffffffffffffffff166fffffffffffffffffffffffffffffffff1681526020016000820160109054906101000a90046fffffffffffffffffffffffffffffffff166fffffffffffffffffffffffffffffffff166fffffffffffffffffffffffffffffffff1681526020016001820160009054906101000a900473ffffffffffffffffffffffffffffffffffffffff1673ffffffffffffffffffffffffffffffffffffffff1673ffffffffffffffffffffffffffffffffffffffff1681526020016001820160149054906101000a900465ffffffffffff1665ffffffffffff1665ffffffffffff16815260200160018201601a9054906101000a900465ffffffffffff1665ffffffffffff1665ffffffffffff16815260200150508783815181101515611f1b577f4e487b7100000000000000000000000000000000000000000000000000000000600052603260045260246000fd5b60200260200101819052508067ffffffffffffffff168683815181101515611f6c577f4e487b7100000000000000000000000000000000000000000000000000000000600052603260045260246000fd5b6020026020010190908181526020015050611f8c8161167463ffffffff16565b8583815181101515611fc7577f4e487b7100000000000000000000000000000000000000000000000000000000600052603260045260246000fd5b6020026020010190151590811515815260200150505b8180611fe8906156df565b9250505b8080611ff79061571e565b915050611a99565b505050505b9250925092565b600c60089054906101000a900467ffffffffffffffff1681565b600e6000505481565b61203c61367a63ffffffff16565b8060076000508190909055506008600050546007600050541015156120615760006000fd5b7f98de8134f58d0f83d8490533bdf2ea621691a0d73aa5af21c25f64e237d0510c81604051612090919061553c565b60405180910390a15b5b50565b6120ab61367a63ffffffff16565b8060056000508190909055506005600050546004600050541015156120d05760006000fd5b7f1a947e1e83119fe73dfbcae0f4777aac4937059cc8fa08b6edad794bb2bbacd6816040516120ff919061553c565b60405180910390a15b5b50565b60046000505481565b6121236138df63ffffffff16565b6121316139bc63ffffffff16565b6121408261108663ffffffff16565b1515612181576040517f08c379a000000000000000000000000000000000000000000000000000000000815260040161217890615434565b60405180910390fd5b6000600b60005060008467ffffffffffffffff1667ffffffffffffffff1681526020019081526020016000206000506040518060a00160405290816000820160009054906101000a90046fffffffffffffffffffffffffffffffff166fffffffffffffffffffffffffffffffff166fffffffffffffffffffffffffffffffff1681526020016000820160109054906101000a90046fffffffffffffffffffffffffffffffff166fffffffffffffffffffffffffffffffff166fffffffffffffffffffffffffffffffff1681526020016001820160009054906101000a900473ffffffffffffffffffffffffffffffffffffffff1673ffffffffffffffffffffffffffffffffffffffff1673ffffffffffffffffffffffffffffffffffffffff1681526020016001820160149054906101000a900465ffffffffffff1665ffffffffffff1665ffffffffffff16815260200160018201601a9054906101000a900465ffffffffffff1665ffffffffffff1665ffffffffffff1681526020015050905060003390506000600073ffffffffffffffffffffffffffffffffffffffff16836040015173ffffffffffffffffffffffffffffffffffffffff1614156124325761237a600a61236c85600001516fffffffffffffffffffffffffffffffff16613aa363ffffffff16565b613bff90919063ffffffff16565b846fffffffffffffffffffffffffffffffff161015156123cf576040517f08c379a00000000000000000000000000000000000000000000000000000000081526004016123c690615294565b60405180910390fd5b6123fd83600001516fffffffffffffffffffffffffffffffff16600e6000505461374a90919063ffffffff16565b600e6000508190909055507f0000000000000000000000000000000000000000000000000000000000000000905080506124c0565b61246060036000505484602001516fffffffffffffffffffffffffffffffff16613c1a90919063ffffffff16565b846fffffffffffffffffffffffffffffffff16111515156124b6576040517f08c379a00000000000000000000000000000000000000000000000000000000081526004016124ad906150b5565b60405180910390fd5b8260400151905080505b81836040019073ffffffffffffffffffffffffffffffffffffffff16908173ffffffffffffffffffffffffffffffffffffffff16815260200150508383602001906fffffffffffffffffffffffffffffffff1690816fffffffffffffffffffffffffffffffff1681526020015050600061256f612558600960089054906101000a900467ffffffffffffffff16613c4063ffffffff16565b67ffffffffffffffff16613c76909063ffffffff16565b90508065ffffffffffff16846060015165ffffffffffff1610156125ad5780846060019065ffffffffffff16908165ffffffffffff16815260200150505b83600b60005060008867ffffffffffffffff1667ffffffffffffffff16815260200190815260200160002060005060008201518160000160006101000a8154816fffffffffffffffffffffffffffffffff02191690836fffffffffffffffffffffffffffffffff16021790555060208201518160000160106101000a8154816fffffffffffffffffffffffffffffffff02191690836fffffffffffffffffffffffffffffffff16021790555060408201518160010160006101000a81548173ffffffffffffffffffffffffffffffffffffffff021916908373ffffffffffffffffffffffffffffffffffffffff16021790555060608201518160010160146101000a81548165ffffffffffff021916908365ffffffffffff160217905550608082015181600101601a6101000a81548165ffffffffffff021916908365ffffffffffff1602179055509050506127417f0000000000000000000000000000000000000000000000000000000000000000848487600001516fffffffffffffffffffffffffffffffff16613cd063ffffffff16565b8273ffffffffffffffffffffffffffffffffffffffff168667ffffffffffffffff167f3e40664282966c0a42567d60514e22e8d06206cbcaa7d79f53dc8fcd8c7242468760405161279291906154b2565b60405180910390a3505050505b5b6127ae613a1163ffffffff16565b5b5050565b6127c16138df63ffffffff16565b6127cf613d6063ffffffff16565b600060006127e16109a463ffffffff16565b915091506000821115612804576127ff826001613e5363ffffffff16565b61285f565b60008111156128235761281e816000613e5363ffffffff16565b61285e565b6040517f08c379a000000000000000000000000000000000000000000000000000000000815260040161285590615390565b60405180910390fd5b5b50505b5b612871613a1163ffffffff16565b5b565b61288261367a63ffffffff16565b80600960006101000a81548167ffffffffffffffff021916908367ffffffffffffffff1602179055506000600960009054906101000a900467ffffffffffffffff1667ffffffffffffffff161115156128db5760006000fd5b7f6e9f93976a1fde110a0da07558361d4ab428d9b65b5c53d5c09c0cf5f69a32f98160405161290a919061557f565b60405180910390a15b5b50565b600c60009054906101000a900467ffffffffffffffff1681565b61293f61367a63ffffffff16565b61012c8163ffffffff16101515156129575760006000fd5b80600c60186101000a81548163ffffffff021916908363ffffffff1602179055507f670aac3910a07dcfe5267c8b0bf2357abdb454e509764d13e94e85ee13c6da20816040516129a79190615567565b60405180910390a15b5b50565b60006129c58261386f63ffffffff16565b6129d0576000612a0c565b612a0b600a60005060008467ffffffffffffffff1667ffffffffffffffff1681526020019081526020016000206000506137f063ffffffff16565b5b9050612a13565b919050565b612a266138df63ffffffff16565b612a346139bc63ffffffff16565b612a43816129b463ffffffff16565b1515612a84576040517f08c379a0000000000000000000000000000000000000000000000000000000008152600401612a7b90615076565b60405180910390fd5b6000600a60005060008367ffffffffffffffff1667ffffffffffffffff1681526020019081526020016000206000506040518060a00160405290816000820160009054906101000a90046fffffffffffffffffffffffffffffffff166fffffffffffffffffffffffffffffffff166fffffffffffffffffffffffffffffffff1681526020016000820160109054906101000a90046fffffffffffffffffffffffffffffffff166fffffffffffffffffffffffffffffffff166fffffffffffffffffffffffffffffffff1681526020016001820160009054906101000a900473ffffffffffffffffffffffffffffffffffffffff1673ffffffffffffffffffffffffffffffffffffffff1673ffffffffffffffffffffffffffffffffffffffff1681526020016001820160149054906101000a900465ffffffffffff1665ffffffffffff1665ffffffffffff16815260200160018201601a9054906101000a900465ffffffffffff1665ffffffffffff1665ffffffffffff16815260200150509050612c3381600001516fffffffffffffffffffffffffffffffff16600d6000505461374a90919063ffffffff16565b600d600050819090905550600073ffffffffffffffffffffffffffffffffffffffff16816040015173ffffffffffffffffffffffffffffffffffffffff16141515612d10577f000000000000000000000000000000000000000000000000000000000000000073ffffffffffffffffffffffffffffffffffffffff166316f9428f826040015183600001516040518363ffffffff1660e01b8152600401612cdb929190614df6565b600060405180830381600087803b158015612cf65760006000fd5b505af1158015612d0b573d600060003e3d6000fd5b505050505b806040015173ffffffffffffffffffffffffffffffffffffffff168267ffffffffffffffff167f596e5ff4197d4a01b2406d4c0717653cbc9166cf6ab2bdf78272eb99d191a09360405160405180910390a3600a60005060008367ffffffffffffffff1667ffffffffffffffff16815260200190815260200160002060006000820160006101000a8154906fffffffffffffffffffffffffffffffff02191690556000820160106101000a8154906fffffffffffffffffffffffffffffffff02191690556001820160006101000a81549073ffffffffffffffffffffffffffffffffffffffff02191690556001820160146101000a81549065ffffffffffff021916905560018201601a6101000a81549065ffffffffffff02191690555050505b5b612e40613a1163ffffffff16565b5b50565b612e526138df63ffffffff16565b612e606139bc63ffffffff16565b612e6f826110eb63ffffffff16565b1515612eb0576040517f08c379a0000000000000000000000000000000000000000000000000000000008152600401612ea790615434565b60405180910390fd5b60003390506000600a60005060008567ffffffffffffffff1667ffffffffffffffff1681526020019081526020016000206000506040518060a00160405290816000820160009054906101000a90046fffffffffffffffffffffffffffffffff166fffffffffffffffffffffffffffffffff166fffffffffffffffffffffffffffffffff1681526020016000820160109054906101000a90046fffffffffffffffffffffffffffffffff166fffffffffffffffffffffffffffffffff166fffffffffffffffffffffffffffffffff1681526020016001820160009054906101000a900473ffffffffffffffffffffffffffffffffffffffff1673ffffffffffffffffffffffffffffffffffffffff1673ffffffffffffffffffffffffffffffffffffffff1681526020016001820160149054906101000a900465ffffffffffff1665ffffffffffff1665ffffffffffff16815260200160018201601a9054906101000a900465ffffffffffff1665ffffffffffff1665ffffffffffff16815260200150509050600060006000600073ffffffffffffffffffffffffffffffffffffffff16846040015173ffffffffffffffffffffffffffffffffffffffff16141561311757600a61309c85600001516fffffffffffffffffffffffffffffffff16613aa363ffffffff16565b6130a691906155ee565b866fffffffffffffffffffffffffffffffff161115156130fb576040517f08c379a00000000000000000000000000000000000000000000000000000000081526004016130f290615037565b60405180910390fd5b856fffffffffffffffffffffffffffffffff16925082506131ed565b61314560036000505485602001516fffffffffffffffffffffffffffffffff1661372490919063ffffffff16565b866fffffffffffffffffffffffffffffffff161015151561319b576040517f08c379a000000000000000000000000000000000000000000000000000000000815260040161319290615133565b60405180910390fd5b8360200151915081508360400151905080506131d68460200151876fffffffffffffffffffffffffffffffff16613f2190919063ffffffff16565b6fffffffffffffffffffffffffffffffff16925082505b84846040019073ffffffffffffffffffffffffffffffffffffffff16908173ffffffffffffffffffffffffffffffffffffffff16815260200150508584602001906fffffffffffffffffffffffffffffffff1690816fffffffffffffffffffffffffffffffff1681526020015050600061329c613285600960089054906101000a900467ffffffffffffffff16613c4063ffffffff16565b67ffffffffffffffff16613c76909063ffffffff16565b90508065ffffffffffff16856060015165ffffffffffff1610156132da5780856060019065ffffffffffff16908165ffffffffffff16815260200150505b84600a60005060008a67ffffffffffffffff1667ffffffffffffffff16815260200190815260200160002060005060008201518160000160006101000a8154816fffffffffffffffffffffffffffffffff02191690836fffffffffffffffffffffffffffffffff16021790555060208201518160000160106101000a8154816fffffffffffffffffffffffffffffffff02191690836fffffffffffffffffffffffffffffffff16021790555060408201518160010160006101000a81548173ffffffffffffffffffffffffffffffffffffffff021916908373ffffffffffffffffffffffffffffffffffffffff16021790555060608201518160010160146101000a81548165ffffffffffff021916908365ffffffffffff160217905550608082015181600101601a6101000a81548165ffffffffffff021916908365ffffffffffff16021790555090505060007f000000000000000000000000000000000000000000000000000000000000000073ffffffffffffffffffffffffffffffffffffffff166336fc02f46040518163ffffffff1660e01b815260040160206040518083038186803b15801561348f5760006000fd5b505afa1580156134a4573d600060003e3d6000fd5b505050506040513d601f19601f820116820180604052508101906134c89190614bdc565b90506000846fffffffffffffffffffffffffffffffff16111561350a57613509818885876fffffffffffffffffffffffffffffffff16613cd063ffffffff16565b5b8073ffffffffffffffffffffffffffffffffffffffff166379cc679088876040518363ffffffff1660e01b8152600401613545929190614e37565b600060405180830381600087803b1580156135605760006000fd5b505af1158015613575573d600060003e3d6000fd5b505050508673ffffffffffffffffffffffffffffffffffffffff168967ffffffffffffffff167fd428196c29fb7877242c66ff296d926b10a5051d369acf8fe5eb3ea21bb6ec988a6040516135ca91906154b2565b60405180910390a3505050505050505b5b6135e9613a1163ffffffff16565b5b5050565b6135fc61367a63ffffffff16565b806003600050819090905550670de0b6b3a76400006003600050541115156136245760006000fd5b7fbd478b21e3ce5dd7a0c7b139cab55a02b5b6c2f952b522fcea53df127ac14be981604051613653919061553c565b60405180910390a15b5b50565b600960089054906101000a900467ffffffffffffffff1681565b6136d77f000000000000000000000000000000000000000000000000000000000000000073ffffffffffffffffffffffffffffffffffffffff163373ffffffffffffffffffffffffffffffffffffffff1614613f3c63ffffffff16565b5b565b6001600060006101000a81548160ff0219169083151502179055507f7acc84e34091ae817647a4c49116f5cc07f319078ba80f8f5fde37ea7e25cbd660405160405180910390a15b565b600061373f8383670de0b6b3a7640000613f8263ffffffff16565b905080505b92915050565b60008183613758919061568b565b905061375f565b92915050565b60008183613773919061559b565b905061377a565b92915050565b60006000600b60005060008467ffffffffffffffff1667ffffffffffffffff16815260200190815260200160002060005060000160009054906101000a90046fffffffffffffffffffffffffffffffff166fffffffffffffffffffffffffffffffff161190506137eb565b919050565b600060006138026140a663ffffffff16565b90508067ffffffffffffffff168360010160149054906101000a900465ffffffffffff1665ffffffffffff16108061386157508067ffffffffffffffff1683600101601a9054906101000a900465ffffffffffff1665ffffffffffff16105b91505061386a56505b919050565b60006000600a60005060008467ffffffffffffffff1667ffffffffffffffff16815260200190815260200160002060005060000160009054906101000a90046fffffffffffffffffffffffffffffffff166fffffffffffffffffffffffffffffffff161190506138da565b919050565b7f000000000000000000000000000000000000000000000000000000000000000073ffffffffffffffffffffffffffffffffffffffff1663e97dcb626040518163ffffffff1660e01b8152600401600060405180830381600087803b1580156139485760006000fd5b505af115801561395d573d600060003e3d6000fd5b505050506002600260005054141515156139ac576040517f08c379a00000000000000000000000000000000000000000000000000000000081526004016139a390615255565b60405180910390fd5b600260026000508190909055505b565b600060009054906101000a900460ff16151515613a0e576040517f08c379a0000000000000000000000000000000000000000000000000000000008152600401613a0590615312565b60405180910390fd5b5b565b600160026000508190909055507f000000000000000000000000000000000000000000000000000000000000000073ffffffffffffffffffffffffffffffffffffffff1663e9fad8ee6040518163ffffffff1660e01b8152600401600060405180830381600087803b158015613a875760006000fd5b505af1158015613a9c573d600060003e3d6000fd5b505050505b565b6000613bf37f000000000000000000000000000000000000000000000000000000000000000073ffffffffffffffffffffffffffffffffffffffff1663d3419bf36040518163ffffffff1660e01b815260040160206040518083038186803b158015613b0f5760006000fd5b505afa158015613b24573d600060003e3d6000fd5b505050506040513d601f19601f82011682018060405250810190613b489190614bb5565b73ffffffffffffffffffffffffffffffffffffffff16638d02a08a600c60189054906101000a900463ffffffff166040518263ffffffff1660e01b8152600401613b929190615567565b60206040518083038186803b158015613bab5760006000fd5b505afa158015613bc0573d600060003e3d6000fd5b505050506040513d601f19601f82011682018060405250810190613be49190614c1f565b83613c1a90919063ffffffff16565b9050613bfa565b919050565b60008183613c0d919061560c565b9050613c14565b92915050565b6000613c3583670de0b6b3a764000084613f8263ffffffff16565b905080505b92915050565b6000613c6c82613c546140a663ffffffff16565b67ffffffffffffffff166140c190919063ffffffff16565b905080505b919050565b6000660100000000000082101515613cc3576040517f08c379a0000000000000000000000000000000000000000000000000000000008152600401613cba90615172565b60405180910390fd5b819050613ccb565b919050565b613d59846323b872dd60e01b858585604051602401613cf193929190614dbc565b604051602081830303815290604052907bffffffffffffffffffffffffffffffffffffffffffffffffffffffff19166020820180517bffffffffffffffffffffffffffffffffffffffffffffffffffffffff83818316178352505050506140dc63ffffffff16565b5b50505050565b613d6e6139bc63ffffffff16565b7f000000000000000000000000000000000000000000000000000000000000000073ffffffffffffffffffffffffffffffffffffffff1663bf86d6906040518163ffffffff1660e01b815260040160206040518083038186803b158015613dd55760006000fd5b505afa158015613dea573d600060003e3d6000fd5b505050506040513d601f19601f82011682018060405250810190613e0e9190614af3565b151515613e50576040517f08c379a0000000000000000000000000000000000000000000000000000000008152600401613e4790614ff8565b60405180910390fd5b5b565b600081613e6557600660005054613e6c565b6005600050545b9050613e7e83826141a963ffffffff16565b925082508115613eb057613ea083600d6000505461376590919063ffffffff16565b600d600050819090905550613ed4565b613ec883600e6000505461376590919063ffffffff16565b600e6000508190909055505b60005b613eea828561423b90919063ffffffff16565b90508050613efe818461425963ffffffff16565b8084613f0a919061568b565b935083505b600084111515613ed7575b50505b5050565b60008183613f2f9190615651565b9050613f36565b92915050565b801515613f7e576040517f08c379a0000000000000000000000000000000000000000000000000000000008152600401613f7590615216565b60405180910390fd5b5b50565b6000600060006000198587098587029250828110838203039150506000811415613fc557600084111515613fb65760006000fd5b8382049250829250505061409f565b8084111515613fd45760006000fd5b60008486880990508281118203915080830392506000856001877fffffffffffffffffffffffffffffffffffffffffffffffffffffffffffffffff03011690508050808604955080840493506001818260000304019050808302841793508350600060028760030218905080870260020381029050805080870260020381029050805080870260020381029050805080870260020381029050805080870260020381029050805080870260020381029050805080850295508550508494505050505061409f56505050505b9392505050565b60006140b9426147b3909063ffffffff16565b905080505b90565b600081836140cf91906155bb565b90506140d6565b92915050565b6000614141826040518060400160405280602081526020017f5361666545524332303a206c6f772d6c6576656c2063616c6c206661696c65648152602001508573ffffffffffffffffffffffffffffffffffffffff1661480f9092919063ffffffff16565b90506000815111156141a357808060200190518101906141619190614af3565b15156141a2576040517f08c379a0000000000000000000000000000000000000000000000000000000008152600401614199906153cf565b60405180910390fd5b5b505b5050565b600060006141e0600960009054906101000a900467ffffffffffffffff1667ffffffffffffffff1684613bff90919063ffffffff16565b9050600083856141f0919061574b565b9050600060046000505482106142065785614213565b8186614212919061568b565b5b9050614228818461423b90919063ffffffff16565b9350505050614235565050505b92915050565b600081831061424a578161424c565b825b9050614253565b92915050565b6000614280600960189054906101000a900467ffffffffffffffff16613c4063ffffffff16565b90508067ffffffffffffffff16600c60109054906101000a900467ffffffffffffffff1667ffffffffffffffff1610156142de5780600c60106101000a81548167ffffffffffffffff021916908367ffffffffffffffff1602179055505b60006040518060a001604052806142fc86614832909063ffffffff16565b6fffffffffffffffffffffffffffffffff16815260200160006fffffffffffffffffffffffffffffffff168152602001600073ffffffffffffffffffffffffffffffffffffffff168152602001614388614371600960109054906101000a900467ffffffffffffffff16613c4063ffffffff16565b67ffffffffffffffff16613c76909063ffffffff16565b65ffffffffffff1681526020016143b08467ffffffffffffffff16613c76909063ffffffff16565b65ffffffffffff16815260200150905082156145bb5780600a6000506000600c60009054906101000a900467ffffffffffffffff1667ffffffffffffffff1667ffffffffffffffff16815260200190815260200160002060005060008201518160000160006101000a8154816fffffffffffffffffffffffffffffffff02191690836fffffffffffffffffffffffffffffffff16021790555060208201518160000160106101000a8154816fffffffffffffffffffffffffffffffff02191690836fffffffffffffffffffffffffffffffff16021790555060408201518160010160006101000a81548173ffffffffffffffffffffffffffffffffffffffff021916908373ffffffffffffffffffffffffffffffffffffffff16021790555060608201518160010160146101000a81548165ffffffffffff021916908365ffffffffffff160217905550608082015181600101601a6101000a81548165ffffffffffff021916908365ffffffffffff16021790555090505083600c600081819054906101000a900467ffffffffffffffff168092919061454f9061571e565b91906101000a81548167ffffffffffffffff021916908367ffffffffffffffff16021790555067ffffffffffffffff167fb706108f90fb9e0fadc5f3feaa02b4c23b9d569ad7b46408c64eb4f224eba7cd846040516145ae919061557f565b60405180910390a36147ac565b80600b6000506000600c60089054906101000a900467ffffffffffffffff1667ffffffffffffffff1667ffffffffffffffff16815260200190815260200160002060005060008201518160000160006101000a8154816fffffffffffffffffffffffffffffffff02191690836fffffffffffffffffffffffffffffffff16021790555060208201518160000160106101000a8154816fffffffffffffffffffffffffffffffff02191690836fffffffffffffffffffffffffffffffff16021790555060408201518160010160006101000a81548173ffffffffffffffffffffffffffffffffffffffff021916908373ffffffffffffffffffffffffffffffffffffffff16021790555060608201518160010160146101000a81548165ffffffffffff021916908365ffffffffffff160217905550608082015181600101601a6101000a81548165ffffffffffff021916908365ffffffffffff16021790555090505083600c600881819054906101000a900467ffffffffffffffff16809291906147449061571e565b91906101000a81548167ffffffffffffffff021916908367ffffffffffffffff16021790555067ffffffffffffffff167f4e673c0fa7786d8c4c1cba0d1678d726ef2cb772cc6abbe3cea73c1a6d9a681e846040516147a3919061557f565b60405180910390a35b50505b5050565b60006801000000000000000082101515614802576040517f08c379a00000000000000000000000000000000000000000000000000000000081526004016147f990615473565b60405180910390fd5b81905061480a565b919050565b6060614824848460008561489663ffffffff16565b905061482b565b9392505050565b600070010000000000000000000000000000000082101515614889576040517f08c379a0000000000000000000000000000000000000000000000000000000008152600401614880906152d3565b60405180910390fd5b819050614891565b919050565b60608247101515156148dd576040517f08c379a00000000000000000000000000000000000000000000000000000000081526004016148d4906151b1565b60405180910390fd5b6148ec856149c263ffffffff16565b151561492d576040517f08c379a000000000000000000000000000000000000000000000000000000000815260040161492490615351565b60405180910390fd5b600060008673ffffffffffffffffffffffffffffffffffffffff1685876040516149579190614d9d565b60006040518083038185875af1925050503d8060008114614994576040519150601f19603f3d011682016040523d82523d6000602084013e614999565b606091505b50915091506149af8282866149dc63ffffffff16565b925050506149ba5650505b949350505050565b60006000823b9050600081119150506149d756505b919050565b606083156149f057829050614a4756614a46565b600083511115614a085782518084602001fd50614a45565b816040517f08c379a0000000000000000000000000000000000000000000000000000000008152600401614a3c9190614fa4565b60405180910390fd5b5b5b9392505050565b6040518060a0016040528060006fffffffffffffffffffffffffffffffff16815260200160006fffffffffffffffffffffffffffffffff168152602001600073ffffffffffffffffffffffffffffffffffffffff168152602001600065ffffffffffff168152602001600065ffffffffffff168152602001509056615809565b60008135905067ffffffffffffffff811681141515614aed5760006000fd5b5b919050565b600060208284031215614b04578081fd5b8151614b0f816157cb565b809150505b92915050565b600060208284031215614b2b578081fd5b81357fffffffff00000000000000000000000000000000000000000000000000000000811681141515614b5c578182fd5b809150505b92915050565b600060208284031215614b78578081fd5b8151614b83816157e0565b809150505b92915050565b600060208284031215614b9f578081fd5b8151614baa816157e0565b809150505b92915050565b600060208284031215614bc6578081fd5b8151614bd1816157e0565b809150505b92915050565b600060208284031215614bed578081fd5b8151614bf8816157e0565b809150505b92915050565b600060208284031215614c14578081fd5b813590505b92915050565b600060208284031215614c30578081fd5b815190505b92915050565b600060208284031215614c4c578081fd5b813563ffffffff811681141515614c61578182fd5b809150505b92915050565b600060208284031215614c7d578081fd5b614c8682614ace565b90505b92915050565b6000600060408385031215614ca2578081fd5b614cab83614ace565b91506020830135614cbb816157cb565b809150505b9250929050565b6000600060408385031215614cda578182fd5b614ce383614ace565b915060208301356fffffffffffffffffffffffffffffffff811681141515614d09578182fd5b809150505b9250929050565b6000815180845260208085019450808401835b83811015614d4c57815115158752828701965082820191505b600181019050614d28565b505050508290505b92915050565b6000815180845260208085019450808401835b83811015614d8f5781518752828701965082820191505b600181019050614d6d565b505050508290505b92915050565b60008251614daf8184602087016156aa565b8083019150505b92915050565b600060608201905073ffffffffffffffffffffffffffffffffffffffff80861683528085166020840152508260408301525b949350505050565b600060408201905073ffffffffffffffffffffffffffffffffffffffff841682526fffffffffffffffffffffffffffffffff831660208301525b9392505050565b600060408201905073ffffffffffffffffffffffffffffffffffffffff841682528260208301525b9392505050565b600060608083018184528087518083526080925082860191506020808a01865b83811015614f095781516fffffffffffffffffffffffffffffffff8082511687528085830151168588015250604073ffffffffffffffffffffffffffffffffffffffff818301511681880152508781015165ffffffffffff8082168a8901528089840151168989015250505060a08501945082820191505b600181019050614e86565b5050868303818801525050614f1e8188614d5a565b925050508281036040840152614f348185614d15565b9150505b949350505050565b600060208201905082151582525b92915050565b600060208201905073ffffffffffffffffffffffffffffffffffffffff831682525b92915050565b600060208201905073ffffffffffffffffffffffffffffffffffffffff831682525b92915050565b6020815260008251806020840152614fc38160408501602087016156aa565b60407fffffffffffffffffffffffffffffffffffffffffffffffffffffffffffffffe0601f8301168401019150505b92915050565b60208152601160208201527f50726f746f636f6c2073687574646f776e000000000000000000000000000000604082015260006060820190505b919050565b60208152600b60208201527f42696420746f6f206c6f77000000000000000000000000000000000000000000604082015260006060820190505b919050565b60208152601460208201527f41756374696f6e206e6f7420636f6d706c657465000000000000000000000000604082015260006060820190505b919050565b60208152601160208201527f446964206e6f7420756e64657220626964000000000000000000000000000000604082015260006060820190505b919050565b60208152601360208201527f557365206c617465737420636f6e747261637400000000000000000000000000604082015260006060820190505b919050565b60208152600f60208201527f446964206e6f74206f7574206269640000000000000000000000000000000000604082015260006060820190505b919050565b60208152601160208201527f6d6f7265207468616e2034382062697473000000000000000000000000000000604082015260006060820190505b919050565b60208152602660208201527f416464726573733a20696e73756666696369656e742062616c616e636520666f60408201527f722063616c6c0000000000000000000000000000000000000000000000000000606082015260006080820190505b919050565b60208152600e60208201527f4e6f7420417574686f72697a6564000000000000000000000000000000000000604082015260006060820190505b919050565b60208152600d60208201527f4c50205265656e7472616e637900000000000000000000000000000000000000604082015260006060820190505b919050565b60208152600c60208201527f42696420746f6f20686967680000000000000000000000000000000000000000604082015260006060820190505b919050565b60208152601260208201527f6d6f7265207468616e2031323820626974730000000000000000000000000000604082015260006060820190505b919050565b60208152601360208201527f436f6e74726163742069732073746f7070656400000000000000000000000000604082015260006060820190505b919050565b60208152601d60208201527f416464726573733a2063616c6c20746f206e6f6e2d636f6e7472616374000000604082015260006060820190505b919050565b60208152601460208201527f4e6f2061756374696f6e7320746f207374617274000000000000000000000000604082015260006060820190505b919050565b60208152602a60208201527f5361666545524332303a204552433230206f7065726174696f6e20646964206e60408201527f6f74207375636365656400000000000000000000000000000000000000000000606082015260006080820190505b919050565b60208152601060208201527f41756374696f6e206e6f74206c69766500000000000000000000000000000000604082015260006060820190505b919050565b60208152601160208201527f6d6f7265207468616e2036342062697473000000000000000000000000000000604082015260006060820190505b919050565b60006020820190506fffffffffffffffffffffffffffffffff831682525b92915050565b600060a0820190506fffffffffffffffffffffffffffffffff808816835280871660208401525073ffffffffffffffffffffffffffffffffffffffff8516604083015265ffffffffffff80851660608401528084166080840152505b9695505050505050565b60006020820190508282525b92915050565b60006040820190508382528260208301525b9392505050565b600060208201905063ffffffff831682525b92915050565b600060208201905067ffffffffffffffff831682525b92915050565b600082198211156155af576155ae615769565b5b82820190505b92915050565b600067ffffffffffffffff8083168185168083038211156155df576155de615769565b5b80820193505050505b92915050565b6000821515615600576155ff61579a565b5b82820490505b92915050565b6000817fffffffffffffffffffffffffffffffffffffffffffffffffffffffffffffffff048311821515161561564557615644615769565b5b82820290505b92915050565b60006fffffffffffffffffffffffffffffffff80831681851691508181101561567d5761567c615769565b5b818103925050505b92915050565b60008282101561569e5761569d615769565b5b82820390505b92915050565b60005b838110156156c95780820151818401525b6020810190506156ad565b838111156156d8576000848401525b505050505b565b60007fffffffffffffffffffffffffffffffffffffffffffffffffffffffffffffffff82141561571257615711615769565b5b6001820190505b919050565b600067ffffffffffffffff8083168181141561573d5761573c615769565b5b60018101925050505b919050565b600082151561575d5761575c61579a565b5b82820690505b92915050565b7f4e487b7100000000000000000000000000000000000000000000000000000000600052601160045260246000fd5b565b7f4e487b7100000000000000000000000000000000000000000000000000000000600052601260045260246000fd5b565b801515811415156157dc5760006000fd5b505b565b73ffffffffffffffffffffffffffffffffffffffff8116811415156158055760006000fd5b505b565bfea2646970667358221220316868c968b6dfa176fb6b17f07b1bb67ed46b64fb58cd966c51613a3fec785964736f6c63430008040033",
  "linkReferences": {},
  "deployedLinkReferences": {}
}