{
  "_format": "hh-sol-artifact-1",
  "contractName": "Auctions",
  "sourceName": "contracts/core/logic/Auctions.sol",
  "abi": [
    {
      "inputs": [
        {
          "components": [
            {
              "internalType": "contract IGovernor",
              "name": "Governor",
              "type": "address"
            },
            {
              "internalType": "contract IProtocolLock",
              "name": "ProtocolLock",
              "type": "address"
            },
            {
              "internalType": "contract IHue",
              "name": "Hue",
              "type": "address"
            }
          ],
          "internalType": "struct IAuctions.ConstructorParams",
          "name": "params",
          "type": "tuple"
        }
      ],
      "stateMutability": "nonpayable",
      "type": "constructor"
    },
    {
      "anonymous": false,
      "inputs": [
        {
          "indexed": true,
          "internalType": "uint64",
          "name": "auctionID",
          "type": "uint64"
        },
        {
          "indexed": true,
          "internalType": "address",
          "name": "bidder",
          "type": "address"
        },
        {
          "indexed": false,
          "internalType": "uint256",
          "name": "bid",
          "type": "uint256"
        }
      ],
      "name": "DeficitAuctionBid",
      "type": "event"
    },
    {
      "anonymous": false,
      "inputs": [
        {
          "indexed": true,
          "internalType": "uint64",
          "name": "auctionID",
          "type": "uint64"
        },
        {
          "indexed": true,
          "internalType": "address",
          "name": "winner",
          "type": "address"
        }
      ],
      "name": "DeficitAuctionSettled",
      "type": "event"
    },
    {
      "anonymous": false,
      "inputs": [
        {
          "indexed": true,
          "internalType": "uint64",
          "name": "auctionID",
          "type": "uint64"
        },
        {
          "indexed": true,
          "internalType": "uint256",
          "name": "count",
          "type": "uint256"
        },
        {
          "indexed": false,
          "internalType": "uint64",
          "name": "maxEndTime",
          "type": "uint64"
        }
      ],
      "name": "DeficitAuctionStarted",
      "type": "event"
    },
    {
      "anonymous": false,
      "inputs": [
        {
          "indexed": false,
          "internalType": "uint64",
          "name": "extension",
          "type": "uint64"
        }
      ],
      "name": "ExtensionPerBidUpdated",
      "type": "event"
    },
    {
      "anonymous": false,
      "inputs": [
        {
          "indexed": false,
          "internalType": "uint64",
          "name": "duration",
          "type": "uint64"
        }
      ],
      "name": "MaxAuctionDurationUpdated",
      "type": "event"
    },
    {
      "anonymous": false,
      "inputs": [
        {
          "indexed": false,
          "internalType": "uint64",
          "name": "size",
          "type": "uint64"
        }
      ],
      "name": "MaxBatchSizeUpdated",
      "type": "event"
    },
    {
      "anonymous": false,
      "inputs": [
        {
          "indexed": false,
          "internalType": "uint256",
          "name": "size",
          "type": "uint256"
        }
      ],
      "name": "MaxSurplusLotSizeUpdated",
      "type": "event"
    },
    {
      "anonymous": false,
      "inputs": [
        {
          "indexed": false,
          "internalType": "uint64",
          "name": "duration",
          "type": "uint64"
        }
      ],
      "name": "MinAuctionDurationUpdated",
      "type": "event"
    },
    {
      "anonymous": false,
      "inputs": [
        {
          "indexed": false,
          "internalType": "uint256",
          "name": "delta",
          "type": "uint256"
        }
      ],
      "name": "MinBidDeltaUpdated",
      "type": "event"
    },
    {
      "anonymous": false,
      "inputs": [
        {
          "indexed": false,
          "internalType": "uint256",
          "name": "size",
          "type": "uint256"
        }
      ],
      "name": "MinLotSizeUpdated",
      "type": "event"
    },
    {
      "anonymous": false,
      "inputs": [
        {
          "indexed": false,
          "internalType": "uint256",
          "name": "bound",
          "type": "uint256"
        }
      ],
      "name": "ReservesBufferLowerBoundUpdated",
      "type": "event"
    },
    {
      "anonymous": false,
      "inputs": [
        {
          "indexed": false,
          "internalType": "uint256",
          "name": "bound",
          "type": "uint256"
        }
      ],
      "name": "ReservesBufferUpperBoundUpdated",
      "type": "event"
    },
    {
      "anonymous": false,
      "inputs": [],
      "name": "Stopped",
      "type": "event"
    },
    {
      "anonymous": false,
      "inputs": [
        {
          "indexed": true,
          "internalType": "uint64",
          "name": "auctionID",
          "type": "uint64"
        },
        {
          "indexed": true,
          "internalType": "address",
          "name": "bidder",
          "type": "address"
        },
        {
          "indexed": false,
          "internalType": "uint256",
          "name": "bid",
          "type": "uint256"
        }
      ],
      "name": "SurplusAuctionBid",
      "type": "event"
    },
    {
      "anonymous": false,
      "inputs": [
        {
          "indexed": true,
          "internalType": "uint64",
          "name": "auctionID",
          "type": "uint64"
        },
        {
          "indexed": true,
          "internalType": "address",
          "name": "winner",
          "type": "address"
        }
      ],
      "name": "SurplusAuctionSettled",
      "type": "event"
    },
    {
      "anonymous": false,
      "inputs": [
        {
          "indexed": true,
          "internalType": "uint64",
          "name": "auctionID",
          "type": "uint64"
        },
        {
          "indexed": true,
          "internalType": "uint256",
          "name": "count",
          "type": "uint256"
        },
        {
          "indexed": false,
          "internalType": "uint64",
          "name": "maxEndTime",
          "type": "uint64"
        }
      ],
      "name": "SurplusAuctionStarted",
      "type": "event"
    },
    {
      "anonymous": false,
      "inputs": [
        {
          "indexed": false,
          "internalType": "uint32",
          "name": "duration",
          "type": "uint32"
        }
      ],
      "name": "TwapDurationUpdated",
      "type": "event"
    },
    {
      "anonymous": false,
      "inputs": [
        {
          "indexed": false,
          "internalType": "uint256",
          "name": "size",
          "type": "uint256"
        }
      ],
      "name": "maxDeficitLotSizeUpdated",
      "type": "event"
    },
    {
      "inputs": [
        {
          "internalType": "uint64",
          "name": "auctionID",
          "type": "uint64"
        },
        {
          "internalType": "uint128",
          "name": "bid",
          "type": "uint128"
        }
      ],
      "name": "bidDeficitAuction",
      "outputs": [],
      "stateMutability": "nonpayable",
      "type": "function"
    },
    {
      "inputs": [
        {
          "internalType": "uint64",
          "name": "auctionID",
          "type": "uint64"
        },
        {
          "internalType": "uint128",
          "name": "bid",
          "type": "uint128"
        }
      ],
      "name": "bidSurplusAuction",
      "outputs": [],
      "stateMutability": "nonpayable",
      "type": "function"
    },
    {
      "inputs": [],
      "name": "checkReservesAndStartAuctions",
      "outputs": [],
      "stateMutability": "nonpayable",
      "type": "function"
    },
    {
      "inputs": [
        {
          "internalType": "uint64",
          "name": "",
          "type": "uint64"
        }
      ],
      "name": "deficitAuction",
      "outputs": [
        {
          "internalType": "uint128",
          "name": "count",
          "type": "uint128"
        },
        {
          "internalType": "uint128",
          "name": "bid",
          "type": "uint128"
        },
        {
          "internalType": "address",
          "name": "bidder",
          "type": "address"
        },
        {
          "internalType": "uint48",
          "name": "endTime",
          "type": "uint48"
        },
        {
          "internalType": "uint48",
          "name": "maxEndTime",
          "type": "uint48"
        }
      ],
      "stateMutability": "view",
      "type": "function"
    },
    {
      "inputs": [
        {
          "internalType": "uint64",
          "name": "auctionID",
          "type": "uint64"
        }
      ],
      "name": "deficitAuctionComplete",
      "outputs": [
        {
          "internalType": "bool",
          "name": "",
          "type": "bool"
        }
      ],
      "stateMutability": "view",
      "type": "function"
    },
    {
      "inputs": [],
      "name": "deficitAuctionCount",
      "outputs": [
        {
          "internalType": "uint64",
          "name": "",
          "type": "uint64"
        }
      ],
      "stateMutability": "view",
      "type": "function"
    },
    {
      "inputs": [
        {
          "internalType": "uint64",
          "name": "auctionID",
          "type": "uint64"
        }
      ],
      "name": "deficitAuctionLive",
      "outputs": [
        {
          "internalType": "bool",
          "name": "",
          "type": "bool"
        }
      ],
      "stateMutability": "view",
      "type": "function"
    },
    {
      "inputs": [],
      "name": "extensionPerBid",
      "outputs": [
        {
          "internalType": "uint64",
          "name": "",
          "type": "uint64"
        }
      ],
      "stateMutability": "view",
      "type": "function"
    },
    {
      "inputs": [
        {
          "internalType": "uint64",
          "name": "start",
          "type": "uint64"
        },
        {
          "internalType": "bool",
          "name": "surplus",
          "type": "bool"
        }
      ],
      "name": "getAllAuctions",
      "outputs": [
        {
          "components": [
            {
              "internalType": "uint128",
              "name": "count",
              "type": "uint128"
            },
            {
              "internalType": "uint128",
              "name": "bid",
              "type": "uint128"
            },
            {
              "internalType": "address",
              "name": "bidder",
              "type": "address"
            },
            {
              "internalType": "uint48",
              "name": "endTime",
              "type": "uint48"
            },
            {
              "internalType": "uint48",
              "name": "maxEndTime",
              "type": "uint48"
            }
          ],
          "internalType": "struct IAuctions.Auction[]",
          "name": "_auctions",
          "type": "tuple[]"
        },
        {
          "internalType": "uint256[]",
          "name": "_auctionIDs",
          "type": "uint256[]"
        },
        {
          "internalType": "bool[]",
          "name": "_isComplete",
          "type": "bool[]"
        }
      ],
      "stateMutability": "view",
      "type": "function"
    },
    {
      "inputs": [],
      "name": "governor",
      "outputs": [
        {
          "internalType": "contract IGovernor",
          "name": "",
          "type": "address"
        }
      ],
      "stateMutability": "view",
      "type": "function"
    },
    {
      "inputs": [],
      "name": "hue",
      "outputs": [
        {
          "internalType": "contract IHue",
          "name": "",
          "type": "address"
        }
      ],
      "stateMutability": "view",
      "type": "function"
    },
    {
      "inputs": [],
      "name": "hueToBeBought",
      "outputs": [
        {
          "internalType": "uint256",
          "name": "",
          "type": "uint256"
        }
      ],
      "stateMutability": "view",
      "type": "function"
    },
    {
      "inputs": [],
      "name": "hueToBeSold",
      "outputs": [
        {
          "internalType": "uint256",
          "name": "",
          "type": "uint256"
        }
      ],
      "stateMutability": "view",
      "type": "function"
    },
    {
      "inputs": [],
      "name": "latestAuctionCompletionTime",
      "outputs": [
        {
          "internalType": "uint64",
          "name": "",
          "type": "uint64"
        }
      ],
      "stateMutability": "view",
      "type": "function"
    },
    {
      "inputs": [],
      "name": "maxAuctionDuration",
      "outputs": [
        {
          "internalType": "uint64",
          "name": "",
          "type": "uint64"
        }
      ],
      "stateMutability": "view",
      "type": "function"
    },
    {
      "inputs": [],
      "name": "maxBatchSize",
      "outputs": [
        {
          "internalType": "uint64",
          "name": "",
          "type": "uint64"
        }
      ],
      "stateMutability": "view",
      "type": "function"
    },
    {
      "inputs": [],
      "name": "maxDeficitLotSize",
      "outputs": [
        {
          "internalType": "uint256",
          "name": "",
          "type": "uint256"
        }
      ],
      "stateMutability": "view",
      "type": "function"
    },
    {
      "inputs": [],
      "name": "maxSurplusLotSize",
      "outputs": [
        {
          "internalType": "uint256",
          "name": "",
          "type": "uint256"
        }
      ],
      "stateMutability": "view",
      "type": "function"
    },
    {
      "inputs": [],
      "name": "minAuctionDuration",
      "outputs": [
        {
          "internalType": "uint64",
          "name": "",
          "type": "uint64"
        }
      ],
      "stateMutability": "view",
      "type": "function"
    },
    {
      "inputs": [],
      "name": "minBidDelta",
      "outputs": [
        {
          "internalType": "uint256",
          "name": "",
          "type": "uint256"
        }
      ],
      "stateMutability": "view",
      "type": "function"
    },
    {
      "inputs": [],
      "name": "minLotSize",
      "outputs": [
        {
          "internalType": "uint256",
          "name": "",
          "type": "uint256"
        }
      ],
      "stateMutability": "view",
      "type": "function"
    },
    {
      "inputs": [],
      "name": "reservesBufferLowerBound",
      "outputs": [
        {
          "internalType": "uint256",
          "name": "",
          "type": "uint256"
        }
      ],
      "stateMutability": "view",
      "type": "function"
    },
    {
      "inputs": [],
      "name": "reservesBufferUpperBound",
      "outputs": [
        {
          "internalType": "uint256",
          "name": "",
          "type": "uint256"
        }
      ],
      "stateMutability": "view",
      "type": "function"
    },
    {
      "inputs": [
        {
          "internalType": "uint64",
          "name": "extension",
          "type": "uint64"
        }
      ],
      "name": "setExtensionPerBid",
      "outputs": [],
      "stateMutability": "nonpayable",
      "type": "function"
    },
    {
      "inputs": [
        {
          "internalType": "uint64",
          "name": "duration",
          "type": "uint64"
        }
      ],
      "name": "setMaxAuctionDuration",
      "outputs": [],
      "stateMutability": "nonpayable",
      "type": "function"
    },
    {
      "inputs": [
        {
          "internalType": "uint64",
          "name": "size",
          "type": "uint64"
        }
      ],
      "name": "setMaxBatchSize",
      "outputs": [],
      "stateMutability": "nonpayable",
      "type": "function"
    },
    {
      "inputs": [
        {
          "internalType": "uint256",
          "name": "size",
          "type": "uint256"
        }
      ],
      "name": "setMaxDeficitLotSize",
      "outputs": [],
      "stateMutability": "nonpayable",
      "type": "function"
    },
    {
      "inputs": [
        {
          "internalType": "uint256",
          "name": "size",
          "type": "uint256"
        }
      ],
      "name": "setMaxSurplusLotSize",
      "outputs": [],
      "stateMutability": "nonpayable",
      "type": "function"
    },
    {
      "inputs": [
        {
          "internalType": "uint64",
          "name": "duration",
          "type": "uint64"
        }
      ],
      "name": "setMinAuctionDuration",
      "outputs": [],
      "stateMutability": "nonpayable",
      "type": "function"
    },
    {
      "inputs": [
        {
          "internalType": "uint256",
          "name": "delta",
          "type": "uint256"
        }
      ],
      "name": "setMinBidDelta",
      "outputs": [],
      "stateMutability": "nonpayable",
      "type": "function"
    },
    {
      "inputs": [
        {
          "internalType": "uint256",
          "name": "size",
          "type": "uint256"
        }
      ],
      "name": "setMinLotSize",
      "outputs": [],
      "stateMutability": "nonpayable",
      "type": "function"
    },
    {
      "inputs": [
        {
          "internalType": "uint256",
          "name": "bound",
          "type": "uint256"
        }
      ],
      "name": "setReservesBufferLowerBound",
      "outputs": [],
      "stateMutability": "nonpayable",
      "type": "function"
    },
    {
      "inputs": [
        {
          "internalType": "uint256",
          "name": "bound",
          "type": "uint256"
        }
      ],
      "name": "setReservesBufferUpperBound",
      "outputs": [],
      "stateMutability": "nonpayable",
      "type": "function"
    },
    {
      "inputs": [
        {
          "internalType": "uint32",
          "name": "duration",
          "type": "uint32"
        }
      ],
      "name": "setTwapDuration",
      "outputs": [],
      "stateMutability": "nonpayable",
      "type": "function"
    },
    {
      "inputs": [
        {
          "internalType": "uint64",
          "name": "auctionID",
          "type": "uint64"
        }
      ],
      "name": "settleDeficitAuction",
      "outputs": [],
      "stateMutability": "nonpayable",
      "type": "function"
    },
    {
      "inputs": [
        {
          "internalType": "uint64",
          "name": "auctionID",
          "type": "uint64"
        }
      ],
      "name": "settleSurplusAuction",
      "outputs": [],
      "stateMutability": "nonpayable",
      "type": "function"
    },
    {
      "inputs": [],
      "name": "shouldStartAuctions",
      "outputs": [
        {
          "internalType": "uint256",
          "name": "surplusAmount",
          "type": "uint256"
        },
        {
          "internalType": "uint256",
          "name": "deficitAmount",
          "type": "uint256"
        }
      ],
      "stateMutability": "view",
      "type": "function"
    },
    {
      "inputs": [],
      "name": "stop",
      "outputs": [],
      "stateMutability": "nonpayable",
      "type": "function"
    },
    {
      "inputs": [],
      "name": "stopped",
      "outputs": [
        {
          "internalType": "bool",
          "name": "",
          "type": "bool"
        }
      ],
      "stateMutability": "view",
      "type": "function"
    },
    {
      "inputs": [
        {
          "internalType": "uint64",
          "name": "",
          "type": "uint64"
        }
      ],
      "name": "surplusAuction",
      "outputs": [
        {
          "internalType": "uint128",
          "name": "count",
          "type": "uint128"
        },
        {
          "internalType": "uint128",
          "name": "bid",
          "type": "uint128"
        },
        {
          "internalType": "address",
          "name": "bidder",
          "type": "address"
        },
        {
          "internalType": "uint48",
          "name": "endTime",
          "type": "uint48"
        },
        {
          "internalType": "uint48",
          "name": "maxEndTime",
          "type": "uint48"
        }
      ],
      "stateMutability": "view",
      "type": "function"
    },
    {
      "inputs": [
        {
          "internalType": "uint64",
          "name": "auctionID",
          "type": "uint64"
        }
      ],
      "name": "surplusAuctionComplete",
      "outputs": [
        {
          "internalType": "bool",
          "name": "",
          "type": "bool"
        }
      ],
      "stateMutability": "view",
      "type": "function"
    },
    {
      "inputs": [],
      "name": "surplusAuctionCount",
      "outputs": [
        {
          "internalType": "uint64",
          "name": "",
          "type": "uint64"
        }
      ],
      "stateMutability": "view",
      "type": "function"
    },
    {
      "inputs": [
        {
          "internalType": "uint64",
          "name": "auctionID",
          "type": "uint64"
        }
      ],
      "name": "surplusAuctionLive",
      "outputs": [
        {
          "internalType": "bool",
          "name": "",
          "type": "bool"
        }
      ],
      "stateMutability": "view",
      "type": "function"
    },
    {
      "inputs": [],
      "name": "twapDuration",
      "outputs": [
        {
          "internalType": "uint32",
          "name": "",
          "type": "uint32"
        }
      ],
      "stateMutability": "view",
      "type": "function"
    },
    {
      "inputs": [
        {
          "internalType": "bytes4",
          "name": "",
          "type": "bytes4"
        }
      ],
      "name": "validUpdate",
      "outputs": [
        {
          "internalType": "bool",
          "name": "",
          "type": "bool"
        }
      ],
      "stateMutability": "view",
      "type": "function"
    }
  ],
  "bytecode": "0x60e060405260016002600050909055670e4b4b8af6a70000600360005090905568878678326eac900000600460005090905569043c33c1937564800000600560005090905569043c33c19375648000006006600050909055662386f26fc10000600760005090905566b1a2bc2ec5000060086000509090556005600960006101000a81548167ffffffffffffffff021916908367ffffffffffffffff160217905550610708600960086101000a81548167ffffffffffffffff021916908367ffffffffffffffff16021790555062015180600960106101000a81548167ffffffffffffffff021916908367ffffffffffffffff1602179055506202a300600960186101000a81548167ffffffffffffffff021916908367ffffffffffffffff160217905550610708600c60186101000a81548163ffffffff021916908363ffffffff160217905550348015620001555760006000fd5b5060405162005ebc38038062005ebc83398181016040528101906200017b919062000660565b5b806000015181602001515b815b8073ffffffffffffffffffffffffffffffffffffffff1660808173ffffffffffffffffffffffffffffffffffffffff16815260200150505b508073ffffffffffffffffffffffffffffffffffffffff1660a08173ffffffffffffffffffffffffffffffffffffffff16815260200150505b5050806040015173ffffffffffffffffffffffffffffffffffffffff1660c08173ffffffffffffffffffffffffffffffffffffffff1681526020015050600060405180610160016040528063ddf31e6760e01b7bffffffffffffffffffffffffffffffffffffffffffffffffffffffff19167bffffffffffffffffffffffffffffffffffffffffffffffffffffffff191681526020016334b1447560e01b7bffffffffffffffffffffffffffffffffffffffffffffffffffffffff19167bffffffffffffffffffffffffffffffffffffffffffffffffffffffff19168152602001638d56248a60e01b7bffffffffffffffffffffffffffffffffffffffffffffffffffffffff19167bffffffffffffffffffffffffffffffffffffffffffffffffffffffff19168152602001633a3a63df60e01b7bffffffffffffffffffffffffffffffffffffffffffffffffffffffff19167bffffffffffffffffffffffffffffffffffffffffffffffffffffffff1916815260200163887c67d960e01b7bffffffffffffffffffffffffffffffffffffffffffffffffffffffff19167bffffffffffffffffffffffffffffffffffffffffffffffffffffffff19168152602001634ae8470d60e01b7bffffffffffffffffffffffffffffffffffffffffffffffffffffffff19167bffffffffffffffffffffffffffffffffffffffffffffffffffffffff1916815260200163afea44ef60e01b7bffffffffffffffffffffffffffffffffffffffffffffffffffffffff19167bffffffffffffffffffffffffffffffffffffffffffffffffffffffff19168152602001630fb4e2b360e01b7bffffffffffffffffffffffffffffffffffffffffffffffffffffffff19167bffffffffffffffffffffffffffffffffffffffffffffffffffffffff191681526020016375d0ef5260e01b7bffffffffffffffffffffffffffffffffffffffffffffffffffffffff19167bffffffffffffffffffffffffffffffffffffffffffffffffffffffff191681526020016337ca44fc60e01b7bffffffffffffffffffffffffffffffffffffffffffffffffffffffff19167bffffffffffffffffffffffffffffffffffffffffffffffffffffffff1916815260200163c433c80a60e01b7bffffffffffffffffffffffffffffffffffffffffffffffffffffffff19167bffffffffffffffffffffffffffffffffffffffffffffffffffffffff191681526020015090506000600090505b8150600b81101562000634576001600160005060008484600b81101515620005b557620005b4620006f4565b5b60200201517bffffffffffffffffffffffffffffffffffffffffffffffffffffffff19167bffffffffffffffffffffffffffffffffffffffffffffffffffffffff1916815260200190815260200160002060006101000a81548160ff0219169083151502179055505b80806200062b906200070c565b91505062000588565b50505b506200073c566200073b565b6001600160a01b038116811415156200065c5760006000fd5b505b565b600060608284031215620006745760006000fd5b604051606081018181106001600160401b0382111715620006a557634e487b7160e01b600052604160045260246000fd5b80604052508251620006b78162000643565b808252506020830151620006cb8162000643565b806020830152506040830151620006e28162000643565b80604083015250809150505b92915050565b634e487b7160e01b600052603260045260246000fd5b565b60006000198214156200072f57634e487b7160e01b600052601160045260246000fd5b6001820190505b919050565b5b60805160a05160c0516156fc620007c060003960008181610aab01528181610da101528181612274015281816125680152612ae401526000818161373b015261387a0152600081816108c7015281816109c101528181610b3f0152818161137501528181613294015281816134d9015281816139040152613baa01526156fc6000f3fe60806040523480156100115760006000fd5b50600436106103045760003560e01c806354f634fb1161019d5780638d56248a116100ef578063c433c80a11610098578063d7abba0c11610072578063d7abba0c1461084f578063ddf31e671461086b578063faf95d2d1461088757610304565b8063c433c80a146107e7578063caa98b6014610803578063d005d2eb1461083357610304565b8063a958c033116100c9578063a958c033146107a3578063afea44ef146107ad578063c2b6722a146107c957610304565b80638d56248a1461074d5780639052537e1461076957806399e1998f1461078757610304565b806375d0ef52116101515780637eb12af71161012b5780637eb12af7146106f557806387d2fecd14610713578063887c67d91461073157610304565b806375d0ef521461068957806375f12b21146106a55780637d695351146106c357610304565b806360aad9bf1161018257806360aad9bf14610619578063616cb0cf14610637578063651cf64d1461065557610304565b806354f634fb146105cb578063597e899f146105e957610304565b80633427c4ef116102565780634079b8fc1161020a5780634ae8470d116101e45780634ae8470d14610573578063541348761461058f57806354cccf08146105ad57610304565b80634079b8fc1461050957806348c9581e146105395780634a2304b11461055757610304565b806337ca44fc1161023b57806337ca44fc146104a15780633a3a63df146104bd57806340601add146104d957610304565b80633427c4ef1461045157806334b144751461048557610304565b80631b875768116102b857806327399e211161029257806327399e21146103f75780632913daa014610415578063323741741461043357610304565b80631b8757681461039c57806325df9538146103ba57806326d89545146103d957610304565b80630fb4e2b3116102e95780630fb4e2b3146103325780630fe869071461034e578063113cf1ab1461036c57610304565b806307da68f51461030a5780630c340a241461031457610304565b60006000fd5b6103126108a5565b005b61031c6108c5565b6040516103299190614907565b60405180910390f35b61034c60048036038101906103479190614954565b6108e9565b005b61035661095c565b6040516103639190614979565b60405180910390f35b6103866004803603810190610381919061498b565b610965565b60405161039391906149dc565b60405180910390f35b6103a461098a565b6040516103b191906149f0565b60405180910390f35b6103c26109a4565b6040516103d0929190614a0c565b60405180910390f35b6103e1610d66565b6040516103ee9190614a25565b60405180910390f35b6103ff610d7c565b60405161040c9190614979565b60405180910390f35b61041d610d85565b60405161042a91906149f0565b60405180910390f35b61043b610d9f565b6040516104489190614a3d565b60405180910390f35b61046b60048036038101906104669190614954565b610dc3565b60405161047c959493929190614a65565b60405180910390f35b61049f600480360381019061049a9190614acb565b610e78565b005b6104bb60048036038101906104b69190614954565b610f15565b005b6104d760048036038101906104d29190614acb565b610fd7565b005b6104f360048036038101906104ee9190614954565b611046565b60405161050091906149dc565b60405180910390f35b610523600480360381019061051e9190614954565b6110ab565b60405161053091906149dc565b60405180910390f35b610541611110565b60405161054e91906149f0565b60405180910390f35b610571600480360381019061056c9190614954565b61112a565b005b61058d60048036038101906105889190614acb565b61157d565b005b610597611608565b6040516105a491906149f0565b60405180910390f35b6105b5611622565b6040516105c29190614979565b60405180910390f35b6105d361162b565b6040516105e09190614979565b60405180910390f35b61060360048036038101906105fe9190614954565b611634565b60405161061091906149dc565b60405180910390f35b610621611698565b60405161062e9190614979565b60405180910390f35b61063f6116a1565b60405161064c9190614979565b60405180910390f35b61066f600480360381019061066a9190614954565b6116aa565b604051610680959493929190614a65565b60405180910390f35b6106a3600480360381019061069e9190614954565b61175f565b005b6106ad611821565b6040516106ba91906149dc565b60405180910390f35b6106dd60048036038101906106d89190614afe565b611834565b6040516106ec93929190614bc2565b60405180910390f35b6106fd611e75565b60405161070a91906149f0565b60405180910390f35b61071b611e8f565b6040516107289190614979565b60405180910390f35b61074b60048036038101906107469190614acb565b611e98565b005b61076760048036038101906107629190614acb565b611f07565b005b610771611f76565b60405161077e9190614979565b60405180910390f35b6107a1600480360381019061079c9190614c9d565b611f7f565b005b6107ab61261d565b005b6107c760048036038101906107c29190614954565b6126de565b005b6107d1612781565b6040516107de91906149f0565b60405180910390f35b61080160048036038101906107fc9190614cef565b61279b565b005b61081d60048036038101906108189190614954565b61281e565b60405161082a91906149dc565b60405180910390f35b61084d60048036038101906108489190614954565b612882565b005b61086960048036038101906108649190614c9d565b612cae565b005b61088560048036038101906108809190614acb565b613448565b005b61088f6134ba565b60405161089c91906149f0565b60405180910390f35b6108b36134d463ffffffff16565b6108c161353463ffffffff16565b5b5b565b7f000000000000000000000000000000000000000000000000000000000000000081565b6108f76134d463ffffffff16565b80600960086101000a81548167ffffffffffffffff021916908367ffffffffffffffff1602179055507fc41bd7d4803c68b43810c1acff639a83bc8d9f370d8aafaf52bf152c732e0caf8160405161094f91906149f0565b60405180910390a15b5b50565b60066000505481565b600160005060205280600052604060002060009150909054906101000a900460ff1681565b600c60109054906101000a900467ffffffffffffffff1681565b600060003073ffffffffffffffffffffffffffffffffffffffff167f000000000000000000000000000000000000000000000000000000000000000073ffffffffffffffffffffffffffffffffffffffff166385aa61036040518163ffffffff1660e01b8152600401602060405180830381865afa158015610a2b573d600060003e3d6000fd5b505050506040513d601f19601f82011682018060405250810190610a4f9190614d4d565b73ffffffffffffffffffffffffffffffffffffffff16141515610aa7576040517f08c379a0000000000000000000000000000000000000000000000000000000008152600401610a9e90614d76565b60405180910390fd5b60007f000000000000000000000000000000000000000000000000000000000000000073ffffffffffffffffffffffffffffffffffffffff166375172a8b6040518163ffffffff1660e01b8152600401602060405180830381865afa158015610b15573d600060003e3d6000fd5b505050506040513d601f19601f82011682018060405250810190610b399190614db5565b905060007f000000000000000000000000000000000000000000000000000000000000000073ffffffffffffffffffffffffffffffffffffffff16639624e83e6040518163ffffffff1660e01b8152600401602060405180830381865afa158015610ba9573d600060003e3d6000fd5b505050506040513d601f19601f82011682018060405250810190610bcd9190614dd3565b73ffffffffffffffffffffffffffffffffffffffff16630dca59c16040518163ffffffff1660e01b8152600401602060405180830381865afa158015610c18573d600060003e3d6000fd5b505050506040513d601f19601f82011682018060405250810190610c3c9190614db5565b90506000610c586008600050548361357e90919063ffffffff16565b90506000610c746007600050548461357e90919063ffffffff16565b90506000600a610c8d83856135a490919063ffffffff16565b610c979190614e5e565b905082610cb2600d60005054876135a490919063ffffffff16565b1115610cfc578083600d6000505487610ccb9190614e7c565b610cd59190614e7c565b610cdf9190614e9b565b96508650600460005054871015610cf7576000965086505b610d5c565b81610d15600e60005054876135bf90919063ffffffff16565b1015610d5b5780600e6000505486610d2d9190614e9b565b83610d389190614e7c565b610d429190614e9b565b95508550600460005054861015610d5a576000955085505b5b5b50505050505b9091565b600c60189054906101000a900463ffffffff1681565b600d6000505481565b600960009054906101000a900467ffffffffffffffff1681565b7f000000000000000000000000000000000000000000000000000000000000000081565b600a6000506020528060005260406000206000915090508060000160009054906101000a90046fffffffffffffffffffffffffffffffff16908060000160109054906101000a90046fffffffffffffffffffffffffffffffff16908060010160009054906101000a900473ffffffffffffffffffffffffffffffffffffffff16908060010160149054906101000a900465ffffffffffff169080600101601a9054906101000a900465ffffffffffff16905085565b610e866134d463ffffffff16565b8060046000508190909055506004600050546000101515610ea75760006000fd5b600560005054600460005054101515610ec05760006000fd5b600660005054600460005054101515610ed95760006000fd5b7f4ef33b2d85532aa2e1ae3100d20137f031644ce9fdce16cef60da325607dd04281604051610f089190614979565b60405180910390a15b5b50565b610f236134d463ffffffff16565b80600960186101000a81548167ffffffffffffffff021916908367ffffffffffffffff160217905550600960189054906101000a900467ffffffffffffffff1667ffffffffffffffff16600960109054906101000a900467ffffffffffffffff1667ffffffffffffffff16101515610f9b5760006000fd5b7f18f52500bf2819c004e98748a693e237955bc5aca194741a0d3954775257e86981604051610fca91906149f0565b60405180910390a15b5b50565b610fe56134d463ffffffff16565b80600660005081909090555060066000505460046000505410151561100a5760006000fd5b7f366fef0231e50d43e76d8b48806aa9f2b349a6ad9725d47012f8c2e8c37f23fb816040516110399190614979565b60405180910390a15b5b50565b6000611057826135da63ffffffff16565b61106257600061109f565b61109d600b60005060008467ffffffffffffffff1667ffffffffffffffff16815260200190815260200160002060005061364a63ffffffff16565b155b90506110a6565b919050565b60006110bc826136c963ffffffff16565b6110c7576000611104565b611102600a60005060008467ffffffffffffffff1667ffffffffffffffff16815260200190815260200160002060005061364a63ffffffff16565b155b905061110b565b919050565b600960189054906101000a900467ffffffffffffffff1681565b61113861373963ffffffff16565b61114661381663ffffffff16565b6111558161163463ffffffff16565b1515611196576040517f08c379a000000000000000000000000000000000000000000000000000000000815260040161118d90614ebb565b60405180910390fd5b6000600b60005060008367ffffffffffffffff1667ffffffffffffffff1681526020019081526020016000206000506040518060a00160405290816000820160009054906101000a90046fffffffffffffffffffffffffffffffff166fffffffffffffffffffffffffffffffff166fffffffffffffffffffffffffffffffff1681526020016000820160109054906101000a90046fffffffffffffffffffffffffffffffff166fffffffffffffffffffffffffffffffff166fffffffffffffffffffffffffffffffff1681526020016001820160009054906101000a900473ffffffffffffffffffffffffffffffffffffffff1673ffffffffffffffffffffffffffffffffffffffff1673ffffffffffffffffffffffffffffffffffffffff1681526020016001820160149054906101000a900465ffffffffffff1665ffffffffffff1665ffffffffffff16815260200160018201601a9054906101000a900465ffffffffffff1665ffffffffffff1665ffffffffffff16815260200150509050600073ffffffffffffffffffffffffffffffffffffffff16816040015173ffffffffffffffffffffffffffffffffffffffff161415801561136e5750600081602001516fffffffffffffffffffffffffffffffff16115b1561140f577f000000000000000000000000000000000000000000000000000000000000000073ffffffffffffffffffffffffffffffffffffffff16634cd7a315826040015183602001516040518363ffffffff1660e01b81526004016113d6929190614efa565b600060405180830381600087803b1580156113f15760006000fd5b505af1158015611406573d600060003e3d6000fd5b50505050611449565b61143d81600001516fffffffffffffffffffffffffffffffff16600e600050546135a490919063ffffffff16565b600e6000508190909055505b806040015173ffffffffffffffffffffffffffffffffffffffff168267ffffffffffffffff167fd1b34ce351dc1a4cb6c40bb878ba19a12c4c44d35e7bdbeca7b5ebe947da312f60405160405180910390a3600b60005060008367ffffffffffffffff1667ffffffffffffffff16815260200190815260200160002060006000820160006101000a8154906fffffffffffffffffffffffffffffffff02191690556000820160106101000a8154906fffffffffffffffffffffffffffffffff02191690556001820160006101000a81549073ffffffffffffffffffffffffffffffffffffffff02191690556001820160146101000a81549065ffffffffffff021916905560018201601a6101000a81549065ffffffffffff02191690555050505b5b61157961386b63ffffffff16565b5b50565b61158b6134d463ffffffff16565b8060086000508190909055506008600050546007600050541015156115b05760006000fd5b670de0b6b3a76400006008600050541015156115cc5760006000fd5b7f4bc8e401359fe0a4abb5d7751170f1b17eabe34299bc6311dedc5ac91cdf8dbf816040516115fb9190614979565b60405180910390a15b5b50565b600960109054906101000a900467ffffffffffffffff1681565b60086000505481565b60036000505481565b6000611645826135da63ffffffff16565b61165057600061168c565b61168b600b60005060008467ffffffffffffffff1667ffffffffffffffff16815260200190815260200160002060005061364a63ffffffff16565b5b9050611693565b919050565b60056000505481565b60076000505481565b600b6000506020528060005260406000206000915090508060000160009054906101000a90046fffffffffffffffffffffffffffffffff16908060000160109054906101000a90046fffffffffffffffffffffffffffffffff16908060010160009054906101000a900473ffffffffffffffffffffffffffffffffffffffff16908060010160149054906101000a900465ffffffffffff169080600101601a9054906101000a900465ffffffffffff16905085565b61176d6134d463ffffffff16565b80600960106101000a81548167ffffffffffffffff021916908367ffffffffffffffff160217905550600960189054906101000a900467ffffffffffffffff1667ffffffffffffffff16600960109054906101000a900467ffffffffffffffff1667ffffffffffffffff161015156117e55760006000fd5b7fac2bc07b99cee6cd70e0c8cef6d433d70824a6a3d1eee502bc8938640a980a948160405161181491906149f0565b60405180910390a15b5b50565b600060009054906101000a900460ff1681565b60606060606060008461185d57600c60089054906101000a900467ffffffffffffffff16611875565b600c60009054906101000a900467ffffffffffffffff165b67ffffffffffffffff169050600060008790505b828167ffffffffffffffff1610156118ec57866118b4576118af816135da63ffffffff16565b6118c4565b6118c3816136c963ffffffff16565b5b156118d85781806118d490614f3b565b9250505b5b80806118e490614f7a565b915050611889565b508067ffffffffffffffff81111561190757611906614fa7565b5b60405190808252806020026020018201604052801561194057816020015b61192d614887565b8152602001906001900390816119255790505b50945084508067ffffffffffffffff81111561195f5761195e614fa7565b5b60405190808252806020026020018201604052801561198d5781602001602082028036833780820191505090505b50935083508067ffffffffffffffff8111156119ac576119ab614fa7565b5b6040519080825280602002602001820160405280156119da5781602001602082028036833780820191505090505b5092508250600060008890505b838167ffffffffffffffff161015611e69578715611c2557611a0e816136c963ffffffff16565b1515611a1957611e56565b600a60005060008267ffffffffffffffff1667ffffffffffffffff1681526020019081526020016000206000506040518060a00160405290816000820160009054906101000a90046fffffffffffffffffffffffffffffffff166fffffffffffffffffffffffffffffffff166fffffffffffffffffffffffffffffffff1681526020016000820160109054906101000a90046fffffffffffffffffffffffffffffffff166fffffffffffffffffffffffffffffffff166fffffffffffffffffffffffffffffffff1681526020016001820160009054906101000a900473ffffffffffffffffffffffffffffffffffffffff1673ffffffffffffffffffffffffffffffffffffffff1673ffffffffffffffffffffffffffffffffffffffff1681526020016001820160149054906101000a900465ffffffffffff1665ffffffffffff1665ffffffffffff16815260200160018201601a9054906101000a900465ffffffffffff1665ffffffffffff1665ffffffffffff16815260200150508783815181101515611bab57611baa614fd8565b5b60200260200101819052508067ffffffffffffffff168683815181101515611bd657611bd5614fd8565b5b6020026020010190908181526020015050611bf68161281e63ffffffff16565b8583815181101515611c0b57611c0a614fd8565b5b602002602001019015159081151581526020015050611e47565b611c34816135da63ffffffff16565b1515611c3f57611e56565b600b60005060008267ffffffffffffffff1667ffffffffffffffff1681526020019081526020016000206000506040518060a00160405290816000820160009054906101000a90046fffffffffffffffffffffffffffffffff166fffffffffffffffffffffffffffffffff166fffffffffffffffffffffffffffffffff1681526020016000820160109054906101000a90046fffffffffffffffffffffffffffffffff166fffffffffffffffffffffffffffffffff166fffffffffffffffffffffffffffffffff1681526020016001820160009054906101000a900473ffffffffffffffffffffffffffffffffffffffff1673ffffffffffffffffffffffffffffffffffffffff1673ffffffffffffffffffffffffffffffffffffffff1681526020016001820160149054906101000a900465ffffffffffff1665ffffffffffff1665ffffffffffff16815260200160018201601a9054906101000a900465ffffffffffff1665ffffffffffff1665ffffffffffff16815260200150508783815181101515611dd157611dd0614fd8565b5b60200260200101819052508067ffffffffffffffff168683815181101515611dfc57611dfb614fd8565b5b6020026020010190908181526020015050611e1c8161163463ffffffff16565b8583815181101515611e3157611e30614fd8565b5b6020026020010190151590811515815260200150505b8180611e5290614f3b565b9250505b8080611e6190614f7a565b9150506119e7565b505050505b9250925092565b600c60089054906101000a900467ffffffffffffffff1681565b600e6000505481565b611ea66134d463ffffffff16565b806007600050819090905550600860005054600760005054101515611ecb5760006000fd5b7f98de8134f58d0f83d8490533bdf2ea621691a0d73aa5af21c25f64e237d0510c81604051611efa9190614979565b60405180910390a15b5b50565b611f156134d463ffffffff16565b806005600050819090905550600560005054600460005054101515611f3a5760006000fd5b7f1a947e1e83119fe73dfbcae0f4777aac4937059cc8fa08b6edad794bb2bbacd681604051611f699190614979565b60405180910390a15b5b50565b60046000505481565b611f8d61373963ffffffff16565b611f9b61381663ffffffff16565b611faa8261104663ffffffff16565b1515611feb576040517f08c379a0000000000000000000000000000000000000000000000000000000008152600401611fe290615009565b60405180910390fd5b6000600b60005060008467ffffffffffffffff1667ffffffffffffffff1681526020019081526020016000206000506040518060a00160405290816000820160009054906101000a90046fffffffffffffffffffffffffffffffff166fffffffffffffffffffffffffffffffff166fffffffffffffffffffffffffffffffff1681526020016000820160109054906101000a90046fffffffffffffffffffffffffffffffff166fffffffffffffffffffffffffffffffff166fffffffffffffffffffffffffffffffff1681526020016001820160009054906101000a900473ffffffffffffffffffffffffffffffffffffffff1673ffffffffffffffffffffffffffffffffffffffff1673ffffffffffffffffffffffffffffffffffffffff1681526020016001820160149054906101000a900465ffffffffffff1665ffffffffffff1665ffffffffffff16815260200160018201601a9054906101000a900465ffffffffffff1665ffffffffffff1665ffffffffffff1681526020015050905060003390506000600073ffffffffffffffffffffffffffffffffffffffff16836040015173ffffffffffffffffffffffffffffffffffffffff16141561229c576121e4600a6121d685600001516fffffffffffffffffffffffffffffffff166138fd63ffffffff16565b613a3990919063ffffffff16565b846fffffffffffffffffffffffffffffffff16101515612239576040517f08c379a000000000000000000000000000000000000000000000000000000000815260040161223090615048565b60405180910390fd5b61226783600001516fffffffffffffffffffffffffffffffff16600e600050546135a490919063ffffffff16565b600e6000508190909055507f00000000000000000000000000000000000000000000000000000000000000009050805061232a565b6122ca60036000505484602001516fffffffffffffffffffffffffffffffff16613a5490919063ffffffff16565b846fffffffffffffffffffffffffffffffff1611151515612320576040517f08c379a000000000000000000000000000000000000000000000000000000000815260040161231790615087565b60405180910390fd5b8260400151905080505b81836040019073ffffffffffffffffffffffffffffffffffffffff16908173ffffffffffffffffffffffffffffffffffffffff16815260200150508383602001906fffffffffffffffffffffffffffffffff1690816fffffffffffffffffffffffffffffffff168152602001505060006123d96123c2600960089054906101000a900467ffffffffffffffff16613a7a63ffffffff16565b67ffffffffffffffff16613ab0909063ffffffff16565b90508065ffffffffffff16846060015165ffffffffffff1610156124175780846060019065ffffffffffff16908165ffffffffffff16815260200150505b83600b60005060008867ffffffffffffffff1667ffffffffffffffff16815260200190815260200160002060005060008201518160000160006101000a8154816fffffffffffffffffffffffffffffffff02191690836fffffffffffffffffffffffffffffffff16021790555060208201518160000160106101000a8154816fffffffffffffffffffffffffffffffff02191690836fffffffffffffffffffffffffffffffff16021790555060408201518160010160006101000a81548173ffffffffffffffffffffffffffffffffffffffff021916908373ffffffffffffffffffffffffffffffffffffffff16021790555060608201518160010160146101000a81548165ffffffffffff021916908365ffffffffffff160217905550608082015181600101601a6101000a81548165ffffffffffff021916908365ffffffffffff1602179055509050506125ab7f0000000000000000000000000000000000000000000000000000000000000000848487600001516fffffffffffffffffffffffffffffffff16613b0a63ffffffff16565b8273ffffffffffffffffffffffffffffffffffffffff168667ffffffffffffffff167f3e40664282966c0a42567d60514e22e8d06206cbcaa7d79f53dc8fcd8c724246876040516125fc91906150c6565b60405180910390a3505050505b5b61261861386b63ffffffff16565b5b5050565b61262b61373963ffffffff16565b612639613b9a63ffffffff16565b6000600061264b6109a463ffffffff16565b91509150600082111561266e57612669826001613c7d63ffffffff16565b6126c9565b600081111561268d57612688816000613c7d63ffffffff16565b6126c8565b6040517f08c379a00000000000000000000000000000000000000000000000000000000081526004016126bf906150ea565b60405180910390fd5b5b50505b5b6126db61386b63ffffffff16565b5b565b6126ec6134d463ffffffff16565b80600960006101000a81548167ffffffffffffffff021916908367ffffffffffffffff1602179055506000600960009054906101000a900467ffffffffffffffff1667ffffffffffffffff161115156127455760006000fd5b7f6e9f93976a1fde110a0da07558361d4ab428d9b65b5c53d5c09c0cf5f69a32f98160405161277491906149f0565b60405180910390a15b5b50565b600c60009054906101000a900467ffffffffffffffff1681565b6127a96134d463ffffffff16565b61012c8163ffffffff16101515156127c15760006000fd5b80600c60186101000a81548163ffffffff021916908363ffffffff1602179055507f670aac3910a07dcfe5267c8b0bf2357abdb454e509764d13e94e85ee13c6da20816040516128119190614a25565b60405180910390a15b5b50565b600061282f826136c963ffffffff16565b61283a576000612876565b612875600a60005060008467ffffffffffffffff1667ffffffffffffffff16815260200190815260200160002060005061364a63ffffffff16565b5b905061287d565b919050565b61289061373963ffffffff16565b61289e61381663ffffffff16565b6128ad8161281e63ffffffff16565b15156128ee576040517f08c379a00000000000000000000000000000000000000000000000000000000081526004016128e590614ebb565b60405180910390fd5b6000600a60005060008367ffffffffffffffff1667ffffffffffffffff1681526020019081526020016000206000506040518060a00160405290816000820160009054906101000a90046fffffffffffffffffffffffffffffffff166fffffffffffffffffffffffffffffffff166fffffffffffffffffffffffffffffffff1681526020016000820160109054906101000a90046fffffffffffffffffffffffffffffffff166fffffffffffffffffffffffffffffffff166fffffffffffffffffffffffffffffffff1681526020016001820160009054906101000a900473ffffffffffffffffffffffffffffffffffffffff1673ffffffffffffffffffffffffffffffffffffffff1673ffffffffffffffffffffffffffffffffffffffff1681526020016001820160149054906101000a900465ffffffffffff1665ffffffffffff1665ffffffffffff16815260200160018201601a9054906101000a900465ffffffffffff1665ffffffffffff1665ffffffffffff16815260200150509050612a9d81600001516fffffffffffffffffffffffffffffffff16600d600050546135a490919063ffffffff16565b600d600050819090905550600073ffffffffffffffffffffffffffffffffffffffff16816040015173ffffffffffffffffffffffffffffffffffffffff16141515612b7a577f000000000000000000000000000000000000000000000000000000000000000073ffffffffffffffffffffffffffffffffffffffff166316f9428f826040015183600001516040518363ffffffff1660e01b8152600401612b45929190614efa565b600060405180830381600087803b158015612b605760006000fd5b505af1158015612b75573d600060003e3d6000fd5b505050505b806040015173ffffffffffffffffffffffffffffffffffffffff168267ffffffffffffffff167f596e5ff4197d4a01b2406d4c0717653cbc9166cf6ab2bdf78272eb99d191a09360405160405180910390a3600a60005060008367ffffffffffffffff1667ffffffffffffffff16815260200190815260200160002060006000820160006101000a8154906fffffffffffffffffffffffffffffffff02191690556000820160106101000a8154906fffffffffffffffffffffffffffffffff02191690556001820160006101000a81549073ffffffffffffffffffffffffffffffffffffffff02191690556001820160146101000a81549065ffffffffffff021916905560018201601a6101000a81549065ffffffffffff02191690555050505b5b612caa61386b63ffffffff16565b5b50565b612cbc61373963ffffffff16565b612cca61381663ffffffff16565b612cd9826110ab63ffffffff16565b1515612d1a576040517f08c379a0000000000000000000000000000000000000000000000000000000008152600401612d1190615009565b60405180910390fd5b60003390506000600a60005060008567ffffffffffffffff1667ffffffffffffffff1681526020019081526020016000206000506040518060a00160405290816000820160009054906101000a90046fffffffffffffffffffffffffffffffff166fffffffffffffffffffffffffffffffff166fffffffffffffffffffffffffffffffff1681526020016000820160109054906101000a90046fffffffffffffffffffffffffffffffff166fffffffffffffffffffffffffffffffff166fffffffffffffffffffffffffffffffff1681526020016001820160009054906101000a900473ffffffffffffffffffffffffffffffffffffffff1673ffffffffffffffffffffffffffffffffffffffff1673ffffffffffffffffffffffffffffffffffffffff1681526020016001820160149054906101000a900465ffffffffffff1665ffffffffffff1665ffffffffffff16815260200160018201601a9054906101000a900465ffffffffffff1665ffffffffffff1665ffffffffffff16815260200150509050600060006000600073ffffffffffffffffffffffffffffffffffffffff16846040015173ffffffffffffffffffffffffffffffffffffffff161415612f8157600a612f0685600001516fffffffffffffffffffffffffffffffff166138fd63ffffffff16565b612f109190614e5e565b866fffffffffffffffffffffffffffffffff16111515612f65576040517f08c379a0000000000000000000000000000000000000000000000000000000008152600401612f5c90615129565b60405180910390fd5b856fffffffffffffffffffffffffffffffff1692508250613057565b612faf60036000505485602001516fffffffffffffffffffffffffffffffff1661357e90919063ffffffff16565b866fffffffffffffffffffffffffffffffff1610151515613005576040517f08c379a0000000000000000000000000000000000000000000000000000000008152600401612ffc90615168565b60405180910390fd5b8360200151915081508360400151905080506130408460200151876fffffffffffffffffffffffffffffffff16613d4b90919063ffffffff16565b6fffffffffffffffffffffffffffffffff16925082505b84846040019073ffffffffffffffffffffffffffffffffffffffff16908173ffffffffffffffffffffffffffffffffffffffff16815260200150508584602001906fffffffffffffffffffffffffffffffff1690816fffffffffffffffffffffffffffffffff168152602001505060006131066130ef600960089054906101000a900467ffffffffffffffff16613a7a63ffffffff16565b67ffffffffffffffff16613ab0909063ffffffff16565b90508065ffffffffffff16856060015165ffffffffffff1610156131445780856060019065ffffffffffff16908165ffffffffffff16815260200150505b84600a60005060008a67ffffffffffffffff1667ffffffffffffffff16815260200190815260200160002060005060008201518160000160006101000a8154816fffffffffffffffffffffffffffffffff02191690836fffffffffffffffffffffffffffffffff16021790555060208201518160000160106101000a8154816fffffffffffffffffffffffffffffffff02191690836fffffffffffffffffffffffffffffffff16021790555060408201518160010160006101000a81548173ffffffffffffffffffffffffffffffffffffffff021916908373ffffffffffffffffffffffffffffffffffffffff16021790555060608201518160010160146101000a81548165ffffffffffff021916908365ffffffffffff160217905550608082015181600101601a6101000a81548165ffffffffffff021916908365ffffffffffff16021790555090505060007f000000000000000000000000000000000000000000000000000000000000000073ffffffffffffffffffffffffffffffffffffffff166336fc02f46040518163ffffffff1660e01b8152600401602060405180830381865afa1580156132fe573d600060003e3d6000fd5b505050506040513d601f19601f8201168201806040525081019061332291906151a7565b90506000846fffffffffffffffffffffffffffffffff16111561336457613363818885876fffffffffffffffffffffffffffffffff16613b0a63ffffffff16565b5b8073ffffffffffffffffffffffffffffffffffffffff166379cc679088876040518363ffffffff1660e01b815260040161339f9291906151d0565b600060405180830381600087803b1580156133ba5760006000fd5b505af11580156133cf573d600060003e3d6000fd5b505050508673ffffffffffffffffffffffffffffffffffffffff168967ffffffffffffffff167fd428196c29fb7877242c66ff296d926b10a5051d369acf8fe5eb3ea21bb6ec988a60405161342491906150c6565b60405180910390a3505050505050505b5b61344361386b63ffffffff16565b5b5050565b6134566134d463ffffffff16565b806003600050819090905550670de0b6b3a764000060036000505411151561347e5760006000fd5b7fbd478b21e3ce5dd7a0c7b139cab55a02b5b6c2f952b522fcea53df127ac14be9816040516134ad9190614979565b60405180910390a15b5b50565b600960089054906101000a900467ffffffffffffffff1681565b6135317f000000000000000000000000000000000000000000000000000000000000000073ffffffffffffffffffffffffffffffffffffffff163373ffffffffffffffffffffffffffffffffffffffff1614613d6663ffffffff16565b5b565b6001600060006101000a81548160ff0219169083151502179055507f7acc84e34091ae817647a4c49116f5cc07f319078ba80f8f5fde37ea7e25cbd660405160405180910390a15b565b60006135998383670de0b6b3a7640000613dac63ffffffff16565b905080505b92915050565b600081836135b29190614e7c565b90506135b9565b92915050565b600081836135cd9190614e9b565b90506135d4565b92915050565b60006000600b60005060008467ffffffffffffffff1667ffffffffffffffff16815260200190815260200160002060005060000160009054906101000a90046fffffffffffffffffffffffffffffffff166fffffffffffffffffffffffffffffffff16119050613645565b919050565b6000600061365c613ed063ffffffff16565b90508067ffffffffffffffff168360010160149054906101000a900465ffffffffffff1665ffffffffffff1610806136bb57508067ffffffffffffffff1683600101601a9054906101000a900465ffffffffffff1665ffffffffffff16105b9150506136c456505b919050565b60006000600a60005060008467ffffffffffffffff1667ffffffffffffffff16815260200190815260200160002060005060000160009054906101000a90046fffffffffffffffffffffffffffffffff166fffffffffffffffffffffffffffffffff16119050613734565b919050565b7f000000000000000000000000000000000000000000000000000000000000000073ffffffffffffffffffffffffffffffffffffffff1663e97dcb626040518163ffffffff1660e01b8152600401600060405180830381600087803b1580156137a25760006000fd5b505af11580156137b7573d600060003e3d6000fd5b50505050600260026000505414151515613806576040517f08c379a00000000000000000000000000000000000000000000000000000000081526004016137fd906151ff565b60405180910390fd5b600260026000508190909055505b565b600060009054906101000a900460ff16151515613868576040517f08c379a000000000000000000000000000000000000000000000000000000000815260040161385f9061523e565b60405180910390fd5b5b565b600160026000508190909055507f000000000000000000000000000000000000000000000000000000000000000073ffffffffffffffffffffffffffffffffffffffff1663e9fad8ee6040518163ffffffff1660e01b8152600401600060405180830381600087803b1580156138e15760006000fd5b505af11580156138f6573d600060003e3d6000fd5b505050505b565b6000613a2d7f000000000000000000000000000000000000000000000000000000000000000073ffffffffffffffffffffffffffffffffffffffff1663d3419bf36040518163ffffffff1660e01b8152600401602060405180830381865afa15801561396e573d600060003e3d6000fd5b505050506040513d601f19601f82011682018060405250810190613992919061527d565b73ffffffffffffffffffffffffffffffffffffffff16638d02a08a600c60189054906101000a900463ffffffff166040518263ffffffff1660e01b81526004016139dc9190614a25565b602060405180830381865afa1580156139fa573d600060003e3d6000fd5b505050506040513d601f19601f82011682018060405250810190613a1e9190614db5565b83613a5490919063ffffffff16565b9050613a34565b919050565b60008183613a4791906152a6565b9050613a4e565b92915050565b6000613a6f83670de0b6b3a764000084613dac63ffffffff16565b905080505b92915050565b6000613aa682613a8e613ed063ffffffff16565b67ffffffffffffffff16613eeb90919063ffffffff16565b905080505b919050565b6000660100000000000082101515613afd576040517f08c379a0000000000000000000000000000000000000000000000000000000008152600401613af4906152eb565b60405180910390fd5b819050613b05565b919050565b613b93846323b872dd60e01b858585604051602401613b2b9392919061532a565b604051602081830303815290604052907bffffffffffffffffffffffffffffffffffffffffffffffffffffffff19166020820180517bffffffffffffffffffffffffffffffffffffffffffffffffffffffff8381831617835250505050613f0663ffffffff16565b5b50505050565b613ba861381663ffffffff16565b7f000000000000000000000000000000000000000000000000000000000000000073ffffffffffffffffffffffffffffffffffffffff1663bf86d6906040518163ffffffff1660e01b8152600401602060405180830381865afa158015613c14573d600060003e3d6000fd5b505050506040513d601f19601f82011682018060405250810190613c389190615364565b151515613c7a576040517f08c379a0000000000000000000000000000000000000000000000000000000008152600401613c719061538d565b60405180910390fd5b5b565b600081613c8f57600660005054613c96565b6005600050545b9050613ca88382613fd363ffffffff16565b925082508115613cda57613cca83600d600050546135bf90919063ffffffff16565b600d600050819090905550613cfe565b613cf283600e600050546135bf90919063ffffffff16565b600e6000508190909055505b60005b613d14828561406590919063ffffffff16565b90508050613d28818461408363ffffffff16565b8084613d349190614e7c565b935083505b600084111515613d01575b50505b5050565b60008183613d5991906153cc565b9050613d60565b92915050565b801515613da8576040517f08c379a0000000000000000000000000000000000000000000000000000000008152600401613d9f90615406565b60405180910390fd5b5b50565b6000600060006000198587098587029250828110838203039150506000811415613def57600084111515613de05760006000fd5b83820492508292505050613ec9565b8084111515613dfe5760006000fd5b60008486880990508281118203915080830392506000856001877fffffffffffffffffffffffffffffffffffffffffffffffffffffffffffffffff030116905080508086049550808404935060018182600003040190508083028417935083506000600287600302189050808702600203810290508050808702600203810290508050808702600203810290508050808702600203810290508050808702600203810290508050808702600203810290508050808502955085505084945050505050613ec956505050505b9392505050565b6000613ee3426145dd909063ffffffff16565b905080505b90565b60008183613ef99190615445565b9050613f00565b92915050565b6000613f6b826040518060400160405280602081526020017f5361666545524332303a206c6f772d6c6576656c2063616c6c206661696c65648152602001508573ffffffffffffffffffffffffffffffffffffffff166146399092919063ffffffff16565b9050600081511115613fcd5780806020019051810190613f8b9190615364565b1515613fcc576040517f08c379a0000000000000000000000000000000000000000000000000000000008152600401613fc390615478565b60405180910390fd5b5b505b5050565b6000600061400a600960009054906101000a900467ffffffffffffffff1667ffffffffffffffff1684613a3990919063ffffffff16565b90506000838561401a91906154dd565b905060006004600050548210614030578561403d565b818661403c9190614e7c565b5b9050614052818461406590919063ffffffff16565b935050505061405f565050505b92915050565b60008183106140745781614076565b825b905061407d565b92915050565b60006140aa600960189054906101000a900467ffffffffffffffff16613a7a63ffffffff16565b90508067ffffffffffffffff16600c60109054906101000a900467ffffffffffffffff1667ffffffffffffffff1610156141085780600c60106101000a81548167ffffffffffffffff021916908367ffffffffffffffff1602179055505b60006040518060a001604052806141268661465c909063ffffffff16565b6fffffffffffffffffffffffffffffffff16815260200160006fffffffffffffffffffffffffffffffff168152602001600073ffffffffffffffffffffffffffffffffffffffff1681526020016141b261419b600960109054906101000a900467ffffffffffffffff16613a7a63ffffffff16565b67ffffffffffffffff16613ab0909063ffffffff16565b65ffffffffffff1681526020016141da8467ffffffffffffffff16613ab0909063ffffffff16565b65ffffffffffff16815260200150905082156143e55780600a6000506000600c60009054906101000a900467ffffffffffffffff1667ffffffffffffffff1667ffffffffffffffff16815260200190815260200160002060005060008201518160000160006101000a8154816fffffffffffffffffffffffffffffffff02191690836fffffffffffffffffffffffffffffffff16021790555060208201518160000160106101000a8154816fffffffffffffffffffffffffffffffff02191690836fffffffffffffffffffffffffffffffff16021790555060408201518160010160006101000a81548173ffffffffffffffffffffffffffffffffffffffff021916908373ffffffffffffffffffffffffffffffffffffffff16021790555060608201518160010160146101000a81548165ffffffffffff021916908365ffffffffffff160217905550608082015181600101601a6101000a81548165ffffffffffff021916908365ffffffffffff16021790555090505083600c600081819054906101000a900467ffffffffffffffff168092919061437990614f7a565b91906101000a81548167ffffffffffffffff021916908367ffffffffffffffff16021790555067ffffffffffffffff167fb706108f90fb9e0fadc5f3feaa02b4c23b9d569ad7b46408c64eb4f224eba7cd846040516143d891906149f0565b60405180910390a36145d6565b80600b6000506000600c60089054906101000a900467ffffffffffffffff1667ffffffffffffffff1667ffffffffffffffff16815260200190815260200160002060005060008201518160000160006101000a8154816fffffffffffffffffffffffffffffffff02191690836fffffffffffffffffffffffffffffffff16021790555060208201518160000160106101000a8154816fffffffffffffffffffffffffffffffff02191690836fffffffffffffffffffffffffffffffff16021790555060408201518160010160006101000a81548173ffffffffffffffffffffffffffffffffffffffff021916908373ffffffffffffffffffffffffffffffffffffffff16021790555060608201518160010160146101000a81548165ffffffffffff021916908365ffffffffffff160217905550608082015181600101601a6101000a81548165ffffffffffff021916908365ffffffffffff16021790555090505083600c600881819054906101000a900467ffffffffffffffff168092919061456e90614f7a565b91906101000a81548167ffffffffffffffff021916908367ffffffffffffffff16021790555067ffffffffffffffff167f4e673c0fa7786d8c4c1cba0d1678d726ef2cb772cc6abbe3cea73c1a6d9a681e846040516145cd91906149f0565b60405180910390a35b50505b5050565b6000680100000000000000008210151561462c576040517f08c379a0000000000000000000000000000000000000000000000000000000008152600401614623906154fb565b60405180910390fd5b819050614634565b919050565b606061464e84846000856146c063ffffffff16565b9050614655565b9392505050565b6000700100000000000000000000000000000000821015156146b3576040517f08c379a00000000000000000000000000000000000000000000000000000000081526004016146aa9061553a565b60405180910390fd5b8190506146bb565b919050565b6060824710151515614707576040517f08c379a00000000000000000000000000000000000000000000000000000000081526004016146fe90615579565b60405180910390fd5b614716856147ec63ffffffff16565b1515614757576040517f08c379a000000000000000000000000000000000000000000000000000000000815260040161474e906155de565b60405180910390fd5b600060008673ffffffffffffffffffffffffffffffffffffffff1685876040516147819190615652565b60006040518083038185875af1925050503d80600081146147be576040519150601f19603f3d011682016040523d82523d6000602084013e6147c3565b606091505b50915091506147d982828661481563ffffffff16565b925050506147e45650505b949350505050565b600060008273ffffffffffffffffffffffffffffffffffffffff163b119050614810565b919050565b60608315614829578290506148805661487f565b6000835111156148415782518084602001fd5061487e565b816040517f08c379a00000000000000000000000000000000000000000000000000000000081526004016148759190615671565b60405180910390fd5b5b5b9392505050565b6040518060a0016040528060006fffffffffffffffffffffffffffffffff16815260200160006fffffffffffffffffffffffffffffffff168152602001600073ffffffffffffffffffffffffffffffffffffffff168152602001600065ffffffffffff168152602001600065ffffffffffff1681526020015090566156c5565b600060208201905073ffffffffffffffffffffffffffffffffffffffff831682525b92915050565b60008135905067ffffffffffffffff81168114151561494e5760006000fd5b5b919050565b6000602082840312156149675760006000fd5b6149708261492f565b90505b92915050565b60006020820190508282525b92915050565b60006020828403121561499e5760006000fd5b81357fffffffff000000000000000000000000000000000000000000000000000000008116811415156149d15760006000fd5b809150505b92915050565b600060208201905082151582525b92915050565b600060208201905067ffffffffffffffff831682525b92915050565b60006040820190508382528260208301525b9392505050565b600060208201905063ffffffff831682525b92915050565b600060208201905073ffffffffffffffffffffffffffffffffffffffff831682525b92915050565b600060a0820190506fffffffffffffffffffffffffffffffff808816835280871660208401525073ffffffffffffffffffffffffffffffffffffffff8516604083015265ffffffffffff80851660608401528084166080840152505b9695505050505050565b600060208284031215614ade5760006000fd5b813590505b92915050565b80151581141515614afa5760006000fd5b505b565b6000600060408385031215614b135760006000fd5b614b1c8361492f565b91506020830135614b2c81614ae9565b809150505b9250929050565b600081518084526020808501945080840160005b83811015614b6e5781518752828701965082820191505b600181019050614b4c565b505050508290505b92915050565b600081518084526020808501945080840160005b83811015614bb457815115158752828701965082820191505b600181019050614b90565b505050508290505b92915050565b600060608083018184528087518083526080925082860191506020808a0160005b83811015614c665781516fffffffffffffffffffffffffffffffff8082511687528085830151168588015250604073ffffffffffffffffffffffffffffffffffffffff818301511681880152508781015165ffffffffffff8082168a8901528089840151168989015250505060a08501945082820191505b600181019050614be3565b5050868303818801525050614c7b8188614b38565b925050508281036040840152614c918185614b7c565b9150505b949350505050565b6000600060408385031215614cb25760006000fd5b614cbb8361492f565b915060208301356fffffffffffffffffffffffffffffffff811681141515614ce35760006000fd5b809150505b9250929050565b600060208284031215614d025760006000fd5b813563ffffffff811681141515614d195760006000fd5b809150505b92915050565b73ffffffffffffffffffffffffffffffffffffffff811681141515614d495760006000fd5b505b565b600060208284031215614d605760006000fd5b8151614d6b81614d24565b809150505b92915050565b60208152601360208201527f557365206c617465737420636f6e747261637400000000000000000000000000604082015260006060820190505b919050565b600060208284031215614dc85760006000fd5b815190505b92915050565b600060208284031215614de65760006000fd5b8151614df181614d24565b809150505b92915050565b7f4e487b7100000000000000000000000000000000000000000000000000000000600052601260045260246000fd5b565b7f4e487b7100000000000000000000000000000000000000000000000000000000600052601160045260246000fd5b565b6000821515614e7057614e6f614dfc565b5b82820490505b92915050565b600082821015614e8f57614e8e614e2d565b5b82820390505b92915050565b60008219821115614eaf57614eae614e2d565b5b82820190505b92915050565b60208152601460208201527f41756374696f6e206e6f7420636f6d706c657465000000000000000000000000604082015260006060820190505b919050565b600060408201905073ffffffffffffffffffffffffffffffffffffffff841682526fffffffffffffffffffffffffffffffff831660208301525b9392505050565b60007fffffffffffffffffffffffffffffffffffffffffffffffffffffffffffffffff821415614f6e57614f6d614e2d565b5b6001820190505b919050565b600067ffffffffffffffff80831681811415614f9957614f98614e2d565b5b60018101925050505b919050565b7f4e487b7100000000000000000000000000000000000000000000000000000000600052604160045260246000fd5b565b7f4e487b7100000000000000000000000000000000000000000000000000000000600052603260045260246000fd5b565b60208152601060208201527f41756374696f6e206e6f74206c69766500000000000000000000000000000000604082015260006060820190505b919050565b60208152600c60208201527f42696420746f6f20686967680000000000000000000000000000000000000000604082015260006060820190505b919050565b60208152601160208201527f446964206e6f7420756e64657220626964000000000000000000000000000000604082015260006060820190505b919050565b60006020820190506fffffffffffffffffffffffffffffffff831682525b92915050565b60208152601460208201527f4e6f2061756374696f6e7320746f207374617274000000000000000000000000604082015260006060820190505b919050565b60208152600b60208201527f42696420746f6f206c6f77000000000000000000000000000000000000000000604082015260006060820190505b919050565b60208152600f60208201527f446964206e6f74206f7574206269640000000000000000000000000000000000604082015260006060820190505b919050565b6000602082840312156151ba5760006000fd5b81516151c581614d24565b809150505b92915050565b600060408201905073ffffffffffffffffffffffffffffffffffffffff841682528260208301525b9392505050565b60208152600d60208201527f4c50205265656e7472616e637900000000000000000000000000000000000000604082015260006060820190505b919050565b60208152601360208201527f436f6e74726163742069732073746f7070656400000000000000000000000000604082015260006060820190505b919050565b6000602082840312156152905760006000fd5b815161529b81614d24565b809150505b92915050565b6000817fffffffffffffffffffffffffffffffffffffffffffffffffffffffffffffffff04831182151516156152df576152de614e2d565b5b82820290505b92915050565b60208152601160208201527f6d6f7265207468616e2034382062697473000000000000000000000000000000604082015260006060820190505b919050565b600060608201905073ffffffffffffffffffffffffffffffffffffffff80861683528085166020840152508260408301525b949350505050565b6000602082840312156153775760006000fd5b815161538281614ae9565b809150505b92915050565b60208152601160208201527f50726f746f636f6c2073687574646f776e000000000000000000000000000000604082015260006060820190505b919050565b60006fffffffffffffffffffffffffffffffff8083168185169150818110156153f8576153f7614e2d565b5b818103925050505b92915050565b60208152600e60208201527f4e6f7420417574686f72697a6564000000000000000000000000000000000000604082015260006060820190505b919050565b600067ffffffffffffffff80831681851680830382111561546957615468614e2d565b5b80820193505050505b92915050565b60208152602a60208201527f5361666545524332303a204552433230206f7065726174696f6e20646964206e60408201527f6f74207375636365656400000000000000000000000000000000000000000000606082015260006080820190505b919050565b60008215156154ef576154ee614dfc565b5b82820690505b92915050565b60208152601160208201527f6d6f7265207468616e2036342062697473000000000000000000000000000000604082015260006060820190505b919050565b60208152601260208201527f6d6f7265207468616e2031323820626974730000000000000000000000000000604082015260006060820190505b919050565b60208152602660208201527f416464726573733a20696e73756666696369656e742062616c616e636520666f60408201527f722063616c6c0000000000000000000000000000000000000000000000000000606082015260006080820190505b919050565b60208152601d60208201527f416464726573733a2063616c6c20746f206e6f6e2d636f6e7472616374000000604082015260006060820190505b919050565b60005b8381101561563c5780820151818401525b602081019050615620565b8381111561564b576000848401525b505050505b565b6000825161566481846020870161561d565b8083019150505b92915050565b602081526000825180602084015261569081604085016020870161561d565b60407fffffffffffffffffffffffffffffffffffffffffffffffffffffffffffffffe0601f8301168401019150505b92915050565bfea26469706673582212205612a508d8fcd95854543f3f0223458b94072396531bb35ca593a9986a0d748364736f6c634300080c0033",
  "linkReferences": {},
  "deployedLinkReferences": {}
}