{
  "_format": "hh-sol-artifact-1",
  "contractName": "TcpGovernorAlpha",
  "sourceName": "contracts/core/governance/TcpGovernorAlpha.sol",
  "abi": [
    {
      "inputs": [
        {
          "components": [
            {
              "internalType": "address",
              "name": "TcpTimelock",
              "type": "address"
            },
            {
              "internalType": "address",
              "name": "Tcp",
              "type": "address"
            },
            {
              "internalType": "address",
              "name": "Guardian",
              "type": "address"
            },
            {
              "internalType": "uint48",
              "name": "VoteBlockCount",
              "type": "uint48"
            },
            {
              "internalType": "address",
              "name": "Governor",
              "type": "address"
            }
          ],
          "internalType": "struct TcpGovernorAlpha.ConstructorParams",
          "name": "params",
          "type": "tuple"
        }
      ],
      "stateMutability": "nonpayable",
      "type": "constructor"
    },
    {
      "anonymous": false,
      "inputs": [
        {
          "indexed": true,
          "internalType": "uint256",
          "name": "id",
          "type": "uint256"
        }
      ],
      "name": "ProposalCanceled",
      "type": "event"
    },
    {
      "anonymous": false,
      "inputs": [
        {
          "indexed": true,
          "internalType": "uint256",
          "name": "id",
          "type": "uint256"
        },
        {
          "indexed": true,
          "internalType": "address",
          "name": "proposer",
          "type": "address"
        }
      ],
      "name": "ProposalCreated",
      "type": "event"
    },
    {
      "anonymous": false,
      "inputs": [
        {
          "indexed": true,
          "internalType": "uint256",
          "name": "id",
          "type": "uint256"
        }
      ],
      "name": "ProposalExecuted",
      "type": "event"
    },
    {
      "anonymous": false,
      "inputs": [
        {
          "indexed": true,
          "internalType": "uint256",
          "name": "id",
          "type": "uint256"
        },
        {
          "indexed": false,
          "internalType": "uint256",
          "name": "eta",
          "type": "uint256"
        }
      ],
      "name": "ProposalQueued",
      "type": "event"
    },
    {
      "anonymous": false,
      "inputs": [
        {
          "indexed": true,
          "internalType": "address",
          "name": "voter",
          "type": "address"
        },
        {
          "indexed": true,
          "internalType": "uint256",
          "name": "proposalId",
          "type": "uint256"
        },
        {
          "indexed": true,
          "internalType": "bool",
          "name": "support",
          "type": "bool"
        },
        {
          "indexed": false,
          "internalType": "uint256",
          "name": "votes",
          "type": "uint256"
        }
      ],
      "name": "VoteCast",
      "type": "event"
    },
    {
      "anonymous": false,
      "inputs": [
        {
          "indexed": true,
          "internalType": "address",
          "name": "voter",
          "type": "address"
        },
        {
          "indexed": false,
          "internalType": "uint256",
          "name": "count",
          "type": "uint256"
        }
      ],
      "name": "VotingRewardsDistributed",
      "type": "event"
    },
    {
      "inputs": [],
      "name": "BALLOT_TYPEHASH",
      "outputs": [
        {
          "internalType": "bytes32",
          "name": "",
          "type": "bytes32"
        }
      ],
      "stateMutability": "view",
      "type": "function"
    },
    {
      "inputs": [],
      "name": "DOMAIN_TYPEHASH",
      "outputs": [
        {
          "internalType": "bytes32",
          "name": "",
          "type": "bytes32"
        }
      ],
      "stateMutability": "view",
      "type": "function"
    },
    {
      "inputs": [],
      "name": "INFLATION_PERCENTAGE",
      "outputs": [
        {
          "internalType": "uint256",
          "name": "",
          "type": "uint256"
        }
      ],
      "stateMutability": "view",
      "type": "function"
    },
    {
      "inputs": [],
      "name": "__abdicate",
      "outputs": [],
      "stateMutability": "nonpayable",
      "type": "function"
    },
    {
      "inputs": [
        {
          "internalType": "uint256",
          "name": "proposalId",
          "type": "uint256"
        }
      ],
      "name": "cancel",
      "outputs": [],
      "stateMutability": "nonpayable",
      "type": "function"
    },
    {
      "inputs": [
        {
          "internalType": "uint256",
          "name": "proposalId",
          "type": "uint256"
        },
        {
          "internalType": "bool",
          "name": "support",
          "type": "bool"
        }
      ],
      "name": "castVote",
      "outputs": [],
      "stateMutability": "nonpayable",
      "type": "function"
    },
    {
      "inputs": [
        {
          "internalType": "uint256",
          "name": "proposalId",
          "type": "uint256"
        },
        {
          "internalType": "bool",
          "name": "support",
          "type": "bool"
        },
        {
          "internalType": "uint8",
          "name": "v",
          "type": "uint8"
        },
        {
          "internalType": "bytes32",
          "name": "r",
          "type": "bytes32"
        },
        {
          "internalType": "bytes32",
          "name": "s",
          "type": "bytes32"
        }
      ],
      "name": "castVoteBySig",
      "outputs": [],
      "stateMutability": "nonpayable",
      "type": "function"
    },
    {
      "inputs": [
        {
          "internalType": "uint256[]",
          "name": "proposalIDs",
          "type": "uint256[]"
        }
      ],
      "name": "claimVotingRewards",
      "outputs": [],
      "stateMutability": "nonpayable",
      "type": "function"
    },
    {
      "inputs": [
        {
          "internalType": "uint256",
          "name": "proposalID",
          "type": "uint256"
        },
        {
          "internalType": "address",
          "name": "voter",
          "type": "address"
        }
      ],
      "name": "countVotingRewards",
      "outputs": [
        {
          "internalType": "uint256",
          "name": "",
          "type": "uint256"
        }
      ],
      "stateMutability": "view",
      "type": "function"
    },
    {
      "inputs": [
        {
          "internalType": "uint256",
          "name": "proposalId",
          "type": "uint256"
        }
      ],
      "name": "execute",
      "outputs": [],
      "stateMutability": "nonpayable",
      "type": "function"
    },
    {
      "inputs": [
        {
          "internalType": "uint256",
          "name": "proposalId",
          "type": "uint256"
        }
      ],
      "name": "getActions",
      "outputs": [
        {
          "internalType": "address[]",
          "name": "targets",
          "type": "address[]"
        },
        {
          "internalType": "string[]",
          "name": "signatures",
          "type": "string[]"
        },
        {
          "internalType": "bytes[]",
          "name": "calldatas",
          "type": "bytes[]"
        }
      ],
      "stateMutability": "view",
      "type": "function"
    },
    {
      "inputs": [
        {
          "internalType": "uint256",
          "name": "proposalID",
          "type": "uint256"
        },
        {
          "internalType": "address",
          "name": "voter",
          "type": "address"
        }
      ],
      "name": "getProposalInfo",
      "outputs": [
        {
          "components": [
            {
              "internalType": "address[]",
              "name": "targets",
              "type": "address[]"
            },
            {
              "internalType": "string[]",
              "name": "signatures",
              "type": "string[]"
            },
            {
              "internalType": "bytes[]",
              "name": "calldatas",
              "type": "bytes[]"
            },
            {
              "internalType": "string",
              "name": "title",
              "type": "string"
            },
            {
              "internalType": "string",
              "name": "ipfsHash",
              "type": "string"
            },
            {
              "internalType": "address",
              "name": "proposer",
              "type": "address"
            },
            {
              "internalType": "uint48",
              "name": "eta",
              "type": "uint48"
            },
            {
              "internalType": "uint48",
              "name": "id",
              "type": "uint48"
            },
            {
              "internalType": "uint128",
              "name": "forVotes",
              "type": "uint128"
            },
            {
              "internalType": "uint48",
              "name": "startBlock",
              "type": "uint48"
            },
            {
              "internalType": "uint48",
              "name": "endBlock",
              "type": "uint48"
            },
            {
              "internalType": "bool",
              "name": "canceled",
              "type": "bool"
            },
            {
              "internalType": "bool",
              "name": "executed",
              "type": "bool"
            },
            {
              "internalType": "uint128",
              "name": "againstVotes",
              "type": "uint128"
            },
            {
              "internalType": "uint128",
              "name": "initialSupply",
              "type": "uint128"
            },
            {
              "internalType": "enum GovernorAlpha.ProposalState",
              "name": "state",
              "type": "uint8"
            },
            {
              "internalType": "bool",
              "name": "hasVoted",
              "type": "bool"
            },
            {
              "internalType": "bool",
              "name": "support",
              "type": "bool"
            },
            {
              "internalType": "bool",
              "name": "rewardReceived",
              "type": "bool"
            },
            {
              "internalType": "uint184",
              "name": "votes",
              "type": "uint184"
            },
            {
              "internalType": "uint256",
              "name": "votingPower",
              "type": "uint256"
            }
          ],
          "internalType": "struct GovernorAlpha.ProposalInfo",
          "name": "",
          "type": "tuple"
        }
      ],
      "stateMutability": "view",
      "type": "function"
    },
    {
      "inputs": [
        {
          "internalType": "uint256",
          "name": "proposalId",
          "type": "uint256"
        },
        {
          "internalType": "address",
          "name": "voter",
          "type": "address"
        }
      ],
      "name": "getReceipt",
      "outputs": [
        {
          "components": [
            {
              "internalType": "bool",
              "name": "hasVoted",
              "type": "bool"
            },
            {
              "internalType": "bool",
              "name": "support",
              "type": "bool"
            },
            {
              "internalType": "bool",
              "name": "rewardReceived",
              "type": "bool"
            },
            {
              "internalType": "uint184",
              "name": "votes",
              "type": "uint184"
            }
          ],
          "internalType": "struct GovernorAlpha.Receipt",
          "name": "",
          "type": "tuple"
        }
      ],
      "stateMutability": "view",
      "type": "function"
    },
    {
      "inputs": [],
      "name": "governor",
      "outputs": [
        {
          "internalType": "contract IGovernor",
          "name": "",
          "type": "address"
        }
      ],
      "stateMutability": "view",
      "type": "function"
    },
    {
      "inputs": [],
      "name": "guardian",
      "outputs": [
        {
          "internalType": "address",
          "name": "",
          "type": "address"
        }
      ],
      "stateMutability": "view",
      "type": "function"
    },
    {
      "inputs": [],
      "name": "implementsVotingRewardsWithToken",
      "outputs": [
        {
          "internalType": "address",
          "name": "",
          "type": "address"
        }
      ],
      "stateMutability": "view",
      "type": "function"
    },
    {
      "inputs": [
        {
          "internalType": "address",
          "name": "",
          "type": "address"
        }
      ],
      "name": "latestProposalIds",
      "outputs": [
        {
          "internalType": "uint256",
          "name": "",
          "type": "uint256"
        }
      ],
      "stateMutability": "view",
      "type": "function"
    },
    {
      "inputs": [],
      "name": "name",
      "outputs": [
        {
          "internalType": "string",
          "name": "",
          "type": "string"
        }
      ],
      "stateMutability": "view",
      "type": "function"
    },
    {
      "inputs": [],
      "name": "proposalCount",
      "outputs": [
        {
          "internalType": "uint48",
          "name": "",
          "type": "uint48"
        }
      ],
      "stateMutability": "view",
      "type": "function"
    },
    {
      "inputs": [],
      "name": "proposalMaxOperations",
      "outputs": [
        {
          "internalType": "uint256",
          "name": "",
          "type": "uint256"
        }
      ],
      "stateMutability": "pure",
      "type": "function"
    },
    {
      "inputs": [],
      "name": "proposalThreshold",
      "outputs": [
        {
          "internalType": "uint256",
          "name": "",
          "type": "uint256"
        }
      ],
      "stateMutability": "view",
      "type": "function"
    },
    {
      "inputs": [
        {
          "internalType": "uint256",
          "name": "",
          "type": "uint256"
        }
      ],
      "name": "proposals",
      "outputs": [
        {
          "internalType": "string",
          "name": "title",
          "type": "string"
        },
        {
          "internalType": "string",
          "name": "ipfsHash",
          "type": "string"
        },
        {
          "internalType": "address",
          "name": "proposer",
          "type": "address"
        },
        {
          "internalType": "uint48",
          "name": "eta",
          "type": "uint48"
        },
        {
          "internalType": "uint48",
          "name": "id",
          "type": "uint48"
        },
        {
          "internalType": "uint128",
          "name": "forVotes",
          "type": "uint128"
        },
        {
          "internalType": "uint48",
          "name": "startBlock",
          "type": "uint48"
        },
        {
          "internalType": "uint48",
          "name": "endBlock",
          "type": "uint48"
        },
        {
          "internalType": "bool",
          "name": "canceled",
          "type": "bool"
        },
        {
          "internalType": "bool",
          "name": "executed",
          "type": "bool"
        },
        {
          "internalType": "uint128",
          "name": "againstVotes",
          "type": "uint128"
        },
        {
          "internalType": "uint128",
          "name": "initialSupply",
          "type": "uint128"
        }
      ],
      "stateMutability": "view",
      "type": "function"
    },
    {
      "inputs": [
        {
          "internalType": "address[]",
          "name": "targets",
          "type": "address[]"
        },
        {
          "internalType": "string[]",
          "name": "signatures",
          "type": "string[]"
        },
        {
          "internalType": "bytes[]",
          "name": "calldatas",
          "type": "bytes[]"
        },
        {
          "internalType": "string",
          "name": "title",
          "type": "string"
        },
        {
          "internalType": "string",
          "name": "ipfsHash",
          "type": "string"
        }
      ],
      "name": "propose",
      "outputs": [
        {
          "internalType": "uint256",
          "name": "",
          "type": "uint256"
        }
      ],
      "stateMutability": "nonpayable",
      "type": "function"
    },
    {
      "inputs": [
        {
          "internalType": "uint256",
          "name": "proposalId",
          "type": "uint256"
        }
      ],
      "name": "queue",
      "outputs": [],
      "stateMutability": "nonpayable",
      "type": "function"
    },
    {
      "inputs": [],
      "name": "quorumVotes",
      "outputs": [
        {
          "internalType": "uint256",
          "name": "",
          "type": "uint256"
        }
      ],
      "stateMutability": "view",
      "type": "function"
    },
    {
      "inputs": [
        {
          "internalType": "uint256",
          "name": "proposalId",
          "type": "uint256"
        }
      ],
      "name": "state",
      "outputs": [
        {
          "internalType": "enum GovernorAlpha.ProposalState",
          "name": "",
          "type": "uint8"
        }
      ],
      "stateMutability": "view",
      "type": "function"
    },
    {
      "inputs": [],
      "name": "timelock",
      "outputs": [
        {
          "internalType": "contract TimelockInterface",
          "name": "",
          "type": "address"
        }
      ],
      "stateMutability": "view",
      "type": "function"
    },
    {
      "inputs": [],
      "name": "votingDelay",
      "outputs": [
        {
          "internalType": "uint256",
          "name": "",
          "type": "uint256"
        }
      ],
      "stateMutability": "pure",
      "type": "function"
    },
    {
      "inputs": [],
      "name": "votingPeriod",
      "outputs": [
        {
          "internalType": "uint256",
          "name": "",
          "type": "uint256"
        }
      ],
      "stateMutability": "view",
      "type": "function"
    },
    {
      "inputs": [],
      "name": "votingPeriodBlocks",
      "outputs": [
        {
          "internalType": "uint48",
          "name": "",
          "type": "uint48"
        }
      ],
      "stateMutability": "view",
      "type": "function"
    },
    {
      "inputs": [],
      "name": "votingToken",
      "outputs": [
        {
          "internalType": "contract VotingTokenInterface",
          "name": "",
          "type": "address"
        }
      ],
      "stateMutability": "view",
      "type": "function"
    }
  ],
  "bytecode": "0x610100604052348015620000135760006000fd5b506040516200664138038062006641833981810160405281019062000039919062000386565b5b6040518060400160405280601281526020017f54435020476f7665726e6f7220416c706861000000000000000000000000000081526020015081600001518260200151836040015184606001515b84848484845b8460006000509080519060200190620000a99291906200029a565b50600073ffffffffffffffffffffffffffffffffffffffff168473ffffffffffffffffffffffffffffffffffffffff1614158015620001155750600073ffffffffffffffffffffffffffffffffffffffff168373ffffffffffffffffffffffffffffffffffffffff1614155b80156200014f5750600073ffffffffffffffffffffffffffffffffffffffff168273ffffffffffffffffffffffffffffffffffffffff1614155b15156200015c5760006000fd5b8373ffffffffffffffffffffffffffffffffffffffff1660808173ffffffffffffffffffffffffffffffffffffffff1660601b815260140150508273ffffffffffffffffffffffffffffffffffffffff1660c08173ffffffffffffffffffffffffffffffffffffffff1660601b8152601401505081600160006101000a81548173ffffffffffffffffffffffffffffffffffffffff021916908373ffffffffffffffffffffffffffffffffffffffff16021790555060008165ffffffffffff161115156200022a5760006000fd5b8065ffffffffffff1660a08165ffffffffffff1660d01b815260060150505b50505050505b5050505050806080015173ffffffffffffffffffffffffffffffffffffffff1660e08173ffffffffffffffffffffffffffffffffffffffff1660601b815260140150505b506200042e565b828054600181600116156101000203166002900490600052602060002090601f016020900481019282620002d2576000855562000323565b82601f10620002ed57805160ff191683800117855562000323565b8280016001018555821562000323579182015b8281111562000322578251826000509090559160200191906001019062000300565b5b50905062000332919062000336565b5090565b6200033c565b808211156200035857600081815060009055506001016200033c565b5090566200042d565b6000815190506001600160a01b03811681141515620003805760006000fd5b5b919050565b600060a0828403121562000398578081fd5b60405160a081018181106001600160401b0382111715620003b557fe5b8060405250620003c58362000361565b8152620003d56020840162000361565b6020820152620003e86040840162000361565b6040820152606083015165ffffffffffff81168114151562000408578283fd5b806060830152506200041d6080840162000361565b6080820152809150505b92915050565b5b60805160601c60a05160d01c60c05160601c60e05160601c616177620004ca60003980610bf052806137465280613d765280613e27525080610c71528061146352806119d352806119fe5280611a4a5280611b69528061207a528061316f52806139155250806108825280611a2252508061123d52806115bd5280611b1d528061255c52806132fc5280613f77528061409052506161776000f3fe60806040523480156100115760006000fd5b50600436106101ea5760003560e01c80634634c61f11610110578063d33219b4116100a3578063deaaa7cc11610072578063deaaa7cc14610575578063e23a9a5214610593578063eea540e1146105c3578063fe0d94c1146105f3576101ea565b8063d33219b4146104ed578063da35c6641461050b578063db11651114610529578063ddf0b00914610559576101ea565b8063b0340123116100df578063b034012314610463578063b24b7ffd14610481578063b58131b01461049f578063c5b3116d146104bd576101ea565b80634634c61f14610401578063760fbc131461041d5780637bdbe4d0146104275780637e90f9ab14610445576101ea565b806320606b70116101885780633932abb1116101575780633932abb1146103795780633e4f49e61461039757806340e58ee5146103c7578063452a9320146103e3576101ea565b806320606b70146102ed57806324bc1a641461030b57806329c0e5fd14610329578063328dd98214610347576101ea565b806306fdde03116101c457806306fdde03146102655780630c340a241461028357806315373e3d146102a157806317977c61146102bd576101ea565b8063013cf08b146101f057806302a251a31461022b578063062f146614610249576101ea565b60006000fd5b61020a60048036038101906102059190614c1e565b61060f565b6040516102229c9b9a9998979695949392919061536d565b60405180910390f35b61023361087e565b6040516102409190616010565b60405180910390f35b610263600480360381019061025e9190614ae5565b6108b3565b005b61026d610b4d565b60405161027a9190615351565b60405180910390f35b61028b610bee565b60405161029891906152c0565b60405180910390f35b6102bb60048036038101906102b69190614c83565b610c12565b005b6102d760048036038101906102d291906149f3565b610c2c565b6040516102e49190616010565b60405180910390f35b6102f5610c47565b6040516103029190615225565b60405180910390f35b610313610c6b565b6040516103209190616010565b60405180910390f35b610331610d23565b60405161033e9190616010565b60405180910390f35b610361600480360381019061035c9190614c1e565b610d2e565b604051610370939291906151e0565b60405180910390f35b610381610fd2565b60405161038e9190616010565b60405180910390f35b6103b160048036038101906103ac9190614c1e565b610fe0565b6040516103be9190615338565b60405180910390f35b6103e160048036038101906103dc9190614c1e565b611313565b005b6103eb611728565b6040516103f8919061503a565b60405180910390f35b61041b60048036038101906104169190614cb4565b61174e565b005b61042561192c565b005b61042f6119c1565b60405161043c9190616010565b60405180910390f35b61044d6119cf565b60405161045a919061503a565b60405180910390f35b61046b6119fc565b6040516104789190615310565b60405180910390f35b610489611a20565b6040516104969190616022565b60405180910390f35b6104a7611a44565b6040516104b49190616010565b60405180910390f35b6104d760048036038101906104d29190614c56565b611afc565b6040516104e49190616010565b60405180910390f35b6104f5611b1b565b60405161050291906152e8565b60405180910390f35b610513611b3f565b6040516105209190616022565b60405180910390f35b610543600480360381019061053e9190614a16565b611b57565b6040516105509190616010565b60405180910390f35b610573600480360381019061056e9190614c1e565b6124ce565b005b61057d61286a565b60405161058a9190615225565b60405180910390f35b6105ad60048036038101906105a89190614c56565b61288e565b6040516105ba9190615fc0565b60405180910390f35b6105dd60048036038101906105d89190614c56565b6129ba565b6040516105ea9190615db2565b60405180910390f35b61060d60048036038101906106089190614c1e565b61323e565b005b6003600050602052806000526040600020600091509050806003016000508054600181600116156101000203166002900480601f0160208091040260200160405190810160405280929190818152602001828054600181600116156101000203166002900480156106c15780601f10610696576101008083540402835291602001916106c1565b820191906000526020600020905b8154815290600101906020018083116106a457829003601f168201915b505050505090806004016000508054600181600116156101000203166002900480601f0160208091040260200160405190810160405280929190818152602001828054600181600116156101000203166002900480156107625780601f1061073757610100808354040283529160200191610762565b820191906000526020600020905b81548152906001019060200180831161074557829003601f168201915b5050505050908060050160009054906101000a900473ffffffffffffffffffffffffffffffffffffffff16908060050160149054906101000a900465ffffffffffff169080600501601a9054906101000a900465ffffffffffff16908060060160009054906101000a90046fffffffffffffffffffffffffffffffff16908060060160109054906101000a900465ffffffffffff16908060060160169054906101000a900465ffffffffffff169080600601601c9054906101000a900460ff169080600601601d9054906101000a900460ff16908060070160009054906101000a90046fffffffffffffffffffffffffffffffff16908060070160109054906101000a90046fffffffffffffffffffffffffffffffff1690508c565b60007f000000000000000000000000000000000000000000000000000000000000000065ffffffffffff1690506108b0565b90565b600060006000600090505b84849050811015610add5784848281811015156108d757fe5b90506020020135915081506108f18261348e63ffffffff16565b1515610932576040517f08c379a00000000000000000000000000000000000000000000000000000000081526004016109299061555d565b60405180910390fd5b6002600050600083815260200190815260200160002060005060003373ffffffffffffffffffffffffffffffffffffffff1673ffffffffffffffffffffffffffffffffffffffff16815260200190815260200160002060005060000160009054906101000a900460ff1615156109dd576040517f08c379a00000000000000000000000000000000000000000000000000000000081526004016109d490615640565b60405180910390fd5b60006002600050600084815260200190815260200160002060005060003373ffffffffffffffffffffffffffffffffffffffff1673ffffffffffffffffffffffffffffffffffffffff16815260200190815260200160002060005090508060000160029054906101000a900460ff16151515610a8e576040517f08c379a0000000000000000000000000000000000000000000000000000000008152600401610a8590615942565b60405180910390fd5b60018160000160026101000a81548160ff021916908315150217905550610aca84610abf853361352e63ffffffff16565b6136dc63ffffffff16565b93508350505b80806001019150506108be565b506000821115610b4657610af7338361373a63ffffffff16565b3373ffffffffffffffffffffffffffffffffffffffff167f56cd411799f8eaf36ff267057223a17836afa0a91a109fe7e102ef919e6fa19d83604051610b3d9190616010565b60405180910390a25b50505b5050565b60006000508054600181600116156101000203166002900480601f016020809104026020016040519081016040528092919081815260200182805460018160011615610100020316600290048015610be65780601f10610bbb57610100808354040283529160200191610be6565b820191906000526020600020905b815481529060010190602001808311610bc957829003601f168201915b505050505081565b7f000000000000000000000000000000000000000000000000000000000000000081565b610c233383836137d963ffffffff16565b610c28565b5050565b60046000506020528060005260406000206000915090505481565b7f8cad95687ba82c2ce50e74f7b754645e5117c3a5bec8151c0726d5857980a86681565b600060287f000000000000000000000000000000000000000000000000000000000000000073ffffffffffffffffffffffffffffffffffffffff166318160ddd6040518163ffffffff1660e01b815260040160206040518083038186803b158015610cd65760006000fd5b505afa158015610ceb573d600060003e3d6000fd5b505050506040513d601f19601f82011682018060405250810190610d0f9190614c3a565b811515610d1857fe5b049050610d20565b90565b6611c37937e0800081565b606060606060600060036000506000868152602001908152602001600020600050905080600001600050816001016000508260020160005082805480602002602001604051908101604052809291908181526020018280548015610de757602002820191906000526020600020905b8160009054906101000a900473ffffffffffffffffffffffffffffffffffffffff1673ffffffffffffffffffffffffffffffffffffffff1681526020019060010190808311610d9d575b5050505050925081805480602002602001604051908101604052809291908181526020016000905b82821015610ed0578382906000526020600020900160005b508054600181600116156101000203166002900480601f016020809104026020016040519081016040528092919081815260200182805460018160011615610100020316600290048015610ebc5780601f10610e9157610100808354040283529160200191610ebc565b820191906000526020600020905b815481529060010190602001808311610e9f57829003601f168201915b505050505081526020019060010190610e0f565b50505050915080805480602002602001604051908101604052809291908181526020016000905b82821015610fb8578382906000526020600020900160005b508054600181600116156101000203166002900480601f016020809104026020016040519081016040528092919081815260200182805460018160011615610100020316600290048015610fa45780601f10610f7957610100808354040283529160200191610fa4565b820191906000526020600020905b815481529060010190602001808311610f8757829003601f168201915b505050505081526020019060010190610ef7565b50505050905093509350935050610fcb56505b9193909250565b600060019050610fdd565b90565b600081600160149054906101000a900465ffffffffffff1665ffffffffffff161015801561100e5750600082115b151561104f576040517f08c379a0000000000000000000000000000000000000000000000000000000008152600401611046906155db565b60405180910390fd5b600060036000506000848152602001908152602001600020600050905080600601601c9054906101000a900460ff161561109157600291505061130e5661130c565b8060060160109054906101000a900465ffffffffffff1665ffffffffffff16431115156110c657600091505061130e5661130b565b8060060160169054906101000a900465ffffffffffff1665ffffffffffff16431115156110fb57600191505061130e5661130a565b8060070160009054906101000a90046fffffffffffffffffffffffffffffffff166fffffffffffffffffffffffffffffffff168160060160009054906101000a90046fffffffffffffffffffffffffffffffff166fffffffffffffffffffffffffffffffff161115806111ac5750611177610c6b63ffffffff16565b8160060160009054906101000a90046fffffffffffffffffffffffffffffffff166fffffffffffffffffffffffffffffffff16105b156111bf57600391505061130e56611309565b60008160050160149054906101000a900465ffffffffffff1665ffffffffffff1614156111f457600491505061130e56611308565b80600601601d9054906101000a900460ff161561121957600791505061130e56611307565b6112e68160050160149054906101000a900465ffffffffffff1665ffffffffffff167f000000000000000000000000000000000000000000000000000000000000000073ffffffffffffffffffffffffffffffffffffffff1663c1a287e26040518163ffffffff1660e01b815260040160206040518083038186803b1580156112a25760006000fd5b505afa1580156112b7573d600060003e3d6000fd5b505050506040513d601f19601f820116820180604052508101906112db9190614c3a565b6136dc63ffffffff16565b421015156112fc57600691505061130e56611306565b600591505061130e565b5b5b5b5b5b5b505b919050565b6007600781111561132057fe5b61132f82610fe063ffffffff16565b600781111561133a57fe5b1415151561137d576040517f08c379a000000000000000000000000000000000000000000000000000000000815260040161137490615c6a565b60405180910390fd5b60006003600050600083815260200190815260200160002060005090508060060160169054906101000a900465ffffffffffff1665ffffffffffff16431015156113fc576040517f08c379a00000000000000000000000000000000000000000000000000000000081526004016113f390615a0c565b60405180910390fd5b600160009054906101000a900473ffffffffffffffffffffffffffffffffffffffff1673ffffffffffffffffffffffffffffffffffffffff163373ffffffffffffffffffffffffffffffffffffffff1614806115445750611461611a4463ffffffff16565b7f000000000000000000000000000000000000000000000000000000000000000073ffffffffffffffffffffffffffffffffffffffff1663782d6fe18360050160009054906101000a900473ffffffffffffffffffffffffffffffffffffffff166114d3436001613cae63ffffffff16565b6040518363ffffffff1660e01b81526004016114f092919061517a565b60206040518083038186803b1580156115095760006000fd5b505afa15801561151e573d600060003e3d6000fd5b505050506040513d601f19601f820116820180604052508101906115429190614c3a565b105b1515611585576040517f08c379a000000000000000000000000000000000000000000000000000000000815260040161157c906158dd565b60405180910390fd5b600181600601601c6101000a81548160ff0219169083151502179055506000600090505b81600001600050805490508110156116f5577f000000000000000000000000000000000000000000000000000000000000000073ffffffffffffffffffffffffffffffffffffffff16624b1f12836000016000508381548110151561160a57fe5b906000526020600020900160005b9054906101000a900473ffffffffffffffffffffffffffffffffffffffff16846001016000508481548110151561164b57fe5b906000526020600020900160005b50856002016000508581548110151561166e57fe5b906000526020600020900160005b508660050160149054906101000a900465ffffffffffff166040518563ffffffff1660e01b81526004016116b3949392919061511e565b600060405180830381600087803b1580156116ce5760006000fd5b505af11580156116e3573d600060003e3d6000fd5b505050505b80806001019150506115a9565b50817f789cf55be980739dad1d0699b93b58e806b51c9d96619bfa8fe0a28abaa7b30c60405160405180910390a2505b50565b600160009054906101000a900473ffffffffffffffffffffffffffffffffffffffff1681565b60007f8cad95687ba82c2ce50e74f7b754645e5117c3a5bec8151c0726d5857980a86660006000506040516117839190614f63565b6040518091039020611799613d0563ffffffff16565b306040516020016117ad9493929190615237565b60405160208183030381529060405280519060200120905060007f8e25870c07e0b0b3884c78da52790939a455c275406c44ae8b434b692fb916ee87876040516020016117fc93929190615274565b60405160208183030381529060405280519060200120905060008282604051602001611829929190614ffb565b6040516020818303038152906040528051906020012090506000600182888888604051600081526020016040526040516118669493929190615296565b6020604051602081039080840390855afa158015611889573d600060003e3d6000fd5b505050602060405103519050600073ffffffffffffffffffffffffffffffffffffffff168173ffffffffffffffffffffffffffffffffffffffff1614151515611907576040517f08c379a00000000000000000000000000000000000000000000000000000000081526004016118fe90615b3b565b60405180910390fd5b611918818a8a6137d963ffffffff16565b5050505061192556505050505b5050505050565b61193b33613d1963ffffffff16565b151561197c576040517f08c379a00000000000000000000000000000000000000000000000000000000081526004016119739061567f565b60405180910390fd5b6000600160006101000a81548173ffffffffffffffffffffffffffffffffffffffff021916908373ffffffffffffffffffffffffffffffffffffffff1602179055505b565b6000600a90506119cc565b90565b60007f000000000000000000000000000000000000000000000000000000000000000090506119f9565b90565b7f000000000000000000000000000000000000000000000000000000000000000081565b7f000000000000000000000000000000000000000000000000000000000000000081565b600060c87f000000000000000000000000000000000000000000000000000000000000000073ffffffffffffffffffffffffffffffffffffffff166318160ddd6040518163ffffffff1660e01b815260040160206040518083038186803b158015611aaf5760006000fd5b505afa158015611ac4573d600060003e3d6000fd5b505050506040513d601f19601f82011682018060405250810190611ae89190614c3a565b811515611af157fe5b049050611af9565b90565b6000611b0e838361352e63ffffffff16565b9050611b15565b92915050565b7f000000000000000000000000000000000000000000000000000000000000000081565b600160149054906101000a900465ffffffffffff1681565b6000611b67611a4463ffffffff16565b7f000000000000000000000000000000000000000000000000000000000000000073ffffffffffffffffffffffffffffffffffffffff1663782d6fe133611bb5436001613cae63ffffffff16565b6040518363ffffffff1660e01b8152600401611bd2929190615062565b60206040518083038186803b158015611beb5760006000fd5b505afa158015611c00573d600060003e3d6000fd5b505050506040513d601f19601f82011682018060405250810190611c249190614c3a565b111515611c66576040517f08c379a0000000000000000000000000000000000000000000000000000000008152600401611c5d90615ad6565b60405180910390fd5b84518651148015611c78575083518651145b1515611cb9576040517f08c379a0000000000000000000000000000000000000000000000000000000008152600401611cb090615852565b60405180910390fd5b60008651111515611cff576040517f08c379a0000000000000000000000000000000000000000000000000000000008152600401611cf690615a71565b60405180910390fd5b611d0d6119c163ffffffff16565b865111151515611d52576040517f08c379a0000000000000000000000000000000000000000000000000000000008152600401611d49906157ae565b60405180910390fd5b6000600460005060003373ffffffffffffffffffffffffffffffffffffffff1673ffffffffffffffffffffffffffffffffffffffff1681526020019081526020016000206000505490506000811115611e72576000611db682610fe063ffffffff16565b905060016007811115611dc557fe5b816007811115611dd157fe5b14151515611e14576040517f08c379a0000000000000000000000000000000000000000000000000000000008152600401611e0b90615ba0565b60405180910390fd5b60006007811115611e2157fe5b816007811115611e2d57fe5b14151515611e70576040517f08c379a0000000000000000000000000000000000000000000000000000000008152600401611e6790615723565b60405180910390fd5b505b6000600090505b8651811015611eca57611ebc8882815181101515611e9357fe5b60200260200101518883815181101515611ea957fe5b6020026020010151613e2563ffffffff16565b5b8080600101915050611e79565b506000611eea43611edf610fd263ffffffff16565b6136dc63ffffffff16565b90506000611f0b82611f0061087e63ffffffff16565b6136dc63ffffffff16565b90506001601481819054906101000a900465ffffffffffff168092919060010191906101000a81548165ffffffffffff021916908365ffffffffffff160217905550506601000000000000600160149054906101000a900465ffffffffffff1665ffffffffffff16101515611f805760006000fd5b6000604051806101e001604052808b81526020018a81526020018981526020018881526020018781526020013373ffffffffffffffffffffffffffffffffffffffff168152602001600065ffffffffffff168152602001600160149054906101000a900465ffffffffffff1665ffffffffffff16815260200160006fffffffffffffffffffffffffffffffff16815260200161202185613eb763ffffffff16565b65ffffffffffff16815260200161203d84613eb763ffffffff16565b65ffffffffffff16815260200160001515815260200160001515815260200160006fffffffffffffffffffffffffffffffff1681526020016121237f000000000000000000000000000000000000000000000000000000000000000073ffffffffffffffffffffffffffffffffffffffff166318160ddd6040518163ffffffff1660e01b815260040160206040518083038186803b1580156120df5760006000fd5b505afa1580156120f4573d600060003e3d6000fd5b505050506040513d601f19601f820116820180604052508101906121189190614c3a565b613f1163ffffffff16565b6fffffffffffffffffffffffffffffffff16815260200150905080600360005060008360e0015165ffffffffffff16815260200190815260200160002060005060008201518160000160005090805190602001906121829291906142db565b5060208201518160010160005090805190602001906121a2929190614365565b5060408201518160020160005090805190602001906121c29291906143c5565b5060608201518160030160005090805190602001906121e2929190614425565b506080820151816004016000509080519060200190612202929190614425565b5060a08201518160050160006101000a81548173ffffffffffffffffffffffffffffffffffffffff021916908373ffffffffffffffffffffffffffffffffffffffff16021790555060c08201518160050160146101000a81548165ffffffffffff021916908365ffffffffffff16021790555060e082015181600501601a6101000a81548165ffffffffffff021916908365ffffffffffff1602179055506101008201518160060160006101000a8154816fffffffffffffffffffffffffffffffff02191690836fffffffffffffffffffffffffffffffff1602179055506101208201518160060160106101000a81548165ffffffffffff021916908365ffffffffffff1602179055506101408201518160060160166101000a81548165ffffffffffff021916908365ffffffffffff16021790555061016082015181600601601c6101000a81548160ff02191690831515021790555061018082015181600601601d6101000a81548160ff0219169083151502179055506101a08201518160070160006101000a8154816fffffffffffffffffffffffffffffffff02191690836fffffffffffffffffffffffffffffffff1602179055506101c08201518160070160106101000a8154816fffffffffffffffffffffffffffffffff02191690836fffffffffffffffffffffffffffffffff1602179055509050508060e0015165ffffffffffff16600460005060008360a0015173ffffffffffffffffffffffffffffffffffffffff1673ffffffffffffffffffffffffffffffffffffffff1681526020019081526020016000206000508190909055503373ffffffffffffffffffffffffffffffffffffffff168160e0015165ffffffffffff167fcd423cc1203c0af96b9b3d68d73b3064a69de2d14450bb7181c5e5df2132b35860405160405180910390a38060e0015165ffffffffffff169450505050506124c556505050505b95945050505050565b600460078111156124db57fe5b6124ea82610fe063ffffffff16565b60078111156124f557fe5b141515612537576040517f08c379a000000000000000000000000000000000000000000000000000000000815260040161252e90615447565b60405180910390fd5b60006003600050600083815260200190815260200160002060005090506000612605427f000000000000000000000000000000000000000000000000000000000000000073ffffffffffffffffffffffffffffffffffffffff16636a42b8f86040518163ffffffff1660e01b815260040160206040518083038186803b1580156125c15760006000fd5b505afa1580156125d6573d600060003e3d6000fd5b505050506040513d601f19601f820116820180604052508101906125fa9190614c3a565b6136dc63ffffffff16565b90506000600090505b82600001600050805490508110156127f6576127e8836000016000508281548110151561263757fe5b906000526020600020900160005b9054906101000a900473ffffffffffffffffffffffffffffffffffffffff16846001016000508381548110151561267857fe5b906000526020600020900160005b508054600181600116156101000203166002900480601f01602080910402602001604051908101604052809291908181526020018280546001816001161561010002031660029004801561271b5780601f106126f05761010080835404028352916020019161271b565b820191906000526020600020905b8154815290600101906020018083116126fe57829003601f168201915b5050505050856002016000508481548110151561273457fe5b906000526020600020900160005b508054600181600116156101000203166002900480601f0160208091040260200160405190810160405280929190818152602001828054600181600116156101000203166002900480156127d75780601f106127ac576101008083540402835291602001916127d7565b820191906000526020600020905b8154815290600101906020018083116127ba57829003601f168201915b505050505085613f7563ffffffff16565b5b808060010191505061260e565b5061280681613eb763ffffffff16565b8260050160146101000a81548165ffffffffffff021916908365ffffffffffff160217905550827f9a2e42fd6722813d69113e7d0079d3d940171428df7373df9c7f7617cfda28928260405161285c9190616010565b60405180910390a250505b50565b7f8e25870c07e0b0b3884c78da52790939a455c275406c44ae8b434b692fb916ee81565b6128966144b8565b6002600050600084815260200190815260200160002060005060008373ffffffffffffffffffffffffffffffffffffffff1673ffffffffffffffffffffffffffffffffffffffff1681526020019081526020016000206000506040518060800160405290816000820160009054906101000a900460ff161515151581526020016000820160019054906101000a900460ff161515151581526020016000820160029054906101000a900460ff161515151581526020016000820160039054906101000a900476ffffffffffffffffffffffffffffffffffffffffffffff1676ffffffffffffffffffffffffffffffffffffffffffffff1676ffffffffffffffffffffffffffffffffffffffffffffff168152602001505090506129b4565b92915050565b6129c2614502565b600060036000506000858152602001908152602001600020600050604051806101e001604052908160008201600050805480602002602001604051908101604052809291908181526020018280548015612a7157602002820191906000526020600020905b8160009054906101000a900473ffffffffffffffffffffffffffffffffffffffff1673ffffffffffffffffffffffffffffffffffffffff1681526020019060010190808311612a27575b5050505050815260200160018201600050805480602002602001604051908101604052809291908181526020016000905b82821015612b63578382906000526020600020900160005b508054600181600116156101000203166002900480601f016020809104026020016040519081016040528092919081815260200182805460018160011615610100020316600290048015612b4f5780601f10612b2457610100808354040283529160200191612b4f565b820191906000526020600020905b815481529060010190602001808311612b3257829003601f168201915b505050505081526020019060010190612aa2565b50505050815260200160028201600050805480602002602001604051908101604052809291908181526020016000905b82821015612c54578382906000526020600020900160005b508054600181600116156101000203166002900480601f016020809104026020016040519081016040528092919081815260200182805460018160011615610100020316600290048015612c405780601f10612c1557610100808354040283529160200191612c40565b820191906000526020600020905b815481529060010190602001808311612c2357829003601f168201915b505050505081526020019060010190612b93565b505050508152602001600382016000508054600181600116156101000203166002900480601f016020809104026020016040519081016040528092919081815260200182805460018160011615610100020316600290048015612cf85780601f10612ccd57610100808354040283529160200191612cf8565b820191906000526020600020905b815481529060010190602001808311612cdb57829003601f168201915b50505050508152602001600482016000508054600181600116156101000203166002900480601f016020809104026020016040519081016040528092919081815260200182805460018160011615610100020316600290048015612d9d5780601f10612d7257610100808354040283529160200191612d9d565b820191906000526020600020905b815481529060010190602001808311612d8057829003601f168201915b505050505081526020016005820160009054906101000a900473ffffffffffffffffffffffffffffffffffffffff1673ffffffffffffffffffffffffffffffffffffffff1673ffffffffffffffffffffffffffffffffffffffff1681526020016005820160149054906101000a900465ffffffffffff1665ffffffffffff1665ffffffffffff16815260200160058201601a9054906101000a900465ffffffffffff1665ffffffffffff1665ffffffffffff1681526020016006820160009054906101000a90046fffffffffffffffffffffffffffffffff166fffffffffffffffffffffffffffffffff166fffffffffffffffffffffffffffffffff1681526020016006820160109054906101000a900465ffffffffffff1665ffffffffffff1665ffffffffffff1681526020016006820160169054906101000a900465ffffffffffff1665ffffffffffff1665ffffffffffff16815260200160068201601c9054906101000a900460ff1615151515815260200160068201601d9054906101000a900460ff161515151581526020016007820160009054906101000a90046fffffffffffffffffffffffffffffffff166fffffffffffffffffffffffffffffffff166fffffffffffffffffffffffffffffffff1681526020016007820160109054906101000a90046fffffffffffffffffffffffffffffffff166fffffffffffffffffffffffffffffffff166fffffffffffffffffffffffffffffffff168152602001505090506000612fd7858561288e63ffffffff16565b9050604051806102a0016040528083600001518152602001836020015181526020018360400151815260200183606001518152602001836080015181526020018360a0015173ffffffffffffffffffffffffffffffffffffffff1681526020018360c0015165ffffffffffff1681526020018360e0015165ffffffffffff1681526020018361010001516fffffffffffffffffffffffffffffffff16815260200183610120015165ffffffffffff16815260200183610140015165ffffffffffff1681526020018361016001511515815260200183610180015115158152602001836101a001516fffffffffffffffffffffffffffffffff168152602001836101c001516fffffffffffffffffffffffffffffffff16815260200161310187610fe063ffffffff16565b600781111561310c57fe5b8152602001826000015115158152602001826020015115158152602001826040015115158152602001826060015176ffffffffffffffffffffffffffffffffffffffffffffff1681526020014384610120015165ffffffffffff161015613224577f000000000000000000000000000000000000000000000000000000000000000073ffffffffffffffffffffffffffffffffffffffff1663782d6fe1878661012001516040518363ffffffff1660e01b81526004016131cd9291906151a9565b60206040518083038186803b1580156131e65760006000fd5b505afa1580156131fb573d600060003e3d6000fd5b505050506040513d601f19601f8201168201806040525081019061321f9190614c3a565b613227565b60005b815260200150925050506132385650505b92915050565b6005600781111561324b57fe5b61325a82610fe063ffffffff16565b600781111561326557fe5b1415156132a7576040517f08c379a000000000000000000000000000000000000000000000000000000000815260040161329e906154d2565b60405180910390fd5b6000600360005060008381526020019081526020016000206000509050600181600601601d6101000a81548160ff0219169083151502179055506000600090505b816000016000508054905081101561345b577f000000000000000000000000000000000000000000000000000000000000000073ffffffffffffffffffffffffffffffffffffffff16633ec5ab32836000016000508381548110151561334a57fe5b906000526020600020900160005b9054906101000a900473ffffffffffffffffffffffffffffffffffffffff16846001016000508481548110151561338b57fe5b906000526020600020900160005b5085600201600050858154811015156133ae57fe5b906000526020600020900160005b508660050160149054906101000a900465ffffffffffff166040518563ffffffff1660e01b81526004016133f3949392919061511e565b600060405180830381600087803b15801561340e5760006000fd5b505af1158015613423573d600060003e3d6000fd5b505050506040513d6000823e3d601f19601f8201168201806040525081019061344c9190614b9d565b505b80806001019150506132e8565b50817f712ae1383f79ac853f8d882153778e0260ef8f03b504e2866e0593e04d2b291f60405160405180910390a2505b50565b600060006134a183610fe063ffffffff16565b9050600460078111156134b057fe5b8160078111156134bc57fe5b14806134de5750600360078111156134d057fe5b8160078111156134dc57fe5b145b806134ff5750600560078111156134f157fe5b8160078111156134fd57fe5b145b8061352057506007600781111561351257fe5b81600781111561351e57fe5b145b91505061352956505b919050565b60006000600360005060008581526020019081526020016000206000509050600061359b6611c37937e080008360070160109054906101000a90046fffffffffffffffffffffffffffffffff166fffffffffffffffffffffffffffffffff1661414990919063ffffffff16565b905060006002600050600087815260200190815260200160002060005060008673ffffffffffffffffffffffffffffffffffffffff1673ffffffffffffffffffffffffffffffffffffffff16815260200190815260200160002060005060000160039054906101000a900476ffffffffffffffffffffffffffffffffffffffffffffff1676ffffffffffffffffffffffffffffffffffffffffffffff16905060006136b08460060160009054906101000a90046fffffffffffffffffffffffffffffffff166fffffffffffffffffffffffffffffffff168560070160009054906101000a90046fffffffffffffffffffffffffffffffff166fffffffffffffffffffffffffffffffff166136dc63ffffffff16565b90506136c782828561416f9092919063ffffffff16565b9450505050506136d656505050505b92915050565b60006000828401905083811015151561372a576040517f08c379a000000000000000000000000000000000000000000000000000000000815260040161372190615813565b60405180910390fd5b8091505061373456505b92915050565b6000811415156137d4577f000000000000000000000000000000000000000000000000000000000000000073ffffffffffffffffffffffffffffffffffffffff16630793298783836040518363ffffffff1660e01b815260040161379f92919061517a565b600060405180830381600087803b1580156137ba5760006000fd5b505af11580156137cf573d600060003e3d6000fd5b505050505b5b5050565b600160078111156137e657fe5b6137f583610fe063ffffffff16565b600781111561380057fe5b141515613842576040517f08c379a000000000000000000000000000000000000000000000000000000000815260040161383990615ccf565b60405180910390fd5b6000600360005060008481526020019081526020016000206000509050600015156002600050600085815260200190815260200160002060005060008673ffffffffffffffffffffffffffffffffffffffff1673ffffffffffffffffffffffffffffffffffffffff16815260200190815260200160002060005060000160009054906101000a900460ff161515141515613911576040517f08c379a0000000000000000000000000000000000000000000000000000000008152600401613908906156be565b60405180910390fd5b60007f000000000000000000000000000000000000000000000000000000000000000073ffffffffffffffffffffffffffffffffffffffff1663782d6fe1868460060160109054906101000a900465ffffffffffff166040518363ffffffff1660e01b81526004016139849291906151a9565b60206040518083038186803b15801561399d5760006000fd5b505afa1580156139b2573d600060003e3d6000fd5b505050506040513d601f19601f820116820180604052508101906139d69190614c3a565b90508215613a6d57613a2e613a238360060160009054906101000a90046fffffffffffffffffffffffffffffffff166fffffffffffffffffffffffffffffffff16836136dc63ffffffff16565b613f1163ffffffff16565b8260060160006101000a8154816fffffffffffffffffffffffffffffffff02191690836fffffffffffffffffffffffffffffffff160217905550613af8565b613abd613ab28360070160009054906101000a90046fffffffffffffffffffffffffffffffff166fffffffffffffffffffffffffffffffff16836136dc63ffffffff16565b613f1163ffffffff16565b8260070160006101000a8154816fffffffffffffffffffffffffffffffff02191690836fffffffffffffffffffffffffffffffff1602179055505b60405180608001604052806001151581526020018415158152602001600015158152602001613b2c8361427063ffffffff16565b76ffffffffffffffffffffffffffffffffffffffffffffff168152602001506002600050600086815260200190815260200160002060005060008773ffffffffffffffffffffffffffffffffffffffff1673ffffffffffffffffffffffffffffffffffffffff16815260200190815260200160002060005060008201518160000160006101000a81548160ff02191690831515021790555060208201518160000160016101000a81548160ff02191690831515021790555060408201518160000160026101000a81548160ff02191690831515021790555060608201518160000160036101000a81548176ffffffffffffffffffffffffffffffffffffffffffffff021916908376ffffffffffffffffffffffffffffffffffffffffffffff160217905550905050821515848673ffffffffffffffffffffffffffffffffffffffff167f877856338e13f63d0c36822ff0ef736b80934cd90574a3a5bc9262c39d217c4684604051613c9e9190616010565b60405180910390a450505b505050565b6000828211151515613cf5576040517f08c379a0000000000000000000000000000000000000000000000000000000008152600401613cec90615d73565b60405180910390fd5b8183039050613cff565b92915050565b6000600046905080915050613d1656505b90565b6000600160009054906101000a900473ffffffffffffffffffffffffffffffffffffffff1673ffffffffffffffffffffffffffffffffffffffff168273ffffffffffffffffffffffffffffffffffffffff161480613e19575060017f000000000000000000000000000000000000000000000000000000000000000073ffffffffffffffffffffffffffffffffffffffff1663055ad42e6040518163ffffffff1660e01b815260040160206040518083038186803b158015613ddb5760006000fd5b505afa158015613df0573d600060003e3d6000fd5b505050506040513d601f19601f82011682018060405250810190613e149190614d0e565b60ff16115b9050613e20565b919050565b7f000000000000000000000000000000000000000000000000000000000000000073ffffffffffffffffffffffffffffffffffffffff1663a43c36af83836040518363ffffffff1660e01b8152600401613e80929190615091565b60006040518083038186803b158015613e995760006000fd5b505afa158015613eae573d600060003e3d6000fd5b505050505b5050565b6000660100000000000082101515613f04576040517f08c379a0000000000000000000000000000000000000000000000000000000008152600401613efb90615c2b565b60405180910390fd5b819050613f0c565b919050565b600070010000000000000000000000000000000082101515613f68576040517f08c379a0000000000000000000000000000000000000000000000000000000008152600401613f5f9061559c565b60405180910390fd5b819050613f70565b919050565b7f000000000000000000000000000000000000000000000000000000000000000073ffffffffffffffffffffffffffffffffffffffff1663f2b0653785858585604051602001613fc894939291906150ca565b604051602081830303815290604052805190602001206040518263ffffffff1660e01b8152600401613ffa9190615225565b60206040518083038186803b1580156140135760006000fd5b505afa158015614028573d600060003e3d6000fd5b505050506040513d601f19601f8201168201806040525081019061404c9190614b5a565b15151561408e576040517f08c379a000000000000000000000000000000000000000000000000000000000815260040161408590615981565b60405180910390fd5b7f000000000000000000000000000000000000000000000000000000000000000073ffffffffffffffffffffffffffffffffffffffff16630e70eace858585856040518563ffffffff1660e01b81526004016140ed94939291906150ca565b602060405180830381600087803b1580156141085760006000fd5b505af115801561411d573d600060003e3d6000fd5b505050506040513d601f19601f820116820180604052508101906141419190614b81565b505b50505050565b60006141648383670de0b6b3a764000061416f63ffffffff16565b905080505b92915050565b60006000600060001985870985870292508281108382030391505060008114156141b2576000841115156141a35760006000fd5b83820492508292505050614269565b80841115156141c15760006000fd5b60008486880990508281118203915080830392506000858660000316905080860495508084049350600181826000030401905080830284179350835060006002876003021890508087026002038102905080508087026002038102905080508087026002038102905080508087026002038102905080508087026002038102905080508087026002038102905080508085029550855085955050505050506142695650505050505b9392505050565b600077010000000000000000000000000000000000000000000000821015156142ce576040517f08c379a00000000000000000000000000000000000000000000000000000000081526004016142c590615d34565b60405180910390fd5b8190506142d6565b919050565b828054828255906000526020600020908101928215614354579160200282015b828111156143535782518260006101000a81548173ffffffffffffffffffffffffffffffffffffffff021916908373ffffffffffffffffffffffffffffffffffffffff160217905550916020019190600101906142fb565b5b509050614361919061463f565b5090565b8280548282559060005260206000209081019282156143b4579160200282015b828111156143b35782518290805190602001906143a3929190614425565b5091602001919060010190614385565b5b5090506143c19190614662565b5090565b828054828255906000526020600020908101928215614414579160200282015b8281111561441357825182908051906020019061440392919061468a565b50916020019190600101906143e5565b5b509050614421919061471d565b5090565b828054600181600116156101000203166002900490600052602060002090601f01602090048101928261445b57600085556144a7565b82601f1061447457805160ff19168380011785556144a7565b828001600101855582156144a7579182015b828111156144a65782518260005090905591602001919060010190614486565b5b5090506144b4919061463f565b5090565b6040518060800160405280600015158152602001600015158152602001600015158152602001600076ffffffffffffffffffffffffffffffffffffffffffffff1681526020015090565b604051806102a001604052806060815260200160608152602001606081526020016060815260200160608152602001600073ffffffffffffffffffffffffffffffffffffffff168152602001600065ffffffffffff168152602001600065ffffffffffff16815260200160006fffffffffffffffffffffffffffffffff168152602001600065ffffffffffff168152602001600065ffffffffffff16815260200160001515815260200160001515815260200160006fffffffffffffffffffffffffffffffff16815260200160006fffffffffffffffffffffffffffffffff168152602001600060078111156145f457fe5b8152602001600015158152602001600015158152602001600015158152602001600076ffffffffffffffffffffffffffffffffffffffffffffff168152602001600081526020015090565b614644565b8082111561465e5760008181506000905550600101614644565b5090565b614667565b80821115614686576000818161467d9190614745565b50600101614667565b5090565b828054600181600116156101000203166002900490600052602060002090601f0160209004810192826146c0576000855561470c565b82601f106146d957805160ff191683800117855561470c565b8280016001018555821561470c579182015b8281111561470b57825182600050909055916020019190600101906146eb565b5b509050614719919061463f565b5090565b614722565b808211156147415760008181614738919061478d565b50600101614722565b5090565b50805460018160011615610100020316600290046000825580601f1061476b575061478a565b601f016020900490600052602060002090810190614789919061463f565b5b50565b50805460018160011615610100020316600290046000825580601f106147b357506147d2565b601f0160209004906000526020600020908101906147d1919061463f565b5b5056616140565b60006147ec6147e78461608a565b61603c565b90508281528383830111156148015760006000fd5b828260208301376000602084830101525b9392505050565b60008135905073ffffffffffffffffffffffffffffffffffffffff8116811415156148445760006000fd5b5b919050565b600082601f830112151561485c578081fd5b8135602061487161486c83616067565b61603c565b8083825282820191508286018784858702890101111561488f578586fd5b855b858110156148ba576148a282614819565b8452848401935084820191505b600181019050614891565b5050809450505050505b92915050565b600082601f83011215156148dc578081fd5b813560206148f16148ec83616067565b61603c565b808382528282019150828601855b85811015614945578135880189603f820112151561491b578788fd5b61492c8a87830135604084016147d9565b855250848401935084820191505b6001810190506148ff565b5050809450505050505b92915050565b600082601f8301121515614967578081fd5b8135602061497c61497783616067565b61603c565b808382528282019150828601855b858110156149b9576149a1898684358b01016149c9565b8452848401935084820191505b60018101905061498a565b5050809450505050505b92915050565b600082601f83011215156149db578081fd5b6149ea838335602085016147d9565b90505b92915050565b600060208284031215614a04578081fd5b614a0d82614819565b90505b92915050565b6000600060006000600060a08688031215614a2f578081fd5b853567ffffffffffffffff80821115614a46578283fd5b614a5289838a0161484a565b96506020880135915080821115614a67578283fd5b614a7389838a01614955565b95506040880135915080821115614a88578283fd5b614a9489838a016148ca565b94506060880135915080821115614aa9578283fd5b614ab589838a016149c9565b93506080880135915080821115614aca578283fd5b50614ad7888289016149c9565b9150505b9295509295909350565b6000600060208385031215614af8578182fd5b823567ffffffffffffffff80821115614b0f578384fd5b818501915085601f8301121515614b24578384fd5b813581811115614b32578485fd5b866020602083028501011115614b46578485fd5b6020830194508093505050505b9250929050565b600060208284031215614b6b578081fd5b8151614b7681616115565b809150505b92915050565b600060208284031215614b92578081fd5b815190505b92915050565b600060208284031215614bae578081fd5b815167ffffffffffffffff811115614bc4578182fd5b808301905083601f8201121515614bd9578182fd5b8051614bec614be78261608a565b61603c565b818152856020838501011115614c00578384fd5b614c118260208301602086016160e0565b8093505050505b92915050565b600060208284031215614c2f578081fd5b813590505b92915050565b600060208284031215614c4b578081fd5b815190505b92915050565b6000600060408385031215614c69578182fd5b82359150614c7960208401614819565b90505b9250929050565b6000600060408385031215614c96578182fd5b823591506020830135614ca881616115565b809150505b9250929050565b6000600060006000600060a08688031215614ccd578283fd5b853594506020860135614cdf81616115565b809450506040860135614cf18161612a565b8093505060608601359150608086013590505b9295509295909350565b600060208284031215614d1f578081fd5b8151614d2a8161612a565b809150505b92915050565b73ffffffffffffffffffffffffffffffffffffffff811682525b5050565b6000815180845260208085019450808401835b83811015614d9e5773ffffffffffffffffffffffffffffffffffffffff8251168752828701965082820191505b600181019050614d66565b505050508290505b92915050565b6000815180845260208085018081965082840281019150828601855b85811015614df8578284038952614de0848351614e12565b9350848201915084890198505b600181019050614dc8565b5050508093505050505b92915050565b80151582525b5050565b60008151808452614e2a8160208601602086016160e0565b60207fffffffffffffffffffffffffffffffffffffffffffffffffffffffffffffffe0601f8301168501019150505b92915050565b60008154600180821660008114614e7d5760018114614eb957614efa565b607f600284041686527fffffffffffffffffffffffffffffffffffffffffffffffffffffffffffffff0083166020870152604086019350614efa565b60028304808752614ec9866160cf565b60005b82811015614eee5781546020828b01015284820191505b602081019050614ecc565b6020818a010196505050505b5050505b92915050565b600881101515614f1057fe5b8082525b5050565b6fffffffffffffffffffffffffffffffff811682525b5050565b76ffffffffffffffffffffffffffffffffffffffffffffff811682525b5050565b65ffffffffffff811682525b5050565b6000808354600180821660008114614f825760018114614fb757614fed565b7fffffffffffffffffffffffffffffffffffffffffffffffffffffffffffffff0083168652607f600284041686019350614fed565b600283048786526020808720875b83811015614fe3578154818b015285820191505b8281019050614fc5565b5050508087019450505b505050809150505b92915050565b60007f190100000000000000000000000000000000000000000000000000000000000082528360028301528260228301526042820190505b9392505050565b600060208201905073ffffffffffffffffffffffffffffffffffffffff831682525b92915050565b600060408201905073ffffffffffffffffffffffffffffffffffffffff841682528260208301525b9392505050565b600073ffffffffffffffffffffffffffffffffffffffff84168252604060208301526150c06040830184614e12565b90505b9392505050565b600073ffffffffffffffffffffffffffffffffffffffff86168252608060208301526150f96080830186614e12565b828103604084015261510b8186614e12565b9150508260608301525b95945050505050565b600073ffffffffffffffffffffffffffffffffffffffff861682526080602083015261514d6080830186614e5f565b828103604084015261515f8186614e5f565b91505065ffffffffffff831660608301525b95945050505050565b600060408201905073ffffffffffffffffffffffffffffffffffffffff841682528260208301525b9392505050565b600060408201905073ffffffffffffffffffffffffffffffffffffffff8416825265ffffffffffff831660208301525b9392505050565b6000606082526151f36060830186614d53565b82810360208401526152058186614dac565b905082810360408401526152198185614dac565b9150505b949350505050565b60006020820190508282525b92915050565b600060808201905085825284602083015283604083015273ffffffffffffffffffffffffffffffffffffffff831660608301525b95945050505050565b600060608201905084825283602083015282151560408301525b949350505050565b600060808201905085825260ff851660208301528360408301528260608301525b95945050505050565b600060208201905073ffffffffffffffffffffffffffffffffffffffff831682525b92915050565b600060208201905073ffffffffffffffffffffffffffffffffffffffff831682525b92915050565b600060208201905073ffffffffffffffffffffffffffffffffffffffff831682525b92915050565b600060208201905061534a8284614f04565b5b92915050565b6000602082526153646020830184614e12565b90505b92915050565b6000610180825261538261018083018f614e12565b8281036020840152615394818f614e12565b91505073ffffffffffffffffffffffffffffffffffffffff8c16604083015265ffffffffffff808c166060840152808b166080840152506fffffffffffffffffffffffffffffffff891660a08301526153f060c0830189614f53565b6153fd60e0830188614f53565b61540b610100830187614e08565b615419610120830186614e08565b615427610140830185614f18565b615435610160830184614f18565b5b9d9c50505050505050505050505050565b600060208252604460208301527f476f7665726e6f72416c7068613a3a71756575653a2070726f706f73616c206360408301527f616e206f6e6c792062652071756575656420696620697420697320737563636560608301527f6564656400000000000000000000000000000000000000000000000000000000608083015260a0820190505b919050565b600060208252604560208301527f476f7665726e6f72416c7068613a3a657865637574653a2070726f706f73616c60408301527f2063616e206f6e6c79206265206578656375746564206966206974206973207160608301527f7565756564000000000000000000000000000000000000000000000000000000608083015260a0820190505b919050565b600060208252601560208301527f50726f706f73616c206e6f7420636f6d706c657465000000000000000000000060408301526060820190505b919050565b600060208252601060208301527f457863656564732031323820626974730000000000000000000000000000000060408301526060820190505b919050565b600060208252602960208301527f476f7665726e6f72416c7068613a3a73746174653a20696e76616c696420707260408301527f6f706f73616c206964000000000000000000000000000000000000000000000060608301526080820190505b919050565b600060208252600d60208301527f486173206e6f7420766f7465640000000000000000000000000000000000000060408301526060820190505b919050565b600060208252600e60208301527f4e6f7420417574686f72697a656400000000000000000000000000000000000060408301526060820190505b919050565b600060208252602d60208301527f476f7665726e6f72416c7068613a3a5f63617374566f74653a20766f7465722060408301527f616c726561647920766f7465640000000000000000000000000000000000000060608301526080820190505b919050565b600060208252605960208301527f476f7665726e6f72416c7068613a3a70726f706f73653a206f6e65206c69766560408301527f2070726f706f73616c207065722070726f706f7365722c20666f756e6420616e60608301527f20616c72656164792070656e64696e672070726f706f73616c00000000000000608083015260a0820190505b919050565b600060208252602860208301527f476f7665726e6f72416c7068613a3a70726f706f73653a20746f6f206d616e7960408301527f20616374696f6e7300000000000000000000000000000000000000000000000060608301526080820190505b919050565b600060208252601160208301527f6164646974696f6e206f766572666c6f7700000000000000000000000000000060408301526060820190505b919050565b600060208252604460208301527f476f7665726e6f72416c7068613a3a70726f706f73653a2070726f706f73616c60408301527f2066756e6374696f6e20696e666f726d6174696f6e206172697479206d69736d60608301527f6174636800000000000000000000000000000000000000000000000000000000608083015260a0820190505b919050565b600060208252602f60208301527f476f7665726e6f72416c7068613a3a63616e63656c3a2070726f706f7365722060408301527f61626f7665207468726573686f6c64000000000000000000000000000000000060608301526080820190505b919050565b600060208252601860208301527f5265776172647320616c7265616479207265636569766564000000000000000060408301526060820190505b919050565b600060208252604460208301527f476f7665726e6f72416c7068613a3a5f71756575654f725265766572743a207060408301527f726f706f73616c20616374696f6e20616c72656164792071756575656420617460608301527f2065746100000000000000000000000000000000000000000000000000000000608083015260a0820190505b919050565b600060208252602560208301527f43616e742063616e63656c20616674657220766f74696e6720697320636f6d7060408301527f6c6574656400000000000000000000000000000000000000000000000000000060608301526080820190505b919050565b600060208252602c60208301527f476f7665726e6f72416c7068613a3a70726f706f73653a206d7573742070726f60408301527f7669646520616374696f6e73000000000000000000000000000000000000000060608301526080820190505b919050565b600060208252603f60208301527f476f7665726e6f72416c7068613a3a70726f706f73653a2070726f706f73657260408301527f20766f7465732062656c6f772070726f706f73616c207468726573686f6c640060608301526080820190505b919050565b600060208252602f60208301527f476f7665726e6f72416c7068613a3a63617374566f746542795369673a20696e60408301527f76616c6964207369676e6174757265000000000000000000000000000000000060608301526080820190505b919050565b600060208252605860208301527f476f7665726e6f72416c7068613a3a70726f706f73653a206f6e65206c69766560408301527f2070726f706f73616c207065722070726f706f7365722c20666f756e6420616e60608301527f20616c7265616479206163746976652070726f706f73616c0000000000000000608083015260a0820190505b919050565b600060208252600f60208301527f457863656564732034382062697473000000000000000000000000000000000060408301526060820190505b919050565b600060208252603660208301527f476f7665726e6f72416c7068613a3a63616e63656c3a2063616e6e6f7420636160408301527f6e63656c2065786563757465642070726f706f73616c0000000000000000000060608301526080820190505b919050565b600060208252602a60208301527f476f7665726e6f72416c7068613a3a5f63617374566f74653a20766f74696e6760408301527f20697320636c6f7365640000000000000000000000000000000000000000000060608301526080820190505b919050565b600060208252601060208301527f457863656564732031383420626974730000000000000000000000000000000060408301526060820190505b919050565b600060208252601560208301527f7375627472616374696f6e20756e646572666c6f77000000000000000000000060408301526060820190505b919050565b60006020825282516102a0806020850152615dd16102c0850183614d53565b915060208501517fffffffffffffffffffffffffffffffffffffffffffffffffffffffffffffffe080868503016040870152615e0d8483614dac565b93506040870151915080868503016060870152615e2a8483614dac565b93506060870151915080868503016080870152615e478483614e12565b935060808701519150808685030160a087015250615e658382614e12565b92505060a0850151615e7a60c0860182614d35565b5060c0850151615e8d60e0860182614f53565b5060e0850151610100615ea281870183614f53565b80870151915050610120615eb881870183614f18565b80870151915050610140615ece81870183614f53565b80870151915050610160615ee481870183614f53565b80870151915050610180615efa81870183614e08565b808701519150506101a0615f1081870183614e08565b808701519150506101c0615f2681870183614f18565b808701519150506101e0615f3c81870183614f18565b80870151915050610200615f5281870183614f04565b80870151915050610220615f6881870183614e08565b80870151915050610240615f7e81870183614e08565b80870151915050610260615f9481870183614e08565b80870151915050610280615faa81870183614f32565b8087015183870152505050809150505b92915050565b600060808201905082511515825260208301511515602083015260408301511515604083015276ffffffffffffffffffffffffffffffffffffffffffffff60608401511660608301525b92915050565b60006020820190508282525b92915050565b600060208201905065ffffffffffff831682525b92915050565b6000604051905081810181811067ffffffffffffffff8211171561605c57fe5b80604052505b919050565b600067ffffffffffffffff82111561607b57fe5b6020602083020190505b919050565b600067ffffffffffffffff82111561609e57fe5b60207fffffffffffffffffffffffffffffffffffffffffffffffffffffffffffffffe0601f8401160190505b919050565b60008181526020812090505b919050565b60005b838110156160ff5780820151818401525b6020810190506160e3565b8381111561610e576000848401525b505b505050565b801515811415156161265760006000fd5b5b50565b60ff81168114151561613c5760006000fd5b5b50565bfea2646970667358221220f432cd928d7325585562f63ebcb189b523af4cc120ef899bf241b7674bbd879564736f6c63430007060033",
  "linkReferences": {},
  "deployedLinkReferences": {}
}