{
  "_format": "hh-sol-artifact-1",
  "contractName": "TcpGovernorAlpha",
  "sourceName": "contracts/core/governance/TcpGovernorAlpha.sol",
  "abi": [
    {
      "inputs": [
        {
          "components": [
            {
              "internalType": "address",
              "name": "TcpTimelock",
              "type": "address"
            },
            {
              "internalType": "address",
              "name": "Tcp",
              "type": "address"
            },
            {
              "internalType": "address",
              "name": "Guardian",
              "type": "address"
            },
            {
              "internalType": "uint48",
              "name": "VoteBlockCount",
              "type": "uint48"
            },
            {
              "internalType": "address",
              "name": "Governor",
              "type": "address"
            }
          ],
          "internalType": "struct TcpGovernorAlpha.ConstructorParams",
          "name": "params",
          "type": "tuple"
        }
      ],
      "stateMutability": "nonpayable",
      "type": "constructor"
    },
    {
      "anonymous": false,
      "inputs": [
        {
          "indexed": true,
          "internalType": "uint256",
          "name": "id",
          "type": "uint256"
        }
      ],
      "name": "ProposalCanceled",
      "type": "event"
    },
    {
      "anonymous": false,
      "inputs": [
        {
          "indexed": true,
          "internalType": "uint256",
          "name": "id",
          "type": "uint256"
        },
        {
          "indexed": true,
          "internalType": "address",
          "name": "proposer",
          "type": "address"
        }
      ],
      "name": "ProposalCreated",
      "type": "event"
    },
    {
      "anonymous": false,
      "inputs": [
        {
          "indexed": true,
          "internalType": "uint256",
          "name": "id",
          "type": "uint256"
        }
      ],
      "name": "ProposalExecuted",
      "type": "event"
    },
    {
      "anonymous": false,
      "inputs": [
        {
          "indexed": true,
          "internalType": "uint256",
          "name": "id",
          "type": "uint256"
        },
        {
          "indexed": false,
          "internalType": "uint256",
          "name": "eta",
          "type": "uint256"
        }
      ],
      "name": "ProposalQueued",
      "type": "event"
    },
    {
      "anonymous": false,
      "inputs": [
        {
          "indexed": true,
          "internalType": "address",
          "name": "voter",
          "type": "address"
        },
        {
          "indexed": true,
          "internalType": "uint256",
          "name": "proposalId",
          "type": "uint256"
        },
        {
          "indexed": true,
          "internalType": "bool",
          "name": "support",
          "type": "bool"
        },
        {
          "indexed": false,
          "internalType": "uint256",
          "name": "votes",
          "type": "uint256"
        }
      ],
      "name": "VoteCast",
      "type": "event"
    },
    {
      "anonymous": false,
      "inputs": [
        {
          "indexed": true,
          "internalType": "address",
          "name": "voter",
          "type": "address"
        },
        {
          "indexed": false,
          "internalType": "uint256",
          "name": "count",
          "type": "uint256"
        }
      ],
      "name": "VotingRewardsDistributed",
      "type": "event"
    },
    {
      "inputs": [],
      "name": "BALLOT_TYPEHASH",
      "outputs": [
        {
          "internalType": "bytes32",
          "name": "",
          "type": "bytes32"
        }
      ],
      "stateMutability": "view",
      "type": "function"
    },
    {
      "inputs": [],
      "name": "DOMAIN_TYPEHASH",
      "outputs": [
        {
          "internalType": "bytes32",
          "name": "",
          "type": "bytes32"
        }
      ],
      "stateMutability": "view",
      "type": "function"
    },
    {
      "inputs": [],
      "name": "INFLATION_PERCENTAGE",
      "outputs": [
        {
          "internalType": "uint256",
          "name": "",
          "type": "uint256"
        }
      ],
      "stateMutability": "view",
      "type": "function"
    },
    {
      "inputs": [],
      "name": "__abdicate",
      "outputs": [],
      "stateMutability": "nonpayable",
      "type": "function"
    },
    {
      "inputs": [
        {
          "internalType": "uint256",
          "name": "proposalId",
          "type": "uint256"
        }
      ],
      "name": "cancel",
      "outputs": [],
      "stateMutability": "nonpayable",
      "type": "function"
    },
    {
      "inputs": [
        {
          "internalType": "uint256",
          "name": "proposalId",
          "type": "uint256"
        },
        {
          "internalType": "bool",
          "name": "support",
          "type": "bool"
        }
      ],
      "name": "castVote",
      "outputs": [],
      "stateMutability": "nonpayable",
      "type": "function"
    },
    {
      "inputs": [
        {
          "internalType": "uint256",
          "name": "proposalId",
          "type": "uint256"
        },
        {
          "internalType": "bool",
          "name": "support",
          "type": "bool"
        },
        {
          "internalType": "uint8",
          "name": "v",
          "type": "uint8"
        },
        {
          "internalType": "bytes32",
          "name": "r",
          "type": "bytes32"
        },
        {
          "internalType": "bytes32",
          "name": "s",
          "type": "bytes32"
        }
      ],
      "name": "castVoteBySig",
      "outputs": [],
      "stateMutability": "nonpayable",
      "type": "function"
    },
    {
      "inputs": [
        {
          "internalType": "uint256[]",
          "name": "proposalIDs",
          "type": "uint256[]"
        }
      ],
      "name": "claimVotingRewards",
      "outputs": [],
      "stateMutability": "nonpayable",
      "type": "function"
    },
    {
      "inputs": [
        {
          "internalType": "uint256",
          "name": "proposalId",
          "type": "uint256"
        }
      ],
      "name": "execute",
      "outputs": [],
      "stateMutability": "nonpayable",
      "type": "function"
    },
    {
      "inputs": [
        {
          "internalType": "uint256",
          "name": "proposalId",
          "type": "uint256"
        }
      ],
      "name": "getActions",
      "outputs": [
        {
          "internalType": "address[]",
          "name": "targets",
          "type": "address[]"
        },
        {
          "internalType": "string[]",
          "name": "signatures",
          "type": "string[]"
        },
        {
          "internalType": "bytes[]",
          "name": "calldatas",
          "type": "bytes[]"
        }
      ],
      "stateMutability": "view",
      "type": "function"
    },
    {
      "inputs": [
        {
          "internalType": "address",
          "name": "voter",
          "type": "address"
        }
      ],
      "name": "getAllProposals",
      "outputs": [
        {
          "components": [
            {
              "internalType": "address[]",
              "name": "targets",
              "type": "address[]"
            },
            {
              "internalType": "string[]",
              "name": "signatures",
              "type": "string[]"
            },
            {
              "internalType": "bytes[]",
              "name": "calldatas",
              "type": "bytes[]"
            },
            {
              "internalType": "string",
              "name": "ipfsHash",
              "type": "string"
            },
            {
              "internalType": "address",
              "name": "proposer",
              "type": "address"
            },
            {
              "internalType": "uint48",
              "name": "eta",
              "type": "uint48"
            },
            {
              "internalType": "uint48",
              "name": "id",
              "type": "uint48"
            },
            {
              "internalType": "uint128",
              "name": "forVotes",
              "type": "uint128"
            },
            {
              "internalType": "uint48",
              "name": "startBlock",
              "type": "uint48"
            },
            {
              "internalType": "uint48",
              "name": "endBlock",
              "type": "uint48"
            },
            {
              "internalType": "bool",
              "name": "canceled",
              "type": "bool"
            },
            {
              "internalType": "bool",
              "name": "executed",
              "type": "bool"
            },
            {
              "internalType": "uint128",
              "name": "againstVotes",
              "type": "uint128"
            },
            {
              "internalType": "uint128",
              "name": "initialSupply",
              "type": "uint128"
            }
          ],
          "internalType": "struct GovernorAlpha.Proposal[]",
          "name": "_proposals",
          "type": "tuple[]"
        },
        {
          "internalType": "enum GovernorAlpha.ProposalState[]",
          "name": "_proposalStates",
          "type": "uint8[]"
        },
        {
          "components": [
            {
              "internalType": "bool",
              "name": "hasVoted",
              "type": "bool"
            },
            {
              "internalType": "bool",
              "name": "support",
              "type": "bool"
            },
            {
              "internalType": "bool",
              "name": "rewardReceived",
              "type": "bool"
            },
            {
              "internalType": "uint184",
              "name": "votes",
              "type": "uint184"
            }
          ],
          "internalType": "struct GovernorAlpha.Receipt[]",
          "name": "_receipts",
          "type": "tuple[]"
        }
      ],
      "stateMutability": "view",
      "type": "function"
    },
    {
      "inputs": [
        {
          "internalType": "uint256",
          "name": "proposalId",
          "type": "uint256"
        },
        {
          "internalType": "address",
          "name": "voter",
          "type": "address"
        }
      ],
      "name": "getReceipt",
      "outputs": [
        {
          "components": [
            {
              "internalType": "bool",
              "name": "hasVoted",
              "type": "bool"
            },
            {
              "internalType": "bool",
              "name": "support",
              "type": "bool"
            },
            {
              "internalType": "bool",
              "name": "rewardReceived",
              "type": "bool"
            },
            {
              "internalType": "uint184",
              "name": "votes",
              "type": "uint184"
            }
          ],
          "internalType": "struct GovernorAlpha.Receipt",
          "name": "",
          "type": "tuple"
        }
      ],
      "stateMutability": "view",
      "type": "function"
    },
    {
      "inputs": [],
      "name": "governor",
      "outputs": [
        {
          "internalType": "contract IGovernor",
          "name": "",
          "type": "address"
        }
      ],
      "stateMutability": "view",
      "type": "function"
    },
    {
      "inputs": [],
      "name": "guardian",
      "outputs": [
        {
          "internalType": "address",
          "name": "",
          "type": "address"
        }
      ],
      "stateMutability": "view",
      "type": "function"
    },
    {
      "inputs": [],
      "name": "implementsVotingRewardsWithToken",
      "outputs": [
        {
          "internalType": "address",
          "name": "",
          "type": "address"
        }
      ],
      "stateMutability": "view",
      "type": "function"
    },
    {
      "inputs": [
        {
          "internalType": "address",
          "name": "",
          "type": "address"
        }
      ],
      "name": "latestProposalIds",
      "outputs": [
        {
          "internalType": "uint256",
          "name": "",
          "type": "uint256"
        }
      ],
      "stateMutability": "view",
      "type": "function"
    },
    {
      "inputs": [],
      "name": "name",
      "outputs": [
        {
          "internalType": "string",
          "name": "",
          "type": "string"
        }
      ],
      "stateMutability": "view",
      "type": "function"
    },
    {
      "inputs": [],
      "name": "proposalCount",
      "outputs": [
        {
          "internalType": "uint48",
          "name": "",
          "type": "uint48"
        }
      ],
      "stateMutability": "view",
      "type": "function"
    },
    {
      "inputs": [],
      "name": "proposalMaxOperations",
      "outputs": [
        {
          "internalType": "uint256",
          "name": "",
          "type": "uint256"
        }
      ],
      "stateMutability": "pure",
      "type": "function"
    },
    {
      "inputs": [],
      "name": "proposalThreshold",
      "outputs": [
        {
          "internalType": "uint256",
          "name": "",
          "type": "uint256"
        }
      ],
      "stateMutability": "view",
      "type": "function"
    },
    {
      "inputs": [
        {
          "internalType": "uint256",
          "name": "",
          "type": "uint256"
        }
      ],
      "name": "proposals",
      "outputs": [
        {
          "internalType": "string",
          "name": "ipfsHash",
          "type": "string"
        },
        {
          "internalType": "address",
          "name": "proposer",
          "type": "address"
        },
        {
          "internalType": "uint48",
          "name": "eta",
          "type": "uint48"
        },
        {
          "internalType": "uint48",
          "name": "id",
          "type": "uint48"
        },
        {
          "internalType": "uint128",
          "name": "forVotes",
          "type": "uint128"
        },
        {
          "internalType": "uint48",
          "name": "startBlock",
          "type": "uint48"
        },
        {
          "internalType": "uint48",
          "name": "endBlock",
          "type": "uint48"
        },
        {
          "internalType": "bool",
          "name": "canceled",
          "type": "bool"
        },
        {
          "internalType": "bool",
          "name": "executed",
          "type": "bool"
        },
        {
          "internalType": "uint128",
          "name": "againstVotes",
          "type": "uint128"
        },
        {
          "internalType": "uint128",
          "name": "initialSupply",
          "type": "uint128"
        }
      ],
      "stateMutability": "view",
      "type": "function"
    },
    {
      "inputs": [
        {
          "internalType": "address[]",
          "name": "targets",
          "type": "address[]"
        },
        {
          "internalType": "string[]",
          "name": "signatures",
          "type": "string[]"
        },
        {
          "internalType": "bytes[]",
          "name": "calldatas",
          "type": "bytes[]"
        },
        {
          "internalType": "string",
          "name": "ipfsHash",
          "type": "string"
        }
      ],
      "name": "propose",
      "outputs": [
        {
          "internalType": "uint256",
          "name": "",
          "type": "uint256"
        }
      ],
      "stateMutability": "nonpayable",
      "type": "function"
    },
    {
      "inputs": [
        {
          "internalType": "uint256",
          "name": "proposalId",
          "type": "uint256"
        }
      ],
      "name": "queue",
      "outputs": [],
      "stateMutability": "nonpayable",
      "type": "function"
    },
    {
      "inputs": [],
      "name": "quorumVotes",
      "outputs": [
        {
          "internalType": "uint256",
          "name": "",
          "type": "uint256"
        }
      ],
      "stateMutability": "view",
      "type": "function"
    },
    {
      "inputs": [
        {
          "internalType": "uint256",
          "name": "proposalId",
          "type": "uint256"
        }
      ],
      "name": "state",
      "outputs": [
        {
          "internalType": "enum GovernorAlpha.ProposalState",
          "name": "",
          "type": "uint8"
        }
      ],
      "stateMutability": "view",
      "type": "function"
    },
    {
      "inputs": [],
      "name": "timelock",
      "outputs": [
        {
          "internalType": "contract TimelockInterface",
          "name": "",
          "type": "address"
        }
      ],
      "stateMutability": "view",
      "type": "function"
    },
    {
      "inputs": [],
      "name": "votingDelay",
      "outputs": [
        {
          "internalType": "uint256",
          "name": "",
          "type": "uint256"
        }
      ],
      "stateMutability": "pure",
      "type": "function"
    },
    {
      "inputs": [],
      "name": "votingPeriod",
      "outputs": [
        {
          "internalType": "uint256",
          "name": "",
          "type": "uint256"
        }
      ],
      "stateMutability": "view",
      "type": "function"
    },
    {
      "inputs": [],
      "name": "votingPeriodBlocks",
      "outputs": [
        {
          "internalType": "uint48",
          "name": "",
          "type": "uint48"
        }
      ],
      "stateMutability": "view",
      "type": "function"
    },
    {
      "inputs": [],
      "name": "votingToken",
      "outputs": [
        {
          "internalType": "contract VotingTokenInterface",
          "name": "",
          "type": "address"
        }
      ],
      "stateMutability": "view",
      "type": "function"
    }
  ],
  "bytecode": "0x610100604052348015620000135760006000fd5b506040516200631238038062006312833981810160405281019062000039919062000386565b5b6040518060400160405280601281526020017f54435020476f7665726e6f7220416c706861000000000000000000000000000081526020015081600001518260200151836040015184606001515b84848484845b8460006000509080519060200190620000a99291906200029a565b50600073ffffffffffffffffffffffffffffffffffffffff168473ffffffffffffffffffffffffffffffffffffffff1614158015620001155750600073ffffffffffffffffffffffffffffffffffffffff168373ffffffffffffffffffffffffffffffffffffffff1614155b80156200014f5750600073ffffffffffffffffffffffffffffffffffffffff168273ffffffffffffffffffffffffffffffffffffffff1614155b15156200015c5760006000fd5b8373ffffffffffffffffffffffffffffffffffffffff1660808173ffffffffffffffffffffffffffffffffffffffff1660601b815260140150508273ffffffffffffffffffffffffffffffffffffffff1660c08173ffffffffffffffffffffffffffffffffffffffff1660601b8152601401505081600160006101000a81548173ffffffffffffffffffffffffffffffffffffffff021916908373ffffffffffffffffffffffffffffffffffffffff16021790555060008165ffffffffffff161115156200022a5760006000fd5b8065ffffffffffff1660a08165ffffffffffff1660d01b815260060150505b50505050505b5050505050806080015173ffffffffffffffffffffffffffffffffffffffff1660e08173ffffffffffffffffffffffffffffffffffffffff1660601b815260140150505b506200042e565b828054600181600116156101000203166002900490600052602060002090601f016020900481019282620002d2576000855562000323565b82601f10620002ed57805160ff191683800117855562000323565b8280016001018555821562000323579182015b8281111562000322578251826000509090559160200191906001019062000300565b5b50905062000332919062000336565b5090565b6200033c565b808211156200035857600081815060009055506001016200033c565b5090566200042d565b6000815190506001600160a01b03811681141515620003805760006000fd5b5b919050565b600060a0828403121562000398578081fd5b60405160a081018181106001600160401b0382111715620003b557fe5b8060405250620003c58362000361565b8152620003d56020840162000361565b6020820152620003e86040840162000361565b6040820152606083015165ffffffffffff81168114151562000408578283fd5b806060830152506200041d6080840162000361565b6080820152809150505b92915050565b5b60805160601c60a05160d01c60c05160601c60e05160601c615e4d620004c560003980610c2b528061358f528061367a5280613d0e525080610c5f528061116a52806115fb5280611ded528061235d5280612af25280612b3e52806139045250806107a75280612b16525080611bc75280611f475280612bf25280612cba52806131d65280613dbf5280613ed85250615e4d6000f3fe60806040523480156100115760006000fd5b50600436106101df5760003560e01c8063452a932011610105578063b24b7ffd116100a3578063ddf0b00911610072578063ddf0b0091461054f578063deaaa7cc1461056b578063e23a9a5214610589578063fe0d94c1146105b9576101df565b8063b24b7ffd146104d7578063b58131b0146104f5578063d33219b414610513578063da35c66414610531576101df565b80637bdbe4d0116100df5780637bdbe4d01461044b5780637e90f9ab146104695780639853d92214610487578063b0340123146104b9576101df565b8063452a9320146104075780634634c61f14610425578063760fbc1314610441576101df565b806317977c611161017d578063328dd9821161014c578063328dd9821461036b5780633932abb11461039d5780633e4f49e6146103bb57806340e58ee5146103eb576101df565b806317977c61146102e157806320606b701461031157806324bc1a641461032f57806329c0e5fd1461034d576101df565b806306fdde03116101b957806306fdde03146102595780630c340a241461027757806311e91b9a1461029557806315373e3d146102c5576101df565b8063013cf08b146101e557806302a251a31461021f578063062f14661461023d576101df565b60006000fd5b6101ff60048036038101906101fa91906148ae565b6105d5565b6040516102169b9a999897969594939291906152b1565b60405180910390f35b6102276107a3565b6040516102349190615ce6565b60405180910390f35b61025760048036038101906102529190614775565b6107d8565b005b610261610b88565b60405161026e9190615295565b60405180910390f35b61027f610c29565b60405161028c9190615204565b60405180910390f35b6102af60048036038101906102aa919061465c565b610c4d565b6040516102bc9190615ce6565b60405180910390f35b6102df60048036038101906102da9190614913565b61159c565b005b6102fb60048036038101906102f69190614639565b6115b6565b6040516103089190615ce6565b60405180910390f35b6103196115d1565b6040516103269190615169565b60405180910390f35b6103376115f5565b6040516103449190615ce6565b60405180910390f35b6103556116ad565b6040516103629190615ce6565b60405180910390f35b610385600480360381019061038091906148ae565b6116b8565b60405161039493929190614f4b565b60405180910390f35b6103a561195c565b6040516103b29190615ce6565b60405180910390f35b6103d560048036038101906103d091906148ae565b61196a565b6040516103e2919061527c565b60405180910390f35b610405600480360381019061040091906148ae565b611c9d565b005b61040f6120b2565b60405161041c9190614da5565b60405180910390f35b61043f600480360381019061043a9190614944565b6120d8565b005b6104496122b6565b005b61045361234b565b6040516104609190615ce6565b60405180910390f35b610471612359565b60405161047e9190614da5565b60405180910390f35b6104a1600480360381019061049c9190614639565b612386565b6040516104b093929190614f90565b60405180910390f35b6104c1612af0565b6040516104ce9190615254565b60405180910390f35b6104df612b14565b6040516104ec9190615cf8565b60405180910390f35b6104fd612b38565b60405161050a9190615ce6565b60405180910390f35b61051b612bf0565b604051610528919061522c565b60405180910390f35b610539612c14565b6040516105469190615cf8565b60405180910390f35b610569600480360381019061056491906148ae565b612c2c565b005b610573612fc8565b6040516105809190615169565b60405180910390f35b6105a3600480360381019061059e91906148e6565b612fec565b6040516105b09190615ccd565b60405180910390f35b6105d360048036038101906105ce91906148ae565b613118565b005b6003600050602052806000526040600020600091509050806003016000508054600181600116156101000203166002900480601f0160208091040260200160405190810160405280929190818152602001828054600181600116156101000203166002900480156106875780601f1061065c57610100808354040283529160200191610687565b820191906000526020600020905b81548152906001019060200180831161066a57829003601f168201915b5050505050908060040160009054906101000a900473ffffffffffffffffffffffffffffffffffffffff16908060040160149054906101000a900465ffffffffffff169080600401601a9054906101000a900465ffffffffffff16908060050160009054906101000a90046fffffffffffffffffffffffffffffffff16908060050160109054906101000a900465ffffffffffff16908060050160169054906101000a900465ffffffffffff169080600501601c9054906101000a900460ff169080600501601d9054906101000a900460ff16908060060160009054906101000a90046fffffffffffffffffffffffffffffffff16908060060160109054906101000a90046fffffffffffffffffffffffffffffffff1690508b565b60007f000000000000000000000000000000000000000000000000000000000000000065ffffffffffff1690506107d5565b90565b6000600090505b82829050811015610b8257600083838381811015156107fa57fe5b9050602002013590506108128161336863ffffffff16565b1515610853576040517f08c379a000000000000000000000000000000000000000000000000000000000815260040161084a90615478565b60405180910390fd5b6002600050600082815260200190815260200160002060005060003373ffffffffffffffffffffffffffffffffffffffff1673ffffffffffffffffffffffffffffffffffffffff16815260200190815260200160002060005060000160009054906101000a900460ff1615156108fe576040517f08c379a00000000000000000000000000000000000000000000000000000000081526004016108f59061555b565b60405180910390fd5b60006002600050600083815260200190815260200160002060005060003373ffffffffffffffffffffffffffffffffffffffff1673ffffffffffffffffffffffffffffffffffffffff16815260200190815260200160002060005090508060000160029054906101000a900460ff161515156109af576040517f08c379a00000000000000000000000000000000000000000000000000000000081526004016109a69061585d565b60405180910390fd5b60018160000160026101000a81548160ff021916908315150217905550600060036000506000848152602001908152602001600020600050905060008260000160039054906101000a900476ffffffffffffffffffffffffffffffffffffffffffffff1676ffffffffffffffffffffffffffffffffffffffffffffff1690506000610aa48360050160009054906101000a90046fffffffffffffffffffffffffffffffff166fffffffffffffffffffffffffffffffff168460060160009054906101000a90046fffffffffffffffffffffffffffffffff166fffffffffffffffffffffffffffffffff1661340863ffffffff16565b90506000610af46611c37937e080008560060160109054906101000a90046fffffffffffffffffffffffffffffffff166fffffffffffffffffffffffffffffffff1661346690919063ffffffff16565b90506000610b0d84848461348c9092919063ffffffff16565b9050610b1f338261358d63ffffffff16565b3373ffffffffffffffffffffffffffffffffffffffff167f56cd411799f8eaf36ff267057223a17836afa0a91a109fe7e102ef919e6fa19d82604051610b659190615ce6565b60405180910390a2505050505050505b80806001019150506107df565b505b5050565b60006000508054600181600116156101000203166002900480601f016020809104026020016040519081016040528092919081815260200182805460018160011615610100020316600290048015610c215780601f10610bf657610100808354040283529160200191610c21565b820191906000526020600020905b815481529060010190602001808311610c0457829003601f168201915b505050505081565b7f000000000000000000000000000000000000000000000000000000000000000081565b6000610c5d612b3863ffffffff16565b7f000000000000000000000000000000000000000000000000000000000000000073ffffffffffffffffffffffffffffffffffffffff1663782d6fe133610cab43600161362163ffffffff16565b6040518363ffffffff1660e01b8152600401610cc8929190614dcd565b60206040518083038186803b158015610ce15760006000fd5b505afa158015610cf6573d600060003e3d6000fd5b505050506040513d601f19601f82011682018060405250810190610d1a91906148ca565b111515610d5c576040517f08c379a0000000000000000000000000000000000000000000000000000000008152600401610d53906159f1565b60405180910390fd5b83518551148015610d6e575082518551145b1515610daf576040517f08c379a0000000000000000000000000000000000000000000000000000000008152600401610da69061576d565b60405180910390fd5b60008551111515610df5576040517f08c379a0000000000000000000000000000000000000000000000000000000008152600401610dec9061598c565b60405180910390fd5b610e0361234b63ffffffff16565b855111151515610e48576040517f08c379a0000000000000000000000000000000000000000000000000000000008152600401610e3f906156c9565b60405180910390fd5b6000600460005060003373ffffffffffffffffffffffffffffffffffffffff1673ffffffffffffffffffffffffffffffffffffffff1681526020019081526020016000206000505490506000811115610f68576000610eac8261196a63ffffffff16565b905060016007811115610ebb57fe5b816007811115610ec757fe5b14151515610f0a576040517f08c379a0000000000000000000000000000000000000000000000000000000008152600401610f0190615abb565b60405180910390fd5b60006007811115610f1757fe5b816007811115610f2357fe5b14151515610f66576040517f08c379a0000000000000000000000000000000000000000000000000000000008152600401610f5d9061563e565b60405180910390fd5b505b6000600090505b8551811015610fc057610fb28782815181101515610f8957fe5b60200260200101518783815181101515610f9f57fe5b602002602001015161367863ffffffff16565b5b8080600101915050610f6f565b506000610fe043610fd561195c63ffffffff16565b61340863ffffffff16565b9050600061100182610ff66107a363ffffffff16565b61340863ffffffff16565b90506001601481819054906101000a900465ffffffffffff168092919060010191906101000a81548165ffffffffffff021916908365ffffffffffff160217905550506601000000000000600160149054906101000a900465ffffffffffff1665ffffffffffff161015156110765760006000fd5b6000604051806101c001604052808a81526020018981526020018881526020018781526020013373ffffffffffffffffffffffffffffffffffffffff168152602001600065ffffffffffff168152602001600160149054906101000a900465ffffffffffff1665ffffffffffff16815260200160006fffffffffffffffffffffffffffffffff1681526020016111118561370a63ffffffff16565b65ffffffffffff16815260200161112d8461370a63ffffffff16565b65ffffffffffff16815260200160001515815260200160001515815260200160006fffffffffffffffffffffffffffffffff1681526020016112137f000000000000000000000000000000000000000000000000000000000000000073ffffffffffffffffffffffffffffffffffffffff166318160ddd6040518163ffffffff1660e01b815260040160206040518083038186803b1580156111cf5760006000fd5b505afa1580156111e4573d600060003e3d6000fd5b505050506040513d601f19601f8201168201806040525081019061120891906148ca565b61376463ffffffff16565b6fffffffffffffffffffffffffffffffff16815260200150905080600360005060008360c0015165ffffffffffff1681526020019081526020016000206000506000820151816000016000509080519060200190611272929190613ffc565b506020820151816001016000509080519060200190611292929190614086565b5060408201518160020160005090805190602001906112b29291906140e6565b5060608201518160030160005090805190602001906112d2929190614146565b5060808201518160040160006101000a81548173ffffffffffffffffffffffffffffffffffffffff021916908373ffffffffffffffffffffffffffffffffffffffff16021790555060a08201518160040160146101000a81548165ffffffffffff021916908365ffffffffffff16021790555060c082015181600401601a6101000a81548165ffffffffffff021916908365ffffffffffff16021790555060e08201518160050160006101000a8154816fffffffffffffffffffffffffffffffff02191690836fffffffffffffffffffffffffffffffff1602179055506101008201518160050160106101000a81548165ffffffffffff021916908365ffffffffffff1602179055506101208201518160050160166101000a81548165ffffffffffff021916908365ffffffffffff16021790555061014082015181600501601c6101000a81548160ff02191690831515021790555061016082015181600501601d6101000a81548160ff0219169083151502179055506101808201518160060160006101000a8154816fffffffffffffffffffffffffffffffff02191690836fffffffffffffffffffffffffffffffff1602179055506101a08201518160060160106101000a8154816fffffffffffffffffffffffffffffffff02191690836fffffffffffffffffffffffffffffffff1602179055509050508060c0015165ffffffffffff1660046000506000836080015173ffffffffffffffffffffffffffffffffffffffff1673ffffffffffffffffffffffffffffffffffffffff1681526020019081526020016000206000508190909055503373ffffffffffffffffffffffffffffffffffffffff168160c0015165ffffffffffff167fcd423cc1203c0af96b9b3d68d73b3064a69de2d14450bb7181c5e5df2132b35860405160405180910390a38060c0015165ffffffffffff1694505050505061159456505050505b949350505050565b6115ad3383836137c863ffffffff16565b6115b2565b5050565b60046000506020528060005260406000206000915090505481565b7f8cad95687ba82c2ce50e74f7b754645e5117c3a5bec8151c0726d5857980a86681565b600060287f000000000000000000000000000000000000000000000000000000000000000073ffffffffffffffffffffffffffffffffffffffff166318160ddd6040518163ffffffff1660e01b815260040160206040518083038186803b1580156116605760006000fd5b505afa158015611675573d600060003e3d6000fd5b505050506040513d601f19601f8201168201806040525081019061169991906148ca565b8115156116a257fe5b0490506116aa565b90565b6611c37937e0800081565b60606060606060006003600050600086815260200190815260200160002060005090508060000160005081600101600050826002016000508280548060200260200160405190810160405280929190818152602001828054801561177157602002820191906000526020600020905b8160009054906101000a900473ffffffffffffffffffffffffffffffffffffffff1673ffffffffffffffffffffffffffffffffffffffff1681526020019060010190808311611727575b5050505050925081805480602002602001604051908101604052809291908181526020016000905b8282101561185a578382906000526020600020900160005b508054600181600116156101000203166002900480601f0160208091040260200160405190810160405280929190818152602001828054600181600116156101000203166002900480156118465780601f1061181b57610100808354040283529160200191611846565b820191906000526020600020905b81548152906001019060200180831161182957829003601f168201915b505050505081526020019060010190611799565b50505050915080805480602002602001604051908101604052809291908181526020016000905b82821015611942578382906000526020600020900160005b508054600181600116156101000203166002900480601f01602080910402602001604051908101604052809291908181526020018280546001816001161561010002031660029004801561192e5780601f106119035761010080835404028352916020019161192e565b820191906000526020600020905b81548152906001019060200180831161191157829003601f168201915b505050505081526020019060010190611881565b5050505090509350935093505061195556505b9193909250565b600060019050611967565b90565b600081600160149054906101000a900465ffffffffffff1665ffffffffffff16101580156119985750600082115b15156119d9576040517f08c379a00000000000000000000000000000000000000000000000000000000081526004016119d0906154f6565b60405180910390fd5b600060036000506000848152602001908152602001600020600050905080600501601c9054906101000a900460ff1615611a1b576002915050611c9856611c96565b8060050160109054906101000a900465ffffffffffff1665ffffffffffff1643111515611a50576000915050611c9856611c95565b8060050160169054906101000a900465ffffffffffff1665ffffffffffff1643111515611a85576001915050611c9856611c94565b8060060160009054906101000a90046fffffffffffffffffffffffffffffffff166fffffffffffffffffffffffffffffffff168160050160009054906101000a90046fffffffffffffffffffffffffffffffff166fffffffffffffffffffffffffffffffff16111580611b365750611b016115f563ffffffff16565b8160050160009054906101000a90046fffffffffffffffffffffffffffffffff166fffffffffffffffffffffffffffffffff16105b15611b49576003915050611c9856611c93565b60008160040160149054906101000a900465ffffffffffff1665ffffffffffff161415611b7e576004915050611c9856611c92565b80600501601d9054906101000a900460ff1615611ba3576007915050611c9856611c91565b611c708160040160149054906101000a900465ffffffffffff1665ffffffffffff167f000000000000000000000000000000000000000000000000000000000000000073ffffffffffffffffffffffffffffffffffffffff1663c1a287e26040518163ffffffff1660e01b815260040160206040518083038186803b158015611c2c5760006000fd5b505afa158015611c41573d600060003e3d6000fd5b505050506040513d601f19601f82011682018060405250810190611c6591906148ca565b61340863ffffffff16565b42101515611c86576006915050611c9856611c90565b6005915050611c98565b5b5b5b5b5b5b505b919050565b60076007811115611caa57fe5b611cb98261196a63ffffffff16565b6007811115611cc457fe5b14151515611d07576040517f08c379a0000000000000000000000000000000000000000000000000000000008152600401611cfe90615b85565b60405180910390fd5b60006003600050600083815260200190815260200160002060005090508060050160169054906101000a900465ffffffffffff1665ffffffffffff1643101515611d86576040517f08c379a0000000000000000000000000000000000000000000000000000000008152600401611d7d90615927565b60405180910390fd5b600160009054906101000a900473ffffffffffffffffffffffffffffffffffffffff1673ffffffffffffffffffffffffffffffffffffffff163373ffffffffffffffffffffffffffffffffffffffff161480611ece5750611deb612b3863ffffffff16565b7f000000000000000000000000000000000000000000000000000000000000000073ffffffffffffffffffffffffffffffffffffffff1663782d6fe18360040160009054906101000a900473ffffffffffffffffffffffffffffffffffffffff16611e5d43600161362163ffffffff16565b6040518363ffffffff1660e01b8152600401611e7a929190614ee5565b60206040518083038186803b158015611e935760006000fd5b505afa158015611ea8573d600060003e3d6000fd5b505050506040513d601f19601f82011682018060405250810190611ecc91906148ca565b105b1515611f0f576040517f08c379a0000000000000000000000000000000000000000000000000000000008152600401611f06906157f8565b60405180910390fd5b600181600501601c6101000a81548160ff0219169083151502179055506000600090505b816000016000508054905081101561207f577f000000000000000000000000000000000000000000000000000000000000000073ffffffffffffffffffffffffffffffffffffffff16624b1f128360000160005083815481101515611f9457fe5b906000526020600020900160005b9054906101000a900473ffffffffffffffffffffffffffffffffffffffff168460010160005084815481101515611fd557fe5b906000526020600020900160005b508560020160005085815481101515611ff857fe5b906000526020600020900160005b508660040160149054906101000a900465ffffffffffff166040518563ffffffff1660e01b815260040161203d9493929190614e89565b600060405180830381600087803b1580156120585760006000fd5b505af115801561206d573d600060003e3d6000fd5b505050505b8080600101915050611f33565b50817f789cf55be980739dad1d0699b93b58e806b51c9d96619bfa8fe0a28abaa7b30c60405160405180910390a2505b50565b600160009054906101000a900473ffffffffffffffffffffffffffffffffffffffff1681565b60007f8cad95687ba82c2ce50e74f7b754645e5117c3a5bec8151c0726d5857980a866600060005060405161210d9190614cce565b6040518091039020612123613c9d63ffffffff16565b30604051602001612137949392919061517b565b60405160208183030381529060405280519060200120905060007f8e25870c07e0b0b3884c78da52790939a455c275406c44ae8b434b692fb916ee8787604051602001612186939291906151b8565b604051602081830303815290604052805190602001209050600082826040516020016121b3929190614d66565b6040516020818303038152906040528051906020012090506000600182888888604051600081526020016040526040516121f094939291906151da565b6020604051602081039080840390855afa158015612213573d600060003e3d6000fd5b505050602060405103519050600073ffffffffffffffffffffffffffffffffffffffff168173ffffffffffffffffffffffffffffffffffffffff1614151515612291576040517f08c379a000000000000000000000000000000000000000000000000000000000815260040161228890615a56565b60405180910390fd5b6122a2818a8a6137c863ffffffff16565b505050506122af56505050505b5050505050565b6122c533613cb163ffffffff16565b1515612306576040517f08c379a00000000000000000000000000000000000000000000000000000000081526004016122fd9061559a565b60405180910390fd5b6000600160006101000a81548173ffffffffffffffffffffffffffffffffffffffff021916908373ffffffffffffffffffffffffffffffffffffffff1602179055505b565b6000600a9050612356565b90565b60007f00000000000000000000000000000000000000000000000000000000000000009050612383565b90565b6060606060606000600160149054906101000a900465ffffffffffff1665ffffffffffff1690508067ffffffffffffffff811180156123c55760006000fd5b506040519080825280602002602001820160405280156123ff57816020015b6123ec6141d9565b8152602001906001900390816123e45790505b50935083508067ffffffffffffffff8111801561241c5760006000fd5b5060405190808252806020026020018201604052801561244b5781602001602082028036833780820191505090505b50925082508067ffffffffffffffff811180156124685760006000fd5b506040519080825280602002602001820160405280156124a257816020015b61248f6142bb565b8152602001906001900390816124875790505b50915081506000600190505b818165ffffffffffff16111515612ae657600360005060008265ffffffffffff168152602001908152602001600020600050604051806101c00160405290816000820160005080548060200260200160405190810160405280929190818152602001828054801561257457602002820191906000526020600020905b8160009054906101000a900473ffffffffffffffffffffffffffffffffffffffff1673ffffffffffffffffffffffffffffffffffffffff168152602001906001019080831161252a575b5050505050815260200160018201600050805480602002602001604051908101604052809291908181526020016000905b82821015612666578382906000526020600020900160005b508054600181600116156101000203166002900480601f0160208091040260200160405190810160405280929190818152602001828054600181600116156101000203166002900480156126525780601f1061262757610100808354040283529160200191612652565b820191906000526020600020905b81548152906001019060200180831161263557829003601f168201915b5050505050815260200190600101906125a5565b50505050815260200160028201600050805480602002602001604051908101604052809291908181526020016000905b82821015612757578382906000526020600020900160005b508054600181600116156101000203166002900480601f0160208091040260200160405190810160405280929190818152602001828054600181600116156101000203166002900480156127435780601f1061271857610100808354040283529160200191612743565b820191906000526020600020905b81548152906001019060200180831161272657829003601f168201915b505050505081526020019060010190612696565b505050508152602001600382016000508054600181600116156101000203166002900480601f0160208091040260200160405190810160405280929190818152602001828054600181600116156101000203166002900480156127fb5780601f106127d0576101008083540402835291602001916127fb565b820191906000526020600020905b8154815290600101906020018083116127de57829003601f168201915b505050505081526020016004820160009054906101000a900473ffffffffffffffffffffffffffffffffffffffff1673ffffffffffffffffffffffffffffffffffffffff1673ffffffffffffffffffffffffffffffffffffffff1681526020016004820160149054906101000a900465ffffffffffff1665ffffffffffff1665ffffffffffff16815260200160048201601a9054906101000a900465ffffffffffff1665ffffffffffff1665ffffffffffff1681526020016005820160009054906101000a90046fffffffffffffffffffffffffffffffff166fffffffffffffffffffffffffffffffff166fffffffffffffffffffffffffffffffff1681526020016005820160109054906101000a900465ffffffffffff1665ffffffffffff1665ffffffffffff1681526020016005820160169054906101000a900465ffffffffffff1665ffffffffffff1665ffffffffffff16815260200160058201601c9054906101000a900460ff1615151515815260200160058201601d9054906101000a900460ff161515151581526020016006820160009054906101000a90046fffffffffffffffffffffffffffffffff166fffffffffffffffffffffffffffffffff166fffffffffffffffffffffffffffffffff1681526020016006820160109054906101000a90046fffffffffffffffffffffffffffffffff166fffffffffffffffffffffffffffffffff166fffffffffffffffffffffffffffffffff1681526020015050856001830365ffffffffffff16815181101515612a3a57fe5b6020026020010181905250612a5c8165ffffffffffff1661196a63ffffffff16565b846001830365ffffffffffff16815181101515612a7557fe5b60200260200101906007811115612a8857fe5b90816007811115612a9557fe5b81526020015050612ab48165ffffffffffff1687612fec63ffffffff16565b836001830365ffffffffffff16815181101515612acd57fe5b60200260200101819052505b80806001019150506124ae565b50505b9193909250565b7f000000000000000000000000000000000000000000000000000000000000000081565b7f000000000000000000000000000000000000000000000000000000000000000081565b600060c87f000000000000000000000000000000000000000000000000000000000000000073ffffffffffffffffffffffffffffffffffffffff166318160ddd6040518163ffffffff1660e01b815260040160206040518083038186803b158015612ba35760006000fd5b505afa158015612bb8573d600060003e3d6000fd5b505050506040513d601f19601f82011682018060405250810190612bdc91906148ca565b811515612be557fe5b049050612bed565b90565b7f000000000000000000000000000000000000000000000000000000000000000081565b600160149054906101000a900465ffffffffffff1681565b60046007811115612c3957fe5b612c488261196a63ffffffff16565b6007811115612c5357fe5b141515612c95576040517f08c379a0000000000000000000000000000000000000000000000000000000008152600401612c8c90615362565b60405180910390fd5b60006003600050600083815260200190815260200160002060005090506000612d63427f000000000000000000000000000000000000000000000000000000000000000073ffffffffffffffffffffffffffffffffffffffff16636a42b8f86040518163ffffffff1660e01b815260040160206040518083038186803b158015612d1f5760006000fd5b505afa158015612d34573d600060003e3d6000fd5b505050506040513d601f19601f82011682018060405250810190612d5891906148ca565b61340863ffffffff16565b90506000600090505b8260000160005080549050811015612f5457612f468360000160005082815481101515612d9557fe5b906000526020600020900160005b9054906101000a900473ffffffffffffffffffffffffffffffffffffffff168460010160005083815481101515612dd657fe5b906000526020600020900160005b508054600181600116156101000203166002900480601f016020809104026020016040519081016040528092919081815260200182805460018160011615610100020316600290048015612e795780601f10612e4e57610100808354040283529160200191612e79565b820191906000526020600020905b815481529060010190602001808311612e5c57829003601f168201915b50505050508560020160005084815481101515612e9257fe5b906000526020600020900160005b508054600181600116156101000203166002900480601f016020809104026020016040519081016040528092919081815260200182805460018160011615610100020316600290048015612f355780601f10612f0a57610100808354040283529160200191612f35565b820191906000526020600020905b815481529060010190602001808311612f1857829003601f168201915b505050505085613dbd63ffffffff16565b5b8080600101915050612d6c565b50612f648161370a63ffffffff16565b8260040160146101000a81548165ffffffffffff021916908365ffffffffffff160217905550827f9a2e42fd6722813d69113e7d0079d3d940171428df7373df9c7f7617cfda289282604051612fba9190615ce6565b60405180910390a250505b50565b7f8e25870c07e0b0b3884c78da52790939a455c275406c44ae8b434b692fb916ee81565b612ff46142bb565b6002600050600084815260200190815260200160002060005060008373ffffffffffffffffffffffffffffffffffffffff1673ffffffffffffffffffffffffffffffffffffffff1681526020019081526020016000206000506040518060800160405290816000820160009054906101000a900460ff161515151581526020016000820160019054906101000a900460ff161515151581526020016000820160029054906101000a900460ff161515151581526020016000820160039054906101000a900476ffffffffffffffffffffffffffffffffffffffffffffff1676ffffffffffffffffffffffffffffffffffffffffffffff1676ffffffffffffffffffffffffffffffffffffffffffffff16815260200150509050613112565b92915050565b6005600781111561312557fe5b6131348261196a63ffffffff16565b600781111561313f57fe5b141515613181576040517f08c379a0000000000000000000000000000000000000000000000000000000008152600401613178906153ed565b60405180910390fd5b6000600360005060008381526020019081526020016000206000509050600181600501601d6101000a81548160ff0219169083151502179055506000600090505b8160000160005080549050811015613335577f000000000000000000000000000000000000000000000000000000000000000073ffffffffffffffffffffffffffffffffffffffff16633ec5ab32836000016000508381548110151561322457fe5b906000526020600020900160005b9054906101000a900473ffffffffffffffffffffffffffffffffffffffff16846001016000508481548110151561326557fe5b906000526020600020900160005b50856002016000508581548110151561328857fe5b906000526020600020900160005b508660040160149054906101000a900465ffffffffffff166040518563ffffffff1660e01b81526004016132cd9493929190614e89565b600060405180830381600087803b1580156132e85760006000fd5b505af11580156132fd573d600060003e3d6000fd5b505050506040513d6000823e3d601f19601f82011682018060405250810190613326919061482d565b505b80806001019150506131c2565b50817f712ae1383f79ac853f8d882153778e0260ef8f03b504e2866e0593e04d2b291f60405160405180910390a2505b50565b6000600061337b8361196a63ffffffff16565b90506004600781111561338a57fe5b81600781111561339657fe5b14806133b85750600360078111156133aa57fe5b8160078111156133b657fe5b145b806133d95750600560078111156133cb57fe5b8160078111156133d757fe5b145b806133fa5750600760078111156133ec57fe5b8160078111156133f857fe5b145b91505061340356505b919050565b600060008284019050838110151515613456576040517f08c379a000000000000000000000000000000000000000000000000000000000815260040161344d9061572e565b60405180910390fd5b8091505061346056505b92915050565b60006134818383670de0b6b3a764000061348c63ffffffff16565b905080505b92915050565b60006000600060001985870985870292508281108382030391505060008114156134cf576000841115156134c05760006000fd5b83820492508292505050613586565b80841115156134de5760006000fd5b60008486880990508281118203915080830392506000858660000316905080860495508084049350600181826000030401905080830284179350835060006002876003021890508087026002038102905080508087026002038102905080508087026002038102905080508087026002038102905080508087026002038102905080508087026002038102905080508085029550855085955050505050506135865650505050505b9392505050565b7f000000000000000000000000000000000000000000000000000000000000000073ffffffffffffffffffffffffffffffffffffffff16630793298783836040518363ffffffff1660e01b81526004016135e8929190614ee5565b600060405180830381600087803b1580156136035760006000fd5b505af1158015613618573d600060003e3d6000fd5b505050505b5050565b6000828211151515613668576040517f08c379a000000000000000000000000000000000000000000000000000000000815260040161365f90615c8e565b60405180910390fd5b8183039050613672565b92915050565b7f000000000000000000000000000000000000000000000000000000000000000073ffffffffffffffffffffffffffffffffffffffff1663a43c36af83836040518363ffffffff1660e01b81526004016136d3929190614dfc565b60006040518083038186803b1580156136ec5760006000fd5b505afa158015613701573d600060003e3d6000fd5b505050505b5050565b6000660100000000000082101515613757576040517f08c379a000000000000000000000000000000000000000000000000000000000815260040161374e90615b46565b60405180910390fd5b81905061375f565b919050565b6000700100000000000000000000000000000000821015156137bb576040517f08c379a00000000000000000000000000000000000000000000000000000000081526004016137b2906154b7565b60405180910390fd5b8190506137c3565b919050565b600160078111156137d557fe5b6137e48361196a63ffffffff16565b60078111156137ef57fe5b141515613831576040517f08c379a000000000000000000000000000000000000000000000000000000000815260040161382890615bea565b60405180910390fd5b6000600360005060008481526020019081526020016000206000509050600015156002600050600085815260200190815260200160002060005060008673ffffffffffffffffffffffffffffffffffffffff1673ffffffffffffffffffffffffffffffffffffffff16815260200190815260200160002060005060000160009054906101000a900460ff161515141515613900576040517f08c379a00000000000000000000000000000000000000000000000000000000081526004016138f7906155d9565b60405180910390fd5b60007f000000000000000000000000000000000000000000000000000000000000000073ffffffffffffffffffffffffffffffffffffffff1663782d6fe1868460050160109054906101000a900465ffffffffffff166040518363ffffffff1660e01b8152600401613973929190614f14565b60206040518083038186803b15801561398c5760006000fd5b505afa1580156139a1573d600060003e3d6000fd5b505050506040513d601f19601f820116820180604052508101906139c591906148ca565b90508215613a5c57613a1d613a128360050160009054906101000a90046fffffffffffffffffffffffffffffffff166fffffffffffffffffffffffffffffffff168361340863ffffffff16565b61376463ffffffff16565b8260050160006101000a8154816fffffffffffffffffffffffffffffffff02191690836fffffffffffffffffffffffffffffffff160217905550613ae7565b613aac613aa18360060160009054906101000a90046fffffffffffffffffffffffffffffffff166fffffffffffffffffffffffffffffffff168361340863ffffffff16565b61376463ffffffff16565b8260060160006101000a8154816fffffffffffffffffffffffffffffffff02191690836fffffffffffffffffffffffffffffffff1602179055505b60405180608001604052806001151581526020018415158152602001600015158152602001613b1b83613f9163ffffffff16565b76ffffffffffffffffffffffffffffffffffffffffffffff168152602001506002600050600086815260200190815260200160002060005060008773ffffffffffffffffffffffffffffffffffffffff1673ffffffffffffffffffffffffffffffffffffffff16815260200190815260200160002060005060008201518160000160006101000a81548160ff02191690831515021790555060208201518160000160016101000a81548160ff02191690831515021790555060408201518160000160026101000a81548160ff02191690831515021790555060608201518160000160036101000a81548176ffffffffffffffffffffffffffffffffffffffffffffff021916908376ffffffffffffffffffffffffffffffffffffffffffffff160217905550905050821515848673ffffffffffffffffffffffffffffffffffffffff167f877856338e13f63d0c36822ff0ef736b80934cd90574a3a5bc9262c39d217c4684604051613c8d9190615ce6565b60405180910390a450505b505050565b6000600046905080915050613cae56505b90565b6000600160009054906101000a900473ffffffffffffffffffffffffffffffffffffffff1673ffffffffffffffffffffffffffffffffffffffff168273ffffffffffffffffffffffffffffffffffffffff161480613db1575060017f000000000000000000000000000000000000000000000000000000000000000073ffffffffffffffffffffffffffffffffffffffff1663055ad42e6040518163ffffffff1660e01b815260040160206040518083038186803b158015613d735760006000fd5b505afa158015613d88573d600060003e3d6000fd5b505050506040513d601f19601f82011682018060405250810190613dac919061499e565b60ff16115b9050613db8565b919050565b7f000000000000000000000000000000000000000000000000000000000000000073ffffffffffffffffffffffffffffffffffffffff1663f2b0653785858585604051602001613e109493929190614e35565b604051602081830303815290604052805190602001206040518263ffffffff1660e01b8152600401613e429190615169565b60206040518083038186803b158015613e5b5760006000fd5b505afa158015613e70573d600060003e3d6000fd5b505050506040513d601f19601f82011682018060405250810190613e9491906147ea565b151515613ed6576040517f08c379a0000000000000000000000000000000000000000000000000000000008152600401613ecd9061589c565b60405180910390fd5b7f000000000000000000000000000000000000000000000000000000000000000073ffffffffffffffffffffffffffffffffffffffff16630e70eace858585856040518563ffffffff1660e01b8152600401613f359493929190614e35565b602060405180830381600087803b158015613f505760006000fd5b505af1158015613f65573d600060003e3d6000fd5b505050506040513d601f19601f82011682018060405250810190613f899190614811565b505b50505050565b60007701000000000000000000000000000000000000000000000082101515613fef576040517f08c379a0000000000000000000000000000000000000000000000000000000008152600401613fe690615c4f565b60405180910390fd5b819050613ff7565b919050565b828054828255906000526020600020908101928215614075579160200282015b828111156140745782518260006101000a81548173ffffffffffffffffffffffffffffffffffffffff021916908373ffffffffffffffffffffffffffffffffffffffff1602179055509160200191906001019061401c565b5b5090506140829190614305565b5090565b8280548282559060005260206000209081019282156140d5579160200282015b828111156140d45782518290805190602001906140c4929190614146565b50916020019190600101906140a6565b5b5090506140e29190614328565b5090565b828054828255906000526020600020908101928215614135579160200282015b82811115614134578251829080519060200190614124929190614350565b5091602001919060010190614106565b5b50905061414291906143e3565b5090565b828054600181600116156101000203166002900490600052602060002090601f01602090048101928261417c57600085556141c8565b82601f1061419557805160ff19168380011785556141c8565b828001600101855582156141c8579182015b828111156141c757825182600050909055916020019190600101906141a7565b5b5090506141d59190614305565b5090565b604051806101c0016040528060608152602001606081526020016060815260200160608152602001600073ffffffffffffffffffffffffffffffffffffffff168152602001600065ffffffffffff168152602001600065ffffffffffff16815260200160006fffffffffffffffffffffffffffffffff168152602001600065ffffffffffff168152602001600065ffffffffffff16815260200160001515815260200160001515815260200160006fffffffffffffffffffffffffffffffff16815260200160006fffffffffffffffffffffffffffffffff1681526020015090565b6040518060800160405280600015158152602001600015158152602001600015158152602001600076ffffffffffffffffffffffffffffffffffffffffffffff1681526020015090565b61430a565b80821115614324576000818150600090555060010161430a565b5090565b61432d565b8082111561434c5760008181614343919061440b565b5060010161432d565b5090565b828054600181600116156101000203166002900490600052602060002090601f01602090048101928261438657600085556143d2565b82601f1061439f57805160ff19168380011785556143d2565b828001600101855582156143d2579182015b828111156143d157825182600050909055916020019190600101906143b1565b5b5090506143df9190614305565b5090565b6143e8565b8082111561440757600081816143fe9190614453565b506001016143e8565b5090565b50805460018160011615610100020316600290046000825580601f106144315750614450565b601f01602090049060005260206000209081019061444f9190614305565b5b50565b50805460018160011615610100020316600290046000825580601f106144795750614498565b601f0160209004906000526020600020908101906144979190614305565b5b5056615e16565b60006144b26144ad84615d60565b615d12565b90508281528383830111156144c75760006000fd5b828260208301376000602084830101525b9392505050565b60008135905073ffffffffffffffffffffffffffffffffffffffff81168114151561450a5760006000fd5b5b919050565b600082601f8301121515614522578081fd5b8135602061453761453283615d3d565b615d12565b808382528282019150828601855b8581101561458b578135880189603f8201121515614561578788fd5b6145728a878301356040840161449f565b855250848401935084820191505b600181019050614545565b5050809450505050505b92915050565b600082601f83011215156145ad578081fd5b813560206145c26145bd83615d3d565b615d12565b808382528282019150828601855b858110156145ff576145e7898684358b010161460f565b8452848401935084820191505b6001810190506145d0565b5050809450505050505b92915050565b600082601f8301121515614621578081fd5b6146308383356020850161449f565b90505b92915050565b60006020828403121561464a578081fd5b614653826144df565b90505b92915050565b600060006000600060808587031215614673578283fd5b843567ffffffffffffffff8082111561468a578485fd5b818701915087601f830112151561469f578485fd5b813560206146b46146af83615d3d565b615d12565b8083825282820191508286018c8485870289010111156146d257898afd5b8996505b848710156146ff576146e7816144df565b8352838301925083810190505b6001870196506146d6565b508099505050808901359350505080821115614719578485fd5b6147258883890161459b565b9450604087013591508082111561473a578384fd5b61474688838901614510565b9350606087013591508082111561475b578283fd5b506147688782880161460f565b9150505b92959194509250565b6000600060208385031215614788578182fd5b823567ffffffffffffffff8082111561479f578384fd5b818501915085601f83011215156147b4578384fd5b8135818111156147c2578485fd5b8660206020830285010111156147d6578485fd5b6020830194508093505050505b9250929050565b6000602082840312156147fb578081fd5b815161480681615deb565b809150505b92915050565b600060208284031215614822578081fd5b815190505b92915050565b60006020828403121561483e578081fd5b815167ffffffffffffffff811115614854578182fd5b808301905083601f8201121515614869578182fd5b805161487c61487782615d60565b615d12565b818152856020838501011115614890578384fd5b6148a1826020830160208601615db6565b8093505050505b92915050565b6000602082840312156148bf578081fd5b813590505b92915050565b6000602082840312156148db578081fd5b815190505b92915050565b60006000604083850312156148f9578182fd5b82359150614909602084016144df565b90505b9250929050565b6000600060408385031215614926578182fd5b82359150602083013561493881615deb565b809150505b9250929050565b6000600060006000600060a0868803121561495d578283fd5b85359450602086013561496f81615deb565b80945050604086013561498181615e00565b8093505060608601359150608086013590505b9295509295909350565b6000602082840312156149af578081fd5b81516149ba81615e00565b809150505b92915050565b73ffffffffffffffffffffffffffffffffffffffff811682525b5050565b6000815180845260208085019450808401835b83811015614a2e5773ffffffffffffffffffffffffffffffffffffffff8251168752828701965082820191505b6001810190506149f6565b505050508290505b92915050565b60008282518085526020808601955080818302840101818601855b84811015614aa9577fffffffffffffffffffffffffffffffffffffffffffffffffffffffffffffffe0868403018952614a91838351614b58565b9250838201915083890198505b600181019050614a57565b5050809450505050505b92915050565b6000815180845260208085019450808401835b83811015614af557614adf878351614c4a565b828701965082820191505b600181019050614acc565b505050508290505b92915050565b6000815180845260208085019450808401835b83811015614b4057614b29878351614c5e565b60808701965082820191505b600181019050614b16565b505050508290505b92915050565b80151582525b5050565b60008151808452614b70816020860160208601615db6565b60207fffffffffffffffffffffffffffffffffffffffffffffffffffffffffffffffe0601f8301168501019150505b92915050565b60008154600180821660008114614bc35760018114614bff57614c40565b607f600284041686527fffffffffffffffffffffffffffffffffffffffffffffffffffffffffffffff0083166020870152604086019350614c40565b60028304808752614c0f86615da5565b60005b82811015614c345781546020828b01015284820191505b602081019050614c12565b6020818a010196505050505b5050505b92915050565b600881101515614c5657fe5b8082525b5050565b80511515825260208101511515602083015260408101511515604083015276ffffffffffffffffffffffffffffffffffffffffffffff60608201511660608301525b5050565b6fffffffffffffffffffffffffffffffff811682525b5050565b65ffffffffffff811682525b5050565b6000808354600180821660008114614ced5760018114614d2257614d58565b7fffffffffffffffffffffffffffffffffffffffffffffffffffffffffffffff0083168652607f600284041686019350614d58565b600283048786526020808720875b83811015614d4e578154818b015285820191505b8281019050614d30565b5050508087019450505b505050809150505b92915050565b60007f190100000000000000000000000000000000000000000000000000000000000082528360028301528260228301526042820190505b9392505050565b600060208201905073ffffffffffffffffffffffffffffffffffffffff831682525b92915050565b600060408201905073ffffffffffffffffffffffffffffffffffffffff841682528260208301525b9392505050565b600073ffffffffffffffffffffffffffffffffffffffff8416825260406020830152614e2b6040830184614b58565b90505b9392505050565b600073ffffffffffffffffffffffffffffffffffffffff8616825260806020830152614e646080830186614b58565b8281036040840152614e768186614b58565b9150508260608301525b95945050505050565b600073ffffffffffffffffffffffffffffffffffffffff8616825260806020830152614eb86080830186614ba5565b8281036040840152614eca8186614ba5565b91505065ffffffffffff831660608301525b95945050505050565b600060408201905073ffffffffffffffffffffffffffffffffffffffff841682528260208301525b9392505050565b600060408201905073ffffffffffffffffffffffffffffffffffffffff8416825265ffffffffffff831660208301525b9392505050565b600060608252614f5e60608301866149e3565b8281036020840152614f708186614a3c565b90508281036040840152614f848185614a3c565b9150505b949350505050565b60006060808301818452808751808352608092508286019150602083818302880101818b01875b84811015615131577fffffffffffffffffffffffffffffffffffffffffffffffffffffffffffffff808a840301865281516101c08151818652614ffc828701826149e3565b91505085820151858203878701526150148282614a3c565b9150506040808301518683038288015261502e8382614a3c565b92505050898201518582038b8701526150478282614b58565b9150508882015161505a8a8701826149c5565b5060a08083015161506d82880182614cbe565b505060c08083015161508182880182614cbe565b505060e08083015161509582880182614ca4565b5050610100808301516150aa82880182614cbe565b5050610120808301516150bf82880182614cbe565b5050610140808301516150d482880182614b4e565b5050610160808301516150e982880182614b4e565b5050610180808301516150fe82880182614ca4565b50506101a080830151925061511581870184614ca4565b508094505050838201915083860195505b600181019050614fb7565b505087810382890152615144818b614ab9565b95505050505050828103604084015261515d8185614b03565b9150505b949350505050565b60006020820190508282525b92915050565b600060808201905085825284602083015283604083015273ffffffffffffffffffffffffffffffffffffffff831660608301525b95945050505050565b600060608201905084825283602083015282151560408301525b949350505050565b600060808201905085825260ff851660208301528360408301528260608301525b95945050505050565b600060208201905073ffffffffffffffffffffffffffffffffffffffff831682525b92915050565b600060208201905073ffffffffffffffffffffffffffffffffffffffff831682525b92915050565b600060208201905073ffffffffffffffffffffffffffffffffffffffff831682525b92915050565b600060208201905061528e8284614c4a565b5b92915050565b6000602082526152a86020830184614b58565b90505b92915050565b60006101608083526152c58184018f614b58565b91505073ffffffffffffffffffffffffffffffffffffffff8c16602083015265ffffffffffff808c166040840152808b1660608401526fffffffffffffffffffffffffffffffff8a16608084015280891660a084015280881660c08401525085151560e0830152841515610100830152615343610120830185614ca4565b615351610140830184614ca4565b5b9c9b505050505050505050505050565b600060208252604460208301527f476f7665726e6f72416c7068613a3a71756575653a2070726f706f73616c206360408301527f616e206f6e6c792062652071756575656420696620697420697320737563636560608301527f6564656400000000000000000000000000000000000000000000000000000000608083015260a0820190505b919050565b600060208252604560208301527f476f7665726e6f72416c7068613a3a657865637574653a2070726f706f73616c60408301527f2063616e206f6e6c79206265206578656375746564206966206974206973207160608301527f7565756564000000000000000000000000000000000000000000000000000000608083015260a0820190505b919050565b600060208252601560208301527f50726f706f73616c206e6f7420636f6d706c657465000000000000000000000060408301526060820190505b919050565b600060208252601060208301527f457863656564732031323820626974730000000000000000000000000000000060408301526060820190505b919050565b600060208252602960208301527f476f7665726e6f72416c7068613a3a73746174653a20696e76616c696420707260408301527f6f706f73616c206964000000000000000000000000000000000000000000000060608301526080820190505b919050565b600060208252600d60208301527f486173206e6f7420766f7465640000000000000000000000000000000000000060408301526060820190505b919050565b600060208252600e60208301527f4e6f7420417574686f72697a656400000000000000000000000000000000000060408301526060820190505b919050565b600060208252602d60208301527f476f7665726e6f72416c7068613a3a5f63617374566f74653a20766f7465722060408301527f616c726561647920766f7465640000000000000000000000000000000000000060608301526080820190505b919050565b600060208252605960208301527f476f7665726e6f72416c7068613a3a70726f706f73653a206f6e65206c69766560408301527f2070726f706f73616c207065722070726f706f7365722c20666f756e6420616e60608301527f20616c72656164792070656e64696e672070726f706f73616c00000000000000608083015260a0820190505b919050565b600060208252602860208301527f476f7665726e6f72416c7068613a3a70726f706f73653a20746f6f206d616e7960408301527f20616374696f6e7300000000000000000000000000000000000000000000000060608301526080820190505b919050565b600060208252601160208301527f6164646974696f6e206f766572666c6f7700000000000000000000000000000060408301526060820190505b919050565b600060208252604460208301527f476f7665726e6f72416c7068613a3a70726f706f73653a2070726f706f73616c60408301527f2066756e6374696f6e20696e666f726d6174696f6e206172697479206d69736d60608301527f6174636800000000000000000000000000000000000000000000000000000000608083015260a0820190505b919050565b600060208252602f60208301527f476f7665726e6f72416c7068613a3a63616e63656c3a2070726f706f7365722060408301527f61626f7665207468726573686f6c64000000000000000000000000000000000060608301526080820190505b919050565b600060208252601860208301527f5265776172647320616c7265616479207265636569766564000000000000000060408301526060820190505b919050565b600060208252604460208301527f476f7665726e6f72416c7068613a3a5f71756575654f725265766572743a207060408301527f726f706f73616c20616374696f6e20616c72656164792071756575656420617460608301527f2065746100000000000000000000000000000000000000000000000000000000608083015260a0820190505b919050565b600060208252602560208301527f43616e742063616e63656c20616674657220766f74696e6720697320636f6d7060408301527f6c6574656400000000000000000000000000000000000000000000000000000060608301526080820190505b919050565b600060208252602c60208301527f476f7665726e6f72416c7068613a3a70726f706f73653a206d7573742070726f60408301527f7669646520616374696f6e73000000000000000000000000000000000000000060608301526080820190505b919050565b600060208252603f60208301527f476f7665726e6f72416c7068613a3a70726f706f73653a2070726f706f73657260408301527f20766f7465732062656c6f772070726f706f73616c207468726573686f6c640060608301526080820190505b919050565b600060208252602f60208301527f476f7665726e6f72416c7068613a3a63617374566f746542795369673a20696e60408301527f76616c6964207369676e6174757265000000000000000000000000000000000060608301526080820190505b919050565b600060208252605860208301527f476f7665726e6f72416c7068613a3a70726f706f73653a206f6e65206c69766560408301527f2070726f706f73616c207065722070726f706f7365722c20666f756e6420616e60608301527f20616c7265616479206163746976652070726f706f73616c0000000000000000608083015260a0820190505b919050565b600060208252600f60208301527f457863656564732034382062697473000000000000000000000000000000000060408301526060820190505b919050565b600060208252603660208301527f476f7665726e6f72416c7068613a3a63616e63656c3a2063616e6e6f7420636160408301527f6e63656c2065786563757465642070726f706f73616c0000000000000000000060608301526080820190505b919050565b600060208252602a60208301527f476f7665726e6f72416c7068613a3a5f63617374566f74653a20766f74696e6760408301527f20697320636c6f7365640000000000000000000000000000000000000000000060608301526080820190505b919050565b600060208252601060208301527f457863656564732031383420626974730000000000000000000000000000000060408301526060820190505b919050565b600060208252601560208301527f7375627472616374696f6e20756e646572666c6f77000000000000000000000060408301526060820190505b919050565b6000608082019050615cdf8284614c5e565b5b92915050565b60006020820190508282525b92915050565b600060208201905065ffffffffffff831682525b92915050565b6000604051905081810181811067ffffffffffffffff82111715615d3257fe5b80604052505b919050565b600067ffffffffffffffff821115615d5157fe5b6020602083020190505b919050565b600067ffffffffffffffff821115615d7457fe5b60207fffffffffffffffffffffffffffffffffffffffffffffffffffffffffffffffe0601f8401160190505b919050565b60008181526020812090505b919050565b60005b83811015615dd55780820151818401525b602081019050615db9565b83811115615de4576000848401525b505b505050565b80151581141515615dfc5760006000fd5b5b50565b60ff811681141515615e125760006000fd5b5b50565bfea2646970667358221220f4a7b202c873763a107a5f786054d992045d1e81aa89ce2f404e8c96e39a221864736f6c63430007060033",
  "linkReferences": {},
  "deployedLinkReferences": {}
}