{
  "_format": "hh-sol-artifact-1",
  "contractName": "TcpGovernorAlpha",
  "sourceName": "contracts/core/governance/TcpGovernorAlpha.sol",
  "abi": [
    {
      "inputs": [
        {
          "components": [
            {
              "internalType": "address",
              "name": "TcpTimelock",
              "type": "address"
            },
            {
              "internalType": "address",
              "name": "Tcp",
              "type": "address"
            },
            {
              "internalType": "address",
              "name": "Guardian",
              "type": "address"
            },
            {
              "internalType": "uint48",
              "name": "VoteBlockCount",
              "type": "uint48"
            },
            {
              "internalType": "address",
              "name": "Governor",
              "type": "address"
            }
          ],
          "internalType": "struct TcpGovernorAlpha.ConstructorParams",
          "name": "params",
          "type": "tuple"
        }
      ],
      "stateMutability": "nonpayable",
      "type": "constructor"
    },
    {
      "anonymous": false,
      "inputs": [
        {
          "indexed": true,
          "internalType": "uint256",
          "name": "id",
          "type": "uint256"
        }
      ],
      "name": "ProposalCanceled",
      "type": "event"
    },
    {
      "anonymous": false,
      "inputs": [
        {
          "indexed": true,
          "internalType": "uint256",
          "name": "id",
          "type": "uint256"
        },
        {
          "indexed": true,
          "internalType": "address",
          "name": "proposer",
          "type": "address"
        }
      ],
      "name": "ProposalCreated",
      "type": "event"
    },
    {
      "anonymous": false,
      "inputs": [
        {
          "indexed": true,
          "internalType": "uint256",
          "name": "id",
          "type": "uint256"
        }
      ],
      "name": "ProposalExecuted",
      "type": "event"
    },
    {
      "anonymous": false,
      "inputs": [
        {
          "indexed": true,
          "internalType": "uint256",
          "name": "id",
          "type": "uint256"
        },
        {
          "indexed": false,
          "internalType": "uint256",
          "name": "eta",
          "type": "uint256"
        }
      ],
      "name": "ProposalQueued",
      "type": "event"
    },
    {
      "anonymous": false,
      "inputs": [
        {
          "indexed": true,
          "internalType": "address",
          "name": "voter",
          "type": "address"
        },
        {
          "indexed": true,
          "internalType": "uint256",
          "name": "proposalId",
          "type": "uint256"
        },
        {
          "indexed": true,
          "internalType": "bool",
          "name": "support",
          "type": "bool"
        },
        {
          "indexed": false,
          "internalType": "uint256",
          "name": "votes",
          "type": "uint256"
        }
      ],
      "name": "VoteCast",
      "type": "event"
    },
    {
      "anonymous": false,
      "inputs": [
        {
          "indexed": true,
          "internalType": "address",
          "name": "voter",
          "type": "address"
        },
        {
          "indexed": false,
          "internalType": "uint256",
          "name": "count",
          "type": "uint256"
        }
      ],
      "name": "VotingRewardsDistributed",
      "type": "event"
    },
    {
      "inputs": [],
      "name": "BALLOT_TYPEHASH",
      "outputs": [
        {
          "internalType": "bytes32",
          "name": "",
          "type": "bytes32"
        }
      ],
      "stateMutability": "view",
      "type": "function"
    },
    {
      "inputs": [],
      "name": "DOMAIN_TYPEHASH",
      "outputs": [
        {
          "internalType": "bytes32",
          "name": "",
          "type": "bytes32"
        }
      ],
      "stateMutability": "view",
      "type": "function"
    },
    {
      "inputs": [],
      "name": "INFLATION_PERCENTAGE",
      "outputs": [
        {
          "internalType": "uint256",
          "name": "",
          "type": "uint256"
        }
      ],
      "stateMutability": "view",
      "type": "function"
    },
    {
      "inputs": [],
      "name": "__abdicate",
      "outputs": [],
      "stateMutability": "nonpayable",
      "type": "function"
    },
    {
      "inputs": [
        {
          "internalType": "uint256",
          "name": "proposalId",
          "type": "uint256"
        }
      ],
      "name": "cancel",
      "outputs": [],
      "stateMutability": "nonpayable",
      "type": "function"
    },
    {
      "inputs": [
        {
          "internalType": "uint256",
          "name": "proposalId",
          "type": "uint256"
        },
        {
          "internalType": "bool",
          "name": "support",
          "type": "bool"
        }
      ],
      "name": "castVote",
      "outputs": [],
      "stateMutability": "nonpayable",
      "type": "function"
    },
    {
      "inputs": [
        {
          "internalType": "uint256",
          "name": "proposalId",
          "type": "uint256"
        },
        {
          "internalType": "bool",
          "name": "support",
          "type": "bool"
        },
        {
          "internalType": "uint8",
          "name": "v",
          "type": "uint8"
        },
        {
          "internalType": "bytes32",
          "name": "r",
          "type": "bytes32"
        },
        {
          "internalType": "bytes32",
          "name": "s",
          "type": "bytes32"
        }
      ],
      "name": "castVoteBySig",
      "outputs": [],
      "stateMutability": "nonpayable",
      "type": "function"
    },
    {
      "inputs": [
        {
          "internalType": "uint256[]",
          "name": "proposalIDs",
          "type": "uint256[]"
        }
      ],
      "name": "claimVotingRewards",
      "outputs": [],
      "stateMutability": "nonpayable",
      "type": "function"
    },
    {
      "inputs": [
        {
          "internalType": "uint256",
          "name": "proposalId",
          "type": "uint256"
        }
      ],
      "name": "execute",
      "outputs": [],
      "stateMutability": "nonpayable",
      "type": "function"
    },
    {
      "inputs": [
        {
          "internalType": "uint256",
          "name": "proposalId",
          "type": "uint256"
        }
      ],
      "name": "getActions",
      "outputs": [
        {
          "internalType": "address[]",
          "name": "targets",
          "type": "address[]"
        },
        {
          "internalType": "string[]",
          "name": "signatures",
          "type": "string[]"
        },
        {
          "internalType": "bytes[]",
          "name": "calldatas",
          "type": "bytes[]"
        }
      ],
      "stateMutability": "view",
      "type": "function"
    },
    {
      "inputs": [
        {
          "internalType": "address",
          "name": "voter",
          "type": "address"
        }
      ],
      "name": "getAllProposals",
      "outputs": [
        {
          "components": [
            {
              "internalType": "address[]",
              "name": "targets",
              "type": "address[]"
            },
            {
              "internalType": "string[]",
              "name": "signatures",
              "type": "string[]"
            },
            {
              "internalType": "bytes[]",
              "name": "calldatas",
              "type": "bytes[]"
            },
            {
              "internalType": "string",
              "name": "title",
              "type": "string"
            },
            {
              "internalType": "string",
              "name": "ipfsHash",
              "type": "string"
            },
            {
              "internalType": "address",
              "name": "proposer",
              "type": "address"
            },
            {
              "internalType": "uint48",
              "name": "eta",
              "type": "uint48"
            },
            {
              "internalType": "uint48",
              "name": "id",
              "type": "uint48"
            },
            {
              "internalType": "uint128",
              "name": "forVotes",
              "type": "uint128"
            },
            {
              "internalType": "uint48",
              "name": "startBlock",
              "type": "uint48"
            },
            {
              "internalType": "uint48",
              "name": "endBlock",
              "type": "uint48"
            },
            {
              "internalType": "bool",
              "name": "canceled",
              "type": "bool"
            },
            {
              "internalType": "bool",
              "name": "executed",
              "type": "bool"
            },
            {
              "internalType": "uint128",
              "name": "againstVotes",
              "type": "uint128"
            },
            {
              "internalType": "uint128",
              "name": "initialSupply",
              "type": "uint128"
            }
          ],
          "internalType": "struct GovernorAlpha.Proposal[]",
          "name": "_proposals",
          "type": "tuple[]"
        },
        {
          "internalType": "enum GovernorAlpha.ProposalState[]",
          "name": "_proposalStates",
          "type": "uint8[]"
        },
        {
          "components": [
            {
              "internalType": "bool",
              "name": "hasVoted",
              "type": "bool"
            },
            {
              "internalType": "bool",
              "name": "support",
              "type": "bool"
            },
            {
              "internalType": "bool",
              "name": "rewardReceived",
              "type": "bool"
            },
            {
              "internalType": "uint184",
              "name": "votes",
              "type": "uint184"
            }
          ],
          "internalType": "struct GovernorAlpha.Receipt[]",
          "name": "_receipts",
          "type": "tuple[]"
        }
      ],
      "stateMutability": "view",
      "type": "function"
    },
    {
      "inputs": [
        {
          "internalType": "uint256",
          "name": "proposalId",
          "type": "uint256"
        },
        {
          "internalType": "address",
          "name": "voter",
          "type": "address"
        }
      ],
      "name": "getReceipt",
      "outputs": [
        {
          "components": [
            {
              "internalType": "bool",
              "name": "hasVoted",
              "type": "bool"
            },
            {
              "internalType": "bool",
              "name": "support",
              "type": "bool"
            },
            {
              "internalType": "bool",
              "name": "rewardReceived",
              "type": "bool"
            },
            {
              "internalType": "uint184",
              "name": "votes",
              "type": "uint184"
            }
          ],
          "internalType": "struct GovernorAlpha.Receipt",
          "name": "",
          "type": "tuple"
        }
      ],
      "stateMutability": "view",
      "type": "function"
    },
    {
      "inputs": [],
      "name": "governor",
      "outputs": [
        {
          "internalType": "contract IGovernor",
          "name": "",
          "type": "address"
        }
      ],
      "stateMutability": "view",
      "type": "function"
    },
    {
      "inputs": [],
      "name": "guardian",
      "outputs": [
        {
          "internalType": "address",
          "name": "",
          "type": "address"
        }
      ],
      "stateMutability": "view",
      "type": "function"
    },
    {
      "inputs": [],
      "name": "implementsVotingRewardsWithToken",
      "outputs": [
        {
          "internalType": "address",
          "name": "",
          "type": "address"
        }
      ],
      "stateMutability": "view",
      "type": "function"
    },
    {
      "inputs": [
        {
          "internalType": "address",
          "name": "",
          "type": "address"
        }
      ],
      "name": "latestProposalIds",
      "outputs": [
        {
          "internalType": "uint256",
          "name": "",
          "type": "uint256"
        }
      ],
      "stateMutability": "view",
      "type": "function"
    },
    {
      "inputs": [],
      "name": "name",
      "outputs": [
        {
          "internalType": "string",
          "name": "",
          "type": "string"
        }
      ],
      "stateMutability": "view",
      "type": "function"
    },
    {
      "inputs": [],
      "name": "proposalCount",
      "outputs": [
        {
          "internalType": "uint48",
          "name": "",
          "type": "uint48"
        }
      ],
      "stateMutability": "view",
      "type": "function"
    },
    {
      "inputs": [],
      "name": "proposalMaxOperations",
      "outputs": [
        {
          "internalType": "uint256",
          "name": "",
          "type": "uint256"
        }
      ],
      "stateMutability": "pure",
      "type": "function"
    },
    {
      "inputs": [],
      "name": "proposalThreshold",
      "outputs": [
        {
          "internalType": "uint256",
          "name": "",
          "type": "uint256"
        }
      ],
      "stateMutability": "view",
      "type": "function"
    },
    {
      "inputs": [
        {
          "internalType": "uint256",
          "name": "",
          "type": "uint256"
        }
      ],
      "name": "proposals",
      "outputs": [
        {
          "internalType": "string",
          "name": "title",
          "type": "string"
        },
        {
          "internalType": "string",
          "name": "ipfsHash",
          "type": "string"
        },
        {
          "internalType": "address",
          "name": "proposer",
          "type": "address"
        },
        {
          "internalType": "uint48",
          "name": "eta",
          "type": "uint48"
        },
        {
          "internalType": "uint48",
          "name": "id",
          "type": "uint48"
        },
        {
          "internalType": "uint128",
          "name": "forVotes",
          "type": "uint128"
        },
        {
          "internalType": "uint48",
          "name": "startBlock",
          "type": "uint48"
        },
        {
          "internalType": "uint48",
          "name": "endBlock",
          "type": "uint48"
        },
        {
          "internalType": "bool",
          "name": "canceled",
          "type": "bool"
        },
        {
          "internalType": "bool",
          "name": "executed",
          "type": "bool"
        },
        {
          "internalType": "uint128",
          "name": "againstVotes",
          "type": "uint128"
        },
        {
          "internalType": "uint128",
          "name": "initialSupply",
          "type": "uint128"
        }
      ],
      "stateMutability": "view",
      "type": "function"
    },
    {
      "inputs": [
        {
          "internalType": "address[]",
          "name": "targets",
          "type": "address[]"
        },
        {
          "internalType": "string[]",
          "name": "signatures",
          "type": "string[]"
        },
        {
          "internalType": "bytes[]",
          "name": "calldatas",
          "type": "bytes[]"
        },
        {
          "internalType": "string",
          "name": "title",
          "type": "string"
        },
        {
          "internalType": "string",
          "name": "ipfsHash",
          "type": "string"
        }
      ],
      "name": "propose",
      "outputs": [
        {
          "internalType": "uint256",
          "name": "",
          "type": "uint256"
        }
      ],
      "stateMutability": "nonpayable",
      "type": "function"
    },
    {
      "inputs": [
        {
          "internalType": "uint256",
          "name": "proposalId",
          "type": "uint256"
        }
      ],
      "name": "queue",
      "outputs": [],
      "stateMutability": "nonpayable",
      "type": "function"
    },
    {
      "inputs": [],
      "name": "quorumVotes",
      "outputs": [
        {
          "internalType": "uint256",
          "name": "",
          "type": "uint256"
        }
      ],
      "stateMutability": "view",
      "type": "function"
    },
    {
      "inputs": [
        {
          "internalType": "uint256",
          "name": "proposalId",
          "type": "uint256"
        }
      ],
      "name": "state",
      "outputs": [
        {
          "internalType": "enum GovernorAlpha.ProposalState",
          "name": "",
          "type": "uint8"
        }
      ],
      "stateMutability": "view",
      "type": "function"
    },
    {
      "inputs": [],
      "name": "timelock",
      "outputs": [
        {
          "internalType": "contract TimelockInterface",
          "name": "",
          "type": "address"
        }
      ],
      "stateMutability": "view",
      "type": "function"
    },
    {
      "inputs": [],
      "name": "votingDelay",
      "outputs": [
        {
          "internalType": "uint256",
          "name": "",
          "type": "uint256"
        }
      ],
      "stateMutability": "pure",
      "type": "function"
    },
    {
      "inputs": [],
      "name": "votingPeriod",
      "outputs": [
        {
          "internalType": "uint256",
          "name": "",
          "type": "uint256"
        }
      ],
      "stateMutability": "view",
      "type": "function"
    },
    {
      "inputs": [],
      "name": "votingPeriodBlocks",
      "outputs": [
        {
          "internalType": "uint48",
          "name": "",
          "type": "uint48"
        }
      ],
      "stateMutability": "view",
      "type": "function"
    },
    {
      "inputs": [],
      "name": "votingToken",
      "outputs": [
        {
          "internalType": "contract VotingTokenInterface",
          "name": "",
          "type": "address"
        }
      ],
      "stateMutability": "view",
      "type": "function"
    }
  ],
  "bytecode": "0x610100604052348015620000135760006000fd5b506040516200650338038062006503833981810160405281019062000039919062000386565b5b6040518060400160405280601281526020017f54435020476f7665726e6f7220416c706861000000000000000000000000000081526020015081600001518260200151836040015184606001515b84848484845b8460006000509080519060200190620000a99291906200029a565b50600073ffffffffffffffffffffffffffffffffffffffff168473ffffffffffffffffffffffffffffffffffffffff1614158015620001155750600073ffffffffffffffffffffffffffffffffffffffff168373ffffffffffffffffffffffffffffffffffffffff1614155b80156200014f5750600073ffffffffffffffffffffffffffffffffffffffff168273ffffffffffffffffffffffffffffffffffffffff1614155b15156200015c5760006000fd5b8373ffffffffffffffffffffffffffffffffffffffff1660808173ffffffffffffffffffffffffffffffffffffffff1660601b815260140150508273ffffffffffffffffffffffffffffffffffffffff1660c08173ffffffffffffffffffffffffffffffffffffffff1660601b8152601401505081600160006101000a81548173ffffffffffffffffffffffffffffffffffffffff021916908373ffffffffffffffffffffffffffffffffffffffff16021790555060008165ffffffffffff161115156200022a5760006000fd5b8065ffffffffffff1660a08165ffffffffffff1660d01b815260060150505b50505050505b5050505050806080015173ffffffffffffffffffffffffffffffffffffffff1660e08173ffffffffffffffffffffffffffffffffffffffff1660601b815260140150505b506200042e565b828054600181600116156101000203166002900490600052602060002090601f016020900481019282620002d2576000855562000323565b82601f10620002ed57805160ff191683800117855562000323565b8280016001018555821562000323579182015b8281111562000322578251826000509090559160200191906001019062000300565b5b50905062000332919062000336565b5090565b6200033c565b808211156200035857600081815060009055506001016200033c565b5090566200042d565b6000815190506001600160a01b03811681141515620003805760006000fd5b5b919050565b600060a0828403121562000398578081fd5b60405160a081018181106001600160401b0382111715620003b557fe5b8060405250620003c58362000361565b8152620003d56020840162000361565b6020820152620003e86040840162000361565b6040820152606083015165ffffffffffff81168114151562000408578283fd5b806060830152506200041d6080840162000361565b6080820152809150505b92915050565b5b60805160601c60a05160d01c60c05160601c60e05160601c61603e620004c560003980610ccd52806136fe5280613d2d5280613dde525080610d4e52806115405280611ab052806122ea52806123365280612436528061294752806138cc525080610849528061230e52508061131a528061169a52806123ea5280612e2952806133455280613f2e5280614047525061603e6000f3fe60806040523480156100115760006000fd5b50600436106101df5760003560e01c80634634c61f11610105578063b58131b0116100a3578063ddf0b00911610072578063ddf0b00914610550578063deaaa7cc1461056c578063e23a9a521461058a578063fe0d94c1146105ba576101df565b8063b58131b0146104c6578063d33219b4146104e4578063da35c66414610502578063db11651114610520576101df565b80637e90f9ab116100df5780637e90f9ab1461043a5780639853d92214610458578063b03401231461048a578063b24b7ffd146104a8576101df565b80634634c61f146103f6578063760fbc13146104125780637bdbe4d01461041c576101df565b806320606b701161017d5780633932abb11161014c5780633932abb11461036e5780633e4f49e61461038c57806340e58ee5146103bc578063452a9320146103d8576101df565b806320606b70146102e257806324bc1a641461030057806329c0e5fd1461031e578063328dd9821461033c576101df565b806306fdde03116101b957806306fdde031461025a5780630c340a241461027857806315373e3d1461029657806317977c61146102b2576101df565b8063013cf08b146101e557806302a251a314610220578063062f14661461023e576101df565b60006000fd5b6101ff60048036038101906101fa9190614a5a565b6105d6565b6040516102179c9b9a99989796959493929190615479565b60405180910390f35b610228610845565b6040516102359190615ed7565b60405180910390f35b61025860048036038101906102539190614921565b61087a565b005b610262610c2a565b60405161026f919061545d565b60405180910390f35b610280610ccb565b60405161028d91906153cc565b60405180910390f35b6102b060048036038101906102ab9190614abf565b610cef565b005b6102cc60048036038101906102c7919061482f565b610d09565b6040516102d99190615ed7565b60405180910390f35b6102ea610d24565b6040516102f79190615331565b60405180910390f35b610308610d48565b6040516103159190615ed7565b60405180910390f35b610326610e00565b6040516103339190615ed7565b60405180910390f35b61035660048036038101906103519190614a5a565b610e0b565b604051610365939291906150f7565b60405180910390f35b6103766110af565b6040516103839190615ed7565b60405180910390f35b6103a660048036038101906103a19190614a5a565b6110bd565b6040516103b39190615444565b60405180910390f35b6103d660048036038101906103d19190614a5a565b6113f0565b005b6103e0611805565b6040516103ed9190614f51565b60405180910390f35b610410600480360381019061040b9190614af0565b61182b565b005b61041a611a09565b005b610424611a9e565b6040516104319190615ed7565b60405180910390f35b610442611aac565b60405161044f9190614f51565b60405180910390f35b610472600480360381019061046d919061482f565b611ad9565b6040516104819392919061513c565b60405180910390f35b6104926122e8565b60405161049f919061541c565b60405180910390f35b6104b061230c565b6040516104bd9190615ee9565b60405180910390f35b6104ce612330565b6040516104db9190615ed7565b60405180910390f35b6104ec6123e8565b6040516104f991906153f4565b60405180910390f35b61050a61240c565b6040516105179190615ee9565b60405180910390f35b61053a60048036038101906105359190614852565b612424565b6040516105479190615ed7565b60405180910390f35b61056a60048036038101906105659190614a5a565b612d9b565b005b610574613137565b6040516105819190615331565b60405180910390f35b6105a4600480360381019061059f9190614a92565b61315b565b6040516105b19190615ebe565b60405180910390f35b6105d460048036038101906105cf9190614a5a565b613287565b005b6003600050602052806000526040600020600091509050806003016000508054600181600116156101000203166002900480601f0160208091040260200160405190810160405280929190818152602001828054600181600116156101000203166002900480156106885780601f1061065d57610100808354040283529160200191610688565b820191906000526020600020905b81548152906001019060200180831161066b57829003601f168201915b505050505090806004016000508054600181600116156101000203166002900480601f0160208091040260200160405190810160405280929190818152602001828054600181600116156101000203166002900480156107295780601f106106fe57610100808354040283529160200191610729565b820191906000526020600020905b81548152906001019060200180831161070c57829003601f168201915b5050505050908060050160009054906101000a900473ffffffffffffffffffffffffffffffffffffffff16908060050160149054906101000a900465ffffffffffff169080600501601a9054906101000a900465ffffffffffff16908060060160009054906101000a90046fffffffffffffffffffffffffffffffff16908060060160109054906101000a900465ffffffffffff16908060060160169054906101000a900465ffffffffffff169080600601601c9054906101000a900460ff169080600601601d9054906101000a900460ff16908060070160009054906101000a90046fffffffffffffffffffffffffffffffff16908060070160109054906101000a90046fffffffffffffffffffffffffffffffff1690508c565b60007f000000000000000000000000000000000000000000000000000000000000000065ffffffffffff169050610877565b90565b6000600090505b82829050811015610c24576000838383818110151561089c57fe5b9050602002013590506108b4816134d763ffffffff16565b15156108f5576040517f08c379a00000000000000000000000000000000000000000000000000000000081526004016108ec90615669565b60405180910390fd5b6002600050600082815260200190815260200160002060005060003373ffffffffffffffffffffffffffffffffffffffff1673ffffffffffffffffffffffffffffffffffffffff16815260200190815260200160002060005060000160009054906101000a900460ff1615156109a0576040517f08c379a00000000000000000000000000000000000000000000000000000000081526004016109979061574c565b60405180910390fd5b60006002600050600083815260200190815260200160002060005060003373ffffffffffffffffffffffffffffffffffffffff1673ffffffffffffffffffffffffffffffffffffffff16815260200190815260200160002060005090508060000160029054906101000a900460ff16151515610a51576040517f08c379a0000000000000000000000000000000000000000000000000000000008152600401610a4890615a4e565b60405180910390fd5b60018160000160026101000a81548160ff021916908315150217905550600060036000506000848152602001908152602001600020600050905060008260000160039054906101000a900476ffffffffffffffffffffffffffffffffffffffffffffff1676ffffffffffffffffffffffffffffffffffffffffffffff1690506000610b468360060160009054906101000a90046fffffffffffffffffffffffffffffffff166fffffffffffffffffffffffffffffffff168460070160009054906101000a90046fffffffffffffffffffffffffffffffff166fffffffffffffffffffffffffffffffff1661357763ffffffff16565b90506000610b966611c37937e080008560070160109054906101000a90046fffffffffffffffffffffffffffffffff166fffffffffffffffffffffffffffffffff166135d590919063ffffffff16565b90506000610baf8484846135fb9092919063ffffffff16565b9050610bc133826136fc63ffffffff16565b3373ffffffffffffffffffffffffffffffffffffffff167f56cd411799f8eaf36ff267057223a17836afa0a91a109fe7e102ef919e6fa19d82604051610c079190615ed7565b60405180910390a2505050505050505b8080600101915050610881565b505b5050565b60006000508054600181600116156101000203166002900480601f016020809104026020016040519081016040528092919081815260200182805460018160011615610100020316600290048015610cc35780601f10610c9857610100808354040283529160200191610cc3565b820191906000526020600020905b815481529060010190602001808311610ca657829003601f168201915b505050505081565b7f000000000000000000000000000000000000000000000000000000000000000081565b610d0033838361379063ffffffff16565b610d05565b5050565b60046000506020528060005260406000206000915090505481565b7f8cad95687ba82c2ce50e74f7b754645e5117c3a5bec8151c0726d5857980a86681565b600060287f000000000000000000000000000000000000000000000000000000000000000073ffffffffffffffffffffffffffffffffffffffff166318160ddd6040518163ffffffff1660e01b815260040160206040518083038186803b158015610db35760006000fd5b505afa158015610dc8573d600060003e3d6000fd5b505050506040513d601f19601f82011682018060405250810190610dec9190614a76565b811515610df557fe5b049050610dfd565b90565b6611c37937e0800081565b606060606060600060036000506000868152602001908152602001600020600050905080600001600050816001016000508260020160005082805480602002602001604051908101604052809291908181526020018280548015610ec457602002820191906000526020600020905b8160009054906101000a900473ffffffffffffffffffffffffffffffffffffffff1673ffffffffffffffffffffffffffffffffffffffff1681526020019060010190808311610e7a575b5050505050925081805480602002602001604051908101604052809291908181526020016000905b82821015610fad578382906000526020600020900160005b508054600181600116156101000203166002900480601f016020809104026020016040519081016040528092919081815260200182805460018160011615610100020316600290048015610f995780601f10610f6e57610100808354040283529160200191610f99565b820191906000526020600020905b815481529060010190602001808311610f7c57829003601f168201915b505050505081526020019060010190610eec565b50505050915080805480602002602001604051908101604052809291908181526020016000905b82821015611095578382906000526020600020900160005b508054600181600116156101000203166002900480601f0160208091040260200160405190810160405280929190818152602001828054600181600116156101000203166002900480156110815780601f1061105657610100808354040283529160200191611081565b820191906000526020600020905b81548152906001019060200180831161106457829003601f168201915b505050505081526020019060010190610fd4565b505050509050935093509350506110a856505b9193909250565b6000600190506110ba565b90565b600081600160149054906101000a900465ffffffffffff1665ffffffffffff16101580156110eb5750600082115b151561112c576040517f08c379a0000000000000000000000000000000000000000000000000000000008152600401611123906156e7565b60405180910390fd5b600060036000506000848152602001908152602001600020600050905080600601601c9054906101000a900460ff161561116e5760029150506113eb566113e9565b8060060160109054906101000a900465ffffffffffff1665ffffffffffff16431115156111a35760009150506113eb566113e8565b8060060160169054906101000a900465ffffffffffff1665ffffffffffff16431115156111d85760019150506113eb566113e7565b8060070160009054906101000a90046fffffffffffffffffffffffffffffffff166fffffffffffffffffffffffffffffffff168160060160009054906101000a90046fffffffffffffffffffffffffffffffff166fffffffffffffffffffffffffffffffff161115806112895750611254610d4863ffffffff16565b8160060160009054906101000a90046fffffffffffffffffffffffffffffffff166fffffffffffffffffffffffffffffffff16105b1561129c5760039150506113eb566113e6565b60008160050160149054906101000a900465ffffffffffff1665ffffffffffff1614156112d15760049150506113eb566113e5565b80600601601d9054906101000a900460ff16156112f65760079150506113eb566113e4565b6113c38160050160149054906101000a900465ffffffffffff1665ffffffffffff167f000000000000000000000000000000000000000000000000000000000000000073ffffffffffffffffffffffffffffffffffffffff1663c1a287e26040518163ffffffff1660e01b815260040160206040518083038186803b15801561137f5760006000fd5b505afa158015611394573d600060003e3d6000fd5b505050506040513d601f19601f820116820180604052508101906113b89190614a76565b61357763ffffffff16565b421015156113d95760069150506113eb566113e3565b60059150506113eb565b5b5b5b5b5b5b505b919050565b600760078111156113fd57fe5b61140c826110bd63ffffffff16565b600781111561141757fe5b1415151561145a576040517f08c379a000000000000000000000000000000000000000000000000000000000815260040161145190615d76565b60405180910390fd5b60006003600050600083815260200190815260200160002060005090508060060160169054906101000a900465ffffffffffff1665ffffffffffff16431015156114d9576040517f08c379a00000000000000000000000000000000000000000000000000000000081526004016114d090615b18565b60405180910390fd5b600160009054906101000a900473ffffffffffffffffffffffffffffffffffffffff1673ffffffffffffffffffffffffffffffffffffffff163373ffffffffffffffffffffffffffffffffffffffff161480611621575061153e61233063ffffffff16565b7f000000000000000000000000000000000000000000000000000000000000000073ffffffffffffffffffffffffffffffffffffffff1663782d6fe18360050160009054906101000a900473ffffffffffffffffffffffffffffffffffffffff166115b0436001613c6563ffffffff16565b6040518363ffffffff1660e01b81526004016115cd929190615091565b60206040518083038186803b1580156115e65760006000fd5b505afa1580156115fb573d600060003e3d6000fd5b505050506040513d601f19601f8201168201806040525081019061161f9190614a76565b105b1515611662576040517f08c379a0000000000000000000000000000000000000000000000000000000008152600401611659906159e9565b60405180910390fd5b600181600601601c6101000a81548160ff0219169083151502179055506000600090505b81600001600050805490508110156117d2577f000000000000000000000000000000000000000000000000000000000000000073ffffffffffffffffffffffffffffffffffffffff16624b1f1283600001600050838154811015156116e757fe5b906000526020600020900160005b9054906101000a900473ffffffffffffffffffffffffffffffffffffffff16846001016000508481548110151561172857fe5b906000526020600020900160005b50856002016000508581548110151561174b57fe5b906000526020600020900160005b508660050160149054906101000a900465ffffffffffff166040518563ffffffff1660e01b81526004016117909493929190615035565b600060405180830381600087803b1580156117ab5760006000fd5b505af11580156117c0573d600060003e3d6000fd5b505050505b8080600101915050611686565b50817f789cf55be980739dad1d0699b93b58e806b51c9d96619bfa8fe0a28abaa7b30c60405160405180910390a2505b50565b600160009054906101000a900473ffffffffffffffffffffffffffffffffffffffff1681565b60007f8cad95687ba82c2ce50e74f7b754645e5117c3a5bec8151c0726d5857980a86660006000506040516118609190614e7a565b6040518091039020611876613cbc63ffffffff16565b3060405160200161188a9493929190615343565b60405160208183030381529060405280519060200120905060007f8e25870c07e0b0b3884c78da52790939a455c275406c44ae8b434b692fb916ee87876040516020016118d993929190615380565b60405160208183030381529060405280519060200120905060008282604051602001611906929190614f12565b60405160208183030381529060405280519060200120905060006001828888886040516000815260200160405260405161194394939291906153a2565b6020604051602081039080840390855afa158015611966573d600060003e3d6000fd5b505050602060405103519050600073ffffffffffffffffffffffffffffffffffffffff168173ffffffffffffffffffffffffffffffffffffffff16141515156119e4576040517f08c379a00000000000000000000000000000000000000000000000000000000081526004016119db90615c47565b60405180910390fd5b6119f5818a8a61379063ffffffff16565b50505050611a0256505050505b5050505050565b611a1833613cd063ffffffff16565b1515611a59576040517f08c379a0000000000000000000000000000000000000000000000000000000008152600401611a509061578b565b60405180910390fd5b6000600160006101000a81548173ffffffffffffffffffffffffffffffffffffffff021916908373ffffffffffffffffffffffffffffffffffffffff1602179055505b565b6000600a9050611aa9565b90565b60007f00000000000000000000000000000000000000000000000000000000000000009050611ad6565b90565b6060606060606000600160149054906101000a900465ffffffffffff1665ffffffffffff1690508067ffffffffffffffff81118015611b185760006000fd5b50604051908082528060200260200182016040528015611b5257816020015b611b3f61416b565b815260200190600190039081611b375790505b50935083508067ffffffffffffffff81118015611b6f5760006000fd5b50604051908082528060200260200182016040528015611b9e5781602001602082028036833780820191505090505b50925082508067ffffffffffffffff81118015611bbb5760006000fd5b50604051908082528060200260200182016040528015611bf557816020015b611be2614254565b815260200190600190039081611bda5790505b50915081506000600190505b818165ffffffffffff161115156122de57600360005060008265ffffffffffff168152602001908152602001600020600050604051806101e001604052908160008201600050805480602002602001604051908101604052809291908181526020018280548015611cc757602002820191906000526020600020905b8160009054906101000a900473ffffffffffffffffffffffffffffffffffffffff1673ffffffffffffffffffffffffffffffffffffffff1681526020019060010190808311611c7d575b5050505050815260200160018201600050805480602002602001604051908101604052809291908181526020016000905b82821015611db9578382906000526020600020900160005b508054600181600116156101000203166002900480601f016020809104026020016040519081016040528092919081815260200182805460018160011615610100020316600290048015611da55780601f10611d7a57610100808354040283529160200191611da5565b820191906000526020600020905b815481529060010190602001808311611d8857829003601f168201915b505050505081526020019060010190611cf8565b50505050815260200160028201600050805480602002602001604051908101604052809291908181526020016000905b82821015611eaa578382906000526020600020900160005b508054600181600116156101000203166002900480601f016020809104026020016040519081016040528092919081815260200182805460018160011615610100020316600290048015611e965780601f10611e6b57610100808354040283529160200191611e96565b820191906000526020600020905b815481529060010190602001808311611e7957829003601f168201915b505050505081526020019060010190611de9565b505050508152602001600382016000508054600181600116156101000203166002900480601f016020809104026020016040519081016040528092919081815260200182805460018160011615610100020316600290048015611f4e5780601f10611f2357610100808354040283529160200191611f4e565b820191906000526020600020905b815481529060010190602001808311611f3157829003601f168201915b50505050508152602001600482016000508054600181600116156101000203166002900480601f016020809104026020016040519081016040528092919081815260200182805460018160011615610100020316600290048015611ff35780601f10611fc857610100808354040283529160200191611ff3565b820191906000526020600020905b815481529060010190602001808311611fd657829003601f168201915b505050505081526020016005820160009054906101000a900473ffffffffffffffffffffffffffffffffffffffff1673ffffffffffffffffffffffffffffffffffffffff1673ffffffffffffffffffffffffffffffffffffffff1681526020016005820160149054906101000a900465ffffffffffff1665ffffffffffff1665ffffffffffff16815260200160058201601a9054906101000a900465ffffffffffff1665ffffffffffff1665ffffffffffff1681526020016006820160009054906101000a90046fffffffffffffffffffffffffffffffff166fffffffffffffffffffffffffffffffff166fffffffffffffffffffffffffffffffff1681526020016006820160109054906101000a900465ffffffffffff1665ffffffffffff1665ffffffffffff1681526020016006820160169054906101000a900465ffffffffffff1665ffffffffffff1665ffffffffffff16815260200160068201601c9054906101000a900460ff1615151515815260200160068201601d9054906101000a900460ff161515151581526020016007820160009054906101000a90046fffffffffffffffffffffffffffffffff166fffffffffffffffffffffffffffffffff166fffffffffffffffffffffffffffffffff1681526020016007820160109054906101000a90046fffffffffffffffffffffffffffffffff166fffffffffffffffffffffffffffffffff166fffffffffffffffffffffffffffffffff1681526020015050856001830365ffffffffffff1681518110151561223257fe5b60200260200101819052506122548165ffffffffffff166110bd63ffffffff16565b846001830365ffffffffffff1681518110151561226d57fe5b6020026020010190600781111561228057fe5b9081600781111561228d57fe5b815260200150506122ac8165ffffffffffff168761315b63ffffffff16565b836001830365ffffffffffff168151811015156122c557fe5b60200260200101819052505b8080600101915050611c01565b50505b9193909250565b7f000000000000000000000000000000000000000000000000000000000000000081565b7f000000000000000000000000000000000000000000000000000000000000000081565b600060c87f000000000000000000000000000000000000000000000000000000000000000073ffffffffffffffffffffffffffffffffffffffff166318160ddd6040518163ffffffff1660e01b815260040160206040518083038186803b15801561239b5760006000fd5b505afa1580156123b0573d600060003e3d6000fd5b505050506040513d601f19601f820116820180604052508101906123d49190614a76565b8115156123dd57fe5b0490506123e5565b90565b7f000000000000000000000000000000000000000000000000000000000000000081565b600160149054906101000a900465ffffffffffff1681565b600061243461233063ffffffff16565b7f000000000000000000000000000000000000000000000000000000000000000073ffffffffffffffffffffffffffffffffffffffff1663782d6fe133612482436001613c6563ffffffff16565b6040518363ffffffff1660e01b815260040161249f929190614f79565b60206040518083038186803b1580156124b85760006000fd5b505afa1580156124cd573d600060003e3d6000fd5b505050506040513d601f19601f820116820180604052508101906124f19190614a76565b111515612533576040517f08c379a000000000000000000000000000000000000000000000000000000000815260040161252a90615be2565b60405180910390fd5b84518651148015612545575083518651145b1515612586576040517f08c379a000000000000000000000000000000000000000000000000000000000815260040161257d9061595e565b60405180910390fd5b600086511115156125cc576040517f08c379a00000000000000000000000000000000000000000000000000000000081526004016125c390615b7d565b60405180910390fd5b6125da611a9e63ffffffff16565b86511115151561261f576040517f08c379a0000000000000000000000000000000000000000000000000000000008152600401612616906158ba565b60405180910390fd5b6000600460005060003373ffffffffffffffffffffffffffffffffffffffff1673ffffffffffffffffffffffffffffffffffffffff168152602001908152602001600020600050549050600081111561273f576000612683826110bd63ffffffff16565b90506001600781111561269257fe5b81600781111561269e57fe5b141515156126e1576040517f08c379a00000000000000000000000000000000000000000000000000000000081526004016126d890615cac565b60405180910390fd5b600060078111156126ee57fe5b8160078111156126fa57fe5b1415151561273d576040517f08c379a00000000000000000000000000000000000000000000000000000000081526004016127349061582f565b60405180910390fd5b505b6000600090505b865181101561279757612789888281518110151561276057fe5b6020026020010151888381518110151561277657fe5b6020026020010151613ddc63ffffffff16565b5b8080600101915050612746565b5060006127b7436127ac6110af63ffffffff16565b61357763ffffffff16565b905060006127d8826127cd61084563ffffffff16565b61357763ffffffff16565b90506001601481819054906101000a900465ffffffffffff168092919060010191906101000a81548165ffffffffffff021916908365ffffffffffff160217905550506601000000000000600160149054906101000a900465ffffffffffff1665ffffffffffff1610151561284d5760006000fd5b6000604051806101e001604052808b81526020018a81526020018981526020018881526020018781526020013373ffffffffffffffffffffffffffffffffffffffff168152602001600065ffffffffffff168152602001600160149054906101000a900465ffffffffffff1665ffffffffffff16815260200160006fffffffffffffffffffffffffffffffff1681526020016128ee85613e6e63ffffffff16565b65ffffffffffff16815260200161290a84613e6e63ffffffff16565b65ffffffffffff16815260200160001515815260200160001515815260200160006fffffffffffffffffffffffffffffffff1681526020016129f07f000000000000000000000000000000000000000000000000000000000000000073ffffffffffffffffffffffffffffffffffffffff166318160ddd6040518163ffffffff1660e01b815260040160206040518083038186803b1580156129ac5760006000fd5b505afa1580156129c1573d600060003e3d6000fd5b505050506040513d601f19601f820116820180604052508101906129e59190614a76565b613ec863ffffffff16565b6fffffffffffffffffffffffffffffffff16815260200150905080600360005060008360e0015165ffffffffffff1681526020019081526020016000206000506000820151816000016000509080519060200190612a4f92919061429e565b506020820151816001016000509080519060200190612a6f929190614328565b506040820151816002016000509080519060200190612a8f929190614388565b506060820151816003016000509080519060200190612aaf9291906143e8565b506080820151816004016000509080519060200190612acf9291906143e8565b5060a08201518160050160006101000a81548173ffffffffffffffffffffffffffffffffffffffff021916908373ffffffffffffffffffffffffffffffffffffffff16021790555060c08201518160050160146101000a81548165ffffffffffff021916908365ffffffffffff16021790555060e082015181600501601a6101000a81548165ffffffffffff021916908365ffffffffffff1602179055506101008201518160060160006101000a8154816fffffffffffffffffffffffffffffffff02191690836fffffffffffffffffffffffffffffffff1602179055506101208201518160060160106101000a81548165ffffffffffff021916908365ffffffffffff1602179055506101408201518160060160166101000a81548165ffffffffffff021916908365ffffffffffff16021790555061016082015181600601601c6101000a81548160ff02191690831515021790555061018082015181600601601d6101000a81548160ff0219169083151502179055506101a08201518160070160006101000a8154816fffffffffffffffffffffffffffffffff02191690836fffffffffffffffffffffffffffffffff1602179055506101c08201518160070160106101000a8154816fffffffffffffffffffffffffffffffff02191690836fffffffffffffffffffffffffffffffff1602179055509050508060e0015165ffffffffffff16600460005060008360a0015173ffffffffffffffffffffffffffffffffffffffff1673ffffffffffffffffffffffffffffffffffffffff1681526020019081526020016000206000508190909055503373ffffffffffffffffffffffffffffffffffffffff168160e0015165ffffffffffff167fcd423cc1203c0af96b9b3d68d73b3064a69de2d14450bb7181c5e5df2132b35860405160405180910390a38060e0015165ffffffffffff16945050505050612d9256505050505b95945050505050565b60046007811115612da857fe5b612db7826110bd63ffffffff16565b6007811115612dc257fe5b141515612e04576040517f08c379a0000000000000000000000000000000000000000000000000000000008152600401612dfb90615553565b60405180910390fd5b60006003600050600083815260200190815260200160002060005090506000612ed2427f000000000000000000000000000000000000000000000000000000000000000073ffffffffffffffffffffffffffffffffffffffff16636a42b8f86040518163ffffffff1660e01b815260040160206040518083038186803b158015612e8e5760006000fd5b505afa158015612ea3573d600060003e3d6000fd5b505050506040513d601f19601f82011682018060405250810190612ec79190614a76565b61357763ffffffff16565b90506000600090505b82600001600050805490508110156130c3576130b58360000160005082815481101515612f0457fe5b906000526020600020900160005b9054906101000a900473ffffffffffffffffffffffffffffffffffffffff168460010160005083815481101515612f4557fe5b906000526020600020900160005b508054600181600116156101000203166002900480601f016020809104026020016040519081016040528092919081815260200182805460018160011615610100020316600290048015612fe85780601f10612fbd57610100808354040283529160200191612fe8565b820191906000526020600020905b815481529060010190602001808311612fcb57829003601f168201915b5050505050856002016000508481548110151561300157fe5b906000526020600020900160005b508054600181600116156101000203166002900480601f0160208091040260200160405190810160405280929190818152602001828054600181600116156101000203166002900480156130a45780601f10613079576101008083540402835291602001916130a4565b820191906000526020600020905b81548152906001019060200180831161308757829003601f168201915b505050505085613f2c63ffffffff16565b5b8080600101915050612edb565b506130d381613e6e63ffffffff16565b8260050160146101000a81548165ffffffffffff021916908365ffffffffffff160217905550827f9a2e42fd6722813d69113e7d0079d3d940171428df7373df9c7f7617cfda2892826040516131299190615ed7565b60405180910390a250505b50565b7f8e25870c07e0b0b3884c78da52790939a455c275406c44ae8b434b692fb916ee81565b613163614254565b6002600050600084815260200190815260200160002060005060008373ffffffffffffffffffffffffffffffffffffffff1673ffffffffffffffffffffffffffffffffffffffff1681526020019081526020016000206000506040518060800160405290816000820160009054906101000a900460ff161515151581526020016000820160019054906101000a900460ff161515151581526020016000820160029054906101000a900460ff161515151581526020016000820160039054906101000a900476ffffffffffffffffffffffffffffffffffffffffffffff1676ffffffffffffffffffffffffffffffffffffffffffffff1676ffffffffffffffffffffffffffffffffffffffffffffff16815260200150509050613281565b92915050565b6005600781111561329457fe5b6132a3826110bd63ffffffff16565b60078111156132ae57fe5b1415156132f0576040517f08c379a00000000000000000000000000000000000000000000000000000000081526004016132e7906155de565b60405180910390fd5b6000600360005060008381526020019081526020016000206000509050600181600601601d6101000a81548160ff0219169083151502179055506000600090505b81600001600050805490508110156134a4577f000000000000000000000000000000000000000000000000000000000000000073ffffffffffffffffffffffffffffffffffffffff16633ec5ab32836000016000508381548110151561339357fe5b906000526020600020900160005b9054906101000a900473ffffffffffffffffffffffffffffffffffffffff1684600101600050848154811015156133d457fe5b906000526020600020900160005b5085600201600050858154811015156133f757fe5b906000526020600020900160005b508660050160149054906101000a900465ffffffffffff166040518563ffffffff1660e01b815260040161343c9493929190615035565b600060405180830381600087803b1580156134575760006000fd5b505af115801561346c573d600060003e3d6000fd5b505050506040513d6000823e3d601f19601f8201168201806040525081019061349591906149d9565b505b8080600101915050613331565b50817f712ae1383f79ac853f8d882153778e0260ef8f03b504e2866e0593e04d2b291f60405160405180910390a2505b50565b600060006134ea836110bd63ffffffff16565b9050600460078111156134f957fe5b81600781111561350557fe5b148061352757506003600781111561351957fe5b81600781111561352557fe5b145b8061354857506005600781111561353a57fe5b81600781111561354657fe5b145b8061356957506007600781111561355b57fe5b81600781111561356757fe5b145b91505061357256505b919050565b6000600082840190508381101515156135c5576040517f08c379a00000000000000000000000000000000000000000000000000000000081526004016135bc9061591f565b60405180910390fd5b809150506135cf56505b92915050565b60006135f08383670de0b6b3a76400006135fb63ffffffff16565b905080505b92915050565b600060006000600019858709858702925082811083820303915050600081141561363e5760008411151561362f5760006000fd5b838204925082925050506136f5565b808411151561364d5760006000fd5b60008486880990508281118203915080830392506000858660000316905080860495508084049350600181826000030401905080830284179350835060006002876003021890508087026002038102905080508087026002038102905080508087026002038102905080508087026002038102905080508087026002038102905080508087026002038102905080508085029550855085955050505050506136f55650505050505b9392505050565b7f000000000000000000000000000000000000000000000000000000000000000073ffffffffffffffffffffffffffffffffffffffff16630793298783836040518363ffffffff1660e01b8152600401613757929190615091565b600060405180830381600087803b1580156137725760006000fd5b505af1158015613787573d600060003e3d6000fd5b505050505b5050565b6001600781111561379d57fe5b6137ac836110bd63ffffffff16565b60078111156137b757fe5b1415156137f9576040517f08c379a00000000000000000000000000000000000000000000000000000000081526004016137f090615ddb565b60405180910390fd5b6000600360005060008481526020019081526020016000206000509050600015156002600050600085815260200190815260200160002060005060008673ffffffffffffffffffffffffffffffffffffffff1673ffffffffffffffffffffffffffffffffffffffff16815260200190815260200160002060005060000160009054906101000a900460ff1615151415156138c8576040517f08c379a00000000000000000000000000000000000000000000000000000000081526004016138bf906157ca565b60405180910390fd5b60007f000000000000000000000000000000000000000000000000000000000000000073ffffffffffffffffffffffffffffffffffffffff1663782d6fe1868460060160109054906101000a900465ffffffffffff166040518363ffffffff1660e01b815260040161393b9291906150c0565b60206040518083038186803b1580156139545760006000fd5b505afa158015613969573d600060003e3d6000fd5b505050506040513d601f19601f8201168201806040525081019061398d9190614a76565b90508215613a24576139e56139da8360060160009054906101000a90046fffffffffffffffffffffffffffffffff166fffffffffffffffffffffffffffffffff168361357763ffffffff16565b613ec863ffffffff16565b8260060160006101000a8154816fffffffffffffffffffffffffffffffff02191690836fffffffffffffffffffffffffffffffff160217905550613aaf565b613a74613a698360070160009054906101000a90046fffffffffffffffffffffffffffffffff166fffffffffffffffffffffffffffffffff168361357763ffffffff16565b613ec863ffffffff16565b8260070160006101000a8154816fffffffffffffffffffffffffffffffff02191690836fffffffffffffffffffffffffffffffff1602179055505b60405180608001604052806001151581526020018415158152602001600015158152602001613ae38361410063ffffffff16565b76ffffffffffffffffffffffffffffffffffffffffffffff168152602001506002600050600086815260200190815260200160002060005060008773ffffffffffffffffffffffffffffffffffffffff1673ffffffffffffffffffffffffffffffffffffffff16815260200190815260200160002060005060008201518160000160006101000a81548160ff02191690831515021790555060208201518160000160016101000a81548160ff02191690831515021790555060408201518160000160026101000a81548160ff02191690831515021790555060608201518160000160036101000a81548176ffffffffffffffffffffffffffffffffffffffffffffff021916908376ffffffffffffffffffffffffffffffffffffffffffffff160217905550905050821515848673ffffffffffffffffffffffffffffffffffffffff167f877856338e13f63d0c36822ff0ef736b80934cd90574a3a5bc9262c39d217c4684604051613c559190615ed7565b60405180910390a450505b505050565b6000828211151515613cac576040517f08c379a0000000000000000000000000000000000000000000000000000000008152600401613ca390615e7f565b60405180910390fd5b8183039050613cb6565b92915050565b6000600046905080915050613ccd56505b90565b6000600160009054906101000a900473ffffffffffffffffffffffffffffffffffffffff1673ffffffffffffffffffffffffffffffffffffffff168273ffffffffffffffffffffffffffffffffffffffff161480613dd0575060017f000000000000000000000000000000000000000000000000000000000000000073ffffffffffffffffffffffffffffffffffffffff1663055ad42e6040518163ffffffff1660e01b815260040160206040518083038186803b158015613d925760006000fd5b505afa158015613da7573d600060003e3d6000fd5b505050506040513d601f19601f82011682018060405250810190613dcb9190614b4a565b60ff16115b9050613dd7565b919050565b7f000000000000000000000000000000000000000000000000000000000000000073ffffffffffffffffffffffffffffffffffffffff1663a43c36af83836040518363ffffffff1660e01b8152600401613e37929190614fa8565b60006040518083038186803b158015613e505760006000fd5b505afa158015613e65573d600060003e3d6000fd5b505050505b5050565b6000660100000000000082101515613ebb576040517f08c379a0000000000000000000000000000000000000000000000000000000008152600401613eb290615d37565b60405180910390fd5b819050613ec3565b919050565b600070010000000000000000000000000000000082101515613f1f576040517f08c379a0000000000000000000000000000000000000000000000000000000008152600401613f16906156a8565b60405180910390fd5b819050613f27565b919050565b7f000000000000000000000000000000000000000000000000000000000000000073ffffffffffffffffffffffffffffffffffffffff1663f2b0653785858585604051602001613f7f9493929190614fe1565b604051602081830303815290604052805190602001206040518263ffffffff1660e01b8152600401613fb19190615331565b60206040518083038186803b158015613fca5760006000fd5b505afa158015613fdf573d600060003e3d6000fd5b505050506040513d601f19601f820116820180604052508101906140039190614996565b151515614045576040517f08c379a000000000000000000000000000000000000000000000000000000000815260040161403c90615a8d565b60405180910390fd5b7f000000000000000000000000000000000000000000000000000000000000000073ffffffffffffffffffffffffffffffffffffffff16630e70eace858585856040518563ffffffff1660e01b81526004016140a49493929190614fe1565b602060405180830381600087803b1580156140bf5760006000fd5b505af11580156140d4573d600060003e3d6000fd5b505050506040513d601f19601f820116820180604052508101906140f891906149bd565b505b50505050565b6000770100000000000000000000000000000000000000000000008210151561415e576040517f08c379a000000000000000000000000000000000000000000000000000000000815260040161415590615e40565b60405180910390fd5b819050614166565b919050565b604051806101e001604052806060815260200160608152602001606081526020016060815260200160608152602001600073ffffffffffffffffffffffffffffffffffffffff168152602001600065ffffffffffff168152602001600065ffffffffffff16815260200160006fffffffffffffffffffffffffffffffff168152602001600065ffffffffffff168152602001600065ffffffffffff16815260200160001515815260200160001515815260200160006fffffffffffffffffffffffffffffffff16815260200160006fffffffffffffffffffffffffffffffff1681526020015090565b6040518060800160405280600015158152602001600015158152602001600015158152602001600076ffffffffffffffffffffffffffffffffffffffffffffff1681526020015090565b828054828255906000526020600020908101928215614317579160200282015b828111156143165782518260006101000a81548173ffffffffffffffffffffffffffffffffffffffff021916908373ffffffffffffffffffffffffffffffffffffffff160217905550916020019190600101906142be565b5b509050614324919061447b565b5090565b828054828255906000526020600020908101928215614377579160200282015b828111156143765782518290805190602001906143669291906143e8565b5091602001919060010190614348565b5b509050614384919061449e565b5090565b8280548282559060005260206000209081019282156143d7579160200282015b828111156143d65782518290805190602001906143c69291906144c6565b50916020019190600101906143a8565b5b5090506143e49190614559565b5090565b828054600181600116156101000203166002900490600052602060002090601f01602090048101928261441e576000855561446a565b82601f1061443757805160ff191683800117855561446a565b8280016001018555821561446a579182015b828111156144695782518260005090905591602001919060010190614449565b5b509050614477919061447b565b5090565b614480565b8082111561449a5760008181506000905550600101614480565b5090565b6144a3565b808211156144c257600081816144b99190614581565b506001016144a3565b5090565b828054600181600116156101000203166002900490600052602060002090601f0160209004810192826144fc5760008555614548565b82601f1061451557805160ff1916838001178555614548565b82800160010185558215614548579182015b828111156145475782518260005090905591602001919060010190614527565b5b509050614555919061447b565b5090565b61455e565b8082111561457d576000818161457491906145c9565b5060010161455e565b5090565b50805460018160011615610100020316600290046000825580601f106145a757506145c6565b601f0160209004906000526020600020908101906145c5919061447b565b5b50565b50805460018160011615610100020316600290046000825580601f106145ef575061460e565b601f01602090049060005260206000209081019061460d919061447b565b5b5056616007565b600061462861462384615f51565b615f03565b905082815283838301111561463d5760006000fd5b828260208301376000602084830101525b9392505050565b60008135905073ffffffffffffffffffffffffffffffffffffffff8116811415156146805760006000fd5b5b919050565b600082601f8301121515614698578081fd5b813560206146ad6146a883615f2e565b615f03565b808382528282019150828601878485870289010111156146cb578586fd5b855b858110156146f6576146de82614655565b8452848401935084820191505b6001810190506146cd565b5050809450505050505b92915050565b600082601f8301121515614718578081fd5b8135602061472d61472883615f2e565b615f03565b808382528282019150828601855b85811015614781578135880189603f8201121515614757578788fd5b6147688a8783013560408401614615565b855250848401935084820191505b60018101905061473b565b5050809450505050505b92915050565b600082601f83011215156147a3578081fd5b813560206147b86147b383615f2e565b615f03565b808382528282019150828601855b858110156147f5576147dd898684358b0101614805565b8452848401935084820191505b6001810190506147c6565b5050809450505050505b92915050565b600082601f8301121515614817578081fd5b61482683833560208501614615565b90505b92915050565b600060208284031215614840578081fd5b61484982614655565b90505b92915050565b6000600060006000600060a0868803121561486b578081fd5b853567ffffffffffffffff80821115614882578283fd5b61488e89838a01614686565b965060208801359150808211156148a3578283fd5b6148af89838a01614791565b955060408801359150808211156148c4578283fd5b6148d089838a01614706565b945060608801359150808211156148e5578283fd5b6148f189838a01614805565b93506080880135915080821115614906578283fd5b5061491388828901614805565b9150505b9295509295909350565b6000600060208385031215614934578182fd5b823567ffffffffffffffff8082111561494b578384fd5b818501915085601f8301121515614960578384fd5b81358181111561496e578485fd5b866020602083028501011115614982578485fd5b6020830194508093505050505b9250929050565b6000602082840312156149a7578081fd5b81516149b281615fdc565b809150505b92915050565b6000602082840312156149ce578081fd5b815190505b92915050565b6000602082840312156149ea578081fd5b815167ffffffffffffffff811115614a00578182fd5b808301905083601f8201121515614a15578182fd5b8051614a28614a2382615f51565b615f03565b818152856020838501011115614a3c578384fd5b614a4d826020830160208601615fa7565b8093505050505b92915050565b600060208284031215614a6b578081fd5b813590505b92915050565b600060208284031215614a87578081fd5b815190505b92915050565b6000600060408385031215614aa5578182fd5b82359150614ab560208401614655565b90505b9250929050565b6000600060408385031215614ad2578182fd5b823591506020830135614ae481615fdc565b809150505b9250929050565b6000600060006000600060a08688031215614b09578283fd5b853594506020860135614b1b81615fdc565b809450506040860135614b2d81615ff1565b8093505060608601359150608086013590505b9295509295909350565b600060208284031215614b5b578081fd5b8151614b6681615ff1565b809150505b92915050565b73ffffffffffffffffffffffffffffffffffffffff811682525b5050565b6000815180845260208085019450808401835b83811015614bda5773ffffffffffffffffffffffffffffffffffffffff8251168752828701965082820191505b600181019050614ba2565b505050508290505b92915050565b60008282518085526020808601955080818302840101818601855b84811015614c55577fffffffffffffffffffffffffffffffffffffffffffffffffffffffffffffffe0868403018952614c3d838351614d04565b9250838201915083890198505b600181019050614c03565b5050809450505050505b92915050565b6000815180845260208085019450808401835b83811015614ca157614c8b878351614df6565b828701965082820191505b600181019050614c78565b505050508290505b92915050565b6000815180845260208085019450808401835b83811015614cec57614cd5878351614e0a565b60808701965082820191505b600181019050614cc2565b505050508290505b92915050565b80151582525b5050565b60008151808452614d1c816020860160208601615fa7565b60207fffffffffffffffffffffffffffffffffffffffffffffffffffffffffffffffe0601f8301168501019150505b92915050565b60008154600180821660008114614d6f5760018114614dab57614dec565b607f600284041686527fffffffffffffffffffffffffffffffffffffffffffffffffffffffffffffff0083166020870152604086019350614dec565b60028304808752614dbb86615f96565b60005b82811015614de05781546020828b01015284820191505b602081019050614dbe565b6020818a010196505050505b5050505b92915050565b600881101515614e0257fe5b8082525b5050565b80511515825260208101511515602083015260408101511515604083015276ffffffffffffffffffffffffffffffffffffffffffffff60608201511660608301525b5050565b6fffffffffffffffffffffffffffffffff811682525b5050565b65ffffffffffff811682525b5050565b6000808354600180821660008114614e995760018114614ece57614f04565b7fffffffffffffffffffffffffffffffffffffffffffffffffffffffffffffff0083168652607f600284041686019350614f04565b600283048786526020808720875b83811015614efa578154818b015285820191505b8281019050614edc565b5050508087019450505b505050809150505b92915050565b60007f190100000000000000000000000000000000000000000000000000000000000082528360028301528260228301526042820190505b9392505050565b600060208201905073ffffffffffffffffffffffffffffffffffffffff831682525b92915050565b600060408201905073ffffffffffffffffffffffffffffffffffffffff841682528260208301525b9392505050565b600073ffffffffffffffffffffffffffffffffffffffff8416825260406020830152614fd76040830184614d04565b90505b9392505050565b600073ffffffffffffffffffffffffffffffffffffffff86168252608060208301526150106080830186614d04565b82810360408401526150228186614d04565b9150508260608301525b95945050505050565b600073ffffffffffffffffffffffffffffffffffffffff86168252608060208301526150646080830186614d51565b82810360408401526150768186614d51565b91505065ffffffffffff831660608301525b95945050505050565b600060408201905073ffffffffffffffffffffffffffffffffffffffff841682528260208301525b9392505050565b600060408201905073ffffffffffffffffffffffffffffffffffffffff8416825265ffffffffffff831660208301525b9392505050565b60006060825261510a6060830186614b8f565b828103602084015261511c8186614be8565b905082810360408401526151308185614be8565b9150505b949350505050565b60006060808301818452808751808352608092508286019150602083818302880101818b01875b848110156152f9577fffffffffffffffffffffffffffffffffffffffffffffffffffffffffffffff808a840301865281516101e081518186526151a882870182614b8f565b91505085820151858203878701526151c08282614be8565b915050604080830151868303828801526151da8382614be8565b92505050898201518582038b8701526151f38282614d04565b915050888201518582038a87015261520b8282614d04565b91505060a08083015161522082880182614b71565b505060c08083015161523482880182614e6a565b505060e08083015161524882880182614e6a565b50506101008083015161525d82880182614e50565b50506101208083015161527282880182614e6a565b50506101408083015161528782880182614e6a565b50506101608083015161529c82880182614cfa565b5050610180808301516152b182880182614cfa565b50506101a0808301516152c682880182614e50565b50506101c08083015192506152dd81870184614e50565b508094505050838201915083860195505b600181019050615163565b50508781038289015261530c818b614c65565b9550505050505082810360408401526153258185614caf565b9150505b949350505050565b60006020820190508282525b92915050565b600060808201905085825284602083015283604083015273ffffffffffffffffffffffffffffffffffffffff831660608301525b95945050505050565b600060608201905084825283602083015282151560408301525b949350505050565b600060808201905085825260ff851660208301528360408301528260608301525b95945050505050565b600060208201905073ffffffffffffffffffffffffffffffffffffffff831682525b92915050565b600060208201905073ffffffffffffffffffffffffffffffffffffffff831682525b92915050565b600060208201905073ffffffffffffffffffffffffffffffffffffffff831682525b92915050565b60006020820190506154568284614df6565b5b92915050565b6000602082526154706020830184614d04565b90505b92915050565b6000610180825261548e61018083018f614d04565b82810360208401526154a0818f614d04565b91505073ffffffffffffffffffffffffffffffffffffffff8c16604083015265ffffffffffff808c166060840152808b166080840152506fffffffffffffffffffffffffffffffff891660a08301526154fc60c0830189614e6a565b61550960e0830188614e6a565b615517610100830187614cfa565b615525610120830186614cfa565b615533610140830185614e50565b615541610160830184614e50565b5b9d9c50505050505050505050505050565b600060208252604460208301527f476f7665726e6f72416c7068613a3a71756575653a2070726f706f73616c206360408301527f616e206f6e6c792062652071756575656420696620697420697320737563636560608301527f6564656400000000000000000000000000000000000000000000000000000000608083015260a0820190505b919050565b600060208252604560208301527f476f7665726e6f72416c7068613a3a657865637574653a2070726f706f73616c60408301527f2063616e206f6e6c79206265206578656375746564206966206974206973207160608301527f7565756564000000000000000000000000000000000000000000000000000000608083015260a0820190505b919050565b600060208252601560208301527f50726f706f73616c206e6f7420636f6d706c657465000000000000000000000060408301526060820190505b919050565b600060208252601060208301527f457863656564732031323820626974730000000000000000000000000000000060408301526060820190505b919050565b600060208252602960208301527f476f7665726e6f72416c7068613a3a73746174653a20696e76616c696420707260408301527f6f706f73616c206964000000000000000000000000000000000000000000000060608301526080820190505b919050565b600060208252600d60208301527f486173206e6f7420766f7465640000000000000000000000000000000000000060408301526060820190505b919050565b600060208252600e60208301527f4e6f7420417574686f72697a656400000000000000000000000000000000000060408301526060820190505b919050565b600060208252602d60208301527f476f7665726e6f72416c7068613a3a5f63617374566f74653a20766f7465722060408301527f616c726561647920766f7465640000000000000000000000000000000000000060608301526080820190505b919050565b600060208252605960208301527f476f7665726e6f72416c7068613a3a70726f706f73653a206f6e65206c69766560408301527f2070726f706f73616c207065722070726f706f7365722c20666f756e6420616e60608301527f20616c72656164792070656e64696e672070726f706f73616c00000000000000608083015260a0820190505b919050565b600060208252602860208301527f476f7665726e6f72416c7068613a3a70726f706f73653a20746f6f206d616e7960408301527f20616374696f6e7300000000000000000000000000000000000000000000000060608301526080820190505b919050565b600060208252601160208301527f6164646974696f6e206f766572666c6f7700000000000000000000000000000060408301526060820190505b919050565b600060208252604460208301527f476f7665726e6f72416c7068613a3a70726f706f73653a2070726f706f73616c60408301527f2066756e6374696f6e20696e666f726d6174696f6e206172697479206d69736d60608301527f6174636800000000000000000000000000000000000000000000000000000000608083015260a0820190505b919050565b600060208252602f60208301527f476f7665726e6f72416c7068613a3a63616e63656c3a2070726f706f7365722060408301527f61626f7665207468726573686f6c64000000000000000000000000000000000060608301526080820190505b919050565b600060208252601860208301527f5265776172647320616c7265616479207265636569766564000000000000000060408301526060820190505b919050565b600060208252604460208301527f476f7665726e6f72416c7068613a3a5f71756575654f725265766572743a207060408301527f726f706f73616c20616374696f6e20616c72656164792071756575656420617460608301527f2065746100000000000000000000000000000000000000000000000000000000608083015260a0820190505b919050565b600060208252602560208301527f43616e742063616e63656c20616674657220766f74696e6720697320636f6d7060408301527f6c6574656400000000000000000000000000000000000000000000000000000060608301526080820190505b919050565b600060208252602c60208301527f476f7665726e6f72416c7068613a3a70726f706f73653a206d7573742070726f60408301527f7669646520616374696f6e73000000000000000000000000000000000000000060608301526080820190505b919050565b600060208252603f60208301527f476f7665726e6f72416c7068613a3a70726f706f73653a2070726f706f73657260408301527f20766f7465732062656c6f772070726f706f73616c207468726573686f6c640060608301526080820190505b919050565b600060208252602f60208301527f476f7665726e6f72416c7068613a3a63617374566f746542795369673a20696e60408301527f76616c6964207369676e6174757265000000000000000000000000000000000060608301526080820190505b919050565b600060208252605860208301527f476f7665726e6f72416c7068613a3a70726f706f73653a206f6e65206c69766560408301527f2070726f706f73616c207065722070726f706f7365722c20666f756e6420616e60608301527f20616c7265616479206163746976652070726f706f73616c0000000000000000608083015260a0820190505b919050565b600060208252600f60208301527f457863656564732034382062697473000000000000000000000000000000000060408301526060820190505b919050565b600060208252603660208301527f476f7665726e6f72416c7068613a3a63616e63656c3a2063616e6e6f7420636160408301527f6e63656c2065786563757465642070726f706f73616c0000000000000000000060608301526080820190505b919050565b600060208252602a60208301527f476f7665726e6f72416c7068613a3a5f63617374566f74653a20766f74696e6760408301527f20697320636c6f7365640000000000000000000000000000000000000000000060608301526080820190505b919050565b600060208252601060208301527f457863656564732031383420626974730000000000000000000000000000000060408301526060820190505b919050565b600060208252601560208301527f7375627472616374696f6e20756e646572666c6f77000000000000000000000060408301526060820190505b919050565b6000608082019050615ed08284614e0a565b5b92915050565b60006020820190508282525b92915050565b600060208201905065ffffffffffff831682525b92915050565b6000604051905081810181811067ffffffffffffffff82111715615f2357fe5b80604052505b919050565b600067ffffffffffffffff821115615f4257fe5b6020602083020190505b919050565b600067ffffffffffffffff821115615f6557fe5b60207fffffffffffffffffffffffffffffffffffffffffffffffffffffffffffffffe0601f8401160190505b919050565b60008181526020812090505b919050565b60005b83811015615fc65780820151818401525b602081019050615faa565b83811115615fd5576000848401525b505b505050565b80151581141515615fed5760006000fd5b5b50565b60ff8116811415156160035760006000fd5b5b50565bfea264697066735822122015a82a9578ec5baf5204d0afdce103a5ffc4f1956bc09a1651aa870a9930d57a64736f6c63430007060033",
  "linkReferences": {},
  "deployedLinkReferences": {}
}