{
  "_format": "hh-sol-artifact-1",
  "contractName": "TcpGovernorAlpha",
  "sourceName": "contracts/core/governance/TcpGovernorAlpha.sol",
  "abi": [
    {
      "inputs": [
        {
          "components": [
            {
              "internalType": "address",
              "name": "TcpTimelock",
              "type": "address"
            },
            {
              "internalType": "address",
              "name": "Tcp",
              "type": "address"
            },
            {
              "internalType": "address",
              "name": "Guardian",
              "type": "address"
            },
            {
              "internalType": "uint48",
              "name": "VoteBlockCount",
              "type": "uint48"
            },
            {
              "internalType": "address",
              "name": "Governor",
              "type": "address"
            }
          ],
          "internalType": "struct TcpGovernorAlpha.ConstructorParams",
          "name": "params",
          "type": "tuple"
        }
      ],
      "stateMutability": "nonpayable",
      "type": "constructor"
    },
    {
      "anonymous": false,
      "inputs": [
        {
          "indexed": true,
          "internalType": "uint256",
          "name": "id",
          "type": "uint256"
        }
      ],
      "name": "ProposalCanceled",
      "type": "event"
    },
    {
      "anonymous": false,
      "inputs": [
        {
          "indexed": true,
          "internalType": "uint256",
          "name": "id",
          "type": "uint256"
        },
        {
          "indexed": true,
          "internalType": "address",
          "name": "proposer",
          "type": "address"
        }
      ],
      "name": "ProposalCreated",
      "type": "event"
    },
    {
      "anonymous": false,
      "inputs": [
        {
          "indexed": true,
          "internalType": "uint256",
          "name": "id",
          "type": "uint256"
        }
      ],
      "name": "ProposalExecuted",
      "type": "event"
    },
    {
      "anonymous": false,
      "inputs": [
        {
          "indexed": true,
          "internalType": "uint256",
          "name": "id",
          "type": "uint256"
        },
        {
          "indexed": false,
          "internalType": "uint256",
          "name": "eta",
          "type": "uint256"
        }
      ],
      "name": "ProposalQueued",
      "type": "event"
    },
    {
      "anonymous": false,
      "inputs": [
        {
          "indexed": true,
          "internalType": "address",
          "name": "voter",
          "type": "address"
        },
        {
          "indexed": true,
          "internalType": "uint256",
          "name": "proposalId",
          "type": "uint256"
        },
        {
          "indexed": true,
          "internalType": "bool",
          "name": "support",
          "type": "bool"
        },
        {
          "indexed": false,
          "internalType": "uint256",
          "name": "votes",
          "type": "uint256"
        }
      ],
      "name": "VoteCast",
      "type": "event"
    },
    {
      "anonymous": false,
      "inputs": [
        {
          "indexed": true,
          "internalType": "address",
          "name": "voter",
          "type": "address"
        },
        {
          "indexed": false,
          "internalType": "uint256",
          "name": "count",
          "type": "uint256"
        }
      ],
      "name": "VotingRewardsDistributed",
      "type": "event"
    },
    {
      "inputs": [],
      "name": "BALLOT_TYPEHASH",
      "outputs": [
        {
          "internalType": "bytes32",
          "name": "",
          "type": "bytes32"
        }
      ],
      "stateMutability": "view",
      "type": "function"
    },
    {
      "inputs": [],
      "name": "DOMAIN_TYPEHASH",
      "outputs": [
        {
          "internalType": "bytes32",
          "name": "",
          "type": "bytes32"
        }
      ],
      "stateMutability": "view",
      "type": "function"
    },
    {
      "inputs": [],
      "name": "INFLATION_PERCENTAGE",
      "outputs": [
        {
          "internalType": "uint256",
          "name": "",
          "type": "uint256"
        }
      ],
      "stateMutability": "view",
      "type": "function"
    },
    {
      "inputs": [],
      "name": "__abdicate",
      "outputs": [],
      "stateMutability": "nonpayable",
      "type": "function"
    },
    {
      "inputs": [
        {
          "internalType": "uint256",
          "name": "proposalId",
          "type": "uint256"
        }
      ],
      "name": "cancel",
      "outputs": [],
      "stateMutability": "nonpayable",
      "type": "function"
    },
    {
      "inputs": [
        {
          "internalType": "uint256",
          "name": "proposalId",
          "type": "uint256"
        },
        {
          "internalType": "bool",
          "name": "support",
          "type": "bool"
        }
      ],
      "name": "castVote",
      "outputs": [],
      "stateMutability": "nonpayable",
      "type": "function"
    },
    {
      "inputs": [
        {
          "internalType": "uint256",
          "name": "proposalId",
          "type": "uint256"
        },
        {
          "internalType": "bool",
          "name": "support",
          "type": "bool"
        },
        {
          "internalType": "uint8",
          "name": "v",
          "type": "uint8"
        },
        {
          "internalType": "bytes32",
          "name": "r",
          "type": "bytes32"
        },
        {
          "internalType": "bytes32",
          "name": "s",
          "type": "bytes32"
        }
      ],
      "name": "castVoteBySig",
      "outputs": [],
      "stateMutability": "nonpayable",
      "type": "function"
    },
    {
      "inputs": [
        {
          "internalType": "uint256[]",
          "name": "proposalIDs",
          "type": "uint256[]"
        }
      ],
      "name": "claimVotingRewards",
      "outputs": [],
      "stateMutability": "nonpayable",
      "type": "function"
    },
    {
      "inputs": [
        {
          "internalType": "uint256",
          "name": "proposalID",
          "type": "uint256"
        },
        {
          "internalType": "address",
          "name": "voter",
          "type": "address"
        }
      ],
      "name": "countVotingRewards",
      "outputs": [
        {
          "internalType": "uint256",
          "name": "",
          "type": "uint256"
        }
      ],
      "stateMutability": "view",
      "type": "function"
    },
    {
      "inputs": [
        {
          "internalType": "uint256",
          "name": "proposalId",
          "type": "uint256"
        }
      ],
      "name": "execute",
      "outputs": [],
      "stateMutability": "nonpayable",
      "type": "function"
    },
    {
      "inputs": [
        {
          "internalType": "uint256",
          "name": "proposalId",
          "type": "uint256"
        }
      ],
      "name": "getActions",
      "outputs": [
        {
          "internalType": "address[]",
          "name": "targets",
          "type": "address[]"
        },
        {
          "internalType": "string[]",
          "name": "signatures",
          "type": "string[]"
        },
        {
          "internalType": "bytes[]",
          "name": "calldatas",
          "type": "bytes[]"
        }
      ],
      "stateMutability": "view",
      "type": "function"
    },
    {
      "inputs": [],
      "name": "getProposals",
      "outputs": [
        {
          "components": [
            {
              "internalType": "address[]",
              "name": "targets",
              "type": "address[]"
            },
            {
              "internalType": "string[]",
              "name": "signatures",
              "type": "string[]"
            },
            {
              "internalType": "bytes[]",
              "name": "calldatas",
              "type": "bytes[]"
            },
            {
              "internalType": "string",
              "name": "title",
              "type": "string"
            },
            {
              "internalType": "string",
              "name": "ipfsHash",
              "type": "string"
            },
            {
              "internalType": "address",
              "name": "proposer",
              "type": "address"
            },
            {
              "internalType": "uint48",
              "name": "eta",
              "type": "uint48"
            },
            {
              "internalType": "uint48",
              "name": "id",
              "type": "uint48"
            },
            {
              "internalType": "uint128",
              "name": "forVotes",
              "type": "uint128"
            },
            {
              "internalType": "uint48",
              "name": "startBlock",
              "type": "uint48"
            },
            {
              "internalType": "uint48",
              "name": "endBlock",
              "type": "uint48"
            },
            {
              "internalType": "bool",
              "name": "canceled",
              "type": "bool"
            },
            {
              "internalType": "bool",
              "name": "executed",
              "type": "bool"
            },
            {
              "internalType": "uint128",
              "name": "againstVotes",
              "type": "uint128"
            },
            {
              "internalType": "uint128",
              "name": "initialSupply",
              "type": "uint128"
            },
            {
              "internalType": "enum GovernorAlpha.ProposalState",
              "name": "state",
              "type": "uint8"
            }
          ],
          "internalType": "struct GovernorAlphaWithVotingRewards.ProposalInfo[]",
          "name": "proposalsInfo",
          "type": "tuple[]"
        }
      ],
      "stateMutability": "view",
      "type": "function"
    },
    {
      "inputs": [
        {
          "internalType": "address",
          "name": "voter",
          "type": "address"
        }
      ],
      "name": "getProposalsVoterInfo",
      "outputs": [
        {
          "components": [
            {
              "internalType": "uint48",
              "name": "id",
              "type": "uint48"
            },
            {
              "components": [
                {
                  "internalType": "bool",
                  "name": "hasVoted",
                  "type": "bool"
                },
                {
                  "internalType": "bool",
                  "name": "support",
                  "type": "bool"
                },
                {
                  "internalType": "bool",
                  "name": "rewardReceived",
                  "type": "bool"
                },
                {
                  "internalType": "uint184",
                  "name": "votes",
                  "type": "uint184"
                }
              ],
              "internalType": "struct GovernorAlpha.Receipt",
              "name": "receipt",
              "type": "tuple"
            },
            {
              "internalType": "uint256",
              "name": "votingPower",
              "type": "uint256"
            },
            {
              "internalType": "uint256",
              "name": "votingRewards",
              "type": "uint256"
            }
          ],
          "internalType": "struct GovernorAlphaWithVotingRewards.ProposalVoterInfo[]",
          "name": "proposalsVoterInfo",
          "type": "tuple[]"
        }
      ],
      "stateMutability": "view",
      "type": "function"
    },
    {
      "inputs": [
        {
          "internalType": "uint256",
          "name": "proposalId",
          "type": "uint256"
        },
        {
          "internalType": "address",
          "name": "voter",
          "type": "address"
        }
      ],
      "name": "getReceipt",
      "outputs": [
        {
          "components": [
            {
              "internalType": "bool",
              "name": "hasVoted",
              "type": "bool"
            },
            {
              "internalType": "bool",
              "name": "support",
              "type": "bool"
            },
            {
              "internalType": "bool",
              "name": "rewardReceived",
              "type": "bool"
            },
            {
              "internalType": "uint184",
              "name": "votes",
              "type": "uint184"
            }
          ],
          "internalType": "struct GovernorAlpha.Receipt",
          "name": "",
          "type": "tuple"
        }
      ],
      "stateMutability": "view",
      "type": "function"
    },
    {
      "inputs": [],
      "name": "governor",
      "outputs": [
        {
          "internalType": "contract IGovernor",
          "name": "",
          "type": "address"
        }
      ],
      "stateMutability": "view",
      "type": "function"
    },
    {
      "inputs": [],
      "name": "guardian",
      "outputs": [
        {
          "internalType": "address",
          "name": "",
          "type": "address"
        }
      ],
      "stateMutability": "view",
      "type": "function"
    },
    {
      "inputs": [],
      "name": "implementsVotingRewardsWithToken",
      "outputs": [
        {
          "internalType": "address",
          "name": "",
          "type": "address"
        }
      ],
      "stateMutability": "view",
      "type": "function"
    },
    {
      "inputs": [
        {
          "internalType": "address",
          "name": "",
          "type": "address"
        }
      ],
      "name": "latestProposalIds",
      "outputs": [
        {
          "internalType": "uint256",
          "name": "",
          "type": "uint256"
        }
      ],
      "stateMutability": "view",
      "type": "function"
    },
    {
      "inputs": [],
      "name": "name",
      "outputs": [
        {
          "internalType": "string",
          "name": "",
          "type": "string"
        }
      ],
      "stateMutability": "view",
      "type": "function"
    },
    {
      "inputs": [],
      "name": "proposalCount",
      "outputs": [
        {
          "internalType": "uint48",
          "name": "",
          "type": "uint48"
        }
      ],
      "stateMutability": "view",
      "type": "function"
    },
    {
      "inputs": [],
      "name": "proposalMaxOperations",
      "outputs": [
        {
          "internalType": "uint256",
          "name": "",
          "type": "uint256"
        }
      ],
      "stateMutability": "pure",
      "type": "function"
    },
    {
      "inputs": [],
      "name": "proposalThreshold",
      "outputs": [
        {
          "internalType": "uint256",
          "name": "",
          "type": "uint256"
        }
      ],
      "stateMutability": "view",
      "type": "function"
    },
    {
      "inputs": [
        {
          "internalType": "uint256",
          "name": "",
          "type": "uint256"
        }
      ],
      "name": "proposals",
      "outputs": [
        {
          "internalType": "string",
          "name": "title",
          "type": "string"
        },
        {
          "internalType": "string",
          "name": "ipfsHash",
          "type": "string"
        },
        {
          "internalType": "address",
          "name": "proposer",
          "type": "address"
        },
        {
          "internalType": "uint48",
          "name": "eta",
          "type": "uint48"
        },
        {
          "internalType": "uint48",
          "name": "id",
          "type": "uint48"
        },
        {
          "internalType": "uint128",
          "name": "forVotes",
          "type": "uint128"
        },
        {
          "internalType": "uint48",
          "name": "startBlock",
          "type": "uint48"
        },
        {
          "internalType": "uint48",
          "name": "endBlock",
          "type": "uint48"
        },
        {
          "internalType": "bool",
          "name": "canceled",
          "type": "bool"
        },
        {
          "internalType": "bool",
          "name": "executed",
          "type": "bool"
        },
        {
          "internalType": "uint128",
          "name": "againstVotes",
          "type": "uint128"
        },
        {
          "internalType": "uint128",
          "name": "initialSupply",
          "type": "uint128"
        }
      ],
      "stateMutability": "view",
      "type": "function"
    },
    {
      "inputs": [
        {
          "internalType": "address[]",
          "name": "targets",
          "type": "address[]"
        },
        {
          "internalType": "string[]",
          "name": "signatures",
          "type": "string[]"
        },
        {
          "internalType": "bytes[]",
          "name": "calldatas",
          "type": "bytes[]"
        },
        {
          "internalType": "string",
          "name": "title",
          "type": "string"
        },
        {
          "internalType": "string",
          "name": "ipfsHash",
          "type": "string"
        }
      ],
      "name": "propose",
      "outputs": [
        {
          "internalType": "uint256",
          "name": "",
          "type": "uint256"
        }
      ],
      "stateMutability": "nonpayable",
      "type": "function"
    },
    {
      "inputs": [
        {
          "internalType": "uint256",
          "name": "proposalId",
          "type": "uint256"
        }
      ],
      "name": "queue",
      "outputs": [],
      "stateMutability": "nonpayable",
      "type": "function"
    },
    {
      "inputs": [],
      "name": "quorumVotes",
      "outputs": [
        {
          "internalType": "uint256",
          "name": "",
          "type": "uint256"
        }
      ],
      "stateMutability": "view",
      "type": "function"
    },
    {
      "inputs": [
        {
          "internalType": "uint256",
          "name": "proposalId",
          "type": "uint256"
        }
      ],
      "name": "state",
      "outputs": [
        {
          "internalType": "enum GovernorAlpha.ProposalState",
          "name": "",
          "type": "uint8"
        }
      ],
      "stateMutability": "view",
      "type": "function"
    },
    {
      "inputs": [],
      "name": "timelock",
      "outputs": [
        {
          "internalType": "contract TimelockInterface",
          "name": "",
          "type": "address"
        }
      ],
      "stateMutability": "view",
      "type": "function"
    },
    {
      "inputs": [],
      "name": "votingDelay",
      "outputs": [
        {
          "internalType": "uint256",
          "name": "",
          "type": "uint256"
        }
      ],
      "stateMutability": "pure",
      "type": "function"
    },
    {
      "inputs": [],
      "name": "votingPeriod",
      "outputs": [
        {
          "internalType": "uint256",
          "name": "",
          "type": "uint256"
        }
      ],
      "stateMutability": "view",
      "type": "function"
    },
    {
      "inputs": [],
      "name": "votingPeriodBlocks",
      "outputs": [
        {
          "internalType": "uint48",
          "name": "",
          "type": "uint48"
        }
      ],
      "stateMutability": "view",
      "type": "function"
    },
    {
      "inputs": [],
      "name": "votingToken",
      "outputs": [
        {
          "internalType": "contract VotingTokenInterface",
          "name": "",
          "type": "address"
        }
      ],
      "stateMutability": "view",
      "type": "function"
    }
  ],
  "bytecode": "0x610100604052348015620000135760006000fd5b506040516200718a3803806200718a833981810160405281019062000039919062000374565b5b6040518060400160405280601281526020017f54435020476f7665726e6f7220416c706861000000000000000000000000000081526020015081600001518260200151836040015184606001515b84848484845b8460006000509080519060200190620000a99291906200028e565b50600073ffffffffffffffffffffffffffffffffffffffff168473ffffffffffffffffffffffffffffffffffffffff1614158015620001155750600073ffffffffffffffffffffffffffffffffffffffff168373ffffffffffffffffffffffffffffffffffffffff1614155b80156200014f5750600073ffffffffffffffffffffffffffffffffffffffff168273ffffffffffffffffffffffffffffffffffffffff1614155b15156200015c5760006000fd5b8373ffffffffffffffffffffffffffffffffffffffff1660808173ffffffffffffffffffffffffffffffffffffffff16815260200150508273ffffffffffffffffffffffffffffffffffffffff1660c08173ffffffffffffffffffffffffffffffffffffffff168152602001505081600160006101000a81548173ffffffffffffffffffffffffffffffffffffffff021916908373ffffffffffffffffffffffffffffffffffffffff16021790555060008165ffffffffffff16111515620002245760006000fd5b8065ffffffffffff1660a08165ffffffffffff16815260200150505b50505050505b5050505050806080015173ffffffffffffffffffffffffffffffffffffffff1660e08173ffffffffffffffffffffffffffffffffffffffff16815260200150505b5062000478565b8280546200029c9062000433565b90600052602060002090601f016020900481019282620002c0576000855562000311565b82601f10620002db57805160ff191683800117855562000311565b8280016001018555821562000311579182015b82811115620003105782518260005090905591602001919060010190620002ee565b5b50905062000320919062000324565b5090565b6200032a565b808211156200034657600081815060009055506001016200032a565b50905662000477565b6000815190506001600160a01b038116811415156200036e5760006000fd5b5b919050565b600060a08284031215620003885760006000fd5b60405160a081018181106001600160401b0382111715620003b957634e487b7160e01b600052604160045260246000fd5b8060405250620003c9836200034f565b8152620003d9602084016200034f565b6020820152620003ec604084016200034f565b6040820152606083015165ffffffffffff8116811415156200040e5760006000fd5b8060608301525062000423608084016200034f565b6080820152809150505b92915050565b60008160011c9050600182168015156200044e57607f821691505b602082108114156200047057634e487b7160e01b600052602260045260246000fd5b505b919050565b5b60805160a05160c05160e051616c5a6200053060003960008181610bf601528181613ee60152818161450901526145aa015260008181610c770152818161143701528181611fcc01528181612991015281816129bc01528181612a0801528181612b170152818161304e01526140c301526000818161088b01526129e00152600081816112130152818161158101528181612acb0152818161352e01528181613a43015281816146fa01526148030152616c5a6000f3fe60806040523480156100115760006000fd5b50600436106101f55760003560e01c80634761e20411610110578063c5b3116d116100a3578063ddf0b00911610072578063ddf0b009146105b2578063deaaa7cc146105ce578063e23a9a52146105ec578063fe0d94c11461061c576101f5565b8063c5b3116d14610516578063d33219b414610546578063da35c66414610564578063db11651114610582576101f5565b80637e90f9ab116100df5780637e90f9ab1461049e578063b0340123146104bc578063b24b7ffd146104da578063b58131b0146104f8576101f5565b80634761e2041461042857806362564c4814610458578063760fbc13146104765780637bdbe4d014610480576101f5565b806324bc1a64116101885780633e4f49e6116101575780633e4f49e6146103a257806340e58ee5146103d2578063452a9320146103ee5780634634c61f1461040c576101f5565b806324bc1a641461031657806329c0e5fd14610334578063328dd982146103525780633932abb114610384576101f5565b80630c340a24116101c45780630c340a241461028e57806315373e3d146102ac57806317977c61146102c857806320606b70146102f8576101f5565b8063013cf08b146101fb57806302a251a314610236578063062f14661461025457806306fdde0314610270576101f5565b60006000fd5b61021560048036038101906102109190614f3d565b610638565b60405161022d9c9b9a9998979695949392919061502f565b60405180910390f35b61023e610887565b60405161024b9190615109565b60405180910390f35b61026e6004803603810190610269919061511b565b6108bc565b005b610278610b63565b604051610285919061519a565b60405180910390f35b610296610bf4565b6040516102a391906151b6565b60405180910390f35b6102c660048036038101906102c191906151f3565b610c18565b005b6102e260048036038101906102dd9190615257565b610c32565b6040516102ef9190615109565b60405180910390f35b610300610c4d565b60405161030d919061527c565b60405180910390f35b61031e610c71565b60405161032b9190615109565b60405180910390f35b61033c610d19565b6040516103499190615109565b60405180910390f35b61036c60048036038101906103679190614f3d565b610d24565b60405161037b939291906152ec565b60405180910390f35b61038c610fa8565b6040516103999190615109565b60405180910390f35b6103bc60048036038101906103b79190614f3d565b610fb6565b6040516103c991906153eb565b60405180910390f35b6103ec60048036038101906103e79190614f3d565b6112d9565b005b6103f6611707565b6040516104039190615404565b60405180910390f35b61042660048036038101906104219190615442565b61172d565b005b610442600480360381019061043d9190615257565b6118fe565b60405161044f91906154e4565b60405180910390f35b6104606120db565b60405161046d91906155bf565b60405180910390f35b61047e6128ea565b005b61048861297f565b6040516104959190615109565b60405180910390f35b6104a661298d565b6040516104b39190615404565b60405180910390f35b6104c46129ba565b6040516104d191906157a5565b60405180910390f35b6104e26129de565b6040516104ef91906157cd565b60405180910390f35b610500612a02565b60405161050d9190615109565b60405180910390f35b610530600480360381019061052b91906157e7565b612aaa565b60405161053d9190615109565b60405180910390f35b61054e612ac9565b60405161055b9190615816565b60405180910390f35b61056c612aed565b60405161057991906157cd565b60405180910390f35b61059c60048036038101906105979190615b81565b612b05565b6040516105a99190615109565b60405180910390f35b6105cc60048036038101906105c79190614f3d565b613492565b005b6105d6613827565b6040516105e3919061527c565b60405180910390f35b610606600480360381019061060191906157e7565b61384b565b6040516106139190615c5c565b60405180910390f35b61063660048036038101906106319190614f3d565b613977565b005b600360005060205280600052604060002060009150905080600301600050805461066190615c75565b80601f016020809104026020016040519081016040528092919081815260200182805461068d90615c75565b80156106da5780601f106106af576101008083540402835291602001916106da565b820191906000526020600020905b8154815290600101906020018083116106bd57829003601f168201915b5050505050908060040160005080546106f290615c75565b80601f016020809104026020016040519081016040528092919081815260200182805461071e90615c75565b801561076b5780601f106107405761010080835404028352916020019161076b565b820191906000526020600020905b81548152906001019060200180831161074e57829003601f168201915b5050505050908060050160009054906101000a900473ffffffffffffffffffffffffffffffffffffffff16908060050160149054906101000a900465ffffffffffff169080600501601a9054906101000a900465ffffffffffff16908060060160009054906101000a90046fffffffffffffffffffffffffffffffff16908060060160109054906101000a900465ffffffffffff16908060060160169054906101000a900465ffffffffffff169080600601601c9054906101000a900460ff169080600601601d9054906101000a900460ff16908060070160009054906101000a90046fffffffffffffffffffffffffffffffff16908060070160109054906101000a90046fffffffffffffffffffffffffffffffff1690508c565b60007f000000000000000000000000000000000000000000000000000000000000000065ffffffffffff1690506108b9565b90565b600060006000600090505b84849050811015610af35784848281811015156108e7576108e6615cd0565b5b905060200201359150815061090182613be063ffffffff16565b1515610942576040517f08c379a000000000000000000000000000000000000000000000000000000000815260040161093990615d01565b60405180910390fd5b6002600050600083815260200190815260200160002060005060003373ffffffffffffffffffffffffffffffffffffffff1673ffffffffffffffffffffffffffffffffffffffff16815260200190815260200160002060005060000160009054906101000a900460ff1615156109ed576040517f08c379a00000000000000000000000000000000000000000000000000000000081526004016109e490615d40565b60405180910390fd5b60006002600050600084815260200190815260200160002060005060003373ffffffffffffffffffffffffffffffffffffffff1673ffffffffffffffffffffffffffffffffffffffff16815260200190815260200160002060005090508060000160029054906101000a900460ff16151515610a9e576040517f08c379a0000000000000000000000000000000000000000000000000000000008152600401610a9590615d7f565b60405180910390fd5b60018160000160026101000a81548160ff021916908315150217905550610ada84610acf8533613cb863ffffffff16565b613e7363ffffffff16565b93508350505b8080610aeb90615def565b9150506108c7565b506000821115610b5c57610b0d3383613eda63ffffffff16565b3373ffffffffffffffffffffffffffffffffffffffff167f56cd411799f8eaf36ff267057223a17836afa0a91a109fe7e102ef919e6fa19d83604051610b539190615109565b60405180910390a25b50505b5050565b60006000508054610b7390615c75565b80601f0160208091040260200160405190810160405280929190818152602001828054610b9f90615c75565b8015610bec5780601f10610bc157610100808354040283529160200191610bec565b820191906000526020600020905b815481529060010190602001808311610bcf57829003601f168201915b505050505081565b7f000000000000000000000000000000000000000000000000000000000000000081565b610c29338383613f7963ffffffff16565b610c2e565b5050565b60046000506020528060005260406000206000915090505481565b7f8cad95687ba82c2ce50e74f7b754645e5117c3a5bec8151c0726d5857980a86681565b600060287f000000000000000000000000000000000000000000000000000000000000000073ffffffffffffffffffffffffffffffffffffffff166318160ddd6040518163ffffffff1660e01b8152600401602060405180830381865afa158015610ce1573d600060003e3d6000fd5b505050506040513d601f19601f82011682018060405250810190610d059190615e2e565b610d0f9190615e4c565b9050610d16565b90565b6611c37937e0800081565b606060606060600060036000506000868152602001908152602001600020600050905080600001600050816001016000508260020160005082805480602002602001604051908101604052809291908181526020018280548015610ddd57602002820191906000526020600020905b8160009054906101000a900473ffffffffffffffffffffffffffffffffffffffff1673ffffffffffffffffffffffffffffffffffffffff1681526020019060010190808311610d93575b5050505050925081805480602002602001604051908101604052809291908181526020016000905b82821015610eb6578382906000526020600020900160005b508054610e2990615c75565b80601f0160208091040260200160405190810160405280929190818152602001828054610e5590615c75565b8015610ea25780601f10610e7757610100808354040283529160200191610ea2565b820191906000526020600020905b815481529060010190602001808311610e8557829003601f168201915b505050505081526020019060010190610e05565b50505050915080805480602002602001604051908101604052809291908181526020016000905b82821015610f8e578382906000526020600020900160005b508054610f0190615c75565b80601f0160208091040260200160405190810160405280929190818152602001828054610f2d90615c75565b8015610f7a5780601f10610f4f57610100808354040283529160200191610f7a565b820191906000526020600020905b815481529060010190602001808311610f5d57829003601f168201915b505050505081526020019060010190610edd565b50505050905093509350935050610fa156505b9193909250565b600060019050610fb3565b90565b600081600160149054906101000a900465ffffffffffff1665ffffffffffff1610158015610fe45750600082115b1515611025576040517f08c379a000000000000000000000000000000000000000000000000000000000815260040161101c90615e90565b60405180910390fd5b600060036000506000848152602001908152602001600020600050905080600601601c9054906101000a900460ff16156110675760029150506112d4566112d2565b8060060160109054906101000a900465ffffffffffff1665ffffffffffff164311151561109c5760009150506112d4566112d1565b8060060160169054906101000a900465ffffffffffff1665ffffffffffff16431115156110d15760019150506112d4566112d0565b8060070160009054906101000a90046fffffffffffffffffffffffffffffffff166fffffffffffffffffffffffffffffffff168160060160009054906101000a90046fffffffffffffffffffffffffffffffff166fffffffffffffffffffffffffffffffff16111580611182575061114d610c7163ffffffff16565b8160060160009054906101000a90046fffffffffffffffffffffffffffffffff166fffffffffffffffffffffffffffffffff16105b156111955760039150506112d4566112cf565b60008160050160149054906101000a900465ffffffffffff1665ffffffffffff1614156111ca5760049150506112d4566112ce565b80600601601d9054906101000a900460ff16156111ef5760079150506112d4566112cd565b6112ac8160050160149054906101000a900465ffffffffffff1665ffffffffffff167f000000000000000000000000000000000000000000000000000000000000000073ffffffffffffffffffffffffffffffffffffffff1663c1a287e26040518163ffffffff1660e01b8152600401602060405180830381865afa15801561127d573d600060003e3d6000fd5b505050506040513d601f19601f820116820180604052508101906112a19190615e2e565b613e7363ffffffff16565b421015156112c25760069150506112d4566112cc565b60059150506112d4565b5b5b5b5b5b5b505b919050565b600760078111156112ed576112ec615379565b5b6112fc82610fb663ffffffff16565b600781111561130e5761130d615379565b5b14151515611351576040517f08c379a000000000000000000000000000000000000000000000000000000000815260040161134890615ef5565b60405180910390fd5b60006003600050600083815260200190815260200160002060005090508060060160169054906101000a900465ffffffffffff1665ffffffffffff16431015156113d0576040517f08c379a00000000000000000000000000000000000000000000000000000000081526004016113c790615f5a565b60405180910390fd5b600160009054906101000a900473ffffffffffffffffffffffffffffffffffffffff1673ffffffffffffffffffffffffffffffffffffffff163373ffffffffffffffffffffffffffffffffffffffff1614806115085750611435612a0263ffffffff16565b7f000000000000000000000000000000000000000000000000000000000000000073ffffffffffffffffffffffffffffffffffffffff1663782d6fe18360050160009054906101000a900473ffffffffffffffffffffffffffffffffffffffff166114a743600161444c63ffffffff16565b6040518363ffffffff1660e01b81526004016114c4929190615fbf565b602060405180830381865afa1580156114e2573d600060003e3d6000fd5b505050506040513d601f19601f820116820180604052508101906115069190615e2e565b105b1515611549576040517f08c379a000000000000000000000000000000000000000000000000000000000815260040161154090615fee565b60405180910390fd5b600181600601601c6101000a81548160ff0219169083151502179055506000600090505b81600001600050805490508110156116d4577f000000000000000000000000000000000000000000000000000000000000000073ffffffffffffffffffffffffffffffffffffffff16624b1f1283600001600050838154811015156115d5576115d4615cd0565b5b906000526020600020900160005b9054906101000a900473ffffffffffffffffffffffffffffffffffffffff16846001016000508481548110151561161d5761161c615cd0565b5b906000526020600020900160005b50856002016000508581548110151561164757611646615cd0565b5b906000526020600020900160005b508660050160149054906101000a900465ffffffffffff166040518563ffffffff1660e01b815260040161168c94939291906160f2565b600060405180830381600087803b1580156116a75760006000fd5b505af11580156116bc573d600060003e3d6000fd5b505050505b80806116cc90615def565b91505061156d565b50817f789cf55be980739dad1d0699b93b58e806b51c9d96619bfa8fe0a28abaa7b30c60405160405180910390a2505b50565b600160009054906101000a900473ffffffffffffffffffffffffffffffffffffffff1681565b60007f8cad95687ba82c2ce50e74f7b754645e5117c3a5bec8151c0726d5857980a8666000600050604051611762919061614e565b6040518091039020463060405160200161177f94939291906161e9565b60405160208183030381529060405280519060200120905060007f8e25870c07e0b0b3884c78da52790939a455c275406c44ae8b434b692fb916ee87876040516020016117ce93929190616226565b604051602081830303815290604052805190602001209050600082826040516020016117fb929190616248565b6040516020818303038152906040528051906020012090506000600182888888604051600081526020016040526040516118389493929190616287565b6020604051602081039080840390855afa15801561185b573d600060003e3d6000fd5b505050602060405103519050600073ffffffffffffffffffffffffffffffffffffffff168173ffffffffffffffffffffffffffffffffffffffff16141515156118d9576040517f08c379a00000000000000000000000000000000000000000000000000000000081526004016118d0906162b1565b60405180910390fd5b6118ea818a8a613f7963ffffffff16565b505050506118f756505050505b5050505050565b6060600160149054906101000a900465ffffffffffff1665ffffffffffff1667ffffffffffffffff8111156119365761193561583e565b5b60405190808252806020026020018201604052801561196f57816020015b61195c614a61565b8152602001906001900390816119545790505b50905080506000600090505b600160149054906101000a900465ffffffffffff1665ffffffffffff168165ffffffffffff1610156120cd5760006001826119b69190616316565b65ffffffffffff169050600060036000506000838152602001908152602001600020600050604051806101e001604052908160008201600050805480602002602001604051908101604052809291908181526020018280548015611a6f57602002820191906000526020600020905b8160009054906101000a900473ffffffffffffffffffffffffffffffffffffffff1673ffffffffffffffffffffffffffffffffffffffff1681526020019060010190808311611a25575b5050505050815260200160018201600050805480602002602001604051908101604052809291908181526020016000905b82821015611b51578382906000526020600020900160005b508054611ac490615c75565b80601f0160208091040260200160405190810160405280929190818152602001828054611af090615c75565b8015611b3d5780601f10611b1257610100808354040283529160200191611b3d565b820191906000526020600020905b815481529060010190602001808311611b2057829003601f168201915b505050505081526020019060010190611aa0565b50505050815260200160028201600050805480602002602001604051908101604052809291908181526020016000905b82821015611c32578382906000526020600020900160005b508054611ba590615c75565b80601f0160208091040260200160405190810160405280929190818152602001828054611bd190615c75565b8015611c1e5780601f10611bf357610100808354040283529160200191611c1e565b820191906000526020600020905b815481529060010190602001808311611c0157829003601f168201915b505050505081526020019060010190611b81565b505050508152602001600382016000508054611c4d90615c75565b80601f0160208091040260200160405190810160405280929190818152602001828054611c7990615c75565b8015611cc65780601f10611c9b57610100808354040283529160200191611cc6565b820191906000526020600020905b815481529060010190602001808311611ca957829003601f168201915b50505050508152602001600482016000508054611ce290615c75565b80601f0160208091040260200160405190810160405280929190818152602001828054611d0e90615c75565b8015611d5b5780601f10611d3057610100808354040283529160200191611d5b565b820191906000526020600020905b815481529060010190602001808311611d3e57829003601f168201915b505050505081526020016005820160009054906101000a900473ffffffffffffffffffffffffffffffffffffffff1673ffffffffffffffffffffffffffffffffffffffff1673ffffffffffffffffffffffffffffffffffffffff1681526020016005820160149054906101000a900465ffffffffffff1665ffffffffffff1665ffffffffffff16815260200160058201601a9054906101000a900465ffffffffffff1665ffffffffffff1665ffffffffffff1681526020016006820160009054906101000a90046fffffffffffffffffffffffffffffffff166fffffffffffffffffffffffffffffffff166fffffffffffffffffffffffffffffffff1681526020016006820160109054906101000a900465ffffffffffff1665ffffffffffff1665ffffffffffff1681526020016006820160169054906101000a900465ffffffffffff1665ffffffffffff1665ffffffffffff16815260200160068201601c9054906101000a900460ff1615151515815260200160068201601d9054906101000a900460ff161515151581526020016007820160009054906101000a90046fffffffffffffffffffffffffffffffff166fffffffffffffffffffffffffffffffff166fffffffffffffffffffffffffffffffff1681526020016007820160109054906101000a90046fffffffffffffffffffffffffffffffff166fffffffffffffffffffffffffffffffff166fffffffffffffffffffffffffffffffff1681526020015050905060405180608001604052808260e0015165ffffffffffff168152602001611fb0848861384b63ffffffff16565b81526020014383610120015165ffffffffffff161015612071577f000000000000000000000000000000000000000000000000000000000000000073ffffffffffffffffffffffffffffffffffffffff1663782d6fe1888561012001516040518363ffffffff1660e01b815260040161202a929190616347565b602060405180830381865afa158015612048573d600060003e3d6000fd5b505050506040513d601f19601f8201168201806040525081019061206c9190615e2e565b612074565b60005b81526020016120898488613cb863ffffffff16565b815260200150848465ffffffffffff168151811015156120ac576120ab615cd0565b5b602002602001018190525050505b80806120c59061637e565b91505061197b565b508090506120d6565b919050565b6060600160149054906101000a900465ffffffffffff1665ffffffffffff1667ffffffffffffffff8111156121135761211261583e565b5b60405190808252806020026020018201604052801561214c57816020015b612139614a9a565b8152602001906001900390816121315790505b50905080506000600090505b600160149054906101000a900465ffffffffffff1665ffffffffffff168165ffffffffffff1610156128de5760006001826121939190616316565b65ffffffffffff169050600060036000506000838152602001908152602001600020600050604051806101e00160405290816000820160005080548060200260200160405190810160405280929190818152602001828054801561224c57602002820191906000526020600020905b8160009054906101000a900473ffffffffffffffffffffffffffffffffffffffff1673ffffffffffffffffffffffffffffffffffffffff1681526020019060010190808311612202575b5050505050815260200160018201600050805480602002602001604051908101604052809291908181526020016000905b8282101561232e578382906000526020600020900160005b5080546122a190615c75565b80601f01602080910402602001604051908101604052809291908181526020018280546122cd90615c75565b801561231a5780601f106122ef5761010080835404028352916020019161231a565b820191906000526020600020905b8154815290600101906020018083116122fd57829003601f168201915b50505050508152602001906001019061227d565b50505050815260200160028201600050805480602002602001604051908101604052809291908181526020016000905b8282101561240f578382906000526020600020900160005b50805461238290615c75565b80601f01602080910402602001604051908101604052809291908181526020018280546123ae90615c75565b80156123fb5780601f106123d0576101008083540402835291602001916123fb565b820191906000526020600020905b8154815290600101906020018083116123de57829003601f168201915b50505050508152602001906001019061235e565b50505050815260200160038201600050805461242a90615c75565b80601f016020809104026020016040519081016040528092919081815260200182805461245690615c75565b80156124a35780601f10612478576101008083540402835291602001916124a3565b820191906000526020600020905b81548152906001019060200180831161248657829003601f168201915b505050505081526020016004820160005080546124bf90615c75565b80601f01602080910402602001604051908101604052809291908181526020018280546124eb90615c75565b80156125385780601f1061250d57610100808354040283529160200191612538565b820191906000526020600020905b81548152906001019060200180831161251b57829003601f168201915b505050505081526020016005820160009054906101000a900473ffffffffffffffffffffffffffffffffffffffff1673ffffffffffffffffffffffffffffffffffffffff1673ffffffffffffffffffffffffffffffffffffffff1681526020016005820160149054906101000a900465ffffffffffff1665ffffffffffff1665ffffffffffff16815260200160058201601a9054906101000a900465ffffffffffff1665ffffffffffff1665ffffffffffff1681526020016006820160009054906101000a90046fffffffffffffffffffffffffffffffff166fffffffffffffffffffffffffffffffff166fffffffffffffffffffffffffffffffff1681526020016006820160109054906101000a900465ffffffffffff1665ffffffffffff1665ffffffffffff1681526020016006820160169054906101000a900465ffffffffffff1665ffffffffffff1665ffffffffffff16815260200160068201601c9054906101000a900460ff1615151515815260200160068201601d9054906101000a900460ff161515151581526020016007820160009054906101000a90046fffffffffffffffffffffffffffffffff166fffffffffffffffffffffffffffffffff166fffffffffffffffffffffffffffffffff1681526020016007820160109054906101000a90046fffffffffffffffffffffffffffffffff166fffffffffffffffffffffffffffffffff166fffffffffffffffffffffffffffffffff1681526020015050905060405180610200016040528082600001518152602001826020015181526020018260400151815260200182606001518152602001826080015181526020018260a0015173ffffffffffffffffffffffffffffffffffffffff1681526020018260c0015165ffffffffffff1681526020018260e0015165ffffffffffff1681526020018261010001516fffffffffffffffffffffffffffffffff16815260200182610120015165ffffffffffff16815260200182610140015165ffffffffffff1681526020018261016001511515815260200182610180015115158152602001826101a001516fffffffffffffffffffffffffffffffff168152602001826101c001516fffffffffffffffffffffffffffffffff16815260200161288884610fb663ffffffff16565b600781111561289a57612899615379565b5b815260200150848465ffffffffffff168151811015156128bd576128bc615cd0565b5b602002602001018190525050505b80806128d69061637e565b915050612158565b508090506128e7565b90565b6128f9336144ac63ffffffff16565b151561293a576040517f08c379a0000000000000000000000000000000000000000000000000000000008152600401612931906163a9565b60405180910390fd5b6000600160006101000a81548173ffffffffffffffffffffffffffffffffffffffff021916908373ffffffffffffffffffffffffffffffffffffffff1602179055505b565b6000600a905061298a565b90565b60007f000000000000000000000000000000000000000000000000000000000000000090506129b7565b90565b7f000000000000000000000000000000000000000000000000000000000000000081565b7f000000000000000000000000000000000000000000000000000000000000000081565b600060c87f000000000000000000000000000000000000000000000000000000000000000073ffffffffffffffffffffffffffffffffffffffff166318160ddd6040518163ffffffff1660e01b8152600401602060405180830381865afa158015612a72573d600060003e3d6000fd5b505050506040513d601f19601f82011682018060405250810190612a969190615e2e565b612aa09190615e4c565b9050612aa7565b90565b6000612abc8383613cb863ffffffff16565b9050612ac3565b92915050565b7f000000000000000000000000000000000000000000000000000000000000000081565b600160149054906101000a900465ffffffffffff1681565b6000612b15612a0263ffffffff16565b7f000000000000000000000000000000000000000000000000000000000000000073ffffffffffffffffffffffffffffffffffffffff1663782d6fe133612b6343600161444c63ffffffff16565b6040518363ffffffff1660e01b8152600401612b80929190615fbf565b602060405180830381865afa158015612b9e573d600060003e3d6000fd5b505050506040513d601f19601f82011682018060405250810190612bc29190615e2e565b111515612c04576040517f08c379a0000000000000000000000000000000000000000000000000000000008152600401612bfb906163e8565b60405180910390fd5b84518651148015612c16575083518651145b1515612c57576040517f08c379a0000000000000000000000000000000000000000000000000000000008152600401612c4e9061644d565b60405180910390fd5b60008651111515612c9d576040517f08c379a0000000000000000000000000000000000000000000000000000000008152600401612c94906164d8565b60405180910390fd5b612cab61297f63ffffffff16565b865111151515612cf0576040517f08c379a0000000000000000000000000000000000000000000000000000000008152600401612ce79061653d565b60405180910390fd5b6000600460005060003373ffffffffffffffffffffffffffffffffffffffff1673ffffffffffffffffffffffffffffffffffffffff1681526020019081526020016000206000505490506000811115612e2c576000612d5482610fb663ffffffff16565b905060016007811115612d6a57612d69615379565b5b816007811115612d7d57612d7c615379565b5b14151515612dc0576040517f08c379a0000000000000000000000000000000000000000000000000000000008152600401612db7906165a2565b60405180910390fd5b60006007811115612dd457612dd3615379565b5b816007811115612de757612de6615379565b5b14151515612e2a576040517f08c379a0000000000000000000000000000000000000000000000000000000008152600401612e219061662d565b60405180910390fd5b505b6000600090505b8651811015612e9857612e848882815181101515612e5457612e53615cd0565b5b60200260200101518883815181101515612e7157612e70615cd0565b5b60200260200101516145a863ffffffff16565b5b8080612e9090615def565b915050612e33565b506000612eb843612ead610fa863ffffffff16565b613e7363ffffffff16565b90506000612ed982612ece61088763ffffffff16565b613e7363ffffffff16565b90506001601481819054906101000a900465ffffffffffff1680929190612eff9061637e565b91906101000a81548165ffffffffffff021916908365ffffffffffff160217905550506601000000000000600160149054906101000a900465ffffffffffff1665ffffffffffff16101515612f545760006000fd5b6000604051806101e001604052808b81526020018a81526020018981526020018881526020018781526020013373ffffffffffffffffffffffffffffffffffffffff168152602001600065ffffffffffff168152602001600160149054906101000a900465ffffffffffff1665ffffffffffff16815260200160006fffffffffffffffffffffffffffffffff168152602001612ff58561463a63ffffffff16565b65ffffffffffff1681526020016130118461463a63ffffffff16565b65ffffffffffff16815260200160001515815260200160001515815260200160006fffffffffffffffffffffffffffffffff1681526020016130e77f000000000000000000000000000000000000000000000000000000000000000073ffffffffffffffffffffffffffffffffffffffff166318160ddd6040518163ffffffff1660e01b8152600401602060405180830381865afa1580156130b8573d600060003e3d6000fd5b505050506040513d601f19601f820116820180604052508101906130dc9190615e2e565b61469463ffffffff16565b6fffffffffffffffffffffffffffffffff16815260200150905080600360005060008360e0015165ffffffffffff1681526020019081526020016000206000506000820151816000016000509080519060200190613146929190614b9c565b506020820151816001016000509080519060200190613166929190614c26565b506040820151816002016000509080519060200190613186929190614c86565b5060608201518160030160005090805190602001906131a6929190614ce6565b5060808201518160040160005090805190602001906131c6929190614ce6565b5060a08201518160050160006101000a81548173ffffffffffffffffffffffffffffffffffffffff021916908373ffffffffffffffffffffffffffffffffffffffff16021790555060c08201518160050160146101000a81548165ffffffffffff021916908365ffffffffffff16021790555060e082015181600501601a6101000a81548165ffffffffffff021916908365ffffffffffff1602179055506101008201518160060160006101000a8154816fffffffffffffffffffffffffffffffff02191690836fffffffffffffffffffffffffffffffff1602179055506101208201518160060160106101000a81548165ffffffffffff021916908365ffffffffffff1602179055506101408201518160060160166101000a81548165ffffffffffff021916908365ffffffffffff16021790555061016082015181600601601c6101000a81548160ff02191690831515021790555061018082015181600601601d6101000a81548160ff0219169083151502179055506101a08201518160070160006101000a8154816fffffffffffffffffffffffffffffffff02191690836fffffffffffffffffffffffffffffffff1602179055506101c08201518160070160106101000a8154816fffffffffffffffffffffffffffffffff02191690836fffffffffffffffffffffffffffffffff1602179055509050508060e0015165ffffffffffff16600460005060008360a0015173ffffffffffffffffffffffffffffffffffffffff1673ffffffffffffffffffffffffffffffffffffffff1681526020019081526020016000206000508190909055503373ffffffffffffffffffffffffffffffffffffffff168160e0015165ffffffffffff167fcd423cc1203c0af96b9b3d68d73b3064a69de2d14450bb7181c5e5df2132b35860405160405180910390a38060e0015165ffffffffffff1694505050505061348956505050505b95945050505050565b600460078111156134a6576134a5615379565b5b6134b582610fb663ffffffff16565b60078111156134c7576134c6615379565b5b141515613509576040517f08c379a0000000000000000000000000000000000000000000000000000000008152600401613500906166b8565b60405180910390fd5b600060036000506000838152602001908152602001600020600050905060006135c7427f000000000000000000000000000000000000000000000000000000000000000073ffffffffffffffffffffffffffffffffffffffff16636a42b8f86040518163ffffffff1660e01b8152600401602060405180830381865afa158015613598573d600060003e3d6000fd5b505050506040513d601f19601f820116820180604052508101906135bc9190615e2e565b613e7363ffffffff16565b90506000600090505b82600001600050805490508110156137b35761379f8360000160005082815481101515613600576135ff615cd0565b5b906000526020600020900160005b9054906101000a900473ffffffffffffffffffffffffffffffffffffffff16846001016000508381548110151561364857613647615cd0565b5b906000526020600020900160005b50805461366290615c75565b80601f016020809104026020016040519081016040528092919081815260200182805461368e90615c75565b80156136db5780601f106136b0576101008083540402835291602001916136db565b820191906000526020600020905b8154815290600101906020018083116136be57829003601f168201915b505050505085600201600050848154811015156136fb576136fa615cd0565b5b906000526020600020900160005b50805461371590615c75565b80601f016020809104026020016040519081016040528092919081815260200182805461374190615c75565b801561378e5780601f106137635761010080835404028352916020019161378e565b820191906000526020600020905b81548152906001019060200180831161377157829003601f168201915b5050505050856146f863ffffffff16565b5b80806137ab90615def565b9150506135d0565b506137c38161463a63ffffffff16565b8260050160146101000a81548165ffffffffffff021916908365ffffffffffff160217905550827f9a2e42fd6722813d69113e7d0079d3d940171428df7373df9c7f7617cfda2892826040516138199190615109565b60405180910390a250505b50565b7f8e25870c07e0b0b3884c78da52790939a455c275406c44ae8b434b692fb916ee81565b613853614d71565b6002600050600084815260200190815260200160002060005060008373ffffffffffffffffffffffffffffffffffffffff1673ffffffffffffffffffffffffffffffffffffffff1681526020019081526020016000206000506040518060800160405290816000820160009054906101000a900460ff161515151581526020016000820160019054906101000a900460ff161515151581526020016000820160029054906101000a900460ff161515151581526020016000820160039054906101000a900476ffffffffffffffffffffffffffffffffffffffffffffff1676ffffffffffffffffffffffffffffffffffffffffffffff1676ffffffffffffffffffffffffffffffffffffffffffffff16815260200150509050613971565b92915050565b6005600781111561398b5761398a615379565b5b61399a82610fb663ffffffff16565b60078111156139ac576139ab615379565b5b1415156139ee576040517f08c379a00000000000000000000000000000000000000000000000000000000081526004016139e590616743565b60405180910390fd5b6000600360005060008381526020019081526020016000206000509050600181600601601d6101000a81548160ff0219169083151502179055506000600090505b8160000160005080549050811015613bad577f000000000000000000000000000000000000000000000000000000000000000073ffffffffffffffffffffffffffffffffffffffff16633ec5ab328360000160005083815481101515613a9857613a97615cd0565b5b906000526020600020900160005b9054906101000a900473ffffffffffffffffffffffffffffffffffffffff168460010160005084815481101515613ae057613adf615cd0565b5b906000526020600020900160005b508560020160005085815481101515613b0a57613b09615cd0565b5b906000526020600020900160005b508660050160149054906101000a900465ffffffffffff166040518563ffffffff1660e01b8152600401613b4f94939291906160f2565b6000604051808303816000875af1158015613b6f573d600060003e3d6000fd5b505050506040513d6000823e3d601f19601f82011682018060405250810190613b9891906167ce565b505b8080613ba590615def565b915050613a2f565b50817f712ae1383f79ac853f8d882153778e0260ef8f03b504e2866e0593e04d2b291f60405160405180910390a2505b50565b60006000613bf383610fb663ffffffff16565b905060046007811115613c0957613c08615379565b5b816007811115613c1c57613c1b615379565b5b1480613c4c575060036007811115613c3757613c36615379565b5b816007811115613c4a57613c49615379565b5b145b80613c7b575060056007811115613c6657613c65615379565b5b816007811115613c7957613c78615379565b5b145b80613caa575060076007811115613c9557613c94615379565b5b816007811115613ca857613ca7615379565b5b145b915050613cb356505b919050565b600060006003600050600085815260200190815260200160002060005090506000613d4d8260060160009054906101000a90046fffffffffffffffffffffffffffffffff166fffffffffffffffffffffffffffffffff168360070160009054906101000a90046fffffffffffffffffffffffffffffffff166fffffffffffffffffffffffffffffffff16613e7363ffffffff16565b90506000811415613d6357600092505050613e6d565b6000613db16611c37937e080008460070160109054906101000a90046fffffffffffffffffffffffffffffffff166fffffffffffffffffffffffffffffffff166148ac90919063ffffffff16565b9050613e606002600050600088815260200190815260200160002060005060008773ffffffffffffffffffffffffffffffffffffffff1673ffffffffffffffffffffffffffffffffffffffff16815260200190815260200160002060005060000160039054906101000a900476ffffffffffffffffffffffffffffffffffffffffffffff1676ffffffffffffffffffffffffffffffffffffffffffffff1683836148d29092919063ffffffff16565b9350505050613e6d565050505b92915050565b600060008284613e839190616857565b9050838110151515613eca576040517f08c379a0000000000000000000000000000000000000000000000000000000008152600401613ec190616877565b60405180910390fd5b80915050613ed456505b92915050565b600081141515613f74577f000000000000000000000000000000000000000000000000000000000000000073ffffffffffffffffffffffffffffffffffffffff16630793298783836040518363ffffffff1660e01b8152600401613f3f929190615fbf565b600060405180830381600087803b158015613f5a5760006000fd5b505af1158015613f6f573d600060003e3d6000fd5b505050505b5b5050565b60016007811115613f8d57613f8c615379565b5b613f9c83610fb663ffffffff16565b6007811115613fae57613fad615379565b5b141515613ff0576040517f08c379a0000000000000000000000000000000000000000000000000000000008152600401613fe7906168b6565b60405180910390fd5b6000600360005060008481526020019081526020016000206000509050600015156002600050600085815260200190815260200160002060005060008673ffffffffffffffffffffffffffffffffffffffff1673ffffffffffffffffffffffffffffffffffffffff16815260200190815260200160002060005060000160009054906101000a900460ff1615151415156140bf576040517f08c379a00000000000000000000000000000000000000000000000000000000081526004016140b69061691b565b60405180910390fd5b60007f000000000000000000000000000000000000000000000000000000000000000073ffffffffffffffffffffffffffffffffffffffff1663782d6fe1868460060160109054906101000a900465ffffffffffff166040518363ffffffff1660e01b8152600401614132929190616347565b602060405180830381865afa158015614150573d600060003e3d6000fd5b505050506040513d601f19601f820116820180604052508101906141749190615e2e565b9050821561420b576141cc6141c18360060160009054906101000a90046fffffffffffffffffffffffffffffffff166fffffffffffffffffffffffffffffffff1683613e7363ffffffff16565b61469463ffffffff16565b8260060160006101000a8154816fffffffffffffffffffffffffffffffff02191690836fffffffffffffffffffffffffffffffff160217905550614296565b61425b6142508360070160009054906101000a90046fffffffffffffffffffffffffffffffff166fffffffffffffffffffffffffffffffff1683613e7363ffffffff16565b61469463ffffffff16565b8260070160006101000a8154816fffffffffffffffffffffffffffffffff02191690836fffffffffffffffffffffffffffffffff1602179055505b604051806080016040528060011515815260200184151581526020016000151581526020016142ca836149f663ffffffff16565b76ffffffffffffffffffffffffffffffffffffffffffffff168152602001506002600050600086815260200190815260200160002060005060008773ffffffffffffffffffffffffffffffffffffffff1673ffffffffffffffffffffffffffffffffffffffff16815260200190815260200160002060005060008201518160000160006101000a81548160ff02191690831515021790555060208201518160000160016101000a81548160ff02191690831515021790555060408201518160000160026101000a81548160ff02191690831515021790555060608201518160000160036101000a81548176ffffffffffffffffffffffffffffffffffffffffffffff021916908376ffffffffffffffffffffffffffffffffffffffffffffff160217905550905050821515848673ffffffffffffffffffffffffffffffffffffffff167f877856338e13f63d0c36822ff0ef736b80934cd90574a3a5bc9262c39d217c468460405161443c9190615109565b60405180910390a450505b505050565b6000828211151515614493576040517f08c379a000000000000000000000000000000000000000000000000000000000815260040161448a90616980565b60405180910390fd5b818361449f91906169bf565b90506144a6565b92915050565b6000600160009054906101000a900473ffffffffffffffffffffffffffffffffffffffff1673ffffffffffffffffffffffffffffffffffffffff168273ffffffffffffffffffffffffffffffffffffffff16148061459c575060017f000000000000000000000000000000000000000000000000000000000000000073ffffffffffffffffffffffffffffffffffffffff1663055ad42e6040518163ffffffff1660e01b8152600401602060405180830381865afa158015614573573d600060003e3d6000fd5b505050506040513d601f19601f8201168201806040525081019061459791906169de565b60ff16115b90506145a3565b919050565b7f000000000000000000000000000000000000000000000000000000000000000073ffffffffffffffffffffffffffffffffffffffff1663a43c36af83836040518363ffffffff1660e01b8152600401614603929190616a07565b60006040518083038186803b15801561461c5760006000fd5b505afa158015614631573d600060003e3d6000fd5b505050505b5050565b6000660100000000000082101515614687576040517f08c379a000000000000000000000000000000000000000000000000000000000815260040161467e90616a40565b60405180910390fd5b81905061468f565b919050565b6000700100000000000000000000000000000000821015156146eb576040517f08c379a00000000000000000000000000000000000000000000000000000000081526004016146e290616a7f565b60405180910390fd5b8190506146f3565b919050565b7f000000000000000000000000000000000000000000000000000000000000000073ffffffffffffffffffffffffffffffffffffffff1663f2b065378585858560405160200161474b9493929190616abe565b604051602081830303815290604052805190602001206040518263ffffffff1660e01b815260040161477d919061527c565b602060405180830381865afa15801561479b573d600060003e3d6000fd5b505050506040513d601f19601f820116820180604052508101906147bf9190616b12565b151515614801576040517f08c379a00000000000000000000000000000000000000000000000000000000081526004016147f890616b3b565b60405180910390fd5b7f000000000000000000000000000000000000000000000000000000000000000073ffffffffffffffffffffffffffffffffffffffff16630e70eace858585856040518563ffffffff1660e01b81526004016148609493929190616abe565b6020604051808303816000875af1158015614880573d600060003e3d6000fd5b505050506040513d601f19601f820116820180604052508101906148a49190616bc6565b505b50505050565b60006148c78383670de0b6b3a76400006148d263ffffffff16565b905080505b92915050565b6000600060006000198587098587029250828110838203039150506000811415614915576000841115156149065760006000fd5b838204925082925050506149ef565b80841115156149245760006000fd5b60008486880990508281118203915080830392506000856001877fffffffffffffffffffffffffffffffffffffffffffffffffffffffffffffffff0301169050805080860495508084049350600181826000030401905080830284179350835060006002876003021890508087026002038102905080508087026002038102905080508087026002038102905080508087026002038102905080508087026002038102905080508087026002038102905080508085029550855050849450505050506149ef56505050505b9392505050565b60007701000000000000000000000000000000000000000000000082101515614a54576040517f08c379a0000000000000000000000000000000000000000000000000000000008152600401614a4b90616be4565b60405180910390fd5b819050614a5c565b919050565b6040518060800160405280600065ffffffffffff168152602001614a83614d71565b815260200160008152602001600081526020015090565b6040518061020001604052806060815260200160608152602001606081526020016060815260200160608152602001600073ffffffffffffffffffffffffffffffffffffffff168152602001600065ffffffffffff168152602001600065ffffffffffff16815260200160006fffffffffffffffffffffffffffffffff168152602001600065ffffffffffff168152602001600065ffffffffffff16815260200160001515815260200160001515815260200160006fffffffffffffffffffffffffffffffff16815260200160006fffffffffffffffffffffffffffffffff16815260200160006007811115614b9357614b92615379565b5b81526020015090565b828054828255906000526020600020908101928215614c15579160200282015b82811115614c145782518260006101000a81548173ffffffffffffffffffffffffffffffffffffffff021916908373ffffffffffffffffffffffffffffffffffffffff16021790555091602001919060010190614bbc565b5b509050614c229190614dbb565b5090565b828054828255906000526020600020908101928215614c75579160200282015b82811115614c74578251829080519060200190614c64929190614ce6565b5091602001919060010190614c46565b5b509050614c829190614dde565b5090565b828054828255906000526020600020908101928215614cd5579160200282015b82811115614cd4578251829080519060200190614cc4929190614e06565b5091602001919060010190614ca6565b5b509050614ce29190614e91565b5090565b828054614cf290615c75565b90600052602060002090601f016020900481019282614d145760008555614d60565b82601f10614d2d57805160ff1916838001178555614d60565b82800160010185558215614d60579182015b82811115614d5f5782518260005090905591602001919060010190614d3f565b5b509050614d6d9190614dbb565b5090565b6040518060800160405280600015158152602001600015158152602001600015158152602001600076ffffffffffffffffffffffffffffffffffffffffffffff1681526020015090565b614dc0565b80821115614dda5760008181506000905550600101614dc0565b5090565b614de3565b80821115614e025760008181614df99190614eb9565b50600101614de3565b5090565b828054614e1290615c75565b90600052602060002090601f016020900481019282614e345760008555614e80565b82601f10614e4d57805160ff1916838001178555614e80565b82800160010185558215614e80579182015b82811115614e7f5782518260005090905591602001919060010190614e5f565b5b509050614e8d9190614dbb565b5090565b614e96565b80821115614eb55760008181614eac9190614ef9565b50600101614e96565b5090565b508054614ec590615c75565b6000825580601f10614ed75750614ef6565b601f016020900490600052602060002090810190614ef59190614dbb565b5b50565b508054614f0590615c75565b6000825580601f10614f175750614f36565b601f016020900490600052602060002090810190614f359190614dbb565b5b5056616c23565b600060208284031215614f505760006000fd5b813590505b92915050565b60005b83811015614f7a5780820151818401525b602081019050614f5e565b83811115614f89576000848401525b505050505b565b60008151808452614fa8816020860160208601614f5b565b60207fffffffffffffffffffffffffffffffffffffffffffffffffffffffffffffffe0601f8301168501019150505b92915050565b73ffffffffffffffffffffffffffffffffffffffff8116825250505b565b65ffffffffffff8116825250505b565b6fffffffffffffffffffffffffffffffff8116825250505b565b801515825250505b565b6101808152600061504461018083018f614f90565b8281036020840152615056818f614f90565b91505073ffffffffffffffffffffffffffffffffffffffff8c16604083015265ffffffffffff808c166060840152808b166080840152506fffffffffffffffffffffffffffffffff891660a08301526150b260c0830189614ffb565b6150bf60e0830188614ffb565b6150cd610100830187615025565b6150db610120830186615025565b6150e961014083018561500b565b6150f761016083018461500b565b5b9d9c50505050505050505050505050565b60006020820190508282525b92915050565b60006000602083850312156151305760006000fd5b823567ffffffffffffffff808211156151495760006000fd5b818501915085601f83011215156151605760006000fd5b8135818111156151705760006000fd5b8660208260051b85010111156151865760006000fd5b6020830194508093505050505b9250929050565b6020815260006151ad6020830184614f90565b90505b92915050565b600060208201905073ffffffffffffffffffffffffffffffffffffffff831682525b92915050565b801515811415156151ef5760006000fd5b505b565b60006000604083850312156152085760006000fd5b82359150602083013561521a816151de565b809150505b9250929050565b60008135905073ffffffffffffffffffffffffffffffffffffffff8116811415156152515760006000fd5b5b919050565b60006020828403121561526a5760006000fd5b61527382615226565b90505b92915050565b60006020820190508282525b92915050565b600081518084526020808501808196508360051b8101915082860160005b858110156152dc5782840389526152c4848351614f90565b9350848201915084890198505b6001810190506152ac565b5050508093505050505b92915050565b600060608201606083528086518083526080850191506020925082880160005b828110156153445773ffffffffffffffffffffffffffffffffffffffff8251168452848401935084820191505b60018101905061530c565b50505083810382850152615358818761528e565b915050828103604084015261536d818561528e565b9150505b949350505050565b7f4e487b7100000000000000000000000000000000000000000000000000000000600052602160045260246000fd5b565b6008811015156153e3577f4e487b7100000000000000000000000000000000000000000000000000000000600052602160045260246000fd5b80825250505b565b60006020820190506153fd82846153aa565b5b92915050565b600060208201905073ffffffffffffffffffffffffffffffffffffffff831682525b92915050565b60ff81168114151561543e5760006000fd5b505b565b6000600060006000600060a0868803121561545d5760006000fd5b85359450602086013561546f816151de565b8094505060408601356154818161542c565b8093505060608601359150608086013590505b9295509295909350565b80511515825260208101511515602083015260408101511515604083015276ffffffffffffffffffffffffffffffffffffffffffffff606082015116606083015250505b565b6000602080830181845280855180835260409250828601915083870160005b8281101561555557815165ffffffffffff8151168552868101516155298887018261549e565b508581015160a0860152606081015160c08601525060e08401935085820191505b600181019050615503565b5050508093505050505b92915050565b600081518084526020808501945080840160005b838110156155b15773ffffffffffffffffffffffffffffffffffffffff8251168752828701965082820191505b600181019050615579565b505050508290505b92915050565b60006020808301818452808551808352604092508286019150828160051b87010184880160005b83811015615794577fffffffffffffffffffffffffffffffffffffffffffffffffffffffffffffffc08984030185528151610200815181865261562b82870182615565565b915050888201518582038a870152615643828261528e565b915050878201518582038987015261565b828261528e565b915050606080830151868303828801526156758382614f90565b92505050608080830151868303828801526156908382614f90565b9250505060a0808301516156a682880182614fdd565b505060c0808301516156ba82880182614ffb565b505060e0808301516156ce82880182614ffb565b5050610100808301516156e38288018261500b565b5050610120808301516156f882880182614ffb565b50506101408083015161570d82880182614ffb565b50506101608083015161572282880182615025565b50506101808083015161573782880182615025565b50506101a08083015161574c8288018261500b565b50506101c0808301516157618288018261500b565b50506101e0808301519250615778818701846153aa565b508094505050868201915086850194505b6001810190506155e6565b505080955050505050505b92915050565b600060208201905073ffffffffffffffffffffffffffffffffffffffff831682525b92915050565b600060208201905065ffffffffffff831682525b92915050565b60006000604083850312156157fc5760006000fd5b8235915061580c60208401615226565b90505b9250929050565b600060208201905073ffffffffffffffffffffffffffffffffffffffff831682525b92915050565b7f4e487b7100000000000000000000000000000000000000000000000000000000600052604160045260246000fd5b565b600060405190507fffffffffffffffffffffffffffffffffffffffffffffffffffffffffffffffe0601f830116810181811067ffffffffffffffff821117156158bb576158ba61583e565b5b80604052505b919050565b600067ffffffffffffffff8211156158e1576158e061583e565b5b60208260051b0190505b919050565b600082601f83011215156159045760006000fd5b81356020615919615914836158c6565b61586f565b808382528282019150828460051b87010193508684111561593a5760006000fd5b8286015b848110156159615761594f81615226565b835283830192505b838101905061593e565b50809450505050505b92915050565b600067ffffffffffffffff82111561598b5761598a61583e565b5b60207fffffffffffffffffffffffffffffffffffffffffffffffffffffffffffffffe0601f8401160190505b919050565b60006159cf6159ca84615970565b61586f565b90508281528383830111156159e45760006000fd5b828260208301376000602084830101525b9392505050565b600082601f8301121515615a105760006000fd5b615a1f838335602085016159bc565b90505b92915050565b600082601f8301121515615a3c5760006000fd5b81356020615a51615a4c836158c6565b61586f565b808382528282019150828460051b870101935086841115615a725760006000fd5b8286015b84811015615ab857803567ffffffffffffffff811115615a975760008081fd505b615aa58986838b01016159fc565b84525083830192505b8381019050615a76565b50809450505050505b92915050565b600082601f8301121515615adb5760006000fd5b81356020615af0615aeb836158c6565b61586f565b808382528282019150828460051b870101935086841115615b115760006000fd5b8286015b84811015615b7257803567ffffffffffffffff811115615b365760008081fd505b808801905088603f8201121515615b4e5760008081fd505b615b5f8986830135604084016159bc565b84525083830192505b8381019050615b15565b50809450505050505b92915050565b6000600060006000600060a08688031215615b9c5760006000fd5b853567ffffffffffffffff80821115615bb55760006000fd5b615bc189838a016158f0565b96506020880135915080821115615bd85760006000fd5b615be489838a01615a28565b95506040880135915080821115615bfb5760006000fd5b615c0789838a01615ac7565b94506060880135915080821115615c1e5760006000fd5b615c2a89838a016159fc565b93506080880135915080821115615c415760006000fd5b50615c4e888289016159fc565b9150505b9295509295909350565b6000608082019050615c6e828461549e565b5b92915050565b60008160011c905060018216801515615c8f57607f821691505b60208210811415615cc9577f4e487b7100000000000000000000000000000000000000000000000000000000600052602260045260246000fd5b505b919050565b7f4e487b7100000000000000000000000000000000000000000000000000000000600052603260045260246000fd5b565b60208152601560208201527f50726f706f73616c206e6f7420636f6d706c6574650000000000000000000000604082015260006060820190505b919050565b60208152600d60208201527f486173206e6f7420766f74656400000000000000000000000000000000000000604082015260006060820190505b919050565b60208152601860208201527f5265776172647320616c72656164792072656365697665640000000000000000604082015260006060820190505b919050565b7f4e487b7100000000000000000000000000000000000000000000000000000000600052601160045260246000fd5b565b60007fffffffffffffffffffffffffffffffffffffffffffffffffffffffffffffffff821415615e2257615e21615dbe565b5b6001820190505b919050565b600060208284031215615e415760006000fd5b815190505b92915050565b6000821515615e84577f4e487b7100000000000000000000000000000000000000000000000000000000600052601260045260246000fd5b82820490505b92915050565b60208152602960208201527f476f7665726e6f72416c7068613a3a73746174653a20696e76616c696420707260408201527f6f706f73616c2069640000000000000000000000000000000000000000000000606082015260006080820190505b919050565b60208152603660208201527f476f7665726e6f72416c7068613a3a63616e63656c3a2063616e6e6f7420636160408201527f6e63656c2065786563757465642070726f706f73616c00000000000000000000606082015260006080820190505b919050565b60208152602560208201527f43616e742063616e63656c20616674657220766f74696e6720697320636f6d7060408201527f6c65746564000000000000000000000000000000000000000000000000000000606082015260006080820190505b919050565b600060408201905073ffffffffffffffffffffffffffffffffffffffff841682528260208301525b9392505050565b60208152602f60208201527f476f7665726e6f72416c7068613a3a63616e63656c3a2070726f706f7365722060408201527f61626f7665207468726573686f6c640000000000000000000000000000000000606082015260006080820190505b919050565b6000815461606081615c75565b808552602060018084166000811461607f57600181146160b1576160e6565b7fffffffffffffffffffffffffffffffffffffffffffffffffffffffffffffff008516838901526040880195506160e6565b866000528260002060005b858110156160dc57815485828c01015283820191505b84810190506160bc565b84818b0101975050505b50505050505b92915050565b73ffffffffffffffffffffffffffffffffffffffff851681526080602082015260006161216080830186616053565b82810360408401526161338186616053565b91505065ffffffffffff831660608301525b95945050505050565b60006000835461615d81615c75565b60018083166000811461617757600181146161a6576161da565b7fffffffffffffffffffffffffffffffffffffffffffffffffffffffffffffff008416875282870194506161da565b8760005260208060002060005b858110156161d1578154818b015284820191505b82810190506161b3565b50505082870194505b50505050809150505b92915050565b600060808201905085825284602083015283604083015273ffffffffffffffffffffffffffffffffffffffff831660608301525b95945050505050565b600060608201905084825283602083015282151560408301525b949350505050565b7f1901000000000000000000000000000000000000000000000000000000000000815282600282015281602282015260006042820190505b9392505050565b600060808201905085825260ff851660208301528360408301528260608301525b95945050505050565b60208152602f60208201527f476f7665726e6f72416c7068613a3a63617374566f746542795369673a20696e60408201527f76616c6964207369676e61747572650000000000000000000000000000000000606082015260006080820190505b919050565b600065ffffffffffff80831681851680830382111561633857616337615dbe565b5b80820193505050505b92915050565b600060408201905073ffffffffffffffffffffffffffffffffffffffff8416825265ffffffffffff831660208301525b9392505050565b600065ffffffffffff8083168181141561639b5761639a615dbe565b5b60018101925050505b919050565b60208152600e60208201527f4e6f7420417574686f72697a6564000000000000000000000000000000000000604082015260006060820190505b919050565b60208152603f60208201527f476f7665726e6f72416c7068613a3a70726f706f73653a2070726f706f73657260408201527f20766f7465732062656c6f772070726f706f73616c207468726573686f6c6400606082015260006080820190505b919050565b60208152604460208201527f476f7665726e6f72416c7068613a3a70726f706f73653a2070726f706f73616c60408201527f2066756e6374696f6e20696e666f726d6174696f6e206172697479206d69736d60608201527f61746368000000000000000000000000000000000000000000000000000000006080820152600060a0820190505b919050565b60208152602c60208201527f476f7665726e6f72416c7068613a3a70726f706f73653a206d7573742070726f60408201527f7669646520616374696f6e730000000000000000000000000000000000000000606082015260006080820190505b919050565b60208152602860208201527f476f7665726e6f72416c7068613a3a70726f706f73653a20746f6f206d616e7960408201527f20616374696f6e73000000000000000000000000000000000000000000000000606082015260006080820190505b919050565b60208152605860208201527f476f7665726e6f72416c7068613a3a70726f706f73653a206f6e65206c69766560408201527f2070726f706f73616c207065722070726f706f7365722c20666f756e6420616e60608201527f20616c7265616479206163746976652070726f706f73616c00000000000000006080820152600060a0820190505b919050565b60208152605960208201527f476f7665726e6f72416c7068613a3a70726f706f73653a206f6e65206c69766560408201527f2070726f706f73616c207065722070726f706f7365722c20666f756e6420616e60608201527f20616c72656164792070656e64696e672070726f706f73616c000000000000006080820152600060a0820190505b919050565b60208152604460208201527f476f7665726e6f72416c7068613a3a71756575653a2070726f706f73616c206360408201527f616e206f6e6c792062652071756575656420696620697420697320737563636560608201527f65646564000000000000000000000000000000000000000000000000000000006080820152600060a0820190505b919050565b60208152604560208201527f476f7665726e6f72416c7068613a3a657865637574653a2070726f706f73616c60408201527f2063616e206f6e6c79206265206578656375746564206966206974206973207160608201527f75657565640000000000000000000000000000000000000000000000000000006080820152600060a0820190505b919050565b6000602082840312156167e15760006000fd5b815167ffffffffffffffff8111156167f95760006000fd5b808301905083601f82011215156168105760006000fd5b805161682361681e82615970565b61586f565b8181528560208385010111156168395760006000fd5b61684a826020830160208601614f5b565b8093505050505b92915050565b6000821982111561686b5761686a615dbe565b5b82820190505b92915050565b60208152601160208201527f6164646974696f6e206f766572666c6f77000000000000000000000000000000604082015260006060820190505b919050565b60208152602a60208201527f476f7665726e6f72416c7068613a3a5f63617374566f74653a20766f74696e6760408201527f20697320636c6f73656400000000000000000000000000000000000000000000606082015260006080820190505b919050565b60208152602d60208201527f476f7665726e6f72416c7068613a3a5f63617374566f74653a20766f7465722060408201527f616c726561647920766f74656400000000000000000000000000000000000000606082015260006080820190505b919050565b60208152601560208201527f7375627472616374696f6e20756e646572666c6f770000000000000000000000604082015260006060820190505b919050565b6000828210156169d2576169d1615dbe565b5b82820390505b92915050565b6000602082840312156169f15760006000fd5b81516169fc8161542c565b809150505b92915050565b73ffffffffffffffffffffffffffffffffffffffff83168152604060208201526000616a366040830184614f90565b90505b9392505050565b60208152600f60208201527f4578636565647320343820626974730000000000000000000000000000000000604082015260006060820190505b919050565b60208152601060208201527f4578636565647320313238206269747300000000000000000000000000000000604082015260006060820190505b919050565b73ffffffffffffffffffffffffffffffffffffffff85168152608060208201526000616aed6080830186614f90565b8281036040840152616aff8186614f90565b9150508260608301525b95945050505050565b600060208284031215616b255760006000fd5b8151616b30816151de565b809150505b92915050565b60208152604460208201527f476f7665726e6f72416c7068613a3a5f71756575654f725265766572743a207060408201527f726f706f73616c20616374696f6e20616c72656164792071756575656420617460608201527f20657461000000000000000000000000000000000000000000000000000000006080820152600060a0820190505b919050565b600060208284031215616bd95760006000fd5b815190505b92915050565b60208152601060208201527f4578636565647320313834206269747300000000000000000000000000000000604082015260006060820190505b919050565bfea264697066735822122091829ab6e2c1a5e15c075031bb1c1f01f12b5b34430f316f7c1049d27e0b574864736f6c634300080c0033",
  "linkReferences": {},
  "deployedLinkReferences": {}
}