{
  "_format": "hh-sol-artifact-1",
  "contractName": "TcpGovernorAlpha",
  "sourceName": "contracts/core/governance/TcpGovernorAlpha.sol",
  "abi": [
    {
      "inputs": [
        {
          "components": [
            {
              "internalType": "address",
              "name": "TcpTimelock",
              "type": "address"
            },
            {
              "internalType": "address",
              "name": "Tcp",
              "type": "address"
            },
            {
              "internalType": "address",
              "name": "Guardian",
              "type": "address"
            },
            {
              "internalType": "uint48",
              "name": "VoteBlockCount",
              "type": "uint48"
            },
            {
              "internalType": "address",
              "name": "Governor",
              "type": "address"
            }
          ],
          "internalType": "struct TcpGovernorAlpha.ConstructorParams",
          "name": "params",
          "type": "tuple"
        }
      ],
      "stateMutability": "nonpayable",
      "type": "constructor"
    },
    {
      "anonymous": false,
      "inputs": [
        {
          "indexed": true,
          "internalType": "uint256",
          "name": "id",
          "type": "uint256"
        }
      ],
      "name": "ProposalCanceled",
      "type": "event"
    },
    {
      "anonymous": false,
      "inputs": [
        {
          "indexed": true,
          "internalType": "uint256",
          "name": "id",
          "type": "uint256"
        },
        {
          "indexed": true,
          "internalType": "address",
          "name": "proposer",
          "type": "address"
        }
      ],
      "name": "ProposalCreated",
      "type": "event"
    },
    {
      "anonymous": false,
      "inputs": [
        {
          "indexed": true,
          "internalType": "uint256",
          "name": "id",
          "type": "uint256"
        }
      ],
      "name": "ProposalExecuted",
      "type": "event"
    },
    {
      "anonymous": false,
      "inputs": [
        {
          "indexed": true,
          "internalType": "uint256",
          "name": "id",
          "type": "uint256"
        },
        {
          "indexed": false,
          "internalType": "uint256",
          "name": "eta",
          "type": "uint256"
        }
      ],
      "name": "ProposalQueued",
      "type": "event"
    },
    {
      "anonymous": false,
      "inputs": [
        {
          "indexed": true,
          "internalType": "address",
          "name": "voter",
          "type": "address"
        },
        {
          "indexed": true,
          "internalType": "uint256",
          "name": "proposalId",
          "type": "uint256"
        },
        {
          "indexed": true,
          "internalType": "bool",
          "name": "support",
          "type": "bool"
        },
        {
          "indexed": false,
          "internalType": "uint256",
          "name": "votes",
          "type": "uint256"
        }
      ],
      "name": "VoteCast",
      "type": "event"
    },
    {
      "anonymous": false,
      "inputs": [
        {
          "indexed": true,
          "internalType": "address",
          "name": "voter",
          "type": "address"
        },
        {
          "indexed": false,
          "internalType": "uint256",
          "name": "count",
          "type": "uint256"
        }
      ],
      "name": "VotingRewardsDistributed",
      "type": "event"
    },
    {
      "inputs": [],
      "name": "BALLOT_TYPEHASH",
      "outputs": [
        {
          "internalType": "bytes32",
          "name": "",
          "type": "bytes32"
        }
      ],
      "stateMutability": "view",
      "type": "function"
    },
    {
      "inputs": [],
      "name": "DOMAIN_TYPEHASH",
      "outputs": [
        {
          "internalType": "bytes32",
          "name": "",
          "type": "bytes32"
        }
      ],
      "stateMutability": "view",
      "type": "function"
    },
    {
      "inputs": [],
      "name": "INFLATION_PERCENTAGE",
      "outputs": [
        {
          "internalType": "uint256",
          "name": "",
          "type": "uint256"
        }
      ],
      "stateMutability": "view",
      "type": "function"
    },
    {
      "inputs": [],
      "name": "__abdicate",
      "outputs": [],
      "stateMutability": "nonpayable",
      "type": "function"
    },
    {
      "inputs": [
        {
          "internalType": "uint256",
          "name": "proposalId",
          "type": "uint256"
        }
      ],
      "name": "cancel",
      "outputs": [],
      "stateMutability": "nonpayable",
      "type": "function"
    },
    {
      "inputs": [
        {
          "internalType": "uint256",
          "name": "proposalId",
          "type": "uint256"
        },
        {
          "internalType": "bool",
          "name": "support",
          "type": "bool"
        }
      ],
      "name": "castVote",
      "outputs": [],
      "stateMutability": "nonpayable",
      "type": "function"
    },
    {
      "inputs": [
        {
          "internalType": "uint256",
          "name": "proposalId",
          "type": "uint256"
        },
        {
          "internalType": "bool",
          "name": "support",
          "type": "bool"
        },
        {
          "internalType": "uint8",
          "name": "v",
          "type": "uint8"
        },
        {
          "internalType": "bytes32",
          "name": "r",
          "type": "bytes32"
        },
        {
          "internalType": "bytes32",
          "name": "s",
          "type": "bytes32"
        }
      ],
      "name": "castVoteBySig",
      "outputs": [],
      "stateMutability": "nonpayable",
      "type": "function"
    },
    {
      "inputs": [
        {
          "internalType": "uint256[]",
          "name": "proposalIDs",
          "type": "uint256[]"
        }
      ],
      "name": "claimVotingRewards",
      "outputs": [],
      "stateMutability": "nonpayable",
      "type": "function"
    },
    {
      "inputs": [
        {
          "internalType": "uint256",
          "name": "proposalID",
          "type": "uint256"
        },
        {
          "internalType": "address",
          "name": "voter",
          "type": "address"
        }
      ],
      "name": "countVotingRewards",
      "outputs": [
        {
          "internalType": "uint256",
          "name": "",
          "type": "uint256"
        }
      ],
      "stateMutability": "view",
      "type": "function"
    },
    {
      "inputs": [
        {
          "internalType": "uint256",
          "name": "proposalId",
          "type": "uint256"
        }
      ],
      "name": "execute",
      "outputs": [],
      "stateMutability": "nonpayable",
      "type": "function"
    },
    {
      "inputs": [
        {
          "internalType": "uint256",
          "name": "proposalId",
          "type": "uint256"
        }
      ],
      "name": "getActions",
      "outputs": [
        {
          "internalType": "address[]",
          "name": "targets",
          "type": "address[]"
        },
        {
          "internalType": "string[]",
          "name": "signatures",
          "type": "string[]"
        },
        {
          "internalType": "bytes[]",
          "name": "calldatas",
          "type": "bytes[]"
        }
      ],
      "stateMutability": "view",
      "type": "function"
    },
    {
      "inputs": [
        {
          "internalType": "address",
          "name": "voter",
          "type": "address"
        }
      ],
      "name": "getProposalsInfo",
      "outputs": [
        {
          "components": [
            {
              "internalType": "address[]",
              "name": "targets",
              "type": "address[]"
            },
            {
              "internalType": "string[]",
              "name": "signatures",
              "type": "string[]"
            },
            {
              "internalType": "bytes[]",
              "name": "calldatas",
              "type": "bytes[]"
            },
            {
              "internalType": "string",
              "name": "title",
              "type": "string"
            },
            {
              "internalType": "string",
              "name": "ipfsHash",
              "type": "string"
            },
            {
              "internalType": "address",
              "name": "proposer",
              "type": "address"
            },
            {
              "internalType": "uint48",
              "name": "eta",
              "type": "uint48"
            },
            {
              "internalType": "uint48",
              "name": "id",
              "type": "uint48"
            },
            {
              "internalType": "uint128",
              "name": "forVotes",
              "type": "uint128"
            },
            {
              "internalType": "uint48",
              "name": "startBlock",
              "type": "uint48"
            },
            {
              "internalType": "uint48",
              "name": "endBlock",
              "type": "uint48"
            },
            {
              "internalType": "bool",
              "name": "canceled",
              "type": "bool"
            },
            {
              "internalType": "bool",
              "name": "executed",
              "type": "bool"
            },
            {
              "internalType": "uint128",
              "name": "againstVotes",
              "type": "uint128"
            },
            {
              "internalType": "uint128",
              "name": "initialSupply",
              "type": "uint128"
            },
            {
              "internalType": "enum GovernorAlpha.ProposalState",
              "name": "state",
              "type": "uint8"
            },
            {
              "components": [
                {
                  "internalType": "bool",
                  "name": "hasVoted",
                  "type": "bool"
                },
                {
                  "internalType": "bool",
                  "name": "support",
                  "type": "bool"
                },
                {
                  "internalType": "bool",
                  "name": "rewardReceived",
                  "type": "bool"
                },
                {
                  "internalType": "uint184",
                  "name": "votes",
                  "type": "uint184"
                }
              ],
              "internalType": "struct GovernorAlpha.Receipt",
              "name": "receipt",
              "type": "tuple"
            },
            {
              "internalType": "uint256",
              "name": "votingPower",
              "type": "uint256"
            },
            {
              "internalType": "uint256",
              "name": "votingRewards",
              "type": "uint256"
            }
          ],
          "internalType": "struct GovernorAlphaWithVotingRewards.ProposalInfo[]",
          "name": "proposalsInfo",
          "type": "tuple[]"
        }
      ],
      "stateMutability": "view",
      "type": "function"
    },
    {
      "inputs": [
        {
          "internalType": "uint256",
          "name": "proposalId",
          "type": "uint256"
        },
        {
          "internalType": "address",
          "name": "voter",
          "type": "address"
        }
      ],
      "name": "getReceipt",
      "outputs": [
        {
          "components": [
            {
              "internalType": "bool",
              "name": "hasVoted",
              "type": "bool"
            },
            {
              "internalType": "bool",
              "name": "support",
              "type": "bool"
            },
            {
              "internalType": "bool",
              "name": "rewardReceived",
              "type": "bool"
            },
            {
              "internalType": "uint184",
              "name": "votes",
              "type": "uint184"
            }
          ],
          "internalType": "struct GovernorAlpha.Receipt",
          "name": "",
          "type": "tuple"
        }
      ],
      "stateMutability": "view",
      "type": "function"
    },
    {
      "inputs": [],
      "name": "governor",
      "outputs": [
        {
          "internalType": "contract IGovernor",
          "name": "",
          "type": "address"
        }
      ],
      "stateMutability": "view",
      "type": "function"
    },
    {
      "inputs": [],
      "name": "guardian",
      "outputs": [
        {
          "internalType": "address",
          "name": "",
          "type": "address"
        }
      ],
      "stateMutability": "view",
      "type": "function"
    },
    {
      "inputs": [],
      "name": "implementsVotingRewardsWithToken",
      "outputs": [
        {
          "internalType": "address",
          "name": "",
          "type": "address"
        }
      ],
      "stateMutability": "view",
      "type": "function"
    },
    {
      "inputs": [
        {
          "internalType": "address",
          "name": "",
          "type": "address"
        }
      ],
      "name": "latestProposalIds",
      "outputs": [
        {
          "internalType": "uint256",
          "name": "",
          "type": "uint256"
        }
      ],
      "stateMutability": "view",
      "type": "function"
    },
    {
      "inputs": [],
      "name": "name",
      "outputs": [
        {
          "internalType": "string",
          "name": "",
          "type": "string"
        }
      ],
      "stateMutability": "view",
      "type": "function"
    },
    {
      "inputs": [],
      "name": "proposalCount",
      "outputs": [
        {
          "internalType": "uint48",
          "name": "",
          "type": "uint48"
        }
      ],
      "stateMutability": "view",
      "type": "function"
    },
    {
      "inputs": [],
      "name": "proposalMaxOperations",
      "outputs": [
        {
          "internalType": "uint256",
          "name": "",
          "type": "uint256"
        }
      ],
      "stateMutability": "pure",
      "type": "function"
    },
    {
      "inputs": [],
      "name": "proposalThreshold",
      "outputs": [
        {
          "internalType": "uint256",
          "name": "",
          "type": "uint256"
        }
      ],
      "stateMutability": "view",
      "type": "function"
    },
    {
      "inputs": [
        {
          "internalType": "uint256",
          "name": "",
          "type": "uint256"
        }
      ],
      "name": "proposals",
      "outputs": [
        {
          "internalType": "string",
          "name": "title",
          "type": "string"
        },
        {
          "internalType": "string",
          "name": "ipfsHash",
          "type": "string"
        },
        {
          "internalType": "address",
          "name": "proposer",
          "type": "address"
        },
        {
          "internalType": "uint48",
          "name": "eta",
          "type": "uint48"
        },
        {
          "internalType": "uint48",
          "name": "id",
          "type": "uint48"
        },
        {
          "internalType": "uint128",
          "name": "forVotes",
          "type": "uint128"
        },
        {
          "internalType": "uint48",
          "name": "startBlock",
          "type": "uint48"
        },
        {
          "internalType": "uint48",
          "name": "endBlock",
          "type": "uint48"
        },
        {
          "internalType": "bool",
          "name": "canceled",
          "type": "bool"
        },
        {
          "internalType": "bool",
          "name": "executed",
          "type": "bool"
        },
        {
          "internalType": "uint128",
          "name": "againstVotes",
          "type": "uint128"
        },
        {
          "internalType": "uint128",
          "name": "initialSupply",
          "type": "uint128"
        }
      ],
      "stateMutability": "view",
      "type": "function"
    },
    {
      "inputs": [
        {
          "internalType": "address[]",
          "name": "targets",
          "type": "address[]"
        },
        {
          "internalType": "string[]",
          "name": "signatures",
          "type": "string[]"
        },
        {
          "internalType": "bytes[]",
          "name": "calldatas",
          "type": "bytes[]"
        },
        {
          "internalType": "string",
          "name": "title",
          "type": "string"
        },
        {
          "internalType": "string",
          "name": "ipfsHash",
          "type": "string"
        }
      ],
      "name": "propose",
      "outputs": [
        {
          "internalType": "uint256",
          "name": "",
          "type": "uint256"
        }
      ],
      "stateMutability": "nonpayable",
      "type": "function"
    },
    {
      "inputs": [
        {
          "internalType": "uint256",
          "name": "proposalId",
          "type": "uint256"
        }
      ],
      "name": "queue",
      "outputs": [],
      "stateMutability": "nonpayable",
      "type": "function"
    },
    {
      "inputs": [],
      "name": "quorumVotes",
      "outputs": [
        {
          "internalType": "uint256",
          "name": "",
          "type": "uint256"
        }
      ],
      "stateMutability": "view",
      "type": "function"
    },
    {
      "inputs": [
        {
          "internalType": "uint256",
          "name": "proposalId",
          "type": "uint256"
        }
      ],
      "name": "state",
      "outputs": [
        {
          "internalType": "enum GovernorAlpha.ProposalState",
          "name": "",
          "type": "uint8"
        }
      ],
      "stateMutability": "view",
      "type": "function"
    },
    {
      "inputs": [],
      "name": "timelock",
      "outputs": [
        {
          "internalType": "contract TimelockInterface",
          "name": "",
          "type": "address"
        }
      ],
      "stateMutability": "view",
      "type": "function"
    },
    {
      "inputs": [],
      "name": "votingDelay",
      "outputs": [
        {
          "internalType": "uint256",
          "name": "",
          "type": "uint256"
        }
      ],
      "stateMutability": "pure",
      "type": "function"
    },
    {
      "inputs": [],
      "name": "votingPeriod",
      "outputs": [
        {
          "internalType": "uint256",
          "name": "",
          "type": "uint256"
        }
      ],
      "stateMutability": "view",
      "type": "function"
    },
    {
      "inputs": [],
      "name": "votingPeriodBlocks",
      "outputs": [
        {
          "internalType": "uint48",
          "name": "",
          "type": "uint48"
        }
      ],
      "stateMutability": "view",
      "type": "function"
    },
    {
      "inputs": [],
      "name": "votingToken",
      "outputs": [
        {
          "internalType": "contract VotingTokenInterface",
          "name": "",
          "type": "address"
        }
      ],
      "stateMutability": "view",
      "type": "function"
    }
  ],
  "bytecode": "0x610100604052348015620000135760006000fd5b5060405162006f5038038062006f50833981810160405281019062000039919062000380565b5b6040518060400160405280601281526020017f54435020476f7665726e6f7220416c706861000000000000000000000000000081526020015081600001518260200151836040015184606001515b84848484845b8460006000509080519060200190620000a99291906200029a565b50600073ffffffffffffffffffffffffffffffffffffffff168473ffffffffffffffffffffffffffffffffffffffff1614158015620001155750600073ffffffffffffffffffffffffffffffffffffffff168373ffffffffffffffffffffffffffffffffffffffff1614155b80156200014f5750600073ffffffffffffffffffffffffffffffffffffffff168273ffffffffffffffffffffffffffffffffffffffff1614155b15156200015c5760006000fd5b8373ffffffffffffffffffffffffffffffffffffffff1660808173ffffffffffffffffffffffffffffffffffffffff1660601b815260140150508273ffffffffffffffffffffffffffffffffffffffff1660c08173ffffffffffffffffffffffffffffffffffffffff1660601b8152601401505081600160006101000a81548173ffffffffffffffffffffffffffffffffffffffff021916908373ffffffffffffffffffffffffffffffffffffffff16021790555060008165ffffffffffff161115156200022a5760006000fd5b8065ffffffffffff1660a08165ffffffffffff1660d01b815260060150505b50505050505b5050505050806080015173ffffffffffffffffffffffffffffffffffffffff1660e08173ffffffffffffffffffffffffffffffffffffffff1660601b815260140150505b506200047e565b828054620002a89062000439565b90600052602060002090601f016020900481019282620002cc57600085556200031d565b82601f10620002e757805160ff19168380011785556200031d565b828001600101855582156200031d579182015b828111156200031c5782518260005090905591602001919060010190620002fa565b5b5090506200032c919062000330565b5090565b62000336565b8082111562000352576000818150600090555060010162000336565b5090566200047d565b6000815190506001600160a01b038116811415156200037a5760006000fd5b5b919050565b600060a0828403121562000392578081fd5b60405160a081018181106001600160401b0382111715620003c157634e487b7160e01b83526041600452602483fd5b8060405250620003d1836200035b565b8152620003e1602084016200035b565b6020820152620003f4604084016200035b565b6040820152606083015165ffffffffffff81168114151562000414578283fd5b8060608301525062000429608084016200035b565b6080820152809150505b92915050565b60008160011c9050600182168015156200045457607f821691505b602082108114156200047657634e487b7160e01b600052602260045260246000fd5b505b919050565b5b60805160601c60a05160d01c60c05160601c60e05160601c616a0e6200054260003960008181610bf301528181613d46015281816143c50152614476015260008181610c7401528181611b3201528181611e21015281816124110152818161243c01528181612488015281816125a701528181612bd20152613f6f015260008181610862015261246001526000818161122001528181611f7b0152818161255b0152818161310e015281816136f1015281816145c601526146df0152616a0e6000f3fe60806040523480156100115760006000fd5b50600436106101ea5760003560e01c8063452a932011610110578063c5b3116d116100a3578063ddf0b00911610072578063ddf0b00914610589578063deaaa7cc146105a5578063e23a9a52146105c3578063fe0d94c1146105f3576101ea565b8063c5b3116d146104ed578063d33219b41461051d578063da35c6641461053b578063db11651114610559576101ea565b80637e90f9ab116100df5780637e90f9ab14610475578063b034012314610493578063b24b7ffd146104b1578063b58131b0146104cf576101ea565b8063452a9320146104135780634634c61f14610431578063760fbc131461044d5780637bdbe4d014610457576101ea565b806320606b70116101885780633932abb1116101575780633932abb1146103795780633e4f49e6146103975780633ea24796146103c757806340e58ee5146103f7576101ea565b806320606b70146102ed57806324bc1a641461030b57806329c0e5fd14610329578063328dd98214610347576101ea565b806306fdde03116101c457806306fdde03146102655780630c340a241461028357806315373e3d146102a157806317977c61146102bd576101ea565b8063013cf08b146101f057806302a251a31461022b578063062f146614610249576101ea565b60006000fd5b61020a600480360381019061020591906152ca565b61060f565b6040516102229c9b9a99989796959493929190615c47565b60405180910390f35b61023361085e565b60405161024091906166a5565b60405180910390f35b610263600480360381019061025e9190615191565b610893565b005b61026d610b60565b60405161027a9190615c2b565b60405180910390f35b61028b610bf1565b6040516102989190615b9a565b60405180910390f35b6102bb60048036038101906102b6919061532f565b610c15565b005b6102d760048036038101906102d2919061509f565b610c2f565b6040516102e491906166a5565b60405180910390f35b6102f5610c4a565b6040516103029190615aff565b60405180910390f35b610313610c6e565b60405161032091906166a5565b60405180910390f35b610331610d26565b60405161033e91906166a5565b60405180910390f35b610361600480360381019061035c91906152ca565b610d31565b604051610370939291906158a9565b60405180910390f35b610381610fb5565b60405161038e91906166a5565b60405180910390f35b6103b160048036038101906103ac91906152ca565b610fc3565b6040516103be9190615c12565b60405180910390f35b6103e160048036038101906103dc919061509f565b6112f6565b6040516103ee91906158ee565b60405180910390f35b610411600480360381019061040c91906152ca565b611c77565b005b61041b612173565b6040516104289190615732565b60405180910390f35b61044b60048036038101906104469190615360565b612199565b005b61045561236a565b005b61045f6123ff565b60405161046c91906166a5565b60405180910390f35b61047d61240d565b60405161048a9190615732565b60405180910390f35b61049b61243a565b6040516104a89190615bea565b60405180910390f35b6104b961245e565b6040516104c691906166b7565b60405180910390f35b6104d7612482565b6040516104e491906166a5565b60405180910390f35b61050760048036038101906105029190615302565b61253a565b60405161051491906166a5565b60405180910390f35b610525612559565b6040516105329190615bc2565b60405180910390f35b61054361257d565b60405161055091906166b7565b60405180910390f35b610573600480360381019061056e91906150c2565b612595565b60405161058091906166a5565b60405180910390f35b6105a3600480360381019061059e91906152ca565b613026565b005b6105ad613489565b6040516105ba9190615aff565b60405180910390f35b6105dd60048036038101906105d89190615302565b6134ad565b6040516105ea919061668c565b60405180910390f35b61060d600480360381019061060891906152ca565b6135d9565b005b600360005060205280600052604060002060009150905080600301600050805461063890616885565b80601f016020809104026020016040519081016040528092919081815260200182805461066490616885565b80156106b15780601f10610686576101008083540402835291602001916106b1565b820191906000526020600020905b81548152906001019060200180831161069457829003601f168201915b5050505050908060040160005080546106c990616885565b80601f01602080910402602001604051908101604052809291908181526020018280546106f590616885565b80156107425780601f1061071757610100808354040283529160200191610742565b820191906000526020600020905b81548152906001019060200180831161072557829003601f168201915b5050505050908060050160009054906101000a900473ffffffffffffffffffffffffffffffffffffffff16908060050160149054906101000a900465ffffffffffff169080600501601a9054906101000a900465ffffffffffff16908060060160009054906101000a90046fffffffffffffffffffffffffffffffff16908060060160109054906101000a900465ffffffffffff16908060060160169054906101000a900465ffffffffffff169080600601601c9054906101000a900460ff169080600601601d9054906101000a900460ff16908060070160009054906101000a90046fffffffffffffffffffffffffffffffff16908060070160109054906101000a90046fffffffffffffffffffffffffffffffff1690508c565b60007f000000000000000000000000000000000000000000000000000000000000000065ffffffffffff169050610890565b90565b600060006000600090505b84849050811015610af05784848281811015156108e4577f4e487b7100000000000000000000000000000000000000000000000000000000600052603260045260246000fd5b90506020020135915081506108fe8261391063ffffffff16565b151561093f576040517f08c379a000000000000000000000000000000000000000000000000000000000815260040161093690615e37565b60405180910390fd5b6002600050600083815260200190815260200160002060005060003373ffffffffffffffffffffffffffffffffffffffff1673ffffffffffffffffffffffffffffffffffffffff16815260200190815260200160002060005060000160009054906101000a900460ff1615156109ea576040517f08c379a00000000000000000000000000000000000000000000000000000000081526004016109e190615f1a565b60405180910390fd5b60006002600050600084815260200190815260200160002060005060003373ffffffffffffffffffffffffffffffffffffffff1673ffffffffffffffffffffffffffffffffffffffff16815260200190815260200160002060005090508060000160029054906101000a900460ff16151515610a9b576040517f08c379a0000000000000000000000000000000000000000000000000000000008152600401610a929061621c565b60405180910390fd5b60018160000160026101000a81548160ff021916908315150217905550610ad784610acc8533613b1863ffffffff16565b613cd363ffffffff16565b93508350505b8080610ae8906168e0565b91505061089e565b506000821115610b5957610b0a3383613d3a63ffffffff16565b3373ffffffffffffffffffffffffffffffffffffffff167f56cd411799f8eaf36ff267057223a17836afa0a91a109fe7e102ef919e6fa19d83604051610b5091906166a5565b60405180910390a25b50505b5050565b60006000508054610b7090616885565b80601f0160208091040260200160405190810160405280929190818152602001828054610b9c90616885565b8015610be95780601f10610bbe57610100808354040283529160200191610be9565b820191906000526020600020905b815481529060010190602001808311610bcc57829003601f168201915b505050505081565b7f000000000000000000000000000000000000000000000000000000000000000081565b610c26338383613dd963ffffffff16565b610c2b565b5050565b60046000506020528060005260406000206000915090505481565b7f8cad95687ba82c2ce50e74f7b754645e5117c3a5bec8151c0726d5857980a86681565b600060287f000000000000000000000000000000000000000000000000000000000000000073ffffffffffffffffffffffffffffffffffffffff166318160ddd6040518163ffffffff1660e01b815260040160206040518083038186803b158015610cd95760006000fd5b505afa158015610cee573d600060003e3d6000fd5b505050506040513d601f19601f82011682018060405250810190610d1291906152e6565b610d1c91906167ef565b9050610d23565b90565b6611c37937e0800081565b606060606060600060036000506000868152602001908152602001600020600050905080600001600050816001016000508260020160005082805480602002602001604051908101604052809291908181526020018280548015610dea57602002820191906000526020600020905b8160009054906101000a900473ffffffffffffffffffffffffffffffffffffffff1673ffffffffffffffffffffffffffffffffffffffff1681526020019060010190808311610da0575b5050505050925081805480602002602001604051908101604052809291908181526020016000905b82821015610ec3578382906000526020600020900160005b508054610e3690616885565b80601f0160208091040260200160405190810160405280929190818152602001828054610e6290616885565b8015610eaf5780601f10610e8457610100808354040283529160200191610eaf565b820191906000526020600020905b815481529060010190602001808311610e9257829003601f168201915b505050505081526020019060010190610e12565b50505050915080805480602002602001604051908101604052809291908181526020016000905b82821015610f9b578382906000526020600020900160005b508054610f0e90616885565b80601f0160208091040260200160405190810160405280929190818152602001828054610f3a90616885565b8015610f875780601f10610f5c57610100808354040283529160200191610f87565b820191906000526020600020905b815481529060010190602001808311610f6a57829003601f168201915b505050505081526020019060010190610eea565b50505050905093509350935050610fae56505b9193909250565b600060019050610fc0565b90565b600081600160149054906101000a900465ffffffffffff1665ffffffffffff1610158015610ff15750600082115b1515611032576040517f08c379a000000000000000000000000000000000000000000000000000000000815260040161102990615eb5565b60405180910390fd5b600060036000506000848152602001908152602001600020600050905080600601601c9054906101000a900460ff16156110745760029150506112f1566112ef565b8060060160109054906101000a900465ffffffffffff1665ffffffffffff16431115156110a95760009150506112f1566112ee565b8060060160169054906101000a900465ffffffffffff1665ffffffffffff16431115156110de5760019150506112f1566112ed565b8060070160009054906101000a90046fffffffffffffffffffffffffffffffff166fffffffffffffffffffffffffffffffff168160060160009054906101000a90046fffffffffffffffffffffffffffffffff166fffffffffffffffffffffffffffffffff1611158061118f575061115a610c6e63ffffffff16565b8160060160009054906101000a90046fffffffffffffffffffffffffffffffff166fffffffffffffffffffffffffffffffff16105b156111a25760039150506112f1566112ec565b60008160050160149054906101000a900465ffffffffffff1665ffffffffffff1614156111d75760049150506112f1566112eb565b80600601601d9054906101000a900460ff16156111fc5760079150506112f1566112ea565b6112c98160050160149054906101000a900465ffffffffffff1665ffffffffffff167f000000000000000000000000000000000000000000000000000000000000000073ffffffffffffffffffffffffffffffffffffffff1663c1a287e26040518163ffffffff1660e01b815260040160206040518083038186803b1580156112855760006000fd5b505afa15801561129a573d600060003e3d6000fd5b505050506040513d601f19601f820116820180604052508101906112be91906152e6565b613cd363ffffffff16565b421015156112df5760069150506112f1566112e9565b60059150506112f1565b5b5b5b5b5b5b505b919050565b6060600160149054906101000a900465ffffffffffff1665ffffffffffff1667ffffffffffffffff811115611354577f4e487b7100000000000000000000000000000000000000000000000000000000600052604160045260246000fd5b60405190808252806020026020018201604052801561138d57816020015b61137a61494d565b8152602001906001900390816113725790505b50905080506000600090505b600160149054906101000a900465ffffffffffff1665ffffffffffff168165ffffffffffff161015611c695760006001826113d491906167be565b65ffffffffffff169050600060036000506000838152602001908152602001600020600050604051806101e00160405290816000820160005080548060200260200160405190810160405280929190818152602001828054801561148d57602002820191906000526020600020905b8160009054906101000a900473ffffffffffffffffffffffffffffffffffffffff1673ffffffffffffffffffffffffffffffffffffffff1681526020019060010190808311611443575b5050505050815260200160018201600050805480602002602001604051908101604052809291908181526020016000905b8282101561156f578382906000526020600020900160005b5080546114e290616885565b80601f016020809104026020016040519081016040528092919081815260200182805461150e90616885565b801561155b5780601f106115305761010080835404028352916020019161155b565b820191906000526020600020905b81548152906001019060200180831161153e57829003601f168201915b5050505050815260200190600101906114be565b50505050815260200160028201600050805480602002602001604051908101604052809291908181526020016000905b82821015611650578382906000526020600020900160005b5080546115c390616885565b80601f01602080910402602001604051908101604052809291908181526020018280546115ef90616885565b801561163c5780601f106116115761010080835404028352916020019161163c565b820191906000526020600020905b81548152906001019060200180831161161f57829003601f168201915b50505050508152602001906001019061159f565b50505050815260200160038201600050805461166b90616885565b80601f016020809104026020016040519081016040528092919081815260200182805461169790616885565b80156116e45780601f106116b9576101008083540402835291602001916116e4565b820191906000526020600020905b8154815290600101906020018083116116c757829003601f168201915b5050505050815260200160048201600050805461170090616885565b80601f016020809104026020016040519081016040528092919081815260200182805461172c90616885565b80156117795780601f1061174e57610100808354040283529160200191611779565b820191906000526020600020905b81548152906001019060200180831161175c57829003601f168201915b505050505081526020016005820160009054906101000a900473ffffffffffffffffffffffffffffffffffffffff1673ffffffffffffffffffffffffffffffffffffffff1673ffffffffffffffffffffffffffffffffffffffff1681526020016005820160149054906101000a900465ffffffffffff1665ffffffffffff1665ffffffffffff16815260200160058201601a9054906101000a900465ffffffffffff1665ffffffffffff1665ffffffffffff1681526020016006820160009054906101000a90046fffffffffffffffffffffffffffffffff166fffffffffffffffffffffffffffffffff166fffffffffffffffffffffffffffffffff1681526020016006820160109054906101000a900465ffffffffffff1665ffffffffffff1665ffffffffffff1681526020016006820160169054906101000a900465ffffffffffff1665ffffffffffff1665ffffffffffff16815260200160068201601c9054906101000a900460ff1615151515815260200160068201601d9054906101000a900460ff161515151581526020016007820160009054906101000a90046fffffffffffffffffffffffffffffffff166fffffffffffffffffffffffffffffffff166fffffffffffffffffffffffffffffffff1681526020016007820160109054906101000a90046fffffffffffffffffffffffffffffffff166fffffffffffffffffffffffffffffffff166fffffffffffffffffffffffffffffffff1681526020015050905060405180610260016040528082600001518152602001826020015181526020018260400151815260200182606001518152602001826080015181526020018260a0015173ffffffffffffffffffffffffffffffffffffffff1681526020018260c0015165ffffffffffff1681526020018260e0015165ffffffffffff1681526020018261010001516fffffffffffffffffffffffffffffffff16815260200182610120015165ffffffffffff16815260200182610140015165ffffffffffff1681526020018261016001511515815260200182610180015115158152602001826101a001516fffffffffffffffffffffffffffffffff168152602001826101c001516fffffffffffffffffffffffffffffffff168152602001611ac984610fc363ffffffff16565b6007811115611b01577f4e487b7100000000000000000000000000000000000000000000000000000000600052602160045260246000fd5b8152602001611b1684886134ad63ffffffff16565b81526020014383610120015165ffffffffffff161015611be7577f000000000000000000000000000000000000000000000000000000000000000073ffffffffffffffffffffffffffffffffffffffff1663782d6fe1888561012001516040518363ffffffff1660e01b8152600401611b90929190615872565b60206040518083038186803b158015611ba95760006000fd5b505afa158015611bbe573d600060003e3d6000fd5b505050506040513d601f19601f82011682018060405250810190611be291906152e6565b611bea565b60005b8152602001611bff8488613b1863ffffffff16565b815260200150848465ffffffffffff16815181101515611c48577f4e487b7100000000000000000000000000000000000000000000000000000000600052603260045260246000fd5b602002602001018190525050505b8080611c619061691f565b915050611399565b50809050611c72565b919050565b60076007811115611cb1577f4e487b7100000000000000000000000000000000000000000000000000000000600052602160045260246000fd5b611cc082610fc363ffffffff16565b6007811115611cf8577f4e487b7100000000000000000000000000000000000000000000000000000000600052602160045260246000fd5b14151515611d3b576040517f08c379a0000000000000000000000000000000000000000000000000000000008152600401611d3290616544565b60405180910390fd5b60006003600050600083815260200190815260200160002060005090508060060160169054906101000a900465ffffffffffff1665ffffffffffff1643101515611dba576040517f08c379a0000000000000000000000000000000000000000000000000000000008152600401611db1906162e6565b60405180910390fd5b600160009054906101000a900473ffffffffffffffffffffffffffffffffffffffff1673ffffffffffffffffffffffffffffffffffffffff163373ffffffffffffffffffffffffffffffffffffffff161480611f025750611e1f61248263ffffffff16565b7f000000000000000000000000000000000000000000000000000000000000000073ffffffffffffffffffffffffffffffffffffffff1663782d6fe18360050160009054906101000a900473ffffffffffffffffffffffffffffffffffffffff16611e9143600161430863ffffffff16565b6040518363ffffffff1660e01b8152600401611eae929190615843565b60206040518083038186803b158015611ec75760006000fd5b505afa158015611edc573d600060003e3d6000fd5b505050506040513d601f19601f82011682018060405250810190611f0091906152e6565b105b1515611f43576040517f08c379a0000000000000000000000000000000000000000000000000000000008152600401611f3a906161b7565b60405180910390fd5b600181600601601c6101000a81548160ff0219169083151502179055506000600090505b8160000160005080549050811015612140577f000000000000000000000000000000000000000000000000000000000000000073ffffffffffffffffffffffffffffffffffffffff16624b1f128360000160005083815481101515611ff5577f4e487b7100000000000000000000000000000000000000000000000000000000600052603260045260246000fd5b906000526020600020900160005b9054906101000a900473ffffffffffffffffffffffffffffffffffffffff168460010160005084815481101515612063577f4e487b7100000000000000000000000000000000000000000000000000000000600052603260045260246000fd5b906000526020600020900160005b5085600201600050858154811015156120b3577f4e487b7100000000000000000000000000000000000000000000000000000000600052603260045260246000fd5b906000526020600020900160005b508660050160149054906101000a900465ffffffffffff166040518563ffffffff1660e01b81526004016120f894939291906157e7565b600060405180830381600087803b1580156121135760006000fd5b505af1158015612128573d600060003e3d6000fd5b505050505b8080612138906168e0565b915050611f67565b50817f789cf55be980739dad1d0699b93b58e806b51c9d96619bfa8fe0a28abaa7b30c60405160405180910390a2505b50565b600160009054906101000a900473ffffffffffffffffffffffffffffffffffffffff1681565b60007f8cad95687ba82c2ce50e74f7b754645e5117c3a5bec8151c0726d5857980a86660006000506040516121ce919061565c565b604051809103902046306040516020016121eb9493929190615b11565b60405160208183030381529060405280519060200120905060007f8e25870c07e0b0b3884c78da52790939a455c275406c44ae8b434b692fb916ee878760405160200161223a93929190615b4e565b604051602081830303815290604052805190602001209050600082826040516020016122679291906156f3565b6040516020818303038152906040528051906020012090506000600182888888604051600081526020016040526040516122a49493929190615b70565b6020604051602081039080840390855afa1580156122c7573d600060003e3d6000fd5b505050602060405103519050600073ffffffffffffffffffffffffffffffffffffffff168173ffffffffffffffffffffffffffffffffffffffff1614151515612345576040517f08c379a000000000000000000000000000000000000000000000000000000000815260040161233c90616415565b60405180910390fd5b612356818a8a613dd963ffffffff16565b5050505061236356505050505b5050505050565b6123793361436863ffffffff16565b15156123ba576040517f08c379a00000000000000000000000000000000000000000000000000000000081526004016123b190615f59565b60405180910390fd5b6000600160006101000a81548173ffffffffffffffffffffffffffffffffffffffff021916908373ffffffffffffffffffffffffffffffffffffffff1602179055505b565b6000600a905061240a565b90565b60007f00000000000000000000000000000000000000000000000000000000000000009050612437565b90565b7f000000000000000000000000000000000000000000000000000000000000000081565b7f000000000000000000000000000000000000000000000000000000000000000081565b600060c87f000000000000000000000000000000000000000000000000000000000000000073ffffffffffffffffffffffffffffffffffffffff166318160ddd6040518163ffffffff1660e01b815260040160206040518083038186803b1580156124ed5760006000fd5b505afa158015612502573d600060003e3d6000fd5b505050506040513d601f19601f8201168201806040525081019061252691906152e6565b61253091906167ef565b9050612537565b90565b600061254c8383613b1863ffffffff16565b9050612553565b92915050565b7f000000000000000000000000000000000000000000000000000000000000000081565b600160149054906101000a900465ffffffffffff1681565b60006125a561248263ffffffff16565b7f000000000000000000000000000000000000000000000000000000000000000073ffffffffffffffffffffffffffffffffffffffff1663782d6fe1336125f343600161430863ffffffff16565b6040518363ffffffff1660e01b8152600401612610929190615843565b60206040518083038186803b1580156126295760006000fd5b505afa15801561263e573d600060003e3d6000fd5b505050506040513d601f19601f8201168201806040525081019061266291906152e6565b1115156126a4576040517f08c379a000000000000000000000000000000000000000000000000000000000815260040161269b906163b0565b60405180910390fd5b845186511480156126b6575083518651145b15156126f7576040517f08c379a00000000000000000000000000000000000000000000000000000000081526004016126ee9061612c565b60405180910390fd5b6000865111151561273d576040517f08c379a00000000000000000000000000000000000000000000000000000000081526004016127349061634b565b60405180910390fd5b61274b6123ff63ffffffff16565b865111151515612790576040517f08c379a000000000000000000000000000000000000000000000000000000000815260040161278790616088565b60405180910390fd5b6000600460005060003373ffffffffffffffffffffffffffffffffffffffff1673ffffffffffffffffffffffffffffffffffffffff16815260200190815260200160002060005054905060008111156129645760006127f482610fc363ffffffff16565b905060016007811115612830577f4e487b7100000000000000000000000000000000000000000000000000000000600052602160045260246000fd5b816007811115612869577f4e487b7100000000000000000000000000000000000000000000000000000000600052602160045260246000fd5b141515156128ac576040517f08c379a00000000000000000000000000000000000000000000000000000000081526004016128a39061647a565b60405180910390fd5b600060078111156128e6577f4e487b7100000000000000000000000000000000000000000000000000000000600052602160045260246000fd5b81600781111561291f577f4e487b7100000000000000000000000000000000000000000000000000000000600052602160045260246000fd5b14151515612962576040517f08c379a000000000000000000000000000000000000000000000000000000000815260040161295990615ffd565b60405180910390fd5b505b6000600090505b8651811015612a1c57612a0888828151811015156129b2577f4e487b7100000000000000000000000000000000000000000000000000000000600052603260045260246000fd5b602002602001015188838151811015156129f5577f4e487b7100000000000000000000000000000000000000000000000000000000600052603260045260246000fd5b602002602001015161447463ffffffff16565b5b8080612a14906168e0565b91505061296b565b506000612a3c43612a31610fb563ffffffff16565b613cd363ffffffff16565b90506000612a5d82612a5261085e63ffffffff16565b613cd363ffffffff16565b90506001601481819054906101000a900465ffffffffffff1680929190612a839061691f565b91906101000a81548165ffffffffffff021916908365ffffffffffff160217905550506601000000000000600160149054906101000a900465ffffffffffff1665ffffffffffff16101515612ad85760006000fd5b6000604051806101e001604052808b81526020018a81526020018981526020018881526020018781526020013373ffffffffffffffffffffffffffffffffffffffff168152602001600065ffffffffffff168152602001600160149054906101000a900465ffffffffffff1665ffffffffffff16815260200160006fffffffffffffffffffffffffffffffff168152602001612b798561450663ffffffff16565b65ffffffffffff168152602001612b958461450663ffffffff16565b65ffffffffffff16815260200160001515815260200160001515815260200160006fffffffffffffffffffffffffffffffff168152602001612c7b7f000000000000000000000000000000000000000000000000000000000000000073ffffffffffffffffffffffffffffffffffffffff166318160ddd6040518163ffffffff1660e01b815260040160206040518083038186803b158015612c375760006000fd5b505afa158015612c4c573d600060003e3d6000fd5b505050506040513d601f19601f82011682018060405250810190612c7091906152e6565b61456063ffffffff16565b6fffffffffffffffffffffffffffffffff16815260200150905080600360005060008360e0015165ffffffffffff1681526020019081526020016000206000506000820151816000016000509080519060200190612cda929190614a90565b506020820151816001016000509080519060200190612cfa929190614b1a565b506040820151816002016000509080519060200190612d1a929190614b7a565b506060820151816003016000509080519060200190612d3a929190614bda565b506080820151816004016000509080519060200190612d5a929190614bda565b5060a08201518160050160006101000a81548173ffffffffffffffffffffffffffffffffffffffff021916908373ffffffffffffffffffffffffffffffffffffffff16021790555060c08201518160050160146101000a81548165ffffffffffff021916908365ffffffffffff16021790555060e082015181600501601a6101000a81548165ffffffffffff021916908365ffffffffffff1602179055506101008201518160060160006101000a8154816fffffffffffffffffffffffffffffffff02191690836fffffffffffffffffffffffffffffffff1602179055506101208201518160060160106101000a81548165ffffffffffff021916908365ffffffffffff1602179055506101408201518160060160166101000a81548165ffffffffffff021916908365ffffffffffff16021790555061016082015181600601601c6101000a81548160ff02191690831515021790555061018082015181600601601d6101000a81548160ff0219169083151502179055506101a08201518160070160006101000a8154816fffffffffffffffffffffffffffffffff02191690836fffffffffffffffffffffffffffffffff1602179055506101c08201518160070160106101000a8154816fffffffffffffffffffffffffffffffff02191690836fffffffffffffffffffffffffffffffff1602179055509050508060e0015165ffffffffffff16600460005060008360a0015173ffffffffffffffffffffffffffffffffffffffff1673ffffffffffffffffffffffffffffffffffffffff1681526020019081526020016000206000508190909055503373ffffffffffffffffffffffffffffffffffffffff168160e0015165ffffffffffff167fcd423cc1203c0af96b9b3d68d73b3064a69de2d14450bb7181c5e5df2132b35860405160405180910390a38060e0015165ffffffffffff1694505050505061301d56505050505b95945050505050565b60046007811115613060577f4e487b7100000000000000000000000000000000000000000000000000000000600052602160045260246000fd5b61306f82610fc363ffffffff16565b60078111156130a7577f4e487b7100000000000000000000000000000000000000000000000000000000600052602160045260246000fd5b1415156130e9576040517f08c379a00000000000000000000000000000000000000000000000000000000081526004016130e090615d21565b60405180910390fd5b600060036000506000838152602001908152602001600020600050905060006131b7427f000000000000000000000000000000000000000000000000000000000000000073ffffffffffffffffffffffffffffffffffffffff16636a42b8f86040518163ffffffff1660e01b815260040160206040518083038186803b1580156131735760006000fd5b505afa158015613188573d600060003e3d6000fd5b505050506040513d601f19601f820116820180604052508101906131ac91906152e6565b613cd363ffffffff16565b90506000600090505b8260000160005080549050811015613415576134018360000160005082815481101515613216577f4e487b7100000000000000000000000000000000000000000000000000000000600052603260045260246000fd5b906000526020600020900160005b9054906101000a900473ffffffffffffffffffffffffffffffffffffffff168460010160005083815481101515613284577f4e487b7100000000000000000000000000000000000000000000000000000000600052603260045260246000fd5b906000526020600020900160005b50805461329e90616885565b80601f01602080910402602001604051908101604052809291908181526020018280546132ca90616885565b80156133175780601f106132ec57610100808354040283529160200191613317565b820191906000526020600020905b8154815290600101906020018083116132fa57829003601f168201915b5050505050856002016000508481548110151561335d577f4e487b7100000000000000000000000000000000000000000000000000000000600052603260045260246000fd5b906000526020600020900160005b50805461337790616885565b80601f01602080910402602001604051908101604052809291908181526020018280546133a390616885565b80156133f05780601f106133c5576101008083540402835291602001916133f0565b820191906000526020600020905b8154815290600101906020018083116133d357829003601f168201915b5050505050856145c463ffffffff16565b5b808061340d906168e0565b9150506131c0565b506134258161450663ffffffff16565b8260050160146101000a81548165ffffffffffff021916908365ffffffffffff160217905550827f9a2e42fd6722813d69113e7d0079d3d940171428df7373df9c7f7617cfda28928260405161347b91906166a5565b60405180910390a250505b50565b7f8e25870c07e0b0b3884c78da52790939a455c275406c44ae8b434b692fb916ee81565b6134b5614c65565b6002600050600084815260200190815260200160002060005060008373ffffffffffffffffffffffffffffffffffffffff1673ffffffffffffffffffffffffffffffffffffffff1681526020019081526020016000206000506040518060800160405290816000820160009054906101000a900460ff161515151581526020016000820160019054906101000a900460ff161515151581526020016000820160029054906101000a900460ff161515151581526020016000820160039054906101000a900476ffffffffffffffffffffffffffffffffffffffffffffff1676ffffffffffffffffffffffffffffffffffffffffffffff1676ffffffffffffffffffffffffffffffffffffffffffffff168152602001505090506135d3565b92915050565b60056007811115613613577f4e487b7100000000000000000000000000000000000000000000000000000000600052602160045260246000fd5b61362282610fc363ffffffff16565b600781111561365a577f4e487b7100000000000000000000000000000000000000000000000000000000600052602160045260246000fd5b14151561369c576040517f08c379a000000000000000000000000000000000000000000000000000000000815260040161369390615dac565b60405180910390fd5b6000600360005060008381526020019081526020016000206000509050600181600601601d6101000a81548160ff0219169083151502179055506000600090505b81600001600050805490508110156138dd577f000000000000000000000000000000000000000000000000000000000000000073ffffffffffffffffffffffffffffffffffffffff16633ec5ab32836000016000508381548110151561376c577f4e487b7100000000000000000000000000000000000000000000000000000000600052603260045260246000fd5b906000526020600020900160005b9054906101000a900473ffffffffffffffffffffffffffffffffffffffff1684600101600050848154811015156137da577f4e487b7100000000000000000000000000000000000000000000000000000000600052603260045260246000fd5b906000526020600020900160005b50856002016000508581548110151561382a577f4e487b7100000000000000000000000000000000000000000000000000000000600052603260045260246000fd5b906000526020600020900160005b508660050160149054906101000a900465ffffffffffff166040518563ffffffff1660e01b815260040161386f94939291906157e7565b600060405180830381600087803b15801561388a5760006000fd5b505af115801561389f573d600060003e3d6000fd5b505050506040513d6000823e3d601f19601f820116820180604052508101906138c89190615249565b505b80806138d5906168e0565b9150506136dd565b50817f712ae1383f79ac853f8d882153778e0260ef8f03b504e2866e0593e04d2b291f60405160405180910390a2505b50565b6000600061392383610fc363ffffffff16565b90506004600781111561395f577f4e487b7100000000000000000000000000000000000000000000000000000000600052602160045260246000fd5b816007811115613998577f4e487b7100000000000000000000000000000000000000000000000000000000600052602160045260246000fd5b1480613a145750600360078111156139d9577f4e487b7100000000000000000000000000000000000000000000000000000000600052602160045260246000fd5b816007811115613a12577f4e487b7100000000000000000000000000000000000000000000000000000000600052602160045260246000fd5b145b80613a8f575060056007811115613a54577f4e487b7100000000000000000000000000000000000000000000000000000000600052602160045260246000fd5b816007811115613a8d577f4e487b7100000000000000000000000000000000000000000000000000000000600052602160045260246000fd5b145b80613b0a575060076007811115613acf577f4e487b7100000000000000000000000000000000000000000000000000000000600052602160045260246000fd5b816007811115613b08577f4e487b7100000000000000000000000000000000000000000000000000000000600052602160045260246000fd5b145b915050613b1356505b919050565b600060006003600050600085815260200190815260200160002060005090506000613bad8260060160009054906101000a90046fffffffffffffffffffffffffffffffff166fffffffffffffffffffffffffffffffff168360070160009054906101000a90046fffffffffffffffffffffffffffffffff166fffffffffffffffffffffffffffffffff16613cd363ffffffff16565b90506000811415613bc357600092505050613ccd565b6000613c116611c37937e080008460070160109054906101000a90046fffffffffffffffffffffffffffffffff166fffffffffffffffffffffffffffffffff1661479890919063ffffffff16565b9050613cc06002600050600088815260200190815260200160002060005060008773ffffffffffffffffffffffffffffffffffffffff1673ffffffffffffffffffffffffffffffffffffffff16815260200190815260200160002060005060000160039054906101000a900476ffffffffffffffffffffffffffffffffffffffffffffff1676ffffffffffffffffffffffffffffffffffffffffffffff1683836147be9092919063ffffffff16565b9350505050613ccd565050505b92915050565b600060008284613ce3919061679e565b9050838110151515613d2a576040517f08c379a0000000000000000000000000000000000000000000000000000000008152600401613d21906160ed565b60405180910390fd5b80915050613d3456505b92915050565b600081141515613dd4577f000000000000000000000000000000000000000000000000000000000000000073ffffffffffffffffffffffffffffffffffffffff16630793298783836040518363ffffffff1660e01b8152600401613d9f929190615843565b600060405180830381600087803b158015613dba5760006000fd5b505af1158015613dcf573d600060003e3d6000fd5b505050505b5b5050565b60016007811115613e13577f4e487b7100000000000000000000000000000000000000000000000000000000600052602160045260246000fd5b613e2283610fc363ffffffff16565b6007811115613e5a577f4e487b7100000000000000000000000000000000000000000000000000000000600052602160045260246000fd5b141515613e9c576040517f08c379a0000000000000000000000000000000000000000000000000000000008152600401613e93906165a9565b60405180910390fd5b6000600360005060008481526020019081526020016000206000509050600015156002600050600085815260200190815260200160002060005060008673ffffffffffffffffffffffffffffffffffffffff1673ffffffffffffffffffffffffffffffffffffffff16815260200190815260200160002060005060000160009054906101000a900460ff161515141515613f6b576040517f08c379a0000000000000000000000000000000000000000000000000000000008152600401613f6290615f98565b60405180910390fd5b60007f000000000000000000000000000000000000000000000000000000000000000073ffffffffffffffffffffffffffffffffffffffff1663782d6fe1868460060160109054906101000a900465ffffffffffff166040518363ffffffff1660e01b8152600401613fde929190615872565b60206040518083038186803b158015613ff75760006000fd5b505afa15801561400c573d600060003e3d6000fd5b505050506040513d601f19601f8201168201806040525081019061403091906152e6565b905082156140c75761408861407d8360060160009054906101000a90046fffffffffffffffffffffffffffffffff166fffffffffffffffffffffffffffffffff1683613cd363ffffffff16565b61456063ffffffff16565b8260060160006101000a8154816fffffffffffffffffffffffffffffffff02191690836fffffffffffffffffffffffffffffffff160217905550614152565b61411761410c8360070160009054906101000a90046fffffffffffffffffffffffffffffffff166fffffffffffffffffffffffffffffffff1683613cd363ffffffff16565b61456063ffffffff16565b8260070160006101000a8154816fffffffffffffffffffffffffffffffff02191690836fffffffffffffffffffffffffffffffff1602179055505b60405180608001604052806001151581526020018415158152602001600015158152602001614186836148e263ffffffff16565b76ffffffffffffffffffffffffffffffffffffffffffffff168152602001506002600050600086815260200190815260200160002060005060008773ffffffffffffffffffffffffffffffffffffffff1673ffffffffffffffffffffffffffffffffffffffff16815260200190815260200160002060005060008201518160000160006101000a81548160ff02191690831515021790555060208201518160000160016101000a81548160ff02191690831515021790555060408201518160000160026101000a81548160ff02191690831515021790555060608201518160000160036101000a81548176ffffffffffffffffffffffffffffffffffffffffffffff021916908376ffffffffffffffffffffffffffffffffffffffffffffff160217905550905050821515848673ffffffffffffffffffffffffffffffffffffffff167f877856338e13f63d0c36822ff0ef736b80934cd90574a3a5bc9262c39d217c46846040516142f891906166a5565b60405180910390a450505b505050565b600082821115151561434f576040517f08c379a00000000000000000000000000000000000000000000000000000000081526004016143469061664d565b60405180910390fd5b818361435b9190616831565b9050614362565b92915050565b6000600160009054906101000a900473ffffffffffffffffffffffffffffffffffffffff1673ffffffffffffffffffffffffffffffffffffffff168273ffffffffffffffffffffffffffffffffffffffff161480614468575060017f000000000000000000000000000000000000000000000000000000000000000073ffffffffffffffffffffffffffffffffffffffff1663055ad42e6040518163ffffffff1660e01b815260040160206040518083038186803b15801561442a5760006000fd5b505afa15801561443f573d600060003e3d6000fd5b505050506040513d601f19601f8201168201806040525081019061446391906153ba565b60ff16115b905061446f565b919050565b7f000000000000000000000000000000000000000000000000000000000000000073ffffffffffffffffffffffffffffffffffffffff1663a43c36af83836040518363ffffffff1660e01b81526004016144cf92919061575a565b60006040518083038186803b1580156144e85760006000fd5b505afa1580156144fd573d600060003e3d6000fd5b505050505b5050565b6000660100000000000082101515614553576040517f08c379a000000000000000000000000000000000000000000000000000000000815260040161454a90616505565b60405180910390fd5b81905061455b565b919050565b6000700100000000000000000000000000000000821015156145b7576040517f08c379a00000000000000000000000000000000000000000000000000000000081526004016145ae90615e76565b60405180910390fd5b8190506145bf565b919050565b7f000000000000000000000000000000000000000000000000000000000000000073ffffffffffffffffffffffffffffffffffffffff1663f2b06537858585856040516020016146179493929190615793565b604051602081830303815290604052805190602001206040518263ffffffff1660e01b81526004016146499190615aff565b60206040518083038186803b1580156146625760006000fd5b505afa158015614677573d600060003e3d6000fd5b505050506040513d601f19601f8201168201806040525081019061469b9190615206565b1515156146dd576040517f08c379a00000000000000000000000000000000000000000000000000000000081526004016146d49061625b565b60405180910390fd5b7f000000000000000000000000000000000000000000000000000000000000000073ffffffffffffffffffffffffffffffffffffffff16630e70eace858585856040518563ffffffff1660e01b815260040161473c9493929190615793565b602060405180830381600087803b1580156147575760006000fd5b505af115801561476c573d600060003e3d6000fd5b505050506040513d601f19601f82011682018060405250810190614790919061522d565b505b50505050565b60006147b38383670de0b6b3a76400006147be63ffffffff16565b905080505b92915050565b6000600060006000198587098587029250828110838203039150506000811415614801576000841115156147f25760006000fd5b838204925082925050506148db565b80841115156148105760006000fd5b60008486880990508281118203915080830392506000856001877fffffffffffffffffffffffffffffffffffffffffffffffffffffffffffffffff0301169050805080860495508084049350600181826000030401905080830284179350835060006002876003021890508087026002038102905080508087026002038102905080508087026002038102905080508087026002038102905080508087026002038102905080508087026002038102905080508085029550855050849450505050506148db56505050505b9392505050565b60007701000000000000000000000000000000000000000000000082101515614940576040517f08c379a00000000000000000000000000000000000000000000000000000000081526004016149379061660e565b60405180910390fd5b819050614948565b919050565b6040518061026001604052806060815260200160608152602001606081526020016060815260200160608152602001600073ffffffffffffffffffffffffffffffffffffffff168152602001600065ffffffffffff168152602001600065ffffffffffff16815260200160006fffffffffffffffffffffffffffffffff168152602001600065ffffffffffff168152602001600065ffffffffffff16815260200160001515815260200160001515815260200160006fffffffffffffffffffffffffffffffff16815260200160006fffffffffffffffffffffffffffffffff16815260200160006007811115614a6c577f4e487b7100000000000000000000000000000000000000000000000000000000600052602160045260246000fd5b8152602001614a79614c65565b815260200160008152602001600081526020015090565b828054828255906000526020600020908101928215614b09579160200282015b82811115614b085782518260006101000a81548173ffffffffffffffffffffffffffffffffffffffff021916908373ffffffffffffffffffffffffffffffffffffffff16021790555091602001919060010190614ab0565b5b509050614b169190614caf565b5090565b828054828255906000526020600020908101928215614b69579160200282015b82811115614b68578251829080519060200190614b58929190614bda565b5091602001919060010190614b3a565b5b509050614b769190614cd2565b5090565b828054828255906000526020600020908101928215614bc9579160200282015b82811115614bc8578251829080519060200190614bb8929190614cfa565b5091602001919060010190614b9a565b5b509050614bd69190614d85565b5090565b828054614be690616885565b90600052602060002090601f016020900481019282614c085760008555614c54565b82601f10614c2157805160ff1916838001178555614c54565b82800160010185558215614c54579182015b82811115614c535782518260005090905591602001919060010190614c33565b5b509050614c619190614caf565b5090565b6040518060800160405280600015158152602001600015158152602001600015158152602001600076ffffffffffffffffffffffffffffffffffffffffffffff1681526020015090565b614cb4565b80821115614cce5760008181506000905550600101614cb4565b5090565b614cd7565b80821115614cf65760008181614ced9190614dad565b50600101614cd7565b5090565b828054614d0690616885565b90600052602060002090601f016020900481019282614d285760008555614d74565b82601f10614d4157805160ff1916838001178555614d74565b82800160010185558215614d74579182015b82811115614d735782518260005090905591602001919060010190614d53565b5b509050614d819190614caf565b5090565b614d8a565b80821115614da95760008181614da09190614ded565b50600101614d8a565b5090565b508054614db990616885565b6000825580601f10614dcb5750614dea565b601f016020900490600052602060002090810190614de99190614caf565b5b50565b508054614df990616885565b6000825580601f10614e0b5750614e2a565b601f016020900490600052602060002090810190614e299190614caf565b5b50566169d7565b6000614e44614e3f84616752565b6166d1565b9050828152838383011115614e595760006000fd5b828260208301376000602084830101525b9392505050565b60008135905073ffffffffffffffffffffffffffffffffffffffff811681141515614e9c5760006000fd5b5b919050565b600082601f8301121515614eb4578081fd5b81356020614ec9614ec483616728565b6166d1565b80838252828201915082860187848660051b8901011115614ee8578586fd5b855b85811015614f1357614efb82614e71565b8452848401935084820191505b600181019050614eea565b5050809450505050505b92915050565b600082601f8301121515614f35578081fd5b81356020614f4a614f4583616728565b6166d1565b80838252828201915082860187848660051b8901011115614f69578586fd5b855b85811015614fc857813567ffffffffffffffff811115614f89578788fd5b808901905089603f8201121515614f9e578788fd5b614faf8a8783013560408401614e31565b855250848401935084820191505b600181019050614f6b565b5050809450505050505b92915050565b600082601f8301121515614fea578081fd5b81356020614fff614ffa83616728565b6166d1565b80838252828201915082860187848660051b890101111561501e578586fd5b855b8581101561506557813567ffffffffffffffff81111561503e578788fd5b61504c8a87838c0101615075565b855250848401935084820191505b600181019050615020565b5050809450505050505b92915050565b600082601f8301121515615087578081fd5b61509683833560208501614e31565b90505b92915050565b6000602082840312156150b0578081fd5b6150b982614e71565b90505b92915050565b6000600060006000600060a086880312156150db578081fd5b853567ffffffffffffffff808211156150f2578283fd5b6150fe89838a01614ea2565b96506020880135915080821115615113578283fd5b61511f89838a01614fd8565b95506040880135915080821115615134578283fd5b61514089838a01614f23565b94506060880135915080821115615155578283fd5b61516189838a01615075565b93506080880135915080821115615176578283fd5b5061518388828901615075565b9150505b9295509295909350565b60006000602083850312156151a4578182fd5b823567ffffffffffffffff808211156151bb578384fd5b818501915085601f83011215156151d0578384fd5b8135818111156151de578485fd5b8660208260051b85010111156151f2578485fd5b6020830194508093505050505b9250929050565b600060208284031215615217578081fd5b8151615222816169ac565b809150505b92915050565b60006020828403121561523e578081fd5b815190505b92915050565b60006020828403121561525a578081fd5b815167ffffffffffffffff811115615270578182fd5b808301905083601f8201121515615285578182fd5b805161529861529382616752565b6166d1565b8181528560208385010111156152ac578384fd5b6152bd826020830160208601616850565b8093505050505b92915050565b6000602082840312156152db578081fd5b813590505b92915050565b6000602082840312156152f7578081fd5b815190505b92915050565b6000600060408385031215615315578182fd5b8235915061532560208401614e71565b90505b9250929050565b6000600060408385031215615342578182fd5b823591506020830135615354816169ac565b809150505b9250929050565b6000600060006000600060a08688031215615379578283fd5b85359450602086013561538b816169ac565b80945050604086013561539d816169c1565b8093505060608601359150608086013590505b9295509295909350565b6000602082840312156153cb578081fd5b81516153d6816169c1565b809150505b92915050565b73ffffffffffffffffffffffffffffffffffffffff8116825250505b565b6000815180845260208085019450808401835b8381101561544a5773ffffffffffffffffffffffffffffffffffffffff8251168752828701965082820191505b600181019050615412565b505050508290505b92915050565b600081518084526020808501808196508360051b81019150828601855b858110156154a557828403895261548d8483516154bf565b9350848201915084890198505b600181019050615475565b5050508093505050505b92915050565b801515825250505b565b600081518084526154d7816020860160208601616850565b60207fffffffffffffffffffffffffffffffffffffffffffffffffffffffffffffffe0601f8301168501019150505b92915050565b6000815461551981616885565b8085526020600180841660008114615538576001811461556a5761559f565b7fffffffffffffffffffffffffffffffffffffffffffffffffffffffffffffff0085168389015260408801955061559f565b866000528260002060005b8581101561559557815485828c01015283820191505b8481019050615575565b84818b0101975050505b50505050505b92915050565b6008811015156155e4577f4e487b7100000000000000000000000000000000000000000000000000000000600052602160045260246000fd5b80825250505b565b80511515825260208101511515602083015260408101511515604083015276ffffffffffffffffffffffffffffffffffffffffffffff606082015116606083015250505b565b6fffffffffffffffffffffffffffffffff8116825250505b565b65ffffffffffff8116825250505b565b600080835461566a81616885565b60018083166000811461568457600181146156b3576156e4565b7fffffffffffffffffffffffffffffffffffffffffffffffffffffffffffffff008416875282870194506156e4565b8786526020808720875b858110156156db578154818b015284820191505b82810190506156bd565b50505082870194505b50505050809150505b92915050565b7f1901000000000000000000000000000000000000000000000000000000000000815282600282015281602282015260006042820190505b9392505050565b600060208201905073ffffffffffffffffffffffffffffffffffffffff831682525b92915050565b73ffffffffffffffffffffffffffffffffffffffff8316815260406020820152600061578960408301846154bf565b90505b9392505050565b73ffffffffffffffffffffffffffffffffffffffff851681526080602082015260006157c260808301866154bf565b82810360408401526157d481866154bf565b9150508260608301525b95945050505050565b73ffffffffffffffffffffffffffffffffffffffff85168152608060208201526000615816608083018661550c565b8281036040840152615828818661550c565b91505065ffffffffffff831660608301525b95945050505050565b600060408201905073ffffffffffffffffffffffffffffffffffffffff841682528260208301525b9392505050565b600060408201905073ffffffffffffffffffffffffffffffffffffffff8416825265ffffffffffff831660208301525b9392505050565b6060815260006158bc60608301866153ff565b82810360208401526158ce8186615458565b905082810360408401526158e28185615458565b9150505b949350505050565b60006020808301818452808551808352604092508286019150828160051b870101848801865b83811015615aee577fffffffffffffffffffffffffffffffffffffffffffffffffffffffffffffffc089840301855281516102c08151818652615959828701826153ff565b915050888201518582038a8701526159718282615458565b91505087820151858203898701526159898282615458565b915050606080830151868303828801526159a383826154bf565b92505050608080830151868303828801526159be83826154bf565b9250505060a0808301516159d4828801826153e1565b505060c0808301516159e88288018261564c565b505060e0808301516159fc8288018261564c565b505061010080830151615a1182880182615632565b505061012080830151615a268288018261564c565b505061014080830151615a3b8288018261564c565b505061016080830151615a50828801826154b5565b505061018080830151615a65828801826154b5565b50506101a080830151615a7a82880182615632565b50506101c080830151615a8f82880182615632565b50506101e080830151615aa4828801826155ab565b505061020080830151615ab9828801826155ec565b50506102208201516102808601526102408201516102a08601528094505050868201915086850194505b600181019050615914565b505080955050505050505b92915050565b60006020820190508282525b92915050565b600060808201905085825284602083015283604083015273ffffffffffffffffffffffffffffffffffffffff831660608301525b95945050505050565b600060608201905084825283602083015282151560408301525b949350505050565b600060808201905085825260ff851660208301528360408301528260608301525b95945050505050565b600060208201905073ffffffffffffffffffffffffffffffffffffffff831682525b92915050565b600060208201905073ffffffffffffffffffffffffffffffffffffffff831682525b92915050565b600060208201905073ffffffffffffffffffffffffffffffffffffffff831682525b92915050565b6000602082019050615c2482846155ab565b5b92915050565b602081526000615c3e60208301846154bf565b90505b92915050565b61018081526000615c5c61018083018f6154bf565b8281036020840152615c6e818f6154bf565b91505073ffffffffffffffffffffffffffffffffffffffff8c16604083015265ffffffffffff808c166060840152808b166080840152506fffffffffffffffffffffffffffffffff891660a0830152615cca60c083018961564c565b615cd760e083018861564c565b615ce56101008301876154b5565b615cf36101208301866154b5565b615d01610140830185615632565b615d0f610160830184615632565b5b9d9c50505050505050505050505050565b60208152604460208201527f476f7665726e6f72416c7068613a3a71756575653a2070726f706f73616c206360408201527f616e206f6e6c792062652071756575656420696620697420697320737563636560608201527f65646564000000000000000000000000000000000000000000000000000000006080820152600060a0820190505b919050565b60208152604560208201527f476f7665726e6f72416c7068613a3a657865637574653a2070726f706f73616c60408201527f2063616e206f6e6c79206265206578656375746564206966206974206973207160608201527f75657565640000000000000000000000000000000000000000000000000000006080820152600060a0820190505b919050565b60208152601560208201527f50726f706f73616c206e6f7420636f6d706c6574650000000000000000000000604082015260006060820190505b919050565b60208152601060208201527f4578636565647320313238206269747300000000000000000000000000000000604082015260006060820190505b919050565b60208152602960208201527f476f7665726e6f72416c7068613a3a73746174653a20696e76616c696420707260408201527f6f706f73616c2069640000000000000000000000000000000000000000000000606082015260006080820190505b919050565b60208152600d60208201527f486173206e6f7420766f74656400000000000000000000000000000000000000604082015260006060820190505b919050565b60208152600e60208201527f4e6f7420417574686f72697a6564000000000000000000000000000000000000604082015260006060820190505b919050565b60208152602d60208201527f476f7665726e6f72416c7068613a3a5f63617374566f74653a20766f7465722060408201527f616c726561647920766f74656400000000000000000000000000000000000000606082015260006080820190505b919050565b60208152605960208201527f476f7665726e6f72416c7068613a3a70726f706f73653a206f6e65206c69766560408201527f2070726f706f73616c207065722070726f706f7365722c20666f756e6420616e60608201527f20616c72656164792070656e64696e672070726f706f73616c000000000000006080820152600060a0820190505b919050565b60208152602860208201527f476f7665726e6f72416c7068613a3a70726f706f73653a20746f6f206d616e7960408201527f20616374696f6e73000000000000000000000000000000000000000000000000606082015260006080820190505b919050565b60208152601160208201527f6164646974696f6e206f766572666c6f77000000000000000000000000000000604082015260006060820190505b919050565b60208152604460208201527f476f7665726e6f72416c7068613a3a70726f706f73653a2070726f706f73616c60408201527f2066756e6374696f6e20696e666f726d6174696f6e206172697479206d69736d60608201527f61746368000000000000000000000000000000000000000000000000000000006080820152600060a0820190505b919050565b60208152602f60208201527f476f7665726e6f72416c7068613a3a63616e63656c3a2070726f706f7365722060408201527f61626f7665207468726573686f6c640000000000000000000000000000000000606082015260006080820190505b919050565b60208152601860208201527f5265776172647320616c72656164792072656365697665640000000000000000604082015260006060820190505b919050565b60208152604460208201527f476f7665726e6f72416c7068613a3a5f71756575654f725265766572743a207060408201527f726f706f73616c20616374696f6e20616c72656164792071756575656420617460608201527f20657461000000000000000000000000000000000000000000000000000000006080820152600060a0820190505b919050565b60208152602560208201527f43616e742063616e63656c20616674657220766f74696e6720697320636f6d7060408201527f6c65746564000000000000000000000000000000000000000000000000000000606082015260006080820190505b919050565b60208152602c60208201527f476f7665726e6f72416c7068613a3a70726f706f73653a206d7573742070726f60408201527f7669646520616374696f6e730000000000000000000000000000000000000000606082015260006080820190505b919050565b60208152603f60208201527f476f7665726e6f72416c7068613a3a70726f706f73653a2070726f706f73657260408201527f20766f7465732062656c6f772070726f706f73616c207468726573686f6c6400606082015260006080820190505b919050565b60208152602f60208201527f476f7665726e6f72416c7068613a3a63617374566f746542795369673a20696e60408201527f76616c6964207369676e61747572650000000000000000000000000000000000606082015260006080820190505b919050565b60208152605860208201527f476f7665726e6f72416c7068613a3a70726f706f73653a206f6e65206c69766560408201527f2070726f706f73616c207065722070726f706f7365722c20666f756e6420616e60608201527f20616c7265616479206163746976652070726f706f73616c00000000000000006080820152600060a0820190505b919050565b60208152600f60208201527f4578636565647320343820626974730000000000000000000000000000000000604082015260006060820190505b919050565b60208152603660208201527f476f7665726e6f72416c7068613a3a63616e63656c3a2063616e6e6f7420636160408201527f6e63656c2065786563757465642070726f706f73616c00000000000000000000606082015260006080820190505b919050565b60208152602a60208201527f476f7665726e6f72416c7068613a3a5f63617374566f74653a20766f74696e6760408201527f20697320636c6f73656400000000000000000000000000000000000000000000606082015260006080820190505b919050565b60208152601060208201527f4578636565647320313834206269747300000000000000000000000000000000604082015260006060820190505b919050565b60208152601560208201527f7375627472616374696f6e20756e646572666c6f770000000000000000000000604082015260006060820190505b919050565b600060808201905061669e82846155ec565b5b92915050565b60006020820190508282525b92915050565b600060208201905065ffffffffffff831682525b92915050565b600060405190507fffffffffffffffffffffffffffffffffffffffffffffffffffffffffffffffe0601f830116810181811067ffffffffffffffff8211171561671d5761671c61697b565b5b80604052505b919050565b600067ffffffffffffffff8211156167435761674261697b565b5b60208260051b0190505b919050565b600067ffffffffffffffff82111561676d5761676c61697b565b5b60207fffffffffffffffffffffffffffffffffffffffffffffffffffffffffffffffe0601f8401160190505b919050565b600082198211156167b2576167b161694a565b5b82820190505b92915050565b600065ffffffffffff8083168185168083038211156167e0576167df61694a565b5b80820193505050505b92915050565b6000821515616825577f4e487b710000000000000000000000000000000000000000000000000000000081526012600452602481fd5b82820490505b92915050565b6000828210156168445761684361694a565b5b82820390505b92915050565b60005b8381101561686f5780820151818401525b602081019050616853565b8381111561687e576000848401525b505050505b565b60008160011c90506001821680151561689f57607f821691505b602082108114156168d9577f4e487b7100000000000000000000000000000000000000000000000000000000600052602260045260246000fd5b505b919050565b60007fffffffffffffffffffffffffffffffffffffffffffffffffffffffffffffffff8214156169135761691261694a565b5b6001820190505b919050565b600065ffffffffffff8083168181141561693c5761693b61694a565b5b60018101925050505b919050565b7f4e487b7100000000000000000000000000000000000000000000000000000000600052601160045260246000fd5b565b7f4e487b7100000000000000000000000000000000000000000000000000000000600052604160045260246000fd5b565b801515811415156169bd5760006000fd5b505b565b60ff8116811415156169d35760006000fd5b505b565bfea264697066735822122020bfc8b32af879a0ccdb93f32bf38abc4b8ad2a955887f7a0bad7b1795ca432a64736f6c63430008040033",
  "linkReferences": {},
  "deployedLinkReferences": {}
}