{
  "_format": "hh-sol-artifact-1",
  "contractName": "TcpGovernorAlpha",
  "sourceName": "contracts/core/governance/TcpGovernorAlpha.sol",
  "abi": [
    {
      "inputs": [
        {
          "components": [
            {
              "internalType": "address",
              "name": "TcpTimelock",
              "type": "address"
            },
            {
              "internalType": "address",
              "name": "Tcp",
              "type": "address"
            },
            {
              "internalType": "address",
              "name": "Guardian",
              "type": "address"
            },
            {
              "internalType": "uint48",
              "name": "VoteBlockCount",
              "type": "uint48"
            },
            {
              "internalType": "address",
              "name": "Governor",
              "type": "address"
            }
          ],
          "internalType": "struct TcpGovernorAlpha.ConstructorParams",
          "name": "params",
          "type": "tuple"
        }
      ],
      "stateMutability": "nonpayable",
      "type": "constructor"
    },
    {
      "anonymous": false,
      "inputs": [
        {
          "indexed": true,
          "internalType": "uint256",
          "name": "id",
          "type": "uint256"
        }
      ],
      "name": "ProposalCanceled",
      "type": "event"
    },
    {
      "anonymous": false,
      "inputs": [
        {
          "indexed": true,
          "internalType": "uint256",
          "name": "id",
          "type": "uint256"
        },
        {
          "indexed": true,
          "internalType": "address",
          "name": "proposer",
          "type": "address"
        }
      ],
      "name": "ProposalCreated",
      "type": "event"
    },
    {
      "anonymous": false,
      "inputs": [
        {
          "indexed": true,
          "internalType": "uint256",
          "name": "id",
          "type": "uint256"
        }
      ],
      "name": "ProposalExecuted",
      "type": "event"
    },
    {
      "anonymous": false,
      "inputs": [
        {
          "indexed": true,
          "internalType": "uint256",
          "name": "id",
          "type": "uint256"
        },
        {
          "indexed": false,
          "internalType": "uint256",
          "name": "eta",
          "type": "uint256"
        }
      ],
      "name": "ProposalQueued",
      "type": "event"
    },
    {
      "anonymous": false,
      "inputs": [
        {
          "indexed": true,
          "internalType": "address",
          "name": "voter",
          "type": "address"
        },
        {
          "indexed": true,
          "internalType": "uint256",
          "name": "proposalId",
          "type": "uint256"
        },
        {
          "indexed": true,
          "internalType": "bool",
          "name": "support",
          "type": "bool"
        },
        {
          "indexed": false,
          "internalType": "uint256",
          "name": "votes",
          "type": "uint256"
        }
      ],
      "name": "VoteCast",
      "type": "event"
    },
    {
      "anonymous": false,
      "inputs": [
        {
          "indexed": true,
          "internalType": "address",
          "name": "voter",
          "type": "address"
        },
        {
          "indexed": false,
          "internalType": "uint256",
          "name": "count",
          "type": "uint256"
        }
      ],
      "name": "VotingRewardsDistributed",
      "type": "event"
    },
    {
      "inputs": [],
      "name": "BALLOT_TYPEHASH",
      "outputs": [
        {
          "internalType": "bytes32",
          "name": "",
          "type": "bytes32"
        }
      ],
      "stateMutability": "view",
      "type": "function"
    },
    {
      "inputs": [],
      "name": "DOMAIN_TYPEHASH",
      "outputs": [
        {
          "internalType": "bytes32",
          "name": "",
          "type": "bytes32"
        }
      ],
      "stateMutability": "view",
      "type": "function"
    },
    {
      "inputs": [],
      "name": "INFLATION_PERCENTAGE",
      "outputs": [
        {
          "internalType": "uint256",
          "name": "",
          "type": "uint256"
        }
      ],
      "stateMutability": "view",
      "type": "function"
    },
    {
      "inputs": [],
      "name": "__abdicate",
      "outputs": [],
      "stateMutability": "nonpayable",
      "type": "function"
    },
    {
      "inputs": [
        {
          "internalType": "uint256",
          "name": "proposalId",
          "type": "uint256"
        }
      ],
      "name": "cancel",
      "outputs": [],
      "stateMutability": "nonpayable",
      "type": "function"
    },
    {
      "inputs": [
        {
          "internalType": "uint256",
          "name": "proposalId",
          "type": "uint256"
        },
        {
          "internalType": "bool",
          "name": "support",
          "type": "bool"
        }
      ],
      "name": "castVote",
      "outputs": [],
      "stateMutability": "nonpayable",
      "type": "function"
    },
    {
      "inputs": [
        {
          "internalType": "uint256",
          "name": "proposalId",
          "type": "uint256"
        },
        {
          "internalType": "bool",
          "name": "support",
          "type": "bool"
        },
        {
          "internalType": "uint8",
          "name": "v",
          "type": "uint8"
        },
        {
          "internalType": "bytes32",
          "name": "r",
          "type": "bytes32"
        },
        {
          "internalType": "bytes32",
          "name": "s",
          "type": "bytes32"
        }
      ],
      "name": "castVoteBySig",
      "outputs": [],
      "stateMutability": "nonpayable",
      "type": "function"
    },
    {
      "inputs": [
        {
          "internalType": "uint256[]",
          "name": "proposalIDs",
          "type": "uint256[]"
        }
      ],
      "name": "claimVotingRewards",
      "outputs": [],
      "stateMutability": "nonpayable",
      "type": "function"
    },
    {
      "inputs": [
        {
          "internalType": "uint256",
          "name": "proposalID",
          "type": "uint256"
        },
        {
          "internalType": "address",
          "name": "voter",
          "type": "address"
        }
      ],
      "name": "countVotingRewards",
      "outputs": [
        {
          "internalType": "uint256",
          "name": "",
          "type": "uint256"
        }
      ],
      "stateMutability": "view",
      "type": "function"
    },
    {
      "inputs": [
        {
          "internalType": "uint256",
          "name": "proposalId",
          "type": "uint256"
        }
      ],
      "name": "execute",
      "outputs": [],
      "stateMutability": "nonpayable",
      "type": "function"
    },
    {
      "inputs": [
        {
          "internalType": "uint256",
          "name": "proposalId",
          "type": "uint256"
        }
      ],
      "name": "getActions",
      "outputs": [
        {
          "internalType": "address[]",
          "name": "targets",
          "type": "address[]"
        },
        {
          "internalType": "string[]",
          "name": "signatures",
          "type": "string[]"
        },
        {
          "internalType": "bytes[]",
          "name": "calldatas",
          "type": "bytes[]"
        }
      ],
      "stateMutability": "view",
      "type": "function"
    },
    {
      "inputs": [],
      "name": "getProposals",
      "outputs": [
        {
          "components": [
            {
              "internalType": "address[]",
              "name": "targets",
              "type": "address[]"
            },
            {
              "internalType": "string[]",
              "name": "signatures",
              "type": "string[]"
            },
            {
              "internalType": "bytes[]",
              "name": "calldatas",
              "type": "bytes[]"
            },
            {
              "internalType": "string",
              "name": "title",
              "type": "string"
            },
            {
              "internalType": "string",
              "name": "ipfsHash",
              "type": "string"
            },
            {
              "internalType": "address",
              "name": "proposer",
              "type": "address"
            },
            {
              "internalType": "uint48",
              "name": "eta",
              "type": "uint48"
            },
            {
              "internalType": "uint48",
              "name": "id",
              "type": "uint48"
            },
            {
              "internalType": "uint128",
              "name": "forVotes",
              "type": "uint128"
            },
            {
              "internalType": "uint48",
              "name": "startBlock",
              "type": "uint48"
            },
            {
              "internalType": "uint48",
              "name": "endBlock",
              "type": "uint48"
            },
            {
              "internalType": "bool",
              "name": "canceled",
              "type": "bool"
            },
            {
              "internalType": "bool",
              "name": "executed",
              "type": "bool"
            },
            {
              "internalType": "uint128",
              "name": "againstVotes",
              "type": "uint128"
            },
            {
              "internalType": "uint128",
              "name": "initialSupply",
              "type": "uint128"
            },
            {
              "internalType": "enum GovernorAlpha.ProposalState",
              "name": "state",
              "type": "uint8"
            }
          ],
          "internalType": "struct GovernorAlphaWithVotingRewards.ProposalInfo[]",
          "name": "proposalsInfo",
          "type": "tuple[]"
        }
      ],
      "stateMutability": "view",
      "type": "function"
    },
    {
      "inputs": [
        {
          "internalType": "address",
          "name": "voter",
          "type": "address"
        }
      ],
      "name": "getProposalsVoterInfo",
      "outputs": [
        {
          "components": [
            {
              "internalType": "uint48",
              "name": "id",
              "type": "uint48"
            },
            {
              "components": [
                {
                  "internalType": "bool",
                  "name": "hasVoted",
                  "type": "bool"
                },
                {
                  "internalType": "bool",
                  "name": "support",
                  "type": "bool"
                },
                {
                  "internalType": "bool",
                  "name": "rewardReceived",
                  "type": "bool"
                },
                {
                  "internalType": "uint184",
                  "name": "votes",
                  "type": "uint184"
                }
              ],
              "internalType": "struct GovernorAlpha.Receipt",
              "name": "receipt",
              "type": "tuple"
            },
            {
              "internalType": "uint256",
              "name": "votingPower",
              "type": "uint256"
            },
            {
              "internalType": "uint256",
              "name": "votingRewards",
              "type": "uint256"
            }
          ],
          "internalType": "struct GovernorAlphaWithVotingRewards.ProposalVoterInfo[]",
          "name": "proposalsVoterInfo",
          "type": "tuple[]"
        }
      ],
      "stateMutability": "view",
      "type": "function"
    },
    {
      "inputs": [
        {
          "internalType": "uint256",
          "name": "proposalId",
          "type": "uint256"
        },
        {
          "internalType": "address",
          "name": "voter",
          "type": "address"
        }
      ],
      "name": "getReceipt",
      "outputs": [
        {
          "components": [
            {
              "internalType": "bool",
              "name": "hasVoted",
              "type": "bool"
            },
            {
              "internalType": "bool",
              "name": "support",
              "type": "bool"
            },
            {
              "internalType": "bool",
              "name": "rewardReceived",
              "type": "bool"
            },
            {
              "internalType": "uint184",
              "name": "votes",
              "type": "uint184"
            }
          ],
          "internalType": "struct GovernorAlpha.Receipt",
          "name": "",
          "type": "tuple"
        }
      ],
      "stateMutability": "view",
      "type": "function"
    },
    {
      "inputs": [],
      "name": "governor",
      "outputs": [
        {
          "internalType": "contract IGovernor",
          "name": "",
          "type": "address"
        }
      ],
      "stateMutability": "view",
      "type": "function"
    },
    {
      "inputs": [],
      "name": "guardian",
      "outputs": [
        {
          "internalType": "address",
          "name": "",
          "type": "address"
        }
      ],
      "stateMutability": "view",
      "type": "function"
    },
    {
      "inputs": [],
      "name": "implementsVotingRewardsWithToken",
      "outputs": [
        {
          "internalType": "address",
          "name": "",
          "type": "address"
        }
      ],
      "stateMutability": "view",
      "type": "function"
    },
    {
      "inputs": [
        {
          "internalType": "address",
          "name": "",
          "type": "address"
        }
      ],
      "name": "latestProposalIds",
      "outputs": [
        {
          "internalType": "uint256",
          "name": "",
          "type": "uint256"
        }
      ],
      "stateMutability": "view",
      "type": "function"
    },
    {
      "inputs": [],
      "name": "name",
      "outputs": [
        {
          "internalType": "string",
          "name": "",
          "type": "string"
        }
      ],
      "stateMutability": "view",
      "type": "function"
    },
    {
      "inputs": [],
      "name": "proposalCount",
      "outputs": [
        {
          "internalType": "uint48",
          "name": "",
          "type": "uint48"
        }
      ],
      "stateMutability": "view",
      "type": "function"
    },
    {
      "inputs": [],
      "name": "proposalMaxOperations",
      "outputs": [
        {
          "internalType": "uint256",
          "name": "",
          "type": "uint256"
        }
      ],
      "stateMutability": "pure",
      "type": "function"
    },
    {
      "inputs": [],
      "name": "proposalThreshold",
      "outputs": [
        {
          "internalType": "uint256",
          "name": "",
          "type": "uint256"
        }
      ],
      "stateMutability": "view",
      "type": "function"
    },
    {
      "inputs": [
        {
          "internalType": "uint256",
          "name": "",
          "type": "uint256"
        }
      ],
      "name": "proposals",
      "outputs": [
        {
          "internalType": "string",
          "name": "title",
          "type": "string"
        },
        {
          "internalType": "string",
          "name": "ipfsHash",
          "type": "string"
        },
        {
          "internalType": "address",
          "name": "proposer",
          "type": "address"
        },
        {
          "internalType": "uint48",
          "name": "eta",
          "type": "uint48"
        },
        {
          "internalType": "uint48",
          "name": "id",
          "type": "uint48"
        },
        {
          "internalType": "uint128",
          "name": "forVotes",
          "type": "uint128"
        },
        {
          "internalType": "uint48",
          "name": "startBlock",
          "type": "uint48"
        },
        {
          "internalType": "uint48",
          "name": "endBlock",
          "type": "uint48"
        },
        {
          "internalType": "bool",
          "name": "canceled",
          "type": "bool"
        },
        {
          "internalType": "bool",
          "name": "executed",
          "type": "bool"
        },
        {
          "internalType": "uint128",
          "name": "againstVotes",
          "type": "uint128"
        },
        {
          "internalType": "uint128",
          "name": "initialSupply",
          "type": "uint128"
        }
      ],
      "stateMutability": "view",
      "type": "function"
    },
    {
      "inputs": [
        {
          "internalType": "address[]",
          "name": "targets",
          "type": "address[]"
        },
        {
          "internalType": "string[]",
          "name": "signatures",
          "type": "string[]"
        },
        {
          "internalType": "bytes[]",
          "name": "calldatas",
          "type": "bytes[]"
        },
        {
          "internalType": "string",
          "name": "title",
          "type": "string"
        },
        {
          "internalType": "string",
          "name": "ipfsHash",
          "type": "string"
        }
      ],
      "name": "propose",
      "outputs": [
        {
          "internalType": "uint256",
          "name": "",
          "type": "uint256"
        }
      ],
      "stateMutability": "nonpayable",
      "type": "function"
    },
    {
      "inputs": [
        {
          "internalType": "uint256",
          "name": "proposalId",
          "type": "uint256"
        }
      ],
      "name": "queue",
      "outputs": [],
      "stateMutability": "nonpayable",
      "type": "function"
    },
    {
      "inputs": [],
      "name": "quorumVotes",
      "outputs": [
        {
          "internalType": "uint256",
          "name": "",
          "type": "uint256"
        }
      ],
      "stateMutability": "view",
      "type": "function"
    },
    {
      "inputs": [
        {
          "internalType": "uint256",
          "name": "proposalId",
          "type": "uint256"
        }
      ],
      "name": "state",
      "outputs": [
        {
          "internalType": "enum GovernorAlpha.ProposalState",
          "name": "",
          "type": "uint8"
        }
      ],
      "stateMutability": "view",
      "type": "function"
    },
    {
      "inputs": [],
      "name": "timelock",
      "outputs": [
        {
          "internalType": "contract TimelockInterface",
          "name": "",
          "type": "address"
        }
      ],
      "stateMutability": "view",
      "type": "function"
    },
    {
      "inputs": [],
      "name": "votingDelay",
      "outputs": [
        {
          "internalType": "uint256",
          "name": "",
          "type": "uint256"
        }
      ],
      "stateMutability": "pure",
      "type": "function"
    },
    {
      "inputs": [],
      "name": "votingPeriod",
      "outputs": [
        {
          "internalType": "uint256",
          "name": "",
          "type": "uint256"
        }
      ],
      "stateMutability": "view",
      "type": "function"
    },
    {
      "inputs": [],
      "name": "votingPeriodBlocks",
      "outputs": [
        {
          "internalType": "uint48",
          "name": "",
          "type": "uint48"
        }
      ],
      "stateMutability": "view",
      "type": "function"
    },
    {
      "inputs": [],
      "name": "votingToken",
      "outputs": [
        {
          "internalType": "contract VotingTokenInterface",
          "name": "",
          "type": "address"
        }
      ],
      "stateMutability": "view",
      "type": "function"
    }
  ],
  "bytecode": "0x610100604052348015620000135760006000fd5b506040516200772438038062007724833981810160405281019062000039919062000380565b5b6040518060400160405280601281526020017f54435020476f7665726e6f7220416c706861000000000000000000000000000081526020015081600001518260200151836040015184606001515b84848484845b8460006000509080519060200190620000a99291906200029a565b50600073ffffffffffffffffffffffffffffffffffffffff168473ffffffffffffffffffffffffffffffffffffffff1614158015620001155750600073ffffffffffffffffffffffffffffffffffffffff168373ffffffffffffffffffffffffffffffffffffffff1614155b80156200014f5750600073ffffffffffffffffffffffffffffffffffffffff168273ffffffffffffffffffffffffffffffffffffffff1614155b15156200015c5760006000fd5b8373ffffffffffffffffffffffffffffffffffffffff1660808173ffffffffffffffffffffffffffffffffffffffff1660601b815260140150508273ffffffffffffffffffffffffffffffffffffffff1660c08173ffffffffffffffffffffffffffffffffffffffff1660601b8152601401505081600160006101000a81548173ffffffffffffffffffffffffffffffffffffffff021916908373ffffffffffffffffffffffffffffffffffffffff16021790555060008165ffffffffffff161115156200022a5760006000fd5b8065ffffffffffff1660a08165ffffffffffff1660d01b815260060150505b50505050505b5050505050806080015173ffffffffffffffffffffffffffffffffffffffff1660e08173ffffffffffffffffffffffffffffffffffffffff1660601b815260140150505b506200047e565b828054620002a89062000439565b90600052602060002090601f016020900481019282620002cc57600085556200031d565b82601f10620002e757805160ff19168380011785556200031d565b828001600101855582156200031d579182015b828111156200031c5782518260005090905591602001919060010190620002fa565b5b5090506200032c919062000330565b5090565b62000336565b8082111562000352576000818150600090555060010162000336565b5090566200047d565b6000815190506001600160a01b038116811415156200037a5760006000fd5b5b919050565b600060a0828403121562000392578081fd5b60405160a081018181106001600160401b0382111715620003c157634e487b7160e01b83526041600452602483fd5b8060405250620003d1836200035b565b8152620003e1602084016200035b565b6020820152620003f4604084016200035b565b6040820152606083015165ffffffffffff81168114151562000414578283fd5b8060608301525062000429608084016200035b565b6080820152809150505b92915050565b60008160011c9050600182168015156200045457607f821691505b602082108114156200047657634e487b7160e01b600052602260045260246000fd5b505b919050565b5b60805160601c60a05160d01c60c05160601c60e05160601c6171e26200054260003960008181610c1c015281816144a801528181614b270152614bd8015260008181610c9d015281816114c90152818161210601528181612b7301528181612b9e01528181612bea01528181612d090152818161333401526146d101526000818161088b0152612bc20152600081816112490152818161162301528181612cbd0152818161387001528181613e5301528181614d280152614e4101526171e26000f3fe60806040523480156100115760006000fd5b50600436106101f55760003560e01c80634761e20411610110578063c5b3116d116100a3578063ddf0b00911610072578063ddf0b009146105b2578063deaaa7cc146105ce578063e23a9a52146105ec578063fe0d94c11461061c576101f5565b8063c5b3116d14610516578063d33219b414610546578063da35c66414610564578063db11651114610582576101f5565b80637e90f9ab116100df5780637e90f9ab1461049e578063b0340123146104bc578063b24b7ffd146104da578063b58131b0146104f8576101f5565b80634761e2041461042857806362564c4814610458578063760fbc13146104765780637bdbe4d014610480576101f5565b806324bc1a64116101885780633e4f49e6116101575780633e4f49e6146103a257806340e58ee5146103d2578063452a9320146103ee5780634634c61f1461040c576101f5565b806324bc1a641461031657806329c0e5fd14610334578063328dd982146103525780633932abb114610384576101f5565b80630c340a24116101c45780630c340a241461028e57806315373e3d146102ac57806317977c61146102c857806320606b70146102f8576101f5565b8063013cf08b146101fb57806302a251a314610236578063062f14661461025457806306fdde0314610270576101f5565b60006000fd5b61021560048036038101906102109190615a4a565b610638565b60405161022d9c9b9a9998979695949392919061641b565b60405180910390f35b61023e610887565b60405161024b9190616e79565b60405180910390f35b61026e60048036038101906102699190615911565b6108bc565b005b610278610b89565b60405161028591906163ff565b60405180910390f35b610296610c1a565b6040516102a3919061636e565b60405180910390f35b6102c660048036038101906102c19190615aaf565b610c3e565b005b6102e260048036038101906102dd919061581f565b610c58565b6040516102ef9190616e79565b60405180910390f35b610300610c73565b60405161030d91906162d3565b60405180910390f35b61031e610c97565b60405161032b9190616e79565b60405180910390f35b61033c610d4f565b6040516103499190616e79565b60405180910390f35b61036c60048036038101906103679190615a4a565b610d5a565b60405161037b93929190616029565b60405180910390f35b61038c610fde565b6040516103999190616e79565b60405180910390f35b6103bc60048036038101906103b79190615a4a565b610fec565b6040516103c991906163e6565b60405180910390f35b6103ec60048036038101906103e79190615a4a565b61131f565b005b6103f661181b565b6040516104039190615eb2565b60405180910390f35b61042660048036038101906104219190615ae0565b611841565b005b610442600480360381019061043d919061581f565b611a12565b60405161044f9190616253565b60405180910390f35b61046061224b565b60405161046d919061606e565b60405180910390f35b61047e612acc565b005b610488612b61565b6040516104959190616e79565b60405180910390f35b6104a6612b6f565b6040516104b39190615eb2565b60405180910390f35b6104c4612b9c565b6040516104d191906163be565b60405180910390f35b6104e2612bc0565b6040516104ef9190616e8b565b60405180910390f35b610500612be4565b60405161050d9190616e79565b60405180910390f35b610530600480360381019061052b9190615a82565b612c9c565b60405161053d9190616e79565b60405180910390f35b61054e612cbb565b60405161055b9190616396565b60405180910390f35b61056c612cdf565b6040516105799190616e8b565b60405180910390f35b61059c60048036038101906105979190615842565b612cf7565b6040516105a99190616e79565b60405180910390f35b6105cc60048036038101906105c79190615a4a565b613788565b005b6105d6613beb565b6040516105e391906162d3565b60405180910390f35b61060660048036038101906106019190615a82565b613c0f565b6040516106139190616e60565b60405180910390f35b61063660048036038101906106319190615a4a565b613d3b565b005b600360005060205280600052604060002060009150905080600301600050805461066190617059565b80601f016020809104026020016040519081016040528092919081815260200182805461068d90617059565b80156106da5780601f106106af576101008083540402835291602001916106da565b820191906000526020600020905b8154815290600101906020018083116106bd57829003601f168201915b5050505050908060040160005080546106f290617059565b80601f016020809104026020016040519081016040528092919081815260200182805461071e90617059565b801561076b5780601f106107405761010080835404028352916020019161076b565b820191906000526020600020905b81548152906001019060200180831161074e57829003601f168201915b5050505050908060050160009054906101000a900473ffffffffffffffffffffffffffffffffffffffff16908060050160149054906101000a900465ffffffffffff169080600501601a9054906101000a900465ffffffffffff16908060060160009054906101000a90046fffffffffffffffffffffffffffffffff16908060060160109054906101000a900465ffffffffffff16908060060160169054906101000a900465ffffffffffff169080600601601c9054906101000a900460ff169080600601601d9054906101000a900460ff16908060070160009054906101000a90046fffffffffffffffffffffffffffffffff16908060070160109054906101000a90046fffffffffffffffffffffffffffffffff1690508c565b60007f000000000000000000000000000000000000000000000000000000000000000065ffffffffffff1690506108b9565b90565b600060006000600090505b84849050811015610b1957848482818110151561090d577f4e487b7100000000000000000000000000000000000000000000000000000000600052603260045260246000fd5b90506020020135915081506109278261407263ffffffff16565b1515610968576040517f08c379a000000000000000000000000000000000000000000000000000000000815260040161095f9061660b565b60405180910390fd5b6002600050600083815260200190815260200160002060005060003373ffffffffffffffffffffffffffffffffffffffff1673ffffffffffffffffffffffffffffffffffffffff16815260200190815260200160002060005060000160009054906101000a900460ff161515610a13576040517f08c379a0000000000000000000000000000000000000000000000000000000008152600401610a0a906166ee565b60405180910390fd5b60006002600050600084815260200190815260200160002060005060003373ffffffffffffffffffffffffffffffffffffffff1673ffffffffffffffffffffffffffffffffffffffff16815260200190815260200160002060005090508060000160029054906101000a900460ff16151515610ac4576040517f08c379a0000000000000000000000000000000000000000000000000000000008152600401610abb906169f0565b60405180910390fd5b60018160000160026101000a81548160ff021916908315150217905550610b0084610af5853361427a63ffffffff16565b61443563ffffffff16565b93508350505b8080610b11906170b4565b9150506108c7565b506000821115610b8257610b33338361449c63ffffffff16565b3373ffffffffffffffffffffffffffffffffffffffff167f56cd411799f8eaf36ff267057223a17836afa0a91a109fe7e102ef919e6fa19d83604051610b799190616e79565b60405180910390a25b50505b5050565b60006000508054610b9990617059565b80601f0160208091040260200160405190810160405280929190818152602001828054610bc590617059565b8015610c125780601f10610be757610100808354040283529160200191610c12565b820191906000526020600020905b815481529060010190602001808311610bf557829003601f168201915b505050505081565b7f000000000000000000000000000000000000000000000000000000000000000081565b610c4f33838361453b63ffffffff16565b610c54565b5050565b60046000506020528060005260406000206000915090505481565b7f8cad95687ba82c2ce50e74f7b754645e5117c3a5bec8151c0726d5857980a86681565b600060287f000000000000000000000000000000000000000000000000000000000000000073ffffffffffffffffffffffffffffffffffffffff166318160ddd6040518163ffffffff1660e01b815260040160206040518083038186803b158015610d025760006000fd5b505afa158015610d17573d600060003e3d6000fd5b505050506040513d601f19601f82011682018060405250810190610d3b9190615a66565b610d459190616fc3565b9050610d4c565b90565b6611c37937e0800081565b606060606060600060036000506000868152602001908152602001600020600050905080600001600050816001016000508260020160005082805480602002602001604051908101604052809291908181526020018280548015610e1357602002820191906000526020600020905b8160009054906101000a900473ffffffffffffffffffffffffffffffffffffffff1673ffffffffffffffffffffffffffffffffffffffff1681526020019060010190808311610dc9575b5050505050925081805480602002602001604051908101604052809291908181526020016000905b82821015610eec578382906000526020600020900160005b508054610e5f90617059565b80601f0160208091040260200160405190810160405280929190818152602001828054610e8b90617059565b8015610ed85780601f10610ead57610100808354040283529160200191610ed8565b820191906000526020600020905b815481529060010190602001808311610ebb57829003601f168201915b505050505081526020019060010190610e3b565b50505050915080805480602002602001604051908101604052809291908181526020016000905b82821015610fc4578382906000526020600020900160005b508054610f3790617059565b80601f0160208091040260200160405190810160405280929190818152602001828054610f6390617059565b8015610fb05780601f10610f8557610100808354040283529160200191610fb0565b820191906000526020600020905b815481529060010190602001808311610f9357829003601f168201915b505050505081526020019060010190610f13565b50505050905093509350935050610fd756505b9193909250565b600060019050610fe9565b90565b600081600160149054906101000a900465ffffffffffff1665ffffffffffff161015801561101a5750600082115b151561105b576040517f08c379a000000000000000000000000000000000000000000000000000000000815260040161105290616689565b60405180910390fd5b600060036000506000848152602001908152602001600020600050905080600601601c9054906101000a900460ff161561109d57600291505061131a56611318565b8060060160109054906101000a900465ffffffffffff1665ffffffffffff16431115156110d257600091505061131a56611317565b8060060160169054906101000a900465ffffffffffff1665ffffffffffff164311151561110757600191505061131a56611316565b8060070160009054906101000a90046fffffffffffffffffffffffffffffffff166fffffffffffffffffffffffffffffffff168160060160009054906101000a90046fffffffffffffffffffffffffffffffff166fffffffffffffffffffffffffffffffff161115806111b85750611183610c9763ffffffff16565b8160060160009054906101000a90046fffffffffffffffffffffffffffffffff166fffffffffffffffffffffffffffffffff16105b156111cb57600391505061131a56611315565b60008160050160149054906101000a900465ffffffffffff1665ffffffffffff16141561120057600491505061131a56611314565b80600601601d9054906101000a900460ff161561122557600791505061131a56611313565b6112f28160050160149054906101000a900465ffffffffffff1665ffffffffffff167f000000000000000000000000000000000000000000000000000000000000000073ffffffffffffffffffffffffffffffffffffffff1663c1a287e26040518163ffffffff1660e01b815260040160206040518083038186803b1580156112ae5760006000fd5b505afa1580156112c3573d600060003e3d6000fd5b505050506040513d601f19601f820116820180604052508101906112e79190615a66565b61443563ffffffff16565b4210151561130857600691505061131a56611312565b600591505061131a565b5b5b5b5b5b5b505b919050565b60076007811115611359577f4e487b7100000000000000000000000000000000000000000000000000000000600052602160045260246000fd5b61136882610fec63ffffffff16565b60078111156113a0577f4e487b7100000000000000000000000000000000000000000000000000000000600052602160045260246000fd5b141515156113e3576040517f08c379a00000000000000000000000000000000000000000000000000000000081526004016113da90616d18565b60405180910390fd5b60006003600050600083815260200190815260200160002060005090508060060160169054906101000a900465ffffffffffff1665ffffffffffff1643101515611462576040517f08c379a000000000000000000000000000000000000000000000000000000000815260040161145990616aba565b60405180910390fd5b600160009054906101000a900473ffffffffffffffffffffffffffffffffffffffff1673ffffffffffffffffffffffffffffffffffffffff163373ffffffffffffffffffffffffffffffffffffffff1614806115aa57506114c7612be463ffffffff16565b7f000000000000000000000000000000000000000000000000000000000000000073ffffffffffffffffffffffffffffffffffffffff1663782d6fe18360050160009054906101000a900473ffffffffffffffffffffffffffffffffffffffff16611539436001614a6a63ffffffff16565b6040518363ffffffff1660e01b8152600401611556929190615fc3565b60206040518083038186803b15801561156f5760006000fd5b505afa158015611584573d600060003e3d6000fd5b505050506040513d601f19601f820116820180604052508101906115a89190615a66565b105b15156115eb576040517f08c379a00000000000000000000000000000000000000000000000000000000081526004016115e29061698b565b60405180910390fd5b600181600601601c6101000a81548160ff0219169083151502179055506000600090505b81600001600050805490508110156117e8577f000000000000000000000000000000000000000000000000000000000000000073ffffffffffffffffffffffffffffffffffffffff16624b1f12836000016000508381548110151561169d577f4e487b7100000000000000000000000000000000000000000000000000000000600052603260045260246000fd5b906000526020600020900160005b9054906101000a900473ffffffffffffffffffffffffffffffffffffffff16846001016000508481548110151561170b577f4e487b7100000000000000000000000000000000000000000000000000000000600052603260045260246000fd5b906000526020600020900160005b50856002016000508581548110151561175b577f4e487b7100000000000000000000000000000000000000000000000000000000600052603260045260246000fd5b906000526020600020900160005b508660050160149054906101000a900465ffffffffffff166040518563ffffffff1660e01b81526004016117a09493929190615f67565b600060405180830381600087803b1580156117bb5760006000fd5b505af11580156117d0573d600060003e3d6000fd5b505050505b80806117e0906170b4565b91505061160f565b50817f789cf55be980739dad1d0699b93b58e806b51c9d96619bfa8fe0a28abaa7b30c60405160405180910390a2505b50565b600160009054906101000a900473ffffffffffffffffffffffffffffffffffffffff1681565b60007f8cad95687ba82c2ce50e74f7b754645e5117c3a5bec8151c0726d5857980a86660006000506040516118769190615ddc565b6040518091039020463060405160200161189394939291906162e5565b60405160208183030381529060405280519060200120905060007f8e25870c07e0b0b3884c78da52790939a455c275406c44ae8b434b692fb916ee87876040516020016118e293929190616322565b6040516020818303038152906040528051906020012090506000828260405160200161190f929190615e73565b60405160208183030381529060405280519060200120905060006001828888886040516000815260200160405260405161194c9493929190616344565b6020604051602081039080840390855afa15801561196f573d600060003e3d6000fd5b505050602060405103519050600073ffffffffffffffffffffffffffffffffffffffff168173ffffffffffffffffffffffffffffffffffffffff16141515156119ed576040517f08c379a00000000000000000000000000000000000000000000000000000000081526004016119e490616be9565b60405180910390fd5b6119fe818a8a61453b63ffffffff16565b50505050611a0b56505050505b5050505050565b6060600160149054906101000a900465ffffffffffff1665ffffffffffff1667ffffffffffffffff811115611a70577f4e487b7100000000000000000000000000000000000000000000000000000000600052604160045260246000fd5b604051908082528060200260200182016040528015611aa957816020015b611a966150af565b815260200190600190039081611a8e5790505b50905080506000600090505b600160149054906101000a900465ffffffffffff1665ffffffffffff168165ffffffffffff16101561223d576000600182611af09190616f92565b65ffffffffffff169050600060036000506000838152602001908152602001600020600050604051806101e001604052908160008201600050805480602002602001604051908101604052809291908181526020018280548015611ba957602002820191906000526020600020905b8160009054906101000a900473ffffffffffffffffffffffffffffffffffffffff1673ffffffffffffffffffffffffffffffffffffffff1681526020019060010190808311611b5f575b5050505050815260200160018201600050805480602002602001604051908101604052809291908181526020016000905b82821015611c8b578382906000526020600020900160005b508054611bfe90617059565b80601f0160208091040260200160405190810160405280929190818152602001828054611c2a90617059565b8015611c775780601f10611c4c57610100808354040283529160200191611c77565b820191906000526020600020905b815481529060010190602001808311611c5a57829003601f168201915b505050505081526020019060010190611bda565b50505050815260200160028201600050805480602002602001604051908101604052809291908181526020016000905b82821015611d6c578382906000526020600020900160005b508054611cdf90617059565b80601f0160208091040260200160405190810160405280929190818152602001828054611d0b90617059565b8015611d585780601f10611d2d57610100808354040283529160200191611d58565b820191906000526020600020905b815481529060010190602001808311611d3b57829003601f168201915b505050505081526020019060010190611cbb565b505050508152602001600382016000508054611d8790617059565b80601f0160208091040260200160405190810160405280929190818152602001828054611db390617059565b8015611e005780601f10611dd557610100808354040283529160200191611e00565b820191906000526020600020905b815481529060010190602001808311611de357829003601f168201915b50505050508152602001600482016000508054611e1c90617059565b80601f0160208091040260200160405190810160405280929190818152602001828054611e4890617059565b8015611e955780601f10611e6a57610100808354040283529160200191611e95565b820191906000526020600020905b815481529060010190602001808311611e7857829003601f168201915b505050505081526020016005820160009054906101000a900473ffffffffffffffffffffffffffffffffffffffff1673ffffffffffffffffffffffffffffffffffffffff1673ffffffffffffffffffffffffffffffffffffffff1681526020016005820160149054906101000a900465ffffffffffff1665ffffffffffff1665ffffffffffff16815260200160058201601a9054906101000a900465ffffffffffff1665ffffffffffff1665ffffffffffff1681526020016006820160009054906101000a90046fffffffffffffffffffffffffffffffff166fffffffffffffffffffffffffffffffff166fffffffffffffffffffffffffffffffff1681526020016006820160109054906101000a900465ffffffffffff1665ffffffffffff1665ffffffffffff1681526020016006820160169054906101000a900465ffffffffffff1665ffffffffffff1665ffffffffffff16815260200160068201601c9054906101000a900460ff1615151515815260200160068201601d9054906101000a900460ff161515151581526020016007820160009054906101000a90046fffffffffffffffffffffffffffffffff166fffffffffffffffffffffffffffffffff166fffffffffffffffffffffffffffffffff1681526020016007820160109054906101000a90046fffffffffffffffffffffffffffffffff166fffffffffffffffffffffffffffffffff166fffffffffffffffffffffffffffffffff1681526020015050905060405180608001604052808260e0015165ffffffffffff1681526020016120ea8488613c0f63ffffffff16565b81526020014383610120015165ffffffffffff1610156121bb577f000000000000000000000000000000000000000000000000000000000000000073ffffffffffffffffffffffffffffffffffffffff1663782d6fe1888561012001516040518363ffffffff1660e01b8152600401612164929190615ff2565b60206040518083038186803b15801561217d5760006000fd5b505afa158015612192573d600060003e3d6000fd5b505050506040513d601f19601f820116820180604052508101906121b69190615a66565b6121be565b60005b81526020016121d3848861427a63ffffffff16565b815260200150848465ffffffffffff1681518110151561221c577f4e487b7100000000000000000000000000000000000000000000000000000000600052603260045260246000fd5b602002602001018190525050505b8080612235906170f3565b915050611ab5565b50809050612246565b919050565b6060600160149054906101000a900465ffffffffffff1665ffffffffffff1667ffffffffffffffff8111156122a9577f4e487b7100000000000000000000000000000000000000000000000000000000600052604160045260246000fd5b6040519080825280602002602001820160405280156122e257816020015b6122cf6150e8565b8152602001906001900390816122c75790505b50905080506000600090505b600160149054906101000a900465ffffffffffff1665ffffffffffff168165ffffffffffff161015612ac05760006001826123299190616f92565b65ffffffffffff169050600060036000506000838152602001908152602001600020600050604051806101e0016040529081600082016000508054806020026020016040519081016040528092919081815260200182805480156123e257602002820191906000526020600020905b8160009054906101000a900473ffffffffffffffffffffffffffffffffffffffff1673ffffffffffffffffffffffffffffffffffffffff1681526020019060010190808311612398575b5050505050815260200160018201600050805480602002602001604051908101604052809291908181526020016000905b828210156124c4578382906000526020600020900160005b50805461243790617059565b80601f016020809104026020016040519081016040528092919081815260200182805461246390617059565b80156124b05780601f10612485576101008083540402835291602001916124b0565b820191906000526020600020905b81548152906001019060200180831161249357829003601f168201915b505050505081526020019060010190612413565b50505050815260200160028201600050805480602002602001604051908101604052809291908181526020016000905b828210156125a5578382906000526020600020900160005b50805461251890617059565b80601f016020809104026020016040519081016040528092919081815260200182805461254490617059565b80156125915780601f1061256657610100808354040283529160200191612591565b820191906000526020600020905b81548152906001019060200180831161257457829003601f168201915b5050505050815260200190600101906124f4565b5050505081526020016003820160005080546125c090617059565b80601f01602080910402602001604051908101604052809291908181526020018280546125ec90617059565b80156126395780601f1061260e57610100808354040283529160200191612639565b820191906000526020600020905b81548152906001019060200180831161261c57829003601f168201915b5050505050815260200160048201600050805461265590617059565b80601f016020809104026020016040519081016040528092919081815260200182805461268190617059565b80156126ce5780601f106126a3576101008083540402835291602001916126ce565b820191906000526020600020905b8154815290600101906020018083116126b157829003601f168201915b505050505081526020016005820160009054906101000a900473ffffffffffffffffffffffffffffffffffffffff1673ffffffffffffffffffffffffffffffffffffffff1673ffffffffffffffffffffffffffffffffffffffff1681526020016005820160149054906101000a900465ffffffffffff1665ffffffffffff1665ffffffffffff16815260200160058201601a9054906101000a900465ffffffffffff1665ffffffffffff1665ffffffffffff1681526020016006820160009054906101000a90046fffffffffffffffffffffffffffffffff166fffffffffffffffffffffffffffffffff166fffffffffffffffffffffffffffffffff1681526020016006820160109054906101000a900465ffffffffffff1665ffffffffffff1665ffffffffffff1681526020016006820160169054906101000a900465ffffffffffff1665ffffffffffff1665ffffffffffff16815260200160068201601c9054906101000a900460ff1615151515815260200160068201601d9054906101000a900460ff161515151581526020016007820160009054906101000a90046fffffffffffffffffffffffffffffffff166fffffffffffffffffffffffffffffffff166fffffffffffffffffffffffffffffffff1681526020016007820160109054906101000a90046fffffffffffffffffffffffffffffffff166fffffffffffffffffffffffffffffffff166fffffffffffffffffffffffffffffffff1681526020015050905060405180610200016040528082600001518152602001826020015181526020018260400151815260200182606001518152602001826080015181526020018260a0015173ffffffffffffffffffffffffffffffffffffffff1681526020018260c0015165ffffffffffff1681526020018260e0015165ffffffffffff1681526020018261010001516fffffffffffffffffffffffffffffffff16815260200182610120015165ffffffffffff16815260200182610140015165ffffffffffff1681526020018261016001511515815260200182610180015115158152602001826101a001516fffffffffffffffffffffffffffffffff168152602001826101c001516fffffffffffffffffffffffffffffffff168152602001612a1e84610fec63ffffffff16565b6007811115612a56577f4e487b7100000000000000000000000000000000000000000000000000000000600052602160045260246000fd5b815260200150848465ffffffffffff16815181101515612a9f577f4e487b7100000000000000000000000000000000000000000000000000000000600052603260045260246000fd5b602002602001018190525050505b8080612ab8906170f3565b9150506122ee565b50809050612ac9565b90565b612adb33614aca63ffffffff16565b1515612b1c576040517f08c379a0000000000000000000000000000000000000000000000000000000008152600401612b139061672d565b60405180910390fd5b6000600160006101000a81548173ffffffffffffffffffffffffffffffffffffffff021916908373ffffffffffffffffffffffffffffffffffffffff1602179055505b565b6000600a9050612b6c565b90565b60007f00000000000000000000000000000000000000000000000000000000000000009050612b99565b90565b7f000000000000000000000000000000000000000000000000000000000000000081565b7f000000000000000000000000000000000000000000000000000000000000000081565b600060c87f000000000000000000000000000000000000000000000000000000000000000073ffffffffffffffffffffffffffffffffffffffff166318160ddd6040518163ffffffff1660e01b815260040160206040518083038186803b158015612c4f5760006000fd5b505afa158015612c64573d600060003e3d6000fd5b505050506040513d601f19601f82011682018060405250810190612c889190615a66565b612c929190616fc3565b9050612c99565b90565b6000612cae838361427a63ffffffff16565b9050612cb5565b92915050565b7f000000000000000000000000000000000000000000000000000000000000000081565b600160149054906101000a900465ffffffffffff1681565b6000612d07612be463ffffffff16565b7f000000000000000000000000000000000000000000000000000000000000000073ffffffffffffffffffffffffffffffffffffffff1663782d6fe133612d55436001614a6a63ffffffff16565b6040518363ffffffff1660e01b8152600401612d72929190615fc3565b60206040518083038186803b158015612d8b5760006000fd5b505afa158015612da0573d600060003e3d6000fd5b505050506040513d601f19601f82011682018060405250810190612dc49190615a66565b111515612e06576040517f08c379a0000000000000000000000000000000000000000000000000000000008152600401612dfd90616b84565b60405180910390fd5b84518651148015612e18575083518651145b1515612e59576040517f08c379a0000000000000000000000000000000000000000000000000000000008152600401612e5090616900565b60405180910390fd5b60008651111515612e9f576040517f08c379a0000000000000000000000000000000000000000000000000000000008152600401612e9690616b1f565b60405180910390fd5b612ead612b6163ffffffff16565b865111151515612ef2576040517f08c379a0000000000000000000000000000000000000000000000000000000008152600401612ee99061685c565b60405180910390fd5b6000600460005060003373ffffffffffffffffffffffffffffffffffffffff1673ffffffffffffffffffffffffffffffffffffffff16815260200190815260200160002060005054905060008111156130c6576000612f5682610fec63ffffffff16565b905060016007811115612f92577f4e487b7100000000000000000000000000000000000000000000000000000000600052602160045260246000fd5b816007811115612fcb577f4e487b7100000000000000000000000000000000000000000000000000000000600052602160045260246000fd5b1415151561300e576040517f08c379a000000000000000000000000000000000000000000000000000000000815260040161300590616c4e565b60405180910390fd5b60006007811115613048577f4e487b7100000000000000000000000000000000000000000000000000000000600052602160045260246000fd5b816007811115613081577f4e487b7100000000000000000000000000000000000000000000000000000000600052602160045260246000fd5b141515156130c4576040517f08c379a00000000000000000000000000000000000000000000000000000000081526004016130bb906167d1565b60405180910390fd5b505b6000600090505b865181101561317e5761316a8882815181101515613114577f4e487b7100000000000000000000000000000000000000000000000000000000600052603260045260246000fd5b60200260200101518883815181101515613157577f4e487b7100000000000000000000000000000000000000000000000000000000600052603260045260246000fd5b6020026020010151614bd663ffffffff16565b5b8080613176906170b4565b9150506130cd565b50600061319e43613193610fde63ffffffff16565b61443563ffffffff16565b905060006131bf826131b461088763ffffffff16565b61443563ffffffff16565b90506001601481819054906101000a900465ffffffffffff16809291906131e5906170f3565b91906101000a81548165ffffffffffff021916908365ffffffffffff160217905550506601000000000000600160149054906101000a900465ffffffffffff1665ffffffffffff1610151561323a5760006000fd5b6000604051806101e001604052808b81526020018a81526020018981526020018881526020018781526020013373ffffffffffffffffffffffffffffffffffffffff168152602001600065ffffffffffff168152602001600160149054906101000a900465ffffffffffff1665ffffffffffff16815260200160006fffffffffffffffffffffffffffffffff1681526020016132db85614c6863ffffffff16565b65ffffffffffff1681526020016132f784614c6863ffffffff16565b65ffffffffffff16815260200160001515815260200160001515815260200160006fffffffffffffffffffffffffffffffff1681526020016133dd7f000000000000000000000000000000000000000000000000000000000000000073ffffffffffffffffffffffffffffffffffffffff166318160ddd6040518163ffffffff1660e01b815260040160206040518083038186803b1580156133995760006000fd5b505afa1580156133ae573d600060003e3d6000fd5b505050506040513d601f19601f820116820180604052508101906133d29190615a66565b614cc263ffffffff16565b6fffffffffffffffffffffffffffffffff16815260200150905080600360005060008360e0015165ffffffffffff168152602001908152602001600020600050600082015181600001600050908051906020019061343c929190615210565b50602082015181600101600050908051906020019061345c92919061529a565b50604082015181600201600050908051906020019061347c9291906152fa565b50606082015181600301600050908051906020019061349c92919061535a565b5060808201518160040160005090805190602001906134bc92919061535a565b5060a08201518160050160006101000a81548173ffffffffffffffffffffffffffffffffffffffff021916908373ffffffffffffffffffffffffffffffffffffffff16021790555060c08201518160050160146101000a81548165ffffffffffff021916908365ffffffffffff16021790555060e082015181600501601a6101000a81548165ffffffffffff021916908365ffffffffffff1602179055506101008201518160060160006101000a8154816fffffffffffffffffffffffffffffffff02191690836fffffffffffffffffffffffffffffffff1602179055506101208201518160060160106101000a81548165ffffffffffff021916908365ffffffffffff1602179055506101408201518160060160166101000a81548165ffffffffffff021916908365ffffffffffff16021790555061016082015181600601601c6101000a81548160ff02191690831515021790555061018082015181600601601d6101000a81548160ff0219169083151502179055506101a08201518160070160006101000a8154816fffffffffffffffffffffffffffffffff02191690836fffffffffffffffffffffffffffffffff1602179055506101c08201518160070160106101000a8154816fffffffffffffffffffffffffffffffff02191690836fffffffffffffffffffffffffffffffff1602179055509050508060e0015165ffffffffffff16600460005060008360a0015173ffffffffffffffffffffffffffffffffffffffff1673ffffffffffffffffffffffffffffffffffffffff1681526020019081526020016000206000508190909055503373ffffffffffffffffffffffffffffffffffffffff168160e0015165ffffffffffff167fcd423cc1203c0af96b9b3d68d73b3064a69de2d14450bb7181c5e5df2132b35860405160405180910390a38060e0015165ffffffffffff1694505050505061377f56505050505b95945050505050565b600460078111156137c2577f4e487b7100000000000000000000000000000000000000000000000000000000600052602160045260246000fd5b6137d182610fec63ffffffff16565b6007811115613809577f4e487b7100000000000000000000000000000000000000000000000000000000600052602160045260246000fd5b14151561384b576040517f08c379a0000000000000000000000000000000000000000000000000000000008152600401613842906164f5565b60405180910390fd5b60006003600050600083815260200190815260200160002060005090506000613919427f000000000000000000000000000000000000000000000000000000000000000073ffffffffffffffffffffffffffffffffffffffff16636a42b8f86040518163ffffffff1660e01b815260040160206040518083038186803b1580156138d55760006000fd5b505afa1580156138ea573d600060003e3d6000fd5b505050506040513d601f19601f8201168201806040525081019061390e9190615a66565b61443563ffffffff16565b90506000600090505b8260000160005080549050811015613b7757613b638360000160005082815481101515613978577f4e487b7100000000000000000000000000000000000000000000000000000000600052603260045260246000fd5b906000526020600020900160005b9054906101000a900473ffffffffffffffffffffffffffffffffffffffff1684600101600050838154811015156139e6577f4e487b7100000000000000000000000000000000000000000000000000000000600052603260045260246000fd5b906000526020600020900160005b508054613a0090617059565b80601f0160208091040260200160405190810160405280929190818152602001828054613a2c90617059565b8015613a795780601f10613a4e57610100808354040283529160200191613a79565b820191906000526020600020905b815481529060010190602001808311613a5c57829003601f168201915b50505050508560020160005084815481101515613abf577f4e487b7100000000000000000000000000000000000000000000000000000000600052603260045260246000fd5b906000526020600020900160005b508054613ad990617059565b80601f0160208091040260200160405190810160405280929190818152602001828054613b0590617059565b8015613b525780601f10613b2757610100808354040283529160200191613b52565b820191906000526020600020905b815481529060010190602001808311613b3557829003601f168201915b505050505085614d2663ffffffff16565b5b8080613b6f906170b4565b915050613922565b50613b8781614c6863ffffffff16565b8260050160146101000a81548165ffffffffffff021916908365ffffffffffff160217905550827f9a2e42fd6722813d69113e7d0079d3d940171428df7373df9c7f7617cfda289282604051613bdd9190616e79565b60405180910390a250505b50565b7f8e25870c07e0b0b3884c78da52790939a455c275406c44ae8b434b692fb916ee81565b613c176153e5565b6002600050600084815260200190815260200160002060005060008373ffffffffffffffffffffffffffffffffffffffff1673ffffffffffffffffffffffffffffffffffffffff1681526020019081526020016000206000506040518060800160405290816000820160009054906101000a900460ff161515151581526020016000820160019054906101000a900460ff161515151581526020016000820160029054906101000a900460ff161515151581526020016000820160039054906101000a900476ffffffffffffffffffffffffffffffffffffffffffffff1676ffffffffffffffffffffffffffffffffffffffffffffff1676ffffffffffffffffffffffffffffffffffffffffffffff16815260200150509050613d35565b92915050565b60056007811115613d75577f4e487b7100000000000000000000000000000000000000000000000000000000600052602160045260246000fd5b613d8482610fec63ffffffff16565b6007811115613dbc577f4e487b7100000000000000000000000000000000000000000000000000000000600052602160045260246000fd5b141515613dfe576040517f08c379a0000000000000000000000000000000000000000000000000000000008152600401613df590616580565b60405180910390fd5b6000600360005060008381526020019081526020016000206000509050600181600601601d6101000a81548160ff0219169083151502179055506000600090505b816000016000508054905081101561403f577f000000000000000000000000000000000000000000000000000000000000000073ffffffffffffffffffffffffffffffffffffffff16633ec5ab328360000160005083815481101515613ece577f4e487b7100000000000000000000000000000000000000000000000000000000600052603260045260246000fd5b906000526020600020900160005b9054906101000a900473ffffffffffffffffffffffffffffffffffffffff168460010160005084815481101515613f3c577f4e487b7100000000000000000000000000000000000000000000000000000000600052603260045260246000fd5b906000526020600020900160005b508560020160005085815481101515613f8c577f4e487b7100000000000000000000000000000000000000000000000000000000600052603260045260246000fd5b906000526020600020900160005b508660050160149054906101000a900465ffffffffffff166040518563ffffffff1660e01b8152600401613fd19493929190615f67565b600060405180830381600087803b158015613fec5760006000fd5b505af1158015614001573d600060003e3d6000fd5b505050506040513d6000823e3d601f19601f8201168201806040525081019061402a91906159c9565b505b8080614037906170b4565b915050613e3f565b50817f712ae1383f79ac853f8d882153778e0260ef8f03b504e2866e0593e04d2b291f60405160405180910390a2505b50565b6000600061408583610fec63ffffffff16565b9050600460078111156140c1577f4e487b7100000000000000000000000000000000000000000000000000000000600052602160045260246000fd5b8160078111156140fa577f4e487b7100000000000000000000000000000000000000000000000000000000600052602160045260246000fd5b148061417657506003600781111561413b577f4e487b7100000000000000000000000000000000000000000000000000000000600052602160045260246000fd5b816007811115614174577f4e487b7100000000000000000000000000000000000000000000000000000000600052602160045260246000fd5b145b806141f15750600560078111156141b6577f4e487b7100000000000000000000000000000000000000000000000000000000600052602160045260246000fd5b8160078111156141ef577f4e487b7100000000000000000000000000000000000000000000000000000000600052602160045260246000fd5b145b8061426c575060076007811115614231577f4e487b7100000000000000000000000000000000000000000000000000000000600052602160045260246000fd5b81600781111561426a577f4e487b7100000000000000000000000000000000000000000000000000000000600052602160045260246000fd5b145b91505061427556505b919050565b60006000600360005060008581526020019081526020016000206000509050600061430f8260060160009054906101000a90046fffffffffffffffffffffffffffffffff166fffffffffffffffffffffffffffffffff168360070160009054906101000a90046fffffffffffffffffffffffffffffffff166fffffffffffffffffffffffffffffffff1661443563ffffffff16565b905060008114156143255760009250505061442f565b60006143736611c37937e080008460070160109054906101000a90046fffffffffffffffffffffffffffffffff166fffffffffffffffffffffffffffffffff16614efa90919063ffffffff16565b90506144226002600050600088815260200190815260200160002060005060008773ffffffffffffffffffffffffffffffffffffffff1673ffffffffffffffffffffffffffffffffffffffff16815260200190815260200160002060005060000160039054906101000a900476ffffffffffffffffffffffffffffffffffffffffffffff1676ffffffffffffffffffffffffffffffffffffffffffffff168383614f209092919063ffffffff16565b935050505061442f565050505b92915050565b6000600082846144459190616f72565b905083811015151561448c576040517f08c379a0000000000000000000000000000000000000000000000000000000008152600401614483906168c1565b60405180910390fd5b8091505061449656505b92915050565b600081141515614536577f000000000000000000000000000000000000000000000000000000000000000073ffffffffffffffffffffffffffffffffffffffff16630793298783836040518363ffffffff1660e01b8152600401614501929190615fc3565b600060405180830381600087803b15801561451c5760006000fd5b505af1158015614531573d600060003e3d6000fd5b505050505b5b5050565b60016007811115614575577f4e487b7100000000000000000000000000000000000000000000000000000000600052602160045260246000fd5b61458483610fec63ffffffff16565b60078111156145bc577f4e487b7100000000000000000000000000000000000000000000000000000000600052602160045260246000fd5b1415156145fe576040517f08c379a00000000000000000000000000000000000000000000000000000000081526004016145f590616d7d565b60405180910390fd5b6000600360005060008481526020019081526020016000206000509050600015156002600050600085815260200190815260200160002060005060008673ffffffffffffffffffffffffffffffffffffffff1673ffffffffffffffffffffffffffffffffffffffff16815260200190815260200160002060005060000160009054906101000a900460ff1615151415156146cd576040517f08c379a00000000000000000000000000000000000000000000000000000000081526004016146c49061676c565b60405180910390fd5b60007f000000000000000000000000000000000000000000000000000000000000000073ffffffffffffffffffffffffffffffffffffffff1663782d6fe1868460060160109054906101000a900465ffffffffffff166040518363ffffffff1660e01b8152600401614740929190615ff2565b60206040518083038186803b1580156147595760006000fd5b505afa15801561476e573d600060003e3d6000fd5b505050506040513d601f19601f820116820180604052508101906147929190615a66565b90508215614829576147ea6147df8360060160009054906101000a90046fffffffffffffffffffffffffffffffff166fffffffffffffffffffffffffffffffff168361443563ffffffff16565b614cc263ffffffff16565b8260060160006101000a8154816fffffffffffffffffffffffffffffffff02191690836fffffffffffffffffffffffffffffffff1602179055506148b4565b61487961486e8360070160009054906101000a90046fffffffffffffffffffffffffffffffff166fffffffffffffffffffffffffffffffff168361443563ffffffff16565b614cc263ffffffff16565b8260070160006101000a8154816fffffffffffffffffffffffffffffffff02191690836fffffffffffffffffffffffffffffffff1602179055505b604051806080016040528060011515815260200184151581526020016000151581526020016148e88361504463ffffffff16565b76ffffffffffffffffffffffffffffffffffffffffffffff168152602001506002600050600086815260200190815260200160002060005060008773ffffffffffffffffffffffffffffffffffffffff1673ffffffffffffffffffffffffffffffffffffffff16815260200190815260200160002060005060008201518160000160006101000a81548160ff02191690831515021790555060208201518160000160016101000a81548160ff02191690831515021790555060408201518160000160026101000a81548160ff02191690831515021790555060608201518160000160036101000a81548176ffffffffffffffffffffffffffffffffffffffffffffff021916908376ffffffffffffffffffffffffffffffffffffffffffffff160217905550905050821515848673ffffffffffffffffffffffffffffffffffffffff167f877856338e13f63d0c36822ff0ef736b80934cd90574a3a5bc9262c39d217c4684604051614a5a9190616e79565b60405180910390a450505b505050565b6000828211151515614ab1576040517f08c379a0000000000000000000000000000000000000000000000000000000008152600401614aa890616e21565b60405180910390fd5b8183614abd9190617005565b9050614ac4565b92915050565b6000600160009054906101000a900473ffffffffffffffffffffffffffffffffffffffff1673ffffffffffffffffffffffffffffffffffffffff168273ffffffffffffffffffffffffffffffffffffffff161480614bca575060017f000000000000000000000000000000000000000000000000000000000000000073ffffffffffffffffffffffffffffffffffffffff1663055ad42e6040518163ffffffff1660e01b815260040160206040518083038186803b158015614b8c5760006000fd5b505afa158015614ba1573d600060003e3d6000fd5b505050506040513d601f19601f82011682018060405250810190614bc59190615b3a565b60ff16115b9050614bd1565b919050565b7f000000000000000000000000000000000000000000000000000000000000000073ffffffffffffffffffffffffffffffffffffffff1663a43c36af83836040518363ffffffff1660e01b8152600401614c31929190615eda565b60006040518083038186803b158015614c4a5760006000fd5b505afa158015614c5f573d600060003e3d6000fd5b505050505b5050565b6000660100000000000082101515614cb5576040517f08c379a0000000000000000000000000000000000000000000000000000000008152600401614cac90616cd9565b60405180910390fd5b819050614cbd565b919050565b600070010000000000000000000000000000000082101515614d19576040517f08c379a0000000000000000000000000000000000000000000000000000000008152600401614d109061664a565b60405180910390fd5b819050614d21565b919050565b7f000000000000000000000000000000000000000000000000000000000000000073ffffffffffffffffffffffffffffffffffffffff1663f2b0653785858585604051602001614d799493929190615f13565b604051602081830303815290604052805190602001206040518263ffffffff1660e01b8152600401614dab91906162d3565b60206040518083038186803b158015614dc45760006000fd5b505afa158015614dd9573d600060003e3d6000fd5b505050506040513d601f19601f82011682018060405250810190614dfd9190615986565b151515614e3f576040517f08c379a0000000000000000000000000000000000000000000000000000000008152600401614e3690616a2f565b60405180910390fd5b7f000000000000000000000000000000000000000000000000000000000000000073ffffffffffffffffffffffffffffffffffffffff16630e70eace858585856040518563ffffffff1660e01b8152600401614e9e9493929190615f13565b602060405180830381600087803b158015614eb95760006000fd5b505af1158015614ece573d600060003e3d6000fd5b505050506040513d601f19601f82011682018060405250810190614ef291906159ad565b505b50505050565b6000614f158383670de0b6b3a7640000614f2063ffffffff16565b905080505b92915050565b6000600060006000198587098587029250828110838203039150506000811415614f6357600084111515614f545760006000fd5b8382049250829250505061503d565b8084111515614f725760006000fd5b60008486880990508281118203915080830392506000856001877fffffffffffffffffffffffffffffffffffffffffffffffffffffffffffffffff03011690508050808604955080840493506001818260000304019050808302841793508350600060028760030218905080870260020381029050805080870260020381029050805080870260020381029050805080870260020381029050805080870260020381029050805080870260020381029050805080850295508550508494505050505061503d56505050505b9392505050565b600077010000000000000000000000000000000000000000000000821015156150a2576040517f08c379a000000000000000000000000000000000000000000000000000000000815260040161509990616de2565b60405180910390fd5b8190506150aa565b919050565b6040518060800160405280600065ffffffffffff1681526020016150d16153e5565b815260200160008152602001600081526020015090565b6040518061020001604052806060815260200160608152602001606081526020016060815260200160608152602001600073ffffffffffffffffffffffffffffffffffffffff168152602001600065ffffffffffff168152602001600065ffffffffffff16815260200160006fffffffffffffffffffffffffffffffff168152602001600065ffffffffffff168152602001600065ffffffffffff16815260200160001515815260200160001515815260200160006fffffffffffffffffffffffffffffffff16815260200160006fffffffffffffffffffffffffffffffff16815260200160006007811115615207577f4e487b7100000000000000000000000000000000000000000000000000000000600052602160045260246000fd5b81526020015090565b828054828255906000526020600020908101928215615289579160200282015b828111156152885782518260006101000a81548173ffffffffffffffffffffffffffffffffffffffff021916908373ffffffffffffffffffffffffffffffffffffffff16021790555091602001919060010190615230565b5b509050615296919061542f565b5090565b8280548282559060005260206000209081019282156152e9579160200282015b828111156152e85782518290805190602001906152d892919061535a565b50916020019190600101906152ba565b5b5090506152f69190615452565b5090565b828054828255906000526020600020908101928215615349579160200282015b8281111561534857825182908051906020019061533892919061547a565b509160200191906001019061531a565b5b5090506153569190615505565b5090565b82805461536690617059565b90600052602060002090601f01602090048101928261538857600085556153d4565b82601f106153a157805160ff19168380011785556153d4565b828001600101855582156153d4579182015b828111156153d357825182600050909055916020019190600101906153b3565b5b5090506153e1919061542f565b5090565b6040518060800160405280600015158152602001600015158152602001600015158152602001600076ffffffffffffffffffffffffffffffffffffffffffffff1681526020015090565b615434565b8082111561544e5760008181506000905550600101615434565b5090565b615457565b80821115615476576000818161546d919061552d565b50600101615457565b5090565b82805461548690617059565b90600052602060002090601f0160209004810192826154a857600085556154f4565b82601f106154c157805160ff19168380011785556154f4565b828001600101855582156154f4579182015b828111156154f357825182600050909055916020019190600101906154d3565b5b509050615501919061542f565b5090565b61550a565b808211156155295760008181615520919061556d565b5060010161550a565b5090565b50805461553990617059565b6000825580601f1061554b575061556a565b601f016020900490600052602060002090810190615569919061542f565b5b50565b50805461557990617059565b6000825580601f1061558b57506155aa565b601f0160209004906000526020600020908101906155a9919061542f565b5b50566171ab565b60006155c46155bf84616f26565b616ea5565b90508281528383830111156155d95760006000fd5b828260208301376000602084830101525b9392505050565b60008135905073ffffffffffffffffffffffffffffffffffffffff81168114151561561c5760006000fd5b5b919050565b600082601f8301121515615634578081fd5b8135602061564961564483616efc565b616ea5565b80838252828201915082860187848660051b8901011115615668578586fd5b855b858110156156935761567b826155f1565b8452848401935084820191505b60018101905061566a565b5050809450505050505b92915050565b600082601f83011215156156b5578081fd5b813560206156ca6156c583616efc565b616ea5565b80838252828201915082860187848660051b89010111156156e9578586fd5b855b8581101561574857813567ffffffffffffffff811115615709578788fd5b808901905089603f820112151561571e578788fd5b61572f8a87830135604084016155b1565b855250848401935084820191505b6001810190506156eb565b5050809450505050505b92915050565b600082601f830112151561576a578081fd5b8135602061577f61577a83616efc565b616ea5565b80838252828201915082860187848660051b890101111561579e578586fd5b855b858110156157e557813567ffffffffffffffff8111156157be578788fd5b6157cc8a87838c01016157f5565b855250848401935084820191505b6001810190506157a0565b5050809450505050505b92915050565b600082601f8301121515615807578081fd5b615816838335602085016155b1565b90505b92915050565b600060208284031215615830578081fd5b615839826155f1565b90505b92915050565b6000600060006000600060a0868803121561585b578081fd5b853567ffffffffffffffff80821115615872578283fd5b61587e89838a01615622565b96506020880135915080821115615893578283fd5b61589f89838a01615758565b955060408801359150808211156158b4578283fd5b6158c089838a016156a3565b945060608801359150808211156158d5578283fd5b6158e189838a016157f5565b935060808801359150808211156158f6578283fd5b50615903888289016157f5565b9150505b9295509295909350565b6000600060208385031215615924578182fd5b823567ffffffffffffffff8082111561593b578384fd5b818501915085601f8301121515615950578384fd5b81358181111561595e578485fd5b8660208260051b8501011115615972578485fd5b6020830194508093505050505b9250929050565b600060208284031215615997578081fd5b81516159a281617180565b809150505b92915050565b6000602082840312156159be578081fd5b815190505b92915050565b6000602082840312156159da578081fd5b815167ffffffffffffffff8111156159f0578182fd5b808301905083601f8201121515615a05578182fd5b8051615a18615a1382616f26565b616ea5565b818152856020838501011115615a2c578384fd5b615a3d826020830160208601617024565b8093505050505b92915050565b600060208284031215615a5b578081fd5b813590505b92915050565b600060208284031215615a77578081fd5b815190505b92915050565b6000600060408385031215615a95578182fd5b82359150615aa5602084016155f1565b90505b9250929050565b6000600060408385031215615ac2578182fd5b823591506020830135615ad481617180565b809150505b9250929050565b6000600060006000600060a08688031215615af9578283fd5b853594506020860135615b0b81617180565b809450506040860135615b1d81617195565b8093505060608601359150608086013590505b9295509295909350565b600060208284031215615b4b578081fd5b8151615b5681617195565b809150505b92915050565b73ffffffffffffffffffffffffffffffffffffffff8116825250505b565b6000815180845260208085019450808401835b83811015615bca5773ffffffffffffffffffffffffffffffffffffffff8251168752828701965082820191505b600181019050615b92565b505050508290505b92915050565b600081518084526020808501808196508360051b81019150828601855b85811015615c25578284038952615c0d848351615c3f565b9350848201915084890198505b600181019050615bf5565b5050508093505050505b92915050565b801515825250505b565b60008151808452615c57816020860160208601617024565b60207fffffffffffffffffffffffffffffffffffffffffffffffffffffffffffffffe0601f8301168501019150505b92915050565b60008154615c9981617059565b8085526020600180841660008114615cb85760018114615cea57615d1f565b7fffffffffffffffffffffffffffffffffffffffffffffffffffffffffffffff00851683890152604088019550615d1f565b866000528260002060005b85811015615d1557815485828c01015283820191505b8481019050615cf5565b84818b0101975050505b50505050505b92915050565b600881101515615d64577f4e487b7100000000000000000000000000000000000000000000000000000000600052602160045260246000fd5b80825250505b565b80511515825260208101511515602083015260408101511515604083015276ffffffffffffffffffffffffffffffffffffffffffffff606082015116606083015250505b565b6fffffffffffffffffffffffffffffffff8116825250505b565b65ffffffffffff8116825250505b565b6000808354615dea81617059565b600180831660008114615e045760018114615e3357615e64565b7fffffffffffffffffffffffffffffffffffffffffffffffffffffffffffffff00841687528287019450615e64565b8786526020808720875b85811015615e5b578154818b015284820191505b8281019050615e3d565b50505082870194505b50505050809150505b92915050565b7f1901000000000000000000000000000000000000000000000000000000000000815282600282015281602282015260006042820190505b9392505050565b600060208201905073ffffffffffffffffffffffffffffffffffffffff831682525b92915050565b73ffffffffffffffffffffffffffffffffffffffff83168152604060208201526000615f096040830184615c3f565b90505b9392505050565b73ffffffffffffffffffffffffffffffffffffffff85168152608060208201526000615f426080830186615c3f565b8281036040840152615f548186615c3f565b9150508260608301525b95945050505050565b73ffffffffffffffffffffffffffffffffffffffff85168152608060208201526000615f966080830186615c8c565b8281036040840152615fa88186615c8c565b91505065ffffffffffff831660608301525b95945050505050565b600060408201905073ffffffffffffffffffffffffffffffffffffffff841682528260208301525b9392505050565b600060408201905073ffffffffffffffffffffffffffffffffffffffff8416825265ffffffffffff831660208301525b9392505050565b60608152600061603c6060830186615b7f565b828103602084015261604e8186615bd8565b905082810360408401526160628185615bd8565b9150505b949350505050565b60006020808301818452808551808352604092508286019150828160051b870101848801865b83811015616242577fffffffffffffffffffffffffffffffffffffffffffffffffffffffffffffffc0898403018552815161020081518186526160d982870182615b7f565b915050888201518582038a8701526160f18282615bd8565b91505087820151858203898701526161098282615bd8565b915050606080830151868303828801526161238382615c3f565b925050506080808301518683038288015261613e8382615c3f565b9250505060a08083015161615482880182615b61565b505060c08083015161616882880182615dcc565b505060e08083015161617c82880182615dcc565b50506101008083015161619182880182615db2565b5050610120808301516161a682880182615dcc565b5050610140808301516161bb82880182615dcc565b5050610160808301516161d082880182615c35565b5050610180808301516161e582880182615c35565b50506101a0808301516161fa82880182615db2565b50506101c08083015161620f82880182615db2565b50506101e080830151925061622681870184615d2b565b508094505050868201915086850194505b600181019050616094565b505080955050505050505b92915050565b60006020808301818452808551808352604092508286019150838701855b828110156162c357815165ffffffffffff81511685528681015161629788870182615d6c565b508581015160a0860152606081015160c08601525060e08401935085820191505b600181019050616271565b5050508093505050505b92915050565b60006020820190508282525b92915050565b600060808201905085825284602083015283604083015273ffffffffffffffffffffffffffffffffffffffff831660608301525b95945050505050565b600060608201905084825283602083015282151560408301525b949350505050565b600060808201905085825260ff851660208301528360408301528260608301525b95945050505050565b600060208201905073ffffffffffffffffffffffffffffffffffffffff831682525b92915050565b600060208201905073ffffffffffffffffffffffffffffffffffffffff831682525b92915050565b600060208201905073ffffffffffffffffffffffffffffffffffffffff831682525b92915050565b60006020820190506163f88284615d2b565b5b92915050565b6020815260006164126020830184615c3f565b90505b92915050565b6101808152600061643061018083018f615c3f565b8281036020840152616442818f615c3f565b91505073ffffffffffffffffffffffffffffffffffffffff8c16604083015265ffffffffffff808c166060840152808b166080840152506fffffffffffffffffffffffffffffffff891660a083015261649e60c0830189615dcc565b6164ab60e0830188615dcc565b6164b9610100830187615c35565b6164c7610120830186615c35565b6164d5610140830185615db2565b6164e3610160830184615db2565b5b9d9c50505050505050505050505050565b60208152604460208201527f476f7665726e6f72416c7068613a3a71756575653a2070726f706f73616c206360408201527f616e206f6e6c792062652071756575656420696620697420697320737563636560608201527f65646564000000000000000000000000000000000000000000000000000000006080820152600060a0820190505b919050565b60208152604560208201527f476f7665726e6f72416c7068613a3a657865637574653a2070726f706f73616c60408201527f2063616e206f6e6c79206265206578656375746564206966206974206973207160608201527f75657565640000000000000000000000000000000000000000000000000000006080820152600060a0820190505b919050565b60208152601560208201527f50726f706f73616c206e6f7420636f6d706c6574650000000000000000000000604082015260006060820190505b919050565b60208152601060208201527f4578636565647320313238206269747300000000000000000000000000000000604082015260006060820190505b919050565b60208152602960208201527f476f7665726e6f72416c7068613a3a73746174653a20696e76616c696420707260408201527f6f706f73616c2069640000000000000000000000000000000000000000000000606082015260006080820190505b919050565b60208152600d60208201527f486173206e6f7420766f74656400000000000000000000000000000000000000604082015260006060820190505b919050565b60208152600e60208201527f4e6f7420417574686f72697a6564000000000000000000000000000000000000604082015260006060820190505b919050565b60208152602d60208201527f476f7665726e6f72416c7068613a3a5f63617374566f74653a20766f7465722060408201527f616c726561647920766f74656400000000000000000000000000000000000000606082015260006080820190505b919050565b60208152605960208201527f476f7665726e6f72416c7068613a3a70726f706f73653a206f6e65206c69766560408201527f2070726f706f73616c207065722070726f706f7365722c20666f756e6420616e60608201527f20616c72656164792070656e64696e672070726f706f73616c000000000000006080820152600060a0820190505b919050565b60208152602860208201527f476f7665726e6f72416c7068613a3a70726f706f73653a20746f6f206d616e7960408201527f20616374696f6e73000000000000000000000000000000000000000000000000606082015260006080820190505b919050565b60208152601160208201527f6164646974696f6e206f766572666c6f77000000000000000000000000000000604082015260006060820190505b919050565b60208152604460208201527f476f7665726e6f72416c7068613a3a70726f706f73653a2070726f706f73616c60408201527f2066756e6374696f6e20696e666f726d6174696f6e206172697479206d69736d60608201527f61746368000000000000000000000000000000000000000000000000000000006080820152600060a0820190505b919050565b60208152602f60208201527f476f7665726e6f72416c7068613a3a63616e63656c3a2070726f706f7365722060408201527f61626f7665207468726573686f6c640000000000000000000000000000000000606082015260006080820190505b919050565b60208152601860208201527f5265776172647320616c72656164792072656365697665640000000000000000604082015260006060820190505b919050565b60208152604460208201527f476f7665726e6f72416c7068613a3a5f71756575654f725265766572743a207060408201527f726f706f73616c20616374696f6e20616c72656164792071756575656420617460608201527f20657461000000000000000000000000000000000000000000000000000000006080820152600060a0820190505b919050565b60208152602560208201527f43616e742063616e63656c20616674657220766f74696e6720697320636f6d7060408201527f6c65746564000000000000000000000000000000000000000000000000000000606082015260006080820190505b919050565b60208152602c60208201527f476f7665726e6f72416c7068613a3a70726f706f73653a206d7573742070726f60408201527f7669646520616374696f6e730000000000000000000000000000000000000000606082015260006080820190505b919050565b60208152603f60208201527f476f7665726e6f72416c7068613a3a70726f706f73653a2070726f706f73657260408201527f20766f7465732062656c6f772070726f706f73616c207468726573686f6c6400606082015260006080820190505b919050565b60208152602f60208201527f476f7665726e6f72416c7068613a3a63617374566f746542795369673a20696e60408201527f76616c6964207369676e61747572650000000000000000000000000000000000606082015260006080820190505b919050565b60208152605860208201527f476f7665726e6f72416c7068613a3a70726f706f73653a206f6e65206c69766560408201527f2070726f706f73616c207065722070726f706f7365722c20666f756e6420616e60608201527f20616c7265616479206163746976652070726f706f73616c00000000000000006080820152600060a0820190505b919050565b60208152600f60208201527f4578636565647320343820626974730000000000000000000000000000000000604082015260006060820190505b919050565b60208152603660208201527f476f7665726e6f72416c7068613a3a63616e63656c3a2063616e6e6f7420636160408201527f6e63656c2065786563757465642070726f706f73616c00000000000000000000606082015260006080820190505b919050565b60208152602a60208201527f476f7665726e6f72416c7068613a3a5f63617374566f74653a20766f74696e6760408201527f20697320636c6f73656400000000000000000000000000000000000000000000606082015260006080820190505b919050565b60208152601060208201527f4578636565647320313834206269747300000000000000000000000000000000604082015260006060820190505b919050565b60208152601560208201527f7375627472616374696f6e20756e646572666c6f770000000000000000000000604082015260006060820190505b919050565b6000608082019050616e728284615d6c565b5b92915050565b60006020820190508282525b92915050565b600060208201905065ffffffffffff831682525b92915050565b600060405190507fffffffffffffffffffffffffffffffffffffffffffffffffffffffffffffffe0601f830116810181811067ffffffffffffffff82111715616ef157616ef061714f565b5b80604052505b919050565b600067ffffffffffffffff821115616f1757616f1661714f565b5b60208260051b0190505b919050565b600067ffffffffffffffff821115616f4157616f4061714f565b5b60207fffffffffffffffffffffffffffffffffffffffffffffffffffffffffffffffe0601f8401160190505b919050565b60008219821115616f8657616f8561711e565b5b82820190505b92915050565b600065ffffffffffff808316818516808303821115616fb457616fb361711e565b5b80820193505050505b92915050565b6000821515616ff9577f4e487b710000000000000000000000000000000000000000000000000000000081526012600452602481fd5b82820490505b92915050565b6000828210156170185761701761711e565b5b82820390505b92915050565b60005b838110156170435780820151818401525b602081019050617027565b83811115617052576000848401525b505050505b565b60008160011c90506001821680151561707357607f821691505b602082108114156170ad577f4e487b7100000000000000000000000000000000000000000000000000000000600052602260045260246000fd5b505b919050565b60007fffffffffffffffffffffffffffffffffffffffffffffffffffffffffffffffff8214156170e7576170e661711e565b5b6001820190505b919050565b600065ffffffffffff808316818114156171105761710f61711e565b5b60018101925050505b919050565b7f4e487b7100000000000000000000000000000000000000000000000000000000600052601160045260246000fd5b565b7f4e487b7100000000000000000000000000000000000000000000000000000000600052604160045260246000fd5b565b801515811415156171915760006000fd5b505b565b60ff8116811415156171a75760006000fd5b505b565bfea26469706673582212208d498a9fee524d16553a36e2587aeea83b620dae4f3841e4d773b0664e889d2264736f6c63430008040033",
  "linkReferences": {},
  "deployedLinkReferences": {}
}