{
  "_format": "hh-sol-artifact-1",
  "contractName": "TDaoVotingRewardsSafe",
  "sourceName": "contracts/core/TDao/TDaoVotingRewardsSafe.sol",
  "abi": [
    {
      "inputs": [],
      "stateMutability": "nonpayable",
      "type": "constructor"
    },
    {
      "inputs": [],
      "name": "auth",
      "outputs": [
        {
          "internalType": "address",
          "name": "",
          "type": "address"
        }
      ],
      "stateMutability": "view",
      "type": "function"
    },
    {
      "inputs": [
        {
          "internalType": "contract IERC20",
          "name": "token",
          "type": "address"
        },
        {
          "internalType": "address",
          "name": "dest",
          "type": "address"
        },
        {
          "internalType": "uint256",
          "name": "count",
          "type": "uint256"
        }
      ],
      "name": "safeTransfer",
      "outputs": [],
      "stateMutability": "nonpayable",
      "type": "function"
    }
  ],
  "bytecode": "0x60a06040523480156100115760006000fd5b505b3373ffffffffffffffffffffffffffffffffffffffff1660808173ffffffffffffffffffffffffffffffffffffffff1660601b815260140150505b610053565b60805160601c6107a661007760003960008181607d015261013201526107a66000f3fe60806040523480156100115760006000fd5b506004361061003b5760003560e01c8063d1660f9914610041578063de9375f21461005d5761003b565b60006000fd5b61005b600480360381019061005691906104ba565b61007b565b005b610065610130565b604051610072919061051e565b60405180910390f35b7f000000000000000000000000000000000000000000000000000000000000000073ffffffffffffffffffffffffffffffffffffffff163373ffffffffffffffffffffffffffffffffffffffff1614151561010b576040517f08c379a00000000000000000000000000000000000000000000000000000000081526004016101029061062e565b60405180910390fd5b60008114156101195761012b565b61012a83838361015463ffffffff16565b5b505050565b7f000000000000000000000000000000000000000000000000000000000000000081565b6101db8363a9059cbb60e01b8484604051602401610173929190610546565b604051602081830303815290604052907bffffffffffffffffffffffffffffffffffffffffffffffffffffffff19166020820180517bffffffffffffffffffffffffffffffffffffffffffffffffffffffff83818316178352505050506101e163ffffffff16565b5b505050565b6000610246826040518060400160405280602081526020017f5361666545524332303a206c6f772d6c6576656c2063616c6c206661696c65648152602001508573ffffffffffffffffffffffffffffffffffffffff166102ae9092919063ffffffff16565b90506000815111156102a85780806020019051810190610266919061048d565b15156102a7576040517f08c379a000000000000000000000000000000000000000000000000000000000815260040161029e906106ac565b60405180910390fd5b5b505b5050565b60606102c384846000856102d163ffffffff16565b90506102ca565b9392505050565b6060824710151515610318576040517f08c379a000000000000000000000000000000000000000000000000000000000815260040161030f906105c9565b60405180910390fd5b610327856103fd63ffffffff16565b1515610368576040517f08c379a000000000000000000000000000000000000000000000000000000000815260040161035f9061066d565b60405180910390fd5b600060008673ffffffffffffffffffffffffffffffffffffffff16858760405161039291906104ff565b60006040518083038185875af1925050503d80600081146103cf576040519150601f19603f3d011682016040523d82523d6000602084013e6103d4565b606091505b50915091506103ea82828661041763ffffffff16565b925050506103f55650505b949350505050565b60006000823b90506000811191505061041256505b919050565b6060831561042b5782905061048256610481565b6000835111156104435782518084602001fd50610480565b816040517f08c379a00000000000000000000000000000000000000000000000000000000081526004016104779190610575565b60405180910390fd5b5b5b93925050505661076f565b60006020828403121561049e578081fd5b8151801515811415156104af578182fd5b809150505b92915050565b600060006000606084860312156104cf578182fd5b83356104da81610746565b8093505060208401356104ec81610746565b80925050604084013590505b9250925092565b60008251610511818460208701610711565b8083019150505b92915050565b600060208201905073ffffffffffffffffffffffffffffffffffffffff831682525b92915050565b600060408201905073ffffffffffffffffffffffffffffffffffffffff841682528260208301525b9392505050565b6020815260008251806020840152610594816040850160208701610711565b60407fffffffffffffffffffffffffffffffffffffffffffffffffffffffffffffffe0601f8301168401019150505b92915050565b60208152602660208201527f416464726573733a20696e73756666696369656e742062616c616e636520666f60408201527f722063616c6c0000000000000000000000000000000000000000000000000000606082015260006080820190505b919050565b60208152600e60208201527f4e6f7420417574686f72697a6564000000000000000000000000000000000000604082015260006060820190505b919050565b60208152601d60208201527f416464726573733a2063616c6c20746f206e6f6e2d636f6e7472616374000000604082015260006060820190505b919050565b60208152602a60208201527f5361666545524332303a204552433230206f7065726174696f6e20646964206e60408201527f6f74207375636365656400000000000000000000000000000000000000000000606082015260006080820190505b919050565b60005b838110156107305780820151818401525b602081019050610714565b8381111561073f576000848401525b505050505b565b73ffffffffffffffffffffffffffffffffffffffff81168114151561076b5760006000fd5b505b565bfea2646970667358221220b89f9dccfc724c86e026b49dccaa6c4d43d3856fbd50c8117e278e6944b3fff264736f6c63430008040033",
  "linkReferences": {},
  "deployedLinkReferences": {}
}