{
  "_format": "hh-sol-artifact-1",
  "contractName": "Settlement",
  "sourceName": "contracts/core/logic/Settlement.sol",
  "abi": [
    {
      "inputs": [
        {
          "components": [
            {
              "internalType": "contract IGovernor",
              "name": "Governor",
              "type": "address"
            },
            {
              "internalType": "contract IProtocolLock",
              "name": "ProtocolLock",
              "type": "address"
            },
            {
              "internalType": "contract IPriceProvider",
              "name": "PriceProvider",
              "type": "address"
            },
            {
              "internalType": "contract IAccounting",
              "name": "Accounting",
              "type": "address"
            },
            {
              "internalType": "contract ITCP",
              "name": "Tcp",
              "type": "address"
            },
            {
              "internalType": "contract IHue",
              "name": "Hue",
              "type": "address"
            }
          ],
          "internalType": "struct ISettlement.ConstructorParams",
          "name": "params",
          "type": "tuple"
        }
      ],
      "stateMutability": "nonpayable",
      "type": "constructor"
    },
    {
      "anonymous": false,
      "inputs": [
        {
          "indexed": false,
          "internalType": "address",
          "name": "provider",
          "type": "address"
        }
      ],
      "name": "EthPriceProviderUpdated",
      "type": "event"
    },
    {
      "anonymous": false,
      "inputs": [
        {
          "indexed": true,
          "internalType": "address",
          "name": "account",
          "type": "address"
        }
      ],
      "name": "NoConfidenceConfirmed",
      "type": "event"
    },
    {
      "anonymous": false,
      "inputs": [
        {
          "indexed": true,
          "internalType": "uint64",
          "name": "positionID",
          "type": "uint64"
        },
        {
          "indexed": true,
          "internalType": "address",
          "name": "caller",
          "type": "address"
        },
        {
          "indexed": false,
          "internalType": "uint256",
          "name": "hueCount",
          "type": "uint256"
        },
        {
          "indexed": false,
          "internalType": "uint256",
          "name": "collateralCount",
          "type": "uint256"
        }
      ],
      "name": "SettlementCollateralForHue",
      "type": "event"
    },
    {
      "anonymous": false,
      "inputs": [
        {
          "indexed": false,
          "internalType": "uint256",
          "name": "settlementDiscoveryStartTime",
          "type": "uint256"
        }
      ],
      "name": "SettlementInitialized",
      "type": "event"
    },
    {
      "anonymous": false,
      "inputs": [
        {
          "indexed": true,
          "internalType": "uint64",
          "name": "positionID",
          "type": "uint64"
        },
        {
          "indexed": true,
          "internalType": "address",
          "name": "owner",
          "type": "address"
        },
        {
          "indexed": false,
          "internalType": "uint256",
          "name": "collateralToWithdraw",
          "type": "uint256"
        }
      ],
      "name": "SettlementWithdrawCollateral",
      "type": "event"
    },
    {
      "anonymous": false,
      "inputs": [
        {
          "indexed": true,
          "internalType": "address",
          "name": "account",
          "type": "address"
        },
        {
          "indexed": false,
          "internalType": "uint256",
          "name": "count",
          "type": "uint256"
        }
      ],
      "name": "StakedNoConfidenceTokens",
      "type": "event"
    },
    {
      "anonymous": false,
      "inputs": [],
      "name": "Stopped",
      "type": "event"
    },
    {
      "anonymous": false,
      "inputs": [
        {
          "indexed": true,
          "internalType": "address",
          "name": "account",
          "type": "address"
        },
        {
          "indexed": false,
          "internalType": "uint256",
          "name": "count",
          "type": "uint256"
        }
      ],
      "name": "UnstakedNoConfidenceTokens",
      "type": "event"
    },
    {
      "inputs": [],
      "name": "SETTLEMENT_PRICE_NO_CONFIDENCE_THRESHOLD",
      "outputs": [
        {
          "internalType": "uint256",
          "name": "",
          "type": "uint256"
        }
      ],
      "stateMutability": "view",
      "type": "function"
    },
    {
      "inputs": [],
      "name": "accounting",
      "outputs": [
        {
          "internalType": "contract IAccounting",
          "name": "",
          "type": "address"
        }
      ],
      "stateMutability": "view",
      "type": "function"
    },
    {
      "inputs": [],
      "name": "confirmNoPriceConfidence",
      "outputs": [],
      "stateMutability": "nonpayable",
      "type": "function"
    },
    {
      "inputs": [],
      "name": "confirmPrice",
      "outputs": [],
      "stateMutability": "nonpayable",
      "type": "function"
    },
    {
      "inputs": [],
      "name": "ethPriceProvider",
      "outputs": [
        {
          "internalType": "contract IPriceProvider",
          "name": "",
          "type": "address"
        }
      ],
      "stateMutability": "view",
      "type": "function"
    },
    {
      "inputs": [
        {
          "internalType": "uint64",
          "name": "positionID",
          "type": "uint64"
        },
        {
          "internalType": "uint256",
          "name": "hueCount",
          "type": "uint256"
        }
      ],
      "name": "getCollateralForHue",
      "outputs": [],
      "stateMutability": "nonpayable",
      "type": "function"
    },
    {
      "inputs": [],
      "name": "getRecentPrice",
      "outputs": [
        {
          "internalType": "uint256",
          "name": "ethPrice",
          "type": "uint256"
        }
      ],
      "stateMutability": "view",
      "type": "function"
    },
    {
      "inputs": [],
      "name": "governor",
      "outputs": [
        {
          "internalType": "contract IGovernor",
          "name": "",
          "type": "address"
        }
      ],
      "stateMutability": "view",
      "type": "function"
    },
    {
      "inputs": [],
      "name": "hue",
      "outputs": [
        {
          "internalType": "contract IHue",
          "name": "",
          "type": "address"
        }
      ],
      "stateMutability": "view",
      "type": "function"
    },
    {
      "inputs": [],
      "name": "initializeSettlement",
      "outputs": [],
      "stateMutability": "nonpayable",
      "type": "function"
    },
    {
      "inputs": [
        {
          "internalType": "address",
          "name": "",
          "type": "address"
        }
      ],
      "name": "noPriceConfidenceUserVotes",
      "outputs": [
        {
          "internalType": "uint256",
          "name": "",
          "type": "uint256"
        }
      ],
      "stateMutability": "view",
      "type": "function"
    },
    {
      "inputs": [],
      "name": "priceConfidence",
      "outputs": [
        {
          "internalType": "bool",
          "name": "",
          "type": "bool"
        }
      ],
      "stateMutability": "view",
      "type": "function"
    },
    {
      "inputs": [],
      "name": "priceDiscoveryStartTime",
      "outputs": [
        {
          "internalType": "uint64",
          "name": "",
          "type": "uint64"
        }
      ],
      "stateMutability": "view",
      "type": "function"
    },
    {
      "inputs": [
        {
          "internalType": "contract IPriceProvider",
          "name": "provider",
          "type": "address"
        }
      ],
      "name": "setEthPriceProvider",
      "outputs": [],
      "stateMutability": "nonpayable",
      "type": "function"
    },
    {
      "inputs": [],
      "name": "settlementPrice",
      "outputs": [
        {
          "internalType": "uint256",
          "name": "",
          "type": "uint256"
        }
      ],
      "stateMutability": "view",
      "type": "function"
    },
    {
      "inputs": [],
      "name": "settlementStage",
      "outputs": [
        {
          "internalType": "enum ISettlement.SettlementStage",
          "name": "",
          "type": "uint8"
        }
      ],
      "stateMutability": "view",
      "type": "function"
    },
    {
      "inputs": [
        {
          "internalType": "uint256",
          "name": "countTCPToStake",
          "type": "uint256"
        }
      ],
      "name": "stakeTokensForNoPriceConfidence",
      "outputs": [],
      "stateMutability": "nonpayable",
      "type": "function"
    },
    {
      "inputs": [],
      "name": "stop",
      "outputs": [],
      "stateMutability": "nonpayable",
      "type": "function"
    },
    {
      "inputs": [],
      "name": "stopped",
      "outputs": [
        {
          "internalType": "bool",
          "name": "",
          "type": "bool"
        }
      ],
      "stateMutability": "view",
      "type": "function"
    },
    {
      "inputs": [],
      "name": "tcp",
      "outputs": [
        {
          "internalType": "contract ITCP",
          "name": "",
          "type": "address"
        }
      ],
      "stateMutability": "view",
      "type": "function"
    },
    {
      "inputs": [],
      "name": "thresholdMet",
      "outputs": [
        {
          "internalType": "bool",
          "name": "",
          "type": "bool"
        }
      ],
      "stateMutability": "view",
      "type": "function"
    },
    {
      "inputs": [],
      "name": "unstakeTokensForNoPriceConfidence",
      "outputs": [],
      "stateMutability": "nonpayable",
      "type": "function"
    },
    {
      "inputs": [
        {
          "internalType": "bytes4",
          "name": "",
          "type": "bytes4"
        }
      ],
      "name": "validUpdate",
      "outputs": [
        {
          "internalType": "bool",
          "name": "",
          "type": "bool"
        }
      ],
      "stateMutability": "view",
      "type": "function"
    },
    {
      "inputs": [
        {
          "internalType": "uint64",
          "name": "positionID",
          "type": "uint64"
        }
      ],
      "name": "withdrawCollateral",
      "outputs": [],
      "stateMutability": "nonpayable",
      "type": "function"
    }
  ],
  "bytecode": "0x610120604052600160026000509090556001600560006101000a81548160ff0219169083151502179055507fffffffffffffffffffffffffffffffffffffffffffffffffffffffffffffffff6007600050909055348015620000615760006000fd5b5060405162003c9738038062003c978339818101604052810190620000879190620002b4565b5b806000015181602001515b815b8073ffffffffffffffffffffffffffffffffffffffff1660808173ffffffffffffffffffffffffffffffffffffffff1660601b815260140150505b508073ffffffffffffffffffffffffffffffffffffffff1660a08173ffffffffffffffffffffffffffffffffffffffff1660601b815260140150505b50508060400151600360006101000a81548173ffffffffffffffffffffffffffffffffffffffff021916908373ffffffffffffffffffffffffffffffffffffffff160217905550806060015173ffffffffffffffffffffffffffffffffffffffff1660c08173ffffffffffffffffffffffffffffffffffffffff1660601b81526014015050806080015173ffffffffffffffffffffffffffffffffffffffff1660e08173ffffffffffffffffffffffffffffffffffffffff1660601b815260140150508060a0015173ffffffffffffffffffffffffffffffffffffffff166101008173ffffffffffffffffffffffffffffffffffffffff1660601b8152601401505060016001600050600063e4e9bcca60e01b7bffffffffffffffffffffffffffffffffffffffffffffffffffffffff19167bffffffffffffffffffffffffffffffffffffffffffffffffffffffff1916815260200190815260200160002060006101000a81548160ff0219169083151502179055505b50620003725662000371565b6000815190506001600160a01b03811681141515620002ae5760006000fd5b5b919050565b600060c08284031215620002c6578081fd5b60405160c081018181106001600160401b0382111715620002f557634e487b7160e01b83526041600452602483fd5b806040525062000305836200028f565b815262000315602084016200028f565b602082015262000328604084016200028f565b60408201526200033b606084016200028f565b60608201526200034e608084016200028f565b60808201526200036160a084016200028f565b60a0820152809150505b92915050565b5b60805160601c60a05160601c60c05160601c60e05160601c6101005160601c61385362000444600039600081816106d30152610c170152600081816108000152818161089e01528181610db401528181610e620152611921015260008181610afb01528181610b8a01528181610ca6015281816112fd0152818161138c01526116bb015260008181611fa4015261229401526000818161044d015281816108e201528181610f4c015281816110be0152818161154701528181611bb001528181611cda0152611e4c01526138536000f3fe60806040523480156100115760006000fd5b506004361061019d5760003560e01c806378e8f96e116100e4578063db7f7f1d1161008d578063e4e9bcca11610067578063e4e9bcca146103e7578063f214a2a214610403578063f348e8b21461040d5761019d565b8063db7f7f1d146103b5578063e2083a89146103bf578063e41f7dc1146103c95761019d565b806398cd845b116100be57806398cd845b1461035d578063997aba1a1461038d578063bde5cdb1146103ab5761019d565b806378e8f96e146103035780639410eb86146103215780639624e83e1461033f5761019d565b806336fc02f4116101465780635130e763116101205780635130e763146102ab57806356850960146102c957806375f12b21146102e55761019d565b806336fc02f4146102535780633ee8b30f1461027157806342c5ddc41461028d5761019d565b806315b7ef9b1161017757806315b7ef9b146101fb578063323741741461021957806335a12e45146102375761019d565b806307da68f5146101a35780630c340a24146101ad578063113cf1ab146101cb5761019d565b60006000fd5b6101ab61042b565b005b6101b561044b565b6040516101c29190612e3a565b60405180910390f35b6101e560048036038101906101e09190612990565b61046f565b6040516101f29190612dfe565b60405180910390f35b610203610494565b60405161021091906133f4565b60405180910390f35b6102216106d1565b60405161022e9190612e62565b60405180910390f35b610251600480360381019061024c9190612b5c565b6106f5565b005b61025b61089c565b6040516102689190612eb2565b60405180910390f35b61028b60048036038101906102869190612be2565b6108c0565b005b610295610da4565b6040516102a29190612dfe565b60405180910390f35b6102b3610f17565b6040516102c09190612dfe565b60405180910390f35b6102e360048036038101906102de9190612b94565b610f2a565b005b6102ed611512565b6040516102fa9190612dfe565b60405180910390f35b61030b611525565b6040516103189190612eda565b60405180910390f35b6103296116ad565b60405161033691906133f4565b60405180910390f35b6103476116b9565b6040516103549190612e12565b60405180910390f35b6103776004803603810190610372919061291f565b6116dd565b60405161038491906133f4565b60405180910390f35b6103956116f8565b6040516103a2919061343b565b60405180910390f35b6103b3611712565b005b6103bd61175b565b005b6103c7611832565b005b6103d16119bc565b6040516103de9190612e8a565b60405180910390f35b61040160048036038101906103fc9190612a52565b6119e2565b005b61040b611b8e565b005b610415611e3e565b60405161042291906133f4565b60405180910390f35b610439611e4763ffffffff16565b610447611ea763ffffffff16565b5b5b565b7f000000000000000000000000000000000000000000000000000000000000000081565b600160005060205280600052604060002060009150909054906101000a900460ff1681565b600060006000600360009054906101000a900473ffffffffffffffffffffffffffffffffffffffff1673ffffffffffffffffffffffffffffffffffffffff1663feaf968c6040518163ffffffff1660e01b815260040160a06040518083038186803b1580156105035760006000fd5b505afa158015610518573d600060003e3d6000fd5b505050506040513d601f19601f8201168201806040525081019061053c9190612c13565b50935050925050610551611ef163ffffffff16565b67ffffffffffffffff16610570610e1083611f0c90919063ffffffff16565b1115156105b2576040517f08c379a00000000000000000000000000000000000000000000000000000000081526004016105a990612f79565b60405180910390fd5b6000821315156105f7576040517f08c379a00000000000000000000000000000000000000000000000000000000081526004016105ee906131d6565b60405180910390fd5b6106c7600360009054906101000a900473ffffffffffffffffffffffffffffffffffffffff1673ffffffffffffffffffffffffffffffffffffffff1663313ce5676040518163ffffffff1660e01b815260040160206040518083038186803b1580156106635760006000fd5b505afa158015610678573d600060003e3d6000fd5b505050506040513d601f19601f8201168201806040525081019061069c9190612c65565b600a6106a89190613666565b6106b984611f27909063ffffffff16565b611f7c90919063ffffffff16565b9250825050505b90565b7f000000000000000000000000000000000000000000000000000000000000000081565b610703611fa263ffffffff16565b610713600361207f63ffffffff16565b600081111515610758576040517f08c379a000000000000000000000000000000000000000000000000000000000815260040161074f90613119565b60405180910390fd5b6107b081600660005060003373ffffffffffffffffffffffffffffffffffffffff1673ffffffffffffffffffffffffffffffffffffffff16815260200190815260200160002060005054611f0c90919063ffffffff16565b600660005060003373ffffffffffffffffffffffffffffffffffffffff1673ffffffffffffffffffffffffffffffffffffffff16815260200190815260200160002060005081909090555061082d7f000000000000000000000000000000000000000000000000000000000000000033308461214463ffffffff16565b61083b6121d463ffffffff16565b3373ffffffffffffffffffffffffffffffffffffffff167fedbb4f9340677b55be1420c0b8b3bac9f5b41e08db266f57cfd8befc9fe480d58260405161088191906133f4565b60405180910390a25b61089861228563ffffffff16565b5b50565b7f000000000000000000000000000000000000000000000000000000000000000081565b6108ce611fa263ffffffff16565b6108de600661207f63ffffffff16565b60007f000000000000000000000000000000000000000000000000000000000000000073ffffffffffffffffffffffffffffffffffffffff166380f556056040518163ffffffff1660e01b815260040160206040518083038186803b1580156109475760006000fd5b505afa15801561095c573d600060003e3d6000fd5b505050506040513d601f19601f820116820180604052508101906109809190612a04565b73ffffffffffffffffffffffffffffffffffffffff1663eb6843ce846040518263ffffffff1660e01b81526004016109b8919061343b565b6101a060405180830381600087803b1580156109d45760006000fd5b505af11580156109e9573d600060003e3d6000fd5b505050506040513d601f19601f82011682018060405250810190610a0d9190612a79565b905081816040015110151515610a58576040517f08c379a0000000000000000000000000000000000000000000000000000000008152600401610a4f90613254565b60405180910390fd5b6000610a7260046000505484611f7c90919063ffffffff16565b905080826020015110151515610abd576040517f08c379a0000000000000000000000000000000000000000000000000000000008152600401610ab490613293565b60405180910390fd5b8082602001818151610acf9190613751565b9150909081815260200150508282604001818151610aed9190613751565b9150909081815260200150507f000000000000000000000000000000000000000000000000000000000000000073ffffffffffffffffffffffffffffffffffffffff16635a6beaf485846040518363ffffffff1660e01b8152600401610b54929190613457565b600060405180830381600087803b158015610b6f5760006000fd5b505af1158015610b84573d600060003e3d6000fd5b505050507f000000000000000000000000000000000000000000000000000000000000000073ffffffffffffffffffffffffffffffffffffffff16632a7ba1f7846040518263ffffffff1660e01b8152600401610be191906133f4565b600060405180830381600087803b158015610bfc5760006000fd5b505af1158015610c11573d600060003e3d6000fd5b505050507f000000000000000000000000000000000000000000000000000000000000000073ffffffffffffffffffffffffffffffffffffffff166379cc679033856040518363ffffffff1660e01b8152600401610c70929190612d96565b600060405180830381600087803b158015610c8b5760006000fd5b505af1158015610ca0573d600060003e3d6000fd5b505050507f000000000000000000000000000000000000000000000000000000000000000073ffffffffffffffffffffffffffffffffffffffff16636250216933836040518363ffffffff1660e01b8152600401610cff929190612d2d565b600060405180830381600087803b158015610d1a5760006000fd5b505af1158015610d2f573d600060003e3d6000fd5b505050503373ffffffffffffffffffffffffffffffffffffffff168467ffffffffffffffff167f0d5247bd1efbd67f96fc7a1e9a2a62a42dc9f0279ff6711038be53633079f3f98584604051610d86929190613406565b60405180910390a350505b610d9f61228563ffffffff16565b5b5050565b6000610e6067016345785d8a00007f000000000000000000000000000000000000000000000000000000000000000073ffffffffffffffffffffffffffffffffffffffff166318160ddd6040518163ffffffff1660e01b815260040160206040518083038186803b158015610e195760006000fd5b505afa158015610e2e573d600060003e3d6000fd5b505050506040513d601f19601f82011682018060405250810190610e529190612b78565b61231790919063ffffffff16565b7f000000000000000000000000000000000000000000000000000000000000000073ffffffffffffffffffffffffffffffffffffffff166370a08231306040518263ffffffff1660e01b8152600401610eb99190612d05565b60206040518083038186803b158015610ed25760006000fd5b505afa158015610ee7573d600060003e3d6000fd5b505050506040513d601f19601f82011682018060405250810190610f0b9190612b78565b10159050610f14565b90565b600560009054906101000a900460ff1681565b610f38611fa263ffffffff16565b610f48600661207f63ffffffff16565b60007f000000000000000000000000000000000000000000000000000000000000000073ffffffffffffffffffffffffffffffffffffffff1663a89f51ae6040518163ffffffff1660e01b815260040160206040518083038186803b158015610fb15760006000fd5b505afa158015610fc6573d600060003e3d6000fd5b505050506040513d601f19601f82011682018060405250810190610fea9190612a2b565b90508073ffffffffffffffffffffffffffffffffffffffff1663430c208133846040518363ffffffff1660e01b8152600401611027929190612dc5565b60206040518083038186803b1580156110405760006000fd5b505afa158015611055573d600060003e3d6000fd5b505050506040513d601f19601f82011682018060405250810190611079919061296d565b15156110ba576040517f08c379a00000000000000000000000000000000000000000000000000000000081526004016110b1906130da565b60405180910390fd5b60007f000000000000000000000000000000000000000000000000000000000000000073ffffffffffffffffffffffffffffffffffffffff166380f556056040518163ffffffff1660e01b815260040160206040518083038186803b1580156111235760006000fd5b505afa158015611138573d600060003e3d6000fd5b505050506040513d601f19601f8201168201806040525081019061115c9190612a04565b73ffffffffffffffffffffffffffffffffffffffff1663eb6843ce846040518263ffffffff1660e01b8152600401611194919061343b565b6101a060405180830381600087803b1580156111b05760006000fd5b505af11580156111c5573d600060003e3d6000fd5b505050506040513d601f19601f820116820180604052508101906111e99190612a79565b905060008160200151111515611234576040517f08c379a000000000000000000000000000000000000000000000000000000000815260040161122b90613197565b60405180910390fd5b6000600082604001511415611251578160200151905080506112d6565b600061126f6004600050548460400151611f7c90919063ffffffff16565b90508260200151811015156112b9576040517f08c379a00000000000000000000000000000000000000000000000000000000081526004016112b090613215565b60405180910390fd5b6112d081846020015161233d90919063ffffffff16565b91508150505b6112ed81836020015161233d90919063ffffffff16565b82602001909081815260200150507f000000000000000000000000000000000000000000000000000000000000000073ffffffffffffffffffffffffffffffffffffffff16635a6beaf485846040518363ffffffff1660e01b8152600401611356929190613457565b600060405180830381600087803b1580156113715760006000fd5b505af1158015611386573d600060003e3d6000fd5b505050507f000000000000000000000000000000000000000000000000000000000000000073ffffffffffffffffffffffffffffffffffffffff1663625021698473ffffffffffffffffffffffffffffffffffffffff16636352211e876040518263ffffffff1660e01b81526004016113ff919061341f565b60206040518083038186803b1580156114185760006000fd5b505afa15801561142d573d600060003e3d6000fd5b505050506040513d601f19601f820116820180604052508101906114519190612946565b836040518363ffffffff1660e01b815260040161146f929190612d2d565b600060405180830381600087803b15801561148a5760006000fd5b505af115801561149f573d600060003e3d6000fd5b505050503373ffffffffffffffffffffffffffffffffffffffff168467ffffffffffffffff167fea981567b9c640fd744f52ff99859dc343bdb3752f8f6542b014a546ffa0863b836040516114f491906133f4565b60405180910390a35050505b61150e61228563ffffffff16565b5b50565b600060009054906101000a900460ff1681565b6000600060009054906101000a900460ff161561154557600090506116aa565b7f000000000000000000000000000000000000000000000000000000000000000073ffffffffffffffffffffffffffffffffffffffff1663bf86d6906040518163ffffffff1660e01b815260040160206040518083038186803b1580156115ac5760006000fd5b505afa1580156115c1573d600060003e3d6000fd5b505050506040513d601f19601f820116820180604052508101906115e5919061296d565b15156115f457600190506116aa565b6000600560019054906101000a900467ffffffffffffffff1667ffffffffffffffff16141561162657600290506116aa565b600560019054906101000a900467ffffffffffffffff1667ffffffffffffffff16611655611ef163ffffffff16565b67ffffffffffffffff16101561166e57600390506116aa565b6000600460005054111561168557600690506116aa565b600560009054906101000a900460ff166116a05760046116a3565b60055b90506116aa565b90565b67016345785d8a000081565b7f000000000000000000000000000000000000000000000000000000000000000081565b60066000506020528060005260406000206000915090505481565b600560019054906101000a900467ffffffffffffffff1681565b611720611fa263ffffffff16565b611730600561207f63ffffffff16565b61173e61049463ffffffff16565b60046000508190909055505b61175861228563ffffffff16565b5b565b611769611fa263ffffffff16565b611779600361207f63ffffffff16565b436007600050541015156117c2576040517f08c379a00000000000000000000000000000000000000000000000000000000081526004016117b9906133b5565b60405180910390fd5b6000600560006101000a81548160ff0219169083151502179055503373ffffffffffffffffffffffffffffffffffffffff167fcaf37a95bc2985ab407c11d2c65eb92feb22c303997f953e8b2f33a86533ea7a60405160405180910390a25b61182f61228563ffffffff16565b5b565b611840611fa263ffffffff16565b6000600660005060003373ffffffffffffffffffffffffffffffffffffffff1673ffffffffffffffffffffffffffffffffffffffff1681526020019081526020016000206000505490506000811115156118cf576040517f08c379a00000000000000000000000000000000000000000000000000000000081526004016118c690612fb8565b60405180910390fd5b6000600660005060003373ffffffffffffffffffffffffffffffffffffffff1673ffffffffffffffffffffffffffffffffffffffff16815260200190815260200160002060005081909090555061194d7f0000000000000000000000000000000000000000000000000000000000000000338361235863ffffffff16565b61195b6121d463ffffffff16565b3373ffffffffffffffffffffffffffffffffffffffff167f02cdad8fe595d5f15cdf217aa61a8d7002f148da0abc88d26a93eb3122cf0d59826040516119a191906133f4565b60405180910390a2505b6119b961228563ffffffff16565b5b565b600360009054906101000a900473ffffffffffffffffffffffffffffffffffffffff1681565b6119f0611e4763ffffffff16565b8073ffffffffffffffffffffffffffffffffffffffff1663313ce5676040518163ffffffff1660e01b815260040160206040518083038186803b158015611a375760006000fd5b505afa158015611a4c573d600060003e3d6000fd5b505050506040513d601f19601f82011682018060405250810190611a709190612c65565b508073ffffffffffffffffffffffffffffffffffffffff1663feaf968c6040518163ffffffff1660e01b815260040160a06040518083038186803b158015611ab85760006000fd5b505afa158015611acd573d600060003e3d6000fd5b505050506040513d601f19601f82011682018060405250810190611af19190612c13565b505050505080600360006101000a81548173ffffffffffffffffffffffffffffffffffffffff021916908373ffffffffffffffffffffffffffffffffffffffff1602179055506001600560006101000a81548160ff0219169083151502179055507f9f701229040146d627dc720a259fb0d56c65dda95beb31eb1aae4bc8f7ca9a5a81604051611b819190612d05565b60405180910390a15b5b50565b611b9c611fa263ffffffff16565b611bac600261207f63ffffffff16565b60007f000000000000000000000000000000000000000000000000000000000000000073ffffffffffffffffffffffffffffffffffffffff166385aa61036040518163ffffffff1660e01b815260040160206040518083038186803b158015611c155760006000fd5b505afa158015611c2a573d600060003e3d6000fd5b505050506040513d601f19601f82011682018060405250810190611c4e91906129dd565b73ffffffffffffffffffffffffffffffffffffffff16631b8757686040518163ffffffff1660e01b815260040160206040518083038186803b158015611c945760006000fd5b505afa158015611ca9573d600060003e3d6000fd5b505050506040513d601f19601f82011682018060405250810190611ccd9190612bbb565b90506000611d906202a3007f000000000000000000000000000000000000000000000000000000000000000073ffffffffffffffffffffffffffffffffffffffff1663585690816040518163ffffffff1660e01b815260040160206040518083038186803b158015611d3f5760006000fd5b505afa158015611d54573d600060003e3d6000fd5b505050506040513d601f19601f82011682018060405250810190611d789190612bbb565b67ffffffffffffffff166123e590919063ffffffff16565b90508067ffffffffffffffff168267ffffffffffffffff1610611db35781611db5565b805b600560016101000a81548167ffffffffffffffff021916908367ffffffffffffffff1602179055507f34bf3e2c7325e60cfaee127ed77fc0af0b6f642909e032bac8eab42419e22ca7600560019054906101000a900467ffffffffffffffff16604051611e22919061341f565b60405180910390a150505b611e3b61228563ffffffff16565b5b565b60046000505481565b611ea47f000000000000000000000000000000000000000000000000000000000000000073ffffffffffffffffffffffffffffffffffffffff163373ffffffffffffffffffffffffffffffffffffffff161461240063ffffffff16565b5b565b6001600060006101000a81548160ff0219169083151502179055507f7acc84e34091ae817647a4c49116f5cc07f319078ba80f8f5fde37ea7e25cbd660405160405180910390a15b565b6000611f0442612446909063ffffffff16565b905080505b90565b60008183611f1a91906135a4565b9050611f21565b92915050565b600060008212151515611f6f576040517f08c379a0000000000000000000000000000000000000000000000000000000008152600401611f6690612ff7565b60405180910390fd5b819050611f77565b919050565b6000611f9783670de0b6b3a7640000846124a263ffffffff16565b905080505b92915050565b7f000000000000000000000000000000000000000000000000000000000000000073ffffffffffffffffffffffffffffffffffffffff1663e97dcb626040518163ffffffff1660e01b8152600401600060405180830381600087803b15801561200b5760006000fd5b505af1158015612020573d600060003e3d6000fd5b5050505060026002600050541415151561206f576040517f08c379a000000000000000000000000000000000000000000000000000000000815260040161206690613158565b60405180910390fd5b600260026000508190909055505b565b8060068111156120b8577f4e487b7100000000000000000000000000000000000000000000000000000000600052602160045260246000fd5b6120c661152563ffffffff16565b60068111156120fe577f4e487b7100000000000000000000000000000000000000000000000000000000600052602160045260246000fd5b141515612140576040517f08c379a00000000000000000000000000000000000000000000000000000000081526004016121379061309b565b60405180910390fd5b5b50565b6121cd846323b872dd60e01b85858560405160240161216593929190612d5c565b604051602081830303815290604052907bffffffffffffffffffffffffffffffffffffffffffffffffffffffff19166020820180517bffffffffffffffffffffffffffffffffffffffffffffffffffffffff83818316178352505050506125c663ffffffff16565b5b50505050565b6121e2610da463ffffffff16565b15612226577fffffffffffffffffffffffffffffffffffffffffffffffffffffffffffffffff6007600050541415612221574360076000508190909055505b612282565b7fffffffffffffffffffffffffffffffffffffffffffffffffffffffffffffffff600760005054141515612281577fffffffffffffffffffffffffffffffffffffffffffffffffffffffffffffffff60076000508190909055505b5b5b565b600160026000508190909055507f000000000000000000000000000000000000000000000000000000000000000073ffffffffffffffffffffffffffffffffffffffff1663e9fad8ee6040518163ffffffff1660e01b8152600401600060405180830381600087803b1580156122fb5760006000fd5b505af1158015612310573d600060003e3d6000fd5b505050505b565b60006123328383670de0b6b3a76400006124a263ffffffff16565b905080505b92915050565b6000818361234b9190613751565b9050612352565b92915050565b6123df8363a9059cbb60e01b8484604051602401612377929190612d96565b604051602081830303815290604052907bffffffffffffffffffffffffffffffffffffffffffffffffffffffff19166020820180517bffffffffffffffffffffffffffffffffffffffffffffffffffffffff83818316178352505050506125c663ffffffff16565b5b505050565b600081836123f391906135c4565b90506123fa565b92915050565b801515612442576040517f08c379a0000000000000000000000000000000000000000000000000000000008152600401612439906130da565b60405180910390fd5b5b50565b60006801000000000000000082101515612495576040517f08c379a000000000000000000000000000000000000000000000000000000000815260040161248c90613376565b60405180910390fd5b81905061249d565b919050565b60006000600060001985870985870292508281108382030391505060008114156124e5576000841115156124d65760006000fd5b838204925082925050506125bf565b80841115156124f45760006000fd5b60008486880990508281118203915080830392506000856001877fffffffffffffffffffffffffffffffffffffffffffffffffffffffffffffffff0301169050805080860495508084049350600181826000030401905080830284179350835060006002876003021890508087026002038102905080508087026002038102905080508087026002038102905080508087026002038102905080508087026002038102905080508087026002038102905080508085029550855050849450505050506125bf56505050505b9392505050565b600061262b826040518060400160405280602081526020017f5361666545524332303a206c6f772d6c6576656c2063616c6c206661696c65648152602001508573ffffffffffffffffffffffffffffffffffffffff166126939092919063ffffffff16565b905060008151111561268d578080602001905181019061264b919061296d565b151561268c576040517f08c379a000000000000000000000000000000000000000000000000000000000815260040161268390613311565b60405180910390fd5b5b505b5050565b60606126a884846000856126b663ffffffff16565b90506126af565b9392505050565b60608247101515156126fd576040517f08c379a00000000000000000000000000000000000000000000000000000000081526004016126f490613036565b60405180910390fd5b61270c856127e263ffffffff16565b151561274d576040517f08c379a0000000000000000000000000000000000000000000000000000000008152600401612744906132d2565b60405180910390fd5b600060008673ffffffffffffffffffffffffffffffffffffffff1685876040516127779190612ce6565b60006040518083038185875af1925050503d80600081146127b4576040519150601f19603f3d011682016040523d82523d6000602084013e6127b9565b606091505b50915091506127cf8282866127fc63ffffffff16565b925050506127da5650505b949350505050565b60006000823b9050600081119150506127f756505b919050565b606083156128105782905061286756612866565b6000835111156128285782518084602001fd50612865565b816040517f08c379a000000000000000000000000000000000000000000000000000000000815260040161285c9190612f25565b60405180910390fd5b5b5b93925050505661381c565b600081519050612881816137d6565b5b919050565b6000815190508015158114151561289e5760006000fd5b5b919050565b6000815190508060020b811415156128bc5760006000fd5b5b919050565b60008151905063ffffffff8116811415156128dd5760006000fd5b5b919050565b6000815190506128f2816137ff565b5b919050565b60008151905069ffffffffffffffffffff8116811415156129195760006000fd5b5b919050565b600060208284031215612930578081fd5b813561293b816137d6565b809150505b92915050565b600060208284031215612957578081fd5b8151612962816137d6565b809150505b92915050565b60006020828403121561297e578081fd5b61298782612887565b90505b92915050565b6000602082840312156129a1578081fd5b81357fffffffff000000000000000000000000000000000000000000000000000000008116811415156129d2578182fd5b809150505b92915050565b6000602082840312156129ee578081fd5b81516129f9816137d6565b809150505b92915050565b600060208284031215612a15578081fd5b8151612a20816137d6565b809150505b92915050565b600060208284031215612a3c578081fd5b8151612a47816137d6565b809150505b92915050565b600060208284031215612a63578081fd5b8135612a6e816137d6565b809150505b92915050565b60006101a08284031215612a8b578081fd5b612a9361354c565b8251815260208301516020820152604083015160408201526060830151606082015260808301516080820152612acb60a084016128e3565b60a0820152612adc60c084016128e3565b60c0820152612aed60e084016128a4565b60e0820152610100612b00818501612887565b8183015250610120612b138185016128e3565b8183015250610140612b268185016128c2565b8183015250610160612b39818501612872565b8183015250610180612b4c8185016128e3565b8183015250809150505b92915050565b600060208284031215612b6d578081fd5b813590505b92915050565b600060208284031215612b89578081fd5b815190505b92915050565b600060208284031215612ba5578081fd5b8135612bb0816137ff565b809150505b92915050565b600060208284031215612bcc578081fd5b8151612bd7816137ff565b809150505b92915050565b6000600060408385031215612bf5578081fd5b8235612c00816137ff565b80925050602083013590505b9250929050565b6000600060006000600060a08688031215612c2c578081fd5b612c35866128f8565b9450602086015193506040860151925060608601519150612c58608087016128f8565b90505b9295509295909350565b600060208284031215612c76578081fd5b815160ff811681141515612c88578182fd5b809150505b92915050565b73ffffffffffffffffffffffffffffffffffffffff8116825250505b565b801515825250505b565b8060020b825250505b565b63ffffffff8116825250505b565b67ffffffffffffffff8116825250505b565b60008251612cf8818460208701613770565b8083019150505b92915050565b600060208201905073ffffffffffffffffffffffffffffffffffffffff831682525b92915050565b600060408201905073ffffffffffffffffffffffffffffffffffffffff841682528260208301525b9392505050565b600060608201905073ffffffffffffffffffffffffffffffffffffffff80861683528085166020840152508260408301525b949350505050565b600060408201905073ffffffffffffffffffffffffffffffffffffffff841682528260208301525b9392505050565b600060408201905073ffffffffffffffffffffffffffffffffffffffff8416825267ffffffffffffffff831660208301525b9392505050565b600060208201905082151582525b92915050565b600060208201905073ffffffffffffffffffffffffffffffffffffffff831682525b92915050565b600060208201905073ffffffffffffffffffffffffffffffffffffffff831682525b92915050565b600060208201905073ffffffffffffffffffffffffffffffffffffffff831682525b92915050565b600060208201905073ffffffffffffffffffffffffffffffffffffffff831682525b92915050565b600060208201905073ffffffffffffffffffffffffffffffffffffffff831682525b92915050565b6000602082019050600783101515612f1b577f4e487b7100000000000000000000000000000000000000000000000000000000600052602160045260246000fd5b8282525b92915050565b6020815260008251806020840152612f44816040850160208701613770565b60407fffffffffffffffffffffffffffffffffffffffffffffffffffffffffffffffe0601f8301168401019150505b92915050565b60208152601260208201527f457468207072696365206973207374616c650000000000000000000000000000604082015260006060820190505b919050565b60208152601060208201527f4e6f20746f6b656e73207374616b656400000000000000000000000000000000604082015260006060820190505b919050565b60208152601260208201527f76616c7565206e6f7420706f7369746976650000000000000000000000000000604082015260006060820190505b919050565b60208152602660208201527f416464726573733a20696e73756666696369656e742062616c616e636520666f60408201527f722063616c6c0000000000000000000000000000000000000000000000000000606082015260006080820190505b919050565b60208152600f60208201527f496e636f72726563742073746167650000000000000000000000000000000000604082015260006060820190505b919050565b60208152600e60208201527f4e6f7420417574686f72697a6564000000000000000000000000000000000000604082015260006060820190505b919050565b60208152600460208201527f4e6f6f7000000000000000000000000000000000000000000000000000000000604082015260006060820190505b919050565b60208152600d60208201527f4c50205265656e7472616e637900000000000000000000000000000000000000604082015260006060820190505b919050565b60208152600d60208201527f4e6f20636f6c6c61746572616c00000000000000000000000000000000000000604082015260006060820190505b919050565b60208152601160208201527f45746820707269636520696e76616c6964000000000000000000000000000000604082015260006060820190505b919050565b60208152601d60208201527f4e6f20636f6c6c61746572616c20746f2077697468647261772e5b315d000000604082015260006060820190505b919050565b60208152600c60208201527f4578636565647320646562740000000000000000000000000000000000000000604082015260006060820190505b919050565b60208152601760208201527f496e73756666696369656e7420636f6c6c61746572616c000000000000000000604082015260006060820190505b919050565b60208152601d60208201527f416464726573733a2063616c6c20746f206e6f6e2d636f6e7472616374000000604082015260006060820190505b919050565b60208152602a60208201527f5361666545524332303a204552433230206f7065726174696f6e20646964206e60408201527f6f74207375636365656400000000000000000000000000000000000000000000606082015260006080820190505b919050565b60208152601160208201527f6d6f7265207468616e2036342062697473000000000000000000000000000000604082015260006060820190505b919050565b60208152602060208201527f496e73756666696369656e74206e6f20636f6e666964656e636520766f746573604082015260006060820190505b919050565b60006020820190508282525b92915050565b60006040820190508382528260208301525b9392505050565b600060208201905067ffffffffffffffff831682525b92915050565b600060208201905067ffffffffffffffff831682525b92915050565b60006101c08201905067ffffffffffffffff8416825282516020830152602083015160408301526040830151606083015260608301516080830152608083015160a083015260a08301516134ae60c0840182612cd4565b5060c08301516134c160e0840182612cd4565b5060e08301516101006134d681850183612cbb565b808501519150506101206134ec81850183612cb1565b8085015191505061014061350281850183612cd4565b8085015191505061016061351881850183612cc6565b8085015191505061018061352e81850183612c93565b808501519150506135436101a0840182612cd4565b505b9392505050565b600060405190506101a0810181811067ffffffffffffffff8211171561359b577f4e487b7100000000000000000000000000000000000000000000000000000000600052604160045260246000fd5b80604052505b90565b600082198211156135b8576135b76137a5565b5b82820190505b92915050565b600067ffffffffffffffff8083168185168083038211156135e8576135e76137a5565b5b80820193505050505b92915050565b6000600060018092508391505b8085111561365d57817fffffffffffffffffffffffffffffffffffffffffffffffffffffffffffffffff0482111561363f5761363e6137a5565b5b8085161561364d5781830292505b818202915084811c94505b613604565b505b9250929050565b600061367560ff84168361367e565b90505b92915050565b6000821515613690576001905061374b565b8115156136a0576000905061374b565b81600181146136b657600281146136c4576136e2565b600191505061374b566136e2565b60ff8411156136d6576136d56137a5565b5b6001841b91505061374b565b5060208310610133831016604e8410600b84101617156137065782820a905061374b565b61371083836135f7565b807fffffffffffffffffffffffffffffffffffffffffffffffffffffffffffffffff04821115613743576137426137a5565b5b808202925050505b92915050565b600082821015613764576137636137a5565b5b82820390505b92915050565b60005b8381101561378f5780820151818401525b602081019050613773565b8381111561379e576000848401525b505050505b565b7f4e487b7100000000000000000000000000000000000000000000000000000000600052601160045260246000fd5b565b73ffffffffffffffffffffffffffffffffffffffff8116811415156137fb5760006000fd5b505b565b67ffffffffffffffff8116811415156138185760006000fd5b505b565bfea2646970667358221220935f5d0c6f1c0e992ee2a2ab44bd54d50b72e8c8ee45f6d664fc7a0212abb03964736f6c63430008040033",
  "linkReferences": {},
  "deployedLinkReferences": {}
}