{
  "_format": "hh-sol-artifact-1",
  "contractName": "Settlement",
  "sourceName": "contracts/core/logic/Settlement.sol",
  "abi": [
    {
      "inputs": [
        {
          "components": [
            {
              "internalType": "contract IGovernor",
              "name": "Governor",
              "type": "address"
            },
            {
              "internalType": "contract IProtocolLock",
              "name": "ProtocolLock",
              "type": "address"
            },
            {
              "internalType": "contract IPriceProvider",
              "name": "PriceProvider",
              "type": "address"
            },
            {
              "internalType": "contract IAccounting",
              "name": "Accounting",
              "type": "address"
            },
            {
              "internalType": "contract ITCP",
              "name": "Tcp",
              "type": "address"
            },
            {
              "internalType": "contract IHue",
              "name": "Hue",
              "type": "address"
            }
          ],
          "internalType": "struct ISettlement.ConstructorParams",
          "name": "params",
          "type": "tuple"
        }
      ],
      "stateMutability": "nonpayable",
      "type": "constructor"
    },
    {
      "anonymous": false,
      "inputs": [
        {
          "indexed": false,
          "internalType": "address",
          "name": "provider",
          "type": "address"
        }
      ],
      "name": "EthPriceProviderUpdated",
      "type": "event"
    },
    {
      "anonymous": false,
      "inputs": [
        {
          "indexed": true,
          "internalType": "address",
          "name": "account",
          "type": "address"
        }
      ],
      "name": "NoConfidenceConfirmed",
      "type": "event"
    },
    {
      "anonymous": false,
      "inputs": [
        {
          "indexed": true,
          "internalType": "uint64",
          "name": "positionID",
          "type": "uint64"
        },
        {
          "indexed": true,
          "internalType": "address",
          "name": "caller",
          "type": "address"
        },
        {
          "indexed": false,
          "internalType": "uint256",
          "name": "hueCount",
          "type": "uint256"
        },
        {
          "indexed": false,
          "internalType": "uint256",
          "name": "collateralCount",
          "type": "uint256"
        }
      ],
      "name": "SettlementCollateralForHue",
      "type": "event"
    },
    {
      "anonymous": false,
      "inputs": [
        {
          "indexed": false,
          "internalType": "uint256",
          "name": "settlementDiscoveryStartTime",
          "type": "uint256"
        }
      ],
      "name": "SettlementInitialized",
      "type": "event"
    },
    {
      "anonymous": false,
      "inputs": [
        {
          "indexed": true,
          "internalType": "uint64",
          "name": "positionID",
          "type": "uint64"
        },
        {
          "indexed": true,
          "internalType": "address",
          "name": "owner",
          "type": "address"
        },
        {
          "indexed": false,
          "internalType": "uint256",
          "name": "collateralToWithdraw",
          "type": "uint256"
        }
      ],
      "name": "SettlementWithdrawCollateral",
      "type": "event"
    },
    {
      "anonymous": false,
      "inputs": [
        {
          "indexed": true,
          "internalType": "address",
          "name": "account",
          "type": "address"
        },
        {
          "indexed": false,
          "internalType": "uint256",
          "name": "count",
          "type": "uint256"
        }
      ],
      "name": "StakedNoConfidenceTokens",
      "type": "event"
    },
    {
      "anonymous": false,
      "inputs": [],
      "name": "Stopped",
      "type": "event"
    },
    {
      "anonymous": false,
      "inputs": [
        {
          "indexed": true,
          "internalType": "address",
          "name": "account",
          "type": "address"
        },
        {
          "indexed": false,
          "internalType": "uint256",
          "name": "count",
          "type": "uint256"
        }
      ],
      "name": "UnstakedNoConfidenceTokens",
      "type": "event"
    },
    {
      "inputs": [],
      "name": "SETTLEMENT_PRICE_NO_CONFIDENCE_THRESHOLD",
      "outputs": [
        {
          "internalType": "uint256",
          "name": "",
          "type": "uint256"
        }
      ],
      "stateMutability": "view",
      "type": "function"
    },
    {
      "inputs": [],
      "name": "accounting",
      "outputs": [
        {
          "internalType": "contract IAccounting",
          "name": "",
          "type": "address"
        }
      ],
      "stateMutability": "view",
      "type": "function"
    },
    {
      "inputs": [],
      "name": "confirmNoPriceConfidence",
      "outputs": [],
      "stateMutability": "nonpayable",
      "type": "function"
    },
    {
      "inputs": [],
      "name": "confirmPrice",
      "outputs": [],
      "stateMutability": "nonpayable",
      "type": "function"
    },
    {
      "inputs": [],
      "name": "ethPriceProvider",
      "outputs": [
        {
          "internalType": "contract IPriceProvider",
          "name": "",
          "type": "address"
        }
      ],
      "stateMutability": "view",
      "type": "function"
    },
    {
      "inputs": [
        {
          "internalType": "uint64",
          "name": "positionID",
          "type": "uint64"
        },
        {
          "internalType": "uint256",
          "name": "hueCount",
          "type": "uint256"
        }
      ],
      "name": "getCollateralForHue",
      "outputs": [],
      "stateMutability": "nonpayable",
      "type": "function"
    },
    {
      "inputs": [],
      "name": "getRecentPrice",
      "outputs": [
        {
          "internalType": "uint256",
          "name": "ethPrice",
          "type": "uint256"
        }
      ],
      "stateMutability": "view",
      "type": "function"
    },
    {
      "inputs": [],
      "name": "governor",
      "outputs": [
        {
          "internalType": "contract IGovernor",
          "name": "",
          "type": "address"
        }
      ],
      "stateMutability": "view",
      "type": "function"
    },
    {
      "inputs": [],
      "name": "hue",
      "outputs": [
        {
          "internalType": "contract IHue",
          "name": "",
          "type": "address"
        }
      ],
      "stateMutability": "view",
      "type": "function"
    },
    {
      "inputs": [],
      "name": "initializeSettlement",
      "outputs": [],
      "stateMutability": "nonpayable",
      "type": "function"
    },
    {
      "inputs": [
        {
          "internalType": "address",
          "name": "",
          "type": "address"
        }
      ],
      "name": "noPriceConfidenceUserVotes",
      "outputs": [
        {
          "internalType": "uint256",
          "name": "",
          "type": "uint256"
        }
      ],
      "stateMutability": "view",
      "type": "function"
    },
    {
      "inputs": [],
      "name": "priceConfidence",
      "outputs": [
        {
          "internalType": "bool",
          "name": "",
          "type": "bool"
        }
      ],
      "stateMutability": "view",
      "type": "function"
    },
    {
      "inputs": [],
      "name": "priceDiscoveryStartTime",
      "outputs": [
        {
          "internalType": "uint64",
          "name": "",
          "type": "uint64"
        }
      ],
      "stateMutability": "view",
      "type": "function"
    },
    {
      "inputs": [
        {
          "internalType": "contract IPriceProvider",
          "name": "provider",
          "type": "address"
        }
      ],
      "name": "setEthPriceProvider",
      "outputs": [],
      "stateMutability": "nonpayable",
      "type": "function"
    },
    {
      "inputs": [],
      "name": "settlementPrice",
      "outputs": [
        {
          "internalType": "uint256",
          "name": "",
          "type": "uint256"
        }
      ],
      "stateMutability": "view",
      "type": "function"
    },
    {
      "inputs": [],
      "name": "settlementStage",
      "outputs": [
        {
          "internalType": "enum ISettlement.SettlementStage",
          "name": "",
          "type": "uint8"
        }
      ],
      "stateMutability": "view",
      "type": "function"
    },
    {
      "inputs": [
        {
          "internalType": "uint256",
          "name": "countTCPToStake",
          "type": "uint256"
        }
      ],
      "name": "stakeTokensForNoPriceConfidence",
      "outputs": [],
      "stateMutability": "nonpayable",
      "type": "function"
    },
    {
      "inputs": [],
      "name": "stop",
      "outputs": [],
      "stateMutability": "nonpayable",
      "type": "function"
    },
    {
      "inputs": [],
      "name": "stopped",
      "outputs": [
        {
          "internalType": "bool",
          "name": "",
          "type": "bool"
        }
      ],
      "stateMutability": "view",
      "type": "function"
    },
    {
      "inputs": [],
      "name": "tcp",
      "outputs": [
        {
          "internalType": "contract ITCP",
          "name": "",
          "type": "address"
        }
      ],
      "stateMutability": "view",
      "type": "function"
    },
    {
      "inputs": [],
      "name": "thresholdMet",
      "outputs": [
        {
          "internalType": "bool",
          "name": "",
          "type": "bool"
        }
      ],
      "stateMutability": "view",
      "type": "function"
    },
    {
      "inputs": [],
      "name": "unstakeTokensForNoPriceConfidence",
      "outputs": [],
      "stateMutability": "nonpayable",
      "type": "function"
    },
    {
      "inputs": [
        {
          "internalType": "bytes4",
          "name": "",
          "type": "bytes4"
        }
      ],
      "name": "validUpdate",
      "outputs": [
        {
          "internalType": "bool",
          "name": "",
          "type": "bool"
        }
      ],
      "stateMutability": "view",
      "type": "function"
    },
    {
      "inputs": [
        {
          "internalType": "uint64",
          "name": "positionID",
          "type": "uint64"
        }
      ],
      "name": "withdrawCollateral",
      "outputs": [],
      "stateMutability": "nonpayable",
      "type": "function"
    }
  ],
  "bytecode": "0x610120604052600160026000509090556001600560006101000a81548160ff0219169083151502179055507fffffffffffffffffffffffffffffffffffffffffffffffffffffffffffffffff6007600050909055348015620000615760006000fd5b5060405162003b5638038062003b568339818101604052810190620000879190620002a5565b5b806000015181602001515b815b8073ffffffffffffffffffffffffffffffffffffffff1660808173ffffffffffffffffffffffffffffffffffffffff16815260200150505b508073ffffffffffffffffffffffffffffffffffffffff1660a08173ffffffffffffffffffffffffffffffffffffffff16815260200150505b50508060400151600360006101000a81548173ffffffffffffffffffffffffffffffffffffffff021916908373ffffffffffffffffffffffffffffffffffffffff160217905550806060015173ffffffffffffffffffffffffffffffffffffffff1660c08173ffffffffffffffffffffffffffffffffffffffff1681526020015050806080015173ffffffffffffffffffffffffffffffffffffffff1660e08173ffffffffffffffffffffffffffffffffffffffff16815260200150508060a0015173ffffffffffffffffffffffffffffffffffffffff166101008173ffffffffffffffffffffffffffffffffffffffff168152602001505060016001600050600063e4e9bcca60e01b7bffffffffffffffffffffffffffffffffffffffffffffffffffffffff19167bffffffffffffffffffffffffffffffffffffffffffffffffffffffff1916815260200190815260200160002060006101000a81548160ff0219169083151502179055505b50620003675662000366565b6000815190506001600160a01b038116811415156200029f5760006000fd5b5b919050565b600060c08284031215620002b95760006000fd5b60405160c081018181106001600160401b0382111715620002ea57634e487b7160e01b600052604160045260246000fd5b8060405250620002fa8362000280565b81526200030a6020840162000280565b60208201526200031d6040840162000280565b6040820152620003306060840162000280565b6060820152620003436080840162000280565b60808201526200035660a0840162000280565b60a0820152809150505b92915050565b5b60805160a05160c05160e0516101005161372c6200042a600039600081816106b30152610bd70152600081816107e00152818161087e01528181610d7401528181610e120152611861015260008181610abb01528181610b4a01528181610c660152818161125d015281816112ec01526115fb015260008181611e94015261213801526000818161044d015281816108c201528181610eec0152818161103e0152818161149701528181611ad001528181611bda0152611d3c015261372c6000f3fe60806040523480156100115760006000fd5b506004361061019d5760003560e01c806378e8f96e116100e4578063db7f7f1d1161008d578063e4e9bcca11610067578063e4e9bcca146103e7578063f214a2a214610403578063f348e8b21461040d5761019d565b8063db7f7f1d146103b5578063e2083a89146103bf578063e41f7dc1146103c95761019d565b806398cd845b116100be57806398cd845b1461035d578063997aba1a1461038d578063bde5cdb1146103ab5761019d565b806378e8f96e146103035780639410eb86146103215780639624e83e1461033f5761019d565b806336fc02f4116101465780635130e763116101205780635130e763146102ab57806356850960146102c957806375f12b21146102e55761019d565b806336fc02f4146102535780633ee8b30f1461027157806342c5ddc41461028d5761019d565b806315b7ef9b1161017757806315b7ef9b146101fb578063323741741461021957806335a12e45146102375761019d565b806307da68f5146101a35780630c340a24146101ad578063113cf1ab146101cb5761019d565b60006000fd5b6101ab61042b565b005b6101b561044b565b6040516101c29190612725565b60405180910390f35b6101e560048036038101906101e0919061274d565b61046f565b6040516101f291906127a8565b60405180910390f35b610203610494565b60405161021091906127bc565b60405180910390f35b6102216106b1565b60405161022e91906127ce565b60405180910390f35b610251600480360381019061024c91906127f6565b6106d5565b005b61025b61087c565b6040516102689190612814565b60405180910390f35b61028b60048036038101906102869190612859565b6108a0565b005b610295610d64565b6040516102a291906127a8565b60405180910390f35b6102b3610eb7565b6040516102c091906127a8565b60405180910390f35b6102e360048036038101906102de919061288c565b610eca565b005b6102ed611462565b6040516102fa91906127a8565b60405180910390f35b61030b611475565b60405161031891906128e6565b60405180910390f35b6103296115ed565b60405161033691906127bc565b60405180910390f35b6103476115f9565b6040516103549190612931565b60405180910390f35b61037760048036038101906103729190612982565b61161d565b60405161038491906127bc565b60405180910390f35b610395611638565b6040516103a291906129bd565b60405180910390f35b6103b3611652565b005b6103bd61169b565b005b6103c7611772565b005b6103d16118fc565b6040516103de91906129d9565b60405180910390f35b61040160048036038101906103fc9190612a01565b611922565b005b61040b611aae565b005b610415611d2e565b60405161042291906127bc565b60405180910390f35b610439611d3763ffffffff16565b610447611d9763ffffffff16565b5b5b565b7f000000000000000000000000000000000000000000000000000000000000000081565b600160005060205280600052604060002060009150909054906101000a900460ff1681565b600060006000600360009054906101000a900473ffffffffffffffffffffffffffffffffffffffff1673ffffffffffffffffffffffffffffffffffffffff1663feaf968c6040518163ffffffff1660e01b815260040160a060405180830381865afa158015610508573d600060003e3d6000fd5b505050506040513d601f19601f8201168201806040525081019061052c9190612a51565b50935050925050610541611de163ffffffff16565b67ffffffffffffffff16610560610e1083611dfc90919063ffffffff16565b1115156105a2576040517f08c379a000000000000000000000000000000000000000000000000000000000815260040161059990612aa5565b60405180910390fd5b6000821315156105e7576040517f08c379a00000000000000000000000000000000000000000000000000000000081526004016105de90612ae4565b60405180910390fd5b6106a7600360009054906101000a900473ffffffffffffffffffffffffffffffffffffffff1673ffffffffffffffffffffffffffffffffffffffff1663313ce5676040518163ffffffff1660e01b8152600401602060405180830381865afa158015610658573d600060003e3d6000fd5b505050506040513d601f19601f8201168201806040525081019061067c9190612b23565b600a6106889190612cc8565b61069984611e17909063ffffffff16565b611e6c90919063ffffffff16565b9250825050505b90565b7f000000000000000000000000000000000000000000000000000000000000000081565b6106e3611e9263ffffffff16565b6106f36003611f6f63ffffffff16565b600081111515610738576040517f08c379a000000000000000000000000000000000000000000000000000000000815260040161072f90612ce0565b60405180910390fd5b61079081600660005060003373ffffffffffffffffffffffffffffffffffffffff1673ffffffffffffffffffffffffffffffffffffffff16815260200190815260200160002060005054611dfc90919063ffffffff16565b600660005060003373ffffffffffffffffffffffffffffffffffffffff1673ffffffffffffffffffffffffffffffffffffffff16815260200190815260200160002060005081909090555061080d7f0000000000000000000000000000000000000000000000000000000000000000333084611fe863ffffffff16565b61081b61207863ffffffff16565b3373ffffffffffffffffffffffffffffffffffffffff167fedbb4f9340677b55be1420c0b8b3bac9f5b41e08db266f57cfd8befc9fe480d58260405161086191906127bc565b60405180910390a25b61087861212963ffffffff16565b5b50565b7f000000000000000000000000000000000000000000000000000000000000000081565b6108ae611e9263ffffffff16565b6108be6006611f6f63ffffffff16565b60007f000000000000000000000000000000000000000000000000000000000000000073ffffffffffffffffffffffffffffffffffffffff166380f556056040518163ffffffff1660e01b8152600401602060405180830381865afa15801561092c573d600060003e3d6000fd5b505050506040513d601f19601f820116820180604052508101906109509190612d1f565b73ffffffffffffffffffffffffffffffffffffffff1663eb6843ce846040518263ffffffff1660e01b815260040161098891906129bd565b6101a0604051808303816000875af11580156109a9573d600060003e3d6000fd5b505050506040513d601f19601f820116820180604052508101906109cd9190612e26565b905081816040015110151515610a18576040517f08c379a0000000000000000000000000000000000000000000000000000000008152600401610a0f90612f0b565b60405180910390fd5b6000610a3260046000505484611e6c90919063ffffffff16565b905080826020015110151515610a7d576040517f08c379a0000000000000000000000000000000000000000000000000000000008152600401610a7490612f4a565b60405180910390fd5b8082602001818151610a8f9190612f89565b9150909081815260200150508282604001818151610aad9190612f89565b9150909081815260200150507f000000000000000000000000000000000000000000000000000000000000000073ffffffffffffffffffffffffffffffffffffffff16635a6beaf485846040518363ffffffff1660e01b8152600401610b14929190612fdf565b600060405180830381600087803b158015610b2f5760006000fd5b505af1158015610b44573d600060003e3d6000fd5b505050507f000000000000000000000000000000000000000000000000000000000000000073ffffffffffffffffffffffffffffffffffffffff16632a7ba1f7846040518263ffffffff1660e01b8152600401610ba191906127bc565b600060405180830381600087803b158015610bbc5760006000fd5b505af1158015610bd1573d600060003e3d6000fd5b505050507f000000000000000000000000000000000000000000000000000000000000000073ffffffffffffffffffffffffffffffffffffffff166379cc679033856040518363ffffffff1660e01b8152600401610c309291906130d4565b600060405180830381600087803b158015610c4b5760006000fd5b505af1158015610c60573d600060003e3d6000fd5b505050507f000000000000000000000000000000000000000000000000000000000000000073ffffffffffffffffffffffffffffffffffffffff16636250216933836040518363ffffffff1660e01b8152600401610cbf9291906130d4565b600060405180830381600087803b158015610cda5760006000fd5b505af1158015610cef573d600060003e3d6000fd5b505050503373ffffffffffffffffffffffffffffffffffffffff168467ffffffffffffffff167f0d5247bd1efbd67f96fc7a1e9a2a62a42dc9f0279ff6711038be53633079f3f98584604051610d46929190613103565b60405180910390a350505b610d5f61212963ffffffff16565b5b5050565b6000610e1067016345785d8a00007f000000000000000000000000000000000000000000000000000000000000000073ffffffffffffffffffffffffffffffffffffffff166318160ddd6040518163ffffffff1660e01b8152600401602060405180830381865afa158015610dde573d600060003e3d6000fd5b505050506040513d601f19601f82011682018060405250810190610e02919061311c565b6121bb90919063ffffffff16565b7f000000000000000000000000000000000000000000000000000000000000000073ffffffffffffffffffffffffffffffffffffffff166370a08231306040518263ffffffff1660e01b8152600401610e69919061313a565b602060405180830381865afa158015610e87573d600060003e3d6000fd5b505050506040513d601f19601f82011682018060405250810190610eab919061311c565b10159050610eb4565b90565b600560009054906101000a900460ff1681565b610ed8611e9263ffffffff16565b610ee86006611f6f63ffffffff16565b60007f000000000000000000000000000000000000000000000000000000000000000073ffffffffffffffffffffffffffffffffffffffff1663a89f51ae6040518163ffffffff1660e01b8152600401602060405180830381865afa158015610f56573d600060003e3d6000fd5b505050506040513d601f19601f82011682018060405250810190610f7a9190613162565b90508073ffffffffffffffffffffffffffffffffffffffff1663430c208133846040518363ffffffff1660e01b8152600401610fb792919061318b565b602060405180830381865afa158015610fd5573d600060003e3d6000fd5b505050506040513d601f19601f82011682018060405250810190610ff991906131c4565b151561103a576040517f08c379a0000000000000000000000000000000000000000000000000000000008152600401611031906131e9565b60405180910390fd5b60007f000000000000000000000000000000000000000000000000000000000000000073ffffffffffffffffffffffffffffffffffffffff166380f556056040518163ffffffff1660e01b8152600401602060405180830381865afa1580156110a8573d600060003e3d6000fd5b505050506040513d601f19601f820116820180604052508101906110cc9190612d1f565b73ffffffffffffffffffffffffffffffffffffffff1663eb6843ce846040518263ffffffff1660e01b815260040161110491906129bd565b6101a0604051808303816000875af1158015611125573d600060003e3d6000fd5b505050506040513d601f19601f820116820180604052508101906111499190612e26565b905060008160200151111515611194576040517f08c379a000000000000000000000000000000000000000000000000000000000815260040161118b90613228565b60405180910390fd5b60006000826040015114156111b157816020015190508050611236565b60006111cf6004600050548460400151611e6c90919063ffffffff16565b9050826020015181101515611219576040517f08c379a000000000000000000000000000000000000000000000000000000000815260040161121090613267565b60405180910390fd5b6112308184602001516121e190919063ffffffff16565b91508150505b61124d8183602001516121e190919063ffffffff16565b82602001909081815260200150507f000000000000000000000000000000000000000000000000000000000000000073ffffffffffffffffffffffffffffffffffffffff16635a6beaf485846040518363ffffffff1660e01b81526004016112b6929190612fdf565b600060405180830381600087803b1580156112d15760006000fd5b505af11580156112e6573d600060003e3d6000fd5b505050507f000000000000000000000000000000000000000000000000000000000000000073ffffffffffffffffffffffffffffffffffffffff1663625021698473ffffffffffffffffffffffffffffffffffffffff16636352211e876040518263ffffffff1660e01b815260040161135f91906132a6565b602060405180830381865afa15801561137d573d600060003e3d6000fd5b505050506040513d601f19601f820116820180604052508101906113a191906132c2565b836040518363ffffffff1660e01b81526004016113bf9291906130d4565b600060405180830381600087803b1580156113da5760006000fd5b505af11580156113ef573d600060003e3d6000fd5b505050503373ffffffffffffffffffffffffffffffffffffffff168467ffffffffffffffff167fea981567b9c640fd744f52ff99859dc343bdb3752f8f6542b014a546ffa0863b8360405161144491906127bc565b60405180910390a35050505b61145e61212963ffffffff16565b5b50565b600060009054906101000a900460ff1681565b6000600060009054906101000a900460ff161561149557600090506115ea565b7f000000000000000000000000000000000000000000000000000000000000000073ffffffffffffffffffffffffffffffffffffffff1663bf86d6906040518163ffffffff1660e01b8152600401602060405180830381865afa158015611501573d600060003e3d6000fd5b505050506040513d601f19601f8201168201806040525081019061152591906131c4565b151561153457600190506115ea565b6000600560019054906101000a900467ffffffffffffffff1667ffffffffffffffff16141561156657600290506115ea565b600560019054906101000a900467ffffffffffffffff1667ffffffffffffffff16611595611de163ffffffff16565b67ffffffffffffffff1610156115ae57600390506115ea565b600060046000505411156115c557600690506115ea565b600560009054906101000a900460ff166115e05760046115e3565b60055b90506115ea565b90565b67016345785d8a000081565b7f000000000000000000000000000000000000000000000000000000000000000081565b60066000506020528060005260406000206000915090505481565b600560019054906101000a900467ffffffffffffffff1681565b611660611e9263ffffffff16565b6116706005611f6f63ffffffff16565b61167e61049463ffffffff16565b60046000508190909055505b61169861212963ffffffff16565b5b565b6116a9611e9263ffffffff16565b6116b96003611f6f63ffffffff16565b43600760005054101515611702576040517f08c379a00000000000000000000000000000000000000000000000000000000081526004016116f9906132eb565b60405180910390fd5b6000600560006101000a81548160ff0219169083151502179055503373ffffffffffffffffffffffffffffffffffffffff167fcaf37a95bc2985ab407c11d2c65eb92feb22c303997f953e8b2f33a86533ea7a60405160405180910390a25b61176f61212963ffffffff16565b5b565b611780611e9263ffffffff16565b6000600660005060003373ffffffffffffffffffffffffffffffffffffffff1673ffffffffffffffffffffffffffffffffffffffff16815260200190815260200160002060005054905060008111151561180f576040517f08c379a00000000000000000000000000000000000000000000000000000000081526004016118069061332a565b60405180910390fd5b6000600660005060003373ffffffffffffffffffffffffffffffffffffffff1673ffffffffffffffffffffffffffffffffffffffff16815260200190815260200160002060005081909090555061188d7f000000000000000000000000000000000000000000000000000000000000000033836121fc63ffffffff16565b61189b61207863ffffffff16565b3373ffffffffffffffffffffffffffffffffffffffff167f02cdad8fe595d5f15cdf217aa61a8d7002f148da0abc88d26a93eb3122cf0d59826040516118e191906127bc565b60405180910390a2505b6118f961212963ffffffff16565b5b565b600360009054906101000a900473ffffffffffffffffffffffffffffffffffffffff1681565b611930611d3763ffffffff16565b8073ffffffffffffffffffffffffffffffffffffffff1663313ce5676040518163ffffffff1660e01b8152600401602060405180830381865afa15801561197c573d600060003e3d6000fd5b505050506040513d601f19601f820116820180604052508101906119a09190612b23565b508073ffffffffffffffffffffffffffffffffffffffff1663feaf968c6040518163ffffffff1660e01b815260040160a060405180830381865afa1580156119ed573d600060003e3d6000fd5b505050506040513d601f19601f82011682018060405250810190611a119190612a51565b505050505080600360006101000a81548173ffffffffffffffffffffffffffffffffffffffff021916908373ffffffffffffffffffffffffffffffffffffffff1602179055506001600560006101000a81548160ff0219169083151502179055507f9f701229040146d627dc720a259fb0d56c65dda95beb31eb1aae4bc8f7ca9a5a81604051611aa1919061313a565b60405180910390a15b5b50565b611abc611e9263ffffffff16565b611acc6002611f6f63ffffffff16565b60007f000000000000000000000000000000000000000000000000000000000000000073ffffffffffffffffffffffffffffffffffffffff166385aa61036040518163ffffffff1660e01b8152600401602060405180830381865afa158015611b3a573d600060003e3d6000fd5b505050506040513d601f19601f82011682018060405250810190611b5e9190613369565b73ffffffffffffffffffffffffffffffffffffffff16631b8757686040518163ffffffff1660e01b8152600401602060405180830381865afa158015611ba9573d600060003e3d6000fd5b505050506040513d601f19601f82011682018060405250810190611bcd9190613392565b90506000611c806202a3007f000000000000000000000000000000000000000000000000000000000000000073ffffffffffffffffffffffffffffffffffffffff1663585690816040518163ffffffff1660e01b8152600401602060405180830381865afa158015611c44573d600060003e3d6000fd5b505050506040513d601f19601f82011682018060405250810190611c689190613392565b67ffffffffffffffff1661228990919063ffffffff16565b90508067ffffffffffffffff168267ffffffffffffffff1610611ca35781611ca5565b805b600560016101000a81548167ffffffffffffffff021916908367ffffffffffffffff1602179055507f34bf3e2c7325e60cfaee127ed77fc0af0b6f642909e032bac8eab42419e22ca7600560019054906101000a900467ffffffffffffffff16604051611d1291906132a6565b60405180910390a150505b611d2b61212963ffffffff16565b5b565b60046000505481565b611d947f000000000000000000000000000000000000000000000000000000000000000073ffffffffffffffffffffffffffffffffffffffff163373ffffffffffffffffffffffffffffffffffffffff16146122a463ffffffff16565b5b565b6001600060006101000a81548160ff0219169083151502179055507f7acc84e34091ae817647a4c49116f5cc07f319078ba80f8f5fde37ea7e25cbd660405160405180910390a15b565b6000611df4426122ea909063ffffffff16565b905080505b90565b60008183611e0a91906133bb565b9050611e11565b92915050565b600060008212151515611e5f576040517f08c379a0000000000000000000000000000000000000000000000000000000008152600401611e56906133db565b60405180910390fd5b819050611e67565b919050565b6000611e8783670de0b6b3a76400008461234663ffffffff16565b905080505b92915050565b7f000000000000000000000000000000000000000000000000000000000000000073ffffffffffffffffffffffffffffffffffffffff1663e97dcb626040518163ffffffff1660e01b8152600401600060405180830381600087803b158015611efb5760006000fd5b505af1158015611f10573d600060003e3d6000fd5b50505050600260026000505414151515611f5f576040517f08c379a0000000000000000000000000000000000000000000000000000000008152600401611f569061341a565b60405180910390fd5b600260026000508190909055505b565b806006811115611f8257611f816128b5565b5b611f9061147563ffffffff16565b6006811115611fa257611fa16128b5565b5b141515611fe4576040517f08c379a0000000000000000000000000000000000000000000000000000000008152600401611fdb90613459565b60405180910390fd5b5b50565b612071846323b872dd60e01b85858560405160240161200993929190613498565b604051602081830303815290604052907bffffffffffffffffffffffffffffffffffffffffffffffffffffffff19166020820180517bffffffffffffffffffffffffffffffffffffffffffffffffffffffff838183161783525050505061246a63ffffffff16565b5b50505050565b612086610d6463ffffffff16565b156120ca577fffffffffffffffffffffffffffffffffffffffffffffffffffffffffffffffff60076000505414156120c5574360076000508190909055505b612126565b7fffffffffffffffffffffffffffffffffffffffffffffffffffffffffffffffff600760005054141515612125577fffffffffffffffffffffffffffffffffffffffffffffffffffffffffffffffff60076000508190909055505b5b5b565b600160026000508190909055507f000000000000000000000000000000000000000000000000000000000000000073ffffffffffffffffffffffffffffffffffffffff1663e9fad8ee6040518163ffffffff1660e01b8152600401600060405180830381600087803b15801561219f5760006000fd5b505af11580156121b4573d600060003e3d6000fd5b505050505b565b60006121d68383670de0b6b3a764000061234663ffffffff16565b905080505b92915050565b600081836121ef9190612f89565b90506121f6565b92915050565b6122838363a9059cbb60e01b848460405160240161221b9291906130d4565b604051602081830303815290604052907bffffffffffffffffffffffffffffffffffffffffffffffffffffffff19166020820180517bffffffffffffffffffffffffffffffffffffffffffffffffffffffff838183161783525050505061246a63ffffffff16565b5b505050565b6000818361229791906134d2565b905061229e565b92915050565b8015156122e6576040517f08c379a00000000000000000000000000000000000000000000000000000000081526004016122dd906131e9565b60405180910390fd5b5b50565b60006801000000000000000082101515612339576040517f08c379a000000000000000000000000000000000000000000000000000000000815260040161233090613505565b60405180910390fd5b819050612341565b919050565b60006000600060001985870985870292508281108382030391505060008114156123895760008411151561237a5760006000fd5b83820492508292505050612463565b80841115156123985760006000fd5b60008486880990508281118203915080830392506000856001877fffffffffffffffffffffffffffffffffffffffffffffffffffffffffffffffff03011690508050808604955080840493506001818260000304019050808302841793508350600060028760030218905080870260020381029050805080870260020381029050805080870260020381029050805080870260020381029050805080870260020381029050805080870260020381029050805080850295508550508494505050505061246356505050505b9392505050565b60006124cf826040518060400160405280602081526020017f5361666545524332303a206c6f772d6c6576656c2063616c6c206661696c65648152602001508573ffffffffffffffffffffffffffffffffffffffff166125379092919063ffffffff16565b905060008151111561253157808060200190518101906124ef91906131c4565b1515612530576040517f08c379a000000000000000000000000000000000000000000000000000000000815260040161252790613544565b60405180910390fd5b5b505b5050565b606061254c848460008561255a63ffffffff16565b9050612553565b9392505050565b60608247101515156125a1576040517f08c379a0000000000000000000000000000000000000000000000000000000008152600401612598906135a9565b60405180910390fd5b6125b08561268663ffffffff16565b15156125f1576040517f08c379a00000000000000000000000000000000000000000000000000000000081526004016125e89061360e565b60405180910390fd5b600060008673ffffffffffffffffffffffffffffffffffffffff16858760405161261b9190613682565b60006040518083038185875af1925050503d8060008114612658576040519150601f19603f3d011682016040523d82523d6000602084013e61265d565b606091505b50915091506126738282866126af63ffffffff16565b9250505061267e5650505b949350505050565b600060008273ffffffffffffffffffffffffffffffffffffffff163b1190506126aa565b919050565b606083156126c35782905061271a56612719565b6000835111156126db5782518084602001fd50612718565b816040517f08c379a000000000000000000000000000000000000000000000000000000000815260040161270f91906136a1565b60405180910390fd5b5b5b9392505050566136f5565b600060208201905073ffffffffffffffffffffffffffffffffffffffff831682525b92915050565b6000602082840312156127605760006000fd5b81357fffffffff000000000000000000000000000000000000000000000000000000008116811415156127935760006000fd5b809150505b92915050565b801515825250505b565b600060208201905082151582525b92915050565b60006020820190508282525b92915050565b600060208201905073ffffffffffffffffffffffffffffffffffffffff831682525b92915050565b6000602082840312156128095760006000fd5b813590505b92915050565b600060208201905073ffffffffffffffffffffffffffffffffffffffff831682525b92915050565b67ffffffffffffffff8116811415156128555760006000fd5b505b565b600060006040838503121561286e5760006000fd5b82356128798161283c565b80925050602083013590505b9250929050565b60006020828403121561289f5760006000fd5b81356128aa8161283c565b809150505b92915050565b7f4e487b7100000000000000000000000000000000000000000000000000000000600052602160045260246000fd5b565b6000602082019050600783101515612927577f4e487b7100000000000000000000000000000000000000000000000000000000600052602160045260246000fd5b8282525b92915050565b600060208201905073ffffffffffffffffffffffffffffffffffffffff831682525b92915050565b73ffffffffffffffffffffffffffffffffffffffff81168114151561297e5760006000fd5b505b565b6000602082840312156129955760006000fd5b81356129a081612959565b809150505b92915050565b67ffffffffffffffff8116825250505b565b600060208201905067ffffffffffffffff831682525b92915050565b600060208201905073ffffffffffffffffffffffffffffffffffffffff831682525b92915050565b600060208284031215612a145760006000fd5b8135612a1f81612959565b809150505b92915050565b60008151905069ffffffffffffffffffff811681141515612a4b5760006000fd5b5b919050565b6000600060006000600060a08688031215612a6c5760006000fd5b612a7586612a2a565b9450602086015193506040860151925060608601519150612a9860808701612a2a565b90505b9295509295909350565b60208152601260208201527f457468207072696365206973207374616c650000000000000000000000000000604082015260006060820190505b919050565b60208152601160208201527f45746820707269636520696e76616c6964000000000000000000000000000000604082015260006060820190505b919050565b600060208284031215612b365760006000fd5b815160ff811681141515612b4a5760006000fd5b809150505b92915050565b7f4e487b7100000000000000000000000000000000000000000000000000000000600052601160045260246000fd5b565b6000600060018092508391505b80851115612bec57817fffffffffffffffffffffffffffffffffffffffffffffffffffffffffffffffff04821115612bce57612bcd612b55565b5b80851615612bdc5781830292505b818202915084811c94505b612b93565b505b9250929050565b6000821515612c075760019050612cc2565b811515612c175760009050612cc2565b8160018114612c2d5760028114612c3b57612c59565b6001915050612cc256612c59565b60ff841115612c4d57612c4c612b55565b5b6001841b915050612cc2565b5060208310610133831016604e8410600b8410161715612c7d5782820a9050612cc2565b612c878383612b86565b807fffffffffffffffffffffffffffffffffffffffffffffffffffffffffffffffff04821115612cba57612cb9612b55565b5b808202925050505b92915050565b6000612cd760ff841683612bf5565b90505b92915050565b60208152600460208201527f4e6f6f7000000000000000000000000000000000000000000000000000000000604082015260006060820190505b919050565b600060208284031215612d325760006000fd5b8151612d3d81612959565b809150505b92915050565b600060405190506101a0810181811067ffffffffffffffff82111715612d97577f4e487b7100000000000000000000000000000000000000000000000000000000600052604160045260246000fd5b80604052505b90565b600081519050612daf8161283c565b5b919050565b6000815190508060020b81141515612dcd5760006000fd5b5b919050565b60008151905080151581141515612dea5760006000fd5b5b919050565b60008151905063ffffffff811681141515612e0b5760006000fd5b5b919050565b600081519050612e2081612959565b5b919050565b60006101a08284031215612e3a5760006000fd5b612e42612d48565b8251815260208301516020820152604083015160408201526060830151606082015260808301516080820152612e7a60a08401612da0565b60a0820152612e8b60c08401612da0565b60c0820152612e9c60e08401612db5565b60e0820152610100612eaf818501612dd3565b8183015250610120612ec2818501612da0565b8183015250610140612ed5818501612df0565b8183015250610160612ee8818501612e11565b8183015250610180612efb818501612da0565b8183015250809150505b92915050565b60208152600c60208201527f4578636565647320646562740000000000000000000000000000000000000000604082015260006060820190505b919050565b60208152601760208201527f496e73756666696369656e7420636f6c6c61746572616c000000000000000000604082015260006060820190505b919050565b600082821015612f9c57612f9b612b55565b5b82820390505b92915050565b8060020b825250505b565b63ffffffff8116825250505b565b73ffffffffffffffffffffffffffffffffffffffff8116825250505b565b60006101c08201905067ffffffffffffffff8416825282516020830152602083015160408301526040830151606083015260608301516080830152608083015160a083015260a083015161303660c08401826129ab565b5060c083015161304960e08401826129ab565b5060e083015161010061305e81850183612fa8565b808501519150506101206130748185018361279e565b8085015191505061014061308a818501836129ab565b808501519150506101606130a081850183612fb3565b808501519150506101806130b681850183612fc1565b808501519150506130cb6101a08401826129ab565b505b9392505050565b600060408201905073ffffffffffffffffffffffffffffffffffffffff841682528260208301525b9392505050565b60006040820190508382528260208301525b9392505050565b60006020828403121561312f5760006000fd5b815190505b92915050565b600060208201905073ffffffffffffffffffffffffffffffffffffffff831682525b92915050565b6000602082840312156131755760006000fd5b815161318081612959565b809150505b92915050565b600060408201905073ffffffffffffffffffffffffffffffffffffffff8416825267ffffffffffffffff831660208301525b9392505050565b6000602082840312156131d75760006000fd5b6131e082612dd3565b90505b92915050565b60208152600e60208201527f4e6f7420417574686f72697a6564000000000000000000000000000000000000604082015260006060820190505b919050565b60208152600d60208201527f4e6f20636f6c6c61746572616c00000000000000000000000000000000000000604082015260006060820190505b919050565b60208152601d60208201527f4e6f20636f6c6c61746572616c20746f2077697468647261772e5b315d000000604082015260006060820190505b919050565b600060208201905067ffffffffffffffff831682525b92915050565b6000602082840312156132d55760006000fd5b81516132e081612959565b809150505b92915050565b60208152602060208201527f496e73756666696369656e74206e6f20636f6e666964656e636520766f746573604082015260006060820190505b919050565b60208152601060208201527f4e6f20746f6b656e73207374616b656400000000000000000000000000000000604082015260006060820190505b919050565b60006020828403121561337c5760006000fd5b815161338781612959565b809150505b92915050565b6000602082840312156133a55760006000fd5b81516133b08161283c565b809150505b92915050565b600082198211156133cf576133ce612b55565b5b82820190505b92915050565b60208152601260208201527f76616c7565206e6f7420706f7369746976650000000000000000000000000000604082015260006060820190505b919050565b60208152600d60208201527f4c50205265656e7472616e637900000000000000000000000000000000000000604082015260006060820190505b919050565b60208152600f60208201527f496e636f72726563742073746167650000000000000000000000000000000000604082015260006060820190505b919050565b600060608201905073ffffffffffffffffffffffffffffffffffffffff80861683528085166020840152508260408301525b949350505050565b600067ffffffffffffffff8083168185168083038211156134f6576134f5612b55565b5b80820193505050505b92915050565b60208152601160208201527f6d6f7265207468616e2036342062697473000000000000000000000000000000604082015260006060820190505b919050565b60208152602a60208201527f5361666545524332303a204552433230206f7065726174696f6e20646964206e60408201527f6f74207375636365656400000000000000000000000000000000000000000000606082015260006080820190505b919050565b60208152602660208201527f416464726573733a20696e73756666696369656e742062616c616e636520666f60408201527f722063616c6c0000000000000000000000000000000000000000000000000000606082015260006080820190505b919050565b60208152601d60208201527f416464726573733a2063616c6c20746f206e6f6e2d636f6e7472616374000000604082015260006060820190505b919050565b60005b8381101561366c5780820151818401525b602081019050613650565b8381111561367b576000848401525b505050505b565b6000825161369481846020870161364d565b8083019150505b92915050565b60208152600082518060208401526136c081604085016020870161364d565b60407fffffffffffffffffffffffffffffffffffffffffffffffffffffffffffffffe0601f8301168401019150505b92915050565bfea26469706673582212204cab9465702df5352275b1a2ec3a7299988ff82798242471951f674dd0c4836664736f6c634300080c0033",
  "linkReferences": {},
  "deployedLinkReferences": {}
}