{
  "_format": "hh-sol-artifact-1",
  "contractName": "TcpSafeMath",
  "sourceName": "contracts/core/utils/TcpSafeMath.sol",
  "abi": [
    {
      "inputs": [],
      "name": "ONE",
      "outputs": [
        {
          "internalType": "uint256",
          "name": "",
          "type": "uint256"
        }
      ],
      "stateMutability": "view",
      "type": "function"
    }
  ],
  "bytecode": "0x60ae610055600b82828239805160001a6073141515610047577f4e487b7100000000000000000000000000000000000000000000000000000000600052600060045260246000fd5b30600052607381538281f350fe730000000000000000000000000000000000000000301460806040526004361060365760003560e01c8063c2ee3a0814603c576036565b60006000fd5b60426056565b604051604d91906065565b60405180910390f35b670de0b6b3a764000081566077565b60006020820190508282525b92915050565bfea26469706673582212203e051504b4ee8a1964fef2914fd3dac4c58cacb4984fb2f45e6bb8019a73171064736f6c63430008040033",
  "linkReferences": {},
  "deployedLinkReferences": {}
}