{
  "_format": "hh-sol-artifact-1",
  "contractName": "TruEth",
  "sourceName": "contracts/core/tokens/TruEth.sol",
  "abi": [
    {
      "inputs": [
        {
          "internalType": "address",
          "name": "admin_",
          "type": "address"
        }
      ],
      "stateMutability": "nonpayable",
      "type": "constructor"
    },
    {
      "anonymous": false,
      "inputs": [
        {
          "indexed": true,
          "internalType": "address",
          "name": "owner",
          "type": "address"
        },
        {
          "indexed": true,
          "internalType": "address",
          "name": "spender",
          "type": "address"
        },
        {
          "indexed": false,
          "internalType": "uint256",
          "name": "value",
          "type": "uint256"
        }
      ],
      "name": "Approval",
      "type": "event"
    },
    {
      "anonymous": false,
      "inputs": [
        {
          "indexed": true,
          "internalType": "address",
          "name": "from",
          "type": "address"
        },
        {
          "indexed": true,
          "internalType": "address",
          "name": "to",
          "type": "address"
        },
        {
          "indexed": false,
          "internalType": "uint256",
          "name": "value",
          "type": "uint256"
        }
      ],
      "name": "Transfer",
      "type": "event"
    },
    {
      "inputs": [
        {
          "internalType": "address",
          "name": "account",
          "type": "address"
        }
      ],
      "name": "addAuth",
      "outputs": [],
      "stateMutability": "nonpayable",
      "type": "function"
    },
    {
      "inputs": [],
      "name": "admin",
      "outputs": [
        {
          "internalType": "address",
          "name": "",
          "type": "address"
        }
      ],
      "stateMutability": "view",
      "type": "function"
    },
    {
      "inputs": [
        {
          "internalType": "address",
          "name": "owner",
          "type": "address"
        },
        {
          "internalType": "address",
          "name": "spender",
          "type": "address"
        }
      ],
      "name": "allowance",
      "outputs": [
        {
          "internalType": "uint256",
          "name": "",
          "type": "uint256"
        }
      ],
      "stateMutability": "view",
      "type": "function"
    },
    {
      "inputs": [
        {
          "internalType": "address",
          "name": "spender",
          "type": "address"
        },
        {
          "internalType": "uint256",
          "name": "amount",
          "type": "uint256"
        }
      ],
      "name": "approve",
      "outputs": [
        {
          "internalType": "bool",
          "name": "",
          "type": "bool"
        }
      ],
      "stateMutability": "nonpayable",
      "type": "function"
    },
    {
      "inputs": [
        {
          "internalType": "address",
          "name": "account",
          "type": "address"
        }
      ],
      "name": "approveAddress",
      "outputs": [],
      "stateMutability": "nonpayable",
      "type": "function"
    },
    {
      "inputs": [
        {
          "internalType": "address",
          "name": "",
          "type": "address"
        }
      ],
      "name": "approvedAddresses",
      "outputs": [
        {
          "internalType": "bool",
          "name": "",
          "type": "bool"
        }
      ],
      "stateMutability": "view",
      "type": "function"
    },
    {
      "inputs": [
        {
          "internalType": "address",
          "name": "account",
          "type": "address"
        }
      ],
      "name": "balanceOf",
      "outputs": [
        {
          "internalType": "uint256",
          "name": "",
          "type": "uint256"
        }
      ],
      "stateMutability": "view",
      "type": "function"
    },
    {
      "inputs": [],
      "name": "decimals",
      "outputs": [
        {
          "internalType": "uint8",
          "name": "",
          "type": "uint8"
        }
      ],
      "stateMutability": "view",
      "type": "function"
    },
    {
      "inputs": [
        {
          "internalType": "address",
          "name": "spender",
          "type": "address"
        },
        {
          "internalType": "uint256",
          "name": "subtractedValue",
          "type": "uint256"
        }
      ],
      "name": "decreaseAllowance",
      "outputs": [
        {
          "internalType": "bool",
          "name": "",
          "type": "bool"
        }
      ],
      "stateMutability": "nonpayable",
      "type": "function"
    },
    {
      "inputs": [
        {
          "internalType": "address",
          "name": "spender",
          "type": "address"
        },
        {
          "internalType": "uint256",
          "name": "addedValue",
          "type": "uint256"
        }
      ],
      "name": "increaseAllowance",
      "outputs": [
        {
          "internalType": "bool",
          "name": "",
          "type": "bool"
        }
      ],
      "stateMutability": "nonpayable",
      "type": "function"
    },
    {
      "inputs": [
        {
          "internalType": "address",
          "name": "",
          "type": "address"
        }
      ],
      "name": "isAuthorized",
      "outputs": [
        {
          "internalType": "bool",
          "name": "",
          "type": "bool"
        }
      ],
      "stateMutability": "view",
      "type": "function"
    },
    {
      "inputs": [
        {
          "internalType": "uint256",
          "name": "amount",
          "type": "uint256"
        },
        {
          "internalType": "address[]",
          "name": "accounts",
          "type": "address[]"
        }
      ],
      "name": "mint",
      "outputs": [],
      "stateMutability": "nonpayable",
      "type": "function"
    },
    {
      "inputs": [],
      "name": "name",
      "outputs": [
        {
          "internalType": "string",
          "name": "",
          "type": "string"
        }
      ],
      "stateMutability": "view",
      "type": "function"
    },
    {
      "inputs": [
        {
          "internalType": "address",
          "name": "account",
          "type": "address"
        }
      ],
      "name": "removeAddressApproval",
      "outputs": [],
      "stateMutability": "nonpayable",
      "type": "function"
    },
    {
      "inputs": [
        {
          "internalType": "address",
          "name": "account",
          "type": "address"
        }
      ],
      "name": "removeAuth",
      "outputs": [],
      "stateMutability": "nonpayable",
      "type": "function"
    },
    {
      "inputs": [],
      "name": "symbol",
      "outputs": [
        {
          "internalType": "string",
          "name": "",
          "type": "string"
        }
      ],
      "stateMutability": "view",
      "type": "function"
    },
    {
      "inputs": [],
      "name": "totalSupply",
      "outputs": [
        {
          "internalType": "uint256",
          "name": "",
          "type": "uint256"
        }
      ],
      "stateMutability": "view",
      "type": "function"
    },
    {
      "inputs": [
        {
          "internalType": "address",
          "name": "to",
          "type": "address"
        },
        {
          "internalType": "uint256",
          "name": "amount",
          "type": "uint256"
        }
      ],
      "name": "transfer",
      "outputs": [
        {
          "internalType": "bool",
          "name": "",
          "type": "bool"
        }
      ],
      "stateMutability": "nonpayable",
      "type": "function"
    },
    {
      "inputs": [
        {
          "internalType": "address",
          "name": "from",
          "type": "address"
        },
        {
          "internalType": "address",
          "name": "to",
          "type": "address"
        },
        {
          "internalType": "uint256",
          "name": "amount",
          "type": "uint256"
        }
      ],
      "name": "transferFrom",
      "outputs": [
        {
          "internalType": "bool",
          "name": "",
          "type": "bool"
        }
      ],
      "stateMutability": "nonpayable",
      "type": "function"
    }
  ],
  "bytecode": "0x60a06040523480156100115760006000fd5b50604051611bda380380611bda83398181016040528101906100339190610076565b5b8073ffffffffffffffffffffffffffffffffffffffff1660808173ffffffffffffffffffffffffffffffffffffffff16815260200150505b506100af566100ae565b6000602082840312156100895760006000fd5b81516001600160a01b038116811415156100a35760006000fd5b809150505b92915050565b5b608051611aed6100ed60003960008181610433015281816106230152818161072e0152818161089601528181610b6f0152610b960152611aed6000f3fe60806040523480156100115760006000fd5b50600436106101565760003560e01c806370a08231116100ce578063dd62ed3e11610082578063f851a44011610067578063f851a440146103c4578063fabf657a146103e2578063fe9fbb80146103fe57610156565b8063dd62ed3e14610364578063f136a8741461039457610156565b806395d89b41116100b357806395d89b41146102e6578063a457c2d714610304578063a9059cbb1461033457610156565b806370a082311461029a5780637f3fd918146102ca57610156565b806323b872dd11610125578063395093511161010a57806339509351146102325780634e6cca8f146102625780635422224e1461027e57610156565b806323b872dd146101e4578063313ce5671461021457610156565b80630198863e1461015c57806306fdde0314610178578063095ea7b31461019657806318160ddd146101c657610156565b60006000fd5b61017660048036038101906101719190611400565b61042e565b005b6101806104eb565b60405161018d9190611425565b60405180910390f35b6101b060048036038101906101ab919061149f565b610530565b6040516101bd91906114ce565b60405180910390f35b6101ce610566565b6040516101db91906114e2565b60405180910390f35b6101fe60048036038101906101f991906114f4565b610578565b60405161020b91906114ce565b60405180910390f35b61021c6105c0565b6040516102299190611533565b60405180910390f35b61024c6004803603810190610247919061149f565b6105ce565b60405161025991906114ce565b60405180910390f35b61027c60048036038101906102779190611579565b61061e565b005b61029860048036038101906102939190611400565b610729565b005b6102b460048036038101906102af9190611400565b61083d565b6040516102c191906114e2565b60405180910390f35b6102e460048036038101906102df9190611400565b610891565b005b6102ee6109a5565b6040516102fb9190611425565b60405180910390f35b61031e6004803603810190610319919061149f565b6109ea565b60405161032b91906114ce565b60405180910390f35b61034e6004803603810190610349919061149f565b610a7d565b60405161035b91906114ce565b60405180910390f35b61037e6004803603810190610379919061167c565b610ab3565b60405161038b91906114e2565b60405180910390f35b6103ae60048036038101906103a99190611400565b610b48565b6040516103bb91906114ce565b60405180910390f35b6103cc610b6d565b6040516103d991906116b2565b60405180910390f35b6103fc60048036038101906103f79190611400565b610b91565b005b61041860048036038101906104139190611400565b610c4e565b60405161042591906114ce565b60405180910390f35b61048b7f000000000000000000000000000000000000000000000000000000000000000073ffffffffffffffffffffffffffffffffffffffff163373ffffffffffffffffffffffffffffffffffffffff1614610c7363ffffffff16565b6000600460005060008373ffffffffffffffffffffffffffffffffffffffff1673ffffffffffffffffffffffffffffffffffffffff16815260200190815260200160002060006101000a81548160ff0219169083151502179055505b5b50565b60606040518060400160405280600d81526020017f54727573746c6573732045746800000000000000000000000000000000000000815260200150905061052d565b90565b60006000610542610cb963ffffffff16565b9050610555818585610cc663ffffffff16565b600191505061056056505b92915050565b60006002600050549050610575565b90565b6000600061058a610cb963ffffffff16565b905061059d858285610ea163ffffffff16565b6105ae858585610f9863ffffffff16565b60019150506105b956505b9392505050565b6000601290506105cb565b90565b600060006105e0610cb963ffffffff16565b905061060d8185856105f88589610ab363ffffffff16565b610602919061170b565b610cc663ffffffff16565b600191505061061856505b92915050565b6106d27f000000000000000000000000000000000000000000000000000000000000000073ffffffffffffffffffffffffffffffffffffffff163373ffffffffffffffffffffffffffffffffffffffff1614806106c75750600360005060003373ffffffffffffffffffffffffffffffffffffffff1673ffffffffffffffffffffffffffffffffffffffff16815260200190815260200160002060009054906101000a900460ff165b610c7363ffffffff16565b6000600090505b81518110156107225761070e82828151811015156106fa576106f961172b565b5b60200260200101518461124463ffffffff16565b5b808061071a9061175c565b9150506106d9565b505b5b5050565b6107dd7f000000000000000000000000000000000000000000000000000000000000000073ffffffffffffffffffffffffffffffffffffffff163373ffffffffffffffffffffffffffffffffffffffff1614806107d25750600360005060003373ffffffffffffffffffffffffffffffffffffffff1673ffffffffffffffffffffffffffffffffffffffff16815260200190815260200160002060009054906101000a900460ff165b610c7363ffffffff16565b6001600360005060008373ffffffffffffffffffffffffffffffffffffffff1673ffffffffffffffffffffffffffffffffffffffff16815260200190815260200160002060006101000a81548160ff0219169083151502179055505b5b50565b6000600060005060008373ffffffffffffffffffffffffffffffffffffffff1673ffffffffffffffffffffffffffffffffffffffff16815260200190815260200160002060005054905061088c565b919050565b6109457f000000000000000000000000000000000000000000000000000000000000000073ffffffffffffffffffffffffffffffffffffffff163373ffffffffffffffffffffffffffffffffffffffff16148061093a5750600360005060003373ffffffffffffffffffffffffffffffffffffffff1673ffffffffffffffffffffffffffffffffffffffff16815260200190815260200160002060009054906101000a900460ff165b610c7363ffffffff16565b6000600360005060008373ffffffffffffffffffffffffffffffffffffffff1673ffffffffffffffffffffffffffffffffffffffff16815260200190815260200160002060006101000a81548160ff0219169083151502179055505b5b50565b60606040518060400160405280600681526020017f547275457468000000000000000000000000000000000000000000000000000081526020015090506109e7565b90565b600060006109fc610cb963ffffffff16565b90506000610a108286610ab363ffffffff16565b9050838110151515610a57576040517f08c379a0000000000000000000000000000000000000000000000000000000008152600401610a4e9061179b565b60405180910390fd5b610a6a8286868403610cc663ffffffff16565b600192505050610a775650505b92915050565b60006000610a8f610cb963ffffffff16565b9050610aa2818585610f9863ffffffff16565b6001915050610aad56505b92915050565b6000600160005060008473ffffffffffffffffffffffffffffffffffffffff1673ffffffffffffffffffffffffffffffffffffffff16815260200190815260200160002060005060008373ffffffffffffffffffffffffffffffffffffffff1673ffffffffffffffffffffffffffffffffffffffff168152602001908152602001600020600050549050610b42565b92915050565b600460005060205280600052604060002060009150909054906101000a900460ff1681565b7f000000000000000000000000000000000000000000000000000000000000000081565b610bee7f000000000000000000000000000000000000000000000000000000000000000073ffffffffffffffffffffffffffffffffffffffff163373ffffffffffffffffffffffffffffffffffffffff1614610c7363ffffffff16565b6001600460005060008373ffffffffffffffffffffffffffffffffffffffff1673ffffffffffffffffffffffffffffffffffffffff16815260200190815260200160002060006101000a81548160ff0219169083151502179055505b5b50565b600360005060205280600052604060002060009150909054906101000a900460ff1681565b801515610cb5576040517f08c379a0000000000000000000000000000000000000000000000000000000008152600401610cac90611800565b60405180910390fd5b5b50565b6000339050610cc3565b90565b600073ffffffffffffffffffffffffffffffffffffffff168373ffffffffffffffffffffffffffffffffffffffff1614151515610d38576040517f08c379a0000000000000000000000000000000000000000000000000000000008152600401610d2f9061183f565b60405180910390fd5b600073ffffffffffffffffffffffffffffffffffffffff168273ffffffffffffffffffffffffffffffffffffffff1614151515610daa576040517f08c379a0000000000000000000000000000000000000000000000000000000008152600401610da1906118a4565b60405180910390fd5b80600160005060008573ffffffffffffffffffffffffffffffffffffffff1673ffffffffffffffffffffffffffffffffffffffff16815260200190815260200160002060005060008473ffffffffffffffffffffffffffffffffffffffff1673ffffffffffffffffffffffffffffffffffffffff1681526020019081526020016000206000508190909055508173ffffffffffffffffffffffffffffffffffffffff168373ffffffffffffffffffffffffffffffffffffffff167f8c5be1e5ebec7d5bd14f71427d1e84f3dd0314c0f7b2291e5b200ac8c7c3b92583604051610e9391906114e2565b60405180910390a35b505050565b600460005060008373ffffffffffffffffffffffffffffffffffffffff1673ffffffffffffffffffffffffffffffffffffffff16815260200190815260200160002060009054906101000a900460ff1615610efb57610f93565b6000610f0d8484610ab363ffffffff16565b90507fffffffffffffffffffffffffffffffffffffffffffffffffffffffffffffffff81141515610f9157818110151515610f7d576040517f08c379a0000000000000000000000000000000000000000000000000000000008152600401610f7490611909565b60405180910390fd5b610f908484848403610cc663ffffffff16565b5b505b505050565b600073ffffffffffffffffffffffffffffffffffffffff168373ffffffffffffffffffffffffffffffffffffffff161415151561100a576040517f08c379a000000000000000000000000000000000000000000000000000000000815260040161100190611948565b60405180910390fd5b600073ffffffffffffffffffffffffffffffffffffffff168273ffffffffffffffffffffffffffffffffffffffff161415151561107c576040517f08c379a0000000000000000000000000000000000000000000000000000000008152600401611073906119ad565b60405180910390fd5b61108d8383836113bf63ffffffff16565b6000600060005060008573ffffffffffffffffffffffffffffffffffffffff1673ffffffffffffffffffffffffffffffffffffffff16815260200190815260200160002060005054905081811015151561111c576040517f08c379a000000000000000000000000000000000000000000000000000000000815260040161111390611a12565b60405180910390fd5b818103600060005060008673ffffffffffffffffffffffffffffffffffffffff1673ffffffffffffffffffffffffffffffffffffffff16815260200190815260200160002060005081909090555081600060005060008573ffffffffffffffffffffffffffffffffffffffff1673ffffffffffffffffffffffffffffffffffffffff168152602001908152602001600020600082828250546111be919061170b565b9250508190909055508273ffffffffffffffffffffffffffffffffffffffff168473ffffffffffffffffffffffffffffffffffffffff167fddf252ad1be2c89b69c2b068fc378daa952ba7f163c4a11628f55a4df523b3ef8460405161122491906114e2565b60405180910390a361123d8484846113c563ffffffff16565b505b505050565b600073ffffffffffffffffffffffffffffffffffffffff168273ffffffffffffffffffffffffffffffffffffffff16141515156112b6576040517f08c379a00000000000000000000000000000000000000000000000000000000081526004016112ad90611a77565b60405180910390fd5b6112c8600083836113bf63ffffffff16565b806002600082828250546112dc919061170b565b92505081909090555080600060005060008473ffffffffffffffffffffffffffffffffffffffff1673ffffffffffffffffffffffffffffffffffffffff16815260200190815260200160002060008282825054611339919061170b565b9250508190909055508173ffffffffffffffffffffffffffffffffffffffff16600073ffffffffffffffffffffffffffffffffffffffff167fddf252ad1be2c89b69c2b068fc378daa952ba7f163c4a11628f55a4df523b3ef836040516113a091906114e2565b60405180910390a36113ba600083836113c563ffffffff16565b5b5050565b5b505050565b5b50505056611ab6565b60008135905073ffffffffffffffffffffffffffffffffffffffff8116811415156113fa5760006000fd5b5b919050565b6000602082840312156114135760006000fd5b61141c826113cf565b90505b92915050565b600060208083528351808285015260005b8181101561145657828187010151604082870101525b8281019050611436565b81811115611468576000604083870101525b5060407fffffffffffffffffffffffffffffffffffffffffffffffffffffffffffffffe0601f830116850101925050505b92915050565b60006000604083850312156114b45760006000fd5b6114bd836113cf565b9150602083013590505b9250929050565b600060208201905082151582525b92915050565b60006020820190508282525b92915050565b6000600060006060848603121561150b5760006000fd5b611514846113cf565b9250611522602085016113cf565b9150604084013590505b9250925092565b600060208201905060ff831682525b92915050565b7f4e487b7100000000000000000000000000000000000000000000000000000000600052604160045260246000fd5b565b600060006040838503121561158e5760006000fd5b8235915060208084013567ffffffffffffffff808211156115af5760006000fd5b818601915086601f83011215156115c65760006000fd5b8135818111156115d9576115d8611548565b5b8060051b6040517fffffffffffffffffffffffffffffffffffffffffffffffffffffffffffffffe0603f8301168101818110858211171561161d5761161c611548565b5b8060405250809350828152858101935085828601019250898311156116425760006000fd5b85850194505b8285101561166b57611659856113cf565b845285840193505b8585019450611648565b8096505050505050505b9250929050565b60006000604083850312156116915760006000fd5b61169a836113cf565b91506116a8602084016113cf565b90505b9250929050565b600060208201905073ffffffffffffffffffffffffffffffffffffffff831682525b92915050565b7f4e487b7100000000000000000000000000000000000000000000000000000000600052601160045260246000fd5b565b6000821982111561171f5761171e6116da565b5b82820190505b92915050565b7f4e487b7100000000000000000000000000000000000000000000000000000000600052603260045260246000fd5b565b60007fffffffffffffffffffffffffffffffffffffffffffffffffffffffffffffffff82141561178f5761178e6116da565b5b6001820190505b919050565b60208152602560208201527f45524332303a2064656372656173656420616c6c6f77616e63652062656c6f7760408201527f207a65726f000000000000000000000000000000000000000000000000000000606082015260006080820190505b919050565b60208152600e60208201527f4e6f7420417574686f72697a6564000000000000000000000000000000000000604082015260006060820190505b919050565b60208152602460208201527f45524332303a20617070726f76652066726f6d20746865207a65726f2061646460408201527f7265737300000000000000000000000000000000000000000000000000000000606082015260006080820190505b919050565b60208152602260208201527f45524332303a20617070726f766520746f20746865207a65726f20616464726560408201527f7373000000000000000000000000000000000000000000000000000000000000606082015260006080820190505b919050565b60208152601d60208201527f45524332303a20696e73756666696369656e7420616c6c6f77616e6365000000604082015260006060820190505b919050565b60208152602560208201527f45524332303a207472616e736665722066726f6d20746865207a65726f20616460408201527f6472657373000000000000000000000000000000000000000000000000000000606082015260006080820190505b919050565b60208152602360208201527f45524332303a207472616e7366657220746f20746865207a65726f206164647260408201527f6573730000000000000000000000000000000000000000000000000000000000606082015260006080820190505b919050565b60208152602660208201527f45524332303a207472616e7366657220616d6f756e742065786365656473206260408201527f616c616e63650000000000000000000000000000000000000000000000000000606082015260006080820190505b919050565b60208152601f60208201527f45524332303a206d696e7420746f20746865207a65726f206164647265737300604082015260006060820190505b919050565bfea264697066735822122026b60e295b5c83fbb2945705733187b56113d1df2188f36e09ac462799a3c9af64736f6c634300080c0033",
  "linkReferences": {},
  "deployedLinkReferences": {}
}