{
  "_format": "hh-sol-artifact-1",
  "contractName": "PricesTestable",
  "sourceName": "contracts/core/mocks/PricesTestable.sol",
  "abi": [
    {
      "inputs": [
        {
          "components": [
            {
              "internalType": "contract IGovernor",
              "name": "Governor",
              "type": "address"
            },
            {
              "internalType": "address",
              "name": "Weth",
              "type": "address"
            },
            {
              "internalType": "address",
              "name": "Tcp",
              "type": "address"
            },
            {
              "internalType": "address",
              "name": "Hue",
              "type": "address"
            },
            {
              "internalType": "contract IUniswapV3Pool",
              "name": "CollateralPool",
              "type": "address"
            },
            {
              "internalType": "contract IUniswapV3Pool",
              "name": "ProtocolPool",
              "type": "address"
            }
          ],
          "internalType": "struct IPrices.ConstructorParams",
          "name": "params",
          "type": "tuple"
        }
      ],
      "stateMutability": "nonpayable",
      "type": "constructor"
    },
    {
      "anonymous": false,
      "inputs": [
        {
          "indexed": true,
          "internalType": "address",
          "name": "pool",
          "type": "address"
        },
        {
          "indexed": false,
          "internalType": "uint256",
          "name": "price",
          "type": "uint256"
        },
        {
          "indexed": false,
          "internalType": "int24",
          "name": "tick",
          "type": "int24"
        }
      ],
      "name": "PriceUpdated",
      "type": "event"
    },
    {
      "anonymous": false,
      "inputs": [],
      "name": "Stopped",
      "type": "event"
    },
    {
      "inputs": [],
      "name": "__now",
      "outputs": [
        {
          "internalType": "uint32[]",
          "name": "times",
          "type": "uint32[]"
        }
      ],
      "stateMutability": "pure",
      "type": "function"
    },
    {
      "inputs": [
        {
          "internalType": "uint64",
          "name": "input",
          "type": "uint64"
        }
      ],
      "name": "calculate64To32",
      "outputs": [
        {
          "internalType": "uint32",
          "name": "",
          "type": "uint32"
        }
      ],
      "stateMutability": "pure",
      "type": "function"
    },
    {
      "inputs": [
        {
          "internalType": "uint32",
          "name": "twapDuration",
          "type": "uint32"
        }
      ],
      "name": "calculateInstantCollateralPrice",
      "outputs": [
        {
          "internalType": "uint256",
          "name": "",
          "type": "uint256"
        }
      ],
      "stateMutability": "view",
      "type": "function"
    },
    {
      "inputs": [
        {
          "internalType": "contract IUniswapV3Pool",
          "name": "pool",
          "type": "address"
        },
        {
          "internalType": "uint32",
          "name": "twapDuration",
          "type": "uint32"
        }
      ],
      "name": "calculateInstantTwappedPrice",
      "outputs": [
        {
          "internalType": "uint256",
          "name": "",
          "type": "uint256"
        }
      ],
      "stateMutability": "view",
      "type": "function"
    },
    {
      "inputs": [
        {
          "internalType": "contract IUniswapV3Pool",
          "name": "pool",
          "type": "address"
        },
        {
          "internalType": "uint32",
          "name": "twapDuration",
          "type": "uint32"
        }
      ],
      "name": "calculateInstantTwappedTick",
      "outputs": [
        {
          "internalType": "int24",
          "name": "tick",
          "type": "int24"
        }
      ],
      "stateMutability": "view",
      "type": "function"
    },
    {
      "inputs": [
        {
          "internalType": "contract IUniswapV3Pool",
          "name": "pool",
          "type": "address"
        },
        {
          "internalType": "bool",
          "name": "normalizeDecimals",
          "type": "bool"
        }
      ],
      "name": "calculateTwappedPrice",
      "outputs": [
        {
          "internalType": "uint256",
          "name": "price",
          "type": "uint256"
        }
      ],
      "stateMutability": "view",
      "type": "function"
    },
    {
      "inputs": [],
      "name": "collateralPool",
      "outputs": [
        {
          "internalType": "contract IUniswapV3Pool",
          "name": "",
          "type": "address"
        }
      ],
      "stateMutability": "view",
      "type": "function"
    },
    {
      "inputs": [],
      "name": "deployer",
      "outputs": [
        {
          "internalType": "address",
          "name": "",
          "type": "address"
        }
      ],
      "stateMutability": "view",
      "type": "function"
    },
    {
      "inputs": [
        {
          "internalType": "uint160",
          "name": "sqrtPriceX96",
          "type": "uint160"
        }
      ],
      "name": "getE18PriceForSqrtX96Price",
      "outputs": [
        {
          "internalType": "uint256",
          "name": "",
          "type": "uint256"
        }
      ],
      "stateMutability": "pure",
      "type": "function"
    },
    {
      "inputs": [
        {
          "internalType": "int24",
          "name": "tick",
          "type": "int24"
        },
        {
          "internalType": "bool",
          "name": "isToken0",
          "type": "bool"
        }
      ],
      "name": "getPriceForTick",
      "outputs": [
        {
          "internalType": "uint256",
          "name": "price",
          "type": "uint256"
        }
      ],
      "stateMutability": "pure",
      "type": "function"
    },
    {
      "inputs": [
        {
          "internalType": "contract IUniswapV3Pool",
          "name": "pool",
          "type": "address"
        },
        {
          "internalType": "int24",
          "name": "tick",
          "type": "int24"
        },
        {
          "internalType": "int24",
          "name": "tickLower",
          "type": "int24"
        },
        {
          "internalType": "int24",
          "name": "tickUpper",
          "type": "int24"
        },
        {
          "internalType": "uint128",
          "name": "liquidity",
          "type": "uint128"
        },
        {
          "internalType": "uint32",
          "name": "twapDuration",
          "type": "uint32"
        }
      ],
      "name": "getRealHueCountForSinglePoolPosition",
      "outputs": [
        {
          "internalType": "uint256",
          "name": "",
          "type": "uint256"
        }
      ],
      "stateMutability": "view",
      "type": "function"
    },
    {
      "inputs": [
        {
          "internalType": "int56",
          "name": "tickCumulative0",
          "type": "int56"
        },
        {
          "internalType": "int56",
          "name": "tickCumulative1",
          "type": "int56"
        },
        {
          "internalType": "uint32",
          "name": "timeElapsed",
          "type": "uint32"
        }
      ],
      "name": "getTickForCumulators",
      "outputs": [
        {
          "internalType": "int24",
          "name": "tick",
          "type": "int24"
        }
      ],
      "stateMutability": "pure",
      "type": "function"
    },
    {
      "inputs": [],
      "name": "governor",
      "outputs": [
        {
          "internalType": "contract IGovernor",
          "name": "",
          "type": "address"
        }
      ],
      "stateMutability": "view",
      "type": "function"
    },
    {
      "inputs": [],
      "name": "hue",
      "outputs": [
        {
          "internalType": "address",
          "name": "",
          "type": "address"
        }
      ],
      "stateMutability": "view",
      "type": "function"
    },
    {
      "inputs": [
        {
          "internalType": "uint32",
          "name": "twapDuration",
          "type": "uint32"
        }
      ],
      "name": "hueTcpPrice",
      "outputs": [
        {
          "internalType": "uint256",
          "name": "",
          "type": "uint256"
        }
      ],
      "stateMutability": "view",
      "type": "function"
    },
    {
      "inputs": [],
      "name": "init",
      "outputs": [],
      "stateMutability": "nonpayable",
      "type": "function"
    },
    {
      "inputs": [
        {
          "internalType": "contract IUniswapV3Pool",
          "name": "pool",
          "type": "address"
        }
      ],
      "name": "initializePool",
      "outputs": [],
      "stateMutability": "nonpayable",
      "type": "function"
    },
    {
      "inputs": [
        {
          "internalType": "contract IUniswapV3Pool",
          "name": "pool",
          "type": "address"
        }
      ],
      "name": "initializeWethPool",
      "outputs": [],
      "stateMutability": "nonpayable",
      "type": "function"
    },
    {
      "inputs": [
        {
          "internalType": "contract IUniswapV3Pool",
          "name": "pool",
          "type": "address"
        }
      ],
      "name": "isPoolInitialized",
      "outputs": [
        {
          "internalType": "bool",
          "name": "",
          "type": "bool"
        }
      ],
      "stateMutability": "view",
      "type": "function"
    },
    {
      "inputs": [
        {
          "internalType": "uint256",
          "name": "price",
          "type": "uint256"
        },
        {
          "components": [
            {
              "internalType": "uint64",
              "name": "startTime",
              "type": "uint64"
            },
            {
              "internalType": "int56",
              "name": "tickCumulative",
              "type": "int56"
            },
            {
              "internalType": "int24",
              "name": "tick",
              "type": "int24"
            },
            {
              "internalType": "uint8",
              "name": "otherTokenDecimals",
              "type": "uint8"
            },
            {
              "internalType": "bool",
              "name": "isToken0",
              "type": "bool"
            },
            {
              "internalType": "bool",
              "name": "valid",
              "type": "bool"
            }
          ],
          "internalType": "struct IPrices.PriceInfo",
          "name": "pi",
          "type": "tuple"
        }
      ],
      "name": "normalizeDecimals",
      "outputs": [
        {
          "internalType": "uint256",
          "name": "",
          "type": "uint256"
        }
      ],
      "stateMutability": "pure",
      "type": "function"
    },
    {
      "inputs": [
        {
          "internalType": "contract IUniswapV3Pool",
          "name": "",
          "type": "address"
        }
      ],
      "name": "priceInfo",
      "outputs": [
        {
          "internalType": "uint64",
          "name": "startTime",
          "type": "uint64"
        },
        {
          "internalType": "int56",
          "name": "tickCumulative",
          "type": "int56"
        },
        {
          "internalType": "int24",
          "name": "tick",
          "type": "int24"
        },
        {
          "internalType": "uint8",
          "name": "otherTokenDecimals",
          "type": "uint8"
        },
        {
          "internalType": "bool",
          "name": "isToken0",
          "type": "bool"
        },
        {
          "internalType": "bool",
          "name": "valid",
          "type": "bool"
        }
      ],
      "stateMutability": "view",
      "type": "function"
    },
    {
      "inputs": [],
      "name": "protocolPool",
      "outputs": [
        {
          "internalType": "contract IUniswapV3Pool",
          "name": "",
          "type": "address"
        }
      ],
      "stateMutability": "view",
      "type": "function"
    },
    {
      "inputs": [
        {
          "internalType": "bool",
          "name": "valid",
          "type": "bool"
        }
      ],
      "name": "requireValidPool",
      "outputs": [],
      "stateMutability": "pure",
      "type": "function"
    },
    {
      "inputs": [],
      "name": "stop",
      "outputs": [],
      "stateMutability": "nonpayable",
      "type": "function"
    },
    {
      "inputs": [],
      "name": "stopped",
      "outputs": [
        {
          "internalType": "bool",
          "name": "",
          "type": "bool"
        }
      ],
      "stateMutability": "view",
      "type": "function"
    },
    {
      "inputs": [
        {
          "internalType": "contract IUniswapV3Pool",
          "name": "pool",
          "type": "address"
        }
      ],
      "name": "systemObtainReferencePrice",
      "outputs": [
        {
          "internalType": "uint256",
          "name": "",
          "type": "uint256"
        }
      ],
      "stateMutability": "nonpayable",
      "type": "function"
    },
    {
      "inputs": [],
      "name": "tcp",
      "outputs": [
        {
          "internalType": "address",
          "name": "",
          "type": "address"
        }
      ],
      "stateMutability": "view",
      "type": "function"
    },
    {
      "inputs": [
        {
          "internalType": "bytes4",
          "name": "",
          "type": "bytes4"
        }
      ],
      "name": "validUpdate",
      "outputs": [
        {
          "internalType": "bool",
          "name": "",
          "type": "bool"
        }
      ],
      "stateMutability": "view",
      "type": "function"
    },
    {
      "inputs": [],
      "name": "weth",
      "outputs": [
        {
          "internalType": "address",
          "name": "",
          "type": "address"
        }
      ],
      "stateMutability": "view",
      "type": "function"
    }
  ],
  "bytecode": "0x610140604052600160026000509090553480156200001d5760006000fd5b5060405162004a8c38038062004a8c833981810160405281019062000043919062000235565b5b805b80600001515b8073ffffffffffffffffffffffffffffffffffffffff1660808173ffffffffffffffffffffffffffffffffffffffff1660601b815260140150505b50806020015173ffffffffffffffffffffffffffffffffffffffff1660e08173ffffffffffffffffffffffffffffffffffffffff1660601b81526014015050806040015173ffffffffffffffffffffffffffffffffffffffff166101008173ffffffffffffffffffffffffffffffffffffffff1660601b81526014015050806060015173ffffffffffffffffffffffffffffffffffffffff166101208173ffffffffffffffffffffffffffffffffffffffff1660601b81526014015050806080015173ffffffffffffffffffffffffffffffffffffffff1660a08173ffffffffffffffffffffffffffffffffffffffff1660601b815260140150508060a0015173ffffffffffffffffffffffffffffffffffffffff1660c08173ffffffffffffffffffffffffffffffffffffffff1660601b8152601401505033600460006101000a81548173ffffffffffffffffffffffffffffffffffffffff021916908373ffffffffffffffffffffffffffffffffffffffff1602179055505b505b50620002f356620002f2565b6000815190506001600160a01b038116811415156200022f5760006000fd5b5b919050565b600060c0828403121562000247578081fd5b60405160c081018181106001600160401b03821117156200027657634e487b7160e01b83526041600452602483fd5b8060405250620002868362000210565b8152620002966020840162000210565b6020820152620002a96040840162000210565b6040820152620002bc6060840162000210565b6060820152620002cf6080840162000210565b6080820152620002e260a0840162000210565b60a0820152809150505b92915050565b5b60805160601c60a05160601c60c05160601c60e05160601c6101005160601c6101205160601c6146a4620003e860003960008181610b9c015281816110240152818161105901528181611bd60152611c26015260008181610ac401528181610bd3015281816110f8015261112d015260008181610a2901528181610eed0152818161108e015281816110c301526113ad015260008181610b1e015281816113dd015281816114060152611c05015260008181610a8301528181611bb501528181611c5a0152611cb201526000818161064701528181610f110152818161129a0152818161146c0152611cd901526146a46000f3fe60806040523480156100115760006000fd5b50600436106101d45760003560e01c806375f12b2111610105578063d5f39488116100a3578063e1c7392a11610072578063e1c7392a1461059d578063fa42dcf4146105a7578063fcebd71c146105d7578063ff0eccf614610607576101d4565b8063d5f39488146104ef578063d97e64001461050d578063da6e58ce1461053d578063dcaeb11b1461056d576101d4565b80638d02a08a116100df5780638d02a08a1461042f578063ce1378541461045f578063ce403c131461048f578063d00d0bd6146104bf576101d4565b806375f12b21146103d75780637c5b9011146103f55780638396cf6914610411576101d4565b806336fc02f411610172578063407431f71161014c578063407431f71461033857806347453af214610354578063532cec7c146103725780636d048d53146103a2576101d4565b806336fc02f4146102cc5780633c63a9cd146102ea5780633fc8cef31461031a576101d4565b80631fab230e116101ae5780631fab230e1461023257806321b78b771461026257806332374174146102925780633497dcec146102b0576101d4565b806307da68f5146101da5780630c340a24146101e4578063113cf1ab14610202576101d4565b60006000fd5b6101e2610625565b005b6101ec610645565b6040516101f99190613cb2565b60405180910390f35b61021c600480360381019061021791906137c3565b610669565b6040516102299190613c9e565b60405180910390f35b61024c600480360381019061024791906138c1565b61068e565b6040516102599190613f8d565b60405180910390f35b61027c6004803603810190610277919061399a565b610b7b565b6040516102899190613f8d565b60405180910390f35b61029a610b9a565b6040516102a79190613c22565b60405180910390f35b6102ca60048036038101906102c5919061379c565b610bbe565b005b6102d4610bd1565b6040516102e19190613c22565b60405180910390f35b61030460048036038101906102ff9190613885565b610bf5565b6040516103119190613f8d565b60405180910390f35b610322610eeb565b60405161032f9190613c22565b60405180910390f35b610352600480360381019061034d919061385e565b610f0f565b005b61035c611173565b6040516103699190613c4a565b60405180910390f35b61038c6004803603810190610387919061385e565b61118d565b6040516103999190613c9e565b60405180910390f35b6103bc60048036038101906103b7919061385e565b6111f1565b6040516103ce96959493929190613fd3565b60405180910390f35b6103df611285565b6040516103ec9190613c9e565b60405180910390f35b61040f600480360381019061040a919061385e565b611298565b005b6104196113db565b6040516104269190613cda565b60405180910390f35b61044960048036038101906104449190613bb5565b6113ff565b6040516104569190613f8d565b60405180910390f35b61047960048036038101906104749190613a22565b61143d565b6040516104869190613f8d565b60405180910390f35b6104a960048036038101906104a4919061385e565b61145a565b6040516104b69190613f8d565b60405180910390f35b6104d960048036038101906104d491906139d6565b611a8a565b6040516104e69190613d02565b60405180910390f35b6104f7611aab565b6040516105049190613c22565b60405180910390f35b61052760048036038101906105229190613962565b611ad1565b6040516105349190613f8d565b60405180910390f35b61055760048036038101906105529190613bd8565b611af0565b6040516105649190613fbb565b60405180910390f35b61058760048036038101906105829190613ae2565b611b0d565b6040516105949190613f8d565b60405180910390f35b6105a5611b2c565b005b6105c160048036038101906105bc9190613bb5565b611c53565b6040516105ce9190613f8d565b60405180910390f35b6105f160048036038101906105ec9190613962565b611c91565b6040516105fe9190613d02565b60405180910390f35b61060f611cb0565b60405161061c9190613cda565b60405180910390f35b610633611cd463ffffffff16565b610641611d3463ffffffff16565b5b5b565b7f000000000000000000000000000000000000000000000000000000000000000081565b600160005060205280600052604060002060009150909054906101000a900460ff1681565b60006000600360005060008973ffffffffffffffffffffffffffffffffffffffff1673ffffffffffffffffffffffffffffffffffffffff1681526020019081526020016000206000506040518060c00160405290816000820160009054906101000a900467ffffffffffffffff1667ffffffffffffffff1667ffffffffffffffff1681526020016000820160089054906101000a900460060b60060b60060b815260200160008201600f9054906101000a900460020b60020b60020b81526020016000820160129054906101000a900460ff1660ff1660ff1681526020016000820160139054906101000a900460ff161515151581526020016000820160149054906101000a900460ff16151515158152602001505090506107b98160a00151611d7e63ffffffff16565b60006107ca88611dc463ffffffff16565b9050600060006107fe836107e38b611dc463ffffffff16565b6107f28b611dc463ffffffff16565b8a6122e763ffffffff16565b91509150600084608001516108135781610815565b825b905061091085608001516108945761088f6108658673ffffffffffffffffffffffffffffffffffffffff168773ffffffffffffffffffffffffffffffffffffffff166123fd90919063ffffffff16565b7801000000000000000000000000000000000000000000000000866124189092919063ffffffff16565b610901565b61090078010000000000000000000000000000000000000000000000006108f08773ffffffffffffffffffffffffffffffffffffffff168873ffffffffffffffffffffffffffffffffffffffff166123fd90919063ffffffff16565b856124189092919063ffffffff16565b5b8261253c90919063ffffffff16565b90508050600085608001516109a4578c73ffffffffffffffffffffffffffffffffffffffff1663d21220a76040518163ffffffff1660e01b815260040160206040518083038186803b1580156109665760006000fd5b505afa15801561097b573d600060003e3d6000fd5b505050506040513d601f19601f8201168201806040525081019061099f919061369f565b610a25565b8c73ffffffffffffffffffffffffffffffffffffffff16630dfe16816040518163ffffffff1660e01b815260040160206040518083038186803b1580156109eb5760006000fd5b505afa158015610a00573d600060003e3d6000fd5b505050506040513d601f19601f82011682018060405250810190610a24919061369f565b5b90507f000000000000000000000000000000000000000000000000000000000000000073ffffffffffffffffffffffffffffffffffffffff168173ffffffffffffffffffffffffffffffffffffffff161415610ac257610abd610aae7f00000000000000000000000000000000000000000000000000000000000000008a61255763ffffffff16565b8361262690919063ffffffff16565b915081505b7f000000000000000000000000000000000000000000000000000000000000000073ffffffffffffffffffffffffffffffffffffffff168173ffffffffffffffffffffffffffffffffffffffff161415610b5d57610b58610b497f00000000000000000000000000000000000000000000000000000000000000008a61255763ffffffff16565b8361262690919063ffffffff16565b915081505b819650505050505050610b71565050505050505b9695505050505050565b6000610b8d838361264c63ffffffff16565b9050610b94565b92915050565b7f000000000000000000000000000000000000000000000000000000000000000081565b610bcd81611d7e63ffffffff16565b5b50565b7f000000000000000000000000000000000000000000000000000000000000000081565b60006000600360005060008573ffffffffffffffffffffffffffffffffffffffff1673ffffffffffffffffffffffffffffffffffffffff1681526020019081526020016000206000506040518060c00160405290816000820160009054906101000a900467ffffffffffffffff1667ffffffffffffffff1667ffffffffffffffff1681526020016000820160089054906101000a900460060b60060b60060b815260200160008201600f9054906101000a900460020b60020b60020b81526020016000820160129054906101000a900460ff1660ff1660ff1681526020016000820160139054906101000a900460ff161515151581526020016000820160149054906101000a900460ff1615151515815260200150509050610d208160a00151611d7e63ffffffff16565b6000610d3061268d63ffffffff16565b90508067ffffffffffffffff16826000015167ffffffffffffffff16101515610d8e576040517f08c379a0000000000000000000000000000000000000000000000000000000008152600401610d8590613ed0565b60405180910390fd5b60008573ffffffffffffffffffffffffffffffffffffffff1663883bdbfd610dba6126a863ffffffff16565b6040518263ffffffff1660e01b8152600401610dd69190613c4a565b60006040518083038186803b158015610def5760006000fd5b505afa158015610e04573d600060003e3d6000fd5b505050506040513d6000823e3d601f19601f82011682018060405250810190610e2d91906136c6565b509050610eb8610ea88460200151836000815181101515610e77577f4e487b7100000000000000000000000000000000000000000000000000000000600052603260045260246000fd5b6020026020010151610e9d876000015187610e9291906143d7565b61277d63ffffffff16565b6127df63ffffffff16565b846080015161264c63ffffffff16565b9350835084610ec75783610ed8565b610ed7848461285763ffffffff16565b5b9350505050610ee5565050505b92915050565b7f000000000000000000000000000000000000000000000000000000000000000081565b7f000000000000000000000000000000000000000000000000000000000000000073ffffffffffffffffffffffffffffffffffffffff16639ec5a8946040518163ffffffff1660e01b815260040160206040518083038186803b158015610f765760006000fd5b505afa158015610f8b573d600060003e3d6000fd5b505050506040513d601f19601f82011682018060405250810190610faf9190613837565b73ffffffffffffffffffffffffffffffffffffffff163373ffffffffffffffffffffffffffffffffffffffff1614151561101e576040517f08c379a000000000000000000000000000000000000000000000000000000000815260040161101590613d95565b60405180910390fd5b61104e817f000000000000000000000000000000000000000000000000000000000000000061290a63ffffffff16565b1561108857611083817f0000000000000000000000000000000000000000000000000000000000000000612a7c63ffffffff16565b61116f565b6110b8817f000000000000000000000000000000000000000000000000000000000000000061290a63ffffffff16565b156110f2576110ed817f0000000000000000000000000000000000000000000000000000000000000000612a7c63ffffffff16565b61116e565b611122817f000000000000000000000000000000000000000000000000000000000000000061290a63ffffffff16565b1561115c57611157817f0000000000000000000000000000000000000000000000000000000000000000612a7c63ffffffff16565b61116d565b61116c6000611d7e63ffffffff16565b5b5b5b5b50565b60606111836126a863ffffffff16565b905061118a565b90565b6000600360005060008373ffffffffffffffffffffffffffffffffffffffff1673ffffffffffffffffffffffffffffffffffffffff16815260200190815260200160002060005060000160149054906101000a900460ff1690506111ec565b919050565b60036000506020528060005260406000206000915090508060000160009054906101000a900467ffffffffffffffff16908060000160089054906101000a900460060b9080600001600f9054906101000a900460020b908060000160129054906101000a900460ff16908060000160139054906101000a900460ff16908060000160149054906101000a900460ff16905086565b600060009054906101000a900460ff1681565b7f000000000000000000000000000000000000000000000000000000000000000073ffffffffffffffffffffffffffffffffffffffff166343f48fbd6040518163ffffffff1660e01b815260040160206040518083038186803b1580156112ff5760006000fd5b505afa158015611314573d600060003e3d6000fd5b505050506040513d601f19601f820116820180604052508101906113389190613810565b73ffffffffffffffffffffffffffffffffffffffff163373ffffffffffffffffffffffffffffffffffffffff161415156113a7576040517f08c379a000000000000000000000000000000000000000000000000000000000815260040161139e90613d95565b60405180910390fd5b6113d7817f0000000000000000000000000000000000000000000000000000000000000000612a7c63ffffffff16565b5b50565b7f000000000000000000000000000000000000000000000000000000000000000081565b60006114317f00000000000000000000000000000000000000000000000000000000000000008361255763ffffffff16565b9050611438565b919050565b600061144e82612ffd63ffffffff16565b9050611455565b919050565b600061146a61305a63ffffffff16565b7f000000000000000000000000000000000000000000000000000000000000000073ffffffffffffffffffffffffffffffffffffffff166343f48fbd6040518163ffffffff1660e01b815260040160206040518083038186803b1580156114d15760006000fd5b505afa1580156114e6573d600060003e3d6000fd5b505050506040513d601f19601f8201168201806040525081019061150a9190613810565b73ffffffffffffffffffffffffffffffffffffffff163373ffffffffffffffffffffffffffffffffffffffff16141515611579576040517f08c379a000000000000000000000000000000000000000000000000000000000815260040161157090613d95565b60405180910390fd5b6000600360005060008473ffffffffffffffffffffffffffffffffffffffff1673ffffffffffffffffffffffffffffffffffffffff1681526020019081526020016000206000506040518060c00160405290816000820160009054906101000a900467ffffffffffffffff1667ffffffffffffffff1667ffffffffffffffff1681526020016000820160089054906101000a900460060b60060b60060b815260200160008201600f9054906101000a900460020b60020b60020b81526020016000820160129054906101000a900460ff1660ff1660ff1681526020016000820160139054906101000a900460ff161515151581526020016000820160149054906101000a900460ff16151515158152602001505090506116a28160a00151611d7e63ffffffff16565b60006116b261268d63ffffffff16565b90508067ffffffffffffffff16826000015167ffffffffffffffff16101515611710576040517f08c379a000000000000000000000000000000000000000000000000000000000815260040161170790613dd4565b60405180910390fd5b60008473ffffffffffffffffffffffffffffffffffffffff1663883bdbfd61173c6126a863ffffffff16565b6040518263ffffffff1660e01b81526004016117589190613c4a565b60006040518083038186803b1580156117715760006000fd5b505afa158015611786573d600060003e3d6000fd5b505050506040513d6000823e3d601f19601f820116820180604052508101906117af91906136c6565b50905061182783602001518260008151811015156117f6577f4e487b7100000000000000000000000000000000000000000000000000000000600052603260045260246000fd5b602002602001015161181c86600001518661181191906143d7565b61277d63ffffffff16565b6127df63ffffffff16565b836040019060020b908160020b81526020015050806000815181101515611877577f4e487b7100000000000000000000000000000000000000000000000000000000600052603260045260246000fd5b6020026020010151836020019060060b908160060b8152602001505081836000019067ffffffffffffffff16908167ffffffffffffffff168152602001505082600360005060008773ffffffffffffffffffffffffffffffffffffffff1673ffffffffffffffffffffffffffffffffffffffff16815260200190815260200160002060005060008201518160000160006101000a81548167ffffffffffffffff021916908367ffffffffffffffff16021790555060208201518160000160086101000a81548166ffffffffffffff021916908360060b66ffffffffffffff160217905550604082015181600001600f6101000a81548162ffffff021916908360020b62ffffff16021790555060608201518160000160126101000a81548160ff021916908360ff16021790555060808201518160000160136101000a81548160ff02191690831515021790555060a08201518160000160146101000a81548160ff0219169083151502179055509050506000611a10611a048560400151866080015161264c63ffffffff16565b8561285763ffffffff16565b90508573ffffffffffffffffffffffffffffffffffffffff167f4aec2babed558ca204f263d79ac04efaccd05cd4b7bebfa21beeb221330062d3828660400151604051611a5e929190613f9f565b60405180910390a280945050505050611a7656505050505b611a846130b563ffffffff16565b5b919050565b6000611a9d8484846127df63ffffffff16565b9050611aa4565b9392505050565b600460009054906101000a900473ffffffffffffffffffffffffffffffffffffffff1681565b6000611ae3838361255763ffffffff16565b9050611aea565b92915050565b6000611b018261277d63ffffffff16565b9050611b08565b919050565b6000611b1f838361285763ffffffff16565b9050611b26565b92915050565b611b8b600460009054906101000a900473ffffffffffffffffffffffffffffffffffffffff1673ffffffffffffffffffffffffffffffffffffffff163373ffffffffffffffffffffffffffffffffffffffff16146130c563ffffffff16565b600460006101000a81549073ffffffffffffffffffffffffffffffffffffffff0219169055611c007f00000000000000000000000000000000000000000000000000000000000000007f0000000000000000000000000000000000000000000000000000000000000000612a7c63ffffffff16565b611c507f00000000000000000000000000000000000000000000000000000000000000007f0000000000000000000000000000000000000000000000000000000000000000612a7c63ffffffff16565b5b565b6000611c857f00000000000000000000000000000000000000000000000000000000000000008361255763ffffffff16565b9050611c8c565b919050565b6000611ca3838361310b63ffffffff16565b9050611caa565b92915050565b7f000000000000000000000000000000000000000000000000000000000000000081565b611d317f000000000000000000000000000000000000000000000000000000000000000073ffffffffffffffffffffffffffffffffffffffff163373ffffffffffffffffffffffffffffffffffffffff16146130c563ffffffff16565b5b565b6001600060006101000a81548160ff0219169083151502179055507f7acc84e34091ae817647a4c49116f5cc07f319078ba80f8f5fde37ea7e25cbd660405160405180910390a15b565b801515611dc0576040517f08c379a0000000000000000000000000000000000000000000000000000000008152600401611db790613f4e565b60405180910390fd5b5b50565b6000600060008360020b12611ddc578260020b611dea565b8260020b611de99061451c565b5b90507ffffffffffffffffffffffffffffffffffffffffffffffffffffffffffff27618611e16906144d9565b62ffffff168111151515611e5f576040517f08c379a0000000000000000000000000000000000000000000000000000000008152600401611e5690613e13565b60405180910390fd5b60006000600183161415611e8457700100000000000000000000000000000000611e96565b6ffffcb933bd6fad37aa2d162d1a5940015b70ffffffffffffffffffffffffffffffffff169050600060028316141515611edd5760806ffff97272373d413259a46990580e213a82611ed691906142e6565b901c905080505b600060048316141515611f0f5760806ffff2e50f5f656932ef12357cf3c7fdcc82611f0891906142e6565b901c905080505b600060088316141515611f415760806fffe5caca7e10e4e61c3624eaa0941cd082611f3a91906142e6565b901c905080505b600060108316141515611f735760806fffcb9843d60f6159c9db58835c92664482611f6c91906142e6565b901c905080505b600060208316141515611fa55760806fff973b41fa98c081472e6896dfb254c082611f9e91906142e6565b901c905080505b600060408316141515611fd75760806fff2ea16466c96a3843ec78b326b5286182611fd091906142e6565b901c905080505b6000608083161415156120095760806ffe5dee046a99a2a811c461f1969c30538261200291906142e6565b901c905080505b6000610100831614151561203c5760806ffcbe86c7900a88aedcffc83b479aa3a48261203591906142e6565b901c905080505b6000610200831614151561206f5760806ff987a7253ac413176f2b074cf7815e548261206891906142e6565b901c905080505b600061040083161415156120a25760806ff3392b0822b70005940c7a398e4b70f38261209b91906142e6565b901c905080505b600061080083161415156120d55760806fe7159475a2c29b7443b29c7fa6e889d9826120ce91906142e6565b901c905080505b600061100083161415156121085760806fd097f3bdfd2022b8845ad8f792aa58258261210191906142e6565b901c905080505b6000612000831614151561213b5760806fa9f746462d870fdf8a65dc1f90e061e58261213491906142e6565b901c905080505b6000614000831614151561216e5760806f70d869a156d2a1b890bb3df62baf32f78261216791906142e6565b901c905080505b600061800083161415156121a15760806f31be135f97d08fd981231505542fcfa68261219a91906142e6565b901c905080505b60006201000083161415156121d55760806f09aa508b5b7a84e1c677de54f3e99bc9826121ce91906142e6565b901c905080505b60006202000083161415156122085760806e5d6af8dedb81196699c329225ee6048261220191906142e6565b901c905080505b600062040000831614151561223a5760806d2216e584f5fa1ea926041bedfe988261223391906142e6565b901c905080505b600062080000831614151561226a5760806b048a170391f7dc42444e8fa28261226391906142e6565b901c905080505b60008460020b13156122a757807fffffffffffffffffffffffffffffffffffffffffffffffffffffffffffffffff6122a2919061416e565b905080505b6000640100000000826122ba91906144bb565b146122c65760016122c9565b60005b60ff16602082901c6122db91906140d1565b9250825050505b919050565b600060008373ffffffffffffffffffffffffffffffffffffffff168573ffffffffffffffffffffffffffffffffffffffff16111561232a57838580955081965050505b8473ffffffffffffffffffffffffffffffffffffffff168673ffffffffffffffffffffffffffffffffffffffff16111515612379576123708585856133be63ffffffff16565b915081506123f3565b8373ffffffffffffffffffffffffffffffffffffffff168673ffffffffffffffffffffffffffffffffffffffff1610156123dc576123be8685856133be63ffffffff16565b915081506123d385878561348f63ffffffff16565b905080506123f2565b6123ed85858561348f63ffffffff16565b905080505b5b5b94509492505050565b6000818361240b91906142e6565b9050612412565b92915050565b600060006000600019858709858702925082811083820303915050600081141561245b5760008411151561244c5760006000fd5b83820492508292505050612535565b808411151561246a5760006000fd5b60008486880990508281118203915080830392506000856001877fffffffffffffffffffffffffffffffffffffffffffffffffffffffffffffffff03011690508050808604955080840493506001818260000304019050808302841793508350600060028760030218905080870260020381029050805080870260020381029050805080870260020381029050805080870260020381029050805080870260020381029050805080870260020381029050805080850295508550508494505050505061253556505050505b9392505050565b6000818361254a91906140d1565b9050612551565b92915050565b600060006125cf61256e858561310b63ffffffff16565b600360005060008773ffffffffffffffffffffffffffffffffffffffff1673ffffffffffffffffffffffffffffffffffffffff16815260200190815260200160002060005060000160139054906101000a900460ff1661264c63ffffffff16565b9050600081111515612616576040517f08c379a000000000000000000000000000000000000000000000000000000000815260040161260d90613e91565b60405180910390fd5b8091505061262056505b92915050565b60006126418383670de0b6b3a764000061241863ffffffff16565b905080505b92915050565b60006126806126758361265f578461266a565b84612669906144d9565b5b611dc463ffffffff16565b612ffd63ffffffff16565b9050612687565b92915050565b60006126a04261352f909063ffffffff16565b905080505b90565b6060600167ffffffffffffffff8111156126eb577f4e487b7100000000000000000000000000000000000000000000000000000000600052604160045260246000fd5b6040519080825280602002602001820160405280156127195781602001602082028036833780820191505090505b5090508050600081600081518110151561275c577f4e487b7100000000000000000000000000000000000000000000000000000000600052603260045260246000fd5b602002602001019063ffffffff16908163ffffffff16815260200150505b90565b60006401000000008267ffffffffffffffff161015156127d2576040517f08c379a00000000000000000000000000000000000000000000000000000000081526004016127c990613e52565b60405180910390fd5b8190506127da565b919050565b6000600084846127ef919061432b565b905060008363ffffffff1690506000818361280a91906140f1565b905060008360060b12801561282e5750600082846128289190614495565b60060b14155b1561284257808061283e90614432565b9150505b809350505050612850565050505b9392505050565b6000601260ff16826060015160ff16141561287457829050612904565b6000601260ff16836060015160ff161090506000816128a3576012846060015161289e9190614409565b6128b5565b836060015160126128b49190614409565b5b9050816128e0576128db81600a6128cc91906141fb565b866123fd90919063ffffffff16565b6128f9565b80600a6128ed91906141fb565b856128f8919061416e565b5b925050506129045650505b92915050565b60008173ffffffffffffffffffffffffffffffffffffffff168373ffffffffffffffffffffffffffffffffffffffff16630dfe16816040518163ffffffff1660e01b815260040160206040518083038186803b15801561296a5760006000fd5b505afa15801561297f573d600060003e3d6000fd5b505050506040513d601f19601f820116820180604052508101906129a3919061369f565b73ffffffffffffffffffffffffffffffffffffffff161480612a6f57508173ffffffffffffffffffffffffffffffffffffffff168373ffffffffffffffffffffffffffffffffffffffff1663d21220a76040518163ffffffff1660e01b815260040160206040518083038186803b158015612a1e5760006000fd5b505afa158015612a33573d600060003e3d6000fd5b505050506040513d601f19601f82011682018060405250810190612a57919061369f565b73ffffffffffffffffffffffffffffffffffffffff16145b9050612a76565b92915050565b612a9a612a8f838361290a63ffffffff16565b611d7e63ffffffff16565b600060008373ffffffffffffffffffffffffffffffffffffffff16633850c7bd6040518163ffffffff1660e01b815260040160e06040518083038186803b158015612ae55760006000fd5b505afa158015612afa573d600060003e3d6000fd5b505050506040513d601f19601f82011682018060405250810190612b1e9190613a49565b505050505091509150612b4f60008373ffffffffffffffffffffffffffffffffffffffff1611611d7e63ffffffff16565b60008473ffffffffffffffffffffffffffffffffffffffff1663883bdbfd612b7b6126a863ffffffff16565b6040518263ffffffff1660e01b8152600401612b979190613c4a565b60006040518083038186803b158015612bb05760006000fd5b505afa158015612bc5573d600060003e3d6000fd5b505050506040513d6000823e3d601f19601f82011682018060405250810190612bee91906136c6565b50905060008473ffffffffffffffffffffffffffffffffffffffff168673ffffffffffffffffffffffffffffffffffffffff16630dfe16816040518163ffffffff1660e01b815260040160206040518083038186803b158015612c515760006000fd5b505afa158015612c66573d600060003e3d6000fd5b505050506040513d601f19601f82011682018060405250810190612c8a919061369f565b73ffffffffffffffffffffffffffffffffffffffff161490506040518060c00160405280612cbc61268d63ffffffff16565b67ffffffffffffffff168152602001836000815181101515612d07577f4e487b7100000000000000000000000000000000000000000000000000000000600052603260045260246000fd5b602002602001015160060b81526020018460020b815260200182612daa578773ffffffffffffffffffffffffffffffffffffffff16630dfe16816040518163ffffffff1660e01b815260040160206040518083038186803b158015612d6c5760006000fd5b505afa158015612d81573d600060003e3d6000fd5b505050506040513d601f19601f82011682018060405250810190612da5919061369f565b612e2b565b8773ffffffffffffffffffffffffffffffffffffffff1663d21220a76040518163ffffffff1660e01b815260040160206040518083038186803b158015612df15760006000fd5b505afa158015612e06573d600060003e3d6000fd5b505050506040513d601f19601f82011682018060405250810190612e2a919061369f565b5b73ffffffffffffffffffffffffffffffffffffffff1663313ce5676040518163ffffffff1660e01b815260040160206040518083038186803b158015612e715760006000fd5b505afa158015612e86573d600060003e3d6000fd5b505050506040513d601f19601f82011682018060405250810190612eaa9190613bfb565b60ff168152602001821515815260200160011515815260200150600360005060008873ffffffffffffffffffffffffffffffffffffffff1673ffffffffffffffffffffffffffffffffffffffff16815260200190815260200160002060005060008201518160000160006101000a81548167ffffffffffffffff021916908367ffffffffffffffff16021790555060208201518160000160086101000a81548166ffffffffffffff021916908360060b66ffffffffffffff160217905550604082015181600001600f6101000a81548162ffffff021916908360020b62ffffff16021790555060608201518160000160126101000a81548160ff021916908360ff16021790555060808201518160000160136101000a81548160ff02191690831515021790555060a08201518160000160146101000a81548160ff021916908315150217905550905050505050505b5050565b600060006130376c010000000000000000000000008473ffffffffffffffffffffffffffffffffffffffff1661358b90919063ffffffff16565b905061304c818261262690919063ffffffff16565b91505061305556505b919050565b6002600260005054141515156130a5576040517f08c379a000000000000000000000000000000000000000000000000000000000815260040161309c90613d17565b60405180910390fd5b600260026000508190909055505b565b600160026000508190909055505b565b801515613107576040517f08c379a00000000000000000000000000000000000000000000000000000000081526004016130fe90613d95565b60405180910390fd5b5b50565b600060008263ffffffff16111515613158576040517f08c379a000000000000000000000000000000000000000000000000000000000815260040161314f90613d56565b60405180910390fd5b6000600267ffffffffffffffff81111561319b577f4e487b7100000000000000000000000000000000000000000000000000000000600052604160045260246000fd5b6040519080825280602002602001820160405280156131c95781602001602082028036833780820191505090505b50905082816000815181101515613209577f4e487b7100000000000000000000000000000000000000000000000000000000600052603260045260246000fd5b602002602001019063ffffffff16908163ffffffff16815260200150506000816001815181101515613264577f4e487b7100000000000000000000000000000000000000000000000000000000600052603260045260246000fd5b602002602001019063ffffffff16908163ffffffff168152602001505060008473ffffffffffffffffffffffffffffffffffffffff1663883bdbfd836040518263ffffffff1660e01b81526004016132bc9190613c4a565b60006040518083038186803b1580156132d55760006000fd5b505afa1580156132ea573d600060003e3d6000fd5b505050506040513d6000823e3d601f19601f8201168201806040525081019061331391906136c6565b5090506133ad816000815181101515613355577f4e487b7100000000000000000000000000000000000000000000000000000000600052603260045260246000fd5b6020026020010151826001815181101515613399577f4e487b7100000000000000000000000000000000000000000000000000000000600052603260045260246000fd5b6020026020010151866127df63ffffffff16565b925050506133b85650505b92915050565b60008273ffffffffffffffffffffffffffffffffffffffff168473ffffffffffffffffffffffffffffffffffffffff1611156133ff57828480945081955050505b8373ffffffffffffffffffffffffffffffffffffffff16613477606060ff16846fffffffffffffffffffffffffffffffff16901b868661343f9190614399565b73ffffffffffffffffffffffffffffffffffffffff168673ffffffffffffffffffffffffffffffffffffffff1661241863ffffffff16565b613481919061416e565b9050613488565b9392505050565b60008273ffffffffffffffffffffffffffffffffffffffff168473ffffffffffffffffffffffffffffffffffffffff1611156134d057828480945081955050505b613521826fffffffffffffffffffffffffffffffff1685856134f29190614399565b73ffffffffffffffffffffffffffffffffffffffff166c0100000000000000000000000061241863ffffffff16565b9050613528565b9392505050565b6000680100000000000000008210151561357e576040517f08c379a000000000000000000000000000000000000000000000000000000000815260040161357590613f0f565b60405180910390fd5b819050613586565b919050565b60006135a683670de0b6b3a76400008461241863ffffffff16565b905080505b929150505661466d565b600082601f83011215156135c7578081fd5b815160206135dc6135d7836140a7565b614050565b80838252828201915082860187848660051b89010111156135fb578586fd5b855b8581101561362a578151613610816145ed565b80855250848401935084820191505b6001810190506135fd565b5050809450505050505b92915050565b60008151905061ffff8116811415156136535760006000fd5b5b919050565b60008135905063ffffffff8116811415156136745760006000fd5b5b919050565b60008135905067ffffffffffffffff8116811415156136995760006000fd5b5b919050565b6000602082840312156136b0578081fd5b81516136bb816145ed565b809150505b92915050565b60006000604083850312156136d9578081fd5b825167ffffffffffffffff808211156136f0578283fd5b818501915085601f8301121515613705578283fd5b8151602061371a613715836140a7565b614050565b8083825282820191508286018a848660051b8901011115613739578788fd5b8796505b8487101561376a57805161375081614641565b80845250838301925083810190505b60018701965061373d565b508097505050808701519350505080821115613784578283fd5b50613791858286016135b5565b9150505b9250929050565b6000602082840312156137ad578081fd5b81356137b881614616565b809150505b92915050565b6000602082840312156137d4578081fd5b81357fffffffff00000000000000000000000000000000000000000000000000000000811681141515613805578182fd5b809150505b92915050565b600060208284031215613821578081fd5b815161382c816145ed565b809150505b92915050565b600060208284031215613848578081fd5b8151613853816145ed565b809150505b92915050565b60006020828403121561386f578081fd5b813561387a816145ed565b809150505b92915050565b6000600060408385031215613898578182fd5b82356138a3816145ed565b8092505060208301356138b581614616565b809150505b9250929050565b60006000600060006000600060c087890312156138dc578182fd5b86356138e7816145ed565b8096505060208701356138f98161462b565b80955050604087013561390b8161462b565b80945050606087013561391d8161462b565b8093505060808701356fffffffffffffffffffffffffffffffff811681141515613945578283fd5b8092505061395560a08801613659565b90505b9295509295509295565b6000600060408385031215613975578182fd5b8235613980816145ed565b8092505061399060208401613659565b90505b9250929050565b60006000604083850312156139ad578182fd5b82356139b88161462b565b8092505060208301356139ca81614616565b809150505b9250929050565b600060006000606084860312156139eb578081fd5b83356139f681614641565b809350506020840135613a0881614641565b80925050613a1860408501613659565b90505b9250925092565b600060208284031215613a33578081fd5b8135613a3e816145ed565b809150505b92915050565b600060006000600060006000600060e0888a031215613a66578485fd5b8751613a71816145ed565b809750506020880151613a838161462b565b80965050613a936040890161363a565b9450613aa16060890161363a565b9350613aaf6080890161363a565b925060a0880151613abf81614657565b8092505060c0880151613ad181614616565b809150505b92959891949750929550565b6000600082840360e0811215613af6578283fd5b8335925060c07fffffffffffffffffffffffffffffffffffffffffffffffffffffffffffffffe082011215613b29578182fd5b50613b3261401f565b613b3e6020850161367a565b81526040840135613b4e81614641565b806020830152506060840135613b638161462b565b806040830152506080840135613b7881614657565b8060608301525060a0840135613b8d81614616565b8060808301525060c0840135613ba281614616565b8060a083015250809150505b9250929050565b600060208284031215613bc6578081fd5b613bcf82613659565b90505b92915050565b600060208284031215613be9578081fd5b613bf28261367a565b90505b92915050565b600060208284031215613c0c578081fd5b8151613c1781614657565b809150505b92915050565b600060208201905073ffffffffffffffffffffffffffffffffffffffff831682525b92915050565b600060208083018184528085518083526040860191508387019250845b81811015613c8f5763ffffffff8451168352848301925084840193505b600181019050613c67565b50508093505050505b92915050565b600060208201905082151582525b92915050565b600060208201905073ffffffffffffffffffffffffffffffffffffffff831682525b92915050565b600060208201905073ffffffffffffffffffffffffffffffffffffffff831682525b92915050565b60006020820190508260020b82525b92915050565b60208152600d60208201527f4c43205265656e7472616e637900000000000000000000000000000000000000604082015260006060820190505b919050565b60208152601260208201527f496e7374616e74207469636b206572726f720000000000000000000000000000604082015260006060820190505b919050565b60208152600e60208201527f4e6f7420417574686f72697a6564000000000000000000000000000000000000604082015260006060820190505b919050565b60208152600260208201527f5445000000000000000000000000000000000000000000000000000000000000604082015260006060820190505b919050565b60208152600160208201527f5400000000000000000000000000000000000000000000000000000000000000604082015260006060820190505b919050565b60208152601360208201527f626967676572207468616e203332206269747300000000000000000000000000604082015260006060820190505b919050565b60208152601360208201527f496e7374616e74207072696365206572726f7200000000000000000000000000604082015260006060820190505b919050565b60208152601360208201527f54776170706564207072696365206572726f7200000000000000000000000000604082015260006060820190505b919050565b60208152601160208201527f6d6f7265207468616e2036342062697473000000000000000000000000000000604082015260006060820190505b919050565b60208152600c60208201527f496e76616c696420706f6f6c0000000000000000000000000000000000000000604082015260006060820190505b919050565b60006020820190508282525b92915050565b60006040820190508382528260020b60208301525b9392505050565b600060208201905063ffffffff831682525b92915050565b600060c08201905067ffffffffffffffff881682528660060b60208301528560020b604083015260ff85166060830152831515608083015282151560a08301525b979650505050505050565b6000604051905060c0810181811067ffffffffffffffff82111715614047576140466145bc565b5b80604052505b90565b600060405190507fffffffffffffffffffffffffffffffffffffffffffffffffffffffffffffffe0601f830116810181811067ffffffffffffffff8211171561409c5761409b6145bc565b5b80604052505b919050565b600067ffffffffffffffff8211156140c2576140c16145bc565b5b60208260051b0190505b919050565b600082198211156140e5576140e461455a565b5b82820190505b92915050565b60008160060b8360060b80151561410b5761410a61458b565b5b7fffffffffffffffffffffffffffffffffffffffffffffffffffffffffffffffff81147fffffffffffffffffffffffffffffffffffffffffffffffffff80000000000000831416156141605761415f61455a565b5b808205925050505b92915050565b60008215156141805761417f61458b565b5b82820490505b92915050565b6000600060018092508391505b808511156141f257817fffffffffffffffffffffffffffffffffffffffffffffffffffffffffffffffff048211156141d4576141d361455a565b5b808516156141e25781830292505b818202915084811c94505b614199565b505b9250929050565b600061420a60ff841683614213565b90505b92915050565b600082151561422557600190506142e0565b81151561423557600090506142e0565b816001811461424b576002811461425957614277565b60019150506142e056614277565b60ff84111561426b5761426a61455a565b5b6001841b9150506142e0565b5060208310610133831016604e8410600b841016171561429b5782820a90506142e0565b6142a5838361418c565b807fffffffffffffffffffffffffffffffffffffffffffffffffffffffffffffffff048211156142d8576142d761455a565b5b808202925050505b92915050565b6000817fffffffffffffffffffffffffffffffffffffffffffffffffffffffffffffffff048311821515161561431f5761431e61455a565b5b82820290505b92915050565b60008160060b8360060b828112817fffffffffffffffffffffffffffffffffffffffffffffffffff800000000000000183128115161561436e5761436d61455a565b5b81667fffffffffffff01831381161561438a5761438961455a565b5b50808203925050505b92915050565b600073ffffffffffffffffffffffffffffffffffffffff8083168185169150818110156143c9576143c861455a565b5b818103925050505b92915050565b600067ffffffffffffffff8083168185169150818110156143fb576143fa61455a565b5b818103925050505b92915050565b600060ff821660ff8416808210156144245761442361455a565b5b808203925050505b92915050565b60008160020b7fffffffffffffffffffffffffffffffffffffffffffffffffffffffffff8000008114156144695761446861455a565b5b7fffffffffffffffffffffffffffffffffffffffffffffffffffffffffffffffff81019150505b919050565b60008260060b8015156144ab576144aa61458b565b5b808360060b079150505b92915050565b60008215156144cd576144cc61458b565b5b82820690505b92915050565b60008160020b7fffffffffffffffffffffffffffffffffffffffffffffffffffffffffff8000008114156145105761450f61455a565b5b8082039150505b919050565b60007f800000000000000000000000000000000000000000000000000000000000000082141561454f5761454e61455a565b5b81810390505b919050565b7f4e487b7100000000000000000000000000000000000000000000000000000000600052601160045260246000fd5b565b7f4e487b7100000000000000000000000000000000000000000000000000000000600052601260045260246000fd5b565b7f4e487b7100000000000000000000000000000000000000000000000000000000600052604160045260246000fd5b565b73ffffffffffffffffffffffffffffffffffffffff8116811415156146125760006000fd5b505b565b801515811415156146275760006000fd5b505b565b8060020b8114151561463d5760006000fd5b505b565b8060060b811415156146535760006000fd5b505b565b60ff8116811415156146695760006000fd5b505b565bfea2646970667358221220d87ddd12e055fa3bca06c9e801fbe63b305c6cf433bbd555ded383972b990a2c64736f6c63430008040033",
  "linkReferences": {},
  "deployedLinkReferences": {}
}