{
  "_format": "hh-sol-artifact-1",
  "contractName": "PricesTestable",
  "sourceName": "contracts/core/mocks/PricesTestable.sol",
  "abi": [
    {
      "inputs": [
        {
          "components": [
            {
              "internalType": "contract IGovernor",
              "name": "Governor",
              "type": "address"
            },
            {
              "internalType": "address",
              "name": "Tcp",
              "type": "address"
            },
            {
              "internalType": "address",
              "name": "Hue",
              "type": "address"
            },
            {
              "internalType": "contract IUniswapV3Pool",
              "name": "CollateralPool",
              "type": "address"
            },
            {
              "internalType": "contract IUniswapV3Pool",
              "name": "ProtocolPool",
              "type": "address"
            },
            {
              "internalType": "address",
              "name": "TruEth",
              "type": "address"
            }
          ],
          "internalType": "struct IPrices.ConstructorParams",
          "name": "params",
          "type": "tuple"
        }
      ],
      "stateMutability": "nonpayable",
      "type": "constructor"
    },
    {
      "anonymous": false,
      "inputs": [
        {
          "indexed": true,
          "internalType": "address",
          "name": "pool",
          "type": "address"
        },
        {
          "indexed": false,
          "internalType": "uint256",
          "name": "price",
          "type": "uint256"
        },
        {
          "indexed": false,
          "internalType": "int24",
          "name": "tick",
          "type": "int24"
        }
      ],
      "name": "PriceUpdated",
      "type": "event"
    },
    {
      "anonymous": false,
      "inputs": [],
      "name": "Stopped",
      "type": "event"
    },
    {
      "inputs": [],
      "name": "__now",
      "outputs": [
        {
          "internalType": "uint32[]",
          "name": "times",
          "type": "uint32[]"
        }
      ],
      "stateMutability": "pure",
      "type": "function"
    },
    {
      "inputs": [
        {
          "internalType": "uint64",
          "name": "input",
          "type": "uint64"
        }
      ],
      "name": "calculate64To32",
      "outputs": [
        {
          "internalType": "uint32",
          "name": "",
          "type": "uint32"
        }
      ],
      "stateMutability": "pure",
      "type": "function"
    },
    {
      "inputs": [
        {
          "internalType": "uint32",
          "name": "twapDuration",
          "type": "uint32"
        }
      ],
      "name": "calculateInstantCollateralPrice",
      "outputs": [
        {
          "internalType": "uint256",
          "name": "",
          "type": "uint256"
        }
      ],
      "stateMutability": "view",
      "type": "function"
    },
    {
      "inputs": [
        {
          "internalType": "contract IUniswapV3Pool",
          "name": "pool",
          "type": "address"
        },
        {
          "internalType": "uint32",
          "name": "twapDuration",
          "type": "uint32"
        }
      ],
      "name": "calculateInstantTwappedPrice",
      "outputs": [
        {
          "internalType": "uint256",
          "name": "",
          "type": "uint256"
        }
      ],
      "stateMutability": "view",
      "type": "function"
    },
    {
      "inputs": [
        {
          "internalType": "contract IUniswapV3Pool",
          "name": "pool",
          "type": "address"
        },
        {
          "internalType": "uint32",
          "name": "twapDuration",
          "type": "uint32"
        }
      ],
      "name": "calculateInstantTwappedTick",
      "outputs": [
        {
          "internalType": "int24",
          "name": "tick",
          "type": "int24"
        }
      ],
      "stateMutability": "view",
      "type": "function"
    },
    {
      "inputs": [
        {
          "internalType": "contract IUniswapV3Pool",
          "name": "pool",
          "type": "address"
        },
        {
          "internalType": "bool",
          "name": "normalizeDecimals",
          "type": "bool"
        }
      ],
      "name": "calculateTwappedPrice",
      "outputs": [
        {
          "internalType": "uint256",
          "name": "price",
          "type": "uint256"
        }
      ],
      "stateMutability": "view",
      "type": "function"
    },
    {
      "inputs": [],
      "name": "collateralPool",
      "outputs": [
        {
          "internalType": "contract IUniswapV3Pool",
          "name": "",
          "type": "address"
        }
      ],
      "stateMutability": "view",
      "type": "function"
    },
    {
      "inputs": [],
      "name": "deployer",
      "outputs": [
        {
          "internalType": "address",
          "name": "",
          "type": "address"
        }
      ],
      "stateMutability": "view",
      "type": "function"
    },
    {
      "inputs": [
        {
          "internalType": "uint160",
          "name": "sqrtPriceX96",
          "type": "uint160"
        }
      ],
      "name": "getE18PriceForSqrtX96Price",
      "outputs": [
        {
          "internalType": "uint256",
          "name": "",
          "type": "uint256"
        }
      ],
      "stateMutability": "pure",
      "type": "function"
    },
    {
      "inputs": [
        {
          "internalType": "int24",
          "name": "tick",
          "type": "int24"
        },
        {
          "internalType": "bool",
          "name": "isToken0",
          "type": "bool"
        }
      ],
      "name": "getPriceForTick",
      "outputs": [
        {
          "internalType": "uint256",
          "name": "price",
          "type": "uint256"
        }
      ],
      "stateMutability": "pure",
      "type": "function"
    },
    {
      "inputs": [
        {
          "internalType": "int56",
          "name": "tickCumulative0",
          "type": "int56"
        },
        {
          "internalType": "int56",
          "name": "tickCumulative1",
          "type": "int56"
        },
        {
          "internalType": "uint32",
          "name": "timeElapsed",
          "type": "uint32"
        }
      ],
      "name": "getTickForCumulators",
      "outputs": [
        {
          "internalType": "int24",
          "name": "tick",
          "type": "int24"
        }
      ],
      "stateMutability": "pure",
      "type": "function"
    },
    {
      "inputs": [],
      "name": "governor",
      "outputs": [
        {
          "internalType": "contract IGovernor",
          "name": "",
          "type": "address"
        }
      ],
      "stateMutability": "view",
      "type": "function"
    },
    {
      "inputs": [],
      "name": "hue",
      "outputs": [
        {
          "internalType": "address",
          "name": "",
          "type": "address"
        }
      ],
      "stateMutability": "view",
      "type": "function"
    },
    {
      "inputs": [
        {
          "internalType": "uint32",
          "name": "twapDuration",
          "type": "uint32"
        }
      ],
      "name": "hueTcpPrice",
      "outputs": [
        {
          "internalType": "uint256",
          "name": "",
          "type": "uint256"
        }
      ],
      "stateMutability": "view",
      "type": "function"
    },
    {
      "inputs": [],
      "name": "init",
      "outputs": [],
      "stateMutability": "nonpayable",
      "type": "function"
    },
    {
      "inputs": [
        {
          "internalType": "contract IUniswapV3Pool",
          "name": "pool",
          "type": "address"
        }
      ],
      "name": "initializePool",
      "outputs": [],
      "stateMutability": "nonpayable",
      "type": "function"
    },
    {
      "inputs": [
        {
          "internalType": "contract IUniswapV3Pool",
          "name": "pool",
          "type": "address"
        }
      ],
      "name": "initializeWethPool",
      "outputs": [],
      "stateMutability": "nonpayable",
      "type": "function"
    },
    {
      "inputs": [
        {
          "internalType": "contract IUniswapV3Pool",
          "name": "pool",
          "type": "address"
        }
      ],
      "name": "isPoolInitialized",
      "outputs": [
        {
          "internalType": "bool",
          "name": "",
          "type": "bool"
        }
      ],
      "stateMutability": "view",
      "type": "function"
    },
    {
      "inputs": [
        {
          "internalType": "uint256",
          "name": "price",
          "type": "uint256"
        },
        {
          "components": [
            {
              "internalType": "uint64",
              "name": "startTime",
              "type": "uint64"
            },
            {
              "internalType": "int56",
              "name": "tickCumulative",
              "type": "int56"
            },
            {
              "internalType": "int24",
              "name": "tick",
              "type": "int24"
            },
            {
              "internalType": "uint8",
              "name": "otherTokenDecimals",
              "type": "uint8"
            },
            {
              "internalType": "bool",
              "name": "isToken0",
              "type": "bool"
            },
            {
              "internalType": "bool",
              "name": "valid",
              "type": "bool"
            }
          ],
          "internalType": "struct IPrices.PriceInfo",
          "name": "pi",
          "type": "tuple"
        }
      ],
      "name": "normalizeDecimals",
      "outputs": [
        {
          "internalType": "uint256",
          "name": "",
          "type": "uint256"
        }
      ],
      "stateMutability": "pure",
      "type": "function"
    },
    {
      "inputs": [
        {
          "internalType": "contract IUniswapV3Pool",
          "name": "",
          "type": "address"
        }
      ],
      "name": "priceInfo",
      "outputs": [
        {
          "internalType": "uint64",
          "name": "startTime",
          "type": "uint64"
        },
        {
          "internalType": "int56",
          "name": "tickCumulative",
          "type": "int56"
        },
        {
          "internalType": "int24",
          "name": "tick",
          "type": "int24"
        },
        {
          "internalType": "uint8",
          "name": "otherTokenDecimals",
          "type": "uint8"
        },
        {
          "internalType": "bool",
          "name": "isToken0",
          "type": "bool"
        },
        {
          "internalType": "bool",
          "name": "valid",
          "type": "bool"
        }
      ],
      "stateMutability": "view",
      "type": "function"
    },
    {
      "inputs": [],
      "name": "protocolPool",
      "outputs": [
        {
          "internalType": "contract IUniswapV3Pool",
          "name": "",
          "type": "address"
        }
      ],
      "stateMutability": "view",
      "type": "function"
    },
    {
      "inputs": [
        {
          "internalType": "bool",
          "name": "valid",
          "type": "bool"
        }
      ],
      "name": "requireValidPool",
      "outputs": [],
      "stateMutability": "pure",
      "type": "function"
    },
    {
      "inputs": [],
      "name": "stop",
      "outputs": [],
      "stateMutability": "nonpayable",
      "type": "function"
    },
    {
      "inputs": [],
      "name": "stopped",
      "outputs": [
        {
          "internalType": "bool",
          "name": "",
          "type": "bool"
        }
      ],
      "stateMutability": "view",
      "type": "function"
    },
    {
      "inputs": [
        {
          "internalType": "contract IUniswapV3Pool",
          "name": "pool",
          "type": "address"
        }
      ],
      "name": "systemObtainReferencePrice",
      "outputs": [
        {
          "internalType": "uint256",
          "name": "",
          "type": "uint256"
        }
      ],
      "stateMutability": "nonpayable",
      "type": "function"
    },
    {
      "inputs": [],
      "name": "tcp",
      "outputs": [
        {
          "internalType": "address",
          "name": "",
          "type": "address"
        }
      ],
      "stateMutability": "view",
      "type": "function"
    },
    {
      "inputs": [],
      "name": "truEth",
      "outputs": [
        {
          "internalType": "address",
          "name": "",
          "type": "address"
        }
      ],
      "stateMutability": "view",
      "type": "function"
    },
    {
      "inputs": [
        {
          "internalType": "bytes4",
          "name": "",
          "type": "bytes4"
        }
      ],
      "name": "validUpdate",
      "outputs": [
        {
          "internalType": "bool",
          "name": "",
          "type": "bool"
        }
      ],
      "stateMutability": "view",
      "type": "function"
    }
  ],
  "bytecode": "0x610140604052600160026000509090553480156200001d5760006000fd5b5060405162003f8038038062003f80833981810160405281019062000043919062000223565b5b805b80600001515b8073ffffffffffffffffffffffffffffffffffffffff1660808173ffffffffffffffffffffffffffffffffffffffff16815260200150505b508060a0015173ffffffffffffffffffffffffffffffffffffffff1660e08173ffffffffffffffffffffffffffffffffffffffff1681526020015050806020015173ffffffffffffffffffffffffffffffffffffffff166101008173ffffffffffffffffffffffffffffffffffffffff1681526020015050806040015173ffffffffffffffffffffffffffffffffffffffff166101208173ffffffffffffffffffffffffffffffffffffffff1681526020015050806060015173ffffffffffffffffffffffffffffffffffffffff1660a08173ffffffffffffffffffffffffffffffffffffffff1681526020015050806080015173ffffffffffffffffffffffffffffffffffffffff1660c08173ffffffffffffffffffffffffffffffffffffffff168152602001505033600460006101000a81548173ffffffffffffffffffffffffffffffffffffffff021916908373ffffffffffffffffffffffffffffffffffffffff1602179055505b505b50620002e556620002e4565b6000815190506001600160a01b038116811415156200021d5760006000fd5b5b919050565b600060c08284031215620002375760006000fd5b60405160c081018181106001600160401b03821117156200026857634e487b7160e01b600052604160045260246000fd5b80604052506200027883620001fe565b81526200028860208401620001fe565b60208201526200029b60408401620001fe565b6040820152620002ae60608401620001fe565b6060820152620002c160808401620001fe565b6080820152620002d460a08401620001fe565b60a0820152809150505b92915050565b5b60805160a05160c05160e0516101005161012051613bd4620003ac6000396000818161067401528181610a9201528181610ac7015281816115ec015261163c0152600081816106ab01528181610b660152610b9b015260008181610afc01528181610b3101528181610e0b015261149f015260008181610e3b01528181610e64015261161b0152600081816115cb0152818161167001526116c801526000818161060c0152818161098f01528181610d0801528181610eca01526116ef0152613bd46000f3fe60806040523480156100115760006000fd5b50600436106101c95760003560e01c80638396cf69116100fa578063d97e640011610098578063e1c7392a11610072578063e1c7392a14610562578063fa42dcf41461056c578063fcebd71c1461059c578063ff0eccf6146105cc576101c9565b8063d97e6400146104d2578063da6e58ce14610502578063dcaeb11b14610532576101c9565b8063ce403c13116100d4578063ce403c1314610436578063d00d0bd614610466578063d2f827eb14610496578063d5f39488146104b4576101c9565b80638396cf69146103b85780638d02a08a146103d6578063ce13785414610406576101c9565b80633c63a9cd11610167578063532cec7c11610141578063532cec7c146103195780636d048d531461034957806375f12b211461037e5780637c5b90111461039c576101c9565b80633c63a9cd146102af578063407431f7146102df57806347453af2146102fb576101c9565b806321b78b77116101a357806321b78b771461022757806332374174146102575780633497dcec1461027557806336fc02f414610291576101c9565b806307da68f5146101cf5780630c340a24146101d9578063113cf1ab146101f7576101c9565b60006000fd5b6101d76105ea565b005b6101e161060a565b6040516101ee9190612b67565b60405180910390f35b610211600480360381019061020c9190612b8f565b61062e565b60405161021e9190612be0565b60405180910390f35b610241600480360381019061023c9190612c1f565b610653565b60405161024e9190612c5d565b60405180910390f35b61025f610672565b60405161026c9190612c6f565b60405180910390f35b61028f600480360381019061028a9190612c97565b610696565b005b6102996106a9565b6040516102a69190612c6f565b60405180910390f35b6102c960048036038101906102c49190612ce9565b6106cd565b6040516102d69190612c5d565b60405180910390f35b6102f960048036038101906102f49190612d27565b61098d565b005b610303610be1565b6040516103109190612d50565b60405180910390f35b610333600480360381019061032e9190612d27565b610bfb565b6040516103409190612be0565b60405180910390f35b610363600480360381019061035e9190612d27565b610c5f565b60405161037596959493929190612da5565b60405180910390f35b610386610cf3565b6040516103939190612be0565b60405180910390f35b6103b660048036038101906103b19190612d27565b610d06565b005b6103c0610e39565b6040516103cd9190612df1565b60405180910390f35b6103f060048036038101906103eb9190612e3a565b610e5d565b6040516103fd9190612c5d565b60405180910390f35b610420600480360381019061041b9190612e5f565b610e9b565b60405161042d9190612c5d565b60405180910390f35b610450600480360381019061044b9190612d27565b610eb8565b60405161045d9190612c5d565b60405180910390f35b610480600480360381019061047b9190612e9e565b61147c565b60405161048d9190612eec565b60405180910390f35b61049e61149d565b6040516104ab9190612c6f565b60405180910390f35b6104bc6114c1565b6040516104c99190612c6f565b60405180910390f35b6104ec60048036038101906104e79190612f01565b6114e7565b6040516104f99190612c5d565b60405180910390f35b61051c60048036038101906105179190612f60565b611506565b6040516105299190612f85565b60405180910390f35b61054c6004803603810190610547919061306c565b611523565b6040516105599190612c5d565b60405180910390f35b61056a611542565b005b61058660048036038101906105819190612e3a565b611669565b6040516105939190612c5d565b60405180910390f35b6105b660048036038101906105b19190612f01565b6116a7565b6040516105c39190612eec565b60405180910390f35b6105d46116c6565b6040516105e19190612df1565b60405180910390f35b6105f86116ea63ffffffff16565b61060661174a63ffffffff16565b5b5b565b7f000000000000000000000000000000000000000000000000000000000000000081565b600160005060205280600052604060002060009150909054906101000a900460ff1681565b6000610665838361179463ffffffff16565b905061066c565b92915050565b7f000000000000000000000000000000000000000000000000000000000000000081565b6106a5816117d563ffffffff16565b5b50565b7f000000000000000000000000000000000000000000000000000000000000000081565b60006000600360005060008573ffffffffffffffffffffffffffffffffffffffff1673ffffffffffffffffffffffffffffffffffffffff1681526020019081526020016000206000506040518060c00160405290816000820160009054906101000a900467ffffffffffffffff1667ffffffffffffffff1667ffffffffffffffff1681526020016000820160089054906101000a900460060b60060b60060b815260200160008201600f9054906101000a900460020b60020b60020b81526020016000820160129054906101000a900460ff1660ff1660ff1681526020016000820160139054906101000a900460ff161515151581526020016000820160149054906101000a900460ff16151515158152602001505090506107f88160a001516117d563ffffffff16565b600061080861181b63ffffffff16565b90508067ffffffffffffffff16826000015167ffffffffffffffff16101515610866576040517f08c379a000000000000000000000000000000000000000000000000000000000815260040161085d90613143565b60405180910390fd5b60008573ffffffffffffffffffffffffffffffffffffffff1663883bdbfd61089261183663ffffffff16565b6040518263ffffffff1660e01b81526004016108ae9190612d50565b600060405180830381865afa1580156108cc573d600060003e3d6000fd5b505050506040513d6000823e3d601f19601f820116820180604052508101906108f59190613230565b50905061095a61094a84602001518360008151811015156109195761091861330b565b5b602002602001015161093f876000015187610934919061336d565b6118bf63ffffffff16565b61192163ffffffff16565b846080015161179463ffffffff16565b9350835084610969578361097a565b610979848461199963ffffffff16565b5b9350505050610987565050505b92915050565b7f000000000000000000000000000000000000000000000000000000000000000073ffffffffffffffffffffffffffffffffffffffff16639ec5a8946040518163ffffffff1660e01b8152600401602060405180830381865afa1580156109f9573d600060003e3d6000fd5b505050506040513d601f19601f82011682018060405250810190610a1d919061339f565b73ffffffffffffffffffffffffffffffffffffffff163373ffffffffffffffffffffffffffffffffffffffff16141515610a8c576040517f08c379a0000000000000000000000000000000000000000000000000000000008152600401610a83906133c8565b60405180910390fd5b610abc817f0000000000000000000000000000000000000000000000000000000000000000611a4c63ffffffff16565b15610af657610af1817f0000000000000000000000000000000000000000000000000000000000000000611b9e63ffffffff16565b610bdd565b610b26817f0000000000000000000000000000000000000000000000000000000000000000611a4c63ffffffff16565b15610b6057610b5b817f0000000000000000000000000000000000000000000000000000000000000000611b9e63ffffffff16565b610bdc565b610b90817f0000000000000000000000000000000000000000000000000000000000000000611a4c63ffffffff16565b15610bca57610bc5817f0000000000000000000000000000000000000000000000000000000000000000611b9e63ffffffff16565b610bdb565b610bda60006117d563ffffffff16565b5b5b5b5b50565b6060610bf161183663ffffffff16565b9050610bf8565b90565b6000600360005060008373ffffffffffffffffffffffffffffffffffffffff1673ffffffffffffffffffffffffffffffffffffffff16815260200190815260200160002060005060000160149054906101000a900460ff169050610c5a565b919050565b60036000506020528060005260406000206000915090508060000160009054906101000a900467ffffffffffffffff16908060000160089054906101000a900460060b9080600001600f9054906101000a900460020b908060000160129054906101000a900460ff16908060000160139054906101000a900460ff16908060000160149054906101000a900460ff16905086565b600060009054906101000a900460ff1681565b7f000000000000000000000000000000000000000000000000000000000000000073ffffffffffffffffffffffffffffffffffffffff166343f48fbd6040518163ffffffff1660e01b8152600401602060405180830381865afa158015610d72573d600060003e3d6000fd5b505050506040513d601f19601f82011682018060405250810190610d969190613407565b73ffffffffffffffffffffffffffffffffffffffff163373ffffffffffffffffffffffffffffffffffffffff16141515610e05576040517f08c379a0000000000000000000000000000000000000000000000000000000008152600401610dfc906133c8565b60405180910390fd5b610e35817f0000000000000000000000000000000000000000000000000000000000000000611b9e63ffffffff16565b5b50565b7f000000000000000000000000000000000000000000000000000000000000000081565b6000610e8f7f00000000000000000000000000000000000000000000000000000000000000008361209963ffffffff16565b9050610e96565b919050565b6000610eac8261216863ffffffff16565b9050610eb3565b919050565b6000610ec86121c563ffffffff16565b7f000000000000000000000000000000000000000000000000000000000000000073ffffffffffffffffffffffffffffffffffffffff166343f48fbd6040518163ffffffff1660e01b8152600401602060405180830381865afa158015610f34573d600060003e3d6000fd5b505050506040513d601f19601f82011682018060405250810190610f589190613407565b73ffffffffffffffffffffffffffffffffffffffff163373ffffffffffffffffffffffffffffffffffffffff16141515610fc7576040517f08c379a0000000000000000000000000000000000000000000000000000000008152600401610fbe906133c8565b60405180910390fd5b6000600360005060008473ffffffffffffffffffffffffffffffffffffffff1673ffffffffffffffffffffffffffffffffffffffff1681526020019081526020016000206000506040518060c00160405290816000820160009054906101000a900467ffffffffffffffff1667ffffffffffffffff1667ffffffffffffffff1681526020016000820160089054906101000a900460060b60060b60060b815260200160008201600f9054906101000a900460020b60020b60020b81526020016000820160129054906101000a900460ff1660ff1660ff1681526020016000820160139054906101000a900460ff161515151581526020016000820160149054906101000a900460ff16151515158152602001505090506110f08160a001516117d563ffffffff16565b600061110061181b63ffffffff16565b90508067ffffffffffffffff16826000015167ffffffffffffffff1610151561115e576040517f08c379a000000000000000000000000000000000000000000000000000000000815260040161115590613430565b60405180910390fd5b60008473ffffffffffffffffffffffffffffffffffffffff1663883bdbfd61118a61183663ffffffff16565b6040518263ffffffff1660e01b81526004016111a69190612d50565b600060405180830381865afa1580156111c4573d600060003e3d6000fd5b505050506040513d6000823e3d601f19601f820116820180604052508101906111ed9190613230565b50905061123f836020015182600081518110151561120e5761120d61330b565b5b6020026020010151611234866000015186611229919061336d565b6118bf63ffffffff16565b61192163ffffffff16565b836040019060020b908160020b815260200150508060008151811015156112695761126861330b565b5b6020026020010151836020019060060b908160060b8152602001505081836000019067ffffffffffffffff16908167ffffffffffffffff168152602001505082600360005060008773ffffffffffffffffffffffffffffffffffffffff1673ffffffffffffffffffffffffffffffffffffffff16815260200190815260200160002060005060008201518160000160006101000a81548167ffffffffffffffff021916908367ffffffffffffffff16021790555060208201518160000160086101000a81548166ffffffffffffff021916908360060b66ffffffffffffff160217905550604082015181600001600f6101000a81548162ffffff021916908360020b62ffffff16021790555060608201518160000160126101000a81548160ff021916908360ff16021790555060808201518160000160136101000a81548160ff02191690831515021790555060a08201518160000160146101000a81548160ff02191690831515021790555090505060006114026113f68560400151866080015161179463ffffffff16565b8561199963ffffffff16565b90508573ffffffffffffffffffffffffffffffffffffffff167f4aec2babed558ca204f263d79ac04efaccd05cd4b7bebfa21beeb221330062d382866040015160405161145092919061346f565b60405180910390a28094505050505061146856505050505b61147661222063ffffffff16565b5b919050565b600061148f84848461192163ffffffff16565b9050611496565b9392505050565b7f000000000000000000000000000000000000000000000000000000000000000081565b600460009054906101000a900473ffffffffffffffffffffffffffffffffffffffff1681565b60006114f9838361209963ffffffff16565b9050611500565b92915050565b6000611517826118bf63ffffffff16565b905061151e565b919050565b6000611535838361199963ffffffff16565b905061153c565b92915050565b6115a1600460009054906101000a900473ffffffffffffffffffffffffffffffffffffffff1673ffffffffffffffffffffffffffffffffffffffff163373ffffffffffffffffffffffffffffffffffffffff161461223063ffffffff16565b600460006101000a81549073ffffffffffffffffffffffffffffffffffffffff02191690556116167f00000000000000000000000000000000000000000000000000000000000000007f0000000000000000000000000000000000000000000000000000000000000000611b9e63ffffffff16565b6116667f00000000000000000000000000000000000000000000000000000000000000007f0000000000000000000000000000000000000000000000000000000000000000611b9e63ffffffff16565b5b565b600061169b7f00000000000000000000000000000000000000000000000000000000000000008361209963ffffffff16565b90506116a2565b919050565b60006116b9838361227663ffffffff16565b90506116c0565b92915050565b7f000000000000000000000000000000000000000000000000000000000000000081565b6117477f000000000000000000000000000000000000000000000000000000000000000073ffffffffffffffffffffffffffffffffffffffff163373ffffffffffffffffffffffffffffffffffffffff161461223063ffffffff16565b5b565b6001600060006101000a81548160ff0219169083151502179055507f7acc84e34091ae817647a4c49116f5cc07f319078ba80f8f5fde37ea7e25cbd660405160405180910390a15b565b60006117c86117bd836117a757846117b2565b846117b19061348b565b5b61245b63ffffffff16565b61216863ffffffff16565b90506117cf565b92915050565b801515611817576040517f08c379a000000000000000000000000000000000000000000000000000000000815260040161180e906134cf565b60405180910390fd5b5b50565b600061182e4261297c909063ffffffff16565b905080505b90565b6060600167ffffffffffffffff81111561185357611852612f9d565b5b6040519080825280602002602001820160405280156118815781602001602082028036833780820191505090505b5090508050600081600081518110151561189e5761189d61330b565b5b602002602001019063ffffffff16908163ffffffff16815260200150505b90565b60006401000000008267ffffffffffffffff16101515611914576040517f08c379a000000000000000000000000000000000000000000000000000000000815260040161190b9061350e565b60405180910390fd5b81905061191c565b919050565b600060008484611931919061354d565b905060008363ffffffff1690506000818361194c91906135ed565b905060008360060b12801561197057506000828461196a919061366a565b60060b14155b1561198457808061198090613690565b9150505b809350505050611992565050505b9392505050565b6000601260ff16826060015160ff1614156119b657829050611a46565b6000601260ff16836060015160ff161090506000816119e557601284606001516119e091906136f3565b6119f7565b836060015160126119f691906136f3565b5b905081611a2257611a1d81600a611a0e919061385e565b866129d890919063ffffffff16565b611a3b565b80600a611a2f919061385e565b85611a3a9190613876565b5b92505050611a465650505b92915050565b60008173ffffffffffffffffffffffffffffffffffffffff168373ffffffffffffffffffffffffffffffffffffffff16630dfe16816040518163ffffffff1660e01b8152600401602060405180830381865afa158015611ab1573d600060003e3d6000fd5b505050506040513d601f19601f82011682018060405250810190611ad59190613894565b73ffffffffffffffffffffffffffffffffffffffff161480611b9157508173ffffffffffffffffffffffffffffffffffffffff168373ffffffffffffffffffffffffffffffffffffffff1663d21220a76040518163ffffffff1660e01b8152600401602060405180830381865afa158015611b55573d600060003e3d6000fd5b505050506040513d601f19601f82011682018060405250810190611b799190613894565b73ffffffffffffffffffffffffffffffffffffffff16145b9050611b98565b92915050565b611bbc611bb18383611a4c63ffffffff16565b6117d563ffffffff16565b600060008373ffffffffffffffffffffffffffffffffffffffff16633850c7bd6040518163ffffffff1660e01b815260040160e060405180830381865afa158015611c0c573d600060003e3d6000fd5b505050506040513d601f19601f82011682018060405250810190611c3091906138dc565b505050505091509150611c6160008373ffffffffffffffffffffffffffffffffffffffff16116117d563ffffffff16565b60008473ffffffffffffffffffffffffffffffffffffffff1663883bdbfd611c8d61183663ffffffff16565b6040518263ffffffff1660e01b8152600401611ca99190612d50565b600060405180830381865afa158015611cc7573d600060003e3d6000fd5b505050506040513d6000823e3d601f19601f82011682018060405250810190611cf09190613230565b50905060008473ffffffffffffffffffffffffffffffffffffffff168673ffffffffffffffffffffffffffffffffffffffff16630dfe16816040518163ffffffff1660e01b8152600401602060405180830381865afa158015611d58573d600060003e3d6000fd5b505050506040513d601f19601f82011682018060405250810190611d7c9190613894565b73ffffffffffffffffffffffffffffffffffffffff161490506040518060c00160405280611dae61181b63ffffffff16565b67ffffffffffffffff168152602001836000815181101515611dd357611dd261330b565b5b602002602001015160060b81526020018460020b815260200182611e66578773ffffffffffffffffffffffffffffffffffffffff16630dfe16816040518163ffffffff1660e01b8152600401602060405180830381865afa158015611e3d573d600060003e3d6000fd5b505050506040513d601f19601f82011682018060405250810190611e619190613894565b611ed7565b8773ffffffffffffffffffffffffffffffffffffffff1663d21220a76040518163ffffffff1660e01b8152600401602060405180830381865afa158015611eb2573d600060003e3d6000fd5b505050506040513d601f19601f82011682018060405250810190611ed69190613894565b5b73ffffffffffffffffffffffffffffffffffffffff1663313ce5676040518163ffffffff1660e01b8152600401602060405180830381865afa158015611f22573d600060003e3d6000fd5b505050506040513d601f19601f82011682018060405250810190611f469190613977565b60ff168152602001821515815260200160011515815260200150600360005060008873ffffffffffffffffffffffffffffffffffffffff1673ffffffffffffffffffffffffffffffffffffffff16815260200190815260200160002060005060008201518160000160006101000a81548167ffffffffffffffff021916908367ffffffffffffffff16021790555060208201518160000160086101000a81548166ffffffffffffff021916908360060b66ffffffffffffff160217905550604082015181600001600f6101000a81548162ffffff021916908360020b62ffffff16021790555060608201518160000160126101000a81548160ff021916908360ff16021790555060808201518160000160136101000a81548160ff02191690831515021790555060a08201518160000160146101000a81548160ff021916908315150217905550905050505050505b5050565b600060006121116120b0858561227663ffffffff16565b600360005060008773ffffffffffffffffffffffffffffffffffffffff1673ffffffffffffffffffffffffffffffffffffffff16815260200190815260200160002060005060000160139054906101000a900460ff1661179463ffffffff16565b9050600081111515612158576040517f08c379a000000000000000000000000000000000000000000000000000000000815260040161214f906139a0565b60405180910390fd5b8091505061216256505b92915050565b600060006121a26c010000000000000000000000008473ffffffffffffffffffffffffffffffffffffffff166129f390919063ffffffff16565b90506121b78182612a1990919063ffffffff16565b9150506121c056505b919050565b600260026000505414151515612210576040517f08c379a0000000000000000000000000000000000000000000000000000000008152600401612207906139df565b60405180910390fd5b600260026000508190909055505b565b600160026000508190909055505b565b801515612272576040517f08c379a0000000000000000000000000000000000000000000000000000000008152600401612269906133c8565b60405180910390fd5b5b50565b600060008263ffffffff161115156122c3576040517f08c379a00000000000000000000000000000000000000000000000000000000081526004016122ba90613a1e565b60405180910390fd5b6000600267ffffffffffffffff8111156122e0576122df612f9d565b5b60405190808252806020026020018201604052801561230e5781602001602082028036833780820191505090505b509050828160008151811015156123285761232761330b565b5b602002602001019063ffffffff16908163ffffffff1681526020015050600081600181518110151561235d5761235c61330b565b5b602002602001019063ffffffff16908163ffffffff168152602001505060008473ffffffffffffffffffffffffffffffffffffffff1663883bdbfd836040518263ffffffff1660e01b81526004016123b59190612d50565b600060405180830381865afa1580156123d3573d600060003e3d6000fd5b505050506040513d6000823e3d601f19601f820116820180604052508101906123fc9190613230565b50905061244a8160008151811015156124185761241761330b565b5b60200260200101518260018151811015156124365761243561330b565b5b60200260200101518661192163ffffffff16565b925050506124555650505b92915050565b6000600060008360020b12612473578260020b612481565b8260020b61248090613a5d565b5b90507ffffffffffffffffffffffffffffffffffffffffffffffffffffffffffff276186124ad9061348b565b60020b81111515156124f4576040517f08c379a00000000000000000000000000000000000000000000000000000000081526004016124eb90613a9c565b60405180910390fd5b600060006001831614156125195770010000000000000000000000000000000061252b565b6ffffcb933bd6fad37aa2d162d1a5940015b70ffffffffffffffffffffffffffffffffff1690506000600283161415156125725760806ffff97272373d413259a46990580e213a8261256b9190613adb565b901c905080505b6000600483161415156125a45760806ffff2e50f5f656932ef12357cf3c7fdcc8261259d9190613adb565b901c905080505b6000600883161415156125d65760806fffe5caca7e10e4e61c3624eaa0941cd0826125cf9190613adb565b901c905080505b6000601083161415156126085760806fffcb9843d60f6159c9db58835c926644826126019190613adb565b901c905080505b60006020831614151561263a5760806fff973b41fa98c081472e6896dfb254c0826126339190613adb565b901c905080505b60006040831614151561266c5760806fff2ea16466c96a3843ec78b326b52861826126659190613adb565b901c905080505b60006080831614151561269e5760806ffe5dee046a99a2a811c461f1969c3053826126979190613adb565b901c905080505b600061010083161415156126d15760806ffcbe86c7900a88aedcffc83b479aa3a4826126ca9190613adb565b901c905080505b600061020083161415156127045760806ff987a7253ac413176f2b074cf7815e54826126fd9190613adb565b901c905080505b600061040083161415156127375760806ff3392b0822b70005940c7a398e4b70f3826127309190613adb565b901c905080505b6000610800831614151561276a5760806fe7159475a2c29b7443b29c7fa6e889d9826127639190613adb565b901c905080505b6000611000831614151561279d5760806fd097f3bdfd2022b8845ad8f792aa5825826127969190613adb565b901c905080505b600061200083161415156127d05760806fa9f746462d870fdf8a65dc1f90e061e5826127c99190613adb565b901c905080505b600061400083161415156128035760806f70d869a156d2a1b890bb3df62baf32f7826127fc9190613adb565b901c905080505b600061800083161415156128365760806f31be135f97d08fd981231505542fcfa68261282f9190613adb565b901c905080505b600062010000831614151561286a5760806f09aa508b5b7a84e1c677de54f3e99bc9826128639190613adb565b901c905080505b600062020000831614151561289d5760806e5d6af8dedb81196699c329225ee604826128969190613adb565b901c905080505b60006204000083161415156128cf5760806d2216e584f5fa1ea926041bedfe98826128c89190613adb565b901c905080505b60006208000083161415156128ff5760806b048a170391f7dc42444e8fa2826128f89190613adb565b901c905080505b60008460020b131561293c57807fffffffffffffffffffffffffffffffffffffffffffffffffffffffffffffffff6129379190613876565b905080505b60006401000000008261294f9190613b20565b1461295b57600161295e565b60005b60ff16602082901c6129709190613b3e565b9250825050505b919050565b600068010000000000000000821015156129cb576040517f08c379a00000000000000000000000000000000000000000000000000000000081526004016129c290613b5e565b60405180910390fd5b8190506129d3565b919050565b600081836129e69190613adb565b90506129ed565b92915050565b6000612a0e83670de0b6b3a764000084612a3f63ffffffff16565b905080505b92915050565b6000612a348383670de0b6b3a7640000612a3f63ffffffff16565b905080505b92915050565b6000600060006000198587098587029250828110838203039150506000811415612a8257600084111515612a735760006000fd5b83820492508292505050612b5c565b8084111515612a915760006000fd5b60008486880990508281118203915080830392506000856001877fffffffffffffffffffffffffffffffffffffffffffffffffffffffffffffffff030116905080508086049550808404935060018182600003040190508083028417935083506000600287600302189050808702600203810290508050808702600203810290508050808702600203810290508050808702600203810290508050808702600203810290508050808702600203810290508050808502955085505084945050505050612b5c56505050505b939250505056613b9d565b600060208201905073ffffffffffffffffffffffffffffffffffffffff831682525b92915050565b600060208284031215612ba25760006000fd5b81357fffffffff00000000000000000000000000000000000000000000000000000000811681141515612bd55760006000fd5b809150505b92915050565b600060208201905082151582525b92915050565b8060020b81141515612c065760006000fd5b505b565b80151581141515612c1b5760006000fd5b505b565b6000600060408385031215612c345760006000fd5b8235612c3f81612bf4565b809250506020830135612c5181612c0a565b809150505b9250929050565b60006020820190508282525b92915050565b600060208201905073ffffffffffffffffffffffffffffffffffffffff831682525b92915050565b600060208284031215612caa5760006000fd5b8135612cb581612c0a565b809150505b92915050565b73ffffffffffffffffffffffffffffffffffffffff811681141515612ce55760006000fd5b505b565b6000600060408385031215612cfe5760006000fd5b8235612d0981612cc0565b809250506020830135612d1b81612c0a565b809150505b9250929050565b600060208284031215612d3a5760006000fd5b8135612d4581612cc0565b809150505b92915050565b60006020808301818452808551808352604086019150838701925060005b81811015612d965763ffffffff8451168352848301925084840193505b600181019050612d6e565b50508093505050505b92915050565b600060c08201905067ffffffffffffffff881682528660060b60208301528560020b604083015260ff85166060830152831515608083015282151560a08301525b979650505050505050565b600060208201905073ffffffffffffffffffffffffffffffffffffffff831682525b92915050565b60008135905063ffffffff811681141515612e345760006000fd5b5b919050565b600060208284031215612e4d5760006000fd5b612e5682612e19565b90505b92915050565b600060208284031215612e725760006000fd5b8135612e7d81612cc0565b809150505b92915050565b8060060b81141515612e9a5760006000fd5b505b565b60006000600060608486031215612eb55760006000fd5b8335612ec081612e88565b809350506020840135612ed281612e88565b80925050612ee260408501612e19565b90505b9250925092565b60006020820190508260020b82525b92915050565b6000600060408385031215612f165760006000fd5b8235612f2181612cc0565b80925050612f3160208401612e19565b90505b9250929050565b60008135905067ffffffffffffffff811681141515612f5a5760006000fd5b5b919050565b600060208284031215612f735760006000fd5b612f7c82612f3b565b90505b92915050565b600060208201905063ffffffff831682525b92915050565b7f4e487b7100000000000000000000000000000000000000000000000000000000600052604160045260246000fd5b565b6000604051905060c0810181811067ffffffffffffffff82111715612ff657612ff5612f9d565b5b80604052505b90565b600060405190507fffffffffffffffffffffffffffffffffffffffffffffffffffffffffffffffe0601f830116810181811067ffffffffffffffff8211171561304b5761304a612f9d565b5b80604052505b919050565b60ff8116811415156130685760006000fd5b505b565b6000600082840360e08112156130825760006000fd5b8335925060c07fffffffffffffffffffffffffffffffffffffffffffffffffffffffffffffffe0820112156130b75760006000fd5b506130c0612fce565b6130cc60208501612f3b565b815260408401356130dc81612e88565b8060208301525060608401356130f181612bf4565b80604083015250608084013561310681613056565b8060608301525060a084013561311b81612c0a565b8060808301525060c084013561313081612c0a565b8060a083015250809150505b9250929050565b60208152601360208201527f54776170706564207072696365206572726f7200000000000000000000000000604082015260006060820190505b919050565b600067ffffffffffffffff82111561319d5761319c612f9d565b5b60208260051b0190505b919050565b600082601f83011215156131c05760006000fd5b815160206131d56131d083613182565b612fff565b808382528282019150828460051b8701019350868411156131f65760006000fd5b8286015b8481101561322157805161320d81612cc0565b8084525083830192505b83810190506131fa565b50809450505050505b92915050565b60006000604083850312156132455760006000fd5b825167ffffffffffffffff8082111561325e5760006000fd5b818501915085601f83011215156132755760006000fd5b8151602061328a61328583613182565b612fff565b808382528282019150828460051b8701019350898411156132ab5760006000fd5b82860195505b838610156132d85785516132c481612e88565b8083525082820191505b82860195506132b1565b80975050508087015193505050808211156132f35760006000fd5b50613300858286016131ac565b9150505b9250929050565b7f4e487b7100000000000000000000000000000000000000000000000000000000600052603260045260246000fd5b565b7f4e487b7100000000000000000000000000000000000000000000000000000000600052601160045260246000fd5b565b600067ffffffffffffffff8083168185169150818110156133915761339061333c565b5b818103925050505b92915050565b6000602082840312156133b25760006000fd5b81516133bd81612cc0565b809150505b92915050565b60208152600e60208201527f4e6f7420417574686f72697a6564000000000000000000000000000000000000604082015260006060820190505b919050565b60006020828403121561341a5760006000fd5b815161342581612cc0565b809150505b92915050565b60208152600260208201527f5445000000000000000000000000000000000000000000000000000000000000604082015260006060820190505b919050565b60006040820190508382528260020b60208301525b9392505050565b60008160020b7fffffffffffffffffffffffffffffffffffffffffffffffffffffffffff8000008114156134c2576134c161333c565b5b806000039150505b919050565b60208152600c60208201527f496e76616c696420706f6f6c0000000000000000000000000000000000000000604082015260006060820190505b919050565b60208152601360208201527f626967676572207468616e203332206269747300000000000000000000000000604082015260006060820190505b919050565b60008160060b8360060b60008112817fffffffffffffffffffffffffffffffffffffffffffffffffff80000000000000018312811516156135915761359061333c565b5b81667fffffffffffff0183138116156135ad576135ac61333c565b5b50808203925050505b92915050565b7f4e487b7100000000000000000000000000000000000000000000000000000000600052601260045260246000fd5b565b60008160060b8360060b801515613607576136066135bc565b5b7fffffffffffffffffffffffffffffffffffffffffffffffffffffffffffffffff81147fffffffffffffffffffffffffffffffffffffffffffffffffff800000000000008314161561365c5761365b61333c565b5b808205925050505b92915050565b60008260060b8015156136805761367f6135bc565b5b808360060b079150505b92915050565b60008160020b7fffffffffffffffffffffffffffffffffffffffffffffffffffffffffff8000008114156136c7576136c661333c565b5b7fffffffffffffffffffffffffffffffffffffffffffffffffffffffffffffffff81019150505b919050565b600060ff821660ff84168082101561370e5761370d61333c565b5b808203925050505b92915050565b6000600060018092508391505b8085111561378257817fffffffffffffffffffffffffffffffffffffffffffffffffffffffffffffffff048211156137645761376361333c565b5b808516156137725781830292505b818202915084811c94505b613729565b505b9250929050565b600082151561379d5760019050613858565b8115156137ad5760009050613858565b81600181146137c357600281146137d1576137ef565b6001915050613858566137ef565b60ff8411156137e3576137e261333c565b5b6001841b915050613858565b5060208310610133831016604e8410600b84101617156138135782820a9050613858565b61381d838361371c565b807fffffffffffffffffffffffffffffffffffffffffffffffffffffffffffffffff048211156138505761384f61333c565b5b808202925050505b92915050565b600061386d60ff84168361378b565b90505b92915050565b6000821515613888576138876135bc565b5b82820490505b92915050565b6000602082840312156138a75760006000fd5b81516138b281612cc0565b809150505b92915050565b60008151905061ffff8116811415156138d65760006000fd5b5b919050565b600060006000600060006000600060e0888a0312156138fb5760006000fd5b875161390681612cc0565b80975050602088015161391881612bf4565b80965050613928604089016138bd565b9450613936606089016138bd565b9350613944608089016138bd565b925060a088015161395481613056565b8092505060c088015161396681612c0a565b809150505b92959891949750929550565b60006020828403121561398a5760006000fd5b815161399581613056565b809150505b92915050565b60208152601360208201527f496e7374616e74207072696365206572726f7200000000000000000000000000604082015260006060820190505b919050565b60208152600d60208201527f4c43205265656e7472616e637900000000000000000000000000000000000000604082015260006060820190505b919050565b60208152601260208201527f496e7374616e74207469636b206572726f720000000000000000000000000000604082015260006060820190505b919050565b60007f8000000000000000000000000000000000000000000000000000000000000000821415613a9057613a8f61333c565b5b8160000390505b919050565b60208152600160208201527f5400000000000000000000000000000000000000000000000000000000000000604082015260006060820190505b919050565b6000817fffffffffffffffffffffffffffffffffffffffffffffffffffffffffffffffff0483118215151615613b1457613b1361333c565b5b82820290505b92915050565b6000821515613b3257613b316135bc565b5b82820690505b92915050565b60008219821115613b5257613b5161333c565b5b82820190505b92915050565b60208152601160208201527f6d6f7265207468616e2036342062697473000000000000000000000000000000604082015260006060820190505b919050565bfea2646970667358221220290299ed6d4ef2ba867ce326ed4ce841de81ee45ed5e3d56f1d3809303bc8b5364736f6c634300080c0033",
  "linkReferences": {},
  "deployedLinkReferences": {}
}