{
  "_format": "hh-sol-artifact-1",
  "contractName": "GenesisAllocation",
  "sourceName": "contracts/core/auxiliary/allocations/GenesisAllocation.sol",
  "abi": [
    {
      "inputs": [
        {
          "components": [
            {
              "internalType": "address",
              "name": "Governor",
              "type": "address"
            },
            {
              "internalType": "address",
              "name": "Tcp",
              "type": "address"
            },
            {
              "internalType": "address",
              "name": "Authenticator",
              "type": "address"
            },
            {
              "internalType": "uint64",
              "name": "GenesisClaimDuration",
              "type": "uint64"
            }
          ],
          "internalType": "struct GenesisAllocation.ConstructorParams",
          "name": "params",
          "type": "tuple"
        }
      ],
      "stateMutability": "nonpayable",
      "type": "constructor"
    },
    {
      "anonymous": false,
      "inputs": [
        {
          "indexed": false,
          "internalType": "uint64",
          "name": "deadline",
          "type": "uint64"
        }
      ],
      "name": "DeadlineSet",
      "type": "event"
    },
    {
      "anonymous": false,
      "inputs": [
        {
          "indexed": true,
          "internalType": "address",
          "name": "dest",
          "type": "address"
        },
        {
          "indexed": false,
          "internalType": "uint256",
          "name": "count",
          "type": "uint256"
        }
      ],
      "name": "IncentiveDistributed",
      "type": "event"
    },
    {
      "anonymous": false,
      "inputs": [
        {
          "indexed": true,
          "internalType": "address",
          "name": "receiver",
          "type": "address"
        },
        {
          "indexed": false,
          "internalType": "uint128",
          "name": "count",
          "type": "uint128"
        }
      ],
      "name": "LockPositionIncreased",
      "type": "event"
    },
    {
      "anonymous": false,
      "inputs": [
        {
          "indexed": true,
          "internalType": "address",
          "name": "newGuardian",
          "type": "address"
        }
      ],
      "name": "NewGuardian",
      "type": "event"
    },
    {
      "anonymous": false,
      "inputs": [
        {
          "indexed": true,
          "internalType": "address",
          "name": "receiver",
          "type": "address"
        },
        {
          "indexed": true,
          "internalType": "uint16",
          "name": "roundID",
          "type": "uint16"
        },
        {
          "indexed": false,
          "internalType": "uint128",
          "name": "count",
          "type": "uint128"
        }
      ],
      "name": "SignatureProcessed",
      "type": "event"
    },
    {
      "anonymous": false,
      "inputs": [
        {
          "indexed": true,
          "internalType": "address",
          "name": "receiver",
          "type": "address"
        },
        {
          "indexed": true,
          "internalType": "uint8",
          "name": "lockDurationMonths",
          "type": "uint8"
        },
        {
          "indexed": false,
          "internalType": "uint256",
          "name": "count",
          "type": "uint256"
        }
      ],
      "name": "TokensLocked",
      "type": "event"
    },
    {
      "anonymous": false,
      "inputs": [
        {
          "indexed": true,
          "internalType": "address",
          "name": "receiver",
          "type": "address"
        },
        {
          "indexed": false,
          "internalType": "uint256",
          "name": "count",
          "type": "uint256"
        }
      ],
      "name": "TokensRemoved",
      "type": "event"
    },
    {
      "inputs": [],
      "name": "NAME",
      "outputs": [
        {
          "internalType": "string",
          "name": "",
          "type": "string"
        }
      ],
      "stateMutability": "view",
      "type": "function"
    },
    {
      "inputs": [],
      "name": "abdicateTokenRemoval",
      "outputs": [],
      "stateMutability": "nonpayable",
      "type": "function"
    },
    {
      "inputs": [],
      "name": "authenticator",
      "outputs": [
        {
          "internalType": "address",
          "name": "",
          "type": "address"
        }
      ],
      "stateMutability": "view",
      "type": "function"
    },
    {
      "inputs": [],
      "name": "canRemoveTokens",
      "outputs": [
        {
          "internalType": "bool",
          "name": "",
          "type": "bool"
        }
      ],
      "stateMutability": "view",
      "type": "function"
    },
    {
      "inputs": [],
      "name": "chainID",
      "outputs": [
        {
          "internalType": "uint256",
          "name": "_chainID",
          "type": "uint256"
        }
      ],
      "stateMutability": "pure",
      "type": "function"
    },
    {
      "inputs": [
        {
          "components": [
            {
              "components": [
                {
                  "internalType": "uint8",
                  "name": "v",
                  "type": "uint8"
                },
                {
                  "internalType": "bytes32",
                  "name": "r",
                  "type": "bytes32"
                },
                {
                  "internalType": "bytes32",
                  "name": "s",
                  "type": "bytes32"
                }
              ],
              "internalType": "struct GenesisAllocation.Auth",
              "name": "auth",
              "type": "tuple"
            },
            {
              "internalType": "uint16",
              "name": "roundID",
              "type": "uint16"
            },
            {
              "internalType": "uint128",
              "name": "count",
              "type": "uint128"
            }
          ],
          "internalType": "struct GenesisAllocation.ClaimAllocationData[]",
          "name": "claimAllocationData",
          "type": "tuple[]"
        }
      ],
      "name": "claimAllocations",
      "outputs": [],
      "stateMutability": "nonpayable",
      "type": "function"
    },
    {
      "inputs": [
        {
          "internalType": "address",
          "name": "",
          "type": "address"
        },
        {
          "internalType": "uint8",
          "name": "",
          "type": "uint8"
        },
        {
          "internalType": "bytes32",
          "name": "",
          "type": "bytes32"
        },
        {
          "internalType": "bytes32",
          "name": "",
          "type": "bytes32"
        }
      ],
      "name": "claimedSig",
      "outputs": [
        {
          "internalType": "bool",
          "name": "",
          "type": "bool"
        }
      ],
      "stateMutability": "view",
      "type": "function"
    },
    {
      "inputs": [],
      "name": "dao",
      "outputs": [
        {
          "internalType": "contract ITokenLockDao",
          "name": "",
          "type": "address"
        }
      ],
      "stateMutability": "view",
      "type": "function"
    },
    {
      "inputs": [],
      "name": "deadline",
      "outputs": [
        {
          "internalType": "uint64",
          "name": "",
          "type": "uint64"
        }
      ],
      "stateMutability": "view",
      "type": "function"
    },
    {
      "inputs": [
        {
          "internalType": "uint64",
          "name": "newDeadline",
          "type": "uint64"
        }
      ],
      "name": "extendDeadline",
      "outputs": [],
      "stateMutability": "nonpayable",
      "type": "function"
    },
    {
      "inputs": [
        {
          "internalType": "address",
          "name": "userAddress",
          "type": "address"
        },
        {
          "internalType": "uint16",
          "name": "roundID",
          "type": "uint16"
        },
        {
          "internalType": "uint128",
          "name": "count",
          "type": "uint128"
        }
      ],
      "name": "getMessage",
      "outputs": [
        {
          "internalType": "bytes32",
          "name": "",
          "type": "bytes32"
        }
      ],
      "stateMutability": "view",
      "type": "function"
    },
    {
      "inputs": [
        {
          "internalType": "uint128",
          "name": "count",
          "type": "uint128"
        }
      ],
      "name": "getTokens",
      "outputs": [],
      "stateMutability": "nonpayable",
      "type": "function"
    },
    {
      "inputs": [],
      "name": "guardian",
      "outputs": [
        {
          "internalType": "address",
          "name": "",
          "type": "address"
        }
      ],
      "stateMutability": "view",
      "type": "function"
    },
    {
      "inputs": [
        {
          "internalType": "address",
          "name": "",
          "type": "address"
        }
      ],
      "name": "lockPositions",
      "outputs": [
        {
          "internalType": "uint128",
          "name": "totalAllocation",
          "type": "uint128"
        },
        {
          "internalType": "uint128",
          "name": "tokensAllocated",
          "type": "uint128"
        },
        {
          "internalType": "uint256",
          "name": "cumulativeTokensAllocatedxLockYears",
          "type": "uint256"
        }
      ],
      "stateMutability": "view",
      "type": "function"
    },
    {
      "inputs": [
        {
          "internalType": "uint128",
          "name": "count",
          "type": "uint128"
        },
        {
          "internalType": "uint8",
          "name": "lockDurationMonths",
          "type": "uint8"
        }
      ],
      "name": "lockTokensIntoDao",
      "outputs": [],
      "stateMutability": "nonpayable",
      "type": "function"
    },
    {
      "inputs": [],
      "name": "minAverageYearsLocked",
      "outputs": [
        {
          "internalType": "uint256",
          "name": "",
          "type": "uint256"
        }
      ],
      "stateMutability": "view",
      "type": "function"
    },
    {
      "inputs": [],
      "name": "pendingGuardian",
      "outputs": [
        {
          "internalType": "address",
          "name": "",
          "type": "address"
        }
      ],
      "stateMutability": "view",
      "type": "function"
    },
    {
      "inputs": [],
      "name": "recieveGuardianship",
      "outputs": [],
      "stateMutability": "nonpayable",
      "type": "function"
    },
    {
      "inputs": [
        {
          "internalType": "address",
          "name": "dest",
          "type": "address"
        },
        {
          "internalType": "uint256",
          "name": "count",
          "type": "uint256"
        }
      ],
      "name": "removeTokens",
      "outputs": [],
      "stateMutability": "nonpayable",
      "type": "function"
    },
    {
      "inputs": [
        {
          "internalType": "address",
          "name": "_dao",
          "type": "address"
        }
      ],
      "name": "setDao",
      "outputs": [],
      "stateMutability": "nonpayable",
      "type": "function"
    },
    {
      "inputs": [],
      "name": "startTime",
      "outputs": [
        {
          "internalType": "uint64",
          "name": "",
          "type": "uint64"
        }
      ],
      "stateMutability": "view",
      "type": "function"
    },
    {
      "inputs": [],
      "name": "token",
      "outputs": [
        {
          "internalType": "address",
          "name": "",
          "type": "address"
        }
      ],
      "stateMutability": "view",
      "type": "function"
    },
    {
      "inputs": [],
      "name": "tokenMinter",
      "outputs": [
        {
          "internalType": "contract ITokenIncentiveMinter",
          "name": "",
          "type": "address"
        }
      ],
      "stateMutability": "view",
      "type": "function"
    },
    {
      "inputs": [
        {
          "internalType": "address",
          "name": "newGuardian",
          "type": "address"
        }
      ],
      "name": "transferGuardianship",
      "outputs": [],
      "stateMutability": "nonpayable",
      "type": "function"
    }
  ],
  "bytecode": "0x6101206040526001600460086101000a81548160ff0219169083151502179055503480156200002e5760006000fd5b50604051620035ce380380620035ce833981810160405281019062000054919062000461565b5b80600001518160200151670de0b6b3a76400005b82825b8173ffffffffffffffffffffffffffffffffffffffff1660808173ffffffffffffffffffffffffffffffffffffffff1660601b815260140150508073ffffffffffffffffffffffffffffffffffffffff1660a08173ffffffffffffffffffffffffffffffffffffffff1660601b81526014015050620000f133620001a060201b60201c565b5b5050620001046200022860201b60201c565b67ffffffffffffffff1660c08167ffffffffffffffff1660c01b815260080150508060e081815260200150505b505050806040015173ffffffffffffffffffffffffffffffffffffffff166101008173ffffffffffffffffffffffffffffffffffffffff1660601b81526014015050620001986200018c82606001516200024a60201b60201c565b6200028960201b60201c565b5b506200050e565b80600060006101000a81548173ffffffffffffffffffffffffffffffffffffffff021916908373ffffffffffffffffffffffffffffffffffffffff1602179055508073ffffffffffffffffffffffffffffffffffffffff167fb6182387b7ea948602a7e04e662a27ce251dc3dd014eacaed10dce36b41bf1a560405160405180910390a25b50565b600062000242426200030560201b6200120117909060201c565b905080505b90565b60006200027f82620002616200022860201b60201c565b67ffffffffffffffff166200039960201b620012931790919060201c565b905080505b919050565b80600460006101000a81548167ffffffffffffffff021916908367ffffffffffffffff1602179055507f4f9cd54e7c3589d8772371faadbfc749621246794485e3bd944fdb91c5a3257e600460009054906101000a900467ffffffffffffffff16604051620002f99190620004f2565b60405180910390a15b50565b600068010000000000000000821015156200038b576040517f08c379a00000000000000000000000000000000000000000000000000000000081526004018080602001828103825260118152602001807f6d6f7265207468616e203634206269747300000000000000000000000000000081526020015060200191505060405180910390fd5b81905062000394565b919050565b60008267ffffffffffffffff1682840191508167ffffffffffffffff161015151562000430576040517f08c379a000000000000000000000000000000000000000000000000000000000815260040180806020018281038252600c8152602001807f6164642d6f766572666c6f77000000000000000000000000000000000000000081526020015060200191505060405180910390fd5b5b92915050566200050d565b6000815190506001600160a01b038116811415156200045b5760006000fd5b5b919050565b60006080828403121562000473578081fd5b604051608081016001600160401b0382821081831117156200049157fe5b81604052620004a0856200043c565b8352620004b0602086016200043c565b6020840152620004c3604086016200043c565b60408401526060850151915080821682141515620004df578384fd5b5080606083015250809150505b92915050565b60006020820190506001600160401b03831682525b92915050565b5b60805160601c60a05160601c60c05160c01c60e0516101005160601c61305662000578600039806107775280610f84525080610d915280612018525080610ba25280611f91525080610b2952806111df52806122d3525080610d6d528061240852506130566000f3fe60806040523480156100115760006000fd5b506004361061019d5760003560e01c80639cef4240116100e4578063d4ce8c101161008d578063f5fa0d7311610067578063f5fa0d731461041f578063f60d7af41461043b578063fc0c546a146104575761019d565b8063d4ce8c10146103b3578063f15ef919146103d1578063f22122e3146103ef5761019d565b8063bea676cd116100be578063bea676cd14610333578063c5c57a2214610363578063cfb3647b146103955761019d565b80639cef4240146102db578063a3f4df7e146102f7578063adc879e9146103155761019d565b80634162169f116101465780636637b882116101205780636637b88214610283578063762c31ba1461029f57806378e97925146102bd5761019d565b80634162169f1461023d578063452a93201461025b57806356a02cf5146102795761019d565b80632335c76b116101775780632335c76b146101f757806329dcb0cf146102155780633d2ec400146102335761019d565b806308805f75146101a35780630b54d683146101bf5780631e10eeaf146101db5761019d565b60006000fd5b6101bd60048036038101906101b89190612c15565b610475565b005b6101d960048036038101906101d49190612be1565b6105d1565b005b6101f560048036038101906101f09190612a0a565b6105e6565b005b6101ff610775565b60405161020c9190612d05565b60405180910390f35b61021d610799565b60405161022a9190612f5f565b60405180910390f35b61023b6107b3565b005b61024561086b565b6040516102529190612d7b565b60405180910390f35b610263610891565b6040516102709190612d05565b60405180910390f35b6102816108b7565b005b61029d600480360381019061029891906129a3565b610935565b005b6102a7610b7a565b6040516102b49190612d05565b60405180910390f35b6102c5610ba0565b6040516102d29190612f5f565b60405180910390f35b6102f560048036038101906102f091906129a3565b610bc4565b005b6102ff610c69565b60405161030c9190612da3565b60405180910390f35b61031d610ca5565b60405161032a9190612f4d565b60405180910390f35b61034d60048036038101906103489190612a37565b610cae565b60405161035a9190612d2d565b60405180910390f35b61037d600480360381019061037891906129a3565b610d03565b60405161038c93929190612f17565b60405180910390f35b61039d610d6b565b6040516103aa9190612d53565b60405180910390f35b6103bb610d8f565b6040516103c89190612f4d565b60405180910390f35b6103d9610db3565b6040516103e69190612d2d565b60405180910390f35b610409600480360381019061040491906129c6565b610dc6565b6040516104169190612d41565b60405180910390f35b61043960048036038101906104349190612a7f565b610e4c565b005b61045560048036038101906104509190612bbe565b6111ca565b005b61045f6111dd565b60405161046c9190612d05565b60405180910390f35b6104d4600060009054906101000a900473ffffffffffffffffffffffffffffffffffffffff1673ffffffffffffffffffffffffffffffffffffffff163373ffffffffffffffffffffffffffffffffffffffff161461133063ffffffff16565b600460009054906101000a900467ffffffffffffffff1667ffffffffffffffff166105036113ac63ffffffff16565b67ffffffffffffffff1610151561054f576040517f08c379a000000000000000000000000000000000000000000000000000000000815260040161054690612e75565b60405180910390fd5b8067ffffffffffffffff16600460009054906101000a900467ffffffffffffffff1667ffffffffffffffff161015156105bd576040517f08c379a00000000000000000000000000000000000000000000000000000000081526004016105b490612e36565b60405180910390fd5b6105cc816113c763ffffffff16565b5b5b50565b6105e1828261144163ffffffff16565b5b5050565b610645600060009054906101000a900473ffffffffffffffffffffffffffffffffffffffff1673ffffffffffffffffffffffffffffffffffffffff163373ffffffffffffffffffffffffffffffffffffffff161461133063ffffffff16565b6106536113ac63ffffffff16565b67ffffffffffffffff16600460009054906101000a900467ffffffffffffffff1667ffffffffffffffff161015156106c0576040517f08c379a00000000000000000000000000000000000000000000000000000000081526004016106b790612df7565b60405180910390fd5b600460089054906101000a900460ff161515610711576040517f08c379a000000000000000000000000000000000000000000000000000000000815260040161070890612eb4565b60405180910390fd5b610721828261149863ffffffff16565b8173ffffffffffffffffffffffffffffffffffffffff167f079bee7f865179f632bcb69702978d375656a5decc8ca5fc5c3acc636412e35d826040516107679190612f4d565b60405180910390a25b5b5050565b7f000000000000000000000000000000000000000000000000000000000000000081565b600460009054906101000a900467ffffffffffffffff1681565b610812600160009054906101000a900473ffffffffffffffffffffffffffffffffffffffff1673ffffffffffffffffffffffffffffffffffffffff163373ffffffffffffffffffffffffffffffffffffffff161461133063ffffffff16565b610843600160009054906101000a900473ffffffffffffffffffffffffffffffffffffffff166114fb63ffffffff16565b600160006101000a81549073ffffffffffffffffffffffffffffffffffffffff02191690555b565b600260009054906101000a900473ffffffffffffffffffffffffffffffffffffffff1681565b600060009054906101000a900473ffffffffffffffffffffffffffffffffffffffff1681565b610916600060009054906101000a900473ffffffffffffffffffffffffffffffffffffffff1673ffffffffffffffffffffffffffffffffffffffff163373ffffffffffffffffffffffffffffffffffffffff161461133063ffffffff16565b6000600460086101000a81548160ff0219169083151502179055505b5b565b610994600060009054906101000a900473ffffffffffffffffffffffffffffffffffffffff1673ffffffffffffffffffffffffffffffffffffffff163373ffffffffffffffffffffffffffffffffffffffff161461133063ffffffff16565b6109a38161158363ffffffff16565b1515610a1a576040517f08c379a000000000000000000000000000000000000000000000000000000000815260040180806020018281038252600e8152602001807f4e6f74206120636f6e747261637400000000000000000000000000000000000081526020015060200191505060405180910390fd5b600073ffffffffffffffffffffffffffffffffffffffff16600260009054906101000a900473ffffffffffffffffffffffffffffffffffffffff1673ffffffffffffffffffffffffffffffffffffffff16141515610ae3576040517f08c379a000000000000000000000000000000000000000000000000000000000815260040180806020018281038252600f8152602001807f44616f20616c726561647920736574000000000000000000000000000000000081526020015060200191505060405180910390fd5b80600260006101000a81548173ffffffffffffffffffffffffffffffffffffffff021916908373ffffffffffffffffffffffffffffffffffffffff160217905550610b757f0000000000000000000000000000000000000000000000000000000000000000827fffffffffffffffffffffffffffffffffffffffffffffffffffffffffffffffff61159d63ffffffff16565b5b5b50565b600160009054906101000a900473ffffffffffffffffffffffffffffffffffffffff1681565b7f000000000000000000000000000000000000000000000000000000000000000081565b610c23600060009054906101000a900473ffffffffffffffffffffffffffffffffffffffff1673ffffffffffffffffffffffffffffffffffffffff163373ffffffffffffffffffffffffffffffffffffffff161461133063ffffffff16565b80600160006101000a81548173ffffffffffffffffffffffffffffffffffffffff021916908373ffffffffffffffffffffffffffffffffffffffff1602179055505b5b50565b6040518060400160405280601281526020017f47656e6573697320416c6c6f636174696f6e000000000000000000000000000081526020015081565b60004690505b90565b600560005060205283600052604060002060005060205282600052604060002060005060205281600052604060002060005060205280600052604060002060009350935050509054906101000a900460ff1681565b60036000506020528060005260406000206000915090508060000160009054906101000a90046fffffffffffffffffffffffffffffffff16908060000160109054906101000a90046fffffffffffffffffffffffffffffffff16908060010160005054905083565b7f000000000000000000000000000000000000000000000000000000000000000081565b7f000000000000000000000000000000000000000000000000000000000000000081565b600460089054906101000a900460ff1681565b60006040518060400160405280601281526020017f47656e6573697320416c6c6f636174696f6e0000000000000000000000000000815260200150610e0f610ca563ffffffff16565b30868686604051602001610e2896959493929190612c4a565b604051602081830303815290604052805190602001209050610e45565b9392505050565b600460009054906101000a900467ffffffffffffffff1667ffffffffffffffff16610e7b6113ac63ffffffff16565b67ffffffffffffffff16101515610ec7576040517f08c379a0000000000000000000000000000000000000000000000000000000008152600401610ebe90612e75565b60405180910390fd5b6000815190506000610ed76128d5565b60006000600090505b848110156111c1578581815181101515610ef657fe5b602002602001015160000151925082508581815181101515610f1457fe5b602002602001015160200151935083508581815181101515610f3257fe5b602002602001015160400151915081506000610f80610f66610f5b338887610dc663ffffffff16565b6117a963ffffffff16565b85600001518660200151876040015161180d63ffffffff16565b90507f000000000000000000000000000000000000000000000000000000000000000073ffffffffffffffffffffffffffffffffffffffff168173ffffffffffffffffffffffffffffffffffffffff16141515610fdd57506111b4565b600560005060003373ffffffffffffffffffffffffffffffffffffffff1673ffffffffffffffffffffffffffffffffffffffff1681526020019081526020016000206000506000856000015160ff1660ff1681526020019081526020016000206000506000856020015160001916600019168152602001908152602001600020600050600085604001516000191660001916815260200190815260200160002060009054906101000a900460ff161561109657506111b4565b6001600560005060003373ffffffffffffffffffffffffffffffffffffffff1673ffffffffffffffffffffffffffffffffffffffff1681526020019081526020016000206000506000866000015160ff1660ff1681526020019081526020016000206000506000866020015160001916600019168152602001908152602001600020600050600086604001516000191660001916815260200190815260200160002060006101000a81548160ff02191690831515021790555061115f3384611a2863ffffffff16565b8461ffff163373ffffffffffffffffffffffffffffffffffffffff167f11edbb07a13b9bf33e7b6f1d08ebaf3bf42049dece1a89868d3d1ef7fa7cae08856040516111aa9190612ef3565b60405180910390a3505b8080600101915050610ee0565b50505050505b50565b6111d981611c2163ffffffff16565b5b50565b7f000000000000000000000000000000000000000000000000000000000000000081565b60006801000000000000000082101515611286576040517f08c379a00000000000000000000000000000000000000000000000000000000081526004018080602001828103825260118152602001807f6d6f7265207468616e203634206269747300000000000000000000000000000081526020015060200191505060405180910390fd5b81905061128e565b919050565b60008267ffffffffffffffff1682840191508167ffffffffffffffff1610151515611329576040517f08c379a000000000000000000000000000000000000000000000000000000000815260040180806020018281038252600c8152602001807f6164642d6f766572666c6f77000000000000000000000000000000000000000081526020015060200191505060405180910390fd5b5b92915050565b8015156113a8576040517f08c379a000000000000000000000000000000000000000000000000000000000815260040180806020018281038252600e8152602001807f4e6f7420417574686f72697a656400000000000000000000000000000000000081526020015060200191505060405180910390fd5b5b50565b60006113bf42611201909063ffffffff16565b905080505b90565b80600460006101000a81548167ffffffffffffffff021916908367ffffffffffffffff1602179055507f4f9cd54e7c3589d8772371faadbfc749621246794485e3bd944fdb91c5a3257e600460009054906101000a900467ffffffffffffffff166040516114359190612f5f565b60405180910390a15b50565b6114708261146561145a8460ff16611c6463ffffffff16565b611cc663ffffffff16565b611cfc63ffffffff16565b611493826fffffffffffffffffffffffffffffffff1682336121b963ffffffff16565b5b5050565b6114a8828261240663ffffffff16565b8173ffffffffffffffffffffffffffffffffffffffff167faf2b23cbaeeb4ac51eb45799ad2661590f109d149e349e2c1b8a89b769c46846826040518082815260200191505060405180910390a25b5050565b80600060006101000a81548173ffffffffffffffffffffffffffffffffffffffff021916908373ffffffffffffffffffffffffffffffffffffffff1602179055508073ffffffffffffffffffffffffffffffffffffffff167fb6182387b7ea948602a7e04e662a27ce251dc3dd014eacaed10dce36b41bf1a560405160405180910390a25b50565b60006000823b90506000811191505061159856505b919050565b600060008473ffffffffffffffffffffffffffffffffffffffff1663095ea7b360e01b8585604051602401808373ffffffffffffffffffffffffffffffffffffffff16815260200182815260200192505050604051602081830303815290604052907bffffffffffffffffffffffffffffffffffffffffffffffffffffffff19166020820180517bffffffffffffffffffffffffffffffffffffffffffffffffffffffff83818316178352505050506040518082805190602001908083835b60208310151561168257805182525b60208201915060208101905060208303925061165c565b6001836020036101000a0380198251168184511680821785525050505050509050019150506000604051808303816000865af19150503d80600081146116e4576040519150601f19603f3d011682016040523d82523d6000602084013e6116e9565b606091505b509150915081801561172a575060008151148061172957508080602001905160208110156117175760006000fd5b81019080805190602001909291905050505b5b15156117a1576040517f08c379a00000000000000000000000000000000000000000000000000000000081526004018080602001828103825260028152602001807f534100000000000000000000000000000000000000000000000000000000000081526020015060200191505060405180910390fd5b50505b505050565b60008160405160200180807f19457468657265756d205369676e6564204d6573736167653a0a333200000000815260200150601c0182600019168152602001915050604051602081830303815290604052805190602001209050611808565b919050565b60007f7fffffffffffffffffffffffffffffff5d576e7357a4501ddfe92f46681b20a08260001c1115151561188d576040517f08c379a0000000000000000000000000000000000000000000000000000000008152600401808060200182810382526022815260200180612fdd6022913960400191505060405180910390fd5b601b8460ff1614806118a25750601c8460ff16145b15156118f9576040517f08c379a0000000000000000000000000000000000000000000000000000000008152600401808060200182810382526022815260200180612fff6022913960400191505060405180910390fd5b60006001868686866040516000815260200160405260405180856000191681526020018460ff16815260200183600019168152602001826000191681526020019450505050506020604051602081039080840390855afa158015611962573d600060003e3d6000fd5b505050602060405103519050600073ffffffffffffffffffffffffffffffffffffffff168173ffffffffffffffffffffffffffffffffffffffff1614151515611a16576040517f08c379a00000000000000000000000000000000000000000000000000000000081526004018080602001828103825260188152602001807f45434453413a20696e76616c6964207369676e6174757265000000000000000081526020015060200191505060405180910390fd5b80915050611a2056505b949350505050565b6000816fffffffffffffffffffffffffffffffff16111515611ab5576040517f08c379a00000000000000000000000000000000000000000000000000000000081526004018080602001828103825260058152602001807f4e6f6f702e00000000000000000000000000000000000000000000000000000081526020015060200191505060405180910390fd5b611b3e81600360005060008573ffffffffffffffffffffffffffffffffffffffff1673ffffffffffffffffffffffffffffffffffffffff16815260200190815260200160002060005060000160009054906101000a90046fffffffffffffffffffffffffffffffff166fffffffffffffffffffffffffffffffff166124b690919063ffffffff16565b600360005060008473ffffffffffffffffffffffffffffffffffffffff1673ffffffffffffffffffffffffffffffffffffffff16815260200190815260200160002060005060000160006101000a8154816fffffffffffffffffffffffffffffffff02191690836fffffffffffffffffffffffffffffffff1602179055508173ffffffffffffffffffffffffffffffffffffffff167f39269bcc94baba79914cd1fbb42780568649c4411ad91db4c52e1e029bde31e28260405180826fffffffffffffffffffffffffffffffff16815260200191505060405180910390a25b5050565b611c3e81611c336113ac63ffffffff16565b611cfc63ffffffff16565b611c6033826fffffffffffffffffffffffffffffffff1661149863ffffffff16565b5b50565b6000600c611ca662015180611c8e61016d8667ffffffffffffffff1661256390919063ffffffff16565b67ffffffffffffffff1661256390919063ffffffff16565b67ffffffffffffffff16811515611cb957fe5b049050611cc1565b919050565b6000611cf282611cda6113ac63ffffffff16565b67ffffffffffffffff1661129390919063ffffffff16565b905080505b919050565b6000826fffffffffffffffffffffffffffffffff16111515611d89576040517f08c379a00000000000000000000000000000000000000000000000000000000081526004018080602001828103825260048152602001807f4e6f6f700000000000000000000000000000000000000000000000000000000081526020015060200191505060405180910390fd5b6000600360005060003373ffffffffffffffffffffffffffffffffffffffff1673ffffffffffffffffffffffffffffffffffffffff1681526020019081526020016000206000506040518060600160405290816000820160009054906101000a90046fffffffffffffffffffffffffffffffff166fffffffffffffffffffffffffffffffff166fffffffffffffffffffffffffffffffff1681526020016000820160109054906101000a90046fffffffffffffffffffffffffffffffff166fffffffffffffffffffffffffffffffff166fffffffffffffffffffffffffffffffff1681526020016001820160005054815260200150509050611eaa8382602001516fffffffffffffffffffffffffffffffff166124b690919063ffffffff16565b81602001906fffffffffffffffffffffffffffffffff1690816fffffffffffffffffffffffffffffffff168152602001505080600001516fffffffffffffffffffffffffffffffff1681602001516fffffffffffffffffffffffffffffffff1611151515611f83576040517f08c379a000000000000000000000000000000000000000000000000000000000815260040180806020018281038252600f8152602001807f546f6f206d616e7920746f6b656e73000000000000000000000000000000000081526020015060200191505060405180910390fd5b612008611ff5611fd4611fc97f00000000000000000000000000000000000000000000000000000000000000008667ffffffffffffffff1661263390919063ffffffff16565b6126d063ffffffff16565b856fffffffffffffffffffffffffffffffff166126ff90919063ffffffff16565b826040015161272590919063ffffffff16565b81604001909081815260200150507f000000000000000000000000000000000000000000000000000000000000000061206482602001516fffffffffffffffffffffffffffffffff1683604001516127ae90919063ffffffff16565b101515156120dd576040517f08c379a000000000000000000000000000000000000000000000000000000000815260040180806020018281038252601d8152602001807f4176657261676520756e6c6f636b2074696d6520746f6f2073686f727400000081526020015060200191505060405180910390fd5b80600360005060003373ffffffffffffffffffffffffffffffffffffffff1673ffffffffffffffffffffffffffffffffffffffff16815260200190815260200160002060005060008201518160000160006101000a8154816fffffffffffffffffffffffffffffffff02191690836fffffffffffffffffffffffffffffffff16021790555060208201518160000160106101000a8154816fffffffffffffffffffffffffffffffff02191690836fffffffffffffffffffffffffffffffff160217905550604082015181600101600050909055905050505b5050565b600073ffffffffffffffffffffffffffffffffffffffff16600260009054906101000a900473ffffffffffffffffffffffffffffffffffffffff1673ffffffffffffffffffffffffffffffffffffffff1614151515612283576040517f08c379a000000000000000000000000000000000000000000000000000000000815260040180806020018281038252600b8152602001807f44616f206e6f742073657400000000000000000000000000000000000000000081526020015060200191505060405180910390fd5b612293308461240663ffffffff16565b600260009054906101000a900473ffffffffffffffffffffffffffffffffffffffff1673ffffffffffffffffffffffffffffffffffffffff166327fb04747f00000000000000000000000000000000000000000000000000000000000000008585856040518563ffffffff1660e01b8152600401808573ffffffffffffffffffffffffffffffffffffffff1681526020018481526020018360ff1681526020018273ffffffffffffffffffffffffffffffffffffffff168152602001945050505050602060405180830381600087803b1580156123705760006000fd5b505af1158015612385573d600060003e3d6000fd5b505050506040513d602081101561239c5760006000fd5b8101908080519060200190929190505050508160ff168173ffffffffffffffffffffffffffffffffffffffff167f603b80bf3fe3620c8b3029a98c48ed6d0a750f155cd9ad74e5a33637b6e27612856040518082815260200191505060405180910390a35b505050565b7f000000000000000000000000000000000000000000000000000000000000000073ffffffffffffffffffffffffffffffffffffffff16634cd7a31583836040518363ffffffff1660e01b8152600401808373ffffffffffffffffffffffffffffffffffffffff16815260200182815260200192505050600060405180830381600087803b1580156124985760006000fd5b505af11580156124ad573d600060003e3d6000fd5b505050505b5050565b6000826fffffffffffffffffffffffffffffffff168284019150816fffffffffffffffffffffffffffffffff161015151561255c576040517f08c379a000000000000000000000000000000000000000000000000000000000815260040180806020018281038252600c8152602001807f6164642d6f766572666c6f77000000000000000000000000000000000000000081526020015060200191505060405180910390fd5b5b92915050565b600060008267ffffffffffffffff1614806125b557508267ffffffffffffffff168267ffffffffffffffff1683850292508267ffffffffffffffff168115156125a857fe5b0467ffffffffffffffff16145b151561262c576040517f08c379a000000000000000000000000000000000000000000000000000000000815260040180806020018281038252600c8152602001807f6d756c2d6f766572666c6f77000000000000000000000000000000000000000081526020015060200191505060405180910390fd5b5b92915050565b60008267ffffffffffffffff1682840391508167ffffffffffffffff16111515156126c9576040517f08c379a000000000000000000000000000000000000000000000000000000000815260040180806020018281038252600d8152602001807f7375622d756e646572666c6f770000000000000000000000000000000000000081526020015060200191505060405180910390fd5b5b92915050565b60006126f36301e133808367ffffffffffffffff166127ae90919063ffffffff16565b90506126fa565b919050565b600061271a8383670de0b6b3a76400006127d463ffffffff16565b905080505b92915050565b600082828401915081101515156127a7576040517f08c379a000000000000000000000000000000000000000000000000000000000815260040180806020018281038252600c8152602001807f6164642d6f766572666c6f77000000000000000000000000000000000000000081526020015060200191505060405180910390fd5b5b92915050565b60006127c983670de0b6b3a7640000846127d463ffffffff16565b905080505b92915050565b6000600060006000198587098587029250828110838203039150506000811415612817576000841115156128085760006000fd5b838204925082925050506128ce565b80841115156128265760006000fd5b60008486880990508281118203915080830392506000858660000316905080860495508084049350600181826000030401905080830284179350835060006002876003021890508087026002038102905080508087026002038102905080508087026002038102905080508087026002038102905080508087026002038102905080508087026002038102905080508085029550855085955050505050506128ce5650505050505b9392505050565b6040518060600160405280600060ff16815260200160006000191681526020016000600019168152602001509056612fdb565b60008135905073ffffffffffffffffffffffffffffffffffffffff8116811415156129335760006000fd5b5b919050565b6000813590506fffffffffffffffffffffffffffffffff8116811415156129605760006000fd5b5b919050565b60008135905061ffff81168114151561297f5760006000fd5b5b919050565b60008135905060ff81168114151561299d5760006000fd5b5b919050565b6000602082840312156129b4578081fd5b6129bd82612908565b90505b92915050565b600060006000606084860312156129db578182fd5b6129e484612908565b92506129f260208501612966565b9150612a0060408501612939565b90505b9250925092565b6000600060408385031215612a1d578182fd5b612a2683612908565b9150602083013590505b9250929050565b600060006000600060808587031215612a4e578081fd5b612a5785612908565b9350612a6560208601612985565b925060408501359150606085013590505b92959194509250565b60006020808385031215612a91578182fd5b823567ffffffffffffffff80821115612aa8578384fd5b818501915085601f8301121515612abd578384fd5b813581811115612ac957fe5b612ad68485830201612f7b565b80828252858201915085850160a08a888287028901011115612af6578889fd5b8896505b84871015612bac57818b0381811215612b1157898afd5b6040805160608082018281108b82111715612b2857fe5b80845281851215612b37578d8efd5b60c0830194508085108b86111715612b4b57fe5b848452612b5787612985565b8152608094508c87013585840152838701358684015280835250612b7c818701612966565b8c83015250612b8c838601612939565b82820152808752505050878401935080820191505b600187019650612afa565b50508096505050505050505b92915050565b600060208284031215612bcf578081fd5b612bd882612939565b90505b92915050565b6000600060408385031215612bf4578182fd5b612bfd83612939565b9150612c0b60208401612985565b90505b9250929050565b600060208284031215612c26578081fd5b813567ffffffffffffffff811681141515612c3f578182fd5b809150505b92915050565b60008751612c5c818460208c01612fa6565b80830190508781527fffffffffffffffffffffffffffffffffffffffff000000000000000000000000808860601b166020830152808760601b166034830152507fffff0000000000000000000000000000000000000000000000000000000000008560f01b1660488201527fffffffffffffffffffffffffffffffff000000000000000000000000000000008460801b16604a820152605a81019150505b979650505050505050565b600060208201905073ffffffffffffffffffffffffffffffffffffffff831682525b92915050565b600060208201905082151582525b92915050565b60006020820190508282525b92915050565b600060208201905073ffffffffffffffffffffffffffffffffffffffff831682525b92915050565b600060208201905073ffffffffffffffffffffffffffffffffffffffff831682525b92915050565b6000602082528251806020840152612dc2816040850160208701612fa6565b60407fffffffffffffffffffffffffffffffffffffffffffffffffffffffffffffffe0601f8301168401019150505b92915050565b600060208252601360208301527f446561646c696e65206e6f74207061737365640000000000000000000000000060408301526060820190505b919050565b600060208252600b60208301527f4d75737420657874656e6400000000000000000000000000000000000000000060408301526060820190505b919050565b600060208252600f60208301527f446561646c696e6520706173736564000000000000000000000000000000000060408301526060820190505b919050565b600060208252600960208301527f416264696361746564000000000000000000000000000000000000000000000060408301526060820190505b919050565b60006020820190506fffffffffffffffffffffffffffffffff831682525b92915050565b60006060820190506fffffffffffffffffffffffffffffffff80861683528085166020840152508260408301525b949350505050565b60006020820190508282525b92915050565b600060208201905067ffffffffffffffff831682525b92915050565b6000604051905081810181811067ffffffffffffffff82111715612f9b57fe5b80604052505b919050565b60005b83811015612fc55780820151818401525b602081019050612fa9565b83811115612fd4576000848401525b505b505050565bfe45434453413a20696e76616c6964207369676e6174757265202773272076616c756545434453413a20696e76616c6964207369676e6174757265202776272076616c7565a2646970667358221220f29e6bde726bcc41ead04559776034a277924220d0b0fa0e06e15faabc326e9f64736f6c63430007060033",
  "linkReferences": {},
  "deployedLinkReferences": {}
}