{
  "_format": "hh-sol-artifact-1",
  "contractName": "MockNftPositionManager",
  "sourceName": "contracts/core/mocks/MockNftPositionManager.sol",
  "abi": [
    {
      "inputs": [
        {
          "internalType": "address",
          "name": "_weth",
          "type": "address"
        }
      ],
      "stateMutability": "nonpayable",
      "type": "constructor"
    },
    {
      "inputs": [],
      "name": "WETH9",
      "outputs": [
        {
          "internalType": "address",
          "name": "",
          "type": "address"
        }
      ],
      "stateMutability": "view",
      "type": "function"
    }
  ],
  "bytecode": "0x60a06040523480156100115760006000fd5b506040516101a13803806101a183398181016040528101906100339190610076565b5b8073ffffffffffffffffffffffffffffffffffffffff1660808173ffffffffffffffffffffffffffffffffffffffff16815260200150505b506100af566100ae565b6000602082840312156100895760006000fd5b81516001600160a01b038116811415156100a35760006000fd5b809150505b92915050565b5b60805160da6100c760003960006050015260da6000f3fe608060405234801560105760006000fd5b5060043610602c5760003560e01c80634aa4a4fc14603257602c565b60006000fd5b6038604c565b60405160439190607b565b60405180910390f35b60007f000000000000000000000000000000000000000000000000000000000000000090506075565b905660a3565b600060208201905073ffffffffffffffffffffffffffffffffffffffff831682525b92915050565bfea264697066735822122082156545e8b8b8fc6fb0e94f4d07ed268c2f04369f1bbe775f57756d079e0b9164736f6c634300080c0033",
  "linkReferences": {},
  "deployedLinkReferences": {}
}