{
  "_format": "hh-sol-artifact-1",
  "contractName": "MockNftPositionManager",
  "sourceName": "contracts/core/mocks/MockNftPositionManager.sol",
  "abi": [
    {
      "inputs": [
        {
          "internalType": "address",
          "name": "_weth",
          "type": "address"
        }
      ],
      "stateMutability": "nonpayable",
      "type": "constructor"
    },
    {
      "inputs": [],
      "name": "WETH9",
      "outputs": [
        {
          "internalType": "address",
          "name": "",
          "type": "address"
        }
      ],
      "stateMutability": "view",
      "type": "function"
    }
  ],
  "bytecode": "0x60a06040523480156100115760006000fd5b506040516101a33803806101a383398181016040528101906100339190610079565b5b8073ffffffffffffffffffffffffffffffffffffffff1660808173ffffffffffffffffffffffffffffffffffffffff1660601b815260140150505b506100ae566100ad565b60006020828403121561008a578081fd5b81516001600160a01b038116811415156100a2578182fd5b809150505b92915050565b5b60805160601c60da6100c960003960006050015260da6000f3fe608060405234801560105760006000fd5b5060043610602c5760003560e01c80634aa4a4fc14603257602c565b60006000fd5b6038604c565b60405160439190607b565b60405180910390f35b60007f000000000000000000000000000000000000000000000000000000000000000090506075565b905660a3565b600060208201905073ffffffffffffffffffffffffffffffffffffffff831682525b92915050565bfea26469706673582212208c41867fe67693075338a6cb86c4c4dcf32491cc566b4b94516291f2d766edac64736f6c63430008040033",
  "linkReferences": {},
  "deployedLinkReferences": {}
}