{
  "_format": "hh-sol-artifact-1",
  "contractName": "RewardsTestable",
  "sourceName": "contracts/mocks/RewardsTestable.sol",
  "abi": [
    {
      "inputs": [
        {
          "components": [
            {
              "internalType": "contract IGovernor",
              "name": "Governor",
              "type": "address"
            },
            {
              "internalType": "contract IProtocolLock",
              "name": "ProtocolLock",
              "type": "address"
            },
            {
              "internalType": "contract IAccounting",
              "name": "Accounting",
              "type": "address"
            },
            {
              "internalType": "address",
              "name": "Weth",
              "type": "address"
            },
            {
              "internalType": "contract INonfungiblePositionManager",
              "name": "NftPositionManager",
              "type": "address"
            },
            {
              "internalType": "contract IUniswapV3Factory",
              "name": "UniswapV3Factory",
              "type": "address"
            }
          ],
          "internalType": "struct IRewards.ConstructorParams",
          "name": "params",
          "type": "tuple"
        }
      ],
      "stateMutability": "nonpayable",
      "type": "constructor"
    },
    {
      "anonymous": false,
      "inputs": [
        {
          "indexed": false,
          "internalType": "uint64",
          "name": "penalty",
          "type": "uint64"
        }
      ],
      "name": "LiquidationPenaltyUpdated",
      "type": "event"
    },
    {
      "anonymous": false,
      "inputs": [
        {
          "indexed": true,
          "internalType": "address",
          "name": "owner",
          "type": "address"
        },
        {
          "indexed": true,
          "internalType": "uint16",
          "name": "poolID",
          "type": "uint16"
        },
        {
          "indexed": true,
          "internalType": "uint256",
          "name": "nftID",
          "type": "uint256"
        },
        {
          "indexed": false,
          "internalType": "int24",
          "name": "tickLower",
          "type": "int24"
        },
        {
          "indexed": false,
          "internalType": "int24",
          "name": "tickUpper",
          "type": "int24"
        },
        {
          "indexed": false,
          "internalType": "uint128",
          "name": "liquidity",
          "type": "uint128"
        }
      ],
      "name": "LiquidityPositionCreated",
      "type": "event"
    },
    {
      "anonymous": false,
      "inputs": [
        {
          "indexed": true,
          "internalType": "uint256",
          "name": "nftID",
          "type": "uint256"
        },
        {
          "indexed": false,
          "internalType": "uint256",
          "name": "amount0",
          "type": "uint256"
        },
        {
          "indexed": false,
          "internalType": "uint256",
          "name": "amount1",
          "type": "uint256"
        }
      ],
      "name": "LiquidityPositionDecreased",
      "type": "event"
    },
    {
      "anonymous": false,
      "inputs": [
        {
          "indexed": true,
          "internalType": "uint256",
          "name": "nftID",
          "type": "uint256"
        },
        {
          "indexed": false,
          "internalType": "uint128",
          "name": "liquidity",
          "type": "uint128"
        }
      ],
      "name": "LiquidityPositionIncreased",
      "type": "event"
    },
    {
      "anonymous": false,
      "inputs": [
        {
          "indexed": true,
          "internalType": "uint256",
          "name": "nftID",
          "type": "uint256"
        },
        {
          "indexed": true,
          "internalType": "address",
          "name": "liquidator",
          "type": "address"
        }
      ],
      "name": "LiquidityPositionLiquidated",
      "type": "event"
    },
    {
      "anonymous": false,
      "inputs": [
        {
          "indexed": true,
          "internalType": "uint256",
          "name": "nftID",
          "type": "uint256"
        },
        {
          "indexed": false,
          "internalType": "uint256",
          "name": "amount0",
          "type": "uint256"
        },
        {
          "indexed": false,
          "internalType": "uint256",
          "name": "amount1",
          "type": "uint256"
        }
      ],
      "name": "LiquidityPositionRemoved",
      "type": "event"
    },
    {
      "anonymous": false,
      "inputs": [
        {
          "indexed": false,
          "internalType": "uint64",
          "name": "decreasePortion",
          "type": "uint64"
        }
      ],
      "name": "MaxCollateralLiquidityDecreasePerPeriodUpdated",
      "type": "event"
    },
    {
      "anonymous": false,
      "inputs": [
        {
          "indexed": false,
          "internalType": "uint128",
          "name": "min",
          "type": "uint128"
        }
      ],
      "name": "MinHueCountPerPositionUpdated",
      "type": "event"
    },
    {
      "anonymous": false,
      "inputs": [
        {
          "indexed": true,
          "internalType": "address",
          "name": "pool",
          "type": "address"
        },
        {
          "indexed": true,
          "internalType": "uint16",
          "name": "poolID",
          "type": "uint16"
        },
        {
          "indexed": false,
          "internalType": "uint64",
          "name": "rewardsPortion",
          "type": "uint64"
        }
      ],
      "name": "PoolAdded",
      "type": "event"
    },
    {
      "anonymous": false,
      "inputs": [
        {
          "indexed": true,
          "internalType": "uint16",
          "name": "poolID",
          "type": "uint16"
        },
        {
          "indexed": false,
          "internalType": "uint64",
          "name": "incentive",
          "type": "uint64"
        }
      ],
      "name": "PoolIncentiveUpdated",
      "type": "event"
    },
    {
      "anonymous": false,
      "inputs": [
        {
          "indexed": false,
          "internalType": "uint256",
          "name": "count",
          "type": "uint256"
        },
        {
          "indexed": false,
          "internalType": "uint64",
          "name": "periods",
          "type": "uint64"
        }
      ],
      "name": "RewardsAccrued",
      "type": "event"
    },
    {
      "anonymous": false,
      "inputs": [
        {
          "indexed": true,
          "internalType": "address",
          "name": "caller",
          "type": "address"
        },
        {
          "indexed": true,
          "internalType": "uint256",
          "name": "nftTokenID",
          "type": "uint256"
        },
        {
          "indexed": false,
          "internalType": "uint256",
          "name": "amount0",
          "type": "uint256"
        },
        {
          "indexed": false,
          "internalType": "uint256",
          "name": "amount1",
          "type": "uint256"
        }
      ],
      "name": "RewardsClaimed",
      "type": "event"
    },
    {
      "anonymous": false,
      "inputs": [
        {
          "indexed": true,
          "internalType": "address",
          "name": "account",
          "type": "address"
        },
        {
          "indexed": true,
          "internalType": "bool",
          "name": "isKickback",
          "type": "bool"
        },
        {
          "indexed": false,
          "internalType": "uint256",
          "name": "tcpRewards",
          "type": "uint256"
        }
      ],
      "name": "RewardsDistributed",
      "type": "event"
    },
    {
      "anonymous": false,
      "inputs": [],
      "name": "Stopped",
      "type": "event"
    },
    {
      "anonymous": false,
      "inputs": [
        {
          "indexed": false,
          "internalType": "uint64",
          "name": "duration",
          "type": "uint64"
        }
      ],
      "name": "TwapDurationUpdated",
      "type": "event"
    },
    {
      "inputs": [],
      "name": "accounting",
      "outputs": [
        {
          "internalType": "contract IAccounting",
          "name": "",
          "type": "address"
        }
      ],
      "stateMutability": "view",
      "type": "function"
    },
    {
      "inputs": [],
      "name": "accrueRewards",
      "outputs": [],
      "stateMutability": "nonpayable",
      "type": "function"
    },
    {
      "inputs": [
        {
          "internalType": "contract IUniswapV3Pool",
          "name": "pool",
          "type": "address"
        },
        {
          "internalType": "uint64",
          "name": "rewardsPortion",
          "type": "uint64"
        }
      ],
      "name": "addIncentivePool",
      "outputs": [],
      "stateMutability": "nonpayable",
      "type": "function"
    },
    {
      "inputs": [
        {
          "components": [
            {
              "internalType": "address",
              "name": "owner",
              "type": "address"
            },
            {
              "internalType": "uint16",
              "name": "poolID",
              "type": "uint16"
            },
            {
              "internalType": "uint256",
              "name": "cumulativeLiquidity",
              "type": "uint256"
            },
            {
              "internalType": "uint256",
              "name": "totalRewards",
              "type": "uint256"
            },
            {
              "internalType": "uint256",
              "name": "lastBlockPositionIncreased",
              "type": "uint256"
            },
            {
              "internalType": "uint128",
              "name": "liquidity",
              "type": "uint128"
            },
            {
              "internalType": "uint64",
              "name": "lastTimeRewarded",
              "type": "uint64"
            },
            {
              "internalType": "int24",
              "name": "tickLower",
              "type": "int24"
            },
            {
              "internalType": "int24",
              "name": "tickUpper",
              "type": "int24"
            },
            {
              "internalType": "uint32",
              "name": "ui",
              "type": "uint32"
            },
            {
              "internalType": "address",
              "name": "kickbackDestination",
              "type": "address"
            },
            {
              "internalType": "uint64",
              "name": "kickbackPortion",
              "type": "uint64"
            }
          ],
          "internalType": "struct IAccounting.PoolPosition",
          "name": "_pt",
          "type": "tuple"
        },
        {
          "components": [
            {
              "internalType": "uint256",
              "name": "totalRewards",
              "type": "uint256"
            },
            {
              "internalType": "uint256",
              "name": "cumulativeLiquidity",
              "type": "uint256"
            }
          ],
          "internalType": "struct IAccounting.RewardStatus",
          "name": "rs",
          "type": "tuple"
        },
        {
          "internalType": "uint64",
          "name": "timeNow",
          "type": "uint64"
        }
      ],
      "name": "calculateUpdatedLiquidityPosition",
      "outputs": [
        {
          "components": [
            {
              "internalType": "address",
              "name": "owner",
              "type": "address"
            },
            {
              "internalType": "uint16",
              "name": "poolID",
              "type": "uint16"
            },
            {
              "internalType": "uint256",
              "name": "cumulativeLiquidity",
              "type": "uint256"
            },
            {
              "internalType": "uint256",
              "name": "totalRewards",
              "type": "uint256"
            },
            {
              "internalType": "uint256",
              "name": "lastBlockPositionIncreased",
              "type": "uint256"
            },
            {
              "internalType": "uint128",
              "name": "liquidity",
              "type": "uint128"
            },
            {
              "internalType": "uint64",
              "name": "lastTimeRewarded",
              "type": "uint64"
            },
            {
              "internalType": "int24",
              "name": "tickLower",
              "type": "int24"
            },
            {
              "internalType": "int24",
              "name": "tickUpper",
              "type": "int24"
            },
            {
              "internalType": "uint32",
              "name": "ui",
              "type": "uint32"
            },
            {
              "internalType": "address",
              "name": "kickbackDestination",
              "type": "address"
            },
            {
              "internalType": "uint64",
              "name": "kickbackPortion",
              "type": "uint64"
            }
          ],
          "internalType": "struct IAccounting.PoolPosition",
          "name": "pt",
          "type": "tuple"
        },
        {
          "internalType": "uint256",
          "name": "rewards",
          "type": "uint256"
        }
      ],
      "stateMutability": "pure",
      "type": "function"
    },
    {
      "inputs": [
        {
          "internalType": "uint256[]",
          "name": "nftTokenIDs",
          "type": "uint256[]"
        },
        {
          "internalType": "uint32",
          "name": "ui",
          "type": "uint32"
        }
      ],
      "name": "claimAllRewards",
      "outputs": [
        {
          "internalType": "uint256",
          "name": "totalAmount0",
          "type": "uint256"
        },
        {
          "internalType": "uint256",
          "name": "totalAmount1",
          "type": "uint256"
        }
      ],
      "stateMutability": "nonpayable",
      "type": "function"
    },
    {
      "inputs": [],
      "name": "countPools",
      "outputs": [
        {
          "internalType": "uint16",
          "name": "",
          "type": "uint16"
        }
      ],
      "stateMutability": "view",
      "type": "function"
    },
    {
      "inputs": [
        {
          "components": [
            {
              "internalType": "address",
              "name": "token0",
              "type": "address"
            },
            {
              "internalType": "address",
              "name": "token1",
              "type": "address"
            },
            {
              "internalType": "uint24",
              "name": "fee",
              "type": "uint24"
            },
            {
              "internalType": "int24",
              "name": "tickLower",
              "type": "int24"
            },
            {
              "internalType": "int24",
              "name": "tickUpper",
              "type": "int24"
            },
            {
              "internalType": "uint256",
              "name": "amount0Desired",
              "type": "uint256"
            },
            {
              "internalType": "uint256",
              "name": "amount1Desired",
              "type": "uint256"
            },
            {
              "internalType": "uint256",
              "name": "amount0Min",
              "type": "uint256"
            },
            {
              "internalType": "uint256",
              "name": "amount1Min",
              "type": "uint256"
            },
            {
              "internalType": "address",
              "name": "recipient",
              "type": "address"
            },
            {
              "internalType": "uint256",
              "name": "deadline",
              "type": "uint256"
            }
          ],
          "internalType": "struct INonfungiblePositionManager.MintParams",
          "name": "params",
          "type": "tuple"
        },
        {
          "internalType": "uint32",
          "name": "ui",
          "type": "uint32"
        }
      ],
      "name": "createLiquidityPosition",
      "outputs": [
        {
          "internalType": "uint256",
          "name": "nftTokenID",
          "type": "uint256"
        },
        {
          "internalType": "uint128",
          "name": "liquidity",
          "type": "uint128"
        }
      ],
      "stateMutability": "payable",
      "type": "function"
    },
    {
      "inputs": [],
      "name": "currentPeriod",
      "outputs": [
        {
          "internalType": "uint64",
          "name": "period",
          "type": "uint64"
        }
      ],
      "stateMutability": "view",
      "type": "function"
    },
    {
      "inputs": [
        {
          "components": [
            {
              "internalType": "uint256",
              "name": "tokenId",
              "type": "uint256"
            },
            {
              "internalType": "uint128",
              "name": "liquidity",
              "type": "uint128"
            },
            {
              "internalType": "uint256",
              "name": "amount0Min",
              "type": "uint256"
            },
            {
              "internalType": "uint256",
              "name": "amount1Min",
              "type": "uint256"
            },
            {
              "internalType": "uint256",
              "name": "deadline",
              "type": "uint256"
            }
          ],
          "internalType": "struct INonfungiblePositionManager.DecreaseLiquidityParams",
          "name": "params",
          "type": "tuple"
        },
        {
          "internalType": "uint32",
          "name": "ui",
          "type": "uint32"
        }
      ],
      "name": "decreaseLiquidityPosition",
      "outputs": [
        {
          "internalType": "uint256",
          "name": "amount0",
          "type": "uint256"
        },
        {
          "internalType": "uint256",
          "name": "amount1",
          "type": "uint256"
        }
      ],
      "stateMutability": "nonpayable",
      "type": "function"
    },
    {
      "inputs": [],
      "name": "deployer",
      "outputs": [
        {
          "internalType": "address",
          "name": "",
          "type": "address"
        }
      ],
      "stateMutability": "view",
      "type": "function"
    },
    {
      "inputs": [],
      "name": "firstPeriod",
      "outputs": [
        {
          "internalType": "uint64",
          "name": "",
          "type": "uint64"
        }
      ],
      "stateMutability": "view",
      "type": "function"
    },
    {
      "inputs": [
        {
          "internalType": "uint16",
          "name": "poolID",
          "type": "uint16"
        }
      ],
      "name": "getPoolConfigForPoolID",
      "outputs": [
        {
          "components": [
            {
              "internalType": "contract IUniswapV3Pool",
              "name": "pool",
              "type": "address"
            },
            {
              "internalType": "uint64",
              "name": "rewardsPortion",
              "type": "uint64"
            }
          ],
          "internalType": "struct IRewards.PoolConfig",
          "name": "poolConfig",
          "type": "tuple"
        }
      ],
      "stateMutability": "view",
      "type": "function"
    },
    {
      "inputs": [],
      "name": "governor",
      "outputs": [
        {
          "internalType": "contract IGovernor",
          "name": "",
          "type": "address"
        }
      ],
      "stateMutability": "view",
      "type": "function"
    },
    {
      "inputs": [
        {
          "components": [
            {
              "internalType": "uint256",
              "name": "tokenId",
              "type": "uint256"
            },
            {
              "internalType": "uint256",
              "name": "amount0Desired",
              "type": "uint256"
            },
            {
              "internalType": "uint256",
              "name": "amount1Desired",
              "type": "uint256"
            },
            {
              "internalType": "uint256",
              "name": "amount0Min",
              "type": "uint256"
            },
            {
              "internalType": "uint256",
              "name": "amount1Min",
              "type": "uint256"
            },
            {
              "internalType": "uint256",
              "name": "deadline",
              "type": "uint256"
            }
          ],
          "internalType": "struct INonfungiblePositionManager.IncreaseLiquidityParams",
          "name": "params",
          "type": "tuple"
        },
        {
          "internalType": "uint32",
          "name": "ui",
          "type": "uint32"
        }
      ],
      "name": "increaseLiquidityPosition",
      "outputs": [
        {
          "internalType": "uint128",
          "name": "liquidity",
          "type": "uint128"
        }
      ],
      "stateMutability": "payable",
      "type": "function"
    },
    {
      "inputs": [
        {
          "internalType": "contract IUniswapV3Pool",
          "name": "_collateralPool",
          "type": "address"
        },
        {
          "internalType": "contract IUniswapV3Pool",
          "name": "_protocolPool",
          "type": "address"
        }
      ],
      "name": "init",
      "outputs": [],
      "stateMutability": "nonpayable",
      "type": "function"
    },
    {
      "inputs": [
        {
          "components": [
            {
              "internalType": "address",
              "name": "owner",
              "type": "address"
            },
            {
              "internalType": "uint16",
              "name": "poolID",
              "type": "uint16"
            },
            {
              "internalType": "uint256",
              "name": "cumulativeLiquidity",
              "type": "uint256"
            },
            {
              "internalType": "uint256",
              "name": "totalRewards",
              "type": "uint256"
            },
            {
              "internalType": "uint256",
              "name": "lastBlockPositionIncreased",
              "type": "uint256"
            },
            {
              "internalType": "uint128",
              "name": "liquidity",
              "type": "uint128"
            },
            {
              "internalType": "uint64",
              "name": "lastTimeRewarded",
              "type": "uint64"
            },
            {
              "internalType": "int24",
              "name": "tickLower",
              "type": "int24"
            },
            {
              "internalType": "int24",
              "name": "tickUpper",
              "type": "int24"
            },
            {
              "internalType": "uint32",
              "name": "ui",
              "type": "uint32"
            },
            {
              "internalType": "address",
              "name": "kickbackDestination",
              "type": "address"
            },
            {
              "internalType": "uint64",
              "name": "kickbackPortion",
              "type": "uint64"
            }
          ],
          "internalType": "struct IAccounting.PoolPosition",
          "name": "position",
          "type": "tuple"
        },
        {
          "internalType": "int24",
          "name": "tick",
          "type": "int24"
        }
      ],
      "name": "isLiquidityInRange",
      "outputs": [
        {
          "internalType": "bool",
          "name": "",
          "type": "bool"
        }
      ],
      "stateMutability": "pure",
      "type": "function"
    },
    {
      "inputs": [],
      "name": "lastPeriodGlobalRewardsAccrued",
      "outputs": [
        {
          "internalType": "uint64",
          "name": "",
          "type": "uint64"
        }
      ],
      "stateMutability": "view",
      "type": "function"
    },
    {
      "inputs": [
        {
          "internalType": "contract IUniswapV3Pool",
          "name": "pool",
          "type": "address"
        },
        {
          "internalType": "uint256[]",
          "name": "nftTokenIDs",
          "type": "uint256[]"
        }
      ],
      "name": "liquidateOutofRangePositions",
      "outputs": [],
      "stateMutability": "nonpayable",
      "type": "function"
    },
    {
      "inputs": [],
      "name": "liquidationPenalty",
      "outputs": [
        {
          "internalType": "uint64",
          "name": "",
          "type": "uint64"
        }
      ],
      "stateMutability": "view",
      "type": "function"
    },
    {
      "inputs": [],
      "name": "maxCollateralLiquidityDecreasePerPeriod",
      "outputs": [
        {
          "internalType": "uint64",
          "name": "",
          "type": "uint64"
        }
      ],
      "stateMutability": "view",
      "type": "function"
    },
    {
      "inputs": [
        {
          "internalType": "contract IUniswapV3Pool",
          "name": "",
          "type": "address"
        }
      ],
      "name": "minCollateralLiquidityByPeriod",
      "outputs": [
        {
          "internalType": "uint64",
          "name": "period",
          "type": "uint64"
        },
        {
          "internalType": "uint192",
          "name": "minLiquidity",
          "type": "uint192"
        }
      ],
      "stateMutability": "view",
      "type": "function"
    },
    {
      "inputs": [],
      "name": "minHueCountPerPosition",
      "outputs": [
        {
          "internalType": "uint128",
          "name": "",
          "type": "uint128"
        }
      ],
      "stateMutability": "view",
      "type": "function"
    },
    {
      "inputs": [],
      "name": "nftPositionManager",
      "outputs": [
        {
          "internalType": "contract INonfungiblePositionManager",
          "name": "",
          "type": "address"
        }
      ],
      "stateMutability": "view",
      "type": "function"
    },
    {
      "inputs": [],
      "name": "periodLength",
      "outputs": [
        {
          "internalType": "uint64",
          "name": "",
          "type": "uint64"
        }
      ],
      "stateMutability": "view",
      "type": "function"
    },
    {
      "inputs": [
        {
          "internalType": "contract IUniswapV3Pool",
          "name": "",
          "type": "address"
        }
      ],
      "name": "poolIDForPool",
      "outputs": [
        {
          "internalType": "uint16",
          "name": "",
          "type": "uint16"
        }
      ],
      "stateMutability": "view",
      "type": "function"
    },
    {
      "inputs": [
        {
          "internalType": "uint256",
          "name": "nftTokenID",
          "type": "uint256"
        }
      ],
      "name": "removeKickback",
      "outputs": [],
      "stateMutability": "nonpayable",
      "type": "function"
    },
    {
      "inputs": [
        {
          "components": [
            {
              "internalType": "uint256",
              "name": "tokenId",
              "type": "uint256"
            },
            {
              "internalType": "uint128",
              "name": "liquidity",
              "type": "uint128"
            },
            {
              "internalType": "uint256",
              "name": "amount0Min",
              "type": "uint256"
            },
            {
              "internalType": "uint256",
              "name": "amount1Min",
              "type": "uint256"
            },
            {
              "internalType": "uint256",
              "name": "deadline",
              "type": "uint256"
            }
          ],
          "internalType": "struct INonfungiblePositionManager.DecreaseLiquidityParams",
          "name": "params",
          "type": "tuple"
        }
      ],
      "name": "removeLiquidityPosition",
      "outputs": [
        {
          "internalType": "uint256",
          "name": "amount0",
          "type": "uint256"
        },
        {
          "internalType": "uint256",
          "name": "amount1",
          "type": "uint256"
        }
      ],
      "stateMutability": "nonpayable",
      "type": "function"
    },
    {
      "inputs": [
        {
          "internalType": "bool",
          "name": "authorized",
          "type": "bool"
        }
      ],
      "name": "requireAuthorized",
      "outputs": [],
      "stateMutability": "pure",
      "type": "function"
    },
    {
      "inputs": [
        {
          "internalType": "uint64",
          "name": "penalty",
          "type": "uint64"
        }
      ],
      "name": "setLiquidationPenalty",
      "outputs": [],
      "stateMutability": "nonpayable",
      "type": "function"
    },
    {
      "inputs": [
        {
          "internalType": "uint64",
          "name": "decreasePortion",
          "type": "uint64"
        }
      ],
      "name": "setMaxCollateralLiquidityDecreasePerPeriod",
      "outputs": [],
      "stateMutability": "nonpayable",
      "type": "function"
    },
    {
      "inputs": [
        {
          "internalType": "uint128",
          "name": "min",
          "type": "uint128"
        }
      ],
      "name": "setMinHueCountPerPosition",
      "outputs": [],
      "stateMutability": "nonpayable",
      "type": "function"
    },
    {
      "inputs": [
        {
          "internalType": "uint32",
          "name": "duration",
          "type": "uint32"
        }
      ],
      "name": "setTwapDuration",
      "outputs": [],
      "stateMutability": "nonpayable",
      "type": "function"
    },
    {
      "inputs": [],
      "name": "stop",
      "outputs": [],
      "stateMutability": "nonpayable",
      "type": "function"
    },
    {
      "inputs": [],
      "name": "stopped",
      "outputs": [
        {
          "internalType": "bool",
          "name": "",
          "type": "bool"
        }
      ],
      "stateMutability": "view",
      "type": "function"
    },
    {
      "inputs": [],
      "name": "twapDuration",
      "outputs": [
        {
          "internalType": "uint32",
          "name": "",
          "type": "uint32"
        }
      ],
      "stateMutability": "view",
      "type": "function"
    },
    {
      "inputs": [],
      "name": "uniswapV3Factory",
      "outputs": [
        {
          "internalType": "contract IUniswapV3Factory",
          "name": "",
          "type": "address"
        }
      ],
      "stateMutability": "view",
      "type": "function"
    },
    {
      "inputs": [
        {
          "internalType": "uint16",
          "name": "poolID",
          "type": "uint16"
        },
        {
          "internalType": "uint64",
          "name": "incentive",
          "type": "uint64"
        }
      ],
      "name": "updatePoolIncentive",
      "outputs": [],
      "stateMutability": "nonpayable",
      "type": "function"
    },
    {
      "inputs": [
        {
          "internalType": "bytes4",
          "name": "",
          "type": "bytes4"
        }
      ],
      "name": "validUpdate",
      "outputs": [
        {
          "internalType": "bool",
          "name": "",
          "type": "bool"
        }
      ],
      "stateMutability": "view",
      "type": "function"
    },
    {
      "inputs": [],
      "name": "weth",
      "outputs": [
        {
          "internalType": "address",
          "name": "",
          "type": "address"
        }
      ],
      "stateMutability": "view",
      "type": "function"
    },
    {
      "stateMutability": "payable",
      "type": "receive"
    }
  ],
  "bytecode": "0x6101806040526001600260005090905567016345785d8a0000600360006101000a81548167ffffffffffffffff021916908367ffffffffffffffff16021790555066d529ae9e860000600360086101000a81548167ffffffffffffffff021916908367ffffffffffffffff16021790555068056bc75e2d63100000600360106101000a8154816fffffffffffffffffffffffffffffffff02191690836fffffffffffffffffffffffffffffffff160217905550610708600460006101000a81548163ffffffff021916908363ffffffff1602179055506000600460046101000a81548161ffff021916908361ffff160217905550348015620001015760006000fd5b506040516200832e3803806200832e8339818101604052810190620001279190620006bb565b5b805b6138405b816000015182602001515b815b8073ffffffffffffffffffffffffffffffffffffffff1660808173ffffffffffffffffffffffffffffffffffffffff1660601b815260140150505b508073ffffffffffffffffffffffffffffffffffffffff1660a08173ffffffffffffffffffffffffffffffffffffffff1660601b815260140150505b505060018167ffffffffffffffff16620001d1620005e960201b60201c565b67ffffffffffffffff16811515620001e557fe5b040367ffffffffffffffff1660e08167ffffffffffffffff1660c01b815260080150508067ffffffffffffffff1660c08167ffffffffffffffff1660c01b815260080150505b50806040015173ffffffffffffffffffffffffffffffffffffffff166101608173ffffffffffffffffffffffffffffffffffffffff1660601b81526014015050806060015173ffffffffffffffffffffffffffffffffffffffff166101008173ffffffffffffffffffffffffffffffffffffffff1660601b81526014015050806080015173ffffffffffffffffffffffffffffffffffffffff166101208173ffffffffffffffffffffffffffffffffffffffff1660601b815260140150508060a0015173ffffffffffffffffffffffffffffffffffffffff166101408173ffffffffffffffffffffffffffffffffffffffff1660601b8152601401505060006040518060c00160405280636161189060e01b7bffffffffffffffffffffffffffffffffffffffffffffffffffffffff19167bffffffffffffffffffffffffffffffffffffffffffffffffffffffff191681526020016328d10de860e01b7bffffffffffffffffffffffffffffffffffffffffffffffffffffffff19167bffffffffffffffffffffffffffffffffffffffffffffffffffffffff1916815260200163c7bd867c60e01b7bffffffffffffffffffffffffffffffffffffffffffffffffffffffff19167bffffffffffffffffffffffffffffffffffffffffffffffffffffffff1916815260200163de8925f560e01b7bffffffffffffffffffffffffffffffffffffffffffffffffffffffff19167bffffffffffffffffffffffffffffffffffffffffffffffffffffffff1916815260200163c433c80a60e01b7bffffffffffffffffffffffffffffffffffffffffffffffffffffffff19167bffffffffffffffffffffffffffffffffffffffffffffffffffffffff19168152602001630907653160e01b7bffffffffffffffffffffffffffffffffffffffffffffffffffffffff19167bffffffffffffffffffffffffffffffffffffffffffffffffffffffff191681526020015090506000600090505b815060068110156200059c5760016001600050600084846006811015156200052557fe5b60200201517bffffffffffffffffffffffffffffffffffffffffffffffffffffffff19167bffffffffffffffffffffffffffffffffffffffffffffffffffffffff1916815260200190815260200160002060006101000a81548160ff0219169083151502179055505b808060010191505062000501565b5033600860086101000a81548173ffffffffffffffffffffffffffffffffffffffff021916908373ffffffffffffffffffffffffffffffffffffffff160217905550505b505b5062000790565b600062000603426200060b60201b6200204117909060201c565b905080505b90565b6000680100000000000000008210151562000691576040517f08c379a00000000000000000000000000000000000000000000000000000000081526004018080602001828103825260118152602001807f6d6f7265207468616e203634206269747300000000000000000000000000000081526020015060200191505060405180910390fd5b8190506200069a565b919050566200078f565b600081519050620006b58162000772565b5b919050565b600060c08284031215620006cd578081fd5b60405160c081018181106001600160401b0382111715620006ea57fe5b80604052508251620006fc8162000772565b808252506020830151620007108162000772565b806020830152506040830151620007278162000772565b806040830152506200073c60608401620006a4565b60608201526200074f60808401620006a4565b60808201526200076260a08401620006a4565b60a0820152809150505b92915050565b6001600160a01b038116811415156200078b5760006000fd5b5b50565b5b60805160601c60a05160601c60c05160c01c60e05160c01c6101005160601c6101205160601c6101405160601c6101605160601c617a296200090560003980610b9052806111b452806116955280611aa152806125c05280612dee528061315952806135ed528061371f5280613bb85280613cae528061452f528061464b528061473a5280614d755280614e225280614e97528061550f52508061135d52806118775250806102ac5280611a6a52806129555280612a8c5280612c445280612e7b5280613649528061391b5280613a015280614a375280614acb52806150e052806156c5525080610301528061173952806149e35280614fc252806150225280615a765280615aca525080611b625280612fa252806148d7525080611c615280612fc352806148f85250806120d55280612f1b525080610f6852806121f65280612388528061274c5280612850528061301c52806133535280613e27528061443b52806147e952806152505250617a296000f3fe6080604052600436106102a45760003560e01c80635b5491821161016e578063c433c80a116100cb578063de8925f51161007f578063f4d8977f11610064578063f4d8977f146109e3578063fbc3a64314610a22578063fbe6eb9b14610a4e5761035e565b8063de8925f51461098f578063f09a4016146109b95761035e565b8063c7bd867c116100b0578063c7bd867c1461090d578063d2ca211514610937578063d5f39488146109635761035e565b8063c433c80a146108b7578063c4e3a63b146108e15761035e565b806381cc8807116101225780638efaed89116101075780638efaed89146108355780639624e83e1461085f578063bdd266cd1461088b5761035e565b806381cc8807146107ca57806384397888146108095761035e565b80636fcdfed6116101535780636fcdfed61461073357806375f12b211461075f5780637af36e3f1461078b5761035e565b80635b549182146106dd57806361611890146107095761035e565b80631df0f8a31161021c5780633e948372116101d05780634b257c24116101b55780634b257c24146106315780634b8295731461066f57806350b40400146106ad5761035e565b80633e948372146105db5780633fc8cef3146106055761035e565b8063265e8a6411610201578063265e8a641461055457806326d895451461058557806328d10de8146105b15761035e565b80631df0f8a3146104e957806323f5589a146105285761035e565b80630c340a2411610273578063113cf1ab11610258578063113cf1ab1461045457806315398ae7146104925780631afdbce4146104d15761035e565b80630c340a24146103fc5780630dae9f52146104285761035e565b8063039d10e814610364578063060406181461038e57806307da68f5146103ba57806309076531146103d25761035e565b3661035e575b7f000000000000000000000000000000000000000000000000000000000000000073ffffffffffffffffffffffffffffffffffffffff163373ffffffffffffffffffffffffffffffffffffffff16148061034f57507f000000000000000000000000000000000000000000000000000000000000000073ffffffffffffffffffffffffffffffffffffffff163373ffffffffffffffffffffffffffffffffffffffff16145b151561035b5760006000fd5b5b005b60006000fd5b3480156103715760006000fd5b5061038c600480360381019061038791906166df565b610a8c565b005b34801561039b5760006000fd5b506103a4610e9a565b6040516103b19190617890565b60405180910390f35b3480156103c75760006000fd5b506103d0610eb2565b005b3480156103df5760006000fd5b506103fa60048036038101906103f59190616d4b565b610ed2565b005b3480156104095760006000fd5b50610412610f66565b60405161041f9190617130565b60405180910390f35b3480156104355760006000fd5b5061043e610f8a565b60405161044b9190617890565b60405180910390f35b3480156104615760006000fd5b5061047c60048036038101906104779190616644565b610fa4565b60405161048991906170f4565b60405180910390f35b34801561049f5760006000fd5b506104ba60048036038101906104b59190616818565b610fc9565b6040516104c8929190617824565b60405180910390f35b3480156104de5760006000fd5b506104e76110e8565b005b3480156104f65760006000fd5b50610511600480360381019061050c919061659b565b611125565b60405161051f929190617824565b60405180910390f35b3480156105355760006000fd5b5061053e611318565b60405161054b9190617890565b60405180910390f35b61056e600480360381019061056991906168cc565b611332565b60405161057c9291906177f9565b60405180910390f35b3480156105925760006000fd5b5061059b611527565b6040516105a89190617860565b60405180910390f35b3480156105be5760006000fd5b506105d960048036038101906105d49190616c45565b61153d565b005b3480156105e85760006000fd5b5061060360048036038101906105fe9190616c81565b611647565b005b3480156106125760006000fd5b5061061b611737565b6040516106289190616fcd565b60405180910390f35b34801561063e5760006000fd5b5061065960048036038101906106549190616a8f565b61175b565b60405161066691906170f4565b60405180910390f35b34801561067c5760006000fd5b50610697600480360381019061069291906166b8565b61177a565b6040516106a49190617781565b60405180910390f35b6106c760048036038101906106c2919061688d565b6117a0565b6040516106d4919061775d565b60405180910390f35b3480156106ea5760006000fd5b506106f3611875565b6040516107009190617180565b60405180910390f35b3480156107165760006000fd5b50610731600480360381019061072c9190616776565b611899565b005b3480156107405760006000fd5b506107496119b6565b6040516107569190617781565b60405180910390f35b34801561076c5760006000fd5b506107756119ca565b60405161078291906170f4565b60405180910390f35b3480156107985760006000fd5b506107b360048036038101906107ae9190616aca565b6119dd565b6040516107c192919061773b565b60405180910390f35b3480156107d75760006000fd5b506107f260048036038101906107ed91906166b8565b611a09565b6040516108009291906178ac565b60405180910390f35b3480156108165760006000fd5b5061081f611a68565b60405161082c9190617158565b60405180910390f35b3480156108425760006000fd5b5061085d600480360381019061085891906165f6565b611a8c565b005b34801561086c5760006000fd5b50610875611a9f565b6040516108829190617108565b60405180910390f35b3480156108985760006000fd5b506108a1611ac3565b6040516108ae9190617890565b60405180910390f35b3480156108c45760006000fd5b506108df60048036038101906108da9190616d24565b611add565b005b3480156108ee5760006000fd5b506108f7611b60565b6040516109049190617890565b60405180910390f35b34801561091a5760006000fd5b5061093560048036038101906109309190616d4b565b611b84565b005b3480156109445760006000fd5b5061094d611c5f565b60405161095a9190617890565b60405180910390f35b3480156109705760006000fd5b50610979611c83565b6040516109869190616fcd565b60405180910390f35b34801561099c5760006000fd5b506109b760048036038101906109b29190616bbd565b611ca9565b005b3480156109c65760006000fd5b506109e160048036038101906109dc919061673a565b611d2c565b005b3480156109f05760006000fd5b50610a0b6004803603810190610a0691906167d9565b611e26565b604051610a19929190617824565b60405180910390f35b348015610a2f5760006000fd5b50610a38611f4f565b604051610a45919061775d565b60405180910390f35b348015610a5b5760006000fd5b50610a766004803603810190610a719190616c1e565b611f71565b604051610a8391906176fe565b60405180910390f35b610a9a6120d363ffffffff16565b610aa86121e663ffffffff16565b6000600660005060008573ffffffffffffffffffffffffffffffffffffffff1673ffffffffffffffffffffffffffffffffffffffff16815260200190815260200160002060009054906101000a900461ffff169050610b0c8161231363ffffffff16565b610b146161b2565b6000848490509050600043905060006040518060400160405280600115158152602001610b468a61238463ffffffff16565b60020b8152602001509050610b59616278565b610b676124d063ffffffff16565b67ffffffffffffffff1681608001909081815260200150506000600090505b84811015610e7d577f000000000000000000000000000000000000000000000000000000000000000073ffffffffffffffffffffffffffffffffffffffff1663f34348f18a8a848181101515610bd857fe5b905060200201356040518263ffffffff1660e01b8152600401610bfb9190617797565b6101806040518083038186803b158015610c155760006000fd5b505afa158015610c2a573d600060003e3d6000fd5b505050506040513d601f19601f82011682018060405250810190610c4e91906169ad565b955085508661ffff16866020015161ffff16141515610c6c57610e70565b610c808684602001516124eb63ffffffff16565b15610c8a57610e70565b838660800151101515610c9c57610e70565b610cab8661251e63ffffffff16565b955085508888828181101515610cbd57fe5b905060200201358260000190908181526020015050610cee826000015160006000896000015161294f63ffffffff16565b5050610d49610d3c600360089054906101000a900467ffffffffffffffff1667ffffffffffffffff168860a001516fffffffffffffffffffffffffffffffff16612b7e90919063ffffffff16565b612ba4909063ffffffff16565b82602001906fffffffffffffffffffffffffffffffff1690816fffffffffffffffffffffffffffffffff1681526020015050610d8b8233612c3e63ffffffff16565b5050610dba82602001518760a001516fffffffffffffffffffffffffffffffff16612d2990919063ffffffff16565b82602001906fffffffffffffffffffffffffffffffff1690816fffffffffffffffffffffffffffffffff1681526020015050610e00828760000151612c3e63ffffffff16565b5050610e1782600001518785612dd663ffffffff16565b3373ffffffffffffffffffffffffffffffffffffffff168989838181101515610e3c57fe5b905060200201357f6ba13b7ae6048936f291047829a5de36835ad46b52453fff379900999074709260405160405180910390a35b8080600101915050610b86565b505050505050505b5b610e94612f0c63ffffffff16565b5b505050565b6000610eaa612f9e63ffffffff16565b905080505b90565b610ec061301763ffffffff16565b610ece61307763ffffffff16565b5b5b565b610ee061301763ffffffff16565b6706f05b59d3b200008167ffffffffffffffff16101515610f015760006000fd5b80600360086101000a81548167ffffffffffffffff021916908367ffffffffffffffff1602179055507f78244e8e46597270e2f0ae9c6baded3ba10f1b3f03316f89e49bbfeb1c06786881604051610f599190617890565b60405180910390a15b5b50565b7f000000000000000000000000000000000000000000000000000000000000000081565b600860009054906101000a900467ffffffffffffffff1681565b600160005060205280600052604060002060009150909054906101000a900460ff1681565b60006000610fdb6120d363ffffffff16565b610fe96130c163ffffffff16565b6000610ffe846000015161314c63ffffffff16565b9050611013816080015161326063ffffffff16565b8060a0015184602001906fffffffffffffffffffffffffffffffff1690816fffffffffffffffffffffffffffffffff168152602001505061105e848260000151612c3e63ffffffff16565b809350819450505061108884600001518261107d6132a863ffffffff16565b612dd663ffffffff16565b83600001517f1bd2c24817047e88025a4688c0fba3903e750cc05d80857de4201f42ec59bcf284846040516110be929190617824565b60405180910390a2828292509250506110d356505b5b6110e2612f0c63ffffffff16565b5b915091565b6110f66120d363ffffffff16565b6111046130c163ffffffff16565b6111126132b463ffffffff16565b5b5b611122612f0c63ffffffff16565b5b565b600060006111376120d363ffffffff16565b6111456130c163ffffffff16565b60008585905090506111556161b2565b6000600060006000600090505b858110156112ea578a8a82818110151561117857fe5b90506020020135935083506111928461314c63ffffffff16565b945084508885610120019063ffffffff16908163ffffffff16815260200150507f000000000000000000000000000000000000000000000000000000000000000073ffffffffffffffffffffffffffffffffffffffff1663816aaa2585876040518363ffffffff1660e01b815260040161120d9291906177d8565b600060405180830381600087803b1580156112285760006000fd5b505af115801561123d573d600060003e3d6000fd5b5050505061125584600060003361294f63ffffffff16565b8093508194505050611270838961352e90919063ffffffff16565b97508750611287838961352e90919063ffffffff16565b96508650833373ffffffffffffffffffffffffffffffffffffffff167f56253d287efacdb2c4cd76dd03624a4821c1ce721d1152e8f5f5718f6087c9bf85856040516112d4929190617824565b60405180910390a35b8080600101915050611162565b5086869650965050505050506113005650505050505b5b61130f612f0c63ffffffff16565b5b935093915050565b600360089054906101000a900467ffffffffffffffff1681565b600060006113446120d363ffffffff16565b6113526121e663ffffffff16565b6000600660005060007f000000000000000000000000000000000000000000000000000000000000000073ffffffffffffffffffffffffffffffffffffffff16631698ee82886000015189602001518a604001516040518463ffffffff1660e01b81526004016113c49392919061704c565b60206040518083038186803b1580156113dd5760006000fd5b505afa1580156113f2573d600060003e3d6000fd5b505050506040513d601f19601f820116820180604052508101906114169190616574565b73ffffffffffffffffffffffffffffffffffffffff1673ffffffffffffffffffffffffffffffffffffffff16815260200190815260200160002060009054906101000a900461ffff1690506114708161231363ffffffff16565b61147f856135b763ffffffff16565b80935081945050506114a3838287606001518860800151868961371d63ffffffff16565b828161ffff163373ffffffffffffffffffffffffffffffffffffffff167f87c666eb8f5e2d1a47a2af419127c84ea830d86b5f75e12ca3dafa33323d912288606001518960800151876040516114fb939291906172ec565b60405180910390a48282925092505061151056505b5b61151f612f0c63ffffffff16565b5b9250929050565b600460009054906101000a900463ffffffff1681565b61154b61301763ffffffff16565b61155a8261231363ffffffff16565b6115686132b463ffffffff16565b80600560005060008461ffff1661ffff16815260200190815260200160002060005060000160146101000a81548167ffffffffffffffff021916908367ffffffffffffffff16021790555060006115c361387663ffffffff16565b111515611605576040517f08c379a00000000000000000000000000000000000000000000000000000000081526004016115fc906173e1565b60405180910390fd5b8161ffff167fcf476913af040a8c0a50588902fc980c73de756444694afb625e05906334404f826040516116399190617890565b60405180910390a25b5b5050565b6116556120d363ffffffff16565b6116636121e663ffffffff16565b60006116748261314c63ffffffff16565b9050600081610120019063ffffffff16908163ffffffff16815260200150507f000000000000000000000000000000000000000000000000000000000000000073ffffffffffffffffffffffffffffffffffffffff1663816aaa2583836040518363ffffffff1660e01b81526004016116ee9291906177d8565b600060405180830381600087803b1580156117095760006000fd5b505af115801561171e573d600060003e3d6000fd5b50505050505b5b611733612f0c63ffffffff16565b5b50565b7f000000000000000000000000000000000000000000000000000000000000000081565b600061176d83836124eb63ffffffff16565b9050611774565b92915050565b600660005060205280600052604060002060009150909054906101000a900461ffff1681565b60006117b06120d363ffffffff16565b6117be6121e663ffffffff16565b60006117d3846000013561314c63ffffffff16565b90508281610120019063ffffffff16908163ffffffff16815260200150506118008461391363ffffffff16565b9150815061181981856000013584613acb63ffffffff16565b83600001357fcc5b49b47bfd2f61894e4c8977343543aa054a11ae847be904355459ce55dcd98360405161184d919061775d565b60405180910390a28191505061185f56505b5b61186e612f0c63ffffffff16565b5b92915050565b7f000000000000000000000000000000000000000000000000000000000000000081565b6118a761301763ffffffff16565b6000600660005060008473ffffffffffffffffffffffffffffffffffffffff1673ffffffffffffffffffffffffffffffffffffffff16815260200190815260200160002060009054906101000a900461ffff1661ffff16141515611940576040517f08c379a00000000000000000000000000000000000000000000000000000000081526004016119379061745f565b60405180910390fd5b61194e6132b463ffffffff16565b61195e8282613d4363ffffffff16565b61ffff168273ffffffffffffffffffffffffffffffffffffffff167fb42c51dce17f5346a481b9dd503edc20c8b6de38b22e12b35a5c77c131fb38ac836040516119a89190617890565b60405180910390a35b5b5050565b600460049054906101000a900461ffff1681565b600060009054906101000a900460ff1681565b6119e56161b2565b60006119f88585856141ad63ffffffff16565b91509150611a01565b935093915050565b60076000506020528060005260406000206000915090508060000160009054906101000a900467ffffffffffffffff16908060000160089054906101000a900477ffffffffffffffffffffffffffffffffffffffffffffffff16905082565b7f000000000000000000000000000000000000000000000000000000000000000081565b611a9b816142e563ffffffff16565b5b50565b7f000000000000000000000000000000000000000000000000000000000000000081565b600360009054906101000a900467ffffffffffffffff1681565b611aeb61301763ffffffff16565b61012c8163ffffffff1610151515611b035760006000fd5b80600460006101000a81548163ffffffff021916908363ffffffff1602179055507f811ba52920ff121eccd59ee98068330fc6736094b9a3fab10ada70fb0cd2f37081604051611b539190617878565b60405180910390a15b5b50565b7f000000000000000000000000000000000000000000000000000000000000000081565b611b9261301763ffffffff16565b80600360006101000a81548167ffffffffffffffff021916908367ffffffffffffffff160217905550600360009054906101000a900467ffffffffffffffff1667ffffffffffffffff166000101515611beb5760006000fd5b670de0b6b3a7640000600360009054906101000a900467ffffffffffffffff1667ffffffffffffffff1611151515611c235760006000fd5b7f41785a43e8509555b296851de25b00003ca4ca1c572c807cb301d4a0fb9582d481604051611c529190617890565b60405180910390a15b5b50565b7f000000000000000000000000000000000000000000000000000000000000000081565b600860089054906101000a900473ffffffffffffffffffffffffffffffffffffffff1681565b611cb761301763ffffffff16565b80600360106101000a8154816fffffffffffffffffffffffffffffffff02191690836fffffffffffffffffffffffffffffffff1602179055507f755043e33e8e4c87253e98c56c011cc9905bf88318997b89b3520a54b3c5f17081604051611d1f919061775d565b60405180910390a15b5b50565b611d8b600860089054906101000a900473ffffffffffffffffffffffffffffffffffffffff1673ffffffffffffffffffffffffffffffffffffffff163373ffffffffffffffffffffffffffffffffffffffff16146142e563ffffffff16565b600860086101000a81549073ffffffffffffffffffffffffffffffffffffffff0219169055600161ffff16611dc883610bb8613d4363ffffffff16565b61ffff16141515611e0e576040517f08c379a0000000000000000000000000000000000000000000000000000000008152600401611e059061751c565b60405180910390fd5b611e20816103e8613d4363ffffffff16565b505b5050565b60006000611e386120d363ffffffff16565b611e466121e663ffffffff16565b6000611e5b856000013561314c63ffffffff16565b9050611e70816080015161326063ffffffff16565b8381610120019063ffffffff16908163ffffffff1681526020015050611eb085803603810190611ea09190616818565b8260000151612c3e63ffffffff16565b8093508194505050611eed818660000135876020016020810190611ed49190616bbd565b611ee26132a863ffffffff16565b61436163ffffffff16565b84600001357ffafb1711250bf0d3906bfd9c4386a9a5a5fdf9ac1facdc9dfd2addad7d3f72e78484604051611f23929190617824565b60405180910390a281829250925050611f3856505b5b611f47612f0c63ffffffff16565b5b9250929050565b600360109054906101000a90046fffffffffffffffffffffffffffffffff1681565b611f796162bc565b600560005060008361ffff1661ffff1681526020019081526020016000206000506040518060400160405290816000820160009054906101000a900473ffffffffffffffffffffffffffffffffffffffff1673ffffffffffffffffffffffffffffffffffffffff1673ffffffffffffffffffffffffffffffffffffffff1681526020016000820160149054906101000a900467ffffffffffffffff1667ffffffffffffffff1667ffffffffffffffff16815260200150509050805080905061203c565b919050565b600068010000000000000000821015156120c6576040517f08c379a00000000000000000000000000000000000000000000000000000000081526004018080602001828103825260118152602001807f6d6f7265207468616e203634206269747300000000000000000000000000000081526020015060200191505060405180910390fd5b8190506120ce565b919050565b7f000000000000000000000000000000000000000000000000000000000000000073ffffffffffffffffffffffffffffffffffffffff1663e97dcb626040518163ffffffff1660e01b8152600401600060405180830381600087803b15801561213c5760006000fd5b505af1158015612151573d600060003e3d6000fd5b505050506002600260005054141515156121d6576040517f08c379a000000000000000000000000000000000000000000000000000000000815260040180806020018281038252600d8152602001807f4c50205265656e7472616e63790000000000000000000000000000000000000081526020015060200191505060405180910390fd5b600260026000508190909055505b565b6121f46130c163ffffffff16565b7f000000000000000000000000000000000000000000000000000000000000000073ffffffffffffffffffffffffffffffffffffffff1663bf86d6906040518163ffffffff1660e01b815260040160206040518083038186803b15801561225b5760006000fd5b505afa158015612270573d600060003e3d6000fd5b505050506040513d60208110156122875760006000fd5b8101908080519060200190929190505050151515612310576040517f08c379a00000000000000000000000000000000000000000000000000000000081526004018080602001828103825260118152602001807f50726f746f636f6c2073687574646f776e00000000000000000000000000000081526020015060200191505060405180910390fd5b5b565b8061ffff16600010801561233f5750600460049054906101000a900461ffff1661ffff168161ffff1611155b1515612380576040517f08c379a00000000000000000000000000000000000000000000000000000000081526004016123779061749e565b60405180910390fd5b5b50565b60007f000000000000000000000000000000000000000000000000000000000000000073ffffffffffffffffffffffffffffffffffffffff1663d3419bf36040518163ffffffff1660e01b815260040160206040518083038186803b1580156123ed5760006000fd5b505afa158015612402573d600060003e3d6000fd5b505050506040513d601f19601f820116820180604052508101906124269190616691565b73ffffffffffffffffffffffffffffffffffffffff1663fcebd71c83600460009054906101000a900463ffffffff166040518363ffffffff1660e01b81526004016124729291906172b7565b60206040518083038186803b15801561248b5760006000fd5b505afa1580156124a0573d600060003e3d6000fd5b505050506040513d601f19601f820116820180604052508101906124c491906167b2565b90506124cb565b919050565b60006124e342612041909063ffffffff16565b905080505b90565b60008160020b8360e0015160020b13158015612511575082610100015160020b8260020b125b9050612518565b92915050565b6125266161b2565b60006125366147d163ffffffff16565b90506000612549826148d063ffffffff16565b905060008460c001519050600060008267ffffffffffffffff161461257c57612577826148d063ffffffff16565b61257f565b60005b90508067ffffffffffffffff168367ffffffffffffffff161115156125aa578594505050505061294a565b6125b86132b463ffffffff16565b60006126bd877f000000000000000000000000000000000000000000000000000000000000000073ffffffffffffffffffffffffffffffffffffffff16631cef92b1600560005060008c6020015161ffff1661ffff16815260200190815260200160002060005060000160009054906101000a900473ffffffffffffffffffffffffffffffffffffffff166040518263ffffffff1660e01b815260040161265f91906171a8565b60406040518083038186803b1580156126785760006000fd5b505afa15801561268d573d600060003e3d6000fd5b505050506040513d601f19601f820116820180604052508101906126b19190616b71565b876141ad63ffffffff16565b8092508197505050600081111561293857600073ffffffffffffffffffffffffffffffffffffffff1686610140015173ffffffffffffffffffffffffffffffffffffffff161415801561271f5750600086610160015167ffffffffffffffff16115b1561284e57600061274887610160015167ffffffffffffffff1683612b7e90919063ffffffff16565b90507f000000000000000000000000000000000000000000000000000000000000000073ffffffffffffffffffffffffffffffffffffffff16634d6729f5886101400151836040518363ffffffff1660e01b81526004016127aa92919061708b565b600060405180830381600087803b1580156127c55760006000fd5b505af11580156127da573d600060003e3d6000fd5b505050506001151587610140015173ffffffffffffffffffffffffffffffffffffffff167f8079a05488a0f375c08504c3ba8b3a1371f5a192b7a141bc9294ef7ad41389d98360405161282d9190617797565b60405180910390a3612848818361495890919063ffffffff16565b91508150505b7f000000000000000000000000000000000000000000000000000000000000000073ffffffffffffffffffffffffffffffffffffffff16634d6729f58760000151836040518363ffffffff1660e01b81526004016128ad92919061708b565b600060405180830381600087803b1580156128c85760006000fd5b505af11580156128dd573d600060003e3d6000fd5b5050505060001515866000015173ffffffffffffffffffffffffffffffffffffffff167f8079a05488a0f375c08504c3ba8b3a1371f5a192b7a141bc9294ef7ad41389d98360405161292f9190617797565b60405180910390a35b859550505050505061294a5650505050505b919050565b600060007f000000000000000000000000000000000000000000000000000000000000000073ffffffffffffffffffffffffffffffffffffffff1663fc6f78656040518060800160405280898152602001600073ffffffffffffffffffffffffffffffffffffffff1681526020016fffffffffffffffffffffffffffffffff6fffffffffffffffffffffffffffffffff1681526020016fffffffffffffffffffffffffffffffff6fffffffffffffffffffffffffffffffff168152602001506040518263ffffffff1660e01b8152600401612a2a919061755b565b604060405180830381600087803b158015612a455760006000fd5b505af1158015612a5a573d600060003e3d6000fd5b505050506040513d601f19601f82011682018060405250810190612a7e9190616cfe565b8092508193505050600060007f000000000000000000000000000000000000000000000000000000000000000073ffffffffffffffffffffffffffffffffffffffff166399fbab88896040518263ffffffff1660e01b8152600401612ae39190617797565b6101806040518083038186803b158015612afd5760006000fd5b505afa158015612b12573d600060003e3d6000fd5b505050506040513d601f19601f82011682018060405250810190612b369190616d99565b5050505050505050935093505050612b558288876149e163ffffffff16565b612b668187876149e163ffffffff16565b8383935093505050612b755650505b94509492505050565b6000612b998383670de0b6b3a7640000614b6163ffffffff16565b905080505b92915050565b600070010000000000000000000000000000000082101515612c31576040517f08c379a00000000000000000000000000000000000000000000000000000000081526004018080602001828103825260128152602001807f6d6f7265207468616e203132382062697473000000000000000000000000000081526020015060200191505060405180910390fd5b819050612c39565b919050565b600060007f000000000000000000000000000000000000000000000000000000000000000073ffffffffffffffffffffffffffffffffffffffff16630c49ccbe856040518263ffffffff1660e01b8152600401612c9b91906175ba565b604060405180830381600087803b158015612cb65760006000fd5b505af1158015612ccb573d600060003e3d6000fd5b505050506040513d601f19601f82011682018060405250810190612cef9190616cfe565b8092508193505050612d158460000151856040015186606001518661294f63ffffffff16565b5050808191509150612d22565b9250929050565b6000826fffffffffffffffffffffffffffffffff168284039150816fffffffffffffffffffffffffffffffff1611151515612dcf576040517f08c379a000000000000000000000000000000000000000000000000000000000815260040180806020018281038252600d8152602001807f7375622d756e646572666c6f770000000000000000000000000000000000000081526020015060200191505060405180910390fd5b5b92915050565b612dec82848460a001518461436163ffffffff16565b7f000000000000000000000000000000000000000000000000000000000000000073ffffffffffffffffffffffffffffffffffffffff166326879a4e846040518263ffffffff1660e01b8152600401612e459190617797565b600060405180830381600087803b158015612e605760006000fd5b505af1158015612e75573d600060003e3d6000fd5b505050507f000000000000000000000000000000000000000000000000000000000000000073ffffffffffffffffffffffffffffffffffffffff166342966c68846040518263ffffffff1660e01b8152600401612ed29190617797565b600060405180830381600087803b158015612eed5760006000fd5b505af1158015612f02573d600060003e3d6000fd5b505050505b505050565b600160026000508190909055507f000000000000000000000000000000000000000000000000000000000000000073ffffffffffffffffffffffffffffffffffffffff1663e9fad8ee6040518163ffffffff1660e01b8152600401600060405180830381600087803b158015612f825760006000fd5b505af1158015612f97573d600060003e3d6000fd5b505050505b565b60007f00000000000000000000000000000000000000000000000000000000000000007f000000000000000000000000000000000000000000000000000000000000000067ffffffffffffffff16612ffa6124d063ffffffff16565b67ffffffffffffffff1681151561300d57fe5b0403905080505b90565b6130747f000000000000000000000000000000000000000000000000000000000000000073ffffffffffffffffffffffffffffffffffffffff163373ffffffffffffffffffffffffffffffffffffffff16146142e563ffffffff16565b5b565b6001600060006101000a81548160ff0219169083151502179055507f7acc84e34091ae817647a4c49116f5cc07f319078ba80f8f5fde37ea7e25cbd660405160405180910390a15b565b600060009054906101000a900460ff16151515613149576040517f08c379a00000000000000000000000000000000000000000000000000000000081526004018080602001828103825260138152602001807f436f6e74726163742069732073746f707065640000000000000000000000000081526020015060200191505060405180910390fd5b5b565b6131546161b2565b61320e7f000000000000000000000000000000000000000000000000000000000000000073ffffffffffffffffffffffffffffffffffffffff1663f34348f1846040518263ffffffff1660e01b81526004016131b09190617797565b6101806040518083038186803b1580156131ca5760006000fd5b505afa1580156131df573d600060003e3d6000fd5b505050506040513d601f19601f8201168201806040525081019061320391906169ad565b61251e63ffffffff16565b90508050613253816000015173ffffffffffffffffffffffffffffffffffffffff163373ffffffffffffffffffffffffffffffffffffffff16146142e563ffffffff16565b80905061325b565b919050565b43811015156132a4576040517f08c379a000000000000000000000000000000000000000000000000000000000815260040161329b906174dd565b60405180910390fd5b5b50565b6132b06162f9565b5b90565b60006132c4614c6263ffffffff16565b9050600860009054906101000a900467ffffffffffffffff1667ffffffffffffffff168167ffffffffffffffff161115156132ff575061352c565b6000600860009054906101000a900467ffffffffffffffff1682039050600061384067ffffffffffffffff166201518081151561333857fe5b0467ffffffffffffffff166134018367ffffffffffffffff167f000000000000000000000000000000000000000000000000000000000000000073ffffffffffffffffffffffffffffffffffffffff166318c7de176040518163ffffffff1660e01b8152600401602060405180830381600087803b1580156133ba5760006000fd5b505af11580156133cf573d600060003e3d6000fd5b505050506040513d601f19601f820116820180604052508101906133f39190616c9d565b614c8a90919063ffffffff16565b81151561340a57fe5b0490506000600460049054906101000a900461ffff1690506000600061343461387663ffffffff16565b90506001915081505b8261ffff168261ffff161115156134c3576134b5826134a9600560005060008661ffff1661ffff16815260200190815260200160002060005060000160149054906101000a900467ffffffffffffffff1667ffffffffffffffff168488614b619092919063ffffffff16565b87614d2863ffffffff16565b5b818060010192505061343d565b85600860006101000a81548167ffffffffffffffff021916908367ffffffffffffffff1602179055507f095a67d1e9698fe0eebf9cff79a22f6423cebcb4e386a0bdd7e12330d86381ed848660405161351d92919061783d565b60405180910390a15050505050505b565b600082828401915081101515156135b0576040517f08c379a000000000000000000000000000000000000000000000000000000000815260040180806020018281038252600c8152602001807f6164642d6f766572666c6f77000000000000000000000000000000000000000081526020015060200191505060405180910390fd5b5b92915050565b600060006135d383600001518460a00151614fc063ffffffff16565b6135eb83602001518460c00151614fc063ffffffff16565b7f000000000000000000000000000000000000000000000000000000000000000083610120019073ffffffffffffffffffffffffffffffffffffffff16908173ffffffffffffffffffffffffffffffffffffffff16815260200150507f000000000000000000000000000000000000000000000000000000000000000073ffffffffffffffffffffffffffffffffffffffff166388316456846040518263ffffffff1660e01b81526004016136a0919061764c565b608060405180830381600087803b1580156136bb5760006000fd5b505af11580156136d0573d600060003e3d6000fd5b505050506040513d601f19601f820116820180604052508101906136f49190616cb9565b9050508092508193505050613717836000015184602001516150c063ffffffff16565b5b915091565b7f000000000000000000000000000000000000000000000000000000000000000073ffffffffffffffffffffffffffffffffffffffff166375ea13ca33886040518363ffffffff1660e01b815260040161377892919061701d565b600060405180830381600087803b1580156137935760006000fd5b505af11580156137a8573d600060003e3d6000fd5b505050506137b46161b2565b33816000019073ffffffffffffffffffffffffffffffffffffffff16908173ffffffffffffffffffffffffffffffffffffffff168152602001505085816020019061ffff16908161ffff1681526020015050848160e0019060020b908160020b815260200150508381610100019060020b908160020b815260200150508181610120019063ffffffff16908163ffffffff168152602001505061386c61385f8261251e63ffffffff16565b8885613acb63ffffffff16565b505b505050505050565b60006000600190505b600460049054906101000a900461ffff1661ffff168161ffff16111515613907576138f5600560005060008361ffff1661ffff16815260200190815260200160002060005060000160149054906101000a900467ffffffffffffffff1667ffffffffffffffff168361352e90919063ffffffff16565b915081505b808060010191505061387f565b50809050613910565b90565b6000600060007f000000000000000000000000000000000000000000000000000000000000000073ffffffffffffffffffffffffffffffffffffffff166399fbab8885600001356040518263ffffffff1660e01b81526004016139769190617797565b6101806040518083038186803b1580156139905760006000fd5b505afa1580156139a5573d600060003e3d6000fd5b505050506040513d601f19601f820116820180604052508101906139c99190616d99565b50505050505050509350935050506139eb828560200135614fc063ffffffff16565b6139ff818560400135614fc063ffffffff16565b7f000000000000000000000000000000000000000000000000000000000000000073ffffffffffffffffffffffffffffffffffffffff1663219f5d17856040518263ffffffff1660e01b8152600401613a589190617607565b606060405180830381600087803b158015613a735760006000fd5b505af1158015613a88573d600060003e3d6000fd5b505050506040513d601f19601f82011682018060405250810190613aac9190616be4565b90505080935050613ac382826150c063ffffffff16565b50505b919050565b600060056000506000856020015161ffff1661ffff16815260200190815260200160002060005060000160009054906101000a900473ffffffffffffffffffffffffffffffffffffffff1690506000613b298261238463ffffffff16565b9050613b3b85826124eb63ffffffff16565b1515613b7c576040517f08c379a0000000000000000000000000000000000000000000000000000000008152600401613b7390617324565b60405180910390fd5b613bb6858284613bab878a60a001516fffffffffffffffffffffffffffffffff1661517f90919063ffffffff16565b61522c63ffffffff16565b7f000000000000000000000000000000000000000000000000000000000000000073ffffffffffffffffffffffffffffffffffffffff16631428561d83856040518363ffffffff1660e01b8152600401613c11929190617276565b600060405180830381600087803b158015613c2c5760006000fd5b505af1158015613c41573d600060003e3d6000fd5b50505050670de0b6b3a7640000600360009054906101000a900467ffffffffffffffff1667ffffffffffffffff16108015613c885750600161ffff16856020015161ffff16145b15613c9d57613c9c8261542763ffffffff16565b5b4385608001909081815260200150507f000000000000000000000000000000000000000000000000000000000000000073ffffffffffffffffffffffffffffffffffffffff1663816aaa2585876040518363ffffffff1660e01b8152600401613d079291906177d8565b600060405180830381600087803b158015613d225760006000fd5b505af1158015613d37573d600060003e3d6000fd5b5050505050505b505050565b60006000600660005060008573ffffffffffffffffffffffffffffffffffffffff1673ffffffffffffffffffffffffffffffffffffffff16815260200190815260200160002060009054906101000a900461ffff1661ffff16141515613dde576040517f08c379a0000000000000000000000000000000000000000000000000000000008152600401613dd5906173a2565b60405180910390fd5b61ffff61ffff166004600481819054906101000a900461ffff1660010191906101000a81548161ffff021916908361ffff160217905561ffff16101515613e255760006000fd5b7f000000000000000000000000000000000000000000000000000000000000000073ffffffffffffffffffffffffffffffffffffffff1663d3419bf36040518163ffffffff1660e01b815260040160206040518083038186803b158015613e8c5760006000fd5b505afa158015613ea1573d600060003e3d6000fd5b505050506040513d601f19601f82011682018060405250810190613ec59190616691565b73ffffffffffffffffffffffffffffffffffffffff1663407431f7846040518263ffffffff1660e01b8152600401613efd91906171a8565b600060405180830381600087803b158015613f185760006000fd5b505af1158015613f2d573d600060003e3d6000fd5b50505050600460049054906101000a900461ffff169050805060405180604001604052808473ffffffffffffffffffffffffffffffffffffffff1681526020018367ffffffffffffffff16815260200150600560005060008361ffff1661ffff16815260200190815260200160002060005060008201518160000160006101000a81548173ffffffffffffffffffffffffffffffffffffffff021916908373ffffffffffffffffffffffffffffffffffffffff16021790555060208201518160000160146101000a81548167ffffffffffffffff021916908367ffffffffffffffff16021790555090505080600660005060008573ffffffffffffffffffffffffffffffffffffffff1673ffffffffffffffffffffffffffffffffffffffff16815260200190815260200160002060006101000a81548161ffff021916908361ffff1602179055506141038373ffffffffffffffffffffffffffffffffffffffff16630dfe16816040518163ffffffff1660e01b815260040160206040518083038186803b1580156140bf5760006000fd5b505afa1580156140d4573d600060003e3d6000fd5b505050506040513d601f19601f820116820180604052508101906140f89190616574565b6156bf63ffffffff16565b6141918373ffffffffffffffffffffffffffffffffffffffff1663d21220a76040518163ffffffff1660e01b815260040160206040518083038186803b15801561414d5760006000fd5b505afa158015614162573d600060003e3d6000fd5b505050506040513d601f19601f820116820180604052508101906141869190616574565b6156bf63ffffffff16565b61419f6132b463ffffffff16565b8090506141a7565b92915050565b6141b56161b2565b6000849150815060008260a001516fffffffffffffffffffffffffffffffff161115614289576142846141ff8360c001518567ffffffffffffffff1661571490919063ffffffff16565b67ffffffffffffffff1661384067ffffffffffffffff166142756142348660600151896000015161495890919063ffffffff16565b61424f87604001518a6020015161495890919063ffffffff16565b8760a001516fffffffffffffffffffffffffffffffff16614b619092919063ffffffff16565b614b619092919063ffffffff16565b905080505b8360000151826060019090818152602001505083602001518260400190908181526020015050828260c0019067ffffffffffffffff16908167ffffffffffffffff16815260200150508181915091506142dd565b935093915050565b80151561435d576040517f08c379a000000000000000000000000000000000000000000000000000000000815260040180806020018281038252600e8152602001807f4e6f7420417574686f72697a656400000000000000000000000000000000000081526020015060200191505060405180910390fd5b5b50565b600060056000506000866020015161ffff1661ffff16815260200190815260200160002060005060000160009054906101000a900473ffffffffffffffffffffffffffffffffffffffff169050600082600001516143cd576143c88261238463ffffffff16565b6143d3565b82602001515b90506000670de0b6b3a7640000600360009054906101000a900467ffffffffffffffff1667ffffffffffffffff1610801561441a5750600161ffff16876020015161ffff16145b8015614432575061443187836124eb63ffffffff16565b5b80156144db57507f000000000000000000000000000000000000000000000000000000000000000073ffffffffffffffffffffffffffffffffffffffff1663bf86d6906040518163ffffffff1660e01b815260040160206040518083038186803b1580156144a05760006000fd5b505afa1580156144b5573d600060003e3d6000fd5b505050506040513d601f19601f820116820180604052508101906144d9919061661d565b155b905061451787838561450c898c60a001516fffffffffffffffffffffffffffffffff16612d2990919063ffffffff16565b61522c63ffffffff16565b801561452d5761452c8361542763ffffffff16565b5b7f000000000000000000000000000000000000000000000000000000000000000073ffffffffffffffffffffffffffffffffffffffff1663530c1ccb84876040518363ffffffff1660e01b8152600401614588929190617276565b600060405180830381600087803b1580156145a35760006000fd5b505af11580156145b8573d600060003e3d6000fd5b50505050801561473857600760005060008473ffffffffffffffffffffffffffffffffffffffff1673ffffffffffffffffffffffffffffffffffffffff16815260200190815260200160002060005060000160089054906101000a900477ffffffffffffffffffffffffffffffffffffffffffffffff1677ffffffffffffffffffffffffffffffffffffffffffffffff167f000000000000000000000000000000000000000000000000000000000000000073ffffffffffffffffffffffffffffffffffffffff1663a135ef17856040518263ffffffff1660e01b81526004016146a291906171a8565b60206040518083038186803b1580156146bb5760006000fd5b505afa1580156146d0573d600060003e3d6000fd5b505050506040513d601f19601f820116820180604052508101906146f49190616c9d565b10151515614737576040517f08c379a000000000000000000000000000000000000000000000000000000000815260040161472e90617363565b60405180910390fd5b5b7f000000000000000000000000000000000000000000000000000000000000000073ffffffffffffffffffffffffffffffffffffffff1663816aaa2587896040518363ffffffff1660e01b81526004016147939291906177d8565b600060405180830381600087803b1580156147ae5760006000fd5b505af11580156147c3573d600060003e3d6000fd5b505050505050505b50505050565b600060006147e36124d063ffffffff16565b905060007f000000000000000000000000000000000000000000000000000000000000000073ffffffffffffffffffffffffffffffffffffffff1663585690816040518163ffffffff1660e01b815260040160206040518083038186803b15801561484e5760006000fd5b505afa158015614863573d600060003e3d6000fd5b505050506040513d601f19601f820116820180604052508101906148879190616d72565b90508067ffffffffffffffff1660001080156148b657508167ffffffffffffffff168167ffffffffffffffff16105b6148c057816148c2565b805b925050506148cd5650505b90565b600061494e7f00000000000000000000000000000000000000000000000000000000000000007f000000000000000000000000000000000000000000000000000000000000000067ffffffffffffffff168467ffffffffffffffff1681151561493557fe5b0467ffffffffffffffff1661571490919063ffffffff16565b905080505b919050565b600082828403915081111515156149da576040517f08c379a000000000000000000000000000000000000000000000000000000000815260040180806020018281038252600d8152602001807f7375622d756e646572666c6f770000000000000000000000000000000000000081526020015060200191505060405180910390fd5b5b92915050565b7f000000000000000000000000000000000000000000000000000000000000000073ffffffffffffffffffffffffffffffffffffffff168373ffffffffffffffffffffffffffffffffffffffff161415614ac9577f000000000000000000000000000000000000000000000000000000000000000073ffffffffffffffffffffffffffffffffffffffff166349404b7c83836040518363ffffffff1660e01b8152600401614a909291906177a9565b600060405180830381600087803b158015614aab5760006000fd5b505af1158015614ac0573d600060003e3d6000fd5b50505050614b5b565b7f000000000000000000000000000000000000000000000000000000000000000073ffffffffffffffffffffffffffffffffffffffff1663df2ab5bb8484846040518463ffffffff1660e01b8152600401614b26939291906170ba565b600060405180830381600087803b158015614b415760006000fd5b505af1158015614b56573d600060003e3d6000fd5b505050505b5b505050565b6000600060006000198587098587029250828110838203039150506000811415614ba457600084111515614b955760006000fd5b83820492508292505050614c5b565b8084111515614bb35760006000fd5b6000848688099050828111820391508083039250600085866000031690508086049550808404935060018182600003040190508083028417935083506000600287600302189050808702600203810290508050808702600203810290508050808702600203810290508050808702600203810290508050808702600203810290508050808702600203810290508050808502955085508595505050505050614c5b5650505050505b9392505050565b6000614c80614c756147d163ffffffff16565b6148d063ffffffff16565b9050614c87565b90565b60006000821480614caa57508282838502925082811515614ca757fe5b04145b1515614d21576040517f08c379a000000000000000000000000000000000000000000000000000000000815260040180806020018281038252600c8152602001807f6d756c2d6f766572666c6f77000000000000000000000000000000000000000081526020015060200191505060405180910390fd5b5b92915050565b6000600560005060008561ffff1661ffff16815260200190815260200160002060005060000160009054906101000a900473ffffffffffffffffffffffffffffffffffffffff16905060007f000000000000000000000000000000000000000000000000000000000000000073ffffffffffffffffffffffffffffffffffffffff16631cef92b1836040518263ffffffff1660e01b8152600401614dcc91906171a8565b60406040518083038186803b158015614de55760006000fd5b505afa158015614dfa573d600060003e3d6000fd5b505050506040513d601f19601f82011682018060405250810190614e1e9190616b71565b90507f000000000000000000000000000000000000000000000000000000000000000073ffffffffffffffffffffffffffffffffffffffff166396122a5c836040518060400160405280614e7f89876000015161352e90919063ffffffff16565b8152602001614f61614f4e8967ffffffffffffffff167f000000000000000000000000000000000000000000000000000000000000000073ffffffffffffffffffffffffffffffffffffffff1663a135ef178b6040518263ffffffff1660e01b8152600401614eee91906171a8565b60206040518083038186803b158015614f075760006000fd5b505afa158015614f1c573d600060003e3d6000fd5b505050506040513d601f19601f82011682018060405250810190614f409190616c9d565b614c8a90919063ffffffff16565b876020015161352e90919063ffffffff16565b8152602001506040518363ffffffff1660e01b8152600401614f8492919061723c565b600060405180830381600087803b158015614f9f5760006000fd5b505af1158015614fb4573d600060003e3d6000fd5b5050505050505b505050565b7f000000000000000000000000000000000000000000000000000000000000000073ffffffffffffffffffffffffffffffffffffffff168273ffffffffffffffffffffffffffffffffffffffff1614801561501b5750804710155b156150a8577f000000000000000000000000000000000000000000000000000000000000000073ffffffffffffffffffffffffffffffffffffffff1663d0e30db0826040518263ffffffff1660e01b81526004016000604051808303818588803b1580156150895760006000fd5b505af115801561509e573d600060003e3d6000fd5b50505050506150bb565b6150ba823330846157b163ffffffff16565b5b5b5050565b6150cf826159dc63ffffffff16565b6150de816159dc63ffffffff16565b7f000000000000000000000000000000000000000000000000000000000000000073ffffffffffffffffffffffffffffffffffffffff166312210e8a6040518163ffffffff1660e01b8152600401600060405180830381600087803b1580156151475760006000fd5b505af115801561515c573d600060003e3d6000fd5b50505050600047111561517a576151793347615b7263ffffffff16565b5b5b5050565b6000826fffffffffffffffffffffffffffffffff168284019150816fffffffffffffffffffffffffffffffff1610151515615225576040517f08c379a000000000000000000000000000000000000000000000000000000000815260040180806020018281038252600c8152602001807f6164642d6f766572666c6f77000000000000000000000000000000000000000081526020015060200191505060405180910390fd5b5b92915050565b6000816fffffffffffffffffffffffffffffffff16141561524c57615421565b60007f000000000000000000000000000000000000000000000000000000000000000073ffffffffffffffffffffffffffffffffffffffff1663d3419bf36040518163ffffffff1660e01b815260040160206040518083038186803b1580156152b55760006000fd5b505afa1580156152ca573d600060003e3d6000fd5b505050506040513d601f19601f820116820180604052508101906152ee9190616691565b73ffffffffffffffffffffffffffffffffffffffff16631fab230e84868860e0015189610100015187600460009054906101000a900463ffffffff166040518763ffffffff1660e01b815260040161534b969594939291906171d0565b60206040518083038186803b1580156153645760006000fd5b505afa158015615379573d600060003e3d6000fd5b505050506040513d601f19601f8201168201806040525081019061539d9190616c9d565b9050600360109054906101000a90046fffffffffffffffffffffffffffffffff166fffffffffffffffffffffffffffffffff16811015806153de5750600081145b151561541f576040517f08c379a000000000000000000000000000000000000000000000000000000000815260040161541690617420565b60405180910390fd5b505b50505050565b6000615437612f9e63ffffffff16565b90508067ffffffffffffffff16600760005060008473ffffffffffffffffffffffffffffffffffffffff1673ffffffffffffffffffffffffffffffffffffffff16815260200190815260200160002060005060000160009054906101000a900467ffffffffffffffff1667ffffffffffffffff1610156156ba5760405180604001604052808267ffffffffffffffff1681526020016155d36155c661550d600360009054906101000a900467ffffffffffffffff1667ffffffffffffffff16670de0b6b3a764000061495890919063ffffffff16565b7f000000000000000000000000000000000000000000000000000000000000000073ffffffffffffffffffffffffffffffffffffffff1663a135ef17886040518263ffffffff1660e01b815260040161556691906171a8565b60206040518083038186803b15801561557f5760006000fd5b505afa158015615594573d600060003e3d6000fd5b505050506040513d601f19601f820116820180604052508101906155b89190616c9d565b612b7e90919063ffffffff16565b615cf8909063ffffffff16565b77ffffffffffffffffffffffffffffffffffffffffffffffff16815260200150600760005060008473ffffffffffffffffffffffffffffffffffffffff1673ffffffffffffffffffffffffffffffffffffffff16815260200190815260200160002060005060008201518160000160006101000a81548167ffffffffffffffff021916908367ffffffffffffffff16021790555060208201518160000160086101000a81548177ffffffffffffffffffffffffffffffffffffffffffffffff021916908377ffffffffffffffffffffffffffffffffffffffffffffffff1602179055509050505b505b50565b615710817f00000000000000000000000000000000000000000000000000000000000000007fffffffffffffffffffffffffffffffffffffffffffffffffffffffffffffffff615d9a63ffffffff16565b5b50565b60008267ffffffffffffffff1682840391508167ffffffffffffffff16111515156157aa576040517f08c379a000000000000000000000000000000000000000000000000000000000815260040180806020018281038252600d8152602001807f7375622d756e646572666c6f770000000000000000000000000000000000000081526020015060200191505060405180910390fd5b5b92915050565b600060008573ffffffffffffffffffffffffffffffffffffffff166323b872dd60e01b868686604051602401808473ffffffffffffffffffffffffffffffffffffffff1681526020018373ffffffffffffffffffffffffffffffffffffffff1681526020018281526020019350505050604051602081830303815290604052907bffffffffffffffffffffffffffffffffffffffffffffffffffffffff19166020820180517bffffffffffffffffffffffffffffffffffffffffffffffffffffffff83818316178352505050506040518082805190602001908083835b6020831015156158b457805182525b60208201915060208101905060208303925061588e565b6001836020036101000a0380198251168184511680821785525050505050509050019150506000604051808303816000865af19150503d8060008114615916576040519150601f19603f3d011682016040523d82523d6000602084013e61591b565b606091505b509150915081801561595c575060008151148061595b57508080602001905160208110156159495760006000fd5b81019080805190602001909291905050505b5b15156159d3576040517f08c379a00000000000000000000000000000000000000000000000000000000081526004018080602001828103825260038152602001807f535446000000000000000000000000000000000000000000000000000000000081526020015060200191505060405180910390fd5b50505b50505050565b60008173ffffffffffffffffffffffffffffffffffffffff166370a08231306040518263ffffffff1660e01b8152600401615a179190616ff5565b60206040518083038186803b158015615a305760006000fd5b505afa158015615a45573d600060003e3d6000fd5b505050506040513d601f19601f82011682018060405250810190615a699190616c9d565b90506000811115615b6d577f000000000000000000000000000000000000000000000000000000000000000073ffffffffffffffffffffffffffffffffffffffff168273ffffffffffffffffffffffffffffffffffffffff161415615b5a577f000000000000000000000000000000000000000000000000000000000000000073ffffffffffffffffffffffffffffffffffffffff16632e1a7d4d826040518263ffffffff1660e01b8152600401615b219190617797565b600060405180830381600087803b158015615b3c5760006000fd5b505af1158015615b51573d600060003e3d6000fd5b50505050615b6c565b615b6b823383615fa663ffffffff16565b5b5b505b50565b60008273ffffffffffffffffffffffffffffffffffffffff1682600067ffffffffffffffff81118015615ba55760006000fd5b506040519080825280601f01601f191660200182016040528015615bd85781602001600182028036833780820191505090505b506040518082805190602001908083835b602083101515615c0f57805182525b602082019150602081019050602083039250615be9565b6001836020036101000a03801982511681845116808217855250505050505090500191505060006040518083038185875af1925050503d8060008114615c71576040519150601f19603f3d011682016040523d82523d6000602084013e615c76565b606091505b50509050801515615cf2576040517f08c379a00000000000000000000000000000000000000000000000000000000081526004018080602001828103825260038152602001807f535445000000000000000000000000000000000000000000000000000000000081526020015060200191505060405180910390fd5b505b5050565b6000780100000000000000000000000000000000000000000000000082101515615d8d576040517f08c379a00000000000000000000000000000000000000000000000000000000081526004018080602001828103825260128152602001807f6d6f7265207468616e203139322062697473000000000000000000000000000081526020015060200191505060405180910390fd5b819050615d95565b919050565b600060008473ffffffffffffffffffffffffffffffffffffffff1663095ea7b360e01b8585604051602401808373ffffffffffffffffffffffffffffffffffffffff16815260200182815260200192505050604051602081830303815290604052907bffffffffffffffffffffffffffffffffffffffffffffffffffffffff19166020820180517bffffffffffffffffffffffffffffffffffffffffffffffffffffffff83818316178352505050506040518082805190602001908083835b602083101515615e7f57805182525b602082019150602081019050602083039250615e59565b6001836020036101000a0380198251168184511680821785525050505050509050019150506000604051808303816000865af19150503d8060008114615ee1576040519150601f19603f3d011682016040523d82523d6000602084013e615ee6565b606091505b5091509150818015615f275750600081511480615f265750808060200190516020811015615f145760006000fd5b81019080805190602001909291905050505b5b1515615f9e576040517f08c379a00000000000000000000000000000000000000000000000000000000081526004018080602001828103825260028152602001807f534100000000000000000000000000000000000000000000000000000000000081526020015060200191505060405180910390fd5b50505b505050565b600060008473ffffffffffffffffffffffffffffffffffffffff1663a9059cbb60e01b8585604051602401808373ffffffffffffffffffffffffffffffffffffffff16815260200182815260200192505050604051602081830303815290604052907bffffffffffffffffffffffffffffffffffffffffffffffffffffffff19166020820180517bffffffffffffffffffffffffffffffffffffffffffffffffffffffff83818316178352505050506040518082805190602001908083835b60208310151561608b57805182525b602082019150602081019050602083039250616065565b6001836020036101000a0380198251168184511680821785525050505050509050019150506000604051808303816000865af19150503d80600081146160ed576040519150601f19603f3d011682016040523d82523d6000602084013e6160f2565b606091505b5091509150818015616133575060008151148061613257508080602001905160208110156161205760006000fd5b81019080805190602001909291905050505b5b15156161aa576040517f08c379a00000000000000000000000000000000000000000000000000000000081526004018080602001828103825260028152602001807f535400000000000000000000000000000000000000000000000000000000000081526020015060200191505060405180910390fd5b50505b505050565b604051806101800160405280600073ffffffffffffffffffffffffffffffffffffffff168152602001600061ffff16815260200160008152602001600081526020016000815260200160006fffffffffffffffffffffffffffffffff168152602001600067ffffffffffffffff168152602001600060020b8152602001600060020b8152602001600063ffffffff168152602001600073ffffffffffffffffffffffffffffffffffffffff168152602001600067ffffffffffffffff1681526020015090565b6040518060a001604052806000815260200160006fffffffffffffffffffffffffffffffff1681526020016000815260200160008152602001600081526020015090565b6040518060400160405280600073ffffffffffffffffffffffffffffffffffffffff168152602001600067ffffffffffffffff1681526020015090565b6040518060400160405280600015158152602001600060020b81526020015090566179f2565b60008135905061632e81617914565b5b919050565b60008151905061634381617914565b5b919050565b6000600083601f840112151561635d578182fd5b8235905067ffffffffffffffff811115616375578182fd5b6020830191508360206020830285010111156163915760006000fd5b5b9250929050565b6000813590506163a881617952565b5b919050565b6000815190506163bd81617952565b5b919050565b60006101808083850312156163d6578182fd5b6163df816178e9565b9150506163eb8261631f565b81526163f9602083016164cc565b602082015260408201356040820152606082013560608201526080820135608082015261642860a083016164a2565b60a082015261643960c0830161654a565b60c082015261644a60e08301616399565b60e082015261010061645d818401616399565b8183015250610120616470818401616520565b818301525061014061648381840161631f565b818301525061016061649681840161654a565b81830152505b92915050565b6000813590506164b181617968565b5b919050565b6000815190506164c681617968565b5b919050565b6000813590506164db8161798d565b5b919050565b6000815190506164f08161798d565b5b919050565b600081359050616505816179a4565b5b919050565b60008151905061651a816179a4565b5b919050565b60008135905061652f816179bc565b5b919050565b600081519050616544816179bc565b5b919050565b600081359050616559816179d5565b5b919050565b60008151905061656e816179d5565b5b919050565b600060208284031215616585578081fd5b815161659081617914565b809150505b92915050565b600060006000604084860312156165b0578182fd5b833567ffffffffffffffff8111156165c6578283fd5b6165d286828701616349565b9150809450508092505060208401356165ea816179bc565b809150505b9250925092565b600060208284031215616607578081fd5b81356166128161793d565b809150505b92915050565b60006020828403121561662e578081fd5b81516166398161793d565b809150505b92915050565b600060208284031215616655578081fd5b81357fffffffff00000000000000000000000000000000000000000000000000000000811681141515616686578182fd5b809150505b92915050565b6000602082840312156166a2578081fd5b81516166ad81617914565b809150505b92915050565b6000602082840312156166c9578081fd5b81356166d481617914565b809150505b92915050565b600060006000604084860312156166f4578081fd5b83356166ff81617914565b80935050602084013567ffffffffffffffff81111561671c578182fd5b61672886828701616349565b915080935050809150505b9250925092565b600060006040838503121561674d578182fd5b823561675881617914565b80925050602083013561676a81617914565b809150505b9250929050565b6000600060408385031215616789578182fd5b823561679481617914565b8092505060208301356167a6816179d5565b809150505b9250929050565b6000602082840312156167c3578081fd5b81516167ce81617952565b809150505b92915050565b6000600082840360c08112156167ed578283fd5b60a08112156167fa578283fd5b5082915060a083013561680c816179bc565b809150505b9250929050565b600060a08284031215616829578081fd5b60405160a0810181811067ffffffffffffffff8211171561684657fe5b806040525082358152602083013561685d81617968565b80602083015250604083013560408201526060830135606082015260808301356080820152809150505b92915050565b6000600082840360e08112156168a1578283fd5b60c08112156168ae578283fd5b5082915060c08301356168c0816179bc565b809150505b9250929050565b600060008284036101808112156168e1578283fd5b610160808212156168f0578384fd5b6168f9816178e9565b91506169048561631f565b82526169126020860161631f565b6020830152616923604086016164f6565b604083015261693460608601616399565b606083015261694560808601616399565b608083015260a085013560a083015260c085013560c083015260e085013560e083015261010080860135818401525061012061698281870161631f565b81840152506101408086013581840152508193506169a1818601616520565b925050505b9250929050565b60006101808083850312156169c0578182fd5b6169c9816178e9565b90506169d483616334565b81526169e2602084016164e1565b6020820152604083015160408201526060830151606082015260808301516080820152616a1160a084016164b7565b60a0820152616a2260c0840161655f565b60c0820152616a3360e084016163ae565b60e0820152610100616a468185016163ae565b8183015250610120616a59818501616535565b8183015250610140616a6c818501616334565b8183015250610160616a7f81850161655f565b8183015250809150505b92915050565b600060006101a08385031215616aa3578182fd5b616aad84846163c3565b9150610180830135616abe81617952565b809150505b9250929050565b6000600060008385036101e0811215616ae1578182fd5b616aeb86866163c3565b935060407ffffffffffffffffffffffffffffffffffffffffffffffffffffffffffffffe8082011215616b1c578182fd5b506040516040810181811067ffffffffffffffff82111715616b3a57fe5b806040525061018085013581526101a08501356020820152809250506101c0840135616b65816179d5565b809150505b9250925092565b600060408284031215616b82578081fd5b6040516040810181811067ffffffffffffffff82111715616b9f57fe5b80604052508251815260208301516020820152809150505b92915050565b600060208284031215616bce578081fd5b8135616bd981617968565b809150505b92915050565b60006000600060608486031215616bf9578081fd5b8351616c0481617968565b8093505060208401519150604084015190505b9250925092565b600060208284031215616c2f578081fd5b8135616c3a8161798d565b809150505b92915050565b6000600060408385031215616c58578182fd5b8235616c638161798d565b809250506020830135616c75816179d5565b809150505b9250929050565b600060208284031215616c92578081fd5b813590505b92915050565b600060208284031215616cae578081fd5b815190505b92915050565b600060006000600060808587031215616cd0578182fd5b845193506020850151616ce281617968565b8093505060408501519150606085015190505b92959194509250565b6000600060408385031215616d11578182fd5b82519150602083015190505b9250929050565b600060208284031215616d35578081fd5b8135616d40816179bc565b809150505b92915050565b600060208284031215616d5c578081fd5b8135616d67816179d5565b809150505b92915050565b600060208284031215616d83578081fd5b8151616d8e816179d5565b809150505b92915050565b6000600060006000600060006000600060006000600060006101808d8f031215616dc157898afd5b8c516bffffffffffffffffffffffff811681141515616dde578a8bfd5b809c5050616dee60208e01616334565b9a50616dfc60408e01616334565b9950616e0a60608e01616334565b9850616e1860808e0161650b565b9750616e2660a08e016163ae565b9650616e3460c08e016163ae565b9550616e4260e08e016164b7565b94506101008d015193506101208d01519250616e616101408e016164b7565b9150616e706101608e016164b7565b90505b9295989b509295989b509295989b565b73ffffffffffffffffffffffffffffffffffffffff811682525b5050565b8060020b82525b5050565b616eb7828251616e83565b6020810151616ec96020840182616f94565b5060408101516040830152606081015160608301526080810151608083015260a0810151616efa60a0840182616f7a565b5060c0810151616f0d60c0840182616fbb565b5060e0810151616f2060e0840182616ea1565b5061010080820151616f3482850182616ea1565b505061012080820151616f4982850182616fad565b505061014080820151616f5e82850182616e83565b505061016080820151616f7382850182616fbb565b50505b5050565b6fffffffffffffffffffffffffffffffff811682525b5050565b61ffff811682525b5050565b62ffffff811682525b5050565b63ffffffff811682525b5050565b67ffffffffffffffff811682525b5050565b600060208201905073ffffffffffffffffffffffffffffffffffffffff831682525b92915050565b600060208201905073ffffffffffffffffffffffffffffffffffffffff831682525b92915050565b600060408201905073ffffffffffffffffffffffffffffffffffffffff841682528260208301525b9392505050565b600060608201905073ffffffffffffffffffffffffffffffffffffffff808616835280851660208401525062ffffff831660408301525b949350505050565b600060408201905073ffffffffffffffffffffffffffffffffffffffff841682528260208301525b9392505050565b600060608201905073ffffffffffffffffffffffffffffffffffffffff80861683528460208401528084166040840152505b949350505050565b600060208201905082151582525b92915050565b600060208201905073ffffffffffffffffffffffffffffffffffffffff831682525b92915050565b600060208201905073ffffffffffffffffffffffffffffffffffffffff831682525b92915050565b600060208201905073ffffffffffffffffffffffffffffffffffffffff831682525b92915050565b600060208201905073ffffffffffffffffffffffffffffffffffffffff831682525b92915050565b600060208201905073ffffffffffffffffffffffffffffffffffffffff831682525b92915050565b600060c08201905073ffffffffffffffffffffffffffffffffffffffff881682528660020b60208301528560020b60408301528460020b60608301526fffffffffffffffffffffffffffffffff8416608083015263ffffffff831660a08301525b979650505050505050565b600060608201905073ffffffffffffffffffffffffffffffffffffffff8416825282516020830152602083015160408301525b9392505050565b600060408201905073ffffffffffffffffffffffffffffffffffffffff841682526fffffffffffffffffffffffffffffffff831660208301525b9392505050565b600060408201905073ffffffffffffffffffffffffffffffffffffffff8416825263ffffffff831660208301525b9392505050565b60006060820190508460020b82528360020b60208301526fffffffffffffffffffffffffffffffff831660408301525b949350505050565b600060208252601660208301527f4c6971756964697479206e6f7420696e2072616e67650000000000000000000060408301526060820190505b919050565b600060208252601c60208301527f4d617820706572696f642077697468647261772065786365656465640000000060408301526060820190505b919050565b600060208252601260208301527f416c72656164792072656769737465726564000000000000000000000000000060408301526060820190505b919050565b600060208252601460208301527f496e63656e7469766520746f74616c206973203000000000000000000000000060408301526060820190505b919050565b600060208252601260208301527f506f736974696f6e20746f6f20736d616c6c000000000000000000000000000060408301526060820190505b919050565b600060208252600b60208301527f506f6f6c2065786973747300000000000000000000000000000000000000000060408301526060820190505b919050565b600060208252600e60208301527f496e76616c696420706f6f6c494400000000000000000000000000000000000060408301526060820190505b919050565b600060208252601260208301527f4e6f20666c617368206c6971756964697479000000000000000000000000000060408301526060820190505b919050565b600060208252600760208301527f496e76616c69640000000000000000000000000000000000000000000000000060408301526060820190505b919050565b60006080820190508251825273ffffffffffffffffffffffffffffffffffffffff602084015116602083015260408301516fffffffffffffffffffffffffffffffff808216604085015280606086015116606085015250505b92915050565b600060a082019050825182526fffffffffffffffffffffffffffffffff60208401511660208301526040830151604083015260608301516060830152608083015160808301525b92915050565b600060c082019050823582526020830135602083015260408301356040830152606083013560608301526080830135608083015260a083013560a08301525b92915050565b600061016082019050617660828451616e83565b60208301516176726020840182616e83565b5060408301516176856040840182616fa0565b5060608301516176986060840182616ea1565b5060808301516176ab6080840182616ea1565b5060a083015160a083015260c083015160c083015260e083015160e0830152610100808401518184015250610120808401516176e982850182616e83565b50506101408084015181840152505b92915050565b600060408201905073ffffffffffffffffffffffffffffffffffffffff835116825267ffffffffffffffff60208401511660208301525b92915050565b60006101a08201905061774e8285616eac565b826101808301525b9392505050565b60006020820190506fffffffffffffffffffffffffffffffff831682525b92915050565b600060208201905061ffff831682525b92915050565b60006020820190508282525b92915050565b600060408201905083825273ffffffffffffffffffffffffffffffffffffffff831660208301525b9392505050565b60006101a0820190508382526177f16020830184616eac565b5b9392505050565b60006040820190508382526fffffffffffffffffffffffffffffffff831660208301525b9392505050565b60006040820190508382528260208301525b9392505050565b600060408201905083825267ffffffffffffffff831660208301525b9392505050565b600060208201905063ffffffff831682525b92915050565b600060208201905063ffffffff831682525b92915050565b600060208201905067ffffffffffffffff831682525b92915050565b600060408201905067ffffffffffffffff8416825277ffffffffffffffffffffffffffffffffffffffffffffffff831660208301525b9392505050565b6000604051905081810181811067ffffffffffffffff8211171561790957fe5b80604052505b919050565b73ffffffffffffffffffffffffffffffffffffffff8116811415156179395760006000fd5b5b50565b8015158114151561794e5760006000fd5b5b50565b8060020b811415156179645760006000fd5b5b50565b6fffffffffffffffffffffffffffffffff8116811415156179895760006000fd5b5b50565b61ffff8116811415156179a05760006000fd5b5b50565b62ffffff8116811415156179b85760006000fd5b5b50565b63ffffffff8116811415156179d15760006000fd5b5b50565b67ffffffffffffffff8116811415156179ee5760006000fd5b5b50565bfea2646970667358221220bcb36fd5da9534a414d307675abe23957ce3bad5a1af2d81b22c5635baf5dc3a64736f6c63430007060033",
  "linkReferences": {},
  "deployedLinkReferences": {}
}