{
  "_format": "hh-sol-artifact-1",
  "contractName": "RewardsTestable",
  "sourceName": "contracts/mocks/RewardsTestable.sol",
  "abi": [
    {
      "inputs": [
        {
          "components": [
            {
              "internalType": "contract IGovernor",
              "name": "Governor",
              "type": "address"
            },
            {
              "internalType": "contract IProtocolLock",
              "name": "ProtocolLock",
              "type": "address"
            },
            {
              "internalType": "contract IAccounting",
              "name": "Accounting",
              "type": "address"
            },
            {
              "internalType": "address",
              "name": "Weth",
              "type": "address"
            },
            {
              "internalType": "contract INonfungiblePositionManager",
              "name": "NftPositionManager",
              "type": "address"
            },
            {
              "internalType": "contract IUniswapV3Factory",
              "name": "UniswapV3Factory",
              "type": "address"
            }
          ],
          "internalType": "struct IRewards.ConstructorParams",
          "name": "params",
          "type": "tuple"
        }
      ],
      "stateMutability": "nonpayable",
      "type": "constructor"
    },
    {
      "anonymous": false,
      "inputs": [
        {
          "indexed": false,
          "internalType": "uint64",
          "name": "penalty",
          "type": "uint64"
        }
      ],
      "name": "LiquidationPenaltyUpdated",
      "type": "event"
    },
    {
      "anonymous": false,
      "inputs": [
        {
          "indexed": true,
          "internalType": "address",
          "name": "owner",
          "type": "address"
        },
        {
          "indexed": true,
          "internalType": "uint16",
          "name": "poolID",
          "type": "uint16"
        },
        {
          "indexed": true,
          "internalType": "uint256",
          "name": "nftID",
          "type": "uint256"
        },
        {
          "indexed": false,
          "internalType": "int24",
          "name": "tickLower",
          "type": "int24"
        },
        {
          "indexed": false,
          "internalType": "int24",
          "name": "tickUpper",
          "type": "int24"
        },
        {
          "indexed": false,
          "internalType": "uint128",
          "name": "liquidity",
          "type": "uint128"
        }
      ],
      "name": "LiquidityPositionCreated",
      "type": "event"
    },
    {
      "anonymous": false,
      "inputs": [
        {
          "indexed": true,
          "internalType": "uint256",
          "name": "nftID",
          "type": "uint256"
        },
        {
          "indexed": false,
          "internalType": "uint256",
          "name": "amount0",
          "type": "uint256"
        },
        {
          "indexed": false,
          "internalType": "uint256",
          "name": "amount1",
          "type": "uint256"
        }
      ],
      "name": "LiquidityPositionDecreased",
      "type": "event"
    },
    {
      "anonymous": false,
      "inputs": [
        {
          "indexed": true,
          "internalType": "uint256",
          "name": "nftID",
          "type": "uint256"
        },
        {
          "indexed": false,
          "internalType": "uint128",
          "name": "liquidity",
          "type": "uint128"
        }
      ],
      "name": "LiquidityPositionIncreased",
      "type": "event"
    },
    {
      "anonymous": false,
      "inputs": [
        {
          "indexed": true,
          "internalType": "uint256",
          "name": "nftID",
          "type": "uint256"
        },
        {
          "indexed": true,
          "internalType": "address",
          "name": "liquidator",
          "type": "address"
        }
      ],
      "name": "LiquidityPositionLiquidated",
      "type": "event"
    },
    {
      "anonymous": false,
      "inputs": [
        {
          "indexed": true,
          "internalType": "uint256",
          "name": "nftID",
          "type": "uint256"
        },
        {
          "indexed": false,
          "internalType": "uint256",
          "name": "amount0",
          "type": "uint256"
        },
        {
          "indexed": false,
          "internalType": "uint256",
          "name": "amount1",
          "type": "uint256"
        }
      ],
      "name": "LiquidityPositionRemoved",
      "type": "event"
    },
    {
      "anonymous": false,
      "inputs": [
        {
          "indexed": false,
          "internalType": "uint64",
          "name": "decreasePortion",
          "type": "uint64"
        }
      ],
      "name": "MaxCollateralLiquidityDecreasePerPeriodUpdated",
      "type": "event"
    },
    {
      "anonymous": false,
      "inputs": [
        {
          "indexed": false,
          "internalType": "uint128",
          "name": "min",
          "type": "uint128"
        }
      ],
      "name": "MinHueCountPerPositionUpdated",
      "type": "event"
    },
    {
      "anonymous": false,
      "inputs": [
        {
          "indexed": true,
          "internalType": "address",
          "name": "pool",
          "type": "address"
        },
        {
          "indexed": true,
          "internalType": "uint16",
          "name": "poolID",
          "type": "uint16"
        },
        {
          "indexed": false,
          "internalType": "uint64",
          "name": "rewardsPortion",
          "type": "uint64"
        }
      ],
      "name": "PoolAdded",
      "type": "event"
    },
    {
      "anonymous": false,
      "inputs": [
        {
          "indexed": true,
          "internalType": "uint16",
          "name": "poolID",
          "type": "uint16"
        },
        {
          "indexed": false,
          "internalType": "uint64",
          "name": "incentive",
          "type": "uint64"
        }
      ],
      "name": "PoolIncentiveUpdated",
      "type": "event"
    },
    {
      "anonymous": false,
      "inputs": [
        {
          "indexed": false,
          "internalType": "uint256",
          "name": "count",
          "type": "uint256"
        },
        {
          "indexed": false,
          "internalType": "uint64",
          "name": "periods",
          "type": "uint64"
        }
      ],
      "name": "RewardsAccrued",
      "type": "event"
    },
    {
      "anonymous": false,
      "inputs": [
        {
          "indexed": true,
          "internalType": "address",
          "name": "caller",
          "type": "address"
        },
        {
          "indexed": true,
          "internalType": "uint256",
          "name": "nftTokenID",
          "type": "uint256"
        },
        {
          "indexed": false,
          "internalType": "uint256",
          "name": "amount0",
          "type": "uint256"
        },
        {
          "indexed": false,
          "internalType": "uint256",
          "name": "amount1",
          "type": "uint256"
        }
      ],
      "name": "RewardsClaimed",
      "type": "event"
    },
    {
      "anonymous": false,
      "inputs": [
        {
          "indexed": true,
          "internalType": "address",
          "name": "account",
          "type": "address"
        },
        {
          "indexed": true,
          "internalType": "bool",
          "name": "isKickback",
          "type": "bool"
        },
        {
          "indexed": false,
          "internalType": "uint256",
          "name": "tcpRewards",
          "type": "uint256"
        }
      ],
      "name": "RewardsDistributed",
      "type": "event"
    },
    {
      "anonymous": false,
      "inputs": [],
      "name": "Stopped",
      "type": "event"
    },
    {
      "anonymous": false,
      "inputs": [
        {
          "indexed": false,
          "internalType": "uint64",
          "name": "duration",
          "type": "uint64"
        }
      ],
      "name": "TwapDurationUpdated",
      "type": "event"
    },
    {
      "inputs": [],
      "name": "accounting",
      "outputs": [
        {
          "internalType": "contract IAccounting",
          "name": "",
          "type": "address"
        }
      ],
      "stateMutability": "view",
      "type": "function"
    },
    {
      "inputs": [],
      "name": "accrueRewards",
      "outputs": [],
      "stateMutability": "nonpayable",
      "type": "function"
    },
    {
      "inputs": [
        {
          "internalType": "contract IUniswapV3Pool",
          "name": "pool",
          "type": "address"
        },
        {
          "internalType": "uint64",
          "name": "rewardsPortion",
          "type": "uint64"
        }
      ],
      "name": "addIncentivePool",
      "outputs": [],
      "stateMutability": "nonpayable",
      "type": "function"
    },
    {
      "inputs": [
        {
          "components": [
            {
              "internalType": "address",
              "name": "owner",
              "type": "address"
            },
            {
              "internalType": "uint16",
              "name": "poolID",
              "type": "uint16"
            },
            {
              "internalType": "uint256",
              "name": "cumulativeLiquidity",
              "type": "uint256"
            },
            {
              "internalType": "uint256",
              "name": "totalRewards",
              "type": "uint256"
            },
            {
              "internalType": "uint256",
              "name": "lastBlockPositionIncreased",
              "type": "uint256"
            },
            {
              "internalType": "uint128",
              "name": "liquidity",
              "type": "uint128"
            },
            {
              "internalType": "uint64",
              "name": "lastTimeRewarded",
              "type": "uint64"
            },
            {
              "internalType": "int24",
              "name": "tickLower",
              "type": "int24"
            },
            {
              "internalType": "int24",
              "name": "tickUpper",
              "type": "int24"
            },
            {
              "internalType": "uint32",
              "name": "ui",
              "type": "uint32"
            },
            {
              "internalType": "address",
              "name": "kickbackDestination",
              "type": "address"
            },
            {
              "internalType": "uint64",
              "name": "kickbackPortion",
              "type": "uint64"
            }
          ],
          "internalType": "struct IAccounting.PoolPosition",
          "name": "_pt",
          "type": "tuple"
        },
        {
          "components": [
            {
              "internalType": "uint256",
              "name": "totalRewards",
              "type": "uint256"
            },
            {
              "internalType": "uint256",
              "name": "cumulativeLiquidity",
              "type": "uint256"
            }
          ],
          "internalType": "struct IAccounting.RewardStatus",
          "name": "rs",
          "type": "tuple"
        },
        {
          "internalType": "uint64",
          "name": "timeNow",
          "type": "uint64"
        }
      ],
      "name": "calculateUpdatedLiquidityPosition",
      "outputs": [
        {
          "components": [
            {
              "internalType": "address",
              "name": "owner",
              "type": "address"
            },
            {
              "internalType": "uint16",
              "name": "poolID",
              "type": "uint16"
            },
            {
              "internalType": "uint256",
              "name": "cumulativeLiquidity",
              "type": "uint256"
            },
            {
              "internalType": "uint256",
              "name": "totalRewards",
              "type": "uint256"
            },
            {
              "internalType": "uint256",
              "name": "lastBlockPositionIncreased",
              "type": "uint256"
            },
            {
              "internalType": "uint128",
              "name": "liquidity",
              "type": "uint128"
            },
            {
              "internalType": "uint64",
              "name": "lastTimeRewarded",
              "type": "uint64"
            },
            {
              "internalType": "int24",
              "name": "tickLower",
              "type": "int24"
            },
            {
              "internalType": "int24",
              "name": "tickUpper",
              "type": "int24"
            },
            {
              "internalType": "uint32",
              "name": "ui",
              "type": "uint32"
            },
            {
              "internalType": "address",
              "name": "kickbackDestination",
              "type": "address"
            },
            {
              "internalType": "uint64",
              "name": "kickbackPortion",
              "type": "uint64"
            }
          ],
          "internalType": "struct IAccounting.PoolPosition",
          "name": "pt",
          "type": "tuple"
        },
        {
          "internalType": "uint256",
          "name": "rewards",
          "type": "uint256"
        }
      ],
      "stateMutability": "pure",
      "type": "function"
    },
    {
      "inputs": [
        {
          "internalType": "uint256",
          "name": "nftTokenID",
          "type": "uint256"
        },
        {
          "internalType": "uint32",
          "name": "ui",
          "type": "uint32"
        }
      ],
      "name": "claimRewards",
      "outputs": [
        {
          "internalType": "uint256",
          "name": "amount0",
          "type": "uint256"
        },
        {
          "internalType": "uint256",
          "name": "amount1",
          "type": "uint256"
        }
      ],
      "stateMutability": "nonpayable",
      "type": "function"
    },
    {
      "inputs": [],
      "name": "countPools",
      "outputs": [
        {
          "internalType": "uint16",
          "name": "",
          "type": "uint16"
        }
      ],
      "stateMutability": "view",
      "type": "function"
    },
    {
      "inputs": [
        {
          "components": [
            {
              "internalType": "address",
              "name": "token0",
              "type": "address"
            },
            {
              "internalType": "address",
              "name": "token1",
              "type": "address"
            },
            {
              "internalType": "uint24",
              "name": "fee",
              "type": "uint24"
            },
            {
              "internalType": "int24",
              "name": "tickLower",
              "type": "int24"
            },
            {
              "internalType": "int24",
              "name": "tickUpper",
              "type": "int24"
            },
            {
              "internalType": "uint256",
              "name": "amount0Desired",
              "type": "uint256"
            },
            {
              "internalType": "uint256",
              "name": "amount1Desired",
              "type": "uint256"
            },
            {
              "internalType": "uint256",
              "name": "amount0Min",
              "type": "uint256"
            },
            {
              "internalType": "uint256",
              "name": "amount1Min",
              "type": "uint256"
            },
            {
              "internalType": "address",
              "name": "recipient",
              "type": "address"
            },
            {
              "internalType": "uint256",
              "name": "deadline",
              "type": "uint256"
            }
          ],
          "internalType": "struct INonfungiblePositionManager.MintParams",
          "name": "params",
          "type": "tuple"
        },
        {
          "internalType": "uint32",
          "name": "ui",
          "type": "uint32"
        }
      ],
      "name": "createLiquidityPosition",
      "outputs": [
        {
          "internalType": "uint256",
          "name": "nftTokenID",
          "type": "uint256"
        },
        {
          "internalType": "uint128",
          "name": "liquidity",
          "type": "uint128"
        }
      ],
      "stateMutability": "payable",
      "type": "function"
    },
    {
      "inputs": [],
      "name": "currentPeriod",
      "outputs": [
        {
          "internalType": "uint64",
          "name": "period",
          "type": "uint64"
        }
      ],
      "stateMutability": "view",
      "type": "function"
    },
    {
      "inputs": [
        {
          "components": [
            {
              "internalType": "uint256",
              "name": "tokenId",
              "type": "uint256"
            },
            {
              "internalType": "uint128",
              "name": "liquidity",
              "type": "uint128"
            },
            {
              "internalType": "uint256",
              "name": "amount0Min",
              "type": "uint256"
            },
            {
              "internalType": "uint256",
              "name": "amount1Min",
              "type": "uint256"
            },
            {
              "internalType": "uint256",
              "name": "deadline",
              "type": "uint256"
            }
          ],
          "internalType": "struct INonfungiblePositionManager.DecreaseLiquidityParams",
          "name": "params",
          "type": "tuple"
        },
        {
          "internalType": "uint32",
          "name": "ui",
          "type": "uint32"
        }
      ],
      "name": "decreaseLiquidityPosition",
      "outputs": [
        {
          "internalType": "uint256",
          "name": "amount0",
          "type": "uint256"
        },
        {
          "internalType": "uint256",
          "name": "amount1",
          "type": "uint256"
        }
      ],
      "stateMutability": "nonpayable",
      "type": "function"
    },
    {
      "inputs": [],
      "name": "deployer",
      "outputs": [
        {
          "internalType": "address",
          "name": "",
          "type": "address"
        }
      ],
      "stateMutability": "view",
      "type": "function"
    },
    {
      "inputs": [],
      "name": "firstPeriod",
      "outputs": [
        {
          "internalType": "uint64",
          "name": "",
          "type": "uint64"
        }
      ],
      "stateMutability": "view",
      "type": "function"
    },
    {
      "inputs": [],
      "name": "governor",
      "outputs": [
        {
          "internalType": "contract IGovernor",
          "name": "",
          "type": "address"
        }
      ],
      "stateMutability": "view",
      "type": "function"
    },
    {
      "inputs": [
        {
          "components": [
            {
              "internalType": "uint256",
              "name": "tokenId",
              "type": "uint256"
            },
            {
              "internalType": "uint256",
              "name": "amount0Desired",
              "type": "uint256"
            },
            {
              "internalType": "uint256",
              "name": "amount1Desired",
              "type": "uint256"
            },
            {
              "internalType": "uint256",
              "name": "amount0Min",
              "type": "uint256"
            },
            {
              "internalType": "uint256",
              "name": "amount1Min",
              "type": "uint256"
            },
            {
              "internalType": "uint256",
              "name": "deadline",
              "type": "uint256"
            }
          ],
          "internalType": "struct INonfungiblePositionManager.IncreaseLiquidityParams",
          "name": "params",
          "type": "tuple"
        },
        {
          "internalType": "uint32",
          "name": "ui",
          "type": "uint32"
        }
      ],
      "name": "increaseLiquidityPosition",
      "outputs": [
        {
          "internalType": "uint128",
          "name": "liquidity",
          "type": "uint128"
        }
      ],
      "stateMutability": "payable",
      "type": "function"
    },
    {
      "inputs": [
        {
          "internalType": "contract IUniswapV3Pool",
          "name": "_collateralPool",
          "type": "address"
        },
        {
          "internalType": "contract IUniswapV3Pool",
          "name": "_protocolPool",
          "type": "address"
        }
      ],
      "name": "init",
      "outputs": [],
      "stateMutability": "nonpayable",
      "type": "function"
    },
    {
      "inputs": [
        {
          "components": [
            {
              "internalType": "address",
              "name": "owner",
              "type": "address"
            },
            {
              "internalType": "uint16",
              "name": "poolID",
              "type": "uint16"
            },
            {
              "internalType": "uint256",
              "name": "cumulativeLiquidity",
              "type": "uint256"
            },
            {
              "internalType": "uint256",
              "name": "totalRewards",
              "type": "uint256"
            },
            {
              "internalType": "uint256",
              "name": "lastBlockPositionIncreased",
              "type": "uint256"
            },
            {
              "internalType": "uint128",
              "name": "liquidity",
              "type": "uint128"
            },
            {
              "internalType": "uint64",
              "name": "lastTimeRewarded",
              "type": "uint64"
            },
            {
              "internalType": "int24",
              "name": "tickLower",
              "type": "int24"
            },
            {
              "internalType": "int24",
              "name": "tickUpper",
              "type": "int24"
            },
            {
              "internalType": "uint32",
              "name": "ui",
              "type": "uint32"
            },
            {
              "internalType": "address",
              "name": "kickbackDestination",
              "type": "address"
            },
            {
              "internalType": "uint64",
              "name": "kickbackPortion",
              "type": "uint64"
            }
          ],
          "internalType": "struct IAccounting.PoolPosition",
          "name": "position",
          "type": "tuple"
        },
        {
          "internalType": "int24",
          "name": "tick",
          "type": "int24"
        }
      ],
      "name": "isLiquidityInRange",
      "outputs": [
        {
          "internalType": "bool",
          "name": "",
          "type": "bool"
        }
      ],
      "stateMutability": "pure",
      "type": "function"
    },
    {
      "inputs": [],
      "name": "lastPeriodGlobalRewardsAccrued",
      "outputs": [
        {
          "internalType": "uint64",
          "name": "",
          "type": "uint64"
        }
      ],
      "stateMutability": "view",
      "type": "function"
    },
    {
      "inputs": [
        {
          "internalType": "contract IUniswapV3Pool",
          "name": "pool",
          "type": "address"
        },
        {
          "internalType": "uint256[]",
          "name": "nftTokenIDs",
          "type": "uint256[]"
        }
      ],
      "name": "liquidateOutofRangePositions",
      "outputs": [],
      "stateMutability": "nonpayable",
      "type": "function"
    },
    {
      "inputs": [],
      "name": "liquidationPenalty",
      "outputs": [
        {
          "internalType": "uint64",
          "name": "",
          "type": "uint64"
        }
      ],
      "stateMutability": "view",
      "type": "function"
    },
    {
      "inputs": [],
      "name": "maxCollateralLiquidityDecreasePerPeriod",
      "outputs": [
        {
          "internalType": "uint64",
          "name": "",
          "type": "uint64"
        }
      ],
      "stateMutability": "view",
      "type": "function"
    },
    {
      "inputs": [
        {
          "internalType": "contract IUniswapV3Pool",
          "name": "",
          "type": "address"
        }
      ],
      "name": "minCollateralLiquidityByPeriod",
      "outputs": [
        {
          "internalType": "uint64",
          "name": "period",
          "type": "uint64"
        },
        {
          "internalType": "uint192",
          "name": "minLiquidity",
          "type": "uint192"
        }
      ],
      "stateMutability": "view",
      "type": "function"
    },
    {
      "inputs": [],
      "name": "minHueCountPerPosition",
      "outputs": [
        {
          "internalType": "uint128",
          "name": "",
          "type": "uint128"
        }
      ],
      "stateMutability": "view",
      "type": "function"
    },
    {
      "inputs": [],
      "name": "nftPositionManager",
      "outputs": [
        {
          "internalType": "contract INonfungiblePositionManager",
          "name": "",
          "type": "address"
        }
      ],
      "stateMutability": "view",
      "type": "function"
    },
    {
      "inputs": [],
      "name": "periodLength",
      "outputs": [
        {
          "internalType": "uint64",
          "name": "",
          "type": "uint64"
        }
      ],
      "stateMutability": "view",
      "type": "function"
    },
    {
      "inputs": [
        {
          "internalType": "uint16",
          "name": "",
          "type": "uint16"
        }
      ],
      "name": "poolConfigForPoolID",
      "outputs": [
        {
          "internalType": "contract IUniswapV3Pool",
          "name": "pool",
          "type": "address"
        },
        {
          "internalType": "uint64",
          "name": "rewardsPortion",
          "type": "uint64"
        }
      ],
      "stateMutability": "view",
      "type": "function"
    },
    {
      "inputs": [
        {
          "internalType": "contract IUniswapV3Pool",
          "name": "",
          "type": "address"
        }
      ],
      "name": "poolIDForPool",
      "outputs": [
        {
          "internalType": "uint16",
          "name": "",
          "type": "uint16"
        }
      ],
      "stateMutability": "view",
      "type": "function"
    },
    {
      "inputs": [
        {
          "internalType": "uint256",
          "name": "nftTokenID",
          "type": "uint256"
        }
      ],
      "name": "removeKickback",
      "outputs": [],
      "stateMutability": "nonpayable",
      "type": "function"
    },
    {
      "inputs": [
        {
          "components": [
            {
              "internalType": "uint256",
              "name": "tokenId",
              "type": "uint256"
            },
            {
              "internalType": "uint128",
              "name": "liquidity",
              "type": "uint128"
            },
            {
              "internalType": "uint256",
              "name": "amount0Min",
              "type": "uint256"
            },
            {
              "internalType": "uint256",
              "name": "amount1Min",
              "type": "uint256"
            },
            {
              "internalType": "uint256",
              "name": "deadline",
              "type": "uint256"
            }
          ],
          "internalType": "struct INonfungiblePositionManager.DecreaseLiquidityParams",
          "name": "params",
          "type": "tuple"
        }
      ],
      "name": "removeLiquidityPosition",
      "outputs": [
        {
          "internalType": "uint256",
          "name": "amount0",
          "type": "uint256"
        },
        {
          "internalType": "uint256",
          "name": "amount1",
          "type": "uint256"
        }
      ],
      "stateMutability": "nonpayable",
      "type": "function"
    },
    {
      "inputs": [
        {
          "internalType": "bool",
          "name": "authorized",
          "type": "bool"
        }
      ],
      "name": "requireAuthorized",
      "outputs": [],
      "stateMutability": "pure",
      "type": "function"
    },
    {
      "inputs": [
        {
          "internalType": "uint64",
          "name": "penalty",
          "type": "uint64"
        }
      ],
      "name": "setLiquidationPenalty",
      "outputs": [],
      "stateMutability": "nonpayable",
      "type": "function"
    },
    {
      "inputs": [
        {
          "internalType": "uint64",
          "name": "decreasePortion",
          "type": "uint64"
        }
      ],
      "name": "setMaxCollateralLiquidityDecreasePerPeriod",
      "outputs": [],
      "stateMutability": "nonpayable",
      "type": "function"
    },
    {
      "inputs": [
        {
          "internalType": "uint128",
          "name": "min",
          "type": "uint128"
        }
      ],
      "name": "setMinHueCountPerPosition",
      "outputs": [],
      "stateMutability": "nonpayable",
      "type": "function"
    },
    {
      "inputs": [
        {
          "internalType": "uint32",
          "name": "duration",
          "type": "uint32"
        }
      ],
      "name": "setTwapDuration",
      "outputs": [],
      "stateMutability": "nonpayable",
      "type": "function"
    },
    {
      "inputs": [],
      "name": "stop",
      "outputs": [],
      "stateMutability": "nonpayable",
      "type": "function"
    },
    {
      "inputs": [],
      "name": "stopped",
      "outputs": [
        {
          "internalType": "bool",
          "name": "",
          "type": "bool"
        }
      ],
      "stateMutability": "view",
      "type": "function"
    },
    {
      "inputs": [],
      "name": "twapDuration",
      "outputs": [
        {
          "internalType": "uint32",
          "name": "",
          "type": "uint32"
        }
      ],
      "stateMutability": "view",
      "type": "function"
    },
    {
      "inputs": [],
      "name": "uniswapV3Factory",
      "outputs": [
        {
          "internalType": "contract IUniswapV3Factory",
          "name": "",
          "type": "address"
        }
      ],
      "stateMutability": "view",
      "type": "function"
    },
    {
      "inputs": [
        {
          "internalType": "uint16",
          "name": "poolID",
          "type": "uint16"
        },
        {
          "internalType": "uint64",
          "name": "incentive",
          "type": "uint64"
        }
      ],
      "name": "updatePoolIncentive",
      "outputs": [],
      "stateMutability": "nonpayable",
      "type": "function"
    },
    {
      "inputs": [
        {
          "internalType": "bytes4",
          "name": "",
          "type": "bytes4"
        }
      ],
      "name": "validUpdate",
      "outputs": [
        {
          "internalType": "bool",
          "name": "",
          "type": "bool"
        }
      ],
      "stateMutability": "view",
      "type": "function"
    },
    {
      "inputs": [],
      "name": "weth",
      "outputs": [
        {
          "internalType": "address",
          "name": "",
          "type": "address"
        }
      ],
      "stateMutability": "view",
      "type": "function"
    },
    {
      "stateMutability": "payable",
      "type": "receive"
    }
  ],
  "bytecode": "0x6101806040526001600260005090905567016345785d8a0000600360006101000a81548167ffffffffffffffff021916908367ffffffffffffffff16021790555066d529ae9e860000600360086101000a81548167ffffffffffffffff021916908367ffffffffffffffff160217905550686c6b935b8bbd400000600360106101000a8154816fffffffffffffffffffffffffffffffff02191690836fffffffffffffffffffffffffffffffff160217905550610708600460006101000a81548163ffffffff021916908363ffffffff1602179055506000600460046101000a81548161ffff021916908361ffff160217905550348015620001015760006000fd5b50604051620081a9380380620081a98339818101604052810190620001279190620006bb565b5b805b6138405b816000015182602001515b815b8073ffffffffffffffffffffffffffffffffffffffff1660808173ffffffffffffffffffffffffffffffffffffffff1660601b815260140150505b508073ffffffffffffffffffffffffffffffffffffffff1660a08173ffffffffffffffffffffffffffffffffffffffff1660601b815260140150505b505060018167ffffffffffffffff16620001d1620005e960201b60201c565b67ffffffffffffffff16811515620001e557fe5b040367ffffffffffffffff1660e08167ffffffffffffffff1660c01b815260080150508067ffffffffffffffff1660c08167ffffffffffffffff1660c01b815260080150505b50806040015173ffffffffffffffffffffffffffffffffffffffff166101608173ffffffffffffffffffffffffffffffffffffffff1660601b81526014015050806060015173ffffffffffffffffffffffffffffffffffffffff166101008173ffffffffffffffffffffffffffffffffffffffff1660601b81526014015050806080015173ffffffffffffffffffffffffffffffffffffffff166101208173ffffffffffffffffffffffffffffffffffffffff1660601b815260140150508060a0015173ffffffffffffffffffffffffffffffffffffffff166101408173ffffffffffffffffffffffffffffffffffffffff1660601b8152601401505060006040518060c00160405280636161189060e01b7bffffffffffffffffffffffffffffffffffffffffffffffffffffffff19167bffffffffffffffffffffffffffffffffffffffffffffffffffffffff191681526020016328d10de860e01b7bffffffffffffffffffffffffffffffffffffffffffffffffffffffff19167bffffffffffffffffffffffffffffffffffffffffffffffffffffffff1916815260200163c7bd867c60e01b7bffffffffffffffffffffffffffffffffffffffffffffffffffffffff19167bffffffffffffffffffffffffffffffffffffffffffffffffffffffff1916815260200163de8925f560e01b7bffffffffffffffffffffffffffffffffffffffffffffffffffffffff19167bffffffffffffffffffffffffffffffffffffffffffffffffffffffff1916815260200163c433c80a60e01b7bffffffffffffffffffffffffffffffffffffffffffffffffffffffff19167bffffffffffffffffffffffffffffffffffffffffffffffffffffffff19168152602001630907653160e01b7bffffffffffffffffffffffffffffffffffffffffffffffffffffffff19167bffffffffffffffffffffffffffffffffffffffffffffffffffffffff191681526020015090506000600090505b815060068110156200059c5760016001600050600084846006811015156200052557fe5b60200201517bffffffffffffffffffffffffffffffffffffffffffffffffffffffff19167bffffffffffffffffffffffffffffffffffffffffffffffffffffffff1916815260200190815260200160002060006101000a81548160ff0219169083151502179055505b808060010191505062000501565b5033600860086101000a81548173ffffffffffffffffffffffffffffffffffffffff021916908373ffffffffffffffffffffffffffffffffffffffff160217905550505b505b5062000790565b600062000603426200060b60201b62001f4917909060201c565b905080505b90565b6000680100000000000000008210151562000691576040517f08c379a00000000000000000000000000000000000000000000000000000000081526004018080602001828103825260118152602001807f6d6f7265207468616e203634206269747300000000000000000000000000000081526020015060200191505060405180910390fd5b8190506200069a565b919050566200078f565b600081519050620006b58162000772565b5b919050565b600060c08284031215620006cd578081fd5b60405160c081018181106001600160401b0382111715620006ea57fe5b80604052508251620006fc8162000772565b808252506020830151620007108162000772565b806020830152506040830151620007278162000772565b806040830152506200073c60608401620006a4565b60608201526200074f60808401620006a4565b60808201526200076260a08401620006a4565b60a0820152809150505b92915050565b6001600160a01b038116811415156200078b5760006000fd5b5b50565b5b60805160601c60a05160601c60c05160c01c60e05160c01c6101005160601c6101205160601c6101405160601c6101605160601c6178a46200090560003980610b9152806114a352806118155280611a1e52806124c85280612cf65280613061528061346c528061359e5280613a375280613b2d52806143ae52806144ca52806145b95280614bf45280614ca15280614d16528061541752508061116b52806116855250806102ac52806119e7528061285d52806129945280612b4c5280612d8352806134c8528061379a528061388052806148b6528061494a5280614f5f52806155cd525080610301528061154752806148625280614e415280614ea1528061597e52806159d2525080611adf5280612eaa5280614756525080611bde5280612ecb5280614777525080611fdd5280612e23525080610f6952806120fe5280612290528061265452806127585280612f24528061325b5280613ca652806142ba5280614668528061515852506178a46000f3fe6080604052600436106102a45760003560e01c8063616118901161016e578063c433c80a116100cb578063de8925f51161007f578063f4d8977f11610064578063f4d8977f146109e3578063fbc3a64314610a22578063fbff7efd14610a4e5761035e565b8063de8925f51461098f578063f09a4016146109b95761035e565b8063c7bd867c116100b0578063c7bd867c1461090d578063d2ca211514610937578063d5f39488146109635761035e565b8063c433c80a146108b7578063c4e3a63b146108e15761035e565b806381cc8807116101225780638efaed89116101075780638efaed89146108355780639624e83e1461085f578063bdd266cd1461088b5761035e565b806381cc8807146107ca57806384397888146108095761035e565b80636fcdfed6116101535780636fcdfed61461073357806375f12b211461075f5780637af36e3f1461078b5761035e565b806361611890146106ca57806361928ecf146106f45761035e565b806323f5589a1161021c5780633fc8cef3116101d05780634b829573116101b55780634b8295731461063057806350b404001461066e5780635b5491821461069e5761035e565b80633fc8cef3146105c65780634b257c24146105f25761035e565b806326d895451161020157806326d895451461054657806328d10de8146105725780633e9483721461059c5761035e565b806323f5589a146104e9578063265e8a64146105155761035e565b80630c340a2411610273578063113cf1ab11610258578063113cf1ab1461045457806315398ae7146104925780631afdbce4146104d15761035e565b80630c340a24146103fc5780630dae9f52146104285761035e565b8063039d10e814610364578063060406181461038e57806307da68f5146103ba57806309076531146103d25761035e565b3661035e575b7f000000000000000000000000000000000000000000000000000000000000000073ffffffffffffffffffffffffffffffffffffffff163373ffffffffffffffffffffffffffffffffffffffff16148061034f57507f000000000000000000000000000000000000000000000000000000000000000073ffffffffffffffffffffffffffffffffffffffff163373ffffffffffffffffffffffffffffffffffffffff16145b151561035b5760006000fd5b5b005b60006000fd5b3480156103715760006000fd5b5061038c600480360381019061038791906164ff565b610a8d565b005b34801561039b5760006000fd5b506103a4610e9b565b6040516103b1919061770b565b60405180910390f35b3480156103c75760006000fd5b506103d0610eb3565b005b3480156103df5760006000fd5b506103fa60048036038101906103f59190616bca565b610ed3565b005b3480156104095760006000fd5b50610412610f67565b60405161041f9190616faf565b60405180910390f35b3480156104355760006000fd5b5061043e610f8b565b60405161044b919061770b565b60405180910390f35b3480156104615760006000fd5b5061047c60048036038101906104779190616464565b610fa5565b6040516104899190616f73565b60405180910390f35b34801561049f5760006000fd5b506104ba60048036038101906104b59190616666565b610fca565b6040516104c892919061769f565b60405180910390f35b3480156104de5760006000fd5b506104e76110e9565b005b3480156104f65760006000fd5b506104ff611126565b60405161050c919061770b565b60405180910390f35b61052f600480360381019061052a919061671a565b611140565b60405161053d929190617674565b60405180910390f35b3480156105535760006000fd5b5061055c611335565b60405161056991906176db565b60405180910390f35b34801561057f5760006000fd5b5061059a60048036038101906105959190616a93565b61134b565b005b3480156105a95760006000fd5b506105c460048036038101906105bf9190616acf565b611455565b005b3480156105d35760006000fd5b506105dc611545565b6040516105e99190616e4c565b60405180910390f35b3480156105ff5760006000fd5b5061061a600480360381019061061591906168dd565b611569565b6040516106279190616f73565b60405180910390f35b34801561063d5760006000fd5b50610658600480360381019061065391906164d8565b611588565b60405161066591906175fc565b60405180910390f35b610688600480360381019061068391906166db565b6115ae565b60405161069591906175d8565b60405180910390f35b3480156106ab5760006000fd5b506106b4611683565b6040516106c19190616fff565b60405180910390f35b3480156106d75760006000fd5b506106f260048036038101906106ed91906165c4565b6116a7565b005b3480156107015760006000fd5b5061071c60048036038101906107179190616b72565b6117c4565b60405161072a92919061769f565b60405180910390f35b3480156107405760006000fd5b50610749611933565b60405161075691906175fc565b60405180910390f35b34801561076c5760006000fd5b50610775611947565b6040516107829190616f73565b60405180910390f35b3480156107985760006000fd5b506107b360048036038101906107ae9190616918565b61195a565b6040516107c19291906175b6565b60405180910390f35b3480156107d75760006000fd5b506107f260048036038101906107ed91906164d8565b611986565b604051610800929190617727565b60405180910390f35b3480156108165760006000fd5b5061081f6119e5565b60405161082c9190616fd7565b60405180910390f35b3480156108425760006000fd5b5061085d60048036038101906108589190616416565b611a09565b005b34801561086c5760006000fd5b50610875611a1c565b6040516108829190616f87565b60405180910390f35b3480156108985760006000fd5b506108a1611a40565b6040516108ae919061770b565b60405180910390f35b3480156108c45760006000fd5b506108df60048036038101906108da9190616ba3565b611a5a565b005b3480156108ee5760006000fd5b506108f7611add565b604051610904919061770b565b60405180910390f35b34801561091a5760006000fd5b5061093560048036038101906109309190616bca565b611b01565b005b3480156109445760006000fd5b5061094d611bdc565b60405161095a919061770b565b60405180910390f35b3480156109705760006000fd5b50610979611c00565b6040516109869190616e4c565b60405180910390f35b34801561099c5760006000fd5b506109b760048036038101906109b29190616a0b565b611c26565b005b3480156109c65760006000fd5b506109e160048036038101906109dc9190616588565b611ca9565b005b3480156109f05760006000fd5b50610a0b6004803603810190610a069190616627565b611da3565b604051610a1992919061769f565b60405180910390f35b348015610a2f5760006000fd5b50610a38611ecc565b604051610a4591906175d8565b60405180910390f35b348015610a5b5760006000fd5b50610a766004803603810190610a719190616a6c565b611eee565b604051610a8492919061716b565b60405180910390f35b610a9b611fdb63ffffffff16565b610aa96120ee63ffffffff16565b6000600660005060008573ffffffffffffffffffffffffffffffffffffffff1673ffffffffffffffffffffffffffffffffffffffff16815260200190815260200160002060009054906101000a900461ffff169050610b0d8161221b63ffffffff16565b610b156160ba565b6000848490509050600043905060006040518060400160405280600115158152602001610b478a61228c63ffffffff16565b60020b8152602001509050610b5a616180565b610b686123d863ffffffff16565b67ffffffffffffffff1681608001909081815260200150506000600090505b84811015610e7e577f000000000000000000000000000000000000000000000000000000000000000073ffffffffffffffffffffffffffffffffffffffff1663f34348f18a8a848181101515610bd957fe5b905060200201356040518263ffffffff1660e01b8152600401610bfc9190617612565b6101806040518083038186803b158015610c165760006000fd5b505afa158015610c2b573d600060003e3d6000fd5b505050506040513d601f19601f82011682018060405250810190610c4f91906167fb565b955085508661ffff16866020015161ffff16141515610c6d57610e71565b610c818684602001516123f363ffffffff16565b15610c8b57610e71565b838660800151101515610c9d57610e71565b610cac8661242663ffffffff16565b955085508888828181101515610cbe57fe5b905060200201358260000190908181526020015050610cef826000015160006000896000015161285763ffffffff16565b5050610d4a610d3d600360089054906101000a900467ffffffffffffffff1667ffffffffffffffff168860a001516fffffffffffffffffffffffffffffffff16612a8690919063ffffffff16565b612aac909063ffffffff16565b82602001906fffffffffffffffffffffffffffffffff1690816fffffffffffffffffffffffffffffffff1681526020015050610d8c8233612b4663ffffffff16565b5050610dbb82602001518760a001516fffffffffffffffffffffffffffffffff16612c3190919063ffffffff16565b82602001906fffffffffffffffffffffffffffffffff1690816fffffffffffffffffffffffffffffffff1681526020015050610e01828760000151612b4663ffffffff16565b5050610e1882600001518785612cde63ffffffff16565b3373ffffffffffffffffffffffffffffffffffffffff168989838181101515610e3d57fe5b905060200201357f6ba13b7ae6048936f291047829a5de36835ad46b52453fff379900999074709260405160405180910390a35b8080600101915050610b87565b505050505050505b5b610e95612e1463ffffffff16565b5b505050565b6000610eab612ea663ffffffff16565b905080505b90565b610ec1612f1f63ffffffff16565b610ecf612f7f63ffffffff16565b5b5b565b610ee1612f1f63ffffffff16565b6706f05b59d3b200008167ffffffffffffffff16101515610f025760006000fd5b80600360086101000a81548167ffffffffffffffff021916908367ffffffffffffffff1602179055507f78244e8e46597270e2f0ae9c6baded3ba10f1b3f03316f89e49bbfeb1c06786881604051610f5a919061770b565b60405180910390a15b5b50565b7f000000000000000000000000000000000000000000000000000000000000000081565b600860009054906101000a900467ffffffffffffffff1681565b600160005060205280600052604060002060009150909054906101000a900460ff1681565b60006000610fdc611fdb63ffffffff16565b610fea612fc963ffffffff16565b6000610fff846000015161305463ffffffff16565b9050611014816080015161316863ffffffff16565b8060a0015184602001906fffffffffffffffffffffffffffffffff1690816fffffffffffffffffffffffffffffffff168152602001505061105f848260000151612b4663ffffffff16565b809350819450505061108984600001518261107e6131b063ffffffff16565b612cde63ffffffff16565b83600001517f1bd2c24817047e88025a4688c0fba3903e750cc05d80857de4201f42ec59bcf284846040516110bf92919061769f565b60405180910390a2828292509250506110d456505b5b6110e3612e1463ffffffff16565b5b915091565b6110f7611fdb63ffffffff16565b611105612fc963ffffffff16565b6111136131bc63ffffffff16565b5b5b611123612e1463ffffffff16565b5b565b600360089054906101000a900467ffffffffffffffff1681565b60006000611152611fdb63ffffffff16565b6111606120ee63ffffffff16565b6000600660005060007f000000000000000000000000000000000000000000000000000000000000000073ffffffffffffffffffffffffffffffffffffffff16631698ee82886000015189602001518a604001516040518463ffffffff1660e01b81526004016111d293929190616ecb565b60206040518083038186803b1580156111eb5760006000fd5b505afa158015611200573d600060003e3d6000fd5b505050506040513d601f19601f8201168201806040525081019061122491906163ef565b73ffffffffffffffffffffffffffffffffffffffff1673ffffffffffffffffffffffffffffffffffffffff16815260200190815260200160002060009054906101000a900461ffff16905061127e8161221b63ffffffff16565b61128d8561343663ffffffff16565b80935081945050506112b1838287606001518860800151868961359c63ffffffff16565b828161ffff163373ffffffffffffffffffffffffffffffffffffffff167f87c666eb8f5e2d1a47a2af419127c84ea830d86b5f75e12ca3dafa33323d91228860600151896080015187604051611309939291906171a4565b60405180910390a48282925092505061131e56505b5b61132d612e1463ffffffff16565b5b9250929050565b600460009054906101000a900463ffffffff1681565b611359612f1f63ffffffff16565b6113688261221b63ffffffff16565b6113766131bc63ffffffff16565b80600560005060008461ffff1661ffff16815260200190815260200160002060005060000160146101000a81548167ffffffffffffffff021916908367ffffffffffffffff16021790555060006113d16136f563ffffffff16565b111515611413576040517f08c379a000000000000000000000000000000000000000000000000000000000815260040161140a90617299565b60405180910390fd5b8161ffff167fcf476913af040a8c0a50588902fc980c73de756444694afb625e05906334404f82604051611447919061770b565b60405180910390a25b5b5050565b611463611fdb63ffffffff16565b6114716120ee63ffffffff16565b60006114828261305463ffffffff16565b9050600081610120019063ffffffff16908163ffffffff16815260200150507f000000000000000000000000000000000000000000000000000000000000000073ffffffffffffffffffffffffffffffffffffffff1663816aaa2583836040518363ffffffff1660e01b81526004016114fc929190617653565b600060405180830381600087803b1580156115175760006000fd5b505af115801561152c573d600060003e3d6000fd5b50505050505b5b611541612e1463ffffffff16565b5b50565b7f000000000000000000000000000000000000000000000000000000000000000081565b600061157b83836123f363ffffffff16565b9050611582565b92915050565b600660005060205280600052604060002060009150909054906101000a900461ffff1681565b60006115be611fdb63ffffffff16565b6115cc6120ee63ffffffff16565b60006115e1846000013561305463ffffffff16565b90508281610120019063ffffffff16908163ffffffff168152602001505061160e8461379263ffffffff16565b915081506116278185600001358461394a63ffffffff16565b83600001357fcc5b49b47bfd2f61894e4c8977343543aa054a11ae847be904355459ce55dcd98360405161165b91906175d8565b60405180910390a28191505061166d56505b5b61167c612e1463ffffffff16565b5b92915050565b7f000000000000000000000000000000000000000000000000000000000000000081565b6116b5612f1f63ffffffff16565b6000600660005060008473ffffffffffffffffffffffffffffffffffffffff1673ffffffffffffffffffffffffffffffffffffffff16815260200190815260200160002060009054906101000a900461ffff1661ffff1614151561174e576040517f08c379a000000000000000000000000000000000000000000000000000000000815260040161174590617317565b60405180910390fd5b61175c6131bc63ffffffff16565b61176c8282613bc263ffffffff16565b61ffff168273ffffffffffffffffffffffffffffffffffffffff167fb42c51dce17f5346a481b9dd503edc20c8b6de38b22e12b35a5c77c131fb38ac836040516117b6919061770b565b60405180910390a35b5b5050565b600060006117d6611fdb63ffffffff16565b6117e4612fc963ffffffff16565b60006117f58561305463ffffffff16565b90508381610120019063ffffffff16908163ffffffff16815260200150507f000000000000000000000000000000000000000000000000000000000000000073ffffffffffffffffffffffffffffffffffffffff1663816aaa2586836040518363ffffffff1660e01b815260040161186e929190617653565b600060405180830381600087803b1580156118895760006000fd5b505af115801561189e573d600060003e3d6000fd5b505050506118b685600060003361285763ffffffff16565b8093508194505050843373ffffffffffffffffffffffffffffffffffffffff167f56253d287efacdb2c4cd76dd03624a4821c1ce721d1152e8f5f5718f6087c9bf858560405161190792919061769f565b60405180910390a38282925092505061191c56505b5b61192b612e1463ffffffff16565b5b9250929050565b600460049054906101000a900461ffff1681565b600060009054906101000a900460ff1681565b6119626160ba565b600061197585858561402c63ffffffff16565b9150915061197e565b935093915050565b60076000506020528060005260406000206000915090508060000160009054906101000a900467ffffffffffffffff16908060000160089054906101000a900477ffffffffffffffffffffffffffffffffffffffffffffffff16905082565b7f000000000000000000000000000000000000000000000000000000000000000081565b611a188161416463ffffffff16565b5b50565b7f000000000000000000000000000000000000000000000000000000000000000081565b600360009054906101000a900467ffffffffffffffff1681565b611a68612f1f63ffffffff16565b61012c8163ffffffff1610151515611a805760006000fd5b80600460006101000a81548163ffffffff021916908363ffffffff1602179055507f811ba52920ff121eccd59ee98068330fc6736094b9a3fab10ada70fb0cd2f37081604051611ad091906176f3565b60405180910390a15b5b50565b7f000000000000000000000000000000000000000000000000000000000000000081565b611b0f612f1f63ffffffff16565b80600360006101000a81548167ffffffffffffffff021916908367ffffffffffffffff160217905550600360009054906101000a900467ffffffffffffffff1667ffffffffffffffff166000101515611b685760006000fd5b670de0b6b3a7640000600360009054906101000a900467ffffffffffffffff1667ffffffffffffffff1611151515611ba05760006000fd5b7f41785a43e8509555b296851de25b00003ca4ca1c572c807cb301d4a0fb9582d481604051611bcf919061770b565b60405180910390a15b5b50565b7f000000000000000000000000000000000000000000000000000000000000000081565b600860089054906101000a900473ffffffffffffffffffffffffffffffffffffffff1681565b611c34612f1f63ffffffff16565b80600360106101000a8154816fffffffffffffffffffffffffffffffff02191690836fffffffffffffffffffffffffffffffff1602179055507f755043e33e8e4c87253e98c56c011cc9905bf88318997b89b3520a54b3c5f17081604051611c9c91906175d8565b60405180910390a15b5b50565b611d08600860089054906101000a900473ffffffffffffffffffffffffffffffffffffffff1673ffffffffffffffffffffffffffffffffffffffff163373ffffffffffffffffffffffffffffffffffffffff161461416463ffffffff16565b600860086101000a81549073ffffffffffffffffffffffffffffffffffffffff0219169055600161ffff16611d4583610bb8613bc263ffffffff16565b61ffff16141515611d8b576040517f08c379a0000000000000000000000000000000000000000000000000000000008152600401611d82906173d4565b60405180910390fd5b611d9d816103e8613bc263ffffffff16565b505b5050565b60006000611db5611fdb63ffffffff16565b611dc36120ee63ffffffff16565b6000611dd8856000013561305463ffffffff16565b9050611ded816080015161316863ffffffff16565b8381610120019063ffffffff16908163ffffffff1681526020015050611e2d85803603810190611e1d9190616666565b8260000151612b4663ffffffff16565b8093508194505050611e6a818660000135876020016020810190611e519190616a0b565b611e5f6131b063ffffffff16565b6141e063ffffffff16565b84600001357ffafb1711250bf0d3906bfd9c4386a9a5a5fdf9ac1facdc9dfd2addad7d3f72e78484604051611ea092919061769f565b60405180910390a281829250925050611eb556505b5b611ec4612e1463ffffffff16565b5b9250929050565b600360109054906101000a90046fffffffffffffffffffffffffffffffff1681565b60056000506020528060005260406000206000915090508060000160009054906101000a900473ffffffffffffffffffffffffffffffffffffffff16908060000160149054906101000a900467ffffffffffffffff16905082565b60006801000000000000000082101515611fce576040517f08c379a00000000000000000000000000000000000000000000000000000000081526004018080602001828103825260118152602001807f6d6f7265207468616e203634206269747300000000000000000000000000000081526020015060200191505060405180910390fd5b819050611fd6565b919050565b7f000000000000000000000000000000000000000000000000000000000000000073ffffffffffffffffffffffffffffffffffffffff1663e97dcb626040518163ffffffff1660e01b8152600401600060405180830381600087803b1580156120445760006000fd5b505af1158015612059573d600060003e3d6000fd5b505050506002600260005054141515156120de576040517f08c379a000000000000000000000000000000000000000000000000000000000815260040180806020018281038252600d8152602001807f4c50205265656e7472616e63790000000000000000000000000000000000000081526020015060200191505060405180910390fd5b600260026000508190909055505b565b6120fc612fc963ffffffff16565b7f000000000000000000000000000000000000000000000000000000000000000073ffffffffffffffffffffffffffffffffffffffff1663bf86d6906040518163ffffffff1660e01b815260040160206040518083038186803b1580156121635760006000fd5b505afa158015612178573d600060003e3d6000fd5b505050506040513d602081101561218f5760006000fd5b8101908080519060200190929190505050151515612218576040517f08c379a00000000000000000000000000000000000000000000000000000000081526004018080602001828103825260118152602001807f50726f746f636f6c2073687574646f776e00000000000000000000000000000081526020015060200191505060405180910390fd5b5b565b8061ffff1660001080156122475750600460049054906101000a900461ffff1661ffff168161ffff1611155b1515612288576040517f08c379a000000000000000000000000000000000000000000000000000000000815260040161227f90617356565b60405180910390fd5b5b50565b60007f000000000000000000000000000000000000000000000000000000000000000073ffffffffffffffffffffffffffffffffffffffff1663d3419bf36040518163ffffffff1660e01b815260040160206040518083038186803b1580156122f55760006000fd5b505afa15801561230a573d600060003e3d6000fd5b505050506040513d601f19601f8201168201806040525081019061232e91906164b1565b73ffffffffffffffffffffffffffffffffffffffff1663fcebd71c83600460009054906101000a900463ffffffff166040518363ffffffff1660e01b815260040161237a929190617136565b60206040518083038186803b1580156123935760006000fd5b505afa1580156123a8573d600060003e3d6000fd5b505050506040513d601f19601f820116820180604052508101906123cc9190616600565b90506123d3565b919050565b60006123eb42611f49909063ffffffff16565b905080505b90565b60008160020b8360e0015160020b13158015612419575082610100015160020b8260020b125b9050612420565b92915050565b61242e6160ba565b600061243e61465063ffffffff16565b905060006124518261474f63ffffffff16565b905060008460c001519050600060008267ffffffffffffffff16146124845761247f8261474f63ffffffff16565b612487565b60005b90508067ffffffffffffffff168367ffffffffffffffff161115156124b25785945050505050612852565b6124c06131bc63ffffffff16565b60006125c5877f000000000000000000000000000000000000000000000000000000000000000073ffffffffffffffffffffffffffffffffffffffff16631cef92b1600560005060008c6020015161ffff1661ffff16815260200190815260200160002060005060000160009054906101000a900473ffffffffffffffffffffffffffffffffffffffff166040518263ffffffff1660e01b81526004016125679190617027565b60406040518083038186803b1580156125805760006000fd5b505afa158015612595573d600060003e3d6000fd5b505050506040513d601f19601f820116820180604052508101906125b991906169bf565b8761402c63ffffffff16565b8092508197505050600081111561284057600073ffffffffffffffffffffffffffffffffffffffff1686610140015173ffffffffffffffffffffffffffffffffffffffff16141580156126275750600086610160015167ffffffffffffffff16115b1561275657600061265087610160015167ffffffffffffffff1683612a8690919063ffffffff16565b90507f000000000000000000000000000000000000000000000000000000000000000073ffffffffffffffffffffffffffffffffffffffff16634d6729f5886101400151836040518363ffffffff1660e01b81526004016126b2929190616f0a565b600060405180830381600087803b1580156126cd5760006000fd5b505af11580156126e2573d600060003e3d6000fd5b505050506001151587610140015173ffffffffffffffffffffffffffffffffffffffff167f8079a05488a0f375c08504c3ba8b3a1371f5a192b7a141bc9294ef7ad41389d9836040516127359190617612565b60405180910390a361275081836147d790919063ffffffff16565b91508150505b7f000000000000000000000000000000000000000000000000000000000000000073ffffffffffffffffffffffffffffffffffffffff16634d6729f58760000151836040518363ffffffff1660e01b81526004016127b5929190616f0a565b600060405180830381600087803b1580156127d05760006000fd5b505af11580156127e5573d600060003e3d6000fd5b5050505060001515866000015173ffffffffffffffffffffffffffffffffffffffff167f8079a05488a0f375c08504c3ba8b3a1371f5a192b7a141bc9294ef7ad41389d9836040516128379190617612565b60405180910390a35b85955050505050506128525650505050505b919050565b600060007f000000000000000000000000000000000000000000000000000000000000000073ffffffffffffffffffffffffffffffffffffffff1663fc6f78656040518060800160405280898152602001600073ffffffffffffffffffffffffffffffffffffffff1681526020016fffffffffffffffffffffffffffffffff6fffffffffffffffffffffffffffffffff1681526020016fffffffffffffffffffffffffffffffff6fffffffffffffffffffffffffffffffff168152602001506040518263ffffffff1660e01b81526004016129329190617413565b604060405180830381600087803b15801561294d5760006000fd5b505af1158015612962573d600060003e3d6000fd5b505050506040513d601f19601f820116820180604052508101906129869190616b4c565b8092508193505050600060007f000000000000000000000000000000000000000000000000000000000000000073ffffffffffffffffffffffffffffffffffffffff166399fbab88896040518263ffffffff1660e01b81526004016129eb9190617612565b6101806040518083038186803b158015612a055760006000fd5b505afa158015612a1a573d600060003e3d6000fd5b505050506040513d601f19601f82011682018060405250810190612a3e9190616c18565b5050505050505050935093505050612a5d82888761486063ffffffff16565b612a6e81878761486063ffffffff16565b8383935093505050612a7d5650505b94509492505050565b6000612aa18383670de0b6b3a76400006149e063ffffffff16565b905080505b92915050565b600070010000000000000000000000000000000082101515612b39576040517f08c379a00000000000000000000000000000000000000000000000000000000081526004018080602001828103825260128152602001807f6d6f7265207468616e203132382062697473000000000000000000000000000081526020015060200191505060405180910390fd5b819050612b41565b919050565b600060007f000000000000000000000000000000000000000000000000000000000000000073ffffffffffffffffffffffffffffffffffffffff16630c49ccbe856040518263ffffffff1660e01b8152600401612ba39190617472565b604060405180830381600087803b158015612bbe5760006000fd5b505af1158015612bd3573d600060003e3d6000fd5b505050506040513d601f19601f82011682018060405250810190612bf79190616b4c565b8092508193505050612c1d8460000151856040015186606001518661285763ffffffff16565b5050808191509150612c2a565b9250929050565b6000826fffffffffffffffffffffffffffffffff168284039150816fffffffffffffffffffffffffffffffff1611151515612cd7576040517f08c379a000000000000000000000000000000000000000000000000000000000815260040180806020018281038252600d8152602001807f7375622d756e646572666c6f770000000000000000000000000000000000000081526020015060200191505060405180910390fd5b5b92915050565b612cf482848460a00151846141e063ffffffff16565b7f000000000000000000000000000000000000000000000000000000000000000073ffffffffffffffffffffffffffffffffffffffff166326879a4e846040518263ffffffff1660e01b8152600401612d4d9190617612565b600060405180830381600087803b158015612d685760006000fd5b505af1158015612d7d573d600060003e3d6000fd5b505050507f000000000000000000000000000000000000000000000000000000000000000073ffffffffffffffffffffffffffffffffffffffff166342966c68846040518263ffffffff1660e01b8152600401612dda9190617612565b600060405180830381600087803b158015612df55760006000fd5b505af1158015612e0a573d600060003e3d6000fd5b505050505b505050565b600160026000508190909055507f000000000000000000000000000000000000000000000000000000000000000073ffffffffffffffffffffffffffffffffffffffff1663e9fad8ee6040518163ffffffff1660e01b8152600401600060405180830381600087803b158015612e8a5760006000fd5b505af1158015612e9f573d600060003e3d6000fd5b505050505b565b60007f00000000000000000000000000000000000000000000000000000000000000007f000000000000000000000000000000000000000000000000000000000000000067ffffffffffffffff16612f026123d863ffffffff16565b67ffffffffffffffff16811515612f1557fe5b0403905080505b90565b612f7c7f000000000000000000000000000000000000000000000000000000000000000073ffffffffffffffffffffffffffffffffffffffff163373ffffffffffffffffffffffffffffffffffffffff161461416463ffffffff16565b5b565b6001600060006101000a81548160ff0219169083151502179055507f7acc84e34091ae817647a4c49116f5cc07f319078ba80f8f5fde37ea7e25cbd660405160405180910390a15b565b600060009054906101000a900460ff16151515613051576040517f08c379a00000000000000000000000000000000000000000000000000000000081526004018080602001828103825260138152602001807f436f6e74726163742069732073746f707065640000000000000000000000000081526020015060200191505060405180910390fd5b5b565b61305c6160ba565b6131167f000000000000000000000000000000000000000000000000000000000000000073ffffffffffffffffffffffffffffffffffffffff1663f34348f1846040518263ffffffff1660e01b81526004016130b89190617612565b6101806040518083038186803b1580156130d25760006000fd5b505afa1580156130e7573d600060003e3d6000fd5b505050506040513d601f19601f8201168201806040525081019061310b91906167fb565b61242663ffffffff16565b9050805061315b816000015173ffffffffffffffffffffffffffffffffffffffff163373ffffffffffffffffffffffffffffffffffffffff161461416463ffffffff16565b809050613163565b919050565b43811015156131ac576040517f08c379a00000000000000000000000000000000000000000000000000000000081526004016131a390617395565b60405180910390fd5b5b50565b6131b86161c4565b5b90565b60006131cc614ae163ffffffff16565b9050600860009054906101000a900467ffffffffffffffff1667ffffffffffffffff168167ffffffffffffffff161115156132075750613434565b6000600860009054906101000a900467ffffffffffffffff1682039050600061384067ffffffffffffffff166201518081151561324057fe5b0467ffffffffffffffff166133098367ffffffffffffffff167f000000000000000000000000000000000000000000000000000000000000000073ffffffffffffffffffffffffffffffffffffffff166318c7de176040518163ffffffff1660e01b8152600401602060405180830381600087803b1580156132c25760006000fd5b505af11580156132d7573d600060003e3d6000fd5b505050506040513d601f19601f820116820180604052508101906132fb9190616aeb565b614b0990919063ffffffff16565b81151561331257fe5b0490506000600460049054906101000a900461ffff1690506000600061333c6136f563ffffffff16565b90506001915081505b8261ffff168261ffff161115156133cb576133bd826133b1600560005060008661ffff1661ffff16815260200190815260200160002060005060000160149054906101000a900467ffffffffffffffff1667ffffffffffffffff1684886149e09092919063ffffffff16565b87614ba763ffffffff16565b5b8180600101925050613345565b85600860006101000a81548167ffffffffffffffff021916908367ffffffffffffffff1602179055507f095a67d1e9698fe0eebf9cff79a22f6423cebcb4e386a0bdd7e12330d86381ed84866040516134259291906176b8565b60405180910390a15050505050505b565b6000600061345283600001518460a00151614e3f63ffffffff16565b61346a83602001518460c00151614e3f63ffffffff16565b7f000000000000000000000000000000000000000000000000000000000000000083610120019073ffffffffffffffffffffffffffffffffffffffff16908173ffffffffffffffffffffffffffffffffffffffff16815260200150507f000000000000000000000000000000000000000000000000000000000000000073ffffffffffffffffffffffffffffffffffffffff166388316456846040518263ffffffff1660e01b815260040161351f9190617504565b608060405180830381600087803b15801561353a5760006000fd5b505af115801561354f573d600060003e3d6000fd5b505050506040513d601f19601f820116820180604052508101906135739190616b07565b905050809250819350505061359683600001518460200151614f3f63ffffffff16565b5b915091565b7f000000000000000000000000000000000000000000000000000000000000000073ffffffffffffffffffffffffffffffffffffffff166375ea13ca33886040518363ffffffff1660e01b81526004016135f7929190616e9c565b600060405180830381600087803b1580156136125760006000fd5b505af1158015613627573d600060003e3d6000fd5b505050506136336160ba565b33816000019073ffffffffffffffffffffffffffffffffffffffff16908173ffffffffffffffffffffffffffffffffffffffff168152602001505085816020019061ffff16908161ffff1681526020015050848160e0019060020b908160020b815260200150508381610100019060020b908160020b815260200150508181610120019063ffffffff16908163ffffffff16815260200150506136eb6136de8261242663ffffffff16565b888561394a63ffffffff16565b505b505050505050565b60006000600190505b600460049054906101000a900461ffff1661ffff168161ffff1611151561378657613774600560005060008361ffff1661ffff16815260200190815260200160002060005060000160149054906101000a900467ffffffffffffffff1667ffffffffffffffff1683614ffe90919063ffffffff16565b915081505b80806001019150506136fe565b5080905061378f565b90565b6000600060007f000000000000000000000000000000000000000000000000000000000000000073ffffffffffffffffffffffffffffffffffffffff166399fbab8885600001356040518263ffffffff1660e01b81526004016137f59190617612565b6101806040518083038186803b15801561380f5760006000fd5b505afa158015613824573d600060003e3d6000fd5b505050506040513d601f19601f820116820180604052508101906138489190616c18565b505050505050505093509350505061386a828560200135614e3f63ffffffff16565b61387e818560400135614e3f63ffffffff16565b7f000000000000000000000000000000000000000000000000000000000000000073ffffffffffffffffffffffffffffffffffffffff1663219f5d17856040518263ffffffff1660e01b81526004016138d791906174bf565b606060405180830381600087803b1580156138f25760006000fd5b505af1158015613907573d600060003e3d6000fd5b505050506040513d601f19601f8201168201806040525081019061392b9190616a32565b905050809350506139428282614f3f63ffffffff16565b50505b919050565b600060056000506000856020015161ffff1661ffff16815260200190815260200160002060005060000160009054906101000a900473ffffffffffffffffffffffffffffffffffffffff16905060006139a88261228c63ffffffff16565b90506139ba85826123f363ffffffff16565b15156139fb576040517f08c379a00000000000000000000000000000000000000000000000000000000081526004016139f2906171dc565b60405180910390fd5b613a35858284613a2a878a60a001516fffffffffffffffffffffffffffffffff1661508790919063ffffffff16565b61513463ffffffff16565b7f000000000000000000000000000000000000000000000000000000000000000073ffffffffffffffffffffffffffffffffffffffff16631428561d83856040518363ffffffff1660e01b8152600401613a909291906170f5565b600060405180830381600087803b158015613aab5760006000fd5b505af1158015613ac0573d600060003e3d6000fd5b50505050670de0b6b3a7640000600360009054906101000a900467ffffffffffffffff1667ffffffffffffffff16108015613b075750600161ffff16856020015161ffff16145b15613b1c57613b1b8261532f63ffffffff16565b5b4385608001909081815260200150507f000000000000000000000000000000000000000000000000000000000000000073ffffffffffffffffffffffffffffffffffffffff1663816aaa2585876040518363ffffffff1660e01b8152600401613b86929190617653565b600060405180830381600087803b158015613ba15760006000fd5b505af1158015613bb6573d600060003e3d6000fd5b5050505050505b505050565b60006000600660005060008573ffffffffffffffffffffffffffffffffffffffff1673ffffffffffffffffffffffffffffffffffffffff16815260200190815260200160002060009054906101000a900461ffff1661ffff16141515613c5d576040517f08c379a0000000000000000000000000000000000000000000000000000000008152600401613c549061725a565b60405180910390fd5b61ffff61ffff166004600481819054906101000a900461ffff1660010191906101000a81548161ffff021916908361ffff160217905561ffff16101515613ca45760006000fd5b7f000000000000000000000000000000000000000000000000000000000000000073ffffffffffffffffffffffffffffffffffffffff1663d3419bf36040518163ffffffff1660e01b815260040160206040518083038186803b158015613d0b5760006000fd5b505afa158015613d20573d600060003e3d6000fd5b505050506040513d601f19601f82011682018060405250810190613d4491906164b1565b73ffffffffffffffffffffffffffffffffffffffff1663407431f7846040518263ffffffff1660e01b8152600401613d7c9190617027565b600060405180830381600087803b158015613d975760006000fd5b505af1158015613dac573d600060003e3d6000fd5b50505050600460049054906101000a900461ffff169050805060405180604001604052808473ffffffffffffffffffffffffffffffffffffffff1681526020018367ffffffffffffffff16815260200150600560005060008361ffff1661ffff16815260200190815260200160002060005060008201518160000160006101000a81548173ffffffffffffffffffffffffffffffffffffffff021916908373ffffffffffffffffffffffffffffffffffffffff16021790555060208201518160000160146101000a81548167ffffffffffffffff021916908367ffffffffffffffff16021790555090505080600660005060008573ffffffffffffffffffffffffffffffffffffffff1673ffffffffffffffffffffffffffffffffffffffff16815260200190815260200160002060006101000a81548161ffff021916908361ffff160217905550613f828373ffffffffffffffffffffffffffffffffffffffff16630dfe16816040518163ffffffff1660e01b815260040160206040518083038186803b158015613f3e5760006000fd5b505afa158015613f53573d600060003e3d6000fd5b505050506040513d601f19601f82011682018060405250810190613f7791906163ef565b6155c763ffffffff16565b6140108373ffffffffffffffffffffffffffffffffffffffff1663d21220a76040518163ffffffff1660e01b815260040160206040518083038186803b158015613fcc5760006000fd5b505afa158015613fe1573d600060003e3d6000fd5b505050506040513d601f19601f8201168201806040525081019061400591906163ef565b6155c763ffffffff16565b61401e6131bc63ffffffff16565b809050614026565b92915050565b6140346160ba565b6000849150815060008260a001516fffffffffffffffffffffffffffffffff1611156141085761410361407e8360c001518567ffffffffffffffff1661561c90919063ffffffff16565b67ffffffffffffffff1661384067ffffffffffffffff166140f46140b3866060015189600001516147d790919063ffffffff16565b6140ce87604001518a602001516147d790919063ffffffff16565b8760a001516fffffffffffffffffffffffffffffffff166149e09092919063ffffffff16565b6149e09092919063ffffffff16565b905080505b8360000151826060019090818152602001505083602001518260400190908181526020015050828260c0019067ffffffffffffffff16908167ffffffffffffffff168152602001505081819150915061415c565b935093915050565b8015156141dc576040517f08c379a000000000000000000000000000000000000000000000000000000000815260040180806020018281038252600e8152602001807f4e6f7420417574686f72697a656400000000000000000000000000000000000081526020015060200191505060405180910390fd5b5b50565b600060056000506000866020015161ffff1661ffff16815260200190815260200160002060005060000160009054906101000a900473ffffffffffffffffffffffffffffffffffffffff1690506000826000015161424c576142478261228c63ffffffff16565b614252565b82602001515b90506000670de0b6b3a7640000600360009054906101000a900467ffffffffffffffff1667ffffffffffffffff161080156142995750600161ffff16876020015161ffff16145b80156142b157506142b087836123f363ffffffff16565b5b801561435a57507f000000000000000000000000000000000000000000000000000000000000000073ffffffffffffffffffffffffffffffffffffffff1663bf86d6906040518163ffffffff1660e01b815260040160206040518083038186803b15801561431f5760006000fd5b505afa158015614334573d600060003e3d6000fd5b505050506040513d601f19601f82011682018060405250810190614358919061643d565b155b905061439687838561438b898c60a001516fffffffffffffffffffffffffffffffff16612c3190919063ffffffff16565b61513463ffffffff16565b80156143ac576143ab8361532f63ffffffff16565b5b7f000000000000000000000000000000000000000000000000000000000000000073ffffffffffffffffffffffffffffffffffffffff1663530c1ccb84876040518363ffffffff1660e01b81526004016144079291906170f5565b600060405180830381600087803b1580156144225760006000fd5b505af1158015614437573d600060003e3d6000fd5b5050505080156145b757600760005060008473ffffffffffffffffffffffffffffffffffffffff1673ffffffffffffffffffffffffffffffffffffffff16815260200190815260200160002060005060000160089054906101000a900477ffffffffffffffffffffffffffffffffffffffffffffffff1677ffffffffffffffffffffffffffffffffffffffffffffffff167f000000000000000000000000000000000000000000000000000000000000000073ffffffffffffffffffffffffffffffffffffffff1663a135ef17856040518263ffffffff1660e01b81526004016145219190617027565b60206040518083038186803b15801561453a5760006000fd5b505afa15801561454f573d600060003e3d6000fd5b505050506040513d601f19601f820116820180604052508101906145739190616aeb565b101515156145b6576040517f08c379a00000000000000000000000000000000000000000000000000000000081526004016145ad9061721b565b60405180910390fd5b5b7f000000000000000000000000000000000000000000000000000000000000000073ffffffffffffffffffffffffffffffffffffffff1663816aaa2587896040518363ffffffff1660e01b8152600401614612929190617653565b600060405180830381600087803b15801561462d5760006000fd5b505af1158015614642573d600060003e3d6000fd5b505050505050505b50505050565b600060006146626123d863ffffffff16565b905060007f000000000000000000000000000000000000000000000000000000000000000073ffffffffffffffffffffffffffffffffffffffff1663585690816040518163ffffffff1660e01b815260040160206040518083038186803b1580156146cd5760006000fd5b505afa1580156146e2573d600060003e3d6000fd5b505050506040513d601f19601f820116820180604052508101906147069190616bf1565b90508067ffffffffffffffff16600010801561473557508167ffffffffffffffff168167ffffffffffffffff16105b61473f5781614741565b805b9250505061474c5650505b90565b60006147cd7f00000000000000000000000000000000000000000000000000000000000000007f000000000000000000000000000000000000000000000000000000000000000067ffffffffffffffff168467ffffffffffffffff168115156147b457fe5b0467ffffffffffffffff1661561c90919063ffffffff16565b905080505b919050565b60008282840391508111151515614859576040517f08c379a000000000000000000000000000000000000000000000000000000000815260040180806020018281038252600d8152602001807f7375622d756e646572666c6f770000000000000000000000000000000000000081526020015060200191505060405180910390fd5b5b92915050565b7f000000000000000000000000000000000000000000000000000000000000000073ffffffffffffffffffffffffffffffffffffffff168373ffffffffffffffffffffffffffffffffffffffff161415614948577f000000000000000000000000000000000000000000000000000000000000000073ffffffffffffffffffffffffffffffffffffffff166349404b7c83836040518363ffffffff1660e01b815260040161490f929190617624565b600060405180830381600087803b15801561492a5760006000fd5b505af115801561493f573d600060003e3d6000fd5b505050506149da565b7f000000000000000000000000000000000000000000000000000000000000000073ffffffffffffffffffffffffffffffffffffffff1663df2ab5bb8484846040518463ffffffff1660e01b81526004016149a593929190616f39565b600060405180830381600087803b1580156149c05760006000fd5b505af11580156149d5573d600060003e3d6000fd5b505050505b5b505050565b6000600060006000198587098587029250828110838203039150506000811415614a2357600084111515614a145760006000fd5b83820492508292505050614ada565b8084111515614a325760006000fd5b6000848688099050828111820391508083039250600085866000031690508086049550808404935060018182600003040190508083028417935083506000600287600302189050808702600203810290508050808702600203810290508050808702600203810290508050808702600203810290508050808702600203810290508050808702600203810290508050808502955085508595505050505050614ada5650505050505b9392505050565b6000614aff614af461465063ffffffff16565b61474f63ffffffff16565b9050614b06565b90565b60006000821480614b2957508282838502925082811515614b2657fe5b04145b1515614ba0576040517f08c379a000000000000000000000000000000000000000000000000000000000815260040180806020018281038252600c8152602001807f6d756c2d6f766572666c6f77000000000000000000000000000000000000000081526020015060200191505060405180910390fd5b5b92915050565b6000600560005060008561ffff1661ffff16815260200190815260200160002060005060000160009054906101000a900473ffffffffffffffffffffffffffffffffffffffff16905060007f000000000000000000000000000000000000000000000000000000000000000073ffffffffffffffffffffffffffffffffffffffff16631cef92b1836040518263ffffffff1660e01b8152600401614c4b9190617027565b60406040518083038186803b158015614c645760006000fd5b505afa158015614c79573d600060003e3d6000fd5b505050506040513d601f19601f82011682018060405250810190614c9d91906169bf565b90507f000000000000000000000000000000000000000000000000000000000000000073ffffffffffffffffffffffffffffffffffffffff166396122a5c836040518060400160405280614cfe898760000151614ffe90919063ffffffff16565b8152602001614de0614dcd8967ffffffffffffffff167f000000000000000000000000000000000000000000000000000000000000000073ffffffffffffffffffffffffffffffffffffffff1663a135ef178b6040518263ffffffff1660e01b8152600401614d6d9190617027565b60206040518083038186803b158015614d865760006000fd5b505afa158015614d9b573d600060003e3d6000fd5b505050506040513d601f19601f82011682018060405250810190614dbf9190616aeb565b614b0990919063ffffffff16565b8760200151614ffe90919063ffffffff16565b8152602001506040518363ffffffff1660e01b8152600401614e039291906170bb565b600060405180830381600087803b158015614e1e5760006000fd5b505af1158015614e33573d600060003e3d6000fd5b5050505050505b505050565b7f000000000000000000000000000000000000000000000000000000000000000073ffffffffffffffffffffffffffffffffffffffff168273ffffffffffffffffffffffffffffffffffffffff16148015614e9a5750804710155b15614f27577f000000000000000000000000000000000000000000000000000000000000000073ffffffffffffffffffffffffffffffffffffffff1663d0e30db0826040518263ffffffff1660e01b81526004016000604051808303818588803b158015614f085760006000fd5b505af1158015614f1d573d600060003e3d6000fd5b5050505050614f3a565b614f39823330846156b963ffffffff16565b5b5b5050565b614f4e826158e463ffffffff16565b614f5d816158e463ffffffff16565b7f000000000000000000000000000000000000000000000000000000000000000073ffffffffffffffffffffffffffffffffffffffff166312210e8a6040518163ffffffff1660e01b8152600401600060405180830381600087803b158015614fc65760006000fd5b505af1158015614fdb573d600060003e3d6000fd5b505050506000471115614ff957614ff83347615a7a63ffffffff16565b5b5b5050565b60008282840191508110151515615080576040517f08c379a000000000000000000000000000000000000000000000000000000000815260040180806020018281038252600c8152602001807f6164642d6f766572666c6f77000000000000000000000000000000000000000081526020015060200191505060405180910390fd5b5b92915050565b6000826fffffffffffffffffffffffffffffffff168284019150816fffffffffffffffffffffffffffffffff161015151561512d576040517f08c379a000000000000000000000000000000000000000000000000000000000815260040180806020018281038252600c8152602001807f6164642d6f766572666c6f77000000000000000000000000000000000000000081526020015060200191505060405180910390fd5b5b92915050565b6000816fffffffffffffffffffffffffffffffff16141561515457615329565b60007f000000000000000000000000000000000000000000000000000000000000000073ffffffffffffffffffffffffffffffffffffffff1663d3419bf36040518163ffffffff1660e01b815260040160206040518083038186803b1580156151bd5760006000fd5b505afa1580156151d2573d600060003e3d6000fd5b505050506040513d601f19601f820116820180604052508101906151f691906164b1565b73ffffffffffffffffffffffffffffffffffffffff16631fab230e84868860e0015189610100015187600460009054906101000a900463ffffffff166040518763ffffffff1660e01b81526004016152539695949392919061704f565b60206040518083038186803b15801561526c5760006000fd5b505afa158015615281573d600060003e3d6000fd5b505050506040513d601f19601f820116820180604052508101906152a59190616aeb565b9050600360109054906101000a90046fffffffffffffffffffffffffffffffff166fffffffffffffffffffffffffffffffff16811015806152e65750600081145b1515615327576040517f08c379a000000000000000000000000000000000000000000000000000000000815260040161531e906172d8565b60405180910390fd5b505b50505050565b600061533f612ea663ffffffff16565b90508067ffffffffffffffff16600760005060008473ffffffffffffffffffffffffffffffffffffffff1673ffffffffffffffffffffffffffffffffffffffff16815260200190815260200160002060005060000160009054906101000a900467ffffffffffffffff1667ffffffffffffffff1610156155c25760405180604001604052808267ffffffffffffffff1681526020016154db6154ce615415600360009054906101000a900467ffffffffffffffff1667ffffffffffffffff16670de0b6b3a76400006147d790919063ffffffff16565b7f000000000000000000000000000000000000000000000000000000000000000073ffffffffffffffffffffffffffffffffffffffff1663a135ef17886040518263ffffffff1660e01b815260040161546e9190617027565b60206040518083038186803b1580156154875760006000fd5b505afa15801561549c573d600060003e3d6000fd5b505050506040513d601f19601f820116820180604052508101906154c09190616aeb565b612a8690919063ffffffff16565b615c00909063ffffffff16565b77ffffffffffffffffffffffffffffffffffffffffffffffff16815260200150600760005060008473ffffffffffffffffffffffffffffffffffffffff1673ffffffffffffffffffffffffffffffffffffffff16815260200190815260200160002060005060008201518160000160006101000a81548167ffffffffffffffff021916908367ffffffffffffffff16021790555060208201518160000160086101000a81548177ffffffffffffffffffffffffffffffffffffffffffffffff021916908377ffffffffffffffffffffffffffffffffffffffffffffffff1602179055509050505b505b50565b615618817f00000000000000000000000000000000000000000000000000000000000000007fffffffffffffffffffffffffffffffffffffffffffffffffffffffffffffffff615ca263ffffffff16565b5b50565b60008267ffffffffffffffff1682840391508167ffffffffffffffff16111515156156b2576040517f08c379a000000000000000000000000000000000000000000000000000000000815260040180806020018281038252600d8152602001807f7375622d756e646572666c6f770000000000000000000000000000000000000081526020015060200191505060405180910390fd5b5b92915050565b600060008573ffffffffffffffffffffffffffffffffffffffff166323b872dd60e01b868686604051602401808473ffffffffffffffffffffffffffffffffffffffff1681526020018373ffffffffffffffffffffffffffffffffffffffff1681526020018281526020019350505050604051602081830303815290604052907bffffffffffffffffffffffffffffffffffffffffffffffffffffffff19166020820180517bffffffffffffffffffffffffffffffffffffffffffffffffffffffff83818316178352505050506040518082805190602001908083835b6020831015156157bc57805182525b602082019150602081019050602083039250615796565b6001836020036101000a0380198251168184511680821785525050505050509050019150506000604051808303816000865af19150503d806000811461581e576040519150601f19603f3d011682016040523d82523d6000602084013e615823565b606091505b5091509150818015615864575060008151148061586357508080602001905160208110156158515760006000fd5b81019080805190602001909291905050505b5b15156158db576040517f08c379a00000000000000000000000000000000000000000000000000000000081526004018080602001828103825260038152602001807f535446000000000000000000000000000000000000000000000000000000000081526020015060200191505060405180910390fd5b50505b50505050565b60008173ffffffffffffffffffffffffffffffffffffffff166370a08231306040518263ffffffff1660e01b815260040161591f9190616e74565b60206040518083038186803b1580156159385760006000fd5b505afa15801561594d573d600060003e3d6000fd5b505050506040513d601f19601f820116820180604052508101906159719190616aeb565b90506000811115615a75577f000000000000000000000000000000000000000000000000000000000000000073ffffffffffffffffffffffffffffffffffffffff168273ffffffffffffffffffffffffffffffffffffffff161415615a62577f000000000000000000000000000000000000000000000000000000000000000073ffffffffffffffffffffffffffffffffffffffff16632e1a7d4d826040518263ffffffff1660e01b8152600401615a299190617612565b600060405180830381600087803b158015615a445760006000fd5b505af1158015615a59573d600060003e3d6000fd5b50505050615a74565b615a73823383615eae63ffffffff16565b5b5b505b50565b60008273ffffffffffffffffffffffffffffffffffffffff1682600067ffffffffffffffff81118015615aad5760006000fd5b506040519080825280601f01601f191660200182016040528015615ae05781602001600182028036833780820191505090505b506040518082805190602001908083835b602083101515615b1757805182525b602082019150602081019050602083039250615af1565b6001836020036101000a03801982511681845116808217855250505050505090500191505060006040518083038185875af1925050503d8060008114615b79576040519150601f19603f3d011682016040523d82523d6000602084013e615b7e565b606091505b50509050801515615bfa576040517f08c379a00000000000000000000000000000000000000000000000000000000081526004018080602001828103825260038152602001807f535445000000000000000000000000000000000000000000000000000000000081526020015060200191505060405180910390fd5b505b5050565b6000780100000000000000000000000000000000000000000000000082101515615c95576040517f08c379a00000000000000000000000000000000000000000000000000000000081526004018080602001828103825260128152602001807f6d6f7265207468616e203139322062697473000000000000000000000000000081526020015060200191505060405180910390fd5b819050615c9d565b919050565b600060008473ffffffffffffffffffffffffffffffffffffffff1663095ea7b360e01b8585604051602401808373ffffffffffffffffffffffffffffffffffffffff16815260200182815260200192505050604051602081830303815290604052907bffffffffffffffffffffffffffffffffffffffffffffffffffffffff19166020820180517bffffffffffffffffffffffffffffffffffffffffffffffffffffffff83818316178352505050506040518082805190602001908083835b602083101515615d8757805182525b602082019150602081019050602083039250615d61565b6001836020036101000a0380198251168184511680821785525050505050509050019150506000604051808303816000865af19150503d8060008114615de9576040519150601f19603f3d011682016040523d82523d6000602084013e615dee565b606091505b5091509150818015615e2f5750600081511480615e2e5750808060200190516020811015615e1c5760006000fd5b81019080805190602001909291905050505b5b1515615ea6576040517f08c379a00000000000000000000000000000000000000000000000000000000081526004018080602001828103825260028152602001807f534100000000000000000000000000000000000000000000000000000000000081526020015060200191505060405180910390fd5b50505b505050565b600060008473ffffffffffffffffffffffffffffffffffffffff1663a9059cbb60e01b8585604051602401808373ffffffffffffffffffffffffffffffffffffffff16815260200182815260200192505050604051602081830303815290604052907bffffffffffffffffffffffffffffffffffffffffffffffffffffffff19166020820180517bffffffffffffffffffffffffffffffffffffffffffffffffffffffff83818316178352505050506040518082805190602001908083835b602083101515615f9357805182525b602082019150602081019050602083039250615f6d565b6001836020036101000a0380198251168184511680821785525050505050509050019150506000604051808303816000865af19150503d8060008114615ff5576040519150601f19603f3d011682016040523d82523d6000602084013e615ffa565b606091505b509150915081801561603b575060008151148061603a57508080602001905160208110156160285760006000fd5b81019080805190602001909291905050505b5b15156160b2576040517f08c379a00000000000000000000000000000000000000000000000000000000081526004018080602001828103825260028152602001807f535400000000000000000000000000000000000000000000000000000000000081526020015060200191505060405180910390fd5b50505b505050565b604051806101800160405280600073ffffffffffffffffffffffffffffffffffffffff168152602001600061ffff16815260200160008152602001600081526020016000815260200160006fffffffffffffffffffffffffffffffff168152602001600067ffffffffffffffff168152602001600060020b8152602001600060020b8152602001600063ffffffff168152602001600073ffffffffffffffffffffffffffffffffffffffff168152602001600067ffffffffffffffff1681526020015090565b6040518060a001604052806000815260200160006fffffffffffffffffffffffffffffffff1681526020016000815260200160008152602001600081526020015090565b6040518060400160405280600015158152602001600060020b815260200150905661786d565b6000813590506161f98161778f565b5b919050565b60008151905061620e8161778f565b5b919050565b600081359050616223816177cd565b5b919050565b600081519050616238816177cd565b5b919050565b6000610180808385031215616251578182fd5b61625a81617764565b915050616266826161ea565b815261627460208301616347565b60208201526040820135604082015260608201356060820152608082013560808201526162a360a0830161631d565b60a08201526162b460c083016163c5565b60c08201526162c560e08301616214565b60e08201526101006162d8818401616214565b81830152506101206162eb81840161639b565b81830152506101406162fe8184016161ea565b81830152506101606163118184016163c5565b81830152505b92915050565b60008135905061632c816177e3565b5b919050565b600081519050616341816177e3565b5b919050565b60008135905061635681617808565b5b919050565b60008151905061636b81617808565b5b919050565b6000813590506163808161781f565b5b919050565b6000815190506163958161781f565b5b919050565b6000813590506163aa81617837565b5b919050565b6000815190506163bf81617837565b5b919050565b6000813590506163d481617850565b5b919050565b6000815190506163e981617850565b5b919050565b600060208284031215616400578081fd5b815161640b8161778f565b809150505b92915050565b600060208284031215616427578081fd5b8135616432816177b8565b809150505b92915050565b60006020828403121561644e578081fd5b8151616459816177b8565b809150505b92915050565b600060208284031215616475578081fd5b81357fffffffff000000000000000000000000000000000000000000000000000000008116811415156164a6578182fd5b809150505b92915050565b6000602082840312156164c2578081fd5b81516164cd8161778f565b809150505b92915050565b6000602082840312156164e9578081fd5b81356164f48161778f565b809150505b92915050565b60006000600060408486031215616514578182fd5b833561651f8161778f565b80935050602084013567ffffffffffffffff8082111561653d578384fd5b818601915086601f8301121515616552578384fd5b813581811115616560578485fd5b876020602083028501011115616574578485fd5b6020830194508093505050505b9250925092565b600060006040838503121561659b578182fd5b82356165a68161778f565b8092505060208301356165b88161778f565b809150505b9250929050565b60006000604083850312156165d7578182fd5b82356165e28161778f565b8092505060208301356165f481617850565b809150505b9250929050565b600060208284031215616611578081fd5b815161661c816177cd565b809150505b92915050565b6000600082840360c081121561663b578283fd5b60a0811215616648578283fd5b5082915060a083013561665a81617837565b809150505b9250929050565b600060a08284031215616677578081fd5b60405160a0810181811067ffffffffffffffff8211171561669457fe5b80604052508235815260208301356166ab816177e3565b80602083015250604083013560408201526060830135606082015260808301356080820152809150505b92915050565b6000600082840360e08112156166ef578283fd5b60c08112156166fc578283fd5b5082915060c083013561670e81617837565b809150505b9250929050565b6000600082840361018081121561672f578283fd5b6101608082121561673e578384fd5b61674781617764565b9150616752856161ea565b8252616760602086016161ea565b602083015261677160408601616371565b604083015261678260608601616214565b606083015261679360808601616214565b608083015260a085013560a083015260c085013560c083015260e085013560e08301526101008086013581840152506101206167d08187016161ea565b81840152506101408086013581840152508193506167ef81860161639b565b925050505b9250929050565b600061018080838503121561680e578182fd5b61681781617764565b9050616822836161ff565b81526168306020840161635c565b602082015260408301516040820152606083015160608201526080830151608082015261685f60a08401616332565b60a082015261687060c084016163da565b60c082015261688160e08401616229565b60e0820152610100616894818501616229565b81830152506101206168a78185016163b0565b81830152506101406168ba8185016161ff565b81830152506101606168cd8185016163da565b8183015250809150505b92915050565b600060006101a083850312156168f1578182fd5b6168fb848461623e565b915061018083013561690c816177cd565b809150505b9250929050565b6000600060008385036101e081121561692f578182fd5b616939868661623e565b935060407ffffffffffffffffffffffffffffffffffffffffffffffffffffffffffffffe808201121561696a578182fd5b506040516040810181811067ffffffffffffffff8211171561698857fe5b806040525061018085013581526101a08501356020820152809250506101c08401356169b381617850565b809150505b9250925092565b6000604082840312156169d0578081fd5b6040516040810181811067ffffffffffffffff821117156169ed57fe5b80604052508251815260208301516020820152809150505b92915050565b600060208284031215616a1c578081fd5b8135616a27816177e3565b809150505b92915050565b60006000600060608486031215616a47578081fd5b8351616a52816177e3565b8093505060208401519150604084015190505b9250925092565b600060208284031215616a7d578081fd5b8135616a8881617808565b809150505b92915050565b6000600060408385031215616aa6578182fd5b8235616ab181617808565b809250506020830135616ac381617850565b809150505b9250929050565b600060208284031215616ae0578081fd5b813590505b92915050565b600060208284031215616afc578081fd5b815190505b92915050565b600060006000600060808587031215616b1e578182fd5b845193506020850151616b30816177e3565b8093505060408501519150606085015190505b92959194509250565b6000600060408385031215616b5f578182fd5b82519150602083015190505b9250929050565b6000600060408385031215616b85578182fd5b823591506020830135616b9781617837565b809150505b9250929050565b600060208284031215616bb4578081fd5b8135616bbf81617837565b809150505b92915050565b600060208284031215616bdb578081fd5b8135616be681617850565b809150505b92915050565b600060208284031215616c02578081fd5b8151616c0d81617850565b809150505b92915050565b6000600060006000600060006000600060006000600060006101808d8f031215616c4057898afd5b8c516bffffffffffffffffffffffff811681141515616c5d578a8bfd5b809c5050616c6d60208e016161ff565b9a50616c7b60408e016161ff565b9950616c8960608e016161ff565b9850616c9760808e01616386565b9750616ca560a08e01616229565b9650616cb360c08e01616229565b9550616cc160e08e01616332565b94506101008d015193506101208d01519250616ce06101408e01616332565b9150616cef6101608e01616332565b90505b9295989b509295989b509295989b565b73ffffffffffffffffffffffffffffffffffffffff811682525b5050565b8060020b82525b5050565b616d36828251616d02565b6020810151616d486020840182616e13565b5060408101516040830152606081015160608301526080810151608083015260a0810151616d7960a0840182616df9565b5060c0810151616d8c60c0840182616e3a565b5060e0810151616d9f60e0840182616d20565b5061010080820151616db382850182616d20565b505061012080820151616dc882850182616e2c565b505061014080820151616ddd82850182616d02565b505061016080820151616df282850182616e3a565b50505b5050565b6fffffffffffffffffffffffffffffffff811682525b5050565b61ffff811682525b5050565b62ffffff811682525b5050565b63ffffffff811682525b5050565b67ffffffffffffffff811682525b5050565b600060208201905073ffffffffffffffffffffffffffffffffffffffff831682525b92915050565b600060208201905073ffffffffffffffffffffffffffffffffffffffff831682525b92915050565b600060408201905073ffffffffffffffffffffffffffffffffffffffff841682528260208301525b9392505050565b600060608201905073ffffffffffffffffffffffffffffffffffffffff808616835280851660208401525062ffffff831660408301525b949350505050565b600060408201905073ffffffffffffffffffffffffffffffffffffffff841682528260208301525b9392505050565b600060608201905073ffffffffffffffffffffffffffffffffffffffff80861683528460208401528084166040840152505b949350505050565b600060208201905082151582525b92915050565b600060208201905073ffffffffffffffffffffffffffffffffffffffff831682525b92915050565b600060208201905073ffffffffffffffffffffffffffffffffffffffff831682525b92915050565b600060208201905073ffffffffffffffffffffffffffffffffffffffff831682525b92915050565b600060208201905073ffffffffffffffffffffffffffffffffffffffff831682525b92915050565b600060208201905073ffffffffffffffffffffffffffffffffffffffff831682525b92915050565b600060c08201905073ffffffffffffffffffffffffffffffffffffffff881682528660020b60208301528560020b60408301528460020b60608301526fffffffffffffffffffffffffffffffff8416608083015263ffffffff831660a08301525b979650505050505050565b600060608201905073ffffffffffffffffffffffffffffffffffffffff8416825282516020830152602083015160408301525b9392505050565b600060408201905073ffffffffffffffffffffffffffffffffffffffff841682526fffffffffffffffffffffffffffffffff831660208301525b9392505050565b600060408201905073ffffffffffffffffffffffffffffffffffffffff8416825263ffffffff831660208301525b9392505050565b600060408201905073ffffffffffffffffffffffffffffffffffffffff8416825267ffffffffffffffff831660208301525b9392505050565b60006060820190508460020b82528360020b60208301526fffffffffffffffffffffffffffffffff831660408301525b949350505050565b600060208252601660208301527f4c6971756964697479206e6f7420696e2072616e67650000000000000000000060408301526060820190505b919050565b600060208252601c60208301527f4d617820706572696f642077697468647261772065786365656465640000000060408301526060820190505b919050565b600060208252601260208301527f416c72656164792072656769737465726564000000000000000000000000000060408301526060820190505b919050565b600060208252601460208301527f496e63656e7469766520746f74616c206973203000000000000000000000000060408301526060820190505b919050565b600060208252601260208301527f506f736974696f6e20746f6f20736d616c6c000000000000000000000000000060408301526060820190505b919050565b600060208252600b60208301527f506f6f6c2065786973747300000000000000000000000000000000000000000060408301526060820190505b919050565b600060208252600e60208301527f496e76616c696420706f6f6c494400000000000000000000000000000000000060408301526060820190505b919050565b600060208252601260208301527f4e6f20666c617368206c6971756964697479000000000000000000000000000060408301526060820190505b919050565b600060208252600760208301527f496e76616c69640000000000000000000000000000000000000000000000000060408301526060820190505b919050565b60006080820190508251825273ffffffffffffffffffffffffffffffffffffffff602084015116602083015260408301516fffffffffffffffffffffffffffffffff808216604085015280606086015116606085015250505b92915050565b600060a082019050825182526fffffffffffffffffffffffffffffffff60208401511660208301526040830151604083015260608301516060830152608083015160808301525b92915050565b600060c082019050823582526020830135602083015260408301356040830152606083013560608301526080830135608083015260a083013560a08301525b92915050565b600061016082019050617518828451616d02565b602083015161752a6020840182616d02565b50604083015161753d6040840182616e1f565b5060608301516175506060840182616d20565b5060808301516175636080840182616d20565b5060a083015160a083015260c083015160c083015260e083015160e0830152610100808401518184015250610120808401516175a182850182616d02565b50506101408084015181840152505b92915050565b60006101a0820190506175c98285616d2b565b826101808301525b9392505050565b60006020820190506fffffffffffffffffffffffffffffffff831682525b92915050565b600060208201905061ffff831682525b92915050565b60006020820190508282525b92915050565b600060408201905083825273ffffffffffffffffffffffffffffffffffffffff831660208301525b9392505050565b60006101a08201905083825261766c6020830184616d2b565b5b9392505050565b60006040820190508382526fffffffffffffffffffffffffffffffff831660208301525b9392505050565b60006040820190508382528260208301525b9392505050565b600060408201905083825267ffffffffffffffff831660208301525b9392505050565b600060208201905063ffffffff831682525b92915050565b600060208201905063ffffffff831682525b92915050565b600060208201905067ffffffffffffffff831682525b92915050565b600060408201905067ffffffffffffffff8416825277ffffffffffffffffffffffffffffffffffffffffffffffff831660208301525b9392505050565b6000604051905081810181811067ffffffffffffffff8211171561778457fe5b80604052505b919050565b73ffffffffffffffffffffffffffffffffffffffff8116811415156177b45760006000fd5b5b50565b801515811415156177c95760006000fd5b5b50565b8060020b811415156177df5760006000fd5b5b50565b6fffffffffffffffffffffffffffffffff8116811415156178045760006000fd5b5b50565b61ffff81168114151561781b5760006000fd5b5b50565b62ffffff8116811415156178335760006000fd5b5b50565b63ffffffff81168114151561784c5760006000fd5b5b50565b67ffffffffffffffff8116811415156178695760006000fd5b5b50565bfea26469706673582212203ca850291cc0c6eb8295dd89ebaea52580fcb4861f51249c08707502b8639e7e64736f6c63430007060033",
  "linkReferences": {},
  "deployedLinkReferences": {}
}