{
  "_format": "hh-sol-artifact-1",
  "contractName": "RewardsTestable",
  "sourceName": "contracts/mocks/RewardsTestable.sol",
  "abi": [
    {
      "inputs": [
        {
          "components": [
            {
              "internalType": "contract IGovernor",
              "name": "Governor",
              "type": "address"
            },
            {
              "internalType": "contract IProtocolLock",
              "name": "ProtocolLock",
              "type": "address"
            },
            {
              "internalType": "contract IAccounting",
              "name": "Accounting",
              "type": "address"
            },
            {
              "internalType": "address",
              "name": "Weth",
              "type": "address"
            },
            {
              "internalType": "contract INonfungiblePositionManager",
              "name": "NftPositionManager",
              "type": "address"
            },
            {
              "internalType": "contract IUniswapV3Factory",
              "name": "UniswapV3Factory",
              "type": "address"
            }
          ],
          "internalType": "struct IRewards.ConstructorParams",
          "name": "params",
          "type": "tuple"
        }
      ],
      "stateMutability": "nonpayable",
      "type": "constructor"
    },
    {
      "anonymous": false,
      "inputs": [
        {
          "indexed": false,
          "internalType": "uint64",
          "name": "penalty",
          "type": "uint64"
        }
      ],
      "name": "LiquidationPenaltyUpdated",
      "type": "event"
    },
    {
      "anonymous": false,
      "inputs": [
        {
          "indexed": true,
          "internalType": "address",
          "name": "owner",
          "type": "address"
        },
        {
          "indexed": true,
          "internalType": "uint16",
          "name": "poolID",
          "type": "uint16"
        },
        {
          "indexed": true,
          "internalType": "uint256",
          "name": "nftID",
          "type": "uint256"
        },
        {
          "indexed": false,
          "internalType": "int24",
          "name": "tickLower",
          "type": "int24"
        },
        {
          "indexed": false,
          "internalType": "int24",
          "name": "tickUpper",
          "type": "int24"
        },
        {
          "indexed": false,
          "internalType": "uint128",
          "name": "liquidity",
          "type": "uint128"
        }
      ],
      "name": "LiquidityPositionCreated",
      "type": "event"
    },
    {
      "anonymous": false,
      "inputs": [
        {
          "indexed": true,
          "internalType": "uint256",
          "name": "nftID",
          "type": "uint256"
        },
        {
          "indexed": false,
          "internalType": "uint256",
          "name": "amount0",
          "type": "uint256"
        },
        {
          "indexed": false,
          "internalType": "uint256",
          "name": "amount1",
          "type": "uint256"
        }
      ],
      "name": "LiquidityPositionDecreased",
      "type": "event"
    },
    {
      "anonymous": false,
      "inputs": [
        {
          "indexed": true,
          "internalType": "uint256",
          "name": "nftID",
          "type": "uint256"
        },
        {
          "indexed": false,
          "internalType": "uint128",
          "name": "liquidity",
          "type": "uint128"
        }
      ],
      "name": "LiquidityPositionIncreased",
      "type": "event"
    },
    {
      "anonymous": false,
      "inputs": [
        {
          "indexed": true,
          "internalType": "uint256",
          "name": "nftID",
          "type": "uint256"
        },
        {
          "indexed": true,
          "internalType": "address",
          "name": "liquidator",
          "type": "address"
        }
      ],
      "name": "LiquidityPositionLiquidated",
      "type": "event"
    },
    {
      "anonymous": false,
      "inputs": [
        {
          "indexed": true,
          "internalType": "uint256",
          "name": "nftID",
          "type": "uint256"
        },
        {
          "indexed": false,
          "internalType": "uint256",
          "name": "amount0",
          "type": "uint256"
        },
        {
          "indexed": false,
          "internalType": "uint256",
          "name": "amount1",
          "type": "uint256"
        }
      ],
      "name": "LiquidityPositionRemoved",
      "type": "event"
    },
    {
      "anonymous": false,
      "inputs": [
        {
          "indexed": false,
          "internalType": "uint64",
          "name": "decreasePortion",
          "type": "uint64"
        }
      ],
      "name": "MaxCollateralLiquidityDecreasePerPeriodUpdated",
      "type": "event"
    },
    {
      "anonymous": false,
      "inputs": [
        {
          "indexed": false,
          "internalType": "uint128",
          "name": "min",
          "type": "uint128"
        }
      ],
      "name": "MinHueCountPerPositionUpdated",
      "type": "event"
    },
    {
      "anonymous": false,
      "inputs": [
        {
          "indexed": true,
          "internalType": "address",
          "name": "pool",
          "type": "address"
        },
        {
          "indexed": true,
          "internalType": "uint16",
          "name": "poolID",
          "type": "uint16"
        },
        {
          "indexed": false,
          "internalType": "uint64",
          "name": "rewardsPortion",
          "type": "uint64"
        }
      ],
      "name": "PoolAdded",
      "type": "event"
    },
    {
      "anonymous": false,
      "inputs": [
        {
          "indexed": true,
          "internalType": "uint16",
          "name": "poolID",
          "type": "uint16"
        },
        {
          "indexed": false,
          "internalType": "uint64",
          "name": "incentive",
          "type": "uint64"
        }
      ],
      "name": "PoolIncentiveUpdated",
      "type": "event"
    },
    {
      "anonymous": false,
      "inputs": [
        {
          "indexed": false,
          "internalType": "uint256",
          "name": "count",
          "type": "uint256"
        },
        {
          "indexed": false,
          "internalType": "uint64",
          "name": "periods",
          "type": "uint64"
        }
      ],
      "name": "RewardsAccrued",
      "type": "event"
    },
    {
      "anonymous": false,
      "inputs": [
        {
          "indexed": true,
          "internalType": "address",
          "name": "caller",
          "type": "address"
        },
        {
          "indexed": true,
          "internalType": "uint256",
          "name": "nftTokenID",
          "type": "uint256"
        },
        {
          "indexed": false,
          "internalType": "uint256",
          "name": "amount0",
          "type": "uint256"
        },
        {
          "indexed": false,
          "internalType": "uint256",
          "name": "amount1",
          "type": "uint256"
        }
      ],
      "name": "RewardsClaimed",
      "type": "event"
    },
    {
      "anonymous": false,
      "inputs": [
        {
          "indexed": true,
          "internalType": "address",
          "name": "account",
          "type": "address"
        },
        {
          "indexed": true,
          "internalType": "bool",
          "name": "isKickback",
          "type": "bool"
        },
        {
          "indexed": false,
          "internalType": "uint256",
          "name": "tcpRewards",
          "type": "uint256"
        }
      ],
      "name": "RewardsDistributed",
      "type": "event"
    },
    {
      "anonymous": false,
      "inputs": [],
      "name": "Stopped",
      "type": "event"
    },
    {
      "anonymous": false,
      "inputs": [
        {
          "indexed": false,
          "internalType": "uint64",
          "name": "duration",
          "type": "uint64"
        }
      ],
      "name": "TwapDurationUpdated",
      "type": "event"
    },
    {
      "inputs": [],
      "name": "accounting",
      "outputs": [
        {
          "internalType": "contract IAccounting",
          "name": "",
          "type": "address"
        }
      ],
      "stateMutability": "view",
      "type": "function"
    },
    {
      "inputs": [],
      "name": "accrueRewards",
      "outputs": [],
      "stateMutability": "nonpayable",
      "type": "function"
    },
    {
      "inputs": [
        {
          "internalType": "contract IUniswapV3Pool",
          "name": "pool",
          "type": "address"
        },
        {
          "internalType": "uint64",
          "name": "rewardsPortion",
          "type": "uint64"
        }
      ],
      "name": "addIncentivePool",
      "outputs": [],
      "stateMutability": "nonpayable",
      "type": "function"
    },
    {
      "inputs": [
        {
          "components": [
            {
              "internalType": "address",
              "name": "owner",
              "type": "address"
            },
            {
              "internalType": "uint16",
              "name": "poolID",
              "type": "uint16"
            },
            {
              "internalType": "uint256",
              "name": "cumulativeLiquidity",
              "type": "uint256"
            },
            {
              "internalType": "uint256",
              "name": "totalRewards",
              "type": "uint256"
            },
            {
              "internalType": "uint256",
              "name": "lastBlockPositionIncreased",
              "type": "uint256"
            },
            {
              "internalType": "uint128",
              "name": "liquidity",
              "type": "uint128"
            },
            {
              "internalType": "uint64",
              "name": "lastTimeRewarded",
              "type": "uint64"
            },
            {
              "internalType": "int24",
              "name": "tickLower",
              "type": "int24"
            },
            {
              "internalType": "int24",
              "name": "tickUpper",
              "type": "int24"
            },
            {
              "internalType": "uint32",
              "name": "ui",
              "type": "uint32"
            },
            {
              "internalType": "address",
              "name": "kickbackDestination",
              "type": "address"
            },
            {
              "internalType": "uint64",
              "name": "kickbackPortion",
              "type": "uint64"
            }
          ],
          "internalType": "struct IAccounting.PoolPosition",
          "name": "_pt",
          "type": "tuple"
        },
        {
          "components": [
            {
              "internalType": "uint256",
              "name": "totalRewards",
              "type": "uint256"
            },
            {
              "internalType": "uint256",
              "name": "cumulativeLiquidity",
              "type": "uint256"
            }
          ],
          "internalType": "struct IAccounting.RewardStatus",
          "name": "rs",
          "type": "tuple"
        },
        {
          "internalType": "uint64",
          "name": "timeNow",
          "type": "uint64"
        }
      ],
      "name": "calculateUpdatedLiquidityPosition",
      "outputs": [
        {
          "components": [
            {
              "internalType": "address",
              "name": "owner",
              "type": "address"
            },
            {
              "internalType": "uint16",
              "name": "poolID",
              "type": "uint16"
            },
            {
              "internalType": "uint256",
              "name": "cumulativeLiquidity",
              "type": "uint256"
            },
            {
              "internalType": "uint256",
              "name": "totalRewards",
              "type": "uint256"
            },
            {
              "internalType": "uint256",
              "name": "lastBlockPositionIncreased",
              "type": "uint256"
            },
            {
              "internalType": "uint128",
              "name": "liquidity",
              "type": "uint128"
            },
            {
              "internalType": "uint64",
              "name": "lastTimeRewarded",
              "type": "uint64"
            },
            {
              "internalType": "int24",
              "name": "tickLower",
              "type": "int24"
            },
            {
              "internalType": "int24",
              "name": "tickUpper",
              "type": "int24"
            },
            {
              "internalType": "uint32",
              "name": "ui",
              "type": "uint32"
            },
            {
              "internalType": "address",
              "name": "kickbackDestination",
              "type": "address"
            },
            {
              "internalType": "uint64",
              "name": "kickbackPortion",
              "type": "uint64"
            }
          ],
          "internalType": "struct IAccounting.PoolPosition",
          "name": "pt",
          "type": "tuple"
        },
        {
          "internalType": "uint256",
          "name": "rewards",
          "type": "uint256"
        }
      ],
      "stateMutability": "pure",
      "type": "function"
    },
    {
      "inputs": [
        {
          "internalType": "uint256[]",
          "name": "nftTokenIDs",
          "type": "uint256[]"
        },
        {
          "internalType": "uint32",
          "name": "ui",
          "type": "uint32"
        }
      ],
      "name": "claimAllRewards",
      "outputs": [
        {
          "internalType": "uint256",
          "name": "totalAmount0",
          "type": "uint256"
        },
        {
          "internalType": "uint256",
          "name": "totalAmount1",
          "type": "uint256"
        }
      ],
      "stateMutability": "nonpayable",
      "type": "function"
    },
    {
      "inputs": [],
      "name": "countPools",
      "outputs": [
        {
          "internalType": "uint16",
          "name": "",
          "type": "uint16"
        }
      ],
      "stateMutability": "view",
      "type": "function"
    },
    {
      "inputs": [
        {
          "components": [
            {
              "internalType": "address",
              "name": "token0",
              "type": "address"
            },
            {
              "internalType": "address",
              "name": "token1",
              "type": "address"
            },
            {
              "internalType": "uint24",
              "name": "fee",
              "type": "uint24"
            },
            {
              "internalType": "int24",
              "name": "tickLower",
              "type": "int24"
            },
            {
              "internalType": "int24",
              "name": "tickUpper",
              "type": "int24"
            },
            {
              "internalType": "uint256",
              "name": "amount0Desired",
              "type": "uint256"
            },
            {
              "internalType": "uint256",
              "name": "amount1Desired",
              "type": "uint256"
            },
            {
              "internalType": "uint256",
              "name": "amount0Min",
              "type": "uint256"
            },
            {
              "internalType": "uint256",
              "name": "amount1Min",
              "type": "uint256"
            },
            {
              "internalType": "address",
              "name": "recipient",
              "type": "address"
            },
            {
              "internalType": "uint256",
              "name": "deadline",
              "type": "uint256"
            }
          ],
          "internalType": "struct INonfungiblePositionManager.MintParams",
          "name": "params",
          "type": "tuple"
        },
        {
          "internalType": "uint32",
          "name": "ui",
          "type": "uint32"
        }
      ],
      "name": "createLiquidityPosition",
      "outputs": [
        {
          "internalType": "uint256",
          "name": "nftTokenID",
          "type": "uint256"
        },
        {
          "internalType": "uint128",
          "name": "liquidity",
          "type": "uint128"
        }
      ],
      "stateMutability": "payable",
      "type": "function"
    },
    {
      "inputs": [],
      "name": "currentPeriod",
      "outputs": [
        {
          "internalType": "uint64",
          "name": "period",
          "type": "uint64"
        }
      ],
      "stateMutability": "view",
      "type": "function"
    },
    {
      "inputs": [
        {
          "components": [
            {
              "internalType": "uint256",
              "name": "tokenId",
              "type": "uint256"
            },
            {
              "internalType": "uint128",
              "name": "liquidity",
              "type": "uint128"
            },
            {
              "internalType": "uint256",
              "name": "amount0Min",
              "type": "uint256"
            },
            {
              "internalType": "uint256",
              "name": "amount1Min",
              "type": "uint256"
            },
            {
              "internalType": "uint256",
              "name": "deadline",
              "type": "uint256"
            }
          ],
          "internalType": "struct INonfungiblePositionManager.DecreaseLiquidityParams",
          "name": "params",
          "type": "tuple"
        },
        {
          "internalType": "uint32",
          "name": "ui",
          "type": "uint32"
        }
      ],
      "name": "decreaseLiquidityPosition",
      "outputs": [
        {
          "internalType": "uint256",
          "name": "amount0",
          "type": "uint256"
        },
        {
          "internalType": "uint256",
          "name": "amount1",
          "type": "uint256"
        }
      ],
      "stateMutability": "nonpayable",
      "type": "function"
    },
    {
      "inputs": [],
      "name": "deployer",
      "outputs": [
        {
          "internalType": "address",
          "name": "",
          "type": "address"
        }
      ],
      "stateMutability": "view",
      "type": "function"
    },
    {
      "inputs": [],
      "name": "firstPeriod",
      "outputs": [
        {
          "internalType": "uint64",
          "name": "",
          "type": "uint64"
        }
      ],
      "stateMutability": "view",
      "type": "function"
    },
    {
      "inputs": [],
      "name": "governor",
      "outputs": [
        {
          "internalType": "contract IGovernor",
          "name": "",
          "type": "address"
        }
      ],
      "stateMutability": "view",
      "type": "function"
    },
    {
      "inputs": [
        {
          "components": [
            {
              "internalType": "uint256",
              "name": "tokenId",
              "type": "uint256"
            },
            {
              "internalType": "uint256",
              "name": "amount0Desired",
              "type": "uint256"
            },
            {
              "internalType": "uint256",
              "name": "amount1Desired",
              "type": "uint256"
            },
            {
              "internalType": "uint256",
              "name": "amount0Min",
              "type": "uint256"
            },
            {
              "internalType": "uint256",
              "name": "amount1Min",
              "type": "uint256"
            },
            {
              "internalType": "uint256",
              "name": "deadline",
              "type": "uint256"
            }
          ],
          "internalType": "struct INonfungiblePositionManager.IncreaseLiquidityParams",
          "name": "params",
          "type": "tuple"
        },
        {
          "internalType": "uint32",
          "name": "ui",
          "type": "uint32"
        }
      ],
      "name": "increaseLiquidityPosition",
      "outputs": [
        {
          "internalType": "uint128",
          "name": "liquidity",
          "type": "uint128"
        }
      ],
      "stateMutability": "payable",
      "type": "function"
    },
    {
      "inputs": [
        {
          "internalType": "contract IUniswapV3Pool",
          "name": "_collateralPool",
          "type": "address"
        },
        {
          "internalType": "contract IUniswapV3Pool",
          "name": "_protocolPool",
          "type": "address"
        }
      ],
      "name": "init",
      "outputs": [],
      "stateMutability": "nonpayable",
      "type": "function"
    },
    {
      "inputs": [
        {
          "components": [
            {
              "internalType": "address",
              "name": "owner",
              "type": "address"
            },
            {
              "internalType": "uint16",
              "name": "poolID",
              "type": "uint16"
            },
            {
              "internalType": "uint256",
              "name": "cumulativeLiquidity",
              "type": "uint256"
            },
            {
              "internalType": "uint256",
              "name": "totalRewards",
              "type": "uint256"
            },
            {
              "internalType": "uint256",
              "name": "lastBlockPositionIncreased",
              "type": "uint256"
            },
            {
              "internalType": "uint128",
              "name": "liquidity",
              "type": "uint128"
            },
            {
              "internalType": "uint64",
              "name": "lastTimeRewarded",
              "type": "uint64"
            },
            {
              "internalType": "int24",
              "name": "tickLower",
              "type": "int24"
            },
            {
              "internalType": "int24",
              "name": "tickUpper",
              "type": "int24"
            },
            {
              "internalType": "uint32",
              "name": "ui",
              "type": "uint32"
            },
            {
              "internalType": "address",
              "name": "kickbackDestination",
              "type": "address"
            },
            {
              "internalType": "uint64",
              "name": "kickbackPortion",
              "type": "uint64"
            }
          ],
          "internalType": "struct IAccounting.PoolPosition",
          "name": "position",
          "type": "tuple"
        },
        {
          "internalType": "int24",
          "name": "tick",
          "type": "int24"
        }
      ],
      "name": "isLiquidityInRange",
      "outputs": [
        {
          "internalType": "bool",
          "name": "",
          "type": "bool"
        }
      ],
      "stateMutability": "pure",
      "type": "function"
    },
    {
      "inputs": [],
      "name": "lastPeriodGlobalRewardsAccrued",
      "outputs": [
        {
          "internalType": "uint64",
          "name": "",
          "type": "uint64"
        }
      ],
      "stateMutability": "view",
      "type": "function"
    },
    {
      "inputs": [
        {
          "internalType": "contract IUniswapV3Pool",
          "name": "pool",
          "type": "address"
        },
        {
          "internalType": "uint256[]",
          "name": "nftTokenIDs",
          "type": "uint256[]"
        }
      ],
      "name": "liquidateOutofRangePositions",
      "outputs": [],
      "stateMutability": "nonpayable",
      "type": "function"
    },
    {
      "inputs": [],
      "name": "liquidationPenalty",
      "outputs": [
        {
          "internalType": "uint64",
          "name": "",
          "type": "uint64"
        }
      ],
      "stateMutability": "view",
      "type": "function"
    },
    {
      "inputs": [],
      "name": "maxCollateralLiquidityDecreasePerPeriod",
      "outputs": [
        {
          "internalType": "uint64",
          "name": "",
          "type": "uint64"
        }
      ],
      "stateMutability": "view",
      "type": "function"
    },
    {
      "inputs": [
        {
          "internalType": "contract IUniswapV3Pool",
          "name": "",
          "type": "address"
        }
      ],
      "name": "minCollateralLiquidityByPeriod",
      "outputs": [
        {
          "internalType": "uint64",
          "name": "period",
          "type": "uint64"
        },
        {
          "internalType": "uint192",
          "name": "minLiquidity",
          "type": "uint192"
        }
      ],
      "stateMutability": "view",
      "type": "function"
    },
    {
      "inputs": [],
      "name": "minHueCountPerPosition",
      "outputs": [
        {
          "internalType": "uint128",
          "name": "",
          "type": "uint128"
        }
      ],
      "stateMutability": "view",
      "type": "function"
    },
    {
      "inputs": [],
      "name": "nftPositionManager",
      "outputs": [
        {
          "internalType": "contract INonfungiblePositionManager",
          "name": "",
          "type": "address"
        }
      ],
      "stateMutability": "view",
      "type": "function"
    },
    {
      "inputs": [],
      "name": "periodLength",
      "outputs": [
        {
          "internalType": "uint64",
          "name": "",
          "type": "uint64"
        }
      ],
      "stateMutability": "view",
      "type": "function"
    },
    {
      "inputs": [
        {
          "internalType": "uint16",
          "name": "",
          "type": "uint16"
        }
      ],
      "name": "poolConfigForPoolID",
      "outputs": [
        {
          "internalType": "contract IUniswapV3Pool",
          "name": "pool",
          "type": "address"
        },
        {
          "internalType": "uint64",
          "name": "rewardsPortion",
          "type": "uint64"
        }
      ],
      "stateMutability": "view",
      "type": "function"
    },
    {
      "inputs": [
        {
          "internalType": "contract IUniswapV3Pool",
          "name": "",
          "type": "address"
        }
      ],
      "name": "poolIDForPool",
      "outputs": [
        {
          "internalType": "uint16",
          "name": "",
          "type": "uint16"
        }
      ],
      "stateMutability": "view",
      "type": "function"
    },
    {
      "inputs": [
        {
          "internalType": "uint256",
          "name": "nftTokenID",
          "type": "uint256"
        }
      ],
      "name": "removeKickback",
      "outputs": [],
      "stateMutability": "nonpayable",
      "type": "function"
    },
    {
      "inputs": [
        {
          "components": [
            {
              "internalType": "uint256",
              "name": "tokenId",
              "type": "uint256"
            },
            {
              "internalType": "uint128",
              "name": "liquidity",
              "type": "uint128"
            },
            {
              "internalType": "uint256",
              "name": "amount0Min",
              "type": "uint256"
            },
            {
              "internalType": "uint256",
              "name": "amount1Min",
              "type": "uint256"
            },
            {
              "internalType": "uint256",
              "name": "deadline",
              "type": "uint256"
            }
          ],
          "internalType": "struct INonfungiblePositionManager.DecreaseLiquidityParams",
          "name": "params",
          "type": "tuple"
        }
      ],
      "name": "removeLiquidityPosition",
      "outputs": [
        {
          "internalType": "uint256",
          "name": "amount0",
          "type": "uint256"
        },
        {
          "internalType": "uint256",
          "name": "amount1",
          "type": "uint256"
        }
      ],
      "stateMutability": "nonpayable",
      "type": "function"
    },
    {
      "inputs": [
        {
          "internalType": "bool",
          "name": "authorized",
          "type": "bool"
        }
      ],
      "name": "requireAuthorized",
      "outputs": [],
      "stateMutability": "pure",
      "type": "function"
    },
    {
      "inputs": [
        {
          "internalType": "uint64",
          "name": "penalty",
          "type": "uint64"
        }
      ],
      "name": "setLiquidationPenalty",
      "outputs": [],
      "stateMutability": "nonpayable",
      "type": "function"
    },
    {
      "inputs": [
        {
          "internalType": "uint64",
          "name": "decreasePortion",
          "type": "uint64"
        }
      ],
      "name": "setMaxCollateralLiquidityDecreasePerPeriod",
      "outputs": [],
      "stateMutability": "nonpayable",
      "type": "function"
    },
    {
      "inputs": [
        {
          "internalType": "uint128",
          "name": "min",
          "type": "uint128"
        }
      ],
      "name": "setMinHueCountPerPosition",
      "outputs": [],
      "stateMutability": "nonpayable",
      "type": "function"
    },
    {
      "inputs": [
        {
          "internalType": "uint32",
          "name": "duration",
          "type": "uint32"
        }
      ],
      "name": "setTwapDuration",
      "outputs": [],
      "stateMutability": "nonpayable",
      "type": "function"
    },
    {
      "inputs": [],
      "name": "stop",
      "outputs": [],
      "stateMutability": "nonpayable",
      "type": "function"
    },
    {
      "inputs": [],
      "name": "stopped",
      "outputs": [
        {
          "internalType": "bool",
          "name": "",
          "type": "bool"
        }
      ],
      "stateMutability": "view",
      "type": "function"
    },
    {
      "inputs": [],
      "name": "twapDuration",
      "outputs": [
        {
          "internalType": "uint32",
          "name": "",
          "type": "uint32"
        }
      ],
      "stateMutability": "view",
      "type": "function"
    },
    {
      "inputs": [],
      "name": "uniswapV3Factory",
      "outputs": [
        {
          "internalType": "contract IUniswapV3Factory",
          "name": "",
          "type": "address"
        }
      ],
      "stateMutability": "view",
      "type": "function"
    },
    {
      "inputs": [
        {
          "internalType": "uint16",
          "name": "poolID",
          "type": "uint16"
        },
        {
          "internalType": "uint64",
          "name": "incentive",
          "type": "uint64"
        }
      ],
      "name": "updatePoolIncentive",
      "outputs": [],
      "stateMutability": "nonpayable",
      "type": "function"
    },
    {
      "inputs": [
        {
          "internalType": "bytes4",
          "name": "",
          "type": "bytes4"
        }
      ],
      "name": "validUpdate",
      "outputs": [
        {
          "internalType": "bool",
          "name": "",
          "type": "bool"
        }
      ],
      "stateMutability": "view",
      "type": "function"
    },
    {
      "inputs": [],
      "name": "weth",
      "outputs": [
        {
          "internalType": "address",
          "name": "",
          "type": "address"
        }
      ],
      "stateMutability": "view",
      "type": "function"
    },
    {
      "stateMutability": "payable",
      "type": "receive"
    }
  ],
  "bytecode": "0x6101806040526001600260005090905567016345785d8a0000600360006101000a81548167ffffffffffffffff021916908367ffffffffffffffff16021790555066d529ae9e860000600360086101000a81548167ffffffffffffffff021916908367ffffffffffffffff16021790555068056bc75e2d63100000600360106101000a8154816fffffffffffffffffffffffffffffffff02191690836fffffffffffffffffffffffffffffffff160217905550610708600460006101000a81548163ffffffff021916908363ffffffff1602179055506000600460046101000a81548161ffff021916908361ffff160217905550348015620001015760006000fd5b5060405162008279380380620082798339818101604052810190620001279190620006bb565b5b805b6138405b816000015182602001515b815b8073ffffffffffffffffffffffffffffffffffffffff1660808173ffffffffffffffffffffffffffffffffffffffff1660601b815260140150505b508073ffffffffffffffffffffffffffffffffffffffff1660a08173ffffffffffffffffffffffffffffffffffffffff1660601b815260140150505b505060018167ffffffffffffffff16620001d1620005e960201b60201c565b67ffffffffffffffff16811515620001e557fe5b040367ffffffffffffffff1660e08167ffffffffffffffff1660c01b815260080150508067ffffffffffffffff1660c08167ffffffffffffffff1660c01b815260080150505b50806040015173ffffffffffffffffffffffffffffffffffffffff166101608173ffffffffffffffffffffffffffffffffffffffff1660601b81526014015050806060015173ffffffffffffffffffffffffffffffffffffffff166101008173ffffffffffffffffffffffffffffffffffffffff1660601b81526014015050806080015173ffffffffffffffffffffffffffffffffffffffff166101208173ffffffffffffffffffffffffffffffffffffffff1660601b815260140150508060a0015173ffffffffffffffffffffffffffffffffffffffff166101408173ffffffffffffffffffffffffffffffffffffffff1660601b8152601401505060006040518060c00160405280636161189060e01b7bffffffffffffffffffffffffffffffffffffffffffffffffffffffff19167bffffffffffffffffffffffffffffffffffffffffffffffffffffffff191681526020016328d10de860e01b7bffffffffffffffffffffffffffffffffffffffffffffffffffffffff19167bffffffffffffffffffffffffffffffffffffffffffffffffffffffff1916815260200163c7bd867c60e01b7bffffffffffffffffffffffffffffffffffffffffffffffffffffffff19167bffffffffffffffffffffffffffffffffffffffffffffffffffffffff1916815260200163de8925f560e01b7bffffffffffffffffffffffffffffffffffffffffffffffffffffffff19167bffffffffffffffffffffffffffffffffffffffffffffffffffffffff1916815260200163c433c80a60e01b7bffffffffffffffffffffffffffffffffffffffffffffffffffffffff19167bffffffffffffffffffffffffffffffffffffffffffffffffffffffff19168152602001630907653160e01b7bffffffffffffffffffffffffffffffffffffffffffffffffffffffff19167bffffffffffffffffffffffffffffffffffffffffffffffffffffffff191681526020015090506000600090505b815060068110156200059c5760016001600050600084846006811015156200052557fe5b60200201517bffffffffffffffffffffffffffffffffffffffffffffffffffffffff19167bffffffffffffffffffffffffffffffffffffffffffffffffffffffff1916815260200190815260200160002060006101000a81548160ff0219169083151502179055505b808060010191505062000501565b5033600860086101000a81548173ffffffffffffffffffffffffffffffffffffffff021916908373ffffffffffffffffffffffffffffffffffffffff160217905550505b505b5062000790565b600062000603426200060b60201b62001fcd17909060201c565b905080505b90565b6000680100000000000000008210151562000691576040517f08c379a00000000000000000000000000000000000000000000000000000000081526004018080602001828103825260118152602001807f6d6f7265207468616e203634206269747300000000000000000000000000000081526020015060200191505060405180910390fd5b8190506200069a565b919050566200078f565b600081519050620006b58162000772565b5b919050565b600060c08284031215620006cd578081fd5b60405160c081018181106001600160401b0382111715620006ea57fe5b80604052508251620006fc8162000772565b808252506020830151620007108162000772565b806020830152506040830151620007278162000772565b806040830152506200073c60608401620006a4565b60608201526200074f60808401620006a4565b60808201526200076260a08401620006a4565b60a0820152809150505b92915050565b6001600160a01b038116811415156200078b5760006000fd5b5b50565b5b60805160601c60a05160601c60c05160c01c60e05160c01c6101005160601c6101205160601c6101405160601c6101605160601c6179746200090560003980610b9152806111b552806116965280611aa2528061254c5280612d7a52806130e5528061357952806136ab5280613b445280613c3a52806144bb52806145d752806146c65280614d015280614dae5280614e23528061549b52508061135e52806118785250806102ac5280611a6b52806128e15280612a185280612bd05280612e0752806135d552806138a7528061398d52806149c35280614a57528061506c5280615651525080610301528061173a528061496f5280614f4e5280614fae5280615a025280615a56525080611b635280612f2e5280614863525080611c625280612f4f52806148845250806120615280612ea7525080610f695280612182528061231452806126d852806127dc5280612fa852806132df5280613db352806143c7528061477552806151dc52506179746000f3fe6080604052600436106102a45760003560e01c80635b5491821161016e578063c433c80a116100cb578063de8925f51161007f578063f4d8977f11610064578063f4d8977f146109e3578063fbc3a64314610a22578063fbff7efd14610a4e5761035e565b8063de8925f51461098f578063f09a4016146109b95761035e565b8063c7bd867c116100b0578063c7bd867c1461090d578063d2ca211514610937578063d5f39488146109635761035e565b8063c433c80a146108b7578063c4e3a63b146108e15761035e565b806381cc8807116101225780638efaed89116101075780638efaed89146108355780639624e83e1461085f578063bdd266cd1461088b5761035e565b806381cc8807146107ca57806384397888146108095761035e565b80636fcdfed6116101535780636fcdfed61461073357806375f12b211461075f5780637af36e3f1461078b5761035e565b80635b549182146106dd57806361611890146107095761035e565b80631df0f8a31161021c5780633e948372116101d05780634b257c24116101b55780634b257c24146106315780634b8295731461066f57806350b40400146106ad5761035e565b80633e948372146105db5780633fc8cef3146106055761035e565b8063265e8a6411610201578063265e8a641461055457806326d895451461058557806328d10de8146105b15761035e565b80631df0f8a3146104e957806323f5589a146105285761035e565b80630c340a2411610273578063113cf1ab11610258578063113cf1ab1461045457806315398ae7146104925780631afdbce4146104d15761035e565b80630c340a24146103fc5780630dae9f52146104285761035e565b8063039d10e814610364578063060406181461038e57806307da68f5146103ba57806309076531146103d25761035e565b3661035e575b7f000000000000000000000000000000000000000000000000000000000000000073ffffffffffffffffffffffffffffffffffffffff163373ffffffffffffffffffffffffffffffffffffffff16148061034f57507f000000000000000000000000000000000000000000000000000000000000000073ffffffffffffffffffffffffffffffffffffffff163373ffffffffffffffffffffffffffffffffffffffff16145b151561035b5760006000fd5b5b005b60006000fd5b3480156103715760006000fd5b5061038c6004803603810190610387919061662e565b610a8d565b005b34801561039b5760006000fd5b506103a4610e9b565b6040516103b191906177db565b60405180910390f35b3480156103c75760006000fd5b506103d0610eb3565b005b3480156103df5760006000fd5b506103fa60048036038101906103f59190616c9a565b610ed3565b005b3480156104095760006000fd5b50610412610f67565b60405161041f919061707f565b60405180910390f35b3480156104355760006000fd5b5061043e610f8b565b60405161044b91906177db565b60405180910390f35b3480156104615760006000fd5b5061047c60048036038101906104779190616593565b610fa5565b6040516104899190617043565b60405180910390f35b34801561049f5760006000fd5b506104ba60048036038101906104b59190616767565b610fca565b6040516104c892919061776f565b60405180910390f35b3480156104de5760006000fd5b506104e76110e9565b005b3480156104f65760006000fd5b50610511600480360381019061050c91906164ea565b611126565b60405161051f92919061776f565b60405180910390f35b3480156105355760006000fd5b5061053e611319565b60405161054b91906177db565b60405180910390f35b61056e6004803603810190610569919061681b565b611333565b60405161057c929190617744565b60405180910390f35b3480156105925760006000fd5b5061059b611528565b6040516105a891906177ab565b60405180910390f35b3480156105be5760006000fd5b506105d960048036038101906105d49190616b94565b61153e565b005b3480156105e85760006000fd5b5061060360048036038101906105fe9190616bd0565b611648565b005b3480156106125760006000fd5b5061061b611738565b6040516106289190616f1c565b60405180910390f35b34801561063e5760006000fd5b50610659600480360381019061065491906169de565b61175c565b6040516106669190617043565b60405180910390f35b34801561067c5760006000fd5b5061069760048036038101906106929190616607565b61177b565b6040516106a491906176cc565b60405180910390f35b6106c760048036038101906106c291906167dc565b6117a1565b6040516106d491906176a8565b60405180910390f35b3480156106ea5760006000fd5b506106f3611876565b60405161070091906170cf565b60405180910390f35b3480156107165760006000fd5b50610731600480360381019061072c91906166c5565b61189a565b005b3480156107405760006000fd5b506107496119b7565b60405161075691906176cc565b60405180910390f35b34801561076c5760006000fd5b506107756119cb565b6040516107829190617043565b60405180910390f35b3480156107985760006000fd5b506107b360048036038101906107ae9190616a19565b6119de565b6040516107c1929190617686565b60405180910390f35b3480156107d75760006000fd5b506107f260048036038101906107ed9190616607565b611a0a565b6040516108009291906177f7565b60405180910390f35b3480156108165760006000fd5b5061081f611a69565b60405161082c91906170a7565b60405180910390f35b3480156108425760006000fd5b5061085d60048036038101906108589190616545565b611a8d565b005b34801561086c5760006000fd5b50610875611aa0565b6040516108829190617057565b60405180910390f35b3480156108985760006000fd5b506108a1611ac4565b6040516108ae91906177db565b60405180910390f35b3480156108c45760006000fd5b506108df60048036038101906108da9190616c73565b611ade565b005b3480156108ee5760006000fd5b506108f7611b61565b60405161090491906177db565b60405180910390f35b34801561091a5760006000fd5b5061093560048036038101906109309190616c9a565b611b85565b005b3480156109445760006000fd5b5061094d611c60565b60405161095a91906177db565b60405180910390f35b3480156109705760006000fd5b50610979611c84565b6040516109869190616f1c565b60405180910390f35b34801561099c5760006000fd5b506109b760048036038101906109b29190616b0c565b611caa565b005b3480156109c65760006000fd5b506109e160048036038101906109dc9190616689565b611d2d565b005b3480156109f05760006000fd5b50610a0b6004803603810190610a069190616728565b611e27565b604051610a1992919061776f565b60405180910390f35b348015610a2f5760006000fd5b50610a38611f50565b604051610a4591906176a8565b60405180910390f35b348015610a5b5760006000fd5b50610a766004803603810190610a719190616b6d565b611f72565b604051610a8492919061723b565b60405180910390f35b610a9b61205f63ffffffff16565b610aa961217263ffffffff16565b6000600660005060008573ffffffffffffffffffffffffffffffffffffffff1673ffffffffffffffffffffffffffffffffffffffff16815260200190815260200160002060009054906101000a900461ffff169050610b0d8161229f63ffffffff16565b610b1561613e565b6000848490509050600043905060006040518060400160405280600115158152602001610b478a61231063ffffffff16565b60020b8152602001509050610b5a616204565b610b6861245c63ffffffff16565b67ffffffffffffffff1681608001909081815260200150506000600090505b84811015610e7e577f000000000000000000000000000000000000000000000000000000000000000073ffffffffffffffffffffffffffffffffffffffff1663f34348f18a8a848181101515610bd957fe5b905060200201356040518263ffffffff1660e01b8152600401610bfc91906176e2565b6101806040518083038186803b158015610c165760006000fd5b505afa158015610c2b573d600060003e3d6000fd5b505050506040513d601f19601f82011682018060405250810190610c4f91906168fc565b955085508661ffff16866020015161ffff16141515610c6d57610e71565b610c8186846020015161247763ffffffff16565b15610c8b57610e71565b838660800151101515610c9d57610e71565b610cac866124aa63ffffffff16565b955085508888828181101515610cbe57fe5b905060200201358260000190908181526020015050610cef82600001516000600089600001516128db63ffffffff16565b5050610d4a610d3d600360089054906101000a900467ffffffffffffffff1667ffffffffffffffff168860a001516fffffffffffffffffffffffffffffffff16612b0a90919063ffffffff16565b612b30909063ffffffff16565b82602001906fffffffffffffffffffffffffffffffff1690816fffffffffffffffffffffffffffffffff1681526020015050610d8c8233612bca63ffffffff16565b5050610dbb82602001518760a001516fffffffffffffffffffffffffffffffff16612cb590919063ffffffff16565b82602001906fffffffffffffffffffffffffffffffff1690816fffffffffffffffffffffffffffffffff1681526020015050610e01828760000151612bca63ffffffff16565b5050610e1882600001518785612d6263ffffffff16565b3373ffffffffffffffffffffffffffffffffffffffff168989838181101515610e3d57fe5b905060200201357f6ba13b7ae6048936f291047829a5de36835ad46b52453fff379900999074709260405160405180910390a35b8080600101915050610b87565b505050505050505b5b610e95612e9863ffffffff16565b5b505050565b6000610eab612f2a63ffffffff16565b905080505b90565b610ec1612fa363ffffffff16565b610ecf61300363ffffffff16565b5b5b565b610ee1612fa363ffffffff16565b6706f05b59d3b200008167ffffffffffffffff16101515610f025760006000fd5b80600360086101000a81548167ffffffffffffffff021916908367ffffffffffffffff1602179055507f78244e8e46597270e2f0ae9c6baded3ba10f1b3f03316f89e49bbfeb1c06786881604051610f5a91906177db565b60405180910390a15b5b50565b7f000000000000000000000000000000000000000000000000000000000000000081565b600860009054906101000a900467ffffffffffffffff1681565b600160005060205280600052604060002060009150909054906101000a900460ff1681565b60006000610fdc61205f63ffffffff16565b610fea61304d63ffffffff16565b6000610fff84600001516130d863ffffffff16565b905061101481608001516131ec63ffffffff16565b8060a0015184602001906fffffffffffffffffffffffffffffffff1690816fffffffffffffffffffffffffffffffff168152602001505061105f848260000151612bca63ffffffff16565b809350819450505061108984600001518261107e61323463ffffffff16565b612d6263ffffffff16565b83600001517f1bd2c24817047e88025a4688c0fba3903e750cc05d80857de4201f42ec59bcf284846040516110bf92919061776f565b60405180910390a2828292509250506110d456505b5b6110e3612e9863ffffffff16565b5b915091565b6110f761205f63ffffffff16565b61110561304d63ffffffff16565b61111361324063ffffffff16565b5b5b611123612e9863ffffffff16565b5b565b6000600061113861205f63ffffffff16565b61114661304d63ffffffff16565b600085859050905061115661613e565b6000600060006000600090505b858110156112eb578a8a82818110151561117957fe5b9050602002013593508350611193846130d863ffffffff16565b945084508885610120019063ffffffff16908163ffffffff16815260200150507f000000000000000000000000000000000000000000000000000000000000000073ffffffffffffffffffffffffffffffffffffffff1663816aaa2585876040518363ffffffff1660e01b815260040161120e929190617723565b600060405180830381600087803b1580156112295760006000fd5b505af115801561123e573d600060003e3d6000fd5b505050506112568460006000336128db63ffffffff16565b809350819450505061127183896134ba90919063ffffffff16565b9750875061128883896134ba90919063ffffffff16565b96508650833373ffffffffffffffffffffffffffffffffffffffff167f56253d287efacdb2c4cd76dd03624a4821c1ce721d1152e8f5f5718f6087c9bf85856040516112d592919061776f565b60405180910390a35b8080600101915050611163565b5086869650965050505050506113015650505050505b5b611310612e9863ffffffff16565b5b935093915050565b600360089054906101000a900467ffffffffffffffff1681565b6000600061134561205f63ffffffff16565b61135361217263ffffffff16565b6000600660005060007f000000000000000000000000000000000000000000000000000000000000000073ffffffffffffffffffffffffffffffffffffffff16631698ee82886000015189602001518a604001516040518463ffffffff1660e01b81526004016113c593929190616f9b565b60206040518083038186803b1580156113de5760006000fd5b505afa1580156113f3573d600060003e3d6000fd5b505050506040513d601f19601f8201168201806040525081019061141791906164c3565b73ffffffffffffffffffffffffffffffffffffffff1673ffffffffffffffffffffffffffffffffffffffff16815260200190815260200160002060009054906101000a900461ffff1690506114718161229f63ffffffff16565b6114808561354363ffffffff16565b80935081945050506114a483828760600151886080015186896136a963ffffffff16565b828161ffff163373ffffffffffffffffffffffffffffffffffffffff167f87c666eb8f5e2d1a47a2af419127c84ea830d86b5f75e12ca3dafa33323d912288606001518960800151876040516114fc93929190617274565b60405180910390a48282925092505061151156505b5b611520612e9863ffffffff16565b5b9250929050565b600460009054906101000a900463ffffffff1681565b61154c612fa363ffffffff16565b61155b8261229f63ffffffff16565b61156961324063ffffffff16565b80600560005060008461ffff1661ffff16815260200190815260200160002060005060000160146101000a81548167ffffffffffffffff021916908367ffffffffffffffff16021790555060006115c461380263ffffffff16565b111515611606576040517f08c379a00000000000000000000000000000000000000000000000000000000081526004016115fd90617369565b60405180910390fd5b8161ffff167fcf476913af040a8c0a50588902fc980c73de756444694afb625e05906334404f8260405161163a91906177db565b60405180910390a25b5b5050565b61165661205f63ffffffff16565b61166461217263ffffffff16565b6000611675826130d863ffffffff16565b9050600081610120019063ffffffff16908163ffffffff16815260200150507f000000000000000000000000000000000000000000000000000000000000000073ffffffffffffffffffffffffffffffffffffffff1663816aaa2583836040518363ffffffff1660e01b81526004016116ef929190617723565b600060405180830381600087803b15801561170a5760006000fd5b505af115801561171f573d600060003e3d6000fd5b50505050505b5b611734612e9863ffffffff16565b5b50565b7f000000000000000000000000000000000000000000000000000000000000000081565b600061176e838361247763ffffffff16565b9050611775565b92915050565b600660005060205280600052604060002060009150909054906101000a900461ffff1681565b60006117b161205f63ffffffff16565b6117bf61217263ffffffff16565b60006117d484600001356130d863ffffffff16565b90508281610120019063ffffffff16908163ffffffff16815260200150506118018461389f63ffffffff16565b9150815061181a81856000013584613a5763ffffffff16565b83600001357fcc5b49b47bfd2f61894e4c8977343543aa054a11ae847be904355459ce55dcd98360405161184e91906176a8565b60405180910390a28191505061186056505b5b61186f612e9863ffffffff16565b5b92915050565b7f000000000000000000000000000000000000000000000000000000000000000081565b6118a8612fa363ffffffff16565b6000600660005060008473ffffffffffffffffffffffffffffffffffffffff1673ffffffffffffffffffffffffffffffffffffffff16815260200190815260200160002060009054906101000a900461ffff1661ffff16141515611941576040517f08c379a0000000000000000000000000000000000000000000000000000000008152600401611938906173e7565b60405180910390fd5b61194f61324063ffffffff16565b61195f8282613ccf63ffffffff16565b61ffff168273ffffffffffffffffffffffffffffffffffffffff167fb42c51dce17f5346a481b9dd503edc20c8b6de38b22e12b35a5c77c131fb38ac836040516119a991906177db565b60405180910390a35b5b5050565b600460049054906101000a900461ffff1681565b600060009054906101000a900460ff1681565b6119e661613e565b60006119f985858561413963ffffffff16565b91509150611a02565b935093915050565b60076000506020528060005260406000206000915090508060000160009054906101000a900467ffffffffffffffff16908060000160089054906101000a900477ffffffffffffffffffffffffffffffffffffffffffffffff16905082565b7f000000000000000000000000000000000000000000000000000000000000000081565b611a9c8161427163ffffffff16565b5b50565b7f000000000000000000000000000000000000000000000000000000000000000081565b600360009054906101000a900467ffffffffffffffff1681565b611aec612fa363ffffffff16565b61012c8163ffffffff1610151515611b045760006000fd5b80600460006101000a81548163ffffffff021916908363ffffffff1602179055507f811ba52920ff121eccd59ee98068330fc6736094b9a3fab10ada70fb0cd2f37081604051611b5491906177c3565b60405180910390a15b5b50565b7f000000000000000000000000000000000000000000000000000000000000000081565b611b93612fa363ffffffff16565b80600360006101000a81548167ffffffffffffffff021916908367ffffffffffffffff160217905550600360009054906101000a900467ffffffffffffffff1667ffffffffffffffff166000101515611bec5760006000fd5b670de0b6b3a7640000600360009054906101000a900467ffffffffffffffff1667ffffffffffffffff1611151515611c245760006000fd5b7f41785a43e8509555b296851de25b00003ca4ca1c572c807cb301d4a0fb9582d481604051611c5391906177db565b60405180910390a15b5b50565b7f000000000000000000000000000000000000000000000000000000000000000081565b600860089054906101000a900473ffffffffffffffffffffffffffffffffffffffff1681565b611cb8612fa363ffffffff16565b80600360106101000a8154816fffffffffffffffffffffffffffffffff02191690836fffffffffffffffffffffffffffffffff1602179055507f755043e33e8e4c87253e98c56c011cc9905bf88318997b89b3520a54b3c5f17081604051611d2091906176a8565b60405180910390a15b5b50565b611d8c600860089054906101000a900473ffffffffffffffffffffffffffffffffffffffff1673ffffffffffffffffffffffffffffffffffffffff163373ffffffffffffffffffffffffffffffffffffffff161461427163ffffffff16565b600860086101000a81549073ffffffffffffffffffffffffffffffffffffffff0219169055600161ffff16611dc983610bb8613ccf63ffffffff16565b61ffff16141515611e0f576040517f08c379a0000000000000000000000000000000000000000000000000000000008152600401611e06906174a4565b60405180910390fd5b611e21816103e8613ccf63ffffffff16565b505b5050565b60006000611e3961205f63ffffffff16565b611e4761217263ffffffff16565b6000611e5c85600001356130d863ffffffff16565b9050611e7181608001516131ec63ffffffff16565b8381610120019063ffffffff16908163ffffffff1681526020015050611eb185803603810190611ea19190616767565b8260000151612bca63ffffffff16565b8093508194505050611eee818660000135876020016020810190611ed59190616b0c565b611ee361323463ffffffff16565b6142ed63ffffffff16565b84600001357ffafb1711250bf0d3906bfd9c4386a9a5a5fdf9ac1facdc9dfd2addad7d3f72e78484604051611f2492919061776f565b60405180910390a281829250925050611f3956505b5b611f48612e9863ffffffff16565b5b9250929050565b600360109054906101000a90046fffffffffffffffffffffffffffffffff1681565b60056000506020528060005260406000206000915090508060000160009054906101000a900473ffffffffffffffffffffffffffffffffffffffff16908060000160149054906101000a900467ffffffffffffffff16905082565b60006801000000000000000082101515612052576040517f08c379a00000000000000000000000000000000000000000000000000000000081526004018080602001828103825260118152602001807f6d6f7265207468616e203634206269747300000000000000000000000000000081526020015060200191505060405180910390fd5b81905061205a565b919050565b7f000000000000000000000000000000000000000000000000000000000000000073ffffffffffffffffffffffffffffffffffffffff1663e97dcb626040518163ffffffff1660e01b8152600401600060405180830381600087803b1580156120c85760006000fd5b505af11580156120dd573d600060003e3d6000fd5b50505050600260026000505414151515612162576040517f08c379a000000000000000000000000000000000000000000000000000000000815260040180806020018281038252600d8152602001807f4c50205265656e7472616e63790000000000000000000000000000000000000081526020015060200191505060405180910390fd5b600260026000508190909055505b565b61218061304d63ffffffff16565b7f000000000000000000000000000000000000000000000000000000000000000073ffffffffffffffffffffffffffffffffffffffff1663bf86d6906040518163ffffffff1660e01b815260040160206040518083038186803b1580156121e75760006000fd5b505afa1580156121fc573d600060003e3d6000fd5b505050506040513d60208110156122135760006000fd5b810190808051906020019092919050505015151561229c576040517f08c379a00000000000000000000000000000000000000000000000000000000081526004018080602001828103825260118152602001807f50726f746f636f6c2073687574646f776e00000000000000000000000000000081526020015060200191505060405180910390fd5b5b565b8061ffff1660001080156122cb5750600460049054906101000a900461ffff1661ffff168161ffff1611155b151561230c576040517f08c379a000000000000000000000000000000000000000000000000000000000815260040161230390617426565b60405180910390fd5b5b50565b60007f000000000000000000000000000000000000000000000000000000000000000073ffffffffffffffffffffffffffffffffffffffff1663d3419bf36040518163ffffffff1660e01b815260040160206040518083038186803b1580156123795760006000fd5b505afa15801561238e573d600060003e3d6000fd5b505050506040513d601f19601f820116820180604052508101906123b291906165e0565b73ffffffffffffffffffffffffffffffffffffffff1663fcebd71c83600460009054906101000a900463ffffffff166040518363ffffffff1660e01b81526004016123fe929190617206565b60206040518083038186803b1580156124175760006000fd5b505afa15801561242c573d600060003e3d6000fd5b505050506040513d601f19601f820116820180604052508101906124509190616701565b9050612457565b919050565b600061246f42611fcd909063ffffffff16565b905080505b90565b60008160020b8360e0015160020b1315801561249d575082610100015160020b8260020b125b90506124a4565b92915050565b6124b261613e565b60006124c261475d63ffffffff16565b905060006124d58261485c63ffffffff16565b905060008460c001519050600060008267ffffffffffffffff1614612508576125038261485c63ffffffff16565b61250b565b60005b90508067ffffffffffffffff168367ffffffffffffffff1611151561253657859450505050506128d6565b61254461324063ffffffff16565b6000612649877f000000000000000000000000000000000000000000000000000000000000000073ffffffffffffffffffffffffffffffffffffffff16631cef92b1600560005060008c6020015161ffff1661ffff16815260200190815260200160002060005060000160009054906101000a900473ffffffffffffffffffffffffffffffffffffffff166040518263ffffffff1660e01b81526004016125eb91906170f7565b60406040518083038186803b1580156126045760006000fd5b505afa158015612619573d600060003e3d6000fd5b505050506040513d601f19601f8201168201806040525081019061263d9190616ac0565b8761413963ffffffff16565b809250819750505060008111156128c457600073ffffffffffffffffffffffffffffffffffffffff1686610140015173ffffffffffffffffffffffffffffffffffffffff16141580156126ab5750600086610160015167ffffffffffffffff16115b156127da5760006126d487610160015167ffffffffffffffff1683612b0a90919063ffffffff16565b90507f000000000000000000000000000000000000000000000000000000000000000073ffffffffffffffffffffffffffffffffffffffff16634d6729f5886101400151836040518363ffffffff1660e01b8152600401612736929190616fda565b600060405180830381600087803b1580156127515760006000fd5b505af1158015612766573d600060003e3d6000fd5b505050506001151587610140015173ffffffffffffffffffffffffffffffffffffffff167f8079a05488a0f375c08504c3ba8b3a1371f5a192b7a141bc9294ef7ad41389d9836040516127b991906176e2565b60405180910390a36127d481836148e490919063ffffffff16565b91508150505b7f000000000000000000000000000000000000000000000000000000000000000073ffffffffffffffffffffffffffffffffffffffff16634d6729f58760000151836040518363ffffffff1660e01b8152600401612839929190616fda565b600060405180830381600087803b1580156128545760006000fd5b505af1158015612869573d600060003e3d6000fd5b5050505060001515866000015173ffffffffffffffffffffffffffffffffffffffff167f8079a05488a0f375c08504c3ba8b3a1371f5a192b7a141bc9294ef7ad41389d9836040516128bb91906176e2565b60405180910390a35b85955050505050506128d65650505050505b919050565b600060007f000000000000000000000000000000000000000000000000000000000000000073ffffffffffffffffffffffffffffffffffffffff1663fc6f78656040518060800160405280898152602001600073ffffffffffffffffffffffffffffffffffffffff1681526020016fffffffffffffffffffffffffffffffff6fffffffffffffffffffffffffffffffff1681526020016fffffffffffffffffffffffffffffffff6fffffffffffffffffffffffffffffffff168152602001506040518263ffffffff1660e01b81526004016129b691906174e3565b604060405180830381600087803b1580156129d15760006000fd5b505af11580156129e6573d600060003e3d6000fd5b505050506040513d601f19601f82011682018060405250810190612a0a9190616c4d565b8092508193505050600060007f000000000000000000000000000000000000000000000000000000000000000073ffffffffffffffffffffffffffffffffffffffff166399fbab88896040518263ffffffff1660e01b8152600401612a6f91906176e2565b6101806040518083038186803b158015612a895760006000fd5b505afa158015612a9e573d600060003e3d6000fd5b505050506040513d601f19601f82011682018060405250810190612ac29190616ce8565b5050505050505050935093505050612ae182888761496d63ffffffff16565b612af281878761496d63ffffffff16565b8383935093505050612b015650505b94509492505050565b6000612b258383670de0b6b3a7640000614aed63ffffffff16565b905080505b92915050565b600070010000000000000000000000000000000082101515612bbd576040517f08c379a00000000000000000000000000000000000000000000000000000000081526004018080602001828103825260128152602001807f6d6f7265207468616e203132382062697473000000000000000000000000000081526020015060200191505060405180910390fd5b819050612bc5565b919050565b600060007f000000000000000000000000000000000000000000000000000000000000000073ffffffffffffffffffffffffffffffffffffffff16630c49ccbe856040518263ffffffff1660e01b8152600401612c279190617542565b604060405180830381600087803b158015612c425760006000fd5b505af1158015612c57573d600060003e3d6000fd5b505050506040513d601f19601f82011682018060405250810190612c7b9190616c4d565b8092508193505050612ca1846000015185604001518660600151866128db63ffffffff16565b5050808191509150612cae565b9250929050565b6000826fffffffffffffffffffffffffffffffff168284039150816fffffffffffffffffffffffffffffffff1611151515612d5b576040517f08c379a000000000000000000000000000000000000000000000000000000000815260040180806020018281038252600d8152602001807f7375622d756e646572666c6f770000000000000000000000000000000000000081526020015060200191505060405180910390fd5b5b92915050565b612d7882848460a00151846142ed63ffffffff16565b7f000000000000000000000000000000000000000000000000000000000000000073ffffffffffffffffffffffffffffffffffffffff166326879a4e846040518263ffffffff1660e01b8152600401612dd191906176e2565b600060405180830381600087803b158015612dec5760006000fd5b505af1158015612e01573d600060003e3d6000fd5b505050507f000000000000000000000000000000000000000000000000000000000000000073ffffffffffffffffffffffffffffffffffffffff166342966c68846040518263ffffffff1660e01b8152600401612e5e91906176e2565b600060405180830381600087803b158015612e795760006000fd5b505af1158015612e8e573d600060003e3d6000fd5b505050505b505050565b600160026000508190909055507f000000000000000000000000000000000000000000000000000000000000000073ffffffffffffffffffffffffffffffffffffffff1663e9fad8ee6040518163ffffffff1660e01b8152600401600060405180830381600087803b158015612f0e5760006000fd5b505af1158015612f23573d600060003e3d6000fd5b505050505b565b60007f00000000000000000000000000000000000000000000000000000000000000007f000000000000000000000000000000000000000000000000000000000000000067ffffffffffffffff16612f8661245c63ffffffff16565b67ffffffffffffffff16811515612f9957fe5b0403905080505b90565b6130007f000000000000000000000000000000000000000000000000000000000000000073ffffffffffffffffffffffffffffffffffffffff163373ffffffffffffffffffffffffffffffffffffffff161461427163ffffffff16565b5b565b6001600060006101000a81548160ff0219169083151502179055507f7acc84e34091ae817647a4c49116f5cc07f319078ba80f8f5fde37ea7e25cbd660405160405180910390a15b565b600060009054906101000a900460ff161515156130d5576040517f08c379a00000000000000000000000000000000000000000000000000000000081526004018080602001828103825260138152602001807f436f6e74726163742069732073746f707065640000000000000000000000000081526020015060200191505060405180910390fd5b5b565b6130e061613e565b61319a7f000000000000000000000000000000000000000000000000000000000000000073ffffffffffffffffffffffffffffffffffffffff1663f34348f1846040518263ffffffff1660e01b815260040161313c91906176e2565b6101806040518083038186803b1580156131565760006000fd5b505afa15801561316b573d600060003e3d6000fd5b505050506040513d601f19601f8201168201806040525081019061318f91906168fc565b6124aa63ffffffff16565b905080506131df816000015173ffffffffffffffffffffffffffffffffffffffff163373ffffffffffffffffffffffffffffffffffffffff161461427163ffffffff16565b8090506131e7565b919050565b4381101515613230576040517f08c379a000000000000000000000000000000000000000000000000000000000815260040161322790617465565b60405180910390fd5b5b50565b61323c616248565b5b90565b6000613250614bee63ffffffff16565b9050600860009054906101000a900467ffffffffffffffff1667ffffffffffffffff168167ffffffffffffffff1611151561328b57506134b8565b6000600860009054906101000a900467ffffffffffffffff1682039050600061384067ffffffffffffffff16620151808115156132c457fe5b0467ffffffffffffffff1661338d8367ffffffffffffffff167f000000000000000000000000000000000000000000000000000000000000000073ffffffffffffffffffffffffffffffffffffffff166318c7de176040518163ffffffff1660e01b8152600401602060405180830381600087803b1580156133465760006000fd5b505af115801561335b573d600060003e3d6000fd5b505050506040513d601f19601f8201168201806040525081019061337f9190616bec565b614c1690919063ffffffff16565b81151561339657fe5b0490506000600460049054906101000a900461ffff169050600060006133c061380263ffffffff16565b90506001915081505b8261ffff168261ffff1611151561344f5761344182613435600560005060008661ffff1661ffff16815260200190815260200160002060005060000160149054906101000a900467ffffffffffffffff1667ffffffffffffffff168488614aed9092919063ffffffff16565b87614cb463ffffffff16565b5b81806001019250506133c9565b85600860006101000a81548167ffffffffffffffff021916908367ffffffffffffffff1602179055507f095a67d1e9698fe0eebf9cff79a22f6423cebcb4e386a0bdd7e12330d86381ed84866040516134a9929190617788565b60405180910390a15050505050505b565b6000828284019150811015151561353c576040517f08c379a000000000000000000000000000000000000000000000000000000000815260040180806020018281038252600c8152602001807f6164642d6f766572666c6f77000000000000000000000000000000000000000081526020015060200191505060405180910390fd5b5b92915050565b6000600061355f83600001518460a00151614f4c63ffffffff16565b61357783602001518460c00151614f4c63ffffffff16565b7f000000000000000000000000000000000000000000000000000000000000000083610120019073ffffffffffffffffffffffffffffffffffffffff16908173ffffffffffffffffffffffffffffffffffffffff16815260200150507f000000000000000000000000000000000000000000000000000000000000000073ffffffffffffffffffffffffffffffffffffffff166388316456846040518263ffffffff1660e01b815260040161362c91906175d4565b608060405180830381600087803b1580156136475760006000fd5b505af115801561365c573d600060003e3d6000fd5b505050506040513d601f19601f820116820180604052508101906136809190616c08565b90505080925081935050506136a38360000151846020015161504c63ffffffff16565b5b915091565b7f000000000000000000000000000000000000000000000000000000000000000073ffffffffffffffffffffffffffffffffffffffff166375ea13ca33886040518363ffffffff1660e01b8152600401613704929190616f6c565b600060405180830381600087803b15801561371f5760006000fd5b505af1158015613734573d600060003e3d6000fd5b5050505061374061613e565b33816000019073ffffffffffffffffffffffffffffffffffffffff16908173ffffffffffffffffffffffffffffffffffffffff168152602001505085816020019061ffff16908161ffff1681526020015050848160e0019060020b908160020b815260200150508381610100019060020b908160020b815260200150508181610120019063ffffffff16908163ffffffff16815260200150506137f86137eb826124aa63ffffffff16565b8885613a5763ffffffff16565b505b505050505050565b60006000600190505b600460049054906101000a900461ffff1661ffff168161ffff1611151561389357613881600560005060008361ffff1661ffff16815260200190815260200160002060005060000160149054906101000a900467ffffffffffffffff1667ffffffffffffffff16836134ba90919063ffffffff16565b915081505b808060010191505061380b565b5080905061389c565b90565b6000600060007f000000000000000000000000000000000000000000000000000000000000000073ffffffffffffffffffffffffffffffffffffffff166399fbab8885600001356040518263ffffffff1660e01b815260040161390291906176e2565b6101806040518083038186803b15801561391c5760006000fd5b505afa158015613931573d600060003e3d6000fd5b505050506040513d601f19601f820116820180604052508101906139559190616ce8565b5050505050505050935093505050613977828560200135614f4c63ffffffff16565b61398b818560400135614f4c63ffffffff16565b7f000000000000000000000000000000000000000000000000000000000000000073ffffffffffffffffffffffffffffffffffffffff1663219f5d17856040518263ffffffff1660e01b81526004016139e4919061758f565b606060405180830381600087803b1580156139ff5760006000fd5b505af1158015613a14573d600060003e3d6000fd5b505050506040513d601f19601f82011682018060405250810190613a389190616b33565b90505080935050613a4f828261504c63ffffffff16565b50505b919050565b600060056000506000856020015161ffff1661ffff16815260200190815260200160002060005060000160009054906101000a900473ffffffffffffffffffffffffffffffffffffffff1690506000613ab58261231063ffffffff16565b9050613ac7858261247763ffffffff16565b1515613b08576040517f08c379a0000000000000000000000000000000000000000000000000000000008152600401613aff906172ac565b60405180910390fd5b613b42858284613b37878a60a001516fffffffffffffffffffffffffffffffff1661510b90919063ffffffff16565b6151b863ffffffff16565b7f000000000000000000000000000000000000000000000000000000000000000073ffffffffffffffffffffffffffffffffffffffff16631428561d83856040518363ffffffff1660e01b8152600401613b9d9291906171c5565b600060405180830381600087803b158015613bb85760006000fd5b505af1158015613bcd573d600060003e3d6000fd5b50505050670de0b6b3a7640000600360009054906101000a900467ffffffffffffffff1667ffffffffffffffff16108015613c145750600161ffff16856020015161ffff16145b15613c2957613c28826153b363ffffffff16565b5b4385608001909081815260200150507f000000000000000000000000000000000000000000000000000000000000000073ffffffffffffffffffffffffffffffffffffffff1663816aaa2585876040518363ffffffff1660e01b8152600401613c93929190617723565b600060405180830381600087803b158015613cae5760006000fd5b505af1158015613cc3573d600060003e3d6000fd5b5050505050505b505050565b60006000600660005060008573ffffffffffffffffffffffffffffffffffffffff1673ffffffffffffffffffffffffffffffffffffffff16815260200190815260200160002060009054906101000a900461ffff1661ffff16141515613d6a576040517f08c379a0000000000000000000000000000000000000000000000000000000008152600401613d619061732a565b60405180910390fd5b61ffff61ffff166004600481819054906101000a900461ffff1660010191906101000a81548161ffff021916908361ffff160217905561ffff16101515613db15760006000fd5b7f000000000000000000000000000000000000000000000000000000000000000073ffffffffffffffffffffffffffffffffffffffff1663d3419bf36040518163ffffffff1660e01b815260040160206040518083038186803b158015613e185760006000fd5b505afa158015613e2d573d600060003e3d6000fd5b505050506040513d601f19601f82011682018060405250810190613e5191906165e0565b73ffffffffffffffffffffffffffffffffffffffff1663407431f7846040518263ffffffff1660e01b8152600401613e8991906170f7565b600060405180830381600087803b158015613ea45760006000fd5b505af1158015613eb9573d600060003e3d6000fd5b50505050600460049054906101000a900461ffff169050805060405180604001604052808473ffffffffffffffffffffffffffffffffffffffff1681526020018367ffffffffffffffff16815260200150600560005060008361ffff1661ffff16815260200190815260200160002060005060008201518160000160006101000a81548173ffffffffffffffffffffffffffffffffffffffff021916908373ffffffffffffffffffffffffffffffffffffffff16021790555060208201518160000160146101000a81548167ffffffffffffffff021916908367ffffffffffffffff16021790555090505080600660005060008573ffffffffffffffffffffffffffffffffffffffff1673ffffffffffffffffffffffffffffffffffffffff16815260200190815260200160002060006101000a81548161ffff021916908361ffff16021790555061408f8373ffffffffffffffffffffffffffffffffffffffff16630dfe16816040518163ffffffff1660e01b815260040160206040518083038186803b15801561404b5760006000fd5b505afa158015614060573d600060003e3d6000fd5b505050506040513d601f19601f8201168201806040525081019061408491906164c3565b61564b63ffffffff16565b61411d8373ffffffffffffffffffffffffffffffffffffffff1663d21220a76040518163ffffffff1660e01b815260040160206040518083038186803b1580156140d95760006000fd5b505afa1580156140ee573d600060003e3d6000fd5b505050506040513d601f19601f8201168201806040525081019061411291906164c3565b61564b63ffffffff16565b61412b61324063ffffffff16565b809050614133565b92915050565b61414161613e565b6000849150815060008260a001516fffffffffffffffffffffffffffffffff1611156142155761421061418b8360c001518567ffffffffffffffff166156a090919063ffffffff16565b67ffffffffffffffff1661384067ffffffffffffffff166142016141c0866060015189600001516148e490919063ffffffff16565b6141db87604001518a602001516148e490919063ffffffff16565b8760a001516fffffffffffffffffffffffffffffffff16614aed9092919063ffffffff16565b614aed9092919063ffffffff16565b905080505b8360000151826060019090818152602001505083602001518260400190908181526020015050828260c0019067ffffffffffffffff16908167ffffffffffffffff1681526020015050818191509150614269565b935093915050565b8015156142e9576040517f08c379a000000000000000000000000000000000000000000000000000000000815260040180806020018281038252600e8152602001807f4e6f7420417574686f72697a656400000000000000000000000000000000000081526020015060200191505060405180910390fd5b5b50565b600060056000506000866020015161ffff1661ffff16815260200190815260200160002060005060000160009054906101000a900473ffffffffffffffffffffffffffffffffffffffff16905060008260000151614359576143548261231063ffffffff16565b61435f565b82602001515b90506000670de0b6b3a7640000600360009054906101000a900467ffffffffffffffff1667ffffffffffffffff161080156143a65750600161ffff16876020015161ffff16145b80156143be57506143bd878361247763ffffffff16565b5b801561446757507f000000000000000000000000000000000000000000000000000000000000000073ffffffffffffffffffffffffffffffffffffffff1663bf86d6906040518163ffffffff1660e01b815260040160206040518083038186803b15801561442c5760006000fd5b505afa158015614441573d600060003e3d6000fd5b505050506040513d601f19601f82011682018060405250810190614465919061656c565b155b90506144a3878385614498898c60a001516fffffffffffffffffffffffffffffffff16612cb590919063ffffffff16565b6151b863ffffffff16565b80156144b9576144b8836153b363ffffffff16565b5b7f000000000000000000000000000000000000000000000000000000000000000073ffffffffffffffffffffffffffffffffffffffff1663530c1ccb84876040518363ffffffff1660e01b81526004016145149291906171c5565b600060405180830381600087803b15801561452f5760006000fd5b505af1158015614544573d600060003e3d6000fd5b5050505080156146c457600760005060008473ffffffffffffffffffffffffffffffffffffffff1673ffffffffffffffffffffffffffffffffffffffff16815260200190815260200160002060005060000160089054906101000a900477ffffffffffffffffffffffffffffffffffffffffffffffff1677ffffffffffffffffffffffffffffffffffffffffffffffff167f000000000000000000000000000000000000000000000000000000000000000073ffffffffffffffffffffffffffffffffffffffff1663a135ef17856040518263ffffffff1660e01b815260040161462e91906170f7565b60206040518083038186803b1580156146475760006000fd5b505afa15801561465c573d600060003e3d6000fd5b505050506040513d601f19601f820116820180604052508101906146809190616bec565b101515156146c3576040517f08c379a00000000000000000000000000000000000000000000000000000000081526004016146ba906172eb565b60405180910390fd5b5b7f000000000000000000000000000000000000000000000000000000000000000073ffffffffffffffffffffffffffffffffffffffff1663816aaa2587896040518363ffffffff1660e01b815260040161471f929190617723565b600060405180830381600087803b15801561473a5760006000fd5b505af115801561474f573d600060003e3d6000fd5b505050505050505b50505050565b6000600061476f61245c63ffffffff16565b905060007f000000000000000000000000000000000000000000000000000000000000000073ffffffffffffffffffffffffffffffffffffffff1663585690816040518163ffffffff1660e01b815260040160206040518083038186803b1580156147da5760006000fd5b505afa1580156147ef573d600060003e3d6000fd5b505050506040513d601f19601f820116820180604052508101906148139190616cc1565b90508067ffffffffffffffff16600010801561484257508167ffffffffffffffff168167ffffffffffffffff16105b61484c578161484e565b805b925050506148595650505b90565b60006148da7f00000000000000000000000000000000000000000000000000000000000000007f000000000000000000000000000000000000000000000000000000000000000067ffffffffffffffff168467ffffffffffffffff168115156148c157fe5b0467ffffffffffffffff166156a090919063ffffffff16565b905080505b919050565b60008282840391508111151515614966576040517f08c379a000000000000000000000000000000000000000000000000000000000815260040180806020018281038252600d8152602001807f7375622d756e646572666c6f770000000000000000000000000000000000000081526020015060200191505060405180910390fd5b5b92915050565b7f000000000000000000000000000000000000000000000000000000000000000073ffffffffffffffffffffffffffffffffffffffff168373ffffffffffffffffffffffffffffffffffffffff161415614a55577f000000000000000000000000000000000000000000000000000000000000000073ffffffffffffffffffffffffffffffffffffffff166349404b7c83836040518363ffffffff1660e01b8152600401614a1c9291906176f4565b600060405180830381600087803b158015614a375760006000fd5b505af1158015614a4c573d600060003e3d6000fd5b50505050614ae7565b7f000000000000000000000000000000000000000000000000000000000000000073ffffffffffffffffffffffffffffffffffffffff1663df2ab5bb8484846040518463ffffffff1660e01b8152600401614ab293929190617009565b600060405180830381600087803b158015614acd5760006000fd5b505af1158015614ae2573d600060003e3d6000fd5b505050505b5b505050565b6000600060006000198587098587029250828110838203039150506000811415614b3057600084111515614b215760006000fd5b83820492508292505050614be7565b8084111515614b3f5760006000fd5b6000848688099050828111820391508083039250600085866000031690508086049550808404935060018182600003040190508083028417935083506000600287600302189050808702600203810290508050808702600203810290508050808702600203810290508050808702600203810290508050808702600203810290508050808702600203810290508050808502955085508595505050505050614be75650505050505b9392505050565b6000614c0c614c0161475d63ffffffff16565b61485c63ffffffff16565b9050614c13565b90565b60006000821480614c3657508282838502925082811515614c3357fe5b04145b1515614cad576040517f08c379a000000000000000000000000000000000000000000000000000000000815260040180806020018281038252600c8152602001807f6d756c2d6f766572666c6f77000000000000000000000000000000000000000081526020015060200191505060405180910390fd5b5b92915050565b6000600560005060008561ffff1661ffff16815260200190815260200160002060005060000160009054906101000a900473ffffffffffffffffffffffffffffffffffffffff16905060007f000000000000000000000000000000000000000000000000000000000000000073ffffffffffffffffffffffffffffffffffffffff16631cef92b1836040518263ffffffff1660e01b8152600401614d5891906170f7565b60406040518083038186803b158015614d715760006000fd5b505afa158015614d86573d600060003e3d6000fd5b505050506040513d601f19601f82011682018060405250810190614daa9190616ac0565b90507f000000000000000000000000000000000000000000000000000000000000000073ffffffffffffffffffffffffffffffffffffffff166396122a5c836040518060400160405280614e0b8987600001516134ba90919063ffffffff16565b8152602001614eed614eda8967ffffffffffffffff167f000000000000000000000000000000000000000000000000000000000000000073ffffffffffffffffffffffffffffffffffffffff1663a135ef178b6040518263ffffffff1660e01b8152600401614e7a91906170f7565b60206040518083038186803b158015614e935760006000fd5b505afa158015614ea8573d600060003e3d6000fd5b505050506040513d601f19601f82011682018060405250810190614ecc9190616bec565b614c1690919063ffffffff16565b87602001516134ba90919063ffffffff16565b8152602001506040518363ffffffff1660e01b8152600401614f1092919061718b565b600060405180830381600087803b158015614f2b5760006000fd5b505af1158015614f40573d600060003e3d6000fd5b5050505050505b505050565b7f000000000000000000000000000000000000000000000000000000000000000073ffffffffffffffffffffffffffffffffffffffff168273ffffffffffffffffffffffffffffffffffffffff16148015614fa75750804710155b15615034577f000000000000000000000000000000000000000000000000000000000000000073ffffffffffffffffffffffffffffffffffffffff1663d0e30db0826040518263ffffffff1660e01b81526004016000604051808303818588803b1580156150155760006000fd5b505af115801561502a573d600060003e3d6000fd5b5050505050615047565b6150468233308461573d63ffffffff16565b5b5b5050565b61505b8261596863ffffffff16565b61506a8161596863ffffffff16565b7f000000000000000000000000000000000000000000000000000000000000000073ffffffffffffffffffffffffffffffffffffffff166312210e8a6040518163ffffffff1660e01b8152600401600060405180830381600087803b1580156150d35760006000fd5b505af11580156150e8573d600060003e3d6000fd5b505050506000471115615106576151053347615afe63ffffffff16565b5b5b5050565b6000826fffffffffffffffffffffffffffffffff168284019150816fffffffffffffffffffffffffffffffff16101515156151b1576040517f08c379a000000000000000000000000000000000000000000000000000000000815260040180806020018281038252600c8152602001807f6164642d6f766572666c6f77000000000000000000000000000000000000000081526020015060200191505060405180910390fd5b5b92915050565b6000816fffffffffffffffffffffffffffffffff1614156151d8576153ad565b60007f000000000000000000000000000000000000000000000000000000000000000073ffffffffffffffffffffffffffffffffffffffff1663d3419bf36040518163ffffffff1660e01b815260040160206040518083038186803b1580156152415760006000fd5b505afa158015615256573d600060003e3d6000fd5b505050506040513d601f19601f8201168201806040525081019061527a91906165e0565b73ffffffffffffffffffffffffffffffffffffffff16631fab230e84868860e0015189610100015187600460009054906101000a900463ffffffff166040518763ffffffff1660e01b81526004016152d79695949392919061711f565b60206040518083038186803b1580156152f05760006000fd5b505afa158015615305573d600060003e3d6000fd5b505050506040513d601f19601f820116820180604052508101906153299190616bec565b9050600360109054906101000a90046fffffffffffffffffffffffffffffffff166fffffffffffffffffffffffffffffffff168110158061536a5750600081145b15156153ab576040517f08c379a00000000000000000000000000000000000000000000000000000000081526004016153a2906173a8565b60405180910390fd5b505b50505050565b60006153c3612f2a63ffffffff16565b90508067ffffffffffffffff16600760005060008473ffffffffffffffffffffffffffffffffffffffff1673ffffffffffffffffffffffffffffffffffffffff16815260200190815260200160002060005060000160009054906101000a900467ffffffffffffffff1667ffffffffffffffff1610156156465760405180604001604052808267ffffffffffffffff16815260200161555f615552615499600360009054906101000a900467ffffffffffffffff1667ffffffffffffffff16670de0b6b3a76400006148e490919063ffffffff16565b7f000000000000000000000000000000000000000000000000000000000000000073ffffffffffffffffffffffffffffffffffffffff1663a135ef17886040518263ffffffff1660e01b81526004016154f291906170f7565b60206040518083038186803b15801561550b5760006000fd5b505afa158015615520573d600060003e3d6000fd5b505050506040513d601f19601f820116820180604052508101906155449190616bec565b612b0a90919063ffffffff16565b615c84909063ffffffff16565b77ffffffffffffffffffffffffffffffffffffffffffffffff16815260200150600760005060008473ffffffffffffffffffffffffffffffffffffffff1673ffffffffffffffffffffffffffffffffffffffff16815260200190815260200160002060005060008201518160000160006101000a81548167ffffffffffffffff021916908367ffffffffffffffff16021790555060208201518160000160086101000a81548177ffffffffffffffffffffffffffffffffffffffffffffffff021916908377ffffffffffffffffffffffffffffffffffffffffffffffff1602179055509050505b505b50565b61569c817f00000000000000000000000000000000000000000000000000000000000000007fffffffffffffffffffffffffffffffffffffffffffffffffffffffffffffffff615d2663ffffffff16565b5b50565b60008267ffffffffffffffff1682840391508167ffffffffffffffff1611151515615736576040517f08c379a000000000000000000000000000000000000000000000000000000000815260040180806020018281038252600d8152602001807f7375622d756e646572666c6f770000000000000000000000000000000000000081526020015060200191505060405180910390fd5b5b92915050565b600060008573ffffffffffffffffffffffffffffffffffffffff166323b872dd60e01b868686604051602401808473ffffffffffffffffffffffffffffffffffffffff1681526020018373ffffffffffffffffffffffffffffffffffffffff1681526020018281526020019350505050604051602081830303815290604052907bffffffffffffffffffffffffffffffffffffffffffffffffffffffff19166020820180517bffffffffffffffffffffffffffffffffffffffffffffffffffffffff83818316178352505050506040518082805190602001908083835b60208310151561584057805182525b60208201915060208101905060208303925061581a565b6001836020036101000a0380198251168184511680821785525050505050509050019150506000604051808303816000865af19150503d80600081146158a2576040519150601f19603f3d011682016040523d82523d6000602084013e6158a7565b606091505b50915091508180156158e857506000815114806158e757508080602001905160208110156158d55760006000fd5b81019080805190602001909291905050505b5b151561595f576040517f08c379a00000000000000000000000000000000000000000000000000000000081526004018080602001828103825260038152602001807f535446000000000000000000000000000000000000000000000000000000000081526020015060200191505060405180910390fd5b50505b50505050565b60008173ffffffffffffffffffffffffffffffffffffffff166370a08231306040518263ffffffff1660e01b81526004016159a39190616f44565b60206040518083038186803b1580156159bc5760006000fd5b505afa1580156159d1573d600060003e3d6000fd5b505050506040513d601f19601f820116820180604052508101906159f59190616bec565b90506000811115615af9577f000000000000000000000000000000000000000000000000000000000000000073ffffffffffffffffffffffffffffffffffffffff168273ffffffffffffffffffffffffffffffffffffffff161415615ae6577f000000000000000000000000000000000000000000000000000000000000000073ffffffffffffffffffffffffffffffffffffffff16632e1a7d4d826040518263ffffffff1660e01b8152600401615aad91906176e2565b600060405180830381600087803b158015615ac85760006000fd5b505af1158015615add573d600060003e3d6000fd5b50505050615af8565b615af7823383615f3263ffffffff16565b5b5b505b50565b60008273ffffffffffffffffffffffffffffffffffffffff1682600067ffffffffffffffff81118015615b315760006000fd5b506040519080825280601f01601f191660200182016040528015615b645781602001600182028036833780820191505090505b506040518082805190602001908083835b602083101515615b9b57805182525b602082019150602081019050602083039250615b75565b6001836020036101000a03801982511681845116808217855250505050505090500191505060006040518083038185875af1925050503d8060008114615bfd576040519150601f19603f3d011682016040523d82523d6000602084013e615c02565b606091505b50509050801515615c7e576040517f08c379a00000000000000000000000000000000000000000000000000000000081526004018080602001828103825260038152602001807f535445000000000000000000000000000000000000000000000000000000000081526020015060200191505060405180910390fd5b505b5050565b6000780100000000000000000000000000000000000000000000000082101515615d19576040517f08c379a00000000000000000000000000000000000000000000000000000000081526004018080602001828103825260128152602001807f6d6f7265207468616e203139322062697473000000000000000000000000000081526020015060200191505060405180910390fd5b819050615d21565b919050565b600060008473ffffffffffffffffffffffffffffffffffffffff1663095ea7b360e01b8585604051602401808373ffffffffffffffffffffffffffffffffffffffff16815260200182815260200192505050604051602081830303815290604052907bffffffffffffffffffffffffffffffffffffffffffffffffffffffff19166020820180517bffffffffffffffffffffffffffffffffffffffffffffffffffffffff83818316178352505050506040518082805190602001908083835b602083101515615e0b57805182525b602082019150602081019050602083039250615de5565b6001836020036101000a0380198251168184511680821785525050505050509050019150506000604051808303816000865af19150503d8060008114615e6d576040519150601f19603f3d011682016040523d82523d6000602084013e615e72565b606091505b5091509150818015615eb35750600081511480615eb25750808060200190516020811015615ea05760006000fd5b81019080805190602001909291905050505b5b1515615f2a576040517f08c379a00000000000000000000000000000000000000000000000000000000081526004018080602001828103825260028152602001807f534100000000000000000000000000000000000000000000000000000000000081526020015060200191505060405180910390fd5b50505b505050565b600060008473ffffffffffffffffffffffffffffffffffffffff1663a9059cbb60e01b8585604051602401808373ffffffffffffffffffffffffffffffffffffffff16815260200182815260200192505050604051602081830303815290604052907bffffffffffffffffffffffffffffffffffffffffffffffffffffffff19166020820180517bffffffffffffffffffffffffffffffffffffffffffffffffffffffff83818316178352505050506040518082805190602001908083835b60208310151561601757805182525b602082019150602081019050602083039250615ff1565b6001836020036101000a0380198251168184511680821785525050505050509050019150506000604051808303816000865af19150503d8060008114616079576040519150601f19603f3d011682016040523d82523d6000602084013e61607e565b606091505b50915091508180156160bf57506000815114806160be57508080602001905160208110156160ac5760006000fd5b81019080805190602001909291905050505b5b1515616136576040517f08c379a00000000000000000000000000000000000000000000000000000000081526004018080602001828103825260028152602001807f535400000000000000000000000000000000000000000000000000000000000081526020015060200191505060405180910390fd5b50505b505050565b604051806101800160405280600073ffffffffffffffffffffffffffffffffffffffff168152602001600061ffff16815260200160008152602001600081526020016000815260200160006fffffffffffffffffffffffffffffffff168152602001600067ffffffffffffffff168152602001600060020b8152602001600060020b8152602001600063ffffffff168152602001600073ffffffffffffffffffffffffffffffffffffffff168152602001600067ffffffffffffffff1681526020015090565b6040518060a001604052806000815260200160006fffffffffffffffffffffffffffffffff1681526020016000815260200160008152602001600081526020015090565b6040518060400160405280600015158152602001600060020b815260200150905661793d565b60008135905061627d8161785f565b5b919050565b6000815190506162928161785f565b5b919050565b6000600083601f84011215156162ac578182fd5b8235905067ffffffffffffffff8111156162c4578182fd5b6020830191508360206020830285010111156162e05760006000fd5b5b9250929050565b6000813590506162f78161789d565b5b919050565b60008151905061630c8161789d565b5b919050565b6000610180808385031215616325578182fd5b61632e81617834565b91505061633a8261626e565b81526163486020830161641b565b602082015260408201356040820152606082013560608201526080820135608082015261637760a083016163f1565b60a082015261638860c08301616499565b60c082015261639960e083016162e8565b60e08201526101006163ac8184016162e8565b81830152506101206163bf81840161646f565b81830152506101406163d281840161626e565b81830152506101606163e5818401616499565b81830152505b92915050565b600081359050616400816178b3565b5b919050565b600081519050616415816178b3565b5b919050565b60008135905061642a816178d8565b5b919050565b60008151905061643f816178d8565b5b919050565b600081359050616454816178ef565b5b919050565b600081519050616469816178ef565b5b919050565b60008135905061647e81617907565b5b919050565b60008151905061649381617907565b5b919050565b6000813590506164a881617920565b5b919050565b6000815190506164bd81617920565b5b919050565b6000602082840312156164d4578081fd5b81516164df8161785f565b809150505b92915050565b600060006000604084860312156164ff578182fd5b833567ffffffffffffffff811115616515578283fd5b61652186828701616298565b91508094505080925050602084013561653981617907565b809150505b9250925092565b600060208284031215616556578081fd5b813561656181617888565b809150505b92915050565b60006020828403121561657d578081fd5b815161658881617888565b809150505b92915050565b6000602082840312156165a4578081fd5b81357fffffffff000000000000000000000000000000000000000000000000000000008116811415156165d5578182fd5b809150505b92915050565b6000602082840312156165f1578081fd5b81516165fc8161785f565b809150505b92915050565b600060208284031215616618578081fd5b81356166238161785f565b809150505b92915050565b60006000600060408486031215616643578081fd5b833561664e8161785f565b80935050602084013567ffffffffffffffff81111561666b578182fd5b61667786828701616298565b915080935050809150505b9250925092565b600060006040838503121561669c578182fd5b82356166a78161785f565b8092505060208301356166b98161785f565b809150505b9250929050565b60006000604083850312156166d8578182fd5b82356166e38161785f565b8092505060208301356166f581617920565b809150505b9250929050565b600060208284031215616712578081fd5b815161671d8161789d565b809150505b92915050565b6000600082840360c081121561673c578283fd5b60a0811215616749578283fd5b5082915060a083013561675b81617907565b809150505b9250929050565b600060a08284031215616778578081fd5b60405160a0810181811067ffffffffffffffff8211171561679557fe5b80604052508235815260208301356167ac816178b3565b80602083015250604083013560408201526060830135606082015260808301356080820152809150505b92915050565b6000600082840360e08112156167f0578283fd5b60c08112156167fd578283fd5b5082915060c083013561680f81617907565b809150505b9250929050565b60006000828403610180811215616830578283fd5b6101608082121561683f578384fd5b61684881617834565b91506168538561626e565b82526168616020860161626e565b602083015261687260408601616445565b6040830152616883606086016162e8565b6060830152616894608086016162e8565b608083015260a085013560a083015260c085013560c083015260e085013560e08301526101008086013581840152506101206168d181870161626e565b81840152506101408086013581840152508193506168f081860161646f565b925050505b9250929050565b600061018080838503121561690f578182fd5b61691881617834565b905061692383616283565b815261693160208401616430565b602082015260408301516040820152606083015160608201526080830151608082015261696060a08401616406565b60a082015261697160c084016164ae565b60c082015261698260e084016162fd565b60e08201526101006169958185016162fd565b81830152506101206169a8818501616484565b81830152506101406169bb818501616283565b81830152506101606169ce8185016164ae565b8183015250809150505b92915050565b600060006101a083850312156169f2578182fd5b6169fc8484616312565b9150610180830135616a0d8161789d565b809150505b9250929050565b6000600060008385036101e0811215616a30578182fd5b616a3a8686616312565b935060407ffffffffffffffffffffffffffffffffffffffffffffffffffffffffffffffe8082011215616a6b578182fd5b506040516040810181811067ffffffffffffffff82111715616a8957fe5b806040525061018085013581526101a08501356020820152809250506101c0840135616ab481617920565b809150505b9250925092565b600060408284031215616ad1578081fd5b6040516040810181811067ffffffffffffffff82111715616aee57fe5b80604052508251815260208301516020820152809150505b92915050565b600060208284031215616b1d578081fd5b8135616b28816178b3565b809150505b92915050565b60006000600060608486031215616b48578081fd5b8351616b53816178b3565b8093505060208401519150604084015190505b9250925092565b600060208284031215616b7e578081fd5b8135616b89816178d8565b809150505b92915050565b6000600060408385031215616ba7578182fd5b8235616bb2816178d8565b809250506020830135616bc481617920565b809150505b9250929050565b600060208284031215616be1578081fd5b813590505b92915050565b600060208284031215616bfd578081fd5b815190505b92915050565b600060006000600060808587031215616c1f578182fd5b845193506020850151616c31816178b3565b8093505060408501519150606085015190505b92959194509250565b6000600060408385031215616c60578182fd5b82519150602083015190505b9250929050565b600060208284031215616c84578081fd5b8135616c8f81617907565b809150505b92915050565b600060208284031215616cab578081fd5b8135616cb681617920565b809150505b92915050565b600060208284031215616cd2578081fd5b8151616cdd81617920565b809150505b92915050565b6000600060006000600060006000600060006000600060006101808d8f031215616d1057898afd5b8c516bffffffffffffffffffffffff811681141515616d2d578a8bfd5b809c5050616d3d60208e01616283565b9a50616d4b60408e01616283565b9950616d5960608e01616283565b9850616d6760808e0161645a565b9750616d7560a08e016162fd565b9650616d8360c08e016162fd565b9550616d9160e08e01616406565b94506101008d015193506101208d01519250616db06101408e01616406565b9150616dbf6101608e01616406565b90505b9295989b509295989b509295989b565b73ffffffffffffffffffffffffffffffffffffffff811682525b5050565b8060020b82525b5050565b616e06828251616dd2565b6020810151616e186020840182616ee3565b5060408101516040830152606081015160608301526080810151608083015260a0810151616e4960a0840182616ec9565b5060c0810151616e5c60c0840182616f0a565b5060e0810151616e6f60e0840182616df0565b5061010080820151616e8382850182616df0565b505061012080820151616e9882850182616efc565b505061014080820151616ead82850182616dd2565b505061016080820151616ec282850182616f0a565b50505b5050565b6fffffffffffffffffffffffffffffffff811682525b5050565b61ffff811682525b5050565b62ffffff811682525b5050565b63ffffffff811682525b5050565b67ffffffffffffffff811682525b5050565b600060208201905073ffffffffffffffffffffffffffffffffffffffff831682525b92915050565b600060208201905073ffffffffffffffffffffffffffffffffffffffff831682525b92915050565b600060408201905073ffffffffffffffffffffffffffffffffffffffff841682528260208301525b9392505050565b600060608201905073ffffffffffffffffffffffffffffffffffffffff808616835280851660208401525062ffffff831660408301525b949350505050565b600060408201905073ffffffffffffffffffffffffffffffffffffffff841682528260208301525b9392505050565b600060608201905073ffffffffffffffffffffffffffffffffffffffff80861683528460208401528084166040840152505b949350505050565b600060208201905082151582525b92915050565b600060208201905073ffffffffffffffffffffffffffffffffffffffff831682525b92915050565b600060208201905073ffffffffffffffffffffffffffffffffffffffff831682525b92915050565b600060208201905073ffffffffffffffffffffffffffffffffffffffff831682525b92915050565b600060208201905073ffffffffffffffffffffffffffffffffffffffff831682525b92915050565b600060208201905073ffffffffffffffffffffffffffffffffffffffff831682525b92915050565b600060c08201905073ffffffffffffffffffffffffffffffffffffffff881682528660020b60208301528560020b60408301528460020b60608301526fffffffffffffffffffffffffffffffff8416608083015263ffffffff831660a08301525b979650505050505050565b600060608201905073ffffffffffffffffffffffffffffffffffffffff8416825282516020830152602083015160408301525b9392505050565b600060408201905073ffffffffffffffffffffffffffffffffffffffff841682526fffffffffffffffffffffffffffffffff831660208301525b9392505050565b600060408201905073ffffffffffffffffffffffffffffffffffffffff8416825263ffffffff831660208301525b9392505050565b600060408201905073ffffffffffffffffffffffffffffffffffffffff8416825267ffffffffffffffff831660208301525b9392505050565b60006060820190508460020b82528360020b60208301526fffffffffffffffffffffffffffffffff831660408301525b949350505050565b600060208252601660208301527f4c6971756964697479206e6f7420696e2072616e67650000000000000000000060408301526060820190505b919050565b600060208252601c60208301527f4d617820706572696f642077697468647261772065786365656465640000000060408301526060820190505b919050565b600060208252601260208301527f416c72656164792072656769737465726564000000000000000000000000000060408301526060820190505b919050565b600060208252601460208301527f496e63656e7469766520746f74616c206973203000000000000000000000000060408301526060820190505b919050565b600060208252601260208301527f506f736974696f6e20746f6f20736d616c6c000000000000000000000000000060408301526060820190505b919050565b600060208252600b60208301527f506f6f6c2065786973747300000000000000000000000000000000000000000060408301526060820190505b919050565b600060208252600e60208301527f496e76616c696420706f6f6c494400000000000000000000000000000000000060408301526060820190505b919050565b600060208252601260208301527f4e6f20666c617368206c6971756964697479000000000000000000000000000060408301526060820190505b919050565b600060208252600760208301527f496e76616c69640000000000000000000000000000000000000000000000000060408301526060820190505b919050565b60006080820190508251825273ffffffffffffffffffffffffffffffffffffffff602084015116602083015260408301516fffffffffffffffffffffffffffffffff808216604085015280606086015116606085015250505b92915050565b600060a082019050825182526fffffffffffffffffffffffffffffffff60208401511660208301526040830151604083015260608301516060830152608083015160808301525b92915050565b600060c082019050823582526020830135602083015260408301356040830152606083013560608301526080830135608083015260a083013560a08301525b92915050565b6000610160820190506175e8828451616dd2565b60208301516175fa6020840182616dd2565b50604083015161760d6040840182616eef565b5060608301516176206060840182616df0565b5060808301516176336080840182616df0565b5060a083015160a083015260c083015160c083015260e083015160e08301526101008084015181840152506101208084015161767182850182616dd2565b50506101408084015181840152505b92915050565b60006101a0820190506176998285616dfb565b826101808301525b9392505050565b60006020820190506fffffffffffffffffffffffffffffffff831682525b92915050565b600060208201905061ffff831682525b92915050565b60006020820190508282525b92915050565b600060408201905083825273ffffffffffffffffffffffffffffffffffffffff831660208301525b9392505050565b60006101a08201905083825261773c6020830184616dfb565b5b9392505050565b60006040820190508382526fffffffffffffffffffffffffffffffff831660208301525b9392505050565b60006040820190508382528260208301525b9392505050565b600060408201905083825267ffffffffffffffff831660208301525b9392505050565b600060208201905063ffffffff831682525b92915050565b600060208201905063ffffffff831682525b92915050565b600060208201905067ffffffffffffffff831682525b92915050565b600060408201905067ffffffffffffffff8416825277ffffffffffffffffffffffffffffffffffffffffffffffff831660208301525b9392505050565b6000604051905081810181811067ffffffffffffffff8211171561785457fe5b80604052505b919050565b73ffffffffffffffffffffffffffffffffffffffff8116811415156178845760006000fd5b5b50565b801515811415156178995760006000fd5b5b50565b8060020b811415156178af5760006000fd5b5b50565b6fffffffffffffffffffffffffffffffff8116811415156178d45760006000fd5b5b50565b61ffff8116811415156178eb5760006000fd5b5b50565b62ffffff8116811415156179035760006000fd5b5b50565b63ffffffff81168114151561791c5760006000fd5b5b50565b67ffffffffffffffff8116811415156179395760006000fd5b5b50565bfea2646970667358221220848d3e4972ff171e5155cd559b1f00de027c2926981042314d2839da7e78806764736f6c63430007060033",
  "linkReferences": {},
  "deployedLinkReferences": {}
}