{
  "_format": "hh-sol-artifact-1",
  "contractName": "AccountingTestable",
  "sourceName": "contracts/core/mocks/AccountingTestable.sol",
  "abi": [
    {
      "inputs": [
        {
          "components": [
            {
              "internalType": "contract IGovernor",
              "name": "Governor",
              "type": "address"
            },
            {
              "internalType": "contract IHue",
              "name": "Hue",
              "type": "address"
            },
            {
              "internalType": "contract INonfungiblePositionManager",
              "name": "NftPositionManager",
              "type": "address"
            }
          ],
          "internalType": "struct IAccounting.ConstructorParams",
          "name": "params",
          "type": "tuple"
        }
      ],
      "stateMutability": "nonpayable",
      "type": "constructor"
    },
    {
      "anonymous": false,
      "inputs": [],
      "name": "DebtPositionIndexingDisabled",
      "type": "event"
    },
    {
      "anonymous": false,
      "inputs": [],
      "name": "PoolPositionIndexingDisabled",
      "type": "event"
    },
    {
      "anonymous": false,
      "inputs": [],
      "name": "Stopped",
      "type": "event"
    },
    {
      "anonymous": false,
      "inputs": [
        {
          "indexed": true,
          "internalType": "uint32",
          "name": "interfaceID",
          "type": "uint32"
        },
        {
          "indexed": true,
          "internalType": "address",
          "name": "kickbackDestination",
          "type": "address"
        },
        {
          "indexed": false,
          "internalType": "string",
          "name": "ipfsHash",
          "type": "string"
        }
      ],
      "name": "UIInitialized",
      "type": "event"
    },
    {
      "anonymous": false,
      "inputs": [
        {
          "indexed": true,
          "internalType": "uint32",
          "name": "interfaceID",
          "type": "uint32"
        },
        {
          "indexed": true,
          "internalType": "address",
          "name": "kickbackDestination",
          "type": "address"
        },
        {
          "indexed": true,
          "internalType": "uint24",
          "name": "tags",
          "type": "uint24"
        },
        {
          "indexed": false,
          "internalType": "uint256",
          "name": "kickbackPortion",
          "type": "uint256"
        }
      ],
      "name": "UIRegistered",
      "type": "event"
    },
    {
      "anonymous": false,
      "inputs": [
        {
          "indexed": false,
          "internalType": "uint32[]",
          "name": "uis",
          "type": "uint32[]"
        }
      ],
      "name": "UIsApproved",
      "type": "event"
    },
    {
      "anonymous": false,
      "inputs": [
        {
          "indexed": false,
          "internalType": "uint32[]",
          "name": "uis",
          "type": "uint32[]"
        }
      ],
      "name": "UIsDisapproved",
      "type": "event"
    },
    {
      "inputs": [],
      "name": "TICK_SPACING",
      "outputs": [
        {
          "internalType": "int24",
          "name": "",
          "type": "int24"
        }
      ],
      "stateMutability": "view",
      "type": "function"
    },
    {
      "inputs": [
        {
          "internalType": "address",
          "name": "owner",
          "type": "address"
        },
        {
          "internalType": "uint256",
          "name": "nftID",
          "type": "uint256"
        }
      ],
      "name": "__addPositionToIndex",
      "outputs": [],
      "stateMutability": "nonpayable",
      "type": "function"
    },
    {
      "inputs": [
        {
          "internalType": "address",
          "name": "owner",
          "type": "address"
        },
        {
          "internalType": "uint256",
          "name": "nftID",
          "type": "uint256"
        }
      ],
      "name": "addPositionToIndex",
      "outputs": [],
      "stateMutability": "nonpayable",
      "type": "function"
    },
    {
      "inputs": [
        {
          "internalType": "uint32[]",
          "name": "ids",
          "type": "uint32[]"
        }
      ],
      "name": "approveUIs",
      "outputs": [],
      "stateMutability": "nonpayable",
      "type": "function"
    },
    {
      "inputs": [],
      "name": "debt",
      "outputs": [
        {
          "internalType": "uint256",
          "name": "",
          "type": "uint256"
        }
      ],
      "stateMutability": "view",
      "type": "function"
    },
    {
      "inputs": [],
      "name": "debtPositionIndexingEnabled",
      "outputs": [
        {
          "internalType": "bool",
          "name": "",
          "type": "bool"
        }
      ],
      "stateMutability": "view",
      "type": "function"
    },
    {
      "inputs": [
        {
          "internalType": "uint256",
          "name": "count",
          "type": "uint256"
        }
      ],
      "name": "decreaseDebt",
      "outputs": [],
      "stateMutability": "nonpayable",
      "type": "function"
    },
    {
      "inputs": [
        {
          "internalType": "contract IUniswapV3Pool",
          "name": "pool",
          "type": "address"
        },
        {
          "internalType": "uint256",
          "name": "liquidity",
          "type": "uint256"
        }
      ],
      "name": "decreasePoolLiquidity",
      "outputs": [],
      "stateMutability": "nonpayable",
      "type": "function"
    },
    {
      "inputs": [
        {
          "internalType": "uint256",
          "name": "nftID",
          "type": "uint256"
        }
      ],
      "name": "deletePoolPosition",
      "outputs": [],
      "stateMutability": "nonpayable",
      "type": "function"
    },
    {
      "inputs": [],
      "name": "deployer",
      "outputs": [
        {
          "internalType": "address",
          "name": "",
          "type": "address"
        }
      ],
      "stateMutability": "view",
      "type": "function"
    },
    {
      "inputs": [
        {
          "internalType": "uint32[]",
          "name": "ids",
          "type": "uint32[]"
        }
      ],
      "name": "disapproveUIs",
      "outputs": [],
      "stateMutability": "nonpayable",
      "type": "function"
    },
    {
      "inputs": [
        {
          "internalType": "uint64",
          "name": "positionID",
          "type": "uint64"
        }
      ],
      "name": "getBasicPositionInfo",
      "outputs": [
        {
          "internalType": "uint256",
          "name": "debtCount",
          "type": "uint256"
        },
        {
          "internalType": "uint256",
          "name": "collateralCount",
          "type": "uint256"
        }
      ],
      "stateMutability": "view",
      "type": "function"
    },
    {
      "inputs": [
        {
          "internalType": "uint256",
          "name": "nftID",
          "type": "uint256"
        }
      ],
      "name": "getPoolPosition",
      "outputs": [
        {
          "components": [
            {
              "internalType": "address",
              "name": "owner",
              "type": "address"
            },
            {
              "internalType": "uint16",
              "name": "poolID",
              "type": "uint16"
            },
            {
              "internalType": "uint256",
              "name": "cumulativeLiquidity",
              "type": "uint256"
            },
            {
              "internalType": "uint256",
              "name": "totalRewards",
              "type": "uint256"
            },
            {
              "internalType": "uint256",
              "name": "lastBlockPositionIncreased",
              "type": "uint256"
            },
            {
              "internalType": "uint128",
              "name": "liquidity",
              "type": "uint128"
            },
            {
              "internalType": "uint64",
              "name": "lastTimeRewarded",
              "type": "uint64"
            },
            {
              "internalType": "int24",
              "name": "tickLower",
              "type": "int24"
            },
            {
              "internalType": "int24",
              "name": "tickUpper",
              "type": "int24"
            },
            {
              "internalType": "uint32",
              "name": "ui",
              "type": "uint32"
            },
            {
              "internalType": "address",
              "name": "kickbackDestination",
              "type": "address"
            },
            {
              "internalType": "uint64",
              "name": "kickbackPortion",
              "type": "uint64"
            }
          ],
          "internalType": "struct IAccounting.PoolPosition",
          "name": "pp",
          "type": "tuple"
        }
      ],
      "stateMutability": "view",
      "type": "function"
    },
    {
      "inputs": [
        {
          "internalType": "address",
          "name": "owner",
          "type": "address"
        }
      ],
      "name": "getPoolPositionNftIdsByOwner",
      "outputs": [
        {
          "internalType": "uint128[]",
          "name": "",
          "type": "uint128[]"
        }
      ],
      "stateMutability": "view",
      "type": "function"
    },
    {
      "inputs": [
        {
          "internalType": "uint64",
          "name": "positionID",
          "type": "uint64"
        }
      ],
      "name": "getPosition",
      "outputs": [
        {
          "components": [
            {
              "internalType": "uint256",
              "name": "startCumulativeDebt",
              "type": "uint256"
            },
            {
              "internalType": "uint256",
              "name": "collateral",
              "type": "uint256"
            },
            {
              "internalType": "uint256",
              "name": "debt",
              "type": "uint256"
            },
            {
              "internalType": "uint256",
              "name": "startDebtExchangeRate",
              "type": "uint256"
            },
            {
              "internalType": "uint256",
              "name": "startTCPRewards",
              "type": "uint256"
            },
            {
              "internalType": "uint64",
              "name": "lastTimeUpdated",
              "type": "uint64"
            },
            {
              "internalType": "uint64",
              "name": "lastBorrowTime",
              "type": "uint64"
            },
            {
              "internalType": "int24",
              "name": "tick",
              "type": "int24"
            },
            {
              "internalType": "bool",
              "name": "tickSet",
              "type": "bool"
            },
            {
              "internalType": "uint64",
              "name": "tickIndex",
              "type": "uint64"
            },
            {
              "internalType": "uint32",
              "name": "ui",
              "type": "uint32"
            },
            {
              "internalType": "address",
              "name": "kickbackDestination",
              "type": "address"
            },
            {
              "internalType": "uint64",
              "name": "kickbackPortion",
              "type": "uint64"
            }
          ],
          "internalType": "struct IAccounting.DebtPosition",
          "name": "dp",
          "type": "tuple"
        }
      ],
      "stateMutability": "view",
      "type": "function"
    },
    {
      "inputs": [
        {
          "internalType": "contract IUniswapV3Pool",
          "name": "pool",
          "type": "address"
        }
      ],
      "name": "getRewardStatus",
      "outputs": [
        {
          "components": [
            {
              "internalType": "uint256",
              "name": "totalRewards",
              "type": "uint256"
            },
            {
              "internalType": "uint256",
              "name": "cumulativeLiquidity",
              "type": "uint256"
            }
          ],
          "internalType": "struct IAccounting.RewardStatus",
          "name": "",
          "type": "tuple"
        }
      ],
      "stateMutability": "view",
      "type": "function"
    },
    {
      "inputs": [],
      "name": "getSystemDebtInfo",
      "outputs": [
        {
          "components": [
            {
              "internalType": "uint256",
              "name": "debt",
              "type": "uint256"
            },
            {
              "internalType": "uint256",
              "name": "totalTCPRewards",
              "type": "uint256"
            },
            {
              "internalType": "uint256",
              "name": "cumulativeDebt",
              "type": "uint256"
            },
            {
              "internalType": "uint256",
              "name": "debtExchangeRate",
              "type": "uint256"
            }
          ],
          "internalType": "struct IAccounting.SystemDebtInfo",
          "name": "",
          "type": "tuple"
        }
      ],
      "stateMutability": "view",
      "type": "function"
    },
    {
      "inputs": [
        {
          "internalType": "uint256",
          "name": "collateralCount",
          "type": "uint256"
        },
        {
          "internalType": "uint256",
          "name": "debtCount",
          "type": "uint256"
        }
      ],
      "name": "getTick",
      "outputs": [
        {
          "internalType": "int24",
          "name": "",
          "type": "int24"
        }
      ],
      "stateMutability": "pure",
      "type": "function"
    },
    {
      "inputs": [
        {
          "internalType": "uint32",
          "name": "start",
          "type": "uint32"
        },
        {
          "internalType": "uint32",
          "name": "end",
          "type": "uint32"
        }
      ],
      "name": "getUIs",
      "outputs": [
        {
          "components": [
            {
              "internalType": "address",
              "name": "kickbackDestination",
              "type": "address"
            },
            {
              "internalType": "uint64",
              "name": "kickbackPortion",
              "type": "uint64"
            },
            {
              "internalType": "enum IAccounting.UIGovernanceRating",
              "name": "governanceRating",
              "type": "uint8"
            },
            {
              "internalType": "uint24",
              "name": "tags",
              "type": "uint24"
            },
            {
              "internalType": "string",
              "name": "ipfsHash",
              "type": "string"
            }
          ],
          "internalType": "struct IAccounting.UserInterface[]",
          "name": "uis",
          "type": "tuple[]"
        }
      ],
      "stateMutability": "view",
      "type": "function"
    },
    {
      "inputs": [],
      "name": "governor",
      "outputs": [
        {
          "internalType": "contract IGovernor",
          "name": "",
          "type": "address"
        }
      ],
      "stateMutability": "view",
      "type": "function"
    },
    {
      "inputs": [],
      "name": "hue",
      "outputs": [
        {
          "internalType": "contract IHue",
          "name": "",
          "type": "address"
        }
      ],
      "stateMutability": "view",
      "type": "function"
    },
    {
      "inputs": [
        {
          "internalType": "uint256",
          "name": "count",
          "type": "uint256"
        }
      ],
      "name": "increaseDebt",
      "outputs": [],
      "stateMutability": "nonpayable",
      "type": "function"
    },
    {
      "inputs": [
        {
          "internalType": "uint256",
          "name": "count",
          "type": "uint256"
        }
      ],
      "name": "increaseLentHue",
      "outputs": [],
      "stateMutability": "nonpayable",
      "type": "function"
    },
    {
      "inputs": [
        {
          "internalType": "contract IUniswapV3Pool",
          "name": "pool",
          "type": "address"
        },
        {
          "internalType": "uint256",
          "name": "liquidity",
          "type": "uint256"
        }
      ],
      "name": "increasePoolLiquidity",
      "outputs": [],
      "stateMutability": "nonpayable",
      "type": "function"
    },
    {
      "inputs": [],
      "name": "init",
      "outputs": [],
      "stateMutability": "nonpayable",
      "type": "function"
    },
    {
      "inputs": [
        {
          "internalType": "uint32",
          "name": "interfaceID",
          "type": "uint32"
        },
        {
          "internalType": "string",
          "name": "ipfsHash",
          "type": "string"
        }
      ],
      "name": "initializeUI",
      "outputs": [],
      "stateMutability": "nonpayable",
      "type": "function"
    },
    {
      "inputs": [],
      "name": "lentHue",
      "outputs": [
        {
          "internalType": "uint256",
          "name": "",
          "type": "uint256"
        }
      ],
      "stateMutability": "view",
      "type": "function"
    },
    {
      "inputs": [],
      "name": "nextUserInterfaceID",
      "outputs": [
        {
          "internalType": "uint32",
          "name": "",
          "type": "uint32"
        }
      ],
      "stateMutability": "view",
      "type": "function"
    },
    {
      "inputs": [],
      "name": "nftPositionManager",
      "outputs": [
        {
          "internalType": "contract INonfungiblePositionManager",
          "name": "",
          "type": "address"
        }
      ],
      "stateMutability": "view",
      "type": "function"
    },
    {
      "inputs": [
        {
          "internalType": "address",
          "name": "",
          "type": "address"
        },
        {
          "internalType": "address",
          "name": "",
          "type": "address"
        },
        {
          "internalType": "uint256",
          "name": "",
          "type": "uint256"
        },
        {
          "internalType": "bytes",
          "name": "",
          "type": "bytes"
        }
      ],
      "name": "onERC721Received",
      "outputs": [
        {
          "internalType": "bytes4",
          "name": "",
          "type": "bytes4"
        }
      ],
      "stateMutability": "pure",
      "type": "function"
    },
    {
      "inputs": [
        {
          "internalType": "address",
          "name": "newRewards",
          "type": "address"
        }
      ],
      "name": "onRewardsUpgrade",
      "outputs": [],
      "stateMutability": "nonpayable",
      "type": "function"
    },
    {
      "inputs": [
        {
          "internalType": "contract IUniswapV3Pool",
          "name": "",
          "type": "address"
        }
      ],
      "name": "poolLiquidity",
      "outputs": [
        {
          "internalType": "uint256",
          "name": "",
          "type": "uint256"
        }
      ],
      "stateMutability": "view",
      "type": "function"
    },
    {
      "inputs": [],
      "name": "poolPositionIndexingEnabled",
      "outputs": [
        {
          "internalType": "bool",
          "name": "",
          "type": "bool"
        }
      ],
      "stateMutability": "view",
      "type": "function"
    },
    {
      "inputs": [
        {
          "internalType": "int24",
          "name": "tick",
          "type": "int24"
        }
      ],
      "name": "positionsForTick",
      "outputs": [
        {
          "internalType": "uint64[]",
          "name": "",
          "type": "uint64[]"
        }
      ],
      "stateMutability": "view",
      "type": "function"
    },
    {
      "inputs": [
        {
          "internalType": "uint64",
          "name": "kickbackPortion",
          "type": "uint64"
        },
        {
          "internalType": "uint24",
          "name": "tags",
          "type": "uint24"
        }
      ],
      "name": "registerUI",
      "outputs": [
        {
          "internalType": "uint32",
          "name": "",
          "type": "uint32"
        }
      ],
      "stateMutability": "nonpayable",
      "type": "function"
    },
    {
      "inputs": [
        {
          "internalType": "address payable",
          "name": "dest",
          "type": "address"
        },
        {
          "internalType": "uint256",
          "name": "count",
          "type": "uint256"
        }
      ],
      "name": "sendCollateral",
      "outputs": [],
      "stateMutability": "nonpayable",
      "type": "function"
    },
    {
      "inputs": [
        {
          "internalType": "address",
          "name": "dest",
          "type": "address"
        },
        {
          "internalType": "uint256",
          "name": "count",
          "type": "uint256"
        }
      ],
      "name": "sendLentHue",
      "outputs": [],
      "stateMutability": "nonpayable",
      "type": "function"
    },
    {
      "inputs": [
        {
          "internalType": "uint256",
          "name": "nftID",
          "type": "uint256"
        },
        {
          "components": [
            {
              "internalType": "address",
              "name": "owner",
              "type": "address"
            },
            {
              "internalType": "uint16",
              "name": "poolID",
              "type": "uint16"
            },
            {
              "internalType": "uint256",
              "name": "cumulativeLiquidity",
              "type": "uint256"
            },
            {
              "internalType": "uint256",
              "name": "totalRewards",
              "type": "uint256"
            },
            {
              "internalType": "uint256",
              "name": "lastBlockPositionIncreased",
              "type": "uint256"
            },
            {
              "internalType": "uint128",
              "name": "liquidity",
              "type": "uint128"
            },
            {
              "internalType": "uint64",
              "name": "lastTimeRewarded",
              "type": "uint64"
            },
            {
              "internalType": "int24",
              "name": "tickLower",
              "type": "int24"
            },
            {
              "internalType": "int24",
              "name": "tickUpper",
              "type": "int24"
            },
            {
              "internalType": "uint32",
              "name": "ui",
              "type": "uint32"
            },
            {
              "internalType": "address",
              "name": "kickbackDestination",
              "type": "address"
            },
            {
              "internalType": "uint64",
              "name": "kickbackPortion",
              "type": "uint64"
            }
          ],
          "internalType": "struct IAccounting.PoolPosition",
          "name": "pp",
          "type": "tuple"
        }
      ],
      "name": "setPoolPosition",
      "outputs": [],
      "stateMutability": "nonpayable",
      "type": "function"
    },
    {
      "inputs": [
        {
          "internalType": "uint64",
          "name": "positionID",
          "type": "uint64"
        },
        {
          "components": [
            {
              "internalType": "uint256",
              "name": "startCumulativeDebt",
              "type": "uint256"
            },
            {
              "internalType": "uint256",
              "name": "collateral",
              "type": "uint256"
            },
            {
              "internalType": "uint256",
              "name": "debt",
              "type": "uint256"
            },
            {
              "internalType": "uint256",
              "name": "startDebtExchangeRate",
              "type": "uint256"
            },
            {
              "internalType": "uint256",
              "name": "startTCPRewards",
              "type": "uint256"
            },
            {
              "internalType": "uint64",
              "name": "lastTimeUpdated",
              "type": "uint64"
            },
            {
              "internalType": "uint64",
              "name": "lastBorrowTime",
              "type": "uint64"
            },
            {
              "internalType": "int24",
              "name": "tick",
              "type": "int24"
            },
            {
              "internalType": "bool",
              "name": "tickSet",
              "type": "bool"
            },
            {
              "internalType": "uint64",
              "name": "tickIndex",
              "type": "uint64"
            },
            {
              "internalType": "uint32",
              "name": "ui",
              "type": "uint32"
            },
            {
              "internalType": "address",
              "name": "kickbackDestination",
              "type": "address"
            },
            {
              "internalType": "uint64",
              "name": "kickbackPortion",
              "type": "uint64"
            }
          ],
          "internalType": "struct IAccounting.DebtPosition",
          "name": "dp",
          "type": "tuple"
        }
      ],
      "name": "setPosition",
      "outputs": [],
      "stateMutability": "nonpayable",
      "type": "function"
    },
    {
      "inputs": [
        {
          "internalType": "contract IUniswapV3Pool",
          "name": "pool",
          "type": "address"
        },
        {
          "components": [
            {
              "internalType": "uint256",
              "name": "totalRewards",
              "type": "uint256"
            },
            {
              "internalType": "uint256",
              "name": "cumulativeLiquidity",
              "type": "uint256"
            }
          ],
          "internalType": "struct IAccounting.RewardStatus",
          "name": "rs",
          "type": "tuple"
        }
      ],
      "name": "setRewardStatus",
      "outputs": [],
      "stateMutability": "nonpayable",
      "type": "function"
    },
    {
      "inputs": [
        {
          "components": [
            {
              "internalType": "uint256",
              "name": "debt",
              "type": "uint256"
            },
            {
              "internalType": "uint256",
              "name": "totalTCPRewards",
              "type": "uint256"
            },
            {
              "internalType": "uint256",
              "name": "cumulativeDebt",
              "type": "uint256"
            },
            {
              "internalType": "uint256",
              "name": "debtExchangeRate",
              "type": "uint256"
            }
          ],
          "internalType": "struct IAccounting.SystemDebtInfo",
          "name": "_sdi",
          "type": "tuple"
        }
      ],
      "name": "setSystemDebtInfo",
      "outputs": [],
      "stateMutability": "nonpayable",
      "type": "function"
    },
    {
      "inputs": [
        {
          "internalType": "int24",
          "name": "rawTick",
          "type": "int24"
        },
        {
          "internalType": "int24",
          "name": "tickSpacing",
          "type": "int24"
        }
      ],
      "name": "snapRawTickToSpacing",
      "outputs": [
        {
          "internalType": "int24",
          "name": "",
          "type": "int24"
        }
      ],
      "stateMutability": "pure",
      "type": "function"
    },
    {
      "inputs": [],
      "name": "stopIndexingDebtPositions",
      "outputs": [],
      "stateMutability": "nonpayable",
      "type": "function"
    },
    {
      "inputs": [],
      "name": "stopIndexingPoolPositions",
      "outputs": [],
      "stateMutability": "nonpayable",
      "type": "function"
    },
    {
      "inputs": [],
      "name": "stopped",
      "outputs": [
        {
          "internalType": "bool",
          "name": "",
          "type": "bool"
        }
      ],
      "stateMutability": "view",
      "type": "function"
    },
    {
      "inputs": [],
      "name": "sweepHue",
      "outputs": [],
      "stateMutability": "nonpayable",
      "type": "function"
    },
    {
      "inputs": [
        {
          "internalType": "uint256",
          "name": "",
          "type": "uint256"
        }
      ],
      "name": "userInterfaces",
      "outputs": [
        {
          "internalType": "address",
          "name": "kickbackDestination",
          "type": "address"
        },
        {
          "internalType": "uint64",
          "name": "kickbackPortion",
          "type": "uint64"
        },
        {
          "internalType": "enum IAccounting.UIGovernanceRating",
          "name": "governanceRating",
          "type": "uint8"
        },
        {
          "internalType": "uint24",
          "name": "tags",
          "type": "uint24"
        },
        {
          "internalType": "string",
          "name": "ipfsHash",
          "type": "string"
        }
      ],
      "stateMutability": "view",
      "type": "function"
    },
    {
      "inputs": [
        {
          "internalType": "bytes4",
          "name": "",
          "type": "bytes4"
        }
      ],
      "name": "validUpdate",
      "outputs": [
        {
          "internalType": "bool",
          "name": "",
          "type": "bool"
        }
      ],
      "stateMutability": "view",
      "type": "function"
    },
    {
      "stateMutability": "payable",
      "type": "receive"
    }
  ],
  "bytecode": "0x60e0604052600160026000509090556001600560006101000a81548160ff0219169083151502179055506001600560016101000a81548160ff0219169083151502179055506001600f60006101000a81548163ffffffff021916908363ffffffff160217905550348015620000745760006000fd5b5060405162008ba238038062008ba283398181016040528101906200009a919062000441565b5b805b80600001515b8073ffffffffffffffffffffffffffffffffffffffff1660808173ffffffffffffffffffffffffffffffffffffffff1660601b815260140150505b50806020015173ffffffffffffffffffffffffffffffffffffffff1660c08173ffffffffffffffffffffffffffffffffffffffff1660601b81526014015050806040015173ffffffffffffffffffffffffffffffffffffffff1660a08173ffffffffffffffffffffffffffffffffffffffff1660601b815260140150506200017b670de0b6b3a7640000620003d460201b6200388917909060201c565b600860005060010160106101000a8154816fffffffffffffffffffffffffffffffff02191690836fffffffffffffffffffffffffffffffff16021790555060016001600050600063461054a360e01b7bffffffffffffffffffffffffffffffffffffffffffffffffffffffff19167bffffffffffffffffffffffffffffffffffffffffffffffffffffffff1916815260200190815260200160002060006101000a81548160ff02191690831515021790555060016001600050600063602db56b60e01b7bffffffffffffffffffffffffffffffffffffffffffffffffffffffff19167bffffffffffffffffffffffffffffffffffffffffffffffffffffffff1916815260200190815260200160002060006101000a81548160ff02191690831515021790555060016001600050600063397d359260e01b7bffffffffffffffffffffffffffffffffffffffffffffffffffffffff19167bffffffffffffffffffffffffffffffffffffffffffffffffffffffff1916815260200190815260200160002060006101000a81548160ff021916908315150217905550600160016000506000630b218d2460e01b7bffffffffffffffffffffffffffffffffffffffffffffffffffffffff19167bffffffffffffffffffffffffffffffffffffffffffffffffffffffff1916815260200190815260200160002060006101000a81548160ff02191690831515021790555033600360006101000a81548173ffffffffffffffffffffffffffffffffffffffff021916908373ffffffffffffffffffffffffffffffffffffffff1602179055505b505b506200052e565b6000700100000000000000000000000000000000821015156200042e576040517f08c379a00000000000000000000000000000000000000000000000000000000081526004016200042590620004d1565b60405180910390fd5b81905062000437565b919050566200052d565b60006060828403121562000453578081fd5b604051606081018181106001600160401b03821117156200048257634e487b7160e01b83526041600452602483fd5b80604052508251620004948162000510565b808252506020830151620004a88162000510565b806020830152506040830151620004bf8162000510565b80604083015250809150505b92915050565b60208152601260208201527f6d6f7265207468616e2031323820626974730000000000000000000000000000604082015260006060820190505b919050565b6001600160a01b03811681141515620005295760006000fd5b505b565b5b60805160601c60a05160601c60c05160601c6185af620005f36000396000818161197501528181612805015281816128bb015281816128dc015261290601526000818161252f0152818161372f01526150e501526000818161031f01528181610e4d015281816110090152818161139a015281816116d20152818161186601528181611c160152818161220b0152818161231d0152818161243201528181612564015281816127060152818161350c01528181613a72015261425d01526185af6000f3fe6080604052600436106103175760003560e01c80636594da9f1161019a578063bdb2a496116100e1578063d99f57261161008a578063e2b1e9e311610064578063e2b1e9e314610c60578063f34348f114610c8c578063fd9c749214610cca57610423565b8063d99f572614610bcc578063dfff5dc414610c0a578063e1c7392a14610c4857610423565b8063c7711db4116100bb578063c7711db414610b24578063d159b4ae14610b62578063d5f3948814610ba057610423565b8063bdb2a49614610aa4578063c0c899ff14610abc578063c3c837ba14610ae657610423565b80638439788811610143578063a678f3361161011d578063a678f33614610a12578063b241bbac14610a3c578063b87e8d5814610a6657610423565b8063843978881461097e57806396122a5c146109aa578063a135ef17146109d457610423565b806378efc6b01161017457806378efc6b0146108fe5780637f250c6114610928578063816aaa251461095457610423565b80636594da9f1461086957806375ea13ca146108a857806375f12b21146108d257610423565b806326879a4e1161025e578063461054a3116102075780635a6beaf4116101e15780635a6beaf4146107fd578063602db56b14610827578063625021691461083f57610423565b8063461054a31461078f57806346ca626b146107a7578063530c1ccb146107d357610423565b80632c73f09e116102385780632c73f09e1461070f5780633237417414610739578063397d35921461076557610423565b806326879a4e146106915780632a7ba1f7146106bb5780632b7c7b11146106e557610423565b8063113cf1ab116102c057806318a15e791161029a57806318a15e79146105e75780631cef92b114610629578063230173e01461066757610423565b8063113cf1ab146105415780631428561d1461057f578063150b7a02146105a957610423565b80630c340a24116102f15780630c340a24146104ab5780630dca59c1146104d75780630f85fc5a1461050357610423565b806306ef2d8014610429578063092a26c3146104555780630b218d241461048157610423565b36610423575b7f000000000000000000000000000000000000000000000000000000000000000073ffffffffffffffffffffffffffffffffffffffff166380f556056040518163ffffffff1660e01b815260040160206040518083038186803b1580156103845760006000fd5b505afa158015610399573d600060003e3d6000fd5b505050506040513d601f19601f820116820180604052508101906103bd9190616be3565b73ffffffffffffffffffffffffffffffffffffffff163373ffffffffffffffffffffffffffffffffffffffff16141515610420577f4e487b7100000000000000000000000000000000000000000000000000000000600052600160045260246000fd5b5b005b60006000fd5b3480156104365760006000fd5b5061043f610cf6565b60405161044c9190617e56565b60405180910390f35b3480156104625760006000fd5b5061046b610d16565b60405161047891906176d7565b60405180910390f35b34801561048e5760006000fd5b506104a960048036038101906104a49190616ab3565b610d29565b005b3480156104b85760006000fd5b506104c1610e4b565b6040516104ce919061771f565b60405180910390f35b3480156104e45760006000fd5b506104ed610e6f565b6040516104fa9190617e87565b60405180910390f35b3480156105105760006000fd5b5061052b6004803603810190610526919061705f565b610eb2565b6040516105389190617c82565b60405180910390f35b34801561054e5760006000fd5b5061056960048036038101906105649190616b96565b610fd1565b60405161057691906176d7565b60405180910390f35b34801561058c5760006000fd5b506105a760048036038101906105a29190616cf1565b610ff6565b005b3480156105b65760006000fd5b506105d160048036038101906105cc91906169dc565b611197565b6040516105de91906176eb565b60405180910390f35b3480156105f45760006000fd5b5061060f600480360381019061060a9190616dec565b6111dd565b60405161062095949392919061747c565b60405180910390f35b3480156106365760006000fd5b50610651600480360381019061064c9190616c31565b6112f1565b60405161065e9190617e39565b60405180910390f35b3480156106745760006000fd5b5061068f600480360381019061068a9190616a82565b611372565b005b34801561069e5760006000fd5b506106b960048036038101906106b49190616dec565b611387565b005b3480156106c85760006000fd5b506106e360048036038101906106de9190616dec565b6115f9565b005b3480156106f25760006000fd5b5061070d60048036038101906107089190616dec565b6116bf565b005b34801561071c5760006000fd5b5061073760048036038101906107329190616dec565b611853565b005b3480156107465760006000fd5b5061074f611973565b60405161075c9190617747565b60405180910390f35b3480156107725760006000fd5b5061078d60048036038101906107889190616ab3565b611997565b005b34801561079c5760006000fd5b506107a5611ba5565b005b3480156107b45760006000fd5b506107bd611bfe565b6040516107ca9190617797565b60405180910390f35b3480156107e05760006000fd5b506107fb60048036038101906107f69190616cf1565b611c03565b005b34801561080a5760006000fd5b5061082560048036038101906108209190617082565b611da4565b005b3480156108345760006000fd5b5061083d611f9f565b005b34801561084c5760006000fd5b50610867600480360381019061086291906169ab565b611ff8565b005b3480156108765760006000fd5b50610891600480360381019061088c919061705f565b612038565b60405161089f929190617e99565b60405180910390f35b3480156108b55760006000fd5b506108d060048036038101906108cb9190616a82565b6121eb565b005b3480156108df5760006000fd5b506108e86122f7565b6040516108f591906176d7565b60405180910390f35b34801561090b5760006000fd5b5061092660048036038101906109219190616d85565b61230a565b005b3480156109355760006000fd5b5061093e612416565b60405161094b9190617e87565b60405180910390f35b3480156109615760006000fd5b5061097c60048036038101906109779190616e24565b61241f565b005b34801561098b5760006000fd5b5061099461252d565b6040516109a1919061776f565b60405180910390f35b3480156109b75760006000fd5b506109d260048036038101906109cd9190616c58565b612551565b005b3480156109e15760006000fd5b506109fc60048036038101906109f79190616c31565b6126b6565b604051610a099190617e87565b60405180910390f35b348015610a1f5760006000fd5b50610a3a6004803603810190610a359190616984565b6126d1565b005b348015610a495760006000fd5b50610a646004803603810190610a5f9190616a82565b6126f3565b005b348015610a735760006000fd5b50610a8e6004803603810190610a899190616984565b612845565b604051610a9b91906175cb565b60405180910390f35b348015610ab15760006000fd5b50610aba6128a8565b005b348015610ac95760006000fd5b50610ae46004803603810190610adf9190616f67565b6129da565b005b348015610af35760006000fd5b50610b0e6004803603810190610b09919061702b565b612c2c565b604051610b1b91906174e0565b60405180910390f35b348015610b315760006000fd5b50610b4c6004803603810190610b479190616d22565b612f4e565b604051610b59919061767f565b60405180910390f35b348015610b6f5760006000fd5b50610b8a6004803603810190610b859190616f41565b61300e565b604051610b979190617797565b60405180910390f35b348015610bad5760006000fd5b50610bb66130a4565b604051610bc391906173f4565b60405180910390f35b348015610bd95760006000fd5b50610bf46004803603810190610bef9190616d49565b6130ca565b604051610c019190617797565b60405180910390f35b348015610c175760006000fd5b50610c326004803603810190610c2d91906171ac565b613156565b604051610c3f9190617eb2565b60405180910390f35b348015610c555760006000fd5b50610c5e613483565b005b348015610c6d5760006000fd5b50610c766135b8565b604051610c839190617eb2565b60405180910390f35b348015610c995760006000fd5b50610cb46004803603810190610caf9190616dec565b6135ce565b604051610cc19190617d60565b60405180910390f35b348015610cd75760006000fd5b50610ce0613876565b604051610ced91906176d7565b60405180910390f35b610cfe616574565b610d0c6138ed63ffffffff16565b9050610d13565b90565b600560009054906101000a900460ff1681565b610d37613a6d63ffffffff16565b6000600090505b8151811015610e0e576003601060005060008484815181101515610d8b577f4e487b7100000000000000000000000000000000000000000000000000000000600052603260045260246000fd5b602002602001015163ffffffff168152602001908152602001600020600050600001601c6101000a81548160ff02191690836003811115610df5577f4e487b7100000000000000000000000000000000000000000000000000000000600052602160045260246000fd5b02179055505b8080610e069061832f565b915050610d3e565b507f7264e0084cbb7692193b834f40153b973ff4f827f8ed45da32ae6d8e486bb0c781604051610e3e919061762b565b60405180910390a15b5b50565b7f000000000000000000000000000000000000000000000000000000000000000081565b6000600860005060010160009054906101000a90046fffffffffffffffffffffffffffffffff166fffffffffffffffffffffffffffffffff169050610eaf565b90565b610eba61659f565b610ec982613acd63ffffffff16565b90508050600081610140015163ffffffff161115610fc4576010600050600082610140015163ffffffff16815260200190815260200160002060005060000160009054906101000a900473ffffffffffffffffffffffffffffffffffffffff1681610160019073ffffffffffffffffffffffffffffffffffffffff16908173ffffffffffffffffffffffffffffffffffffffff16815260200150506010600050600082610140015163ffffffff16815260200190815260200160002060005060000160149054906101000a900467ffffffffffffffff1681610180019067ffffffffffffffff16908167ffffffffffffffff16815260200150505b809050610fcc565b919050565b600160005060205280600052604060002060009150909054906101000a900460ff1681565b611004613e6963ffffffff16565b6110e07f000000000000000000000000000000000000000000000000000000000000000073ffffffffffffffffffffffffffffffffffffffff16639ec5a8946040518163ffffffff1660e01b815260040160206040518083038186803b15801561106e5760006000fd5b505afa158015611083573d600060003e3d6000fd5b505050506040513d601f19601f820116820180604052508101906110a79190616c0a565b73ffffffffffffffffffffffffffffffffffffffff163373ffffffffffffffffffffffffffffffffffffffff1614613ec463ffffffff16565b61113881600d60005060008573ffffffffffffffffffffffffffffffffffffffff1673ffffffffffffffffffffffffffffffffffffffff16815260200190815260200160002060005054613f0a90919063ffffffff16565b600d60005060008473ffffffffffffffffffffffffffffffffffffffff1673ffffffffffffffffffffffffffffffffffffffff1681526020019081526020016000206000508190909055505b611192613f2563ffffffff16565b5b5050565b60006040517f08c379a00000000000000000000000000000000000000000000000000000000081526004016111cb90617aa3565b60405180910390fd5b95945050505050565b60106000506020528060005260406000206000915090508060000160009054906101000a900473ffffffffffffffffffffffffffffffffffffffff16908060000160149054906101000a900467ffffffffffffffff169080600001601c9054906101000a900460ff169080600001601d9054906101000a900462ffffff169080600101600050805461126e906182d4565b80601f016020809104026020016040519081016040528092919081815260200182805461129a906182d4565b80156112e75780601f106112bc576101008083540402835291602001916112e7565b820191906000526020600020905b8154815290600101906020018083116112ca57829003601f168201915b5050505050905085565b6112f9616653565b600b60005060008373ffffffffffffffffffffffffffffffffffffffff1673ffffffffffffffffffffffffffffffffffffffff16815260200190815260200160002060005060405180604001604052908160008201600050548152602001600182016000505481526020015050905061136d565b919050565b6113828282613f3563ffffffff16565b5b5050565b611395613e6963ffffffff16565b6114717f000000000000000000000000000000000000000000000000000000000000000073ffffffffffffffffffffffffffffffffffffffff16639ec5a8946040518163ffffffff1660e01b815260040160206040518083038186803b1580156113ff5760006000fd5b505afa158015611414573d600060003e3d6000fd5b505050506040513d601f19601f820116820180604052508101906114389190616c0a565b73ffffffffffffffffffffffffffffffffffffffff163373ffffffffffffffffffffffffffffffffffffffff1614613ec463ffffffff16565b61151461148582613889909063ffffffff16565b600e6000506000600c600050600086815260200190815260200160002060005060000160009054906101000a900473ffffffffffffffffffffffffffffffffffffffff1673ffffffffffffffffffffffffffffffffffffffff1673ffffffffffffffffffffffffffffffffffffffff168152602001908152602001600020600050613fa290919063ffffffff16565b50600c600050600082815260200190815260200160002060006000820160006101000a81549073ffffffffffffffffffffffffffffffffffffffff02191690556000820160146101000a81549061ffff02191690556000820160166101000a81549063ffffffff021916905560018201600050600090556002820160006101000a81549075ffffffffffffffffffffffffffffffffffffffffffff02191690556002820160166101000a81549064ffffffffff021916905560028201601b6101000a81549064ffffffffff021916905550505b6115f5613f2563ffffffff16565b5b50565b611607613e6963ffffffff16565b61161561425b63ffffffff16565b61166e61162982613889909063ffffffff16565b600860005060010160009054906101000a90046fffffffffffffffffffffffffffffffff166fffffffffffffffffffffffffffffffff166142e990919063ffffffff16565b600860005060010160006101000a8154816fffffffffffffffffffffffffffffffff02191690836fffffffffffffffffffffffffffffffff1602179055505b6116bb613f2563ffffffff16565b5b50565b6116cd613e6963ffffffff16565b6117a97f000000000000000000000000000000000000000000000000000000000000000073ffffffffffffffffffffffffffffffffffffffff166380f556056040518163ffffffff1660e01b815260040160206040518083038186803b1580156117375760006000fd5b505afa15801561174c573d600060003e3d6000fd5b505050506040513d601f19601f820116820180604052508101906117709190616be3565b73ffffffffffffffffffffffffffffffffffffffff163373ffffffffffffffffffffffffffffffffffffffff1614613ec463ffffffff16565b6118026117bd82613889909063ffffffff16565b600860005060010160009054906101000a90046fffffffffffffffffffffffffffffffff166fffffffffffffffffffffffffffffffff1661430490919063ffffffff16565b600860005060010160006101000a8154816fffffffffffffffffffffffffffffffff02191690836fffffffffffffffffffffffffffffffff1602179055505b61184f613f2563ffffffff16565b5b50565b611861613e6963ffffffff16565b61193d7f000000000000000000000000000000000000000000000000000000000000000073ffffffffffffffffffffffffffffffffffffffff166380f556056040518163ffffffff1660e01b815260040160206040518083038186803b1580156118cb5760006000fd5b505afa1580156118e0573d600060003e3d6000fd5b505050506040513d601f19601f820116820180604052508101906119049190616be3565b73ffffffffffffffffffffffffffffffffffffffff163373ffffffffffffffffffffffffffffffffffffffff1614613ec463ffffffff16565b61195581600760005054613f0a90919063ffffffff16565b60076000508190909055505b61196f613f2563ffffffff16565b5b50565b7f000000000000000000000000000000000000000000000000000000000000000081565b6119a5613a6d63ffffffff16565b6000600090505b8151811015611b6857600060038111156119ef577f4e487b7100000000000000000000000000000000000000000000000000000000600052602160045260246000fd5b601060005060008484815181101515611a31577f4e487b7100000000000000000000000000000000000000000000000000000000600052603260045260246000fd5b602002602001015163ffffffff168152602001908152602001600020600050600001601c9054906101000a900460ff166003811115611a99577f4e487b7100000000000000000000000000000000000000000000000000000000600052602160045260246000fd5b141515611b54576002601060005060008484815181101515611ae4577f4e487b7100000000000000000000000000000000000000000000000000000000600052603260045260246000fd5b602002602001015163ffffffff168152602001908152602001600020600050600001601c6101000a81548160ff02191690836003811115611b4e577f4e487b7100000000000000000000000000000000000000000000000000000000600052602160045260246000fd5b02179055505b5b8080611b609061832f565b9150506119ac565b507f2e54370527117fb69828eac075cb3ed33fe59712134dfd3ef6efc9bd8b60c1ec81604051611b98919061762b565b60405180910390a15b5b50565b611bb3613a6d63ffffffff16565b6000600560006101000a81548160ff0219169083151502179055507f262b602ad12e3e551a407d5246b500f4ca5a01cc76bbf03e925db643a62a692f60405160405180910390a15b5b565b60c881565b611c11613e6963ffffffff16565b611ced7f000000000000000000000000000000000000000000000000000000000000000073ffffffffffffffffffffffffffffffffffffffff16639ec5a8946040518163ffffffff1660e01b815260040160206040518083038186803b158015611c7b5760006000fd5b505afa158015611c90573d600060003e3d6000fd5b505050506040513d601f19601f82011682018060405250810190611cb49190616c0a565b73ffffffffffffffffffffffffffffffffffffffff163373ffffffffffffffffffffffffffffffffffffffff1614613ec463ffffffff16565b611d4581600d60005060008573ffffffffffffffffffffffffffffffffffffffff1673ffffffffffffffffffffffffffffffffffffffff1681526020019081526020016000206000505461431f90919063ffffffff16565b600d60005060008473ffffffffffffffffffffffffffffffffffffffff1673ffffffffffffffffffffffffffffffffffffffff1681526020019081526020016000206000508190909055505b611d9f613f2563ffffffff16565b5b5050565b611db2613e6963ffffffff16565b611dc061425b63ffffffff16565b600560009054906101000a900460ff168015611de7575060008267ffffffffffffffff1614155b15611e0157611dfc828261433a63ffffffff16565b905080505b60008160200151148015611e19575060008160400151145b15611f7a57600460005060008367ffffffffffffffff1667ffffffffffffffff168152602001908152602001600020600060008201600050600090556001820160006101000a8154906fffffffffffffffffffffffffffffffff02191690556001820160106101000a8154906fffffffffffffffffffffffffffffffff02191690556002820160006101000a8154906fffffffffffffffffffffffffffffffff02191690556002820160106101000a8154906fffffffffffffffffffffffffffffffff02191690556003820160006101000a81549067ffffffffffffffff02191690556003820160086101000a81549067ffffffffffffffff02191690556003820160106101000a81549062ffffff02191690556003820160136101000a81549060ff02191690556003820160146101000a81549067ffffffffffffffff021916905560038201601c6101000a81549063ffffffff02191690555050611f8b565b611f8a828261478563ffffffff16565b5b5b611f9a613f2563ffffffff16565b5b5050565b611fad613a6d63ffffffff16565b6000600560016101000a81548160ff0219169083151502179055507fc4f6661464541d662c51191d4da5a7a1cc8bca2631698fd030e21b52520a549c60405160405180910390a15b5b565b612006613e6963ffffffff16565b61201461425b63ffffffff16565b6120248282614af363ffffffff16565b5b612033613f2563ffffffff16565b5b5050565b60006000600460005060008467ffffffffffffffff1667ffffffffffffffff16815260200190815260200160002060005060010160109054906101000a90046fffffffffffffffffffffffffffffffff166fffffffffffffffffffffffffffffffff1691508150600460005060008467ffffffffffffffff1667ffffffffffffffff16815260200190815260200160002060005060010160009054906101000a90046fffffffffffffffffffffffffffffffff166fffffffffffffffffffffffffffffffff16905080506000600460005060008567ffffffffffffffff1667ffffffffffffffff16815260200190815260200160002060005060020160009054906101000a90046fffffffffffffffffffffffffffffffff166fffffffffffffffffffffffffffffffff16905060008314806121745750600081145b1561218557828292509250506121e6565b6000600860005060010160109054906101000a90046fffffffffffffffffffffffffffffffff166fffffffffffffffffffffffffffffffff16905080821415156121e3576121de818386614c1c9092919063ffffffff16565b935083505b50505b915091565b600560019054906101000a900460ff161515612206576122f3565b6122e27f000000000000000000000000000000000000000000000000000000000000000073ffffffffffffffffffffffffffffffffffffffff16639ec5a8946040518163ffffffff1660e01b815260040160206040518083038186803b1580156122705760006000fd5b505afa158015612285573d600060003e3d6000fd5b505050506040513d601f19601f820116820180604052508101906122a99190616c0a565b73ffffffffffffffffffffffffffffffffffffffff163373ffffffffffffffffffffffffffffffffffffffff1614613ec463ffffffff16565b6122f28282613f3563ffffffff16565b5b5050565b600060009054906101000a900460ff1681565b612318613e6963ffffffff16565b6123f47f000000000000000000000000000000000000000000000000000000000000000073ffffffffffffffffffffffffffffffffffffffff166380f556056040518163ffffffff1660e01b815260040160206040518083038186803b1580156123825760006000fd5b505afa158015612397573d600060003e3d6000fd5b505050506040513d601f19601f820116820180604052508101906123bb9190616be3565b73ffffffffffffffffffffffffffffffffffffffff163373ffffffffffffffffffffffffffffffffffffffff1614613ec463ffffffff16565b61240381614d4063ffffffff16565b5b612412613f2563ffffffff16565b5b50565b60076000505481565b61242d613e6963ffffffff16565b6125097f000000000000000000000000000000000000000000000000000000000000000073ffffffffffffffffffffffffffffffffffffffff16639ec5a8946040518163ffffffff1660e01b815260040160206040518083038186803b1580156124975760006000fd5b505afa1580156124ac573d600060003e3d6000fd5b505050506040513d601f19601f820116820180604052508101906124d09190616c0a565b73ffffffffffffffffffffffffffffffffffffffff163373ffffffffffffffffffffffffffffffffffffffff1614613ec463ffffffff16565b6125198282614eb263ffffffff16565b5b612528613f2563ffffffff16565b5b5050565b7f000000000000000000000000000000000000000000000000000000000000000081565b61255f613e6963ffffffff16565b61263b7f000000000000000000000000000000000000000000000000000000000000000073ffffffffffffffffffffffffffffffffffffffff16639ec5a8946040518163ffffffff1660e01b815260040160206040518083038186803b1580156125c95760006000fd5b505afa1580156125de573d600060003e3d6000fd5b505050506040513d601f19601f820116820180604052508101906126029190616c0a565b73ffffffffffffffffffffffffffffffffffffffff163373ffffffffffffffffffffffffffffffffffffffff1614613ec463ffffffff16565b80600b60005060008473ffffffffffffffffffffffffffffffffffffffff1673ffffffffffffffffffffffffffffffffffffffff1681526020019081526020016000206000506000820151816000016000509090556020820151816001016000509090559050505b6126b1613f2563ffffffff16565b5b5050565b600d6000506020528060005260406000206000915090505481565b6126df613a6d63ffffffff16565b6126ee816150e363ffffffff16565b5b5b50565b612701613e6963ffffffff16565b6127dd7f000000000000000000000000000000000000000000000000000000000000000073ffffffffffffffffffffffffffffffffffffffff166380f556056040518163ffffffff1660e01b815260040160206040518083038186803b15801561276b5760006000fd5b505afa158015612780573d600060003e3d6000fd5b505050506040513d601f19601f820116820180604052508101906127a49190616be3565b73ffffffffffffffffffffffffffffffffffffffff163373ffffffffffffffffffffffffffffffffffffffff1614613ec463ffffffff16565b6127f58160076000505461431f90919063ffffffff16565b60076000508190909055506128317f0000000000000000000000000000000000000000000000000000000000000000838361517763ffffffff16565b5b612840613f2563ffffffff16565b5b5050565b606061289c600e60005060008473ffffffffffffffffffffffffffffffffffffffff1673ffffffffffffffffffffffffffffffffffffffff168152602001908152602001600020600050615204909063ffffffff16565b90506128a3565b919050565b6128b6613e6963ffffffff16565b6129c87f00000000000000000000000000000000000000000000000000000000000000007f00000000000000000000000000000000000000000000000000000000000000006129bd6007600050547f000000000000000000000000000000000000000000000000000000000000000073ffffffffffffffffffffffffffffffffffffffff166370a08231306040518263ffffffff1660e01b815260040161295d91906173f4565b60206040518083038186803b1580156129765760006000fd5b505afa15801561298b573d600060003e3d6000fd5b505050506040513d601f19601f820116820180604052508101906129af9190616e08565b61431f90919063ffffffff16565b61517763ffffffff16565b5b6129d7613f2563ffffffff16565b5b565b6129e8613e6963ffffffff16565b612a673373ffffffffffffffffffffffffffffffffffffffff16601060005060008563ffffffff16815260200190815260200160002060005060000160009054906101000a900473ffffffffffffffffffffffffffffffffffffffff1673ffffffffffffffffffffffffffffffffffffffff1614613ec463ffffffff16565b612b1860006003811115612aa4577f4e487b7100000000000000000000000000000000000000000000000000000000600052602160045260246000fd5b601060005060008563ffffffff168152602001908152602001600020600050600001601c9054906101000a900460ff166003811115612b0c577f4e487b7100000000000000000000000000000000000000000000000000000000600052602160045260246000fd5b14613ec463ffffffff16565b6001601060005060008463ffffffff168152602001908152602001600020600050600001601c6101000a81548160ff02191690836003811115612b84577f4e487b7100000000000000000000000000000000000000000000000000000000600052602160045260246000fd5b021790555080601060005060008463ffffffff1681526020019081526020016000206000506001016000509080519060200190612bc2929190616670565b503373ffffffffffffffffffffffffffffffffffffffff168263ffffffff167fec673006d787a8f7beffb5435d65c9380768a511390c957f84092e507033f21883604051612c1091906177ac565b60405180910390a35b612c27613f2563ffffffff16565b5b5050565b60608163ffffffff168363ffffffff16101515612c495760006000fd5b8282612c559190618271565b63ffffffff1667ffffffffffffffff811115612c9a577f4e487b7100000000000000000000000000000000000000000000000000000000600052604160045260246000fd5b604051908082528060200260200182016040528015612cd357816020015b612cc06166fb565b815260200190600190039081612cb85790505b509050805060005b8263ffffffff168463ffffffff161015612f4657601060005060008580612d019061836e565b965063ffffffff1681526020019081526020016000206000506040518060a00160405290816000820160009054906101000a900473ffffffffffffffffffffffffffffffffffffffff1673ffffffffffffffffffffffffffffffffffffffff1673ffffffffffffffffffffffffffffffffffffffff1681526020016000820160149054906101000a900467ffffffffffffffff1667ffffffffffffffff1667ffffffffffffffff16815260200160008201601c9054906101000a900460ff166003811115612df8577f4e487b7100000000000000000000000000000000000000000000000000000000600052602160045260246000fd5b6003811115612e30577f4e487b7100000000000000000000000000000000000000000000000000000000600052602160045260246000fd5b815260200160008201601d9054906101000a900462ffffff1662ffffff1662ffffff168152602001600182016000508054612e6a906182d4565b80601f0160208091040260200160405190810160405280929190818152602001828054612e96906182d4565b8015612ee35780601f10612eb857610100808354040283529160200191612ee3565b820191906000526020600020905b815481529060010190602001808311612ec657829003601f168201915b505050505081526020015050828280612efb9061832f565b9350815181101515612f36577f4e487b7100000000000000000000000000000000000000000000000000000000600052603260045260246000fd5b6020026020010181905250612cdb565b505b92915050565b606060066000506000612f688460c86130ca63ffffffff16565b60020b60020b8152602001908152602001600020600050805480602002602001604051908101604052809291908181526020018280548015612ffd57602002820191906000526020600020906000905b82829054906101000a900467ffffffffffffffff1667ffffffffffffffff1681526020019060080190602082600701049283019260010382029150808411612fb85790505b50505050509050613009565b919050565b6000600082141561302457627fffff905061309e565b600083111515613069576040517f08c379a0000000000000000000000000000000000000000000000000000000008152600401613060906179a7565b60405180910390fd5b61309761308a61307f85856152aa63ffffffff16565b61531263ffffffff16565b60c86130ca63ffffffff16565b905061309e565b92915050565b600360009054906101000a900473ffffffffffffffffffffffffffffffffffffffff1681565b600060008360020b905060008360020b826130e59190618397565b905060008114156130fa578492505050613150565b600060008313613123578460020b8284613114919061819b565b61311e919061819b565b613130565b818361312f919061819b565b5b905061314381615726909063ffffffff16565b9350505050613150565050505b92915050565b6000613166613e6963ffffffff16565b6703782dace9d9000067ffffffffffffffff168367ffffffffffffffff16111515156131c7576040517f08c379a00000000000000000000000000000000000000000000000000000000081526004016131be90617b21565b60405180910390fd5b63ffffffff63ffffffff16600f60009054906101000a900463ffffffff1663ffffffff161015156131f85760006000fd5b6000600f600081819054906101000a900463ffffffff168092919061321c9061836e565b91906101000a81548163ffffffff021916908363ffffffff16021790555090506040518060a001604052803373ffffffffffffffffffffffffffffffffffffffff1681526020018567ffffffffffffffff168152602001600060038111156132ad577f4e487b7100000000000000000000000000000000000000000000000000000000600052602160045260246000fd5b81526020018462ffffff16815260200160405180602001604052806000815260200150815260200150601060005060008363ffffffff16815260200190815260200160002060005060008201518160000160006101000a81548173ffffffffffffffffffffffffffffffffffffffff021916908373ffffffffffffffffffffffffffffffffffffffff16021790555060208201518160000160146101000a81548167ffffffffffffffff021916908367ffffffffffffffff160217905550604082015181600001601c6101000a81548160ff021916908360038111156133bc577f4e487b7100000000000000000000000000000000000000000000000000000000600052602160045260246000fd5b0217905550606082015181600001601d6101000a81548162ffffff021916908362ffffff1602179055506080820151816001016000509080519060200190613405929190616670565b509050508262ffffff163373ffffffffffffffffffffffffffffffffffffffff168263ffffffff167f46f1b99a43c800f57b28bd687fe2fc54e883b31ff06b2a6d863d5289250597488760405161345c9190617eca565b60405180910390a48091505061346e56505b61347c613f2563ffffffff16565b5b92915050565b6134e2600360009054906101000a900473ffffffffffffffffffffffffffffffffffffffff1673ffffffffffffffffffffffffffffffffffffffff163373ffffffffffffffffffffffffffffffffffffffff1614613ec463ffffffff16565b600360006101000a81549073ffffffffffffffffffffffffffffffffffffffff02191690556135b57f000000000000000000000000000000000000000000000000000000000000000073ffffffffffffffffffffffffffffffffffffffff16639ec5a8946040518163ffffffff1660e01b815260040160206040518083038186803b1580156135715760006000fd5b505afa158015613586573d600060003e3d6000fd5b505050506040513d601f19601f820116820180604052508101906135aa9190616c0a565b6150e363ffffffff16565b5b565b600f60009054906101000a900463ffffffff1681565b6135d661678a565b6135e5826157a863ffffffff16565b905080506000816020015161ffff16111515613636576040517f08c379a000000000000000000000000000000000000000000000000000000000815260040161362d90617968565b60405180910390fd5b600081610120015163ffffffff16111561372d576010600050600082610120015163ffffffff16815260200190815260200160002060005060000160149054906101000a900467ffffffffffffffff1681610160019067ffffffffffffffff16908167ffffffffffffffff16815260200150506010600050600082610120015163ffffffff16815260200190815260200160002060005060000160009054906101000a900473ffffffffffffffffffffffffffffffffffffffff1681610140019073ffffffffffffffffffffffffffffffffffffffff16908173ffffffffffffffffffffffffffffffffffffffff16815260200150505b7f000000000000000000000000000000000000000000000000000000000000000073ffffffffffffffffffffffffffffffffffffffff166399fbab88836040518263ffffffff1660e01b81526004016137869190617e87565b6101806040518083038186803b1580156137a05760006000fd5b505afa1580156137b5573d600060003e3d6000fd5b505050506040513d601f19601f820116820180604052508101906137d991906171e4565b909192939495969798999a509091929394959697989950909192939495969798509091929394959697509091929394959650909192509091509050508360e00184610100018560a0018390906fffffffffffffffffffffffffffffffff166fffffffffffffffffffffffffffffffff1681526020015083909060020b60020b81526020015083909060020b60020b8152602001505050505b919050565b600560019054906101000a900460ff1681565b6000700100000000000000000000000000000000821015156138e0576040517f08c379a00000000000000000000000000000000000000000000000000000000081526004016138d790617a25565b60405180910390fd5b8190506138e8565b919050565b6138f5616574565b60006008600050604051806080016040529081600082016000505481526020016001820160009054906101000a90046fffffffffffffffffffffffffffffffff166fffffffffffffffffffffffffffffffff166fffffffffffffffffffffffffffffffff1681526020016001820160109054906101000a90046fffffffffffffffffffffffffffffffff166fffffffffffffffffffffffffffffffff166fffffffffffffffffffffffffffffffff1681526020016002820160009054906101000a90046fffffffffffffffffffffffffffffffff166fffffffffffffffffffffffffffffffff166fffffffffffffffffffffffffffffffff16815260200150509050604051806080016040528082602001516fffffffffffffffffffffffffffffffff16815260200182606001516fffffffffffffffffffffffffffffffff1681526020018260000151815260200182604001516fffffffffffffffffffffffffffffffff16815260200150915050613a6a56505b90565b613aca7f000000000000000000000000000000000000000000000000000000000000000073ffffffffffffffffffffffffffffffffffffffff163373ffffffffffffffffffffffffffffffffffffffff1614613ec463ffffffff16565b5b565b613ad561659f565b6000600460005060008467ffffffffffffffff1667ffffffffffffffff16815260200190815260200160002060005060405180610160016040529081600082016000505481526020016001820160009054906101000a90046fffffffffffffffffffffffffffffffff166fffffffffffffffffffffffffffffffff166fffffffffffffffffffffffffffffffff1681526020016001820160109054906101000a90046fffffffffffffffffffffffffffffffff166fffffffffffffffffffffffffffffffff166fffffffffffffffffffffffffffffffff1681526020016002820160009054906101000a90046fffffffffffffffffffffffffffffffff166fffffffffffffffffffffffffffffffff166fffffffffffffffffffffffffffffffff1681526020016002820160109054906101000a90046fffffffffffffffffffffffffffffffff166fffffffffffffffffffffffffffffffff166fffffffffffffffffffffffffffffffff1681526020016003820160009054906101000a900467ffffffffffffffff1667ffffffffffffffff1667ffffffffffffffff1681526020016003820160089054906101000a900467ffffffffffffffff1667ffffffffffffffff1667ffffffffffffffff1681526020016003820160109054906101000a900460020b60020b60020b81526020016003820160139054906101000a900460ff161515151581526020016003820160149054906101000a900467ffffffffffffffff1667ffffffffffffffff1667ffffffffffffffff16815260200160038201601c9054906101000a900463ffffffff1663ffffffff1663ffffffff16815260200150509050604051806101a001604052808260000151815260200182602001516fffffffffffffffffffffffffffffffff16815260200182604001516fffffffffffffffffffffffffffffffff16815260200182606001516fffffffffffffffffffffffffffffffff16815260200182608001516fffffffffffffffffffffffffffffffff1681526020018260a0015167ffffffffffffffff1681526020018260c0015167ffffffffffffffff1681526020018260e0015160020b81526020018261010001511515815260200182610120015167ffffffffffffffff16815260200182610140015163ffffffff168152602001600073ffffffffffffffffffffffffffffffffffffffff168152602001600067ffffffffffffffff16815260200150915050613e6456505b919050565b600260026000505414151515613eb4576040517f08c379a0000000000000000000000000000000000000000000000000000000008152600401613eab906177c8565b60405180910390fd5b600260026000508190909055505b565b801515613f06576040517f08c379a0000000000000000000000000000000000000000000000000000000008152600401613efd906178ea565b60405180910390fd5b5b50565b60008183613f189190618059565b9050613f1f565b92915050565b600160026000508190909055505b565b613f9c613f4982613889909063ffffffff16565b600e60005060008573ffffffffffffffffffffffffffffffffffffffff1673ffffffffffffffffffffffffffffffffffffffff168152602001908152602001600020600050615a3e90919063ffffffff16565b505b5050565b60006000836001016000506000846fffffffffffffffffffffffffffffffff166fffffffffffffffffffffffffffffffff1681526020019081526020016000206000505490506000811415156142495760006001826140019190618252565b905060006001866000016000508054905061401c9190618252565b905060008660000160005082815481101515614061577f4e487b7100000000000000000000000000000000000000000000000000000000600052603260045260246000fd5b90600052602060002090600291828204019190066010025b9054906101000a90046fffffffffffffffffffffffffffffffff1690508087600001600050848154811015156140d8577f4e487b7100000000000000000000000000000000000000000000000000000000600052603260045260246000fd5b90600052602060002090600291828204019190066010025b6101000a8154816fffffffffffffffffffffffffffffffff02191690836fffffffffffffffffffffffffffffffff1602179055506001836141319190618059565b876001016000506000836fffffffffffffffffffffffffffffffff166fffffffffffffffffffffffffffffffff1681526020019081526020016000206000508190909055508660000160005080548015156141b5577f4e487b7100000000000000000000000000000000000000000000000000000000600052603160045260246000fd5b60019003818190600052602060002090600291828204019190066010025b6101000a8154906fffffffffffffffffffffffffffffffff02191690559055866001016000506000876fffffffffffffffffffffffffffffffff166fffffffffffffffffffffffffffffffff16815260200190815260200160002060005060009055600194505050505061425556505050614253565b6000915050614255565b505b92915050565b7f000000000000000000000000000000000000000000000000000000000000000073ffffffffffffffffffffffffffffffffffffffff16637c114fed336040518263ffffffff1660e01b81526004016142b491906173f4565b60006040518083038186803b1580156142cd5760006000fd5b505afa1580156142e2573d600060003e3d6000fd5b505050505b565b600081836142f79190618218565b90506142fe565b92915050565b60008183614312919061801e565b9050614319565b92915050565b6000818361432d9190618252565b9050614334565b92915050565b61434261659f565b6000600460005060008567ffffffffffffffff1667ffffffffffffffff16815260200190815260200160002060005060030160139054906101000a900460ff16905060008161439457627fffff6143d3565b600460005060008667ffffffffffffffff1667ffffffffffffffff16815260200190815260200160002060005060030160109054906101000a900460020b5b90506000600460005060008767ffffffffffffffff1667ffffffffffffffff16815260200190815260200160002060005060030160149054906101000a900467ffffffffffffffff16905060006144388660200151876040015161300e63ffffffff16565b90508060020b8360020b14151561476f57808660e0019060020b908160020b815260200150506000627fffff60020b8460020b121561469557600660005060008560020b60020b81526020019081526020016000206000509050805060006144b7600183805490506144aa9190618252565b615b2f909063ffffffff16565b90508067ffffffffffffffff168467ffffffffffffffff16141515614625576000828267ffffffffffffffff1681548110151561451d577f4e487b7100000000000000000000000000000000000000000000000000000000600052603260045260246000fd5b90600052602060002090600491828204019190066008025b9054906101000a900467ffffffffffffffff16905080838667ffffffffffffffff16815481101515614590577f4e487b7100000000000000000000000000000000000000000000000000000000600052603260045260246000fd5b90600052602060002090600491828204019190066008025b6101000a81548167ffffffffffffffff021916908367ffffffffffffffff16021790555084600460005060008367ffffffffffffffff1667ffffffffffffffff16815260200190815260200160002060005060030160146101000a81548167ffffffffffffffff021916908367ffffffffffffffff160217905550505b81805480151561465e577f4e487b7100000000000000000000000000000000000000000000000000000000600052603160045260246000fd5b60019003818190600052602060002090600491828204019190066008025b6101000a81549067ffffffffffffffff02191690559055505b627fffff60020b8260020b121561476d57600660005060008360020b60020b8152602001908152602001600020600050905080506146de8180549050615b2f909063ffffffff16565b87610120019067ffffffffffffffff16908167ffffffffffffffff1681526020015050600187610100019015159081151581526020015050808890806001815401808255809150506001900390600052602060002090600491828204019190066008025b9091909190916101000a81548167ffffffffffffffff021916908367ffffffffffffffff1602179055505b505b8594505050505061477f56505050505b92915050565b604051806101600160405280826000015181526020016147b08360200151613889909063ffffffff16565b6fffffffffffffffffffffffffffffffff1681526020016147dc8360400151613889909063ffffffff16565b6fffffffffffffffffffffffffffffffff1681526020016148088360600151613889909063ffffffff16565b6fffffffffffffffffffffffffffffffff1681526020016148348360800151613889909063ffffffff16565b6fffffffffffffffffffffffffffffffff1681526020018260a0015167ffffffffffffffff1681526020018260c0015167ffffffffffffffff1681526020018260e0015160020b81526020018261010001511515815260200182610120015167ffffffffffffffff16815260200182610140015163ffffffff16815260200150600460005060008467ffffffffffffffff1667ffffffffffffffff16815260200190815260200160002060005060008201518160000160005090905560208201518160010160006101000a8154816fffffffffffffffffffffffffffffffff02191690836fffffffffffffffffffffffffffffffff16021790555060408201518160010160106101000a8154816fffffffffffffffffffffffffffffffff02191690836fffffffffffffffffffffffffffffffff16021790555060608201518160020160006101000a8154816fffffffffffffffffffffffffffffffff02191690836fffffffffffffffffffffffffffffffff16021790555060808201518160020160106101000a8154816fffffffffffffffffffffffffffffffff02191690836fffffffffffffffffffffffffffffffff16021790555060a08201518160030160006101000a81548167ffffffffffffffff021916908367ffffffffffffffff16021790555060c08201518160030160086101000a81548167ffffffffffffffff021916908367ffffffffffffffff16021790555060e08201518160030160106101000a81548162ffffff021916908360020b62ffffff1602179055506101008201518160030160136101000a81548160ff0219169083151502179055506101208201518160030160146101000a81548167ffffffffffffffff021916908367ffffffffffffffff16021790555061014082015181600301601c6101000a81548163ffffffff021916908363ffffffff1602179055509050505b5050565b60008273ffffffffffffffffffffffffffffffffffffffff1682600067ffffffffffffffff811115614b4e577f4e487b7100000000000000000000000000000000000000000000000000000000600052604160045260246000fd5b6040519080825280601f01601f191660200182016040528015614b805781602001600182028036833780820191505090505b50604051614b8e91906173d5565b60006040518083038185875af1925050503d8060008114614bcb576040519150601f19603f3d011682016040523d82523d6000602084013e614bd0565b606091505b50509050801515614c16576040517f08c379a0000000000000000000000000000000000000000000000000000000008152600401614c0d90617807565b60405180910390fd5b505b5050565b6000600060006000198587098587029250828110838203039150506000811415614c5f57600084111515614c505760006000fd5b83820492508292505050614d39565b8084111515614c6e5760006000fd5b60008486880990508281118203915080830392506000856001877fffffffffffffffffffffffffffffffffffffffffffffffffffffffffffffffff030116905080508086049550808404935060018182600003040190508083028417935083506000600287600302189050808702600203810290508050808702600203810290508050808702600203810290508050808702600203810290508050808702600203810290508050808702600203810290508050808502955085505084945050505050614d3956505050505b9392505050565b604051806080016040528082604001518152602001614d6a8360000151613889909063ffffffff16565b6fffffffffffffffffffffffffffffffff168152602001614d968360600151613889909063ffffffff16565b6fffffffffffffffffffffffffffffffff168152602001614dc28360200151613889909063ffffffff16565b6fffffffffffffffffffffffffffffffff16815260200150600860005060008201518160000160005090905560208201518160010160006101000a8154816fffffffffffffffffffffffffffffffff02191690836fffffffffffffffffffffffffffffffff16021790555060408201518160010160106101000a8154816fffffffffffffffffffffffffffffffff02191690836fffffffffffffffffffffffffffffffff16021790555060608201518160020160006101000a8154816fffffffffffffffffffffffffffffffff02191690836fffffffffffffffffffffffffffffffff1602179055509050505b50565b6040518060e00160405280826000015173ffffffffffffffffffffffffffffffffffffffff168152602001826020015161ffff16815260200182610120015163ffffffff16815260200182604001518152602001614f1b8360600151615b8b909063ffffffff16565b75ffffffffffffffffffffffffffffffffffffffffffff168152602001614f578360c0015167ffffffffffffffff16615bf5909063ffffffff16565b64ffffffffff168152602001614f788360800151615bf5909063ffffffff16565b64ffffffffff16815260200150600c600050600084815260200190815260200160002060005060008201518160000160006101000a81548173ffffffffffffffffffffffffffffffffffffffff021916908373ffffffffffffffffffffffffffffffffffffffff16021790555060208201518160000160146101000a81548161ffff021916908361ffff16021790555060408201518160000160166101000a81548163ffffffff021916908363ffffffff16021790555060608201518160010160005090905560808201518160020160006101000a81548175ffffffffffffffffffffffffffffffffffffffffffff021916908375ffffffffffffffffffffffffffffffffffffffffffff16021790555060a08201518160020160166101000a81548164ffffffffff021916908364ffffffffff16021790555060c082015181600201601b6101000a81548164ffffffffff021916908364ffffffffff1602179055509050505b5050565b7f000000000000000000000000000000000000000000000000000000000000000073ffffffffffffffffffffffffffffffffffffffff1663a22cb4658260016040518363ffffffff1660e01b815260040161513f92919061741c565b600060405180830381600087803b15801561515a5760006000fd5b505af115801561516f573d600060003e3d6000fd5b505050505b50565b6151fe8363a9059cbb60e01b848460405160240161519692919061744d565b604051602081830303815290604052907bffffffffffffffffffffffffffffffffffffffffffffffffffffffff19166020820180517bffffffffffffffffffffffffffffffffffffffffffffffffffffffff8381831617835250505050615c4e63ffffffff16565b5b505050565b60608160000160005080548060200260200160405190810160405280929190818152602001828054801561529b57602002820191906000526020600020906000905b82829054906101000a90046fffffffffffffffffffffffffffffffff166fffffffffffffffffffffffffffffffff1681526020019060100190602082600f010492830192600103820291508084116152465790505b5050505050905080505b919050565b60006153056152f866010000000000006152ea6152df6c010000000000000000000000008789614c1c9092919063ffffffff16565b615d1b63ffffffff16565b615da090919063ffffffff16565b615dbb909063ffffffff16565b905061530c565b92915050565b60006401000276a373ffffffffffffffffffffffffffffffffffffffff168273ffffffffffffffffffffffffffffffffffffffff1610158015615394575073fffd8963efd1fc6a506488495d951d5263988d2673ffffffffffffffffffffffffffffffffffffffff168273ffffffffffffffffffffffffffffffffffffffff16105b15156153d5576040517f08c379a00000000000000000000000000000000000000000000000000000000081526004016153cc90617c43565b60405180910390fd5b600060208373ffffffffffffffffffffffffffffffffffffffff16901b905060008190506000600090506fffffffffffffffffffffffffffffffff821160071b808217915082811c92505067ffffffffffffffff821160061b808217915082811c92505063ffffffff821160051b808217915082811c92505061ffff821160041b808217915082811c92505060ff821160031b808217915082811c925050600f821160021b808217915082811c9250506003821160011b808217915082811c925050600182118082179150506080811015156154c457607f816154b89190618252565b83901c915081506154d9565b80607f6154d19190618252565b83901b915081505b600060406080836154ea919061819b565b901b9050828302607f1c92508260801c80603f1b8217915083811c935050828302607f1c92508260801c80603e1b8217915083811c935050828302607f1c92508260801c80603d1b8217915083811c935050828302607f1c92508260801c80603c1b8217915083811c935050828302607f1c92508260801c80603b1b8217915083811c935050828302607f1c92508260801c80603a1b8217915083811c935050828302607f1c92508260801c8060391b8217915083811c935050828302607f1c92508260801c8060381b8217915083811c935050828302607f1c92508260801c8060371b8217915083811c935050828302607f1c92508260801c8060361b8217915083811c935050828302607f1c92508260801c8060351b8217915083811c935050828302607f1c92508260801c8060341b8217915083811c935050828302607f1c92508260801c8060331b8217915083811c935050828302607f1c92508260801c8060321b82179150506000693627a301d71055774c858261566d9190618097565b9050600060806f028f6481ab7f045a5af012a19d003aaa8361568f919061819b565b901d9050600060806fdb2df09e81959a81455e260799a0632f846156b39190617fa1565b901d90508060020b8260020b14615713578873ffffffffffffffffffffffffffffffffffffffff166156ea82615e2363ffffffff16565b73ffffffffffffffffffffffffffffffffffffffff16111561570c578161570e565b805b615715565b815b97508750505050505050505b919050565b60007fffffffffffffffffffffffffffffffffffffffffffffffffffffffffff800000821215801561575a57506280000082125b151561579b576040517f08c379a000000000000000000000000000000000000000000000000000000000815260040161579290617a64565b60405180910390fd5b8190506157a3565b919050565b6157b061678a565b6000600c60005060008481526020019081526020016000206000506040518060e00160405290816000820160009054906101000a900473ffffffffffffffffffffffffffffffffffffffff1673ffffffffffffffffffffffffffffffffffffffff1673ffffffffffffffffffffffffffffffffffffffff1681526020016000820160149054906101000a900461ffff1661ffff1661ffff1681526020016000820160169054906101000a900463ffffffff1663ffffffff1663ffffffff168152602001600182016000505481526020016002820160009054906101000a900475ffffffffffffffffffffffffffffffffffffffffffff1675ffffffffffffffffffffffffffffffffffffffffffff1675ffffffffffffffffffffffffffffffffffffffffffff1681526020016002820160169054906101000a900464ffffffffff1664ffffffffff1664ffffffffff16815260200160028201601b9054906101000a900464ffffffffff1664ffffffffff1664ffffffffff16815260200150509050604051806101800160405280826000015173ffffffffffffffffffffffffffffffffffffffff168152602001826020015161ffff16815260200182606001518152602001826080015175ffffffffffffffffffffffffffffffffffffffffffff1681526020018260c0015164ffffffffff16815260200160006fffffffffffffffffffffffffffffffff1681526020018260a0015164ffffffffff1667ffffffffffffffff168152602001600060020b8152602001600060020b8152602001826040015163ffffffff168152602001600073ffffffffffffffffffffffffffffffffffffffff168152602001600067ffffffffffffffff16815260200150915050615a3956505b919050565b6000615a50838361634663ffffffff16565b1515615b1f57826000016000508290806001815401808255809150506001900390600052602060002090600291828204019190066010025b9091909190916101000a8154816fffffffffffffffffffffffffffffffff02191690836fffffffffffffffffffffffffffffffff1602179055508260000160005080549050836001016000506000846fffffffffffffffffffffffffffffffff166fffffffffffffffffffffffffffffffff16815260200190815260200160002060005081909090555060019050615b2956615b28565b60009050615b29565b5b92915050565b60006801000000000000000082101515615b7e576040517f08c379a0000000000000000000000000000000000000000000000000000000008152600401615b7590617c04565b60405180910390fd5b819050615b86565b919050565b600076010000000000000000000000000000000000000000000082101515615be8576040517f08c379a0000000000000000000000000000000000000000000000000000000008152600401615bdf906179e6565b60405180910390fd5b819050615bf0565b919050565b60006501000000000082101515615c41576040517f08c379a0000000000000000000000000000000000000000000000000000000008152600401615c3890617846565b60405180910390fd5b819050615c49565b919050565b6000615cb3826040518060400160405280602081526020017f5361666545524332303a206c6f772d6c6576656c2063616c6c206661696c65648152602001508573ffffffffffffffffffffffffffffffffffffffff166163999092919063ffffffff16565b9050600081511115615d155780806020019051810190615cd39190616b6f565b1515615d14576040517f08c379a0000000000000000000000000000000000000000000000000000000008152600401615d0b90617b9f565b60405180910390fd5b5b505b5050565b60006003821115615d8857819050805060006001600284615d3c9190618079565b615d469190618059565b90505b81811015615d825780915081506002818285615d659190618079565b615d6f9190618059565b615d799190618079565b90508050615d49565b50615d9a565b600082141515615d99576001905080505b5b5b919050565b60008183615dae9190618156565b9050615db5565b92915050565b60007401000000000000000000000000000000000000000082101515615e16576040517f08c379a0000000000000000000000000000000000000000000000000000000008152600401615e0d90617b60565b60405180910390fd5b819050615e1e565b919050565b6000600060008360020b12615e3b578260020b615e49565b8260020b615e4890618416565b5b90507ffffffffffffffffffffffffffffffffffffffffffffffffffffffffffff27618615e75906183d3565b62ffffff168111151515615ebe576040517f08c379a0000000000000000000000000000000000000000000000000000000008152600401615eb590617929565b60405180910390fd5b60006000600183161415615ee357700100000000000000000000000000000000615ef5565b6ffffcb933bd6fad37aa2d162d1a5940015b70ffffffffffffffffffffffffffffffffff169050600060028316141515615f3c5760806ffff97272373d413259a46990580e213a82615f359190618156565b901c905080505b600060048316141515615f6e5760806ffff2e50f5f656932ef12357cf3c7fdcc82615f679190618156565b901c905080505b600060088316141515615fa05760806fffe5caca7e10e4e61c3624eaa0941cd082615f999190618156565b901c905080505b600060108316141515615fd25760806fffcb9843d60f6159c9db58835c92664482615fcb9190618156565b901c905080505b6000602083161415156160045760806fff973b41fa98c081472e6896dfb254c082615ffd9190618156565b901c905080505b6000604083161415156160365760806fff2ea16466c96a3843ec78b326b528618261602f9190618156565b901c905080505b6000608083161415156160685760806ffe5dee046a99a2a811c461f1969c3053826160619190618156565b901c905080505b6000610100831614151561609b5760806ffcbe86c7900a88aedcffc83b479aa3a4826160949190618156565b901c905080505b600061020083161415156160ce5760806ff987a7253ac413176f2b074cf7815e54826160c79190618156565b901c905080505b600061040083161415156161015760806ff3392b0822b70005940c7a398e4b70f3826160fa9190618156565b901c905080505b600061080083161415156161345760806fe7159475a2c29b7443b29c7fa6e889d98261612d9190618156565b901c905080505b600061100083161415156161675760806fd097f3bdfd2022b8845ad8f792aa5825826161609190618156565b901c905080505b6000612000831614151561619a5760806fa9f746462d870fdf8a65dc1f90e061e5826161939190618156565b901c905080505b600061400083161415156161cd5760806f70d869a156d2a1b890bb3df62baf32f7826161c69190618156565b901c905080505b600061800083161415156162005760806f31be135f97d08fd981231505542fcfa6826161f99190618156565b901c905080505b60006201000083161415156162345760806f09aa508b5b7a84e1c677de54f3e99bc98261622d9190618156565b901c905080505b60006202000083161415156162675760806e5d6af8dedb81196699c329225ee604826162609190618156565b901c905080505b60006204000083161415156162995760806d2216e584f5fa1ea926041bedfe98826162929190618156565b901c905080505b60006208000083161415156162c95760806b048a170391f7dc42444e8fa2826162c29190618156565b901c905080505b60008460020b131561630657807fffffffffffffffffffffffffffffffffffffffffffffffffffffffffffffffff6163019190618079565b905080505b60006401000000008261631991906183b5565b14616325576001616328565b60005b60ff16602082901c61633a9190618059565b9250825050505b919050565b60006000836001016000506000846fffffffffffffffffffffffffffffffff166fffffffffffffffffffffffffffffffff1681526020019081526020016000206000505414159050616393565b92915050565b60606163ae84846000856163bc63ffffffff16565b90506163b5565b9392505050565b6060824710151515616403576040517f08c379a00000000000000000000000000000000000000000000000000000000081526004016163fa90617885565b60405180910390fd5b616412856164e863ffffffff16565b1515616453576040517f08c379a000000000000000000000000000000000000000000000000000000000815260040161644a90617ae2565b60405180910390fd5b600060008673ffffffffffffffffffffffffffffffffffffffff16858760405161647d91906173d5565b60006040518083038185875af1925050503d80600081146164ba576040519150601f19603f3d011682016040523d82523d6000602084013e6164bf565b606091505b50915091506164d582828661650263ffffffff16565b925050506164e05650505b949350505050565b60006000823b9050600081119150506164fd56505b919050565b606083156165165782905061656d5661656c565b60008351111561652e5782518084602001fd5061656b565b816040517f08c379a000000000000000000000000000000000000000000000000000000000815260040161656291906177ac565b60405180910390fd5b5b5b9392505050565b6040518060800160405280600081526020016000815260200160008152602001600081526020015090565b604051806101a001604052806000815260200160008152602001600081526020016000815260200160008152602001600067ffffffffffffffff168152602001600067ffffffffffffffff168152602001600060020b8152602001600015158152602001600067ffffffffffffffff168152602001600063ffffffff168152602001600073ffffffffffffffffffffffffffffffffffffffff168152602001600067ffffffffffffffff1681526020015090565b604051806040016040528060008152602001600081526020015090565b82805461667c906182d4565b90600052602060002090601f01602090048101928261669e57600085556166ea565b82601f106166b757805160ff19168380011785556166ea565b828001600101855582156166ea579182015b828111156166e957825182600050909055916020019190600101906166c9565b5b5090506166f79190616850565b5090565b6040518060a00160405280600073ffffffffffffffffffffffffffffffffffffffff168152602001600067ffffffffffffffff1681526020016000600381111561676e577f4e487b7100000000000000000000000000000000000000000000000000000000600052602160045260246000fd5b8152602001600062ffffff168152602001606081526020015090565b604051806101800160405280600073ffffffffffffffffffffffffffffffffffffffff168152602001600061ffff16815260200160008152602001600081526020016000815260200160006fffffffffffffffffffffffffffffffff168152602001600067ffffffffffffffff168152602001600060020b8152602001600060020b8152602001600063ffffffff168152602001600073ffffffffffffffffffffffffffffffffffffffff168152602001600067ffffffffffffffff1681526020015090565b616855565b8082111561686f5760008181506000905550600101616855565b509056618578565b600081359050616886816184e7565b5b919050565b60008151905061689b816184e7565b5b919050565b6000813590506168b081618510565b5b919050565b6000813590506168c581618525565b5b919050565b6000815190506168da81618525565b5b919050565b6000813590506168ef8161853b565b5b919050565b6000815190506169048161853b565b5b919050565b60008135905061ffff8116811415156169235760006000fd5b5b919050565b60008151905061693881618560565b5b919050565b60008135905063ffffffff8116811415156169595760006000fd5b5b919050565b60008135905067ffffffffffffffff81168114151561697e5760006000fd5b5b919050565b600060208284031215616995578081fd5b81356169a0816184e7565b809150505b92915050565b60006000604083850312156169be578081fd5b82356169c9816184e7565b80925050602083013590505b9250929050565b60006000600060006000608086880312156169f5578081fd5b8535616a00816184e7565b809550506020860135616a12816184e7565b8094505060408601359250606086013567ffffffffffffffff80821115616a37578283fd5b818801915088601f8301121515616a4c578283fd5b813581811115616a5a578384fd5b896020828501011115616a6b578384fd5b6020830194508093505050505b9295509295909350565b6000600060408385031215616a95578182fd5b8235616aa0816184e7565b80925050602083013590505b9250929050565b60006020808385031215616ac5578182fd5b823567ffffffffffffffff80821115616adc578384fd5b818501915085601f8301121515616af1578384fd5b813581811115616b0457616b036184b6565b5b8060051b9150616b15848301617f4a565b8082825285820191508585018987868801011115616b31578788fd5b8795505b83861015616b5e57616b468161693e565b8352868301925086810190505b600186019550616b35565b508096505050505050505b92915050565b600060208284031215616b80578081fd5b8151616b8b81618510565b809150505b92915050565b600060208284031215616ba7578081fd5b81357fffffffff00000000000000000000000000000000000000000000000000000000811681141515616bd8578182fd5b809150505b92915050565b600060208284031215616bf4578081fd5b8151616bff816184e7565b809150505b92915050565b600060208284031215616c1b578081fd5b8151616c26816184e7565b809150505b92915050565b600060208284031215616c42578081fd5b8135616c4d816184e7565b809150505b92915050565b600060008284036060811215616c6c578283fd5b8335616c77816184e7565b8093505060407fffffffffffffffffffffffffffffffffffffffffffffffffffffffffffffffe082011215616caa578182fd5b506040516040810181811067ffffffffffffffff82111715616ccf57616cce6184b6565b5b80604052506020840135815260408401356020820152809150505b9250929050565b6000600060408385031215616d04578182fd5b8235616d0f816184e7565b80925050602083013590505b9250929050565b600060208284031215616d33578081fd5b8135616d3e81618525565b809150505b92915050565b6000600060408385031215616d5c578182fd5b8235616d6781618525565b809250506020830135616d7981618525565b809150505b9250929050565b600060808284031215616d96578081fd5b6040516080810181811067ffffffffffffffff82111715616dba57616db96184b6565b5b806040525082358152602083013560208201526040830135604082015260608301356060820152809150505b92915050565b600060208284031215616dfd578081fd5b813590505b92915050565b600060208284031215616e19578081fd5b815190505b92915050565b600060008284036101a0811215616e39578283fd5b83359250610180807fffffffffffffffffffffffffffffffffffffffffffffffffffffffffffffffe083011215616e6e578283fd5b616e76617ee6565b9150616e8460208601616877565b8252616e926040860161690a565b6020830152606085013560408301526080850135606083015260a08501356080830152616ec160c086016168e0565b60a0830152616ed260e0860161695f565b60c0830152610100616ee58187016168b6565b60e0840152610120616ef88188016168b6565b828501526101409150616f0c82880161693e565b8185015250610160616f1f818801616877565b82850152616f2e83880161695f565b81850152505050809150505b9250929050565b6000600060408385031215616f54578182fd5b82359150602083013590505b9250929050565b6000600060408385031215616f7a578182fd5b616f838361693e565b915060208084013567ffffffffffffffff80821115616fa0578384fd5b818601915086601f8301121515616fb5578384fd5b813581811115616fc857616fc76184b6565b5b616ff8847fffffffffffffffffffffffffffffffffffffffffffffffffffffffffffffffe0601f84011601617f4a565b9150808252878482850101111561700d578485fd5b808484018584013784848284010152508093505050505b9250929050565b600060006040838503121561703e578182fd5b6170478361693e565b91506170556020840161693e565b90505b9250929050565b600060208284031215617070578081fd5b6170798261695f565b90505b92915050565b600060008284036101c0811215617097578283fd5b6170a08461695f565b92506101a0807fffffffffffffffffffffffffffffffffffffffffffffffffffffffffffffffe0830112156170d3578283fd5b6170db617f18565b91506020850135825260408501356020830152606085013560408301526080850135606083015260a0850135608083015261711860c0860161695f565b60a083015261712960e0860161695f565b60c083015261010061713c8187016168b6565b60e084015261012061714f8188016168a1565b82850152610140915061716382880161695f565b818501525061016061717681880161693e565b82850152610180915061718a828801616877565b818501525061719a82870161695f565b818401525050809150505b9250929050565b60006000604083850312156171bf578182fd5b6171c88361695f565b915060208301356171d881618560565b809150505b9250929050565b6000600060006000600060006000600060006000600060006101808d8f03121561720c57898afd5b8c516bffffffffffffffffffffffff811681141515617229578a8bfd5b809c505061723960208e0161688c565b9a5061724760408e0161688c565b995061725560608e0161688c565b985061726360808e01616929565b975061727160a08e016168cb565b965061727f60c08e016168cb565b955061728d60e08e016168f5565b94506101008d015193506101208d015192506172ac6101408e016168f5565b91506172bb6101608e016168f5565b90505b9295989b509295989b509295989b565b73ffffffffffffffffffffffffffffffffffffffff8116825250505b565b801515825250505b565b60048110151561732f577f4e487b7100000000000000000000000000000000000000000000000000000000600052602160045260246000fd5b80825250505b565b8060020b825250505b565b6000815180845261735a81602086016020860161829f565b60207fffffffffffffffffffffffffffffffffffffffffffffffffffffffffffffffe0601f8301168501019150505b92915050565b6fffffffffffffffffffffffffffffffff8116825250505b565b61ffff8116825250505b565b63ffffffff8116825250505b565b67ffffffffffffffff8116825250505b565b600082516173e781846020870161829f565b8083019150505b92915050565b600060208201905073ffffffffffffffffffffffffffffffffffffffff831682525b92915050565b600060408201905073ffffffffffffffffffffffffffffffffffffffff8416825282151560208301525b9392505050565b600060408201905073ffffffffffffffffffffffffffffffffffffffff841682528260208301525b9392505050565b73ffffffffffffffffffffffffffffffffffffffff8616815267ffffffffffffffff851660208201526174b260408201856172f6565b62ffffff8316606082015260a0608082015260006174d360a0830184617342565b90505b9695505050505050565b60006020808301818452808551808352604092508286019150828160051b870101848801865b838110156175ba577fffffffffffffffffffffffffffffffffffffffffffffffffffffffffffffffc0898403018552815160a073ffffffffffffffffffffffffffffffffffffffff825116855267ffffffffffffffff89830151168986015287820151617575898701826172f6565b50606062ffffff8184015116818701525060808083015192508181870152506175a081860183617342565b94505050868201915086850194505b600181019050617506565b505080955050505050505b92915050565b600060208083018184528085518083526040860191508387019250845b8181101561761c576fffffffffffffffffffffffffffffffff8451168352848301925084840193505b6001810190506175e8565b50508093505050505b92915050565b600060208083018184528085518083526040860191508387019250845b818110156176705763ffffffff8451168352848301925084840193505b600181019050617648565b50508093505050505b92915050565b600060208083018184528085518083526040860191508387019250845b818110156176c85767ffffffffffffffff8451168352848301925084840193505b60018101905061769c565b50508093505050505b92915050565b600060208201905082151582525b92915050565b60006020820190507fffffffff00000000000000000000000000000000000000000000000000000000831682525b92915050565b600060208201905073ffffffffffffffffffffffffffffffffffffffff831682525b92915050565b600060208201905073ffffffffffffffffffffffffffffffffffffffff831682525b92915050565b600060208201905073ffffffffffffffffffffffffffffffffffffffff831682525b92915050565b60006020820190508260020b82525b92915050565b6020815260006177bf6020830184617342565b90505b92915050565b60208152600d60208201527f4c43205265656e7472616e637900000000000000000000000000000000000000604082015260006060820190505b919050565b60208152600360208201527f5354450000000000000000000000000000000000000000000000000000000000604082015260006060820190505b919050565b60208152601160208201527f6d6f7265207468616e2034302062697473000000000000000000000000000000604082015260006060820190505b919050565b60208152602660208201527f416464726573733a20696e73756666696369656e742062616c616e636520666f60408201527f722063616c6c0000000000000000000000000000000000000000000000000000606082015260006080820190505b919050565b60208152600e60208201527f4e6f7420417574686f72697a6564000000000000000000000000000000000000604082015260006060820190505b919050565b60208152600160208201527f5400000000000000000000000000000000000000000000000000000000000000604082015260006060820190505b919050565b60208152600c60208201527f506f736974696f6e20444e450000000000000000000000000000000000000000604082015260006060820190505b919050565b60208152601760208201527f4465627420776974686f757420636f6c6c61746572616c000000000000000000604082015260006060820190505b919050565b60208152601260208201527f6d6f7265207468616e2031373620626974730000000000000000000000000000604082015260006060820190505b919050565b60208152601260208201527f6d6f7265207468616e2031323820626974730000000000000000000000000000604082015260006060820190505b919050565b60208152601160208201527f6d6f7265207468616e2032342062697473000000000000000000000000000000604082015260006060820190505b919050565b60208152601d60208201527f446f6573206e6f7420616363657074204e465473206469726563746c79000000604082015260006060820190505b919050565b60208152601d60208201527f416464726573733a2063616c6c20746f206e6f6e2d636f6e7472616374000000604082015260006060820190505b919050565b60208152601560208201527f4d6178206b69636b6261636b2065786365656465640000000000000000000000604082015260006060820190505b919050565b60208152601260208201527f6d6f7265207468616e2031363020626974730000000000000000000000000000604082015260006060820190505b919050565b60208152602a60208201527f5361666545524332303a204552433230206f7065726174696f6e20646964206e60408201527f6f74207375636365656400000000000000000000000000000000000000000000606082015260006080820190505b919050565b60208152601160208201527f6d6f7265207468616e2036342062697473000000000000000000000000000000604082015260006060820190505b919050565b60208152600160208201527f5200000000000000000000000000000000000000000000000000000000000000604082015260006060820190505b919050565b60006101a082019050825182526020830151602083015260408301516040830152606083015160608301526080830151608083015260a0830151617cc960a08401826173c3565b5060c0830151617cdc60c08401826173c3565b5060e0830151617cef60e0840182617337565b5061010080840151617d03828501826172ec565b505061012080840151617d18828501826173c3565b505061014080840151617d2d828501826173b5565b505061016080840151617d42828501826172ce565b505061018080840151617d57828501826173c3565b50505b92915050565b600061018082019050617d748284516172ce565b6020830151617d8660208401826173a9565b5060408301516040830152606083015160608301526080830151608083015260a0830151617db760a084018261738f565b5060c0830151617dca60c08401826173c3565b5060e0830151617ddd60e0840182617337565b5061010080840151617df182850182617337565b505061012080840151617e06828501826173b5565b505061014080840151617e1b828501826172ce565b505061016080840151617e30828501826173c3565b50505b92915050565b600060408201905082518252602083015160208301525b92915050565b6000608082019050825182526020830151602083015260408301516040830152606083015160608301525b92915050565b60006020820190508282525b92915050565b60006040820190508382528260208301525b9392505050565b600060208201905063ffffffff831682525b92915050565b600060208201905067ffffffffffffffff831682525b92915050565b60006040519050610180810181811067ffffffffffffffff82111715617f0f57617f0e6184b6565b5b80604052505b90565b600060405190506101a0810181811067ffffffffffffffff82111715617f4157617f406184b6565b5b80604052505b90565b600060405190507fffffffffffffffffffffffffffffffffffffffffffffffffffffffffffffffe0601f830116810181811067ffffffffffffffff82111715617f9657617f956184b6565b5b80604052505b919050565b6000808212827f7fffffffffffffffffffffffffffffffffffffffffffffffffffffffffffffff03841381151615617fdc57617fdb618454565b5b827f800000000000000000000000000000000000000000000000000000000000000003841281161561801157618010618454565b5b5082820190505b92915050565b60006fffffffffffffffffffffffffffffffff80831681851680830382111561804a57618049618454565b5b80820193505050505b92915050565b6000821982111561806d5761806c618454565b5b82820190505b92915050565b600082151561808b5761808a618485565b5b82820490505b92915050565b60007f7fffffffffffffffffffffffffffffffffffffffffffffffffffffffffffffff818413828413858304851182821616156180d7576180d6618454565b5b7f80000000000000000000000000000000000000000000000000000000000000008487128682058812818416161561811257618111618454565b5b85871292508782058712848416161561812e5761812d618454565b5b8785058712818416161561814557618144618454565b5b505050505082820290505b92915050565b6000817fffffffffffffffffffffffffffffffffffffffffffffffffffffffffffffffff048311821515161561818f5761818e618454565b5b82820290505b92915050565b6000808312837f8000000000000000000000000000000000000000000000000000000000000000018312811516156181d6576181d5618454565b5b837f7fffffffffffffffffffffffffffffffffffffffffffffffffffffffffffffff01831381161561820b5761820a618454565b5b5082820390505b92915050565b60006fffffffffffffffffffffffffffffffff80831681851691508181101561824457618243618454565b5b818103925050505b92915050565b60008282101561826557618264618454565b5b82820390505b92915050565b600063ffffffff80831681851691508181101561829157618290618454565b5b818103925050505b92915050565b60005b838110156182be5780820151818401525b6020810190506182a2565b838111156182cd576000848401525b505050505b565b60008160011c9050600182168015156182ee57607f821691505b60208210811415618328577f4e487b7100000000000000000000000000000000000000000000000000000000600052602260045260246000fd5b505b919050565b60007fffffffffffffffffffffffffffffffffffffffffffffffffffffffffffffffff82141561836257618361618454565b5b6001820190505b919050565b600063ffffffff8083168181141561838957618388618454565b5b60018101925050505b919050565b60008215156183a9576183a8618485565b5b82820790505b92915050565b60008215156183c7576183c6618485565b5b82820690505b92915050565b60008160020b7fffffffffffffffffffffffffffffffffffffffffffffffffffffffffff80000081141561840a57618409618454565b5b8082039150505b919050565b60007f800000000000000000000000000000000000000000000000000000000000000082141561844957618448618454565b5b81810390505b919050565b7f4e487b7100000000000000000000000000000000000000000000000000000000600052601160045260246000fd5b565b7f4e487b7100000000000000000000000000000000000000000000000000000000600052601260045260246000fd5b565b7f4e487b7100000000000000000000000000000000000000000000000000000000600052604160045260246000fd5b565b73ffffffffffffffffffffffffffffffffffffffff81168114151561850c5760006000fd5b505b565b801515811415156185215760006000fd5b505b565b8060020b811415156185375760006000fd5b505b565b6fffffffffffffffffffffffffffffffff81168114151561855c5760006000fd5b505b565b62ffffff8116811415156185745760006000fd5b505b565bfea26469706673582212207ac1c7137b73dd037566024e26d08b5c42be43b593a6a940cc1ce3da93cd47ac64736f6c63430008040033",
  "linkReferences": {},
  "deployedLinkReferences": {}
}