{
  "_format": "hh-sol-artifact-1",
  "contractName": "AccountingTestable",
  "sourceName": "contracts/core/mocks/AccountingTestable.sol",
  "abi": [
    {
      "inputs": [
        {
          "components": [
            {
              "internalType": "contract IGovernor",
              "name": "Governor",
              "type": "address"
            },
            {
              "internalType": "contract IHue",
              "name": "Hue",
              "type": "address"
            },
            {
              "internalType": "contract INonfungiblePositionManager",
              "name": "NftPositionManager",
              "type": "address"
            }
          ],
          "internalType": "struct IAccounting.ConstructorParams",
          "name": "params",
          "type": "tuple"
        }
      ],
      "stateMutability": "nonpayable",
      "type": "constructor"
    },
    {
      "anonymous": false,
      "inputs": [],
      "name": "DebtPositionIndexingDisabled",
      "type": "event"
    },
    {
      "anonymous": false,
      "inputs": [],
      "name": "PoolPositionIndexingDisabled",
      "type": "event"
    },
    {
      "anonymous": false,
      "inputs": [],
      "name": "Stopped",
      "type": "event"
    },
    {
      "anonymous": false,
      "inputs": [
        {
          "indexed": true,
          "internalType": "uint32",
          "name": "interfaceID",
          "type": "uint32"
        },
        {
          "indexed": true,
          "internalType": "address",
          "name": "kickbackDestination",
          "type": "address"
        },
        {
          "indexed": false,
          "internalType": "string",
          "name": "ipfsHash",
          "type": "string"
        }
      ],
      "name": "UIInitialized",
      "type": "event"
    },
    {
      "anonymous": false,
      "inputs": [
        {
          "indexed": true,
          "internalType": "uint32",
          "name": "interfaceID",
          "type": "uint32"
        },
        {
          "indexed": true,
          "internalType": "address",
          "name": "kickbackDestination",
          "type": "address"
        },
        {
          "indexed": true,
          "internalType": "uint24",
          "name": "tags",
          "type": "uint24"
        },
        {
          "indexed": false,
          "internalType": "uint256",
          "name": "kickbackPortion",
          "type": "uint256"
        }
      ],
      "name": "UIRegistered",
      "type": "event"
    },
    {
      "anonymous": false,
      "inputs": [
        {
          "indexed": false,
          "internalType": "uint32[]",
          "name": "uis",
          "type": "uint32[]"
        }
      ],
      "name": "UIsApproved",
      "type": "event"
    },
    {
      "anonymous": false,
      "inputs": [
        {
          "indexed": false,
          "internalType": "uint32[]",
          "name": "uis",
          "type": "uint32[]"
        }
      ],
      "name": "UIsDisapproved",
      "type": "event"
    },
    {
      "inputs": [
        {
          "internalType": "address",
          "name": "owner",
          "type": "address"
        },
        {
          "internalType": "uint256",
          "name": "nftID",
          "type": "uint256"
        }
      ],
      "name": "__addPositionToIndex",
      "outputs": [],
      "stateMutability": "nonpayable",
      "type": "function"
    },
    {
      "inputs": [
        {
          "internalType": "address",
          "name": "owner",
          "type": "address"
        },
        {
          "internalType": "uint256",
          "name": "nftID",
          "type": "uint256"
        }
      ],
      "name": "addPositionToIndex",
      "outputs": [],
      "stateMutability": "nonpayable",
      "type": "function"
    },
    {
      "inputs": [
        {
          "internalType": "uint32[]",
          "name": "ids",
          "type": "uint32[]"
        }
      ],
      "name": "approveUIs",
      "outputs": [],
      "stateMutability": "nonpayable",
      "type": "function"
    },
    {
      "inputs": [],
      "name": "debt",
      "outputs": [
        {
          "internalType": "uint256",
          "name": "",
          "type": "uint256"
        }
      ],
      "stateMutability": "view",
      "type": "function"
    },
    {
      "inputs": [],
      "name": "debtPositionIndexingEnabled",
      "outputs": [
        {
          "internalType": "bool",
          "name": "",
          "type": "bool"
        }
      ],
      "stateMutability": "view",
      "type": "function"
    },
    {
      "inputs": [
        {
          "internalType": "uint256",
          "name": "count",
          "type": "uint256"
        }
      ],
      "name": "decreaseDebt",
      "outputs": [],
      "stateMutability": "nonpayable",
      "type": "function"
    },
    {
      "inputs": [
        {
          "internalType": "contract IUniswapV3Pool",
          "name": "pool",
          "type": "address"
        },
        {
          "internalType": "uint256",
          "name": "liquidity",
          "type": "uint256"
        }
      ],
      "name": "decreasePoolLiquidity",
      "outputs": [],
      "stateMutability": "nonpayable",
      "type": "function"
    },
    {
      "inputs": [
        {
          "internalType": "uint256",
          "name": "nftID",
          "type": "uint256"
        }
      ],
      "name": "deletePoolPosition",
      "outputs": [],
      "stateMutability": "nonpayable",
      "type": "function"
    },
    {
      "inputs": [],
      "name": "deployer",
      "outputs": [
        {
          "internalType": "address",
          "name": "",
          "type": "address"
        }
      ],
      "stateMutability": "view",
      "type": "function"
    },
    {
      "inputs": [
        {
          "internalType": "uint32[]",
          "name": "ids",
          "type": "uint32[]"
        }
      ],
      "name": "disapproveUIs",
      "outputs": [],
      "stateMutability": "nonpayable",
      "type": "function"
    },
    {
      "inputs": [
        {
          "internalType": "uint64",
          "name": "positionID",
          "type": "uint64"
        }
      ],
      "name": "getBasicPositionInfo",
      "outputs": [
        {
          "internalType": "uint256",
          "name": "debtCount",
          "type": "uint256"
        },
        {
          "internalType": "uint256",
          "name": "collateralCount",
          "type": "uint256"
        }
      ],
      "stateMutability": "view",
      "type": "function"
    },
    {
      "inputs": [
        {
          "internalType": "uint256",
          "name": "nftID",
          "type": "uint256"
        }
      ],
      "name": "getPoolPosition",
      "outputs": [
        {
          "components": [
            {
              "internalType": "address",
              "name": "owner",
              "type": "address"
            },
            {
              "internalType": "uint16",
              "name": "poolID",
              "type": "uint16"
            },
            {
              "internalType": "uint256",
              "name": "cumulativeLiquidity",
              "type": "uint256"
            },
            {
              "internalType": "uint256",
              "name": "totalRewards",
              "type": "uint256"
            },
            {
              "internalType": "uint256",
              "name": "lastBlockPositionIncreased",
              "type": "uint256"
            },
            {
              "internalType": "uint128",
              "name": "liquidity",
              "type": "uint128"
            },
            {
              "internalType": "uint64",
              "name": "lastTimeRewarded",
              "type": "uint64"
            },
            {
              "internalType": "int24",
              "name": "tickLower",
              "type": "int24"
            },
            {
              "internalType": "int24",
              "name": "tickUpper",
              "type": "int24"
            },
            {
              "internalType": "uint32",
              "name": "ui",
              "type": "uint32"
            },
            {
              "internalType": "address",
              "name": "kickbackDestination",
              "type": "address"
            },
            {
              "internalType": "uint64",
              "name": "kickbackPortion",
              "type": "uint64"
            }
          ],
          "internalType": "struct IAccounting.PoolPosition",
          "name": "pp",
          "type": "tuple"
        }
      ],
      "stateMutability": "view",
      "type": "function"
    },
    {
      "inputs": [
        {
          "internalType": "address",
          "name": "owner",
          "type": "address"
        }
      ],
      "name": "getPoolPositionNftIdsByOwner",
      "outputs": [
        {
          "internalType": "uint128[]",
          "name": "",
          "type": "uint128[]"
        }
      ],
      "stateMutability": "view",
      "type": "function"
    },
    {
      "inputs": [
        {
          "internalType": "uint64",
          "name": "positionID",
          "type": "uint64"
        }
      ],
      "name": "getPosition",
      "outputs": [
        {
          "components": [
            {
              "internalType": "uint256",
              "name": "startCumulativeDebt",
              "type": "uint256"
            },
            {
              "internalType": "uint256",
              "name": "collateral",
              "type": "uint256"
            },
            {
              "internalType": "uint256",
              "name": "debt",
              "type": "uint256"
            },
            {
              "internalType": "uint256",
              "name": "startDebtExchangeRate",
              "type": "uint256"
            },
            {
              "internalType": "uint256",
              "name": "startTCPRewards",
              "type": "uint256"
            },
            {
              "internalType": "uint64",
              "name": "lastTimeUpdated",
              "type": "uint64"
            },
            {
              "internalType": "uint64",
              "name": "lastBorrowTime",
              "type": "uint64"
            },
            {
              "internalType": "int24",
              "name": "tick",
              "type": "int24"
            },
            {
              "internalType": "bool",
              "name": "tickSet",
              "type": "bool"
            },
            {
              "internalType": "uint64",
              "name": "tickIndex",
              "type": "uint64"
            },
            {
              "internalType": "uint32",
              "name": "ui",
              "type": "uint32"
            },
            {
              "internalType": "address",
              "name": "kickbackDestination",
              "type": "address"
            },
            {
              "internalType": "uint64",
              "name": "kickbackPortion",
              "type": "uint64"
            }
          ],
          "internalType": "struct IAccounting.DebtPosition",
          "name": "dp",
          "type": "tuple"
        }
      ],
      "stateMutability": "view",
      "type": "function"
    },
    {
      "inputs": [
        {
          "internalType": "contract IUniswapV3Pool",
          "name": "pool",
          "type": "address"
        }
      ],
      "name": "getRewardStatus",
      "outputs": [
        {
          "components": [
            {
              "internalType": "uint256",
              "name": "totalRewards",
              "type": "uint256"
            },
            {
              "internalType": "uint256",
              "name": "cumulativeLiquidity",
              "type": "uint256"
            }
          ],
          "internalType": "struct IAccounting.RewardStatus",
          "name": "",
          "type": "tuple"
        }
      ],
      "stateMutability": "view",
      "type": "function"
    },
    {
      "inputs": [],
      "name": "getSystemDebtInfo",
      "outputs": [
        {
          "components": [
            {
              "internalType": "uint256",
              "name": "debt",
              "type": "uint256"
            },
            {
              "internalType": "uint256",
              "name": "totalTCPRewards",
              "type": "uint256"
            },
            {
              "internalType": "uint256",
              "name": "cumulativeDebt",
              "type": "uint256"
            },
            {
              "internalType": "uint256",
              "name": "debtExchangeRate",
              "type": "uint256"
            }
          ],
          "internalType": "struct IAccounting.SystemDebtInfo",
          "name": "",
          "type": "tuple"
        }
      ],
      "stateMutability": "view",
      "type": "function"
    },
    {
      "inputs": [
        {
          "internalType": "uint256",
          "name": "collateralCount",
          "type": "uint256"
        },
        {
          "internalType": "uint256",
          "name": "debtCount",
          "type": "uint256"
        }
      ],
      "name": "getTick",
      "outputs": [
        {
          "internalType": "int24",
          "name": "",
          "type": "int24"
        }
      ],
      "stateMutability": "pure",
      "type": "function"
    },
    {
      "inputs": [
        {
          "internalType": "uint32",
          "name": "start",
          "type": "uint32"
        },
        {
          "internalType": "uint32",
          "name": "end",
          "type": "uint32"
        }
      ],
      "name": "getUIs",
      "outputs": [
        {
          "components": [
            {
              "internalType": "address",
              "name": "kickbackDestination",
              "type": "address"
            },
            {
              "internalType": "uint64",
              "name": "kickbackPortion",
              "type": "uint64"
            },
            {
              "internalType": "enum IAccounting.UIGovernanceRating",
              "name": "governanceRating",
              "type": "uint8"
            },
            {
              "internalType": "uint24",
              "name": "tags",
              "type": "uint24"
            },
            {
              "internalType": "string",
              "name": "ipfsHash",
              "type": "string"
            }
          ],
          "internalType": "struct IAccounting.UserInterface[]",
          "name": "uis",
          "type": "tuple[]"
        }
      ],
      "stateMutability": "view",
      "type": "function"
    },
    {
      "inputs": [],
      "name": "governor",
      "outputs": [
        {
          "internalType": "contract IGovernor",
          "name": "",
          "type": "address"
        }
      ],
      "stateMutability": "view",
      "type": "function"
    },
    {
      "inputs": [
        {
          "internalType": "uint256",
          "name": "count",
          "type": "uint256"
        }
      ],
      "name": "increaseDebt",
      "outputs": [],
      "stateMutability": "nonpayable",
      "type": "function"
    },
    {
      "inputs": [
        {
          "internalType": "uint256",
          "name": "count",
          "type": "uint256"
        }
      ],
      "name": "increaseLentHue",
      "outputs": [],
      "stateMutability": "nonpayable",
      "type": "function"
    },
    {
      "inputs": [
        {
          "internalType": "contract IUniswapV3Pool",
          "name": "pool",
          "type": "address"
        },
        {
          "internalType": "uint256",
          "name": "liquidity",
          "type": "uint256"
        }
      ],
      "name": "increasePoolLiquidity",
      "outputs": [],
      "stateMutability": "nonpayable",
      "type": "function"
    },
    {
      "inputs": [],
      "name": "init",
      "outputs": [],
      "stateMutability": "nonpayable",
      "type": "function"
    },
    {
      "inputs": [
        {
          "internalType": "uint32",
          "name": "interfaceID",
          "type": "uint32"
        },
        {
          "internalType": "string",
          "name": "ipfsHash",
          "type": "string"
        }
      ],
      "name": "initializeUI",
      "outputs": [],
      "stateMutability": "nonpayable",
      "type": "function"
    },
    {
      "inputs": [],
      "name": "lentHue",
      "outputs": [
        {
          "internalType": "uint256",
          "name": "",
          "type": "uint256"
        }
      ],
      "stateMutability": "view",
      "type": "function"
    },
    {
      "inputs": [],
      "name": "nextUserInterfaceID",
      "outputs": [
        {
          "internalType": "uint32",
          "name": "",
          "type": "uint32"
        }
      ],
      "stateMutability": "view",
      "type": "function"
    },
    {
      "inputs": [
        {
          "internalType": "address",
          "name": "",
          "type": "address"
        },
        {
          "internalType": "address",
          "name": "",
          "type": "address"
        },
        {
          "internalType": "uint256",
          "name": "",
          "type": "uint256"
        },
        {
          "internalType": "bytes",
          "name": "",
          "type": "bytes"
        }
      ],
      "name": "onERC721Received",
      "outputs": [
        {
          "internalType": "bytes4",
          "name": "",
          "type": "bytes4"
        }
      ],
      "stateMutability": "pure",
      "type": "function"
    },
    {
      "inputs": [
        {
          "internalType": "address",
          "name": "newRewards",
          "type": "address"
        }
      ],
      "name": "onRewardsUpgrade",
      "outputs": [],
      "stateMutability": "nonpayable",
      "type": "function"
    },
    {
      "inputs": [
        {
          "internalType": "contract IUniswapV3Pool",
          "name": "",
          "type": "address"
        }
      ],
      "name": "poolLiquidity",
      "outputs": [
        {
          "internalType": "uint256",
          "name": "",
          "type": "uint256"
        }
      ],
      "stateMutability": "view",
      "type": "function"
    },
    {
      "inputs": [],
      "name": "poolPositionIndexingEnabled",
      "outputs": [
        {
          "internalType": "bool",
          "name": "",
          "type": "bool"
        }
      ],
      "stateMutability": "view",
      "type": "function"
    },
    {
      "inputs": [
        {
          "internalType": "int24",
          "name": "tick",
          "type": "int24"
        }
      ],
      "name": "positionsForTick",
      "outputs": [
        {
          "internalType": "uint64[]",
          "name": "",
          "type": "uint64[]"
        }
      ],
      "stateMutability": "view",
      "type": "function"
    },
    {
      "inputs": [
        {
          "internalType": "uint64",
          "name": "kickbackPortion",
          "type": "uint64"
        },
        {
          "internalType": "uint24",
          "name": "tags",
          "type": "uint24"
        }
      ],
      "name": "registerUI",
      "outputs": [
        {
          "internalType": "uint32",
          "name": "",
          "type": "uint32"
        }
      ],
      "stateMutability": "nonpayable",
      "type": "function"
    },
    {
      "inputs": [
        {
          "internalType": "address payable",
          "name": "dest",
          "type": "address"
        },
        {
          "internalType": "uint256",
          "name": "count",
          "type": "uint256"
        }
      ],
      "name": "sendCollateral",
      "outputs": [],
      "stateMutability": "nonpayable",
      "type": "function"
    },
    {
      "inputs": [
        {
          "internalType": "address",
          "name": "dest",
          "type": "address"
        },
        {
          "internalType": "uint256",
          "name": "count",
          "type": "uint256"
        }
      ],
      "name": "sendLentHue",
      "outputs": [],
      "stateMutability": "nonpayable",
      "type": "function"
    },
    {
      "inputs": [
        {
          "internalType": "uint256",
          "name": "nftID",
          "type": "uint256"
        },
        {
          "components": [
            {
              "internalType": "address",
              "name": "owner",
              "type": "address"
            },
            {
              "internalType": "uint16",
              "name": "poolID",
              "type": "uint16"
            },
            {
              "internalType": "uint256",
              "name": "cumulativeLiquidity",
              "type": "uint256"
            },
            {
              "internalType": "uint256",
              "name": "totalRewards",
              "type": "uint256"
            },
            {
              "internalType": "uint256",
              "name": "lastBlockPositionIncreased",
              "type": "uint256"
            },
            {
              "internalType": "uint128",
              "name": "liquidity",
              "type": "uint128"
            },
            {
              "internalType": "uint64",
              "name": "lastTimeRewarded",
              "type": "uint64"
            },
            {
              "internalType": "int24",
              "name": "tickLower",
              "type": "int24"
            },
            {
              "internalType": "int24",
              "name": "tickUpper",
              "type": "int24"
            },
            {
              "internalType": "uint32",
              "name": "ui",
              "type": "uint32"
            },
            {
              "internalType": "address",
              "name": "kickbackDestination",
              "type": "address"
            },
            {
              "internalType": "uint64",
              "name": "kickbackPortion",
              "type": "uint64"
            }
          ],
          "internalType": "struct IAccounting.PoolPosition",
          "name": "pp",
          "type": "tuple"
        }
      ],
      "name": "setPoolPosition",
      "outputs": [],
      "stateMutability": "nonpayable",
      "type": "function"
    },
    {
      "inputs": [
        {
          "internalType": "uint64",
          "name": "positionID",
          "type": "uint64"
        },
        {
          "components": [
            {
              "internalType": "uint256",
              "name": "startCumulativeDebt",
              "type": "uint256"
            },
            {
              "internalType": "uint256",
              "name": "collateral",
              "type": "uint256"
            },
            {
              "internalType": "uint256",
              "name": "debt",
              "type": "uint256"
            },
            {
              "internalType": "uint256",
              "name": "startDebtExchangeRate",
              "type": "uint256"
            },
            {
              "internalType": "uint256",
              "name": "startTCPRewards",
              "type": "uint256"
            },
            {
              "internalType": "uint64",
              "name": "lastTimeUpdated",
              "type": "uint64"
            },
            {
              "internalType": "uint64",
              "name": "lastBorrowTime",
              "type": "uint64"
            },
            {
              "internalType": "int24",
              "name": "tick",
              "type": "int24"
            },
            {
              "internalType": "bool",
              "name": "tickSet",
              "type": "bool"
            },
            {
              "internalType": "uint64",
              "name": "tickIndex",
              "type": "uint64"
            },
            {
              "internalType": "uint32",
              "name": "ui",
              "type": "uint32"
            },
            {
              "internalType": "address",
              "name": "kickbackDestination",
              "type": "address"
            },
            {
              "internalType": "uint64",
              "name": "kickbackPortion",
              "type": "uint64"
            }
          ],
          "internalType": "struct IAccounting.DebtPosition",
          "name": "dp",
          "type": "tuple"
        }
      ],
      "name": "setPosition",
      "outputs": [],
      "stateMutability": "nonpayable",
      "type": "function"
    },
    {
      "inputs": [
        {
          "internalType": "contract IUniswapV3Pool",
          "name": "pool",
          "type": "address"
        },
        {
          "components": [
            {
              "internalType": "uint256",
              "name": "totalRewards",
              "type": "uint256"
            },
            {
              "internalType": "uint256",
              "name": "cumulativeLiquidity",
              "type": "uint256"
            }
          ],
          "internalType": "struct IAccounting.RewardStatus",
          "name": "rs",
          "type": "tuple"
        }
      ],
      "name": "setRewardStatus",
      "outputs": [],
      "stateMutability": "nonpayable",
      "type": "function"
    },
    {
      "inputs": [
        {
          "components": [
            {
              "internalType": "uint256",
              "name": "debt",
              "type": "uint256"
            },
            {
              "internalType": "uint256",
              "name": "totalTCPRewards",
              "type": "uint256"
            },
            {
              "internalType": "uint256",
              "name": "cumulativeDebt",
              "type": "uint256"
            },
            {
              "internalType": "uint256",
              "name": "debtExchangeRate",
              "type": "uint256"
            }
          ],
          "internalType": "struct IAccounting.SystemDebtInfo",
          "name": "_sdi",
          "type": "tuple"
        }
      ],
      "name": "setSystemDebtInfo",
      "outputs": [],
      "stateMutability": "nonpayable",
      "type": "function"
    },
    {
      "inputs": [
        {
          "internalType": "int24",
          "name": "rawTick",
          "type": "int24"
        },
        {
          "internalType": "int24",
          "name": "tickSpacing",
          "type": "int24"
        }
      ],
      "name": "snapRawTickToSpacing",
      "outputs": [
        {
          "internalType": "int24",
          "name": "",
          "type": "int24"
        }
      ],
      "stateMutability": "pure",
      "type": "function"
    },
    {
      "inputs": [],
      "name": "stopIndexingDebtPositions",
      "outputs": [],
      "stateMutability": "nonpayable",
      "type": "function"
    },
    {
      "inputs": [],
      "name": "stopIndexingPoolPositions",
      "outputs": [],
      "stateMutability": "nonpayable",
      "type": "function"
    },
    {
      "inputs": [],
      "name": "stopped",
      "outputs": [
        {
          "internalType": "bool",
          "name": "",
          "type": "bool"
        }
      ],
      "stateMutability": "view",
      "type": "function"
    },
    {
      "inputs": [],
      "name": "sweepHue",
      "outputs": [],
      "stateMutability": "nonpayable",
      "type": "function"
    },
    {
      "inputs": [
        {
          "internalType": "uint256",
          "name": "",
          "type": "uint256"
        }
      ],
      "name": "userInterfaces",
      "outputs": [
        {
          "internalType": "address",
          "name": "kickbackDestination",
          "type": "address"
        },
        {
          "internalType": "uint64",
          "name": "kickbackPortion",
          "type": "uint64"
        },
        {
          "internalType": "enum IAccounting.UIGovernanceRating",
          "name": "governanceRating",
          "type": "uint8"
        },
        {
          "internalType": "uint24",
          "name": "tags",
          "type": "uint24"
        },
        {
          "internalType": "string",
          "name": "ipfsHash",
          "type": "string"
        }
      ],
      "stateMutability": "view",
      "type": "function"
    },
    {
      "inputs": [
        {
          "internalType": "bytes4",
          "name": "",
          "type": "bytes4"
        }
      ],
      "name": "validUpdate",
      "outputs": [
        {
          "internalType": "bool",
          "name": "",
          "type": "bool"
        }
      ],
      "stateMutability": "view",
      "type": "function"
    },
    {
      "stateMutability": "payable",
      "type": "receive"
    }
  ],
  "bytecode": "0x60e0604052600160026000509090556001600560006101000a81548160ff0219169083151502179055506001600560016101000a81548160ff0219169083151502179055506001600f60006101000a81548163ffffffff021916908363ffffffff160217905550348015620000745760006000fd5b50604051620080333803806200803383398181016040528101906200009a919062000441565b5b805b80600001515b8073ffffffffffffffffffffffffffffffffffffffff1660808173ffffffffffffffffffffffffffffffffffffffff1660601b815260140150505b50806020015173ffffffffffffffffffffffffffffffffffffffff1660c08173ffffffffffffffffffffffffffffffffffffffff1660601b81526014015050806040015173ffffffffffffffffffffffffffffffffffffffff1660a08173ffffffffffffffffffffffffffffffffffffffff1660601b815260140150506200017b670de0b6b3a7640000620003d460201b62002e1717909060201c565b600860005060010160106101000a8154816fffffffffffffffffffffffffffffffff02191690836fffffffffffffffffffffffffffffffff16021790555060016001600050600063461054a360e01b7bffffffffffffffffffffffffffffffffffffffffffffffffffffffff19167bffffffffffffffffffffffffffffffffffffffffffffffffffffffff1916815260200190815260200160002060006101000a81548160ff02191690831515021790555060016001600050600063602db56b60e01b7bffffffffffffffffffffffffffffffffffffffffffffffffffffffff19167bffffffffffffffffffffffffffffffffffffffffffffffffffffffff1916815260200190815260200160002060006101000a81548160ff02191690831515021790555060016001600050600063397d359260e01b7bffffffffffffffffffffffffffffffffffffffffffffffffffffffff19167bffffffffffffffffffffffffffffffffffffffffffffffffffffffff1916815260200190815260200160002060006101000a81548160ff021916908315150217905550600160016000506000630b218d2460e01b7bffffffffffffffffffffffffffffffffffffffffffffffffffffffff19167bffffffffffffffffffffffffffffffffffffffffffffffffffffffff1916815260200190815260200160002060006101000a81548160ff02191690831515021790555033600360006101000a81548173ffffffffffffffffffffffffffffffffffffffff021916908373ffffffffffffffffffffffffffffffffffffffff1602179055505b505b506200052e565b6000700100000000000000000000000000000000821015156200042e576040517f08c379a00000000000000000000000000000000000000000000000000000000081526004016200042590620004d1565b60405180910390fd5b81905062000437565b919050566200052d565b60006060828403121562000453578081fd5b604051606081018181106001600160401b03821117156200048257634e487b7160e01b83526041600452602483fd5b80604052508251620004948162000510565b808252506020830151620004a88162000510565b806020830152506040830151620004bf8162000510565b80604083015250809150505b92915050565b60208152601260208201527f6d6f7265207468616e2031323820626974730000000000000000000000000000604082015260006060820190505b919050565b6001600160a01b03811681141515620005295760006000fd5b505b565b5b60805160601c60a05160601c60c05160601c617a8d620005a660003960008181611e1b01528181611ed101528181611ef20152611f19015260008181612cbd01526146b3015260008181610b6101528181610d6401528181612a9a0152818161304101528181613498015261387c0152617a8d6000f3fe6080604052600436106102f65760003560e01c80636594da9f1161018f578063bdb2a496116100e1578063d99f57261161008a578063e2b1e9e311610064578063e2b1e9e314610ac6578063f34348f114610af2578063fd9c749214610b305761030d565b8063d99f572614610a32578063dfff5dc414610a70578063e1c7392a14610aae5761030d565b8063c7711db4116100bb578063c7711db41461098a578063d159b4ae146109c8578063d5f3948814610a065761030d565b8063bdb2a4961461090a578063c0c899ff14610922578063c3c837ba1461094c5761030d565b8063816aaa2511610143578063a678f3361161011d578063a678f33614610878578063b241bbac146108a2578063b87e8d58146108cc5761030d565b8063816aaa25146107e657806396122a5c14610810578063a135ef171461083a5761030d565b806375f12b211161017457806375f12b211461076457806378efc6b0146107905780637f250c61146107ba5761030d565b80636594da9f146106fb57806375ea13ca1461073a5761030d565b8063230173e011610248578063397d3592116101fc5780635a6beaf4116101d65780635a6beaf41461068f578063602db56b146106b957806362502169146106d15761030d565b8063397d359214610623578063461054a31461064d578063530c1ccb146106655761030d565b80632a7ba1f71161022d5780632a7ba1f7146105a55780632b7c7b11146105cf5780632c73f09e146105f95761030d565b8063230173e01461055157806326879a4e1461057b5761030d565b80630f85fc5a116102aa578063150b7a0211610284578063150b7a021461049357806318a15e79146104d15780631cef92b1146105135761030d565b80630f85fc5a146103ed578063113cf1ab1461042b5780631428561d146104695761030d565b80630b218d24116102db5780630b218d241461036b5780630c340a24146103955780630dca59c1146103c15761030d565b806306ef2d8014610313578063092a26c31461033f5761030d565b3661030d575b61030a610b5c63ffffffff16565b5b005b60006000fd5b3480156103205760006000fd5b50610329610c0d565b6040516103369190617337565b60405180910390f35b34801561034c5760006000fd5b50610355610c2d565b6040516103629190616c47565b60405180910390f35b3480156103785760006000fd5b50610393600480360381019061038e9190616023565b610c40565b005b3480156103a25760006000fd5b506103ab610d62565b6040516103b89190616c8f565b60405180910390f35b3480156103ce5760006000fd5b506103d7610d86565b6040516103e49190617368565b60405180910390f35b3480156103fa5760006000fd5b50610415600480360381019061041091906165cf565b610dc9565b6040516104229190617163565b60405180910390f35b3480156104385760006000fd5b50610453600480360381019061044e9190616106565b610ee8565b6040516104609190616c47565b60405180910390f35b3480156104765760006000fd5b50610491600480360381019061048c9190616261565b610f0d565b005b3480156104a05760006000fd5b506104bb60048036038101906104b69190615f4c565b610f9a565b6040516104c89190616c5b565b60405180910390f35b3480156104de5760006000fd5b506104f960048036038101906104f4919061635c565b610fe0565b60405161050a9594939291906169ec565b60405180910390f35b3480156105205760006000fd5b5061053b600480360381019061053691906161a1565b6110f4565b604051610548919061731a565b60405180910390f35b34801561055e5760006000fd5b5061057960048036038101906105749190615ff2565b611175565b005b3480156105885760006000fd5b506105a3600480360381019061059e919061635c565b61118a565b005b3480156105b25760006000fd5b506105cd60048036038101906105c8919061635c565b61132e565b005b3480156105dc5760006000fd5b506105f760048036038101906105f2919061635c565b6113ed565b005b3480156106065760006000fd5b50610621600480360381019061061c919061635c565b6114ac565b005b3480156106305760006000fd5b5061064b60048036038101906106469190616023565b6114f7565b005b34801561065a5760006000fd5b50610663611705565b005b3480156106725760006000fd5b5061068d60048036038101906106889190616261565b61175e565b005b34801561069c5760006000fd5b506106b760048036038101906106b291906165f2565b6117eb565b005b3480156106c65760006000fd5b506106cf6119e6565b005b3480156106de5760006000fd5b506106f960048036038101906106f49190615f1b565b611a3f565b005b3480156107085760006000fd5b50610723600480360381019061071e91906165cf565b611a7f565b60405161073192919061737a565b60405180910390f35b3480156107475760006000fd5b50610762600480360381019061075d9190615ff2565b611c32565b005b3480156107715760006000fd5b5061077a611c70565b6040516107879190616c47565b60405180910390f35b34801561079d5760006000fd5b506107b860048036038101906107b391906162f5565b611c83565b005b3480156107c75760006000fd5b506107d0611cc1565b6040516107dd9190617368565b60405180910390f35b3480156107f35760006000fd5b5061080e60048036038101906108099190616394565b611cca565b005b34801561081d5760006000fd5b50610838600480360381019061083391906161c8565b611d0a565b005b3480156108475760006000fd5b50610862600480360381019061085d91906161a1565b611da1565b60405161086f9190617368565b60405180910390f35b3480156108855760006000fd5b506108a0600480360381019061089b9190615ef4565b611dbc565b005b3480156108af5760006000fd5b506108ca60048036038101906108c59190615ff2565b611dde565b005b3480156108d95760006000fd5b506108f460048036038101906108ef9190615ef4565b611e5b565b6040516109019190616b3b565b60405180910390f35b3480156109175760006000fd5b50610920611ebe565b005b34801561092f5760006000fd5b5061094a600480360381019061094591906164d7565b611fe9565b005b3480156109595760006000fd5b50610974600480360381019061096f919061659b565b61220d565b6040516109819190616a50565b60405180910390f35b3480156109975760006000fd5b506109b260048036038101906109ad9190616292565b61252f565b6040516109bf9190616bef565b60405180910390f35b3480156109d55760006000fd5b506109f060048036038101906109eb91906164b1565b6125ef565b6040516109fd9190616cb7565b60405180910390f35b348015610a135760006000fd5b50610a1c612685565b604051610a299190616964565b60405180910390f35b348015610a3f5760006000fd5b50610a5a6004803603810190610a5591906162b9565b6126ab565b604051610a679190616cb7565b60405180910390f35b348015610a7d5760006000fd5b50610a986004803603810190610a93919061671c565b612712565b604051610aa59190617393565b60405180910390f35b348015610abb5760006000fd5b50610ac4612a3f565b005b348015610ad35760006000fd5b50610adc612b46565b604051610ae99190617393565b60405180910390f35b348015610aff5760006000fd5b50610b1a6004803603810190610b15919061635c565b612b5c565b604051610b279190617241565b60405180910390f35b348015610b3d5760006000fd5b50610b46612e04565b604051610b539190616c47565b60405180910390f35b610c0a7f000000000000000000000000000000000000000000000000000000000000000073ffffffffffffffffffffffffffffffffffffffff166380f556056040518163ffffffff1660e01b815260040160206040518083038186803b158015610bc65760006000fd5b505afa158015610bdb573d600060003e3d6000fd5b505050506040513d601f19601f82011682018060405250810190610bff9190616153565b612e7b63ffffffff16565b5b565b610c15615ae4565b610c23612ebc63ffffffff16565b9050610c2a565b90565b600560009054906101000a900460ff1681565b610c4e61303c63ffffffff16565b6000600090505b8151811015610d25576003601060005060008484815181101515610ca2577f4e487b7100000000000000000000000000000000000000000000000000000000600052603260045260246000fd5b602002602001015163ffffffff168152602001908152602001600020600050600001601c6101000a81548160ff02191690836003811115610d0c577f4e487b7100000000000000000000000000000000000000000000000000000000600052602160045260246000fd5b02179055505b8080610d1d90617805565b915050610c55565b507f7264e0084cbb7692193b834f40153b973ff4f827f8ed45da32ae6d8e486bb0c781604051610d559190616b9b565b60405180910390a15b5b50565b7f000000000000000000000000000000000000000000000000000000000000000081565b6000600860005060010160009054906101000a90046fffffffffffffffffffffffffffffffff166fffffffffffffffffffffffffffffffff169050610dc6565b90565b610dd1615b0f565b610de08261309c63ffffffff16565b90508050600081610140015163ffffffff161115610edb576010600050600082610140015163ffffffff16815260200190815260200160002060005060000160009054906101000a900473ffffffffffffffffffffffffffffffffffffffff1681610160019073ffffffffffffffffffffffffffffffffffffffff16908173ffffffffffffffffffffffffffffffffffffffff16815260200150506010600050600082610140015163ffffffff16815260200190815260200160002060005060000160149054906101000a900467ffffffffffffffff1681610180019067ffffffffffffffff16908167ffffffffffffffff16815260200150505b809050610ee3565b919050565b600160005060205280600052604060002060009150909054906101000a900460ff1681565b610f1b61343863ffffffff16565b610f2961349363ffffffff16565b80600d60005060008473ffffffffffffffffffffffffffffffffffffffff1673ffffffffffffffffffffffffffffffffffffffff16815260200190815260200160002060008282825054610f7d91906174ff565b9250508190909055505b610f9561354463ffffffff16565b5b5050565b60006040517f08c379a0000000000000000000000000000000000000000000000000000000008152600401610fce90616f84565b60405180910390fd5b95945050505050565b60106000506020528060005260406000206000915090508060000160009054906101000a900473ffffffffffffffffffffffffffffffffffffffff16908060000160149054906101000a900467ffffffffffffffff169080600001601c9054906101000a900460ff169080600001601d9054906101000a900462ffffff1690806001016000508054611071906177aa565b80601f016020809104026020016040519081016040528092919081815260200182805461109d906177aa565b80156110ea5780601f106110bf576101008083540402835291602001916110ea565b820191906000526020600020905b8154815290600101906020018083116110cd57829003601f168201915b5050505050905085565b6110fc615bc3565b600b60005060008373ffffffffffffffffffffffffffffffffffffffff1673ffffffffffffffffffffffffffffffffffffffff168152602001908152602001600020600050604051806040016040529081600082016000505481526020016001820160005054815260200150509050611170565b919050565b611185828261355463ffffffff16565b5b5050565b61119861343863ffffffff16565b6111a661349363ffffffff16565b6112496111ba82612e17909063ffffffff16565b600e6000506000600c600050600086815260200190815260200160002060005060000160009054906101000a900473ffffffffffffffffffffffffffffffffffffffff1673ffffffffffffffffffffffffffffffffffffffff1673ffffffffffffffffffffffffffffffffffffffff1681526020019081526020016000206000506135c190919063ffffffff16565b50600c600050600082815260200190815260200160002060006000820160006101000a81549073ffffffffffffffffffffffffffffffffffffffff02191690556000820160146101000a81549061ffff02191690556000820160166101000a81549063ffffffff021916905560018201600050600090556002820160006101000a81549075ffffffffffffffffffffffffffffffffffffffffffff02191690556002820160166101000a81549064ffffffffff021916905560028201601b6101000a81549064ffffffffff021916905550505b61132a61354463ffffffff16565b5b50565b61133c61343863ffffffff16565b61134a61387a63ffffffff16565b61139c81600860005060010160009054906101000a90046fffffffffffffffffffffffffffffffff166fffffffffffffffffffffffffffffffff1661138f9190617728565b612e17909063ffffffff16565b600860005060010160006101000a8154816fffffffffffffffffffffffffffffffff02191690836fffffffffffffffffffffffffffffffff1602179055505b6113e961354463ffffffff16565b5b50565b6113fb61343863ffffffff16565b611409610b5c63ffffffff16565b61145b81600860005060010160009054906101000a90046fffffffffffffffffffffffffffffffff166fffffffffffffffffffffffffffffffff1661144e91906174ff565b612e17909063ffffffff16565b600860005060010160006101000a8154816fffffffffffffffffffffffffffffffff02191690836fffffffffffffffffffffffffffffffff1602179055505b6114a861354463ffffffff16565b5b50565b6114ba61343863ffffffff16565b6114c8610b5c63ffffffff16565b806007600050546114d991906174ff565b60076000508190909055505b6114f361354463ffffffff16565b5b50565b61150561303c63ffffffff16565b6000600090505b81518110156116c8576000600381111561154f577f4e487b7100000000000000000000000000000000000000000000000000000000600052602160045260246000fd5b601060005060008484815181101515611591577f4e487b7100000000000000000000000000000000000000000000000000000000600052603260045260246000fd5b602002602001015163ffffffff168152602001908152602001600020600050600001601c9054906101000a900460ff1660038111156115f9577f4e487b7100000000000000000000000000000000000000000000000000000000600052602160045260246000fd5b1415156116b4576002601060005060008484815181101515611644577f4e487b7100000000000000000000000000000000000000000000000000000000600052603260045260246000fd5b602002602001015163ffffffff168152602001908152602001600020600050600001601c6101000a81548160ff021916908360038111156116ae577f4e487b7100000000000000000000000000000000000000000000000000000000600052602160045260246000fd5b02179055505b5b80806116c090617805565b91505061150c565b507f2e54370527117fb69828eac075cb3ed33fe59712134dfd3ef6efc9bd8b60c1ec816040516116f89190616b9b565b60405180910390a15b5b50565b61171361303c63ffffffff16565b6000600560006101000a81548160ff0219169083151502179055507f262b602ad12e3e551a407d5246b500f4ca5a01cc76bbf03e925db643a62a692f60405160405180910390a15b5b565b61176c61343863ffffffff16565b61177a61349363ffffffff16565b80600d60005060008473ffffffffffffffffffffffffffffffffffffffff1673ffffffffffffffffffffffffffffffffffffffff168152602001908152602001600020600082828250546117ce9190617728565b9250508190909055505b6117e661354463ffffffff16565b5b5050565b6117f961343863ffffffff16565b61180761387a63ffffffff16565b600560009054906101000a900460ff16801561182e575060008267ffffffffffffffff1614155b1561184857611843828261390863ffffffff16565b905080505b60008160200151148015611860575060008160400151145b156119c157600460005060008367ffffffffffffffff1667ffffffffffffffff168152602001908152602001600020600060008201600050600090556001820160006101000a8154906fffffffffffffffffffffffffffffffff02191690556001820160106101000a8154906fffffffffffffffffffffffffffffffff02191690556002820160006101000a8154906fffffffffffffffffffffffffffffffff02191690556002820160106101000a8154906fffffffffffffffffffffffffffffffff02191690556003820160006101000a81549067ffffffffffffffff02191690556003820160086101000a81549067ffffffffffffffff02191690556003820160106101000a81549062ffffff02191690556003820160136101000a81549060ff02191690556003820160146101000a81549067ffffffffffffffff021916905560038201601c6101000a81549063ffffffff021916905550506119d2565b6119d18282613d5363ffffffff16565b5b5b6119e161354463ffffffff16565b5b5050565b6119f461303c63ffffffff16565b6000600560016101000a81548160ff0219169083151502179055507fc4f6661464541d662c51191d4da5a7a1cc8bca2631698fd030e21b52520a549c60405160405180910390a15b5b565b611a4d61343863ffffffff16565b611a5b61387a63ffffffff16565b611a6b82826140c163ffffffff16565b5b611a7a61354463ffffffff16565b5b5050565b60006000600460005060008467ffffffffffffffff1667ffffffffffffffff16815260200190815260200160002060005060010160109054906101000a90046fffffffffffffffffffffffffffffffff166fffffffffffffffffffffffffffffffff1691508150600460005060008467ffffffffffffffff1667ffffffffffffffff16815260200190815260200160002060005060010160009054906101000a90046fffffffffffffffffffffffffffffffff166fffffffffffffffffffffffffffffffff16905080506000600460005060008567ffffffffffffffff1667ffffffffffffffff16815260200190815260200160002060005060020160009054906101000a90046fffffffffffffffffffffffffffffffff166fffffffffffffffffffffffffffffffff1690506000831480611bbb5750600081145b15611bcc5782829250925050611c2d565b6000600860005060010160109054906101000a90046fffffffffffffffffffffffffffffffff166fffffffffffffffffffffffffffffffff1690508082141515611c2a57611c258183866141ea9092919063ffffffff16565b935083505b50505b915091565b600560019054906101000a900460ff161515611c4d57611c6c565b611c5b61349363ffffffff16565b611c6b828261355463ffffffff16565b5b5050565b600060009054906101000a900460ff1681565b611c9161343863ffffffff16565b611c9f610b5c63ffffffff16565b611cae8161430e63ffffffff16565b5b611cbd61354463ffffffff16565b5b50565b60076000505481565b611cd861343863ffffffff16565b611ce661349363ffffffff16565b611cf6828261448063ffffffff16565b5b611d0561354463ffffffff16565b5b5050565b611d1861343863ffffffff16565b611d2661349363ffffffff16565b80600b60005060008473ffffffffffffffffffffffffffffffffffffffff1673ffffffffffffffffffffffffffffffffffffffff1681526020019081526020016000206000506000820151816000016000509090556020820151816001016000509090559050505b611d9c61354463ffffffff16565b5b5050565b600d6000506020528060005260406000206000915090505481565b611dca61303c63ffffffff16565b611dd9816146b163ffffffff16565b5b5b50565b611dec61343863ffffffff16565b611dfa610b5c63ffffffff16565b80600760005054611e0b9190617728565b6007600050819090905550611e477f0000000000000000000000000000000000000000000000000000000000000000838361474563ffffffff16565b5b611e5661354463ffffffff16565b5b5050565b6060611eb2600e60005060008473ffffffffffffffffffffffffffffffffffffffff1673ffffffffffffffffffffffffffffffffffffffff1681526020019081526020016000206000506147d2909063ffffffff16565b9050611eb9565b919050565b611ecc61343863ffffffff16565b611fd77f00000000000000000000000000000000000000000000000000000000000000007f00000000000000000000000000000000000000000000000000000000000000006007600050547f000000000000000000000000000000000000000000000000000000000000000073ffffffffffffffffffffffffffffffffffffffff166370a08231306040518263ffffffff1660e01b8152600401611f709190616964565b60206040518083038186803b158015611f895760006000fd5b505afa158015611f9e573d600060003e3d6000fd5b505050506040513d601f19601f82011682018060405250810190611fc29190616378565b611fcc9190617728565b61474563ffffffff16565b5b611fe661354463ffffffff16565b5b565b611ff761343863ffffffff16565b612048601060005060008463ffffffff16815260200190815260200160002060005060000160009054906101000a900473ffffffffffffffffffffffffffffffffffffffff16612e7b63ffffffff16565b6120f960006003811115612085577f4e487b7100000000000000000000000000000000000000000000000000000000600052602160045260246000fd5b601060005060008563ffffffff168152602001908152602001600020600050600001601c9054906101000a900460ff1660038111156120ed577f4e487b7100000000000000000000000000000000000000000000000000000000600052602160045260246000fd5b1461487863ffffffff16565b6001601060005060008463ffffffff168152602001908152602001600020600050600001601c6101000a81548160ff02191690836003811115612165577f4e487b7100000000000000000000000000000000000000000000000000000000600052602160045260246000fd5b021790555080601060005060008463ffffffff16815260200190815260200160002060005060010160005090805190602001906121a3929190615be0565b503373ffffffffffffffffffffffffffffffffffffffff168263ffffffff167fec673006d787a8f7beffb5435d65c9380768a511390c957f84092e507033f218836040516121f19190616ccc565b60405180910390a35b61220861354463ffffffff16565b5b5050565b60608163ffffffff168363ffffffff1610151561222a5760006000fd5b82826122369190617747565b63ffffffff1667ffffffffffffffff81111561227b577f4e487b7100000000000000000000000000000000000000000000000000000000600052604160045260246000fd5b6040519080825280602002602001820160405280156122b457816020015b6122a1615c6b565b8152602001906001900390816122995790505b509050805060005b8263ffffffff168463ffffffff161015612527576010600050600085806122e290617844565b965063ffffffff1681526020019081526020016000206000506040518060a00160405290816000820160009054906101000a900473ffffffffffffffffffffffffffffffffffffffff1673ffffffffffffffffffffffffffffffffffffffff1673ffffffffffffffffffffffffffffffffffffffff1681526020016000820160149054906101000a900467ffffffffffffffff1667ffffffffffffffff1667ffffffffffffffff16815260200160008201601c9054906101000a900460ff1660038111156123d9577f4e487b7100000000000000000000000000000000000000000000000000000000600052602160045260246000fd5b6003811115612411577f4e487b7100000000000000000000000000000000000000000000000000000000600052602160045260246000fd5b815260200160008201601d9054906101000a900462ffffff1662ffffff1662ffffff16815260200160018201600050805461244b906177aa565b80601f0160208091040260200160405190810160405280929190818152602001828054612477906177aa565b80156124c45780601f10612499576101008083540402835291602001916124c4565b820191906000526020600020905b8154815290600101906020018083116124a757829003601f168201915b5050505050815260200150508282806124dc90617805565b9350815181101515612517577f4e487b7100000000000000000000000000000000000000000000000000000000600052603260045260246000fd5b60200260200101819052506122bc565b505b92915050565b6060600660005060006125498460c86126ab63ffffffff16565b60020b60020b81526020019081526020016000206000508054806020026020016040519081016040528092919081815260200182805480156125de57602002820191906000526020600020906000905b82829054906101000a900467ffffffffffffffff1667ffffffffffffffff16815260200190600801906020826007010492830192600103820291508084116125995790505b505050505090506125ea565b919050565b6000600082141561260557627fffff905061267f565b60008311151561264a576040517f08c379a000000000000000000000000000000000000000000000000000000000815260040161264190616ec7565b60405180910390fd5b61267861266b61266085856148be63ffffffff16565b61491f63ffffffff16565b60c86126ab63ffffffff16565b905061267f565b92915050565b600360009054906101000a900473ffffffffffffffffffffffffffffffffffffffff1681565b6000600082846126bb919061786d565b905060008160020b146127015760008460020b136126ef578281856126e09190617641565b6126ea9190617641565b6126fc565b80846126fb9190617641565b5b612703565b835b91505061270c56505b92915050565b600061272261343863ffffffff16565b6703782dace9d9000067ffffffffffffffff168367ffffffffffffffff1611151515612783576040517f08c379a000000000000000000000000000000000000000000000000000000000815260040161277a90617002565b60405180910390fd5b63ffffffff63ffffffff16600f60009054906101000a900463ffffffff1663ffffffff161015156127b45760006000fd5b6000600f600081819054906101000a900463ffffffff16809291906127d890617844565b91906101000a81548163ffffffff021916908363ffffffff16021790555090506040518060a001604052803373ffffffffffffffffffffffffffffffffffffffff1681526020018567ffffffffffffffff16815260200160006003811115612869577f4e487b7100000000000000000000000000000000000000000000000000000000600052602160045260246000fd5b81526020018462ffffff16815260200160405180602001604052806000815260200150815260200150601060005060008363ffffffff16815260200190815260200160002060005060008201518160000160006101000a81548173ffffffffffffffffffffffffffffffffffffffff021916908373ffffffffffffffffffffffffffffffffffffffff16021790555060208201518160000160146101000a81548167ffffffffffffffff021916908367ffffffffffffffff160217905550604082015181600001601c6101000a81548160ff02191690836003811115612978577f4e487b7100000000000000000000000000000000000000000000000000000000600052602160045260246000fd5b0217905550606082015181600001601d6101000a81548162ffffff021916908362ffffff16021790555060808201518160010160005090805190602001906129c1929190615be0565b509050508262ffffff163373ffffffffffffffffffffffffffffffffffffffff168263ffffffff167f46f1b99a43c800f57b28bd687fe2fc54e883b31ff06b2a6d863d52892505974887604051612a1891906173ab565b60405180910390a480915050612a2a56505b612a3861354463ffffffff16565b5b92915050565b612a70600360009054906101000a900473ffffffffffffffffffffffffffffffffffffffff16612e7b63ffffffff16565b600360006101000a81549073ffffffffffffffffffffffffffffffffffffffff0219169055612b437f000000000000000000000000000000000000000000000000000000000000000073ffffffffffffffffffffffffffffffffffffffff16639ec5a8946040518163ffffffff1660e01b815260040160206040518083038186803b158015612aff5760006000fd5b505afa158015612b14573d600060003e3d6000fd5b505050506040513d601f19601f82011682018060405250810190612b38919061617a565b6146b163ffffffff16565b5b565b600f60009054906101000a900463ffffffff1681565b612b64615cfa565b612b7382614d3363ffffffff16565b905080506000816020015161ffff16111515612bc4576040517f08c379a0000000000000000000000000000000000000000000000000000000008152600401612bbb90616e88565b60405180910390fd5b600081610120015163ffffffff161115612cbb576010600050600082610120015163ffffffff16815260200190815260200160002060005060000160149054906101000a900467ffffffffffffffff1681610160019067ffffffffffffffff16908167ffffffffffffffff16815260200150506010600050600082610120015163ffffffff16815260200190815260200160002060005060000160009054906101000a900473ffffffffffffffffffffffffffffffffffffffff1681610140019073ffffffffffffffffffffffffffffffffffffffff16908173ffffffffffffffffffffffffffffffffffffffff16815260200150505b7f000000000000000000000000000000000000000000000000000000000000000073ffffffffffffffffffffffffffffffffffffffff166399fbab88836040518263ffffffff1660e01b8152600401612d149190617368565b6101806040518083038186803b158015612d2e5760006000fd5b505afa158015612d43573d600060003e3d6000fd5b505050506040513d601f19601f82011682018060405250810190612d679190616754565b909192939495969798999a509091929394959697989950909192939495969798509091929394959697509091929394959650909192509091509050508360e00184610100018560a0018390906fffffffffffffffffffffffffffffffff166fffffffffffffffffffffffffffffffff1681526020015083909060020b60020b81526020015083909060020b60020b8152602001505050505b919050565b600560019054906101000a900460ff1681565b600070010000000000000000000000000000000082101515612e6e576040517f08c379a0000000000000000000000000000000000000000000000000000000008152600401612e6590616f45565b60405180910390fd5b819050612e76565b919050565b612eb88173ffffffffffffffffffffffffffffffffffffffff163373ffffffffffffffffffffffffffffffffffffffff161461487863ffffffff16565b5b50565b612ec4615ae4565b60006008600050604051806080016040529081600082016000505481526020016001820160009054906101000a90046fffffffffffffffffffffffffffffffff166fffffffffffffffffffffffffffffffff166fffffffffffffffffffffffffffffffff1681526020016001820160109054906101000a90046fffffffffffffffffffffffffffffffff166fffffffffffffffffffffffffffffffff166fffffffffffffffffffffffffffffffff1681526020016002820160009054906101000a90046fffffffffffffffffffffffffffffffff166fffffffffffffffffffffffffffffffff166fffffffffffffffffffffffffffffffff16815260200150509050604051806080016040528082602001516fffffffffffffffffffffffffffffffff16815260200182606001516fffffffffffffffffffffffffffffffff1681526020018260000151815260200182604001516fffffffffffffffffffffffffffffffff1681526020015091505061303956505b90565b6130997f000000000000000000000000000000000000000000000000000000000000000073ffffffffffffffffffffffffffffffffffffffff163373ffffffffffffffffffffffffffffffffffffffff161461487863ffffffff16565b5b565b6130a4615b0f565b6000600460005060008467ffffffffffffffff1667ffffffffffffffff16815260200190815260200160002060005060405180610160016040529081600082016000505481526020016001820160009054906101000a90046fffffffffffffffffffffffffffffffff166fffffffffffffffffffffffffffffffff166fffffffffffffffffffffffffffffffff1681526020016001820160109054906101000a90046fffffffffffffffffffffffffffffffff166fffffffffffffffffffffffffffffffff166fffffffffffffffffffffffffffffffff1681526020016002820160009054906101000a90046fffffffffffffffffffffffffffffffff166fffffffffffffffffffffffffffffffff166fffffffffffffffffffffffffffffffff1681526020016002820160109054906101000a90046fffffffffffffffffffffffffffffffff166fffffffffffffffffffffffffffffffff166fffffffffffffffffffffffffffffffff1681526020016003820160009054906101000a900467ffffffffffffffff1667ffffffffffffffff1667ffffffffffffffff1681526020016003820160089054906101000a900467ffffffffffffffff1667ffffffffffffffff1667ffffffffffffffff1681526020016003820160109054906101000a900460020b60020b60020b81526020016003820160139054906101000a900460ff161515151581526020016003820160149054906101000a900467ffffffffffffffff1667ffffffffffffffff1667ffffffffffffffff16815260200160038201601c9054906101000a900463ffffffff1663ffffffff1663ffffffff16815260200150509050604051806101a001604052808260000151815260200182602001516fffffffffffffffffffffffffffffffff16815260200182604001516fffffffffffffffffffffffffffffffff16815260200182606001516fffffffffffffffffffffffffffffffff16815260200182608001516fffffffffffffffffffffffffffffffff1681526020018260a0015167ffffffffffffffff1681526020018260c0015167ffffffffffffffff1681526020018260e0015160020b81526020018261010001511515815260200182610120015167ffffffffffffffff16815260200182610140015163ffffffff168152602001600073ffffffffffffffffffffffffffffffffffffffff168152602001600067ffffffffffffffff1681526020015091505061343356505b919050565b600260026000505414151515613483576040517f08c379a000000000000000000000000000000000000000000000000000000000815260040161347a90616ce8565b60405180910390fd5b600260026000508190909055505b565b6135417f000000000000000000000000000000000000000000000000000000000000000073ffffffffffffffffffffffffffffffffffffffff16639ec5a8946040518163ffffffff1660e01b815260040160206040518083038186803b1580156134fd5760006000fd5b505afa158015613512573d600060003e3d6000fd5b505050506040513d601f19601f82011682018060405250810190613536919061617a565b612e7b63ffffffff16565b5b565b600160026000508190909055505b565b6135bb61356882612e17909063ffffffff16565b600e60005060008573ffffffffffffffffffffffffffffffffffffffff1673ffffffffffffffffffffffffffffffffffffffff168152602001908152602001600020600050614fc990919063ffffffff16565b505b5050565b60006000836001016000506000846fffffffffffffffffffffffffffffffff166fffffffffffffffffffffffffffffffff1681526020019081526020016000206000505490506000811415156138685760006001826136209190617728565b905060006001866000016000508054905061363b9190617728565b905060008660000160005082815481101515613680577f4e487b7100000000000000000000000000000000000000000000000000000000600052603260045260246000fd5b90600052602060002090600291828204019190066010025b9054906101000a90046fffffffffffffffffffffffffffffffff1690508087600001600050848154811015156136f7577f4e487b7100000000000000000000000000000000000000000000000000000000600052603260045260246000fd5b90600052602060002090600291828204019190066010025b6101000a8154816fffffffffffffffffffffffffffffffff02191690836fffffffffffffffffffffffffffffffff16021790555060018361375091906174ff565b876001016000506000836fffffffffffffffffffffffffffffffff166fffffffffffffffffffffffffffffffff1681526020019081526020016000206000508190909055508660000160005080548015156137d4577f4e487b7100000000000000000000000000000000000000000000000000000000600052603160045260246000fd5b60019003818190600052602060002090600291828204019190066010025b6101000a8154906fffffffffffffffffffffffffffffffff02191690559055866001016000506000876fffffffffffffffffffffffffffffffff166fffffffffffffffffffffffffffffffff16815260200190815260200160002060005060009055600194505050505061387456505050613872565b6000915050613874565b505b92915050565b7f000000000000000000000000000000000000000000000000000000000000000073ffffffffffffffffffffffffffffffffffffffff16637c114fed336040518263ffffffff1660e01b81526004016138d39190616964565b60006040518083038186803b1580156138ec5760006000fd5b505afa158015613901573d600060003e3d6000fd5b505050505b565b613910615b0f565b6000600460005060008567ffffffffffffffff1667ffffffffffffffff16815260200190815260200160002060005060030160139054906101000a900460ff16905060008161396257627fffff6139a1565b600460005060008667ffffffffffffffff1667ffffffffffffffff16815260200190815260200160002060005060030160109054906101000a900460020b5b90506000600460005060008767ffffffffffffffff1667ffffffffffffffff16815260200190815260200160002060005060030160149054906101000a900467ffffffffffffffff1690506000613a06866020015187604001516125ef63ffffffff16565b90508060020b8360020b141515613d3d57808660e0019060020b908160020b815260200150506000627fffff60020b8460020b1215613c6357600660005060008560020b60020b8152602001908152602001600020600050905080506000613a8560018380549050613a789190617728565b6150ba909063ffffffff16565b90508067ffffffffffffffff168467ffffffffffffffff16141515613bf3576000828267ffffffffffffffff16815481101515613aeb577f4e487b7100000000000000000000000000000000000000000000000000000000600052603260045260246000fd5b90600052602060002090600491828204019190066008025b9054906101000a900467ffffffffffffffff16905080838667ffffffffffffffff16815481101515613b5e577f4e487b7100000000000000000000000000000000000000000000000000000000600052603260045260246000fd5b90600052602060002090600491828204019190066008025b6101000a81548167ffffffffffffffff021916908367ffffffffffffffff16021790555084600460005060008367ffffffffffffffff1667ffffffffffffffff16815260200190815260200160002060005060030160146101000a81548167ffffffffffffffff021916908367ffffffffffffffff160217905550505b818054801515613c2c577f4e487b7100000000000000000000000000000000000000000000000000000000600052603160045260246000fd5b60019003818190600052602060002090600491828204019190066008025b6101000a81549067ffffffffffffffff02191690559055505b627fffff60020b8260020b1215613d3b57600660005060008360020b60020b815260200190815260200160002060005090508050613cac81805490506150ba909063ffffffff16565b87610120019067ffffffffffffffff16908167ffffffffffffffff1681526020015050600187610100019015159081151581526020015050808890806001815401808255809150506001900390600052602060002090600491828204019190066008025b9091909190916101000a81548167ffffffffffffffff021916908367ffffffffffffffff1602179055505b505b85945050505050613d4d56505050505b92915050565b60405180610160016040528082600001518152602001613d7e8360200151612e17909063ffffffff16565b6fffffffffffffffffffffffffffffffff168152602001613daa8360400151612e17909063ffffffff16565b6fffffffffffffffffffffffffffffffff168152602001613dd68360600151612e17909063ffffffff16565b6fffffffffffffffffffffffffffffffff168152602001613e028360800151612e17909063ffffffff16565b6fffffffffffffffffffffffffffffffff1681526020018260a0015167ffffffffffffffff1681526020018260c0015167ffffffffffffffff1681526020018260e0015160020b81526020018261010001511515815260200182610120015167ffffffffffffffff16815260200182610140015163ffffffff16815260200150600460005060008467ffffffffffffffff1667ffffffffffffffff16815260200190815260200160002060005060008201518160000160005090905560208201518160010160006101000a8154816fffffffffffffffffffffffffffffffff02191690836fffffffffffffffffffffffffffffffff16021790555060408201518160010160106101000a8154816fffffffffffffffffffffffffffffffff02191690836fffffffffffffffffffffffffffffffff16021790555060608201518160020160006101000a8154816fffffffffffffffffffffffffffffffff02191690836fffffffffffffffffffffffffffffffff16021790555060808201518160020160106101000a8154816fffffffffffffffffffffffffffffffff02191690836fffffffffffffffffffffffffffffffff16021790555060a08201518160030160006101000a81548167ffffffffffffffff021916908367ffffffffffffffff16021790555060c08201518160030160086101000a81548167ffffffffffffffff021916908367ffffffffffffffff16021790555060e08201518160030160106101000a81548162ffffff021916908360020b62ffffff1602179055506101008201518160030160136101000a81548160ff0219169083151502179055506101208201518160030160146101000a81548167ffffffffffffffff021916908367ffffffffffffffff16021790555061014082015181600301601c6101000a81548163ffffffff021916908363ffffffff1602179055509050505b5050565b60008273ffffffffffffffffffffffffffffffffffffffff1682600067ffffffffffffffff81111561411c577f4e487b7100000000000000000000000000000000000000000000000000000000600052604160045260246000fd5b6040519080825280601f01601f19166020018201604052801561414e5781602001600182028036833780820191505090505b5060405161415c9190616945565b60006040518083038185875af1925050503d8060008114614199576040519150601f19603f3d011682016040523d82523d6000602084013e61419e565b606091505b505090508015156141e4576040517f08c379a00000000000000000000000000000000000000000000000000000000081526004016141db90616d27565b60405180910390fd5b505b5050565b600060006000600019858709858702925082811083820303915050600081141561422d5760008411151561421e5760006000fd5b83820492508292505050614307565b808411151561423c5760006000fd5b60008486880990508281118203915080830392506000856001877fffffffffffffffffffffffffffffffffffffffffffffffffffffffffffffffff03011690508050808604955080840493506001818260000304019050808302841793508350600060028760030218905080870260020381029050805080870260020381029050805080870260020381029050805080870260020381029050805080870260020381029050805080870260020381029050805080850295508550508494505050505061430756505050505b9392505050565b6040518060800160405280826040015181526020016143388360000151612e17909063ffffffff16565b6fffffffffffffffffffffffffffffffff1681526020016143648360600151612e17909063ffffffff16565b6fffffffffffffffffffffffffffffffff1681526020016143908360200151612e17909063ffffffff16565b6fffffffffffffffffffffffffffffffff16815260200150600860005060008201518160000160005090905560208201518160010160006101000a8154816fffffffffffffffffffffffffffffffff02191690836fffffffffffffffffffffffffffffffff16021790555060408201518160010160106101000a8154816fffffffffffffffffffffffffffffffff02191690836fffffffffffffffffffffffffffffffff16021790555060608201518160020160006101000a8154816fffffffffffffffffffffffffffffffff02191690836fffffffffffffffffffffffffffffffff1602179055509050505b50565b6040518060e00160405280826000015173ffffffffffffffffffffffffffffffffffffffff168152602001826020015161ffff16815260200182610120015163ffffffff168152602001826040015181526020016144e98360600151615116909063ffffffff16565b75ffffffffffffffffffffffffffffffffffffffffffff1681526020016145258360c0015167ffffffffffffffff16615180909063ffffffff16565b64ffffffffff1681526020016145468360800151615180909063ffffffff16565b64ffffffffff16815260200150600c600050600084815260200190815260200160002060005060008201518160000160006101000a81548173ffffffffffffffffffffffffffffffffffffffff021916908373ffffffffffffffffffffffffffffffffffffffff16021790555060208201518160000160146101000a81548161ffff021916908361ffff16021790555060408201518160000160166101000a81548163ffffffff021916908363ffffffff16021790555060608201518160010160005090905560808201518160020160006101000a81548175ffffffffffffffffffffffffffffffffffffffffffff021916908375ffffffffffffffffffffffffffffffffffffffffffff16021790555060a08201518160020160166101000a81548164ffffffffff021916908364ffffffffff16021790555060c082015181600201601b6101000a81548164ffffffffff021916908364ffffffffff1602179055509050505b5050565b7f000000000000000000000000000000000000000000000000000000000000000073ffffffffffffffffffffffffffffffffffffffff1663a22cb4658260016040518363ffffffff1660e01b815260040161470d92919061698c565b600060405180830381600087803b1580156147285760006000fd5b505af115801561473d573d600060003e3d6000fd5b505050505b50565b6147cc8363a9059cbb60e01b84846040516024016147649291906169bd565b604051602081830303815290604052907bffffffffffffffffffffffffffffffffffffffffffffffffffffffff19166020820180517bffffffffffffffffffffffffffffffffffffffffffffffffffffffff83818316178352505050506151d963ffffffff16565b5b505050565b60608160000160005080548060200260200160405190810160405280929190818152602001828054801561486957602002820191906000526020600020906000905b82829054906101000a90046fffffffffffffffffffffffffffffffff166fffffffffffffffffffffffffffffffff1681526020019060100190602082600f010492830192600103820291508084116148145790505b5050505050905080505b919050565b8015156148ba576040517f08c379a00000000000000000000000000000000000000000000000000000000081526004016148b190616e0a565b60405180910390fd5b5b50565b600061491266010000000000006148fb6148f06c0100000000000000000000000086886141ea9092919063ffffffff16565b6152a663ffffffff16565b61490591906175fc565b61532b909063ffffffff16565b9050614919565b92915050565b60006401000276a373ffffffffffffffffffffffffffffffffffffffff168273ffffffffffffffffffffffffffffffffffffffff16101580156149a1575073fffd8963efd1fc6a506488495d951d5263988d2673ffffffffffffffffffffffffffffffffffffffff168273ffffffffffffffffffffffffffffffffffffffff16105b15156149e2576040517f08c379a00000000000000000000000000000000000000000000000000000000081526004016149d990617124565b60405180910390fd5b600060208373ffffffffffffffffffffffffffffffffffffffff16901b905060008190506000600090506fffffffffffffffffffffffffffffffff821160071b808217915082811c92505067ffffffffffffffff821160061b808217915082811c92505063ffffffff821160051b808217915082811c92505061ffff821160041b808217915082811c92505060ff821160031b808217915082811c925050600f821160021b808217915082811c9250506003821160011b808217915082811c92505060018211808217915050608081101515614ad157607f81614ac59190617728565b83901c91508150614ae6565b80607f614ade9190617728565b83901b915081505b60006040608083614af791906176ab565b901b9050828302607f1c92508260801c80603f1b8217915083811c935050828302607f1c92508260801c80603e1b8217915083811c935050828302607f1c92508260801c80603d1b8217915083811c935050828302607f1c92508260801c80603c1b8217915083811c935050828302607f1c92508260801c80603b1b8217915083811c935050828302607f1c92508260801c80603a1b8217915083811c935050828302607f1c92508260801c8060391b8217915083811c935050828302607f1c92508260801c8060381b8217915083811c935050828302607f1c92508260801c8060371b8217915083811c935050828302607f1c92508260801c8060361b8217915083811c935050828302607f1c92508260801c8060351b8217915083811c935050828302607f1c92508260801c8060341b8217915083811c935050828302607f1c92508260801c8060331b8217915083811c935050828302607f1c92508260801c8060321b82179150506000693627a301d71055774c8582614c7a919061753d565b9050600060806f028f6481ab7f045a5af012a19d003aaa83614c9c91906176ab565b901d9050600060806fdb2df09e81959a81455e260799a0632f84614cc09190617482565b901d90508060020b8260020b14614d20578873ffffffffffffffffffffffffffffffffffffffff16614cf78261539363ffffffff16565b73ffffffffffffffffffffffffffffffffffffffff161115614d195781614d1b565b805b614d22565b815b97508750505050505050505b919050565b614d3b615cfa565b6000600c60005060008481526020019081526020016000206000506040518060e00160405290816000820160009054906101000a900473ffffffffffffffffffffffffffffffffffffffff1673ffffffffffffffffffffffffffffffffffffffff1673ffffffffffffffffffffffffffffffffffffffff1681526020016000820160149054906101000a900461ffff1661ffff1661ffff1681526020016000820160169054906101000a900463ffffffff1663ffffffff1663ffffffff168152602001600182016000505481526020016002820160009054906101000a900475ffffffffffffffffffffffffffffffffffffffffffff1675ffffffffffffffffffffffffffffffffffffffffffff1675ffffffffffffffffffffffffffffffffffffffffffff1681526020016002820160169054906101000a900464ffffffffff1664ffffffffff1664ffffffffff16815260200160028201601b9054906101000a900464ffffffffff1664ffffffffff1664ffffffffff16815260200150509050604051806101800160405280826000015173ffffffffffffffffffffffffffffffffffffffff168152602001826020015161ffff16815260200182606001518152602001826080015175ffffffffffffffffffffffffffffffffffffffffffff1681526020018260c0015164ffffffffff16815260200160006fffffffffffffffffffffffffffffffff1681526020018260a0015164ffffffffff1667ffffffffffffffff168152602001600060020b8152602001600060020b8152602001826040015163ffffffff168152602001600073ffffffffffffffffffffffffffffffffffffffff168152602001600067ffffffffffffffff16815260200150915050614fc456505b919050565b6000614fdb83836158b663ffffffff16565b15156150aa57826000016000508290806001815401808255809150506001900390600052602060002090600291828204019190066010025b9091909190916101000a8154816fffffffffffffffffffffffffffffffff02191690836fffffffffffffffffffffffffffffffff1602179055508260000160005080549050836001016000506000846fffffffffffffffffffffffffffffffff166fffffffffffffffffffffffffffffffff168152602001908152602001600020600050819090905550600190506150b4566150b3565b600090506150b4565b5b92915050565b60006801000000000000000082101515615109576040517f08c379a0000000000000000000000000000000000000000000000000000000008152600401615100906170e5565b60405180910390fd5b819050615111565b919050565b600076010000000000000000000000000000000000000000000082101515615173576040517f08c379a000000000000000000000000000000000000000000000000000000000815260040161516a90616f06565b60405180910390fd5b81905061517b565b919050565b600065010000000000821015156151cc576040517f08c379a00000000000000000000000000000000000000000000000000000000081526004016151c390616d66565b60405180910390fd5b8190506151d4565b919050565b600061523e826040518060400160405280602081526020017f5361666545524332303a206c6f772d6c6576656c2063616c6c206661696c65648152602001508573ffffffffffffffffffffffffffffffffffffffff166159099092919063ffffffff16565b90506000815111156152a0578080602001905181019061525e91906160df565b151561529f576040517f08c379a000000000000000000000000000000000000000000000000000000000815260040161529690617080565b60405180910390fd5b5b505b5050565b60006003821115615313578190508050600060016002846152c7919061751f565b6152d191906174ff565b90505b8181101561530d57809150815060028182856152f0919061751f565b6152fa91906174ff565b615304919061751f565b905080506152d4565b50615325565b600082141515615324576001905080505b5b5b919050565b60007401000000000000000000000000000000000000000082101515615386576040517f08c379a000000000000000000000000000000000000000000000000000000000815260040161537d90617041565b60405180910390fd5b81905061538e565b919050565b6000600060008360020b126153ab578260020b6153b9565b8260020b6153b8906178f4565b5b90507ffffffffffffffffffffffffffffffffffffffffffffffffffffffffffff276186153e5906178b1565b62ffffff16811115151561542e576040517f08c379a000000000000000000000000000000000000000000000000000000000815260040161542590616e49565b60405180910390fd5b6000600060018316141561545357700100000000000000000000000000000000615465565b6ffffcb933bd6fad37aa2d162d1a5940015b70ffffffffffffffffffffffffffffffffff1690506000600283161415156154ac5760806ffff97272373d413259a46990580e213a826154a591906175fc565b901c905080505b6000600483161415156154de5760806ffff2e50f5f656932ef12357cf3c7fdcc826154d791906175fc565b901c905080505b6000600883161415156155105760806fffe5caca7e10e4e61c3624eaa0941cd08261550991906175fc565b901c905080505b6000601083161415156155425760806fffcb9843d60f6159c9db58835c9266448261553b91906175fc565b901c905080505b6000602083161415156155745760806fff973b41fa98c081472e6896dfb254c08261556d91906175fc565b901c905080505b6000604083161415156155a65760806fff2ea16466c96a3843ec78b326b528618261559f91906175fc565b901c905080505b6000608083161415156155d85760806ffe5dee046a99a2a811c461f1969c3053826155d191906175fc565b901c905080505b6000610100831614151561560b5760806ffcbe86c7900a88aedcffc83b479aa3a48261560491906175fc565b901c905080505b6000610200831614151561563e5760806ff987a7253ac413176f2b074cf7815e548261563791906175fc565b901c905080505b600061040083161415156156715760806ff3392b0822b70005940c7a398e4b70f38261566a91906175fc565b901c905080505b600061080083161415156156a45760806fe7159475a2c29b7443b29c7fa6e889d98261569d91906175fc565b901c905080505b600061100083161415156156d75760806fd097f3bdfd2022b8845ad8f792aa5825826156d091906175fc565b901c905080505b6000612000831614151561570a5760806fa9f746462d870fdf8a65dc1f90e061e58261570391906175fc565b901c905080505b6000614000831614151561573d5760806f70d869a156d2a1b890bb3df62baf32f78261573691906175fc565b901c905080505b600061800083161415156157705760806f31be135f97d08fd981231505542fcfa68261576991906175fc565b901c905080505b60006201000083161415156157a45760806f09aa508b5b7a84e1c677de54f3e99bc98261579d91906175fc565b901c905080505b60006202000083161415156157d75760806e5d6af8dedb81196699c329225ee604826157d091906175fc565b901c905080505b60006204000083161415156158095760806d2216e584f5fa1ea926041bedfe988261580291906175fc565b901c905080505b60006208000083161415156158395760806b048a170391f7dc42444e8fa28261583291906175fc565b901c905080505b60008460020b131561587657807fffffffffffffffffffffffffffffffffffffffffffffffffffffffffffffffff615871919061751f565b905080505b6000640100000000826158899190617893565b14615895576001615898565b60005b60ff16602082901c6158aa91906174ff565b9250825050505b919050565b60006000836001016000506000846fffffffffffffffffffffffffffffffff166fffffffffffffffffffffffffffffffff1681526020019081526020016000206000505414159050615903565b92915050565b606061591e848460008561592c63ffffffff16565b9050615925565b9392505050565b6060824710151515615973576040517f08c379a000000000000000000000000000000000000000000000000000000000815260040161596a90616da5565b60405180910390fd5b61598285615a5863ffffffff16565b15156159c3576040517f08c379a00000000000000000000000000000000000000000000000000000000081526004016159ba90616fc3565b60405180910390fd5b600060008673ffffffffffffffffffffffffffffffffffffffff1685876040516159ed9190616945565b60006040518083038185875af1925050503d8060008114615a2a576040519150601f19603f3d011682016040523d82523d6000602084013e615a2f565b606091505b5091509150615a45828286615a7263ffffffff16565b92505050615a505650505b949350505050565b60006000823b905060008111915050615a6d56505b919050565b60608315615a8657829050615add56615adc565b600083511115615a9e5782518084602001fd50615adb565b816040517f08c379a0000000000000000000000000000000000000000000000000000000008152600401615ad29190616ccc565b60405180910390fd5b5b5b9392505050565b6040518060800160405280600081526020016000815260200160008152602001600081526020015090565b604051806101a001604052806000815260200160008152602001600081526020016000815260200160008152602001600067ffffffffffffffff168152602001600067ffffffffffffffff168152602001600060020b8152602001600015158152602001600067ffffffffffffffff168152602001600063ffffffff168152602001600073ffffffffffffffffffffffffffffffffffffffff168152602001600067ffffffffffffffff1681526020015090565b604051806040016040528060008152602001600081526020015090565b828054615bec906177aa565b90600052602060002090601f016020900481019282615c0e5760008555615c5a565b82601f10615c2757805160ff1916838001178555615c5a565b82800160010185558215615c5a579182015b82811115615c595782518260005090905591602001919060010190615c39565b5b509050615c679190615dc0565b5090565b6040518060a00160405280600073ffffffffffffffffffffffffffffffffffffffff168152602001600067ffffffffffffffff16815260200160006003811115615cde577f4e487b7100000000000000000000000000000000000000000000000000000000600052602160045260246000fd5b8152602001600062ffffff168152602001606081526020015090565b604051806101800160405280600073ffffffffffffffffffffffffffffffffffffffff168152602001600061ffff16815260200160008152602001600081526020016000815260200160006fffffffffffffffffffffffffffffffff168152602001600067ffffffffffffffff168152602001600060020b8152602001600060020b8152602001600063ffffffff168152602001600073ffffffffffffffffffffffffffffffffffffffff168152602001600067ffffffffffffffff1681526020015090565b615dc5565b80821115615ddf5760008181506000905550600101615dc5565b509056617a56565b600081359050615df6816179c5565b5b919050565b600081519050615e0b816179c5565b5b919050565b600081359050615e20816179ee565b5b919050565b600081359050615e3581617a03565b5b919050565b600081519050615e4a81617a03565b5b919050565b600081359050615e5f81617a19565b5b919050565b600081519050615e7481617a19565b5b919050565b60008135905061ffff811681141515615e935760006000fd5b5b919050565b600081519050615ea881617a3e565b5b919050565b60008135905063ffffffff811681141515615ec95760006000fd5b5b919050565b60008135905067ffffffffffffffff811681141515615eee5760006000fd5b5b919050565b600060208284031215615f05578081fd5b8135615f10816179c5565b809150505b92915050565b6000600060408385031215615f2e578081fd5b8235615f39816179c5565b80925050602083013590505b9250929050565b6000600060006000600060808688031215615f65578081fd5b8535615f70816179c5565b809550506020860135615f82816179c5565b8094505060408601359250606086013567ffffffffffffffff80821115615fa7578283fd5b818801915088601f8301121515615fbc578283fd5b813581811115615fca578384fd5b896020828501011115615fdb578384fd5b6020830194508093505050505b9295509295909350565b6000600060408385031215616005578182fd5b8235616010816179c5565b80925050602083013590505b9250929050565b60006020808385031215616035578182fd5b823567ffffffffffffffff8082111561604c578384fd5b818501915085601f8301121515616061578384fd5b81358181111561607457616073617994565b5b8060051b915061608584830161742b565b80828252858201915085850189878688010111156160a1578788fd5b8795505b838610156160ce576160b681615eae565b8352868301925086810190505b6001860195506160a5565b508096505050505050505b92915050565b6000602082840312156160f0578081fd5b81516160fb816179ee565b809150505b92915050565b600060208284031215616117578081fd5b81357fffffffff00000000000000000000000000000000000000000000000000000000811681141515616148578182fd5b809150505b92915050565b600060208284031215616164578081fd5b815161616f816179c5565b809150505b92915050565b60006020828403121561618b578081fd5b8151616196816179c5565b809150505b92915050565b6000602082840312156161b2578081fd5b81356161bd816179c5565b809150505b92915050565b6000600082840360608112156161dc578283fd5b83356161e7816179c5565b8093505060407fffffffffffffffffffffffffffffffffffffffffffffffffffffffffffffffe08201121561621a578182fd5b506040516040810181811067ffffffffffffffff8211171561623f5761623e617994565b5b80604052506020840135815260408401356020820152809150505b9250929050565b6000600060408385031215616274578182fd5b823561627f816179c5565b80925050602083013590505b9250929050565b6000602082840312156162a3578081fd5b81356162ae81617a03565b809150505b92915050565b60006000604083850312156162cc578182fd5b82356162d781617a03565b8092505060208301356162e981617a03565b809150505b9250929050565b600060808284031215616306578081fd5b6040516080810181811067ffffffffffffffff8211171561632a57616329617994565b5b806040525082358152602083013560208201526040830135604082015260608301356060820152809150505b92915050565b60006020828403121561636d578081fd5b813590505b92915050565b600060208284031215616389578081fd5b815190505b92915050565b600060008284036101a08112156163a9578283fd5b83359250610180807fffffffffffffffffffffffffffffffffffffffffffffffffffffffffffffffe0830112156163de578283fd5b6163e66173c7565b91506163f460208601615de7565b825261640260408601615e7a565b6020830152606085013560408301526080850135606083015260a0850135608083015261643160c08601615e50565b60a083015261644260e08601615ecf565b60c0830152610100616455818701615e26565b60e0840152610120616468818801615e26565b82850152610140915061647c828801615eae565b818501525061016061648f818801615de7565b8285015261649e838801615ecf565b81850152505050809150505b9250929050565b60006000604083850312156164c4578182fd5b82359150602083013590505b9250929050565b60006000604083850312156164ea578182fd5b6164f383615eae565b915060208084013567ffffffffffffffff80821115616510578384fd5b818601915086601f8301121515616525578384fd5b81358181111561653857616537617994565b5b616568847fffffffffffffffffffffffffffffffffffffffffffffffffffffffffffffffe0601f8401160161742b565b9150808252878482850101111561657d578485fd5b808484018584013784848284010152508093505050505b9250929050565b60006000604083850312156165ae578182fd5b6165b783615eae565b91506165c560208401615eae565b90505b9250929050565b6000602082840312156165e0578081fd5b6165e982615ecf565b90505b92915050565b600060008284036101c0811215616607578283fd5b61661084615ecf565b92506101a0807fffffffffffffffffffffffffffffffffffffffffffffffffffffffffffffffe083011215616643578283fd5b61664b6173f9565b91506020850135825260408501356020830152606085013560408301526080850135606083015260a0850135608083015261668860c08601615ecf565b60a083015261669960e08601615ecf565b60c08301526101006166ac818701615e26565b60e08401526101206166bf818801615e11565b8285015261014091506166d3828801615ecf565b81850152506101606166e6818801615eae565b8285015261018091506166fa828801615de7565b818501525061670a828701615ecf565b818401525050809150505b9250929050565b600060006040838503121561672f578182fd5b61673883615ecf565b9150602083013561674881617a3e565b809150505b9250929050565b6000600060006000600060006000600060006000600060006101808d8f03121561677c57898afd5b8c516bffffffffffffffffffffffff811681141515616799578a8bfd5b809c50506167a960208e01615dfc565b9a506167b760408e01615dfc565b99506167c560608e01615dfc565b98506167d360808e01615e99565b97506167e160a08e01615e3b565b96506167ef60c08e01615e3b565b95506167fd60e08e01615e65565b94506101008d015193506101208d0151925061681c6101408e01615e65565b915061682b6101608e01615e65565b90505b9295989b509295989b509295989b565b73ffffffffffffffffffffffffffffffffffffffff8116825250505b565b801515825250505b565b60048110151561689f577f4e487b7100000000000000000000000000000000000000000000000000000000600052602160045260246000fd5b80825250505b565b8060020b825250505b565b600081518084526168ca816020860160208601617775565b60207fffffffffffffffffffffffffffffffffffffffffffffffffffffffffffffffe0601f8301168501019150505b92915050565b6fffffffffffffffffffffffffffffffff8116825250505b565b61ffff8116825250505b565b63ffffffff8116825250505b565b67ffffffffffffffff8116825250505b565b60008251616957818460208701617775565b8083019150505b92915050565b600060208201905073ffffffffffffffffffffffffffffffffffffffff831682525b92915050565b600060408201905073ffffffffffffffffffffffffffffffffffffffff8416825282151560208301525b9392505050565b600060408201905073ffffffffffffffffffffffffffffffffffffffff841682528260208301525b9392505050565b73ffffffffffffffffffffffffffffffffffffffff8616815267ffffffffffffffff85166020820152616a226040820185616866565b62ffffff8316606082015260a060808201526000616a4360a08301846168b2565b90505b9695505050505050565b60006020808301818452808551808352604092508286019150828160051b870101848801865b83811015616b2a577fffffffffffffffffffffffffffffffffffffffffffffffffffffffffffffffc0898403018552815160a073ffffffffffffffffffffffffffffffffffffffff825116855267ffffffffffffffff89830151168986015287820151616ae589870182616866565b50606062ffffff818401511681870152506080808301519250818187015250616b10818601836168b2565b94505050868201915086850194505b600181019050616a76565b505080955050505050505b92915050565b600060208083018184528085518083526040860191508387019250845b81811015616b8c576fffffffffffffffffffffffffffffffff8451168352848301925084840193505b600181019050616b58565b50508093505050505b92915050565b600060208083018184528085518083526040860191508387019250845b81811015616be05763ffffffff8451168352848301925084840193505b600181019050616bb8565b50508093505050505b92915050565b600060208083018184528085518083526040860191508387019250845b81811015616c385767ffffffffffffffff8451168352848301925084840193505b600181019050616c0c565b50508093505050505b92915050565b600060208201905082151582525b92915050565b60006020820190507fffffffff00000000000000000000000000000000000000000000000000000000831682525b92915050565b600060208201905073ffffffffffffffffffffffffffffffffffffffff831682525b92915050565b60006020820190508260020b82525b92915050565b602081526000616cdf60208301846168b2565b90505b92915050565b60208152600d60208201527f4c43205265656e7472616e637900000000000000000000000000000000000000604082015260006060820190505b919050565b60208152600360208201527f5354450000000000000000000000000000000000000000000000000000000000604082015260006060820190505b919050565b60208152601160208201527f6d6f7265207468616e2034302062697473000000000000000000000000000000604082015260006060820190505b919050565b60208152602660208201527f416464726573733a20696e73756666696369656e742062616c616e636520666f60408201527f722063616c6c0000000000000000000000000000000000000000000000000000606082015260006080820190505b919050565b60208152600e60208201527f4e6f7420417574686f72697a6564000000000000000000000000000000000000604082015260006060820190505b919050565b60208152600160208201527f5400000000000000000000000000000000000000000000000000000000000000604082015260006060820190505b919050565b60208152600c60208201527f506f736974696f6e20444e450000000000000000000000000000000000000000604082015260006060820190505b919050565b60208152601760208201527f4465627420776974686f757420636f6c6c61746572616c000000000000000000604082015260006060820190505b919050565b60208152601260208201527f6d6f7265207468616e2031373620626974730000000000000000000000000000604082015260006060820190505b919050565b60208152601260208201527f6d6f7265207468616e2031323820626974730000000000000000000000000000604082015260006060820190505b919050565b60208152601d60208201527f446f6573206e6f7420616363657074204e465473206469726563746c79000000604082015260006060820190505b919050565b60208152601d60208201527f416464726573733a2063616c6c20746f206e6f6e2d636f6e7472616374000000604082015260006060820190505b919050565b60208152601560208201527f4d6178206b69636b6261636b2065786365656465640000000000000000000000604082015260006060820190505b919050565b60208152601260208201527f6d6f7265207468616e2031363020626974730000000000000000000000000000604082015260006060820190505b919050565b60208152602a60208201527f5361666545524332303a204552433230206f7065726174696f6e20646964206e60408201527f6f74207375636365656400000000000000000000000000000000000000000000606082015260006080820190505b919050565b60208152601160208201527f6d6f7265207468616e2036342062697473000000000000000000000000000000604082015260006060820190505b919050565b60208152600160208201527f5200000000000000000000000000000000000000000000000000000000000000604082015260006060820190505b919050565b60006101a082019050825182526020830151602083015260408301516040830152606083015160608301526080830151608083015260a08301516171aa60a0840182616933565b5060c08301516171bd60c0840182616933565b5060e08301516171d060e08401826168a7565b50610100808401516171e48285018261685c565b5050610120808401516171f982850182616933565b50506101408084015161720e82850182616925565b5050610160808401516172238285018261683e565b50506101808084015161723882850182616933565b50505b92915050565b60006101808201905061725582845161683e565b60208301516172676020840182616919565b5060408301516040830152606083015160608301526080830151608083015260a083015161729860a08401826168ff565b5060c08301516172ab60c0840182616933565b5060e08301516172be60e08401826168a7565b50610100808401516172d2828501826168a7565b5050610120808401516172e782850182616925565b5050610140808401516172fc8285018261683e565b50506101608084015161731182850182616933565b50505b92915050565b600060408201905082518252602083015160208301525b92915050565b6000608082019050825182526020830151602083015260408301516040830152606083015160608301525b92915050565b60006020820190508282525b92915050565b60006040820190508382528260208301525b9392505050565b600060208201905063ffffffff831682525b92915050565b600060208201905067ffffffffffffffff831682525b92915050565b60006040519050610180810181811067ffffffffffffffff821117156173f0576173ef617994565b5b80604052505b90565b600060405190506101a0810181811067ffffffffffffffff8211171561742257617421617994565b5b80604052505b90565b600060405190507fffffffffffffffffffffffffffffffffffffffffffffffffffffffffffffffe0601f830116810181811067ffffffffffffffff8211171561747757617476617994565b5b80604052505b919050565b6000808212827f7fffffffffffffffffffffffffffffffffffffffffffffffffffffffffffffff038413811516156174bd576174bc617932565b5b827f80000000000000000000000000000000000000000000000000000000000000000384128116156174f2576174f1617932565b5b5082820190505b92915050565b6000821982111561751357617512617932565b5b82820190505b92915050565b600082151561753157617530617963565b5b82820490505b92915050565b60007f7fffffffffffffffffffffffffffffffffffffffffffffffffffffffffffffff8184138284138583048511828216161561757d5761757c617932565b5b7f8000000000000000000000000000000000000000000000000000000000000000848712868205881281841616156175b8576175b7617932565b5b8587129250878205871284841616156175d4576175d3617932565b5b878505871281841616156175eb576175ea617932565b5b505050505082820290505b92915050565b6000817fffffffffffffffffffffffffffffffffffffffffffffffffffffffffffffffff048311821515161561763557617634617932565b5b82820290505b92915050565b60008160020b8360020b828112817fffffffffffffffffffffffffffffffffffffffffffffffffffffffffff8000000183128115161561768457617683617932565b5b81627fffff01831381161561769c5761769b617932565b5b50808203925050505b92915050565b6000808312837f8000000000000000000000000000000000000000000000000000000000000000018312811516156176e6576176e5617932565b5b837f7fffffffffffffffffffffffffffffffffffffffffffffffffffffffffffffff01831381161561771b5761771a617932565b5b5082820390505b92915050565b60008282101561773b5761773a617932565b5b82820390505b92915050565b600063ffffffff80831681851691508181101561776757617766617932565b5b818103925050505b92915050565b60005b838110156177945780820151818401525b602081019050617778565b838111156177a3576000848401525b505050505b565b60008160011c9050600182168015156177c457607f821691505b602082108114156177fe577f4e487b7100000000000000000000000000000000000000000000000000000000600052602260045260246000fd5b505b919050565b60007fffffffffffffffffffffffffffffffffffffffffffffffffffffffffffffffff82141561783857617837617932565b5b6001820190505b919050565b600063ffffffff8083168181141561785f5761785e617932565b5b60018101925050505b919050565b60008260020b80151561788357617882617963565b5b808360020b079150505b92915050565b60008215156178a5576178a4617963565b5b82820690505b92915050565b60008160020b7fffffffffffffffffffffffffffffffffffffffffffffffffffffffffff8000008114156178e8576178e7617932565b5b8082039150505b919050565b60007f800000000000000000000000000000000000000000000000000000000000000082141561792757617926617932565b5b81810390505b919050565b7f4e487b7100000000000000000000000000000000000000000000000000000000600052601160045260246000fd5b565b7f4e487b7100000000000000000000000000000000000000000000000000000000600052601260045260246000fd5b565b7f4e487b7100000000000000000000000000000000000000000000000000000000600052604160045260246000fd5b565b73ffffffffffffffffffffffffffffffffffffffff8116811415156179ea5760006000fd5b505b565b801515811415156179ff5760006000fd5b505b565b8060020b81141515617a155760006000fd5b505b565b6fffffffffffffffffffffffffffffffff811681141515617a3a5760006000fd5b505b565b62ffffff811681141515617a525760006000fd5b505b565bfea26469706673582212208afe79f13107b97fae33876c8858e1ec727c8a39245a38e454e370eb38c1da1564736f6c63430008040033",
  "linkReferences": {},
  "deployedLinkReferences": {}
}