{
  "_format": "hh-sol-artifact-1",
  "contractName": "Rewards",
  "sourceName": "contracts/core/logic/Rewards.sol",
  "abi": [
    {
      "inputs": [
        {
          "components": [
            {
              "internalType": "contract IGovernor",
              "name": "Governor",
              "type": "address"
            },
            {
              "internalType": "contract IProtocolLock",
              "name": "ProtocolLock",
              "type": "address"
            },
            {
              "internalType": "contract IAccounting",
              "name": "Accounting",
              "type": "address"
            },
            {
              "internalType": "address",
              "name": "Weth",
              "type": "address"
            }
          ],
          "internalType": "struct IRewards.ConstructorParams",
          "name": "params",
          "type": "tuple"
        }
      ],
      "stateMutability": "nonpayable",
      "type": "constructor"
    },
    {
      "anonymous": false,
      "inputs": [
        {
          "indexed": true,
          "internalType": "address",
          "name": "owner",
          "type": "address"
        },
        {
          "indexed": true,
          "internalType": "uint16",
          "name": "poolID",
          "type": "uint16"
        },
        {
          "indexed": true,
          "internalType": "uint256",
          "name": "nftID",
          "type": "uint256"
        },
        {
          "indexed": false,
          "internalType": "int24",
          "name": "tickLower",
          "type": "int24"
        },
        {
          "indexed": false,
          "internalType": "int24",
          "name": "tickUpper",
          "type": "int24"
        },
        {
          "indexed": false,
          "internalType": "uint128",
          "name": "liquidity",
          "type": "uint128"
        }
      ],
      "name": "LiquidityPositionCreated",
      "type": "event"
    },
    {
      "anonymous": false,
      "inputs": [
        {
          "indexed": true,
          "internalType": "uint256",
          "name": "nftID",
          "type": "uint256"
        },
        {
          "indexed": false,
          "internalType": "uint256",
          "name": "amount0",
          "type": "uint256"
        },
        {
          "indexed": false,
          "internalType": "uint256",
          "name": "amount1",
          "type": "uint256"
        }
      ],
      "name": "LiquidityPositionDecreased",
      "type": "event"
    },
    {
      "anonymous": false,
      "inputs": [
        {
          "indexed": true,
          "internalType": "uint256",
          "name": "nftID",
          "type": "uint256"
        },
        {
          "indexed": false,
          "internalType": "uint128",
          "name": "liquidity",
          "type": "uint128"
        }
      ],
      "name": "LiquidityPositionIncreased",
      "type": "event"
    },
    {
      "anonymous": false,
      "inputs": [
        {
          "indexed": true,
          "internalType": "uint256",
          "name": "nftID",
          "type": "uint256"
        },
        {
          "indexed": true,
          "internalType": "address",
          "name": "liquidator",
          "type": "address"
        }
      ],
      "name": "LiquidityPositionLiquidated",
      "type": "event"
    },
    {
      "anonymous": false,
      "inputs": [
        {
          "indexed": true,
          "internalType": "uint256",
          "name": "nftID",
          "type": "uint256"
        },
        {
          "indexed": false,
          "internalType": "uint256",
          "name": "amount0",
          "type": "uint256"
        },
        {
          "indexed": false,
          "internalType": "uint256",
          "name": "amount1",
          "type": "uint256"
        }
      ],
      "name": "LiquidityPositionRemoved",
      "type": "event"
    },
    {
      "anonymous": false,
      "inputs": [
        {
          "indexed": false,
          "internalType": "uint64",
          "name": "decreasePortion",
          "type": "uint64"
        }
      ],
      "name": "MaxCollateralLiquidityDecreasePerPeriodUpdated",
      "type": "event"
    },
    {
      "anonymous": false,
      "inputs": [
        {
          "indexed": true,
          "internalType": "address",
          "name": "pool",
          "type": "address"
        },
        {
          "indexed": true,
          "internalType": "uint16",
          "name": "poolID",
          "type": "uint16"
        },
        {
          "indexed": false,
          "internalType": "uint64",
          "name": "rewardsPortion",
          "type": "uint64"
        }
      ],
      "name": "PoolAdded",
      "type": "event"
    },
    {
      "anonymous": false,
      "inputs": [
        {
          "indexed": true,
          "internalType": "uint16",
          "name": "poolID",
          "type": "uint16"
        },
        {
          "indexed": false,
          "internalType": "uint64",
          "name": "incentive",
          "type": "uint64"
        }
      ],
      "name": "PoolIncentiveUpdated",
      "type": "event"
    },
    {
      "anonymous": false,
      "inputs": [
        {
          "indexed": false,
          "internalType": "uint256",
          "name": "count",
          "type": "uint256"
        },
        {
          "indexed": false,
          "internalType": "uint64",
          "name": "periods",
          "type": "uint64"
        }
      ],
      "name": "RewardsAccrued",
      "type": "event"
    },
    {
      "anonymous": false,
      "inputs": [
        {
          "indexed": true,
          "internalType": "address",
          "name": "caller",
          "type": "address"
        },
        {
          "indexed": true,
          "internalType": "uint256",
          "name": "nftTokenID",
          "type": "uint256"
        },
        {
          "indexed": false,
          "internalType": "uint256",
          "name": "amount0",
          "type": "uint256"
        },
        {
          "indexed": false,
          "internalType": "uint256",
          "name": "amount1",
          "type": "uint256"
        }
      ],
      "name": "RewardsClaimed",
      "type": "event"
    },
    {
      "anonymous": false,
      "inputs": [
        {
          "indexed": true,
          "internalType": "address",
          "name": "account",
          "type": "address"
        },
        {
          "indexed": true,
          "internalType": "bool",
          "name": "isKickback",
          "type": "bool"
        },
        {
          "indexed": false,
          "internalType": "uint256",
          "name": "tcpRewards",
          "type": "uint256"
        }
      ],
      "name": "RewardsDistributed",
      "type": "event"
    },
    {
      "anonymous": false,
      "inputs": [],
      "name": "Stopped",
      "type": "event"
    },
    {
      "inputs": [],
      "name": "accounting",
      "outputs": [
        {
          "internalType": "contract IAccounting",
          "name": "",
          "type": "address"
        }
      ],
      "stateMutability": "view",
      "type": "function"
    },
    {
      "inputs": [],
      "name": "accrueRewards",
      "outputs": [],
      "stateMutability": "nonpayable",
      "type": "function"
    },
    {
      "inputs": [
        {
          "internalType": "contract CharmWrapper",
          "name": "pool",
          "type": "address"
        },
        {
          "internalType": "uint64",
          "name": "rewardsPortion",
          "type": "uint64"
        }
      ],
      "name": "addIncentivePool",
      "outputs": [],
      "stateMutability": "nonpayable",
      "type": "function"
    },
    {
      "inputs": [
        {
          "internalType": "uint16[]",
          "name": "poolIDs",
          "type": "uint16[]"
        },
        {
          "internalType": "uint32",
          "name": "ui",
          "type": "uint32"
        }
      ],
      "name": "claimAllRewards",
      "outputs": [],
      "stateMutability": "nonpayable",
      "type": "function"
    },
    {
      "inputs": [
        {
          "internalType": "uint16",
          "name": "poolID",
          "type": "uint16"
        },
        {
          "internalType": "uint32",
          "name": "ui",
          "type": "uint32"
        }
      ],
      "name": "claimRewards",
      "outputs": [],
      "stateMutability": "nonpayable",
      "type": "function"
    },
    {
      "inputs": [],
      "name": "countPools",
      "outputs": [
        {
          "internalType": "uint16",
          "name": "",
          "type": "uint16"
        }
      ],
      "stateMutability": "view",
      "type": "function"
    },
    {
      "inputs": [],
      "name": "currentPeriod",
      "outputs": [
        {
          "internalType": "uint64",
          "name": "period",
          "type": "uint64"
        }
      ],
      "stateMutability": "view",
      "type": "function"
    },
    {
      "inputs": [],
      "name": "deployer",
      "outputs": [
        {
          "internalType": "address",
          "name": "",
          "type": "address"
        }
      ],
      "stateMutability": "view",
      "type": "function"
    },
    {
      "inputs": [
        {
          "components": [
            {
              "internalType": "uint16",
              "name": "poolID",
              "type": "uint16"
            },
            {
              "internalType": "uint256",
              "name": "amount0Desired",
              "type": "uint256"
            },
            {
              "internalType": "uint256",
              "name": "amount1Desired",
              "type": "uint256"
            },
            {
              "internalType": "uint256",
              "name": "amount0Min",
              "type": "uint256"
            },
            {
              "internalType": "uint256",
              "name": "amount1Min",
              "type": "uint256"
            }
          ],
          "internalType": "struct Rewards.RewardsDepositParams",
          "name": "params",
          "type": "tuple"
        },
        {
          "internalType": "uint32",
          "name": "ui",
          "type": "uint32"
        }
      ],
      "name": "deposit",
      "outputs": [
        {
          "internalType": "uint128",
          "name": "liquidity",
          "type": "uint128"
        },
        {
          "internalType": "uint256",
          "name": "amount0",
          "type": "uint256"
        },
        {
          "internalType": "uint256",
          "name": "amount1",
          "type": "uint256"
        }
      ],
      "stateMutability": "payable",
      "type": "function"
    },
    {
      "inputs": [],
      "name": "firstPeriod",
      "outputs": [
        {
          "internalType": "uint64",
          "name": "",
          "type": "uint64"
        }
      ],
      "stateMutability": "view",
      "type": "function"
    },
    {
      "inputs": [
        {
          "internalType": "contract CharmWrapper",
          "name": "pool",
          "type": "address"
        }
      ],
      "name": "getMinLiquidityByPeriod",
      "outputs": [
        {
          "components": [
            {
              "internalType": "uint64",
              "name": "period",
              "type": "uint64"
            },
            {
              "internalType": "uint192",
              "name": "minLiquidity",
              "type": "uint192"
            }
          ],
          "internalType": "struct IRewards.MinLiquidityByPeriod",
          "name": "",
          "type": "tuple"
        }
      ],
      "stateMutability": "view",
      "type": "function"
    },
    {
      "inputs": [
        {
          "internalType": "uint16",
          "name": "poolID",
          "type": "uint16"
        }
      ],
      "name": "getPoolConfigForPoolID",
      "outputs": [
        {
          "components": [
            {
              "internalType": "contract CharmWrapper",
              "name": "pool",
              "type": "address"
            },
            {
              "internalType": "uint64",
              "name": "rewardsPortion",
              "type": "uint64"
            }
          ],
          "internalType": "struct IRewards.PoolConfig",
          "name": "",
          "type": "tuple"
        }
      ],
      "stateMutability": "view",
      "type": "function"
    },
    {
      "inputs": [],
      "name": "governor",
      "outputs": [
        {
          "internalType": "contract IGovernor",
          "name": "",
          "type": "address"
        }
      ],
      "stateMutability": "view",
      "type": "function"
    },
    {
      "inputs": [
        {
          "internalType": "contract CharmWrapper",
          "name": "_collateralPool",
          "type": "address"
        }
      ],
      "name": "init",
      "outputs": [],
      "stateMutability": "nonpayable",
      "type": "function"
    },
    {
      "inputs": [],
      "name": "lastPeriodGlobalRewardsAccrued",
      "outputs": [
        {
          "internalType": "uint64",
          "name": "",
          "type": "uint64"
        }
      ],
      "stateMutability": "view",
      "type": "function"
    },
    {
      "inputs": [],
      "name": "maxCollateralLiquidityDecreasePerPeriod",
      "outputs": [
        {
          "internalType": "uint64",
          "name": "",
          "type": "uint64"
        }
      ],
      "stateMutability": "view",
      "type": "function"
    },
    {
      "inputs": [
        {
          "internalType": "contract CharmWrapper",
          "name": "",
          "type": "address"
        }
      ],
      "name": "minLiquidityByPeriod",
      "outputs": [
        {
          "internalType": "uint64",
          "name": "period",
          "type": "uint64"
        },
        {
          "internalType": "uint192",
          "name": "minLiquidity",
          "type": "uint192"
        }
      ],
      "stateMutability": "view",
      "type": "function"
    },
    {
      "inputs": [],
      "name": "periodLength",
      "outputs": [
        {
          "internalType": "uint64",
          "name": "",
          "type": "uint64"
        }
      ],
      "stateMutability": "view",
      "type": "function"
    },
    {
      "inputs": [
        {
          "internalType": "contract CharmWrapper",
          "name": "",
          "type": "address"
        }
      ],
      "name": "poolIDForPool",
      "outputs": [
        {
          "internalType": "uint16",
          "name": "",
          "type": "uint16"
        }
      ],
      "stateMutability": "view",
      "type": "function"
    },
    {
      "inputs": [
        {
          "internalType": "uint16",
          "name": "poolID",
          "type": "uint16"
        }
      ],
      "name": "removeKickback",
      "outputs": [],
      "stateMutability": "nonpayable",
      "type": "function"
    },
    {
      "inputs": [
        {
          "internalType": "uint64",
          "name": "decreasePortion",
          "type": "uint64"
        }
      ],
      "name": "setMaxCollateralLiquidityDecreasePerPeriod",
      "outputs": [],
      "stateMutability": "nonpayable",
      "type": "function"
    },
    {
      "inputs": [],
      "name": "stop",
      "outputs": [],
      "stateMutability": "nonpayable",
      "type": "function"
    },
    {
      "inputs": [],
      "name": "stopped",
      "outputs": [
        {
          "internalType": "bool",
          "name": "",
          "type": "bool"
        }
      ],
      "stateMutability": "view",
      "type": "function"
    },
    {
      "inputs": [
        {
          "internalType": "uint16",
          "name": "poolID",
          "type": "uint16"
        },
        {
          "internalType": "uint64",
          "name": "incentive",
          "type": "uint64"
        }
      ],
      "name": "updatePoolIncentive",
      "outputs": [],
      "stateMutability": "nonpayable",
      "type": "function"
    },
    {
      "inputs": [
        {
          "internalType": "bytes4",
          "name": "",
          "type": "bytes4"
        }
      ],
      "name": "validUpdate",
      "outputs": [
        {
          "internalType": "bool",
          "name": "",
          "type": "bool"
        }
      ],
      "stateMutability": "view",
      "type": "function"
    },
    {
      "inputs": [],
      "name": "weth",
      "outputs": [
        {
          "internalType": "address",
          "name": "",
          "type": "address"
        }
      ],
      "stateMutability": "view",
      "type": "function"
    },
    {
      "inputs": [
        {
          "components": [
            {
              "internalType": "uint16",
              "name": "poolID",
              "type": "uint16"
            },
            {
              "internalType": "uint128",
              "name": "liquidity",
              "type": "uint128"
            },
            {
              "internalType": "uint256",
              "name": "amount0Min",
              "type": "uint256"
            },
            {
              "internalType": "uint256",
              "name": "amount1Min",
              "type": "uint256"
            }
          ],
          "internalType": "struct Rewards.RewardsWithdrawParams",
          "name": "params",
          "type": "tuple"
        },
        {
          "internalType": "uint32",
          "name": "ui",
          "type": "uint32"
        }
      ],
      "name": "withdraw",
      "outputs": [
        {
          "internalType": "uint256",
          "name": "amount0",
          "type": "uint256"
        },
        {
          "internalType": "uint256",
          "name": "amount1",
          "type": "uint256"
        }
      ],
      "stateMutability": "nonpayable",
      "type": "function"
    },
    {
      "stateMutability": "payable",
      "type": "receive"
    }
  ],
  "bytecode": "0x6101406040526001600260005090905567016345785d8a0000600360006101000a81548167ffffffffffffffff021916908367ffffffffffffffff1602179055506000600360086101000a81548161ffff021916908361ffff1602179055503480156200006c5760006000fd5b50604051620059cd380380620059cd83398181016040528101906200009291906200048b565b5b603c5b816000015182602001515b815b8073ffffffffffffffffffffffffffffffffffffffff1660808173ffffffffffffffffffffffffffffffffffffffff16815260200150505b508073ffffffffffffffffffffffffffffffffffffffff1660a08173ffffffffffffffffffffffffffffffffffffffff16815260200150505b505060018162000129620003e760201b60201c565b6200013591906200054e565b62000141919062000589565b67ffffffffffffffff1660e08167ffffffffffffffff16815260200150508067ffffffffffffffff1660c08167ffffffffffffffff16815260200150505b50806040015173ffffffffffffffffffffffffffffffffffffffff166101208173ffffffffffffffffffffffffffffffffffffffff1681526020015050806060015173ffffffffffffffffffffffffffffffffffffffff166101008173ffffffffffffffffffffffffffffffffffffffff168152602001505060006040518060600160405280636161189060e01b7bffffffffffffffffffffffffffffffffffffffffffffffffffffffff19167bffffffffffffffffffffffffffffffffffffffffffffffffffffffff191681526020016328d10de860e01b7bffffffffffffffffffffffffffffffffffffffffffffffffffffffff19167bffffffffffffffffffffffffffffffffffffffffffffffffffffffff1916815260200163c7bd867c60e01b7bffffffffffffffffffffffffffffffffffffffffffffffffffffffff19167bffffffffffffffffffffffffffffffffffffffffffffffffffffffff191681526020015090506000600090505b815060038110156200039c5760016001600050600084846003811015156200031d576200031c620005bd565b5b60200201517bffffffffffffffffffffffffffffffffffffffffffffffffffffffff19167bffffffffffffffffffffffffffffffffffffffffffffffffffffffff1916815260200190815260200160002060006101000a81548160ff0219169083151502179055505b80806200039390620005d5565b915050620002f0565b5033600760086101000a81548173ffffffffffffffffffffffffffffffffffffffff021916908373ffffffffffffffffffffffffffffffffffffffff160217905550505b5062000639565b600062000401426200040960201b62001e8417909060201c565b905080505b90565b600068010000000000000000821015156200045b576040517f08c379a00000000000000000000000000000000000000000000000000000000081526004016200045290620005f9565b60405180910390fd5b81905062000464565b9190505662000638565b6001600160a01b03811681141515620004875760006000fd5b505b565b6000608082840312156200049f5760006000fd5b604051608081018181106001600160401b0382111715620004d057634e487b7160e01b600052604160045260246000fd5b80604052508251620004e2816200046e565b808252506020830151620004f6816200046e565b8060208301525060408301516200050d816200046e565b80604083015250606083015162000524816200046e565b80606083015250809150505b92915050565b634e487b7160e01b600052601160045260246000fd5b565b60006001600160401b038084168015156200057957634e487b7160e01b600052601260045260246000fd5b8082851604925050505b92915050565b60006001600160401b03808316818516915081811015620005af57620005ae62000536565b5b818103925050505b92915050565b634e487b7160e01b600052603260045260246000fd5b565b6000600019821415620005ed57620005ec62000536565b5b6001820190505b919050565b60208152601160208201527f6d6f7265207468616e2036342062697473000000000000000000000000000000604082015260006060820190505b919050565b5b60805160a05160c05160e05161010051610120516152796200075460003960008181610b0801528181610c14015281816111a0015281816112d6015281816113b90152818161165f0152818161194501528181611b6f01528181611cfc01528181612236015281816124f201528181612f8e01528181613641015281816136de01526137530152600081816101b801528181611512015281816122f2015261235201526000818161198301528181611ee4015261397d015260008181611a8201528181611f05015261399e015260008181611ffa01526126a101526000818161076b015281816110f201528181611f53015281816120e501528181612c15015281816130c1015281816131c3015261389f01526152796000f3fe6080604052600436106101b05760003560e01c80635dafb260116100ec578063c4e3a63b1161008a578063d5f3948811610064578063d5f3948814610673578063e00796961461069f578063ec63b940146106c9578063fbe6eb9b146106f357610249565b8063c4e3a63b146105f1578063c7bd867c1461061d578063d2ca21151461064757610249565b80636fcdfed6116100c65780636fcdfed61461054157806375f12b211461056d5780639624e83e14610599578063bdd266cd146105c557610249565b80635dafb260146104af57806361611890146104d957806363371e701461050357610249565b806319ab453c1161015957806329435c561161013357806329435c56146103c75780633fc8cef31461040657806349447c00146104325780634b8295731461047157610249565b806319ab453c1461035b5780631afdbce41461038557806328d10de81461039d57610249565b80630dae9f521161018a5780630dae9f52146102bf578063113cf1ab146102eb5780631412cc7c1461032957610249565b8063060406181461024f57806307da68f51461027b5780630c340a241461029357610249565b36610249575b7f000000000000000000000000000000000000000000000000000000000000000073ffffffffffffffffffffffffffffffffffffffff163373ffffffffffffffffffffffffffffffffffffffff16141515610246576040517f08c379a000000000000000000000000000000000000000000000000000000000815260040161023d90613f1c565b60405180910390fd5b5b005b60006000fd5b34801561025c5760006000fd5b50610265610731565b6040516102729190613f6d565b60405180910390f35b3480156102885760006000fd5b50610291610749565b005b3480156102a05760006000fd5b506102a9610769565b6040516102b69190613f89565b60405180910390f35b3480156102cc5760006000fd5b506102d561078d565b6040516102e29190613f6d565b60405180910390f35b3480156102f85760006000fd5b50610313600480360381019061030e9190613fb1565b6107a7565b6040516103209190614002565b60405180910390f35b610343600480360381019061033e9190614044565b6107cc565b60405161035293929190614087565b60405180910390f35b3480156103685760006000fd5b50610383600480360381019061037e91906140e2565b610cc1565b005b3480156103925760006000fd5b5061039b610da7565b005b3480156103aa5760006000fd5b506103c560048036038101906103c09190614147565b610de4565b005b3480156103d45760006000fd5b506103ef60048036038101906103ea9190614181565b610eee565b6040516103fd9291906141c4565b60405180910390f35b3480156104135760006000fd5b5061041c611510565b60405161042991906141fb565b60405180910390f35b34801561043f5760006000fd5b5061045a600480360381019061045591906140e2565b611534565b604051610468929190614223565b60405180910390f35b34801561047e5760006000fd5b50610499600480360381019061049491906140e2565b611593565b6040516104a69190614260565b60405180910390f35b3480156104bc5760006000fd5b506104d760048036038101906104d29190614276565b6115b9565b005b3480156104e65760006000fd5b5061050160048036038101906104fc919061429b565b611704565b005b3480156105105760006000fd5b5061052b600480360381019061052691906140e2565b611821565b60405161053891906142d9565b60405180910390f35b34801561054e5760006000fd5b5061055761191c565b6040516105649190614260565b60405180910390f35b34801561057a5760006000fd5b50610583611930565b6040516105909190614002565b60405180910390f35b3480156105a65760006000fd5b506105af611943565b6040516105bc919061431a565b60405180910390f35b3480156105d25760006000fd5b506105db611967565b6040516105e89190613f6d565b60405180910390f35b3480156105fe5760006000fd5b50610607611981565b6040516106149190613f6d565b60405180910390f35b34801561062a5760006000fd5b5061064560048036038101906106409190614342565b6119a5565b005b3480156106545760006000fd5b5061065d611a80565b60405161066a9190613f6d565b60405180910390f35b3480156106805760006000fd5b50610689611aa4565b60405161069691906141fb565b60405180910390f35b3480156106ac5760006000fd5b506106c760048036038101906106c2919061436b565b611aca565b005b3480156106d65760006000fd5b506106f160048036038101906106ec919061445f565b611c15565b005b3480156107005760006000fd5b5061071b60048036038101906107169190614276565b611db9565b604051610728919061452f565b60405180910390f35b6000610741611ee063ffffffff16565b905080505b90565b610757611f4e63ffffffff16565b610765611fae63ffffffff16565b5b5b565b7f000000000000000000000000000000000000000000000000000000000000000081565b600760009054906101000a900467ffffffffffffffff1681565b600160005060205280600052604060002060009150909054906101000a900460ff1681565b6000600060006107e0611ff863ffffffff16565b6107ee6120d563ffffffff16565b61080f8560000160208101906108049190614276565b6121b863ffffffff16565b60006004600050600087600001602081019061082b9190614276565b61ffff1661ffff1681526020019081526020016000206000506040518060400160405290816000820160009054906101000a900473ffffffffffffffffffffffffffffffffffffffff1673ffffffffffffffffffffffffffffffffffffffff1673ffffffffffffffffffffffffffffffffffffffff1681526020016000820160149054906101000a900467ffffffffffffffff1667ffffffffffffffff1667ffffffffffffffff1681526020015050905060006108f233836000015161222963ffffffff16565b905061097c33836000015173ffffffffffffffffffffffffffffffffffffffff16630dfe16816040518163ffffffff1660e01b8152600401602060405180830381865afa158015610948573d600060003e3d6000fd5b505050506040513d601f19601f8201168201806040525081019061096c919061456c565b89602001356122f063ffffffff16565b610a0433836000015173ffffffffffffffffffffffffffffffffffffffff1663d21220a76040518163ffffffff1660e01b8152600401602060405180830381865afa1580156109d0573d600060003e3d6000fd5b505050506040513d601f19601f820116820180604052508101906109f4919061456c565b89604001356122f063ffffffff16565b816000015173ffffffffffffffffffffffffffffffffffffffff1663365d0ed7886020013589604001358a606001358b60800135306040518663ffffffff1660e01b8152600401610a59959493929190614595565b6060604051808303816000875af1158015610a79573d600060003e3d6000fd5b505050506040513d601f19601f82011682018060405250810190610a9d9190614613565b809550819650829750505050858160c0019063ffffffff16908163ffffffff16815260200150508481608001818151610ad69190614680565b9150906fffffffffffffffffffffffffffffffff1690816fffffffffffffffffffffffffffffffff16815260200150507f000000000000000000000000000000000000000000000000000000000000000073ffffffffffffffffffffffffffffffffffffffff16631428561d8360000151876040518363ffffffff1660e01b8152600401610b659291906146bb565b600060405180830381600087803b158015610b805760006000fd5b505af1158015610b95573d600060003e3d6000fd5b50505050600161ffff16876000016020810190610bb29190614276565b61ffff16148015610bea5750670de0b6b3a7640000600360009054906101000a900467ffffffffffffffff1667ffffffffffffffff16105b15610c0357610c0282600001516123f163ffffffff16565b5b4381606001909081815260200150507f000000000000000000000000000000000000000000000000000000000000000073ffffffffffffffffffffffffffffffffffffffff16635374a6da338460000151846040518463ffffffff1660e01b8152600401610c739392919061470a565b600060405180830381600087803b158015610c8e5760006000fd5b505af1158015610ca3573d600060003e3d6000fd5b5050505050505b5b610cb961269263ffffffff16565b5b9250925092565b610d20600760089054906101000a900473ffffffffffffffffffffffffffffffffffffffff1673ffffffffffffffffffffffffffffffffffffffff163373ffffffffffffffffffffffffffffffffffffffff161461272463ffffffff16565b600760086101000a81549073ffffffffffffffffffffffffffffffffffffffff0219169055600161ffff16610d5d82610bb861276a63ffffffff16565b61ffff16141515610da3576040517f08c379a0000000000000000000000000000000000000000000000000000000008152600401610d9a906147d4565b60405180910390fd5b5b50565b610db5611ff863ffffffff16565b610dc3612b2363ffffffff16565b610dd1612b7863ffffffff16565b5b5b610de161269263ffffffff16565b5b565b610df2611f4e63ffffffff16565b610e01826121b863ffffffff16565b610e0f612b7863ffffffff16565b80600460005060008461ffff1661ffff16815260200190815260200160002060005060000160146101000a81548167ffffffffffffffff021916908367ffffffffffffffff1602179055506000610e6a612de663ffffffff16565b111515610eac576040517f08c379a0000000000000000000000000000000000000000000000000000000008152600401610ea390614813565b60405180910390fd5b8161ffff167fcf476913af040a8c0a50588902fc980c73de756444694afb625e05906334404f82604051610ee09190613f6d565b60405180910390a25b5b5050565b60006000610f00611ff863ffffffff16565b610f0e612b2363ffffffff16565b610f2f846000016020810190610f249190614276565b6121b863ffffffff16565b600060046000506000866000016020810190610f4b9190614276565b61ffff1661ffff1681526020019081526020016000206000506040518060400160405290816000820160009054906101000a900473ffffffffffffffffffffffffffffffffffffffff1673ffffffffffffffffffffffffffffffffffffffff1673ffffffffffffffffffffffffffffffffffffffff1681526020016000820160149054906101000a900467ffffffffffffffff1667ffffffffffffffff1667ffffffffffffffff16815260200150509050600061101233836000015161222963ffffffff16565b90506110278160600151612e8963ffffffff16565b848160c0019063ffffffff16908163ffffffff16815260200150508560200160208101906110559190614852565b81608001818151611066919061487b565b9150906fffffffffffffffffffffffffffffffff1690816fffffffffffffffffffffffffffffffff16815260200150506000600161ffff168760000160208101906110b19190614276565b61ffff161480156110e95750670de0b6b3a7640000600360009054906101000a900467ffffffffffffffff1667ffffffffffffffff16105b801561118257507f000000000000000000000000000000000000000000000000000000000000000073ffffffffffffffffffffffffffffffffffffffff1663bf86d6906040518163ffffffff1660e01b8152600401602060405180830381865afa15801561115c573d600060003e3d6000fd5b505050506040513d601f19601f8201168201806040525081019061118091906148b5565b155b9050801561119e5761119d83600001516123f163ffffffff16565b5b7f000000000000000000000000000000000000000000000000000000000000000073ffffffffffffffffffffffffffffffffffffffff1663530c1ccb84600001518960200160208101906111f29190614852565b6040518363ffffffff1660e01b815260040161120f9291906146bb565b600060405180830381600087803b15801561122a5760006000fd5b505af115801561123f573d600060003e3d6000fd5b5050505080156113b75760066000506000846000015173ffffffffffffffffffffffffffffffffffffffff1673ffffffffffffffffffffffffffffffffffffffff16815260200190815260200160002060005060000160089054906101000a900477ffffffffffffffffffffffffffffffffffffffffffffffff1677ffffffffffffffffffffffffffffffffffffffffffffffff167f000000000000000000000000000000000000000000000000000000000000000073ffffffffffffffffffffffffffffffffffffffff1663a135ef1785600001516040518263ffffffff1660e01b815260040161133191906148e6565b602060405180830381865afa15801561134f573d600060003e3d6000fd5b505050506040513d601f19601f82011682018060405250810190611373919061490e565b101515156113b6576040517f08c379a00000000000000000000000000000000000000000000000000000000081526004016113ad9061492c565b60405180910390fd5b5b7f000000000000000000000000000000000000000000000000000000000000000073ffffffffffffffffffffffffffffffffffffffff16635374a6da338560000151856040518463ffffffff1660e01b81526004016114189392919061470a565b600060405180830381600087803b1580156114335760006000fd5b505af1158015611448573d600060003e3d6000fd5b50505050826000015173ffffffffffffffffffffffffffffffffffffffff166326c9324c88602001602081019061147f9190614852565b89604001358a60600135336040518563ffffffff1660e01b81526004016114a9949392919061496b565b6040604051808303816000875af11580156114c9573d600060003e3d6000fd5b505050506040513d601f19601f820116820180604052508101906114ed91906149ba565b80955081965050505050505b5b61150861269263ffffffff16565b5b9250929050565b7f000000000000000000000000000000000000000000000000000000000000000081565b60066000506020528060005260406000206000915090508060000160009054906101000a900467ffffffffffffffff16908060000160089054906101000a900477ffffffffffffffffffffffffffffffffffffffffffffffff16905082565b600560005060205280600052604060002060009150909054906101000a900461ffff1681565b6115c7611ff863ffffffff16565b6115d56120d563ffffffff16565b6115e4816121b863ffffffff16565b6000600460005060008361ffff1661ffff16815260200190815260200160002060005060000160009054906101000a900473ffffffffffffffffffffffffffffffffffffffff169050600061163f338361222963ffffffff16565b905060008160c0019063ffffffff16908163ffffffff16815260200150507f000000000000000000000000000000000000000000000000000000000000000073ffffffffffffffffffffffffffffffffffffffff16635374a6da3384846040518463ffffffff1660e01b81526004016116ba9392919061470a565b600060405180830381600087803b1580156116d55760006000fd5b505af11580156116ea573d600060003e3d6000fd5b5050505050505b5b61170061269263ffffffff16565b5b50565b611712611f4e63ffffffff16565b6000600560005060008473ffffffffffffffffffffffffffffffffffffffff1673ffffffffffffffffffffffffffffffffffffffff16815260200190815260200160002060009054906101000a900461ffff1661ffff161415156117ab576040517f08c379a00000000000000000000000000000000000000000000000000000000081526004016117a2906149e2565b60405180910390fd5b6117b9612b7863ffffffff16565b6117c9828261276a63ffffffff16565b61ffff168273ffffffffffffffffffffffffffffffffffffffff167fb42c51dce17f5346a481b9dd503edc20c8b6de38b22e12b35a5c77c131fb38ac836040516118139190613f6d565b60405180910390a35b5b5050565b611829613df3565b600660005060008373ffffffffffffffffffffffffffffffffffffffff1673ffffffffffffffffffffffffffffffffffffffff1681526020019081526020016000206000506040518060400160405290816000820160009054906101000a900467ffffffffffffffff1667ffffffffffffffff1667ffffffffffffffff1681526020016000820160089054906101000a900477ffffffffffffffffffffffffffffffffffffffffffffffff1677ffffffffffffffffffffffffffffffffffffffffffffffff1677ffffffffffffffffffffffffffffffffffffffffffffffff16815260200150509050611917565b919050565b600360089054906101000a900461ffff1681565b600060009054906101000a900460ff1681565b7f000000000000000000000000000000000000000000000000000000000000000081565b600360009054906101000a900467ffffffffffffffff1681565b7f000000000000000000000000000000000000000000000000000000000000000081565b6119b3611f4e63ffffffff16565b80600360006101000a81548167ffffffffffffffff021916908367ffffffffffffffff160217905550600360009054906101000a900467ffffffffffffffff1667ffffffffffffffff166000101515611a0c5760006000fd5b670de0b6b3a7640000600360009054906101000a900467ffffffffffffffff1667ffffffffffffffff1611151515611a445760006000fd5b7f41785a43e8509555b296851de25b00003ca4ca1c572c807cb301d4a0fb9582d481604051611a739190613f6d565b60405180910390a15b5b50565b7f000000000000000000000000000000000000000000000000000000000000000081565b600760089054906101000a900473ffffffffffffffffffffffffffffffffffffffff1681565b611ad8611ff863ffffffff16565b611ae6612b2363ffffffff16565b611af5826121b863ffffffff16565b6000600460005060008461ffff1661ffff16815260200190815260200160002060005060000160009054906101000a900473ffffffffffffffffffffffffffffffffffffffff1690506000611b50338361222963ffffffff16565b9050828160c0019063ffffffff16908163ffffffff16815260200150507f000000000000000000000000000000000000000000000000000000000000000073ffffffffffffffffffffffffffffffffffffffff16635374a6da3384846040518463ffffffff1660e01b8152600401611bca9392919061470a565b600060405180830381600087803b158015611be55760006000fd5b505af1158015611bfa573d600060003e3d6000fd5b5050505050505b5b611c1061269263ffffffff16565b5b5050565b611c23611ff863ffffffff16565b611c31612b2363ffffffff16565b600082519050611c3f613e34565b600060006000600090505b84811015611d9f578681815181101515611c6757611c66614a21565b5b602002602001015192508250611c82836121b863ffffffff16565b600460005060008461ffff1661ffff16815260200190815260200160002060005060000160009054906101000a900473ffffffffffffffffffffffffffffffffffffffff1691508150611cdb338361222963ffffffff16565b93508350858460c0019063ffffffff16908163ffffffff16815260200150507f000000000000000000000000000000000000000000000000000000000000000073ffffffffffffffffffffffffffffffffffffffff16635374a6da3384876040518463ffffffff1660e01b8152600401611d579392919061470a565b600060405180830381600087803b158015611d725760006000fd5b505af1158015611d87573d600060003e3d6000fd5b505050505b8080611d9790614a52565b915050611c4a565b50505050505b5b611db461269263ffffffff16565b5b5050565b611dc1613edb565b600460005060008361ffff1661ffff1681526020019081526020016000206000506040518060400160405290816000820160009054906101000a900473ffffffffffffffffffffffffffffffffffffffff1673ffffffffffffffffffffffffffffffffffffffff1673ffffffffffffffffffffffffffffffffffffffff1681526020016000820160149054906101000a900467ffffffffffffffff1667ffffffffffffffff1667ffffffffffffffff16815260200150509050611e7f565b919050565b60006801000000000000000082101515611ed3576040517f08c379a0000000000000000000000000000000000000000000000000000000008152600401611eca90614a91565b60405180910390fd5b819050611edb565b919050565b60007f00000000000000000000000000000000000000000000000000000000000000007f0000000000000000000000000000000000000000000000000000000000000000611f32612ed163ffffffff16565b611f3c9190614b01565b611f469190614b2f565b905080505b90565b611fab7f000000000000000000000000000000000000000000000000000000000000000073ffffffffffffffffffffffffffffffffffffffff163373ffffffffffffffffffffffffffffffffffffffff161461272463ffffffff16565b5b565b6001600060006101000a81548160ff0219169083151502179055507f7acc84e34091ae817647a4c49116f5cc07f319078ba80f8f5fde37ea7e25cbd660405160405180910390a15b565b7f000000000000000000000000000000000000000000000000000000000000000073ffffffffffffffffffffffffffffffffffffffff1663e97dcb626040518163ffffffff1660e01b8152600401600060405180830381600087803b1580156120615760006000fd5b505af1158015612076573d600060003e3d6000fd5b505050506002600260005054141515156120c5576040517f08c379a00000000000000000000000000000000000000000000000000000000081526004016120bc90614b61565b60405180910390fd5b600260026000508190909055505b565b6120e3612b2363ffffffff16565b7f000000000000000000000000000000000000000000000000000000000000000073ffffffffffffffffffffffffffffffffffffffff1663bf86d6906040518163ffffffff1660e01b8152600401602060405180830381865afa15801561214f573d600060003e3d6000fd5b505050506040513d601f19601f8201168201806040525081019061217391906148b5565b1515156121b5576040517f08c379a00000000000000000000000000000000000000000000000000000000081526004016121ac90614ba0565b60405180910390fd5b5b565b8061ffff1660001080156121e45750600360089054906101000a900461ffff1661ffff168161ffff1611155b1515612225576040517f08c379a000000000000000000000000000000000000000000000000000000000815260040161221c90614bdf565b60405180910390fd5b5b50565b612231613e34565b6122de7f000000000000000000000000000000000000000000000000000000000000000073ffffffffffffffffffffffffffffffffffffffff1663c32bfdaa85856040518363ffffffff1660e01b815260040161228f929190614c1e565b61012060405180830381865afa1580156122ae573d600060003e3d6000fd5b505050506040513d601f19601f820116820180604052508101906122d29190614c90565b83612eec63ffffffff16565b905080508090506122ea565b92915050565b7f000000000000000000000000000000000000000000000000000000000000000073ffffffffffffffffffffffffffffffffffffffff168273ffffffffffffffffffffffffffffffffffffffff1614801561234b5750804710155b156123d8577f000000000000000000000000000000000000000000000000000000000000000073ffffffffffffffffffffffffffffffffffffffff1663d0e30db0826040518263ffffffff1660e01b81526004016000604051808303818588803b1580156123b95760006000fd5b505af11580156123ce573d600060003e3d6000fd5b50505050506123eb565b6123ea828430846132c363ffffffff16565b5b5b505050565b6000603c610e106124029190614b01565b612410611ee063ffffffff16565b61241a9190614b01565b90508067ffffffffffffffff16600660005060008473ffffffffffffffffffffffffffffffffffffffff1673ffffffffffffffffffffffffffffffffffffffff16815260200190815260200160002060005060000160009054906101000a900467ffffffffffffffff1667ffffffffffffffff16101561268d5760405180604001604052808267ffffffffffffffff1681526020016125a66125996124f0600360009054906101000a900467ffffffffffffffff1667ffffffffffffffff16670de0b6b3a764000061335390919063ffffffff16565b7f000000000000000000000000000000000000000000000000000000000000000073ffffffffffffffffffffffffffffffffffffffff1663a135ef17886040518263ffffffff1660e01b815260040161254991906148e6565b602060405180830381865afa158015612567573d600060003e3d6000fd5b505050506040513d601f19601f8201168201806040525081019061258b919061490e565b61336e90919063ffffffff16565b613394909063ffffffff16565b77ffffffffffffffffffffffffffffffffffffffffffffffff16815260200150600660005060008473ffffffffffffffffffffffffffffffffffffffff1673ffffffffffffffffffffffffffffffffffffffff16815260200190815260200160002060005060008201518160000160006101000a81548167ffffffffffffffff021916908367ffffffffffffffff16021790555060208201518160000160086101000a81548177ffffffffffffffffffffffffffffffffffffffffffffffff021916908377ffffffffffffffffffffffffffffffffffffffffffffffff1602179055509050505b505b50565b600160026000508190909055507f000000000000000000000000000000000000000000000000000000000000000073ffffffffffffffffffffffffffffffffffffffff1663e9fad8ee6040518163ffffffff1660e01b8152600401600060405180830381600087803b1580156127085760006000fd5b505af115801561271d573d600060003e3d6000fd5b505050505b565b801515612766576040517f08c379a000000000000000000000000000000000000000000000000000000000815260040161275d90614d37565b60405180910390fd5b5b50565b60006000600560005060008573ffffffffffffffffffffffffffffffffffffffff1673ffffffffffffffffffffffffffffffffffffffff16815260200190815260200160002060009054906101000a900461ffff1661ffff16141515612805576040517f08c379a00000000000000000000000000000000000000000000000000000000081526004016127fc90614d76565b60405180910390fd5b61ffff61ffff166003600881819054906101000a900461ffff1661282890614db5565b91906101000a81548161ffff021916908361ffff160217905561ffff161015156128525760006000fd5b600360089054906101000a900461ffff169050805060405180604001604052808473ffffffffffffffffffffffffffffffffffffffff1681526020018367ffffffffffffffff16815260200150600460005060008361ffff1661ffff16815260200190815260200160002060005060008201518160000160006101000a81548173ffffffffffffffffffffffffffffffffffffffff021916908373ffffffffffffffffffffffffffffffffffffffff16021790555060208201518160000160146101000a81548167ffffffffffffffff021916908367ffffffffffffffff16021790555090505080600560005060008573ffffffffffffffffffffffffffffffffffffffff1673ffffffffffffffffffffffffffffffffffffffff16815260200190815260200160002060006101000a81548161ffff021916908361ffff160217905550612a368373ffffffffffffffffffffffffffffffffffffffff16630dfe16816040518163ffffffff1660e01b8152600401602060405180830381865afa1580156129e5573d600060003e3d6000fd5b505050506040513d601f19601f82011682018060405250810190612a09919061456c565b847fffffffffffffffffffffffffffffffffffffffffffffffffffffffffffffffff61340063ffffffff16565b612ad68373ffffffffffffffffffffffffffffffffffffffff1663d21220a76040518163ffffffff1660e01b8152600401602060405180830381865afa158015612a85573d600060003e3d6000fd5b505050506040513d601f19601f82011682018060405250810190612aa9919061456c565b847fffffffffffffffffffffffffffffffffffffffffffffffffffffffffffffffff61340063ffffffff16565b612b0783847fffffffffffffffffffffffffffffffffffffffffffffffffffffffffffffffff61340063ffffffff16565b612b15612b7863ffffffff16565b809050612b1d565b92915050565b600060009054906101000a900460ff16151515612b75576040517f08c379a0000000000000000000000000000000000000000000000000000000008152600401612b6c90614ddc565b60405180910390fd5b5b565b6000612b8861348d63ffffffff16565b9050600760009054906101000a900467ffffffffffffffff1667ffffffffffffffff168167ffffffffffffffff16111515612bc35750612de4565b6000600760009054906101000a900467ffffffffffffffff1682612be79190614b2f565b90506000603c62015180612bfb9190614b01565b67ffffffffffffffff16612cb38367ffffffffffffffff167f000000000000000000000000000000000000000000000000000000000000000073ffffffffffffffffffffffffffffffffffffffff166318c7de176040518163ffffffff1660e01b81526004016020604051808303816000875af1158015612c81573d600060003e3d6000fd5b505050506040513d601f19601f82011682018060405250810190612ca5919061490e565b6134b590919063ffffffff16565b612cbd9190614e1b565b90506000600360089054906101000a900461ffff16905060006000612ce6612de663ffffffff16565b90506001915081505b8261ffff168261ffff16111515612d7b57612d6782612d5b600460005060008661ffff1661ffff16815260200190815260200160002060005060000160149054906101000a900467ffffffffffffffff1667ffffffffffffffff1684886134d09092919063ffffffff16565b876135f463ffffffff16565b5b8180612d7390614db5565b925050612cef565b85600760006101000a81548167ffffffffffffffff021916908367ffffffffffffffff1602179055507f095a67d1e9698fe0eebf9cff79a22f6423cebcb4e386a0bdd7e12330d86381ed8486604051612dd5929190614e39565b60405180910390a15050505050505b565b60006000600190505b600360089054906101000a900461ffff1661ffff168161ffff16111515612e7d57612e65600460005060008361ffff1661ffff16815260200190815260200160002060005060000160149054906101000a900467ffffffffffffffff1667ffffffffffffffff168361386c90919063ffffffff16565b915081505b8080612e7590614db5565b915050612def565b50809050612e86565b90565b4381101515612ecd576040517f08c379a0000000000000000000000000000000000000000000000000000000008152600401612ec490614e5c565b60405180910390fd5b5b50565b6000612ee442611e84909063ffffffff16565b905080505b90565b612ef4613e34565b6000612f0461388763ffffffff16565b90506000612f178261397663ffffffff16565b905060008560a001519050600060008267ffffffffffffffff1614612f4a57612f458261397663ffffffff16565b612f4d565b60005b90508067ffffffffffffffff168367ffffffffffffffff16111515612f7857869450505050506132bd565b612f86612b7863ffffffff16565b6000613033887f000000000000000000000000000000000000000000000000000000000000000073ffffffffffffffffffffffffffffffffffffffff16631cef92b18a6040518263ffffffff1660e01b8152600401612fe591906148e6565b604060405180830381865afa158015613003573d600060003e3d6000fd5b505050506040513d601f19601f820116820180604052508101906130279190614e9b565b876139ea63ffffffff16565b809250819750505060008111156132ab57600073ffffffffffffffffffffffffffffffffffffffff168660e0015173ffffffffffffffffffffffffffffffffffffffff16141580156130945750600086610100015167ffffffffffffffff16115b156131c15760006130bd87610100015167ffffffffffffffff168361336e90919063ffffffff16565b90507f000000000000000000000000000000000000000000000000000000000000000073ffffffffffffffffffffffffffffffffffffffff16634d6729f58860e00151836040518363ffffffff1660e01b815260040161311e929190614ef0565b600060405180830381600087803b1580156131395760006000fd5b505af115801561314e573d600060003e3d6000fd5b50505050600115158760e0015173ffffffffffffffffffffffffffffffffffffffff167f8079a05488a0f375c08504c3ba8b3a1371f5a192b7a141bc9294ef7ad41389d9836040516131a09190614f1f565b60405180910390a36131bb818361335390919063ffffffff16565b91508150505b7f000000000000000000000000000000000000000000000000000000000000000073ffffffffffffffffffffffffffffffffffffffff16634d6729f58760000151836040518363ffffffff1660e01b8152600401613220929190614ef0565b600060405180830381600087803b15801561323b5760006000fd5b505af1158015613250573d600060003e3d6000fd5b5050505060001515866000015173ffffffffffffffffffffffffffffffffffffffff167f8079a05488a0f375c08504c3ba8b3a1371f5a192b7a141bc9294ef7ad41389d9836040516132a29190614f1f565b60405180910390a35b85955050505050506132bd5650505050505b92915050565b61334c846323b872dd60e01b8585856040516024016132e493929190614f31565b604051602081830303815290604052907bffffffffffffffffffffffffffffffffffffffffffffffffffffffff19166020820180517bffffffffffffffffffffffffffffffffffffffffffffffffffffffff8381831617835250505050613b2163ffffffff16565b5b50505050565b600081836133619190614f6b565b9050613368565b92915050565b60006133898383670de0b6b3a76400006134d063ffffffff16565b905080505b92915050565b60007801000000000000000000000000000000000000000000000000821015156133f3576040517f08c379a00000000000000000000000000000000000000000000000000000000081526004016133ea90614f8a565b60405180910390fd5b8190506133fb565b919050565b6134878363095ea7b360e01b848460405160240161341f929190614ef0565b604051602081830303815290604052907bffffffffffffffffffffffffffffffffffffffffffffffffffffffff19166020820180517bffffffffffffffffffffffffffffffffffffffffffffffffffffffff8381831617835250505050613b2163ffffffff16565b5b505050565b60006134ab6134a061388763ffffffff16565b61397663ffffffff16565b90506134b2565b90565b600081836134c39190614fc9565b90506134ca565b92915050565b6000600060006000198587098587029250828110838203039150506000811415613513576000841115156135045760006000fd5b838204925082925050506135ed565b80841115156135225760006000fd5b60008486880990508281118203915080830392506000856001877fffffffffffffffffffffffffffffffffffffffffffffffffffffffffffffffff0301169050805080860495508084049350600181826000030401905080830284179350835060006002876003021890508087026002038102905080508087026002038102905080508087026002038102905080508087026002038102905080508087026002038102905080508087026002038102905080508085029550855050849450505050506135ed56505050505b9392505050565b6000600460005060008561ffff1661ffff16815260200190815260200160002060005060000160009054906101000a900473ffffffffffffffffffffffffffffffffffffffff16905060007f000000000000000000000000000000000000000000000000000000000000000073ffffffffffffffffffffffffffffffffffffffff16631cef92b1836040518263ffffffff1660e01b815260040161369891906148e6565b604060405180830381865afa1580156136b6573d600060003e3d6000fd5b505050506040513d601f19601f820116820180604052508101906136da9190614e9b565b90507f000000000000000000000000000000000000000000000000000000000000000073ffffffffffffffffffffffffffffffffffffffff166396122a5c83604051806040016040528061373b89876000015161386c90919063ffffffff16565b815260200161380d6137fa8967ffffffffffffffff167f000000000000000000000000000000000000000000000000000000000000000073ffffffffffffffffffffffffffffffffffffffff1663a135ef178b6040518263ffffffff1660e01b81526004016137aa91906148e6565b602060405180830381865afa1580156137c8573d600060003e3d6000fd5b505050506040513d601f19601f820116820180604052508101906137ec919061490e565b6134b590919063ffffffff16565b876020015161386c90919063ffffffff16565b8152602001506040518363ffffffff1660e01b815260040161383092919061500e565b600060405180830381600087803b15801561384b5760006000fd5b505af1158015613860573d600060003e3d6000fd5b5050505050505b505050565b6000818361387a9190615048565b9050613881565b92915050565b60006000613899612ed163ffffffff16565b905060007f000000000000000000000000000000000000000000000000000000000000000073ffffffffffffffffffffffffffffffffffffffff1663585690816040518163ffffffff1660e01b8152600401602060405180830381865afa158015613909573d600060003e3d6000fd5b505050506040513d601f19601f8201168201806040525081019061392d9190615068565b90508067ffffffffffffffff16600010801561395c57508167ffffffffffffffff168167ffffffffffffffff16105b6139665781613968565b805b925050506139735650505b90565b60006139e07f00000000000000000000000000000000000000000000000000000000000000007f0000000000000000000000000000000000000000000000000000000000000000846139c89190614b01565b67ffffffffffffffff16613bee90919063ffffffff16565b905080505b919050565b6139f2613e34565b60008491508150600082608001516fffffffffffffffffffffffffffffffff161115613ac557613ac0613a3c8360a001518567ffffffffffffffff16613bee90919063ffffffff16565b67ffffffffffffffff16603c67ffffffffffffffff16613ab1613a708660400151896000015161335390919063ffffffff16565b613a8b87602001518a6020015161335390919063ffffffff16565b87608001516fffffffffffffffffffffffffffffffff166134d09092919063ffffffff16565b6134d09092919063ffffffff16565b905080505b8360000151826040019090818152602001505083602001518260200190908181526020015050828260a0019067ffffffffffffffff16908167ffffffffffffffff1681526020015050818191509150613b19565b935093915050565b6000613b86826040518060400160405280602081526020017f5361666545524332303a206c6f772d6c6576656c2063616c6c206661696c65648152602001508573ffffffffffffffffffffffffffffffffffffffff16613c099092919063ffffffff16565b9050600081511115613be85780806020019051810190613ba691906148b5565b1515613be7576040517f08c379a0000000000000000000000000000000000000000000000000000000008152600401613bde90615091565b60405180910390fd5b5b505b5050565b60008183613bfc9190614b2f565b9050613c03565b92915050565b6060613c1e8484600085613c2c63ffffffff16565b9050613c25565b9392505050565b6060824710151515613c73576040517f08c379a0000000000000000000000000000000000000000000000000000000008152600401613c6a906150f6565b60405180910390fd5b613c8285613d5863ffffffff16565b1515613cc3576040517f08c379a0000000000000000000000000000000000000000000000000000000008152600401613cba9061515b565b60405180910390fd5b600060008673ffffffffffffffffffffffffffffffffffffffff168587604051613ced91906151cf565b60006040518083038185875af1925050503d8060008114613d2a576040519150601f19603f3d011682016040523d82523d6000602084013e613d2f565b606091505b5091509150613d45828286613d8163ffffffff16565b92505050613d505650505b949350505050565b600060008273ffffffffffffffffffffffffffffffffffffffff163b119050613d7c565b919050565b60608315613d9557829050613dec56613deb565b600083511115613dad5782518084602001fd50613dea565b816040517f08c379a0000000000000000000000000000000000000000000000000000000008152600401613de191906151ee565b60405180910390fd5b5b5b9392505050565b6040518060400160405280600067ffffffffffffffff168152602001600077ffffffffffffffffffffffffffffffffffffffffffffffff1681526020015090565b604051806101200160405280600073ffffffffffffffffffffffffffffffffffffffff16815260200160008152602001600081526020016000815260200160006fffffffffffffffffffffffffffffffff168152602001600067ffffffffffffffff168152602001600063ffffffff168152602001600073ffffffffffffffffffffffffffffffffffffffff168152602001600067ffffffffffffffff1681526020015090565b6040518060400160405280600073ffffffffffffffffffffffffffffffffffffffff168152602001600067ffffffffffffffff168152602001509056615242565b60208152601d60208201527f446f6573206e6f742061636365707420657468206469726563746c792e000000604082015260006060820190505b919050565b67ffffffffffffffff8116825250505b565b600060208201905067ffffffffffffffff831682525b92915050565b600060208201905073ffffffffffffffffffffffffffffffffffffffff831682525b92915050565b600060208284031215613fc45760006000fd5b81357fffffffff00000000000000000000000000000000000000000000000000000000811681141515613ff75760006000fd5b809150505b92915050565b600060208201905082151582525b92915050565b63ffffffff81168114151561402b5760006000fd5b505b565b60008135905061403e81614016565b5b919050565b6000600082840360c081121561405a5760006000fd5b60a08112156140695760006000fd5b5082915060a083013561407b81614016565b809150505b9250929050565b60006060820190506fffffffffffffffffffffffffffffffff851682528360208301528260408301525b949350505050565b73ffffffffffffffffffffffffffffffffffffffff8116811415156140de5760006000fd5b505b565b6000602082840312156140f55760006000fd5b8135614100816140b9565b809150505b92915050565b60008135905061ffff8116811415156141245760006000fd5b5b919050565b67ffffffffffffffff8116811415156141435760006000fd5b505b565b600060006040838503121561415c5760006000fd5b6141658361410b565b915060208301356141758161412a565b809150505b9250929050565b6000600082840360a08112156141975760006000fd5b60808112156141a65760006000fd5b5082915060808301356141b881614016565b809150505b9250929050565b60006040820190508382528260208301525b9392505050565b73ffffffffffffffffffffffffffffffffffffffff8116825250505b565b600060208201905073ffffffffffffffffffffffffffffffffffffffff831682525b92915050565b600060408201905067ffffffffffffffff8416825277ffffffffffffffffffffffffffffffffffffffffffffffff831660208301525b9392505050565b600060208201905061ffff831682525b92915050565b6000602082840312156142895760006000fd5b6142928261410b565b90505b92915050565b60006000604083850312156142b05760006000fd5b82356142bb816140b9565b8092505060208301356142cd8161412a565b809150505b9250929050565b600060408201905067ffffffffffffffff835116825277ffffffffffffffffffffffffffffffffffffffffffffffff60208401511660208301525b92915050565b600060208201905073ffffffffffffffffffffffffffffffffffffffff831682525b92915050565b6000602082840312156143555760006000fd5b81356143608161412a565b809150505b92915050565b60006000604083850312156143805760006000fd5b6143898361410b565b9150602083013561439981614016565b809150505b9250929050565b7f4e487b7100000000000000000000000000000000000000000000000000000000600052604160045260246000fd5b565b60006040519050610120810181811067ffffffffffffffff821117156143ff576143fe6143a5565b5b80604052505b90565b600060405190507fffffffffffffffffffffffffffffffffffffffffffffffffffffffffffffffe0601f830116810181811067ffffffffffffffff82111715614454576144536143a5565b5b80604052505b919050565b60006000604083850312156144745760006000fd5b823567ffffffffffffffff8082111561448d5760006000fd5b818501915085601f83011215156144a45760006000fd5b81356020828211156144b9576144b86143a5565b5b8160051b92506144ca818401614408565b80838252828201915082858701019450898511156144e85760006000fd5b82860195505b84861015614511576144ff8661410b565b825282820191505b82860195506144ee565b809750505061452181880161402f565b9450505050505b9250929050565b600060408201905073ffffffffffffffffffffffffffffffffffffffff835116825267ffffffffffffffff60208401511660208301525b92915050565b60006020828403121561457f5760006000fd5b815161458a816140b9565b809150505b92915050565b600060a08201905086825285602083015284604083015283606083015273ffffffffffffffffffffffffffffffffffffffff831660808301525b9695505050505050565b6fffffffffffffffffffffffffffffffff8116811415156145fa5760006000fd5b505b565b60008151905061460d816145d9565b5b919050565b6000600060006060848603121561462a5760006000fd5b8351614635816145d9565b8093505060208401519150604084015190505b9250925092565b7f4e487b7100000000000000000000000000000000000000000000000000000000600052601160045260246000fd5b565b60006fffffffffffffffffffffffffffffffff8083168185168083038211156146ac576146ab61464f565b5b80820193505050505b92915050565b600060408201905073ffffffffffffffffffffffffffffffffffffffff841682526fffffffffffffffffffffffffffffffff831660208301525b9392505050565b63ffffffff8116825250505b565b60006101608201905073ffffffffffffffffffffffffffffffffffffffff80861683528085166020840152808451166040840152506020830151606083015260408301516080830152606083015160a08301526fffffffffffffffffffffffffffffffff60808401511660c083015260a083015161478b60e0840182613f5b565b5060c08301516101006147a0818501836146fc565b60e085015191506147b56101208501836141dd565b808501519150506147ca610140840182613f5b565b505b949350505050565b60208152600760208201527f496e76616c696400000000000000000000000000000000000000000000000000604082015260006060820190505b919050565b60208152601460208201527f496e63656e7469766520746f74616c2069732030000000000000000000000000604082015260006060820190505b919050565b6000602082840312156148655760006000fd5b8135614870816145d9565b809150505b92915050565b60006fffffffffffffffffffffffffffffffff8083168185169150818110156148a7576148a661464f565b5b818103925050505b92915050565b6000602082840312156148c85760006000fd5b8151801515811415156148db5760006000fd5b809150505b92915050565b600060208201905073ffffffffffffffffffffffffffffffffffffffff831682525b92915050565b6000602082840312156149215760006000fd5b815190505b92915050565b60208152601c60208201527f4d617820706572696f6420776974686472617720657863656564656400000000604082015260006060820190505b919050565b60006080820190506fffffffffffffffffffffffffffffffff8616825284602083015283604083015273ffffffffffffffffffffffffffffffffffffffff831660608301525b95945050505050565b60006000604083850312156149cf5760006000fd5b82519150602083015190505b9250929050565b60208152600b60208201527f506f6f6c20657869737473000000000000000000000000000000000000000000604082015260006060820190505b919050565b7f4e487b7100000000000000000000000000000000000000000000000000000000600052603260045260246000fd5b565b60007fffffffffffffffffffffffffffffffffffffffffffffffffffffffffffffffff821415614a8557614a8461464f565b5b6001820190505b919050565b60208152601160208201527f6d6f7265207468616e2036342062697473000000000000000000000000000000604082015260006060820190505b919050565b7f4e487b7100000000000000000000000000000000000000000000000000000000600052601260045260246000fd5b565b600067ffffffffffffffff808416801515614b1f57614b1e614ad0565b5b8082851604925050505b92915050565b600067ffffffffffffffff808316818516915081811015614b5357614b5261464f565b5b818103925050505b92915050565b60208152600d60208201527f4c50205265656e7472616e637900000000000000000000000000000000000000604082015260006060820190505b919050565b60208152601160208201527f50726f746f636f6c2073687574646f776e000000000000000000000000000000604082015260006060820190505b919050565b60208152600e60208201527f496e76616c696420706f6f6c4944000000000000000000000000000000000000604082015260006060820190505b919050565b600060408201905073ffffffffffffffffffffffffffffffffffffffff80851683528084166020840152505b9392505050565b600081519050614c60816140b9565b5b919050565b600081519050614c758161412a565b5b919050565b600081519050614c8a81614016565b5b919050565b60006101208284031215614ca45760006000fd5b614cac6143d6565b614cb583614c51565b8152602083015160208201526040830151604082015260608301516060820152614ce1608084016145fe565b6080820152614cf260a08401614c66565b60a0820152614d0360c08401614c7b565b60c0820152614d1460e08401614c51565b60e0820152610100614d27818501614c66565b8183015250809150505b92915050565b60208152600e60208201527f4e6f7420417574686f72697a6564000000000000000000000000000000000000604082015260006060820190505b919050565b60208152601260208201527f416c726561647920726567697374657265640000000000000000000000000000604082015260006060820190505b919050565b600061ffff80831681811415614dce57614dcd61464f565b5b60018101925050505b919050565b60208152601360208201527f436f6e74726163742069732073746f7070656400000000000000000000000000604082015260006060820190505b919050565b6000821515614e2d57614e2c614ad0565b5b82820490505b92915050565b600060408201905083825267ffffffffffffffff831660208301525b9392505050565b60208152601260208201527f4e6f20666c617368206c69717569646974790000000000000000000000000000604082015260006060820190505b919050565b600060408284031215614eae5760006000fd5b6040516040810181811067ffffffffffffffff82111715614ed257614ed16143a5565b5b80604052508251815260208301516020820152809150505b92915050565b600060408201905073ffffffffffffffffffffffffffffffffffffffff841682528260208301525b9392505050565b60006020820190508282525b92915050565b600060608201905073ffffffffffffffffffffffffffffffffffffffff80861683528085166020840152508260408301525b949350505050565b600082821015614f7e57614f7d61464f565b5b82820390505b92915050565b60208152601260208201527f6d6f7265207468616e2031393220626974730000000000000000000000000000604082015260006060820190505b919050565b6000817fffffffffffffffffffffffffffffffffffffffffffffffffffffffffffffffff04831182151516156150025761500161464f565b5b82820290505b92915050565b600060608201905073ffffffffffffffffffffffffffffffffffffffff8416825282516020830152602083015160408301525b9392505050565b6000821982111561505c5761505b61464f565b5b82820190505b92915050565b60006020828403121561507b5760006000fd5b81516150868161412a565b809150505b92915050565b60208152602a60208201527f5361666545524332303a204552433230206f7065726174696f6e20646964206e60408201527f6f74207375636365656400000000000000000000000000000000000000000000606082015260006080820190505b919050565b60208152602660208201527f416464726573733a20696e73756666696369656e742062616c616e636520666f60408201527f722063616c6c0000000000000000000000000000000000000000000000000000606082015260006080820190505b919050565b60208152601d60208201527f416464726573733a2063616c6c20746f206e6f6e2d636f6e7472616374000000604082015260006060820190505b919050565b60005b838110156151b95780820151818401525b60208101905061519d565b838111156151c8576000848401525b505050505b565b600082516151e181846020870161519a565b8083019150505b92915050565b602081526000825180602084015261520d81604085016020870161519a565b60407fffffffffffffffffffffffffffffffffffffffffffffffffffffffffffffffe0601f8301168401019150505b92915050565bfea2646970667358221220dca9e5c29b7b68265b618e308ff88ef0e1873f8d8ecbd4d7df0582e0ada3443864736f6c634300080c0033",
  "linkReferences": {},
  "deployedLinkReferences": {}
}