{
  "_format": "hh-sol-artifact-1",
  "contractName": "Rewards",
  "sourceName": "contracts/core/logic/Rewards.sol",
  "abi": [
    {
      "inputs": [
        {
          "components": [
            {
              "internalType": "contract IGovernor",
              "name": "Governor",
              "type": "address"
            },
            {
              "internalType": "contract IProtocolLock",
              "name": "ProtocolLock",
              "type": "address"
            },
            {
              "internalType": "contract IAccounting",
              "name": "Accounting",
              "type": "address"
            },
            {
              "internalType": "address",
              "name": "Weth",
              "type": "address"
            },
            {
              "internalType": "contract INonfungiblePositionManager",
              "name": "NftPositionManager",
              "type": "address"
            },
            {
              "internalType": "contract IUniswapV3Factory",
              "name": "UniswapV3Factory",
              "type": "address"
            }
          ],
          "internalType": "struct IRewards.ConstructorParams",
          "name": "params",
          "type": "tuple"
        }
      ],
      "stateMutability": "nonpayable",
      "type": "constructor"
    },
    {
      "anonymous": false,
      "inputs": [
        {
          "indexed": false,
          "internalType": "uint64",
          "name": "penalty",
          "type": "uint64"
        }
      ],
      "name": "LiquidationPenaltyUpdated",
      "type": "event"
    },
    {
      "anonymous": false,
      "inputs": [
        {
          "indexed": true,
          "internalType": "address",
          "name": "owner",
          "type": "address"
        },
        {
          "indexed": true,
          "internalType": "uint16",
          "name": "poolID",
          "type": "uint16"
        },
        {
          "indexed": true,
          "internalType": "uint256",
          "name": "nftID",
          "type": "uint256"
        },
        {
          "indexed": false,
          "internalType": "int24",
          "name": "tickLower",
          "type": "int24"
        },
        {
          "indexed": false,
          "internalType": "int24",
          "name": "tickUpper",
          "type": "int24"
        },
        {
          "indexed": false,
          "internalType": "uint128",
          "name": "liquidity",
          "type": "uint128"
        }
      ],
      "name": "LiquidityPositionCreated",
      "type": "event"
    },
    {
      "anonymous": false,
      "inputs": [
        {
          "indexed": true,
          "internalType": "uint256",
          "name": "nftID",
          "type": "uint256"
        },
        {
          "indexed": false,
          "internalType": "uint256",
          "name": "amount0",
          "type": "uint256"
        },
        {
          "indexed": false,
          "internalType": "uint256",
          "name": "amount1",
          "type": "uint256"
        }
      ],
      "name": "LiquidityPositionDecreased",
      "type": "event"
    },
    {
      "anonymous": false,
      "inputs": [
        {
          "indexed": true,
          "internalType": "uint256",
          "name": "nftID",
          "type": "uint256"
        },
        {
          "indexed": false,
          "internalType": "uint128",
          "name": "liquidity",
          "type": "uint128"
        }
      ],
      "name": "LiquidityPositionIncreased",
      "type": "event"
    },
    {
      "anonymous": false,
      "inputs": [
        {
          "indexed": true,
          "internalType": "uint256",
          "name": "nftID",
          "type": "uint256"
        },
        {
          "indexed": true,
          "internalType": "address",
          "name": "liquidator",
          "type": "address"
        }
      ],
      "name": "LiquidityPositionLiquidated",
      "type": "event"
    },
    {
      "anonymous": false,
      "inputs": [
        {
          "indexed": true,
          "internalType": "uint256",
          "name": "nftID",
          "type": "uint256"
        },
        {
          "indexed": false,
          "internalType": "uint256",
          "name": "amount0",
          "type": "uint256"
        },
        {
          "indexed": false,
          "internalType": "uint256",
          "name": "amount1",
          "type": "uint256"
        }
      ],
      "name": "LiquidityPositionRemoved",
      "type": "event"
    },
    {
      "anonymous": false,
      "inputs": [
        {
          "indexed": false,
          "internalType": "uint64",
          "name": "decreasePortion",
          "type": "uint64"
        }
      ],
      "name": "MaxCollateralLiquidityDecreasePerPeriodUpdated",
      "type": "event"
    },
    {
      "anonymous": false,
      "inputs": [
        {
          "indexed": false,
          "internalType": "uint128",
          "name": "min",
          "type": "uint128"
        }
      ],
      "name": "MinHueCountPerPositionUpdated",
      "type": "event"
    },
    {
      "anonymous": false,
      "inputs": [
        {
          "indexed": true,
          "internalType": "address",
          "name": "pool",
          "type": "address"
        },
        {
          "indexed": true,
          "internalType": "uint16",
          "name": "poolID",
          "type": "uint16"
        },
        {
          "indexed": false,
          "internalType": "uint64",
          "name": "rewardsPortion",
          "type": "uint64"
        }
      ],
      "name": "PoolAdded",
      "type": "event"
    },
    {
      "anonymous": false,
      "inputs": [
        {
          "indexed": true,
          "internalType": "uint16",
          "name": "poolID",
          "type": "uint16"
        },
        {
          "indexed": false,
          "internalType": "uint64",
          "name": "incentive",
          "type": "uint64"
        }
      ],
      "name": "PoolIncentiveUpdated",
      "type": "event"
    },
    {
      "anonymous": false,
      "inputs": [
        {
          "indexed": false,
          "internalType": "uint256",
          "name": "count",
          "type": "uint256"
        },
        {
          "indexed": false,
          "internalType": "uint64",
          "name": "periods",
          "type": "uint64"
        }
      ],
      "name": "RewardsAccrued",
      "type": "event"
    },
    {
      "anonymous": false,
      "inputs": [
        {
          "indexed": true,
          "internalType": "address",
          "name": "caller",
          "type": "address"
        },
        {
          "indexed": true,
          "internalType": "uint256",
          "name": "nftTokenID",
          "type": "uint256"
        },
        {
          "indexed": false,
          "internalType": "uint256",
          "name": "amount0",
          "type": "uint256"
        },
        {
          "indexed": false,
          "internalType": "uint256",
          "name": "amount1",
          "type": "uint256"
        }
      ],
      "name": "RewardsClaimed",
      "type": "event"
    },
    {
      "anonymous": false,
      "inputs": [
        {
          "indexed": true,
          "internalType": "address",
          "name": "account",
          "type": "address"
        },
        {
          "indexed": true,
          "internalType": "bool",
          "name": "isKickback",
          "type": "bool"
        },
        {
          "indexed": false,
          "internalType": "uint256",
          "name": "tcpRewards",
          "type": "uint256"
        }
      ],
      "name": "RewardsDistributed",
      "type": "event"
    },
    {
      "anonymous": false,
      "inputs": [],
      "name": "Stopped",
      "type": "event"
    },
    {
      "anonymous": false,
      "inputs": [
        {
          "indexed": false,
          "internalType": "uint64",
          "name": "duration",
          "type": "uint64"
        }
      ],
      "name": "TwapDurationUpdated",
      "type": "event"
    },
    {
      "inputs": [],
      "name": "accounting",
      "outputs": [
        {
          "internalType": "contract IAccounting",
          "name": "",
          "type": "address"
        }
      ],
      "stateMutability": "view",
      "type": "function"
    },
    {
      "inputs": [],
      "name": "accrueRewards",
      "outputs": [],
      "stateMutability": "nonpayable",
      "type": "function"
    },
    {
      "inputs": [
        {
          "internalType": "contract IUniswapV3Pool",
          "name": "pool",
          "type": "address"
        },
        {
          "internalType": "uint64",
          "name": "rewardsPortion",
          "type": "uint64"
        }
      ],
      "name": "addIncentivePool",
      "outputs": [],
      "stateMutability": "nonpayable",
      "type": "function"
    },
    {
      "inputs": [
        {
          "internalType": "uint256[]",
          "name": "nftTokenIDs",
          "type": "uint256[]"
        },
        {
          "internalType": "uint32",
          "name": "ui",
          "type": "uint32"
        }
      ],
      "name": "claimAllRewards",
      "outputs": [
        {
          "internalType": "uint256",
          "name": "totalAmount0",
          "type": "uint256"
        },
        {
          "internalType": "uint256",
          "name": "totalAmount1",
          "type": "uint256"
        }
      ],
      "stateMutability": "nonpayable",
      "type": "function"
    },
    {
      "inputs": [],
      "name": "countPools",
      "outputs": [
        {
          "internalType": "uint16",
          "name": "",
          "type": "uint16"
        }
      ],
      "stateMutability": "view",
      "type": "function"
    },
    {
      "inputs": [
        {
          "components": [
            {
              "internalType": "address",
              "name": "token0",
              "type": "address"
            },
            {
              "internalType": "address",
              "name": "token1",
              "type": "address"
            },
            {
              "internalType": "uint24",
              "name": "fee",
              "type": "uint24"
            },
            {
              "internalType": "int24",
              "name": "tickLower",
              "type": "int24"
            },
            {
              "internalType": "int24",
              "name": "tickUpper",
              "type": "int24"
            },
            {
              "internalType": "uint256",
              "name": "amount0Desired",
              "type": "uint256"
            },
            {
              "internalType": "uint256",
              "name": "amount1Desired",
              "type": "uint256"
            },
            {
              "internalType": "uint256",
              "name": "amount0Min",
              "type": "uint256"
            },
            {
              "internalType": "uint256",
              "name": "amount1Min",
              "type": "uint256"
            },
            {
              "internalType": "address",
              "name": "recipient",
              "type": "address"
            },
            {
              "internalType": "uint256",
              "name": "deadline",
              "type": "uint256"
            }
          ],
          "internalType": "struct INonfungiblePositionManager.MintParams",
          "name": "params",
          "type": "tuple"
        },
        {
          "internalType": "uint32",
          "name": "ui",
          "type": "uint32"
        }
      ],
      "name": "createLiquidityPosition",
      "outputs": [
        {
          "internalType": "uint256",
          "name": "nftTokenID",
          "type": "uint256"
        },
        {
          "internalType": "uint128",
          "name": "liquidity",
          "type": "uint128"
        }
      ],
      "stateMutability": "payable",
      "type": "function"
    },
    {
      "inputs": [],
      "name": "currentPeriod",
      "outputs": [
        {
          "internalType": "uint64",
          "name": "period",
          "type": "uint64"
        }
      ],
      "stateMutability": "view",
      "type": "function"
    },
    {
      "inputs": [
        {
          "components": [
            {
              "internalType": "uint256",
              "name": "tokenId",
              "type": "uint256"
            },
            {
              "internalType": "uint128",
              "name": "liquidity",
              "type": "uint128"
            },
            {
              "internalType": "uint256",
              "name": "amount0Min",
              "type": "uint256"
            },
            {
              "internalType": "uint256",
              "name": "amount1Min",
              "type": "uint256"
            },
            {
              "internalType": "uint256",
              "name": "deadline",
              "type": "uint256"
            }
          ],
          "internalType": "struct INonfungiblePositionManager.DecreaseLiquidityParams",
          "name": "params",
          "type": "tuple"
        },
        {
          "internalType": "uint32",
          "name": "ui",
          "type": "uint32"
        }
      ],
      "name": "decreaseLiquidityPosition",
      "outputs": [
        {
          "internalType": "uint256",
          "name": "amount0",
          "type": "uint256"
        },
        {
          "internalType": "uint256",
          "name": "amount1",
          "type": "uint256"
        }
      ],
      "stateMutability": "nonpayable",
      "type": "function"
    },
    {
      "inputs": [],
      "name": "deployer",
      "outputs": [
        {
          "internalType": "address",
          "name": "",
          "type": "address"
        }
      ],
      "stateMutability": "view",
      "type": "function"
    },
    {
      "inputs": [],
      "name": "firstPeriod",
      "outputs": [
        {
          "internalType": "uint64",
          "name": "",
          "type": "uint64"
        }
      ],
      "stateMutability": "view",
      "type": "function"
    },
    {
      "inputs": [
        {
          "internalType": "uint16",
          "name": "poolID",
          "type": "uint16"
        }
      ],
      "name": "getPoolConfigForPoolID",
      "outputs": [
        {
          "components": [
            {
              "internalType": "contract IUniswapV3Pool",
              "name": "pool",
              "type": "address"
            },
            {
              "internalType": "uint64",
              "name": "rewardsPortion",
              "type": "uint64"
            }
          ],
          "internalType": "struct IRewards.PoolConfig",
          "name": "poolConfig",
          "type": "tuple"
        }
      ],
      "stateMutability": "view",
      "type": "function"
    },
    {
      "inputs": [],
      "name": "governor",
      "outputs": [
        {
          "internalType": "contract IGovernor",
          "name": "",
          "type": "address"
        }
      ],
      "stateMutability": "view",
      "type": "function"
    },
    {
      "inputs": [
        {
          "components": [
            {
              "internalType": "uint256",
              "name": "tokenId",
              "type": "uint256"
            },
            {
              "internalType": "uint256",
              "name": "amount0Desired",
              "type": "uint256"
            },
            {
              "internalType": "uint256",
              "name": "amount1Desired",
              "type": "uint256"
            },
            {
              "internalType": "uint256",
              "name": "amount0Min",
              "type": "uint256"
            },
            {
              "internalType": "uint256",
              "name": "amount1Min",
              "type": "uint256"
            },
            {
              "internalType": "uint256",
              "name": "deadline",
              "type": "uint256"
            }
          ],
          "internalType": "struct INonfungiblePositionManager.IncreaseLiquidityParams",
          "name": "params",
          "type": "tuple"
        },
        {
          "internalType": "uint32",
          "name": "ui",
          "type": "uint32"
        }
      ],
      "name": "increaseLiquidityPosition",
      "outputs": [
        {
          "internalType": "uint128",
          "name": "liquidity",
          "type": "uint128"
        }
      ],
      "stateMutability": "payable",
      "type": "function"
    },
    {
      "inputs": [
        {
          "internalType": "contract IUniswapV3Pool",
          "name": "_collateralPool",
          "type": "address"
        },
        {
          "internalType": "contract IUniswapV3Pool",
          "name": "_protocolPool",
          "type": "address"
        }
      ],
      "name": "init",
      "outputs": [],
      "stateMutability": "nonpayable",
      "type": "function"
    },
    {
      "inputs": [],
      "name": "lastPeriodGlobalRewardsAccrued",
      "outputs": [
        {
          "internalType": "uint64",
          "name": "",
          "type": "uint64"
        }
      ],
      "stateMutability": "view",
      "type": "function"
    },
    {
      "inputs": [
        {
          "internalType": "contract IUniswapV3Pool",
          "name": "pool",
          "type": "address"
        },
        {
          "internalType": "uint256[]",
          "name": "nftTokenIDs",
          "type": "uint256[]"
        }
      ],
      "name": "liquidateOutofRangePositions",
      "outputs": [],
      "stateMutability": "nonpayable",
      "type": "function"
    },
    {
      "inputs": [],
      "name": "liquidationPenalty",
      "outputs": [
        {
          "internalType": "uint64",
          "name": "",
          "type": "uint64"
        }
      ],
      "stateMutability": "view",
      "type": "function"
    },
    {
      "inputs": [],
      "name": "maxCollateralLiquidityDecreasePerPeriod",
      "outputs": [
        {
          "internalType": "uint64",
          "name": "",
          "type": "uint64"
        }
      ],
      "stateMutability": "view",
      "type": "function"
    },
    {
      "inputs": [
        {
          "internalType": "contract IUniswapV3Pool",
          "name": "",
          "type": "address"
        }
      ],
      "name": "minCollateralLiquidityByPeriod",
      "outputs": [
        {
          "internalType": "uint64",
          "name": "period",
          "type": "uint64"
        },
        {
          "internalType": "uint192",
          "name": "minLiquidity",
          "type": "uint192"
        }
      ],
      "stateMutability": "view",
      "type": "function"
    },
    {
      "inputs": [],
      "name": "minHueCountPerPosition",
      "outputs": [
        {
          "internalType": "uint128",
          "name": "",
          "type": "uint128"
        }
      ],
      "stateMutability": "view",
      "type": "function"
    },
    {
      "inputs": [],
      "name": "nftPositionManager",
      "outputs": [
        {
          "internalType": "contract INonfungiblePositionManager",
          "name": "",
          "type": "address"
        }
      ],
      "stateMutability": "view",
      "type": "function"
    },
    {
      "inputs": [],
      "name": "periodLength",
      "outputs": [
        {
          "internalType": "uint64",
          "name": "",
          "type": "uint64"
        }
      ],
      "stateMutability": "view",
      "type": "function"
    },
    {
      "inputs": [
        {
          "internalType": "contract IUniswapV3Pool",
          "name": "",
          "type": "address"
        }
      ],
      "name": "poolIDForPool",
      "outputs": [
        {
          "internalType": "uint16",
          "name": "",
          "type": "uint16"
        }
      ],
      "stateMutability": "view",
      "type": "function"
    },
    {
      "inputs": [
        {
          "internalType": "uint256",
          "name": "nftTokenID",
          "type": "uint256"
        }
      ],
      "name": "removeKickback",
      "outputs": [],
      "stateMutability": "nonpayable",
      "type": "function"
    },
    {
      "inputs": [
        {
          "components": [
            {
              "internalType": "uint256",
              "name": "tokenId",
              "type": "uint256"
            },
            {
              "internalType": "uint128",
              "name": "liquidity",
              "type": "uint128"
            },
            {
              "internalType": "uint256",
              "name": "amount0Min",
              "type": "uint256"
            },
            {
              "internalType": "uint256",
              "name": "amount1Min",
              "type": "uint256"
            },
            {
              "internalType": "uint256",
              "name": "deadline",
              "type": "uint256"
            }
          ],
          "internalType": "struct INonfungiblePositionManager.DecreaseLiquidityParams",
          "name": "params",
          "type": "tuple"
        }
      ],
      "name": "removeLiquidityPosition",
      "outputs": [
        {
          "internalType": "uint256",
          "name": "amount0",
          "type": "uint256"
        },
        {
          "internalType": "uint256",
          "name": "amount1",
          "type": "uint256"
        }
      ],
      "stateMutability": "nonpayable",
      "type": "function"
    },
    {
      "inputs": [
        {
          "internalType": "uint64",
          "name": "penalty",
          "type": "uint64"
        }
      ],
      "name": "setLiquidationPenalty",
      "outputs": [],
      "stateMutability": "nonpayable",
      "type": "function"
    },
    {
      "inputs": [
        {
          "internalType": "uint64",
          "name": "decreasePortion",
          "type": "uint64"
        }
      ],
      "name": "setMaxCollateralLiquidityDecreasePerPeriod",
      "outputs": [],
      "stateMutability": "nonpayable",
      "type": "function"
    },
    {
      "inputs": [
        {
          "internalType": "uint128",
          "name": "min",
          "type": "uint128"
        }
      ],
      "name": "setMinHueCountPerPosition",
      "outputs": [],
      "stateMutability": "nonpayable",
      "type": "function"
    },
    {
      "inputs": [
        {
          "internalType": "uint32",
          "name": "duration",
          "type": "uint32"
        }
      ],
      "name": "setTwapDuration",
      "outputs": [],
      "stateMutability": "nonpayable",
      "type": "function"
    },
    {
      "inputs": [],
      "name": "stop",
      "outputs": [],
      "stateMutability": "nonpayable",
      "type": "function"
    },
    {
      "inputs": [],
      "name": "stopped",
      "outputs": [
        {
          "internalType": "bool",
          "name": "",
          "type": "bool"
        }
      ],
      "stateMutability": "view",
      "type": "function"
    },
    {
      "inputs": [],
      "name": "twapDuration",
      "outputs": [
        {
          "internalType": "uint32",
          "name": "",
          "type": "uint32"
        }
      ],
      "stateMutability": "view",
      "type": "function"
    },
    {
      "inputs": [],
      "name": "uniswapV3Factory",
      "outputs": [
        {
          "internalType": "contract IUniswapV3Factory",
          "name": "",
          "type": "address"
        }
      ],
      "stateMutability": "view",
      "type": "function"
    },
    {
      "inputs": [
        {
          "internalType": "uint16",
          "name": "poolID",
          "type": "uint16"
        },
        {
          "internalType": "uint64",
          "name": "incentive",
          "type": "uint64"
        }
      ],
      "name": "updatePoolIncentive",
      "outputs": [],
      "stateMutability": "nonpayable",
      "type": "function"
    },
    {
      "inputs": [
        {
          "internalType": "bytes4",
          "name": "",
          "type": "bytes4"
        }
      ],
      "name": "validUpdate",
      "outputs": [
        {
          "internalType": "bool",
          "name": "",
          "type": "bool"
        }
      ],
      "stateMutability": "view",
      "type": "function"
    },
    {
      "inputs": [],
      "name": "weth",
      "outputs": [
        {
          "internalType": "address",
          "name": "",
          "type": "address"
        }
      ],
      "stateMutability": "view",
      "type": "function"
    },
    {
      "stateMutability": "payable",
      "type": "receive"
    }
  ],
  "bytecode": "0x6101806040526001600260005090905567016345785d8a0000600360006101000a81548167ffffffffffffffff021916908367ffffffffffffffff16021790555066d529ae9e860000600360086101000a81548167ffffffffffffffff021916908367ffffffffffffffff16021790555068056bc75e2d63100000600360106101000a8154816fffffffffffffffffffffffffffffffff02191690836fffffffffffffffffffffffffffffffff160217905550610708600460006101000a81548163ffffffff021916908363ffffffff1602179055506000600460046101000a81548161ffff021916908361ffff160217905550348015620001015760006000fd5b5060405162007f7238038062007f728339818101604052810190620001279190620006b7565b5b6138405b816000015182602001515b815b8073ffffffffffffffffffffffffffffffffffffffff1660808173ffffffffffffffffffffffffffffffffffffffff1660601b815260140150505b508073ffffffffffffffffffffffffffffffffffffffff1660a08173ffffffffffffffffffffffffffffffffffffffff1660601b815260140150505b505060018167ffffffffffffffff16620001cf620005e560201b60201c565b67ffffffffffffffff16811515620001e357fe5b040367ffffffffffffffff1660e08167ffffffffffffffff1660c01b815260080150508067ffffffffffffffff1660c08167ffffffffffffffff1660c01b815260080150505b50806040015173ffffffffffffffffffffffffffffffffffffffff166101608173ffffffffffffffffffffffffffffffffffffffff1660601b81526014015050806060015173ffffffffffffffffffffffffffffffffffffffff166101008173ffffffffffffffffffffffffffffffffffffffff1660601b81526014015050806080015173ffffffffffffffffffffffffffffffffffffffff166101208173ffffffffffffffffffffffffffffffffffffffff1660601b815260140150508060a0015173ffffffffffffffffffffffffffffffffffffffff166101408173ffffffffffffffffffffffffffffffffffffffff1660601b8152601401505060006040518060c00160405280636161189060e01b7bffffffffffffffffffffffffffffffffffffffffffffffffffffffff19167bffffffffffffffffffffffffffffffffffffffffffffffffffffffff191681526020016328d10de860e01b7bffffffffffffffffffffffffffffffffffffffffffffffffffffffff19167bffffffffffffffffffffffffffffffffffffffffffffffffffffffff1916815260200163c7bd867c60e01b7bffffffffffffffffffffffffffffffffffffffffffffffffffffffff19167bffffffffffffffffffffffffffffffffffffffffffffffffffffffff1916815260200163de8925f560e01b7bffffffffffffffffffffffffffffffffffffffffffffffffffffffff19167bffffffffffffffffffffffffffffffffffffffffffffffffffffffff1916815260200163c433c80a60e01b7bffffffffffffffffffffffffffffffffffffffffffffffffffffffff19167bffffffffffffffffffffffffffffffffffffffffffffffffffffffff19168152602001630907653160e01b7bffffffffffffffffffffffffffffffffffffffffffffffffffffffff19167bffffffffffffffffffffffffffffffffffffffffffffffffffffffff191681526020015090506000600090505b815060068110156200059a5760016001600050600084846006811015156200052357fe5b60200201517bffffffffffffffffffffffffffffffffffffffffffffffffffffffff19167bffffffffffffffffffffffffffffffffffffffffffffffffffffffff1916815260200190815260200160002060006101000a81548160ff0219169083151502179055505b8080600101915050620004ff565b5033600860086101000a81548173ffffffffffffffffffffffffffffffffffffffff021916908373ffffffffffffffffffffffffffffffffffffffff160217905550505b506200078c565b6000620005ff426200060760201b62001eeb17909060201c565b905080505b90565b600068010000000000000000821015156200068d576040517f08c379a00000000000000000000000000000000000000000000000000000000081526004018080602001828103825260118152602001807f6d6f7265207468616e203634206269747300000000000000000000000000000081526020015060200191505060405180910390fd5b81905062000696565b919050566200078b565b600081519050620006b1816200076e565b5b919050565b600060c08284031215620006c9578081fd5b60405160c081018181106001600160401b0382111715620006e657fe5b80604052508251620006f8816200076e565b8082525060208301516200070c816200076e565b80602083015250604083015162000723816200076e565b806040830152506200073860608401620006a0565b60608201526200074b60808401620006a0565b60808201526200075e60a08401620006a0565b60a0820152809150505b92915050565b6001600160a01b03811681141515620007875760006000fd5b5b50565b5b60805160601c60a05160601c60c05160c01c60e05160c01c6101005160601c6101205160601c6101405160601c6101605160601c6176716200090160003980610a9852806110bc528061159d528061194b528061246a5280612c985280613003528061349752806135c95280613a625280613b5852806142a152806143bd52806144ac5280614c1f5280614ccc5280614d4152806153b9525080611265528061176052508061025b528061192752806127ff52806129365280612aee5280612d2552806134f352806137c552806138ab52806148e152806149755280614f8a528061556f5250806102b05280611641528061488d5280614e6c5280614ecc52806159205280615974525080611a0c5280612e4c5280614649525080611b0b5280612e6d528061466a525080611f7f5280612dc5525080610e7052806120a0528061223252806125f652806126fa5280612ec652806131fd5280613cd152806141ad528061455b52806150fa52506176716000f3fe6080604052600436106102535760003560e01c80635b54918211610138578063c4e3a63b116100b0578063de8925f51161007f578063f4d8977f11610064578063f4d8977f146108eb578063fbc3a6431461092a578063fbe6eb9b146109565761030d565b8063de8925f514610897578063f09a4016146108c15761030d565b8063c4e3a63b146107e9578063c7bd867c14610815578063d2ca21151461083f578063d5f394881461086b5761030d565b806381cc8807116101075780639624e83e116100ec5780639624e83e14610767578063bdd266cd14610793578063c433c80a146107bf5761030d565b806381cc8807146106fc578063843978881461073b5761030d565b80635b5491821461064e578063616118901461067a5780636fcdfed6146106a457806375f12b21146106d05761030d565b80631df0f8a3116101cb57806328d10de81161019a5780633fc8cef31161017f5780633fc8cef3146105b45780634b829573146105e057806350b404001461061e5761030d565b806328d10de8146105605780633e9483721461058a5761030d565b80631df0f8a31461049857806323f5589a146104d7578063265e8a641461050357806326d89545146105345761030d565b80630c340a2411610222578063113cf1ab11610207578063113cf1ab1461040357806315398ae7146104415780631afdbce4146104805761030d565b80630c340a24146103ab5780630dae9f52146103d75761030d565b8063039d10e814610313578063060406181461033d57806307da68f51461036957806309076531146103815761030d565b3661030d575b7f000000000000000000000000000000000000000000000000000000000000000073ffffffffffffffffffffffffffffffffffffffff163373ffffffffffffffffffffffffffffffffffffffff1614806102fe57507f000000000000000000000000000000000000000000000000000000000000000073ffffffffffffffffffffffffffffffffffffffff163373ffffffffffffffffffffffffffffffffffffffff16145b151561030a5760006000fd5b5b005b60006000fd5b3480156103205760006000fd5b5061033b6004803603810190610336919061644a565b610994565b005b34801561034a5760006000fd5b50610353610da2565b60405161036091906174ed565b60405180910390f35b3480156103765760006000fd5b5061037f610dba565b005b34801561038e5760006000fd5b506103a960048036038101906103a491906169d4565b610dda565b005b3480156103b85760006000fd5b506103c1610e6e565b6040516103ce9190616ceb565b60405180910390f35b3480156103e45760006000fd5b506103ed610e92565b6040516103fa91906174ed565b60405180910390f35b3480156104105760006000fd5b5061042b600480360381019061042691906163af565b610eac565b6040516104389190616caf565b60405180910390f35b34801561044e5760006000fd5b5061046960048036038101906104649190616583565b610ed1565b604051610477929190617481565b60405180910390f35b34801561048d5760006000fd5b50610496610ff0565b005b3480156104a55760006000fd5b506104c060048036038101906104bb9190616327565b61102d565b6040516104ce929190617481565b60405180910390f35b3480156104e45760006000fd5b506104ed611220565b6040516104fa91906174ed565b60405180910390f35b61051d60048036038101906105189190616637565b61123a565b60405161052b929190617456565b60405180910390f35b3480156105415760006000fd5b5061054a61142f565b60405161055791906174bd565b60405180910390f35b34801561056d5760006000fd5b50610588600480360381019061058391906168ce565b611445565b005b3480156105975760006000fd5b506105b260048036038101906105ad919061690a565b61154f565b005b3480156105c15760006000fd5b506105ca61163f565b6040516105d79190616b88565b60405180910390f35b3480156105ed5760006000fd5b5061060860048036038101906106039190616423565b611663565b604051610615919061731a565b60405180910390f35b610638600480360381019061063391906165f8565b611689565b60405161064591906172f6565b60405180910390f35b34801561065b5760006000fd5b5061066461175e565b6040516106719190616d3b565b60405180910390f35b3480156106875760006000fd5b506106a2600480360381019061069d91906164e1565b611782565b005b3480156106b15760006000fd5b506106ba61189f565b6040516106c7919061731a565b60405180910390f35b3480156106dd5760006000fd5b506106e66118b3565b6040516106f39190616caf565b60405180910390f35b3480156107095760006000fd5b50610724600480360381019061071f9190616423565b6118c6565b604051610732929190617509565b60405180910390f35b3480156107485760006000fd5b50610751611925565b60405161075e9190616d13565b60405180910390f35b3480156107745760006000fd5b5061077d611949565b60405161078a9190616cc3565b60405180910390f35b3480156107a05760006000fd5b506107a961196d565b6040516107b691906174ed565b60405180910390f35b3480156107cc5760006000fd5b506107e760048036038101906107e291906169ad565b611987565b005b3480156107f65760006000fd5b506107ff611a0a565b60405161080c91906174ed565b60405180910390f35b3480156108225760006000fd5b5061083d600480360381019061083891906169d4565b611a2e565b005b34801561084c5760006000fd5b50610855611b09565b60405161086291906174ed565b60405180910390f35b3480156108785760006000fd5b50610881611b2d565b60405161088e9190616b88565b60405180910390f35b3480156108a45760006000fd5b506108bf60048036038101906108ba9190616846565b611b53565b005b3480156108ce5760006000fd5b506108e960048036038101906108e491906164a5565b611bd6565b005b3480156108f85760006000fd5b50610913600480360381019061090e9190616544565b611cd0565b604051610921929190617481565b60405180910390f35b3480156109375760006000fd5b50610940611df9565b60405161094d91906172f6565b60405180910390f35b3480156109635760006000fd5b5061097e600480360381019061097991906168a7565b611e1b565b60405161098b91906172b9565b60405180910390f35b6109a2611f7d63ffffffff16565b6109b061209063ffffffff16565b6000600660005060008573ffffffffffffffffffffffffffffffffffffffff1673ffffffffffffffffffffffffffffffffffffffff16815260200190815260200160002060009054906101000a900461ffff169050610a14816121bd63ffffffff16565b610a1c61605c565b6000848490509050600043905060006040518060400160405280600115158152602001610a4e8a61222e63ffffffff16565b60020b8152602001509050610a61616122565b610a6f61237a63ffffffff16565b67ffffffffffffffff1681608001909081815260200150506000600090505b84811015610d85577f000000000000000000000000000000000000000000000000000000000000000073ffffffffffffffffffffffffffffffffffffffff1663f34348f18a8a848181101515610ae057fe5b905060200201356040518263ffffffff1660e01b8152600401610b039190617330565b6101806040518083038186803b158015610b1d5760006000fd5b505afa158015610b32573d600060003e3d6000fd5b505050506040513d601f19601f82011682018060405250810190610b569190616718565b955085508661ffff16866020015161ffff16141515610b7457610d78565b610b8886846020015161239563ffffffff16565b15610b9257610d78565b838660800151101515610ba457610d78565b610bb3866123c863ffffffff16565b955085508888828181101515610bc557fe5b905060200201358260000190908181526020015050610bf682600001516000600089600001516127f963ffffffff16565b5050610c51610c44600360089054906101000a900467ffffffffffffffff1667ffffffffffffffff168860a001516fffffffffffffffffffffffffffffffff16612a2890919063ffffffff16565b612a4e909063ffffffff16565b82602001906fffffffffffffffffffffffffffffffff1690816fffffffffffffffffffffffffffffffff1681526020015050610c938233612ae863ffffffff16565b5050610cc282602001518760a001516fffffffffffffffffffffffffffffffff16612bd390919063ffffffff16565b82602001906fffffffffffffffffffffffffffffffff1690816fffffffffffffffffffffffffffffffff1681526020015050610d08828760000151612ae863ffffffff16565b5050610d1f82600001518785612c8063ffffffff16565b3373ffffffffffffffffffffffffffffffffffffffff168989838181101515610d4457fe5b905060200201357f6ba13b7ae6048936f291047829a5de36835ad46b52453fff379900999074709260405160405180910390a35b8080600101915050610a8e565b505050505050505b5b610d9c612db663ffffffff16565b5b505050565b6000610db2612e4863ffffffff16565b905080505b90565b610dc8612ec163ffffffff16565b610dd6612f2163ffffffff16565b5b5b565b610de8612ec163ffffffff16565b6706f05b59d3b200008167ffffffffffffffff16101515610e095760006000fd5b80600360086101000a81548167ffffffffffffffff021916908367ffffffffffffffff1602179055507f78244e8e46597270e2f0ae9c6baded3ba10f1b3f03316f89e49bbfeb1c06786881604051610e6191906174ed565b60405180910390a15b5b50565b7f000000000000000000000000000000000000000000000000000000000000000081565b600860009054906101000a900467ffffffffffffffff1681565b600160005060205280600052604060002060009150909054906101000a900460ff1681565b60006000610ee3611f7d63ffffffff16565b610ef1612f6b63ffffffff16565b6000610f068460000151612ff663ffffffff16565b9050610f1b816080015161310a63ffffffff16565b8060a0015184602001906fffffffffffffffffffffffffffffffff1690816fffffffffffffffffffffffffffffffff1681526020015050610f66848260000151612ae863ffffffff16565b8093508194505050610f90846000015182610f8561315263ffffffff16565b612c8063ffffffff16565b83600001517f1bd2c24817047e88025a4688c0fba3903e750cc05d80857de4201f42ec59bcf28484604051610fc6929190617481565b60405180910390a282829250925050610fdb56505b5b610fea612db663ffffffff16565b5b915091565b610ffe611f7d63ffffffff16565b61100c612f6b63ffffffff16565b61101a61315e63ffffffff16565b5b5b61102a612db663ffffffff16565b5b565b6000600061103f611f7d63ffffffff16565b61104d612f6b63ffffffff16565b600085859050905061105d61605c565b6000600060006000600090505b858110156111f2578a8a82818110151561108057fe5b905060200201359350835061109a84612ff663ffffffff16565b945084508885610120019063ffffffff16908163ffffffff16815260200150507f000000000000000000000000000000000000000000000000000000000000000073ffffffffffffffffffffffffffffffffffffffff1663816aaa2585876040518363ffffffff1660e01b8152600401611115929190617371565b600060405180830381600087803b1580156111305760006000fd5b505af1158015611145573d600060003e3d6000fd5b5050505061115d8460006000336127f963ffffffff16565b809350819450505061117883896133d890919063ffffffff16565b9750875061118f83896133d890919063ffffffff16565b96508650833373ffffffffffffffffffffffffffffffffffffffff167f56253d287efacdb2c4cd76dd03624a4821c1ce721d1152e8f5f5718f6087c9bf85856040516111dc929190617481565b60405180910390a35b808060010191505061106a565b5086869650965050505050506112085650505050505b5b611217612db663ffffffff16565b5b935093915050565b600360089054906101000a900467ffffffffffffffff1681565b6000600061124c611f7d63ffffffff16565b61125a61209063ffffffff16565b6000600660005060007f000000000000000000000000000000000000000000000000000000000000000073ffffffffffffffffffffffffffffffffffffffff16631698ee82886000015189602001518a604001516040518463ffffffff1660e01b81526004016112cc93929190616c07565b60206040518083038186803b1580156112e55760006000fd5b505afa1580156112fa573d600060003e3d6000fd5b505050506040513d601f19601f8201168201806040525081019061131e9190616300565b73ffffffffffffffffffffffffffffffffffffffff1673ffffffffffffffffffffffffffffffffffffffff16815260200190815260200160002060009054906101000a900461ffff169050611378816121bd63ffffffff16565b6113878561346163ffffffff16565b80935081945050506113ab83828760600151886080015186896135c763ffffffff16565b828161ffff163373ffffffffffffffffffffffffffffffffffffffff167f87c666eb8f5e2d1a47a2af419127c84ea830d86b5f75e12ca3dafa33323d9122886060015189608001518760405161140393929190616ea7565b60405180910390a48282925092505061141856505b5b611427612db663ffffffff16565b5b9250929050565b600460009054906101000a900463ffffffff1681565b611453612ec163ffffffff16565b611462826121bd63ffffffff16565b61147061315e63ffffffff16565b80600560005060008461ffff1661ffff16815260200190815260200160002060005060000160146101000a81548167ffffffffffffffff021916908367ffffffffffffffff16021790555060006114cb61372063ffffffff16565b11151561150d576040517f08c379a000000000000000000000000000000000000000000000000000000000815260040161150490616f9c565b60405180910390fd5b8161ffff167fcf476913af040a8c0a50588902fc980c73de756444694afb625e05906334404f8260405161154191906174ed565b60405180910390a25b5b5050565b61155d611f7d63ffffffff16565b61156b61209063ffffffff16565b600061157c82612ff663ffffffff16565b9050600081610120019063ffffffff16908163ffffffff16815260200150507f000000000000000000000000000000000000000000000000000000000000000073ffffffffffffffffffffffffffffffffffffffff1663816aaa2583836040518363ffffffff1660e01b81526004016115f6929190617371565b600060405180830381600087803b1580156116115760006000fd5b505af1158015611626573d600060003e3d6000fd5b50505050505b5b61163b612db663ffffffff16565b5b50565b7f000000000000000000000000000000000000000000000000000000000000000081565b600660005060205280600052604060002060009150909054906101000a900461ffff1681565b6000611699611f7d63ffffffff16565b6116a761209063ffffffff16565b60006116bc8460000135612ff663ffffffff16565b90508281610120019063ffffffff16908163ffffffff16815260200150506116e9846137bd63ffffffff16565b915081506117028185600001358461397563ffffffff16565b83600001357fcc5b49b47bfd2f61894e4c8977343543aa054a11ae847be904355459ce55dcd98360405161173691906172f6565b60405180910390a28191505061174856505b5b611757612db663ffffffff16565b5b92915050565b7f000000000000000000000000000000000000000000000000000000000000000081565b611790612ec163ffffffff16565b6000600660005060008473ffffffffffffffffffffffffffffffffffffffff1673ffffffffffffffffffffffffffffffffffffffff16815260200190815260200160002060009054906101000a900461ffff1661ffff16141515611829576040517f08c379a00000000000000000000000000000000000000000000000000000000081526004016118209061701a565b60405180910390fd5b61183761315e63ffffffff16565b6118478282613bed63ffffffff16565b61ffff168273ffffffffffffffffffffffffffffffffffffffff167fb42c51dce17f5346a481b9dd503edc20c8b6de38b22e12b35a5c77c131fb38ac8360405161189191906174ed565b60405180910390a35b5b5050565b600460049054906101000a900461ffff1681565b600060009054906101000a900460ff1681565b60076000506020528060005260406000206000915090508060000160009054906101000a900467ffffffffffffffff16908060000160089054906101000a900477ffffffffffffffffffffffffffffffffffffffffffffffff16905082565b7f000000000000000000000000000000000000000000000000000000000000000081565b7f000000000000000000000000000000000000000000000000000000000000000081565b600360009054906101000a900467ffffffffffffffff1681565b611995612ec163ffffffff16565b61012c8163ffffffff16101515156119ad5760006000fd5b80600460006101000a81548163ffffffff021916908363ffffffff1602179055507f811ba52920ff121eccd59ee98068330fc6736094b9a3fab10ada70fb0cd2f370816040516119fd91906174d5565b60405180910390a15b5b50565b7f000000000000000000000000000000000000000000000000000000000000000081565b611a3c612ec163ffffffff16565b80600360006101000a81548167ffffffffffffffff021916908367ffffffffffffffff160217905550600360009054906101000a900467ffffffffffffffff1667ffffffffffffffff166000101515611a955760006000fd5b670de0b6b3a7640000600360009054906101000a900467ffffffffffffffff1667ffffffffffffffff1611151515611acd5760006000fd5b7f41785a43e8509555b296851de25b00003ca4ca1c572c807cb301d4a0fb9582d481604051611afc91906174ed565b60405180910390a15b5b50565b7f000000000000000000000000000000000000000000000000000000000000000081565b600860089054906101000a900473ffffffffffffffffffffffffffffffffffffffff1681565b611b61612ec163ffffffff16565b80600360106101000a8154816fffffffffffffffffffffffffffffffff02191690836fffffffffffffffffffffffffffffffff1602179055507f755043e33e8e4c87253e98c56c011cc9905bf88318997b89b3520a54b3c5f17081604051611bc991906172f6565b60405180910390a15b5b50565b611c35600860089054906101000a900473ffffffffffffffffffffffffffffffffffffffff1673ffffffffffffffffffffffffffffffffffffffff163373ffffffffffffffffffffffffffffffffffffffff161461405763ffffffff16565b600860086101000a81549073ffffffffffffffffffffffffffffffffffffffff0219169055600161ffff16611c7283610bb8613bed63ffffffff16565b61ffff16141515611cb8576040517f08c379a0000000000000000000000000000000000000000000000000000000008152600401611caf906170d7565b60405180910390fd5b611cca816103e8613bed63ffffffff16565b505b5050565b60006000611ce2611f7d63ffffffff16565b611cf061209063ffffffff16565b6000611d058560000135612ff663ffffffff16565b9050611d1a816080015161310a63ffffffff16565b8381610120019063ffffffff16908163ffffffff1681526020015050611d5a85803603810190611d4a9190616583565b8260000151612ae863ffffffff16565b8093508194505050611d97818660000135876020016020810190611d7e9190616846565b611d8c61315263ffffffff16565b6140d363ffffffff16565b84600001357ffafb1711250bf0d3906bfd9c4386a9a5a5fdf9ac1facdc9dfd2addad7d3f72e78484604051611dcd929190617481565b60405180910390a281829250925050611de256505b5b611df1612db663ffffffff16565b5b9250929050565b600360109054906101000a90046fffffffffffffffffffffffffffffffff1681565b611e23616166565b600560005060008361ffff1661ffff1681526020019081526020016000206000506040518060400160405290816000820160009054906101000a900473ffffffffffffffffffffffffffffffffffffffff1673ffffffffffffffffffffffffffffffffffffffff1673ffffffffffffffffffffffffffffffffffffffff1681526020016000820160149054906101000a900467ffffffffffffffff1667ffffffffffffffff1667ffffffffffffffff168152602001505090508050809050611ee6565b919050565b60006801000000000000000082101515611f70576040517f08c379a00000000000000000000000000000000000000000000000000000000081526004018080602001828103825260118152602001807f6d6f7265207468616e203634206269747300000000000000000000000000000081526020015060200191505060405180910390fd5b819050611f78565b919050565b7f000000000000000000000000000000000000000000000000000000000000000073ffffffffffffffffffffffffffffffffffffffff1663e97dcb626040518163ffffffff1660e01b8152600401600060405180830381600087803b158015611fe65760006000fd5b505af1158015611ffb573d600060003e3d6000fd5b50505050600260026000505414151515612080576040517f08c379a000000000000000000000000000000000000000000000000000000000815260040180806020018281038252600d8152602001807f4c50205265656e7472616e63790000000000000000000000000000000000000081526020015060200191505060405180910390fd5b600260026000508190909055505b565b61209e612f6b63ffffffff16565b7f000000000000000000000000000000000000000000000000000000000000000073ffffffffffffffffffffffffffffffffffffffff1663bf86d6906040518163ffffffff1660e01b815260040160206040518083038186803b1580156121055760006000fd5b505afa15801561211a573d600060003e3d6000fd5b505050506040513d60208110156121315760006000fd5b81019080805190602001909291905050501515156121ba576040517f08c379a00000000000000000000000000000000000000000000000000000000081526004018080602001828103825260118152602001807f50726f746f636f6c2073687574646f776e00000000000000000000000000000081526020015060200191505060405180910390fd5b5b565b8061ffff1660001080156121e95750600460049054906101000a900461ffff1661ffff168161ffff1611155b151561222a576040517f08c379a000000000000000000000000000000000000000000000000000000000815260040161222190617059565b60405180910390fd5b5b50565b60007f000000000000000000000000000000000000000000000000000000000000000073ffffffffffffffffffffffffffffffffffffffff1663d3419bf36040518163ffffffff1660e01b815260040160206040518083038186803b1580156122975760006000fd5b505afa1580156122ac573d600060003e3d6000fd5b505050506040513d601f19601f820116820180604052508101906122d091906163fc565b73ffffffffffffffffffffffffffffffffffffffff1663fcebd71c83600460009054906101000a900463ffffffff166040518363ffffffff1660e01b815260040161231c929190616e72565b60206040518083038186803b1580156123355760006000fd5b505afa15801561234a573d600060003e3d6000fd5b505050506040513d601f19601f8201168201806040525081019061236e919061651d565b9050612375565b919050565b600061238d42611eeb909063ffffffff16565b905080505b90565b60008160020b8360e0015160020b131580156123bb575082610100015160020b8260020b125b90506123c2565b92915050565b6123d061605c565b60006123e061454363ffffffff16565b905060006123f38261464263ffffffff16565b905060008460c001519050600060008267ffffffffffffffff1614612426576124218261464263ffffffff16565b612429565b60005b90508067ffffffffffffffff168367ffffffffffffffff1611151561245457859450505050506127f4565b61246261315e63ffffffff16565b6000612567877f000000000000000000000000000000000000000000000000000000000000000073ffffffffffffffffffffffffffffffffffffffff16631cef92b1600560005060008c6020015161ffff1661ffff16815260200190815260200160002060005060000160009054906101000a900473ffffffffffffffffffffffffffffffffffffffff166040518263ffffffff1660e01b81526004016125099190616d63565b60406040518083038186803b1580156125225760006000fd5b505afa158015612537573d600060003e3d6000fd5b505050506040513d601f19601f8201168201806040525081019061255b91906167fa565b876146ca63ffffffff16565b809250819750505060008111156127e257600073ffffffffffffffffffffffffffffffffffffffff1686610140015173ffffffffffffffffffffffffffffffffffffffff16141580156125c95750600086610160015167ffffffffffffffff16115b156126f85760006125f287610160015167ffffffffffffffff1683612a2890919063ffffffff16565b90507f000000000000000000000000000000000000000000000000000000000000000073ffffffffffffffffffffffffffffffffffffffff16634d6729f5886101400151836040518363ffffffff1660e01b8152600401612654929190616c46565b600060405180830381600087803b15801561266f5760006000fd5b505af1158015612684573d600060003e3d6000fd5b505050506001151587610140015173ffffffffffffffffffffffffffffffffffffffff167f8079a05488a0f375c08504c3ba8b3a1371f5a192b7a141bc9294ef7ad41389d9836040516126d79190617330565b60405180910390a36126f2818361480290919063ffffffff16565b91508150505b7f000000000000000000000000000000000000000000000000000000000000000073ffffffffffffffffffffffffffffffffffffffff16634d6729f58760000151836040518363ffffffff1660e01b8152600401612757929190616c46565b600060405180830381600087803b1580156127725760006000fd5b505af1158015612787573d600060003e3d6000fd5b5050505060001515866000015173ffffffffffffffffffffffffffffffffffffffff167f8079a05488a0f375c08504c3ba8b3a1371f5a192b7a141bc9294ef7ad41389d9836040516127d99190617330565b60405180910390a35b85955050505050506127f45650505050505b919050565b600060007f000000000000000000000000000000000000000000000000000000000000000073ffffffffffffffffffffffffffffffffffffffff1663fc6f78656040518060800160405280898152602001600073ffffffffffffffffffffffffffffffffffffffff1681526020016fffffffffffffffffffffffffffffffff6fffffffffffffffffffffffffffffffff1681526020016fffffffffffffffffffffffffffffffff6fffffffffffffffffffffffffffffffff168152602001506040518263ffffffff1660e01b81526004016128d49190617116565b604060405180830381600087803b1580156128ef5760006000fd5b505af1158015612904573d600060003e3d6000fd5b505050506040513d601f19601f820116820180604052508101906129289190616987565b8092508193505050600060007f000000000000000000000000000000000000000000000000000000000000000073ffffffffffffffffffffffffffffffffffffffff166399fbab88896040518263ffffffff1660e01b815260040161298d9190617330565b6101806040518083038186803b1580156129a75760006000fd5b505afa1580156129bc573d600060003e3d6000fd5b505050506040513d601f19601f820116820180604052508101906129e09190616a22565b50505050505050509350935050506129ff82888761488b63ffffffff16565b612a1081878761488b63ffffffff16565b8383935093505050612a1f5650505b94509492505050565b6000612a438383670de0b6b3a7640000614a0b63ffffffff16565b905080505b92915050565b600070010000000000000000000000000000000082101515612adb576040517f08c379a00000000000000000000000000000000000000000000000000000000081526004018080602001828103825260128152602001807f6d6f7265207468616e203132382062697473000000000000000000000000000081526020015060200191505060405180910390fd5b819050612ae3565b919050565b600060007f000000000000000000000000000000000000000000000000000000000000000073ffffffffffffffffffffffffffffffffffffffff16630c49ccbe856040518263ffffffff1660e01b8152600401612b459190617175565b604060405180830381600087803b158015612b605760006000fd5b505af1158015612b75573d600060003e3d6000fd5b505050506040513d601f19601f82011682018060405250810190612b999190616987565b8092508193505050612bbf846000015185604001518660600151866127f963ffffffff16565b5050808191509150612bcc565b9250929050565b6000826fffffffffffffffffffffffffffffffff168284039150816fffffffffffffffffffffffffffffffff1611151515612c79576040517f08c379a000000000000000000000000000000000000000000000000000000000815260040180806020018281038252600d8152602001807f7375622d756e646572666c6f770000000000000000000000000000000000000081526020015060200191505060405180910390fd5b5b92915050565b612c9682848460a00151846140d363ffffffff16565b7f000000000000000000000000000000000000000000000000000000000000000073ffffffffffffffffffffffffffffffffffffffff166326879a4e846040518263ffffffff1660e01b8152600401612cef9190617330565b600060405180830381600087803b158015612d0a5760006000fd5b505af1158015612d1f573d600060003e3d6000fd5b505050507f000000000000000000000000000000000000000000000000000000000000000073ffffffffffffffffffffffffffffffffffffffff166342966c68846040518263ffffffff1660e01b8152600401612d7c9190617330565b600060405180830381600087803b158015612d975760006000fd5b505af1158015612dac573d600060003e3d6000fd5b505050505b505050565b600160026000508190909055507f000000000000000000000000000000000000000000000000000000000000000073ffffffffffffffffffffffffffffffffffffffff1663e9fad8ee6040518163ffffffff1660e01b8152600401600060405180830381600087803b158015612e2c5760006000fd5b505af1158015612e41573d600060003e3d6000fd5b505050505b565b60007f00000000000000000000000000000000000000000000000000000000000000007f000000000000000000000000000000000000000000000000000000000000000067ffffffffffffffff16612ea461237a63ffffffff16565b67ffffffffffffffff16811515612eb757fe5b0403905080505b90565b612f1e7f000000000000000000000000000000000000000000000000000000000000000073ffffffffffffffffffffffffffffffffffffffff163373ffffffffffffffffffffffffffffffffffffffff161461405763ffffffff16565b5b565b6001600060006101000a81548160ff0219169083151502179055507f7acc84e34091ae817647a4c49116f5cc07f319078ba80f8f5fde37ea7e25cbd660405160405180910390a15b565b600060009054906101000a900460ff16151515612ff3576040517f08c379a00000000000000000000000000000000000000000000000000000000081526004018080602001828103825260138152602001807f436f6e74726163742069732073746f707065640000000000000000000000000081526020015060200191505060405180910390fd5b5b565b612ffe61605c565b6130b87f000000000000000000000000000000000000000000000000000000000000000073ffffffffffffffffffffffffffffffffffffffff1663f34348f1846040518263ffffffff1660e01b815260040161305a9190617330565b6101806040518083038186803b1580156130745760006000fd5b505afa158015613089573d600060003e3d6000fd5b505050506040513d601f19601f820116820180604052508101906130ad9190616718565b6123c863ffffffff16565b905080506130fd816000015173ffffffffffffffffffffffffffffffffffffffff163373ffffffffffffffffffffffffffffffffffffffff161461405763ffffffff16565b809050613105565b919050565b438110151561314e576040517f08c379a000000000000000000000000000000000000000000000000000000000815260040161314590617098565b60405180910390fd5b5b50565b61315a6161a3565b5b90565b600061316e614b0c63ffffffff16565b9050600860009054906101000a900467ffffffffffffffff1667ffffffffffffffff168167ffffffffffffffff161115156131a957506133d6565b6000600860009054906101000a900467ffffffffffffffff1682039050600061384067ffffffffffffffff16620151808115156131e257fe5b0467ffffffffffffffff166132ab8367ffffffffffffffff167f000000000000000000000000000000000000000000000000000000000000000073ffffffffffffffffffffffffffffffffffffffff166318c7de176040518163ffffffff1660e01b8152600401602060405180830381600087803b1580156132645760006000fd5b505af1158015613279573d600060003e3d6000fd5b505050506040513d601f19601f8201168201806040525081019061329d9190616926565b614b3490919063ffffffff16565b8115156132b457fe5b0490506000600460049054906101000a900461ffff169050600060006132de61372063ffffffff16565b90506001915081505b8261ffff168261ffff1611151561336d5761335f82613353600560005060008661ffff1661ffff16815260200190815260200160002060005060000160149054906101000a900467ffffffffffffffff1667ffffffffffffffff168488614a0b9092919063ffffffff16565b87614bd263ffffffff16565b5b81806001019250506132e7565b85600860006101000a81548167ffffffffffffffff021916908367ffffffffffffffff1602179055507f095a67d1e9698fe0eebf9cff79a22f6423cebcb4e386a0bdd7e12330d86381ed84866040516133c792919061749a565b60405180910390a15050505050505b565b6000828284019150811015151561345a576040517f08c379a000000000000000000000000000000000000000000000000000000000815260040180806020018281038252600c8152602001807f6164642d6f766572666c6f77000000000000000000000000000000000000000081526020015060200191505060405180910390fd5b5b92915050565b6000600061347d83600001518460a00151614e6a63ffffffff16565b61349583602001518460c00151614e6a63ffffffff16565b7f000000000000000000000000000000000000000000000000000000000000000083610120019073ffffffffffffffffffffffffffffffffffffffff16908173ffffffffffffffffffffffffffffffffffffffff16815260200150507f000000000000000000000000000000000000000000000000000000000000000073ffffffffffffffffffffffffffffffffffffffff166388316456846040518263ffffffff1660e01b815260040161354a9190617207565b608060405180830381600087803b1580156135655760006000fd5b505af115801561357a573d600060003e3d6000fd5b505050506040513d601f19601f8201168201806040525081019061359e9190616942565b90505080925081935050506135c183600001518460200151614f6a63ffffffff16565b5b915091565b7f000000000000000000000000000000000000000000000000000000000000000073ffffffffffffffffffffffffffffffffffffffff166375ea13ca33886040518363ffffffff1660e01b8152600401613622929190616bd8565b600060405180830381600087803b15801561363d5760006000fd5b505af1158015613652573d600060003e3d6000fd5b5050505061365e61605c565b33816000019073ffffffffffffffffffffffffffffffffffffffff16908173ffffffffffffffffffffffffffffffffffffffff168152602001505085816020019061ffff16908161ffff1681526020015050848160e0019060020b908160020b815260200150508381610100019060020b908160020b815260200150508181610120019063ffffffff16908163ffffffff1681526020015050613716613709826123c863ffffffff16565b888561397563ffffffff16565b505b505050505050565b60006000600190505b600460049054906101000a900461ffff1661ffff168161ffff161115156137b15761379f600560005060008361ffff1661ffff16815260200190815260200160002060005060000160149054906101000a900467ffffffffffffffff1667ffffffffffffffff16836133d890919063ffffffff16565b915081505b8080600101915050613729565b508090506137ba565b90565b6000600060007f000000000000000000000000000000000000000000000000000000000000000073ffffffffffffffffffffffffffffffffffffffff166399fbab8885600001356040518263ffffffff1660e01b81526004016138209190617330565b6101806040518083038186803b15801561383a5760006000fd5b505afa15801561384f573d600060003e3d6000fd5b505050506040513d601f19601f820116820180604052508101906138739190616a22565b5050505050505050935093505050613895828560200135614e6a63ffffffff16565b6138a9818560400135614e6a63ffffffff16565b7f000000000000000000000000000000000000000000000000000000000000000073ffffffffffffffffffffffffffffffffffffffff1663219f5d17856040518263ffffffff1660e01b815260040161390291906171c2565b606060405180830381600087803b15801561391d5760006000fd5b505af1158015613932573d600060003e3d6000fd5b505050506040513d601f19601f82011682018060405250810190613956919061686d565b9050508093505061396d8282614f6a63ffffffff16565b50505b919050565b600060056000506000856020015161ffff1661ffff16815260200190815260200160002060005060000160009054906101000a900473ffffffffffffffffffffffffffffffffffffffff16905060006139d38261222e63ffffffff16565b90506139e5858261239563ffffffff16565b1515613a26576040517f08c379a0000000000000000000000000000000000000000000000000000000008152600401613a1d90616edf565b60405180910390fd5b613a60858284613a55878a60a001516fffffffffffffffffffffffffffffffff1661502990919063ffffffff16565b6150d663ffffffff16565b7f000000000000000000000000000000000000000000000000000000000000000073ffffffffffffffffffffffffffffffffffffffff16631428561d83856040518363ffffffff1660e01b8152600401613abb929190616e31565b600060405180830381600087803b158015613ad65760006000fd5b505af1158015613aeb573d600060003e3d6000fd5b50505050670de0b6b3a7640000600360009054906101000a900467ffffffffffffffff1667ffffffffffffffff16108015613b325750600161ffff16856020015161ffff16145b15613b4757613b46826152d163ffffffff16565b5b4385608001909081815260200150507f000000000000000000000000000000000000000000000000000000000000000073ffffffffffffffffffffffffffffffffffffffff1663816aaa2585876040518363ffffffff1660e01b8152600401613bb1929190617371565b600060405180830381600087803b158015613bcc5760006000fd5b505af1158015613be1573d600060003e3d6000fd5b5050505050505b505050565b60006000600660005060008573ffffffffffffffffffffffffffffffffffffffff1673ffffffffffffffffffffffffffffffffffffffff16815260200190815260200160002060009054906101000a900461ffff1661ffff16141515613c88576040517f08c379a0000000000000000000000000000000000000000000000000000000008152600401613c7f90616f5d565b60405180910390fd5b61ffff61ffff166004600481819054906101000a900461ffff1660010191906101000a81548161ffff021916908361ffff160217905561ffff16101515613ccf5760006000fd5b7f000000000000000000000000000000000000000000000000000000000000000073ffffffffffffffffffffffffffffffffffffffff1663d3419bf36040518163ffffffff1660e01b815260040160206040518083038186803b158015613d365760006000fd5b505afa158015613d4b573d600060003e3d6000fd5b505050506040513d601f19601f82011682018060405250810190613d6f91906163fc565b73ffffffffffffffffffffffffffffffffffffffff1663407431f7846040518263ffffffff1660e01b8152600401613da79190616d63565b600060405180830381600087803b158015613dc25760006000fd5b505af1158015613dd7573d600060003e3d6000fd5b50505050600460049054906101000a900461ffff169050805060405180604001604052808473ffffffffffffffffffffffffffffffffffffffff1681526020018367ffffffffffffffff16815260200150600560005060008361ffff1661ffff16815260200190815260200160002060005060008201518160000160006101000a81548173ffffffffffffffffffffffffffffffffffffffff021916908373ffffffffffffffffffffffffffffffffffffffff16021790555060208201518160000160146101000a81548167ffffffffffffffff021916908367ffffffffffffffff16021790555090505080600660005060008573ffffffffffffffffffffffffffffffffffffffff1673ffffffffffffffffffffffffffffffffffffffff16815260200190815260200160002060006101000a81548161ffff021916908361ffff160217905550613fad8373ffffffffffffffffffffffffffffffffffffffff16630dfe16816040518163ffffffff1660e01b815260040160206040518083038186803b158015613f695760006000fd5b505afa158015613f7e573d600060003e3d6000fd5b505050506040513d601f19601f82011682018060405250810190613fa29190616300565b61556963ffffffff16565b61403b8373ffffffffffffffffffffffffffffffffffffffff1663d21220a76040518163ffffffff1660e01b815260040160206040518083038186803b158015613ff75760006000fd5b505afa15801561400c573d600060003e3d6000fd5b505050506040513d601f19601f820116820180604052508101906140309190616300565b61556963ffffffff16565b61404961315e63ffffffff16565b809050614051565b92915050565b8015156140cf576040517f08c379a000000000000000000000000000000000000000000000000000000000815260040180806020018281038252600e8152602001807f4e6f7420417574686f72697a656400000000000000000000000000000000000081526020015060200191505060405180910390fd5b5b50565b600060056000506000866020015161ffff1661ffff16815260200190815260200160002060005060000160009054906101000a900473ffffffffffffffffffffffffffffffffffffffff1690506000826000015161413f5761413a8261222e63ffffffff16565b614145565b82602001515b90506000670de0b6b3a7640000600360009054906101000a900467ffffffffffffffff1667ffffffffffffffff1610801561418c5750600161ffff16876020015161ffff16145b80156141a457506141a3878361239563ffffffff16565b5b801561424d57507f000000000000000000000000000000000000000000000000000000000000000073ffffffffffffffffffffffffffffffffffffffff1663bf86d6906040518163ffffffff1660e01b815260040160206040518083038186803b1580156142125760006000fd5b505afa158015614227573d600060003e3d6000fd5b505050506040513d601f19601f8201168201806040525081019061424b9190616382565b155b905061428987838561427e898c60a001516fffffffffffffffffffffffffffffffff16612bd390919063ffffffff16565b6150d663ffffffff16565b801561429f5761429e836152d163ffffffff16565b5b7f000000000000000000000000000000000000000000000000000000000000000073ffffffffffffffffffffffffffffffffffffffff1663530c1ccb84876040518363ffffffff1660e01b81526004016142fa929190616e31565b600060405180830381600087803b1580156143155760006000fd5b505af115801561432a573d600060003e3d6000fd5b5050505080156144aa57600760005060008473ffffffffffffffffffffffffffffffffffffffff1673ffffffffffffffffffffffffffffffffffffffff16815260200190815260200160002060005060000160089054906101000a900477ffffffffffffffffffffffffffffffffffffffffffffffff1677ffffffffffffffffffffffffffffffffffffffffffffffff167f000000000000000000000000000000000000000000000000000000000000000073ffffffffffffffffffffffffffffffffffffffff1663a135ef17856040518263ffffffff1660e01b81526004016144149190616d63565b60206040518083038186803b15801561442d5760006000fd5b505afa158015614442573d600060003e3d6000fd5b505050506040513d601f19601f820116820180604052508101906144669190616926565b101515156144a9576040517f08c379a00000000000000000000000000000000000000000000000000000000081526004016144a090616f1e565b60405180910390fd5b5b7f000000000000000000000000000000000000000000000000000000000000000073ffffffffffffffffffffffffffffffffffffffff1663816aaa2587896040518363ffffffff1660e01b8152600401614505929190617371565b600060405180830381600087803b1580156145205760006000fd5b505af1158015614535573d600060003e3d6000fd5b505050505050505b50505050565b6000600061455561237a63ffffffff16565b905060007f000000000000000000000000000000000000000000000000000000000000000073ffffffffffffffffffffffffffffffffffffffff1663585690816040518163ffffffff1660e01b815260040160206040518083038186803b1580156145c05760006000fd5b505afa1580156145d5573d600060003e3d6000fd5b505050506040513d601f19601f820116820180604052508101906145f991906169fb565b90508067ffffffffffffffff16600010801561462857508167ffffffffffffffff168167ffffffffffffffff16105b6146325781614634565b805b9250505061463f5650505b90565b60006146c07f00000000000000000000000000000000000000000000000000000000000000007f000000000000000000000000000000000000000000000000000000000000000067ffffffffffffffff168467ffffffffffffffff168115156146a757fe5b0467ffffffffffffffff166155be90919063ffffffff16565b905080505b919050565b6146d261605c565b6000849150815060008260a001516fffffffffffffffffffffffffffffffff1611156147a6576147a161471c8360c001518567ffffffffffffffff166155be90919063ffffffff16565b67ffffffffffffffff1661384067ffffffffffffffff166147926147518660600151896000015161480290919063ffffffff16565b61476c87604001518a6020015161480290919063ffffffff16565b8760a001516fffffffffffffffffffffffffffffffff16614a0b9092919063ffffffff16565b614a0b9092919063ffffffff16565b905080505b8360000151826060019090818152602001505083602001518260400190908181526020015050828260c0019067ffffffffffffffff16908167ffffffffffffffff16815260200150508181915091506147fa565b935093915050565b60008282840391508111151515614884576040517f08c379a000000000000000000000000000000000000000000000000000000000815260040180806020018281038252600d8152602001807f7375622d756e646572666c6f770000000000000000000000000000000000000081526020015060200191505060405180910390fd5b5b92915050565b7f000000000000000000000000000000000000000000000000000000000000000073ffffffffffffffffffffffffffffffffffffffff168373ffffffffffffffffffffffffffffffffffffffff161415614973577f000000000000000000000000000000000000000000000000000000000000000073ffffffffffffffffffffffffffffffffffffffff166349404b7c83836040518363ffffffff1660e01b815260040161493a929190617342565b600060405180830381600087803b1580156149555760006000fd5b505af115801561496a573d600060003e3d6000fd5b50505050614a05565b7f000000000000000000000000000000000000000000000000000000000000000073ffffffffffffffffffffffffffffffffffffffff1663df2ab5bb8484846040518463ffffffff1660e01b81526004016149d093929190616c75565b600060405180830381600087803b1580156149eb5760006000fd5b505af1158015614a00573d600060003e3d6000fd5b505050505b5b505050565b6000600060006000198587098587029250828110838203039150506000811415614a4e57600084111515614a3f5760006000fd5b83820492508292505050614b05565b8084111515614a5d5760006000fd5b6000848688099050828111820391508083039250600085866000031690508086049550808404935060018182600003040190508083028417935083506000600287600302189050808702600203810290508050808702600203810290508050808702600203810290508050808702600203810290508050808702600203810290508050808702600203810290508050808502955085508595505050505050614b055650505050505b9392505050565b6000614b2a614b1f61454363ffffffff16565b61464263ffffffff16565b9050614b31565b90565b60006000821480614b5457508282838502925082811515614b5157fe5b04145b1515614bcb576040517f08c379a000000000000000000000000000000000000000000000000000000000815260040180806020018281038252600c8152602001807f6d756c2d6f766572666c6f77000000000000000000000000000000000000000081526020015060200191505060405180910390fd5b5b92915050565b6000600560005060008561ffff1661ffff16815260200190815260200160002060005060000160009054906101000a900473ffffffffffffffffffffffffffffffffffffffff16905060007f000000000000000000000000000000000000000000000000000000000000000073ffffffffffffffffffffffffffffffffffffffff16631cef92b1836040518263ffffffff1660e01b8152600401614c769190616d63565b60406040518083038186803b158015614c8f5760006000fd5b505afa158015614ca4573d600060003e3d6000fd5b505050506040513d601f19601f82011682018060405250810190614cc891906167fa565b90507f000000000000000000000000000000000000000000000000000000000000000073ffffffffffffffffffffffffffffffffffffffff166396122a5c836040518060400160405280614d298987600001516133d890919063ffffffff16565b8152602001614e0b614df88967ffffffffffffffff167f000000000000000000000000000000000000000000000000000000000000000073ffffffffffffffffffffffffffffffffffffffff1663a135ef178b6040518263ffffffff1660e01b8152600401614d989190616d63565b60206040518083038186803b158015614db15760006000fd5b505afa158015614dc6573d600060003e3d6000fd5b505050506040513d601f19601f82011682018060405250810190614dea9190616926565b614b3490919063ffffffff16565b87602001516133d890919063ffffffff16565b8152602001506040518363ffffffff1660e01b8152600401614e2e929190616df7565b600060405180830381600087803b158015614e495760006000fd5b505af1158015614e5e573d600060003e3d6000fd5b5050505050505b505050565b7f000000000000000000000000000000000000000000000000000000000000000073ffffffffffffffffffffffffffffffffffffffff168273ffffffffffffffffffffffffffffffffffffffff16148015614ec55750804710155b15614f52577f000000000000000000000000000000000000000000000000000000000000000073ffffffffffffffffffffffffffffffffffffffff1663d0e30db0826040518263ffffffff1660e01b81526004016000604051808303818588803b158015614f335760006000fd5b505af1158015614f48573d600060003e3d6000fd5b5050505050614f65565b614f648233308461565b63ffffffff16565b5b5b5050565b614f798261588663ffffffff16565b614f888161588663ffffffff16565b7f000000000000000000000000000000000000000000000000000000000000000073ffffffffffffffffffffffffffffffffffffffff166312210e8a6040518163ffffffff1660e01b8152600401600060405180830381600087803b158015614ff15760006000fd5b505af1158015615006573d600060003e3d6000fd5b505050506000471115615024576150233347615a1c63ffffffff16565b5b5b5050565b6000826fffffffffffffffffffffffffffffffff168284019150816fffffffffffffffffffffffffffffffff16101515156150cf576040517f08c379a000000000000000000000000000000000000000000000000000000000815260040180806020018281038252600c8152602001807f6164642d6f766572666c6f77000000000000000000000000000000000000000081526020015060200191505060405180910390fd5b5b92915050565b6000816fffffffffffffffffffffffffffffffff1614156150f6576152cb565b60007f000000000000000000000000000000000000000000000000000000000000000073ffffffffffffffffffffffffffffffffffffffff1663d3419bf36040518163ffffffff1660e01b815260040160206040518083038186803b15801561515f5760006000fd5b505afa158015615174573d600060003e3d6000fd5b505050506040513d601f19601f8201168201806040525081019061519891906163fc565b73ffffffffffffffffffffffffffffffffffffffff16631fab230e84868860e0015189610100015187600460009054906101000a900463ffffffff166040518763ffffffff1660e01b81526004016151f596959493929190616d8b565b60206040518083038186803b15801561520e5760006000fd5b505afa158015615223573d600060003e3d6000fd5b505050506040513d601f19601f820116820180604052508101906152479190616926565b9050600360109054906101000a90046fffffffffffffffffffffffffffffffff166fffffffffffffffffffffffffffffffff16811015806152885750600081145b15156152c9576040517f08c379a00000000000000000000000000000000000000000000000000000000081526004016152c090616fdb565b60405180910390fd5b505b50505050565b60006152e1612e4863ffffffff16565b90508067ffffffffffffffff16600760005060008473ffffffffffffffffffffffffffffffffffffffff1673ffffffffffffffffffffffffffffffffffffffff16815260200190815260200160002060005060000160009054906101000a900467ffffffffffffffff1667ffffffffffffffff1610156155645760405180604001604052808267ffffffffffffffff16815260200161547d6154706153b7600360009054906101000a900467ffffffffffffffff1667ffffffffffffffff16670de0b6b3a764000061480290919063ffffffff16565b7f000000000000000000000000000000000000000000000000000000000000000073ffffffffffffffffffffffffffffffffffffffff1663a135ef17886040518263ffffffff1660e01b81526004016154109190616d63565b60206040518083038186803b1580156154295760006000fd5b505afa15801561543e573d600060003e3d6000fd5b505050506040513d601f19601f820116820180604052508101906154629190616926565b612a2890919063ffffffff16565b615ba2909063ffffffff16565b77ffffffffffffffffffffffffffffffffffffffffffffffff16815260200150600760005060008473ffffffffffffffffffffffffffffffffffffffff1673ffffffffffffffffffffffffffffffffffffffff16815260200190815260200160002060005060008201518160000160006101000a81548167ffffffffffffffff021916908367ffffffffffffffff16021790555060208201518160000160086101000a81548177ffffffffffffffffffffffffffffffffffffffffffffffff021916908377ffffffffffffffffffffffffffffffffffffffffffffffff1602179055509050505b505b50565b6155ba817f00000000000000000000000000000000000000000000000000000000000000007fffffffffffffffffffffffffffffffffffffffffffffffffffffffffffffffff615c4463ffffffff16565b5b50565b60008267ffffffffffffffff1682840391508167ffffffffffffffff1611151515615654576040517f08c379a000000000000000000000000000000000000000000000000000000000815260040180806020018281038252600d8152602001807f7375622d756e646572666c6f770000000000000000000000000000000000000081526020015060200191505060405180910390fd5b5b92915050565b600060008573ffffffffffffffffffffffffffffffffffffffff166323b872dd60e01b868686604051602401808473ffffffffffffffffffffffffffffffffffffffff1681526020018373ffffffffffffffffffffffffffffffffffffffff1681526020018281526020019350505050604051602081830303815290604052907bffffffffffffffffffffffffffffffffffffffffffffffffffffffff19166020820180517bffffffffffffffffffffffffffffffffffffffffffffffffffffffff83818316178352505050506040518082805190602001908083835b60208310151561575e57805182525b602082019150602081019050602083039250615738565b6001836020036101000a0380198251168184511680821785525050505050509050019150506000604051808303816000865af19150503d80600081146157c0576040519150601f19603f3d011682016040523d82523d6000602084013e6157c5565b606091505b5091509150818015615806575060008151148061580557508080602001905160208110156157f35760006000fd5b81019080805190602001909291905050505b5b151561587d576040517f08c379a00000000000000000000000000000000000000000000000000000000081526004018080602001828103825260038152602001807f535446000000000000000000000000000000000000000000000000000000000081526020015060200191505060405180910390fd5b50505b50505050565b60008173ffffffffffffffffffffffffffffffffffffffff166370a08231306040518263ffffffff1660e01b81526004016158c19190616bb0565b60206040518083038186803b1580156158da5760006000fd5b505afa1580156158ef573d600060003e3d6000fd5b505050506040513d601f19601f820116820180604052508101906159139190616926565b90506000811115615a17577f000000000000000000000000000000000000000000000000000000000000000073ffffffffffffffffffffffffffffffffffffffff168273ffffffffffffffffffffffffffffffffffffffff161415615a04577f000000000000000000000000000000000000000000000000000000000000000073ffffffffffffffffffffffffffffffffffffffff16632e1a7d4d826040518263ffffffff1660e01b81526004016159cb9190617330565b600060405180830381600087803b1580156159e65760006000fd5b505af11580156159fb573d600060003e3d6000fd5b50505050615a16565b615a15823383615e5063ffffffff16565b5b5b505b50565b60008273ffffffffffffffffffffffffffffffffffffffff1682600067ffffffffffffffff81118015615a4f5760006000fd5b506040519080825280601f01601f191660200182016040528015615a825781602001600182028036833780820191505090505b506040518082805190602001908083835b602083101515615ab957805182525b602082019150602081019050602083039250615a93565b6001836020036101000a03801982511681845116808217855250505050505090500191505060006040518083038185875af1925050503d8060008114615b1b576040519150601f19603f3d011682016040523d82523d6000602084013e615b20565b606091505b50509050801515615b9c576040517f08c379a00000000000000000000000000000000000000000000000000000000081526004018080602001828103825260038152602001807f535445000000000000000000000000000000000000000000000000000000000081526020015060200191505060405180910390fd5b505b5050565b6000780100000000000000000000000000000000000000000000000082101515615c37576040517f08c379a00000000000000000000000000000000000000000000000000000000081526004018080602001828103825260128152602001807f6d6f7265207468616e203139322062697473000000000000000000000000000081526020015060200191505060405180910390fd5b819050615c3f565b919050565b600060008473ffffffffffffffffffffffffffffffffffffffff1663095ea7b360e01b8585604051602401808373ffffffffffffffffffffffffffffffffffffffff16815260200182815260200192505050604051602081830303815290604052907bffffffffffffffffffffffffffffffffffffffffffffffffffffffff19166020820180517bffffffffffffffffffffffffffffffffffffffffffffffffffffffff83818316178352505050506040518082805190602001908083835b602083101515615d2957805182525b602082019150602081019050602083039250615d03565b6001836020036101000a0380198251168184511680821785525050505050509050019150506000604051808303816000865af19150503d8060008114615d8b576040519150601f19603f3d011682016040523d82523d6000602084013e615d90565b606091505b5091509150818015615dd15750600081511480615dd05750808060200190516020811015615dbe5760006000fd5b81019080805190602001909291905050505b5b1515615e48576040517f08c379a00000000000000000000000000000000000000000000000000000000081526004018080602001828103825260028152602001807f534100000000000000000000000000000000000000000000000000000000000081526020015060200191505060405180910390fd5b50505b505050565b600060008473ffffffffffffffffffffffffffffffffffffffff1663a9059cbb60e01b8585604051602401808373ffffffffffffffffffffffffffffffffffffffff16815260200182815260200192505050604051602081830303815290604052907bffffffffffffffffffffffffffffffffffffffffffffffffffffffff19166020820180517bffffffffffffffffffffffffffffffffffffffffffffffffffffffff83818316178352505050506040518082805190602001908083835b602083101515615f3557805182525b602082019150602081019050602083039250615f0f565b6001836020036101000a0380198251168184511680821785525050505050509050019150506000604051808303816000865af19150503d8060008114615f97576040519150601f19603f3d011682016040523d82523d6000602084013e615f9c565b606091505b5091509150818015615fdd5750600081511480615fdc5750808060200190516020811015615fca5760006000fd5b81019080805190602001909291905050505b5b1515616054576040517f08c379a00000000000000000000000000000000000000000000000000000000081526004018080602001828103825260028152602001807f535400000000000000000000000000000000000000000000000000000000000081526020015060200191505060405180910390fd5b50505b505050565b604051806101800160405280600073ffffffffffffffffffffffffffffffffffffffff168152602001600061ffff16815260200160008152602001600081526020016000815260200160006fffffffffffffffffffffffffffffffff168152602001600067ffffffffffffffff168152602001600060020b8152602001600060020b8152602001600063ffffffff168152602001600073ffffffffffffffffffffffffffffffffffffffff168152602001600067ffffffffffffffff1681526020015090565b6040518060a001604052806000815260200160006fffffffffffffffffffffffffffffffff1681526020016000815260200160008152602001600081526020015090565b6040518060400160405280600073ffffffffffffffffffffffffffffffffffffffff168152602001600067ffffffffffffffff1681526020015090565b6040518060400160405280600015158152602001600060020b815260200150905661763a565b6000813590506161d881617571565b5b919050565b6000815190506161ed81617571565b5b919050565b6000600083601f8401121515616207578182fd5b8235905067ffffffffffffffff81111561621f578182fd5b60208301915083602060208302850101111561623b5760006000fd5b5b9250929050565b6000813590506162528161759a565b5b919050565b6000815190506162678161759a565b5b919050565b60008151905061627c816175b0565b5b919050565b600081519050616291816175d5565b5b919050565b6000813590506162a6816175ec565b5b919050565b6000815190506162bb816175ec565b5b919050565b6000813590506162d081617604565b5b919050565b6000815190506162e581617604565b5b919050565b6000815190506162fa8161761d565b5b919050565b600060208284031215616311578081fd5b815161631c81617571565b809150505b92915050565b6000600060006040848603121561633c578182fd5b833567ffffffffffffffff811115616352578283fd5b61635e868287016161f3565b91508094505080925050602084013561637681617604565b809150505b9250925092565b600060208284031215616393578081fd5b8151801515811415156163a4578182fd5b809150505b92915050565b6000602082840312156163c0578081fd5b81357fffffffff000000000000000000000000000000000000000000000000000000008116811415156163f1578182fd5b809150505b92915050565b60006020828403121561640d578081fd5b815161641881617571565b809150505b92915050565b600060208284031215616434578081fd5b813561643f81617571565b809150505b92915050565b6000600060006040848603121561645f578081fd5b833561646a81617571565b80935050602084013567ffffffffffffffff811115616487578182fd5b616493868287016161f3565b915080935050809150505b9250925092565b60006000604083850312156164b8578182fd5b82356164c381617571565b8092505060208301356164d581617571565b809150505b9250929050565b60006000604083850312156164f4578182fd5b82356164ff81617571565b8092505060208301356165118161761d565b809150505b9250929050565b60006020828403121561652e578081fd5b81516165398161759a565b809150505b92915050565b6000600082840360c0811215616558578283fd5b60a0811215616565578283fd5b5082915060a083013561657781617604565b809150505b9250929050565b600060a08284031215616594578081fd5b60405160a0810181811067ffffffffffffffff821117156165b157fe5b80604052508235815260208301356165c8816175b0565b80602083015250604083013560408201526060830135606082015260808301356080820152809150505b92915050565b6000600082840360e081121561660c578283fd5b60c0811215616619578283fd5b5082915060c083013561662b81617604565b809150505b9250929050565b6000600082840361018081121561664c578283fd5b6101608082121561665b578384fd5b61666481617546565b915061666f856161c9565b825261667d602086016161c9565b602083015261668e60408601616297565b604083015261669f60608601616243565b60608301526166b060808601616243565b608083015260a085013560a083015260c085013560c083015260e085013560e08301526101008086013581840152506101206166ed8187016161c9565b818401525061014080860135818401525081935061670c8186016162c1565b925050505b9250929050565b600061018080838503121561672b578182fd5b61673481617546565b905061673f836161de565b815261674d60208401616282565b602082015260408301516040820152606083015160608201526080830151608082015261677c60a0840161626d565b60a082015261678d60c084016162eb565b60c082015261679e60e08401616258565b60e08201526101006167b1818501616258565b81830152506101206167c48185016162d6565b81830152506101406167d78185016161de565b81830152506101606167ea8185016162eb565b8183015250809150505b92915050565b60006040828403121561680b578081fd5b6040516040810181811067ffffffffffffffff8211171561682857fe5b80604052508251815260208301516020820152809150505b92915050565b600060208284031215616857578081fd5b8135616862816175b0565b809150505b92915050565b60006000600060608486031215616882578081fd5b835161688d816175b0565b8093505060208401519150604084015190505b9250925092565b6000602082840312156168b8578081fd5b81356168c3816175d5565b809150505b92915050565b60006000604083850312156168e1578182fd5b82356168ec816175d5565b8092505060208301356168fe8161761d565b809150505b9250929050565b60006020828403121561691b578081fd5b813590505b92915050565b600060208284031215616937578081fd5b815190505b92915050565b600060006000600060808587031215616959578182fd5b84519350602085015161696b816175b0565b8093505060408501519150606085015190505b92959194509250565b600060006040838503121561699a578182fd5b82519150602083015190505b9250929050565b6000602082840312156169be578081fd5b81356169c981617604565b809150505b92915050565b6000602082840312156169e5578081fd5b81356169f08161761d565b809150505b92915050565b600060208284031215616a0c578081fd5b8151616a178161761d565b809150505b92915050565b6000600060006000600060006000600060006000600060006101808d8f031215616a4a57898afd5b8c516bffffffffffffffffffffffff811681141515616a67578a8bfd5b809c5050616a7760208e016161de565b9a50616a8560408e016161de565b9950616a9360608e016161de565b9850616aa160808e016162ac565b9750616aaf60a08e01616258565b9650616abd60c08e01616258565b9550616acb60e08e0161626d565b94506101008d015193506101208d01519250616aea6101408e0161626d565b9150616af96101608e0161626d565b90505b9295989b509295989b509295989b565b73ffffffffffffffffffffffffffffffffffffffff811682525b5050565b8060020b82525b5050565b6fffffffffffffffffffffffffffffffff811682525b5050565b61ffff811682525b5050565b62ffffff811682525b5050565b63ffffffff811682525b5050565b67ffffffffffffffff811682525b5050565b600060208201905073ffffffffffffffffffffffffffffffffffffffff831682525b92915050565b600060208201905073ffffffffffffffffffffffffffffffffffffffff831682525b92915050565b600060408201905073ffffffffffffffffffffffffffffffffffffffff841682528260208301525b9392505050565b600060608201905073ffffffffffffffffffffffffffffffffffffffff808616835280851660208401525062ffffff831660408301525b949350505050565b600060408201905073ffffffffffffffffffffffffffffffffffffffff841682528260208301525b9392505050565b600060608201905073ffffffffffffffffffffffffffffffffffffffff80861683528460208401528084166040840152505b949350505050565b600060208201905082151582525b92915050565b600060208201905073ffffffffffffffffffffffffffffffffffffffff831682525b92915050565b600060208201905073ffffffffffffffffffffffffffffffffffffffff831682525b92915050565b600060208201905073ffffffffffffffffffffffffffffffffffffffff831682525b92915050565b600060208201905073ffffffffffffffffffffffffffffffffffffffff831682525b92915050565b600060208201905073ffffffffffffffffffffffffffffffffffffffff831682525b92915050565b600060c08201905073ffffffffffffffffffffffffffffffffffffffff881682528660020b60208301528560020b60408301528460020b60608301526fffffffffffffffffffffffffffffffff8416608083015263ffffffff831660a08301525b979650505050505050565b600060608201905073ffffffffffffffffffffffffffffffffffffffff8416825282516020830152602083015160408301525b9392505050565b600060408201905073ffffffffffffffffffffffffffffffffffffffff841682526fffffffffffffffffffffffffffffffff831660208301525b9392505050565b600060408201905073ffffffffffffffffffffffffffffffffffffffff8416825263ffffffff831660208301525b9392505050565b60006060820190508460020b82528360020b60208301526fffffffffffffffffffffffffffffffff831660408301525b949350505050565b600060208252601660208301527f4c6971756964697479206e6f7420696e2072616e67650000000000000000000060408301526060820190505b919050565b600060208252601c60208301527f4d617820706572696f642077697468647261772065786365656465640000000060408301526060820190505b919050565b600060208252601260208301527f416c72656164792072656769737465726564000000000000000000000000000060408301526060820190505b919050565b600060208252601460208301527f496e63656e7469766520746f74616c206973203000000000000000000000000060408301526060820190505b919050565b600060208252601260208301527f506f736974696f6e20746f6f20736d616c6c000000000000000000000000000060408301526060820190505b919050565b600060208252600b60208301527f506f6f6c2065786973747300000000000000000000000000000000000000000060408301526060820190505b919050565b600060208252600e60208301527f496e76616c696420706f6f6c494400000000000000000000000000000000000060408301526060820190505b919050565b600060208252601260208301527f4e6f20666c617368206c6971756964697479000000000000000000000000000060408301526060820190505b919050565b600060208252600760208301527f496e76616c69640000000000000000000000000000000000000000000000000060408301526060820190505b919050565b60006080820190508251825273ffffffffffffffffffffffffffffffffffffffff602084015116602083015260408301516fffffffffffffffffffffffffffffffff808216604085015280606086015116606085015250505b92915050565b600060a082019050825182526fffffffffffffffffffffffffffffffff60208401511660208301526040830151604083015260608301516060830152608083015160808301525b92915050565b600060c082019050823582526020830135602083015260408301356040830152606083013560608301526080830135608083015260a083013560a08301525b92915050565b60006101608201905061721b828451616b0c565b602083015161722d6020840182616b0c565b5060408301516172406040840182616b5b565b5060608301516172536060840182616b2a565b5060808301516172666080840182616b2a565b5060a083015160a083015260c083015160c083015260e083015160e0830152610100808401518184015250610120808401516172a482850182616b0c565b50506101408084015181840152505b92915050565b600060408201905073ffffffffffffffffffffffffffffffffffffffff835116825267ffffffffffffffff60208401511660208301525b92915050565b60006020820190506fffffffffffffffffffffffffffffffff831682525b92915050565b600060208201905061ffff831682525b92915050565b60006020820190508282525b92915050565b600060408201905083825273ffffffffffffffffffffffffffffffffffffffff831660208301525b9392505050565b60006101a08201905083825261738b602083018451616b0c565b602083015161739d6040840182616b4f565b506040830151606083015260608301516080830152608083015160a083015260a08301516173ce60c0840182616b35565b5060c08301516173e160e0840182616b76565b5060e08301516101006173f681850183616b2a565b8085015191505061012061740c81850183616b2a565b8085015191505061014061742281850183616b68565b8085015191505061016061743881850183616b0c565b8085015191505061744d610180840182616b76565b505b9392505050565b60006040820190508382526fffffffffffffffffffffffffffffffff831660208301525b9392505050565b60006040820190508382528260208301525b9392505050565b600060408201905083825267ffffffffffffffff831660208301525b9392505050565b600060208201905063ffffffff831682525b92915050565b600060208201905063ffffffff831682525b92915050565b600060208201905067ffffffffffffffff831682525b92915050565b600060408201905067ffffffffffffffff8416825277ffffffffffffffffffffffffffffffffffffffffffffffff831660208301525b9392505050565b6000604051905081810181811067ffffffffffffffff8211171561756657fe5b80604052505b919050565b73ffffffffffffffffffffffffffffffffffffffff8116811415156175965760006000fd5b5b50565b8060020b811415156175ac5760006000fd5b5b50565b6fffffffffffffffffffffffffffffffff8116811415156175d15760006000fd5b5b50565b61ffff8116811415156175e85760006000fd5b5b50565b62ffffff8116811415156176005760006000fd5b5b50565b63ffffffff8116811415156176195760006000fd5b5b50565b67ffffffffffffffff8116811415156176365760006000fd5b5b50565bfea26469706673582212206b33d02e5d0b3021588ff5c58ad0cd38ff942d2b5482fd0adc6bbb5cafb6ee9b64736f6c63430007060033",
  "linkReferences": {},
  "deployedLinkReferences": {}
}