{
  "_format": "hh-sol-artifact-1",
  "contractName": "Rewards",
  "sourceName": "contracts/core/logic/Rewards.sol",
  "abi": [
    {
      "inputs": [
        {
          "components": [
            {
              "internalType": "contract IGovernor",
              "name": "Governor",
              "type": "address"
            },
            {
              "internalType": "contract IProtocolLock",
              "name": "ProtocolLock",
              "type": "address"
            },
            {
              "internalType": "contract IAccounting",
              "name": "Accounting",
              "type": "address"
            },
            {
              "internalType": "address",
              "name": "Weth",
              "type": "address"
            },
            {
              "internalType": "contract INonfungiblePositionManager",
              "name": "NftPositionManager",
              "type": "address"
            },
            {
              "internalType": "contract IUniswapV3Factory",
              "name": "UniswapV3Factory",
              "type": "address"
            }
          ],
          "internalType": "struct IRewards.ConstructorParams",
          "name": "params",
          "type": "tuple"
        }
      ],
      "stateMutability": "nonpayable",
      "type": "constructor"
    },
    {
      "anonymous": false,
      "inputs": [
        {
          "indexed": false,
          "internalType": "uint64",
          "name": "penalty",
          "type": "uint64"
        }
      ],
      "name": "LiquidationPenaltyUpdated",
      "type": "event"
    },
    {
      "anonymous": false,
      "inputs": [
        {
          "indexed": true,
          "internalType": "address",
          "name": "owner",
          "type": "address"
        },
        {
          "indexed": true,
          "internalType": "uint16",
          "name": "poolID",
          "type": "uint16"
        },
        {
          "indexed": true,
          "internalType": "uint256",
          "name": "nftID",
          "type": "uint256"
        },
        {
          "indexed": false,
          "internalType": "int24",
          "name": "tickLower",
          "type": "int24"
        },
        {
          "indexed": false,
          "internalType": "int24",
          "name": "tickUpper",
          "type": "int24"
        },
        {
          "indexed": false,
          "internalType": "uint128",
          "name": "liquidity",
          "type": "uint128"
        }
      ],
      "name": "LiquidityPositionCreated",
      "type": "event"
    },
    {
      "anonymous": false,
      "inputs": [
        {
          "indexed": true,
          "internalType": "uint256",
          "name": "nftID",
          "type": "uint256"
        },
        {
          "indexed": false,
          "internalType": "uint256",
          "name": "amount0",
          "type": "uint256"
        },
        {
          "indexed": false,
          "internalType": "uint256",
          "name": "amount1",
          "type": "uint256"
        }
      ],
      "name": "LiquidityPositionDecreased",
      "type": "event"
    },
    {
      "anonymous": false,
      "inputs": [
        {
          "indexed": true,
          "internalType": "uint256",
          "name": "nftID",
          "type": "uint256"
        },
        {
          "indexed": false,
          "internalType": "uint128",
          "name": "liquidity",
          "type": "uint128"
        }
      ],
      "name": "LiquidityPositionIncreased",
      "type": "event"
    },
    {
      "anonymous": false,
      "inputs": [
        {
          "indexed": true,
          "internalType": "uint256",
          "name": "nftID",
          "type": "uint256"
        },
        {
          "indexed": true,
          "internalType": "address",
          "name": "liquidator",
          "type": "address"
        }
      ],
      "name": "LiquidityPositionLiquidated",
      "type": "event"
    },
    {
      "anonymous": false,
      "inputs": [
        {
          "indexed": true,
          "internalType": "uint256",
          "name": "nftID",
          "type": "uint256"
        },
        {
          "indexed": false,
          "internalType": "uint256",
          "name": "amount0",
          "type": "uint256"
        },
        {
          "indexed": false,
          "internalType": "uint256",
          "name": "amount1",
          "type": "uint256"
        }
      ],
      "name": "LiquidityPositionRemoved",
      "type": "event"
    },
    {
      "anonymous": false,
      "inputs": [
        {
          "indexed": false,
          "internalType": "uint64",
          "name": "decreasePortion",
          "type": "uint64"
        }
      ],
      "name": "MaxCollateralLiquidityDecreasePerPeriodUpdated",
      "type": "event"
    },
    {
      "anonymous": false,
      "inputs": [
        {
          "indexed": false,
          "internalType": "uint128",
          "name": "min",
          "type": "uint128"
        }
      ],
      "name": "MinHueCountPerPositionUpdated",
      "type": "event"
    },
    {
      "anonymous": false,
      "inputs": [
        {
          "indexed": true,
          "internalType": "address",
          "name": "pool",
          "type": "address"
        },
        {
          "indexed": true,
          "internalType": "uint16",
          "name": "poolID",
          "type": "uint16"
        },
        {
          "indexed": false,
          "internalType": "uint64",
          "name": "rewardsPortion",
          "type": "uint64"
        }
      ],
      "name": "PoolAdded",
      "type": "event"
    },
    {
      "anonymous": false,
      "inputs": [
        {
          "indexed": true,
          "internalType": "uint16",
          "name": "poolID",
          "type": "uint16"
        },
        {
          "indexed": false,
          "internalType": "uint64",
          "name": "incentive",
          "type": "uint64"
        }
      ],
      "name": "PoolIncentiveUpdated",
      "type": "event"
    },
    {
      "anonymous": false,
      "inputs": [
        {
          "indexed": false,
          "internalType": "uint256",
          "name": "count",
          "type": "uint256"
        },
        {
          "indexed": false,
          "internalType": "uint64",
          "name": "periods",
          "type": "uint64"
        }
      ],
      "name": "RewardsAccrued",
      "type": "event"
    },
    {
      "anonymous": false,
      "inputs": [
        {
          "indexed": true,
          "internalType": "address",
          "name": "caller",
          "type": "address"
        },
        {
          "indexed": true,
          "internalType": "uint256",
          "name": "nftTokenID",
          "type": "uint256"
        },
        {
          "indexed": false,
          "internalType": "uint256",
          "name": "amount0",
          "type": "uint256"
        },
        {
          "indexed": false,
          "internalType": "uint256",
          "name": "amount1",
          "type": "uint256"
        }
      ],
      "name": "RewardsClaimed",
      "type": "event"
    },
    {
      "anonymous": false,
      "inputs": [
        {
          "indexed": true,
          "internalType": "address",
          "name": "account",
          "type": "address"
        },
        {
          "indexed": true,
          "internalType": "bool",
          "name": "isKickback",
          "type": "bool"
        },
        {
          "indexed": false,
          "internalType": "uint256",
          "name": "tcpRewards",
          "type": "uint256"
        }
      ],
      "name": "RewardsDistributed",
      "type": "event"
    },
    {
      "anonymous": false,
      "inputs": [],
      "name": "Stopped",
      "type": "event"
    },
    {
      "anonymous": false,
      "inputs": [
        {
          "indexed": false,
          "internalType": "uint64",
          "name": "duration",
          "type": "uint64"
        }
      ],
      "name": "TwapDurationUpdated",
      "type": "event"
    },
    {
      "inputs": [],
      "name": "accounting",
      "outputs": [
        {
          "internalType": "contract IAccounting",
          "name": "",
          "type": "address"
        }
      ],
      "stateMutability": "view",
      "type": "function"
    },
    {
      "inputs": [],
      "name": "accrueRewards",
      "outputs": [],
      "stateMutability": "nonpayable",
      "type": "function"
    },
    {
      "inputs": [
        {
          "internalType": "contract IUniswapV3Pool",
          "name": "pool",
          "type": "address"
        },
        {
          "internalType": "uint64",
          "name": "rewardsPortion",
          "type": "uint64"
        }
      ],
      "name": "addIncentivePool",
      "outputs": [],
      "stateMutability": "nonpayable",
      "type": "function"
    },
    {
      "inputs": [
        {
          "internalType": "uint256",
          "name": "nftTokenID",
          "type": "uint256"
        },
        {
          "internalType": "uint32",
          "name": "ui",
          "type": "uint32"
        }
      ],
      "name": "claimRewards",
      "outputs": [
        {
          "internalType": "uint256",
          "name": "amount0",
          "type": "uint256"
        },
        {
          "internalType": "uint256",
          "name": "amount1",
          "type": "uint256"
        }
      ],
      "stateMutability": "nonpayable",
      "type": "function"
    },
    {
      "inputs": [],
      "name": "countPools",
      "outputs": [
        {
          "internalType": "uint16",
          "name": "",
          "type": "uint16"
        }
      ],
      "stateMutability": "view",
      "type": "function"
    },
    {
      "inputs": [
        {
          "components": [
            {
              "internalType": "address",
              "name": "token0",
              "type": "address"
            },
            {
              "internalType": "address",
              "name": "token1",
              "type": "address"
            },
            {
              "internalType": "uint24",
              "name": "fee",
              "type": "uint24"
            },
            {
              "internalType": "int24",
              "name": "tickLower",
              "type": "int24"
            },
            {
              "internalType": "int24",
              "name": "tickUpper",
              "type": "int24"
            },
            {
              "internalType": "uint256",
              "name": "amount0Desired",
              "type": "uint256"
            },
            {
              "internalType": "uint256",
              "name": "amount1Desired",
              "type": "uint256"
            },
            {
              "internalType": "uint256",
              "name": "amount0Min",
              "type": "uint256"
            },
            {
              "internalType": "uint256",
              "name": "amount1Min",
              "type": "uint256"
            },
            {
              "internalType": "address",
              "name": "recipient",
              "type": "address"
            },
            {
              "internalType": "uint256",
              "name": "deadline",
              "type": "uint256"
            }
          ],
          "internalType": "struct INonfungiblePositionManager.MintParams",
          "name": "params",
          "type": "tuple"
        },
        {
          "internalType": "uint32",
          "name": "ui",
          "type": "uint32"
        }
      ],
      "name": "createLiquidityPosition",
      "outputs": [
        {
          "internalType": "uint256",
          "name": "nftTokenID",
          "type": "uint256"
        },
        {
          "internalType": "uint128",
          "name": "liquidity",
          "type": "uint128"
        }
      ],
      "stateMutability": "payable",
      "type": "function"
    },
    {
      "inputs": [],
      "name": "currentPeriod",
      "outputs": [
        {
          "internalType": "uint64",
          "name": "period",
          "type": "uint64"
        }
      ],
      "stateMutability": "view",
      "type": "function"
    },
    {
      "inputs": [
        {
          "components": [
            {
              "internalType": "uint256",
              "name": "tokenId",
              "type": "uint256"
            },
            {
              "internalType": "uint128",
              "name": "liquidity",
              "type": "uint128"
            },
            {
              "internalType": "uint256",
              "name": "amount0Min",
              "type": "uint256"
            },
            {
              "internalType": "uint256",
              "name": "amount1Min",
              "type": "uint256"
            },
            {
              "internalType": "uint256",
              "name": "deadline",
              "type": "uint256"
            }
          ],
          "internalType": "struct INonfungiblePositionManager.DecreaseLiquidityParams",
          "name": "params",
          "type": "tuple"
        },
        {
          "internalType": "uint32",
          "name": "ui",
          "type": "uint32"
        }
      ],
      "name": "decreaseLiquidityPosition",
      "outputs": [
        {
          "internalType": "uint256",
          "name": "amount0",
          "type": "uint256"
        },
        {
          "internalType": "uint256",
          "name": "amount1",
          "type": "uint256"
        }
      ],
      "stateMutability": "nonpayable",
      "type": "function"
    },
    {
      "inputs": [],
      "name": "deployer",
      "outputs": [
        {
          "internalType": "address",
          "name": "",
          "type": "address"
        }
      ],
      "stateMutability": "view",
      "type": "function"
    },
    {
      "inputs": [],
      "name": "firstPeriod",
      "outputs": [
        {
          "internalType": "uint64",
          "name": "",
          "type": "uint64"
        }
      ],
      "stateMutability": "view",
      "type": "function"
    },
    {
      "inputs": [],
      "name": "governor",
      "outputs": [
        {
          "internalType": "contract IGovernor",
          "name": "",
          "type": "address"
        }
      ],
      "stateMutability": "view",
      "type": "function"
    },
    {
      "inputs": [
        {
          "components": [
            {
              "internalType": "uint256",
              "name": "tokenId",
              "type": "uint256"
            },
            {
              "internalType": "uint256",
              "name": "amount0Desired",
              "type": "uint256"
            },
            {
              "internalType": "uint256",
              "name": "amount1Desired",
              "type": "uint256"
            },
            {
              "internalType": "uint256",
              "name": "amount0Min",
              "type": "uint256"
            },
            {
              "internalType": "uint256",
              "name": "amount1Min",
              "type": "uint256"
            },
            {
              "internalType": "uint256",
              "name": "deadline",
              "type": "uint256"
            }
          ],
          "internalType": "struct INonfungiblePositionManager.IncreaseLiquidityParams",
          "name": "params",
          "type": "tuple"
        },
        {
          "internalType": "uint32",
          "name": "ui",
          "type": "uint32"
        }
      ],
      "name": "increaseLiquidityPosition",
      "outputs": [
        {
          "internalType": "uint128",
          "name": "liquidity",
          "type": "uint128"
        }
      ],
      "stateMutability": "payable",
      "type": "function"
    },
    {
      "inputs": [
        {
          "internalType": "contract IUniswapV3Pool",
          "name": "_collateralPool",
          "type": "address"
        },
        {
          "internalType": "contract IUniswapV3Pool",
          "name": "_protocolPool",
          "type": "address"
        }
      ],
      "name": "init",
      "outputs": [],
      "stateMutability": "nonpayable",
      "type": "function"
    },
    {
      "inputs": [],
      "name": "lastPeriodGlobalRewardsAccrued",
      "outputs": [
        {
          "internalType": "uint64",
          "name": "",
          "type": "uint64"
        }
      ],
      "stateMutability": "view",
      "type": "function"
    },
    {
      "inputs": [
        {
          "internalType": "contract IUniswapV3Pool",
          "name": "pool",
          "type": "address"
        },
        {
          "internalType": "uint256[]",
          "name": "nftTokenIDs",
          "type": "uint256[]"
        }
      ],
      "name": "liquidateOutofRangePositions",
      "outputs": [],
      "stateMutability": "nonpayable",
      "type": "function"
    },
    {
      "inputs": [],
      "name": "liquidationPenalty",
      "outputs": [
        {
          "internalType": "uint64",
          "name": "",
          "type": "uint64"
        }
      ],
      "stateMutability": "view",
      "type": "function"
    },
    {
      "inputs": [],
      "name": "maxCollateralLiquidityDecreasePerPeriod",
      "outputs": [
        {
          "internalType": "uint64",
          "name": "",
          "type": "uint64"
        }
      ],
      "stateMutability": "view",
      "type": "function"
    },
    {
      "inputs": [
        {
          "internalType": "contract IUniswapV3Pool",
          "name": "",
          "type": "address"
        }
      ],
      "name": "minCollateralLiquidityByPeriod",
      "outputs": [
        {
          "internalType": "uint64",
          "name": "period",
          "type": "uint64"
        },
        {
          "internalType": "uint192",
          "name": "minLiquidity",
          "type": "uint192"
        }
      ],
      "stateMutability": "view",
      "type": "function"
    },
    {
      "inputs": [],
      "name": "minHueCountPerPosition",
      "outputs": [
        {
          "internalType": "uint128",
          "name": "",
          "type": "uint128"
        }
      ],
      "stateMutability": "view",
      "type": "function"
    },
    {
      "inputs": [],
      "name": "nftPositionManager",
      "outputs": [
        {
          "internalType": "contract INonfungiblePositionManager",
          "name": "",
          "type": "address"
        }
      ],
      "stateMutability": "view",
      "type": "function"
    },
    {
      "inputs": [],
      "name": "periodLength",
      "outputs": [
        {
          "internalType": "uint64",
          "name": "",
          "type": "uint64"
        }
      ],
      "stateMutability": "view",
      "type": "function"
    },
    {
      "inputs": [
        {
          "internalType": "uint16",
          "name": "",
          "type": "uint16"
        }
      ],
      "name": "poolConfigForPoolID",
      "outputs": [
        {
          "internalType": "contract IUniswapV3Pool",
          "name": "pool",
          "type": "address"
        },
        {
          "internalType": "uint64",
          "name": "rewardsPortion",
          "type": "uint64"
        }
      ],
      "stateMutability": "view",
      "type": "function"
    },
    {
      "inputs": [
        {
          "internalType": "contract IUniswapV3Pool",
          "name": "",
          "type": "address"
        }
      ],
      "name": "poolIDForPool",
      "outputs": [
        {
          "internalType": "uint16",
          "name": "",
          "type": "uint16"
        }
      ],
      "stateMutability": "view",
      "type": "function"
    },
    {
      "inputs": [
        {
          "internalType": "uint256",
          "name": "nftTokenID",
          "type": "uint256"
        }
      ],
      "name": "removeKickback",
      "outputs": [],
      "stateMutability": "nonpayable",
      "type": "function"
    },
    {
      "inputs": [
        {
          "components": [
            {
              "internalType": "uint256",
              "name": "tokenId",
              "type": "uint256"
            },
            {
              "internalType": "uint128",
              "name": "liquidity",
              "type": "uint128"
            },
            {
              "internalType": "uint256",
              "name": "amount0Min",
              "type": "uint256"
            },
            {
              "internalType": "uint256",
              "name": "amount1Min",
              "type": "uint256"
            },
            {
              "internalType": "uint256",
              "name": "deadline",
              "type": "uint256"
            }
          ],
          "internalType": "struct INonfungiblePositionManager.DecreaseLiquidityParams",
          "name": "params",
          "type": "tuple"
        }
      ],
      "name": "removeLiquidityPosition",
      "outputs": [
        {
          "internalType": "uint256",
          "name": "amount0",
          "type": "uint256"
        },
        {
          "internalType": "uint256",
          "name": "amount1",
          "type": "uint256"
        }
      ],
      "stateMutability": "nonpayable",
      "type": "function"
    },
    {
      "inputs": [
        {
          "internalType": "uint64",
          "name": "penalty",
          "type": "uint64"
        }
      ],
      "name": "setLiquidationPenalty",
      "outputs": [],
      "stateMutability": "nonpayable",
      "type": "function"
    },
    {
      "inputs": [
        {
          "internalType": "uint64",
          "name": "decreasePortion",
          "type": "uint64"
        }
      ],
      "name": "setMaxCollateralLiquidityDecreasePerPeriod",
      "outputs": [],
      "stateMutability": "nonpayable",
      "type": "function"
    },
    {
      "inputs": [
        {
          "internalType": "uint128",
          "name": "min",
          "type": "uint128"
        }
      ],
      "name": "setMinHueCountPerPosition",
      "outputs": [],
      "stateMutability": "nonpayable",
      "type": "function"
    },
    {
      "inputs": [
        {
          "internalType": "uint32",
          "name": "duration",
          "type": "uint32"
        }
      ],
      "name": "setTwapDuration",
      "outputs": [],
      "stateMutability": "nonpayable",
      "type": "function"
    },
    {
      "inputs": [],
      "name": "stop",
      "outputs": [],
      "stateMutability": "nonpayable",
      "type": "function"
    },
    {
      "inputs": [],
      "name": "stopped",
      "outputs": [
        {
          "internalType": "bool",
          "name": "",
          "type": "bool"
        }
      ],
      "stateMutability": "view",
      "type": "function"
    },
    {
      "inputs": [],
      "name": "twapDuration",
      "outputs": [
        {
          "internalType": "uint32",
          "name": "",
          "type": "uint32"
        }
      ],
      "stateMutability": "view",
      "type": "function"
    },
    {
      "inputs": [],
      "name": "uniswapV3Factory",
      "outputs": [
        {
          "internalType": "contract IUniswapV3Factory",
          "name": "",
          "type": "address"
        }
      ],
      "stateMutability": "view",
      "type": "function"
    },
    {
      "inputs": [
        {
          "internalType": "uint16",
          "name": "poolID",
          "type": "uint16"
        },
        {
          "internalType": "uint64",
          "name": "incentive",
          "type": "uint64"
        }
      ],
      "name": "updatePoolIncentive",
      "outputs": [],
      "stateMutability": "nonpayable",
      "type": "function"
    },
    {
      "inputs": [
        {
          "internalType": "bytes4",
          "name": "",
          "type": "bytes4"
        }
      ],
      "name": "validUpdate",
      "outputs": [
        {
          "internalType": "bool",
          "name": "",
          "type": "bool"
        }
      ],
      "stateMutability": "view",
      "type": "function"
    },
    {
      "inputs": [],
      "name": "weth",
      "outputs": [
        {
          "internalType": "address",
          "name": "",
          "type": "address"
        }
      ],
      "stateMutability": "view",
      "type": "function"
    },
    {
      "stateMutability": "payable",
      "type": "receive"
    }
  ],
  "bytecode": "0x6101806040526001600260005090905567016345785d8a0000600360006101000a81548167ffffffffffffffff021916908367ffffffffffffffff16021790555066d529ae9e860000600360086101000a81548167ffffffffffffffff021916908367ffffffffffffffff160217905550686c6b935b8bbd400000600360106101000a8154816fffffffffffffffffffffffffffffffff02191690836fffffffffffffffffffffffffffffffff160217905550610708600460006101000a81548163ffffffff021916908363ffffffff1602179055506000600460046101000a81548161ffff021916908361ffff160217905550348015620001015760006000fd5b5060405162007d9138038062007d918339818101604052810190620001279190620006b7565b5b6138405b816000015182602001515b815b8073ffffffffffffffffffffffffffffffffffffffff1660808173ffffffffffffffffffffffffffffffffffffffff1660601b815260140150505b508073ffffffffffffffffffffffffffffffffffffffff1660a08173ffffffffffffffffffffffffffffffffffffffff1660601b815260140150505b505060018167ffffffffffffffff16620001cf620005e560201b60201c565b67ffffffffffffffff16811515620001e357fe5b040367ffffffffffffffff1660e08167ffffffffffffffff1660c01b815260080150508067ffffffffffffffff1660c08167ffffffffffffffff1660c01b815260080150505b50806040015173ffffffffffffffffffffffffffffffffffffffff166101608173ffffffffffffffffffffffffffffffffffffffff1660601b81526014015050806060015173ffffffffffffffffffffffffffffffffffffffff166101008173ffffffffffffffffffffffffffffffffffffffff1660601b81526014015050806080015173ffffffffffffffffffffffffffffffffffffffff166101208173ffffffffffffffffffffffffffffffffffffffff1660601b815260140150508060a0015173ffffffffffffffffffffffffffffffffffffffff166101408173ffffffffffffffffffffffffffffffffffffffff1660601b8152601401505060006040518060c00160405280636161189060e01b7bffffffffffffffffffffffffffffffffffffffffffffffffffffffff19167bffffffffffffffffffffffffffffffffffffffffffffffffffffffff191681526020016328d10de860e01b7bffffffffffffffffffffffffffffffffffffffffffffffffffffffff19167bffffffffffffffffffffffffffffffffffffffffffffffffffffffff1916815260200163c7bd867c60e01b7bffffffffffffffffffffffffffffffffffffffffffffffffffffffff19167bffffffffffffffffffffffffffffffffffffffffffffffffffffffff1916815260200163de8925f560e01b7bffffffffffffffffffffffffffffffffffffffffffffffffffffffff19167bffffffffffffffffffffffffffffffffffffffffffffffffffffffff1916815260200163c433c80a60e01b7bffffffffffffffffffffffffffffffffffffffffffffffffffffffff19167bffffffffffffffffffffffffffffffffffffffffffffffffffffffff19168152602001630907653160e01b7bffffffffffffffffffffffffffffffffffffffffffffffffffffffff19167bffffffffffffffffffffffffffffffffffffffffffffffffffffffff191681526020015090506000600090505b815060068110156200059a5760016001600050600084846006811015156200052357fe5b60200201517bffffffffffffffffffffffffffffffffffffffffffffffffffffffff19167bffffffffffffffffffffffffffffffffffffffffffffffffffffffff1916815260200190815260200160002060006101000a81548160ff0219169083151502179055505b8080600101915050620004ff565b5033600860086101000a81548173ffffffffffffffffffffffffffffffffffffffff021916908373ffffffffffffffffffffffffffffffffffffffff160217905550505b506200078c565b6000620005ff426200060760201b62001df317909060201c565b905080505b90565b600068010000000000000000821015156200068d576040517f08c379a00000000000000000000000000000000000000000000000000000000081526004018080602001828103825260118152602001807f6d6f7265207468616e203634206269747300000000000000000000000000000081526020015060200191505060405180910390fd5b81905062000696565b919050566200078b565b600081519050620006b1816200076e565b5b919050565b600060c08284031215620006c9578081fd5b60405160c081018181106001600160401b0382111715620006e657fe5b80604052508251620006f8816200076e565b8082525060208301516200070c816200076e565b80602083015250604083015162000723816200076e565b806040830152506200073860608401620006a0565b60608201526200074b60808401620006a0565b60808201526200075e60a08401620006a0565b60a0820152809150505b92915050565b6001600160a01b03811681141515620007875760006000fd5b5b50565b5b60805160601c60a05160601c60c05160c01c60e05160c01c6101005160601c6101205160601c6101405160601c6101605160601c6174906200090160003980610a9952806113ab52806116fe52806118c852806123725280612b5c5280612ec752806132d25280613404528061389d528061399352806140dc52806141f852806142e75280614a115280614abe5280614b335280615277525080611073528061156e52508061025b52806118a452806126c352806127fa52806129b25280612be9528061332e528061360052806136e6528061471c52806147b05280614dbf528061542d5250806102b0528061144f52806146c85280614ca15280614d0152806157de52806158325250806119895280612d105280614484525080611a885280612d3152806144a5525080611e875280612c89525080610e715280611fa8528061213a52806124ba52806125be5280612d8a52806130c15280613b0c5280613fe852806143965280614fb852506174906000f3fe6080604052600436106102535760003560e01c80636161189011610138578063c4e3a63b116100b0578063de8925f51161007f578063f4d8977f11610064578063f4d8977f146108eb578063fbc3a6431461092a578063fbff7efd146109565761030d565b8063de8925f514610897578063f09a4016146108c15761030d565b8063c4e3a63b146107e9578063c7bd867c14610815578063d2ca21151461083f578063d5f394881461086b5761030d565b806381cc8807116101075780639624e83e116100ec5780639624e83e14610767578063bdd266cd14610793578063c433c80a146107bf5761030d565b806381cc8807146106fc578063843978881461073b5761030d565b8063616118901461063b57806361928ecf146106655780636fcdfed6146106a457806375f12b21146106d05761030d565b806323f5589a116101cb5780633e9483721161019a5780634b8295731161017f5780634b829573146105a157806350b40400146105df5780635b5491821461060f5761030d565b80633e9483721461054b5780633fc8cef3146105755761030d565b806323f5589a14610498578063265e8a64146104c457806326d89545146104f557806328d10de8146105215761030d565b80630c340a2411610222578063113cf1ab11610207578063113cf1ab1461040357806315398ae7146104415780631afdbce4146104805761030d565b80630c340a24146103ab5780630dae9f52146103d75761030d565b8063039d10e814610313578063060406181461033d57806307da68f51461036957806309076531146103815761030d565b3661030d575b7f000000000000000000000000000000000000000000000000000000000000000073ffffffffffffffffffffffffffffffffffffffff163373ffffffffffffffffffffffffffffffffffffffff1614806102fe57507f000000000000000000000000000000000000000000000000000000000000000073ffffffffffffffffffffffffffffffffffffffff163373ffffffffffffffffffffffffffffffffffffffff16145b151561030a5760006000fd5b5b005b60006000fd5b3480156103205760006000fd5b5061033b60048036038101906103369190616220565b610995565b005b34801561034a5760006000fd5b50610353610da3565b604051610360919061730c565b60405180910390f35b3480156103765760006000fd5b5061037f610dbb565b005b34801561038e5760006000fd5b506103a960048036038101906103a49190616809565b610ddb565b005b3480156103b85760006000fd5b506103c1610e6f565b6040516103ce9190616b20565b60405180910390f35b3480156103e45760006000fd5b506103ed610e93565b6040516103fa919061730c565b60405180910390f35b3480156104105760006000fd5b5061042b60048036038101906104269190616185565b610ead565b6040516104389190616ae4565b60405180910390f35b34801561044e5760006000fd5b5061046960048036038101906104649190616387565b610ed2565b6040516104779291906172a0565b60405180910390f35b34801561048d5760006000fd5b50610496610ff1565b005b3480156104a55760006000fd5b506104ae61102e565b6040516104bb919061730c565b60405180910390f35b6104de60048036038101906104d9919061643b565b611048565b6040516104ec929190617275565b60405180910390f35b3480156105025760006000fd5b5061050b61123d565b60405161051891906172dc565b60405180910390f35b34801561052e5760006000fd5b50610549600480360381019061054491906166d2565b611253565b005b3480156105585760006000fd5b50610573600480360381019061056e919061670e565b61135d565b005b3480156105825760006000fd5b5061058b61144d565b60405161059891906169bd565b60405180910390f35b3480156105ae5760006000fd5b506105c960048036038101906105c491906161f9565b611471565b6040516105d69190617111565b60405180910390f35b6105f960048036038101906105f491906163fc565b611497565b60405161060691906170ed565b60405180910390f35b34801561061c5760006000fd5b5061062561156c565b6040516106329190616b70565b60405180910390f35b3480156106485760006000fd5b50610663600480360381019061065e91906162e5565b611590565b005b3480156106725760006000fd5b5061068d600480360381019061068891906167b1565b6116ad565b60405161069b9291906172a0565b60405180910390f35b3480156106b15760006000fd5b506106ba61181c565b6040516106c79190617111565b60405180910390f35b3480156106dd5760006000fd5b506106e6611830565b6040516106f39190616ae4565b60405180910390f35b3480156107095760006000fd5b50610724600480360381019061071f91906161f9565b611843565b604051610732929190617328565b60405180910390f35b3480156107485760006000fd5b506107516118a2565b60405161075e9190616b48565b60405180910390f35b3480156107745760006000fd5b5061077d6118c6565b60405161078a9190616af8565b60405180910390f35b3480156107a05760006000fd5b506107a96118ea565b6040516107b6919061730c565b60405180910390f35b3480156107cc5760006000fd5b506107e760048036038101906107e291906167e2565b611904565b005b3480156107f65760006000fd5b506107ff611987565b60405161080c919061730c565b60405180910390f35b3480156108225760006000fd5b5061083d60048036038101906108389190616809565b6119ab565b005b34801561084c5760006000fd5b50610855611a86565b604051610862919061730c565b60405180910390f35b3480156108785760006000fd5b50610881611aaa565b60405161088e91906169bd565b60405180910390f35b3480156108a45760006000fd5b506108bf60048036038101906108ba919061664a565b611ad0565b005b3480156108ce5760006000fd5b506108e960048036038101906108e491906162a9565b611b53565b005b3480156108f85760006000fd5b50610913600480360381019061090e9190616348565b611c4d565b6040516109219291906172a0565b60405180910390f35b3480156109375760006000fd5b50610940611d76565b60405161094d91906170ed565b60405180910390f35b3480156109635760006000fd5b5061097e600480360381019061097991906166ab565b611d98565b60405161098c929190616ca2565b60405180910390f35b6109a3611e8563ffffffff16565b6109b1611f9863ffffffff16565b6000600660005060008573ffffffffffffffffffffffffffffffffffffffff1673ffffffffffffffffffffffffffffffffffffffff16815260200190815260200160002060009054906101000a900461ffff169050610a15816120c563ffffffff16565b610a1d615f1a565b6000848490509050600043905060006040518060400160405280600115158152602001610a4f8a61213663ffffffff16565b60020b8152602001509050610a62615fe0565b610a7061228263ffffffff16565b67ffffffffffffffff1681608001909081815260200150506000600090505b84811015610d86577f000000000000000000000000000000000000000000000000000000000000000073ffffffffffffffffffffffffffffffffffffffff1663f34348f18a8a848181101515610ae157fe5b905060200201356040518263ffffffff1660e01b8152600401610b04919061714f565b6101806040518083038186803b158015610b1e5760006000fd5b505afa158015610b33573d600060003e3d6000fd5b505050506040513d601f19601f82011682018060405250810190610b57919061651c565b955085508661ffff16866020015161ffff16141515610b7557610d79565b610b8986846020015161229d63ffffffff16565b15610b9357610d79565b838660800151101515610ba557610d79565b610bb4866122d063ffffffff16565b955085508888828181101515610bc657fe5b905060200201358260000190908181526020015050610bf782600001516000600089600001516126bd63ffffffff16565b5050610c52610c45600360089054906101000a900467ffffffffffffffff1667ffffffffffffffff168860a001516fffffffffffffffffffffffffffffffff166128ec90919063ffffffff16565b612912909063ffffffff16565b82602001906fffffffffffffffffffffffffffffffff1690816fffffffffffffffffffffffffffffffff1681526020015050610c9482336129ac63ffffffff16565b5050610cc382602001518760a001516fffffffffffffffffffffffffffffffff16612a9790919063ffffffff16565b82602001906fffffffffffffffffffffffffffffffff1690816fffffffffffffffffffffffffffffffff1681526020015050610d098287600001516129ac63ffffffff16565b5050610d2082600001518785612b4463ffffffff16565b3373ffffffffffffffffffffffffffffffffffffffff168989838181101515610d4557fe5b905060200201357f6ba13b7ae6048936f291047829a5de36835ad46b52453fff379900999074709260405160405180910390a35b8080600101915050610a8f565b505050505050505b5b610d9d612c7a63ffffffff16565b5b505050565b6000610db3612d0c63ffffffff16565b905080505b90565b610dc9612d8563ffffffff16565b610dd7612de563ffffffff16565b5b5b565b610de9612d8563ffffffff16565b6706f05b59d3b200008167ffffffffffffffff16101515610e0a5760006000fd5b80600360086101000a81548167ffffffffffffffff021916908367ffffffffffffffff1602179055507f78244e8e46597270e2f0ae9c6baded3ba10f1b3f03316f89e49bbfeb1c06786881604051610e62919061730c565b60405180910390a15b5b50565b7f000000000000000000000000000000000000000000000000000000000000000081565b600860009054906101000a900467ffffffffffffffff1681565b600160005060205280600052604060002060009150909054906101000a900460ff1681565b60006000610ee4611e8563ffffffff16565b610ef2612e2f63ffffffff16565b6000610f078460000151612eba63ffffffff16565b9050610f1c8160800151612fce63ffffffff16565b8060a0015184602001906fffffffffffffffffffffffffffffffff1690816fffffffffffffffffffffffffffffffff1681526020015050610f678482600001516129ac63ffffffff16565b8093508194505050610f91846000015182610f8661301663ffffffff16565b612b4463ffffffff16565b83600001517f1bd2c24817047e88025a4688c0fba3903e750cc05d80857de4201f42ec59bcf28484604051610fc79291906172a0565b60405180910390a282829250925050610fdc56505b5b610feb612c7a63ffffffff16565b5b915091565b610fff611e8563ffffffff16565b61100d612e2f63ffffffff16565b61101b61302263ffffffff16565b5b5b61102b612c7a63ffffffff16565b5b565b600360089054906101000a900467ffffffffffffffff1681565b6000600061105a611e8563ffffffff16565b611068611f9863ffffffff16565b6000600660005060007f000000000000000000000000000000000000000000000000000000000000000073ffffffffffffffffffffffffffffffffffffffff16631698ee82886000015189602001518a604001516040518463ffffffff1660e01b81526004016110da93929190616a3c565b60206040518083038186803b1580156110f35760006000fd5b505afa158015611108573d600060003e3d6000fd5b505050506040513d601f19601f8201168201806040525081019061112c9190616131565b73ffffffffffffffffffffffffffffffffffffffff1673ffffffffffffffffffffffffffffffffffffffff16815260200190815260200160002060009054906101000a900461ffff169050611186816120c563ffffffff16565b6111958561329c63ffffffff16565b80935081945050506111b9838287606001518860800151868961340263ffffffff16565b828161ffff163373ffffffffffffffffffffffffffffffffffffffff167f87c666eb8f5e2d1a47a2af419127c84ea830d86b5f75e12ca3dafa33323d9122886060015189608001518760405161121193929190616cdb565b60405180910390a48282925092505061122656505b5b611235612c7a63ffffffff16565b5b9250929050565b600460009054906101000a900463ffffffff1681565b611261612d8563ffffffff16565b611270826120c563ffffffff16565b61127e61302263ffffffff16565b80600560005060008461ffff1661ffff16815260200190815260200160002060005060000160146101000a81548167ffffffffffffffff021916908367ffffffffffffffff16021790555060006112d961355b63ffffffff16565b11151561131b576040517f08c379a000000000000000000000000000000000000000000000000000000000815260040161131290616dd0565b60405180910390fd5b8161ffff167fcf476913af040a8c0a50588902fc980c73de756444694afb625e05906334404f8260405161134f919061730c565b60405180910390a25b5b5050565b61136b611e8563ffffffff16565b611379611f9863ffffffff16565b600061138a82612eba63ffffffff16565b9050600081610120019063ffffffff16908163ffffffff16815260200150507f000000000000000000000000000000000000000000000000000000000000000073ffffffffffffffffffffffffffffffffffffffff1663816aaa2583836040518363ffffffff1660e01b8152600401611404929190617190565b600060405180830381600087803b15801561141f5760006000fd5b505af1158015611434573d600060003e3d6000fd5b50505050505b5b611449612c7a63ffffffff16565b5b50565b7f000000000000000000000000000000000000000000000000000000000000000081565b600660005060205280600052604060002060009150909054906101000a900461ffff1681565b60006114a7611e8563ffffffff16565b6114b5611f9863ffffffff16565b60006114ca8460000135612eba63ffffffff16565b90508281610120019063ffffffff16908163ffffffff16815260200150506114f7846135f863ffffffff16565b91508150611510818560000135846137b063ffffffff16565b83600001357fcc5b49b47bfd2f61894e4c8977343543aa054a11ae847be904355459ce55dcd98360405161154491906170ed565b60405180910390a28191505061155656505b5b611565612c7a63ffffffff16565b5b92915050565b7f000000000000000000000000000000000000000000000000000000000000000081565b61159e612d8563ffffffff16565b6000600660005060008473ffffffffffffffffffffffffffffffffffffffff1673ffffffffffffffffffffffffffffffffffffffff16815260200190815260200160002060009054906101000a900461ffff1661ffff16141515611637576040517f08c379a000000000000000000000000000000000000000000000000000000000815260040161162e90616e4e565b60405180910390fd5b61164561302263ffffffff16565b6116558282613a2863ffffffff16565b61ffff168273ffffffffffffffffffffffffffffffffffffffff167fb42c51dce17f5346a481b9dd503edc20c8b6de38b22e12b35a5c77c131fb38ac8360405161169f919061730c565b60405180910390a35b5b5050565b600060006116bf611e8563ffffffff16565b6116cd612e2f63ffffffff16565b60006116de85612eba63ffffffff16565b90508381610120019063ffffffff16908163ffffffff16815260200150507f000000000000000000000000000000000000000000000000000000000000000073ffffffffffffffffffffffffffffffffffffffff1663816aaa2586836040518363ffffffff1660e01b8152600401611757929190617190565b600060405180830381600087803b1580156117725760006000fd5b505af1158015611787573d600060003e3d6000fd5b5050505061179f8560006000336126bd63ffffffff16565b8093508194505050843373ffffffffffffffffffffffffffffffffffffffff167f56253d287efacdb2c4cd76dd03624a4821c1ce721d1152e8f5f5718f6087c9bf85856040516117f09291906172a0565b60405180910390a38282925092505061180556505b5b611814612c7a63ffffffff16565b5b9250929050565b600460049054906101000a900461ffff1681565b600060009054906101000a900460ff1681565b60076000506020528060005260406000206000915090508060000160009054906101000a900467ffffffffffffffff16908060000160089054906101000a900477ffffffffffffffffffffffffffffffffffffffffffffffff16905082565b7f000000000000000000000000000000000000000000000000000000000000000081565b7f000000000000000000000000000000000000000000000000000000000000000081565b600360009054906101000a900467ffffffffffffffff1681565b611912612d8563ffffffff16565b61012c8163ffffffff161015151561192a5760006000fd5b80600460006101000a81548163ffffffff021916908363ffffffff1602179055507f811ba52920ff121eccd59ee98068330fc6736094b9a3fab10ada70fb0cd2f3708160405161197a91906172f4565b60405180910390a15b5b50565b7f000000000000000000000000000000000000000000000000000000000000000081565b6119b9612d8563ffffffff16565b80600360006101000a81548167ffffffffffffffff021916908367ffffffffffffffff160217905550600360009054906101000a900467ffffffffffffffff1667ffffffffffffffff166000101515611a125760006000fd5b670de0b6b3a7640000600360009054906101000a900467ffffffffffffffff1667ffffffffffffffff1611151515611a4a5760006000fd5b7f41785a43e8509555b296851de25b00003ca4ca1c572c807cb301d4a0fb9582d481604051611a79919061730c565b60405180910390a15b5b50565b7f000000000000000000000000000000000000000000000000000000000000000081565b600860089054906101000a900473ffffffffffffffffffffffffffffffffffffffff1681565b611ade612d8563ffffffff16565b80600360106101000a8154816fffffffffffffffffffffffffffffffff02191690836fffffffffffffffffffffffffffffffff1602179055507f755043e33e8e4c87253e98c56c011cc9905bf88318997b89b3520a54b3c5f17081604051611b4691906170ed565b60405180910390a15b5b50565b611bb2600860089054906101000a900473ffffffffffffffffffffffffffffffffffffffff1673ffffffffffffffffffffffffffffffffffffffff163373ffffffffffffffffffffffffffffffffffffffff1614613e9263ffffffff16565b600860086101000a81549073ffffffffffffffffffffffffffffffffffffffff0219169055600161ffff16611bef83610bb8613a2863ffffffff16565b61ffff16141515611c35576040517f08c379a0000000000000000000000000000000000000000000000000000000008152600401611c2c90616f0b565b60405180910390fd5b611c47816103e8613a2863ffffffff16565b505b5050565b60006000611c5f611e8563ffffffff16565b611c6d611f9863ffffffff16565b6000611c828560000135612eba63ffffffff16565b9050611c978160800151612fce63ffffffff16565b8381610120019063ffffffff16908163ffffffff1681526020015050611cd785803603810190611cc79190616387565b82600001516129ac63ffffffff16565b8093508194505050611d14818660000135876020016020810190611cfb919061664a565b611d0961301663ffffffff16565b613f0e63ffffffff16565b84600001357ffafb1711250bf0d3906bfd9c4386a9a5a5fdf9ac1facdc9dfd2addad7d3f72e78484604051611d4a9291906172a0565b60405180910390a281829250925050611d5f56505b5b611d6e612c7a63ffffffff16565b5b9250929050565b600360109054906101000a90046fffffffffffffffffffffffffffffffff1681565b60056000506020528060005260406000206000915090508060000160009054906101000a900473ffffffffffffffffffffffffffffffffffffffff16908060000160149054906101000a900467ffffffffffffffff16905082565b60006801000000000000000082101515611e78576040517f08c379a00000000000000000000000000000000000000000000000000000000081526004018080602001828103825260118152602001807f6d6f7265207468616e203634206269747300000000000000000000000000000081526020015060200191505060405180910390fd5b819050611e80565b919050565b7f000000000000000000000000000000000000000000000000000000000000000073ffffffffffffffffffffffffffffffffffffffff1663e97dcb626040518163ffffffff1660e01b8152600401600060405180830381600087803b158015611eee5760006000fd5b505af1158015611f03573d600060003e3d6000fd5b50505050600260026000505414151515611f88576040517f08c379a000000000000000000000000000000000000000000000000000000000815260040180806020018281038252600d8152602001807f4c50205265656e7472616e63790000000000000000000000000000000000000081526020015060200191505060405180910390fd5b600260026000508190909055505b565b611fa6612e2f63ffffffff16565b7f000000000000000000000000000000000000000000000000000000000000000073ffffffffffffffffffffffffffffffffffffffff1663bf86d6906040518163ffffffff1660e01b815260040160206040518083038186803b15801561200d5760006000fd5b505afa158015612022573d600060003e3d6000fd5b505050506040513d60208110156120395760006000fd5b81019080805190602001909291905050501515156120c2576040517f08c379a00000000000000000000000000000000000000000000000000000000081526004018080602001828103825260118152602001807f50726f746f636f6c2073687574646f776e00000000000000000000000000000081526020015060200191505060405180910390fd5b5b565b8061ffff1660001080156120f15750600460049054906101000a900461ffff1661ffff168161ffff1611155b1515612132576040517f08c379a000000000000000000000000000000000000000000000000000000000815260040161212990616e8d565b60405180910390fd5b5b50565b60007f000000000000000000000000000000000000000000000000000000000000000073ffffffffffffffffffffffffffffffffffffffff1663d3419bf36040518163ffffffff1660e01b815260040160206040518083038186803b15801561219f5760006000fd5b505afa1580156121b4573d600060003e3d6000fd5b505050506040513d601f19601f820116820180604052508101906121d891906161d2565b73ffffffffffffffffffffffffffffffffffffffff1663fcebd71c83600460009054906101000a900463ffffffff166040518363ffffffff1660e01b8152600401612224929190616c6d565b60206040518083038186803b15801561223d5760006000fd5b505afa158015612252573d600060003e3d6000fd5b505050506040513d601f19601f820116820180604052508101906122769190616321565b905061227d565b919050565b600061229542611df3909063ffffffff16565b905080505b90565b60008160020b8360e0015160020b131580156122c3575082610100015160020b8260020b125b90506122ca565b92915050565b6122d8615f1a565b60006122e861437e63ffffffff16565b905060006122fb8261447d63ffffffff16565b905060008460c001519050600060008267ffffffffffffffff161461232e576123298261447d63ffffffff16565b612331565b60005b90508067ffffffffffffffff168367ffffffffffffffff1611151561235c57859450505050506126b8565b61236a61302263ffffffff16565b600061242b877f000000000000000000000000000000000000000000000000000000000000000073ffffffffffffffffffffffffffffffffffffffff166351ad51f78a602001516040518263ffffffff1660e01b81526004016123cd9190617111565b60406040518083038186803b1580156123e65760006000fd5b505afa1580156123fb573d600060003e3d6000fd5b505050506040513d601f19601f8201168201806040525081019061241f91906165fe565b8761450563ffffffff16565b809250819750505060008111156126a657600073ffffffffffffffffffffffffffffffffffffffff1686610140015173ffffffffffffffffffffffffffffffffffffffff161415801561248d5750600086610160015167ffffffffffffffff16115b156125bc5760006124b687610160015167ffffffffffffffff16836128ec90919063ffffffff16565b90507f000000000000000000000000000000000000000000000000000000000000000073ffffffffffffffffffffffffffffffffffffffff16634d6729f5886101400151836040518363ffffffff1660e01b8152600401612518929190616a7b565b600060405180830381600087803b1580156125335760006000fd5b505af1158015612548573d600060003e3d6000fd5b505050506001151587610140015173ffffffffffffffffffffffffffffffffffffffff167f8079a05488a0f375c08504c3ba8b3a1371f5a192b7a141bc9294ef7ad41389d98360405161259b919061714f565b60405180910390a36125b6818361463d90919063ffffffff16565b91508150505b7f000000000000000000000000000000000000000000000000000000000000000073ffffffffffffffffffffffffffffffffffffffff16634d6729f58760000151836040518363ffffffff1660e01b815260040161261b929190616a7b565b600060405180830381600087803b1580156126365760006000fd5b505af115801561264b573d600060003e3d6000fd5b5050505060001515866000015173ffffffffffffffffffffffffffffffffffffffff167f8079a05488a0f375c08504c3ba8b3a1371f5a192b7a141bc9294ef7ad41389d98360405161269d919061714f565b60405180910390a35b85955050505050506126b85650505050505b919050565b600060007f000000000000000000000000000000000000000000000000000000000000000073ffffffffffffffffffffffffffffffffffffffff1663fc6f78656040518060800160405280898152602001600073ffffffffffffffffffffffffffffffffffffffff1681526020016fffffffffffffffffffffffffffffffff6fffffffffffffffffffffffffffffffff1681526020016fffffffffffffffffffffffffffffffff6fffffffffffffffffffffffffffffffff168152602001506040518263ffffffff1660e01b81526004016127989190616f4a565b604060405180830381600087803b1580156127b35760006000fd5b505af11580156127c8573d600060003e3d6000fd5b505050506040513d601f19601f820116820180604052508101906127ec919061678b565b8092508193505050600060007f000000000000000000000000000000000000000000000000000000000000000073ffffffffffffffffffffffffffffffffffffffff166399fbab88896040518263ffffffff1660e01b8152600401612851919061714f565b6101806040518083038186803b15801561286b5760006000fd5b505afa158015612880573d600060003e3d6000fd5b505050506040513d601f19601f820116820180604052508101906128a49190616857565b50505050505050509350935050506128c38288876146c663ffffffff16565b6128d48187876146c663ffffffff16565b83839350935050506128e35650505b94509492505050565b60006129078383670de0b6b3a764000061484663ffffffff16565b905080505b92915050565b60007001000000000000000000000000000000008210151561299f576040517f08c379a00000000000000000000000000000000000000000000000000000000081526004018080602001828103825260128152602001807f6d6f7265207468616e203132382062697473000000000000000000000000000081526020015060200191505060405180910390fd5b8190506129a7565b919050565b600060007f000000000000000000000000000000000000000000000000000000000000000073ffffffffffffffffffffffffffffffffffffffff16630c49ccbe856040518263ffffffff1660e01b8152600401612a099190616fa9565b604060405180830381600087803b158015612a245760006000fd5b505af1158015612a39573d600060003e3d6000fd5b505050506040513d601f19601f82011682018060405250810190612a5d919061678b565b8092508193505050612a83846000015185604001518660600151866126bd63ffffffff16565b5050808191509150612a90565b9250929050565b6000826fffffffffffffffffffffffffffffffff168284039150816fffffffffffffffffffffffffffffffff1611151515612b3d576040517f08c379a000000000000000000000000000000000000000000000000000000000815260040180806020018281038252600d8152602001807f7375622d756e646572666c6f770000000000000000000000000000000000000081526020015060200191505060405180910390fd5b5b92915050565b612b5a82848460a0015184613f0e63ffffffff16565b7f000000000000000000000000000000000000000000000000000000000000000073ffffffffffffffffffffffffffffffffffffffff166326879a4e846040518263ffffffff1660e01b8152600401612bb3919061714f565b600060405180830381600087803b158015612bce5760006000fd5b505af1158015612be3573d600060003e3d6000fd5b505050507f000000000000000000000000000000000000000000000000000000000000000073ffffffffffffffffffffffffffffffffffffffff166342966c68846040518263ffffffff1660e01b8152600401612c40919061714f565b600060405180830381600087803b158015612c5b5760006000fd5b505af1158015612c70573d600060003e3d6000fd5b505050505b505050565b600160026000508190909055507f000000000000000000000000000000000000000000000000000000000000000073ffffffffffffffffffffffffffffffffffffffff1663e9fad8ee6040518163ffffffff1660e01b8152600401600060405180830381600087803b158015612cf05760006000fd5b505af1158015612d05573d600060003e3d6000fd5b505050505b565b60007f00000000000000000000000000000000000000000000000000000000000000007f000000000000000000000000000000000000000000000000000000000000000067ffffffffffffffff16612d6861228263ffffffff16565b67ffffffffffffffff16811515612d7b57fe5b0403905080505b90565b612de27f000000000000000000000000000000000000000000000000000000000000000073ffffffffffffffffffffffffffffffffffffffff163373ffffffffffffffffffffffffffffffffffffffff1614613e9263ffffffff16565b5b565b6001600060006101000a81548160ff0219169083151502179055507f7acc84e34091ae817647a4c49116f5cc07f319078ba80f8f5fde37ea7e25cbd660405160405180910390a15b565b600060009054906101000a900460ff16151515612eb7576040517f08c379a00000000000000000000000000000000000000000000000000000000081526004018080602001828103825260138152602001807f436f6e74726163742069732073746f707065640000000000000000000000000081526020015060200191505060405180910390fd5b5b565b612ec2615f1a565b612f7c7f000000000000000000000000000000000000000000000000000000000000000073ffffffffffffffffffffffffffffffffffffffff1663f34348f1846040518263ffffffff1660e01b8152600401612f1e919061714f565b6101806040518083038186803b158015612f385760006000fd5b505afa158015612f4d573d600060003e3d6000fd5b505050506040513d601f19601f82011682018060405250810190612f71919061651c565b6122d063ffffffff16565b90508050612fc1816000015173ffffffffffffffffffffffffffffffffffffffff163373ffffffffffffffffffffffffffffffffffffffff1614613e9263ffffffff16565b809050612fc9565b919050565b4381101515613012576040517f08c379a000000000000000000000000000000000000000000000000000000000815260040161300990616ecc565b60405180910390fd5b5b50565b61301e616024565b5b90565b600061303261494763ffffffff16565b9050600860009054906101000a900467ffffffffffffffff1667ffffffffffffffff168167ffffffffffffffff1611151561306d575061329a565b6000600860009054906101000a900467ffffffffffffffff1682039050600061384067ffffffffffffffff16620151808115156130a657fe5b0467ffffffffffffffff1661316f8367ffffffffffffffff167f000000000000000000000000000000000000000000000000000000000000000073ffffffffffffffffffffffffffffffffffffffff166318c7de176040518163ffffffff1660e01b8152600401602060405180830381600087803b1580156131285760006000fd5b505af115801561313d573d600060003e3d6000fd5b505050506040513d601f19601f82011682018060405250810190613161919061672a565b61496f90919063ffffffff16565b81151561317857fe5b0490506000600460049054906101000a900461ffff169050600060006131a261355b63ffffffff16565b90506001915081505b8261ffff168261ffff161115156132315761322382613217600560005060008661ffff1661ffff16815260200190815260200160002060005060000160149054906101000a900467ffffffffffffffff1667ffffffffffffffff1684886148469092919063ffffffff16565b87614a0d63ffffffff16565b5b81806001019250506131ab565b85600860006101000a81548167ffffffffffffffff021916908367ffffffffffffffff1602179055507f095a67d1e9698fe0eebf9cff79a22f6423cebcb4e386a0bdd7e12330d86381ed848660405161328b9291906172b9565b60405180910390a15050505050505b565b600060006132b883600001518460a00151614c9f63ffffffff16565b6132d083602001518460c00151614c9f63ffffffff16565b7f000000000000000000000000000000000000000000000000000000000000000083610120019073ffffffffffffffffffffffffffffffffffffffff16908173ffffffffffffffffffffffffffffffffffffffff16815260200150507f000000000000000000000000000000000000000000000000000000000000000073ffffffffffffffffffffffffffffffffffffffff166388316456846040518263ffffffff1660e01b8152600401613385919061703b565b608060405180830381600087803b1580156133a05760006000fd5b505af11580156133b5573d600060003e3d6000fd5b505050506040513d601f19601f820116820180604052508101906133d99190616746565b90505080925081935050506133fc83600001518460200151614d9f63ffffffff16565b5b915091565b7f000000000000000000000000000000000000000000000000000000000000000073ffffffffffffffffffffffffffffffffffffffff166375ea13ca33886040518363ffffffff1660e01b815260040161345d929190616a0d565b600060405180830381600087803b1580156134785760006000fd5b505af115801561348d573d600060003e3d6000fd5b50505050613499615f1a565b33816000019073ffffffffffffffffffffffffffffffffffffffff16908173ffffffffffffffffffffffffffffffffffffffff168152602001505085816020019061ffff16908161ffff1681526020015050848160e0019060020b908160020b815260200150508381610100019060020b908160020b815260200150508181610120019063ffffffff16908163ffffffff1681526020015050613551613544826122d063ffffffff16565b88856137b063ffffffff16565b505b505050505050565b60006000600190505b600460049054906101000a900461ffff1661ffff168161ffff161115156135ec576135da600560005060008361ffff1661ffff16815260200190815260200160002060005060000160149054906101000a900467ffffffffffffffff1667ffffffffffffffff1683614e5e90919063ffffffff16565b915081505b8080600101915050613564565b508090506135f5565b90565b6000600060007f000000000000000000000000000000000000000000000000000000000000000073ffffffffffffffffffffffffffffffffffffffff166399fbab8885600001356040518263ffffffff1660e01b815260040161365b919061714f565b6101806040518083038186803b1580156136755760006000fd5b505afa15801561368a573d600060003e3d6000fd5b505050506040513d601f19601f820116820180604052508101906136ae9190616857565b50505050505050509350935050506136d0828560200135614c9f63ffffffff16565b6136e4818560400135614c9f63ffffffff16565b7f000000000000000000000000000000000000000000000000000000000000000073ffffffffffffffffffffffffffffffffffffffff1663219f5d17856040518263ffffffff1660e01b815260040161373d9190616ff6565b606060405180830381600087803b1580156137585760006000fd5b505af115801561376d573d600060003e3d6000fd5b505050506040513d601f19601f820116820180604052508101906137919190616671565b905050809350506137a88282614d9f63ffffffff16565b50505b919050565b600060056000506000856020015161ffff1661ffff16815260200190815260200160002060005060000160009054906101000a900473ffffffffffffffffffffffffffffffffffffffff169050600061380e8261213663ffffffff16565b9050613820858261229d63ffffffff16565b1515613861576040517f08c379a000000000000000000000000000000000000000000000000000000000815260040161385890616d13565b60405180910390fd5b61389b858284613890878a60a001516fffffffffffffffffffffffffffffffff16614ee790919063ffffffff16565b614f9463ffffffff16565b7f000000000000000000000000000000000000000000000000000000000000000073ffffffffffffffffffffffffffffffffffffffff16631428561d83856040518363ffffffff1660e01b81526004016138f6929190616c2c565b600060405180830381600087803b1580156139115760006000fd5b505af1158015613926573d600060003e3d6000fd5b50505050670de0b6b3a7640000600360009054906101000a900467ffffffffffffffff1667ffffffffffffffff1610801561396d5750600161ffff16856020015161ffff16145b15613982576139818261518f63ffffffff16565b5b4385608001909081815260200150507f000000000000000000000000000000000000000000000000000000000000000073ffffffffffffffffffffffffffffffffffffffff1663816aaa2585876040518363ffffffff1660e01b81526004016139ec929190617190565b600060405180830381600087803b158015613a075760006000fd5b505af1158015613a1c573d600060003e3d6000fd5b5050505050505b505050565b60006000600660005060008573ffffffffffffffffffffffffffffffffffffffff1673ffffffffffffffffffffffffffffffffffffffff16815260200190815260200160002060009054906101000a900461ffff1661ffff16141515613ac3576040517f08c379a0000000000000000000000000000000000000000000000000000000008152600401613aba90616d91565b60405180910390fd5b61ffff61ffff166004600481819054906101000a900461ffff1660010191906101000a81548161ffff021916908361ffff160217905561ffff16101515613b0a5760006000fd5b7f000000000000000000000000000000000000000000000000000000000000000073ffffffffffffffffffffffffffffffffffffffff1663d3419bf36040518163ffffffff1660e01b815260040160206040518083038186803b158015613b715760006000fd5b505afa158015613b86573d600060003e3d6000fd5b505050506040513d601f19601f82011682018060405250810190613baa91906161d2565b73ffffffffffffffffffffffffffffffffffffffff1663407431f7846040518263ffffffff1660e01b8152600401613be29190616b98565b600060405180830381600087803b158015613bfd5760006000fd5b505af1158015613c12573d600060003e3d6000fd5b50505050600460049054906101000a900461ffff169050805060405180604001604052808473ffffffffffffffffffffffffffffffffffffffff1681526020018367ffffffffffffffff16815260200150600560005060008361ffff1661ffff16815260200190815260200160002060005060008201518160000160006101000a81548173ffffffffffffffffffffffffffffffffffffffff021916908373ffffffffffffffffffffffffffffffffffffffff16021790555060208201518160000160146101000a81548167ffffffffffffffff021916908367ffffffffffffffff16021790555090505080600660005060008573ffffffffffffffffffffffffffffffffffffffff1673ffffffffffffffffffffffffffffffffffffffff16815260200190815260200160002060006101000a81548161ffff021916908361ffff160217905550613de88373ffffffffffffffffffffffffffffffffffffffff16630dfe16816040518163ffffffff1660e01b815260040160206040518083038186803b158015613da45760006000fd5b505afa158015613db9573d600060003e3d6000fd5b505050506040513d601f19601f82011682018060405250810190613ddd9190616131565b61542763ffffffff16565b613e768373ffffffffffffffffffffffffffffffffffffffff1663d21220a76040518163ffffffff1660e01b815260040160206040518083038186803b158015613e325760006000fd5b505afa158015613e47573d600060003e3d6000fd5b505050506040513d601f19601f82011682018060405250810190613e6b9190616131565b61542763ffffffff16565b613e8461302263ffffffff16565b809050613e8c565b92915050565b801515613f0a576040517f08c379a000000000000000000000000000000000000000000000000000000000815260040180806020018281038252600e8152602001807f4e6f7420417574686f72697a656400000000000000000000000000000000000081526020015060200191505060405180910390fd5b5b50565b600060056000506000866020015161ffff1661ffff16815260200190815260200160002060005060000160009054906101000a900473ffffffffffffffffffffffffffffffffffffffff16905060008260000151613f7a57613f758261213663ffffffff16565b613f80565b82602001515b90506000670de0b6b3a7640000600360009054906101000a900467ffffffffffffffff1667ffffffffffffffff16108015613fc75750600161ffff16876020015161ffff16145b8015613fdf5750613fde878361229d63ffffffff16565b5b801561408857507f000000000000000000000000000000000000000000000000000000000000000073ffffffffffffffffffffffffffffffffffffffff1663bf86d6906040518163ffffffff1660e01b815260040160206040518083038186803b15801561404d5760006000fd5b505afa158015614062573d600060003e3d6000fd5b505050506040513d601f19601f820116820180604052508101906140869190616158565b155b90506140c48783856140b9898c60a001516fffffffffffffffffffffffffffffffff16612a9790919063ffffffff16565b614f9463ffffffff16565b80156140da576140d98361518f63ffffffff16565b5b7f000000000000000000000000000000000000000000000000000000000000000073ffffffffffffffffffffffffffffffffffffffff1663530c1ccb84876040518363ffffffff1660e01b8152600401614135929190616c2c565b600060405180830381600087803b1580156141505760006000fd5b505af1158015614165573d600060003e3d6000fd5b5050505080156142e557600760005060008473ffffffffffffffffffffffffffffffffffffffff1673ffffffffffffffffffffffffffffffffffffffff16815260200190815260200160002060005060000160089054906101000a900477ffffffffffffffffffffffffffffffffffffffffffffffff1677ffffffffffffffffffffffffffffffffffffffffffffffff167f000000000000000000000000000000000000000000000000000000000000000073ffffffffffffffffffffffffffffffffffffffff1663a135ef17856040518263ffffffff1660e01b815260040161424f9190616b98565b60206040518083038186803b1580156142685760006000fd5b505afa15801561427d573d600060003e3d6000fd5b505050506040513d601f19601f820116820180604052508101906142a1919061672a565b101515156142e4576040517f08c379a00000000000000000000000000000000000000000000000000000000081526004016142db90616d52565b60405180910390fd5b5b7f000000000000000000000000000000000000000000000000000000000000000073ffffffffffffffffffffffffffffffffffffffff1663816aaa2587896040518363ffffffff1660e01b8152600401614340929190617190565b600060405180830381600087803b15801561435b5760006000fd5b505af1158015614370573d600060003e3d6000fd5b505050505050505b50505050565b6000600061439061228263ffffffff16565b905060007f000000000000000000000000000000000000000000000000000000000000000073ffffffffffffffffffffffffffffffffffffffff1663585690816040518163ffffffff1660e01b815260040160206040518083038186803b1580156143fb5760006000fd5b505afa158015614410573d600060003e3d6000fd5b505050506040513d601f19601f820116820180604052508101906144349190616830565b90508067ffffffffffffffff16600010801561446357508167ffffffffffffffff168167ffffffffffffffff16105b61446d578161446f565b805b9250505061447a5650505b90565b60006144fb7f00000000000000000000000000000000000000000000000000000000000000007f000000000000000000000000000000000000000000000000000000000000000067ffffffffffffffff168467ffffffffffffffff168115156144e257fe5b0467ffffffffffffffff1661547c90919063ffffffff16565b905080505b919050565b61450d615f1a565b6000849150815060008260a001516fffffffffffffffffffffffffffffffff1611156145e1576145dc6145578360c001518567ffffffffffffffff1661547c90919063ffffffff16565b67ffffffffffffffff1661384067ffffffffffffffff166145cd61458c8660600151896000015161463d90919063ffffffff16565b6145a787604001518a6020015161463d90919063ffffffff16565b8760a001516fffffffffffffffffffffffffffffffff166148469092919063ffffffff16565b6148469092919063ffffffff16565b905080505b8360000151826060019090818152602001505083602001518260400190908181526020015050828260c0019067ffffffffffffffff16908167ffffffffffffffff1681526020015050818191509150614635565b935093915050565b600082828403915081111515156146bf576040517f08c379a000000000000000000000000000000000000000000000000000000000815260040180806020018281038252600d8152602001807f7375622d756e646572666c6f770000000000000000000000000000000000000081526020015060200191505060405180910390fd5b5b92915050565b7f000000000000000000000000000000000000000000000000000000000000000073ffffffffffffffffffffffffffffffffffffffff168373ffffffffffffffffffffffffffffffffffffffff1614156147ae577f000000000000000000000000000000000000000000000000000000000000000073ffffffffffffffffffffffffffffffffffffffff166349404b7c83836040518363ffffffff1660e01b8152600401614775929190617161565b600060405180830381600087803b1580156147905760006000fd5b505af11580156147a5573d600060003e3d6000fd5b50505050614840565b7f000000000000000000000000000000000000000000000000000000000000000073ffffffffffffffffffffffffffffffffffffffff1663df2ab5bb8484846040518463ffffffff1660e01b815260040161480b93929190616aaa565b600060405180830381600087803b1580156148265760006000fd5b505af115801561483b573d600060003e3d6000fd5b505050505b5b505050565b60006000600060001985870985870292508281108382030391505060008114156148895760008411151561487a5760006000fd5b83820492508292505050614940565b80841115156148985760006000fd5b60008486880990508281118203915080830392506000858660000316905080860495508084049350600181826000030401905080830284179350835060006002876003021890508087026002038102905080508087026002038102905080508087026002038102905080508087026002038102905080508087026002038102905080508087026002038102905080508085029550855085955050505050506149405650505050505b9392505050565b600061496561495a61437e63ffffffff16565b61447d63ffffffff16565b905061496c565b90565b6000600082148061498f5750828283850292508281151561498c57fe5b04145b1515614a06576040517f08c379a000000000000000000000000000000000000000000000000000000000815260040180806020018281038252600c8152602001807f6d756c2d6f766572666c6f77000000000000000000000000000000000000000081526020015060200191505060405180910390fd5b5b92915050565b60007f000000000000000000000000000000000000000000000000000000000000000073ffffffffffffffffffffffffffffffffffffffff166351ad51f7856040518263ffffffff1660e01b8152600401614a689190617111565b60406040518083038186803b158015614a815760006000fd5b505afa158015614a96573d600060003e3d6000fd5b505050506040513d601f19601f82011682018060405250810190614aba91906165fe565b90507f000000000000000000000000000000000000000000000000000000000000000073ffffffffffffffffffffffffffffffffffffffff1663f7099607856040518060400160405280614b1b888760000151614e5e90919063ffffffff16565b8152602001614c41614c2e8867ffffffffffffffff167f000000000000000000000000000000000000000000000000000000000000000073ffffffffffffffffffffffffffffffffffffffff1663a135ef17600560005060008f61ffff1661ffff16815260200190815260200160002060005060000160009054906101000a900473ffffffffffffffffffffffffffffffffffffffff166040518263ffffffff1660e01b8152600401614bce9190616b98565b60206040518083038186803b158015614be75760006000fd5b505afa158015614bfc573d600060003e3d6000fd5b505050506040513d601f19601f82011682018060405250810190614c20919061672a565b61496f90919063ffffffff16565b8760200151614e5e90919063ffffffff16565b8152602001506040518363ffffffff1660e01b8152600401614c64929190617127565b600060405180830381600087803b158015614c7f5760006000fd5b505af1158015614c94573d600060003e3d6000fd5b50505050505b505050565b7f000000000000000000000000000000000000000000000000000000000000000073ffffffffffffffffffffffffffffffffffffffff168273ffffffffffffffffffffffffffffffffffffffff16148015614cfa5750804710155b15614d87577f000000000000000000000000000000000000000000000000000000000000000073ffffffffffffffffffffffffffffffffffffffff1663d0e30db0826040518263ffffffff1660e01b81526004016000604051808303818588803b158015614d685760006000fd5b505af1158015614d7d573d600060003e3d6000fd5b5050505050614d9a565b614d998233308461551963ffffffff16565b5b5b5050565b614dae8261574463ffffffff16565b614dbd8161574463ffffffff16565b7f000000000000000000000000000000000000000000000000000000000000000073ffffffffffffffffffffffffffffffffffffffff166312210e8a6040518163ffffffff1660e01b8152600401600060405180830381600087803b158015614e265760006000fd5b505af1158015614e3b573d600060003e3d6000fd5b505050506000471115614e5957614e5833476158da63ffffffff16565b5b5b5050565b60008282840191508110151515614ee0576040517f08c379a000000000000000000000000000000000000000000000000000000000815260040180806020018281038252600c8152602001807f6164642d6f766572666c6f77000000000000000000000000000000000000000081526020015060200191505060405180910390fd5b5b92915050565b6000826fffffffffffffffffffffffffffffffff168284019150816fffffffffffffffffffffffffffffffff1610151515614f8d576040517f08c379a000000000000000000000000000000000000000000000000000000000815260040180806020018281038252600c8152602001807f6164642d6f766572666c6f77000000000000000000000000000000000000000081526020015060200191505060405180910390fd5b5b92915050565b6000816fffffffffffffffffffffffffffffffff161415614fb457615189565b60007f000000000000000000000000000000000000000000000000000000000000000073ffffffffffffffffffffffffffffffffffffffff1663d3419bf36040518163ffffffff1660e01b815260040160206040518083038186803b15801561501d5760006000fd5b505afa158015615032573d600060003e3d6000fd5b505050506040513d601f19601f8201168201806040525081019061505691906161d2565b73ffffffffffffffffffffffffffffffffffffffff16631fab230e84868860e0015189610100015187600460009054906101000a900463ffffffff166040518763ffffffff1660e01b81526004016150b396959493929190616bc0565b60206040518083038186803b1580156150cc5760006000fd5b505afa1580156150e1573d600060003e3d6000fd5b505050506040513d601f19601f82011682018060405250810190615105919061672a565b9050600360109054906101000a90046fffffffffffffffffffffffffffffffff166fffffffffffffffffffffffffffffffff16811015806151465750600081145b1515615187576040517f08c379a000000000000000000000000000000000000000000000000000000000815260040161517e90616e0f565b60405180910390fd5b505b50505050565b600061519f612d0c63ffffffff16565b90508067ffffffffffffffff16600760005060008473ffffffffffffffffffffffffffffffffffffffff1673ffffffffffffffffffffffffffffffffffffffff16815260200190815260200160002060005060000160009054906101000a900467ffffffffffffffff1667ffffffffffffffff1610156154225760405180604001604052808267ffffffffffffffff16815260200161533b61532e615275600360009054906101000a900467ffffffffffffffff1667ffffffffffffffff16670de0b6b3a764000061463d90919063ffffffff16565b7f000000000000000000000000000000000000000000000000000000000000000073ffffffffffffffffffffffffffffffffffffffff1663a135ef17886040518263ffffffff1660e01b81526004016152ce9190616b98565b60206040518083038186803b1580156152e75760006000fd5b505afa1580156152fc573d600060003e3d6000fd5b505050506040513d601f19601f82011682018060405250810190615320919061672a565b6128ec90919063ffffffff16565b615a60909063ffffffff16565b77ffffffffffffffffffffffffffffffffffffffffffffffff16815260200150600760005060008473ffffffffffffffffffffffffffffffffffffffff1673ffffffffffffffffffffffffffffffffffffffff16815260200190815260200160002060005060008201518160000160006101000a81548167ffffffffffffffff021916908367ffffffffffffffff16021790555060208201518160000160086101000a81548177ffffffffffffffffffffffffffffffffffffffffffffffff021916908377ffffffffffffffffffffffffffffffffffffffffffffffff1602179055509050505b505b50565b615478817f00000000000000000000000000000000000000000000000000000000000000007fffffffffffffffffffffffffffffffffffffffffffffffffffffffffffffffff615b0263ffffffff16565b5b50565b60008267ffffffffffffffff1682840391508167ffffffffffffffff1611151515615512576040517f08c379a000000000000000000000000000000000000000000000000000000000815260040180806020018281038252600d8152602001807f7375622d756e646572666c6f770000000000000000000000000000000000000081526020015060200191505060405180910390fd5b5b92915050565b600060008573ffffffffffffffffffffffffffffffffffffffff166323b872dd60e01b868686604051602401808473ffffffffffffffffffffffffffffffffffffffff1681526020018373ffffffffffffffffffffffffffffffffffffffff1681526020018281526020019350505050604051602081830303815290604052907bffffffffffffffffffffffffffffffffffffffffffffffffffffffff19166020820180517bffffffffffffffffffffffffffffffffffffffffffffffffffffffff83818316178352505050506040518082805190602001908083835b60208310151561561c57805182525b6020820191506020810190506020830392506155f6565b6001836020036101000a0380198251168184511680821785525050505050509050019150506000604051808303816000865af19150503d806000811461567e576040519150601f19603f3d011682016040523d82523d6000602084013e615683565b606091505b50915091508180156156c457506000815114806156c357508080602001905160208110156156b15760006000fd5b81019080805190602001909291905050505b5b151561573b576040517f08c379a00000000000000000000000000000000000000000000000000000000081526004018080602001828103825260038152602001807f535446000000000000000000000000000000000000000000000000000000000081526020015060200191505060405180910390fd5b50505b50505050565b60008173ffffffffffffffffffffffffffffffffffffffff166370a08231306040518263ffffffff1660e01b815260040161577f91906169e5565b60206040518083038186803b1580156157985760006000fd5b505afa1580156157ad573d600060003e3d6000fd5b505050506040513d601f19601f820116820180604052508101906157d1919061672a565b905060008111156158d5577f000000000000000000000000000000000000000000000000000000000000000073ffffffffffffffffffffffffffffffffffffffff168273ffffffffffffffffffffffffffffffffffffffff1614156158c2577f000000000000000000000000000000000000000000000000000000000000000073ffffffffffffffffffffffffffffffffffffffff16632e1a7d4d826040518263ffffffff1660e01b8152600401615889919061714f565b600060405180830381600087803b1580156158a45760006000fd5b505af11580156158b9573d600060003e3d6000fd5b505050506158d4565b6158d3823383615d0e63ffffffff16565b5b5b505b50565b60008273ffffffffffffffffffffffffffffffffffffffff1682600067ffffffffffffffff8111801561590d5760006000fd5b506040519080825280601f01601f1916602001820160405280156159405781602001600182028036833780820191505090505b506040518082805190602001908083835b60208310151561597757805182525b602082019150602081019050602083039250615951565b6001836020036101000a03801982511681845116808217855250505050505090500191505060006040518083038185875af1925050503d80600081146159d9576040519150601f19603f3d011682016040523d82523d6000602084013e6159de565b606091505b50509050801515615a5a576040517f08c379a00000000000000000000000000000000000000000000000000000000081526004018080602001828103825260038152602001807f535445000000000000000000000000000000000000000000000000000000000081526020015060200191505060405180910390fd5b505b5050565b6000780100000000000000000000000000000000000000000000000082101515615af5576040517f08c379a00000000000000000000000000000000000000000000000000000000081526004018080602001828103825260128152602001807f6d6f7265207468616e203139322062697473000000000000000000000000000081526020015060200191505060405180910390fd5b819050615afd565b919050565b600060008473ffffffffffffffffffffffffffffffffffffffff1663095ea7b360e01b8585604051602401808373ffffffffffffffffffffffffffffffffffffffff16815260200182815260200192505050604051602081830303815290604052907bffffffffffffffffffffffffffffffffffffffffffffffffffffffff19166020820180517bffffffffffffffffffffffffffffffffffffffffffffffffffffffff83818316178352505050506040518082805190602001908083835b602083101515615be757805182525b602082019150602081019050602083039250615bc1565b6001836020036101000a0380198251168184511680821785525050505050509050019150506000604051808303816000865af19150503d8060008114615c49576040519150601f19603f3d011682016040523d82523d6000602084013e615c4e565b606091505b5091509150818015615c8f5750600081511480615c8e5750808060200190516020811015615c7c5760006000fd5b81019080805190602001909291905050505b5b1515615d06576040517f08c379a00000000000000000000000000000000000000000000000000000000081526004018080602001828103825260028152602001807f534100000000000000000000000000000000000000000000000000000000000081526020015060200191505060405180910390fd5b50505b505050565b600060008473ffffffffffffffffffffffffffffffffffffffff1663a9059cbb60e01b8585604051602401808373ffffffffffffffffffffffffffffffffffffffff16815260200182815260200192505050604051602081830303815290604052907bffffffffffffffffffffffffffffffffffffffffffffffffffffffff19166020820180517bffffffffffffffffffffffffffffffffffffffffffffffffffffffff83818316178352505050506040518082805190602001908083835b602083101515615df357805182525b602082019150602081019050602083039250615dcd565b6001836020036101000a0380198251168184511680821785525050505050509050019150506000604051808303816000865af19150503d8060008114615e55576040519150601f19603f3d011682016040523d82523d6000602084013e615e5a565b606091505b5091509150818015615e9b5750600081511480615e9a5750808060200190516020811015615e885760006000fd5b81019080805190602001909291905050505b5b1515615f12576040517f08c379a00000000000000000000000000000000000000000000000000000000081526004018080602001828103825260028152602001807f535400000000000000000000000000000000000000000000000000000000000081526020015060200191505060405180910390fd5b50505b505050565b604051806101800160405280600073ffffffffffffffffffffffffffffffffffffffff168152602001600061ffff16815260200160008152602001600081526020016000815260200160006fffffffffffffffffffffffffffffffff168152602001600067ffffffffffffffff168152602001600060020b8152602001600060020b8152602001600063ffffffff168152602001600073ffffffffffffffffffffffffffffffffffffffff168152602001600067ffffffffffffffff1681526020015090565b6040518060a001604052806000815260200160006fffffffffffffffffffffffffffffffff1681526020016000815260200160008152602001600081526020015090565b6040518060400160405280600015158152602001600060020b8152602001509056617459565b60008135905061605981617390565b5b919050565b60008151905061606e81617390565b5b919050565b600081359050616083816173b9565b5b919050565b600081519050616098816173b9565b5b919050565b6000815190506160ad816173cf565b5b919050565b6000815190506160c2816173f4565b5b919050565b6000813590506160d78161740b565b5b919050565b6000815190506160ec8161740b565b5b919050565b60008135905061610181617423565b5b919050565b60008151905061611681617423565b5b919050565b60008151905061612b8161743c565b5b919050565b600060208284031215616142578081fd5b815161614d81617390565b809150505b92915050565b600060208284031215616169578081fd5b81518015158114151561617a578182fd5b809150505b92915050565b600060208284031215616196578081fd5b81357fffffffff000000000000000000000000000000000000000000000000000000008116811415156161c7578182fd5b809150505b92915050565b6000602082840312156161e3578081fd5b81516161ee81617390565b809150505b92915050565b60006020828403121561620a578081fd5b813561621581617390565b809150505b92915050565b60006000600060408486031215616235578182fd5b833561624081617390565b80935050602084013567ffffffffffffffff8082111561625e578384fd5b818601915086601f8301121515616273578384fd5b813581811115616281578485fd5b876020602083028501011115616295578485fd5b6020830194508093505050505b9250925092565b60006000604083850312156162bc578182fd5b82356162c781617390565b8092505060208301356162d981617390565b809150505b9250929050565b60006000604083850312156162f8578182fd5b823561630381617390565b8092505060208301356163158161743c565b809150505b9250929050565b600060208284031215616332578081fd5b815161633d816173b9565b809150505b92915050565b6000600082840360c081121561635c578283fd5b60a0811215616369578283fd5b5082915060a083013561637b81617423565b809150505b9250929050565b600060a08284031215616398578081fd5b60405160a0810181811067ffffffffffffffff821117156163b557fe5b80604052508235815260208301356163cc816173cf565b80602083015250604083013560408201526060830135606082015260808301356080820152809150505b92915050565b6000600082840360e0811215616410578283fd5b60c081121561641d578283fd5b5082915060c083013561642f81617423565b809150505b9250929050565b60006000828403610180811215616450578283fd5b6101608082121561645f578384fd5b61646881617365565b91506164738561604a565b82526164816020860161604a565b6020830152616492604086016160c8565b60408301526164a360608601616074565b60608301526164b460808601616074565b608083015260a085013560a083015260c085013560c083015260e085013560e08301526101008086013581840152506101206164f181870161604a565b81840152506101408086013581840152508193506165108186016160f2565b925050505b9250929050565b600061018080838503121561652f578182fd5b61653881617365565b90506165438361605f565b8152616551602084016160b3565b602082015260408301516040820152606083015160608201526080830151608082015261658060a0840161609e565b60a082015261659160c0840161611c565b60c08201526165a260e08401616089565b60e08201526101006165b5818501616089565b81830152506101206165c8818501616107565b81830152506101406165db81850161605f565b81830152506101606165ee81850161611c565b8183015250809150505b92915050565b60006040828403121561660f578081fd5b6040516040810181811067ffffffffffffffff8211171561662c57fe5b80604052508251815260208301516020820152809150505b92915050565b60006020828403121561665b578081fd5b8135616666816173cf565b809150505b92915050565b60006000600060608486031215616686578081fd5b8351616691816173cf565b8093505060208401519150604084015190505b9250925092565b6000602082840312156166bc578081fd5b81356166c7816173f4565b809150505b92915050565b60006000604083850312156166e5578182fd5b82356166f0816173f4565b8092505060208301356167028161743c565b809150505b9250929050565b60006020828403121561671f578081fd5b813590505b92915050565b60006020828403121561673b578081fd5b815190505b92915050565b60006000600060006080858703121561675d578182fd5b84519350602085015161676f816173cf565b8093505060408501519150606085015190505b92959194509250565b600060006040838503121561679e578182fd5b82519150602083015190505b9250929050565b60006000604083850312156167c4578182fd5b8235915060208301356167d681617423565b809150505b9250929050565b6000602082840312156167f3578081fd5b81356167fe81617423565b809150505b92915050565b60006020828403121561681a578081fd5b81356168258161743c565b809150505b92915050565b600060208284031215616841578081fd5b815161684c8161743c565b809150505b92915050565b6000600060006000600060006000600060006000600060006101808d8f03121561687f57898afd5b8c516bffffffffffffffffffffffff81168114151561689c578a8bfd5b809c50506168ac60208e0161605f565b9a506168ba60408e0161605f565b99506168c860608e0161605f565b98506168d660808e016160dd565b97506168e460a08e01616089565b96506168f260c08e01616089565b955061690060e08e0161609e565b94506101008d015193506101208d0151925061691f6101408e0161609e565b915061692e6101608e0161609e565b90505b9295989b509295989b509295989b565b73ffffffffffffffffffffffffffffffffffffffff811682525b5050565b8060020b82525b5050565b6fffffffffffffffffffffffffffffffff811682525b5050565b61ffff811682525b5050565b62ffffff811682525b5050565b63ffffffff811682525b5050565b67ffffffffffffffff811682525b5050565b600060208201905073ffffffffffffffffffffffffffffffffffffffff831682525b92915050565b600060208201905073ffffffffffffffffffffffffffffffffffffffff831682525b92915050565b600060408201905073ffffffffffffffffffffffffffffffffffffffff841682528260208301525b9392505050565b600060608201905073ffffffffffffffffffffffffffffffffffffffff808616835280851660208401525062ffffff831660408301525b949350505050565b600060408201905073ffffffffffffffffffffffffffffffffffffffff841682528260208301525b9392505050565b600060608201905073ffffffffffffffffffffffffffffffffffffffff80861683528460208401528084166040840152505b949350505050565b600060208201905082151582525b92915050565b600060208201905073ffffffffffffffffffffffffffffffffffffffff831682525b92915050565b600060208201905073ffffffffffffffffffffffffffffffffffffffff831682525b92915050565b600060208201905073ffffffffffffffffffffffffffffffffffffffff831682525b92915050565b600060208201905073ffffffffffffffffffffffffffffffffffffffff831682525b92915050565b600060208201905073ffffffffffffffffffffffffffffffffffffffff831682525b92915050565b600060c08201905073ffffffffffffffffffffffffffffffffffffffff881682528660020b60208301528560020b60408301528460020b60608301526fffffffffffffffffffffffffffffffff8416608083015263ffffffff831660a08301525b979650505050505050565b600060408201905073ffffffffffffffffffffffffffffffffffffffff841682526fffffffffffffffffffffffffffffffff831660208301525b9392505050565b600060408201905073ffffffffffffffffffffffffffffffffffffffff8416825263ffffffff831660208301525b9392505050565b600060408201905073ffffffffffffffffffffffffffffffffffffffff8416825267ffffffffffffffff831660208301525b9392505050565b60006060820190508460020b82528360020b60208301526fffffffffffffffffffffffffffffffff831660408301525b949350505050565b600060208252601660208301527f4c6971756964697479206e6f7420696e2072616e67650000000000000000000060408301526060820190505b919050565b600060208252601c60208301527f4d617820706572696f642077697468647261772065786365656465640000000060408301526060820190505b919050565b600060208252601260208301527f416c72656164792072656769737465726564000000000000000000000000000060408301526060820190505b919050565b600060208252601460208301527f496e63656e7469766520746f74616c206973203000000000000000000000000060408301526060820190505b919050565b600060208252601260208301527f506f736974696f6e20746f6f20736d616c6c000000000000000000000000000060408301526060820190505b919050565b600060208252600b60208301527f506f6f6c2065786973747300000000000000000000000000000000000000000060408301526060820190505b919050565b600060208252600e60208301527f496e76616c696420706f6f6c494400000000000000000000000000000000000060408301526060820190505b919050565b600060208252601260208301527f4e6f20666c617368206c6971756964697479000000000000000000000000000060408301526060820190505b919050565b600060208252600760208301527f496e76616c69640000000000000000000000000000000000000000000000000060408301526060820190505b919050565b60006080820190508251825273ffffffffffffffffffffffffffffffffffffffff602084015116602083015260408301516fffffffffffffffffffffffffffffffff808216604085015280606086015116606085015250505b92915050565b600060a082019050825182526fffffffffffffffffffffffffffffffff60208401511660208301526040830151604083015260608301516060830152608083015160808301525b92915050565b600060c082019050823582526020830135602083015260408301356040830152606083013560608301526080830135608083015260a083013560a08301525b92915050565b60006101608201905061704f828451616941565b60208301516170616020840182616941565b5060408301516170746040840182616990565b506060830151617087606084018261695f565b50608083015161709a608084018261695f565b5060a083015160a083015260c083015160c083015260e083015160e0830152610100808401518184015250610120808401516170d882850182616941565b50506101408084015181840152505b92915050565b60006020820190506fffffffffffffffffffffffffffffffff831682525b92915050565b600060208201905061ffff831682525b92915050565b600060608201905061ffff8416825282516020830152602083015160408301525b9392505050565b60006020820190508282525b92915050565b600060408201905083825273ffffffffffffffffffffffffffffffffffffffff831660208301525b9392505050565b60006101a0820190508382526171aa602083018451616941565b60208301516171bc6040840182616984565b506040830151606083015260608301516080830152608083015160a083015260a08301516171ed60c084018261696a565b5060c083015161720060e08401826169ab565b5060e08301516101006172158185018361695f565b8085015191505061012061722b8185018361695f565b808501519150506101406172418185018361699d565b8085015191505061016061725781850183616941565b8085015191505061726c6101808401826169ab565b505b9392505050565b60006040820190508382526fffffffffffffffffffffffffffffffff831660208301525b9392505050565b60006040820190508382528260208301525b9392505050565b600060408201905083825267ffffffffffffffff831660208301525b9392505050565b600060208201905063ffffffff831682525b92915050565b600060208201905063ffffffff831682525b92915050565b600060208201905067ffffffffffffffff831682525b92915050565b600060408201905067ffffffffffffffff8416825277ffffffffffffffffffffffffffffffffffffffffffffffff831660208301525b9392505050565b6000604051905081810181811067ffffffffffffffff8211171561738557fe5b80604052505b919050565b73ffffffffffffffffffffffffffffffffffffffff8116811415156173b55760006000fd5b5b50565b8060020b811415156173cb5760006000fd5b5b50565b6fffffffffffffffffffffffffffffffff8116811415156173f05760006000fd5b5b50565b61ffff8116811415156174075760006000fd5b5b50565b62ffffff81168114151561741f5760006000fd5b5b50565b63ffffffff8116811415156174385760006000fd5b5b50565b67ffffffffffffffff8116811415156174555760006000fd5b5b50565bfea26469706673582212207dba958f156ae736da0d3e65aca361680edb038cb8a1a31125a014c7fa1c9cf864736f6c63430007060033",
  "linkReferences": {},
  "deployedLinkReferences": {}
}