{
  "_format": "hh-sol-artifact-1",
  "contractName": "Rewards",
  "sourceName": "contracts/core/logic/Rewards.sol",
  "abi": [
    {
      "inputs": [
        {
          "components": [
            {
              "internalType": "contract IGovernor",
              "name": "Governor",
              "type": "address"
            },
            {
              "internalType": "contract IProtocolLock",
              "name": "ProtocolLock",
              "type": "address"
            },
            {
              "internalType": "contract IAccounting",
              "name": "Accounting",
              "type": "address"
            },
            {
              "internalType": "address",
              "name": "Weth",
              "type": "address"
            },
            {
              "internalType": "contract INonfungiblePositionManager",
              "name": "NftPositionManager",
              "type": "address"
            },
            {
              "internalType": "contract IUniswapV3Factory",
              "name": "UniswapV3Factory",
              "type": "address"
            }
          ],
          "internalType": "struct IRewards.ConstructorParams",
          "name": "params",
          "type": "tuple"
        }
      ],
      "stateMutability": "nonpayable",
      "type": "constructor"
    },
    {
      "anonymous": false,
      "inputs": [
        {
          "indexed": false,
          "internalType": "uint64",
          "name": "penalty",
          "type": "uint64"
        }
      ],
      "name": "LiquidationPenaltyUpdated",
      "type": "event"
    },
    {
      "anonymous": false,
      "inputs": [
        {
          "indexed": true,
          "internalType": "address",
          "name": "owner",
          "type": "address"
        },
        {
          "indexed": true,
          "internalType": "uint16",
          "name": "poolID",
          "type": "uint16"
        },
        {
          "indexed": true,
          "internalType": "uint256",
          "name": "nftID",
          "type": "uint256"
        },
        {
          "indexed": false,
          "internalType": "int24",
          "name": "tickLower",
          "type": "int24"
        },
        {
          "indexed": false,
          "internalType": "int24",
          "name": "tickUpper",
          "type": "int24"
        },
        {
          "indexed": false,
          "internalType": "uint128",
          "name": "liquidity",
          "type": "uint128"
        }
      ],
      "name": "LiquidityPositionCreated",
      "type": "event"
    },
    {
      "anonymous": false,
      "inputs": [
        {
          "indexed": true,
          "internalType": "uint256",
          "name": "nftID",
          "type": "uint256"
        },
        {
          "indexed": false,
          "internalType": "uint256",
          "name": "amount0",
          "type": "uint256"
        },
        {
          "indexed": false,
          "internalType": "uint256",
          "name": "amount1",
          "type": "uint256"
        }
      ],
      "name": "LiquidityPositionDecreased",
      "type": "event"
    },
    {
      "anonymous": false,
      "inputs": [
        {
          "indexed": true,
          "internalType": "uint256",
          "name": "nftID",
          "type": "uint256"
        },
        {
          "indexed": false,
          "internalType": "uint128",
          "name": "liquidity",
          "type": "uint128"
        }
      ],
      "name": "LiquidityPositionIncreased",
      "type": "event"
    },
    {
      "anonymous": false,
      "inputs": [
        {
          "indexed": true,
          "internalType": "uint256",
          "name": "nftID",
          "type": "uint256"
        },
        {
          "indexed": true,
          "internalType": "address",
          "name": "liquidator",
          "type": "address"
        }
      ],
      "name": "LiquidityPositionLiquidated",
      "type": "event"
    },
    {
      "anonymous": false,
      "inputs": [
        {
          "indexed": true,
          "internalType": "uint256",
          "name": "nftID",
          "type": "uint256"
        },
        {
          "indexed": false,
          "internalType": "uint256",
          "name": "amount0",
          "type": "uint256"
        },
        {
          "indexed": false,
          "internalType": "uint256",
          "name": "amount1",
          "type": "uint256"
        }
      ],
      "name": "LiquidityPositionRemoved",
      "type": "event"
    },
    {
      "anonymous": false,
      "inputs": [
        {
          "indexed": false,
          "internalType": "uint64",
          "name": "decreasePortion",
          "type": "uint64"
        }
      ],
      "name": "MaxCollateralLiquidityDecreasePerPeriodUpdated",
      "type": "event"
    },
    {
      "anonymous": false,
      "inputs": [
        {
          "indexed": false,
          "internalType": "uint128",
          "name": "min",
          "type": "uint128"
        }
      ],
      "name": "MinHueCountPerPositionUpdated",
      "type": "event"
    },
    {
      "anonymous": false,
      "inputs": [
        {
          "indexed": true,
          "internalType": "address",
          "name": "pool",
          "type": "address"
        },
        {
          "indexed": true,
          "internalType": "uint16",
          "name": "poolID",
          "type": "uint16"
        },
        {
          "indexed": false,
          "internalType": "uint64",
          "name": "rewardsPortion",
          "type": "uint64"
        }
      ],
      "name": "PoolAdded",
      "type": "event"
    },
    {
      "anonymous": false,
      "inputs": [
        {
          "indexed": true,
          "internalType": "uint16",
          "name": "poolID",
          "type": "uint16"
        },
        {
          "indexed": false,
          "internalType": "uint64",
          "name": "incentive",
          "type": "uint64"
        }
      ],
      "name": "PoolIncentiveUpdated",
      "type": "event"
    },
    {
      "anonymous": false,
      "inputs": [
        {
          "indexed": false,
          "internalType": "uint256",
          "name": "count",
          "type": "uint256"
        },
        {
          "indexed": false,
          "internalType": "uint64",
          "name": "periods",
          "type": "uint64"
        }
      ],
      "name": "RewardsAccrued",
      "type": "event"
    },
    {
      "anonymous": false,
      "inputs": [
        {
          "indexed": true,
          "internalType": "address",
          "name": "caller",
          "type": "address"
        },
        {
          "indexed": true,
          "internalType": "uint256",
          "name": "nftTokenID",
          "type": "uint256"
        },
        {
          "indexed": false,
          "internalType": "uint256",
          "name": "amount0",
          "type": "uint256"
        },
        {
          "indexed": false,
          "internalType": "uint256",
          "name": "amount1",
          "type": "uint256"
        }
      ],
      "name": "RewardsClaimed",
      "type": "event"
    },
    {
      "anonymous": false,
      "inputs": [
        {
          "indexed": true,
          "internalType": "address",
          "name": "account",
          "type": "address"
        },
        {
          "indexed": true,
          "internalType": "bool",
          "name": "isKickback",
          "type": "bool"
        },
        {
          "indexed": false,
          "internalType": "uint256",
          "name": "tcpRewards",
          "type": "uint256"
        }
      ],
      "name": "RewardsDistributed",
      "type": "event"
    },
    {
      "anonymous": false,
      "inputs": [],
      "name": "Stopped",
      "type": "event"
    },
    {
      "anonymous": false,
      "inputs": [
        {
          "indexed": false,
          "internalType": "uint64",
          "name": "duration",
          "type": "uint64"
        }
      ],
      "name": "TwapDurationUpdated",
      "type": "event"
    },
    {
      "inputs": [],
      "name": "accounting",
      "outputs": [
        {
          "internalType": "contract IAccounting",
          "name": "",
          "type": "address"
        }
      ],
      "stateMutability": "view",
      "type": "function"
    },
    {
      "inputs": [],
      "name": "accrueRewards",
      "outputs": [],
      "stateMutability": "nonpayable",
      "type": "function"
    },
    {
      "inputs": [
        {
          "internalType": "contract IUniswapV3Pool",
          "name": "pool",
          "type": "address"
        },
        {
          "internalType": "uint64",
          "name": "rewardsPortion",
          "type": "uint64"
        }
      ],
      "name": "addIncentivePool",
      "outputs": [],
      "stateMutability": "nonpayable",
      "type": "function"
    },
    {
      "inputs": [
        {
          "internalType": "uint256[]",
          "name": "nftTokenIDs",
          "type": "uint256[]"
        },
        {
          "internalType": "uint32",
          "name": "ui",
          "type": "uint32"
        }
      ],
      "name": "claimAllRewards",
      "outputs": [
        {
          "internalType": "uint256",
          "name": "totalAmount0",
          "type": "uint256"
        },
        {
          "internalType": "uint256",
          "name": "totalAmount1",
          "type": "uint256"
        }
      ],
      "stateMutability": "nonpayable",
      "type": "function"
    },
    {
      "inputs": [],
      "name": "countPools",
      "outputs": [
        {
          "internalType": "uint16",
          "name": "",
          "type": "uint16"
        }
      ],
      "stateMutability": "view",
      "type": "function"
    },
    {
      "inputs": [
        {
          "components": [
            {
              "internalType": "address",
              "name": "token0",
              "type": "address"
            },
            {
              "internalType": "address",
              "name": "token1",
              "type": "address"
            },
            {
              "internalType": "uint24",
              "name": "fee",
              "type": "uint24"
            },
            {
              "internalType": "int24",
              "name": "tickLower",
              "type": "int24"
            },
            {
              "internalType": "int24",
              "name": "tickUpper",
              "type": "int24"
            },
            {
              "internalType": "uint256",
              "name": "amount0Desired",
              "type": "uint256"
            },
            {
              "internalType": "uint256",
              "name": "amount1Desired",
              "type": "uint256"
            },
            {
              "internalType": "uint256",
              "name": "amount0Min",
              "type": "uint256"
            },
            {
              "internalType": "uint256",
              "name": "amount1Min",
              "type": "uint256"
            },
            {
              "internalType": "address",
              "name": "recipient",
              "type": "address"
            },
            {
              "internalType": "uint256",
              "name": "deadline",
              "type": "uint256"
            }
          ],
          "internalType": "struct INonfungiblePositionManager.MintParams",
          "name": "params",
          "type": "tuple"
        },
        {
          "internalType": "uint32",
          "name": "ui",
          "type": "uint32"
        }
      ],
      "name": "createLiquidityPosition",
      "outputs": [
        {
          "internalType": "uint256",
          "name": "nftTokenID",
          "type": "uint256"
        },
        {
          "internalType": "uint128",
          "name": "liquidity",
          "type": "uint128"
        }
      ],
      "stateMutability": "payable",
      "type": "function"
    },
    {
      "inputs": [],
      "name": "currentPeriod",
      "outputs": [
        {
          "internalType": "uint64",
          "name": "period",
          "type": "uint64"
        }
      ],
      "stateMutability": "view",
      "type": "function"
    },
    {
      "inputs": [
        {
          "components": [
            {
              "internalType": "uint256",
              "name": "tokenId",
              "type": "uint256"
            },
            {
              "internalType": "uint128",
              "name": "liquidity",
              "type": "uint128"
            },
            {
              "internalType": "uint256",
              "name": "amount0Min",
              "type": "uint256"
            },
            {
              "internalType": "uint256",
              "name": "amount1Min",
              "type": "uint256"
            },
            {
              "internalType": "uint256",
              "name": "deadline",
              "type": "uint256"
            }
          ],
          "internalType": "struct INonfungiblePositionManager.DecreaseLiquidityParams",
          "name": "params",
          "type": "tuple"
        },
        {
          "internalType": "uint32",
          "name": "ui",
          "type": "uint32"
        }
      ],
      "name": "decreaseLiquidityPosition",
      "outputs": [
        {
          "internalType": "uint256",
          "name": "amount0",
          "type": "uint256"
        },
        {
          "internalType": "uint256",
          "name": "amount1",
          "type": "uint256"
        }
      ],
      "stateMutability": "nonpayable",
      "type": "function"
    },
    {
      "inputs": [],
      "name": "deployer",
      "outputs": [
        {
          "internalType": "address",
          "name": "",
          "type": "address"
        }
      ],
      "stateMutability": "view",
      "type": "function"
    },
    {
      "inputs": [],
      "name": "firstPeriod",
      "outputs": [
        {
          "internalType": "uint64",
          "name": "",
          "type": "uint64"
        }
      ],
      "stateMutability": "view",
      "type": "function"
    },
    {
      "inputs": [
        {
          "internalType": "uint16",
          "name": "poolID",
          "type": "uint16"
        }
      ],
      "name": "getPoolConfigForPoolID",
      "outputs": [
        {
          "components": [
            {
              "internalType": "contract IUniswapV3Pool",
              "name": "pool",
              "type": "address"
            },
            {
              "internalType": "uint64",
              "name": "rewardsPortion",
              "type": "uint64"
            }
          ],
          "internalType": "struct IRewards.PoolConfig",
          "name": "poolConfig",
          "type": "tuple"
        }
      ],
      "stateMutability": "view",
      "type": "function"
    },
    {
      "inputs": [],
      "name": "governor",
      "outputs": [
        {
          "internalType": "contract IGovernor",
          "name": "",
          "type": "address"
        }
      ],
      "stateMutability": "view",
      "type": "function"
    },
    {
      "inputs": [
        {
          "components": [
            {
              "internalType": "uint256",
              "name": "tokenId",
              "type": "uint256"
            },
            {
              "internalType": "uint256",
              "name": "amount0Desired",
              "type": "uint256"
            },
            {
              "internalType": "uint256",
              "name": "amount1Desired",
              "type": "uint256"
            },
            {
              "internalType": "uint256",
              "name": "amount0Min",
              "type": "uint256"
            },
            {
              "internalType": "uint256",
              "name": "amount1Min",
              "type": "uint256"
            },
            {
              "internalType": "uint256",
              "name": "deadline",
              "type": "uint256"
            }
          ],
          "internalType": "struct INonfungiblePositionManager.IncreaseLiquidityParams",
          "name": "params",
          "type": "tuple"
        },
        {
          "internalType": "uint32",
          "name": "ui",
          "type": "uint32"
        }
      ],
      "name": "increaseLiquidityPosition",
      "outputs": [
        {
          "internalType": "uint128",
          "name": "liquidity",
          "type": "uint128"
        }
      ],
      "stateMutability": "payable",
      "type": "function"
    },
    {
      "inputs": [
        {
          "internalType": "contract IUniswapV3Pool",
          "name": "_collateralPool",
          "type": "address"
        },
        {
          "internalType": "contract IUniswapV3Pool",
          "name": "_protocolPool",
          "type": "address"
        }
      ],
      "name": "init",
      "outputs": [],
      "stateMutability": "nonpayable",
      "type": "function"
    },
    {
      "inputs": [],
      "name": "lastPeriodGlobalRewardsAccrued",
      "outputs": [
        {
          "internalType": "uint64",
          "name": "",
          "type": "uint64"
        }
      ],
      "stateMutability": "view",
      "type": "function"
    },
    {
      "inputs": [
        {
          "internalType": "contract IUniswapV3Pool",
          "name": "pool",
          "type": "address"
        },
        {
          "internalType": "uint256[]",
          "name": "nftTokenIDs",
          "type": "uint256[]"
        }
      ],
      "name": "liquidateOutofRangePositions",
      "outputs": [],
      "stateMutability": "nonpayable",
      "type": "function"
    },
    {
      "inputs": [],
      "name": "liquidationPenalty",
      "outputs": [
        {
          "internalType": "uint64",
          "name": "",
          "type": "uint64"
        }
      ],
      "stateMutability": "view",
      "type": "function"
    },
    {
      "inputs": [],
      "name": "maxCollateralLiquidityDecreasePerPeriod",
      "outputs": [
        {
          "internalType": "uint64",
          "name": "",
          "type": "uint64"
        }
      ],
      "stateMutability": "view",
      "type": "function"
    },
    {
      "inputs": [
        {
          "internalType": "contract IUniswapV3Pool",
          "name": "",
          "type": "address"
        }
      ],
      "name": "minCollateralLiquidityByPeriod",
      "outputs": [
        {
          "internalType": "uint64",
          "name": "period",
          "type": "uint64"
        },
        {
          "internalType": "uint192",
          "name": "minLiquidity",
          "type": "uint192"
        }
      ],
      "stateMutability": "view",
      "type": "function"
    },
    {
      "inputs": [],
      "name": "minHueCountPerPosition",
      "outputs": [
        {
          "internalType": "uint128",
          "name": "",
          "type": "uint128"
        }
      ],
      "stateMutability": "view",
      "type": "function"
    },
    {
      "inputs": [],
      "name": "nftPositionManager",
      "outputs": [
        {
          "internalType": "contract INonfungiblePositionManager",
          "name": "",
          "type": "address"
        }
      ],
      "stateMutability": "view",
      "type": "function"
    },
    {
      "inputs": [],
      "name": "periodLength",
      "outputs": [
        {
          "internalType": "uint64",
          "name": "",
          "type": "uint64"
        }
      ],
      "stateMutability": "view",
      "type": "function"
    },
    {
      "inputs": [
        {
          "internalType": "contract IUniswapV3Pool",
          "name": "",
          "type": "address"
        }
      ],
      "name": "poolIDForPool",
      "outputs": [
        {
          "internalType": "uint16",
          "name": "",
          "type": "uint16"
        }
      ],
      "stateMutability": "view",
      "type": "function"
    },
    {
      "inputs": [
        {
          "internalType": "uint256",
          "name": "nftTokenID",
          "type": "uint256"
        }
      ],
      "name": "removeKickback",
      "outputs": [],
      "stateMutability": "nonpayable",
      "type": "function"
    },
    {
      "inputs": [
        {
          "components": [
            {
              "internalType": "uint256",
              "name": "tokenId",
              "type": "uint256"
            },
            {
              "internalType": "uint128",
              "name": "liquidity",
              "type": "uint128"
            },
            {
              "internalType": "uint256",
              "name": "amount0Min",
              "type": "uint256"
            },
            {
              "internalType": "uint256",
              "name": "amount1Min",
              "type": "uint256"
            },
            {
              "internalType": "uint256",
              "name": "deadline",
              "type": "uint256"
            }
          ],
          "internalType": "struct INonfungiblePositionManager.DecreaseLiquidityParams",
          "name": "params",
          "type": "tuple"
        }
      ],
      "name": "removeLiquidityPosition",
      "outputs": [
        {
          "internalType": "uint256",
          "name": "amount0",
          "type": "uint256"
        },
        {
          "internalType": "uint256",
          "name": "amount1",
          "type": "uint256"
        }
      ],
      "stateMutability": "nonpayable",
      "type": "function"
    },
    {
      "inputs": [
        {
          "internalType": "uint64",
          "name": "penalty",
          "type": "uint64"
        }
      ],
      "name": "setLiquidationPenalty",
      "outputs": [],
      "stateMutability": "nonpayable",
      "type": "function"
    },
    {
      "inputs": [
        {
          "internalType": "uint64",
          "name": "decreasePortion",
          "type": "uint64"
        }
      ],
      "name": "setMaxCollateralLiquidityDecreasePerPeriod",
      "outputs": [],
      "stateMutability": "nonpayable",
      "type": "function"
    },
    {
      "inputs": [
        {
          "internalType": "uint128",
          "name": "min",
          "type": "uint128"
        }
      ],
      "name": "setMinHueCountPerPosition",
      "outputs": [],
      "stateMutability": "nonpayable",
      "type": "function"
    },
    {
      "inputs": [
        {
          "internalType": "uint32",
          "name": "duration",
          "type": "uint32"
        }
      ],
      "name": "setTwapDuration",
      "outputs": [],
      "stateMutability": "nonpayable",
      "type": "function"
    },
    {
      "inputs": [],
      "name": "stop",
      "outputs": [],
      "stateMutability": "nonpayable",
      "type": "function"
    },
    {
      "inputs": [],
      "name": "stopped",
      "outputs": [
        {
          "internalType": "bool",
          "name": "",
          "type": "bool"
        }
      ],
      "stateMutability": "view",
      "type": "function"
    },
    {
      "inputs": [],
      "name": "twapDuration",
      "outputs": [
        {
          "internalType": "uint32",
          "name": "",
          "type": "uint32"
        }
      ],
      "stateMutability": "view",
      "type": "function"
    },
    {
      "inputs": [],
      "name": "uniswapV3Factory",
      "outputs": [
        {
          "internalType": "contract IUniswapV3Factory",
          "name": "",
          "type": "address"
        }
      ],
      "stateMutability": "view",
      "type": "function"
    },
    {
      "inputs": [
        {
          "internalType": "uint16",
          "name": "poolID",
          "type": "uint16"
        },
        {
          "internalType": "uint64",
          "name": "incentive",
          "type": "uint64"
        }
      ],
      "name": "updatePoolIncentive",
      "outputs": [],
      "stateMutability": "nonpayable",
      "type": "function"
    },
    {
      "inputs": [
        {
          "internalType": "bytes4",
          "name": "",
          "type": "bytes4"
        }
      ],
      "name": "validUpdate",
      "outputs": [
        {
          "internalType": "bool",
          "name": "",
          "type": "bool"
        }
      ],
      "stateMutability": "view",
      "type": "function"
    },
    {
      "inputs": [],
      "name": "weth",
      "outputs": [
        {
          "internalType": "address",
          "name": "",
          "type": "address"
        }
      ],
      "stateMutability": "view",
      "type": "function"
    },
    {
      "stateMutability": "payable",
      "type": "receive"
    }
  ],
  "bytecode": "0x6101806040526001600260005090905567016345785d8a0000600360006101000a81548167ffffffffffffffff021916908367ffffffffffffffff16021790555066d529ae9e860000600360086101000a81548167ffffffffffffffff021916908367ffffffffffffffff16021790555068056bc75e2d63100000600360106101000a8154816fffffffffffffffffffffffffffffffff02191690836fffffffffffffffffffffffffffffffff160217905550610708600460006101000a81548163ffffffff021916908363ffffffff1602179055506000600460046101000a81548161ffff021916908361ffff160217905550348015620001015760006000fd5b506040516200815d3803806200815d8339818101604052810190620001279190620006be565b5b6138405b816000015182602001515b815b8073ffffffffffffffffffffffffffffffffffffffff1660808173ffffffffffffffffffffffffffffffffffffffff1660601b815260140150505b508073ffffffffffffffffffffffffffffffffffffffff1660a08173ffffffffffffffffffffffffffffffffffffffff1660601b815260140150505b5050600181620001c56200061260201b60201c565b620001d19190620007ba565b620001dd9190620007f3565b67ffffffffffffffff1660e08167ffffffffffffffff1660c01b815260080150508067ffffffffffffffff1660c08167ffffffffffffffff1660c01b815260080150505b50806040015173ffffffffffffffffffffffffffffffffffffffff166101608173ffffffffffffffffffffffffffffffffffffffff1660601b81526014015050806060015173ffffffffffffffffffffffffffffffffffffffff166101008173ffffffffffffffffffffffffffffffffffffffff1660601b81526014015050806080015173ffffffffffffffffffffffffffffffffffffffff166101208173ffffffffffffffffffffffffffffffffffffffff1660601b815260140150508060a0015173ffffffffffffffffffffffffffffffffffffffff166101408173ffffffffffffffffffffffffffffffffffffffff1660601b8152601401505060006040518060c00160405280636161189060e01b7bffffffffffffffffffffffffffffffffffffffffffffffffffffffff19167bffffffffffffffffffffffffffffffffffffffffffffffffffffffff191681526020016328d10de860e01b7bffffffffffffffffffffffffffffffffffffffffffffffffffffffff19167bffffffffffffffffffffffffffffffffffffffffffffffffffffffff1916815260200163c7bd867c60e01b7bffffffffffffffffffffffffffffffffffffffffffffffffffffffff19167bffffffffffffffffffffffffffffffffffffffffffffffffffffffff1916815260200163de8925f560e01b7bffffffffffffffffffffffffffffffffffffffffffffffffffffffff19167bffffffffffffffffffffffffffffffffffffffffffffffffffffffff1916815260200163c433c80a60e01b7bffffffffffffffffffffffffffffffffffffffffffffffffffffffff19167bffffffffffffffffffffffffffffffffffffffffffffffffffffffff19168152602001630907653160e01b7bffffffffffffffffffffffffffffffffffffffffffffffffffffffff19167bffffffffffffffffffffffffffffffffffffffffffffffffffffffff191681526020015090506000600090505b81506006811015620005c757600160016000506000848460068110151562000548577f4e487b7100000000000000000000000000000000000000000000000000000000600052603260045260246000fd5b60200201517bffffffffffffffffffffffffffffffffffffffffffffffffffffffff19167bffffffffffffffffffffffffffffffffffffffffffffffffffffffff1916815260200190815260200160002060006101000a81548160ff0219169083151502179055505b8080620005be9062000827565b915050620004f7565b5033600860086101000a81548173ffffffffffffffffffffffffffffffffffffffff021916908373ffffffffffffffffffffffffffffffffffffffff160217905550505b5062000864565b60006200062c426200063460201b62001fab17909060201c565b905080505b90565b6000680100000000000000008210151562000686576040517f08c379a00000000000000000000000000000000000000000000000000000000081526004016200067d906200077b565b60405180910390fd5b8190506200068f565b9190505662000863565b6000815190506001600160a01b03811681141515620006b85760006000fd5b5b919050565b600060c08284031215620006d0578081fd5b60405160c081018181106001600160401b0382111715620006ff57634e487b7160e01b83526041600452602483fd5b80604052506200070f8362000699565b81526200071f6020840162000699565b6020820152620007326040840162000699565b6040820152620007456060840162000699565b6060820152620007586080840162000699565b60808201526200076b60a0840162000699565b60a0820152809150505b92915050565b60208152601160208201527f6d6f7265207468616e2036342062697473000000000000000000000000000000604082015260006060820190505b919050565b60006001600160401b03808416801515620007e357634e487b7160e01b83526012600452602483fd5b8082851604925050505b92915050565b60006001600160401b038083168185169150818110156200081957620008186200084b565b5b818103925050505b92915050565b60006000198214156200083f576200083e6200084b565b5b6001820190505b919050565b634e487b7160e01b600052601160045260246000fd5b565b5b60805160601c60a05160601c60c05160c01c60e05160c01c6101005160601c6101205160601c6101405160601c6101605160601c61771662000a4760003960008181610a98015281816111760152818161165d01528181611a0b0152818161248401528181612bea01528181612f140152818161333f015281816134710152818161391001528181613a060152818161411f0152818161423b0152818161432a015281816149bb01528181614a6801528181614add01526150c3015260008181611325015261182001526000818161025b015281816119e7015281816128190152818161295001528181612ad201528181612c770152818161339b0152818161367301528181613759015281816146dd0152818161477101528181614d2601526152790152600081816102b0015281816117010152818161468901528181614c0801528181614c680152818161540d0152615461015260008181611acc01528181612d9e01526144c7015260008181611bcb01528181612dbf01526144e80152600081816120090152612d17015260008181610efd015281816120f40152818161224c015281816126100152818161271401528181612e0d0152818161310d01528181613b850152818161402b015281816143d90152614e0401526177166000f3fe6080604052600436106102535760003560e01c80635b54918211610138578063c4e3a63b116100b0578063de8925f51161007f578063f4d8977f11610064578063f4d8977f146108eb578063fbc3a6431461092a578063fbe6eb9b146109565761030d565b8063de8925f514610897578063f09a4016146108c15761030d565b8063c4e3a63b146107e9578063c7bd867c14610815578063d2ca21151461083f578063d5f394881461086b5761030d565b806381cc8807116101075780639624e83e116100ec5780639624e83e14610767578063bdd266cd14610793578063c433c80a146107bf5761030d565b806381cc8807146106fc578063843978881461073b5761030d565b80635b5491821461064e578063616118901461067a5780636fcdfed6146106a457806375f12b21146106d05761030d565b80631df0f8a3116101cb57806328d10de81161019a5780633fc8cef31161017f5780633fc8cef3146105b45780634b829573146105e057806350b404001461061e5761030d565b806328d10de8146105605780633e9483721461058a5761030d565b80631df0f8a31461049857806323f5589a146104d7578063265e8a641461050357806326d89545146105345761030d565b80630c340a2411610222578063113cf1ab11610207578063113cf1ab1461040357806315398ae7146104415780631afdbce4146104805761030d565b80630c340a24146103ab5780630dae9f52146103d75761030d565b8063039d10e814610313578063060406181461033d57806307da68f51461036957806309076531146103815761030d565b3661030d575b7f000000000000000000000000000000000000000000000000000000000000000073ffffffffffffffffffffffffffffffffffffffff163373ffffffffffffffffffffffffffffffffffffffff1614806102fe57507f000000000000000000000000000000000000000000000000000000000000000073ffffffffffffffffffffffffffffffffffffffff163373ffffffffffffffffffffffffffffffffffffffff16145b151561030a5760006000fd5b5b005b60006000fd5b3480156103205760006000fd5b5061033b60048036038101906103369190615e4e565b610994565b005b34801561034a5760006000fd5b50610353610e2f565b6040516103609190617299565b60405180910390f35b3480156103765760006000fd5b5061037f610e47565b005b34801561038e5760006000fd5b506103a960048036038101906103a49190616429565b610e67565b005b3480156103b85760006000fd5b506103c1610efb565b6040516103ce9190616742565b60405180910390f35b3480156103e45760006000fd5b506103ed610f1f565b6040516103fa9190617299565b60405180910390f35b3480156104105760006000fd5b5061042b60048036038101906104269190615db3565b610f39565b6040516104389190616706565b60405180910390f35b34801561044e5760006000fd5b5061046960048036038101906104649190615f87565b610f5e565b60405161047792919061722d565b60405180910390f35b34801561048d5760006000fd5b5061049661107d565b005b3480156104a55760006000fd5b506104c060048036038101906104bb9190615d2b565b6110ba565b6040516104ce92919061722d565b60405180910390f35b3480156104e45760006000fd5b506104ed6112e0565b6040516104fa9190617299565b60405180910390f35b61051d60048036038101906105189190616066565b6112fa565b60405161052b929190617202565b60405180910390f35b3480156105415760006000fd5b5061054a6114ef565b6040516105579190617269565b60405180910390f35b34801561056d5760006000fd5b5061058860048036038101906105839190616323565b611505565b005b3480156105975760006000fd5b506105b260048036038101906105ad919061635f565b61160f565b005b3480156105c15760006000fd5b506105ca6116ff565b6040516105d791906165fc565b60405180910390f35b3480156105ed5760006000fd5b5061060860048036038101906106039190615e27565b611723565b60405161061591906170c6565b60405180910390f35b61063860048036038101906106339190616027565b611749565b60405161064591906170a2565b60405180910390f35b34801561065b5760006000fd5b5061066461181e565b6040516106719190616792565b60405180910390f35b3480156106875760006000fd5b506106a2600480360381019061069d9190615ee5565b611842565b005b3480156106b15760006000fd5b506106ba61195f565b6040516106c791906170c6565b60405180910390f35b3480156106dd5760006000fd5b506106e6611973565b6040516106f39190616706565b60405180910390f35b3480156107095760006000fd5b50610724600480360381019061071f9190615e27565b611986565b6040516107329291906172b5565b60405180910390f35b3480156107485760006000fd5b506107516119e5565b60405161075e919061676a565b60405180910390f35b3480156107745760006000fd5b5061077d611a09565b60405161078a919061671a565b60405180910390f35b3480156107a05760006000fd5b506107a9611a2d565b6040516107b69190617299565b60405180910390f35b3480156107cc5760006000fd5b506107e760048036038101906107e29190616402565b611a47565b005b3480156107f65760006000fd5b506107ff611aca565b60405161080c9190617299565b60405180910390f35b3480156108225760006000fd5b5061083d60048036038101906108389190616429565b611aee565b005b34801561084c5760006000fd5b50610855611bc9565b6040516108629190617299565b60405180910390f35b3480156108785760006000fd5b50610881611bed565b60405161088e91906165fc565b60405180910390f35b3480156108a45760006000fd5b506108bf60048036038101906108ba919061629b565b611c13565b005b3480156108ce5760006000fd5b506108e960048036038101906108e49190615ea9565b611c96565b005b3480156108f85760006000fd5b50610913600480360381019061090e9190615f48565b611d90565b60405161092192919061722d565b60405180910390f35b3480156109375760006000fd5b50610940611eb9565b60405161094d91906170a2565b60405180910390f35b3480156109635760006000fd5b5061097e600480360381019061097991906162fc565b611edb565b60405161098b9190617065565b60405180910390f35b6109a261200763ffffffff16565b6109b06120e463ffffffff16565b6000600660005060008573ffffffffffffffffffffffffffffffffffffffff1673ffffffffffffffffffffffffffffffffffffffff16815260200190815260200160002060009054906101000a900461ffff169050610a14816121d763ffffffff16565b610a1c615a60565b6000848490509050600043905060006040518060400160405280600115158152602001610a4e8a61224863ffffffff16565b60020b8152602001509050610a61615b26565b610a6f61239463ffffffff16565b67ffffffffffffffff1681608001909081815260200150506000600090505b84811015610e12577f000000000000000000000000000000000000000000000000000000000000000073ffffffffffffffffffffffffffffffffffffffff1663f34348f18a8a848181101515610b0d577f4e487b7100000000000000000000000000000000000000000000000000000000600052603260045260246000fd5b905060200201356040518263ffffffff1660e01b8152600401610b3091906170dc565b6101806040518083038186803b158015610b4a5760006000fd5b505afa158015610b5f573d600060003e3d6000fd5b505050506040513d601f19601f82011682018060405250810190610b839190616146565b955085508661ffff16866020015161ffff16141515610ba157610dff565b610bb58684602001516123af63ffffffff16565b15610bbf57610dff565b838660800151101515610bd157610dff565b610be0866123e263ffffffff16565b955085508888828181101515610c1f577f4e487b7100000000000000000000000000000000000000000000000000000000600052603260045260246000fd5b905060200201358260000190908181526020015050610c50826000015160006000896000015161281363ffffffff16565b5050610cab610c9e600360089054906101000a900467ffffffffffffffff1667ffffffffffffffff168860a001516fffffffffffffffffffffffffffffffff16612a4290919063ffffffff16565b612a68909063ffffffff16565b82602001906fffffffffffffffffffffffffffffffff1690816fffffffffffffffffffffffffffffffff1681526020015050610ced8233612acc63ffffffff16565b5050610d1c82602001518760a001516fffffffffffffffffffffffffffffffff16612bb790919063ffffffff16565b82602001906fffffffffffffffffffffffffffffffff1690816fffffffffffffffffffffffffffffffff1681526020015050610d62828760000151612acc63ffffffff16565b5050610d7982600001518785612bd263ffffffff16565b3373ffffffffffffffffffffffffffffffffffffffff168989838181101515610dcb577f4e487b7100000000000000000000000000000000000000000000000000000000600052603260045260246000fd5b905060200201357f6ba13b7ae6048936f291047829a5de36835ad46b52453fff379900999074709260405160405180910390a35b8080610e0a90617575565b915050610a8e565b505050505050505b5b610e29612d0863ffffffff16565b5b505050565b6000610e3f612d9a63ffffffff16565b905080505b90565b610e55612e0863ffffffff16565b610e63612e6863ffffffff16565b5b5b565b610e75612e0863ffffffff16565b6706f05b59d3b200008167ffffffffffffffff16101515610e965760006000fd5b80600360086101000a81548167ffffffffffffffff021916908367ffffffffffffffff1602179055507f78244e8e46597270e2f0ae9c6baded3ba10f1b3f03316f89e49bbfeb1c06786881604051610eee9190617299565b60405180910390a15b5b50565b7f000000000000000000000000000000000000000000000000000000000000000081565b600860009054906101000a900467ffffffffffffffff1681565b600160005060205280600052604060002060009150909054906101000a900460ff1681565b60006000610f7061200763ffffffff16565b610f7e612eb263ffffffff16565b6000610f938460000151612f0763ffffffff16565b9050610fa8816080015161301b63ffffffff16565b8060a0015184602001906fffffffffffffffffffffffffffffffff1690816fffffffffffffffffffffffffffffffff1681526020015050610ff3848260000151612acc63ffffffff16565b809350819450505061101d84600001518261101261306363ffffffff16565b612bd263ffffffff16565b83600001517f1bd2c24817047e88025a4688c0fba3903e750cc05d80857de4201f42ec59bcf2848460405161105392919061722d565b60405180910390a28282925092505061106856505b5b611077612d0863ffffffff16565b5b915091565b61108b61200763ffffffff16565b611099612eb263ffffffff16565b6110a761306f63ffffffff16565b5b5b6110b7612d0863ffffffff16565b5b565b600060006110cc61200763ffffffff16565b6110da612eb263ffffffff16565b60008585905090506110ea615a60565b6000600060006000600090505b858110156112b2578a8a82818110151561113a577f4e487b7100000000000000000000000000000000000000000000000000000000600052603260045260246000fd5b905060200201359350835061115484612f0763ffffffff16565b945084508885610120019063ffffffff16908163ffffffff16815260200150507f000000000000000000000000000000000000000000000000000000000000000073ffffffffffffffffffffffffffffffffffffffff1663816aaa2585876040518363ffffffff1660e01b81526004016111cf92919061711d565b600060405180830381600087803b1580156111ea5760006000fd5b505af11580156111ff573d600060003e3d6000fd5b5050505061121784600060003361281363ffffffff16565b809350819450505061123283896132ee90919063ffffffff16565b9750875061124983896132ee90919063ffffffff16565b96508650833373ffffffffffffffffffffffffffffffffffffffff167f56253d287efacdb2c4cd76dd03624a4821c1ce721d1152e8f5f5718f6087c9bf858560405161129692919061722d565b60405180910390a35b80806112aa90617575565b9150506110f7565b5086869650965050505050506112c85650505050505b5b6112d7612d0863ffffffff16565b5b935093915050565b600360089054906101000a900467ffffffffffffffff1681565b6000600061130c61200763ffffffff16565b61131a6120e463ffffffff16565b6000600660005060007f000000000000000000000000000000000000000000000000000000000000000073ffffffffffffffffffffffffffffffffffffffff16631698ee82886000015189602001518a604001516040518463ffffffff1660e01b815260040161138c93929190616624565b60206040518083038186803b1580156113a55760006000fd5b505afa1580156113ba573d600060003e3d6000fd5b505050506040513d601f19601f820116820180604052508101906113de9190615d04565b73ffffffffffffffffffffffffffffffffffffffff1673ffffffffffffffffffffffffffffffffffffffff16815260200190815260200160002060009054906101000a900461ffff169050611438816121d763ffffffff16565b6114478561330963ffffffff16565b809350819450505061146b838287606001518860800151868961346f63ffffffff16565b828161ffff163373ffffffffffffffffffffffffffffffffffffffff167f87c666eb8f5e2d1a47a2af419127c84ea830d86b5f75e12ca3dafa33323d912288606001518960800151876040516114c3939291906168fe565b60405180910390a4828292509250506114d856505b5b6114e7612d0863ffffffff16565b5b9250929050565b600460009054906101000a900463ffffffff1681565b611513612e0863ffffffff16565b611522826121d763ffffffff16565b61153061306f63ffffffff16565b80600560005060008461ffff1661ffff16815260200190815260200160002060005060000160146101000a81548167ffffffffffffffff021916908367ffffffffffffffff160217905550600061158b6135c863ffffffff16565b1115156115cd576040517f08c379a00000000000000000000000000000000000000000000000000000000081526004016115c490616be7565b60405180910390fd5b8161ffff167fcf476913af040a8c0a50588902fc980c73de756444694afb625e05906334404f826040516116019190617299565b60405180910390a25b5b5050565b61161d61200763ffffffff16565b61162b6120e463ffffffff16565b600061163c82612f0763ffffffff16565b9050600081610120019063ffffffff16908163ffffffff16815260200150507f000000000000000000000000000000000000000000000000000000000000000073ffffffffffffffffffffffffffffffffffffffff1663816aaa2583836040518363ffffffff1660e01b81526004016116b692919061711d565b600060405180830381600087803b1580156116d15760006000fd5b505af11580156116e6573d600060003e3d6000fd5b50505050505b5b6116fb612d0863ffffffff16565b5b50565b7f000000000000000000000000000000000000000000000000000000000000000081565b600660005060205280600052604060002060009150909054906101000a900461ffff1681565b600061175961200763ffffffff16565b6117676120e463ffffffff16565b600061177c8460000135612f0763ffffffff16565b90508281610120019063ffffffff16908163ffffffff16815260200150506117a98461366b63ffffffff16565b915081506117c28185600001358461382363ffffffff16565b83600001357fcc5b49b47bfd2f61894e4c8977343543aa054a11ae847be904355459ce55dcd9836040516117f691906170a2565b60405180910390a28191505061180856505b5b611817612d0863ffffffff16565b5b92915050565b7f000000000000000000000000000000000000000000000000000000000000000081565b611850612e0863ffffffff16565b6000600660005060008473ffffffffffffffffffffffffffffffffffffffff1673ffffffffffffffffffffffffffffffffffffffff16815260200190815260200160002060009054906101000a900461ffff1661ffff161415156118e9576040517f08c379a00000000000000000000000000000000000000000000000000000000081526004016118e090616c65565b60405180910390fd5b6118f761306f63ffffffff16565b6119078282613a9b63ffffffff16565b61ffff168273ffffffffffffffffffffffffffffffffffffffff167fb42c51dce17f5346a481b9dd503edc20c8b6de38b22e12b35a5c77c131fb38ac836040516119519190617299565b60405180910390a35b5b5050565b600460049054906101000a900461ffff1681565b600060009054906101000a900460ff1681565b60076000506020528060005260406000206000915090508060000160009054906101000a900467ffffffffffffffff16908060000160089054906101000a900477ffffffffffffffffffffffffffffffffffffffffffffffff16905082565b7f000000000000000000000000000000000000000000000000000000000000000081565b7f000000000000000000000000000000000000000000000000000000000000000081565b600360009054906101000a900467ffffffffffffffff1681565b611a55612e0863ffffffff16565b61012c8163ffffffff1610151515611a6d5760006000fd5b80600460006101000a81548163ffffffff021916908363ffffffff1602179055507f811ba52920ff121eccd59ee98068330fc6736094b9a3fab10ada70fb0cd2f37081604051611abd9190617281565b60405180910390a15b5b50565b7f000000000000000000000000000000000000000000000000000000000000000081565b611afc612e0863ffffffff16565b80600360006101000a81548167ffffffffffffffff021916908367ffffffffffffffff160217905550600360009054906101000a900467ffffffffffffffff1667ffffffffffffffff166000101515611b555760006000fd5b670de0b6b3a7640000600360009054906101000a900467ffffffffffffffff1667ffffffffffffffff1611151515611b8d5760006000fd5b7f41785a43e8509555b296851de25b00003ca4ca1c572c807cb301d4a0fb9582d481604051611bbc9190617299565b60405180910390a15b5b50565b7f000000000000000000000000000000000000000000000000000000000000000081565b600860089054906101000a900473ffffffffffffffffffffffffffffffffffffffff1681565b611c21612e0863ffffffff16565b80600360106101000a8154816fffffffffffffffffffffffffffffffff02191690836fffffffffffffffffffffffffffffffff1602179055507f755043e33e8e4c87253e98c56c011cc9905bf88318997b89b3520a54b3c5f17081604051611c8991906170a2565b60405180910390a15b5b50565b611cf5600860089054906101000a900473ffffffffffffffffffffffffffffffffffffffff1673ffffffffffffffffffffffffffffffffffffffff163373ffffffffffffffffffffffffffffffffffffffff1614613f0b63ffffffff16565b600860086101000a81549073ffffffffffffffffffffffffffffffffffffffff0219169055600161ffff16611d3283610bb8613a9b63ffffffff16565b61ffff16141515611d78576040517f08c379a0000000000000000000000000000000000000000000000000000000008152600401611d6f90616da0565b60405180910390fd5b611d8a816103e8613a9b63ffffffff16565b505b5050565b60006000611da261200763ffffffff16565b611db06120e463ffffffff16565b6000611dc58560000135612f0763ffffffff16565b9050611dda816080015161301b63ffffffff16565b8381610120019063ffffffff16908163ffffffff1681526020015050611e1a85803603810190611e0a9190615f87565b8260000151612acc63ffffffff16565b8093508194505050611e57818660000135876020016020810190611e3e919061629b565b611e4c61306363ffffffff16565b613f5163ffffffff16565b84600001357ffafb1711250bf0d3906bfd9c4386a9a5a5fdf9ac1facdc9dfd2addad7d3f72e78484604051611e8d92919061722d565b60405180910390a281829250925050611ea256505b5b611eb1612d0863ffffffff16565b5b9250929050565b600360109054906101000a90046fffffffffffffffffffffffffffffffff1681565b611ee3615b6a565b600560005060008361ffff1661ffff1681526020019081526020016000206000506040518060400160405290816000820160009054906101000a900473ffffffffffffffffffffffffffffffffffffffff1673ffffffffffffffffffffffffffffffffffffffff1673ffffffffffffffffffffffffffffffffffffffff1681526020016000820160149054906101000a900467ffffffffffffffff1667ffffffffffffffff1667ffffffffffffffff168152602001505090508050809050611fa6565b919050565b60006801000000000000000082101515611ffa576040517f08c379a0000000000000000000000000000000000000000000000000000000008152600401611ff190616e83565b60405180910390fd5b819050612002565b919050565b7f000000000000000000000000000000000000000000000000000000000000000073ffffffffffffffffffffffffffffffffffffffff1663e97dcb626040518163ffffffff1660e01b8152600401600060405180830381600087803b1580156120705760006000fd5b505af1158015612085573d600060003e3d6000fd5b505050506002600260005054141515156120d4576040517f08c379a00000000000000000000000000000000000000000000000000000000081526004016120cb90616ba8565b60405180910390fd5b600260026000508190909055505b565b6120f2612eb263ffffffff16565b7f000000000000000000000000000000000000000000000000000000000000000073ffffffffffffffffffffffffffffffffffffffff1663bf86d6906040518163ffffffff1660e01b815260040160206040518083038186803b1580156121595760006000fd5b505afa15801561216e573d600060003e3d6000fd5b505050506040513d601f19601f820116820180604052508101906121929190615d86565b1515156121d4576040517f08c379a00000000000000000000000000000000000000000000000000000000081526004016121cb9061698a565b60405180910390fd5b5b565b8061ffff1660001080156122035750600460049054906101000a900461ffff1661ffff168161ffff1611155b1515612244576040517f08c379a000000000000000000000000000000000000000000000000000000000815260040161223b90616ce3565b60405180910390fd5b5b50565b60007f000000000000000000000000000000000000000000000000000000000000000073ffffffffffffffffffffffffffffffffffffffff1663d3419bf36040518163ffffffff1660e01b815260040160206040518083038186803b1580156122b15760006000fd5b505afa1580156122c6573d600060003e3d6000fd5b505050506040513d601f19601f820116820180604052508101906122ea9190615e00565b73ffffffffffffffffffffffffffffffffffffffff1663fcebd71c83600460009054906101000a900463ffffffff166040518363ffffffff1660e01b81526004016123369291906168c9565b60206040518083038186803b15801561234f5760006000fd5b505afa158015612364573d600060003e3d6000fd5b505050506040513d601f19601f820116820180604052508101906123889190615f21565b905061238f565b919050565b60006123a742611fab909063ffffffff16565b905080505b90565b60008160020b8360e0015160020b131580156123d5575082610100015160020b8260020b125b90506123dc565b92915050565b6123ea615a60565b60006123fa6143c163ffffffff16565b9050600061240d826144c063ffffffff16565b905060008460c001519050600060008267ffffffffffffffff16146124405761243b826144c063ffffffff16565b612443565b60005b90508067ffffffffffffffff168367ffffffffffffffff1611151561246e578594505050505061280e565b61247c61306f63ffffffff16565b6000612581877f000000000000000000000000000000000000000000000000000000000000000073ffffffffffffffffffffffffffffffffffffffff16631cef92b1600560005060008c6020015161ffff1661ffff16815260200190815260200160002060005060000160009054906101000a900473ffffffffffffffffffffffffffffffffffffffff166040518263ffffffff1660e01b815260040161252391906167ba565b60406040518083038186803b15801561253c5760006000fd5b505afa158015612551573d600060003e3d6000fd5b505050506040513d601f19601f820116820180604052508101906125759190616224565b8761453463ffffffff16565b809250819750505060008111156127fc57600073ffffffffffffffffffffffffffffffffffffffff1686610140015173ffffffffffffffffffffffffffffffffffffffff16141580156125e35750600086610160015167ffffffffffffffff16115b1561271257600061260c87610160015167ffffffffffffffff1683612a4290919063ffffffff16565b90507f000000000000000000000000000000000000000000000000000000000000000073ffffffffffffffffffffffffffffffffffffffff16634d6729f5886101400151836040518363ffffffff1660e01b815260040161266e92919061669d565b600060405180830381600087803b1580156126895760006000fd5b505af115801561269e573d600060003e3d6000fd5b505050506001151587610140015173ffffffffffffffffffffffffffffffffffffffff167f8079a05488a0f375c08504c3ba8b3a1371f5a192b7a141bc9294ef7ad41389d9836040516126f191906170dc565b60405180910390a361270c818361466c90919063ffffffff16565b91508150505b7f000000000000000000000000000000000000000000000000000000000000000073ffffffffffffffffffffffffffffffffffffffff16634d6729f58760000151836040518363ffffffff1660e01b815260040161277192919061669d565b600060405180830381600087803b15801561278c5760006000fd5b505af11580156127a1573d600060003e3d6000fd5b5050505060001515866000015173ffffffffffffffffffffffffffffffffffffffff167f8079a05488a0f375c08504c3ba8b3a1371f5a192b7a141bc9294ef7ad41389d9836040516127f391906170dc565b60405180910390a35b859550505050505061280e5650505050505b919050565b600060007f000000000000000000000000000000000000000000000000000000000000000073ffffffffffffffffffffffffffffffffffffffff1663fc6f78656040518060800160405280898152602001600073ffffffffffffffffffffffffffffffffffffffff1681526020016fffffffffffffffffffffffffffffffff6fffffffffffffffffffffffffffffffff1681526020016fffffffffffffffffffffffffffffffff6fffffffffffffffffffffffffffffffff168152602001506040518263ffffffff1660e01b81526004016128ee9190616ec2565b604060405180830381600087803b1580156129095760006000fd5b505af115801561291e573d600060003e3d6000fd5b505050506040513d601f19601f8201168201806040525081019061294291906163dc565b8092508193505050600060007f000000000000000000000000000000000000000000000000000000000000000073ffffffffffffffffffffffffffffffffffffffff166399fbab88896040518263ffffffff1660e01b81526004016129a791906170dc565b6101806040518083038186803b1580156129c15760006000fd5b505afa1580156129d6573d600060003e3d6000fd5b505050506040513d601f19601f820116820180604052508101906129fa9190616477565b5050505050505050935093505050612a1982888761468763ffffffff16565b612a2a81878761468763ffffffff16565b8383935093505050612a395650505b94509492505050565b6000612a5d8383670de0b6b3a764000061480763ffffffff16565b905080505b92915050565b600070010000000000000000000000000000000082101515612abf576040517f08c379a0000000000000000000000000000000000000000000000000000000008152600401612ab690616ca4565b60405180910390fd5b819050612ac7565b919050565b600060007f000000000000000000000000000000000000000000000000000000000000000073ffffffffffffffffffffffffffffffffffffffff16630c49ccbe856040518263ffffffff1660e01b8152600401612b299190616f21565b604060405180830381600087803b158015612b445760006000fd5b505af1158015612b59573d600060003e3d6000fd5b505050506040513d601f19601f82011682018060405250810190612b7d91906163dc565b8092508193505050612ba38460000151856040015186606001518661281363ffffffff16565b5050808191509150612bb0565b9250929050565b60008183612bc5919061748e565b9050612bcc565b92915050565b612be882848460a0015184613f5163ffffffff16565b7f000000000000000000000000000000000000000000000000000000000000000073ffffffffffffffffffffffffffffffffffffffff166326879a4e846040518263ffffffff1660e01b8152600401612c4191906170dc565b600060405180830381600087803b158015612c5c5760006000fd5b505af1158015612c71573d600060003e3d6000fd5b505050507f000000000000000000000000000000000000000000000000000000000000000073ffffffffffffffffffffffffffffffffffffffff166342966c68846040518263ffffffff1660e01b8152600401612cce91906170dc565b600060405180830381600087803b158015612ce95760006000fd5b505af1158015612cfe573d600060003e3d6000fd5b505050505b505050565b600160026000508190909055507f000000000000000000000000000000000000000000000000000000000000000073ffffffffffffffffffffffffffffffffffffffff1663e9fad8ee6040518163ffffffff1660e01b8152600401600060405180830381600087803b158015612d7e5760006000fd5b505af1158015612d93573d600060003e3d6000fd5b505050505b565b60007f00000000000000000000000000000000000000000000000000000000000000007f0000000000000000000000000000000000000000000000000000000000000000612dec61239463ffffffff16565b612df6919061741b565b612e0091906174e7565b905080505b90565b612e657f000000000000000000000000000000000000000000000000000000000000000073ffffffffffffffffffffffffffffffffffffffff163373ffffffffffffffffffffffffffffffffffffffff1614613f0b63ffffffff16565b5b565b6001600060006101000a81548160ff0219169083151502179055507f7acc84e34091ae817647a4c49116f5cc07f319078ba80f8f5fde37ea7e25cbd660405160405180910390a15b565b600060009054906101000a900460ff16151515612f04576040517f08c379a0000000000000000000000000000000000000000000000000000000008152600401612efb90616d22565b60405180910390fd5b5b565b612f0f615a60565b612fc97f000000000000000000000000000000000000000000000000000000000000000073ffffffffffffffffffffffffffffffffffffffff1663f34348f1846040518263ffffffff1660e01b8152600401612f6b91906170dc565b6101806040518083038186803b158015612f855760006000fd5b505afa158015612f9a573d600060003e3d6000fd5b505050506040513d601f19601f82011682018060405250810190612fbe9190616146565b6123e263ffffffff16565b9050805061300e816000015173ffffffffffffffffffffffffffffffffffffffff163373ffffffffffffffffffffffffffffffffffffffff1614613f0b63ffffffff16565b809050613016565b919050565b438110151561305f576040517f08c379a000000000000000000000000000000000000000000000000000000000815260040161305690616d61565b60405180910390fd5b5b50565b61306b615ba7565b5b90565b600061307f61492b63ffffffff16565b9050600860009054906101000a900467ffffffffffffffff1667ffffffffffffffff168167ffffffffffffffff161115156130ba57506132ec565b6000600860009054906101000a900467ffffffffffffffff16826130de91906174e7565b90506000613840620151806130f3919061741b565b67ffffffffffffffff166131bb8367ffffffffffffffff167f000000000000000000000000000000000000000000000000000000000000000073ffffffffffffffffffffffffffffffffffffffff166318c7de176040518163ffffffff1660e01b8152600401602060405180830381600087803b1580156131745760006000fd5b505af1158015613189573d600060003e3d6000fd5b505050506040513d601f19601f820116820180604052508101906131ad919061637b565b61495390919063ffffffff16565b6131c591906173fd565b90506000600460049054906101000a900461ffff169050600060006131ee6135c863ffffffff16565b90506001915081505b8261ffff168261ffff161115156132835761326f82613263600560005060008661ffff1661ffff16815260200190815260200160002060005060000160149054906101000a900467ffffffffffffffff1667ffffffffffffffff1684886148079092919063ffffffff16565b8761496e63ffffffff16565b5b818061327b9061754e565b9250506131f7565b85600860006101000a81548167ffffffffffffffff021916908367ffffffffffffffff1602179055507f095a67d1e9698fe0eebf9cff79a22f6423cebcb4e386a0bdd7e12330d86381ed84866040516132dd929190617246565b60405180910390a15050505050505b565b600081836132fc91906173dd565b9050613303565b92915050565b6000600061332583600001518460a00151614c0663ffffffff16565b61333d83602001518460c00151614c0663ffffffff16565b7f000000000000000000000000000000000000000000000000000000000000000083610120019073ffffffffffffffffffffffffffffffffffffffff16908173ffffffffffffffffffffffffffffffffffffffff16815260200150507f000000000000000000000000000000000000000000000000000000000000000073ffffffffffffffffffffffffffffffffffffffff166388316456846040518263ffffffff1660e01b81526004016133f29190616fb3565b608060405180830381600087803b15801561340d5760006000fd5b505af1158015613422573d600060003e3d6000fd5b505050506040513d601f19601f820116820180604052508101906134469190616397565b905050809250819350505061346983600001518460200151614d0663ffffffff16565b5b915091565b7f000000000000000000000000000000000000000000000000000000000000000073ffffffffffffffffffffffffffffffffffffffff166375ea13ca33886040518363ffffffff1660e01b81526004016134ca92919061669d565b600060405180830381600087803b1580156134e55760006000fd5b505af11580156134fa573d600060003e3d6000fd5b50505050613506615a60565b33816000019073ffffffffffffffffffffffffffffffffffffffff16908173ffffffffffffffffffffffffffffffffffffffff168152602001505085816020019061ffff16908161ffff1681526020015050848160e0019060020b908160020b815260200150508381610100019060020b908160020b815260200150508181610120019063ffffffff16908163ffffffff16815260200150506135be6135b1826123e263ffffffff16565b888561382363ffffffff16565b505b505050505050565b60006000600190505b600460049054906101000a900461ffff1661ffff168161ffff1611151561365f57613647600560005060008361ffff1661ffff16815260200190815260200160002060005060000160149054906101000a900467ffffffffffffffff1667ffffffffffffffff16836132ee90919063ffffffff16565b915081505b80806136579061754e565b9150506135d1565b50809050613668565b90565b6000600060007f000000000000000000000000000000000000000000000000000000000000000073ffffffffffffffffffffffffffffffffffffffff166399fbab8885600001356040518263ffffffff1660e01b81526004016136ce91906170dc565b6101806040518083038186803b1580156136e85760006000fd5b505afa1580156136fd573d600060003e3d6000fd5b505050506040513d601f19601f820116820180604052508101906137219190616477565b5050505050505050935093505050613743828560200135614c0663ffffffff16565b613757818560400135614c0663ffffffff16565b7f000000000000000000000000000000000000000000000000000000000000000073ffffffffffffffffffffffffffffffffffffffff1663219f5d17856040518263ffffffff1660e01b81526004016137b09190616f6e565b606060405180830381600087803b1580156137cb5760006000fd5b505af11580156137e0573d600060003e3d6000fd5b505050506040513d601f19601f8201168201806040525081019061380491906162c2565b9050508093505061381b8282614d0663ffffffff16565b50505b919050565b600060056000506000856020015161ffff1661ffff16815260200190815260200160002060005060000160009054906101000a900473ffffffffffffffffffffffffffffffffffffffff16905060006138818261224863ffffffff16565b905061389385826123af63ffffffff16565b15156138d4576040517f08c379a00000000000000000000000000000000000000000000000000000000081526004016138cb906169c9565b60405180910390fd5b61390e858284613903878a60a001516fffffffffffffffffffffffffffffffff16614dc590919063ffffffff16565b614de063ffffffff16565b7f000000000000000000000000000000000000000000000000000000000000000073ffffffffffffffffffffffffffffffffffffffff16631428561d83856040518363ffffffff1660e01b8152600401613969929190616888565b600060405180830381600087803b1580156139845760006000fd5b505af1158015613999573d600060003e3d6000fd5b50505050670de0b6b3a7640000600360009054906101000a900467ffffffffffffffff1667ffffffffffffffff161080156139e05750600161ffff16856020015161ffff16145b156139f5576139f482614fdb63ffffffff16565b5b4385608001909081815260200150507f000000000000000000000000000000000000000000000000000000000000000073ffffffffffffffffffffffffffffffffffffffff1663816aaa2585876040518363ffffffff1660e01b8152600401613a5f92919061711d565b600060405180830381600087803b158015613a7a5760006000fd5b505af1158015613a8f573d600060003e3d6000fd5b5050505050505b505050565b60006000600660005060008573ffffffffffffffffffffffffffffffffffffffff1673ffffffffffffffffffffffffffffffffffffffff16815260200190815260200160002060009054906101000a900461ffff1661ffff16141515613b36576040517f08c379a0000000000000000000000000000000000000000000000000000000008152600401613b2d90616ac5565b60405180910390fd5b61ffff61ffff166004600481819054906101000a900461ffff16613b599061754e565b91906101000a81548161ffff021916908361ffff160217905561ffff16101515613b835760006000fd5b7f000000000000000000000000000000000000000000000000000000000000000073ffffffffffffffffffffffffffffffffffffffff1663d3419bf36040518163ffffffff1660e01b815260040160206040518083038186803b158015613bea5760006000fd5b505afa158015613bff573d600060003e3d6000fd5b505050506040513d601f19601f82011682018060405250810190613c239190615e00565b73ffffffffffffffffffffffffffffffffffffffff1663407431f7846040518263ffffffff1660e01b8152600401613c5b91906167ba565b600060405180830381600087803b158015613c765760006000fd5b505af1158015613c8b573d600060003e3d6000fd5b50505050600460049054906101000a900461ffff169050805060405180604001604052808473ffffffffffffffffffffffffffffffffffffffff1681526020018367ffffffffffffffff16815260200150600560005060008361ffff1661ffff16815260200190815260200160002060005060008201518160000160006101000a81548173ffffffffffffffffffffffffffffffffffffffff021916908373ffffffffffffffffffffffffffffffffffffffff16021790555060208201518160000160146101000a81548167ffffffffffffffff021916908367ffffffffffffffff16021790555090505080600660005060008573ffffffffffffffffffffffffffffffffffffffff1673ffffffffffffffffffffffffffffffffffffffff16815260200190815260200160002060006101000a81548161ffff021916908361ffff160217905550613e618373ffffffffffffffffffffffffffffffffffffffff16630dfe16816040518163ffffffff1660e01b815260040160206040518083038186803b158015613e1d5760006000fd5b505afa158015613e32573d600060003e3d6000fd5b505050506040513d601f19601f82011682018060405250810190613e569190615d04565b61527363ffffffff16565b613eef8373ffffffffffffffffffffffffffffffffffffffff1663d21220a76040518163ffffffff1660e01b815260040160206040518083038186803b158015613eab5760006000fd5b505afa158015613ec0573d600060003e3d6000fd5b505050506040513d601f19601f82011682018060405250810190613ee49190615d04565b61527363ffffffff16565b613efd61306f63ffffffff16565b809050613f05565b92915050565b801515613f4d576040517f08c379a0000000000000000000000000000000000000000000000000000000008152600401613f4490616b69565b60405180910390fd5b5b50565b600060056000506000866020015161ffff1661ffff16815260200190815260200160002060005060000160009054906101000a900473ffffffffffffffffffffffffffffffffffffffff16905060008260000151613fbd57613fb88261224863ffffffff16565b613fc3565b82602001515b90506000670de0b6b3a7640000600360009054906101000a900467ffffffffffffffff1667ffffffffffffffff1610801561400a5750600161ffff16876020015161ffff16145b8015614022575061402187836123af63ffffffff16565b5b80156140cb57507f000000000000000000000000000000000000000000000000000000000000000073ffffffffffffffffffffffffffffffffffffffff1663bf86d6906040518163ffffffff1660e01b815260040160206040518083038186803b1580156140905760006000fd5b505afa1580156140a5573d600060003e3d6000fd5b505050506040513d601f19601f820116820180604052508101906140c99190615d86565b155b90506141078783856140fc898c60a001516fffffffffffffffffffffffffffffffff16612bb790919063ffffffff16565b614de063ffffffff16565b801561411d5761411c83614fdb63ffffffff16565b5b7f000000000000000000000000000000000000000000000000000000000000000073ffffffffffffffffffffffffffffffffffffffff1663530c1ccb84876040518363ffffffff1660e01b8152600401614178929190616888565b600060405180830381600087803b1580156141935760006000fd5b505af11580156141a8573d600060003e3d6000fd5b50505050801561432857600760005060008473ffffffffffffffffffffffffffffffffffffffff1673ffffffffffffffffffffffffffffffffffffffff16815260200190815260200160002060005060000160089054906101000a900477ffffffffffffffffffffffffffffffffffffffffffffffff1677ffffffffffffffffffffffffffffffffffffffffffffffff167f000000000000000000000000000000000000000000000000000000000000000073ffffffffffffffffffffffffffffffffffffffff1663a135ef17856040518263ffffffff1660e01b815260040161429291906167ba565b60206040518083038186803b1580156142ab5760006000fd5b505afa1580156142c0573d600060003e3d6000fd5b505050506040513d601f19601f820116820180604052508101906142e4919061637b565b10151515614327576040517f08c379a000000000000000000000000000000000000000000000000000000000815260040161431e90616a08565b60405180910390fd5b5b7f000000000000000000000000000000000000000000000000000000000000000073ffffffffffffffffffffffffffffffffffffffff1663816aaa2587896040518363ffffffff1660e01b815260040161438392919061711d565b600060405180830381600087803b15801561439e5760006000fd5b505af11580156143b3573d600060003e3d6000fd5b505050505050505b50505050565b600060006143d361239463ffffffff16565b905060007f000000000000000000000000000000000000000000000000000000000000000073ffffffffffffffffffffffffffffffffffffffff1663585690816040518163ffffffff1660e01b815260040160206040518083038186803b15801561443e5760006000fd5b505afa158015614453573d600060003e3d6000fd5b505050506040513d601f19601f820116820180604052508101906144779190616450565b90508067ffffffffffffffff1660001080156144a657508167ffffffffffffffff168167ffffffffffffffff16105b6144b057816144b2565b805b925050506144bd5650505b90565b600061452a7f00000000000000000000000000000000000000000000000000000000000000007f000000000000000000000000000000000000000000000000000000000000000084614512919061741b565b67ffffffffffffffff166152c890919063ffffffff16565b905080505b919050565b61453c615a60565b6000849150815060008260a001516fffffffffffffffffffffffffffffffff1611156146105761460b6145868360c001518567ffffffffffffffff166152c890919063ffffffff16565b67ffffffffffffffff1661384067ffffffffffffffff166145fc6145bb8660600151896000015161466c90919063ffffffff16565b6145d687604001518a6020015161466c90919063ffffffff16565b8760a001516fffffffffffffffffffffffffffffffff166148079092919063ffffffff16565b6148079092919063ffffffff16565b905080505b8360000151826060019090818152602001505083602001518260400190908181526020015050828260c0019067ffffffffffffffff16908167ffffffffffffffff1681526020015050818191509150614664565b935093915050565b6000818361467a91906174c8565b9050614681565b92915050565b7f000000000000000000000000000000000000000000000000000000000000000073ffffffffffffffffffffffffffffffffffffffff168373ffffffffffffffffffffffffffffffffffffffff16141561476f577f000000000000000000000000000000000000000000000000000000000000000073ffffffffffffffffffffffffffffffffffffffff166349404b7c83836040518363ffffffff1660e01b81526004016147369291906170ee565b600060405180830381600087803b1580156147515760006000fd5b505af1158015614766573d600060003e3d6000fd5b50505050614801565b7f000000000000000000000000000000000000000000000000000000000000000073ffffffffffffffffffffffffffffffffffffffff1663df2ab5bb8484846040518463ffffffff1660e01b81526004016147cc939291906166cc565b600060405180830381600087803b1580156147e75760006000fd5b505af11580156147fc573d600060003e3d6000fd5b505050505b5b505050565b600060006000600019858709858702925082811083820303915050600081141561484a5760008411151561483b5760006000fd5b83820492508292505050614924565b80841115156148595760006000fd5b60008486880990508281118203915080830392506000856001877fffffffffffffffffffffffffffffffffffffffffffffffffffffffffffffffff03011690508050808604955080840493506001818260000304019050808302841793508350600060028760030218905080870260020381029050805080870260020381029050805080870260020381029050805080870260020381029050805080870260020381029050805080870260020381029050805080850295508550508494505050505061492456505050505b9392505050565b600061494961493e6143c163ffffffff16565b6144c063ffffffff16565b9050614950565b90565b600081836149619190617449565b9050614968565b92915050565b6000600560005060008561ffff1661ffff16815260200190815260200160002060005060000160009054906101000a900473ffffffffffffffffffffffffffffffffffffffff16905060007f000000000000000000000000000000000000000000000000000000000000000073ffffffffffffffffffffffffffffffffffffffff16631cef92b1836040518263ffffffff1660e01b8152600401614a1291906167ba565b60406040518083038186803b158015614a2b5760006000fd5b505afa158015614a40573d600060003e3d6000fd5b505050506040513d601f19601f82011682018060405250810190614a649190616224565b90507f000000000000000000000000000000000000000000000000000000000000000073ffffffffffffffffffffffffffffffffffffffff166396122a5c836040518060400160405280614ac58987600001516132ee90919063ffffffff16565b8152602001614ba7614b948967ffffffffffffffff167f000000000000000000000000000000000000000000000000000000000000000073ffffffffffffffffffffffffffffffffffffffff1663a135ef178b6040518263ffffffff1660e01b8152600401614b3491906167ba565b60206040518083038186803b158015614b4d5760006000fd5b505afa158015614b62573d600060003e3d6000fd5b505050506040513d601f19601f82011682018060405250810190614b86919061637b565b61495390919063ffffffff16565b87602001516132ee90919063ffffffff16565b8152602001506040518363ffffffff1660e01b8152600401614bca92919061684e565b600060405180830381600087803b158015614be55760006000fd5b505af1158015614bfa573d600060003e3d6000fd5b5050505050505b505050565b7f000000000000000000000000000000000000000000000000000000000000000073ffffffffffffffffffffffffffffffffffffffff168273ffffffffffffffffffffffffffffffffffffffff16148015614c615750804710155b15614cee577f000000000000000000000000000000000000000000000000000000000000000073ffffffffffffffffffffffffffffffffffffffff1663d0e30db0826040518263ffffffff1660e01b81526004016000604051808303818588803b158015614ccf5760006000fd5b505af1158015614ce4573d600060003e3d6000fd5b5050505050614d01565b614d00823330846152e363ffffffff16565b5b5b5050565b614d158261537363ffffffff16565b614d248161537363ffffffff16565b7f000000000000000000000000000000000000000000000000000000000000000073ffffffffffffffffffffffffffffffffffffffff166312210e8a6040518163ffffffff1660e01b8152600401600060405180830381600087803b158015614d8d5760006000fd5b505af1158015614da2573d600060003e3d6000fd5b505050506000471115614dc057614dbf334761550963ffffffff16565b5b5b5050565b60008183614dd391906173a2565b9050614dda565b92915050565b6000816fffffffffffffffffffffffffffffffff161415614e0057614fd5565b60007f000000000000000000000000000000000000000000000000000000000000000073ffffffffffffffffffffffffffffffffffffffff1663d3419bf36040518163ffffffff1660e01b815260040160206040518083038186803b158015614e695760006000fd5b505afa158015614e7e573d600060003e3d6000fd5b505050506040513d601f19601f82011682018060405250810190614ea29190615e00565b73ffffffffffffffffffffffffffffffffffffffff16631fab230e84868860e0015189610100015187600460009054906101000a900463ffffffff166040518763ffffffff1660e01b8152600401614eff969594939291906167e2565b60206040518083038186803b158015614f185760006000fd5b505afa158015614f2d573d600060003e3d6000fd5b505050506040513d601f19601f82011682018060405250810190614f51919061637b565b9050600360109054906101000a90046fffffffffffffffffffffffffffffffff166fffffffffffffffffffffffffffffffff1681101580614f925750600081145b1515614fd3576040517f08c379a0000000000000000000000000000000000000000000000000000000008152600401614fca90616c26565b60405180910390fd5b505b50505050565b6000614feb612d9a63ffffffff16565b90508067ffffffffffffffff16600760005060008473ffffffffffffffffffffffffffffffffffffffff1673ffffffffffffffffffffffffffffffffffffffff16815260200190815260200160002060005060000160009054906101000a900467ffffffffffffffff1667ffffffffffffffff16101561526e5760405180604001604052808267ffffffffffffffff16815260200161518761517a6150c1600360009054906101000a900467ffffffffffffffff1667ffffffffffffffff16670de0b6b3a764000061466c90919063ffffffff16565b7f000000000000000000000000000000000000000000000000000000000000000073ffffffffffffffffffffffffffffffffffffffff1663a135ef17886040518263ffffffff1660e01b815260040161511a91906167ba565b60206040518083038186803b1580156151335760006000fd5b505afa158015615148573d600060003e3d6000fd5b505050506040513d601f19601f8201168201806040525081019061516c919061637b565b612a4290919063ffffffff16565b615632909063ffffffff16565b77ffffffffffffffffffffffffffffffffffffffffffffffff16815260200150600760005060008473ffffffffffffffffffffffffffffffffffffffff1673ffffffffffffffffffffffffffffffffffffffff16815260200190815260200160002060005060008201518160000160006101000a81548167ffffffffffffffff021916908367ffffffffffffffff16021790555060208201518160000160086101000a81548177ffffffffffffffffffffffffffffffffffffffffffffffff021916908377ffffffffffffffffffffffffffffffffffffffffffffffff1602179055509050505b505b50565b6152c4817f00000000000000000000000000000000000000000000000000000000000000007fffffffffffffffffffffffffffffffffffffffffffffffffffffffffffffffff61569e63ffffffff16565b5b50565b600081836152d691906174e7565b90506152dd565b92915050565b61536c846323b872dd60e01b85858560405160240161530493929190616663565b604051602081830303815290604052907bffffffffffffffffffffffffffffffffffffffffffffffffffffffff19166020820180517bffffffffffffffffffffffffffffffffffffffffffffffffffffffff838183161783525050505061572b63ffffffff16565b5b50505050565b60008173ffffffffffffffffffffffffffffffffffffffff166370a08231306040518263ffffffff1660e01b81526004016153ae91906165fc565b60206040518083038186803b1580156153c75760006000fd5b505afa1580156153dc573d600060003e3d6000fd5b505050506040513d601f19601f82011682018060405250810190615400919061637b565b90506000811115615504577f000000000000000000000000000000000000000000000000000000000000000073ffffffffffffffffffffffffffffffffffffffff168273ffffffffffffffffffffffffffffffffffffffff1614156154f1577f000000000000000000000000000000000000000000000000000000000000000073ffffffffffffffffffffffffffffffffffffffff16632e1a7d4d826040518263ffffffff1660e01b81526004016154b891906170dc565b600060405180830381600087803b1580156154d35760006000fd5b505af11580156154e8573d600060003e3d6000fd5b50505050615503565b6155028233836157f863ffffffff16565b5b5b505b50565b60008273ffffffffffffffffffffffffffffffffffffffff1682600067ffffffffffffffff811115615564577f4e487b7100000000000000000000000000000000000000000000000000000000600052604160045260246000fd5b6040519080825280601f01601f1916602001820160405280156155965781602001600182028036833780820191505090505b506040516155a491906165dd565b60006040518083038185875af1925050503d80600081146155e1576040519150601f19603f3d011682016040523d82523d6000602084013e6155e6565b606091505b5050905080151561562c576040517f08c379a000000000000000000000000000000000000000000000000000000000815260040161562390616a86565b60405180910390fd5b505b5050565b6000780100000000000000000000000000000000000000000000000082101515615691576040517f08c379a000000000000000000000000000000000000000000000000000000000815260040161568890616a47565b60405180910390fd5b819050615699565b919050565b6157258363095ea7b360e01b84846040516024016156bd92919061669d565b604051602081830303815290604052907bffffffffffffffffffffffffffffffffffffffffffffffffffffffff19166020820180517bffffffffffffffffffffffffffffffffffffffffffffffffffffffff838183161783525050505061572b63ffffffff16565b5b505050565b6000615790826040518060400160405280602081526020017f5361666545524332303a206c6f772d6c6576656c2063616c6c206661696c65648152602001508573ffffffffffffffffffffffffffffffffffffffff166158859092919063ffffffff16565b90506000815111156157f257808060200190518101906157b09190615d86565b15156157f1576040517f08c379a00000000000000000000000000000000000000000000000000000000081526004016157e890616e1e565b60405180910390fd5b5b505b5050565b61587f8363a9059cbb60e01b848460405160240161581792919061669d565b604051602081830303815290604052907bffffffffffffffffffffffffffffffffffffffffffffffffffffffff19166020820180517bffffffffffffffffffffffffffffffffffffffffffffffffffffffff838183161783525050505061572b63ffffffff16565b5b505050565b606061589a84846000856158a863ffffffff16565b90506158a1565b9392505050565b60608247101515156158ef576040517f08c379a00000000000000000000000000000000000000000000000000000000081526004016158e690616b04565b60405180910390fd5b6158fe856159d463ffffffff16565b151561593f576040517f08c379a000000000000000000000000000000000000000000000000000000000815260040161593690616ddf565b60405180910390fd5b600060008673ffffffffffffffffffffffffffffffffffffffff16858760405161596991906165dd565b60006040518083038185875af1925050503d80600081146159a6576040519150601f19603f3d011682016040523d82523d6000602084013e6159ab565b606091505b50915091506159c18282866159ee63ffffffff16565b925050506159cc5650505b949350505050565b60006000823b9050600081119150506159e956505b919050565b60608315615a0257829050615a5956615a58565b600083511115615a1a5782518084602001fd50615a57565b816040517f08c379a0000000000000000000000000000000000000000000000000000000008152600401615a4e9190616936565b60405180910390fd5b5b5b9392505050565b604051806101800160405280600073ffffffffffffffffffffffffffffffffffffffff168152602001600061ffff16815260200160008152602001600081526020016000815260200160006fffffffffffffffffffffffffffffffff168152602001600067ffffffffffffffff168152602001600060020b8152602001600060020b8152602001600063ffffffff168152602001600073ffffffffffffffffffffffffffffffffffffffff168152602001600067ffffffffffffffff1681526020015090565b6040518060a001604052806000815260200160006fffffffffffffffffffffffffffffffff1681526020016000815260200160008152602001600081526020015090565b6040518060400160405280600073ffffffffffffffffffffffffffffffffffffffff168152602001600067ffffffffffffffff1681526020015090565b6040518060400160405280600015158152602001600060020b81526020015090566176df565b600081359050615bdc81617616565b5b919050565b600081519050615bf181617616565b5b919050565b6000600083601f8401121515615c0b578182fd5b8235905067ffffffffffffffff811115615c23578182fd5b6020830191508360208260051b8501011115615c3f5760006000fd5b5b9250929050565b600081359050615c568161763f565b5b919050565b600081519050615c6b8161763f565b5b919050565b600081519050615c8081617655565b5b919050565b600081519050615c958161767a565b5b919050565b600081359050615caa81617691565b5b919050565b600081519050615cbf81617691565b5b919050565b600081359050615cd4816176a9565b5b919050565b600081519050615ce9816176a9565b5b919050565b600081519050615cfe816176c2565b5b919050565b600060208284031215615d15578081fd5b8151615d2081617616565b809150505b92915050565b60006000600060408486031215615d40578182fd5b833567ffffffffffffffff811115615d56578283fd5b615d6286828701615bf7565b915080945050809250506020840135615d7a816176a9565b809150505b9250925092565b600060208284031215615d97578081fd5b815180151581141515615da8578182fd5b809150505b92915050565b600060208284031215615dc4578081fd5b81357fffffffff00000000000000000000000000000000000000000000000000000000811681141515615df5578182fd5b809150505b92915050565b600060208284031215615e11578081fd5b8151615e1c81617616565b809150505b92915050565b600060208284031215615e38578081fd5b8135615e4381617616565b809150505b92915050565b60006000600060408486031215615e63578081fd5b8335615e6e81617616565b80935050602084013567ffffffffffffffff811115615e8b578182fd5b615e9786828701615bf7565b915080935050809150505b9250925092565b6000600060408385031215615ebc578182fd5b8235615ec781617616565b809250506020830135615ed981617616565b809150505b9250929050565b6000600060408385031215615ef8578182fd5b8235615f0381617616565b809250506020830135615f15816176c2565b809150505b9250929050565b600060208284031215615f32578081fd5b8151615f3d8161763f565b809150505b92915050565b6000600082840360c0811215615f5c578283fd5b60a0811215615f69578283fd5b5082915060a0830135615f7b816176a9565b809150505b9250929050565b600060a08284031215615f98578081fd5b60405160a0810181811067ffffffffffffffff82111715615fe0577f4e487b710000000000000000000000000000000000000000000000000000000083526041600452602483fd5b8060405250823581526020830135615ff781617655565b80602083015250604083013560408201526060830135606082015260808301356080820152809150505b92915050565b6000600082840360e081121561603b578283fd5b60c0811215616048578283fd5b5082915060c083013561605a816176a9565b809150505b9250929050565b6000600082840361018081121561607b578283fd5b6101608082121561608a578384fd5b6160926172f2565b915061609d85615bcd565b82526160ab60208601615bcd565b60208301526160bc60408601615c9b565b60408301526160cd60608601615c47565b60608301526160de60808601615c47565b608083015260a085013560a083015260c085013560c083015260e085013560e083015261010080860135818401525061012061611b818701615bcd565b818401525061014080860135818401525081935061613a818601615cc5565b925050505b9250929050565b60006101808284031215616158578081fd5b61616061734a565b61616983615be2565b815261617760208401615c86565b60208201526040830151604082015260608301516060820152608083015160808201526161a660a08401615c71565b60a08201526161b760c08401615cef565b60c08201526161c860e08401615c5c565b60e08201526101006161db818501615c5c565b81830152506101206161ee818501615cda565b8183015250610140616201818501615be2565b8183015250610160616214818501615cef565b8183015250809150505b92915050565b600060408284031215616235578081fd5b6040516040810181811067ffffffffffffffff8211171561627d577f4e487b710000000000000000000000000000000000000000000000000000000083526041600452602483fd5b80604052508251815260208301516020820152809150505b92915050565b6000602082840312156162ac578081fd5b81356162b781617655565b809150505b92915050565b600060006000606084860312156162d7578081fd5b83516162e281617655565b8093505060208401519150604084015190505b9250925092565b60006020828403121561630d578081fd5b81356163188161767a565b809150505b92915050565b6000600060408385031215616336578182fd5b82356163418161767a565b809250506020830135616353816176c2565b809150505b9250929050565b600060208284031215616370578081fd5b813590505b92915050565b60006020828403121561638c578081fd5b815190505b92915050565b6000600060006000608085870312156163ae578182fd5b8451935060208501516163c081617655565b8093505060408501519150606085015190505b92959194509250565b60006000604083850312156163ef578182fd5b82519150602083015190505b9250929050565b600060208284031215616413578081fd5b813561641e816176a9565b809150505b92915050565b60006020828403121561643a578081fd5b8135616445816176c2565b809150505b92915050565b600060208284031215616461578081fd5b815161646c816176c2565b809150505b92915050565b6000600060006000600060006000600060006000600060006101808d8f03121561649f57898afd5b8c516bffffffffffffffffffffffff8116811415156164bc578a8bfd5b809c50506164cc60208e01615be2565b9a506164da60408e01615be2565b99506164e860608e01615be2565b98506164f660808e01615cb0565b975061650460a08e01615c5c565b965061651260c08e01615c5c565b955061652060e08e01615c71565b94506101008d015193506101208d0151925061653f6101408e01615c71565b915061654e6101608e01615c71565b90505b9295989b509295989b509295989b565b73ffffffffffffffffffffffffffffffffffffffff8116825250505b565b8060020b825250505b565b6fffffffffffffffffffffffffffffffff8116825250505b565b61ffff8116825250505b565b62ffffff8116825250505b565b63ffffffff8116825250505b565b67ffffffffffffffff8116825250505b565b600082516165ef818460208701617519565b8083019150505b92915050565b600060208201905073ffffffffffffffffffffffffffffffffffffffff831682525b92915050565b600060608201905073ffffffffffffffffffffffffffffffffffffffff808616835280851660208401525062ffffff831660408301525b949350505050565b600060608201905073ffffffffffffffffffffffffffffffffffffffff80861683528085166020840152508260408301525b949350505050565b600060408201905073ffffffffffffffffffffffffffffffffffffffff841682528260208301525b9392505050565b600060608201905073ffffffffffffffffffffffffffffffffffffffff80861683528460208401528084166040840152505b949350505050565b600060208201905082151582525b92915050565b600060208201905073ffffffffffffffffffffffffffffffffffffffff831682525b92915050565b600060208201905073ffffffffffffffffffffffffffffffffffffffff831682525b92915050565b600060208201905073ffffffffffffffffffffffffffffffffffffffff831682525b92915050565b600060208201905073ffffffffffffffffffffffffffffffffffffffff831682525b92915050565b600060208201905073ffffffffffffffffffffffffffffffffffffffff831682525b92915050565b600060c08201905073ffffffffffffffffffffffffffffffffffffffff881682528660020b60208301528560020b60408301528460020b60608301526fffffffffffffffffffffffffffffffff8416608083015263ffffffff831660a08301525b979650505050505050565b600060608201905073ffffffffffffffffffffffffffffffffffffffff8416825282516020830152602083015160408301525b9392505050565b600060408201905073ffffffffffffffffffffffffffffffffffffffff841682526fffffffffffffffffffffffffffffffff831660208301525b9392505050565b600060408201905073ffffffffffffffffffffffffffffffffffffffff8416825263ffffffff831660208301525b9392505050565b60006060820190508460020b82528360020b60208301526fffffffffffffffffffffffffffffffff831660408301525b949350505050565b6020815260008251806020840152616955816040850160208701617519565b60407fffffffffffffffffffffffffffffffffffffffffffffffffffffffffffffffe0601f8301168401019150505b92915050565b60208152601160208201527f50726f746f636f6c2073687574646f776e000000000000000000000000000000604082015260006060820190505b919050565b60208152601660208201527f4c6971756964697479206e6f7420696e2072616e676500000000000000000000604082015260006060820190505b919050565b60208152601c60208201527f4d617820706572696f6420776974686472617720657863656564656400000000604082015260006060820190505b919050565b60208152601260208201527f6d6f7265207468616e2031393220626974730000000000000000000000000000604082015260006060820190505b919050565b60208152600360208201527f5354450000000000000000000000000000000000000000000000000000000000604082015260006060820190505b919050565b60208152601260208201527f416c726561647920726567697374657265640000000000000000000000000000604082015260006060820190505b919050565b60208152602660208201527f416464726573733a20696e73756666696369656e742062616c616e636520666f60408201527f722063616c6c0000000000000000000000000000000000000000000000000000606082015260006080820190505b919050565b60208152600e60208201527f4e6f7420417574686f72697a6564000000000000000000000000000000000000604082015260006060820190505b919050565b60208152600d60208201527f4c50205265656e7472616e637900000000000000000000000000000000000000604082015260006060820190505b919050565b60208152601460208201527f496e63656e7469766520746f74616c2069732030000000000000000000000000604082015260006060820190505b919050565b60208152601260208201527f506f736974696f6e20746f6f20736d616c6c0000000000000000000000000000604082015260006060820190505b919050565b60208152600b60208201527f506f6f6c20657869737473000000000000000000000000000000000000000000604082015260006060820190505b919050565b60208152601260208201527f6d6f7265207468616e2031323820626974730000000000000000000000000000604082015260006060820190505b919050565b60208152600e60208201527f496e76616c696420706f6f6c4944000000000000000000000000000000000000604082015260006060820190505b919050565b60208152601360208201527f436f6e74726163742069732073746f7070656400000000000000000000000000604082015260006060820190505b919050565b60208152601260208201527f4e6f20666c617368206c69717569646974790000000000000000000000000000604082015260006060820190505b919050565b60208152600760208201527f496e76616c696400000000000000000000000000000000000000000000000000604082015260006060820190505b919050565b60208152601d60208201527f416464726573733a2063616c6c20746f206e6f6e2d636f6e7472616374000000604082015260006060820190505b919050565b60208152602a60208201527f5361666545524332303a204552433230206f7065726174696f6e20646964206e60408201527f6f74207375636365656400000000000000000000000000000000000000000000606082015260006080820190505b919050565b60208152601160208201527f6d6f7265207468616e2036342062697473000000000000000000000000000000604082015260006060820190505b919050565b60006080820190508251825273ffffffffffffffffffffffffffffffffffffffff602084015116602083015260408301516fffffffffffffffffffffffffffffffff808216604085015280606086015116606085015250505b92915050565b600060a082019050825182526fffffffffffffffffffffffffffffffff60208401511660208301526040830151604083015260608301516060830152608083015160808301525b92915050565b600060c082019050823582526020830135602083015260408301356040830152606083013560608301526080830135608083015260a083013560a08301525b92915050565b600061016082019050616fc7828451616561565b6020830151616fd96020840182616561565b506040830151616fec60408401826165b0565b506060830151616fff606084018261657f565b506080830151617012608084018261657f565b5060a083015160a083015260c083015160c083015260e083015160e08301526101008084015181840152506101208084015161705082850182616561565b50506101408084015181840152505b92915050565b600060408201905073ffffffffffffffffffffffffffffffffffffffff835116825267ffffffffffffffff60208401511660208301525b92915050565b60006020820190506fffffffffffffffffffffffffffffffff831682525b92915050565b600060208201905061ffff831682525b92915050565b60006020820190508282525b92915050565b600060408201905083825273ffffffffffffffffffffffffffffffffffffffff831660208301525b9392505050565b60006101a082019050838252617137602083018451616561565b602083015161714960408401826165a4565b506040830151606083015260608301516080830152608083015160a083015260a083015161717a60c084018261658a565b5060c083015161718d60e08401826165cb565b5060e08301516101006171a28185018361657f565b808501519150506101206171b88185018361657f565b808501519150506101406171ce818501836165bd565b808501519150506101606171e481850183616561565b808501519150506171f96101808401826165cb565b505b9392505050565b60006040820190508382526fffffffffffffffffffffffffffffffff831660208301525b9392505050565b60006040820190508382528260208301525b9392505050565b600060408201905083825267ffffffffffffffff831660208301525b9392505050565b600060208201905063ffffffff831682525b92915050565b600060208201905063ffffffff831682525b92915050565b600060208201905067ffffffffffffffff831682525b92915050565b600060408201905067ffffffffffffffff8416825277ffffffffffffffffffffffffffffffffffffffffffffffff831660208301525b9392505050565b60006040519050610160810181811067ffffffffffffffff82111715617341577f4e487b7100000000000000000000000000000000000000000000000000000000600052604160045260246000fd5b80604052505b90565b60006040519050610180810181811067ffffffffffffffff82111715617399577f4e487b7100000000000000000000000000000000000000000000000000000000600052604160045260246000fd5b80604052505b90565b60006fffffffffffffffffffffffffffffffff8083168185168083038211156173ce576173cd6175b4565b5b80820193505050505b92915050565b600082198211156173f1576173f06175b4565b5b82820190505b92915050565b600082151561740f5761740e6175e5565b5b82820490505b92915050565b600067ffffffffffffffff808416801515617439576174386175e5565b5b8082851604925050505b92915050565b6000817fffffffffffffffffffffffffffffffffffffffffffffffffffffffffffffffff0483118215151615617482576174816175b4565b5b82820290505b92915050565b60006fffffffffffffffffffffffffffffffff8083168185169150818110156174ba576174b96175b4565b5b818103925050505b92915050565b6000828210156174db576174da6175b4565b5b82820390505b92915050565b600067ffffffffffffffff80831681851691508181101561750b5761750a6175b4565b5b818103925050505b92915050565b60005b838110156175385780820151818401525b60208101905061751c565b83811115617547576000848401525b505050505b565b600061ffff80831681811415617567576175666175b4565b5b60018101925050505b919050565b60007fffffffffffffffffffffffffffffffffffffffffffffffffffffffffffffffff8214156175a8576175a76175b4565b5b6001820190505b919050565b7f4e487b7100000000000000000000000000000000000000000000000000000000600052601160045260246000fd5b565b7f4e487b7100000000000000000000000000000000000000000000000000000000600052601260045260246000fd5b565b73ffffffffffffffffffffffffffffffffffffffff81168114151561763b5760006000fd5b505b565b8060020b811415156176515760006000fd5b505b565b6fffffffffffffffffffffffffffffffff8116811415156176765760006000fd5b505b565b61ffff81168114151561768d5760006000fd5b505b565b62ffffff8116811415156176a55760006000fd5b505b565b63ffffffff8116811415156176be5760006000fd5b505b565b67ffffffffffffffff8116811415156176db5760006000fd5b505b565bfea2646970667358221220b9bbd785630da260e46e920e68ed9dc2ff39df98b8a6bd583093e7e3a695427c64736f6c63430008040033",
  "linkReferences": {},
  "deployedLinkReferences": {}
}