{
  "_format": "hh-sol-artifact-1",
  "contractName": "Rewards",
  "sourceName": "contracts/core/logic/Rewards.sol",
  "abi": [
    {
      "inputs": [
        {
          "components": [
            {
              "internalType": "contract IGovernor",
              "name": "Governor",
              "type": "address"
            },
            {
              "internalType": "contract IProtocolLock",
              "name": "ProtocolLock",
              "type": "address"
            },
            {
              "internalType": "contract IAccounting",
              "name": "Accounting",
              "type": "address"
            },
            {
              "internalType": "address",
              "name": "Weth",
              "type": "address"
            },
            {
              "internalType": "contract INonfungiblePositionManager",
              "name": "NftPositionManager",
              "type": "address"
            },
            {
              "internalType": "contract IUniswapV3Factory",
              "name": "UniswapV3Factory",
              "type": "address"
            }
          ],
          "internalType": "struct IRewards.ConstructorParams",
          "name": "params",
          "type": "tuple"
        }
      ],
      "stateMutability": "nonpayable",
      "type": "constructor"
    },
    {
      "anonymous": false,
      "inputs": [
        {
          "indexed": false,
          "internalType": "uint64",
          "name": "penalty",
          "type": "uint64"
        }
      ],
      "name": "LiquidationPenaltyUpdated",
      "type": "event"
    },
    {
      "anonymous": false,
      "inputs": [
        {
          "indexed": true,
          "internalType": "address",
          "name": "owner",
          "type": "address"
        },
        {
          "indexed": true,
          "internalType": "uint16",
          "name": "poolID",
          "type": "uint16"
        },
        {
          "indexed": true,
          "internalType": "uint256",
          "name": "nftID",
          "type": "uint256"
        },
        {
          "indexed": false,
          "internalType": "int24",
          "name": "tickLower",
          "type": "int24"
        },
        {
          "indexed": false,
          "internalType": "int24",
          "name": "tickUpper",
          "type": "int24"
        },
        {
          "indexed": false,
          "internalType": "uint128",
          "name": "liquidity",
          "type": "uint128"
        }
      ],
      "name": "LiquidityPositionCreated",
      "type": "event"
    },
    {
      "anonymous": false,
      "inputs": [
        {
          "indexed": true,
          "internalType": "uint256",
          "name": "nftID",
          "type": "uint256"
        },
        {
          "indexed": false,
          "internalType": "uint256",
          "name": "amount0",
          "type": "uint256"
        },
        {
          "indexed": false,
          "internalType": "uint256",
          "name": "amount1",
          "type": "uint256"
        }
      ],
      "name": "LiquidityPositionDecreased",
      "type": "event"
    },
    {
      "anonymous": false,
      "inputs": [
        {
          "indexed": true,
          "internalType": "uint256",
          "name": "nftID",
          "type": "uint256"
        },
        {
          "indexed": false,
          "internalType": "uint128",
          "name": "liquidity",
          "type": "uint128"
        }
      ],
      "name": "LiquidityPositionIncreased",
      "type": "event"
    },
    {
      "anonymous": false,
      "inputs": [
        {
          "indexed": true,
          "internalType": "uint256",
          "name": "nftID",
          "type": "uint256"
        },
        {
          "indexed": true,
          "internalType": "address",
          "name": "liquidator",
          "type": "address"
        }
      ],
      "name": "LiquidityPositionLiquidated",
      "type": "event"
    },
    {
      "anonymous": false,
      "inputs": [
        {
          "indexed": true,
          "internalType": "uint256",
          "name": "nftID",
          "type": "uint256"
        },
        {
          "indexed": false,
          "internalType": "uint256",
          "name": "amount0",
          "type": "uint256"
        },
        {
          "indexed": false,
          "internalType": "uint256",
          "name": "amount1",
          "type": "uint256"
        }
      ],
      "name": "LiquidityPositionRemoved",
      "type": "event"
    },
    {
      "anonymous": false,
      "inputs": [
        {
          "indexed": false,
          "internalType": "uint64",
          "name": "decreasePortion",
          "type": "uint64"
        }
      ],
      "name": "MaxCollateralLiquidityDecreasePerPeriodUpdated",
      "type": "event"
    },
    {
      "anonymous": false,
      "inputs": [
        {
          "indexed": false,
          "internalType": "uint128",
          "name": "min",
          "type": "uint128"
        }
      ],
      "name": "MinHueCountPerPositionUpdated",
      "type": "event"
    },
    {
      "anonymous": false,
      "inputs": [
        {
          "indexed": true,
          "internalType": "address",
          "name": "pool",
          "type": "address"
        },
        {
          "indexed": true,
          "internalType": "uint16",
          "name": "poolID",
          "type": "uint16"
        },
        {
          "indexed": false,
          "internalType": "uint64",
          "name": "rewardsPortion",
          "type": "uint64"
        }
      ],
      "name": "PoolAdded",
      "type": "event"
    },
    {
      "anonymous": false,
      "inputs": [
        {
          "indexed": true,
          "internalType": "uint16",
          "name": "poolID",
          "type": "uint16"
        },
        {
          "indexed": false,
          "internalType": "uint64",
          "name": "incentive",
          "type": "uint64"
        }
      ],
      "name": "PoolIncentiveUpdated",
      "type": "event"
    },
    {
      "anonymous": false,
      "inputs": [
        {
          "indexed": false,
          "internalType": "uint256",
          "name": "count",
          "type": "uint256"
        },
        {
          "indexed": false,
          "internalType": "uint64",
          "name": "periods",
          "type": "uint64"
        }
      ],
      "name": "RewardsAccrued",
      "type": "event"
    },
    {
      "anonymous": false,
      "inputs": [
        {
          "indexed": true,
          "internalType": "address",
          "name": "caller",
          "type": "address"
        },
        {
          "indexed": true,
          "internalType": "uint256",
          "name": "nftTokenID",
          "type": "uint256"
        },
        {
          "indexed": false,
          "internalType": "uint256",
          "name": "amount0",
          "type": "uint256"
        },
        {
          "indexed": false,
          "internalType": "uint256",
          "name": "amount1",
          "type": "uint256"
        }
      ],
      "name": "RewardsClaimed",
      "type": "event"
    },
    {
      "anonymous": false,
      "inputs": [
        {
          "indexed": true,
          "internalType": "address",
          "name": "account",
          "type": "address"
        },
        {
          "indexed": true,
          "internalType": "bool",
          "name": "isKickback",
          "type": "bool"
        },
        {
          "indexed": false,
          "internalType": "uint256",
          "name": "tcpRewards",
          "type": "uint256"
        }
      ],
      "name": "RewardsDistributed",
      "type": "event"
    },
    {
      "anonymous": false,
      "inputs": [],
      "name": "Stopped",
      "type": "event"
    },
    {
      "anonymous": false,
      "inputs": [
        {
          "indexed": false,
          "internalType": "uint64",
          "name": "duration",
          "type": "uint64"
        }
      ],
      "name": "TwapDurationUpdated",
      "type": "event"
    },
    {
      "inputs": [],
      "name": "accounting",
      "outputs": [
        {
          "internalType": "contract IAccounting",
          "name": "",
          "type": "address"
        }
      ],
      "stateMutability": "view",
      "type": "function"
    },
    {
      "inputs": [],
      "name": "accrueRewards",
      "outputs": [],
      "stateMutability": "nonpayable",
      "type": "function"
    },
    {
      "inputs": [
        {
          "internalType": "contract IUniswapV3Pool",
          "name": "pool",
          "type": "address"
        },
        {
          "internalType": "uint64",
          "name": "rewardsPortion",
          "type": "uint64"
        }
      ],
      "name": "addIncentivePool",
      "outputs": [],
      "stateMutability": "nonpayable",
      "type": "function"
    },
    {
      "inputs": [
        {
          "internalType": "uint256[]",
          "name": "nftTokenIDs",
          "type": "uint256[]"
        },
        {
          "internalType": "uint32",
          "name": "ui",
          "type": "uint32"
        }
      ],
      "name": "claimAllRewards",
      "outputs": [
        {
          "internalType": "uint256",
          "name": "totalAmount0",
          "type": "uint256"
        },
        {
          "internalType": "uint256",
          "name": "totalAmount1",
          "type": "uint256"
        }
      ],
      "stateMutability": "nonpayable",
      "type": "function"
    },
    {
      "inputs": [],
      "name": "countPools",
      "outputs": [
        {
          "internalType": "uint16",
          "name": "",
          "type": "uint16"
        }
      ],
      "stateMutability": "view",
      "type": "function"
    },
    {
      "inputs": [
        {
          "components": [
            {
              "internalType": "address",
              "name": "token0",
              "type": "address"
            },
            {
              "internalType": "address",
              "name": "token1",
              "type": "address"
            },
            {
              "internalType": "uint24",
              "name": "fee",
              "type": "uint24"
            },
            {
              "internalType": "int24",
              "name": "tickLower",
              "type": "int24"
            },
            {
              "internalType": "int24",
              "name": "tickUpper",
              "type": "int24"
            },
            {
              "internalType": "uint256",
              "name": "amount0Desired",
              "type": "uint256"
            },
            {
              "internalType": "uint256",
              "name": "amount1Desired",
              "type": "uint256"
            },
            {
              "internalType": "uint256",
              "name": "amount0Min",
              "type": "uint256"
            },
            {
              "internalType": "uint256",
              "name": "amount1Min",
              "type": "uint256"
            },
            {
              "internalType": "address",
              "name": "recipient",
              "type": "address"
            },
            {
              "internalType": "uint256",
              "name": "deadline",
              "type": "uint256"
            }
          ],
          "internalType": "struct INonfungiblePositionManager.MintParams",
          "name": "params",
          "type": "tuple"
        },
        {
          "internalType": "uint32",
          "name": "ui",
          "type": "uint32"
        }
      ],
      "name": "createLiquidityPosition",
      "outputs": [
        {
          "internalType": "uint256",
          "name": "nftTokenID",
          "type": "uint256"
        },
        {
          "internalType": "uint128",
          "name": "liquidity",
          "type": "uint128"
        }
      ],
      "stateMutability": "payable",
      "type": "function"
    },
    {
      "inputs": [],
      "name": "currentPeriod",
      "outputs": [
        {
          "internalType": "uint64",
          "name": "period",
          "type": "uint64"
        }
      ],
      "stateMutability": "view",
      "type": "function"
    },
    {
      "inputs": [
        {
          "components": [
            {
              "internalType": "uint256",
              "name": "tokenId",
              "type": "uint256"
            },
            {
              "internalType": "uint128",
              "name": "liquidity",
              "type": "uint128"
            },
            {
              "internalType": "uint256",
              "name": "amount0Min",
              "type": "uint256"
            },
            {
              "internalType": "uint256",
              "name": "amount1Min",
              "type": "uint256"
            },
            {
              "internalType": "uint256",
              "name": "deadline",
              "type": "uint256"
            }
          ],
          "internalType": "struct INonfungiblePositionManager.DecreaseLiquidityParams",
          "name": "params",
          "type": "tuple"
        },
        {
          "internalType": "uint32",
          "name": "ui",
          "type": "uint32"
        }
      ],
      "name": "decreaseLiquidityPosition",
      "outputs": [
        {
          "internalType": "uint256",
          "name": "amount0",
          "type": "uint256"
        },
        {
          "internalType": "uint256",
          "name": "amount1",
          "type": "uint256"
        }
      ],
      "stateMutability": "nonpayable",
      "type": "function"
    },
    {
      "inputs": [],
      "name": "deployer",
      "outputs": [
        {
          "internalType": "address",
          "name": "",
          "type": "address"
        }
      ],
      "stateMutability": "view",
      "type": "function"
    },
    {
      "inputs": [],
      "name": "firstPeriod",
      "outputs": [
        {
          "internalType": "uint64",
          "name": "",
          "type": "uint64"
        }
      ],
      "stateMutability": "view",
      "type": "function"
    },
    {
      "inputs": [],
      "name": "governor",
      "outputs": [
        {
          "internalType": "contract IGovernor",
          "name": "",
          "type": "address"
        }
      ],
      "stateMutability": "view",
      "type": "function"
    },
    {
      "inputs": [
        {
          "components": [
            {
              "internalType": "uint256",
              "name": "tokenId",
              "type": "uint256"
            },
            {
              "internalType": "uint256",
              "name": "amount0Desired",
              "type": "uint256"
            },
            {
              "internalType": "uint256",
              "name": "amount1Desired",
              "type": "uint256"
            },
            {
              "internalType": "uint256",
              "name": "amount0Min",
              "type": "uint256"
            },
            {
              "internalType": "uint256",
              "name": "amount1Min",
              "type": "uint256"
            },
            {
              "internalType": "uint256",
              "name": "deadline",
              "type": "uint256"
            }
          ],
          "internalType": "struct INonfungiblePositionManager.IncreaseLiquidityParams",
          "name": "params",
          "type": "tuple"
        },
        {
          "internalType": "uint32",
          "name": "ui",
          "type": "uint32"
        }
      ],
      "name": "increaseLiquidityPosition",
      "outputs": [
        {
          "internalType": "uint128",
          "name": "liquidity",
          "type": "uint128"
        }
      ],
      "stateMutability": "payable",
      "type": "function"
    },
    {
      "inputs": [
        {
          "internalType": "contract IUniswapV3Pool",
          "name": "_collateralPool",
          "type": "address"
        },
        {
          "internalType": "contract IUniswapV3Pool",
          "name": "_protocolPool",
          "type": "address"
        }
      ],
      "name": "init",
      "outputs": [],
      "stateMutability": "nonpayable",
      "type": "function"
    },
    {
      "inputs": [],
      "name": "lastPeriodGlobalRewardsAccrued",
      "outputs": [
        {
          "internalType": "uint64",
          "name": "",
          "type": "uint64"
        }
      ],
      "stateMutability": "view",
      "type": "function"
    },
    {
      "inputs": [
        {
          "internalType": "contract IUniswapV3Pool",
          "name": "pool",
          "type": "address"
        },
        {
          "internalType": "uint256[]",
          "name": "nftTokenIDs",
          "type": "uint256[]"
        }
      ],
      "name": "liquidateOutofRangePositions",
      "outputs": [],
      "stateMutability": "nonpayable",
      "type": "function"
    },
    {
      "inputs": [],
      "name": "liquidationPenalty",
      "outputs": [
        {
          "internalType": "uint64",
          "name": "",
          "type": "uint64"
        }
      ],
      "stateMutability": "view",
      "type": "function"
    },
    {
      "inputs": [],
      "name": "maxCollateralLiquidityDecreasePerPeriod",
      "outputs": [
        {
          "internalType": "uint64",
          "name": "",
          "type": "uint64"
        }
      ],
      "stateMutability": "view",
      "type": "function"
    },
    {
      "inputs": [
        {
          "internalType": "contract IUniswapV3Pool",
          "name": "",
          "type": "address"
        }
      ],
      "name": "minCollateralLiquidityByPeriod",
      "outputs": [
        {
          "internalType": "uint64",
          "name": "period",
          "type": "uint64"
        },
        {
          "internalType": "uint192",
          "name": "minLiquidity",
          "type": "uint192"
        }
      ],
      "stateMutability": "view",
      "type": "function"
    },
    {
      "inputs": [],
      "name": "minHueCountPerPosition",
      "outputs": [
        {
          "internalType": "uint128",
          "name": "",
          "type": "uint128"
        }
      ],
      "stateMutability": "view",
      "type": "function"
    },
    {
      "inputs": [],
      "name": "nftPositionManager",
      "outputs": [
        {
          "internalType": "contract INonfungiblePositionManager",
          "name": "",
          "type": "address"
        }
      ],
      "stateMutability": "view",
      "type": "function"
    },
    {
      "inputs": [],
      "name": "periodLength",
      "outputs": [
        {
          "internalType": "uint64",
          "name": "",
          "type": "uint64"
        }
      ],
      "stateMutability": "view",
      "type": "function"
    },
    {
      "inputs": [
        {
          "internalType": "uint16",
          "name": "",
          "type": "uint16"
        }
      ],
      "name": "poolConfigForPoolID",
      "outputs": [
        {
          "internalType": "contract IUniswapV3Pool",
          "name": "pool",
          "type": "address"
        },
        {
          "internalType": "uint64",
          "name": "rewardsPortion",
          "type": "uint64"
        }
      ],
      "stateMutability": "view",
      "type": "function"
    },
    {
      "inputs": [
        {
          "internalType": "contract IUniswapV3Pool",
          "name": "",
          "type": "address"
        }
      ],
      "name": "poolIDForPool",
      "outputs": [
        {
          "internalType": "uint16",
          "name": "",
          "type": "uint16"
        }
      ],
      "stateMutability": "view",
      "type": "function"
    },
    {
      "inputs": [
        {
          "internalType": "uint256",
          "name": "nftTokenID",
          "type": "uint256"
        }
      ],
      "name": "removeKickback",
      "outputs": [],
      "stateMutability": "nonpayable",
      "type": "function"
    },
    {
      "inputs": [
        {
          "components": [
            {
              "internalType": "uint256",
              "name": "tokenId",
              "type": "uint256"
            },
            {
              "internalType": "uint128",
              "name": "liquidity",
              "type": "uint128"
            },
            {
              "internalType": "uint256",
              "name": "amount0Min",
              "type": "uint256"
            },
            {
              "internalType": "uint256",
              "name": "amount1Min",
              "type": "uint256"
            },
            {
              "internalType": "uint256",
              "name": "deadline",
              "type": "uint256"
            }
          ],
          "internalType": "struct INonfungiblePositionManager.DecreaseLiquidityParams",
          "name": "params",
          "type": "tuple"
        }
      ],
      "name": "removeLiquidityPosition",
      "outputs": [
        {
          "internalType": "uint256",
          "name": "amount0",
          "type": "uint256"
        },
        {
          "internalType": "uint256",
          "name": "amount1",
          "type": "uint256"
        }
      ],
      "stateMutability": "nonpayable",
      "type": "function"
    },
    {
      "inputs": [
        {
          "internalType": "uint64",
          "name": "penalty",
          "type": "uint64"
        }
      ],
      "name": "setLiquidationPenalty",
      "outputs": [],
      "stateMutability": "nonpayable",
      "type": "function"
    },
    {
      "inputs": [
        {
          "internalType": "uint64",
          "name": "decreasePortion",
          "type": "uint64"
        }
      ],
      "name": "setMaxCollateralLiquidityDecreasePerPeriod",
      "outputs": [],
      "stateMutability": "nonpayable",
      "type": "function"
    },
    {
      "inputs": [
        {
          "internalType": "uint128",
          "name": "min",
          "type": "uint128"
        }
      ],
      "name": "setMinHueCountPerPosition",
      "outputs": [],
      "stateMutability": "nonpayable",
      "type": "function"
    },
    {
      "inputs": [
        {
          "internalType": "uint32",
          "name": "duration",
          "type": "uint32"
        }
      ],
      "name": "setTwapDuration",
      "outputs": [],
      "stateMutability": "nonpayable",
      "type": "function"
    },
    {
      "inputs": [],
      "name": "stop",
      "outputs": [],
      "stateMutability": "nonpayable",
      "type": "function"
    },
    {
      "inputs": [],
      "name": "stopped",
      "outputs": [
        {
          "internalType": "bool",
          "name": "",
          "type": "bool"
        }
      ],
      "stateMutability": "view",
      "type": "function"
    },
    {
      "inputs": [],
      "name": "twapDuration",
      "outputs": [
        {
          "internalType": "uint32",
          "name": "",
          "type": "uint32"
        }
      ],
      "stateMutability": "view",
      "type": "function"
    },
    {
      "inputs": [],
      "name": "uniswapV3Factory",
      "outputs": [
        {
          "internalType": "contract IUniswapV3Factory",
          "name": "",
          "type": "address"
        }
      ],
      "stateMutability": "view",
      "type": "function"
    },
    {
      "inputs": [
        {
          "internalType": "uint16",
          "name": "poolID",
          "type": "uint16"
        },
        {
          "internalType": "uint64",
          "name": "incentive",
          "type": "uint64"
        }
      ],
      "name": "updatePoolIncentive",
      "outputs": [],
      "stateMutability": "nonpayable",
      "type": "function"
    },
    {
      "inputs": [
        {
          "internalType": "bytes4",
          "name": "",
          "type": "bytes4"
        }
      ],
      "name": "validUpdate",
      "outputs": [
        {
          "internalType": "bool",
          "name": "",
          "type": "bool"
        }
      ],
      "stateMutability": "view",
      "type": "function"
    },
    {
      "inputs": [],
      "name": "weth",
      "outputs": [
        {
          "internalType": "address",
          "name": "",
          "type": "address"
        }
      ],
      "stateMutability": "view",
      "type": "function"
    },
    {
      "stateMutability": "payable",
      "type": "receive"
    }
  ],
  "bytecode": "0x6101806040526001600260005090905567016345785d8a0000600360006101000a81548167ffffffffffffffff021916908367ffffffffffffffff16021790555066d529ae9e860000600360086101000a81548167ffffffffffffffff021916908367ffffffffffffffff16021790555068056bc75e2d63100000600360106101000a8154816fffffffffffffffffffffffffffffffff02191690836fffffffffffffffffffffffffffffffff160217905550610708600460006101000a81548163ffffffff021916908363ffffffff1602179055506000600460046101000a81548161ffff021916908361ffff160217905550348015620001015760006000fd5b5060405162007ebd38038062007ebd8339818101604052810190620001279190620006b7565b5b6138405b816000015182602001515b815b8073ffffffffffffffffffffffffffffffffffffffff1660808173ffffffffffffffffffffffffffffffffffffffff1660601b815260140150505b508073ffffffffffffffffffffffffffffffffffffffff1660a08173ffffffffffffffffffffffffffffffffffffffff1660601b815260140150505b505060018167ffffffffffffffff16620001cf620005e560201b60201c565b67ffffffffffffffff16811515620001e357fe5b040367ffffffffffffffff1660e08167ffffffffffffffff1660c01b815260080150508067ffffffffffffffff1660c08167ffffffffffffffff1660c01b815260080150505b50806040015173ffffffffffffffffffffffffffffffffffffffff166101608173ffffffffffffffffffffffffffffffffffffffff1660601b81526014015050806060015173ffffffffffffffffffffffffffffffffffffffff166101008173ffffffffffffffffffffffffffffffffffffffff1660601b81526014015050806080015173ffffffffffffffffffffffffffffffffffffffff166101208173ffffffffffffffffffffffffffffffffffffffff1660601b815260140150508060a0015173ffffffffffffffffffffffffffffffffffffffff166101408173ffffffffffffffffffffffffffffffffffffffff1660601b8152601401505060006040518060c00160405280636161189060e01b7bffffffffffffffffffffffffffffffffffffffffffffffffffffffff19167bffffffffffffffffffffffffffffffffffffffffffffffffffffffff191681526020016328d10de860e01b7bffffffffffffffffffffffffffffffffffffffffffffffffffffffff19167bffffffffffffffffffffffffffffffffffffffffffffffffffffffff1916815260200163c7bd867c60e01b7bffffffffffffffffffffffffffffffffffffffffffffffffffffffff19167bffffffffffffffffffffffffffffffffffffffffffffffffffffffff1916815260200163de8925f560e01b7bffffffffffffffffffffffffffffffffffffffffffffffffffffffff19167bffffffffffffffffffffffffffffffffffffffffffffffffffffffff1916815260200163c433c80a60e01b7bffffffffffffffffffffffffffffffffffffffffffffffffffffffff19167bffffffffffffffffffffffffffffffffffffffffffffffffffffffff19168152602001630907653160e01b7bffffffffffffffffffffffffffffffffffffffffffffffffffffffff19167bffffffffffffffffffffffffffffffffffffffffffffffffffffffff191681526020015090506000600090505b815060068110156200059a5760016001600050600084846006811015156200052357fe5b60200201517bffffffffffffffffffffffffffffffffffffffffffffffffffffffff19167bffffffffffffffffffffffffffffffffffffffffffffffffffffffff1916815260200190815260200160002060006101000a81548160ff0219169083151502179055505b8080600101915050620004ff565b5033600860086101000a81548173ffffffffffffffffffffffffffffffffffffffff021916908373ffffffffffffffffffffffffffffffffffffffff160217905550505b506200078c565b6000620005ff426200060760201b62001e7717909060201c565b905080505b90565b600068010000000000000000821015156200068d576040517f08c379a00000000000000000000000000000000000000000000000000000000081526004018080602001828103825260118152602001807f6d6f7265207468616e203634206269747300000000000000000000000000000081526020015060200191505060405180910390fd5b81905062000696565b919050566200078b565b600081519050620006b1816200076e565b5b919050565b600060c08284031215620006c9578081fd5b60405160c081018181106001600160401b0382111715620006e657fe5b80604052508251620006f8816200076e565b8082525060208301516200070c816200076e565b80602083015250604083015162000723816200076e565b806040830152506200073860608401620006a0565b60608201526200074b60808401620006a0565b60808201526200075e60a08401620006a0565b60a0820152809150505b92915050565b6001600160a01b03811681141515620007875760006000fd5b5b50565b5b60805160601c60a05160601c60c05160c01c60e05160c01c6101005160601c6101205160601c6101405160601c6101605160601c6175bc6200090160003980610a9952806110bd528061159e528061194c52806123f65280612c245280612f8f5280613423528061355552806139ee5280613ae4528061422d528061434952806144385280614bab5280614c585280614ccd5280615345525080611266528061176152508061025b5280611928528061278b52806128c25280612a7a5280612cb1528061347f52806137515280613837528061486d52806149015280614f1652806154fb5250806102b0528061164252806148195280614df85280614e5852806158ac5280615900525080611a0d5280612dd852806145d5525080611b0c5280612df952806145f6525080611f0b5280612d51525080610e71528061202c52806121be528061258252806126865280612e5252806131895280613c5d528061413952806144e7528061508652506175bc6000f3fe6080604052600436106102535760003560e01c80635b54918211610138578063c4e3a63b116100b0578063de8925f51161007f578063f4d8977f11610064578063f4d8977f146108eb578063fbc3a6431461092a578063fbff7efd146109565761030d565b8063de8925f514610897578063f09a4016146108c15761030d565b8063c4e3a63b146107e9578063c7bd867c14610815578063d2ca21151461083f578063d5f394881461086b5761030d565b806381cc8807116101075780639624e83e116100ec5780639624e83e14610767578063bdd266cd14610793578063c433c80a146107bf5761030d565b806381cc8807146106fc578063843978881461073b5761030d565b80635b5491821461064e578063616118901461067a5780636fcdfed6146106a457806375f12b21146106d05761030d565b80631df0f8a3116101cb57806328d10de81161019a5780633fc8cef31161017f5780633fc8cef3146105b45780634b829573146105e057806350b404001461061e5761030d565b806328d10de8146105605780633e9483721461058a5761030d565b80631df0f8a31461049857806323f5589a146104d7578063265e8a641461050357806326d89545146105345761030d565b80630c340a2411610222578063113cf1ab11610207578063113cf1ab1461040357806315398ae7146104415780631afdbce4146104805761030d565b80630c340a24146103ab5780630dae9f52146103d75761030d565b8063039d10e814610313578063060406181461033d57806307da68f51461036957806309076531146103815761030d565b3661030d575b7f000000000000000000000000000000000000000000000000000000000000000073ffffffffffffffffffffffffffffffffffffffff163373ffffffffffffffffffffffffffffffffffffffff1614806102fe57507f000000000000000000000000000000000000000000000000000000000000000073ffffffffffffffffffffffffffffffffffffffff163373ffffffffffffffffffffffffffffffffffffffff16145b151561030a5760006000fd5b5b005b60006000fd5b3480156103205760006000fd5b5061033b60048036038101906103369190616399565b610995565b005b34801561034a5760006000fd5b50610353610da3565b6040516103609190617438565b60405180910390f35b3480156103765760006000fd5b5061037f610dbb565b005b34801561038e5760006000fd5b506103a960048036038101906103a49190616923565b610ddb565b005b3480156103b85760006000fd5b506103c1610e6f565b6040516103ce9190616c3a565b60405180910390f35b3480156103e45760006000fd5b506103ed610e93565b6040516103fa9190617438565b60405180910390f35b3480156104105760006000fd5b5061042b600480360381019061042691906162fe565b610ead565b6040516104389190616bfe565b60405180910390f35b34801561044e5760006000fd5b50610469600480360381019061046491906164d2565b610ed2565b6040516104779291906173cc565b60405180910390f35b34801561048d5760006000fd5b50610496610ff1565b005b3480156104a55760006000fd5b506104c060048036038101906104bb9190616276565b61102e565b6040516104ce9291906173cc565b60405180910390f35b3480156104e45760006000fd5b506104ed611221565b6040516104fa9190617438565b60405180910390f35b61051d60048036038101906105189190616586565b61123b565b60405161052b9291906173a1565b60405180910390f35b3480156105415760006000fd5b5061054a611430565b6040516105579190617408565b60405180910390f35b34801561056d5760006000fd5b506105886004803603810190610583919061681d565b611446565b005b3480156105975760006000fd5b506105b260048036038101906105ad9190616859565b611550565b005b3480156105c15760006000fd5b506105ca611640565b6040516105d79190616ad7565b60405180910390f35b3480156105ed5760006000fd5b5061060860048036038101906106039190616372565b611664565b6040516106159190617265565b60405180910390f35b61063860048036038101906106339190616547565b61168a565b6040516106459190617241565b60405180910390f35b34801561065b5760006000fd5b5061066461175f565b6040516106719190616c8a565b60405180910390f35b3480156106875760006000fd5b506106a2600480360381019061069d9190616430565b611783565b005b3480156106b15760006000fd5b506106ba6118a0565b6040516106c79190617265565b60405180910390f35b3480156106dd5760006000fd5b506106e66118b4565b6040516106f39190616bfe565b60405180910390f35b3480156107095760006000fd5b50610724600480360381019061071f9190616372565b6118c7565b604051610732929190617454565b60405180910390f35b3480156107485760006000fd5b50610751611926565b60405161075e9190616c62565b60405180910390f35b3480156107745760006000fd5b5061077d61194a565b60405161078a9190616c12565b60405180910390f35b3480156107a05760006000fd5b506107a961196e565b6040516107b69190617438565b60405180910390f35b3480156107cc5760006000fd5b506107e760048036038101906107e291906168fc565b611988565b005b3480156107f65760006000fd5b506107ff611a0b565b60405161080c9190617438565b60405180910390f35b3480156108225760006000fd5b5061083d60048036038101906108389190616923565b611a2f565b005b34801561084c5760006000fd5b50610855611b0a565b6040516108629190617438565b60405180910390f35b3480156108785760006000fd5b50610881611b2e565b60405161088e9190616ad7565b60405180910390f35b3480156108a45760006000fd5b506108bf60048036038101906108ba9190616795565b611b54565b005b3480156108ce5760006000fd5b506108e960048036038101906108e491906163f4565b611bd7565b005b3480156108f85760006000fd5b50610913600480360381019061090e9190616493565b611cd1565b6040516109219291906173cc565b60405180910390f35b3480156109375760006000fd5b50610940611dfa565b60405161094d9190617241565b60405180910390f35b3480156109635760006000fd5b5061097e600480360381019061097991906167f6565b611e1c565b60405161098c929190616df6565b60405180910390f35b6109a3611f0963ffffffff16565b6109b161201c63ffffffff16565b6000600660005060008573ffffffffffffffffffffffffffffffffffffffff1673ffffffffffffffffffffffffffffffffffffffff16815260200190815260200160002060009054906101000a900461ffff169050610a158161214963ffffffff16565b610a1d615fe8565b6000848490509050600043905060006040518060400160405280600115158152602001610a4f8a6121ba63ffffffff16565b60020b8152602001509050610a626160ae565b610a7061230663ffffffff16565b67ffffffffffffffff1681608001909081815260200150506000600090505b84811015610d86577f000000000000000000000000000000000000000000000000000000000000000073ffffffffffffffffffffffffffffffffffffffff1663f34348f18a8a848181101515610ae157fe5b905060200201356040518263ffffffff1660e01b8152600401610b04919061727b565b6101806040518083038186803b158015610b1e5760006000fd5b505afa158015610b33573d600060003e3d6000fd5b505050506040513d601f19601f82011682018060405250810190610b579190616667565b955085508661ffff16866020015161ffff16141515610b7557610d79565b610b8986846020015161232163ffffffff16565b15610b9357610d79565b838660800151101515610ba557610d79565b610bb48661235463ffffffff16565b955085508888828181101515610bc657fe5b905060200201358260000190908181526020015050610bf7826000015160006000896000015161278563ffffffff16565b5050610c52610c45600360089054906101000a900467ffffffffffffffff1667ffffffffffffffff168860a001516fffffffffffffffffffffffffffffffff166129b490919063ffffffff16565b6129da909063ffffffff16565b82602001906fffffffffffffffffffffffffffffffff1690816fffffffffffffffffffffffffffffffff1681526020015050610c948233612a7463ffffffff16565b5050610cc382602001518760a001516fffffffffffffffffffffffffffffffff16612b5f90919063ffffffff16565b82602001906fffffffffffffffffffffffffffffffff1690816fffffffffffffffffffffffffffffffff1681526020015050610d09828760000151612a7463ffffffff16565b5050610d2082600001518785612c0c63ffffffff16565b3373ffffffffffffffffffffffffffffffffffffffff168989838181101515610d4557fe5b905060200201357f6ba13b7ae6048936f291047829a5de36835ad46b52453fff379900999074709260405160405180910390a35b8080600101915050610a8f565b505050505050505b5b610d9d612d4263ffffffff16565b5b505050565b6000610db3612dd463ffffffff16565b905080505b90565b610dc9612e4d63ffffffff16565b610dd7612ead63ffffffff16565b5b5b565b610de9612e4d63ffffffff16565b6706f05b59d3b200008167ffffffffffffffff16101515610e0a5760006000fd5b80600360086101000a81548167ffffffffffffffff021916908367ffffffffffffffff1602179055507f78244e8e46597270e2f0ae9c6baded3ba10f1b3f03316f89e49bbfeb1c06786881604051610e629190617438565b60405180910390a15b5b50565b7f000000000000000000000000000000000000000000000000000000000000000081565b600860009054906101000a900467ffffffffffffffff1681565b600160005060205280600052604060002060009150909054906101000a900460ff1681565b60006000610ee4611f0963ffffffff16565b610ef2612ef763ffffffff16565b6000610f078460000151612f8263ffffffff16565b9050610f1c816080015161309663ffffffff16565b8060a0015184602001906fffffffffffffffffffffffffffffffff1690816fffffffffffffffffffffffffffffffff1681526020015050610f67848260000151612a7463ffffffff16565b8093508194505050610f91846000015182610f866130de63ffffffff16565b612c0c63ffffffff16565b83600001517f1bd2c24817047e88025a4688c0fba3903e750cc05d80857de4201f42ec59bcf28484604051610fc79291906173cc565b60405180910390a282829250925050610fdc56505b5b610feb612d4263ffffffff16565b5b915091565b610fff611f0963ffffffff16565b61100d612ef763ffffffff16565b61101b6130ea63ffffffff16565b5b5b61102b612d4263ffffffff16565b5b565b60006000611040611f0963ffffffff16565b61104e612ef763ffffffff16565b600085859050905061105e615fe8565b6000600060006000600090505b858110156111f3578a8a82818110151561108157fe5b905060200201359350835061109b84612f8263ffffffff16565b945084508885610120019063ffffffff16908163ffffffff16815260200150507f000000000000000000000000000000000000000000000000000000000000000073ffffffffffffffffffffffffffffffffffffffff1663816aaa2585876040518363ffffffff1660e01b81526004016111169291906172bc565b600060405180830381600087803b1580156111315760006000fd5b505af1158015611146573d600060003e3d6000fd5b5050505061115e84600060003361278563ffffffff16565b8093508194505050611179838961336490919063ffffffff16565b97508750611190838961336490919063ffffffff16565b96508650833373ffffffffffffffffffffffffffffffffffffffff167f56253d287efacdb2c4cd76dd03624a4821c1ce721d1152e8f5f5718f6087c9bf85856040516111dd9291906173cc565b60405180910390a35b808060010191505061106b565b5086869650965050505050506112095650505050505b5b611218612d4263ffffffff16565b5b935093915050565b600360089054906101000a900467ffffffffffffffff1681565b6000600061124d611f0963ffffffff16565b61125b61201c63ffffffff16565b6000600660005060007f000000000000000000000000000000000000000000000000000000000000000073ffffffffffffffffffffffffffffffffffffffff16631698ee82886000015189602001518a604001516040518463ffffffff1660e01b81526004016112cd93929190616b56565b60206040518083038186803b1580156112e65760006000fd5b505afa1580156112fb573d600060003e3d6000fd5b505050506040513d601f19601f8201168201806040525081019061131f919061624f565b73ffffffffffffffffffffffffffffffffffffffff1673ffffffffffffffffffffffffffffffffffffffff16815260200190815260200160002060009054906101000a900461ffff1690506113798161214963ffffffff16565b611388856133ed63ffffffff16565b80935081945050506113ac838287606001518860800151868961355363ffffffff16565b828161ffff163373ffffffffffffffffffffffffffffffffffffffff167f87c666eb8f5e2d1a47a2af419127c84ea830d86b5f75e12ca3dafa33323d9122886060015189608001518760405161140493929190616e2f565b60405180910390a48282925092505061141956505b5b611428612d4263ffffffff16565b5b9250929050565b600460009054906101000a900463ffffffff1681565b611454612e4d63ffffffff16565b6114638261214963ffffffff16565b6114716130ea63ffffffff16565b80600560005060008461ffff1661ffff16815260200190815260200160002060005060000160146101000a81548167ffffffffffffffff021916908367ffffffffffffffff16021790555060006114cc6136ac63ffffffff16565b11151561150e576040517f08c379a000000000000000000000000000000000000000000000000000000000815260040161150590616f24565b60405180910390fd5b8161ffff167fcf476913af040a8c0a50588902fc980c73de756444694afb625e05906334404f826040516115429190617438565b60405180910390a25b5b5050565b61155e611f0963ffffffff16565b61156c61201c63ffffffff16565b600061157d82612f8263ffffffff16565b9050600081610120019063ffffffff16908163ffffffff16815260200150507f000000000000000000000000000000000000000000000000000000000000000073ffffffffffffffffffffffffffffffffffffffff1663816aaa2583836040518363ffffffff1660e01b81526004016115f79291906172bc565b600060405180830381600087803b1580156116125760006000fd5b505af1158015611627573d600060003e3d6000fd5b50505050505b5b61163c612d4263ffffffff16565b5b50565b7f000000000000000000000000000000000000000000000000000000000000000081565b600660005060205280600052604060002060009150909054906101000a900461ffff1681565b600061169a611f0963ffffffff16565b6116a861201c63ffffffff16565b60006116bd8460000135612f8263ffffffff16565b90508281610120019063ffffffff16908163ffffffff16815260200150506116ea8461374963ffffffff16565b915081506117038185600001358461390163ffffffff16565b83600001357fcc5b49b47bfd2f61894e4c8977343543aa054a11ae847be904355459ce55dcd9836040516117379190617241565b60405180910390a28191505061174956505b5b611758612d4263ffffffff16565b5b92915050565b7f000000000000000000000000000000000000000000000000000000000000000081565b611791612e4d63ffffffff16565b6000600660005060008473ffffffffffffffffffffffffffffffffffffffff1673ffffffffffffffffffffffffffffffffffffffff16815260200190815260200160002060009054906101000a900461ffff1661ffff1614151561182a576040517f08c379a000000000000000000000000000000000000000000000000000000000815260040161182190616fa2565b60405180910390fd5b6118386130ea63ffffffff16565b6118488282613b7963ffffffff16565b61ffff168273ffffffffffffffffffffffffffffffffffffffff167fb42c51dce17f5346a481b9dd503edc20c8b6de38b22e12b35a5c77c131fb38ac836040516118929190617438565b60405180910390a35b5b5050565b600460049054906101000a900461ffff1681565b600060009054906101000a900460ff1681565b60076000506020528060005260406000206000915090508060000160009054906101000a900467ffffffffffffffff16908060000160089054906101000a900477ffffffffffffffffffffffffffffffffffffffffffffffff16905082565b7f000000000000000000000000000000000000000000000000000000000000000081565b7f000000000000000000000000000000000000000000000000000000000000000081565b600360009054906101000a900467ffffffffffffffff1681565b611996612e4d63ffffffff16565b61012c8163ffffffff16101515156119ae5760006000fd5b80600460006101000a81548163ffffffff021916908363ffffffff1602179055507f811ba52920ff121eccd59ee98068330fc6736094b9a3fab10ada70fb0cd2f370816040516119fe9190617420565b60405180910390a15b5b50565b7f000000000000000000000000000000000000000000000000000000000000000081565b611a3d612e4d63ffffffff16565b80600360006101000a81548167ffffffffffffffff021916908367ffffffffffffffff160217905550600360009054906101000a900467ffffffffffffffff1667ffffffffffffffff166000101515611a965760006000fd5b670de0b6b3a7640000600360009054906101000a900467ffffffffffffffff1667ffffffffffffffff1611151515611ace5760006000fd5b7f41785a43e8509555b296851de25b00003ca4ca1c572c807cb301d4a0fb9582d481604051611afd9190617438565b60405180910390a15b5b50565b7f000000000000000000000000000000000000000000000000000000000000000081565b600860089054906101000a900473ffffffffffffffffffffffffffffffffffffffff1681565b611b62612e4d63ffffffff16565b80600360106101000a8154816fffffffffffffffffffffffffffffffff02191690836fffffffffffffffffffffffffffffffff1602179055507f755043e33e8e4c87253e98c56c011cc9905bf88318997b89b3520a54b3c5f17081604051611bca9190617241565b60405180910390a15b5b50565b611c36600860089054906101000a900473ffffffffffffffffffffffffffffffffffffffff1673ffffffffffffffffffffffffffffffffffffffff163373ffffffffffffffffffffffffffffffffffffffff1614613fe363ffffffff16565b600860086101000a81549073ffffffffffffffffffffffffffffffffffffffff0219169055600161ffff16611c7383610bb8613b7963ffffffff16565b61ffff16141515611cb9576040517f08c379a0000000000000000000000000000000000000000000000000000000008152600401611cb09061705f565b60405180910390fd5b611ccb816103e8613b7963ffffffff16565b505b5050565b60006000611ce3611f0963ffffffff16565b611cf161201c63ffffffff16565b6000611d068560000135612f8263ffffffff16565b9050611d1b816080015161309663ffffffff16565b8381610120019063ffffffff16908163ffffffff1681526020015050611d5b85803603810190611d4b91906164d2565b8260000151612a7463ffffffff16565b8093508194505050611d98818660000135876020016020810190611d7f9190616795565b611d8d6130de63ffffffff16565b61405f63ffffffff16565b84600001357ffafb1711250bf0d3906bfd9c4386a9a5a5fdf9ac1facdc9dfd2addad7d3f72e78484604051611dce9291906173cc565b60405180910390a281829250925050611de356505b5b611df2612d4263ffffffff16565b5b9250929050565b600360109054906101000a90046fffffffffffffffffffffffffffffffff1681565b60056000506020528060005260406000206000915090508060000160009054906101000a900473ffffffffffffffffffffffffffffffffffffffff16908060000160149054906101000a900467ffffffffffffffff16905082565b60006801000000000000000082101515611efc576040517f08c379a00000000000000000000000000000000000000000000000000000000081526004018080602001828103825260118152602001807f6d6f7265207468616e203634206269747300000000000000000000000000000081526020015060200191505060405180910390fd5b819050611f04565b919050565b7f000000000000000000000000000000000000000000000000000000000000000073ffffffffffffffffffffffffffffffffffffffff1663e97dcb626040518163ffffffff1660e01b8152600401600060405180830381600087803b158015611f725760006000fd5b505af1158015611f87573d600060003e3d6000fd5b5050505060026002600050541415151561200c576040517f08c379a000000000000000000000000000000000000000000000000000000000815260040180806020018281038252600d8152602001807f4c50205265656e7472616e63790000000000000000000000000000000000000081526020015060200191505060405180910390fd5b600260026000508190909055505b565b61202a612ef763ffffffff16565b7f000000000000000000000000000000000000000000000000000000000000000073ffffffffffffffffffffffffffffffffffffffff1663bf86d6906040518163ffffffff1660e01b815260040160206040518083038186803b1580156120915760006000fd5b505afa1580156120a6573d600060003e3d6000fd5b505050506040513d60208110156120bd5760006000fd5b8101908080519060200190929190505050151515612146576040517f08c379a00000000000000000000000000000000000000000000000000000000081526004018080602001828103825260118152602001807f50726f746f636f6c2073687574646f776e00000000000000000000000000000081526020015060200191505060405180910390fd5b5b565b8061ffff1660001080156121755750600460049054906101000a900461ffff1661ffff168161ffff1611155b15156121b6576040517f08c379a00000000000000000000000000000000000000000000000000000000081526004016121ad90616fe1565b60405180910390fd5b5b50565b60007f000000000000000000000000000000000000000000000000000000000000000073ffffffffffffffffffffffffffffffffffffffff1663d3419bf36040518163ffffffff1660e01b815260040160206040518083038186803b1580156122235760006000fd5b505afa158015612238573d600060003e3d6000fd5b505050506040513d601f19601f8201168201806040525081019061225c919061634b565b73ffffffffffffffffffffffffffffffffffffffff1663fcebd71c83600460009054906101000a900463ffffffff166040518363ffffffff1660e01b81526004016122a8929190616dc1565b60206040518083038186803b1580156122c15760006000fd5b505afa1580156122d6573d600060003e3d6000fd5b505050506040513d601f19601f820116820180604052508101906122fa919061646c565b9050612301565b919050565b600061231942611e77909063ffffffff16565b905080505b90565b60008160020b8360e0015160020b13158015612347575082610100015160020b8260020b125b905061234e565b92915050565b61235c615fe8565b600061236c6144cf63ffffffff16565b9050600061237f826145ce63ffffffff16565b905060008460c001519050600060008267ffffffffffffffff16146123b2576123ad826145ce63ffffffff16565b6123b5565b60005b90508067ffffffffffffffff168367ffffffffffffffff161115156123e05785945050505050612780565b6123ee6130ea63ffffffff16565b60006124f3877f000000000000000000000000000000000000000000000000000000000000000073ffffffffffffffffffffffffffffffffffffffff16631cef92b1600560005060008c6020015161ffff1661ffff16815260200190815260200160002060005060000160009054906101000a900473ffffffffffffffffffffffffffffffffffffffff166040518263ffffffff1660e01b81526004016124959190616cb2565b60406040518083038186803b1580156124ae5760006000fd5b505afa1580156124c3573d600060003e3d6000fd5b505050506040513d601f19601f820116820180604052508101906124e79190616749565b8761465663ffffffff16565b8092508197505050600081111561276e57600073ffffffffffffffffffffffffffffffffffffffff1686610140015173ffffffffffffffffffffffffffffffffffffffff16141580156125555750600086610160015167ffffffffffffffff16115b1561268457600061257e87610160015167ffffffffffffffff16836129b490919063ffffffff16565b90507f000000000000000000000000000000000000000000000000000000000000000073ffffffffffffffffffffffffffffffffffffffff16634d6729f5886101400151836040518363ffffffff1660e01b81526004016125e0929190616b95565b600060405180830381600087803b1580156125fb5760006000fd5b505af1158015612610573d600060003e3d6000fd5b505050506001151587610140015173ffffffffffffffffffffffffffffffffffffffff167f8079a05488a0f375c08504c3ba8b3a1371f5a192b7a141bc9294ef7ad41389d983604051612663919061727b565b60405180910390a361267e818361478e90919063ffffffff16565b91508150505b7f000000000000000000000000000000000000000000000000000000000000000073ffffffffffffffffffffffffffffffffffffffff16634d6729f58760000151836040518363ffffffff1660e01b81526004016126e3929190616b95565b600060405180830381600087803b1580156126fe5760006000fd5b505af1158015612713573d600060003e3d6000fd5b5050505060001515866000015173ffffffffffffffffffffffffffffffffffffffff167f8079a05488a0f375c08504c3ba8b3a1371f5a192b7a141bc9294ef7ad41389d983604051612765919061727b565b60405180910390a35b85955050505050506127805650505050505b919050565b600060007f000000000000000000000000000000000000000000000000000000000000000073ffffffffffffffffffffffffffffffffffffffff1663fc6f78656040518060800160405280898152602001600073ffffffffffffffffffffffffffffffffffffffff1681526020016fffffffffffffffffffffffffffffffff6fffffffffffffffffffffffffffffffff1681526020016fffffffffffffffffffffffffffffffff6fffffffffffffffffffffffffffffffff168152602001506040518263ffffffff1660e01b8152600401612860919061709e565b604060405180830381600087803b15801561287b5760006000fd5b505af1158015612890573d600060003e3d6000fd5b505050506040513d601f19601f820116820180604052508101906128b491906168d6565b8092508193505050600060007f000000000000000000000000000000000000000000000000000000000000000073ffffffffffffffffffffffffffffffffffffffff166399fbab88896040518263ffffffff1660e01b8152600401612919919061727b565b6101806040518083038186803b1580156129335760006000fd5b505afa158015612948573d600060003e3d6000fd5b505050506040513d601f19601f8201168201806040525081019061296c9190616971565b505050505050505093509350505061298b82888761481763ffffffff16565b61299c81878761481763ffffffff16565b83839350935050506129ab5650505b94509492505050565b60006129cf8383670de0b6b3a764000061499763ffffffff16565b905080505b92915050565b600070010000000000000000000000000000000082101515612a67576040517f08c379a00000000000000000000000000000000000000000000000000000000081526004018080602001828103825260128152602001807f6d6f7265207468616e203132382062697473000000000000000000000000000081526020015060200191505060405180910390fd5b819050612a6f565b919050565b600060007f000000000000000000000000000000000000000000000000000000000000000073ffffffffffffffffffffffffffffffffffffffff16630c49ccbe856040518263ffffffff1660e01b8152600401612ad191906170fd565b604060405180830381600087803b158015612aec5760006000fd5b505af1158015612b01573d600060003e3d6000fd5b505050506040513d601f19601f82011682018060405250810190612b2591906168d6565b8092508193505050612b4b8460000151856040015186606001518661278563ffffffff16565b5050808191509150612b58565b9250929050565b6000826fffffffffffffffffffffffffffffffff168284039150816fffffffffffffffffffffffffffffffff1611151515612c05576040517f08c379a000000000000000000000000000000000000000000000000000000000815260040180806020018281038252600d8152602001807f7375622d756e646572666c6f770000000000000000000000000000000000000081526020015060200191505060405180910390fd5b5b92915050565b612c2282848460a001518461405f63ffffffff16565b7f000000000000000000000000000000000000000000000000000000000000000073ffffffffffffffffffffffffffffffffffffffff166326879a4e846040518263ffffffff1660e01b8152600401612c7b919061727b565b600060405180830381600087803b158015612c965760006000fd5b505af1158015612cab573d600060003e3d6000fd5b505050507f000000000000000000000000000000000000000000000000000000000000000073ffffffffffffffffffffffffffffffffffffffff166342966c68846040518263ffffffff1660e01b8152600401612d08919061727b565b600060405180830381600087803b158015612d235760006000fd5b505af1158015612d38573d600060003e3d6000fd5b505050505b505050565b600160026000508190909055507f000000000000000000000000000000000000000000000000000000000000000073ffffffffffffffffffffffffffffffffffffffff1663e9fad8ee6040518163ffffffff1660e01b8152600401600060405180830381600087803b158015612db85760006000fd5b505af1158015612dcd573d600060003e3d6000fd5b505050505b565b60007f00000000000000000000000000000000000000000000000000000000000000007f000000000000000000000000000000000000000000000000000000000000000067ffffffffffffffff16612e3061230663ffffffff16565b67ffffffffffffffff16811515612e4357fe5b0403905080505b90565b612eaa7f000000000000000000000000000000000000000000000000000000000000000073ffffffffffffffffffffffffffffffffffffffff163373ffffffffffffffffffffffffffffffffffffffff1614613fe363ffffffff16565b5b565b6001600060006101000a81548160ff0219169083151502179055507f7acc84e34091ae817647a4c49116f5cc07f319078ba80f8f5fde37ea7e25cbd660405160405180910390a15b565b600060009054906101000a900460ff16151515612f7f576040517f08c379a00000000000000000000000000000000000000000000000000000000081526004018080602001828103825260138152602001807f436f6e74726163742069732073746f707065640000000000000000000000000081526020015060200191505060405180910390fd5b5b565b612f8a615fe8565b6130447f000000000000000000000000000000000000000000000000000000000000000073ffffffffffffffffffffffffffffffffffffffff1663f34348f1846040518263ffffffff1660e01b8152600401612fe6919061727b565b6101806040518083038186803b1580156130005760006000fd5b505afa158015613015573d600060003e3d6000fd5b505050506040513d601f19601f820116820180604052508101906130399190616667565b61235463ffffffff16565b90508050613089816000015173ffffffffffffffffffffffffffffffffffffffff163373ffffffffffffffffffffffffffffffffffffffff1614613fe363ffffffff16565b809050613091565b919050565b43811015156130da576040517f08c379a00000000000000000000000000000000000000000000000000000000081526004016130d190617020565b60405180910390fd5b5b50565b6130e66160f2565b5b90565b60006130fa614a9863ffffffff16565b9050600860009054906101000a900467ffffffffffffffff1667ffffffffffffffff168167ffffffffffffffff161115156131355750613362565b6000600860009054906101000a900467ffffffffffffffff1682039050600061384067ffffffffffffffff166201518081151561316e57fe5b0467ffffffffffffffff166132378367ffffffffffffffff167f000000000000000000000000000000000000000000000000000000000000000073ffffffffffffffffffffffffffffffffffffffff166318c7de176040518163ffffffff1660e01b8152600401602060405180830381600087803b1580156131f05760006000fd5b505af1158015613205573d600060003e3d6000fd5b505050506040513d601f19601f820116820180604052508101906132299190616875565b614ac090919063ffffffff16565b81151561324057fe5b0490506000600460049054906101000a900461ffff1690506000600061326a6136ac63ffffffff16565b90506001915081505b8261ffff168261ffff161115156132f9576132eb826132df600560005060008661ffff1661ffff16815260200190815260200160002060005060000160149054906101000a900467ffffffffffffffff1667ffffffffffffffff1684886149979092919063ffffffff16565b87614b5e63ffffffff16565b5b8180600101925050613273565b85600860006101000a81548167ffffffffffffffff021916908367ffffffffffffffff1602179055507f095a67d1e9698fe0eebf9cff79a22f6423cebcb4e386a0bdd7e12330d86381ed84866040516133539291906173e5565b60405180910390a15050505050505b565b600082828401915081101515156133e6576040517f08c379a000000000000000000000000000000000000000000000000000000000815260040180806020018281038252600c8152602001807f6164642d6f766572666c6f77000000000000000000000000000000000000000081526020015060200191505060405180910390fd5b5b92915050565b6000600061340983600001518460a00151614df663ffffffff16565b61342183602001518460c00151614df663ffffffff16565b7f000000000000000000000000000000000000000000000000000000000000000083610120019073ffffffffffffffffffffffffffffffffffffffff16908173ffffffffffffffffffffffffffffffffffffffff16815260200150507f000000000000000000000000000000000000000000000000000000000000000073ffffffffffffffffffffffffffffffffffffffff166388316456846040518263ffffffff1660e01b81526004016134d6919061718f565b608060405180830381600087803b1580156134f15760006000fd5b505af1158015613506573d600060003e3d6000fd5b505050506040513d601f19601f8201168201806040525081019061352a9190616891565b905050809250819350505061354d83600001518460200151614ef663ffffffff16565b5b915091565b7f000000000000000000000000000000000000000000000000000000000000000073ffffffffffffffffffffffffffffffffffffffff166375ea13ca33886040518363ffffffff1660e01b81526004016135ae929190616b27565b600060405180830381600087803b1580156135c95760006000fd5b505af11580156135de573d600060003e3d6000fd5b505050506135ea615fe8565b33816000019073ffffffffffffffffffffffffffffffffffffffff16908173ffffffffffffffffffffffffffffffffffffffff168152602001505085816020019061ffff16908161ffff1681526020015050848160e0019060020b908160020b815260200150508381610100019060020b908160020b815260200150508181610120019063ffffffff16908163ffffffff16815260200150506136a26136958261235463ffffffff16565b888561390163ffffffff16565b505b505050505050565b60006000600190505b600460049054906101000a900461ffff1661ffff168161ffff1611151561373d5761372b600560005060008361ffff1661ffff16815260200190815260200160002060005060000160149054906101000a900467ffffffffffffffff1667ffffffffffffffff168361336490919063ffffffff16565b915081505b80806001019150506136b5565b50809050613746565b90565b6000600060007f000000000000000000000000000000000000000000000000000000000000000073ffffffffffffffffffffffffffffffffffffffff166399fbab8885600001356040518263ffffffff1660e01b81526004016137ac919061727b565b6101806040518083038186803b1580156137c65760006000fd5b505afa1580156137db573d600060003e3d6000fd5b505050506040513d601f19601f820116820180604052508101906137ff9190616971565b5050505050505050935093505050613821828560200135614df663ffffffff16565b613835818560400135614df663ffffffff16565b7f000000000000000000000000000000000000000000000000000000000000000073ffffffffffffffffffffffffffffffffffffffff1663219f5d17856040518263ffffffff1660e01b815260040161388e919061714a565b606060405180830381600087803b1580156138a95760006000fd5b505af11580156138be573d600060003e3d6000fd5b505050506040513d601f19601f820116820180604052508101906138e291906167bc565b905050809350506138f98282614ef663ffffffff16565b50505b919050565b600060056000506000856020015161ffff1661ffff16815260200190815260200160002060005060000160009054906101000a900473ffffffffffffffffffffffffffffffffffffffff169050600061395f826121ba63ffffffff16565b9050613971858261232163ffffffff16565b15156139b2576040517f08c379a00000000000000000000000000000000000000000000000000000000081526004016139a990616e67565b60405180910390fd5b6139ec8582846139e1878a60a001516fffffffffffffffffffffffffffffffff16614fb590919063ffffffff16565b61506263ffffffff16565b7f000000000000000000000000000000000000000000000000000000000000000073ffffffffffffffffffffffffffffffffffffffff16631428561d83856040518363ffffffff1660e01b8152600401613a47929190616d80565b600060405180830381600087803b158015613a625760006000fd5b505af1158015613a77573d600060003e3d6000fd5b50505050670de0b6b3a7640000600360009054906101000a900467ffffffffffffffff1667ffffffffffffffff16108015613abe5750600161ffff16856020015161ffff16145b15613ad357613ad28261525d63ffffffff16565b5b4385608001909081815260200150507f000000000000000000000000000000000000000000000000000000000000000073ffffffffffffffffffffffffffffffffffffffff1663816aaa2585876040518363ffffffff1660e01b8152600401613b3d9291906172bc565b600060405180830381600087803b158015613b585760006000fd5b505af1158015613b6d573d600060003e3d6000fd5b5050505050505b505050565b60006000600660005060008573ffffffffffffffffffffffffffffffffffffffff1673ffffffffffffffffffffffffffffffffffffffff16815260200190815260200160002060009054906101000a900461ffff1661ffff16141515613c14576040517f08c379a0000000000000000000000000000000000000000000000000000000008152600401613c0b90616ee5565b60405180910390fd5b61ffff61ffff166004600481819054906101000a900461ffff1660010191906101000a81548161ffff021916908361ffff160217905561ffff16101515613c5b5760006000fd5b7f000000000000000000000000000000000000000000000000000000000000000073ffffffffffffffffffffffffffffffffffffffff1663d3419bf36040518163ffffffff1660e01b815260040160206040518083038186803b158015613cc25760006000fd5b505afa158015613cd7573d600060003e3d6000fd5b505050506040513d601f19601f82011682018060405250810190613cfb919061634b565b73ffffffffffffffffffffffffffffffffffffffff1663407431f7846040518263ffffffff1660e01b8152600401613d339190616cb2565b600060405180830381600087803b158015613d4e5760006000fd5b505af1158015613d63573d600060003e3d6000fd5b50505050600460049054906101000a900461ffff169050805060405180604001604052808473ffffffffffffffffffffffffffffffffffffffff1681526020018367ffffffffffffffff16815260200150600560005060008361ffff1661ffff16815260200190815260200160002060005060008201518160000160006101000a81548173ffffffffffffffffffffffffffffffffffffffff021916908373ffffffffffffffffffffffffffffffffffffffff16021790555060208201518160000160146101000a81548167ffffffffffffffff021916908367ffffffffffffffff16021790555090505080600660005060008573ffffffffffffffffffffffffffffffffffffffff1673ffffffffffffffffffffffffffffffffffffffff16815260200190815260200160002060006101000a81548161ffff021916908361ffff160217905550613f398373ffffffffffffffffffffffffffffffffffffffff16630dfe16816040518163ffffffff1660e01b815260040160206040518083038186803b158015613ef55760006000fd5b505afa158015613f0a573d600060003e3d6000fd5b505050506040513d601f19601f82011682018060405250810190613f2e919061624f565b6154f563ffffffff16565b613fc78373ffffffffffffffffffffffffffffffffffffffff1663d21220a76040518163ffffffff1660e01b815260040160206040518083038186803b158015613f835760006000fd5b505afa158015613f98573d600060003e3d6000fd5b505050506040513d601f19601f82011682018060405250810190613fbc919061624f565b6154f563ffffffff16565b613fd56130ea63ffffffff16565b809050613fdd565b92915050565b80151561405b576040517f08c379a000000000000000000000000000000000000000000000000000000000815260040180806020018281038252600e8152602001807f4e6f7420417574686f72697a656400000000000000000000000000000000000081526020015060200191505060405180910390fd5b5b50565b600060056000506000866020015161ffff1661ffff16815260200190815260200160002060005060000160009054906101000a900473ffffffffffffffffffffffffffffffffffffffff169050600082600001516140cb576140c6826121ba63ffffffff16565b6140d1565b82602001515b90506000670de0b6b3a7640000600360009054906101000a900467ffffffffffffffff1667ffffffffffffffff161080156141185750600161ffff16876020015161ffff16145b8015614130575061412f878361232163ffffffff16565b5b80156141d957507f000000000000000000000000000000000000000000000000000000000000000073ffffffffffffffffffffffffffffffffffffffff1663bf86d6906040518163ffffffff1660e01b815260040160206040518083038186803b15801561419e5760006000fd5b505afa1580156141b3573d600060003e3d6000fd5b505050506040513d601f19601f820116820180604052508101906141d791906162d1565b155b905061421587838561420a898c60a001516fffffffffffffffffffffffffffffffff16612b5f90919063ffffffff16565b61506263ffffffff16565b801561422b5761422a8361525d63ffffffff16565b5b7f000000000000000000000000000000000000000000000000000000000000000073ffffffffffffffffffffffffffffffffffffffff1663530c1ccb84876040518363ffffffff1660e01b8152600401614286929190616d80565b600060405180830381600087803b1580156142a15760006000fd5b505af11580156142b6573d600060003e3d6000fd5b50505050801561443657600760005060008473ffffffffffffffffffffffffffffffffffffffff1673ffffffffffffffffffffffffffffffffffffffff16815260200190815260200160002060005060000160089054906101000a900477ffffffffffffffffffffffffffffffffffffffffffffffff1677ffffffffffffffffffffffffffffffffffffffffffffffff167f000000000000000000000000000000000000000000000000000000000000000073ffffffffffffffffffffffffffffffffffffffff1663a135ef17856040518263ffffffff1660e01b81526004016143a09190616cb2565b60206040518083038186803b1580156143b95760006000fd5b505afa1580156143ce573d600060003e3d6000fd5b505050506040513d601f19601f820116820180604052508101906143f29190616875565b10151515614435576040517f08c379a000000000000000000000000000000000000000000000000000000000815260040161442c90616ea6565b60405180910390fd5b5b7f000000000000000000000000000000000000000000000000000000000000000073ffffffffffffffffffffffffffffffffffffffff1663816aaa2587896040518363ffffffff1660e01b81526004016144919291906172bc565b600060405180830381600087803b1580156144ac5760006000fd5b505af11580156144c1573d600060003e3d6000fd5b505050505050505b50505050565b600060006144e161230663ffffffff16565b905060007f000000000000000000000000000000000000000000000000000000000000000073ffffffffffffffffffffffffffffffffffffffff1663585690816040518163ffffffff1660e01b815260040160206040518083038186803b15801561454c5760006000fd5b505afa158015614561573d600060003e3d6000fd5b505050506040513d601f19601f82011682018060405250810190614585919061694a565b90508067ffffffffffffffff1660001080156145b457508167ffffffffffffffff168167ffffffffffffffff16105b6145be57816145c0565b805b925050506145cb5650505b90565b600061464c7f00000000000000000000000000000000000000000000000000000000000000007f000000000000000000000000000000000000000000000000000000000000000067ffffffffffffffff168467ffffffffffffffff1681151561463357fe5b0467ffffffffffffffff1661554a90919063ffffffff16565b905080505b919050565b61465e615fe8565b6000849150815060008260a001516fffffffffffffffffffffffffffffffff1611156147325761472d6146a88360c001518567ffffffffffffffff1661554a90919063ffffffff16565b67ffffffffffffffff1661384067ffffffffffffffff1661471e6146dd8660600151896000015161478e90919063ffffffff16565b6146f887604001518a6020015161478e90919063ffffffff16565b8760a001516fffffffffffffffffffffffffffffffff166149979092919063ffffffff16565b6149979092919063ffffffff16565b905080505b8360000151826060019090818152602001505083602001518260400190908181526020015050828260c0019067ffffffffffffffff16908167ffffffffffffffff1681526020015050818191509150614786565b935093915050565b60008282840391508111151515614810576040517f08c379a000000000000000000000000000000000000000000000000000000000815260040180806020018281038252600d8152602001807f7375622d756e646572666c6f770000000000000000000000000000000000000081526020015060200191505060405180910390fd5b5b92915050565b7f000000000000000000000000000000000000000000000000000000000000000073ffffffffffffffffffffffffffffffffffffffff168373ffffffffffffffffffffffffffffffffffffffff1614156148ff577f000000000000000000000000000000000000000000000000000000000000000073ffffffffffffffffffffffffffffffffffffffff166349404b7c83836040518363ffffffff1660e01b81526004016148c692919061728d565b600060405180830381600087803b1580156148e15760006000fd5b505af11580156148f6573d600060003e3d6000fd5b50505050614991565b7f000000000000000000000000000000000000000000000000000000000000000073ffffffffffffffffffffffffffffffffffffffff1663df2ab5bb8484846040518463ffffffff1660e01b815260040161495c93929190616bc4565b600060405180830381600087803b1580156149775760006000fd5b505af115801561498c573d600060003e3d6000fd5b505050505b5b505050565b60006000600060001985870985870292508281108382030391505060008114156149da576000841115156149cb5760006000fd5b83820492508292505050614a91565b80841115156149e95760006000fd5b6000848688099050828111820391508083039250600085866000031690508086049550808404935060018182600003040190508083028417935083506000600287600302189050808702600203810290508050808702600203810290508050808702600203810290508050808702600203810290508050808702600203810290508050808702600203810290508050808502955085508595505050505050614a915650505050505b9392505050565b6000614ab6614aab6144cf63ffffffff16565b6145ce63ffffffff16565b9050614abd565b90565b60006000821480614ae057508282838502925082811515614add57fe5b04145b1515614b57576040517f08c379a000000000000000000000000000000000000000000000000000000000815260040180806020018281038252600c8152602001807f6d756c2d6f766572666c6f77000000000000000000000000000000000000000081526020015060200191505060405180910390fd5b5b92915050565b6000600560005060008561ffff1661ffff16815260200190815260200160002060005060000160009054906101000a900473ffffffffffffffffffffffffffffffffffffffff16905060007f000000000000000000000000000000000000000000000000000000000000000073ffffffffffffffffffffffffffffffffffffffff16631cef92b1836040518263ffffffff1660e01b8152600401614c029190616cb2565b60406040518083038186803b158015614c1b5760006000fd5b505afa158015614c30573d600060003e3d6000fd5b505050506040513d601f19601f82011682018060405250810190614c549190616749565b90507f000000000000000000000000000000000000000000000000000000000000000073ffffffffffffffffffffffffffffffffffffffff166396122a5c836040518060400160405280614cb589876000015161336490919063ffffffff16565b8152602001614d97614d848967ffffffffffffffff167f000000000000000000000000000000000000000000000000000000000000000073ffffffffffffffffffffffffffffffffffffffff1663a135ef178b6040518263ffffffff1660e01b8152600401614d249190616cb2565b60206040518083038186803b158015614d3d5760006000fd5b505afa158015614d52573d600060003e3d6000fd5b505050506040513d601f19601f82011682018060405250810190614d769190616875565b614ac090919063ffffffff16565b876020015161336490919063ffffffff16565b8152602001506040518363ffffffff1660e01b8152600401614dba929190616d46565b600060405180830381600087803b158015614dd55760006000fd5b505af1158015614dea573d600060003e3d6000fd5b5050505050505b505050565b7f000000000000000000000000000000000000000000000000000000000000000073ffffffffffffffffffffffffffffffffffffffff168273ffffffffffffffffffffffffffffffffffffffff16148015614e515750804710155b15614ede577f000000000000000000000000000000000000000000000000000000000000000073ffffffffffffffffffffffffffffffffffffffff1663d0e30db0826040518263ffffffff1660e01b81526004016000604051808303818588803b158015614ebf5760006000fd5b505af1158015614ed4573d600060003e3d6000fd5b5050505050614ef1565b614ef0823330846155e763ffffffff16565b5b5b5050565b614f058261581263ffffffff16565b614f148161581263ffffffff16565b7f000000000000000000000000000000000000000000000000000000000000000073ffffffffffffffffffffffffffffffffffffffff166312210e8a6040518163ffffffff1660e01b8152600401600060405180830381600087803b158015614f7d5760006000fd5b505af1158015614f92573d600060003e3d6000fd5b505050506000471115614fb057614faf33476159a863ffffffff16565b5b5b5050565b6000826fffffffffffffffffffffffffffffffff168284019150816fffffffffffffffffffffffffffffffff161015151561505b576040517f08c379a000000000000000000000000000000000000000000000000000000000815260040180806020018281038252600c8152602001807f6164642d6f766572666c6f77000000000000000000000000000000000000000081526020015060200191505060405180910390fd5b5b92915050565b6000816fffffffffffffffffffffffffffffffff16141561508257615257565b60007f000000000000000000000000000000000000000000000000000000000000000073ffffffffffffffffffffffffffffffffffffffff1663d3419bf36040518163ffffffff1660e01b815260040160206040518083038186803b1580156150eb5760006000fd5b505afa158015615100573d600060003e3d6000fd5b505050506040513d601f19601f82011682018060405250810190615124919061634b565b73ffffffffffffffffffffffffffffffffffffffff16631fab230e84868860e0015189610100015187600460009054906101000a900463ffffffff166040518763ffffffff1660e01b815260040161518196959493929190616cda565b60206040518083038186803b15801561519a5760006000fd5b505afa1580156151af573d600060003e3d6000fd5b505050506040513d601f19601f820116820180604052508101906151d39190616875565b9050600360109054906101000a90046fffffffffffffffffffffffffffffffff166fffffffffffffffffffffffffffffffff16811015806152145750600081145b1515615255576040517f08c379a000000000000000000000000000000000000000000000000000000000815260040161524c90616f63565b60405180910390fd5b505b50505050565b600061526d612dd463ffffffff16565b90508067ffffffffffffffff16600760005060008473ffffffffffffffffffffffffffffffffffffffff1673ffffffffffffffffffffffffffffffffffffffff16815260200190815260200160002060005060000160009054906101000a900467ffffffffffffffff1667ffffffffffffffff1610156154f05760405180604001604052808267ffffffffffffffff1681526020016154096153fc615343600360009054906101000a900467ffffffffffffffff1667ffffffffffffffff16670de0b6b3a764000061478e90919063ffffffff16565b7f000000000000000000000000000000000000000000000000000000000000000073ffffffffffffffffffffffffffffffffffffffff1663a135ef17886040518263ffffffff1660e01b815260040161539c9190616cb2565b60206040518083038186803b1580156153b55760006000fd5b505afa1580156153ca573d600060003e3d6000fd5b505050506040513d601f19601f820116820180604052508101906153ee9190616875565b6129b490919063ffffffff16565b615b2e909063ffffffff16565b77ffffffffffffffffffffffffffffffffffffffffffffffff16815260200150600760005060008473ffffffffffffffffffffffffffffffffffffffff1673ffffffffffffffffffffffffffffffffffffffff16815260200190815260200160002060005060008201518160000160006101000a81548167ffffffffffffffff021916908367ffffffffffffffff16021790555060208201518160000160086101000a81548177ffffffffffffffffffffffffffffffffffffffffffffffff021916908377ffffffffffffffffffffffffffffffffffffffffffffffff1602179055509050505b505b50565b615546817f00000000000000000000000000000000000000000000000000000000000000007fffffffffffffffffffffffffffffffffffffffffffffffffffffffffffffffff615bd063ffffffff16565b5b50565b60008267ffffffffffffffff1682840391508167ffffffffffffffff16111515156155e0576040517f08c379a000000000000000000000000000000000000000000000000000000000815260040180806020018281038252600d8152602001807f7375622d756e646572666c6f770000000000000000000000000000000000000081526020015060200191505060405180910390fd5b5b92915050565b600060008573ffffffffffffffffffffffffffffffffffffffff166323b872dd60e01b868686604051602401808473ffffffffffffffffffffffffffffffffffffffff1681526020018373ffffffffffffffffffffffffffffffffffffffff1681526020018281526020019350505050604051602081830303815290604052907bffffffffffffffffffffffffffffffffffffffffffffffffffffffff19166020820180517bffffffffffffffffffffffffffffffffffffffffffffffffffffffff83818316178352505050506040518082805190602001908083835b6020831015156156ea57805182525b6020820191506020810190506020830392506156c4565b6001836020036101000a0380198251168184511680821785525050505050509050019150506000604051808303816000865af19150503d806000811461574c576040519150601f19603f3d011682016040523d82523d6000602084013e615751565b606091505b50915091508180156157925750600081511480615791575080806020019051602081101561577f5760006000fd5b81019080805190602001909291905050505b5b1515615809576040517f08c379a00000000000000000000000000000000000000000000000000000000081526004018080602001828103825260038152602001807f535446000000000000000000000000000000000000000000000000000000000081526020015060200191505060405180910390fd5b50505b50505050565b60008173ffffffffffffffffffffffffffffffffffffffff166370a08231306040518263ffffffff1660e01b815260040161584d9190616aff565b60206040518083038186803b1580156158665760006000fd5b505afa15801561587b573d600060003e3d6000fd5b505050506040513d601f19601f8201168201806040525081019061589f9190616875565b905060008111156159a3577f000000000000000000000000000000000000000000000000000000000000000073ffffffffffffffffffffffffffffffffffffffff168273ffffffffffffffffffffffffffffffffffffffff161415615990577f000000000000000000000000000000000000000000000000000000000000000073ffffffffffffffffffffffffffffffffffffffff16632e1a7d4d826040518263ffffffff1660e01b8152600401615957919061727b565b600060405180830381600087803b1580156159725760006000fd5b505af1158015615987573d600060003e3d6000fd5b505050506159a2565b6159a1823383615ddc63ffffffff16565b5b5b505b50565b60008273ffffffffffffffffffffffffffffffffffffffff1682600067ffffffffffffffff811180156159db5760006000fd5b506040519080825280601f01601f191660200182016040528015615a0e5781602001600182028036833780820191505090505b506040518082805190602001908083835b602083101515615a4557805182525b602082019150602081019050602083039250615a1f565b6001836020036101000a03801982511681845116808217855250505050505090500191505060006040518083038185875af1925050503d8060008114615aa7576040519150601f19603f3d011682016040523d82523d6000602084013e615aac565b606091505b50509050801515615b28576040517f08c379a00000000000000000000000000000000000000000000000000000000081526004018080602001828103825260038152602001807f535445000000000000000000000000000000000000000000000000000000000081526020015060200191505060405180910390fd5b505b5050565b6000780100000000000000000000000000000000000000000000000082101515615bc3576040517f08c379a00000000000000000000000000000000000000000000000000000000081526004018080602001828103825260128152602001807f6d6f7265207468616e203139322062697473000000000000000000000000000081526020015060200191505060405180910390fd5b819050615bcb565b919050565b600060008473ffffffffffffffffffffffffffffffffffffffff1663095ea7b360e01b8585604051602401808373ffffffffffffffffffffffffffffffffffffffff16815260200182815260200192505050604051602081830303815290604052907bffffffffffffffffffffffffffffffffffffffffffffffffffffffff19166020820180517bffffffffffffffffffffffffffffffffffffffffffffffffffffffff83818316178352505050506040518082805190602001908083835b602083101515615cb557805182525b602082019150602081019050602083039250615c8f565b6001836020036101000a0380198251168184511680821785525050505050509050019150506000604051808303816000865af19150503d8060008114615d17576040519150601f19603f3d011682016040523d82523d6000602084013e615d1c565b606091505b5091509150818015615d5d5750600081511480615d5c5750808060200190516020811015615d4a5760006000fd5b81019080805190602001909291905050505b5b1515615dd4576040517f08c379a00000000000000000000000000000000000000000000000000000000081526004018080602001828103825260028152602001807f534100000000000000000000000000000000000000000000000000000000000081526020015060200191505060405180910390fd5b50505b505050565b600060008473ffffffffffffffffffffffffffffffffffffffff1663a9059cbb60e01b8585604051602401808373ffffffffffffffffffffffffffffffffffffffff16815260200182815260200192505050604051602081830303815290604052907bffffffffffffffffffffffffffffffffffffffffffffffffffffffff19166020820180517bffffffffffffffffffffffffffffffffffffffffffffffffffffffff83818316178352505050506040518082805190602001908083835b602083101515615ec157805182525b602082019150602081019050602083039250615e9b565b6001836020036101000a0380198251168184511680821785525050505050509050019150506000604051808303816000865af19150503d8060008114615f23576040519150601f19603f3d011682016040523d82523d6000602084013e615f28565b606091505b5091509150818015615f695750600081511480615f685750808060200190516020811015615f565760006000fd5b81019080805190602001909291905050505b5b1515615fe0576040517f08c379a00000000000000000000000000000000000000000000000000000000081526004018080602001828103825260028152602001807f535400000000000000000000000000000000000000000000000000000000000081526020015060200191505060405180910390fd5b50505b505050565b604051806101800160405280600073ffffffffffffffffffffffffffffffffffffffff168152602001600061ffff16815260200160008152602001600081526020016000815260200160006fffffffffffffffffffffffffffffffff168152602001600067ffffffffffffffff168152602001600060020b8152602001600060020b8152602001600063ffffffff168152602001600073ffffffffffffffffffffffffffffffffffffffff168152602001600067ffffffffffffffff1681526020015090565b6040518060a001604052806000815260200160006fffffffffffffffffffffffffffffffff1681526020016000815260200160008152602001600081526020015090565b6040518060400160405280600015158152602001600060020b8152602001509056617585565b600081359050616127816174bc565b5b919050565b60008151905061613c816174bc565b5b919050565b6000600083601f8401121515616156578182fd5b8235905067ffffffffffffffff81111561616e578182fd5b60208301915083602060208302850101111561618a5760006000fd5b5b9250929050565b6000813590506161a1816174e5565b5b919050565b6000815190506161b6816174e5565b5b919050565b6000815190506161cb816174fb565b5b919050565b6000815190506161e081617520565b5b919050565b6000813590506161f581617537565b5b919050565b60008151905061620a81617537565b5b919050565b60008135905061621f8161754f565b5b919050565b6000815190506162348161754f565b5b919050565b60008151905061624981617568565b5b919050565b600060208284031215616260578081fd5b815161626b816174bc565b809150505b92915050565b6000600060006040848603121561628b578182fd5b833567ffffffffffffffff8111156162a1578283fd5b6162ad86828701616142565b9150809450508092505060208401356162c58161754f565b809150505b9250925092565b6000602082840312156162e2578081fd5b8151801515811415156162f3578182fd5b809150505b92915050565b60006020828403121561630f578081fd5b81357fffffffff00000000000000000000000000000000000000000000000000000000811681141515616340578182fd5b809150505b92915050565b60006020828403121561635c578081fd5b8151616367816174bc565b809150505b92915050565b600060208284031215616383578081fd5b813561638e816174bc565b809150505b92915050565b600060006000604084860312156163ae578081fd5b83356163b9816174bc565b80935050602084013567ffffffffffffffff8111156163d6578182fd5b6163e286828701616142565b915080935050809150505b9250925092565b6000600060408385031215616407578182fd5b8235616412816174bc565b809250506020830135616424816174bc565b809150505b9250929050565b6000600060408385031215616443578182fd5b823561644e816174bc565b80925050602083013561646081617568565b809150505b9250929050565b60006020828403121561647d578081fd5b8151616488816174e5565b809150505b92915050565b6000600082840360c08112156164a7578283fd5b60a08112156164b4578283fd5b5082915060a08301356164c68161754f565b809150505b9250929050565b600060a082840312156164e3578081fd5b60405160a0810181811067ffffffffffffffff8211171561650057fe5b8060405250823581526020830135616517816174fb565b80602083015250604083013560408201526060830135606082015260808301356080820152809150505b92915050565b6000600082840360e081121561655b578283fd5b60c0811215616568578283fd5b5082915060c083013561657a8161754f565b809150505b9250929050565b6000600082840361018081121561659b578283fd5b610160808212156165aa578384fd5b6165b381617491565b91506165be85616118565b82526165cc60208601616118565b60208301526165dd604086016161e6565b60408301526165ee60608601616192565b60608301526165ff60808601616192565b608083015260a085013560a083015260c085013560c083015260e085013560e083015261010080860135818401525061012061663c818701616118565b818401525061014080860135818401525081935061665b818601616210565b925050505b9250929050565b600061018080838503121561667a578182fd5b61668381617491565b905061668e8361612d565b815261669c602084016161d1565b60208201526040830151604082015260608301516060820152608083015160808201526166cb60a084016161bc565b60a08201526166dc60c0840161623a565b60c08201526166ed60e084016161a7565b60e08201526101006167008185016161a7565b8183015250610120616713818501616225565b818301525061014061672681850161612d565b818301525061016061673981850161623a565b8183015250809150505b92915050565b60006040828403121561675a578081fd5b6040516040810181811067ffffffffffffffff8211171561677757fe5b80604052508251815260208301516020820152809150505b92915050565b6000602082840312156167a6578081fd5b81356167b1816174fb565b809150505b92915050565b600060006000606084860312156167d1578081fd5b83516167dc816174fb565b8093505060208401519150604084015190505b9250925092565b600060208284031215616807578081fd5b813561681281617520565b809150505b92915050565b6000600060408385031215616830578182fd5b823561683b81617520565b80925050602083013561684d81617568565b809150505b9250929050565b60006020828403121561686a578081fd5b813590505b92915050565b600060208284031215616886578081fd5b815190505b92915050565b6000600060006000608085870312156168a8578182fd5b8451935060208501516168ba816174fb565b8093505060408501519150606085015190505b92959194509250565b60006000604083850312156168e9578182fd5b82519150602083015190505b9250929050565b60006020828403121561690d578081fd5b81356169188161754f565b809150505b92915050565b600060208284031215616934578081fd5b813561693f81617568565b809150505b92915050565b60006020828403121561695b578081fd5b815161696681617568565b809150505b92915050565b6000600060006000600060006000600060006000600060006101808d8f03121561699957898afd5b8c516bffffffffffffffffffffffff8116811415156169b6578a8bfd5b809c50506169c660208e0161612d565b9a506169d460408e0161612d565b99506169e260608e0161612d565b98506169f060808e016161fb565b97506169fe60a08e016161a7565b9650616a0c60c08e016161a7565b9550616a1a60e08e016161bc565b94506101008d015193506101208d01519250616a396101408e016161bc565b9150616a486101608e016161bc565b90505b9295989b509295989b509295989b565b73ffffffffffffffffffffffffffffffffffffffff811682525b5050565b8060020b82525b5050565b6fffffffffffffffffffffffffffffffff811682525b5050565b61ffff811682525b5050565b62ffffff811682525b5050565b63ffffffff811682525b5050565b67ffffffffffffffff811682525b5050565b600060208201905073ffffffffffffffffffffffffffffffffffffffff831682525b92915050565b600060208201905073ffffffffffffffffffffffffffffffffffffffff831682525b92915050565b600060408201905073ffffffffffffffffffffffffffffffffffffffff841682528260208301525b9392505050565b600060608201905073ffffffffffffffffffffffffffffffffffffffff808616835280851660208401525062ffffff831660408301525b949350505050565b600060408201905073ffffffffffffffffffffffffffffffffffffffff841682528260208301525b9392505050565b600060608201905073ffffffffffffffffffffffffffffffffffffffff80861683528460208401528084166040840152505b949350505050565b600060208201905082151582525b92915050565b600060208201905073ffffffffffffffffffffffffffffffffffffffff831682525b92915050565b600060208201905073ffffffffffffffffffffffffffffffffffffffff831682525b92915050565b600060208201905073ffffffffffffffffffffffffffffffffffffffff831682525b92915050565b600060208201905073ffffffffffffffffffffffffffffffffffffffff831682525b92915050565b600060208201905073ffffffffffffffffffffffffffffffffffffffff831682525b92915050565b600060c08201905073ffffffffffffffffffffffffffffffffffffffff881682528660020b60208301528560020b60408301528460020b60608301526fffffffffffffffffffffffffffffffff8416608083015263ffffffff831660a08301525b979650505050505050565b600060608201905073ffffffffffffffffffffffffffffffffffffffff8416825282516020830152602083015160408301525b9392505050565b600060408201905073ffffffffffffffffffffffffffffffffffffffff841682526fffffffffffffffffffffffffffffffff831660208301525b9392505050565b600060408201905073ffffffffffffffffffffffffffffffffffffffff8416825263ffffffff831660208301525b9392505050565b600060408201905073ffffffffffffffffffffffffffffffffffffffff8416825267ffffffffffffffff831660208301525b9392505050565b60006060820190508460020b82528360020b60208301526fffffffffffffffffffffffffffffffff831660408301525b949350505050565b600060208252601660208301527f4c6971756964697479206e6f7420696e2072616e67650000000000000000000060408301526060820190505b919050565b600060208252601c60208301527f4d617820706572696f642077697468647261772065786365656465640000000060408301526060820190505b919050565b600060208252601260208301527f416c72656164792072656769737465726564000000000000000000000000000060408301526060820190505b919050565b600060208252601460208301527f496e63656e7469766520746f74616c206973203000000000000000000000000060408301526060820190505b919050565b600060208252601260208301527f506f736974696f6e20746f6f20736d616c6c000000000000000000000000000060408301526060820190505b919050565b600060208252600b60208301527f506f6f6c2065786973747300000000000000000000000000000000000000000060408301526060820190505b919050565b600060208252600e60208301527f496e76616c696420706f6f6c494400000000000000000000000000000000000060408301526060820190505b919050565b600060208252601260208301527f4e6f20666c617368206c6971756964697479000000000000000000000000000060408301526060820190505b919050565b600060208252600760208301527f496e76616c69640000000000000000000000000000000000000000000000000060408301526060820190505b919050565b60006080820190508251825273ffffffffffffffffffffffffffffffffffffffff602084015116602083015260408301516fffffffffffffffffffffffffffffffff808216604085015280606086015116606085015250505b92915050565b600060a082019050825182526fffffffffffffffffffffffffffffffff60208401511660208301526040830151604083015260608301516060830152608083015160808301525b92915050565b600060c082019050823582526020830135602083015260408301356040830152606083013560608301526080830135608083015260a083013560a08301525b92915050565b6000610160820190506171a3828451616a5b565b60208301516171b56020840182616a5b565b5060408301516171c86040840182616aaa565b5060608301516171db6060840182616a79565b5060808301516171ee6080840182616a79565b5060a083015160a083015260c083015160c083015260e083015160e08301526101008084015181840152506101208084015161722c82850182616a5b565b50506101408084015181840152505b92915050565b60006020820190506fffffffffffffffffffffffffffffffff831682525b92915050565b600060208201905061ffff831682525b92915050565b60006020820190508282525b92915050565b600060408201905083825273ffffffffffffffffffffffffffffffffffffffff831660208301525b9392505050565b60006101a0820190508382526172d6602083018451616a5b565b60208301516172e86040840182616a9e565b506040830151606083015260608301516080830152608083015160a083015260a083015161731960c0840182616a84565b5060c083015161732c60e0840182616ac5565b5060e083015161010061734181850183616a79565b8085015191505061012061735781850183616a79565b8085015191505061014061736d81850183616ab7565b8085015191505061016061738381850183616a5b565b80850151915050617398610180840182616ac5565b505b9392505050565b60006040820190508382526fffffffffffffffffffffffffffffffff831660208301525b9392505050565b60006040820190508382528260208301525b9392505050565b600060408201905083825267ffffffffffffffff831660208301525b9392505050565b600060208201905063ffffffff831682525b92915050565b600060208201905063ffffffff831682525b92915050565b600060208201905067ffffffffffffffff831682525b92915050565b600060408201905067ffffffffffffffff8416825277ffffffffffffffffffffffffffffffffffffffffffffffff831660208301525b9392505050565b6000604051905081810181811067ffffffffffffffff821117156174b157fe5b80604052505b919050565b73ffffffffffffffffffffffffffffffffffffffff8116811415156174e15760006000fd5b5b50565b8060020b811415156174f75760006000fd5b5b50565b6fffffffffffffffffffffffffffffffff81168114151561751c5760006000fd5b5b50565b61ffff8116811415156175335760006000fd5b5b50565b62ffffff81168114151561754b5760006000fd5b5b50565b63ffffffff8116811415156175645760006000fd5b5b50565b67ffffffffffffffff8116811415156175815760006000fd5b5b50565bfea26469706673582212208671d1daa5cf756b467559d6ef92c1120b3582c7c7c6ce0dbb9fae3954dd365164736f6c63430007060033",
  "linkReferences": {},
  "deployedLinkReferences": {}
}