{
  "_format": "hh-sol-artifact-1",
  "contractName": "Rewards",
  "sourceName": "contracts/core/logic/Rewards.sol",
  "abi": [
    {
      "inputs": [
        {
          "components": [
            {
              "internalType": "contract IGovernor",
              "name": "Governor",
              "type": "address"
            },
            {
              "internalType": "contract IProtocolLock",
              "name": "ProtocolLock",
              "type": "address"
            },
            {
              "internalType": "contract IAccounting",
              "name": "Accounting",
              "type": "address"
            },
            {
              "internalType": "address",
              "name": "Weth",
              "type": "address"
            },
            {
              "internalType": "contract INonfungiblePositionManager",
              "name": "NftPositionManager",
              "type": "address"
            },
            {
              "internalType": "contract IUniswapV3Factory",
              "name": "UniswapV3Factory",
              "type": "address"
            }
          ],
          "internalType": "struct IRewards.ConstructorParams",
          "name": "params",
          "type": "tuple"
        }
      ],
      "stateMutability": "nonpayable",
      "type": "constructor"
    },
    {
      "anonymous": false,
      "inputs": [
        {
          "indexed": false,
          "internalType": "uint64",
          "name": "penalty",
          "type": "uint64"
        }
      ],
      "name": "LiquidationPenaltyUpdated",
      "type": "event"
    },
    {
      "anonymous": false,
      "inputs": [
        {
          "indexed": true,
          "internalType": "address",
          "name": "owner",
          "type": "address"
        },
        {
          "indexed": true,
          "internalType": "uint16",
          "name": "poolID",
          "type": "uint16"
        },
        {
          "indexed": true,
          "internalType": "uint256",
          "name": "nftID",
          "type": "uint256"
        },
        {
          "indexed": false,
          "internalType": "int24",
          "name": "tickLower",
          "type": "int24"
        },
        {
          "indexed": false,
          "internalType": "int24",
          "name": "tickUpper",
          "type": "int24"
        },
        {
          "indexed": false,
          "internalType": "uint128",
          "name": "liquidity",
          "type": "uint128"
        }
      ],
      "name": "LiquidityPositionCreated",
      "type": "event"
    },
    {
      "anonymous": false,
      "inputs": [
        {
          "indexed": true,
          "internalType": "uint256",
          "name": "nftID",
          "type": "uint256"
        },
        {
          "indexed": false,
          "internalType": "uint256",
          "name": "amount0",
          "type": "uint256"
        },
        {
          "indexed": false,
          "internalType": "uint256",
          "name": "amount1",
          "type": "uint256"
        }
      ],
      "name": "LiquidityPositionDecreased",
      "type": "event"
    },
    {
      "anonymous": false,
      "inputs": [
        {
          "indexed": true,
          "internalType": "uint256",
          "name": "nftID",
          "type": "uint256"
        },
        {
          "indexed": false,
          "internalType": "uint128",
          "name": "liquidity",
          "type": "uint128"
        }
      ],
      "name": "LiquidityPositionIncreased",
      "type": "event"
    },
    {
      "anonymous": false,
      "inputs": [
        {
          "indexed": true,
          "internalType": "uint256",
          "name": "nftID",
          "type": "uint256"
        },
        {
          "indexed": true,
          "internalType": "address",
          "name": "liquidator",
          "type": "address"
        }
      ],
      "name": "LiquidityPositionLiquidated",
      "type": "event"
    },
    {
      "anonymous": false,
      "inputs": [
        {
          "indexed": true,
          "internalType": "uint256",
          "name": "nftID",
          "type": "uint256"
        },
        {
          "indexed": false,
          "internalType": "uint256",
          "name": "amount0",
          "type": "uint256"
        },
        {
          "indexed": false,
          "internalType": "uint256",
          "name": "amount1",
          "type": "uint256"
        }
      ],
      "name": "LiquidityPositionRemoved",
      "type": "event"
    },
    {
      "anonymous": false,
      "inputs": [
        {
          "indexed": false,
          "internalType": "uint64",
          "name": "decreasePortion",
          "type": "uint64"
        }
      ],
      "name": "MaxCollateralLiquidityDecreasePerPeriodUpdated",
      "type": "event"
    },
    {
      "anonymous": false,
      "inputs": [
        {
          "indexed": false,
          "internalType": "uint128",
          "name": "min",
          "type": "uint128"
        }
      ],
      "name": "MinHueCountPerPositionUpdated",
      "type": "event"
    },
    {
      "anonymous": false,
      "inputs": [
        {
          "indexed": true,
          "internalType": "address",
          "name": "pool",
          "type": "address"
        },
        {
          "indexed": true,
          "internalType": "uint16",
          "name": "poolID",
          "type": "uint16"
        },
        {
          "indexed": false,
          "internalType": "uint64",
          "name": "rewardsPortion",
          "type": "uint64"
        }
      ],
      "name": "PoolAdded",
      "type": "event"
    },
    {
      "anonymous": false,
      "inputs": [
        {
          "indexed": true,
          "internalType": "uint16",
          "name": "poolID",
          "type": "uint16"
        },
        {
          "indexed": false,
          "internalType": "uint64",
          "name": "incentive",
          "type": "uint64"
        }
      ],
      "name": "PoolIncentiveUpdated",
      "type": "event"
    },
    {
      "anonymous": false,
      "inputs": [
        {
          "indexed": false,
          "internalType": "uint256",
          "name": "count",
          "type": "uint256"
        },
        {
          "indexed": false,
          "internalType": "uint64",
          "name": "periods",
          "type": "uint64"
        }
      ],
      "name": "RewardsAccrued",
      "type": "event"
    },
    {
      "anonymous": false,
      "inputs": [
        {
          "indexed": true,
          "internalType": "address",
          "name": "caller",
          "type": "address"
        },
        {
          "indexed": true,
          "internalType": "uint256",
          "name": "nftTokenID",
          "type": "uint256"
        },
        {
          "indexed": false,
          "internalType": "uint256",
          "name": "amount0",
          "type": "uint256"
        },
        {
          "indexed": false,
          "internalType": "uint256",
          "name": "amount1",
          "type": "uint256"
        }
      ],
      "name": "RewardsClaimed",
      "type": "event"
    },
    {
      "anonymous": false,
      "inputs": [
        {
          "indexed": true,
          "internalType": "address",
          "name": "account",
          "type": "address"
        },
        {
          "indexed": true,
          "internalType": "bool",
          "name": "isKickback",
          "type": "bool"
        },
        {
          "indexed": false,
          "internalType": "uint256",
          "name": "tcpRewards",
          "type": "uint256"
        }
      ],
      "name": "RewardsDistributed",
      "type": "event"
    },
    {
      "anonymous": false,
      "inputs": [],
      "name": "Stopped",
      "type": "event"
    },
    {
      "anonymous": false,
      "inputs": [
        {
          "indexed": false,
          "internalType": "uint64",
          "name": "duration",
          "type": "uint64"
        }
      ],
      "name": "TwapDurationUpdated",
      "type": "event"
    },
    {
      "inputs": [],
      "name": "accounting",
      "outputs": [
        {
          "internalType": "contract IAccounting",
          "name": "",
          "type": "address"
        }
      ],
      "stateMutability": "view",
      "type": "function"
    },
    {
      "inputs": [],
      "name": "accrueRewards",
      "outputs": [],
      "stateMutability": "nonpayable",
      "type": "function"
    },
    {
      "inputs": [
        {
          "internalType": "contract IUniswapV3Pool",
          "name": "pool",
          "type": "address"
        },
        {
          "internalType": "uint64",
          "name": "rewardsPortion",
          "type": "uint64"
        }
      ],
      "name": "addIncentivePool",
      "outputs": [],
      "stateMutability": "nonpayable",
      "type": "function"
    },
    {
      "inputs": [
        {
          "internalType": "uint256",
          "name": "nftTokenID",
          "type": "uint256"
        },
        {
          "internalType": "uint32",
          "name": "ui",
          "type": "uint32"
        }
      ],
      "name": "claimRewards",
      "outputs": [
        {
          "internalType": "uint256",
          "name": "amount0",
          "type": "uint256"
        },
        {
          "internalType": "uint256",
          "name": "amount1",
          "type": "uint256"
        }
      ],
      "stateMutability": "nonpayable",
      "type": "function"
    },
    {
      "inputs": [],
      "name": "countPools",
      "outputs": [
        {
          "internalType": "uint16",
          "name": "",
          "type": "uint16"
        }
      ],
      "stateMutability": "view",
      "type": "function"
    },
    {
      "inputs": [
        {
          "components": [
            {
              "internalType": "address",
              "name": "token0",
              "type": "address"
            },
            {
              "internalType": "address",
              "name": "token1",
              "type": "address"
            },
            {
              "internalType": "uint24",
              "name": "fee",
              "type": "uint24"
            },
            {
              "internalType": "int24",
              "name": "tickLower",
              "type": "int24"
            },
            {
              "internalType": "int24",
              "name": "tickUpper",
              "type": "int24"
            },
            {
              "internalType": "uint256",
              "name": "amount0Desired",
              "type": "uint256"
            },
            {
              "internalType": "uint256",
              "name": "amount1Desired",
              "type": "uint256"
            },
            {
              "internalType": "uint256",
              "name": "amount0Min",
              "type": "uint256"
            },
            {
              "internalType": "uint256",
              "name": "amount1Min",
              "type": "uint256"
            },
            {
              "internalType": "address",
              "name": "recipient",
              "type": "address"
            },
            {
              "internalType": "uint256",
              "name": "deadline",
              "type": "uint256"
            }
          ],
          "internalType": "struct INonfungiblePositionManager.MintParams",
          "name": "params",
          "type": "tuple"
        },
        {
          "internalType": "uint32",
          "name": "ui",
          "type": "uint32"
        }
      ],
      "name": "createLiquidityPosition",
      "outputs": [
        {
          "internalType": "uint256",
          "name": "nftTokenID",
          "type": "uint256"
        },
        {
          "internalType": "uint128",
          "name": "liquidity",
          "type": "uint128"
        }
      ],
      "stateMutability": "payable",
      "type": "function"
    },
    {
      "inputs": [],
      "name": "currentPeriod",
      "outputs": [
        {
          "internalType": "uint64",
          "name": "period",
          "type": "uint64"
        }
      ],
      "stateMutability": "view",
      "type": "function"
    },
    {
      "inputs": [
        {
          "components": [
            {
              "internalType": "uint256",
              "name": "tokenId",
              "type": "uint256"
            },
            {
              "internalType": "uint128",
              "name": "liquidity",
              "type": "uint128"
            },
            {
              "internalType": "uint256",
              "name": "amount0Min",
              "type": "uint256"
            },
            {
              "internalType": "uint256",
              "name": "amount1Min",
              "type": "uint256"
            },
            {
              "internalType": "uint256",
              "name": "deadline",
              "type": "uint256"
            }
          ],
          "internalType": "struct INonfungiblePositionManager.DecreaseLiquidityParams",
          "name": "params",
          "type": "tuple"
        },
        {
          "internalType": "uint32",
          "name": "ui",
          "type": "uint32"
        }
      ],
      "name": "decreaseLiquidityPosition",
      "outputs": [
        {
          "internalType": "uint256",
          "name": "amount0",
          "type": "uint256"
        },
        {
          "internalType": "uint256",
          "name": "amount1",
          "type": "uint256"
        }
      ],
      "stateMutability": "nonpayable",
      "type": "function"
    },
    {
      "inputs": [],
      "name": "deployer",
      "outputs": [
        {
          "internalType": "address",
          "name": "",
          "type": "address"
        }
      ],
      "stateMutability": "view",
      "type": "function"
    },
    {
      "inputs": [],
      "name": "firstPeriod",
      "outputs": [
        {
          "internalType": "uint64",
          "name": "",
          "type": "uint64"
        }
      ],
      "stateMutability": "view",
      "type": "function"
    },
    {
      "inputs": [],
      "name": "governor",
      "outputs": [
        {
          "internalType": "contract IGovernor",
          "name": "",
          "type": "address"
        }
      ],
      "stateMutability": "view",
      "type": "function"
    },
    {
      "inputs": [
        {
          "components": [
            {
              "internalType": "uint256",
              "name": "tokenId",
              "type": "uint256"
            },
            {
              "internalType": "uint256",
              "name": "amount0Desired",
              "type": "uint256"
            },
            {
              "internalType": "uint256",
              "name": "amount1Desired",
              "type": "uint256"
            },
            {
              "internalType": "uint256",
              "name": "amount0Min",
              "type": "uint256"
            },
            {
              "internalType": "uint256",
              "name": "amount1Min",
              "type": "uint256"
            },
            {
              "internalType": "uint256",
              "name": "deadline",
              "type": "uint256"
            }
          ],
          "internalType": "struct INonfungiblePositionManager.IncreaseLiquidityParams",
          "name": "params",
          "type": "tuple"
        },
        {
          "internalType": "uint32",
          "name": "ui",
          "type": "uint32"
        }
      ],
      "name": "increaseLiquidityPosition",
      "outputs": [
        {
          "internalType": "uint128",
          "name": "liquidity",
          "type": "uint128"
        }
      ],
      "stateMutability": "payable",
      "type": "function"
    },
    {
      "inputs": [
        {
          "internalType": "contract IUniswapV3Pool",
          "name": "_collateralPool",
          "type": "address"
        },
        {
          "internalType": "contract IUniswapV3Pool",
          "name": "_protocolPool",
          "type": "address"
        }
      ],
      "name": "init",
      "outputs": [],
      "stateMutability": "nonpayable",
      "type": "function"
    },
    {
      "inputs": [],
      "name": "lastPeriodGlobalRewardsAccrued",
      "outputs": [
        {
          "internalType": "uint64",
          "name": "",
          "type": "uint64"
        }
      ],
      "stateMutability": "view",
      "type": "function"
    },
    {
      "inputs": [
        {
          "internalType": "contract IUniswapV3Pool",
          "name": "pool",
          "type": "address"
        },
        {
          "internalType": "uint256[]",
          "name": "nftTokenIDs",
          "type": "uint256[]"
        }
      ],
      "name": "liquidateOutofRangePositions",
      "outputs": [],
      "stateMutability": "nonpayable",
      "type": "function"
    },
    {
      "inputs": [],
      "name": "liquidationPenalty",
      "outputs": [
        {
          "internalType": "uint64",
          "name": "",
          "type": "uint64"
        }
      ],
      "stateMutability": "view",
      "type": "function"
    },
    {
      "inputs": [],
      "name": "maxCollateralLiquidityDecreasePerPeriod",
      "outputs": [
        {
          "internalType": "uint64",
          "name": "",
          "type": "uint64"
        }
      ],
      "stateMutability": "view",
      "type": "function"
    },
    {
      "inputs": [
        {
          "internalType": "contract IUniswapV3Pool",
          "name": "",
          "type": "address"
        }
      ],
      "name": "minCollateralLiquidityByPeriod",
      "outputs": [
        {
          "internalType": "uint64",
          "name": "period",
          "type": "uint64"
        },
        {
          "internalType": "uint192",
          "name": "minLiquidity",
          "type": "uint192"
        }
      ],
      "stateMutability": "view",
      "type": "function"
    },
    {
      "inputs": [],
      "name": "minHueCountPerPosition",
      "outputs": [
        {
          "internalType": "uint128",
          "name": "",
          "type": "uint128"
        }
      ],
      "stateMutability": "view",
      "type": "function"
    },
    {
      "inputs": [],
      "name": "nftPositionManager",
      "outputs": [
        {
          "internalType": "contract INonfungiblePositionManager",
          "name": "",
          "type": "address"
        }
      ],
      "stateMutability": "view",
      "type": "function"
    },
    {
      "inputs": [],
      "name": "periodLength",
      "outputs": [
        {
          "internalType": "uint64",
          "name": "",
          "type": "uint64"
        }
      ],
      "stateMutability": "view",
      "type": "function"
    },
    {
      "inputs": [
        {
          "internalType": "uint16",
          "name": "",
          "type": "uint16"
        }
      ],
      "name": "poolConfigForPoolID",
      "outputs": [
        {
          "internalType": "contract IUniswapV3Pool",
          "name": "pool",
          "type": "address"
        },
        {
          "internalType": "uint64",
          "name": "rewardsPortion",
          "type": "uint64"
        }
      ],
      "stateMutability": "view",
      "type": "function"
    },
    {
      "inputs": [
        {
          "internalType": "contract IUniswapV3Pool",
          "name": "",
          "type": "address"
        }
      ],
      "name": "poolIDForPool",
      "outputs": [
        {
          "internalType": "uint16",
          "name": "",
          "type": "uint16"
        }
      ],
      "stateMutability": "view",
      "type": "function"
    },
    {
      "inputs": [
        {
          "internalType": "uint256",
          "name": "nftTokenID",
          "type": "uint256"
        }
      ],
      "name": "removeKickback",
      "outputs": [],
      "stateMutability": "nonpayable",
      "type": "function"
    },
    {
      "inputs": [
        {
          "components": [
            {
              "internalType": "uint256",
              "name": "tokenId",
              "type": "uint256"
            },
            {
              "internalType": "uint128",
              "name": "liquidity",
              "type": "uint128"
            },
            {
              "internalType": "uint256",
              "name": "amount0Min",
              "type": "uint256"
            },
            {
              "internalType": "uint256",
              "name": "amount1Min",
              "type": "uint256"
            },
            {
              "internalType": "uint256",
              "name": "deadline",
              "type": "uint256"
            }
          ],
          "internalType": "struct INonfungiblePositionManager.DecreaseLiquidityParams",
          "name": "params",
          "type": "tuple"
        }
      ],
      "name": "removeLiquidityPosition",
      "outputs": [
        {
          "internalType": "uint256",
          "name": "amount0",
          "type": "uint256"
        },
        {
          "internalType": "uint256",
          "name": "amount1",
          "type": "uint256"
        }
      ],
      "stateMutability": "nonpayable",
      "type": "function"
    },
    {
      "inputs": [
        {
          "internalType": "uint64",
          "name": "penalty",
          "type": "uint64"
        }
      ],
      "name": "setLiquidationPenalty",
      "outputs": [],
      "stateMutability": "nonpayable",
      "type": "function"
    },
    {
      "inputs": [
        {
          "internalType": "uint64",
          "name": "decreasePortion",
          "type": "uint64"
        }
      ],
      "name": "setMaxCollateralLiquidityDecreasePerPeriod",
      "outputs": [],
      "stateMutability": "nonpayable",
      "type": "function"
    },
    {
      "inputs": [
        {
          "internalType": "uint128",
          "name": "min",
          "type": "uint128"
        }
      ],
      "name": "setMinHueCountPerPosition",
      "outputs": [],
      "stateMutability": "nonpayable",
      "type": "function"
    },
    {
      "inputs": [
        {
          "internalType": "uint32",
          "name": "duration",
          "type": "uint32"
        }
      ],
      "name": "setTwapDuration",
      "outputs": [],
      "stateMutability": "nonpayable",
      "type": "function"
    },
    {
      "inputs": [],
      "name": "stop",
      "outputs": [],
      "stateMutability": "nonpayable",
      "type": "function"
    },
    {
      "inputs": [],
      "name": "stopped",
      "outputs": [
        {
          "internalType": "bool",
          "name": "",
          "type": "bool"
        }
      ],
      "stateMutability": "view",
      "type": "function"
    },
    {
      "inputs": [],
      "name": "twapDuration",
      "outputs": [
        {
          "internalType": "uint32",
          "name": "",
          "type": "uint32"
        }
      ],
      "stateMutability": "view",
      "type": "function"
    },
    {
      "inputs": [],
      "name": "uniswapV3Factory",
      "outputs": [
        {
          "internalType": "contract IUniswapV3Factory",
          "name": "",
          "type": "address"
        }
      ],
      "stateMutability": "view",
      "type": "function"
    },
    {
      "inputs": [
        {
          "internalType": "uint16",
          "name": "poolID",
          "type": "uint16"
        },
        {
          "internalType": "uint64",
          "name": "incentive",
          "type": "uint64"
        }
      ],
      "name": "updatePoolIncentive",
      "outputs": [],
      "stateMutability": "nonpayable",
      "type": "function"
    },
    {
      "inputs": [
        {
          "internalType": "bytes4",
          "name": "",
          "type": "bytes4"
        }
      ],
      "name": "validUpdate",
      "outputs": [
        {
          "internalType": "bool",
          "name": "",
          "type": "bool"
        }
      ],
      "stateMutability": "view",
      "type": "function"
    },
    {
      "inputs": [],
      "name": "weth",
      "outputs": [
        {
          "internalType": "address",
          "name": "",
          "type": "address"
        }
      ],
      "stateMutability": "view",
      "type": "function"
    },
    {
      "stateMutability": "payable",
      "type": "receive"
    }
  ],
  "bytecode": "0x6101806040526001600260005090905567016345785d8a0000600360006101000a81548167ffffffffffffffff021916908367ffffffffffffffff16021790555066d529ae9e860000600360086101000a81548167ffffffffffffffff021916908367ffffffffffffffff160217905550686c6b935b8bbd400000600360106101000a8154816fffffffffffffffffffffffffffffffff02191690836fffffffffffffffffffffffffffffffff160217905550610708600460006101000a81548163ffffffff021916908363ffffffff1602179055506000600460046101000a81548161ffff021916908361ffff160217905550348015620001015760006000fd5b5060405162007ded38038062007ded8339818101604052810190620001279190620006b7565b5b6138405b816000015182602001515b815b8073ffffffffffffffffffffffffffffffffffffffff1660808173ffffffffffffffffffffffffffffffffffffffff1660601b815260140150505b508073ffffffffffffffffffffffffffffffffffffffff1660a08173ffffffffffffffffffffffffffffffffffffffff1660601b815260140150505b505060018167ffffffffffffffff16620001cf620005e560201b60201c565b67ffffffffffffffff16811515620001e357fe5b040367ffffffffffffffff1660e08167ffffffffffffffff1660c01b815260080150508067ffffffffffffffff1660c08167ffffffffffffffff1660c01b815260080150505b50806040015173ffffffffffffffffffffffffffffffffffffffff166101608173ffffffffffffffffffffffffffffffffffffffff1660601b81526014015050806060015173ffffffffffffffffffffffffffffffffffffffff166101008173ffffffffffffffffffffffffffffffffffffffff1660601b81526014015050806080015173ffffffffffffffffffffffffffffffffffffffff166101208173ffffffffffffffffffffffffffffffffffffffff1660601b815260140150508060a0015173ffffffffffffffffffffffffffffffffffffffff166101408173ffffffffffffffffffffffffffffffffffffffff1660601b8152601401505060006040518060c00160405280636161189060e01b7bffffffffffffffffffffffffffffffffffffffffffffffffffffffff19167bffffffffffffffffffffffffffffffffffffffffffffffffffffffff191681526020016328d10de860e01b7bffffffffffffffffffffffffffffffffffffffffffffffffffffffff19167bffffffffffffffffffffffffffffffffffffffffffffffffffffffff1916815260200163c7bd867c60e01b7bffffffffffffffffffffffffffffffffffffffffffffffffffffffff19167bffffffffffffffffffffffffffffffffffffffffffffffffffffffff1916815260200163de8925f560e01b7bffffffffffffffffffffffffffffffffffffffffffffffffffffffff19167bffffffffffffffffffffffffffffffffffffffffffffffffffffffff1916815260200163c433c80a60e01b7bffffffffffffffffffffffffffffffffffffffffffffffffffffffff19167bffffffffffffffffffffffffffffffffffffffffffffffffffffffff19168152602001630907653160e01b7bffffffffffffffffffffffffffffffffffffffffffffffffffffffff19167bffffffffffffffffffffffffffffffffffffffffffffffffffffffff191681526020015090506000600090505b815060068110156200059a5760016001600050600084846006811015156200052357fe5b60200201517bffffffffffffffffffffffffffffffffffffffffffffffffffffffff19167bffffffffffffffffffffffffffffffffffffffffffffffffffffffff1916815260200190815260200160002060006101000a81548160ff0219169083151502179055505b8080600101915050620004ff565b5033600860086101000a81548173ffffffffffffffffffffffffffffffffffffffff021916908373ffffffffffffffffffffffffffffffffffffffff160217905550505b506200078c565b6000620005ff426200060760201b62001df317909060201c565b905080505b90565b600068010000000000000000821015156200068d576040517f08c379a00000000000000000000000000000000000000000000000000000000081526004018080602001828103825260118152602001807f6d6f7265207468616e203634206269747300000000000000000000000000000081526020015060200191505060405180910390fd5b81905062000696565b919050566200078b565b600081519050620006b1816200076e565b5b919050565b600060c08284031215620006c9578081fd5b60405160c081018181106001600160401b0382111715620006e657fe5b80604052508251620006f8816200076e565b8082525060208301516200070c816200076e565b80602083015250604083015162000723816200076e565b806040830152506200073860608401620006a0565b60608201526200074b60808401620006a0565b60808201526200075e60a08401620006a0565b60a0820152809150505b92915050565b6001600160a01b03811681141515620007875760006000fd5b5b50565b5b60805160601c60a05160601c60c05160c01c60e05160c01c6101005160601c6101205160601c6101405160601c6101605160601c6174ec6200090160003980610a9952806113ab52806116fe52806118c852806123725280612ba05280612f0b5280613316528061344852806138e152806139d75280614120528061423c528061432b5280614a9e5280614b4b5280614bc052806152c1525080611073528061156e52508061025b52806118a45280612707528061283e52806129f65280612c2d52806133725280613644528061372a528061476052806147f45280614e0952806154775250806102b0528061144f528061470c5280614ceb5280614d4b5280615828528061587c5250806119895280612d5452806144c8525080611a885280612d7552806144e9525080611e875280612ccd525080610e715280611fa8528061213a52806124fe52806126025280612dce52806131055280613b50528061402c52806143da528061500252506174ec6000f3fe6080604052600436106102535760003560e01c80636161189011610138578063c4e3a63b116100b0578063de8925f51161007f578063f4d8977f11610064578063f4d8977f146108eb578063fbc3a6431461092a578063fbff7efd146109565761030d565b8063de8925f514610897578063f09a4016146108c15761030d565b8063c4e3a63b146107e9578063c7bd867c14610815578063d2ca21151461083f578063d5f394881461086b5761030d565b806381cc8807116101075780639624e83e116100ec5780639624e83e14610767578063bdd266cd14610793578063c433c80a146107bf5761030d565b806381cc8807146106fc578063843978881461073b5761030d565b8063616118901461063b57806361928ecf146106655780636fcdfed6146106a457806375f12b21146106d05761030d565b806323f5589a116101cb5780633e9483721161019a5780634b8295731161017f5780634b829573146105a157806350b40400146105df5780635b5491821461060f5761030d565b80633e9483721461054b5780633fc8cef3146105755761030d565b806323f5589a14610498578063265e8a64146104c457806326d89545146104f557806328d10de8146105215761030d565b80630c340a2411610222578063113cf1ab11610207578063113cf1ab1461040357806315398ae7146104415780631afdbce4146104805761030d565b80630c340a24146103ab5780630dae9f52146103d75761030d565b8063039d10e814610313578063060406181461033d57806307da68f51461036957806309076531146103815761030d565b3661030d575b7f000000000000000000000000000000000000000000000000000000000000000073ffffffffffffffffffffffffffffffffffffffff163373ffffffffffffffffffffffffffffffffffffffff1614806102fe57507f000000000000000000000000000000000000000000000000000000000000000073ffffffffffffffffffffffffffffffffffffffff163373ffffffffffffffffffffffffffffffffffffffff16145b151561030a5760006000fd5b5b005b60006000fd5b3480156103205760006000fd5b5061033b6004803603810190610336919061626a565b610995565b005b34801561034a5760006000fd5b50610353610da3565b6040516103609190617368565b60405180910390f35b3480156103765760006000fd5b5061037f610dbb565b005b34801561038e5760006000fd5b506103a960048036038101906103a49190616853565b610ddb565b005b3480156103b85760006000fd5b506103c1610e6f565b6040516103ce9190616b6a565b60405180910390f35b3480156103e45760006000fd5b506103ed610e93565b6040516103fa9190617368565b60405180910390f35b3480156104105760006000fd5b5061042b600480360381019061042691906161cf565b610ead565b6040516104389190616b2e565b60405180910390f35b34801561044e5760006000fd5b50610469600480360381019061046491906163d1565b610ed2565b6040516104779291906172fc565b60405180910390f35b34801561048d5760006000fd5b50610496610ff1565b005b3480156104a55760006000fd5b506104ae61102e565b6040516104bb9190617368565b60405180910390f35b6104de60048036038101906104d99190616485565b611048565b6040516104ec9291906172d1565b60405180910390f35b3480156105025760006000fd5b5061050b61123d565b6040516105189190617338565b60405180910390f35b34801561052e5760006000fd5b506105496004803603810190610544919061671c565b611253565b005b3480156105585760006000fd5b50610573600480360381019061056e9190616758565b61135d565b005b3480156105825760006000fd5b5061058b61144d565b6040516105989190616a07565b60405180910390f35b3480156105ae5760006000fd5b506105c960048036038101906105c49190616243565b611471565b6040516105d69190617195565b60405180910390f35b6105f960048036038101906105f49190616446565b611497565b6040516106069190617171565b60405180910390f35b34801561061c5760006000fd5b5061062561156c565b6040516106329190616bba565b60405180910390f35b3480156106485760006000fd5b50610663600480360381019061065e919061632f565b611590565b005b3480156106725760006000fd5b5061068d600480360381019061068891906167fb565b6116ad565b60405161069b9291906172fc565b60405180910390f35b3480156106b15760006000fd5b506106ba61181c565b6040516106c79190617195565b60405180910390f35b3480156106dd5760006000fd5b506106e6611830565b6040516106f39190616b2e565b60405180910390f35b3480156107095760006000fd5b50610724600480360381019061071f9190616243565b611843565b604051610732929190617384565b60405180910390f35b3480156107485760006000fd5b506107516118a2565b60405161075e9190616b92565b60405180910390f35b3480156107745760006000fd5b5061077d6118c6565b60405161078a9190616b42565b60405180910390f35b3480156107a05760006000fd5b506107a96118ea565b6040516107b69190617368565b60405180910390f35b3480156107cc5760006000fd5b506107e760048036038101906107e2919061682c565b611904565b005b3480156107f65760006000fd5b506107ff611987565b60405161080c9190617368565b60405180910390f35b3480156108225760006000fd5b5061083d60048036038101906108389190616853565b6119ab565b005b34801561084c5760006000fd5b50610855611a86565b6040516108629190617368565b60405180910390f35b3480156108785760006000fd5b50610881611aaa565b60405161088e9190616a07565b60405180910390f35b3480156108a45760006000fd5b506108bf60048036038101906108ba9190616694565b611ad0565b005b3480156108ce5760006000fd5b506108e960048036038101906108e491906162f3565b611b53565b005b3480156108f85760006000fd5b50610913600480360381019061090e9190616392565b611c4d565b6040516109219291906172fc565b60405180910390f35b3480156109375760006000fd5b50610940611d76565b60405161094d9190617171565b60405180910390f35b3480156109635760006000fd5b5061097e600480360381019061097991906166f5565b611d98565b60405161098c929190616d26565b60405180910390f35b6109a3611e8563ffffffff16565b6109b1611f9863ffffffff16565b6000600660005060008573ffffffffffffffffffffffffffffffffffffffff1673ffffffffffffffffffffffffffffffffffffffff16815260200190815260200160002060009054906101000a900461ffff169050610a15816120c563ffffffff16565b610a1d615f64565b6000848490509050600043905060006040518060400160405280600115158152602001610a4f8a61213663ffffffff16565b60020b8152602001509050610a6261602a565b610a7061228263ffffffff16565b67ffffffffffffffff1681608001909081815260200150506000600090505b84811015610d86577f000000000000000000000000000000000000000000000000000000000000000073ffffffffffffffffffffffffffffffffffffffff1663f34348f18a8a848181101515610ae157fe5b905060200201356040518263ffffffff1660e01b8152600401610b0491906171ab565b6101806040518083038186803b158015610b1e5760006000fd5b505afa158015610b33573d600060003e3d6000fd5b505050506040513d601f19601f82011682018060405250810190610b579190616566565b955085508661ffff16866020015161ffff16141515610b7557610d79565b610b8986846020015161229d63ffffffff16565b15610b9357610d79565b838660800151101515610ba557610d79565b610bb4866122d063ffffffff16565b955085508888828181101515610bc657fe5b905060200201358260000190908181526020015050610bf7826000015160006000896000015161270163ffffffff16565b5050610c52610c45600360089054906101000a900467ffffffffffffffff1667ffffffffffffffff168860a001516fffffffffffffffffffffffffffffffff1661293090919063ffffffff16565b612956909063ffffffff16565b82602001906fffffffffffffffffffffffffffffffff1690816fffffffffffffffffffffffffffffffff1681526020015050610c9482336129f063ffffffff16565b5050610cc382602001518760a001516fffffffffffffffffffffffffffffffff16612adb90919063ffffffff16565b82602001906fffffffffffffffffffffffffffffffff1690816fffffffffffffffffffffffffffffffff1681526020015050610d098287600001516129f063ffffffff16565b5050610d2082600001518785612b8863ffffffff16565b3373ffffffffffffffffffffffffffffffffffffffff168989838181101515610d4557fe5b905060200201357f6ba13b7ae6048936f291047829a5de36835ad46b52453fff379900999074709260405160405180910390a35b8080600101915050610a8f565b505050505050505b5b610d9d612cbe63ffffffff16565b5b505050565b6000610db3612d5063ffffffff16565b905080505b90565b610dc9612dc963ffffffff16565b610dd7612e2963ffffffff16565b5b5b565b610de9612dc963ffffffff16565b6706f05b59d3b200008167ffffffffffffffff16101515610e0a5760006000fd5b80600360086101000a81548167ffffffffffffffff021916908367ffffffffffffffff1602179055507f78244e8e46597270e2f0ae9c6baded3ba10f1b3f03316f89e49bbfeb1c06786881604051610e629190617368565b60405180910390a15b5b50565b7f000000000000000000000000000000000000000000000000000000000000000081565b600860009054906101000a900467ffffffffffffffff1681565b600160005060205280600052604060002060009150909054906101000a900460ff1681565b60006000610ee4611e8563ffffffff16565b610ef2612e7363ffffffff16565b6000610f078460000151612efe63ffffffff16565b9050610f1c816080015161301263ffffffff16565b8060a0015184602001906fffffffffffffffffffffffffffffffff1690816fffffffffffffffffffffffffffffffff1681526020015050610f678482600001516129f063ffffffff16565b8093508194505050610f91846000015182610f8661305a63ffffffff16565b612b8863ffffffff16565b83600001517f1bd2c24817047e88025a4688c0fba3903e750cc05d80857de4201f42ec59bcf28484604051610fc79291906172fc565b60405180910390a282829250925050610fdc56505b5b610feb612cbe63ffffffff16565b5b915091565b610fff611e8563ffffffff16565b61100d612e7363ffffffff16565b61101b61306663ffffffff16565b5b5b61102b612cbe63ffffffff16565b5b565b600360089054906101000a900467ffffffffffffffff1681565b6000600061105a611e8563ffffffff16565b611068611f9863ffffffff16565b6000600660005060007f000000000000000000000000000000000000000000000000000000000000000073ffffffffffffffffffffffffffffffffffffffff16631698ee82886000015189602001518a604001516040518463ffffffff1660e01b81526004016110da93929190616a86565b60206040518083038186803b1580156110f35760006000fd5b505afa158015611108573d600060003e3d6000fd5b505050506040513d601f19601f8201168201806040525081019061112c919061617b565b73ffffffffffffffffffffffffffffffffffffffff1673ffffffffffffffffffffffffffffffffffffffff16815260200190815260200160002060009054906101000a900461ffff169050611186816120c563ffffffff16565b611195856132e063ffffffff16565b80935081945050506111b9838287606001518860800151868961344663ffffffff16565b828161ffff163373ffffffffffffffffffffffffffffffffffffffff167f87c666eb8f5e2d1a47a2af419127c84ea830d86b5f75e12ca3dafa33323d9122886060015189608001518760405161121193929190616d5f565b60405180910390a48282925092505061122656505b5b611235612cbe63ffffffff16565b5b9250929050565b600460009054906101000a900463ffffffff1681565b611261612dc963ffffffff16565b611270826120c563ffffffff16565b61127e61306663ffffffff16565b80600560005060008461ffff1661ffff16815260200190815260200160002060005060000160146101000a81548167ffffffffffffffff021916908367ffffffffffffffff16021790555060006112d961359f63ffffffff16565b11151561131b576040517f08c379a000000000000000000000000000000000000000000000000000000000815260040161131290616e54565b60405180910390fd5b8161ffff167fcf476913af040a8c0a50588902fc980c73de756444694afb625e05906334404f8260405161134f9190617368565b60405180910390a25b5b5050565b61136b611e8563ffffffff16565b611379611f9863ffffffff16565b600061138a82612efe63ffffffff16565b9050600081610120019063ffffffff16908163ffffffff16815260200150507f000000000000000000000000000000000000000000000000000000000000000073ffffffffffffffffffffffffffffffffffffffff1663816aaa2583836040518363ffffffff1660e01b81526004016114049291906171ec565b600060405180830381600087803b15801561141f5760006000fd5b505af1158015611434573d600060003e3d6000fd5b50505050505b5b611449612cbe63ffffffff16565b5b50565b7f000000000000000000000000000000000000000000000000000000000000000081565b600660005060205280600052604060002060009150909054906101000a900461ffff1681565b60006114a7611e8563ffffffff16565b6114b5611f9863ffffffff16565b60006114ca8460000135612efe63ffffffff16565b90508281610120019063ffffffff16908163ffffffff16815260200150506114f78461363c63ffffffff16565b91508150611510818560000135846137f463ffffffff16565b83600001357fcc5b49b47bfd2f61894e4c8977343543aa054a11ae847be904355459ce55dcd9836040516115449190617171565b60405180910390a28191505061155656505b5b611565612cbe63ffffffff16565b5b92915050565b7f000000000000000000000000000000000000000000000000000000000000000081565b61159e612dc963ffffffff16565b6000600660005060008473ffffffffffffffffffffffffffffffffffffffff1673ffffffffffffffffffffffffffffffffffffffff16815260200190815260200160002060009054906101000a900461ffff1661ffff16141515611637576040517f08c379a000000000000000000000000000000000000000000000000000000000815260040161162e90616ed2565b60405180910390fd5b61164561306663ffffffff16565b6116558282613a6c63ffffffff16565b61ffff168273ffffffffffffffffffffffffffffffffffffffff167fb42c51dce17f5346a481b9dd503edc20c8b6de38b22e12b35a5c77c131fb38ac8360405161169f9190617368565b60405180910390a35b5b5050565b600060006116bf611e8563ffffffff16565b6116cd612e7363ffffffff16565b60006116de85612efe63ffffffff16565b90508381610120019063ffffffff16908163ffffffff16815260200150507f000000000000000000000000000000000000000000000000000000000000000073ffffffffffffffffffffffffffffffffffffffff1663816aaa2586836040518363ffffffff1660e01b81526004016117579291906171ec565b600060405180830381600087803b1580156117725760006000fd5b505af1158015611787573d600060003e3d6000fd5b5050505061179f85600060003361270163ffffffff16565b8093508194505050843373ffffffffffffffffffffffffffffffffffffffff167f56253d287efacdb2c4cd76dd03624a4821c1ce721d1152e8f5f5718f6087c9bf85856040516117f09291906172fc565b60405180910390a38282925092505061180556505b5b611814612cbe63ffffffff16565b5b9250929050565b600460049054906101000a900461ffff1681565b600060009054906101000a900460ff1681565b60076000506020528060005260406000206000915090508060000160009054906101000a900467ffffffffffffffff16908060000160089054906101000a900477ffffffffffffffffffffffffffffffffffffffffffffffff16905082565b7f000000000000000000000000000000000000000000000000000000000000000081565b7f000000000000000000000000000000000000000000000000000000000000000081565b600360009054906101000a900467ffffffffffffffff1681565b611912612dc963ffffffff16565b61012c8163ffffffff161015151561192a5760006000fd5b80600460006101000a81548163ffffffff021916908363ffffffff1602179055507f811ba52920ff121eccd59ee98068330fc6736094b9a3fab10ada70fb0cd2f3708160405161197a9190617350565b60405180910390a15b5b50565b7f000000000000000000000000000000000000000000000000000000000000000081565b6119b9612dc963ffffffff16565b80600360006101000a81548167ffffffffffffffff021916908367ffffffffffffffff160217905550600360009054906101000a900467ffffffffffffffff1667ffffffffffffffff166000101515611a125760006000fd5b670de0b6b3a7640000600360009054906101000a900467ffffffffffffffff1667ffffffffffffffff1611151515611a4a5760006000fd5b7f41785a43e8509555b296851de25b00003ca4ca1c572c807cb301d4a0fb9582d481604051611a799190617368565b60405180910390a15b5b50565b7f000000000000000000000000000000000000000000000000000000000000000081565b600860089054906101000a900473ffffffffffffffffffffffffffffffffffffffff1681565b611ade612dc963ffffffff16565b80600360106101000a8154816fffffffffffffffffffffffffffffffff02191690836fffffffffffffffffffffffffffffffff1602179055507f755043e33e8e4c87253e98c56c011cc9905bf88318997b89b3520a54b3c5f17081604051611b469190617171565b60405180910390a15b5b50565b611bb2600860089054906101000a900473ffffffffffffffffffffffffffffffffffffffff1673ffffffffffffffffffffffffffffffffffffffff163373ffffffffffffffffffffffffffffffffffffffff1614613ed663ffffffff16565b600860086101000a81549073ffffffffffffffffffffffffffffffffffffffff0219169055600161ffff16611bef83610bb8613a6c63ffffffff16565b61ffff16141515611c35576040517f08c379a0000000000000000000000000000000000000000000000000000000008152600401611c2c90616f8f565b60405180910390fd5b611c47816103e8613a6c63ffffffff16565b505b5050565b60006000611c5f611e8563ffffffff16565b611c6d611f9863ffffffff16565b6000611c828560000135612efe63ffffffff16565b9050611c97816080015161301263ffffffff16565b8381610120019063ffffffff16908163ffffffff1681526020015050611cd785803603810190611cc791906163d1565b82600001516129f063ffffffff16565b8093508194505050611d14818660000135876020016020810190611cfb9190616694565b611d0961305a63ffffffff16565b613f5263ffffffff16565b84600001357ffafb1711250bf0d3906bfd9c4386a9a5a5fdf9ac1facdc9dfd2addad7d3f72e78484604051611d4a9291906172fc565b60405180910390a281829250925050611d5f56505b5b611d6e612cbe63ffffffff16565b5b9250929050565b600360109054906101000a90046fffffffffffffffffffffffffffffffff1681565b60056000506020528060005260406000206000915090508060000160009054906101000a900473ffffffffffffffffffffffffffffffffffffffff16908060000160149054906101000a900467ffffffffffffffff16905082565b60006801000000000000000082101515611e78576040517f08c379a00000000000000000000000000000000000000000000000000000000081526004018080602001828103825260118152602001807f6d6f7265207468616e203634206269747300000000000000000000000000000081526020015060200191505060405180910390fd5b819050611e80565b919050565b7f000000000000000000000000000000000000000000000000000000000000000073ffffffffffffffffffffffffffffffffffffffff1663e97dcb626040518163ffffffff1660e01b8152600401600060405180830381600087803b158015611eee5760006000fd5b505af1158015611f03573d600060003e3d6000fd5b50505050600260026000505414151515611f88576040517f08c379a000000000000000000000000000000000000000000000000000000000815260040180806020018281038252600d8152602001807f4c50205265656e7472616e63790000000000000000000000000000000000000081526020015060200191505060405180910390fd5b600260026000508190909055505b565b611fa6612e7363ffffffff16565b7f000000000000000000000000000000000000000000000000000000000000000073ffffffffffffffffffffffffffffffffffffffff1663bf86d6906040518163ffffffff1660e01b815260040160206040518083038186803b15801561200d5760006000fd5b505afa158015612022573d600060003e3d6000fd5b505050506040513d60208110156120395760006000fd5b81019080805190602001909291905050501515156120c2576040517f08c379a00000000000000000000000000000000000000000000000000000000081526004018080602001828103825260118152602001807f50726f746f636f6c2073687574646f776e00000000000000000000000000000081526020015060200191505060405180910390fd5b5b565b8061ffff1660001080156120f15750600460049054906101000a900461ffff1661ffff168161ffff1611155b1515612132576040517f08c379a000000000000000000000000000000000000000000000000000000000815260040161212990616f11565b60405180910390fd5b5b50565b60007f000000000000000000000000000000000000000000000000000000000000000073ffffffffffffffffffffffffffffffffffffffff1663d3419bf36040518163ffffffff1660e01b815260040160206040518083038186803b15801561219f5760006000fd5b505afa1580156121b4573d600060003e3d6000fd5b505050506040513d601f19601f820116820180604052508101906121d8919061621c565b73ffffffffffffffffffffffffffffffffffffffff1663fcebd71c83600460009054906101000a900463ffffffff166040518363ffffffff1660e01b8152600401612224929190616cf1565b60206040518083038186803b15801561223d5760006000fd5b505afa158015612252573d600060003e3d6000fd5b505050506040513d601f19601f82011682018060405250810190612276919061636b565b905061227d565b919050565b600061229542611df3909063ffffffff16565b905080505b90565b60008160020b8360e0015160020b131580156122c3575082610100015160020b8260020b125b90506122ca565b92915050565b6122d8615f64565b60006122e86143c263ffffffff16565b905060006122fb826144c163ffffffff16565b905060008460c001519050600060008267ffffffffffffffff161461232e57612329826144c163ffffffff16565b612331565b60005b90508067ffffffffffffffff168367ffffffffffffffff1611151561235c57859450505050506126fc565b61236a61306663ffffffff16565b600061246f877f000000000000000000000000000000000000000000000000000000000000000073ffffffffffffffffffffffffffffffffffffffff16631cef92b1600560005060008c6020015161ffff1661ffff16815260200190815260200160002060005060000160009054906101000a900473ffffffffffffffffffffffffffffffffffffffff166040518263ffffffff1660e01b81526004016124119190616be2565b60406040518083038186803b15801561242a5760006000fd5b505afa15801561243f573d600060003e3d6000fd5b505050506040513d601f19601f820116820180604052508101906124639190616648565b8761454963ffffffff16565b809250819750505060008111156126ea57600073ffffffffffffffffffffffffffffffffffffffff1686610140015173ffffffffffffffffffffffffffffffffffffffff16141580156124d15750600086610160015167ffffffffffffffff16115b156126005760006124fa87610160015167ffffffffffffffff168361293090919063ffffffff16565b90507f000000000000000000000000000000000000000000000000000000000000000073ffffffffffffffffffffffffffffffffffffffff16634d6729f5886101400151836040518363ffffffff1660e01b815260040161255c929190616ac5565b600060405180830381600087803b1580156125775760006000fd5b505af115801561258c573d600060003e3d6000fd5b505050506001151587610140015173ffffffffffffffffffffffffffffffffffffffff167f8079a05488a0f375c08504c3ba8b3a1371f5a192b7a141bc9294ef7ad41389d9836040516125df91906171ab565b60405180910390a36125fa818361468190919063ffffffff16565b91508150505b7f000000000000000000000000000000000000000000000000000000000000000073ffffffffffffffffffffffffffffffffffffffff16634d6729f58760000151836040518363ffffffff1660e01b815260040161265f929190616ac5565b600060405180830381600087803b15801561267a5760006000fd5b505af115801561268f573d600060003e3d6000fd5b5050505060001515866000015173ffffffffffffffffffffffffffffffffffffffff167f8079a05488a0f375c08504c3ba8b3a1371f5a192b7a141bc9294ef7ad41389d9836040516126e191906171ab565b60405180910390a35b85955050505050506126fc5650505050505b919050565b600060007f000000000000000000000000000000000000000000000000000000000000000073ffffffffffffffffffffffffffffffffffffffff1663fc6f78656040518060800160405280898152602001600073ffffffffffffffffffffffffffffffffffffffff1681526020016fffffffffffffffffffffffffffffffff6fffffffffffffffffffffffffffffffff1681526020016fffffffffffffffffffffffffffffffff6fffffffffffffffffffffffffffffffff168152602001506040518263ffffffff1660e01b81526004016127dc9190616fce565b604060405180830381600087803b1580156127f75760006000fd5b505af115801561280c573d600060003e3d6000fd5b505050506040513d601f19601f8201168201806040525081019061283091906167d5565b8092508193505050600060007f000000000000000000000000000000000000000000000000000000000000000073ffffffffffffffffffffffffffffffffffffffff166399fbab88896040518263ffffffff1660e01b815260040161289591906171ab565b6101806040518083038186803b1580156128af5760006000fd5b505afa1580156128c4573d600060003e3d6000fd5b505050506040513d601f19601f820116820180604052508101906128e891906168a1565b505050505050505093509350505061290782888761470a63ffffffff16565b61291881878761470a63ffffffff16565b83839350935050506129275650505b94509492505050565b600061294b8383670de0b6b3a764000061488a63ffffffff16565b905080505b92915050565b6000700100000000000000000000000000000000821015156129e3576040517f08c379a00000000000000000000000000000000000000000000000000000000081526004018080602001828103825260128152602001807f6d6f7265207468616e203132382062697473000000000000000000000000000081526020015060200191505060405180910390fd5b8190506129eb565b919050565b600060007f000000000000000000000000000000000000000000000000000000000000000073ffffffffffffffffffffffffffffffffffffffff16630c49ccbe856040518263ffffffff1660e01b8152600401612a4d919061702d565b604060405180830381600087803b158015612a685760006000fd5b505af1158015612a7d573d600060003e3d6000fd5b505050506040513d601f19601f82011682018060405250810190612aa191906167d5565b8092508193505050612ac78460000151856040015186606001518661270163ffffffff16565b5050808191509150612ad4565b9250929050565b6000826fffffffffffffffffffffffffffffffff168284039150816fffffffffffffffffffffffffffffffff1611151515612b81576040517f08c379a000000000000000000000000000000000000000000000000000000000815260040180806020018281038252600d8152602001807f7375622d756e646572666c6f770000000000000000000000000000000000000081526020015060200191505060405180910390fd5b5b92915050565b612b9e82848460a0015184613f5263ffffffff16565b7f000000000000000000000000000000000000000000000000000000000000000073ffffffffffffffffffffffffffffffffffffffff166326879a4e846040518263ffffffff1660e01b8152600401612bf791906171ab565b600060405180830381600087803b158015612c125760006000fd5b505af1158015612c27573d600060003e3d6000fd5b505050507f000000000000000000000000000000000000000000000000000000000000000073ffffffffffffffffffffffffffffffffffffffff166342966c68846040518263ffffffff1660e01b8152600401612c8491906171ab565b600060405180830381600087803b158015612c9f5760006000fd5b505af1158015612cb4573d600060003e3d6000fd5b505050505b505050565b600160026000508190909055507f000000000000000000000000000000000000000000000000000000000000000073ffffffffffffffffffffffffffffffffffffffff1663e9fad8ee6040518163ffffffff1660e01b8152600401600060405180830381600087803b158015612d345760006000fd5b505af1158015612d49573d600060003e3d6000fd5b505050505b565b60007f00000000000000000000000000000000000000000000000000000000000000007f000000000000000000000000000000000000000000000000000000000000000067ffffffffffffffff16612dac61228263ffffffff16565b67ffffffffffffffff16811515612dbf57fe5b0403905080505b90565b612e267f000000000000000000000000000000000000000000000000000000000000000073ffffffffffffffffffffffffffffffffffffffff163373ffffffffffffffffffffffffffffffffffffffff1614613ed663ffffffff16565b5b565b6001600060006101000a81548160ff0219169083151502179055507f7acc84e34091ae817647a4c49116f5cc07f319078ba80f8f5fde37ea7e25cbd660405160405180910390a15b565b600060009054906101000a900460ff16151515612efb576040517f08c379a00000000000000000000000000000000000000000000000000000000081526004018080602001828103825260138152602001807f436f6e74726163742069732073746f707065640000000000000000000000000081526020015060200191505060405180910390fd5b5b565b612f06615f64565b612fc07f000000000000000000000000000000000000000000000000000000000000000073ffffffffffffffffffffffffffffffffffffffff1663f34348f1846040518263ffffffff1660e01b8152600401612f6291906171ab565b6101806040518083038186803b158015612f7c5760006000fd5b505afa158015612f91573d600060003e3d6000fd5b505050506040513d601f19601f82011682018060405250810190612fb59190616566565b6122d063ffffffff16565b90508050613005816000015173ffffffffffffffffffffffffffffffffffffffff163373ffffffffffffffffffffffffffffffffffffffff1614613ed663ffffffff16565b80905061300d565b919050565b4381101515613056576040517f08c379a000000000000000000000000000000000000000000000000000000000815260040161304d90616f50565b60405180910390fd5b5b50565b61306261606e565b5b90565b600061307661498b63ffffffff16565b9050600860009054906101000a900467ffffffffffffffff1667ffffffffffffffff168167ffffffffffffffff161115156130b157506132de565b6000600860009054906101000a900467ffffffffffffffff1682039050600061384067ffffffffffffffff16620151808115156130ea57fe5b0467ffffffffffffffff166131b38367ffffffffffffffff167f000000000000000000000000000000000000000000000000000000000000000073ffffffffffffffffffffffffffffffffffffffff166318c7de176040518163ffffffff1660e01b8152600401602060405180830381600087803b15801561316c5760006000fd5b505af1158015613181573d600060003e3d6000fd5b505050506040513d601f19601f820116820180604052508101906131a59190616774565b6149b390919063ffffffff16565b8115156131bc57fe5b0490506000600460049054906101000a900461ffff169050600060006131e661359f63ffffffff16565b90506001915081505b8261ffff168261ffff16111515613275576132678261325b600560005060008661ffff1661ffff16815260200190815260200160002060005060000160149054906101000a900467ffffffffffffffff1667ffffffffffffffff16848861488a9092919063ffffffff16565b87614a5163ffffffff16565b5b81806001019250506131ef565b85600860006101000a81548167ffffffffffffffff021916908367ffffffffffffffff1602179055507f095a67d1e9698fe0eebf9cff79a22f6423cebcb4e386a0bdd7e12330d86381ed84866040516132cf929190617315565b60405180910390a15050505050505b565b600060006132fc83600001518460a00151614ce963ffffffff16565b61331483602001518460c00151614ce963ffffffff16565b7f000000000000000000000000000000000000000000000000000000000000000083610120019073ffffffffffffffffffffffffffffffffffffffff16908173ffffffffffffffffffffffffffffffffffffffff16815260200150507f000000000000000000000000000000000000000000000000000000000000000073ffffffffffffffffffffffffffffffffffffffff166388316456846040518263ffffffff1660e01b81526004016133c991906170bf565b608060405180830381600087803b1580156133e45760006000fd5b505af11580156133f9573d600060003e3d6000fd5b505050506040513d601f19601f8201168201806040525081019061341d9190616790565b905050809250819350505061344083600001518460200151614de963ffffffff16565b5b915091565b7f000000000000000000000000000000000000000000000000000000000000000073ffffffffffffffffffffffffffffffffffffffff166375ea13ca33886040518363ffffffff1660e01b81526004016134a1929190616a57565b600060405180830381600087803b1580156134bc5760006000fd5b505af11580156134d1573d600060003e3d6000fd5b505050506134dd615f64565b33816000019073ffffffffffffffffffffffffffffffffffffffff16908173ffffffffffffffffffffffffffffffffffffffff168152602001505085816020019061ffff16908161ffff1681526020015050848160e0019060020b908160020b815260200150508381610100019060020b908160020b815260200150508181610120019063ffffffff16908163ffffffff1681526020015050613595613588826122d063ffffffff16565b88856137f463ffffffff16565b505b505050505050565b60006000600190505b600460049054906101000a900461ffff1661ffff168161ffff161115156136305761361e600560005060008361ffff1661ffff16815260200190815260200160002060005060000160149054906101000a900467ffffffffffffffff1667ffffffffffffffff1683614ea890919063ffffffff16565b915081505b80806001019150506135a8565b50809050613639565b90565b6000600060007f000000000000000000000000000000000000000000000000000000000000000073ffffffffffffffffffffffffffffffffffffffff166399fbab8885600001356040518263ffffffff1660e01b815260040161369f91906171ab565b6101806040518083038186803b1580156136b95760006000fd5b505afa1580156136ce573d600060003e3d6000fd5b505050506040513d601f19601f820116820180604052508101906136f291906168a1565b5050505050505050935093505050613714828560200135614ce963ffffffff16565b613728818560400135614ce963ffffffff16565b7f000000000000000000000000000000000000000000000000000000000000000073ffffffffffffffffffffffffffffffffffffffff1663219f5d17856040518263ffffffff1660e01b8152600401613781919061707a565b606060405180830381600087803b15801561379c5760006000fd5b505af11580156137b1573d600060003e3d6000fd5b505050506040513d601f19601f820116820180604052508101906137d591906166bb565b905050809350506137ec8282614de963ffffffff16565b50505b919050565b600060056000506000856020015161ffff1661ffff16815260200190815260200160002060005060000160009054906101000a900473ffffffffffffffffffffffffffffffffffffffff16905060006138528261213663ffffffff16565b9050613864858261229d63ffffffff16565b15156138a5576040517f08c379a000000000000000000000000000000000000000000000000000000000815260040161389c90616d97565b60405180910390fd5b6138df8582846138d4878a60a001516fffffffffffffffffffffffffffffffff16614f3190919063ffffffff16565b614fde63ffffffff16565b7f000000000000000000000000000000000000000000000000000000000000000073ffffffffffffffffffffffffffffffffffffffff16631428561d83856040518363ffffffff1660e01b815260040161393a929190616cb0565b600060405180830381600087803b1580156139555760006000fd5b505af115801561396a573d600060003e3d6000fd5b50505050670de0b6b3a7640000600360009054906101000a900467ffffffffffffffff1667ffffffffffffffff161080156139b15750600161ffff16856020015161ffff16145b156139c6576139c5826151d963ffffffff16565b5b4385608001909081815260200150507f000000000000000000000000000000000000000000000000000000000000000073ffffffffffffffffffffffffffffffffffffffff1663816aaa2585876040518363ffffffff1660e01b8152600401613a309291906171ec565b600060405180830381600087803b158015613a4b5760006000fd5b505af1158015613a60573d600060003e3d6000fd5b5050505050505b505050565b60006000600660005060008573ffffffffffffffffffffffffffffffffffffffff1673ffffffffffffffffffffffffffffffffffffffff16815260200190815260200160002060009054906101000a900461ffff1661ffff16141515613b07576040517f08c379a0000000000000000000000000000000000000000000000000000000008152600401613afe90616e15565b60405180910390fd5b61ffff61ffff166004600481819054906101000a900461ffff1660010191906101000a81548161ffff021916908361ffff160217905561ffff16101515613b4e5760006000fd5b7f000000000000000000000000000000000000000000000000000000000000000073ffffffffffffffffffffffffffffffffffffffff1663d3419bf36040518163ffffffff1660e01b815260040160206040518083038186803b158015613bb55760006000fd5b505afa158015613bca573d600060003e3d6000fd5b505050506040513d601f19601f82011682018060405250810190613bee919061621c565b73ffffffffffffffffffffffffffffffffffffffff1663407431f7846040518263ffffffff1660e01b8152600401613c269190616be2565b600060405180830381600087803b158015613c415760006000fd5b505af1158015613c56573d600060003e3d6000fd5b50505050600460049054906101000a900461ffff169050805060405180604001604052808473ffffffffffffffffffffffffffffffffffffffff1681526020018367ffffffffffffffff16815260200150600560005060008361ffff1661ffff16815260200190815260200160002060005060008201518160000160006101000a81548173ffffffffffffffffffffffffffffffffffffffff021916908373ffffffffffffffffffffffffffffffffffffffff16021790555060208201518160000160146101000a81548167ffffffffffffffff021916908367ffffffffffffffff16021790555090505080600660005060008573ffffffffffffffffffffffffffffffffffffffff1673ffffffffffffffffffffffffffffffffffffffff16815260200190815260200160002060006101000a81548161ffff021916908361ffff160217905550613e2c8373ffffffffffffffffffffffffffffffffffffffff16630dfe16816040518163ffffffff1660e01b815260040160206040518083038186803b158015613de85760006000fd5b505afa158015613dfd573d600060003e3d6000fd5b505050506040513d601f19601f82011682018060405250810190613e21919061617b565b61547163ffffffff16565b613eba8373ffffffffffffffffffffffffffffffffffffffff1663d21220a76040518163ffffffff1660e01b815260040160206040518083038186803b158015613e765760006000fd5b505afa158015613e8b573d600060003e3d6000fd5b505050506040513d601f19601f82011682018060405250810190613eaf919061617b565b61547163ffffffff16565b613ec861306663ffffffff16565b809050613ed0565b92915050565b801515613f4e576040517f08c379a000000000000000000000000000000000000000000000000000000000815260040180806020018281038252600e8152602001807f4e6f7420417574686f72697a656400000000000000000000000000000000000081526020015060200191505060405180910390fd5b5b50565b600060056000506000866020015161ffff1661ffff16815260200190815260200160002060005060000160009054906101000a900473ffffffffffffffffffffffffffffffffffffffff16905060008260000151613fbe57613fb98261213663ffffffff16565b613fc4565b82602001515b90506000670de0b6b3a7640000600360009054906101000a900467ffffffffffffffff1667ffffffffffffffff1610801561400b5750600161ffff16876020015161ffff16145b80156140235750614022878361229d63ffffffff16565b5b80156140cc57507f000000000000000000000000000000000000000000000000000000000000000073ffffffffffffffffffffffffffffffffffffffff1663bf86d6906040518163ffffffff1660e01b815260040160206040518083038186803b1580156140915760006000fd5b505afa1580156140a6573d600060003e3d6000fd5b505050506040513d601f19601f820116820180604052508101906140ca91906161a2565b155b90506141088783856140fd898c60a001516fffffffffffffffffffffffffffffffff16612adb90919063ffffffff16565b614fde63ffffffff16565b801561411e5761411d836151d963ffffffff16565b5b7f000000000000000000000000000000000000000000000000000000000000000073ffffffffffffffffffffffffffffffffffffffff1663530c1ccb84876040518363ffffffff1660e01b8152600401614179929190616cb0565b600060405180830381600087803b1580156141945760006000fd5b505af11580156141a9573d600060003e3d6000fd5b50505050801561432957600760005060008473ffffffffffffffffffffffffffffffffffffffff1673ffffffffffffffffffffffffffffffffffffffff16815260200190815260200160002060005060000160089054906101000a900477ffffffffffffffffffffffffffffffffffffffffffffffff1677ffffffffffffffffffffffffffffffffffffffffffffffff167f000000000000000000000000000000000000000000000000000000000000000073ffffffffffffffffffffffffffffffffffffffff1663a135ef17856040518263ffffffff1660e01b81526004016142939190616be2565b60206040518083038186803b1580156142ac5760006000fd5b505afa1580156142c1573d600060003e3d6000fd5b505050506040513d601f19601f820116820180604052508101906142e59190616774565b10151515614328576040517f08c379a000000000000000000000000000000000000000000000000000000000815260040161431f90616dd6565b60405180910390fd5b5b7f000000000000000000000000000000000000000000000000000000000000000073ffffffffffffffffffffffffffffffffffffffff1663816aaa2587896040518363ffffffff1660e01b81526004016143849291906171ec565b600060405180830381600087803b15801561439f5760006000fd5b505af11580156143b4573d600060003e3d6000fd5b505050505050505b50505050565b600060006143d461228263ffffffff16565b905060007f000000000000000000000000000000000000000000000000000000000000000073ffffffffffffffffffffffffffffffffffffffff1663585690816040518163ffffffff1660e01b815260040160206040518083038186803b15801561443f5760006000fd5b505afa158015614454573d600060003e3d6000fd5b505050506040513d601f19601f82011682018060405250810190614478919061687a565b90508067ffffffffffffffff1660001080156144a757508167ffffffffffffffff168167ffffffffffffffff16105b6144b157816144b3565b805b925050506144be5650505b90565b600061453f7f00000000000000000000000000000000000000000000000000000000000000007f000000000000000000000000000000000000000000000000000000000000000067ffffffffffffffff168467ffffffffffffffff1681151561452657fe5b0467ffffffffffffffff166154c690919063ffffffff16565b905080505b919050565b614551615f64565b6000849150815060008260a001516fffffffffffffffffffffffffffffffff1611156146255761462061459b8360c001518567ffffffffffffffff166154c690919063ffffffff16565b67ffffffffffffffff1661384067ffffffffffffffff166146116145d08660600151896000015161468190919063ffffffff16565b6145eb87604001518a6020015161468190919063ffffffff16565b8760a001516fffffffffffffffffffffffffffffffff1661488a9092919063ffffffff16565b61488a9092919063ffffffff16565b905080505b8360000151826060019090818152602001505083602001518260400190908181526020015050828260c0019067ffffffffffffffff16908167ffffffffffffffff1681526020015050818191509150614679565b935093915050565b60008282840391508111151515614703576040517f08c379a000000000000000000000000000000000000000000000000000000000815260040180806020018281038252600d8152602001807f7375622d756e646572666c6f770000000000000000000000000000000000000081526020015060200191505060405180910390fd5b5b92915050565b7f000000000000000000000000000000000000000000000000000000000000000073ffffffffffffffffffffffffffffffffffffffff168373ffffffffffffffffffffffffffffffffffffffff1614156147f2577f000000000000000000000000000000000000000000000000000000000000000073ffffffffffffffffffffffffffffffffffffffff166349404b7c83836040518363ffffffff1660e01b81526004016147b99291906171bd565b600060405180830381600087803b1580156147d45760006000fd5b505af11580156147e9573d600060003e3d6000fd5b50505050614884565b7f000000000000000000000000000000000000000000000000000000000000000073ffffffffffffffffffffffffffffffffffffffff1663df2ab5bb8484846040518463ffffffff1660e01b815260040161484f93929190616af4565b600060405180830381600087803b15801561486a5760006000fd5b505af115801561487f573d600060003e3d6000fd5b505050505b5b505050565b60006000600060001985870985870292508281108382030391505060008114156148cd576000841115156148be5760006000fd5b83820492508292505050614984565b80841115156148dc5760006000fd5b60008486880990508281118203915080830392506000858660000316905080860495508084049350600181826000030401905080830284179350835060006002876003021890508087026002038102905080508087026002038102905080508087026002038102905080508087026002038102905080508087026002038102905080508087026002038102905080508085029550855085955050505050506149845650505050505b9392505050565b60006149a961499e6143c263ffffffff16565b6144c163ffffffff16565b90506149b0565b90565b600060008214806149d3575082828385029250828115156149d057fe5b04145b1515614a4a576040517f08c379a000000000000000000000000000000000000000000000000000000000815260040180806020018281038252600c8152602001807f6d756c2d6f766572666c6f77000000000000000000000000000000000000000081526020015060200191505060405180910390fd5b5b92915050565b6000600560005060008561ffff1661ffff16815260200190815260200160002060005060000160009054906101000a900473ffffffffffffffffffffffffffffffffffffffff16905060007f000000000000000000000000000000000000000000000000000000000000000073ffffffffffffffffffffffffffffffffffffffff16631cef92b1836040518263ffffffff1660e01b8152600401614af59190616be2565b60406040518083038186803b158015614b0e5760006000fd5b505afa158015614b23573d600060003e3d6000fd5b505050506040513d601f19601f82011682018060405250810190614b479190616648565b90507f000000000000000000000000000000000000000000000000000000000000000073ffffffffffffffffffffffffffffffffffffffff166396122a5c836040518060400160405280614ba8898760000151614ea890919063ffffffff16565b8152602001614c8a614c778967ffffffffffffffff167f000000000000000000000000000000000000000000000000000000000000000073ffffffffffffffffffffffffffffffffffffffff1663a135ef178b6040518263ffffffff1660e01b8152600401614c179190616be2565b60206040518083038186803b158015614c305760006000fd5b505afa158015614c45573d600060003e3d6000fd5b505050506040513d601f19601f82011682018060405250810190614c699190616774565b6149b390919063ffffffff16565b8760200151614ea890919063ffffffff16565b8152602001506040518363ffffffff1660e01b8152600401614cad929190616c76565b600060405180830381600087803b158015614cc85760006000fd5b505af1158015614cdd573d600060003e3d6000fd5b5050505050505b505050565b7f000000000000000000000000000000000000000000000000000000000000000073ffffffffffffffffffffffffffffffffffffffff168273ffffffffffffffffffffffffffffffffffffffff16148015614d445750804710155b15614dd1577f000000000000000000000000000000000000000000000000000000000000000073ffffffffffffffffffffffffffffffffffffffff1663d0e30db0826040518263ffffffff1660e01b81526004016000604051808303818588803b158015614db25760006000fd5b505af1158015614dc7573d600060003e3d6000fd5b5050505050614de4565b614de38233308461556363ffffffff16565b5b5b5050565b614df88261578e63ffffffff16565b614e078161578e63ffffffff16565b7f000000000000000000000000000000000000000000000000000000000000000073ffffffffffffffffffffffffffffffffffffffff166312210e8a6040518163ffffffff1660e01b8152600401600060405180830381600087803b158015614e705760006000fd5b505af1158015614e85573d600060003e3d6000fd5b505050506000471115614ea357614ea2334761592463ffffffff16565b5b5b5050565b60008282840191508110151515614f2a576040517f08c379a000000000000000000000000000000000000000000000000000000000815260040180806020018281038252600c8152602001807f6164642d6f766572666c6f77000000000000000000000000000000000000000081526020015060200191505060405180910390fd5b5b92915050565b6000826fffffffffffffffffffffffffffffffff168284019150816fffffffffffffffffffffffffffffffff1610151515614fd7576040517f08c379a000000000000000000000000000000000000000000000000000000000815260040180806020018281038252600c8152602001807f6164642d6f766572666c6f77000000000000000000000000000000000000000081526020015060200191505060405180910390fd5b5b92915050565b6000816fffffffffffffffffffffffffffffffff161415614ffe576151d3565b60007f000000000000000000000000000000000000000000000000000000000000000073ffffffffffffffffffffffffffffffffffffffff1663d3419bf36040518163ffffffff1660e01b815260040160206040518083038186803b1580156150675760006000fd5b505afa15801561507c573d600060003e3d6000fd5b505050506040513d601f19601f820116820180604052508101906150a0919061621c565b73ffffffffffffffffffffffffffffffffffffffff16631fab230e84868860e0015189610100015187600460009054906101000a900463ffffffff166040518763ffffffff1660e01b81526004016150fd96959493929190616c0a565b60206040518083038186803b1580156151165760006000fd5b505afa15801561512b573d600060003e3d6000fd5b505050506040513d601f19601f8201168201806040525081019061514f9190616774565b9050600360109054906101000a90046fffffffffffffffffffffffffffffffff166fffffffffffffffffffffffffffffffff16811015806151905750600081145b15156151d1576040517f08c379a00000000000000000000000000000000000000000000000000000000081526004016151c890616e93565b60405180910390fd5b505b50505050565b60006151e9612d5063ffffffff16565b90508067ffffffffffffffff16600760005060008473ffffffffffffffffffffffffffffffffffffffff1673ffffffffffffffffffffffffffffffffffffffff16815260200190815260200160002060005060000160009054906101000a900467ffffffffffffffff1667ffffffffffffffff16101561546c5760405180604001604052808267ffffffffffffffff1681526020016153856153786152bf600360009054906101000a900467ffffffffffffffff1667ffffffffffffffff16670de0b6b3a764000061468190919063ffffffff16565b7f000000000000000000000000000000000000000000000000000000000000000073ffffffffffffffffffffffffffffffffffffffff1663a135ef17886040518263ffffffff1660e01b81526004016153189190616be2565b60206040518083038186803b1580156153315760006000fd5b505afa158015615346573d600060003e3d6000fd5b505050506040513d601f19601f8201168201806040525081019061536a9190616774565b61293090919063ffffffff16565b615aaa909063ffffffff16565b77ffffffffffffffffffffffffffffffffffffffffffffffff16815260200150600760005060008473ffffffffffffffffffffffffffffffffffffffff1673ffffffffffffffffffffffffffffffffffffffff16815260200190815260200160002060005060008201518160000160006101000a81548167ffffffffffffffff021916908367ffffffffffffffff16021790555060208201518160000160086101000a81548177ffffffffffffffffffffffffffffffffffffffffffffffff021916908377ffffffffffffffffffffffffffffffffffffffffffffffff1602179055509050505b505b50565b6154c2817f00000000000000000000000000000000000000000000000000000000000000007fffffffffffffffffffffffffffffffffffffffffffffffffffffffffffffffff615b4c63ffffffff16565b5b50565b60008267ffffffffffffffff1682840391508167ffffffffffffffff161115151561555c576040517f08c379a000000000000000000000000000000000000000000000000000000000815260040180806020018281038252600d8152602001807f7375622d756e646572666c6f770000000000000000000000000000000000000081526020015060200191505060405180910390fd5b5b92915050565b600060008573ffffffffffffffffffffffffffffffffffffffff166323b872dd60e01b868686604051602401808473ffffffffffffffffffffffffffffffffffffffff1681526020018373ffffffffffffffffffffffffffffffffffffffff1681526020018281526020019350505050604051602081830303815290604052907bffffffffffffffffffffffffffffffffffffffffffffffffffffffff19166020820180517bffffffffffffffffffffffffffffffffffffffffffffffffffffffff83818316178352505050506040518082805190602001908083835b60208310151561566657805182525b602082019150602081019050602083039250615640565b6001836020036101000a0380198251168184511680821785525050505050509050019150506000604051808303816000865af19150503d80600081146156c8576040519150601f19603f3d011682016040523d82523d6000602084013e6156cd565b606091505b509150915081801561570e575060008151148061570d57508080602001905160208110156156fb5760006000fd5b81019080805190602001909291905050505b5b1515615785576040517f08c379a00000000000000000000000000000000000000000000000000000000081526004018080602001828103825260038152602001807f535446000000000000000000000000000000000000000000000000000000000081526020015060200191505060405180910390fd5b50505b50505050565b60008173ffffffffffffffffffffffffffffffffffffffff166370a08231306040518263ffffffff1660e01b81526004016157c99190616a2f565b60206040518083038186803b1580156157e25760006000fd5b505afa1580156157f7573d600060003e3d6000fd5b505050506040513d601f19601f8201168201806040525081019061581b9190616774565b9050600081111561591f577f000000000000000000000000000000000000000000000000000000000000000073ffffffffffffffffffffffffffffffffffffffff168273ffffffffffffffffffffffffffffffffffffffff16141561590c577f000000000000000000000000000000000000000000000000000000000000000073ffffffffffffffffffffffffffffffffffffffff16632e1a7d4d826040518263ffffffff1660e01b81526004016158d391906171ab565b600060405180830381600087803b1580156158ee5760006000fd5b505af1158015615903573d600060003e3d6000fd5b5050505061591e565b61591d823383615d5863ffffffff16565b5b5b505b50565b60008273ffffffffffffffffffffffffffffffffffffffff1682600067ffffffffffffffff811180156159575760006000fd5b506040519080825280601f01601f19166020018201604052801561598a5781602001600182028036833780820191505090505b506040518082805190602001908083835b6020831015156159c157805182525b60208201915060208101905060208303925061599b565b6001836020036101000a03801982511681845116808217855250505050505090500191505060006040518083038185875af1925050503d8060008114615a23576040519150601f19603f3d011682016040523d82523d6000602084013e615a28565b606091505b50509050801515615aa4576040517f08c379a00000000000000000000000000000000000000000000000000000000081526004018080602001828103825260038152602001807f535445000000000000000000000000000000000000000000000000000000000081526020015060200191505060405180910390fd5b505b5050565b6000780100000000000000000000000000000000000000000000000082101515615b3f576040517f08c379a00000000000000000000000000000000000000000000000000000000081526004018080602001828103825260128152602001807f6d6f7265207468616e203139322062697473000000000000000000000000000081526020015060200191505060405180910390fd5b819050615b47565b919050565b600060008473ffffffffffffffffffffffffffffffffffffffff1663095ea7b360e01b8585604051602401808373ffffffffffffffffffffffffffffffffffffffff16815260200182815260200192505050604051602081830303815290604052907bffffffffffffffffffffffffffffffffffffffffffffffffffffffff19166020820180517bffffffffffffffffffffffffffffffffffffffffffffffffffffffff83818316178352505050506040518082805190602001908083835b602083101515615c3157805182525b602082019150602081019050602083039250615c0b565b6001836020036101000a0380198251168184511680821785525050505050509050019150506000604051808303816000865af19150503d8060008114615c93576040519150601f19603f3d011682016040523d82523d6000602084013e615c98565b606091505b5091509150818015615cd95750600081511480615cd85750808060200190516020811015615cc65760006000fd5b81019080805190602001909291905050505b5b1515615d50576040517f08c379a00000000000000000000000000000000000000000000000000000000081526004018080602001828103825260028152602001807f534100000000000000000000000000000000000000000000000000000000000081526020015060200191505060405180910390fd5b50505b505050565b600060008473ffffffffffffffffffffffffffffffffffffffff1663a9059cbb60e01b8585604051602401808373ffffffffffffffffffffffffffffffffffffffff16815260200182815260200192505050604051602081830303815290604052907bffffffffffffffffffffffffffffffffffffffffffffffffffffffff19166020820180517bffffffffffffffffffffffffffffffffffffffffffffffffffffffff83818316178352505050506040518082805190602001908083835b602083101515615e3d57805182525b602082019150602081019050602083039250615e17565b6001836020036101000a0380198251168184511680821785525050505050509050019150506000604051808303816000865af19150503d8060008114615e9f576040519150601f19603f3d011682016040523d82523d6000602084013e615ea4565b606091505b5091509150818015615ee55750600081511480615ee45750808060200190516020811015615ed25760006000fd5b81019080805190602001909291905050505b5b1515615f5c576040517f08c379a00000000000000000000000000000000000000000000000000000000081526004018080602001828103825260028152602001807f535400000000000000000000000000000000000000000000000000000000000081526020015060200191505060405180910390fd5b50505b505050565b604051806101800160405280600073ffffffffffffffffffffffffffffffffffffffff168152602001600061ffff16815260200160008152602001600081526020016000815260200160006fffffffffffffffffffffffffffffffff168152602001600067ffffffffffffffff168152602001600060020b8152602001600060020b8152602001600063ffffffff168152602001600073ffffffffffffffffffffffffffffffffffffffff168152602001600067ffffffffffffffff1681526020015090565b6040518060a001604052806000815260200160006fffffffffffffffffffffffffffffffff1681526020016000815260200160008152602001600081526020015090565b6040518060400160405280600015158152602001600060020b81526020015090566174b5565b6000813590506160a3816173ec565b5b919050565b6000815190506160b8816173ec565b5b919050565b6000813590506160cd81617415565b5b919050565b6000815190506160e281617415565b5b919050565b6000815190506160f78161742b565b5b919050565b60008151905061610c81617450565b5b919050565b60008135905061612181617467565b5b919050565b60008151905061613681617467565b5b919050565b60008135905061614b8161747f565b5b919050565b6000815190506161608161747f565b5b919050565b60008151905061617581617498565b5b919050565b60006020828403121561618c578081fd5b8151616197816173ec565b809150505b92915050565b6000602082840312156161b3578081fd5b8151801515811415156161c4578182fd5b809150505b92915050565b6000602082840312156161e0578081fd5b81357fffffffff00000000000000000000000000000000000000000000000000000000811681141515616211578182fd5b809150505b92915050565b60006020828403121561622d578081fd5b8151616238816173ec565b809150505b92915050565b600060208284031215616254578081fd5b813561625f816173ec565b809150505b92915050565b6000600060006040848603121561627f578182fd5b833561628a816173ec565b80935050602084013567ffffffffffffffff808211156162a8578384fd5b818601915086601f83011215156162bd578384fd5b8135818111156162cb578485fd5b8760206020830285010111156162df578485fd5b6020830194508093505050505b9250925092565b6000600060408385031215616306578182fd5b8235616311816173ec565b809250506020830135616323816173ec565b809150505b9250929050565b6000600060408385031215616342578182fd5b823561634d816173ec565b80925050602083013561635f81617498565b809150505b9250929050565b60006020828403121561637c578081fd5b815161638781617415565b809150505b92915050565b6000600082840360c08112156163a6578283fd5b60a08112156163b3578283fd5b5082915060a08301356163c58161747f565b809150505b9250929050565b600060a082840312156163e2578081fd5b60405160a0810181811067ffffffffffffffff821117156163ff57fe5b80604052508235815260208301356164168161742b565b80602083015250604083013560408201526060830135606082015260808301356080820152809150505b92915050565b6000600082840360e081121561645a578283fd5b60c0811215616467578283fd5b5082915060c08301356164798161747f565b809150505b9250929050565b6000600082840361018081121561649a578283fd5b610160808212156164a9578384fd5b6164b2816173c1565b91506164bd85616094565b82526164cb60208601616094565b60208301526164dc60408601616112565b60408301526164ed606086016160be565b60608301526164fe608086016160be565b608083015260a085013560a083015260c085013560c083015260e085013560e083015261010080860135818401525061012061653b818701616094565b818401525061014080860135818401525081935061655a81860161613c565b925050505b9250929050565b6000610180808385031215616579578182fd5b616582816173c1565b905061658d836160a9565b815261659b602084016160fd565b60208201526040830151604082015260608301516060820152608083015160808201526165ca60a084016160e8565b60a08201526165db60c08401616166565b60c08201526165ec60e084016160d3565b60e08201526101006165ff8185016160d3565b8183015250610120616612818501616151565b81830152506101406166258185016160a9565b8183015250610160616638818501616166565b8183015250809150505b92915050565b600060408284031215616659578081fd5b6040516040810181811067ffffffffffffffff8211171561667657fe5b80604052508251815260208301516020820152809150505b92915050565b6000602082840312156166a5578081fd5b81356166b08161742b565b809150505b92915050565b600060006000606084860312156166d0578081fd5b83516166db8161742b565b8093505060208401519150604084015190505b9250925092565b600060208284031215616706578081fd5b813561671181617450565b809150505b92915050565b600060006040838503121561672f578182fd5b823561673a81617450565b80925050602083013561674c81617498565b809150505b9250929050565b600060208284031215616769578081fd5b813590505b92915050565b600060208284031215616785578081fd5b815190505b92915050565b6000600060006000608085870312156167a7578182fd5b8451935060208501516167b98161742b565b8093505060408501519150606085015190505b92959194509250565b60006000604083850312156167e8578182fd5b82519150602083015190505b9250929050565b600060006040838503121561680e578182fd5b8235915060208301356168208161747f565b809150505b9250929050565b60006020828403121561683d578081fd5b81356168488161747f565b809150505b92915050565b600060208284031215616864578081fd5b813561686f81617498565b809150505b92915050565b60006020828403121561688b578081fd5b815161689681617498565b809150505b92915050565b6000600060006000600060006000600060006000600060006101808d8f0312156168c957898afd5b8c516bffffffffffffffffffffffff8116811415156168e6578a8bfd5b809c50506168f660208e016160a9565b9a5061690460408e016160a9565b995061691260608e016160a9565b985061692060808e01616127565b975061692e60a08e016160d3565b965061693c60c08e016160d3565b955061694a60e08e016160e8565b94506101008d015193506101208d015192506169696101408e016160e8565b91506169786101608e016160e8565b90505b9295989b509295989b509295989b565b73ffffffffffffffffffffffffffffffffffffffff811682525b5050565b8060020b82525b5050565b6fffffffffffffffffffffffffffffffff811682525b5050565b61ffff811682525b5050565b62ffffff811682525b5050565b63ffffffff811682525b5050565b67ffffffffffffffff811682525b5050565b600060208201905073ffffffffffffffffffffffffffffffffffffffff831682525b92915050565b600060208201905073ffffffffffffffffffffffffffffffffffffffff831682525b92915050565b600060408201905073ffffffffffffffffffffffffffffffffffffffff841682528260208301525b9392505050565b600060608201905073ffffffffffffffffffffffffffffffffffffffff808616835280851660208401525062ffffff831660408301525b949350505050565b600060408201905073ffffffffffffffffffffffffffffffffffffffff841682528260208301525b9392505050565b600060608201905073ffffffffffffffffffffffffffffffffffffffff80861683528460208401528084166040840152505b949350505050565b600060208201905082151582525b92915050565b600060208201905073ffffffffffffffffffffffffffffffffffffffff831682525b92915050565b600060208201905073ffffffffffffffffffffffffffffffffffffffff831682525b92915050565b600060208201905073ffffffffffffffffffffffffffffffffffffffff831682525b92915050565b600060208201905073ffffffffffffffffffffffffffffffffffffffff831682525b92915050565b600060208201905073ffffffffffffffffffffffffffffffffffffffff831682525b92915050565b600060c08201905073ffffffffffffffffffffffffffffffffffffffff881682528660020b60208301528560020b60408301528460020b60608301526fffffffffffffffffffffffffffffffff8416608083015263ffffffff831660a08301525b979650505050505050565b600060608201905073ffffffffffffffffffffffffffffffffffffffff8416825282516020830152602083015160408301525b9392505050565b600060408201905073ffffffffffffffffffffffffffffffffffffffff841682526fffffffffffffffffffffffffffffffff831660208301525b9392505050565b600060408201905073ffffffffffffffffffffffffffffffffffffffff8416825263ffffffff831660208301525b9392505050565b600060408201905073ffffffffffffffffffffffffffffffffffffffff8416825267ffffffffffffffff831660208301525b9392505050565b60006060820190508460020b82528360020b60208301526fffffffffffffffffffffffffffffffff831660408301525b949350505050565b600060208252601660208301527f4c6971756964697479206e6f7420696e2072616e67650000000000000000000060408301526060820190505b919050565b600060208252601c60208301527f4d617820706572696f642077697468647261772065786365656465640000000060408301526060820190505b919050565b600060208252601260208301527f416c72656164792072656769737465726564000000000000000000000000000060408301526060820190505b919050565b600060208252601460208301527f496e63656e7469766520746f74616c206973203000000000000000000000000060408301526060820190505b919050565b600060208252601260208301527f506f736974696f6e20746f6f20736d616c6c000000000000000000000000000060408301526060820190505b919050565b600060208252600b60208301527f506f6f6c2065786973747300000000000000000000000000000000000000000060408301526060820190505b919050565b600060208252600e60208301527f496e76616c696420706f6f6c494400000000000000000000000000000000000060408301526060820190505b919050565b600060208252601260208301527f4e6f20666c617368206c6971756964697479000000000000000000000000000060408301526060820190505b919050565b600060208252600760208301527f496e76616c69640000000000000000000000000000000000000000000000000060408301526060820190505b919050565b60006080820190508251825273ffffffffffffffffffffffffffffffffffffffff602084015116602083015260408301516fffffffffffffffffffffffffffffffff808216604085015280606086015116606085015250505b92915050565b600060a082019050825182526fffffffffffffffffffffffffffffffff60208401511660208301526040830151604083015260608301516060830152608083015160808301525b92915050565b600060c082019050823582526020830135602083015260408301356040830152606083013560608301526080830135608083015260a083013560a08301525b92915050565b6000610160820190506170d382845161698b565b60208301516170e5602084018261698b565b5060408301516170f860408401826169da565b50606083015161710b60608401826169a9565b50608083015161711e60808401826169a9565b5060a083015160a083015260c083015160c083015260e083015160e08301526101008084015181840152506101208084015161715c8285018261698b565b50506101408084015181840152505b92915050565b60006020820190506fffffffffffffffffffffffffffffffff831682525b92915050565b600060208201905061ffff831682525b92915050565b60006020820190508282525b92915050565b600060408201905083825273ffffffffffffffffffffffffffffffffffffffff831660208301525b9392505050565b60006101a08201905083825261720660208301845161698b565b602083015161721860408401826169ce565b506040830151606083015260608301516080830152608083015160a083015260a083015161724960c08401826169b4565b5060c083015161725c60e08401826169f5565b5060e0830151610100617271818501836169a9565b80850151915050610120617287818501836169a9565b8085015191505061014061729d818501836169e7565b808501519150506101606172b38185018361698b565b808501519150506172c86101808401826169f5565b505b9392505050565b60006040820190508382526fffffffffffffffffffffffffffffffff831660208301525b9392505050565b60006040820190508382528260208301525b9392505050565b600060408201905083825267ffffffffffffffff831660208301525b9392505050565b600060208201905063ffffffff831682525b92915050565b600060208201905063ffffffff831682525b92915050565b600060208201905067ffffffffffffffff831682525b92915050565b600060408201905067ffffffffffffffff8416825277ffffffffffffffffffffffffffffffffffffffffffffffff831660208301525b9392505050565b6000604051905081810181811067ffffffffffffffff821117156173e157fe5b80604052505b919050565b73ffffffffffffffffffffffffffffffffffffffff8116811415156174115760006000fd5b5b50565b8060020b811415156174275760006000fd5b5b50565b6fffffffffffffffffffffffffffffffff81168114151561744c5760006000fd5b5b50565b61ffff8116811415156174635760006000fd5b5b50565b62ffffff81168114151561747b5760006000fd5b5b50565b63ffffffff8116811415156174945760006000fd5b5b50565b67ffffffffffffffff8116811415156174b15760006000fd5b5b50565bfea2646970667358221220d43c8dccde8fe5ae1ea3055904d30ef68b1ebd6146364cc9da1ec68fb887b4bd64736f6c63430007060033",
  "linkReferences": {},
  "deployedLinkReferences": {}
}