{
  "_format": "hh-sol-artifact-1",
  "contractName": "ProtocolDataAggregator",
  "sourceName": "contracts/core/auxiliary/ProtocolDataAggregator.sol",
  "abi": [
    {
      "inputs": [
        {
          "components": [
            {
              "internalType": "contract IGovernor",
              "name": "Governor",
              "type": "address"
            }
          ],
          "internalType": "struct ProtocolDataAggregator.ConstructorParams",
          "name": "params",
          "type": "tuple"
        }
      ],
      "stateMutability": "nonpayable",
      "type": "constructor"
    },
    {
      "inputs": [],
      "name": "getIncentivizedPools",
      "outputs": [
        {
          "components": [
            {
              "internalType": "contract CharmWrapper",
              "name": "pool",
              "type": "address"
            },
            {
              "internalType": "uint64",
              "name": "rewardsPortion",
              "type": "uint64"
            }
          ],
          "internalType": "struct IRewards.PoolConfig[]",
          "name": "poolConfigs",
          "type": "tuple[]"
        }
      ],
      "stateMutability": "view",
      "type": "function"
    },
    {
      "inputs": [],
      "name": "governor",
      "outputs": [
        {
          "internalType": "contract IGovernor",
          "name": "",
          "type": "address"
        }
      ],
      "stateMutability": "view",
      "type": "function"
    },
    {
      "inputs": [
        {
          "internalType": "uint64[]",
          "name": "positionIDs",
          "type": "uint64[]"
        }
      ],
      "name": "positionsCollateralization",
      "outputs": [
        {
          "internalType": "uint256[]",
          "name": "collateralizations",
          "type": "uint256[]"
        }
      ],
      "stateMutability": "view",
      "type": "function"
    }
  ],
  "bytecode": "0x60806040523480156100115760006000fd5b50604051610cdb380380610cdb83398181016040528101906100339190610084565b5b8060000151600060006101000a81548173ffffffffffffffffffffffffffffffffffffffff021916908373ffffffffffffffffffffffffffffffffffffffff1602179055505b506100f6566100f5565b6000602082840312156100975760006000fd5b604051602081018181106001600160401b03821117156100c757634e487b7160e01b600052604160045260246000fd5b806040525082516001600160a01b038116811415156100e65760006000fd5b80825250809150505b92915050565b5b610bd6806101056000396000f3fe60806040523480156100115760006000fd5b50600436106100465760003560e01c80630c340a241461004c5780635e016b901461006a578063adc7f3011461009a57610046565b60006000fd5b6100546100b8565b60405161006191906106dc565b60405180910390f35b610084600480360381019061007f91906107a9565b6100de565b604051610091919061086d565b60405180910390f35b6100a26102ee565b6040516100af91906108bc565b60405180910390f35b600060009054906101000a900473ffffffffffffffffffffffffffffffffffffffff1681565b60606000825190508067ffffffffffffffff811115610100576100ff610704565b5b60405190808252806020026020018201604052801561012e5781602001602082028036833780820191505090505b50915081506000600060009054906101000a900473ffffffffffffffffffffffffffffffffffffffff1673ffffffffffffffffffffffffffffffffffffffff16639624e83e6040518163ffffffff1660e01b8152600401602060405180830381865afa1580156101a3573d600060003e3d6000fd5b505050506040513d601f19601f820116820180604052508101906101c79190610961565b9050600060006000600090505b848110156102d8578373ffffffffffffffffffffffffffffffffffffffff16636594da9f888381518110151561020d5761020c61098a565b5b60200260200101516040518263ffffffff1660e01b815260040161023191906109bb565b604060405180830381865afa15801561024f573d600060003e3d6000fd5b505050506040513d601f19601f8201168201806040525081019061027391906109d7565b80935081945050506000831461029b57610296838361055190919063ffffffff16565b61029e565b60005b86828151811015156102b3576102b261098a565b5b60200260200101909081815260200150505b80806102d090610a30565b9150506101d4565b50849450505050506102e956505050505b919050565b60606000600060009054906101000a900473ffffffffffffffffffffffffffffffffffffffff1673ffffffffffffffffffffffffffffffffffffffff16639ec5a8946040518163ffffffff1660e01b8152600401602060405180830381865afa158015610360573d600060003e3d6000fd5b505050506040513d601f19601f820116820180604052508101906103849190610a6f565b905060008173ffffffffffffffffffffffffffffffffffffffff16636fcdfed66040518163ffffffff1660e01b8152600401602060405180830381865afa1580156103d4573d600060003e3d6000fd5b505050506040513d601f19601f820116820180604052508101906103f89190610a98565b61ffff169050600081141561041557829250505061054e5661046e565b8067ffffffffffffffff81111561042f5761042e610704565b5b60405190808252806020026020018201604052801561046857816020015b61045561069b565b81526020019060019003908161044d5790505b50925082505b6000600190505b818161ffff16111515610541578273ffffffffffffffffffffffffffffffffffffffff1663fbe6eb9b826040518263ffffffff1660e01b81526004016104bb9190610acb565b604060405180830381865afa1580156104d9573d600060003e3d6000fd5b505050506040513d601f19601f820116820180604052508101906104fd9190610ae1565b8460018361050b9190610b4c565b61ffff168151811015156105225761052161098a565b5b60200260200101819052505b808061053990610b78565b915050610475565b50829250505061054e5650505b90565b600061056c83670de0b6b3a76400008461057763ffffffff16565b905080505b92915050565b60006000600060001985870985870292508281108382030391505060008114156105ba576000841115156105ab5760006000fd5b83820492508292505050610694565b80841115156105c95760006000fd5b60008486880990508281118203915080830392506000856001877fffffffffffffffffffffffffffffffffffffffffffffffffffffffffffffffff03011690508050808604955080840493506001818260000304019050808302841793508350600060028760030218905080870260020381029050805080870260020381029050805080870260020381029050805080870260020381029050805080870260020381029050805080870260020381029050805080850295508550508494505050505061069456505050505b9392505050565b6040518060400160405280600073ffffffffffffffffffffffffffffffffffffffff168152602001600067ffffffffffffffff168152602001509056610b9f565b600060208201905073ffffffffffffffffffffffffffffffffffffffff831682525b92915050565b7f4e487b7100000000000000000000000000000000000000000000000000000000600052604160045260246000fd5b565b600060405190507fffffffffffffffffffffffffffffffffffffffffffffffffffffffffffffffe0601f830116810181811067ffffffffffffffff8211171561078157610780610704565b5b80604052505b919050565b67ffffffffffffffff8116811415156107a55760006000fd5b505b565b600060208083850312156107bd5760006000fd5b823567ffffffffffffffff808211156107d65760006000fd5b818501915085601f83011215156107ed5760006000fd5b813581811115610800576107ff610704565b5b8060051b9150610811848301610735565b808282528582019150858486010193508884111561082f5760006000fd5b85850194505b8385101561085d578435925061084a8361078c565b82825285820191505b8585019450610835565b8096505050505050505b92915050565b60006020808301818452808551808352604086019150838701925060005b818110156108ad5783518352848301925084840193505b60018101905061088b565b50508093505050505b92915050565b6000602080830181845280855180835260409250828601915083870160005b8281101561092857815173ffffffffffffffffffffffffffffffffffffffff815116855267ffffffffffffffff87820151168786015250848401935085820191505b6001810190506108db565b5050508093505050505b92915050565b73ffffffffffffffffffffffffffffffffffffffff81168114151561095d5760006000fd5b505b565b6000602082840312156109745760006000fd5b815161097f81610938565b809150505b92915050565b7f4e487b7100000000000000000000000000000000000000000000000000000000600052603260045260246000fd5b565b600060208201905067ffffffffffffffff831682525b92915050565b60006000604083850312156109ec5760006000fd5b82519150602083015190505b9250929050565b7f4e487b7100000000000000000000000000000000000000000000000000000000600052601160045260246000fd5b565b60007fffffffffffffffffffffffffffffffffffffffffffffffffffffffffffffffff821415610a6357610a626109ff565b5b6001820190505b919050565b600060208284031215610a825760006000fd5b8151610a8d81610938565b809150505b92915050565b600060208284031215610aab5760006000fd5b815161ffff811681141515610ac05760006000fd5b809150505b92915050565b600060208201905061ffff831682525b92915050565b600060408284031215610af45760006000fd5b6040516040810181811067ffffffffffffffff82111715610b1857610b17610704565b5b80604052508251610b2881610938565b808252506020830151610b3a8161078c565b80602083015250809150505b92915050565b600061ffff808316818516915081811015610b6a57610b696109ff565b5b818103925050505b92915050565b600061ffff80831681811415610b9157610b906109ff565b5b60018101925050505b919050565bfea26469706673582212207183f64af2d75a4c59ed00764bc7c56994efd5dc9dfafc56c7902f6133f9569d64736f6c634300080c0033",
  "linkReferences": {},
  "deployedLinkReferences": {}
}