{
  "_format": "hh-sol-artifact-1",
  "contractName": "ProtocolDataAggregator",
  "sourceName": "contracts/core/auxiliary/ProtocolDataAggregator.sol",
  "abi": [
    {
      "inputs": [
        {
          "components": [
            {
              "internalType": "contract IGovernor",
              "name": "Governor",
              "type": "address"
            },
            {
              "internalType": "contract INonfungiblePositionManager",
              "name": "NftPositionManager",
              "type": "address"
            }
          ],
          "internalType": "struct ProtocolDataAggregator.ConstructorParams",
          "name": "params",
          "type": "tuple"
        }
      ],
      "stateMutability": "nonpayable",
      "type": "constructor"
    },
    {
      "inputs": [],
      "name": "getIncentivizedPools",
      "outputs": [
        {
          "components": [
            {
              "internalType": "contract IUniswapV3Pool",
              "name": "pool",
              "type": "address"
            },
            {
              "internalType": "uint64",
              "name": "rewardsPortion",
              "type": "uint64"
            }
          ],
          "internalType": "struct IRewards.PoolConfig[]",
          "name": "poolConfigs",
          "type": "tuple[]"
        }
      ],
      "stateMutability": "view",
      "type": "function"
    },
    {
      "inputs": [
        {
          "internalType": "uint32",
          "name": "start",
          "type": "uint32"
        },
        {
          "internalType": "uint32",
          "name": "end",
          "type": "uint32"
        }
      ],
      "name": "getLockedNFTIDs",
      "outputs": [
        {
          "internalType": "uint256[]",
          "name": "nftIDs",
          "type": "uint256[]"
        }
      ],
      "stateMutability": "view",
      "type": "function"
    },
    {
      "inputs": [
        {
          "internalType": "uint256[]",
          "name": "nftIDs",
          "type": "uint256[]"
        }
      ],
      "name": "getUniswapPositionTickStatuses",
      "outputs": [
        {
          "components": [
            {
              "internalType": "address",
              "name": "token0",
              "type": "address"
            },
            {
              "internalType": "address",
              "name": "token1",
              "type": "address"
            },
            {
              "internalType": "uint24",
              "name": "fee",
              "type": "uint24"
            },
            {
              "internalType": "int24",
              "name": "tickLower",
              "type": "int24"
            },
            {
              "internalType": "int24",
              "name": "tickUpper",
              "type": "int24"
            }
          ],
          "internalType": "struct ProtocolDataAggregator.NftPositionTickStatus[]",
          "name": "tickStatuses",
          "type": "tuple[]"
        }
      ],
      "stateMutability": "view",
      "type": "function"
    },
    {
      "inputs": [],
      "name": "governor",
      "outputs": [
        {
          "internalType": "contract IGovernor",
          "name": "",
          "type": "address"
        }
      ],
      "stateMutability": "view",
      "type": "function"
    },
    {
      "inputs": [],
      "name": "nftPositionManager",
      "outputs": [
        {
          "internalType": "contract INonfungiblePositionManager",
          "name": "",
          "type": "address"
        }
      ],
      "stateMutability": "view",
      "type": "function"
    },
    {
      "inputs": [
        {
          "internalType": "uint64[]",
          "name": "positionIDs",
          "type": "uint64[]"
        }
      ],
      "name": "positionsCollateralization",
      "outputs": [
        {
          "internalType": "uint256[]",
          "name": "collateralizations",
          "type": "uint256[]"
        }
      ],
      "stateMutability": "view",
      "type": "function"
    }
  ],
  "bytecode": "0x6080604052348015620000125760006000fd5b5060405162001876380380620018768339818101604052810190620000389190620000d0565b5b8060000151600060006101000a81548173ffffffffffffffffffffffffffffffffffffffff021916908373ffffffffffffffffffffffffffffffffffffffff1602179055508060200151600160006101000a81548173ffffffffffffffffffffffffffffffffffffffff021916908373ffffffffffffffffffffffffffffffffffffffff1602179055505b50620001675662000166565b600060408284031215620000e2578081fd5b604051604081018181106001600160401b03821117156200011157634e487b7160e01b83526041600452602483fd5b80604052508251620001238162000149565b808252506020830151620001378162000149565b80602083015250809150505b92915050565b6001600160a01b03811681141515620001625760006000fd5b505b565b5b6116ff80620001776000396000f3fe60806040523480156100115760006000fd5b50600436106100775760003560e01c8063843978881161005157806384397888146100fb578063a04ebaec14610119578063adc7f3011461014957610077565b80630c340a241461007d57806321da34af1461009b5780635e016b90146100cb57610077565b60006000fd5b610085610167565b6040516100929190611422565b60405180910390f35b6100b560048036038101906100b09190610ee6565b61018d565b6040516100c291906112b6565b60405180910390f35b6100e560048036038101906100e09190610f8b565b61042b565b6040516100f291906113d4565b60405180910390f35b6101036106cd565b604051610110919061144a565b60405180910390f35b610133600480360381019061012e9190611163565b6106f3565b60405161014091906113d4565b60405180910390f35b610151610972565b60405161015e9190611359565b60405180910390f35b600060009054906101000a900473ffffffffffffffffffffffffffffffffffffffff1681565b60606000825190508067ffffffffffffffff8111156101d5577f4e487b7100000000000000000000000000000000000000000000000000000000600052604160045260246000fd5b60405190808252806020026020018201604052801561020e57816020015b6101fb610d9b565b8152602001906001900390816101f35790505b5091508150600060006000600060006000600090505b8681101561041157600160009054906101000a900473ffffffffffffffffffffffffffffffffffffffff1673ffffffffffffffffffffffffffffffffffffffff166399fbab888a838151811015156102a5577f4e487b7100000000000000000000000000000000000000000000000000000000600052603260045260246000fd5b60200260200101516040518263ffffffff1660e01b81526004016102c99190611488565b6101806040518083038186803b1580156102e35760006000fd5b505afa1580156102f8573d600060003e3d6000fd5b505050506040513d601f19601f8201168201806040525081019061031c9190611197565b909192939495969798999a509091929394959697989950909192935090919250909150905050809650819750829850839950849a5050505050506040518060a001604052808773ffffffffffffffffffffffffffffffffffffffff1681526020018673ffffffffffffffffffffffffffffffffffffffff1681526020018562ffffff1681526020018460020b81526020018360020b81526020015088828151811015156103f2577f4e487b7100000000000000000000000000000000000000000000000000000000600052603260045260246000fd5b60200260200101819052505b8080610409906115b8565b915050610224565b50869650505050505050610426565050505050505b919050565b60606000825190508067ffffffffffffffff811115610473577f4e487b7100000000000000000000000000000000000000000000000000000000600052604160045260246000fd5b6040519080825280602002602001820160405280156104a15781602001602082028036833780820191505090505b50915081506000600060009054906101000a900473ffffffffffffffffffffffffffffffffffffffff1673ffffffffffffffffffffffffffffffffffffffff16639624e83e6040518163ffffffff1660e01b815260040160206040518083038186803b1580156105115760006000fd5b505afa158015610526573d600060003e3d6000fd5b505050506040513d601f19601f8201168201806040525081019061054a919061103b565b9050600060006000600090505b848110156106b7578373ffffffffffffffffffffffffffffffffffffffff16636594da9f88838151811015156105b6577f4e487b7100000000000000000000000000000000000000000000000000000000600052603260045260246000fd5b60200260200101516040518263ffffffff1660e01b81526004016105da919061149a565b60406040518083038186803b1580156105f35760006000fd5b505afa158015610608573d600060003e3d6000fd5b505050506040513d601f19601f8201168201806040525081019061062c919061113d565b8093508194505050600083146106545761064f8383610c5190919063ffffffff16565b610657565b60005b8682815181101515610692577f4e487b7100000000000000000000000000000000000000000000000000000000600052603260045260246000fd5b60200260200101909081815260200150505b80806106af906115b8565b915050610557565b50849450505050506106c856505050505b919050565b600160009054906101000a900473ffffffffffffffffffffffffffffffffffffffff1681565b60608163ffffffff168363ffffffff161015156107105760006000fd5b828261071c9190611563565b63ffffffff1667ffffffffffffffff811115610761577f4e487b7100000000000000000000000000000000000000000000000000000000600052604160045260246000fd5b60405190808252806020026020018201604052801561078f5781602001602082028036833780820191505090505b50905080506000600060009054906101000a900473ffffffffffffffffffffffffffffffffffffffff1673ffffffffffffffffffffffffffffffffffffffff16639624e83e6040518163ffffffff1660e01b815260040160206040518083038186803b1580156107ff5760006000fd5b505afa158015610814573d600060003e3d6000fd5b505050506040513d601f19601f82011682018060405250810190610838919061103b565b905060005b8363ffffffff168563ffffffff16101561096957600160009054906101000a900473ffffffffffffffffffffffffffffffffffffffff1673ffffffffffffffffffffffffffffffffffffffff16632f745c5983878061089b906115f7565b98506040518363ffffffff1660e01b81526004016108ba929190611281565b60206040518083038186803b1580156108d35760006000fd5b505afa1580156108e8573d600060003e3d6000fd5b505050506040513d601f19601f8201168201806040525081019061090c9190611121565b838280610918906115b8565b9350815181101515610953577f4e487b7100000000000000000000000000000000000000000000000000000000600052603260045260246000fd5b602002602001019090818152602001505061083d565b50505b92915050565b60606000600060009054906101000a900473ffffffffffffffffffffffffffffffffffffffff1673ffffffffffffffffffffffffffffffffffffffff16639ec5a8946040518163ffffffff1660e01b815260040160206040518083038186803b1580156109df5760006000fd5b505afa1580156109f4573d600060003e3d6000fd5b505050506040513d601f19601f82011682018060405250810190610a189190611062565b905060008173ffffffffffffffffffffffffffffffffffffffff16636fcdfed66040518163ffffffff1660e01b815260040160206040518083038186803b158015610a635760006000fd5b505afa158015610a78573d600060003e3d6000fd5b505050506040513d601f19601f82011682018060405250810190610a9c91906110f2565b61ffff1690506000811415610ab9578292505050610c4e56610b38565b8067ffffffffffffffff811115610af9577f4e487b7100000000000000000000000000000000000000000000000000000000600052604160045260246000fd5b604051908082528060200260200182016040528015610b3257816020015b610b1f610e04565b815260200190600190039081610b175790505b50925082505b6000600190505b818161ffff16111515610c41578273ffffffffffffffffffffffffffffffffffffffff1663fbe6eb9b826040518263ffffffff1660e01b8152600401610b859190611472565b60406040518083038186803b158015610b9e5760006000fd5b505afa158015610bb3573d600060003e3d6000fd5b505050506040513d601f19601f82011682018060405250810190610bd79190611089565b84600183610be59190611537565b61ffff16815181101515610c22577f4e487b7100000000000000000000000000000000000000000000000000000000600052603260045260246000fd5b60200260200101819052505b8080610c3990611591565b915050610b3f565b508292505050610c4e5650505b90565b6000610c6c83670de0b6b3a764000084610c7763ffffffff16565b905080505b92915050565b6000600060006000198587098587029250828110838203039150506000811415610cba57600084111515610cab5760006000fd5b83820492508292505050610d94565b8084111515610cc95760006000fd5b60008486880990508281118203915080830392506000856001877fffffffffffffffffffffffffffffffffffffffffffffffffffffffffffffffff030116905080508086049550808404935060018182600003040190508083028417935083506000600287600302189050808702600203810290508050808702600203810290508050808702600203810290508050808702600203810290508050808702600203810290508050808702600203810290508050808502955085505084945050505050610d9456505050505b9392505050565b6040518060a00160405280600073ffffffffffffffffffffffffffffffffffffffff168152602001600073ffffffffffffffffffffffffffffffffffffffff168152602001600062ffffff168152602001600060020b8152602001600060020b81526020015090565b6040518060400160405280600073ffffffffffffffffffffffffffffffffffffffff168152602001600067ffffffffffffffff1681526020015090566116c8565b600081519050610e5481611682565b5b919050565b6000815190508060020b81141515610e725760006000fd5b5b919050565b6000815190506fffffffffffffffffffffffffffffffff811681141515610e9f5760006000fd5b5b919050565b60008151905062ffffff811681141515610ebf5760006000fd5b5b919050565b60008135905063ffffffff811681141515610ee05760006000fd5b5b919050565b60006020808385031215610ef8578182fd5b823567ffffffffffffffff811115610f0e578283fd5b808401905084601f8201121515610f23578283fd5b8035610f36610f318261150d565b6114b6565b80828252848201915084840188868560051b8701011115610f55578687fd5b8694505b83851015610f7b5780358352858301925085810190505b600185019450610f59565b5080955050505050505b92915050565b60006020808385031215610f9d578182fd5b823567ffffffffffffffff811115610fb3578283fd5b808401905084601f8201121515610fc8578283fd5b8035610fdb610fd68261150d565b6114b6565b80828252848201915084840188868560051b8701011115610ffa578687fd5b8694505b8385101561102b578035611011816116ab565b80845250858301925085810190505b600185019450610ffe565b5080955050505050505b92915050565b60006020828403121561104c578081fd5b815161105781611682565b809150505b92915050565b600060208284031215611073578081fd5b815161107e81611682565b809150505b92915050565b60006040828403121561109a578081fd5b6040516040810181811067ffffffffffffffff821117156110be576110bd611651565b5b806040525082516110ce81611682565b8082525060208301516110e0816116ab565b80602083015250809150505b92915050565b600060208284031215611103578081fd5b815161ffff811681141515611116578182fd5b809150505b92915050565b600060208284031215611132578081fd5b815190505b92915050565b6000600060408385031215611150578081fd5b82519150602083015190505b9250929050565b6000600060408385031215611176578182fd5b61117f83610ec5565b915061118d60208401610ec5565b90505b9250929050565b6000600060006000600060006000600060006000600060006101808d8f0312156111bf578788fd5b8c516bffffffffffffffffffffffff8116811415156111dc578889fd5b809c50506111ec60208e01610e45565b9a506111fa60408e01610e45565b995061120860608e01610e45565b985061121660808e01610ea5565b975061122460a08e01610e5a565b965061123260c08e01610e5a565b955061124060e08e01610e78565b94506101008d015193506101208d0151925061125f6101408e01610e78565b915061126e6101608e01610e78565b90505b9295989b509295989b509295989b565b600060408201905073ffffffffffffffffffffffffffffffffffffffff8416825263ffffffff831660208301525b9392505050565b60006020808301818452808551808352604092508286019150838701855b8281101561134957815173ffffffffffffffffffffffffffffffffffffffff808251168652808883015116888701525062ffffff868201511686860152606080820151600281810b838901526080925082840151810b838901525050505060a08401935085820191505b6001810190506112d4565b5050508093505050505b92915050565b60006020808301818452808551808352604092508286019150838701855b828110156113c457815173ffffffffffffffffffffffffffffffffffffffff815116855267ffffffffffffffff87820151168786015250848401935085820191505b600181019050611377565b5050508093505050505b92915050565b600060208083018184528085518083526040860191508387019250845b818110156114135783518352848301925084840193505b6001810190506113f1565b50508093505050505b92915050565b600060208201905073ffffffffffffffffffffffffffffffffffffffff831682525b92915050565b600060208201905073ffffffffffffffffffffffffffffffffffffffff831682525b92915050565b600060208201905061ffff831682525b92915050565b60006020820190508282525b92915050565b600060208201905067ffffffffffffffff831682525b92915050565b600060405190507fffffffffffffffffffffffffffffffffffffffffffffffffffffffffffffffe0601f830116810181811067ffffffffffffffff8211171561150257611501611651565b5b80604052505b919050565b600067ffffffffffffffff82111561152857611527611651565b5b60208260051b0190505b919050565b600061ffff80831681851691508181101561155557611554611620565b5b818103925050505b92915050565b600063ffffffff80831681851691508181101561158357611582611620565b5b818103925050505b92915050565b600061ffff808316818114156115aa576115a9611620565b5b60018101925050505b919050565b60007fffffffffffffffffffffffffffffffffffffffffffffffffffffffffffffffff8214156115eb576115ea611620565b5b6001820190505b919050565b600063ffffffff8083168181141561161257611611611620565b5b60018101925050505b919050565b7f4e487b7100000000000000000000000000000000000000000000000000000000600052601160045260246000fd5b565b7f4e487b7100000000000000000000000000000000000000000000000000000000600052604160045260246000fd5b565b73ffffffffffffffffffffffffffffffffffffffff8116811415156116a75760006000fd5b505b565b67ffffffffffffffff8116811415156116c45760006000fd5b505b565bfea2646970667358221220ea780ce00818142229c9dfa4e880a8f8023958721ccf85e0084f6b5b816d578964736f6c63430008040033",
  "linkReferences": {},
  "deployedLinkReferences": {}
}