{
  "_format": "hh-sol-artifact-1",
  "contractName": "MockTDaoIncentiveContract",
  "sourceName": "contracts/core/mocks/MockTFIncentiveContract.sol",
  "abi": [
    {
      "inputs": [
        {
          "internalType": "contract ITDaoWithIncentiveContractMint",
          "name": "_tDao",
          "type": "address"
        }
      ],
      "stateMutability": "nonpayable",
      "type": "constructor"
    },
    {
      "inputs": [
        {
          "internalType": "address",
          "name": "dest",
          "type": "address"
        },
        {
          "internalType": "uint256",
          "name": "count",
          "type": "uint256"
        }
      ],
      "name": "mint",
      "outputs": [],
      "stateMutability": "nonpayable",
      "type": "function"
    }
  ],
  "bytecode": "0x60806040523480156100115760006000fd5b5060405161026138038061026183398181016040528101906100339190610080565b5b80600060006101000a81548173ffffffffffffffffffffffffffffffffffffffff021916908373ffffffffffffffffffffffffffffffffffffffff1602179055505b506100b5566100b4565b600060208284031215610091578081fd5b81516001600160a01b038116811415156100a9578182fd5b809150505b92915050565b5b61019d806100c46000396000f3fe60806040523480156100115760006000fd5b50600436106100305760003560e01c806340c10f191461003657610030565b60006000fd5b610050600480360381019061004b91906100ec565b610052565b005b600060009054906101000a900473ffffffffffffffffffffffffffffffffffffffff1673ffffffffffffffffffffffffffffffffffffffff16639383ac4483836040518363ffffffff1660e01b81526004016100af929190610137565b600060405180830381600087803b1580156100ca5760006000fd5b505af11580156100df573d600060003e3d6000fd5b505050505b505056610166565b60006000604083850312156100ff578182fd5b823573ffffffffffffffffffffffffffffffffffffffff811681141515610124578283fd5b80925050602083013590505b9250929050565b600060408201905073ffffffffffffffffffffffffffffffffffffffff841682528260208301525b9392505050565bfea2646970667358221220cb4b80d00432c3f3a13e183ecee1fb3a68354f4058fc70e42d8518294fd05f7d64736f6c63430008040033",
  "linkReferences": {},
  "deployedLinkReferences": {}
}