{
  "_format": "hh-sol-artifact-1",
  "contractName": "CharmFactory",
  "sourceName": "contracts/charm/CharmFactory.sol",
  "abi": [
    {
      "inputs": [
        {
          "components": [
            {
              "internalType": "contract IWETH9",
              "name": "Weth",
              "type": "address"
            }
          ],
          "internalType": "struct CharmFactory.ConstructorParams",
          "name": "params",
          "type": "tuple"
        }
      ],
      "stateMutability": "nonpayable",
      "type": "constructor"
    },
    {
      "inputs": [
        {
          "internalType": "contract IUniswapV3Pool",
          "name": "pool",
          "type": "address"
        }
      ],
      "name": "createWrapper",
      "outputs": [
        {
          "internalType": "contract CharmWrapper",
          "name": "charmWrapper",
          "type": "address"
        }
      ],
      "stateMutability": "nonpayable",
      "type": "function"
    },
    {
      "inputs": [
        {
          "internalType": "contract IUniswapV3Pool",
          "name": "",
          "type": "address"
        }
      ],
      "name": "poolToWrapper",
      "outputs": [
        {
          "internalType": "contract CharmWrapper",
          "name": "",
          "type": "address"
        }
      ],
      "stateMutability": "view",
      "type": "function"
    },
    {
      "inputs": [
        {
          "internalType": "contract CharmWrapper",
          "name": "",
          "type": "address"
        }
      ],
      "name": "wrapperToPool",
      "outputs": [
        {
          "internalType": "contract IUniswapV3Pool",
          "name": "",
          "type": "address"
        }
      ],
      "stateMutability": "view",
      "type": "function"
    }
  ],
  "bytecode": "0x60806040523480156100115760006000fd5b5060405161464038038061464083398181016040528101906100339190610084565b5b8060000151600260006101000a81548173ffffffffffffffffffffffffffffffffffffffff021916908373ffffffffffffffffffffffffffffffffffffffff1602179055505b506100f6566100f5565b6000602082840312156100975760006000fd5b604051602081018181106001600160401b03821117156100c757634e487b7160e01b600052604160045260246000fd5b806040525082516001600160a01b038116811415156100e65760006000fd5b80825250809150505b92915050565b5b61453b806101056000396000f3fe60806040523480156100115760006000fd5b50600436106100465760003560e01c8063881afec81461004c578063a7c4f0ef1461007c578063f4153975146100ac57610046565b60006000fd5b610066600480360381019061006191906103c7565b6100dc565b60405161007391906103f0565b60405180910390f35b610096600480360381019061009191906103c7565b610114565b6040516100a391906103f0565b60405180910390f35b6100c660048036038101906100c19190610418565b610355565b6040516100d39190610441565b60405180910390f35b600060005060205280600052604060002060009150909054906101000a900473ffffffffffffffffffffffffffffffffffffffff1681565b6000600073ffffffffffffffffffffffffffffffffffffffff16600060005060008473ffffffffffffffffffffffffffffffffffffffff1673ffffffffffffffffffffffffffffffffffffffff16815260200190815260200160002060009054906101000a900473ffffffffffffffffffffffffffffffffffffffff1673ffffffffffffffffffffffffffffffffffffffff161415156101e9576040517f08c379a00000000000000000000000000000000000000000000000000000000081526004016101e090610469565b60405180910390fd5b81600260009054906101000a900473ffffffffffffffffffffffffffffffffffffffff166040516102199061038d565b6102249291906104a8565b604051809103906000f080158015610241573d600060003e3d6000fd5b509050805080600060005060008473ffffffffffffffffffffffffffffffffffffffff1673ffffffffffffffffffffffffffffffffffffffff16815260200190815260200160002060006101000a81548173ffffffffffffffffffffffffffffffffffffffff021916908373ffffffffffffffffffffffffffffffffffffffff16021790555081600160005060008373ffffffffffffffffffffffffffffffffffffffff1673ffffffffffffffffffffffffffffffffffffffff16815260200190815260200160002060006101000a81548173ffffffffffffffffffffffffffffffffffffffff021916908373ffffffffffffffffffffffffffffffffffffffff160217905550809050610350565b919050565b600160005060205280600052604060002060009150909054906101000a900473ffffffffffffffffffffffffffffffffffffffff1681565b614029806104dd83390190566104db565b73ffffffffffffffffffffffffffffffffffffffff8116811415156103c35760006000fd5b505b565b6000602082840312156103da5760006000fd5b81356103e58161039e565b809150505b92915050565b600060208201905073ffffffffffffffffffffffffffffffffffffffff831682525b92915050565b60006020828403121561042b5760006000fd5b81356104368161039e565b809150505b92915050565b600060208201905073ffffffffffffffffffffffffffffffffffffffff831682525b92915050565b60208152602060208201527f5772617070657220616c72656164792065786973747320666f7220706f6f6c2e604082015260006060820190505b919050565b600060408201905073ffffffffffffffffffffffffffffffffffffffff80851683528084166020840152505b9392505050565bfe610100604052348015620000135760006000fd5b50604051620040293803806200402983398181016040528101906200003991906200039e565b5b5b6040518060400160405280600b81526020017f436861726d205661756c740000000000000000000000000000000000000000008152602001506040518060400160405280600281526020017f43560000000000000000000000000000000000000000000000000000000000008152602001505b8160036000509080519060200190620000c9929190620002c0565b508060046000509080519060200190620000e5929190620002c0565b505b5050600160056000508190909055505b8173ffffffffffffffffffffffffffffffffffffffff1660808173ffffffffffffffffffffffffffffffffffffffff16815260200150508173ffffffffffffffffffffffffffffffffffffffff16630dfe16816040518163ffffffff1660e01b8152600401602060405180830381865afa1580156200017b573d600060003e3d6000fd5b505050506040513d601f19601f82011682018060405250810190620001a19190620003e1565b73ffffffffffffffffffffffffffffffffffffffff1660a08173ffffffffffffffffffffffffffffffffffffffff16815260200150508173ffffffffffffffffffffffffffffffffffffffff1663d21220a76040518163ffffffff1660e01b8152600401602060405180830381865afa15801562000224573d600060003e3d6000fd5b505050506040513d601f19601f820116820180604052508101906200024a9190620003e1565b73ffffffffffffffffffffffffffffffffffffffff1660c08173ffffffffffffffffffffffffffffffffffffffff16815260200150508073ffffffffffffffffffffffffffffffffffffffff1660e08173ffffffffffffffffffffffffffffffffffffffff16815260200150505b505062000452565b828054620002ce906200040d565b90600052602060002090601f016020900481019282620002f2576000855562000343565b82601f106200030d57805160ff191683800117855562000343565b8280016001018555821562000343579182015b8281111562000342578251826000509090559160200191906001019062000320565b5b50905062000352919062000356565b5090565b6200035c565b808211156200037857600081815060009055506001016200035c565b50905662000451565b6001600160a01b038116811415156200039a5760006000fd5b505b565b6000600060408385031215620003b45760006000fd5b8251620003c18162000381565b809250506020830151620003d58162000381565b809150505b9250929050565b600060208284031215620003f55760006000fd5b8151620004028162000381565b809150505b92915050565b60008160011c9050600182168015156200042857607f821691505b602082108114156200044a57634e487b7160e01b600052602260045260246000fd5b505b919050565b5b60805160a05160c05160e051613b57620004d260003960008181610f110152818161229f015281816122ff01526123820152600081816111da01526112b80152600081816106aa01526112780152600081816106ce0152818161082c0152818161094501528181610b5001528181610c3e01526112110152613b576000f3fe6080604052600436106101795760003560e01c80633fc8cef3116100cb57806395d89b411161007f578063d21220a711610059578063d21220a714610544578063d348799714610570578063dd62ed3e1461059a57610179565b806395d89b411461049c578063a457c2d7146104c8578063a9059cbb1461050657610179565b806347377d92116100b057806347377d921461040857806370a082311461043457806379cc67901461047257610179565b80633fc8cef3146103b257806342966c68146103de57610179565b8063239f3af71161012d578063313ce56711610107578063313ce56714610316578063365d0ed714610342578063395093511461037457610179565b8063239f3af71461026d57806323b872dd1461029957806326c9324c146102d757610179565b80630dfe16811161015e5780630dfe1681146101e957806316f0115b1461021557806318160ddd1461024157610179565b806306fdde031461017f578063095ea7b3146101ab57610179565b60006000fd5b34801561018c5760006000fd5b506101956105d8565b6040516101a29190612bbb565b60405180910390f35b3480156101b85760006000fd5b506101d360048036038101906101ce9190612c00565b610672565b6040516101e09190612c33565b60405180910390f35b3480156101f65760006000fd5b506101ff6106a8565b60405161020c9190612c47565b60405180910390f35b3480156102225760006000fd5b5061022b6106cc565b6040516102389190612c6f565b60405180910390f35b34801561024e5760006000fd5b506102576106f0565b6040516102649190612c97565b60405180910390f35b34801561027a5760006000fd5b50610283610702565b6040516102909190612ca9565b60405180910390f35b3480156102a65760006000fd5b506102c160048036038101906102bc9190612cbe565b610709565b6040516102ce9190612c33565b60405180910390f35b3480156102e45760006000fd5b506102ff60048036038101906102fa9190612d2a565b610751565b60405161030d929190612d7c565b60405180910390f35b3480156103235760006000fd5b5061032c610ae0565b6040516103399190612d95565b60405180910390f35b61035c60048036038101906103579190612daa565b610aee565b60405161036b93929190612dfb565b60405180910390f35b3480156103815760006000fd5b5061039c60048036038101906103979190612c00565b610e49565b6040516103a99190612c33565b60405180910390f35b3480156103bf5760006000fd5b506103c8610f0f565b6040516103d59190612e2d565b60405180910390f35b3480156103eb5760006000fd5b5061040660048036038101906104019190612e55565b610f33565b005b3480156104155760006000fd5b5061041e610f54565b60405161042b9190612ca9565b60405180910390f35b3480156104415760006000fd5b5061045c60048036038101906104579190612e73565b610f78565b6040516104699190612c97565b60405180910390f35b34801561047f5760006000fd5b5061049a60048036038101906104959190612c00565b610fcc565b005b3480156104a95760006000fd5b506104b2610fff565b6040516104bf9190612bbb565b60405180910390f35b3480156104d55760006000fd5b506104f060048036038101906104eb9190612c00565b611099565b6040516104fd9190612c33565b60405180910390f35b3480156105135760006000fd5b5061052e60048036038101906105299190612c00565b6111a2565b60405161053b9190612c33565b60405180910390f35b3480156105515760006000fd5b5061055a6111d8565b6040516105679190612c47565b60405180910390f35b34801561057d5760006000fd5b5061059860048036038101906105939190612e9c565b6111fc565b005b3480156105a75760006000fd5b506105c260048036038101906105bd9190612f2c565b6112f2565b6040516105cf9190612c97565b60405180910390f35b6060600360005080546105ea90612f6a565b80601f016020809104026020016040519081016040528092919081815260200182805461061690612f6a565b80156106635780601f1061063857610100808354040283529160200191610663565b820191906000526020600020905b81548152906001019060200180831161064657829003601f168201915b5050505050905061066f565b90565b6000600061068461138763ffffffff16565b905061069781858561139463ffffffff16565b60019150506106a256505b92915050565b7f000000000000000000000000000000000000000000000000000000000000000081565b7f000000000000000000000000000000000000000000000000000000000000000081565b600060026000505490506106ff565b90565b620d881081565b6000600061071b61138763ffffffff16565b905061072e85828561156f63ffffffff16565b61073f85858561160c63ffffffff16565b600191505061074a56505b9392505050565b600060006002600560005054141515156107a0576040517f08c379a000000000000000000000000000000000000000000000000000000000815260040161079790612fc5565b60405180910390fd5b600260056000508190909055506000866fffffffffffffffffffffffffffffffff16111515610804576040517f08c379a00000000000000000000000000000000000000000000000000000000081526004016107fb90613004565b60405180910390fd5b61082633876fffffffffffffffffffffffffffffffff166118b863ffffffff16565b600060007f000000000000000000000000000000000000000000000000000000000000000073ffffffffffffffffffffffffffffffffffffffff1663a34123a77ffffffffffffffffffffffffffffffffffffffffffffffffffffffffffff277f0620d88108b6040518463ffffffff1660e01b81526004016108aa93929190613043565b6040604051808303816000875af11580156108ca573d600060003e3d6000fd5b505050506040513d601f19601f820116820180604052508101906108ee919061307b565b915091508682101580156109025750858110155b1515610943576040517f08c379a000000000000000000000000000000000000000000000000000000000815260040161093a906130a3565b60405180910390fd5b7f000000000000000000000000000000000000000000000000000000000000000073ffffffffffffffffffffffffffffffffffffffff16634f1eb3d8867ffffffffffffffffffffffffffffffffffffffffffffffffffffffffffff277f0620d88106fffffffffffffffffffffffffffffffff6fffffffffffffffffffffffffffffffff6040518663ffffffff1660e01b81526004016109e79594939291906130e2565b6040604051808303816000875af1158015610a07573d600060003e3d6000fd5b505050506040513d601f19601f82011682018060405250810190610a2b9190613142565b816fffffffffffffffffffffffffffffffff169150806fffffffffffffffffffffffffffffffff16905080945081955050508473ffffffffffffffffffffffffffffffffffffffff163373ffffffffffffffffffffffffffffffffffffffff167febff2602b3f468259e1e99f613fed6691f3a6526effe6ef3e768ba7ae7a36c4f8a8787604051610abe93929190613180565b60405180910390a350505b600160056000508190909055505b94509492505050565b600060129050610aeb565b90565b600060006000600260056000505414151515610b3f576040517f08c379a0000000000000000000000000000000000000000000000000000000008152600401610b3690612fc5565b60405180910390fd5b6002600560005081909090555060007f000000000000000000000000000000000000000000000000000000000000000073ffffffffffffffffffffffffffffffffffffffff16633850c7bd6040518163ffffffff1660e01b815260040160e060405180830381865afa158015610bba573d600060003e3d6000fd5b505050506040513d601f19601f82011682018060405250810190610bde91906131ee565b5050505050509050610c3881610c197ffffffffffffffffffffffffffffffffffffffffffffffffffffffffffff277f0611ab463ffffffff16565b610c2b620d8810611ab463ffffffff16565b8c8c611fd563ffffffff16565b935083507f000000000000000000000000000000000000000000000000000000000000000073ffffffffffffffffffffffffffffffffffffffff16633c8a7d8d307ffffffffffffffffffffffffffffffffffffffffffffffffffffffffffff277f0620d88108860405180602001604052803373ffffffffffffffffffffffffffffffffffffffff16815260200150604051602001610cd79190613297565b6040516020818303038152906040526040518663ffffffff1660e01b8152600401610d069594939291906132c0565b6040604051808303816000875af1158015610d26573d600060003e3d6000fd5b505050506040513d601f19601f82011682018060405250810190610d4a919061307b565b8093508194505050868310158015610d625750858210155b1515610da3576040517f08c379a0000000000000000000000000000000000000000000000000000000008152600401610d9a906130a3565b60405180910390fd5b610dc585856fffffffffffffffffffffffffffffffff1661212263ffffffff16565b8473ffffffffffffffffffffffffffffffffffffffff163373ffffffffffffffffffffffffffffffffffffffff167f4e2ca0515ed1aef1395f66b5303bb5d6f1bf9d61a353fa53f73f8ac9973fa9f6868686604051610e2693929190613180565b60405180910390a3505b600160056000508190909055505b955095509592505050565b60006000610e5b61138763ffffffff16565b9050610efe818585600160005060008673ffffffffffffffffffffffffffffffffffffffff1673ffffffffffffffffffffffffffffffffffffffff16815260200190815260200160002060005060008973ffffffffffffffffffffffffffffffffffffffff1673ffffffffffffffffffffffffffffffffffffffff16815260200190815260200160002060005054610ef39190613357565b61139463ffffffff16565b6001915050610f0956505b92915050565b7f000000000000000000000000000000000000000000000000000000000000000081565b610f50610f4461138763ffffffff16565b826118b863ffffffff16565b5b50565b7ffffffffffffffffffffffffffffffffffffffffffffffffffffffffffff277f081565b6000600060005060008373ffffffffffffffffffffffffffffffffffffffff1673ffffffffffffffffffffffffffffffffffffffff168152602001908152602001600020600050549050610fc7565b919050565b610fea82610fde61138763ffffffff16565b8361156f63ffffffff16565b610ffa82826118b863ffffffff16565b5b5050565b60606004600050805461101190612f6a565b80601f016020809104026020016040519081016040528092919081815260200182805461103d90612f6a565b801561108a5780601f1061105f5761010080835404028352916020019161108a565b820191906000526020600020905b81548152906001019060200180831161106d57829003601f168201915b50505050509050611096565b90565b600060006110ab61138763ffffffff16565b90506000600160005060008373ffffffffffffffffffffffffffffffffffffffff1673ffffffffffffffffffffffffffffffffffffffff16815260200190815260200160002060005060008673ffffffffffffffffffffffffffffffffffffffff1673ffffffffffffffffffffffffffffffffffffffff16815260200190815260200160002060005054905083811015151561117c576040517f08c379a000000000000000000000000000000000000000000000000000000000815260040161117390613377565b60405180910390fd5b61118f828686840361139463ffffffff16565b60019250505061119c5650505b92915050565b600060006111b461138763ffffffff16565b90506111c781858561160c63ffffffff16565b60019150506111d256505b92915050565b7f000000000000000000000000000000000000000000000000000000000000000081565b6000828281019061120d91906133dc565b90507f000000000000000000000000000000000000000000000000000000000000000073ffffffffffffffffffffffffffffffffffffffff163373ffffffffffffffffffffffffffffffffffffffff1614151561126a5760006000fd5b60008511156112aa576112a97f00000000000000000000000000000000000000000000000000000000000000008260000151338861229d63ffffffff16565b5b60008411156112ea576112e97f00000000000000000000000000000000000000000000000000000000000000008260000151338761229d63ffffffff16565b5b505b50505050565b6000600160005060008473ffffffffffffffffffffffffffffffffffffffff1673ffffffffffffffffffffffffffffffffffffffff16815260200190815260200160002060005060008373ffffffffffffffffffffffffffffffffffffffff1673ffffffffffffffffffffffffffffffffffffffff168152602001908152602001600020600050549050611381565b92915050565b6000339050611391565b90565b600073ffffffffffffffffffffffffffffffffffffffff168373ffffffffffffffffffffffffffffffffffffffff1614151515611406576040517f08c379a00000000000000000000000000000000000000000000000000000000081526004016113fd90613458565b60405180910390fd5b600073ffffffffffffffffffffffffffffffffffffffff168273ffffffffffffffffffffffffffffffffffffffff1614151515611478576040517f08c379a000000000000000000000000000000000000000000000000000000000815260040161146f906134bd565b60405180910390fd5b80600160005060008573ffffffffffffffffffffffffffffffffffffffff1673ffffffffffffffffffffffffffffffffffffffff16815260200190815260200160002060005060008473ffffffffffffffffffffffffffffffffffffffff1673ffffffffffffffffffffffffffffffffffffffff1681526020019081526020016000206000508190909055508173ffffffffffffffffffffffffffffffffffffffff168373ffffffffffffffffffffffffffffffffffffffff167f8c5be1e5ebec7d5bd14f71427d1e84f3dd0314c0f7b2291e5b200ac8c7c3b925836040516115619190612c97565b60405180910390a35b505050565b600061158184846112f263ffffffff16565b90507fffffffffffffffffffffffffffffffffffffffffffffffffffffffffffffffff81141515611605578181101515156115f1576040517f08c379a00000000000000000000000000000000000000000000000000000000081526004016115e890613522565b60405180910390fd5b611604848484840361139463ffffffff16565b5b505b505050565b600073ffffffffffffffffffffffffffffffffffffffff168373ffffffffffffffffffffffffffffffffffffffff161415151561167e576040517f08c379a000000000000000000000000000000000000000000000000000000000815260040161167590613561565b60405180910390fd5b600073ffffffffffffffffffffffffffffffffffffffff168273ffffffffffffffffffffffffffffffffffffffff16141515156116f0576040517f08c379a00000000000000000000000000000000000000000000000000000000081526004016116e7906135c6565b60405180910390fd5b61170183838361248a63ffffffff16565b6000600060005060008573ffffffffffffffffffffffffffffffffffffffff1673ffffffffffffffffffffffffffffffffffffffff168152602001908152602001600020600050549050818110151515611790576040517f08c379a00000000000000000000000000000000000000000000000000000000081526004016117879061362b565b60405180910390fd5b818103600060005060008673ffffffffffffffffffffffffffffffffffffffff1673ffffffffffffffffffffffffffffffffffffffff16815260200190815260200160002060005081909090555081600060005060008573ffffffffffffffffffffffffffffffffffffffff1673ffffffffffffffffffffffffffffffffffffffff168152602001908152602001600020600082828250546118329190613357565b9250508190909055508273ffffffffffffffffffffffffffffffffffffffff168473ffffffffffffffffffffffffffffffffffffffff167fddf252ad1be2c89b69c2b068fc378daa952ba7f163c4a11628f55a4df523b3ef846040516118989190612c97565b60405180910390a36118b184848461249063ffffffff16565b505b505050565b600073ffffffffffffffffffffffffffffffffffffffff168273ffffffffffffffffffffffffffffffffffffffff161415151561192a576040517f08c379a000000000000000000000000000000000000000000000000000000000815260040161192190613690565b60405180910390fd5b61193c8260008361248a63ffffffff16565b6000600060005060008473ffffffffffffffffffffffffffffffffffffffff1673ffffffffffffffffffffffffffffffffffffffff1681526020019081526020016000206000505490508181101515156119cb576040517f08c379a00000000000000000000000000000000000000000000000000000000081526004016119c2906136f5565b60405180910390fd5b818103600060005060008573ffffffffffffffffffffffffffffffffffffffff1673ffffffffffffffffffffffffffffffffffffffff16815260200190815260200160002060005081909090555081600260008282825054611a2d919061375a565b925050819090905550600073ffffffffffffffffffffffffffffffffffffffff168373ffffffffffffffffffffffffffffffffffffffff167fddf252ad1be2c89b69c2b068fc378daa952ba7f163c4a11628f55a4df523b3ef84604051611a949190612c97565b60405180910390a3611aae8360008461249063ffffffff16565b505b5050565b6000600060008360020b12611acc578260020b611ada565b8260020b611ad990613779565b5b90507ffffffffffffffffffffffffffffffffffffffffffffffffffffffffffff27618611b06906137b8565b60020b8111151515611b4d576040517f08c379a0000000000000000000000000000000000000000000000000000000008152600401611b44906137fc565b60405180910390fd5b60006000600183161415611b7257700100000000000000000000000000000000611b84565b6ffffcb933bd6fad37aa2d162d1a5940015b70ffffffffffffffffffffffffffffffffff169050600060028316141515611bcb5760806ffff97272373d413259a46990580e213a82611bc4919061383b565b901c905080505b600060048316141515611bfd5760806ffff2e50f5f656932ef12357cf3c7fdcc82611bf6919061383b565b901c905080505b600060088316141515611c2f5760806fffe5caca7e10e4e61c3624eaa0941cd082611c28919061383b565b901c905080505b600060108316141515611c615760806fffcb9843d60f6159c9db58835c92664482611c5a919061383b565b901c905080505b600060208316141515611c935760806fff973b41fa98c081472e6896dfb254c082611c8c919061383b565b901c905080505b600060408316141515611cc55760806fff2ea16466c96a3843ec78b326b5286182611cbe919061383b565b901c905080505b600060808316141515611cf75760806ffe5dee046a99a2a811c461f1969c305382611cf0919061383b565b901c905080505b60006101008316141515611d2a5760806ffcbe86c7900a88aedcffc83b479aa3a482611d23919061383b565b901c905080505b60006102008316141515611d5d5760806ff987a7253ac413176f2b074cf7815e5482611d56919061383b565b901c905080505b60006104008316141515611d905760806ff3392b0822b70005940c7a398e4b70f382611d89919061383b565b901c905080505b60006108008316141515611dc35760806fe7159475a2c29b7443b29c7fa6e889d982611dbc919061383b565b901c905080505b60006110008316141515611df65760806fd097f3bdfd2022b8845ad8f792aa582582611def919061383b565b901c905080505b60006120008316141515611e295760806fa9f746462d870fdf8a65dc1f90e061e582611e22919061383b565b901c905080505b60006140008316141515611e5c5760806f70d869a156d2a1b890bb3df62baf32f782611e55919061383b565b901c905080505b60006180008316141515611e8f5760806f31be135f97d08fd981231505542fcfa682611e88919061383b565b901c905080505b6000620100008316141515611ec35760806f09aa508b5b7a84e1c677de54f3e99bc982611ebc919061383b565b901c905080505b6000620200008316141515611ef65760806e5d6af8dedb81196699c329225ee60482611eef919061383b565b901c905080505b6000620400008316141515611f285760806d2216e584f5fa1ea926041bedfe9882611f21919061383b565b901c905080505b6000620800008316141515611f585760806b048a170391f7dc42444e8fa282611f51919061383b565b901c905080505b60008460020b1315611f9557807fffffffffffffffffffffffffffffffffffffffffffffffffffffffffffffffff611f9091906138b1565b905080505b600064010000000082611fa891906138cf565b14611fb4576001611fb7565b60005b60ff16602082901c611fc99190613357565b9250825050505b919050565b60008373ffffffffffffffffffffffffffffffffffffffff168573ffffffffffffffffffffffffffffffffffffffff16111561201657838580955081965050505b8473ffffffffffffffffffffffffffffffffffffffff168673ffffffffffffffffffffffffffffffffffffffff161115156120655761205c85858561249663ffffffff16565b90508050612118565b8373ffffffffffffffffffffffffffffffffffffffff168673ffffffffffffffffffffffffffffffffffffffff1610156121015760006120ac87868661249663ffffffff16565b905060006120c187898661257563ffffffff16565b9050806fffffffffffffffffffffffffffffffff16826fffffffffffffffffffffffffffffffff16106120f457806120f6565b815b925082505050612117565b61211285858461257563ffffffff16565b905080505b5b5b95945050505050565b600073ffffffffffffffffffffffffffffffffffffffff168273ffffffffffffffffffffffffffffffffffffffff1614151515612194576040517f08c379a000000000000000000000000000000000000000000000000000000000815260040161218b906138ed565b60405180910390fd5b6121a66000838361248a63ffffffff16565b806002600082828250546121ba9190613357565b92505081909090555080600060005060008473ffffffffffffffffffffffffffffffffffffffff1673ffffffffffffffffffffffffffffffffffffffff168152602001908152602001600020600082828250546122179190613357565b9250508190909055508173ffffffffffffffffffffffffffffffffffffffff16600073ffffffffffffffffffffffffffffffffffffffff167fddf252ad1be2c89b69c2b068fc378daa952ba7f163c4a11628f55a4df523b3ef8360405161227e9190612c97565b60405180910390a36122986000838361249063ffffffff16565b5b5050565b7f000000000000000000000000000000000000000000000000000000000000000073ffffffffffffffffffffffffffffffffffffffff168473ffffffffffffffffffffffffffffffffffffffff161480156122f85750804710155b15612425577f000000000000000000000000000000000000000000000000000000000000000073ffffffffffffffffffffffffffffffffffffffff1663d0e30db0826040518263ffffffff1660e01b81526004016000604051808303818588803b1580156123665760006000fd5b505af115801561237b573d600060003e3d6000fd5b50505050507f000000000000000000000000000000000000000000000000000000000000000073ffffffffffffffffffffffffffffffffffffffff1663a9059cbb83836040518363ffffffff1660e01b81526004016123db92919061392c565b6020604051808303816000875af11580156123fb573d600060003e3d6000fd5b505050506040513d601f19601f8201168201806040525081019061241f919061395b565b50612483565b3073ffffffffffffffffffffffffffffffffffffffff168373ffffffffffffffffffffffffffffffffffffffff16141561246f5761246a84838361261163ffffffff16565b612482565b6124818484848461269e63ffffffff16565b5b5b5b50505050565b5b505050565b5b505050565b60008273ffffffffffffffffffffffffffffffffffffffff168473ffffffffffffffffffffffffffffffffffffffff1611156124d757828480945081955050505b60006125238573ffffffffffffffffffffffffffffffffffffffff168573ffffffffffffffffffffffffffffffffffffffff166c0100000000000000000000000061272e63ffffffff16565b905061256561255a848388886125399190613980565b73ffffffffffffffffffffffffffffffffffffffff1661272e63ffffffff16565b61285263ffffffff16565b91505061256e56505b9392505050565b60008273ffffffffffffffffffffffffffffffffffffffff168473ffffffffffffffffffffffffffffffffffffffff1611156125b657828480945081955050505b6126036125f8836c0100000000000000000000000087876125d79190613980565b73ffffffffffffffffffffffffffffffffffffffff1661272e63ffffffff16565b61285263ffffffff16565b905061260a565b9392505050565b6126988363a9059cbb60e01b848460405160240161263092919061392c565b604051602081830303815290604052907bffffffffffffffffffffffffffffffffffffffffffffffffffffffff19166020820180517bffffffffffffffffffffffffffffffffffffffffffffffffffffffff838183161783525050505061287e63ffffffff16565b5b505050565b612727846323b872dd60e01b8585856040516024016126bf939291906139be565b604051602081830303815290604052907bffffffffffffffffffffffffffffffffffffffffffffffffffffffff19166020820180517bffffffffffffffffffffffffffffffffffffffffffffffffffffffff838183161783525050505061287e63ffffffff16565b5b50505050565b6000600060006000198587098587029250828110838203039150506000811415612771576000841115156127625760006000fd5b8382049250829250505061284b565b80841115156127805760006000fd5b60008486880990508281118203915080830392506000856001877fffffffffffffffffffffffffffffffffffffffffffffffffffffffffffffffff03011690508050808604955080840493506001818260000304019050808302841793508350600060028760030218905080870260020381029050805080870260020381029050805080870260020381029050805080870260020381029050805080870260020381029050805080870260020381029050805080850295508550508494505050505061284b56505050505b9392505050565b600081829150816fffffffffffffffffffffffffffffffff161415156128785760006000fd5b5b919050565b60006128e3826040518060400160405280602081526020017f5361666545524332303a206c6f772d6c6576656c2063616c6c206661696c65648152602001508573ffffffffffffffffffffffffffffffffffffffff1661294b9092919063ffffffff16565b90506000815111156129455780806020019051810190612903919061395b565b1515612944576040517f08c379a000000000000000000000000000000000000000000000000000000000815260040161293b906139f8565b60405180910390fd5b5b505b5050565b6060612960848460008561296e63ffffffff16565b9050612967565b9392505050565b60608247101515156129b5576040517f08c379a00000000000000000000000000000000000000000000000000000000081526004016129ac90613a5d565b60405180910390fd5b6129c485612a9a63ffffffff16565b1515612a05576040517f08c379a00000000000000000000000000000000000000000000000000000000081526004016129fc90613ac2565b60405180910390fd5b600060008673ffffffffffffffffffffffffffffffffffffffff168587604051612a2f9190613b01565b60006040518083038185875af1925050503d8060008114612a6c576040519150601f19603f3d011682016040523d82523d6000602084013e612a71565b606091505b5091509150612a87828286612ac363ffffffff16565b92505050612a925650505b949350505050565b600060008273ffffffffffffffffffffffffffffffffffffffff163b119050612abe565b919050565b60608315612ad757829050612b2e56612b2d565b600083511115612aef5782518084602001fd50612b2c565b816040517f08c379a0000000000000000000000000000000000000000000000000000000008152600401612b239190612bbb565b60405180910390fd5b5b5b939250505056613b20565b60005b83811015612b585780820151818401525b602081019050612b3c565b83811115612b67576000848401525b505050505b565b60008151808452612b86816020860160208601612b39565b60207fffffffffffffffffffffffffffffffffffffffffffffffffffffffffffffffe0601f8301168501019150505b92915050565b602081526000612bce6020830184612b6e565b90505b92915050565b73ffffffffffffffffffffffffffffffffffffffff811681141515612bfc5760006000fd5b505b565b6000600060408385031215612c155760006000fd5b8235612c2081612bd7565b80925050602083013590505b9250929050565b600060208201905082151582525b92915050565b600060208201905073ffffffffffffffffffffffffffffffffffffffff831682525b92915050565b600060208201905073ffffffffffffffffffffffffffffffffffffffff831682525b92915050565b60006020820190508282525b92915050565b60006020820190508260020b82525b92915050565b60006000600060608486031215612cd55760006000fd5b8335612ce081612bd7565b809350506020840135612cf281612bd7565b80925050604084013590505b9250925092565b6fffffffffffffffffffffffffffffffff811681141515612d265760006000fd5b505b565b600060006000600060808587031215612d435760006000fd5b8435612d4e81612d05565b8094505060208501359250604085013591506060850135612d6e81612bd7565b809150505b92959194509250565b60006040820190508382528260208301525b9392505050565b600060208201905060ff831682525b92915050565b6000600060006000600060a08688031215612dc55760006000fd5b853594506020860135935060408601359250606086013591506080860135612dec81612bd7565b809150505b9295509295909350565b60006060820190506fffffffffffffffffffffffffffffffff851682528360208301528260408301525b949350505050565b600060208201905073ffffffffffffffffffffffffffffffffffffffff831682525b92915050565b600060208284031215612e685760006000fd5b813590505b92915050565b600060208284031215612e865760006000fd5b8135612e9181612bd7565b809150505b92915050565b600060006000600060608587031215612eb55760006000fd5b8435935060208501359250604085013567ffffffffffffffff80821115612edc5760006000fd5b818701915087601f8301121515612ef35760006000fd5b813581811115612f035760006000fd5b886020828501011115612f165760006000fd5b6020830194508093505050505b92959194509250565b6000600060408385031215612f415760006000fd5b8235612f4c81612bd7565b809250506020830135612f5e81612bd7565b809150505b9250929050565b60008160011c905060018216801515612f8457607f821691505b60208210811415612fbe577f4e487b7100000000000000000000000000000000000000000000000000000000600052602260045260246000fd5b505b919050565b60208152601f60208201527f5265656e7472616e637947756172643a207265656e7472616e742063616c6c00604082015260006060820190505b919050565b60208152600460208201527f4e6f6f7000000000000000000000000000000000000000000000000000000000604082015260006060820190505b919050565b60006060820190508460020b82528360020b60208301526fffffffffffffffffffffffffffffffff831660408301525b949350505050565b60006000604083850312156130905760006000fd5b82519150602083015190505b9250929050565b60208152601460208201527f507269636520736c69707061676520636865636b000000000000000000000000604082015260006060820190505b919050565b600060a08201905073ffffffffffffffffffffffffffffffffffffffff871682528560020b60208301528460020b60408301526fffffffffffffffffffffffffffffffff80851660608401528084166080840152505b9695505050505050565b60006000604083850312156131575760006000fd5b825161316281612d05565b80925050602083015161317481612d05565b809150505b9250929050565b60006060820190506fffffffffffffffffffffffffffffffff851682528360208301528260408301525b949350505050565b60008151905061ffff8116811415156131cb5760006000fd5b5b919050565b600081519050801515811415156131e85760006000fd5b5b919050565b600060006000600060006000600060e0888a03121561320d5760006000fd5b875161321881612bd7565b8097505060208801518060020b811415156132335760006000fd5b80965050613243604089016131b2565b9450613251606089016131b2565b935061325f608089016131b2565b925060a088015160ff8116811415156132785760006000fd5b8092505061328860c089016131d1565b90505b92959891949750929550565b600060208201905073ffffffffffffffffffffffffffffffffffffffff83511682525b92915050565b73ffffffffffffffffffffffffffffffffffffffff861681528460020b60208201528360020b60408201526fffffffffffffffffffffffffffffffff8316606082015260a06080820152600061331960a0830184612b6e565b90505b9695505050505050565b7f4e487b7100000000000000000000000000000000000000000000000000000000600052601160045260246000fd5b565b6000821982111561336b5761336a613326565b5b82820190505b92915050565b60208152602560208201527f45524332303a2064656372656173656420616c6c6f77616e63652062656c6f7760408201527f207a65726f000000000000000000000000000000000000000000000000000000606082015260006080820190505b919050565b6000602082840312156133ef5760006000fd5b6040516020810181811067ffffffffffffffff82111715613439577f4e487b7100000000000000000000000000000000000000000000000000000000600052604160045260246000fd5b8060405250823561344981612bd7565b80825250809150505b92915050565b60208152602460208201527f45524332303a20617070726f76652066726f6d20746865207a65726f2061646460408201527f7265737300000000000000000000000000000000000000000000000000000000606082015260006080820190505b919050565b60208152602260208201527f45524332303a20617070726f766520746f20746865207a65726f20616464726560408201527f7373000000000000000000000000000000000000000000000000000000000000606082015260006080820190505b919050565b60208152601d60208201527f45524332303a20696e73756666696369656e7420616c6c6f77616e6365000000604082015260006060820190505b919050565b60208152602560208201527f45524332303a207472616e736665722066726f6d20746865207a65726f20616460408201527f6472657373000000000000000000000000000000000000000000000000000000606082015260006080820190505b919050565b60208152602360208201527f45524332303a207472616e7366657220746f20746865207a65726f206164647260408201527f6573730000000000000000000000000000000000000000000000000000000000606082015260006080820190505b919050565b60208152602660208201527f45524332303a207472616e7366657220616d6f756e742065786365656473206260408201527f616c616e63650000000000000000000000000000000000000000000000000000606082015260006080820190505b919050565b60208152602160208201527f45524332303a206275726e2066726f6d20746865207a65726f2061646472657360408201527f7300000000000000000000000000000000000000000000000000000000000000606082015260006080820190505b919050565b60208152602260208201527f45524332303a206275726e20616d6f756e7420657863656564732062616c616e60408201527f6365000000000000000000000000000000000000000000000000000000000000606082015260006080820190505b919050565b60008282101561376d5761376c613326565b5b82820390505b92915050565b60007f80000000000000000000000000000000000000000000000000000000000000008214156137ac576137ab613326565b5b8160000390505b919050565b60008160020b7fffffffffffffffffffffffffffffffffffffffffffffffffffffffffff8000008114156137ef576137ee613326565b5b806000039150505b919050565b60208152600160208201527f5400000000000000000000000000000000000000000000000000000000000000604082015260006060820190505b919050565b6000817fffffffffffffffffffffffffffffffffffffffffffffffffffffffffffffffff048311821515161561387457613873613326565b5b82820290505b92915050565b7f4e487b7100000000000000000000000000000000000000000000000000000000600052601260045260246000fd5b565b60008215156138c3576138c2613880565b5b82820490505b92915050565b60008215156138e1576138e0613880565b5b82820690505b92915050565b60208152601f60208201527f45524332303a206d696e7420746f20746865207a65726f206164647265737300604082015260006060820190505b919050565b600060408201905073ffffffffffffffffffffffffffffffffffffffff841682528260208301525b9392505050565b60006020828403121561396e5760006000fd5b613977826131d1565b90505b92915050565b600073ffffffffffffffffffffffffffffffffffffffff8083168185169150818110156139b0576139af613326565b5b818103925050505b92915050565b600060608201905073ffffffffffffffffffffffffffffffffffffffff80861683528085166020840152508260408301525b949350505050565b60208152602a60208201527f5361666545524332303a204552433230206f7065726174696f6e20646964206e60408201527f6f74207375636365656400000000000000000000000000000000000000000000606082015260006080820190505b919050565b60208152602660208201527f416464726573733a20696e73756666696369656e742062616c616e636520666f60408201527f722063616c6c0000000000000000000000000000000000000000000000000000606082015260006080820190505b919050565b60208152601d60208201527f416464726573733a2063616c6c20746f206e6f6e2d636f6e7472616374000000604082015260006060820190505b919050565b60008251613b13818460208701612b39565b8083019150505b92915050565bfea2646970667358221220b4d3739629e74647abc8d08e1df2180cb3cf0e252510d568cf53182d5a1a06ce64736f6c634300080c0033a2646970667358221220145b7b3e229291fc74ca1b9b34f418d22a37d70ba8b6d82a36b52108ec60baad64736f6c634300080c0033",
  "linkReferences": {},
  "deployedLinkReferences": {}
}