{
  "_format": "hh-sol-artifact-1",
  "contractName": "TcpAllocation",
  "sourceName": "contracts/core/auxiliary/allocations/TcpAllocation.sol",
  "abi": [
    {
      "inputs": [
        {
          "components": [
            {
              "internalType": "address",
              "name": "Governor",
              "type": "address"
            },
            {
              "internalType": "contract IERC20",
              "name": "Tcp",
              "type": "address"
            },
            {
              "internalType": "address",
              "name": "Guardian",
              "type": "address"
            }
          ],
          "internalType": "struct DaoPositionCreator.DaoPositionCreatorConstructorParams",
          "name": "params",
          "type": "tuple"
        }
      ],
      "stateMutability": "nonpayable",
      "type": "constructor"
    },
    {
      "anonymous": false,
      "inputs": [
        {
          "indexed": true,
          "internalType": "address",
          "name": "dest",
          "type": "address"
        },
        {
          "indexed": false,
          "internalType": "uint256",
          "name": "count",
          "type": "uint256"
        }
      ],
      "name": "IncentiveDistributed",
      "type": "event"
    },
    {
      "anonymous": false,
      "inputs": [
        {
          "indexed": true,
          "internalType": "address",
          "name": "receiver",
          "type": "address"
        },
        {
          "indexed": false,
          "internalType": "uint128",
          "name": "count",
          "type": "uint128"
        }
      ],
      "name": "LockPositionIncreased",
      "type": "event"
    },
    {
      "anonymous": false,
      "inputs": [
        {
          "indexed": true,
          "internalType": "address",
          "name": "receiver",
          "type": "address"
        },
        {
          "indexed": true,
          "internalType": "uint8",
          "name": "lockDurationMonths",
          "type": "uint8"
        },
        {
          "indexed": false,
          "internalType": "uint256",
          "name": "count",
          "type": "uint256"
        }
      ],
      "name": "TokensLocked",
      "type": "event"
    },
    {
      "inputs": [],
      "name": "abdicate",
      "outputs": [],
      "stateMutability": "nonpayable",
      "type": "function"
    },
    {
      "inputs": [
        {
          "internalType": "address",
          "name": "",
          "type": "address"
        }
      ],
      "name": "allocationCaps",
      "outputs": [
        {
          "internalType": "uint256",
          "name": "",
          "type": "uint256"
        }
      ],
      "stateMutability": "view",
      "type": "function"
    },
    {
      "inputs": [],
      "name": "dao",
      "outputs": [
        {
          "internalType": "contract ITokenLockDao",
          "name": "",
          "type": "address"
        }
      ],
      "stateMutability": "view",
      "type": "function"
    },
    {
      "inputs": [],
      "name": "deployer",
      "outputs": [
        {
          "internalType": "address",
          "name": "",
          "type": "address"
        }
      ],
      "stateMutability": "view",
      "type": "function"
    },
    {
      "inputs": [
        {
          "internalType": "address",
          "name": "dest",
          "type": "address"
        },
        {
          "internalType": "uint128",
          "name": "count",
          "type": "uint128"
        }
      ],
      "name": "getTokens",
      "outputs": [],
      "stateMutability": "nonpayable",
      "type": "function"
    },
    {
      "inputs": [
        {
          "internalType": "address",
          "name": "user",
          "type": "address"
        }
      ],
      "name": "getUserAllocation",
      "outputs": [
        {
          "components": [
            {
              "internalType": "uint128",
              "name": "totalAllocation",
              "type": "uint128"
            },
            {
              "internalType": "uint128",
              "name": "minimumAverageTokensAllocatedxLockYears",
              "type": "uint128"
            },
            {
              "internalType": "uint128",
              "name": "tokensAllocated",
              "type": "uint128"
            },
            {
              "internalType": "uint128",
              "name": "cumulativeTokensAllocatedxLockYears",
              "type": "uint128"
            }
          ],
          "internalType": "struct MinAverageLockDuration.UserAllocation",
          "name": "_userAllocation",
          "type": "tuple"
        }
      ],
      "stateMutability": "view",
      "type": "function"
    },
    {
      "inputs": [],
      "name": "guardian",
      "outputs": [
        {
          "internalType": "address",
          "name": "",
          "type": "address"
        }
      ],
      "stateMutability": "view",
      "type": "function"
    },
    {
      "inputs": [],
      "name": "incentiveAllocation",
      "outputs": [
        {
          "internalType": "address",
          "name": "",
          "type": "address"
        }
      ],
      "stateMutability": "view",
      "type": "function"
    },
    {
      "inputs": [
        {
          "internalType": "address",
          "name": "allocatee",
          "type": "address"
        },
        {
          "internalType": "uint128",
          "name": "count",
          "type": "uint128"
        }
      ],
      "name": "increaseAllocation",
      "outputs": [],
      "stateMutability": "nonpayable",
      "type": "function"
    },
    {
      "inputs": [
        {
          "components": [
            {
              "internalType": "address",
              "name": "governor",
              "type": "address"
            },
            {
              "internalType": "uint256",
              "name": "governorAllocationCount",
              "type": "uint256"
            },
            {
              "internalType": "address",
              "name": "genesisAllocation",
              "type": "address"
            },
            {
              "internalType": "uint256",
              "name": "genesisAllocationCount",
              "type": "uint256"
            },
            {
              "internalType": "address",
              "name": "incentiveAllocation",
              "type": "address"
            },
            {
              "internalType": "uint128",
              "name": "incentiveAllocationCount",
              "type": "uint128"
            },
            {
              "internalType": "address[]",
              "name": "allocationReceivers",
              "type": "address[]"
            },
            {
              "internalType": "uint128[]",
              "name": "allocationAmounts",
              "type": "uint128[]"
            }
          ],
          "internalType": "struct TcpAllocation.InitParams",
          "name": "params",
          "type": "tuple"
        }
      ],
      "name": "init",
      "outputs": [],
      "stateMutability": "nonpayable",
      "type": "function"
    },
    {
      "inputs": [
        {
          "internalType": "address",
          "name": "dest",
          "type": "address"
        },
        {
          "internalType": "uint128",
          "name": "count",
          "type": "uint128"
        },
        {
          "internalType": "uint8",
          "name": "lockDurationMonths",
          "type": "uint8"
        }
      ],
      "name": "lockTokensIntoDao",
      "outputs": [],
      "stateMutability": "nonpayable",
      "type": "function"
    },
    {
      "inputs": [
        {
          "internalType": "address",
          "name": "",
          "type": "address"
        }
      ],
      "name": "restrictedToUnlockDuration",
      "outputs": [
        {
          "internalType": "bool",
          "name": "",
          "type": "bool"
        }
      ],
      "stateMutability": "view",
      "type": "function"
    },
    {
      "inputs": [],
      "name": "restrictedUnlockTime",
      "outputs": [
        {
          "internalType": "uint64",
          "name": "",
          "type": "uint64"
        }
      ],
      "stateMutability": "view",
      "type": "function"
    },
    {
      "inputs": [
        {
          "internalType": "address",
          "name": "_dao",
          "type": "address"
        }
      ],
      "name": "setDao",
      "outputs": [],
      "stateMutability": "nonpayable",
      "type": "function"
    },
    {
      "inputs": [],
      "name": "startTime",
      "outputs": [
        {
          "internalType": "uint64",
          "name": "",
          "type": "uint64"
        }
      ],
      "stateMutability": "view",
      "type": "function"
    },
    {
      "inputs": [],
      "name": "tcp",
      "outputs": [
        {
          "internalType": "contract IERC20",
          "name": "",
          "type": "address"
        }
      ],
      "stateMutability": "view",
      "type": "function"
    },
    {
      "inputs": [],
      "name": "tokenMinter",
      "outputs": [
        {
          "internalType": "contract ITokenIncentiveMinter",
          "name": "",
          "type": "address"
        }
      ],
      "stateMutability": "view",
      "type": "function"
    }
  ],
  "bytecode": "0x60e0604052348015620000125760006000fd5b506040516200326f3803806200326f833981810160405281019062000038919062000203565b5b805b805b806000015173ffffffffffffffffffffffffffffffffffffffff1660808173ffffffffffffffffffffffffffffffffffffffff1660601b81526014015050806020015173ffffffffffffffffffffffffffffffffffffffff1660a08173ffffffffffffffffffffffffffffffffffffffff1660601b815260140150508060400151600060006101000a81548173ffffffffffffffffffffffffffffffffffffffff021916908373ffffffffffffffffffffffffffffffffffffffff1602179055505b50620001106200017c60201b60201c565b67ffffffffffffffff1660c08167ffffffffffffffff1660c01b815260080150505b5033600660006101000a81548173ffffffffffffffffffffffffffffffffffffffff021916908373ffffffffffffffffffffffffffffffffffffffff1602179055505b50620002f0565b600062000196426200019e60201b62000ee417909060201c565b905080505b90565b60006801000000000000000082101515620001f0576040517f08c379a0000000000000000000000000000000000000000000000000000000008152600401620001e79062000293565b60405180910390fd5b819050620001f9565b91905056620002ef565b60006060828403121562000215578081fd5b604051606081018181106001600160401b03821117156200024457634e487b7160e01b83526041600452602483fd5b806040525082516200025681620002d2565b8082525060208301516200026a81620002d2565b8060208301525060408301516200028181620002d2565b80604083015250809150505b92915050565b60208152601160208201527f6d6f7265207468616e2036342062697473000000000000000000000000000000604082015260006060820190505b919050565b6001600160a01b03811681141515620002eb5760006000fd5b505b565b5b60805160601c60a05160601c60c05160c01c612f236200034c600039600081816106ef01528181610a7b015261147e0152600081816107cc01528181610a290152611acc015260008181610d190152611eca0152612f236000f3fe60806040523480156100115760006000fd5b50600436106101205760003560e01c80636637b882116100b3578063cfb3647b11610082578063ee5f1ee411610067578063ee5f1ee4146102d2578063f44c3881146102ee578063f4c4a6131461030c57610120565b8063cfb3647b14610296578063d5f39488146102b457610120565b80636637b8821461021057806378e979251461022c578063a9778eb01461024a578063b920ade21461026657610120565b806336fc02f4116100ef57806336fc02f41461019a5780634162169f146101b8578063452a9320146101d6578063628e2e85146101f457610120565b806311fd38cc1461012657806323fe981d14610156578063262406de14610172578063314e99a21461019057610120565b60006000fd5b610140600480360381019061013b9190612418565b61033c565b60405161014d919061269c565b60405180910390f35b610170600480360381019061016b91906124eb565b610361565b005b61017a61071d565b6040516101879190612645565b60405180910390f35b610198610743565b005b6101a26107ca565b6040516101af91906126b0565b60405180910390f35b6101c06107ee565b6040516101cd9190612700565b60405180910390f35b6101de610814565b6040516101eb9190612645565b60405180910390f35b61020e6004803603810190610209919061246f565b61083a565b005b61022a60048036038101906102259190612418565b610934565b005b610234610a79565b6040516102419190612bff565b60405180910390f35b610264600480360381019061025f919061243b565b610a9d565b005b610280600480360381019061027b9190612418565b610b83565b60405161028d9190612b7e565b60405180910390f35b61029e610d17565b6040516102ab91906126d8565b60405180910390f35b6102bc610d3b565b6040516102c99190612645565b60405180910390f35b6102ec60048036038101906102e7919061243b565b610d61565b005b6102f6610eaf565b6040516103039190612bff565b60405180910390f35b61032660048036038101906103219190612418565b610ec9565b6040516103339190612bed565b60405180910390f35b600460005060205280600052604060002060009150909054906101000a900460ff1681565b6103c0600660009054906101000a900473ffffffffffffffffffffffffffffffffffffffff1673ffffffffffffffffffffffffffffffffffffffff163373ffffffffffffffffffffffffffffffffffffffff1614610f4063ffffffff16565b600660006101000a81549073ffffffffffffffffffffffffffffffffffffffff02191690556103f86301e13380610f8663ffffffff16565b600560006101000a81548167ffffffffffffffff021916908367ffffffffffffffff1602179055508060e00151518160c001515114151561046e576040517f08c379a00000000000000000000000000000000000000000000000000000000081526004016104659061283e565b60405180910390fd5b6000600090505b8160c00151518110156105f2576001600460005060008460c00151848151811015156104ca577f4e487b7100000000000000000000000000000000000000000000000000000000600052603260045260246000fd5b602002602001015173ffffffffffffffffffffffffffffffffffffffff1673ffffffffffffffffffffffffffffffffffffffff16815260200190815260200160002060006101000a81548160ff0219169083151502179055506105de8260c0015182815181101515610565577f4e487b7100000000000000000000000000000000000000000000000000000000600052603260045260246000fd5b60200260200101518360e00151838151811015156105ac577f4e487b7100000000000000000000000000000000000000000000000000000000600052603260045260246000fd5b60200260200101516105d360036301e133806105c89190612d8e565b610f8663ffffffff16565b610fbc63ffffffff16565b5b80806105ea90612e4b565b915050610475565b508060800151600560086101000a81548173ffffffffffffffffffffffffffffffffffffffff021916908373ffffffffffffffffffffffffffffffffffffffff160217905550806020015160036000506000836000015173ffffffffffffffffffffffffffffffffffffffff1673ffffffffffffffffffffffffffffffffffffffff168152602001908152602001600020600050819090905550806060015160036000506000836040015173ffffffffffffffffffffffffffffffffffffffff1673ffffffffffffffffffffffffffffffffffffffff16815260200190815260200160002060005081909090555061071981608001518260a001517f0000000000000000000000000000000000000000000000000000000000000000610fbc63ffffffff16565b5b50565b600560089054906101000a900473ffffffffffffffffffffffffffffffffffffffff1681565b6107a2600060009054906101000a900473ffffffffffffffffffffffffffffffffffffffff1673ffffffffffffffffffffffffffffffffffffffff163373ffffffffffffffffffffffffffffffffffffffff1614610f4063ffffffff16565b600060006101000a81549073ffffffffffffffffffffffffffffffffffffffff02191690555b565b7f000000000000000000000000000000000000000000000000000000000000000081565b600160009054906101000a900473ffffffffffffffffffffffffffffffffffffffff1681565b600060009054906101000a900473ffffffffffffffffffffffffffffffffffffffff1681565b600460005060003373ffffffffffffffffffffffffffffffffffffffff1673ffffffffffffffffffffffffffffffffffffffff16815260200190815260200160002060009054906101000a900460ff161561091d576108af6108a48260ff1661128463ffffffff16565b610f8663ffffffff16565b67ffffffffffffffff16600560009054906101000a900467ffffffffffffffff1667ffffffffffffffff1610151561091c576040517f08c379a000000000000000000000000000000000000000000000000000000000815260040161091390612960565b60405180910390fd5b5b61092e8282856112bf63ffffffff16565b5b505050565b610993600060009054906101000a900473ffffffffffffffffffffffffffffffffffffffff1673ffffffffffffffffffffffffffffffffffffffff163373ffffffffffffffffffffffffffffffffffffffff1614610f4063ffffffff16565b6109a28161131763ffffffff16565b15156109e3576040517f08c379a00000000000000000000000000000000000000000000000000000000081526004016109da906129de565b60405180910390fd5b80600160006101000a81548173ffffffffffffffffffffffffffffffffffffffff021916908373ffffffffffffffffffffffffffffffffffffffff160217905550610a757f0000000000000000000000000000000000000000000000000000000000000000827fffffffffffffffffffffffffffffffffffffffffffffffffffffffffffffffff61133163ffffffff16565b5b50565b7f000000000000000000000000000000000000000000000000000000000000000081565b600460005060003373ffffffffffffffffffffffffffffffffffffffff1673ffffffffffffffffffffffffffffffffffffffff16815260200190815260200160002060009054906101000a900460ff1615610b6e57610b006113be63ffffffff16565b67ffffffffffffffff16600560009054906101000a900467ffffffffffffffff1667ffffffffffffffff16101515610b6d576040517f08c379a0000000000000000000000000000000000000000000000000000000008152600401610b6490612960565b60405180910390fd5b5b610b7e82826113d963ffffffff16565b5b5050565b610b8b612241565b600260005060008373ffffffffffffffffffffffffffffffffffffffff1673ffffffffffffffffffffffffffffffffffffffff1681526020019081526020016000206000506040518060800160405290816000820160009054906101000a90046fffffffffffffffffffffffffffffffff166fffffffffffffffffffffffffffffffff166fffffffffffffffffffffffffffffffff1681526020016000820160109054906101000a90046fffffffffffffffffffffffffffffffff166fffffffffffffffffffffffffffffffff166fffffffffffffffffffffffffffffffff1681526020016001820160009054906101000a90046fffffffffffffffffffffffffffffffff166fffffffffffffffffffffffffffffffff166fffffffffffffffffffffffffffffffff1681526020016001820160109054906101000a90046fffffffffffffffffffffffffffffffff166fffffffffffffffffffffffffffffffff166fffffffffffffffffffffffffffffffff168152602001505090508050809050610d12565b919050565b7f000000000000000000000000000000000000000000000000000000000000000081565b600660009054906101000a900473ffffffffffffffffffffffffffffffffffffffff1681565b610dcb816fffffffffffffffffffffffffffffffff16600360005060003373ffffffffffffffffffffffffffffffffffffffff1673ffffffffffffffffffffffffffffffffffffffff1681526020019081526020016000206000505461141d90919063ffffffff16565b600360005060003373ffffffffffffffffffffffffffffffffffffffff1673ffffffffffffffffffffffffffffffffffffffff1681526020019081526020016000206000508190909055506000600460005060008473ffffffffffffffffffffffffffffffffffffffff1673ffffffffffffffffffffffffffffffffffffffff16815260200190815260200160002060009054906101000a900460ff16610e76576301e13380610e88565b60036301e13380610e879190612d8e565b5b9050610ea98383610e9e84610f8663ffffffff16565b610fbc63ffffffff16565b505b5050565b600560009054906101000a900467ffffffffffffffff1681565b60036000506020528060005260406000206000915090505481565b60006801000000000000000082101515610f33576040517f08c379a0000000000000000000000000000000000000000000000000000000008152600401610f2a90612b00565b60405180910390fd5b819050610f3b565b919050565b801515610f82576040517f08c379a0000000000000000000000000000000000000000000000000000000008152600401610f79906128e2565b60405180910390fd5b5b50565b6000610fb282610f9a6113be63ffffffff16565b67ffffffffffffffff1661143890919063ffffffff16565b905080505b919050565b6000826fffffffffffffffffffffffffffffffff16111515611013576040517f08c379a000000000000000000000000000000000000000000000000000000000815260040161100a90612a5c565b60405180910390fd5b61109c82600260005060008673ffffffffffffffffffffffffffffffffffffffff1673ffffffffffffffffffffffffffffffffffffffff16815260200190815260200160002060005060000160009054906101000a90046fffffffffffffffffffffffffffffffff166fffffffffffffffffffffffffffffffff1661145390919063ffffffff16565b600260005060008573ffffffffffffffffffffffffffffffffffffffff1673ffffffffffffffffffffffffffffffffffffffff16815260200190815260200160002060005060000160006101000a8154816fffffffffffffffffffffffffffffffff02191690836fffffffffffffffffffffffffffffffff1602179055506111b261112d838361146e63ffffffff16565b600260005060008673ffffffffffffffffffffffffffffffffffffffff1673ffffffffffffffffffffffffffffffffffffffff16815260200190815260200160002060005060000160109054906101000a90046fffffffffffffffffffffffffffffffff166fffffffffffffffffffffffffffffffff1661145390919063ffffffff16565b600260005060008573ffffffffffffffffffffffffffffffffffffffff1673ffffffffffffffffffffffffffffffffffffffff16815260200190815260200160002060005060000160106101000a8154816fffffffffffffffffffffffffffffffff02191690836fffffffffffffffffffffffffffffffff1602179055508273ffffffffffffffffffffffffffffffffffffffff167f39269bcc94baba79914cd1fbb42780568649c4411ad91db4c52e1e029bde31e2836040516112769190612bc9565b60405180910390a25b505050565b6000600c6112a96301e133808467ffffffffffffffff166114fc90919063ffffffff16565b6112b39190612d3c565b90506112ba565b919050565b6112ee836112e36112d88560ff1661128463ffffffff16565b610f8663ffffffff16565b61151763ffffffff16565b611311836fffffffffffffffffffffffffffffffff168383611a2f63ffffffff16565b5b505050565b60006000823b90506000811191505061132c56505b919050565b6113b88363095ea7b360e01b848460405160240161135092919061266d565b604051602081830303815290604052907bffffffffffffffffffffffffffffffffffffffffffffffffffffffff19166020820180517bffffffffffffffffffffffffffffffffffffffffffffffffffffffff8381831617835250505050611c9e63ffffffff16565b5b505050565b60006113d142610ee4909063ffffffff16565b905080505b90565b6113f6816113eb6113be63ffffffff16565b61151763ffffffff16565b61141882826fffffffffffffffffffffffffffffffff16611d6b63ffffffff16565b5b5050565b6000818361142b9190612dc5565b9050611432565b92915050565b600081836114469190612d09565b905061144d565b92915050565b600081836114619190612cce565b9050611468565b92915050565b60006114ef6114e26114c16114b67f00000000000000000000000000000000000000000000000000000000000000008667ffffffffffffffff16611dce90919063ffffffff16565b611de963ffffffff16565b856fffffffffffffffffffffffffffffffff16611e1890919063ffffffff16565b611e3e909063ffffffff16565b90506114f6565b92915050565b6000818361150a9190612d8e565b9050611511565b92915050565b6000826fffffffffffffffffffffffffffffffff1611151561156e576040517f08c379a000000000000000000000000000000000000000000000000000000000815260040161156590612921565b60405180910390fd5b6000600260005060003373ffffffffffffffffffffffffffffffffffffffff1673ffffffffffffffffffffffffffffffffffffffff1681526020019081526020016000206000506040518060800160405290816000820160009054906101000a90046fffffffffffffffffffffffffffffffff166fffffffffffffffffffffffffffffffff166fffffffffffffffffffffffffffffffff1681526020016000820160109054906101000a90046fffffffffffffffffffffffffffffffff166fffffffffffffffffffffffffffffffff166fffffffffffffffffffffffffffffffff1681526020016001820160009054906101000a90046fffffffffffffffffffffffffffffffff166fffffffffffffffffffffffffffffffff166fffffffffffffffffffffffffffffffff1681526020016001820160109054906101000a90046fffffffffffffffffffffffffffffffff166fffffffffffffffffffffffffffffffff166fffffffffffffffffffffffffffffffff168152602001505090506117168382604001516fffffffffffffffffffffffffffffffff1661145390919063ffffffff16565b81604001906fffffffffffffffffffffffffffffffff1690816fffffffffffffffffffffffffffffffff168152602001505080600001516fffffffffffffffffffffffffffffffff1681604001516fffffffffffffffffffffffffffffffff16111515156117b9576040517f08c379a00000000000000000000000000000000000000000000000000000000081526004016117b0906127ff565b60405180910390fd5b6117f16117cc848461146e63ffffffff16565b82606001516fffffffffffffffffffffffffffffffff1661145390919063ffffffff16565b81606001906fffffffffffffffffffffffffffffffff1690816fffffffffffffffffffffffffffffffff168152602001505061186281600001516fffffffffffffffffffffffffffffffff1682602001516fffffffffffffffffffffffffffffffff16611ea290919063ffffffff16565b6118a182604001516fffffffffffffffffffffffffffffffff1683606001516fffffffffffffffffffffffffffffffff16611ea290919063ffffffff16565b101515156118e4576040517f08c379a00000000000000000000000000000000000000000000000000000000081526004016118db90612b3f565b60405180910390fd5b80600260005060003373ffffffffffffffffffffffffffffffffffffffff1673ffffffffffffffffffffffffffffffffffffffff16815260200190815260200160002060005060008201518160000160006101000a8154816fffffffffffffffffffffffffffffffff02191690836fffffffffffffffffffffffffffffffff16021790555060208201518160000160106101000a8154816fffffffffffffffffffffffffffffffff02191690836fffffffffffffffffffffffffffffffff16021790555060408201518160010160006101000a8154816fffffffffffffffffffffffffffffffff02191690836fffffffffffffffffffffffffffffffff16021790555060608201518160010160106101000a8154816fffffffffffffffffffffffffffffffff02191690836fffffffffffffffffffffffffffffffff160217905550905050505b5050565b600073ffffffffffffffffffffffffffffffffffffffff16600160009054906101000a900473ffffffffffffffffffffffffffffffffffffffff1673ffffffffffffffffffffffffffffffffffffffff1614151515611ac3576040517f08c379a0000000000000000000000000000000000000000000000000000000008152600401611aba906127c0565b60405180910390fd5b611b8f30611b847f000000000000000000000000000000000000000000000000000000000000000073ffffffffffffffffffffffffffffffffffffffff166370a08231306040518263ffffffff1660e01b8152600401611b239190612645565b60206040518083038186803b158015611b3c5760006000fd5b505afa158015611b51573d600060003e3d6000fd5b505050506040513d601f19601f82011682018060405250810190611b7591906125d5565b8661141d90919063ffffffff16565b611ec863ffffffff16565b600160009054906101000a900473ffffffffffffffffffffffffffffffffffffffff1673ffffffffffffffffffffffffffffffffffffffff1663acfc7bfa60008585856040518563ffffffff1660e01b8152600401611bf19493929190612728565b602060405180830381600087803b158015611c0c5760006000fd5b505af1158015611c21573d600060003e3d6000fd5b505050506040513d601f19601f82011682018060405250810190611c4591906125f1565b508160ff168173ffffffffffffffffffffffffffffffffffffffff167f603b80bf3fe3620c8b3029a98c48ed6d0a750f155cd9ad74e5a33637b6e2761285604051611c909190612bed565b60405180910390a35b505050565b6000611d03826040518060400160405280602081526020017f5361666545524332303a206c6f772d6c6576656c2063616c6c206661696c65648152602001508573ffffffffffffffffffffffffffffffffffffffff16611f5c9092919063ffffffff16565b9050600081511115611d655780806020019051810190611d2391906124be565b1515611d64576040517f08c379a0000000000000000000000000000000000000000000000000000000008152600401611d5b90612a9b565b60405180910390fd5b5b505b5050565b611d7b8282611ec863ffffffff16565b8173ffffffffffffffffffffffffffffffffffffffff167faf2b23cbaeeb4ac51eb45799ad2661590f109d149e349e2c1b8a89b769c4684682604051611dc19190612bed565b60405180910390a25b5050565b60008183611ddc9190612de4565b9050611de3565b92915050565b6000611e0c6301e133808367ffffffffffffffff16611ea290919063ffffffff16565b9050611e13565b919050565b6000611e338383670de0b6b3a7640000611f7f63ffffffff16565b905080505b92915050565b600070010000000000000000000000000000000082101515611e95576040517f08c379a0000000000000000000000000000000000000000000000000000000008152600401611e8c9061299f565b60405180910390fd5b819050611e9d565b919050565b6000611ebd83670de0b6b3a764000084611f7f63ffffffff16565b905080505b92915050565b7f000000000000000000000000000000000000000000000000000000000000000073ffffffffffffffffffffffffffffffffffffffff16634cd7a31583836040518363ffffffff1660e01b8152600401611f2392919061266d565b600060405180830381600087803b158015611f3e5760006000fd5b505af1158015611f53573d600060003e3d6000fd5b505050505b5050565b6060611f7184846000856120a363ffffffff16565b9050611f78565b9392505050565b6000600060006000198587098587029250828110838203039150506000811415611fc257600084111515611fb35760006000fd5b8382049250829250505061209c565b8084111515611fd15760006000fd5b60008486880990508281118203915080830392506000856001877fffffffffffffffffffffffffffffffffffffffffffffffffffffffffffffffff03011690508050808604955080840493506001818260000304019050808302841793508350600060028760030218905080870260020381029050805080870260020381029050805080870260020381029050805080870260020381029050805080870260020381029050805080870260020381029050805080850295508550508494505050505061209c56505050505b9392505050565b60608247101515156120ea576040517f08c379a00000000000000000000000000000000000000000000000000000000081526004016120e19061287d565b60405180910390fd5b6120f98561131763ffffffff16565b151561213a576040517f08c379a000000000000000000000000000000000000000000000000000000000815260040161213190612a1d565b60405180910390fd5b600060008673ffffffffffffffffffffffffffffffffffffffff1685876040516121649190612626565b60006040518083038185875af1925050503d80600081146121a1576040519150601f19603f3d011682016040523d82523d6000602084013e6121a6565b606091505b50915091506121bc8282866121cf63ffffffff16565b925050506121c75650505b949350505050565b606083156121e35782905061223a56612239565b6000835111156121fb5782518084602001fd50612238565b816040517f08c379a000000000000000000000000000000000000000000000000000000000815260040161222f919061276c565b60405180910390fd5b5b5b9392505050565b604051806080016040528060006fffffffffffffffffffffffffffffffff16815260200160006fffffffffffffffffffffffffffffffff16815260200160006fffffffffffffffffffffffffffffffff16815260200160006fffffffffffffffffffffffffffffffff168152602001509056612eec565b60008135905073ffffffffffffffffffffffffffffffffffffffff8116811415156122e35760006000fd5b5b919050565b600082601f83011215156122fb578081fd5b8135602061231061230b83612ca4565b612c4d565b80838252828201915082860187848660051b890101111561232f578586fd5b855b8581101561235a57612342826122b8565b8452848401935084820191505b600181019050612331565b5050809450505050505b92915050565b600082601f830112151561237c578081fd5b8135602061239161238c83612ca4565b612c4d565b80838252828201915082860187848660051b89010111156123b0578586fd5b855b858110156123db576123c3826123eb565b8452848401935084820191505b6001810190506123b2565b5050809450505050505b92915050565b6000813590506fffffffffffffffffffffffffffffffff8116811415156124125760006000fd5b5b919050565b600060208284031215612429578081fd5b612432826122b8565b90505b92915050565b600060006040838503121561244e578081fd5b612457836122b8565b9150612465602084016123eb565b90505b9250929050565b60006000600060608486031215612484578081fd5b61248d846122b8565b925061249b602085016123eb565b9150604084013560ff8116811415156124b2578182fd5b809150505b9250925092565b6000602082840312156124cf578081fd5b8151801515811415156124e0578182fd5b809150505b92915050565b6000602082840312156124fc578081fd5b813567ffffffffffffffff80821115612513578283fd5b81840191506101008286031215612528578283fd5b612530612c1b565b612539836122b8565b815260208301356020820152612551604084016122b8565b60408201526060830135606082015261256c608084016122b8565b608082015261257d60a084016123eb565b60a082015260c083013582811115612593578485fd5b61259f878286016122e9565b60c08301525060e0830135828111156125b6578485fd5b6125c28782860161236a565b60e0830152508093505050505b92915050565b6000602082840312156125e6578081fd5b815190505b92915050565b600060208284031215612602578081fd5b815167ffffffffffffffff81168114151561261b578182fd5b809150505b92915050565b60008251612638818460208701612e16565b8083019150505b92915050565b600060208201905073ffffffffffffffffffffffffffffffffffffffff831682525b92915050565b600060408201905073ffffffffffffffffffffffffffffffffffffffff841682528260208301525b9392505050565b600060208201905082151582525b92915050565b600060208201905073ffffffffffffffffffffffffffffffffffffffff831682525b92915050565b600060208201905073ffffffffffffffffffffffffffffffffffffffff831682525b92915050565b600060208201905073ffffffffffffffffffffffffffffffffffffffff831682525b92915050565b600060808201905061ffff8616825284602083015260ff8416604083015273ffffffffffffffffffffffffffffffffffffffff831660608301525b95945050505050565b602081526000825180602084015261278b816040850160208701612e16565b60407fffffffffffffffffffffffffffffffffffffffffffffffffffffffffffffffe0601f8301168401019150505b92915050565b60208152600b60208201527f44616f206e6f7420736574000000000000000000000000000000000000000000604082015260006060820190505b919050565b60208152600f60208201527f546f6f206d616e7920746f6b656e730000000000000000000000000000000000604082015260006060820190505b919050565b60208152600e60208201527f4172697479206d69736d61746368000000000000000000000000000000000000604082015260006060820190505b919050565b60208152602660208201527f416464726573733a20696e73756666696369656e742062616c616e636520666f60408201527f722063616c6c0000000000000000000000000000000000000000000000000000606082015260006080820190505b919050565b60208152600e60208201527f4e6f7420417574686f72697a6564000000000000000000000000000000000000604082015260006060820190505b919050565b60208152600460208201527f4e6f6f7000000000000000000000000000000000000000000000000000000000604082015260006060820190505b919050565b60208152600960208201527f546f6f206561726c790000000000000000000000000000000000000000000000604082015260006060820190505b919050565b60208152601260208201527f6d6f7265207468616e2031323820626974730000000000000000000000000000604082015260006060820190505b919050565b60208152600e60208201527f4e6f74206120636f6e7472616374000000000000000000000000000000000000604082015260006060820190505b919050565b60208152601d60208201527f416464726573733a2063616c6c20746f206e6f6e2d636f6e7472616374000000604082015260006060820190505b919050565b60208152600560208201527f4e6f6f702e000000000000000000000000000000000000000000000000000000604082015260006060820190505b919050565b60208152602a60208201527f5361666545524332303a204552433230206f7065726174696f6e20646964206e60408201527f6f74207375636365656400000000000000000000000000000000000000000000606082015260006080820190505b919050565b60208152601160208201527f6d6f7265207468616e2036342062697473000000000000000000000000000000604082015260006060820190505b919050565b60208152601d60208201527f4176657261676520756e6c6f636b2074696d6520746f6f2073686f7274000000604082015260006060820190505b919050565b60006080820190506fffffffffffffffffffffffffffffffff808451168352806020850151166020840152806040850151166040840152806060850151166060840152505b92915050565b60006020820190506fffffffffffffffffffffffffffffffff831682525b92915050565b60006020820190508282525b92915050565b600060208201905067ffffffffffffffff831682525b92915050565b60006040519050610100810181811067ffffffffffffffff82111715612c4457612c43612ebb565b5b80604052505b90565b600060405190507fffffffffffffffffffffffffffffffffffffffffffffffffffffffffffffffe0601f830116810181811067ffffffffffffffff82111715612c9957612c98612ebb565b5b80604052505b919050565b600067ffffffffffffffff821115612cbf57612cbe612ebb565b5b60208260051b0190505b919050565b60006fffffffffffffffffffffffffffffffff808316818516808303821115612cfa57612cf9612e8a565b5b80820193505050505b92915050565b600067ffffffffffffffff808316818516808303821115612d2d57612d2c612e8a565b5b80820193505050505b92915050565b600067ffffffffffffffff808416801515612d7e577f4e487b710000000000000000000000000000000000000000000000000000000083526012600452602483fd5b8082851604925050505b92915050565b600067ffffffffffffffff80831681851681830481118215151615612db657612db5612e8a565b5b80820293505050505b92915050565b600082821015612dd857612dd7612e8a565b5b82820390505b92915050565b600067ffffffffffffffff808316818516915081811015612e0857612e07612e8a565b5b818103925050505b92915050565b60005b83811015612e355780820151818401525b602081019050612e19565b83811115612e44576000848401525b505050505b565b60007fffffffffffffffffffffffffffffffffffffffffffffffffffffffffffffffff821415612e7e57612e7d612e8a565b5b6001820190505b919050565b7f4e487b7100000000000000000000000000000000000000000000000000000000600052601160045260246000fd5b565b7f4e487b7100000000000000000000000000000000000000000000000000000000600052604160045260246000fd5b565bfea264697066735822122069a93ab593b4c5d988a0b13180db21a901f122c0269905e5ab176e243e410b9664736f6c63430008040033",
  "linkReferences": {},
  "deployedLinkReferences": {}
}