{
  "_format": "hh-sol-artifact-1",
  "contractName": "TcpAllocation",
  "sourceName": "contracts/core/auxiliary/allocations/TcpAllocation.sol",
  "abi": [
    {
      "inputs": [
        {
          "components": [
            {
              "internalType": "address",
              "name": "Governor",
              "type": "address"
            },
            {
              "internalType": "contract IERC20",
              "name": "Tcp",
              "type": "address"
            },
            {
              "internalType": "address",
              "name": "Guardian",
              "type": "address"
            }
          ],
          "internalType": "struct DaoPositionCreator.DaoPositionCreatorConstructorParams",
          "name": "params",
          "type": "tuple"
        }
      ],
      "stateMutability": "nonpayable",
      "type": "constructor"
    },
    {
      "anonymous": false,
      "inputs": [
        {
          "indexed": true,
          "internalType": "address",
          "name": "dest",
          "type": "address"
        },
        {
          "indexed": false,
          "internalType": "uint256",
          "name": "count",
          "type": "uint256"
        }
      ],
      "name": "IncentiveDistributed",
      "type": "event"
    },
    {
      "anonymous": false,
      "inputs": [
        {
          "indexed": true,
          "internalType": "address",
          "name": "receiver",
          "type": "address"
        },
        {
          "indexed": false,
          "internalType": "uint128",
          "name": "count",
          "type": "uint128"
        }
      ],
      "name": "LockPositionIncreased",
      "type": "event"
    },
    {
      "anonymous": false,
      "inputs": [
        {
          "indexed": true,
          "internalType": "address",
          "name": "receiver",
          "type": "address"
        },
        {
          "indexed": true,
          "internalType": "uint8",
          "name": "lockDurationMonths",
          "type": "uint8"
        },
        {
          "indexed": false,
          "internalType": "uint256",
          "name": "count",
          "type": "uint256"
        }
      ],
      "name": "TokensLocked",
      "type": "event"
    },
    {
      "inputs": [],
      "name": "abdicate",
      "outputs": [],
      "stateMutability": "nonpayable",
      "type": "function"
    },
    {
      "inputs": [
        {
          "internalType": "address",
          "name": "",
          "type": "address"
        }
      ],
      "name": "allocationCaps",
      "outputs": [
        {
          "internalType": "uint256",
          "name": "",
          "type": "uint256"
        }
      ],
      "stateMutability": "view",
      "type": "function"
    },
    {
      "inputs": [],
      "name": "dao",
      "outputs": [
        {
          "internalType": "contract ITokenLockDao",
          "name": "",
          "type": "address"
        }
      ],
      "stateMutability": "view",
      "type": "function"
    },
    {
      "inputs": [],
      "name": "deployer",
      "outputs": [
        {
          "internalType": "address",
          "name": "",
          "type": "address"
        }
      ],
      "stateMutability": "view",
      "type": "function"
    },
    {
      "inputs": [
        {
          "internalType": "address",
          "name": "dest",
          "type": "address"
        },
        {
          "internalType": "uint128",
          "name": "count",
          "type": "uint128"
        }
      ],
      "name": "getTokens",
      "outputs": [],
      "stateMutability": "nonpayable",
      "type": "function"
    },
    {
      "inputs": [
        {
          "internalType": "address",
          "name": "user",
          "type": "address"
        }
      ],
      "name": "getUserAllocation",
      "outputs": [
        {
          "components": [
            {
              "internalType": "uint128",
              "name": "totalAllocation",
              "type": "uint128"
            },
            {
              "internalType": "uint128",
              "name": "minimumAverageTokensAllocatedxLockYears",
              "type": "uint128"
            },
            {
              "internalType": "uint128",
              "name": "tokensAllocated",
              "type": "uint128"
            },
            {
              "internalType": "uint128",
              "name": "cumulativeTokensAllocatedxLockYears",
              "type": "uint128"
            }
          ],
          "internalType": "struct MinAverageLockDuration.UserAllocation",
          "name": "_userAllocation",
          "type": "tuple"
        }
      ],
      "stateMutability": "view",
      "type": "function"
    },
    {
      "inputs": [],
      "name": "guardian",
      "outputs": [
        {
          "internalType": "address",
          "name": "",
          "type": "address"
        }
      ],
      "stateMutability": "view",
      "type": "function"
    },
    {
      "inputs": [],
      "name": "incentiveAllocation",
      "outputs": [
        {
          "internalType": "address",
          "name": "",
          "type": "address"
        }
      ],
      "stateMutability": "view",
      "type": "function"
    },
    {
      "inputs": [
        {
          "internalType": "address",
          "name": "allocatee",
          "type": "address"
        },
        {
          "internalType": "uint128",
          "name": "count",
          "type": "uint128"
        }
      ],
      "name": "increaseAllocation",
      "outputs": [],
      "stateMutability": "nonpayable",
      "type": "function"
    },
    {
      "inputs": [
        {
          "components": [
            {
              "internalType": "address",
              "name": "governor",
              "type": "address"
            },
            {
              "internalType": "uint256",
              "name": "governorAllocationCount",
              "type": "uint256"
            },
            {
              "internalType": "address",
              "name": "genesisAllocation",
              "type": "address"
            },
            {
              "internalType": "uint256",
              "name": "genesisAllocationCount",
              "type": "uint256"
            },
            {
              "internalType": "address",
              "name": "incentiveAllocation",
              "type": "address"
            },
            {
              "internalType": "uint128",
              "name": "incentiveAllocationCount",
              "type": "uint128"
            },
            {
              "internalType": "address[]",
              "name": "allocationReceivers",
              "type": "address[]"
            },
            {
              "internalType": "uint128[]",
              "name": "allocationAmounts",
              "type": "uint128[]"
            }
          ],
          "internalType": "struct TcpAllocation.InitParams",
          "name": "params",
          "type": "tuple"
        }
      ],
      "name": "init",
      "outputs": [],
      "stateMutability": "nonpayable",
      "type": "function"
    },
    {
      "inputs": [
        {
          "internalType": "address",
          "name": "dest",
          "type": "address"
        },
        {
          "internalType": "uint128",
          "name": "count",
          "type": "uint128"
        },
        {
          "internalType": "uint8",
          "name": "lockDurationMonths",
          "type": "uint8"
        }
      ],
      "name": "lockTokensIntoDao",
      "outputs": [],
      "stateMutability": "nonpayable",
      "type": "function"
    },
    {
      "inputs": [
        {
          "internalType": "address",
          "name": "",
          "type": "address"
        }
      ],
      "name": "restrictedToUnlockDuration",
      "outputs": [
        {
          "internalType": "bool",
          "name": "",
          "type": "bool"
        }
      ],
      "stateMutability": "view",
      "type": "function"
    },
    {
      "inputs": [],
      "name": "restrictedUnlockTime",
      "outputs": [
        {
          "internalType": "uint64",
          "name": "",
          "type": "uint64"
        }
      ],
      "stateMutability": "view",
      "type": "function"
    },
    {
      "inputs": [
        {
          "internalType": "address",
          "name": "_dao",
          "type": "address"
        }
      ],
      "name": "setDao",
      "outputs": [],
      "stateMutability": "nonpayable",
      "type": "function"
    },
    {
      "inputs": [],
      "name": "startTime",
      "outputs": [
        {
          "internalType": "uint64",
          "name": "",
          "type": "uint64"
        }
      ],
      "stateMutability": "view",
      "type": "function"
    },
    {
      "inputs": [],
      "name": "tcp",
      "outputs": [
        {
          "internalType": "contract IERC20",
          "name": "",
          "type": "address"
        }
      ],
      "stateMutability": "view",
      "type": "function"
    },
    {
      "inputs": [],
      "name": "tokenMinter",
      "outputs": [
        {
          "internalType": "contract ITokenIncentiveMinter",
          "name": "",
          "type": "address"
        }
      ],
      "stateMutability": "view",
      "type": "function"
    }
  ],
  "bytecode": "0x60e0604052348015620000125760006000fd5b5060405162002e8738038062002e87833981810160405281019062000038919062000237565b5b805b805b806000015173ffffffffffffffffffffffffffffffffffffffff1660808173ffffffffffffffffffffffffffffffffffffffff1660601b81526014015050806020015173ffffffffffffffffffffffffffffffffffffffff1660a08173ffffffffffffffffffffffffffffffffffffffff1660601b815260140150508060400151600060006101000a81548173ffffffffffffffffffffffffffffffffffffffff021916908373ffffffffffffffffffffffffffffffffffffffff1602179055505b50620001106200017c60201b60201c565b67ffffffffffffffff1660c08167ffffffffffffffff1660c01b815260080150505b5033600660006101000a81548173ffffffffffffffffffffffffffffffffffffffff021916908373ffffffffffffffffffffffffffffffffffffffff1602179055505b50620002d3565b600062000196426200019e60201b62000e8117909060201c565b905080505b90565b6000680100000000000000008210151562000224576040517f08c379a00000000000000000000000000000000000000000000000000000000081526004018080602001828103825260118152602001807f6d6f7265207468616e203634206269747300000000000000000000000000000081526020015060200191505060405180910390fd5b8190506200022d565b91905056620002d2565b60006060828403121562000249578081fd5b604051606081018181106001600160401b03821117156200026657fe5b806040525082516200027881620002b5565b8082525060208301516200028c81620002b5565b806020830152506040830151620002a381620002b5565b80604083015250809150505b92915050565b6001600160a01b03811681141515620002ce5760006000fd5b5b50565b5b60805160601c60a05160601c60c05160c01c612b65620003226000398061065e5280610a21528061179252508061073c52806109cf5280611ecb525080610cbf52806122fd5250612b656000f3fe60806040523480156100115760006000fd5b50600436106101205760003560e01c80636637b882116100b3578063cfb3647b11610082578063ee5f1ee411610067578063ee5f1ee4146102d2578063f44c3881146102ee578063f4c4a6131461030c57610120565b8063cfb3647b14610296578063d5f39488146102b457610120565b80636637b8821461021057806378e979251461022c578063a9778eb01461024a578063b920ade21461026657610120565b806336fc02f4116100ef57806336fc02f41461019a5780634162169f146101b8578063452a9320146101d6578063628e2e85146101f457610120565b806311fd38cc1461012657806323fe981d14610156578063262406de14610172578063314e99a21461019057610120565b60006000fd5b610140600480360381019061013b9190612681565b61033c565b60405161014d919061283d565b60405180910390f35b610170600480360381019061016b9190612727565b610361565b005b61017a61068d565b6040516101879190612815565b60405180910390f35b6101986106b3565b005b6101a261073a565b6040516101af9190612851565b60405180910390f35b6101c061075e565b6040516101cd91906128a1565b60405180910390f35b6101de610784565b6040516101eb9190612815565b60405180910390f35b61020e600480360381019061020991906126d8565b6107aa565b005b61022a60048036038101906102259190612681565b6108a4565b005b610234610a1f565b6040516102419190612ac4565b60405180910390f35b610264600480360381019061025f91906126a4565b610a43565b005b610280600480360381019061027b9190612681565b610b29565b60405161028d9190612a43565b60405180910390f35b61029e610cbd565b6040516102ab9190612879565b60405180910390f35b6102bc610ce1565b6040516102c99190612815565b60405180910390f35b6102ec60048036038101906102e791906126a4565b610d07565b005b6102f6610e4c565b6040516103039190612ac4565b60405180910390f35b61032660048036038101906103219190612681565b610e66565b6040516103339190612ab2565b60405180910390f35b600460005060205280600052604060002060009150909054906101000a900460ff1681565b6103c0600660009054906101000a900473ffffffffffffffffffffffffffffffffffffffff1673ffffffffffffffffffffffffffffffffffffffff163373ffffffffffffffffffffffffffffffffffffffff1614610f1363ffffffff16565b600660006101000a81549073ffffffffffffffffffffffffffffffffffffffff02191690556103f86301e13380610f8f63ffffffff16565b600560006101000a81548167ffffffffffffffff021916908367ffffffffffffffff160217905550600061043860036301e1338002610f8f63ffffffff16565b90508160e00151518260c0015151141515610488576040517f08c379a000000000000000000000000000000000000000000000000000000000815260040161047f90612908565b60405180910390fd5b6000600090505b8260c0015151811015610561576001600460005060008560c00151848151811015156104b757fe5b602002602001015173ffffffffffffffffffffffffffffffffffffffff1673ffffffffffffffffffffffffffffffffffffffff16815260200190815260200160002060006101000a81548160ff0219169083151502179055506105538360c001518281518110151561052557fe5b60200260200101518460e001518381518110151561053f57fe5b602002602001015184610fc563ffffffff16565b5b808060010191505061048f565b508160800151600560086101000a81548173ffffffffffffffffffffffffffffffffffffffff021916908373ffffffffffffffffffffffffffffffffffffffff160217905550816020015160036000506000846000015173ffffffffffffffffffffffffffffffffffffffff1673ffffffffffffffffffffffffffffffffffffffff168152602001908152602001600020600050819090905550816060015160036000506000846040015173ffffffffffffffffffffffffffffffffffffffff1673ffffffffffffffffffffffffffffffffffffffff16815260200190815260200160002060005081909090555061068882608001518360a001517f0000000000000000000000000000000000000000000000000000000000000000610fc563ffffffff16565b505b50565b600560089054906101000a900473ffffffffffffffffffffffffffffffffffffffff1681565b610712600060009054906101000a900473ffffffffffffffffffffffffffffffffffffffff1673ffffffffffffffffffffffffffffffffffffffff163373ffffffffffffffffffffffffffffffffffffffff1614610f1363ffffffff16565b600060006101000a81549073ffffffffffffffffffffffffffffffffffffffff02191690555b565b7f000000000000000000000000000000000000000000000000000000000000000081565b600160009054906101000a900473ffffffffffffffffffffffffffffffffffffffff1681565b600060009054906101000a900473ffffffffffffffffffffffffffffffffffffffff1681565b600460005060003373ffffffffffffffffffffffffffffffffffffffff1673ffffffffffffffffffffffffffffffffffffffff16815260200190815260200160002060009054906101000a900460ff161561088d5761081f6108148260ff1661128d63ffffffff16565b610f8f63ffffffff16565b67ffffffffffffffff16600560009054906101000a900467ffffffffffffffff1667ffffffffffffffff1610151561088c576040517f08c379a000000000000000000000000000000000000000000000000000000000815260040161088390612986565b60405180910390fd5b5b61089e8282856112d263ffffffff16565b5b505050565b610903600060009054906101000a900473ffffffffffffffffffffffffffffffffffffffff1673ffffffffffffffffffffffffffffffffffffffff163373ffffffffffffffffffffffffffffffffffffffff1614610f1363ffffffff16565b6109128161132a63ffffffff16565b1515610989576040517f08c379a000000000000000000000000000000000000000000000000000000000815260040180806020018281038252600e8152602001807f4e6f74206120636f6e747261637400000000000000000000000000000000000081526020015060200191505060405180910390fd5b80600160006101000a81548173ffffffffffffffffffffffffffffffffffffffff021916908373ffffffffffffffffffffffffffffffffffffffff160217905550610a1b7f0000000000000000000000000000000000000000000000000000000000000000827fffffffffffffffffffffffffffffffffffffffffffffffffffffffffffffffff61134463ffffffff16565b5b50565b7f000000000000000000000000000000000000000000000000000000000000000081565b600460005060003373ffffffffffffffffffffffffffffffffffffffff1673ffffffffffffffffffffffffffffffffffffffff16815260200190815260200160002060009054906101000a900460ff1615610b1457610aa661155063ffffffff16565b67ffffffffffffffff16600560009054906101000a900467ffffffffffffffff1667ffffffffffffffff16101515610b13576040517f08c379a0000000000000000000000000000000000000000000000000000000008152600401610b0a90612986565b60405180910390fd5b5b610b24828261156b63ffffffff16565b5b5050565b610b316124ac565b600260005060008373ffffffffffffffffffffffffffffffffffffffff1673ffffffffffffffffffffffffffffffffffffffff1681526020019081526020016000206000506040518060800160405290816000820160009054906101000a90046fffffffffffffffffffffffffffffffff166fffffffffffffffffffffffffffffffff166fffffffffffffffffffffffffffffffff1681526020016000820160109054906101000a90046fffffffffffffffffffffffffffffffff166fffffffffffffffffffffffffffffffff166fffffffffffffffffffffffffffffffff1681526020016001820160009054906101000a90046fffffffffffffffffffffffffffffffff166fffffffffffffffffffffffffffffffff166fffffffffffffffffffffffffffffffff1681526020016001820160109054906101000a90046fffffffffffffffffffffffffffffffff166fffffffffffffffffffffffffffffffff166fffffffffffffffffffffffffffffffff168152602001505090508050809050610cb8565b919050565b7f000000000000000000000000000000000000000000000000000000000000000081565b600660009054906101000a900473ffffffffffffffffffffffffffffffffffffffff1681565b610d71816fffffffffffffffffffffffffffffffff16600360005060003373ffffffffffffffffffffffffffffffffffffffff1673ffffffffffffffffffffffffffffffffffffffff168152602001908152602001600020600050546115af90919063ffffffff16565b600360005060003373ffffffffffffffffffffffffffffffffffffffff1673ffffffffffffffffffffffffffffffffffffffff1681526020019081526020016000206000508190909055506000600460005060008473ffffffffffffffffffffffffffffffffffffffff1673ffffffffffffffffffffffffffffffffffffffff16815260200190815260200160002060009054906101000a900460ff16610e1c576301e13380610e25565b60036301e13380025b9050610e468383610e3b84610f8f63ffffffff16565b610fc563ffffffff16565b505b5050565b600560009054906101000a900467ffffffffffffffff1681565b60036000506020528060005260406000206000915090505481565b60006801000000000000000082101515610f06576040517f08c379a00000000000000000000000000000000000000000000000000000000081526004018080602001828103825260118152602001807f6d6f7265207468616e203634206269747300000000000000000000000000000081526020015060200191505060405180910390fd5b819050610f0e565b919050565b801515610f8b576040517f08c379a000000000000000000000000000000000000000000000000000000000815260040180806020018281038252600e8152602001807f4e6f7420417574686f72697a656400000000000000000000000000000000000081526020015060200191505060405180910390fd5b5b50565b6000610fbb82610fa361155063ffffffff16565b67ffffffffffffffff1661163890919063ffffffff16565b905080505b919050565b6000826fffffffffffffffffffffffffffffffff1611151561101c576040517f08c379a0000000000000000000000000000000000000000000000000000000008152600401611013906129c5565b60405180910390fd5b6110a582600260005060008673ffffffffffffffffffffffffffffffffffffffff1673ffffffffffffffffffffffffffffffffffffffff16815260200190815260200160002060005060000160009054906101000a90046fffffffffffffffffffffffffffffffff166fffffffffffffffffffffffffffffffff166116d590919063ffffffff16565b600260005060008573ffffffffffffffffffffffffffffffffffffffff1673ffffffffffffffffffffffffffffffffffffffff16815260200190815260200160002060005060000160006101000a8154816fffffffffffffffffffffffffffffffff02191690836fffffffffffffffffffffffffffffffff1602179055506111bb611136838361178263ffffffff16565b600260005060008673ffffffffffffffffffffffffffffffffffffffff1673ffffffffffffffffffffffffffffffffffffffff16815260200190815260200160002060005060000160109054906101000a90046fffffffffffffffffffffffffffffffff166fffffffffffffffffffffffffffffffff166116d590919063ffffffff16565b600260005060008573ffffffffffffffffffffffffffffffffffffffff1673ffffffffffffffffffffffffffffffffffffffff16815260200190815260200160002060005060000160106101000a8154816fffffffffffffffffffffffffffffffff02191690836fffffffffffffffffffffffffffffffff1602179055508273ffffffffffffffffffffffffffffffffffffffff167f39269bcc94baba79914cd1fbb42780568649c4411ad91db4c52e1e029bde31e28360405161127f9190612a8e565b60405180910390a25b505050565b6000600c6112b26301e133808467ffffffffffffffff1661181090919063ffffffff16565b67ffffffffffffffff168115156112c557fe5b0490506112cd565b919050565b611301836112f66112eb8560ff1661128d63ffffffff16565b610f8f63ffffffff16565b6118e063ffffffff16565b611324836fffffffffffffffffffffffffffffffff168383611df863ffffffff16565b5b505050565b60006000823b90506000811191505061133f56505b919050565b600060008473ffffffffffffffffffffffffffffffffffffffff1663095ea7b360e01b8585604051602401808373ffffffffffffffffffffffffffffffffffffffff16815260200182815260200192505050604051602081830303815290604052907bffffffffffffffffffffffffffffffffffffffffffffffffffffffff19166020820180517bffffffffffffffffffffffffffffffffffffffffffffffffffffffff83818316178352505050506040518082805190602001908083835b60208310151561142957805182525b602082019150602081019050602083039250611403565b6001836020036101000a0380198251168184511680821785525050505050509050019150506000604051808303816000865af19150503d806000811461148b576040519150601f19603f3d011682016040523d82523d6000602084013e611490565b606091505b50915091508180156114d157506000815114806114d057508080602001905160208110156114be5760006000fd5b81019080805190602001909291905050505b5b1515611548576040517f08c379a00000000000000000000000000000000000000000000000000000000081526004018080602001828103825260028152602001807f534100000000000000000000000000000000000000000000000000000000000081526020015060200191505060405180910390fd5b50505b505050565b600061156342610e81909063ffffffff16565b905080505b90565b6115888161157d61155063ffffffff16565b6118e063ffffffff16565b6115aa82826fffffffffffffffffffffffffffffffff166120e663ffffffff16565b5b5050565b60008282840391508111151515611631576040517f08c379a000000000000000000000000000000000000000000000000000000000815260040180806020018281038252600d8152602001807f7375622d756e646572666c6f770000000000000000000000000000000000000081526020015060200191505060405180910390fd5b5b92915050565b60008267ffffffffffffffff1682840191508167ffffffffffffffff16101515156116ce576040517f08c379a000000000000000000000000000000000000000000000000000000000815260040180806020018281038252600c8152602001807f6164642d6f766572666c6f77000000000000000000000000000000000000000081526020015060200191505060405180910390fd5b5b92915050565b6000826fffffffffffffffffffffffffffffffff168284019150816fffffffffffffffffffffffffffffffff161015151561177b576040517f08c379a000000000000000000000000000000000000000000000000000000000815260040180806020018281038252600c8152602001807f6164642d6f766572666c6f77000000000000000000000000000000000000000081526020015060200191505060405180910390fd5b5b92915050565b60006118036117f66117d56117ca7f00000000000000000000000000000000000000000000000000000000000000008667ffffffffffffffff1661214990919063ffffffff16565b6121e663ffffffff16565b856fffffffffffffffffffffffffffffffff1661221590919063ffffffff16565b61223b909063ffffffff16565b905061180a565b92915050565b600060008267ffffffffffffffff16148061186257508267ffffffffffffffff168267ffffffffffffffff1683850292508267ffffffffffffffff1681151561185557fe5b0467ffffffffffffffff16145b15156118d9576040517f08c379a000000000000000000000000000000000000000000000000000000000815260040180806020018281038252600c8152602001807f6d756c2d6f766572666c6f77000000000000000000000000000000000000000081526020015060200191505060405180910390fd5b5b92915050565b6000826fffffffffffffffffffffffffffffffff16111515611937576040517f08c379a000000000000000000000000000000000000000000000000000000000815260040161192e90612947565b60405180910390fd5b6000600260005060003373ffffffffffffffffffffffffffffffffffffffff1673ffffffffffffffffffffffffffffffffffffffff1681526020019081526020016000206000506040518060800160405290816000820160009054906101000a90046fffffffffffffffffffffffffffffffff166fffffffffffffffffffffffffffffffff166fffffffffffffffffffffffffffffffff1681526020016000820160109054906101000a90046fffffffffffffffffffffffffffffffff166fffffffffffffffffffffffffffffffff166fffffffffffffffffffffffffffffffff1681526020016001820160009054906101000a90046fffffffffffffffffffffffffffffffff166fffffffffffffffffffffffffffffffff166fffffffffffffffffffffffffffffffff1681526020016001820160109054906101000a90046fffffffffffffffffffffffffffffffff166fffffffffffffffffffffffffffffffff166fffffffffffffffffffffffffffffffff16815260200150509050611adf8382604001516fffffffffffffffffffffffffffffffff166116d590919063ffffffff16565b81604001906fffffffffffffffffffffffffffffffff1690816fffffffffffffffffffffffffffffffff168152602001505080600001516fffffffffffffffffffffffffffffffff1681604001516fffffffffffffffffffffffffffffffff1611151515611b82576040517f08c379a0000000000000000000000000000000000000000000000000000000008152600401611b79906128c9565b60405180910390fd5b611bba611b95848461178263ffffffff16565b82606001516fffffffffffffffffffffffffffffffff166116d590919063ffffffff16565b81606001906fffffffffffffffffffffffffffffffff1690816fffffffffffffffffffffffffffffffff1681526020015050611c2b81600001516fffffffffffffffffffffffffffffffff1682602001516fffffffffffffffffffffffffffffffff166122d590919063ffffffff16565b611c6a82604001516fffffffffffffffffffffffffffffffff1683606001516fffffffffffffffffffffffffffffffff166122d590919063ffffffff16565b10151515611cad576040517f08c379a0000000000000000000000000000000000000000000000000000000008152600401611ca490612a04565b60405180910390fd5b80600260005060003373ffffffffffffffffffffffffffffffffffffffff1673ffffffffffffffffffffffffffffffffffffffff16815260200190815260200160002060005060008201518160000160006101000a8154816fffffffffffffffffffffffffffffffff02191690836fffffffffffffffffffffffffffffffff16021790555060208201518160000160106101000a8154816fffffffffffffffffffffffffffffffff02191690836fffffffffffffffffffffffffffffffff16021790555060408201518160010160006101000a8154816fffffffffffffffffffffffffffffffff02191690836fffffffffffffffffffffffffffffffff16021790555060608201518160010160106101000a8154816fffffffffffffffffffffffffffffffff02191690836fffffffffffffffffffffffffffffffff160217905550905050505b5050565b600073ffffffffffffffffffffffffffffffffffffffff16600160009054906101000a900473ffffffffffffffffffffffffffffffffffffffff1673ffffffffffffffffffffffffffffffffffffffff1614151515611ec2576040517f08c379a000000000000000000000000000000000000000000000000000000000815260040180806020018281038252600b8152602001807f44616f206e6f742073657400000000000000000000000000000000000000000081526020015060200191505060405180910390fd5b611fa830611f9d7f000000000000000000000000000000000000000000000000000000000000000073ffffffffffffffffffffffffffffffffffffffff166370a08231306040518263ffffffff1660e01b8152600401808273ffffffffffffffffffffffffffffffffffffffff16815260200191505060206040518083038186803b158015611f515760006000fd5b505afa158015611f66573d600060003e3d6000fd5b505050506040513d6020811015611f7d5760006000fd5b8101908080519060200190929190505050866115af90919063ffffffff16565b6122fb63ffffffff16565b600160009054906101000a900473ffffffffffffffffffffffffffffffffffffffff1673ffffffffffffffffffffffffffffffffffffffff1663acfc7bfa60008585856040518563ffffffff1660e01b8152600401808581526020018481526020018360ff1681526020018273ffffffffffffffffffffffffffffffffffffffff168152602001945050505050602060405180830381600087803b1580156120505760006000fd5b505af1158015612065573d600060003e3d6000fd5b505050506040513d602081101561207c5760006000fd5b8101908080519060200190929190505050508160ff168173ffffffffffffffffffffffffffffffffffffffff167f603b80bf3fe3620c8b3029a98c48ed6d0a750f155cd9ad74e5a33637b6e27612856040518082815260200191505060405180910390a35b505050565b6120f682826122fb63ffffffff16565b8173ffffffffffffffffffffffffffffffffffffffff167faf2b23cbaeeb4ac51eb45799ad2661590f109d149e349e2c1b8a89b769c46846826040518082815260200191505060405180910390a25b5050565b60008267ffffffffffffffff1682840391508167ffffffffffffffff16111515156121df576040517f08c379a000000000000000000000000000000000000000000000000000000000815260040180806020018281038252600d8152602001807f7375622d756e646572666c6f770000000000000000000000000000000000000081526020015060200191505060405180910390fd5b5b92915050565b60006122096301e133808367ffffffffffffffff166122d590919063ffffffff16565b9050612210565b919050565b60006122308383670de0b6b3a76400006123ab63ffffffff16565b905080505b92915050565b6000700100000000000000000000000000000000821015156122c8576040517f08c379a00000000000000000000000000000000000000000000000000000000081526004018080602001828103825260128152602001807f6d6f7265207468616e203132382062697473000000000000000000000000000081526020015060200191505060405180910390fd5b8190506122d0565b919050565b60006122f083670de0b6b3a7640000846123ab63ffffffff16565b905080505b92915050565b7f000000000000000000000000000000000000000000000000000000000000000073ffffffffffffffffffffffffffffffffffffffff16634cd7a31583836040518363ffffffff1660e01b8152600401808373ffffffffffffffffffffffffffffffffffffffff16815260200182815260200192505050600060405180830381600087803b15801561238d5760006000fd5b505af11580156123a2573d600060003e3d6000fd5b505050505b5050565b60006000600060001985870985870292508281108382030391505060008114156123ee576000841115156123df5760006000fd5b838204925082925050506124a5565b80841115156123fd5760006000fd5b60008486880990508281118203915080830392506000858660000316905080860495508084049350600181826000030401905080830284179350835060006002876003021890508087026002038102905080508087026002038102905080508087026002038102905080508087026002038102905080508087026002038102905080508087026002038102905080508085029550855085955050505050506124a55650505050505b9392505050565b604051806080016040528060006fffffffffffffffffffffffffffffffff16815260200160006fffffffffffffffffffffffffffffffff16815260200160006fffffffffffffffffffffffffffffffff16815260200160006fffffffffffffffffffffffffffffffff168152602001509056612b2e565b60008135905073ffffffffffffffffffffffffffffffffffffffff81168114151561254e5760006000fd5b5b919050565b600082601f8301121515612566578081fd5b8135602061257b61257683612b0b565b612ae0565b80838252828201915082860187848587028901011115612599578586fd5b855b858110156125c4576125ac82612523565b8452848401935084820191505b60018101905061259b565b5050809450505050505b92915050565b600082601f83011215156125e6578081fd5b813560206125fb6125f683612b0b565b612ae0565b80838252828201915082860187848587028901011115612619578586fd5b855b858110156126445761262c82612654565b8452848401935084820191505b60018101905061261b565b5050809450505050505b92915050565b6000813590506fffffffffffffffffffffffffffffffff81168114151561267b5760006000fd5b5b919050565b600060208284031215612692578081fd5b61269b82612523565b90505b92915050565b60006000604083850312156126b7578081fd5b6126c083612523565b91506126ce60208401612654565b90505b9250929050565b600060006000606084860312156126ed578081fd5b6126f684612523565b925061270460208501612654565b9150604084013560ff81168114151561271b578182fd5b809150505b9250925092565b600060208284031215612738578081fd5b813567ffffffffffffffff8082111561274f578283fd5b8184019150610100808387031215612765578384fd5b61276e81612ae0565b905061277983612523565b81526020830135602082015261279160408401612523565b6040820152606083013560608201526127ac60808401612523565b60808201526127bd60a08401612654565b60a082015260c0830135828111156127d3578485fd5b6127df87828601612554565b60c08301525060e0830135828111156127f6578485fd5b612802878286016125d4565b60e0830152508093505050505b92915050565b600060208201905073ffffffffffffffffffffffffffffffffffffffff831682525b92915050565b600060208201905082151582525b92915050565b600060208201905073ffffffffffffffffffffffffffffffffffffffff831682525b92915050565b600060208201905073ffffffffffffffffffffffffffffffffffffffff831682525b92915050565b600060208201905073ffffffffffffffffffffffffffffffffffffffff831682525b92915050565b600060208252600f60208301527f546f6f206d616e7920746f6b656e73000000000000000000000000000000000060408301526060820190505b919050565b600060208252600e60208301527f4172697479206d69736d6174636800000000000000000000000000000000000060408301526060820190505b919050565b600060208252600460208301527f4e6f6f700000000000000000000000000000000000000000000000000000000060408301526060820190505b919050565b600060208252600960208301527f546f6f206561726c79000000000000000000000000000000000000000000000060408301526060820190505b919050565b600060208252600560208301527f4e6f6f702e00000000000000000000000000000000000000000000000000000060408301526060820190505b919050565b600060208252601d60208301527f4176657261676520756e6c6f636b2074696d6520746f6f2073686f727400000060408301526060820190505b919050565b60006080820190506fffffffffffffffffffffffffffffffff808451168352806020850151166020840152806040850151166040840152806060850151166060840152505b92915050565b60006020820190506fffffffffffffffffffffffffffffffff831682525b92915050565b60006020820190508282525b92915050565b600060208201905067ffffffffffffffff831682525b92915050565b6000604051905081810181811067ffffffffffffffff82111715612b0057fe5b80604052505b919050565b600067ffffffffffffffff821115612b1f57fe5b6020602083020190505b919050565bfea2646970667358221220db1cc8c715e20d8eb5154fd62be02ad1292ebb14713db5cc078f5d4840ed4e5864736f6c63430007060033",
  "linkReferences": {},
  "deployedLinkReferences": {}
}