{
  "_format": "hh-sol-artifact-1",
  "contractName": "CommunityAllocation",
  "sourceName": "contracts/core/auxiliary/allocations/CommunityAllocation.sol",
  "abi": [
    {
      "inputs": [
        {
          "components": [
            {
              "internalType": "address",
              "name": "Governor",
              "type": "address"
            },
            {
              "internalType": "address",
              "name": "Tcp",
              "type": "address"
            }
          ],
          "internalType": "struct CommunityAllocation.ConstructorParams",
          "name": "params",
          "type": "tuple"
        }
      ],
      "stateMutability": "nonpayable",
      "type": "constructor"
    },
    {
      "anonymous": false,
      "inputs": [
        {
          "indexed": true,
          "internalType": "address",
          "name": "guardian",
          "type": "address"
        }
      ],
      "name": "ArbitraryMintingAbdicated",
      "type": "event"
    },
    {
      "anonymous": false,
      "inputs": [
        {
          "indexed": true,
          "internalType": "address",
          "name": "dest",
          "type": "address"
        },
        {
          "indexed": false,
          "internalType": "uint256",
          "name": "count",
          "type": "uint256"
        }
      ],
      "name": "IncentiveDistributed",
      "type": "event"
    },
    {
      "anonymous": false,
      "inputs": [
        {
          "indexed": true,
          "internalType": "address",
          "name": "newGuardian",
          "type": "address"
        }
      ],
      "name": "NewGuardian",
      "type": "event"
    },
    {
      "anonymous": false,
      "inputs": [
        {
          "indexed": true,
          "internalType": "address",
          "name": "receiver",
          "type": "address"
        },
        {
          "indexed": true,
          "internalType": "uint8",
          "name": "lockDurationMonths",
          "type": "uint8"
        },
        {
          "indexed": false,
          "internalType": "uint256",
          "name": "count",
          "type": "uint256"
        }
      ],
      "name": "TokensLocked",
      "type": "event"
    },
    {
      "anonymous": false,
      "inputs": [
        {
          "indexed": true,
          "internalType": "address",
          "name": "to",
          "type": "address"
        },
        {
          "indexed": false,
          "internalType": "uint256",
          "name": "count",
          "type": "uint256"
        }
      ],
      "name": "TokensMintedArbitrarily",
      "type": "event"
    },
    {
      "inputs": [],
      "name": "abdicateArbitraryMinting",
      "outputs": [],
      "stateMutability": "nonpayable",
      "type": "function"
    },
    {
      "inputs": [],
      "name": "canMintArbitrarily",
      "outputs": [
        {
          "internalType": "bool",
          "name": "",
          "type": "bool"
        }
      ],
      "stateMutability": "view",
      "type": "function"
    },
    {
      "inputs": [
        {
          "internalType": "uint256",
          "name": "count",
          "type": "uint256"
        },
        {
          "internalType": "uint8",
          "name": "lockDurationMonths",
          "type": "uint8"
        },
        {
          "internalType": "address",
          "name": "to",
          "type": "address"
        }
      ],
      "name": "createLockPosition",
      "outputs": [],
      "stateMutability": "nonpayable",
      "type": "function"
    },
    {
      "inputs": [],
      "name": "dao",
      "outputs": [
        {
          "internalType": "contract ITokenLockDao",
          "name": "",
          "type": "address"
        }
      ],
      "stateMutability": "view",
      "type": "function"
    },
    {
      "inputs": [],
      "name": "guardian",
      "outputs": [
        {
          "internalType": "address",
          "name": "",
          "type": "address"
        }
      ],
      "stateMutability": "view",
      "type": "function"
    },
    {
      "inputs": [
        {
          "internalType": "address",
          "name": "to",
          "type": "address"
        },
        {
          "internalType": "uint256",
          "name": "count",
          "type": "uint256"
        }
      ],
      "name": "mintArbitrarily",
      "outputs": [],
      "stateMutability": "nonpayable",
      "type": "function"
    },
    {
      "inputs": [],
      "name": "pendingGuardian",
      "outputs": [
        {
          "internalType": "address",
          "name": "",
          "type": "address"
        }
      ],
      "stateMutability": "view",
      "type": "function"
    },
    {
      "inputs": [],
      "name": "recieveGuardianship",
      "outputs": [],
      "stateMutability": "nonpayable",
      "type": "function"
    },
    {
      "inputs": [
        {
          "internalType": "address",
          "name": "_dao",
          "type": "address"
        }
      ],
      "name": "setDao",
      "outputs": [],
      "stateMutability": "nonpayable",
      "type": "function"
    },
    {
      "inputs": [],
      "name": "token",
      "outputs": [
        {
          "internalType": "address",
          "name": "",
          "type": "address"
        }
      ],
      "stateMutability": "view",
      "type": "function"
    },
    {
      "inputs": [],
      "name": "tokenMinter",
      "outputs": [
        {
          "internalType": "contract ITokenIncentiveMinter",
          "name": "",
          "type": "address"
        }
      ],
      "stateMutability": "view",
      "type": "function"
    },
    {
      "inputs": [
        {
          "internalType": "address",
          "name": "newGuardian",
          "type": "address"
        }
      ],
      "name": "transferGuardianship",
      "outputs": [],
      "stateMutability": "nonpayable",
      "type": "function"
    }
  ],
  "bytecode": "0x60c06040526001600260146101000a81548160ff0219169083151502179055503480156200002d5760006000fd5b5060405162001399380380620013998339818101604052810190620000539190620001a1565b5b806000015181602001515b8173ffffffffffffffffffffffffffffffffffffffff1660808173ffffffffffffffffffffffffffffffffffffffff1660601b815260140150508073ffffffffffffffffffffffffffffffffffffffff1660a08173ffffffffffffffffffffffffffffffffffffffff1660601b81526014015050620000e433620000ef60201b60201c565b5b50505b5062000201565b80600060006101000a81548173ffffffffffffffffffffffffffffffffffffffff021916908373ffffffffffffffffffffffffffffffffffffffff1602179055508073ffffffffffffffffffffffffffffffffffffffff167fb6182387b7ea948602a7e04e662a27ce251dc3dd014eacaed10dce36b41bf1a560405160405180910390a25b505662000200565b6000815190506001600160a01b038116811415156200019b5760006000fd5b5b919050565b600060408284031215620001b3578081fd5b604051604081018181106001600160401b0382111715620001d057fe5b8060405250620001e0836200017c565b8152620001f0602084016200017c565b6020820152809150505b92915050565b5b60805160601c60a05160601c61115f6200023a600039806105f252806108d25280610d9b5250806108375280610ed0525061115f6000f3fe60806040523480156100115760006000fd5b50600436106100d95760003560e01c80639585ac8911610082578063cfb3647b1161005c578063cfb3647b146101bf578063ef7b550b146101dd578063fc0c546a146101f9576100d9565b80639585ac89146101695780639cef424014610187578063a3a8902e146101a3576100d9565b8063452a9320116100b3578063452a9320146101115780636637b8821461012f578063762c31ba1461014b576100d9565b80632a203de7146100df5780633d2ec400146100e95780634162169f146100f3576100d9565b60006000fd5b6100e7610217565b005b6100f16102fa565b005b6100fb6103b2565b60405161010891906110af565b60405180910390f35b6101196103d8565b604051610126919061104b565b60405180910390f35b61014960048036038101906101449190610fb3565b6103fe565b005b610153610643565b604051610160919061104b565b60405180910390f35b610171610669565b60405161017e9190611073565b60405180910390f35b6101a1600480360381019061019c9190610fb3565b61067c565b005b6101bd60048036038101906101b89190610fd6565b610721565b005b6101c7610835565b6040516101d49190611087565b60405180910390f35b6101f760048036038101906101f29190611003565b610859565b005b6102016108d0565b60405161020e919061104b565b60405180910390f35b610276600060009054906101000a900473ffffffffffffffffffffffffffffffffffffffff1673ffffffffffffffffffffffffffffffffffffffff163373ffffffffffffffffffffffffffffffffffffffff16146108f463ffffffff16565b6000600260146101000a81548160ff021916908315150217905550600060009054906101000a900473ffffffffffffffffffffffffffffffffffffffff1673ffffffffffffffffffffffffffffffffffffffff167f85f5ecd6aaf63c5f43fea7e23239531abea70003ead191ebc6cd9b9042856cba60405160405180910390a25b5b565b610359600160009054906101000a900473ffffffffffffffffffffffffffffffffffffffff1673ffffffffffffffffffffffffffffffffffffffff163373ffffffffffffffffffffffffffffffffffffffff16146108f463ffffffff16565b61038a600160009054906101000a900473ffffffffffffffffffffffffffffffffffffffff1661097063ffffffff16565b600160006101000a81549073ffffffffffffffffffffffffffffffffffffffff02191690555b565b600260009054906101000a900473ffffffffffffffffffffffffffffffffffffffff1681565b600060009054906101000a900473ffffffffffffffffffffffffffffffffffffffff1681565b61045d600060009054906101000a900473ffffffffffffffffffffffffffffffffffffffff1673ffffffffffffffffffffffffffffffffffffffff163373ffffffffffffffffffffffffffffffffffffffff16146108f463ffffffff16565b61046c816109f863ffffffff16565b15156104e3576040517f08c379a000000000000000000000000000000000000000000000000000000000815260040180806020018281038252600e8152602001807f4e6f74206120636f6e747261637400000000000000000000000000000000000081526020015060200191505060405180910390fd5b600073ffffffffffffffffffffffffffffffffffffffff16600260009054906101000a900473ffffffffffffffffffffffffffffffffffffffff1673ffffffffffffffffffffffffffffffffffffffff161415156105ac576040517f08c379a000000000000000000000000000000000000000000000000000000000815260040180806020018281038252600f8152602001807f44616f20616c726561647920736574000000000000000000000000000000000081526020015060200191505060405180910390fd5b80600260006101000a81548173ffffffffffffffffffffffffffffffffffffffff021916908373ffffffffffffffffffffffffffffffffffffffff16021790555061063e7f0000000000000000000000000000000000000000000000000000000000000000827fffffffffffffffffffffffffffffffffffffffffffffffffffffffffffffffff610a1263ffffffff16565b5b5b50565b600160009054906101000a900473ffffffffffffffffffffffffffffffffffffffff1681565b600260149054906101000a900460ff1681565b6106db600060009054906101000a900473ffffffffffffffffffffffffffffffffffffffff1673ffffffffffffffffffffffffffffffffffffffff163373ffffffffffffffffffffffffffffffffffffffff16146108f463ffffffff16565b80600160006101000a81548173ffffffffffffffffffffffffffffffffffffffff021916908373ffffffffffffffffffffffffffffffffffffffff1602179055505b5b50565b610780600060009054906101000a900473ffffffffffffffffffffffffffffffffffffffff1673ffffffffffffffffffffffffffffffffffffffff163373ffffffffffffffffffffffffffffffffffffffff16146108f463ffffffff16565b600260149054906101000a900460ff1615156107d1576040517f08c379a00000000000000000000000000000000000000000000000000000000081526004016107c8906110d7565b60405180910390fd5b6107e18282610c1e63ffffffff16565b8173ffffffffffffffffffffffffffffffffffffffff167ff777a3d0b1f66c7e8e2c312d197c0bdc5bc67e82d0b9c54d757898ee3b64089c826040516108279190611116565b60405180910390a25b5b5050565b7f000000000000000000000000000000000000000000000000000000000000000081565b6108b8600060009054906101000a900473ffffffffffffffffffffffffffffffffffffffff1673ffffffffffffffffffffffffffffffffffffffff163373ffffffffffffffffffffffffffffffffffffffff16146108f463ffffffff16565b6108c9838383610c8163ffffffff16565b5b5b505050565b7f000000000000000000000000000000000000000000000000000000000000000081565b80151561096c576040517f08c379a000000000000000000000000000000000000000000000000000000000815260040180806020018281038252600e8152602001807f4e6f7420417574686f72697a656400000000000000000000000000000000000081526020015060200191505060405180910390fd5b5b50565b80600060006101000a81548173ffffffffffffffffffffffffffffffffffffffff021916908373ffffffffffffffffffffffffffffffffffffffff1602179055508073ffffffffffffffffffffffffffffffffffffffff167fb6182387b7ea948602a7e04e662a27ce251dc3dd014eacaed10dce36b41bf1a560405160405180910390a25b50565b60006000823b905060008111915050610a0d56505b919050565b600060008473ffffffffffffffffffffffffffffffffffffffff1663095ea7b360e01b8585604051602401808373ffffffffffffffffffffffffffffffffffffffff16815260200182815260200192505050604051602081830303815290604052907bffffffffffffffffffffffffffffffffffffffffffffffffffffffff19166020820180517bffffffffffffffffffffffffffffffffffffffffffffffffffffffff83818316178352505050506040518082805190602001908083835b602083101515610af757805182525b602082019150602081019050602083039250610ad1565b6001836020036101000a0380198251168184511680821785525050505050509050019150506000604051808303816000865af19150503d8060008114610b59576040519150601f19603f3d011682016040523d82523d6000602084013e610b5e565b606091505b5091509150818015610b9f5750600081511480610b9e5750808060200190516020811015610b8c5760006000fd5b81019080805190602001909291905050505b5b1515610c16576040517f08c379a00000000000000000000000000000000000000000000000000000000081526004018080602001828103825260028152602001807f534100000000000000000000000000000000000000000000000000000000000081526020015060200191505060405180910390fd5b50505b505050565b610c2e8282610ece63ffffffff16565b8173ffffffffffffffffffffffffffffffffffffffff167faf2b23cbaeeb4ac51eb45799ad2661590f109d149e349e2c1b8a89b769c46846826040518082815260200191505060405180910390a25b5050565b600073ffffffffffffffffffffffffffffffffffffffff16600260009054906101000a900473ffffffffffffffffffffffffffffffffffffffff1673ffffffffffffffffffffffffffffffffffffffff1614151515610d4b576040517f08c379a000000000000000000000000000000000000000000000000000000000815260040180806020018281038252600b8152602001807f44616f206e6f742073657400000000000000000000000000000000000000000081526020015060200191505060405180910390fd5b610d5b3084610ece63ffffffff16565b600260009054906101000a900473ffffffffffffffffffffffffffffffffffffffff1673ffffffffffffffffffffffffffffffffffffffff166327fb04747f00000000000000000000000000000000000000000000000000000000000000008585856040518563ffffffff1660e01b8152600401808573ffffffffffffffffffffffffffffffffffffffff1681526020018481526020018360ff1681526020018273ffffffffffffffffffffffffffffffffffffffff168152602001945050505050602060405180830381600087803b158015610e385760006000fd5b505af1158015610e4d573d600060003e3d6000fd5b505050506040513d6020811015610e645760006000fd5b8101908080519060200190929190505050508160ff168173ffffffffffffffffffffffffffffffffffffffff167f603b80bf3fe3620c8b3029a98c48ed6d0a750f155cd9ad74e5a33637b6e27612856040518082815260200191505060405180910390a35b505050565b7f000000000000000000000000000000000000000000000000000000000000000073ffffffffffffffffffffffffffffffffffffffff16634cd7a31583836040518363ffffffff1660e01b8152600401808373ffffffffffffffffffffffffffffffffffffffff16815260200182815260200192505050600060405180830381600087803b158015610f605760006000fd5b505af1158015610f75573d600060003e3d6000fd5b505050505b505056611128565b60008135905073ffffffffffffffffffffffffffffffffffffffff811681141515610fad5760006000fd5b5b919050565b600060208284031215610fc4578081fd5b610fcd82610f82565b90505b92915050565b6000600060408385031215610fe9578081fd5b610ff283610f82565b9150602083013590505b9250929050565b60006000600060608486031215611018578081fd5b83359250602084013560ff811681141515611031578182fd5b8092505061104160408501610f82565b90505b9250925092565b600060208201905073ffffffffffffffffffffffffffffffffffffffff831682525b92915050565b600060208201905082151582525b92915050565b600060208201905073ffffffffffffffffffffffffffffffffffffffff831682525b92915050565b600060208201905073ffffffffffffffffffffffffffffffffffffffff831682525b92915050565b600060208252600960208301527f416264696361746564000000000000000000000000000000000000000000000060408301526060820190505b919050565b60006020820190508282525b92915050565bfea2646970667358221220140b41d9bc2d31c3fa6255c00bf7cda1c617a86a8645ab2c6c922e466b33ecf164736f6c63430007060033",
  "linkReferences": {},
  "deployedLinkReferences": {}
}