{
  "_format": "hh-sol-artifact-1",
  "contractName": "MockGovernor",
  "sourceName": "contracts/core/mocks/MockGovernor.sol",
  "abi": [
    {
      "inputs": [],
      "name": "currentPhase",
      "outputs": [
        {
          "internalType": "uint8",
          "name": "",
          "type": "uint8"
        }
      ],
      "stateMutability": "view",
      "type": "function"
    },
    {
      "inputs": [
        {
          "internalType": "address",
          "name": "",
          "type": "address"
        },
        {
          "internalType": "string",
          "name": "",
          "type": "string"
        },
        {
          "internalType": "bytes",
          "name": "",
          "type": "bytes"
        }
      ],
      "name": "execute",
      "outputs": [
        {
          "internalType": "bool",
          "name": "success",
          "type": "bool"
        },
        {
          "internalType": "bytes",
          "name": "returnData",
          "type": "bytes"
        }
      ],
      "stateMutability": "nonpayable",
      "type": "function"
    },
    {
      "inputs": [
        {
          "internalType": "contract MockTokenMinter",
          "name": "token",
          "type": "address"
        },
        {
          "internalType": "address",
          "name": "dest",
          "type": "address"
        },
        {
          "internalType": "uint256",
          "name": "count",
          "type": "uint256"
        }
      ],
      "name": "mintTo",
      "outputs": [],
      "stateMutability": "nonpayable",
      "type": "function"
    },
    {
      "inputs": [
        {
          "internalType": "address",
          "name": "",
          "type": "address"
        },
        {
          "internalType": "string",
          "name": "",
          "type": "string"
        }
      ],
      "name": "requireValidAction",
      "outputs": [],
      "stateMutability": "view",
      "type": "function"
    }
  ],
  "bytecode": "0x60806040523480156100115760006000fd5b50610017565b6104e5806100266000396000f3fe60806040523480156100115760006000fd5b50600436106100515760003560e01c8063055ad42e1461005757806333daf5d414610075578063a43c36af146100a6578063ef9bcb27146100c257610051565b60006000fd5b61005f6100de565b60405161006c919061043f565b60405180910390f35b61008f600480360381019061008a91906102a2565b6100ec565b60405161009d9291906103bd565b60405180910390f35b6100c060048036038101906100bb919061021c565b610104565b005b6100dc60048036038101906100d79190610349565b61010a565b005b6000600390506100e9565b90565b60006060600181915091506100fc565b935093915050565b5b505050565b8273ffffffffffffffffffffffffffffffffffffffff1663449a52f883836040518363ffffffff1660e01b815260040161014592919061038e565b600060405180830381600087803b1580156101605760006000fd5b505af1158015610175573d600060003e3d6000fd5b505050505b505050566104ae565b600067ffffffffffffffff8084111561019f5761019e610454565b5b7fffffffffffffffffffffffffffffffffffffffffffffffffffffffffffffffe060405181603f83601f89011601168101915080821083831117156101e7576101e6610454565b5b816040528093508581528686860111156102015760006000fd5b858560208301376000602087830101525050505b9392505050565b60006000600060408486031215610231578283fd5b833561023c81610485565b80935050602084013567ffffffffffffffff8082111561025a578384fd5b818601915086601f830112151561026f578384fd5b81358181111561027d578485fd5b87602082850101111561028e578485fd5b6020830194508093505050505b9250925092565b600060006000606084860312156102b7578283fd5b83356102c281610485565b80935050602084013567ffffffffffffffff808211156102e0578384fd5b818601915086601f83011215156102f5578384fd5b61030487833560208501610183565b93506040860135915080821115610319578283fd5b50808501905085601f820112151561032f578182fd5b61033e86823560208401610183565b9150505b9250925092565b6000600060006060848603121561035e578283fd5b833561036981610485565b80935050602084013561037b81610485565b80925050604084013590505b9250925092565b600060408201905073ffffffffffffffffffffffffffffffffffffffff841682528260208301525b9392505050565b8215158152600060206040818401528351806040850152825b818110156103f657828187010151606082870101525b82810190506103d6565b818111156104075783606083870101525b5060607fffffffffffffffffffffffffffffffffffffffffffffffffffffffffffffffe0601f830116850101925050505b9392505050565b600060208201905060ff831682525b92915050565b7f4e487b7100000000000000000000000000000000000000000000000000000000600052604160045260246000fd5b565b73ffffffffffffffffffffffffffffffffffffffff8116811415156104aa5760006000fd5b505b565bfea2646970667358221220a4e2d52e50d3345892a9e34bf88f8ebe3a69a69dd78a0f8dee4d07ab26b92fff64736f6c63430008040033",
  "linkReferences": {},
  "deployedLinkReferences": {}
}