{
  "_format": "hh-sol-artifact-1",
  "contractName": "MockGovernor",
  "sourceName": "contracts/core/mocks/MockGovernor.sol",
  "abi": [
    {
      "inputs": [],
      "name": "currentPhase",
      "outputs": [
        {
          "internalType": "uint8",
          "name": "",
          "type": "uint8"
        }
      ],
      "stateMutability": "view",
      "type": "function"
    },
    {
      "inputs": [
        {
          "internalType": "address",
          "name": "",
          "type": "address"
        },
        {
          "internalType": "string",
          "name": "",
          "type": "string"
        },
        {
          "internalType": "bytes",
          "name": "",
          "type": "bytes"
        }
      ],
      "name": "execute",
      "outputs": [
        {
          "internalType": "bool",
          "name": "success",
          "type": "bool"
        },
        {
          "internalType": "bytes",
          "name": "returnData",
          "type": "bytes"
        }
      ],
      "stateMutability": "nonpayable",
      "type": "function"
    },
    {
      "inputs": [
        {
          "internalType": "contract MockTokenMinter",
          "name": "token",
          "type": "address"
        },
        {
          "internalType": "address",
          "name": "dest",
          "type": "address"
        },
        {
          "internalType": "uint256",
          "name": "count",
          "type": "uint256"
        }
      ],
      "name": "mintTo",
      "outputs": [],
      "stateMutability": "nonpayable",
      "type": "function"
    },
    {
      "inputs": [
        {
          "internalType": "address",
          "name": "",
          "type": "address"
        },
        {
          "internalType": "string",
          "name": "",
          "type": "string"
        }
      ],
      "name": "requireValidAction",
      "outputs": [],
      "stateMutability": "view",
      "type": "function"
    }
  ],
  "bytecode": "0x60806040523480156100115760006000fd5b50610017565b6104fd806100266000396000f3fe60806040523480156100115760006000fd5b50600436106100515760003560e01c8063055ad42e1461005757806333daf5d414610075578063a43c36af146100a6578063ef9bcb27146100c257610051565b60006000fd5b61005f6100de565b60405161006c9190610183565b60405180910390f35b61008f600480360381019061008a919061028b565b6100ec565b60405161009d92919061033c565b60405180910390f35b6100c060048036038101906100bb91906103c0565b610104565b005b6100dc60048036038101906100d79190610450565b61010a565b005b6000600390506100e9565b90565b60006060600181915091506100fc565b935093915050565b5b505050565b8273ffffffffffffffffffffffffffffffffffffffff1663449a52f883836040518363ffffffff1660e01b8152600401610145929190610497565b600060405180830381600087803b1580156101605760006000fd5b505af1158015610175573d600060003e3d6000fd5b505050505b505050566104c6565b600060208201905060ff831682525b92915050565b73ffffffffffffffffffffffffffffffffffffffff8116811415156101bd5760006000fd5b505b565b7f4e487b7100000000000000000000000000000000000000000000000000000000600052604160045260246000fd5b565b600067ffffffffffffffff8084111561020e5761020d6101c1565b5b7fffffffffffffffffffffffffffffffffffffffffffffffffffffffffffffffe060405181603f83601f8901160116810191508082108383111715610256576102556101c1565b5b816040528093508581528686860111156102705760006000fd5b858560208301376000602087830101525050505b9392505050565b600060006000606084860312156102a25760006000fd5b83356102ad81610198565b80935050602084013567ffffffffffffffff808211156102cd5760006000fd5b818601915086601f83011215156102e45760006000fd5b6102f3878335602085016101f2565b9350604086013591508082111561030a5760006000fd5b50808501905085601f82011215156103225760006000fd5b610331868235602084016101f2565b9150505b9250925092565b821515815260006020604081840152835180604085015260005b8181101561037657828187010151606082870101525b8281019050610356565b81811115610388576000606083870101525b5060607fffffffffffffffffffffffffffffffffffffffffffffffffffffffffffffffe0601f830116850101925050505b9392505050565b600060006000604084860312156103d75760006000fd5b83356103e281610198565b80935050602084013567ffffffffffffffff808211156104025760006000fd5b818601915086601f83011215156104195760006000fd5b8135818111156104295760006000fd5b87602082850101111561043c5760006000fd5b6020830194508093505050505b9250925092565b600060006000606084860312156104675760006000fd5b833561047281610198565b80935050602084013561048481610198565b80925050604084013590505b9250925092565b600060408201905073ffffffffffffffffffffffffffffffffffffffff841682528260208301525b9392505050565bfea2646970667358221220892a2377e12f6e4358b6d026ac8c47488a07adcd642cccec7379d0f2b47a4f4c64736f6c634300080c0033",
  "linkReferences": {},
  "deployedLinkReferences": {}
}