{
  "_format": "hh-sol-artifact-1",
  "contractName": "TestnetERC20",
  "sourceName": "contracts/core/mocks/TestnetERC20.sol",
  "abi": [
    {
      "inputs": [
        {
          "internalType": "address",
          "name": "_initialHolder",
          "type": "address"
        },
        {
          "internalType": "uint256",
          "name": "initialTokens",
          "type": "uint256"
        },
        {
          "internalType": "string",
          "name": "_name",
          "type": "string"
        },
        {
          "internalType": "string",
          "name": "_symbol",
          "type": "string"
        },
        {
          "internalType": "uint8",
          "name": "_decimalsOverride",
          "type": "uint8"
        }
      ],
      "stateMutability": "nonpayable",
      "type": "constructor"
    },
    {
      "anonymous": false,
      "inputs": [
        {
          "indexed": true,
          "internalType": "address",
          "name": "owner",
          "type": "address"
        },
        {
          "indexed": true,
          "internalType": "address",
          "name": "spender",
          "type": "address"
        },
        {
          "indexed": false,
          "internalType": "uint256",
          "name": "value",
          "type": "uint256"
        }
      ],
      "name": "Approval",
      "type": "event"
    },
    {
      "anonymous": false,
      "inputs": [
        {
          "indexed": true,
          "internalType": "address",
          "name": "from",
          "type": "address"
        },
        {
          "indexed": true,
          "internalType": "address",
          "name": "to",
          "type": "address"
        },
        {
          "indexed": false,
          "internalType": "uint256",
          "name": "value",
          "type": "uint256"
        }
      ],
      "name": "Transfer",
      "type": "event"
    },
    {
      "inputs": [
        {
          "internalType": "address",
          "name": "owner",
          "type": "address"
        },
        {
          "internalType": "address",
          "name": "spender",
          "type": "address"
        }
      ],
      "name": "allowance",
      "outputs": [
        {
          "internalType": "uint256",
          "name": "",
          "type": "uint256"
        }
      ],
      "stateMutability": "view",
      "type": "function"
    },
    {
      "inputs": [
        {
          "internalType": "address",
          "name": "spender",
          "type": "address"
        },
        {
          "internalType": "uint256",
          "name": "amount",
          "type": "uint256"
        }
      ],
      "name": "approve",
      "outputs": [
        {
          "internalType": "bool",
          "name": "",
          "type": "bool"
        }
      ],
      "stateMutability": "nonpayable",
      "type": "function"
    },
    {
      "inputs": [
        {
          "internalType": "address",
          "name": "account",
          "type": "address"
        }
      ],
      "name": "balanceOf",
      "outputs": [
        {
          "internalType": "uint256",
          "name": "",
          "type": "uint256"
        }
      ],
      "stateMutability": "view",
      "type": "function"
    },
    {
      "inputs": [],
      "name": "decimals",
      "outputs": [
        {
          "internalType": "uint8",
          "name": "",
          "type": "uint8"
        }
      ],
      "stateMutability": "view",
      "type": "function"
    },
    {
      "inputs": [
        {
          "internalType": "address",
          "name": "spender",
          "type": "address"
        },
        {
          "internalType": "uint256",
          "name": "subtractedValue",
          "type": "uint256"
        }
      ],
      "name": "decreaseAllowance",
      "outputs": [
        {
          "internalType": "bool",
          "name": "",
          "type": "bool"
        }
      ],
      "stateMutability": "nonpayable",
      "type": "function"
    },
    {
      "inputs": [
        {
          "internalType": "address",
          "name": "spender",
          "type": "address"
        },
        {
          "internalType": "uint256",
          "name": "addedValue",
          "type": "uint256"
        }
      ],
      "name": "increaseAllowance",
      "outputs": [
        {
          "internalType": "bool",
          "name": "",
          "type": "bool"
        }
      ],
      "stateMutability": "nonpayable",
      "type": "function"
    },
    {
      "inputs": [],
      "name": "initialHolder",
      "outputs": [
        {
          "internalType": "address",
          "name": "",
          "type": "address"
        }
      ],
      "stateMutability": "view",
      "type": "function"
    },
    {
      "inputs": [
        {
          "internalType": "address",
          "name": "dest",
          "type": "address"
        },
        {
          "internalType": "uint256",
          "name": "count",
          "type": "uint256"
        }
      ],
      "name": "mintTo",
      "outputs": [],
      "stateMutability": "nonpayable",
      "type": "function"
    },
    {
      "inputs": [],
      "name": "name",
      "outputs": [
        {
          "internalType": "string",
          "name": "",
          "type": "string"
        }
      ],
      "stateMutability": "view",
      "type": "function"
    },
    {
      "inputs": [],
      "name": "symbol",
      "outputs": [
        {
          "internalType": "string",
          "name": "",
          "type": "string"
        }
      ],
      "stateMutability": "view",
      "type": "function"
    },
    {
      "inputs": [],
      "name": "totalSupply",
      "outputs": [
        {
          "internalType": "uint256",
          "name": "",
          "type": "uint256"
        }
      ],
      "stateMutability": "view",
      "type": "function"
    },
    {
      "inputs": [
        {
          "internalType": "address",
          "name": "recipient",
          "type": "address"
        },
        {
          "internalType": "uint256",
          "name": "amount",
          "type": "uint256"
        }
      ],
      "name": "transfer",
      "outputs": [
        {
          "internalType": "bool",
          "name": "",
          "type": "bool"
        }
      ],
      "stateMutability": "nonpayable",
      "type": "function"
    },
    {
      "inputs": [
        {
          "internalType": "address",
          "name": "sender",
          "type": "address"
        },
        {
          "internalType": "address",
          "name": "recipient",
          "type": "address"
        },
        {
          "internalType": "uint256",
          "name": "amount",
          "type": "uint256"
        }
      ],
      "name": "transferFrom",
      "outputs": [
        {
          "internalType": "bool",
          "name": "",
          "type": "bool"
        }
      ],
      "stateMutability": "nonpayable",
      "type": "function"
    }
  ],
  "bytecode": "0x60a0604052348015620000125760006000fd5b5060405162001fd438038062001fd48339818101604052810190620000389190620004a6565b5b82825b81600360005090805190602001906200005792919062000327565b5080600460005090805190602001906200007392919062000327565b505b505080600560006101000a81548160ff021916908360ff160217905550620000a48585620000ea60201b60201c565b8473ffffffffffffffffffffffffffffffffffffffff1660808173ffffffffffffffffffffffffffffffffffffffff1660601b815260140150505b5050505050620007e5565b620000fa6200017660201b60201c565b600a62000108919062000663565b6298968062000118919062000746565b81111515156200015f576040517f08c379a0000000000000000000000000000000000000000000000000000000008152600401620001569062000559565b60405180910390fd5b6200017182826200019360201b60201c565b5b5050565b6000600560009054906101000a900460ff16905062000190565b90565b600073ffffffffffffffffffffffffffffffffffffffff168273ffffffffffffffffffffffffffffffffffffffff161415151562000208576040517f08c379a0000000000000000000000000000000000000000000000000000000008152600401620001ff9062000598565b60405180910390fd5b6200021c600083836200031b60201b60201c565b80600260008282825054620002329190620005e9565b92505081909090555080600060005060008473ffffffffffffffffffffffffffffffffffffffff1673ffffffffffffffffffffffffffffffffffffffff16815260200190815260200160002060008282825054620002919190620005e9565b9250508190909055508173ffffffffffffffffffffffffffffffffffffffff16600073ffffffffffffffffffffffffffffffffffffffff167fddf252ad1be2c89b69c2b068fc378daa952ba7f163c4a11628f55a4df523b3ef83604051620002fa9190620005d7565b60405180910390a362000316600083836200032160201b60201c565b5b5050565b5b505050565b5b505050565b828054620003359062000770565b90600052602060002090601f016020900481019282620003595760008555620003aa565b82601f106200037457805160ff1916838001178555620003aa565b82800160010185558215620003aa579182015b82811115620003a9578251826000509090559160200191906001019062000387565b5b509050620003b99190620003bd565b5090565b620003c3565b80821115620003df5760008181506000905550600101620003c3565b509056620007e4565b600082601f8301121515620003fb578081fd5b81516001600160401b0380821115620004195762000418620007cc565b5b601f1960405181603f83601f8701160116810191508082108383111715620004465762000445620007cc565b5b8160405283815260209250868385880101111562000462578485fd5b8491505b8382101562000487578282870101518383830101525b828201915062000466565b838211156200049857848385830101525b809450505050505b92915050565b6000600060006000600060a08688031215620004c0578081fd5b85516001600160a01b03811681141515620004d9578182fd5b809550506020860151935060408601516001600160401b0380821115620004fe578283fd5b6200050c89838a01620003e8565b9450606088015191508082111562000522578283fd5b506200053188828901620003e8565b925050608086015160ff8116811415156200054a578182fd5b809150505b9295509295909350565b60208152600860208201527f546f6f206d756368000000000000000000000000000000000000000000000000604082015260006060820190505b919050565b60208152601f60208201527f45524332303a206d696e7420746f20746865207a65726f206164647265737300604082015260006060820190505b919050565b60006020820190508282525b92915050565b600082198211156200060057620005ff620007b4565b5b82820190505b92915050565b6000600060018092508391505b808511156200065a5781600019048211156200063a5762000639620007b4565b5b80851615620006495781830292505b818202915084811c94505b62000619565b505b9250929050565b60006200067460ff8416836200067d565b90505b92915050565b600082151562000691576001905062000740565b811515620006a3576000905062000740565b8160018114620006bc5760028114620006cc57620006ee565b60019150506200074056620006ee565b60ff841115620006e157620006e0620007b4565b5b6001841b91505062000740565b5060208310610133831016604e8410600b8410161715620007145782820a905062000740565b6200072083836200060c565b8060001904821115620007385762000737620007b4565b5b808202925050505b92915050565b6000816000190483118215151615620007645762000763620007b4565b5b82820290505b92915050565b60008160011c9050600182168015156200078b57607f821691505b60208210811415620007ad57634e487b7160e01b600052602260045260246000fd5b505b919050565b634e487b7160e01b600052601160045260246000fd5b565b634e487b7160e01b600052604160045260246000fd5b565b5b60805160601c6117c96200080b600039600081816105d201526108a301526117c96000f3fe60806040523480156100115760006000fd5b50600436106100e45760003560e01c8063449a52f81161008d578063a457c2d711610067578063a457c2d71461023e578063a9059cbb1461026e578063b72218e31461029e578063dd62ed3e146102bc576100e4565b8063449a52f8146101d457806370a08231146101f057806395d89b4114610220576100e4565b806323b872dd116100be57806323b872dd14610156578063313ce5671461018657806339509351146101a4576100e4565b806306fdde03146100ea578063095ea7b31461010857806318160ddd14610138576100e4565b60006000fd5b6100f26102ec565b6040516100ff9190611128565b60405180910390f35b610122600480360381019061011d91906110bf565b610386565b60405161012f9190611114565b60405180910390f35b6101406103b5565b60405161014d9190611520565b60405180910390f35b610170600480360381019061016b9190611082565b6103c7565b60405161017d9190611114565b60405180910390f35b61018e6104e8565b60405161019b9190611532565b60405180910390f35b6101be60048036038101906101b991906110bf565b610504565b6040516101cb9190611114565b60405180910390f35b6101ee60048036038101906101e991906110bf565b6105d0565b005b61020a6004803603810190610205919061102b565b610675565b6040516102179190611520565b60405180910390f35b6102286106c9565b6040516102359190611128565b60405180910390f35b610258600480360381019061025391906110bf565b610763565b6040516102659190611114565b60405180910390f35b610288600480360381019061028391906110bf565b610872565b6040516102959190611114565b60405180910390f35b6102a66108a1565b6040516102b391906110ec565b60405180910390f35b6102d660048036038101906102d1919061104e565b6108c5565b6040516102e39190611520565b60405180910390f35b6060600360005080546102fe90611706565b80601f016020809104026020016040519081016040528092919081815260200182805461032a90611706565b80156103775780601f1061034c57610100808354040283529160200191610377565b820191906000526020600020905b81548152906001019060200180831161035a57829003601f168201915b50505050509050610383565b90565b60006103a661039961095a63ffffffff16565b848461096763ffffffff16565b600190506103af565b92915050565b600060026000505490506103c4565b90565b60006103da848484610b4263ffffffff16565b6000600160005060008673ffffffffffffffffffffffffffffffffffffffff1673ffffffffffffffffffffffffffffffffffffffff168152602001908152602001600020600050600061043161095a63ffffffff16565b73ffffffffffffffffffffffffffffffffffffffff1673ffffffffffffffffffffffffffffffffffffffff1681526020019081526020016000206000505490508281101515156104b6576040517f08c379a00000000000000000000000000000000000000000000000000000000081526004016104ad9061134d565b60405180910390fd5b6104d6856104c861095a63ffffffff16565b85840361096763ffffffff16565b60019150506104e156505b9392505050565b6000600560009054906101000a900460ff169050610501565b90565b60006105c161051761095a63ffffffff16565b84846001600050600061052e61095a63ffffffff16565b73ffffffffffffffffffffffffffffffffffffffff1673ffffffffffffffffffffffffffffffffffffffff16815260200190815260200160002060005060008873ffffffffffffffffffffffffffffffffffffffff1673ffffffffffffffffffffffffffffffffffffffff168152602001908152602001600020600050546105b69190611547565b61096763ffffffff16565b600190506105ca565b92915050565b7f000000000000000000000000000000000000000000000000000000000000000073ffffffffffffffffffffffffffffffffffffffff163373ffffffffffffffffffffffffffffffffffffffff16141515610660576040517f08c379a00000000000000000000000000000000000000000000000000000000081526004016106579061130e565b60405180910390fd5b6106708282610dee63ffffffff16565b5b5050565b6000600060005060008373ffffffffffffffffffffffffffffffffffffffff1673ffffffffffffffffffffffffffffffffffffffff1681526020019081526020016000206000505490506106c4565b919050565b6060600460005080546106db90611706565b80601f016020809104026020016040519081016040528092919081815260200182805461070790611706565b80156107545780601f1061072957610100808354040283529160200191610754565b820191906000526020600020905b81548152906001019060200180831161073757829003601f168201915b50505050509050610760565b90565b600060006001600050600061077c61095a63ffffffff16565b73ffffffffffffffffffffffffffffffffffffffff1673ffffffffffffffffffffffffffffffffffffffff16815260200190815260200160002060005060008573ffffffffffffffffffffffffffffffffffffffff1673ffffffffffffffffffffffffffffffffffffffff168152602001908152602001600020600050549050828110151515610841576040517f08c379a00000000000000000000000000000000000000000000000000000000081526004016108389061147c565b60405180910390fd5b61086161085261095a63ffffffff16565b8585840361096763ffffffff16565b600191505061086c56505b92915050565b600061089261088561095a63ffffffff16565b8484610b4263ffffffff16565b6001905061089b565b92915050565b7f000000000000000000000000000000000000000000000000000000000000000081565b6000600160005060008473ffffffffffffffffffffffffffffffffffffffff1673ffffffffffffffffffffffffffffffffffffffff16815260200190815260200160002060005060008373ffffffffffffffffffffffffffffffffffffffff1673ffffffffffffffffffffffffffffffffffffffff168152602001908152602001600020600050549050610954565b92915050565b6000339050610964565b90565b600073ffffffffffffffffffffffffffffffffffffffff168373ffffffffffffffffffffffffffffffffffffffff16141515156109d9576040517f08c379a00000000000000000000000000000000000000000000000000000000081526004016109d090611417565b60405180910390fd5b600073ffffffffffffffffffffffffffffffffffffffff168273ffffffffffffffffffffffffffffffffffffffff1614151515610a4b576040517f08c379a0000000000000000000000000000000000000000000000000000000008152600401610a4290611244565b60405180910390fd5b80600160005060008573ffffffffffffffffffffffffffffffffffffffff1673ffffffffffffffffffffffffffffffffffffffff16815260200190815260200160002060005060008473ffffffffffffffffffffffffffffffffffffffff1673ffffffffffffffffffffffffffffffffffffffff1681526020019081526020016000206000508190909055508173ffffffffffffffffffffffffffffffffffffffff168373ffffffffffffffffffffffffffffffffffffffff167f8c5be1e5ebec7d5bd14f71427d1e84f3dd0314c0f7b2291e5b200ac8c7c3b92583604051610b349190611520565b60405180910390a35b505050565b600073ffffffffffffffffffffffffffffffffffffffff168373ffffffffffffffffffffffffffffffffffffffff1614151515610bb4576040517f08c379a0000000000000000000000000000000000000000000000000000000008152600401610bab906113b2565b60405180910390fd5b600073ffffffffffffffffffffffffffffffffffffffff168273ffffffffffffffffffffffffffffffffffffffff1614151515610c26576040517f08c379a0000000000000000000000000000000000000000000000000000000008152600401610c1d906111a0565b60405180910390fd5b610c37838383610e6f63ffffffff16565b6000600060005060008573ffffffffffffffffffffffffffffffffffffffff1673ffffffffffffffffffffffffffffffffffffffff168152602001908152602001600020600050549050818110151515610cc6576040517f08c379a0000000000000000000000000000000000000000000000000000000008152600401610cbd906112a9565b60405180910390fd5b818103600060005060008673ffffffffffffffffffffffffffffffffffffffff1673ffffffffffffffffffffffffffffffffffffffff16815260200190815260200160002060005081909090555081600060005060008573ffffffffffffffffffffffffffffffffffffffff1673ffffffffffffffffffffffffffffffffffffffff16815260200190815260200160002060008282825054610d689190611547565b9250508190909055508273ffffffffffffffffffffffffffffffffffffffff168473ffffffffffffffffffffffffffffffffffffffff167fddf252ad1be2c89b69c2b068fc378daa952ba7f163c4a11628f55a4df523b3ef84604051610dce9190611520565b60405180910390a3610de7848484610e7563ffffffff16565b505b505050565b610dfc6104e863ffffffff16565b600a610e0891906115d6565b62989680610e1691906116c1565b8111151515610e5a576040517f08c379a0000000000000000000000000000000000000000000000000000000008152600401610e5190611205565b60405180910390fd5b610e6a8282610e7b63ffffffff16565b5b5050565b5b505050565b5b505050565b600073ffffffffffffffffffffffffffffffffffffffff168273ffffffffffffffffffffffffffffffffffffffff1614151515610eed576040517f08c379a0000000000000000000000000000000000000000000000000000000008152600401610ee4906114e1565b60405180910390fd5b610eff60008383610e6f63ffffffff16565b80600260008282825054610f139190611547565b92505081909090555080600060005060008473ffffffffffffffffffffffffffffffffffffffff1673ffffffffffffffffffffffffffffffffffffffff16815260200190815260200160002060008282825054610f709190611547565b9250508190909055508173ffffffffffffffffffffffffffffffffffffffff16600073ffffffffffffffffffffffffffffffffffffffff167fddf252ad1be2c89b69c2b068fc378daa952ba7f163c4a11628f55a4df523b3ef83604051610fd79190611520565b60405180910390a3610ff160008383610e7563ffffffff16565b5b505056611792565b60008135905073ffffffffffffffffffffffffffffffffffffffff8116811415156110255760006000fd5b5b919050565b60006020828403121561103c578081fd5b61104582610ffa565b90505b92915050565b6000600060408385031215611061578081fd5b61106a83610ffa565b915061107860208401610ffa565b90505b9250929050565b60006000600060608486031215611097578081fd5b6110a084610ffa565b92506110ae60208501610ffa565b9150604084013590505b9250925092565b60006000604083850312156110d2578182fd5b6110db83610ffa565b9150602083013590505b9250929050565b600060208201905073ffffffffffffffffffffffffffffffffffffffff831682525b92915050565b600060208201905082151582525b92915050565b6000602080835283518082850152825b8181101561115857828187010151604082870101525b8281019050611138565b818111156111695783604083870101525b5060407fffffffffffffffffffffffffffffffffffffffffffffffffffffffffffffffe0601f830116850101925050505b92915050565b60208152602360208201527f45524332303a207472616e7366657220746f20746865207a65726f206164647260408201527f6573730000000000000000000000000000000000000000000000000000000000606082015260006080820190505b919050565b60208152600860208201527f546f6f206d756368000000000000000000000000000000000000000000000000604082015260006060820190505b919050565b60208152602260208201527f45524332303a20617070726f766520746f20746865207a65726f20616464726560408201527f7373000000000000000000000000000000000000000000000000000000000000606082015260006080820190505b919050565b60208152602660208201527f45524332303a207472616e7366657220616d6f756e742065786365656473206260408201527f616c616e63650000000000000000000000000000000000000000000000000000606082015260006080820190505b919050565b60208152600e60208201527f4e6f7420417574686f72697a6564000000000000000000000000000000000000604082015260006060820190505b919050565b60208152602860208201527f45524332303a207472616e7366657220616d6f756e742065786365656473206160408201527f6c6c6f77616e6365000000000000000000000000000000000000000000000000606082015260006080820190505b919050565b60208152602560208201527f45524332303a207472616e736665722066726f6d20746865207a65726f20616460408201527f6472657373000000000000000000000000000000000000000000000000000000606082015260006080820190505b919050565b60208152602460208201527f45524332303a20617070726f76652066726f6d20746865207a65726f2061646460408201527f7265737300000000000000000000000000000000000000000000000000000000606082015260006080820190505b919050565b60208152602560208201527f45524332303a2064656372656173656420616c6c6f77616e63652062656c6f7760408201527f207a65726f000000000000000000000000000000000000000000000000000000606082015260006080820190505b919050565b60208152601f60208201527f45524332303a206d696e7420746f20746865207a65726f206164647265737300604082015260006060820190505b919050565b60006020820190508282525b92915050565b600060208201905060ff831682525b92915050565b6000821982111561155b5761155a611761565b5b82820190505b92915050565b6000600060018092508391505b808511156115cd57817fffffffffffffffffffffffffffffffffffffffffffffffffffffffffffffffff048211156115af576115ae611761565b5b808516156115bd5781830292505b818202915084811c94505b611574565b505b9250929050565b60006115e560ff8416836115ee565b90505b92915050565b600082151561160057600190506116bb565b81151561161057600090506116bb565b8160018114611626576002811461163457611652565b60019150506116bb56611652565b60ff84111561164657611645611761565b5b6001841b9150506116bb565b5060208310610133831016604e8410600b84101617156116765782820a90506116bb565b6116808383611567565b807fffffffffffffffffffffffffffffffffffffffffffffffffffffffffffffffff048211156116b3576116b2611761565b5b808202925050505b92915050565b6000817fffffffffffffffffffffffffffffffffffffffffffffffffffffffffffffffff04831182151516156116fa576116f9611761565b5b82820290505b92915050565b60008160011c90506001821680151561172057607f821691505b6020821081141561175a577f4e487b7100000000000000000000000000000000000000000000000000000000600052602260045260246000fd5b505b919050565b7f4e487b7100000000000000000000000000000000000000000000000000000000600052601160045260246000fd5b565bfea264697066735822122020d2bb23625b2002548f071eb4d3067a94fbbb28737da4a4698ffaaaa650c52564736f6c63430008040033",
  "linkReferences": {},
  "deployedLinkReferences": {}
}