{
  "_format": "hh-sol-artifact-1",
  "contractName": "TDaoTestable",
  "sourceName": "contracts/mocks/TDaoTestable.sol",
  "abi": [
    {
      "inputs": [
        {
          "internalType": "address",
          "name": "_guardian",
          "type": "address"
        }
      ],
      "stateMutability": "nonpayable",
      "type": "constructor"
    },
    {
      "anonymous": false,
      "inputs": [
        {
          "indexed": true,
          "internalType": "address",
          "name": "token",
          "type": "address"
        },
        {
          "indexed": false,
          "internalType": "uint256",
          "name": "count",
          "type": "uint256"
        }
      ],
      "name": "IncentiveMinted",
      "type": "event"
    },
    {
      "anonymous": false,
      "inputs": [
        {
          "indexed": true,
          "internalType": "uint64",
          "name": "currentPeriod",
          "type": "uint64"
        },
        {
          "indexed": false,
          "internalType": "uint64",
          "name": "periods",
          "type": "uint64"
        }
      ],
      "name": "InflationAccrued",
      "type": "event"
    },
    {
      "anonymous": false,
      "inputs": [
        {
          "indexed": true,
          "internalType": "address",
          "name": "_contract",
          "type": "address"
        }
      ],
      "name": "LiquidationIncentiveContractSet",
      "type": "event"
    },
    {
      "anonymous": false,
      "inputs": [
        {
          "indexed": true,
          "internalType": "uint64",
          "name": "positionNFTTokenID",
          "type": "uint64"
        },
        {
          "indexed": true,
          "internalType": "uint16",
          "name": "lockDurationMonths",
          "type": "uint16"
        }
      ],
      "name": "LockDurationIncrease",
      "type": "event"
    },
    {
      "anonymous": false,
      "inputs": [
        {
          "indexed": true,
          "internalType": "uint64",
          "name": "positionNFTTokenID",
          "type": "uint64"
        },
        {
          "indexed": true,
          "internalType": "address",
          "name": "owner",
          "type": "address"
        }
      ],
      "name": "RewardsClaimed",
      "type": "event"
    },
    {
      "anonymous": false,
      "inputs": [],
      "name": "TDaoStarted",
      "type": "event"
    },
    {
      "anonymous": false,
      "inputs": [
        {
          "indexed": true,
          "internalType": "address",
          "name": "token",
          "type": "address"
        }
      ],
      "name": "TokenAdded",
      "type": "event"
    },
    {
      "anonymous": false,
      "inputs": [
        {
          "indexed": true,
          "internalType": "uint16",
          "name": "tokenID",
          "type": "uint16"
        },
        {
          "indexed": true,
          "internalType": "address",
          "name": "initialOwner",
          "type": "address"
        },
        {
          "indexed": true,
          "internalType": "uint8",
          "name": "lockDurationMonths",
          "type": "uint8"
        },
        {
          "indexed": false,
          "internalType": "uint256",
          "name": "count",
          "type": "uint256"
        }
      ],
      "name": "TokensLocked",
      "type": "event"
    },
    {
      "anonymous": false,
      "inputs": [
        {
          "indexed": true,
          "internalType": "uint16",
          "name": "tokenID",
          "type": "uint16"
        },
        {
          "indexed": true,
          "internalType": "address",
          "name": "owner",
          "type": "address"
        },
        {
          "indexed": false,
          "internalType": "uint256",
          "name": "count",
          "type": "uint256"
        }
      ],
      "name": "TokensUnlocked",
      "type": "event"
    },
    {
      "inputs": [],
      "name": "accrueInflation",
      "outputs": [],
      "stateMutability": "nonpayable",
      "type": "function"
    },
    {
      "inputs": [
        {
          "internalType": "contract IERC20",
          "name": "token",
          "type": "address"
        }
      ],
      "name": "addToken",
      "outputs": [],
      "stateMutability": "nonpayable",
      "type": "function"
    },
    {
      "inputs": [
        {
          "internalType": "bytes4",
          "name": "",
          "type": "bytes4"
        }
      ],
      "name": "blacklistedAction",
      "outputs": [
        {
          "internalType": "bool",
          "name": "",
          "type": "bool"
        }
      ],
      "stateMutability": "view",
      "type": "function"
    },
    {
      "inputs": [
        {
          "internalType": "uint64",
          "name": "months",
          "type": "uint64"
        }
      ],
      "name": "calculateMonthsToDays",
      "outputs": [
        {
          "internalType": "uint256",
          "name": "",
          "type": "uint256"
        }
      ],
      "stateMutability": "pure",
      "type": "function"
    },
    {
      "inputs": [
        {
          "internalType": "uint256",
          "name": "count",
          "type": "uint256"
        },
        {
          "internalType": "uint64",
          "name": "durationMonths",
          "type": "uint64"
        }
      ],
      "name": "calculateVirtualCount",
      "outputs": [
        {
          "internalType": "uint256",
          "name": "",
          "type": "uint256"
        }
      ],
      "stateMutability": "pure",
      "type": "function"
    },
    {
      "inputs": [],
      "name": "countUnderlyingProtocolTokens",
      "outputs": [
        {
          "internalType": "uint16",
          "name": "",
          "type": "uint16"
        }
      ],
      "stateMutability": "view",
      "type": "function"
    },
    {
      "inputs": [],
      "name": "currentPeriod",
      "outputs": [
        {
          "internalType": "uint64",
          "name": "period",
          "type": "uint64"
        }
      ],
      "stateMutability": "view",
      "type": "function"
    },
    {
      "inputs": [],
      "name": "dailyProtocolTDaoIncentiveCount",
      "outputs": [
        {
          "internalType": "uint256",
          "name": "",
          "type": "uint256"
        }
      ],
      "stateMutability": "view",
      "type": "function"
    },
    {
      "inputs": [],
      "name": "deployer",
      "outputs": [
        {
          "internalType": "address",
          "name": "",
          "type": "address"
        }
      ],
      "stateMutability": "view",
      "type": "function"
    },
    {
      "inputs": [
        {
          "internalType": "address",
          "name": "target",
          "type": "address"
        },
        {
          "internalType": "string",
          "name": "signature",
          "type": "string"
        },
        {
          "internalType": "bytes",
          "name": "data",
          "type": "bytes"
        }
      ],
      "name": "execute",
      "outputs": [
        {
          "internalType": "bool",
          "name": "success",
          "type": "bool"
        },
        {
          "internalType": "bytes",
          "name": "returnData",
          "type": "bytes"
        }
      ],
      "stateMutability": "nonpayable",
      "type": "function"
    },
    {
      "inputs": [
        {
          "internalType": "uint256",
          "name": "metaProposalID",
          "type": "uint256"
        }
      ],
      "name": "executeMetaProposalVote",
      "outputs": [],
      "stateMutability": "nonpayable",
      "type": "function"
    },
    {
      "inputs": [],
      "name": "firstPeriod",
      "outputs": [
        {
          "internalType": "uint64",
          "name": "",
          "type": "uint64"
        }
      ],
      "stateMutability": "view",
      "type": "function"
    },
    {
      "inputs": [
        {
          "internalType": "uint64",
          "name": "positionNFTTokenID",
          "type": "uint64"
        }
      ],
      "name": "getPosition",
      "outputs": [
        {
          "components": [
            {
              "internalType": "uint256",
              "name": "count",
              "type": "uint256"
            },
            {
              "internalType": "uint256",
              "name": "startTotalRewards",
              "type": "uint256"
            },
            {
              "internalType": "uint256",
              "name": "startCumulativeVirtualCount",
              "type": "uint256"
            },
            {
              "internalType": "uint64",
              "name": "lastPeriodUpdated",
              "type": "uint64"
            },
            {
              "internalType": "uint64",
              "name": "endPeriod",
              "type": "uint64"
            },
            {
              "internalType": "uint64",
              "name": "durationMonths",
              "type": "uint64"
            },
            {
              "internalType": "uint16",
              "name": "tokenID",
              "type": "uint16"
            }
          ],
          "internalType": "struct ITDao.TokenPosition",
          "name": "",
          "type": "tuple"
        }
      ],
      "stateMutability": "view",
      "type": "function"
    },
    {
      "inputs": [
        {
          "internalType": "uint64[]",
          "name": "positionNFTTokenIDs",
          "type": "uint64[]"
        }
      ],
      "name": "getRewards",
      "outputs": [],
      "stateMutability": "nonpayable",
      "type": "function"
    },
    {
      "inputs": [
        {
          "internalType": "uint16",
          "name": "_tokenID",
          "type": "uint16"
        }
      ],
      "name": "getRewardsStatus",
      "outputs": [
        {
          "components": [
            {
              "internalType": "uint256",
              "name": "cumulativeVirtualCount",
              "type": "uint256"
            },
            {
              "internalType": "uint256",
              "name": "totalRewards",
              "type": "uint256"
            }
          ],
          "internalType": "struct ITDao.TokenRewardsStatus",
          "name": "",
          "type": "tuple"
        }
      ],
      "stateMutability": "view",
      "type": "function"
    },
    {
      "inputs": [],
      "name": "guardian",
      "outputs": [
        {
          "internalType": "address",
          "name": "",
          "type": "address"
        }
      ],
      "stateMutability": "view",
      "type": "function"
    },
    {
      "inputs": [
        {
          "internalType": "uint16",
          "name": "",
          "type": "uint16"
        }
      ],
      "name": "idToToken",
      "outputs": [
        {
          "internalType": "contract IERC20",
          "name": "",
          "type": "address"
        }
      ],
      "stateMutability": "view",
      "type": "function"
    },
    {
      "inputs": [],
      "name": "incentiveContract",
      "outputs": [
        {
          "internalType": "address",
          "name": "",
          "type": "address"
        }
      ],
      "stateMutability": "view",
      "type": "function"
    },
    {
      "inputs": [
        {
          "internalType": "address",
          "name": "dest",
          "type": "address"
        },
        {
          "internalType": "uint256",
          "name": "count",
          "type": "uint256"
        }
      ],
      "name": "incentiveContractMint",
      "outputs": [],
      "stateMutability": "nonpayable",
      "type": "function"
    },
    {
      "inputs": [],
      "name": "incentivesStartPeriod",
      "outputs": [
        {
          "internalType": "uint64",
          "name": "",
          "type": "uint64"
        }
      ],
      "stateMutability": "view",
      "type": "function"
    },
    {
      "inputs": [
        {
          "internalType": "uint64",
          "name": "positionNFTTokenID",
          "type": "uint64"
        },
        {
          "internalType": "uint8",
          "name": "lockDurationMonths",
          "type": "uint8"
        }
      ],
      "name": "increaseLockDuration",
      "outputs": [],
      "stateMutability": "nonpayable",
      "type": "function"
    },
    {
      "inputs": [
        {
          "internalType": "contract IPositionNFT",
          "name": "_tDaoPositionNFT",
          "type": "address"
        },
        {
          "internalType": "contract IProtocolToken",
          "name": "_tDaoToken",
          "type": "address"
        },
        {
          "internalType": "address",
          "name": "_tDaoGovernorAlpha",
          "type": "address"
        },
        {
          "internalType": "address",
          "name": "_timelock",
          "type": "address"
        }
      ],
      "name": "init",
      "outputs": [],
      "stateMutability": "nonpayable",
      "type": "function"
    },
    {
      "inputs": [],
      "name": "lastPeriodGlobalInflationUpdated",
      "outputs": [
        {
          "internalType": "uint64",
          "name": "",
          "type": "uint64"
        }
      ],
      "stateMutability": "view",
      "type": "function"
    },
    {
      "inputs": [
        {
          "internalType": "contract IERC20",
          "name": "token",
          "type": "address"
        },
        {
          "internalType": "uint256",
          "name": "count",
          "type": "uint256"
        },
        {
          "internalType": "uint8",
          "name": "lockDurationMonths",
          "type": "uint8"
        },
        {
          "internalType": "address",
          "name": "to",
          "type": "address"
        }
      ],
      "name": "lockTokens",
      "outputs": [
        {
          "internalType": "uint64",
          "name": "positionNFTTokenID",
          "type": "uint64"
        }
      ],
      "stateMutability": "nonpayable",
      "type": "function"
    },
    {
      "inputs": [
        {
          "internalType": "address",
          "name": "dest",
          "type": "address"
        },
        {
          "internalType": "uint256",
          "name": "count",
          "type": "uint256"
        }
      ],
      "name": "mintIncentive",
      "outputs": [],
      "stateMutability": "nonpayable",
      "type": "function"
    },
    {
      "inputs": [
        {
          "internalType": "address",
          "name": "dest",
          "type": "address"
        },
        {
          "internalType": "uint256",
          "name": "count",
          "type": "uint256"
        }
      ],
      "name": "mintVotingRewards",
      "outputs": [],
      "stateMutability": "nonpayable",
      "type": "function"
    },
    {
      "inputs": [],
      "name": "periodLength",
      "outputs": [
        {
          "internalType": "uint64",
          "name": "",
          "type": "uint64"
        }
      ],
      "stateMutability": "view",
      "type": "function"
    },
    {
      "inputs": [
        {
          "internalType": "uint64",
          "name": "period",
          "type": "uint64"
        }
      ],
      "name": "periodToTime",
      "outputs": [
        {
          "internalType": "uint64",
          "name": "",
          "type": "uint64"
        }
      ],
      "stateMutability": "view",
      "type": "function"
    },
    {
      "inputs": [
        {
          "internalType": "uint64",
          "name": "positionNFTTokenID",
          "type": "uint64"
        }
      ],
      "name": "positionIsAbleToBeUnlocked",
      "outputs": [
        {
          "internalType": "bool",
          "name": "",
          "type": "bool"
        }
      ],
      "stateMutability": "view",
      "type": "function"
    },
    {
      "inputs": [
        {
          "internalType": "contract IERC20",
          "name": "token",
          "type": "address"
        }
      ],
      "name": "selfDelegate",
      "outputs": [],
      "stateMutability": "nonpayable",
      "type": "function"
    },
    {
      "inputs": [
        {
          "internalType": "address",
          "name": "governorAlpha",
          "type": "address"
        },
        {
          "internalType": "uint256",
          "name": "proposalID",
          "type": "uint256"
        },
        {
          "internalType": "address",
          "name": "voter",
          "type": "address"
        },
        {
          "internalType": "uint256",
          "name": "votePortion",
          "type": "uint256"
        }
      ],
      "name": "sendUnderlyingVotingRewards",
      "outputs": [],
      "stateMutability": "nonpayable",
      "type": "function"
    },
    {
      "inputs": [
        {
          "internalType": "contract IERC20",
          "name": "firstToken",
          "type": "address"
        }
      ],
      "name": "setFirstToken",
      "outputs": [],
      "stateMutability": "nonpayable",
      "type": "function"
    },
    {
      "inputs": [
        {
          "internalType": "address",
          "name": "_contract",
          "type": "address"
        }
      ],
      "name": "setIncentiveContract",
      "outputs": [],
      "stateMutability": "nonpayable",
      "type": "function"
    },
    {
      "inputs": [],
      "name": "start",
      "outputs": [],
      "stateMutability": "nonpayable",
      "type": "function"
    },
    {
      "inputs": [],
      "name": "startPeriod",
      "outputs": [
        {
          "internalType": "uint64",
          "name": "",
          "type": "uint64"
        }
      ],
      "stateMutability": "view",
      "type": "function"
    },
    {
      "inputs": [],
      "name": "tDaoGovernorAlpha",
      "outputs": [
        {
          "internalType": "address",
          "name": "",
          "type": "address"
        }
      ],
      "stateMutability": "view",
      "type": "function"
    },
    {
      "inputs": [],
      "name": "tDaoPositionNFT",
      "outputs": [
        {
          "internalType": "contract IPositionNFT",
          "name": "",
          "type": "address"
        }
      ],
      "stateMutability": "view",
      "type": "function"
    },
    {
      "inputs": [],
      "name": "tDaoToken",
      "outputs": [
        {
          "internalType": "contract IProtocolToken",
          "name": "",
          "type": "address"
        }
      ],
      "stateMutability": "view",
      "type": "function"
    },
    {
      "inputs": [],
      "name": "timelock",
      "outputs": [
        {
          "internalType": "address",
          "name": "",
          "type": "address"
        }
      ],
      "stateMutability": "view",
      "type": "function"
    },
    {
      "inputs": [
        {
          "internalType": "contract IERC20",
          "name": "",
          "type": "address"
        }
      ],
      "name": "tokenToID",
      "outputs": [
        {
          "internalType": "uint16",
          "name": "",
          "type": "uint16"
        }
      ],
      "stateMutability": "view",
      "type": "function"
    },
    {
      "inputs": [],
      "name": "totalIncentivesMinted",
      "outputs": [
        {
          "internalType": "uint256",
          "name": "",
          "type": "uint256"
        }
      ],
      "stateMutability": "view",
      "type": "function"
    },
    {
      "inputs": [
        {
          "internalType": "address",
          "name": "",
          "type": "address"
        },
        {
          "internalType": "uint256",
          "name": "",
          "type": "uint256"
        }
      ],
      "name": "underlyingTokenVoteRewardCount",
      "outputs": [
        {
          "internalType": "uint248",
          "name": "count",
          "type": "uint248"
        },
        {
          "internalType": "bool",
          "name": "isSet",
          "type": "bool"
        }
      ],
      "stateMutability": "view",
      "type": "function"
    },
    {
      "inputs": [
        {
          "internalType": "uint64",
          "name": "positionNFTTokenID",
          "type": "uint64"
        }
      ],
      "name": "unlockTokens",
      "outputs": [],
      "stateMutability": "nonpayable",
      "type": "function"
    },
    {
      "inputs": [
        {
          "internalType": "uint16",
          "name": "",
          "type": "uint16"
        }
      ],
      "name": "virtualCount",
      "outputs": [
        {
          "internalType": "uint256",
          "name": "",
          "type": "uint256"
        }
      ],
      "stateMutability": "view",
      "type": "function"
    },
    {
      "inputs": [],
      "name": "votingRewardsSafe",
      "outputs": [
        {
          "internalType": "contract TDaoVotingRewardsSafe",
          "name": "",
          "type": "address"
        }
      ],
      "stateMutability": "view",
      "type": "function"
    }
  ],
  "bytecode": "0x60e06040526001600760006101000a81548167ffffffffffffffff021916908367ffffffffffffffff1602179055503480156200003c5760006000fd5b5060405162006791380380620067918339818101604052810190620000629190620002ac565b5b805b5b620151805b60018167ffffffffffffffff1662000088620001e360201b60201c565b67ffffffffffffffff168115156200009c57fe5b040367ffffffffffffffff1660a08167ffffffffffffffff1660c01b815260080150508067ffffffffffffffff1660808167ffffffffffffffff1660c01b815260080150505b50600160006000508190909055505b80601060006101000a81548173ffffffffffffffffffffffffffffffffffffffff021916908373ffffffffffffffffffffffffffffffffffffffff160217905550604051620001409062000299565b604051809103906000f0801580156200015e573d600060003e3d6000fd5b5073ffffffffffffffffffffffffffffffffffffffff1660c08173ffffffffffffffffffffffffffffffffffffffff1660601b8152601401505033600f60006101000a81548173ffffffffffffffffffffffffffffffffffffffff021916908373ffffffffffffffffffffffffffffffffffffffff1602179055505b505b50620002e3565b6000620001fd426200020560201b6200388f17909060201c565b905080505b90565b600068010000000000000000821015156200028b576040517f08c379a00000000000000000000000000000000000000000000000000000000081526004018080602001828103825260118152602001807f6d6f7265207468616e203634206269747300000000000000000000000000000081526020015060200191505060405180910390fd5b81905062000294565b919050565b6104a980620062e88339019056620002e2565b600060208284031215620002be578081fd5b81516001600160a01b03811681141515620002d7578182fd5b809150505b92915050565b5b60805160c01c60a05160c01c60c05160601c615fb16200033760003980612b9052806131b652806133285250806135985280613bf75280614b005250806135bc5280613c185280614b395250615fb16000f3fe60806040523480156100115760006000fd5b50600436106103045760003560e01c8063797250e41161019d578063be9a6555116100ef578063d5f3948811610098578063f0f091c311610072578063f0f091c3146108a4578063fcb3fa90146108c0578063fd8067c3146108dc57610304565b8063d5f3948814610838578063d6c2875d14610856578063d7ed153b1461087457610304565b8063d2ca2115116100c9578063d2ca2115146107e0578063d33219b4146107fe578063d48bfca71461081c57610304565b8063be9a65551461079a578063c2cc16d9146107a4578063c4e3a63b146107c257610304565b80639383ac44116101515780639d8e09011161012b5780639d8e090114610730578063ae42983314610760578063b9f8ea6d1461077e57610304565b80639383ac44146106c6578063955e232e146106e25780639645383d1461071257610304565b806382b5e8891161018257806382b5e8891461065b57806386fa81c71461067757806387bbac1b146106a857610304565b8063797250e41461060d5780637ad31c981461063d57610304565b80632e74e628116102565780634540137e1161020a578063526b8712116101e4578063526b8712146105a1578063640bb8df146105bf5780636c6a4f36146105dd57610304565b80634540137e146105395780634b884f34146105555780634cd7a3151461058557610304565b806333daf5d41161023b57806333daf5d4146104ba578063371f3d45146104eb578063452a93201461051b57610304565b80632e74e6281461046c57806330bfb9bb1461049c57610304565b806307e54f16116102b857806314706d851161029257806314706d85146104025780631a30c7021461042057806327fb04741461043c57610304565b806307e54f16146103865780630a889a8b146103b65780630f85fc5a146103d257610304565b806306552ff3116102e957806306552ff314610332578063078182001461034e578063079329871461036a57610304565b8063020ac54a1461030a578063060406181461031457610304565b60006000fd5b6103126108fa565b005b61031c6109a7565b6040516103299190615ee3565b60405180910390f35b61034c60048036038101906103479190615660565b6109bf565b005b61036860048036038101906103639190615346565b610c2a565b005b610384600480360381019061037f919061543b565b610e09565b005b6103a0600480360381019061039b91906155e2565b610f9a565b6040516103ad9190615e48565b60405180910390f35b6103d060048036038101906103cb919061575e565b610fc0565b005b6103ec60048036038101906103e7919061575e565b6114ff565b6040516103f99190615dc6565b60405180910390f35b61040a6117db565b6040516104179190615e9a565b60405180910390f35b61043a600480360381019061043591906157ac565b61189a565b005b61045660048036038101906104519190615609565b611bf0565b6040516104639190615ee3565b60405180910390f35b6104866004803603810190610481919061575e565b611ff1565b604051610493919061599e565b60405180910390f35b6104a46120ee565b6040516104b19190615ee3565b60405180910390f35b6104d460048036038101906104cf9190615394565b612108565b6040516104e29291906159b2565b60405180910390f35b61050560048036038101906105009190615595565b61239f565b604051610512919061599e565b60405180910390f35b6105236123c4565b604051610530919061589b565b60405180910390f35b610553600480360381019061054e91906154fd565b6123ea565b005b61056f600480360381019061056a919061575e565b612605565b60405161057c9190615e9a565b60405180910390f35b61059f600480360381019061059a919061543b565b61262c565b005b6105a9612890565b6040516105b69190615e48565b60405180910390f35b6105c76128a4565b6040516105d4919061589b565b60405180910390f35b6105f760048036038101906105f291906156c6565b6128ca565b6040516106049190615e2b565b60405180910390f35b610627600480360381019061062291906156c6565b6129eb565b6040516106349190615e9a565b60405180910390f35b610645612a06565b6040516106529190615e9a565b60405180910390f35b610675600480360381019061067091906155e2565b612a0f565b005b610691600480360381019061068c919061543b565b612b1f565b60405161069f929190615e5e565b60405180910390f35b6106b0612b8e565b6040516106bd9190615a4f565b60405180910390f35b6106e060048036038101906106db919061543b565b612bb2565b005b6106fc60048036038101906106f7919061575e565b612e1f565b6040516107099190615ee3565b60405180910390f35b61071a612e3c565b6040516107279190615a27565b60405180910390f35b61074a600480360381019061074591906156c6565b612e62565b60405161075791906159d7565b60405180910390f35b610768612e9a565b60405161077591906159ff565b60405180910390f35b6107986004803603810190610793919061546c565b612ec0565b005b6107a2613479565b005b6107ac613570565b6040516107b9919061589b565b60405180910390f35b6107ca613596565b6040516107d79190615ee3565b60405180910390f35b6107e86135ba565b6040516107f59190615ee3565b60405180910390f35b6108066135de565b604051610813919061589b565b60405180910390f35b610836600480360381019061083191906155e2565b613604565b005b610840613655565b60405161084d919061589b565b60405180910390f35b61085e61367b565b60405161086b9190615ee3565b60405180910390f35b61088e6004803603810190610889919061572d565b613695565b60405161089b9190615e9a565b60405180910390f35b6108be60048036038101906108b991906155e2565b6136b4565b005b6108da60048036038101906108d591906156f5565b613746565b005b6108e4613875565b6040516108f19190615ee3565b60405180910390f35b60026000600050541415151561097b576040517f08c379a000000000000000000000000000000000000000000000000000000000815260040180806020018281038252601f8152602001807f5265656e7472616e637947756172643a207265656e7472616e742063616c6c0081526020015060200191505060405180910390fd5b6002600060005081909090555061099661392163ffffffff16565b5b600160006000508190909055505b565b60006109b7613bf363ffffffff16565b905080505b90565b610a1e600f60009054906101000a900473ffffffffffffffffffffffffffffffffffffffff1673ffffffffffffffffffffffffffffffffffffffff163373ffffffffffffffffffffffffffffffffffffffff1614613c6c63ffffffff16565b600f60006101000a81549073ffffffffffffffffffffffffffffffffffffffff021916905583600560006101000a81548173ffffffffffffffffffffffffffffffffffffffff021916908373ffffffffffffffffffffffffffffffffffffffff16021790555082600460006101000a81548173ffffffffffffffffffffffffffffffffffffffff021916908373ffffffffffffffffffffffffffffffffffffffff16021790555081600360006101000a81548173ffffffffffffffffffffffffffffffffffffffff021916908373ffffffffffffffffffffffffffffffffffffffff16021790555080600260006101000a81548173ffffffffffffffffffffffffffffffffffffffff021916908373ffffffffffffffffffffffffffffffffffffffff160217905550610b5d63a9059cbb60e01b613cb263ffffffff16565b610b736323b872dd60e01b613cb263ffffffff16565b610b8963095ea7b360e01b613cb263ffffffff16565b610b9f63449a52f860e01b613cb263ffffffff16565b610bb56379cc679060e01b613cb263ffffffff16565b610bcb6342966c6860e01b613cb263ffffffff16565b610be1633950935160e01b613cb263ffffffff16565b610bf763a457c2d760e01b613cb263ffffffff16565b610c0d633c4a25d060e01b613cb263ffffffff16565b610c23635c19a95c60e01b613cb263ffffffff16565b5b50505050565b610c673073ffffffffffffffffffffffffffffffffffffffff163373ffffffffffffffffffffffffffffffffffffffff1614613c6c63ffffffff16565b600073ffffffffffffffffffffffffffffffffffffffff16600160009054906101000a900473ffffffffffffffffffffffffffffffffffffffff1673ffffffffffffffffffffffffffffffffffffffff16141515610cfa576040517f08c379a0000000000000000000000000000000000000000000000000000000008152600401610cf190615d48565b60405180910390fd5b610d0981613d2363ffffffff16565b1515610d4a576040517f08c379a0000000000000000000000000000000000000000000000000000000008152600401610d4190615d09565b60405180910390fd5b80600160006101000a81548173ffffffffffffffffffffffffffffffffffffffff021916908373ffffffffffffffffffffffffffffffffffffffff160217905550610d99613bf363ffffffff16565b601160006101000a81548167ffffffffffffffff021916908367ffffffffffffffff1602179055508073ffffffffffffffffffffffffffffffffffffffff167f6765bf0cc4e3defc42bfa6ac394241a5f702ee760529c922874f15c4ad35edc760405160405180910390a25b5b50565b600260006000505414151515610e8a576040517f08c379a000000000000000000000000000000000000000000000000000000000815260040180806020018281038252601f8152602001807f5265656e7472616e637947756172643a207265656e7472616e742063616c6c0081526020015060200191505060405180910390fd5b60026000600050819090905550610ef6600360009054906101000a900473ffffffffffffffffffffffffffffffffffffffff1673ffffffffffffffffffffffffffffffffffffffff163373ffffffffffffffffffffffffffffffffffffffff1614613c6c63ffffffff16565b600460009054906101000a900473ffffffffffffffffffffffffffffffffffffffff1673ffffffffffffffffffffffffffffffffffffffff1663449a52f883836040518363ffffffff1660e01b8152600401610f53929190615936565b600060405180830381600087803b158015610f6e5760006000fd5b505af1158015610f83573d600060003e3d6000fd5b505050505b600160006000508190909055505b5050565b600b60005060205280600052604060002060009150909054906101000a900461ffff1681565b600260006000505414151515611041576040517f08c379a000000000000000000000000000000000000000000000000000000000815260040180806020018281038252601f8152602001807f5265656e7472616e637947756172643a207265656e7472616e742063616c6c0081526020015060200191505060405180910390fd5b600260006000508190909055506000339050611110600560009054906101000a900473ffffffffffffffffffffffffffffffffffffffff1673ffffffffffffffffffffffffffffffffffffffff1663430c208183856040518363ffffffff1660e01b81526004016110b3929190615965565b60206040518083038186803b1580156110cc5760006000fd5b505afa1580156110e1573d600060003e3d6000fd5b505050506040513d601f19601f820116820180604052508101906111059190615572565b613c6c63ffffffff16565b600061112183613d3d63ffffffff16565b9050611131613bf363ffffffff16565b67ffffffffffffffff16816080015167ffffffffffffffff161115151561118d576040517f08c379a000000000000000000000000000000000000000000000000000000000815260040161118490615c4c565b60405180910390fd5b6111dc6111a882600001518360a0015161400663ffffffff16565b600960005060008460c0015161ffff1661ffff1681526020019081526020016000206000505461403590919063ffffffff16565b600960005060008360c0015161ffff1661ffff168152602001908152602001600020600050819090905550600d60005060008467ffffffffffffffff1667ffffffffffffffff16815260200190815260200160002060006000820160006101000a8154906fffffffffffffffffffffffffffffffff02191690556000820160106101000a8154906fffffffffffffffffffffffffffffffff02191690556001820160006101000a81549076ffffffffffffffffffffffffffffffffffffffffffffff02191690556001820160176101000a81549061ffff02191690556001820160196101000a81549061ffff021916905560018201601b6101000a81549061ffff021916905560018201601d6101000a81549060ff021916905550506000600560009054906101000a900473ffffffffffffffffffffffffffffffffffffffff1673ffffffffffffffffffffffffffffffffffffffff16636352211e856040518263ffffffff1660e01b81526004016113559190615ec7565b60206040518083038186803b15801561136e5760006000fd5b505afa158015611383573d600060003e3d6000fd5b505050506040513d601f19601f820116820180604052508101906113a7919061536d565b9050600560009054906101000a900473ffffffffffffffffffffffffffffffffffffffff1673ffffffffffffffffffffffffffffffffffffffff16639dbead42856040518263ffffffff1660e01b81526004016114049190615ee3565b600060405180830381600087803b15801561141f5760006000fd5b505af1158015611434573d600060003e3d6000fd5b505050508273ffffffffffffffffffffffffffffffffffffffff168260c0015161ffff167fbf347141bee0ba9c777fbef9a14008be9f56f2b2f90f0e63cfed8a96a3b506c7846000015160405161148b9190615e9a565b60405180910390a36114ea600c60005060008460c0015161ffff1661ffff16815260200190815260200160002060009054906101000a900473ffffffffffffffffffffffffffffffffffffffff168284600001516140be63ffffffff16565b5050505b600160006000508190909055505b50565b611507615202565b6000600d60005060008467ffffffffffffffff1667ffffffffffffffff1681526020019081526020016000206000506040518060e00160405290816000820160009054906101000a90046fffffffffffffffffffffffffffffffff166fffffffffffffffffffffffffffffffff166fffffffffffffffffffffffffffffffff1681526020016000820160109054906101000a90046fffffffffffffffffffffffffffffffff166fffffffffffffffffffffffffffffffff166fffffffffffffffffffffffffffffffff1681526020016001820160009054906101000a900476ffffffffffffffffffffffffffffffffffffffffffffff1676ffffffffffffffffffffffffffffffffffffffffffffff1676ffffffffffffffffffffffffffffffffffffffffffffff1681526020016001820160179054906101000a900461ffff1661ffff1661ffff1681526020016001820160199054906101000a900461ffff1661ffff1661ffff16815260200160018201601b9054906101000a900461ffff1661ffff1661ffff16815260200160018201601d9054906101000a900460ff1660ff1660ff16815260200150509050600081600001516fffffffffffffffffffffffffffffffff16111515611711576040517f08c379a000000000000000000000000000000000000000000000000000000000815260040161170890615c8b565b60405180910390fd5b6040518060e0016040528082600001516fffffffffffffffffffffffffffffffff16815260200182602001516fffffffffffffffffffffffffffffffff168152602001826040015176ffffffffffffffffffffffffffffffffffffffffffffff168152602001826060015161ffff1667ffffffffffffffff168152602001826080015161ffff1667ffffffffffffffff1681526020018260c0015160ff1667ffffffffffffffff1681526020018260a0015161ffff168152602001509150506117d656505b919050565b60006000601060149054906101000a900467ffffffffffffffff1667ffffffffffffffff16141561180f5760009050611897565b600073ffffffffffffffffffffffffffffffffffffffff16600160009054906101000a900473ffffffffffffffffffffffffffffffffffffffff1673ffffffffffffffffffffffffffffffffffffffff161415156118855769021e19e0c9bab240000069152d02c7e14af6800000039050611897565b69152d02c7e14af68000009050611897565b90565b60026000600050541415151561191b576040517f08c379a000000000000000000000000000000000000000000000000000000000815260040180806020018281038252601f8152602001807f5265656e7472616e637947756172643a207265656e7472616e742063616c6c0081526020015060200191505060405180910390fd5b60026000600050819090905550611937816142ca63ffffffff16565b60003390506119f9600560009054906101000a900473ffffffffffffffffffffffffffffffffffffffff1673ffffffffffffffffffffffffffffffffffffffff1663430c208183866040518363ffffffff1660e01b815260040161199c929190615965565b60206040518083038186803b1580156119b55760006000fd5b505afa1580156119ca573d600060003e3d6000fd5b505050506040513d601f19601f820116820180604052508101906119ee9190615572565b613c6c63ffffffff16565b6000611a0a84613d3d63ffffffff16565b90508060a0015167ffffffffffffffff168360ff1667ffffffffffffffff16111515611a6b576040517f08c379a0000000000000000000000000000000000000000000000000000000008152600401611a6290615b50565b60405180910390fd5b611ae2611a8582600001518560ff1661400663ffffffff16565b611ad4611aa084600001518560a0015161400663ffffffff16565b600960005060008660c0015161ffff1661ffff1681526020019081526020016000206000505461403590919063ffffffff16565b61436a90919063ffffffff16565b600960005060008360c0015161ffff1661ffff168152602001908152602001600020600050819090905550611b48611b228460ff166143f363ffffffff16565b611b30613bf363ffffffff16565b67ffffffffffffffff1661443690919063ffffffff16565b816080019067ffffffffffffffff16908167ffffffffffffffff16815260200150508260ff168160a0019067ffffffffffffffff16908167ffffffffffffffff1681526020015050611ba084826144d363ffffffff16565b8260ff168467ffffffffffffffff167fb39e6330051c3e584367d7d1f1ff3fb0cdd824478fd7d7f257005c83c010b8a160405160405180910390a350505b600160006000508190909055505b5050565b6000600260006000505414151515611c73576040517f08c379a000000000000000000000000000000000000000000000000000000000815260040180806020018281038252601f8152602001807f5265656e7472616e637947756172643a207265656e7472616e742063616c6c0081526020015060200191505060405180910390fd5b600260006000508190909055506000600b60005060008773ffffffffffffffffffffffffffffffffffffffff1673ffffffffffffffffffffffffffffffffffffffff16815260200190815260200160002060009054906101000a900461ffff16905060008161ffff16111515611d1e576040517f08c379a0000000000000000000000000000000000000000000000000000000008152600401611d1590615b11565b60405180910390fd5b600085111515611d63576040517f08c379a0000000000000000000000000000000000000000000000000000000008152600401611d5a90615bce565b60405180910390fd5b611d72846142ca63ffffffff16565b611d8061392163ffffffff16565b6000611d91826128ca63ffffffff16565b9050611dd9611da9878760ff1661400663ffffffff16565b600960005060008561ffff1661ffff1681526020019081526020016000206000505461436a90919063ffffffff16565b600960005060008461ffff1661ffff168152602001908152602001600020600050819090905550600560009054906101000a900473ffffffffffffffffffffffffffffffffffffffff1673ffffffffffffffffffffffffffffffffffffffff1663755edd17856040518263ffffffff1660e01b8152600401611e5b919061589b565b602060405180830381600087803b158015611e765760006000fd5b505af1158015611e8b573d600060003e3d6000fd5b505050506040513d601f19601f82011682018060405250810190611eaf9190615785565b925082506000611ec3613bf363ffffffff16565b9050611f64846040518060e001604052808a815260200185602001518152602001856000015181526020018467ffffffffffffffff168152602001611f2c611f138b60ff166143f363ffffffff16565b8667ffffffffffffffff1661443690919063ffffffff16565b67ffffffffffffffff1681526020018960ff1667ffffffffffffffff1681526020018661ffff168152602001506144d363ffffffff16565b611f768833308a61477963ffffffff16565b8560ff168573ffffffffffffffffffffffffffffffffffffffff168461ffff167ffd5af8482cd27088275e2c1370259ff534cf1c987cf2105e24da196377e5c98d8a604051611fc59190615e9a565b60405180910390a4839350505050611fdb565050505b600160006000508190909055505b949350505050565b60006000600d60005060008467ffffffffffffffff1667ffffffffffffffff168152602001908152602001600020600050600101601b9054906101000a900461ffff1661ffff161415151561207b576040517f08c379a000000000000000000000000000000000000000000000000000000000815260040161207290615a93565b60405180910390fd5b612089613bf363ffffffff16565b67ffffffffffffffff16600d60005060008467ffffffffffffffff1667ffffffffffffffff16815260200190815260200160002060005060010160199054906101000a900461ffff1661ffff1667ffffffffffffffff16111590506120e9565b919050565b601060149054906101000a900467ffffffffffffffff1681565b6000606060026000600050541415151561218d576040517f08c379a000000000000000000000000000000000000000000000000000000000815260040180806020018281038252601f8152602001807f5265656e7472616e637947756172643a207265656e7472616e742063616c6c0081526020015060200191505060405180910390fd5b600260006000508190909055506121f9600260009054906101000a900473ffffffffffffffffffffffffffffffffffffffff1673ffffffffffffffffffffffffffffffffffffffff163373ffffffffffffffffffffffffffffffffffffffff1614613c6c63ffffffff16565b600061220a856149a463ffffffff16565b9050600e6000506000827bffffffffffffffffffffffffffffffffffffffffffffffffffffffff19167bffffffffffffffffffffffffffffffffffffffffffffffffffffffff1916815260200190815260200160002060009054906101000a900460ff161515156122b0576040517f08c379a00000000000000000000000000000000000000000000000000000000081526004016122a790615c0d565b60405180910390fd5b8573ffffffffffffffffffffffffffffffffffffffff1681856040516020016122da929190615831565b6040516020818303038152906040526040516122f6919061587c565b6000604051808303816000865af19150503d8060008114612333576040519150601f19603f3d011682016040523d82523d6000602084013e612338565b606091505b5080935081945050508282901515612386576040517f08c379a000000000000000000000000000000000000000000000000000000000815260040161237d9190615a77565b60405180910390fd5b50505b600160006000508190909055505b935093915050565b600e60005060205280600052604060002060009150909054906101000a900460ff1681565b601060009054906101000a900473ffffffffffffffffffffffffffffffffffffffff1681565b60026000600050541415151561246b576040517f08c379a000000000000000000000000000000000000000000000000000000000815260040180806020018281038252601f8152602001807f5265656e7472616e637947756172643a207265656e7472616e742063616c6c0081526020015060200191505060405180910390fd5b6002600060005081909090555060006000600090505b838390508110156125f057838382818110151561249a57fe5b90506020020160208101906124af919061575e565b91508150612570600560009054906101000a900473ffffffffffffffffffffffffffffffffffffffff1673ffffffffffffffffffffffffffffffffffffffff1663430c208133856040518363ffffffff1660e01b81526004016125139291906158c3565b60206040518083038186803b15801561252c5760006000fd5b505afa158015612541573d600060003e3d6000fd5b505050506040513d601f19601f820116820180604052508101906125659190615572565b613c6c63ffffffff16565b600061258183613d3d63ffffffff16565b905061259383826144d363ffffffff16565b3373ffffffffffffffffffffffffffffffffffffffff168367ffffffffffffffff167f39c278b054e152450e4295bdf59d7edbaba35cb21d4248658680e61dac39eebb60405160405180910390a3505b8080600101915050612481565b50505b600160006000508190909055505b5050565b6000612616826143f363ffffffff16565b67ffffffffffffffff169050612627565b919050565b6126693073ffffffffffffffffffffffffffffffffffffffff163373ffffffffffffffffffffffffffffffffffffffff1614613c6c63ffffffff16565b6032600460009054906101000a900473ffffffffffffffffffffffffffffffffffffffff1673ffffffffffffffffffffffffffffffffffffffff166318160ddd6040518163ffffffff1660e01b815260040160206040518083038186803b1580156126d45760006000fd5b505afa1580156126e9573d600060003e3d6000fd5b505050506040513d601f19601f8201168201806040525081019061270d9190615711565b81151561271657fe5b04811115151561275b576040517f08c379a000000000000000000000000000000000000000000000000000000000815260040161275290615d87565b60405180910390fd5b61276a82613d2363ffffffff16565b15156127ab576040517f08c379a00000000000000000000000000000000000000000000000000000000081526004016127a290615d09565b60405180910390fd5b600460009054906101000a900473ffffffffffffffffffffffffffffffffffffffff1673ffffffffffffffffffffffffffffffffffffffff1663449a52f883836040518363ffffffff1660e01b8152600401612808929190615936565b600060405180830381600087803b1580156128235760006000fd5b505af1158015612838573d600060003e3d6000fd5b505050508173ffffffffffffffffffffffffffffffffffffffff167f15c222d39f56077620782fcc367cdd020fddac1f6129c77ec7ca1c5025659dda826040516128829190615e9a565b60405180910390a25b5b5050565b600a60009054906101000a900461ffff1681565b600360009054906101000a900473ffffffffffffffffffffffffffffffffffffffff1681565b6128d2615264565b6000600860005060008461ffff1661ffff1681526020019081526020016000206000506040518060400160405290816000820160009054906101000a90046fffffffffffffffffffffffffffffffff166fffffffffffffffffffffffffffffffff166fffffffffffffffffffffffffffffffff1681526020016000820160109054906101000a90046fffffffffffffffffffffffffffffffff166fffffffffffffffffffffffffffffffff166fffffffffffffffffffffffffffffffff16815260200150509050604051806040016040528082600001516fffffffffffffffffffffffffffffffff16815260200182602001516fffffffffffffffffffffffffffffffff168152602001509150506129e656505b919050565b60096000506020528060005260406000206000915090505481565b60126000505481565b6000600b60005060008373ffffffffffffffffffffffffffffffffffffffff1673ffffffffffffffffffffffffffffffffffffffff16815260200190815260200160002060009054906101000a900461ffff16905060008161ffff16111515612aad576040517f08c379a0000000000000000000000000000000000000000000000000000000008152600401612aa490615b11565b60405180910390fd5b8173ffffffffffffffffffffffffffffffffffffffff16635c19a95c306040518263ffffffff1660e01b8152600401612ae6919061589b565b600060405180830381600087803b158015612b015760006000fd5b505af1158015612b16573d600060003e3d6000fd5b50505050505b50565b6006600050602052816000526040600020600050602052806000526040600020600091509150508060000160009054906101000a90047effffffffffffffffffffffffffffffffffffffffffffffffffffffffffffff169080600001601f9054906101000a900460ff16905082565b7f000000000000000000000000000000000000000000000000000000000000000081565b600260006000505414151515612c33576040517f08c379a000000000000000000000000000000000000000000000000000000000815260040180806020018281038252601f8152602001807f5265656e7472616e637947756172643a207265656e7472616e742063616c6c0081526020015060200191505060405180910390fd5b60026000600050819090905550612c9f600160009054906101000a900473ffffffffffffffffffffffffffffffffffffffff1673ffffffffffffffffffffffffffffffffffffffff163373ffffffffffffffffffffffffffffffffffffffff1614613c6c63ffffffff16565b6000612cb98260126000505461436a90919063ffffffff16565b90506000612d2669021e19e0c9bab2400000612d0e601160009054906101000a900467ffffffffffffffff166001612cf5613bf363ffffffff16565b0167ffffffffffffffff166149ba90919063ffffffff16565b67ffffffffffffffff16614a5790919063ffffffff16565b9050808211151515612d6d576040517f08c379a0000000000000000000000000000000000000000000000000000000008152600401612d6490615cca565b60405180910390fd5b816012600050819090905550600460009054906101000a900473ffffffffffffffffffffffffffffffffffffffff1673ffffffffffffffffffffffffffffffffffffffff1663449a52f885856040518363ffffffff1660e01b8152600401612dd6929190615936565b600060405180830381600087803b158015612df15760006000fd5b505af1158015612e06573d600060003e3d6000fd5b5050505050505b600160006000508190909055505b5050565b6000612e3082614af563ffffffff16565b9050612e37565b919050565b600460009054906101000a900473ffffffffffffffffffffffffffffffffffffffff1681565b600c60005060205280600052604060002060009150909054906101000a900473ffffffffffffffffffffffffffffffffffffffff1681565b600560009054906101000a900473ffffffffffffffffffffffffffffffffffffffff1681565b612f1f600360009054906101000a900473ffffffffffffffffffffffffffffffffffffffff1673ffffffffffffffffffffffffffffffffffffffff163373ffffffffffffffffffffffffffffffffffffffff1614613c6c63ffffffff16565b60008473ffffffffffffffffffffffffffffffffffffffff16637e90f9ab6040518163ffffffff1660e01b815260040160206040518083038186803b158015612f685760006000fd5b505afa158015612f7d573d600060003e3d6000fd5b505050506040513d601f19601f82011682018060405250810190612fa1919061536d565b9050600660005060008673ffffffffffffffffffffffffffffffffffffffff1673ffffffffffffffffffffffffffffffffffffffff1681526020019081526020016000206000506000858152602001908152602001600020600050600001601f9054906101000a900460ff1615156133265760008173ffffffffffffffffffffffffffffffffffffffff166370a08231306040518263ffffffff1660e01b815260040161304e919061589b565b60206040518083038186803b1580156130675760006000fd5b505afa15801561307c573d600060003e3d6000fd5b505050506040513d601f19601f820116820180604052508101906130a09190615711565b90508573ffffffffffffffffffffffffffffffffffffffff1663b525867f866040518263ffffffff1660e01b81526004016130db9190615e9a565b600060405180830381600087803b1580156130f65760006000fd5b505af115801561310b573d600060003e3d6000fd5b5050505060006131ae828473ffffffffffffffffffffffffffffffffffffffff166370a08231306040518263ffffffff1660e01b815260040161314e919061589b565b60206040518083038186803b1580156131675760006000fd5b505afa15801561317c573d600060003e3d6000fd5b505050506040513d601f19601f820116820180604052508101906131a09190615711565b61403590919063ffffffff16565b90506131e1837f0000000000000000000000000000000000000000000000000000000000000000836140be63ffffffff16565b60405180604001604052806131fd83614b7a909063ffffffff16565b7affffffffffffffffffffffffffffffffffffffffffffffffffffff167effffffffffffffffffffffffffffffffffffffffffffffffffffffffffffff16815260200160011515815260200150600660005060008973ffffffffffffffffffffffffffffffffffffffff1673ffffffffffffffffffffffffffffffffffffffff168152602001908152602001600020600050600088815260200190815260200160002060005060008201518160000160006101000a8154817effffffffffffffffffffffffffffffffffffffffffffffffffffffffffffff02191690837effffffffffffffffffffffffffffffffffffffffffffffffffffffffffffff160217905550602082015181600001601f6101000a81548160ff02191690831515021790555090505050505b7f000000000000000000000000000000000000000000000000000000000000000073ffffffffffffffffffffffffffffffffffffffff1663d1660f99828561341f86600660005060008c73ffffffffffffffffffffffffffffffffffffffff1673ffffffffffffffffffffffffffffffffffffffff16815260200190815260200160002060005060008b815260200190815260200160002060005060000160009054906101000a90047effffffffffffffffffffffffffffffffffffffffffffffffffffffffffffff167effffffffffffffffffffffffffffffffffffffffffffffffffffffffffffff16614c1f90919063ffffffff16565b6040518463ffffffff1660e01b815260040161343d939291906158fc565b600060405180830381600087803b1580156134585760006000fd5b505af115801561346d573d600060003e3d6000fd5b50505050505b50505050565b6134d8601060009054906101000a900473ffffffffffffffffffffffffffffffffffffffff1673ffffffffffffffffffffffffffffffffffffffff163373ffffffffffffffffffffffffffffffffffffffff1614613c6c63ffffffff16565b601060006101000a81549073ffffffffffffffffffffffffffffffffffffffff021916905561350b61392163ffffffff16565b613519613bf363ffffffff16565b601060146101000a81548167ffffffffffffffff021916908367ffffffffffffffff1602179055507fe0c110dd4938fc8e228e75a489735745046395ad536dd80c35559debe653714760405160405180910390a15b565b600160009054906101000a900473ffffffffffffffffffffffffffffffffffffffff1681565b7f000000000000000000000000000000000000000000000000000000000000000081565b7f000000000000000000000000000000000000000000000000000000000000000081565b600260009054906101000a900473ffffffffffffffffffffffffffffffffffffffff1681565b6136413073ffffffffffffffffffffffffffffffffffffffff163373ffffffffffffffffffffffffffffffffffffffff1614613c6c63ffffffff16565b61365081614c4563ffffffff16565b5b5b50565b600f60009054906101000a900473ffffffffffffffffffffffffffffffffffffffff1681565b600760009054906101000a900467ffffffffffffffff1681565b60006136a7838361400663ffffffff16565b90506136ae565b92915050565b613733601060009054906101000a900473ffffffffffffffffffffffffffffffffffffffff1673ffffffffffffffffffffffffffffffffffffffff163373ffffffffffffffffffffffffffffffffffffffff1614801561372857506000600a60009054906101000a900461ffff1661ffff16145b613c6c63ffffffff16565b61374281614c4563ffffffff16565b5b50565b600060006000600360009054906101000a900473ffffffffffffffffffffffffffffffffffffffff1673ffffffffffffffffffffffffffffffffffffffff166383b0ce15856040518263ffffffff1660e01b81526004016137a79190615e9a565b60606040518083038186803b1580156137c05760006000fd5b505afa1580156137d5573d600060003e3d6000fd5b505050506040513d601f19601f820116820180604052508101906137f991906154bc565b9250925092508273ffffffffffffffffffffffffffffffffffffffff166315373e3d83836040518363ffffffff1660e01b815260040161383a929190615eac565b600060405180830381600087803b1580156138555760006000fd5b505af115801561386a573d600060003e3d6000fd5b505050505050505b50565b601160009054906101000a900467ffffffffffffffff1681565b60006801000000000000000082101515613914576040517f08c379a00000000000000000000000000000000000000000000000000000000081526004018080602001828103825260118152602001807f6d6f7265207468616e203634206269747300000000000000000000000000000081526020015060200191505060405180910390fd5b81905061391c565b919050565b6000613931613bf363ffffffff16565b9050600760009054906101000a900467ffffffffffffffff1667ffffffffffffffff168167ffffffffffffffff1611151561396c5750613bf1565b6000600760009054906101000a900467ffffffffffffffff16820390506000600a60009054906101000a900461ffff1661ffff1690506000816139cf8467ffffffffffffffff166139c16117db63ffffffff16565b614a5790919063ffffffff16565b8115156139d857fe5b0490506139e3615264565b6000600190505b838161ffff16111515613b7f57613a06816128ca63ffffffff16565b915081506040518060400160405280613a79613a6c613a598967ffffffffffffffff16600960005060008861ffff1661ffff16815260200190815260200160002060005054614a5790919063ffffffff16565b866000015161436a90919063ffffffff16565b614dc4909063ffffffff16565b6fffffffffffffffffffffffffffffffff168152602001613ab7613aaa86866020015161436a90919063ffffffff16565b614dc4909063ffffffff16565b6fffffffffffffffffffffffffffffffff16815260200150600860005060008361ffff1661ffff16815260200190815260200160002060005060008201518160000160006101000a8154816fffffffffffffffffffffffffffffffff02191690836fffffffffffffffffffffffffffffffff16021790555060208201518160000160106101000a8154816fffffffffffffffffffffffffffffffff02191690836fffffffffffffffffffffffffffffffff1602179055509050505b80806001019150506139ea565b5084600760006101000a81548167ffffffffffffffff021916908367ffffffffffffffff1602179055508467ffffffffffffffff167f5df8d820031efa286b254435a169e0eda922fa20c466be6471c6deaa51dc116585604051613be39190615ee3565b60405180910390a250505050505b565b60007f00000000000000000000000000000000000000000000000000000000000000007f000000000000000000000000000000000000000000000000000000000000000067ffffffffffffffff16613c4f614e5e63ffffffff16565b67ffffffffffffffff16811515613c6257fe5b0403905080505b90565b801515613cae576040517f08c379a0000000000000000000000000000000000000000000000000000000008152600401613ca590615b8f565b60405180910390fd5b5b50565b6001600e6000506000837bffffffffffffffffffffffffffffffffffffffffffffffffffffffff19167bffffffffffffffffffffffffffffffffffffffffffffffffffffffff1916815260200190815260200160002060006101000a81548160ff0219169083151502179055505b50565b60006000823b905060008111915050613d3856505b919050565b613d45615202565b613d54826114ff63ffffffff16565b90508050613d6661392163ffffffff16565b600760009054906101000a900467ffffffffffffffff1667ffffffffffffffff16816060015167ffffffffffffffff16101515613da557809050614001565b6000613dba8260c001516128ca63ffffffff16565b905060008260600151600760009054906101000a900467ffffffffffffffff160367ffffffffffffffff16613e008460400151846000015161403590919063ffffffff16565b811515613e0957fe5b0490506000613e54613e2c8560200151856020015161403590919063ffffffff16565b83613e4587600001518860a0015161400663ffffffff16565b614e799092919063ffffffff16565b90506000811115613f9d57600460009054906101000a900473ffffffffffffffffffffffffffffffffffffffff1673ffffffffffffffffffffffffffffffffffffffff1663449a52f8600560009054906101000a900473ffffffffffffffffffffffffffffffffffffffff1673ffffffffffffffffffffffffffffffffffffffff16636352211e886040518263ffffffff1660e01b8152600401613ef89190615ec7565b60206040518083038186803b158015613f115760006000fd5b505afa158015613f26573d600060003e3d6000fd5b505050506040513d601f19601f82011682018060405250810190613f4a919061536d565b836040518363ffffffff1660e01b8152600401613f68929190615936565b600060405180830381600087803b158015613f835760006000fd5b505af1158015613f98573d600060003e3d6000fd5b505050505b8260200151846020019090818152602001505082600001518460400190908181526020015050613fd1613bf363ffffffff16565b846060019067ffffffffffffffff16908167ffffffffffffffff1681526020015050839350505050614001565050505b919050565b60006140288267ffffffffffffffff16600c85614e799092919063ffffffff16565b905061402f565b92915050565b600082828403915081111515156140b7576040517f08c379a000000000000000000000000000000000000000000000000000000000815260040180806020018281038252600d8152602001807f7375622d756e646572666c6f770000000000000000000000000000000000000081526020015060200191505060405180910390fd5b5b92915050565b600060008473ffffffffffffffffffffffffffffffffffffffff1663a9059cbb60e01b8585604051602401808373ffffffffffffffffffffffffffffffffffffffff16815260200182815260200192505050604051602081830303815290604052907bffffffffffffffffffffffffffffffffffffffffffffffffffffffff19166020820180517bffffffffffffffffffffffffffffffffffffffffffffffffffffffff83818316178352505050506040518082805190602001908083835b6020831015156141a357805182525b60208201915060208101905060208303925061417d565b6001836020036101000a0380198251168184511680821785525050505050509050019150506000604051808303816000865af19150503d8060008114614205576040519150601f19603f3d011682016040523d82523d6000602084013e61420a565b606091505b509150915081801561424b575060008151148061424a57508080602001905160208110156142385760006000fd5b81019080805190602001909291905050505b5b15156142c2576040517f08c379a00000000000000000000000000000000000000000000000000000000081526004018080602001828103825260028152602001807f535400000000000000000000000000000000000000000000000000000000000081526020015060200191505060405180910390fd5b50505b505050565b8060ff16600667ffffffffffffffff16111580156142f65750603067ffffffffffffffff168160ff1611155b801561432557506000600367ffffffffffffffff168260ff1681151561431857fe5b0667ffffffffffffffff16145b1515614366576040517f08c379a000000000000000000000000000000000000000000000000000000000815260040161435d90615ad2565b60405180910390fd5b5b50565b600082828401915081101515156143ec576040517f08c379a000000000000000000000000000000000000000000000000000000000815260040180806020018281038252600c8152602001807f6164642d6f766572666c6f77000000000000000000000000000000000000000081526020015060200191505060405180910390fd5b5b92915050565b6000600c61441661016d8467ffffffffffffffff16614f7a90919063ffffffff16565b67ffffffffffffffff1681151561442957fe5b049050614431565b919050565b60008267ffffffffffffffff1682840191508167ffffffffffffffff16101515156144cc576040517f08c379a000000000000000000000000000000000000000000000000000000000815260040180806020018281038252600c8152602001807f6164642d6f766572666c6f77000000000000000000000000000000000000000081526020015060200191505060405180910390fd5b5b92915050565b6040518060e001604052806144f38360000151614dc4909063ffffffff16565b6fffffffffffffffffffffffffffffffff16815260200161451f8360200151614dc4909063ffffffff16565b6fffffffffffffffffffffffffffffffff16815260200161454b836040015161504a909063ffffffff16565b76ffffffffffffffffffffffffffffffffffffffffffffff168152602001614588836060015167ffffffffffffffff166150eb909063ffffffff16565b61ffff1681526020016145b0836080015167ffffffffffffffff166150eb909063ffffffff16565b61ffff1681526020018260c0015161ffff1681526020016145e68360a0015167ffffffffffffffff16615177909063ffffffff16565b60ff16815260200150600d60005060008467ffffffffffffffff1667ffffffffffffffff16815260200190815260200160002060005060008201518160000160006101000a8154816fffffffffffffffffffffffffffffffff02191690836fffffffffffffffffffffffffffffffff16021790555060208201518160000160106101000a8154816fffffffffffffffffffffffffffffffff02191690836fffffffffffffffffffffffffffffffff16021790555060408201518160010160006101000a81548176ffffffffffffffffffffffffffffffffffffffffffffff021916908376ffffffffffffffffffffffffffffffffffffffffffffff16021790555060608201518160010160176101000a81548161ffff021916908361ffff16021790555060808201518160010160196101000a81548161ffff021916908361ffff16021790555060a082015181600101601b6101000a81548161ffff021916908361ffff16021790555060c082015181600101601d6101000a81548160ff021916908360ff1602179055509050505b5050565b600060008573ffffffffffffffffffffffffffffffffffffffff166323b872dd60e01b868686604051602401808473ffffffffffffffffffffffffffffffffffffffff1681526020018373ffffffffffffffffffffffffffffffffffffffff1681526020018281526020019350505050604051602081830303815290604052907bffffffffffffffffffffffffffffffffffffffffffffffffffffffff19166020820180517bffffffffffffffffffffffffffffffffffffffffffffffffffffffff83818316178352505050506040518082805190602001908083835b60208310151561487c57805182525b602082019150602081019050602083039250614856565b6001836020036101000a0380198251168184511680821785525050505050509050019150506000604051808303816000865af19150503d80600081146148de576040519150601f19603f3d011682016040523d82523d6000602084013e6148e3565b606091505b5091509150818015614924575060008151148061492357508080602001905160208110156149115760006000fd5b81019080805190602001909291905050505b5b151561499b576040517f08c379a00000000000000000000000000000000000000000000000000000000081526004018080602001828103825260038152602001807f535446000000000000000000000000000000000000000000000000000000000081526020015060200191505060405180910390fd5b50505b50505050565b6000818051906020012090506149b5565b919050565b60008267ffffffffffffffff1682840391508167ffffffffffffffff1611151515614a50576040517f08c379a000000000000000000000000000000000000000000000000000000000815260040180806020018281038252600d8152602001807f7375622d756e646572666c6f770000000000000000000000000000000000000081526020015060200191505060405180910390fd5b5b92915050565b60006000821480614a7757508282838502925082811515614a7457fe5b04145b1515614aee576040517f08c379a000000000000000000000000000000000000000000000000000000000815260040180806020018281038252600c8152602001807f6d756c2d6f766572666c6f77000000000000000000000000000000000000000081526020015060200191505060405180910390fd5b5b92915050565b6000614b70614b37837f000000000000000000000000000000000000000000000000000000000000000067ffffffffffffffff1661443690919063ffffffff16565b7f000000000000000000000000000000000000000000000000000000000000000067ffffffffffffffff16614f7a90919063ffffffff16565b905080505b919050565b60007b0100000000000000000000000000000000000000000000000000000082101515614c12576040517f08c379a00000000000000000000000000000000000000000000000000000000081526004018080602001828103825260128152602001807f6d6f7265207468616e203231362062697473000000000000000000000000000081526020015060200191505060405180910390fd5b819050614c1a565b919050565b6000614c3a8383670de0b6b3a7640000614e7963ffffffff16565b905080505b92915050565b61ffff61ffff16600a60009054906101000a900461ffff1661ffff16101515614c6e5760006000fd5b600a600081819054906101000a900461ffff168092919060010191906101000a81548161ffff021916908361ffff1602179055505080600c6000506000600a60009054906101000a900461ffff1661ffff1661ffff16815260200190815260200160002060006101000a81548173ffffffffffffffffffffffffffffffffffffffff021916908373ffffffffffffffffffffffffffffffffffffffff160217905550600a60009054906101000a900461ffff16600b60005060008373ffffffffffffffffffffffffffffffffffffffff1673ffffffffffffffffffffffffffffffffffffffff16815260200190815260200160002060006101000a81548161ffff021916908361ffff1602179055508073ffffffffffffffffffffffffffffffffffffffff167f784c8f4dbf0ffedd6e72c76501c545a70f8b203b30a26ce542bf92ba87c248a460405160405180910390a25b50565b600070010000000000000000000000000000000082101515614e51576040517f08c379a00000000000000000000000000000000000000000000000000000000081526004018080602001828103825260128152602001807f6d6f7265207468616e203132382062697473000000000000000000000000000081526020015060200191505060405180910390fd5b819050614e59565b919050565b6000614e714261388f909063ffffffff16565b905080505b90565b6000600060006000198587098587029250828110838203039150506000811415614ebc57600084111515614ead5760006000fd5b83820492508292505050614f73565b8084111515614ecb5760006000fd5b6000848688099050828111820391508083039250600085866000031690508086049550808404935060018182600003040190508083028417935083506000600287600302189050808702600203810290508050808702600203810290508050808702600203810290508050808702600203810290508050808702600203810290508050808702600203810290508050808502955085508595505050505050614f735650505050505b9392505050565b600060008267ffffffffffffffff161480614fcc57508267ffffffffffffffff168267ffffffffffffffff1683850292508267ffffffffffffffff16811515614fbf57fe5b0467ffffffffffffffff16145b1515615043576040517f08c379a000000000000000000000000000000000000000000000000000000000815260040180806020018281038252600c8152602001807f6d756c2d6f766572666c6f77000000000000000000000000000000000000000081526020015060200191505060405180910390fd5b5b92915050565b600077010000000000000000000000000000000000000000000000821015156150de576040517f08c379a00000000000000000000000000000000000000000000000000000000081526004018080602001828103825260128152602001807f6d6f7265207468616e203138342062697473000000000000000000000000000081526020015060200191505060405180910390fd5b8190506150e6565b919050565b6000620100008210151561516a576040517f08c379a00000000000000000000000000000000000000000000000000000000081526004018080602001828103825260118152602001807f6d6f7265207468616e203136206269747300000000000000000000000000000081526020015060200191505060405180910390fd5b819050615172565b919050565b6000610100821015156151f5576040517f08c379a00000000000000000000000000000000000000000000000000000000081526004018080602001828103825260108152602001807f6d6f7265207468616e203820626974730000000000000000000000000000000081526020015060200191505060405180910390fd5b8190506151fd565b919050565b6040518060e00160405280600081526020016000815260200160008152602001600067ffffffffffffffff168152602001600067ffffffffffffffff168152602001600067ffffffffffffffff168152602001600061ffff1681526020015090565b60405180604001604052806000815260200160008152602001509056615f7a565b600067ffffffffffffffff8084111561529a57fe5b60405160207fffffffffffffffffffffffffffffffffffffffffffffffffffffffffffffffe0601f87011682010181811083821117156152d657fe5b80604052508092508481528585850111156152f15760006000fd5b8484602083013760006020868301015250505b9392505050565b600081519050801515811415156153225760006000fd5b5b919050565b60008135905060ff8116811415156153405760006000fd5b5b919050565b600060208284031215615357578081fd5b813561536281615f34565b809150505b92915050565b60006020828403121561537e578081fd5b815161538981615f34565b809150505b92915050565b600060006000606084860312156153a9578182fd5b83356153b481615f34565b80935050602084013567ffffffffffffffff808211156153d2578384fd5b818601915086601f83011215156153e7578384fd5b6153f687833560208501615285565b9350604086013591508082111561540b578283fd5b50808501905085601f8201121515615421578182fd5b61543086823560208401615285565b9150505b9250925092565b600060006040838503121561544e578182fd5b823561545981615f34565b80925050602083013590505b9250929050565b600060006000600060808587031215615483578081fd5b843561548e81615f34565b809450506020850135925060408501356154a781615f34565b80925050606085013590505b92959194509250565b600060006000606084860312156154d1578283fd5b83516154dc81615f34565b80935050602084015191506154f36040850161530b565b90505b9250925092565b6000600060208385031215615510578182fd5b823567ffffffffffffffff80821115615527578384fd5b818501915085601f830112151561553c578384fd5b81358181111561554a578485fd5b86602060208302850101111561555e578485fd5b6020830194508093505050505b9250929050565b600060208284031215615583578081fd5b61558c8261530b565b90505b92915050565b6000602082840312156155a6578081fd5b81357fffffffff000000000000000000000000000000000000000000000000000000008116811415156155d7578182fd5b809150505b92915050565b6000602082840312156155f3578081fd5b81356155fe81615f34565b809150505b92915050565b600060006000600060808587031215615620578182fd5b843561562b81615f34565b809450506020850135925061564260408601615328565b9150606085013561565281615f34565b809150505b92959194509250565b600060006000600060808587031215615677578182fd5b843561568281615f34565b80945050602085013561569481615f34565b8093505060408501356156a681615f34565b8092505060608501356156b881615f34565b809150505b92959194509250565b6000602082840312156156d7578081fd5b813561ffff8116811415156156ea578182fd5b809150505b92915050565b600060208284031215615706578081fd5b813590505b92915050565b600060208284031215615722578081fd5b815190505b92915050565b6000600060408385031215615740578182fd5b82359150602083013561575281615f5d565b809150505b9250929050565b60006020828403121561576f578081fd5b813561577a81615f5d565b809150505b92915050565b600060208284031215615796578081fd5b81516157a181615f5d565b809150505b92915050565b60006000604083850312156157bf578182fd5b82356157ca81615f5d565b809250506157da60208401615328565b90505b9250929050565b600081518084526157fc816020860160208601615eff565b60207fffffffffffffffffffffffffffffffffffffffffffffffffffffffffffffffe0601f8301168501019150505b92915050565b60007fffffffff0000000000000000000000000000000000000000000000000000000084168252825161586b816004850160208701615eff565b6004818401019150505b9392505050565b6000825161588e818460208701615eff565b8083019150505b92915050565b600060208201905073ffffffffffffffffffffffffffffffffffffffff831682525b92915050565b600060408201905073ffffffffffffffffffffffffffffffffffffffff8416825267ffffffffffffffff831660208301525b9392505050565b600060608201905073ffffffffffffffffffffffffffffffffffffffff80861683528085166020840152508260408301525b949350505050565b600060408201905073ffffffffffffffffffffffffffffffffffffffff841682528260208301525b9392505050565b600060408201905073ffffffffffffffffffffffffffffffffffffffff8416825267ffffffffffffffff831660208301525b9392505050565b600060208201905082151582525b92915050565b60008315158252604060208301526159cd60408301846157e4565b90505b9392505050565b600060208201905073ffffffffffffffffffffffffffffffffffffffff831682525b92915050565b600060208201905073ffffffffffffffffffffffffffffffffffffffff831682525b92915050565b600060208201905073ffffffffffffffffffffffffffffffffffffffff831682525b92915050565b600060208201905073ffffffffffffffffffffffffffffffffffffffff831682525b92915050565b600060208252615a8a60208301846157e4565b90505b92915050565b600060208252601060208301527f496e76616c696420706f736974696f6e0000000000000000000000000000000060408301526060820190505b919050565b600060208252601560208301527f496e76616c6964206c6f636b206475726174696f6e000000000000000000000060408301526060820190505b919050565b600060208252601160208301527f556e737570706f7274656420746f6b656e00000000000000000000000000000060408301526060820190505b919050565b600060208252601b60208301527f4d75737420696e637265617365206c6f636b206475726174696f6e000000000060408301526060820190505b919050565b600060208252600e60208301527f4e6f7420417574686f72697a656400000000000000000000000000000000000060408301526060820190505b919050565b600060208252600460208301527f4e6f6f700000000000000000000000000000000000000000000000000000000060408301526060820190505b919050565b600060208252601260208301527f416374696f6e20626c61636b6c6973746564000000000000000000000000000060408301526060820190505b919050565b600060208252600c60208301527f5374696c6c206c6f636b6564000000000000000000000000000000000000000060408301526060820190505b919050565b600060208252600c60208301527f506f736974696f6e20444e45000000000000000000000000000000000000000060408301526060820190505b919050565b600060208252601260208301527f416c6c6f746d656e74206578636565646564000000000000000000000000000060408301526060820190505b919050565b600060208252600e60208301527f4e6f74206120636f6e747261637400000000000000000000000000000000000060408301526060820190505b919050565b600060208252601460208301527f436f6e747261637420616c72656164792073657400000000000000000000000060408301526060820190505b919050565b600060208252601660208301527f4d6f7265207468616e203225206f6620737570706c790000000000000000000060408301526060820190505b919050565b600060e082019050825182526020830151602083015260408301516040830152606083015167ffffffffffffffff80821660608501528060808601511660808501528060a08601511660a0850152505061ffff60c08401511660c08301525b92915050565b600060408201905082518252602083015160208301525b92915050565b600060208201905061ffff831682525b92915050565b60006040820190507effffffffffffffffffffffffffffffffffffffffffffffffffffffffffffff8416825282151560208301525b9392505050565b60006020820190508282525b92915050565b600060408201905083825282151560208301525b9392505050565b600060208201905067ffffffffffffffff831682525b92915050565b600060208201905067ffffffffffffffff831682525b92915050565b60005b83811015615f1e5780820151818401525b602081019050615f02565b83811115615f2d576000848401525b505b505050565b73ffffffffffffffffffffffffffffffffffffffff811681141515615f595760006000fd5b5b50565b67ffffffffffffffff811681141515615f765760006000fd5b5b50565bfea2646970667358221220d4a81c2b180baacfc4913af54f43ab3f46983d0270864a8c5af6a273084431db64736f6c6343000706003360a06040523480156100115760006000fd5b505b3373ffffffffffffffffffffffffffffffffffffffff1660808173ffffffffffffffffffffffffffffffffffffffff1660601b815260140150505b610053565b60805160601c6104356100746000398060e652806101d152506104356000f3fe60806040523480156100115760006000fd5b506004361061003b5760003560e01c8063d1660f9914610041578063de9375f2146100b05761003b565b60006000fd5b6100ae600480360360608110156100585760006000fd5b81019080803573ffffffffffffffffffffffffffffffffffffffff169060200190929190803573ffffffffffffffffffffffffffffffffffffffff169060200190929190803590602001909291905050506100e4565b005b6100b86101cf565b604051808273ffffffffffffffffffffffffffffffffffffffff16815260200191505060405180910390f35b7f000000000000000000000000000000000000000000000000000000000000000073ffffffffffffffffffffffffffffffffffffffff163373ffffffffffffffffffffffffffffffffffffffff161415156101aa576040517f08c379a000000000000000000000000000000000000000000000000000000000815260040180806020018281038252600e8152602001807f4e6f7420417574686f72697a656400000000000000000000000000000000000081526020015060200191505060405180910390fd5b60008114156101b8576101ca565b6101c98383836101f363ffffffff16565b5b505050565b7f000000000000000000000000000000000000000000000000000000000000000081565b600060008473ffffffffffffffffffffffffffffffffffffffff1663a9059cbb60e01b8585604051602401808373ffffffffffffffffffffffffffffffffffffffff16815260200182815260200192505050604051602081830303815290604052907bffffffffffffffffffffffffffffffffffffffffffffffffffffffff19166020820180517bffffffffffffffffffffffffffffffffffffffffffffffffffffffff83818316178352505050506040518082805190602001908083835b6020831015156102d857805182525b6020820191506020810190506020830392506102b2565b6001836020036101000a0380198251168184511680821785525050505050509050019150506000604051808303816000865af19150503d806000811461033a576040519150601f19603f3d011682016040523d82523d6000602084013e61033f565b606091505b5091509150818015610380575060008151148061037f575080806020019051602081101561036d5760006000fd5b81019080805190602001909291905050505b5b15156103f7576040517f08c379a00000000000000000000000000000000000000000000000000000000081526004018080602001828103825260028152602001807f535400000000000000000000000000000000000000000000000000000000000081526020015060200191505060405180910390fd5b50505b50505056fea2646970667358221220a09fa674e24bee1d9e1df7bc0570046e4c432e836610f7a105a97cba2ac2d0cf64736f6c63430007060033",
  "linkReferences": {},
  "deployedLinkReferences": {}
}