{
  "_format": "hh-sol-artifact-1",
  "contractName": "TDaoTestable",
  "sourceName": "contracts/mocks/TDaoTestable.sol",
  "abi": [
    {
      "inputs": [
        {
          "internalType": "address",
          "name": "_guardian",
          "type": "address"
        },
        {
          "internalType": "contract IERC20",
          "name": "tcp",
          "type": "address"
        }
      ],
      "stateMutability": "nonpayable",
      "type": "constructor"
    },
    {
      "anonymous": false,
      "inputs": [
        {
          "indexed": true,
          "internalType": "address",
          "name": "token",
          "type": "address"
        },
        {
          "indexed": false,
          "internalType": "uint256",
          "name": "count",
          "type": "uint256"
        }
      ],
      "name": "IncentiveMinted",
      "type": "event"
    },
    {
      "anonymous": false,
      "inputs": [
        {
          "indexed": true,
          "internalType": "uint64",
          "name": "currentPeriod",
          "type": "uint64"
        },
        {
          "indexed": false,
          "internalType": "uint64",
          "name": "periods",
          "type": "uint64"
        }
      ],
      "name": "InflationAccrued",
      "type": "event"
    },
    {
      "anonymous": false,
      "inputs": [
        {
          "indexed": true,
          "internalType": "address",
          "name": "_contract",
          "type": "address"
        }
      ],
      "name": "LiquidationIncentiveContractSet",
      "type": "event"
    },
    {
      "anonymous": false,
      "inputs": [
        {
          "indexed": true,
          "internalType": "uint64",
          "name": "positionNFTTokenID",
          "type": "uint64"
        },
        {
          "indexed": true,
          "internalType": "uint16",
          "name": "lockDurationMonths",
          "type": "uint16"
        }
      ],
      "name": "LockDurationIncrease",
      "type": "event"
    },
    {
      "anonymous": false,
      "inputs": [
        {
          "indexed": true,
          "internalType": "uint64",
          "name": "positionNFTTokenID",
          "type": "uint64"
        },
        {
          "indexed": true,
          "internalType": "address",
          "name": "owner",
          "type": "address"
        }
      ],
      "name": "RewardsClaimed",
      "type": "event"
    },
    {
      "anonymous": false,
      "inputs": [],
      "name": "TDaoStarted",
      "type": "event"
    },
    {
      "anonymous": false,
      "inputs": [
        {
          "indexed": true,
          "internalType": "address",
          "name": "token",
          "type": "address"
        }
      ],
      "name": "TokenAdded",
      "type": "event"
    },
    {
      "anonymous": false,
      "inputs": [
        {
          "indexed": true,
          "internalType": "uint16",
          "name": "tokenID",
          "type": "uint16"
        },
        {
          "indexed": true,
          "internalType": "address",
          "name": "initialOwner",
          "type": "address"
        },
        {
          "indexed": true,
          "internalType": "uint8",
          "name": "lockDurationMonths",
          "type": "uint8"
        },
        {
          "indexed": false,
          "internalType": "uint256",
          "name": "count",
          "type": "uint256"
        }
      ],
      "name": "TokensLocked",
      "type": "event"
    },
    {
      "anonymous": false,
      "inputs": [
        {
          "indexed": true,
          "internalType": "uint16",
          "name": "tokenID",
          "type": "uint16"
        },
        {
          "indexed": true,
          "internalType": "address",
          "name": "owner",
          "type": "address"
        },
        {
          "indexed": false,
          "internalType": "uint256",
          "name": "count",
          "type": "uint256"
        }
      ],
      "name": "TokensUnlocked",
      "type": "event"
    },
    {
      "inputs": [],
      "name": "accrueInflation",
      "outputs": [],
      "stateMutability": "nonpayable",
      "type": "function"
    },
    {
      "inputs": [
        {
          "internalType": "contract IERC20",
          "name": "token",
          "type": "address"
        }
      ],
      "name": "addToken",
      "outputs": [],
      "stateMutability": "nonpayable",
      "type": "function"
    },
    {
      "inputs": [],
      "name": "allTokens",
      "outputs": [
        {
          "internalType": "contract IERC20[]",
          "name": "",
          "type": "address[]"
        }
      ],
      "stateMutability": "view",
      "type": "function"
    },
    {
      "inputs": [
        {
          "internalType": "bytes4",
          "name": "",
          "type": "bytes4"
        }
      ],
      "name": "blacklistedAction",
      "outputs": [
        {
          "internalType": "bool",
          "name": "",
          "type": "bool"
        }
      ],
      "stateMutability": "view",
      "type": "function"
    },
    {
      "inputs": [
        {
          "internalType": "uint64",
          "name": "months",
          "type": "uint64"
        }
      ],
      "name": "calculateMonthsToDays",
      "outputs": [
        {
          "internalType": "uint256",
          "name": "",
          "type": "uint256"
        }
      ],
      "stateMutability": "pure",
      "type": "function"
    },
    {
      "inputs": [
        {
          "internalType": "uint256",
          "name": "count",
          "type": "uint256"
        },
        {
          "internalType": "uint64",
          "name": "durationMonths",
          "type": "uint64"
        }
      ],
      "name": "calculateVirtualCount",
      "outputs": [
        {
          "internalType": "uint256",
          "name": "",
          "type": "uint256"
        }
      ],
      "stateMutability": "pure",
      "type": "function"
    },
    {
      "inputs": [],
      "name": "countUnderlyingProtocolTokens",
      "outputs": [
        {
          "internalType": "uint256",
          "name": "",
          "type": "uint256"
        }
      ],
      "stateMutability": "view",
      "type": "function"
    },
    {
      "inputs": [],
      "name": "currentPeriod",
      "outputs": [
        {
          "internalType": "uint64",
          "name": "period",
          "type": "uint64"
        }
      ],
      "stateMutability": "view",
      "type": "function"
    },
    {
      "inputs": [],
      "name": "dailyProtocolTDaoIncentiveCount",
      "outputs": [
        {
          "internalType": "uint256",
          "name": "",
          "type": "uint256"
        }
      ],
      "stateMutability": "view",
      "type": "function"
    },
    {
      "inputs": [],
      "name": "deployer",
      "outputs": [
        {
          "internalType": "address",
          "name": "",
          "type": "address"
        }
      ],
      "stateMutability": "view",
      "type": "function"
    },
    {
      "inputs": [
        {
          "internalType": "address",
          "name": "target",
          "type": "address"
        },
        {
          "internalType": "string",
          "name": "signature",
          "type": "string"
        },
        {
          "internalType": "bytes",
          "name": "data",
          "type": "bytes"
        }
      ],
      "name": "execute",
      "outputs": [
        {
          "internalType": "bool",
          "name": "success",
          "type": "bool"
        },
        {
          "internalType": "bytes",
          "name": "returnData",
          "type": "bytes"
        }
      ],
      "stateMutability": "nonpayable",
      "type": "function"
    },
    {
      "inputs": [
        {
          "internalType": "uint256",
          "name": "metaProposalID",
          "type": "uint256"
        }
      ],
      "name": "executeMetaProposalVote",
      "outputs": [],
      "stateMutability": "nonpayable",
      "type": "function"
    },
    {
      "inputs": [],
      "name": "firstPeriod",
      "outputs": [
        {
          "internalType": "uint64",
          "name": "",
          "type": "uint64"
        }
      ],
      "stateMutability": "view",
      "type": "function"
    },
    {
      "inputs": [
        {
          "internalType": "uint64",
          "name": "positionNFTTokenID",
          "type": "uint64"
        }
      ],
      "name": "getPosition",
      "outputs": [
        {
          "components": [
            {
              "internalType": "uint256",
              "name": "count",
              "type": "uint256"
            },
            {
              "internalType": "uint256",
              "name": "startTotalRewards",
              "type": "uint256"
            },
            {
              "internalType": "uint256",
              "name": "startCumulativeVirtualCount",
              "type": "uint256"
            },
            {
              "internalType": "uint64",
              "name": "lastPeriodUpdated",
              "type": "uint64"
            },
            {
              "internalType": "uint64",
              "name": "endPeriod",
              "type": "uint64"
            },
            {
              "internalType": "uint64",
              "name": "durationMonths",
              "type": "uint64"
            },
            {
              "internalType": "uint16",
              "name": "tokenID",
              "type": "uint16"
            }
          ],
          "internalType": "struct ITDao.TokenPosition",
          "name": "",
          "type": "tuple"
        }
      ],
      "stateMutability": "view",
      "type": "function"
    },
    {
      "inputs": [
        {
          "internalType": "uint64[]",
          "name": "positionNFTTokenIDs",
          "type": "uint64[]"
        }
      ],
      "name": "getRewards",
      "outputs": [],
      "stateMutability": "nonpayable",
      "type": "function"
    },
    {
      "inputs": [
        {
          "internalType": "uint16",
          "name": "tokenID",
          "type": "uint16"
        }
      ],
      "name": "getRewardsStatus",
      "outputs": [
        {
          "components": [
            {
              "internalType": "uint256",
              "name": "cumulativeVirtualCount",
              "type": "uint256"
            },
            {
              "internalType": "uint256",
              "name": "totalRewards",
              "type": "uint256"
            }
          ],
          "internalType": "struct ITDao.TokenRewardsStatus",
          "name": "",
          "type": "tuple"
        }
      ],
      "stateMutability": "view",
      "type": "function"
    },
    {
      "inputs": [],
      "name": "guardian",
      "outputs": [
        {
          "internalType": "address",
          "name": "",
          "type": "address"
        }
      ],
      "stateMutability": "view",
      "type": "function"
    },
    {
      "inputs": [
        {
          "internalType": "uint16",
          "name": "tokenID",
          "type": "uint16"
        }
      ],
      "name": "idToToken",
      "outputs": [
        {
          "internalType": "contract IERC20",
          "name": "",
          "type": "address"
        }
      ],
      "stateMutability": "view",
      "type": "function"
    },
    {
      "inputs": [],
      "name": "incentiveContract",
      "outputs": [
        {
          "internalType": "address",
          "name": "",
          "type": "address"
        }
      ],
      "stateMutability": "view",
      "type": "function"
    },
    {
      "inputs": [
        {
          "internalType": "address",
          "name": "dest",
          "type": "address"
        },
        {
          "internalType": "uint256",
          "name": "count",
          "type": "uint256"
        }
      ],
      "name": "incentiveContractMint",
      "outputs": [],
      "stateMutability": "nonpayable",
      "type": "function"
    },
    {
      "inputs": [],
      "name": "incentivesStartPeriod",
      "outputs": [
        {
          "internalType": "uint64",
          "name": "",
          "type": "uint64"
        }
      ],
      "stateMutability": "view",
      "type": "function"
    },
    {
      "inputs": [
        {
          "internalType": "uint64",
          "name": "positionNFTTokenID",
          "type": "uint64"
        },
        {
          "internalType": "uint8",
          "name": "lockDurationMonths",
          "type": "uint8"
        }
      ],
      "name": "increaseLockDuration",
      "outputs": [],
      "stateMutability": "nonpayable",
      "type": "function"
    },
    {
      "inputs": [
        {
          "internalType": "contract IPositionNFT",
          "name": "_tDaoPositionNFT",
          "type": "address"
        },
        {
          "internalType": "contract TDaoToken",
          "name": "_tDaoToken",
          "type": "address"
        },
        {
          "internalType": "address",
          "name": "_tDaoGovernorAlpha",
          "type": "address"
        },
        {
          "internalType": "address",
          "name": "_timelock",
          "type": "address"
        }
      ],
      "name": "init",
      "outputs": [],
      "stateMutability": "nonpayable",
      "type": "function"
    },
    {
      "inputs": [],
      "name": "lastPeriodGlobalInflationUpdated",
      "outputs": [
        {
          "internalType": "uint64",
          "name": "",
          "type": "uint64"
        }
      ],
      "stateMutability": "view",
      "type": "function"
    },
    {
      "inputs": [
        {
          "internalType": "uint16",
          "name": "tokenID",
          "type": "uint16"
        },
        {
          "internalType": "uint256",
          "name": "count",
          "type": "uint256"
        },
        {
          "internalType": "uint8",
          "name": "lockDurationMonths",
          "type": "uint8"
        },
        {
          "internalType": "address",
          "name": "to",
          "type": "address"
        }
      ],
      "name": "lockTokens",
      "outputs": [
        {
          "internalType": "uint64",
          "name": "positionNFTTokenID",
          "type": "uint64"
        }
      ],
      "stateMutability": "nonpayable",
      "type": "function"
    },
    {
      "inputs": [
        {
          "internalType": "address",
          "name": "dest",
          "type": "address"
        },
        {
          "internalType": "uint256",
          "name": "count",
          "type": "uint256"
        }
      ],
      "name": "mintIncentive",
      "outputs": [],
      "stateMutability": "nonpayable",
      "type": "function"
    },
    {
      "inputs": [
        {
          "internalType": "address",
          "name": "dest",
          "type": "address"
        },
        {
          "internalType": "uint256",
          "name": "count",
          "type": "uint256"
        }
      ],
      "name": "mintVotingRewards",
      "outputs": [],
      "stateMutability": "nonpayable",
      "type": "function"
    },
    {
      "inputs": [],
      "name": "periodLength",
      "outputs": [
        {
          "internalType": "uint64",
          "name": "",
          "type": "uint64"
        }
      ],
      "stateMutability": "view",
      "type": "function"
    },
    {
      "inputs": [
        {
          "internalType": "uint64",
          "name": "period",
          "type": "uint64"
        }
      ],
      "name": "periodToTime",
      "outputs": [
        {
          "internalType": "uint64",
          "name": "",
          "type": "uint64"
        }
      ],
      "stateMutability": "view",
      "type": "function"
    },
    {
      "inputs": [
        {
          "internalType": "uint64",
          "name": "positionNFTTokenID",
          "type": "uint64"
        }
      ],
      "name": "positionIsAbleToBeUnlocked",
      "outputs": [
        {
          "internalType": "bool",
          "name": "",
          "type": "bool"
        }
      ],
      "stateMutability": "view",
      "type": "function"
    },
    {
      "inputs": [
        {
          "internalType": "uint16",
          "name": "tokenID",
          "type": "uint16"
        }
      ],
      "name": "selfDelegate",
      "outputs": [],
      "stateMutability": "nonpayable",
      "type": "function"
    },
    {
      "inputs": [
        {
          "internalType": "address",
          "name": "governorAlpha",
          "type": "address"
        },
        {
          "internalType": "uint256",
          "name": "proposalID",
          "type": "uint256"
        },
        {
          "internalType": "address",
          "name": "voter",
          "type": "address"
        },
        {
          "internalType": "uint256",
          "name": "votePortion",
          "type": "uint256"
        }
      ],
      "name": "sendUnderlyingVotingRewards",
      "outputs": [],
      "stateMutability": "nonpayable",
      "type": "function"
    },
    {
      "inputs": [
        {
          "internalType": "address",
          "name": "_contract",
          "type": "address"
        }
      ],
      "name": "setIncentiveContract",
      "outputs": [],
      "stateMutability": "nonpayable",
      "type": "function"
    },
    {
      "inputs": [],
      "name": "start",
      "outputs": [],
      "stateMutability": "nonpayable",
      "type": "function"
    },
    {
      "inputs": [],
      "name": "startPeriod",
      "outputs": [
        {
          "internalType": "uint64",
          "name": "",
          "type": "uint64"
        }
      ],
      "stateMutability": "view",
      "type": "function"
    },
    {
      "inputs": [],
      "name": "tDaoGovernorAlpha",
      "outputs": [
        {
          "internalType": "address",
          "name": "",
          "type": "address"
        }
      ],
      "stateMutability": "view",
      "type": "function"
    },
    {
      "inputs": [],
      "name": "tDaoPositionNFT",
      "outputs": [
        {
          "internalType": "contract IPositionNFT",
          "name": "",
          "type": "address"
        }
      ],
      "stateMutability": "view",
      "type": "function"
    },
    {
      "inputs": [],
      "name": "tDaoToken",
      "outputs": [
        {
          "internalType": "contract TDaoToken",
          "name": "",
          "type": "address"
        }
      ],
      "stateMutability": "view",
      "type": "function"
    },
    {
      "inputs": [],
      "name": "timelock",
      "outputs": [
        {
          "internalType": "address",
          "name": "",
          "type": "address"
        }
      ],
      "stateMutability": "view",
      "type": "function"
    },
    {
      "inputs": [
        {
          "internalType": "contract IERC20",
          "name": "token",
          "type": "address"
        }
      ],
      "name": "tokenToID",
      "outputs": [
        {
          "internalType": "uint16",
          "name": "",
          "type": "uint16"
        }
      ],
      "stateMutability": "view",
      "type": "function"
    },
    {
      "inputs": [
        {
          "internalType": "uint256",
          "name": "",
          "type": "uint256"
        }
      ],
      "name": "tokens",
      "outputs": [
        {
          "internalType": "contract IERC20",
          "name": "",
          "type": "address"
        }
      ],
      "stateMutability": "view",
      "type": "function"
    },
    {
      "inputs": [],
      "name": "totalIncentivesMinted",
      "outputs": [
        {
          "internalType": "uint256",
          "name": "",
          "type": "uint256"
        }
      ],
      "stateMutability": "view",
      "type": "function"
    },
    {
      "inputs": [
        {
          "internalType": "address",
          "name": "",
          "type": "address"
        },
        {
          "internalType": "uint256",
          "name": "",
          "type": "uint256"
        }
      ],
      "name": "underlyingTokenVoteRewardCount",
      "outputs": [
        {
          "internalType": "uint248",
          "name": "count",
          "type": "uint248"
        },
        {
          "internalType": "bool",
          "name": "isSet",
          "type": "bool"
        }
      ],
      "stateMutability": "view",
      "type": "function"
    },
    {
      "inputs": [
        {
          "internalType": "uint64",
          "name": "positionNFTTokenID",
          "type": "uint64"
        }
      ],
      "name": "unlockTokens",
      "outputs": [],
      "stateMutability": "nonpayable",
      "type": "function"
    },
    {
      "inputs": [
        {
          "internalType": "uint16",
          "name": "",
          "type": "uint16"
        }
      ],
      "name": "virtualCount",
      "outputs": [
        {
          "internalType": "uint256",
          "name": "",
          "type": "uint256"
        }
      ],
      "stateMutability": "view",
      "type": "function"
    },
    {
      "inputs": [],
      "name": "votingRewardsSafe",
      "outputs": [
        {
          "internalType": "contract TDaoVotingRewardsSafe",
          "name": "",
          "type": "address"
        }
      ],
      "stateMutability": "view",
      "type": "function"
    }
  ],
  "bytecode": "0x60e06040526001600760006101000a81548167ffffffffffffffff021916908367ffffffffffffffff1602179055503480156200003c5760006000fd5b5060405162006ab438038062006ab4833981810160405281019062000062919062000317565b5b81815b5b620151805b60018167ffffffffffffffff16620000896200024e60201b60201c565b67ffffffffffffffff168115156200009d57fe5b040367ffffffffffffffff1660a08167ffffffffffffffff1660c01b815260080150508067ffffffffffffffff1660808167ffffffffffffffff1660c01b815260080150505b50600160006000508190909055505b81600e60006101000a81548173ffffffffffffffffffffffffffffffffffffffff021916908373ffffffffffffffffffffffffffffffffffffffff160217905550600a60005081908060018154018082558091505060019003906000526020600020900160005b9091909190916101000a81548173ffffffffffffffffffffffffffffffffffffffff021916908373ffffffffffffffffffffffffffffffffffffffff160217905550604051620001a99062000304565b604051809103906000f080158015620001c7573d600060003e3d6000fd5b5073ffffffffffffffffffffffffffffffffffffffff1660c08173ffffffffffffffffffffffffffffffffffffffff1660601b8152601401505033600d60006101000a81548173ffffffffffffffffffffffffffffffffffffffff021916908373ffffffffffffffffffffffffffffffffffffffff1602179055505b50505b505062000376565b600062000268426200027060201b62003b6c17909060201c565b905080505b90565b60006801000000000000000082101515620002f6576040517f08c379a00000000000000000000000000000000000000000000000000000000081526004018080602001828103825260118152602001807f6d6f7265207468616e203634206269747300000000000000000000000000000081526020015060200191505060405180910390fd5b819050620002ff565b919050565b6104a9806200660b833901905662000375565b60006000604083850312156200032b578182fd5b8251620003388162000358565b8092505060208301516200034c8162000358565b809150505b9250929050565b6001600160a01b03811681141515620003715760006000fd5b5b50565b5b60805160c01c60a05160c01c60c05160601c616241620003ca6000398061297b52806135ad52806135de52508061384e5280613ec75280614c315250806138725280613ee85280614c6a52506162416000f3fe60806040523480156100115760006000fd5b506004361061030f5760003560e01c80636ff97f1d1161019d578063b9f8ea6d116100ef578063d48bfca711610098578063d7ed153b11610072578063d7ed153b146108cd578063fcb3fa90146108fd578063fd8067c3146109195761030f565b8063d48bfca714610875578063d5f3948814610891578063d6c2875d146108af5761030f565b8063c4e3a63b116100c9578063c4e3a63b1461081b578063d2ca211514610839578063d33219b4146108575761030f565b8063b9f8ea6d146107d7578063be9a6555146107f3578063c2cc16d9146107fd5761030f565b80639383ac44116101515780639d8e09011161012b5780639d8e090114610759578063acfc7bfa14610789578063ae429833146107b95761030f565b80639383ac44146106ef578063955e232e1461070b5780639645383d1461073b5761030f565b80637ad31c98116101825780637ad31c981461068257806386fa81c7146106a057806387bbac1b146106d15761030f565b80636ff97f1d14610634578063797250e4146106525761030f565b806330bfb9bb116102615780634cd7a3151161020a5780635d5bef89116101e45780635d5bef89146105ca578063640bb8df146105e65780636c6a4f36146106045761030f565b80634cd7a315146105605780634f64b2be1461057c578063526b8712146105ac5761030f565b8063452a93201161023b578063452a9320146104f65780634540137e146105145780634b884f34146105305761030f565b806330bfb9bb1461047757806333daf5d414610495578063371f3d45146104c65761030f565b806307e54f16116102c357806314706d851161029d57806314706d851461040d5780631a30c7021461042b5780632e74e628146104475761030f565b806307e54f16146103915780630a889a8b146103c15780630f85fc5a146103dd5761030f565b806306552ff3116102f457806306552ff31461033d578063078182001461035957806307932987146103755761030f565b8063020ac54a14610315578063060406181461031f5761030f565b60006000fd5b61031d610937565b005b6103276109e4565b6040516103349190616173565b60405180910390f35b61035760048036038101906103529190615779565b6109fc565b005b610373600480360381019061036e91906154b6565b610c67565b005b61038f600480360381019061038a91906155ab565b610e46565b005b6103ab60048036038101906103a69190615752565b610fd7565b6040516103b891906160d8565b60405180910390f35b6103db60048036038101906103d691906158be565b6110ca565b005b6103f760048036038101906103f291906158be565b61160d565b6040516104049190616056565b60405180910390f35b6104156118e9565b604051610422919061612a565b60405180910390f35b6104456004803603810190610440919061590c565b6119a8565b005b610461600480360381019061045c91906158be565b611cfe565b60405161046e9190615bb0565b60405180910390f35b61047f611e01565b60405161048c9190616173565b60405180910390f35b6104af60048036038101906104aa9190615504565b611e1b565b6040516104bd929190615bc4565b60405180910390f35b6104e060048036038101906104db9190615705565b6120b2565b6040516104ed9190615bb0565b60405180910390f35b6104fe6120d7565b60405161050b91906159fb565b60405180910390f35b61052e6004803603810190610529919061566d565b6120fd565b005b61054a600480360381019061054591906158be565b612320565b604051610557919061612a565b60405180910390f35b61057a600480360381019061057591906155ab565b612347565b005b61059660048036038101906105919190615855565b6125ab565b6040516105a39190615be9565b60405180910390f35b6105b46125f1565b6040516105c1919061612a565b60405180910390f35b6105e460048036038101906105df91906157df565b612606565b005b6105ee612709565b6040516105fb91906159fb565b60405180910390f35b61061e600480360381019061061991906157df565b61272f565b60405161062b91906160bb565b60405180910390f35b61063c612850565b6040516106499190615afe565b60405180910390f35b61066c600480360381019061066791906157df565b6128e6565b604051610679919061612a565b60405180910390f35b61068a612901565b604051610697919061612a565b60405180910390f35b6106ba60048036038101906106b591906155ab565b61290a565b6040516106c89291906160ee565b60405180910390f35b6106d9612979565b6040516106e69190615c61565b60405180910390f35b610709600480360381019061070491906155ab565b61299d565b005b610725600480360381019061072091906158be565b612c0a565b6040516107329190616173565b60405180910390f35b610743612c27565b6040516107509190615c39565b60405180910390f35b610773600480360381019061076e91906157df565b612c4d565b6040516107809190615be9565b60405180910390f35b6107a3600480360381019061079e9190615802565b612cee565b6040516107b09190616173565b60405180910390f35b6107c16130e1565b6040516107ce9190615c11565b60405180910390f35b6107f160048036038101906107ec91906155dc565b613107565b005b6107fb61372f565b005b610805613826565b60405161081291906159fb565b60405180910390f35b61082361384c565b6040516108309190616173565b60405180910390f35b610841613870565b60405161084e9190616173565b60405180910390f35b61085f613894565b60405161086c91906159fb565b60405180910390f35b61088f600480360381019061088a9190615752565b6138ba565b005b6108996139c4565b6040516108a691906159fb565b60405180910390f35b6108b76139ea565b6040516108c49190616173565b60405180910390f35b6108e760048036038101906108e2919061588d565b613a04565b6040516108f4919061612a565b60405180910390f35b61091760048036038101906109129190615855565b613a23565b005b610921613b52565b60405161092e9190616173565b60405180910390f35b6002600060005054141515156109b8576040517f08c379a000000000000000000000000000000000000000000000000000000000815260040180806020018281038252601f8152602001807f5265656e7472616e637947756172643a207265656e7472616e742063616c6c0081526020015060200191505060405180910390fd5b600260006000508190909055506109d3613bfe63ffffffff16565b5b600160006000508190909055505b565b60006109f4613ec363ffffffff16565b905080505b90565b610a5b600d60009054906101000a900473ffffffffffffffffffffffffffffffffffffffff1673ffffffffffffffffffffffffffffffffffffffff163373ffffffffffffffffffffffffffffffffffffffff1614613f3c63ffffffff16565b600d60006101000a81549073ffffffffffffffffffffffffffffffffffffffff021916905583600560006101000a81548173ffffffffffffffffffffffffffffffffffffffff021916908373ffffffffffffffffffffffffffffffffffffffff16021790555082600460006101000a81548173ffffffffffffffffffffffffffffffffffffffff021916908373ffffffffffffffffffffffffffffffffffffffff16021790555081600360006101000a81548173ffffffffffffffffffffffffffffffffffffffff021916908373ffffffffffffffffffffffffffffffffffffffff16021790555080600260006101000a81548173ffffffffffffffffffffffffffffffffffffffff021916908373ffffffffffffffffffffffffffffffffffffffff160217905550610b9a63a9059cbb60e01b613f8263ffffffff16565b610bb06323b872dd60e01b613f8263ffffffff16565b610bc663095ea7b360e01b613f8263ffffffff16565b610bdc63449a52f860e01b613f8263ffffffff16565b610bf26379cc679060e01b613f8263ffffffff16565b610c086342966c6860e01b613f8263ffffffff16565b610c1e633950935160e01b613f8263ffffffff16565b610c3463a457c2d760e01b613f8263ffffffff16565b610c4a633c4a25d060e01b613f8263ffffffff16565b610c60635c19a95c60e01b613f8263ffffffff16565b5b50505050565b610ca43073ffffffffffffffffffffffffffffffffffffffff163373ffffffffffffffffffffffffffffffffffffffff1614613f3c63ffffffff16565b600073ffffffffffffffffffffffffffffffffffffffff16600160009054906101000a900473ffffffffffffffffffffffffffffffffffffffff1673ffffffffffffffffffffffffffffffffffffffff16141515610d37576040517f08c379a0000000000000000000000000000000000000000000000000000000008152600401610d2e90615f5a565b60405180910390fd5b610d4681613ff363ffffffff16565b1515610d87576040517f08c379a0000000000000000000000000000000000000000000000000000000008152600401610d7e90615f1b565b60405180910390fd5b80600160006101000a81548173ffffffffffffffffffffffffffffffffffffffff021916908373ffffffffffffffffffffffffffffffffffffffff160217905550610dd6613ec363ffffffff16565b600f60006101000a81548167ffffffffffffffff021916908367ffffffffffffffff1602179055508073ffffffffffffffffffffffffffffffffffffffff167f6765bf0cc4e3defc42bfa6ac394241a5f702ee760529c922874f15c4ad35edc760405160405180910390a25b5b50565b600260006000505414151515610ec7576040517f08c379a000000000000000000000000000000000000000000000000000000000815260040180806020018281038252601f8152602001807f5265656e7472616e637947756172643a207265656e7472616e742063616c6c0081526020015060200191505060405180910390fd5b60026000600050819090905550610f33600360009054906101000a900473ffffffffffffffffffffffffffffffffffffffff1673ffffffffffffffffffffffffffffffffffffffff163373ffffffffffffffffffffffffffffffffffffffff1614613f3c63ffffffff16565b600460009054906101000a900473ffffffffffffffffffffffffffffffffffffffff1673ffffffffffffffffffffffffffffffffffffffff1663449a52f883836040518363ffffffff1660e01b8152600401610f90929190615a96565b600060405180830381600087803b158015610fab5760006000fd5b505af1158015610fc0573d600060003e3d6000fd5b505050505b600160006000508190909055505b5050565b60006000600090505b600a60005080549050811015611089578273ffffffffffffffffffffffffffffffffffffffff16600a6000508281548110151561101957fe5b906000526020600020900160005b9054906101000a900473ffffffffffffffffffffffffffffffffffffffff1673ffffffffffffffffffffffffffffffffffffffff16141561107b576110738161400d909063ffffffff16565b9150506110c5565b5b8080600101915050610fe0565b506040517f08c379a00000000000000000000000000000000000000000000000000000000081526004016110bc90615fd8565b60405180910390fd5b919050565b60026000600050541415151561114b576040517f08c379a000000000000000000000000000000000000000000000000000000000815260040180806020018281038252601f8152602001807f5265656e7472616e637947756172643a207265656e7472616e742063616c6c0081526020015060200191505060405180910390fd5b60026000600050819090905550600033905061121a600560009054906101000a900473ffffffffffffffffffffffffffffffffffffffff1673ffffffffffffffffffffffffffffffffffffffff1663430c208183856040518363ffffffff1660e01b81526004016111bd929190615ac5565b60206040518083038186803b1580156111d65760006000fd5b505afa1580156111eb573d600060003e3d6000fd5b505050506040513d601f19601f8201168201806040525081019061120f91906156e2565b613f3c63ffffffff16565b600061122b8361409963ffffffff16565b905061123b613ec363ffffffff16565b67ffffffffffffffff16816080015167ffffffffffffffff1611151515611297576040517f08c379a000000000000000000000000000000000000000000000000000000000815260040161128e90615e5e565b60405180910390fd5b6112e66112b282600001518360a0015161436263ffffffff16565b600960005060008460c0015161ffff1661ffff1681526020019081526020016000206000505461439190919063ffffffff16565b600960005060008360c0015161ffff1661ffff168152602001908152602001600020600050819090905550600b60005060008467ffffffffffffffff1667ffffffffffffffff16815260200190815260200160002060006000820160006101000a8154906fffffffffffffffffffffffffffffffff02191690556000820160106101000a8154906fffffffffffffffffffffffffffffffff02191690556001820160006101000a81549076ffffffffffffffffffffffffffffffffffffffffffffff02191690556001820160176101000a81549061ffff02191690556001820160196101000a81549061ffff021916905560018201601b6101000a81549061ffff021916905560018201601d6101000a81549060ff021916905550506000600560009054906101000a900473ffffffffffffffffffffffffffffffffffffffff1673ffffffffffffffffffffffffffffffffffffffff16636352211e856040518263ffffffff1660e01b815260040161145f9190616157565b60206040518083038186803b1580156114785760006000fd5b505afa15801561148d573d600060003e3d6000fd5b505050506040513d601f19601f820116820180604052508101906114b191906154dd565b9050600560009054906101000a900473ffffffffffffffffffffffffffffffffffffffff1673ffffffffffffffffffffffffffffffffffffffff16639dbead42856040518263ffffffff1660e01b815260040161150e9190616173565b600060405180830381600087803b1580156115295760006000fd5b505af115801561153e573d600060003e3d6000fd5b505050508273ffffffffffffffffffffffffffffffffffffffff168260c0015161ffff167fbf347141bee0ba9c777fbef9a14008be9f56f2b2f90f0e63cfed8a96a3b506c78460000151604051611595919061612a565b60405180910390a36115f8600a6000508360c0015161ffff168154811015156115ba57fe5b906000526020600020900160005b9054906101000a900473ffffffffffffffffffffffffffffffffffffffff1682846000015161441a63ffffffff16565b5050505b600160006000508190909055505b50565b611615615353565b6000600b60005060008467ffffffffffffffff1667ffffffffffffffff1681526020019081526020016000206000506040518060e00160405290816000820160009054906101000a90046fffffffffffffffffffffffffffffffff166fffffffffffffffffffffffffffffffff166fffffffffffffffffffffffffffffffff1681526020016000820160109054906101000a90046fffffffffffffffffffffffffffffffff166fffffffffffffffffffffffffffffffff166fffffffffffffffffffffffffffffffff1681526020016001820160009054906101000a900476ffffffffffffffffffffffffffffffffffffffffffffff1676ffffffffffffffffffffffffffffffffffffffffffffff1676ffffffffffffffffffffffffffffffffffffffffffffff1681526020016001820160179054906101000a900461ffff1661ffff1661ffff1681526020016001820160199054906101000a900461ffff1661ffff1661ffff16815260200160018201601b9054906101000a900461ffff1661ffff1661ffff16815260200160018201601d9054906101000a900460ff1660ff1660ff16815260200150509050600081600001516fffffffffffffffffffffffffffffffff1611151561181f576040517f08c379a000000000000000000000000000000000000000000000000000000000815260040161181690615e9d565b60405180910390fd5b6040518060e0016040528082600001516fffffffffffffffffffffffffffffffff16815260200182602001516fffffffffffffffffffffffffffffffff168152602001826040015176ffffffffffffffffffffffffffffffffffffffffffffff168152602001826060015161ffff1667ffffffffffffffff168152602001826080015161ffff1667ffffffffffffffff1681526020018260c0015160ff1667ffffffffffffffff1681526020018260a0015161ffff168152602001509150506118e456505b919050565b60006000600e60149054906101000a900467ffffffffffffffff1667ffffffffffffffff16141561191d57600090506119a5565b600073ffffffffffffffffffffffffffffffffffffffff16600160009054906101000a900473ffffffffffffffffffffffffffffffffffffffff1673ffffffffffffffffffffffffffffffffffffffff161415156119935769021e19e0c9bab240000069152d02c7e14af68000000390506119a5565b69152d02c7e14af680000090506119a5565b90565b600260006000505414151515611a29576040517f08c379a000000000000000000000000000000000000000000000000000000000815260040180806020018281038252601f8152602001807f5265656e7472616e637947756172643a207265656e7472616e742063616c6c0081526020015060200191505060405180910390fd5b60026000600050819090905550611a458161462663ffffffff16565b6000339050611b07600560009054906101000a900473ffffffffffffffffffffffffffffffffffffffff1673ffffffffffffffffffffffffffffffffffffffff1663430c208183866040518363ffffffff1660e01b8152600401611aaa929190615ac5565b60206040518083038186803b158015611ac35760006000fd5b505afa158015611ad8573d600060003e3d6000fd5b505050506040513d601f19601f82011682018060405250810190611afc91906156e2565b613f3c63ffffffff16565b6000611b188461409963ffffffff16565b90508060a0015167ffffffffffffffff168360ff1667ffffffffffffffff16111515611b79576040517f08c379a0000000000000000000000000000000000000000000000000000000008152600401611b7090615d62565b60405180910390fd5b611bf0611b9382600001518560ff1661436263ffffffff16565b611be2611bae84600001518560a0015161436263ffffffff16565b600960005060008660c0015161ffff1661ffff1681526020019081526020016000206000505461439190919063ffffffff16565b6146c690919063ffffffff16565b600960005060008360c0015161ffff1661ffff168152602001908152602001600020600050819090905550611c56611c308460ff1661474f63ffffffff16565b611c3e613ec363ffffffff16565b67ffffffffffffffff1661479290919063ffffffff16565b816080019067ffffffffffffffff16908167ffffffffffffffff16815260200150508260ff168160a0019067ffffffffffffffff16908167ffffffffffffffff1681526020015050611cae848261482f63ffffffff16565b8260ff168467ffffffffffffffff167fb39e6330051c3e584367d7d1f1ff3fb0cdd824478fd7d7f257005c83c010b8a160405160405180910390a350505b600160006000508190909055505b5050565b6000600a60005080549050600b60005060008467ffffffffffffffff1667ffffffffffffffff168152602001908152602001600020600050600101601b9054906101000a900461ffff1661ffff16101515611d8e576040517f08c379a0000000000000000000000000000000000000000000000000000000008152600401611d8590615ca5565b60405180910390fd5b611d9c613ec363ffffffff16565b67ffffffffffffffff16600b60005060008467ffffffffffffffff1667ffffffffffffffff16815260200190815260200160002060005060010160199054906101000a900461ffff1661ffff1667ffffffffffffffff1611159050611dfc565b919050565b600e60149054906101000a900467ffffffffffffffff1681565b60006060600260006000505414151515611ea0576040517f08c379a000000000000000000000000000000000000000000000000000000000815260040180806020018281038252601f8152602001807f5265656e7472616e637947756172643a207265656e7472616e742063616c6c0081526020015060200191505060405180910390fd5b60026000600050819090905550611f0c600260009054906101000a900473ffffffffffffffffffffffffffffffffffffffff1673ffffffffffffffffffffffffffffffffffffffff163373ffffffffffffffffffffffffffffffffffffffff1614613f3c63ffffffff16565b6000611f1d85614ad563ffffffff16565b9050600c6000506000827bffffffffffffffffffffffffffffffffffffffffffffffffffffffff19167bffffffffffffffffffffffffffffffffffffffffffffffffffffffff1916815260200190815260200160002060009054906101000a900460ff16151515611fc3576040517f08c379a0000000000000000000000000000000000000000000000000000000008152600401611fba90615e1f565b60405180910390fd5b8573ffffffffffffffffffffffffffffffffffffffff168185604051602001611fed929190615991565b60405160208183030381529060405260405161200991906159dc565b6000604051808303816000865af19150503d8060008114612046576040519150601f19603f3d011682016040523d82523d6000602084013e61204b565b606091505b5080935081945050508282901515612099576040517f08c379a00000000000000000000000000000000000000000000000000000000081526004016120909190615c89565b60405180910390fd5b50505b600160006000508190909055505b935093915050565b600c60005060205280600052604060002060009150909054906101000a900460ff1681565b600e60009054906101000a900473ffffffffffffffffffffffffffffffffffffffff1681565b60026000600050541415151561217e576040517f08c379a000000000000000000000000000000000000000000000000000000000815260040180806020018281038252601f8152602001807f5265656e7472616e637947756172643a207265656e7472616e742063616c6c0081526020015060200191505060405180910390fd5b600260006000508190909055506000612195615353565b6000600090505b8484905081101561230a5784848281811015156121b557fe5b90506020020160208101906121ca91906158be565b9250825061228b600560009054906101000a900473ffffffffffffffffffffffffffffffffffffffff1673ffffffffffffffffffffffffffffffffffffffff1663430c208133866040518363ffffffff1660e01b815260040161222e929190615a23565b60206040518083038186803b1580156122475760006000fd5b505afa15801561225c573d600060003e3d6000fd5b505050506040513d601f19601f8201168201806040525081019061228091906156e2565b613f3c63ffffffff16565b61229a8361409963ffffffff16565b915081506122ae838361482f63ffffffff16565b3373ffffffffffffffffffffffffffffffffffffffff168367ffffffffffffffff167f39c278b054e152450e4295bdf59d7edbaba35cb21d4248658680e61dac39eebb60405160405180910390a35b808060010191505061219c565b5050505b600160006000508190909055505b5050565b60006123318261474f63ffffffff16565b67ffffffffffffffff169050612342565b919050565b6123843073ffffffffffffffffffffffffffffffffffffffff163373ffffffffffffffffffffffffffffffffffffffff1614613f3c63ffffffff16565b6032600460009054906101000a900473ffffffffffffffffffffffffffffffffffffffff1673ffffffffffffffffffffffffffffffffffffffff166318160ddd6040518163ffffffff1660e01b815260040160206040518083038186803b1580156123ef5760006000fd5b505afa158015612404573d600060003e3d6000fd5b505050506040513d601f19601f820116820180604052508101906124289190615871565b81151561243157fe5b048111151515612476576040517f08c379a000000000000000000000000000000000000000000000000000000000815260040161246d90616017565b60405180910390fd5b61248582613ff363ffffffff16565b15156124c6576040517f08c379a00000000000000000000000000000000000000000000000000000000081526004016124bd90615f1b565b60405180910390fd5b600460009054906101000a900473ffffffffffffffffffffffffffffffffffffffff1673ffffffffffffffffffffffffffffffffffffffff1663449a52f883836040518363ffffffff1660e01b8152600401612523929190615a96565b600060405180830381600087803b15801561253e5760006000fd5b505af1158015612553573d600060003e3d6000fd5b505050508173ffffffffffffffffffffffffffffffffffffffff167f15c222d39f56077620782fcc367cdd020fddac1f6129c77ec7ca1c5025659dda8260405161259d919061612a565b60405180910390a25b5b5050565b600a60005081815481106125be57600080fd5b906000526020600020900160005b9150909054906101000a900473ffffffffffffffffffffffffffffffffffffffff1681565b6000600a600050805490509050612603565b90565b600a600050805490508161ffff16101515612656576040517f08c379a000000000000000000000000000000000000000000000000000000000815260040161264d90615d23565b60405180910390fd5b600a6000508161ffff1681548110151561266c57fe5b906000526020600020900160005b9054906101000a900473ffffffffffffffffffffffffffffffffffffffff1673ffffffffffffffffffffffffffffffffffffffff16635c19a95c306040518263ffffffff1660e01b81526004016126d191906159fb565b600060405180830381600087803b1580156126ec5760006000fd5b505af1158015612701573d600060003e3d6000fd5b505050505b50565b600360009054906101000a900473ffffffffffffffffffffffffffffffffffffffff1681565b6127376153b5565b6000600860005060008461ffff1661ffff1681526020019081526020016000206000506040518060400160405290816000820160009054906101000a90046fffffffffffffffffffffffffffffffff166fffffffffffffffffffffffffffffffff166fffffffffffffffffffffffffffffffff1681526020016000820160109054906101000a90046fffffffffffffffffffffffffffffffff166fffffffffffffffffffffffffffffffff166fffffffffffffffffffffffffffffffff16815260200150509050604051806040016040528082600001516fffffffffffffffffffffffffffffffff16815260200182602001516fffffffffffffffffffffffffffffffff1681526020015091505061284b56505b919050565b6060600a6000508054806020026020016040519081016040528092919081815260200182805480156128d757602002820191906000526020600020905b8160009054906101000a900473ffffffffffffffffffffffffffffffffffffffff1673ffffffffffffffffffffffffffffffffffffffff168152602001906001019080831161288d575b505050505090506128e3565b90565b60096000506020528060005260406000206000915090505481565b60106000505481565b6006600050602052816000526040600020600050602052806000526040600020600091509150508060000160009054906101000a90047effffffffffffffffffffffffffffffffffffffffffffffffffffffffffffff169080600001601f9054906101000a900460ff16905082565b7f000000000000000000000000000000000000000000000000000000000000000081565b600260006000505414151515612a1e576040517f08c379a000000000000000000000000000000000000000000000000000000000815260040180806020018281038252601f8152602001807f5265656e7472616e637947756172643a207265656e7472616e742063616c6c0081526020015060200191505060405180910390fd5b60026000600050819090905550612a8a600160009054906101000a900473ffffffffffffffffffffffffffffffffffffffff1673ffffffffffffffffffffffffffffffffffffffff163373ffffffffffffffffffffffffffffffffffffffff1614613f3c63ffffffff16565b6000612aa4826010600050546146c690919063ffffffff16565b90506000612b1169021e19e0c9bab2400000612af9600f60009054906101000a900467ffffffffffffffff166001612ae0613ec363ffffffff16565b0167ffffffffffffffff16614aeb90919063ffffffff16565b67ffffffffffffffff16614b8890919063ffffffff16565b9050808211151515612b58576040517f08c379a0000000000000000000000000000000000000000000000000000000008152600401612b4f90615edc565b60405180910390fd5b816010600050819090905550600460009054906101000a900473ffffffffffffffffffffffffffffffffffffffff1673ffffffffffffffffffffffffffffffffffffffff1663449a52f885856040518363ffffffff1660e01b8152600401612bc1929190615a96565b600060405180830381600087803b158015612bdc5760006000fd5b505af1158015612bf1573d600060003e3d6000fd5b5050505050505b600160006000508190909055505b5050565b6000612c1b82614c2663ffffffff16565b9050612c22565b919050565b600460009054906101000a900473ffffffffffffffffffffffffffffffffffffffff1681565b6000600a600050805490508261ffff16101515612c9f576040517f08c379a0000000000000000000000000000000000000000000000000000000008152600401612c9690615f99565b60405180910390fd5b600a6000508261ffff16815481101515612cb557fe5b906000526020600020900160005b9054906101000a900473ffffffffffffffffffffffffffffffffffffffff169050612ce9565b919050565b6000600260006000505414151515612d71576040517f08c379a000000000000000000000000000000000000000000000000000000000815260040180806020018281038252601f8152602001807f5265656e7472616e637947756172643a207265656e7472616e742063616c6c0081526020015060200191505060405180910390fd5b60026000600050819090905550600a600050805490508561ffff16101515612dce576040517f08c379a0000000000000000000000000000000000000000000000000000000008152600401612dc590615d23565b60405180910390fd5b600084111515612e13576040517f08c379a0000000000000000000000000000000000000000000000000000000008152600401612e0a90615de0565b60405180910390fd5b612e228361462663ffffffff16565b612e30613bfe63ffffffff16565b6000612e418661272f63ffffffff16565b9050612e89612e59868660ff1661436263ffffffff16565b600960005060008961ffff1661ffff168152602001908152602001600020600050546146c690919063ffffffff16565b600960005060008861ffff1661ffff168152602001908152602001600020600050819090905550600560009054906101000a900473ffffffffffffffffffffffffffffffffffffffff1673ffffffffffffffffffffffffffffffffffffffff1663755edd17846040518263ffffffff1660e01b8152600401612f0b91906159fb565b602060405180830381600087803b158015612f265760006000fd5b505af1158015612f3b573d600060003e3d6000fd5b505050506040513d601f19601f82011682018060405250810190612f5f91906158e5565b915081506000612f73613ec363ffffffff16565b9050613014836040518060e0016040528089815260200185602001518152602001856000015181526020018467ffffffffffffffff168152602001612fdc612fc38a60ff1661474f63ffffffff16565b8667ffffffffffffffff1661479290919063ffffffff16565b67ffffffffffffffff1681526020018860ff1667ffffffffffffffff1681526020018a61ffff1681526020015061482f63ffffffff16565b613068600a6000508861ffff1681548110151561302d57fe5b906000526020600020900160005b9054906101000a900473ffffffffffffffffffffffffffffffffffffffff16333089614cab63ffffffff16565b8460ff168473ffffffffffffffffffffffffffffffffffffffff168861ffff167ffd5af8482cd27088275e2c1370259ff534cf1c987cf2105e24da196377e5c98d896040516130b7919061612a565b60405180910390a482925050506130cb5650505b600160006000508190909055505b949350505050565b600560009054906101000a900473ffffffffffffffffffffffffffffffffffffffff1681565b613166600360009054906101000a900473ffffffffffffffffffffffffffffffffffffffff1673ffffffffffffffffffffffffffffffffffffffff163373ffffffffffffffffffffffffffffffffffffffff1614613f3c63ffffffff16565b60008473ffffffffffffffffffffffffffffffffffffffff16637e90f9ab6040518163ffffffff1660e01b815260040160206040518083038186803b1580156131af5760006000fd5b505afa1580156131c4573d600060003e3d6000fd5b505050506040513d601f19601f820116820180604052508101906131e891906154dd565b9050600660005060008673ffffffffffffffffffffffffffffffffffffffff1673ffffffffffffffffffffffffffffffffffffffff1681526020019081526020016000206000506000858152602001908152602001600020600050600001601f9054906101000a900460ff1615156135dc5760008173ffffffffffffffffffffffffffffffffffffffff166370a08231306040518263ffffffff1660e01b815260040161329591906159fb565b60206040518083038186803b1580156132ae5760006000fd5b505afa1580156132c3573d600060003e3d6000fd5b505050506040513d601f19601f820116820180604052508101906132e79190615871565b90506000600167ffffffffffffffff811180156133045760006000fd5b506040519080825280602002602001820160405280156133335781602001602082028036833780820191505090505b5090508581600081518110151561334657fe5b60200260200101909081815260200150508673ffffffffffffffffffffffffffffffffffffffff1663062f1466826040518263ffffffff1660e01b81526004016133909190615b62565b600060405180830381600087803b1580156133ab5760006000fd5b505af11580156133c0573d600060003e3d6000fd5b505050506000613463838573ffffffffffffffffffffffffffffffffffffffff166370a08231306040518263ffffffff1660e01b815260040161340391906159fb565b60206040518083038186803b15801561341c5760006000fd5b505afa158015613431573d600060003e3d6000fd5b505050506040513d601f19601f820116820180604052508101906134559190615871565b61439190919063ffffffff16565b9050604051806040016040528061348183614ed6909063ffffffff16565b7affffffffffffffffffffffffffffffffffffffffffffffffffffff167effffffffffffffffffffffffffffffffffffffffffffffffffffffffffffff16815260200160011515815260200150600660005060008a73ffffffffffffffffffffffffffffffffffffffff1673ffffffffffffffffffffffffffffffffffffffff168152602001908152602001600020600050600089815260200190815260200160002060005060008201518160000160006101000a8154817effffffffffffffffffffffffffffffffffffffffffffffffffffffffffffff02191690837effffffffffffffffffffffffffffffffffffffffffffffffffffffffffffff160217905550602082015181600001601f6101000a81548160ff0219169083151502179055509050506135d8847f00000000000000000000000000000000000000000000000000000000000000008361441a63ffffffff16565b5050505b7f000000000000000000000000000000000000000000000000000000000000000073ffffffffffffffffffffffffffffffffffffffff1663d1660f9982856136d586600660005060008c73ffffffffffffffffffffffffffffffffffffffff1673ffffffffffffffffffffffffffffffffffffffff16815260200190815260200160002060005060008b815260200190815260200160002060005060000160009054906101000a90047effffffffffffffffffffffffffffffffffffffffffffffffffffffffffffff167effffffffffffffffffffffffffffffffffffffffffffffffffffffffffffff16614f7b90919063ffffffff16565b6040518463ffffffff1660e01b81526004016136f393929190615a5c565b600060405180830381600087803b15801561370e5760006000fd5b505af1158015613723573d600060003e3d6000fd5b50505050505b50505050565b61378e600e60009054906101000a900473ffffffffffffffffffffffffffffffffffffffff1673ffffffffffffffffffffffffffffffffffffffff163373ffffffffffffffffffffffffffffffffffffffff1614613f3c63ffffffff16565b600e60006101000a81549073ffffffffffffffffffffffffffffffffffffffff02191690556137c1613bfe63ffffffff16565b6137cf613ec363ffffffff16565b600e60146101000a81548167ffffffffffffffff021916908367ffffffffffffffff1602179055507fe0c110dd4938fc8e228e75a489735745046395ad536dd80c35559debe653714760405160405180910390a15b565b600160009054906101000a900473ffffffffffffffffffffffffffffffffffffffff1681565b7f000000000000000000000000000000000000000000000000000000000000000081565b7f000000000000000000000000000000000000000000000000000000000000000081565b600260009054906101000a900473ffffffffffffffffffffffffffffffffffffffff1681565b6138f73073ffffffffffffffffffffffffffffffffffffffff163373ffffffffffffffffffffffffffffffffffffffff1614613f3c63ffffffff16565b61ffff61ffff16600a600050805490501015156139145760006000fd5b600a60005081908060018154018082558091505060019003906000526020600020900160005b9091909190916101000a81548173ffffffffffffffffffffffffffffffffffffffff021916908373ffffffffffffffffffffffffffffffffffffffff1602179055508073ffffffffffffffffffffffffffffffffffffffff167f784c8f4dbf0ffedd6e72c76501c545a70f8b203b30a26ce542bf92ba87c248a460405160405180910390a25b5b50565b600d60009054906101000a900473ffffffffffffffffffffffffffffffffffffffff1681565b600760009054906101000a900467ffffffffffffffff1681565b6000613a16838361436263ffffffff16565b9050613a1d565b92915050565b600060006000600360009054906101000a900473ffffffffffffffffffffffffffffffffffffffff1673ffffffffffffffffffffffffffffffffffffffff166383b0ce15856040518263ffffffff1660e01b8152600401613a84919061612a565b60606040518083038186803b158015613a9d5760006000fd5b505afa158015613ab2573d600060003e3d6000fd5b505050506040513d601f19601f82011682018060405250810190613ad6919061562c565b9250925092508273ffffffffffffffffffffffffffffffffffffffff166315373e3d83836040518363ffffffff1660e01b8152600401613b1792919061613c565b600060405180830381600087803b158015613b325760006000fd5b505af1158015613b47573d600060003e3d6000fd5b505050505050505b50565b600f60009054906101000a900467ffffffffffffffff1681565b60006801000000000000000082101515613bf1576040517f08c379a00000000000000000000000000000000000000000000000000000000081526004018080602001828103825260118152602001807f6d6f7265207468616e203634206269747300000000000000000000000000000081526020015060200191505060405180910390fd5b819050613bf9565b919050565b6000613c0e613ec363ffffffff16565b9050600760009054906101000a900467ffffffffffffffff1667ffffffffffffffff168167ffffffffffffffff16111515613c495750613ec1565b6000600760009054906101000a900467ffffffffffffffff16820390506000600a600050805490509050600081613ca08467ffffffffffffffff16613c926118e963ffffffff16565b614b8890919063ffffffff16565b811515613ca957fe5b049050613cb46153b5565b6000600090505b838161ffff161015613e4f57613cd68161272f63ffffffff16565b915081506040518060400160405280613d49613d3c613d298967ffffffffffffffff16600960005060008861ffff1661ffff16815260200190815260200160002060005054614b8890919063ffffffff16565b86600001516146c690919063ffffffff16565b614fa1909063ffffffff16565b6fffffffffffffffffffffffffffffffff168152602001613d87613d7a8686602001516146c690919063ffffffff16565b614fa1909063ffffffff16565b6fffffffffffffffffffffffffffffffff16815260200150600860005060008361ffff1661ffff16815260200190815260200160002060005060008201518160000160006101000a8154816fffffffffffffffffffffffffffffffff02191690836fffffffffffffffffffffffffffffffff16021790555060208201518160000160106101000a8154816fffffffffffffffffffffffffffffffff02191690836fffffffffffffffffffffffffffffffff1602179055509050505b8080600101915050613cbb565b5084600760006101000a81548167ffffffffffffffff021916908367ffffffffffffffff1602179055508467ffffffffffffffff167f5df8d820031efa286b254435a169e0eda922fa20c466be6471c6deaa51dc116585604051613eb39190616173565b60405180910390a250505050505b565b60007f00000000000000000000000000000000000000000000000000000000000000007f000000000000000000000000000000000000000000000000000000000000000067ffffffffffffffff16613f1f61503b63ffffffff16565b67ffffffffffffffff16811515613f3257fe5b0403905080505b90565b801515613f7e576040517f08c379a0000000000000000000000000000000000000000000000000000000008152600401613f7590615da1565b60405180910390fd5b5b50565b6001600c6000506000837bffffffffffffffffffffffffffffffffffffffffffffffffffffffff19167bffffffffffffffffffffffffffffffffffffffffffffffffffffffff1916815260200190815260200160002060006101000a81548160ff0219169083151502179055505b50565b60006000823b90506000811191505061400856505b919050565b6000620100008210151561408c576040517f08c379a00000000000000000000000000000000000000000000000000000000081526004018080602001828103825260118152602001807f6d6f7265207468616e203136206269747300000000000000000000000000000081526020015060200191505060405180910390fd5b819050614094565b919050565b6140a1615353565b6140b08261160d63ffffffff16565b905080506140c2613bfe63ffffffff16565b600760009054906101000a900467ffffffffffffffff1667ffffffffffffffff16816060015167ffffffffffffffff161015156141015780905061435d565b60006141168260c0015161272f63ffffffff16565b905060008260600151600760009054906101000a900467ffffffffffffffff160367ffffffffffffffff1661415c8460400151846000015161439190919063ffffffff16565b81151561416557fe5b04905060006141b06141888560200151856020015161439190919063ffffffff16565b836141a187600001518860a0015161436263ffffffff16565b6150569092919063ffffffff16565b905060008111156142f957600460009054906101000a900473ffffffffffffffffffffffffffffffffffffffff1673ffffffffffffffffffffffffffffffffffffffff1663449a52f8600560009054906101000a900473ffffffffffffffffffffffffffffffffffffffff1673ffffffffffffffffffffffffffffffffffffffff16636352211e886040518263ffffffff1660e01b81526004016142549190616157565b60206040518083038186803b15801561426d5760006000fd5b505afa158015614282573d600060003e3d6000fd5b505050506040513d601f19601f820116820180604052508101906142a691906154dd565b836040518363ffffffff1660e01b81526004016142c4929190615a96565b600060405180830381600087803b1580156142df5760006000fd5b505af11580156142f4573d600060003e3d6000fd5b505050505b826020015184602001909081815260200150508260000151846040019090818152602001505061432d613ec363ffffffff16565b846060019067ffffffffffffffff16908167ffffffffffffffff168152602001505083935050505061435d565050505b919050565b60006143848267ffffffffffffffff16600c856150569092919063ffffffff16565b905061438b565b92915050565b60008282840391508111151515614413576040517f08c379a000000000000000000000000000000000000000000000000000000000815260040180806020018281038252600d8152602001807f7375622d756e646572666c6f770000000000000000000000000000000000000081526020015060200191505060405180910390fd5b5b92915050565b600060008473ffffffffffffffffffffffffffffffffffffffff1663a9059cbb60e01b8585604051602401808373ffffffffffffffffffffffffffffffffffffffff16815260200182815260200192505050604051602081830303815290604052907bffffffffffffffffffffffffffffffffffffffffffffffffffffffff19166020820180517bffffffffffffffffffffffffffffffffffffffffffffffffffffffff83818316178352505050506040518082805190602001908083835b6020831015156144ff57805182525b6020820191506020810190506020830392506144d9565b6001836020036101000a0380198251168184511680821785525050505050509050019150506000604051808303816000865af19150503d8060008114614561576040519150601f19603f3d011682016040523d82523d6000602084013e614566565b606091505b50915091508180156145a757506000815114806145a657508080602001905160208110156145945760006000fd5b81019080805190602001909291905050505b5b151561461e576040517f08c379a00000000000000000000000000000000000000000000000000000000081526004018080602001828103825260028152602001807f535400000000000000000000000000000000000000000000000000000000000081526020015060200191505060405180910390fd5b50505b505050565b8060ff16600667ffffffffffffffff16111580156146525750603067ffffffffffffffff168160ff1611155b801561468157506000600367ffffffffffffffff168260ff1681151561467457fe5b0667ffffffffffffffff16145b15156146c2576040517f08c379a00000000000000000000000000000000000000000000000000000000081526004016146b990615ce4565b60405180910390fd5b5b50565b60008282840191508110151515614748576040517f08c379a000000000000000000000000000000000000000000000000000000000815260040180806020018281038252600c8152602001807f6164642d6f766572666c6f77000000000000000000000000000000000000000081526020015060200191505060405180910390fd5b5b92915050565b6000600c61477261016d8467ffffffffffffffff1661515790919063ffffffff16565b67ffffffffffffffff1681151561478557fe5b04905061478d565b919050565b60008267ffffffffffffffff1682840191508167ffffffffffffffff1610151515614828576040517f08c379a000000000000000000000000000000000000000000000000000000000815260040180806020018281038252600c8152602001807f6164642d6f766572666c6f77000000000000000000000000000000000000000081526020015060200191505060405180910390fd5b5b92915050565b6040518060e0016040528061484f8360000151614fa1909063ffffffff16565b6fffffffffffffffffffffffffffffffff16815260200161487b8360200151614fa1909063ffffffff16565b6fffffffffffffffffffffffffffffffff1681526020016148a78360400151615227909063ffffffff16565b76ffffffffffffffffffffffffffffffffffffffffffffff1681526020016148e4836060015167ffffffffffffffff1661400d909063ffffffff16565b61ffff16815260200161490c836080015167ffffffffffffffff1661400d909063ffffffff16565b61ffff1681526020018260c0015161ffff1681526020016149428360a0015167ffffffffffffffff166152c8909063ffffffff16565b60ff16815260200150600b60005060008467ffffffffffffffff1667ffffffffffffffff16815260200190815260200160002060005060008201518160000160006101000a8154816fffffffffffffffffffffffffffffffff02191690836fffffffffffffffffffffffffffffffff16021790555060208201518160000160106101000a8154816fffffffffffffffffffffffffffffffff02191690836fffffffffffffffffffffffffffffffff16021790555060408201518160010160006101000a81548176ffffffffffffffffffffffffffffffffffffffffffffff021916908376ffffffffffffffffffffffffffffffffffffffffffffff16021790555060608201518160010160176101000a81548161ffff021916908361ffff16021790555060808201518160010160196101000a81548161ffff021916908361ffff16021790555060a082015181600101601b6101000a81548161ffff021916908361ffff16021790555060c082015181600101601d6101000a81548160ff021916908360ff1602179055509050505b5050565b600081805190602001209050614ae6565b919050565b60008267ffffffffffffffff1682840391508167ffffffffffffffff1611151515614b81576040517f08c379a000000000000000000000000000000000000000000000000000000000815260040180806020018281038252600d8152602001807f7375622d756e646572666c6f770000000000000000000000000000000000000081526020015060200191505060405180910390fd5b5b92915050565b60006000821480614ba857508282838502925082811515614ba557fe5b04145b1515614c1f576040517f08c379a000000000000000000000000000000000000000000000000000000000815260040180806020018281038252600c8152602001807f6d756c2d6f766572666c6f77000000000000000000000000000000000000000081526020015060200191505060405180910390fd5b5b92915050565b6000614ca1614c68837f000000000000000000000000000000000000000000000000000000000000000067ffffffffffffffff1661479290919063ffffffff16565b7f000000000000000000000000000000000000000000000000000000000000000067ffffffffffffffff1661515790919063ffffffff16565b905080505b919050565b600060008573ffffffffffffffffffffffffffffffffffffffff166323b872dd60e01b868686604051602401808473ffffffffffffffffffffffffffffffffffffffff1681526020018373ffffffffffffffffffffffffffffffffffffffff1681526020018281526020019350505050604051602081830303815290604052907bffffffffffffffffffffffffffffffffffffffffffffffffffffffff19166020820180517bffffffffffffffffffffffffffffffffffffffffffffffffffffffff83818316178352505050506040518082805190602001908083835b602083101515614dae57805182525b602082019150602081019050602083039250614d88565b6001836020036101000a0380198251168184511680821785525050505050509050019150506000604051808303816000865af19150503d8060008114614e10576040519150601f19603f3d011682016040523d82523d6000602084013e614e15565b606091505b5091509150818015614e565750600081511480614e555750808060200190516020811015614e435760006000fd5b81019080805190602001909291905050505b5b1515614ecd576040517f08c379a00000000000000000000000000000000000000000000000000000000081526004018080602001828103825260038152602001807f535446000000000000000000000000000000000000000000000000000000000081526020015060200191505060405180910390fd5b50505b50505050565b60007b0100000000000000000000000000000000000000000000000000000082101515614f6e576040517f08c379a00000000000000000000000000000000000000000000000000000000081526004018080602001828103825260128152602001807f6d6f7265207468616e203231362062697473000000000000000000000000000081526020015060200191505060405180910390fd5b819050614f76565b919050565b6000614f968383670de0b6b3a764000061505663ffffffff16565b905080505b92915050565b60007001000000000000000000000000000000008210151561502e576040517f08c379a00000000000000000000000000000000000000000000000000000000081526004018080602001828103825260128152602001807f6d6f7265207468616e203132382062697473000000000000000000000000000081526020015060200191505060405180910390fd5b819050615036565b919050565b600061504e42613b6c909063ffffffff16565b905080505b90565b60006000600060001985870985870292508281108382030391505060008114156150995760008411151561508a5760006000fd5b83820492508292505050615150565b80841115156150a85760006000fd5b60008486880990508281118203915080830392506000858660000316905080860495508084049350600181826000030401905080830284179350835060006002876003021890508087026002038102905080508087026002038102905080508087026002038102905080508087026002038102905080508087026002038102905080508087026002038102905080508085029550855085955050505050506151505650505050505b9392505050565b600060008267ffffffffffffffff1614806151a957508267ffffffffffffffff168267ffffffffffffffff1683850292508267ffffffffffffffff1681151561519c57fe5b0467ffffffffffffffff16145b1515615220576040517f08c379a000000000000000000000000000000000000000000000000000000000815260040180806020018281038252600c8152602001807f6d756c2d6f766572666c6f77000000000000000000000000000000000000000081526020015060200191505060405180910390fd5b5b92915050565b600077010000000000000000000000000000000000000000000000821015156152bb576040517f08c379a00000000000000000000000000000000000000000000000000000000081526004018080602001828103825260128152602001807f6d6f7265207468616e203138342062697473000000000000000000000000000081526020015060200191505060405180910390fd5b8190506152c3565b919050565b600061010082101515615346576040517f08c379a00000000000000000000000000000000000000000000000000000000081526004018080602001828103825260108152602001807f6d6f7265207468616e203820626974730000000000000000000000000000000081526020015060200191505060405180910390fd5b81905061534e565b919050565b6040518060e00160405280600081526020016000815260200160008152602001600067ffffffffffffffff168152602001600067ffffffffffffffff168152602001600067ffffffffffffffff168152602001600061ffff1681526020015090565b6040518060400160405280600081526020016000815260200150905661620a565b600067ffffffffffffffff808411156153eb57fe5b60405160207fffffffffffffffffffffffffffffffffffffffffffffffffffffffffffffffe0601f870116820101818110838211171561542757fe5b80604052508092508481528585850111156154425760006000fd5b8484602083013760006020868301015250505b9392505050565b600081519050801515811415156154735760006000fd5b5b919050565b60008135905061ffff8116811415156154925760006000fd5b5b919050565b60008135905060ff8116811415156154b05760006000fd5b5b919050565b6000602082840312156154c7578081fd5b81356154d2816161c4565b809150505b92915050565b6000602082840312156154ee578081fd5b81516154f9816161c4565b809150505b92915050565b60006000600060608486031215615519578182fd5b8335615524816161c4565b80935050602084013567ffffffffffffffff80821115615542578384fd5b818601915086601f8301121515615557578384fd5b615566878335602085016153d6565b9350604086013591508082111561557b578283fd5b50808501905085601f8201121515615591578182fd5b6155a0868235602084016153d6565b9150505b9250925092565b60006000604083850312156155be578182fd5b82356155c9816161c4565b80925050602083013590505b9250929050565b6000600060006000608085870312156155f3578081fd5b84356155fe816161c4565b80945050602085013592506040850135615617816161c4565b80925050606085013590505b92959194509250565b60006000600060608486031215615641578283fd5b835161564c816161c4565b80935050602084015191506156636040850161545c565b90505b9250925092565b6000600060208385031215615680578182fd5b823567ffffffffffffffff80821115615697578384fd5b818501915085601f83011215156156ac578384fd5b8135818111156156ba578485fd5b8660206020830285010111156156ce578485fd5b6020830194508093505050505b9250929050565b6000602082840312156156f3578081fd5b6156fc8261545c565b90505b92915050565b600060208284031215615716578081fd5b81357fffffffff00000000000000000000000000000000000000000000000000000000811681141515615747578182fd5b809150505b92915050565b600060208284031215615763578081fd5b813561576e816161c4565b809150505b92915050565b600060006000600060808587031215615790578182fd5b843561579b816161c4565b8094505060208501356157ad816161c4565b8093505060408501356157bf816161c4565b8092505060608501356157d1816161c4565b809150505b92959194509250565b6000602082840312156157f0578081fd5b6157f982615479565b90505b92915050565b600060006000600060808587031215615819578182fd5b61582285615479565b93506020850135925061583760408601615498565b91506060850135615847816161c4565b809150505b92959194509250565b600060208284031215615866578081fd5b813590505b92915050565b600060208284031215615882578081fd5b815190505b92915050565b60006000604083850312156158a0578182fd5b8235915060208301356158b2816161ed565b809150505b9250929050565b6000602082840312156158cf578081fd5b81356158da816161ed565b809150505b92915050565b6000602082840312156158f6578081fd5b8151615901816161ed565b809150505b92915050565b600060006040838503121561591f578182fd5b823561592a816161ed565b8092505061593a60208401615498565b90505b9250929050565b6000815180845261595c81602086016020860161618f565b60207fffffffffffffffffffffffffffffffffffffffffffffffffffffffffffffffe0601f8301168501019150505b92915050565b60007fffffffff000000000000000000000000000000000000000000000000000000008416825282516159cb81600485016020870161618f565b6004818401019150505b9392505050565b600082516159ee81846020870161618f565b8083019150505b92915050565b600060208201905073ffffffffffffffffffffffffffffffffffffffff831682525b92915050565b600060408201905073ffffffffffffffffffffffffffffffffffffffff8416825267ffffffffffffffff831660208301525b9392505050565b600060608201905073ffffffffffffffffffffffffffffffffffffffff80861683528085166020840152508260408301525b949350505050565b600060408201905073ffffffffffffffffffffffffffffffffffffffff841682528260208301525b9392505050565b600060408201905073ffffffffffffffffffffffffffffffffffffffff8416825267ffffffffffffffff831660208301525b9392505050565b600060208083018184528085518083526040860191508387019250845b81811015615b535773ffffffffffffffffffffffffffffffffffffffff8451168352848301925084840193505b600181019050615b1b565b50508093505050505b92915050565b600060208083018184528085518083526040860191508387019250845b81811015615ba15783518352848301925084840193505b600181019050615b7f565b50508093505050505b92915050565b600060208201905082151582525b92915050565b6000831515825260406020830152615bdf6040830184615944565b90505b9392505050565b600060208201905073ffffffffffffffffffffffffffffffffffffffff831682525b92915050565b600060208201905073ffffffffffffffffffffffffffffffffffffffff831682525b92915050565b600060208201905073ffffffffffffffffffffffffffffffffffffffff831682525b92915050565b600060208201905073ffffffffffffffffffffffffffffffffffffffff831682525b92915050565b600060208252615c9c6020830184615944565b90505b92915050565b600060208252601060208301527f496e76616c696420706f736974696f6e0000000000000000000000000000000060408301526060820190505b919050565b600060208252601560208301527f496e76616c6964206c6f636b206475726174696f6e000000000000000000000060408301526060820190505b919050565b600060208252601160208301527f556e737570706f7274656420746f6b656e00000000000000000000000000000060408301526060820190505b919050565b600060208252601b60208301527f4d75737420696e637265617365206c6f636b206475726174696f6e000000000060408301526060820190505b919050565b600060208252600e60208301527f4e6f7420417574686f72697a656400000000000000000000000000000000000060408301526060820190505b919050565b600060208252600460208301527f4e6f6f700000000000000000000000000000000000000000000000000000000060408301526060820190505b919050565b600060208252601260208301527f416374696f6e20626c61636b6c6973746564000000000000000000000000000060408301526060820190505b919050565b600060208252600c60208301527f5374696c6c206c6f636b6564000000000000000000000000000000000000000060408301526060820190505b919050565b600060208252600c60208301527f506f736974696f6e20444e45000000000000000000000000000000000000000060408301526060820190505b919050565b600060208252601260208301527f416c6c6f746d656e74206578636565646564000000000000000000000000000060408301526060820190505b919050565b600060208252600e60208301527f4e6f74206120636f6e747261637400000000000000000000000000000000000060408301526060820190505b919050565b600060208252601460208301527f436f6e747261637420616c72656164792073657400000000000000000000000060408301526060820190505b919050565b600060208252601060208301527f496e76616c696420746f6b656e2049440000000000000000000000000000000060408301526060820190505b919050565b600060208252601560208301527f5444616f3a20546f6b656e206e6f7420666f756e64000000000000000000000060408301526060820190505b919050565b600060208252601660208301527f4d6f7265207468616e203225206f6620737570706c790000000000000000000060408301526060820190505b919050565b600060e082019050825182526020830151602083015260408301516040830152606083015167ffffffffffffffff80821660608501528060808601511660808501528060a08601511660a0850152505061ffff60c08401511660c08301525b92915050565b600060408201905082518252602083015160208301525b92915050565b600060208201905061ffff831682525b92915050565b60006040820190507effffffffffffffffffffffffffffffffffffffffffffffffffffffffffffff8416825282151560208301525b9392505050565b60006020820190508282525b92915050565b600060408201905083825282151560208301525b9392505050565b600060208201905067ffffffffffffffff831682525b92915050565b600060208201905067ffffffffffffffff831682525b92915050565b60005b838110156161ae5780820151818401525b602081019050616192565b838111156161bd576000848401525b505b505050565b73ffffffffffffffffffffffffffffffffffffffff8116811415156161e95760006000fd5b5b50565b67ffffffffffffffff8116811415156162065760006000fd5b5b50565bfea26469706673582212207aeb91e144a10eedc8889b9508659402062311601207e93dfb2c0db872070d3f64736f6c6343000706003360a06040523480156100115760006000fd5b505b3373ffffffffffffffffffffffffffffffffffffffff1660808173ffffffffffffffffffffffffffffffffffffffff1660601b815260140150505b610053565b60805160601c6104356100746000398060e652806101d152506104356000f3fe60806040523480156100115760006000fd5b506004361061003b5760003560e01c8063d1660f9914610041578063de9375f2146100b05761003b565b60006000fd5b6100ae600480360360608110156100585760006000fd5b81019080803573ffffffffffffffffffffffffffffffffffffffff169060200190929190803573ffffffffffffffffffffffffffffffffffffffff169060200190929190803590602001909291905050506100e4565b005b6100b86101cf565b604051808273ffffffffffffffffffffffffffffffffffffffff16815260200191505060405180910390f35b7f000000000000000000000000000000000000000000000000000000000000000073ffffffffffffffffffffffffffffffffffffffff163373ffffffffffffffffffffffffffffffffffffffff161415156101aa576040517f08c379a000000000000000000000000000000000000000000000000000000000815260040180806020018281038252600e8152602001807f4e6f7420417574686f72697a656400000000000000000000000000000000000081526020015060200191505060405180910390fd5b60008114156101b8576101ca565b6101c98383836101f363ffffffff16565b5b505050565b7f000000000000000000000000000000000000000000000000000000000000000081565b600060008473ffffffffffffffffffffffffffffffffffffffff1663a9059cbb60e01b8585604051602401808373ffffffffffffffffffffffffffffffffffffffff16815260200182815260200192505050604051602081830303815290604052907bffffffffffffffffffffffffffffffffffffffffffffffffffffffff19166020820180517bffffffffffffffffffffffffffffffffffffffffffffffffffffffff83818316178352505050506040518082805190602001908083835b6020831015156102d857805182525b6020820191506020810190506020830392506102b2565b6001836020036101000a0380198251168184511680821785525050505050509050019150506000604051808303816000865af19150503d806000811461033a576040519150601f19603f3d011682016040523d82523d6000602084013e61033f565b606091505b5091509150818015610380575060008151148061037f575080806020019051602081101561036d5760006000fd5b81019080805190602001909291905050505b5b15156103f7576040517f08c379a00000000000000000000000000000000000000000000000000000000081526004018080602001828103825260028152602001807f535400000000000000000000000000000000000000000000000000000000000081526020015060200191505060405180910390fd5b50505b50505056fea2646970667358221220a09fa674e24bee1d9e1df7bc0570046e4c432e836610f7a105a97cba2ac2d0cf64736f6c63430007060033",
  "linkReferences": {},
  "deployedLinkReferences": {}
}