{
  "_format": "hh-sol-artifact-1",
  "contractName": "TDaoTestable",
  "sourceName": "contracts/mocks/TDaoTestable.sol",
  "abi": [
    {
      "inputs": [
        {
          "internalType": "address",
          "name": "_guardian",
          "type": "address"
        }
      ],
      "stateMutability": "nonpayable",
      "type": "constructor"
    },
    {
      "anonymous": false,
      "inputs": [
        {
          "indexed": true,
          "internalType": "address",
          "name": "token",
          "type": "address"
        },
        {
          "indexed": false,
          "internalType": "uint256",
          "name": "count",
          "type": "uint256"
        }
      ],
      "name": "IncentiveMinted",
      "type": "event"
    },
    {
      "anonymous": false,
      "inputs": [
        {
          "indexed": true,
          "internalType": "uint64",
          "name": "currentPeriod",
          "type": "uint64"
        },
        {
          "indexed": false,
          "internalType": "uint64",
          "name": "periods",
          "type": "uint64"
        }
      ],
      "name": "InflationAccrued",
      "type": "event"
    },
    {
      "anonymous": false,
      "inputs": [
        {
          "indexed": true,
          "internalType": "address",
          "name": "_contract",
          "type": "address"
        }
      ],
      "name": "LiquidationIncentiveContractSet",
      "type": "event"
    },
    {
      "anonymous": false,
      "inputs": [
        {
          "indexed": true,
          "internalType": "uint64",
          "name": "positionNFTTokenID",
          "type": "uint64"
        },
        {
          "indexed": true,
          "internalType": "uint16",
          "name": "lockDurationMonths",
          "type": "uint16"
        }
      ],
      "name": "LockDurationIncrease",
      "type": "event"
    },
    {
      "anonymous": false,
      "inputs": [
        {
          "indexed": true,
          "internalType": "uint64",
          "name": "positionNFTTokenID",
          "type": "uint64"
        },
        {
          "indexed": true,
          "internalType": "address",
          "name": "owner",
          "type": "address"
        }
      ],
      "name": "RewardsClaimed",
      "type": "event"
    },
    {
      "anonymous": false,
      "inputs": [],
      "name": "TDaoStarted",
      "type": "event"
    },
    {
      "anonymous": false,
      "inputs": [
        {
          "indexed": true,
          "internalType": "address",
          "name": "token",
          "type": "address"
        }
      ],
      "name": "TokenAdded",
      "type": "event"
    },
    {
      "anonymous": false,
      "inputs": [
        {
          "indexed": true,
          "internalType": "uint16",
          "name": "tokenID",
          "type": "uint16"
        },
        {
          "indexed": true,
          "internalType": "address",
          "name": "initialOwner",
          "type": "address"
        },
        {
          "indexed": true,
          "internalType": "uint8",
          "name": "lockDurationMonths",
          "type": "uint8"
        },
        {
          "indexed": false,
          "internalType": "uint256",
          "name": "count",
          "type": "uint256"
        }
      ],
      "name": "TokensLocked",
      "type": "event"
    },
    {
      "anonymous": false,
      "inputs": [
        {
          "indexed": true,
          "internalType": "uint16",
          "name": "tokenID",
          "type": "uint16"
        },
        {
          "indexed": true,
          "internalType": "address",
          "name": "owner",
          "type": "address"
        },
        {
          "indexed": false,
          "internalType": "uint256",
          "name": "count",
          "type": "uint256"
        }
      ],
      "name": "TokensUnlocked",
      "type": "event"
    },
    {
      "inputs": [],
      "name": "accrueInflation",
      "outputs": [],
      "stateMutability": "nonpayable",
      "type": "function"
    },
    {
      "inputs": [
        {
          "internalType": "contract IERC20",
          "name": "token",
          "type": "address"
        }
      ],
      "name": "addToken",
      "outputs": [],
      "stateMutability": "nonpayable",
      "type": "function"
    },
    {
      "inputs": [
        {
          "internalType": "bytes4",
          "name": "",
          "type": "bytes4"
        }
      ],
      "name": "blacklistedAction",
      "outputs": [
        {
          "internalType": "bool",
          "name": "",
          "type": "bool"
        }
      ],
      "stateMutability": "view",
      "type": "function"
    },
    {
      "inputs": [
        {
          "internalType": "uint64",
          "name": "months",
          "type": "uint64"
        }
      ],
      "name": "calculateMonthsToDays",
      "outputs": [
        {
          "internalType": "uint256",
          "name": "",
          "type": "uint256"
        }
      ],
      "stateMutability": "pure",
      "type": "function"
    },
    {
      "inputs": [
        {
          "internalType": "uint256",
          "name": "count",
          "type": "uint256"
        },
        {
          "internalType": "uint64",
          "name": "durationMonths",
          "type": "uint64"
        }
      ],
      "name": "calculateVirtualCount",
      "outputs": [
        {
          "internalType": "uint256",
          "name": "",
          "type": "uint256"
        }
      ],
      "stateMutability": "pure",
      "type": "function"
    },
    {
      "inputs": [],
      "name": "countUnderlyingProtocolTokens",
      "outputs": [
        {
          "internalType": "uint16",
          "name": "",
          "type": "uint16"
        }
      ],
      "stateMutability": "view",
      "type": "function"
    },
    {
      "inputs": [],
      "name": "currentPeriod",
      "outputs": [
        {
          "internalType": "uint64",
          "name": "period",
          "type": "uint64"
        }
      ],
      "stateMutability": "view",
      "type": "function"
    },
    {
      "inputs": [],
      "name": "dailyProtocolTDaoIncentiveCount",
      "outputs": [
        {
          "internalType": "uint256",
          "name": "",
          "type": "uint256"
        }
      ],
      "stateMutability": "view",
      "type": "function"
    },
    {
      "inputs": [],
      "name": "deployer",
      "outputs": [
        {
          "internalType": "address",
          "name": "",
          "type": "address"
        }
      ],
      "stateMutability": "view",
      "type": "function"
    },
    {
      "inputs": [
        {
          "internalType": "address",
          "name": "target",
          "type": "address"
        },
        {
          "internalType": "string",
          "name": "signature",
          "type": "string"
        },
        {
          "internalType": "bytes",
          "name": "data",
          "type": "bytes"
        }
      ],
      "name": "execute",
      "outputs": [
        {
          "internalType": "bool",
          "name": "success",
          "type": "bool"
        },
        {
          "internalType": "bytes",
          "name": "returnData",
          "type": "bytes"
        }
      ],
      "stateMutability": "nonpayable",
      "type": "function"
    },
    {
      "inputs": [
        {
          "internalType": "uint256",
          "name": "metaProposalID",
          "type": "uint256"
        }
      ],
      "name": "executeMetaProposalVote",
      "outputs": [],
      "stateMutability": "nonpayable",
      "type": "function"
    },
    {
      "inputs": [],
      "name": "firstPeriod",
      "outputs": [
        {
          "internalType": "uint64",
          "name": "",
          "type": "uint64"
        }
      ],
      "stateMutability": "view",
      "type": "function"
    },
    {
      "inputs": [
        {
          "internalType": "uint64",
          "name": "positionNFTTokenID",
          "type": "uint64"
        }
      ],
      "name": "getPosition",
      "outputs": [
        {
          "components": [
            {
              "internalType": "uint256",
              "name": "count",
              "type": "uint256"
            },
            {
              "internalType": "uint256",
              "name": "startTotalRewards",
              "type": "uint256"
            },
            {
              "internalType": "uint256",
              "name": "startCumulativeVirtualCount",
              "type": "uint256"
            },
            {
              "internalType": "uint64",
              "name": "lastPeriodUpdated",
              "type": "uint64"
            },
            {
              "internalType": "uint64",
              "name": "endPeriod",
              "type": "uint64"
            },
            {
              "internalType": "uint64",
              "name": "durationMonths",
              "type": "uint64"
            },
            {
              "internalType": "uint16",
              "name": "tokenID",
              "type": "uint16"
            }
          ],
          "internalType": "struct ITDao.TokenPosition",
          "name": "",
          "type": "tuple"
        }
      ],
      "stateMutability": "view",
      "type": "function"
    },
    {
      "inputs": [
        {
          "internalType": "uint64",
          "name": "positionNFTTokenID",
          "type": "uint64"
        }
      ],
      "name": "getRewards",
      "outputs": [],
      "stateMutability": "nonpayable",
      "type": "function"
    },
    {
      "inputs": [
        {
          "internalType": "uint16",
          "name": "_tokenID",
          "type": "uint16"
        }
      ],
      "name": "getRewardsStatus",
      "outputs": [
        {
          "components": [
            {
              "internalType": "uint256",
              "name": "cumulativeVirtualCount",
              "type": "uint256"
            },
            {
              "internalType": "uint256",
              "name": "totalRewards",
              "type": "uint256"
            }
          ],
          "internalType": "struct ITDao.TokenRewardsStatus",
          "name": "",
          "type": "tuple"
        }
      ],
      "stateMutability": "view",
      "type": "function"
    },
    {
      "inputs": [],
      "name": "guardian",
      "outputs": [
        {
          "internalType": "address",
          "name": "",
          "type": "address"
        }
      ],
      "stateMutability": "view",
      "type": "function"
    },
    {
      "inputs": [
        {
          "internalType": "uint16",
          "name": "",
          "type": "uint16"
        }
      ],
      "name": "idToToken",
      "outputs": [
        {
          "internalType": "contract IERC20",
          "name": "",
          "type": "address"
        }
      ],
      "stateMutability": "view",
      "type": "function"
    },
    {
      "inputs": [],
      "name": "incentiveContract",
      "outputs": [
        {
          "internalType": "address",
          "name": "",
          "type": "address"
        }
      ],
      "stateMutability": "view",
      "type": "function"
    },
    {
      "inputs": [
        {
          "internalType": "address",
          "name": "dest",
          "type": "address"
        },
        {
          "internalType": "uint256",
          "name": "count",
          "type": "uint256"
        }
      ],
      "name": "incentiveContractMint",
      "outputs": [],
      "stateMutability": "nonpayable",
      "type": "function"
    },
    {
      "inputs": [],
      "name": "incentivesStartPeriod",
      "outputs": [
        {
          "internalType": "uint64",
          "name": "",
          "type": "uint64"
        }
      ],
      "stateMutability": "view",
      "type": "function"
    },
    {
      "inputs": [
        {
          "internalType": "uint64",
          "name": "positionNFTTokenID",
          "type": "uint64"
        },
        {
          "internalType": "uint8",
          "name": "lockDurationMonths",
          "type": "uint8"
        }
      ],
      "name": "increaseLockDuration",
      "outputs": [],
      "stateMutability": "nonpayable",
      "type": "function"
    },
    {
      "inputs": [
        {
          "internalType": "contract IPositionNFT",
          "name": "_tDaoPositionNFT",
          "type": "address"
        },
        {
          "internalType": "contract IProtocolToken",
          "name": "_tDaoToken",
          "type": "address"
        },
        {
          "internalType": "address",
          "name": "_tDaoGovernorAlpha",
          "type": "address"
        },
        {
          "internalType": "address",
          "name": "_timelock",
          "type": "address"
        }
      ],
      "name": "init",
      "outputs": [],
      "stateMutability": "nonpayable",
      "type": "function"
    },
    {
      "inputs": [],
      "name": "lastPeriodGlobalInflationUpdated",
      "outputs": [
        {
          "internalType": "uint64",
          "name": "",
          "type": "uint64"
        }
      ],
      "stateMutability": "view",
      "type": "function"
    },
    {
      "inputs": [
        {
          "internalType": "contract IERC20",
          "name": "token",
          "type": "address"
        },
        {
          "internalType": "uint256",
          "name": "count",
          "type": "uint256"
        },
        {
          "internalType": "uint8",
          "name": "lockDurationMonths",
          "type": "uint8"
        },
        {
          "internalType": "address",
          "name": "to",
          "type": "address"
        }
      ],
      "name": "lockTokens",
      "outputs": [
        {
          "internalType": "uint64",
          "name": "positionNFTTokenID",
          "type": "uint64"
        }
      ],
      "stateMutability": "nonpayable",
      "type": "function"
    },
    {
      "inputs": [
        {
          "internalType": "address",
          "name": "dest",
          "type": "address"
        },
        {
          "internalType": "uint256",
          "name": "count",
          "type": "uint256"
        }
      ],
      "name": "mintIncentive",
      "outputs": [],
      "stateMutability": "nonpayable",
      "type": "function"
    },
    {
      "inputs": [
        {
          "internalType": "address",
          "name": "dest",
          "type": "address"
        },
        {
          "internalType": "uint256",
          "name": "count",
          "type": "uint256"
        }
      ],
      "name": "mintVotingRewards",
      "outputs": [],
      "stateMutability": "nonpayable",
      "type": "function"
    },
    {
      "inputs": [],
      "name": "periodLength",
      "outputs": [
        {
          "internalType": "uint64",
          "name": "",
          "type": "uint64"
        }
      ],
      "stateMutability": "view",
      "type": "function"
    },
    {
      "inputs": [
        {
          "internalType": "uint64",
          "name": "period",
          "type": "uint64"
        }
      ],
      "name": "periodToTime",
      "outputs": [
        {
          "internalType": "uint64",
          "name": "",
          "type": "uint64"
        }
      ],
      "stateMutability": "view",
      "type": "function"
    },
    {
      "inputs": [
        {
          "internalType": "uint64",
          "name": "positionNFTTokenID",
          "type": "uint64"
        }
      ],
      "name": "positionIsAbleToBeUnlocked",
      "outputs": [
        {
          "internalType": "bool",
          "name": "",
          "type": "bool"
        }
      ],
      "stateMutability": "view",
      "type": "function"
    },
    {
      "inputs": [
        {
          "internalType": "contract IERC20",
          "name": "token",
          "type": "address"
        }
      ],
      "name": "selfDelegate",
      "outputs": [],
      "stateMutability": "nonpayable",
      "type": "function"
    },
    {
      "inputs": [
        {
          "internalType": "address",
          "name": "governorAlpha",
          "type": "address"
        },
        {
          "internalType": "uint256",
          "name": "proposalID",
          "type": "uint256"
        },
        {
          "internalType": "address",
          "name": "voter",
          "type": "address"
        },
        {
          "internalType": "uint256",
          "name": "votePortion",
          "type": "uint256"
        }
      ],
      "name": "sendUnderlyingVotingRewards",
      "outputs": [],
      "stateMutability": "nonpayable",
      "type": "function"
    },
    {
      "inputs": [
        {
          "internalType": "contract IERC20",
          "name": "firstToken",
          "type": "address"
        }
      ],
      "name": "setFirstToken",
      "outputs": [],
      "stateMutability": "nonpayable",
      "type": "function"
    },
    {
      "inputs": [
        {
          "internalType": "address",
          "name": "_contract",
          "type": "address"
        }
      ],
      "name": "setIncentiveContract",
      "outputs": [],
      "stateMutability": "nonpayable",
      "type": "function"
    },
    {
      "inputs": [],
      "name": "start",
      "outputs": [],
      "stateMutability": "nonpayable",
      "type": "function"
    },
    {
      "inputs": [],
      "name": "startPeriod",
      "outputs": [
        {
          "internalType": "uint64",
          "name": "",
          "type": "uint64"
        }
      ],
      "stateMutability": "view",
      "type": "function"
    },
    {
      "inputs": [],
      "name": "tDaoGovernorAlpha",
      "outputs": [
        {
          "internalType": "address",
          "name": "",
          "type": "address"
        }
      ],
      "stateMutability": "view",
      "type": "function"
    },
    {
      "inputs": [],
      "name": "tDaoPositionNFT",
      "outputs": [
        {
          "internalType": "contract IPositionNFT",
          "name": "",
          "type": "address"
        }
      ],
      "stateMutability": "view",
      "type": "function"
    },
    {
      "inputs": [],
      "name": "tDaoToken",
      "outputs": [
        {
          "internalType": "contract IProtocolToken",
          "name": "",
          "type": "address"
        }
      ],
      "stateMutability": "view",
      "type": "function"
    },
    {
      "inputs": [],
      "name": "timelock",
      "outputs": [
        {
          "internalType": "address",
          "name": "",
          "type": "address"
        }
      ],
      "stateMutability": "view",
      "type": "function"
    },
    {
      "inputs": [
        {
          "internalType": "contract IERC20",
          "name": "",
          "type": "address"
        }
      ],
      "name": "tokenToID",
      "outputs": [
        {
          "internalType": "uint16",
          "name": "",
          "type": "uint16"
        }
      ],
      "stateMutability": "view",
      "type": "function"
    },
    {
      "inputs": [],
      "name": "totalIncentivesMinted",
      "outputs": [
        {
          "internalType": "uint256",
          "name": "",
          "type": "uint256"
        }
      ],
      "stateMutability": "view",
      "type": "function"
    },
    {
      "inputs": [
        {
          "internalType": "address",
          "name": "",
          "type": "address"
        },
        {
          "internalType": "uint256",
          "name": "",
          "type": "uint256"
        }
      ],
      "name": "underlyingTokenVoteRewardCount",
      "outputs": [
        {
          "internalType": "uint248",
          "name": "count",
          "type": "uint248"
        },
        {
          "internalType": "bool",
          "name": "isSet",
          "type": "bool"
        }
      ],
      "stateMutability": "view",
      "type": "function"
    },
    {
      "inputs": [
        {
          "internalType": "uint64",
          "name": "positionNFTTokenID",
          "type": "uint64"
        }
      ],
      "name": "unlockTokens",
      "outputs": [],
      "stateMutability": "nonpayable",
      "type": "function"
    },
    {
      "inputs": [
        {
          "internalType": "uint16",
          "name": "",
          "type": "uint16"
        }
      ],
      "name": "virtualCount",
      "outputs": [
        {
          "internalType": "uint256",
          "name": "",
          "type": "uint256"
        }
      ],
      "stateMutability": "view",
      "type": "function"
    },
    {
      "inputs": [],
      "name": "votingRewardsSafe",
      "outputs": [
        {
          "internalType": "contract TDaoVotingRewardsSafe",
          "name": "",
          "type": "address"
        }
      ],
      "stateMutability": "view",
      "type": "function"
    }
  ],
  "bytecode": "0x60e06040526001600760006101000a81548167ffffffffffffffff021916908367ffffffffffffffff1602179055503480156200003c5760006000fd5b5060405162006609380380620066098339818101604052810190620000629190620002ac565b5b805b5b620151805b60018167ffffffffffffffff1662000088620001e360201b60201c565b67ffffffffffffffff168115156200009c57fe5b040367ffffffffffffffff1660a08167ffffffffffffffff1660c01b815260080150508067ffffffffffffffff1660808167ffffffffffffffff1660c01b815260080150505b50600160006000508190909055505b80601060006101000a81548173ffffffffffffffffffffffffffffffffffffffff021916908373ffffffffffffffffffffffffffffffffffffffff160217905550604051620001409062000299565b604051809103906000f0801580156200015e573d600060003e3d6000fd5b5073ffffffffffffffffffffffffffffffffffffffff1660c08173ffffffffffffffffffffffffffffffffffffffff1660601b8152601401505033600f60006101000a81548173ffffffffffffffffffffffffffffffffffffffff021916908373ffffffffffffffffffffffffffffffffffffffff1602179055505b505b50620002e3565b6000620001fd426200020560201b620037bb17909060201c565b905080505b90565b600068010000000000000000821015156200028b576040517f08c379a00000000000000000000000000000000000000000000000000000000081526004018080602001828103825260118152602001807f6d6f7265207468616e203634206269747300000000000000000000000000000081526020015060200191505060405180910390fd5b81905062000294565b919050565b6104a980620061608339019056620002e2565b600060208284031215620002be578081fd5b81516001600160a01b03811681141515620002d7578182fd5b809150505b92915050565b5b60805160c01c60a05160c01c60c05160601c615e2962000337600039806128ed52806130e252806132545250806134c45280613b235280614a2c5250806134e85280613b445280614a655250615e296000f3fe60806040523480156100115760006000fd5b50600436106103045760003560e01c80637ad31c981161019d578063be9a6555116100ef578063d5f3948811610098578063f0f091c311610072578063f0f091c3146108a4578063fcb3fa90146108c0578063fd8067c3146108dc57610304565b8063d5f3948814610838578063d6c2875d14610856578063d7ed153b1461087457610304565b8063d2ca2115116100c9578063d2ca2115146107e0578063d33219b4146107fe578063d48bfca71461081c57610304565b8063be9a65551461079a578063c2cc16d9146107a4578063c4e3a63b146107c257610304565b8063955e232e11610151578063ae4298331161012b578063ae42983314610744578063b551a00d14610762578063b9f8ea6d1461077e57610304565b8063955e232e146106c65780639645383d146106f65780639d8e09011461071457610304565b806386fa81c71161018257806386fa81c71461065b57806387bbac1b1461068c5780639383ac44146106aa57610304565b80637ad31c981461062157806382b5e8891461063f57610304565b80632e74e628116102565780634b884f341161020a578063640bb8df116101e4578063640bb8df146105a35780636c6a4f36146105c1578063797250e4146105f157610304565b80634b884f34146105395780634cd7a31514610569578063526b87121461058557610304565b806333daf5d41161023b57806333daf5d4146104ba578063371f3d45146104eb578063452a93201461051b57610304565b80632e74e6281461046c57806330bfb9bb1461049c57610304565b806307e54f16116102b857806314706d851161029257806314706d85146104025780631a30c7021461042057806327fb04741461043c57610304565b806307e54f16146103865780630a889a8b146103b65780630f85fc5a146103d257610304565b806306552ff3116102e957806306552ff314610332578063078182001461034e578063079329871461036a57610304565b8063020ac54a1461030a578063060406181461031457610304565b60006000fd5b6103126108fa565b005b61031c6109a7565b6040516103299190615d5b565b60405180910390f35b61034c60048036038101906103479190615517565b6109bf565b005b61036860048036038101906103639190615272565b610c2a565b005b610384600480360381019061037f9190615367565b610e09565b005b6103a0600480360381019061039b9190615499565b610f9a565b6040516103ad9190615cc0565b60405180910390f35b6103d060048036038101906103cb9190615615565b610fc0565b005b6103ec60048036038101906103e79190615615565b6114ff565b6040516103f99190615c3e565b60405180910390f35b61040a6117db565b6040516104179190615d12565b60405180910390f35b61043a60048036038101906104359190615663565b61189a565b005b610456600480360381019061045191906154c0565b611bf0565b6040516104639190615d5b565b60405180910390f35b61048660048036038101906104819190615615565b611ff1565b6040516104939190615855565b60405180910390f35b6104a4612066565b6040516104b19190615d5b565b60405180910390f35b6104d460048036038101906104cf91906152c0565b612080565b6040516104e2929190615869565b60405180910390f35b6105056004803603810190610500919061544c565b612317565b6040516105129190615855565b60405180910390f35b61052361233c565b6040516105309190615752565b60405180910390f35b610553600480360381019061054e9190615615565b612362565b6040516105609190615d12565b60405180910390f35b610583600480360381019061057e9190615367565b612389565b005b61058d6125ed565b60405161059a9190615cc0565b60405180910390f35b6105ab612601565b6040516105b89190615752565b60405180910390f35b6105db60048036038101906105d6919061557d565b612627565b6040516105e89190615ca3565b60405180910390f35b61060b6004803603810190610606919061557d565b612748565b6040516106189190615d12565b60405180910390f35b610629612763565b6040516106369190615d12565b60405180910390f35b61065960048036038101906106549190615499565b61276c565b005b61067560048036038101906106709190615367565b61287c565b604051610683929190615cd6565b60405180910390f35b6106946128eb565b6040516106a19190615906565b60405180910390f35b6106c460048036038101906106bf9190615367565b61290f565b005b6106e060048036038101906106db9190615615565b612b7c565b6040516106ed9190615d5b565b60405180910390f35b6106fe612b99565b60405161070b91906158de565b60405180910390f35b61072e6004803603810190610729919061557d565b612bbf565b60405161073b919061588e565b60405180910390f35b61074c612bf7565b60405161075991906158b6565b60405180910390f35b61077c60048036038101906107779190615615565b612c1d565b005b61079860048036038101906107939190615398565b612dec565b005b6107a26133a5565b005b6107ac61349c565b6040516107b99190615752565b60405180910390f35b6107ca6134c2565b6040516107d79190615d5b565b60405180910390f35b6107e86134e6565b6040516107f59190615d5b565b60405180910390f35b61080661350a565b6040516108139190615752565b60405180910390f35b61083660048036038101906108319190615499565b613530565b005b610840613581565b60405161084d9190615752565b60405180910390f35b61085e6135a7565b60405161086b9190615d5b565b60405180910390f35b61088e600480360381019061088991906155e4565b6135c1565b60405161089b9190615d12565b60405180910390f35b6108be60048036038101906108b99190615499565b6135e0565b005b6108da60048036038101906108d591906155ac565b613672565b005b6108e46137a1565b6040516108f19190615d5b565b60405180910390f35b60026000600050541415151561097b576040517f08c379a000000000000000000000000000000000000000000000000000000000815260040180806020018281038252601f8152602001807f5265656e7472616e637947756172643a207265656e7472616e742063616c6c0081526020015060200191505060405180910390fd5b6002600060005081909090555061099661384d63ffffffff16565b5b600160006000508190909055505b565b60006109b7613b1f63ffffffff16565b905080505b90565b610a1e600f60009054906101000a900473ffffffffffffffffffffffffffffffffffffffff1673ffffffffffffffffffffffffffffffffffffffff163373ffffffffffffffffffffffffffffffffffffffff1614613b9863ffffffff16565b600f60006101000a81549073ffffffffffffffffffffffffffffffffffffffff021916905583600560006101000a81548173ffffffffffffffffffffffffffffffffffffffff021916908373ffffffffffffffffffffffffffffffffffffffff16021790555082600460006101000a81548173ffffffffffffffffffffffffffffffffffffffff021916908373ffffffffffffffffffffffffffffffffffffffff16021790555081600360006101000a81548173ffffffffffffffffffffffffffffffffffffffff021916908373ffffffffffffffffffffffffffffffffffffffff16021790555080600260006101000a81548173ffffffffffffffffffffffffffffffffffffffff021916908373ffffffffffffffffffffffffffffffffffffffff160217905550610b5d63a9059cbb60e01b613bde63ffffffff16565b610b736323b872dd60e01b613bde63ffffffff16565b610b8963095ea7b360e01b613bde63ffffffff16565b610b9f63449a52f860e01b613bde63ffffffff16565b610bb56379cc679060e01b613bde63ffffffff16565b610bcb6342966c6860e01b613bde63ffffffff16565b610be1633950935160e01b613bde63ffffffff16565b610bf763a457c2d760e01b613bde63ffffffff16565b610c0d633c4a25d060e01b613bde63ffffffff16565b610c23635c19a95c60e01b613bde63ffffffff16565b5b50505050565b610c673073ffffffffffffffffffffffffffffffffffffffff163373ffffffffffffffffffffffffffffffffffffffff1614613b9863ffffffff16565b600073ffffffffffffffffffffffffffffffffffffffff16600160009054906101000a900473ffffffffffffffffffffffffffffffffffffffff1673ffffffffffffffffffffffffffffffffffffffff16141515610cfa576040517f08c379a0000000000000000000000000000000000000000000000000000000008152600401610cf190615bc0565b60405180910390fd5b610d0981613c4f63ffffffff16565b1515610d4a576040517f08c379a0000000000000000000000000000000000000000000000000000000008152600401610d4190615b81565b60405180910390fd5b80600160006101000a81548173ffffffffffffffffffffffffffffffffffffffff021916908373ffffffffffffffffffffffffffffffffffffffff160217905550610d99613b1f63ffffffff16565b601160006101000a81548167ffffffffffffffff021916908367ffffffffffffffff1602179055508073ffffffffffffffffffffffffffffffffffffffff167f6765bf0cc4e3defc42bfa6ac394241a5f702ee760529c922874f15c4ad35edc760405160405180910390a25b5b50565b600260006000505414151515610e8a576040517f08c379a000000000000000000000000000000000000000000000000000000000815260040180806020018281038252601f8152602001807f5265656e7472616e637947756172643a207265656e7472616e742063616c6c0081526020015060200191505060405180910390fd5b60026000600050819090905550610ef6600360009054906101000a900473ffffffffffffffffffffffffffffffffffffffff1673ffffffffffffffffffffffffffffffffffffffff163373ffffffffffffffffffffffffffffffffffffffff1614613b9863ffffffff16565b600460009054906101000a900473ffffffffffffffffffffffffffffffffffffffff1673ffffffffffffffffffffffffffffffffffffffff1663449a52f883836040518363ffffffff1660e01b8152600401610f539291906157ed565b600060405180830381600087803b158015610f6e5760006000fd5b505af1158015610f83573d600060003e3d6000fd5b505050505b600160006000508190909055505b5050565b600b60005060205280600052604060002060009150909054906101000a900461ffff1681565b600260006000505414151515611041576040517f08c379a000000000000000000000000000000000000000000000000000000000815260040180806020018281038252601f8152602001807f5265656e7472616e637947756172643a207265656e7472616e742063616c6c0081526020015060200191505060405180910390fd5b600260006000508190909055506000339050611110600560009054906101000a900473ffffffffffffffffffffffffffffffffffffffff1673ffffffffffffffffffffffffffffffffffffffff1663430c208183856040518363ffffffff1660e01b81526004016110b392919061581c565b60206040518083038186803b1580156110cc5760006000fd5b505afa1580156110e1573d600060003e3d6000fd5b505050506040513d601f19601f820116820180604052508101906111059190615429565b613b9863ffffffff16565b600061112183613c6963ffffffff16565b9050611131613b1f63ffffffff16565b67ffffffffffffffff16816080015167ffffffffffffffff161115151561118d576040517f08c379a000000000000000000000000000000000000000000000000000000000815260040161118490615ac4565b60405180910390fd5b6111dc6111a882600001518360a00151613f3263ffffffff16565b600960005060008460c0015161ffff1661ffff16815260200190815260200160002060005054613f6190919063ffffffff16565b600960005060008360c0015161ffff1661ffff168152602001908152602001600020600050819090905550600d60005060008467ffffffffffffffff1667ffffffffffffffff16815260200190815260200160002060006000820160006101000a8154906fffffffffffffffffffffffffffffffff02191690556000820160106101000a8154906fffffffffffffffffffffffffffffffff02191690556001820160006101000a81549076ffffffffffffffffffffffffffffffffffffffffffffff02191690556001820160176101000a81549061ffff02191690556001820160196101000a81549061ffff021916905560018201601b6101000a81549061ffff021916905560018201601d6101000a81549060ff021916905550506000600560009054906101000a900473ffffffffffffffffffffffffffffffffffffffff1673ffffffffffffffffffffffffffffffffffffffff16636352211e856040518263ffffffff1660e01b81526004016113559190615d3f565b60206040518083038186803b15801561136e5760006000fd5b505afa158015611383573d600060003e3d6000fd5b505050506040513d601f19601f820116820180604052508101906113a79190615299565b9050600560009054906101000a900473ffffffffffffffffffffffffffffffffffffffff1673ffffffffffffffffffffffffffffffffffffffff16639dbead42856040518263ffffffff1660e01b81526004016114049190615d5b565b600060405180830381600087803b15801561141f5760006000fd5b505af1158015611434573d600060003e3d6000fd5b505050508273ffffffffffffffffffffffffffffffffffffffff168260c0015161ffff167fbf347141bee0ba9c777fbef9a14008be9f56f2b2f90f0e63cfed8a96a3b506c7846000015160405161148b9190615d12565b60405180910390a36114ea600c60005060008460c0015161ffff1661ffff16815260200190815260200160002060009054906101000a900473ffffffffffffffffffffffffffffffffffffffff16828460000151613fea63ffffffff16565b5050505b600160006000508190909055505b50565b61150761512e565b6000600d60005060008467ffffffffffffffff1667ffffffffffffffff1681526020019081526020016000206000506040518060e00160405290816000820160009054906101000a90046fffffffffffffffffffffffffffffffff166fffffffffffffffffffffffffffffffff166fffffffffffffffffffffffffffffffff1681526020016000820160109054906101000a90046fffffffffffffffffffffffffffffffff166fffffffffffffffffffffffffffffffff166fffffffffffffffffffffffffffffffff1681526020016001820160009054906101000a900476ffffffffffffffffffffffffffffffffffffffffffffff1676ffffffffffffffffffffffffffffffffffffffffffffff1676ffffffffffffffffffffffffffffffffffffffffffffff1681526020016001820160179054906101000a900461ffff1661ffff1661ffff1681526020016001820160199054906101000a900461ffff1661ffff1661ffff16815260200160018201601b9054906101000a900461ffff1661ffff1661ffff16815260200160018201601d9054906101000a900460ff1660ff1660ff16815260200150509050600081600001516fffffffffffffffffffffffffffffffff16111515611711576040517f08c379a000000000000000000000000000000000000000000000000000000000815260040161170890615b03565b60405180910390fd5b6040518060e0016040528082600001516fffffffffffffffffffffffffffffffff16815260200182602001516fffffffffffffffffffffffffffffffff168152602001826040015176ffffffffffffffffffffffffffffffffffffffffffffff168152602001826060015161ffff1667ffffffffffffffff168152602001826080015161ffff1667ffffffffffffffff1681526020018260c0015160ff1667ffffffffffffffff1681526020018260a0015161ffff168152602001509150506117d656505b919050565b60006000601060149054906101000a900467ffffffffffffffff1667ffffffffffffffff16141561180f5760009050611897565b600073ffffffffffffffffffffffffffffffffffffffff16600160009054906101000a900473ffffffffffffffffffffffffffffffffffffffff1673ffffffffffffffffffffffffffffffffffffffff161415156118855769021e19e0c9bab240000069152d02c7e14af6800000039050611897565b69152d02c7e14af68000009050611897565b90565b60026000600050541415151561191b576040517f08c379a000000000000000000000000000000000000000000000000000000000815260040180806020018281038252601f8152602001807f5265656e7472616e637947756172643a207265656e7472616e742063616c6c0081526020015060200191505060405180910390fd5b60026000600050819090905550611937816141f663ffffffff16565b60003390506119f9600560009054906101000a900473ffffffffffffffffffffffffffffffffffffffff1673ffffffffffffffffffffffffffffffffffffffff1663430c208183866040518363ffffffff1660e01b815260040161199c92919061581c565b60206040518083038186803b1580156119b55760006000fd5b505afa1580156119ca573d600060003e3d6000fd5b505050506040513d601f19601f820116820180604052508101906119ee9190615429565b613b9863ffffffff16565b6000611a0a84613c6963ffffffff16565b90508060a0015167ffffffffffffffff168360ff1667ffffffffffffffff16111515611a6b576040517f08c379a0000000000000000000000000000000000000000000000000000000008152600401611a62906159c8565b60405180910390fd5b611ae2611a8582600001518560ff16613f3263ffffffff16565b611ad4611aa084600001518560a00151613f3263ffffffff16565b600960005060008660c0015161ffff1661ffff16815260200190815260200160002060005054613f6190919063ffffffff16565b61429690919063ffffffff16565b600960005060008360c0015161ffff1661ffff168152602001908152602001600020600050819090905550611b48611b228460ff1661431f63ffffffff16565b611b30613b1f63ffffffff16565b67ffffffffffffffff1661436290919063ffffffff16565b816080019067ffffffffffffffff16908167ffffffffffffffff16815260200150508260ff168160a0019067ffffffffffffffff16908167ffffffffffffffff1681526020015050611ba084826143ff63ffffffff16565b8260ff168467ffffffffffffffff167fb39e6330051c3e584367d7d1f1ff3fb0cdd824478fd7d7f257005c83c010b8a160405160405180910390a350505b600160006000508190909055505b5050565b6000600260006000505414151515611c73576040517f08c379a000000000000000000000000000000000000000000000000000000000815260040180806020018281038252601f8152602001807f5265656e7472616e637947756172643a207265656e7472616e742063616c6c0081526020015060200191505060405180910390fd5b600260006000508190909055506000600b60005060008773ffffffffffffffffffffffffffffffffffffffff1673ffffffffffffffffffffffffffffffffffffffff16815260200190815260200160002060009054906101000a900461ffff16905060008161ffff16111515611d1e576040517f08c379a0000000000000000000000000000000000000000000000000000000008152600401611d1590615989565b60405180910390fd5b600085111515611d63576040517f08c379a0000000000000000000000000000000000000000000000000000000008152600401611d5a90615a46565b60405180910390fd5b611d72846141f663ffffffff16565b611d8061384d63ffffffff16565b6000611d918261262763ffffffff16565b9050611dd9611da9878760ff16613f3263ffffffff16565b600960005060008561ffff1661ffff1681526020019081526020016000206000505461429690919063ffffffff16565b600960005060008461ffff1661ffff168152602001908152602001600020600050819090905550600560009054906101000a900473ffffffffffffffffffffffffffffffffffffffff1673ffffffffffffffffffffffffffffffffffffffff1663755edd17856040518263ffffffff1660e01b8152600401611e5b9190615752565b602060405180830381600087803b158015611e765760006000fd5b505af1158015611e8b573d600060003e3d6000fd5b505050506040513d601f19601f82011682018060405250810190611eaf919061563c565b925082506000611ec3613b1f63ffffffff16565b9050611f64846040518060e001604052808a815260200185602001518152602001856000015181526020018467ffffffffffffffff168152602001611f2c611f138b60ff1661431f63ffffffff16565b8667ffffffffffffffff1661436290919063ffffffff16565b67ffffffffffffffff1681526020018960ff1667ffffffffffffffff1681526020018661ffff168152602001506143ff63ffffffff16565b611f768833308a6146a563ffffffff16565b8560ff168573ffffffffffffffffffffffffffffffffffffffff168461ffff167ffd5af8482cd27088275e2c1370259ff534cf1c987cf2105e24da196377e5c98d8a604051611fc59190615d12565b60405180910390a4839350505050611fdb565050505b600160006000508190909055505b949350505050565b6000612001613b1f63ffffffff16565b67ffffffffffffffff16600d60005060008467ffffffffffffffff1667ffffffffffffffff16815260200190815260200160002060005060010160199054906101000a900461ffff1661ffff1667ffffffffffffffff1611159050612061565b919050565b601060149054906101000a900467ffffffffffffffff1681565b60006060600260006000505414151515612105576040517f08c379a000000000000000000000000000000000000000000000000000000000815260040180806020018281038252601f8152602001807f5265656e7472616e637947756172643a207265656e7472616e742063616c6c0081526020015060200191505060405180910390fd5b60026000600050819090905550612171600260009054906101000a900473ffffffffffffffffffffffffffffffffffffffff1673ffffffffffffffffffffffffffffffffffffffff163373ffffffffffffffffffffffffffffffffffffffff1614613b9863ffffffff16565b6000612182856148d063ffffffff16565b9050600e6000506000827bffffffffffffffffffffffffffffffffffffffffffffffffffffffff19167bffffffffffffffffffffffffffffffffffffffffffffffffffffffff1916815260200190815260200160002060009054906101000a900460ff16151515612228576040517f08c379a000000000000000000000000000000000000000000000000000000000815260040161221f90615a85565b60405180910390fd5b8573ffffffffffffffffffffffffffffffffffffffff1681856040516020016122529291906156e8565b60405160208183030381529060405260405161226e9190615733565b6000604051808303816000865af19150503d80600081146122ab576040519150601f19603f3d011682016040523d82523d6000602084013e6122b0565b606091505b50809350819450505082829015156122fe576040517f08c379a00000000000000000000000000000000000000000000000000000000081526004016122f5919061592e565b60405180910390fd5b50505b600160006000508190909055505b935093915050565b600e60005060205280600052604060002060009150909054906101000a900460ff1681565b601060009054906101000a900473ffffffffffffffffffffffffffffffffffffffff1681565b60006123738261431f63ffffffff16565b67ffffffffffffffff169050612384565b919050565b6123c63073ffffffffffffffffffffffffffffffffffffffff163373ffffffffffffffffffffffffffffffffffffffff1614613b9863ffffffff16565b6032600460009054906101000a900473ffffffffffffffffffffffffffffffffffffffff1673ffffffffffffffffffffffffffffffffffffffff166318160ddd6040518163ffffffff1660e01b815260040160206040518083038186803b1580156124315760006000fd5b505afa158015612446573d600060003e3d6000fd5b505050506040513d601f19601f8201168201806040525081019061246a91906155c8565b81151561247357fe5b0481111515156124b8576040517f08c379a00000000000000000000000000000000000000000000000000000000081526004016124af90615bff565b60405180910390fd5b6124c782613c4f63ffffffff16565b1515612508576040517f08c379a00000000000000000000000000000000000000000000000000000000081526004016124ff90615b81565b60405180910390fd5b600460009054906101000a900473ffffffffffffffffffffffffffffffffffffffff1673ffffffffffffffffffffffffffffffffffffffff1663449a52f883836040518363ffffffff1660e01b81526004016125659291906157ed565b600060405180830381600087803b1580156125805760006000fd5b505af1158015612595573d600060003e3d6000fd5b505050508173ffffffffffffffffffffffffffffffffffffffff167f15c222d39f56077620782fcc367cdd020fddac1f6129c77ec7ca1c5025659dda826040516125df9190615d12565b60405180910390a25b5b5050565b600a60009054906101000a900461ffff1681565b600360009054906101000a900473ffffffffffffffffffffffffffffffffffffffff1681565b61262f615190565b6000600860005060008461ffff1661ffff1681526020019081526020016000206000506040518060400160405290816000820160009054906101000a90046fffffffffffffffffffffffffffffffff166fffffffffffffffffffffffffffffffff166fffffffffffffffffffffffffffffffff1681526020016000820160109054906101000a90046fffffffffffffffffffffffffffffffff166fffffffffffffffffffffffffffffffff166fffffffffffffffffffffffffffffffff16815260200150509050604051806040016040528082600001516fffffffffffffffffffffffffffffffff16815260200182602001516fffffffffffffffffffffffffffffffff1681526020015091505061274356505b919050565b60096000506020528060005260406000206000915090505481565b60126000505481565b6000600b60005060008373ffffffffffffffffffffffffffffffffffffffff1673ffffffffffffffffffffffffffffffffffffffff16815260200190815260200160002060009054906101000a900461ffff16905060008161ffff1611151561280a576040517f08c379a000000000000000000000000000000000000000000000000000000000815260040161280190615989565b60405180910390fd5b8173ffffffffffffffffffffffffffffffffffffffff16635c19a95c306040518263ffffffff1660e01b81526004016128439190615752565b600060405180830381600087803b15801561285e5760006000fd5b505af1158015612873573d600060003e3d6000fd5b50505050505b50565b6006600050602052816000526040600020600050602052806000526040600020600091509150508060000160009054906101000a90047effffffffffffffffffffffffffffffffffffffffffffffffffffffffffffff169080600001601f9054906101000a900460ff16905082565b7f000000000000000000000000000000000000000000000000000000000000000081565b600260006000505414151515612990576040517f08c379a000000000000000000000000000000000000000000000000000000000815260040180806020018281038252601f8152602001807f5265656e7472616e637947756172643a207265656e7472616e742063616c6c0081526020015060200191505060405180910390fd5b600260006000508190909055506129fc600160009054906101000a900473ffffffffffffffffffffffffffffffffffffffff1673ffffffffffffffffffffffffffffffffffffffff163373ffffffffffffffffffffffffffffffffffffffff1614613b9863ffffffff16565b6000612a168260126000505461429690919063ffffffff16565b90506000612a8369021e19e0c9bab2400000612a6b601160009054906101000a900467ffffffffffffffff166001612a52613b1f63ffffffff16565b0167ffffffffffffffff166148e690919063ffffffff16565b67ffffffffffffffff1661498390919063ffffffff16565b9050808211151515612aca576040517f08c379a0000000000000000000000000000000000000000000000000000000008152600401612ac190615b42565b60405180910390fd5b816012600050819090905550600460009054906101000a900473ffffffffffffffffffffffffffffffffffffffff1673ffffffffffffffffffffffffffffffffffffffff1663449a52f885856040518363ffffffff1660e01b8152600401612b339291906157ed565b600060405180830381600087803b158015612b4e5760006000fd5b505af1158015612b63573d600060003e3d6000fd5b5050505050505b600160006000508190909055505b5050565b6000612b8d82614a2163ffffffff16565b9050612b94565b919050565b600460009054906101000a900473ffffffffffffffffffffffffffffffffffffffff1681565b600c60005060205280600052604060002060009150909054906101000a900473ffffffffffffffffffffffffffffffffffffffff1681565b600560009054906101000a900473ffffffffffffffffffffffffffffffffffffffff1681565b600260006000505414151515612c9e576040517f08c379a000000000000000000000000000000000000000000000000000000000815260040180806020018281038252601f8152602001807f5265656e7472616e637947756172643a207265656e7472616e742063616c6c0081526020015060200191505060405180910390fd5b60026000600050819090905550612d68600560009054906101000a900473ffffffffffffffffffffffffffffffffffffffff1673ffffffffffffffffffffffffffffffffffffffff1663430c208133846040518363ffffffff1660e01b8152600401612d0b92919061577a565b60206040518083038186803b158015612d245760006000fd5b505afa158015612d39573d600060003e3d6000fd5b505050506040513d601f19601f82011682018060405250810190612d5d9190615429565b613b9863ffffffff16565b6000612d7982613c6963ffffffff16565b9050612d8b82826143ff63ffffffff16565b3373ffffffffffffffffffffffffffffffffffffffff168267ffffffffffffffff167f39c278b054e152450e4295bdf59d7edbaba35cb21d4248658680e61dac39eebb60405160405180910390a3505b600160006000508190909055505b50565b612e4b600360009054906101000a900473ffffffffffffffffffffffffffffffffffffffff1673ffffffffffffffffffffffffffffffffffffffff163373ffffffffffffffffffffffffffffffffffffffff1614613b9863ffffffff16565b60008473ffffffffffffffffffffffffffffffffffffffff16637e90f9ab6040518163ffffffff1660e01b815260040160206040518083038186803b158015612e945760006000fd5b505afa158015612ea9573d600060003e3d6000fd5b505050506040513d601f19601f82011682018060405250810190612ecd9190615299565b9050600660005060008673ffffffffffffffffffffffffffffffffffffffff1673ffffffffffffffffffffffffffffffffffffffff1681526020019081526020016000206000506000858152602001908152602001600020600050600001601f9054906101000a900460ff1615156132525760008173ffffffffffffffffffffffffffffffffffffffff166370a08231306040518263ffffffff1660e01b8152600401612f7a9190615752565b60206040518083038186803b158015612f935760006000fd5b505afa158015612fa8573d600060003e3d6000fd5b505050506040513d601f19601f82011682018060405250810190612fcc91906155c8565b90508573ffffffffffffffffffffffffffffffffffffffff1663b525867f866040518263ffffffff1660e01b81526004016130079190615d12565b600060405180830381600087803b1580156130225760006000fd5b505af1158015613037573d600060003e3d6000fd5b5050505060006130da828473ffffffffffffffffffffffffffffffffffffffff166370a08231306040518263ffffffff1660e01b815260040161307a9190615752565b60206040518083038186803b1580156130935760006000fd5b505afa1580156130a8573d600060003e3d6000fd5b505050506040513d601f19601f820116820180604052508101906130cc91906155c8565b613f6190919063ffffffff16565b905061310d837f000000000000000000000000000000000000000000000000000000000000000083613fea63ffffffff16565b604051806040016040528061312983614aa6909063ffffffff16565b7affffffffffffffffffffffffffffffffffffffffffffffffffffff167effffffffffffffffffffffffffffffffffffffffffffffffffffffffffffff16815260200160011515815260200150600660005060008973ffffffffffffffffffffffffffffffffffffffff1673ffffffffffffffffffffffffffffffffffffffff168152602001908152602001600020600050600088815260200190815260200160002060005060008201518160000160006101000a8154817effffffffffffffffffffffffffffffffffffffffffffffffffffffffffffff02191690837effffffffffffffffffffffffffffffffffffffffffffffffffffffffffffff160217905550602082015181600001601f6101000a81548160ff02191690831515021790555090505050505b7f000000000000000000000000000000000000000000000000000000000000000073ffffffffffffffffffffffffffffffffffffffff1663d1660f99828561334b86600660005060008c73ffffffffffffffffffffffffffffffffffffffff1673ffffffffffffffffffffffffffffffffffffffff16815260200190815260200160002060005060008b815260200190815260200160002060005060000160009054906101000a90047effffffffffffffffffffffffffffffffffffffffffffffffffffffffffffff167effffffffffffffffffffffffffffffffffffffffffffffffffffffffffffff16614b4b90919063ffffffff16565b6040518463ffffffff1660e01b8152600401613369939291906157b3565b600060405180830381600087803b1580156133845760006000fd5b505af1158015613399573d600060003e3d6000fd5b50505050505b50505050565b613404601060009054906101000a900473ffffffffffffffffffffffffffffffffffffffff1673ffffffffffffffffffffffffffffffffffffffff163373ffffffffffffffffffffffffffffffffffffffff1614613b9863ffffffff16565b601060006101000a81549073ffffffffffffffffffffffffffffffffffffffff021916905561343761384d63ffffffff16565b613445613b1f63ffffffff16565b601060146101000a81548167ffffffffffffffff021916908367ffffffffffffffff1602179055507fe0c110dd4938fc8e228e75a489735745046395ad536dd80c35559debe653714760405160405180910390a15b565b600160009054906101000a900473ffffffffffffffffffffffffffffffffffffffff1681565b7f000000000000000000000000000000000000000000000000000000000000000081565b7f000000000000000000000000000000000000000000000000000000000000000081565b600260009054906101000a900473ffffffffffffffffffffffffffffffffffffffff1681565b61356d3073ffffffffffffffffffffffffffffffffffffffff163373ffffffffffffffffffffffffffffffffffffffff1614613b9863ffffffff16565b61357c81614b7163ffffffff16565b5b5b50565b600f60009054906101000a900473ffffffffffffffffffffffffffffffffffffffff1681565b600760009054906101000a900467ffffffffffffffff1681565b60006135d38383613f3263ffffffff16565b90506135da565b92915050565b61365f601060009054906101000a900473ffffffffffffffffffffffffffffffffffffffff1673ffffffffffffffffffffffffffffffffffffffff163373ffffffffffffffffffffffffffffffffffffffff1614801561365457506000600a60009054906101000a900461ffff1661ffff16145b613b9863ffffffff16565b61366e81614b7163ffffffff16565b5b50565b600060006000600360009054906101000a900473ffffffffffffffffffffffffffffffffffffffff1673ffffffffffffffffffffffffffffffffffffffff166383b0ce15856040518263ffffffff1660e01b81526004016136d39190615d12565b60606040518083038186803b1580156136ec5760006000fd5b505afa158015613701573d600060003e3d6000fd5b505050506040513d601f19601f8201168201806040525081019061372591906153e8565b9250925092508273ffffffffffffffffffffffffffffffffffffffff166315373e3d83836040518363ffffffff1660e01b8152600401613766929190615d24565b600060405180830381600087803b1580156137815760006000fd5b505af1158015613796573d600060003e3d6000fd5b505050505050505b50565b601160009054906101000a900467ffffffffffffffff1681565b60006801000000000000000082101515613840576040517f08c379a00000000000000000000000000000000000000000000000000000000081526004018080602001828103825260118152602001807f6d6f7265207468616e203634206269747300000000000000000000000000000081526020015060200191505060405180910390fd5b819050613848565b919050565b600061385d613b1f63ffffffff16565b9050600760009054906101000a900467ffffffffffffffff1667ffffffffffffffff168167ffffffffffffffff161115156138985750613b1d565b6000600760009054906101000a900467ffffffffffffffff16820390506000600a60009054906101000a900461ffff1661ffff1690506000816138fb8467ffffffffffffffff166138ed6117db63ffffffff16565b61498390919063ffffffff16565b81151561390457fe5b04905061390f615190565b6000600190505b838161ffff16111515613aab576139328161262763ffffffff16565b9150815060405180604001604052806139a56139986139858967ffffffffffffffff16600960005060008861ffff1661ffff1681526020019081526020016000206000505461498390919063ffffffff16565b866000015161429690919063ffffffff16565b614cf0909063ffffffff16565b6fffffffffffffffffffffffffffffffff1681526020016139e36139d686866020015161429690919063ffffffff16565b614cf0909063ffffffff16565b6fffffffffffffffffffffffffffffffff16815260200150600860005060008361ffff1661ffff16815260200190815260200160002060005060008201518160000160006101000a8154816fffffffffffffffffffffffffffffffff02191690836fffffffffffffffffffffffffffffffff16021790555060208201518160000160106101000a8154816fffffffffffffffffffffffffffffffff02191690836fffffffffffffffffffffffffffffffff1602179055509050505b8080600101915050613916565b5084600760006101000a81548167ffffffffffffffff021916908367ffffffffffffffff1602179055508467ffffffffffffffff167f5df8d820031efa286b254435a169e0eda922fa20c466be6471c6deaa51dc116585604051613b0f9190615d5b565b60405180910390a250505050505b565b60007f00000000000000000000000000000000000000000000000000000000000000007f000000000000000000000000000000000000000000000000000000000000000067ffffffffffffffff16613b7b614d8a63ffffffff16565b67ffffffffffffffff16811515613b8e57fe5b0403905080505b90565b801515613bda576040517f08c379a0000000000000000000000000000000000000000000000000000000008152600401613bd190615a07565b60405180910390fd5b5b50565b6001600e6000506000837bffffffffffffffffffffffffffffffffffffffffffffffffffffffff19167bffffffffffffffffffffffffffffffffffffffffffffffffffffffff1916815260200190815260200160002060006101000a81548160ff0219169083151502179055505b50565b60006000823b905060008111915050613c6456505b919050565b613c7161512e565b613c80826114ff63ffffffff16565b90508050613c9261384d63ffffffff16565b600760009054906101000a900467ffffffffffffffff1667ffffffffffffffff16816060015167ffffffffffffffff16101515613cd157809050613f2d565b6000613ce68260c0015161262763ffffffff16565b905060008260600151600760009054906101000a900467ffffffffffffffff160367ffffffffffffffff16613d2c84604001518460000151613f6190919063ffffffff16565b811515613d3557fe5b0490506000613d80613d5885602001518560200151613f6190919063ffffffff16565b83613d7187600001518860a00151613f3263ffffffff16565b614da59092919063ffffffff16565b90506000811115613ec957600460009054906101000a900473ffffffffffffffffffffffffffffffffffffffff1673ffffffffffffffffffffffffffffffffffffffff1663449a52f8600560009054906101000a900473ffffffffffffffffffffffffffffffffffffffff1673ffffffffffffffffffffffffffffffffffffffff16636352211e886040518263ffffffff1660e01b8152600401613e249190615d3f565b60206040518083038186803b158015613e3d5760006000fd5b505afa158015613e52573d600060003e3d6000fd5b505050506040513d601f19601f82011682018060405250810190613e769190615299565b836040518363ffffffff1660e01b8152600401613e949291906157ed565b600060405180830381600087803b158015613eaf5760006000fd5b505af1158015613ec4573d600060003e3d6000fd5b505050505b8260200151846020019090818152602001505082600001518460400190908181526020015050613efd613b1f63ffffffff16565b846060019067ffffffffffffffff16908167ffffffffffffffff1681526020015050839350505050613f2d565050505b919050565b6000613f548267ffffffffffffffff16600c85614da59092919063ffffffff16565b9050613f5b565b92915050565b60008282840391508111151515613fe3576040517f08c379a000000000000000000000000000000000000000000000000000000000815260040180806020018281038252600d8152602001807f7375622d756e646572666c6f770000000000000000000000000000000000000081526020015060200191505060405180910390fd5b5b92915050565b600060008473ffffffffffffffffffffffffffffffffffffffff1663a9059cbb60e01b8585604051602401808373ffffffffffffffffffffffffffffffffffffffff16815260200182815260200192505050604051602081830303815290604052907bffffffffffffffffffffffffffffffffffffffffffffffffffffffff19166020820180517bffffffffffffffffffffffffffffffffffffffffffffffffffffffff83818316178352505050506040518082805190602001908083835b6020831015156140cf57805182525b6020820191506020810190506020830392506140a9565b6001836020036101000a0380198251168184511680821785525050505050509050019150506000604051808303816000865af19150503d8060008114614131576040519150601f19603f3d011682016040523d82523d6000602084013e614136565b606091505b5091509150818015614177575060008151148061417657508080602001905160208110156141645760006000fd5b81019080805190602001909291905050505b5b15156141ee576040517f08c379a00000000000000000000000000000000000000000000000000000000081526004018080602001828103825260028152602001807f535400000000000000000000000000000000000000000000000000000000000081526020015060200191505060405180910390fd5b50505b505050565b8060ff16600667ffffffffffffffff16111580156142225750603067ffffffffffffffff168160ff1611155b801561425157506000600367ffffffffffffffff168260ff1681151561424457fe5b0667ffffffffffffffff16145b1515614292576040517f08c379a00000000000000000000000000000000000000000000000000000000081526004016142899061594a565b60405180910390fd5b5b50565b60008282840191508110151515614318576040517f08c379a000000000000000000000000000000000000000000000000000000000815260040180806020018281038252600c8152602001807f6164642d6f766572666c6f77000000000000000000000000000000000000000081526020015060200191505060405180910390fd5b5b92915050565b6000600c61434261016d8467ffffffffffffffff16614ea690919063ffffffff16565b67ffffffffffffffff1681151561435557fe5b04905061435d565b919050565b60008267ffffffffffffffff1682840191508167ffffffffffffffff16101515156143f8576040517f08c379a000000000000000000000000000000000000000000000000000000000815260040180806020018281038252600c8152602001807f6164642d6f766572666c6f77000000000000000000000000000000000000000081526020015060200191505060405180910390fd5b5b92915050565b6040518060e0016040528061441f8360000151614cf0909063ffffffff16565b6fffffffffffffffffffffffffffffffff16815260200161444b8360200151614cf0909063ffffffff16565b6fffffffffffffffffffffffffffffffff1681526020016144778360400151614f76909063ffffffff16565b76ffffffffffffffffffffffffffffffffffffffffffffff1681526020016144b4836060015167ffffffffffffffff16615017909063ffffffff16565b61ffff1681526020016144dc836080015167ffffffffffffffff16615017909063ffffffff16565b61ffff1681526020018260c0015161ffff1681526020016145128360a0015167ffffffffffffffff166150a3909063ffffffff16565b60ff16815260200150600d60005060008467ffffffffffffffff1667ffffffffffffffff16815260200190815260200160002060005060008201518160000160006101000a8154816fffffffffffffffffffffffffffffffff02191690836fffffffffffffffffffffffffffffffff16021790555060208201518160000160106101000a8154816fffffffffffffffffffffffffffffffff02191690836fffffffffffffffffffffffffffffffff16021790555060408201518160010160006101000a81548176ffffffffffffffffffffffffffffffffffffffffffffff021916908376ffffffffffffffffffffffffffffffffffffffffffffff16021790555060608201518160010160176101000a81548161ffff021916908361ffff16021790555060808201518160010160196101000a81548161ffff021916908361ffff16021790555060a082015181600101601b6101000a81548161ffff021916908361ffff16021790555060c082015181600101601d6101000a81548160ff021916908360ff1602179055509050505b5050565b600060008573ffffffffffffffffffffffffffffffffffffffff166323b872dd60e01b868686604051602401808473ffffffffffffffffffffffffffffffffffffffff1681526020018373ffffffffffffffffffffffffffffffffffffffff1681526020018281526020019350505050604051602081830303815290604052907bffffffffffffffffffffffffffffffffffffffffffffffffffffffff19166020820180517bffffffffffffffffffffffffffffffffffffffffffffffffffffffff83818316178352505050506040518082805190602001908083835b6020831015156147a857805182525b602082019150602081019050602083039250614782565b6001836020036101000a0380198251168184511680821785525050505050509050019150506000604051808303816000865af19150503d806000811461480a576040519150601f19603f3d011682016040523d82523d6000602084013e61480f565b606091505b5091509150818015614850575060008151148061484f575080806020019051602081101561483d5760006000fd5b81019080805190602001909291905050505b5b15156148c7576040517f08c379a00000000000000000000000000000000000000000000000000000000081526004018080602001828103825260038152602001807f535446000000000000000000000000000000000000000000000000000000000081526020015060200191505060405180910390fd5b50505b50505050565b6000818051906020012090506148e1565b919050565b60008267ffffffffffffffff1682840391508167ffffffffffffffff161115151561497c576040517f08c379a000000000000000000000000000000000000000000000000000000000815260040180806020018281038252600d8152602001807f7375622d756e646572666c6f770000000000000000000000000000000000000081526020015060200191505060405180910390fd5b5b92915050565b600060008214806149a3575082828385029250828115156149a057fe5b04145b1515614a1a576040517f08c379a000000000000000000000000000000000000000000000000000000000815260040180806020018281038252600c8152602001807f6d756c2d6f766572666c6f77000000000000000000000000000000000000000081526020015060200191505060405180910390fd5b5b92915050565b6000614a9c614a63837f000000000000000000000000000000000000000000000000000000000000000067ffffffffffffffff1661436290919063ffffffff16565b7f000000000000000000000000000000000000000000000000000000000000000067ffffffffffffffff16614ea690919063ffffffff16565b905080505b919050565b60007b0100000000000000000000000000000000000000000000000000000082101515614b3e576040517f08c379a00000000000000000000000000000000000000000000000000000000081526004018080602001828103825260128152602001807f6d6f7265207468616e203231362062697473000000000000000000000000000081526020015060200191505060405180910390fd5b819050614b46565b919050565b6000614b668383670de0b6b3a7640000614da563ffffffff16565b905080505b92915050565b61ffff61ffff16600a60009054906101000a900461ffff1661ffff16101515614b9a5760006000fd5b600a600081819054906101000a900461ffff168092919060010191906101000a81548161ffff021916908361ffff1602179055505080600c6000506000600a60009054906101000a900461ffff1661ffff1661ffff16815260200190815260200160002060006101000a81548173ffffffffffffffffffffffffffffffffffffffff021916908373ffffffffffffffffffffffffffffffffffffffff160217905550600a60009054906101000a900461ffff16600b60005060008373ffffffffffffffffffffffffffffffffffffffff1673ffffffffffffffffffffffffffffffffffffffff16815260200190815260200160002060006101000a81548161ffff021916908361ffff1602179055508073ffffffffffffffffffffffffffffffffffffffff167f784c8f4dbf0ffedd6e72c76501c545a70f8b203b30a26ce542bf92ba87c248a460405160405180910390a25b50565b600070010000000000000000000000000000000082101515614d7d576040517f08c379a00000000000000000000000000000000000000000000000000000000081526004018080602001828103825260128152602001807f6d6f7265207468616e203132382062697473000000000000000000000000000081526020015060200191505060405180910390fd5b819050614d85565b919050565b6000614d9d426137bb909063ffffffff16565b905080505b90565b6000600060006000198587098587029250828110838203039150506000811415614de857600084111515614dd95760006000fd5b83820492508292505050614e9f565b8084111515614df75760006000fd5b6000848688099050828111820391508083039250600085866000031690508086049550808404935060018182600003040190508083028417935083506000600287600302189050808702600203810290508050808702600203810290508050808702600203810290508050808702600203810290508050808702600203810290508050808702600203810290508050808502955085508595505050505050614e9f5650505050505b9392505050565b600060008267ffffffffffffffff161480614ef857508267ffffffffffffffff168267ffffffffffffffff1683850292508267ffffffffffffffff16811515614eeb57fe5b0467ffffffffffffffff16145b1515614f6f576040517f08c379a000000000000000000000000000000000000000000000000000000000815260040180806020018281038252600c8152602001807f6d756c2d6f766572666c6f77000000000000000000000000000000000000000081526020015060200191505060405180910390fd5b5b92915050565b6000770100000000000000000000000000000000000000000000008210151561500a576040517f08c379a00000000000000000000000000000000000000000000000000000000081526004018080602001828103825260128152602001807f6d6f7265207468616e203138342062697473000000000000000000000000000081526020015060200191505060405180910390fd5b819050615012565b919050565b60006201000082101515615096576040517f08c379a00000000000000000000000000000000000000000000000000000000081526004018080602001828103825260118152602001807f6d6f7265207468616e203136206269747300000000000000000000000000000081526020015060200191505060405180910390fd5b81905061509e565b919050565b600061010082101515615121576040517f08c379a00000000000000000000000000000000000000000000000000000000081526004018080602001828103825260108152602001807f6d6f7265207468616e203820626974730000000000000000000000000000000081526020015060200191505060405180910390fd5b819050615129565b919050565b6040518060e00160405280600081526020016000815260200160008152602001600067ffffffffffffffff168152602001600067ffffffffffffffff168152602001600067ffffffffffffffff168152602001600061ffff1681526020015090565b60405180604001604052806000815260200160008152602001509056615df2565b600067ffffffffffffffff808411156151c657fe5b60405160207fffffffffffffffffffffffffffffffffffffffffffffffffffffffffffffffe0601f870116820101818110838211171561520257fe5b806040525080925084815285858501111561521d5760006000fd5b8484602083013760006020868301015250505b9392505050565b6000815190508015158114151561524e5760006000fd5b5b919050565b60008135905060ff81168114151561526c5760006000fd5b5b919050565b600060208284031215615283578081fd5b813561528e81615dac565b809150505b92915050565b6000602082840312156152aa578081fd5b81516152b581615dac565b809150505b92915050565b600060006000606084860312156152d5578182fd5b83356152e081615dac565b80935050602084013567ffffffffffffffff808211156152fe578384fd5b818601915086601f8301121515615313578384fd5b615322878335602085016151b1565b93506040860135915080821115615337578283fd5b50808501905085601f820112151561534d578182fd5b61535c868235602084016151b1565b9150505b9250925092565b600060006040838503121561537a578182fd5b823561538581615dac565b80925050602083013590505b9250929050565b6000600060006000608085870312156153af578081fd5b84356153ba81615dac565b809450506020850135925060408501356153d381615dac565b80925050606085013590505b92959194509250565b600060006000606084860312156153fd578283fd5b835161540881615dac565b809350506020840151915061541f60408501615237565b90505b9250925092565b60006020828403121561543a578081fd5b61544382615237565b90505b92915050565b60006020828403121561545d578081fd5b81357fffffffff0000000000000000000000000000000000000000000000000000000081168114151561548e578182fd5b809150505b92915050565b6000602082840312156154aa578081fd5b81356154b581615dac565b809150505b92915050565b6000600060006000608085870312156154d7578182fd5b84356154e281615dac565b80945050602085013592506154f960408601615254565b9150606085013561550981615dac565b809150505b92959194509250565b60006000600060006080858703121561552e578182fd5b843561553981615dac565b80945050602085013561554b81615dac565b80935050604085013561555d81615dac565b80925050606085013561556f81615dac565b809150505b92959194509250565b60006020828403121561558e578081fd5b813561ffff8116811415156155a1578182fd5b809150505b92915050565b6000602082840312156155bd578081fd5b813590505b92915050565b6000602082840312156155d9578081fd5b815190505b92915050565b60006000604083850312156155f7578182fd5b82359150602083013561560981615dd5565b809150505b9250929050565b600060208284031215615626578081fd5b813561563181615dd5565b809150505b92915050565b60006020828403121561564d578081fd5b815161565881615dd5565b809150505b92915050565b6000600060408385031215615676578182fd5b823561568181615dd5565b8092505061569160208401615254565b90505b9250929050565b600081518084526156b3816020860160208601615d77565b60207fffffffffffffffffffffffffffffffffffffffffffffffffffffffffffffffe0601f8301168501019150505b92915050565b60007fffffffff00000000000000000000000000000000000000000000000000000000841682528251615722816004850160208701615d77565b6004818401019150505b9392505050565b60008251615745818460208701615d77565b8083019150505b92915050565b600060208201905073ffffffffffffffffffffffffffffffffffffffff831682525b92915050565b600060408201905073ffffffffffffffffffffffffffffffffffffffff8416825267ffffffffffffffff831660208301525b9392505050565b600060608201905073ffffffffffffffffffffffffffffffffffffffff80861683528085166020840152508260408301525b949350505050565b600060408201905073ffffffffffffffffffffffffffffffffffffffff841682528260208301525b9392505050565b600060408201905073ffffffffffffffffffffffffffffffffffffffff8416825267ffffffffffffffff831660208301525b9392505050565b600060208201905082151582525b92915050565b6000831515825260406020830152615884604083018461569b565b90505b9392505050565b600060208201905073ffffffffffffffffffffffffffffffffffffffff831682525b92915050565b600060208201905073ffffffffffffffffffffffffffffffffffffffff831682525b92915050565b600060208201905073ffffffffffffffffffffffffffffffffffffffff831682525b92915050565b600060208201905073ffffffffffffffffffffffffffffffffffffffff831682525b92915050565b600060208252615941602083018461569b565b90505b92915050565b600060208252601560208301527f496e76616c6964206c6f636b206475726174696f6e000000000000000000000060408301526060820190505b919050565b600060208252601160208301527f556e737570706f7274656420746f6b656e00000000000000000000000000000060408301526060820190505b919050565b600060208252601b60208301527f4d75737420696e637265617365206c6f636b206475726174696f6e000000000060408301526060820190505b919050565b600060208252600e60208301527f4e6f7420417574686f72697a656400000000000000000000000000000000000060408301526060820190505b919050565b600060208252600460208301527f4e6f6f700000000000000000000000000000000000000000000000000000000060408301526060820190505b919050565b600060208252601260208301527f416374696f6e20626c61636b6c6973746564000000000000000000000000000060408301526060820190505b919050565b600060208252600c60208301527f5374696c6c206c6f636b6564000000000000000000000000000000000000000060408301526060820190505b919050565b600060208252600c60208301527f506f736974696f6e20444e45000000000000000000000000000000000000000060408301526060820190505b919050565b600060208252601260208301527f416c6c6f746d656e74206578636565646564000000000000000000000000000060408301526060820190505b919050565b600060208252600e60208301527f4e6f74206120636f6e747261637400000000000000000000000000000000000060408301526060820190505b919050565b600060208252601460208301527f436f6e747261637420616c72656164792073657400000000000000000000000060408301526060820190505b919050565b600060208252601660208301527f4d6f7265207468616e203225206f6620737570706c790000000000000000000060408301526060820190505b919050565b600060e082019050825182526020830151602083015260408301516040830152606083015167ffffffffffffffff80821660608501528060808601511660808501528060a08601511660a0850152505061ffff60c08401511660c08301525b92915050565b600060408201905082518252602083015160208301525b92915050565b600060208201905061ffff831682525b92915050565b60006040820190507effffffffffffffffffffffffffffffffffffffffffffffffffffffffffffff8416825282151560208301525b9392505050565b60006020820190508282525b92915050565b600060408201905083825282151560208301525b9392505050565b600060208201905067ffffffffffffffff831682525b92915050565b600060208201905067ffffffffffffffff831682525b92915050565b60005b83811015615d965780820151818401525b602081019050615d7a565b83811115615da5576000848401525b505b505050565b73ffffffffffffffffffffffffffffffffffffffff811681141515615dd15760006000fd5b5b50565b67ffffffffffffffff811681141515615dee5760006000fd5b5b50565bfea2646970667358221220bc8d2b805a9b04395bd7c9801555c805d904d54885255785270b994d0bfbc3c964736f6c6343000706003360a06040523480156100115760006000fd5b505b3373ffffffffffffffffffffffffffffffffffffffff1660808173ffffffffffffffffffffffffffffffffffffffff1660601b815260140150505b610053565b60805160601c6104356100746000398060e652806101d152506104356000f3fe60806040523480156100115760006000fd5b506004361061003b5760003560e01c8063d1660f9914610041578063de9375f2146100b05761003b565b60006000fd5b6100ae600480360360608110156100585760006000fd5b81019080803573ffffffffffffffffffffffffffffffffffffffff169060200190929190803573ffffffffffffffffffffffffffffffffffffffff169060200190929190803590602001909291905050506100e4565b005b6100b86101cf565b604051808273ffffffffffffffffffffffffffffffffffffffff16815260200191505060405180910390f35b7f000000000000000000000000000000000000000000000000000000000000000073ffffffffffffffffffffffffffffffffffffffff163373ffffffffffffffffffffffffffffffffffffffff161415156101aa576040517f08c379a000000000000000000000000000000000000000000000000000000000815260040180806020018281038252600e8152602001807f4e6f7420417574686f72697a656400000000000000000000000000000000000081526020015060200191505060405180910390fd5b60008114156101b8576101ca565b6101c98383836101f363ffffffff16565b5b505050565b7f000000000000000000000000000000000000000000000000000000000000000081565b600060008473ffffffffffffffffffffffffffffffffffffffff1663a9059cbb60e01b8585604051602401808373ffffffffffffffffffffffffffffffffffffffff16815260200182815260200192505050604051602081830303815290604052907bffffffffffffffffffffffffffffffffffffffffffffffffffffffff19166020820180517bffffffffffffffffffffffffffffffffffffffffffffffffffffffff83818316178352505050506040518082805190602001908083835b6020831015156102d857805182525b6020820191506020810190506020830392506102b2565b6001836020036101000a0380198251168184511680821785525050505050509050019150506000604051808303816000865af19150503d806000811461033a576040519150601f19603f3d011682016040523d82523d6000602084013e61033f565b606091505b5091509150818015610380575060008151148061037f575080806020019051602081101561036d5760006000fd5b81019080805190602001909291905050505b5b15156103f7576040517f08c379a00000000000000000000000000000000000000000000000000000000081526004018080602001828103825260028152602001807f535400000000000000000000000000000000000000000000000000000000000081526020015060200191505060405180910390fd5b50505b50505056fea2646970667358221220a09fa674e24bee1d9e1df7bc0570046e4c432e836610f7a105a97cba2ac2d0cf64736f6c63430007060033",
  "linkReferences": {},
  "deployedLinkReferences": {}
}