{
  "_format": "hh-sol-artifact-1",
  "contractName": "TDaoPositionNFTDescriptor",
  "sourceName": "contracts/core/TDao/TDaoPositionNFTDescriptor.sol",
  "abi": [
    {
      "inputs": [
        {
          "internalType": "contract ITDao",
          "name": "_tDao",
          "type": "address"
        }
      ],
      "stateMutability": "nonpayable",
      "type": "constructor"
    },
    {
      "inputs": [
        {
          "internalType": "uint256",
          "name": "positionID",
          "type": "uint256"
        }
      ],
      "name": "getTokenDescription",
      "outputs": [
        {
          "internalType": "string",
          "name": "",
          "type": "string"
        }
      ],
      "stateMutability": "view",
      "type": "function"
    },
    {
      "inputs": [
        {
          "internalType": "uint256",
          "name": "positionID",
          "type": "uint256"
        }
      ],
      "name": "getTokenName",
      "outputs": [
        {
          "internalType": "string",
          "name": "",
          "type": "string"
        }
      ],
      "stateMutability": "pure",
      "type": "function"
    },
    {
      "inputs": [
        {
          "internalType": "uint256",
          "name": "positionID",
          "type": "uint256"
        }
      ],
      "name": "getTokenSVG",
      "outputs": [
        {
          "internalType": "string",
          "name": "",
          "type": "string"
        }
      ],
      "stateMutability": "view",
      "type": "function"
    },
    {
      "inputs": [],
      "name": "tDao",
      "outputs": [
        {
          "internalType": "contract ITDao",
          "name": "",
          "type": "address"
        }
      ],
      "stateMutability": "view",
      "type": "function"
    }
  ],
  "bytecode": "0x60a0604052348015620000125760006000fd5b50604051620042933803806200429383398181016040528101906200003891906200007d565b5b8073ffffffffffffffffffffffffffffffffffffffff1660808173ffffffffffffffffffffffffffffffffffffffff16815260200150505b50620000b856620000b7565b600060208284031215620000915760006000fd5b81516001600160a01b03811681141515620000ac5760006000fd5b809150505b92915050565b5b608051614195620000fe600039600081816101070152818161012f015281816102000152818161031a01528181610402015281816104b10152610c2101526141956000f3fe60806040523480156100115760006000fd5b50600436106100515760003560e01c80634c92beb714610057578063b3154c0814610075578063c7ab2dbc146100a5578063dbe16c07146100d557610051565b60006000fd5b61005f610105565b60405161006c9190611dbe565b60405180910390f35b61008f600480360381019061008a9190611de6565b610129565b60405161009c9190611e39565b60405180910390f35b6100bf60048036038101906100ba9190611de6565b6103fc565b6040516100cc9190611e39565b60405180910390f35b6100ef60048036038101906100ea9190611de6565b61072d565b6040516100fc9190611e39565b60405180910390f35b7f000000000000000000000000000000000000000000000000000000000000000081565b606060007f000000000000000000000000000000000000000000000000000000000000000073ffffffffffffffffffffffffffffffffffffffff16630f85fc5a61017a8561076b909063ffffffff16565b6040518263ffffffff1660e01b81526004016101969190611e8d565b60e060405180830381865afa1580156101b4573d600060003e3d6000fd5b505050506040513d601f19601f820116820180604052508101906101d89190611f30565b90506101eb836107c7909063ffffffff16565b6101fe826000015161093e63ffffffff16565b7f000000000000000000000000000000000000000000000000000000000000000073ffffffffffffffffffffffffffffffffffffffff16639d8e09018460c001516040518263ffffffff1660e01b815260040161025b9190611fc0565b602060405180830381865afa158015610279573d600060003e3d6000fd5b505050506040513d601f19601f8201168201806040525081019061029d9190611fd6565b73ffffffffffffffffffffffffffffffffffffffff166395d89b416040518163ffffffff1660e01b8152600401600060405180830381865afa1580156102e8573d600060003e3d6000fd5b505050506040513d6000823e3d601f19601f82011682018060405250810190610311919061201b565b6103cc620151807f000000000000000000000000000000000000000000000000000000000000000073ffffffffffffffffffffffffffffffffffffffff1663955e232e87608001516040518263ffffffff1660e01b81526004016103759190611e8d565b602060405180830381865afa158015610393573d600060003e3d6000fd5b505050506040513d601f19601f820116820180604052508101906103b791906120f3565b6103c1919061217a565b610b5063ffffffff16565b6040516020016103df94939291906122d7565b6040516020818303038152906040529150506103f756505b919050565b606060007f000000000000000000000000000000000000000000000000000000000000000073ffffffffffffffffffffffffffffffffffffffff16630f85fc5a61044d8561076b909063ffffffff16565b6040518263ffffffff1660e01b81526004016104699190611e8d565b60e060405180830381865afa158015610487573d600060003e3d6000fd5b505050506040513d601f19601f820116820180604052508101906104ab9190611f30565b905060007f000000000000000000000000000000000000000000000000000000000000000073ffffffffffffffffffffffffffffffffffffffff16639d8e09018360c001516040518263ffffffff1660e01b815260040161050c9190611fc0565b602060405180830381865afa15801561052a573d600060003e3d6000fd5b505050506040513d601f19601f8201168201806040525081019061054e9190611fd6565b905060006040518060200160405280600081526020015090508173ffffffffffffffffffffffffffffffffffffffff1663d7ab74d06040518163ffffffff1660e01b8152600401600060405180830381865afa9250505080156105d457506040513d6000823e3d601f19601f820116820180604052508101906105d1919061201b565b60015b610613575b5b3d8060008114610606576040519150601f19603f3d011682016040523d82523d6000602084013e61060b565b606091505b50505b61061a565b8091508150505b61062985610bdb63ffffffff16565b6106ad848473ffffffffffffffffffffffffffffffffffffffff166395d89b416040518163ffffffff1660e01b8152600401600060405180830381865afa158015610679573d600060003e3d6000fd5b505050506040513d6000823e3d601f19601f820116820180604052508101906106a2919061201b565b610c1763ffffffff16565b6106bc85610d1d63ffffffff16565b836106cd8987610d5963ffffffff16565b6106e957604051806020016040528060008152602001506106f8565b6106f7610e0563ffffffff16565b5b60405160200161070c959493929190612492565b6040516020818303038152906040529350505050610728565050505b919050565b6060610740826107c7909063ffffffff16565b6040516020016107509190612666565b6040516020818303038152906040529050610766565b919050565b600068010000000000000000821015156107ba576040517f08c379a00000000000000000000000000000000000000000000000000000000081526004016107b1906126d7565b60405180910390fd5b8190506107c2565b919050565b60606000821415610812576040518060400160405280600181526020017f30000000000000000000000000000000000000000000000000000000000000008152602001509050610939565b600082905060005b60008214151561084857808061082f90612716565b915050600a8261083f9190612755565b9150815061081a565b60008167ffffffffffffffff81111561086457610863611ea9565b5b6040519080825280601f01601f1916602001820160405280156108965781602001600182028036833780820191505090505b5090505b60008514151561092b576001826108b19190612773565b91508150600a856108c29190612792565b60306108ce91906127b0565b60f81b81838151811015156108e6576108e56127d0565b5b60200101907effffffffffffffffffffffffffffffffffffffffffffffffffffffffffffff1916908160001a905350600a856109229190612755565b9450845061089a565b809350505050610939565050505b919050565b60606000610953836107c7909063ffffffff16565b9050600081905060008151905060606012821115156109b4576040518060400160405280600181526020017f3000000000000000000000000000000000000000000000000000000000000000815260200150945050505050610b4b56610b0c565b60006003836109c39190612792565b14156109e5576109dc8360006003610e2f63ffffffff16565b90508050610b0b565b600467ffffffffffffffff811115610a00576109ff611ea9565b5b6040519080825280601f01601f191660200182016040528015610a325781602001600182028036833780820191505090505b50905080506000600090506000600090505b6003811015610b085781600385610a5b9190612792565b14610a9157848180610a6c90612716565b9250815181101515610a8157610a806127d0565b5b602001015160f81c60f81b610ab3565b7f2e000000000000000000000000000000000000000000000000000000000000005b838380610abf90612716565b9450815181101515610ad457610ad36127d0565b5b60200101907effffffffffffffffffffffffffffffffffffffffffffffffffffffffffffff1916908160001a905350610a44565b50505b5b80610b1c83610fa063ffffffff16565b604051602001610b2d929190612801565b604051602081830303815290604052945050505050610b4b56505050505b919050565b6060600060006000610b718567ffffffffffffffff1661117863ffffffff16565b925092509250610b868261132e63ffffffff16565b610b97826107c7909063ffffffff16565b610ba8856107c7909063ffffffff16565b604051602001610bba93929190612837565b6040516020818303038152906040529350505050610bd6565050505b919050565b6060610bec826116dc63ffffffff16565b604051602001610bfc9190612907565b6040516020818303038152906040529050610c12565b919050565b60606000620151807f000000000000000000000000000000000000000000000000000000000000000073ffffffffffffffffffffffffffffffffffffffff1663955e232e86608001516040518263ffffffff1660e01b8152600401610c7c9190611e8d565b602060405180830381865afa158015610c9a573d600060003e3d6000fd5b505050506040513d601f19601f82011682018060405250810190610cbe91906120f3565b610cc8919061217a565b9050610cdd846000015161093e63ffffffff16565b83610ced83610b5063ffffffff16565b604051602001610cff939291906129ea565b604051602081830303815290604052915050610d1756505b92915050565b6060610d2e8261184763ffffffff16565b604051602001610d3e9190612b73565b6040516020818303038152906040529050610d54565b919050565b60006000831415610d6d5760019050610dff565b6000610d7e84611a2563ffffffff16565b60ff1690506000811415610d96576001915050610dff565b60008484604051602001610dab929190612c56565b6040516020818303038152906040528051906020012060001c9050817fffffffffffffffffffffffffffffffffffffffffffffffffffffffffffffffff610df29190612755565b811092505050610dff5650505b92915050565b6060604051602001610e1690613a08565b6040516020818303038152906040529050610e2c565b90565b606060008451905080841115610e455780935083505b80831115610e535780925082505b828411151515610e98576040517f08c379a0000000000000000000000000000000000000000000000000000000008152600401610e8f90613c01565b60405180910390fd5b600085905060008585610eab9190612773565b67ffffffffffffffff811115610ec457610ec3611ea9565b5b6040519080825280601f01601f191660200182016040528015610ef65781602001600182028036833780820191505090505b50905060008690505b85811015610f8a578281815181101515610f1c57610f1b6127d0565b5b602001015160f81c60f81b828883610f349190612773565b815181101515610f4757610f466127d0565b5b60200101907effffffffffffffffffffffffffffffffffffffffffffffffffffffffffffff1916908160001a9053505b8080610f8290612716565b915050610eff565b50809350505050610f99565050505b9392505050565b6060601582111515610fc657604051806020016040528060008152602001509050611173565b601882111515611010576040518060400160405280600181526020017f4b000000000000000000000000000000000000000000000000000000000000008152602001509050611173565b601b8211151561105a576040518060400160405280600181526020017f4d000000000000000000000000000000000000000000000000000000000000008152602001509050611173565b601e821115156110a4576040518060400160405280600181526020017f42000000000000000000000000000000000000000000000000000000000000008152602001509050611173565b6021821115156110ee576040518060400160405280600181526020017f54000000000000000000000000000000000000000000000000000000000000008152602001509050611173565b602482111515611138576040518060400160405280600181526020017f51000000000000000000000000000000000000000000000000000000000000008152602001509050611173565b6040517f08c379a000000000000000000000000000000000000000000000000000000000815260040161116a90613c66565b60405180910390fd5b919050565b6000600060006000849050600062253d8c62010bd9836111989190613ccb565b6111a29190613ccb565b9050600062023ab18260046111b79190613d49565b6111c19190613e0c565b9050600460038262023ab16111d69190613d49565b6111e09190613ccb565b6111ea9190613e0c565b826111f59190613e7f565b91508150600062164b0960018461120c9190613ccb565b610fa06112199190613d49565b6112239190613e0c565b9050601f6004826105b56112379190613d49565b6112419190613e0c565b8461124c9190613e7f565b6112569190613ccb565b92508250600061098f84605061126c9190613d49565b6112769190613e0c565b9050600060508261098f61128a9190613d49565b6112949190613e0c565b8561129f9190613e7f565b9050600b826112ae9190613e0c565b9450845084600c6112bf9190613d49565b6002836112cc9190613ccb565b6112d69190613e7f565b9150815084836031866112e99190613e7f565b60646112f59190613d49565b6112ff9190613ccb565b6113099190613ccb565b92508250828282985098509850505050505050611327565050505050505b9193909250565b60606001821415611379576040518060400160405280600381526020017f4a414e000000000000000000000000000000000000000000000000000000000081526020015090506116d7565b60028214156113c2576040518060400160405280600381526020017f464542000000000000000000000000000000000000000000000000000000000081526020015090506116d7565b600382141561140b576040518060400160405280600381526020017f4d4152000000000000000000000000000000000000000000000000000000000081526020015090506116d7565b6004821415611454576040518060400160405280600381526020017f415052000000000000000000000000000000000000000000000000000000000081526020015090506116d7565b600582141561149d576040518060400160405280600381526020017f4d4159000000000000000000000000000000000000000000000000000000000081526020015090506116d7565b60068214156114e6576040518060400160405280600381526020017f4a554e000000000000000000000000000000000000000000000000000000000081526020015090506116d7565b600782141561152f576040518060400160405280600381526020017f4a554c000000000000000000000000000000000000000000000000000000000081526020015090506116d7565b6008821415611578576040518060400160405280600381526020017f415547000000000000000000000000000000000000000000000000000000000081526020015090506116d7565b60098214156115c1576040518060400160405280600381526020017f534550000000000000000000000000000000000000000000000000000000000081526020015090506116d7565b600a82141561160a576040518060400160405280600381526020017f4f4354000000000000000000000000000000000000000000000000000000000081526020015090506116d7565b600b821415611653576040518060400160405280600381526020017f4e4f56000000000000000000000000000000000000000000000000000000000081526020015090506116d7565b600c82141561169c576040518060400160405280600381526020017f444543000000000000000000000000000000000000000000000000000000000081526020015090506116d7565b6040517f08c379a00000000000000000000000000000000000000000000000000000000081526004016116ce90613efd565b60405180910390fd5b919050565b606060006116f1836107c7909063ffffffff16565b905060008151905060088110151561170d578192505050611842565b6000600867ffffffffffffffff81111561172a57611729611ea9565b5b6040519080825280601f01601f19166020018201604052801561175c5781602001600182028036833780820191505090505b50905060006000600090505b6008811015611831578451600861177f9190612773565b8110156117ac577f30000000000000000000000000000000000000000000000000000000000000006117d9565b8482806117b890612716565b93508151811015156117cd576117cc6127d0565b5b602001015160f81c60f81b5b83828151811015156117ee576117ed6127d0565b5b60200101907effffffffffffffffffffffffffffffffffffffffffffffffffffffffffffff1916908160001a9053505b808061182990612716565b915050611768565b508194505050505061184256505050505b919050565b6060600061187d611870600c8560a0015167ffffffffffffffff16611b7b90919063ffffffff16565b6107c7909063ffffffff16565b90506000815190508060101080156118955750601481105b15156118d6576040517f08c379a00000000000000000000000000000000000000000000000000000000081526004016118cd90613f62565b60405180910390fd5b60006118e783611ba163ffffffff16565b9050601182141561192e576119058160006002610e2f63ffffffff16565b6040516020016119159190613fc7565b6040516020818303038152906040529350505050611a20565b60128214156119735761194a8160006003610e2f63ffffffff16565b60405160200161195a919061400f565b6040516020818303038152906040529350505050611a20565b60008151905060138314156119e157600181146119d45761199d8260006001610e2f63ffffffff16565b6119af83600184610e2f63ffffffff16565b6040516020016119c0929190614057565b6040516020818303038152906040526119d6565b815b945050505050611a20565b6040517f08c379a0000000000000000000000000000000000000000000000000000000008152600401611a13906140b6565b60405180910390fd505050505b919050565b6000600082111515611a375760006000fd5b70010000000000000000000000000000000082101515611a6c57608082901c91508150608081611a6791906140f5565b905080505b6801000000000000000082101515611a9957604082901c91508150604081611a9491906140f5565b905080505b64010000000082101515611ac257602082901c91508150602081611abd91906140f5565b905080505b6201000082101515611ae957601082901c91508150601081611ae491906140f5565b905080505b61010082101515611b0f57600882901c91508150600881611b0a91906140f5565b905080505b601082101515611b3457600482901c91508150600481611b2f91906140f5565b905080505b600482101515611b5957600282901c91508150600281611b5491906140f5565b905080505b600282101515611b7557600181611b7091906140f5565b905080505b5b919050565b6000611b9683670de0b6b3a764000084611c9663ffffffff16565b905080505b92915050565b606060008290506000815190505b600115611c68576000811415611bc457611c68565b8080611bcf90614121565b9150507f30000000000000000000000000000000000000000000000000000000000000007effffffffffffffffffffffffffffffffffffffffffffffffffffffffffffff19168282815181101515611c2a57611c296127d0565b5b602001015160f81c60f81b7effffffffffffffffffffffffffffffffffffffffffffffffffffffffffffff1916141515611c6357611c68565b611baf565b611c86846000600184611c7b91906127b0565b610e2f63ffffffff16565b92505050611c915650505b919050565b6000600060006000198587098587029250828110838203039150506000811415611cd957600084111515611cca5760006000fd5b83820492508292505050611db3565b8084111515611ce85760006000fd5b60008486880990508281118203915080830392506000856001877fffffffffffffffffffffffffffffffffffffffffffffffffffffffffffffffff030116905080508086049550808404935060018182600003040190508083028417935083506000600287600302189050808702600203810290508050808702600203810290508050808702600203810290508050808702600203810290508050808702600203810290508050808702600203810290508050808502955085505084945050505050611db356505050505b93925050505661415e565b600060208201905073ffffffffffffffffffffffffffffffffffffffff831682525b92915050565b600060208284031215611df95760006000fd5b813590505b92915050565b60005b83811015611e235780820151818401525b602081019050611e07565b83811115611e32576000848401525b505050505b565b6020815260008251806020840152611e58816040850160208701611e04565b60407fffffffffffffffffffffffffffffffffffffffffffffffffffffffffffffffe0601f8301168401019150505b92915050565b600060208201905067ffffffffffffffff831682525b92915050565b7f4e487b7100000000000000000000000000000000000000000000000000000000600052604160045260246000fd5b565b6000604051905060e0810181811067ffffffffffffffff82111715611f0257611f01611ea9565b5b80604052505b90565b60008151905067ffffffffffffffff811681141515611f2a5760006000fd5b5b919050565b600060e08284031215611f435760006000fd5b611f4b611eda565b825181526020830151602082015260408301516040820152611f6f60608401611f0b565b6060820152611f8060808401611f0b565b6080820152611f9160a08401611f0b565b60a082015260c083015161ffff811681141515611fae5760006000fd5b8060c083015250809150505b92915050565b600060208201905061ffff831682525b92915050565b600060208284031215611fe95760006000fd5b815173ffffffffffffffffffffffffffffffffffffffff8116811415156120105760006000fd5b809150505b92915050565b60006020828403121561202e5760006000fd5b815167ffffffffffffffff808211156120475760006000fd5b818401915084601f830112151561205e5760006000fd5b81518181111561207157612070611ea9565b5b7fffffffffffffffffffffffffffffffffffffffffffffffffffffffffffffffe060405181603f83601f86011601168101915080821084831117156120b9576120b8611ea9565b5b816040528281528760208487010111156120d35760006000fd5b6120e4836020830160208801611e04565b80955050505050505b92915050565b6000602082840312156121065760006000fd5b61210f82611f0b565b90505b92915050565b7f4e487b7100000000000000000000000000000000000000000000000000000000600052601260045260246000fd5b565b7f4e487b7100000000000000000000000000000000000000000000000000000000600052601160045260246000fd5b565b600067ffffffffffffffff80841680151561219857612197612118565b5b8082851604925050505b92915050565b600081516121ba818560208601611e04565b8084019150505b92915050565b7f5c6e000000000000000000000000000000000000000000000000000000000000815260006002820190505b919050565b7f20696e746f207468652044616f2e00000000000000000000000000000000000081526000600e820190505b919050565b7f546865206f776e65722063616e20756e6c6f636b2074686520756e6465726c7981527f696e6720746f6b656e73206f6e2000000000000000000000000000000000000060208201526000602e820190505b919050565b7f2e2054686973204e46542077696c6c20616c736f206265206e6f6e2d7472616e81527f736665727261626c6520756e74696c207468617420646174652e00000000000060208201526000603a820190505b919050565b7f4e4654200000000000000000000000000000000000000000000000000000000081526000855161230f816004850160208a01611e04565b80830190507f20726570726573656e747320612070726f746f636f6c20746f6b656e206c6f6360048201527f6b20706f736974696f6e20696e207468652054727573746c6573732044616f2e60248201527f5c6e00000000000000000000000000000000000000000000000000000000000060448201527f54686520706f736974696f6e207761732063726561746564206279206c6f636b60468201527f696e672000000000000000000000000000000000000000000000000000000000606682015285516123e581606a840160208a01611e04565b8082019150507f2000000000000000000000000000000000000000000000000000000000000000606a820152845161242481606b840160208901611e04565b61245361244e61244861244361243e606b868801016121f8565b6121c7565b612229565b876121a8565b612280565b925050505b95945050505050565b7f3c2f7376673e0000000000000000000000000000000000000000000000000000815260006006820190505b919050565b7f3c7376672077696474683d2236333722206865696768743d223333302220766981527f6577426f783d223020302036333720333330222066696c6c3d226e6f6e65222060208201527f786d6c6e733d22687474703a2f2f7777772e77332e6f72672f323030302f737660408201527f67223e000000000000000000000000000000000000000000000000000000000060608201527f3c726563742077696474683d2236333722206865696768743d2233383122207260638201527f783d2235222066696c6c3d22626c61636b222f3e00000000000000000000000060838201527f3c70617468206f7061636974793d22302e322220643d224d3633372032353848609782015260007f3022207374726f6b653d22776869746522207374726f6b652d77696474683d228060b78401527f312e303522207374726f6b652d6d697465726c696d69743d223130222f3e00008060d78501527f3c70617468206f7061636974793d22302e322220643d224d363337203131384860f58501528161011585015280610135850152505061265961265461264e61264861264261263c61015388018d6121a8565b8b6121a8565b896121a8565b876121a8565b856121a8565b612461565b90505b9695505050505050565b7f5444616f5f506f736974696f6e5f00000000000000000000000000000000000081526000825161269e81600e850160208701611e04565b80830190507f2e73766700000000000000000000000000000000000000000000000000000000600e820152601281019150505b92915050565b60208152601160208201527f6d6f7265207468616e2036342062697473000000000000000000000000000000604082015260006060820190505b919050565b60007fffffffffffffffffffffffffffffffffffffffffffffffffffffffffffffffff82141561274957612748612149565b5b6001820190505b919050565b600082151561276757612766612118565b5b82820490505b92915050565b60008282101561278657612785612149565b5b82820390505b92915050565b60008215156127a4576127a3612118565b5b82820690505b92915050565b600082198211156127c4576127c3612149565b5b82820190505b92915050565b7f4e487b7100000000000000000000000000000000000000000000000000000000600052603260045260246000fd5b565b60008351612813818460208801611e04565b80830190508351612828818360208801611e04565b808201925050505b9392505050565b60008451612849818460208901611e04565b80830190507f200000000000000000000000000000000000000000000000000000000000000081528451612884816001840160208901611e04565b8082019150507f2c20000000000000000000000000000000000000000000000000000000000000600182015283516128c3816003840160208801611e04565b600381830101925050505b949350505050565b7f3c2f746578743e00000000000000000000000000000000000000000000000000815260006007820190505b919050565b7f3c7465787420783d2231382220793d223934222066696c6c3d2223463646364681527f432220666f6e742d73697a653d22393470782220666f6e742d66616d696c793d60208201527f22417269616c2c2048656c7665746963612c2073616e732d7365726966223e0060408201527f2300000000000000000000000000000000000000000000000000000000000000605f820152600082516129b1816060850160208701611e04565b80830190507f3c2f746578743e000000000000000000000000000000000000000000000000006060820152606781019150505b92915050565b7f3c7465787420783d2231382220793d22313837222066696c6c3d22234636463681527f46432220666f6e742d73697a653d22353470782220666f6e742d66616d696c79602082015260007f3d22417269616c2c2048656c7665746963612c2073616e732d7365726966223e8060408401528551612a6f816060860160208a01611e04565b80840190507f200000000000000000000000000000000000000000000000000000000000000060608201528551612aad816061840160208a01611e04565b8082019150507f205354414b45443c2f746578743e00000000000000000000000000000000000060618201527f3c7465787420783d2231382220793d22323336222066696c6c3d222346364636606f8201527f46432220666f6e742d73697a653d22353070782220666f6e742d66616d696c79608f8201528160af8201527f20554e4c4f434b5320000000000000000000000000000000000000000000000060cf820152612b66612b6160d88301876121a8565b6128d6565b925050505b949350505050565b7f3c7465787420783d2231382220793d22333036222066696c6c3d22234636463681527f46432220666f6e742d73697a653d22333070782220666f6e742d66616d696c7960208201527f3d22417269616c2c2048656c7665746963612c2073616e732d7365726966223e604082015260008251612bf7816060850160208701611e04565b80830190507f78204d554c5449504c494552000000000000000000000000000000000000000060608201527f3c2f746578743e00000000000000000000000000000000000000000000000000606c820152607381019150505b92915050565b8281527fffffffffffffffffffffffffffffffffffffffff0000000000000000000000008260601b16602082015260006034820190505b9392505050565b7f3c7061746820643d224d353032203238302e3032563330372e3432433530312e81527f393939203330372e353233203530322e303138203330372e363236203530322e60208201527f303537203330372e373232433530322e303935203330372e383137203530322e60408201527f313532203330372e393035203530322e323235203330372e393738433530322e60608201527f323937203330382e303532203530322e333834203330382e3131203530322e3460808201527f3739203330382e3135433530322e353734203330382e3139203530322e36373760a08201527f203330382e3231203530322e3738203330382e3231483531362e30392220737460c08201527f726f6b653d222343363943364422207374726f6b652d77696474683d22312e3660e08201527f3622207374726f6b652d6d697465726c696d69743d22313022207374726f6b656101008201527f2d6c696e656361703d22726f756e64222f3e00000000000000000000000000006101208201526000610132820190505b919050565b7f3c7061746820643d224d3531312e3339203238302e3032563239372e3531433581527f31312e333933203239372e373138203531312e343737203239372e393136203560208201527f31312e363235203239382e303632433531312e373733203239382e323038203560408201527f31312e393732203239382e3239203531322e3138203239382e3239483532342e60608201527f3138433532342e333839203239382e323933203532342e353838203239382e3360808201527f3737203532342e373336203239382e353234433532342e383833203239382e3660a08201527f3732203532342e393637203239382e383731203532342e3937203239392e303860c08201527f563330382e323122207374726f6b653d222343363943364422207374726f6b6560e08201527f2d77696474683d22312e363622207374726f6b652d6d697465726c696d69743d6101008201527f22313022207374726f6b652d6c696e656361703d22726f756e64222f3e000000610120820152600061013d820190505b919050565b7f3c7061746820643d224d3533342e3838203330382e3231563239302e3231433581527f33342e383831203239302e313037203533342e383632203239302e303034203560208201527f33342e383234203238392e393038433533342e373835203238392e383133203560408201527f33342e373238203238392e373235203533342e363535203238392e363532433560608201527f33342e353833203238392e353738203533342e343936203238392e353220353360808201527f342e343031203238392e3438433533342e333036203238392e3434203533342e60a08201527f323033203238392e3432203533342e31203238392e3432483532322e3143353260c08201527f312e383931203238392e3432203532312e3639203238392e333337203532312e60e08201527f353431203238392e313839433532312e333933203238392e3034203532312e336101008201527f31203238382e3834203532312e3331203238382e3633563238302e37394335326101208201527f312e3331203238302e3538203532312e333933203238302e3338203532312e356101408201527f3431203238302e323331433532312e3639203238302e303833203532312e38396101608201527f3120323830203532322e3120323830483535322e3839433535332e31203238306101808201527f203535332e333031203238302e303833203535332e343439203238302e3233316101a08201527f433535332e353937203238302e3338203535332e3638203238302e35382035356101c08201527f332e3638203238302e3739563330382e313922207374726f6b653d22234336396101e08201527f43364422207374726f6b652d77696474683d22312e363622207374726f6b652d6102008201527f6d697465726c696d69743d22313022207374726f6b652d6c696e656361703d226102208201527f726f756e64222f3e0000000000000000000000000000000000000000000000006102408201526000610248820190505b919050565b7f3c7061746820643d224d3534342e3238203238302e3534563330382e3231222081527f7374726f6b653d222343363943364422207374726f6b652d77696474683d223160208201527f2e363622207374726f6b652d6d697465726c696d69743d22313022207374726f60408201527f6b652d6c696e656361703d22726f756e64222f3e000000000000000000000000606082015260006074820190505b919050565b7f3c7061746820643d224d3536332e3038203238302e3032563330382e3231222081527f7374726f6b653d222343363943364422207374726f6b652d77696474683d223160208201527f2e363622207374726f6b652d6d697465726c696d69743d22313022207374726f60408201527f6b652d6c696e656361703d22726f756e64222f3e000000000000000000000000606082015260006074820190505b919050565b7f3c7061746820643d224d3536332e3038203238302e3032483538312e3837222081527f7374726f6b653d222343363943364422207374726f6b652d77696474683d223160208201527f2e363622207374726f6b652d6d697465726c696d69743d22313022207374726f60408201527f6b652d6c696e656361703d22726f756e64222f3e000000000000000000000000606082015260006074820190505b919050565b7f3c7061746820643d224d3537322e3437203238302e3032563330382e3231222081527f7374726f6b653d222343363943364422207374726f6b652d77696474683d223160208201527f2e363622207374726f6b652d6d697465726c696d69743d22313022207374726f60408201527f6b652d6c696e656361703d22726f756e64222f3e000000000000000000000000606082015260006074820190505b919050565b7f3c7061746820643d224d3630352e3632203238382e3634563330382e3231483681527f30392e3936433631312e363437203330382e3231203631332e3236342033303760208201527f2e3534203631342e343537203330362e333437433631352e3635203330352e3160408201527f3534203631362e3332203330332e353337203631362e3332203330312e38355660608201527f3238362e3339433631362e3332203238342e373032203631352e36352032383360808201527f2e303834203631342e343538203238312e383839433631332e3236352032383060a08201527f2e363935203631312e363438203238302e303233203630392e3936203238302e60c08201527f3032483539322e3035433539312e383432203238302e303233203539312e363460e08201527f34203238302e313037203539312e343938203238302e323535433539312e33356101008201527f32203238302e343033203539312e3237203238302e363032203539312e3237206101208201527f3238302e3831563238382e3633433539312e3237203238382e3834203539312e6101408201527f313837203238392e3034203539312e303338203238392e313839433539302e386101608201527f39203238392e333337203539302e363839203238392e3432203539302e3438206101808201527f3238392e3432483538322e3636433538322e353536203238392e3432203538326101a08201527f2e343533203238392e3434203538322e333538203238392e3438433538322e326101c08201527f3632203238392e3532203538322e313735203238392e353738203538322e31306101e08201527f31203238392e363531433538322e303238203238392e373235203538312e39376102008201527f203238392e383132203538312e3933203238392e393038433538312e383920326102208201527f39302e303034203538312e3837203239302e313036203538312e3837203239306102408201527f2e3231563330372e3432433538312e3837203330372e353234203538312e38396102608201527f203330372e363236203538312e3933203330372e373232433538312e393720336102808201527f30372e383138203538322e303238203330372e393035203538322e31303120336102a08201527f30372e393739433538322e313735203330382e303532203538322e32363220336102c08201527f30382e3131203538322e333538203330382e3135433538322e343533203330386102e08201527f2e3139203538322e353536203330382e3231203538322e3636203330382e32316103008201527f483539352e393622207374726f6b653d222343363943364422207374726f6b656103208201527f2d77696474683d22312e363622207374726f6b652d6d697465726c696d69743d6103408201527f22313022207374726f6b652d6c696e656361703d22726f756e64222f3e000000610360820152600061037d820190505b919050565b7f3c7061746820643d224d3539352e3936203239382e3832483539312e3237222081527f7374726f6b653d222343363943364422207374726f6b652d77696474683d223160208201527f2e363622207374726f6b652d6d697465726c696d69743d22313022207374726f60408201527f6b652d6c696e656361703d22726f756e64222f3e000000000000000000000000606082015260006074820190505b919050565b7f3c7061746820643d224d3536322e36312035372e35373939433536322e36312081527f35392e37333138203536332e3033342036312e38363236203536332e3835382060208201527f36332e38353036433536342e3638312036352e38333836203536352e3838392060408201527f36372e36343437203536372e3431312036392e31363539433536382e3933332060608201527f37302e363837203537302e37342037312e38393334203537322e37323820373260808201527f2e373136433537342e3731372037332e35333835203537362e3834382037332e60a08201527f39363133203537392037332e393539395634312e31383939433537342e36353760c08201527f2034312e32303331203537302e3439362034322e39333432203536372e34323560e08201527f2034362e303035433536342e3335342034392e30373539203536322e363233206101008201527f35332e32333731203536322e36312035372e353739395a222066696c6c3d22626101208201527f6c61636b222f3e000000000000000000000000000000000000000000000000006101408201526000613bf9613bf4613bef613bea613be5613be0613bdb613bd6613bd16101478b01612c94565b612e1e565b612fa8565b613291565b613334565b6133d7565b61347a565b61351d565b613965565b90505b919050565b60208152602b60208201527f5444616f506f736974696f6e4e465444657363726970746f723a20537562737460408201527f72696e67206572726f722e000000000000000000000000000000000000000000606082015260006080820190505b919050565b60208152602c60208201527f5444616f506f736974696f6e4e465444657363726970746f723a204e756d626560408201527f7220746f6f206c617267652e0000000000000000000000000000000000000000606082015260006080820190505b919050565b600060008212827f7fffffffffffffffffffffffffffffffffffffffffffffffffffffffffffffff03841381151615613d0757613d06612149565b5b827f8000000000000000000000000000000000000000000000000000000000000000038412811615613d3c57613d3b612149565b5b5082820190505b92915050565b60007f7fffffffffffffffffffffffffffffffffffffffffffffffffffffffffffffff600084136000841385830485118282161615613d8b57613d8a612149565b5b7f80000000000000000000000000000000000000000000000000000000000000006000871286820588128184161615613dc757613dc6612149565b5b60008712925087820587128484161615613de457613de3612149565b5b87850587128184161615613dfb57613dfa612149565b5b505050505082820290505b92915050565b6000821515613e1e57613e1d612118565b5b7fffffffffffffffffffffffffffffffffffffffffffffffffffffffffffffffff83147f800000000000000000000000000000000000000000000000000000000000000083141615613e7357613e72612149565b5b82820590505b92915050565b600060008312837f800000000000000000000000000000000000000000000000000000000000000001831281151615613ebb57613eba612149565b5b837f7fffffffffffffffffffffffffffffffffffffffffffffffffffffffffffffff018313811615613ef057613eef612149565b5b5082820390505b92915050565b60208152602960208201527f5444616f506f736974696f6e4e465444657363726970746f723a20556e6b6e6f60408201527f776e204d6f6e74682e0000000000000000000000000000000000000000000000606082015260006080820190505b919050565b60208152602b60208201527f5444616f506f736974696f6e4e465444657363726970746f723a20496e76616c60408201527f6964204475726174696f6e000000000000000000000000000000000000000000606082015260006080820190505b919050565b7f302e300000000000000000000000000000000000000000000000000000000000815260008251613fff816003850160208701611e04565b6003818401019150505b92915050565b7f302e000000000000000000000000000000000000000000000000000000000000815260008251614047816002850160208701611e04565b6002818401019150505b92915050565b60008351614069818460208801611e04565b80830190507f2e00000000000000000000000000000000000000000000000000000000000000815283516140a4816001840160208801611e04565b600181830101925050505b9392505050565b60208152601660208201527f53686f756c64206e657665722067657420686572652e00000000000000000000604082015260006060820190505b919050565b600060ff821660ff84168060ff0382111561411357614112612149565b5b808201925050505b92915050565b600081151561413357614132612149565b5b7fffffffffffffffffffffffffffffffffffffffffffffffffffffffffffffffff820190505b919050565bfea2646970667358221220f8142d124a4c766026643c200a1213ec290f539e8e5ac45931de6a827c89d91e64736f6c634300080c0033",
  "linkReferences": {},
  "deployedLinkReferences": {}
}