{
  "_format": "hh-sol-artifact-1",
  "contractName": "TDaoPositionNFTDescriptor",
  "sourceName": "contracts/core/TDao/TDaoPositionNFTDescriptor.sol",
  "abi": [
    {
      "inputs": [
        {
          "internalType": "contract ITDao",
          "name": "_tDao",
          "type": "address"
        }
      ],
      "stateMutability": "nonpayable",
      "type": "constructor"
    },
    {
      "inputs": [
        {
          "internalType": "uint64",
          "name": "positionID",
          "type": "uint64"
        }
      ],
      "name": "getTokenURI",
      "outputs": [
        {
          "internalType": "string",
          "name": "",
          "type": "string"
        }
      ],
      "stateMutability": "view",
      "type": "function"
    },
    {
      "inputs": [],
      "name": "tDao",
      "outputs": [
        {
          "internalType": "contract ITDao",
          "name": "",
          "type": "address"
        }
      ],
      "stateMutability": "view",
      "type": "function"
    }
  ],
  "bytecode": "0x60a0604052348015620000125760006000fd5b5060405162003c5e38038062003c5e833981810160405281019062000038919062000080565b5b8073ffffffffffffffffffffffffffffffffffffffff1660808173ffffffffffffffffffffffffffffffffffffffff1660601b815260140150505b50620000b756620000b6565b60006020828403121562000092578081fd5b81516001600160a01b03811681141515620000ab578182fd5b809150505b92915050565b5b60805160601c613b74620000ea600039600081816095015281816101440152818161037701526103f00152613b746000f3fe60806040523480156100115760006000fd5b506004361061003b5760003560e01c80632bf2bc8f146100415780634c92beb7146100715761003b565b60006000fd5b61005b60048036038101906100569190611cd5565b61008f565b6040516100689190613451565b60405180910390f35b610079610375565b6040516100869190613429565b60405180910390f35b606060007f000000000000000000000000000000000000000000000000000000000000000073ffffffffffffffffffffffffffffffffffffffff16630f85fc5a846040518263ffffffff1660e01b81526004016100ec919061368e565b60e06040518083038186803b1580156101055760006000fd5b505afa15801561011a573d600060003e3d6000fd5b505050506040513d601f19601f8201168201806040525081019061013e9190611c3d565b905060007f000000000000000000000000000000000000000000000000000000000000000073ffffffffffffffffffffffffffffffffffffffff16639d8e09018360c001516040518263ffffffff1660e01b815260040161019f9190613678565b60206040518083038186803b1580156101b85760006000fd5b505afa1580156101cd573d600060003e3d6000fd5b505050506040513d601f19601f820116820180604052508101906101f19190611b2c565b905060006040518060200160405280600081526020015090508173ffffffffffffffffffffffffffffffffffffffff1663d7ab74d06040518163ffffffff1660e01b815260040160006040518083038186803b1580156102515760006000fd5b505afa92505050801561028757506040513d6000823e3d601f19601f820116820180604052508101906102849190611b6d565b60015b6102c6575b5b3d80600081146102b9576040519150601f19603f3d011682016040523d82523d6000602084013e6102be565b606091505b50505b6102cd565b8091508150505b6102dc8561039963ffffffff16565b6102eb846103df63ffffffff16565b6102fa8561053a63ffffffff16565b836103158967ffffffffffffffff168761057663ffffffff16565b6103315760405180602001604052806000815260200150610340565b61033f61062263ffffffff16565b5b604051602001610354959493929190613217565b6040516020818303038152906040529350505050610370565050505b919050565b7f000000000000000000000000000000000000000000000000000000000000000081565b60606103b48267ffffffffffffffff1661064c63ffffffff16565b6040516020016103c49190613134565b60405160208183030381529060405290506103da565b919050565b60606000600060006104bc620151807f000000000000000000000000000000000000000000000000000000000000000073ffffffffffffffffffffffffffffffffffffffff1663955e232e88608001516040518263ffffffff1660e01b815260040161044b919061368e565b60206040518083038186803b1580156104645760006000fd5b505afa158015610479573d600060003e3d6000fd5b505050506040513d601f19601f8201168201806040525081019061049d9190611cfc565b6104a79190613835565b67ffffffffffffffff1661082963ffffffff16565b9250925092506104d585600001516109df63ffffffff16565b6104e483610c6363ffffffff16565b6104f583611011909063ffffffff16565b61050686611011909063ffffffff16565b6040516020016105199493929190612d3a565b6040516020818303038152906040529350505050610535565050505b919050565b606061054b826111d463ffffffff16565b60405160200161055b9190612c0f565b6040516020818303038152906040529050610571565b919050565b6000600083141561058a576001905061061c565b600061059b846113b263ffffffff16565b60ff16905060008114156105b357600191505061061c565b600084846040516020016105c89291906133eb565b6040516020818303038152906040528051906020012060001c9050817fffffffffffffffffffffffffffffffffffffffffffffffffffffffffffffffff61060f9190613817565b81109250505061061c5650505b92915050565b606060405160200161063390612f3b565b6040516020818303038152906040529050610649565b90565b6060600061066183611011909063ffffffff16565b905060008151905060088110151561067d578192505050610824565b6000600867ffffffffffffffff8111156106c0577f4e487b7100000000000000000000000000000000000000000000000000000000600052604160045260246000fd5b6040519080825280601f01601f1916602001820160405280156106f25781602001600182028036833780820191505090505b50905060006000600090505b60088110156108135784516008610715919061399f565b811015610742577f3000000000000000000000000000000000000000000000000000000000000000610795565b84828061074e90613a30565b9350815181101515610789577f4e487b7100000000000000000000000000000000000000000000000000000000600052603260045260246000fd5b602001015160f81c60f81b5b83828151811015156107d0577f4e487b7100000000000000000000000000000000000000000000000000000000600052603260045260246000fd5b60200101907effffffffffffffffffffffffffffffffffffffffffffffffffffffffffffff1916908160001a9053505b808061080b90613a30565b9150506106fe565b508194505050505061082456505050505b919050565b6000600060006000849050600062253d8c62010bd98361084991906136db565b61085391906136db565b9050600062023ab18260046108689190613863565b61087291906137a4565b9050600460038262023ab16108879190613863565b61089191906136db565b61089b91906137a4565b826108a69190613922565b91508150600062164b096001846108bd91906136db565b610fa06108ca9190613863565b6108d491906137a4565b9050601f6004826105b56108e89190613863565b6108f291906137a4565b846108fd9190613922565b61090791906136db565b92508250600061098f84605061091d9190613863565b61092791906137a4565b9050600060508261098f61093b9190613863565b61094591906137a4565b856109509190613922565b9050600b8261095f91906137a4565b9450845084600c6109709190613863565b60028361097d91906136db565b6109879190613922565b91508150848360318661099a9190613922565b60646109a69190613863565b6109b091906136db565b6109ba91906136db565b925082508282829850985098505050505050506109d8565050505050505b9193909250565b606060006109f483611011909063ffffffff16565b905060008190506000815190506060601282111515610a55576040518060400160405280600181526020017f3000000000000000000000000000000000000000000000000000000000000000815260200150945050505050610c5e56610c1f565b6000600383610a649190613a6f565b1415610a8657610a7d836000600361150863ffffffff16565b90508050610c1e565b600467ffffffffffffffff811115610ac7577f4e487b7100000000000000000000000000000000000000000000000000000000600052604160045260246000fd5b6040519080825280601f01601f191660200182016040528015610af95781602001600182028036833780820191505090505b50905080506000600090506000600090505b6003811015610c1b5781600385610b229190613a6f565b14610b7e57848180610b3390613a30565b9250815181101515610b6e577f4e487b7100000000000000000000000000000000000000000000000000000000600052603260045260246000fd5b602001015160f81c60f81b610ba0565b7f2e000000000000000000000000000000000000000000000000000000000000005b838380610bac90613a30565b9450815181101515610be7577f4e487b7100000000000000000000000000000000000000000000000000000000600052603260045260246000fd5b60200101907effffffffffffffffffffffffffffffffffffffffffffffffffffffffffffff1916908160001a905350610b0b565b50505b5b80610c2f836116eb63ffffffff16565b604051602001610c40929190612b7a565b604051602081830303815290604052945050505050610c5e56505050505b919050565b60606001821415610cae576040518060400160405280600381526020017f4a414e0000000000000000000000000000000000000000000000000000000000815260200150905061100c565b6002821415610cf7576040518060400160405280600381526020017f4645420000000000000000000000000000000000000000000000000000000000815260200150905061100c565b6003821415610d40576040518060400160405280600381526020017f4d41520000000000000000000000000000000000000000000000000000000000815260200150905061100c565b6004821415610d89576040518060400160405280600381526020017f4150520000000000000000000000000000000000000000000000000000000000815260200150905061100c565b6005821415610dd2576040518060400160405280600381526020017f4d41590000000000000000000000000000000000000000000000000000000000815260200150905061100c565b6006821415610e1b576040518060400160405280600381526020017f4a554e0000000000000000000000000000000000000000000000000000000000815260200150905061100c565b6007821415610e64576040518060400160405280600381526020017f4a554c0000000000000000000000000000000000000000000000000000000000815260200150905061100c565b6008821415610ead576040518060400160405280600381526020017f4155470000000000000000000000000000000000000000000000000000000000815260200150905061100c565b6009821415610ef6576040518060400160405280600381526020017f5345500000000000000000000000000000000000000000000000000000000000815260200150905061100c565b600a821415610f3f576040518060400160405280600381526020017f4f43540000000000000000000000000000000000000000000000000000000000815260200150905061100c565b600b821415610f88576040518060400160405280600381526020017f4e4f560000000000000000000000000000000000000000000000000000000000815260200150905061100c565b600c821415610fd1576040518060400160405280600381526020017f4445430000000000000000000000000000000000000000000000000000000000815260200150905061100c565b6040517f08c379a0000000000000000000000000000000000000000000000000000000008152600401611003906134a5565b60405180910390fd5b919050565b6060600082141561105c576040518060400160405280600181526020017f300000000000000000000000000000000000000000000000000000000000000081526020015090506111cf565b600082905060005b60008214151561109257808061107990613a30565b915050600a826110899190613817565b91508150611064565b60008167ffffffffffffffff8111156110d4577f4e487b7100000000000000000000000000000000000000000000000000000000600052604160045260246000fd5b6040519080825280601f01601f1916602001820160405280156111065781602001600182028036833780820191505090505b5090505b6000851415156111c157600182611121919061399f565b91508150600a856111329190613a6f565b603061113e9190613758565b60f81b818381518110151561117c577f4e487b7100000000000000000000000000000000000000000000000000000000600052603260045260246000fd5b60200101907effffffffffffffffffffffffffffffffffffffffffffffffffffffffffffff1916908160001a905350600a856111b89190613817565b9450845061110a565b8093505050506111cf565050505b919050565b6060600061120a6111fd600c8560a0015167ffffffffffffffff166118c390919063ffffffff16565b611011909063ffffffff16565b90506000815190508060101080156112225750601481105b1515611263576040517f08c379a000000000000000000000000000000000000000000000000000000000815260040161125a90613613565b60405180910390fd5b6000611274836118e963ffffffff16565b905060118214156112bb57611292816000600261150863ffffffff16565b6040516020016112a29190612ef3565b60405160208183030381529060405293505050506113ad565b6012821415611300576112d7816000600361150863ffffffff16565b6040516020016112e79190612cf2565b60405160208183030381529060405293505050506113ad565b600081519050601383141561136e57600181146113615761132a826000600161150863ffffffff16565b61133c8360018461150863ffffffff16565b60405160200161134d929190612bb0565b604051602081830303815290604052611363565b815b9450505050506113ad565b6040517f08c379a00000000000000000000000000000000000000000000000000000000081526004016113a09061350a565b60405180910390fd505050505b919050565b60006000821115156113c45760006000fd5b700100000000000000000000000000000000821015156113f957608082901c915081506080816113f49190613778565b905080505b680100000000000000008210151561142657604082901c915081506040816114219190613778565b905080505b6401000000008210151561144f57602082901c9150815060208161144a9190613778565b905080505b620100008210151561147657601082901c915081506010816114719190613778565b905080505b6101008210151561149c57600882901c915081506008816114979190613778565b905080505b6010821015156114c157600482901c915081506004816114bc9190613778565b905080505b6004821015156114e657600282901c915081506002816114e19190613778565b905080505b600282101515611502576001816114fd9190613778565b905080505b5b919050565b60606000845190508084111561151e5780935083505b8083111561152c5780925082505b828411151515611571576040517f08c379a0000000000000000000000000000000000000000000000000000000008152600401611568906135ae565b60405180910390fd5b600085905060008585611584919061399f565b67ffffffffffffffff8111156115c3577f4e487b7100000000000000000000000000000000000000000000000000000000600052604160045260246000fd5b6040519080825280601f01601f1916602001820160405280156115f55781602001600182028036833780820191505090505b50905060008690505b858110156116d5578281815181101515611641577f4e487b7100000000000000000000000000000000000000000000000000000000600052603260045260246000fd5b602001015160f81c60f81b828883611659919061399f565b815181101515611692577f4e487b7100000000000000000000000000000000000000000000000000000000600052603260045260246000fd5b60200101907effffffffffffffffffffffffffffffffffffffffffffffffffffffffffffff1916908160001a9053505b80806116cd90613a30565b9150506115fe565b508093505050506116e4565050505b9392505050565b6060601582111515611711576040518060200160405280600081526020015090506118be565b60188211151561175b576040518060400160405280600181526020017f4b0000000000000000000000000000000000000000000000000000000000000081526020015090506118be565b601b821115156117a5576040518060400160405280600181526020017f4d0000000000000000000000000000000000000000000000000000000000000081526020015090506118be565b601e821115156117ef576040518060400160405280600181526020017f420000000000000000000000000000000000000000000000000000000000000081526020015090506118be565b602182111515611839576040518060400160405280600181526020017f540000000000000000000000000000000000000000000000000000000000000081526020015090506118be565b602482111515611883576040518060400160405280600181526020017f510000000000000000000000000000000000000000000000000000000000000081526020015090506118be565b6040517f08c379a00000000000000000000000000000000000000000000000000000000081526004016118b590613549565b60405180910390fd5b919050565b60006118de83670de0b6b3a764000084611a0463ffffffff16565b905080505b92915050565b606060008290506000815190505b6001156119d657600081141561190c576119d6565b8080611917906139f3565b9150507f30000000000000000000000000000000000000000000000000000000000000007effffffffffffffffffffffffffffffffffffffffffffffffffffffffffffff19168282815181101515611998577f4e487b7100000000000000000000000000000000000000000000000000000000600052603260045260246000fd5b602001015160f81c60f81b7effffffffffffffffffffffffffffffffffffffffffffffffffffffffffffff19161415156119d1576119d6565b6118f7565b6119f48460006001846119e99190613758565b61150863ffffffff16565b925050506119ff5650505b919050565b6000600060006000198587098587029250828110838203039150506000811415611a4757600084111515611a385760006000fd5b83820492508292505050611b21565b8084111515611a565760006000fd5b60008486880990508281118203915080830392506000856001877fffffffffffffffffffffffffffffffffffffffffffffffffffffffffffffffff030116905080508086049550808404935060018182600003040190508083028417935083506000600287600302189050808702600203810290508050808702600203810290508050808702600203810290508050808702600203810290508050808702600203810290508050808702600203810290508050808502955085505084945050505050611b2156505050505b939250505056613b3d565b600060208284031215611b3d578081fd5b815173ffffffffffffffffffffffffffffffffffffffff811681141515611b62578182fd5b809150505b92915050565b600060208284031215611b7e578081fd5b815167ffffffffffffffff80821115611b95578283fd5b818401915084601f8301121515611baa578283fd5b815181811115611bbd57611bbc613aef565b5b7fffffffffffffffffffffffffffffffffffffffffffffffffffffffffffffffe060405181603f83601f8601160116810191508082108483111715611c0557611c04613aef565b5b81604052828152876020848701011115611c1d578586fd5b611c2e8360208301602088016139be565b80955050505050505b92915050565b600060e08284031215611c4e578081fd5b611c566136aa565b8251815260208301516020820152604083015160408201526060830151611c7c81613b20565b806060830152506080830151611c9181613b20565b8060808301525060a0830151611ca681613b20565b8060a08301525060c083015161ffff811681141515611cc3578283fd5b8060c083015250809150505b92915050565b600060208284031215611ce6578081fd5b8135611cf181613b20565b809150505b92915050565b600060208284031215611d0d578081fd5b8151611d1881613b20565b809150505b92915050565b60008151611d358185602086016139be565b8084019150505b92915050565b7f3c7061746820643d224d3534342e3238203238302e3534563330382e3231222081527f7374726f6b653d222343363943364422207374726f6b652d77696474683d223160208201527f2e363622207374726f6b652d6d697465726c696d69743d22313022207374726f60408201527f6b652d6c696e656361703d22726f756e64222f3e000000000000000000000000606082015260006074820190505b919050565b7f3c7061746820643d224d3536332e3038203238302e3032563330382e3231222081527f7374726f6b653d222343363943364422207374726f6b652d77696474683d223160208201527f2e363622207374726f6b652d6d697465726c696d69743d22313022207374726f60408201527f6b652d6c696e656361703d22726f756e64222f3e000000000000000000000000606082015260006074820190505b919050565b7f3c7061746820643d224d3539352e3936203239382e3832483539312e3237222081527f7374726f6b653d222343363943364422207374726f6b652d77696474683d223160208201527f2e363622207374726f6b652d6d697465726c696d69743d22313022207374726f60408201527f6b652d6c696e656361703d22726f756e64222f3e000000000000000000000000606082015260006074820190505b919050565b7f3c7061746820643d224d3531312e3339203238302e3032563239372e3531433581527f31312e333933203239372e373138203531312e343737203239372e393136203560208201527f31312e363235203239382e303632433531312e373733203239382e323038203560408201527f31312e393732203239382e3239203531322e3138203239382e3239483532342e60608201527f3138433532342e333839203239382e323933203532342e353838203239382e3360808201527f3737203532342e373336203239382e353234433532342e383833203239382e3660a08201527f3732203532342e393637203239382e383731203532342e3937203239392e303860c08201527f563330382e323122207374726f6b653d222343363943364422207374726f6b6560e08201527f2d77696474683d22312e363622207374726f6b652d6d697465726c696d69743d6101008201527f22313022207374726f6b652d6c696e656361703d22726f756e64222f3e000000610120820152600061013d820190505b919050565b7f2000000000000000000000000000000000000000000000000000000000000000815260006001820190505b919050565b7f3c2f746578743e00000000000000000000000000000000000000000000000000815260006007820190505b919050565b7f3c7061746820643d224d3630352e3632203238382e3634563330382e3231483681527f30392e3936433631312e363437203330382e3231203631332e3236342033303760208201527f2e3534203631342e343537203330362e333437433631352e3635203330352e3160408201527f3534203631362e3332203330332e353337203631362e3332203330312e38355660608201527f3238362e3339433631362e3332203238342e373032203631352e36352032383360808201527f2e303834203631342e343538203238312e383839433631332e3236352032383060a08201527f2e363935203631312e363438203238302e303233203630392e3936203238302e60c08201527f3032483539322e3035433539312e383432203238302e303233203539312e363460e08201527f34203238302e313037203539312e343938203238302e323535433539312e33356101008201527f32203238302e343033203539312e3237203238302e363032203539312e3237206101208201527f3238302e3831563238382e3633433539312e3237203238382e3834203539312e6101408201527f313837203238392e3034203539312e303338203238392e313839433539302e386101608201527f39203238392e333337203539302e363839203238392e3432203539302e3438206101808201527f3238392e3432483538322e3636433538322e353536203238392e3432203538326101a08201527f2e343533203238392e3434203538322e333538203238392e3438433538322e326101c08201527f3632203238392e3532203538322e313735203238392e353738203538322e31306101e08201527f31203238392e363531433538322e303238203238392e373235203538312e39376102008201527f203238392e383132203538312e3933203238392e393038433538312e383920326102208201527f39302e303034203538312e3837203239302e313036203538312e3837203239306102408201527f2e3231563330372e3432433538312e3837203330372e353234203538312e38396102608201527f203330372e363236203538312e3933203330372e373232433538312e393720336102808201527f30372e383138203538322e303238203330372e393035203538322e31303120336102a08201527f30372e393739433538322e313735203330382e303532203538322e32363220336102c08201527f30382e3131203538322e333538203330382e3135433538322e343533203330386102e08201527f2e3139203538322e353536203330382e3231203538322e3636203330382e32316103008201527f483539352e393622207374726f6b653d222343363943364422207374726f6b656103208201527f2d77696474683d22312e363622207374726f6b652d6d697465726c696d69743d6103408201527f22313022207374726f6b652d6c696e656361703d22726f756e64222f3e000000610360820152600061037d820190505b919050565b7f3c7061746820643d224d3537322e3437203238302e3032563330382e3231222081527f7374726f6b653d222343363943364422207374726f6b652d77696474683d223160208201527f2e363622207374726f6b652d6d697465726c696d69743d22313022207374726f60408201527f6b652d6c696e656361703d22726f756e64222f3e000000000000000000000000606082015260006074820190505b919050565b7f2c20000000000000000000000000000000000000000000000000000000000000815260006002820190505b919050565b7f3c7061746820643d224d3533342e3838203330382e3231563239302e3231433581527f33342e383831203239302e313037203533342e383632203239302e303034203560208201527f33342e383234203238392e393038433533342e373835203238392e383133203560408201527f33342e373238203238392e373235203533342e363535203238392e363532433560608201527f33342e353833203238392e353738203533342e343936203238392e353220353360808201527f342e343031203238392e3438433533342e333036203238392e3434203533342e60a08201527f323033203238392e3432203533342e31203238392e3432483532322e3143353260c08201527f312e383931203238392e3432203532312e3639203238392e333337203532312e60e08201527f353431203238392e313839433532312e333933203238392e3034203532312e336101008201527f31203238382e3834203532312e3331203238382e3633563238302e37394335326101208201527f312e3331203238302e3538203532312e333933203238302e3338203532312e356101408201527f3431203238302e323331433532312e3639203238302e303833203532312e38396101608201527f3120323830203532322e3120323830483535322e3839433535332e31203238306101808201527f203535332e333031203238302e303833203535332e343439203238302e3233316101a08201527f433535332e353937203238302e3338203535332e3638203238302e35382035356101c08201527f332e3638203238302e3739563330382e313922207374726f6b653d22234336396101e08201527f43364422207374726f6b652d77696474683d22312e363622207374726f6b652d6102008201527f6d697465726c696d69743d22313022207374726f6b652d6c696e656361703d226102208201527f726f756e64222f3e0000000000000000000000000000000000000000000000006102408201526000610248820190505b919050565b7f3c7061746820643d224d353032203238302e3032563330372e3432433530312e81527f393939203330372e353233203530322e303138203330372e363236203530322e60208201527f303537203330372e373232433530322e303935203330372e383137203530322e60408201527f313532203330372e393035203530322e323235203330372e393738433530322e60608201527f323937203330382e303532203530322e333834203330382e3131203530322e3460808201527f3739203330382e3135433530322e353734203330382e3139203530322e36373760a08201527f203330382e3231203530322e3738203330382e3231483531362e30392220737460c08201527f726f6b653d222343363943364422207374726f6b652d77696474683d22312e3660e08201527f3622207374726f6b652d6d697465726c696d69743d22313022207374726f6b656101008201527f2d6c696e656361703d22726f756e64222f3e00000000000000000000000000006101208201526000610132820190505b919050565b7f3c7061746820643d224d3536332e3038203238302e3032483538312e3837222081527f7374726f6b653d222343363943364422207374726f6b652d77696474683d223160208201527f2e363622207374726f6b652d6d697465726c696d69743d22313022207374726f60408201527f6b652d6c696e656361703d22726f756e64222f3e000000000000000000000000606082015260006074820190505b919050565b7f3c2f7376673e0000000000000000000000000000000000000000000000000000815260006006820190505b919050565b60008351612b8c8184602088016139be565b80830190508351612ba18183602088016139be565b808201925050505b9392505050565b60008351612bc28184602088016139be565b80830190507f2e0000000000000000000000000000000000000000000000000000000000000081528351612bfd8160018401602088016139be565b600181830101925050505b9392505050565b7f3c7465787420783d2231382220793d22333036222066696c6c3d22234636463681527f46432220666f6e742d73697a653d22333070782220666f6e742d66616d696c7960208201527f3d22417269616c2c2048656c7665746963612c2073616e732d7365726966223e604082015260008251612c938160608501602087016139be565b80830190507f78204d554c5449504c494552000000000000000000000000000000000000000060608201527f3c2f746578743e00000000000000000000000000000000000000000000000000606c820152607381019150505b92915050565b7f302e000000000000000000000000000000000000000000000000000000000000815260008251612d2a8160028501602087016139be565b6002818401019150505b92915050565b7f3c7465787420783d2231382220793d22313837222066696c6c3d22234636463681527f46432220666f6e742d73697a653d22353470782220666f6e742d66616d696c79602082015260007f3d22417269616c2c2048656c7665746963612c2073616e732d7365726966223e8060408401528651612dbf816060860160208b016139be565b80840190507f200000000000000000000000000000000000000000000000000000000000000060608201527f544350000000000000000000000000000000000000000000000000000000000060618201527f205354414b45443c2f746578743e00000000000000000000000000000000000060648201527f3c7465787420783d2231382220793d22323336222066696c6c3d22234636463660728201527f46432220666f6e742d73697a653d22353070782220666f6e742d66616d696c7960928201528160b28201527f20554e4c4f434b5320000000000000000000000000000000000000000000000060d2820152612ee5612ee0612eda612ed5612ecf612eca60db87018d611d23565b6120b5565b8a611d23565b612602565b87611d23565b6120e6565b925050505b95945050505050565b7f302e300000000000000000000000000000000000000000000000000000000000815260008251612f2b8160038501602087016139be565b6003818401019150505b92915050565b7f3c7061746820643d224d3536322e36312035372e35373939433536322e36312081527f35392e37333138203536332e3033342036312e38363236203536332e3835382060208201527f36332e38353036433536342e3638312036352e38333836203536352e3838392060408201527f36372e36343437203536372e3431312036392e31363539433536382e3933332060608201527f37302e363837203537302e37342037312e38393334203537322e37323820373260808201527f2e373136433537342e3731372037332e35333835203537362e3834382037332e60a08201527f39363133203537392037332e393539395634312e31383939433537342e36353760c08201527f2034312e32303331203537302e3439362034322e39333432203536372e34323560e08201527f2034362e303035433536342e3335342034392e30373539203536322e363233206101008201527f35332e32333731203536322e36312035372e353739395a222066696c6c3d22626101208201527f6c61636b222f3e00000000000000000000000000000000000000000000000000610140820152600061312c61312761312261311d61311861311361310e6131096131046101478b0161291c565b611f2b565b612633565b611d42565b611de5565b612aa6565b61255f565b612117565b611e88565b90505b919050565b7f3c7465787420783d2231382220793d223934222066696c6c3d2223463646364681527f432220666f6e742d73697a653d22393470782220666f6e742d66616d696c793d60208201527f22417269616c2c2048656c7665746963612c2073616e732d7365726966223e0060408201527f2300000000000000000000000000000000000000000000000000000000000000605f820152600082516131de8160608501602087016139be565b80830190507f3c2f746578743e000000000000000000000000000000000000000000000000006060820152606781019150505b92915050565b7f3c7376672077696474683d2236333722206865696768743d223333302220766981527f6577426f783d223020302036333720333330222066696c6c3d226e6f6e65222060208201527f786d6c6e733d22687474703a2f2f7777772e77332e6f72672f323030302f737660408201527f67223e000000000000000000000000000000000000000000000000000000000060608201527f3c726563742077696474683d2236333722206865696768743d2233383122207260638201527f783d2235222066696c6c3d22626c61636b222f3e00000000000000000000000060838201527f3c70617468206f7061636974793d22302e322220643d224d3633372032353848609782015260007f3022207374726f6b653d22776869746522207374726f6b652d77696474683d228060b78401527f312e303522207374726f6b652d6d697465726c696d69743d223130222f3e00008060d78501527f3c70617468206f7061636974793d22302e322220643d224d363337203131384860f5850152816101158501528061013585015250506133de6133d96133d36133cd6133c76133c161015388018d611d23565b8b611d23565b89611d23565b87611d23565b85611d23565b612b49565b90505b9695505050505050565b8281527fffffffffffffffffffffffffffffffffffffffff0000000000000000000000008260601b16602082015260006034820190505b9392505050565b600060208201905073ffffffffffffffffffffffffffffffffffffffff831682525b92915050565b60208152600082518060208401526134708160408501602087016139be565b60407fffffffffffffffffffffffffffffffffffffffffffffffffffffffffffffffe0601f8301168401019150505b92915050565b60208152602960208201527f5444616f506f736974696f6e4e465444657363726970746f723a20556e6b6e6f60408201527f776e204d6f6e74682e0000000000000000000000000000000000000000000000606082015260006080820190505b919050565b60208152601660208201527f53686f756c64206e657665722067657420686572652e00000000000000000000604082015260006060820190505b919050565b60208152602c60208201527f5444616f506f736974696f6e4e465444657363726970746f723a204e756d626560408201527f7220746f6f206c617267652e0000000000000000000000000000000000000000606082015260006080820190505b919050565b60208152602b60208201527f5444616f506f736974696f6e4e465444657363726970746f723a20537562737460408201527f72696e67206572726f722e000000000000000000000000000000000000000000606082015260006080820190505b919050565b60208152602b60208201527f5444616f506f736974696f6e4e465444657363726970746f723a20496e76616c60408201527f6964204475726174696f6e000000000000000000000000000000000000000000606082015260006080820190505b919050565b600060208201905061ffff831682525b92915050565b600060208201905067ffffffffffffffff831682525b92915050565b6000604051905060e0810181811067ffffffffffffffff821117156136d2576136d1613aef565b5b80604052505b90565b6000808212827f7fffffffffffffffffffffffffffffffffffffffffffffffffffffffffffffff0384138115161561371657613715613a8d565b5b827f800000000000000000000000000000000000000000000000000000000000000003841281161561374b5761374a613a8d565b5b5082820190505b92915050565b6000821982111561376c5761376b613a8d565b5b82820190505b92915050565b600060ff821660ff84168060ff0382111561379657613795613a8d565b5b808201925050505b92915050565b60008215156137b6576137b5613abe565b5b7fffffffffffffffffffffffffffffffffffffffffffffffffffffffffffffffff83147f80000000000000000000000000000000000000000000000000000000000000008314161561380b5761380a613a8d565b5b82820590505b92915050565b600082151561382957613828613abe565b5b82820490505b92915050565b600067ffffffffffffffff80841680151561385357613852613abe565b5b8082851604925050505b92915050565b60007f7fffffffffffffffffffffffffffffffffffffffffffffffffffffffffffffff818413828413858304851182821616156138a3576138a2613a8d565b5b7f8000000000000000000000000000000000000000000000000000000000000000848712868205881281841616156138de576138dd613a8d565b5b8587129250878205871284841616156138fa576138f9613a8d565b5b8785058712818416161561391157613910613a8d565b5b505050505082820290505b92915050565b6000808312837f80000000000000000000000000000000000000000000000000000000000000000183128115161561395d5761395c613a8d565b5b837f7fffffffffffffffffffffffffffffffffffffffffffffffffffffffffffffff01831381161561399257613991613a8d565b5b5082820390505b92915050565b6000828210156139b2576139b1613a8d565b5b82820390505b92915050565b60005b838110156139dd5780820151818401525b6020810190506139c1565b838111156139ec576000848401525b505050505b565b6000811515613a0557613a04613a8d565b5b7fffffffffffffffffffffffffffffffffffffffffffffffffffffffffffffffff820190505b919050565b60007fffffffffffffffffffffffffffffffffffffffffffffffffffffffffffffffff821415613a6357613a62613a8d565b5b6001820190505b919050565b6000821515613a8157613a80613abe565b5b82820690505b92915050565b7f4e487b7100000000000000000000000000000000000000000000000000000000600052601160045260246000fd5b565b7f4e487b7100000000000000000000000000000000000000000000000000000000600052601260045260246000fd5b565b7f4e487b7100000000000000000000000000000000000000000000000000000000600052604160045260246000fd5b565b67ffffffffffffffff811681141515613b395760006000fd5b505b565bfea26469706673582212209569aff7336bc70eb1a83c7f2257a9acadfad7cf160ba2335d5d29f18f171ec464736f6c63430008040033",
  "linkReferences": {},
  "deployedLinkReferences": {}
}