{
  "_format": "hh-sol-artifact-1",
  "contractName": "TDaoPositionNFTDescriptor",
  "sourceName": "contracts/core/TDao/TDaoPositionNFTDescriptor.sol",
  "abi": [
    {
      "inputs": [
        {
          "internalType": "contract ITDao",
          "name": "_tDao",
          "type": "address"
        }
      ],
      "stateMutability": "nonpayable",
      "type": "constructor"
    },
    {
      "inputs": [
        {
          "internalType": "uint64",
          "name": "positionID",
          "type": "uint64"
        }
      ],
      "name": "getTokenURI",
      "outputs": [
        {
          "internalType": "string",
          "name": "",
          "type": "string"
        }
      ],
      "stateMutability": "view",
      "type": "function"
    },
    {
      "inputs": [],
      "name": "tDao",
      "outputs": [
        {
          "internalType": "contract ITDao",
          "name": "",
          "type": "address"
        }
      ],
      "stateMutability": "view",
      "type": "function"
    }
  ],
  "bytecode": "0x60a0604052348015620000125760006000fd5b50604051620032f8380380620032f8833981810160405281019062000038919062000080565b5b8073ffffffffffffffffffffffffffffffffffffffff1660808173ffffffffffffffffffffffffffffffffffffffff1660601b815260140150505b50620000b756620000b6565b60006020828403121562000092578081fd5b81516001600160a01b03811681141515620000ab578182fd5b809150505b92915050565b5b60805160601c613215620000e36000398060955280610144528061037652806103ef52506132156000f3fe60806040523480156100115760006000fd5b506004361061003b5760003560e01c80632bf2bc8f146100415780634c92beb7146100715761003b565b60006000fd5b61005b60048036038101906100569190611970565b61008f565b6040516100689190612f33565b60405180910390f35b610079610374565b6040516100869190612f0b565b60405180910390f35b606060007f000000000000000000000000000000000000000000000000000000000000000073ffffffffffffffffffffffffffffffffffffffff16630f85fc5a846040518263ffffffff1660e01b81526004016100ec9190613170565b60e06040518083038186803b1580156101055760006000fd5b505afa15801561011a573d600060003e3d6000fd5b505050506040513d601f19601f8201168201806040525081019061013e91906118d6565b905060007f000000000000000000000000000000000000000000000000000000000000000073ffffffffffffffffffffffffffffffffffffffff16639d8e09018360c001516040518263ffffffff1660e01b815260040161019f919061315a565b60206040518083038186803b1580156101b85760006000fd5b505afa1580156101cd573d600060003e3d6000fd5b505050506040513d601f19601f820116820180604052508101906101f191906117d8565b905060006040518060200160405280600081526020015090508173ffffffffffffffffffffffffffffffffffffffff1663d7ab74d06040518163ffffffff1660e01b815260040160006040518083038186803b1580156102515760006000fd5b505afa92505050801561028757506040513d6000823e3d601f19601f820116820180604052508101906102849190611819565b60015b6102c5575b3d80600081146102b8576040519150601f19603f3d011682016040523d82523d6000602084013e6102bd565b606091505b50505b6102cc565b8091508150505b6102db8561039863ffffffff16565b6102ea846103de63ffffffff16565b6102f98561054363ffffffff16565b836103148967ffffffffffffffff168761057f63ffffffff16565b610330576040518060200160405280600081526020015061033f565b61033e61061763ffffffff16565b5b604051602001610353959493929190612cf9565b604051602081830303815290604052935050505061036f565050505b919050565b7f000000000000000000000000000000000000000000000000000000000000000081565b60606103b38267ffffffffffffffff1661064163ffffffff16565b6040516020016103c39190612c16565b60405160208183030381529060405290506103d9565b919050565b60606000600060006104c5620151807f000000000000000000000000000000000000000000000000000000000000000073ffffffffffffffffffffffffffffffffffffffff1663955e232e88608001516040518263ffffffff1660e01b815260040161044a9190613170565b60206040518083038186803b1580156104635760006000fd5b505afa158015610478573d600060003e3d6000fd5b505050506040513d601f19601f8201168201806040525081019061049c9190611997565b67ffffffffffffffff168115156104af57fe5b0467ffffffffffffffff1661078863ffffffff16565b9250925092506104de856000015161088163ffffffff16565b6104ed83610a7863ffffffff16565b6104fe83610e26909063ffffffff16565b61050f86610e26909063ffffffff16565b604051602001610522949392919061284b565b604051602081830303815290604052935050505061053e565050505b919050565b606061055482610f8b63ffffffff16565b6040516020016105649190612720565b604051602081830303815290604052905061057a565b919050565b600060008314156105935760019050610611565b600083836040516020016105a8929190612ecd565b60405160208183030381529060405280519060200120905060026105d18561116963ffffffff16565b0260010160ff167fffffffffffffffffffffffffffffffffffffffffffffffffffffffffffffffff81151561060257fe5b048160001c1091505061061156505b92915050565b606060405160200161062890612a4c565b604051602081830303815290604052905061063e565b90565b6060600061065683610e26909063ffffffff16565b9050600081519050600881101515610672578192505050610783565b6000600867ffffffffffffffff8111801561068d5760006000fd5b506040519080825280601f01601f1916602001820160405280156106c05781602001600182028036833780820191505090505b50905060006000600090505b6008811015610772578451600803811015610707577f3000000000000000000000000000000000000000000000000000000000000000610727565b848280600101935081518110151561071b57fe5b602001015160f81c60f81b5b838281518110151561073557fe5b60200101907effffffffffffffffffffffffffffffffffffffffffffffffffffffffffffff1916908160001a9053505b80806001019150506106cc565b508194505050505061078356505050505b919050565b6000600060006000849050600062253d8c62010bd98301019050600062023ab1826004028115156107b557fe5b059050600460038262023ab102018115156107cc57fe5b05820391508150600062164b0960018401610fa0028115156107ea57fe5b059050601f6004826105b5028115156107ff57fe5b0584030192508250600061098f8460500281151561081957fe5b059050600060508261098f0281151561082e57fe5b0585039050600b8281151561083f57fe5b059450845084600c0260028301039150815084836031860360640201019250825082828298509850985050505050505061087a565050505050505b9193909250565b6060600061089683610e26909063ffffffff16565b9050600081905060008151905060606012821115156108f7576040518060400160405280600181526020017f3000000000000000000000000000000000000000000000000000000000000000815260200150945050505050610a7356610a34565b600060038381151561090557fe5b0614156109285761091f836000600361127763ffffffff16565b90508050610a33565b600467ffffffffffffffff811180156109415760006000fd5b506040519080825280601f01601f1916602001820160405280156109745781602001600182028036833780820191505090505b50905080506000600090506000600090505b6003811015610a30578160038581151561099c57fe5b06146109c65784818060010192508151811015156109b657fe5b602001015160f81c60f81b6109e8565b7f2e000000000000000000000000000000000000000000000000000000000000005b83838060010194508151811015156109fc57fe5b60200101907effffffffffffffffffffffffffffffffffffffffffffffffffffffffffffff1916908160001a905350610986565b50505b5b80610a44836113c163ffffffff16565b604051602001610a5592919061268b565b604051602081830303815290604052945050505050610a7356505050505b919050565b60606001821415610ac3576040518060400160405280600381526020017f4a414e00000000000000000000000000000000000000000000000000000000008152602001509050610e21565b6002821415610b0c576040518060400160405280600381526020017f46454200000000000000000000000000000000000000000000000000000000008152602001509050610e21565b6003821415610b55576040518060400160405280600381526020017f4d415200000000000000000000000000000000000000000000000000000000008152602001509050610e21565b6004821415610b9e576040518060400160405280600381526020017f41505200000000000000000000000000000000000000000000000000000000008152602001509050610e21565b6005821415610be7576040518060400160405280600381526020017f4d415900000000000000000000000000000000000000000000000000000000008152602001509050610e21565b6006821415610c30576040518060400160405280600381526020017f4a554e00000000000000000000000000000000000000000000000000000000008152602001509050610e21565b6007821415610c79576040518060400160405280600381526020017f4a554c00000000000000000000000000000000000000000000000000000000008152602001509050610e21565b6008821415610cc2576040518060400160405280600381526020017f41554700000000000000000000000000000000000000000000000000000000008152602001509050610e21565b6009821415610d0b576040518060400160405280600381526020017f53455000000000000000000000000000000000000000000000000000000000008152602001509050610e21565b600a821415610d54576040518060400160405280600381526020017f4f435400000000000000000000000000000000000000000000000000000000008152602001509050610e21565b600b821415610d9d576040518060400160405280600381526020017f4e4f5600000000000000000000000000000000000000000000000000000000008152602001509050610e21565b600c821415610de6576040518060400160405280600381526020017f44454300000000000000000000000000000000000000000000000000000000008152602001509050610e21565b6040517f08c379a0000000000000000000000000000000000000000000000000000000008152600401610e1890612f87565b60405180910390fd5b919050565b60606000821415610e71576040518060400160405280600181526020017f30000000000000000000000000000000000000000000000000000000000000008152602001509050610f86565b600082905060005b600082141515610ea1578080600101915050600a82811515610e9757fe5b0491508150610e79565b60008167ffffffffffffffff81118015610ebb5760006000fd5b506040519080825280601f01601f191660200182016040528015610eee5781602001600182028036833780820191505090505b509050600060018303905085935083505b600084141515610f7657600a84811515610f1557fe5b0660300160f81b828280600190039350815181101515610f3157fe5b60200101907effffffffffffffffffffffffffffffffffffffffffffffffffffffffffffff1916908160001a905350600a84811515610f6c57fe5b0493508350610eff565b81945050505050610f8656505050505b919050565b60606000610fc1610fb4600c8560a0015167ffffffffffffffff1661159990919063ffffffff16565b610e26909063ffffffff16565b9050600081519050806010108015610fd95750601481105b151561101a576040517f08c379a0000000000000000000000000000000000000000000000000000000008152600401611011906130f5565b60405180910390fd5b600061102b836115bf63ffffffff16565b9050601182141561107257611049816000600261127763ffffffff16565b6040516020016110599190612a04565b6040516020818303038152906040529350505050611164565b60128214156110b75761108e816000600361127763ffffffff16565b60405160200161109e9190612803565b6040516020818303038152906040529350505050611164565b60008151905060138314156111255760018114611118576110e1826000600161127763ffffffff16565b6110f38360018461127763ffffffff16565b6040516020016111049291906126c1565b60405160208183030381529060405261111a565b815b945050505050611164565b6040517f08c379a000000000000000000000000000000000000000000000000000000000815260040161115790612fec565b60405180910390fd505050505b919050565b600060008211151561117b5760006000fd5b700100000000000000000000000000000000821015156111a757608082901c9150815060808101905080505b68010000000000000000821015156111cb57604082901c9150815060408101905080505b640100000000821015156111eb57602082901c9150815060208101905080505b620100008210151561120957601082901c9150815060108101905080505b6101008210151561122657600882901c9150815060088101905080505b60108210151561124257600482901c9150815060048101905080505b60048210151561125e57600282901c9150815060028101905080505b6002821015156112715760018101905080505b5b919050565b60606000845190508084111561128d5780935083505b8083111561129b5780925082505b8284111515156112e0576040517f08c379a00000000000000000000000000000000000000000000000000000000081526004016112d790613090565b60405180910390fd5b6000859050600085850367ffffffffffffffff811180156113015760006000fd5b506040519080825280601f01601f1916602001820160405280156113345781602001600182028036833780820191505090505b50905060008690505b858110156113ab57828181518110151561135357fe5b602001015160f81c60f81b8288830381518110151561136e57fe5b60200101907effffffffffffffffffffffffffffffffffffffffffffffffffffffffffffff1916908160001a9053505b808060010191505061133d565b508093505050506113ba565050505b9392505050565b60606015821115156113e757604051806020016040528060008152602001509050611594565b601882111515611431576040518060400160405280600181526020017f4b000000000000000000000000000000000000000000000000000000000000008152602001509050611594565b601b8211151561147b576040518060400160405280600181526020017f4d000000000000000000000000000000000000000000000000000000000000008152602001509050611594565b601e821115156114c5576040518060400160405280600181526020017f42000000000000000000000000000000000000000000000000000000000000008152602001509050611594565b60218211151561150f576040518060400160405280600181526020017f54000000000000000000000000000000000000000000000000000000000000008152602001509050611594565b602482111515611559576040518060400160405280600181526020017f51000000000000000000000000000000000000000000000000000000000000008152602001509050611594565b6040517f08c379a000000000000000000000000000000000000000000000000000000000815260040161158b9061302b565b60405180910390fd5b919050565b60006115b483670de0b6b3a76400008461169f63ffffffff16565b905080505b92915050565b606060008290506000815190505b60011561167a5760008114156115e25761167a565b8080600190039150507f30000000000000000000000000000000000000000000000000000000000000007effffffffffffffffffffffffffffffffffffffffffffffffffffffffffffff1916828281518110151561163c57fe5b602001015160f81c60f81b7effffffffffffffffffffffffffffffffffffffffffffffffffffffffffffff19161415156116755761167a565b6115cd565b61168f8460006001840161127763ffffffff16565b9250505061169a5650505b919050565b60006000600060001985870985870292508281108382030391505060008114156116e2576000841115156116d35760006000fd5b83820492508292505050611799565b80841115156116f15760006000fd5b60008486880990508281118203915080830392506000858660000316905080860495508084049350600181826000030401905080830284179350835060006002876003021890508087026002038102905080508087026002038102905080508087026002038102905080508087026002038102905080508087026002038102905080508087026002038102905080508085029550855085955050505050506117995650505050505b9392505050566131de565b60008151905061ffff8116811415156117bd5760006000fd5b5b919050565b6000815190506117d2816131c1565b5b919050565b6000602082840312156117e9578081fd5b815173ffffffffffffffffffffffffffffffffffffffff81168114151561180e578182fd5b809150505b92915050565b60006020828403121561182a578081fd5b815167ffffffffffffffff80821115611841578283fd5b818401915084601f8301121515611856578283fd5b81518181111561186257fe5b60405160207fffffffffffffffffffffffffffffffffffffffffffffffffffffffffffffffe0601f840116820101818110848211171561189e57fe5b80604052508181528660208386010111156118b7578485fd5b6118c882602083016020870161318c565b809450505050505b92915050565b600060e082840312156118e7578081fd5b60405160e0810181811067ffffffffffffffff8211171561190457fe5b806040525082518152602083015160208201526040830151604082015261192d606084016117c3565b606082015261193e608084016117c3565b608082015261194f60a084016117c3565b60a082015261196060c084016117a4565b60c0820152809150505b92915050565b600060208284031215611981578081fd5b813561198c816131c1565b809150505b92915050565b6000602082840312156119a8578081fd5b81516119b3816131c1565b809150505b92915050565b600081516119d081856020860161318c565b8084019150505b92915050565b60007f3c7061746820643d224d3536332e3038203332342e3032483538312e3837222082527f7374726f6b653d222343363943364422207374726f6b652d77696474683d223160208301527f2e363622207374726f6b652d6d697465726c696d69743d22313022207374726f60408301527f6b652d6c696e656361703d22726f756e64222f3e00000000000000000000000060608301526074820190505b919050565b60007f3c7061746820643d224d3537322e3437203332342e3032563335322e3231222082527f7374726f6b653d222343363943364422207374726f6b652d77696474683d223160208301527f2e363622207374726f6b652d6d697465726c696d69743d22313022207374726f60408301527f6b652d6c696e656361703d22726f756e64222f3e00000000000000000000000060608301526074820190505b919050565b60007f200000000000000000000000000000000000000000000000000000000000000082526001820190505b919050565b60007f3c7061746820643d224d3533342e3838203335322e3231563333342e3231433582527f33342e383831203333342e313037203533342e383632203333342e303034203560208301527f33342e383234203333332e393038433533342e373835203333332e383133203560408301527f33342e373238203333332e373235203533342e363535203333332e363532433560608301527f33342e353833203333332e353738203533342e343936203333332e353220353360808301527f342e343031203333332e3438433533342e333036203333332e3434203533342e60a08301527f323033203333332e3432203533342e31203333332e3432483532322e3143353260c08301527f312e383931203333332e3432203532312e3639203333332e333337203532312e60e08301527f353431203333332e313839433532312e333933203333332e3034203532312e336101008301527f31203333322e3834203532312e3331203333322e3633563332342e37394335326101208301527f312e3331203332342e3538203532312e333933203332342e3338203532312e356101408301527f3431203332342e323331433532312e3639203332342e303833203532312e38396101608301527f3120333234203532322e3120333234483535322e3839433535332e31203332346101808301527f203535332e333031203332342e303833203535332e343439203332342e3233316101a08301527f433535332e353937203332342e3338203535332e3638203332342e35382035356101c08301527f332e3638203332342e3739563335322e313922207374726f6b653d22234336396101e08301527f43364422207374726f6b652d77696474683d22312e363622207374726f6b652d6102008301527f6d697465726c696d69743d22313022207374726f6b652d6c696e656361703d226102208301527f726f756e64222f3e000000000000000000000000000000000000000000000000610240830152610248820190505b919050565b60007f3c2f746578743e0000000000000000000000000000000000000000000000000082526007820190505b919050565b60007f3c7061746820643d224d3531312e3339203332342e3032563334312e3531433582527f31312e333933203334312e373138203531312e343737203334312e393136203560208301527f31312e363235203334322e303632433531312e373733203334322e323038203560408301527f31312e393732203334322e3239203531322e3138203334322e3239483532342e60608301527f3138433532342e333839203334322e323933203532342e353838203334322e3360808301527f3737203532342e373336203334322e353234433532342e383833203334322e3660a08301527f3732203532342e393637203334322e383731203532342e3937203334332e303860c08301527f563335322e323122207374726f6b653d222343363943364422207374726f6b6560e08301527f2d77696474683d22312e363622207374726f6b652d6d697465726c696d69743d6101008301527f22313022207374726f6b652d6c696e656361703d22726f756e64222f3e00000061012083015261013d820190505b919050565b60007f3c7061746820643d224d3630352e3632203333322e3634563335322e3231483682527f30392e3936433631312e363437203335322e3231203631332e3236342033353160208301527f2e3534203631342e343537203335302e333437433631352e3635203334392e3160408301527f3534203631362e3332203334372e353337203631362e3332203334352e38355660608301527f3333302e3339433631362e3332203332382e373032203631352e36352033323760808301527f2e303834203631342e343538203332352e383839433631332e3236352033323460a08301527f2e363935203631312e363438203332342e303233203630392e3936203332342e60c08301527f3032483539322e3035433539312e383432203332342e303233203539312e363460e08301527f34203332342e313037203539312e343938203332342e323535433539312e33356101008301527f32203332342e343033203539312e3237203332342e363032203539312e3237206101208301527f3332342e3831563333322e3633433539312e3237203333322e3834203539312e6101408301527f313837203333332e3034203539312e303338203333332e313839433539302e386101608301527f39203333332e333337203539302e363839203333332e3432203539302e3438206101808301527f3333332e3432483538322e3636433538322e353536203333332e3432203538326101a08301527f2e343533203333332e3434203538322e333538203333332e3438433538322e326101c08301527f3632203333332e3532203538322e313735203333332e353738203538322e31306101e08301527f31203333332e363531433538322e303238203333332e373235203538312e39376102008301527f203333332e383132203538312e3933203333332e393038433538312e383920336102208301527f33342e303034203538312e3837203333342e313036203538312e3837203333346102408301527f2e3231563335312e3432433538312e3837203335312e353234203538312e38396102608301527f203335312e363236203538312e3933203335312e373232433538312e393720336102808301527f35312e383138203538322e303238203335312e393035203538322e31303120336102a08301527f35312e393739433538322e313735203335322e303532203538322e32363220336102c08301527f35322e3131203538322e333538203335322e3135433538322e343533203335326102e08301527f2e3139203538322e353536203335322e3231203538322e3636203335322e32316103008301527f483539352e393622207374726f6b653d222343363943364422207374726f6b656103208301527f2d77696474683d22312e363622207374726f6b652d6d697465726c696d69743d6103408301527f22313022207374726f6b652d6c696e656361703d22726f756e64222f3e00000061036083015261037d820190505b919050565b60007f2c2000000000000000000000000000000000000000000000000000000000000082526002820190505b919050565b60007f3c7061746820643d224d3534342e3238203332342e3534563335322e3231222082527f7374726f6b653d222343363943364422207374726f6b652d77696474683d223160208301527f2e363622207374726f6b652d6d697465726c696d69743d22313022207374726f60408301527f6b652d6c696e656361703d22726f756e64222f3e00000000000000000000000060608301526074820190505b919050565b60007f3c7061746820643d224d3536332e3038203332342e3032563335322e3231222082527f7374726f6b653d222343363943364422207374726f6b652d77696474683d223160208301527f2e363622207374726f6b652d6d697465726c696d69743d22313022207374726f60408301527f6b652d6c696e656361703d22726f756e64222f3e00000000000000000000000060608301526074820190505b919050565b60007f3c7061746820643d224d3539352e3936203334322e3832483539312e3237222082527f7374726f6b653d222343363943364422207374726f6b652d77696474683d223160208301527f2e363622207374726f6b652d6d697465726c696d69743d22313022207374726f60408301527f6b652d6c696e656361703d22726f756e64222f3e00000000000000000000000060608301526074820190505b919050565b60007f3c2f7376673e000000000000000000000000000000000000000000000000000082526006820190505b919050565b6000835161269d81846020880161318c565b808301905083516126b281836020880161318c565b808201925050505b9392505050565b600083516126d381846020880161318c565b80830190507f2e000000000000000000000000000000000000000000000000000000000000008152835161270e81600184016020880161318c565b600181830101925050505b9392505050565b60007f3c7465787420783d2231382220793d22333036222066696c6c3d22234636463682527f46432220666f6e742d73697a653d22333070782220666f6e742d66616d696c7960208301527f3d22417269616c2c2048656c7665746963612c2073616e732d7365726966223e604083015282516127a481606085016020870161318c565b80830190507f78204d554c5449504c494552000000000000000000000000000000000000000060608201527f3c2f746578743e00000000000000000000000000000000000000000000000000606c820152607381019150505b92915050565b60007f302e0000000000000000000000000000000000000000000000000000000000008252825161283b81600285016020870161318c565b6002818401019150505b92915050565b60007f3c7465787420783d2231382220793d22313837222066696c6c3d22234636463682527f46432220666f6e742d73697a653d22353470782220666f6e742d66616d696c7960208301527f3d22417269616c2c2048656c7665746963612c2073616e732d7365726966223e80604084015286516128d0816060860160208b0161318c565b80840190507f200000000000000000000000000000000000000000000000000000000000000060608201527f544350000000000000000000000000000000000000000000000000000000000060618201527f205354414b45443c2f746578743e00000000000000000000000000000000000060648201527f3c7465787420783d2231382220793d22323336222066696c6c3d22234636463660728201527f46432220666f6e742d73697a653d22353070782220666f6e742d66616d696c7960928201528160b28201527f20554e4c4f434b5320000000000000000000000000000000000000000000000060d28201526129f66129f16129eb6129e66129e06129db60db87018d6119be565b611b23565b8a6119be565b612440565b876119be565b611e3d565b925050505b95945050505050565b60007f302e30000000000000000000000000000000000000000000000000000000000082528251612a3c81600385016020870161318c565b6003818401019150505b92915050565b60007f3c7061746820643d224d353032203332342e3032563335312e3432433530312e82527f393939203335312e353233203530322e303138203335312e363236203530322e60208301527f303537203335312e373232433530322e303935203335312e383137203530322e60408301527f313532203335312e393035203530322e323235203335312e393738433530322e60608301527f323937203335322e303532203530322e333834203335322e3131203530322e3460808301527f3739203335322e3135433530322e353734203335322e3139203530322e36373760a08301527f203335322e3231203530322e3738203335322e3231483531362e30392220737460c08301527f726f6b653d222343363943364422207374726f6b652d77696474683d22312e3660e08301527f3622207374726f6b652d6d697465726c696d69743d22313022207374726f6b656101008301527f2d6c696e656361703d22726f756e64222f3e0000000000000000000000000000610120830152612c0e612c09612c04612bff612bfa612bf5612bf0612beb6101328a01611e6e565b611b54565b612471565b612514565b6119dd565b611a80565b611ff8565b6125b7565b90505b919050565b60007f3c7465787420783d2231382220793d223934222066696c6c3d2223463646364682527f432220666f6e742d73697a653d22393470782220666f6e742d66616d696c793d60208301527f22417269616c2c2048656c7665746963612c2073616e732d7365726966223e0060408301527f2300000000000000000000000000000000000000000000000000000000000000605f8301528251612cc081606085016020870161318c565b80830190507f3c2f746578743e000000000000000000000000000000000000000000000000006060820152606781019150505b92915050565b60007f3c7376672077696474683d2236333722206865696768743d223338312220766982527f6577426f783d223020302036333720333831222066696c6c3d226e6f6e65222060208301527f786d6c6e733d22687474703a2f2f7777772e77332e6f72672f323030302f737660408301527f67223e000000000000000000000000000000000000000000000000000000000060608301527f3c726563742077696474683d2236333722206865696768743d2233383122207260638301527f783d2235222066696c6c3d22626c61636b222f3e00000000000000000000000060838301527f3c70617468206f7061636974793d22302e322220643d224d363337203235384860978301527f3022207374726f6b653d22776869746522207374726f6b652d77696474683d228060b78401527f312e303522207374726f6b652d6d697465726c696d69743d223130222f3e00008060d78501527f3c70617468206f7061636974793d22302e322220643d224d363337203131384860f585015281610115850152806101358501525050612ec0612ebb612eb5612eaf612ea9612ea361015388018d6119be565b8b6119be565b896119be565b876119be565b856119be565b61265a565b90505b9695505050505050565b60008382527fffffffffffffffffffffffffffffffffffffffff0000000000000000000000008360601b1660208301526034820190505b9392505050565b600060208201905073ffffffffffffffffffffffffffffffffffffffff831682525b92915050565b6000602082528251806020840152612f5281604085016020870161318c565b60407fffffffffffffffffffffffffffffffffffffffffffffffffffffffffffffffe0601f8301168401019150505b92915050565b600060208252602960208301527f5444616f506f736974696f6e4e465444657363726970746f723a20556e6b6e6f60408301527f776e204d6f6e74682e000000000000000000000000000000000000000000000060608301526080820190505b919050565b600060208252601660208301527f53686f756c64206e657665722067657420686572652e0000000000000000000060408301526060820190505b919050565b600060208252602c60208301527f5444616f506f736974696f6e4e465444657363726970746f723a204e756d626560408301527f7220746f6f206c617267652e000000000000000000000000000000000000000060608301526080820190505b919050565b600060208252602b60208301527f5444616f506f736974696f6e4e465444657363726970746f723a20537562737460408301527f72696e67206572726f722e00000000000000000000000000000000000000000060608301526080820190505b919050565b600060208252602b60208301527f5444616f506f736974696f6e4e465444657363726970746f723a20496e76616c60408301527f6964204475726174696f6e00000000000000000000000000000000000000000060608301526080820190505b919050565b600060208201905061ffff831682525b92915050565b600060208201905067ffffffffffffffff831682525b92915050565b60005b838110156131ab5780820151818401525b60208101905061318f565b838111156131ba576000848401525b505b505050565b67ffffffffffffffff8116811415156131da5760006000fd5b5b50565bfea26469706673582212205eec9cc32e01cad4ee7ea83925866330aa79e78e508ebb6cdee34aaaa384bb0264736f6c63430007060033",
  "linkReferences": {},
  "deployedLinkReferences": {}
}