{
  "_format": "hh-sol-artifact-1",
  "contractName": "BitMathEchidnaTest",
  "sourceName": "contracts/uniswap-v3-core/test/BitMathEchidnaTest.sol",
  "abi": [
    {
      "inputs": [
        {
          "internalType": "uint256",
          "name": "input",
          "type": "uint256"
        }
      ],
      "name": "leastSignificantBitInvariant",
      "outputs": [],
      "stateMutability": "pure",
      "type": "function"
    },
    {
      "inputs": [
        {
          "internalType": "uint256",
          "name": "input",
          "type": "uint256"
        }
      ],
      "name": "mostSignificantBitInvariant",
      "outputs": [],
      "stateMutability": "pure",
      "type": "function"
    }
  ],
  "bytecode": "0x60806040523480156100115760006000fd5b50610017565b6106e1806100266000396000f3fe60806040523480156100115760006000fd5b506004361061003b5760003560e01c80632d711e0c14610041578063f94ac90e1461005d5761003b565b60006000fd5b61005b6004803603810190610056919061045c565b610079565b005b6100776004803603810190610072919061045c565b6100e0565b005b600061008a8261014f63ffffffff16565b9050600081600261009b91906105ed565b8316141515156100ae576100ad610605565b5b600060018260026100bf91906105ed565b6100c99190610636565b83161415156100db576100da610605565b5b505b50565b60006100f18261030263ffffffff16565b905080600261010091906105ed565b821015151561011257610111610605565b5b60ff8160ff16148061013b575060018161012c9190610655565b600261013891906105ed565b82105b151561014a57610149610605565b5b505b50565b60006000821115156101615760006000fd5b60ff9050805060006fffffffffffffffffffffffffffffffff6fffffffffffffffffffffffffffffffff16831611156101aa576080816101a19190610681565b905080506101b4565b608082901c915081505b600067ffffffffffffffff67ffffffffffffffff16831611156101e7576040816101de9190610681565b905080506101f1565b604082901c915081505b600063ffffffff63ffffffff168316111561021c576020816102139190610681565b90508050610226565b602082901c915081505b600061ffff61ffff168316111561024d576010816102449190610681565b90508050610257565b601082901c915081505b600060ff60ff168316111561027c576008816102739190610681565b90508050610286565b600882901c915081505b6000600f831611156102a85760048161029f9190610681565b905080506102b2565b600482901c915081505b60006003831611156102d4576002816102cb9190610681565b905080506102de565b600282901c915081505b60006001831611156102fc576001816102f79190610681565b905080505b5b919050565b60006000821115156103145760006000fd5b7001000000000000000000000000000000008210151561034957608082901c915081506080816103449190610655565b905080505b680100000000000000008210151561037657604082901c915081506040816103719190610655565b905080505b6401000000008210151561039f57602082901c9150815060208161039a9190610655565b905080505b62010000821015156103c657601082901c915081506010816103c19190610655565b905080505b610100821015156103ec57600882901c915081506008816103e79190610655565b905080505b60108210151561041157600482901c9150815060048161040c9190610655565b905080505b60048210151561043657600282901c915081506002816104319190610655565b905080505b6002821015156104525760018161044d9190610655565b905080505b5b919050566106aa565b60006020828403121561046f5760006000fd5b813590505b92915050565b7f4e487b7100000000000000000000000000000000000000000000000000000000600052601160045260246000fd5b565b6000600060018092508391505b8085111561051157817fffffffffffffffffffffffffffffffffffffffffffffffffffffffffffffffff048211156104f3576104f261047a565b5b808516156105015781830292505b818202915084811c94505b6104b8565b505b9250929050565b600082151561052c57600190506105e7565b81151561053c57600090506105e7565b816001811461055257600281146105605761057e565b60019150506105e75661057e565b60ff8411156105725761057161047a565b5b6001841b9150506105e7565b5060208310610133831016604e8410600b84101617156105a25782820a90506105e7565b6105ac83836104ab565b807fffffffffffffffffffffffffffffffffffffffffffffffffffffffffffffffff048211156105df576105de61047a565b5b808202925050505b92915050565b60006105fc60ff84168361051a565b90505b92915050565b7f4e487b7100000000000000000000000000000000000000000000000000000000600052600160045260246000fd5b565b6000828210156106495761064861047a565b5b82820390505b92915050565b600060ff821660ff84168060ff038211156106735761067261047a565b5b808201925050505b92915050565b600060ff821660ff84168082101561069c5761069b61047a565b5b808203925050505b92915050565bfea26469706673582212204ce0c5d6dab1b129433b304928a1d1234e9fa3b65630215e165419f87add029364736f6c634300080c0033",
  "linkReferences": {},
  "deployedLinkReferences": {}
}