{
  "_format": "hh-sol-artifact-1",
  "contractName": "Rates",
  "sourceName": "contracts/core/logic/Rates.sol",
  "abi": [
    {
      "inputs": [
        {
          "components": [
            {
              "internalType": "contract IGovernor",
              "name": "Governor",
              "type": "address"
            },
            {
              "internalType": "contract IProtocolLock",
              "name": "ProtocolLock",
              "type": "address"
            },
            {
              "internalType": "contract IUniswapV3Pool",
              "name": "CollateralPool",
              "type": "address"
            }
          ],
          "internalType": "struct IRates.ConstructorParams",
          "name": "params",
          "type": "tuple"
        }
      ],
      "stateMutability": "nonpayable",
      "type": "constructor"
    },
    {
      "anonymous": false,
      "inputs": [
        {
          "indexed": false,
          "internalType": "uint128",
          "name": "error",
          "type": "uint128"
        }
      ],
      "name": "AcceptableErrorUpdated",
      "type": "event"
    },
    {
      "anonymous": false,
      "inputs": [
        {
          "indexed": false,
          "internalType": "uint128",
          "name": "error",
          "type": "uint128"
        }
      ],
      "name": "ErrorIntervalUpdated",
      "type": "event"
    },
    {
      "anonymous": false,
      "inputs": [
        {
          "indexed": false,
          "internalType": "uint128",
          "name": "step",
          "type": "uint128"
        }
      ],
      "name": "InterestRateStepUpdated",
      "type": "event"
    },
    {
      "anonymous": false,
      "inputs": [
        {
          "indexed": false,
          "internalType": "int128",
          "name": "max",
          "type": "int128"
        }
      ],
      "name": "MaxRateUpdated",
      "type": "event"
    },
    {
      "anonymous": false,
      "inputs": [
        {
          "indexed": false,
          "internalType": "uint64",
          "name": "steps",
          "type": "uint64"
        }
      ],
      "name": "MaxStepsUpdated",
      "type": "event"
    },
    {
      "anonymous": false,
      "inputs": [
        {
          "indexed": false,
          "internalType": "int128",
          "name": "min",
          "type": "int128"
        }
      ],
      "name": "MinRateUpdated",
      "type": "event"
    },
    {
      "anonymous": false,
      "inputs": [
        {
          "indexed": false,
          "internalType": "uint64",
          "name": "time",
          "type": "uint64"
        }
      ],
      "name": "MinTimeBetweenUpdatesUpdated",
      "type": "event"
    },
    {
      "anonymous": false,
      "inputs": [
        {
          "indexed": false,
          "internalType": "int256",
          "name": "interestRate",
          "type": "int256"
        },
        {
          "indexed": false,
          "internalType": "uint256",
          "name": "price",
          "type": "uint256"
        },
        {
          "indexed": false,
          "internalType": "uint256",
          "name": "rewardCount",
          "type": "uint256"
        },
        {
          "indexed": false,
          "internalType": "uint64",
          "name": "nextUpdateTime",
          "type": "uint64"
        }
      ],
      "name": "RateUpdated",
      "type": "event"
    },
    {
      "anonymous": false,
      "inputs": [
        {
          "indexed": true,
          "internalType": "address",
          "name": "ratesUpdateContract",
          "type": "address"
        }
      ],
      "name": "RatesContractUpdated",
      "type": "event"
    },
    {
      "anonymous": false,
      "inputs": [
        {
          "indexed": false,
          "internalType": "address",
          "name": "pool",
          "type": "address"
        }
      ],
      "name": "ReferencePoolAdded",
      "type": "event"
    },
    {
      "anonymous": false,
      "inputs": [
        {
          "indexed": false,
          "internalType": "address",
          "name": "pool",
          "type": "address"
        }
      ],
      "name": "ReferencePoolRemoved",
      "type": "event"
    },
    {
      "anonymous": false,
      "inputs": [],
      "name": "Stopped",
      "type": "event"
    },
    {
      "inputs": [
        {
          "internalType": "contract IUniswapV3Pool",
          "name": "pool",
          "type": "address"
        }
      ],
      "name": "addReferencePool",
      "outputs": [],
      "stateMutability": "nonpayable",
      "type": "function"
    },
    {
      "inputs": [],
      "name": "collateralPool",
      "outputs": [
        {
          "internalType": "contract IUniswapV3Pool",
          "name": "",
          "type": "address"
        }
      ],
      "stateMutability": "view",
      "type": "function"
    },
    {
      "inputs": [],
      "name": "currentRateData",
      "outputs": [
        {
          "internalType": "int256",
          "name": "rate",
          "type": "int256"
        },
        {
          "internalType": "uint64",
          "name": "nextUpdateTime",
          "type": "uint64"
        },
        {
          "internalType": "uint128",
          "name": "rewardCount",
          "type": "uint128"
        }
      ],
      "stateMutability": "view",
      "type": "function"
    },
    {
      "inputs": [],
      "name": "deployer",
      "outputs": [
        {
          "internalType": "address",
          "name": "",
          "type": "address"
        }
      ],
      "stateMutability": "view",
      "type": "function"
    },
    {
      "inputs": [
        {
          "internalType": "int256",
          "name": "newRate",
          "type": "int256"
        }
      ],
      "name": "executeRatesUpdateContractUpdate",
      "outputs": [],
      "stateMutability": "nonpayable",
      "type": "function"
    },
    {
      "inputs": [],
      "name": "getReferencePools",
      "outputs": [
        {
          "internalType": "contract IUniswapV3Pool[]",
          "name": "",
          "type": "address[]"
        }
      ],
      "stateMutability": "view",
      "type": "function"
    },
    {
      "inputs": [],
      "name": "getRewardCount",
      "outputs": [
        {
          "internalType": "uint256",
          "name": "",
          "type": "uint256"
        }
      ],
      "stateMutability": "view",
      "type": "function"
    },
    {
      "inputs": [],
      "name": "governor",
      "outputs": [
        {
          "internalType": "contract IGovernor",
          "name": "",
          "type": "address"
        }
      ],
      "stateMutability": "view",
      "type": "function"
    },
    {
      "inputs": [],
      "name": "init",
      "outputs": [],
      "stateMutability": "nonpayable",
      "type": "function"
    },
    {
      "inputs": [],
      "name": "interestRateAbsoluteValue",
      "outputs": [
        {
          "internalType": "uint256",
          "name": "",
          "type": "uint256"
        }
      ],
      "stateMutability": "view",
      "type": "function"
    },
    {
      "inputs": [],
      "name": "interestRateParameters",
      "outputs": [
        {
          "internalType": "uint128",
          "name": "acceptableError",
          "type": "uint128"
        },
        {
          "internalType": "uint128",
          "name": "errorInterval",
          "type": "uint128"
        },
        {
          "internalType": "uint128",
          "name": "interestRateStep",
          "type": "uint128"
        },
        {
          "internalType": "uint64",
          "name": "maxSteps",
          "type": "uint64"
        },
        {
          "internalType": "int128",
          "name": "minRate",
          "type": "int128"
        },
        {
          "internalType": "int128",
          "name": "maxRate",
          "type": "int128"
        }
      ],
      "stateMutability": "view",
      "type": "function"
    },
    {
      "inputs": [],
      "name": "minTimeBetweenUpdates",
      "outputs": [
        {
          "internalType": "uint64",
          "name": "",
          "type": "uint64"
        }
      ],
      "stateMutability": "view",
      "type": "function"
    },
    {
      "inputs": [],
      "name": "positiveInterestRate",
      "outputs": [
        {
          "internalType": "bool",
          "name": "",
          "type": "bool"
        }
      ],
      "stateMutability": "view",
      "type": "function"
    },
    {
      "inputs": [],
      "name": "predictInterestRate",
      "outputs": [
        {
          "internalType": "uint256",
          "name": "price",
          "type": "uint256"
        },
        {
          "internalType": "int256",
          "name": "rate",
          "type": "int256"
        }
      ],
      "stateMutability": "view",
      "type": "function"
    },
    {
      "inputs": [],
      "name": "ratesUpdateContract",
      "outputs": [
        {
          "internalType": "address",
          "name": "",
          "type": "address"
        }
      ],
      "stateMutability": "view",
      "type": "function"
    },
    {
      "inputs": [
        {
          "internalType": "uint256",
          "name": "",
          "type": "uint256"
        }
      ],
      "name": "referencePools",
      "outputs": [
        {
          "internalType": "contract IUniswapV3Pool",
          "name": "",
          "type": "address"
        }
      ],
      "stateMutability": "view",
      "type": "function"
    },
    {
      "inputs": [
        {
          "internalType": "contract IUniswapV3Pool",
          "name": "pool",
          "type": "address"
        }
      ],
      "name": "removeReferencePool",
      "outputs": [],
      "stateMutability": "nonpayable",
      "type": "function"
    },
    {
      "inputs": [
        {
          "internalType": "uint128",
          "name": "error",
          "type": "uint128"
        }
      ],
      "name": "setAcceptableError",
      "outputs": [],
      "stateMutability": "nonpayable",
      "type": "function"
    },
    {
      "inputs": [
        {
          "internalType": "uint128",
          "name": "interval",
          "type": "uint128"
        }
      ],
      "name": "setErrorInterval",
      "outputs": [],
      "stateMutability": "nonpayable",
      "type": "function"
    },
    {
      "inputs": [
        {
          "internalType": "uint128",
          "name": "step",
          "type": "uint128"
        }
      ],
      "name": "setInterestRateStep",
      "outputs": [],
      "stateMutability": "nonpayable",
      "type": "function"
    },
    {
      "inputs": [
        {
          "internalType": "int128",
          "name": "max",
          "type": "int128"
        }
      ],
      "name": "setMaxRate",
      "outputs": [],
      "stateMutability": "nonpayable",
      "type": "function"
    },
    {
      "inputs": [
        {
          "internalType": "uint64",
          "name": "steps",
          "type": "uint64"
        }
      ],
      "name": "setMaxSteps",
      "outputs": [],
      "stateMutability": "nonpayable",
      "type": "function"
    },
    {
      "inputs": [
        {
          "internalType": "int128",
          "name": "min",
          "type": "int128"
        }
      ],
      "name": "setMinRate",
      "outputs": [],
      "stateMutability": "nonpayable",
      "type": "function"
    },
    {
      "inputs": [
        {
          "internalType": "uint64",
          "name": "time",
          "type": "uint64"
        }
      ],
      "name": "setMinTimeBetweenUpdates",
      "outputs": [],
      "stateMutability": "nonpayable",
      "type": "function"
    },
    {
      "inputs": [
        {
          "internalType": "address",
          "name": "_ratesUpdateContract",
          "type": "address"
        }
      ],
      "name": "setRatesUpdateContract",
      "outputs": [],
      "stateMutability": "nonpayable",
      "type": "function"
    },
    {
      "inputs": [],
      "name": "stop",
      "outputs": [],
      "stateMutability": "nonpayable",
      "type": "function"
    },
    {
      "inputs": [],
      "name": "stopped",
      "outputs": [
        {
          "internalType": "bool",
          "name": "",
          "type": "bool"
        }
      ],
      "stateMutability": "view",
      "type": "function"
    },
    {
      "inputs": [],
      "name": "update",
      "outputs": [],
      "stateMutability": "nonpayable",
      "type": "function"
    },
    {
      "inputs": [
        {
          "internalType": "bytes4",
          "name": "",
          "type": "bytes4"
        }
      ],
      "name": "validUpdate",
      "outputs": [
        {
          "internalType": "bool",
          "name": "",
          "type": "bool"
        }
      ],
      "stateMutability": "view",
      "type": "function"
    }
  ],
  "bytecode": "0x60e06040526001600260005090905562014a78600460006101000a81548167ffffffffffffffff021916908367ffffffffffffffff160217905550348015620000485760006000fd5b5060405162004c0638038062004c0683398181016040528101906200006e9190620008a6565b5b806000015181602001515b815b8073ffffffffffffffffffffffffffffffffffffffff1660808173ffffffffffffffffffffffffffffffffffffffff1660601b815260140150505b508073ffffffffffffffffffffffffffffffffffffffff1660a08173ffffffffffffffffffffffffffffffffffffffff1660601b815260140150505b5050806040015173ffffffffffffffffffffffffffffffffffffffff1660c08173ffffffffffffffffffffffffffffffffffffffff1660601b815260140150506040518060c0016040528066038d7ea4c680006fffffffffffffffffffffffffffffffff1681526020016611c37937e080006fffffffffffffffffffffffffffffffff1681526020016611c37937e080006fffffffffffffffffffffffffffffffff168152602001600567ffffffffffffffff1681526020017ffffffffffffffffffffffffffffffffffffffffffffffffffdeb17cb73b10000600f0b81526020016706f05b59d3b20000600f0b815260200150600560005060008201518160000160006101000a8154816fffffffffffffffffffffffffffffffff02191690836fffffffffffffffffffffffffffffffff16021790555060208201518160000160106101000a8154816fffffffffffffffffffffffffffffffff02191690836fffffffffffffffffffffffffffffffff16021790555060408201518160010160006101000a8154816fffffffffffffffffffffffffffffffff02191690836fffffffffffffffffffffffffffffffff16021790555060608201518160010160106101000a81548167ffffffffffffffff021916908367ffffffffffffffff16021790555060808201518160020160006101000a8154816fffffffffffffffffffffffffffffffff0219169083600f0b6fffffffffffffffffffffffffffffffff16021790555060a08201518160020160106101000a8154816fffffffffffffffffffffffffffffffff0219169083600f0b6fffffffffffffffffffffffffffffffff1602179055509050506040518060600160405280666a94d74f4300008152602001620003c0600460009054906101000a900467ffffffffffffffff16620003a26200080160201b60201c565b67ffffffffffffffff166200082360201b620022b11790919060201c565b67ffffffffffffffff16815260200168056bc75e2d631000006fffffffffffffffffffffffffffffffff16815260200150600860005060008201518160000160005090905560208201518160010160006101000a81548167ffffffffffffffff021916908367ffffffffffffffff16021790555060408201518160010160086101000a8154816fffffffffffffffffffffffffffffffff02191690836fffffffffffffffffffffffffffffffff16021790555090505060006040518061010001604052806380ddbdb460e01b7bffffffffffffffffffffffffffffffffffffffffffffffffffffffff19167bffffffffffffffffffffffffffffffffffffffffffffffffffffffff19168152602001635fd019ad60e01b7bffffffffffffffffffffffffffffffffffffffffffffffffffffffff19167bffffffffffffffffffffffffffffffffffffffffffffffffffffffff19168152602001636e16ead260e01b7bffffffffffffffffffffffffffffffffffffffffffffffffffffffff19167bffffffffffffffffffffffffffffffffffffffffffffffffffffffff1916815260200163d3ab388860e01b7bffffffffffffffffffffffffffffffffffffffffffffffffffffffff19167bffffffffffffffffffffffffffffffffffffffffffffffffffffffff1916815260200163ee47304d60e01b7bffffffffffffffffffffffffffffffffffffffffffffffffffffffff19167bffffffffffffffffffffffffffffffffffffffffffffffffffffffff1916815260200163eec3f6f160e01b7bffffffffffffffffffffffffffffffffffffffffffffffffffffffff19167bffffffffffffffffffffffffffffffffffffffffffffffffffffffff19168152602001635d8350b460e01b7bffffffffffffffffffffffffffffffffffffffffffffffffffffffff19167bffffffffffffffffffffffffffffffffffffffffffffffffffffffff1916815260200163fc2a11e860e01b7bffffffffffffffffffffffffffffffffffffffffffffffffffffffff19167bffffffffffffffffffffffffffffffffffffffffffffffffffffffff191681526020015090506000600090505b81506008811015620007b657600160016000506000848460088110151562000737577f4e487b7100000000000000000000000000000000000000000000000000000000600052603260045260246000fd5b60200201517bffffffffffffffffffffffffffffffffffffffffffffffffffffffff19167bffffffffffffffffffffffffffffffffffffffffffffffffffffffff1916815260200190815260200160002060006101000a81548160ff0219169083151502179055505b8080620007ad90620009aa565b915050620006e6565b5033600a60006101000a81548173ffffffffffffffffffffffffffffffffffffffff021916908373ffffffffffffffffffffffffffffffffffffffff160217905550505b5062000a04565b60006200081b426200084160201b620022cc17909060201c565b905080505b90565b6000818362000833919062000975565b90506200083b565b92915050565b6000680100000000000000008210151562000893576040517f08c379a00000000000000000000000000000000000000000000000000000000081526004016200088a9062000936565b60405180910390fd5b8190506200089c565b9190505662000a03565b600060608284031215620008b8578081fd5b604051606081018181106001600160401b0382111715620008e757634e487b7160e01b83526041600452602483fd5b80604052508251620008f981620009e6565b8082525060208301516200090d81620009e6565b8060208301525060408301516200092481620009e6565b80604083015250809150505b92915050565b60208152601160208201527f6d6f7265207468616e2036342062697473000000000000000000000000000000604082015260006060820190505b919050565b60006001600160401b038083168185168083038211156200099b576200099a620009ce565b5b80820193505050505b92915050565b6000600019821415620009c257620009c1620009ce565b5b6001820190505b919050565b634e487b7160e01b600052601160045260246000fd5b565b6001600160a01b03811681141515620009ff5760006000fd5b505b565b5b60805160601c60a05160601c60c05160601c61417c62000a8a600039600081816109770152818161167a01528181611ea1015261228f0152600081816127c101526129e401526000818161053c01528181610687015281816113890152818161199c01528181611de60152818161232d015281816128ac0152612c51015261417c6000f3fe60806040523480156100115760006000fd5b50600436106101d45760003560e01c806380ddbdb411610105578063c381c1e6116100a3578063ee47304d11610072578063ee47304d146104a8578063eec3f6f1146104c4578063fc2a11e8146104e0578063ff0eccf6146104fc576101d4565b8063c381c1e614610448578063d3ab388814610464578063d5f3948814610480578063e1c7392a1461049e576101d4565b8063a03cada9116100df578063a03cada9146103e4578063a0fc0eda14610402578063a2e6204514610420578063ab658be21461042a576101d4565b806380ddbdb41461037557806384333cc71461039157806395563b47146103c1576101d4565b80635d8350b4116101725780636dc14c8e1161014c5780636dc14c8e146103015780636e16ead21461031d57806375f12b21146103395780637e7e8eec14610357576101d4565b80635d8350b4146102ab5780635fd019ad146102c75780636d7fa664146102e3576101d4565b8063150147d7116101ae578063150147d714610232578063178d12261461024e57806319a6e9e61461026d5780631f244faf1461028b576101d4565b806307da68f5146101da5780630c340a24146101e4578063113cf1ab14610202576101d4565b60006000fd5b6101e261051a565b005b6101ec61053a565b6040516101f9919061387e565b60405180910390f35b61021c6004803603810190610217919061360e565b61055e565b604051610229919061386a565b60405180910390f35b61024c60048036038101906102479190613682565b610583565b005b61025661067f565b604051610264929190613dd7565b60405180910390f35b610275610ba7565b6040516102829190613df0565b60405180910390f35b610293610bc1565b6040516102a293929190613957565b60405180910390f35b6102c560048036038101906102c09190613768565b610c0f565b005b6102e160048036038101906102dc91906136f3565b610cb2565b005b6102eb610d82565b6040516102f8919061386a565b60405180910390f35b61031b600480360381019061031691906136d7565b610d9e565b005b610337600480360381019061033291906136f3565b610e3f565b005b610341610ef1565b60405161034e919061386a565b60405180910390f35b61035f610f04565b60405161036c9190613dc5565b60405180910390f35b61038f600480360381019061038a91906136f3565b610fc8565b005b6103ab60048036038101906103a69190613730565b61107a565b6040516103b891906138a6565b60405180910390f35b6103c96110c0565b6040516103db96959493929190613d68565b60405180910390f35b6103ec61116f565b6040516103f9919061379d565b60405180910390f35b61040a611195565b6040516104179190613dc5565b60405180910390f35b6104286111cc565b005b610432611a8f565b60405161043f9190613806565b60405180910390f35b610462600480360381019061045d9190613682565b611b25565b005b61047e60048036038101906104799190613768565b611cc1565b005b610488611d3a565b604051610495919061379d565b60405180910390f35b6104a6611d60565b005b6104c260048036038101906104bd91906136a9565b612018565b005b6104de60048036038101906104d991906136a9565b6120ce565b005b6104fa60048036038101906104f591906135ba565b612184565b005b61050461228d565b60405161051191906138a6565b60405180910390f35b61052861232863ffffffff16565b61053661238863ffffffff16565b5b5b565b7f000000000000000000000000000000000000000000000000000000000000000081565b600160005060205280600052604060002060009150909054906101000a900460ff1681565b61059161232863ffffffff16565b61062a600360005080548060200260200160405190810160405280929190818152602001828054801561061957602002820191906000526020600020905b8160009054906101000a900473ffffffffffffffffffffffffffffffffffffffff1673ffffffffffffffffffffffffffffffffffffffff16815260200190600101908083116105cf575b5050505050826123d263ffffffff16565b60036000509080519060200190610642929190613509565b507fe0c45385660471da2afc510ebde41d5f9361442fcda1f7a196e554fe3f6b561181604051610672919061379d565b60405180910390a15b5b50565b6000600060007f000000000000000000000000000000000000000000000000000000000000000073ffffffffffffffffffffffffffffffffffffffff1663d3419bf36040518163ffffffff1660e01b815260040160206040518083038186803b1580156106ec5760006000fd5b505afa158015610701573d600060003e3d6000fd5b505050506040513d601f19601f82011682018060405250810190610725919061365b565b905060006003600050805490509050600081111515610779576040517f08c379a000000000000000000000000000000000000000000000000000000000815260040161077090613a11565b60405180910390fd5b60008167ffffffffffffffff8111156107bb577f4e487b7100000000000000000000000000000000000000000000000000000000600052604160045260246000fd5b6040519080825280602002602001820160405280156107e95781602001602082028036833780820191505090505b5090506000600090505b82811015610954578373ffffffffffffffffffffffffffffffffffffffff16633c63a9cd600360005083815481101515610856577f4e487b7100000000000000000000000000000000000000000000000000000000600052603260045260246000fd5b906000526020600020900160005b9054906101000a900473ffffffffffffffffffffffffffffffffffffffff1660016040518363ffffffff1660e01b81526004016108a29291906138ce565b60206040518083038186803b1580156108bb5760006000fd5b505afa1580156108d0573d600060003e3d6000fd5b505050506040513d601f19601f820116820180604052508101906108f4919061374c565b828281518110151561092f577f4e487b7100000000000000000000000000000000000000000000000000000000600052603260045260246000fd5b60200260200101909081815260200150505b808061094c9061403d565b9150506107f3565b50610a12818473ffffffffffffffffffffffffffffffffffffffff16633c63a9cd7f000000000000000000000000000000000000000000000000000000000000000060016040518363ffffffff1660e01b81526004016109b59291906138ce565b60206040518083038186803b1580156109ce5760006000fd5b505afa1580156109e3573d600060003e3d6000fd5b505050506040513d601f19601f82011682018060405250810190610a07919061374c565b6125d963ffffffff16565b94508450610b8e60086000506000016000505460056000506040518060c00160405290816000820160009054906101000a90046fffffffffffffffffffffffffffffffff166fffffffffffffffffffffffffffffffff166fffffffffffffffffffffffffffffffff1681526020016000820160109054906101000a90046fffffffffffffffffffffffffffffffff166fffffffffffffffffffffffffffffffff166fffffffffffffffffffffffffffffffff1681526020016001820160009054906101000a90046fffffffffffffffffffffffffffffffff166fffffffffffffffffffffffffffffffff166fffffffffffffffffffffffffffffffff1681526020016001820160109054906101000a900467ffffffffffffffff1667ffffffffffffffff1667ffffffffffffffff1681526020016002820160009054906101000a9004600f0b600f0b600f0b81526020016002820160109054906101000a9004600f0b600f0b600f0b815260200150508761262463ffffffff16565b93508350848494509450505050610ba3565050505b9091565b600460009054906101000a900467ffffffffffffffff1681565b60086000508060000160005054908060010160009054906101000a900467ffffffffffffffff16908060010160089054906101000a90046fffffffffffffffffffffffffffffffff16905083565b610c1d61232863ffffffff16565b80600460006101000a81548167ffffffffffffffff021916908367ffffffffffffffff1602179055506000600460009054906101000a900467ffffffffffffffff1667ffffffffffffffff16111515610c765760006000fd5b7f517c1f8e39144dc2198ca9c7f0cb04ac8ecbffef718abb8a24b56d2ae881e0fe81604051610ca59190613df0565b60405180910390a15b5b50565b610cc061232863ffffffff16565b806fffffffffffffffffffffffffffffffff166000108015610cfb5750670de0b6b3a7640000816fffffffffffffffffffffffffffffffff16105b1515610d075760006000fd5b80600560005060000160106101000a8154816fffffffffffffffffffffffffffffffff02191690836fffffffffffffffffffffffffffffffff1602179055507f265b81e00f507e5ddfcde5e43ed2952f0462df065bf26eebc1c5bf184ab31cd381604051610d759190613d44565b60405180910390a15b5b50565b6000600060086000506000016000505412159050610d9b565b90565b610dac6127bf63ffffffff16565b610dba61289c63ffffffff16565b610e19600460089054906101000a900473ffffffffffffffffffffffffffffffffffffffff1673ffffffffffffffffffffffffffffffffffffffff163373ffffffffffffffffffffffffffffffffffffffff161461298f63ffffffff16565b8060086000506000016000508190909055505b5b610e3b6129d563ffffffff16565b5b50565b610e4d61232863ffffffff16565b670de0b6b3a7640000816fffffffffffffffffffffffffffffffff16101515610e765760006000fd5b80600560005060010160006101000a8154816fffffffffffffffffffffffffffffffff02191690836fffffffffffffffffffffffffffffffff1602179055507fbf56c5a0ff5b41763e4284940e0db09730e97d817e41e1396be9b9f2a9ed38fb81604051610ee49190613d44565b60405180910390a15b5b50565b600060009054906101000a900460ff1681565b6000610fbe6008600050604051806060016040529081600082016000505481526020016001820160009054906101000a900467ffffffffffffffff1667ffffffffffffffff1667ffffffffffffffff1681526020016001820160089054906101000a90046fffffffffffffffffffffffffffffffff166fffffffffffffffffffffffffffffffff166fffffffffffffffffffffffffffffffff1681526020015050610fb3612a6763ffffffff16565b612a8263ffffffff16565b9050610fc5565b90565b610fd661232863ffffffff16565b670de0b6b3a7640000816fffffffffffffffffffffffffffffffff16101515610fff5760006000fd5b80600560005060000160006101000a8154816fffffffffffffffffffffffffffffffff02191690836fffffffffffffffffffffffffffffffff1602179055507f94ff7d36ecf3da5a6cb7d7be5b429c938850be85f46d1d256c0dafe008b590a38160405161106d9190613d44565b60405180910390a15b5b50565b6003600050818154811061108d57600080fd5b906000526020600020900160005b9150909054906101000a900473ffffffffffffffffffffffffffffffffffffffff1681565b60056000508060000160009054906101000a90046fffffffffffffffffffffffffffffffff16908060000160109054906101000a90046fffffffffffffffffffffffffffffffff16908060010160009054906101000a90046fffffffffffffffffffffffffffffffff16908060010160109054906101000a900467ffffffffffffffff16908060020160009054906101000a9004600f0b908060020160109054906101000a9004600f0b905086565b600460089054906101000a900473ffffffffffffffffffffffffffffffffffffffff1681565b600060006008600050600001600050549050600081126111b557806111c0565b806111bf9061407c565b5b9150506111c956505b90565b6111da6127bf63ffffffff16565b6111e861289c63ffffffff16565b600073ffffffffffffffffffffffffffffffffffffffff16600460089054906101000a900473ffffffffffffffffffffffffffffffffffffffff1673ffffffffffffffffffffffffffffffffffffffff1614151561127b576040517f08c379a000000000000000000000000000000000000000000000000000000000815260040161127290613ace565b60405180910390fd5b60006008600050604051806060016040529081600082016000505481526020016001820160009054906101000a900467ffffffffffffffff1667ffffffffffffffff1667ffffffffffffffff1681526020016001820160089054906101000a90046fffffffffffffffffffffffffffffffff166fffffffffffffffffffffffffffffffff166fffffffffffffffffffffffffffffffff16815260200150509050611329612a6763ffffffff16565b67ffffffffffffffff16816020015167ffffffffffffffff1611151515611385576040517f08c379a000000000000000000000000000000000000000000000000000000000815260040161137c90613bca565b60405180910390fd5b60007f000000000000000000000000000000000000000000000000000000000000000073ffffffffffffffffffffffffffffffffffffffff1663d3419bf36040518163ffffffff1660e01b815260040160206040518083038186803b1580156113ee5760006000fd5b505afa158015611403573d600060003e3d6000fd5b505050506040513d601f19601f82011682018060405250810190611427919061365b565b90506000600360005080549050905060008111151561147b576040517f08c379a000000000000000000000000000000000000000000000000000000000815260040161147290613a11565b60405180910390fd5b60008167ffffffffffffffff8111156114bd577f4e487b7100000000000000000000000000000000000000000000000000000000600052604160045260246000fd5b6040519080825280602002602001820160405280156114eb5781602001602082028036833780820191505090505b5090506000600090505b82811015611655578373ffffffffffffffffffffffffffffffffffffffff1663ce403c13600360005083815481101515611558577f4e487b7100000000000000000000000000000000000000000000000000000000600052603260045260246000fd5b906000526020600020900160005b9054906101000a900473ffffffffffffffffffffffffffffffffffffffff166040518263ffffffff1660e01b81526004016115a191906138a6565b602060405180830381600087803b1580156115bc5760006000fd5b505af11580156115d1573d600060003e3d6000fd5b505050506040513d601f19601f820116820180604052508101906115f5919061374c565b8282815181101515611630577f4e487b7100000000000000000000000000000000000000000000000000000000600052603260045260246000fd5b60200260200101909081815260200150505b808061164d9061403d565b9150506114f5565b506000611714828573ffffffffffffffffffffffffffffffffffffffff1663ce403c137f00000000000000000000000000000000000000000000000000000000000000006040518263ffffffff1660e01b81526004016116b591906138a6565b602060405180830381600087803b1580156116d05760006000fd5b505af11580156116e5573d600060003e3d6000fd5b505050506040513d601f19601f82011682018060405250810190611709919061374c565b6125d963ffffffff16565b905060006040518060600160405280611894886000015160056000506040518060c00160405290816000820160009054906101000a90046fffffffffffffffffffffffffffffffff166fffffffffffffffffffffffffffffffff166fffffffffffffffffffffffffffffffff1681526020016000820160109054906101000a90046fffffffffffffffffffffffffffffffff166fffffffffffffffffffffffffffffffff166fffffffffffffffffffffffffffffffff1681526020016001820160009054906101000a90046fffffffffffffffffffffffffffffffff166fffffffffffffffffffffffffffffffff166fffffffffffffffffffffffffffffffff1681526020016001820160109054906101000a900467ffffffffffffffff1667ffffffffffffffff1667ffffffffffffffff1681526020016002820160009054906101000a9004600f0b600f0b600f0b81526020016002820160109054906101000a9004600f0b600f0b600f0b815260200150508661262463ffffffff16565b81526020016118be600460009054906101000a900467ffffffffffffffff16612b7363ffffffff16565b67ffffffffffffffff1681526020016118fa6118ed896118e2612a6763ffffffff16565b612a8263ffffffff16565b612ba9909063ffffffff16565b6fffffffffffffffffffffffffffffffff16815260200150905080600860005060008201518160000160005090905560208201518160010160006101000a81548167ffffffffffffffff021916908367ffffffffffffffff16021790555060408201518160010160086101000a8154816fffffffffffffffffffffffffffffffff02191690836fffffffffffffffffffffffffffffffff1602179055509050507f000000000000000000000000000000000000000000000000000000000000000073ffffffffffffffffffffffffffffffffffffffff16634cd7a3153383604001516040518363ffffffff1660e01b81526004016119f99291906137c5565b600060405180830381600087803b158015611a145760006000fd5b505af1158015611a29573d600060003e3d6000fd5b505050507f9f912bcb7b057a4f10fbbee5785670aecb2ab545144237646e17398d55de72dc81600001518383604001518460200151604051611a6e9493929190613914565b60405180910390a15050505050505b5b611a8c6129d563ffffffff16565b5b565b60606003600050805480602002602001604051908101604052809291908181526020018280548015611b1657602002820191906000526020600020905b8160009054906101000a900473ffffffffffffffffffffffffffffffffffffffff1673ffffffffffffffffffffffffffffffffffffffff1681526020019060010190808311611acc575b50505050509050611b22565b90565b611b3361232863ffffffff16565b611bcc6003600050805480602002602001604051908101604052809291908181526020018280548015611bbb57602002820191906000526020600020905b8160009054906101000a900473ffffffffffffffffffffffffffffffffffffffff1673ffffffffffffffffffffffffffffffffffffffff1681526020019060010190808311611b71575b505050505082612c0d63ffffffff16565b151515611c0e576040517f08c379a0000000000000000000000000000000000000000000000000000000008152600401611c0590613c87565b60405180910390fd5b611c1d81612c4f63ffffffff16565b600360005081908060018154018082558091505060019003906000526020600020900160005b9091909190916101000a81548173ffffffffffffffffffffffffffffffffffffffff021916908373ffffffffffffffffffffffffffffffffffffffff1602179055507fd815dd7ac4a8a5f5f1d3b09c4fb82cdf04e21e127619c6fca60b8f80e420492a81604051611cb4919061379d565b60405180910390a15b5b50565b611ccf61232863ffffffff16565b80600560005060010160106101000a81548167ffffffffffffffff021916908367ffffffffffffffff1602179055507fcf58c4278b7362e258dd9a03400b38f692197a7ceb18b1c31ff440c1f9d5062f81604051611d2d9190613df0565b60405180910390a15b5b50565b600a60009054906101000a900473ffffffffffffffffffffffffffffffffffffffff1681565b611dbf600a60009054906101000a900473ffffffffffffffffffffffffffffffffffffffff1673ffffffffffffffffffffffffffffffffffffffff163373ffffffffffffffffffffffffffffffffffffffff161461298f63ffffffff16565b600a60006101000a81549073ffffffffffffffffffffffffffffffffffffffff02191690557f000000000000000000000000000000000000000000000000000000000000000073ffffffffffffffffffffffffffffffffffffffff1663d3419bf36040518163ffffffff1660e01b815260040160206040518083038186803b158015611e4b5760006000fd5b505afa158015611e60573d600060003e3d6000fd5b505050506040513d601f19601f82011682018060405250810190611e84919061365b565b73ffffffffffffffffffffffffffffffffffffffff1663532cec7c7f00000000000000000000000000000000000000000000000000000000000000006040518263ffffffff1660e01b8152600401611edc91906138a6565b60206040518083038186803b158015611ef55760006000fd5b505afa158015611f0a573d600060003e3d6000fd5b505050506040513d601f19601f82011682018060405250810190611f2e91906135e1565b1515611f6f576040517f08c379a0000000000000000000000000000000000000000000000000000000008152600401611f6690613a50565b60405180910390fd5b6000600090505b60036000508054905081101561201457612000600360005082815481101515611fc8577f4e487b7100000000000000000000000000000000000000000000000000000000600052603260045260246000fd5b906000526020600020900160005b9054906101000a900473ffffffffffffffffffffffffffffffffffffffff16612c4f63ffffffff16565b5b808061200c9061403d565b915050611f76565b505b565b61202661232863ffffffff16565b600560005060020160109054906101000a9004600f0b600f0b81600f0b1215156120505760006000fd5b80600560005060020160006101000a8154816fffffffffffffffffffffffffffffffff0219169083600f0b6fffffffffffffffffffffffffffffffff1602179055507fc24e66dcb27dbd285d47a59317af2469aaec7df1cbef5058516e9f09c363a375816040516120c191906138ff565b60405180910390a15b5b50565b6120dc61232863ffffffff16565b80600f0b600560005060020160009054906101000a9004600f0b600f0b1215156121065760006000fd5b80600560005060020160106101000a8154816fffffffffffffffffffffffffffffffff0219169083600f0b6fffffffffffffffffffffffffffffffff1602179055507fddfcfaec23708d16c646e9e109985f7db635f6a645245e87946f7d2f64f4bb6a8160405161217791906138ff565b60405180910390a15b5b50565b61219261232863ffffffff16565b6121a181612d5f63ffffffff16565b15156121e2576040517f08c379a00000000000000000000000000000000000000000000000000000000081526004016121d990613c48565b60405180910390fd5b80600460086101000a81548173ffffffffffffffffffffffffffffffffffffffff021916908373ffffffffffffffffffffffffffffffffffffffff160217905550600460089054906101000a900473ffffffffffffffffffffffffffffffffffffffff1673ffffffffffffffffffffffffffffffffffffffff167fe0b059e7224cb02077d499d3dcdb8b5fd92486104e56578599357ed67977c1f860405160405180910390a25b5b50565b7f000000000000000000000000000000000000000000000000000000000000000081565b600081836122bf9190613ea9565b90506122c6565b92915050565b6000680100000000000000008210151561231b576040517f08c379a000000000000000000000000000000000000000000000000000000000815260040161231290613d05565b60405180910390fd5b819050612323565b919050565b6123857f000000000000000000000000000000000000000000000000000000000000000073ffffffffffffffffffffffffffffffffffffffff163373ffffffffffffffffffffffffffffffffffffffff161461298f63ffffffff16565b5b565b6001600060006101000a81548160ff0219169083151502179055507f7acc84e34091ae817647a4c49116f5cc07f319078ba80f8f5fde37ea7e25cbd660405160405180910390a15b565b606060006123e68484612d7963ffffffff16565b90507fffffffffffffffffffffffffffffffffffffffffffffffffffffffffffffffff811415151561244d576040517f08c379a0000000000000000000000000000000000000000000000000000000008152600401612444906139d2565b60405180910390fd5b60006001855161245d9190613fec565b67ffffffffffffffff81111561249c577f4e487b7100000000000000000000000000000000000000000000000000000000600052604160045260246000fd5b6040519080825280602002602001820160405280156124ca5781602001602082028036833780820191505090505b50905060006000600090505b86518110156125c45783811415156125b0578681815181101515612523577f4e487b7100000000000000000000000000000000000000000000000000000000600052603260045260246000fd5b60200260200101518383806125379061403d565b9450815181101515612572577f4e487b7100000000000000000000000000000000000000000000000000000000600052603260045260246000fd5b602002602001019073ffffffffffffffffffffffffffffffffffffffff16908173ffffffffffffffffffffffffffffffffffffffff16815260200150505b5b80806125bc9061403d565b9150506124d6565b508193505050506125d3565050505b92915050565b6000816125eb84612e4d63ffffffff16565b760a70c3c40a64e6c51999090b65f67d924000000000000061260d9190613f12565b6126179190613f12565b905061261e565b92915050565b60006000670de0b6b3a76400008310905060008161265557670de0b6b3a7640000846126509190613fec565b61266a565b83670de0b6b3a76400006126699190613fec565b5b905084600001516fffffffffffffffffffffffffffffffff16811015156127745760006126eb6126de600188602001516fffffffffffffffffffffffffffffffff16856126b79190613f12565b6126c19190613e89565b886060015167ffffffffffffffff1661328390919063ffffffff16565b612ba9909063ffffffff16565b9050600061273a61271b8389604001516fffffffffffffffffffffffffffffffff166132a190919063ffffffff16565b6fffffffffffffffffffffffffffffffff166132bc909063ffffffff16565b90508361275957612754818961332f90919063ffffffff16565b61276d565b61276c818961334a90919063ffffffff16565b5b9750875050505b8460800151600f0b861215612790578460800151600f0b955085505b8460a00151600f0b8613156127ac578460a00151600f0b955085505b85925050506127b85650505b9392505050565b7f000000000000000000000000000000000000000000000000000000000000000073ffffffffffffffffffffffffffffffffffffffff1663e97dcb626040518163ffffffff1660e01b8152600401600060405180830381600087803b1580156128285760006000fd5b505af115801561283d573d600060003e3d6000fd5b5050505060026002600050541415151561288c576040517f08c379a000000000000000000000000000000000000000000000000000000000815260040161288390613b0d565b60405180910390fd5b600260026000508190909055505b565b6128aa61336563ffffffff16565b7f000000000000000000000000000000000000000000000000000000000000000073ffffffffffffffffffffffffffffffffffffffff1663bf86d6906040518163ffffffff1660e01b815260040160206040518083038186803b1580156129115760006000fd5b505afa158015612926573d600060003e3d6000fd5b505050506040513d601f19601f8201168201806040525081019061294a91906135e1565b15151561298c576040517f08c379a000000000000000000000000000000000000000000000000000000000815260040161298390613993565b60405180910390fd5b5b565b8015156129d1576040517f08c379a00000000000000000000000000000000000000000000000000000000081526004016129c890613a8f565b60405180910390fd5b5b50565b600160026000508190909055507f000000000000000000000000000000000000000000000000000000000000000073ffffffffffffffffffffffffffffffffffffffff1663e9fad8ee6040518163ffffffff1660e01b8152600401600060405180830381600087803b158015612a4b5760006000fd5b505af1158015612a60573d600060003e3d6000fd5b505050505b565b6000612a7a426122cc909063ffffffff16565b905080505b90565b6000826020015167ffffffffffffffff168267ffffffffffffffff16111515612aae5760009050612b6d565b600060028460400151612ac19190613edc565b6fffffffffffffffffffffffffffffffff1690506000612b07856020015185612aea919061400b565b67ffffffffffffffff16610708846133ba9092919063ffffffff16565b82612b129190613e89565b9050612b62612b41600587604001516fffffffffffffffffffffffffffffffff166132a190919063ffffffff16565b6fffffffffffffffffffffffffffffffff168261328390919063ffffffff16565b92505050612b6d5650505b92915050565b6000612b9f82612b87612a6763ffffffff16565b67ffffffffffffffff166122b190919063ffffffff16565b905080505b919050565b600070010000000000000000000000000000000082101515612c00576040517f08c379a0000000000000000000000000000000000000000000000000000000008152600401612bf790613c09565b60405180910390fd5b819050612c08565b919050565b60007fffffffffffffffffffffffffffffffffffffffffffffffffffffffffffffffff612c408484612d7963ffffffff16565b14159050612c49565b92915050565b7f000000000000000000000000000000000000000000000000000000000000000073ffffffffffffffffffffffffffffffffffffffff1663d3419bf36040518163ffffffff1660e01b815260040160206040518083038186803b158015612cb65760006000fd5b505afa158015612ccb573d600060003e3d6000fd5b505050506040513d601f19601f82011682018060405250810190612cef919061365b565b73ffffffffffffffffffffffffffffffffffffffff16637c5b9011826040518263ffffffff1660e01b8152600401612d2791906138a6565b600060405180830381600087803b158015612d425760006000fd5b505af1158015612d57573d600060003e3d6000fd5b505050505b50565b60006000823b905060008111915050612d7456505b919050565b60006000600090505b8351811015612e1e578273ffffffffffffffffffffffffffffffffffffffff168482815181101515612ddd577f4e487b7100000000000000000000000000000000000000000000000000000000600052603260045260246000fd5b602002602001015173ffffffffffffffffffffffffffffffffffffffff161415612e0a5780915050612e47565b5b8080612e169061403d565b915050612d82565b507fffffffffffffffffffffffffffffffffffffffffffffffffffffffffffffffff9050612e47565b92915050565b6000600082519050600081111515612e9a576040517f08c379a0000000000000000000000000000000000000000000000000000000008152600401612e9190613b4c565b60405180910390fd5b6000600060005b600284111561317957856000815181101515612ee6577f4e487b7100000000000000000000000000000000000000000000000000000000600052603260045260246000fd5b602002602001015191508150856000815181101515612f2e577f4e487b7100000000000000000000000000000000000000000000000000000000600052603260045260246000fd5b6020026020010151905080506000600190505b84811015612fc0578681815181101515612f84577f4e487b7100000000000000000000000000000000000000000000000000000000600052603260045260246000fd5b60200260200101519350835082841015612f9e5783925082505b81841115612fac5783915081505b5b8080612fb89061403d565b915050612f41565b5080821415612fd5578194505050505061327e565b6000600285612fe49190613fec565b67ffffffffffffffff811115613023577f4e487b7100000000000000000000000000000000000000000000000000000000600052604160045260246000fd5b6040519080825280602002602001820160405280156130515781602001602082028036833780820191505090505b5090506000600060006000600090505b88811015613159578a818151811015156130a4577f4e487b7100000000000000000000000000000000000000000000000000000000600052603260045260246000fd5b60200260200101519750875086881480156130bd575081155b156130cd57600191508150613145565b85881480156130da575082155b156130ea57600192508250613144565b878585806130f79061403d565b9650815181101515613132577f4e487b7100000000000000000000000000000000000000000000000000000000600052603260045260246000fd5b60200260200101909081815260200150505b5b5b80806131519061403d565b915050613061565b506002886131679190613fec565b97508750839950895050505050612ea1565b60018414156131d5578560008151811015156131be577f4e487b7100000000000000000000000000000000000000000000000000000000600052603260045260246000fd5b602002602001015194505050505061327e56613279565b61326e866001815181101515613214577f4e487b7100000000000000000000000000000000000000000000000000000000600052603260045260246000fd5b6020026020010151876000815181101515613258577f4e487b7100000000000000000000000000000000000000000000000000000000600052603260045260246000fd5b60200260200101516134de90919063ffffffff16565b94505050505061327e565b505050505b919050565b60008183106132925781613294565b825b905061329b565b92915050565b600081836132af9190613f30565b90506132b6565b92915050565b60007f800000000000000000000000000000000000000000000000000000000000000082101515613322576040517f08c379a000000000000000000000000000000000000000000000000000000000815260040161331990613b8b565b60405180910390fd5b81905061332a565b919050565b6000818361333d9190613f6f565b9050613344565b92915050565b600081836133589190613e0c565b905061335f565b92915050565b600060009054906101000a900460ff161515156133b7576040517f08c379a00000000000000000000000000000000000000000000000000000000081526004016133ae90613cc6565b60405180910390fd5b5b565b60006000600060001985870985870292508281108382030391505060008114156133fd576000841115156133ee5760006000fd5b838204925082925050506134d7565b808411151561340c5760006000fd5b60008486880990508281118203915080830392506000856001877fffffffffffffffffffffffffffffffffffffffffffffffffffffffffffffffff0301169050805080860495508084049350600181826000030401905080830284179350835060006002876003021890508087026002038102905080508087026002038102905080508087026002038102905080508087026002038102905080508087026002038102905080508087026002038102905080508085029550855050849450505050506134d756505050505b9392505050565b600060028284186134ef9190613f12565b8284166134fc9190613e89565b9050613503565b92915050565b828054828255906000526020600020908101928215613582579160200282015b828111156135815782518260006101000a81548173ffffffffffffffffffffffffffffffffffffffff021916908373ffffffffffffffffffffffffffffffffffffffff16021790555091602001919060010190613529565b5b50905061358f9190613593565b5090565b613598565b808211156135b25760008181506000905550600101613598565b509056614145565b6000602082840312156135cb578081fd5b81356135d68161411c565b809150505b92915050565b6000602082840312156135f2578081fd5b815180151581141515613603578182fd5b809150505b92915050565b60006020828403121561361f578081fd5b81357fffffffff00000000000000000000000000000000000000000000000000000000811681141515613650578182fd5b809150505b92915050565b60006020828403121561366c578081fd5b81516136778161411c565b809150505b92915050565b600060208284031215613693578081fd5b813561369e8161411c565b809150505b92915050565b6000602082840312156136ba578081fd5b813580600f0b811415156136cc578182fd5b809150505b92915050565b6000602082840312156136e8578081fd5b813590505b92915050565b600060208284031215613704578081fd5b81356fffffffffffffffffffffffffffffffff811681141515613725578182fd5b809150505b92915050565b600060208284031215613741578081fd5b813590505b92915050565b60006020828403121561375d578081fd5b815190505b92915050565b600060208284031215613779578081fd5b813567ffffffffffffffff811681141515613792578182fd5b809150505b92915050565b600060208201905073ffffffffffffffffffffffffffffffffffffffff831682525b92915050565b600060408201905073ffffffffffffffffffffffffffffffffffffffff841682526fffffffffffffffffffffffffffffffff831660208301525b9392505050565b600060208083018184528085518083526040860191508387019250845b8181101561385b5773ffffffffffffffffffffffffffffffffffffffff8451168352848301925084840193505b600181019050613823565b50508093505050505b92915050565b600060208201905082151582525b92915050565b600060208201905073ffffffffffffffffffffffffffffffffffffffff831682525b92915050565b600060208201905073ffffffffffffffffffffffffffffffffffffffff831682525b92915050565b600060408201905073ffffffffffffffffffffffffffffffffffffffff8416825282151560208301525b9392505050565b600060208201905082600f0b82525b92915050565b60006080820190508582528460208301526fffffffffffffffffffffffffffffffff8416604083015267ffffffffffffffff831660608301525b95945050505050565b600060608201905084825267ffffffffffffffff841660208301526fffffffffffffffffffffffffffffffff831660408301525b949350505050565b60208152601160208201527f50726f746f636f6c2073687574646f776e000000000000000000000000000000604082015260006060820190505b919050565b60208152600960208201527f4e6f7420666f756e640000000000000000000000000000000000000000000000604082015260006060820190505b919050565b60208152601260208201527f4e6f207265666572656e636520706f6f6c730000000000000000000000000000604082015260006060820190505b919050565b60208152601460208201527f506f6f6c206e6f7420696e697469616c697a6564000000000000000000000000604082015260006060820190505b919050565b60208152600e60208201527f4e6f7420417574686f72697a6564000000000000000000000000000000000000604082015260006060820190505b919050565b60208152601960208201527f5261746573207570646174652064656c65676174652073657400000000000000604082015260006060820190505b919050565b60208152600d60208201527f4c50205265656e7472616e637900000000000000000000000000000000000000604082015260006060820190505b919050565b60208152600560208201527f656d707479000000000000000000000000000000000000000000000000000000604082015260006060820190505b919050565b60208152601260208201527f746f6f2062696720666f7220696e743235360000000000000000000000000000604082015260006060820190505b919050565b60208152601060208201527f557064617465206e6f7420726561647900000000000000000000000000000000604082015260006060820190505b919050565b60208152601260208201527f6d6f7265207468616e2031323820626974730000000000000000000000000000604082015260006060820190505b919050565b60208152600e60208201527f4e6f74206120636f6e7472616374000000000000000000000000000000000000604082015260006060820190505b919050565b60208152600d60208201527f416c726561647920616464656400000000000000000000000000000000000000604082015260006060820190505b919050565b60208152601360208201527f436f6e74726163742069732073746f7070656400000000000000000000000000604082015260006060820190505b919050565b60208152601160208201527f6d6f7265207468616e2036342062697473000000000000000000000000000000604082015260006060820190505b919050565b60006020820190506fffffffffffffffffffffffffffffffff831682525b92915050565b600060c0820190506fffffffffffffffffffffffffffffffff8089168352808816602084015280871660408401525067ffffffffffffffff8516606083015283600f0b608083015282600f0b60a08301525b979650505050505050565b60006020820190508282525b92915050565b60006040820190508382528260208301525b9392505050565b600060208201905067ffffffffffffffff831682525b92915050565b6000808212827f7fffffffffffffffffffffffffffffffffffffffffffffffffffffffffffffff03841381151615613e4757613e466140ba565b5b827f8000000000000000000000000000000000000000000000000000000000000000038412811615613e7c57613e7b6140ba565b5b5082820190505b92915050565b60008219821115613e9d57613e9c6140ba565b5b82820190505b92915050565b600067ffffffffffffffff808316818516808303821115613ecd57613ecc6140ba565b5b80820193505050505b92915050565b60006fffffffffffffffffffffffffffffffff808416801515613f0257613f016140eb565b5b8082851604925050505b92915050565b6000821515613f2457613f236140eb565b5b82820490505b92915050565b60006fffffffffffffffffffffffffffffffff80831681851681830481118215151615613f6057613f5f6140ba565b5b80820293505050505b92915050565b6000808312837f800000000000000000000000000000000000000000000000000000000000000001831281151615613faa57613fa96140ba565b5b837f7fffffffffffffffffffffffffffffffffffffffffffffffffffffffffffffff018313811615613fdf57613fde6140ba565b5b5082820390505b92915050565b600082821015613fff57613ffe6140ba565b5b82820390505b92915050565b600067ffffffffffffffff80831681851691508181101561402f5761402e6140ba565b5b818103925050505b92915050565b60007fffffffffffffffffffffffffffffffffffffffffffffffffffffffffffffffff8214156140705761406f6140ba565b5b6001820190505b919050565b60007f80000000000000000000000000000000000000000000000000000000000000008214156140af576140ae6140ba565b5b81810390505b919050565b7f4e487b7100000000000000000000000000000000000000000000000000000000600052601160045260246000fd5b565b7f4e487b7100000000000000000000000000000000000000000000000000000000600052601260045260246000fd5b565b73ffffffffffffffffffffffffffffffffffffffff8116811415156141415760006000fd5b505b565bfea2646970667358221220c489b06a1e1a91d047eddf5d60e1b7ffecdd78a7e080756c5dac4a2ea642d00564736f6c63430008040033",
  "linkReferences": {},
  "deployedLinkReferences": {}
}