{
  "_format": "hh-sol-artifact-1",
  "contractName": "Rates",
  "sourceName": "contracts/core/logic/Rates.sol",
  "abi": [
    {
      "inputs": [
        {
          "components": [
            {
              "internalType": "contract IGovernor",
              "name": "Governor",
              "type": "address"
            },
            {
              "internalType": "contract IProtocolLock",
              "name": "ProtocolLock",
              "type": "address"
            },
            {
              "internalType": "contract IUniswapV3Pool",
              "name": "CollateralPool",
              "type": "address"
            },
            {
              "internalType": "contract IUniswapV3Pool[]",
              "name": "ReferencePools",
              "type": "address[]"
            }
          ],
          "internalType": "struct IRates.ConstructorParams",
          "name": "params",
          "type": "tuple"
        }
      ],
      "stateMutability": "nonpayable",
      "type": "constructor"
    },
    {
      "anonymous": false,
      "inputs": [
        {
          "indexed": false,
          "internalType": "uint128",
          "name": "error",
          "type": "uint128"
        }
      ],
      "name": "AcceptableErrorUpdated",
      "type": "event"
    },
    {
      "anonymous": false,
      "inputs": [
        {
          "indexed": false,
          "internalType": "uint128",
          "name": "error",
          "type": "uint128"
        }
      ],
      "name": "ErrorIntervalUpdated",
      "type": "event"
    },
    {
      "anonymous": false,
      "inputs": [
        {
          "indexed": false,
          "internalType": "uint128",
          "name": "step",
          "type": "uint128"
        }
      ],
      "name": "InterestRateStepUpdated",
      "type": "event"
    },
    {
      "anonymous": false,
      "inputs": [
        {
          "indexed": false,
          "internalType": "int128",
          "name": "max",
          "type": "int128"
        }
      ],
      "name": "MaxRateUpdated",
      "type": "event"
    },
    {
      "anonymous": false,
      "inputs": [
        {
          "indexed": false,
          "internalType": "uint64",
          "name": "steps",
          "type": "uint64"
        }
      ],
      "name": "MaxStepsUpdated",
      "type": "event"
    },
    {
      "anonymous": false,
      "inputs": [
        {
          "indexed": false,
          "internalType": "int128",
          "name": "min",
          "type": "int128"
        }
      ],
      "name": "MinRateUpdated",
      "type": "event"
    },
    {
      "anonymous": false,
      "inputs": [
        {
          "indexed": false,
          "internalType": "uint64",
          "name": "time",
          "type": "uint64"
        }
      ],
      "name": "MinTimeBetweenUpdatesUpdated",
      "type": "event"
    },
    {
      "anonymous": false,
      "inputs": [
        {
          "indexed": false,
          "internalType": "int256",
          "name": "interestRate",
          "type": "int256"
        },
        {
          "indexed": false,
          "internalType": "uint256",
          "name": "price",
          "type": "uint256"
        },
        {
          "indexed": false,
          "internalType": "uint256",
          "name": "rewardCount",
          "type": "uint256"
        },
        {
          "indexed": false,
          "internalType": "uint64",
          "name": "nextUpdateTime",
          "type": "uint64"
        }
      ],
      "name": "RateUpdated",
      "type": "event"
    },
    {
      "anonymous": false,
      "inputs": [
        {
          "indexed": false,
          "internalType": "address",
          "name": "pool",
          "type": "address"
        }
      ],
      "name": "ReferencePoolAdded",
      "type": "event"
    },
    {
      "anonymous": false,
      "inputs": [
        {
          "indexed": false,
          "internalType": "address",
          "name": "pool",
          "type": "address"
        }
      ],
      "name": "ReferencePoolRemoved",
      "type": "event"
    },
    {
      "anonymous": false,
      "inputs": [],
      "name": "Stopped",
      "type": "event"
    },
    {
      "inputs": [
        {
          "internalType": "contract IUniswapV3Pool",
          "name": "pool",
          "type": "address"
        }
      ],
      "name": "addReferencePool",
      "outputs": [],
      "stateMutability": "nonpayable",
      "type": "function"
    },
    {
      "inputs": [],
      "name": "collateralPool",
      "outputs": [
        {
          "internalType": "contract IUniswapV3Pool",
          "name": "",
          "type": "address"
        }
      ],
      "stateMutability": "view",
      "type": "function"
    },
    {
      "inputs": [],
      "name": "currentRateData",
      "outputs": [
        {
          "internalType": "int256",
          "name": "rate",
          "type": "int256"
        },
        {
          "internalType": "uint64",
          "name": "nextUpdateTime",
          "type": "uint64"
        },
        {
          "internalType": "uint128",
          "name": "rewardCount",
          "type": "uint128"
        }
      ],
      "stateMutability": "view",
      "type": "function"
    },
    {
      "inputs": [],
      "name": "deployer",
      "outputs": [
        {
          "internalType": "address",
          "name": "",
          "type": "address"
        }
      ],
      "stateMutability": "view",
      "type": "function"
    },
    {
      "inputs": [],
      "name": "getReferencePools",
      "outputs": [
        {
          "internalType": "contract IUniswapV3Pool[]",
          "name": "",
          "type": "address[]"
        }
      ],
      "stateMutability": "view",
      "type": "function"
    },
    {
      "inputs": [],
      "name": "getRewardCount",
      "outputs": [
        {
          "internalType": "uint256",
          "name": "",
          "type": "uint256"
        }
      ],
      "stateMutability": "view",
      "type": "function"
    },
    {
      "inputs": [],
      "name": "governor",
      "outputs": [
        {
          "internalType": "contract IGovernor",
          "name": "",
          "type": "address"
        }
      ],
      "stateMutability": "view",
      "type": "function"
    },
    {
      "inputs": [],
      "name": "init",
      "outputs": [],
      "stateMutability": "nonpayable",
      "type": "function"
    },
    {
      "inputs": [],
      "name": "interestRateAbsoluteValue",
      "outputs": [
        {
          "internalType": "uint256",
          "name": "",
          "type": "uint256"
        }
      ],
      "stateMutability": "view",
      "type": "function"
    },
    {
      "inputs": [],
      "name": "interestRateParameters",
      "outputs": [
        {
          "internalType": "uint128",
          "name": "acceptableError",
          "type": "uint128"
        },
        {
          "internalType": "uint128",
          "name": "errorInterval",
          "type": "uint128"
        },
        {
          "internalType": "uint128",
          "name": "interestRateStep",
          "type": "uint128"
        },
        {
          "internalType": "uint64",
          "name": "maxSteps",
          "type": "uint64"
        },
        {
          "internalType": "int128",
          "name": "minRate",
          "type": "int128"
        },
        {
          "internalType": "int128",
          "name": "maxRate",
          "type": "int128"
        }
      ],
      "stateMutability": "view",
      "type": "function"
    },
    {
      "inputs": [],
      "name": "minTimeBetweenUpdates",
      "outputs": [
        {
          "internalType": "uint64",
          "name": "",
          "type": "uint64"
        }
      ],
      "stateMutability": "view",
      "type": "function"
    },
    {
      "inputs": [],
      "name": "positiveInterestRate",
      "outputs": [
        {
          "internalType": "bool",
          "name": "",
          "type": "bool"
        }
      ],
      "stateMutability": "view",
      "type": "function"
    },
    {
      "inputs": [],
      "name": "predictInterestRate",
      "outputs": [
        {
          "internalType": "uint256",
          "name": "price",
          "type": "uint256"
        },
        {
          "internalType": "int256",
          "name": "rate",
          "type": "int256"
        }
      ],
      "stateMutability": "view",
      "type": "function"
    },
    {
      "inputs": [
        {
          "internalType": "uint256",
          "name": "",
          "type": "uint256"
        }
      ],
      "name": "referencePools",
      "outputs": [
        {
          "internalType": "contract IUniswapV3Pool",
          "name": "",
          "type": "address"
        }
      ],
      "stateMutability": "view",
      "type": "function"
    },
    {
      "inputs": [
        {
          "internalType": "contract IUniswapV3Pool",
          "name": "pool",
          "type": "address"
        }
      ],
      "name": "removeReferencePool",
      "outputs": [],
      "stateMutability": "nonpayable",
      "type": "function"
    },
    {
      "inputs": [
        {
          "internalType": "uint128",
          "name": "error",
          "type": "uint128"
        }
      ],
      "name": "setAcceptableError",
      "outputs": [],
      "stateMutability": "nonpayable",
      "type": "function"
    },
    {
      "inputs": [
        {
          "internalType": "uint128",
          "name": "interval",
          "type": "uint128"
        }
      ],
      "name": "setErrorInterval",
      "outputs": [],
      "stateMutability": "nonpayable",
      "type": "function"
    },
    {
      "inputs": [
        {
          "internalType": "uint128",
          "name": "step",
          "type": "uint128"
        }
      ],
      "name": "setInterestRateStep",
      "outputs": [],
      "stateMutability": "nonpayable",
      "type": "function"
    },
    {
      "inputs": [
        {
          "internalType": "int128",
          "name": "max",
          "type": "int128"
        }
      ],
      "name": "setMaxRate",
      "outputs": [],
      "stateMutability": "nonpayable",
      "type": "function"
    },
    {
      "inputs": [
        {
          "internalType": "uint64",
          "name": "steps",
          "type": "uint64"
        }
      ],
      "name": "setMaxSteps",
      "outputs": [],
      "stateMutability": "nonpayable",
      "type": "function"
    },
    {
      "inputs": [
        {
          "internalType": "int128",
          "name": "min",
          "type": "int128"
        }
      ],
      "name": "setMinRate",
      "outputs": [],
      "stateMutability": "nonpayable",
      "type": "function"
    },
    {
      "inputs": [
        {
          "internalType": "uint64",
          "name": "time",
          "type": "uint64"
        }
      ],
      "name": "setMinTimeBetweenUpdates",
      "outputs": [],
      "stateMutability": "nonpayable",
      "type": "function"
    },
    {
      "inputs": [],
      "name": "stop",
      "outputs": [],
      "stateMutability": "nonpayable",
      "type": "function"
    },
    {
      "inputs": [],
      "name": "stopped",
      "outputs": [
        {
          "internalType": "bool",
          "name": "",
          "type": "bool"
        }
      ],
      "stateMutability": "view",
      "type": "function"
    },
    {
      "inputs": [],
      "name": "update",
      "outputs": [],
      "stateMutability": "nonpayable",
      "type": "function"
    },
    {
      "inputs": [
        {
          "internalType": "bytes4",
          "name": "",
          "type": "bytes4"
        }
      ],
      "name": "validUpdate",
      "outputs": [
        {
          "internalType": "bool",
          "name": "",
          "type": "bool"
        }
      ],
      "stateMutability": "view",
      "type": "function"
    }
  ],
  "bytecode": "0x60e06040526001600260005090905562014a78600460006101000a81548167ffffffffffffffff021916908367ffffffffffffffff160217905550348015620000485760006000fd5b50604051620044c5380380620044c583398181016040528101906200006e919062000a72565b5b806000015181602001515b815b8073ffffffffffffffffffffffffffffffffffffffff1660808173ffffffffffffffffffffffffffffffffffffffff1660601b815260140150505b508073ffffffffffffffffffffffffffffffffffffffff1660a08173ffffffffffffffffffffffffffffffffffffffff1660601b815260140150505b5050806040015173ffffffffffffffffffffffffffffffffffffffff1660c08173ffffffffffffffffffffffffffffffffffffffff1660601b8152601401505080606001516003600050908051906020019062000152929190620008f4565b506040518060c0016040528066038d7ea4c680006fffffffffffffffffffffffffffffffff1681526020016611c37937e080006fffffffffffffffffffffffffffffffff1681526020016611c37937e080006fffffffffffffffffffffffffffffffff168152602001600567ffffffffffffffff1681526020017ffffffffffffffffffffffffffffffffffffffffffffffffffdeb17cb73b10000600f0b81526020016706f05b59d3b20000600f0b815260200150600560005060008201518160000160006101000a8154816fffffffffffffffffffffffffffffffff02191690836fffffffffffffffffffffffffffffffff16021790555060208201518160000160106101000a8154816fffffffffffffffffffffffffffffffff02191690836fffffffffffffffffffffffffffffffff16021790555060408201518160010160006101000a8154816fffffffffffffffffffffffffffffffff02191690836fffffffffffffffffffffffffffffffff16021790555060608201518160010160106101000a81548167ffffffffffffffff021916908367ffffffffffffffff16021790555060808201518160020160006101000a8154816fffffffffffffffffffffffffffffffff0219169083600f0b6fffffffffffffffffffffffffffffffff16021790555060a08201518160020160106101000a8154816fffffffffffffffffffffffffffffffff0219169083600f0b6fffffffffffffffffffffffffffffffff160217905550905050604051806060016040528066b1a2bc2ec500008152602001620003e0600460009054906101000a900467ffffffffffffffff16620003c2620007a060201b60201c565b67ffffffffffffffff16620007c260201b62001e531790919060201c565b67ffffffffffffffff16815260200168056bc75e2d631000006fffffffffffffffffffffffffffffffff16815260200150600860005060008201518160000160005090905560208201518160010160006101000a81548167ffffffffffffffff021916908367ffffffffffffffff16021790555060408201518160010160086101000a8154816fffffffffffffffffffffffffffffffff02191690836fffffffffffffffffffffffffffffffff16021790555090505060006040518060e001604052806380ddbdb460e01b7bffffffffffffffffffffffffffffffffffffffffffffffffffffffff19167bffffffffffffffffffffffffffffffffffffffffffffffffffffffff19168152602001635fd019ad60e01b7bffffffffffffffffffffffffffffffffffffffffffffffffffffffff19167bffffffffffffffffffffffffffffffffffffffffffffffffffffffff19168152602001636e16ead260e01b7bffffffffffffffffffffffffffffffffffffffffffffffffffffffff19167bffffffffffffffffffffffffffffffffffffffffffffffffffffffff19168152602001635d8350b460e01b7bffffffffffffffffffffffffffffffffffffffffffffffffffffffff19167bffffffffffffffffffffffffffffffffffffffffffffffffffffffff1916815260200163d3ab388860e01b7bffffffffffffffffffffffffffffffffffffffffffffffffffffffff19167bffffffffffffffffffffffffffffffffffffffffffffffffffffffff1916815260200163ee47304d60e01b7bffffffffffffffffffffffffffffffffffffffffffffffffffffffff19167bffffffffffffffffffffffffffffffffffffffffffffffffffffffff1916815260200163eec3f6f160e01b7bffffffffffffffffffffffffffffffffffffffffffffffffffffffff19167bffffffffffffffffffffffffffffffffffffffffffffffffffffffff191681526020015090506000600090505b8150600781101562000755576001600160005060008484600781101515620006de57fe5b60200201517bffffffffffffffffffffffffffffffffffffffffffffffffffffffff19167bffffffffffffffffffffffffffffffffffffffffffffffffffffffff1916815260200190815260200160002060006101000a81548160ff0219169083151502179055505b8080600101915050620006ba565b5033600a60006101000a81548173ffffffffffffffffffffffffffffffffffffffff021916908373ffffffffffffffffffffffffffffffffffffffff160217905550505b5062000b57565b6000620007ba426200086060201b62001ef017909060201c565b905080505b90565b60008267ffffffffffffffff1682840191508167ffffffffffffffff161015151562000859576040517f08c379a000000000000000000000000000000000000000000000000000000000815260040180806020018281038252600c8152602001807f6164642d6f766572666c6f77000000000000000000000000000000000000000081526020015060200191505060405180910390fd5b5b92915050565b60006801000000000000000082101515620008e6576040517f08c379a00000000000000000000000000000000000000000000000000000000081526004018080602001828103825260118152602001807f6d6f7265207468616e203634206269747300000000000000000000000000000081526020015060200191505060405180910390fd5b819050620008ef565b919050565b82805482825590600052602060002090810192821562000970579160200282015b828111156200096f5782518260006101000a81548173ffffffffffffffffffffffffffffffffffffffff021916908373ffffffffffffffffffffffffffffffffffffffff1602179055509160200191906001019062000915565b5b5090506200097f919062000983565b5090565b62000989565b80821115620009a5576000818150600090555060010162000989565b50905662000b56565b600082601f8301121515620009c1578081fd5b815160206001600160401b0380831115620009d857fe5b81830260405183828201018181108482111715620009f257fe5b806040525080925084815283810192508387018885848a0101111562000a16578687fd5b8692505b8583101562000a4b57805162000a308162000b39565b80855250848401935084810190505b60018301925062000a1a565b5080955050505050505b92915050565b60008151905062000a6c8162000b39565b5b919050565b60006020828403121562000a84578081fd5b81516001600160401b038082111562000a9b578283fd5b81840191506080828603121562000ab0578283fd5b60405160808101818110838211171562000ac657fe5b8060405250825162000ad88162000b39565b80825250602083015162000aec8162000b39565b8060208301525062000b016040840162000a5b565b604082015260608301518281111562000b18578485fd5b62000b2687828601620009ae565b6060830152508093505050505b92915050565b6001600160a01b0381168114151562000b525760006000fd5b5b50565b5b60805160601c60a05160601c60c05160601c61390162000bc46000398061088152806113585280611b7f5280611e3152508061247652806127935250806104c5528061065d5280611133528061167a5280611ac45280611f875280612597528061285a52506139016000f3fe60806040523480156100115760006000fd5b50600436106101b35760003560e01c806380ddbdb4116100ef578063c381c1e611610098578063e1c7392a11610072578063e1c7392a14610443578063ee47304d1461044d578063eec3f6f114610469578063ff0eccf614610485576101b3565b8063c381c1e6146103ed578063d3ab388814610409578063d5f3948814610425576101b3565b8063a0fc0eda116100c9578063a0fc0eda146103a7578063a2e62045146103c5578063ab658be2146103cf576101b3565b806380ddbdb41461033857806384333cc71461035457806395563b4714610384576101b3565b80631f244faf1161015c5780636d7fa664116101365780636d7fa664146102c25780636e16ead2146102e057806375f12b21146102fc5780637e7e8eec1461031a576101b3565b80631f244faf1461026a5780635d8350b41461028a5780635fd019ad146102a6576101b3565b8063150147d71161018d578063150147d714610211578063178d12261461022d57806319a6e9e61461024c576101b3565b806307da68f5146101b95780630c340a24146101c3578063113cf1ab146101e1576101b3565b60006000fd5b6101c16104a3565b005b6101cb6104c3565b6040516101d89190613505565b60405180910390f35b6101fb60048036038101906101f691906132b1565b6104e7565b60405161020891906134f1565b60405180910390f35b61022b60048036038101906102269190613325565b61050c565b005b610235610655565b604051610243929190613827565b60405180910390f35b610254610ab1565b6040516102619190613840565b60405180910390f35b610272610acb565b604051610281939291906135de565b60405180910390f35b6102a4600480360381019061029f91906133ef565b610b19565b005b6102c060048036038101906102bb919061337a565b610bbc565b005b6102ca610c8c565b6040516102d791906134f1565b60405180910390f35b6102fa60048036038101906102f5919061337a565b610ca8565b005b610304610d5a565b60405161031191906134f1565b60405180910390f35b610322610d6d565b60405161032f9190613815565b60405180910390f35b610352600480360381019061034d919061337a565b610e31565b005b61036e600480360381019061036991906133b7565b610ee3565b60405161037b919061352d565b60405180910390f35b61038c610f29565b60405161039e969594939291906137b8565b60405180910390f35b6103af610fd8565b6040516103bc9190613815565b60405180910390f35b6103cd611009565b005b6103d761176d565b6040516103e4919061348d565b60405180910390f35b61040760048036038101906104029190613325565b611803565b005b610423600480360381019061041e91906133ef565b61199f565b005b61042d611a18565b60405161043a9190613424565b60405180910390f35b61044b611a3e565b005b6104676004803603810190610462919061334c565b611cc3565b005b610483600480360381019061047e919061334c565b611d79565b005b61048d611e2f565b60405161049a919061352d565b60405180910390f35b6104b1611f8263ffffffff16565b6104bf611fe263ffffffff16565b5b5b565b7f000000000000000000000000000000000000000000000000000000000000000081565b600160005060205280600052604060002060009150909054906101000a900460ff1681565b61051a611f8263ffffffff16565b6001600360005080549050111515610567576040517f08c379a000000000000000000000000000000000000000000000000000000000815260040161055e90613716565b60405180910390fd5b61060060036000508054806020026020016040519081016040528092919081815260200182805480156105ef57602002820191906000526020600020905b8160009054906101000a900473ffffffffffffffffffffffffffffffffffffffff1673ffffffffffffffffffffffffffffffffffffffff16815260200190600101908083116105a5575b50505050508261202c63ffffffff16565b600360005090805190602001906106189291906131d3565b507fe0c45385660471da2afc510ebde41d5f9361442fcda1f7a196e554fe3f6b5611816040516106489190613424565b60405180910390a15b5b50565b6000600060007f000000000000000000000000000000000000000000000000000000000000000073ffffffffffffffffffffffffffffffffffffffff1663d3419bf36040518163ffffffff1660e01b815260040160206040518083038186803b1580156106c25760006000fd5b505afa1580156106d7573d600060003e3d6000fd5b505050506040513d601f19601f820116820180604052508101906106fb91906132fe565b90506000600360005080549050905060008167ffffffffffffffff811180156107245760006000fd5b506040519080825280602002602001820160405280156107535781602001602082028036833780820191505090505b5090506000600090505b8281101561085e578373ffffffffffffffffffffffffffffffffffffffff16633c63a9cd60036000508381548110151561079357fe5b906000526020600020900160005b9054906101000a900473ffffffffffffffffffffffffffffffffffffffff1660016040518363ffffffff1660e01b81526004016107df929190613555565b60206040518083038186803b1580156107f85760006000fd5b505afa15801561080d573d600060003e3d6000fd5b505050506040513d601f19601f8201168201806040525081019061083191906133d3565b828281518110151561083f57fe5b60200260200101909081815260200150505b808060010191505061075d565b5061091c818473ffffffffffffffffffffffffffffffffffffffff16633c63a9cd7f000000000000000000000000000000000000000000000000000000000000000060016040518363ffffffff1660e01b81526004016108bf929190613555565b60206040518083038186803b1580156108d85760006000fd5b505afa1580156108ed573d600060003e3d6000fd5b505050506040513d601f19601f8201168201806040525081019061091191906133d3565b61219d63ffffffff16565b94508450610a9860086000506000016000505460056000506040518060c00160405290816000820160009054906101000a90046fffffffffffffffffffffffffffffffff166fffffffffffffffffffffffffffffffff166fffffffffffffffffffffffffffffffff1681526020016000820160109054906101000a90046fffffffffffffffffffffffffffffffff166fffffffffffffffffffffffffffffffff166fffffffffffffffffffffffffffffffff1681526020016001820160009054906101000a90046fffffffffffffffffffffffffffffffff166fffffffffffffffffffffffffffffffff166fffffffffffffffffffffffffffffffff1681526020016001820160109054906101000a900467ffffffffffffffff1667ffffffffffffffff1667ffffffffffffffff1681526020016002820160009054906101000a9004600f0b600f0b600f0b81526020016002820160109054906101000a9004600f0b600f0b600f0b81526020015050876121e863ffffffff16565b93508350848494509450505050610aad565050505b9091565b600460009054906101000a900467ffffffffffffffff1681565b60086000508060000160005054908060010160009054906101000a900467ffffffffffffffff16908060010160089054906101000a90046fffffffffffffffffffffffffffffffff16905083565b610b27611f8263ffffffff16565b80600460006101000a81548167ffffffffffffffff021916908367ffffffffffffffff1602179055506000600460009054906101000a900467ffffffffffffffff1667ffffffffffffffff16111515610b805760006000fd5b7f517c1f8e39144dc2198ca9c7f0cb04ac8ecbffef718abb8a24b56d2ae881e0fe81604051610baf9190613840565b60405180910390a15b5b50565b610bca611f8263ffffffff16565b806fffffffffffffffffffffffffffffffff166000108015610c055750670de0b6b3a7640000816fffffffffffffffffffffffffffffffff16105b1515610c115760006000fd5b80600560005060000160106101000a8154816fffffffffffffffffffffffffffffffff02191690836fffffffffffffffffffffffffffffffff1602179055507f265b81e00f507e5ddfcde5e43ed2952f0462df065bf26eebc1c5bf184ab31cd381604051610c7f9190613794565b60405180910390a15b5b50565b6000600060086000506000016000505412159050610ca5565b90565b610cb6611f8263ffffffff16565b670de0b6b3a7640000816fffffffffffffffffffffffffffffffff16101515610cdf5760006000fd5b80600560005060010160006101000a8154816fffffffffffffffffffffffffffffffff02191690836fffffffffffffffffffffffffffffffff1602179055507fbf56c5a0ff5b41763e4284940e0db09730e97d817e41e1396be9b9f2a9ed38fb81604051610d4d9190613794565b60405180910390a15b5b50565b600060009054906101000a900460ff1681565b6000610e276008600050604051806060016040529081600082016000505481526020016001820160009054906101000a900467ffffffffffffffff1667ffffffffffffffff1667ffffffffffffffff1681526020016001820160089054906101000a90046fffffffffffffffffffffffffffffffff166fffffffffffffffffffffffffffffffff166fffffffffffffffffffffffffffffffff1681526020015050610e1c61236863ffffffff16565b61238363ffffffff16565b9050610e2e565b90565b610e3f611f8263ffffffff16565b670de0b6b3a7640000816fffffffffffffffffffffffffffffffff16101515610e685760006000fd5b80600560005060000160006101000a8154816fffffffffffffffffffffffffffffffff02191690836fffffffffffffffffffffffffffffffff1602179055507f94ff7d36ecf3da5a6cb7d7be5b429c938850be85f46d1d256c0dafe008b590a381604051610ed69190613794565b60405180910390a15b5b50565b60036000508181548110610ef657600080fd5b906000526020600020900160005b9150909054906101000a900473ffffffffffffffffffffffffffffffffffffffff1681565b60056000508060000160009054906101000a90046fffffffffffffffffffffffffffffffff16908060000160109054906101000a90046fffffffffffffffffffffffffffffffff16908060010160009054906101000a90046fffffffffffffffffffffffffffffffff16908060010160109054906101000a900467ffffffffffffffff16908060020160009054906101000a9004600f0b908060020160109054906101000a9004600f0b905086565b60006000600860005060000160005054905060008112610ff85780610ffd565b806000035b91505061100656505b90565b61101761247463ffffffff16565b61102561258763ffffffff16565b60006008600050604051806060016040529081600082016000505481526020016001820160009054906101000a900467ffffffffffffffff1667ffffffffffffffff1667ffffffffffffffff1681526020016001820160089054906101000a90046fffffffffffffffffffffffffffffffff166fffffffffffffffffffffffffffffffff166fffffffffffffffffffffffffffffffff168152602001505090506110d361236863ffffffff16565b67ffffffffffffffff16816020015167ffffffffffffffff161115151561112f576040517f08c379a0000000000000000000000000000000000000000000000000000000008152600401611126906136d7565b60405180910390fd5b60007f000000000000000000000000000000000000000000000000000000000000000073ffffffffffffffffffffffffffffffffffffffff1663d3419bf36040518163ffffffff1660e01b815260040160206040518083038186803b1580156111985760006000fd5b505afa1580156111ad573d600060003e3d6000fd5b505050506040513d601f19601f820116820180604052508101906111d191906132fe565b90506000600360005080549050905060008167ffffffffffffffff811180156111fa5760006000fd5b506040519080825280602002602001820160405280156112295781602001602082028036833780820191505090505b5090506000600090505b82811015611333578373ffffffffffffffffffffffffffffffffffffffff1663ce403c1360036000508381548110151561126957fe5b906000526020600020900160005b9054906101000a900473ffffffffffffffffffffffffffffffffffffffff166040518263ffffffff1660e01b81526004016112b2919061352d565b602060405180830381600087803b1580156112cd5760006000fd5b505af11580156112e2573d600060003e3d6000fd5b505050506040513d601f19601f8201168201806040525081019061130691906133d3565b828281518110151561131457fe5b60200260200101909081815260200150505b8080600101915050611233565b5060006113f2828573ffffffffffffffffffffffffffffffffffffffff1663ce403c137f00000000000000000000000000000000000000000000000000000000000000006040518263ffffffff1660e01b8152600401611393919061352d565b602060405180830381600087803b1580156113ae5760006000fd5b505af11580156113c3573d600060003e3d6000fd5b505050506040513d601f19601f820116820180604052508101906113e791906133d3565b61219d63ffffffff16565b905060006040518060600160405280611572886000015160056000506040518060c00160405290816000820160009054906101000a90046fffffffffffffffffffffffffffffffff166fffffffffffffffffffffffffffffffff166fffffffffffffffffffffffffffffffff1681526020016000820160109054906101000a90046fffffffffffffffffffffffffffffffff166fffffffffffffffffffffffffffffffff166fffffffffffffffffffffffffffffffff1681526020016001820160009054906101000a90046fffffffffffffffffffffffffffffffff166fffffffffffffffffffffffffffffffff166fffffffffffffffffffffffffffffffff1681526020016001820160109054906101000a900467ffffffffffffffff1667ffffffffffffffff1667ffffffffffffffff1681526020016002820160009054906101000a9004600f0b600f0b600f0b81526020016002820160109054906101000a9004600f0b600f0b600f0b81526020015050866121e863ffffffff16565b815260200161159c600460009054906101000a900467ffffffffffffffff166126b463ffffffff16565b67ffffffffffffffff1681526020016115d86115cb896115c061236863ffffffff16565b61238363ffffffff16565b6126ea909063ffffffff16565b6fffffffffffffffffffffffffffffffff16815260200150905080600860005060008201518160000160005090905560208201518160010160006101000a81548167ffffffffffffffff021916908367ffffffffffffffff16021790555060408201518160010160086101000a8154816fffffffffffffffffffffffffffffffff02191690836fffffffffffffffffffffffffffffffff1602179055509050507f000000000000000000000000000000000000000000000000000000000000000073ffffffffffffffffffffffffffffffffffffffff1663ef7a7cfa3383604001516040518363ffffffff1660e01b81526004016116d792919061344c565b600060405180830381600087803b1580156116f25760006000fd5b505af1158015611707573d600060003e3d6000fd5b505050507f9f912bcb7b057a4f10fbbee5785670aecb2ab545144237646e17398d55de72dc8160000151838360400151846020015160405161174c949392919061359b565b60405180910390a15050505050505b5b61176a61278463ffffffff16565b5b565b606060036000508054806020026020016040519081016040528092919081815260200182805480156117f457602002820191906000526020600020905b8160009054906101000a900473ffffffffffffffffffffffffffffffffffffffff1673ffffffffffffffffffffffffffffffffffffffff16815260200190600101908083116117aa575b50505050509050611800565b90565b611811611f8263ffffffff16565b6118aa600360005080548060200260200160405190810160405280929190818152602001828054801561189957602002820191906000526020600020905b8160009054906101000a900473ffffffffffffffffffffffffffffffffffffffff1673ffffffffffffffffffffffffffffffffffffffff168152602001906001019080831161184f575b50505050508261281663ffffffff16565b1515156118ec576040517f08c379a00000000000000000000000000000000000000000000000000000000081526004016118e390613755565b60405180910390fd5b6118fb8161285863ffffffff16565b600360005081908060018154018082558091505060019003906000526020600020900160005b9091909190916101000a81548173ffffffffffffffffffffffffffffffffffffffff021916908373ffffffffffffffffffffffffffffffffffffffff1602179055507fd815dd7ac4a8a5f5f1d3b09c4fb82cdf04e21e127619c6fca60b8f80e420492a816040516119929190613424565b60405180910390a15b5b50565b6119ad611f8263ffffffff16565b80600560005060010160106101000a81548167ffffffffffffffff021916908367ffffffffffffffff1602179055507fcf58c4278b7362e258dd9a03400b38f692197a7ceb18b1c31ff440c1f9d5062f81604051611a0b9190613840565b60405180910390a15b5b50565b600a60009054906101000a900473ffffffffffffffffffffffffffffffffffffffff1681565b611a9d600a60009054906101000a900473ffffffffffffffffffffffffffffffffffffffff1673ffffffffffffffffffffffffffffffffffffffff163373ffffffffffffffffffffffffffffffffffffffff161461296863ffffffff16565b600a60006101000a81549073ffffffffffffffffffffffffffffffffffffffff02191690557f000000000000000000000000000000000000000000000000000000000000000073ffffffffffffffffffffffffffffffffffffffff1663d3419bf36040518163ffffffff1660e01b815260040160206040518083038186803b158015611b295760006000fd5b505afa158015611b3e573d600060003e3d6000fd5b505050506040513d601f19601f82011682018060405250810190611b6291906132fe565b73ffffffffffffffffffffffffffffffffffffffff1663532cec7c7f00000000000000000000000000000000000000000000000000000000000000006040518263ffffffff1660e01b8152600401611bba919061352d565b60206040518083038186803b158015611bd35760006000fd5b505afa158015611be8573d600060003e3d6000fd5b505050506040513d601f19601f82011682018060405250810190611c0c9190613284565b1515611c4d576040517f08c379a0000000000000000000000000000000000000000000000000000000008152600401611c4490613659565b60405180910390fd5b6000600090505b600360005080549050811015611cbf57611cb1600360005082815481101515611c7957fe5b906000526020600020900160005b9054906101000a900473ffffffffffffffffffffffffffffffffffffffff1661285863ffffffff16565b5b8080600101915050611c54565b505b565b611cd1611f8263ffffffff16565b600560005060020160109054906101000a9004600f0b600f0b81600f0b121515611cfb5760006000fd5b80600560005060020160006101000a8154816fffffffffffffffffffffffffffffffff0219169083600f0b6fffffffffffffffffffffffffffffffff1602179055507fc24e66dcb27dbd285d47a59317af2469aaec7df1cbef5058516e9f09c363a37581604051611d6c9190613586565b60405180910390a15b5b50565b611d87611f8263ffffffff16565b80600f0b600560005060020160009054906101000a9004600f0b600f0b121515611db15760006000fd5b80600560005060020160106101000a8154816fffffffffffffffffffffffffffffffff0219169083600f0b6fffffffffffffffffffffffffffffffff1602179055507fddfcfaec23708d16c646e9e109985f7db635f6a645245e87946f7d2f64f4bb6a81604051611e229190613586565b60405180910390a15b5b50565b7f000000000000000000000000000000000000000000000000000000000000000081565b60008267ffffffffffffffff1682840191508167ffffffffffffffff1610151515611ee9576040517f08c379a000000000000000000000000000000000000000000000000000000000815260040180806020018281038252600c8152602001807f6164642d6f766572666c6f77000000000000000000000000000000000000000081526020015060200191505060405180910390fd5b5b92915050565b60006801000000000000000082101515611f75576040517f08c379a00000000000000000000000000000000000000000000000000000000081526004018080602001828103825260118152602001807f6d6f7265207468616e203634206269747300000000000000000000000000000081526020015060200191505060405180910390fd5b819050611f7d565b919050565b611fdf7f000000000000000000000000000000000000000000000000000000000000000073ffffffffffffffffffffffffffffffffffffffff163373ffffffffffffffffffffffffffffffffffffffff161461296863ffffffff16565b5b565b6001600060006101000a81548160ff0219169083151502179055507f7acc84e34091ae817647a4c49116f5cc07f319078ba80f8f5fde37ea7e25cbd660405160405180910390a15b565b6060600061204084846129e463ffffffff16565b90507fffffffffffffffffffffffffffffffffffffffffffffffffffffffffffffffff81141515156120a7576040517f08c379a000000000000000000000000000000000000000000000000000000000815260040161209e9061361a565b60405180910390fd5b6000600185510367ffffffffffffffff811180156120c55760006000fd5b506040519080825280602002602001820160405280156120f45781602001602082028036833780820191505090505b50905060006000600090505b865181101561218857838114151561217a57868181518110151561212057fe5b6020026020010151838380600101945081518110151561213c57fe5b602002602001019073ffffffffffffffffffffffffffffffffffffffff16908173ffffffffffffffffffffffffffffffffffffffff16815260200150505b5b8080600101915050612100565b50819350505050612197565050505b92915050565b6000816121af84612a8563ffffffff16565b760a70c3c40a64e6c51999090b65f67d92400000000000008115156121d057fe5b048115156121da57fe5b0490506121e2565b92915050565b60006000670de0b6b3a76400008310905060008161221057670de0b6b3a7640000840361221c565b83670de0b6b3a7640000035b905084600001516fffffffffffffffffffffffffffffffff168110151561231d576000612294612287600188602001516fffffffffffffffffffffffffffffffff168581151561226857fe5b0401886060015167ffffffffffffffff16612d0890919063ffffffff16565b6126ea909063ffffffff16565b905060006122e36122c48389604001516fffffffffffffffffffffffffffffffff16612d2690919063ffffffff16565b6fffffffffffffffffffffffffffffffff16612e1e909063ffffffff16565b905083612302576122fd8189612ec790919063ffffffff16565b612316565b6123158189612f5e90919063ffffffff16565b5b9750875050505b8460800151600f0b861215612339578460800151600f0b955085505b8460a00151600f0b861315612355578460a00151600f0b955085505b85925050506123615650505b9392505050565b600061237b42611ef0909063ffffffff16565b905080505b90565b6000826020015167ffffffffffffffff168267ffffffffffffffff161115156123af576000905061246e565b6000600284604001516fffffffffffffffffffffffffffffffff168115156123d357fe5b046fffffffffffffffffffffffffffffffff16905060006124118560200151850367ffffffffffffffff1661070884612ff59092919063ffffffff16565b82019050612463612442600587604001516fffffffffffffffffffffffffffffffff16612d2690919063ffffffff16565b6fffffffffffffffffffffffffffffffff1682612d0890919063ffffffff16565b9250505061246e5650505b92915050565b7f000000000000000000000000000000000000000000000000000000000000000073ffffffffffffffffffffffffffffffffffffffff1663e97dcb626040518163ffffffff1660e01b8152600401600060405180830381600087803b1580156124dd5760006000fd5b505af11580156124f2573d600060003e3d6000fd5b50505050600260026000505414151515612577576040517f08c379a000000000000000000000000000000000000000000000000000000000815260040180806020018281038252600d8152602001807f4c50205265656e7472616e63790000000000000000000000000000000000000081526020015060200191505060405180910390fd5b600260026000508190909055505b565b6125956130f663ffffffff16565b7f000000000000000000000000000000000000000000000000000000000000000073ffffffffffffffffffffffffffffffffffffffff1663bf86d6906040518163ffffffff1660e01b815260040160206040518083038186803b1580156125fc5760006000fd5b505afa158015612611573d600060003e3d6000fd5b505050506040513d60208110156126285760006000fd5b81019080805190602001909291905050501515156126b1576040517f08c379a00000000000000000000000000000000000000000000000000000000081526004018080602001828103825260118152602001807f50726f746f636f6c2073687574646f776e00000000000000000000000000000081526020015060200191505060405180910390fd5b5b565b60006126e0826126c861236863ffffffff16565b67ffffffffffffffff16611e5390919063ffffffff16565b905080505b919050565b600070010000000000000000000000000000000082101515612777576040517f08c379a00000000000000000000000000000000000000000000000000000000081526004018080602001828103825260128152602001807f6d6f7265207468616e203132382062697473000000000000000000000000000081526020015060200191505060405180910390fd5b81905061277f565b919050565b600160026000508190909055507f000000000000000000000000000000000000000000000000000000000000000073ffffffffffffffffffffffffffffffffffffffff1663e9fad8ee6040518163ffffffff1660e01b8152600401600060405180830381600087803b1580156127fa5760006000fd5b505af115801561280f573d600060003e3d6000fd5b505050505b565b60007fffffffffffffffffffffffffffffffffffffffffffffffffffffffffffffffff61284984846129e463ffffffff16565b14159050612852565b92915050565b7f000000000000000000000000000000000000000000000000000000000000000073ffffffffffffffffffffffffffffffffffffffff1663d3419bf36040518163ffffffff1660e01b815260040160206040518083038186803b1580156128bf5760006000fd5b505afa1580156128d4573d600060003e3d6000fd5b505050506040513d601f19601f820116820180604052508101906128f891906132fe565b73ffffffffffffffffffffffffffffffffffffffff16637c5b9011826040518263ffffffff1660e01b8152600401612930919061352d565b600060405180830381600087803b15801561294b5760006000fd5b505af1158015612960573d600060003e3d6000fd5b505050505b50565b8015156129e0576040517f08c379a000000000000000000000000000000000000000000000000000000000815260040180806020018281038252600e8152602001807f4e6f7420417574686f72697a656400000000000000000000000000000000000081526020015060200191505060405180910390fd5b5b50565b60006000600090505b8351811015612a56578273ffffffffffffffffffffffffffffffffffffffff168482815181101515612a1b57fe5b602002602001015173ffffffffffffffffffffffffffffffffffffffff161415612a485780915050612a7f565b5b80806001019150506129ed565b507fffffffffffffffffffffffffffffffffffffffffffffffffffffffffffffffff9050612a7f565b92915050565b6000600082519050600081111515612ad2576040517f08c379a0000000000000000000000000000000000000000000000000000000008152600401612ac990613698565b60405180910390fd5b6000600060005b6002841115612c8557856000815181101515612af157fe5b602002602001015191508150856000815181101515612b0c57fe5b6020026020010151905080506000600190505b84811015612b6b578681815181101515612b3557fe5b60200260200101519350835082841015612b4f5783925082505b81841115612b5d5783915081505b5b8080600101915050612b1f565b5080821415612b805781945050505050612d03565b60006002850367ffffffffffffffff81118015612b9d5760006000fd5b50604051908082528060200260200182016040528015612bcc5781602001602082028036833780820191505090505b5090506000600060006000600090505b88811015612c6e578a81815181101515612bf257fe5b6020026020010151975087508688148015612c0b575081155b15612c1b57600191508150612c60565b8588148015612c28575082155b15612c3857600192508250612c5f565b878585806001019650815181101515612c4d57fe5b60200260200101909081815260200150505b5b5b8080600101915050612bdc565b506002880397508750839950895050505050612ad9565b6001841415612cb457856000815181101515612c9d57fe5b6020026020010151945050505050612d0356612cfe565b612cf3866001815181101515612cc657fe5b6020026020010151876000815181101515612cdd57fe5b602002602001015161318190919063ffffffff16565b945050505050612d03565b505050505b919050565b6000818310612d175781612d19565b825b9050612d20565b92915050565b60006000826fffffffffffffffffffffffffffffffff161480612da05750826fffffffffffffffffffffffffffffffff16826fffffffffffffffffffffffffffffffff168385029250826fffffffffffffffffffffffffffffffff16811515612d8b57fe5b046fffffffffffffffffffffffffffffffff16145b1515612e17576040517f08c379a000000000000000000000000000000000000000000000000000000000815260040180806020018281038252600c8152602001807f6d756c2d6f766572666c6f77000000000000000000000000000000000000000081526020015060200191505060405180910390fd5b5b92915050565b60007f800000000000000000000000000000000000000000000000000000000000000082101515612eba576040517f08c379a00000000000000000000000000000000000000000000000000000000081526004018080602001828103825260128152602001807f746f6f2062696720666f7220696e74323536000000000000000000000000000081526020015060200191505060405180910390fd5b819050612ec2565b919050565b60006000828403905060008312158015612ee15750838113155b80612ef75750600083128015612ef657508381135b5b1515612f4e576040517f08c379a00000000000000000000000000000000000000000000000000000000081526004018080602001828103825260248152602001806138a86024913960400191505060405180910390fd5b80915050612f5856505b92915050565b60006000828401905060008312158015612f785750838112155b80612f8e5750600083128015612f8d57508381125b5b1515612fe5576040517f08c379a00000000000000000000000000000000000000000000000000000000081526004018080602001828103825260218152602001806138876021913960400191505060405180910390fd5b80915050612fef56505b92915050565b6000600060006000198587098587029250828110838203039150506000811415613038576000841115156130295760006000fd5b838204925082925050506130ef565b80841115156130475760006000fd5b60008486880990508281118203915080830392506000858660000316905080860495508084049350600181826000030401905080830284179350835060006002876003021890508087026002038102905080508087026002038102905080508087026002038102905080508087026002038102905080508087026002038102905080508087026002038102905080508085029550855085955050505050506130ef5650505050505b9392505050565b600060009054906101000a900460ff1615151561317e576040517f08c379a00000000000000000000000000000000000000000000000000000000081526004018080602001828103825260138152602001807f436f6e74726163742069732073746f707065640000000000000000000000000081526020015060200191505060405180910390fd5b5b565b6000600260028381151561319157fe5b0660028581151561319e57fe5b06018115156131a957fe5b046002838115156131b657fe5b046002858115156131c357fe5b04010190506131cd565b92915050565b82805482825590600052602060002090810192821561324c579160200282015b8281111561324b5782518260006101000a81548173ffffffffffffffffffffffffffffffffffffffff021916908373ffffffffffffffffffffffffffffffffffffffff160217905550916020019190600101906131f3565b5b509050613259919061325d565b5090565b613262565b8082111561327c5760008181506000905550600101613262565b509056613885565b600060208284031215613295578081fd5b8151801515811415156132a6578182fd5b809150505b92915050565b6000602082840312156132c2578081fd5b81357fffffffff000000000000000000000000000000000000000000000000000000008116811415156132f3578182fd5b809150505b92915050565b60006020828403121561330f578081fd5b815161331a8161385c565b809150505b92915050565b600060208284031215613336578081fd5b81356133418161385c565b809150505b92915050565b60006020828403121561335d578081fd5b813580600f0b8114151561336f578182fd5b809150505b92915050565b60006020828403121561338b578081fd5b81356fffffffffffffffffffffffffffffffff8116811415156133ac578182fd5b809150505b92915050565b6000602082840312156133c8578081fd5b813590505b92915050565b6000602082840312156133e4578081fd5b815190505b92915050565b600060208284031215613400578081fd5b813567ffffffffffffffff811681141515613419578182fd5b809150505b92915050565b600060208201905073ffffffffffffffffffffffffffffffffffffffff831682525b92915050565b600060408201905073ffffffffffffffffffffffffffffffffffffffff841682526fffffffffffffffffffffffffffffffff831660208301525b9392505050565b600060208083018184528085518083526040860191508387019250845b818110156134e25773ffffffffffffffffffffffffffffffffffffffff8451168352848301925084840193505b6001810190506134aa565b50508093505050505b92915050565b600060208201905082151582525b92915050565b600060208201905073ffffffffffffffffffffffffffffffffffffffff831682525b92915050565b600060208201905073ffffffffffffffffffffffffffffffffffffffff831682525b92915050565b600060408201905073ffffffffffffffffffffffffffffffffffffffff8416825282151560208301525b9392505050565b600060208201905082600f0b82525b92915050565b60006080820190508582528460208301526fffffffffffffffffffffffffffffffff8416604083015267ffffffffffffffff831660608301525b95945050505050565b600060608201905084825267ffffffffffffffff841660208301526fffffffffffffffffffffffffffffffff831660408301525b949350505050565b600060208252600960208301527f4e6f7420666f756e64000000000000000000000000000000000000000000000060408301526060820190505b919050565b600060208252601460208301527f506f6f6c206e6f7420696e697469616c697a656400000000000000000000000060408301526060820190505b919050565b600060208252600560208301527f656d70747900000000000000000000000000000000000000000000000000000060408301526060820190505b919050565b600060208252601060208301527f557064617465206e6f742072656164790000000000000000000000000000000060408301526060820190505b919050565b600060208252600d60208301527f4f6e6c79206f6e6520706f6f6c0000000000000000000000000000000000000060408301526060820190505b919050565b600060208252600d60208301527f416c72656164792061646465640000000000000000000000000000000000000060408301526060820190505b919050565b60006020820190506fffffffffffffffffffffffffffffffff831682525b92915050565b600060c0820190506fffffffffffffffffffffffffffffffff8089168352808816602084015280871660408401525067ffffffffffffffff8516606083015283600f0b608083015282600f0b60a08301525b979650505050505050565b60006020820190508282525b92915050565b60006040820190508382528260208301525b9392505050565b600060208201905067ffffffffffffffff831682525b92915050565b73ffffffffffffffffffffffffffffffffffffffff8116811415156138815760006000fd5b5b50565bfe5369676e6564536166654d6174683a206164646974696f6e206f766572666c6f775369676e6564536166654d6174683a207375627472616374696f6e206f766572666c6f77a2646970667358221220a1d7403f8a892054766d74d767795a60f0d3cfae505fd84a259f1b3493f9c82664736f6c63430007060033",
  "linkReferences": {},
  "deployedLinkReferences": {}
}