{
  "_format": "hh-sol-artifact-1",
  "contractName": "Rates",
  "sourceName": "contracts/core/logic/Rates.sol",
  "abi": [
    {
      "inputs": [
        {
          "components": [
            {
              "internalType": "contract IGovernor",
              "name": "Governor",
              "type": "address"
            },
            {
              "internalType": "contract IProtocolLock",
              "name": "ProtocolLock",
              "type": "address"
            },
            {
              "internalType": "contract IUniswapV3Pool",
              "name": "CollateralPool",
              "type": "address"
            }
          ],
          "internalType": "struct IRates.ConstructorParams",
          "name": "params",
          "type": "tuple"
        }
      ],
      "stateMutability": "nonpayable",
      "type": "constructor"
    },
    {
      "anonymous": false,
      "inputs": [
        {
          "indexed": false,
          "internalType": "uint128",
          "name": "error",
          "type": "uint128"
        }
      ],
      "name": "AcceptableErrorUpdated",
      "type": "event"
    },
    {
      "anonymous": false,
      "inputs": [
        {
          "indexed": false,
          "internalType": "uint128",
          "name": "error",
          "type": "uint128"
        }
      ],
      "name": "ErrorIntervalUpdated",
      "type": "event"
    },
    {
      "anonymous": false,
      "inputs": [
        {
          "indexed": false,
          "internalType": "uint128",
          "name": "step",
          "type": "uint128"
        }
      ],
      "name": "InterestRateStepUpdated",
      "type": "event"
    },
    {
      "anonymous": false,
      "inputs": [
        {
          "indexed": false,
          "internalType": "int128",
          "name": "max",
          "type": "int128"
        }
      ],
      "name": "MaxRateUpdated",
      "type": "event"
    },
    {
      "anonymous": false,
      "inputs": [
        {
          "indexed": false,
          "internalType": "uint64",
          "name": "steps",
          "type": "uint64"
        }
      ],
      "name": "MaxStepsUpdated",
      "type": "event"
    },
    {
      "anonymous": false,
      "inputs": [
        {
          "indexed": false,
          "internalType": "int128",
          "name": "min",
          "type": "int128"
        }
      ],
      "name": "MinRateUpdated",
      "type": "event"
    },
    {
      "anonymous": false,
      "inputs": [
        {
          "indexed": false,
          "internalType": "uint64",
          "name": "time",
          "type": "uint64"
        }
      ],
      "name": "MinTimeBetweenUpdatesUpdated",
      "type": "event"
    },
    {
      "anonymous": false,
      "inputs": [
        {
          "indexed": false,
          "internalType": "int256",
          "name": "interestRate",
          "type": "int256"
        },
        {
          "indexed": false,
          "internalType": "uint256",
          "name": "price",
          "type": "uint256"
        },
        {
          "indexed": false,
          "internalType": "uint256",
          "name": "rewardCount",
          "type": "uint256"
        },
        {
          "indexed": false,
          "internalType": "uint64",
          "name": "nextUpdateTime",
          "type": "uint64"
        }
      ],
      "name": "RateUpdated",
      "type": "event"
    },
    {
      "anonymous": false,
      "inputs": [
        {
          "indexed": true,
          "internalType": "address",
          "name": "ratesUpdateContract",
          "type": "address"
        }
      ],
      "name": "RatesContractUpdated",
      "type": "event"
    },
    {
      "anonymous": false,
      "inputs": [
        {
          "indexed": false,
          "internalType": "address",
          "name": "pool",
          "type": "address"
        }
      ],
      "name": "ReferencePoolAdded",
      "type": "event"
    },
    {
      "anonymous": false,
      "inputs": [
        {
          "indexed": false,
          "internalType": "address",
          "name": "pool",
          "type": "address"
        }
      ],
      "name": "ReferencePoolRemoved",
      "type": "event"
    },
    {
      "anonymous": false,
      "inputs": [],
      "name": "Stopped",
      "type": "event"
    },
    {
      "inputs": [
        {
          "internalType": "contract IUniswapV3Pool",
          "name": "pool",
          "type": "address"
        }
      ],
      "name": "addReferencePool",
      "outputs": [],
      "stateMutability": "nonpayable",
      "type": "function"
    },
    {
      "inputs": [],
      "name": "collateralPool",
      "outputs": [
        {
          "internalType": "contract IUniswapV3Pool",
          "name": "",
          "type": "address"
        }
      ],
      "stateMutability": "view",
      "type": "function"
    },
    {
      "inputs": [],
      "name": "currentRateData",
      "outputs": [
        {
          "internalType": "int256",
          "name": "rate",
          "type": "int256"
        },
        {
          "internalType": "uint64",
          "name": "nextUpdateTime",
          "type": "uint64"
        },
        {
          "internalType": "uint128",
          "name": "rewardCount",
          "type": "uint128"
        }
      ],
      "stateMutability": "view",
      "type": "function"
    },
    {
      "inputs": [],
      "name": "deployer",
      "outputs": [
        {
          "internalType": "address",
          "name": "",
          "type": "address"
        }
      ],
      "stateMutability": "view",
      "type": "function"
    },
    {
      "inputs": [
        {
          "internalType": "int256",
          "name": "newRate",
          "type": "int256"
        }
      ],
      "name": "executeRatesUpdateContractUpdate",
      "outputs": [],
      "stateMutability": "nonpayable",
      "type": "function"
    },
    {
      "inputs": [],
      "name": "getReferencePools",
      "outputs": [
        {
          "internalType": "contract IUniswapV3Pool[]",
          "name": "",
          "type": "address[]"
        }
      ],
      "stateMutability": "view",
      "type": "function"
    },
    {
      "inputs": [],
      "name": "getRewardCount",
      "outputs": [
        {
          "internalType": "uint256",
          "name": "",
          "type": "uint256"
        }
      ],
      "stateMutability": "view",
      "type": "function"
    },
    {
      "inputs": [],
      "name": "governor",
      "outputs": [
        {
          "internalType": "contract IGovernor",
          "name": "",
          "type": "address"
        }
      ],
      "stateMutability": "view",
      "type": "function"
    },
    {
      "inputs": [],
      "name": "init",
      "outputs": [],
      "stateMutability": "nonpayable",
      "type": "function"
    },
    {
      "inputs": [],
      "name": "interestRateAbsoluteValue",
      "outputs": [
        {
          "internalType": "uint256",
          "name": "",
          "type": "uint256"
        }
      ],
      "stateMutability": "view",
      "type": "function"
    },
    {
      "inputs": [],
      "name": "interestRateParameters",
      "outputs": [
        {
          "internalType": "uint128",
          "name": "acceptableError",
          "type": "uint128"
        },
        {
          "internalType": "uint128",
          "name": "errorInterval",
          "type": "uint128"
        },
        {
          "internalType": "uint128",
          "name": "interestRateStep",
          "type": "uint128"
        },
        {
          "internalType": "uint64",
          "name": "maxSteps",
          "type": "uint64"
        },
        {
          "internalType": "int128",
          "name": "minRate",
          "type": "int128"
        },
        {
          "internalType": "int128",
          "name": "maxRate",
          "type": "int128"
        }
      ],
      "stateMutability": "view",
      "type": "function"
    },
    {
      "inputs": [],
      "name": "minTimeBetweenUpdates",
      "outputs": [
        {
          "internalType": "uint64",
          "name": "",
          "type": "uint64"
        }
      ],
      "stateMutability": "view",
      "type": "function"
    },
    {
      "inputs": [],
      "name": "positiveInterestRate",
      "outputs": [
        {
          "internalType": "bool",
          "name": "",
          "type": "bool"
        }
      ],
      "stateMutability": "view",
      "type": "function"
    },
    {
      "inputs": [],
      "name": "predictInterestRate",
      "outputs": [
        {
          "internalType": "uint256",
          "name": "price",
          "type": "uint256"
        },
        {
          "internalType": "int256",
          "name": "rate",
          "type": "int256"
        }
      ],
      "stateMutability": "view",
      "type": "function"
    },
    {
      "inputs": [],
      "name": "ratesUpdateContract",
      "outputs": [
        {
          "internalType": "address",
          "name": "",
          "type": "address"
        }
      ],
      "stateMutability": "view",
      "type": "function"
    },
    {
      "inputs": [
        {
          "internalType": "uint256",
          "name": "",
          "type": "uint256"
        }
      ],
      "name": "referencePools",
      "outputs": [
        {
          "internalType": "contract IUniswapV3Pool",
          "name": "",
          "type": "address"
        }
      ],
      "stateMutability": "view",
      "type": "function"
    },
    {
      "inputs": [
        {
          "internalType": "contract IUniswapV3Pool",
          "name": "pool",
          "type": "address"
        }
      ],
      "name": "removeReferencePool",
      "outputs": [],
      "stateMutability": "nonpayable",
      "type": "function"
    },
    {
      "inputs": [
        {
          "internalType": "uint128",
          "name": "error",
          "type": "uint128"
        }
      ],
      "name": "setAcceptableError",
      "outputs": [],
      "stateMutability": "nonpayable",
      "type": "function"
    },
    {
      "inputs": [
        {
          "internalType": "uint128",
          "name": "interval",
          "type": "uint128"
        }
      ],
      "name": "setErrorInterval",
      "outputs": [],
      "stateMutability": "nonpayable",
      "type": "function"
    },
    {
      "inputs": [
        {
          "internalType": "uint128",
          "name": "step",
          "type": "uint128"
        }
      ],
      "name": "setInterestRateStep",
      "outputs": [],
      "stateMutability": "nonpayable",
      "type": "function"
    },
    {
      "inputs": [
        {
          "internalType": "int128",
          "name": "max",
          "type": "int128"
        }
      ],
      "name": "setMaxRate",
      "outputs": [],
      "stateMutability": "nonpayable",
      "type": "function"
    },
    {
      "inputs": [
        {
          "internalType": "uint64",
          "name": "steps",
          "type": "uint64"
        }
      ],
      "name": "setMaxSteps",
      "outputs": [],
      "stateMutability": "nonpayable",
      "type": "function"
    },
    {
      "inputs": [
        {
          "internalType": "int128",
          "name": "min",
          "type": "int128"
        }
      ],
      "name": "setMinRate",
      "outputs": [],
      "stateMutability": "nonpayable",
      "type": "function"
    },
    {
      "inputs": [
        {
          "internalType": "uint64",
          "name": "time",
          "type": "uint64"
        }
      ],
      "name": "setMinTimeBetweenUpdates",
      "outputs": [],
      "stateMutability": "nonpayable",
      "type": "function"
    },
    {
      "inputs": [
        {
          "internalType": "address",
          "name": "_ratesUpdateContract",
          "type": "address"
        }
      ],
      "name": "setRatesUpdateContract",
      "outputs": [],
      "stateMutability": "nonpayable",
      "type": "function"
    },
    {
      "inputs": [],
      "name": "stop",
      "outputs": [],
      "stateMutability": "nonpayable",
      "type": "function"
    },
    {
      "inputs": [],
      "name": "stopped",
      "outputs": [
        {
          "internalType": "bool",
          "name": "",
          "type": "bool"
        }
      ],
      "stateMutability": "view",
      "type": "function"
    },
    {
      "inputs": [],
      "name": "update",
      "outputs": [],
      "stateMutability": "nonpayable",
      "type": "function"
    },
    {
      "inputs": [
        {
          "internalType": "bytes4",
          "name": "",
          "type": "bytes4"
        }
      ],
      "name": "validUpdate",
      "outputs": [
        {
          "internalType": "bool",
          "name": "",
          "type": "bool"
        }
      ],
      "stateMutability": "view",
      "type": "function"
    }
  ],
  "bytecode": "0x60e06040526001600260005090905562014a78600460006101000a81548167ffffffffffffffff021916908367ffffffffffffffff160217905550348015620000485760006000fd5b50604051620047213803806200472183398181016040528101906200006e919062000925565b5b806000015181602001515b815b8073ffffffffffffffffffffffffffffffffffffffff1660808173ffffffffffffffffffffffffffffffffffffffff1660601b815260140150505b508073ffffffffffffffffffffffffffffffffffffffff1660a08173ffffffffffffffffffffffffffffffffffffffff1660601b815260140150505b5050806040015173ffffffffffffffffffffffffffffffffffffffff1660c08173ffffffffffffffffffffffffffffffffffffffff1660601b815260140150506040518060c0016040528066038d7ea4c680006fffffffffffffffffffffffffffffffff1681526020016611c37937e080006fffffffffffffffffffffffffffffffff1681526020016611c37937e080006fffffffffffffffffffffffffffffffff168152602001600567ffffffffffffffff1681526020017ffffffffffffffffffffffffffffffffffffffffffffffffffdeb17cb73b10000600f0b81526020016706f05b59d3b20000600f0b815260200150600560005060008201518160000160006101000a8154816fffffffffffffffffffffffffffffffff02191690836fffffffffffffffffffffffffffffffff16021790555060208201518160000160106101000a8154816fffffffffffffffffffffffffffffffff02191690836fffffffffffffffffffffffffffffffff16021790555060408201518160010160006101000a8154816fffffffffffffffffffffffffffffffff02191690836fffffffffffffffffffffffffffffffff16021790555060608201518160010160106101000a81548167ffffffffffffffff021916908367ffffffffffffffff16021790555060808201518160020160006101000a8154816fffffffffffffffffffffffffffffffff0219169083600f0b6fffffffffffffffffffffffffffffffff16021790555060a08201518160020160106101000a8154816fffffffffffffffffffffffffffffffff0219169083600f0b6fffffffffffffffffffffffffffffffff1602179055509050506040518060600160405280666a94d74f4300008152602001620003c0600460009054906101000a900467ffffffffffffffff16620003a2620007cc60201b60201c565b67ffffffffffffffff16620007ee60201b6200216a1790919060201c565b67ffffffffffffffff16815260200168056bc75e2d631000006fffffffffffffffffffffffffffffffff16815260200150600860005060008201518160000160005090905560208201518160010160006101000a81548167ffffffffffffffff021916908367ffffffffffffffff16021790555060408201518160010160086101000a8154816fffffffffffffffffffffffffffffffff02191690836fffffffffffffffffffffffffffffffff16021790555090505060006040518061010001604052806380ddbdb460e01b7bffffffffffffffffffffffffffffffffffffffffffffffffffffffff19167bffffffffffffffffffffffffffffffffffffffffffffffffffffffff19168152602001635fd019ad60e01b7bffffffffffffffffffffffffffffffffffffffffffffffffffffffff19167bffffffffffffffffffffffffffffffffffffffffffffffffffffffff19168152602001636e16ead260e01b7bffffffffffffffffffffffffffffffffffffffffffffffffffffffff19167bffffffffffffffffffffffffffffffffffffffffffffffffffffffff1916815260200163d3ab388860e01b7bffffffffffffffffffffffffffffffffffffffffffffffffffffffff19167bffffffffffffffffffffffffffffffffffffffffffffffffffffffff1916815260200163ee47304d60e01b7bffffffffffffffffffffffffffffffffffffffffffffffffffffffff19167bffffffffffffffffffffffffffffffffffffffffffffffffffffffff1916815260200163eec3f6f160e01b7bffffffffffffffffffffffffffffffffffffffffffffffffffffffff19167bffffffffffffffffffffffffffffffffffffffffffffffffffffffff19168152602001635d8350b460e01b7bffffffffffffffffffffffffffffffffffffffffffffffffffffffff19167bffffffffffffffffffffffffffffffffffffffffffffffffffffffff1916815260200163fc2a11e860e01b7bffffffffffffffffffffffffffffffffffffffffffffffffffffffff19167bffffffffffffffffffffffffffffffffffffffffffffffffffffffff191681526020015090506000600090505b81506008811015620007815760016001600050600084846008811015156200070a57fe5b60200201517bffffffffffffffffffffffffffffffffffffffffffffffffffffffff19167bffffffffffffffffffffffffffffffffffffffffffffffffffffffff1916815260200190815260200160002060006101000a81548160ff0219169083151502179055505b8080600101915050620006e6565b5033600a60006101000a81548173ffffffffffffffffffffffffffffffffffffffff021916908373ffffffffffffffffffffffffffffffffffffffff160217905550505b50620009c1565b6000620007e6426200088c60201b6200220717909060201c565b905080505b90565b60008267ffffffffffffffff1682840191508167ffffffffffffffff161015151562000885576040517f08c379a000000000000000000000000000000000000000000000000000000000815260040180806020018281038252600c8152602001807f6164642d6f766572666c6f77000000000000000000000000000000000000000081526020015060200191505060405180910390fd5b5b92915050565b6000680100000000000000008210151562000912576040517f08c379a00000000000000000000000000000000000000000000000000000000081526004018080602001828103825260118152602001807f6d6f7265207468616e203634206269747300000000000000000000000000000081526020015060200191505060405180910390fd5b8190506200091b565b91905056620009c0565b60006060828403121562000937578081fd5b604051606081018181106001600160401b03821117156200095457fe5b806040525082516200096681620009a3565b8082525060208301516200097a81620009a3565b8060208301525060408301516200099181620009a3565b80604083015250809150505b92915050565b6001600160a01b03811681141515620009bc5760006000fd5b5b50565b5b60805160601c60a05160601c60c05160601c613cf362000a2e600039806108f052806115665280611d8d5280612148525080612681528061294a52508061053c528061068752806112fc52806118885280611cd2528061229e52806127a25280612bed5250613cf36000f3fe60806040523480156100115760006000fd5b50600436106101d45760003560e01c806380ddbdb411610105578063c381c1e6116100a3578063ee47304d11610072578063ee47304d146104a8578063eec3f6f1146104c4578063fc2a11e8146104e0578063ff0eccf6146104fc576101d4565b8063c381c1e614610448578063d3ab388814610464578063d5f3948814610480578063e1c7392a1461049e576101d4565b8063a03cada9116100df578063a03cada9146103e4578063a0fc0eda14610402578063a2e6204514610420578063ab658be21461042a576101d4565b806380ddbdb41461037557806384333cc71461039157806395563b47146103c1576101d4565b80635d8350b4116101725780636dc14c8e1161014c5780636dc14c8e146103015780636e16ead21461031d57806375f12b21146103395780637e7e8eec14610357576101d4565b80635d8350b4146102ab5780635fd019ad146102c75780636d7fa664146102e3576101d4565b8063150147d7116101ae578063150147d714610232578063178d12261461024e57806319a6e9e61461026d5780631f244faf1461028b576101d4565b806307da68f5146101da5780630c340a24146101e4578063113cf1ab14610202576101d4565b60006000fd5b6101e261051a565b005b6101ec61053a565b6040516101f99190613879565b60405180910390f35b61021c60048036038101906102179190613609565b61055e565b6040516102299190613865565b60405180910390f35b61024c6004803603810190610247919061367d565b610583565b005b61025661067f565b604051610264929190613c19565b60405180910390f35b610275610b20565b6040516102829190613c32565b60405180910390f35b610293610b3a565b6040516102a293929190613952565b60405180910390f35b6102c560048036038101906102c09190613763565b610b88565b005b6102e160048036038101906102dc91906136ee565b610c2b565b005b6102eb610cfb565b6040516102f89190613865565b60405180910390f35b61031b600480360381019061031691906136d2565b610d17565b005b610337600480360381019061033291906136ee565b610db8565b005b610341610e6a565b60405161034e9190613865565b60405180910390f35b61035f610e7d565b60405161036c9190613c07565b60405180910390f35b61038f600480360381019061038a91906136ee565b610f41565b005b6103ab60048036038101906103a6919061372b565b610ff3565b6040516103b891906138a1565b60405180910390f35b6103c9611039565b6040516103db96959493929190613baa565b60405180910390f35b6103ec6110e8565b6040516103f99190613798565b60405180910390f35b61040a61110e565b6040516104179190613c07565b60405180910390f35b61042861113f565b005b61043261197b565b60405161043f9190613801565b60405180910390f35b610462600480360381019061045d919061367d565b611a11565b005b61047e60048036038101906104799190613763565b611bad565b005b610488611c26565b6040516104959190613798565b60405180910390f35b6104a6611c4c565b005b6104c260048036038101906104bd91906136a4565b611ed1565b005b6104de60048036038101906104d991906136a4565b611f87565b005b6104fa60048036038101906104f591906135b5565b61203d565b005b610504612146565b60405161051191906138a1565b60405180910390f35b61052861229963ffffffff16565b6105366122f963ffffffff16565b5b5b565b7f000000000000000000000000000000000000000000000000000000000000000081565b600160005060205280600052604060002060009150909054906101000a900460ff1681565b61059161229963ffffffff16565b61062a600360005080548060200260200160405190810160405280929190818152602001828054801561061957602002820191906000526020600020905b8160009054906101000a900473ffffffffffffffffffffffffffffffffffffffff1673ffffffffffffffffffffffffffffffffffffffff16815260200190600101908083116105cf575b50505050508261234363ffffffff16565b60036000509080519060200190610642929190613504565b507fe0c45385660471da2afc510ebde41d5f9361442fcda1f7a196e554fe3f6b5611816040516106729190613798565b60405180910390a15b5b50565b6000600060007f000000000000000000000000000000000000000000000000000000000000000073ffffffffffffffffffffffffffffffffffffffff1663d3419bf36040518163ffffffff1660e01b815260040160206040518083038186803b1580156106ec5760006000fd5b505afa158015610701573d600060003e3d6000fd5b505050506040513d601f19601f820116820180604052508101906107259190613656565b905060006003600050805490509050600081111515610779576040517f08c379a0000000000000000000000000000000000000000000000000000000008152600401610770906139cd565b60405180910390fd5b60008167ffffffffffffffff811180156107935760006000fd5b506040519080825280602002602001820160405280156107c25781602001602082028036833780820191505090505b5090506000600090505b828110156108cd578373ffffffffffffffffffffffffffffffffffffffff16633c63a9cd60036000508381548110151561080257fe5b906000526020600020900160005b9054906101000a900473ffffffffffffffffffffffffffffffffffffffff1660016040518363ffffffff1660e01b815260040161084e9291906138c9565b60206040518083038186803b1580156108675760006000fd5b505afa15801561087c573d600060003e3d6000fd5b505050506040513d601f19601f820116820180604052508101906108a09190613747565b82828151811015156108ae57fe5b60200260200101909081815260200150505b80806001019150506107cc565b5061098b818473ffffffffffffffffffffffffffffffffffffffff16633c63a9cd7f000000000000000000000000000000000000000000000000000000000000000060016040518363ffffffff1660e01b815260040161092e9291906138c9565b60206040518083038186803b1580156109475760006000fd5b505afa15801561095c573d600060003e3d6000fd5b505050506040513d601f19601f820116820180604052508101906109809190613747565b6124b463ffffffff16565b94508450610b0760086000506000016000505460056000506040518060c00160405290816000820160009054906101000a90046fffffffffffffffffffffffffffffffff166fffffffffffffffffffffffffffffffff166fffffffffffffffffffffffffffffffff1681526020016000820160109054906101000a90046fffffffffffffffffffffffffffffffff166fffffffffffffffffffffffffffffffff166fffffffffffffffffffffffffffffffff1681526020016001820160009054906101000a90046fffffffffffffffffffffffffffffffff166fffffffffffffffffffffffffffffffff166fffffffffffffffffffffffffffffffff1681526020016001820160109054906101000a900467ffffffffffffffff1667ffffffffffffffff1667ffffffffffffffff1681526020016002820160009054906101000a9004600f0b600f0b600f0b81526020016002820160109054906101000a9004600f0b600f0b600f0b81526020015050876124ff63ffffffff16565b93508350848494509450505050610b1c565050505b9091565b600460009054906101000a900467ffffffffffffffff1681565b60086000508060000160005054908060010160009054906101000a900467ffffffffffffffff16908060010160089054906101000a90046fffffffffffffffffffffffffffffffff16905083565b610b9661229963ffffffff16565b80600460006101000a81548167ffffffffffffffff021916908367ffffffffffffffff1602179055506000600460009054906101000a900467ffffffffffffffff1667ffffffffffffffff16111515610bef5760006000fd5b7f517c1f8e39144dc2198ca9c7f0cb04ac8ecbffef718abb8a24b56d2ae881e0fe81604051610c1e9190613c32565b60405180910390a15b5b50565b610c3961229963ffffffff16565b806fffffffffffffffffffffffffffffffff166000108015610c745750670de0b6b3a7640000816fffffffffffffffffffffffffffffffff16105b1515610c805760006000fd5b80600560005060000160106101000a8154816fffffffffffffffffffffffffffffffff02191690836fffffffffffffffffffffffffffffffff1602179055507f265b81e00f507e5ddfcde5e43ed2952f0462df065bf26eebc1c5bf184ab31cd381604051610cee9190613b86565b60405180910390a15b5b50565b6000600060086000506000016000505412159050610d14565b90565b610d2561267f63ffffffff16565b610d3361279263ffffffff16565b610d92600460089054906101000a900473ffffffffffffffffffffffffffffffffffffffff1673ffffffffffffffffffffffffffffffffffffffff163373ffffffffffffffffffffffffffffffffffffffff16146128bf63ffffffff16565b8060086000506000016000508190909055505b5b610db461293b63ffffffff16565b5b50565b610dc661229963ffffffff16565b670de0b6b3a7640000816fffffffffffffffffffffffffffffffff16101515610def5760006000fd5b80600560005060010160006101000a8154816fffffffffffffffffffffffffffffffff02191690836fffffffffffffffffffffffffffffffff1602179055507fbf56c5a0ff5b41763e4284940e0db09730e97d817e41e1396be9b9f2a9ed38fb81604051610e5d9190613b86565b60405180910390a15b5b50565b600060009054906101000a900460ff1681565b6000610f376008600050604051806060016040529081600082016000505481526020016001820160009054906101000a900467ffffffffffffffff1667ffffffffffffffff1667ffffffffffffffff1681526020016001820160089054906101000a90046fffffffffffffffffffffffffffffffff166fffffffffffffffffffffffffffffffff166fffffffffffffffffffffffffffffffff1681526020015050610f2c6129cd63ffffffff16565b6129e863ffffffff16565b9050610f3e565b90565b610f4f61229963ffffffff16565b670de0b6b3a7640000816fffffffffffffffffffffffffffffffff16101515610f785760006000fd5b80600560005060000160006101000a8154816fffffffffffffffffffffffffffffffff02191690836fffffffffffffffffffffffffffffffff1602179055507f94ff7d36ecf3da5a6cb7d7be5b429c938850be85f46d1d256c0dafe008b590a381604051610fe69190613b86565b60405180910390a15b5b50565b6003600050818154811061100657600080fd5b906000526020600020900160005b9150909054906101000a900473ffffffffffffffffffffffffffffffffffffffff1681565b60056000508060000160009054906101000a90046fffffffffffffffffffffffffffffffff16908060000160109054906101000a90046fffffffffffffffffffffffffffffffff16908060010160009054906101000a90046fffffffffffffffffffffffffffffffff16908060010160109054906101000a900467ffffffffffffffff16908060020160009054906101000a9004600f0b908060020160109054906101000a9004600f0b905086565b600460089054906101000a900473ffffffffffffffffffffffffffffffffffffffff1681565b6000600060086000506000016000505490506000811261112e5780611133565b806000035b91505061113c56505b90565b61114d61267f63ffffffff16565b61115b61279263ffffffff16565b600073ffffffffffffffffffffffffffffffffffffffff16600460089054906101000a900473ffffffffffffffffffffffffffffffffffffffff1673ffffffffffffffffffffffffffffffffffffffff161415156111ee576040517f08c379a00000000000000000000000000000000000000000000000000000000081526004016111e590613a4b565b60405180910390fd5b60006008600050604051806060016040529081600082016000505481526020016001820160009054906101000a900467ffffffffffffffff1667ffffffffffffffff1667ffffffffffffffff1681526020016001820160089054906101000a90046fffffffffffffffffffffffffffffffff166fffffffffffffffffffffffffffffffff166fffffffffffffffffffffffffffffffff1681526020015050905061129c6129cd63ffffffff16565b67ffffffffffffffff16816020015167ffffffffffffffff16111515156112f8576040517f08c379a00000000000000000000000000000000000000000000000000000000081526004016112ef90613ac9565b60405180910390fd5b60007f000000000000000000000000000000000000000000000000000000000000000073ffffffffffffffffffffffffffffffffffffffff1663d3419bf36040518163ffffffff1660e01b815260040160206040518083038186803b1580156113615760006000fd5b505afa158015611376573d600060003e3d6000fd5b505050506040513d601f19601f8201168201806040525081019061139a9190613656565b9050600060036000508054905090506000811115156113ee576040517f08c379a00000000000000000000000000000000000000000000000000000000081526004016113e5906139cd565b60405180910390fd5b60008167ffffffffffffffff811180156114085760006000fd5b506040519080825280602002602001820160405280156114375781602001602082028036833780820191505090505b5090506000600090505b82811015611541578373ffffffffffffffffffffffffffffffffffffffff1663ce403c1360036000508381548110151561147757fe5b906000526020600020900160005b9054906101000a900473ffffffffffffffffffffffffffffffffffffffff166040518263ffffffff1660e01b81526004016114c091906138a1565b602060405180830381600087803b1580156114db5760006000fd5b505af11580156114f0573d600060003e3d6000fd5b505050506040513d601f19601f820116820180604052508101906115149190613747565b828281518110151561152257fe5b60200260200101909081815260200150505b8080600101915050611441565b506000611600828573ffffffffffffffffffffffffffffffffffffffff1663ce403c137f00000000000000000000000000000000000000000000000000000000000000006040518263ffffffff1660e01b81526004016115a191906138a1565b602060405180830381600087803b1580156115bc5760006000fd5b505af11580156115d1573d600060003e3d6000fd5b505050506040513d601f19601f820116820180604052508101906115f59190613747565b6124b463ffffffff16565b905060006040518060600160405280611780886000015160056000506040518060c00160405290816000820160009054906101000a90046fffffffffffffffffffffffffffffffff166fffffffffffffffffffffffffffffffff166fffffffffffffffffffffffffffffffff1681526020016000820160109054906101000a90046fffffffffffffffffffffffffffffffff166fffffffffffffffffffffffffffffffff166fffffffffffffffffffffffffffffffff1681526020016001820160009054906101000a90046fffffffffffffffffffffffffffffffff166fffffffffffffffffffffffffffffffff166fffffffffffffffffffffffffffffffff1681526020016001820160109054906101000a900467ffffffffffffffff1667ffffffffffffffff1667ffffffffffffffff1681526020016002820160009054906101000a9004600f0b600f0b600f0b81526020016002820160109054906101000a9004600f0b600f0b600f0b81526020015050866124ff63ffffffff16565b81526020016117aa600460009054906101000a900467ffffffffffffffff16612ad963ffffffff16565b67ffffffffffffffff1681526020016117e66117d9896117ce6129cd63ffffffff16565b6129e863ffffffff16565b612b0f909063ffffffff16565b6fffffffffffffffffffffffffffffffff16815260200150905080600860005060008201518160000160005090905560208201518160010160006101000a81548167ffffffffffffffff021916908367ffffffffffffffff16021790555060408201518160010160086101000a8154816fffffffffffffffffffffffffffffffff02191690836fffffffffffffffffffffffffffffffff1602179055509050507f000000000000000000000000000000000000000000000000000000000000000073ffffffffffffffffffffffffffffffffffffffff16634cd7a3153383604001516040518363ffffffff1660e01b81526004016118e59291906137c0565b600060405180830381600087803b1580156119005760006000fd5b505af1158015611915573d600060003e3d6000fd5b505050507f9f912bcb7b057a4f10fbbee5785670aecb2ab545144237646e17398d55de72dc8160000151838360400151846020015160405161195a949392919061390f565b60405180910390a15050505050505b5b61197861293b63ffffffff16565b5b565b60606003600050805480602002602001604051908101604052809291908181526020018280548015611a0257602002820191906000526020600020905b8160009054906101000a900473ffffffffffffffffffffffffffffffffffffffff1673ffffffffffffffffffffffffffffffffffffffff16815260200190600101908083116119b8575b50505050509050611a0e565b90565b611a1f61229963ffffffff16565b611ab86003600050805480602002602001604051908101604052809291908181526020018280548015611aa757602002820191906000526020600020905b8160009054906101000a900473ffffffffffffffffffffffffffffffffffffffff1673ffffffffffffffffffffffffffffffffffffffff1681526020019060010190808311611a5d575b505050505082612ba963ffffffff16565b151515611afa576040517f08c379a0000000000000000000000000000000000000000000000000000000008152600401611af190613b47565b60405180910390fd5b611b0981612beb63ffffffff16565b600360005081908060018154018082558091505060019003906000526020600020900160005b9091909190916101000a81548173ffffffffffffffffffffffffffffffffffffffff021916908373ffffffffffffffffffffffffffffffffffffffff1602179055507fd815dd7ac4a8a5f5f1d3b09c4fb82cdf04e21e127619c6fca60b8f80e420492a81604051611ba09190613798565b60405180910390a15b5b50565b611bbb61229963ffffffff16565b80600560005060010160106101000a81548167ffffffffffffffff021916908367ffffffffffffffff1602179055507fcf58c4278b7362e258dd9a03400b38f692197a7ceb18b1c31ff440c1f9d5062f81604051611c199190613c32565b60405180910390a15b5b50565b600a60009054906101000a900473ffffffffffffffffffffffffffffffffffffffff1681565b611cab600a60009054906101000a900473ffffffffffffffffffffffffffffffffffffffff1673ffffffffffffffffffffffffffffffffffffffff163373ffffffffffffffffffffffffffffffffffffffff16146128bf63ffffffff16565b600a60006101000a81549073ffffffffffffffffffffffffffffffffffffffff02191690557f000000000000000000000000000000000000000000000000000000000000000073ffffffffffffffffffffffffffffffffffffffff1663d3419bf36040518163ffffffff1660e01b815260040160206040518083038186803b158015611d375760006000fd5b505afa158015611d4c573d600060003e3d6000fd5b505050506040513d601f19601f82011682018060405250810190611d709190613656565b73ffffffffffffffffffffffffffffffffffffffff1663532cec7c7f00000000000000000000000000000000000000000000000000000000000000006040518263ffffffff1660e01b8152600401611dc891906138a1565b60206040518083038186803b158015611de15760006000fd5b505afa158015611df6573d600060003e3d6000fd5b505050506040513d601f19601f82011682018060405250810190611e1a91906135dc565b1515611e5b576040517f08c379a0000000000000000000000000000000000000000000000000000000008152600401611e5290613a0c565b60405180910390fd5b6000600090505b600360005080549050811015611ecd57611ebf600360005082815481101515611e8757fe5b906000526020600020900160005b9054906101000a900473ffffffffffffffffffffffffffffffffffffffff16612beb63ffffffff16565b5b8080600101915050611e62565b505b565b611edf61229963ffffffff16565b600560005060020160109054906101000a9004600f0b600f0b81600f0b121515611f095760006000fd5b80600560005060020160006101000a8154816fffffffffffffffffffffffffffffffff0219169083600f0b6fffffffffffffffffffffffffffffffff1602179055507fc24e66dcb27dbd285d47a59317af2469aaec7df1cbef5058516e9f09c363a37581604051611f7a91906138fa565b60405180910390a15b5b50565b611f9561229963ffffffff16565b80600f0b600560005060020160009054906101000a9004600f0b600f0b121515611fbf5760006000fd5b80600560005060020160106101000a8154816fffffffffffffffffffffffffffffffff0219169083600f0b6fffffffffffffffffffffffffffffffff1602179055507fddfcfaec23708d16c646e9e109985f7db635f6a645245e87946f7d2f64f4bb6a8160405161203091906138fa565b60405180910390a15b5b50565b61204b61229963ffffffff16565b61205a81612cfb63ffffffff16565b151561209b576040517f08c379a000000000000000000000000000000000000000000000000000000000815260040161209290613b08565b60405180910390fd5b80600460086101000a81548173ffffffffffffffffffffffffffffffffffffffff021916908373ffffffffffffffffffffffffffffffffffffffff160217905550600460089054906101000a900473ffffffffffffffffffffffffffffffffffffffff1673ffffffffffffffffffffffffffffffffffffffff167fe0b059e7224cb02077d499d3dcdb8b5fd92486104e56578599357ed67977c1f860405160405180910390a25b5b50565b7f000000000000000000000000000000000000000000000000000000000000000081565b60008267ffffffffffffffff1682840191508167ffffffffffffffff1610151515612200576040517f08c379a000000000000000000000000000000000000000000000000000000000815260040180806020018281038252600c8152602001807f6164642d6f766572666c6f77000000000000000000000000000000000000000081526020015060200191505060405180910390fd5b5b92915050565b6000680100000000000000008210151561228c576040517f08c379a00000000000000000000000000000000000000000000000000000000081526004018080602001828103825260118152602001807f6d6f7265207468616e203634206269747300000000000000000000000000000081526020015060200191505060405180910390fd5b819050612294565b919050565b6122f67f000000000000000000000000000000000000000000000000000000000000000073ffffffffffffffffffffffffffffffffffffffff163373ffffffffffffffffffffffffffffffffffffffff16146128bf63ffffffff16565b5b565b6001600060006101000a81548160ff0219169083151502179055507f7acc84e34091ae817647a4c49116f5cc07f319078ba80f8f5fde37ea7e25cbd660405160405180910390a15b565b606060006123578484612d1563ffffffff16565b90507fffffffffffffffffffffffffffffffffffffffffffffffffffffffffffffffff81141515156123be576040517f08c379a00000000000000000000000000000000000000000000000000000000081526004016123b59061398e565b60405180910390fd5b6000600185510367ffffffffffffffff811180156123dc5760006000fd5b5060405190808252806020026020018201604052801561240b5781602001602082028036833780820191505090505b50905060006000600090505b865181101561249f57838114151561249157868181518110151561243757fe5b6020026020010151838380600101945081518110151561245357fe5b602002602001019073ffffffffffffffffffffffffffffffffffffffff16908173ffffffffffffffffffffffffffffffffffffffff16815260200150505b5b8080600101915050612417565b508193505050506124ae565050505b92915050565b6000816124c684612db663ffffffff16565b760a70c3c40a64e6c51999090b65f67d92400000000000008115156124e757fe5b048115156124f157fe5b0490506124f9565b92915050565b60006000670de0b6b3a76400008310905060008161252757670de0b6b3a76400008403612533565b83670de0b6b3a7640000035b905084600001516fffffffffffffffffffffffffffffffff16811015156126345760006125ab61259e600188602001516fffffffffffffffffffffffffffffffff168581151561257f57fe5b0401886060015167ffffffffffffffff1661303990919063ffffffff16565b612b0f909063ffffffff16565b905060006125fa6125db8389604001516fffffffffffffffffffffffffffffffff1661305790919063ffffffff16565b6fffffffffffffffffffffffffffffffff1661314f909063ffffffff16565b9050836126195761261481896131f890919063ffffffff16565b61262d565b61262c818961328f90919063ffffffff16565b5b9750875050505b8460800151600f0b861215612650578460800151600f0b955085505b8460a00151600f0b86131561266c578460a00151600f0b955085505b85925050506126785650505b9392505050565b7f000000000000000000000000000000000000000000000000000000000000000073ffffffffffffffffffffffffffffffffffffffff1663e97dcb626040518163ffffffff1660e01b8152600401600060405180830381600087803b1580156126e85760006000fd5b505af11580156126fd573d600060003e3d6000fd5b50505050600260026000505414151515612782576040517f08c379a000000000000000000000000000000000000000000000000000000000815260040180806020018281038252600d8152602001807f4c50205265656e7472616e63790000000000000000000000000000000000000081526020015060200191505060405180910390fd5b600260026000508190909055505b565b6127a061332663ffffffff16565b7f000000000000000000000000000000000000000000000000000000000000000073ffffffffffffffffffffffffffffffffffffffff1663bf86d6906040518163ffffffff1660e01b815260040160206040518083038186803b1580156128075760006000fd5b505afa15801561281c573d600060003e3d6000fd5b505050506040513d60208110156128335760006000fd5b81019080805190602001909291905050501515156128bc576040517f08c379a00000000000000000000000000000000000000000000000000000000081526004018080602001828103825260118152602001807f50726f746f636f6c2073687574646f776e00000000000000000000000000000081526020015060200191505060405180910390fd5b5b565b801515612937576040517f08c379a000000000000000000000000000000000000000000000000000000000815260040180806020018281038252600e8152602001807f4e6f7420417574686f72697a656400000000000000000000000000000000000081526020015060200191505060405180910390fd5b5b50565b600160026000508190909055507f000000000000000000000000000000000000000000000000000000000000000073ffffffffffffffffffffffffffffffffffffffff1663e9fad8ee6040518163ffffffff1660e01b8152600401600060405180830381600087803b1580156129b15760006000fd5b505af11580156129c6573d600060003e3d6000fd5b505050505b565b60006129e042612207909063ffffffff16565b905080505b90565b6000826020015167ffffffffffffffff168267ffffffffffffffff16111515612a145760009050612ad3565b6000600284604001516fffffffffffffffffffffffffffffffff16811515612a3857fe5b046fffffffffffffffffffffffffffffffff1690506000612a768560200151850367ffffffffffffffff16610708846133b19092919063ffffffff16565b82019050612ac8612aa7600587604001516fffffffffffffffffffffffffffffffff1661305790919063ffffffff16565b6fffffffffffffffffffffffffffffffff168261303990919063ffffffff16565b92505050612ad35650505b92915050565b6000612b0582612aed6129cd63ffffffff16565b67ffffffffffffffff1661216a90919063ffffffff16565b905080505b919050565b600070010000000000000000000000000000000082101515612b9c576040517f08c379a00000000000000000000000000000000000000000000000000000000081526004018080602001828103825260128152602001807f6d6f7265207468616e203132382062697473000000000000000000000000000081526020015060200191505060405180910390fd5b819050612ba4565b919050565b60007fffffffffffffffffffffffffffffffffffffffffffffffffffffffffffffffff612bdc8484612d1563ffffffff16565b14159050612be5565b92915050565b7f000000000000000000000000000000000000000000000000000000000000000073ffffffffffffffffffffffffffffffffffffffff1663d3419bf36040518163ffffffff1660e01b815260040160206040518083038186803b158015612c525760006000fd5b505afa158015612c67573d600060003e3d6000fd5b505050506040513d601f19601f82011682018060405250810190612c8b9190613656565b73ffffffffffffffffffffffffffffffffffffffff16637c5b9011826040518263ffffffff1660e01b8152600401612cc391906138a1565b600060405180830381600087803b158015612cde5760006000fd5b505af1158015612cf3573d600060003e3d6000fd5b505050505b50565b60006000823b905060008111915050612d1056505b919050565b60006000600090505b8351811015612d87578273ffffffffffffffffffffffffffffffffffffffff168482815181101515612d4c57fe5b602002602001015173ffffffffffffffffffffffffffffffffffffffff161415612d795780915050612db0565b5b8080600101915050612d1e565b507fffffffffffffffffffffffffffffffffffffffffffffffffffffffffffffffff9050612db0565b92915050565b6000600082519050600081111515612e03576040517f08c379a0000000000000000000000000000000000000000000000000000000008152600401612dfa90613a8a565b60405180910390fd5b6000600060005b6002841115612fb657856000815181101515612e2257fe5b602002602001015191508150856000815181101515612e3d57fe5b6020026020010151905080506000600190505b84811015612e9c578681815181101515612e6657fe5b60200260200101519350835082841015612e805783925082505b81841115612e8e5783915081505b5b8080600101915050612e50565b5080821415612eb15781945050505050613034565b60006002850367ffffffffffffffff81118015612ece5760006000fd5b50604051908082528060200260200182016040528015612efd5781602001602082028036833780820191505090505b5090506000600060006000600090505b88811015612f9f578a81815181101515612f2357fe5b6020026020010151975087508688148015612f3c575081155b15612f4c57600191508150612f91565b8588148015612f59575082155b15612f6957600192508250612f90565b878585806001019650815181101515612f7e57fe5b60200260200101909081815260200150505b5b5b8080600101915050612f0d565b506002880397508750839950895050505050612e0a565b6001841415612fe557856000815181101515612fce57fe5b60200260200101519450505050506130345661302f565b613024866001815181101515612ff757fe5b602002602001015187600081518110151561300e57fe5b60200260200101516134b290919063ffffffff16565b945050505050613034565b505050505b919050565b6000818310613048578161304a565b825b9050613051565b92915050565b60006000826fffffffffffffffffffffffffffffffff1614806130d15750826fffffffffffffffffffffffffffffffff16826fffffffffffffffffffffffffffffffff168385029250826fffffffffffffffffffffffffffffffff168115156130bc57fe5b046fffffffffffffffffffffffffffffffff16145b1515613148576040517f08c379a000000000000000000000000000000000000000000000000000000000815260040180806020018281038252600c8152602001807f6d756c2d6f766572666c6f77000000000000000000000000000000000000000081526020015060200191505060405180910390fd5b5b92915050565b60007f8000000000000000000000000000000000000000000000000000000000000000821015156131eb576040517f08c379a00000000000000000000000000000000000000000000000000000000081526004018080602001828103825260128152602001807f746f6f2062696720666f7220696e74323536000000000000000000000000000081526020015060200191505060405180910390fd5b8190506131f3565b919050565b600060008284039050600083121580156132125750838113155b80613228575060008312801561322757508381135b5b151561327f576040517f08c379a0000000000000000000000000000000000000000000000000000000008152600401808060200182810382526024815260200180613c9a6024913960400191505060405180910390fd5b8091505061328956505b92915050565b600060008284019050600083121580156132a95750838112155b806132bf57506000831280156132be57508381125b5b1515613316576040517f08c379a0000000000000000000000000000000000000000000000000000000008152600401808060200182810382526021815260200180613c796021913960400191505060405180910390fd5b8091505061332056505b92915050565b600060009054906101000a900460ff161515156133ae576040517f08c379a00000000000000000000000000000000000000000000000000000000081526004018080602001828103825260138152602001807f436f6e74726163742069732073746f707065640000000000000000000000000081526020015060200191505060405180910390fd5b5b565b60006000600060001985870985870292508281108382030391505060008114156133f4576000841115156133e55760006000fd5b838204925082925050506134ab565b80841115156134035760006000fd5b60008486880990508281118203915080830392506000858660000316905080860495508084049350600181826000030401905080830284179350835060006002876003021890508087026002038102905080508087026002038102905080508087026002038102905080508087026002038102905080508087026002038102905080508087026002038102905080508085029550855085955050505050506134ab5650505050505b9392505050565b600060026002838115156134c257fe5b066002858115156134cf57fe5b06018115156134da57fe5b046002838115156134e757fe5b046002858115156134f457fe5b04010190506134fe565b92915050565b82805482825590600052602060002090810192821561357d579160200282015b8281111561357c5782518260006101000a81548173ffffffffffffffffffffffffffffffffffffffff021916908373ffffffffffffffffffffffffffffffffffffffff16021790555091602001919060010190613524565b5b50905061358a919061358e565b5090565b613593565b808211156135ad5760008181506000905550600101613593565b509056613c77565b6000602082840312156135c6578081fd5b81356135d181613c4e565b809150505b92915050565b6000602082840312156135ed578081fd5b8151801515811415156135fe578182fd5b809150505b92915050565b60006020828403121561361a578081fd5b81357fffffffff0000000000000000000000000000000000000000000000000000000081168114151561364b578182fd5b809150505b92915050565b600060208284031215613667578081fd5b815161367281613c4e565b809150505b92915050565b60006020828403121561368e578081fd5b813561369981613c4e565b809150505b92915050565b6000602082840312156136b5578081fd5b813580600f0b811415156136c7578182fd5b809150505b92915050565b6000602082840312156136e3578081fd5b813590505b92915050565b6000602082840312156136ff578081fd5b81356fffffffffffffffffffffffffffffffff811681141515613720578182fd5b809150505b92915050565b60006020828403121561373c578081fd5b813590505b92915050565b600060208284031215613758578081fd5b815190505b92915050565b600060208284031215613774578081fd5b813567ffffffffffffffff81168114151561378d578182fd5b809150505b92915050565b600060208201905073ffffffffffffffffffffffffffffffffffffffff831682525b92915050565b600060408201905073ffffffffffffffffffffffffffffffffffffffff841682526fffffffffffffffffffffffffffffffff831660208301525b9392505050565b600060208083018184528085518083526040860191508387019250845b818110156138565773ffffffffffffffffffffffffffffffffffffffff8451168352848301925084840193505b60018101905061381e565b50508093505050505b92915050565b600060208201905082151582525b92915050565b600060208201905073ffffffffffffffffffffffffffffffffffffffff831682525b92915050565b600060208201905073ffffffffffffffffffffffffffffffffffffffff831682525b92915050565b600060408201905073ffffffffffffffffffffffffffffffffffffffff8416825282151560208301525b9392505050565b600060208201905082600f0b82525b92915050565b60006080820190508582528460208301526fffffffffffffffffffffffffffffffff8416604083015267ffffffffffffffff831660608301525b95945050505050565b600060608201905084825267ffffffffffffffff841660208301526fffffffffffffffffffffffffffffffff831660408301525b949350505050565b600060208252600960208301527f4e6f7420666f756e64000000000000000000000000000000000000000000000060408301526060820190505b919050565b600060208252601260208301527f4e6f207265666572656e636520706f6f6c73000000000000000000000000000060408301526060820190505b919050565b600060208252601460208301527f506f6f6c206e6f7420696e697469616c697a656400000000000000000000000060408301526060820190505b919050565b600060208252601960208301527f5261746573207570646174652064656c6567617465207365740000000000000060408301526060820190505b919050565b600060208252600560208301527f656d70747900000000000000000000000000000000000000000000000000000060408301526060820190505b919050565b600060208252601060208301527f557064617465206e6f742072656164790000000000000000000000000000000060408301526060820190505b919050565b600060208252600e60208301527f4e6f74206120636f6e747261637400000000000000000000000000000000000060408301526060820190505b919050565b600060208252600d60208301527f416c72656164792061646465640000000000000000000000000000000000000060408301526060820190505b919050565b60006020820190506fffffffffffffffffffffffffffffffff831682525b92915050565b600060c0820190506fffffffffffffffffffffffffffffffff8089168352808816602084015280871660408401525067ffffffffffffffff8516606083015283600f0b608083015282600f0b60a08301525b979650505050505050565b60006020820190508282525b92915050565b60006040820190508382528260208301525b9392505050565b600060208201905067ffffffffffffffff831682525b92915050565b73ffffffffffffffffffffffffffffffffffffffff811681141515613c735760006000fd5b5b50565bfe5369676e6564536166654d6174683a206164646974696f6e206f766572666c6f775369676e6564536166654d6174683a207375627472616374696f6e206f766572666c6f77a2646970667358221220fa5a8b4fd88617564b7b1ddc0f9c235f2d84513d904412c01cc87483151450c364736f6c63430007060033",
  "linkReferences": {},
  "deployedLinkReferences": {}
}