{
  "_format": "hh-sol-artifact-1",
  "contractName": "Tcp",
  "sourceName": "contracts/core/governance/Tcp.sol",
  "abi": [
    {
      "inputs": [
        {
          "components": [
            {
              "internalType": "address",
              "name": "Governor",
              "type": "address"
            }
          ],
          "internalType": "struct Tcp.ConstructorParams",
          "name": "params",
          "type": "tuple"
        }
      ],
      "stateMutability": "nonpayable",
      "type": "constructor"
    },
    {
      "anonymous": false,
      "inputs": [
        {
          "indexed": true,
          "internalType": "address",
          "name": "owner",
          "type": "address"
        },
        {
          "indexed": true,
          "internalType": "address",
          "name": "spender",
          "type": "address"
        },
        {
          "indexed": false,
          "internalType": "uint256",
          "name": "amount",
          "type": "uint256"
        }
      ],
      "name": "Approval",
      "type": "event"
    },
    {
      "anonymous": false,
      "inputs": [
        {
          "indexed": true,
          "internalType": "address",
          "name": "delegator",
          "type": "address"
        },
        {
          "indexed": true,
          "internalType": "address",
          "name": "fromDelegate",
          "type": "address"
        },
        {
          "indexed": true,
          "internalType": "address",
          "name": "toDelegate",
          "type": "address"
        }
      ],
      "name": "DelegateChanged",
      "type": "event"
    },
    {
      "anonymous": false,
      "inputs": [
        {
          "indexed": true,
          "internalType": "address",
          "name": "delegate",
          "type": "address"
        },
        {
          "indexed": false,
          "internalType": "uint256",
          "name": "previousBalance",
          "type": "uint256"
        },
        {
          "indexed": false,
          "internalType": "uint256",
          "name": "newBalance",
          "type": "uint256"
        }
      ],
      "name": "DelegateVotesChanged",
      "type": "event"
    },
    {
      "anonymous": false,
      "inputs": [
        {
          "indexed": true,
          "internalType": "address",
          "name": "newGovernor",
          "type": "address"
        }
      ],
      "name": "GovernorAdded",
      "type": "event"
    },
    {
      "anonymous": false,
      "inputs": [
        {
          "indexed": true,
          "internalType": "address",
          "name": "from",
          "type": "address"
        },
        {
          "indexed": true,
          "internalType": "address",
          "name": "to",
          "type": "address"
        },
        {
          "indexed": false,
          "internalType": "uint256",
          "name": "amount",
          "type": "uint256"
        }
      ],
      "name": "Transfer",
      "type": "event"
    },
    {
      "inputs": [],
      "name": "DELEGATION_TYPEHASH",
      "outputs": [
        {
          "internalType": "bytes32",
          "name": "",
          "type": "bytes32"
        }
      ],
      "stateMutability": "view",
      "type": "function"
    },
    {
      "inputs": [],
      "name": "DOMAIN_TYPEHASH",
      "outputs": [
        {
          "internalType": "bytes32",
          "name": "",
          "type": "bytes32"
        }
      ],
      "stateMutability": "view",
      "type": "function"
    },
    {
      "inputs": [
        {
          "internalType": "address",
          "name": "newGovernor",
          "type": "address"
        }
      ],
      "name": "addGovernor",
      "outputs": [],
      "stateMutability": "nonpayable",
      "type": "function"
    },
    {
      "inputs": [
        {
          "internalType": "address",
          "name": "account",
          "type": "address"
        },
        {
          "internalType": "address",
          "name": "spender",
          "type": "address"
        }
      ],
      "name": "allowance",
      "outputs": [
        {
          "internalType": "uint256",
          "name": "",
          "type": "uint256"
        }
      ],
      "stateMutability": "view",
      "type": "function"
    },
    {
      "inputs": [
        {
          "internalType": "address",
          "name": "spender",
          "type": "address"
        },
        {
          "internalType": "uint256",
          "name": "amount",
          "type": "uint256"
        }
      ],
      "name": "approve",
      "outputs": [
        {
          "internalType": "bool",
          "name": "",
          "type": "bool"
        }
      ],
      "stateMutability": "nonpayable",
      "type": "function"
    },
    {
      "inputs": [
        {
          "internalType": "address",
          "name": "account",
          "type": "address"
        }
      ],
      "name": "balanceOf",
      "outputs": [
        {
          "internalType": "uint256",
          "name": "",
          "type": "uint256"
        }
      ],
      "stateMutability": "view",
      "type": "function"
    },
    {
      "inputs": [
        {
          "internalType": "uint256",
          "name": "amount",
          "type": "uint256"
        }
      ],
      "name": "burn",
      "outputs": [],
      "stateMutability": "nonpayable",
      "type": "function"
    },
    {
      "inputs": [
        {
          "internalType": "address",
          "name": "account",
          "type": "address"
        },
        {
          "internalType": "uint256",
          "name": "amount",
          "type": "uint256"
        }
      ],
      "name": "burnFrom",
      "outputs": [],
      "stateMutability": "nonpayable",
      "type": "function"
    },
    {
      "inputs": [
        {
          "internalType": "address",
          "name": "",
          "type": "address"
        },
        {
          "internalType": "uint32",
          "name": "",
          "type": "uint32"
        }
      ],
      "name": "checkpoints",
      "outputs": [
        {
          "internalType": "uint32",
          "name": "fromBlock",
          "type": "uint32"
        },
        {
          "internalType": "uint224",
          "name": "votes",
          "type": "uint224"
        }
      ],
      "stateMutability": "view",
      "type": "function"
    },
    {
      "inputs": [],
      "name": "decimals",
      "outputs": [
        {
          "internalType": "uint8",
          "name": "",
          "type": "uint8"
        }
      ],
      "stateMutability": "view",
      "type": "function"
    },
    {
      "inputs": [
        {
          "internalType": "address",
          "name": "spender",
          "type": "address"
        },
        {
          "internalType": "uint256",
          "name": "subtractedValue",
          "type": "uint256"
        }
      ],
      "name": "decreaseAllowance",
      "outputs": [
        {
          "internalType": "bool",
          "name": "",
          "type": "bool"
        }
      ],
      "stateMutability": "nonpayable",
      "type": "function"
    },
    {
      "inputs": [
        {
          "internalType": "address",
          "name": "delegatee",
          "type": "address"
        }
      ],
      "name": "delegate",
      "outputs": [],
      "stateMutability": "nonpayable",
      "type": "function"
    },
    {
      "inputs": [
        {
          "internalType": "address",
          "name": "delegatee",
          "type": "address"
        },
        {
          "internalType": "uint256",
          "name": "nonce",
          "type": "uint256"
        },
        {
          "internalType": "uint256",
          "name": "expiry",
          "type": "uint256"
        },
        {
          "internalType": "uint8",
          "name": "v",
          "type": "uint8"
        },
        {
          "internalType": "bytes32",
          "name": "r",
          "type": "bytes32"
        },
        {
          "internalType": "bytes32",
          "name": "s",
          "type": "bytes32"
        }
      ],
      "name": "delegateBySig",
      "outputs": [],
      "stateMutability": "nonpayable",
      "type": "function"
    },
    {
      "inputs": [
        {
          "internalType": "address",
          "name": "",
          "type": "address"
        }
      ],
      "name": "delegates",
      "outputs": [
        {
          "internalType": "address",
          "name": "",
          "type": "address"
        }
      ],
      "stateMutability": "view",
      "type": "function"
    },
    {
      "inputs": [
        {
          "internalType": "address",
          "name": "account",
          "type": "address"
        }
      ],
      "name": "getCurrentVotes",
      "outputs": [
        {
          "internalType": "uint256",
          "name": "",
          "type": "uint256"
        }
      ],
      "stateMutability": "view",
      "type": "function"
    },
    {
      "inputs": [
        {
          "internalType": "address",
          "name": "account",
          "type": "address"
        },
        {
          "internalType": "uint256",
          "name": "blockNumber",
          "type": "uint256"
        }
      ],
      "name": "getPriorVotes",
      "outputs": [
        {
          "internalType": "uint256",
          "name": "",
          "type": "uint256"
        }
      ],
      "stateMutability": "view",
      "type": "function"
    },
    {
      "inputs": [],
      "name": "getTokenNFTIcon",
      "outputs": [
        {
          "internalType": "string",
          "name": "",
          "type": "string"
        }
      ],
      "stateMutability": "pure",
      "type": "function"
    },
    {
      "inputs": [
        {
          "internalType": "address",
          "name": "",
          "type": "address"
        }
      ],
      "name": "governor",
      "outputs": [
        {
          "internalType": "bool",
          "name": "",
          "type": "bool"
        }
      ],
      "stateMutability": "view",
      "type": "function"
    },
    {
      "inputs": [
        {
          "internalType": "address",
          "name": "spender",
          "type": "address"
        },
        {
          "internalType": "uint256",
          "name": "addedValue",
          "type": "uint256"
        }
      ],
      "name": "increaseAllowance",
      "outputs": [
        {
          "internalType": "bool",
          "name": "",
          "type": "bool"
        }
      ],
      "stateMutability": "nonpayable",
      "type": "function"
    },
    {
      "inputs": [
        {
          "internalType": "address",
          "name": "dest",
          "type": "address"
        },
        {
          "internalType": "uint256",
          "name": "count",
          "type": "uint256"
        }
      ],
      "name": "mintTo",
      "outputs": [],
      "stateMutability": "nonpayable",
      "type": "function"
    },
    {
      "inputs": [],
      "name": "name",
      "outputs": [
        {
          "internalType": "string",
          "name": "",
          "type": "string"
        }
      ],
      "stateMutability": "view",
      "type": "function"
    },
    {
      "inputs": [
        {
          "internalType": "address",
          "name": "",
          "type": "address"
        }
      ],
      "name": "nonces",
      "outputs": [
        {
          "internalType": "uint256",
          "name": "",
          "type": "uint256"
        }
      ],
      "stateMutability": "view",
      "type": "function"
    },
    {
      "inputs": [
        {
          "internalType": "address",
          "name": "",
          "type": "address"
        }
      ],
      "name": "numCheckpoints",
      "outputs": [
        {
          "internalType": "uint32",
          "name": "",
          "type": "uint32"
        }
      ],
      "stateMutability": "view",
      "type": "function"
    },
    {
      "inputs": [],
      "name": "symbol",
      "outputs": [
        {
          "internalType": "string",
          "name": "",
          "type": "string"
        }
      ],
      "stateMutability": "view",
      "type": "function"
    },
    {
      "inputs": [],
      "name": "totalSupply",
      "outputs": [
        {
          "internalType": "uint256",
          "name": "",
          "type": "uint256"
        }
      ],
      "stateMutability": "view",
      "type": "function"
    },
    {
      "inputs": [
        {
          "internalType": "address",
          "name": "dst",
          "type": "address"
        },
        {
          "internalType": "uint256",
          "name": "amount",
          "type": "uint256"
        }
      ],
      "name": "transfer",
      "outputs": [
        {
          "internalType": "bool",
          "name": "",
          "type": "bool"
        }
      ],
      "stateMutability": "nonpayable",
      "type": "function"
    },
    {
      "inputs": [
        {
          "internalType": "address",
          "name": "src",
          "type": "address"
        },
        {
          "internalType": "address",
          "name": "dst",
          "type": "address"
        },
        {
          "internalType": "uint256",
          "name": "amount",
          "type": "uint256"
        }
      ],
      "name": "transferFrom",
      "outputs": [
        {
          "internalType": "bool",
          "name": "",
          "type": "bool"
        }
      ],
      "stateMutability": "nonpayable",
      "type": "function"
    }
  ],
  "bytecode": "0x6080604052600160096000509090553480156200001c5760006000fd5b50604051620047c0380380620047c0833981810160405281019062000042919062000273565b5b6040518060400160405280601b81526020017f54727573746c6573732043757272656e63792050726f746f636f6c00000000008152602001506040518060400160405280600381526020017f544350000000000000000000000000000000000000000000000000000000000081526020015082600001515b8260006000509080519060200190620000d6929190620001b2565b508160016000509080519060200190620000f2929190620001b2565b5062000104816200011060201b60201c565b5b5050505b506200032c565b6001600a60005060008373ffffffffffffffffffffffffffffffffffffffff1673ffffffffffffffffffffffffffffffffffffffff16815260200190815260200160002060006101000a81548160ff0219169083151502179055508073ffffffffffffffffffffffffffffffffffffffff167fdc5a48d79e2e147530ff63ecdbed5a5a66adb9d5cf339384d5d076da197c40b560405160405180910390a25b50565b828054620001c090620002e7565b90600052602060002090601f016020900481019282620001e4576000855562000235565b82601f10620001ff57805160ff191683800117855562000235565b8280016001018555821562000235579182015b8281111562000234578251826000509090559160200191906001019062000212565b5b50905062000244919062000248565b5090565b6200024e565b808211156200026a57600081815060009055506001016200024e565b5090566200032b565b600060208284031215620002875760006000fd5b604051602081018181106001600160401b0382111715620002b857634e487b7160e01b600052604160045260246000fd5b806040525082516001600160a01b03811681141515620002d85760006000fd5b80825250809150505b92915050565b60008160011c9050600182168015156200030257607f821691505b602082108114156200032457634e487b7160e01b600052602260045260246000fd5b505b919050565b5b614484806200033c6000396000f3fe60806040523480156100115760006000fd5b50600436106101be5760003560e01c806370a08231116100fa578063a9059cbb11610098578063d7ab74d011610072578063d7ab74d014610542578063dd62ed3e14610560578063e7a324dc14610590578063f1127ed8146105ae576101be565b8063a9059cbb146104c6578063b4b5ea57146104f6578063c3cda52014610526576101be565b806379cc6790116100d457806379cc67901461042c5780637ecebe001461044857806395d89b4114610478578063a457c2d714610496576101be565b806370a082311461039c57806370ec42e8146103cc578063782d6fe1146103fc576101be565b80633950935111610167578063449a52f811610141578063449a52f814610304578063587cde1e146103205780635c19a95c146103505780636fcfff451461036c576101be565b8063395093511461029c5780633c4a25d0146102cc57806342966c68146102e8576101be565b806320606b701161019857806320606b701461023057806323b872dd1461024e578063313ce5671461027e576101be565b806306fdde03146101c4578063095ea7b3146101e257806318160ddd14610212576101be565b60006000fd5b6101cc6105df565b6040516101d99190613018565b60405180910390f35b6101fc60048036038101906101f791906130c3565b610670565b60405161020991906130f2565b60405180910390f35b61021a6107e4565b6040516102279190613106565b60405180910390f35b6102386107ed565b6040516102459190613118565b60405180910390f35b6102686004803603810190610263919061312a565b610811565b60405161027591906130f2565b60405180910390f35b610286610a1c565b6040516102939190613169565b60405180910390f35b6102b660048036038101906102b191906130c3565b610a21565b6040516102c391906130f2565b60405180910390f35b6102e660048036038101906102e1919061317e565b610af0565b005b61030260048036038101906102fd91906131a3565b610b95565b005b61031e600480360381019061031991906130c3565b610ba9565b005b61033a6004803603810190610335919061317e565b610cb5565b60405161034791906131c1565b60405180910390f35b61036a6004803603810190610365919061317e565b610ced565b005b6103866004803603810190610381919061317e565b610d05565b60405161039391906131e9565b60405180910390f35b6103b660048036038101906103b1919061317e565b610d2d565b6040516103c39190613106565b60405180910390f35b6103e660048036038101906103e1919061317e565b610d81565b6040516103f391906130f2565b60405180910390f35b610416600480360381019061041191906130c3565b610da6565b6040516104239190613106565b60405180910390f35b610446600480360381019061044191906130c3565b6112d8565b005b610462600480360381019061045d919061317e565b6113b1565b60405161046f9190613106565b60405180910390f35b6104806113cc565b60405161048d9190613018565b60405180910390f35b6104b060048036038101906104ab91906130c3565b61145d565b6040516104bd91906130f2565b60405180910390f35b6104e060048036038101906104db91906130c3565b61152c565b6040516104ed91906130f2565b60405180910390f35b610510600480360381019061050b919061317e565b61154e565b60405161051d9190613106565b60405180910390f35b610540600480360381019061053b9190613201565b611686565b005b61054a61193c565b6040516105579190613018565b60405180910390f35b61057a6004803603810190610575919061326b565b611966565b6040516105879190613106565b60405180910390f35b6105986119fb565b6040516105a59190613118565b60405180910390f35b6105c860048036038101906105c391906132a1565b611a1f565b6040516105d69291906132e7565b60405180910390f35b600060005080546105ef90613324565b80601f016020809104026020016040519081016040528092919081815260200182805461061b90613324565b80156106685780601f1061063d57610100808354040283529160200191610668565b820191906000526020600020905b81548152906001019060200180831161064b57829003601f168201915b505050505081565b6000600073ffffffffffffffffffffffffffffffffffffffff168373ffffffffffffffffffffffffffffffffffffffff16141515156106e4576040517f08c379a00000000000000000000000000000000000000000000000000000000081526004016106db9061337f565b60405180910390fd5b81600360005060003373ffffffffffffffffffffffffffffffffffffffff1673ffffffffffffffffffffffffffffffffffffffff16815260200190815260200160002060005060008573ffffffffffffffffffffffffffffffffffffffff1673ffffffffffffffffffffffffffffffffffffffff1681526020019081526020016000206000508190909055508273ffffffffffffffffffffffffffffffffffffffff163373ffffffffffffffffffffffffffffffffffffffff167f8c5be1e5ebec7d5bd14f71427d1e84f3dd0314c0f7b2291e5b200ac8c7c3b925846040516107cd9190613106565b60405180910390a3600190506107de565b92915050565b60026000505481565b7f8cad95687ba82c2ce50e74f7b754645e5117c3a5bec8151c0726d5857980a86681565b600060003390506000600360005060008773ffffffffffffffffffffffffffffffffffffffff1673ffffffffffffffffffffffffffffffffffffffff16815260200190815260200160002060005060008373ffffffffffffffffffffffffffffffffffffffff1673ffffffffffffffffffffffffffffffffffffffff1681526020019081526020016000206000505490506108b3868686611a8e63ffffffff16565b8573ffffffffffffffffffffffffffffffffffffffff168273ffffffffffffffffffffffffffffffffffffffff16141515610a08576000610913828660405180606001604052806028815260200161436d60289139611e4463ffffffff16565b905080600360005060008973ffffffffffffffffffffffffffffffffffffffff1673ffffffffffffffffffffffffffffffffffffffff16815260200190815260200160002060005060008573ffffffffffffffffffffffffffffffffffffffff1673ffffffffffffffffffffffffffffffffffffffff1681526020019081526020016000206000508190909055508273ffffffffffffffffffffffffffffffffffffffff168773ffffffffffffffffffffffffffffffffffffffff167f8c5be1e5ebec7d5bd14f71427d1e84f3dd0314c0f7b2291e5b200ac8c7c3b925836040516109fe9190613106565b60405180910390a3505b600192505050610a155650505b9392505050565b601281565b6000610ae13384610ad6600360005060003373ffffffffffffffffffffffffffffffffffffffff1673ffffffffffffffffffffffffffffffffffffffff16815260200190815260200160002060005060008873ffffffffffffffffffffffffffffffffffffffff1673ffffffffffffffffffffffffffffffffffffffff16815260200190815260200160002060005054866040518060600160405280602281526020016142fe60229139611ea963ffffffff16565b611f1563ffffffff16565b60019050610aea565b92915050565b600a60005060003373ffffffffffffffffffffffffffffffffffffffff1673ffffffffffffffffffffffffffffffffffffffff16815260200190815260200160002060009054906101000a900460ff161515610b81576040517f08c379a0000000000000000000000000000000000000000000000000000000008152600401610b78906133e4565b60405180910390fd5b610b90816120f063ffffffff16565b5b5b50565b610ba5338261219263ffffffff16565b5b50565b6001600960005054141515610bf3576040517f08c379a0000000000000000000000000000000000000000000000000000000008152600401610bea90613423565b60405180910390fd5b60006009600050819090905550600a60005060003373ffffffffffffffffffffffffffffffffffffffff1673ffffffffffffffffffffffffffffffffffffffff16815260200190815260200160002060009054906101000a900460ff161515610c91576040517f08c379a0000000000000000000000000000000000000000000000000000000008152600401610c88906133e4565b60405180910390fd5b610ca182826123d563ffffffff16565b5b5b600160096000508190909055505b5050565b600560005060205280600052604060002060009150909054906101000a900473ffffffffffffffffffffffffffffffffffffffff1681565b610cfd338261265863ffffffff16565b610d02565b50565b600760005060205280600052604060002060009150909054906101000a900463ffffffff1681565b6000600460005060008373ffffffffffffffffffffffffffffffffffffffff1673ffffffffffffffffffffffffffffffffffffffff168152602001908152602001600020600050549050610d7c565b919050565b600a60005060205280600052604060002060009150909054906101000a900460ff1681565b60004382101515610dec576040517f08c379a0000000000000000000000000000000000000000000000000000000008152600401610de390613462565b60405180910390fd5b6000600760005060008573ffffffffffffffffffffffffffffffffffffffff1673ffffffffffffffffffffffffffffffffffffffff16815260200190815260200160002060009054906101000a900463ffffffff16905060008163ffffffff161415610e5c5760009150506112d2565b82600660005060008673ffffffffffffffffffffffffffffffffffffffff1673ffffffffffffffffffffffffffffffffffffffff1681526020019081526020016000206000506000600184610eb191906134f8565b63ffffffff1663ffffffff16815260200190815260200160002060005060000160009054906101000a900463ffffffff1663ffffffff16111515610fb257600660005060008573ffffffffffffffffffffffffffffffffffffffff1673ffffffffffffffffffffffffffffffffffffffff1681526020019081526020016000206000506000600183610f4391906134f8565b63ffffffff1663ffffffff16815260200190815260200160002060005060000160049054906101000a90047bffffffffffffffffffffffffffffffffffffffffffffffffffffffff167bffffffffffffffffffffffffffffffffffffffffffffffffffffffff169150506112d2565b82600660005060008673ffffffffffffffffffffffffffffffffffffffff1673ffffffffffffffffffffffffffffffffffffffff1681526020019081526020016000206000506000600063ffffffff16815260200190815260200160002060005060000160009054906101000a900463ffffffff1663ffffffff16111561103d5760009150506112d2565b600060009050600060018361105291906134f8565b90505b8163ffffffff168163ffffffff1611156112165760006002838361107991906134f8565b6110839190613526565b8261108e91906134f8565b90506000600660005060008973ffffffffffffffffffffffffffffffffffffffff1673ffffffffffffffffffffffffffffffffffffffff16815260200190815260200160002060005060008363ffffffff1663ffffffff1681526020019081526020016000206000506040518060400160405290816000820160009054906101000a900463ffffffff1663ffffffff1663ffffffff1681526020016000820160049054906101000a90047bffffffffffffffffffffffffffffffffffffffffffffffffffffffff167bffffffffffffffffffffffffffffffffffffffffffffffffffffffff167bffffffffffffffffffffffffffffffffffffffffffffffffffffffff1681526020015050905086816000015163ffffffff1614156111e05780602001517bffffffffffffffffffffffffffffffffffffffffffffffffffffffff16955050505050506112d25661120f565b86816000015163ffffffff1610156111fc57819350835061120e565b60018261120991906134f8565b925082505b5b5050611055565b600660005060008773ffffffffffffffffffffffffffffffffffffffff1673ffffffffffffffffffffffffffffffffffffffff16815260200190815260200160002060005060008363ffffffff1663ffffffff16815260200190815260200160002060005060000160049054906101000a90047bffffffffffffffffffffffffffffffffffffffffffffffffffffffff167bffffffffffffffffffffffffffffffffffffffffffffffffffffffff1693505050506112d2565050505b92915050565b6000611388600360005060008573ffffffffffffffffffffffffffffffffffffffff1673ffffffffffffffffffffffffffffffffffffffff16815260200190815260200160002060005060003373ffffffffffffffffffffffffffffffffffffffff1673ffffffffffffffffffffffffffffffffffffffff168152602001908152602001600020600050548360405180606001604052806024815260200161439560249139611e4463ffffffff16565b905061139b833383611f1563ffffffff16565b6113ab838361219263ffffffff16565b505b5050565b60086000506020528060005260406000206000915090505481565b600160005080546113dc90613324565b80601f016020809104026020016040519081016040528092919081815260200182805461140890613324565b80156114555780601f1061142a57610100808354040283529160200191611455565b820191906000526020600020905b81548152906001019060200180831161143857829003601f168201915b505050505081565b600061151d3384611512600360005060003373ffffffffffffffffffffffffffffffffffffffff1673ffffffffffffffffffffffffffffffffffffffff16815260200190815260200160002060005060008873ffffffffffffffffffffffffffffffffffffffff1673ffffffffffffffffffffffffffffffffffffffff168152602001908152602001600020600050548660405180606001604052806025815260200161442a60259139611e4463ffffffff16565b611f1563ffffffff16565b60019050611526565b92915050565b600061153f338484611a8e63ffffffff16565b60019050611548565b92915050565b60006000600760005060008473ffffffffffffffffffffffffffffffffffffffff1673ffffffffffffffffffffffffffffffffffffffff16815260200190815260200160002060009054906101000a900463ffffffff16905060008163ffffffff16116115bc57600061165a565b600660005060008473ffffffffffffffffffffffffffffffffffffffff1673ffffffffffffffffffffffffffffffffffffffff168152602001908152602001600020600050600060018361161091906134f8565b63ffffffff1663ffffffff16815260200190815260200160002060005060000160049054906101000a90047bffffffffffffffffffffffffffffffffffffffffffffffffffffffff165b7bffffffffffffffffffffffffffffffffffffffffffffffffffffffff1691505061168156505b919050565b60007f8cad95687ba82c2ce50e74f7b754645e5117c3a5bec8151c0726d5857980a86660006000506040516116bb9190613588565b604051809103902046306040516020016116d89493929190613668565b60405160208183030381529060405280519060200120905060007fe48329057bfd03d55e49b547132e39cffd9c1820ad7b9d4c5307691425d15adf88888860405160200161172994939291906136a5565b604051602081830303815290604052805190602001209050600082826040516020016117569291906136e2565b6040516020818303038152906040528051906020012090506000600182888888604051600081526020016040526040516117939493929190613721565b6020604051602081039080840390855afa1580156117b6573d600060003e3d6000fd5b505050602060405103519050600073ffffffffffffffffffffffffffffffffffffffff168173ffffffffffffffffffffffffffffffffffffffff1614151515611834576040517f08c379a000000000000000000000000000000000000000000000000000000000815260040161182b9061374b565b60405180910390fd5b600860005060008273ffffffffffffffffffffffffffffffffffffffff1673ffffffffffffffffffffffffffffffffffffffff168152602001908152602001600020600081815054809291906118899061378a565b919050909055891415156118d2576040517f08c379a00000000000000000000000000000000000000000000000000000000081526004016118c9906137c9565b60405180910390fd5b874211151515611917576040517f08c379a000000000000000000000000000000000000000000000000000000000815260040161190e90613808565b60405180910390fd5b611927818b61265863ffffffff16565b5050505061193456505050505b505050505050565b606060405160200161194d906139f8565b6040516020818303038152906040529050611963565b90565b6000600360005060008473ffffffffffffffffffffffffffffffffffffffff1673ffffffffffffffffffffffffffffffffffffffff16815260200190815260200160002060005060008373ffffffffffffffffffffffffffffffffffffffff1673ffffffffffffffffffffffffffffffffffffffff1681526020019081526020016000206000505490506119f5565b92915050565b7fe48329057bfd03d55e49b547132e39cffd9c1820ad7b9d4c5307691425d15adf81565b6006600050602052816000526040600020600050602052806000526040600020600091509150508060000160009054906101000a900463ffffffff16908060000160049054906101000a90047bffffffffffffffffffffffffffffffffffffffffffffffffffffffff16905082565b600073ffffffffffffffffffffffffffffffffffffffff168373ffffffffffffffffffffffffffffffffffffffff1614151515611b00576040517f08c379a0000000000000000000000000000000000000000000000000000000008152600401611af79061401b565b60405180910390fd5b600073ffffffffffffffffffffffffffffffffffffffff168273ffffffffffffffffffffffffffffffffffffffff1614151515611b72576040517f08c379a0000000000000000000000000000000000000000000000000000000008152600401611b6990614080565b60405180910390fd5b611be0600460005060008573ffffffffffffffffffffffffffffffffffffffff1673ffffffffffffffffffffffffffffffffffffffff168152602001908152602001600020600050548260405180606001604052806026815260200161432060269139611e4463ffffffff16565b600460005060008573ffffffffffffffffffffffffffffffffffffffff1673ffffffffffffffffffffffffffffffffffffffff168152602001908152602001600020600050819090905550611cb9600460005060008473ffffffffffffffffffffffffffffffffffffffff1673ffffffffffffffffffffffffffffffffffffffff16815260200190815260200160002060005054826040518060400160405280602081526020017f45524332303a207472616e7366657220616d6f756e74206f766572666c6f7773815260200150611ea963ffffffff16565b600460005060008473ffffffffffffffffffffffffffffffffffffffff1673ffffffffffffffffffffffffffffffffffffffff1681526020019081526020016000206000508190909055508173ffffffffffffffffffffffffffffffffffffffff168373ffffffffffffffffffffffffffffffffffffffff167fddf252ad1be2c89b69c2b068fc378daa952ba7f163c4a11628f55a4df523b3ef83604051611d619190613106565b60405180910390a3611e3e600560005060008573ffffffffffffffffffffffffffffffffffffffff1673ffffffffffffffffffffffffffffffffffffffff16815260200190815260200160002060009054906101000a900473ffffffffffffffffffffffffffffffffffffffff16600560005060008573ffffffffffffffffffffffffffffffffffffffff1673ffffffffffffffffffffffffffffffffffffffff16815260200190815260200160002060009054906101000a900473ffffffffffffffffffffffffffffffffffffffff168361281363ffffffff16565b5b505050565b60008383111582901515611e8e576040517f08c379a0000000000000000000000000000000000000000000000000000000008152600401611e859190613018565b60405180910390fd5b508284611e9b91906140e5565b9050611ea2565b9392505050565b600060008385611eb99190614104565b90508481101583901515611f03576040517f08c379a0000000000000000000000000000000000000000000000000000000008152600401611efa9190613018565b60405180910390fd5b5080915050611f0e56505b9392505050565b600073ffffffffffffffffffffffffffffffffffffffff168373ffffffffffffffffffffffffffffffffffffffff1614151515611f87576040517f08c379a0000000000000000000000000000000000000000000000000000000008152600401611f7e90614124565b60405180910390fd5b600073ffffffffffffffffffffffffffffffffffffffff168273ffffffffffffffffffffffffffffffffffffffff1614151515611ff9576040517f08c379a0000000000000000000000000000000000000000000000000000000008152600401611ff09061337f565b60405180910390fd5b80600360005060008573ffffffffffffffffffffffffffffffffffffffff1673ffffffffffffffffffffffffffffffffffffffff16815260200190815260200160002060005060008473ffffffffffffffffffffffffffffffffffffffff1673ffffffffffffffffffffffffffffffffffffffff1681526020019081526020016000206000508190909055508173ffffffffffffffffffffffffffffffffffffffff168373ffffffffffffffffffffffffffffffffffffffff167f8c5be1e5ebec7d5bd14f71427d1e84f3dd0314c0f7b2291e5b200ac8c7c3b925836040516120e29190613106565b60405180910390a35b505050565b6001600a60005060008373ffffffffffffffffffffffffffffffffffffffff1673ffffffffffffffffffffffffffffffffffffffff16815260200190815260200160002060006101000a81548160ff0219169083151502179055508073ffffffffffffffffffffffffffffffffffffffff167fdc5a48d79e2e147530ff63ecdbed5a5a66adb9d5cf339384d5d076da197c40b560405160405180910390a25b50565b600073ffffffffffffffffffffffffffffffffffffffff168273ffffffffffffffffffffffffffffffffffffffff1614151515612204576040517f08c379a00000000000000000000000000000000000000000000000000000000081526004016121fb90614189565b60405180910390fd5b612272600460005060008473ffffffffffffffffffffffffffffffffffffffff1673ffffffffffffffffffffffffffffffffffffffff16815260200190815260200160002060005054826040518060600160405280602281526020016142dc60229139611e4463ffffffff16565b600460005060008473ffffffffffffffffffffffffffffffffffffffff1673ffffffffffffffffffffffffffffffffffffffff1681526020019081526020016000206000508190909055506122eb6002600050548260405180606001604052806027815260200161434660279139611e4463ffffffff16565b6002600050819090905550600073ffffffffffffffffffffffffffffffffffffffff168273ffffffffffffffffffffffffffffffffffffffff167fddf252ad1be2c89b69c2b068fc378daa952ba7f163c4a11628f55a4df523b3ef836040516123549190613106565b60405180910390a36123d0600560005060008473ffffffffffffffffffffffffffffffffffffffff1673ffffffffffffffffffffffffffffffffffffffff16815260200190815260200160002060009054906101000a900473ffffffffffffffffffffffffffffffffffffffff1660008361281363ffffffff16565b5b5050565b600073ffffffffffffffffffffffffffffffffffffffff168273ffffffffffffffffffffffffffffffffffffffff1614151515612447576040517f08c379a000000000000000000000000000000000000000000000000000000000815260040161243e906141ee565b60405180910390fd5b612495600260005054826040518060400160405280601881526020017f45524332303a206164646974696f6e206f766572666c6f770000000000000000815260200150611ea963ffffffff16565b600260005081909090555061252e600460005060008473ffffffffffffffffffffffffffffffffffffffff1673ffffffffffffffffffffffffffffffffffffffff16815260200190815260200160002060005054826040518060400160405280601881526020017f45524332303a206164646974696f6e206f766572666c6f770000000000000000815260200150611ea963ffffffff16565b600460005060008473ffffffffffffffffffffffffffffffffffffffff1673ffffffffffffffffffffffffffffffffffffffff1681526020019081526020016000206000508190909055508173ffffffffffffffffffffffffffffffffffffffff16600073ffffffffffffffffffffffffffffffffffffffff167fddf252ad1be2c89b69c2b068fc378daa952ba7f163c4a11628f55a4df523b3ef836040516125d79190613106565b60405180910390a36126536000600560005060008573ffffffffffffffffffffffffffffffffffffffff1673ffffffffffffffffffffffffffffffffffffffff16815260200190815260200160002060009054906101000a900473ffffffffffffffffffffffffffffffffffffffff168361281363ffffffff16565b5b5050565b6000600560005060008473ffffffffffffffffffffffffffffffffffffffff1673ffffffffffffffffffffffffffffffffffffffff16815260200190815260200160002060009054906101000a900473ffffffffffffffffffffffffffffffffffffffff1690506000600460005060008573ffffffffffffffffffffffffffffffffffffffff1673ffffffffffffffffffffffffffffffffffffffff16815260200190815260200160002060005054905082600560005060008673ffffffffffffffffffffffffffffffffffffffff1673ffffffffffffffffffffffffffffffffffffffff16815260200190815260200160002060006101000a81548173ffffffffffffffffffffffffffffffffffffffff021916908373ffffffffffffffffffffffffffffffffffffffff1602179055508273ffffffffffffffffffffffffffffffffffffffff168273ffffffffffffffffffffffffffffffffffffffff168573ffffffffffffffffffffffffffffffffffffffff167f3134e8a2e6d97e929a7e54011ea5485d7d196dd5f0ba4d4ef95803e8e3fc257f60405160405180910390a461280c82848361281363ffffffff16565b50505b5050565b8173ffffffffffffffffffffffffffffffffffffffff168373ffffffffffffffffffffffffffffffffffffffff161415801561284f5750600081115b15612b9f57600073ffffffffffffffffffffffffffffffffffffffff168373ffffffffffffffffffffffffffffffffffffffff161415156129f9576000600760005060008573ffffffffffffffffffffffffffffffffffffffff1673ffffffffffffffffffffffffffffffffffffffff16815260200190815260200160002060009054906101000a900463ffffffff169050600060008263ffffffff16116128f8576000612996565b600660005060008673ffffffffffffffffffffffffffffffffffffffff1673ffffffffffffffffffffffffffffffffffffffff168152602001908152602001600020600050600060018461294c91906134f8565b63ffffffff1663ffffffff16815260200190815260200160002060005060000160049054906101000a90047bffffffffffffffffffffffffffffffffffffffffffffffffffffffff165b7bffffffffffffffffffffffffffffffffffffffffffffffffffffffff16905060006129e182856040518060600160405280602281526020016143e760229139611e4463ffffffff16565b90506129f586848484612ba563ffffffff16565b5050505b600073ffffffffffffffffffffffffffffffffffffffff168273ffffffffffffffffffffffffffffffffffffffff16141515612b9e576000600760005060008473ffffffffffffffffffffffffffffffffffffffff1673ffffffffffffffffffffffffffffffffffffffff16815260200190815260200160002060009054906101000a900463ffffffff169050600060008263ffffffff1611612a9d576000612b3b565b600660005060008573ffffffffffffffffffffffffffffffffffffffff1673ffffffffffffffffffffffffffffffffffffffff1681526020019081526020016000206000506000600184612af191906134f8565b63ffffffff1663ffffffff16815260200190815260200160002060005060000160049054906101000a90047bffffffffffffffffffffffffffffffffffffffffffffffffffffffff165b7bffffffffffffffffffffffffffffffffffffffffffffffffffffffff1690506000612b86828560405180606001604052806021815260200161440960219139611ea963ffffffff16565b9050612b9a85848484612ba563ffffffff16565b5050505b5b5b505050565b6000612bcf436040518060600160405280602e81526020016143b9602e9139612f4763ffffffff16565b905060008463ffffffff16118015612c7657508063ffffffff16600660005060008773ffffffffffffffffffffffffffffffffffffffff1673ffffffffffffffffffffffffffffffffffffffff1681526020019081526020016000206000506000600187612c3d91906134f8565b63ffffffff1663ffffffff16815260200190815260200160002060005060000160009054906101000a900463ffffffff1663ffffffff16145b15612d5157612c8a82612fa463ffffffff16565b600660005060008773ffffffffffffffffffffffffffffffffffffffff1673ffffffffffffffffffffffffffffffffffffffff1681526020019081526020016000206000506000600187612cde91906134f8565b63ffffffff1663ffffffff16815260200190815260200160002060005060000160046101000a8154817bffffffffffffffffffffffffffffffffffffffffffffffffffffffff02191690837bffffffffffffffffffffffffffffffffffffffffffffffffffffffff160217905550612eef565b60405180604001604052808263ffffffff168152602001612d7784612fa463ffffffff16565b7bffffffffffffffffffffffffffffffffffffffffffffffffffffffff16815260200150600660005060008773ffffffffffffffffffffffffffffffffffffffff1673ffffffffffffffffffffffffffffffffffffffff16815260200190815260200160002060005060008663ffffffff1663ffffffff16815260200190815260200160002060005060008201518160000160006101000a81548163ffffffff021916908363ffffffff16021790555060208201518160000160046101000a8154817bffffffffffffffffffffffffffffffffffffffffffffffffffffffff02191690837bffffffffffffffffffffffffffffffffffffffffffffffffffffffff160217905550905050600184612e8e919061422d565b600760005060008773ffffffffffffffffffffffffffffffffffffffff1673ffffffffffffffffffffffffffffffffffffffff16815260200190815260200160002060006101000a81548163ffffffff021916908363ffffffff1602179055505b8473ffffffffffffffffffffffffffffffffffffffff167fdec2bacdd2f05b59de34da9b523dff8be42e5e38e818c82fdb0bae774387a7248484604051612f3792919061425c565b60405180910390a2505b50505050565b6000640100000000831082901515612f95576040517f08c379a0000000000000000000000000000000000000000000000000000000008152600401612f8c9190613018565b60405180910390fd5b50829050612f9e565b92915050565b60007c010000000000000000000000000000000000000000000000000000000082101515613007576040517f08c379a0000000000000000000000000000000000000000000000000000000008152600401612ffe90614275565b60405180910390fd5b81905061300f565b919050566142da565b600060208083528351808285015260005b8181101561304957828187010151604082870101525b8281019050613029565b8181111561305b576000604083870101525b5060407fffffffffffffffffffffffffffffffffffffffffffffffffffffffffffffffe0601f830116850101925050505b92915050565b60008135905073ffffffffffffffffffffffffffffffffffffffff8116811415156130bd5760006000fd5b5b919050565b60006000604083850312156130d85760006000fd5b6130e183613092565b9150602083013590505b9250929050565b600060208201905082151582525b92915050565b60006020820190508282525b92915050565b60006020820190508282525b92915050565b600060006000606084860312156131415760006000fd5b61314a84613092565b925061315860208501613092565b9150604084013590505b9250925092565b600060208201905060ff831682525b92915050565b6000602082840312156131915760006000fd5b61319a82613092565b90505b92915050565b6000602082840312156131b65760006000fd5b813590505b92915050565b600060208201905073ffffffffffffffffffffffffffffffffffffffff831682525b92915050565b600060208201905063ffffffff831682525b92915050565b60006000600060006000600060c0878903121561321e5760006000fd5b61322787613092565b95506020870135945060408701359350606087013560ff81168114151561324e5760006000fd5b809350506080870135915060a087013590505b9295509295509295565b60006000604083850312156132805760006000fd5b61328983613092565b915061329760208401613092565b90505b9250929050565b60006000604083850312156132b65760006000fd5b6132bf83613092565b9150602083013563ffffffff8116811415156132db5760006000fd5b809150505b9250929050565b600060408201905063ffffffff841682527bffffffffffffffffffffffffffffffffffffffffffffffffffffffff831660208301525b9392505050565b60008160011c90506001821680151561333e57607f821691505b60208210811415613378577f4e487b7100000000000000000000000000000000000000000000000000000000600052602260045260246000fd5b505b919050565b60208152602260208201527f45524332303a20617070726f766520746f20746865207a65726f20616464726560408201527f7373000000000000000000000000000000000000000000000000000000000000606082015260006080820190505b919050565b60208152600e60208201527f4e6f7420417574686f72697a6564000000000000000000000000000000000000604082015260006060820190505b919050565b60208152600660208201527f4c4f434b45440000000000000000000000000000000000000000000000000000604082015260006060820190505b919050565b60208152602160208201527f6765745072696f72566f7465733a206e6f74207965742064657465726d696e6560408201527f6400000000000000000000000000000000000000000000000000000000000000606082015260006080820190505b919050565b7f4e487b7100000000000000000000000000000000000000000000000000000000600052601160045260246000fd5b565b600063ffffffff808316818516915081811015613518576135176134c7565b5b818103925050505b92915050565b600063ffffffff808416801515613566577f4e487b7100000000000000000000000000000000000000000000000000000000600052601260045260246000fd5b8082851604925050505b92915050565b80600052506000602060002090505b90565b60006000835481600182811c91508083168015156135a757607f831692505b60208084108214156135e0577f4e487b710000000000000000000000000000000000000000000000000000000086526022600452602486fd5b81600081146135f6576001811461362557613657565b7fffffffffffffffffffffffffffffffffffffffffffffffffffffffffffffff00861689528489019650613657565b61362e8a613576565b60005b8681101561364f578154818c015285820191505b8381019050613631565b505084890196505b505050505050809150505b92915050565b600060808201905085825284602083015283604083015273ffffffffffffffffffffffffffffffffffffffff831660608301525b95945050505050565b600060808201905085825273ffffffffffffffffffffffffffffffffffffffff851660208301528360408301528260608301525b95945050505050565b7f1901000000000000000000000000000000000000000000000000000000000000815282600282015281602282015260006042820190505b9392505050565b600060808201905085825260ff851660208301528360408301528260608301525b95945050505050565b60208152602060208201527f64656c656761746542795369673a20696e76616c6964207369676e6174757265604082015260006060820190505b919050565b60007fffffffffffffffffffffffffffffffffffffffffffffffffffffffffffffffff8214156137bd576137bc6134c7565b5b6001820190505b919050565b60208152601c60208201527f64656c656761746542795369673a20696e76616c6964206e6f6e636500000000604082015260006060820190505b919050565b60208152602060208201527f64656c656761746542795369673a207369676e61747572652065787069726564604082015260006060820190505b919050565b7f3c7061746820643d224d3536322e36312035372e35373939433536322e36312081527f35392e37333138203536332e3033342036312e38363236203536332e3835382060208201527f36332e38353036433536342e3638312036352e38333836203536352e3838392060408201527f36372e36343437203536372e3431312036392e31363539433536382e3933332060608201527f37302e363837203537302e37342037312e38393334203537322e37323820373260808201527f2e373136433537342e3731372037332e35333835203537362e3834382037332e60a08201527f39363133203537392037332e393539395634312e31383939433537342e36353760c08201527f2034312e32303331203537302e3439362034322e39333432203536372e34323560e08201527f2034362e303035433536342e3335342034392e30373539203536322e363233206101008201527f35332e32333731203536322e36312035372e353739395a222066696c6c3d22626101208201527f6c61636b222f3e000000000000000000000000000000000000000000000000006101408201526000610147820190505b919050565b7f3c7061746820643d224d3630342035372e39433630342034342e30393239203581527f39322e3830372033322e39203537392033322e39433536352e3139332033322e60208201527f39203535342034342e30393239203535342035372e39433535342037312e373060408201527f3731203536352e3139332038322e39203537392038322e39433539322e38303760608201527f2038322e39203630342037312e37303731203630342035372e395a222066696c60808201527f6c3d227768697465222f3e00000000000000000000000000000000000000000060a08201527f3c7061746820643d224d3537392e31322034312e3139433538322e333632203460ab8201527f312e313838203538352e3533322034322e31343736203538382e32323820343360cb8201527f2e39343733433539302e3932352034352e37343731203539332e30323720343860eb8201527f2e33303632203539342e3236392035312e33303039433539352e35313120353461010b8201527f2e32393536203539352e3833372035372e35393134203539352e32303620363061012b8201527f2e37373134433539342e3537352036332e39353134203539332e30313520363661014b8201527f2e38373238203539302e3732332036392e31363539433538382e34333120373161016b8201527f2e34353931203538352e3531312037332e30323131203538322e33333120373361018b8201527f2e36353433433537392e3135312037342e32383736203537352e3835352037336101ab8201527f2e39363336203537322e38362037322e37323333433536392e3836352037312e6101cb8201527f34383331203536372e3330342036392e33383234203536352e3530332036362e6101eb8201527f36383638433536332e3730312036332e39393133203536322e37342036302e3861020b8201527f323231203536322e37342035372e3538433536322e37342035332e323334382061022b8201527f3536342e3436352034392e30363735203536372e3533372034352e393934314361024b8201527f3537302e3630382034322e39323036203537342e3737352034312e313932362061026b8201527f3537392e31322034312e31395a4d3537392e31322033382e3632433537352e3361028b8201527f36322033382e3632203537312e3638392033392e37333433203536382e3536346102ab8201527f2034312e38323231433536352e34342034332e39303938203536332e303034206102cb8201527f34362e38373732203536312e3536362035302e333439433536302e31323820356102eb8201527f332e38323038203535392e3735322035372e36343131203536302e343835203661030b8201527f312e33323637433536312e3231382036352e30313233203536332e303238203661032b8201527f382e33393738203536352e3638352037312e303535433536382e33343220373361034b8201527f2e37313232203537312e3732382037352e35323138203537352e34313320373661036b8201527f2e32353439433537392e3039392037362e393838203538322e3931392037362e61038b8201527f36313138203538362e3339312037352e31373337433538392e3836332037332e6103ab8201527f37333536203539322e38332037312e33303034203539342e3931382036382e316103cb8201527f373538433539372e3030362036352e30353133203539382e31322036312e33376103eb8201527f3738203539382e31322035372e3632433539382e31322035352e31323439203561040b8201527f39372e3632382035322e36353432203539362e3637342035302e33343943353961042b8201527f352e3731392034382e30343338203539342e3331392034352e3934393320353961044b8201527f322e3535352034342e313835433539302e3739312034322e343230372035383861046b8201527f2e3639362034312e30323131203538362e3339312034302e303636334335383461048b8201527f2e3038362033392e31313134203538312e3631352033382e3632203537392e316104ab8201527f322033382e36325a222066696c6c3d22626c61636b222f3e00000000000000006104cb82015260006140136104e38301613847565b90505b919050565b60208152602560208201527f45524332303a207472616e736665722066726f6d20746865207a65726f20616460408201527f6472657373000000000000000000000000000000000000000000000000000000606082015260006080820190505b919050565b60208152602360208201527f45524332303a207472616e7366657220746f20746865207a65726f206164647260408201527f6573730000000000000000000000000000000000000000000000000000000000606082015260006080820190505b919050565b6000828210156140f8576140f76134c7565b5b82820390505b92915050565b60008219821115614118576141176134c7565b5b82820190505b92915050565b60208152602460208201527f45524332303a20617070726f76652066726f6d20746865207a65726f2061646460408201527f7265737300000000000000000000000000000000000000000000000000000000606082015260006080820190505b919050565b60208152602160208201527f45524332303a206275726e2066726f6d20746865207a65726f2061646472657360408201527f7300000000000000000000000000000000000000000000000000000000000000606082015260006080820190505b919050565b60208152601f60208201527f45524332303a206d696e7420746f20746865207a65726f206164647265737300604082015260006060820190505b919050565b600063ffffffff80831681851680830382111561424d5761424c6134c7565b5b80820193505050505b92915050565b60006040820190508382528260208301525b9392505050565b60208152602760208201527f53616665436173743a2076616c756520646f65736e27742066697420696e203260408201527f3234206269747300000000000000000000000000000000000000000000000000606082015260006080820190505b919050565bfe45524332303a206275726e20616d6f756e7420657863656564732062616c616e636545524332303a20696e63726561736520616c6c6f77616e6365206f766572666c6f7745524332303a207472616e7366657220616d6f756e7420657863656564732062616c616e636545524332303a206275726e20616d6f756e74206578636565647320746f74616c20737570706c7945524332303a207472616e7366657220616d6f756e74206578636565647320616c6c6f77616e636545524332303a206275726e20616d6f756e74206578636565647320616c6c6f77616e63655f7772697465436865636b706f696e743a20626c6f636b206e756d626572206578636565647320333220626974735f6d6f7665566f7465733a20766f746520616d6f756e7420756e646572666c6f77735f6d6f7665566f7465733a20766f746520616d6f756e74206f766572666c6f777345524332303a2064656372656173656420616c6c6f77616e63652062656c6f77207a65726fa26469706673582212206e6975db3efc88476d3c93b87efc1bf858f9c98647cb75c799bba1160cf590b764736f6c634300080c0033",
  "linkReferences": {},
  "deployedLinkReferences": {}
}