{
  "_format": "hh-sol-artifact-1",
  "contractName": "RewardsTestable",
  "sourceName": "contracts/core/mocks/RewardsTestable.sol",
  "abi": [
    {
      "inputs": [
        {
          "components": [
            {
              "internalType": "contract IGovernor",
              "name": "Governor",
              "type": "address"
            },
            {
              "internalType": "contract IProtocolLock",
              "name": "ProtocolLock",
              "type": "address"
            },
            {
              "internalType": "contract IAccounting",
              "name": "Accounting",
              "type": "address"
            },
            {
              "internalType": "address",
              "name": "Weth",
              "type": "address"
            },
            {
              "internalType": "contract INonfungiblePositionManager",
              "name": "NftPositionManager",
              "type": "address"
            },
            {
              "internalType": "contract IUniswapV3Factory",
              "name": "UniswapV3Factory",
              "type": "address"
            }
          ],
          "internalType": "struct IRewards.ConstructorParams",
          "name": "params",
          "type": "tuple"
        }
      ],
      "stateMutability": "nonpayable",
      "type": "constructor"
    },
    {
      "anonymous": false,
      "inputs": [
        {
          "indexed": false,
          "internalType": "uint64",
          "name": "penalty",
          "type": "uint64"
        }
      ],
      "name": "LiquidationPenaltyUpdated",
      "type": "event"
    },
    {
      "anonymous": false,
      "inputs": [
        {
          "indexed": true,
          "internalType": "address",
          "name": "owner",
          "type": "address"
        },
        {
          "indexed": true,
          "internalType": "uint16",
          "name": "poolID",
          "type": "uint16"
        },
        {
          "indexed": true,
          "internalType": "uint256",
          "name": "nftID",
          "type": "uint256"
        },
        {
          "indexed": false,
          "internalType": "int24",
          "name": "tickLower",
          "type": "int24"
        },
        {
          "indexed": false,
          "internalType": "int24",
          "name": "tickUpper",
          "type": "int24"
        },
        {
          "indexed": false,
          "internalType": "uint128",
          "name": "liquidity",
          "type": "uint128"
        }
      ],
      "name": "LiquidityPositionCreated",
      "type": "event"
    },
    {
      "anonymous": false,
      "inputs": [
        {
          "indexed": true,
          "internalType": "uint256",
          "name": "nftID",
          "type": "uint256"
        },
        {
          "indexed": false,
          "internalType": "uint256",
          "name": "amount0",
          "type": "uint256"
        },
        {
          "indexed": false,
          "internalType": "uint256",
          "name": "amount1",
          "type": "uint256"
        }
      ],
      "name": "LiquidityPositionDecreased",
      "type": "event"
    },
    {
      "anonymous": false,
      "inputs": [
        {
          "indexed": true,
          "internalType": "uint256",
          "name": "nftID",
          "type": "uint256"
        },
        {
          "indexed": false,
          "internalType": "uint128",
          "name": "liquidity",
          "type": "uint128"
        }
      ],
      "name": "LiquidityPositionIncreased",
      "type": "event"
    },
    {
      "anonymous": false,
      "inputs": [
        {
          "indexed": true,
          "internalType": "uint256",
          "name": "nftID",
          "type": "uint256"
        },
        {
          "indexed": true,
          "internalType": "address",
          "name": "liquidator",
          "type": "address"
        }
      ],
      "name": "LiquidityPositionLiquidated",
      "type": "event"
    },
    {
      "anonymous": false,
      "inputs": [
        {
          "indexed": true,
          "internalType": "uint256",
          "name": "nftID",
          "type": "uint256"
        },
        {
          "indexed": false,
          "internalType": "uint256",
          "name": "amount0",
          "type": "uint256"
        },
        {
          "indexed": false,
          "internalType": "uint256",
          "name": "amount1",
          "type": "uint256"
        }
      ],
      "name": "LiquidityPositionRemoved",
      "type": "event"
    },
    {
      "anonymous": false,
      "inputs": [
        {
          "indexed": false,
          "internalType": "uint64",
          "name": "decreasePortion",
          "type": "uint64"
        }
      ],
      "name": "MaxCollateralLiquidityDecreasePerPeriodUpdated",
      "type": "event"
    },
    {
      "anonymous": false,
      "inputs": [
        {
          "indexed": false,
          "internalType": "uint128",
          "name": "min",
          "type": "uint128"
        }
      ],
      "name": "MinHueCountPerPositionUpdated",
      "type": "event"
    },
    {
      "anonymous": false,
      "inputs": [
        {
          "indexed": true,
          "internalType": "address",
          "name": "pool",
          "type": "address"
        },
        {
          "indexed": true,
          "internalType": "uint16",
          "name": "poolID",
          "type": "uint16"
        },
        {
          "indexed": false,
          "internalType": "uint64",
          "name": "rewardsPortion",
          "type": "uint64"
        }
      ],
      "name": "PoolAdded",
      "type": "event"
    },
    {
      "anonymous": false,
      "inputs": [
        {
          "indexed": true,
          "internalType": "uint16",
          "name": "poolID",
          "type": "uint16"
        },
        {
          "indexed": false,
          "internalType": "uint64",
          "name": "incentive",
          "type": "uint64"
        }
      ],
      "name": "PoolIncentiveUpdated",
      "type": "event"
    },
    {
      "anonymous": false,
      "inputs": [
        {
          "indexed": false,
          "internalType": "uint256",
          "name": "count",
          "type": "uint256"
        },
        {
          "indexed": false,
          "internalType": "uint64",
          "name": "periods",
          "type": "uint64"
        }
      ],
      "name": "RewardsAccrued",
      "type": "event"
    },
    {
      "anonymous": false,
      "inputs": [
        {
          "indexed": true,
          "internalType": "address",
          "name": "caller",
          "type": "address"
        },
        {
          "indexed": true,
          "internalType": "uint256",
          "name": "nftTokenID",
          "type": "uint256"
        },
        {
          "indexed": false,
          "internalType": "uint256",
          "name": "amount0",
          "type": "uint256"
        },
        {
          "indexed": false,
          "internalType": "uint256",
          "name": "amount1",
          "type": "uint256"
        }
      ],
      "name": "RewardsClaimed",
      "type": "event"
    },
    {
      "anonymous": false,
      "inputs": [
        {
          "indexed": true,
          "internalType": "address",
          "name": "account",
          "type": "address"
        },
        {
          "indexed": true,
          "internalType": "bool",
          "name": "isKickback",
          "type": "bool"
        },
        {
          "indexed": false,
          "internalType": "uint256",
          "name": "tcpRewards",
          "type": "uint256"
        }
      ],
      "name": "RewardsDistributed",
      "type": "event"
    },
    {
      "anonymous": false,
      "inputs": [],
      "name": "Stopped",
      "type": "event"
    },
    {
      "anonymous": false,
      "inputs": [
        {
          "indexed": false,
          "internalType": "uint64",
          "name": "duration",
          "type": "uint64"
        }
      ],
      "name": "TwapDurationUpdated",
      "type": "event"
    },
    {
      "inputs": [],
      "name": "accounting",
      "outputs": [
        {
          "internalType": "contract IAccounting",
          "name": "",
          "type": "address"
        }
      ],
      "stateMutability": "view",
      "type": "function"
    },
    {
      "inputs": [],
      "name": "accrueRewards",
      "outputs": [],
      "stateMutability": "nonpayable",
      "type": "function"
    },
    {
      "inputs": [
        {
          "internalType": "contract IUniswapV3Pool",
          "name": "pool",
          "type": "address"
        },
        {
          "internalType": "uint64",
          "name": "rewardsPortion",
          "type": "uint64"
        }
      ],
      "name": "addIncentivePool",
      "outputs": [],
      "stateMutability": "nonpayable",
      "type": "function"
    },
    {
      "inputs": [
        {
          "components": [
            {
              "internalType": "address",
              "name": "owner",
              "type": "address"
            },
            {
              "internalType": "uint16",
              "name": "poolID",
              "type": "uint16"
            },
            {
              "internalType": "uint256",
              "name": "cumulativeLiquidity",
              "type": "uint256"
            },
            {
              "internalType": "uint256",
              "name": "totalRewards",
              "type": "uint256"
            },
            {
              "internalType": "uint256",
              "name": "lastBlockPositionIncreased",
              "type": "uint256"
            },
            {
              "internalType": "uint128",
              "name": "liquidity",
              "type": "uint128"
            },
            {
              "internalType": "uint64",
              "name": "lastTimeRewarded",
              "type": "uint64"
            },
            {
              "internalType": "int24",
              "name": "tickLower",
              "type": "int24"
            },
            {
              "internalType": "int24",
              "name": "tickUpper",
              "type": "int24"
            },
            {
              "internalType": "uint32",
              "name": "ui",
              "type": "uint32"
            },
            {
              "internalType": "address",
              "name": "kickbackDestination",
              "type": "address"
            },
            {
              "internalType": "uint64",
              "name": "kickbackPortion",
              "type": "uint64"
            }
          ],
          "internalType": "struct IAccounting.PoolPosition",
          "name": "_pt",
          "type": "tuple"
        },
        {
          "components": [
            {
              "internalType": "uint256",
              "name": "totalRewards",
              "type": "uint256"
            },
            {
              "internalType": "uint256",
              "name": "cumulativeLiquidity",
              "type": "uint256"
            }
          ],
          "internalType": "struct IAccounting.RewardStatus",
          "name": "rs",
          "type": "tuple"
        },
        {
          "internalType": "uint64",
          "name": "timeNow",
          "type": "uint64"
        }
      ],
      "name": "calculateUpdatedLiquidityPosition",
      "outputs": [
        {
          "components": [
            {
              "internalType": "address",
              "name": "owner",
              "type": "address"
            },
            {
              "internalType": "uint16",
              "name": "poolID",
              "type": "uint16"
            },
            {
              "internalType": "uint256",
              "name": "cumulativeLiquidity",
              "type": "uint256"
            },
            {
              "internalType": "uint256",
              "name": "totalRewards",
              "type": "uint256"
            },
            {
              "internalType": "uint256",
              "name": "lastBlockPositionIncreased",
              "type": "uint256"
            },
            {
              "internalType": "uint128",
              "name": "liquidity",
              "type": "uint128"
            },
            {
              "internalType": "uint64",
              "name": "lastTimeRewarded",
              "type": "uint64"
            },
            {
              "internalType": "int24",
              "name": "tickLower",
              "type": "int24"
            },
            {
              "internalType": "int24",
              "name": "tickUpper",
              "type": "int24"
            },
            {
              "internalType": "uint32",
              "name": "ui",
              "type": "uint32"
            },
            {
              "internalType": "address",
              "name": "kickbackDestination",
              "type": "address"
            },
            {
              "internalType": "uint64",
              "name": "kickbackPortion",
              "type": "uint64"
            }
          ],
          "internalType": "struct IAccounting.PoolPosition",
          "name": "pt",
          "type": "tuple"
        },
        {
          "internalType": "uint256",
          "name": "rewards",
          "type": "uint256"
        }
      ],
      "stateMutability": "pure",
      "type": "function"
    },
    {
      "inputs": [
        {
          "internalType": "uint256[]",
          "name": "nftTokenIDs",
          "type": "uint256[]"
        },
        {
          "internalType": "uint32",
          "name": "ui",
          "type": "uint32"
        }
      ],
      "name": "claimAllRewards",
      "outputs": [
        {
          "internalType": "uint256",
          "name": "totalAmount0",
          "type": "uint256"
        },
        {
          "internalType": "uint256",
          "name": "totalAmount1",
          "type": "uint256"
        }
      ],
      "stateMutability": "nonpayable",
      "type": "function"
    },
    {
      "inputs": [],
      "name": "countPools",
      "outputs": [
        {
          "internalType": "uint16",
          "name": "",
          "type": "uint16"
        }
      ],
      "stateMutability": "view",
      "type": "function"
    },
    {
      "inputs": [
        {
          "components": [
            {
              "internalType": "address",
              "name": "token0",
              "type": "address"
            },
            {
              "internalType": "address",
              "name": "token1",
              "type": "address"
            },
            {
              "internalType": "uint24",
              "name": "fee",
              "type": "uint24"
            },
            {
              "internalType": "int24",
              "name": "tickLower",
              "type": "int24"
            },
            {
              "internalType": "int24",
              "name": "tickUpper",
              "type": "int24"
            },
            {
              "internalType": "uint256",
              "name": "amount0Desired",
              "type": "uint256"
            },
            {
              "internalType": "uint256",
              "name": "amount1Desired",
              "type": "uint256"
            },
            {
              "internalType": "uint256",
              "name": "amount0Min",
              "type": "uint256"
            },
            {
              "internalType": "uint256",
              "name": "amount1Min",
              "type": "uint256"
            },
            {
              "internalType": "address",
              "name": "recipient",
              "type": "address"
            },
            {
              "internalType": "uint256",
              "name": "deadline",
              "type": "uint256"
            }
          ],
          "internalType": "struct INonfungiblePositionManager.MintParams",
          "name": "params",
          "type": "tuple"
        },
        {
          "internalType": "uint32",
          "name": "ui",
          "type": "uint32"
        }
      ],
      "name": "createLiquidityPosition",
      "outputs": [
        {
          "internalType": "uint256",
          "name": "nftTokenID",
          "type": "uint256"
        },
        {
          "internalType": "uint128",
          "name": "liquidity",
          "type": "uint128"
        }
      ],
      "stateMutability": "payable",
      "type": "function"
    },
    {
      "inputs": [],
      "name": "currentPeriod",
      "outputs": [
        {
          "internalType": "uint64",
          "name": "period",
          "type": "uint64"
        }
      ],
      "stateMutability": "view",
      "type": "function"
    },
    {
      "inputs": [
        {
          "components": [
            {
              "internalType": "uint256",
              "name": "tokenId",
              "type": "uint256"
            },
            {
              "internalType": "uint128",
              "name": "liquidity",
              "type": "uint128"
            },
            {
              "internalType": "uint256",
              "name": "amount0Min",
              "type": "uint256"
            },
            {
              "internalType": "uint256",
              "name": "amount1Min",
              "type": "uint256"
            },
            {
              "internalType": "uint256",
              "name": "deadline",
              "type": "uint256"
            }
          ],
          "internalType": "struct INonfungiblePositionManager.DecreaseLiquidityParams",
          "name": "params",
          "type": "tuple"
        },
        {
          "internalType": "uint32",
          "name": "ui",
          "type": "uint32"
        }
      ],
      "name": "decreaseLiquidityPosition",
      "outputs": [
        {
          "internalType": "uint256",
          "name": "amount0",
          "type": "uint256"
        },
        {
          "internalType": "uint256",
          "name": "amount1",
          "type": "uint256"
        }
      ],
      "stateMutability": "nonpayable",
      "type": "function"
    },
    {
      "inputs": [],
      "name": "deployer",
      "outputs": [
        {
          "internalType": "address",
          "name": "",
          "type": "address"
        }
      ],
      "stateMutability": "view",
      "type": "function"
    },
    {
      "inputs": [],
      "name": "firstPeriod",
      "outputs": [
        {
          "internalType": "uint64",
          "name": "",
          "type": "uint64"
        }
      ],
      "stateMutability": "view",
      "type": "function"
    },
    {
      "inputs": [
        {
          "internalType": "uint16",
          "name": "poolID",
          "type": "uint16"
        }
      ],
      "name": "getPoolConfigForPoolID",
      "outputs": [
        {
          "components": [
            {
              "internalType": "contract IUniswapV3Pool",
              "name": "pool",
              "type": "address"
            },
            {
              "internalType": "uint64",
              "name": "rewardsPortion",
              "type": "uint64"
            }
          ],
          "internalType": "struct IRewards.PoolConfig",
          "name": "poolConfig",
          "type": "tuple"
        }
      ],
      "stateMutability": "view",
      "type": "function"
    },
    {
      "inputs": [],
      "name": "governor",
      "outputs": [
        {
          "internalType": "contract IGovernor",
          "name": "",
          "type": "address"
        }
      ],
      "stateMutability": "view",
      "type": "function"
    },
    {
      "inputs": [
        {
          "components": [
            {
              "internalType": "uint256",
              "name": "tokenId",
              "type": "uint256"
            },
            {
              "internalType": "uint256",
              "name": "amount0Desired",
              "type": "uint256"
            },
            {
              "internalType": "uint256",
              "name": "amount1Desired",
              "type": "uint256"
            },
            {
              "internalType": "uint256",
              "name": "amount0Min",
              "type": "uint256"
            },
            {
              "internalType": "uint256",
              "name": "amount1Min",
              "type": "uint256"
            },
            {
              "internalType": "uint256",
              "name": "deadline",
              "type": "uint256"
            }
          ],
          "internalType": "struct INonfungiblePositionManager.IncreaseLiquidityParams",
          "name": "params",
          "type": "tuple"
        },
        {
          "internalType": "uint32",
          "name": "ui",
          "type": "uint32"
        }
      ],
      "name": "increaseLiquidityPosition",
      "outputs": [
        {
          "internalType": "uint128",
          "name": "liquidity",
          "type": "uint128"
        }
      ],
      "stateMutability": "payable",
      "type": "function"
    },
    {
      "inputs": [
        {
          "internalType": "contract IUniswapV3Pool",
          "name": "_collateralPool",
          "type": "address"
        },
        {
          "internalType": "contract IUniswapV3Pool",
          "name": "_protocolPool",
          "type": "address"
        }
      ],
      "name": "init",
      "outputs": [],
      "stateMutability": "nonpayable",
      "type": "function"
    },
    {
      "inputs": [
        {
          "components": [
            {
              "internalType": "address",
              "name": "owner",
              "type": "address"
            },
            {
              "internalType": "uint16",
              "name": "poolID",
              "type": "uint16"
            },
            {
              "internalType": "uint256",
              "name": "cumulativeLiquidity",
              "type": "uint256"
            },
            {
              "internalType": "uint256",
              "name": "totalRewards",
              "type": "uint256"
            },
            {
              "internalType": "uint256",
              "name": "lastBlockPositionIncreased",
              "type": "uint256"
            },
            {
              "internalType": "uint128",
              "name": "liquidity",
              "type": "uint128"
            },
            {
              "internalType": "uint64",
              "name": "lastTimeRewarded",
              "type": "uint64"
            },
            {
              "internalType": "int24",
              "name": "tickLower",
              "type": "int24"
            },
            {
              "internalType": "int24",
              "name": "tickUpper",
              "type": "int24"
            },
            {
              "internalType": "uint32",
              "name": "ui",
              "type": "uint32"
            },
            {
              "internalType": "address",
              "name": "kickbackDestination",
              "type": "address"
            },
            {
              "internalType": "uint64",
              "name": "kickbackPortion",
              "type": "uint64"
            }
          ],
          "internalType": "struct IAccounting.PoolPosition",
          "name": "position",
          "type": "tuple"
        },
        {
          "internalType": "int24",
          "name": "tick",
          "type": "int24"
        }
      ],
      "name": "isLiquidityInRange",
      "outputs": [
        {
          "internalType": "bool",
          "name": "",
          "type": "bool"
        }
      ],
      "stateMutability": "pure",
      "type": "function"
    },
    {
      "inputs": [],
      "name": "lastPeriodGlobalRewardsAccrued",
      "outputs": [
        {
          "internalType": "uint64",
          "name": "",
          "type": "uint64"
        }
      ],
      "stateMutability": "view",
      "type": "function"
    },
    {
      "inputs": [
        {
          "internalType": "contract IUniswapV3Pool",
          "name": "pool",
          "type": "address"
        },
        {
          "internalType": "uint256[]",
          "name": "nftTokenIDs",
          "type": "uint256[]"
        }
      ],
      "name": "liquidateOutofRangePositions",
      "outputs": [],
      "stateMutability": "nonpayable",
      "type": "function"
    },
    {
      "inputs": [],
      "name": "liquidationPenalty",
      "outputs": [
        {
          "internalType": "uint64",
          "name": "",
          "type": "uint64"
        }
      ],
      "stateMutability": "view",
      "type": "function"
    },
    {
      "inputs": [],
      "name": "maxCollateralLiquidityDecreasePerPeriod",
      "outputs": [
        {
          "internalType": "uint64",
          "name": "",
          "type": "uint64"
        }
      ],
      "stateMutability": "view",
      "type": "function"
    },
    {
      "inputs": [
        {
          "internalType": "contract IUniswapV3Pool",
          "name": "",
          "type": "address"
        }
      ],
      "name": "minCollateralLiquidityByPeriod",
      "outputs": [
        {
          "internalType": "uint64",
          "name": "period",
          "type": "uint64"
        },
        {
          "internalType": "uint192",
          "name": "minLiquidity",
          "type": "uint192"
        }
      ],
      "stateMutability": "view",
      "type": "function"
    },
    {
      "inputs": [],
      "name": "minHueCountPerPosition",
      "outputs": [
        {
          "internalType": "uint128",
          "name": "",
          "type": "uint128"
        }
      ],
      "stateMutability": "view",
      "type": "function"
    },
    {
      "inputs": [],
      "name": "nftPositionManager",
      "outputs": [
        {
          "internalType": "contract INonfungiblePositionManager",
          "name": "",
          "type": "address"
        }
      ],
      "stateMutability": "view",
      "type": "function"
    },
    {
      "inputs": [],
      "name": "periodLength",
      "outputs": [
        {
          "internalType": "uint64",
          "name": "",
          "type": "uint64"
        }
      ],
      "stateMutability": "view",
      "type": "function"
    },
    {
      "inputs": [
        {
          "internalType": "contract IUniswapV3Pool",
          "name": "",
          "type": "address"
        }
      ],
      "name": "poolIDForPool",
      "outputs": [
        {
          "internalType": "uint16",
          "name": "",
          "type": "uint16"
        }
      ],
      "stateMutability": "view",
      "type": "function"
    },
    {
      "inputs": [
        {
          "internalType": "uint256",
          "name": "nftTokenID",
          "type": "uint256"
        }
      ],
      "name": "removeKickback",
      "outputs": [],
      "stateMutability": "nonpayable",
      "type": "function"
    },
    {
      "inputs": [
        {
          "components": [
            {
              "internalType": "uint256",
              "name": "tokenId",
              "type": "uint256"
            },
            {
              "internalType": "uint128",
              "name": "liquidity",
              "type": "uint128"
            },
            {
              "internalType": "uint256",
              "name": "amount0Min",
              "type": "uint256"
            },
            {
              "internalType": "uint256",
              "name": "amount1Min",
              "type": "uint256"
            },
            {
              "internalType": "uint256",
              "name": "deadline",
              "type": "uint256"
            }
          ],
          "internalType": "struct INonfungiblePositionManager.DecreaseLiquidityParams",
          "name": "params",
          "type": "tuple"
        }
      ],
      "name": "removeLiquidityPosition",
      "outputs": [
        {
          "internalType": "uint256",
          "name": "amount0",
          "type": "uint256"
        },
        {
          "internalType": "uint256",
          "name": "amount1",
          "type": "uint256"
        }
      ],
      "stateMutability": "nonpayable",
      "type": "function"
    },
    {
      "inputs": [
        {
          "internalType": "bool",
          "name": "authorized",
          "type": "bool"
        }
      ],
      "name": "requireAuthorized",
      "outputs": [],
      "stateMutability": "pure",
      "type": "function"
    },
    {
      "inputs": [
        {
          "internalType": "uint64",
          "name": "penalty",
          "type": "uint64"
        }
      ],
      "name": "setLiquidationPenalty",
      "outputs": [],
      "stateMutability": "nonpayable",
      "type": "function"
    },
    {
      "inputs": [
        {
          "internalType": "uint64",
          "name": "decreasePortion",
          "type": "uint64"
        }
      ],
      "name": "setMaxCollateralLiquidityDecreasePerPeriod",
      "outputs": [],
      "stateMutability": "nonpayable",
      "type": "function"
    },
    {
      "inputs": [
        {
          "internalType": "uint128",
          "name": "min",
          "type": "uint128"
        }
      ],
      "name": "setMinHueCountPerPosition",
      "outputs": [],
      "stateMutability": "nonpayable",
      "type": "function"
    },
    {
      "inputs": [
        {
          "internalType": "uint32",
          "name": "duration",
          "type": "uint32"
        }
      ],
      "name": "setTwapDuration",
      "outputs": [],
      "stateMutability": "nonpayable",
      "type": "function"
    },
    {
      "inputs": [],
      "name": "stop",
      "outputs": [],
      "stateMutability": "nonpayable",
      "type": "function"
    },
    {
      "inputs": [],
      "name": "stopped",
      "outputs": [
        {
          "internalType": "bool",
          "name": "",
          "type": "bool"
        }
      ],
      "stateMutability": "view",
      "type": "function"
    },
    {
      "inputs": [],
      "name": "twapDuration",
      "outputs": [
        {
          "internalType": "uint32",
          "name": "",
          "type": "uint32"
        }
      ],
      "stateMutability": "view",
      "type": "function"
    },
    {
      "inputs": [],
      "name": "uniswapV3Factory",
      "outputs": [
        {
          "internalType": "contract IUniswapV3Factory",
          "name": "",
          "type": "address"
        }
      ],
      "stateMutability": "view",
      "type": "function"
    },
    {
      "inputs": [
        {
          "internalType": "uint16",
          "name": "poolID",
          "type": "uint16"
        },
        {
          "internalType": "uint64",
          "name": "incentive",
          "type": "uint64"
        }
      ],
      "name": "updatePoolIncentive",
      "outputs": [],
      "stateMutability": "nonpayable",
      "type": "function"
    },
    {
      "inputs": [
        {
          "internalType": "bytes4",
          "name": "",
          "type": "bytes4"
        }
      ],
      "name": "validUpdate",
      "outputs": [
        {
          "internalType": "bool",
          "name": "",
          "type": "bool"
        }
      ],
      "stateMutability": "view",
      "type": "function"
    },
    {
      "inputs": [],
      "name": "weth",
      "outputs": [
        {
          "internalType": "address",
          "name": "",
          "type": "address"
        }
      ],
      "stateMutability": "view",
      "type": "function"
    },
    {
      "stateMutability": "payable",
      "type": "receive"
    }
  ],
  "bytecode": "0x6101806040526001600260005090905567016345785d8a0000600360006101000a81548167ffffffffffffffff021916908367ffffffffffffffff16021790555066d529ae9e860000600360086101000a81548167ffffffffffffffff021916908367ffffffffffffffff16021790555068056bc75e2d63100000600360106101000a8154816fffffffffffffffffffffffffffffffff02191690836fffffffffffffffffffffffffffffffff160217905550610708600460006101000a81548163ffffffff021916908363ffffffff1602179055506000600460046101000a81548161ffff021916908361ffff160217905550348015620001015760006000fd5b5060405162008599380380620085998339818101604052810190620001279190620006c2565b5b805b6138405b816000015182602001515b815b8073ffffffffffffffffffffffffffffffffffffffff1660808173ffffffffffffffffffffffffffffffffffffffff1660601b815260140150505b508073ffffffffffffffffffffffffffffffffffffffff1660a08173ffffffffffffffffffffffffffffffffffffffff1660601b815260140150505b5050600181620001c76200061660201b60201c565b620001d39190620007be565b620001df9190620007f7565b67ffffffffffffffff1660e08167ffffffffffffffff1660c01b815260080150508067ffffffffffffffff1660c08167ffffffffffffffff1660c01b815260080150505b50806040015173ffffffffffffffffffffffffffffffffffffffff166101608173ffffffffffffffffffffffffffffffffffffffff1660601b81526014015050806060015173ffffffffffffffffffffffffffffffffffffffff166101008173ffffffffffffffffffffffffffffffffffffffff1660601b81526014015050806080015173ffffffffffffffffffffffffffffffffffffffff166101208173ffffffffffffffffffffffffffffffffffffffff1660601b815260140150508060a0015173ffffffffffffffffffffffffffffffffffffffff166101408173ffffffffffffffffffffffffffffffffffffffff1660601b8152601401505060006040518060c00160405280636161189060e01b7bffffffffffffffffffffffffffffffffffffffffffffffffffffffff19167bffffffffffffffffffffffffffffffffffffffffffffffffffffffff191681526020016328d10de860e01b7bffffffffffffffffffffffffffffffffffffffffffffffffffffffff19167bffffffffffffffffffffffffffffffffffffffffffffffffffffffff1916815260200163c7bd867c60e01b7bffffffffffffffffffffffffffffffffffffffffffffffffffffffff19167bffffffffffffffffffffffffffffffffffffffffffffffffffffffff1916815260200163de8925f560e01b7bffffffffffffffffffffffffffffffffffffffffffffffffffffffff19167bffffffffffffffffffffffffffffffffffffffffffffffffffffffff1916815260200163c433c80a60e01b7bffffffffffffffffffffffffffffffffffffffffffffffffffffffff19167bffffffffffffffffffffffffffffffffffffffffffffffffffffffff19168152602001630907653160e01b7bffffffffffffffffffffffffffffffffffffffffffffffffffffffff19167bffffffffffffffffffffffffffffffffffffffffffffffffffffffff191681526020015090506000600090505b81506006811015620005c95760016001600050600084846006811015156200054a577f4e487b7100000000000000000000000000000000000000000000000000000000600052603260045260246000fd5b60200201517bffffffffffffffffffffffffffffffffffffffffffffffffffffffff19167bffffffffffffffffffffffffffffffffffffffffffffffffffffffff1916815260200190815260200160002060006101000a81548160ff0219169083151502179055505b8080620005c0906200082b565b915050620004f9565b5033600860086101000a81548173ffffffffffffffffffffffffffffffffffffffff021916908373ffffffffffffffffffffffffffffffffffffffff160217905550505b505b5062000868565b600062000630426200063860201b6200210117909060201c565b905080505b90565b600068010000000000000000821015156200068a576040517f08c379a000000000000000000000000000000000000000000000000000000000815260040162000681906200077f565b60405180910390fd5b81905062000693565b9190505662000867565b6000815190506001600160a01b03811681141515620006bc5760006000fd5b5b919050565b600060c08284031215620006d4578081fd5b60405160c081018181106001600160401b03821117156200070357634e487b7160e01b83526041600452602483fd5b806040525062000713836200069d565b815262000723602084016200069d565b602082015262000736604084016200069d565b604082015262000749606084016200069d565b60608201526200075c608084016200069d565b60808201526200076f60a084016200069d565b60a0820152809150505b92915050565b60208152601160208201527f6d6f7265207468616e2036342062697473000000000000000000000000000000604082015260006060820190505b919050565b60006001600160401b03808416801515620007e757634e487b7160e01b83526012600452602483fd5b8082851604925050505b92915050565b60006001600160401b038083168185169150818110156200081d576200081c6200084f565b5b818103925050505b92915050565b60006000198214156200084357620008426200084f565b5b6001820190505b919050565b634e487b7160e01b600052601160045260246000fd5b565b5b60805160601c60a05160601c60c05160c01c60e05160c01c6101005160601c6101205160601c6101405160601c6101605160601c617b4e62000a4b60003960008181610b900152818161126e0152818161175501528181611b61015281816125da01528181612d400152818161306a01528181613495015281816135c701528181613a6601528181613b5c015281816143ad015281816144c9015281816145b801528181614b1101528181614bbe01528181614c33015261521901526000818161141d01526119370152600081816102ac01528181611b2a0152818161296f01528181612aa601528181612c2801528181612dcd015281816134f1015281816137c9015281816138af01528181614833015281816148c701528181614e7c01526153cf015260008181610301015281816117f9015281816147df01528181614d5e01528181614dbe0152818161556301526155b7015260008181611c2201528181612ef40152614755015260008181611d2101528181612f15015261477601526000818161215f0152612e6d015260008181610ff50152818161224a015281816123a2015281816127660152818161286a01528181612f630152818161326301528181613cdb015281816142b9015281816146670152614f5a0152617b4e6000f3fe6080604052600436106102a45760003560e01c80635b5491821161016e578063c433c80a116100cb578063de8925f51161007f578063f4d8977f11610064578063f4d8977f146109e3578063fbc3a64314610a22578063fbe6eb9b14610a4e5761035e565b8063de8925f51461098f578063f09a4016146109b95761035e565b8063c7bd867c116100b0578063c7bd867c1461090d578063d2ca211514610937578063d5f39488146109635761035e565b8063c433c80a146108b7578063c4e3a63b146108e15761035e565b806381cc8807116101225780638efaed89116101075780638efaed89146108355780639624e83e1461085f578063bdd266cd1461088b5761035e565b806381cc8807146107ca57806384397888146108095761035e565b80636fcdfed6116101535780636fcdfed61461073357806375f12b211461075f5780637af36e3f1461078b5761035e565b80635b549182146106dd57806361611890146107095761035e565b80631df0f8a31161021c5780633e948372116101d05780634b257c24116101b55780634b257c24146106315780634b8295731461066f57806350b40400146106ad5761035e565b80633e948372146105db5780633fc8cef3146106055761035e565b8063265e8a6411610201578063265e8a641461055457806326d895451461058557806328d10de8146105b15761035e565b80631df0f8a3146104e957806323f5589a146105285761035e565b80630c340a2411610273578063113cf1ab11610258578063113cf1ab1461045457806315398ae7146104925780631afdbce4146104d15761035e565b80630c340a24146103fc5780630dae9f52146104285761035e565b8063039d10e814610364578063060406181461038e57806307da68f5146103ba57806309076531146103d25761035e565b3661035e575b7f000000000000000000000000000000000000000000000000000000000000000073ffffffffffffffffffffffffffffffffffffffff163373ffffffffffffffffffffffffffffffffffffffff16148061034f57507f000000000000000000000000000000000000000000000000000000000000000073ffffffffffffffffffffffffffffffffffffffff163373ffffffffffffffffffffffffffffffffffffffff16145b151561035b5760006000fd5b5b005b60006000fd5b3480156103715760006000fd5b5061038c600480360381019061038791906160e0565b610a8c565b005b34801561039b5760006000fd5b506103a4610f27565b6040516103b19190617664565b60405180910390f35b3480156103c75760006000fd5b506103d0610f3f565b005b3480156103df5760006000fd5b506103fa60048036038101906103f591906167c8565b610f5f565b005b3480156104095760006000fd5b50610412610ff3565b60405161041f9190616baf565b60405180910390f35b3480156104355760006000fd5b5061043e611017565b60405161044b9190617664565b60405180910390f35b3480156104615760006000fd5b5061047c60048036038101906104779190616045565b611031565b6040516104899190616b73565b60405180910390f35b34801561049f5760006000fd5b506104ba60048036038101906104b59190616219565b611056565b6040516104c89291906175f8565b60405180910390f35b3480156104de5760006000fd5b506104e7611175565b005b3480156104f65760006000fd5b50610511600480360381019061050c9190615f9c565b6111b2565b60405161051f9291906175f8565b60405180910390f35b3480156105355760006000fd5b5061053e6113d8565b60405161054b9190617664565b60405180910390f35b61056e600480360381019061056991906162f8565b6113f2565b60405161057c9291906175cd565b60405180910390f35b3480156105925760006000fd5b5061059b6115e7565b6040516105a89190617634565b60405180910390f35b3480156105be5760006000fd5b506105d960048036038101906105d491906166c2565b6115fd565b005b3480156105e85760006000fd5b5061060360048036038101906105fe91906166fe565b611707565b005b3480156106125760006000fd5b5061061b6117f7565b6040516106289190616a69565b60405180910390f35b34801561063e5760006000fd5b50610659600480360381019061065491906164b6565b61181b565b6040516106669190616b73565b60405180910390f35b34801561067c5760006000fd5b50610697600480360381019061069291906160b9565b61183a565b6040516106a49190617555565b60405180910390f35b6106c760048036038101906106c291906162b9565b611860565b6040516106d49190617531565b60405180910390f35b3480156106ea5760006000fd5b506106f3611935565b6040516107009190616bff565b60405180910390f35b3480156107165760006000fd5b50610731600480360381019061072c9190616177565b611959565b005b3480156107405760006000fd5b50610749611a76565b6040516107569190617555565b60405180910390f35b34801561076c5760006000fd5b50610775611a8a565b6040516107829190616b73565b60405180910390f35b3480156107985760006000fd5b506107b360048036038101906107ae91906164f1565b611a9d565b6040516107c192919061750f565b60405180910390f35b3480156107d75760006000fd5b506107f260048036038101906107ed91906160b9565b611ac9565b604051610800929190617680565b60405180910390f35b3480156108165760006000fd5b5061081f611b28565b60405161082c9190616bd7565b60405180910390f35b3480156108425760006000fd5b5061085d60048036038101906108589190615ff7565b611b4c565b005b34801561086c5760006000fd5b50610875611b5f565b6040516108829190616b87565b60405180910390f35b3480156108985760006000fd5b506108a1611b83565b6040516108ae9190617664565b60405180910390f35b3480156108c45760006000fd5b506108df60048036038101906108da91906167a1565b611b9d565b005b3480156108ee5760006000fd5b506108f7611c20565b6040516109049190617664565b60405180910390f35b34801561091a5760006000fd5b50610935600480360381019061093091906167c8565b611c44565b005b3480156109445760006000fd5b5061094d611d1f565b60405161095a9190617664565b60405180910390f35b3480156109705760006000fd5b50610979611d43565b6040516109869190616a69565b60405180910390f35b34801561099c5760006000fd5b506109b760048036038101906109b2919061663a565b611d69565b005b3480156109c65760006000fd5b506109e160048036038101906109dc919061613b565b611dec565b005b3480156109f05760006000fd5b50610a0b6004803603810190610a0691906161da565b611ee6565b604051610a199291906175f8565b60405180910390f35b348015610a2f5760006000fd5b50610a3861200f565b604051610a459190617531565b60405180910390f35b348015610a5b5760006000fd5b50610a766004803603810190610a71919061669b565b612031565b604051610a8391906174d2565b60405180910390f35b610a9a61215d63ffffffff16565b610aa861223a63ffffffff16565b6000600660005060008573ffffffffffffffffffffffffffffffffffffffff1673ffffffffffffffffffffffffffffffffffffffff16815260200190815260200160002060009054906101000a900461ffff169050610b0c8161232d63ffffffff16565b610b14615bb6565b6000848490509050600043905060006040518060400160405280600115158152602001610b468a61239e63ffffffff16565b60020b8152602001509050610b59615c7c565b610b676124ea63ffffffff16565b67ffffffffffffffff1681608001909081815260200150506000600090505b84811015610f0a577f000000000000000000000000000000000000000000000000000000000000000073ffffffffffffffffffffffffffffffffffffffff1663f34348f18a8a848181101515610c05577f4e487b7100000000000000000000000000000000000000000000000000000000600052603260045260246000fd5b905060200201356040518263ffffffff1660e01b8152600401610c28919061756b565b6101806040518083038186803b158015610c425760006000fd5b505afa158015610c57573d600060003e3d6000fd5b505050506040513d601f19601f82011682018060405250810190610c7b91906163d8565b955085508661ffff16866020015161ffff16141515610c9957610ef7565b610cad86846020015161250563ffffffff16565b15610cb757610ef7565b838660800151101515610cc957610ef7565b610cd88661253863ffffffff16565b955085508888828181101515610d17577f4e487b7100000000000000000000000000000000000000000000000000000000600052603260045260246000fd5b905060200201358260000190908181526020015050610d48826000015160006000896000015161296963ffffffff16565b5050610da3610d96600360089054906101000a900467ffffffffffffffff1667ffffffffffffffff168860a001516fffffffffffffffffffffffffffffffff16612b9890919063ffffffff16565b612bbe909063ffffffff16565b82602001906fffffffffffffffffffffffffffffffff1690816fffffffffffffffffffffffffffffffff1681526020015050610de58233612c2263ffffffff16565b5050610e1482602001518760a001516fffffffffffffffffffffffffffffffff16612d0d90919063ffffffff16565b82602001906fffffffffffffffffffffffffffffffff1690816fffffffffffffffffffffffffffffffff1681526020015050610e5a828760000151612c2263ffffffff16565b5050610e7182600001518785612d2863ffffffff16565b3373ffffffffffffffffffffffffffffffffffffffff168989838181101515610ec3577f4e487b7100000000000000000000000000000000000000000000000000000000600052603260045260246000fd5b905060200201357f6ba13b7ae6048936f291047829a5de36835ad46b52453fff379900999074709260405160405180910390a35b8080610f0290617998565b915050610b86565b505050505050505b5b610f21612e5e63ffffffff16565b5b505050565b6000610f37612ef063ffffffff16565b905080505b90565b610f4d612f5e63ffffffff16565b610f5b612fbe63ffffffff16565b5b5b565b610f6d612f5e63ffffffff16565b6706f05b59d3b200008167ffffffffffffffff16101515610f8e5760006000fd5b80600360086101000a81548167ffffffffffffffff021916908367ffffffffffffffff1602179055507f78244e8e46597270e2f0ae9c6baded3ba10f1b3f03316f89e49bbfeb1c06786881604051610fe69190617664565b60405180910390a15b5b50565b7f000000000000000000000000000000000000000000000000000000000000000081565b600860009054906101000a900467ffffffffffffffff1681565b600160005060205280600052604060002060009150909054906101000a900460ff1681565b6000600061106861215d63ffffffff16565b61107661300863ffffffff16565b600061108b846000015161305d63ffffffff16565b90506110a0816080015161317163ffffffff16565b8060a0015184602001906fffffffffffffffffffffffffffffffff1690816fffffffffffffffffffffffffffffffff16815260200150506110eb848260000151612c2263ffffffff16565b809350819450505061111584600001518261110a6131b963ffffffff16565b612d2863ffffffff16565b83600001517f1bd2c24817047e88025a4688c0fba3903e750cc05d80857de4201f42ec59bcf2848460405161114b9291906175f8565b60405180910390a28282925092505061116056505b5b61116f612e5e63ffffffff16565b5b915091565b61118361215d63ffffffff16565b61119161300863ffffffff16565b61119f6131c563ffffffff16565b5b5b6111af612e5e63ffffffff16565b5b565b600060006111c461215d63ffffffff16565b6111d261300863ffffffff16565b60008585905090506111e2615bb6565b6000600060006000600090505b858110156113aa578a8a828181101515611232577f4e487b7100000000000000000000000000000000000000000000000000000000600052603260045260246000fd5b905060200201359350835061124c8461305d63ffffffff16565b945084508885610120019063ffffffff16908163ffffffff16815260200150507f000000000000000000000000000000000000000000000000000000000000000073ffffffffffffffffffffffffffffffffffffffff1663816aaa2585876040518363ffffffff1660e01b81526004016112c79291906175ac565b600060405180830381600087803b1580156112e25760006000fd5b505af11580156112f7573d600060003e3d6000fd5b5050505061130f84600060003361296963ffffffff16565b809350819450505061132a838961344490919063ffffffff16565b97508750611341838961344490919063ffffffff16565b96508650833373ffffffffffffffffffffffffffffffffffffffff167f56253d287efacdb2c4cd76dd03624a4821c1ce721d1152e8f5f5718f6087c9bf858560405161138e9291906175f8565b60405180910390a35b80806113a290617998565b9150506111ef565b5086869650965050505050506113c05650505050505b5b6113cf612e5e63ffffffff16565b5b935093915050565b600360089054906101000a900467ffffffffffffffff1681565b6000600061140461215d63ffffffff16565b61141261223a63ffffffff16565b6000600660005060007f000000000000000000000000000000000000000000000000000000000000000073ffffffffffffffffffffffffffffffffffffffff16631698ee82886000015189602001518a604001516040518463ffffffff1660e01b815260040161148493929190616a91565b60206040518083038186803b15801561149d5760006000fd5b505afa1580156114b2573d600060003e3d6000fd5b505050506040513d601f19601f820116820180604052508101906114d69190615f75565b73ffffffffffffffffffffffffffffffffffffffff1673ffffffffffffffffffffffffffffffffffffffff16815260200190815260200160002060009054906101000a900461ffff1690506115308161232d63ffffffff16565b61153f8561345f63ffffffff16565b809350819450505061156383828760600151886080015186896135c563ffffffff16565b828161ffff163373ffffffffffffffffffffffffffffffffffffffff167f87c666eb8f5e2d1a47a2af419127c84ea830d86b5f75e12ca3dafa33323d912288606001518960800151876040516115bb93929190616d6b565b60405180910390a4828292509250506115d056505b5b6115df612e5e63ffffffff16565b5b9250929050565b600460009054906101000a900463ffffffff1681565b61160b612f5e63ffffffff16565b61161a8261232d63ffffffff16565b6116286131c563ffffffff16565b80600560005060008461ffff1661ffff16815260200190815260200160002060005060000160146101000a81548167ffffffffffffffff021916908367ffffffffffffffff160217905550600061168361371e63ffffffff16565b1115156116c5576040517f08c379a00000000000000000000000000000000000000000000000000000000081526004016116bc90617054565b60405180910390fd5b8161ffff167fcf476913af040a8c0a50588902fc980c73de756444694afb625e05906334404f826040516116f99190617664565b60405180910390a25b5b5050565b61171561215d63ffffffff16565b61172361223a63ffffffff16565b60006117348261305d63ffffffff16565b9050600081610120019063ffffffff16908163ffffffff16815260200150507f000000000000000000000000000000000000000000000000000000000000000073ffffffffffffffffffffffffffffffffffffffff1663816aaa2583836040518363ffffffff1660e01b81526004016117ae9291906175ac565b600060405180830381600087803b1580156117c95760006000fd5b505af11580156117de573d600060003e3d6000fd5b50505050505b5b6117f3612e5e63ffffffff16565b5b50565b7f000000000000000000000000000000000000000000000000000000000000000081565b600061182d838361250563ffffffff16565b9050611834565b92915050565b600660005060205280600052604060002060009150909054906101000a900461ffff1681565b600061187061215d63ffffffff16565b61187e61223a63ffffffff16565b6000611893846000013561305d63ffffffff16565b90508281610120019063ffffffff16908163ffffffff16815260200150506118c0846137c163ffffffff16565b915081506118d98185600001358461397963ffffffff16565b83600001357fcc5b49b47bfd2f61894e4c8977343543aa054a11ae847be904355459ce55dcd98360405161190d9190617531565b60405180910390a28191505061191f56505b5b61192e612e5e63ffffffff16565b5b92915050565b7f000000000000000000000000000000000000000000000000000000000000000081565b611967612f5e63ffffffff16565b6000600660005060008473ffffffffffffffffffffffffffffffffffffffff1673ffffffffffffffffffffffffffffffffffffffff16815260200190815260200160002060009054906101000a900461ffff1661ffff16141515611a00576040517f08c379a00000000000000000000000000000000000000000000000000000000081526004016119f7906170d2565b60405180910390fd5b611a0e6131c563ffffffff16565b611a1e8282613bf163ffffffff16565b61ffff168273ffffffffffffffffffffffffffffffffffffffff167fb42c51dce17f5346a481b9dd503edc20c8b6de38b22e12b35a5c77c131fb38ac83604051611a689190617664565b60405180910390a35b5b5050565b600460049054906101000a900461ffff1681565b600060009054906101000a900460ff1681565b611aa5615bb6565b6000611ab885858561406163ffffffff16565b91509150611ac1565b935093915050565b60076000506020528060005260406000206000915090508060000160009054906101000a900467ffffffffffffffff16908060000160089054906101000a900477ffffffffffffffffffffffffffffffffffffffffffffffff16905082565b7f000000000000000000000000000000000000000000000000000000000000000081565b611b5b8161419963ffffffff16565b5b50565b7f000000000000000000000000000000000000000000000000000000000000000081565b600360009054906101000a900467ffffffffffffffff1681565b611bab612f5e63ffffffff16565b61012c8163ffffffff1610151515611bc35760006000fd5b80600460006101000a81548163ffffffff021916908363ffffffff1602179055507f811ba52920ff121eccd59ee98068330fc6736094b9a3fab10ada70fb0cd2f37081604051611c13919061764c565b60405180910390a15b5b50565b7f000000000000000000000000000000000000000000000000000000000000000081565b611c52612f5e63ffffffff16565b80600360006101000a81548167ffffffffffffffff021916908367ffffffffffffffff160217905550600360009054906101000a900467ffffffffffffffff1667ffffffffffffffff166000101515611cab5760006000fd5b670de0b6b3a7640000600360009054906101000a900467ffffffffffffffff1667ffffffffffffffff1611151515611ce35760006000fd5b7f41785a43e8509555b296851de25b00003ca4ca1c572c807cb301d4a0fb9582d481604051611d129190617664565b60405180910390a15b5b50565b7f000000000000000000000000000000000000000000000000000000000000000081565b600860089054906101000a900473ffffffffffffffffffffffffffffffffffffffff1681565b611d77612f5e63ffffffff16565b80600360106101000a8154816fffffffffffffffffffffffffffffffff02191690836fffffffffffffffffffffffffffffffff1602179055507f755043e33e8e4c87253e98c56c011cc9905bf88318997b89b3520a54b3c5f17081604051611ddf9190617531565b60405180910390a15b5b50565b611e4b600860089054906101000a900473ffffffffffffffffffffffffffffffffffffffff1673ffffffffffffffffffffffffffffffffffffffff163373ffffffffffffffffffffffffffffffffffffffff161461419963ffffffff16565b600860086101000a81549073ffffffffffffffffffffffffffffffffffffffff0219169055600161ffff16611e8883610bb8613bf163ffffffff16565b61ffff16141515611ece576040517f08c379a0000000000000000000000000000000000000000000000000000000008152600401611ec59061720d565b60405180910390fd5b611ee0816103e8613bf163ffffffff16565b505b5050565b60006000611ef861215d63ffffffff16565b611f0661223a63ffffffff16565b6000611f1b856000013561305d63ffffffff16565b9050611f30816080015161317163ffffffff16565b8381610120019063ffffffff16908163ffffffff1681526020015050611f7085803603810190611f609190616219565b8260000151612c2263ffffffff16565b8093508194505050611fad818660000135876020016020810190611f94919061663a565b611fa26131b963ffffffff16565b6141df63ffffffff16565b84600001357ffafb1711250bf0d3906bfd9c4386a9a5a5fdf9ac1facdc9dfd2addad7d3f72e78484604051611fe39291906175f8565b60405180910390a281829250925050611ff856505b5b612007612e5e63ffffffff16565b5b9250929050565b600360109054906101000a90046fffffffffffffffffffffffffffffffff1681565b612039615cc0565b600560005060008361ffff1661ffff1681526020019081526020016000206000506040518060400160405290816000820160009054906101000a900473ffffffffffffffffffffffffffffffffffffffff1673ffffffffffffffffffffffffffffffffffffffff1673ffffffffffffffffffffffffffffffffffffffff1681526020016000820160149054906101000a900467ffffffffffffffff1667ffffffffffffffff1667ffffffffffffffff1681526020015050905080508090506120fc565b919050565b60006801000000000000000082101515612150576040517f08c379a0000000000000000000000000000000000000000000000000000000008152600401612147906172f0565b60405180910390fd5b819050612158565b919050565b7f000000000000000000000000000000000000000000000000000000000000000073ffffffffffffffffffffffffffffffffffffffff1663e97dcb626040518163ffffffff1660e01b8152600401600060405180830381600087803b1580156121c65760006000fd5b505af11580156121db573d600060003e3d6000fd5b5050505060026002600050541415151561222a576040517f08c379a000000000000000000000000000000000000000000000000000000000815260040161222190617015565b60405180910390fd5b600260026000508190909055505b565b61224861300863ffffffff16565b7f000000000000000000000000000000000000000000000000000000000000000073ffffffffffffffffffffffffffffffffffffffff1663bf86d6906040518163ffffffff1660e01b815260040160206040518083038186803b1580156122af5760006000fd5b505afa1580156122c4573d600060003e3d6000fd5b505050506040513d601f19601f820116820180604052508101906122e8919061601e565b15151561232a576040517f08c379a000000000000000000000000000000000000000000000000000000000815260040161232190616df7565b60405180910390fd5b5b565b8061ffff1660001080156123595750600460049054906101000a900461ffff1661ffff168161ffff1611155b151561239a576040517f08c379a000000000000000000000000000000000000000000000000000000000815260040161239190617150565b60405180910390fd5b5b50565b60007f000000000000000000000000000000000000000000000000000000000000000073ffffffffffffffffffffffffffffffffffffffff1663d3419bf36040518163ffffffff1660e01b815260040160206040518083038186803b1580156124075760006000fd5b505afa15801561241c573d600060003e3d6000fd5b505050506040513d601f19601f820116820180604052508101906124409190616092565b73ffffffffffffffffffffffffffffffffffffffff1663fcebd71c83600460009054906101000a900463ffffffff166040518363ffffffff1660e01b815260040161248c929190616d36565b60206040518083038186803b1580156124a55760006000fd5b505afa1580156124ba573d600060003e3d6000fd5b505050506040513d601f19601f820116820180604052508101906124de91906161b3565b90506124e5565b919050565b60006124fd42612101909063ffffffff16565b905080505b90565b60008160020b8360e0015160020b1315801561252b575082610100015160020b8260020b125b9050612532565b92915050565b612540615bb6565b600061255061464f63ffffffff16565b905060006125638261474e63ffffffff16565b905060008460c001519050600060008267ffffffffffffffff1614612596576125918261474e63ffffffff16565b612599565b60005b90508067ffffffffffffffff168367ffffffffffffffff161115156125c45785945050505050612964565b6125d26131c563ffffffff16565b60006126d7877f000000000000000000000000000000000000000000000000000000000000000073ffffffffffffffffffffffffffffffffffffffff16631cef92b1600560005060008c6020015161ffff1661ffff16815260200190815260200160002060005060000160009054906101000a900473ffffffffffffffffffffffffffffffffffffffff166040518263ffffffff1660e01b81526004016126799190616c27565b60406040518083038186803b1580156126925760006000fd5b505afa1580156126a7573d600060003e3d6000fd5b505050506040513d601f19601f820116820180604052508101906126cb91906165c3565b8761406163ffffffff16565b8092508197505050600081111561295257600073ffffffffffffffffffffffffffffffffffffffff1686610140015173ffffffffffffffffffffffffffffffffffffffff16141580156127395750600086610160015167ffffffffffffffff16115b1561286857600061276287610160015167ffffffffffffffff1683612b9890919063ffffffff16565b90507f000000000000000000000000000000000000000000000000000000000000000073ffffffffffffffffffffffffffffffffffffffff16634d6729f5886101400151836040518363ffffffff1660e01b81526004016127c4929190616b0a565b600060405180830381600087803b1580156127df5760006000fd5b505af11580156127f4573d600060003e3d6000fd5b505050506001151587610140015173ffffffffffffffffffffffffffffffffffffffff167f8079a05488a0f375c08504c3ba8b3a1371f5a192b7a141bc9294ef7ad41389d983604051612847919061756b565b60405180910390a361286281836147c290919063ffffffff16565b91508150505b7f000000000000000000000000000000000000000000000000000000000000000073ffffffffffffffffffffffffffffffffffffffff16634d6729f58760000151836040518363ffffffff1660e01b81526004016128c7929190616b0a565b600060405180830381600087803b1580156128e25760006000fd5b505af11580156128f7573d600060003e3d6000fd5b5050505060001515866000015173ffffffffffffffffffffffffffffffffffffffff167f8079a05488a0f375c08504c3ba8b3a1371f5a192b7a141bc9294ef7ad41389d983604051612949919061756b565b60405180910390a35b85955050505050506129645650505050505b919050565b600060007f000000000000000000000000000000000000000000000000000000000000000073ffffffffffffffffffffffffffffffffffffffff1663fc6f78656040518060800160405280898152602001600073ffffffffffffffffffffffffffffffffffffffff1681526020016fffffffffffffffffffffffffffffffff6fffffffffffffffffffffffffffffffff1681526020016fffffffffffffffffffffffffffffffff6fffffffffffffffffffffffffffffffff168152602001506040518263ffffffff1660e01b8152600401612a44919061732f565b604060405180830381600087803b158015612a5f5760006000fd5b505af1158015612a74573d600060003e3d6000fd5b505050506040513d601f19601f82011682018060405250810190612a98919061677b565b8092508193505050600060007f000000000000000000000000000000000000000000000000000000000000000073ffffffffffffffffffffffffffffffffffffffff166399fbab88896040518263ffffffff1660e01b8152600401612afd919061756b565b6101806040518083038186803b158015612b175760006000fd5b505afa158015612b2c573d600060003e3d6000fd5b505050506040513d601f19601f82011682018060405250810190612b509190616816565b5050505050505050935093505050612b6f8288876147dd63ffffffff16565b612b808187876147dd63ffffffff16565b8383935093505050612b8f5650505b94509492505050565b6000612bb38383670de0b6b3a764000061495d63ffffffff16565b905080505b92915050565b600070010000000000000000000000000000000082101515612c15576040517f08c379a0000000000000000000000000000000000000000000000000000000008152600401612c0c90617111565b60405180910390fd5b819050612c1d565b919050565b600060007f000000000000000000000000000000000000000000000000000000000000000073ffffffffffffffffffffffffffffffffffffffff16630c49ccbe856040518263ffffffff1660e01b8152600401612c7f919061738e565b604060405180830381600087803b158015612c9a5760006000fd5b505af1158015612caf573d600060003e3d6000fd5b505050506040513d601f19601f82011682018060405250810190612cd3919061677b565b8092508193505050612cf98460000151856040015186606001518661296963ffffffff16565b5050808191509150612d06565b9250929050565b60008183612d1b91906178b1565b9050612d22565b92915050565b612d3e82848460a00151846141df63ffffffff16565b7f000000000000000000000000000000000000000000000000000000000000000073ffffffffffffffffffffffffffffffffffffffff166326879a4e846040518263ffffffff1660e01b8152600401612d97919061756b565b600060405180830381600087803b158015612db25760006000fd5b505af1158015612dc7573d600060003e3d6000fd5b505050507f000000000000000000000000000000000000000000000000000000000000000073ffffffffffffffffffffffffffffffffffffffff166342966c68846040518263ffffffff1660e01b8152600401612e24919061756b565b600060405180830381600087803b158015612e3f5760006000fd5b505af1158015612e54573d600060003e3d6000fd5b505050505b505050565b600160026000508190909055507f000000000000000000000000000000000000000000000000000000000000000073ffffffffffffffffffffffffffffffffffffffff1663e9fad8ee6040518163ffffffff1660e01b8152600401600060405180830381600087803b158015612ed45760006000fd5b505af1158015612ee9573d600060003e3d6000fd5b505050505b565b60007f00000000000000000000000000000000000000000000000000000000000000007f0000000000000000000000000000000000000000000000000000000000000000612f426124ea63ffffffff16565b612f4c919061783e565b612f56919061790a565b905080505b90565b612fbb7f000000000000000000000000000000000000000000000000000000000000000073ffffffffffffffffffffffffffffffffffffffff163373ffffffffffffffffffffffffffffffffffffffff161461419963ffffffff16565b5b565b6001600060006101000a81548160ff0219169083151502179055507f7acc84e34091ae817647a4c49116f5cc07f319078ba80f8f5fde37ea7e25cbd660405160405180910390a15b565b600060009054906101000a900460ff1615151561305a576040517f08c379a00000000000000000000000000000000000000000000000000000000081526004016130519061718f565b60405180910390fd5b5b565b613065615bb6565b61311f7f000000000000000000000000000000000000000000000000000000000000000073ffffffffffffffffffffffffffffffffffffffff1663f34348f1846040518263ffffffff1660e01b81526004016130c1919061756b565b6101806040518083038186803b1580156130db5760006000fd5b505afa1580156130f0573d600060003e3d6000fd5b505050506040513d601f19601f8201168201806040525081019061311491906163d8565b61253863ffffffff16565b90508050613164816000015173ffffffffffffffffffffffffffffffffffffffff163373ffffffffffffffffffffffffffffffffffffffff161461419963ffffffff16565b80905061316c565b919050565b43811015156131b5576040517f08c379a00000000000000000000000000000000000000000000000000000000081526004016131ac906171ce565b60405180910390fd5b5b50565b6131c1615cfd565b5b90565b60006131d5614a8163ffffffff16565b9050600860009054906101000a900467ffffffffffffffff1667ffffffffffffffff168167ffffffffffffffff161115156132105750613442565b6000600860009054906101000a900467ffffffffffffffff1682613234919061790a565b9050600061384062015180613249919061783e565b67ffffffffffffffff166133118367ffffffffffffffff167f000000000000000000000000000000000000000000000000000000000000000073ffffffffffffffffffffffffffffffffffffffff166318c7de176040518163ffffffff1660e01b8152600401602060405180830381600087803b1580156132ca5760006000fd5b505af11580156132df573d600060003e3d6000fd5b505050506040513d601f19601f82011682018060405250810190613303919061671a565b614aa990919063ffffffff16565b61331b9190617820565b90506000600460049054906101000a900461ffff1690506000600061334461371e63ffffffff16565b90506001915081505b8261ffff168261ffff161115156133d9576133c5826133b9600560005060008661ffff1661ffff16815260200190815260200160002060005060000160149054906101000a900467ffffffffffffffff1667ffffffffffffffff16848861495d9092919063ffffffff16565b87614ac463ffffffff16565b5b81806133d190617971565b92505061334d565b85600860006101000a81548167ffffffffffffffff021916908367ffffffffffffffff1602179055507f095a67d1e9698fe0eebf9cff79a22f6423cebcb4e386a0bdd7e12330d86381ed8486604051613433929190617611565b60405180910390a15050505050505b565b600081836134529190617800565b9050613459565b92915050565b6000600061347b83600001518460a00151614d5c63ffffffff16565b61349383602001518460c00151614d5c63ffffffff16565b7f000000000000000000000000000000000000000000000000000000000000000083610120019073ffffffffffffffffffffffffffffffffffffffff16908173ffffffffffffffffffffffffffffffffffffffff16815260200150507f000000000000000000000000000000000000000000000000000000000000000073ffffffffffffffffffffffffffffffffffffffff166388316456846040518263ffffffff1660e01b81526004016135489190617420565b608060405180830381600087803b1580156135635760006000fd5b505af1158015613578573d600060003e3d6000fd5b505050506040513d601f19601f8201168201806040525081019061359c9190616736565b90505080925081935050506135bf83600001518460200151614e5c63ffffffff16565b5b915091565b7f000000000000000000000000000000000000000000000000000000000000000073ffffffffffffffffffffffffffffffffffffffff166375ea13ca33886040518363ffffffff1660e01b8152600401613620929190616b0a565b600060405180830381600087803b15801561363b5760006000fd5b505af1158015613650573d600060003e3d6000fd5b5050505061365c615bb6565b33816000019073ffffffffffffffffffffffffffffffffffffffff16908173ffffffffffffffffffffffffffffffffffffffff168152602001505085816020019061ffff16908161ffff1681526020015050848160e0019060020b908160020b815260200150508381610100019060020b908160020b815260200150508181610120019063ffffffff16908163ffffffff16815260200150506137146137078261253863ffffffff16565b888561397963ffffffff16565b505b505050505050565b60006000600190505b600460049054906101000a900461ffff1661ffff168161ffff161115156137b55761379d600560005060008361ffff1661ffff16815260200190815260200160002060005060000160149054906101000a900467ffffffffffffffff1667ffffffffffffffff168361344490919063ffffffff16565b915081505b80806137ad90617971565b915050613727565b508090506137be565b90565b6000600060007f000000000000000000000000000000000000000000000000000000000000000073ffffffffffffffffffffffffffffffffffffffff166399fbab8885600001356040518263ffffffff1660e01b8152600401613824919061756b565b6101806040518083038186803b15801561383e5760006000fd5b505afa158015613853573d600060003e3d6000fd5b505050506040513d601f19601f820116820180604052508101906138779190616816565b5050505050505050935093505050613899828560200135614d5c63ffffffff16565b6138ad818560400135614d5c63ffffffff16565b7f000000000000000000000000000000000000000000000000000000000000000073ffffffffffffffffffffffffffffffffffffffff1663219f5d17856040518263ffffffff1660e01b815260040161390691906173db565b606060405180830381600087803b1580156139215760006000fd5b505af1158015613936573d600060003e3d6000fd5b505050506040513d601f19601f8201168201806040525081019061395a9190616661565b905050809350506139718282614e5c63ffffffff16565b50505b919050565b600060056000506000856020015161ffff1661ffff16815260200190815260200160002060005060000160009054906101000a900473ffffffffffffffffffffffffffffffffffffffff16905060006139d78261239e63ffffffff16565b90506139e9858261250563ffffffff16565b1515613a2a576040517f08c379a0000000000000000000000000000000000000000000000000000000008152600401613a2190616e36565b60405180910390fd5b613a64858284613a59878a60a001516fffffffffffffffffffffffffffffffff16614f1b90919063ffffffff16565b614f3663ffffffff16565b7f000000000000000000000000000000000000000000000000000000000000000073ffffffffffffffffffffffffffffffffffffffff16631428561d83856040518363ffffffff1660e01b8152600401613abf929190616cf5565b600060405180830381600087803b158015613ada5760006000fd5b505af1158015613aef573d600060003e3d6000fd5b50505050670de0b6b3a7640000600360009054906101000a900467ffffffffffffffff1667ffffffffffffffff16108015613b365750600161ffff16856020015161ffff16145b15613b4b57613b4a8261513163ffffffff16565b5b4385608001909081815260200150507f000000000000000000000000000000000000000000000000000000000000000073ffffffffffffffffffffffffffffffffffffffff1663816aaa2585876040518363ffffffff1660e01b8152600401613bb59291906175ac565b600060405180830381600087803b158015613bd05760006000fd5b505af1158015613be5573d600060003e3d6000fd5b5050505050505b505050565b60006000600660005060008573ffffffffffffffffffffffffffffffffffffffff1673ffffffffffffffffffffffffffffffffffffffff16815260200190815260200160002060009054906101000a900461ffff1661ffff16141515613c8c576040517f08c379a0000000000000000000000000000000000000000000000000000000008152600401613c8390616f32565b60405180910390fd5b61ffff61ffff166004600481819054906101000a900461ffff16613caf90617971565b91906101000a81548161ffff021916908361ffff160217905561ffff16101515613cd95760006000fd5b7f000000000000000000000000000000000000000000000000000000000000000073ffffffffffffffffffffffffffffffffffffffff1663d3419bf36040518163ffffffff1660e01b815260040160206040518083038186803b158015613d405760006000fd5b505afa158015613d55573d600060003e3d6000fd5b505050506040513d601f19601f82011682018060405250810190613d799190616092565b73ffffffffffffffffffffffffffffffffffffffff1663407431f7846040518263ffffffff1660e01b8152600401613db19190616c27565b600060405180830381600087803b158015613dcc5760006000fd5b505af1158015613de1573d600060003e3d6000fd5b50505050600460049054906101000a900461ffff169050805060405180604001604052808473ffffffffffffffffffffffffffffffffffffffff1681526020018367ffffffffffffffff16815260200150600560005060008361ffff1661ffff16815260200190815260200160002060005060008201518160000160006101000a81548173ffffffffffffffffffffffffffffffffffffffff021916908373ffffffffffffffffffffffffffffffffffffffff16021790555060208201518160000160146101000a81548167ffffffffffffffff021916908367ffffffffffffffff16021790555090505080600660005060008573ffffffffffffffffffffffffffffffffffffffff1673ffffffffffffffffffffffffffffffffffffffff16815260200190815260200160002060006101000a81548161ffff021916908361ffff160217905550613fb78373ffffffffffffffffffffffffffffffffffffffff16630dfe16816040518163ffffffff1660e01b815260040160206040518083038186803b158015613f735760006000fd5b505afa158015613f88573d600060003e3d6000fd5b505050506040513d601f19601f82011682018060405250810190613fac9190615f75565b6153c963ffffffff16565b6140458373ffffffffffffffffffffffffffffffffffffffff1663d21220a76040518163ffffffff1660e01b815260040160206040518083038186803b1580156140015760006000fd5b505afa158015614016573d600060003e3d6000fd5b505050506040513d601f19601f8201168201806040525081019061403a9190615f75565b6153c963ffffffff16565b6140536131c563ffffffff16565b80905061405b565b92915050565b614069615bb6565b6000849150815060008260a001516fffffffffffffffffffffffffffffffff16111561413d576141386140b38360c001518567ffffffffffffffff1661541e90919063ffffffff16565b67ffffffffffffffff1661384067ffffffffffffffff166141296140e8866060015189600001516147c290919063ffffffff16565b61410387604001518a602001516147c290919063ffffffff16565b8760a001516fffffffffffffffffffffffffffffffff1661495d9092919063ffffffff16565b61495d9092919063ffffffff16565b905080505b8360000151826060019090818152602001505083602001518260400190908181526020015050828260c0019067ffffffffffffffff16908167ffffffffffffffff1681526020015050818191509150614191565b935093915050565b8015156141db576040517f08c379a00000000000000000000000000000000000000000000000000000000081526004016141d290616fd6565b60405180910390fd5b5b50565b600060056000506000866020015161ffff1661ffff16815260200190815260200160002060005060000160009054906101000a900473ffffffffffffffffffffffffffffffffffffffff1690506000826000015161424b576142468261239e63ffffffff16565b614251565b82602001515b90506000670de0b6b3a7640000600360009054906101000a900467ffffffffffffffff1667ffffffffffffffff161080156142985750600161ffff16876020015161ffff16145b80156142b057506142af878361250563ffffffff16565b5b801561435957507f000000000000000000000000000000000000000000000000000000000000000073ffffffffffffffffffffffffffffffffffffffff1663bf86d6906040518163ffffffff1660e01b815260040160206040518083038186803b15801561431e5760006000fd5b505afa158015614333573d600060003e3d6000fd5b505050506040513d601f19601f82011682018060405250810190614357919061601e565b155b905061439587838561438a898c60a001516fffffffffffffffffffffffffffffffff16612d0d90919063ffffffff16565b614f3663ffffffff16565b80156143ab576143aa8361513163ffffffff16565b5b7f000000000000000000000000000000000000000000000000000000000000000073ffffffffffffffffffffffffffffffffffffffff1663530c1ccb84876040518363ffffffff1660e01b8152600401614406929190616cf5565b600060405180830381600087803b1580156144215760006000fd5b505af1158015614436573d600060003e3d6000fd5b5050505080156145b657600760005060008473ffffffffffffffffffffffffffffffffffffffff1673ffffffffffffffffffffffffffffffffffffffff16815260200190815260200160002060005060000160089054906101000a900477ffffffffffffffffffffffffffffffffffffffffffffffff1677ffffffffffffffffffffffffffffffffffffffffffffffff167f000000000000000000000000000000000000000000000000000000000000000073ffffffffffffffffffffffffffffffffffffffff1663a135ef17856040518263ffffffff1660e01b81526004016145209190616c27565b60206040518083038186803b1580156145395760006000fd5b505afa15801561454e573d600060003e3d6000fd5b505050506040513d601f19601f82011682018060405250810190614572919061671a565b101515156145b5576040517f08c379a00000000000000000000000000000000000000000000000000000000081526004016145ac90616e75565b60405180910390fd5b5b7f000000000000000000000000000000000000000000000000000000000000000073ffffffffffffffffffffffffffffffffffffffff1663816aaa2587896040518363ffffffff1660e01b81526004016146119291906175ac565b600060405180830381600087803b15801561462c5760006000fd5b505af1158015614641573d600060003e3d6000fd5b505050505050505b50505050565b600060006146616124ea63ffffffff16565b905060007f000000000000000000000000000000000000000000000000000000000000000073ffffffffffffffffffffffffffffffffffffffff1663585690816040518163ffffffff1660e01b815260040160206040518083038186803b1580156146cc5760006000fd5b505afa1580156146e1573d600060003e3d6000fd5b505050506040513d601f19601f8201168201806040525081019061470591906167ef565b90508067ffffffffffffffff16600010801561473457508167ffffffffffffffff168167ffffffffffffffff16105b61473e5781614740565b805b9250505061474b5650505b90565b60006147b87f00000000000000000000000000000000000000000000000000000000000000007f0000000000000000000000000000000000000000000000000000000000000000846147a0919061783e565b67ffffffffffffffff1661541e90919063ffffffff16565b905080505b919050565b600081836147d091906178eb565b90506147d7565b92915050565b7f000000000000000000000000000000000000000000000000000000000000000073ffffffffffffffffffffffffffffffffffffffff168373ffffffffffffffffffffffffffffffffffffffff1614156148c5577f000000000000000000000000000000000000000000000000000000000000000073ffffffffffffffffffffffffffffffffffffffff166349404b7c83836040518363ffffffff1660e01b815260040161488c92919061757d565b600060405180830381600087803b1580156148a75760006000fd5b505af11580156148bc573d600060003e3d6000fd5b50505050614957565b7f000000000000000000000000000000000000000000000000000000000000000073ffffffffffffffffffffffffffffffffffffffff1663df2ab5bb8484846040518463ffffffff1660e01b815260040161492293929190616b39565b600060405180830381600087803b15801561493d5760006000fd5b505af1158015614952573d600060003e3d6000fd5b505050505b5b505050565b60006000600060001985870985870292508281108382030391505060008114156149a0576000841115156149915760006000fd5b83820492508292505050614a7a565b80841115156149af5760006000fd5b60008486880990508281118203915080830392506000856001877fffffffffffffffffffffffffffffffffffffffffffffffffffffffffffffffff030116905080508086049550808404935060018182600003040190508083028417935083506000600287600302189050808702600203810290508050808702600203810290508050808702600203810290508050808702600203810290508050808702600203810290508050808702600203810290508050808502955085505084945050505050614a7a56505050505b9392505050565b6000614a9f614a9461464f63ffffffff16565b61474e63ffffffff16565b9050614aa6565b90565b60008183614ab7919061786c565b9050614abe565b92915050565b6000600560005060008561ffff1661ffff16815260200190815260200160002060005060000160009054906101000a900473ffffffffffffffffffffffffffffffffffffffff16905060007f000000000000000000000000000000000000000000000000000000000000000073ffffffffffffffffffffffffffffffffffffffff16631cef92b1836040518263ffffffff1660e01b8152600401614b689190616c27565b60406040518083038186803b158015614b815760006000fd5b505afa158015614b96573d600060003e3d6000fd5b505050506040513d601f19601f82011682018060405250810190614bba91906165c3565b90507f000000000000000000000000000000000000000000000000000000000000000073ffffffffffffffffffffffffffffffffffffffff166396122a5c836040518060400160405280614c1b89876000015161344490919063ffffffff16565b8152602001614cfd614cea8967ffffffffffffffff167f000000000000000000000000000000000000000000000000000000000000000073ffffffffffffffffffffffffffffffffffffffff1663a135ef178b6040518263ffffffff1660e01b8152600401614c8a9190616c27565b60206040518083038186803b158015614ca35760006000fd5b505afa158015614cb8573d600060003e3d6000fd5b505050506040513d601f19601f82011682018060405250810190614cdc919061671a565b614aa990919063ffffffff16565b876020015161344490919063ffffffff16565b8152602001506040518363ffffffff1660e01b8152600401614d20929190616cbb565b600060405180830381600087803b158015614d3b5760006000fd5b505af1158015614d50573d600060003e3d6000fd5b5050505050505b505050565b7f000000000000000000000000000000000000000000000000000000000000000073ffffffffffffffffffffffffffffffffffffffff168273ffffffffffffffffffffffffffffffffffffffff16148015614db75750804710155b15614e44577f000000000000000000000000000000000000000000000000000000000000000073ffffffffffffffffffffffffffffffffffffffff1663d0e30db0826040518263ffffffff1660e01b81526004016000604051808303818588803b158015614e255760006000fd5b505af1158015614e3a573d600060003e3d6000fd5b5050505050614e57565b614e568233308461543963ffffffff16565b5b5b5050565b614e6b826154c963ffffffff16565b614e7a816154c963ffffffff16565b7f000000000000000000000000000000000000000000000000000000000000000073ffffffffffffffffffffffffffffffffffffffff166312210e8a6040518163ffffffff1660e01b8152600401600060405180830381600087803b158015614ee35760006000fd5b505af1158015614ef8573d600060003e3d6000fd5b505050506000471115614f1657614f15334761565f63ffffffff16565b5b5b5050565b60008183614f2991906177c5565b9050614f30565b92915050565b6000816fffffffffffffffffffffffffffffffff161415614f565761512b565b60007f000000000000000000000000000000000000000000000000000000000000000073ffffffffffffffffffffffffffffffffffffffff1663d3419bf36040518163ffffffff1660e01b815260040160206040518083038186803b158015614fbf5760006000fd5b505afa158015614fd4573d600060003e3d6000fd5b505050506040513d601f19601f82011682018060405250810190614ff89190616092565b73ffffffffffffffffffffffffffffffffffffffff16631fab230e84868860e0015189610100015187600460009054906101000a900463ffffffff166040518763ffffffff1660e01b815260040161505596959493929190616c4f565b60206040518083038186803b15801561506e5760006000fd5b505afa158015615083573d600060003e3d6000fd5b505050506040513d601f19601f820116820180604052508101906150a7919061671a565b9050600360109054906101000a90046fffffffffffffffffffffffffffffffff166fffffffffffffffffffffffffffffffff16811015806150e85750600081145b1515615129576040517f08c379a000000000000000000000000000000000000000000000000000000000815260040161512090617093565b60405180910390fd5b505b50505050565b6000615141612ef063ffffffff16565b90508067ffffffffffffffff16600760005060008473ffffffffffffffffffffffffffffffffffffffff1673ffffffffffffffffffffffffffffffffffffffff16815260200190815260200160002060005060000160009054906101000a900467ffffffffffffffff1667ffffffffffffffff1610156153c45760405180604001604052808267ffffffffffffffff1681526020016152dd6152d0615217600360009054906101000a900467ffffffffffffffff1667ffffffffffffffff16670de0b6b3a76400006147c290919063ffffffff16565b7f000000000000000000000000000000000000000000000000000000000000000073ffffffffffffffffffffffffffffffffffffffff1663a135ef17886040518263ffffffff1660e01b81526004016152709190616c27565b60206040518083038186803b1580156152895760006000fd5b505afa15801561529e573d600060003e3d6000fd5b505050506040513d601f19601f820116820180604052508101906152c2919061671a565b612b9890919063ffffffff16565b615788909063ffffffff16565b77ffffffffffffffffffffffffffffffffffffffffffffffff16815260200150600760005060008473ffffffffffffffffffffffffffffffffffffffff1673ffffffffffffffffffffffffffffffffffffffff16815260200190815260200160002060005060008201518160000160006101000a81548167ffffffffffffffff021916908367ffffffffffffffff16021790555060208201518160000160086101000a81548177ffffffffffffffffffffffffffffffffffffffffffffffff021916908377ffffffffffffffffffffffffffffffffffffffffffffffff1602179055509050505b505b50565b61541a817f00000000000000000000000000000000000000000000000000000000000000007fffffffffffffffffffffffffffffffffffffffffffffffffffffffffffffffff6157f463ffffffff16565b5b50565b6000818361542c919061790a565b9050615433565b92915050565b6154c2846323b872dd60e01b85858560405160240161545a93929190616ad0565b604051602081830303815290604052907bffffffffffffffffffffffffffffffffffffffffffffffffffffffff19166020820180517bffffffffffffffffffffffffffffffffffffffffffffffffffffffff838183161783525050505061588163ffffffff16565b5b50505050565b60008173ffffffffffffffffffffffffffffffffffffffff166370a08231306040518263ffffffff1660e01b81526004016155049190616a69565b60206040518083038186803b15801561551d5760006000fd5b505afa158015615532573d600060003e3d6000fd5b505050506040513d601f19601f82011682018060405250810190615556919061671a565b9050600081111561565a577f000000000000000000000000000000000000000000000000000000000000000073ffffffffffffffffffffffffffffffffffffffff168273ffffffffffffffffffffffffffffffffffffffff161415615647577f000000000000000000000000000000000000000000000000000000000000000073ffffffffffffffffffffffffffffffffffffffff16632e1a7d4d826040518263ffffffff1660e01b815260040161560e919061756b565b600060405180830381600087803b1580156156295760006000fd5b505af115801561563e573d600060003e3d6000fd5b50505050615659565b61565882338361594e63ffffffff16565b5b5b505b50565b60008273ffffffffffffffffffffffffffffffffffffffff1682600067ffffffffffffffff8111156156ba577f4e487b7100000000000000000000000000000000000000000000000000000000600052604160045260246000fd5b6040519080825280601f01601f1916602001820160405280156156ec5781602001600182028036833780820191505090505b506040516156fa9190616a4a565b60006040518083038185875af1925050503d8060008114615737576040519150601f19603f3d011682016040523d82523d6000602084013e61573c565b606091505b50509050801515615782576040517f08c379a000000000000000000000000000000000000000000000000000000000815260040161577990616ef3565b60405180910390fd5b505b5050565b60007801000000000000000000000000000000000000000000000000821015156157e7576040517f08c379a00000000000000000000000000000000000000000000000000000000081526004016157de90616eb4565b60405180910390fd5b8190506157ef565b919050565b61587b8363095ea7b360e01b8484604051602401615813929190616b0a565b604051602081830303815290604052907bffffffffffffffffffffffffffffffffffffffffffffffffffffffff19166020820180517bffffffffffffffffffffffffffffffffffffffffffffffffffffffff838183161783525050505061588163ffffffff16565b5b505050565b60006158e6826040518060400160405280602081526020017f5361666545524332303a206c6f772d6c6576656c2063616c6c206661696c65648152602001508573ffffffffffffffffffffffffffffffffffffffff166159db9092919063ffffffff16565b90506000815111156159485780806020019051810190615906919061601e565b1515615947576040517f08c379a000000000000000000000000000000000000000000000000000000000815260040161593e9061728b565b60405180910390fd5b5b505b5050565b6159d58363a9059cbb60e01b848460405160240161596d929190616b0a565b604051602081830303815290604052907bffffffffffffffffffffffffffffffffffffffffffffffffffffffff19166020820180517bffffffffffffffffffffffffffffffffffffffffffffffffffffffff838183161783525050505061588163ffffffff16565b5b505050565b60606159f084846000856159fe63ffffffff16565b90506159f7565b9392505050565b6060824710151515615a45576040517f08c379a0000000000000000000000000000000000000000000000000000000008152600401615a3c90616f71565b60405180910390fd5b615a5485615b2a63ffffffff16565b1515615a95576040517f08c379a0000000000000000000000000000000000000000000000000000000008152600401615a8c9061724c565b60405180910390fd5b600060008673ffffffffffffffffffffffffffffffffffffffff168587604051615abf9190616a4a565b60006040518083038185875af1925050503d8060008114615afc576040519150601f19603f3d011682016040523d82523d6000602084013e615b01565b606091505b5091509150615b17828286615b4463ffffffff16565b92505050615b225650505b949350505050565b60006000823b905060008111915050615b3f56505b919050565b60608315615b5857829050615baf56615bae565b600083511115615b705782518084602001fd50615bad565b816040517f08c379a0000000000000000000000000000000000000000000000000000000008152600401615ba49190616da3565b60405180910390fd5b5b5b9392505050565b604051806101800160405280600073ffffffffffffffffffffffffffffffffffffffff168152602001600061ffff16815260200160008152602001600081526020016000815260200160006fffffffffffffffffffffffffffffffff168152602001600067ffffffffffffffff168152602001600060020b8152602001600060020b8152602001600063ffffffff168152602001600073ffffffffffffffffffffffffffffffffffffffff168152602001600067ffffffffffffffff1681526020015090565b6040518060a001604052806000815260200160006fffffffffffffffffffffffffffffffff1681526020016000815260200160008152602001600081526020015090565b6040518060400160405280600073ffffffffffffffffffffffffffffffffffffffff168152602001600067ffffffffffffffff1681526020015090565b6040518060400160405280600015158152602001600060020b8152602001509056617b17565b600081359050615d3281617a39565b5b919050565b600081519050615d4781617a39565b5b919050565b6000600083601f8401121515615d61578182fd5b8235905067ffffffffffffffff811115615d79578182fd5b6020830191508360208260051b8501011115615d955760006000fd5b5b9250929050565b600081359050615dac81617a77565b5b919050565b600081519050615dc181617a77565b5b919050565b60006101808284031215615dd9578081fd5b615de16176bd565b9050615dec82615d23565b8152615dfa60208301615ecd565b6020820152604082013560408201526060820135606082015260808201356080820152615e2960a08301615ea3565b60a0820152615e3a60c08301615f4b565b60c0820152615e4b60e08301615d9d565b60e0820152610100615e5e818401615d9d565b8183015250610120615e71818401615f21565b8183015250610140615e84818401615d23565b8183015250610160615e97818401615f4b565b81830152505b92915050565b600081359050615eb281617a8d565b5b919050565b600081519050615ec781617a8d565b5b919050565b600081359050615edc81617ab2565b5b919050565b600081519050615ef181617ab2565b5b919050565b600081359050615f0681617ac9565b5b919050565b600081519050615f1b81617ac9565b5b919050565b600081359050615f3081617ae1565b5b919050565b600081519050615f4581617ae1565b5b919050565b600081359050615f5a81617afa565b5b919050565b600081519050615f6f81617afa565b5b919050565b600060208284031215615f86578081fd5b8151615f9181617a39565b809150505b92915050565b60006000600060408486031215615fb1578182fd5b833567ffffffffffffffff811115615fc7578283fd5b615fd386828701615d4d565b915080945050809250506020840135615feb81617ae1565b809150505b9250925092565b600060208284031215616008578081fd5b813561601381617a62565b809150505b92915050565b60006020828403121561602f578081fd5b815161603a81617a62565b809150505b92915050565b600060208284031215616056578081fd5b81357fffffffff00000000000000000000000000000000000000000000000000000000811681141515616087578182fd5b809150505b92915050565b6000602082840312156160a3578081fd5b81516160ae81617a39565b809150505b92915050565b6000602082840312156160ca578081fd5b81356160d581617a39565b809150505b92915050565b600060006000604084860312156160f5578081fd5b833561610081617a39565b80935050602084013567ffffffffffffffff81111561611d578182fd5b61612986828701615d4d565b915080935050809150505b9250925092565b600060006040838503121561614e578182fd5b823561615981617a39565b80925050602083013561616b81617a39565b809150505b9250929050565b600060006040838503121561618a578182fd5b823561619581617a39565b8092505060208301356161a781617afa565b809150505b9250929050565b6000602082840312156161c4578081fd5b81516161cf81617a77565b809150505b92915050565b6000600082840360c08112156161ee578283fd5b60a08112156161fb578283fd5b5082915060a083013561620d81617ae1565b809150505b9250929050565b600060a0828403121561622a578081fd5b60405160a0810181811067ffffffffffffffff82111715616272577f4e487b710000000000000000000000000000000000000000000000000000000083526041600452602483fd5b806040525082358152602083013561628981617a8d565b80602083015250604083013560408201526060830135606082015260808301356080820152809150505b92915050565b6000600082840360e08112156162cd578283fd5b60c08112156162da578283fd5b5082915060c08301356162ec81617ae1565b809150505b9250929050565b6000600082840361018081121561630d578283fd5b6101608082121561631c578384fd5b616324617715565b915061632f85615d23565b825261633d60208601615d23565b602083015261634e60408601615ef7565b604083015261635f60608601615d9d565b606083015261637060808601615d9d565b608083015260a085013560a083015260c085013560c083015260e085013560e08301526101008086013581840152506101206163ad818701615d23565b81840152506101408086013581840152508193506163cc818601615f21565b925050505b9250929050565b600061018082840312156163ea578081fd5b6163f261776d565b6163fb83615d38565b815261640960208401615ee2565b602082015260408301516040820152606083015160608201526080830151608082015261643860a08401615eb8565b60a082015261644960c08401615f60565b60c082015261645a60e08401615db2565b60e082015261010061646d818501615db2565b8183015250610120616480818501615f36565b8183015250610140616493818501615d38565b81830152506101606164a6818501615f60565b8183015250809150505b92915050565b600060006101a083850312156164ca578182fd5b6164d48484615dc7565b91506101808301356164e581617a77565b809150505b9250929050565b6000600060008385036101e0811215616508578182fd5b6165128686615dc7565b935060407ffffffffffffffffffffffffffffffffffffffffffffffffffffffffffffffe8082011215616543578182fd5b506040516040810181811067ffffffffffffffff8211171561658c577f4e487b710000000000000000000000000000000000000000000000000000000083526041600452602483fd5b806040525061018085013581526101a08501356020820152809250506101c08401356165b781617afa565b809150505b9250925092565b6000604082840312156165d4578081fd5b6040516040810181811067ffffffffffffffff8211171561661c577f4e487b710000000000000000000000000000000000000000000000000000000083526041600452602483fd5b80604052508251815260208301516020820152809150505b92915050565b60006020828403121561664b578081fd5b813561665681617a8d565b809150505b92915050565b60006000600060608486031215616676578081fd5b835161668181617a8d565b8093505060208401519150604084015190505b9250925092565b6000602082840312156166ac578081fd5b81356166b781617ab2565b809150505b92915050565b60006000604083850312156166d5578182fd5b82356166e081617ab2565b8092505060208301356166f281617afa565b809150505b9250929050565b60006020828403121561670f578081fd5b813590505b92915050565b60006020828403121561672b578081fd5b815190505b92915050565b60006000600060006080858703121561674d578182fd5b84519350602085015161675f81617a8d565b8093505060408501519150606085015190505b92959194509250565b600060006040838503121561678e578182fd5b82519150602083015190505b9250929050565b6000602082840312156167b2578081fd5b81356167bd81617ae1565b809150505b92915050565b6000602082840312156167d9578081fd5b81356167e481617afa565b809150505b92915050565b600060208284031215616800578081fd5b815161680b81617afa565b809150505b92915050565b6000600060006000600060006000600060006000600060006101808d8f03121561683e57898afd5b8c516bffffffffffffffffffffffff81168114151561685b578a8bfd5b809c505061686b60208e01615d38565b9a5061687960408e01615d38565b995061688760608e01615d38565b985061689560808e01615f0c565b97506168a360a08e01615db2565b96506168b160c08e01615db2565b95506168bf60e08e01615eb8565b94506101008d015193506101208d015192506168de6101408e01615eb8565b91506168ed6101608e01615eb8565b90505b9295989b509295989b509295989b565b73ffffffffffffffffffffffffffffffffffffffff8116825250505b565b8060020b825250505b565b616934828251616900565b60208101516169466020840182616a11565b5060408101516040830152606081015160608301526080810151608083015260a081015161697760a08401826169f7565b5060c081015161698a60c0840182616a38565b5060e081015161699d60e084018261691e565b50610100808201516169b18285018261691e565b5050610120808201516169c682850182616a2a565b5050610140808201516169db82850182616900565b5050610160808201516169f082850182616a38565b505050505b565b6fffffffffffffffffffffffffffffffff8116825250505b565b61ffff8116825250505b565b62ffffff8116825250505b565b63ffffffff8116825250505b565b67ffffffffffffffff8116825250505b565b60008251616a5c81846020870161793c565b8083019150505b92915050565b600060208201905073ffffffffffffffffffffffffffffffffffffffff831682525b92915050565b600060608201905073ffffffffffffffffffffffffffffffffffffffff808616835280851660208401525062ffffff831660408301525b949350505050565b600060608201905073ffffffffffffffffffffffffffffffffffffffff80861683528085166020840152508260408301525b949350505050565b600060408201905073ffffffffffffffffffffffffffffffffffffffff841682528260208301525b9392505050565b600060608201905073ffffffffffffffffffffffffffffffffffffffff80861683528460208401528084166040840152505b949350505050565b600060208201905082151582525b92915050565b600060208201905073ffffffffffffffffffffffffffffffffffffffff831682525b92915050565b600060208201905073ffffffffffffffffffffffffffffffffffffffff831682525b92915050565b600060208201905073ffffffffffffffffffffffffffffffffffffffff831682525b92915050565b600060208201905073ffffffffffffffffffffffffffffffffffffffff831682525b92915050565b600060208201905073ffffffffffffffffffffffffffffffffffffffff831682525b92915050565b600060c08201905073ffffffffffffffffffffffffffffffffffffffff881682528660020b60208301528560020b60408301528460020b60608301526fffffffffffffffffffffffffffffffff8416608083015263ffffffff831660a08301525b979650505050505050565b600060608201905073ffffffffffffffffffffffffffffffffffffffff8416825282516020830152602083015160408301525b9392505050565b600060408201905073ffffffffffffffffffffffffffffffffffffffff841682526fffffffffffffffffffffffffffffffff831660208301525b9392505050565b600060408201905073ffffffffffffffffffffffffffffffffffffffff8416825263ffffffff831660208301525b9392505050565b60006060820190508460020b82528360020b60208301526fffffffffffffffffffffffffffffffff831660408301525b949350505050565b6020815260008251806020840152616dc281604085016020870161793c565b60407fffffffffffffffffffffffffffffffffffffffffffffffffffffffffffffffe0601f8301168401019150505b92915050565b60208152601160208201527f50726f746f636f6c2073687574646f776e000000000000000000000000000000604082015260006060820190505b919050565b60208152601660208201527f4c6971756964697479206e6f7420696e2072616e676500000000000000000000604082015260006060820190505b919050565b60208152601c60208201527f4d617820706572696f6420776974686472617720657863656564656400000000604082015260006060820190505b919050565b60208152601260208201527f6d6f7265207468616e2031393220626974730000000000000000000000000000604082015260006060820190505b919050565b60208152600360208201527f5354450000000000000000000000000000000000000000000000000000000000604082015260006060820190505b919050565b60208152601260208201527f416c726561647920726567697374657265640000000000000000000000000000604082015260006060820190505b919050565b60208152602660208201527f416464726573733a20696e73756666696369656e742062616c616e636520666f60408201527f722063616c6c0000000000000000000000000000000000000000000000000000606082015260006080820190505b919050565b60208152600e60208201527f4e6f7420417574686f72697a6564000000000000000000000000000000000000604082015260006060820190505b919050565b60208152600d60208201527f4c50205265656e7472616e637900000000000000000000000000000000000000604082015260006060820190505b919050565b60208152601460208201527f496e63656e7469766520746f74616c2069732030000000000000000000000000604082015260006060820190505b919050565b60208152601260208201527f506f736974696f6e20746f6f20736d616c6c0000000000000000000000000000604082015260006060820190505b919050565b60208152600b60208201527f506f6f6c20657869737473000000000000000000000000000000000000000000604082015260006060820190505b919050565b60208152601260208201527f6d6f7265207468616e2031323820626974730000000000000000000000000000604082015260006060820190505b919050565b60208152600e60208201527f496e76616c696420706f6f6c4944000000000000000000000000000000000000604082015260006060820190505b919050565b60208152601360208201527f436f6e74726163742069732073746f7070656400000000000000000000000000604082015260006060820190505b919050565b60208152601260208201527f4e6f20666c617368206c69717569646974790000000000000000000000000000604082015260006060820190505b919050565b60208152600760208201527f496e76616c696400000000000000000000000000000000000000000000000000604082015260006060820190505b919050565b60208152601d60208201527f416464726573733a2063616c6c20746f206e6f6e2d636f6e7472616374000000604082015260006060820190505b919050565b60208152602a60208201527f5361666545524332303a204552433230206f7065726174696f6e20646964206e60408201527f6f74207375636365656400000000000000000000000000000000000000000000606082015260006080820190505b919050565b60208152601160208201527f6d6f7265207468616e2036342062697473000000000000000000000000000000604082015260006060820190505b919050565b60006080820190508251825273ffffffffffffffffffffffffffffffffffffffff602084015116602083015260408301516fffffffffffffffffffffffffffffffff808216604085015280606086015116606085015250505b92915050565b600060a082019050825182526fffffffffffffffffffffffffffffffff60208401511660208301526040830151604083015260608301516060830152608083015160808301525b92915050565b600060c082019050823582526020830135602083015260408301356040830152606083013560608301526080830135608083015260a083013560a08301525b92915050565b600061016082019050617434828451616900565b60208301516174466020840182616900565b5060408301516174596040840182616a1d565b50606083015161746c606084018261691e565b50608083015161747f608084018261691e565b5060a083015160a083015260c083015160c083015260e083015160e0830152610100808401518184015250610120808401516174bd82850182616900565b50506101408084015181840152505b92915050565b600060408201905073ffffffffffffffffffffffffffffffffffffffff835116825267ffffffffffffffff60208401511660208301525b92915050565b60006101a0820190506175228285616929565b826101808301525b9392505050565b60006020820190506fffffffffffffffffffffffffffffffff831682525b92915050565b600060208201905061ffff831682525b92915050565b60006020820190508282525b92915050565b600060408201905083825273ffffffffffffffffffffffffffffffffffffffff831660208301525b9392505050565b60006101a0820190508382526175c56020830184616929565b5b9392505050565b60006040820190508382526fffffffffffffffffffffffffffffffff831660208301525b9392505050565b60006040820190508382528260208301525b9392505050565b600060408201905083825267ffffffffffffffff831660208301525b9392505050565b600060208201905063ffffffff831682525b92915050565b600060208201905063ffffffff831682525b92915050565b600060208201905067ffffffffffffffff831682525b92915050565b600060408201905067ffffffffffffffff8416825277ffffffffffffffffffffffffffffffffffffffffffffffff831660208301525b9392505050565b60006040519050610180810181811067ffffffffffffffff8211171561770c577f4e487b7100000000000000000000000000000000000000000000000000000000600052604160045260246000fd5b80604052505b90565b60006040519050610160810181811067ffffffffffffffff82111715617764577f4e487b7100000000000000000000000000000000000000000000000000000000600052604160045260246000fd5b80604052505b90565b60006040519050610180810181811067ffffffffffffffff821117156177bc577f4e487b7100000000000000000000000000000000000000000000000000000000600052604160045260246000fd5b80604052505b90565b60006fffffffffffffffffffffffffffffffff8083168185168083038211156177f1576177f06179d7565b5b80820193505050505b92915050565b60008219821115617814576178136179d7565b5b82820190505b92915050565b600082151561783257617831617a08565b5b82820490505b92915050565b600067ffffffffffffffff80841680151561785c5761785b617a08565b5b8082851604925050505b92915050565b6000817fffffffffffffffffffffffffffffffffffffffffffffffffffffffffffffffff04831182151516156178a5576178a46179d7565b5b82820290505b92915050565b60006fffffffffffffffffffffffffffffffff8083168185169150818110156178dd576178dc6179d7565b5b818103925050505b92915050565b6000828210156178fe576178fd6179d7565b5b82820390505b92915050565b600067ffffffffffffffff80831681851691508181101561792e5761792d6179d7565b5b818103925050505b92915050565b60005b8381101561795b5780820151818401525b60208101905061793f565b8381111561796a576000848401525b505050505b565b600061ffff8083168181141561798a576179896179d7565b5b60018101925050505b919050565b60007fffffffffffffffffffffffffffffffffffffffffffffffffffffffffffffffff8214156179cb576179ca6179d7565b5b6001820190505b919050565b7f4e487b7100000000000000000000000000000000000000000000000000000000600052601160045260246000fd5b565b7f4e487b7100000000000000000000000000000000000000000000000000000000600052601260045260246000fd5b565b73ffffffffffffffffffffffffffffffffffffffff811681141515617a5e5760006000fd5b505b565b80151581141515617a735760006000fd5b505b565b8060020b81141515617a895760006000fd5b505b565b6fffffffffffffffffffffffffffffffff811681141515617aae5760006000fd5b505b565b61ffff811681141515617ac55760006000fd5b505b565b62ffffff811681141515617add5760006000fd5b505b565b63ffffffff811681141515617af65760006000fd5b505b565b67ffffffffffffffff811681141515617b135760006000fd5b505b565bfea26469706673582212207c6e635a171f2ce7c416743a78034a0b405e25fb6c1c2dc3343d90ec790cb86d64736f6c63430008040033",
  "linkReferences": {},
  "deployedLinkReferences": {}
}