{
  "_format": "hh-sol-artifact-1",
  "contractName": "RewardsTestable",
  "sourceName": "contracts/core/mocks/RewardsTestable.sol",
  "abi": [
    {
      "inputs": [
        {
          "components": [
            {
              "internalType": "contract IGovernor",
              "name": "Governor",
              "type": "address"
            },
            {
              "internalType": "contract IProtocolLock",
              "name": "ProtocolLock",
              "type": "address"
            },
            {
              "internalType": "contract IAccounting",
              "name": "Accounting",
              "type": "address"
            },
            {
              "internalType": "address",
              "name": "Weth",
              "type": "address"
            }
          ],
          "internalType": "struct IRewards.ConstructorParams",
          "name": "params",
          "type": "tuple"
        }
      ],
      "stateMutability": "nonpayable",
      "type": "constructor"
    },
    {
      "anonymous": false,
      "inputs": [
        {
          "indexed": true,
          "internalType": "address",
          "name": "owner",
          "type": "address"
        },
        {
          "indexed": true,
          "internalType": "uint16",
          "name": "poolID",
          "type": "uint16"
        },
        {
          "indexed": true,
          "internalType": "uint256",
          "name": "nftID",
          "type": "uint256"
        },
        {
          "indexed": false,
          "internalType": "int24",
          "name": "tickLower",
          "type": "int24"
        },
        {
          "indexed": false,
          "internalType": "int24",
          "name": "tickUpper",
          "type": "int24"
        },
        {
          "indexed": false,
          "internalType": "uint128",
          "name": "liquidity",
          "type": "uint128"
        }
      ],
      "name": "LiquidityPositionCreated",
      "type": "event"
    },
    {
      "anonymous": false,
      "inputs": [
        {
          "indexed": true,
          "internalType": "uint256",
          "name": "nftID",
          "type": "uint256"
        },
        {
          "indexed": false,
          "internalType": "uint256",
          "name": "amount0",
          "type": "uint256"
        },
        {
          "indexed": false,
          "internalType": "uint256",
          "name": "amount1",
          "type": "uint256"
        }
      ],
      "name": "LiquidityPositionDecreased",
      "type": "event"
    },
    {
      "anonymous": false,
      "inputs": [
        {
          "indexed": true,
          "internalType": "uint256",
          "name": "nftID",
          "type": "uint256"
        },
        {
          "indexed": false,
          "internalType": "uint128",
          "name": "liquidity",
          "type": "uint128"
        }
      ],
      "name": "LiquidityPositionIncreased",
      "type": "event"
    },
    {
      "anonymous": false,
      "inputs": [
        {
          "indexed": true,
          "internalType": "uint256",
          "name": "nftID",
          "type": "uint256"
        },
        {
          "indexed": true,
          "internalType": "address",
          "name": "liquidator",
          "type": "address"
        }
      ],
      "name": "LiquidityPositionLiquidated",
      "type": "event"
    },
    {
      "anonymous": false,
      "inputs": [
        {
          "indexed": true,
          "internalType": "uint256",
          "name": "nftID",
          "type": "uint256"
        },
        {
          "indexed": false,
          "internalType": "uint256",
          "name": "amount0",
          "type": "uint256"
        },
        {
          "indexed": false,
          "internalType": "uint256",
          "name": "amount1",
          "type": "uint256"
        }
      ],
      "name": "LiquidityPositionRemoved",
      "type": "event"
    },
    {
      "anonymous": false,
      "inputs": [
        {
          "indexed": false,
          "internalType": "uint64",
          "name": "decreasePortion",
          "type": "uint64"
        }
      ],
      "name": "MaxCollateralLiquidityDecreasePerPeriodUpdated",
      "type": "event"
    },
    {
      "anonymous": false,
      "inputs": [
        {
          "indexed": true,
          "internalType": "address",
          "name": "pool",
          "type": "address"
        },
        {
          "indexed": true,
          "internalType": "uint16",
          "name": "poolID",
          "type": "uint16"
        },
        {
          "indexed": false,
          "internalType": "uint64",
          "name": "rewardsPortion",
          "type": "uint64"
        }
      ],
      "name": "PoolAdded",
      "type": "event"
    },
    {
      "anonymous": false,
      "inputs": [
        {
          "indexed": true,
          "internalType": "uint16",
          "name": "poolID",
          "type": "uint16"
        },
        {
          "indexed": false,
          "internalType": "uint64",
          "name": "incentive",
          "type": "uint64"
        }
      ],
      "name": "PoolIncentiveUpdated",
      "type": "event"
    },
    {
      "anonymous": false,
      "inputs": [
        {
          "indexed": false,
          "internalType": "uint256",
          "name": "count",
          "type": "uint256"
        },
        {
          "indexed": false,
          "internalType": "uint64",
          "name": "periods",
          "type": "uint64"
        }
      ],
      "name": "RewardsAccrued",
      "type": "event"
    },
    {
      "anonymous": false,
      "inputs": [
        {
          "indexed": true,
          "internalType": "address",
          "name": "caller",
          "type": "address"
        },
        {
          "indexed": true,
          "internalType": "uint256",
          "name": "nftTokenID",
          "type": "uint256"
        },
        {
          "indexed": false,
          "internalType": "uint256",
          "name": "amount0",
          "type": "uint256"
        },
        {
          "indexed": false,
          "internalType": "uint256",
          "name": "amount1",
          "type": "uint256"
        }
      ],
      "name": "RewardsClaimed",
      "type": "event"
    },
    {
      "anonymous": false,
      "inputs": [
        {
          "indexed": true,
          "internalType": "address",
          "name": "account",
          "type": "address"
        },
        {
          "indexed": true,
          "internalType": "bool",
          "name": "isKickback",
          "type": "bool"
        },
        {
          "indexed": false,
          "internalType": "uint256",
          "name": "tcpRewards",
          "type": "uint256"
        }
      ],
      "name": "RewardsDistributed",
      "type": "event"
    },
    {
      "anonymous": false,
      "inputs": [],
      "name": "Stopped",
      "type": "event"
    },
    {
      "inputs": [],
      "name": "accounting",
      "outputs": [
        {
          "internalType": "contract IAccounting",
          "name": "",
          "type": "address"
        }
      ],
      "stateMutability": "view",
      "type": "function"
    },
    {
      "inputs": [],
      "name": "accrueRewards",
      "outputs": [],
      "stateMutability": "nonpayable",
      "type": "function"
    },
    {
      "inputs": [
        {
          "internalType": "contract CharmWrapper",
          "name": "pool",
          "type": "address"
        },
        {
          "internalType": "uint64",
          "name": "rewardsPortion",
          "type": "uint64"
        }
      ],
      "name": "addIncentivePool",
      "outputs": [],
      "stateMutability": "nonpayable",
      "type": "function"
    },
    {
      "inputs": [
        {
          "components": [
            {
              "internalType": "address",
              "name": "owner",
              "type": "address"
            },
            {
              "internalType": "uint256",
              "name": "cumulativeLiquidity",
              "type": "uint256"
            },
            {
              "internalType": "uint256",
              "name": "totalRewards",
              "type": "uint256"
            },
            {
              "internalType": "uint256",
              "name": "lastBlockPositionIncreased",
              "type": "uint256"
            },
            {
              "internalType": "uint128",
              "name": "liquidity",
              "type": "uint128"
            },
            {
              "internalType": "uint64",
              "name": "lastTimeRewarded",
              "type": "uint64"
            },
            {
              "internalType": "uint32",
              "name": "ui",
              "type": "uint32"
            },
            {
              "internalType": "address",
              "name": "kickbackDestination",
              "type": "address"
            },
            {
              "internalType": "uint64",
              "name": "kickbackPortion",
              "type": "uint64"
            }
          ],
          "internalType": "struct IAccounting.PoolPosition",
          "name": "_pt",
          "type": "tuple"
        },
        {
          "components": [
            {
              "internalType": "uint256",
              "name": "totalRewards",
              "type": "uint256"
            },
            {
              "internalType": "uint256",
              "name": "cumulativeLiquidity",
              "type": "uint256"
            }
          ],
          "internalType": "struct IAccounting.RewardStatus",
          "name": "rs",
          "type": "tuple"
        },
        {
          "internalType": "uint64",
          "name": "timeNow",
          "type": "uint64"
        }
      ],
      "name": "calculateUpdatedLiquidityPosition",
      "outputs": [
        {
          "components": [
            {
              "internalType": "address",
              "name": "owner",
              "type": "address"
            },
            {
              "internalType": "uint256",
              "name": "cumulativeLiquidity",
              "type": "uint256"
            },
            {
              "internalType": "uint256",
              "name": "totalRewards",
              "type": "uint256"
            },
            {
              "internalType": "uint256",
              "name": "lastBlockPositionIncreased",
              "type": "uint256"
            },
            {
              "internalType": "uint128",
              "name": "liquidity",
              "type": "uint128"
            },
            {
              "internalType": "uint64",
              "name": "lastTimeRewarded",
              "type": "uint64"
            },
            {
              "internalType": "uint32",
              "name": "ui",
              "type": "uint32"
            },
            {
              "internalType": "address",
              "name": "kickbackDestination",
              "type": "address"
            },
            {
              "internalType": "uint64",
              "name": "kickbackPortion",
              "type": "uint64"
            }
          ],
          "internalType": "struct IAccounting.PoolPosition",
          "name": "pt",
          "type": "tuple"
        },
        {
          "internalType": "uint256",
          "name": "rewards",
          "type": "uint256"
        }
      ],
      "stateMutability": "pure",
      "type": "function"
    },
    {
      "inputs": [
        {
          "internalType": "uint16[]",
          "name": "poolIDs",
          "type": "uint16[]"
        },
        {
          "internalType": "uint32",
          "name": "ui",
          "type": "uint32"
        }
      ],
      "name": "claimAllRewards",
      "outputs": [],
      "stateMutability": "nonpayable",
      "type": "function"
    },
    {
      "inputs": [
        {
          "internalType": "uint16",
          "name": "poolID",
          "type": "uint16"
        },
        {
          "internalType": "uint32",
          "name": "ui",
          "type": "uint32"
        }
      ],
      "name": "claimRewards",
      "outputs": [],
      "stateMutability": "nonpayable",
      "type": "function"
    },
    {
      "inputs": [],
      "name": "countPools",
      "outputs": [
        {
          "internalType": "uint16",
          "name": "",
          "type": "uint16"
        }
      ],
      "stateMutability": "view",
      "type": "function"
    },
    {
      "inputs": [],
      "name": "currentPeriod",
      "outputs": [
        {
          "internalType": "uint64",
          "name": "period",
          "type": "uint64"
        }
      ],
      "stateMutability": "view",
      "type": "function"
    },
    {
      "inputs": [],
      "name": "deployer",
      "outputs": [
        {
          "internalType": "address",
          "name": "",
          "type": "address"
        }
      ],
      "stateMutability": "view",
      "type": "function"
    },
    {
      "inputs": [
        {
          "components": [
            {
              "internalType": "uint16",
              "name": "poolID",
              "type": "uint16"
            },
            {
              "internalType": "uint256",
              "name": "amount0Desired",
              "type": "uint256"
            },
            {
              "internalType": "uint256",
              "name": "amount1Desired",
              "type": "uint256"
            },
            {
              "internalType": "uint256",
              "name": "amount0Min",
              "type": "uint256"
            },
            {
              "internalType": "uint256",
              "name": "amount1Min",
              "type": "uint256"
            }
          ],
          "internalType": "struct Rewards.RewardsDepositParams",
          "name": "params",
          "type": "tuple"
        },
        {
          "internalType": "uint32",
          "name": "ui",
          "type": "uint32"
        }
      ],
      "name": "deposit",
      "outputs": [
        {
          "internalType": "uint128",
          "name": "liquidity",
          "type": "uint128"
        },
        {
          "internalType": "uint256",
          "name": "amount0",
          "type": "uint256"
        },
        {
          "internalType": "uint256",
          "name": "amount1",
          "type": "uint256"
        }
      ],
      "stateMutability": "payable",
      "type": "function"
    },
    {
      "inputs": [],
      "name": "firstPeriod",
      "outputs": [
        {
          "internalType": "uint64",
          "name": "",
          "type": "uint64"
        }
      ],
      "stateMutability": "view",
      "type": "function"
    },
    {
      "inputs": [
        {
          "internalType": "contract CharmWrapper",
          "name": "pool",
          "type": "address"
        }
      ],
      "name": "getMinLiquidityByPeriod",
      "outputs": [
        {
          "components": [
            {
              "internalType": "uint64",
              "name": "period",
              "type": "uint64"
            },
            {
              "internalType": "uint192",
              "name": "minLiquidity",
              "type": "uint192"
            }
          ],
          "internalType": "struct IRewards.MinLiquidityByPeriod",
          "name": "",
          "type": "tuple"
        }
      ],
      "stateMutability": "view",
      "type": "function"
    },
    {
      "inputs": [
        {
          "internalType": "uint16",
          "name": "poolID",
          "type": "uint16"
        }
      ],
      "name": "getPoolConfigForPoolID",
      "outputs": [
        {
          "components": [
            {
              "internalType": "contract CharmWrapper",
              "name": "pool",
              "type": "address"
            },
            {
              "internalType": "uint64",
              "name": "rewardsPortion",
              "type": "uint64"
            }
          ],
          "internalType": "struct IRewards.PoolConfig",
          "name": "",
          "type": "tuple"
        }
      ],
      "stateMutability": "view",
      "type": "function"
    },
    {
      "inputs": [],
      "name": "governor",
      "outputs": [
        {
          "internalType": "contract IGovernor",
          "name": "",
          "type": "address"
        }
      ],
      "stateMutability": "view",
      "type": "function"
    },
    {
      "inputs": [
        {
          "internalType": "contract CharmWrapper",
          "name": "_collateralPool",
          "type": "address"
        }
      ],
      "name": "init",
      "outputs": [],
      "stateMutability": "nonpayable",
      "type": "function"
    },
    {
      "inputs": [],
      "name": "lastPeriodGlobalRewardsAccrued",
      "outputs": [
        {
          "internalType": "uint64",
          "name": "",
          "type": "uint64"
        }
      ],
      "stateMutability": "view",
      "type": "function"
    },
    {
      "inputs": [],
      "name": "maxCollateralLiquidityDecreasePerPeriod",
      "outputs": [
        {
          "internalType": "uint64",
          "name": "",
          "type": "uint64"
        }
      ],
      "stateMutability": "view",
      "type": "function"
    },
    {
      "inputs": [
        {
          "internalType": "contract CharmWrapper",
          "name": "",
          "type": "address"
        }
      ],
      "name": "minLiquidityByPeriod",
      "outputs": [
        {
          "internalType": "uint64",
          "name": "period",
          "type": "uint64"
        },
        {
          "internalType": "uint192",
          "name": "minLiquidity",
          "type": "uint192"
        }
      ],
      "stateMutability": "view",
      "type": "function"
    },
    {
      "inputs": [],
      "name": "periodLength",
      "outputs": [
        {
          "internalType": "uint64",
          "name": "",
          "type": "uint64"
        }
      ],
      "stateMutability": "view",
      "type": "function"
    },
    {
      "inputs": [
        {
          "internalType": "contract CharmWrapper",
          "name": "",
          "type": "address"
        }
      ],
      "name": "poolIDForPool",
      "outputs": [
        {
          "internalType": "uint16",
          "name": "",
          "type": "uint16"
        }
      ],
      "stateMutability": "view",
      "type": "function"
    },
    {
      "inputs": [
        {
          "internalType": "uint16",
          "name": "poolID",
          "type": "uint16"
        }
      ],
      "name": "removeKickback",
      "outputs": [],
      "stateMutability": "nonpayable",
      "type": "function"
    },
    {
      "inputs": [
        {
          "internalType": "bool",
          "name": "authorized",
          "type": "bool"
        }
      ],
      "name": "requireAuthorized",
      "outputs": [],
      "stateMutability": "pure",
      "type": "function"
    },
    {
      "inputs": [
        {
          "internalType": "uint64",
          "name": "decreasePortion",
          "type": "uint64"
        }
      ],
      "name": "setMaxCollateralLiquidityDecreasePerPeriod",
      "outputs": [],
      "stateMutability": "nonpayable",
      "type": "function"
    },
    {
      "inputs": [],
      "name": "stop",
      "outputs": [],
      "stateMutability": "nonpayable",
      "type": "function"
    },
    {
      "inputs": [],
      "name": "stopped",
      "outputs": [
        {
          "internalType": "bool",
          "name": "",
          "type": "bool"
        }
      ],
      "stateMutability": "view",
      "type": "function"
    },
    {
      "inputs": [
        {
          "internalType": "uint16",
          "name": "poolID",
          "type": "uint16"
        },
        {
          "internalType": "uint64",
          "name": "incentive",
          "type": "uint64"
        }
      ],
      "name": "updatePoolIncentive",
      "outputs": [],
      "stateMutability": "nonpayable",
      "type": "function"
    },
    {
      "inputs": [
        {
          "internalType": "bytes4",
          "name": "",
          "type": "bytes4"
        }
      ],
      "name": "validUpdate",
      "outputs": [
        {
          "internalType": "bool",
          "name": "",
          "type": "bool"
        }
      ],
      "stateMutability": "view",
      "type": "function"
    },
    {
      "inputs": [],
      "name": "weth",
      "outputs": [
        {
          "internalType": "address",
          "name": "",
          "type": "address"
        }
      ],
      "stateMutability": "view",
      "type": "function"
    },
    {
      "inputs": [
        {
          "components": [
            {
              "internalType": "uint16",
              "name": "poolID",
              "type": "uint16"
            },
            {
              "internalType": "uint128",
              "name": "liquidity",
              "type": "uint128"
            },
            {
              "internalType": "uint256",
              "name": "amount0Min",
              "type": "uint256"
            },
            {
              "internalType": "uint256",
              "name": "amount1Min",
              "type": "uint256"
            }
          ],
          "internalType": "struct Rewards.RewardsWithdrawParams",
          "name": "params",
          "type": "tuple"
        },
        {
          "internalType": "uint32",
          "name": "ui",
          "type": "uint32"
        }
      ],
      "name": "withdraw",
      "outputs": [
        {
          "internalType": "uint256",
          "name": "amount0",
          "type": "uint256"
        },
        {
          "internalType": "uint256",
          "name": "amount1",
          "type": "uint256"
        }
      ],
      "stateMutability": "nonpayable",
      "type": "function"
    },
    {
      "stateMutability": "payable",
      "type": "receive"
    }
  ],
  "bytecode": "0x6101406040526001600260005090905567016345785d8a0000600360006101000a81548167ffffffffffffffff021916908367ffffffffffffffff1602179055506000600360086101000a81548161ffff021916908361ffff1602179055503480156200006c5760006000fd5b5060405162005caa38038062005caa83398181016040528101906200009291906200048f565b5b805b603c5b816000015182602001515b815b8073ffffffffffffffffffffffffffffffffffffffff1660808173ffffffffffffffffffffffffffffffffffffffff16815260200150505b508073ffffffffffffffffffffffffffffffffffffffff1660a08173ffffffffffffffffffffffffffffffffffffffff16815260200150505b50506001816200012b620003eb60201b60201c565b62000137919062000552565b6200014391906200058d565b67ffffffffffffffff1660e08167ffffffffffffffff16815260200150508067ffffffffffffffff1660c08167ffffffffffffffff16815260200150505b50806040015173ffffffffffffffffffffffffffffffffffffffff166101208173ffffffffffffffffffffffffffffffffffffffff1681526020015050806060015173ffffffffffffffffffffffffffffffffffffffff166101008173ffffffffffffffffffffffffffffffffffffffff168152602001505060006040518060600160405280636161189060e01b7bffffffffffffffffffffffffffffffffffffffffffffffffffffffff19167bffffffffffffffffffffffffffffffffffffffffffffffffffffffff191681526020016328d10de860e01b7bffffffffffffffffffffffffffffffffffffffffffffffffffffffff19167bffffffffffffffffffffffffffffffffffffffffffffffffffffffff1916815260200163c7bd867c60e01b7bffffffffffffffffffffffffffffffffffffffffffffffffffffffff19167bffffffffffffffffffffffffffffffffffffffffffffffffffffffff191681526020015090506000600090505b815060038110156200039e5760016001600050600084846003811015156200031f576200031e620005c1565b5b60200201517bffffffffffffffffffffffffffffffffffffffffffffffffffffffff19167bffffffffffffffffffffffffffffffffffffffffffffffffffffffff1916815260200190815260200160002060006101000a81548160ff0219169083151502179055505b80806200039590620005d9565b915050620002f2565b5033600760086101000a81548173ffffffffffffffffffffffffffffffffffffffff021916908373ffffffffffffffffffffffffffffffffffffffff160217905550505b505b506200063d565b600062000405426200040d60201b62001f4217909060201c565b905080505b90565b600068010000000000000000821015156200045f576040517f08c379a00000000000000000000000000000000000000000000000000000000081526004016200045690620005fd565b60405180910390fd5b81905062000468565b919050566200063c565b6001600160a01b038116811415156200048b5760006000fd5b505b565b600060808284031215620004a35760006000fd5b604051608081018181106001600160401b0382111715620004d457634e487b7160e01b600052604160045260246000fd5b80604052508251620004e68162000472565b808252506020830151620004fa8162000472565b806020830152506040830151620005118162000472565b806040830152506060830151620005288162000472565b80606083015250809150505b92915050565b634e487b7160e01b600052601160045260246000fd5b565b60006001600160401b038084168015156200057d57634e487b7160e01b600052601260045260246000fd5b8082851604925050505b92915050565b60006001600160401b03808316818516915081811015620005b357620005b26200053a565b5b818103925050505b92915050565b634e487b7160e01b600052603260045260246000fd5b565b6000600019821415620005f157620005f06200053a565b5b6001820190505b919050565b60208152601160208201527f6d6f7265207468616e2036342062697473000000000000000000000000000000604082015260006060820190505b919050565b5b60805160a05160c05160e05161010051610120516155526200075860003960008181610b8701528181610c930152818161121f0152818161135501528181611438015281816116de015281816119d701528181611c0101528181611dba015281816122f4015281816125b00152818161318301528181613836015281816138d301526139480152600081816101ce01528181611591015281816123b00152612410015260008181611a1501528181611fa20152613b8d015260008181611b1401528181611fc30152613bae0152600081816120b8015261275f0152600081816107ea0152818161117101528181612011015281816121a301528181612cd3015281816132b6015281816133b80152613aaf01526155526000f3fe6080604052600436106101c65760003560e01c806361611890116100f7578063c4e3a63b11610095578063e007969611610064578063e0079696146106df578063ea80a04014610709578063ec63b94014610748578063fbe6eb9b146107725761025f565b8063c4e3a63b14610631578063c7bd867c1461065d578063d2ca211514610687578063d5f39488146106b35761025f565b806375f12b21116100d157806375f12b21146105835780638efaed89146105af5780639624e83e146105d9578063bdd266cd146106055761025f565b806361611890146104ef57806363371e70146105195780636fcdfed6146105575761025f565b80631afdbce4116101645780633fc8cef31161013e5780633fc8cef31461041c57806349447c00146104485780634b829573146104875780635dafb260146104c55761025f565b80631afdbce41461039b57806328d10de8146103b357806329435c56146103dd5761025f565b80630dae9f52116101a05780630dae9f52146102d5578063113cf1ab146103015780631412cc7c1461033f57806319ab453c146103715761025f565b8063060406181461026557806307da68f5146102915780630c340a24146102a95761025f565b3661025f575b7f000000000000000000000000000000000000000000000000000000000000000073ffffffffffffffffffffffffffffffffffffffff163373ffffffffffffffffffffffffffffffffffffffff1614151561025c576040517f08c379a000000000000000000000000000000000000000000000000000000000815260040161025390613fda565b60405180910390fd5b5b005b60006000fd5b3480156102725760006000fd5b5061027b6107b0565b604051610288919061402b565b60405180910390f35b34801561029e5760006000fd5b506102a76107c8565b005b3480156102b65760006000fd5b506102bf6107e8565b6040516102cc9190614047565b60405180910390f35b3480156102e25760006000fd5b506102eb61080c565b6040516102f8919061402b565b60405180910390f35b34801561030e5760006000fd5b506103296004803603810190610324919061406f565b610826565b60405161033691906140c0565b60405180910390f35b61035960048036038101906103549190614102565b61084b565b60405161036893929190614145565b60405180910390f35b34801561037e5760006000fd5b50610399600480360381019061039491906141a0565b610d40565b005b3480156103a85760006000fd5b506103b1610e26565b005b3480156103c05760006000fd5b506103db60048036038101906103d6919061421a565b610e63565b005b3480156103ea5760006000fd5b5061040560048036038101906104009190614254565b610f6d565b604051610413929190614297565b60405180910390f35b3480156104295760006000fd5b5061043261158f565b60405161043f91906142ce565b60405180910390f35b3480156104555760006000fd5b50610470600480360381019061046b91906141a0565b6115b3565b60405161047e9291906142f6565b60405180910390f35b3480156104945760006000fd5b506104af60048036038101906104aa91906141a0565b611612565b6040516104bc9190614333565b60405180910390f35b3480156104d25760006000fd5b506104ed60048036038101906104e89190614349565b611638565b005b3480156104fc5760006000fd5b506105176004803603810190610512919061436e565b611783565b005b3480156105265760006000fd5b50610541600480360381019061053c91906141a0565b6118a0565b60405161054e91906143ac565b60405180910390f35b3480156105645760006000fd5b5061056d61199b565b60405161057a9190614333565b60405180910390f35b3480156105905760006000fd5b506105996119af565b6040516105a691906140c0565b60405180910390f35b3480156105bc5760006000fd5b506105d760048036038101906105d29190614402565b6119c2565b005b3480156105e65760006000fd5b506105ef6119d5565b6040516105fc919061442b565b60405180910390f35b3480156106125760006000fd5b5061061b6119f9565b604051610628919061402b565b60405180910390f35b34801561063e5760006000fd5b50610647611a13565b604051610654919061402b565b60405180910390f35b34801561066a5760006000fd5b5061068560048036038101906106809190614453565b611a37565b005b3480156106945760006000fd5b5061069d611b12565b6040516106aa919061402b565b60405180910390f35b3480156106c05760006000fd5b506106c9611b36565b6040516106d691906142ce565b60405180910390f35b3480156106ec5760006000fd5b506107076004803603810190610702919061447c565b611b5c565b005b3480156107165760006000fd5b50610731600480360381019061072c9190614646565b611ca7565b60405161073f9291906147d9565b60405180910390f35b3480156107555760006000fd5b50610770600480360381019061076b91906147fb565b611cd3565b005b34801561077f5760006000fd5b5061079a60048036038101906107959190614349565b611e77565b6040516107a791906148cb565b60405180910390f35b60006107c0611f9e63ffffffff16565b905080505b90565b6107d661200c63ffffffff16565b6107e461206c63ffffffff16565b5b5b565b7f000000000000000000000000000000000000000000000000000000000000000081565b600760009054906101000a900467ffffffffffffffff1681565b600160005060205280600052604060002060009150909054906101000a900460ff1681565b60006000600061085f6120b663ffffffff16565b61086d61219363ffffffff16565b61088e8560000160208101906108839190614349565b61227663ffffffff16565b6000600460005060008760000160208101906108aa9190614349565b61ffff1661ffff1681526020019081526020016000206000506040518060400160405290816000820160009054906101000a900473ffffffffffffffffffffffffffffffffffffffff1673ffffffffffffffffffffffffffffffffffffffff1673ffffffffffffffffffffffffffffffffffffffff1681526020016000820160149054906101000a900467ffffffffffffffff1667ffffffffffffffff1667ffffffffffffffff1681526020015050905060006109713383600001516122e763ffffffff16565b90506109fb33836000015173ffffffffffffffffffffffffffffffffffffffff16630dfe16816040518163ffffffff1660e01b8152600401602060405180830381865afa1580156109c7573d600060003e3d6000fd5b505050506040513d601f19601f820116820180604052508101906109eb9190614908565b89602001356123ae63ffffffff16565b610a8333836000015173ffffffffffffffffffffffffffffffffffffffff1663d21220a76040518163ffffffff1660e01b8152600401602060405180830381865afa158015610a4f573d600060003e3d6000fd5b505050506040513d601f19601f82011682018060405250810190610a739190614908565b89604001356123ae63ffffffff16565b816000015173ffffffffffffffffffffffffffffffffffffffff1663365d0ed7886020013589604001358a606001358b60800135306040518663ffffffff1660e01b8152600401610ad8959493929190614931565b6060604051808303816000875af1158015610af8573d600060003e3d6000fd5b505050506040513d601f19601f82011682018060405250810190610b1c919061498a565b809550819650829750505050858160c0019063ffffffff16908163ffffffff16815260200150508481608001818151610b5591906149f7565b9150906fffffffffffffffffffffffffffffffff1690816fffffffffffffffffffffffffffffffff16815260200150507f000000000000000000000000000000000000000000000000000000000000000073ffffffffffffffffffffffffffffffffffffffff16631428561d8360000151876040518363ffffffff1660e01b8152600401610be4929190614a32565b600060405180830381600087803b158015610bff5760006000fd5b505af1158015610c14573d600060003e3d6000fd5b50505050600161ffff16876000016020810190610c319190614349565b61ffff16148015610c695750670de0b6b3a7640000600360009054906101000a900467ffffffffffffffff1667ffffffffffffffff16105b15610c8257610c8182600001516124af63ffffffff16565b5b4381606001909081815260200150507f000000000000000000000000000000000000000000000000000000000000000073ffffffffffffffffffffffffffffffffffffffff16635374a6da338460000151846040518463ffffffff1660e01b8152600401610cf293929190614a73565b600060405180830381600087803b158015610d0d5760006000fd5b505af1158015610d22573d600060003e3d6000fd5b5050505050505b5b610d3861275063ffffffff16565b5b9250925092565b610d9f600760089054906101000a900473ffffffffffffffffffffffffffffffffffffffff1673ffffffffffffffffffffffffffffffffffffffff163373ffffffffffffffffffffffffffffffffffffffff16146127e263ffffffff16565b600760086101000a81549073ffffffffffffffffffffffffffffffffffffffff0219169055600161ffff16610ddc82610bb861282863ffffffff16565b61ffff16141515610e22576040517f08c379a0000000000000000000000000000000000000000000000000000000008152600401610e1990614ab5565b60405180910390fd5b5b50565b610e346120b663ffffffff16565b610e42612be163ffffffff16565b610e50612c3663ffffffff16565b5b5b610e6061275063ffffffff16565b5b565b610e7161200c63ffffffff16565b610e808261227663ffffffff16565b610e8e612c3663ffffffff16565b80600460005060008461ffff1661ffff16815260200190815260200160002060005060000160146101000a81548167ffffffffffffffff021916908367ffffffffffffffff1602179055506000610ee9612ea463ffffffff16565b111515610f2b576040517f08c379a0000000000000000000000000000000000000000000000000000000008152600401610f2290614af4565b60405180910390fd5b8161ffff167fcf476913af040a8c0a50588902fc980c73de756444694afb625e05906334404f82604051610f5f919061402b565b60405180910390a25b5b5050565b60006000610f7f6120b663ffffffff16565b610f8d612be163ffffffff16565b610fae846000016020810190610fa39190614349565b61227663ffffffff16565b600060046000506000866000016020810190610fca9190614349565b61ffff1661ffff1681526020019081526020016000206000506040518060400160405290816000820160009054906101000a900473ffffffffffffffffffffffffffffffffffffffff1673ffffffffffffffffffffffffffffffffffffffff1673ffffffffffffffffffffffffffffffffffffffff1681526020016000820160149054906101000a900467ffffffffffffffff1667ffffffffffffffff1667ffffffffffffffff1681526020015050905060006110913383600001516122e763ffffffff16565b90506110a68160600151612f4763ffffffff16565b848160c0019063ffffffff16908163ffffffff16815260200150508560200160208101906110d49190614b33565b816080018181516110e59190614b5c565b9150906fffffffffffffffffffffffffffffffff1690816fffffffffffffffffffffffffffffffff16815260200150506000600161ffff168760000160208101906111309190614349565b61ffff161480156111685750670de0b6b3a7640000600360009054906101000a900467ffffffffffffffff1667ffffffffffffffff16105b801561120157507f000000000000000000000000000000000000000000000000000000000000000073ffffffffffffffffffffffffffffffffffffffff1663bf86d6906040518163ffffffff1660e01b8152600401602060405180830381865afa1580156111db573d600060003e3d6000fd5b505050506040513d601f19601f820116820180604052508101906111ff9190614b96565b155b9050801561121d5761121c83600001516124af63ffffffff16565b5b7f000000000000000000000000000000000000000000000000000000000000000073ffffffffffffffffffffffffffffffffffffffff1663530c1ccb84600001518960200160208101906112719190614b33565b6040518363ffffffff1660e01b815260040161128e929190614a32565b600060405180830381600087803b1580156112a95760006000fd5b505af11580156112be573d600060003e3d6000fd5b5050505080156114365760066000506000846000015173ffffffffffffffffffffffffffffffffffffffff1673ffffffffffffffffffffffffffffffffffffffff16815260200190815260200160002060005060000160089054906101000a900477ffffffffffffffffffffffffffffffffffffffffffffffff1677ffffffffffffffffffffffffffffffffffffffffffffffff167f000000000000000000000000000000000000000000000000000000000000000073ffffffffffffffffffffffffffffffffffffffff1663a135ef1785600001516040518263ffffffff1660e01b81526004016113b09190614bbf565b602060405180830381865afa1580156113ce573d600060003e3d6000fd5b505050506040513d601f19601f820116820180604052508101906113f29190614be7565b10151515611435576040517f08c379a000000000000000000000000000000000000000000000000000000000815260040161142c90614c05565b60405180910390fd5b5b7f000000000000000000000000000000000000000000000000000000000000000073ffffffffffffffffffffffffffffffffffffffff16635374a6da338560000151856040518463ffffffff1660e01b815260040161149793929190614a73565b600060405180830381600087803b1580156114b25760006000fd5b505af11580156114c7573d600060003e3d6000fd5b50505050826000015173ffffffffffffffffffffffffffffffffffffffff166326c9324c8860200160208101906114fe9190614b33565b89604001358a60600135336040518563ffffffff1660e01b81526004016115289493929190614c44565b6040604051808303816000875af1158015611548573d600060003e3d6000fd5b505050506040513d601f19601f8201168201806040525081019061156c9190614c93565b80955081965050505050505b5b61158761275063ffffffff16565b5b9250929050565b7f000000000000000000000000000000000000000000000000000000000000000081565b60066000506020528060005260406000206000915090508060000160009054906101000a900467ffffffffffffffff16908060000160089054906101000a900477ffffffffffffffffffffffffffffffffffffffffffffffff16905082565b600560005060205280600052604060002060009150909054906101000a900461ffff1681565b6116466120b663ffffffff16565b61165461219363ffffffff16565b6116638161227663ffffffff16565b6000600460005060008361ffff1661ffff16815260200190815260200160002060005060000160009054906101000a900473ffffffffffffffffffffffffffffffffffffffff16905060006116be33836122e763ffffffff16565b905060008160c0019063ffffffff16908163ffffffff16815260200150507f000000000000000000000000000000000000000000000000000000000000000073ffffffffffffffffffffffffffffffffffffffff16635374a6da3384846040518463ffffffff1660e01b815260040161173993929190614a73565b600060405180830381600087803b1580156117545760006000fd5b505af1158015611769573d600060003e3d6000fd5b5050505050505b5b61177f61275063ffffffff16565b5b50565b61179161200c63ffffffff16565b6000600560005060008473ffffffffffffffffffffffffffffffffffffffff1673ffffffffffffffffffffffffffffffffffffffff16815260200190815260200160002060009054906101000a900461ffff1661ffff1614151561182a576040517f08c379a000000000000000000000000000000000000000000000000000000000815260040161182190614cbb565b60405180910390fd5b611838612c3663ffffffff16565b611848828261282863ffffffff16565b61ffff168273ffffffffffffffffffffffffffffffffffffffff167fb42c51dce17f5346a481b9dd503edc20c8b6de38b22e12b35a5c77c131fb38ac83604051611892919061402b565b60405180910390a35b5b5050565b6118a8613eb1565b600660005060008373ffffffffffffffffffffffffffffffffffffffff1673ffffffffffffffffffffffffffffffffffffffff1681526020019081526020016000206000506040518060400160405290816000820160009054906101000a900467ffffffffffffffff1667ffffffffffffffff1667ffffffffffffffff1681526020016000820160089054906101000a900477ffffffffffffffffffffffffffffffffffffffffffffffff1677ffffffffffffffffffffffffffffffffffffffffffffffff1677ffffffffffffffffffffffffffffffffffffffffffffffff16815260200150509050611996565b919050565b600360089054906101000a900461ffff1681565b600060009054906101000a900460ff1681565b6119d1816127e263ffffffff16565b5b50565b7f000000000000000000000000000000000000000000000000000000000000000081565b600360009054906101000a900467ffffffffffffffff1681565b7f000000000000000000000000000000000000000000000000000000000000000081565b611a4561200c63ffffffff16565b80600360006101000a81548167ffffffffffffffff021916908367ffffffffffffffff160217905550600360009054906101000a900467ffffffffffffffff1667ffffffffffffffff166000101515611a9e5760006000fd5b670de0b6b3a7640000600360009054906101000a900467ffffffffffffffff1667ffffffffffffffff1611151515611ad65760006000fd5b7f41785a43e8509555b296851de25b00003ca4ca1c572c807cb301d4a0fb9582d481604051611b05919061402b565b60405180910390a15b5b50565b7f000000000000000000000000000000000000000000000000000000000000000081565b600760089054906101000a900473ffffffffffffffffffffffffffffffffffffffff1681565b611b6a6120b663ffffffff16565b611b78612be163ffffffff16565b611b878261227663ffffffff16565b6000600460005060008461ffff1661ffff16815260200190815260200160002060005060000160009054906101000a900473ffffffffffffffffffffffffffffffffffffffff1690506000611be233836122e763ffffffff16565b9050828160c0019063ffffffff16908163ffffffff16815260200150507f000000000000000000000000000000000000000000000000000000000000000073ffffffffffffffffffffffffffffffffffffffff16635374a6da3384846040518463ffffffff1660e01b8152600401611c5c93929190614a73565b600060405180830381600087803b158015611c775760006000fd5b505af1158015611c8c573d600060003e3d6000fd5b5050505050505b5b611ca261275063ffffffff16565b5b5050565b611caf613ef2565b6000611cc2858585612f8f63ffffffff16565b91509150611ccb565b935093915050565b611ce16120b663ffffffff16565b611cef612be163ffffffff16565b600082519050611cfd613ef2565b600060006000600090505b84811015611e5d578681815181101515611d2557611d24614cfa565b5b602002602001015192508250611d408361227663ffffffff16565b600460005060008461ffff1661ffff16815260200190815260200160002060005060000160009054906101000a900473ffffffffffffffffffffffffffffffffffffffff1691508150611d9933836122e763ffffffff16565b93508350858460c0019063ffffffff16908163ffffffff16815260200150507f000000000000000000000000000000000000000000000000000000000000000073ffffffffffffffffffffffffffffffffffffffff16635374a6da3384876040518463ffffffff1660e01b8152600401611e1593929190614a73565b600060405180830381600087803b158015611e305760006000fd5b505af1158015611e45573d600060003e3d6000fd5b505050505b8080611e5590614d2b565b915050611d08565b50505050505b5b611e7261275063ffffffff16565b5b5050565b611e7f613f99565b600460005060008361ffff1661ffff1681526020019081526020016000206000506040518060400160405290816000820160009054906101000a900473ffffffffffffffffffffffffffffffffffffffff1673ffffffffffffffffffffffffffffffffffffffff1673ffffffffffffffffffffffffffffffffffffffff1681526020016000820160149054906101000a900467ffffffffffffffff1667ffffffffffffffff1667ffffffffffffffff16815260200150509050611f3d565b919050565b60006801000000000000000082101515611f91576040517f08c379a0000000000000000000000000000000000000000000000000000000008152600401611f8890614d6a565b60405180910390fd5b819050611f99565b919050565b60007f00000000000000000000000000000000000000000000000000000000000000007f0000000000000000000000000000000000000000000000000000000000000000611ff06130c663ffffffff16565b611ffa9190614dda565b6120049190614e08565b905080505b90565b6120697f000000000000000000000000000000000000000000000000000000000000000073ffffffffffffffffffffffffffffffffffffffff163373ffffffffffffffffffffffffffffffffffffffff16146127e263ffffffff16565b5b565b6001600060006101000a81548160ff0219169083151502179055507f7acc84e34091ae817647a4c49116f5cc07f319078ba80f8f5fde37ea7e25cbd660405160405180910390a15b565b7f000000000000000000000000000000000000000000000000000000000000000073ffffffffffffffffffffffffffffffffffffffff1663e97dcb626040518163ffffffff1660e01b8152600401600060405180830381600087803b15801561211f5760006000fd5b505af1158015612134573d600060003e3d6000fd5b50505050600260026000505414151515612183576040517f08c379a000000000000000000000000000000000000000000000000000000000815260040161217a90614e3a565b60405180910390fd5b600260026000508190909055505b565b6121a1612be163ffffffff16565b7f000000000000000000000000000000000000000000000000000000000000000073ffffffffffffffffffffffffffffffffffffffff1663bf86d6906040518163ffffffff1660e01b8152600401602060405180830381865afa15801561220d573d600060003e3d6000fd5b505050506040513d601f19601f820116820180604052508101906122319190614b96565b151515612273576040517f08c379a000000000000000000000000000000000000000000000000000000000815260040161226a90614e79565b60405180910390fd5b5b565b8061ffff1660001080156122a25750600360089054906101000a900461ffff1661ffff168161ffff1611155b15156122e3576040517f08c379a00000000000000000000000000000000000000000000000000000000081526004016122da90614eb8565b60405180910390fd5b5b50565b6122ef613ef2565b61239c7f000000000000000000000000000000000000000000000000000000000000000073ffffffffffffffffffffffffffffffffffffffff1663c32bfdaa85856040518363ffffffff1660e01b815260040161234d929190614ef7565b61012060405180830381865afa15801561236c573d600060003e3d6000fd5b505050506040513d601f19601f820116820180604052508101906123909190614f69565b836130e163ffffffff16565b905080508090506123a8565b92915050565b7f000000000000000000000000000000000000000000000000000000000000000073ffffffffffffffffffffffffffffffffffffffff168273ffffffffffffffffffffffffffffffffffffffff161480156124095750804710155b15612496577f000000000000000000000000000000000000000000000000000000000000000073ffffffffffffffffffffffffffffffffffffffff1663d0e30db0826040518263ffffffff1660e01b81526004016000604051808303818588803b1580156124775760006000fd5b505af115801561248c573d600060003e3d6000fd5b50505050506124a9565b6124a8828430846134b863ffffffff16565b5b5b505050565b6000603c610e106124c09190614dda565b6124ce611f9e63ffffffff16565b6124d89190614dda565b90508067ffffffffffffffff16600660005060008473ffffffffffffffffffffffffffffffffffffffff1673ffffffffffffffffffffffffffffffffffffffff16815260200190815260200160002060005060000160009054906101000a900467ffffffffffffffff1667ffffffffffffffff16101561274b5760405180604001604052808267ffffffffffffffff1681526020016126646126576125ae600360009054906101000a900467ffffffffffffffff1667ffffffffffffffff16670de0b6b3a764000061354890919063ffffffff16565b7f000000000000000000000000000000000000000000000000000000000000000073ffffffffffffffffffffffffffffffffffffffff1663a135ef17886040518263ffffffff1660e01b81526004016126079190614bbf565b602060405180830381865afa158015612625573d600060003e3d6000fd5b505050506040513d601f19601f820116820180604052508101906126499190614be7565b61356390919063ffffffff16565b613589909063ffffffff16565b77ffffffffffffffffffffffffffffffffffffffffffffffff16815260200150600660005060008473ffffffffffffffffffffffffffffffffffffffff1673ffffffffffffffffffffffffffffffffffffffff16815260200190815260200160002060005060008201518160000160006101000a81548167ffffffffffffffff021916908367ffffffffffffffff16021790555060208201518160000160086101000a81548177ffffffffffffffffffffffffffffffffffffffffffffffff021916908377ffffffffffffffffffffffffffffffffffffffffffffffff1602179055509050505b505b50565b600160026000508190909055507f000000000000000000000000000000000000000000000000000000000000000073ffffffffffffffffffffffffffffffffffffffff1663e9fad8ee6040518163ffffffff1660e01b8152600401600060405180830381600087803b1580156127c65760006000fd5b505af11580156127db573d600060003e3d6000fd5b505050505b565b801515612824576040517f08c379a000000000000000000000000000000000000000000000000000000000815260040161281b90615010565b60405180910390fd5b5b50565b60006000600560005060008573ffffffffffffffffffffffffffffffffffffffff1673ffffffffffffffffffffffffffffffffffffffff16815260200190815260200160002060009054906101000a900461ffff1661ffff161415156128c3576040517f08c379a00000000000000000000000000000000000000000000000000000000081526004016128ba9061504f565b60405180910390fd5b61ffff61ffff166003600881819054906101000a900461ffff166128e69061508e565b91906101000a81548161ffff021916908361ffff160217905561ffff161015156129105760006000fd5b600360089054906101000a900461ffff169050805060405180604001604052808473ffffffffffffffffffffffffffffffffffffffff1681526020018367ffffffffffffffff16815260200150600460005060008361ffff1661ffff16815260200190815260200160002060005060008201518160000160006101000a81548173ffffffffffffffffffffffffffffffffffffffff021916908373ffffffffffffffffffffffffffffffffffffffff16021790555060208201518160000160146101000a81548167ffffffffffffffff021916908367ffffffffffffffff16021790555090505080600560005060008573ffffffffffffffffffffffffffffffffffffffff1673ffffffffffffffffffffffffffffffffffffffff16815260200190815260200160002060006101000a81548161ffff021916908361ffff160217905550612af48373ffffffffffffffffffffffffffffffffffffffff16630dfe16816040518163ffffffff1660e01b8152600401602060405180830381865afa158015612aa3573d600060003e3d6000fd5b505050506040513d601f19601f82011682018060405250810190612ac79190614908565b847fffffffffffffffffffffffffffffffffffffffffffffffffffffffffffffffff6135f563ffffffff16565b612b948373ffffffffffffffffffffffffffffffffffffffff1663d21220a76040518163ffffffff1660e01b8152600401602060405180830381865afa158015612b43573d600060003e3d6000fd5b505050506040513d601f19601f82011682018060405250810190612b679190614908565b847fffffffffffffffffffffffffffffffffffffffffffffffffffffffffffffffff6135f563ffffffff16565b612bc583847fffffffffffffffffffffffffffffffffffffffffffffffffffffffffffffffff6135f563ffffffff16565b612bd3612c3663ffffffff16565b809050612bdb565b92915050565b600060009054906101000a900460ff16151515612c33576040517f08c379a0000000000000000000000000000000000000000000000000000000008152600401612c2a906150b5565b60405180910390fd5b5b565b6000612c4661368263ffffffff16565b9050600760009054906101000a900467ffffffffffffffff1667ffffffffffffffff168167ffffffffffffffff16111515612c815750612ea2565b6000600760009054906101000a900467ffffffffffffffff1682612ca59190614e08565b90506000603c62015180612cb99190614dda565b67ffffffffffffffff16612d718367ffffffffffffffff167f000000000000000000000000000000000000000000000000000000000000000073ffffffffffffffffffffffffffffffffffffffff166318c7de176040518163ffffffff1660e01b81526004016020604051808303816000875af1158015612d3f573d600060003e3d6000fd5b505050506040513d601f19601f82011682018060405250810190612d639190614be7565b6136aa90919063ffffffff16565b612d7b91906150f4565b90506000600360089054906101000a900461ffff16905060006000612da4612ea463ffffffff16565b90506001915081505b8261ffff168261ffff16111515612e3957612e2582612e19600460005060008661ffff1661ffff16815260200190815260200160002060005060000160149054906101000a900467ffffffffffffffff1667ffffffffffffffff1684886136c59092919063ffffffff16565b876137e963ffffffff16565b5b8180612e319061508e565b925050612dad565b85600760006101000a81548167ffffffffffffffff021916908367ffffffffffffffff1602179055507f095a67d1e9698fe0eebf9cff79a22f6423cebcb4e386a0bdd7e12330d86381ed8486604051612e93929190615112565b60405180910390a15050505050505b565b60006000600190505b600360089054906101000a900461ffff1661ffff168161ffff16111515612f3b57612f23600460005060008361ffff1661ffff16815260200190815260200160002060005060000160149054906101000a900467ffffffffffffffff1667ffffffffffffffff1683613a6190919063ffffffff16565b915081505b8080612f339061508e565b915050612ead565b50809050612f44565b90565b4381101515612f8b576040517f08c379a0000000000000000000000000000000000000000000000000000000008152600401612f8290615135565b60405180910390fd5b5b50565b612f97613ef2565b60008491508150600082608001516fffffffffffffffffffffffffffffffff16111561306a57613065612fe18360a001518567ffffffffffffffff16613a7c90919063ffffffff16565b67ffffffffffffffff16603c67ffffffffffffffff166130566130158660400151896000015161354890919063ffffffff16565b61303087602001518a6020015161354890919063ffffffff16565b87608001516fffffffffffffffffffffffffffffffff166136c59092919063ffffffff16565b6136c59092919063ffffffff16565b905080505b8360000151826040019090818152602001505083602001518260200190908181526020015050828260a0019067ffffffffffffffff16908167ffffffffffffffff16815260200150508181915091506130be565b935093915050565b60006130d942611f42909063ffffffff16565b905080505b90565b6130e9613ef2565b60006130f9613a9763ffffffff16565b9050600061310c82613b8663ffffffff16565b905060008560a001519050600060008267ffffffffffffffff161461313f5761313a82613b8663ffffffff16565b613142565b60005b90508067ffffffffffffffff168367ffffffffffffffff1611151561316d57869450505050506134b2565b61317b612c3663ffffffff16565b6000613228887f000000000000000000000000000000000000000000000000000000000000000073ffffffffffffffffffffffffffffffffffffffff16631cef92b18a6040518263ffffffff1660e01b81526004016131da9190614bbf565b604060405180830381865afa1580156131f8573d600060003e3d6000fd5b505050506040513d601f19601f8201168201806040525081019061321c9190615174565b87612f8f63ffffffff16565b809250819750505060008111156134a057600073ffffffffffffffffffffffffffffffffffffffff168660e0015173ffffffffffffffffffffffffffffffffffffffff16141580156132895750600086610100015167ffffffffffffffff16115b156133b65760006132b287610100015167ffffffffffffffff168361356390919063ffffffff16565b90507f000000000000000000000000000000000000000000000000000000000000000073ffffffffffffffffffffffffffffffffffffffff16634d6729f58860e00151836040518363ffffffff1660e01b81526004016133139291906151c9565b600060405180830381600087803b15801561332e5760006000fd5b505af1158015613343573d600060003e3d6000fd5b50505050600115158760e0015173ffffffffffffffffffffffffffffffffffffffff167f8079a05488a0f375c08504c3ba8b3a1371f5a192b7a141bc9294ef7ad41389d98360405161339591906151f8565b60405180910390a36133b0818361354890919063ffffffff16565b91508150505b7f000000000000000000000000000000000000000000000000000000000000000073ffffffffffffffffffffffffffffffffffffffff16634d6729f58760000151836040518363ffffffff1660e01b81526004016134159291906151c9565b600060405180830381600087803b1580156134305760006000fd5b505af1158015613445573d600060003e3d6000fd5b5050505060001515866000015173ffffffffffffffffffffffffffffffffffffffff167f8079a05488a0f375c08504c3ba8b3a1371f5a192b7a141bc9294ef7ad41389d98360405161349791906151f8565b60405180910390a35b85955050505050506134b25650505050505b92915050565b613541846323b872dd60e01b8585856040516024016134d99392919061520a565b604051602081830303815290604052907bffffffffffffffffffffffffffffffffffffffffffffffffffffffff19166020820180517bffffffffffffffffffffffffffffffffffffffffffffffffffffffff8381831617835250505050613bfa63ffffffff16565b5b50505050565b600081836135569190615244565b905061355d565b92915050565b600061357e8383670de0b6b3a76400006136c563ffffffff16565b905080505b92915050565b60007801000000000000000000000000000000000000000000000000821015156135e8576040517f08c379a00000000000000000000000000000000000000000000000000000000081526004016135df90615263565b60405180910390fd5b8190506135f0565b919050565b61367c8363095ea7b360e01b84846040516024016136149291906151c9565b604051602081830303815290604052907bffffffffffffffffffffffffffffffffffffffffffffffffffffffff19166020820180517bffffffffffffffffffffffffffffffffffffffffffffffffffffffff8381831617835250505050613bfa63ffffffff16565b5b505050565b60006136a0613695613a9763ffffffff16565b613b8663ffffffff16565b90506136a7565b90565b600081836136b891906152a2565b90506136bf565b92915050565b6000600060006000198587098587029250828110838203039150506000811415613708576000841115156136f95760006000fd5b838204925082925050506137e2565b80841115156137175760006000fd5b60008486880990508281118203915080830392506000856001877fffffffffffffffffffffffffffffffffffffffffffffffffffffffffffffffff0301169050805080860495508084049350600181826000030401905080830284179350835060006002876003021890508087026002038102905080508087026002038102905080508087026002038102905080508087026002038102905080508087026002038102905080508087026002038102905080508085029550855050849450505050506137e256505050505b9392505050565b6000600460005060008561ffff1661ffff16815260200190815260200160002060005060000160009054906101000a900473ffffffffffffffffffffffffffffffffffffffff16905060007f000000000000000000000000000000000000000000000000000000000000000073ffffffffffffffffffffffffffffffffffffffff16631cef92b1836040518263ffffffff1660e01b815260040161388d9190614bbf565b604060405180830381865afa1580156138ab573d600060003e3d6000fd5b505050506040513d601f19601f820116820180604052508101906138cf9190615174565b90507f000000000000000000000000000000000000000000000000000000000000000073ffffffffffffffffffffffffffffffffffffffff166396122a5c836040518060400160405280613930898760000151613a6190919063ffffffff16565b8152602001613a026139ef8967ffffffffffffffff167f000000000000000000000000000000000000000000000000000000000000000073ffffffffffffffffffffffffffffffffffffffff1663a135ef178b6040518263ffffffff1660e01b815260040161399f9190614bbf565b602060405180830381865afa1580156139bd573d600060003e3d6000fd5b505050506040513d601f19601f820116820180604052508101906139e19190614be7565b6136aa90919063ffffffff16565b8760200151613a6190919063ffffffff16565b8152602001506040518363ffffffff1660e01b8152600401613a259291906152e7565b600060405180830381600087803b158015613a405760006000fd5b505af1158015613a55573d600060003e3d6000fd5b5050505050505b505050565b60008183613a6f9190615321565b9050613a76565b92915050565b60008183613a8a9190614e08565b9050613a91565b92915050565b60006000613aa96130c663ffffffff16565b905060007f000000000000000000000000000000000000000000000000000000000000000073ffffffffffffffffffffffffffffffffffffffff1663585690816040518163ffffffff1660e01b8152600401602060405180830381865afa158015613b19573d600060003e3d6000fd5b505050506040513d601f19601f82011682018060405250810190613b3d9190615341565b90508067ffffffffffffffff166000108015613b6c57508167ffffffffffffffff168167ffffffffffffffff16105b613b765781613b78565b805b92505050613b835650505b90565b6000613bf07f00000000000000000000000000000000000000000000000000000000000000007f000000000000000000000000000000000000000000000000000000000000000084613bd89190614dda565b67ffffffffffffffff16613a7c90919063ffffffff16565b905080505b919050565b6000613c5f826040518060400160405280602081526020017f5361666545524332303a206c6f772d6c6576656c2063616c6c206661696c65648152602001508573ffffffffffffffffffffffffffffffffffffffff16613cc79092919063ffffffff16565b9050600081511115613cc15780806020019051810190613c7f9190614b96565b1515613cc0576040517f08c379a0000000000000000000000000000000000000000000000000000000008152600401613cb79061536a565b60405180910390fd5b5b505b5050565b6060613cdc8484600085613cea63ffffffff16565b9050613ce3565b9392505050565b6060824710151515613d31576040517f08c379a0000000000000000000000000000000000000000000000000000000008152600401613d28906153cf565b60405180910390fd5b613d4085613e1663ffffffff16565b1515613d81576040517f08c379a0000000000000000000000000000000000000000000000000000000008152600401613d7890615434565b60405180910390fd5b600060008673ffffffffffffffffffffffffffffffffffffffff168587604051613dab91906154a8565b60006040518083038185875af1925050503d8060008114613de8576040519150601f19603f3d011682016040523d82523d6000602084013e613ded565b606091505b5091509150613e03828286613e3f63ffffffff16565b92505050613e0e5650505b949350505050565b600060008273ffffffffffffffffffffffffffffffffffffffff163b119050613e3a565b919050565b60608315613e5357829050613eaa56613ea9565b600083511115613e6b5782518084602001fd50613ea8565b816040517f08c379a0000000000000000000000000000000000000000000000000000000008152600401613e9f91906154c7565b60405180910390fd5b5b5b9392505050565b6040518060400160405280600067ffffffffffffffff168152602001600077ffffffffffffffffffffffffffffffffffffffffffffffff1681526020015090565b604051806101200160405280600073ffffffffffffffffffffffffffffffffffffffff16815260200160008152602001600081526020016000815260200160006fffffffffffffffffffffffffffffffff168152602001600067ffffffffffffffff168152602001600063ffffffff168152602001600073ffffffffffffffffffffffffffffffffffffffff168152602001600067ffffffffffffffff1681526020015090565b6040518060400160405280600073ffffffffffffffffffffffffffffffffffffffff168152602001600067ffffffffffffffff16815260200150905661551b565b60208152601d60208201527f446f6573206e6f742061636365707420657468206469726563746c792e000000604082015260006060820190505b919050565b67ffffffffffffffff8116825250505b565b600060208201905067ffffffffffffffff831682525b92915050565b600060208201905073ffffffffffffffffffffffffffffffffffffffff831682525b92915050565b6000602082840312156140825760006000fd5b81357fffffffff000000000000000000000000000000000000000000000000000000008116811415156140b55760006000fd5b809150505b92915050565b600060208201905082151582525b92915050565b63ffffffff8116811415156140e95760006000fd5b505b565b6000813590506140fc816140d4565b5b919050565b6000600082840360c08112156141185760006000fd5b60a08112156141275760006000fd5b5082915060a0830135614139816140d4565b809150505b9250929050565b60006060820190506fffffffffffffffffffffffffffffffff851682528360208301528260408301525b949350505050565b73ffffffffffffffffffffffffffffffffffffffff81168114151561419c5760006000fd5b505b565b6000602082840312156141b35760006000fd5b81356141be81614177565b809150505b92915050565b60008135905061ffff8116811415156141e25760006000fd5b5b919050565b67ffffffffffffffff8116811415156142015760006000fd5b505b565b600081359050614214816141e8565b5b919050565b600060006040838503121561422f5760006000fd5b614238836141c9565b91506020830135614248816141e8565b809150505b9250929050565b6000600082840360a081121561426a5760006000fd5b60808112156142795760006000fd5b50829150608083013561428b816140d4565b809150505b9250929050565b60006040820190508382528260208301525b9392505050565b73ffffffffffffffffffffffffffffffffffffffff8116825250505b565b600060208201905073ffffffffffffffffffffffffffffffffffffffff831682525b92915050565b600060408201905067ffffffffffffffff8416825277ffffffffffffffffffffffffffffffffffffffffffffffff831660208301525b9392505050565b600060208201905061ffff831682525b92915050565b60006020828403121561435c5760006000fd5b614365826141c9565b90505b92915050565b60006000604083850312156143835760006000fd5b823561438e81614177565b8092505060208301356143a0816141e8565b809150505b9250929050565b600060408201905067ffffffffffffffff835116825277ffffffffffffffffffffffffffffffffffffffffffffffff60208401511660208301525b92915050565b801515811415156143fe5760006000fd5b505b565b6000602082840312156144155760006000fd5b8135614420816143ed565b809150505b92915050565b600060208201905073ffffffffffffffffffffffffffffffffffffffff831682525b92915050565b6000602082840312156144665760006000fd5b8135614471816141e8565b809150505b92915050565b60006000604083850312156144915760006000fd5b61449a836141c9565b915060208301356144aa816140d4565b809150505b9250929050565b7f4e487b7100000000000000000000000000000000000000000000000000000000600052604160045260246000fd5b565b60006040519050610120810181811067ffffffffffffffff821117156145105761450f6144b6565b5b80604052505b90565b60006040519050610120810181811067ffffffffffffffff82111715614542576145416144b6565b5b80604052505b90565b600060405190507fffffffffffffffffffffffffffffffffffffffffffffffffffffffffffffffe0601f830116810181811067ffffffffffffffff82111715614597576145966144b6565b5b80604052505b919050565b6000813590506145b181614177565b5b919050565b6fffffffffffffffffffffffffffffffff8116811415156145d85760006000fd5b505b565b6000813590506145eb816145b7565b5b919050565b6000604082840312156146045760006000fd5b6040516040810181811067ffffffffffffffff82111715614628576146276144b6565b5b80604052508091508235815260208301356020820152505b92915050565b60006000600083850361018081121561465f5760006000fd5b610120808212156146705760006000fd5b6146786144e7565b9150614683866145a2565b82526020860135602083015260408601356040830152606086013560608301526146af608087016145dc565b60808301526146c060a08701614205565b60a08301526146d160c087016140ed565b60c08301526146e260e087016145a2565b60e08301526101006146f5818801614205565b8184015250819450614709878288016145f1565b9350505061471a6101608501614205565b90505b9250925092565b63ffffffff8116825250505b565b73ffffffffffffffffffffffffffffffffffffffff81511682526020810151602083015260408101516040830152606081015160608301526fffffffffffffffffffffffffffffffff608082015116608083015260a081015161479860a0840182614019565b5060c08101516147ab60c0840182614724565b5060e08101516147be60e08401826142b0565b50610100808201516147d282850182614019565b505050505b565b6000610140820190506147ec8285614732565b826101208301525b9392505050565b60006000604083850312156148105760006000fd5b823567ffffffffffffffff808211156148295760006000fd5b818501915085601f83011215156148405760006000fd5b8135602082821115614855576148546144b6565b5b8160051b925061486681840161454b565b80838252828201915082858701019450898511156148845760006000fd5b82860195505b848610156148ad5761489b866141c9565b825282820191505b828601955061488a565b80975050506148bd8188016140ed565b9450505050505b9250929050565b600060408201905073ffffffffffffffffffffffffffffffffffffffff835116825267ffffffffffffffff60208401511660208301525b92915050565b60006020828403121561491b5760006000fd5b815161492681614177565b809150505b92915050565b600060a08201905086825285602083015284604083015283606083015273ffffffffffffffffffffffffffffffffffffffff831660808301525b9695505050505050565b600081519050614984816145b7565b5b919050565b600060006000606084860312156149a15760006000fd5b83516149ac816145b7565b8093505060208401519150604084015190505b9250925092565b7f4e487b7100000000000000000000000000000000000000000000000000000000600052601160045260246000fd5b565b60006fffffffffffffffffffffffffffffffff808316818516808303821115614a2357614a226149c6565b5b80820193505050505b92915050565b600060408201905073ffffffffffffffffffffffffffffffffffffffff841682526fffffffffffffffffffffffffffffffff831660208301525b9392505050565b60006101608201905073ffffffffffffffffffffffffffffffffffffffff8086168352808516602084015250614aac6040830184614732565b5b949350505050565b60208152600760208201527f496e76616c696400000000000000000000000000000000000000000000000000604082015260006060820190505b919050565b60208152601460208201527f496e63656e7469766520746f74616c2069732030000000000000000000000000604082015260006060820190505b919050565b600060208284031215614b465760006000fd5b8135614b51816145b7565b809150505b92915050565b60006fffffffffffffffffffffffffffffffff808316818516915081811015614b8857614b876149c6565b5b818103925050505b92915050565b600060208284031215614ba95760006000fd5b8151614bb4816143ed565b809150505b92915050565b600060208201905073ffffffffffffffffffffffffffffffffffffffff831682525b92915050565b600060208284031215614bfa5760006000fd5b815190505b92915050565b60208152601c60208201527f4d617820706572696f6420776974686472617720657863656564656400000000604082015260006060820190505b919050565b60006080820190506fffffffffffffffffffffffffffffffff8616825284602083015283604083015273ffffffffffffffffffffffffffffffffffffffff831660608301525b95945050505050565b6000600060408385031215614ca85760006000fd5b82519150602083015190505b9250929050565b60208152600b60208201527f506f6f6c20657869737473000000000000000000000000000000000000000000604082015260006060820190505b919050565b7f4e487b7100000000000000000000000000000000000000000000000000000000600052603260045260246000fd5b565b60007fffffffffffffffffffffffffffffffffffffffffffffffffffffffffffffffff821415614d5e57614d5d6149c6565b5b6001820190505b919050565b60208152601160208201527f6d6f7265207468616e2036342062697473000000000000000000000000000000604082015260006060820190505b919050565b7f4e487b7100000000000000000000000000000000000000000000000000000000600052601260045260246000fd5b565b600067ffffffffffffffff808416801515614df857614df7614da9565b5b8082851604925050505b92915050565b600067ffffffffffffffff808316818516915081811015614e2c57614e2b6149c6565b5b818103925050505b92915050565b60208152600d60208201527f4c50205265656e7472616e637900000000000000000000000000000000000000604082015260006060820190505b919050565b60208152601160208201527f50726f746f636f6c2073687574646f776e000000000000000000000000000000604082015260006060820190505b919050565b60208152600e60208201527f496e76616c696420706f6f6c4944000000000000000000000000000000000000604082015260006060820190505b919050565b600060408201905073ffffffffffffffffffffffffffffffffffffffff80851683528084166020840152505b9392505050565b600081519050614f3981614177565b5b919050565b600081519050614f4e816141e8565b5b919050565b600081519050614f63816140d4565b5b919050565b60006101208284031215614f7d5760006000fd5b614f85614519565b614f8e83614f2a565b8152602083015160208201526040830151604082015260608301516060820152614fba60808401614975565b6080820152614fcb60a08401614f3f565b60a0820152614fdc60c08401614f54565b60c0820152614fed60e08401614f2a565b60e0820152610100615000818501614f3f565b8183015250809150505b92915050565b60208152600e60208201527f4e6f7420417574686f72697a6564000000000000000000000000000000000000604082015260006060820190505b919050565b60208152601260208201527f416c726561647920726567697374657265640000000000000000000000000000604082015260006060820190505b919050565b600061ffff808316818114156150a7576150a66149c6565b5b60018101925050505b919050565b60208152601360208201527f436f6e74726163742069732073746f7070656400000000000000000000000000604082015260006060820190505b919050565b600082151561510657615105614da9565b5b82820490505b92915050565b600060408201905083825267ffffffffffffffff831660208301525b9392505050565b60208152601260208201527f4e6f20666c617368206c69717569646974790000000000000000000000000000604082015260006060820190505b919050565b6000604082840312156151875760006000fd5b6040516040810181811067ffffffffffffffff821117156151ab576151aa6144b6565b5b80604052508251815260208301516020820152809150505b92915050565b600060408201905073ffffffffffffffffffffffffffffffffffffffff841682528260208301525b9392505050565b60006020820190508282525b92915050565b600060608201905073ffffffffffffffffffffffffffffffffffffffff80861683528085166020840152508260408301525b949350505050565b600082821015615257576152566149c6565b5b82820390505b92915050565b60208152601260208201527f6d6f7265207468616e2031393220626974730000000000000000000000000000604082015260006060820190505b919050565b6000817fffffffffffffffffffffffffffffffffffffffffffffffffffffffffffffffff04831182151516156152db576152da6149c6565b5b82820290505b92915050565b600060608201905073ffffffffffffffffffffffffffffffffffffffff8416825282516020830152602083015160408301525b9392505050565b60008219821115615335576153346149c6565b5b82820190505b92915050565b6000602082840312156153545760006000fd5b815161535f816141e8565b809150505b92915050565b60208152602a60208201527f5361666545524332303a204552433230206f7065726174696f6e20646964206e60408201527f6f74207375636365656400000000000000000000000000000000000000000000606082015260006080820190505b919050565b60208152602660208201527f416464726573733a20696e73756666696369656e742062616c616e636520666f60408201527f722063616c6c0000000000000000000000000000000000000000000000000000606082015260006080820190505b919050565b60208152601d60208201527f416464726573733a2063616c6c20746f206e6f6e2d636f6e7472616374000000604082015260006060820190505b919050565b60005b838110156154925780820151818401525b602081019050615476565b838111156154a1576000848401525b505050505b565b600082516154ba818460208701615473565b8083019150505b92915050565b60208152600082518060208401526154e6816040850160208701615473565b60407fffffffffffffffffffffffffffffffffffffffffffffffffffffffffffffffe0601f8301168401019150505b92915050565bfea2646970667358221220aab352f6b0b3a7d41026d95859c279450b008d3cd22854e185d151524c88e2a964736f6c634300080c0033",
  "linkReferences": {},
  "deployedLinkReferences": {}
}