{
  "_format": "hh-sol-artifact-1",
  "contractName": "TickBitmapTest",
  "sourceName": "contracts/uniswap-v3-core/test/TickBitmapTest.sol",
  "abi": [
    {
      "inputs": [
        {
          "internalType": "int16",
          "name": "",
          "type": "int16"
        }
      ],
      "name": "bitmap",
      "outputs": [
        {
          "internalType": "uint256",
          "name": "",
          "type": "uint256"
        }
      ],
      "stateMutability": "view",
      "type": "function"
    },
    {
      "inputs": [
        {
          "internalType": "int24",
          "name": "tick",
          "type": "int24"
        }
      ],
      "name": "flipTick",
      "outputs": [],
      "stateMutability": "nonpayable",
      "type": "function"
    },
    {
      "inputs": [
        {
          "internalType": "int24",
          "name": "tick",
          "type": "int24"
        }
      ],
      "name": "getGasCostOfFlipTick",
      "outputs": [
        {
          "internalType": "uint256",
          "name": "",
          "type": "uint256"
        }
      ],
      "stateMutability": "nonpayable",
      "type": "function"
    },
    {
      "inputs": [
        {
          "internalType": "int24",
          "name": "tick",
          "type": "int24"
        },
        {
          "internalType": "bool",
          "name": "lte",
          "type": "bool"
        }
      ],
      "name": "getGasCostOfNextInitializedTickWithinOneWord",
      "outputs": [
        {
          "internalType": "uint256",
          "name": "",
          "type": "uint256"
        }
      ],
      "stateMutability": "view",
      "type": "function"
    },
    {
      "inputs": [
        {
          "internalType": "int24",
          "name": "tick",
          "type": "int24"
        }
      ],
      "name": "isInitialized",
      "outputs": [
        {
          "internalType": "bool",
          "name": "",
          "type": "bool"
        }
      ],
      "stateMutability": "view",
      "type": "function"
    },
    {
      "inputs": [
        {
          "internalType": "int24",
          "name": "tick",
          "type": "int24"
        },
        {
          "internalType": "bool",
          "name": "lte",
          "type": "bool"
        }
      ],
      "name": "nextInitializedTickWithinOneWord",
      "outputs": [
        {
          "internalType": "int24",
          "name": "next",
          "type": "int24"
        },
        {
          "internalType": "bool",
          "name": "initialized",
          "type": "bool"
        }
      ],
      "stateMutability": "view",
      "type": "function"
    }
  ],
  "bytecode": "0x60806040523480156100115760006000fd5b50610017565b610d3b806100266000396000f3fe60806040523480156100115760006000fd5b50600436106100775760003560e01c80638815912f116100515780638815912f1461010e578063f04bc9431461012a578063f0fc92241461015a57610077565b80632bdc2fd31461007d5780633e7ba228146100ad5780633ffc81ee146100de57610077565b60006000fd5b610097600480360381019061009291906108a5565b61018a565b6040516100a491906108ca565b60405180910390f35b6100c760048036038101906100c291906108de565b6101d7565b6040516100d5929190610920565b60405180910390f35b6100f860048036038101906100f3919061093e565b610207565b6040516101059190610970565b60405180910390f35b610128600480360381019061012391906108a5565b610222565b005b610144600480360381019061013f91906108a5565b610240565b6040516101519190610970565b60405180910390f35b610174600480360381019061016f91906108de565b61027b565b6040516101819190610970565b60405180910390f35b6000600060006101ad846001600160006000506102bb909392919063ffffffff16565b915091508360020b8260020b146101c55760006101c7565b805b925050506101d25650505b919050565b600060006101f78460018560006000506102bb909392919063ffffffff16565b91509150610200565b9250929050565b60006000506020528060005260406000206000915090505481565b61023c81600160006000506104d39092919063ffffffff16565b5b50565b600060005a905061026183600160006000506104d39092919063ffffffff16565b5a8161026d91906109b3565b91505061027656505b919050565b600060005a905061029e8460018560006000506102bb909392919063ffffffff16565b50505a816102ac91906109b3565b9150506102b556505b92915050565b60006000600084866102cd9190610a03565b905060008660020b1280156102f15750600085876102eb9190610a80565b60020b14155b1561030557808061030190610aa6565b9150505b83156103dc576000600061031e8361055263ffffffff16565b9150915060008160ff166001901b60018360ff166001901b61034091906109b3565b61034a9190610b09565b90506000818b60008660010b60010b8152602001908152602001600020600050541690506000811415955085508561039b57888360ff168661038c9190610b29565b6103969190610b94565b6103cf565b886103ab8261057a63ffffffff16565b846103b69190610c44565b60ff16866103c49190610b29565b6103ce9190610b94565b5b96508650505050506104c8565b600060006103fb6001846103f09190610c6d565b61055263ffffffff16565b91509150600060018260ff166001901b61041591906109b3565b1990506000818b60008660010b60010b8152602001908152602001600020600050541690506000811415955085508561047f57888360ff6104569190610c44565b60ff166001876104669190610c6d565b6104709190610c6d565b61047a9190610b94565b6104bf565b8883610490836106d063ffffffff16565b61049a9190610c44565b60ff166001876104aa9190610c6d565b6104b49190610c6d565b6104be9190610b94565b5b96508650505050505b505b94509492505050565b600081836104e19190610a80565b60020b1415156104f15760006000fd5b6000600061050f83856105049190610a03565b61055263ffffffff16565b9150915060008160ff166001901b9050808660008560010b60010b815260200190815260200160002060008282825054189250508190909055505050505b505050565b6000600060088360020b901d91508150610100836105709190610a80565b905080505b915091565b600060008211151561058c5760006000fd5b700100000000000000000000000000000000821015156105c157608082901c915081506080816105bc9190610cd8565b905080505b68010000000000000000821015156105ee57604082901c915081506040816105e99190610cd8565b905080505b6401000000008210151561061757602082901c915081506020816106129190610cd8565b905080505b620100008210151561063e57601082901c915081506010816106399190610cd8565b905080505b6101008210151561066457600882901c9150815060088161065f9190610cd8565b905080505b60108210151561068957600482901c915081506004816106849190610cd8565b905080505b6004821015156106ae57600282901c915081506002816106a99190610cd8565b905080505b6002821015156106ca576001816106c59190610cd8565b905080505b5b919050565b60006000821115156106e25760006000fd5b60ff9050805060006fffffffffffffffffffffffffffffffff6fffffffffffffffffffffffffffffffff168316111561072b576080816107229190610c44565b90508050610735565b608082901c915081505b600067ffffffffffffffff67ffffffffffffffff16831611156107685760408161075f9190610c44565b90508050610772565b604082901c915081505b600063ffffffff63ffffffff168316111561079d576020816107949190610c44565b905080506107a7565b602082901c915081505b600061ffff61ffff16831611156107ce576010816107c59190610c44565b905080506107d8565b601082901c915081505b600060ff60ff16831611156107fd576008816107f49190610c44565b90508050610807565b600882901c915081505b6000600f83161115610829576004816108209190610c44565b90508050610833565b600482901c915081505b60006003831611156108555760028161084c9190610c44565b9050805061085f565b600282901c915081505b600060018316111561087d576001816108789190610c44565b905080505b5b91905056610d04565b6000813590508060020b8114151561089f5760006000fd5b5b919050565b6000602082840312156108b85760006000fd5b6108c182610887565b90505b92915050565b600060208201905082151582525b92915050565b60006000604083850312156108f35760006000fd5b6108fc83610887565b91506020830135801515811415156109145760006000fd5b809150505b9250929050565b60006040820190508360020b825282151560208301525b9392505050565b6000602082840312156109515760006000fd5b81358060010b811415156109655760006000fd5b809150505b92915050565b60006020820190508282525b92915050565b7f4e487b7100000000000000000000000000000000000000000000000000000000600052601160045260246000fd5b565b6000828210156109c6576109c5610982565b5b82820390505b92915050565b7f4e487b7100000000000000000000000000000000000000000000000000000000600052601260045260246000fd5b565b60008160020b8360020b801515610a1d57610a1c6109d2565b5b7fffffffffffffffffffffffffffffffffffffffffffffffffffffffffffffffff81147fffffffffffffffffffffffffffffffffffffffffffffffffffffffffff80000083141615610a7257610a71610982565b5b808205925050505b92915050565b60008260020b801515610a9657610a956109d2565b5b808360020b079150505b92915050565b60008160020b7fffffffffffffffffffffffffffffffffffffffffffffffffffffffffff800000811415610add57610adc610982565b5b7fffffffffffffffffffffffffffffffffffffffffffffffffffffffffffffffff81019150505b919050565b60008219821115610b1d57610b1c610982565b5b82820190505b92915050565b60008160020b8360020b60008112817fffffffffffffffffffffffffffffffffffffffffffffffffffffffffff80000001831281151615610b6d57610b6c610982565b5b81627fffff018313811615610b8557610b84610982565b5b50808203925050505b92915050565b60008160020b8360020b627fffff600082136000841383830485118282161615610bc157610bc0610982565b5b7fffffffffffffffffffffffffffffffffffffffffffffffffffffffffff8000006000851286820586128184161615610bfd57610bfc610982565b5b60008712925085820587128484161615610c1a57610c19610982565b5b85850587128184161615610c3157610c30610982565b5b5050505050808202925050505b92915050565b600060ff821660ff841680821015610c5f57610c5e610982565b5b808203925050505b92915050565b60008160020b8360020b6000821282627fffff03821381151615610c9457610c93610982565b5b827fffffffffffffffffffffffffffffffffffffffffffffffffffffffffff800000038212811615610cc957610cc8610982565b5b50808201925050505b92915050565b600060ff821660ff84168060ff03821115610cf657610cf5610982565b5b808201925050505b92915050565bfea264697066735822122073bda14f5aaabe10bbc76c6f64d5a377c15ff42daf3973dc13caf4089633bacc64736f6c634300080c0033",
  "linkReferences": {},
  "deployedLinkReferences": {}
}