{
  "_format": "hh-sol-artifact-1",
  "contractName": "MockTcpAllocation",
  "sourceName": "contracts/core/mocks/MockTcpAllocation.sol",
  "abi": [
    {
      "inputs": [
        {
          "internalType": "address",
          "name": "",
          "type": "address"
        }
      ],
      "name": "allocations",
      "outputs": [
        {
          "internalType": "uint128",
          "name": "",
          "type": "uint128"
        }
      ],
      "stateMutability": "view",
      "type": "function"
    },
    {
      "inputs": [
        {
          "internalType": "address",
          "name": "",
          "type": "address"
        },
        {
          "internalType": "uint128",
          "name": "",
          "type": "uint128"
        }
      ],
      "name": "getTokens",
      "outputs": [],
      "stateMutability": "nonpayable",
      "type": "function"
    },
    {
      "inputs": [],
      "name": "incentiveAllocation",
      "outputs": [
        {
          "internalType": "address",
          "name": "",
          "type": "address"
        }
      ],
      "stateMutability": "view",
      "type": "function"
    },
    {
      "inputs": [
        {
          "internalType": "address",
          "name": "allocatee",
          "type": "address"
        },
        {
          "internalType": "uint128",
          "name": "count",
          "type": "uint128"
        }
      ],
      "name": "increaseAllocation",
      "outputs": [],
      "stateMutability": "nonpayable",
      "type": "function"
    },
    {
      "inputs": [
        {
          "internalType": "address",
          "name": "",
          "type": "address"
        },
        {
          "internalType": "uint128",
          "name": "",
          "type": "uint128"
        },
        {
          "internalType": "uint8",
          "name": "",
          "type": "uint8"
        }
      ],
      "name": "lockTokensIntoDao",
      "outputs": [],
      "stateMutability": "nonpayable",
      "type": "function"
    }
  ],
  "bytecode": "0x60806040523480156100115760006000fd5b50610017565b610523806100266000396000f3fe60806040523480156100115760006000fd5b506004361061006c5760003560e01c8063628e2e8511610051578063628e2e85146100c0578063a9778eb0146100dc578063ee5f1ee4146100f85761006c565b8063262406de1461007257806352a9039c146100905761006c565b60006000fd5b61007a610114565b60405161008791906102f4565b60405180910390f35b6100aa60048036038101906100a5919061034d565b610122565b6040516100b79190610372565b60405180910390f35b6100da60048036038101906100d591906103c3565b610156565b005b6100f660048036038101906100f19190610416565b610196565b005b610112600480360381019061010d9190610416565b6101d5565b005b60006000905061011f565b90565b600060005060205280600052604060002060009150909054906101000a90046fffffffffffffffffffffffffffffffff1681565b6040517f08c379a00000000000000000000000000000000000000000000000000000000081526004016101889061044c565b60405180910390fd5b505050565b6040517f08c379a00000000000000000000000000000000000000000000000000000000081526004016101c89061044c565b60405180910390fd5b5050565b61025881600060005060008573ffffffffffffffffffffffffffffffffffffffff1673ffffffffffffffffffffffffffffffffffffffff16815260200190815260200160002060009054906101000a90046fffffffffffffffffffffffffffffffff166fffffffffffffffffffffffffffffffff166102d590919063ffffffff16565b600060005060008473ffffffffffffffffffffffffffffffffffffffff1673ffffffffffffffffffffffffffffffffffffffff16815260200190815260200160002060006101000a8154816fffffffffffffffffffffffffffffffff02191690836fffffffffffffffffffffffffffffffff1602179055505b5050565b600081836102e3919061048b565b90506102ea565b92915050566104ec565b600060208201905073ffffffffffffffffffffffffffffffffffffffff831682525b92915050565b60008135905073ffffffffffffffffffffffffffffffffffffffff8116811415156103475760006000fd5b5b919050565b6000602082840312156103605760006000fd5b6103698261031c565b90505b92915050565b60006020820190506fffffffffffffffffffffffffffffffff831682525b92915050565b6000813590506fffffffffffffffffffffffffffffffff8116811415156103bd5760006000fd5b5b919050565b600060006000606084860312156103da5760006000fd5b6103e38461031c565b92506103f160208501610396565b9150604084013560ff81168114151561040a5760006000fd5b809150505b9250925092565b600060006040838503121561042b5760006000fd5b6104348361031c565b915061044260208401610396565b90505b9250929050565b60208152600f60208201527f4e6f7420496d706c656d656e7465640000000000000000000000000000000000604082015260006060820190505b919050565b60006fffffffffffffffffffffffffffffffff8083168185168083038211156104dd577f4e487b7100000000000000000000000000000000000000000000000000000000600052601160045260246000fd5b80820193505050505b92915050565bfea2646970667358221220cb8da426f33475f0c5e4ab48830c2fd0334f13f2a70c6ad533505d6d0c6fb21a64736f6c634300080c0033",
  "linkReferences": {},
  "deployedLinkReferences": {}
}