{
  "_format": "hh-sol-artifact-1",
  "contractName": "GovernorTestable",
  "sourceName": "contracts/core/mocks/GovernorTestable.sol",
  "abi": [
    {
      "anonymous": false,
      "inputs": [
        {
          "indexed": true,
          "internalType": "string",
          "name": "contractName",
          "type": "string"
        },
        {
          "indexed": true,
          "internalType": "address",
          "name": "contractAddress",
          "type": "address"
        }
      ],
      "name": "ContractUpgraded",
      "type": "event"
    },
    {
      "anonymous": false,
      "inputs": [
        {
          "indexed": true,
          "internalType": "address",
          "name": "newGovernor",
          "type": "address"
        }
      ],
      "name": "ProtocolUpgraded",
      "type": "event"
    },
    {
      "anonymous": false,
      "inputs": [],
      "name": "ShutdownExecuted",
      "type": "event"
    },
    {
      "anonymous": false,
      "inputs": [
        {
          "indexed": true,
          "internalType": "address",
          "name": "locker",
          "type": "address"
        },
        {
          "indexed": false,
          "internalType": "uint256",
          "name": "count",
          "type": "uint256"
        }
      ],
      "name": "ShutdownTokensLocked",
      "type": "event"
    },
    {
      "anonymous": false,
      "inputs": [
        {
          "indexed": true,
          "internalType": "address",
          "name": "locker",
          "type": "address"
        },
        {
          "indexed": false,
          "internalType": "uint256",
          "name": "count",
          "type": "uint256"
        }
      ],
      "name": "ShutdownTokensUnlocked",
      "type": "event"
    },
    {
      "inputs": [],
      "name": "EMERGENCY_SHUTDOWN_THRESHOLD",
      "outputs": [
        {
          "internalType": "uint256",
          "name": "",
          "type": "uint256"
        }
      ],
      "stateMutability": "view",
      "type": "function"
    },
    {
      "inputs": [],
      "name": "accounting",
      "outputs": [
        {
          "internalType": "contract IAccounting",
          "name": "",
          "type": "address"
        }
      ],
      "stateMutability": "view",
      "type": "function"
    },
    {
      "inputs": [],
      "name": "auctions",
      "outputs": [
        {
          "internalType": "contract IAuctions",
          "name": "",
          "type": "address"
        }
      ],
      "stateMutability": "view",
      "type": "function"
    },
    {
      "inputs": [],
      "name": "borrowRewardsPortion",
      "outputs": [
        {
          "internalType": "uint64",
          "name": "",
          "type": "uint64"
        }
      ],
      "stateMutability": "view",
      "type": "function"
    },
    {
      "inputs": [],
      "name": "calculateCurrentDailyDebtRewardCount",
      "outputs": [
        {
          "internalType": "uint256",
          "name": "",
          "type": "uint256"
        }
      ],
      "stateMutability": "nonpayable",
      "type": "function"
    },
    {
      "inputs": [],
      "name": "calculateCurrentDailyLiquidityRewardCount",
      "outputs": [
        {
          "internalType": "uint256",
          "name": "",
          "type": "uint256"
        }
      ],
      "stateMutability": "nonpayable",
      "type": "function"
    },
    {
      "inputs": [],
      "name": "currentPeriod",
      "outputs": [
        {
          "internalType": "uint64",
          "name": "period",
          "type": "uint64"
        }
      ],
      "stateMutability": "view",
      "type": "function"
    },
    {
      "inputs": [],
      "name": "currentPhase",
      "outputs": [
        {
          "internalType": "uint8",
          "name": "",
          "type": "uint8"
        }
      ],
      "stateMutability": "view",
      "type": "function"
    },
    {
      "inputs": [],
      "name": "deployer",
      "outputs": [
        {
          "internalType": "address",
          "name": "",
          "type": "address"
        }
      ],
      "stateMutability": "view",
      "type": "function"
    },
    {
      "inputs": [],
      "name": "emergencyShutdownThresholdMet",
      "outputs": [
        {
          "internalType": "bool",
          "name": "",
          "type": "bool"
        }
      ],
      "stateMutability": "view",
      "type": "function"
    },
    {
      "inputs": [
        {
          "internalType": "address",
          "name": "",
          "type": "address"
        }
      ],
      "name": "emergencyShutdownTokensLocked",
      "outputs": [
        {
          "internalType": "uint256",
          "name": "",
          "type": "uint256"
        }
      ],
      "stateMutability": "view",
      "type": "function"
    },
    {
      "inputs": [],
      "name": "enforcedDecentralization",
      "outputs": [
        {
          "internalType": "contract IEnforcedDecentralization",
          "name": "",
          "type": "address"
        }
      ],
      "stateMutability": "view",
      "type": "function"
    },
    {
      "inputs": [
        {
          "internalType": "address",
          "name": "target",
          "type": "address"
        },
        {
          "internalType": "string",
          "name": "signature",
          "type": "string"
        },
        {
          "internalType": "bytes",
          "name": "data",
          "type": "bytes"
        }
      ],
      "name": "execute",
      "outputs": [
        {
          "internalType": "bool",
          "name": "success",
          "type": "bool"
        },
        {
          "internalType": "bytes",
          "name": "returnData",
          "type": "bytes"
        }
      ],
      "stateMutability": "nonpayable",
      "type": "function"
    },
    {
      "inputs": [],
      "name": "executeEmergencyShutdown",
      "outputs": [],
      "stateMutability": "nonpayable",
      "type": "function"
    },
    {
      "inputs": [],
      "name": "executeShutdown",
      "outputs": [],
      "stateMutability": "nonpayable",
      "type": "function"
    },
    {
      "inputs": [],
      "name": "firstPeriod",
      "outputs": [
        {
          "internalType": "uint64",
          "name": "",
          "type": "uint64"
        }
      ],
      "stateMutability": "view",
      "type": "function"
    },
    {
      "inputs": [],
      "name": "firstRewardsPeriod",
      "outputs": [
        {
          "internalType": "uint64",
          "name": "",
          "type": "uint64"
        }
      ],
      "stateMutability": "view",
      "type": "function"
    },
    {
      "inputs": [],
      "name": "governorAlpha",
      "outputs": [
        {
          "internalType": "address",
          "name": "",
          "type": "address"
        }
      ],
      "stateMutability": "view",
      "type": "function"
    },
    {
      "inputs": [],
      "name": "hue",
      "outputs": [
        {
          "internalType": "contract IHue",
          "name": "",
          "type": "address"
        }
      ],
      "stateMutability": "view",
      "type": "function"
    },
    {
      "inputs": [],
      "name": "huePositionNFT",
      "outputs": [
        {
          "internalType": "contract IPositionNFT",
          "name": "",
          "type": "address"
        }
      ],
      "stateMutability": "view",
      "type": "function"
    },
    {
      "inputs": [
        {
          "internalType": "address",
          "name": "to",
          "type": "address"
        },
        {
          "internalType": "uint256",
          "name": "count",
          "type": "uint256"
        }
      ],
      "name": "increaseTCPAllocation",
      "outputs": [],
      "stateMutability": "nonpayable",
      "type": "function"
    },
    {
      "inputs": [
        {
          "internalType": "address",
          "name": "to",
          "type": "address"
        },
        {
          "internalType": "uint256",
          "name": "count",
          "type": "uint256"
        }
      ],
      "name": "increaseTCPAllocationOverride",
      "outputs": [],
      "stateMutability": "nonpayable",
      "type": "function"
    },
    {
      "inputs": [
        {
          "components": [
            {
              "internalType": "contract IAccounting",
              "name": "accounting",
              "type": "address"
            },
            {
              "internalType": "contract IAuctions",
              "name": "auctions",
              "type": "address"
            },
            {
              "internalType": "contract IEnforcedDecentralization",
              "name": "enforcedDecentralization",
              "type": "address"
            },
            {
              "internalType": "address",
              "name": "governorAlpha",
              "type": "address"
            },
            {
              "internalType": "contract IHue",
              "name": "hue",
              "type": "address"
            },
            {
              "internalType": "contract IPositionNFT",
              "name": "huePositionNFT",
              "type": "address"
            },
            {
              "internalType": "contract ILendHue",
              "name": "lendHue",
              "type": "address"
            },
            {
              "internalType": "contract ILiquidations",
              "name": "liquidations",
              "type": "address"
            },
            {
              "internalType": "contract IMarket",
              "name": "market",
              "type": "address"
            },
            {
              "internalType": "contract IPrices",
              "name": "prices",
              "type": "address"
            },
            {
              "internalType": "contract IProtocolLock",
              "name": "protocolLock",
              "type": "address"
            },
            {
              "internalType": "contract IRates",
              "name": "rates",
              "type": "address"
            },
            {
              "internalType": "contract IRewards",
              "name": "rewards",
              "type": "address"
            },
            {
              "internalType": "contract ISettlement",
              "name": "settlement",
              "type": "address"
            },
            {
              "internalType": "contract ITCP",
              "name": "tcp",
              "type": "address"
            },
            {
              "internalType": "address",
              "name": "timelock",
              "type": "address"
            },
            {
              "internalType": "contract TcpAllocation",
              "name": "tcpAllocation",
              "type": "address"
            }
          ],
          "internalType": "struct IGovernor.ProtocolData",
          "name": "pd",
          "type": "tuple"
        }
      ],
      "name": "init",
      "outputs": [],
      "stateMutability": "nonpayable",
      "type": "function"
    },
    {
      "inputs": [],
      "name": "isShutdown",
      "outputs": [
        {
          "internalType": "bool",
          "name": "",
          "type": "bool"
        }
      ],
      "stateMutability": "view",
      "type": "function"
    },
    {
      "inputs": [],
      "name": "lendHue",
      "outputs": [
        {
          "internalType": "contract ILendHue",
          "name": "",
          "type": "address"
        }
      ],
      "stateMutability": "view",
      "type": "function"
    },
    {
      "inputs": [],
      "name": "liquidations",
      "outputs": [
        {
          "internalType": "contract ILiquidations",
          "name": "",
          "type": "address"
        }
      ],
      "stateMutability": "view",
      "type": "function"
    },
    {
      "inputs": [
        {
          "internalType": "uint256",
          "name": "count",
          "type": "uint256"
        }
      ],
      "name": "lockTokensForEmergencyShutdown",
      "outputs": [],
      "stateMutability": "nonpayable",
      "type": "function"
    },
    {
      "inputs": [],
      "name": "market",
      "outputs": [
        {
          "internalType": "contract IMarket",
          "name": "",
          "type": "address"
        }
      ],
      "stateMutability": "view",
      "type": "function"
    },
    {
      "inputs": [],
      "name": "maxTotalDailyRewardsAllocation",
      "outputs": [
        {
          "internalType": "uint256",
          "name": "",
          "type": "uint256"
        }
      ],
      "stateMutability": "view",
      "type": "function"
    },
    {
      "inputs": [
        {
          "internalType": "address",
          "name": "to",
          "type": "address"
        },
        {
          "internalType": "uint256",
          "name": "count",
          "type": "uint256"
        }
      ],
      "name": "mintIncentive",
      "outputs": [],
      "stateMutability": "nonpayable",
      "type": "function"
    },
    {
      "inputs": [
        {
          "internalType": "address",
          "name": "to",
          "type": "address"
        },
        {
          "internalType": "uint256",
          "name": "count",
          "type": "uint256"
        }
      ],
      "name": "mintVotingRewards",
      "outputs": [],
      "stateMutability": "nonpayable",
      "type": "function"
    },
    {
      "inputs": [],
      "name": "periodLength",
      "outputs": [
        {
          "internalType": "uint64",
          "name": "",
          "type": "uint64"
        }
      ],
      "stateMutability": "view",
      "type": "function"
    },
    {
      "inputs": [],
      "name": "periodRewards",
      "outputs": [
        {
          "internalType": "uint216",
          "name": "periodRewards",
          "type": "uint216"
        },
        {
          "internalType": "uint40",
          "name": "currentCalculatedPeriod",
          "type": "uint40"
        }
      ],
      "stateMutability": "view",
      "type": "function"
    },
    {
      "inputs": [],
      "name": "prices",
      "outputs": [
        {
          "internalType": "contract IPrices",
          "name": "",
          "type": "address"
        }
      ],
      "stateMutability": "view",
      "type": "function"
    },
    {
      "inputs": [],
      "name": "protocolLock",
      "outputs": [
        {
          "internalType": "contract IProtocolLock",
          "name": "",
          "type": "address"
        }
      ],
      "stateMutability": "view",
      "type": "function"
    },
    {
      "inputs": [],
      "name": "rates",
      "outputs": [
        {
          "internalType": "contract IRates",
          "name": "",
          "type": "address"
        }
      ],
      "stateMutability": "view",
      "type": "function"
    },
    {
      "inputs": [
        {
          "internalType": "address",
          "name": "caller",
          "type": "address"
        }
      ],
      "name": "requireDebtServicesAccess",
      "outputs": [],
      "stateMutability": "view",
      "type": "function"
    },
    {
      "inputs": [
        {
          "internalType": "address",
          "name": "caller",
          "type": "address"
        }
      ],
      "name": "requireHueReservesBurnAccess",
      "outputs": [],
      "stateMutability": "view",
      "type": "function"
    },
    {
      "inputs": [
        {
          "internalType": "address",
          "name": "caller",
          "type": "address"
        }
      ],
      "name": "requireInitializePoolAccess",
      "outputs": [],
      "stateMutability": "view",
      "type": "function"
    },
    {
      "inputs": [
        {
          "internalType": "address",
          "name": "caller",
          "type": "address"
        }
      ],
      "name": "requireUpdatePositionAccess",
      "outputs": [],
      "stateMutability": "view",
      "type": "function"
    },
    {
      "inputs": [
        {
          "internalType": "address",
          "name": "target",
          "type": "address"
        },
        {
          "internalType": "string",
          "name": "signature",
          "type": "string"
        }
      ],
      "name": "requireValidAction",
      "outputs": [],
      "stateMutability": "view",
      "type": "function"
    },
    {
      "inputs": [],
      "name": "rewards",
      "outputs": [
        {
          "internalType": "contract IRewards",
          "name": "",
          "type": "address"
        }
      ],
      "stateMutability": "view",
      "type": "function"
    },
    {
      "inputs": [
        {
          "internalType": "uint64",
          "name": "portion",
          "type": "uint64"
        }
      ],
      "name": "setBorrowRewardsPortion",
      "outputs": [],
      "stateMutability": "nonpayable",
      "type": "function"
    },
    {
      "inputs": [],
      "name": "setFirstRewardsPeriodToCurrentPeriod",
      "outputs": [],
      "stateMutability": "nonpayable",
      "type": "function"
    },
    {
      "inputs": [
        {
          "internalType": "contract TcpAllocation",
          "name": "mockTcpAllocation",
          "type": "address"
        }
      ],
      "name": "setMockTcpAllocation",
      "outputs": [],
      "stateMutability": "nonpayable",
      "type": "function"
    },
    {
      "inputs": [
        {
          "internalType": "uint64",
          "name": "phaseOneStartTime",
          "type": "uint64"
        }
      ],
      "name": "setPhaseOneStartTime",
      "outputs": [],
      "stateMutability": "nonpayable",
      "type": "function"
    },
    {
      "inputs": [],
      "name": "settlement",
      "outputs": [
        {
          "internalType": "contract ISettlement",
          "name": "",
          "type": "address"
        }
      ],
      "stateMutability": "view",
      "type": "function"
    },
    {
      "inputs": [],
      "name": "shutdownTime",
      "outputs": [
        {
          "internalType": "uint64",
          "name": "",
          "type": "uint64"
        }
      ],
      "stateMutability": "view",
      "type": "function"
    },
    {
      "inputs": [],
      "name": "tcp",
      "outputs": [
        {
          "internalType": "contract ITCP",
          "name": "",
          "type": "address"
        }
      ],
      "stateMutability": "view",
      "type": "function"
    },
    {
      "inputs": [],
      "name": "tcpAllocation",
      "outputs": [
        {
          "internalType": "contract TcpAllocation",
          "name": "",
          "type": "address"
        }
      ],
      "stateMutability": "view",
      "type": "function"
    },
    {
      "inputs": [],
      "name": "timelock",
      "outputs": [
        {
          "internalType": "address",
          "name": "",
          "type": "address"
        }
      ],
      "stateMutability": "view",
      "type": "function"
    },
    {
      "inputs": [],
      "name": "totalTcpAllocated",
      "outputs": [
        {
          "internalType": "uint256",
          "name": "",
          "type": "uint256"
        }
      ],
      "stateMutability": "view",
      "type": "function"
    },
    {
      "inputs": [],
      "name": "unlockTokensForEmergencyShutdown",
      "outputs": [],
      "stateMutability": "nonpayable",
      "type": "function"
    },
    {
      "inputs": [
        {
          "internalType": "address",
          "name": "_auctions",
          "type": "address"
        }
      ],
      "name": "upgradeAuctions",
      "outputs": [],
      "stateMutability": "nonpayable",
      "type": "function"
    },
    {
      "inputs": [
        {
          "internalType": "address",
          "name": "_liquidations",
          "type": "address"
        }
      ],
      "name": "upgradeLiquidations",
      "outputs": [],
      "stateMutability": "nonpayable",
      "type": "function"
    },
    {
      "inputs": [
        {
          "internalType": "address",
          "name": "_market",
          "type": "address"
        }
      ],
      "name": "upgradeMarket",
      "outputs": [],
      "stateMutability": "nonpayable",
      "type": "function"
    },
    {
      "inputs": [
        {
          "internalType": "address",
          "name": "_prices",
          "type": "address"
        }
      ],
      "name": "upgradePrices",
      "outputs": [],
      "stateMutability": "nonpayable",
      "type": "function"
    },
    {
      "inputs": [
        {
          "internalType": "address",
          "name": "newGovernor",
          "type": "address"
        }
      ],
      "name": "upgradeProtocol",
      "outputs": [],
      "stateMutability": "nonpayable",
      "type": "function"
    },
    {
      "inputs": [
        {
          "internalType": "address",
          "name": "_rates",
          "type": "address"
        }
      ],
      "name": "upgradeRates",
      "outputs": [],
      "stateMutability": "nonpayable",
      "type": "function"
    },
    {
      "inputs": [
        {
          "internalType": "address",
          "name": "_rewards",
          "type": "address"
        }
      ],
      "name": "upgradeRewards",
      "outputs": [],
      "stateMutability": "nonpayable",
      "type": "function"
    },
    {
      "inputs": [
        {
          "internalType": "address",
          "name": "_settlement",
          "type": "address"
        }
      ],
      "name": "upgradeSettlement",
      "outputs": [],
      "stateMutability": "nonpayable",
      "type": "function"
    },
    {
      "inputs": [
        {
          "internalType": "bytes4",
          "name": "",
          "type": "bytes4"
        }
      ],
      "name": "validUpdate",
      "outputs": [
        {
          "internalType": "bool",
          "name": "",
          "type": "bool"
        }
      ],
      "stateMutability": "view",
      "type": "function"
    }
  ],
  "bytecode": "0x60c06040526706f05b59d3b20000600160006101000a81548167ffffffffffffffff021916908367ffffffffffffffff1602179055507fffffffffffffffffffffffffffffffffffffffffffffffffffffffffffffffff601760005090905560016019600050909055691fc3842bd1f071c00000601c600050909055348015620000895760006000fd5b505b5b620151805b600181620000a46200039160201b60201c565b620000b0919062000457565b620000bc919062000490565b67ffffffffffffffff1660a08167ffffffffffffffff1660c01b815260080150508067ffffffffffffffff1660808167ffffffffffffffff1660c01b815260080150505b50600160006000508190909055505b60405180604001604052807a03a573c963324b20cc56ca03bbbd35831cb7d9c0000000000000007affffffffffffffffffffffffffffffffffffffffffffffffffffff168152602001600064ffffffffff16815260200150601a60005060008201518160000160006101000a8154817affffffffffffffffffffffffffffffffffffffffffffffffffffff02191690837affffffffffffffffffffffffffffffffffffffffffffffffffffff160217905550602082015181600001601b6101000a81548164ffffffffff021916908364ffffffffff16021790555090505060016015600050600063232948ea60e01b7bffffffffffffffffffffffffffffffffffffffffffffffffffffffff19167bffffffffffffffffffffffffffffffffffffffffffffffffffffffff1916815260200190815260200160002060006101000a81548160ff02191690831515021790555060016015600050600063b8188c8160e01b7bffffffffffffffffffffffffffffffffffffffffffffffffffffffff19167bffffffffffffffffffffffffffffffffffffffffffffffffffffffff1916815260200190815260200160002060006101000a81548160ff02191690831515021790555060016015600050600063b4b6882b60e01b7bffffffffffffffffffffffffffffffffffffffffffffffffffffffff19167bffffffffffffffffffffffffffffffffffffffffffffffffffffffff1916815260200190815260200160002060006101000a81548160ff02191690831515021790555033601660006101000a81548173ffffffffffffffffffffffffffffffffffffffff021916908373ffffffffffffffffffffffffffffffffffffffff1602179055505b620004ce565b6000620003ab42620003b360201b62004b3c17909060201c565b905080505b90565b6000680100000000000000008210151562000405576040517f08c379a0000000000000000000000000000000000000000000000000000000008152600401620003fc9062000418565b60405180910390fd5b8190506200040e565b91905056620004cd565b60208152601160208201527f6d6f7265207468616e2036342062697473000000000000000000000000000000604082015260006060820190505b919050565b60006001600160401b038084168015156200048057634e487b7160e01b83526012600452602483fd5b8082851604925050505b92915050565b60006001600160401b03808316818516915081811015620004bf57634e487b7160e01b83526011600452602483fd5b818103925050505b92915050565b5b60805160c01c60a05160c01c616e216200052460003960008181613df801528181614b9c015281816154d9015261555101526000818161407401528181614bbd015281816154fa015261558a0152616e216000f3fe60806040523480156100115760006000fd5b50600436106103bf5760003560e01c806388a4bfb7116101f5578063c4e3a63b1161011b578063e6ce76e3116100ae578063f6fbc1921161007d578063f6fbc19214610a63578063fd43008514610a6d578063fe47727714610a8b578063ff26df7214610aa9576103bf565b8063e6ce76e3146109ef578063e97a99b614610a0d578063ebe3939314610a29578063f00000ee14610a45576103bf565b8063d33219b4116100ea578063d33219b414610977578063d3419bf314610995578063d478b087146109b3578063d5f39488146109d1576103bf565b8063c4e3a63b14610913578063ce49968214610931578063d0d8ab9a1461094f578063d2ca211514610959576103bf565b8063a43c36af11610193578063b8188c8111610162578063b8188c81146108a1578063b971dc05146108bd578063bb0971b7146108d9578063bf86d690146108f5576103bf565b8063a43c36af1461082d578063a5d4198b14610849578063a89f51ae14610867578063b4b6882b14610885576103bf565b80639624e83e116101cf5780639624e83e146107b75780639a371c84146107d55780639ec5a894146107f3578063a1c1f90d14610811576103bf565b806388a4bfb7146107635780638f40b82f1461077f5780639622cd8f1461079b576103bf565b806343f48fbd116102e55780636c1323a81161027857806380b5c6651161024757806380b5c665146106ef57806380f556051461070b57806383208f531461072957806385aa610314610745576103bf565b80636c1323a81461067c578063734875a81461069b5780637c114fed146106b757806380304d09146106d3576103bf565b80634d6729f5116102b45780634d6729f51461060857806351160630146106245780635856908114610642578063628c84b514610660576103bf565b806343f48fbd1461059257806349dfaa1c146105b05780634b414e32146105ce5780634cd7a315146105ec576103bf565b8063232948ea1161035d57806333daf5d41161032c57806333daf5d4146105095780633567c0611461053a57806336fc02f4146105445780633f88b0c514610562576103bf565b8063232948ea146104a75780632af75edf146104b15780632cae0269146104cd57806332374174146104eb576103bf565b80630a86f109116103995780630a86f1091461041d578063113cf1ab1461043b57806318c7de171461046b578063216ad0b214610489576103bf565b8063055ad42e146103c557806306040618146103e35780630793298714610401576103bf565b60006000fd5b6103cd610ac5565b6040516103da9190616b4c565b60405180910390f35b6103eb610b73565b6040516103f89190616b30565b60405180910390f35b61041b60048036038101906104169190615cc7565b610b8b565b005b610425610ce6565b6040516104329190616b30565b60405180910390f35b61045560048036038101906104509190615d25565b610d00565b60405161046291906163f8565b60405180910390f35b610473610d25565b6040516104809190616b1e565b60405180910390f35b610491610d8b565b60405161049e9190616b30565b60405180910390f35b6104af610da5565b005b6104cb60048036038101906104c69190615cc7565b610e5a565b005b6104d5610e6f565b6040516104e291906164d1565b60405180910390f35b6104f3610e95565b60405161050091906164a9565b60405180910390f35b610523600480360381019061051e9190615c20565b610ebb565b60405161053192919061640c565b60405180910390f35b610542611100565b005b61054c611139565b6040516105599190616639565b60405180910390f35b61057c60048036038101906105779190615b73565b61115f565b6040516105899190616b1e565b60405180910390f35b61059a61117a565b6040516105a791906165c1565b60405180910390f35b6105b86111a0565b6040516105c59190616b1e565b60405180910390f35b6105d66111a9565b6040516105e39190616481565b60405180910390f35b61060660048036038101906106019190615cc7565b6111cf565b005b610622600480360381019061061d9190615cc7565b6113da565b005b61062c61150c565b6040516106399190616611565b60405180910390f35b61064a611532565b6040516106579190616b30565b60405180910390f35b61067a60048036038101906106759190615b73565b61154c565b005b610684611607565b604051610692929190616ae1565b60405180910390f35b6106b560048036038101906106b09190615b73565b611654565b005b6106d160048036038101906106cc9190615b73565b61170f565b005b6106ed60048036038101906106e89190615b73565b611822565b005b61070960048036038101906107049190615b73565b611c2a565b005b610713611e09565b6040516107209190616521565b60405180910390f35b610743600480360381019061073e9190615b73565b611e2f565b005b61074d612186565b60405161075a9190616459565b60405180910390f35b61077d60048036038101906107789190615fd7565b6121ac565b005b61079960048036038101906107949190615b73565b6123b6565b005b6107b560048036038101906107b09190615b73565b61270d565b005b6107bf6127c8565b6040516107cc9190616431565b60405180910390f35b6107dd6127ee565b6040516107ea91906164f9565b60405180910390f35b6107fb612814565b60405161080891906165e9565b60405180910390f35b61082b60048036038101906108269190615b73565b61283a565b005b61084760048036038101906108429190615b9a565b612b91565b005b610851612c28565b60405161085e9190616b1e565b60405180910390f35b61086f612c74565b60405161087c9190616549565b60405180910390f35b61089f600480360381019061089a919061600f565b612c9a565b005b6108bb60048036038101906108b6919061600f565b612d8d565b005b6108d760048036038101906108d29190615b73565b612f84565b005b6108f360048036038101906108ee9190615fbb565b6132db565b005b6108fd613dc6565b60405161090a91906163f8565b60405180910390f35b61091b613df6565b6040516109289190616b30565b60405180910390f35b610939613e1a565b60405161094691906163f8565b60405180910390f35b610957613fb2565b005b610961614072565b60405161096e9190616b30565b60405180910390f35b61097f614096565b60405161098c9190616280565b60405180910390f35b61099d6140bc565b6040516109aa9190616571565b60405180910390f35b6109bb6140e2565b6040516109c89190616599565b60405180910390f35b6109d9614108565b6040516109e69190616280565b60405180910390f35b6109f761412e565b604051610a049190616b1e565b60405180910390f35b610a276004803603810190610a229190615b73565b614137565b005b610a436004803603810190610a3e9190615f94565b61454a565b005b610a4d61458f565b604051610a5a9190616661565b60405180910390f35b610a6b6145b5565b005b610a756147b3565b604051610a829190616280565b60405180910390f35b610a936147d9565b604051610aa09190616b1e565b60405180910390f35b610ac36004803603810190610abe9190615b73565b6147e5565b005b6000600960009054906101000a900473ffffffffffffffffffffffffffffffffffffffff1673ffffffffffffffffffffffffffffffffffffffff1663055ad42e6040518163ffffffff1660e01b815260040160206040518083038186803b158015610b305760006000fd5b505afa158015610b45573d600060003e3d6000fd5b505050506040513d601f19601f82011682018060405250810190610b699190616044565b9050610b70565b90565b6000610b83614b9863ffffffff16565b905080505b90565b600260006000505414151515610bd6576040517f08c379a0000000000000000000000000000000000000000000000000000000008152600401610bcd90616a24565b60405180910390fd5b60026000600050819090905550610c42601360009054906101000a900473ffffffffffffffffffffffffffffffffffffffff1673ffffffffffffffffffffffffffffffffffffffff163373ffffffffffffffffffffffffffffffffffffffff1614614c0663ffffffff16565b600660009054906101000a900473ffffffffffffffffffffffffffffffffffffffff1673ffffffffffffffffffffffffffffffffffffffff1663449a52f883836040518363ffffffff1660e01b8152600401610c9f9291906163c9565b600060405180830381600087803b158015610cba5760006000fd5b505af1158015610ccf573d600060003e3d6000fd5b505050505b600160006000508190909055505b5050565b600160009054906101000a900467ffffffffffffffff1681565b601560005060205280600052604060002060009150909054906101000a900460ff1681565b6000610d81610d65600160009054906101000a900467ffffffffffffffff1667ffffffffffffffff16670de0b6b3a7640000614c4c90919063ffffffff16565b610d73614c6763ffffffff16565b614ffc90919063ffffffff16565b9050610d88565b90565b601b60009054906101000a900467ffffffffffffffff1681565b600260006000505414151515610df0576040517f08c379a0000000000000000000000000000000000000000000000000000000008152600401610de790616a24565b60405180910390fd5b60026000600050819090905550610e3a3073ffffffffffffffffffffffffffffffffffffffff163373ffffffffffffffffffffffffffffffffffffffff1614614c0663ffffffff16565b610e4861502263ffffffff16565b5b5b600160006000508190909055505b565b610e6a82826151f463ffffffff16565b5b5050565b600a60009054906101000a900473ffffffffffffffffffffffffffffffffffffffff1681565b600760009054906101000a900473ffffffffffffffffffffffffffffffffffffffff1681565b600060606001601960005054141515610f09576040517f08c379a0000000000000000000000000000000000000000000000000000000008152600401610f00906169e5565b60405180910390fd5b60006019600050819090905550610f75601260009054906101000a900473ffffffffffffffffffffffffffffffffffffffff1673ffffffffffffffffffffffffffffffffffffffff163373ffffffffffffffffffffffffffffffffffffffff1614614c0663ffffffff16565b600960009054906101000a900473ffffffffffffffffffffffffffffffffffffffff1673ffffffffffffffffffffffffffffffffffffffff1663a43c36af86866040518363ffffffff1660e01b8152600401610fd292919061634f565b60006040518083038186803b158015610feb5760006000fd5b505afa158015611000573d600060003e3d6000fd5b505050508473ffffffffffffffffffffffffffffffffffffffff1661102a8561530c63ffffffff16565b8460405160200161103c9291906160bf565b604051602081830303815290604052604051611058919061610a565b6000604051808303816000865af19150503d8060008114611095576040519150601f19603f3d011682016040523d82523d6000602084013e61109a565b606091505b50809250819350505081819015156110e8576040517f08c379a00000000000000000000000000000000000000000000000000000000081526004016110df9190616689565b60405180910390fd5b505b600160196000508190909055505b935093915050565b61110e614b9863ffffffff16565b601b60006101000a81548167ffffffffffffffff021916908367ffffffffffffffff1602179055505b565b600660009054906101000a900473ffffffffffffffffffffffffffffffffffffffff1681565b60026000506020528060005260406000206000915090505481565b600f60009054906101000a900473ffffffffffffffffffffffffffffffffffffffff1681565b60186000505481565b600960009054906101000a900473ffffffffffffffffffffffffffffffffffffffff1681565b60026000600050541415151561121a576040517f08c379a000000000000000000000000000000000000000000000000000000000815260040161121190616a24565b60405180910390fd5b60026000600050819090905550611336600460009054906101000a900473ffffffffffffffffffffffffffffffffffffffff1673ffffffffffffffffffffffffffffffffffffffff163373ffffffffffffffffffffffffffffffffffffffff1614806112d35750600f60009054906101000a900473ffffffffffffffffffffffffffffffffffffffff1673ffffffffffffffffffffffffffffffffffffffff163373ffffffffffffffffffffffffffffffffffffffff16145b8061132b5750601460009054906101000a900473ffffffffffffffffffffffffffffffffffffffff1673ffffffffffffffffffffffffffffffffffffffff163373ffffffffffffffffffffffffffffffffffffffff16145b614c0663ffffffff16565b600660009054906101000a900473ffffffffffffffffffffffffffffffffffffffff1673ffffffffffffffffffffffffffffffffffffffff1663449a52f883836040518363ffffffff1660e01b81526004016113939291906163c9565b600060405180830381600087803b1580156113ae5760006000fd5b505af11580156113c3573d600060003e3d6000fd5b505050505b600160006000508190909055505b5050565b600260006000505414151515611425576040517f08c379a000000000000000000000000000000000000000000000000000000000815260040161141c90616a24565b60405180910390fd5b600260006000508190909055506114e9600c60009054906101000a900473ffffffffffffffffffffffffffffffffffffffff1673ffffffffffffffffffffffffffffffffffffffff163373ffffffffffffffffffffffffffffffffffffffff1614806114de5750601060009054906101000a900473ffffffffffffffffffffffffffffffffffffffff1673ffffffffffffffffffffffffffffffffffffffff163373ffffffffffffffffffffffffffffffffffffffff16145b614c0663ffffffff16565b6114f982826151f463ffffffff16565b5b600160006000508190909055505b5050565b601160009054906101000a900473ffffffffffffffffffffffffffffffffffffffff1681565b600160089054906101000a900467ffffffffffffffff1681565b611603600f60009054906101000a900473ffffffffffffffffffffffffffffffffffffffff1673ffffffffffffffffffffffffffffffffffffffff168273ffffffffffffffffffffffffffffffffffffffff1614806115f85750601060009054906101000a900473ffffffffffffffffffffffffffffffffffffffff1673ffffffffffffffffffffffffffffffffffffffff168273ffffffffffffffffffffffffffffffffffffffff16145b614c0663ffffffff16565b5b50565b601a6000508060000160009054906101000a90047affffffffffffffffffffffffffffffffffffffffffffffffffffff169080600001601b9054906101000a900464ffffffffff16905082565b61170b600c60009054906101000a900473ffffffffffffffffffffffffffffffffffffffff1673ffffffffffffffffffffffffffffffffffffffff168273ffffffffffffffffffffffffffffffffffffffff1614806117005750600b60009054906101000a900473ffffffffffffffffffffffffffffffffffffffff1673ffffffffffffffffffffffffffffffffffffffff168273ffffffffffffffffffffffffffffffffffffffff16145b614c0663ffffffff16565b5b50565b61181e600c60009054906101000a900473ffffffffffffffffffffffffffffffffffffffff1673ffffffffffffffffffffffffffffffffffffffff168273ffffffffffffffffffffffffffffffffffffffff1614806117bb5750600b60009054906101000a900473ffffffffffffffffffffffffffffffffffffffff1673ffffffffffffffffffffffffffffffffffffffff168273ffffffffffffffffffffffffffffffffffffffff16145b806118135750601160009054906101000a900473ffffffffffffffffffffffffffffffffffffffff1673ffffffffffffffffffffffffffffffffffffffff168273ffffffffffffffffffffffffffffffffffffffff16145b614c0663ffffffff16565b5b50565b60026000600050541415151561186d576040517f08c379a000000000000000000000000000000000000000000000000000000000815260040161186490616a24565b60405180910390fd5b600260006000508190909055506118b73073ffffffffffffffffffffffffffffffffffffffff163373ffffffffffffffffffffffffffffffffffffffff1614614c0663ffffffff16565b6118c68161532263ffffffff16565b600e60009054906101000a900473ffffffffffffffffffffffffffffffffffffffff1673ffffffffffffffffffffffffffffffffffffffff16634ac8c5ae601060009054906101000a900473ffffffffffffffffffffffffffffffffffffffff166040518263ffffffff1660e01b81526004016119439190616280565b600060405180830381600087803b15801561195e5760006000fd5b505af1158015611973573d600060003e3d6000fd5b50505050601060009054906101000a900473ffffffffffffffffffffffffffffffffffffffff1673ffffffffffffffffffffffffffffffffffffffff166307da68f56040518163ffffffff1660e01b8152600401600060405180830381600087803b1580156119e25760006000fd5b505af11580156119f7573d600060003e3d6000fd5b5050505080601060006101000a81548173ffffffffffffffffffffffffffffffffffffffff021916908373ffffffffffffffffffffffffffffffffffffffff160217905550600e60009054906101000a900473ffffffffffffffffffffffffffffffffffffffff1673ffffffffffffffffffffffffffffffffffffffff16632c388d5d601060009054906101000a900473ffffffffffffffffffffffffffffffffffffffff166040518263ffffffff1660e01b8152600401611ab99190616280565b600060405180830381600087803b158015611ad45760006000fd5b505af1158015611ae9573d600060003e3d6000fd5b50505050600360009054906101000a900473ffffffffffffffffffffffffffffffffffffffff1673ffffffffffffffffffffffffffffffffffffffff1663a678f336601060009054906101000a900473ffffffffffffffffffffffffffffffffffffffff166040518263ffffffff1660e01b8152600401611b6a9190616280565b600060405180830381600087803b158015611b855760006000fd5b505af1158015611b9a573d600060003e3d6000fd5b50505050601060009054906101000a900473ffffffffffffffffffffffffffffffffffffffff1673ffffffffffffffffffffffffffffffffffffffff16604051611be390616129565b60405180910390207f2b51ff7c4cc8e6fe1c72e9d9685b7d2a88a5d82ad3a644afbdceb0272c89c1c360405160405180910390a35b5b600160006000508190909055505b50565b600260006000505414151515611c75576040517f08c379a0000000000000000000000000000000000000000000000000000000008152600401611c6c90616a24565b60405180910390fd5b60026000600050819090905550611cbf3073ffffffffffffffffffffffffffffffffffffffff163373ffffffffffffffffffffffffffffffffffffffff1614614c0663ffffffff16565b6000600160089054906101000a900467ffffffffffffffff1667ffffffffffffffff16111515611d24576040517f08c379a0000000000000000000000000000000000000000000000000000000008152600401611d1b90616902565b60405180910390fd5b600660009054906101000a900473ffffffffffffffffffffffffffffffffffffffff1673ffffffffffffffffffffffffffffffffffffffff16633c4a25d0826040518263ffffffff1660e01b8152600401611d7f9190616280565b600060405180830381600087803b158015611d9a5760006000fd5b505af1158015611daf573d600060003e3d6000fd5b505050508073ffffffffffffffffffffffffffffffffffffffff167f078ca541eec5b410213fc65330fc5a7324eb56fe692344e7bc1b8be56bd3c16960405160405180910390a25b5b600160006000508190909055505b50565b600c60009054906101000a900473ffffffffffffffffffffffffffffffffffffffff1681565b600260006000505414151515611e7a576040517f08c379a0000000000000000000000000000000000000000000000000000000008152600401611e7190616a24565b60405180910390fd5b60026000600050819090905550611ec43073ffffffffffffffffffffffffffffffffffffffff163373ffffffffffffffffffffffffffffffffffffffff1614614c0663ffffffff16565b611ed38161532263ffffffff16565b600e60009054906101000a900473ffffffffffffffffffffffffffffffffffffffff1673ffffffffffffffffffffffffffffffffffffffff16634ac8c5ae600d60009054906101000a900473ffffffffffffffffffffffffffffffffffffffff166040518263ffffffff1660e01b8152600401611f509190616280565b600060405180830381600087803b158015611f6b5760006000fd5b505af1158015611f80573d600060003e3d6000fd5b50505050600d60009054906101000a900473ffffffffffffffffffffffffffffffffffffffff1673ffffffffffffffffffffffffffffffffffffffff166307da68f56040518163ffffffff1660e01b8152600401600060405180830381600087803b158015611fef5760006000fd5b505af1158015612004573d600060003e3d6000fd5b5050505080600d60006101000a81548173ffffffffffffffffffffffffffffffffffffffff021916908373ffffffffffffffffffffffffffffffffffffffff160217905550600e60009054906101000a900473ffffffffffffffffffffffffffffffffffffffff1673ffffffffffffffffffffffffffffffffffffffff16632c388d5d600d60009054906101000a900473ffffffffffffffffffffffffffffffffffffffff166040518263ffffffff1660e01b81526004016120c69190616280565b600060405180830381600087803b1580156120e15760006000fd5b505af11580156120f6573d600060003e3d6000fd5b50505050600d60009054906101000a900473ffffffffffffffffffffffffffffffffffffffff1673ffffffffffffffffffffffffffffffffffffffff1660405161213f9061624f565b60405180910390207f2b51ff7c4cc8e6fe1c72e9d9685b7d2a88a5d82ad3a644afbdceb0272c89c1c360405160405180910390a35b5b600160006000508190909055505b50565b600460009054906101000a900473ffffffffffffffffffffffffffffffffffffffff1681565b6002600060005054141515156121f7576040517f08c379a00000000000000000000000000000000000000000000000000000000081526004016121ee90616a24565b60405180910390fd5b60026000600050819090905550600033905060008211151561224e576040517f08c379a000000000000000000000000000000000000000000000000000000000815260040161224590616749565b60405180910390fd5b6122a682600260005060008473ffffffffffffffffffffffffffffffffffffffff1673ffffffffffffffffffffffffffffffffffffffff1681526020019081526020016000206000505461537690919063ffffffff16565b600260005060008373ffffffffffffffffffffffffffffffffffffffff1673ffffffffffffffffffffffffffffffffffffffff168152602001908152602001600020600050819090905550612347600660009054906101000a900473ffffffffffffffffffffffffffffffffffffffff1682600960009054906101000a900473ffffffffffffffffffffffffffffffffffffffff168561539163ffffffff16565b61235561542163ffffffff16565b8073ffffffffffffffffffffffffffffffffffffffff167f6f076ad9d1927fd5f792070276b90549d2433311ff94fe0d7afba682c150817a8360405161239b9190616b1e565b60405180910390a2505b600160006000508190909055505b50565b600260006000505414151515612401576040517f08c379a00000000000000000000000000000000000000000000000000000000081526004016123f890616a24565b60405180910390fd5b6002600060005081909090555061244b3073ffffffffffffffffffffffffffffffffffffffff163373ffffffffffffffffffffffffffffffffffffffff1614614c0663ffffffff16565b61245a8161532263ffffffff16565b600e60009054906101000a900473ffffffffffffffffffffffffffffffffffffffff1673ffffffffffffffffffffffffffffffffffffffff16634ac8c5ae601160009054906101000a900473ffffffffffffffffffffffffffffffffffffffff166040518263ffffffff1660e01b81526004016124d79190616280565b600060405180830381600087803b1580156124f25760006000fd5b505af1158015612507573d600060003e3d6000fd5b50505050601160009054906101000a900473ffffffffffffffffffffffffffffffffffffffff1673ffffffffffffffffffffffffffffffffffffffff166307da68f56040518163ffffffff1660e01b8152600401600060405180830381600087803b1580156125765760006000fd5b505af115801561258b573d600060003e3d6000fd5b5050505080601160006101000a81548173ffffffffffffffffffffffffffffffffffffffff021916908373ffffffffffffffffffffffffffffffffffffffff160217905550600e60009054906101000a900473ffffffffffffffffffffffffffffffffffffffff1673ffffffffffffffffffffffffffffffffffffffff16632c388d5d601160009054906101000a900473ffffffffffffffffffffffffffffffffffffffff166040518263ffffffff1660e01b815260040161264d9190616280565b600060405180830381600087803b1580156126685760006000fd5b505af115801561267d573d600060003e3d6000fd5b50505050601160009054906101000a900473ffffffffffffffffffffffffffffffffffffffff1673ffffffffffffffffffffffffffffffffffffffff166040516126c69061618b565b60405180910390207f2b51ff7c4cc8e6fe1c72e9d9685b7d2a88a5d82ad3a644afbdceb0272c89c1c360405160405180910390a35b5b600160006000508190909055505b50565b6127c4600b60009054906101000a900473ffffffffffffffffffffffffffffffffffffffff1673ffffffffffffffffffffffffffffffffffffffff168273ffffffffffffffffffffffffffffffffffffffff1614806127b95750601160009054906101000a900473ffffffffffffffffffffffffffffffffffffffff1673ffffffffffffffffffffffffffffffffffffffff168273ffffffffffffffffffffffffffffffffffffffff16145b614c0663ffffffff16565b5b50565b600360009054906101000a900473ffffffffffffffffffffffffffffffffffffffff1681565b600b60009054906101000a900473ffffffffffffffffffffffffffffffffffffffff1681565b601060009054906101000a900473ffffffffffffffffffffffffffffffffffffffff1681565b600260006000505414151515612885576040517f08c379a000000000000000000000000000000000000000000000000000000000815260040161287c90616a24565b60405180910390fd5b600260006000508190909055506128cf3073ffffffffffffffffffffffffffffffffffffffff163373ffffffffffffffffffffffffffffffffffffffff1614614c0663ffffffff16565b6128de8161532263ffffffff16565b600e60009054906101000a900473ffffffffffffffffffffffffffffffffffffffff1673ffffffffffffffffffffffffffffffffffffffff16634ac8c5ae600f60009054906101000a900473ffffffffffffffffffffffffffffffffffffffff166040518263ffffffff1660e01b815260040161295b9190616280565b600060405180830381600087803b1580156129765760006000fd5b505af115801561298b573d600060003e3d6000fd5b50505050600f60009054906101000a900473ffffffffffffffffffffffffffffffffffffffff1673ffffffffffffffffffffffffffffffffffffffff166307da68f56040518163ffffffff1660e01b8152600401600060405180830381600087803b1580156129fa5760006000fd5b505af1158015612a0f573d600060003e3d6000fd5b5050505080600f60006101000a81548173ffffffffffffffffffffffffffffffffffffffff021916908373ffffffffffffffffffffffffffffffffffffffff160217905550600e60009054906101000a900473ffffffffffffffffffffffffffffffffffffffff1673ffffffffffffffffffffffffffffffffffffffff16632c388d5d600f60009054906101000a900473ffffffffffffffffffffffffffffffffffffffff166040518263ffffffff1660e01b8152600401612ad19190616280565b600060405180830381600087803b158015612aec5760006000fd5b505af1158015612b01573d600060003e3d6000fd5b50505050600f60009054906101000a900473ffffffffffffffffffffffffffffffffffffffff1673ffffffffffffffffffffffffffffffffffffffff16604051612b4a9061615a565b60405180910390207f2b51ff7c4cc8e6fe1c72e9d9685b7d2a88a5d82ad3a644afbdceb0272c89c1c360405160405180910390a35b5b600160006000508190909055505b50565b600960009054906101000a900473ffffffffffffffffffffffffffffffffffffffff1673ffffffffffffffffffffffffffffffffffffffff1663a43c36af8484846040518463ffffffff1660e01b8152600401612bf0939291906162e2565b60006040518083038186803b158015612c095760006000fd5b505afa158015612c1e573d600060003e3d6000fd5b505050505b505050565b6000612c6a600160009054906101000a900467ffffffffffffffff1667ffffffffffffffff16612c5c614c6763ffffffff16565b614ffc90919063ffffffff16565b9050612c71565b90565b600860009054906101000a900473ffffffffffffffffffffffffffffffffffffffff1681565b600260006000505414151515612ce5576040517f08c379a0000000000000000000000000000000000000000000000000000000008152600401612cdc90616a24565b60405180910390fd5b60026000600050819090905550612d2f3073ffffffffffffffffffffffffffffffffffffffff163373ffffffffffffffffffffffffffffffffffffffff1614614c0663ffffffff16565b670de0b6b3a76400008167ffffffffffffffff1611151515612d515760006000fd5b80600160006101000a81548167ffffffffffffffff021916908367ffffffffffffffff1602179055505b5b600160006000508190909055505b50565b600260006000505414151515612dd8576040517f08c379a0000000000000000000000000000000000000000000000000000000008152600401612dcf90616a24565b60405180910390fd5b60026000600050819090905550612e223073ffffffffffffffffffffffffffffffffffffffff163373ffffffffffffffffffffffffffffffffffffffff1614614c0663ffffffff16565b6000601b60009054906101000a900467ffffffffffffffff1667ffffffffffffffff16141515612e87576040517f08c379a0000000000000000000000000000000000000000000000000000000008152600401612e7e90616788565b60405180910390fd5b612e96816154d263ffffffff16565b601b60006101000a81548167ffffffffffffffff021916908367ffffffffffffffff160217905550600960009054906101000a900473ffffffffffffffffffffffffffffffffffffffff1673ffffffffffffffffffffffffffffffffffffffff1663b8188c81612f21601b60009054906101000a900467ffffffffffffffff1661554663ffffffff16565b6040518263ffffffff1660e01b8152600401612f3d9190616b30565b600060405180830381600087803b158015612f585760006000fd5b505af1158015612f6d573d600060003e3d6000fd5b505050505b5b600160006000508190909055505b50565b600260006000505414151515612fcf576040517f08c379a0000000000000000000000000000000000000000000000000000000008152600401612fc690616a24565b60405180910390fd5b600260006000508190909055506130193073ffffffffffffffffffffffffffffffffffffffff163373ffffffffffffffffffffffffffffffffffffffff1614614c0663ffffffff16565b6130288161532263ffffffff16565b600e60009054906101000a900473ffffffffffffffffffffffffffffffffffffffff1673ffffffffffffffffffffffffffffffffffffffff16634ac8c5ae600b60009054906101000a900473ffffffffffffffffffffffffffffffffffffffff166040518263ffffffff1660e01b81526004016130a59190616280565b600060405180830381600087803b1580156130c05760006000fd5b505af11580156130d5573d600060003e3d6000fd5b50505050600b60009054906101000a900473ffffffffffffffffffffffffffffffffffffffff1673ffffffffffffffffffffffffffffffffffffffff166307da68f56040518163ffffffff1660e01b8152600401600060405180830381600087803b1580156131445760006000fd5b505af1158015613159573d600060003e3d6000fd5b5050505080600b60006101000a81548173ffffffffffffffffffffffffffffffffffffffff021916908373ffffffffffffffffffffffffffffffffffffffff160217905550600e60009054906101000a900473ffffffffffffffffffffffffffffffffffffffff1673ffffffffffffffffffffffffffffffffffffffff16632c388d5d600b60009054906101000a900473ffffffffffffffffffffffffffffffffffffffff166040518263ffffffff1660e01b815260040161321b9190616280565b600060405180830381600087803b1580156132365760006000fd5b505af115801561324b573d600060003e3d6000fd5b50505050600b60009054906101000a900473ffffffffffffffffffffffffffffffffffffffff1673ffffffffffffffffffffffffffffffffffffffff166040516132949061621e565b60405180910390207f2b51ff7c4cc8e6fe1c72e9d9685b7d2a88a5d82ad3a644afbdceb0272c89c1c360405160405180910390a35b5b600160006000508190909055505b50565b61333a601660009054906101000a900473ffffffffffffffffffffffffffffffffffffffff1673ffffffffffffffffffffffffffffffffffffffff163373ffffffffffffffffffffffffffffffffffffffff1614614c0663ffffffff16565b601660006101000a81549073ffffffffffffffffffffffffffffffffffffffff02191690558060000160208101906133729190615d72565b600360006101000a81548173ffffffffffffffffffffffffffffffffffffffff021916908373ffffffffffffffffffffffffffffffffffffffff1602179055508060200160208101906133c59190615d99565b600460006101000a81548173ffffffffffffffffffffffffffffffffffffffff021916908373ffffffffffffffffffffffffffffffffffffffff1602179055508060400160208101906134189190615dc0565b600960006101000a81548173ffffffffffffffffffffffffffffffffffffffff021916908373ffffffffffffffffffffffffffffffffffffffff16021790555080606001602081019061346b9190615b73565b601360006101000a81548173ffffffffffffffffffffffffffffffffffffffff021916908373ffffffffffffffffffffffffffffffffffffffff1602179055508060800160208101906134be9190615de7565b600760006101000a81548173ffffffffffffffffffffffffffffffffffffffff021916908373ffffffffffffffffffffffffffffffffffffffff1602179055508060a00160208101906135119190615e83565b600860006101000a81548173ffffffffffffffffffffffffffffffffffffffff021916908373ffffffffffffffffffffffffffffffffffffffff1602179055508060c00160208101906135649190615e0e565b600a60006101000a81548173ffffffffffffffffffffffffffffffffffffffff021916908373ffffffffffffffffffffffffffffffffffffffff1602179055508060e00160208101906135b79190615e35565b600b60006101000a81548173ffffffffffffffffffffffffffffffffffffffff021916908373ffffffffffffffffffffffffffffffffffffffff1602179055508061010001602081019061360b9190615e5c565b600c60006101000a81548173ffffffffffffffffffffffffffffffffffffffff021916908373ffffffffffffffffffffffffffffffffffffffff1602179055508061012001602081019061365f9190615eaa565b600d60006101000a81548173ffffffffffffffffffffffffffffffffffffffff021916908373ffffffffffffffffffffffffffffffffffffffff160217905550806101400160208101906136b39190615ed1565b600e60006101000a81548173ffffffffffffffffffffffffffffffffffffffff021916908373ffffffffffffffffffffffffffffffffffffffff160217905550806101600160208101906137079190615ef8565b600f60006101000a81548173ffffffffffffffffffffffffffffffffffffffff021916908373ffffffffffffffffffffffffffffffffffffffff1602179055508061018001602081019061375b9190615f1f565b601060006101000a81548173ffffffffffffffffffffffffffffffffffffffff021916908373ffffffffffffffffffffffffffffffffffffffff160217905550806101a00160208101906137af9190615f46565b601160006101000a81548173ffffffffffffffffffffffffffffffffffffffff021916908373ffffffffffffffffffffffffffffffffffffffff160217905550806101c00160208101906138039190615f6d565b600660006101000a81548173ffffffffffffffffffffffffffffffffffffffff021916908373ffffffffffffffffffffffffffffffffffffffff160217905550806101e00160208101906138579190615b73565b601260006101000a81548173ffffffffffffffffffffffffffffffffffffffff021916908373ffffffffffffffffffffffffffffffffffffffff160217905550806102000160208101906138ab9190615f94565b601460006101000a81548173ffffffffffffffffffffffffffffffffffffffff021916908373ffffffffffffffffffffffffffffffffffffffff160217905550600e60009054906101000a900473ffffffffffffffffffffffffffffffffffffffff1673ffffffffffffffffffffffffffffffffffffffff16632c388d5d600460009054906101000a900473ffffffffffffffffffffffffffffffffffffffff166040518263ffffffff1660e01b81526004016139689190616280565b600060405180830381600087803b1580156139835760006000fd5b505af1158015613998573d600060003e3d6000fd5b50505050600e60009054906101000a900473ffffffffffffffffffffffffffffffffffffffff1673ffffffffffffffffffffffffffffffffffffffff16632c388d5d600960009054906101000a900473ffffffffffffffffffffffffffffffffffffffff166040518263ffffffff1660e01b8152600401613a199190616280565b600060405180830381600087803b158015613a345760006000fd5b505af1158015613a49573d600060003e3d6000fd5b50505050600e60009054906101000a900473ffffffffffffffffffffffffffffffffffffffff1673ffffffffffffffffffffffffffffffffffffffff16632c388d5d600b60009054906101000a900473ffffffffffffffffffffffffffffffffffffffff166040518263ffffffff1660e01b8152600401613aca9190616280565b600060405180830381600087803b158015613ae55760006000fd5b505af1158015613afa573d600060003e3d6000fd5b50505050600e60009054906101000a900473ffffffffffffffffffffffffffffffffffffffff1673ffffffffffffffffffffffffffffffffffffffff16632c388d5d600c60009054906101000a900473ffffffffffffffffffffffffffffffffffffffff166040518263ffffffff1660e01b8152600401613b7b9190616280565b600060405180830381600087803b158015613b965760006000fd5b505af1158015613bab573d600060003e3d6000fd5b50505050600e60009054906101000a900473ffffffffffffffffffffffffffffffffffffffff1673ffffffffffffffffffffffffffffffffffffffff16632c388d5d600f60009054906101000a900473ffffffffffffffffffffffffffffffffffffffff166040518263ffffffff1660e01b8152600401613c2c9190616280565b600060405180830381600087803b158015613c475760006000fd5b505af1158015613c5c573d600060003e3d6000fd5b50505050600e60009054906101000a900473ffffffffffffffffffffffffffffffffffffffff1673ffffffffffffffffffffffffffffffffffffffff16632c388d5d601060009054906101000a900473ffffffffffffffffffffffffffffffffffffffff166040518263ffffffff1660e01b8152600401613cdd9190616280565b600060405180830381600087803b158015613cf85760006000fd5b505af1158015613d0d573d600060003e3d6000fd5b50505050600e60009054906101000a900473ffffffffffffffffffffffffffffffffffffffff1673ffffffffffffffffffffffffffffffffffffffff16632c388d5d601160009054906101000a900473ffffffffffffffffffffffffffffffffffffffff166040518263ffffffff1660e01b8152600401613d8e9190616280565b600060405180830381600087803b158015613da95760006000fd5b505af1158015613dbe573d600060003e3d6000fd5b505050505b50565b60006000600160089054906101000a900467ffffffffffffffff1667ffffffffffffffff16119050613df3565b90565b7f000000000000000000000000000000000000000000000000000000000000000081565b6000613ed86703782dace9d90000600660009054906101000a900473ffffffffffffffffffffffffffffffffffffffff1673ffffffffffffffffffffffffffffffffffffffff166318160ddd6040518163ffffffff1660e01b815260040160206040518083038186803b158015613e915760006000fd5b505afa158015613ea6573d600060003e3d6000fd5b505050506040513d601f19601f82011682018060405250810190613eca9190615ff3565b614ffc90919063ffffffff16565b600660009054906101000a900473ffffffffffffffffffffffffffffffffffffffff1673ffffffffffffffffffffffffffffffffffffffff166370a08231600960009054906101000a900473ffffffffffffffffffffffffffffffffffffffff166040518263ffffffff1660e01b8152600401613f559190616280565b60206040518083038186803b158015613f6e5760006000fd5b505afa158015613f83573d600060003e3d6000fd5b505050506040513d601f19601f82011682018060405250810190613fa79190615ff3565b119050613faf565b90565b600260006000505414151515613ffd576040517f08c379a0000000000000000000000000000000000000000000000000000000008152600401613ff490616a24565b60405180910390fd5b6002600060005081909090555043601760005054101515614053576040517f08c379a000000000000000000000000000000000000000000000000000000000815260040161404a906167c7565b60405180910390fd5b61406161502263ffffffff16565b5b600160006000508190909055505b565b7f000000000000000000000000000000000000000000000000000000000000000081565b601260009054906101000a900473ffffffffffffffffffffffffffffffffffffffff1681565b600d60009054906101000a900473ffffffffffffffffffffffffffffffffffffffff1681565b600e60009054906101000a900473ffffffffffffffffffffffffffffffffffffffff1681565b601660009054906101000a900473ffffffffffffffffffffffffffffffffffffffff1681565b601c6000505481565b600260006000505414151515614182576040517f08c379a000000000000000000000000000000000000000000000000000000000815260040161417990616a24565b60405180910390fd5b600260006000508190909055506141cc3073ffffffffffffffffffffffffffffffffffffffff163373ffffffffffffffffffffffffffffffffffffffff1614614c0663ffffffff16565b6141db8161532263ffffffff16565b600073ffffffffffffffffffffffffffffffffffffffff16600560009054906101000a900473ffffffffffffffffffffffffffffffffffffffff1673ffffffffffffffffffffffffffffffffffffffff1614151561436957600e60009054906101000a900473ffffffffffffffffffffffffffffffffffffffff1673ffffffffffffffffffffffffffffffffffffffff16634ac8c5ae600560009054906101000a900473ffffffffffffffffffffffffffffffffffffffff166040518263ffffffff1660e01b81526004016142b09190616280565b600060405180830381600087803b1580156142cb5760006000fd5b505af11580156142e0573d600060003e3d6000fd5b50505050600560009054906101000a900473ffffffffffffffffffffffffffffffffffffffff1673ffffffffffffffffffffffffffffffffffffffff166307da68f56040518163ffffffff1660e01b8152600401600060405180830381600087803b15801561434f5760006000fd5b505af1158015614364573d600060003e3d6000fd5b505050505b600460009054906101000a900473ffffffffffffffffffffffffffffffffffffffff16600560006101000a81548173ffffffffffffffffffffffffffffffffffffffff021916908373ffffffffffffffffffffffffffffffffffffffff16021790555080600460006101000a81548173ffffffffffffffffffffffffffffffffffffffff021916908373ffffffffffffffffffffffffffffffffffffffff160217905550600e60009054906101000a900473ffffffffffffffffffffffffffffffffffffffff1673ffffffffffffffffffffffffffffffffffffffff16632c388d5d600460009054906101000a900473ffffffffffffffffffffffffffffffffffffffff166040518263ffffffff1660e01b815260040161448a9190616280565b600060405180830381600087803b1580156144a55760006000fd5b505af11580156144ba573d600060003e3d6000fd5b50505050600460009054906101000a900473ffffffffffffffffffffffffffffffffffffffff1673ffffffffffffffffffffffffffffffffffffffff16604051614503906161ed565b60405180910390207f2b51ff7c4cc8e6fe1c72e9d9685b7d2a88a5d82ad3a644afbdceb0272c89c1c360405160405180910390a35b5b600160006000508190909055505b50565b80601460006101000a81548173ffffffffffffffffffffffffffffffffffffffff021916908373ffffffffffffffffffffffffffffffffffffffff1602179055505b50565b601460009054906101000a900473ffffffffffffffffffffffffffffffffffffffff1681565b600260006000505414151515614600576040517f08c379a00000000000000000000000000000000000000000000000000000000081526004016145f790616a24565b60405180910390fd5b6002600060005081909090555060003390506000600260005060008373ffffffffffffffffffffffffffffffffffffffff1673ffffffffffffffffffffffffffffffffffffffff1681526020019081526020016000206000505490506000811115156146a1576040517f08c379a000000000000000000000000000000000000000000000000000000000815260040161469890616749565b60405180910390fd5b6000600260005060008473ffffffffffffffffffffffffffffffffffffffff1673ffffffffffffffffffffffffffffffffffffffff168152602001908152602001600020600050819090905550614744600660009054906101000a900473ffffffffffffffffffffffffffffffffffffffff16600960009054906101000a900473ffffffffffffffffffffffffffffffffffffffff16848461539163ffffffff16565b61475261542163ffffffff16565b8173ffffffffffffffffffffffffffffffffffffffff167fbfaf8d2920f9287ed71a7e47234c2043522ae8ffd246577b929897e0f2b3c075826040516147989190616b1e565b60405180910390a250505b600160006000508190909055505b565b601360009054906101000a900473ffffffffffffffffffffffffffffffffffffffff1681565b6703782dace9d9000081565b600260006000505414151515614830576040517f08c379a000000000000000000000000000000000000000000000000000000000815260040161482790616a24565b60405180910390fd5b6002600060005081909090555061487a3073ffffffffffffffffffffffffffffffffffffffff163373ffffffffffffffffffffffffffffffffffffffff1614614c0663ffffffff16565b6148898161532263ffffffff16565b600e60009054906101000a900473ffffffffffffffffffffffffffffffffffffffff1673ffffffffffffffffffffffffffffffffffffffff16634ac8c5ae600c60009054906101000a900473ffffffffffffffffffffffffffffffffffffffff166040518263ffffffff1660e01b81526004016149069190616280565b600060405180830381600087803b1580156149215760006000fd5b505af1158015614936573d600060003e3d6000fd5b50505050600c60009054906101000a900473ffffffffffffffffffffffffffffffffffffffff1673ffffffffffffffffffffffffffffffffffffffff166307da68f56040518163ffffffff1660e01b8152600401600060405180830381600087803b1580156149a55760006000fd5b505af11580156149ba573d600060003e3d6000fd5b5050505080600c60006101000a81548173ffffffffffffffffffffffffffffffffffffffff021916908373ffffffffffffffffffffffffffffffffffffffff160217905550600e60009054906101000a900473ffffffffffffffffffffffffffffffffffffffff1673ffffffffffffffffffffffffffffffffffffffff16632c388d5d600c60009054906101000a900473ffffffffffffffffffffffffffffffffffffffff166040518263ffffffff1660e01b8152600401614a7c9190616280565b600060405180830381600087803b158015614a975760006000fd5b505af1158015614aac573d600060003e3d6000fd5b50505050600c60009054906101000a900473ffffffffffffffffffffffffffffffffffffffff1673ffffffffffffffffffffffffffffffffffffffff16604051614af5906161bc565b60405180910390207f2b51ff7c4cc8e6fe1c72e9d9685b7d2a88a5d82ad3a644afbdceb0272c89c1c360405160405180910390a35b5b600160006000508190909055505b50565b60006801000000000000000082101515614b8b576040517f08c379a0000000000000000000000000000000000000000000000000000000008152600401614b82906169a6565b60405180910390fd5b819050614b93565b919050565b60007f00000000000000000000000000000000000000000000000000000000000000007f0000000000000000000000000000000000000000000000000000000000000000614bea6155cb63ffffffff16565b614bf49190616c43565b614bfe9190616cc7565b905080505b90565b801515614c48576040517f08c379a0000000000000000000000000000000000000000000000000000000008152600401614c3f9061670a565b60405180910390fd5b5b50565b60008183614c5a9190616ca8565b9050614c61565b92915050565b60006000614c79614b9863ffffffff16565b90506000601b60009054906101000a900467ffffffffffffffff1667ffffffffffffffff161480614cd35750601b60009054906101000a900467ffffffffffffffff1667ffffffffffffffff168167ffffffffffffffff16105b80614cfe57506000600160089054906101000a900467ffffffffffffffff1667ffffffffffffffff16115b15614d0d576000915050614ff9565b6000601b60009054906101000a900467ffffffffffffffff1682614d319190616cc7565b90506000601c6000505490506000601a6000506040518060400160405290816000820160009054906101000a90047affffffffffffffffffffffffffffffffffffffffffffffffffffff167affffffffffffffffffffffffffffffffffffffffffffffffffffff167affffffffffffffffffffffffffffffffffffffffffffffffffffff16815260200160008201601b9054906101000a900464ffffffffff1664ffffffffff1664ffffffffff168152602001505090505b8267ffffffffffffffff16816020015164ffffffffff161015614f19576000614e7e7f160da66187f438da56184b42849d3aa69a5c64e3666b170000000000000000007f161bcca7119915b50764b4abe86529797775a5f171951000000000000000000084600001517affffffffffffffffffffffffffffffffffffffffffffffffffffff166155e69092919063ffffffff16565b9050614eaf701d6329f1c35ca4bfabb9f561000000000082614ea09190616c25565b8461537690919063ffffffff16565b925082506040518060400160405280614ecf8361570a909063ffffffff16565b7affffffffffffffffffffffffffffffffffffffffffffffffffffff16815260200160018460200151614f029190616b81565b64ffffffffff168152602001509150815050614de9565b80601a60005060008201518160000160006101000a8154817affffffffffffffffffffffffffffffffffffffffffffffffffffff02191690837affffffffffffffffffffffffffffffffffffffffffffffffffffff160217905550602082015181600001601b6101000a81548164ffffffffff021916908364ffffffffff16021790555090505081601c600050819090905550701d6329f1c35ca4bfabb9f56100000000008160000151614fcd9190616be4565b7affffffffffffffffffffffffffffffffffffffffffffffffffffff16945050505050614ff956505050505b90565b60006150178383670de0b6b3a76400006155e663ffffffff16565b905080505b92915050565b6000600160089054906101000a900467ffffffffffffffff1667ffffffffffffffff16141515615087576040517f08c379a000000000000000000000000000000000000000000000000000000000815260040161507e90616884565b60405180910390fd5b600c60009054906101000a900473ffffffffffffffffffffffffffffffffffffffff1673ffffffffffffffffffffffffffffffffffffffff1663a6afed956040518163ffffffff1660e01b8152600401600060405180830381600087803b1580156150f25760006000fd5b505af1158015615107573d600060003e3d6000fd5b50505050601060009054906101000a900473ffffffffffffffffffffffffffffffffffffffff1673ffffffffffffffffffffffffffffffffffffffff16631afdbce46040518163ffffffff1660e01b8152600401600060405180830381600087803b1580156151765760006000fd5b505af115801561518b573d600060003e3d6000fd5b5050505061519d6155cb63ffffffff16565b600160086101000a81548167ffffffffffffffff021916908367ffffffffffffffff1602179055507f5a05a29d5ecece2d4f30720adf1a7449fc1ecb9a884a14629d08d3d2257ab90560405160405180910390a15b565b61520c8160186000505461537690919063ffffffff16565b6018600050819090905550601c6000505460186000505411151515615266576040517f08c379a000000000000000000000000000000000000000000000000000000000815260040161525d90616aa2565b60405180910390fd5b601460009054906101000a900473ffffffffffffffffffffffffffffffffffffffff1673ffffffffffffffffffffffffffffffffffffffff1663ee5f1ee4836152b684615779909063ffffffff16565b6040518363ffffffff1660e01b81526004016152d3929190616388565b600060405180830381600087803b1580156152ee5760006000fd5b505af1158015615303573d600060003e3d6000fd5b505050505b5050565b60008180519060200120905061531d565b919050565b615331816157dd63ffffffff16565b1515615372576040517f08c379a000000000000000000000000000000000000000000000000000000000815260040161536990616845565b60405180910390fd5b5b50565b600081836153849190616b61565b905061538b565b92915050565b61541a846323b872dd60e01b8585856040516024016153b2939291906162a8565b604051602081830303815290604052907bffffffffffffffffffffffffffffffffffffffffffffffffffffffff19166020820180517bffffffffffffffffffffffffffffffffffffffffffffffffffffffff83818316178352505050506157f763ffffffff16565b5b50505050565b61542f613e1a63ffffffff16565b15615473577fffffffffffffffffffffffffffffffffffffffffffffffffffffffffffffffff601760005054141561546e574360176000508190909055505b6154cf565b7fffffffffffffffffffffffffffffffffffffffffffffffffffffffffffffffff6017600050541415156154ce577fffffffffffffffffffffffffffffffffffffffffffffffffffffffffffffffff60176000508190909055505b5b5b565b600061553c7f00000000000000000000000000000000000000000000000000000000000000007f0000000000000000000000000000000000000000000000000000000000000000846155249190616c43565b67ffffffffffffffff166158c490919063ffffffff16565b905080505b919050565b60006155c1615588837f000000000000000000000000000000000000000000000000000000000000000067ffffffffffffffff166158df90919063ffffffff16565b7f000000000000000000000000000000000000000000000000000000000000000067ffffffffffffffff166158fa90919063ffffffff16565b905080505b919050565b60006155de42614b3c909063ffffffff16565b905080505b90565b60006000600060001985870985870292508281108382030391505060008114156156295760008411151561561a5760006000fd5b83820492508292505050615703565b80841115156156385760006000fd5b60008486880990508281118203915080830392506000856001877fffffffffffffffffffffffffffffffffffffffffffffffffffffffffffffffff03011690508050808604955080840493506001818260000304019050808302841793508350600060028760030218905080870260020381029050805080870260020381029050805080870260020381029050805080870260020381029050805080870260020381029050805080870260020381029050805080850295508550508494505050505061570356505050505b9392505050565b60007b010000000000000000000000000000000000000000000000000000008210151561576c576040517f08c379a000000000000000000000000000000000000000000000000000000000815260040161576390616a63565b60405180910390fd5b819050615774565b919050565b6000700100000000000000000000000000000000821015156157d0576040517f08c379a00000000000000000000000000000000000000000000000000000000081526004016157c790616806565b60405180910390fd5b8190506157d8565b919050565b60006000823b9050600081119150506157f256505b919050565b600061585c826040518060400160405280602081526020017f5361666545524332303a206c6f772d6c6576656c2063616c6c206661696c65648152602001508573ffffffffffffffffffffffffffffffffffffffff166159159092919063ffffffff16565b90506000815111156158be578080602001905181019061587c9190615cf8565b15156158bd576040517f08c379a00000000000000000000000000000000000000000000000000000000081526004016158b490616941565b60405180910390fd5b5b505b5050565b600081836158d29190616cc7565b90506158d9565b92915050565b600081836158ed9190616bb1565b90506158f4565b92915050565b600081836159089190616c71565b905061590f565b92915050565b606061592a848460008561593863ffffffff16565b9050615931565b9392505050565b606082471015151561597f576040517f08c379a0000000000000000000000000000000000000000000000000000000008152600401615976906166a5565b60405180910390fd5b61598e856157dd63ffffffff16565b15156159cf576040517f08c379a00000000000000000000000000000000000000000000000000000000081526004016159c6906168c3565b60405180910390fd5b600060008673ffffffffffffffffffffffffffffffffffffffff1685876040516159f9919061610a565b60006040518083038185875af1925050503d8060008114615a36576040519150601f19603f3d011682016040523d82523d6000602084013e615a3b565b606091505b5091509150615a51828286615a6463ffffffff16565b92505050615a5c5650505b949350505050565b60608315615a7857829050615acf56615ace565b600083511115615a905782518084602001fd50615acd565b816040517f08c379a0000000000000000000000000000000000000000000000000000000008152600401615ac49190616689565b60405180910390fd5b5b5b939250505056616dea565b600067ffffffffffffffff80841115615af657615af5616d90565b5b7fffffffffffffffffffffffffffffffffffffffffffffffffffffffffffffffe060405181603f83601f8901160116810191508082108383111715615b3e57615b3d616d90565b5b81604052809350858152868686011115615b585760006000fd5b858560208301376000602087830101525050505b9392505050565b600060208284031215615b84578081fd5b8135615b8f81616dc1565b809150505b92915050565b60006000600060408486031215615baf578182fd5b8335615bba81616dc1565b80935050602084013567ffffffffffffffff80821115615bd8578384fd5b818601915086601f8301121515615bed578384fd5b813581811115615bfb578485fd5b876020828501011115615c0c578485fd5b6020830194508093505050505b9250925092565b60006000600060608486031215615c35578283fd5b8335615c4081616dc1565b80935050602084013567ffffffffffffffff80821115615c5e578384fd5b818601915086601f8301121515615c73578384fd5b615c8287833560208501615ada565b93506040860135915080821115615c97578283fd5b50808501905085601f8201121515615cad578182fd5b615cbc86823560208401615ada565b9150505b9250925092565b6000600060408385031215615cda578182fd5b8235615ce581616dc1565b80925050602083013590505b9250929050565b600060208284031215615d09578081fd5b815180151581141515615d1a578182fd5b809150505b92915050565b600060208284031215615d36578081fd5b81357fffffffff00000000000000000000000000000000000000000000000000000000811681141515615d67578182fd5b809150505b92915050565b600060208284031215615d83578081fd5b8135615d8e81616dc1565b809150505b92915050565b600060208284031215615daa578081fd5b8135615db581616dc1565b809150505b92915050565b600060208284031215615dd1578081fd5b8135615ddc81616dc1565b809150505b92915050565b600060208284031215615df8578081fd5b8135615e0381616dc1565b809150505b92915050565b600060208284031215615e1f578081fd5b8135615e2a81616dc1565b809150505b92915050565b600060208284031215615e46578081fd5b8135615e5181616dc1565b809150505b92915050565b600060208284031215615e6d578081fd5b8135615e7881616dc1565b809150505b92915050565b600060208284031215615e94578081fd5b8135615e9f81616dc1565b809150505b92915050565b600060208284031215615ebb578081fd5b8135615ec681616dc1565b809150505b92915050565b600060208284031215615ee2578081fd5b8135615eed81616dc1565b809150505b92915050565b600060208284031215615f09578081fd5b8135615f1481616dc1565b809150505b92915050565b600060208284031215615f30578081fd5b8135615f3b81616dc1565b809150505b92915050565b600060208284031215615f57578081fd5b8135615f6281616dc1565b809150505b92915050565b600060208284031215615f7e578081fd5b8135615f8981616dc1565b809150505b92915050565b600060208284031215615fa5578081fd5b8135615fb081616dc1565b809150505b92915050565b60006102208284031215615fcd578081fd5b8190505b92915050565b600060208284031215615fe8578081fd5b813590505b92915050565b600060208284031215616004578081fd5b815190505b92915050565b600060208284031215616020578081fd5b813567ffffffffffffffff811681141515616039578182fd5b809150505b92915050565b600060208284031215616055578081fd5b815160ff811681141515616067578182fd5b809150505b92915050565b6000815180845261608a816020860160208601616cf9565b60207fffffffffffffffffffffffffffffffffffffffffffffffffffffffffffffffe0601f8301168501019150505b92915050565b7fffffffff0000000000000000000000000000000000000000000000000000000083168152600082516160f9816004850160208701616cf9565b6004818401019150505b9392505050565b6000825161611c818460208701616cf9565b8083019150505b92915050565b7f7265776172647300000000000000000000000000000000000000000000000000815260006007820190505b919050565b7f7261746573000000000000000000000000000000000000000000000000000000815260006005820190505b919050565b7f736574746c656d656e740000000000000000000000000000000000000000000081526000600a820190505b919050565b7f6d61726b65740000000000000000000000000000000000000000000000000000815260006006820190505b919050565b7f61756374696f6e73000000000000000000000000000000000000000000000000815260006008820190505b919050565b7f6c69717569646174696f6e73000000000000000000000000000000000000000081526000600c820190505b919050565b7f7072696365730000000000000000000000000000000000000000000000000000815260006006820190505b919050565b600060208201905073ffffffffffffffffffffffffffffffffffffffff831682525b92915050565b600060608201905073ffffffffffffffffffffffffffffffffffffffff80861683528085166020840152508260408301525b949350505050565b73ffffffffffffffffffffffffffffffffffffffff8416815260406020820152816040820152818360608301376000806060848401015260607fffffffffffffffffffffffffffffffffffffffffffffffffffffffffffffffe0601f85011683010190505b949350505050565b73ffffffffffffffffffffffffffffffffffffffff8316815260406020820152600061637e6040830184616072565b90505b9392505050565b600060408201905073ffffffffffffffffffffffffffffffffffffffff841682526fffffffffffffffffffffffffffffffff831660208301525b9392505050565b600060408201905073ffffffffffffffffffffffffffffffffffffffff841682528260208301525b9392505050565b600060208201905082151582525b92915050565b82151581526040602082015260006164276040830184616072565b90505b9392505050565b600060208201905073ffffffffffffffffffffffffffffffffffffffff831682525b92915050565b600060208201905073ffffffffffffffffffffffffffffffffffffffff831682525b92915050565b600060208201905073ffffffffffffffffffffffffffffffffffffffff831682525b92915050565b600060208201905073ffffffffffffffffffffffffffffffffffffffff831682525b92915050565b600060208201905073ffffffffffffffffffffffffffffffffffffffff831682525b92915050565b600060208201905073ffffffffffffffffffffffffffffffffffffffff831682525b92915050565b600060208201905073ffffffffffffffffffffffffffffffffffffffff831682525b92915050565b600060208201905073ffffffffffffffffffffffffffffffffffffffff831682525b92915050565b600060208201905073ffffffffffffffffffffffffffffffffffffffff831682525b92915050565b600060208201905073ffffffffffffffffffffffffffffffffffffffff831682525b92915050565b600060208201905073ffffffffffffffffffffffffffffffffffffffff831682525b92915050565b600060208201905073ffffffffffffffffffffffffffffffffffffffff831682525b92915050565b600060208201905073ffffffffffffffffffffffffffffffffffffffff831682525b92915050565b600060208201905073ffffffffffffffffffffffffffffffffffffffff831682525b92915050565b600060208201905073ffffffffffffffffffffffffffffffffffffffff831682525b92915050565b60208152600061669c6020830184616072565b90505b92915050565b60208152602660208201527f416464726573733a20696e73756666696369656e742062616c616e636520666f60408201527f722063616c6c0000000000000000000000000000000000000000000000000000606082015260006080820190505b919050565b60208152600e60208201527f4e6f7420417574686f72697a6564000000000000000000000000000000000000604082015260006060820190505b919050565b60208152600460208201527f4e6f6f7000000000000000000000000000000000000000000000000000000000604082015260006060820190505b919050565b60208152600b60208201527f416c726561647920736574000000000000000000000000000000000000000000604082015260006060820190505b919050565b60208152601760208201527f496e73756666696369656e7420544350204c6f636b6564000000000000000000604082015260006060820190505b919050565b60208152601260208201527f6d6f7265207468616e2031323820626974730000000000000000000000000000604082015260006060820190505b919050565b60208152600e60208201527f4e6f74206120636f6e7472616374000000000000000000000000000000000000604082015260006060820190505b919050565b60208152601060208201527f416c72656164792073687574646f776e00000000000000000000000000000000604082015260006060820190505b919050565b60208152601d60208201527f416464726573733a2063616c6c20746f206e6f6e2d636f6e7472616374000000604082015260006060820190505b919050565b60208152600c60208201527f4e6f742073687574646f776e0000000000000000000000000000000000000000604082015260006060820190505b919050565b60208152602a60208201527f5361666545524332303a204552433230206f7065726174696f6e20646964206e60408201527f6f74207375636365656400000000000000000000000000000000000000000000606082015260006080820190505b919050565b60208152601160208201527f6d6f7265207468616e2036342062697473000000000000000000000000000000604082015260006060820190505b919050565b60208152600660208201527f4c4f434b45440000000000000000000000000000000000000000000000000000604082015260006060820190505b919050565b60208152601f60208201527f5265656e7472616e637947756172643a207265656e7472616e742063616c6c00604082015260006060820190505b919050565b60208152601260208201527f6d6f7265207468616e2032313620626974730000000000000000000000000000604082015260006060820190505b919050565b60208152600f60208201527f45786365656473206d6178696d756d0000000000000000000000000000000000604082015260006060820190505b919050565b60006040820190507affffffffffffffffffffffffffffffffffffffffffffffffffffff8416825264ffffffffff831660208301525b9392505050565b60006020820190508282525b92915050565b600060208201905067ffffffffffffffff831682525b92915050565b600060208201905060ff831682525b92915050565b60008219821115616b7557616b74616d2e565b5b82820190505b92915050565b600064ffffffffff808316818516808303821115616ba257616ba1616d2e565b5b80820193505050505b92915050565b600067ffffffffffffffff808316818516808303821115616bd557616bd4616d2e565b5b80820193505050505b92915050565b60007affffffffffffffffffffffffffffffffffffffffffffffffffffff808416801515616c1557616c14616d5f565b5b8082851604925050505b92915050565b6000821515616c3757616c36616d5f565b5b82820490505b92915050565b600067ffffffffffffffff808416801515616c6157616c60616d5f565b5b8082851604925050505b92915050565b600067ffffffffffffffff80831681851681830481118215151615616c9957616c98616d2e565b5b80820293505050505b92915050565b600082821015616cbb57616cba616d2e565b5b82820390505b92915050565b600067ffffffffffffffff808316818516915081811015616ceb57616cea616d2e565b5b818103925050505b92915050565b60005b83811015616d185780820151818401525b602081019050616cfc565b83811115616d27576000848401525b505050505b565b7f4e487b7100000000000000000000000000000000000000000000000000000000600052601160045260246000fd5b565b7f4e487b7100000000000000000000000000000000000000000000000000000000600052601260045260246000fd5b565b7f4e487b7100000000000000000000000000000000000000000000000000000000600052604160045260246000fd5b565b73ffffffffffffffffffffffffffffffffffffffff811681141515616de65760006000fd5b505b565bfea2646970667358221220d41c35191be2dec278198e5a3460516fd1596b6b82fb16707009c5b8c3dc792064736f6c63430008040033",
  "linkReferences": {},
  "deployedLinkReferences": {}
}