{
  "_format": "hh-sol-artifact-1",
  "contractName": "Liquidations",
  "sourceName": "contracts/core/logic/Liquidations.sol",
  "abi": [
    {
      "inputs": [
        {
          "components": [
            {
              "internalType": "contract IGovernor",
              "name": "Governor",
              "type": "address"
            },
            {
              "internalType": "contract IProtocolLock",
              "name": "ProtocolLock",
              "type": "address"
            },
            {
              "internalType": "contract IAccounting",
              "name": "Accounting",
              "type": "address"
            },
            {
              "internalType": "contract IHue",
              "name": "Hue",
              "type": "address"
            }
          ],
          "internalType": "struct ILiquidations.ConstructorParams",
          "name": "params",
          "type": "tuple"
        }
      ],
      "stateMutability": "nonpayable",
      "type": "constructor"
    },
    {
      "anonymous": false,
      "inputs": [
        {
          "indexed": false,
          "internalType": "uint256",
          "name": "price",
          "type": "uint256"
        },
        {
          "indexed": false,
          "internalType": "uint256",
          "name": "amountCovered",
          "type": "uint256"
        }
      ],
      "name": "CoveredUnbackedDebt",
      "type": "event"
    },
    {
      "anonymous": false,
      "inputs": [
        {
          "indexed": false,
          "internalType": "uint64",
          "name": "incentive",
          "type": "uint64"
        }
      ],
      "name": "DiscoveryIncentiveUpdated",
      "type": "event"
    },
    {
      "anonymous": false,
      "inputs": [
        {
          "indexed": false,
          "internalType": "uint256",
          "name": "baseTokensToRepay",
          "type": "uint256"
        },
        {
          "indexed": false,
          "internalType": "uint256",
          "name": "collateralToReceive",
          "type": "uint256"
        }
      ],
      "name": "Liquidated",
      "type": "event"
    },
    {
      "anonymous": false,
      "inputs": [
        {
          "indexed": false,
          "internalType": "uint64",
          "name": "incentive",
          "type": "uint64"
        }
      ],
      "name": "LiquidationIncentiveUpdated",
      "type": "event"
    },
    {
      "anonymous": false,
      "inputs": [
        {
          "indexed": false,
          "internalType": "uint64",
          "name": "ratio",
          "type": "uint64"
        }
      ],
      "name": "MaxRewardsRatioUpdated",
      "type": "event"
    },
    {
      "anonymous": false,
      "inputs": [
        {
          "indexed": false,
          "internalType": "uint64",
          "name": "incentive",
          "type": "uint64"
        }
      ],
      "name": "MinLiquidationIncentiveUpdated",
      "type": "event"
    },
    {
      "anonymous": false,
      "inputs": [],
      "name": "Stopped",
      "type": "event"
    },
    {
      "anonymous": false,
      "inputs": [
        {
          "indexed": true,
          "internalType": "uint64",
          "name": "positionID",
          "type": "uint64"
        },
        {
          "indexed": false,
          "internalType": "uint256",
          "name": "debtCount",
          "type": "uint256"
        },
        {
          "indexed": false,
          "internalType": "uint256",
          "name": "collateralCount",
          "type": "uint256"
        },
        {
          "indexed": false,
          "internalType": "uint256",
          "name": "price",
          "type": "uint256"
        }
      ],
      "name": "UndercollatPositionDiscovered",
      "type": "event"
    },
    {
      "anonymous": false,
      "inputs": [
        {
          "indexed": false,
          "internalType": "uint32",
          "name": "duration",
          "type": "uint32"
        }
      ],
      "name": "twapDurationUpdated",
      "type": "event"
    },
    {
      "inputs": [],
      "name": "accounting",
      "outputs": [
        {
          "internalType": "contract IAccounting",
          "name": "",
          "type": "address"
        }
      ],
      "stateMutability": "view",
      "type": "function"
    },
    {
      "inputs": [],
      "name": "currentPeriod",
      "outputs": [
        {
          "internalType": "uint64",
          "name": "period",
          "type": "uint64"
        }
      ],
      "stateMutability": "view",
      "type": "function"
    },
    {
      "inputs": [
        {
          "internalType": "uint64[]",
          "name": "positionIDs",
          "type": "uint64[]"
        }
      ],
      "name": "discoverUndercollateralizedPositions",
      "outputs": [],
      "stateMutability": "nonpayable",
      "type": "function"
    },
    {
      "inputs": [],
      "name": "discoveryIncentive",
      "outputs": [
        {
          "internalType": "uint64",
          "name": "",
          "type": "uint64"
        }
      ],
      "stateMutability": "view",
      "type": "function"
    },
    {
      "inputs": [],
      "name": "ensureLiquidationIncentive",
      "outputs": [],
      "stateMutability": "nonpayable",
      "type": "function"
    },
    {
      "inputs": [],
      "name": "firstPeriod",
      "outputs": [
        {
          "internalType": "uint64",
          "name": "",
          "type": "uint64"
        }
      ],
      "stateMutability": "view",
      "type": "function"
    },
    {
      "inputs": [],
      "name": "governor",
      "outputs": [
        {
          "internalType": "contract IGovernor",
          "name": "",
          "type": "address"
        }
      ],
      "stateMutability": "view",
      "type": "function"
    },
    {
      "inputs": [],
      "name": "hue",
      "outputs": [
        {
          "internalType": "contract IHue",
          "name": "",
          "type": "address"
        }
      ],
      "stateMutability": "view",
      "type": "function"
    },
    {
      "inputs": [
        {
          "internalType": "uint256",
          "name": "baseTokensToRepay",
          "type": "uint256"
        }
      ],
      "name": "liquidate",
      "outputs": [],
      "stateMutability": "nonpayable",
      "type": "function"
    },
    {
      "inputs": [],
      "name": "liquidationIncentive",
      "outputs": [
        {
          "internalType": "uint64",
          "name": "",
          "type": "uint64"
        }
      ],
      "stateMutability": "view",
      "type": "function"
    },
    {
      "inputs": [],
      "name": "maxRewardsRatio",
      "outputs": [
        {
          "internalType": "uint64",
          "name": "",
          "type": "uint64"
        }
      ],
      "stateMutability": "view",
      "type": "function"
    },
    {
      "inputs": [],
      "name": "minLiquidationIncentive",
      "outputs": [
        {
          "internalType": "uint64",
          "name": "",
          "type": "uint64"
        }
      ],
      "stateMutability": "view",
      "type": "function"
    },
    {
      "inputs": [],
      "name": "periodLength",
      "outputs": [
        {
          "internalType": "uint64",
          "name": "",
          "type": "uint64"
        }
      ],
      "stateMutability": "view",
      "type": "function"
    },
    {
      "inputs": [],
      "name": "rewardsLimit",
      "outputs": [
        {
          "internalType": "uint192",
          "name": "remaining",
          "type": "uint192"
        },
        {
          "internalType": "uint64",
          "name": "period",
          "type": "uint64"
        }
      ],
      "stateMutability": "view",
      "type": "function"
    },
    {
      "inputs": [
        {
          "internalType": "uint64",
          "name": "incentive",
          "type": "uint64"
        }
      ],
      "name": "setDiscoveryIncentive",
      "outputs": [],
      "stateMutability": "nonpayable",
      "type": "function"
    },
    {
      "inputs": [
        {
          "internalType": "uint64",
          "name": "incentive",
          "type": "uint64"
        }
      ],
      "name": "setLiquidationIncentive",
      "outputs": [],
      "stateMutability": "nonpayable",
      "type": "function"
    },
    {
      "inputs": [
        {
          "internalType": "uint64",
          "name": "ratio",
          "type": "uint64"
        }
      ],
      "name": "setMaxRewardsRatio",
      "outputs": [],
      "stateMutability": "nonpayable",
      "type": "function"
    },
    {
      "inputs": [
        {
          "internalType": "uint64",
          "name": "incentive",
          "type": "uint64"
        }
      ],
      "name": "setMinLiquidationIncentive",
      "outputs": [],
      "stateMutability": "nonpayable",
      "type": "function"
    },
    {
      "inputs": [
        {
          "internalType": "uint32",
          "name": "duration",
          "type": "uint32"
        }
      ],
      "name": "setTwapDuration",
      "outputs": [],
      "stateMutability": "nonpayable",
      "type": "function"
    },
    {
      "inputs": [],
      "name": "stop",
      "outputs": [],
      "stateMutability": "nonpayable",
      "type": "function"
    },
    {
      "inputs": [],
      "name": "stopped",
      "outputs": [
        {
          "internalType": "bool",
          "name": "",
          "type": "bool"
        }
      ],
      "stateMutability": "view",
      "type": "function"
    },
    {
      "inputs": [],
      "name": "twapDuration",
      "outputs": [
        {
          "internalType": "uint32",
          "name": "",
          "type": "uint32"
        }
      ],
      "stateMutability": "view",
      "type": "function"
    },
    {
      "inputs": [
        {
          "internalType": "bytes4",
          "name": "",
          "type": "bytes4"
        }
      ],
      "name": "validUpdate",
      "outputs": [
        {
          "internalType": "bool",
          "name": "",
          "type": "bool"
        }
      ],
      "stateMutability": "view",
      "type": "function"
    }
  ],
  "bytecode": "0x61014060405260016002600050909055666a94d74f430000600360006101000a81548167ffffffffffffffff021916908367ffffffffffffffff16021790555066b1a2bc2ec50000600360086101000a81548167ffffffffffffffff021916908367ffffffffffffffff160217905550670e16011f4f058000600360106101000a81548167ffffffffffffffff021916908367ffffffffffffffff160217905550670e4b4b8af6a70000600360186101000a81548167ffffffffffffffff021916908367ffffffffffffffff160217905550610708600460006101000a81548163ffffffff021916908363ffffffff160217905550348015620001025760006000fd5b5060405162003fdc38038062003fdc833981810160405281019062000128919062000590565b5b610e105b816000015182602001515b815b8073ffffffffffffffffffffffffffffffffffffffff1660808173ffffffffffffffffffffffffffffffffffffffff1660601b815260140150505b508073ffffffffffffffffffffffffffffffffffffffff1660a08173ffffffffffffffffffffffffffffffffffffffff1660601b815260140150505b5050600181620001c66200050960201b60201c565b620001d2919062000676565b620001de9190620006af565b67ffffffffffffffff1660e08167ffffffffffffffff1660c01b815260080150508067ffffffffffffffff1660c08167ffffffffffffffff1660c01b815260080150505b50806040015173ffffffffffffffffffffffffffffffffffffffff166101008173ffffffffffffffffffffffffffffffffffffffff1660601b81526014015050806060015173ffffffffffffffffffffffffffffffffffffffff166101208173ffffffffffffffffffffffffffffffffffffffff1660601b8152601401505060006040518060a0016040528063bd48ea4260e01b7bffffffffffffffffffffffffffffffffffffffffffffffffffffffff19167bffffffffffffffffffffffffffffffffffffffffffffffffffffffff1916815260200163c7bd8eee60e01b7bffffffffffffffffffffffffffffffffffffffffffffffffffffffff19167bffffffffffffffffffffffffffffffffffffffffffffffffffffffff1916815260200163b970112d60e01b7bffffffffffffffffffffffffffffffffffffffffffffffffffffffff19167bffffffffffffffffffffffffffffffffffffffffffffffffffffffff191681526020016314f2f04760e01b7bffffffffffffffffffffffffffffffffffffffffffffffffffffffff19167bffffffffffffffffffffffffffffffffffffffffffffffffffffffff1916815260200163c433c80a60e01b7bffffffffffffffffffffffffffffffffffffffffffffffffffffffff19167bffffffffffffffffffffffffffffffffffffffffffffffffffffffff191681526020015090506000600090505b81506005811015620004ff57600160016000506000848460058110151562000480577f4e487b7100000000000000000000000000000000000000000000000000000000600052603260045260246000fd5b60200201517bffffffffffffffffffffffffffffffffffffffffffffffffffffffff19167bffffffffffffffffffffffffffffffffffffffffffffffffffffffff1916815260200190815260200160002060006101000a81548160ff0219169083151502179055505b8080620004f690620006e3565b9150506200042f565b50505b506200073d565b600062000523426200052b60201b62001d6e17909060201c565b905080505b90565b600068010000000000000000821015156200057d576040517f08c379a0000000000000000000000000000000000000000000000000000000008152600401620005749062000637565b60405180910390fd5b81905062000586565b919050566200073c565b600060808284031215620005a2578081fd5b604051608081018181106001600160401b0382111715620005d157634e487b7160e01b83526041600452602483fd5b80604052508251620005e3816200071f565b808252506020830151620005f7816200071f565b8060208301525060408301516200060e816200071f565b80604083015250606083015162000625816200071f565b80606083015250809150505b92915050565b60208152601160208201527f6d6f7265207468616e2036342062697473000000000000000000000000000000604082015260006060820190505b919050565b60006001600160401b038084168015156200069f57634e487b7160e01b83526012600452602483fd5b8082851604925050505b92915050565b60006001600160401b03808316818516915081811015620006d557620006d462000707565b5b818103925050505b92915050565b6000600019821415620006fb57620006fa62000707565b5b6001820190505b919050565b634e487b7160e01b600052601160045260246000fd5b565b6001600160a01b03811681141515620007385760006000fd5b505b565b5b60805160601c60a05160601c60c05160c01c60e05160c01c6101005160601c6101205160601c61379c620008406000396000818161079c01528181610a9401528181610c33015261187401526000818161097701528181610a0701528181610eda0152818161132f015281816113d001528181611757015281816117e70152818161190301528181611a280152818161242a01526126f7015260008181611c940152611dce015260008181611d4c0152611def015260008181611ee4015261218001526000818161047a015281816104e10152818161062101528181610c750152818161102f015281816114e101528181611e3d0152612213015261379c6000f3fe60806040523480156100115760006000fd5b50600436106101915760003560e01c806375f12b21116100e4578063b970112d1161008d578063c4e3a63b11610067578063c4e3a63b146103ce578063c7bd8eee146103ec578063d2ca21151461040857610191565b8063b970112d1461037a578063bd48ea4214610396578063c433c80a146103b257610191565b80639624e83e116100be5780639624e83e1461031f5780639672ff281461033d578063b6e6096d1461035b57610191565b806375f12b21146102c55780638b421eba146102e35780638c765e941461030157610191565b80631273c2ea116101465780633237417411610120578063323741741461026f5780633ebe07771461028d578063415f1240146102a957610191565b80631273c2ea1461022b57806314f2f0471461023557806326d895451461025157610191565b806307da68f51161017757806307da68f5146101d35780630c340a24146101dd578063113cf1ab146101fb57610191565b80627de4471461019757806306040618146101b557610191565b60006000fd5b61019f610426565b6040516101ac919061348d565b60405180910390f35b6101bd610440565b6040516101ca919061348d565b60405180910390f35b6101db610458565b005b6101e5610478565b6040516101f29190613023565b60405180910390f35b61021560048036038101906102109190612c39565b61049c565b6040516102229190612fe7565b60405180910390f35b6102336104c1565b005b61024f600480360381019061024a9190612e3c565b610b6f565b005b610259610c1b565b6040516102669190613475565b60405180910390f35b610277610c31565b604051610284919061304b565b60405180910390f35b6102a760048036038101906102a29190612b55565b610c55565b005b6102c360048036038101906102be9190612db7565b61147c565b005b6102cd6119df565b6040516102da9190612fe7565b60405180910390f35b6102eb6119f2565b6040516102f8919061348d565b60405180910390f35b610309611a0c565b604051610316919061348d565b60405180910390f35b610327611a26565b6040516103349190612ffb565b60405180910390f35b610345611a4a565b604051610352919061348d565b60405180910390f35b610363611a64565b6040516103719291906133ed565b60405180910390f35b610394600480360381019061038f9190612e3c565b611ab1565b005b6103b060048036038101906103ab9190612e3c565b611b7b565b005b6103cc60048036038101906103c79190612e15565b611c0f565b005b6103d6611c92565b6040516103e3919061348d565b60405180910390f35b61040660048036038101906104019190612e3c565b611cb6565b005b610410611d4a565b60405161041d919061348d565b60405180910390f35b600360109054906101000a900467ffffffffffffffff1681565b6000610450611dca63ffffffff16565b905080505b90565b610466611e3863ffffffff16565b610474611e9863ffffffff16565b5b5b565b7f000000000000000000000000000000000000000000000000000000000000000081565b600160005060205280600052604060002060009150909054906101000a900460ff1681565b6104cf611ee263ffffffff16565b6104dd611fbf63ffffffff16565b60007f000000000000000000000000000000000000000000000000000000000000000073ffffffffffffffffffffffffffffffffffffffff1663d3419bf36040518163ffffffff1660e01b815260040160206040518083038186803b1580156105465760006000fd5b505afa15801561055b573d600060003e3d6000fd5b505050506040513d601f19601f8201168201806040525081019061057f9190612cad565b73ffffffffffffffffffffffffffffffffffffffff1663fa42dcf4600460009054906101000a900463ffffffff166040518263ffffffff1660e01b81526004016105c99190613475565b60206040518083038186803b1580156105e25760006000fd5b505afa1580156105f7573d600060003e3d6000fd5b505050506040513d601f19601f8201168201806040525081019061061b9190612dd3565b905060007f000000000000000000000000000000000000000000000000000000000000000073ffffffffffffffffffffffffffffffffffffffff166380f556056040518163ffffffff1660e01b815260040160206040518083038186803b1580156106865760006000fd5b505afa15801561069b573d600060003e3d6000fd5b505050506040513d601f19601f820116820180604052508101906106bf9190612c86565b73ffffffffffffffffffffffffffffffffffffffff1663eb6843ce60006040518263ffffffff1660e01b81526004016106f89190613073565b6101a060405180830381600087803b1580156107145760006000fd5b505af1158015610729573d600060003e3d6000fd5b505050506040513d601f19601f8201168201806040525081019061074d9190612cd4565b905060008160400151111515610798576040517f08c379a000000000000000000000000000000000000000000000000000000000815260040161078f906130ba565b60405180910390fd5b60007f000000000000000000000000000000000000000000000000000000000000000073ffffffffffffffffffffffffffffffffffffffff166375172a8b6040518163ffffffff1660e01b815260040160206040518083038186803b1580156108015760006000fd5b505afa158015610816573d600060003e3d6000fd5b505050506040513d601f19601f8201168201806040525081019061083a9190612dd3565b9050600081111515610881576040517f08c379a0000000000000000000000000000000000000000000000000000000008152600401610878906133ae565b60405180910390fd5b600060008360200151141561089e57826040015190508050610939565b60006108d985600360109054906101000a900467ffffffffffffffff1667ffffffffffffffff1686602001516120149092919063ffffffff16565b9050808460400151111515610923576040517f08c379a000000000000000000000000000000000000000000000000000000000815260040161091a906131b6565b60405180910390fd5b8084604001516109339190613614565b91508150505b61094c828261213890919063ffffffff16565b9050805061096781846040015161215690919063ffffffff16565b83604001909081815260200150507f000000000000000000000000000000000000000000000000000000000000000073ffffffffffffffffffffffffffffffffffffffff16635a6beaf46000856040518363ffffffff1660e01b81526004016109d192919061308f565b600060405180830381600087803b1580156109ec5760006000fd5b505af1158015610a01573d600060003e3d6000fd5b505050507f000000000000000000000000000000000000000000000000000000000000000073ffffffffffffffffffffffffffffffffffffffff16632a7ba1f7826040518263ffffffff1660e01b8152600401610a5e919061342a565b600060405180830381600087803b158015610a795760006000fd5b505af1158015610a8e573d600060003e3d6000fd5b505050507f000000000000000000000000000000000000000000000000000000000000000073ffffffffffffffffffffffffffffffffffffffff1663c59fb1ab826040518263ffffffff1660e01b8152600401610aeb919061342a565b600060405180830381600087803b158015610b065760006000fd5b505af1158015610b1b573d600060003e3d6000fd5b505050507fb397b210edc0d78ebf7fbbac5ccc5e284eb5ec9bbc6cbae2a2bdda56439072828482604051610b5092919061343c565b60405180910390a1505050505b5b610b6c61217163ffffffff16565b5b565b610b7d611e3863ffffffff16565b8067ffffffffffffffff16600360109054906101000a900467ffffffffffffffff1667ffffffffffffffff16101515610bb65760006000fd5b80600360186101000a81548167ffffffffffffffff021916908367ffffffffffffffff1602179055507ff1fccf01004863a033b4d86add53fcb8fa13706aff42f590ea040916d23969a281604051610c0e919061348d565b60405180910390a15b5b50565b600460009054906101000a900463ffffffff1681565b7f000000000000000000000000000000000000000000000000000000000000000081565b610c63611ee263ffffffff16565b610c7161220363ffffffff16565b60007f000000000000000000000000000000000000000000000000000000000000000073ffffffffffffffffffffffffffffffffffffffff1663d3419bf36040518163ffffffff1660e01b815260040160206040518083038186803b158015610cda5760006000fd5b505afa158015610cef573d600060003e3d6000fd5b505050506040513d601f19601f82011682018060405250810190610d139190612cad565b73ffffffffffffffffffffffffffffffffffffffff1663fa42dcf4600460009054906101000a900463ffffffff166040518263ffffffff1660e01b8152600401610d5d9190613475565b60206040518083038186803b158015610d765760006000fd5b505afa158015610d8b573d600060003e3d6000fd5b505050506040513d601f19601f82011682018060405250810190610daf9190612dd3565b9050600060056000506040518060400160405290816000820160009054906101000a900477ffffffffffffffffffffffffffffffffffffffffffffffff1677ffffffffffffffffffffffffffffffffffffffffffffffff1677ffffffffffffffffffffffffffffffffffffffffffffffff1681526020016000820160189054906101000a900467ffffffffffffffff1667ffffffffffffffff1667ffffffffffffffff168152602001505090506000610e6c611dca63ffffffff16565b90506000600360009054906101000a900467ffffffffffffffff1667ffffffffffffffff169050670de0b6b3a764000081108015610ec157508167ffffffffffffffff16836020015167ffffffffffffffff16105b15610fc8576040518060400160405280610f93610f86847f000000000000000000000000000000000000000000000000000000000000000073ffffffffffffffffffffffffffffffffffffffff16630dca59c16040518163ffffffff1660e01b815260040160206040518083038186803b158015610f3f5760006000fd5b505afa158015610f54573d600060003e3d6000fd5b505050506040513d601f19601f82011682018060405250810190610f789190612dd3565b6122f690919063ffffffff16565b61231c909063ffffffff16565b77ffffffffffffffffffffffffffffffffffffffffffffffff1681526020018367ffffffffffffffff16815260200150925082505b6000836000015177ffffffffffffffffffffffffffffffffffffffffffffffff1611151561102b576040517f08c379a0000000000000000000000000000000000000000000000000000000008152600401611022906132f1565b60405180910390fd5b60007f000000000000000000000000000000000000000000000000000000000000000073ffffffffffffffffffffffffffffffffffffffff166380f556056040518163ffffffff1660e01b815260040160206040518083038186803b1580156110945760006000fd5b505afa1580156110a9573d600060003e3d6000fd5b505050506040513d601f19601f820116820180604052508101906110cd9190612c86565b9050600061124d6040518060a001604052808473ffffffffffffffffffffffffffffffffffffffff1663eb6843ce60006040518263ffffffff1660e01b81526004016111199190613073565b6101a060405180830381600087803b1580156111355760006000fd5b505af115801561114a573d600060003e3d6000fd5b505050506040513d601f19601f8201168201806040525081019061116e9190612cd4565b815260200160008152602001876000015177ffffffffffffffffffffffffffffffffffffffffffffffff1681526020018473ffffffffffffffffffffffffffffffffffffffff16635658c0126040518163ffffffff1660e01b815260040160206040518083038186803b1580156111e55760006000fd5b505afa1580156111fa573d600060003e3d6000fd5b505050506040513d601f19601f8201168201806040525081019061121e9190612dd3565b81526020018473ffffffffffffffffffffffffffffffffffffffff16815260200150888861238863ffffffff16565b9050611264816040015161231c909063ffffffff16565b856000019077ffffffffffffffffffffffffffffffffffffffffffffffff16908177ffffffffffffffffffffffffffffffffffffffffffffffff168152602001505084600560005060008201518160000160006101000a81548177ffffffffffffffffffffffffffffffffffffffffffffffff021916908377ffffffffffffffffffffffffffffffffffffffffffffffff16021790555060208201518160000160186101000a81548167ffffffffffffffff021916908367ffffffffffffffff1602179055509050507f000000000000000000000000000000000000000000000000000000000000000073ffffffffffffffffffffffffffffffffffffffff16635a6beaf4600083600001516040518363ffffffff1660e01b815260040161138d92919061308f565b600060405180830381600087803b1580156113a85760006000fd5b505af11580156113bd573d600060003e3d6000fd5b50505050600081602001511115611462577f000000000000000000000000000000000000000000000000000000000000000073ffffffffffffffffffffffffffffffffffffffff1663625021693383602001516040518363ffffffff1660e01b815260040161142d929190612f89565b600060405180830381600087803b1580156114485760006000fd5b505af115801561145d573d600060003e3d6000fd5b505050505b5050505050505b5b61147861217163ffffffff16565b5b50565b61148a611ee263ffffffff16565b611498611fbf63ffffffff16565b6000811115156114dd576040517f08c379a00000000000000000000000000000000000000000000000000000000081526004016114d490613234565b60405180910390fd5b60007f000000000000000000000000000000000000000000000000000000000000000073ffffffffffffffffffffffffffffffffffffffff166380f556056040518163ffffffff1660e01b815260040160206040518083038186803b1580156115465760006000fd5b505afa15801561155b573d600060003e3d6000fd5b505050506040513d601f19601f8201168201806040525081019061157f9190612c86565b73ffffffffffffffffffffffffffffffffffffffff1663eb6843ce60006040518263ffffffff1660e01b81526004016115b89190613073565b6101a060405180830381600087803b1580156115d45760006000fd5b505af11580156115e9573d600060003e3d6000fd5b505050506040513d601f19601f8201168201806040525081019061160d9190612cd4565b905060008160400151111515611658576040517f08c379a000000000000000000000000000000000000000000000000000000000815260040161164f906130ba565b60405180910390fd5b600081602001511115156116a1576040517f08c379a0000000000000000000000000000000000000000000000000000000008152600401611698906132b2565b60405180910390fd5b806040015182111515156116ea576040517f08c379a00000000000000000000000000000000000000000000000000000000081526004016116e190613138565b60405180910390fd5b600061170982602001518360400151856120149092919063ffffffff16565b905061172281836020015161215690919063ffffffff16565b826020019090818152602001505061174783836040015161215690919063ffffffff16565b82604001909081815260200150507f000000000000000000000000000000000000000000000000000000000000000073ffffffffffffffffffffffffffffffffffffffff16635a6beaf46000846040518363ffffffff1660e01b81526004016117b192919061308f565b600060405180830381600087803b1580156117cc5760006000fd5b505af11580156117e1573d600060003e3d6000fd5b505050507f000000000000000000000000000000000000000000000000000000000000000073ffffffffffffffffffffffffffffffffffffffff16632a7ba1f7846040518263ffffffff1660e01b815260040161183e919061342a565b600060405180830381600087803b1580156118595760006000fd5b505af115801561186e573d600060003e3d6000fd5b505050507f000000000000000000000000000000000000000000000000000000000000000073ffffffffffffffffffffffffffffffffffffffff166379cc679033856040518363ffffffff1660e01b81526004016118cd929190612fb8565b600060405180830381600087803b1580156118e85760006000fd5b505af11580156118fd573d600060003e3d6000fd5b505050507f000000000000000000000000000000000000000000000000000000000000000073ffffffffffffffffffffffffffffffffffffffff16636250216933836040518363ffffffff1660e01b815260040161195c929190612f89565b600060405180830381600087803b1580156119775760006000fd5b505af115801561198c573d600060003e3d6000fd5b505050507fa7c1efbe8c264edbfd86d7edf1a6b82896995680f966de445fc3b6e0531bf41a83826040516119c192919061343c565b60405180910390a150505b5b6119db61217163ffffffff16565b5b50565b600060009054906101000a900460ff1681565b600360009054906101000a900467ffffffffffffffff1681565b600360189054906101000a900467ffffffffffffffff1681565b7f000000000000000000000000000000000000000000000000000000000000000081565b600360089054906101000a900467ffffffffffffffff1681565b60056000508060000160009054906101000a900477ffffffffffffffffffffffffffffffffffffffffffffffff16908060000160189054906101000a900467ffffffffffffffff16905082565b611abf611e3863ffffffff16565b8067ffffffffffffffff16670de0b6b3a764000011158015611b0a5750600360189054906101000a900467ffffffffffffffff1667ffffffffffffffff168167ffffffffffffffff16105b1515611b165760006000fd5b80600360106101000a81548167ffffffffffffffff021916908367ffffffffffffffff1602179055507ffb6278b64d20ff8d4dff7dc61ef28a96a02863b62d59560992b21c143827b6ed81604051611b6e919061348d565b60405180910390a15b5b50565b611b89611e3863ffffffff16565b670de0b6b3a76400008167ffffffffffffffff16101515611baa5760006000fd5b80600360006101000a81548167ffffffffffffffff021916908367ffffffffffffffff1602179055507fd01f35ff12ff3673364e94e574afbf379a1f14ef5846096eeef796ca37343efb81604051611c02919061348d565b60405180910390a15b5b50565b611c1d611e3863ffffffff16565b61012c8163ffffffff1610151515611c355760006000fd5b80600460006101000a81548163ffffffff021916908363ffffffff1602179055507f961f58524be0d9222d4e0bf61ebaef889aac159bf9071158da8eff8f5cab1a6181604051611c859190613475565b60405180910390a15b5b50565b7f000000000000000000000000000000000000000000000000000000000000000081565b611cc4611e3863ffffffff16565b670de0b6b3a76400008167ffffffffffffffff16101515611ce55760006000fd5b80600360086101000a81548167ffffffffffffffff021916908367ffffffffffffffff1602179055507f41a4b38243b39797140fa4225d9e3da5229e59ebc192515cd52ba275b676139581604051611d3d919061348d565b60405180910390a15b5b50565b7f000000000000000000000000000000000000000000000000000000000000000081565b60006801000000000000000082101515611dbd576040517f08c379a0000000000000000000000000000000000000000000000000000000008152600401611db49061336f565b60405180910390fd5b819050611dc5565b919050565b60007f00000000000000000000000000000000000000000000000000000000000000007f0000000000000000000000000000000000000000000000000000000000000000611e1c6127fc63ffffffff16565b611e26919061357d565b611e309190613633565b905080505b90565b611e957f000000000000000000000000000000000000000000000000000000000000000073ffffffffffffffffffffffffffffffffffffffff163373ffffffffffffffffffffffffffffffffffffffff161461281763ffffffff16565b5b565b6001600060006101000a81548160ff0219169083151502179055507f7acc84e34091ae817647a4c49116f5cc07f319078ba80f8f5fde37ea7e25cbd660405160405180910390a15b565b7f000000000000000000000000000000000000000000000000000000000000000073ffffffffffffffffffffffffffffffffffffffff1663e97dcb626040518163ffffffff1660e01b8152600401600060405180830381600087803b158015611f4b5760006000fd5b505af1158015611f60573d600060003e3d6000fd5b50505050600260026000505414151515611faf576040517f08c379a0000000000000000000000000000000000000000000000000000000008152600401611fa690613273565b60405180910390fd5b600260026000508190909055505b565b600060009054906101000a900460ff16151515612011576040517f08c379a000000000000000000000000000000000000000000000000000000000815260040161200890613330565b60405180910390fd5b5b565b6000600060006000198587098587029250828110838203039150506000811415612057576000841115156120485760006000fd5b83820492508292505050612131565b80841115156120665760006000fd5b60008486880990508281118203915080830392506000856001877fffffffffffffffffffffffffffffffffffffffffffffffffffffffffffffffff03011690508050808604955080840493506001818260000304019050808302841793508350600060028760030218905080870260020381029050805080870260020381029050805080870260020381029050805080870260020381029050805080870260020381029050805080870260020381029050805080850295508550508494505050505061213156505050505b9392505050565b60008183106121475781612149565b825b9050612150565b92915050565b600081836121649190613614565b905061216b565b92915050565b600160026000508190909055507f000000000000000000000000000000000000000000000000000000000000000073ffffffffffffffffffffffffffffffffffffffff1663e9fad8ee6040518163ffffffff1660e01b8152600401600060405180830381600087803b1580156121e75760006000fd5b505af11580156121fc573d600060003e3d6000fd5b505050505b565b612211611fbf63ffffffff16565b7f000000000000000000000000000000000000000000000000000000000000000073ffffffffffffffffffffffffffffffffffffffff1663bf86d6906040518163ffffffff1660e01b815260040160206040518083038186803b1580156122785760006000fd5b505afa15801561228d573d600060003e3d6000fd5b505050506040513d601f19601f820116820180604052508101906122b19190612c16565b1515156122f3576040517f08c379a00000000000000000000000000000000000000000000000000000000081526004016122ea906130f9565b60405180910390fd5b5b565b60006123118383670de0b6b3a764000061201463ffffffff16565b905080505b92915050565b600078010000000000000000000000000000000000000000000000008210151561237b576040517f08c379a000000000000000000000000000000000000000000000000000000000815260040161237290613177565b60405180910390fd5b819050612383565b919050565b6123906129d5565b60008351905060006000600060006123a6612a23565b60006000600090505b878110156127de5760008c6040015114156123c9576127de565b8a81815181101515612404577f4e487b7100000000000000000000000000000000000000000000000000000000600052603260045260246000fd5b60200260200101519150815060008267ffffffffffffffff161415612428576127cb565b7f000000000000000000000000000000000000000000000000000000000000000073ffffffffffffffffffffffffffffffffffffffff16636594da9f836040518263ffffffff1660e01b8152600401612481919061348d565b60406040518083038186803b15801561249a5760006000fd5b505afa1580156124af573d600060003e3d6000fd5b505050506040513d601f19601f820116820180604052508101906124d39190612def565b809750819850505060008714156124e9576127cb565b612500878d6060015161285d90919063ffffffff16565b612513878c61285d90919063ffffffff16565b10151561251f576127cb565b8b6080015173ffffffffffffffffffffffffffffffffffffffff1663eb6843ce836040518263ffffffff1660e01b815260040161255c919061348d565b6101a060405180830381600087803b1580156125785760006000fd5b505af115801561258d573d600060003e3d6000fd5b505050506040513d601f19601f820116820180604052508101906125b19190612cd4565b92508250612615836040015184602001518c8f60400151600360189054906101000a900467ffffffffffffffff1667ffffffffffffffff16600360089054906101000a900467ffffffffffffffff1667ffffffffffffffff1661287863ffffffff16565b8e60400181909081526020015081965082975050505061264a83604001518d600001516040015161299490919063ffffffff16565b8c600001516040019090818152602001505060008360400190908181526020015050612687848d600001516020015161299490919063ffffffff16565b8c60000151602001909081815260200150506126c26126af868661299490919063ffffffff16565b846020015161215690919063ffffffff16565b83602001909081815260200150506126e7858d6020015161299490919063ffffffff16565b8c602001909081815260200150507f000000000000000000000000000000000000000000000000000000000000000073ffffffffffffffffffffffffffffffffffffffff16635a6beaf483856040518363ffffffff1660e01b81526004016127509291906134a9565b600060405180830381600087803b15801561276b5760006000fd5b505af1158015612780573d600060003e3d6000fd5b505050508167ffffffffffffffff167feedd1116ee4b172f8bd428c71ffa4da20e0bffc9e5b05e78bbacd0b4337c71bf88888d6040516127c293929190613455565b60405180910390a25b80806127d690613665565b9150506123af565b508a9750505050505050506127f556505050505050505b9392505050565b600061280f42611d6e909063ffffffff16565b905080505b90565b801515612859576040517f08c379a0000000000000000000000000000000000000000000000000000000008152600401612850906131f5565b60405180910390fd5b5b50565b6000818361286b91906135cf565b9050612872565b92915050565b6000600060006000612893858b6122f690919063ffffffff16565b90506128a888826129af90919063ffffffff16565b93508350888411156128d15788935083506128cc88856122f690919063ffffffff16565b905080505b612913848a6128e09190613614565b612905886128f78c8f6129af90919063ffffffff16565b6122f690919063ffffffff16565b61213890919063ffffffff16565b92508250600061292c89856122f690919063ffffffff16565b90506000818c11612948578b826129439190613614565b61294b565b60005b90506000612962828561299490919063ffffffff16565b905089811161297c57808a6129779190613614565b61297f565b60005b94508450505050505b96509650969350505050565b600081836129a2919061355d565b90506129a9565b92915050565b60006129ca83670de0b6b3a76400008461201463ffffffff16565b905080505b92915050565b6040518060a001604052806129e8612a23565b8152602001600081526020016000815260200160008152602001600073ffffffffffffffffffffffffffffffffffffffff1681526020015090565b604051806101a001604052806000815260200160008152602001600081526020016000815260200160008152602001600067ffffffffffffffff168152602001600067ffffffffffffffff168152602001600060020b8152602001600015158152602001600067ffffffffffffffff168152602001600063ffffffff168152602001600073ffffffffffffffffffffffffffffffffffffffff168152602001600067ffffffffffffffff168152602001509056613765565b600081519050612aea81613706565b5b919050565b60008151905080151581141515612b075760006000fd5b5b919050565b6000815190508060020b81141515612b255760006000fd5b5b919050565b600081519050612b3a8161372f565b5b919050565b600081519050612b4f81613748565b5b919050565b60006020808385031215612b67578182fd5b823567ffffffffffffffff80821115612b7e578384fd5b818501915085601f8301121515612b93578384fd5b813581811115612ba657612ba56136d5565b5b8060051b9150612bb7848301613506565b8082825285820191508585018987868801011115612bd3578788fd5b8795505b83861015612c055780359450612bec85613748565b848352868301925086810190505b600186019550612bd7565b508096505050505050505b92915050565b600060208284031215612c27578081fd5b612c3082612af0565b90505b92915050565b600060208284031215612c4a578081fd5b81357fffffffff00000000000000000000000000000000000000000000000000000000811681141515612c7b578182fd5b809150505b92915050565b600060208284031215612c97578081fd5b8151612ca281613706565b809150505b92915050565b600060208284031215612cbe578081fd5b8151612cc981613706565b809150505b92915050565b60006101a08284031215612ce6578081fd5b612cee6134d4565b8251815260208301516020820152604083015160408201526060830151606082015260808301516080820152612d2660a08401612b40565b60a0820152612d3760c08401612b40565b60c0820152612d4860e08401612b0d565b60e0820152610100612d5b818501612af0565b8183015250610120612d6e818501612b40565b8183015250610140612d81818501612b2b565b8183015250610160612d94818501612adb565b8183015250610180612da7818501612b40565b8183015250809150505b92915050565b600060208284031215612dc8578081fd5b813590505b92915050565b600060208284031215612de4578081fd5b815190505b92915050565b6000600060408385031215612e02578081fd5b82519150602083015190505b9250929050565b600060208284031215612e26578081fd5b8135612e318161372f565b809150505b92915050565b600060208284031215612e4d578081fd5b8135612e5881613748565b809150505b92915050565b73ffffffffffffffffffffffffffffffffffffffff8116825250505b565b801515825250505b565b8060020b825250505b565b805182526020810151602083015260408101516040830152606081015160608301526080810151608083015260a0810151612ed460a0840182612f77565b5060c0810151612ee760c0840182612f77565b5060e0810151612efa60e0840182612e8b565b5061010080820151612f0e82850182612e81565b505061012080820151612f2382850182612f77565b505061014080820151612f3882850182612f69565b505061016080820151612f4d82850182612e63565b505061018080820151612f6282850182612f77565b505050505b565b63ffffffff8116825250505b565b67ffffffffffffffff8116825250505b565b600060408201905073ffffffffffffffffffffffffffffffffffffffff841682528260208301525b9392505050565b600060408201905073ffffffffffffffffffffffffffffffffffffffff841682528260208301525b9392505050565b600060208201905082151582525b92915050565b600060208201905073ffffffffffffffffffffffffffffffffffffffff831682525b92915050565b600060208201905073ffffffffffffffffffffffffffffffffffffffff831682525b92915050565b600060208201905073ffffffffffffffffffffffffffffffffffffffff831682525b92915050565b600060208201905067ffffffffffffffff831682525b92915050565b60006101c08201905067ffffffffffffffff841682526130b26020830184612e96565b5b9392505050565b60208152600760208201527f4e6f206465627400000000000000000000000000000000000000000000000000604082015260006060820190505b919050565b60208152601160208201527f50726f746f636f6c2073687574646f776e000000000000000000000000000000604082015260006060820190505b919050565b60208152601160208201527f496e73756666696369656e742064656274000000000000000000000000000000604082015260006060820190505b919050565b60208152601260208201527f6d6f7265207468616e2031393220626974730000000000000000000000000000604082015260006060820190505b919050565b60208152601160208201527f456e6f75676820636f6c6c61746572616c000000000000000000000000000000604082015260006060820190505b919050565b60208152600e60208201527f4e6f7420417574686f72697a6564000000000000000000000000000000000000604082015260006060820190505b919050565b60208152600460208201527f4e6f6f7000000000000000000000000000000000000000000000000000000000604082015260006060820190505b919050565b60208152600d60208201527f4c50205265656e7472616e637900000000000000000000000000000000000000604082015260006060820190505b919050565b60208152600d60208201527f4e6f20636f6c6c61746572616c00000000000000000000000000000000000000604082015260006060820190505b919050565b60208152601460208201527f4e6f20726577617264732072656d61696e696e67000000000000000000000000604082015260006060820190505b919050565b60208152601360208201527f436f6e74726163742069732073746f7070656400000000000000000000000000604082015260006060820190505b919050565b60208152601160208201527f6d6f7265207468616e2036342062697473000000000000000000000000000000604082015260006060820190505b919050565b60208152600b60208201527f4e6f207265736572766573000000000000000000000000000000000000000000604082015260006060820190505b919050565b600060408201905077ffffffffffffffffffffffffffffffffffffffffffffffff8416825267ffffffffffffffff831660208301525b9392505050565b60006020820190508282525b92915050565b60006040820190508382528260208301525b9392505050565b60006060820190508482528360208301528260408301525b949350505050565b600060208201905063ffffffff831682525b92915050565b600060208201905067ffffffffffffffff831682525b92915050565b60006101c08201905067ffffffffffffffff841682526134cc6020830184612e96565b5b9392505050565b600060405190506101a0810181811067ffffffffffffffff821117156134fd576134fc6136d5565b5b80604052505b90565b600060405190507fffffffffffffffffffffffffffffffffffffffffffffffffffffffffffffffe0601f830116810181811067ffffffffffffffff82111715613552576135516136d5565b5b80604052505b919050565b60008219821115613571576135706136a4565b5b82820190505b92915050565b600067ffffffffffffffff8084168015156135bf577f4e487b710000000000000000000000000000000000000000000000000000000083526012600452602483fd5b8082851604925050505b92915050565b6000817fffffffffffffffffffffffffffffffffffffffffffffffffffffffffffffffff0483118215151615613608576136076136a4565b5b82820290505b92915050565b600082821015613627576136266136a4565b5b82820390505b92915050565b600067ffffffffffffffff808316818516915081811015613657576136566136a4565b5b818103925050505b92915050565b60007fffffffffffffffffffffffffffffffffffffffffffffffffffffffffffffffff821415613698576136976136a4565b5b6001820190505b919050565b7f4e487b7100000000000000000000000000000000000000000000000000000000600052601160045260246000fd5b565b7f4e487b7100000000000000000000000000000000000000000000000000000000600052604160045260246000fd5b565b73ffffffffffffffffffffffffffffffffffffffff81168114151561372b5760006000fd5b505b565b63ffffffff8116811415156137445760006000fd5b505b565b67ffffffffffffffff8116811415156137615760006000fd5b505b565bfea264697066735822122019c2113639a36ece1fd0e8adfb42e41605487badcf2b38918a31cf9cea3bbffa64736f6c63430008040033",
  "linkReferences": {},
  "deployedLinkReferences": {}
}