{
  "_format": "hh-sol-artifact-1",
  "contractName": "Liquidations",
  "sourceName": "contracts/core/logic/Liquidations.sol",
  "abi": [
    {
      "inputs": [
        {
          "components": [
            {
              "internalType": "contract IGovernor",
              "name": "Governor",
              "type": "address"
            },
            {
              "internalType": "contract IProtocolLock",
              "name": "ProtocolLock",
              "type": "address"
            },
            {
              "internalType": "contract IAccounting",
              "name": "Accounting",
              "type": "address"
            },
            {
              "internalType": "contract IHue",
              "name": "Hue",
              "type": "address"
            }
          ],
          "internalType": "struct ILiquidations.ConstructorParams",
          "name": "params",
          "type": "tuple"
        }
      ],
      "stateMutability": "nonpayable",
      "type": "constructor"
    },
    {
      "anonymous": false,
      "inputs": [
        {
          "indexed": false,
          "internalType": "uint256",
          "name": "price",
          "type": "uint256"
        },
        {
          "indexed": false,
          "internalType": "uint256",
          "name": "amountCovered",
          "type": "uint256"
        }
      ],
      "name": "CoveredUnbackedDebt",
      "type": "event"
    },
    {
      "anonymous": false,
      "inputs": [
        {
          "indexed": false,
          "internalType": "uint64",
          "name": "incentive",
          "type": "uint64"
        }
      ],
      "name": "DiscoveryIncentiveUpdated",
      "type": "event"
    },
    {
      "anonymous": false,
      "inputs": [
        {
          "indexed": false,
          "internalType": "uint256",
          "name": "baseTokensToRepay",
          "type": "uint256"
        },
        {
          "indexed": false,
          "internalType": "uint256",
          "name": "collateralToReceive",
          "type": "uint256"
        }
      ],
      "name": "Liquidated",
      "type": "event"
    },
    {
      "anonymous": false,
      "inputs": [
        {
          "indexed": false,
          "internalType": "uint64",
          "name": "incentive",
          "type": "uint64"
        }
      ],
      "name": "LiquidationIncentiveUpdated",
      "type": "event"
    },
    {
      "anonymous": false,
      "inputs": [
        {
          "indexed": false,
          "internalType": "uint64",
          "name": "ratio",
          "type": "uint64"
        }
      ],
      "name": "MaxRewardsRatioUpdated",
      "type": "event"
    },
    {
      "anonymous": false,
      "inputs": [
        {
          "indexed": false,
          "internalType": "uint64",
          "name": "incentive",
          "type": "uint64"
        }
      ],
      "name": "MinLiquidationIncentiveUpdated",
      "type": "event"
    },
    {
      "anonymous": false,
      "inputs": [],
      "name": "Stopped",
      "type": "event"
    },
    {
      "anonymous": false,
      "inputs": [
        {
          "indexed": true,
          "internalType": "uint64",
          "name": "positionID",
          "type": "uint64"
        },
        {
          "indexed": false,
          "internalType": "uint256",
          "name": "debtCount",
          "type": "uint256"
        },
        {
          "indexed": false,
          "internalType": "uint256",
          "name": "collateralCount",
          "type": "uint256"
        },
        {
          "indexed": false,
          "internalType": "uint256",
          "name": "price",
          "type": "uint256"
        }
      ],
      "name": "UndercollatPositionDiscovered",
      "type": "event"
    },
    {
      "anonymous": false,
      "inputs": [
        {
          "indexed": false,
          "internalType": "uint32",
          "name": "duration",
          "type": "uint32"
        }
      ],
      "name": "twapDurationUpdated",
      "type": "event"
    },
    {
      "inputs": [],
      "name": "accounting",
      "outputs": [
        {
          "internalType": "contract IAccounting",
          "name": "",
          "type": "address"
        }
      ],
      "stateMutability": "view",
      "type": "function"
    },
    {
      "inputs": [],
      "name": "currentPeriod",
      "outputs": [
        {
          "internalType": "uint64",
          "name": "period",
          "type": "uint64"
        }
      ],
      "stateMutability": "view",
      "type": "function"
    },
    {
      "inputs": [
        {
          "internalType": "uint64[]",
          "name": "positionIDs",
          "type": "uint64[]"
        }
      ],
      "name": "discoverUndercollateralizedPositions",
      "outputs": [],
      "stateMutability": "nonpayable",
      "type": "function"
    },
    {
      "inputs": [],
      "name": "discoveryIncentive",
      "outputs": [
        {
          "internalType": "uint64",
          "name": "",
          "type": "uint64"
        }
      ],
      "stateMutability": "view",
      "type": "function"
    },
    {
      "inputs": [],
      "name": "ensureLiquidationIncentive",
      "outputs": [],
      "stateMutability": "nonpayable",
      "type": "function"
    },
    {
      "inputs": [],
      "name": "firstPeriod",
      "outputs": [
        {
          "internalType": "uint64",
          "name": "",
          "type": "uint64"
        }
      ],
      "stateMutability": "view",
      "type": "function"
    },
    {
      "inputs": [],
      "name": "governor",
      "outputs": [
        {
          "internalType": "contract IGovernor",
          "name": "",
          "type": "address"
        }
      ],
      "stateMutability": "view",
      "type": "function"
    },
    {
      "inputs": [],
      "name": "hue",
      "outputs": [
        {
          "internalType": "contract IHue",
          "name": "",
          "type": "address"
        }
      ],
      "stateMutability": "view",
      "type": "function"
    },
    {
      "inputs": [
        {
          "internalType": "uint256",
          "name": "baseTokensToRepay",
          "type": "uint256"
        }
      ],
      "name": "liquidate",
      "outputs": [],
      "stateMutability": "nonpayable",
      "type": "function"
    },
    {
      "inputs": [],
      "name": "liquidationIncentive",
      "outputs": [
        {
          "internalType": "uint64",
          "name": "",
          "type": "uint64"
        }
      ],
      "stateMutability": "view",
      "type": "function"
    },
    {
      "inputs": [],
      "name": "maxRewardsRatio",
      "outputs": [
        {
          "internalType": "uint64",
          "name": "",
          "type": "uint64"
        }
      ],
      "stateMutability": "view",
      "type": "function"
    },
    {
      "inputs": [],
      "name": "minLiquidationIncentive",
      "outputs": [
        {
          "internalType": "uint64",
          "name": "",
          "type": "uint64"
        }
      ],
      "stateMutability": "view",
      "type": "function"
    },
    {
      "inputs": [],
      "name": "periodLength",
      "outputs": [
        {
          "internalType": "uint64",
          "name": "",
          "type": "uint64"
        }
      ],
      "stateMutability": "view",
      "type": "function"
    },
    {
      "inputs": [],
      "name": "rewardsLimit",
      "outputs": [
        {
          "internalType": "uint192",
          "name": "remaining",
          "type": "uint192"
        },
        {
          "internalType": "uint64",
          "name": "period",
          "type": "uint64"
        }
      ],
      "stateMutability": "view",
      "type": "function"
    },
    {
      "inputs": [
        {
          "internalType": "uint64",
          "name": "incentive",
          "type": "uint64"
        }
      ],
      "name": "setDiscoveryIncentive",
      "outputs": [],
      "stateMutability": "nonpayable",
      "type": "function"
    },
    {
      "inputs": [
        {
          "internalType": "uint64",
          "name": "incentive",
          "type": "uint64"
        }
      ],
      "name": "setLiquidationIncentive",
      "outputs": [],
      "stateMutability": "nonpayable",
      "type": "function"
    },
    {
      "inputs": [
        {
          "internalType": "uint64",
          "name": "ratio",
          "type": "uint64"
        }
      ],
      "name": "setMaxRewardsRatio",
      "outputs": [],
      "stateMutability": "nonpayable",
      "type": "function"
    },
    {
      "inputs": [
        {
          "internalType": "uint64",
          "name": "incentive",
          "type": "uint64"
        }
      ],
      "name": "setMinLiquidationIncentive",
      "outputs": [],
      "stateMutability": "nonpayable",
      "type": "function"
    },
    {
      "inputs": [
        {
          "internalType": "uint32",
          "name": "duration",
          "type": "uint32"
        }
      ],
      "name": "setTwapDuration",
      "outputs": [],
      "stateMutability": "nonpayable",
      "type": "function"
    },
    {
      "inputs": [],
      "name": "stop",
      "outputs": [],
      "stateMutability": "nonpayable",
      "type": "function"
    },
    {
      "inputs": [],
      "name": "stopped",
      "outputs": [
        {
          "internalType": "bool",
          "name": "",
          "type": "bool"
        }
      ],
      "stateMutability": "view",
      "type": "function"
    },
    {
      "inputs": [],
      "name": "twapDuration",
      "outputs": [
        {
          "internalType": "uint32",
          "name": "",
          "type": "uint32"
        }
      ],
      "stateMutability": "view",
      "type": "function"
    },
    {
      "inputs": [
        {
          "internalType": "bytes4",
          "name": "",
          "type": "bytes4"
        }
      ],
      "name": "validUpdate",
      "outputs": [
        {
          "internalType": "bool",
          "name": "",
          "type": "bool"
        }
      ],
      "stateMutability": "view",
      "type": "function"
    }
  ],
  "bytecode": "0x61014060405260016002600050909055666a94d74f430000600360006101000a81548167ffffffffffffffff021916908367ffffffffffffffff16021790555066b1a2bc2ec50000600360086101000a81548167ffffffffffffffff021916908367ffffffffffffffff160217905550670e16011f4f058000600360106101000a81548167ffffffffffffffff021916908367ffffffffffffffff160217905550670e4b4b8af6a70000600360186101000a81548167ffffffffffffffff021916908367ffffffffffffffff160217905550610708600460006101000a81548163ffffffff021916908363ffffffff160217905550348015620001025760006000fd5b5060405162003ea938038062003ea9833981810160405281019062000128919062000577565b5b610e105b816000015182602001515b815b8073ffffffffffffffffffffffffffffffffffffffff1660808173ffffffffffffffffffffffffffffffffffffffff16815260200150505b508073ffffffffffffffffffffffffffffffffffffffff1660a08173ffffffffffffffffffffffffffffffffffffffff16815260200150505b5050600181620001c0620004d360201b60201c565b620001cc91906200063a565b620001d8919062000675565b67ffffffffffffffff1660e08167ffffffffffffffff16815260200150508067ffffffffffffffff1660c08167ffffffffffffffff16815260200150505b50806040015173ffffffffffffffffffffffffffffffffffffffff166101008173ffffffffffffffffffffffffffffffffffffffff1681526020015050806060015173ffffffffffffffffffffffffffffffffffffffff166101208173ffffffffffffffffffffffffffffffffffffffff168152602001505060006040518060a0016040528063bd48ea4260e01b7bffffffffffffffffffffffffffffffffffffffffffffffffffffffff19167bffffffffffffffffffffffffffffffffffffffffffffffffffffffff1916815260200163c7bd8eee60e01b7bffffffffffffffffffffffffffffffffffffffffffffffffffffffff19167bffffffffffffffffffffffffffffffffffffffffffffffffffffffff1916815260200163b970112d60e01b7bffffffffffffffffffffffffffffffffffffffffffffffffffffffff19167bffffffffffffffffffffffffffffffffffffffffffffffffffffffff191681526020016314f2f04760e01b7bffffffffffffffffffffffffffffffffffffffffffffffffffffffff19167bffffffffffffffffffffffffffffffffffffffffffffffffffffffff1916815260200163c433c80a60e01b7bffffffffffffffffffffffffffffffffffffffffffffffffffffffff19167bffffffffffffffffffffffffffffffffffffffffffffffffffffffff191681526020015090506000600090505b81506005811015620004c95760016001600050600084846005811015156200044a5762000449620006a9565b5b60200201517bffffffffffffffffffffffffffffffffffffffffffffffffffffffff19167bffffffffffffffffffffffffffffffffffffffffffffffffffffffff1916815260200190815260200160002060006101000a81548160ff0219169083151502179055505b8080620004c090620006c1565b9150506200041d565b50505b5062000725565b6000620004ed42620004f560201b62001c9e17909060201c565b905080505b90565b6000680100000000000000008210151562000547576040517f08c379a00000000000000000000000000000000000000000000000000000000081526004016200053e90620006e5565b60405180910390fd5b81905062000550565b9190505662000724565b6001600160a01b03811681141515620005735760006000fd5b505b565b6000608082840312156200058b5760006000fd5b604051608081018181106001600160401b0382111715620005bc57634e487b7160e01b600052604160045260246000fd5b80604052508251620005ce816200055a565b808252506020830151620005e2816200055a565b806020830152506040830151620005f9816200055a565b80604083015250606083015162000610816200055a565b80606083015250809150505b92915050565b634e487b7160e01b600052601160045260246000fd5b565b60006001600160401b038084168015156200066557634e487b7160e01b600052601260045260246000fd5b8082851604925050505b92915050565b60006001600160401b038083168185169150818110156200069b576200069a62000622565b5b818103925050505b92915050565b634e487b7160e01b600052603260045260246000fd5b565b6000600019821415620006d957620006d862000622565b5b6001820190505b919050565b60208152601160208201527f6d6f7265207468616e2036342062697473000000000000000000000000000000604082015260006060820190505b919050565b5b60805160a05160c05160e0516101005161012051613693620008166000396000818161075c01528181610a4401528181610be301526117a4015260008181610927015281816109b701528181610e6a0152818161127f01528181611320015281816116870152818161171701528181611833015281816119580152818161232401526125d1015260008181611bc40152611cfe015260008181611c7c0152611d1f015260008181611e1401526120b001526000818161047a015281816104e10152818161060101528181610c2501528181610faf0152818161143101528181611d6d015261214301526136936000f3fe60806040523480156100115760006000fd5b50600436106101915760003560e01c806375f12b21116100e4578063b970112d1161008d578063c4e3a63b11610067578063c4e3a63b146103ce578063c7bd8eee146103ec578063d2ca21151461040857610191565b8063b970112d1461037a578063bd48ea4214610396578063c433c80a146103b257610191565b80639624e83e116100be5780639624e83e1461031f5780639672ff281461033d578063b6e6096d1461035b57610191565b806375f12b21146102c55780638b421eba146102e35780638c765e941461030157610191565b80631273c2ea116101465780633237417411610120578063323741741461026f5780633ebe07771461028d578063415f1240146102a957610191565b80631273c2ea1461022b57806314f2f0471461023557806326d895451461025157610191565b806307da68f51161017757806307da68f5146101d35780630c340a24146101dd578063113cf1ab146101fb57610191565b80627de4471461019757806306040618146101b557610191565b60006000fd5b61019f610426565b6040516101ac91906129c7565b60405180910390f35b6101bd610440565b6040516101ca91906129c7565b60405180910390f35b6101db610458565b005b6101e5610478565b6040516101f291906129e3565b60405180910390f35b61021560048036038101906102109190612a0b565b61049c565b6040516102229190612a66565b60405180910390f35b6102336104c1565b005b61024f600480360381019061024a9190612a97565b610b1f565b005b610259610bcb565b6040516102669190612ace565b60405180910390f35b610277610be1565b6040516102849190612ae6565b60405180910390f35b6102a760048036038101906102a29190612bc8565b610c05565b005b6102c360048036038101906102be9190612c8c565b6113cc565b005b6102cd61190f565b6040516102da9190612a66565b60405180910390f35b6102eb611922565b6040516102f891906129c7565b60405180910390f35b61030961193c565b60405161031691906129c7565b60405180910390f35b610327611956565b6040516103349190612caa565b60405180910390f35b61034561197a565b60405161035291906129c7565b60405180910390f35b610363611994565b604051610371929190612cd2565b60405180910390f35b610394600480360381019061038f9190612a97565b6119e1565b005b6103b060048036038101906103ab9190612a97565b611aab565b005b6103cc60048036038101906103c79190612d28565b611b3f565b005b6103d6611bc2565b6040516103e391906129c7565b60405180910390f35b61040660048036038101906104019190612a97565b611be6565b005b610410611c7a565b60405161041d91906129c7565b60405180910390f35b600360109054906101000a900467ffffffffffffffff1681565b6000610450611cfa63ffffffff16565b905080505b90565b610466611d6863ffffffff16565b610474611dc863ffffffff16565b5b5b565b7f000000000000000000000000000000000000000000000000000000000000000081565b600160005060205280600052604060002060009150909054906101000a900460ff1681565b6104cf611e1263ffffffff16565b6104dd611eef63ffffffff16565b60007f000000000000000000000000000000000000000000000000000000000000000073ffffffffffffffffffffffffffffffffffffffff1663d3419bf36040518163ffffffff1660e01b8152600401602060405180830381865afa15801561054b573d600060003e3d6000fd5b505050506040513d601f19601f8201168201806040525081019061056f9190612d7a565b73ffffffffffffffffffffffffffffffffffffffff1663fa42dcf4600460009054906101000a900463ffffffff166040518263ffffffff1660e01b81526004016105b99190612ace565b602060405180830381865afa1580156105d7573d600060003e3d6000fd5b505050506040513d601f19601f820116820180604052508101906105fb9190612da3565b905060007f000000000000000000000000000000000000000000000000000000000000000073ffffffffffffffffffffffffffffffffffffffff166380f556056040518163ffffffff1660e01b8152600401602060405180830381865afa15801561066b573d600060003e3d6000fd5b505050506040513d601f19601f8201168201806040525081019061068f9190612dc1565b73ffffffffffffffffffffffffffffffffffffffff1663eb6843ce60006040518263ffffffff1660e01b81526004016106c89190612dea565b6101a0604051808303816000875af11580156106e9573d600060003e3d6000fd5b505050506040513d601f19601f8201168201806040525081019061070d9190612e80565b905060008160400151111515610758576040517f08c379a000000000000000000000000000000000000000000000000000000000815260040161074f90612f65565b60405180910390fd5b60007f000000000000000000000000000000000000000000000000000000000000000073ffffffffffffffffffffffffffffffffffffffff166375172a8b6040518163ffffffff1660e01b8152600401602060405180830381865afa1580156107c6573d600060003e3d6000fd5b505050506040513d601f19601f820116820180604052508101906107ea9190612da3565b9050600081111515610831576040517f08c379a000000000000000000000000000000000000000000000000000000000815260040161082890612fa4565b60405180910390fd5b600060008360200151141561084e578260400151905080506108e9565b600061088985600360109054906101000a900467ffffffffffffffff1667ffffffffffffffff168660200151611f449092919063ffffffff16565b90508084604001511115156108d3576040517f08c379a00000000000000000000000000000000000000000000000000000000081526004016108ca90612fe3565b60405180910390fd5b8084604001516108e39190613053565b91508150505b6108fc828261206890919063ffffffff16565b9050805061091781846040015161208690919063ffffffff16565b83604001909081815260200150507f000000000000000000000000000000000000000000000000000000000000000073ffffffffffffffffffffffffffffffffffffffff16635a6beaf46000856040518363ffffffff1660e01b815260040161098192919061316e565b600060405180830381600087803b15801561099c5760006000fd5b505af11580156109b1573d600060003e3d6000fd5b505050507f000000000000000000000000000000000000000000000000000000000000000073ffffffffffffffffffffffffffffffffffffffff16632a7ba1f7826040518263ffffffff1660e01b8152600401610a0e9190613199565b600060405180830381600087803b158015610a295760006000fd5b505af1158015610a3e573d600060003e3d6000fd5b505050507f000000000000000000000000000000000000000000000000000000000000000073ffffffffffffffffffffffffffffffffffffffff1663c59fb1ab826040518263ffffffff1660e01b8152600401610a9b9190613199565b600060405180830381600087803b158015610ab65760006000fd5b505af1158015610acb573d600060003e3d6000fd5b505050507fb397b210edc0d78ebf7fbbac5ccc5e284eb5ec9bbc6cbae2a2bdda56439072828482604051610b009291906131ab565b60405180910390a1505050505b5b610b1c6120a163ffffffff16565b5b565b610b2d611d6863ffffffff16565b8067ffffffffffffffff16600360109054906101000a900467ffffffffffffffff1667ffffffffffffffff16101515610b665760006000fd5b80600360186101000a81548167ffffffffffffffff021916908367ffffffffffffffff1602179055507ff1fccf01004863a033b4d86add53fcb8fa13706aff42f590ea040916d23969a281604051610bbe91906129c7565b60405180910390a15b5b50565b600460009054906101000a900463ffffffff1681565b7f000000000000000000000000000000000000000000000000000000000000000081565b610c13611e1263ffffffff16565b610c2161213363ffffffff16565b60007f000000000000000000000000000000000000000000000000000000000000000073ffffffffffffffffffffffffffffffffffffffff1663d3419bf36040518163ffffffff1660e01b8152600401602060405180830381865afa158015610c8f573d600060003e3d6000fd5b505050506040513d601f19601f82011682018060405250810190610cb39190612d7a565b73ffffffffffffffffffffffffffffffffffffffff1663fa42dcf4600460009054906101000a900463ffffffff166040518263ffffffff1660e01b8152600401610cfd9190612ace565b602060405180830381865afa158015610d1b573d600060003e3d6000fd5b505050506040513d601f19601f82011682018060405250810190610d3f9190612da3565b9050600060056000506040518060400160405290816000820160009054906101000a900477ffffffffffffffffffffffffffffffffffffffffffffffff1677ffffffffffffffffffffffffffffffffffffffffffffffff1677ffffffffffffffffffffffffffffffffffffffffffffffff1681526020016000820160189054906101000a900467ffffffffffffffff1667ffffffffffffffff1667ffffffffffffffff168152602001505090506000610dfc611cfa63ffffffff16565b90506000600360009054906101000a900467ffffffffffffffff1667ffffffffffffffff169050670de0b6b3a764000081108015610e5157508167ffffffffffffffff16836020015167ffffffffffffffff16105b15610f48576040518060400160405280610f13610f06847f000000000000000000000000000000000000000000000000000000000000000073ffffffffffffffffffffffffffffffffffffffff16630dca59c16040518163ffffffff1660e01b8152600401602060405180830381865afa158015610ed4573d600060003e3d6000fd5b505050506040513d601f19601f82011682018060405250810190610ef89190612da3565b61221690919063ffffffff16565b61223c909063ffffffff16565b77ffffffffffffffffffffffffffffffffffffffffffffffff1681526020018367ffffffffffffffff16815260200150925082505b6000836000015177ffffffffffffffffffffffffffffffffffffffffffffffff16111515610fab576040517f08c379a0000000000000000000000000000000000000000000000000000000008152600401610fa2906131c4565b60405180910390fd5b60007f000000000000000000000000000000000000000000000000000000000000000073ffffffffffffffffffffffffffffffffffffffff166380f556056040518163ffffffff1660e01b8152600401602060405180830381865afa158015611019573d600060003e3d6000fd5b505050506040513d601f19601f8201168201806040525081019061103d9190612dc1565b9050600061119d6040518060a001604052808473ffffffffffffffffffffffffffffffffffffffff1663eb6843ce60006040518263ffffffff1660e01b81526004016110899190612dea565b6101a0604051808303816000875af11580156110aa573d600060003e3d6000fd5b505050506040513d601f19601f820116820180604052508101906110ce9190612e80565b815260200160008152602001876000015177ffffffffffffffffffffffffffffffffffffffffffffffff1681526020018473ffffffffffffffffffffffffffffffffffffffff16635658c0126040518163ffffffff1660e01b8152600401602060405180830381865afa15801561114a573d600060003e3d6000fd5b505050506040513d601f19601f8201168201806040525081019061116e9190612da3565b81526020018473ffffffffffffffffffffffffffffffffffffffff1681526020015088886122a863ffffffff16565b90506111b4816040015161223c909063ffffffff16565b856000019077ffffffffffffffffffffffffffffffffffffffffffffffff16908177ffffffffffffffffffffffffffffffffffffffffffffffff168152602001505084600560005060008201518160000160006101000a81548177ffffffffffffffffffffffffffffffffffffffffffffffff021916908377ffffffffffffffffffffffffffffffffffffffffffffffff16021790555060208201518160000160186101000a81548167ffffffffffffffff021916908367ffffffffffffffff1602179055509050507f000000000000000000000000000000000000000000000000000000000000000073ffffffffffffffffffffffffffffffffffffffff16635a6beaf4600083600001516040518363ffffffff1660e01b81526004016112dd92919061316e565b600060405180830381600087803b1580156112f85760006000fd5b505af115801561130d573d600060003e3d6000fd5b505050506000816020015111156113b2577f000000000000000000000000000000000000000000000000000000000000000073ffffffffffffffffffffffffffffffffffffffff1663625021693383602001516040518363ffffffff1660e01b815260040161137d929190613203565b600060405180830381600087803b1580156113985760006000fd5b505af11580156113ad573d600060003e3d6000fd5b505050505b5050505050505b5b6113c86120a163ffffffff16565b5b50565b6113da611e1263ffffffff16565b6113e8611eef63ffffffff16565b60008111151561142d576040517f08c379a000000000000000000000000000000000000000000000000000000000815260040161142490613232565b60405180910390fd5b60007f000000000000000000000000000000000000000000000000000000000000000073ffffffffffffffffffffffffffffffffffffffff166380f556056040518163ffffffff1660e01b8152600401602060405180830381865afa15801561149b573d600060003e3d6000fd5b505050506040513d601f19601f820116820180604052508101906114bf9190612dc1565b73ffffffffffffffffffffffffffffffffffffffff1663eb6843ce60006040518263ffffffff1660e01b81526004016114f89190612dea565b6101a0604051808303816000875af1158015611519573d600060003e3d6000fd5b505050506040513d601f19601f8201168201806040525081019061153d9190612e80565b905060008160400151111515611588576040517f08c379a000000000000000000000000000000000000000000000000000000000815260040161157f90612f65565b60405180910390fd5b600081602001511115156115d1576040517f08c379a00000000000000000000000000000000000000000000000000000000081526004016115c890613271565b60405180910390fd5b8060400151821115151561161a576040517f08c379a0000000000000000000000000000000000000000000000000000000008152600401611611906132b0565b60405180910390fd5b60006116398260200151836040015185611f449092919063ffffffff16565b905061165281836020015161208690919063ffffffff16565b826020019090818152602001505061167783836040015161208690919063ffffffff16565b82604001909081815260200150507f000000000000000000000000000000000000000000000000000000000000000073ffffffffffffffffffffffffffffffffffffffff16635a6beaf46000846040518363ffffffff1660e01b81526004016116e192919061316e565b600060405180830381600087803b1580156116fc5760006000fd5b505af1158015611711573d600060003e3d6000fd5b505050507f000000000000000000000000000000000000000000000000000000000000000073ffffffffffffffffffffffffffffffffffffffff16632a7ba1f7846040518263ffffffff1660e01b815260040161176e9190613199565b600060405180830381600087803b1580156117895760006000fd5b505af115801561179e573d600060003e3d6000fd5b505050507f000000000000000000000000000000000000000000000000000000000000000073ffffffffffffffffffffffffffffffffffffffff166379cc679033856040518363ffffffff1660e01b81526004016117fd929190613203565b600060405180830381600087803b1580156118185760006000fd5b505af115801561182d573d600060003e3d6000fd5b505050507f000000000000000000000000000000000000000000000000000000000000000073ffffffffffffffffffffffffffffffffffffffff16636250216933836040518363ffffffff1660e01b815260040161188c929190613203565b600060405180830381600087803b1580156118a75760006000fd5b505af11580156118bc573d600060003e3d6000fd5b505050507fa7c1efbe8c264edbfd86d7edf1a6b82896995680f966de445fc3b6e0531bf41a83826040516118f19291906131ab565b60405180910390a150505b5b61190b6120a163ffffffff16565b5b50565b600060009054906101000a900460ff1681565b600360009054906101000a900467ffffffffffffffff1681565b600360189054906101000a900467ffffffffffffffff1681565b7f000000000000000000000000000000000000000000000000000000000000000081565b600360089054906101000a900467ffffffffffffffff1681565b60056000508060000160009054906101000a900477ffffffffffffffffffffffffffffffffffffffffffffffff16908060000160189054906101000a900467ffffffffffffffff16905082565b6119ef611d6863ffffffff16565b8067ffffffffffffffff16670de0b6b3a764000011158015611a3a5750600360189054906101000a900467ffffffffffffffff1667ffffffffffffffff168167ffffffffffffffff16105b1515611a465760006000fd5b80600360106101000a81548167ffffffffffffffff021916908367ffffffffffffffff1602179055507ffb6278b64d20ff8d4dff7dc61ef28a96a02863b62d59560992b21c143827b6ed81604051611a9e91906129c7565b60405180910390a15b5b50565b611ab9611d6863ffffffff16565b670de0b6b3a76400008167ffffffffffffffff16101515611ada5760006000fd5b80600360006101000a81548167ffffffffffffffff021916908367ffffffffffffffff1602179055507fd01f35ff12ff3673364e94e574afbf379a1f14ef5846096eeef796ca37343efb81604051611b3291906129c7565b60405180910390a15b5b50565b611b4d611d6863ffffffff16565b61012c8163ffffffff1610151515611b655760006000fd5b80600460006101000a81548163ffffffff021916908363ffffffff1602179055507f961f58524be0d9222d4e0bf61ebaef889aac159bf9071158da8eff8f5cab1a6181604051611bb59190612ace565b60405180910390a15b5b50565b7f000000000000000000000000000000000000000000000000000000000000000081565b611bf4611d6863ffffffff16565b670de0b6b3a76400008167ffffffffffffffff16101515611c155760006000fd5b80600360086101000a81548167ffffffffffffffff021916908367ffffffffffffffff1602179055507f41a4b38243b39797140fa4225d9e3da5229e59ebc192515cd52ba275b676139581604051611c6d91906129c7565b60405180910390a15b5b50565b7f000000000000000000000000000000000000000000000000000000000000000081565b60006801000000000000000082101515611ced576040517f08c379a0000000000000000000000000000000000000000000000000000000008152600401611ce4906132ef565b60405180910390fd5b819050611cf5565b919050565b60007f00000000000000000000000000000000000000000000000000000000000000007f0000000000000000000000000000000000000000000000000000000000000000611d4c6126d663ffffffff16565b611d56919061332e565b611d609190613382565b905080505b90565b611dc57f000000000000000000000000000000000000000000000000000000000000000073ffffffffffffffffffffffffffffffffffffffff163373ffffffffffffffffffffffffffffffffffffffff16146126f163ffffffff16565b5b565b6001600060006101000a81548160ff0219169083151502179055507f7acc84e34091ae817647a4c49116f5cc07f319078ba80f8f5fde37ea7e25cbd660405160405180910390a15b565b7f000000000000000000000000000000000000000000000000000000000000000073ffffffffffffffffffffffffffffffffffffffff1663e97dcb626040518163ffffffff1660e01b8152600401600060405180830381600087803b158015611e7b5760006000fd5b505af1158015611e90573d600060003e3d6000fd5b50505050600260026000505414151515611edf576040517f08c379a0000000000000000000000000000000000000000000000000000000008152600401611ed6906133b4565b60405180910390fd5b600260026000508190909055505b565b600060009054906101000a900460ff16151515611f41576040517f08c379a0000000000000000000000000000000000000000000000000000000008152600401611f38906133f3565b60405180910390fd5b5b565b6000600060006000198587098587029250828110838203039150506000811415611f8757600084111515611f785760006000fd5b83820492508292505050612061565b8084111515611f965760006000fd5b60008486880990508281118203915080830392506000856001877fffffffffffffffffffffffffffffffffffffffffffffffffffffffffffffffff03011690508050808604955080840493506001818260000304019050808302841793508350600060028760030218905080870260020381029050805080870260020381029050805080870260020381029050805080870260020381029050805080870260020381029050805080870260020381029050805080850295508550508494505050505061206156505050505b9392505050565b60008183106120775781612079565b825b9050612080565b92915050565b600081836120949190613053565b905061209b565b92915050565b600160026000508190909055507f000000000000000000000000000000000000000000000000000000000000000073ffffffffffffffffffffffffffffffffffffffff1663e9fad8ee6040518163ffffffff1660e01b8152600401600060405180830381600087803b1580156121175760006000fd5b505af115801561212c573d600060003e3d6000fd5b505050505b565b612141611eef63ffffffff16565b7f000000000000000000000000000000000000000000000000000000000000000073ffffffffffffffffffffffffffffffffffffffff1663bf86d6906040518163ffffffff1660e01b8152600401602060405180830381865afa1580156121ad573d600060003e3d6000fd5b505050506040513d601f19601f820116820180604052508101906121d19190613432565b151515612213576040517f08c379a000000000000000000000000000000000000000000000000000000000815260040161220a90613457565b60405180910390fd5b5b565b60006122318383670de0b6b3a7640000611f4463ffffffff16565b905080505b92915050565b600078010000000000000000000000000000000000000000000000008210151561229b576040517f08c379a000000000000000000000000000000000000000000000000000000000815260040161229290613496565b60405180910390fd5b8190506122a3565b919050565b6122b06128af565b60008351905060006000600060006122c66128fd565b60006000600090505b878110156126b85760008c6040015114156122e9576126b8565b8a818151811015156122fe576122fd6134d5565b5b60200260200101519150815060008267ffffffffffffffff161415612322576126a5565b7f000000000000000000000000000000000000000000000000000000000000000073ffffffffffffffffffffffffffffffffffffffff16636594da9f836040518263ffffffff1660e01b815260040161237b91906129c7565b604060405180830381865afa158015612399573d600060003e3d6000fd5b505050506040513d601f19601f820116820180604052508101906123bd9190613506565b809750819850505060008714156123d3576126a5565b6123ea878d6060015161273790919063ffffffff16565b6123fd878c61273790919063ffffffff16565b101515612409576126a5565b8b6080015173ffffffffffffffffffffffffffffffffffffffff1663eb6843ce836040518263ffffffff1660e01b815260040161244691906129c7565b6101a0604051808303816000875af1158015612467573d600060003e3d6000fd5b505050506040513d601f19601f8201168201806040525081019061248b9190612e80565b925082506124ef836040015184602001518c8f60400151600360189054906101000a900467ffffffffffffffff1667ffffffffffffffff16600360089054906101000a900467ffffffffffffffff1667ffffffffffffffff1661275263ffffffff16565b8e60400181909081526020015081965082975050505061252483604001518d600001516040015161286e90919063ffffffff16565b8c600001516040019090818152602001505060008360400190908181526020015050612561848d600001516020015161286e90919063ffffffff16565b8c600001516020019090818152602001505061259c612589868661286e90919063ffffffff16565b846020015161208690919063ffffffff16565b83602001909081815260200150506125c1858d6020015161286e90919063ffffffff16565b8c602001909081815260200150507f000000000000000000000000000000000000000000000000000000000000000073ffffffffffffffffffffffffffffffffffffffff16635a6beaf483856040518363ffffffff1660e01b815260040161262a92919061352e565b600060405180830381600087803b1580156126455760006000fd5b505af115801561265a573d600060003e3d6000fd5b505050508167ffffffffffffffff167feedd1116ee4b172f8bd428c71ffa4da20e0bffc9e5b05e78bbacd0b4337c71bf88888d60405161269c93929190613559565b60405180910390a25b80806126b090613579565b9150506122cf565b508a9750505050505050506126cf56505050505050505b9392505050565b60006126e942611c9e909063ffffffff16565b905080505b90565b801515612733576040517f08c379a000000000000000000000000000000000000000000000000000000000815260040161272a906135b8565b60405180910390fd5b5b50565b6000818361274591906135f7565b905061274c565b92915050565b600060006000600061276d858b61221690919063ffffffff16565b9050612782888261288990919063ffffffff16565b93508350888411156127ab5788935083506127a6888561221690919063ffffffff16565b905080505b6127ed848a6127ba9190613053565b6127df886127d18c8f61288990919063ffffffff16565b61221690919063ffffffff16565b61206890919063ffffffff16565b925082506000612806898561221690919063ffffffff16565b90506000818c11612822578b8261281d9190613053565b612825565b60005b9050600061283c828561286e90919063ffffffff16565b905089811161285657808a6128519190613053565b612859565b60005b94508450505050505b96509650969350505050565b6000818361287c919061363c565b9050612883565b92915050565b60006128a483670de0b6b3a764000084611f4463ffffffff16565b905080505b92915050565b6040518060a001604052806128c26128fd565b8152602001600081526020016000815260200160008152602001600073ffffffffffffffffffffffffffffffffffffffff1681526020015090565b604051806101a001604052806000815260200160008152602001600081526020016000815260200160008152602001600067ffffffffffffffff168152602001600067ffffffffffffffff168152602001600060020b8152602001600015158152602001600067ffffffffffffffff168152602001600063ffffffff168152602001600073ffffffffffffffffffffffffffffffffffffffff168152602001600067ffffffffffffffff16815260200150905661365c565b67ffffffffffffffff8116825250505b565b600060208201905067ffffffffffffffff831682525b92915050565b600060208201905073ffffffffffffffffffffffffffffffffffffffff831682525b92915050565b600060208284031215612a1e5760006000fd5b81357fffffffff00000000000000000000000000000000000000000000000000000000811681141515612a515760006000fd5b809150505b92915050565b801515825250505b565b600060208201905082151582525b92915050565b67ffffffffffffffff811681141515612a935760006000fd5b505b565b600060208284031215612aaa5760006000fd5b8135612ab581612a7a565b809150505b92915050565b63ffffffff8116825250505b565b600060208201905063ffffffff831682525b92915050565b600060208201905073ffffffffffffffffffffffffffffffffffffffff831682525b92915050565b7f4e487b7100000000000000000000000000000000000000000000000000000000600052604160045260246000fd5b565b600060405190506101a0810181811067ffffffffffffffff82111715612b6857612b67612b0e565b5b80604052505b90565b600060405190507fffffffffffffffffffffffffffffffffffffffffffffffffffffffffffffffe0601f830116810181811067ffffffffffffffff82111715612bbd57612bbc612b0e565b5b80604052505b919050565b60006020808385031215612bdc5760006000fd5b823567ffffffffffffffff80821115612bf55760006000fd5b818501915085601f8301121515612c0c5760006000fd5b813581811115612c1f57612c1e612b0e565b5b8060051b9150612c30848301612b71565b8082825285820191508584860101935088841115612c4e5760006000fd5b85850194505b83851015612c7c5784359250612c6983612a7a565b82825285820191505b8585019450612c54565b8096505050505050505b92915050565b600060208284031215612c9f5760006000fd5b813590505b92915050565b600060208201905073ffffffffffffffffffffffffffffffffffffffff831682525b92915050565b600060408201905077ffffffffffffffffffffffffffffffffffffffffffffffff8416825267ffffffffffffffff831660208301525b9392505050565b63ffffffff811681141515612d245760006000fd5b505b565b600060208284031215612d3b5760006000fd5b8135612d4681612d0f565b809150505b92915050565b73ffffffffffffffffffffffffffffffffffffffff811681141515612d765760006000fd5b505b565b600060208284031215612d8d5760006000fd5b8151612d9881612d51565b809150505b92915050565b600060208284031215612db65760006000fd5b815190505b92915050565b600060208284031215612dd45760006000fd5b8151612ddf81612d51565b809150505b92915050565b600060208201905067ffffffffffffffff831682525b92915050565b600081519050612e1581612a7a565b5b919050565b6000815190508060020b81141515612e335760006000fd5b5b919050565b60008151905080151581141515612e505760006000fd5b5b919050565b600081519050612e6581612d0f565b5b919050565b600081519050612e7a81612d51565b5b919050565b60006101a08284031215612e945760006000fd5b612e9c612b3f565b8251815260208301516020820152604083015160408201526060830151606082015260808301516080820152612ed460a08401612e06565b60a0820152612ee560c08401612e06565b60c0820152612ef660e08401612e1b565b60e0820152610100612f09818501612e39565b8183015250610120612f1c818501612e06565b8183015250610140612f2f818501612e56565b8183015250610160612f42818501612e6b565b8183015250610180612f55818501612e06565b8183015250809150505b92915050565b60208152600760208201527f4e6f206465627400000000000000000000000000000000000000000000000000604082015260006060820190505b919050565b60208152600b60208201527f4e6f207265736572766573000000000000000000000000000000000000000000604082015260006060820190505b919050565b60208152601160208201527f456e6f75676820636f6c6c61746572616c000000000000000000000000000000604082015260006060820190505b919050565b7f4e487b7100000000000000000000000000000000000000000000000000000000600052601160045260246000fd5b565b60008282101561306657613065613022565b5b82820390505b92915050565b8060020b825250505b565b73ffffffffffffffffffffffffffffffffffffffff8116825250505b565b805182526020810151602083015260408101516040830152606081015160608301526080810151608083015260a08101516130d960a08401826129b5565b5060c08101516130ec60c08401826129b5565b5060e08101516130ff60e0840182613072565b506101008082015161311382850182612a5c565b505061012080820151613128828501826129b5565b50506101408082015161313d82850182612ac0565b5050610160808201516131528285018261307d565b505061018080820151613167828501826129b5565b505050505b565b60006101c08201905067ffffffffffffffff84168252613191602083018461309b565b5b9392505050565b60006020820190508282525b92915050565b60006040820190508382528260208301525b9392505050565b60208152601460208201527f4e6f20726577617264732072656d61696e696e67000000000000000000000000604082015260006060820190505b919050565b600060408201905073ffffffffffffffffffffffffffffffffffffffff841682528260208301525b9392505050565b60208152600460208201527f4e6f6f7000000000000000000000000000000000000000000000000000000000604082015260006060820190505b919050565b60208152600d60208201527f4e6f20636f6c6c61746572616c00000000000000000000000000000000000000604082015260006060820190505b919050565b60208152601160208201527f496e73756666696369656e742064656274000000000000000000000000000000604082015260006060820190505b919050565b60208152601160208201527f6d6f7265207468616e2036342062697473000000000000000000000000000000604082015260006060820190505b919050565b600067ffffffffffffffff808416801515613372577f4e487b7100000000000000000000000000000000000000000000000000000000600052601260045260246000fd5b8082851604925050505b92915050565b600067ffffffffffffffff8083168185169150818110156133a6576133a5613022565b5b818103925050505b92915050565b60208152600d60208201527f4c50205265656e7472616e637900000000000000000000000000000000000000604082015260006060820190505b919050565b60208152601360208201527f436f6e74726163742069732073746f7070656400000000000000000000000000604082015260006060820190505b919050565b6000602082840312156134455760006000fd5b61344e82612e39565b90505b92915050565b60208152601160208201527f50726f746f636f6c2073687574646f776e000000000000000000000000000000604082015260006060820190505b919050565b60208152601260208201527f6d6f7265207468616e2031393220626974730000000000000000000000000000604082015260006060820190505b919050565b7f4e487b7100000000000000000000000000000000000000000000000000000000600052603260045260246000fd5b565b600060006040838503121561351b5760006000fd5b82519150602083015190505b9250929050565b60006101c08201905067ffffffffffffffff84168252613551602083018461309b565b5b9392505050565b60006060820190508482528360208301528260408301525b949350505050565b60007fffffffffffffffffffffffffffffffffffffffffffffffffffffffffffffffff8214156135ac576135ab613022565b5b6001820190505b919050565b60208152600e60208201527f4e6f7420417574686f72697a6564000000000000000000000000000000000000604082015260006060820190505b919050565b6000817fffffffffffffffffffffffffffffffffffffffffffffffffffffffffffffffff04831182151516156136305761362f613022565b5b82820290505b92915050565b600082198211156136505761364f613022565b5b82820190505b92915050565bfea26469706673582212209fd9f46b6c69ac3741c2ab8519fad6ce2c5cfc34b781dbb7207852367f47436264736f6c634300080c0033",
  "linkReferences": {},
  "deployedLinkReferences": {}
}