{
  "_format": "hh-sol-artifact-1",
  "contractName": "Governor",
  "sourceName": "contracts/core/governance/Governor.sol",
  "abi": [
    {
      "inputs": [],
      "stateMutability": "nonpayable",
      "type": "constructor"
    },
    {
      "anonymous": false,
      "inputs": [
        {
          "indexed": true,
          "internalType": "string",
          "name": "contractName",
          "type": "string"
        },
        {
          "indexed": true,
          "internalType": "address",
          "name": "contractAddress",
          "type": "address"
        }
      ],
      "name": "ContractUpgraded",
      "type": "event"
    },
    {
      "anonymous": false,
      "inputs": [
        {
          "indexed": true,
          "internalType": "address",
          "name": "newGovernor",
          "type": "address"
        }
      ],
      "name": "ProtocolUpgraded",
      "type": "event"
    },
    {
      "anonymous": false,
      "inputs": [],
      "name": "ShutdownExecuted",
      "type": "event"
    },
    {
      "anonymous": false,
      "inputs": [
        {
          "indexed": true,
          "internalType": "address",
          "name": "locker",
          "type": "address"
        },
        {
          "indexed": false,
          "internalType": "uint256",
          "name": "count",
          "type": "uint256"
        }
      ],
      "name": "ShutdownTokensLocked",
      "type": "event"
    },
    {
      "anonymous": false,
      "inputs": [
        {
          "indexed": true,
          "internalType": "address",
          "name": "locker",
          "type": "address"
        },
        {
          "indexed": false,
          "internalType": "uint256",
          "name": "count",
          "type": "uint256"
        }
      ],
      "name": "ShutdownTokensUnlocked",
      "type": "event"
    },
    {
      "inputs": [],
      "name": "EMERGENCY_SHUTDOWN_THRESHOLD",
      "outputs": [
        {
          "internalType": "uint256",
          "name": "",
          "type": "uint256"
        }
      ],
      "stateMutability": "view",
      "type": "function"
    },
    {
      "inputs": [],
      "name": "accounting",
      "outputs": [
        {
          "internalType": "contract IAccounting",
          "name": "",
          "type": "address"
        }
      ],
      "stateMutability": "view",
      "type": "function"
    },
    {
      "inputs": [],
      "name": "auctions",
      "outputs": [
        {
          "internalType": "contract IAuctions",
          "name": "",
          "type": "address"
        }
      ],
      "stateMutability": "view",
      "type": "function"
    },
    {
      "inputs": [],
      "name": "borrowRewardsPortion",
      "outputs": [
        {
          "internalType": "uint64",
          "name": "",
          "type": "uint64"
        }
      ],
      "stateMutability": "view",
      "type": "function"
    },
    {
      "inputs": [],
      "name": "calculateCurrentDailyDebtRewardCount",
      "outputs": [
        {
          "internalType": "uint256",
          "name": "",
          "type": "uint256"
        }
      ],
      "stateMutability": "nonpayable",
      "type": "function"
    },
    {
      "inputs": [],
      "name": "calculateCurrentDailyLiquidityRewardCount",
      "outputs": [
        {
          "internalType": "uint256",
          "name": "",
          "type": "uint256"
        }
      ],
      "stateMutability": "nonpayable",
      "type": "function"
    },
    {
      "inputs": [],
      "name": "currentPeriod",
      "outputs": [
        {
          "internalType": "uint64",
          "name": "period",
          "type": "uint64"
        }
      ],
      "stateMutability": "view",
      "type": "function"
    },
    {
      "inputs": [],
      "name": "currentPhase",
      "outputs": [
        {
          "internalType": "uint8",
          "name": "",
          "type": "uint8"
        }
      ],
      "stateMutability": "view",
      "type": "function"
    },
    {
      "inputs": [],
      "name": "deployer",
      "outputs": [
        {
          "internalType": "address",
          "name": "",
          "type": "address"
        }
      ],
      "stateMutability": "view",
      "type": "function"
    },
    {
      "inputs": [],
      "name": "emergencyShutdownThresholdMet",
      "outputs": [
        {
          "internalType": "bool",
          "name": "",
          "type": "bool"
        }
      ],
      "stateMutability": "view",
      "type": "function"
    },
    {
      "inputs": [
        {
          "internalType": "address",
          "name": "",
          "type": "address"
        }
      ],
      "name": "emergencyShutdownTokensLocked",
      "outputs": [
        {
          "internalType": "uint256",
          "name": "",
          "type": "uint256"
        }
      ],
      "stateMutability": "view",
      "type": "function"
    },
    {
      "inputs": [],
      "name": "enforcedDecentralization",
      "outputs": [
        {
          "internalType": "contract IEnforcedDecentralization",
          "name": "",
          "type": "address"
        }
      ],
      "stateMutability": "view",
      "type": "function"
    },
    {
      "inputs": [
        {
          "internalType": "address",
          "name": "target",
          "type": "address"
        },
        {
          "internalType": "string",
          "name": "signature",
          "type": "string"
        },
        {
          "internalType": "bytes",
          "name": "data",
          "type": "bytes"
        }
      ],
      "name": "execute",
      "outputs": [
        {
          "internalType": "bool",
          "name": "success",
          "type": "bool"
        },
        {
          "internalType": "bytes",
          "name": "returnData",
          "type": "bytes"
        }
      ],
      "stateMutability": "nonpayable",
      "type": "function"
    },
    {
      "inputs": [],
      "name": "executeEmergencyShutdown",
      "outputs": [],
      "stateMutability": "nonpayable",
      "type": "function"
    },
    {
      "inputs": [],
      "name": "executeShutdown",
      "outputs": [],
      "stateMutability": "nonpayable",
      "type": "function"
    },
    {
      "inputs": [],
      "name": "firstPeriod",
      "outputs": [
        {
          "internalType": "uint64",
          "name": "",
          "type": "uint64"
        }
      ],
      "stateMutability": "view",
      "type": "function"
    },
    {
      "inputs": [],
      "name": "firstRewardsPeriod",
      "outputs": [
        {
          "internalType": "uint64",
          "name": "",
          "type": "uint64"
        }
      ],
      "stateMutability": "view",
      "type": "function"
    },
    {
      "inputs": [],
      "name": "governorAlpha",
      "outputs": [
        {
          "internalType": "address",
          "name": "",
          "type": "address"
        }
      ],
      "stateMutability": "view",
      "type": "function"
    },
    {
      "inputs": [],
      "name": "hue",
      "outputs": [
        {
          "internalType": "contract IHue",
          "name": "",
          "type": "address"
        }
      ],
      "stateMutability": "view",
      "type": "function"
    },
    {
      "inputs": [],
      "name": "huePositionNFT",
      "outputs": [
        {
          "internalType": "contract IPositionNFT",
          "name": "",
          "type": "address"
        }
      ],
      "stateMutability": "view",
      "type": "function"
    },
    {
      "inputs": [
        {
          "internalType": "address",
          "name": "to",
          "type": "address"
        },
        {
          "internalType": "uint256",
          "name": "count",
          "type": "uint256"
        }
      ],
      "name": "increaseTCPAllocation",
      "outputs": [],
      "stateMutability": "nonpayable",
      "type": "function"
    },
    {
      "inputs": [
        {
          "components": [
            {
              "internalType": "contract IAccounting",
              "name": "accounting",
              "type": "address"
            },
            {
              "internalType": "contract IAuctions",
              "name": "auctions",
              "type": "address"
            },
            {
              "internalType": "contract IEnforcedDecentralization",
              "name": "enforcedDecentralization",
              "type": "address"
            },
            {
              "internalType": "address",
              "name": "governorAlpha",
              "type": "address"
            },
            {
              "internalType": "contract IHue",
              "name": "hue",
              "type": "address"
            },
            {
              "internalType": "contract IPositionNFT",
              "name": "huePositionNFT",
              "type": "address"
            },
            {
              "internalType": "contract ILendHue",
              "name": "lendHue",
              "type": "address"
            },
            {
              "internalType": "contract ILiquidations",
              "name": "liquidations",
              "type": "address"
            },
            {
              "internalType": "contract IMarket",
              "name": "market",
              "type": "address"
            },
            {
              "internalType": "contract IPrices",
              "name": "prices",
              "type": "address"
            },
            {
              "internalType": "contract IProtocolLock",
              "name": "protocolLock",
              "type": "address"
            },
            {
              "internalType": "contract IRates",
              "name": "rates",
              "type": "address"
            },
            {
              "internalType": "contract IRewards",
              "name": "rewards",
              "type": "address"
            },
            {
              "internalType": "contract ISettlement",
              "name": "settlement",
              "type": "address"
            },
            {
              "internalType": "contract ITCP",
              "name": "tcp",
              "type": "address"
            },
            {
              "internalType": "address",
              "name": "timelock",
              "type": "address"
            },
            {
              "internalType": "contract TcpAllocation",
              "name": "tcpAllocation",
              "type": "address"
            }
          ],
          "internalType": "struct IGovernor.ProtocolData",
          "name": "pd",
          "type": "tuple"
        }
      ],
      "name": "init",
      "outputs": [],
      "stateMutability": "nonpayable",
      "type": "function"
    },
    {
      "inputs": [],
      "name": "isShutdown",
      "outputs": [
        {
          "internalType": "bool",
          "name": "",
          "type": "bool"
        }
      ],
      "stateMutability": "view",
      "type": "function"
    },
    {
      "inputs": [],
      "name": "lendHue",
      "outputs": [
        {
          "internalType": "contract ILendHue",
          "name": "",
          "type": "address"
        }
      ],
      "stateMutability": "view",
      "type": "function"
    },
    {
      "inputs": [],
      "name": "liquidations",
      "outputs": [
        {
          "internalType": "contract ILiquidations",
          "name": "",
          "type": "address"
        }
      ],
      "stateMutability": "view",
      "type": "function"
    },
    {
      "inputs": [
        {
          "internalType": "uint256",
          "name": "count",
          "type": "uint256"
        }
      ],
      "name": "lockTokensForEmergencyShutdown",
      "outputs": [],
      "stateMutability": "nonpayable",
      "type": "function"
    },
    {
      "inputs": [],
      "name": "market",
      "outputs": [
        {
          "internalType": "contract IMarket",
          "name": "",
          "type": "address"
        }
      ],
      "stateMutability": "view",
      "type": "function"
    },
    {
      "inputs": [],
      "name": "maxTotalDailyRewardsAllocation",
      "outputs": [
        {
          "internalType": "uint256",
          "name": "",
          "type": "uint256"
        }
      ],
      "stateMutability": "view",
      "type": "function"
    },
    {
      "inputs": [
        {
          "internalType": "address",
          "name": "to",
          "type": "address"
        },
        {
          "internalType": "uint256",
          "name": "count",
          "type": "uint256"
        }
      ],
      "name": "mintIncentive",
      "outputs": [],
      "stateMutability": "nonpayable",
      "type": "function"
    },
    {
      "inputs": [
        {
          "internalType": "address",
          "name": "to",
          "type": "address"
        },
        {
          "internalType": "uint256",
          "name": "count",
          "type": "uint256"
        }
      ],
      "name": "mintVotingRewards",
      "outputs": [],
      "stateMutability": "nonpayable",
      "type": "function"
    },
    {
      "inputs": [],
      "name": "periodLength",
      "outputs": [
        {
          "internalType": "uint64",
          "name": "",
          "type": "uint64"
        }
      ],
      "stateMutability": "view",
      "type": "function"
    },
    {
      "inputs": [],
      "name": "periodRewards",
      "outputs": [
        {
          "internalType": "uint216",
          "name": "periodRewards",
          "type": "uint216"
        },
        {
          "internalType": "uint40",
          "name": "currentCalculatedPeriod",
          "type": "uint40"
        }
      ],
      "stateMutability": "view",
      "type": "function"
    },
    {
      "inputs": [],
      "name": "prices",
      "outputs": [
        {
          "internalType": "contract IPrices",
          "name": "",
          "type": "address"
        }
      ],
      "stateMutability": "view",
      "type": "function"
    },
    {
      "inputs": [],
      "name": "protocolLock",
      "outputs": [
        {
          "internalType": "contract IProtocolLock",
          "name": "",
          "type": "address"
        }
      ],
      "stateMutability": "view",
      "type": "function"
    },
    {
      "inputs": [],
      "name": "rates",
      "outputs": [
        {
          "internalType": "contract IRates",
          "name": "",
          "type": "address"
        }
      ],
      "stateMutability": "view",
      "type": "function"
    },
    {
      "inputs": [
        {
          "internalType": "address",
          "name": "caller",
          "type": "address"
        }
      ],
      "name": "requireDebtServicesAccess",
      "outputs": [],
      "stateMutability": "view",
      "type": "function"
    },
    {
      "inputs": [
        {
          "internalType": "address",
          "name": "caller",
          "type": "address"
        }
      ],
      "name": "requireHueReservesBurnAccess",
      "outputs": [],
      "stateMutability": "view",
      "type": "function"
    },
    {
      "inputs": [
        {
          "internalType": "address",
          "name": "caller",
          "type": "address"
        }
      ],
      "name": "requireInitializePoolAccess",
      "outputs": [],
      "stateMutability": "view",
      "type": "function"
    },
    {
      "inputs": [
        {
          "internalType": "address",
          "name": "caller",
          "type": "address"
        }
      ],
      "name": "requireUpdatePositionAccess",
      "outputs": [],
      "stateMutability": "view",
      "type": "function"
    },
    {
      "inputs": [
        {
          "internalType": "address",
          "name": "target",
          "type": "address"
        },
        {
          "internalType": "string",
          "name": "signature",
          "type": "string"
        }
      ],
      "name": "requireValidAction",
      "outputs": [],
      "stateMutability": "view",
      "type": "function"
    },
    {
      "inputs": [],
      "name": "rewards",
      "outputs": [
        {
          "internalType": "contract IRewards",
          "name": "",
          "type": "address"
        }
      ],
      "stateMutability": "view",
      "type": "function"
    },
    {
      "inputs": [
        {
          "internalType": "uint64",
          "name": "portion",
          "type": "uint64"
        }
      ],
      "name": "setBorrowRewardsPortion",
      "outputs": [],
      "stateMutability": "nonpayable",
      "type": "function"
    },
    {
      "inputs": [
        {
          "internalType": "uint64",
          "name": "phaseOneStartTime",
          "type": "uint64"
        }
      ],
      "name": "setPhaseOneStartTime",
      "outputs": [],
      "stateMutability": "nonpayable",
      "type": "function"
    },
    {
      "inputs": [],
      "name": "settlement",
      "outputs": [
        {
          "internalType": "contract ISettlement",
          "name": "",
          "type": "address"
        }
      ],
      "stateMutability": "view",
      "type": "function"
    },
    {
      "inputs": [],
      "name": "shutdownTime",
      "outputs": [
        {
          "internalType": "uint64",
          "name": "",
          "type": "uint64"
        }
      ],
      "stateMutability": "view",
      "type": "function"
    },
    {
      "inputs": [],
      "name": "tcp",
      "outputs": [
        {
          "internalType": "contract ITCP",
          "name": "",
          "type": "address"
        }
      ],
      "stateMutability": "view",
      "type": "function"
    },
    {
      "inputs": [],
      "name": "tcpAllocation",
      "outputs": [
        {
          "internalType": "contract TcpAllocation",
          "name": "",
          "type": "address"
        }
      ],
      "stateMutability": "view",
      "type": "function"
    },
    {
      "inputs": [],
      "name": "timelock",
      "outputs": [
        {
          "internalType": "address",
          "name": "",
          "type": "address"
        }
      ],
      "stateMutability": "view",
      "type": "function"
    },
    {
      "inputs": [],
      "name": "totalTcpAllocated",
      "outputs": [
        {
          "internalType": "uint256",
          "name": "",
          "type": "uint256"
        }
      ],
      "stateMutability": "view",
      "type": "function"
    },
    {
      "inputs": [],
      "name": "unlockTokensForEmergencyShutdown",
      "outputs": [],
      "stateMutability": "nonpayable",
      "type": "function"
    },
    {
      "inputs": [
        {
          "internalType": "address",
          "name": "_auctions",
          "type": "address"
        }
      ],
      "name": "upgradeAuctions",
      "outputs": [],
      "stateMutability": "nonpayable",
      "type": "function"
    },
    {
      "inputs": [
        {
          "internalType": "address",
          "name": "_liquidations",
          "type": "address"
        }
      ],
      "name": "upgradeLiquidations",
      "outputs": [],
      "stateMutability": "nonpayable",
      "type": "function"
    },
    {
      "inputs": [
        {
          "internalType": "address",
          "name": "_market",
          "type": "address"
        }
      ],
      "name": "upgradeMarket",
      "outputs": [],
      "stateMutability": "nonpayable",
      "type": "function"
    },
    {
      "inputs": [
        {
          "internalType": "address",
          "name": "_prices",
          "type": "address"
        }
      ],
      "name": "upgradePrices",
      "outputs": [],
      "stateMutability": "nonpayable",
      "type": "function"
    },
    {
      "inputs": [
        {
          "internalType": "address",
          "name": "newGovernor",
          "type": "address"
        }
      ],
      "name": "upgradeProtocol",
      "outputs": [],
      "stateMutability": "nonpayable",
      "type": "function"
    },
    {
      "inputs": [
        {
          "internalType": "address",
          "name": "_rates",
          "type": "address"
        }
      ],
      "name": "upgradeRates",
      "outputs": [],
      "stateMutability": "nonpayable",
      "type": "function"
    },
    {
      "inputs": [
        {
          "internalType": "address",
          "name": "_rewards",
          "type": "address"
        }
      ],
      "name": "upgradeRewards",
      "outputs": [],
      "stateMutability": "nonpayable",
      "type": "function"
    },
    {
      "inputs": [
        {
          "internalType": "address",
          "name": "_settlement",
          "type": "address"
        }
      ],
      "name": "upgradeSettlement",
      "outputs": [],
      "stateMutability": "nonpayable",
      "type": "function"
    },
    {
      "inputs": [
        {
          "internalType": "bytes4",
          "name": "",
          "type": "bytes4"
        }
      ],
      "name": "validUpdate",
      "outputs": [
        {
          "internalType": "bool",
          "name": "",
          "type": "bool"
        }
      ],
      "stateMutability": "view",
      "type": "function"
    }
  ],
  "bytecode": "0x60c06040526706f05b59d3b20000600160006101000a81548167ffffffffffffffff021916908367ffffffffffffffff1602179055507fffffffffffffffffffffffffffffffffffffffffffffffffffffffffffffffff601760005090905560016019600050909055691fc3842bd1f071c00000601c600050909055348015620000895760006000fd5b505b5b620151805b60018167ffffffffffffffff16620000ae6200039960201b60201c565b67ffffffffffffffff16811515620000c257fe5b040367ffffffffffffffff1660a08167ffffffffffffffff1660c01b815260080150508067ffffffffffffffff1660808167ffffffffffffffff1660c01b815260080150505b50600160006000508190909055505b60405180604001604052807a03a573c963324b20cc56ca03bbbd35831cb7d9c0000000000000007affffffffffffffffffffffffffffffffffffffffffffffffffffff168152602001600064ffffffffff16815260200150601a60005060008201518160000160006101000a8154817affffffffffffffffffffffffffffffffffffffffffffffffffffff02191690837affffffffffffffffffffffffffffffffffffffffffffffffffffff160217905550602082015181600001601b6101000a81548164ffffffffff021916908364ffffffffff16021790555090505060016015600050600063232948ea60e01b7bffffffffffffffffffffffffffffffffffffffffffffffffffffffff19167bffffffffffffffffffffffffffffffffffffffffffffffffffffffff1916815260200190815260200160002060006101000a81548160ff02191690831515021790555060016015600050600063b8188c8160e01b7bffffffffffffffffffffffffffffffffffffffffffffffffffffffff19167bffffffffffffffffffffffffffffffffffffffffffffffffffffffff1916815260200190815260200160002060006101000a81548160ff02191690831515021790555060016015600050600063b4b6882b60e01b7bffffffffffffffffffffffffffffffffffffffffffffffffffffffff19167bffffffffffffffffffffffffffffffffffffffffffffffffffffffff1916815260200190815260200160002060006101000a81548160ff02191690831515021790555033601660006101000a81548173ffffffffffffffffffffffffffffffffffffffff021916908373ffffffffffffffffffffffffffffffffffffffff1602179055505b6200044f565b6000620003b342620003bb60201b62004ddc17909060201c565b905080505b90565b6000680100000000000000008210151562000441576040517f08c379a00000000000000000000000000000000000000000000000000000000081526004018080602001828103825260118152602001807f6d6f7265207468616e203634206269747300000000000000000000000000000081526020015060200191505060405180910390fd5b8190506200044a565b919050565b60805160c01c60a05160c01c616e6262000497600039806140055280614e725280615a3c5280615ac85250806142b75280614e935280615a5d5280615b015250616e626000f3fe60806040523480156100115760006000fd5b506004361061039e5760003560e01c806388a4bfb7116101ea578063c4e3a63b11610110578063d5f39488116100ae578063f6fbc1921161007d578063f6fbc19214610a00578063fd43008514610a0a578063fe47727714610a28578063ff26df7214610a465761039e565b8063d5f394881461098a578063e6ce76e3146109a8578063e97a99b6146109c6578063f00000ee146109e25761039e565b8063d2ca2115116100ea578063d2ca211514610912578063d33219b414610930578063d3419bf31461094e578063d478b0871461096c5761039e565b8063c4e3a63b146108cc578063ce499682146108ea578063d0d8ab9a146109085761039e565b8063a43c36af11610188578063b8188c8111610157578063b8188c811461085a578063b971dc0514610876578063bb0971b714610892578063bf86d690146108ae5761039e565b8063a43c36af146107e6578063a5d4198b14610802578063a89f51ae14610820578063b4b6882b1461083e5761039e565b80639624e83e116101c45780639624e83e146107705780639a371c841461078e5780639ec5a894146107ac578063a1c1f90d146107ca5761039e565b806388a4bfb71461071c5780638f40b82f146107385780639622cd8f146107545761039e565b806349dfaa1c116102cf5780636c1323a81161026d57806380b5c6651161023c57806380b5c665146106a857806380f55605146106c457806383208f53146106e257806385aa6103146106fe5761039e565b80636c1323a814610635578063734875a8146106545780637c114fed1461067057806380304d091461068c5761039e565b80634d6729f5116102a95780634d6729f5146105c157806351160630146105dd57806358569081146105fb578063628c84b5146106195761039e565b806349dfaa1c146105695780634b414e32146105875780634cd7a315146105a55761039e565b8063232948ea1161033c57806333daf5d41161031657806333daf5d4146104cc57806336fc02f4146104fd5780633f88b0c51461051b57806343f48fbd1461054b5761039e565b8063232948ea146104865780632cae02691461049057806332374174146104ae5761039e565b80630a86f109116103785780630a86f109146103fc578063113cf1ab1461041a57806318c7de171461044a578063216ad0b2146104685761039e565b8063055ad42e146103a457806306040618146103c257806307932987146103e05761039e565b60006000fd5b6103ac610a62565b6040516103b99190616db8565b60405180910390f35b6103ca610b10565b6040516103d79190616d9c565b60405180910390f35b6103fa60048036038101906103f5919061619f565b610b28565b005b610404610cb9565b6040516104119190616d9c565b60405180910390f35b610434600480360381019061042f91906161d0565b610cd3565b6040516104419190616869565b60405180910390f35b610452610cf8565b60405161045f9190616d8a565b60405180910390f35b610470610d5e565b60405161047d9190616d9c565b60405180910390f35b61048e610d78565b005b610498610e63565b6040516104a59190616942565b60405180910390f35b6104b6610e89565b6040516104c3919061691a565b60405180910390f35b6104e660048036038101906104e191906160f8565b610eaf565b6040516104f492919061687d565b60405180910390f35b6105056110f4565b6040516105129190616aaa565b60405180910390f35b6105356004803603810190610530919061604b565b61111a565b6040516105429190616d8a565b60405180910390f35b610553611135565b6040516105609190616a32565b60405180910390f35b61057161115b565b60405161057e9190616d8a565b60405180910390f35b61058f611164565b60405161059c91906168f2565b60405180910390f35b6105bf60048036038101906105ba919061619f565b61118a565b005b6105db60048036038101906105d6919061619f565b6113cb565b005b6105e5611533565b6040516105f29190616a82565b60405180910390f35b610603611559565b6040516106109190616d9c565b60405180910390f35b610633600480360381019061062e919061604b565b611573565b005b61063d61162e565b60405161064b929190616d4d565b60405180910390f35b61066e6004803603810190610669919061604b565b61167b565b005b61068a6004803603810190610685919061604b565b611736565b005b6106a660048036038101906106a1919061604b565b611849565b005b6106c260048036038101906106bd919061604b565b611c87565b005b6106cc611e9c565b6040516106d99190616992565b60405180910390f35b6106fc60048036038101906106f7919061604b565b611ec2565b005b61070661224f565b60405161071391906168ca565b60405180910390f35b61073660048036038101906107319190616482565b612275565b005b610752600480360381019061074d919061604b565b6124b5565b005b61076e6004803603810190610769919061604b565b612842565b005b6107786128fd565b60405161078591906168a2565b60405180910390f35b610796612923565b6040516107a3919061696a565b60405180910390f35b6107b4612949565b6040516107c19190616a5a565b60405180910390f35b6107e460048036038101906107df919061604b565b61296f565b005b61080060048036038101906107fb9190616072565b612cfc565b005b61080a612d93565b6040516108179190616d8a565b60405180910390f35b610828612ddf565b60405161083591906169ba565b60405180910390f35b610858600480360381019061085391906164ba565b612e05565b005b610874600480360381019061086f91906164ba565b612f2e565b005b610890600480360381019061088b919061604b565b61315b565b005b6108ac60048036038101906108a79190616466565b6134e8565b005b6108b6613fd3565b6040516108c39190616869565b60405180910390f35b6108d4614003565b6040516108e19190616d9c565b60405180910390f35b6108f2614027565b6040516108ff9190616869565b60405180910390f35b6109106141bf565b005b61091a6142b5565b6040516109279190616d9c565b60405180910390f35b6109386142d9565b604051610945919061672b565b60405180910390f35b6109566142ff565b60405161096391906169e2565b60405180910390f35b610974614325565b6040516109819190616a0a565b60405180910390f35b61099261434b565b60405161099f919061672b565b60405180910390f35b6109b0614371565b6040516109bd9190616d8a565b60405180910390f35b6109e060048036038101906109db919061604b565b61437a565b005b6109ea6147c3565b6040516109f79190616ad2565b60405180910390f35b610a086147e9565b005b610a12614a1d565b604051610a1f919061672b565b60405180910390f35b610a30614a43565b604051610a3d9190616d8a565b60405180910390f35b610a606004803603810190610a5b919061604b565b614a4f565b005b6000600960009054906101000a900473ffffffffffffffffffffffffffffffffffffffff1673ffffffffffffffffffffffffffffffffffffffff1663055ad42e6040518163ffffffff1660e01b815260040160206040518083038186803b158015610acd5760006000fd5b505afa158015610ae2573d600060003e3d6000fd5b505050506040513d601f19601f82011682018060405250810190610b0691906164ef565b9050610b0d565b90565b6000610b20614e6e63ffffffff16565b905080505b90565b600260006000505414151515610ba9576040517f08c379a000000000000000000000000000000000000000000000000000000000815260040180806020018281038252601f8152602001807f5265656e7472616e637947756172643a207265656e7472616e742063616c6c0081526020015060200191505060405180910390fd5b60026000600050819090905550610c15601360009054906101000a900473ffffffffffffffffffffffffffffffffffffffff1673ffffffffffffffffffffffffffffffffffffffff163373ffffffffffffffffffffffffffffffffffffffff1614614ee763ffffffff16565b600660009054906101000a900473ffffffffffffffffffffffffffffffffffffffff1673ffffffffffffffffffffffffffffffffffffffff1663449a52f883836040518363ffffffff1660e01b8152600401610c7292919061683a565b600060405180830381600087803b158015610c8d5760006000fd5b505af1158015610ca2573d600060003e3d6000fd5b505050505b600160006000508190909055505b5050565b600160009054906101000a900467ffffffffffffffff1681565b601560005060205280600052604060002060009150909054906101000a900460ff1681565b6000610d54610d38600160009054906101000a900467ffffffffffffffff1667ffffffffffffffff16670de0b6b3a7640000614f2d90919063ffffffff16565b610d46614fb663ffffffff16565b61535690919063ffffffff16565b9050610d5b565b90565b601b60009054906101000a900467ffffffffffffffff1681565b600260006000505414151515610df9576040517f08c379a000000000000000000000000000000000000000000000000000000000815260040180806020018281038252601f8152602001807f5265656e7472616e637947756172643a207265656e7472616e742063616c6c0081526020015060200191505060405180910390fd5b60026000600050819090905550610e433073ffffffffffffffffffffffffffffffffffffffff163373ffffffffffffffffffffffffffffffffffffffff1614614ee763ffffffff16565b610e5161537c63ffffffff16565b5b5b600160006000508190909055505b565b600a60009054906101000a900473ffffffffffffffffffffffffffffffffffffffff1681565b600760009054906101000a900473ffffffffffffffffffffffffffffffffffffffff1681565b600060606001601960005054141515610efd576040517f08c379a0000000000000000000000000000000000000000000000000000000008152600401610ef490616ccf565b60405180910390fd5b60006019600050819090905550610f69601260009054906101000a900473ffffffffffffffffffffffffffffffffffffffff1673ffffffffffffffffffffffffffffffffffffffff163373ffffffffffffffffffffffffffffffffffffffff1614614ee763ffffffff16565b600960009054906101000a900473ffffffffffffffffffffffffffffffffffffffff1673ffffffffffffffffffffffffffffffffffffffff1663a43c36af86866040518363ffffffff1660e01b8152600401610fc69291906167c0565b60006040518083038186803b158015610fdf5760006000fd5b505afa158015610ff4573d600060003e3d6000fd5b505050508473ffffffffffffffffffffffffffffffffffffffff1661101e8561554e63ffffffff16565b8460405160200161103092919061656a565b60405160208183030381529060405260405161104c91906165b5565b6000604051808303816000865af19150503d8060008114611089576040519150601f19603f3d011682016040523d82523d6000602084013e61108e565b606091505b50809250819350505081819015156110dc576040517f08c379a00000000000000000000000000000000000000000000000000000000081526004016110d39190616afa565b60405180910390fd5b505b600160196000508190909055505b935093915050565b600660009054906101000a900473ffffffffffffffffffffffffffffffffffffffff1681565b60026000506020528060005260406000206000915090505481565b600f60009054906101000a900473ffffffffffffffffffffffffffffffffffffffff1681565b60186000505481565b600960009054906101000a900473ffffffffffffffffffffffffffffffffffffffff1681565b60026000600050541415151561120b576040517f08c379a000000000000000000000000000000000000000000000000000000000815260040180806020018281038252601f8152602001807f5265656e7472616e637947756172643a207265656e7472616e742063616c6c0081526020015060200191505060405180910390fd5b60026000600050819090905550611327600460009054906101000a900473ffffffffffffffffffffffffffffffffffffffff1673ffffffffffffffffffffffffffffffffffffffff163373ffffffffffffffffffffffffffffffffffffffff1614806112c45750600f60009054906101000a900473ffffffffffffffffffffffffffffffffffffffff1673ffffffffffffffffffffffffffffffffffffffff163373ffffffffffffffffffffffffffffffffffffffff16145b8061131c5750601460009054906101000a900473ffffffffffffffffffffffffffffffffffffffff1673ffffffffffffffffffffffffffffffffffffffff163373ffffffffffffffffffffffffffffffffffffffff16145b614ee763ffffffff16565b600660009054906101000a900473ffffffffffffffffffffffffffffffffffffffff1673ffffffffffffffffffffffffffffffffffffffff1663449a52f883836040518363ffffffff1660e01b815260040161138492919061683a565b600060405180830381600087803b15801561139f5760006000fd5b505af11580156113b4573d600060003e3d6000fd5b505050505b600160006000508190909055505b5050565b60026000600050541415151561144c576040517f08c379a000000000000000000000000000000000000000000000000000000000815260040180806020018281038252601f8152602001807f5265656e7472616e637947756172643a207265656e7472616e742063616c6c0081526020015060200191505060405180910390fd5b60026000600050819090905550611510600c60009054906101000a900473ffffffffffffffffffffffffffffffffffffffff1673ffffffffffffffffffffffffffffffffffffffff163373ffffffffffffffffffffffffffffffffffffffff1614806115055750601060009054906101000a900473ffffffffffffffffffffffffffffffffffffffff1673ffffffffffffffffffffffffffffffffffffffff163373ffffffffffffffffffffffffffffffffffffffff16145b614ee763ffffffff16565b611520828261556463ffffffff16565b5b600160006000508190909055505b5050565b601160009054906101000a900473ffffffffffffffffffffffffffffffffffffffff1681565b600160089054906101000a900467ffffffffffffffff1681565b61162a600f60009054906101000a900473ffffffffffffffffffffffffffffffffffffffff1673ffffffffffffffffffffffffffffffffffffffff168273ffffffffffffffffffffffffffffffffffffffff16148061161f5750601060009054906101000a900473ffffffffffffffffffffffffffffffffffffffff1673ffffffffffffffffffffffffffffffffffffffff168273ffffffffffffffffffffffffffffffffffffffff16145b614ee763ffffffff16565b5b50565b601a6000508060000160009054906101000a90047affffffffffffffffffffffffffffffffffffffffffffffffffffff169080600001601b9054906101000a900464ffffffffff16905082565b611732600c60009054906101000a900473ffffffffffffffffffffffffffffffffffffffff1673ffffffffffffffffffffffffffffffffffffffff168273ffffffffffffffffffffffffffffffffffffffff1614806117275750600b60009054906101000a900473ffffffffffffffffffffffffffffffffffffffff1673ffffffffffffffffffffffffffffffffffffffff168273ffffffffffffffffffffffffffffffffffffffff16145b614ee763ffffffff16565b5b50565b611845600c60009054906101000a900473ffffffffffffffffffffffffffffffffffffffff1673ffffffffffffffffffffffffffffffffffffffff168273ffffffffffffffffffffffffffffffffffffffff1614806117e25750600b60009054906101000a900473ffffffffffffffffffffffffffffffffffffffff1673ffffffffffffffffffffffffffffffffffffffff168273ffffffffffffffffffffffffffffffffffffffff16145b8061183a5750601160009054906101000a900473ffffffffffffffffffffffffffffffffffffffff1673ffffffffffffffffffffffffffffffffffffffff168273ffffffffffffffffffffffffffffffffffffffff16145b614ee763ffffffff16565b5b50565b6002600060005054141515156118ca576040517f08c379a000000000000000000000000000000000000000000000000000000000815260040180806020018281038252601f8152602001807f5265656e7472616e637947756172643a207265656e7472616e742063616c6c0081526020015060200191505060405180910390fd5b600260006000508190909055506119143073ffffffffffffffffffffffffffffffffffffffff163373ffffffffffffffffffffffffffffffffffffffff1614614ee763ffffffff16565b6119238161567c63ffffffff16565b600e60009054906101000a900473ffffffffffffffffffffffffffffffffffffffff1673ffffffffffffffffffffffffffffffffffffffff16634ac8c5ae601060009054906101000a900473ffffffffffffffffffffffffffffffffffffffff166040518263ffffffff1660e01b81526004016119a0919061672b565b600060405180830381600087803b1580156119bb5760006000fd5b505af11580156119d0573d600060003e3d6000fd5b50505050601060009054906101000a900473ffffffffffffffffffffffffffffffffffffffff1673ffffffffffffffffffffffffffffffffffffffff166307da68f56040518163ffffffff1660e01b8152600401600060405180830381600087803b158015611a3f5760006000fd5b505af1158015611a54573d600060003e3d6000fd5b5050505080601060006101000a81548173ffffffffffffffffffffffffffffffffffffffff021916908373ffffffffffffffffffffffffffffffffffffffff160217905550600e60009054906101000a900473ffffffffffffffffffffffffffffffffffffffff1673ffffffffffffffffffffffffffffffffffffffff16632c388d5d601060009054906101000a900473ffffffffffffffffffffffffffffffffffffffff166040518263ffffffff1660e01b8152600401611b16919061672b565b600060405180830381600087803b158015611b315760006000fd5b505af1158015611b46573d600060003e3d6000fd5b50505050600360009054906101000a900473ffffffffffffffffffffffffffffffffffffffff1673ffffffffffffffffffffffffffffffffffffffff1663a678f336601060009054906101000a900473ffffffffffffffffffffffffffffffffffffffff166040518263ffffffff1660e01b8152600401611bc7919061672b565b600060405180830381600087803b158015611be25760006000fd5b505af1158015611bf7573d600060003e3d6000fd5b50505050601060009054906101000a900473ffffffffffffffffffffffffffffffffffffffff1673ffffffffffffffffffffffffffffffffffffffff16604051611c40906165d4565b60405180910390207f2b51ff7c4cc8e6fe1c72e9d9685b7d2a88a5d82ad3a644afbdceb0272c89c1c360405160405180910390a35b5b600160006000508190909055505b50565b600260006000505414151515611d08576040517f08c379a000000000000000000000000000000000000000000000000000000000815260040180806020018281038252601f8152602001807f5265656e7472616e637947756172643a207265656e7472616e742063616c6c0081526020015060200191505060405180910390fd5b60026000600050819090905550611d523073ffffffffffffffffffffffffffffffffffffffff163373ffffffffffffffffffffffffffffffffffffffff1614614ee763ffffffff16565b6000600160089054906101000a900467ffffffffffffffff1667ffffffffffffffff16111515611db7576040517f08c379a0000000000000000000000000000000000000000000000000000000008152600401611dae90616c90565b60405180910390fd5b600660009054906101000a900473ffffffffffffffffffffffffffffffffffffffff1673ffffffffffffffffffffffffffffffffffffffff16633c4a25d0826040518263ffffffff1660e01b8152600401611e12919061672b565b600060405180830381600087803b158015611e2d5760006000fd5b505af1158015611e42573d600060003e3d6000fd5b505050508073ffffffffffffffffffffffffffffffffffffffff167f078ca541eec5b410213fc65330fc5a7324eb56fe692344e7bc1b8be56bd3c16960405160405180910390a25b5b600160006000508190909055505b50565b600c60009054906101000a900473ffffffffffffffffffffffffffffffffffffffff1681565b600260006000505414151515611f43576040517f08c379a000000000000000000000000000000000000000000000000000000000815260040180806020018281038252601f8152602001807f5265656e7472616e637947756172643a207265656e7472616e742063616c6c0081526020015060200191505060405180910390fd5b60026000600050819090905550611f8d3073ffffffffffffffffffffffffffffffffffffffff163373ffffffffffffffffffffffffffffffffffffffff1614614ee763ffffffff16565b611f9c8161567c63ffffffff16565b600e60009054906101000a900473ffffffffffffffffffffffffffffffffffffffff1673ffffffffffffffffffffffffffffffffffffffff16634ac8c5ae600d60009054906101000a900473ffffffffffffffffffffffffffffffffffffffff166040518263ffffffff1660e01b8152600401612019919061672b565b600060405180830381600087803b1580156120345760006000fd5b505af1158015612049573d600060003e3d6000fd5b50505050600d60009054906101000a900473ffffffffffffffffffffffffffffffffffffffff1673ffffffffffffffffffffffffffffffffffffffff166307da68f56040518163ffffffff1660e01b8152600401600060405180830381600087803b1580156120b85760006000fd5b505af11580156120cd573d600060003e3d6000fd5b5050505080600d60006101000a81548173ffffffffffffffffffffffffffffffffffffffff021916908373ffffffffffffffffffffffffffffffffffffffff160217905550600e60009054906101000a900473ffffffffffffffffffffffffffffffffffffffff1673ffffffffffffffffffffffffffffffffffffffff16632c388d5d600d60009054906101000a900473ffffffffffffffffffffffffffffffffffffffff166040518263ffffffff1660e01b815260040161218f919061672b565b600060405180830381600087803b1580156121aa5760006000fd5b505af11580156121bf573d600060003e3d6000fd5b50505050600d60009054906101000a900473ffffffffffffffffffffffffffffffffffffffff1673ffffffffffffffffffffffffffffffffffffffff16604051612208906166fa565b60405180910390207f2b51ff7c4cc8e6fe1c72e9d9685b7d2a88a5d82ad3a644afbdceb0272c89c1c360405160405180910390a35b5b600160006000508190909055505b50565b600460009054906101000a900473ffffffffffffffffffffffffffffffffffffffff1681565b6002600060005054141515156122f6576040517f08c379a000000000000000000000000000000000000000000000000000000000815260040180806020018281038252601f8152602001807f5265656e7472616e637947756172643a207265656e7472616e742063616c6c0081526020015060200191505060405180910390fd5b60026000600050819090905550600033905060008211151561234d576040517f08c379a000000000000000000000000000000000000000000000000000000000815260040161234490616b55565b60405180910390fd5b6123a582600260005060008473ffffffffffffffffffffffffffffffffffffffff1673ffffffffffffffffffffffffffffffffffffffff168152602001908152602001600020600050546156d090919063ffffffff16565b600260005060008373ffffffffffffffffffffffffffffffffffffffff1673ffffffffffffffffffffffffffffffffffffffff168152602001908152602001600020600050819090905550612446600660009054906101000a900473ffffffffffffffffffffffffffffffffffffffff1682600960009054906101000a900473ffffffffffffffffffffffffffffffffffffffff168561575963ffffffff16565b61245461598463ffffffff16565b8073ffffffffffffffffffffffffffffffffffffffff167f6f076ad9d1927fd5f792070276b90549d2433311ff94fe0d7afba682c150817a8360405161249a9190616d8a565b60405180910390a2505b600160006000508190909055505b50565b600260006000505414151515612536576040517f08c379a000000000000000000000000000000000000000000000000000000000815260040180806020018281038252601f8152602001807f5265656e7472616e637947756172643a207265656e7472616e742063616c6c0081526020015060200191505060405180910390fd5b600260006000508190909055506125803073ffffffffffffffffffffffffffffffffffffffff163373ffffffffffffffffffffffffffffffffffffffff1614614ee763ffffffff16565b61258f8161567c63ffffffff16565b600e60009054906101000a900473ffffffffffffffffffffffffffffffffffffffff1673ffffffffffffffffffffffffffffffffffffffff16634ac8c5ae601160009054906101000a900473ffffffffffffffffffffffffffffffffffffffff166040518263ffffffff1660e01b815260040161260c919061672b565b600060405180830381600087803b1580156126275760006000fd5b505af115801561263c573d600060003e3d6000fd5b50505050601160009054906101000a900473ffffffffffffffffffffffffffffffffffffffff1673ffffffffffffffffffffffffffffffffffffffff166307da68f56040518163ffffffff1660e01b8152600401600060405180830381600087803b1580156126ab5760006000fd5b505af11580156126c0573d600060003e3d6000fd5b5050505080601160006101000a81548173ffffffffffffffffffffffffffffffffffffffff021916908373ffffffffffffffffffffffffffffffffffffffff160217905550600e60009054906101000a900473ffffffffffffffffffffffffffffffffffffffff1673ffffffffffffffffffffffffffffffffffffffff16632c388d5d601160009054906101000a900473ffffffffffffffffffffffffffffffffffffffff166040518263ffffffff1660e01b8152600401612782919061672b565b600060405180830381600087803b15801561279d5760006000fd5b505af11580156127b2573d600060003e3d6000fd5b50505050601160009054906101000a900473ffffffffffffffffffffffffffffffffffffffff1673ffffffffffffffffffffffffffffffffffffffff166040516127fb90616636565b60405180910390207f2b51ff7c4cc8e6fe1c72e9d9685b7d2a88a5d82ad3a644afbdceb0272c89c1c360405160405180910390a35b5b600160006000508190909055505b50565b6128f9600b60009054906101000a900473ffffffffffffffffffffffffffffffffffffffff1673ffffffffffffffffffffffffffffffffffffffff168273ffffffffffffffffffffffffffffffffffffffff1614806128ee5750601160009054906101000a900473ffffffffffffffffffffffffffffffffffffffff1673ffffffffffffffffffffffffffffffffffffffff168273ffffffffffffffffffffffffffffffffffffffff16145b614ee763ffffffff16565b5b50565b600360009054906101000a900473ffffffffffffffffffffffffffffffffffffffff1681565b600b60009054906101000a900473ffffffffffffffffffffffffffffffffffffffff1681565b601060009054906101000a900473ffffffffffffffffffffffffffffffffffffffff1681565b6002600060005054141515156129f0576040517f08c379a000000000000000000000000000000000000000000000000000000000815260040180806020018281038252601f8152602001807f5265656e7472616e637947756172643a207265656e7472616e742063616c6c0081526020015060200191505060405180910390fd5b60026000600050819090905550612a3a3073ffffffffffffffffffffffffffffffffffffffff163373ffffffffffffffffffffffffffffffffffffffff1614614ee763ffffffff16565b612a498161567c63ffffffff16565b600e60009054906101000a900473ffffffffffffffffffffffffffffffffffffffff1673ffffffffffffffffffffffffffffffffffffffff16634ac8c5ae600f60009054906101000a900473ffffffffffffffffffffffffffffffffffffffff166040518263ffffffff1660e01b8152600401612ac6919061672b565b600060405180830381600087803b158015612ae15760006000fd5b505af1158015612af6573d600060003e3d6000fd5b50505050600f60009054906101000a900473ffffffffffffffffffffffffffffffffffffffff1673ffffffffffffffffffffffffffffffffffffffff166307da68f56040518163ffffffff1660e01b8152600401600060405180830381600087803b158015612b655760006000fd5b505af1158015612b7a573d600060003e3d6000fd5b5050505080600f60006101000a81548173ffffffffffffffffffffffffffffffffffffffff021916908373ffffffffffffffffffffffffffffffffffffffff160217905550600e60009054906101000a900473ffffffffffffffffffffffffffffffffffffffff1673ffffffffffffffffffffffffffffffffffffffff16632c388d5d600f60009054906101000a900473ffffffffffffffffffffffffffffffffffffffff166040518263ffffffff1660e01b8152600401612c3c919061672b565b600060405180830381600087803b158015612c575760006000fd5b505af1158015612c6c573d600060003e3d6000fd5b50505050600f60009054906101000a900473ffffffffffffffffffffffffffffffffffffffff1673ffffffffffffffffffffffffffffffffffffffff16604051612cb590616605565b60405180910390207f2b51ff7c4cc8e6fe1c72e9d9685b7d2a88a5d82ad3a644afbdceb0272c89c1c360405160405180910390a35b5b600160006000508190909055505b50565b600960009054906101000a900473ffffffffffffffffffffffffffffffffffffffff1673ffffffffffffffffffffffffffffffffffffffff1663a43c36af8484846040518463ffffffff1660e01b8152600401612d5b93929190616753565b60006040518083038186803b158015612d745760006000fd5b505afa158015612d89573d600060003e3d6000fd5b505050505b505050565b6000612dd5600160009054906101000a900467ffffffffffffffff1667ffffffffffffffff16612dc7614fb663ffffffff16565b61535690919063ffffffff16565b9050612ddc565b90565b600860009054906101000a900473ffffffffffffffffffffffffffffffffffffffff1681565b600260006000505414151515612e86576040517f08c379a000000000000000000000000000000000000000000000000000000000815260040180806020018281038252601f8152602001807f5265656e7472616e637947756172643a207265656e7472616e742063616c6c0081526020015060200191505060405180910390fd5b60026000600050819090905550612ed03073ffffffffffffffffffffffffffffffffffffffff163373ffffffffffffffffffffffffffffffffffffffff1614614ee763ffffffff16565b670de0b6b3a76400008167ffffffffffffffff1611151515612ef25760006000fd5b80600160006101000a81548167ffffffffffffffff021916908367ffffffffffffffff1602179055505b5b600160006000508190909055505b50565b600260006000505414151515612faf576040517f08c379a000000000000000000000000000000000000000000000000000000000815260040180806020018281038252601f8152602001807f5265656e7472616e637947756172643a207265656e7472616e742063616c6c0081526020015060200191505060405180910390fd5b60026000600050819090905550612ff93073ffffffffffffffffffffffffffffffffffffffff163373ffffffffffffffffffffffffffffffffffffffff1614614ee763ffffffff16565b6000601b60009054906101000a900467ffffffffffffffff1667ffffffffffffffff1614151561305e576040517f08c379a000000000000000000000000000000000000000000000000000000000815260040161305590616b94565b60405180910390fd5b61306d81615a3563ffffffff16565b601b60006101000a81548167ffffffffffffffff021916908367ffffffffffffffff160217905550600960009054906101000a900473ffffffffffffffffffffffffffffffffffffffff1673ffffffffffffffffffffffffffffffffffffffff1663b8188c816130f8601b60009054906101000a900467ffffffffffffffff16615abd63ffffffff16565b6040518263ffffffff1660e01b81526004016131149190616d9c565b600060405180830381600087803b15801561312f5760006000fd5b505af1158015613144573d600060003e3d6000fd5b505050505b5b600160006000508190909055505b50565b6002600060005054141515156131dc576040517f08c379a000000000000000000000000000000000000000000000000000000000815260040180806020018281038252601f8152602001807f5265656e7472616e637947756172643a207265656e7472616e742063616c6c0081526020015060200191505060405180910390fd5b600260006000508190909055506132263073ffffffffffffffffffffffffffffffffffffffff163373ffffffffffffffffffffffffffffffffffffffff1614614ee763ffffffff16565b6132358161567c63ffffffff16565b600e60009054906101000a900473ffffffffffffffffffffffffffffffffffffffff1673ffffffffffffffffffffffffffffffffffffffff16634ac8c5ae600b60009054906101000a900473ffffffffffffffffffffffffffffffffffffffff166040518263ffffffff1660e01b81526004016132b2919061672b565b600060405180830381600087803b1580156132cd5760006000fd5b505af11580156132e2573d600060003e3d6000fd5b50505050600b60009054906101000a900473ffffffffffffffffffffffffffffffffffffffff1673ffffffffffffffffffffffffffffffffffffffff166307da68f56040518163ffffffff1660e01b8152600401600060405180830381600087803b1580156133515760006000fd5b505af1158015613366573d600060003e3d6000fd5b5050505080600b60006101000a81548173ffffffffffffffffffffffffffffffffffffffff021916908373ffffffffffffffffffffffffffffffffffffffff160217905550600e60009054906101000a900473ffffffffffffffffffffffffffffffffffffffff1673ffffffffffffffffffffffffffffffffffffffff16632c388d5d600b60009054906101000a900473ffffffffffffffffffffffffffffffffffffffff166040518263ffffffff1660e01b8152600401613428919061672b565b600060405180830381600087803b1580156134435760006000fd5b505af1158015613458573d600060003e3d6000fd5b50505050600b60009054906101000a900473ffffffffffffffffffffffffffffffffffffffff1673ffffffffffffffffffffffffffffffffffffffff166040516134a1906166c9565b60405180910390207f2b51ff7c4cc8e6fe1c72e9d9685b7d2a88a5d82ad3a644afbdceb0272c89c1c360405160405180910390a35b5b600160006000508190909055505b50565b613547601660009054906101000a900473ffffffffffffffffffffffffffffffffffffffff1673ffffffffffffffffffffffffffffffffffffffff163373ffffffffffffffffffffffffffffffffffffffff1614614ee763ffffffff16565b601660006101000a81549073ffffffffffffffffffffffffffffffffffffffff021916905580600001602081019061357f919061621d565b600360006101000a81548173ffffffffffffffffffffffffffffffffffffffff021916908373ffffffffffffffffffffffffffffffffffffffff1602179055508060200160208101906135d29190616244565b600460006101000a81548173ffffffffffffffffffffffffffffffffffffffff021916908373ffffffffffffffffffffffffffffffffffffffff160217905550806040016020810190613625919061626b565b600960006101000a81548173ffffffffffffffffffffffffffffffffffffffff021916908373ffffffffffffffffffffffffffffffffffffffff160217905550806060016020810190613678919061604b565b601360006101000a81548173ffffffffffffffffffffffffffffffffffffffff021916908373ffffffffffffffffffffffffffffffffffffffff1602179055508060800160208101906136cb9190616292565b600760006101000a81548173ffffffffffffffffffffffffffffffffffffffff021916908373ffffffffffffffffffffffffffffffffffffffff1602179055508060a001602081019061371e919061632e565b600860006101000a81548173ffffffffffffffffffffffffffffffffffffffff021916908373ffffffffffffffffffffffffffffffffffffffff1602179055508060c001602081019061377191906162b9565b600a60006101000a81548173ffffffffffffffffffffffffffffffffffffffff021916908373ffffffffffffffffffffffffffffffffffffffff1602179055508060e00160208101906137c491906162e0565b600b60006101000a81548173ffffffffffffffffffffffffffffffffffffffff021916908373ffffffffffffffffffffffffffffffffffffffff160217905550806101000160208101906138189190616307565b600c60006101000a81548173ffffffffffffffffffffffffffffffffffffffff021916908373ffffffffffffffffffffffffffffffffffffffff1602179055508061012001602081019061386c9190616355565b600d60006101000a81548173ffffffffffffffffffffffffffffffffffffffff021916908373ffffffffffffffffffffffffffffffffffffffff160217905550806101400160208101906138c0919061637c565b600e60006101000a81548173ffffffffffffffffffffffffffffffffffffffff021916908373ffffffffffffffffffffffffffffffffffffffff1602179055508061016001602081019061391491906163a3565b600f60006101000a81548173ffffffffffffffffffffffffffffffffffffffff021916908373ffffffffffffffffffffffffffffffffffffffff1602179055508061018001602081019061396891906163ca565b601060006101000a81548173ffffffffffffffffffffffffffffffffffffffff021916908373ffffffffffffffffffffffffffffffffffffffff160217905550806101a00160208101906139bc91906163f1565b601160006101000a81548173ffffffffffffffffffffffffffffffffffffffff021916908373ffffffffffffffffffffffffffffffffffffffff160217905550806101c0016020810190613a109190616418565b600660006101000a81548173ffffffffffffffffffffffffffffffffffffffff021916908373ffffffffffffffffffffffffffffffffffffffff160217905550806101e0016020810190613a64919061604b565b601260006101000a81548173ffffffffffffffffffffffffffffffffffffffff021916908373ffffffffffffffffffffffffffffffffffffffff16021790555080610200016020810190613ab8919061643f565b601460006101000a81548173ffffffffffffffffffffffffffffffffffffffff021916908373ffffffffffffffffffffffffffffffffffffffff160217905550600e60009054906101000a900473ffffffffffffffffffffffffffffffffffffffff1673ffffffffffffffffffffffffffffffffffffffff16632c388d5d600460009054906101000a900473ffffffffffffffffffffffffffffffffffffffff166040518263ffffffff1660e01b8152600401613b75919061672b565b600060405180830381600087803b158015613b905760006000fd5b505af1158015613ba5573d600060003e3d6000fd5b50505050600e60009054906101000a900473ffffffffffffffffffffffffffffffffffffffff1673ffffffffffffffffffffffffffffffffffffffff16632c388d5d600960009054906101000a900473ffffffffffffffffffffffffffffffffffffffff166040518263ffffffff1660e01b8152600401613c26919061672b565b600060405180830381600087803b158015613c415760006000fd5b505af1158015613c56573d600060003e3d6000fd5b50505050600e60009054906101000a900473ffffffffffffffffffffffffffffffffffffffff1673ffffffffffffffffffffffffffffffffffffffff16632c388d5d600b60009054906101000a900473ffffffffffffffffffffffffffffffffffffffff166040518263ffffffff1660e01b8152600401613cd7919061672b565b600060405180830381600087803b158015613cf25760006000fd5b505af1158015613d07573d600060003e3d6000fd5b50505050600e60009054906101000a900473ffffffffffffffffffffffffffffffffffffffff1673ffffffffffffffffffffffffffffffffffffffff16632c388d5d600c60009054906101000a900473ffffffffffffffffffffffffffffffffffffffff166040518263ffffffff1660e01b8152600401613d88919061672b565b600060405180830381600087803b158015613da35760006000fd5b505af1158015613db8573d600060003e3d6000fd5b50505050600e60009054906101000a900473ffffffffffffffffffffffffffffffffffffffff1673ffffffffffffffffffffffffffffffffffffffff16632c388d5d600f60009054906101000a900473ffffffffffffffffffffffffffffffffffffffff166040518263ffffffff1660e01b8152600401613e39919061672b565b600060405180830381600087803b158015613e545760006000fd5b505af1158015613e69573d600060003e3d6000fd5b50505050600e60009054906101000a900473ffffffffffffffffffffffffffffffffffffffff1673ffffffffffffffffffffffffffffffffffffffff16632c388d5d601060009054906101000a900473ffffffffffffffffffffffffffffffffffffffff166040518263ffffffff1660e01b8152600401613eea919061672b565b600060405180830381600087803b158015613f055760006000fd5b505af1158015613f1a573d600060003e3d6000fd5b50505050600e60009054906101000a900473ffffffffffffffffffffffffffffffffffffffff1673ffffffffffffffffffffffffffffffffffffffff16632c388d5d601160009054906101000a900473ffffffffffffffffffffffffffffffffffffffff166040518263ffffffff1660e01b8152600401613f9b919061672b565b600060405180830381600087803b158015613fb65760006000fd5b505af1158015613fcb573d600060003e3d6000fd5b505050505b50565b60006000600160089054906101000a900467ffffffffffffffff1667ffffffffffffffff16119050614000565b90565b7f000000000000000000000000000000000000000000000000000000000000000081565b60006140e56703782dace9d90000600660009054906101000a900473ffffffffffffffffffffffffffffffffffffffff1673ffffffffffffffffffffffffffffffffffffffff166318160ddd6040518163ffffffff1660e01b815260040160206040518083038186803b15801561409e5760006000fd5b505afa1580156140b3573d600060003e3d6000fd5b505050506040513d601f19601f820116820180604052508101906140d7919061649e565b61535690919063ffffffff16565b600660009054906101000a900473ffffffffffffffffffffffffffffffffffffffff1673ffffffffffffffffffffffffffffffffffffffff166370a08231600960009054906101000a900473ffffffffffffffffffffffffffffffffffffffff166040518263ffffffff1660e01b8152600401614162919061672b565b60206040518083038186803b15801561417b5760006000fd5b505afa158015614190573d600060003e3d6000fd5b505050506040513d601f19601f820116820180604052508101906141b4919061649e565b1190506141bc565b90565b600260006000505414151515614240576040517f08c379a000000000000000000000000000000000000000000000000000000000815260040180806020018281038252601f8152602001807f5265656e7472616e637947756172643a207265656e7472616e742063616c6c0081526020015060200191505060405180910390fd5b6002600060005081909090555043601760005054101515614296576040517f08c379a000000000000000000000000000000000000000000000000000000000815260040161428d90616bd3565b60405180910390fd5b6142a461537c63ffffffff16565b5b600160006000508190909055505b565b7f000000000000000000000000000000000000000000000000000000000000000081565b601260009054906101000a900473ffffffffffffffffffffffffffffffffffffffff1681565b600d60009054906101000a900473ffffffffffffffffffffffffffffffffffffffff1681565b600e60009054906101000a900473ffffffffffffffffffffffffffffffffffffffff1681565b601660009054906101000a900473ffffffffffffffffffffffffffffffffffffffff1681565b601c6000505481565b6002600060005054141515156143fb576040517f08c379a000000000000000000000000000000000000000000000000000000000815260040180806020018281038252601f8152602001807f5265656e7472616e637947756172643a207265656e7472616e742063616c6c0081526020015060200191505060405180910390fd5b600260006000508190909055506144453073ffffffffffffffffffffffffffffffffffffffff163373ffffffffffffffffffffffffffffffffffffffff1614614ee763ffffffff16565b6144548161567c63ffffffff16565b600073ffffffffffffffffffffffffffffffffffffffff16600560009054906101000a900473ffffffffffffffffffffffffffffffffffffffff1673ffffffffffffffffffffffffffffffffffffffff161415156145e257600e60009054906101000a900473ffffffffffffffffffffffffffffffffffffffff1673ffffffffffffffffffffffffffffffffffffffff16634ac8c5ae600560009054906101000a900473ffffffffffffffffffffffffffffffffffffffff166040518263ffffffff1660e01b8152600401614529919061672b565b600060405180830381600087803b1580156145445760006000fd5b505af1158015614559573d600060003e3d6000fd5b50505050600560009054906101000a900473ffffffffffffffffffffffffffffffffffffffff1673ffffffffffffffffffffffffffffffffffffffff166307da68f56040518163ffffffff1660e01b8152600401600060405180830381600087803b1580156145c85760006000fd5b505af11580156145dd573d600060003e3d6000fd5b505050505b600460009054906101000a900473ffffffffffffffffffffffffffffffffffffffff16600560006101000a81548173ffffffffffffffffffffffffffffffffffffffff021916908373ffffffffffffffffffffffffffffffffffffffff16021790555080600460006101000a81548173ffffffffffffffffffffffffffffffffffffffff021916908373ffffffffffffffffffffffffffffffffffffffff160217905550600e60009054906101000a900473ffffffffffffffffffffffffffffffffffffffff1673ffffffffffffffffffffffffffffffffffffffff16632c388d5d600460009054906101000a900473ffffffffffffffffffffffffffffffffffffffff166040518263ffffffff1660e01b8152600401614703919061672b565b600060405180830381600087803b15801561471e5760006000fd5b505af1158015614733573d600060003e3d6000fd5b50505050600460009054906101000a900473ffffffffffffffffffffffffffffffffffffffff1673ffffffffffffffffffffffffffffffffffffffff1660405161477c90616698565b60405180910390207f2b51ff7c4cc8e6fe1c72e9d9685b7d2a88a5d82ad3a644afbdceb0272c89c1c360405160405180910390a35b5b600160006000508190909055505b50565b601460009054906101000a900473ffffffffffffffffffffffffffffffffffffffff1681565b60026000600050541415151561486a576040517f08c379a000000000000000000000000000000000000000000000000000000000815260040180806020018281038252601f8152602001807f5265656e7472616e637947756172643a207265656e7472616e742063616c6c0081526020015060200191505060405180910390fd5b6002600060005081909090555060003390506000600260005060008373ffffffffffffffffffffffffffffffffffffffff1673ffffffffffffffffffffffffffffffffffffffff16815260200190815260200160002060005054905060008111151561490b576040517f08c379a000000000000000000000000000000000000000000000000000000000815260040161490290616b55565b60405180910390fd5b6000600260005060008473ffffffffffffffffffffffffffffffffffffffff1673ffffffffffffffffffffffffffffffffffffffff1681526020019081526020016000206000508190909055506149ae600660009054906101000a900473ffffffffffffffffffffffffffffffffffffffff16600960009054906101000a900473ffffffffffffffffffffffffffffffffffffffff16848461575963ffffffff16565b6149bc61598463ffffffff16565b8173ffffffffffffffffffffffffffffffffffffffff167fbfaf8d2920f9287ed71a7e47234c2043522ae8ffd246577b929897e0f2b3c07582604051614a029190616d8a565b60405180910390a250505b600160006000508190909055505b565b601360009054906101000a900473ffffffffffffffffffffffffffffffffffffffff1681565b6703782dace9d9000081565b600260006000505414151515614ad0576040517f08c379a000000000000000000000000000000000000000000000000000000000815260040180806020018281038252601f8152602001807f5265656e7472616e637947756172643a207265656e7472616e742063616c6c0081526020015060200191505060405180910390fd5b60026000600050819090905550614b1a3073ffffffffffffffffffffffffffffffffffffffff163373ffffffffffffffffffffffffffffffffffffffff1614614ee763ffffffff16565b614b298161567c63ffffffff16565b600e60009054906101000a900473ffffffffffffffffffffffffffffffffffffffff1673ffffffffffffffffffffffffffffffffffffffff16634ac8c5ae600c60009054906101000a900473ffffffffffffffffffffffffffffffffffffffff166040518263ffffffff1660e01b8152600401614ba6919061672b565b600060405180830381600087803b158015614bc15760006000fd5b505af1158015614bd6573d600060003e3d6000fd5b50505050600c60009054906101000a900473ffffffffffffffffffffffffffffffffffffffff1673ffffffffffffffffffffffffffffffffffffffff166307da68f56040518163ffffffff1660e01b8152600401600060405180830381600087803b158015614c455760006000fd5b505af1158015614c5a573d600060003e3d6000fd5b5050505080600c60006101000a81548173ffffffffffffffffffffffffffffffffffffffff021916908373ffffffffffffffffffffffffffffffffffffffff160217905550600e60009054906101000a900473ffffffffffffffffffffffffffffffffffffffff1673ffffffffffffffffffffffffffffffffffffffff16632c388d5d600c60009054906101000a900473ffffffffffffffffffffffffffffffffffffffff166040518263ffffffff1660e01b8152600401614d1c919061672b565b600060405180830381600087803b158015614d375760006000fd5b505af1158015614d4c573d600060003e3d6000fd5b50505050600c60009054906101000a900473ffffffffffffffffffffffffffffffffffffffff1673ffffffffffffffffffffffffffffffffffffffff16604051614d9590616667565b60405180910390207f2b51ff7c4cc8e6fe1c72e9d9685b7d2a88a5d82ad3a644afbdceb0272c89c1c360405160405180910390a35b5b600160006000508190909055505b50565b60006801000000000000000082101515614e61576040517f08c379a00000000000000000000000000000000000000000000000000000000081526004018080602001828103825260118152602001807f6d6f7265207468616e203634206269747300000000000000000000000000000081526020015060200191505060405180910390fd5b819050614e69565b919050565b60007f00000000000000000000000000000000000000000000000000000000000000007f000000000000000000000000000000000000000000000000000000000000000067ffffffffffffffff16614eca615b4263ffffffff16565b67ffffffffffffffff16811515614edd57fe5b0403905080505b90565b801515614f29576040517f08c379a0000000000000000000000000000000000000000000000000000000008152600401614f2090616b16565b60405180910390fd5b5b50565b60008282840391508111151515614faf576040517f08c379a000000000000000000000000000000000000000000000000000000000815260040180806020018281038252600d8152602001807f7375622d756e646572666c6f770000000000000000000000000000000000000081526020015060200191505060405180910390fd5b5b92915050565b60006000614fc8614e6e63ffffffff16565b90506000601b60009054906101000a900467ffffffffffffffff1667ffffffffffffffff1614806150225750601b60009054906101000a900467ffffffffffffffff1667ffffffffffffffff168167ffffffffffffffff16105b8061504d57506000600160089054906101000a900467ffffffffffffffff1667ffffffffffffffff16115b1561505c576000915050615353565b6000601b60009054906101000a900467ffffffffffffffff16820390506000601c6000505490506000601a6000506040518060400160405290816000820160009054906101000a90047affffffffffffffffffffffffffffffffffffffffffffffffffffff167affffffffffffffffffffffffffffffffffffffffffffffffffffff167affffffffffffffffffffffffffffffffffffffffffffffffffffff16815260200160008201601b9054906101000a900464ffffffffff1664ffffffffff1664ffffffffff168152602001505090505b8267ffffffffffffffff16816020015164ffffffffff1610156152565760006151c47f160da66187f438da56184b42849d3aa69a5c64e3666b170000000000000000007f161bcca7119915b50764b4abe86529797775a5f171951000000000000000000084600001517affffffffffffffffffffffffffffffffffffffffffffffffffffff16615b5d9092919063ffffffff16565b90506151f5701d6329f1c35ca4bfabb9f5610000000000828115156151e557fe5b04846156d090919063ffffffff16565b92508250604051806040016040528061521583615c5e909063ffffffff16565b7affffffffffffffffffffffffffffffffffffffffffffffffffffff168152602001600184602001510164ffffffffff16815260200150915081505061512f565b80601a60005060008201518160000160006101000a8154817affffffffffffffffffffffffffffffffffffffffffffffffffffff02191690837affffffffffffffffffffffffffffffffffffffffffffffffffffff160217905550602082015181600001601b6101000a81548164ffffffffff021916908364ffffffffff16021790555090505081601c600050819090905550701d6329f1c35ca4bfabb9f561000000000081600001517affffffffffffffffffffffffffffffffffffffffffffffffffffff1681151561532657fe5b047affffffffffffffffffffffffffffffffffffffffffffffffffffff1694505050505061535356505050505b90565b60006153718383670de0b6b3a7640000615b5d63ffffffff16565b905080505b92915050565b6000600160089054906101000a900467ffffffffffffffff1667ffffffffffffffff161415156153e1576040517f08c379a00000000000000000000000000000000000000000000000000000000081526004016153d890616c51565b60405180910390fd5b600c60009054906101000a900473ffffffffffffffffffffffffffffffffffffffff1673ffffffffffffffffffffffffffffffffffffffff1663a6afed956040518163ffffffff1660e01b8152600401600060405180830381600087803b15801561544c5760006000fd5b505af1158015615461573d600060003e3d6000fd5b50505050601060009054906101000a900473ffffffffffffffffffffffffffffffffffffffff1673ffffffffffffffffffffffffffffffffffffffff16631afdbce46040518163ffffffff1660e01b8152600401600060405180830381600087803b1580156154d05760006000fd5b505af11580156154e5573d600060003e3d6000fd5b505050506154f7615b4263ffffffff16565b600160086101000a81548167ffffffffffffffff021916908367ffffffffffffffff1602179055507f5a05a29d5ecece2d4f30720adf1a7449fc1ecb9a884a14629d08d3d2257ab90560405160405180910390a15b565b60008180519060200120905061555f565b919050565b61557c816018600050546156d090919063ffffffff16565b6018600050819090905550601c60005054601860005054111515156155d6576040517f08c379a00000000000000000000000000000000000000000000000000000000081526004016155cd90616d0e565b60405180910390fd5b601460009054906101000a900473ffffffffffffffffffffffffffffffffffffffff1673ffffffffffffffffffffffffffffffffffffffff1663ee5f1ee48361562684615d03909063ffffffff16565b6040518363ffffffff1660e01b81526004016156439291906167f9565b600060405180830381600087803b15801561565e5760006000fd5b505af1158015615673573d600060003e3d6000fd5b505050505b5050565b61568b81615d9d63ffffffff16565b15156156cc576040517f08c379a00000000000000000000000000000000000000000000000000000000081526004016156c390616c12565b60405180910390fd5b5b50565b60008282840191508110151515615752576040517f08c379a000000000000000000000000000000000000000000000000000000000815260040180806020018281038252600c8152602001807f6164642d6f766572666c6f77000000000000000000000000000000000000000081526020015060200191505060405180910390fd5b5b92915050565b600060008573ffffffffffffffffffffffffffffffffffffffff166323b872dd60e01b868686604051602401808473ffffffffffffffffffffffffffffffffffffffff1681526020018373ffffffffffffffffffffffffffffffffffffffff1681526020018281526020019350505050604051602081830303815290604052907bffffffffffffffffffffffffffffffffffffffffffffffffffffffff19166020820180517bffffffffffffffffffffffffffffffffffffffffffffffffffffffff83818316178352505050506040518082805190602001908083835b60208310151561585c57805182525b602082019150602081019050602083039250615836565b6001836020036101000a0380198251168184511680821785525050505050509050019150506000604051808303816000865af19150503d80600081146158be576040519150601f19603f3d011682016040523d82523d6000602084013e6158c3565b606091505b5091509150818015615904575060008151148061590357508080602001905160208110156158f15760006000fd5b81019080805190602001909291905050505b5b151561597b576040517f08c379a00000000000000000000000000000000000000000000000000000000081526004018080602001828103825260038152602001807f535446000000000000000000000000000000000000000000000000000000000081526020015060200191505060405180910390fd5b50505b50505050565b61599261402763ffffffff16565b156159d6577fffffffffffffffffffffffffffffffffffffffffffffffffffffffffffffffff60176000505414156159d1574360176000508190909055505b615a32565b7fffffffffffffffffffffffffffffffffffffffffffffffffffffffffffffffff601760005054141515615a31577fffffffffffffffffffffffffffffffffffffffffffffffffffffffffffffffff60176000508190909055505b5b5b565b6000615ab37f00000000000000000000000000000000000000000000000000000000000000007f000000000000000000000000000000000000000000000000000000000000000067ffffffffffffffff168467ffffffffffffffff16811515615a9a57fe5b0467ffffffffffffffff16615db790919063ffffffff16565b905080505b919050565b6000615b38615aff837f000000000000000000000000000000000000000000000000000000000000000067ffffffffffffffff16615e5490919063ffffffff16565b7f000000000000000000000000000000000000000000000000000000000000000067ffffffffffffffff16615ef190919063ffffffff16565b905080505b919050565b6000615b5542614ddc909063ffffffff16565b905080505b90565b6000600060006000198587098587029250828110838203039150506000811415615ba057600084111515615b915760006000fd5b83820492508292505050615c57565b8084111515615baf5760006000fd5b6000848688099050828111820391508083039250600085866000031690508086049550808404935060018182600003040190508083028417935083506000600287600302189050808702600203810290508050808702600203810290508050808702600203810290508050808702600203810290508050808702600203810290508050808702600203810290508050808502955085508595505050505050615c575650505050505b9392505050565b60007b0100000000000000000000000000000000000000000000000000000082101515615cf6576040517f08c379a00000000000000000000000000000000000000000000000000000000081526004018080602001828103825260128152602001807f6d6f7265207468616e203231362062697473000000000000000000000000000081526020015060200191505060405180910390fd5b819050615cfe565b919050565b600070010000000000000000000000000000000082101515615d90576040517f08c379a00000000000000000000000000000000000000000000000000000000081526004018080602001828103825260128152602001807f6d6f7265207468616e203132382062697473000000000000000000000000000081526020015060200191505060405180910390fd5b819050615d98565b919050565b60006000823b905060008111915050615db256505b919050565b60008267ffffffffffffffff1682840391508167ffffffffffffffff1611151515615e4d576040517f08c379a000000000000000000000000000000000000000000000000000000000815260040180806020018281038252600d8152602001807f7375622d756e646572666c6f770000000000000000000000000000000000000081526020015060200191505060405180910390fd5b5b92915050565b60008267ffffffffffffffff1682840191508167ffffffffffffffff1610151515615eea576040517f08c379a000000000000000000000000000000000000000000000000000000000815260040180806020018281038252600c8152602001807f6164642d6f766572666c6f77000000000000000000000000000000000000000081526020015060200191505060405180910390fd5b5b92915050565b600060008267ffffffffffffffff161480615f4357508267ffffffffffffffff168267ffffffffffffffff1683850292508267ffffffffffffffff16811515615f3657fe5b0467ffffffffffffffff16145b1515615fba576040517f08c379a000000000000000000000000000000000000000000000000000000000815260040180806020018281038252600c8152602001807f6d756c2d6f766572666c6f77000000000000000000000000000000000000000081526020015060200191505060405180910390fd5b5b9291505056616e2b565b600067ffffffffffffffff80841115615fda57fe5b60405160207fffffffffffffffffffffffffffffffffffffffffffffffffffffffffffffffe0601f870116820101818110838211171561601657fe5b80604052508092508481528585850111156160315760006000fd5b8484602083013760006020868301015250505b9392505050565b60006020828403121561605c578081fd5b813561606781616e02565b809150505b92915050565b60006000600060408486031215616087578182fd5b833561609281616e02565b80935050602084013567ffffffffffffffff808211156160b0578384fd5b818601915086601f83011215156160c5578384fd5b8135818111156160d3578485fd5b8760208285010111156160e4578485fd5b6020830194508093505050505b9250925092565b6000600060006060848603121561610d578283fd5b833561611881616e02565b80935050602084013567ffffffffffffffff80821115616136578384fd5b818601915086601f830112151561614b578384fd5b61615a87833560208501615fc5565b9350604086013591508082111561616f578283fd5b50808501905085601f8201121515616185578182fd5b61619486823560208401615fc5565b9150505b9250925092565b60006000604083850312156161b2578182fd5b82356161bd81616e02565b80925050602083013590505b9250929050565b6000602082840312156161e1578081fd5b81357fffffffff00000000000000000000000000000000000000000000000000000000811681141515616212578182fd5b809150505b92915050565b60006020828403121561622e578081fd5b813561623981616e02565b809150505b92915050565b600060208284031215616255578081fd5b813561626081616e02565b809150505b92915050565b60006020828403121561627c578081fd5b813561628781616e02565b809150505b92915050565b6000602082840312156162a3578081fd5b81356162ae81616e02565b809150505b92915050565b6000602082840312156162ca578081fd5b81356162d581616e02565b809150505b92915050565b6000602082840312156162f1578081fd5b81356162fc81616e02565b809150505b92915050565b600060208284031215616318578081fd5b813561632381616e02565b809150505b92915050565b60006020828403121561633f578081fd5b813561634a81616e02565b809150505b92915050565b600060208284031215616366578081fd5b813561637181616e02565b809150505b92915050565b60006020828403121561638d578081fd5b813561639881616e02565b809150505b92915050565b6000602082840312156163b4578081fd5b81356163bf81616e02565b809150505b92915050565b6000602082840312156163db578081fd5b81356163e681616e02565b809150505b92915050565b600060208284031215616402578081fd5b813561640d81616e02565b809150505b92915050565b600060208284031215616429578081fd5b813561643481616e02565b809150505b92915050565b600060208284031215616450578081fd5b813561645b81616e02565b809150505b92915050565b60006102208284031215616478578081fd5b8190505b92915050565b600060208284031215616493578081fd5b813590505b92915050565b6000602082840312156164af578081fd5b815190505b92915050565b6000602082840312156164cb578081fd5b813567ffffffffffffffff8116811415156164e4578182fd5b809150505b92915050565b600060208284031215616500578081fd5b815160ff811681141515616512578182fd5b809150505b92915050565b60008151808452616535816020860160208601616dcd565b60207fffffffffffffffffffffffffffffffffffffffffffffffffffffffffffffffe0601f8301168501019150505b92915050565b60007fffffffff000000000000000000000000000000000000000000000000000000008416825282516165a4816004850160208701616dcd565b6004818401019150505b9392505050565b600082516165c7818460208701616dcd565b8083019150505b92915050565b60007f726577617264730000000000000000000000000000000000000000000000000082526007820190505b919050565b60007f726174657300000000000000000000000000000000000000000000000000000082526005820190505b919050565b60007f736574746c656d656e74000000000000000000000000000000000000000000008252600a820190505b919050565b60007f6d61726b6574000000000000000000000000000000000000000000000000000082526006820190505b919050565b60007f61756374696f6e7300000000000000000000000000000000000000000000000082526008820190505b919050565b60007f6c69717569646174696f6e7300000000000000000000000000000000000000008252600c820190505b919050565b60007f707269636573000000000000000000000000000000000000000000000000000082526006820190505b919050565b600060208201905073ffffffffffffffffffffffffffffffffffffffff831682525b92915050565b600073ffffffffffffffffffffffffffffffffffffffff851682526040602083015282604083015282846060840137806060848401015260607fffffffffffffffffffffffffffffffffffffffffffffffffffffffffffffffe0601f85011683010190505b949350505050565b600073ffffffffffffffffffffffffffffffffffffffff84168252604060208301526167ef604083018461651d565b90505b9392505050565b600060408201905073ffffffffffffffffffffffffffffffffffffffff841682526fffffffffffffffffffffffffffffffff831660208301525b9392505050565b600060408201905073ffffffffffffffffffffffffffffffffffffffff841682528260208301525b9392505050565b600060208201905082151582525b92915050565b6000831515825260406020830152616898604083018461651d565b90505b9392505050565b600060208201905073ffffffffffffffffffffffffffffffffffffffff831682525b92915050565b600060208201905073ffffffffffffffffffffffffffffffffffffffff831682525b92915050565b600060208201905073ffffffffffffffffffffffffffffffffffffffff831682525b92915050565b600060208201905073ffffffffffffffffffffffffffffffffffffffff831682525b92915050565b600060208201905073ffffffffffffffffffffffffffffffffffffffff831682525b92915050565b600060208201905073ffffffffffffffffffffffffffffffffffffffff831682525b92915050565b600060208201905073ffffffffffffffffffffffffffffffffffffffff831682525b92915050565b600060208201905073ffffffffffffffffffffffffffffffffffffffff831682525b92915050565b600060208201905073ffffffffffffffffffffffffffffffffffffffff831682525b92915050565b600060208201905073ffffffffffffffffffffffffffffffffffffffff831682525b92915050565b600060208201905073ffffffffffffffffffffffffffffffffffffffff831682525b92915050565b600060208201905073ffffffffffffffffffffffffffffffffffffffff831682525b92915050565b600060208201905073ffffffffffffffffffffffffffffffffffffffff831682525b92915050565b600060208201905073ffffffffffffffffffffffffffffffffffffffff831682525b92915050565b600060208201905073ffffffffffffffffffffffffffffffffffffffff831682525b92915050565b600060208252616b0d602083018461651d565b90505b92915050565b600060208252600e60208301527f4e6f7420417574686f72697a656400000000000000000000000000000000000060408301526060820190505b919050565b600060208252600460208301527f4e6f6f700000000000000000000000000000000000000000000000000000000060408301526060820190505b919050565b600060208252600b60208301527f416c72656164792073657400000000000000000000000000000000000000000060408301526060820190505b919050565b600060208252601760208301527f496e73756666696369656e7420544350204c6f636b656400000000000000000060408301526060820190505b919050565b600060208252600e60208301527f4e6f74206120636f6e747261637400000000000000000000000000000000000060408301526060820190505b919050565b600060208252601060208301527f416c72656164792073687574646f776e0000000000000000000000000000000060408301526060820190505b919050565b600060208252600c60208301527f4e6f742073687574646f776e000000000000000000000000000000000000000060408301526060820190505b919050565b600060208252600660208301527f4c4f434b4544000000000000000000000000000000000000000000000000000060408301526060820190505b919050565b600060208252600f60208301527f45786365656473206d6178696d756d000000000000000000000000000000000060408301526060820190505b919050565b60006040820190507affffffffffffffffffffffffffffffffffffffffffffffffffffff8416825264ffffffffff831660208301525b9392505050565b60006020820190508282525b92915050565b600060208201905067ffffffffffffffff831682525b92915050565b600060208201905060ff831682525b92915050565b60005b83811015616dec5780820151818401525b602081019050616dd0565b83811115616dfb576000848401525b505b505050565b73ffffffffffffffffffffffffffffffffffffffff811681141515616e275760006000fd5b5b50565bfea2646970667358221220b250871b4f9ea7e69ced67c77be7e43bbd8617e839a94c858239a4759345e76164736f6c63430007060033",
  "linkReferences": {},
  "deployedLinkReferences": {}
}