{
  "_format": "hh-sol-artifact-1",
  "contractName": "Governor",
  "sourceName": "contracts/core/governance/Governor.sol",
  "abi": [
    {
      "inputs": [],
      "stateMutability": "nonpayable",
      "type": "constructor"
    },
    {
      "anonymous": false,
      "inputs": [
        {
          "indexed": true,
          "internalType": "string",
          "name": "contractName",
          "type": "string"
        },
        {
          "indexed": true,
          "internalType": "address",
          "name": "contractAddress",
          "type": "address"
        }
      ],
      "name": "ContractUpgraded",
      "type": "event"
    },
    {
      "anonymous": false,
      "inputs": [
        {
          "indexed": true,
          "internalType": "address",
          "name": "newGovernor",
          "type": "address"
        }
      ],
      "name": "ProtocolUpgraded",
      "type": "event"
    },
    {
      "anonymous": false,
      "inputs": [],
      "name": "ShutdownExecuted",
      "type": "event"
    },
    {
      "anonymous": false,
      "inputs": [
        {
          "indexed": true,
          "internalType": "address",
          "name": "locker",
          "type": "address"
        },
        {
          "indexed": false,
          "internalType": "uint256",
          "name": "count",
          "type": "uint256"
        }
      ],
      "name": "ShutdownTokensLocked",
      "type": "event"
    },
    {
      "anonymous": false,
      "inputs": [
        {
          "indexed": true,
          "internalType": "address",
          "name": "locker",
          "type": "address"
        },
        {
          "indexed": false,
          "internalType": "uint256",
          "name": "count",
          "type": "uint256"
        }
      ],
      "name": "ShutdownTokensUnlocked",
      "type": "event"
    },
    {
      "inputs": [],
      "name": "EMERGENCY_SHUTDOWN_THRESHOLD",
      "outputs": [
        {
          "internalType": "uint256",
          "name": "",
          "type": "uint256"
        }
      ],
      "stateMutability": "view",
      "type": "function"
    },
    {
      "inputs": [],
      "name": "accounting",
      "outputs": [
        {
          "internalType": "contract IAccounting",
          "name": "",
          "type": "address"
        }
      ],
      "stateMutability": "view",
      "type": "function"
    },
    {
      "inputs": [],
      "name": "auctions",
      "outputs": [
        {
          "internalType": "contract IAuctions",
          "name": "",
          "type": "address"
        }
      ],
      "stateMutability": "view",
      "type": "function"
    },
    {
      "inputs": [],
      "name": "borrowRewardsPortion",
      "outputs": [
        {
          "internalType": "uint64",
          "name": "",
          "type": "uint64"
        }
      ],
      "stateMutability": "view",
      "type": "function"
    },
    {
      "inputs": [],
      "name": "calculateCurrentDailyDebtRewardCount",
      "outputs": [
        {
          "internalType": "uint256",
          "name": "",
          "type": "uint256"
        }
      ],
      "stateMutability": "nonpayable",
      "type": "function"
    },
    {
      "inputs": [],
      "name": "calculateCurrentDailyLiquidityRewardCount",
      "outputs": [
        {
          "internalType": "uint256",
          "name": "",
          "type": "uint256"
        }
      ],
      "stateMutability": "nonpayable",
      "type": "function"
    },
    {
      "inputs": [],
      "name": "currentPeriod",
      "outputs": [
        {
          "internalType": "uint64",
          "name": "period",
          "type": "uint64"
        }
      ],
      "stateMutability": "view",
      "type": "function"
    },
    {
      "inputs": [],
      "name": "currentPhase",
      "outputs": [
        {
          "internalType": "uint8",
          "name": "",
          "type": "uint8"
        }
      ],
      "stateMutability": "view",
      "type": "function"
    },
    {
      "inputs": [],
      "name": "deployer",
      "outputs": [
        {
          "internalType": "address",
          "name": "",
          "type": "address"
        }
      ],
      "stateMutability": "view",
      "type": "function"
    },
    {
      "inputs": [],
      "name": "emergencyShutdownThresholdMet",
      "outputs": [
        {
          "internalType": "bool",
          "name": "",
          "type": "bool"
        }
      ],
      "stateMutability": "view",
      "type": "function"
    },
    {
      "inputs": [
        {
          "internalType": "address",
          "name": "",
          "type": "address"
        }
      ],
      "name": "emergencyShutdownTokensLocked",
      "outputs": [
        {
          "internalType": "uint256",
          "name": "",
          "type": "uint256"
        }
      ],
      "stateMutability": "view",
      "type": "function"
    },
    {
      "inputs": [],
      "name": "enforcedDecentralization",
      "outputs": [
        {
          "internalType": "contract IEnforcedDecentralization",
          "name": "",
          "type": "address"
        }
      ],
      "stateMutability": "view",
      "type": "function"
    },
    {
      "inputs": [
        {
          "internalType": "address",
          "name": "target",
          "type": "address"
        },
        {
          "internalType": "string",
          "name": "signature",
          "type": "string"
        },
        {
          "internalType": "bytes",
          "name": "data",
          "type": "bytes"
        }
      ],
      "name": "execute",
      "outputs": [
        {
          "internalType": "bool",
          "name": "success",
          "type": "bool"
        },
        {
          "internalType": "bytes",
          "name": "returnData",
          "type": "bytes"
        }
      ],
      "stateMutability": "nonpayable",
      "type": "function"
    },
    {
      "inputs": [],
      "name": "executeEmergencyShutdown",
      "outputs": [],
      "stateMutability": "nonpayable",
      "type": "function"
    },
    {
      "inputs": [],
      "name": "executeShutdown",
      "outputs": [],
      "stateMutability": "nonpayable",
      "type": "function"
    },
    {
      "inputs": [],
      "name": "firstPeriod",
      "outputs": [
        {
          "internalType": "uint64",
          "name": "",
          "type": "uint64"
        }
      ],
      "stateMutability": "view",
      "type": "function"
    },
    {
      "inputs": [],
      "name": "firstRewardsPeriod",
      "outputs": [
        {
          "internalType": "uint64",
          "name": "",
          "type": "uint64"
        }
      ],
      "stateMutability": "view",
      "type": "function"
    },
    {
      "inputs": [],
      "name": "governorAlpha",
      "outputs": [
        {
          "internalType": "address",
          "name": "",
          "type": "address"
        }
      ],
      "stateMutability": "view",
      "type": "function"
    },
    {
      "inputs": [],
      "name": "hue",
      "outputs": [
        {
          "internalType": "contract IHue",
          "name": "",
          "type": "address"
        }
      ],
      "stateMutability": "view",
      "type": "function"
    },
    {
      "inputs": [],
      "name": "huePositionNFT",
      "outputs": [
        {
          "internalType": "contract IPositionNFT",
          "name": "",
          "type": "address"
        }
      ],
      "stateMutability": "view",
      "type": "function"
    },
    {
      "inputs": [
        {
          "internalType": "address",
          "name": "to",
          "type": "address"
        },
        {
          "internalType": "uint256",
          "name": "count",
          "type": "uint256"
        }
      ],
      "name": "increaseTCPAllocation",
      "outputs": [],
      "stateMutability": "nonpayable",
      "type": "function"
    },
    {
      "inputs": [
        {
          "components": [
            {
              "internalType": "contract IAccounting",
              "name": "accounting",
              "type": "address"
            },
            {
              "internalType": "contract IAuctions",
              "name": "auctions",
              "type": "address"
            },
            {
              "internalType": "contract IEnforcedDecentralization",
              "name": "enforcedDecentralization",
              "type": "address"
            },
            {
              "internalType": "address",
              "name": "governorAlpha",
              "type": "address"
            },
            {
              "internalType": "contract IHue",
              "name": "hue",
              "type": "address"
            },
            {
              "internalType": "contract IPositionNFT",
              "name": "huePositionNFT",
              "type": "address"
            },
            {
              "internalType": "contract ILendHue",
              "name": "lendHue",
              "type": "address"
            },
            {
              "internalType": "contract ILiquidations",
              "name": "liquidations",
              "type": "address"
            },
            {
              "internalType": "contract IMarket",
              "name": "market",
              "type": "address"
            },
            {
              "internalType": "contract IPrices",
              "name": "prices",
              "type": "address"
            },
            {
              "internalType": "contract IProtocolLock",
              "name": "protocolLock",
              "type": "address"
            },
            {
              "internalType": "contract IRates",
              "name": "rates",
              "type": "address"
            },
            {
              "internalType": "contract IRewards",
              "name": "rewards",
              "type": "address"
            },
            {
              "internalType": "contract ISettlement",
              "name": "settlement",
              "type": "address"
            },
            {
              "internalType": "contract ITCP",
              "name": "tcp",
              "type": "address"
            },
            {
              "internalType": "address",
              "name": "timelock",
              "type": "address"
            },
            {
              "internalType": "contract TcpAllocation",
              "name": "tcpAllocation",
              "type": "address"
            }
          ],
          "internalType": "struct IGovernor.ProtocolData",
          "name": "pd",
          "type": "tuple"
        }
      ],
      "name": "init",
      "outputs": [],
      "stateMutability": "nonpayable",
      "type": "function"
    },
    {
      "inputs": [],
      "name": "isShutdown",
      "outputs": [
        {
          "internalType": "bool",
          "name": "",
          "type": "bool"
        }
      ],
      "stateMutability": "view",
      "type": "function"
    },
    {
      "inputs": [],
      "name": "lendHue",
      "outputs": [
        {
          "internalType": "contract ILendHue",
          "name": "",
          "type": "address"
        }
      ],
      "stateMutability": "view",
      "type": "function"
    },
    {
      "inputs": [],
      "name": "liquidations",
      "outputs": [
        {
          "internalType": "contract ILiquidations",
          "name": "",
          "type": "address"
        }
      ],
      "stateMutability": "view",
      "type": "function"
    },
    {
      "inputs": [
        {
          "internalType": "uint256",
          "name": "count",
          "type": "uint256"
        }
      ],
      "name": "lockTokensForEmergencyShutdown",
      "outputs": [],
      "stateMutability": "nonpayable",
      "type": "function"
    },
    {
      "inputs": [],
      "name": "market",
      "outputs": [
        {
          "internalType": "contract IMarket",
          "name": "",
          "type": "address"
        }
      ],
      "stateMutability": "view",
      "type": "function"
    },
    {
      "inputs": [],
      "name": "maxTotalDailyRewardsAllocation",
      "outputs": [
        {
          "internalType": "uint256",
          "name": "",
          "type": "uint256"
        }
      ],
      "stateMutability": "view",
      "type": "function"
    },
    {
      "inputs": [
        {
          "internalType": "address",
          "name": "to",
          "type": "address"
        },
        {
          "internalType": "uint256",
          "name": "count",
          "type": "uint256"
        }
      ],
      "name": "mintIncentive",
      "outputs": [],
      "stateMutability": "nonpayable",
      "type": "function"
    },
    {
      "inputs": [
        {
          "internalType": "address",
          "name": "to",
          "type": "address"
        },
        {
          "internalType": "uint256",
          "name": "count",
          "type": "uint256"
        }
      ],
      "name": "mintVotingRewards",
      "outputs": [],
      "stateMutability": "nonpayable",
      "type": "function"
    },
    {
      "inputs": [],
      "name": "periodLength",
      "outputs": [
        {
          "internalType": "uint64",
          "name": "",
          "type": "uint64"
        }
      ],
      "stateMutability": "view",
      "type": "function"
    },
    {
      "inputs": [],
      "name": "periodRewards",
      "outputs": [
        {
          "internalType": "uint216",
          "name": "periodRewards",
          "type": "uint216"
        },
        {
          "internalType": "uint40",
          "name": "currentCalculatedPeriod",
          "type": "uint40"
        }
      ],
      "stateMutability": "view",
      "type": "function"
    },
    {
      "inputs": [],
      "name": "prices",
      "outputs": [
        {
          "internalType": "contract IPrices",
          "name": "",
          "type": "address"
        }
      ],
      "stateMutability": "view",
      "type": "function"
    },
    {
      "inputs": [],
      "name": "protocolLock",
      "outputs": [
        {
          "internalType": "contract IProtocolLock",
          "name": "",
          "type": "address"
        }
      ],
      "stateMutability": "view",
      "type": "function"
    },
    {
      "inputs": [],
      "name": "rates",
      "outputs": [
        {
          "internalType": "contract IRates",
          "name": "",
          "type": "address"
        }
      ],
      "stateMutability": "view",
      "type": "function"
    },
    {
      "inputs": [
        {
          "internalType": "address",
          "name": "caller",
          "type": "address"
        }
      ],
      "name": "requireDebtServicesAccess",
      "outputs": [],
      "stateMutability": "view",
      "type": "function"
    },
    {
      "inputs": [
        {
          "internalType": "address",
          "name": "caller",
          "type": "address"
        }
      ],
      "name": "requireHueReservesBurnAccess",
      "outputs": [],
      "stateMutability": "view",
      "type": "function"
    },
    {
      "inputs": [
        {
          "internalType": "address",
          "name": "caller",
          "type": "address"
        }
      ],
      "name": "requireInitializePoolAccess",
      "outputs": [],
      "stateMutability": "view",
      "type": "function"
    },
    {
      "inputs": [
        {
          "internalType": "address",
          "name": "caller",
          "type": "address"
        }
      ],
      "name": "requireUpdatePositionAccess",
      "outputs": [],
      "stateMutability": "view",
      "type": "function"
    },
    {
      "inputs": [
        {
          "internalType": "address",
          "name": "target",
          "type": "address"
        },
        {
          "internalType": "string",
          "name": "signature",
          "type": "string"
        }
      ],
      "name": "requireValidAction",
      "outputs": [],
      "stateMutability": "view",
      "type": "function"
    },
    {
      "inputs": [],
      "name": "rewards",
      "outputs": [
        {
          "internalType": "contract IRewards",
          "name": "",
          "type": "address"
        }
      ],
      "stateMutability": "view",
      "type": "function"
    },
    {
      "inputs": [
        {
          "internalType": "uint64",
          "name": "portion",
          "type": "uint64"
        }
      ],
      "name": "setBorrowRewardsPortion",
      "outputs": [],
      "stateMutability": "nonpayable",
      "type": "function"
    },
    {
      "inputs": [
        {
          "internalType": "uint64",
          "name": "phaseOneStartTime",
          "type": "uint64"
        }
      ],
      "name": "setPhaseOneStartTime",
      "outputs": [],
      "stateMutability": "nonpayable",
      "type": "function"
    },
    {
      "inputs": [],
      "name": "settlement",
      "outputs": [
        {
          "internalType": "contract ISettlement",
          "name": "",
          "type": "address"
        }
      ],
      "stateMutability": "view",
      "type": "function"
    },
    {
      "inputs": [],
      "name": "shutdownTime",
      "outputs": [
        {
          "internalType": "uint64",
          "name": "",
          "type": "uint64"
        }
      ],
      "stateMutability": "view",
      "type": "function"
    },
    {
      "inputs": [],
      "name": "tcp",
      "outputs": [
        {
          "internalType": "contract ITCP",
          "name": "",
          "type": "address"
        }
      ],
      "stateMutability": "view",
      "type": "function"
    },
    {
      "inputs": [],
      "name": "tcpAllocation",
      "outputs": [
        {
          "internalType": "contract TcpAllocation",
          "name": "",
          "type": "address"
        }
      ],
      "stateMutability": "view",
      "type": "function"
    },
    {
      "inputs": [],
      "name": "timelock",
      "outputs": [
        {
          "internalType": "address",
          "name": "",
          "type": "address"
        }
      ],
      "stateMutability": "view",
      "type": "function"
    },
    {
      "inputs": [],
      "name": "totalTcpAllocated",
      "outputs": [
        {
          "internalType": "uint256",
          "name": "",
          "type": "uint256"
        }
      ],
      "stateMutability": "view",
      "type": "function"
    },
    {
      "inputs": [],
      "name": "unlockTokensForEmergencyShutdown",
      "outputs": [],
      "stateMutability": "nonpayable",
      "type": "function"
    },
    {
      "inputs": [
        {
          "internalType": "address",
          "name": "_auctions",
          "type": "address"
        }
      ],
      "name": "upgradeAuctions",
      "outputs": [],
      "stateMutability": "nonpayable",
      "type": "function"
    },
    {
      "inputs": [
        {
          "internalType": "address",
          "name": "_liquidations",
          "type": "address"
        }
      ],
      "name": "upgradeLiquidations",
      "outputs": [],
      "stateMutability": "nonpayable",
      "type": "function"
    },
    {
      "inputs": [
        {
          "internalType": "address",
          "name": "_market",
          "type": "address"
        }
      ],
      "name": "upgradeMarket",
      "outputs": [],
      "stateMutability": "nonpayable",
      "type": "function"
    },
    {
      "inputs": [
        {
          "internalType": "address",
          "name": "_prices",
          "type": "address"
        }
      ],
      "name": "upgradePrices",
      "outputs": [],
      "stateMutability": "nonpayable",
      "type": "function"
    },
    {
      "inputs": [
        {
          "internalType": "address",
          "name": "newGovernor",
          "type": "address"
        }
      ],
      "name": "upgradeProtocol",
      "outputs": [],
      "stateMutability": "nonpayable",
      "type": "function"
    },
    {
      "inputs": [
        {
          "internalType": "address",
          "name": "_rates",
          "type": "address"
        }
      ],
      "name": "upgradeRates",
      "outputs": [],
      "stateMutability": "nonpayable",
      "type": "function"
    },
    {
      "inputs": [
        {
          "internalType": "address",
          "name": "_rewards",
          "type": "address"
        }
      ],
      "name": "upgradeRewards",
      "outputs": [],
      "stateMutability": "nonpayable",
      "type": "function"
    },
    {
      "inputs": [
        {
          "internalType": "address",
          "name": "_settlement",
          "type": "address"
        }
      ],
      "name": "upgradeSettlement",
      "outputs": [],
      "stateMutability": "nonpayable",
      "type": "function"
    },
    {
      "inputs": [
        {
          "internalType": "bytes4",
          "name": "",
          "type": "bytes4"
        }
      ],
      "name": "validUpdate",
      "outputs": [
        {
          "internalType": "bool",
          "name": "",
          "type": "bool"
        }
      ],
      "stateMutability": "view",
      "type": "function"
    }
  ],
  "bytecode": "0x60c06040526706f05b59d3b20000600160006101000a81548167ffffffffffffffff021916908367ffffffffffffffff1602179055507fffffffffffffffffffffffffffffffffffffffffffffffffffffffffffffffff601760005090905560016019600050909055691fc3842bd1f071c00000601c600050909055348015620000895760006000fd5b505b5b620151805b600181620000a46200039160201b60201c565b620000b0919062000457565b620000bc919062000490565b67ffffffffffffffff1660a08167ffffffffffffffff1660c01b815260080150508067ffffffffffffffff1660808167ffffffffffffffff1660c01b815260080150505b50600160006000508190909055505b60405180604001604052807a03a573c963324b20cc56ca03bbbd35831cb7d9c0000000000000007affffffffffffffffffffffffffffffffffffffffffffffffffffff168152602001600064ffffffffff16815260200150601a60005060008201518160000160006101000a8154817affffffffffffffffffffffffffffffffffffffffffffffffffffff02191690837affffffffffffffffffffffffffffffffffffffffffffffffffffff160217905550602082015181600001601b6101000a81548164ffffffffff021916908364ffffffffff16021790555090505060016015600050600063232948ea60e01b7bffffffffffffffffffffffffffffffffffffffffffffffffffffffff19167bffffffffffffffffffffffffffffffffffffffffffffffffffffffff1916815260200190815260200160002060006101000a81548160ff02191690831515021790555060016015600050600063b8188c8160e01b7bffffffffffffffffffffffffffffffffffffffffffffffffffffffff19167bffffffffffffffffffffffffffffffffffffffffffffffffffffffff1916815260200190815260200160002060006101000a81548160ff02191690831515021790555060016015600050600063b4b6882b60e01b7bffffffffffffffffffffffffffffffffffffffffffffffffffffffff19167bffffffffffffffffffffffffffffffffffffffffffffffffffffffff1916815260200190815260200160002060006101000a81548160ff02191690831515021790555033601660006101000a81548173ffffffffffffffffffffffffffffffffffffffff021916908373ffffffffffffffffffffffffffffffffffffffff1602179055505b620004ce565b6000620003ab42620003b360201b62004a4617909060201c565b905080505b90565b6000680100000000000000008210151562000405576040517f08c379a0000000000000000000000000000000000000000000000000000000008152600401620003fc9062000418565b60405180910390fd5b8190506200040e565b91905056620004cd565b60208152601160208201527f6d6f7265207468616e2036342062697473000000000000000000000000000000604082015260006060820190505b919050565b60006001600160401b038084168015156200048057634e487b7160e01b83526012600452602483fd5b8082851604925050505b92915050565b60006001600160401b03808316818516915081811015620004bf57634e487b7160e01b83526011600452602483fd5b818103925050505b92915050565b5b60805160c01c60a05160c01c616d2b6200052460003960008181613d4701528181614aa6015281816153e3015261545b015260008181613fc301528181614ac70152818161540401526154940152616d2b6000f3fe60806040523480156100115760006000fd5b506004361061039e5760003560e01c806388a4bfb7116101ea578063c4e3a63b11610110578063d5f39488116100ae578063f6fbc1921161007d578063f6fbc19214610a00578063fd43008514610a0a578063fe47727714610a28578063ff26df7214610a465761039e565b8063d5f394881461098a578063e6ce76e3146109a8578063e97a99b6146109c6578063f00000ee146109e25761039e565b8063d2ca2115116100ea578063d2ca211514610912578063d33219b414610930578063d3419bf31461094e578063d478b0871461096c5761039e565b8063c4e3a63b146108cc578063ce499682146108ea578063d0d8ab9a146109085761039e565b8063a43c36af11610188578063b8188c8111610157578063b8188c811461085a578063b971dc0514610876578063bb0971b714610892578063bf86d690146108ae5761039e565b8063a43c36af146107e6578063a5d4198b14610802578063a89f51ae14610820578063b4b6882b1461083e5761039e565b80639624e83e116101c45780639624e83e146107705780639a371c841461078e5780639ec5a894146107ac578063a1c1f90d146107ca5761039e565b806388a4bfb71461071c5780638f40b82f146107385780639622cd8f146107545761039e565b806349dfaa1c116102cf5780636c1323a81161026d57806380b5c6651161023c57806380b5c665146106a857806380f55605146106c457806383208f53146106e257806385aa6103146106fe5761039e565b80636c1323a814610635578063734875a8146106545780637c114fed1461067057806380304d091461068c5761039e565b80634d6729f5116102a95780634d6729f5146105c157806351160630146105dd57806358569081146105fb578063628c84b5146106195761039e565b806349dfaa1c146105695780634b414e32146105875780634cd7a315146105a55761039e565b8063232948ea1161033c57806333daf5d41161031657806333daf5d4146104cc57806336fc02f4146104fd5780633f88b0c51461051b57806343f48fbd1461054b5761039e565b8063232948ea146104865780632cae02691461049057806332374174146104ae5761039e565b80630a86f109116103785780630a86f109146103fc578063113cf1ab1461041a57806318c7de171461044a578063216ad0b2146104685761039e565b8063055ad42e146103a457806306040618146103c257806307932987146103e05761039e565b60006000fd5b6103ac610a62565b6040516103b99190616a56565b60405180910390f35b6103ca610b10565b6040516103d79190616a3a565b60405180910390f35b6103fa60048036038101906103f59190615bd1565b610b28565b005b610404610c83565b6040516104119190616a3a565b60405180910390f35b610434600480360381019061042f9190615c2f565b610c9d565b6040516104419190616302565b60405180910390f35b610452610cc2565b60405161045f9190616a28565b60405180910390f35b610470610d28565b60405161047d9190616a3a565b60405180910390f35b61048e610d42565b005b610498610df7565b6040516104a591906163db565b60405180910390f35b6104b6610e1d565b6040516104c391906163b3565b60405180910390f35b6104e660048036038101906104e19190615b2a565b610e43565b6040516104f4929190616316565b60405180910390f35b610505611088565b6040516105129190616543565b60405180910390f35b61053560048036038101906105309190615a7d565b6110ae565b6040516105429190616a28565b60405180910390f35b6105536110c9565b60405161056091906164cb565b60405180910390f35b6105716110ef565b60405161057e9190616a28565b60405180910390f35b61058f6110f8565b60405161059c919061638b565b60405180910390f35b6105bf60048036038101906105ba9190615bd1565b61111e565b005b6105db60048036038101906105d69190615bd1565b611329565b005b6105e561145b565b6040516105f2919061651b565b60405180910390f35b610603611481565b6040516106109190616a3a565b60405180910390f35b610633600480360381019061062e9190615a7d565b61149b565b005b61063d611556565b60405161064b9291906169eb565b60405180910390f35b61066e60048036038101906106699190615a7d565b6115a3565b005b61068a60048036038101906106859190615a7d565b61165e565b005b6106a660048036038101906106a19190615a7d565b611771565b005b6106c260048036038101906106bd9190615a7d565b611b79565b005b6106cc611d58565b6040516106d9919061642b565b60405180910390f35b6106fc60048036038101906106f79190615a7d565b611d7e565b005b6107066120d5565b6040516107139190616363565b60405180910390f35b61073660048036038101906107319190615ee1565b6120fb565b005b610752600480360381019061074d9190615a7d565b612305565b005b61076e60048036038101906107699190615a7d565b61265c565b005b610778612717565b604051610785919061633b565b60405180910390f35b61079661273d565b6040516107a39190616403565b60405180910390f35b6107b4612763565b6040516107c191906164f3565b60405180910390f35b6107e460048036038101906107df9190615a7d565b612789565b005b61080060048036038101906107fb9190615aa4565b612ae0565b005b61080a612b77565b6040516108179190616a28565b60405180910390f35b610828612bc3565b6040516108359190616453565b60405180910390f35b61085860048036038101906108539190615f19565b612be9565b005b610874600480360381019061086f9190615f19565b612cdc565b005b610890600480360381019061088b9190615a7d565b612ed3565b005b6108ac60048036038101906108a79190615ec5565b61322a565b005b6108b6613d15565b6040516108c39190616302565b60405180910390f35b6108d4613d45565b6040516108e19190616a3a565b60405180910390f35b6108f2613d69565b6040516108ff9190616302565b60405180910390f35b610910613f01565b005b61091a613fc1565b6040516109279190616a3a565b60405180910390f35b610938613fe5565b604051610945919061618a565b60405180910390f35b61095661400b565b604051610963919061647b565b60405180910390f35b610974614031565b60405161098191906164a3565b60405180910390f35b610992614057565b60405161099f919061618a565b60405180910390f35b6109b061407d565b6040516109bd9190616a28565b60405180910390f35b6109e060048036038101906109db9190615a7d565b614086565b005b6109ea614499565b6040516109f7919061656b565b60405180910390f35b610a086144bf565b005b610a126146bd565b604051610a1f919061618a565b60405180910390f35b610a306146e3565b604051610a3d9190616a28565b60405180910390f35b610a606004803603810190610a5b9190615a7d565b6146ef565b005b6000600960009054906101000a900473ffffffffffffffffffffffffffffffffffffffff1673ffffffffffffffffffffffffffffffffffffffff1663055ad42e6040518163ffffffff1660e01b815260040160206040518083038186803b158015610acd5760006000fd5b505afa158015610ae2573d600060003e3d6000fd5b505050506040513d601f19601f82011682018060405250810190610b069190615f4e565b9050610b0d565b90565b6000610b20614aa263ffffffff16565b905080505b90565b600260006000505414151515610b73576040517f08c379a0000000000000000000000000000000000000000000000000000000008152600401610b6a9061692e565b60405180910390fd5b60026000600050819090905550610bdf601360009054906101000a900473ffffffffffffffffffffffffffffffffffffffff1673ffffffffffffffffffffffffffffffffffffffff163373ffffffffffffffffffffffffffffffffffffffff1614614b1063ffffffff16565b600660009054906101000a900473ffffffffffffffffffffffffffffffffffffffff1673ffffffffffffffffffffffffffffffffffffffff1663449a52f883836040518363ffffffff1660e01b8152600401610c3c9291906162d3565b600060405180830381600087803b158015610c575760006000fd5b505af1158015610c6c573d600060003e3d6000fd5b505050505b600160006000508190909055505b5050565b600160009054906101000a900467ffffffffffffffff1681565b601560005060205280600052604060002060009150909054906101000a900460ff1681565b6000610d1e610d02600160009054906101000a900467ffffffffffffffff1667ffffffffffffffff16670de0b6b3a7640000614b5690919063ffffffff16565b610d10614b7163ffffffff16565b614f0690919063ffffffff16565b9050610d25565b90565b601b60009054906101000a900467ffffffffffffffff1681565b600260006000505414151515610d8d576040517f08c379a0000000000000000000000000000000000000000000000000000000008152600401610d849061692e565b60405180910390fd5b60026000600050819090905550610dd73073ffffffffffffffffffffffffffffffffffffffff163373ffffffffffffffffffffffffffffffffffffffff1614614b1063ffffffff16565b610de5614f2c63ffffffff16565b5b5b600160006000508190909055505b565b600a60009054906101000a900473ffffffffffffffffffffffffffffffffffffffff1681565b600760009054906101000a900473ffffffffffffffffffffffffffffffffffffffff1681565b600060606001601960005054141515610e91576040517f08c379a0000000000000000000000000000000000000000000000000000000008152600401610e88906168ef565b60405180910390fd5b60006019600050819090905550610efd601260009054906101000a900473ffffffffffffffffffffffffffffffffffffffff1673ffffffffffffffffffffffffffffffffffffffff163373ffffffffffffffffffffffffffffffffffffffff1614614b1063ffffffff16565b600960009054906101000a900473ffffffffffffffffffffffffffffffffffffffff1673ffffffffffffffffffffffffffffffffffffffff1663a43c36af86866040518363ffffffff1660e01b8152600401610f5a929190616259565b60006040518083038186803b158015610f735760006000fd5b505afa158015610f88573d600060003e3d6000fd5b505050508473ffffffffffffffffffffffffffffffffffffffff16610fb2856150fe63ffffffff16565b84604051602001610fc4929190615fc9565b604051602081830303815290604052604051610fe09190616014565b6000604051808303816000865af19150503d806000811461101d576040519150601f19603f3d011682016040523d82523d6000602084013e611022565b606091505b5080925081935050508181901515611070576040517f08c379a00000000000000000000000000000000000000000000000000000000081526004016110679190616593565b60405180910390fd5b505b600160196000508190909055505b935093915050565b600660009054906101000a900473ffffffffffffffffffffffffffffffffffffffff1681565b60026000506020528060005260406000206000915090505481565b600f60009054906101000a900473ffffffffffffffffffffffffffffffffffffffff1681565b60186000505481565b600960009054906101000a900473ffffffffffffffffffffffffffffffffffffffff1681565b600260006000505414151515611169576040517f08c379a00000000000000000000000000000000000000000000000000000000081526004016111609061692e565b60405180910390fd5b60026000600050819090905550611285600460009054906101000a900473ffffffffffffffffffffffffffffffffffffffff1673ffffffffffffffffffffffffffffffffffffffff163373ffffffffffffffffffffffffffffffffffffffff1614806112225750600f60009054906101000a900473ffffffffffffffffffffffffffffffffffffffff1673ffffffffffffffffffffffffffffffffffffffff163373ffffffffffffffffffffffffffffffffffffffff16145b8061127a5750601460009054906101000a900473ffffffffffffffffffffffffffffffffffffffff1673ffffffffffffffffffffffffffffffffffffffff163373ffffffffffffffffffffffffffffffffffffffff16145b614b1063ffffffff16565b600660009054906101000a900473ffffffffffffffffffffffffffffffffffffffff1673ffffffffffffffffffffffffffffffffffffffff1663449a52f883836040518363ffffffff1660e01b81526004016112e29291906162d3565b600060405180830381600087803b1580156112fd5760006000fd5b505af1158015611312573d600060003e3d6000fd5b505050505b600160006000508190909055505b5050565b600260006000505414151515611374576040517f08c379a000000000000000000000000000000000000000000000000000000000815260040161136b9061692e565b60405180910390fd5b60026000600050819090905550611438600c60009054906101000a900473ffffffffffffffffffffffffffffffffffffffff1673ffffffffffffffffffffffffffffffffffffffff163373ffffffffffffffffffffffffffffffffffffffff16148061142d5750601060009054906101000a900473ffffffffffffffffffffffffffffffffffffffff1673ffffffffffffffffffffffffffffffffffffffff163373ffffffffffffffffffffffffffffffffffffffff16145b614b1063ffffffff16565b611448828261511463ffffffff16565b5b600160006000508190909055505b5050565b601160009054906101000a900473ffffffffffffffffffffffffffffffffffffffff1681565b600160089054906101000a900467ffffffffffffffff1681565b611552600f60009054906101000a900473ffffffffffffffffffffffffffffffffffffffff1673ffffffffffffffffffffffffffffffffffffffff168273ffffffffffffffffffffffffffffffffffffffff1614806115475750601060009054906101000a900473ffffffffffffffffffffffffffffffffffffffff1673ffffffffffffffffffffffffffffffffffffffff168273ffffffffffffffffffffffffffffffffffffffff16145b614b1063ffffffff16565b5b50565b601a6000508060000160009054906101000a90047affffffffffffffffffffffffffffffffffffffffffffffffffffff169080600001601b9054906101000a900464ffffffffff16905082565b61165a600c60009054906101000a900473ffffffffffffffffffffffffffffffffffffffff1673ffffffffffffffffffffffffffffffffffffffff168273ffffffffffffffffffffffffffffffffffffffff16148061164f5750600b60009054906101000a900473ffffffffffffffffffffffffffffffffffffffff1673ffffffffffffffffffffffffffffffffffffffff168273ffffffffffffffffffffffffffffffffffffffff16145b614b1063ffffffff16565b5b50565b61176d600c60009054906101000a900473ffffffffffffffffffffffffffffffffffffffff1673ffffffffffffffffffffffffffffffffffffffff168273ffffffffffffffffffffffffffffffffffffffff16148061170a5750600b60009054906101000a900473ffffffffffffffffffffffffffffffffffffffff1673ffffffffffffffffffffffffffffffffffffffff168273ffffffffffffffffffffffffffffffffffffffff16145b806117625750601160009054906101000a900473ffffffffffffffffffffffffffffffffffffffff1673ffffffffffffffffffffffffffffffffffffffff168273ffffffffffffffffffffffffffffffffffffffff16145b614b1063ffffffff16565b5b50565b6002600060005054141515156117bc576040517f08c379a00000000000000000000000000000000000000000000000000000000081526004016117b39061692e565b60405180910390fd5b600260006000508190909055506118063073ffffffffffffffffffffffffffffffffffffffff163373ffffffffffffffffffffffffffffffffffffffff1614614b1063ffffffff16565b6118158161522c63ffffffff16565b600e60009054906101000a900473ffffffffffffffffffffffffffffffffffffffff1673ffffffffffffffffffffffffffffffffffffffff16634ac8c5ae601060009054906101000a900473ffffffffffffffffffffffffffffffffffffffff166040518263ffffffff1660e01b8152600401611892919061618a565b600060405180830381600087803b1580156118ad5760006000fd5b505af11580156118c2573d600060003e3d6000fd5b50505050601060009054906101000a900473ffffffffffffffffffffffffffffffffffffffff1673ffffffffffffffffffffffffffffffffffffffff166307da68f56040518163ffffffff1660e01b8152600401600060405180830381600087803b1580156119315760006000fd5b505af1158015611946573d600060003e3d6000fd5b5050505080601060006101000a81548173ffffffffffffffffffffffffffffffffffffffff021916908373ffffffffffffffffffffffffffffffffffffffff160217905550600e60009054906101000a900473ffffffffffffffffffffffffffffffffffffffff1673ffffffffffffffffffffffffffffffffffffffff16632c388d5d601060009054906101000a900473ffffffffffffffffffffffffffffffffffffffff166040518263ffffffff1660e01b8152600401611a08919061618a565b600060405180830381600087803b158015611a235760006000fd5b505af1158015611a38573d600060003e3d6000fd5b50505050600360009054906101000a900473ffffffffffffffffffffffffffffffffffffffff1673ffffffffffffffffffffffffffffffffffffffff1663a678f336601060009054906101000a900473ffffffffffffffffffffffffffffffffffffffff166040518263ffffffff1660e01b8152600401611ab9919061618a565b600060405180830381600087803b158015611ad45760006000fd5b505af1158015611ae9573d600060003e3d6000fd5b50505050601060009054906101000a900473ffffffffffffffffffffffffffffffffffffffff1673ffffffffffffffffffffffffffffffffffffffff16604051611b3290616033565b60405180910390207f2b51ff7c4cc8e6fe1c72e9d9685b7d2a88a5d82ad3a644afbdceb0272c89c1c360405160405180910390a35b5b600160006000508190909055505b50565b600260006000505414151515611bc4576040517f08c379a0000000000000000000000000000000000000000000000000000000008152600401611bbb9061692e565b60405180910390fd5b60026000600050819090905550611c0e3073ffffffffffffffffffffffffffffffffffffffff163373ffffffffffffffffffffffffffffffffffffffff1614614b1063ffffffff16565b6000600160089054906101000a900467ffffffffffffffff1667ffffffffffffffff16111515611c73576040517f08c379a0000000000000000000000000000000000000000000000000000000008152600401611c6a9061680c565b60405180910390fd5b600660009054906101000a900473ffffffffffffffffffffffffffffffffffffffff1673ffffffffffffffffffffffffffffffffffffffff16633c4a25d0826040518263ffffffff1660e01b8152600401611cce919061618a565b600060405180830381600087803b158015611ce95760006000fd5b505af1158015611cfe573d600060003e3d6000fd5b505050508073ffffffffffffffffffffffffffffffffffffffff167f078ca541eec5b410213fc65330fc5a7324eb56fe692344e7bc1b8be56bd3c16960405160405180910390a25b5b600160006000508190909055505b50565b600c60009054906101000a900473ffffffffffffffffffffffffffffffffffffffff1681565b600260006000505414151515611dc9576040517f08c379a0000000000000000000000000000000000000000000000000000000008152600401611dc09061692e565b60405180910390fd5b60026000600050819090905550611e133073ffffffffffffffffffffffffffffffffffffffff163373ffffffffffffffffffffffffffffffffffffffff1614614b1063ffffffff16565b611e228161522c63ffffffff16565b600e60009054906101000a900473ffffffffffffffffffffffffffffffffffffffff1673ffffffffffffffffffffffffffffffffffffffff16634ac8c5ae600d60009054906101000a900473ffffffffffffffffffffffffffffffffffffffff166040518263ffffffff1660e01b8152600401611e9f919061618a565b600060405180830381600087803b158015611eba5760006000fd5b505af1158015611ecf573d600060003e3d6000fd5b50505050600d60009054906101000a900473ffffffffffffffffffffffffffffffffffffffff1673ffffffffffffffffffffffffffffffffffffffff166307da68f56040518163ffffffff1660e01b8152600401600060405180830381600087803b158015611f3e5760006000fd5b505af1158015611f53573d600060003e3d6000fd5b5050505080600d60006101000a81548173ffffffffffffffffffffffffffffffffffffffff021916908373ffffffffffffffffffffffffffffffffffffffff160217905550600e60009054906101000a900473ffffffffffffffffffffffffffffffffffffffff1673ffffffffffffffffffffffffffffffffffffffff16632c388d5d600d60009054906101000a900473ffffffffffffffffffffffffffffffffffffffff166040518263ffffffff1660e01b8152600401612015919061618a565b600060405180830381600087803b1580156120305760006000fd5b505af1158015612045573d600060003e3d6000fd5b50505050600d60009054906101000a900473ffffffffffffffffffffffffffffffffffffffff1673ffffffffffffffffffffffffffffffffffffffff1660405161208e90616159565b60405180910390207f2b51ff7c4cc8e6fe1c72e9d9685b7d2a88a5d82ad3a644afbdceb0272c89c1c360405160405180910390a35b5b600160006000508190909055505b50565b600460009054906101000a900473ffffffffffffffffffffffffffffffffffffffff1681565b600260006000505414151515612146576040517f08c379a000000000000000000000000000000000000000000000000000000000815260040161213d9061692e565b60405180910390fd5b60026000600050819090905550600033905060008211151561219d576040517f08c379a000000000000000000000000000000000000000000000000000000000815260040161219490616653565b60405180910390fd5b6121f582600260005060008473ffffffffffffffffffffffffffffffffffffffff1673ffffffffffffffffffffffffffffffffffffffff1681526020019081526020016000206000505461528090919063ffffffff16565b600260005060008373ffffffffffffffffffffffffffffffffffffffff1673ffffffffffffffffffffffffffffffffffffffff168152602001908152602001600020600050819090905550612296600660009054906101000a900473ffffffffffffffffffffffffffffffffffffffff1682600960009054906101000a900473ffffffffffffffffffffffffffffffffffffffff168561529b63ffffffff16565b6122a461532b63ffffffff16565b8073ffffffffffffffffffffffffffffffffffffffff167f6f076ad9d1927fd5f792070276b90549d2433311ff94fe0d7afba682c150817a836040516122ea9190616a28565b60405180910390a2505b600160006000508190909055505b50565b600260006000505414151515612350576040517f08c379a00000000000000000000000000000000000000000000000000000000081526004016123479061692e565b60405180910390fd5b6002600060005081909090555061239a3073ffffffffffffffffffffffffffffffffffffffff163373ffffffffffffffffffffffffffffffffffffffff1614614b1063ffffffff16565b6123a98161522c63ffffffff16565b600e60009054906101000a900473ffffffffffffffffffffffffffffffffffffffff1673ffffffffffffffffffffffffffffffffffffffff16634ac8c5ae601160009054906101000a900473ffffffffffffffffffffffffffffffffffffffff166040518263ffffffff1660e01b8152600401612426919061618a565b600060405180830381600087803b1580156124415760006000fd5b505af1158015612456573d600060003e3d6000fd5b50505050601160009054906101000a900473ffffffffffffffffffffffffffffffffffffffff1673ffffffffffffffffffffffffffffffffffffffff166307da68f56040518163ffffffff1660e01b8152600401600060405180830381600087803b1580156124c55760006000fd5b505af11580156124da573d600060003e3d6000fd5b5050505080601160006101000a81548173ffffffffffffffffffffffffffffffffffffffff021916908373ffffffffffffffffffffffffffffffffffffffff160217905550600e60009054906101000a900473ffffffffffffffffffffffffffffffffffffffff1673ffffffffffffffffffffffffffffffffffffffff16632c388d5d601160009054906101000a900473ffffffffffffffffffffffffffffffffffffffff166040518263ffffffff1660e01b815260040161259c919061618a565b600060405180830381600087803b1580156125b75760006000fd5b505af11580156125cc573d600060003e3d6000fd5b50505050601160009054906101000a900473ffffffffffffffffffffffffffffffffffffffff1673ffffffffffffffffffffffffffffffffffffffff1660405161261590616095565b60405180910390207f2b51ff7c4cc8e6fe1c72e9d9685b7d2a88a5d82ad3a644afbdceb0272c89c1c360405160405180910390a35b5b600160006000508190909055505b50565b612713600b60009054906101000a900473ffffffffffffffffffffffffffffffffffffffff1673ffffffffffffffffffffffffffffffffffffffff168273ffffffffffffffffffffffffffffffffffffffff1614806127085750601160009054906101000a900473ffffffffffffffffffffffffffffffffffffffff1673ffffffffffffffffffffffffffffffffffffffff168273ffffffffffffffffffffffffffffffffffffffff16145b614b1063ffffffff16565b5b50565b600360009054906101000a900473ffffffffffffffffffffffffffffffffffffffff1681565b600b60009054906101000a900473ffffffffffffffffffffffffffffffffffffffff1681565b601060009054906101000a900473ffffffffffffffffffffffffffffffffffffffff1681565b6002600060005054141515156127d4576040517f08c379a00000000000000000000000000000000000000000000000000000000081526004016127cb9061692e565b60405180910390fd5b6002600060005081909090555061281e3073ffffffffffffffffffffffffffffffffffffffff163373ffffffffffffffffffffffffffffffffffffffff1614614b1063ffffffff16565b61282d8161522c63ffffffff16565b600e60009054906101000a900473ffffffffffffffffffffffffffffffffffffffff1673ffffffffffffffffffffffffffffffffffffffff16634ac8c5ae600f60009054906101000a900473ffffffffffffffffffffffffffffffffffffffff166040518263ffffffff1660e01b81526004016128aa919061618a565b600060405180830381600087803b1580156128c55760006000fd5b505af11580156128da573d600060003e3d6000fd5b50505050600f60009054906101000a900473ffffffffffffffffffffffffffffffffffffffff1673ffffffffffffffffffffffffffffffffffffffff166307da68f56040518163ffffffff1660e01b8152600401600060405180830381600087803b1580156129495760006000fd5b505af115801561295e573d600060003e3d6000fd5b5050505080600f60006101000a81548173ffffffffffffffffffffffffffffffffffffffff021916908373ffffffffffffffffffffffffffffffffffffffff160217905550600e60009054906101000a900473ffffffffffffffffffffffffffffffffffffffff1673ffffffffffffffffffffffffffffffffffffffff16632c388d5d600f60009054906101000a900473ffffffffffffffffffffffffffffffffffffffff166040518263ffffffff1660e01b8152600401612a20919061618a565b600060405180830381600087803b158015612a3b5760006000fd5b505af1158015612a50573d600060003e3d6000fd5b50505050600f60009054906101000a900473ffffffffffffffffffffffffffffffffffffffff1673ffffffffffffffffffffffffffffffffffffffff16604051612a9990616064565b60405180910390207f2b51ff7c4cc8e6fe1c72e9d9685b7d2a88a5d82ad3a644afbdceb0272c89c1c360405160405180910390a35b5b600160006000508190909055505b50565b600960009054906101000a900473ffffffffffffffffffffffffffffffffffffffff1673ffffffffffffffffffffffffffffffffffffffff1663a43c36af8484846040518463ffffffff1660e01b8152600401612b3f939291906161ec565b60006040518083038186803b158015612b585760006000fd5b505afa158015612b6d573d600060003e3d6000fd5b505050505b505050565b6000612bb9600160009054906101000a900467ffffffffffffffff1667ffffffffffffffff16612bab614b7163ffffffff16565b614f0690919063ffffffff16565b9050612bc0565b90565b600860009054906101000a900473ffffffffffffffffffffffffffffffffffffffff1681565b600260006000505414151515612c34576040517f08c379a0000000000000000000000000000000000000000000000000000000008152600401612c2b9061692e565b60405180910390fd5b60026000600050819090905550612c7e3073ffffffffffffffffffffffffffffffffffffffff163373ffffffffffffffffffffffffffffffffffffffff1614614b1063ffffffff16565b670de0b6b3a76400008167ffffffffffffffff1611151515612ca05760006000fd5b80600160006101000a81548167ffffffffffffffff021916908367ffffffffffffffff1602179055505b5b600160006000508190909055505b50565b600260006000505414151515612d27576040517f08c379a0000000000000000000000000000000000000000000000000000000008152600401612d1e9061692e565b60405180910390fd5b60026000600050819090905550612d713073ffffffffffffffffffffffffffffffffffffffff163373ffffffffffffffffffffffffffffffffffffffff1614614b1063ffffffff16565b6000601b60009054906101000a900467ffffffffffffffff1667ffffffffffffffff16141515612dd6576040517f08c379a0000000000000000000000000000000000000000000000000000000008152600401612dcd90616692565b60405180910390fd5b612de5816153dc63ffffffff16565b601b60006101000a81548167ffffffffffffffff021916908367ffffffffffffffff160217905550600960009054906101000a900473ffffffffffffffffffffffffffffffffffffffff1673ffffffffffffffffffffffffffffffffffffffff1663b8188c81612e70601b60009054906101000a900467ffffffffffffffff1661545063ffffffff16565b6040518263ffffffff1660e01b8152600401612e8c9190616a3a565b600060405180830381600087803b158015612ea75760006000fd5b505af1158015612ebc573d600060003e3d6000fd5b505050505b5b600160006000508190909055505b50565b600260006000505414151515612f1e576040517f08c379a0000000000000000000000000000000000000000000000000000000008152600401612f159061692e565b60405180910390fd5b60026000600050819090905550612f683073ffffffffffffffffffffffffffffffffffffffff163373ffffffffffffffffffffffffffffffffffffffff1614614b1063ffffffff16565b612f778161522c63ffffffff16565b600e60009054906101000a900473ffffffffffffffffffffffffffffffffffffffff1673ffffffffffffffffffffffffffffffffffffffff16634ac8c5ae600b60009054906101000a900473ffffffffffffffffffffffffffffffffffffffff166040518263ffffffff1660e01b8152600401612ff4919061618a565b600060405180830381600087803b15801561300f5760006000fd5b505af1158015613024573d600060003e3d6000fd5b50505050600b60009054906101000a900473ffffffffffffffffffffffffffffffffffffffff1673ffffffffffffffffffffffffffffffffffffffff166307da68f56040518163ffffffff1660e01b8152600401600060405180830381600087803b1580156130935760006000fd5b505af11580156130a8573d600060003e3d6000fd5b5050505080600b60006101000a81548173ffffffffffffffffffffffffffffffffffffffff021916908373ffffffffffffffffffffffffffffffffffffffff160217905550600e60009054906101000a900473ffffffffffffffffffffffffffffffffffffffff1673ffffffffffffffffffffffffffffffffffffffff16632c388d5d600b60009054906101000a900473ffffffffffffffffffffffffffffffffffffffff166040518263ffffffff1660e01b815260040161316a919061618a565b600060405180830381600087803b1580156131855760006000fd5b505af115801561319a573d600060003e3d6000fd5b50505050600b60009054906101000a900473ffffffffffffffffffffffffffffffffffffffff1673ffffffffffffffffffffffffffffffffffffffff166040516131e390616128565b60405180910390207f2b51ff7c4cc8e6fe1c72e9d9685b7d2a88a5d82ad3a644afbdceb0272c89c1c360405160405180910390a35b5b600160006000508190909055505b50565b613289601660009054906101000a900473ffffffffffffffffffffffffffffffffffffffff1673ffffffffffffffffffffffffffffffffffffffff163373ffffffffffffffffffffffffffffffffffffffff1614614b1063ffffffff16565b601660006101000a81549073ffffffffffffffffffffffffffffffffffffffff02191690558060000160208101906132c19190615c7c565b600360006101000a81548173ffffffffffffffffffffffffffffffffffffffff021916908373ffffffffffffffffffffffffffffffffffffffff1602179055508060200160208101906133149190615ca3565b600460006101000a81548173ffffffffffffffffffffffffffffffffffffffff021916908373ffffffffffffffffffffffffffffffffffffffff1602179055508060400160208101906133679190615cca565b600960006101000a81548173ffffffffffffffffffffffffffffffffffffffff021916908373ffffffffffffffffffffffffffffffffffffffff1602179055508060600160208101906133ba9190615a7d565b601360006101000a81548173ffffffffffffffffffffffffffffffffffffffff021916908373ffffffffffffffffffffffffffffffffffffffff16021790555080608001602081019061340d9190615cf1565b600760006101000a81548173ffffffffffffffffffffffffffffffffffffffff021916908373ffffffffffffffffffffffffffffffffffffffff1602179055508060a00160208101906134609190615d8d565b600860006101000a81548173ffffffffffffffffffffffffffffffffffffffff021916908373ffffffffffffffffffffffffffffffffffffffff1602179055508060c00160208101906134b39190615d18565b600a60006101000a81548173ffffffffffffffffffffffffffffffffffffffff021916908373ffffffffffffffffffffffffffffffffffffffff1602179055508060e00160208101906135069190615d3f565b600b60006101000a81548173ffffffffffffffffffffffffffffffffffffffff021916908373ffffffffffffffffffffffffffffffffffffffff1602179055508061010001602081019061355a9190615d66565b600c60006101000a81548173ffffffffffffffffffffffffffffffffffffffff021916908373ffffffffffffffffffffffffffffffffffffffff160217905550806101200160208101906135ae9190615db4565b600d60006101000a81548173ffffffffffffffffffffffffffffffffffffffff021916908373ffffffffffffffffffffffffffffffffffffffff160217905550806101400160208101906136029190615ddb565b600e60006101000a81548173ffffffffffffffffffffffffffffffffffffffff021916908373ffffffffffffffffffffffffffffffffffffffff160217905550806101600160208101906136569190615e02565b600f60006101000a81548173ffffffffffffffffffffffffffffffffffffffff021916908373ffffffffffffffffffffffffffffffffffffffff160217905550806101800160208101906136aa9190615e29565b601060006101000a81548173ffffffffffffffffffffffffffffffffffffffff021916908373ffffffffffffffffffffffffffffffffffffffff160217905550806101a00160208101906136fe9190615e50565b601160006101000a81548173ffffffffffffffffffffffffffffffffffffffff021916908373ffffffffffffffffffffffffffffffffffffffff160217905550806101c00160208101906137529190615e77565b600660006101000a81548173ffffffffffffffffffffffffffffffffffffffff021916908373ffffffffffffffffffffffffffffffffffffffff160217905550806101e00160208101906137a69190615a7d565b601260006101000a81548173ffffffffffffffffffffffffffffffffffffffff021916908373ffffffffffffffffffffffffffffffffffffffff160217905550806102000160208101906137fa9190615e9e565b601460006101000a81548173ffffffffffffffffffffffffffffffffffffffff021916908373ffffffffffffffffffffffffffffffffffffffff160217905550600e60009054906101000a900473ffffffffffffffffffffffffffffffffffffffff1673ffffffffffffffffffffffffffffffffffffffff16632c388d5d600460009054906101000a900473ffffffffffffffffffffffffffffffffffffffff166040518263ffffffff1660e01b81526004016138b7919061618a565b600060405180830381600087803b1580156138d25760006000fd5b505af11580156138e7573d600060003e3d6000fd5b50505050600e60009054906101000a900473ffffffffffffffffffffffffffffffffffffffff1673ffffffffffffffffffffffffffffffffffffffff16632c388d5d600960009054906101000a900473ffffffffffffffffffffffffffffffffffffffff166040518263ffffffff1660e01b8152600401613968919061618a565b600060405180830381600087803b1580156139835760006000fd5b505af1158015613998573d600060003e3d6000fd5b50505050600e60009054906101000a900473ffffffffffffffffffffffffffffffffffffffff1673ffffffffffffffffffffffffffffffffffffffff16632c388d5d600b60009054906101000a900473ffffffffffffffffffffffffffffffffffffffff166040518263ffffffff1660e01b8152600401613a19919061618a565b600060405180830381600087803b158015613a345760006000fd5b505af1158015613a49573d600060003e3d6000fd5b50505050600e60009054906101000a900473ffffffffffffffffffffffffffffffffffffffff1673ffffffffffffffffffffffffffffffffffffffff16632c388d5d600c60009054906101000a900473ffffffffffffffffffffffffffffffffffffffff166040518263ffffffff1660e01b8152600401613aca919061618a565b600060405180830381600087803b158015613ae55760006000fd5b505af1158015613afa573d600060003e3d6000fd5b50505050600e60009054906101000a900473ffffffffffffffffffffffffffffffffffffffff1673ffffffffffffffffffffffffffffffffffffffff16632c388d5d600f60009054906101000a900473ffffffffffffffffffffffffffffffffffffffff166040518263ffffffff1660e01b8152600401613b7b919061618a565b600060405180830381600087803b158015613b965760006000fd5b505af1158015613bab573d600060003e3d6000fd5b50505050600e60009054906101000a900473ffffffffffffffffffffffffffffffffffffffff1673ffffffffffffffffffffffffffffffffffffffff16632c388d5d601060009054906101000a900473ffffffffffffffffffffffffffffffffffffffff166040518263ffffffff1660e01b8152600401613c2c919061618a565b600060405180830381600087803b158015613c475760006000fd5b505af1158015613c5c573d600060003e3d6000fd5b50505050600e60009054906101000a900473ffffffffffffffffffffffffffffffffffffffff1673ffffffffffffffffffffffffffffffffffffffff16632c388d5d601160009054906101000a900473ffffffffffffffffffffffffffffffffffffffff166040518263ffffffff1660e01b8152600401613cdd919061618a565b600060405180830381600087803b158015613cf85760006000fd5b505af1158015613d0d573d600060003e3d6000fd5b505050505b50565b60006000600160089054906101000a900467ffffffffffffffff1667ffffffffffffffff16119050613d42565b90565b7f000000000000000000000000000000000000000000000000000000000000000081565b6000613e276703782dace9d90000600660009054906101000a900473ffffffffffffffffffffffffffffffffffffffff1673ffffffffffffffffffffffffffffffffffffffff166318160ddd6040518163ffffffff1660e01b815260040160206040518083038186803b158015613de05760006000fd5b505afa158015613df5573d600060003e3d6000fd5b505050506040513d601f19601f82011682018060405250810190613e199190615efd565b614f0690919063ffffffff16565b600660009054906101000a900473ffffffffffffffffffffffffffffffffffffffff1673ffffffffffffffffffffffffffffffffffffffff166370a08231600960009054906101000a900473ffffffffffffffffffffffffffffffffffffffff166040518263ffffffff1660e01b8152600401613ea4919061618a565b60206040518083038186803b158015613ebd5760006000fd5b505afa158015613ed2573d600060003e3d6000fd5b505050506040513d601f19601f82011682018060405250810190613ef69190615efd565b119050613efe565b90565b600260006000505414151515613f4c576040517f08c379a0000000000000000000000000000000000000000000000000000000008152600401613f439061692e565b60405180910390fd5b6002600060005081909090555043601760005054101515613fa2576040517f08c379a0000000000000000000000000000000000000000000000000000000008152600401613f99906166d1565b60405180910390fd5b613fb0614f2c63ffffffff16565b5b600160006000508190909055505b565b7f000000000000000000000000000000000000000000000000000000000000000081565b601260009054906101000a900473ffffffffffffffffffffffffffffffffffffffff1681565b600d60009054906101000a900473ffffffffffffffffffffffffffffffffffffffff1681565b600e60009054906101000a900473ffffffffffffffffffffffffffffffffffffffff1681565b601660009054906101000a900473ffffffffffffffffffffffffffffffffffffffff1681565b601c6000505481565b6002600060005054141515156140d1576040517f08c379a00000000000000000000000000000000000000000000000000000000081526004016140c89061692e565b60405180910390fd5b6002600060005081909090555061411b3073ffffffffffffffffffffffffffffffffffffffff163373ffffffffffffffffffffffffffffffffffffffff1614614b1063ffffffff16565b61412a8161522c63ffffffff16565b600073ffffffffffffffffffffffffffffffffffffffff16600560009054906101000a900473ffffffffffffffffffffffffffffffffffffffff1673ffffffffffffffffffffffffffffffffffffffff161415156142b857600e60009054906101000a900473ffffffffffffffffffffffffffffffffffffffff1673ffffffffffffffffffffffffffffffffffffffff16634ac8c5ae600560009054906101000a900473ffffffffffffffffffffffffffffffffffffffff166040518263ffffffff1660e01b81526004016141ff919061618a565b600060405180830381600087803b15801561421a5760006000fd5b505af115801561422f573d600060003e3d6000fd5b50505050600560009054906101000a900473ffffffffffffffffffffffffffffffffffffffff1673ffffffffffffffffffffffffffffffffffffffff166307da68f56040518163ffffffff1660e01b8152600401600060405180830381600087803b15801561429e5760006000fd5b505af11580156142b3573d600060003e3d6000fd5b505050505b600460009054906101000a900473ffffffffffffffffffffffffffffffffffffffff16600560006101000a81548173ffffffffffffffffffffffffffffffffffffffff021916908373ffffffffffffffffffffffffffffffffffffffff16021790555080600460006101000a81548173ffffffffffffffffffffffffffffffffffffffff021916908373ffffffffffffffffffffffffffffffffffffffff160217905550600e60009054906101000a900473ffffffffffffffffffffffffffffffffffffffff1673ffffffffffffffffffffffffffffffffffffffff16632c388d5d600460009054906101000a900473ffffffffffffffffffffffffffffffffffffffff166040518263ffffffff1660e01b81526004016143d9919061618a565b600060405180830381600087803b1580156143f45760006000fd5b505af1158015614409573d600060003e3d6000fd5b50505050600460009054906101000a900473ffffffffffffffffffffffffffffffffffffffff1673ffffffffffffffffffffffffffffffffffffffff16604051614452906160f7565b60405180910390207f2b51ff7c4cc8e6fe1c72e9d9685b7d2a88a5d82ad3a644afbdceb0272c89c1c360405160405180910390a35b5b600160006000508190909055505b50565b601460009054906101000a900473ffffffffffffffffffffffffffffffffffffffff1681565b60026000600050541415151561450a576040517f08c379a00000000000000000000000000000000000000000000000000000000081526004016145019061692e565b60405180910390fd5b6002600060005081909090555060003390506000600260005060008373ffffffffffffffffffffffffffffffffffffffff1673ffffffffffffffffffffffffffffffffffffffff1681526020019081526020016000206000505490506000811115156145ab576040517f08c379a00000000000000000000000000000000000000000000000000000000081526004016145a290616653565b60405180910390fd5b6000600260005060008473ffffffffffffffffffffffffffffffffffffffff1673ffffffffffffffffffffffffffffffffffffffff16815260200190815260200160002060005081909090555061464e600660009054906101000a900473ffffffffffffffffffffffffffffffffffffffff16600960009054906101000a900473ffffffffffffffffffffffffffffffffffffffff16848461529b63ffffffff16565b61465c61532b63ffffffff16565b8173ffffffffffffffffffffffffffffffffffffffff167fbfaf8d2920f9287ed71a7e47234c2043522ae8ffd246577b929897e0f2b3c075826040516146a29190616a28565b60405180910390a250505b600160006000508190909055505b565b601360009054906101000a900473ffffffffffffffffffffffffffffffffffffffff1681565b6703782dace9d9000081565b60026000600050541415151561473a576040517f08c379a00000000000000000000000000000000000000000000000000000000081526004016147319061692e565b60405180910390fd5b600260006000508190909055506147843073ffffffffffffffffffffffffffffffffffffffff163373ffffffffffffffffffffffffffffffffffffffff1614614b1063ffffffff16565b6147938161522c63ffffffff16565b600e60009054906101000a900473ffffffffffffffffffffffffffffffffffffffff1673ffffffffffffffffffffffffffffffffffffffff16634ac8c5ae600c60009054906101000a900473ffffffffffffffffffffffffffffffffffffffff166040518263ffffffff1660e01b8152600401614810919061618a565b600060405180830381600087803b15801561482b5760006000fd5b505af1158015614840573d600060003e3d6000fd5b50505050600c60009054906101000a900473ffffffffffffffffffffffffffffffffffffffff1673ffffffffffffffffffffffffffffffffffffffff166307da68f56040518163ffffffff1660e01b8152600401600060405180830381600087803b1580156148af5760006000fd5b505af11580156148c4573d600060003e3d6000fd5b5050505080600c60006101000a81548173ffffffffffffffffffffffffffffffffffffffff021916908373ffffffffffffffffffffffffffffffffffffffff160217905550600e60009054906101000a900473ffffffffffffffffffffffffffffffffffffffff1673ffffffffffffffffffffffffffffffffffffffff16632c388d5d600c60009054906101000a900473ffffffffffffffffffffffffffffffffffffffff166040518263ffffffff1660e01b8152600401614986919061618a565b600060405180830381600087803b1580156149a15760006000fd5b505af11580156149b6573d600060003e3d6000fd5b50505050600c60009054906101000a900473ffffffffffffffffffffffffffffffffffffffff1673ffffffffffffffffffffffffffffffffffffffff166040516149ff906160c6565b60405180910390207f2b51ff7c4cc8e6fe1c72e9d9685b7d2a88a5d82ad3a644afbdceb0272c89c1c360405160405180910390a35b5b600160006000508190909055505b50565b60006801000000000000000082101515614a95576040517f08c379a0000000000000000000000000000000000000000000000000000000008152600401614a8c906168b0565b60405180910390fd5b819050614a9d565b919050565b60007f00000000000000000000000000000000000000000000000000000000000000007f0000000000000000000000000000000000000000000000000000000000000000614af46154d563ffffffff16565b614afe9190616b4d565b614b089190616bd1565b905080505b90565b801515614b52576040517f08c379a0000000000000000000000000000000000000000000000000000000008152600401614b4990616614565b60405180910390fd5b5b50565b60008183614b649190616bb2565b9050614b6b565b92915050565b60006000614b83614aa263ffffffff16565b90506000601b60009054906101000a900467ffffffffffffffff1667ffffffffffffffff161480614bdd5750601b60009054906101000a900467ffffffffffffffff1667ffffffffffffffff168167ffffffffffffffff16105b80614c0857506000600160089054906101000a900467ffffffffffffffff1667ffffffffffffffff16115b15614c17576000915050614f03565b6000601b60009054906101000a900467ffffffffffffffff1682614c3b9190616bd1565b90506000601c6000505490506000601a6000506040518060400160405290816000820160009054906101000a90047affffffffffffffffffffffffffffffffffffffffffffffffffffff167affffffffffffffffffffffffffffffffffffffffffffffffffffff167affffffffffffffffffffffffffffffffffffffffffffffffffffff16815260200160008201601b9054906101000a900464ffffffffff1664ffffffffff1664ffffffffff168152602001505090505b8267ffffffffffffffff16816020015164ffffffffff161015614e23576000614d887f160da66187f438da56184b42849d3aa69a5c64e3666b170000000000000000007f161bcca7119915b50764b4abe86529797775a5f171951000000000000000000084600001517affffffffffffffffffffffffffffffffffffffffffffffffffffff166154f09092919063ffffffff16565b9050614db9701d6329f1c35ca4bfabb9f561000000000082614daa9190616b2f565b8461528090919063ffffffff16565b925082506040518060400160405280614dd983615614909063ffffffff16565b7affffffffffffffffffffffffffffffffffffffffffffffffffffff16815260200160018460200151614e0c9190616a8b565b64ffffffffff168152602001509150815050614cf3565b80601a60005060008201518160000160006101000a8154817affffffffffffffffffffffffffffffffffffffffffffffffffffff02191690837affffffffffffffffffffffffffffffffffffffffffffffffffffff160217905550602082015181600001601b6101000a81548164ffffffffff021916908364ffffffffff16021790555090505081601c600050819090905550701d6329f1c35ca4bfabb9f56100000000008160000151614ed79190616aee565b7affffffffffffffffffffffffffffffffffffffffffffffffffffff16945050505050614f0356505050505b90565b6000614f218383670de0b6b3a76400006154f063ffffffff16565b905080505b92915050565b6000600160089054906101000a900467ffffffffffffffff1667ffffffffffffffff16141515614f91576040517f08c379a0000000000000000000000000000000000000000000000000000000008152600401614f889061678e565b60405180910390fd5b600c60009054906101000a900473ffffffffffffffffffffffffffffffffffffffff1673ffffffffffffffffffffffffffffffffffffffff1663a6afed956040518163ffffffff1660e01b8152600401600060405180830381600087803b158015614ffc5760006000fd5b505af1158015615011573d600060003e3d6000fd5b50505050601060009054906101000a900473ffffffffffffffffffffffffffffffffffffffff1673ffffffffffffffffffffffffffffffffffffffff16631afdbce46040518163ffffffff1660e01b8152600401600060405180830381600087803b1580156150805760006000fd5b505af1158015615095573d600060003e3d6000fd5b505050506150a76154d563ffffffff16565b600160086101000a81548167ffffffffffffffff021916908367ffffffffffffffff1602179055507f5a05a29d5ecece2d4f30720adf1a7449fc1ecb9a884a14629d08d3d2257ab90560405160405180910390a15b565b60008180519060200120905061510f565b919050565b61512c8160186000505461528090919063ffffffff16565b6018600050819090905550601c6000505460186000505411151515615186576040517f08c379a000000000000000000000000000000000000000000000000000000000815260040161517d906169ac565b60405180910390fd5b601460009054906101000a900473ffffffffffffffffffffffffffffffffffffffff1673ffffffffffffffffffffffffffffffffffffffff1663ee5f1ee4836151d684615683909063ffffffff16565b6040518363ffffffff1660e01b81526004016151f3929190616292565b600060405180830381600087803b15801561520e5760006000fd5b505af1158015615223573d600060003e3d6000fd5b505050505b5050565b61523b816156e763ffffffff16565b151561527c576040517f08c379a00000000000000000000000000000000000000000000000000000000081526004016152739061674f565b60405180910390fd5b5b50565b6000818361528e9190616a6b565b9050615295565b92915050565b615324846323b872dd60e01b8585856040516024016152bc939291906161b2565b604051602081830303815290604052907bffffffffffffffffffffffffffffffffffffffffffffffffffffffff19166020820180517bffffffffffffffffffffffffffffffffffffffffffffffffffffffff838183161783525050505061570163ffffffff16565b5b50505050565b615339613d6963ffffffff16565b1561537d577fffffffffffffffffffffffffffffffffffffffffffffffffffffffffffffffff6017600050541415615378574360176000508190909055505b6153d9565b7fffffffffffffffffffffffffffffffffffffffffffffffffffffffffffffffff6017600050541415156153d8577fffffffffffffffffffffffffffffffffffffffffffffffffffffffffffffffff60176000508190909055505b5b5b565b60006154467f00000000000000000000000000000000000000000000000000000000000000007f00000000000000000000000000000000000000000000000000000000000000008461542e9190616b4d565b67ffffffffffffffff166157ce90919063ffffffff16565b905080505b919050565b60006154cb615492837f000000000000000000000000000000000000000000000000000000000000000067ffffffffffffffff166157e990919063ffffffff16565b7f000000000000000000000000000000000000000000000000000000000000000067ffffffffffffffff1661580490919063ffffffff16565b905080505b919050565b60006154e842614a46909063ffffffff16565b905080505b90565b6000600060006000198587098587029250828110838203039150506000811415615533576000841115156155245760006000fd5b8382049250829250505061560d565b80841115156155425760006000fd5b60008486880990508281118203915080830392506000856001877fffffffffffffffffffffffffffffffffffffffffffffffffffffffffffffffff03011690508050808604955080840493506001818260000304019050808302841793508350600060028760030218905080870260020381029050805080870260020381029050805080870260020381029050805080870260020381029050805080870260020381029050805080870260020381029050805080850295508550508494505050505061560d56505050505b9392505050565b60007b0100000000000000000000000000000000000000000000000000000082101515615676576040517f08c379a000000000000000000000000000000000000000000000000000000000815260040161566d9061696d565b60405180910390fd5b81905061567e565b919050565b6000700100000000000000000000000000000000821015156156da576040517f08c379a00000000000000000000000000000000000000000000000000000000081526004016156d190616710565b60405180910390fd5b8190506156e2565b919050565b60006000823b9050600081119150506156fc56505b919050565b6000615766826040518060400160405280602081526020017f5361666545524332303a206c6f772d6c6576656c2063616c6c206661696c65648152602001508573ffffffffffffffffffffffffffffffffffffffff1661581f9092919063ffffffff16565b90506000815111156157c857808060200190518101906157869190615c02565b15156157c7576040517f08c379a00000000000000000000000000000000000000000000000000000000081526004016157be9061684b565b60405180910390fd5b5b505b5050565b600081836157dc9190616bd1565b90506157e3565b92915050565b600081836157f79190616abb565b90506157fe565b92915050565b600081836158129190616b7b565b9050615819565b92915050565b6060615834848460008561584263ffffffff16565b905061583b565b9392505050565b6060824710151515615889576040517f08c379a0000000000000000000000000000000000000000000000000000000008152600401615880906165af565b60405180910390fd5b615898856156e763ffffffff16565b15156158d9576040517f08c379a00000000000000000000000000000000000000000000000000000000081526004016158d0906167cd565b60405180910390fd5b600060008673ffffffffffffffffffffffffffffffffffffffff1685876040516159039190616014565b60006040518083038185875af1925050503d8060008114615940576040519150601f19603f3d011682016040523d82523d6000602084013e615945565b606091505b509150915061595b82828661596e63ffffffff16565b925050506159665650505b949350505050565b60608315615982578290506159d9566159d8565b60008351111561599a5782518084602001fd506159d7565b816040517f08c379a00000000000000000000000000000000000000000000000000000000081526004016159ce9190616593565b60405180910390fd5b5b5b939250505056616cf4565b600067ffffffffffffffff80841115615a00576159ff616c9a565b5b7fffffffffffffffffffffffffffffffffffffffffffffffffffffffffffffffe060405181603f83601f8901160116810191508082108383111715615a4857615a47616c9a565b5b81604052809350858152868686011115615a625760006000fd5b858560208301376000602087830101525050505b9392505050565b600060208284031215615a8e578081fd5b8135615a9981616ccb565b809150505b92915050565b60006000600060408486031215615ab9578182fd5b8335615ac481616ccb565b80935050602084013567ffffffffffffffff80821115615ae2578384fd5b818601915086601f8301121515615af7578384fd5b813581811115615b05578485fd5b876020828501011115615b16578485fd5b6020830194508093505050505b9250925092565b60006000600060608486031215615b3f578283fd5b8335615b4a81616ccb565b80935050602084013567ffffffffffffffff80821115615b68578384fd5b818601915086601f8301121515615b7d578384fd5b615b8c878335602085016159e4565b93506040860135915080821115615ba1578283fd5b50808501905085601f8201121515615bb7578182fd5b615bc6868235602084016159e4565b9150505b9250925092565b6000600060408385031215615be4578182fd5b8235615bef81616ccb565b80925050602083013590505b9250929050565b600060208284031215615c13578081fd5b815180151581141515615c24578182fd5b809150505b92915050565b600060208284031215615c40578081fd5b81357fffffffff00000000000000000000000000000000000000000000000000000000811681141515615c71578182fd5b809150505b92915050565b600060208284031215615c8d578081fd5b8135615c9881616ccb565b809150505b92915050565b600060208284031215615cb4578081fd5b8135615cbf81616ccb565b809150505b92915050565b600060208284031215615cdb578081fd5b8135615ce681616ccb565b809150505b92915050565b600060208284031215615d02578081fd5b8135615d0d81616ccb565b809150505b92915050565b600060208284031215615d29578081fd5b8135615d3481616ccb565b809150505b92915050565b600060208284031215615d50578081fd5b8135615d5b81616ccb565b809150505b92915050565b600060208284031215615d77578081fd5b8135615d8281616ccb565b809150505b92915050565b600060208284031215615d9e578081fd5b8135615da981616ccb565b809150505b92915050565b600060208284031215615dc5578081fd5b8135615dd081616ccb565b809150505b92915050565b600060208284031215615dec578081fd5b8135615df781616ccb565b809150505b92915050565b600060208284031215615e13578081fd5b8135615e1e81616ccb565b809150505b92915050565b600060208284031215615e3a578081fd5b8135615e4581616ccb565b809150505b92915050565b600060208284031215615e61578081fd5b8135615e6c81616ccb565b809150505b92915050565b600060208284031215615e88578081fd5b8135615e9381616ccb565b809150505b92915050565b600060208284031215615eaf578081fd5b8135615eba81616ccb565b809150505b92915050565b60006102208284031215615ed7578081fd5b8190505b92915050565b600060208284031215615ef2578081fd5b813590505b92915050565b600060208284031215615f0e578081fd5b815190505b92915050565b600060208284031215615f2a578081fd5b813567ffffffffffffffff811681141515615f43578182fd5b809150505b92915050565b600060208284031215615f5f578081fd5b815160ff811681141515615f71578182fd5b809150505b92915050565b60008151808452615f94816020860160208601616c03565b60207fffffffffffffffffffffffffffffffffffffffffffffffffffffffffffffffe0601f8301168501019150505b92915050565b7fffffffff000000000000000000000000000000000000000000000000000000008316815260008251616003816004850160208701616c03565b6004818401019150505b9392505050565b60008251616026818460208701616c03565b8083019150505b92915050565b7f7265776172647300000000000000000000000000000000000000000000000000815260006007820190505b919050565b7f7261746573000000000000000000000000000000000000000000000000000000815260006005820190505b919050565b7f736574746c656d656e740000000000000000000000000000000000000000000081526000600a820190505b919050565b7f6d61726b65740000000000000000000000000000000000000000000000000000815260006006820190505b919050565b7f61756374696f6e73000000000000000000000000000000000000000000000000815260006008820190505b919050565b7f6c69717569646174696f6e73000000000000000000000000000000000000000081526000600c820190505b919050565b7f7072696365730000000000000000000000000000000000000000000000000000815260006006820190505b919050565b600060208201905073ffffffffffffffffffffffffffffffffffffffff831682525b92915050565b600060608201905073ffffffffffffffffffffffffffffffffffffffff80861683528085166020840152508260408301525b949350505050565b73ffffffffffffffffffffffffffffffffffffffff8416815260406020820152816040820152818360608301376000806060848401015260607fffffffffffffffffffffffffffffffffffffffffffffffffffffffffffffffe0601f85011683010190505b949350505050565b73ffffffffffffffffffffffffffffffffffffffff831681526040602082015260006162886040830184615f7c565b90505b9392505050565b600060408201905073ffffffffffffffffffffffffffffffffffffffff841682526fffffffffffffffffffffffffffffffff831660208301525b9392505050565b600060408201905073ffffffffffffffffffffffffffffffffffffffff841682528260208301525b9392505050565b600060208201905082151582525b92915050565b82151581526040602082015260006163316040830184615f7c565b90505b9392505050565b600060208201905073ffffffffffffffffffffffffffffffffffffffff831682525b92915050565b600060208201905073ffffffffffffffffffffffffffffffffffffffff831682525b92915050565b600060208201905073ffffffffffffffffffffffffffffffffffffffff831682525b92915050565b600060208201905073ffffffffffffffffffffffffffffffffffffffff831682525b92915050565b600060208201905073ffffffffffffffffffffffffffffffffffffffff831682525b92915050565b600060208201905073ffffffffffffffffffffffffffffffffffffffff831682525b92915050565b600060208201905073ffffffffffffffffffffffffffffffffffffffff831682525b92915050565b600060208201905073ffffffffffffffffffffffffffffffffffffffff831682525b92915050565b600060208201905073ffffffffffffffffffffffffffffffffffffffff831682525b92915050565b600060208201905073ffffffffffffffffffffffffffffffffffffffff831682525b92915050565b600060208201905073ffffffffffffffffffffffffffffffffffffffff831682525b92915050565b600060208201905073ffffffffffffffffffffffffffffffffffffffff831682525b92915050565b600060208201905073ffffffffffffffffffffffffffffffffffffffff831682525b92915050565b600060208201905073ffffffffffffffffffffffffffffffffffffffff831682525b92915050565b600060208201905073ffffffffffffffffffffffffffffffffffffffff831682525b92915050565b6020815260006165a66020830184615f7c565b90505b92915050565b60208152602660208201527f416464726573733a20696e73756666696369656e742062616c616e636520666f60408201527f722063616c6c0000000000000000000000000000000000000000000000000000606082015260006080820190505b919050565b60208152600e60208201527f4e6f7420417574686f72697a6564000000000000000000000000000000000000604082015260006060820190505b919050565b60208152600460208201527f4e6f6f7000000000000000000000000000000000000000000000000000000000604082015260006060820190505b919050565b60208152600b60208201527f416c726561647920736574000000000000000000000000000000000000000000604082015260006060820190505b919050565b60208152601760208201527f496e73756666696369656e7420544350204c6f636b6564000000000000000000604082015260006060820190505b919050565b60208152601260208201527f6d6f7265207468616e2031323820626974730000000000000000000000000000604082015260006060820190505b919050565b60208152600e60208201527f4e6f74206120636f6e7472616374000000000000000000000000000000000000604082015260006060820190505b919050565b60208152601060208201527f416c72656164792073687574646f776e00000000000000000000000000000000604082015260006060820190505b919050565b60208152601d60208201527f416464726573733a2063616c6c20746f206e6f6e2d636f6e7472616374000000604082015260006060820190505b919050565b60208152600c60208201527f4e6f742073687574646f776e0000000000000000000000000000000000000000604082015260006060820190505b919050565b60208152602a60208201527f5361666545524332303a204552433230206f7065726174696f6e20646964206e60408201527f6f74207375636365656400000000000000000000000000000000000000000000606082015260006080820190505b919050565b60208152601160208201527f6d6f7265207468616e2036342062697473000000000000000000000000000000604082015260006060820190505b919050565b60208152600660208201527f4c4f434b45440000000000000000000000000000000000000000000000000000604082015260006060820190505b919050565b60208152601f60208201527f5265656e7472616e637947756172643a207265656e7472616e742063616c6c00604082015260006060820190505b919050565b60208152601260208201527f6d6f7265207468616e2032313620626974730000000000000000000000000000604082015260006060820190505b919050565b60208152600f60208201527f45786365656473206d6178696d756d0000000000000000000000000000000000604082015260006060820190505b919050565b60006040820190507affffffffffffffffffffffffffffffffffffffffffffffffffffff8416825264ffffffffff831660208301525b9392505050565b60006020820190508282525b92915050565b600060208201905067ffffffffffffffff831682525b92915050565b600060208201905060ff831682525b92915050565b60008219821115616a7f57616a7e616c38565b5b82820190505b92915050565b600064ffffffffff808316818516808303821115616aac57616aab616c38565b5b80820193505050505b92915050565b600067ffffffffffffffff808316818516808303821115616adf57616ade616c38565b5b80820193505050505b92915050565b60007affffffffffffffffffffffffffffffffffffffffffffffffffffff808416801515616b1f57616b1e616c69565b5b8082851604925050505b92915050565b6000821515616b4157616b40616c69565b5b82820490505b92915050565b600067ffffffffffffffff808416801515616b6b57616b6a616c69565b5b8082851604925050505b92915050565b600067ffffffffffffffff80831681851681830481118215151615616ba357616ba2616c38565b5b80820293505050505b92915050565b600082821015616bc557616bc4616c38565b5b82820390505b92915050565b600067ffffffffffffffff808316818516915081811015616bf557616bf4616c38565b5b818103925050505b92915050565b60005b83811015616c225780820151818401525b602081019050616c06565b83811115616c31576000848401525b505050505b565b7f4e487b7100000000000000000000000000000000000000000000000000000000600052601160045260246000fd5b565b7f4e487b7100000000000000000000000000000000000000000000000000000000600052601260045260246000fd5b565b7f4e487b7100000000000000000000000000000000000000000000000000000000600052604160045260246000fd5b565b73ffffffffffffffffffffffffffffffffffffffff811681141515616cf05760006000fd5b505b565bfea2646970667358221220ec11431fbf5cb7fe524f0d5d110de3f695be4eff9a792d36fe512cf8c94e65ce64736f6c63430008040033",
  "linkReferences": {},
  "deployedLinkReferences": {}
}