{
  "_format": "hh-sol-artifact-1",
  "contractName": "MarketTestable",
  "sourceName": "contracts/mocks/MarketTestable.sol",
  "abi": [
    {
      "inputs": [
        {
          "components": [
            {
              "internalType": "contract IGovernor",
              "name": "Governor",
              "type": "address"
            },
            {
              "internalType": "contract IProtocolLock",
              "name": "ProtocolLock",
              "type": "address"
            },
            {
              "internalType": "contract IPositionNFT",
              "name": "HuePositionNFT",
              "type": "address"
            },
            {
              "internalType": "contract IHue",
              "name": "Hue",
              "type": "address"
            },
            {
              "internalType": "contract ILendHue",
              "name": "LendHue",
              "type": "address"
            },
            {
              "internalType": "contract IAccounting",
              "name": "Accounting",
              "type": "address"
            }
          ],
          "internalType": "struct IMarket.ConstructorParams",
          "name": "params",
          "type": "tuple"
        }
      ],
      "stateMutability": "nonpayable",
      "type": "constructor"
    },
    {
      "anonymous": false,
      "inputs": [
        {
          "indexed": false,
          "internalType": "uint256",
          "name": "requirement",
          "type": "uint256"
        }
      ],
      "name": "CollateralizationRequirementUpdated",
      "type": "event"
    },
    {
      "anonymous": false,
      "inputs": [
        {
          "indexed": true,
          "internalType": "uint64",
          "name": "period",
          "type": "uint64"
        },
        {
          "indexed": false,
          "internalType": "uint64",
          "name": "periods",
          "type": "uint64"
        },
        {
          "indexed": false,
          "internalType": "uint256",
          "name": "newDebt",
          "type": "uint256"
        },
        {
          "indexed": false,
          "internalType": "uint256",
          "name": "rewardCount",
          "type": "uint256"
        },
        {
          "indexed": false,
          "internalType": "uint256",
          "name": "cumulativeDebt",
          "type": "uint256"
        },
        {
          "indexed": false,
          "internalType": "uint256",
          "name": "debtExchangeRate",
          "type": "uint256"
        }
      ],
      "name": "InterestAccrued",
      "type": "event"
    },
    {
      "anonymous": false,
      "inputs": [
        {
          "indexed": false,
          "internalType": "uint256",
          "name": "percentage",
          "type": "uint256"
        }
      ],
      "name": "InterestPortionToLendersUpdated",
      "type": "event"
    },
    {
      "anonymous": false,
      "inputs": [
        {
          "indexed": true,
          "internalType": "address",
          "name": "account",
          "type": "address"
        },
        {
          "indexed": false,
          "internalType": "uint256",
          "name": "hueCount",
          "type": "uint256"
        },
        {
          "indexed": false,
          "internalType": "uint256",
          "name": "lendTokenCount",
          "type": "uint256"
        }
      ],
      "name": "Lend",
      "type": "event"
    },
    {
      "anonymous": false,
      "inputs": [
        {
          "indexed": false,
          "internalType": "uint256",
          "name": "size",
          "type": "uint256"
        }
      ],
      "name": "MinPositionSizeUpdated",
      "type": "event"
    },
    {
      "anonymous": false,
      "inputs": [
        {
          "indexed": true,
          "internalType": "uint64",
          "name": "positionID",
          "type": "uint64"
        },
        {
          "indexed": false,
          "internalType": "uint256",
          "name": "debtIncrease",
          "type": "uint256"
        },
        {
          "indexed": false,
          "internalType": "uint256",
          "name": "debtDecrease",
          "type": "uint256"
        },
        {
          "indexed": false,
          "internalType": "uint256",
          "name": "collateralIncrease",
          "type": "uint256"
        },
        {
          "indexed": false,
          "internalType": "uint256",
          "name": "collateralDecrease",
          "type": "uint256"
        },
        {
          "indexed": false,
          "internalType": "uint256",
          "name": "newDebt",
          "type": "uint256"
        },
        {
          "indexed": false,
          "internalType": "uint256",
          "name": "newCollateral",
          "type": "uint256"
        }
      ],
      "name": "PositionAdjusted",
      "type": "event"
    },
    {
      "anonymous": false,
      "inputs": [
        {
          "indexed": true,
          "internalType": "address",
          "name": "creator",
          "type": "address"
        },
        {
          "indexed": true,
          "internalType": "uint64",
          "name": "positionID",
          "type": "uint64"
        },
        {
          "indexed": false,
          "internalType": "uint256",
          "name": "initialDebt",
          "type": "uint256"
        }
      ],
      "name": "PositionCreated",
      "type": "event"
    },
    {
      "anonymous": false,
      "inputs": [
        {
          "indexed": true,
          "internalType": "uint256",
          "name": "positionID",
          "type": "uint256"
        },
        {
          "indexed": true,
          "internalType": "uint64",
          "name": "period",
          "type": "uint64"
        },
        {
          "indexed": false,
          "internalType": "uint256",
          "name": "debtAfter",
          "type": "uint256"
        },
        {
          "indexed": false,
          "internalType": "uint256",
          "name": "tcpRewards",
          "type": "uint256"
        }
      ],
      "name": "PositionUpdated",
      "type": "event"
    },
    {
      "anonymous": false,
      "inputs": [
        {
          "indexed": true,
          "internalType": "address",
          "name": "account",
          "type": "address"
        },
        {
          "indexed": true,
          "internalType": "bool",
          "name": "isKickback",
          "type": "bool"
        },
        {
          "indexed": false,
          "internalType": "uint256",
          "name": "tcpRewards",
          "type": "uint256"
        }
      ],
      "name": "RewardsDistributed",
      "type": "event"
    },
    {
      "anonymous": false,
      "inputs": [],
      "name": "Stopped",
      "type": "event"
    },
    {
      "anonymous": false,
      "inputs": [
        {
          "indexed": false,
          "internalType": "uint32",
          "name": "duration",
          "type": "uint32"
        }
      ],
      "name": "TwapDurationUpdated",
      "type": "event"
    },
    {
      "anonymous": false,
      "inputs": [
        {
          "indexed": true,
          "internalType": "address",
          "name": "account",
          "type": "address"
        },
        {
          "indexed": false,
          "internalType": "uint256",
          "name": "hueCount",
          "type": "uint256"
        },
        {
          "indexed": false,
          "internalType": "uint256",
          "name": "lendTokenCount",
          "type": "uint256"
        }
      ],
      "name": "Unlend",
      "type": "event"
    },
    {
      "inputs": [],
      "name": "accounting",
      "outputs": [
        {
          "internalType": "contract IAccounting",
          "name": "",
          "type": "address"
        }
      ],
      "stateMutability": "view",
      "type": "function"
    },
    {
      "inputs": [],
      "name": "accrueInterest",
      "outputs": [],
      "stateMutability": "nonpayable",
      "type": "function"
    },
    {
      "inputs": [
        {
          "internalType": "uint64",
          "name": "positionID",
          "type": "uint64"
        },
        {
          "internalType": "int256",
          "name": "debtChange",
          "type": "int256"
        },
        {
          "internalType": "uint256",
          "name": "collateralDecrease",
          "type": "uint256"
        },
        {
          "internalType": "uint32",
          "name": "ui",
          "type": "uint32"
        }
      ],
      "name": "adjustPosition",
      "outputs": [],
      "stateMutability": "payable",
      "type": "function"
    },
    {
      "inputs": [
        {
          "components": [
            {
              "internalType": "uint256",
              "name": "debt",
              "type": "uint256"
            },
            {
              "internalType": "uint256",
              "name": "totalTCPRewards",
              "type": "uint256"
            },
            {
              "internalType": "uint256",
              "name": "cumulativeDebt",
              "type": "uint256"
            },
            {
              "internalType": "uint256",
              "name": "debtExchangeRate",
              "type": "uint256"
            }
          ],
          "internalType": "struct IAccounting.SystemDebtInfo",
          "name": "sdi",
          "type": "tuple"
        },
        {
          "internalType": "uint64",
          "name": "periods",
          "type": "uint64"
        },
        {
          "internalType": "uint256",
          "name": "annualInterestRate",
          "type": "uint256"
        },
        {
          "internalType": "bool",
          "name": "positiveInterestRate",
          "type": "bool"
        },
        {
          "internalType": "uint256",
          "name": "reserves",
          "type": "uint256"
        },
        {
          "internalType": "uint256",
          "name": "_interestPortionToLenders",
          "type": "uint256"
        }
      ],
      "name": "calculateInterest",
      "outputs": [
        {
          "components": [
            {
              "internalType": "uint256",
              "name": "newDebt",
              "type": "uint256"
            },
            {
              "internalType": "uint256",
              "name": "newExchangeRate",
              "type": "uint256"
            },
            {
              "internalType": "uint256",
              "name": "additionalReserves",
              "type": "uint256"
            },
            {
              "internalType": "uint256",
              "name": "additionalLends",
              "type": "uint256"
            },
            {
              "internalType": "uint256",
              "name": "reducedReserves",
              "type": "uint256"
            }
          ],
          "internalType": "struct IMarket.CalculatedInterestInfo",
          "name": "cii",
          "type": "tuple"
        }
      ],
      "stateMutability": "pure",
      "type": "function"
    },
    {
      "inputs": [
        {
          "internalType": "uint64[]",
          "name": "positionIDs",
          "type": "uint64[]"
        },
        {
          "internalType": "uint32",
          "name": "ui",
          "type": "uint32"
        }
      ],
      "name": "claimAllRewards",
      "outputs": [],
      "stateMutability": "nonpayable",
      "type": "function"
    },
    {
      "inputs": [
        {
          "internalType": "uint64",
          "name": "positionID",
          "type": "uint64"
        },
        {
          "internalType": "uint32",
          "name": "ui",
          "type": "uint32"
        }
      ],
      "name": "claimRewards",
      "outputs": [],
      "stateMutability": "nonpayable",
      "type": "function"
    },
    {
      "inputs": [],
      "name": "collateralizationRequirement",
      "outputs": [
        {
          "internalType": "uint256",
          "name": "",
          "type": "uint256"
        }
      ],
      "stateMutability": "view",
      "type": "function"
    },
    {
      "inputs": [
        {
          "internalType": "uint256",
          "name": "initialDebt",
          "type": "uint256"
        },
        {
          "internalType": "uint32",
          "name": "ui",
          "type": "uint32"
        }
      ],
      "name": "createPosition",
      "outputs": [
        {
          "internalType": "uint64",
          "name": "positionID",
          "type": "uint64"
        }
      ],
      "stateMutability": "payable",
      "type": "function"
    },
    {
      "inputs": [],
      "name": "currentPeriod",
      "outputs": [
        {
          "internalType": "uint64",
          "name": "period",
          "type": "uint64"
        }
      ],
      "stateMutability": "view",
      "type": "function"
    },
    {
      "inputs": [],
      "name": "deployer",
      "outputs": [
        {
          "internalType": "address",
          "name": "",
          "type": "address"
        }
      ],
      "stateMutability": "view",
      "type": "function"
    },
    {
      "inputs": [],
      "name": "firstPeriod",
      "outputs": [
        {
          "internalType": "uint64",
          "name": "",
          "type": "uint64"
        }
      ],
      "stateMutability": "view",
      "type": "function"
    },
    {
      "inputs": [],
      "name": "governor",
      "outputs": [
        {
          "internalType": "contract IGovernor",
          "name": "",
          "type": "address"
        }
      ],
      "stateMutability": "view",
      "type": "function"
    },
    {
      "inputs": [],
      "name": "hue",
      "outputs": [
        {
          "internalType": "contract IHue",
          "name": "",
          "type": "address"
        }
      ],
      "stateMutability": "view",
      "type": "function"
    },
    {
      "inputs": [],
      "name": "huePositionNFT",
      "outputs": [
        {
          "internalType": "contract IPositionNFT",
          "name": "",
          "type": "address"
        }
      ],
      "stateMutability": "view",
      "type": "function"
    },
    {
      "inputs": [],
      "name": "init",
      "outputs": [],
      "stateMutability": "nonpayable",
      "type": "function"
    },
    {
      "inputs": [],
      "name": "interestPortionToLenders",
      "outputs": [
        {
          "internalType": "uint256",
          "name": "",
          "type": "uint256"
        }
      ],
      "stateMutability": "view",
      "type": "function"
    },
    {
      "inputs": [],
      "name": "lastPeriodGlobalInterestAccrued",
      "outputs": [
        {
          "internalType": "uint64",
          "name": "",
          "type": "uint64"
        }
      ],
      "stateMutability": "view",
      "type": "function"
    },
    {
      "inputs": [
        {
          "internalType": "uint256",
          "name": "hueCount",
          "type": "uint256"
        }
      ],
      "name": "lend",
      "outputs": [],
      "stateMutability": "nonpayable",
      "type": "function"
    },
    {
      "inputs": [],
      "name": "lendHue",
      "outputs": [
        {
          "internalType": "contract ILendHue",
          "name": "",
          "type": "address"
        }
      ],
      "stateMutability": "view",
      "type": "function"
    },
    {
      "inputs": [],
      "name": "minPositionSize",
      "outputs": [
        {
          "internalType": "uint256",
          "name": "",
          "type": "uint256"
        }
      ],
      "stateMutability": "view",
      "type": "function"
    },
    {
      "inputs": [],
      "name": "periodLength",
      "outputs": [
        {
          "internalType": "uint64",
          "name": "",
          "type": "uint64"
        }
      ],
      "stateMutability": "view",
      "type": "function"
    },
    {
      "inputs": [
        {
          "internalType": "uint64",
          "name": "positionID",
          "type": "uint64"
        }
      ],
      "name": "removeKickback",
      "outputs": [],
      "stateMutability": "nonpayable",
      "type": "function"
    },
    {
      "inputs": [
        {
          "internalType": "uint256",
          "name": "requirement",
          "type": "uint256"
        }
      ],
      "name": "setCollateralizationRequirement",
      "outputs": [],
      "stateMutability": "nonpayable",
      "type": "function"
    },
    {
      "inputs": [
        {
          "internalType": "uint256",
          "name": "percentage",
          "type": "uint256"
        }
      ],
      "name": "setInterestPortionToLenders",
      "outputs": [],
      "stateMutability": "nonpayable",
      "type": "function"
    },
    {
      "inputs": [
        {
          "internalType": "uint256",
          "name": "size",
          "type": "uint256"
        }
      ],
      "name": "setMinPositionSize",
      "outputs": [],
      "stateMutability": "nonpayable",
      "type": "function"
    },
    {
      "inputs": [
        {
          "internalType": "uint32",
          "name": "duration",
          "type": "uint32"
        }
      ],
      "name": "setTwapDuration",
      "outputs": [],
      "stateMutability": "nonpayable",
      "type": "function"
    },
    {
      "inputs": [],
      "name": "stop",
      "outputs": [],
      "stateMutability": "nonpayable",
      "type": "function"
    },
    {
      "inputs": [],
      "name": "stopped",
      "outputs": [
        {
          "internalType": "bool",
          "name": "",
          "type": "bool"
        }
      ],
      "stateMutability": "view",
      "type": "function"
    },
    {
      "inputs": [
        {
          "internalType": "uint64",
          "name": "positionID",
          "type": "uint64"
        }
      ],
      "name": "systemGetUpdatedPosition",
      "outputs": [
        {
          "components": [
            {
              "internalType": "uint256",
              "name": "startCumulativeDebt",
              "type": "uint256"
            },
            {
              "internalType": "uint256",
              "name": "collateral",
              "type": "uint256"
            },
            {
              "internalType": "uint256",
              "name": "debt",
              "type": "uint256"
            },
            {
              "internalType": "uint256",
              "name": "startDebtExchangeRate",
              "type": "uint256"
            },
            {
              "internalType": "uint256",
              "name": "startTCPRewards",
              "type": "uint256"
            },
            {
              "internalType": "uint64",
              "name": "lastTimeUpdated",
              "type": "uint64"
            },
            {
              "internalType": "uint64",
              "name": "lastBorrowTime",
              "type": "uint64"
            },
            {
              "internalType": "int24",
              "name": "tick",
              "type": "int24"
            },
            {
              "internalType": "bool",
              "name": "tickSet",
              "type": "bool"
            },
            {
              "internalType": "uint64",
              "name": "tickIndex",
              "type": "uint64"
            },
            {
              "internalType": "uint32",
              "name": "ui",
              "type": "uint32"
            },
            {
              "internalType": "address",
              "name": "kickbackDestination",
              "type": "address"
            },
            {
              "internalType": "uint64",
              "name": "kickbackPortion",
              "type": "uint64"
            }
          ],
          "internalType": "struct IAccounting.DebtPosition",
          "name": "",
          "type": "tuple"
        }
      ],
      "stateMutability": "nonpayable",
      "type": "function"
    },
    {
      "inputs": [],
      "name": "twapDuration",
      "outputs": [
        {
          "internalType": "uint32",
          "name": "",
          "type": "uint32"
        }
      ],
      "stateMutability": "view",
      "type": "function"
    },
    {
      "inputs": [
        {
          "internalType": "uint256",
          "name": "lendTokenCount",
          "type": "uint256"
        }
      ],
      "name": "unlend",
      "outputs": [],
      "stateMutability": "nonpayable",
      "type": "function"
    },
    {
      "inputs": [
        {
          "components": [
            {
              "internalType": "uint256",
              "name": "startCumulativeDebt",
              "type": "uint256"
            },
            {
              "internalType": "uint256",
              "name": "collateral",
              "type": "uint256"
            },
            {
              "internalType": "uint256",
              "name": "debt",
              "type": "uint256"
            },
            {
              "internalType": "uint256",
              "name": "startDebtExchangeRate",
              "type": "uint256"
            },
            {
              "internalType": "uint256",
              "name": "startTCPRewards",
              "type": "uint256"
            },
            {
              "internalType": "uint64",
              "name": "lastTimeUpdated",
              "type": "uint64"
            },
            {
              "internalType": "uint64",
              "name": "lastBorrowTime",
              "type": "uint64"
            },
            {
              "internalType": "int24",
              "name": "tick",
              "type": "int24"
            },
            {
              "internalType": "bool",
              "name": "tickSet",
              "type": "bool"
            },
            {
              "internalType": "uint64",
              "name": "tickIndex",
              "type": "uint64"
            },
            {
              "internalType": "uint32",
              "name": "ui",
              "type": "uint32"
            },
            {
              "internalType": "address",
              "name": "kickbackDestination",
              "type": "address"
            },
            {
              "internalType": "uint64",
              "name": "kickbackPortion",
              "type": "uint64"
            }
          ],
          "internalType": "struct IAccounting.DebtPosition",
          "name": "_position",
          "type": "tuple"
        },
        {
          "components": [
            {
              "internalType": "uint256",
              "name": "debt",
              "type": "uint256"
            },
            {
              "internalType": "uint256",
              "name": "totalTCPRewards",
              "type": "uint256"
            },
            {
              "internalType": "uint256",
              "name": "cumulativeDebt",
              "type": "uint256"
            },
            {
              "internalType": "uint256",
              "name": "debtExchangeRate",
              "type": "uint256"
            }
          ],
          "internalType": "struct IAccounting.SystemDebtInfo",
          "name": "sdi",
          "type": "tuple"
        },
        {
          "internalType": "uint64",
          "name": "timeNow",
          "type": "uint64"
        }
      ],
      "name": "updatePositionImpl",
      "outputs": [
        {
          "components": [
            {
              "internalType": "uint256",
              "name": "startCumulativeDebt",
              "type": "uint256"
            },
            {
              "internalType": "uint256",
              "name": "collateral",
              "type": "uint256"
            },
            {
              "internalType": "uint256",
              "name": "debt",
              "type": "uint256"
            },
            {
              "internalType": "uint256",
              "name": "startDebtExchangeRate",
              "type": "uint256"
            },
            {
              "internalType": "uint256",
              "name": "startTCPRewards",
              "type": "uint256"
            },
            {
              "internalType": "uint64",
              "name": "lastTimeUpdated",
              "type": "uint64"
            },
            {
              "internalType": "uint64",
              "name": "lastBorrowTime",
              "type": "uint64"
            },
            {
              "internalType": "int24",
              "name": "tick",
              "type": "int24"
            },
            {
              "internalType": "bool",
              "name": "tickSet",
              "type": "bool"
            },
            {
              "internalType": "uint64",
              "name": "tickIndex",
              "type": "uint64"
            },
            {
              "internalType": "uint32",
              "name": "ui",
              "type": "uint32"
            },
            {
              "internalType": "address",
              "name": "kickbackDestination",
              "type": "address"
            },
            {
              "internalType": "uint64",
              "name": "kickbackPortion",
              "type": "uint64"
            }
          ],
          "internalType": "struct IAccounting.DebtPosition",
          "name": "position",
          "type": "tuple"
        },
        {
          "internalType": "uint256",
          "name": "rewards",
          "type": "uint256"
        }
      ],
      "stateMutability": "pure",
      "type": "function"
    },
    {
      "inputs": [
        {
          "internalType": "bytes4",
          "name": "",
          "type": "bytes4"
        }
      ],
      "name": "validUpdate",
      "outputs": [
        {
          "internalType": "bool",
          "name": "",
          "type": "bool"
        }
      ],
      "stateMutability": "view",
      "type": "function"
    },
    {
      "inputs": [
        {
          "internalType": "uint256",
          "name": "lendTokenCount",
          "type": "uint256"
        }
      ],
      "name": "valueOfLendTokensInHue",
      "outputs": [
        {
          "internalType": "uint256",
          "name": "",
          "type": "uint256"
        }
      ],
      "stateMutability": "view",
      "type": "function"
    }
  ],
  "bytecode": "0x610180604052600160026000509090556714d1120d7b160000600360005090905568878678326eac90000060046000509090556702c68af0bb1400006005600050909055610708600660006101000a81548163ffffffff021916908363ffffffff160217905550348015620000745760006000fd5b50604051620063723803806200637283398181016040528101906200009a919062000598565b5b805b610e105b816000015182602001515b815b8073ffffffffffffffffffffffffffffffffffffffff1660808173ffffffffffffffffffffffffffffffffffffffff1660601b815260140150505b508073ffffffffffffffffffffffffffffffffffffffff1660a08173ffffffffffffffffffffffffffffffffffffffff1660601b815260140150505b505060018167ffffffffffffffff1662000144620004c660201b60201c565b67ffffffffffffffff168115156200015857fe5b040367ffffffffffffffff1660e08167ffffffffffffffff1660c01b815260080150508067ffffffffffffffff1660c08167ffffffffffffffff1660c01b815260080150505b50806040015173ffffffffffffffffffffffffffffffffffffffff166101008173ffffffffffffffffffffffffffffffffffffffff1660601b81526014015050806060015173ffffffffffffffffffffffffffffffffffffffff166101208173ffffffffffffffffffffffffffffffffffffffff1660601b81526014015050806080015173ffffffffffffffffffffffffffffffffffffffff166101408173ffffffffffffffffffffffffffffffffffffffff1660601b815260140150508060a0015173ffffffffffffffffffffffffffffffffffffffff166101608173ffffffffffffffffffffffffffffffffffffffff1660601b815260140150506000604051806080016040528063ef5e1cac60e01b7bffffffffffffffffffffffffffffffffffffffffffffffffffffffff19167bffffffffffffffffffffffffffffffffffffffffffffffffffffffff1916815260200163c433c80a60e01b7bffffffffffffffffffffffffffffffffffffffffffffffffffffffff19167bffffffffffffffffffffffffffffffffffffffffffffffffffffffff191681526020016306972dcd60e01b7bffffffffffffffffffffffffffffffffffffffffffffffffffffffff19167bffffffffffffffffffffffffffffffffffffffffffffffffffffffff19168152602001635a6127a960e01b7bffffffffffffffffffffffffffffffffffffffffffffffffffffffff19167bffffffffffffffffffffffffffffffffffffffffffffffffffffffff191681526020015090506000600090505b81506004811015620004795760016001600050600084846004811015156200040257fe5b60200201517bffffffffffffffffffffffffffffffffffffffffffffffffffffffff19167bffffffffffffffffffffffffffffffffffffffffffffffffffffffff1916815260200190815260200160002060006101000a81548160ff0219169083151502179055505b8080600101915050620003de565b50336006600c6101000a81548173ffffffffffffffffffffffffffffffffffffffff021916908373ffffffffffffffffffffffffffffffffffffffff160217905550505b505b506200066d565b6000620004e042620004e860201b62001f2617909060201c565b905080505b90565b600068010000000000000000821015156200056e576040517f08c379a00000000000000000000000000000000000000000000000000000000081526004018080602001828103825260118152602001807f6d6f7265207468616e203634206269747300000000000000000000000000000081526020015060200191505060405180910390fd5b81905062000577565b919050566200066c565b60008151905062000592816200064f565b5b919050565b600060c08284031215620005aa578081fd5b60405160c081018181106001600160401b0382111715620005c757fe5b80604052508251620005d9816200064f565b808252506020830151620005ed816200064f565b80602083015250604083015162000604816200064f565b80604083015250620006196060840162000581565b60608201526200062c6080840162000581565b60808201526200063f60a0840162000581565b60a0820152809150505b92915050565b6001600160a01b03811681141515620006685760006000fd5b5b50565b5b60805160601c60a05160601c60c05160c01c60e05160c01c6101005160601c6101205160601c6101405160601c6101605160601c615b77620007fb600039806109d55280610eb05280611096528061116b52806112105280611299528061134b52806115a6528061167c528061192452806119d45280611b275280611d235280611dfa52806126845280612ca15280612dee5280612f6352806131305280613167528061352952806139965280613a595280613b265280613d655250806109465280610ae052806113785280613e09525080610ce952806113295280612ffb528061309452806137765280613aea5280613bab5280613be75280613c6c525080610b675280610de85280610fce528061149b52806114de52806118e85280611c5d52806128d05250806117c6528061212252806145425250806117ea5280612143528061456352508061224352806124345250806108b75280611a8e528061219c52806124c752806127ca528061297d52806135cd528061385e528061445e52806148235250615b776000f3fe60806040526004361061021c5760003560e01c80639624e83e1161011d578063c4e3a63b116100b0578063e1c7392a1161007f578063ed92182f11610064578063ed92182f1461077b578063ef5e1cac146107a5578063f6979f29146107cf5761021c565b8063e1c7392a14610725578063eb6843ce1461073d5761021c565b8063c4e3a63b14610663578063d2ca21151461068f578063d5f39488146106bb578063e11c8762146106e75761021c565b8063b2326b57116100ec578063b2326b57146105b7578063b6ae213a146105e1578063bb8313c21461060d578063c433c80a146106395761021c565b80639624e83e1461051d578063a6aa57ce14610549578063a6afed9514610573578063a89f51ae1461058b5761021c565b80632cae0269116101b05780635658c0121161017f57806375f12b211161016457806375f12b21146104ab5780637b809bdd146104d7578063875bbc51146104f35761021c565b80635658c012146104555780635a6127a9146104815761021c565b80632cae02691461038f5780632e6c6f84146103bb57806332374174146103eb5780634ff34aca146104175761021c565b80630c340a24116101ec5780630c340a24146102cf578063113cf1ab146102fb578063197b1bf51461033957806326d89545146103635761021c565b8062b2a04414610222578063060406181461026157806306972dcd1461028d57806307da68f5146102b75761021c565b60006000fd5b34801561022f5760006000fd5b5061024a60048036038101906102459190615092565b6107fb565b60405161025892919061591a565b60405180910390f35b34801561026e5760006000fd5b50610277610827565b60405161028491906159e5565b60405180910390f35b34801561029a5760006000fd5b506102b560048036038101906102b09190615278565b61083f565b005b3480156102c45760006000fd5b506102cd610895565b005b3480156102dc5760006000fd5b506102e56108b5565b6040516102f2919061565a565b60405180910390f35b3480156103085760006000fd5b50610323600480360381019061031e9190614f10565b6108d9565b604051610330919061561e565b60405180910390f35b3480156103465760006000fd5b50610361600480360381019061035c9190615278565b6108fe565b005b3480156103705760006000fd5b50610379610ac8565b60405161038691906159cd565b60405180910390f35b34801561039c5760006000fd5b506103a5610ade565b6040516103b291906156aa565b60405180910390f35b6103d560048036038101906103d091906152b0565b610b02565b6040516103e291906159e5565b60405180910390f35b3480156103f85760006000fd5b50610401610ce7565b60405161040e9190615682565b60405180910390f35b3480156104245760006000fd5b5061043f600480360381019061043a919061520b565b610d0b565b60405161044c91906158c5565b60405180910390f35b3480156104625760006000fd5b5061046b610d38565b604051610478919061596d565b60405180910390f35b34801561048e5760006000fd5b506104a960048036038101906104a49190615278565b610d41565b005b3480156104b85760006000fd5b506104c1610db4565b6040516104ce919061561e565b60405180910390f35b6104f160048036038101906104ec9190615356565b610dc7565b005b3480156105005760006000fd5b5061051b600480360381019061051691906153a6565b610fad565b005b34801561052a5760006000fd5b5061053361120e565b6040516105409190615632565b60405180910390f35b3480156105565760006000fd5b50610571600480360381019061056c9190615278565b611232565b005b3480156105805760006000fd5b5061058961146b565b005b3480156105985760006000fd5b506105a1611499565b6040516105ae91906156d2565b60405180910390f35b3480156105c45760006000fd5b506105df60048036038101906105da9190615308565b6114bd565b005b3480156105ee5760006000fd5b506105f761171e565b60405161060491906159e5565b60405180910390f35b34801561061a5760006000fd5b50610623611738565b604051610630919061596d565b60405180910390f35b3480156106465760006000fd5b50610661600480360381019061065c91906152e1565b611741565b005b3480156106705760006000fd5b506106796117c4565b60405161068691906159e5565b60405180910390f35b34801561069c5760006000fd5b506106a56117e8565b6040516106b291906159e5565b60405180910390f35b3480156106c85760006000fd5b506106d161180c565b6040516106de9190615508565b60405180910390f35b3480156106f45760006000fd5b5061070f600480360381019061070a9190615278565b611832565b60405161071c919061596d565b60405180910390f35b3480156107325760006000fd5b5061073b611860565b005b34801561074a5760006000fd5b5061076560048036038101906107609190615308565b611a76565b6040516107729190615900565b60405180910390f35b3480156107885760006000fd5b506107a3600480360381019061079e9190614e60565b611bf7565b005b3480156107b25760006000fd5b506107cd60048036038101906107c89190615278565b611eaf565b005b3480156107dc5760006000fd5b506107e5611f1d565b6040516107f2919061596d565b60405180910390f35b610803614c1d565b6000610816858585611fb863ffffffff16565b80925081935050505b935093915050565b600061083761211e63ffffffff16565b905080505b90565b61084d61219763ffffffff16565b8060046000508190909055507f113d15441cef41c1a48eb1bc2c6fa7b881b201a5c4b2913272f80defe12ce3c381604051610888919061596d565b60405180910390a15b5b50565b6108a361219763ffffffff16565b6108b16121f763ffffffff16565b5b5b565b7f000000000000000000000000000000000000000000000000000000000000000081565b600160005060205280600052604060002060009150909054906101000a900460ff1681565b61090c61224163ffffffff16565b61091a61235463ffffffff16565b61092c600082116123df63ffffffff16565b600033905060006109428361183263ffffffff16565b90507f000000000000000000000000000000000000000000000000000000000000000073ffffffffffffffffffffffffffffffffffffffff166379cc679083856040518363ffffffff1660e01b815260040161099f9291906155ef565b600060405180830381600087803b1580156109ba5760006000fd5b505af11580156109cf573d600060003e3d6000fd5b505050507f000000000000000000000000000000000000000000000000000000000000000073ffffffffffffffffffffffffffffffffffffffff1663b241bbac83836040518363ffffffff1660e01b8152600401610a2e9291906155ef565b600060405180830381600087803b158015610a495760006000fd5b505af1158015610a5e573d600060003e3d6000fd5b505050508173ffffffffffffffffffffffffffffffffffffffff167fefc56a1a7590fc4eb13cd40b6a2ceee41f3869c6ea818d20d9a18f2d6315ca188285604051610aaa92919061597f565b60405180910390a250505b5b610ac461242563ffffffff16565b5b50565b600660009054906101000a900463ffffffff1681565b7f000000000000000000000000000000000000000000000000000000000000000081565b6000610b1261224163ffffffff16565b610b206124b763ffffffff16565b600034111515610b65576040517f08c379a0000000000000000000000000000000000000000000000000000000008152600401610b5c906157a3565b60405180910390fd5b7f000000000000000000000000000000000000000000000000000000000000000073ffffffffffffffffffffffffffffffffffffffff1663755edd17336040518263ffffffff1660e01b8152600401610bbe9190615530565b602060405180830381600087803b158015610bd95760006000fd5b505af1158015610bee573d600060003e3d6000fd5b505050506040513d601f19601f82011682018060405250810190610c12919061532f565b90508050610c1e614c1d565b8281610140019063ffffffff16908163ffffffff1681526020015050610c76610c578367ffffffffffffffff16836125e463ffffffff16565b83610c6987612ab2909063ffffffff16565b6000612b5b63ffffffff16565b8167ffffffffffffffff163373ffffffffffffffffffffffffffffffffffffffff167f24c9bb74341922446798a07669f56d3efec500a78e81429643958e7a42cb6b1286604051610cc7919061596d565b60405180910390a3505b5b610ce061242563ffffffff16565b5b92915050565b7f000000000000000000000000000000000000000000000000000000000000000081565b610d13614cd1565b610d2787878787878761325363ffffffff16565b9050610d2e565b9695505050505050565b60036000505481565b610d4f61219763ffffffff16565b806005600050819090905550670de0b6b3a764000060056000505411151515610d785760006000fd5b7f95c718270dc047bb0f84e533ee71ed5ee3961f14be924c0e493ba6e1ff078ae281604051610da7919061596d565b60405180910390a15b5b50565b600060009054906101000a900460ff1681565b610dd561224163ffffffff16565b610de36124b763ffffffff16565b610e9e7f000000000000000000000000000000000000000000000000000000000000000073ffffffffffffffffffffffffffffffffffffffff1663430c208133876040518363ffffffff1660e01b8152600401610e419291906155b6565b60206040518083038186803b158015610e5a5760006000fd5b505afa158015610e6f573d600060003e3d6000fd5b505050506040513d601f19601f82011682018060405250810190610e939190614ee9565b61344163ffffffff16565b6000610f658567ffffffffffffffff167f000000000000000000000000000000000000000000000000000000000000000073ffffffffffffffffffffffffffffffffffffffff16630f85fc5a886040518263ffffffff1660e01b8152600401610f0791906159e5565b6101a06040518083038186803b158015610f215760006000fd5b505afa158015610f36573d600060003e3d6000fd5b505050506040513d601f19601f82011682018060405250810190610f5a9190614fab565b6125e463ffffffff16565b90508181610140019063ffffffff16908163ffffffff1681526020015050610f9581868686612b5b63ffffffff16565b505b5b610fa661242563ffffffff16565b5b50505050565b610fbb61224163ffffffff16565b610fc961235463ffffffff16565b6110847f000000000000000000000000000000000000000000000000000000000000000073ffffffffffffffffffffffffffffffffffffffff1663430c208133856040518363ffffffff1660e01b81526004016110279291906155b6565b60206040518083038186803b1580156110405760006000fd5b505afa158015611055573d600060003e3d6000fd5b505050506040513d601f19601f820116820180604052508101906110799190614ee9565b61344163ffffffff16565b600061114b8367ffffffffffffffff167f000000000000000000000000000000000000000000000000000000000000000073ffffffffffffffffffffffffffffffffffffffff16630f85fc5a866040518263ffffffff1660e01b81526004016110ed91906159e5565b6101a06040518083038186803b1580156111075760006000fd5b505afa15801561111c573d600060003e3d6000fd5b505050506040513d601f19601f820116820180604052508101906111409190614fab565b6125e463ffffffff16565b90508181610140019063ffffffff16908163ffffffff16815260200150507f000000000000000000000000000000000000000000000000000000000000000073ffffffffffffffffffffffffffffffffffffffff16635a6beaf484836040518363ffffffff1660e01b81526004016111c4929190615a01565b600060405180830381600087803b1580156111df5760006000fd5b505af11580156111f4573d600060003e3d6000fd5b50505050505b5b61120961242563ffffffff16565b5b5050565b7f000000000000000000000000000000000000000000000000000000000000000081565b61124061224163ffffffff16565b61124e6124b763ffffffff16565b611260600082116123df63ffffffff16565b60003390506112736134bd63ffffffff16565b6000611295611286613d5f63ffffffff16565b84613eec90919063ffffffff16565b90507f000000000000000000000000000000000000000000000000000000000000000073ffffffffffffffffffffffffffffffffffffffff16632c73f09e846040518263ffffffff1660e01b81526004016112f0919061596d565b600060405180830381600087803b15801561130b5760006000fd5b505af1158015611320573d600060003e3d6000fd5b505050506113767f0000000000000000000000000000000000000000000000000000000000000000837f000000000000000000000000000000000000000000000000000000000000000086613f1263ffffffff16565b7f000000000000000000000000000000000000000000000000000000000000000073ffffffffffffffffffffffffffffffffffffffff1663449a52f883836040518363ffffffff1660e01b81526004016113d19291906155ef565b600060405180830381600087803b1580156113ec5760006000fd5b505af1158015611401573d600060003e3d6000fd5b505050508173ffffffffffffffffffffffffffffffffffffffff167f8fff79b574da9a93d7a5408c2fc00c4a9b2b462321c1659b2fbbb9ff3dd221ff848360405161144d92919061597f565b60405180910390a250505b5b61146761242563ffffffff16565b5b50565b61147961413d63ffffffff16565b6114876134bd63ffffffff16565b5b6114966141ce63ffffffff16565b5b565b7f000000000000000000000000000000000000000000000000000000000000000081565b6114cb61224163ffffffff16565b6114d96124b763ffffffff16565b6115947f000000000000000000000000000000000000000000000000000000000000000073ffffffffffffffffffffffffffffffffffffffff1663430c208133846040518363ffffffff1660e01b81526004016115379291906155b6565b60206040518083038186803b1580156115505760006000fd5b505afa158015611565573d600060003e3d6000fd5b505050506040513d601f19601f820116820180604052508101906115899190614ee9565b61344163ffffffff16565b600061165b8267ffffffffffffffff167f000000000000000000000000000000000000000000000000000000000000000073ffffffffffffffffffffffffffffffffffffffff16630f85fc5a856040518263ffffffff1660e01b81526004016115fd91906159e5565b6101a06040518083038186803b1580156116175760006000fd5b505afa15801561162c573d600060003e3d6000fd5b505050506040513d601f19601f820116820180604052508101906116509190614fab565b6125e463ffffffff16565b9050600081610140019063ffffffff16908163ffffffff16815260200150507f000000000000000000000000000000000000000000000000000000000000000073ffffffffffffffffffffffffffffffffffffffff16635a6beaf483836040518363ffffffff1660e01b81526004016116d5929190615a01565b600060405180830381600087803b1580156116f05760006000fd5b505af1158015611705573d600060003e3d6000fd5b50505050505b5b61171a61242563ffffffff16565b5b50565b600660049054906101000a900467ffffffffffffffff1681565b60046000505481565b61174f61219763ffffffff16565b61012c8163ffffffff16101515156117675760006000fd5b80600660006101000a81548163ffffffff021916908363ffffffff1602179055507f670aac3910a07dcfe5267c8b0bf2357abdb454e509764d13e94e85ee13c6da20816040516117b791906159cd565b60405180910390a15b5b50565b7f000000000000000000000000000000000000000000000000000000000000000081565b7f000000000000000000000000000000000000000000000000000000000000000081565b6006600c9054906101000a900473ffffffffffffffffffffffffffffffffffffffff1681565b6000611854611845613d5f63ffffffff16565b836141de90919063ffffffff16565b905061185b565b919050565b6118bf6006600c9054906101000a900473ffffffffffffffffffffffffffffffffffffffff1673ffffffffffffffffffffffffffffffffffffffff163373ffffffffffffffffffffffffffffffffffffffff161461344163ffffffff16565b6006600c6101000a81549073ffffffffffffffffffffffffffffffffffffffff021916905560007f000000000000000000000000000000000000000000000000000000000000000073ffffffffffffffffffffffffffffffffffffffff1663755edd177f00000000000000000000000000000000000000000000000000000000000000006040518263ffffffff1660e01b815260040161195f9190615508565b602060405180830381600087803b15801561197a5760006000fd5b505af115801561198f573d600060003e3d6000fd5b505050506040513d601f19601f820116820180604052508101906119b3919061532f565b67ffffffffffffffff161415156119ca5760006000fd5b6119d2614c1d565b7f000000000000000000000000000000000000000000000000000000000000000073ffffffffffffffffffffffffffffffffffffffff16635a6beaf46000611a216000856125e463ffffffff16565b6040518363ffffffff1660e01b8152600401611a3e9291906156fa565b600060405180830381600087803b158015611a595760006000fd5b505af1158015611a6e573d600060003e3d6000fd5b50505050505b565b611a7e614c1d565b611a8c61413d63ffffffff16565b7f000000000000000000000000000000000000000000000000000000000000000073ffffffffffffffffffffffffffffffffffffffff16639622cd8f336040518263ffffffff1660e01b8152600401611ae59190615530565b60006040518083038186803b158015611afe5760006000fd5b505afa158015611b13573d600060003e3d6000fd5b50505050611bdc8267ffffffffffffffff167f000000000000000000000000000000000000000000000000000000000000000073ffffffffffffffffffffffffffffffffffffffff16630f85fc5a856040518263ffffffff1660e01b8152600401611b7e91906159e5565b6101a06040518083038186803b158015611b985760006000fd5b505afa158015611bad573d600060003e3d6000fd5b505050506040513d601f19601f82011682018060405250810190611bd19190614fab565b6125e463ffffffff16565b9050611be3565b611bf16141ce63ffffffff16565b5b919050565b611c0561224163ffffffff16565b611c1361235463ffffffff16565b6000838390509050611c23614c1d565b60006000600090505b83811015611e95578686828181101515611c4257fe5b9050602002016020810190611c579190615308565b915081507f000000000000000000000000000000000000000000000000000000000000000073ffffffffffffffffffffffffffffffffffffffff1663430c208133846040518363ffffffff1660e01b8152600401611cb69291906155b6565b60206040518083038186803b158015611ccf5760006000fd5b505afa158015611ce4573d600060003e3d6000fd5b505050506040513d601f19601f82011682018060405250810190611d089190614ee9565b1515611d1357611e88565b611dd88267ffffffffffffffff167f000000000000000000000000000000000000000000000000000000000000000073ffffffffffffffffffffffffffffffffffffffff16630f85fc5a856040518263ffffffff1660e01b8152600401611d7a91906159e5565b6101a06040518083038186803b158015611d945760006000fd5b505afa158015611da9573d600060003e3d6000fd5b505050506040513d601f19601f82011682018060405250810190611dcd9190614fab565b6125e463ffffffff16565b925082508483610140019063ffffffff16908163ffffffff16815260200150507f000000000000000000000000000000000000000000000000000000000000000073ffffffffffffffffffffffffffffffffffffffff16635a6beaf483856040518363ffffffff1660e01b8152600401611e53929190615a01565b600060405180830381600087803b158015611e6e5760006000fd5b505af1158015611e83573d600060003e3d6000fd5b505050505b8080600101915050611c2c565b505050505b5b611ea961242563ffffffff16565b5b505050565b611ebd61219763ffffffff16565b806003600050819090905550670de0b6b3a76400008110151515611ee15760006000fd5b7f52640f3e2df50709ead28077e905b85df7544c73c32a40259dff3ac35927d5ce81604051611f10919061596d565b60405180910390a15b5b50565b60056000505481565b60006801000000000000000082101515611fab576040517f08c379a00000000000000000000000000000000000000000000000000000000081526004018080602001828103825260118152602001807f6d6f7265207468616e203634206269747300000000000000000000000000000081526020015060200191505060405180910390fd5b819050611fb3565b919050565b611fc0614c1d565b6000849150815060008260a0015167ffffffffffffffff16118015611fe9575060008260400151115b156120b95761200f8460600151836060015184604001516142049092919063ffffffff16565b82604001909081815260200150506120b46120418360a001518567ffffffffffffffff1661430590919063ffffffff16565b67ffffffffffffffff16610e1067ffffffffffffffff166120a5612076866080015189602001516143a290919063ffffffff16565b61209187600001518a604001516143a290919063ffffffff16565b87604001516142049092919063ffffffff16565b6142049092919063ffffffff16565b905080505b836060015182606001909081815260200150508360200151826080019090818152602001505083604001518260000190908181526020015050828260a0019067ffffffffffffffff16908167ffffffffffffffff16815260200150505b935093915050565b60007f00000000000000000000000000000000000000000000000000000000000000007f000000000000000000000000000000000000000000000000000000000000000067ffffffffffffffff1661217a61442b63ffffffff16565b67ffffffffffffffff1681151561218d57fe5b0403905080505b90565b6121f47f000000000000000000000000000000000000000000000000000000000000000073ffffffffffffffffffffffffffffffffffffffff163373ffffffffffffffffffffffffffffffffffffffff161461344163ffffffff16565b5b565b6001600060006101000a81548160ff0219169083151502179055507f7acc84e34091ae817647a4c49116f5cc07f319078ba80f8f5fde37ea7e25cbd660405160405180910390a15b565b7f000000000000000000000000000000000000000000000000000000000000000073ffffffffffffffffffffffffffffffffffffffff1663e97dcb626040518163ffffffff1660e01b8152600401600060405180830381600087803b1580156122aa5760006000fd5b505af11580156122bf573d600060003e3d6000fd5b50505050600260026000505414151515612344576040517f08c379a000000000000000000000000000000000000000000000000000000000815260040180806020018281038252600d8152602001807f4c50205265656e7472616e63790000000000000000000000000000000000000081526020015060200191505060405180910390fd5b600260026000508190909055505b565b600060009054906101000a900460ff161515156123dc576040517f08c379a00000000000000000000000000000000000000000000000000000000081526004018080602001828103825260138152602001807f436f6e74726163742069732073746f707065640000000000000000000000000081526020015060200191505060405180910390fd5b5b565b801515612421576040517f08c379a000000000000000000000000000000000000000000000000000000000815260040161241890615764565b60405180910390fd5b5b50565b600160026000508190909055507f000000000000000000000000000000000000000000000000000000000000000073ffffffffffffffffffffffffffffffffffffffff1663e9fad8ee6040518163ffffffff1660e01b8152600401600060405180830381600087803b15801561249b5760006000fd5b505af11580156124b0573d600060003e3d6000fd5b505050505b565b6124c561235463ffffffff16565b7f000000000000000000000000000000000000000000000000000000000000000073ffffffffffffffffffffffffffffffffffffffff1663bf86d6906040518163ffffffff1660e01b815260040160206040518083038186803b15801561252c5760006000fd5b505afa158015612541573d600060003e3d6000fd5b505050506040513d60208110156125585760006000fd5b81019080805190602001909291905050501515156125e1576040517f08c379a00000000000000000000000000000000000000000000000000000000081526004018080602001828103825260118152602001807f50726f746f636f6c2073687574646f776e00000000000000000000000000000081526020015060200191505060405180910390fd5b5b565b6125ec614c1d565b60006125fc61444663ffffffff16565b9050600061260f8261453b63ffffffff16565b9050600060008560a0015167ffffffffffffffff16146126415761263c8560a0015161453b63ffffffff16565b612644565b60005b90508067ffffffffffffffff168267ffffffffffffffff1611151561266e57849350505050612aac565b61267c6134bd63ffffffff16565b600061272e867f000000000000000000000000000000000000000000000000000000000000000073ffffffffffffffffffffffffffffffffffffffff166306ef2d806040518163ffffffff1660e01b815260040160806040518083038186803b1580156126e95760006000fd5b505afa1580156126fe573d600060003e3d6000fd5b505050506040513d601f19601f8201168201806040525081019061272291906151ab565b86611fb863ffffffff16565b8092508196505050600081118015612747575060008714155b15612a5e57600073ffffffffffffffffffffffffffffffffffffffff1685610160015173ffffffffffffffffffffffffffffffffffffffff161415801561279d5750600085610180015167ffffffffffffffff16115b156128cc5760006127c686610180015167ffffffffffffffff1683613eec90919063ffffffff16565b90507f000000000000000000000000000000000000000000000000000000000000000073ffffffffffffffffffffffffffffffffffffffff16634d6729f5876101600151836040518363ffffffff1660e01b81526004016128289291906155ef565b600060405180830381600087803b1580156128435760006000fd5b505af1158015612858573d600060003e3d6000fd5b505050506001151586610160015173ffffffffffffffffffffffffffffffffffffffff167f8079a05488a0f375c08504c3ba8b3a1371f5a192b7a141bc9294ef7ad41389d9836040516128ab919061596d565b60405180910390a36128c681836143a290919063ffffffff16565b91508150505b60007f000000000000000000000000000000000000000000000000000000000000000073ffffffffffffffffffffffffffffffffffffffff16636352211e896040518263ffffffff1660e01b8152600401612927919061596d565b60206040518083038186803b1580156129405760006000fd5b505afa158015612955573d600060003e3d6000fd5b505050506040513d601f19601f820116820180604052508101906129799190614e39565b90507f000000000000000000000000000000000000000000000000000000000000000073ffffffffffffffffffffffffffffffffffffffff16634d6729f582846040518363ffffffff1660e01b81526004016129d69291906155ef565b600060405180830381600087803b1580156129f15760006000fd5b505af1158015612a06573d600060003e3d6000fd5b50505050600015158173ffffffffffffffffffffffffffffffffffffffff167f8079a05488a0f375c08504c3ba8b3a1371f5a192b7a141bc9294ef7ad41389d984604051612a54919061596d565b60405180910390a3505b8267ffffffffffffffff16877fc99ac0d15229fa72f1b0756c0eed4e7ede3d80f4e4e0d308ce7a56d1366b8a03876040015184604051612a9f92919061597f565b60405180910390a3505050505b92915050565b60007f800000000000000000000000000000000000000000000000000000000000000082101515612b4e576040517f08c379a00000000000000000000000000000000000000000000000000000000081526004018080602001828103825260128152602001807f746f6f2062696720666f7220696e74323536000000000000000000000000000081526020015060200191505060405180910390fd5b819050612b56565b919050565b6000349050600060008413612b71576000612b73565b835b9050600060008512612b86576000612bba565b612bb97fffffffffffffffffffffffffffffffffffffffffffffffffffffffffffffffff866145c390919063ffffffff16565b5b9050600083118015612bcc5750600084115b151515612c0e576040517f08c379a0000000000000000000000000000000000000000000000000000000008152600401612c05906157e2565b60405180910390fd5b612c416000841180612c205750600085115b80612c2b5750600083115b80612c365750600082115b6123df63ffffffff16565b6000821115612d2d57612c5861442b63ffffffff16565b8760c0019067ffffffffffffffff16908167ffffffffffffffff1681526020015050612c918288604001516146f990919063ffffffff16565b87604001909081815260200150507f000000000000000000000000000000000000000000000000000000000000000073ffffffffffffffffffffffffffffffffffffffff16632b7c7b11836040518263ffffffff1660e01b8152600401612cf8919061596d565b600060405180830381600087803b158015612d135760006000fd5b505af1158015612d28573d600060003e3d6000fd5b505050505b6000811115612e7a57612d4461442b63ffffffff16565b67ffffffffffffffff16612d75610708610e10018960c0015167ffffffffffffffff1661478290919063ffffffff16565b67ffffffffffffffff16101515612dc1576040517f08c379a0000000000000000000000000000000000000000000000000000000008152600401612db890615725565b60405180910390fd5b8087604001511015612dd7578660400151905080505b8087604001818151039150909081815260200150507f000000000000000000000000000000000000000000000000000000000000000073ffffffffffffffffffffffffffffffffffffffff16632a7ba1f7826040518263ffffffff1660e01b8152600401612e45919061596d565b600060405180830381600087803b158015612e605760006000fd5b505af1158015612e75573d600060003e3d6000fd5b505050505b6000831115612ea957612e9a8388602001516146f990919063ffffffff16565b87602001909081815260200150505b6000841115612ed857612ec98488602001516143a290919063ffffffff16565b87602001909081815260200150505b600087604001511115612f6157600460005054876040015110151515612f33576040517f08c379a0000000000000000000000000000000000000000000000000000000008152600401612f2a90615847565b60405180910390fd5b6000841180612f425750600082115b15612f6057612f5f8760400151886020015161481f63ffffffff16565b5b5b7f000000000000000000000000000000000000000000000000000000000000000073ffffffffffffffffffffffffffffffffffffffff16635a6beaf487896040518363ffffffff1660e01b8152600401612fbc929190615a01565b600060405180830381600087803b158015612fd75760006000fd5b505af1158015612fec573d600060003e3d6000fd5b505050506000821115613089577f000000000000000000000000000000000000000000000000000000000000000073ffffffffffffffffffffffffffffffffffffffff1663449a52f833846040518363ffffffff1660e01b8152600401613054929190615587565b600060405180830381600087803b15801561306f5760006000fd5b505af1158015613084573d600060003e3d6000fd5b505050505b6000811115613122577f000000000000000000000000000000000000000000000000000000000000000073ffffffffffffffffffffffffffffffffffffffff166379cc679033836040518363ffffffff1660e01b81526004016130ed929190615587565b600060405180830381600087803b1580156131085760006000fd5b505af115801561311d573d600060003e3d6000fd5b505050505b600083111561315c5761315b7f0000000000000000000000000000000000000000000000000000000000000000846149d363ffffffff16565b5b60008411156131f5577f000000000000000000000000000000000000000000000000000000000000000073ffffffffffffffffffffffffffffffffffffffff16636250216933866040518363ffffffff1660e01b81526004016131c0929190615558565b600060405180830381600087803b1580156131db5760006000fd5b505af11580156131f0573d600060003e3d6000fd5b505050505b8567ffffffffffffffff167fdbaad0966fb140906c77f54a38b3e1ce6c60e87527bbc4ee0b9ad893e3de453b838386888c604001518d6020015160405161324196959493929190615998565b60405180910390a25050505b50505050565b61325b614cd1565b6000851415613292578660000151816000019090818152602001505086606001518160200190908181526020015050809050613437565b60006132d88767ffffffffffffffff16610e1067ffffffffffffffff166301e133808115156132bd57fe5b0467ffffffffffffffff16886142049092919063ffffffff16565b9050600085613301576132fc82670de0b6b3a76400006143a290919063ffffffff16565b61331d565b61331c82670de0b6b3a76400006146f990919063ffffffff16565b5b9050613336818a60600151613eec90919063ffffffff16565b836020019090818152602001505061336583602001518a606001518b600001516142049092919063ffffffff16565b83600001909081815260200150508860000151836000015111156133ce576000896000015184600001510390506133a58582613eec90919063ffffffff16565b846060019090818152602001505083606001518103846040019090818152602001505050613434565b88600001518360000151101561343357600083600001518a600001510390508581101515613421578960000151846000019090818152602001505089606001518460200190908181526020015050613431565b8084608001909081815260200150505b505b5b50505b9695505050505050565b8015156134b9576040517f08c379a000000000000000000000000000000000000000000000000000000000815260040180806020018281038252600e8152602001807f4e6f7420417574686f72697a656400000000000000000000000000000000000081526020015060200191505060405180910390fd5b5b50565b60006134cd614b5963ffffffff16565b9050600660049054906101000a900467ffffffffffffffff1667ffffffffffffffff168167ffffffffffffffff161115156135085750613d5d565b6000600660049054906101000a900467ffffffffffffffff168203905060007f000000000000000000000000000000000000000000000000000000000000000073ffffffffffffffffffffffffffffffffffffffff166306ef2d806040518163ffffffff1660e01b815260040160806040518083038186803b15801561358e5760006000fd5b505afa1580156135a3573d600060003e3d6000fd5b505050506040513d601f19601f820116820180604052508101906135c791906151ab565b905060007f000000000000000000000000000000000000000000000000000000000000000073ffffffffffffffffffffffffffffffffffffffff166343f48fbd6040518163ffffffff1660e01b815260040160206040518083038186803b1580156136325760006000fd5b505afa158015613647573d600060003e3d6000fd5b505050506040513d601f19601f8201168201806040525081019061366b9190614f84565b9050600061382583858473ffffffffffffffffffffffffffffffffffffffff1663a0fc0eda6040518163ffffffff1660e01b815260040160206040518083038186803b1580156136bb5760006000fd5b505afa1580156136d0573d600060003e3d6000fd5b505050506040513d601f19601f820116820180604052508101906136f49190615294565b8573ffffffffffffffffffffffffffffffffffffffff16636d7fa6646040518163ffffffff1660e01b815260040160206040518083038186803b15801561373b5760006000fd5b505afa158015613750573d600060003e3d6000fd5b505050506040513d601f19601f820116820180604052508101906137749190614ee9565b7f000000000000000000000000000000000000000000000000000000000000000073ffffffffffffffffffffffffffffffffffffffff166375172a8b6040518163ffffffff1660e01b815260040160206040518083038186803b1580156137db5760006000fd5b505afa1580156137f0573d600060003e3d6000fd5b505050506040513d601f19601f820116820180604052508101906138149190615294565b60056000505461325363ffffffff16565b90506000610e1067ffffffffffffffff166201518081151561384357fe5b0467ffffffffffffffff1661390c8667ffffffffffffffff167f000000000000000000000000000000000000000000000000000000000000000073ffffffffffffffffffffffffffffffffffffffff1663a5d4198b6040518163ffffffff1660e01b8152600401602060405180830381600087803b1580156138c55760006000fd5b505af11580156138da573d600060003e3d6000fd5b505050506040513d601f19601f820116820180604052508101906138fe9190615294565b614b7f90919063ffffffff16565b81151561391557fe5b0490506040518060800160405280836000015181526020016139448387602001516146f990919063ffffffff16565b815260200161398061396d8867ffffffffffffffff168860000151614b7f90919063ffffffff16565b87604001516146f990919063ffffffff16565b81526020018360200151815260200150935083507f000000000000000000000000000000000000000000000000000000000000000073ffffffffffffffffffffffffffffffffffffffff166378efc6b0856040518263ffffffff1660e01b81526004016139ed919061593c565b600060405180830381600087803b158015613a085760006000fd5b505af1158015613a1d573d600060003e3d6000fd5b5050505085600660046101000a81548167ffffffffffffffff021916908367ffffffffffffffff160217905550600082606001511115613b9c577f000000000000000000000000000000000000000000000000000000000000000073ffffffffffffffffffffffffffffffffffffffff16632c73f09e83606001516040518263ffffffff1660e01b8152600401613ab4919061596d565b600060405180830381600087803b158015613acf5760006000fd5b505af1158015613ae4573d600060003e3d6000fd5b505050507f000000000000000000000000000000000000000000000000000000000000000073ffffffffffffffffffffffffffffffffffffffff1663449a52f87f000000000000000000000000000000000000000000000000000000000000000084606001516040518363ffffffff1660e01b8152600401613b679291906155ef565b600060405180830381600087803b158015613b825760006000fd5b505af1158015613b97573d600060003e3d6000fd5b505050505b600082604001511115613c5d577f000000000000000000000000000000000000000000000000000000000000000073ffffffffffffffffffffffffffffffffffffffff1663449a52f87f000000000000000000000000000000000000000000000000000000000000000084604001516040518363ffffffff1660e01b8152600401613c289291906155ef565b600060405180830381600087803b158015613c435760006000fd5b505af1158015613c58573d600060003e3d6000fd5b505050505b600082608001511115613cfc577f000000000000000000000000000000000000000000000000000000000000000073ffffffffffffffffffffffffffffffffffffffff1663c59fb1ab83608001516040518263ffffffff1660e01b8152600401613cc7919061596d565b600060405180830381600087803b158015613ce25760006000fd5b505af1158015613cf7573d600060003e3d6000fd5b505050505b8567ffffffffffffffff167fdfc2183705a66b49f12c66a6d3b2fa5cf3b7c67086e9c6e90d144befc94f436c868660000151876020015188604001518960600151604051613d4e959493929190615a2c565b60405180910390a25050505050505b565b600060007f000000000000000000000000000000000000000000000000000000000000000073ffffffffffffffffffffffffffffffffffffffff16637f250c616040518163ffffffff1660e01b815260040160206040518083038186803b158015613dca5760006000fd5b505afa158015613ddf573d600060003e3d6000fd5b505050506040513d601f19601f82011682018060405250810190613e039190615294565b905060007f000000000000000000000000000000000000000000000000000000000000000073ffffffffffffffffffffffffffffffffffffffff166318160ddd6040518163ffffffff1660e01b815260040160206040518083038186803b158015613e6e5760006000fd5b505afa158015613e83573d600060003e3d6000fd5b505050506040513d601f19601f82011682018060405250810190613ea79190615294565b90506000811480613eb85750600082145b613ed457613ecf82826141de90919063ffffffff16565b613ede565b670de0b6b3a76400005b92505050613ee95650505b90565b6000613f078383670de0b6b3a764000061420463ffffffff16565b905080505b92915050565b600060008573ffffffffffffffffffffffffffffffffffffffff166323b872dd60e01b868686604051602401808473ffffffffffffffffffffffffffffffffffffffff1681526020018373ffffffffffffffffffffffffffffffffffffffff1681526020018281526020019350505050604051602081830303815290604052907bffffffffffffffffffffffffffffffffffffffffffffffffffffffff19166020820180517bffffffffffffffffffffffffffffffffffffffffffffffffffffffff83818316178352505050506040518082805190602001908083835b60208310151561401557805182525b602082019150602081019050602083039250613fef565b6001836020036101000a0380198251168184511680821785525050505050509050019150506000604051808303816000865af19150503d8060008114614077576040519150601f19603f3d011682016040523d82523d6000602084013e61407c565b606091505b50915091508180156140bd57506000815114806140bc57508080602001905160208110156140aa5760006000fd5b81019080805190602001909291905050505b5b1515614134576040517f08c379a00000000000000000000000000000000000000000000000000000000081526004018080602001828103825260038152602001807f535446000000000000000000000000000000000000000000000000000000000081526020015060200191505060405180910390fd5b50505b50505050565b6002600260005054141515156141be576040517f08c379a000000000000000000000000000000000000000000000000000000000815260040180806020018281038252600d8152602001807f4c43205265656e7472616e63790000000000000000000000000000000000000081526020015060200191505060405180910390fd5b600260026000508190909055505b565b600160026000508190909055505b565b60006141f983670de0b6b3a76400008461420463ffffffff16565b905080505b92915050565b6000600060006000198587098587029250828110838203039150506000811415614247576000841115156142385760006000fd5b838204925082925050506142fe565b80841115156142565760006000fd5b60008486880990508281118203915080830392506000858660000316905080860495508084049350600181826000030401905080830284179350835060006002876003021890508087026002038102905080508087026002038102905080508087026002038102905080508087026002038102905080508087026002038102905080508087026002038102905080508085029550855085955050505050506142fe5650505050505b9392505050565b60008267ffffffffffffffff1682840391508167ffffffffffffffff161115151561439b576040517f08c379a000000000000000000000000000000000000000000000000000000000815260040180806020018281038252600d8152602001807f7375622d756e646572666c6f770000000000000000000000000000000000000081526020015060200191505060405180910390fd5b5b92915050565b60008282840391508111151515614424576040517f08c379a000000000000000000000000000000000000000000000000000000000815260040180806020018281038252600d8152602001807f7375622d756e646572666c6f770000000000000000000000000000000000000081526020015060200191505060405180910390fd5b5b92915050565b600061443e42611f26909063ffffffff16565b905080505b90565b600061445661442b63ffffffff16565b9050805060007f000000000000000000000000000000000000000000000000000000000000000073ffffffffffffffffffffffffffffffffffffffff1663585690816040518163ffffffff1660e01b815260040160206040518083038186803b1580156144c35760006000fd5b505afa1580156144d8573d600060003e3d6000fd5b505050506040513d601f19601f820116820180604052508101906144fc919061532f565b905060008167ffffffffffffffff1611801561452b57508167ffffffffffffffff168167ffffffffffffffff16105b156145365780915081505b505b90565b60006145b97f00000000000000000000000000000000000000000000000000000000000000007f000000000000000000000000000000000000000000000000000000000000000067ffffffffffffffff168467ffffffffffffffff168115156145a057fe5b0467ffffffffffffffff1661430590919063ffffffff16565b905080505b919050565b600060008314156145d757600090506146f3565b7fffffffffffffffffffffffffffffffffffffffffffffffffffffffffffffffff8314801561462557507f800000000000000000000000000000000000000000000000000000000000000082145b15151561467d576040517f08c379a0000000000000000000000000000000000000000000000000000000008152600401808060200182810382526027815260200180615b1b6027913960400191505060405180910390fd5b6000828402905082848281151561469057fe5b051415156146e9576040517f08c379a0000000000000000000000000000000000000000000000000000000008152600401808060200182810382526027815260200180615b1b6027913960400191505060405180910390fd5b809150506146f356505b92915050565b6000828284019150811015151561477b576040517f08c379a000000000000000000000000000000000000000000000000000000000815260040180806020018281038252600c8152602001807f6164642d6f766572666c6f77000000000000000000000000000000000000000081526020015060200191505060405180910390fd5b5b92915050565b60008267ffffffffffffffff1682840191508167ffffffffffffffff1610151515614818576040517f08c379a000000000000000000000000000000000000000000000000000000000815260040180806020018281038252600c8152602001807f6164642d6f766572666c6f77000000000000000000000000000000000000000081526020015060200191505060405180910390fd5b5b92915050565b60007f000000000000000000000000000000000000000000000000000000000000000073ffffffffffffffffffffffffffffffffffffffff1663d3419bf36040518163ffffffff1660e01b815260040160206040518083038186803b1580156148885760006000fd5b505afa15801561489d573d600060003e3d6000fd5b505050506040513d601f19601f820116820180604052508101906148c19190614f5d565b73ffffffffffffffffffffffffffffffffffffffff1663fa42dcf4600660009054906101000a900463ffffffff166040518263ffffffff1660e01b815260040161490b91906159cd565b60206040518083038186803b1580156149245760006000fd5b505afa158015614939573d600060003e3d6000fd5b505050506040513d601f19601f8201168201806040525081019061495d9190615294565b905061497783600360005054614b7f90919063ffffffff16565b61498a8284614b7f90919063ffffffff16565b101515156149cd576040517f08c379a00000000000000000000000000000000000000000000000000000000081526004016149c490615886565b60405180910390fd5b505b5050565b60008273ffffffffffffffffffffffffffffffffffffffff1682600067ffffffffffffffff81118015614a065760006000fd5b506040519080825280601f01601f191660200182016040528015614a395781602001600182028036833780820191505090505b506040518082805190602001908083835b602083101515614a7057805182525b602082019150602081019050602083039250614a4a565b6001836020036101000a03801982511681845116808217855250505050505090500191505060006040518083038185875af1925050503d8060008114614ad2576040519150601f19603f3d011682016040523d82523d6000602084013e614ad7565b606091505b50509050801515614b53576040517f08c379a00000000000000000000000000000000000000000000000000000000081526004018080602001828103825260038152602001807f535445000000000000000000000000000000000000000000000000000000000081526020015060200191505060405180910390fd5b505b5050565b6000614b77614b6c61444663ffffffff16565b61453b63ffffffff16565b905080505b90565b60006000821480614b9f57508282838502925082811515614b9c57fe5b04145b1515614c16576040517f08c379a000000000000000000000000000000000000000000000000000000000815260040180806020018281038252600c8152602001807f6d756c2d6f766572666c6f77000000000000000000000000000000000000000081526020015060200191505060405180910390fd5b5b92915050565b604051806101a001604052806000815260200160008152602001600081526020016000815260200160008152602001600067ffffffffffffffff168152602001600067ffffffffffffffff168152602001600060020b8152602001600015158152602001600067ffffffffffffffff168152602001600063ffffffff168152602001600073ffffffffffffffffffffffffffffffffffffffff168152602001600067ffffffffffffffff1681526020015090565b6040518060a001604052806000815260200160008152602001600081526020016000815260200160008152602001509056615b19565b600081359050614d1681615a8f565b5b919050565b600081519050614d2b81615a8f565b5b919050565b600081359050614d4081615ab8565b5b919050565b600081519050614d5581615ab8565b5b919050565b600081359050614d6a81615acd565b5b919050565b600081519050614d7f81615acd565b5b919050565b600060808284031215614d96578081fd5b6040516080810181811067ffffffffffffffff82111715614db357fe5b806040525080915082358152602083013560208201526040830135604082015260608301356060820152505b92915050565b600081359050614df481615ae3565b5b919050565b600081519050614e0981615ae3565b5b919050565b600081359050614e1e81615afc565b5b919050565b600081519050614e3381615afc565b5b919050565b600060208284031215614e4a578081fd5b8151614e5581615a8f565b809150505b92915050565b60006000600060408486031215614e75578182fd5b833567ffffffffffffffff80821115614e8c578384fd5b818601915086601f8301121515614ea1578384fd5b813581811115614eaf578485fd5b876020602083028501011115614ec3578485fd5b6020830195508094505050506020840135614edd81615ae3565b809150505b9250925092565b600060208284031215614efa578081fd5b8151614f0581615ab8565b809150505b92915050565b600060208284031215614f21578081fd5b81357fffffffff00000000000000000000000000000000000000000000000000000000811681141515614f52578182fd5b809150505b92915050565b600060208284031215614f6e578081fd5b8151614f7981615a8f565b809150505b92915050565b600060208284031215614f95578081fd5b8151614fa081615a8f565b809150505b92915050565b60006101a0808385031215614fbe578182fd5b614fc781615a64565b9050825181526020830151602082015260408301516040820152606083015160608201526080830151608082015261500160a08401614e24565b60a082015261501260c08401614e24565b60c082015261502360e08401614d70565b60e0820152610100615036818501614d46565b8183015250610120615049818501614e24565b818301525061014061505c818501614dfa565b818301525061016061506f818501614d1c565b8183015250610180615082818501614e24565b8183015250809150505b92915050565b6000600060008385036102408112156150a9578182fd5b6101a0808212156150b8578283fd5b6150c181615a64565b915085358252602086013560208301526040860135604083015260608601356060830152608086013560808301526150fb60a08701614e0f565b60a083015261510c60c08701614e0f565b60c083015261511d60e08701614d5b565b60e0830152610100615130818801614d31565b8184015250610120615143818801614e0f565b8184015250610140615156818801614de5565b8184015250610160615169818801614d07565b818401525061018061517c818801614e0f565b818401525081945061519087828801614d85565b935050506151a16102208501614e0f565b90505b9250925092565b6000608082840312156151bc578081fd5b6040516080810181811067ffffffffffffffff821117156151d957fe5b806040525082518152602083015160208201526040830151604082015260608301516060820152809150505b92915050565b6000600060006000600060006101208789031215615227578384fd5b6152318888614d85565b9550608087013561524181615afc565b8095505060a0870135935060c087013561525a81615ab8565b8093505060e0870135915061010087013590505b9295509295509295565b600060208284031215615289578081fd5b813590505b92915050565b6000602082840312156152a5578081fd5b815190505b92915050565b60006000604083850312156152c3578182fd5b8235915060208301356152d581615ae3565b809150505b9250929050565b6000602082840312156152f2578081fd5b81356152fd81615ae3565b809150505b92915050565b600060208284031215615319578081fd5b813561532481615afc565b809150505b92915050565b600060208284031215615340578081fd5b815161534b81615afc565b809150505b92915050565b60006000600060006080858703121561536d578182fd5b843561537881615afc565b809450506020850135925060408501359150606085013561539881615ae3565b809150505b92959194509250565b60006000604083850312156153b9578182fd5b82356153c481615afc565b8092505060208301356153d681615ae3565b809150505b9250929050565b73ffffffffffffffffffffffffffffffffffffffff811682525b5050565b80151582525b5050565b8060020b82525b5050565b805182526020810151602083015260408101516040830152606081015160608301526080810151608083015260a081015161545360a08401826154f6565b5060c081015161546660c08401826154f6565b5060e081015161547960e084018261540a565b506101008082015161548d82850182615400565b5050610120808201516154a2828501826154f6565b5050610140808201516154b7828501826154e8565b5050610160808201516154cc828501826153e2565b5050610180808201516154e1828501826154f6565b50505b5050565b63ffffffff811682525b5050565b67ffffffffffffffff811682525b5050565b600060208201905073ffffffffffffffffffffffffffffffffffffffff831682525b92915050565b600060208201905073ffffffffffffffffffffffffffffffffffffffff831682525b92915050565b600060408201905073ffffffffffffffffffffffffffffffffffffffff841682528260208301525b9392505050565b600060408201905073ffffffffffffffffffffffffffffffffffffffff841682528260208301525b9392505050565b600060408201905073ffffffffffffffffffffffffffffffffffffffff8416825267ffffffffffffffff831660208301525b9392505050565b600060408201905073ffffffffffffffffffffffffffffffffffffffff841682528260208301525b9392505050565b600060208201905082151582525b92915050565b600060208201905073ffffffffffffffffffffffffffffffffffffffff831682525b92915050565b600060208201905073ffffffffffffffffffffffffffffffffffffffff831682525b92915050565b600060208201905073ffffffffffffffffffffffffffffffffffffffff831682525b92915050565b600060208201905073ffffffffffffffffffffffffffffffffffffffff831682525b92915050565b600060208201905073ffffffffffffffffffffffffffffffffffffffff831682525b92915050565b60006101c08201905067ffffffffffffffff8416825261571d6020830184615415565b5b9392505050565b600060208252600f60208301527f4e6f20666c61736820626f72726f77000000000000000000000000000000000060408301526060820190505b919050565b600060208252600460208301527f4e6f6f700000000000000000000000000000000000000000000000000000000060408301526060820190505b919050565b600060208252601360208301527f4d7573742061646420636f6c6c61746572616c0000000000000000000000000060408301526060820190505b919050565b600060208252602360208301527f43616e7420696e637265617365202620646563726561736520636f6c6c61746560408301527f72616c000000000000000000000000000000000000000000000000000000000060608301526080820190505b919050565b600060208252601260208301527f506f736974696f6e20746f6f20736d616c6c000000000000000000000000000060408301526060820190505b919050565b600060208252601760208301527f496e73756666696369656e7420636f6c6c61746572616c00000000000000000060408301526060820190505b919050565b600060a08201905082518252602083015160208301526040830151604083015260608301516060830152608083015160808301525b92915050565b60006101a0820190506159138284615415565b5b92915050565b60006101c08201905061592d8285615415565b826101a08301525b9392505050565b6000608082019050825182526020830151602083015260408301516040830152606083015160608301525b92915050565b60006020820190508282525b92915050565b60006040820190508382528260208301525b9392505050565b600060c0820190508782528660208301528560408301528460608301528360808301528260a08301525b979650505050505050565b600060208201905063ffffffff831682525b92915050565b600060208201905067ffffffffffffffff831682525b92915050565b60006101c08201905067ffffffffffffffff84168252615a246020830184615415565b5b9392505050565b600060a08201905067ffffffffffffffff871682528560208301528460408301528360608301528260808301525b9695505050505050565b6000604051905081810181811067ffffffffffffffff82111715615a8457fe5b80604052505b919050565b73ffffffffffffffffffffffffffffffffffffffff811681141515615ab45760006000fd5b5b50565b80151581141515615ac95760006000fd5b5b50565b8060020b81141515615adf5760006000fd5b5b50565b63ffffffff811681141515615af85760006000fd5b5b50565b67ffffffffffffffff811681141515615b155760006000fd5b5b50565bfe5369676e6564536166654d6174683a206d756c7469706c69636174696f6e206f766572666c6f77a2646970667358221220e4a96727bbfb811407bdae769ec845bdfe48f436bf5767fc388ad133445d0e8264736f6c63430007060033",
  "linkReferences": {},
  "deployedLinkReferences": {}
}