{
  "_format": "hh-sol-artifact-1",
  "contractName": "MarketTestable",
  "sourceName": "contracts/mocks/MarketTestable.sol",
  "abi": [
    {
      "inputs": [
        {
          "components": [
            {
              "internalType": "contract IGovernor",
              "name": "Governor",
              "type": "address"
            },
            {
              "internalType": "contract IProtocolLock",
              "name": "ProtocolLock",
              "type": "address"
            },
            {
              "internalType": "contract IPositionNFT",
              "name": "HuePositionNFT",
              "type": "address"
            },
            {
              "internalType": "contract IHue",
              "name": "Hue",
              "type": "address"
            },
            {
              "internalType": "contract ILendHue",
              "name": "LendHue",
              "type": "address"
            },
            {
              "internalType": "contract IAccounting",
              "name": "Accounting",
              "type": "address"
            }
          ],
          "internalType": "struct IMarket.ConstructorParams",
          "name": "params",
          "type": "tuple"
        }
      ],
      "stateMutability": "nonpayable",
      "type": "constructor"
    },
    {
      "anonymous": false,
      "inputs": [
        {
          "indexed": false,
          "internalType": "uint256",
          "name": "requirement",
          "type": "uint256"
        }
      ],
      "name": "CollateralizationRequirementUpdated",
      "type": "event"
    },
    {
      "anonymous": false,
      "inputs": [
        {
          "indexed": true,
          "internalType": "uint64",
          "name": "period",
          "type": "uint64"
        },
        {
          "indexed": false,
          "internalType": "uint64",
          "name": "periods",
          "type": "uint64"
        },
        {
          "indexed": false,
          "internalType": "uint256",
          "name": "newDebt",
          "type": "uint256"
        },
        {
          "indexed": false,
          "internalType": "uint256",
          "name": "rewardCount",
          "type": "uint256"
        },
        {
          "indexed": false,
          "internalType": "uint256",
          "name": "cumulativeDebt",
          "type": "uint256"
        },
        {
          "indexed": false,
          "internalType": "uint256",
          "name": "debtExchangeRate",
          "type": "uint256"
        }
      ],
      "name": "InterestAccrued",
      "type": "event"
    },
    {
      "anonymous": false,
      "inputs": [
        {
          "indexed": false,
          "internalType": "uint256",
          "name": "percentage",
          "type": "uint256"
        }
      ],
      "name": "InterestPortionToLendersUpdated",
      "type": "event"
    },
    {
      "anonymous": false,
      "inputs": [
        {
          "indexed": true,
          "internalType": "address",
          "name": "account",
          "type": "address"
        },
        {
          "indexed": false,
          "internalType": "uint256",
          "name": "hueCount",
          "type": "uint256"
        },
        {
          "indexed": false,
          "internalType": "uint256",
          "name": "lendTokenCount",
          "type": "uint256"
        }
      ],
      "name": "Lend",
      "type": "event"
    },
    {
      "anonymous": false,
      "inputs": [
        {
          "indexed": false,
          "internalType": "uint256",
          "name": "size",
          "type": "uint256"
        }
      ],
      "name": "MinPositionSizeUpdated",
      "type": "event"
    },
    {
      "anonymous": false,
      "inputs": [
        {
          "indexed": true,
          "internalType": "uint64",
          "name": "positionID",
          "type": "uint64"
        },
        {
          "indexed": false,
          "internalType": "uint256",
          "name": "debtIncrease",
          "type": "uint256"
        },
        {
          "indexed": false,
          "internalType": "uint256",
          "name": "debtDecrease",
          "type": "uint256"
        },
        {
          "indexed": false,
          "internalType": "uint256",
          "name": "collateralIncrease",
          "type": "uint256"
        },
        {
          "indexed": false,
          "internalType": "uint256",
          "name": "collateralDecrease",
          "type": "uint256"
        },
        {
          "indexed": false,
          "internalType": "uint256",
          "name": "newDebt",
          "type": "uint256"
        },
        {
          "indexed": false,
          "internalType": "uint256",
          "name": "newCollateral",
          "type": "uint256"
        }
      ],
      "name": "PositionAdjusted",
      "type": "event"
    },
    {
      "anonymous": false,
      "inputs": [
        {
          "indexed": true,
          "internalType": "address",
          "name": "creator",
          "type": "address"
        },
        {
          "indexed": true,
          "internalType": "uint64",
          "name": "positionID",
          "type": "uint64"
        },
        {
          "indexed": false,
          "internalType": "uint256",
          "name": "initialDebt",
          "type": "uint256"
        }
      ],
      "name": "PositionCreated",
      "type": "event"
    },
    {
      "anonymous": false,
      "inputs": [
        {
          "indexed": true,
          "internalType": "uint256",
          "name": "positionID",
          "type": "uint256"
        },
        {
          "indexed": true,
          "internalType": "uint64",
          "name": "period",
          "type": "uint64"
        },
        {
          "indexed": false,
          "internalType": "uint256",
          "name": "debtAfter",
          "type": "uint256"
        },
        {
          "indexed": false,
          "internalType": "uint256",
          "name": "tcpRewards",
          "type": "uint256"
        }
      ],
      "name": "PositionUpdated",
      "type": "event"
    },
    {
      "anonymous": false,
      "inputs": [
        {
          "indexed": true,
          "internalType": "address",
          "name": "account",
          "type": "address"
        },
        {
          "indexed": true,
          "internalType": "bool",
          "name": "isKickback",
          "type": "bool"
        },
        {
          "indexed": false,
          "internalType": "uint256",
          "name": "tcpRewards",
          "type": "uint256"
        }
      ],
      "name": "RewardsDistributed",
      "type": "event"
    },
    {
      "anonymous": false,
      "inputs": [],
      "name": "Stopped",
      "type": "event"
    },
    {
      "anonymous": false,
      "inputs": [
        {
          "indexed": false,
          "internalType": "uint32",
          "name": "duration",
          "type": "uint32"
        }
      ],
      "name": "TwapDurationUpdated",
      "type": "event"
    },
    {
      "anonymous": false,
      "inputs": [
        {
          "indexed": true,
          "internalType": "address",
          "name": "account",
          "type": "address"
        },
        {
          "indexed": false,
          "internalType": "uint256",
          "name": "hueCount",
          "type": "uint256"
        },
        {
          "indexed": false,
          "internalType": "uint256",
          "name": "lendTokenCount",
          "type": "uint256"
        }
      ],
      "name": "Unlend",
      "type": "event"
    },
    {
      "inputs": [],
      "name": "accounting",
      "outputs": [
        {
          "internalType": "contract IAccounting",
          "name": "",
          "type": "address"
        }
      ],
      "stateMutability": "view",
      "type": "function"
    },
    {
      "inputs": [],
      "name": "accrueInterest",
      "outputs": [],
      "stateMutability": "nonpayable",
      "type": "function"
    },
    {
      "inputs": [
        {
          "internalType": "uint64",
          "name": "positionID",
          "type": "uint64"
        },
        {
          "internalType": "int256",
          "name": "debtChange",
          "type": "int256"
        },
        {
          "internalType": "uint256",
          "name": "collateralDecrease",
          "type": "uint256"
        },
        {
          "internalType": "uint32",
          "name": "ui",
          "type": "uint32"
        }
      ],
      "name": "adjustPosition",
      "outputs": [],
      "stateMutability": "payable",
      "type": "function"
    },
    {
      "inputs": [
        {
          "components": [
            {
              "internalType": "uint256",
              "name": "debt",
              "type": "uint256"
            },
            {
              "internalType": "uint256",
              "name": "totalTCPRewards",
              "type": "uint256"
            },
            {
              "internalType": "uint256",
              "name": "cumulativeDebt",
              "type": "uint256"
            },
            {
              "internalType": "uint256",
              "name": "debtExchangeRate",
              "type": "uint256"
            }
          ],
          "internalType": "struct IAccounting.SystemDebtInfo",
          "name": "sdi",
          "type": "tuple"
        },
        {
          "internalType": "uint64",
          "name": "periods",
          "type": "uint64"
        },
        {
          "internalType": "uint256",
          "name": "annualInterestRate",
          "type": "uint256"
        },
        {
          "internalType": "bool",
          "name": "positiveInterestRate",
          "type": "bool"
        },
        {
          "internalType": "uint256",
          "name": "reserves",
          "type": "uint256"
        },
        {
          "internalType": "uint256",
          "name": "_interestPortionToLenders",
          "type": "uint256"
        }
      ],
      "name": "calculateInterest",
      "outputs": [
        {
          "components": [
            {
              "internalType": "uint256",
              "name": "newDebt",
              "type": "uint256"
            },
            {
              "internalType": "uint256",
              "name": "newExchangeRate",
              "type": "uint256"
            },
            {
              "internalType": "uint256",
              "name": "additionalReserves",
              "type": "uint256"
            },
            {
              "internalType": "uint256",
              "name": "additionalLends",
              "type": "uint256"
            },
            {
              "internalType": "uint256",
              "name": "reducedReserves",
              "type": "uint256"
            }
          ],
          "internalType": "struct IMarket.CalculatedInterestInfo",
          "name": "cii",
          "type": "tuple"
        }
      ],
      "stateMutability": "pure",
      "type": "function"
    },
    {
      "inputs": [
        {
          "internalType": "uint64[]",
          "name": "positionIDs",
          "type": "uint64[]"
        },
        {
          "internalType": "uint32",
          "name": "ui",
          "type": "uint32"
        }
      ],
      "name": "claimAllRewards",
      "outputs": [],
      "stateMutability": "nonpayable",
      "type": "function"
    },
    {
      "inputs": [],
      "name": "collateralizationRequirement",
      "outputs": [
        {
          "internalType": "uint256",
          "name": "",
          "type": "uint256"
        }
      ],
      "stateMutability": "view",
      "type": "function"
    },
    {
      "inputs": [
        {
          "internalType": "uint256",
          "name": "initialDebt",
          "type": "uint256"
        },
        {
          "internalType": "uint32",
          "name": "ui",
          "type": "uint32"
        }
      ],
      "name": "createPosition",
      "outputs": [
        {
          "internalType": "uint64",
          "name": "positionID",
          "type": "uint64"
        }
      ],
      "stateMutability": "payable",
      "type": "function"
    },
    {
      "inputs": [],
      "name": "currentPeriod",
      "outputs": [
        {
          "internalType": "uint64",
          "name": "period",
          "type": "uint64"
        }
      ],
      "stateMutability": "view",
      "type": "function"
    },
    {
      "inputs": [],
      "name": "deployer",
      "outputs": [
        {
          "internalType": "address",
          "name": "",
          "type": "address"
        }
      ],
      "stateMutability": "view",
      "type": "function"
    },
    {
      "inputs": [],
      "name": "firstPeriod",
      "outputs": [
        {
          "internalType": "uint64",
          "name": "",
          "type": "uint64"
        }
      ],
      "stateMutability": "view",
      "type": "function"
    },
    {
      "inputs": [],
      "name": "governor",
      "outputs": [
        {
          "internalType": "contract IGovernor",
          "name": "",
          "type": "address"
        }
      ],
      "stateMutability": "view",
      "type": "function"
    },
    {
      "inputs": [],
      "name": "hue",
      "outputs": [
        {
          "internalType": "contract IHue",
          "name": "",
          "type": "address"
        }
      ],
      "stateMutability": "view",
      "type": "function"
    },
    {
      "inputs": [],
      "name": "huePositionNFT",
      "outputs": [
        {
          "internalType": "contract IPositionNFT",
          "name": "",
          "type": "address"
        }
      ],
      "stateMutability": "view",
      "type": "function"
    },
    {
      "inputs": [],
      "name": "init",
      "outputs": [],
      "stateMutability": "nonpayable",
      "type": "function"
    },
    {
      "inputs": [],
      "name": "interestPortionToLenders",
      "outputs": [
        {
          "internalType": "uint256",
          "name": "",
          "type": "uint256"
        }
      ],
      "stateMutability": "view",
      "type": "function"
    },
    {
      "inputs": [],
      "name": "lastPeriodGlobalInterestAccrued",
      "outputs": [
        {
          "internalType": "uint64",
          "name": "",
          "type": "uint64"
        }
      ],
      "stateMutability": "view",
      "type": "function"
    },
    {
      "inputs": [
        {
          "internalType": "uint256",
          "name": "hueCount",
          "type": "uint256"
        }
      ],
      "name": "lend",
      "outputs": [],
      "stateMutability": "nonpayable",
      "type": "function"
    },
    {
      "inputs": [],
      "name": "lendHue",
      "outputs": [
        {
          "internalType": "contract ILendHue",
          "name": "",
          "type": "address"
        }
      ],
      "stateMutability": "view",
      "type": "function"
    },
    {
      "inputs": [],
      "name": "minPositionSize",
      "outputs": [
        {
          "internalType": "uint256",
          "name": "",
          "type": "uint256"
        }
      ],
      "stateMutability": "view",
      "type": "function"
    },
    {
      "inputs": [],
      "name": "periodLength",
      "outputs": [
        {
          "internalType": "uint64",
          "name": "",
          "type": "uint64"
        }
      ],
      "stateMutability": "view",
      "type": "function"
    },
    {
      "inputs": [
        {
          "internalType": "uint64",
          "name": "positionID",
          "type": "uint64"
        }
      ],
      "name": "removeKickback",
      "outputs": [],
      "stateMutability": "nonpayable",
      "type": "function"
    },
    {
      "inputs": [
        {
          "internalType": "uint256",
          "name": "requirement",
          "type": "uint256"
        }
      ],
      "name": "setCollateralizationRequirement",
      "outputs": [],
      "stateMutability": "nonpayable",
      "type": "function"
    },
    {
      "inputs": [
        {
          "internalType": "uint256",
          "name": "percentage",
          "type": "uint256"
        }
      ],
      "name": "setInterestPortionToLenders",
      "outputs": [],
      "stateMutability": "nonpayable",
      "type": "function"
    },
    {
      "inputs": [
        {
          "internalType": "uint256",
          "name": "size",
          "type": "uint256"
        }
      ],
      "name": "setMinPositionSize",
      "outputs": [],
      "stateMutability": "nonpayable",
      "type": "function"
    },
    {
      "inputs": [
        {
          "internalType": "uint32",
          "name": "duration",
          "type": "uint32"
        }
      ],
      "name": "setTwapDuration",
      "outputs": [],
      "stateMutability": "nonpayable",
      "type": "function"
    },
    {
      "inputs": [],
      "name": "stop",
      "outputs": [],
      "stateMutability": "nonpayable",
      "type": "function"
    },
    {
      "inputs": [],
      "name": "stopped",
      "outputs": [
        {
          "internalType": "bool",
          "name": "",
          "type": "bool"
        }
      ],
      "stateMutability": "view",
      "type": "function"
    },
    {
      "inputs": [
        {
          "internalType": "uint64",
          "name": "positionID",
          "type": "uint64"
        }
      ],
      "name": "systemGetUpdatedPosition",
      "outputs": [
        {
          "components": [
            {
              "internalType": "uint256",
              "name": "startCumulativeDebt",
              "type": "uint256"
            },
            {
              "internalType": "uint256",
              "name": "collateral",
              "type": "uint256"
            },
            {
              "internalType": "uint256",
              "name": "debt",
              "type": "uint256"
            },
            {
              "internalType": "uint256",
              "name": "startDebtExchangeRate",
              "type": "uint256"
            },
            {
              "internalType": "uint256",
              "name": "startTCPRewards",
              "type": "uint256"
            },
            {
              "internalType": "uint64",
              "name": "lastTimeUpdated",
              "type": "uint64"
            },
            {
              "internalType": "uint64",
              "name": "lastBorrowTime",
              "type": "uint64"
            },
            {
              "internalType": "int24",
              "name": "tick",
              "type": "int24"
            },
            {
              "internalType": "bool",
              "name": "tickSet",
              "type": "bool"
            },
            {
              "internalType": "uint64",
              "name": "tickIndex",
              "type": "uint64"
            },
            {
              "internalType": "uint32",
              "name": "ui",
              "type": "uint32"
            },
            {
              "internalType": "address",
              "name": "kickbackDestination",
              "type": "address"
            },
            {
              "internalType": "uint64",
              "name": "kickbackPortion",
              "type": "uint64"
            }
          ],
          "internalType": "struct IAccounting.DebtPosition",
          "name": "",
          "type": "tuple"
        }
      ],
      "stateMutability": "nonpayable",
      "type": "function"
    },
    {
      "inputs": [],
      "name": "twapDuration",
      "outputs": [
        {
          "internalType": "uint32",
          "name": "",
          "type": "uint32"
        }
      ],
      "stateMutability": "view",
      "type": "function"
    },
    {
      "inputs": [
        {
          "internalType": "uint256",
          "name": "lendTokenCount",
          "type": "uint256"
        }
      ],
      "name": "unlend",
      "outputs": [],
      "stateMutability": "nonpayable",
      "type": "function"
    },
    {
      "inputs": [
        {
          "components": [
            {
              "internalType": "uint256",
              "name": "startCumulativeDebt",
              "type": "uint256"
            },
            {
              "internalType": "uint256",
              "name": "collateral",
              "type": "uint256"
            },
            {
              "internalType": "uint256",
              "name": "debt",
              "type": "uint256"
            },
            {
              "internalType": "uint256",
              "name": "startDebtExchangeRate",
              "type": "uint256"
            },
            {
              "internalType": "uint256",
              "name": "startTCPRewards",
              "type": "uint256"
            },
            {
              "internalType": "uint64",
              "name": "lastTimeUpdated",
              "type": "uint64"
            },
            {
              "internalType": "uint64",
              "name": "lastBorrowTime",
              "type": "uint64"
            },
            {
              "internalType": "int24",
              "name": "tick",
              "type": "int24"
            },
            {
              "internalType": "bool",
              "name": "tickSet",
              "type": "bool"
            },
            {
              "internalType": "uint64",
              "name": "tickIndex",
              "type": "uint64"
            },
            {
              "internalType": "uint32",
              "name": "ui",
              "type": "uint32"
            },
            {
              "internalType": "address",
              "name": "kickbackDestination",
              "type": "address"
            },
            {
              "internalType": "uint64",
              "name": "kickbackPortion",
              "type": "uint64"
            }
          ],
          "internalType": "struct IAccounting.DebtPosition",
          "name": "_position",
          "type": "tuple"
        },
        {
          "components": [
            {
              "internalType": "uint256",
              "name": "debt",
              "type": "uint256"
            },
            {
              "internalType": "uint256",
              "name": "totalTCPRewards",
              "type": "uint256"
            },
            {
              "internalType": "uint256",
              "name": "cumulativeDebt",
              "type": "uint256"
            },
            {
              "internalType": "uint256",
              "name": "debtExchangeRate",
              "type": "uint256"
            }
          ],
          "internalType": "struct IAccounting.SystemDebtInfo",
          "name": "sdi",
          "type": "tuple"
        },
        {
          "internalType": "uint64",
          "name": "timeNow",
          "type": "uint64"
        }
      ],
      "name": "updatePositionImpl",
      "outputs": [
        {
          "components": [
            {
              "internalType": "uint256",
              "name": "startCumulativeDebt",
              "type": "uint256"
            },
            {
              "internalType": "uint256",
              "name": "collateral",
              "type": "uint256"
            },
            {
              "internalType": "uint256",
              "name": "debt",
              "type": "uint256"
            },
            {
              "internalType": "uint256",
              "name": "startDebtExchangeRate",
              "type": "uint256"
            },
            {
              "internalType": "uint256",
              "name": "startTCPRewards",
              "type": "uint256"
            },
            {
              "internalType": "uint64",
              "name": "lastTimeUpdated",
              "type": "uint64"
            },
            {
              "internalType": "uint64",
              "name": "lastBorrowTime",
              "type": "uint64"
            },
            {
              "internalType": "int24",
              "name": "tick",
              "type": "int24"
            },
            {
              "internalType": "bool",
              "name": "tickSet",
              "type": "bool"
            },
            {
              "internalType": "uint64",
              "name": "tickIndex",
              "type": "uint64"
            },
            {
              "internalType": "uint32",
              "name": "ui",
              "type": "uint32"
            },
            {
              "internalType": "address",
              "name": "kickbackDestination",
              "type": "address"
            },
            {
              "internalType": "uint64",
              "name": "kickbackPortion",
              "type": "uint64"
            }
          ],
          "internalType": "struct IAccounting.DebtPosition",
          "name": "position",
          "type": "tuple"
        },
        {
          "internalType": "uint256",
          "name": "rewards",
          "type": "uint256"
        }
      ],
      "stateMutability": "pure",
      "type": "function"
    },
    {
      "inputs": [
        {
          "internalType": "bytes4",
          "name": "",
          "type": "bytes4"
        }
      ],
      "name": "validUpdate",
      "outputs": [
        {
          "internalType": "bool",
          "name": "",
          "type": "bool"
        }
      ],
      "stateMutability": "view",
      "type": "function"
    },
    {
      "inputs": [
        {
          "internalType": "uint256",
          "name": "lendTokenCount",
          "type": "uint256"
        }
      ],
      "name": "valueOfLendTokensInHue",
      "outputs": [
        {
          "internalType": "uint256",
          "name": "",
          "type": "uint256"
        }
      ],
      "stateMutability": "view",
      "type": "function"
    }
  ],
  "bytecode": "0x610180604052600160026000509090556714d1120d7b160000600360005090905568056bc75e2d6310000060046000509090556702c68af0bb1400006005600050909055610708600660006101000a81548163ffffffff021916908363ffffffff160217905550348015620000745760006000fd5b50604051620060813803806200608183398181016040528101906200009a919062000598565b5b805b610e105b816000015182602001515b815b8073ffffffffffffffffffffffffffffffffffffffff1660808173ffffffffffffffffffffffffffffffffffffffff1660601b815260140150505b508073ffffffffffffffffffffffffffffffffffffffff1660a08173ffffffffffffffffffffffffffffffffffffffff1660601b815260140150505b505060018167ffffffffffffffff1662000144620004c660201b60201c565b67ffffffffffffffff168115156200015857fe5b040367ffffffffffffffff1660e08167ffffffffffffffff1660c01b815260080150508067ffffffffffffffff1660c08167ffffffffffffffff1660c01b815260080150505b50806040015173ffffffffffffffffffffffffffffffffffffffff166101008173ffffffffffffffffffffffffffffffffffffffff1660601b81526014015050806060015173ffffffffffffffffffffffffffffffffffffffff166101208173ffffffffffffffffffffffffffffffffffffffff1660601b81526014015050806080015173ffffffffffffffffffffffffffffffffffffffff166101408173ffffffffffffffffffffffffffffffffffffffff1660601b815260140150508060a0015173ffffffffffffffffffffffffffffffffffffffff166101608173ffffffffffffffffffffffffffffffffffffffff1660601b815260140150506000604051806080016040528063ef5e1cac60e01b7bffffffffffffffffffffffffffffffffffffffffffffffffffffffff19167bffffffffffffffffffffffffffffffffffffffffffffffffffffffff1916815260200163c433c80a60e01b7bffffffffffffffffffffffffffffffffffffffffffffffffffffffff19167bffffffffffffffffffffffffffffffffffffffffffffffffffffffff191681526020016306972dcd60e01b7bffffffffffffffffffffffffffffffffffffffffffffffffffffffff19167bffffffffffffffffffffffffffffffffffffffffffffffffffffffff19168152602001635a6127a960e01b7bffffffffffffffffffffffffffffffffffffffffffffffffffffffff19167bffffffffffffffffffffffffffffffffffffffffffffffffffffffff191681526020015090506000600090505b81506004811015620004795760016001600050600084846004811015156200040257fe5b60200201517bffffffffffffffffffffffffffffffffffffffffffffffffffffffff19167bffffffffffffffffffffffffffffffffffffffffffffffffffffffff1916815260200190815260200160002060006101000a81548160ff0219169083151502179055505b8080600101915050620003de565b50336006600c6101000a81548173ffffffffffffffffffffffffffffffffffffffff021916908373ffffffffffffffffffffffffffffffffffffffff160217905550505b505b506200066d565b6000620004e042620004e860201b62001c8017909060201c565b905080505b90565b600068010000000000000000821015156200056e576040517f08c379a00000000000000000000000000000000000000000000000000000000081526004018080602001828103825260118152602001807f6d6f7265207468616e203634206269747300000000000000000000000000000081526020015060200191505060405180910390fd5b81905062000577565b919050566200066c565b60008151905062000592816200064f565b5b919050565b600060c08284031215620005aa578081fd5b60405160c081018181106001600160401b0382111715620005c757fe5b80604052508251620005d9816200064f565b808252506020830151620005ed816200064f565b80602083015250604083015162000604816200064f565b80604083015250620006196060840162000581565b60608201526200062c6080840162000581565b60808201526200063f60a0840162000581565b60a0820152809150505b92915050565b6001600160a01b03811681141515620006685760006000fd5b5b50565b5b60805160601c60a05160601c60c05160c01c60e05160c01c6101005160601c6101205160601c6101405160601c6101605160601c615895620007ec600039806109905280610e6b5280610f6a5280610ff352806110a5528061130052806113d6528061167e528061172e52806118815280611a7d5280611b5452806123de52806129fb5280612b485280612cbd5280612e8a5280612ec1528061328352806136f052806137b352806138805280613abf5250806109015280610a9b52806110d25280613b63525080610ca452806110835280612d555280612dee52806134d052806138445280613905528061394152806139c6525080610b225280610da352806111f55280611238528061164252806119b7528061262a5250806115205280611e7c528061429c5250806115445280611e9d52806142bd525080611f9d528061218e52508061087252806117e85280611ef65280612221528061252452806126d7528061332752806135b852806141b8528061457d52506158956000f3fe6080604052600436106102015760003560e01c80639624e83e1161011d578063c4e3a63b116100b0578063e1c7392a1161007f578063ed92182f11610064578063ed92182f14610736578063ef5e1cac14610760578063f6979f291461078a57610201565b8063e1c7392a146106e0578063eb6843ce146106f857610201565b8063c4e3a63b1461061e578063d2ca21151461064a578063d5f3948814610676578063e11c8762146106a257610201565b8063b2326b57116100ec578063b2326b5714610572578063b6ae213a1461059c578063bb8313c2146105c8578063c433c80a146105f457610201565b80639624e83e146104d8578063a6aa57ce14610504578063a6afed951461052e578063a89f51ae1461054657610201565b80632cae0269116101955780635658c012116101645780635658c0121461043a5780635a6127a91461046657806375f12b21146104905780637b809bdd146104bc57610201565b80632cae0269146103745780632e6c6f84146103a057806332374174146103d05780634ff34aca146103fc57610201565b80630c340a24116101d15780630c340a24146102b4578063113cf1ab146102e0578063197b1bf51461031e57806326d895451461034857610201565b8062b2a04414610207578063060406181461024657806306972dcd1461027257806307da68f51461029c57610201565b60006000fd5b3480156102145760006000fd5b5061022f600480360381019061022a9190614dec565b6107b6565b60405161023d929190615638565b60405180910390f35b3480156102535760006000fd5b5061025c6107e2565b6040516102699190615703565b60405180910390f35b34801561027f5760006000fd5b5061029a60048036038101906102959190614fd2565b6107fa565b005b3480156102a95760006000fd5b506102b2610850565b005b3480156102c15760006000fd5b506102ca610870565b6040516102d79190615378565b60405180910390f35b3480156102ed5760006000fd5b5061030860048036038101906103039190614c6a565b610894565b604051610315919061533c565b60405180910390f35b34801561032b5760006000fd5b5061034660048036038101906103419190614fd2565b6108b9565b005b3480156103555760006000fd5b5061035e610a83565b60405161036b91906156eb565b60405180910390f35b3480156103815760006000fd5b5061038a610a99565b60405161039791906153c8565b60405180910390f35b6103ba60048036038101906103b5919061500a565b610abd565b6040516103c79190615703565b60405180910390f35b3480156103dd5760006000fd5b506103e6610ca2565b6040516103f391906153a0565b60405180910390f35b3480156104095760006000fd5b50610424600480360381019061041f9190614f65565b610cc6565b60405161043191906155e3565b60405180910390f35b3480156104475760006000fd5b50610450610cf3565b60405161045d919061568b565b60405180910390f35b3480156104735760006000fd5b5061048e60048036038101906104899190614fd2565b610cfc565b005b34801561049d5760006000fd5b506104a6610d6f565b6040516104b3919061533c565b60405180910390f35b6104d660048036038101906104d191906150b0565b610d82565b005b3480156104e55760006000fd5b506104ee610f68565b6040516104fb9190615350565b60405180910390f35b3480156105115760006000fd5b5061052c60048036038101906105279190614fd2565b610f8c565b005b34801561053b5760006000fd5b506105446111c5565b005b3480156105535760006000fd5b5061055c6111f3565b60405161056991906153f0565b60405180910390f35b34801561057f5760006000fd5b5061059a60048036038101906105959190615062565b611217565b005b3480156105a95760006000fd5b506105b2611478565b6040516105bf9190615703565b60405180910390f35b3480156105d55760006000fd5b506105de611492565b6040516105eb919061568b565b60405180910390f35b3480156106015760006000fd5b5061061c6004803603810190610617919061503b565b61149b565b005b34801561062b5760006000fd5b5061063461151e565b6040516106419190615703565b60405180910390f35b3480156106575760006000fd5b50610660611542565b60405161066d9190615703565b60405180910390f35b3480156106835760006000fd5b5061068c611566565b6040516106999190615226565b60405180910390f35b3480156106af5760006000fd5b506106ca60048036038101906106c59190614fd2565b61158c565b6040516106d7919061568b565b60405180910390f35b3480156106ed5760006000fd5b506106f66115ba565b005b3480156107055760006000fd5b50610720600480360381019061071b9190615062565b6117d0565b60405161072d919061561e565b60405180910390f35b3480156107435760006000fd5b5061075e60048036038101906107599190614bba565b611951565b005b34801561076d5760006000fd5b5061078860048036038101906107839190614fd2565b611c09565b005b3480156107975760006000fd5b506107a0611c77565b6040516107ad919061568b565b60405180910390f35b6107be614977565b60006107d1858585611d1263ffffffff16565b80925081935050505b935093915050565b60006107f2611e7863ffffffff16565b905080505b90565b610808611ef163ffffffff16565b8060046000508190909055507f113d15441cef41c1a48eb1bc2c6fa7b881b201a5c4b2913272f80defe12ce3c381604051610843919061568b565b60405180910390a15b5b50565b61085e611ef163ffffffff16565b61086c611f5163ffffffff16565b5b5b565b7f000000000000000000000000000000000000000000000000000000000000000081565b600160005060205280600052604060002060009150909054906101000a900460ff1681565b6108c7611f9b63ffffffff16565b6108d56120ae63ffffffff16565b6108e76000821161213963ffffffff16565b600033905060006108fd8361158c63ffffffff16565b90507f000000000000000000000000000000000000000000000000000000000000000073ffffffffffffffffffffffffffffffffffffffff166379cc679083856040518363ffffffff1660e01b815260040161095a92919061530d565b600060405180830381600087803b1580156109755760006000fd5b505af115801561098a573d600060003e3d6000fd5b505050507f000000000000000000000000000000000000000000000000000000000000000073ffffffffffffffffffffffffffffffffffffffff1663b241bbac83836040518363ffffffff1660e01b81526004016109e992919061530d565b600060405180830381600087803b158015610a045760006000fd5b505af1158015610a19573d600060003e3d6000fd5b505050508173ffffffffffffffffffffffffffffffffffffffff167fefc56a1a7590fc4eb13cd40b6a2ceee41f3869c6ea818d20d9a18f2d6315ca188285604051610a6592919061569d565b60405180910390a250505b5b610a7f61217f63ffffffff16565b5b50565b600660009054906101000a900463ffffffff1681565b7f000000000000000000000000000000000000000000000000000000000000000081565b6000610acd611f9b63ffffffff16565b610adb61221163ffffffff16565b600034111515610b20576040517f08c379a0000000000000000000000000000000000000000000000000000000008152600401610b17906154c1565b60405180910390fd5b7f000000000000000000000000000000000000000000000000000000000000000073ffffffffffffffffffffffffffffffffffffffff1663755edd17336040518263ffffffff1660e01b8152600401610b79919061524e565b602060405180830381600087803b158015610b945760006000fd5b505af1158015610ba9573d600060003e3d6000fd5b505050506040513d601f19601f82011682018060405250810190610bcd9190615089565b90508050610bd9614977565b8281610140019063ffffffff16908163ffffffff1681526020015050610c31610c128367ffffffffffffffff168361233e63ffffffff16565b83610c248761280c909063ffffffff16565b60006128b563ffffffff16565b8167ffffffffffffffff163373ffffffffffffffffffffffffffffffffffffffff167f24c9bb74341922446798a07669f56d3efec500a78e81429643958e7a42cb6b1286604051610c82919061568b565b60405180910390a3505b5b610c9b61217f63ffffffff16565b5b92915050565b7f000000000000000000000000000000000000000000000000000000000000000081565b610cce614a2b565b610ce2878787878787612fad63ffffffff16565b9050610ce9565b9695505050505050565b60036000505481565b610d0a611ef163ffffffff16565b806005600050819090905550670de0b6b3a764000060056000505411151515610d335760006000fd5b7f95c718270dc047bb0f84e533ee71ed5ee3961f14be924c0e493ba6e1ff078ae281604051610d62919061568b565b60405180910390a15b5b50565b600060009054906101000a900460ff1681565b610d90611f9b63ffffffff16565b610d9e61221163ffffffff16565b610e597f000000000000000000000000000000000000000000000000000000000000000073ffffffffffffffffffffffffffffffffffffffff1663430c208133876040518363ffffffff1660e01b8152600401610dfc9291906152d4565b60206040518083038186803b158015610e155760006000fd5b505afa158015610e2a573d600060003e3d6000fd5b505050506040513d601f19601f82011682018060405250810190610e4e9190614c43565b61319b63ffffffff16565b6000610f208567ffffffffffffffff167f000000000000000000000000000000000000000000000000000000000000000073ffffffffffffffffffffffffffffffffffffffff16630f85fc5a886040518263ffffffff1660e01b8152600401610ec29190615703565b6101a06040518083038186803b158015610edc5760006000fd5b505afa158015610ef1573d600060003e3d6000fd5b505050506040513d601f19601f82011682018060405250810190610f159190614d05565b61233e63ffffffff16565b90508181610140019063ffffffff16908163ffffffff1681526020015050610f50818686866128b563ffffffff16565b505b5b610f6161217f63ffffffff16565b5b50505050565b7f000000000000000000000000000000000000000000000000000000000000000081565b610f9a611f9b63ffffffff16565b610fa861221163ffffffff16565b610fba6000821161213963ffffffff16565b6000339050610fcd61321763ffffffff16565b6000610fef610fe0613ab963ffffffff16565b84613c4690919063ffffffff16565b90507f000000000000000000000000000000000000000000000000000000000000000073ffffffffffffffffffffffffffffffffffffffff16632c73f09e846040518263ffffffff1660e01b815260040161104a919061568b565b600060405180830381600087803b1580156110655760006000fd5b505af115801561107a573d600060003e3d6000fd5b505050506110d07f0000000000000000000000000000000000000000000000000000000000000000837f000000000000000000000000000000000000000000000000000000000000000086613c6c63ffffffff16565b7f000000000000000000000000000000000000000000000000000000000000000073ffffffffffffffffffffffffffffffffffffffff1663449a52f883836040518363ffffffff1660e01b815260040161112b92919061530d565b600060405180830381600087803b1580156111465760006000fd5b505af115801561115b573d600060003e3d6000fd5b505050508173ffffffffffffffffffffffffffffffffffffffff167f8fff79b574da9a93d7a5408c2fc00c4a9b2b462321c1659b2fbbb9ff3dd221ff84836040516111a792919061569d565b60405180910390a250505b5b6111c161217f63ffffffff16565b5b50565b6111d3613e9763ffffffff16565b6111e161321763ffffffff16565b5b6111f0613f2863ffffffff16565b5b565b7f000000000000000000000000000000000000000000000000000000000000000081565b611225611f9b63ffffffff16565b61123361221163ffffffff16565b6112ee7f000000000000000000000000000000000000000000000000000000000000000073ffffffffffffffffffffffffffffffffffffffff1663430c208133846040518363ffffffff1660e01b81526004016112919291906152d4565b60206040518083038186803b1580156112aa5760006000fd5b505afa1580156112bf573d600060003e3d6000fd5b505050506040513d601f19601f820116820180604052508101906112e39190614c43565b61319b63ffffffff16565b60006113b58267ffffffffffffffff167f000000000000000000000000000000000000000000000000000000000000000073ffffffffffffffffffffffffffffffffffffffff16630f85fc5a856040518263ffffffff1660e01b81526004016113579190615703565b6101a06040518083038186803b1580156113715760006000fd5b505afa158015611386573d600060003e3d6000fd5b505050506040513d601f19601f820116820180604052508101906113aa9190614d05565b61233e63ffffffff16565b9050600081610140019063ffffffff16908163ffffffff16815260200150507f000000000000000000000000000000000000000000000000000000000000000073ffffffffffffffffffffffffffffffffffffffff16635a6beaf483836040518363ffffffff1660e01b815260040161142f92919061571f565b600060405180830381600087803b15801561144a5760006000fd5b505af115801561145f573d600060003e3d6000fd5b50505050505b5b61147461217f63ffffffff16565b5b50565b600660049054906101000a900467ffffffffffffffff1681565b60046000505481565b6114a9611ef163ffffffff16565b61012c8163ffffffff16101515156114c15760006000fd5b80600660006101000a81548163ffffffff021916908363ffffffff1602179055507f670aac3910a07dcfe5267c8b0bf2357abdb454e509764d13e94e85ee13c6da208160405161151191906156eb565b60405180910390a15b5b50565b7f000000000000000000000000000000000000000000000000000000000000000081565b7f000000000000000000000000000000000000000000000000000000000000000081565b6006600c9054906101000a900473ffffffffffffffffffffffffffffffffffffffff1681565b60006115ae61159f613ab963ffffffff16565b83613f3890919063ffffffff16565b90506115b5565b919050565b6116196006600c9054906101000a900473ffffffffffffffffffffffffffffffffffffffff1673ffffffffffffffffffffffffffffffffffffffff163373ffffffffffffffffffffffffffffffffffffffff161461319b63ffffffff16565b6006600c6101000a81549073ffffffffffffffffffffffffffffffffffffffff021916905560007f000000000000000000000000000000000000000000000000000000000000000073ffffffffffffffffffffffffffffffffffffffff1663755edd177f00000000000000000000000000000000000000000000000000000000000000006040518263ffffffff1660e01b81526004016116b99190615226565b602060405180830381600087803b1580156116d45760006000fd5b505af11580156116e9573d600060003e3d6000fd5b505050506040513d601f19601f8201168201806040525081019061170d9190615089565b67ffffffffffffffff161415156117245760006000fd5b61172c614977565b7f000000000000000000000000000000000000000000000000000000000000000073ffffffffffffffffffffffffffffffffffffffff16635a6beaf4600061177b60008561233e63ffffffff16565b6040518363ffffffff1660e01b8152600401611798929190615418565b600060405180830381600087803b1580156117b35760006000fd5b505af11580156117c8573d600060003e3d6000fd5b50505050505b565b6117d8614977565b6117e6613e9763ffffffff16565b7f000000000000000000000000000000000000000000000000000000000000000073ffffffffffffffffffffffffffffffffffffffff16639622cd8f336040518263ffffffff1660e01b815260040161183f919061524e565b60006040518083038186803b1580156118585760006000fd5b505afa15801561186d573d600060003e3d6000fd5b505050506119368267ffffffffffffffff167f000000000000000000000000000000000000000000000000000000000000000073ffffffffffffffffffffffffffffffffffffffff16630f85fc5a856040518263ffffffff1660e01b81526004016118d89190615703565b6101a06040518083038186803b1580156118f25760006000fd5b505afa158015611907573d600060003e3d6000fd5b505050506040513d601f19601f8201168201806040525081019061192b9190614d05565b61233e63ffffffff16565b905061193d565b61194b613f2863ffffffff16565b5b919050565b61195f611f9b63ffffffff16565b61196d6120ae63ffffffff16565b600083839050905061197d614977565b60006000600090505b83811015611bef57868682818110151561199c57fe5b90506020020160208101906119b19190615062565b915081507f000000000000000000000000000000000000000000000000000000000000000073ffffffffffffffffffffffffffffffffffffffff1663430c208133846040518363ffffffff1660e01b8152600401611a109291906152d4565b60206040518083038186803b158015611a295760006000fd5b505afa158015611a3e573d600060003e3d6000fd5b505050506040513d601f19601f82011682018060405250810190611a629190614c43565b1515611a6d57611be2565b611b328267ffffffffffffffff167f000000000000000000000000000000000000000000000000000000000000000073ffffffffffffffffffffffffffffffffffffffff16630f85fc5a856040518263ffffffff1660e01b8152600401611ad49190615703565b6101a06040518083038186803b158015611aee5760006000fd5b505afa158015611b03573d600060003e3d6000fd5b505050506040513d601f19601f82011682018060405250810190611b279190614d05565b61233e63ffffffff16565b925082508483610140019063ffffffff16908163ffffffff16815260200150507f000000000000000000000000000000000000000000000000000000000000000073ffffffffffffffffffffffffffffffffffffffff16635a6beaf483856040518363ffffffff1660e01b8152600401611bad92919061571f565b600060405180830381600087803b158015611bc85760006000fd5b505af1158015611bdd573d600060003e3d6000fd5b505050505b8080600101915050611986565b505050505b5b611c0361217f63ffffffff16565b5b505050565b611c17611ef163ffffffff16565b806003600050819090905550670de0b6b3a76400008110151515611c3b5760006000fd5b7f52640f3e2df50709ead28077e905b85df7544c73c32a40259dff3ac35927d5ce81604051611c6a919061568b565b60405180910390a15b5b50565b60056000505481565b60006801000000000000000082101515611d05576040517f08c379a00000000000000000000000000000000000000000000000000000000081526004018080602001828103825260118152602001807f6d6f7265207468616e203634206269747300000000000000000000000000000081526020015060200191505060405180910390fd5b819050611d0d565b919050565b611d1a614977565b6000849150815060008260a0015167ffffffffffffffff16118015611d43575060008260400151115b15611e1357611d69846060015183606001518460400151613f5e9092919063ffffffff16565b8260400190908181526020015050611e0e611d9b8360a001518567ffffffffffffffff1661405f90919063ffffffff16565b67ffffffffffffffff16610e1067ffffffffffffffff16611dff611dd0866080015189602001516140fc90919063ffffffff16565b611deb87600001518a604001516140fc90919063ffffffff16565b8760400151613f5e9092919063ffffffff16565b613f5e9092919063ffffffff16565b905080505b836060015182606001909081815260200150508360200151826080019090818152602001505083604001518260000190908181526020015050828260a0019067ffffffffffffffff16908167ffffffffffffffff16815260200150505b935093915050565b60007f00000000000000000000000000000000000000000000000000000000000000007f000000000000000000000000000000000000000000000000000000000000000067ffffffffffffffff16611ed461418563ffffffff16565b67ffffffffffffffff16811515611ee757fe5b0403905080505b90565b611f4e7f000000000000000000000000000000000000000000000000000000000000000073ffffffffffffffffffffffffffffffffffffffff163373ffffffffffffffffffffffffffffffffffffffff161461319b63ffffffff16565b5b565b6001600060006101000a81548160ff0219169083151502179055507f7acc84e34091ae817647a4c49116f5cc07f319078ba80f8f5fde37ea7e25cbd660405160405180910390a15b565b7f000000000000000000000000000000000000000000000000000000000000000073ffffffffffffffffffffffffffffffffffffffff1663e97dcb626040518163ffffffff1660e01b8152600401600060405180830381600087803b1580156120045760006000fd5b505af1158015612019573d600060003e3d6000fd5b5050505060026002600050541415151561209e576040517f08c379a000000000000000000000000000000000000000000000000000000000815260040180806020018281038252600d8152602001807f4c50205265656e7472616e63790000000000000000000000000000000000000081526020015060200191505060405180910390fd5b600260026000508190909055505b565b600060009054906101000a900460ff16151515612136576040517f08c379a00000000000000000000000000000000000000000000000000000000081526004018080602001828103825260138152602001807f436f6e74726163742069732073746f707065640000000000000000000000000081526020015060200191505060405180910390fd5b5b565b80151561217b576040517f08c379a000000000000000000000000000000000000000000000000000000000815260040161217290615482565b60405180910390fd5b5b50565b600160026000508190909055507f000000000000000000000000000000000000000000000000000000000000000073ffffffffffffffffffffffffffffffffffffffff1663e9fad8ee6040518163ffffffff1660e01b8152600401600060405180830381600087803b1580156121f55760006000fd5b505af115801561220a573d600060003e3d6000fd5b505050505b565b61221f6120ae63ffffffff16565b7f000000000000000000000000000000000000000000000000000000000000000073ffffffffffffffffffffffffffffffffffffffff1663bf86d6906040518163ffffffff1660e01b815260040160206040518083038186803b1580156122865760006000fd5b505afa15801561229b573d600060003e3d6000fd5b505050506040513d60208110156122b25760006000fd5b810190808051906020019092919050505015151561233b576040517f08c379a00000000000000000000000000000000000000000000000000000000081526004018080602001828103825260118152602001807f50726f746f636f6c2073687574646f776e00000000000000000000000000000081526020015060200191505060405180910390fd5b5b565b612346614977565b60006123566141a063ffffffff16565b905060006123698261429563ffffffff16565b9050600060008560a0015167ffffffffffffffff161461239b576123968560a0015161429563ffffffff16565b61239e565b60005b90508067ffffffffffffffff168267ffffffffffffffff161115156123c857849350505050612806565b6123d661321763ffffffff16565b6000612488867f000000000000000000000000000000000000000000000000000000000000000073ffffffffffffffffffffffffffffffffffffffff166306ef2d806040518163ffffffff1660e01b815260040160806040518083038186803b1580156124435760006000fd5b505afa158015612458573d600060003e3d6000fd5b505050506040513d601f19601f8201168201806040525081019061247c9190614f05565b86611d1263ffffffff16565b80925081965050506000811180156124a1575060008714155b156127b857600073ffffffffffffffffffffffffffffffffffffffff1685610160015173ffffffffffffffffffffffffffffffffffffffff16141580156124f75750600085610180015167ffffffffffffffff16115b1561262657600061252086610180015167ffffffffffffffff1683613c4690919063ffffffff16565b90507f000000000000000000000000000000000000000000000000000000000000000073ffffffffffffffffffffffffffffffffffffffff16634d6729f5876101600151836040518363ffffffff1660e01b815260040161258292919061530d565b600060405180830381600087803b15801561259d5760006000fd5b505af11580156125b2573d600060003e3d6000fd5b505050506001151586610160015173ffffffffffffffffffffffffffffffffffffffff167f8079a05488a0f375c08504c3ba8b3a1371f5a192b7a141bc9294ef7ad41389d983604051612605919061568b565b60405180910390a361262081836140fc90919063ffffffff16565b91508150505b60007f000000000000000000000000000000000000000000000000000000000000000073ffffffffffffffffffffffffffffffffffffffff16636352211e896040518263ffffffff1660e01b8152600401612681919061568b565b60206040518083038186803b15801561269a5760006000fd5b505afa1580156126af573d600060003e3d6000fd5b505050506040513d601f19601f820116820180604052508101906126d39190614b93565b90507f000000000000000000000000000000000000000000000000000000000000000073ffffffffffffffffffffffffffffffffffffffff16634d6729f582846040518363ffffffff1660e01b815260040161273092919061530d565b600060405180830381600087803b15801561274b5760006000fd5b505af1158015612760573d600060003e3d6000fd5b50505050600015158173ffffffffffffffffffffffffffffffffffffffff167f8079a05488a0f375c08504c3ba8b3a1371f5a192b7a141bc9294ef7ad41389d9846040516127ae919061568b565b60405180910390a3505b8267ffffffffffffffff16877fc99ac0d15229fa72f1b0756c0eed4e7ede3d80f4e4e0d308ce7a56d1366b8a038760400151846040516127f992919061569d565b60405180910390a3505050505b92915050565b60007f8000000000000000000000000000000000000000000000000000000000000000821015156128a8576040517f08c379a00000000000000000000000000000000000000000000000000000000081526004018080602001828103825260128152602001807f746f6f2062696720666f7220696e74323536000000000000000000000000000081526020015060200191505060405180910390fd5b8190506128b0565b919050565b60003490506000600084136128cb5760006128cd565b835b90506000600085126128e0576000612914565b6129137fffffffffffffffffffffffffffffffffffffffffffffffffffffffffffffffff8661431d90919063ffffffff16565b5b90506000831180156129265750600084115b151515612968576040517f08c379a000000000000000000000000000000000000000000000000000000000815260040161295f90615500565b60405180910390fd5b61299b600084118061297a5750600085115b806129855750600083115b806129905750600082115b61213963ffffffff16565b6000821115612a87576129b261418563ffffffff16565b8760c0019067ffffffffffffffff16908167ffffffffffffffff16815260200150506129eb82886040015161445390919063ffffffff16565b87604001909081815260200150507f000000000000000000000000000000000000000000000000000000000000000073ffffffffffffffffffffffffffffffffffffffff16632b7c7b11836040518263ffffffff1660e01b8152600401612a52919061568b565b600060405180830381600087803b158015612a6d5760006000fd5b505af1158015612a82573d600060003e3d6000fd5b505050505b6000811115612bd457612a9e61418563ffffffff16565b67ffffffffffffffff16612acf610708610e10018960c0015167ffffffffffffffff166144dc90919063ffffffff16565b67ffffffffffffffff16101515612b1b576040517f08c379a0000000000000000000000000000000000000000000000000000000008152600401612b1290615443565b60405180910390fd5b8087604001511015612b31578660400151905080505b8087604001818151039150909081815260200150507f000000000000000000000000000000000000000000000000000000000000000073ffffffffffffffffffffffffffffffffffffffff16632a7ba1f7826040518263ffffffff1660e01b8152600401612b9f919061568b565b600060405180830381600087803b158015612bba5760006000fd5b505af1158015612bcf573d600060003e3d6000fd5b505050505b6000831115612c0357612bf483886020015161445390919063ffffffff16565b87602001909081815260200150505b6000841115612c3257612c238488602001516140fc90919063ffffffff16565b87602001909081815260200150505b600087604001511115612cbb57600460005054876040015110151515612c8d576040517f08c379a0000000000000000000000000000000000000000000000000000000008152600401612c8490615565565b60405180910390fd5b6000841180612c9c5750600082115b15612cba57612cb98760400151886020015161457963ffffffff16565b5b5b7f000000000000000000000000000000000000000000000000000000000000000073ffffffffffffffffffffffffffffffffffffffff16635a6beaf487896040518363ffffffff1660e01b8152600401612d1692919061571f565b600060405180830381600087803b158015612d315760006000fd5b505af1158015612d46573d600060003e3d6000fd5b505050506000821115612de3577f000000000000000000000000000000000000000000000000000000000000000073ffffffffffffffffffffffffffffffffffffffff1663449a52f833846040518363ffffffff1660e01b8152600401612dae9291906152a5565b600060405180830381600087803b158015612dc95760006000fd5b505af1158015612dde573d600060003e3d6000fd5b505050505b6000811115612e7c577f000000000000000000000000000000000000000000000000000000000000000073ffffffffffffffffffffffffffffffffffffffff166379cc679033836040518363ffffffff1660e01b8152600401612e479291906152a5565b600060405180830381600087803b158015612e625760006000fd5b505af1158015612e77573d600060003e3d6000fd5b505050505b6000831115612eb657612eb57f00000000000000000000000000000000000000000000000000000000000000008461472d63ffffffff16565b5b6000841115612f4f577f000000000000000000000000000000000000000000000000000000000000000073ffffffffffffffffffffffffffffffffffffffff16636250216933866040518363ffffffff1660e01b8152600401612f1a929190615276565b600060405180830381600087803b158015612f355760006000fd5b505af1158015612f4a573d600060003e3d6000fd5b505050505b8567ffffffffffffffff167fdbaad0966fb140906c77f54a38b3e1ce6c60e87527bbc4ee0b9ad893e3de453b838386888c604001518d60200151604051612f9b969594939291906156b6565b60405180910390a25050505b50505050565b612fb5614a2b565b6000851415612fec578660000151816000019090818152602001505086606001518160200190908181526020015050809050613191565b60006130328767ffffffffffffffff16610e1067ffffffffffffffff166301e1338081151561301757fe5b0467ffffffffffffffff1688613f5e9092919063ffffffff16565b905060008561305b5761305682670de0b6b3a76400006140fc90919063ffffffff16565b613077565b61307682670de0b6b3a764000061445390919063ffffffff16565b5b9050613090818a60600151613c4690919063ffffffff16565b83602001909081815260200150506130bf83602001518a606001518b60000151613f5e9092919063ffffffff16565b8360000190908181526020015050886000015183600001511115613128576000896000015184600001510390506130ff8582613c4690919063ffffffff16565b84606001909081815260200150508360600151810384604001909081815260200150505061318e565b88600001518360000151101561318d57600083600001518a60000151039050858110151561317b57896000015184600001909081815260200150508960600151846020019090818152602001505061318b565b8084608001909081815260200150505b505b5b50505b9695505050505050565b801515613213576040517f08c379a000000000000000000000000000000000000000000000000000000000815260040180806020018281038252600e8152602001807f4e6f7420417574686f72697a656400000000000000000000000000000000000081526020015060200191505060405180910390fd5b5b50565b60006132276148b363ffffffff16565b9050600660049054906101000a900467ffffffffffffffff1667ffffffffffffffff168167ffffffffffffffff161115156132625750613ab7565b6000600660049054906101000a900467ffffffffffffffff168203905060007f000000000000000000000000000000000000000000000000000000000000000073ffffffffffffffffffffffffffffffffffffffff166306ef2d806040518163ffffffff1660e01b815260040160806040518083038186803b1580156132e85760006000fd5b505afa1580156132fd573d600060003e3d6000fd5b505050506040513d601f19601f820116820180604052508101906133219190614f05565b905060007f000000000000000000000000000000000000000000000000000000000000000073ffffffffffffffffffffffffffffffffffffffff166343f48fbd6040518163ffffffff1660e01b815260040160206040518083038186803b15801561338c5760006000fd5b505afa1580156133a1573d600060003e3d6000fd5b505050506040513d601f19601f820116820180604052508101906133c59190614cde565b9050600061357f83858473ffffffffffffffffffffffffffffffffffffffff1663a0fc0eda6040518163ffffffff1660e01b815260040160206040518083038186803b1580156134155760006000fd5b505afa15801561342a573d600060003e3d6000fd5b505050506040513d601f19601f8201168201806040525081019061344e9190614fee565b8573ffffffffffffffffffffffffffffffffffffffff16636d7fa6646040518163ffffffff1660e01b815260040160206040518083038186803b1580156134955760006000fd5b505afa1580156134aa573d600060003e3d6000fd5b505050506040513d601f19601f820116820180604052508101906134ce9190614c43565b7f000000000000000000000000000000000000000000000000000000000000000073ffffffffffffffffffffffffffffffffffffffff166375172a8b6040518163ffffffff1660e01b815260040160206040518083038186803b1580156135355760006000fd5b505afa15801561354a573d600060003e3d6000fd5b505050506040513d601f19601f8201168201806040525081019061356e9190614fee565b600560005054612fad63ffffffff16565b90506000610e1067ffffffffffffffff166201518081151561359d57fe5b0467ffffffffffffffff166136668667ffffffffffffffff167f000000000000000000000000000000000000000000000000000000000000000073ffffffffffffffffffffffffffffffffffffffff1663a5d4198b6040518163ffffffff1660e01b8152600401602060405180830381600087803b15801561361f5760006000fd5b505af1158015613634573d600060003e3d6000fd5b505050506040513d601f19601f820116820180604052508101906136589190614fee565b6148d990919063ffffffff16565b81151561366f57fe5b04905060405180608001604052808360000151815260200161369e83876020015161445390919063ffffffff16565b81526020016136da6136c78867ffffffffffffffff1688600001516148d990919063ffffffff16565b876040015161445390919063ffffffff16565b81526020018360200151815260200150935083507f000000000000000000000000000000000000000000000000000000000000000073ffffffffffffffffffffffffffffffffffffffff166378efc6b0856040518263ffffffff1660e01b8152600401613747919061565a565b600060405180830381600087803b1580156137625760006000fd5b505af1158015613777573d600060003e3d6000fd5b5050505085600660046101000a81548167ffffffffffffffff021916908367ffffffffffffffff1602179055506000826060015111156138f6577f000000000000000000000000000000000000000000000000000000000000000073ffffffffffffffffffffffffffffffffffffffff16632c73f09e83606001516040518263ffffffff1660e01b815260040161380e919061568b565b600060405180830381600087803b1580156138295760006000fd5b505af115801561383e573d600060003e3d6000fd5b505050507f000000000000000000000000000000000000000000000000000000000000000073ffffffffffffffffffffffffffffffffffffffff1663449a52f87f000000000000000000000000000000000000000000000000000000000000000084606001516040518363ffffffff1660e01b81526004016138c192919061530d565b600060405180830381600087803b1580156138dc5760006000fd5b505af11580156138f1573d600060003e3d6000fd5b505050505b6000826040015111156139b7577f000000000000000000000000000000000000000000000000000000000000000073ffffffffffffffffffffffffffffffffffffffff1663449a52f87f000000000000000000000000000000000000000000000000000000000000000084604001516040518363ffffffff1660e01b815260040161398292919061530d565b600060405180830381600087803b15801561399d5760006000fd5b505af11580156139b2573d600060003e3d6000fd5b505050505b600082608001511115613a56577f000000000000000000000000000000000000000000000000000000000000000073ffffffffffffffffffffffffffffffffffffffff1663c59fb1ab83608001516040518263ffffffff1660e01b8152600401613a21919061568b565b600060405180830381600087803b158015613a3c5760006000fd5b505af1158015613a51573d600060003e3d6000fd5b505050505b8567ffffffffffffffff167fdfc2183705a66b49f12c66a6d3b2fa5cf3b7c67086e9c6e90d144befc94f436c868660000151876020015188604001518960600151604051613aa895949392919061574a565b60405180910390a25050505050505b565b600060007f000000000000000000000000000000000000000000000000000000000000000073ffffffffffffffffffffffffffffffffffffffff16637f250c616040518163ffffffff1660e01b815260040160206040518083038186803b158015613b245760006000fd5b505afa158015613b39573d600060003e3d6000fd5b505050506040513d601f19601f82011682018060405250810190613b5d9190614fee565b905060007f000000000000000000000000000000000000000000000000000000000000000073ffffffffffffffffffffffffffffffffffffffff166318160ddd6040518163ffffffff1660e01b815260040160206040518083038186803b158015613bc85760006000fd5b505afa158015613bdd573d600060003e3d6000fd5b505050506040513d601f19601f82011682018060405250810190613c019190614fee565b90506000811480613c125750600082145b613c2e57613c298282613f3890919063ffffffff16565b613c38565b670de0b6b3a76400005b92505050613c435650505b90565b6000613c618383670de0b6b3a7640000613f5e63ffffffff16565b905080505b92915050565b600060008573ffffffffffffffffffffffffffffffffffffffff166323b872dd60e01b868686604051602401808473ffffffffffffffffffffffffffffffffffffffff1681526020018373ffffffffffffffffffffffffffffffffffffffff1681526020018281526020019350505050604051602081830303815290604052907bffffffffffffffffffffffffffffffffffffffffffffffffffffffff19166020820180517bffffffffffffffffffffffffffffffffffffffffffffffffffffffff83818316178352505050506040518082805190602001908083835b602083101515613d6f57805182525b602082019150602081019050602083039250613d49565b6001836020036101000a0380198251168184511680821785525050505050509050019150506000604051808303816000865af19150503d8060008114613dd1576040519150601f19603f3d011682016040523d82523d6000602084013e613dd6565b606091505b5091509150818015613e175750600081511480613e165750808060200190516020811015613e045760006000fd5b81019080805190602001909291905050505b5b1515613e8e576040517f08c379a00000000000000000000000000000000000000000000000000000000081526004018080602001828103825260038152602001807f535446000000000000000000000000000000000000000000000000000000000081526020015060200191505060405180910390fd5b50505b50505050565b600260026000505414151515613f18576040517f08c379a000000000000000000000000000000000000000000000000000000000815260040180806020018281038252600d8152602001807f4c43205265656e7472616e63790000000000000000000000000000000000000081526020015060200191505060405180910390fd5b600260026000508190909055505b565b600160026000508190909055505b565b6000613f5383670de0b6b3a764000084613f5e63ffffffff16565b905080505b92915050565b6000600060006000198587098587029250828110838203039150506000811415613fa157600084111515613f925760006000fd5b83820492508292505050614058565b8084111515613fb05760006000fd5b60008486880990508281118203915080830392506000858660000316905080860495508084049350600181826000030401905080830284179350835060006002876003021890508087026002038102905080508087026002038102905080508087026002038102905080508087026002038102905080508087026002038102905080508087026002038102905080508085029550855085955050505050506140585650505050505b9392505050565b60008267ffffffffffffffff1682840391508167ffffffffffffffff16111515156140f5576040517f08c379a000000000000000000000000000000000000000000000000000000000815260040180806020018281038252600d8152602001807f7375622d756e646572666c6f770000000000000000000000000000000000000081526020015060200191505060405180910390fd5b5b92915050565b6000828284039150811115151561417e576040517f08c379a000000000000000000000000000000000000000000000000000000000815260040180806020018281038252600d8152602001807f7375622d756e646572666c6f770000000000000000000000000000000000000081526020015060200191505060405180910390fd5b5b92915050565b600061419842611c80909063ffffffff16565b905080505b90565b60006141b061418563ffffffff16565b9050805060007f000000000000000000000000000000000000000000000000000000000000000073ffffffffffffffffffffffffffffffffffffffff1663585690816040518163ffffffff1660e01b815260040160206040518083038186803b15801561421d5760006000fd5b505afa158015614232573d600060003e3d6000fd5b505050506040513d601f19601f820116820180604052508101906142569190615089565b905060008167ffffffffffffffff1611801561428557508167ffffffffffffffff168167ffffffffffffffff16105b156142905780915081505b505b90565b60006143137f00000000000000000000000000000000000000000000000000000000000000007f000000000000000000000000000000000000000000000000000000000000000067ffffffffffffffff168467ffffffffffffffff168115156142fa57fe5b0467ffffffffffffffff1661405f90919063ffffffff16565b905080505b919050565b60006000831415614331576000905061444d565b7fffffffffffffffffffffffffffffffffffffffffffffffffffffffffffffffff8314801561437f57507f800000000000000000000000000000000000000000000000000000000000000082145b1515156143d7576040517f08c379a00000000000000000000000000000000000000000000000000000000081526004018080602001828103825260278152602001806158396027913960400191505060405180910390fd5b600082840290508284828115156143ea57fe5b05141515614443576040517f08c379a00000000000000000000000000000000000000000000000000000000081526004018080602001828103825260278152602001806158396027913960400191505060405180910390fd5b8091505061444d56505b92915050565b600082828401915081101515156144d5576040517f08c379a000000000000000000000000000000000000000000000000000000000815260040180806020018281038252600c8152602001807f6164642d6f766572666c6f77000000000000000000000000000000000000000081526020015060200191505060405180910390fd5b5b92915050565b60008267ffffffffffffffff1682840191508167ffffffffffffffff1610151515614572576040517f08c379a000000000000000000000000000000000000000000000000000000000815260040180806020018281038252600c8152602001807f6164642d6f766572666c6f77000000000000000000000000000000000000000081526020015060200191505060405180910390fd5b5b92915050565b60007f000000000000000000000000000000000000000000000000000000000000000073ffffffffffffffffffffffffffffffffffffffff1663d3419bf36040518163ffffffff1660e01b815260040160206040518083038186803b1580156145e25760006000fd5b505afa1580156145f7573d600060003e3d6000fd5b505050506040513d601f19601f8201168201806040525081019061461b9190614cb7565b73ffffffffffffffffffffffffffffffffffffffff1663fa42dcf4600660009054906101000a900463ffffffff166040518263ffffffff1660e01b815260040161466591906156eb565b60206040518083038186803b15801561467e5760006000fd5b505afa158015614693573d600060003e3d6000fd5b505050506040513d601f19601f820116820180604052508101906146b79190614fee565b90506146d1836003600050546148d990919063ffffffff16565b6146e482846148d990919063ffffffff16565b10151515614727576040517f08c379a000000000000000000000000000000000000000000000000000000000815260040161471e906155a4565b60405180910390fd5b505b5050565b60008273ffffffffffffffffffffffffffffffffffffffff1682600067ffffffffffffffff811180156147605760006000fd5b506040519080825280601f01601f1916602001820160405280156147935781602001600182028036833780820191505090505b506040518082805190602001908083835b6020831015156147ca57805182525b6020820191506020810190506020830392506147a4565b6001836020036101000a03801982511681845116808217855250505050505090500191505060006040518083038185875af1925050503d806000811461482c576040519150601f19603f3d011682016040523d82523d6000602084013e614831565b606091505b505090508015156148ad576040517f08c379a00000000000000000000000000000000000000000000000000000000081526004018080602001828103825260038152602001807f535445000000000000000000000000000000000000000000000000000000000081526020015060200191505060405180910390fd5b505b5050565b60006148d16148c66141a063ffffffff16565b61429563ffffffff16565b905080505b90565b600060008214806148f9575082828385029250828115156148f657fe5b04145b1515614970576040517f08c379a000000000000000000000000000000000000000000000000000000000815260040180806020018281038252600c8152602001807f6d756c2d6f766572666c6f77000000000000000000000000000000000000000081526020015060200191505060405180910390fd5b5b92915050565b604051806101a001604052806000815260200160008152602001600081526020016000815260200160008152602001600067ffffffffffffffff168152602001600067ffffffffffffffff168152602001600060020b8152602001600015158152602001600067ffffffffffffffff168152602001600063ffffffff168152602001600073ffffffffffffffffffffffffffffffffffffffff168152602001600067ffffffffffffffff1681526020015090565b6040518060a001604052806000815260200160008152602001600081526020016000815260200160008152602001509056615837565b600081359050614a70816157ad565b5b919050565b600081519050614a85816157ad565b5b919050565b600081359050614a9a816157d6565b5b919050565b600081519050614aaf816157d6565b5b919050565b600081359050614ac4816157eb565b5b919050565b600081519050614ad9816157eb565b5b919050565b600060808284031215614af0578081fd5b6040516080810181811067ffffffffffffffff82111715614b0d57fe5b806040525080915082358152602083013560208201526040830135604082015260608301356060820152505b92915050565b600081359050614b4e81615801565b5b919050565b600081519050614b6381615801565b5b919050565b600081359050614b788161581a565b5b919050565b600081519050614b8d8161581a565b5b919050565b600060208284031215614ba4578081fd5b8151614baf816157ad565b809150505b92915050565b60006000600060408486031215614bcf578182fd5b833567ffffffffffffffff80821115614be6578384fd5b818601915086601f8301121515614bfb578384fd5b813581811115614c09578485fd5b876020602083028501011115614c1d578485fd5b6020830195508094505050506020840135614c3781615801565b809150505b9250925092565b600060208284031215614c54578081fd5b8151614c5f816157d6565b809150505b92915050565b600060208284031215614c7b578081fd5b81357fffffffff00000000000000000000000000000000000000000000000000000000811681141515614cac578182fd5b809150505b92915050565b600060208284031215614cc8578081fd5b8151614cd3816157ad565b809150505b92915050565b600060208284031215614cef578081fd5b8151614cfa816157ad565b809150505b92915050565b60006101a0808385031215614d18578182fd5b614d2181615782565b90508251815260208301516020820152604083015160408201526060830151606082015260808301516080820152614d5b60a08401614b7e565b60a0820152614d6c60c08401614b7e565b60c0820152614d7d60e08401614aca565b60e0820152610100614d90818501614aa0565b8183015250610120614da3818501614b7e565b8183015250610140614db6818501614b54565b8183015250610160614dc9818501614a76565b8183015250610180614ddc818501614b7e565b8183015250809150505b92915050565b600060006000838503610240811215614e03578182fd5b6101a080821215614e12578283fd5b614e1b81615782565b91508535825260208601356020830152604086013560408301526060860135606083015260808601356080830152614e5560a08701614b69565b60a0830152614e6660c08701614b69565b60c0830152614e7760e08701614ab5565b60e0830152610100614e8a818801614a8b565b8184015250610120614e9d818801614b69565b8184015250610140614eb0818801614b3f565b8184015250610160614ec3818801614a61565b8184015250610180614ed6818801614b69565b8184015250819450614eea87828801614adf565b93505050614efb6102208501614b69565b90505b9250925092565b600060808284031215614f16578081fd5b6040516080810181811067ffffffffffffffff82111715614f3357fe5b806040525082518152602083015160208201526040830151604082015260608301516060820152809150505b92915050565b6000600060006000600060006101208789031215614f81578384fd5b614f8b8888614adf565b95506080870135614f9b8161581a565b8095505060a0870135935060c0870135614fb4816157d6565b8093505060e0870135915061010087013590505b9295509295509295565b600060208284031215614fe3578081fd5b813590505b92915050565b600060208284031215614fff578081fd5b815190505b92915050565b600060006040838503121561501d578182fd5b82359150602083013561502f81615801565b809150505b9250929050565b60006020828403121561504c578081fd5b813561505781615801565b809150505b92915050565b600060208284031215615073578081fd5b813561507e8161581a565b809150505b92915050565b60006020828403121561509a578081fd5b81516150a58161581a565b809150505b92915050565b6000600060006000608085870312156150c7578182fd5b84356150d28161581a565b80945050602085013592506040850135915060608501356150f281615801565b809150505b92959194509250565b73ffffffffffffffffffffffffffffffffffffffff811682525b5050565b80151582525b5050565b8060020b82525b5050565b805182526020810151602083015260408101516040830152606081015160608301526080810151608083015260a081015161517160a0840182615214565b5060c081015161518460c0840182615214565b5060e081015161519760e0840182615128565b50610100808201516151ab8285018261511e565b5050610120808201516151c082850182615214565b5050610140808201516151d582850182615206565b5050610160808201516151ea82850182615100565b5050610180808201516151ff82850182615214565b50505b5050565b63ffffffff811682525b5050565b67ffffffffffffffff811682525b5050565b600060208201905073ffffffffffffffffffffffffffffffffffffffff831682525b92915050565b600060208201905073ffffffffffffffffffffffffffffffffffffffff831682525b92915050565b600060408201905073ffffffffffffffffffffffffffffffffffffffff841682528260208301525b9392505050565b600060408201905073ffffffffffffffffffffffffffffffffffffffff841682528260208301525b9392505050565b600060408201905073ffffffffffffffffffffffffffffffffffffffff8416825267ffffffffffffffff831660208301525b9392505050565b600060408201905073ffffffffffffffffffffffffffffffffffffffff841682528260208301525b9392505050565b600060208201905082151582525b92915050565b600060208201905073ffffffffffffffffffffffffffffffffffffffff831682525b92915050565b600060208201905073ffffffffffffffffffffffffffffffffffffffff831682525b92915050565b600060208201905073ffffffffffffffffffffffffffffffffffffffff831682525b92915050565b600060208201905073ffffffffffffffffffffffffffffffffffffffff831682525b92915050565b600060208201905073ffffffffffffffffffffffffffffffffffffffff831682525b92915050565b60006101c08201905067ffffffffffffffff8416825261543b6020830184615133565b5b9392505050565b600060208252600f60208301527f4e6f20666c61736820626f72726f77000000000000000000000000000000000060408301526060820190505b919050565b600060208252600460208301527f4e6f6f700000000000000000000000000000000000000000000000000000000060408301526060820190505b919050565b600060208252601360208301527f4d7573742061646420636f6c6c61746572616c0000000000000000000000000060408301526060820190505b919050565b600060208252602360208301527f43616e7420696e637265617365202620646563726561736520636f6c6c61746560408301527f72616c000000000000000000000000000000000000000000000000000000000060608301526080820190505b919050565b600060208252601260208301527f506f736974696f6e20746f6f20736d616c6c000000000000000000000000000060408301526060820190505b919050565b600060208252601760208301527f496e73756666696369656e7420636f6c6c61746572616c00000000000000000060408301526060820190505b919050565b600060a08201905082518252602083015160208301526040830151604083015260608301516060830152608083015160808301525b92915050565b60006101a0820190506156318284615133565b5b92915050565b60006101c08201905061564b8285615133565b826101a08301525b9392505050565b6000608082019050825182526020830151602083015260408301516040830152606083015160608301525b92915050565b60006020820190508282525b92915050565b60006040820190508382528260208301525b9392505050565b600060c0820190508782528660208301528560408301528460608301528360808301528260a08301525b979650505050505050565b600060208201905063ffffffff831682525b92915050565b600060208201905067ffffffffffffffff831682525b92915050565b60006101c08201905067ffffffffffffffff841682526157426020830184615133565b5b9392505050565b600060a08201905067ffffffffffffffff871682528560208301528460408301528360608301528260808301525b9695505050505050565b6000604051905081810181811067ffffffffffffffff821117156157a257fe5b80604052505b919050565b73ffffffffffffffffffffffffffffffffffffffff8116811415156157d25760006000fd5b5b50565b801515811415156157e75760006000fd5b5b50565b8060020b811415156157fd5760006000fd5b5b50565b63ffffffff8116811415156158165760006000fd5b5b50565b67ffffffffffffffff8116811415156158335760006000fd5b5b50565bfe5369676e6564536166654d6174683a206d756c7469706c69636174696f6e206f766572666c6f77a2646970667358221220eace3178eb667ea8a763d2d134651d995377698091d92664424b35407a66ab2164736f6c63430007060033",
  "linkReferences": {},
  "deployedLinkReferences": {}
}