{
  "_format": "hh-sol-artifact-1",
  "contractName": "GovernorTestable",
  "sourceName": "contracts/mocks/GovernorTestable.sol",
  "abi": [
    {
      "anonymous": false,
      "inputs": [
        {
          "indexed": true,
          "internalType": "string",
          "name": "contractName",
          "type": "string"
        },
        {
          "indexed": true,
          "internalType": "address",
          "name": "contractAddress",
          "type": "address"
        }
      ],
      "name": "ContractUpgraded",
      "type": "event"
    },
    {
      "anonymous": false,
      "inputs": [
        {
          "indexed": true,
          "internalType": "address",
          "name": "newGovernor",
          "type": "address"
        }
      ],
      "name": "ProtocolUpgraded",
      "type": "event"
    },
    {
      "anonymous": false,
      "inputs": [],
      "name": "ShutdownExecuted",
      "type": "event"
    },
    {
      "anonymous": false,
      "inputs": [
        {
          "indexed": true,
          "internalType": "address",
          "name": "locker",
          "type": "address"
        },
        {
          "indexed": false,
          "internalType": "uint256",
          "name": "count",
          "type": "uint256"
        }
      ],
      "name": "ShutdownTokensLocked",
      "type": "event"
    },
    {
      "anonymous": false,
      "inputs": [
        {
          "indexed": true,
          "internalType": "address",
          "name": "locker",
          "type": "address"
        },
        {
          "indexed": false,
          "internalType": "uint256",
          "name": "count",
          "type": "uint256"
        }
      ],
      "name": "ShutdownTokensUnlocked",
      "type": "event"
    },
    {
      "inputs": [],
      "name": "EMERGENCY_SHUTDOWN_THRESHOLD",
      "outputs": [
        {
          "internalType": "uint256",
          "name": "",
          "type": "uint256"
        }
      ],
      "stateMutability": "view",
      "type": "function"
    },
    {
      "inputs": [],
      "name": "accounting",
      "outputs": [
        {
          "internalType": "contract IAccounting",
          "name": "",
          "type": "address"
        }
      ],
      "stateMutability": "view",
      "type": "function"
    },
    {
      "inputs": [],
      "name": "auctions",
      "outputs": [
        {
          "internalType": "contract IAuctions",
          "name": "",
          "type": "address"
        }
      ],
      "stateMutability": "view",
      "type": "function"
    },
    {
      "inputs": [],
      "name": "borrowRewardsPortion",
      "outputs": [
        {
          "internalType": "uint64",
          "name": "",
          "type": "uint64"
        }
      ],
      "stateMutability": "view",
      "type": "function"
    },
    {
      "inputs": [],
      "name": "calculateCurrentDailyDebtRewardCount",
      "outputs": [
        {
          "internalType": "uint256",
          "name": "",
          "type": "uint256"
        }
      ],
      "stateMutability": "nonpayable",
      "type": "function"
    },
    {
      "inputs": [],
      "name": "calculateCurrentDailyLiquidityRewardCount",
      "outputs": [
        {
          "internalType": "uint256",
          "name": "",
          "type": "uint256"
        }
      ],
      "stateMutability": "nonpayable",
      "type": "function"
    },
    {
      "inputs": [],
      "name": "communityAllocation",
      "outputs": [
        {
          "internalType": "contract CommunityAllocation",
          "name": "",
          "type": "address"
        }
      ],
      "stateMutability": "view",
      "type": "function"
    },
    {
      "inputs": [],
      "name": "creatorAllocation",
      "outputs": [
        {
          "internalType": "contract CreatorAllocation",
          "name": "",
          "type": "address"
        }
      ],
      "stateMutability": "view",
      "type": "function"
    },
    {
      "inputs": [],
      "name": "currentPeriod",
      "outputs": [
        {
          "internalType": "uint64",
          "name": "period",
          "type": "uint64"
        }
      ],
      "stateMutability": "view",
      "type": "function"
    },
    {
      "inputs": [],
      "name": "currentPhase",
      "outputs": [
        {
          "internalType": "uint8",
          "name": "",
          "type": "uint8"
        }
      ],
      "stateMutability": "view",
      "type": "function"
    },
    {
      "inputs": [],
      "name": "deployer",
      "outputs": [
        {
          "internalType": "address",
          "name": "",
          "type": "address"
        }
      ],
      "stateMutability": "view",
      "type": "function"
    },
    {
      "inputs": [],
      "name": "emergencyShutdownThresholdMet",
      "outputs": [
        {
          "internalType": "bool",
          "name": "",
          "type": "bool"
        }
      ],
      "stateMutability": "view",
      "type": "function"
    },
    {
      "inputs": [
        {
          "internalType": "address",
          "name": "",
          "type": "address"
        }
      ],
      "name": "emergencyShutdownTokensLocked",
      "outputs": [
        {
          "internalType": "uint256",
          "name": "",
          "type": "uint256"
        }
      ],
      "stateMutability": "view",
      "type": "function"
    },
    {
      "inputs": [],
      "name": "enforcedDecentralization",
      "outputs": [
        {
          "internalType": "contract IEnforcedDecentralization",
          "name": "",
          "type": "address"
        }
      ],
      "stateMutability": "view",
      "type": "function"
    },
    {
      "inputs": [
        {
          "internalType": "address",
          "name": "target",
          "type": "address"
        },
        {
          "internalType": "string",
          "name": "signature",
          "type": "string"
        },
        {
          "internalType": "bytes",
          "name": "data",
          "type": "bytes"
        }
      ],
      "name": "execute",
      "outputs": [
        {
          "internalType": "bool",
          "name": "success",
          "type": "bool"
        },
        {
          "internalType": "bytes",
          "name": "returnData",
          "type": "bytes"
        }
      ],
      "stateMutability": "nonpayable",
      "type": "function"
    },
    {
      "inputs": [],
      "name": "executeEmergencyShutdown",
      "outputs": [],
      "stateMutability": "nonpayable",
      "type": "function"
    },
    {
      "inputs": [],
      "name": "executeShutdown",
      "outputs": [],
      "stateMutability": "nonpayable",
      "type": "function"
    },
    {
      "inputs": [],
      "name": "firstPeriod",
      "outputs": [
        {
          "internalType": "uint64",
          "name": "",
          "type": "uint64"
        }
      ],
      "stateMutability": "view",
      "type": "function"
    },
    {
      "inputs": [],
      "name": "firstRewardsPeriod",
      "outputs": [
        {
          "internalType": "uint64",
          "name": "",
          "type": "uint64"
        }
      ],
      "stateMutability": "view",
      "type": "function"
    },
    {
      "inputs": [],
      "name": "genesisAllocation",
      "outputs": [
        {
          "internalType": "contract GenesisAllocation",
          "name": "",
          "type": "address"
        }
      ],
      "stateMutability": "view",
      "type": "function"
    },
    {
      "inputs": [],
      "name": "governorAlpha",
      "outputs": [
        {
          "internalType": "address",
          "name": "",
          "type": "address"
        }
      ],
      "stateMutability": "view",
      "type": "function"
    },
    {
      "inputs": [],
      "name": "hue",
      "outputs": [
        {
          "internalType": "contract IHue",
          "name": "",
          "type": "address"
        }
      ],
      "stateMutability": "view",
      "type": "function"
    },
    {
      "inputs": [],
      "name": "huePositionNFT",
      "outputs": [
        {
          "internalType": "contract IPositionNFT",
          "name": "",
          "type": "address"
        }
      ],
      "stateMutability": "view",
      "type": "function"
    },
    {
      "inputs": [
        {
          "internalType": "address",
          "name": "to",
          "type": "address"
        },
        {
          "internalType": "uint256",
          "name": "count",
          "type": "uint256"
        }
      ],
      "name": "increaseTCPAllocation",
      "outputs": [],
      "stateMutability": "nonpayable",
      "type": "function"
    },
    {
      "inputs": [
        {
          "components": [
            {
              "internalType": "contract IAccounting",
              "name": "accounting",
              "type": "address"
            },
            {
              "internalType": "contract IAuctions",
              "name": "auctions",
              "type": "address"
            },
            {
              "internalType": "contract IEnforcedDecentralization",
              "name": "enforcedDecentralization",
              "type": "address"
            },
            {
              "internalType": "address",
              "name": "governorAlpha",
              "type": "address"
            },
            {
              "internalType": "contract IHue",
              "name": "hue",
              "type": "address"
            },
            {
              "internalType": "contract IPositionNFT",
              "name": "huePositionNFT",
              "type": "address"
            },
            {
              "internalType": "contract ILendHue",
              "name": "lendHue",
              "type": "address"
            },
            {
              "internalType": "contract ILiquidations",
              "name": "liquidations",
              "type": "address"
            },
            {
              "internalType": "contract IMarket",
              "name": "market",
              "type": "address"
            },
            {
              "internalType": "contract IPrices",
              "name": "prices",
              "type": "address"
            },
            {
              "internalType": "contract IProtocolLock",
              "name": "protocolLock",
              "type": "address"
            },
            {
              "internalType": "contract IRates",
              "name": "rates",
              "type": "address"
            },
            {
              "internalType": "contract IRewards",
              "name": "rewards",
              "type": "address"
            },
            {
              "internalType": "contract ISettlement",
              "name": "settlement",
              "type": "address"
            },
            {
              "internalType": "contract ITCP",
              "name": "tcp",
              "type": "address"
            },
            {
              "internalType": "address",
              "name": "timelock",
              "type": "address"
            },
            {
              "internalType": "contract CommunityAllocation",
              "name": "communityAllocation",
              "type": "address"
            },
            {
              "internalType": "contract CreatorAllocation",
              "name": "creatorAllocation",
              "type": "address"
            },
            {
              "internalType": "contract GenesisAllocation",
              "name": "genesisAllocation",
              "type": "address"
            },
            {
              "internalType": "contract OperatingAllocation",
              "name": "operatingAllocation",
              "type": "address"
            },
            {
              "internalType": "address[]",
              "name": "tokenIncentiveMinters",
              "type": "address[]"
            },
            {
              "internalType": "uint256[]",
              "name": "caps",
              "type": "uint256[]"
            }
          ],
          "internalType": "struct IGovernor.ProtocolData",
          "name": "pd",
          "type": "tuple"
        }
      ],
      "name": "init",
      "outputs": [],
      "stateMutability": "nonpayable",
      "type": "function"
    },
    {
      "inputs": [],
      "name": "isShutdown",
      "outputs": [
        {
          "internalType": "bool",
          "name": "",
          "type": "bool"
        }
      ],
      "stateMutability": "view",
      "type": "function"
    },
    {
      "inputs": [],
      "name": "lendHue",
      "outputs": [
        {
          "internalType": "contract ILendHue",
          "name": "",
          "type": "address"
        }
      ],
      "stateMutability": "view",
      "type": "function"
    },
    {
      "inputs": [],
      "name": "liquidations",
      "outputs": [
        {
          "internalType": "contract ILiquidations",
          "name": "",
          "type": "address"
        }
      ],
      "stateMutability": "view",
      "type": "function"
    },
    {
      "inputs": [
        {
          "internalType": "uint256",
          "name": "count",
          "type": "uint256"
        }
      ],
      "name": "lockTokensForEmergencyShutdown",
      "outputs": [],
      "stateMutability": "nonpayable",
      "type": "function"
    },
    {
      "inputs": [],
      "name": "market",
      "outputs": [
        {
          "internalType": "contract IMarket",
          "name": "",
          "type": "address"
        }
      ],
      "stateMutability": "view",
      "type": "function"
    },
    {
      "inputs": [
        {
          "internalType": "address",
          "name": "to",
          "type": "address"
        },
        {
          "internalType": "uint256",
          "name": "count",
          "type": "uint256"
        }
      ],
      "name": "mintIncentive",
      "outputs": [],
      "stateMutability": "nonpayable",
      "type": "function"
    },
    {
      "inputs": [
        {
          "internalType": "address",
          "name": "to",
          "type": "address"
        },
        {
          "internalType": "uint256",
          "name": "count",
          "type": "uint256"
        }
      ],
      "name": "mintTCP",
      "outputs": [],
      "stateMutability": "nonpayable",
      "type": "function"
    },
    {
      "inputs": [
        {
          "internalType": "address",
          "name": "to",
          "type": "address"
        },
        {
          "internalType": "uint256",
          "name": "count",
          "type": "uint256"
        }
      ],
      "name": "mintVotingRewards",
      "outputs": [],
      "stateMutability": "nonpayable",
      "type": "function"
    },
    {
      "inputs": [],
      "name": "operatingAllocation",
      "outputs": [
        {
          "internalType": "contract OperatingAllocation",
          "name": "",
          "type": "address"
        }
      ],
      "stateMutability": "view",
      "type": "function"
    },
    {
      "inputs": [],
      "name": "periodLength",
      "outputs": [
        {
          "internalType": "uint64",
          "name": "",
          "type": "uint64"
        }
      ],
      "stateMutability": "view",
      "type": "function"
    },
    {
      "inputs": [],
      "name": "periodRewards",
      "outputs": [
        {
          "internalType": "uint216",
          "name": "periodRewards",
          "type": "uint216"
        },
        {
          "internalType": "uint40",
          "name": "currentCalculatedPeriod",
          "type": "uint40"
        }
      ],
      "stateMutability": "view",
      "type": "function"
    },
    {
      "inputs": [],
      "name": "prices",
      "outputs": [
        {
          "internalType": "contract IPrices",
          "name": "",
          "type": "address"
        }
      ],
      "stateMutability": "view",
      "type": "function"
    },
    {
      "inputs": [],
      "name": "protocolLock",
      "outputs": [
        {
          "internalType": "contract IProtocolLock",
          "name": "",
          "type": "address"
        }
      ],
      "stateMutability": "view",
      "type": "function"
    },
    {
      "inputs": [],
      "name": "rates",
      "outputs": [
        {
          "internalType": "contract IRates",
          "name": "",
          "type": "address"
        }
      ],
      "stateMutability": "view",
      "type": "function"
    },
    {
      "inputs": [
        {
          "internalType": "address",
          "name": "caller",
          "type": "address"
        }
      ],
      "name": "requireDebtServicesAccess",
      "outputs": [],
      "stateMutability": "view",
      "type": "function"
    },
    {
      "inputs": [
        {
          "internalType": "address",
          "name": "caller",
          "type": "address"
        }
      ],
      "name": "requireHueReservesBurnAccess",
      "outputs": [],
      "stateMutability": "view",
      "type": "function"
    },
    {
      "inputs": [
        {
          "internalType": "address",
          "name": "caller",
          "type": "address"
        }
      ],
      "name": "requireInitializePoolAccess",
      "outputs": [],
      "stateMutability": "view",
      "type": "function"
    },
    {
      "inputs": [
        {
          "internalType": "address",
          "name": "caller",
          "type": "address"
        }
      ],
      "name": "requireUpdatePositionAccess",
      "outputs": [],
      "stateMutability": "view",
      "type": "function"
    },
    {
      "inputs": [
        {
          "internalType": "address",
          "name": "target",
          "type": "address"
        },
        {
          "internalType": "string",
          "name": "signature",
          "type": "string"
        }
      ],
      "name": "requireValidAction",
      "outputs": [],
      "stateMutability": "view",
      "type": "function"
    },
    {
      "inputs": [],
      "name": "rewards",
      "outputs": [
        {
          "internalType": "contract IRewards",
          "name": "",
          "type": "address"
        }
      ],
      "stateMutability": "view",
      "type": "function"
    },
    {
      "inputs": [
        {
          "internalType": "uint64",
          "name": "portion",
          "type": "uint64"
        }
      ],
      "name": "setBorrowRewardsPortion",
      "outputs": [],
      "stateMutability": "nonpayable",
      "type": "function"
    },
    {
      "inputs": [],
      "name": "setFirstRewardsPeriodToCurrentPeriod",
      "outputs": [],
      "stateMutability": "nonpayable",
      "type": "function"
    },
    {
      "inputs": [
        {
          "internalType": "uint64",
          "name": "phaseOneStartTime",
          "type": "uint64"
        }
      ],
      "name": "setPhaseOneStartTime",
      "outputs": [],
      "stateMutability": "nonpayable",
      "type": "function"
    },
    {
      "inputs": [],
      "name": "settlement",
      "outputs": [
        {
          "internalType": "contract ISettlement",
          "name": "",
          "type": "address"
        }
      ],
      "stateMutability": "view",
      "type": "function"
    },
    {
      "inputs": [],
      "name": "shutdownTime",
      "outputs": [
        {
          "internalType": "uint64",
          "name": "",
          "type": "uint64"
        }
      ],
      "stateMutability": "view",
      "type": "function"
    },
    {
      "inputs": [],
      "name": "tcp",
      "outputs": [
        {
          "internalType": "contract ITCP",
          "name": "",
          "type": "address"
        }
      ],
      "stateMutability": "view",
      "type": "function"
    },
    {
      "inputs": [],
      "name": "timelock",
      "outputs": [
        {
          "internalType": "address",
          "name": "",
          "type": "address"
        }
      ],
      "stateMutability": "view",
      "type": "function"
    },
    {
      "inputs": [
        {
          "internalType": "address",
          "name": "",
          "type": "address"
        }
      ],
      "name": "tokenIncentiveMintCaps",
      "outputs": [
        {
          "internalType": "uint256",
          "name": "",
          "type": "uint256"
        }
      ],
      "stateMutability": "view",
      "type": "function"
    },
    {
      "inputs": [],
      "name": "unlockTokensForEmergencyShutdown",
      "outputs": [],
      "stateMutability": "nonpayable",
      "type": "function"
    },
    {
      "inputs": [
        {
          "internalType": "address",
          "name": "_auctions",
          "type": "address"
        }
      ],
      "name": "upgradeAuctions",
      "outputs": [],
      "stateMutability": "nonpayable",
      "type": "function"
    },
    {
      "inputs": [
        {
          "internalType": "address",
          "name": "_liquidations",
          "type": "address"
        }
      ],
      "name": "upgradeLiquidations",
      "outputs": [],
      "stateMutability": "nonpayable",
      "type": "function"
    },
    {
      "inputs": [
        {
          "internalType": "address",
          "name": "_market",
          "type": "address"
        }
      ],
      "name": "upgradeMarket",
      "outputs": [],
      "stateMutability": "nonpayable",
      "type": "function"
    },
    {
      "inputs": [
        {
          "internalType": "address",
          "name": "_prices",
          "type": "address"
        }
      ],
      "name": "upgradePrices",
      "outputs": [],
      "stateMutability": "nonpayable",
      "type": "function"
    },
    {
      "inputs": [
        {
          "internalType": "address",
          "name": "newGovernor",
          "type": "address"
        }
      ],
      "name": "upgradeProtocol",
      "outputs": [],
      "stateMutability": "nonpayable",
      "type": "function"
    },
    {
      "inputs": [
        {
          "internalType": "address",
          "name": "_rates",
          "type": "address"
        }
      ],
      "name": "upgradeRates",
      "outputs": [],
      "stateMutability": "nonpayable",
      "type": "function"
    },
    {
      "inputs": [
        {
          "internalType": "address",
          "name": "_rewards",
          "type": "address"
        }
      ],
      "name": "upgradeRewards",
      "outputs": [],
      "stateMutability": "nonpayable",
      "type": "function"
    },
    {
      "inputs": [
        {
          "internalType": "address",
          "name": "_settlement",
          "type": "address"
        }
      ],
      "name": "upgradeSettlement",
      "outputs": [],
      "stateMutability": "nonpayable",
      "type": "function"
    },
    {
      "inputs": [
        {
          "internalType": "bytes4",
          "name": "",
          "type": "bytes4"
        }
      ],
      "name": "validUpdate",
      "outputs": [
        {
          "internalType": "bool",
          "name": "",
          "type": "bool"
        }
      ],
      "stateMutability": "view",
      "type": "function"
    }
  ],
  "bytecode": "0x60c06040526706f05b59d3b20000600160006101000a81548167ffffffffffffffff021916908367ffffffffffffffff1602179055507fffffffffffffffffffffffffffffffffffffffffffffffffffffffffffffffff601b6000509090556001601c600050909055348015620000765760006000fd5b505b5b620151805b60018167ffffffffffffffff166200009b6200038660201b60201c565b67ffffffffffffffff16811515620000af57fe5b040367ffffffffffffffff1660a08167ffffffffffffffff1660c01b815260080150508067ffffffffffffffff1660808167ffffffffffffffff1660c01b815260080150505b50600160006000508190909055505b60405180604001604052807a03a573c963324b20cc56ca03bbbd35831cb7d9c0000000000000007affffffffffffffffffffffffffffffffffffffffffffffffffffff168152602001600064ffffffffff16815260200150601d60005060008201518160000160006101000a8154817affffffffffffffffffffffffffffffffffffffffffffffffffffff02191690837affffffffffffffffffffffffffffffffffffffffffffffffffffff160217905550602082015181600001601b6101000a81548164ffffffffff021916908364ffffffffff16021790555090505060016019600050600063232948ea60e01b7bffffffffffffffffffffffffffffffffffffffffffffffffffffffff19167bffffffffffffffffffffffffffffffffffffffffffffffffffffffff1916815260200190815260200160002060006101000a81548160ff02191690831515021790555060016019600050600063b8188c8160e01b7bffffffffffffffffffffffffffffffffffffffffffffffffffffffff19167bffffffffffffffffffffffffffffffffffffffffffffffffffffffff1916815260200190815260200160002060006101000a81548160ff02191690831515021790555060016019600050600063b4b6882b60e01b7bffffffffffffffffffffffffffffffffffffffffffffffffffffffff19167bffffffffffffffffffffffffffffffffffffffffffffffffffffffff1916815260200190815260200160002060006101000a81548160ff02191690831515021790555033601a60006101000a81548173ffffffffffffffffffffffffffffffffffffffff021916908373ffffffffffffffffffffffffffffffffffffffff1602179055505b6200043c565b6000620003a042620003a860201b6200536217909060201c565b905080505b90565b600068010000000000000000821015156200042e576040517f08c379a00000000000000000000000000000000000000000000000000000000081526004018080602001828103825260118152602001807f6d6f7265207468616e203634206269747300000000000000000000000000000081526020015060200191505060405180910390fd5b81905062000437565b919050565b60805160c01c60a05160c01c6173a862000484600039806143ab52806153f85280615e595280615ee552508061465d52806154195280615e7a5280615f1e52506173a86000f3fe60806040523480156100115760006000fd5b50600436106103ca5760003560e01c806385aa610311610200578063bf86d6901161011b578063d53b4ab4116100ae578063f6fbc1921161007d578063f6fbc19214610aa0578063fd43008514610aaa578063fe47727714610ac8578063ff26df7214610ae6576103ca565b8063d53b4ab414610a2c578063d5f3948814610a4a578063e97a99b614610a68578063ef7a7cfa14610a84576103ca565b8063d2ca2115116100ea578063d2ca2115146109b4578063d33219b4146109d2578063d3419bf3146109f0578063d478b08714610a0e576103ca565b8063bf86d69014610950578063c4e3a63b1461096e578063ce4996821461098c578063d0d8ab9a146109aa576103ca565b8063a1c1f90d11610193578063a89f51ae11610162578063a89f51ae146108de578063b4b6882b146108fc578063b8188c8114610918578063b971dc0514610934576103ca565b8063a1c1f90d1461086a578063a362273514610886578063a43c36af146108a4578063a5d4198b146108c0576103ca565b80639624e83e116101cf5780639624e83e146107e05780639a371c84146107fe5780639d35b3f21461081c5780639ec5a8941461084c576103ca565b806385aa61031461076e57806388a4bfb71461078c5780638f40b82f146107a85780639622cd8f146107c4576103ca565b806343f48fbd116102f0578063628c84b51161028357806380304d091161025257806380304d09146106fc57806380b5c6651461071857806380f556051461073457806383208f5314610752576103ca565b8063628c84b5146106895780636c1323a8146106a5578063734875a8146106c45780637c114fed146106e0576103ca565b806351160630116102bf5780635116063014610613578063585690811461063157806359be1de21461064f5780635f5a05341461066b576103ca565b806343f48fbd1461059f5780634b414e32146105bd5780634cd7a315146105db5780634d6729f5146105f7576103ca565b8063232948ea1161036857806333daf5d41161033757806333daf5d4146105165780633567c0611461054757806336fc02f4146105515780633f88b0c51461056f576103ca565b8063232948ea146104b25780632cae0269146104bc57806332374174146104da57806332f1eb76146104f8576103ca565b80630a86f109116103a45780630a86f10914610428578063113cf1ab1461044657806318c7de1714610476578063216ad0b214610494576103ca565b8063055ad42e146103d057806306040618146103ee578063079329871461040c576103ca565b60006000fd5b6103d8610b02565b6040516103e59190617212565b60405180910390f35b6103f6610bb0565b60405161040391906171f6565b60405180910390f35b61042660048036038101906104219190616522565b610bc8565b005b610430610d59565b60405161043d91906171f6565b60405180910390f35b610460600480360381019061045b9190616553565b610d73565b60405161046d9190616c4b565b60405180910390f35b61047e610d98565b60405161048b91906171e4565b60405180910390f35b61049c610dfe565b6040516104a991906171f6565b60405180910390f35b6104ba610e18565b005b6104c4610f03565b6040516104d19190616d9c565b60405180910390f35b6104e2610f29565b6040516104ef9190616d74565b60405180910390f35b610500610f4f565b60405161050d9190616cd4565b60405180910390f35b610530600480360381019061052b919061647b565b610f75565b60405161053e929190616c5f565b60405180910390f35b61054f6111ba565b005b6105596111f3565b6040516105669190616f04565b60405180910390f35b610589600480360381019061058491906163ce565b611219565b60405161059691906171e4565b60405180910390f35b6105a7611234565b6040516105b49190616e8c565b60405180910390f35b6105c561125a565b6040516105d29190616d4c565b60405180910390f35b6105f560048036038101906105f09190616522565b611280565b005b610611600480360381019061060c9190616522565b611455565b005b61061b61163e565b6040516106289190616edc565b60405180910390f35b610639611664565b60405161064691906171f6565b60405180910390f35b6106696004803603810190610664919061685e565b61167e565b005b61067361239d565b6040516106809190616f2c565b60405180910390f35b6106a3600480360381019061069e91906163ce565b6123c3565b005b6106ad61247e565b6040516106bb9291906171a7565b60405180910390f35b6106de60048036038101906106d991906163ce565b6124cb565b005b6106fa60048036038101906106f591906163ce565b612586565b005b610716600480360381019061071191906163ce565b612699565b005b610732600480360381019061072d91906163ce565b612ad7565b005b61073c612cec565b6040516107499190616dec565b60405180910390f35b61076c600480360381019061076791906163ce565b612d12565b005b61077661309f565b6040516107839190616d24565b60405180910390f35b6107a660048036038101906107a191906168a5565b6130c5565b005b6107c260048036038101906107bd91906163ce565b613305565b005b6107de60048036038101906107d991906163ce565b613692565b005b6107e861374d565b6040516107f59190616cfc565b60405180910390f35b610806613773565b6040516108139190616dc4565b60405180910390f35b610836600480360381019061083191906163ce565b613799565b60405161084391906171e4565b60405180910390f35b6108546137b4565b6040516108619190616eb4565b60405180910390f35b610884600480360381019061087f91906163ce565b6137da565b005b61088e613b67565b60405161089b9190616cac565b60405180910390f35b6108be60048036038101906108b991906163f5565b613b8d565b005b6108c8613c24565b6040516108d591906171e4565b60405180910390f35b6108e6613c70565b6040516108f39190616e14565b60405180910390f35b610916600480360381019061091191906168dd565b613c96565b005b610932600480360381019061092d91906168dd565b613dbf565b005b61094e600480360381019061094991906163ce565b613fec565b005b610958614379565b6040516109659190616c4b565b60405180910390f35b6109766143a9565b60405161098391906171f6565b60405180910390f35b6109946143cd565b6040516109a19190616c4b565b60405180910390f35b6109b2614565565b005b6109bc61465b565b6040516109c991906171f6565b60405180910390f35b6109da61467f565b6040516109e79190616b4e565b60405180910390f35b6109f86146a5565b604051610a059190616e3c565b60405180910390f35b610a166146cb565b604051610a239190616e64565b60405180910390f35b610a346146f1565b604051610a419190616c84565b60405180910390f35b610a52614717565b604051610a5f9190616b4e565b60405180910390f35b610a826004803603810190610a7d91906163ce565b61473d565b005b610a9e6004803603810190610a999190616522565b614b86565b005b610aa8614d6f565b005b610ab2614fa3565b604051610abf9190616b4e565b60405180910390f35b610ad0614fc9565b604051610add91906171e4565b60405180910390f35b610b006004803603810190610afb91906163ce565b614fd5565b005b6000600a60009054906101000a900473ffffffffffffffffffffffffffffffffffffffff1673ffffffffffffffffffffffffffffffffffffffff1663055ad42e6040518163ffffffff1660e01b815260040160206040518083038186803b158015610b6d5760006000fd5b505afa158015610b82573d600060003e3d6000fd5b505050506040513d601f19601f82011682018060405250810190610ba69190616912565b9050610bad565b90565b6000610bc06153f463ffffffff16565b905080505b90565b600260006000505414151515610c49576040517f08c379a000000000000000000000000000000000000000000000000000000000815260040180806020018281038252601f8152602001807f5265656e7472616e637947756172643a207265656e7472616e742063616c6c0081526020015060200191505060405180910390fd5b60026000600050819090905550610cb5601460009054906101000a900473ffffffffffffffffffffffffffffffffffffffff1673ffffffffffffffffffffffffffffffffffffffff163373ffffffffffffffffffffffffffffffffffffffff161461546d63ffffffff16565b600760009054906101000a900473ffffffffffffffffffffffffffffffffffffffff1673ffffffffffffffffffffffffffffffffffffffff1663449a52f883836040518363ffffffff1660e01b8152600401610d12929190616c1c565b600060405180830381600087803b158015610d2d5760006000fd5b505af1158015610d42573d600060003e3d6000fd5b505050505b600160006000508190909055505b5050565b600160009054906101000a900467ffffffffffffffff1681565b601960005060205280600052604060002060009150909054906101000a900460ff1681565b6000610df4610dd8600160009054906101000a900467ffffffffffffffff1667ffffffffffffffff16670de0b6b3a76400006154b390919063ffffffff16565b610de661553c63ffffffff16565b61588b90919063ffffffff16565b9050610dfb565b90565b601e60009054906101000a900467ffffffffffffffff1681565b600260006000505414151515610e99576040517f08c379a000000000000000000000000000000000000000000000000000000000815260040180806020018281038252601f8152602001807f5265656e7472616e637947756172643a207265656e7472616e742063616c6c0081526020015060200191505060405180910390fd5b60026000600050819090905550610ee33073ffffffffffffffffffffffffffffffffffffffff163373ffffffffffffffffffffffffffffffffffffffff161461546d63ffffffff16565b610ef16158b163ffffffff16565b5b5b600160006000508190909055505b565b600b60009054906101000a900473ffffffffffffffffffffffffffffffffffffffff1681565b600860009054906101000a900473ffffffffffffffffffffffffffffffffffffffff1681565b601760009054906101000a900473ffffffffffffffffffffffffffffffffffffffff1681565b600060606001601c60005054141515610fc3576040517f08c379a0000000000000000000000000000000000000000000000000000000008152600401610fba90617168565b60405180910390fd5b6000601c60005081909090555061102f601360009054906101000a900473ffffffffffffffffffffffffffffffffffffffff1673ffffffffffffffffffffffffffffffffffffffff163373ffffffffffffffffffffffffffffffffffffffff161461546d63ffffffff16565b600a60009054906101000a900473ffffffffffffffffffffffffffffffffffffffff1673ffffffffffffffffffffffffffffffffffffffff1663a43c36af86866040518363ffffffff1660e01b815260040161108c929190616be3565b60006040518083038186803b1580156110a55760006000fd5b505afa1580156110ba573d600060003e3d6000fd5b505050508473ffffffffffffffffffffffffffffffffffffffff166110e485615a8363ffffffff16565b846040516020016110f692919061698d565b60405160208183030381529060405260405161111291906169d8565b6000604051808303816000865af19150503d806000811461114f576040519150601f19603f3d011682016040523d82523d6000602084013e611154565b606091505b50809250819350505081819015156111a2576040517f08c379a00000000000000000000000000000000000000000000000000000000081526004016111999190616f54565b60405180910390fd5b505b6001601c6000508190909055505b935093915050565b6111c86153f463ffffffff16565b601e60006101000a81548167ffffffffffffffff021916908367ffffffffffffffff1602179055505b565b600760009054906101000a900473ffffffffffffffffffffffffffffffffffffffff1681565b60026000506020528060005260406000206000915090505481565b601060009054906101000a900473ffffffffffffffffffffffffffffffffffffffff1681565b600a60009054906101000a900473ffffffffffffffffffffffffffffffffffffffff1681565b600260006000505414151515611301576040517f08c379a000000000000000000000000000000000000000000000000000000000815260040180806020018281038252601f8152602001807f5265656e7472616e637947756172643a207265656e7472616e742063616c6c0081526020015060200191505060405180910390fd5b6002600060005081909090555061136681600360005060003373ffffffffffffffffffffffffffffffffffffffff1673ffffffffffffffffffffffffffffffffffffffff168152602001908152602001600020600050546154b390919063ffffffff16565b600360005060003373ffffffffffffffffffffffffffffffffffffffff1673ffffffffffffffffffffffffffffffffffffffff168152602001908152602001600020600050819090905550600760009054906101000a900473ffffffffffffffffffffffffffffffffffffffff1673ffffffffffffffffffffffffffffffffffffffff1663449a52f883836040518363ffffffff1660e01b815260040161140e929190616c1c565b600060405180830381600087803b1580156114295760006000fd5b505af115801561143e573d600060003e3d6000fd5b505050505b600160006000508190909055505b5050565b6002600060005054141515156114d6576040517f08c379a000000000000000000000000000000000000000000000000000000000815260040180806020018281038252601f8152602001807f5265656e7472616e637947756172643a207265656e7472616e742063616c6c0081526020015060200191505060405180910390fd5b6002600060005081909090555061159a600d60009054906101000a900473ffffffffffffffffffffffffffffffffffffffff1673ffffffffffffffffffffffffffffffffffffffff163373ffffffffffffffffffffffffffffffffffffffff16148061158f5750601160009054906101000a900473ffffffffffffffffffffffffffffffffffffffff1673ffffffffffffffffffffffffffffffffffffffff163373ffffffffffffffffffffffffffffffffffffffff16145b61546d63ffffffff16565b601860009054906101000a900473ffffffffffffffffffffffffffffffffffffffff1673ffffffffffffffffffffffffffffffffffffffff1663d9e92bf783836040518363ffffffff1660e01b81526004016115f7929190616c1c565b600060405180830381600087803b1580156116125760006000fd5b505af1158015611627573d600060003e3d6000fd5b505050505b600160006000508190909055505b5050565b601260009054906101000a900473ffffffffffffffffffffffffffffffffffffffff1681565b600160089054906101000a900467ffffffffffffffff1681565b6116dd601a60009054906101000a900473ffffffffffffffffffffffffffffffffffffffff1673ffffffffffffffffffffffffffffffffffffffff163373ffffffffffffffffffffffffffffffffffffffff161461546d63ffffffff16565b601a60006101000a81549073ffffffffffffffffffffffffffffffffffffffff02191690558060000160208101906117159190616615565b600460006101000a81548173ffffffffffffffffffffffffffffffffffffffff021916908373ffffffffffffffffffffffffffffffffffffffff160217905550806020016020810190611768919061663c565b600560006101000a81548173ffffffffffffffffffffffffffffffffffffffff021916908373ffffffffffffffffffffffffffffffffffffffff1602179055508060400160208101906117bb9190616663565b600a60006101000a81548173ffffffffffffffffffffffffffffffffffffffff021916908373ffffffffffffffffffffffffffffffffffffffff16021790555080606001602081019061180e91906163ce565b601460006101000a81548173ffffffffffffffffffffffffffffffffffffffff021916908373ffffffffffffffffffffffffffffffffffffffff160217905550806080016020810190611861919061668a565b600860006101000a81548173ffffffffffffffffffffffffffffffffffffffff021916908373ffffffffffffffffffffffffffffffffffffffff1602179055508060a00160208101906118b49190616726565b600960006101000a81548173ffffffffffffffffffffffffffffffffffffffff021916908373ffffffffffffffffffffffffffffffffffffffff1602179055508060c001602081019061190791906166b1565b600b60006101000a81548173ffffffffffffffffffffffffffffffffffffffff021916908373ffffffffffffffffffffffffffffffffffffffff1602179055508060e001602081019061195a91906166d8565b600c60006101000a81548173ffffffffffffffffffffffffffffffffffffffff021916908373ffffffffffffffffffffffffffffffffffffffff160217905550806101000160208101906119ae91906166ff565b600d60006101000a81548173ffffffffffffffffffffffffffffffffffffffff021916908373ffffffffffffffffffffffffffffffffffffffff16021790555080610120016020810190611a02919061674d565b600e60006101000a81548173ffffffffffffffffffffffffffffffffffffffff021916908373ffffffffffffffffffffffffffffffffffffffff16021790555080610140016020810190611a569190616774565b600f60006101000a81548173ffffffffffffffffffffffffffffffffffffffff021916908373ffffffffffffffffffffffffffffffffffffffff16021790555080610160016020810190611aaa919061679b565b601060006101000a81548173ffffffffffffffffffffffffffffffffffffffff021916908373ffffffffffffffffffffffffffffffffffffffff16021790555080610180016020810190611afe91906167c2565b601160006101000a81548173ffffffffffffffffffffffffffffffffffffffff021916908373ffffffffffffffffffffffffffffffffffffffff160217905550806101a0016020810190611b5291906167e9565b601260006101000a81548173ffffffffffffffffffffffffffffffffffffffff021916908373ffffffffffffffffffffffffffffffffffffffff160217905550806101c0016020810190611ba69190616810565b600760006101000a81548173ffffffffffffffffffffffffffffffffffffffff021916908373ffffffffffffffffffffffffffffffffffffffff160217905550806101e0016020810190611bfa91906163ce565b601360006101000a81548173ffffffffffffffffffffffffffffffffffffffff021916908373ffffffffffffffffffffffffffffffffffffffff16021790555080610200016020810190611c4e91906165a0565b601560006101000a81548173ffffffffffffffffffffffffffffffffffffffff021916908373ffffffffffffffffffffffffffffffffffffffff16021790555080610220016020810190611ca291906165c7565b601660006101000a81548173ffffffffffffffffffffffffffffffffffffffff021916908373ffffffffffffffffffffffffffffffffffffffff16021790555080610240016020810190611cf691906165ee565b601760006101000a81548173ffffffffffffffffffffffffffffffffffffffff021916908373ffffffffffffffffffffffffffffffffffffffff16021790555080610260016020810190611d4a9190616837565b601860006101000a81548173ffffffffffffffffffffffffffffffffffffffff021916908373ffffffffffffffffffffffffffffffffffffffff160217905550600f60009054906101000a900473ffffffffffffffffffffffffffffffffffffffff1673ffffffffffffffffffffffffffffffffffffffff16632c388d5d600560009054906101000a900473ffffffffffffffffffffffffffffffffffffffff166040518263ffffffff1660e01b8152600401611e079190616b4e565b600060405180830381600087803b158015611e225760006000fd5b505af1158015611e37573d600060003e3d6000fd5b50505050600f60009054906101000a900473ffffffffffffffffffffffffffffffffffffffff1673ffffffffffffffffffffffffffffffffffffffff16632c388d5d600a60009054906101000a900473ffffffffffffffffffffffffffffffffffffffff166040518263ffffffff1660e01b8152600401611eb89190616b4e565b600060405180830381600087803b158015611ed35760006000fd5b505af1158015611ee8573d600060003e3d6000fd5b50505050600f60009054906101000a900473ffffffffffffffffffffffffffffffffffffffff1673ffffffffffffffffffffffffffffffffffffffff16632c388d5d600c60009054906101000a900473ffffffffffffffffffffffffffffffffffffffff166040518263ffffffff1660e01b8152600401611f699190616b4e565b600060405180830381600087803b158015611f845760006000fd5b505af1158015611f99573d600060003e3d6000fd5b50505050600f60009054906101000a900473ffffffffffffffffffffffffffffffffffffffff1673ffffffffffffffffffffffffffffffffffffffff16632c388d5d600d60009054906101000a900473ffffffffffffffffffffffffffffffffffffffff166040518263ffffffff1660e01b815260040161201a9190616b4e565b600060405180830381600087803b1580156120355760006000fd5b505af115801561204a573d600060003e3d6000fd5b50505050600f60009054906101000a900473ffffffffffffffffffffffffffffffffffffffff1673ffffffffffffffffffffffffffffffffffffffff16632c388d5d601060009054906101000a900473ffffffffffffffffffffffffffffffffffffffff166040518263ffffffff1660e01b81526004016120cb9190616b4e565b600060405180830381600087803b1580156120e65760006000fd5b505af11580156120fb573d600060003e3d6000fd5b50505050600f60009054906101000a900473ffffffffffffffffffffffffffffffffffffffff1673ffffffffffffffffffffffffffffffffffffffff16632c388d5d601160009054906101000a900473ffffffffffffffffffffffffffffffffffffffff166040518263ffffffff1660e01b815260040161217c9190616b4e565b600060405180830381600087803b1580156121975760006000fd5b505af11580156121ac573d600060003e3d6000fd5b50505050600f60009054906101000a900473ffffffffffffffffffffffffffffffffffffffff1673ffffffffffffffffffffffffffffffffffffffff16632c388d5d601260009054906101000a900473ffffffffffffffffffffffffffffffffffffffff166040518263ffffffff1660e01b815260040161222d9190616b4e565b600060405180830381600087803b1580156122485760006000fd5b505af115801561225d573d600060003e3d6000fd5b5050505080806102a00190612272919061729d565b9050818061028001906122859190617227565b90501415156122c9576040517f08c379a00000000000000000000000000000000000000000000000000000000081526004016122c090616f70565b60405180910390fd5b6000600090505b818061028001906122e19190617227565b90508110156123985781806102a001906122fb919061729d565b82818110151561230757fe5b9050602002013560036000506000848061028001906123269190617227565b85818110151561233257fe5b905060200201602081019061234791906163ce565b73ffffffffffffffffffffffffffffffffffffffff1673ffffffffffffffffffffffffffffffffffffffff1681526020019081526020016000206000508190909055505b80806001019150506122d0565b505b50565b601860009054906101000a900473ffffffffffffffffffffffffffffffffffffffff1681565b61247a601060009054906101000a900473ffffffffffffffffffffffffffffffffffffffff1673ffffffffffffffffffffffffffffffffffffffff168273ffffffffffffffffffffffffffffffffffffffff16148061246f5750601160009054906101000a900473ffffffffffffffffffffffffffffffffffffffff1673ffffffffffffffffffffffffffffffffffffffff168273ffffffffffffffffffffffffffffffffffffffff16145b61546d63ffffffff16565b5b50565b601d6000508060000160009054906101000a90047affffffffffffffffffffffffffffffffffffffffffffffffffffff169080600001601b9054906101000a900464ffffffffff16905082565b612582600d60009054906101000a900473ffffffffffffffffffffffffffffffffffffffff1673ffffffffffffffffffffffffffffffffffffffff168273ffffffffffffffffffffffffffffffffffffffff1614806125775750600c60009054906101000a900473ffffffffffffffffffffffffffffffffffffffff1673ffffffffffffffffffffffffffffffffffffffff168273ffffffffffffffffffffffffffffffffffffffff16145b61546d63ffffffff16565b5b50565b612695600d60009054906101000a900473ffffffffffffffffffffffffffffffffffffffff1673ffffffffffffffffffffffffffffffffffffffff168273ffffffffffffffffffffffffffffffffffffffff1614806126325750600c60009054906101000a900473ffffffffffffffffffffffffffffffffffffffff1673ffffffffffffffffffffffffffffffffffffffff168273ffffffffffffffffffffffffffffffffffffffff16145b8061268a5750601260009054906101000a900473ffffffffffffffffffffffffffffffffffffffff1673ffffffffffffffffffffffffffffffffffffffff168273ffffffffffffffffffffffffffffffffffffffff16145b61546d63ffffffff16565b5b50565b60026000600050541415151561271a576040517f08c379a000000000000000000000000000000000000000000000000000000000815260040180806020018281038252601f8152602001807f5265656e7472616e637947756172643a207265656e7472616e742063616c6c0081526020015060200191505060405180910390fd5b600260006000508190909055506127643073ffffffffffffffffffffffffffffffffffffffff163373ffffffffffffffffffffffffffffffffffffffff161461546d63ffffffff16565b61277381615a9963ffffffff16565b600f60009054906101000a900473ffffffffffffffffffffffffffffffffffffffff1673ffffffffffffffffffffffffffffffffffffffff16634ac8c5ae601160009054906101000a900473ffffffffffffffffffffffffffffffffffffffff166040518263ffffffff1660e01b81526004016127f09190616b4e565b600060405180830381600087803b15801561280b5760006000fd5b505af1158015612820573d600060003e3d6000fd5b50505050601160009054906101000a900473ffffffffffffffffffffffffffffffffffffffff1673ffffffffffffffffffffffffffffffffffffffff166307da68f56040518163ffffffff1660e01b8152600401600060405180830381600087803b15801561288f5760006000fd5b505af11580156128a4573d600060003e3d6000fd5b5050505080601160006101000a81548173ffffffffffffffffffffffffffffffffffffffff021916908373ffffffffffffffffffffffffffffffffffffffff160217905550600f60009054906101000a900473ffffffffffffffffffffffffffffffffffffffff1673ffffffffffffffffffffffffffffffffffffffff16632c388d5d601160009054906101000a900473ffffffffffffffffffffffffffffffffffffffff166040518263ffffffff1660e01b81526004016129669190616b4e565b600060405180830381600087803b1580156129815760006000fd5b505af1158015612996573d600060003e3d6000fd5b50505050600460009054906101000a900473ffffffffffffffffffffffffffffffffffffffff1673ffffffffffffffffffffffffffffffffffffffff1663a678f336601160009054906101000a900473ffffffffffffffffffffffffffffffffffffffff166040518263ffffffff1660e01b8152600401612a179190616b4e565b600060405180830381600087803b158015612a325760006000fd5b505af1158015612a47573d600060003e3d6000fd5b50505050601160009054906101000a900473ffffffffffffffffffffffffffffffffffffffff1673ffffffffffffffffffffffffffffffffffffffff16604051612a90906169f7565b60405180910390207f2b51ff7c4cc8e6fe1c72e9d9685b7d2a88a5d82ad3a644afbdceb0272c89c1c360405160405180910390a35b5b600160006000508190909055505b50565b600260006000505414151515612b58576040517f08c379a000000000000000000000000000000000000000000000000000000000815260040180806020018281038252601f8152602001807f5265656e7472616e637947756172643a207265656e7472616e742063616c6c0081526020015060200191505060405180910390fd5b60026000600050819090905550612ba23073ffffffffffffffffffffffffffffffffffffffff163373ffffffffffffffffffffffffffffffffffffffff161461546d63ffffffff16565b6000600160089054906101000a900467ffffffffffffffff1667ffffffffffffffff16111515612c07576040517f08c379a0000000000000000000000000000000000000000000000000000000008152600401612bfe90617129565b60405180910390fd5b600760009054906101000a900473ffffffffffffffffffffffffffffffffffffffff1673ffffffffffffffffffffffffffffffffffffffff16633c4a25d0826040518263ffffffff1660e01b8152600401612c629190616b4e565b600060405180830381600087803b158015612c7d5760006000fd5b505af1158015612c92573d600060003e3d6000fd5b505050508073ffffffffffffffffffffffffffffffffffffffff167f078ca541eec5b410213fc65330fc5a7324eb56fe692344e7bc1b8be56bd3c16960405160405180910390a25b5b600160006000508190909055505b50565b600d60009054906101000a900473ffffffffffffffffffffffffffffffffffffffff1681565b600260006000505414151515612d93576040517f08c379a000000000000000000000000000000000000000000000000000000000815260040180806020018281038252601f8152602001807f5265656e7472616e637947756172643a207265656e7472616e742063616c6c0081526020015060200191505060405180910390fd5b60026000600050819090905550612ddd3073ffffffffffffffffffffffffffffffffffffffff163373ffffffffffffffffffffffffffffffffffffffff161461546d63ffffffff16565b612dec81615a9963ffffffff16565b600f60009054906101000a900473ffffffffffffffffffffffffffffffffffffffff1673ffffffffffffffffffffffffffffffffffffffff16634ac8c5ae600e60009054906101000a900473ffffffffffffffffffffffffffffffffffffffff166040518263ffffffff1660e01b8152600401612e699190616b4e565b600060405180830381600087803b158015612e845760006000fd5b505af1158015612e99573d600060003e3d6000fd5b50505050600e60009054906101000a900473ffffffffffffffffffffffffffffffffffffffff1673ffffffffffffffffffffffffffffffffffffffff166307da68f56040518163ffffffff1660e01b8152600401600060405180830381600087803b158015612f085760006000fd5b505af1158015612f1d573d600060003e3d6000fd5b5050505080600e60006101000a81548173ffffffffffffffffffffffffffffffffffffffff021916908373ffffffffffffffffffffffffffffffffffffffff160217905550600f60009054906101000a900473ffffffffffffffffffffffffffffffffffffffff1673ffffffffffffffffffffffffffffffffffffffff16632c388d5d600e60009054906101000a900473ffffffffffffffffffffffffffffffffffffffff166040518263ffffffff1660e01b8152600401612fdf9190616b4e565b600060405180830381600087803b158015612ffa5760006000fd5b505af115801561300f573d600060003e3d6000fd5b50505050600e60009054906101000a900473ffffffffffffffffffffffffffffffffffffffff1673ffffffffffffffffffffffffffffffffffffffff1660405161305890616b1d565b60405180910390207f2b51ff7c4cc8e6fe1c72e9d9685b7d2a88a5d82ad3a644afbdceb0272c89c1c360405160405180910390a35b5b600160006000508190909055505b50565b600560009054906101000a900473ffffffffffffffffffffffffffffffffffffffff1681565b600260006000505414151515613146576040517f08c379a000000000000000000000000000000000000000000000000000000000815260040180806020018281038252601f8152602001807f5265656e7472616e637947756172643a207265656e7472616e742063616c6c0081526020015060200191505060405180910390fd5b60026000600050819090905550600033905060008211151561319d576040517f08c379a000000000000000000000000000000000000000000000000000000000815260040161319490616fee565b60405180910390fd5b6131f582600260005060008473ffffffffffffffffffffffffffffffffffffffff1673ffffffffffffffffffffffffffffffffffffffff16815260200190815260200160002060005054615aed90919063ffffffff16565b600260005060008373ffffffffffffffffffffffffffffffffffffffff1673ffffffffffffffffffffffffffffffffffffffff168152602001908152602001600020600050819090905550613296600760009054906101000a900473ffffffffffffffffffffffffffffffffffffffff1682600a60009054906101000a900473ffffffffffffffffffffffffffffffffffffffff1685615b7663ffffffff16565b6132a4615da163ffffffff16565b8073ffffffffffffffffffffffffffffffffffffffff167f6f076ad9d1927fd5f792070276b90549d2433311ff94fe0d7afba682c150817a836040516132ea91906171e4565b60405180910390a2505b600160006000508190909055505b50565b600260006000505414151515613386576040517f08c379a000000000000000000000000000000000000000000000000000000000815260040180806020018281038252601f8152602001807f5265656e7472616e637947756172643a207265656e7472616e742063616c6c0081526020015060200191505060405180910390fd5b600260006000508190909055506133d03073ffffffffffffffffffffffffffffffffffffffff163373ffffffffffffffffffffffffffffffffffffffff161461546d63ffffffff16565b6133df81615a9963ffffffff16565b600f60009054906101000a900473ffffffffffffffffffffffffffffffffffffffff1673ffffffffffffffffffffffffffffffffffffffff16634ac8c5ae601260009054906101000a900473ffffffffffffffffffffffffffffffffffffffff166040518263ffffffff1660e01b815260040161345c9190616b4e565b600060405180830381600087803b1580156134775760006000fd5b505af115801561348c573d600060003e3d6000fd5b50505050601260009054906101000a900473ffffffffffffffffffffffffffffffffffffffff1673ffffffffffffffffffffffffffffffffffffffff166307da68f56040518163ffffffff1660e01b8152600401600060405180830381600087803b1580156134fb5760006000fd5b505af1158015613510573d600060003e3d6000fd5b5050505080601260006101000a81548173ffffffffffffffffffffffffffffffffffffffff021916908373ffffffffffffffffffffffffffffffffffffffff160217905550600f60009054906101000a900473ffffffffffffffffffffffffffffffffffffffff1673ffffffffffffffffffffffffffffffffffffffff16632c388d5d601260009054906101000a900473ffffffffffffffffffffffffffffffffffffffff166040518263ffffffff1660e01b81526004016135d29190616b4e565b600060405180830381600087803b1580156135ed5760006000fd5b505af1158015613602573d600060003e3d6000fd5b50505050601260009054906101000a900473ffffffffffffffffffffffffffffffffffffffff1673ffffffffffffffffffffffffffffffffffffffff1660405161364b90616a59565b60405180910390207f2b51ff7c4cc8e6fe1c72e9d9685b7d2a88a5d82ad3a644afbdceb0272c89c1c360405160405180910390a35b5b600160006000508190909055505b50565b613749600c60009054906101000a900473ffffffffffffffffffffffffffffffffffffffff1673ffffffffffffffffffffffffffffffffffffffff168273ffffffffffffffffffffffffffffffffffffffff16148061373e5750601260009054906101000a900473ffffffffffffffffffffffffffffffffffffffff1673ffffffffffffffffffffffffffffffffffffffff168273ffffffffffffffffffffffffffffffffffffffff16145b61546d63ffffffff16565b5b50565b600460009054906101000a900473ffffffffffffffffffffffffffffffffffffffff1681565b600c60009054906101000a900473ffffffffffffffffffffffffffffffffffffffff1681565b60036000506020528060005260406000206000915090505481565b601160009054906101000a900473ffffffffffffffffffffffffffffffffffffffff1681565b60026000600050541415151561385b576040517f08c379a000000000000000000000000000000000000000000000000000000000815260040180806020018281038252601f8152602001807f5265656e7472616e637947756172643a207265656e7472616e742063616c6c0081526020015060200191505060405180910390fd5b600260006000508190909055506138a53073ffffffffffffffffffffffffffffffffffffffff163373ffffffffffffffffffffffffffffffffffffffff161461546d63ffffffff16565b6138b481615a9963ffffffff16565b600f60009054906101000a900473ffffffffffffffffffffffffffffffffffffffff1673ffffffffffffffffffffffffffffffffffffffff16634ac8c5ae601060009054906101000a900473ffffffffffffffffffffffffffffffffffffffff166040518263ffffffff1660e01b81526004016139319190616b4e565b600060405180830381600087803b15801561394c5760006000fd5b505af1158015613961573d600060003e3d6000fd5b50505050601060009054906101000a900473ffffffffffffffffffffffffffffffffffffffff1673ffffffffffffffffffffffffffffffffffffffff166307da68f56040518163ffffffff1660e01b8152600401600060405180830381600087803b1580156139d05760006000fd5b505af11580156139e5573d600060003e3d6000fd5b5050505080601060006101000a81548173ffffffffffffffffffffffffffffffffffffffff021916908373ffffffffffffffffffffffffffffffffffffffff160217905550600f60009054906101000a900473ffffffffffffffffffffffffffffffffffffffff1673ffffffffffffffffffffffffffffffffffffffff16632c388d5d601060009054906101000a900473ffffffffffffffffffffffffffffffffffffffff166040518263ffffffff1660e01b8152600401613aa79190616b4e565b600060405180830381600087803b158015613ac25760006000fd5b505af1158015613ad7573d600060003e3d6000fd5b50505050601060009054906101000a900473ffffffffffffffffffffffffffffffffffffffff1673ffffffffffffffffffffffffffffffffffffffff16604051613b2090616a28565b60405180910390207f2b51ff7c4cc8e6fe1c72e9d9685b7d2a88a5d82ad3a644afbdceb0272c89c1c360405160405180910390a35b5b600160006000508190909055505b50565b601660009054906101000a900473ffffffffffffffffffffffffffffffffffffffff1681565b600a60009054906101000a900473ffffffffffffffffffffffffffffffffffffffff1673ffffffffffffffffffffffffffffffffffffffff1663a43c36af8484846040518463ffffffff1660e01b8152600401613bec93929190616b76565b60006040518083038186803b158015613c055760006000fd5b505afa158015613c1a573d600060003e3d6000fd5b505050505b505050565b6000613c66600160009054906101000a900467ffffffffffffffff1667ffffffffffffffff16613c5861553c63ffffffff16565b61588b90919063ffffffff16565b9050613c6d565b90565b600960009054906101000a900473ffffffffffffffffffffffffffffffffffffffff1681565b600260006000505414151515613d17576040517f08c379a000000000000000000000000000000000000000000000000000000000815260040180806020018281038252601f8152602001807f5265656e7472616e637947756172643a207265656e7472616e742063616c6c0081526020015060200191505060405180910390fd5b60026000600050819090905550613d613073ffffffffffffffffffffffffffffffffffffffff163373ffffffffffffffffffffffffffffffffffffffff161461546d63ffffffff16565b670de0b6b3a76400008167ffffffffffffffff1611151515613d835760006000fd5b80600160006101000a81548167ffffffffffffffff021916908367ffffffffffffffff1602179055505b5b600160006000508190909055505b50565b600260006000505414151515613e40576040517f08c379a000000000000000000000000000000000000000000000000000000000815260040180806020018281038252601f8152602001807f5265656e7472616e637947756172643a207265656e7472616e742063616c6c0081526020015060200191505060405180910390fd5b60026000600050819090905550613e8a3073ffffffffffffffffffffffffffffffffffffffff163373ffffffffffffffffffffffffffffffffffffffff161461546d63ffffffff16565b6000601e60009054906101000a900467ffffffffffffffff1667ffffffffffffffff16141515613eef576040517f08c379a0000000000000000000000000000000000000000000000000000000008152600401613ee69061702d565b60405180910390fd5b613efe81615e5263ffffffff16565b601e60006101000a81548167ffffffffffffffff021916908367ffffffffffffffff160217905550600a60009054906101000a900473ffffffffffffffffffffffffffffffffffffffff1673ffffffffffffffffffffffffffffffffffffffff1663b8188c81613f89601e60009054906101000a900467ffffffffffffffff16615eda63ffffffff16565b6040518263ffffffff1660e01b8152600401613fa591906171f6565b600060405180830381600087803b158015613fc05760006000fd5b505af1158015613fd5573d600060003e3d6000fd5b505050505b5b600160006000508190909055505b50565b60026000600050541415151561406d576040517f08c379a000000000000000000000000000000000000000000000000000000000815260040180806020018281038252601f8152602001807f5265656e7472616e637947756172643a207265656e7472616e742063616c6c0081526020015060200191505060405180910390fd5b600260006000508190909055506140b73073ffffffffffffffffffffffffffffffffffffffff163373ffffffffffffffffffffffffffffffffffffffff161461546d63ffffffff16565b6140c681615a9963ffffffff16565b600f60009054906101000a900473ffffffffffffffffffffffffffffffffffffffff1673ffffffffffffffffffffffffffffffffffffffff16634ac8c5ae600c60009054906101000a900473ffffffffffffffffffffffffffffffffffffffff166040518263ffffffff1660e01b81526004016141439190616b4e565b600060405180830381600087803b15801561415e5760006000fd5b505af1158015614173573d600060003e3d6000fd5b50505050600c60009054906101000a900473ffffffffffffffffffffffffffffffffffffffff1673ffffffffffffffffffffffffffffffffffffffff166307da68f56040518163ffffffff1660e01b8152600401600060405180830381600087803b1580156141e25760006000fd5b505af11580156141f7573d600060003e3d6000fd5b5050505080600c60006101000a81548173ffffffffffffffffffffffffffffffffffffffff021916908373ffffffffffffffffffffffffffffffffffffffff160217905550600f60009054906101000a900473ffffffffffffffffffffffffffffffffffffffff1673ffffffffffffffffffffffffffffffffffffffff16632c388d5d600c60009054906101000a900473ffffffffffffffffffffffffffffffffffffffff166040518263ffffffff1660e01b81526004016142b99190616b4e565b600060405180830381600087803b1580156142d45760006000fd5b505af11580156142e9573d600060003e3d6000fd5b50505050600c60009054906101000a900473ffffffffffffffffffffffffffffffffffffffff1673ffffffffffffffffffffffffffffffffffffffff1660405161433290616aec565b60405180910390207f2b51ff7c4cc8e6fe1c72e9d9685b7d2a88a5d82ad3a644afbdceb0272c89c1c360405160405180910390a35b5b600160006000508190909055505b50565b60006000600160089054906101000a900467ffffffffffffffff1667ffffffffffffffff161190506143a6565b90565b7f000000000000000000000000000000000000000000000000000000000000000081565b600061448b6703782dace9d90000600760009054906101000a900473ffffffffffffffffffffffffffffffffffffffff1673ffffffffffffffffffffffffffffffffffffffff166318160ddd6040518163ffffffff1660e01b815260040160206040518083038186803b1580156144445760006000fd5b505afa158015614459573d600060003e3d6000fd5b505050506040513d601f19601f8201168201806040525081019061447d91906168c1565b61588b90919063ffffffff16565b600760009054906101000a900473ffffffffffffffffffffffffffffffffffffffff1673ffffffffffffffffffffffffffffffffffffffff166370a08231600a60009054906101000a900473ffffffffffffffffffffffffffffffffffffffff166040518263ffffffff1660e01b81526004016145089190616b4e565b60206040518083038186803b1580156145215760006000fd5b505afa158015614536573d600060003e3d6000fd5b505050506040513d601f19601f8201168201806040525081019061455a91906168c1565b119050614562565b90565b6002600060005054141515156145e6576040517f08c379a000000000000000000000000000000000000000000000000000000000815260040180806020018281038252601f8152602001807f5265656e7472616e637947756172643a207265656e7472616e742063616c6c0081526020015060200191505060405180910390fd5b6002600060005081909090555043601b6000505410151561463c576040517f08c379a00000000000000000000000000000000000000000000000000000000081526004016146339061706c565b60405180910390fd5b61464a6158b163ffffffff16565b5b600160006000508190909055505b565b7f000000000000000000000000000000000000000000000000000000000000000081565b601360009054906101000a900473ffffffffffffffffffffffffffffffffffffffff1681565b600e60009054906101000a900473ffffffffffffffffffffffffffffffffffffffff1681565b600f60009054906101000a900473ffffffffffffffffffffffffffffffffffffffff1681565b601560009054906101000a900473ffffffffffffffffffffffffffffffffffffffff1681565b601a60009054906101000a900473ffffffffffffffffffffffffffffffffffffffff1681565b6002600060005054141515156147be576040517f08c379a000000000000000000000000000000000000000000000000000000000815260040180806020018281038252601f8152602001807f5265656e7472616e637947756172643a207265656e7472616e742063616c6c0081526020015060200191505060405180910390fd5b600260006000508190909055506148083073ffffffffffffffffffffffffffffffffffffffff163373ffffffffffffffffffffffffffffffffffffffff161461546d63ffffffff16565b61481781615a9963ffffffff16565b600073ffffffffffffffffffffffffffffffffffffffff16600660009054906101000a900473ffffffffffffffffffffffffffffffffffffffff1673ffffffffffffffffffffffffffffffffffffffff161415156149a557600f60009054906101000a900473ffffffffffffffffffffffffffffffffffffffff1673ffffffffffffffffffffffffffffffffffffffff16634ac8c5ae600660009054906101000a900473ffffffffffffffffffffffffffffffffffffffff166040518263ffffffff1660e01b81526004016148ec9190616b4e565b600060405180830381600087803b1580156149075760006000fd5b505af115801561491c573d600060003e3d6000fd5b50505050600660009054906101000a900473ffffffffffffffffffffffffffffffffffffffff1673ffffffffffffffffffffffffffffffffffffffff166307da68f56040518163ffffffff1660e01b8152600401600060405180830381600087803b15801561498b5760006000fd5b505af11580156149a0573d600060003e3d6000fd5b505050505b600560009054906101000a900473ffffffffffffffffffffffffffffffffffffffff16600660006101000a81548173ffffffffffffffffffffffffffffffffffffffff021916908373ffffffffffffffffffffffffffffffffffffffff16021790555080600560006101000a81548173ffffffffffffffffffffffffffffffffffffffff021916908373ffffffffffffffffffffffffffffffffffffffff160217905550600f60009054906101000a900473ffffffffffffffffffffffffffffffffffffffff1673ffffffffffffffffffffffffffffffffffffffff16632c388d5d600560009054906101000a900473ffffffffffffffffffffffffffffffffffffffff166040518263ffffffff1660e01b8152600401614ac69190616b4e565b600060405180830381600087803b158015614ae15760006000fd5b505af1158015614af6573d600060003e3d6000fd5b50505050600560009054906101000a900473ffffffffffffffffffffffffffffffffffffffff1673ffffffffffffffffffffffffffffffffffffffff16604051614b3f90616abb565b60405180910390207f2b51ff7c4cc8e6fe1c72e9d9685b7d2a88a5d82ad3a644afbdceb0272c89c1c360405160405180910390a35b5b600160006000508190909055505b50565b600260006000505414151515614c07576040517f08c379a000000000000000000000000000000000000000000000000000000000815260040180806020018281038252601f8152602001807f5265656e7472616e637947756172643a207265656e7472616e742063616c6c0081526020015060200191505060405180910390fd5b60026000600050819090905550614ccb600560009054906101000a900473ffffffffffffffffffffffffffffffffffffffff1673ffffffffffffffffffffffffffffffffffffffff163373ffffffffffffffffffffffffffffffffffffffff161480614cc05750601060009054906101000a900473ffffffffffffffffffffffffffffffffffffffff1673ffffffffffffffffffffffffffffffffffffffff163373ffffffffffffffffffffffffffffffffffffffff16145b61546d63ffffffff16565b600760009054906101000a900473ffffffffffffffffffffffffffffffffffffffff1673ffffffffffffffffffffffffffffffffffffffff1663449a52f883836040518363ffffffff1660e01b8152600401614d28929190616c1c565b600060405180830381600087803b158015614d435760006000fd5b505af1158015614d58573d600060003e3d6000fd5b505050505b600160006000508190909055505b5050565b600260006000505414151515614df0576040517f08c379a000000000000000000000000000000000000000000000000000000000815260040180806020018281038252601f8152602001807f5265656e7472616e637947756172643a207265656e7472616e742063616c6c0081526020015060200191505060405180910390fd5b6002600060005081909090555060003390506000600260005060008373ffffffffffffffffffffffffffffffffffffffff1673ffffffffffffffffffffffffffffffffffffffff168152602001908152602001600020600050549050600081111515614e91576040517f08c379a0000000000000000000000000000000000000000000000000000000008152600401614e8890616fee565b60405180910390fd5b6000600260005060008473ffffffffffffffffffffffffffffffffffffffff1673ffffffffffffffffffffffffffffffffffffffff168152602001908152602001600020600050819090905550614f34600760009054906101000a900473ffffffffffffffffffffffffffffffffffffffff16600a60009054906101000a900473ffffffffffffffffffffffffffffffffffffffff168484615b7663ffffffff16565b614f42615da163ffffffff16565b8173ffffffffffffffffffffffffffffffffffffffff167fbfaf8d2920f9287ed71a7e47234c2043522ae8ffd246577b929897e0f2b3c07582604051614f8891906171e4565b60405180910390a250505b600160006000508190909055505b565b601460009054906101000a900473ffffffffffffffffffffffffffffffffffffffff1681565b6703782dace9d9000081565b600260006000505414151515615056576040517f08c379a000000000000000000000000000000000000000000000000000000000815260040180806020018281038252601f8152602001807f5265656e7472616e637947756172643a207265656e7472616e742063616c6c0081526020015060200191505060405180910390fd5b600260006000508190909055506150a03073ffffffffffffffffffffffffffffffffffffffff163373ffffffffffffffffffffffffffffffffffffffff161461546d63ffffffff16565b6150af81615a9963ffffffff16565b600f60009054906101000a900473ffffffffffffffffffffffffffffffffffffffff1673ffffffffffffffffffffffffffffffffffffffff16634ac8c5ae600d60009054906101000a900473ffffffffffffffffffffffffffffffffffffffff166040518263ffffffff1660e01b815260040161512c9190616b4e565b600060405180830381600087803b1580156151475760006000fd5b505af115801561515c573d600060003e3d6000fd5b50505050600d60009054906101000a900473ffffffffffffffffffffffffffffffffffffffff1673ffffffffffffffffffffffffffffffffffffffff166307da68f56040518163ffffffff1660e01b8152600401600060405180830381600087803b1580156151cb5760006000fd5b505af11580156151e0573d600060003e3d6000fd5b5050505080600d60006101000a81548173ffffffffffffffffffffffffffffffffffffffff021916908373ffffffffffffffffffffffffffffffffffffffff160217905550600f60009054906101000a900473ffffffffffffffffffffffffffffffffffffffff1673ffffffffffffffffffffffffffffffffffffffff16632c388d5d600d60009054906101000a900473ffffffffffffffffffffffffffffffffffffffff166040518263ffffffff1660e01b81526004016152a29190616b4e565b600060405180830381600087803b1580156152bd5760006000fd5b505af11580156152d2573d600060003e3d6000fd5b50505050600d60009054906101000a900473ffffffffffffffffffffffffffffffffffffffff1673ffffffffffffffffffffffffffffffffffffffff1660405161531b90616a8a565b60405180910390207f2b51ff7c4cc8e6fe1c72e9d9685b7d2a88a5d82ad3a644afbdceb0272c89c1c360405160405180910390a35b5b600160006000508190909055505b50565b600068010000000000000000821015156153e7576040517f08c379a00000000000000000000000000000000000000000000000000000000081526004018080602001828103825260118152602001807f6d6f7265207468616e203634206269747300000000000000000000000000000081526020015060200191505060405180910390fd5b8190506153ef565b919050565b60007f00000000000000000000000000000000000000000000000000000000000000007f000000000000000000000000000000000000000000000000000000000000000067ffffffffffffffff16615450615f5f63ffffffff16565b67ffffffffffffffff1681151561546357fe5b0403905080505b90565b8015156154af576040517f08c379a00000000000000000000000000000000000000000000000000000000081526004016154a690616faf565b60405180910390fd5b5b50565b60008282840391508111151515615535576040517f08c379a000000000000000000000000000000000000000000000000000000000815260040180806020018281038252600d8152602001807f7375622d756e646572666c6f770000000000000000000000000000000000000081526020015060200191505060405180910390fd5b5b92915050565b6000600061554e6153f463ffffffff16565b9050601e60009054906101000a900467ffffffffffffffff1667ffffffffffffffff168167ffffffffffffffff1610806155a857506000601e60009054906101000a900467ffffffffffffffff1667ffffffffffffffff16145b806155d357506000600160089054906101000a900467ffffffffffffffff1667ffffffffffffffff16115b156155e2576000915050615888565b6000601e60009054906101000a900467ffffffffffffffff16820390506000601d6000506040518060400160405290816000820160009054906101000a90047affffffffffffffffffffffffffffffffffffffffffffffffffffff167affffffffffffffffffffffffffffffffffffffffffffffffffffff167affffffffffffffffffffffffffffffffffffffffffffffffffffff16815260200160008201601b9054906101000a900464ffffffffff1664ffffffffff1664ffffffffff168152602001505090505b8167ffffffffffffffff16816020015164ffffffffff16101561579957604051806040016040528061575961574c7f160da66187f438da56184b42849d3aa69a5c64e3666b170000000000000000007f161bcca7119915b50764b4abe86529797775a5f171951000000000000000000086600001517affffffffffffffffffffffffffffffffffffffffffffffffffffff16615f7a9092919063ffffffff16565b61607b909063ffffffff16565b7affffffffffffffffffffffffffffffffffffffffffffffffffffff168152602001600183602001510164ffffffffff16815260200150905080506156ab565b80601d60005060008201518160000160006101000a8154817affffffffffffffffffffffffffffffffffffffffffffffffffffff02191690837affffffffffffffffffffffffffffffffffffffffffffffffffffff160217905550602082015181600001601b6101000a81548164ffffffffff021916908364ffffffffff160217905550905050701d6329f1c35ca4bfabb9f561000000000081600001517affffffffffffffffffffffffffffffffffffffffffffffffffffff1681151561585d57fe5b047affffffffffffffffffffffffffffffffffffffffffffffffffffff169350505050615888565050505b90565b60006158a68383670de0b6b3a7640000615f7a63ffffffff16565b905080505b92915050565b6000600160089054906101000a900467ffffffffffffffff1667ffffffffffffffff16141515615916576040517f08c379a000000000000000000000000000000000000000000000000000000000815260040161590d906170ea565b60405180910390fd5b600d60009054906101000a900473ffffffffffffffffffffffffffffffffffffffff1673ffffffffffffffffffffffffffffffffffffffff1663a6afed956040518163ffffffff1660e01b8152600401600060405180830381600087803b1580156159815760006000fd5b505af1158015615996573d600060003e3d6000fd5b50505050601160009054906101000a900473ffffffffffffffffffffffffffffffffffffffff1673ffffffffffffffffffffffffffffffffffffffff16631afdbce46040518163ffffffff1660e01b8152600401600060405180830381600087803b158015615a055760006000fd5b505af1158015615a1a573d600060003e3d6000fd5b50505050615a2c615f5f63ffffffff16565b600160086101000a81548167ffffffffffffffff021916908367ffffffffffffffff1602179055507f5a05a29d5ecece2d4f30720adf1a7449fc1ecb9a884a14629d08d3d2257ab90560405160405180910390a15b565b600081805190602001209050615a94565b919050565b615aa88161612063ffffffff16565b1515615ae9576040517f08c379a0000000000000000000000000000000000000000000000000000000008152600401615ae0906170ab565b60405180910390fd5b5b50565b60008282840191508110151515615b6f576040517f08c379a000000000000000000000000000000000000000000000000000000000815260040180806020018281038252600c8152602001807f6164642d6f766572666c6f77000000000000000000000000000000000000000081526020015060200191505060405180910390fd5b5b92915050565b600060008573ffffffffffffffffffffffffffffffffffffffff166323b872dd60e01b868686604051602401808473ffffffffffffffffffffffffffffffffffffffff1681526020018373ffffffffffffffffffffffffffffffffffffffff1681526020018281526020019350505050604051602081830303815290604052907bffffffffffffffffffffffffffffffffffffffffffffffffffffffff19166020820180517bffffffffffffffffffffffffffffffffffffffffffffffffffffffff83818316178352505050506040518082805190602001908083835b602083101515615c7957805182525b602082019150602081019050602083039250615c53565b6001836020036101000a0380198251168184511680821785525050505050509050019150506000604051808303816000865af19150503d8060008114615cdb576040519150601f19603f3d011682016040523d82523d6000602084013e615ce0565b606091505b5091509150818015615d215750600081511480615d205750808060200190516020811015615d0e5760006000fd5b81019080805190602001909291905050505b5b1515615d98576040517f08c379a00000000000000000000000000000000000000000000000000000000081526004018080602001828103825260038152602001807f535446000000000000000000000000000000000000000000000000000000000081526020015060200191505060405180910390fd5b50505b50505050565b615daf6143cd63ffffffff16565b15615df3577fffffffffffffffffffffffffffffffffffffffffffffffffffffffffffffffff601b600050541415615dee5743601b6000508190909055505b615e4f565b7fffffffffffffffffffffffffffffffffffffffffffffffffffffffffffffffff601b60005054141515615e4e577fffffffffffffffffffffffffffffffffffffffffffffffffffffffffffffffff601b6000508190909055505b5b5b565b6000615ed07f00000000000000000000000000000000000000000000000000000000000000007f000000000000000000000000000000000000000000000000000000000000000067ffffffffffffffff168467ffffffffffffffff16811515615eb757fe5b0467ffffffffffffffff1661613a90919063ffffffff16565b905080505b919050565b6000615f55615f1c837f000000000000000000000000000000000000000000000000000000000000000067ffffffffffffffff166161d790919063ffffffff16565b7f000000000000000000000000000000000000000000000000000000000000000067ffffffffffffffff1661627490919063ffffffff16565b905080505b919050565b6000615f7242615362909063ffffffff16565b905080505b90565b6000600060006000198587098587029250828110838203039150506000811415615fbd57600084111515615fae5760006000fd5b83820492508292505050616074565b8084111515615fcc5760006000fd5b60008486880990508281118203915080830392506000858660000316905080860495508084049350600181826000030401905080830284179350835060006002876003021890508087026002038102905080508087026002038102905080508087026002038102905080508087026002038102905080508087026002038102905080508087026002038102905080508085029550855085955050505050506160745650505050505b9392505050565b60007b0100000000000000000000000000000000000000000000000000000082101515616113576040517f08c379a00000000000000000000000000000000000000000000000000000000081526004018080602001828103825260128152602001807f6d6f7265207468616e203231362062697473000000000000000000000000000081526020015060200191505060405180910390fd5b81905061611b565b919050565b60006000823b90506000811191505061613556505b919050565b60008267ffffffffffffffff1682840391508167ffffffffffffffff16111515156161d0576040517f08c379a000000000000000000000000000000000000000000000000000000000815260040180806020018281038252600d8152602001807f7375622d756e646572666c6f770000000000000000000000000000000000000081526020015060200191505060405180910390fd5b5b92915050565b60008267ffffffffffffffff1682840191508167ffffffffffffffff161015151561626d576040517f08c379a000000000000000000000000000000000000000000000000000000000815260040180806020018281038252600c8152602001807f6164642d6f766572666c6f77000000000000000000000000000000000000000081526020015060200191505060405180910390fd5b5b92915050565b600060008267ffffffffffffffff1614806162c657508267ffffffffffffffff168267ffffffffffffffff1683850292508267ffffffffffffffff168115156162b957fe5b0467ffffffffffffffff16145b151561633d576040517f08c379a000000000000000000000000000000000000000000000000000000000815260040180806020018281038252600c8152602001807f6d756c2d6f766572666c6f77000000000000000000000000000000000000000081526020015060200191505060405180910390fd5b5b9291505056617371565b600067ffffffffffffffff8084111561635d57fe5b60405160207fffffffffffffffffffffffffffffffffffffffffffffffffffffffffffffffe0601f870116820101818110838211171561639957fe5b80604052508092508481528585850111156163b45760006000fd5b8484602083013760006020868301015250505b9392505050565b6000602082840312156163df578081fd5b81356163ea81617348565b809150505b92915050565b6000600060006040848603121561640a578182fd5b833561641581617348565b80935050602084013567ffffffffffffffff80821115616433578384fd5b818601915086601f8301121515616448578384fd5b813581811115616456578485fd5b876020828501011115616467578485fd5b6020830194508093505050505b9250925092565b60006000600060608486031215616490578081fd5b833561649b81617348565b80935050602084013567ffffffffffffffff808211156164b9578283fd5b818601915086601f83011215156164ce578283fd5b6164dd87833560208501616348565b935060408601359150808211156164f2578283fd5b50808501905085601f8201121515616508578182fd5b61651786823560208401616348565b9150505b9250925092565b6000600060408385031215616535578182fd5b823561654081617348565b80925050602083013590505b9250929050565b600060208284031215616564578081fd5b81357fffffffff00000000000000000000000000000000000000000000000000000000811681141515616595578182fd5b809150505b92915050565b6000602082840312156165b1578081fd5b81356165bc81617348565b809150505b92915050565b6000602082840312156165d8578081fd5b81356165e381617348565b809150505b92915050565b6000602082840312156165ff578081fd5b813561660a81617348565b809150505b92915050565b600060208284031215616626578081fd5b813561663181617348565b809150505b92915050565b60006020828403121561664d578081fd5b813561665881617348565b809150505b92915050565b600060208284031215616674578081fd5b813561667f81617348565b809150505b92915050565b60006020828403121561669b578081fd5b81356166a681617348565b809150505b92915050565b6000602082840312156166c2578081fd5b81356166cd81617348565b809150505b92915050565b6000602082840312156166e9578081fd5b81356166f481617348565b809150505b92915050565b600060208284031215616710578081fd5b813561671b81617348565b809150505b92915050565b600060208284031215616737578081fd5b813561674281617348565b809150505b92915050565b60006020828403121561675e578081fd5b813561676981617348565b809150505b92915050565b600060208284031215616785578081fd5b813561679081617348565b809150505b92915050565b6000602082840312156167ac578081fd5b81356167b781617348565b809150505b92915050565b6000602082840312156167d3578081fd5b81356167de81617348565b809150505b92915050565b6000602082840312156167fa578081fd5b813561680581617348565b809150505b92915050565b600060208284031215616821578081fd5b813561682c81617348565b809150505b92915050565b600060208284031215616848578081fd5b813561685381617348565b809150505b92915050565b60006020828403121561686f578081fd5b813567ffffffffffffffff811115616885578182fd5b80830190506102c0818503121561689a578182fd5b809150505b92915050565b6000602082840312156168b6578081fd5b813590505b92915050565b6000602082840312156168d2578081fd5b815190505b92915050565b6000602082840312156168ee578081fd5b813567ffffffffffffffff811681141515616907578182fd5b809150505b92915050565b600060208284031215616923578081fd5b815160ff811681141515616935578182fd5b809150505b92915050565b60008151808452616958816020860160208601617313565b60207fffffffffffffffffffffffffffffffffffffffffffffffffffffffffffffffe0601f8301168501019150505b92915050565b60007fffffffff000000000000000000000000000000000000000000000000000000008416825282516169c7816004850160208701617313565b6004818401019150505b9392505050565b600082516169ea818460208701617313565b8083019150505b92915050565b60007f726577617264730000000000000000000000000000000000000000000000000082526007820190505b919050565b60007f726174657300000000000000000000000000000000000000000000000000000082526005820190505b919050565b60007f736574746c656d656e74000000000000000000000000000000000000000000008252600a820190505b919050565b60007f6d61726b6574000000000000000000000000000000000000000000000000000082526006820190505b919050565b60007f61756374696f6e7300000000000000000000000000000000000000000000000082526008820190505b919050565b60007f6c69717569646174696f6e7300000000000000000000000000000000000000008252600c820190505b919050565b60007f707269636573000000000000000000000000000000000000000000000000000082526006820190505b919050565b600060208201905073ffffffffffffffffffffffffffffffffffffffff831682525b92915050565b600073ffffffffffffffffffffffffffffffffffffffff851682526040602083015282604083015282846060840137806060848401015260607fffffffffffffffffffffffffffffffffffffffffffffffffffffffffffffffe0601f85011683010190505b949350505050565b600073ffffffffffffffffffffffffffffffffffffffff8416825260406020830152616c126040830184616940565b90505b9392505050565b600060408201905073ffffffffffffffffffffffffffffffffffffffff841682528260208301525b9392505050565b600060208201905082151582525b92915050565b6000831515825260406020830152616c7a6040830184616940565b90505b9392505050565b600060208201905073ffffffffffffffffffffffffffffffffffffffff831682525b92915050565b600060208201905073ffffffffffffffffffffffffffffffffffffffff831682525b92915050565b600060208201905073ffffffffffffffffffffffffffffffffffffffff831682525b92915050565b600060208201905073ffffffffffffffffffffffffffffffffffffffff831682525b92915050565b600060208201905073ffffffffffffffffffffffffffffffffffffffff831682525b92915050565b600060208201905073ffffffffffffffffffffffffffffffffffffffff831682525b92915050565b600060208201905073ffffffffffffffffffffffffffffffffffffffff831682525b92915050565b600060208201905073ffffffffffffffffffffffffffffffffffffffff831682525b92915050565b600060208201905073ffffffffffffffffffffffffffffffffffffffff831682525b92915050565b600060208201905073ffffffffffffffffffffffffffffffffffffffff831682525b92915050565b600060208201905073ffffffffffffffffffffffffffffffffffffffff831682525b92915050565b600060208201905073ffffffffffffffffffffffffffffffffffffffff831682525b92915050565b600060208201905073ffffffffffffffffffffffffffffffffffffffff831682525b92915050565b600060208201905073ffffffffffffffffffffffffffffffffffffffff831682525b92915050565b600060208201905073ffffffffffffffffffffffffffffffffffffffff831682525b92915050565b600060208201905073ffffffffffffffffffffffffffffffffffffffff831682525b92915050565b600060208201905073ffffffffffffffffffffffffffffffffffffffff831682525b92915050565b600060208201905073ffffffffffffffffffffffffffffffffffffffff831682525b92915050565b600060208252616f676020830184616940565b90505b92915050565b600060208252600e60208301527f6172697479206d69736d6174636800000000000000000000000000000000000060408301526060820190505b919050565b600060208252600e60208301527f4e6f7420417574686f72697a656400000000000000000000000000000000000060408301526060820190505b919050565b600060208252600460208301527f4e6f6f700000000000000000000000000000000000000000000000000000000060408301526060820190505b919050565b600060208252600b60208301527f416c72656164792073657400000000000000000000000000000000000000000060408301526060820190505b919050565b600060208252601760208301527f496e73756666696369656e7420544350204c6f636b656400000000000000000060408301526060820190505b919050565b600060208252600e60208301527f4e6f74206120636f6e747261637400000000000000000000000000000000000060408301526060820190505b919050565b600060208252601060208301527f416c72656164792073687574646f776e0000000000000000000000000000000060408301526060820190505b919050565b600060208252600c60208301527f4e6f742073687574646f776e000000000000000000000000000000000000000060408301526060820190505b919050565b600060208252600660208301527f4c4f434b4544000000000000000000000000000000000000000000000000000060408301526060820190505b919050565b60006040820190507affffffffffffffffffffffffffffffffffffffffffffffffffffff8416825264ffffffffff831660208301525b9392505050565b60006020820190508282525b92915050565b600060208201905067ffffffffffffffff831682525b92915050565b600060208201905060ff831682525b92915050565b6000600083357fffffffffffffffffffffffffffffffffffffffffffffffffffffffffffffffe1843603018112151561725e578283fd5b80840190508035915067ffffffffffffffff82111561727b578283fd5b602081019250506020810236038213156172955760006000fd5b5b9250929050565b6000600083357fffffffffffffffffffffffffffffffffffffffffffffffffffffffffffffffe184360301811215156172d4578283fd5b80840190508035915067ffffffffffffffff8211156172f1578283fd5b6020810192505060208102360382131561730b5760006000fd5b5b9250929050565b60005b838110156173325780820151818401525b602081019050617316565b83811115617341576000848401525b505b505050565b73ffffffffffffffffffffffffffffffffffffffff81168114151561736d5760006000fd5b5b50565bfea264697066735822122021ea36ee7a579d37081c32f230cdcf73e228c292cc659f8ca397abcb40c0ef5864736f6c63430007060033",
  "linkReferences": {},
  "deployedLinkReferences": {}
}