{
  "_format": "hh-sol-artifact-1",
  "contractName": "TDaoTestable",
  "sourceName": "contracts/core/mocks/TDaoTestable.sol",
  "abi": [
    {
      "inputs": [
        {
          "internalType": "address",
          "name": "_guardian",
          "type": "address"
        },
        {
          "internalType": "contract IERC20",
          "name": "tcp",
          "type": "address"
        }
      ],
      "stateMutability": "nonpayable",
      "type": "constructor"
    },
    {
      "anonymous": false,
      "inputs": [
        {
          "indexed": true,
          "internalType": "address",
          "name": "token",
          "type": "address"
        },
        {
          "indexed": false,
          "internalType": "uint256",
          "name": "count",
          "type": "uint256"
        }
      ],
      "name": "IncentiveMinted",
      "type": "event"
    },
    {
      "anonymous": false,
      "inputs": [
        {
          "indexed": true,
          "internalType": "uint64",
          "name": "currentPeriod",
          "type": "uint64"
        },
        {
          "indexed": false,
          "internalType": "uint64",
          "name": "periods",
          "type": "uint64"
        }
      ],
      "name": "InflationAccrued",
      "type": "event"
    },
    {
      "anonymous": false,
      "inputs": [
        {
          "indexed": true,
          "internalType": "address",
          "name": "_contract",
          "type": "address"
        }
      ],
      "name": "LiquidationIncentiveContractSet",
      "type": "event"
    },
    {
      "anonymous": false,
      "inputs": [
        {
          "indexed": true,
          "internalType": "uint64",
          "name": "positionNFTTokenID",
          "type": "uint64"
        },
        {
          "indexed": true,
          "internalType": "uint16",
          "name": "lockDurationMonths",
          "type": "uint16"
        }
      ],
      "name": "LockDurationIncrease",
      "type": "event"
    },
    {
      "anonymous": false,
      "inputs": [
        {
          "indexed": true,
          "internalType": "uint64",
          "name": "positionNFTTokenID",
          "type": "uint64"
        },
        {
          "indexed": true,
          "internalType": "address",
          "name": "owner",
          "type": "address"
        }
      ],
      "name": "RewardsClaimed",
      "type": "event"
    },
    {
      "anonymous": false,
      "inputs": [],
      "name": "TDaoStarted",
      "type": "event"
    },
    {
      "anonymous": false,
      "inputs": [
        {
          "indexed": true,
          "internalType": "address",
          "name": "token",
          "type": "address"
        }
      ],
      "name": "TokenAdded",
      "type": "event"
    },
    {
      "anonymous": false,
      "inputs": [
        {
          "indexed": true,
          "internalType": "uint16",
          "name": "tokenID",
          "type": "uint16"
        },
        {
          "indexed": true,
          "internalType": "address",
          "name": "initialOwner",
          "type": "address"
        },
        {
          "indexed": true,
          "internalType": "uint8",
          "name": "lockDurationMonths",
          "type": "uint8"
        },
        {
          "indexed": false,
          "internalType": "uint256",
          "name": "count",
          "type": "uint256"
        }
      ],
      "name": "TokensLocked",
      "type": "event"
    },
    {
      "anonymous": false,
      "inputs": [
        {
          "indexed": true,
          "internalType": "uint16",
          "name": "tokenID",
          "type": "uint16"
        },
        {
          "indexed": true,
          "internalType": "address",
          "name": "owner",
          "type": "address"
        },
        {
          "indexed": false,
          "internalType": "uint256",
          "name": "count",
          "type": "uint256"
        }
      ],
      "name": "TokensUnlocked",
      "type": "event"
    },
    {
      "inputs": [],
      "name": "accrueInflation",
      "outputs": [],
      "stateMutability": "nonpayable",
      "type": "function"
    },
    {
      "inputs": [
        {
          "internalType": "contract IERC20",
          "name": "token",
          "type": "address"
        }
      ],
      "name": "addToken",
      "outputs": [],
      "stateMutability": "nonpayable",
      "type": "function"
    },
    {
      "inputs": [],
      "name": "allTokens",
      "outputs": [
        {
          "internalType": "contract IERC20[]",
          "name": "",
          "type": "address[]"
        }
      ],
      "stateMutability": "view",
      "type": "function"
    },
    {
      "inputs": [
        {
          "internalType": "bytes4",
          "name": "",
          "type": "bytes4"
        }
      ],
      "name": "blacklistedAction",
      "outputs": [
        {
          "internalType": "bool",
          "name": "",
          "type": "bool"
        }
      ],
      "stateMutability": "view",
      "type": "function"
    },
    {
      "inputs": [
        {
          "internalType": "uint64",
          "name": "months",
          "type": "uint64"
        }
      ],
      "name": "calculateMonthsToDays",
      "outputs": [
        {
          "internalType": "uint256",
          "name": "",
          "type": "uint256"
        }
      ],
      "stateMutability": "pure",
      "type": "function"
    },
    {
      "inputs": [
        {
          "internalType": "uint256",
          "name": "count",
          "type": "uint256"
        },
        {
          "internalType": "uint64",
          "name": "durationMonths",
          "type": "uint64"
        }
      ],
      "name": "calculateVirtualCount",
      "outputs": [
        {
          "internalType": "uint256",
          "name": "",
          "type": "uint256"
        }
      ],
      "stateMutability": "pure",
      "type": "function"
    },
    {
      "inputs": [],
      "name": "countUnderlyingProtocolTokens",
      "outputs": [
        {
          "internalType": "uint256",
          "name": "",
          "type": "uint256"
        }
      ],
      "stateMutability": "view",
      "type": "function"
    },
    {
      "inputs": [],
      "name": "currentPeriod",
      "outputs": [
        {
          "internalType": "uint64",
          "name": "period",
          "type": "uint64"
        }
      ],
      "stateMutability": "view",
      "type": "function"
    },
    {
      "inputs": [],
      "name": "dailyProtocolTDaoIncentiveCount",
      "outputs": [
        {
          "internalType": "uint256",
          "name": "",
          "type": "uint256"
        }
      ],
      "stateMutability": "view",
      "type": "function"
    },
    {
      "inputs": [],
      "name": "deployer",
      "outputs": [
        {
          "internalType": "address",
          "name": "",
          "type": "address"
        }
      ],
      "stateMutability": "view",
      "type": "function"
    },
    {
      "inputs": [
        {
          "internalType": "address",
          "name": "target",
          "type": "address"
        },
        {
          "internalType": "string",
          "name": "signature",
          "type": "string"
        },
        {
          "internalType": "bytes",
          "name": "data",
          "type": "bytes"
        }
      ],
      "name": "execute",
      "outputs": [
        {
          "internalType": "bool",
          "name": "success",
          "type": "bool"
        },
        {
          "internalType": "bytes",
          "name": "returnData",
          "type": "bytes"
        }
      ],
      "stateMutability": "nonpayable",
      "type": "function"
    },
    {
      "inputs": [
        {
          "internalType": "uint256",
          "name": "metaProposalID",
          "type": "uint256"
        }
      ],
      "name": "executeMetaProposalVote",
      "outputs": [],
      "stateMutability": "nonpayable",
      "type": "function"
    },
    {
      "inputs": [],
      "name": "firstPeriod",
      "outputs": [
        {
          "internalType": "uint64",
          "name": "",
          "type": "uint64"
        }
      ],
      "stateMutability": "view",
      "type": "function"
    },
    {
      "inputs": [
        {
          "internalType": "uint64",
          "name": "positionNFTTokenID",
          "type": "uint64"
        }
      ],
      "name": "getPosition",
      "outputs": [
        {
          "components": [
            {
              "internalType": "uint256",
              "name": "count",
              "type": "uint256"
            },
            {
              "internalType": "uint256",
              "name": "startTotalRewards",
              "type": "uint256"
            },
            {
              "internalType": "uint256",
              "name": "startCumulativeVirtualCount",
              "type": "uint256"
            },
            {
              "internalType": "uint64",
              "name": "lastPeriodUpdated",
              "type": "uint64"
            },
            {
              "internalType": "uint64",
              "name": "endPeriod",
              "type": "uint64"
            },
            {
              "internalType": "uint64",
              "name": "durationMonths",
              "type": "uint64"
            },
            {
              "internalType": "uint16",
              "name": "tokenID",
              "type": "uint16"
            }
          ],
          "internalType": "struct ITDao.TokenPosition",
          "name": "",
          "type": "tuple"
        }
      ],
      "stateMutability": "view",
      "type": "function"
    },
    {
      "inputs": [
        {
          "internalType": "uint64[]",
          "name": "positionNFTTokenIDs",
          "type": "uint64[]"
        }
      ],
      "name": "getRewards",
      "outputs": [],
      "stateMutability": "nonpayable",
      "type": "function"
    },
    {
      "inputs": [
        {
          "internalType": "uint16",
          "name": "tokenID",
          "type": "uint16"
        }
      ],
      "name": "getRewardsStatus",
      "outputs": [
        {
          "components": [
            {
              "internalType": "uint256",
              "name": "cumulativeVirtualCount",
              "type": "uint256"
            },
            {
              "internalType": "uint256",
              "name": "totalRewards",
              "type": "uint256"
            }
          ],
          "internalType": "struct ITDao.TokenRewardsStatus",
          "name": "",
          "type": "tuple"
        }
      ],
      "stateMutability": "view",
      "type": "function"
    },
    {
      "inputs": [],
      "name": "guardian",
      "outputs": [
        {
          "internalType": "address",
          "name": "",
          "type": "address"
        }
      ],
      "stateMutability": "view",
      "type": "function"
    },
    {
      "inputs": [
        {
          "internalType": "uint16",
          "name": "tokenID",
          "type": "uint16"
        }
      ],
      "name": "idToToken",
      "outputs": [
        {
          "internalType": "contract IERC20",
          "name": "",
          "type": "address"
        }
      ],
      "stateMutability": "view",
      "type": "function"
    },
    {
      "inputs": [],
      "name": "incentiveContract",
      "outputs": [
        {
          "internalType": "address",
          "name": "",
          "type": "address"
        }
      ],
      "stateMutability": "view",
      "type": "function"
    },
    {
      "inputs": [
        {
          "internalType": "address",
          "name": "dest",
          "type": "address"
        },
        {
          "internalType": "uint256",
          "name": "count",
          "type": "uint256"
        }
      ],
      "name": "incentiveContractMint",
      "outputs": [],
      "stateMutability": "nonpayable",
      "type": "function"
    },
    {
      "inputs": [],
      "name": "incentivesStartPeriod",
      "outputs": [
        {
          "internalType": "uint64",
          "name": "",
          "type": "uint64"
        }
      ],
      "stateMutability": "view",
      "type": "function"
    },
    {
      "inputs": [
        {
          "internalType": "uint64",
          "name": "positionNFTTokenID",
          "type": "uint64"
        },
        {
          "internalType": "uint8",
          "name": "lockDurationMonths",
          "type": "uint8"
        }
      ],
      "name": "increaseLockDuration",
      "outputs": [],
      "stateMutability": "nonpayable",
      "type": "function"
    },
    {
      "inputs": [
        {
          "internalType": "contract IPositionNFT",
          "name": "_tDaoPositionNFT",
          "type": "address"
        },
        {
          "internalType": "contract TDaoToken",
          "name": "_tDaoToken",
          "type": "address"
        },
        {
          "internalType": "address",
          "name": "_tDaoGovernorAlpha",
          "type": "address"
        },
        {
          "internalType": "address",
          "name": "_timelock",
          "type": "address"
        }
      ],
      "name": "init",
      "outputs": [],
      "stateMutability": "nonpayable",
      "type": "function"
    },
    {
      "inputs": [],
      "name": "lastPeriodGlobalInflationUpdated",
      "outputs": [
        {
          "internalType": "uint64",
          "name": "",
          "type": "uint64"
        }
      ],
      "stateMutability": "view",
      "type": "function"
    },
    {
      "inputs": [
        {
          "internalType": "uint16",
          "name": "tokenID",
          "type": "uint16"
        },
        {
          "internalType": "uint256",
          "name": "count",
          "type": "uint256"
        },
        {
          "internalType": "uint8",
          "name": "lockDurationMonths",
          "type": "uint8"
        },
        {
          "internalType": "address",
          "name": "to",
          "type": "address"
        }
      ],
      "name": "lockTokens",
      "outputs": [
        {
          "internalType": "uint64",
          "name": "positionNFTTokenID",
          "type": "uint64"
        }
      ],
      "stateMutability": "nonpayable",
      "type": "function"
    },
    {
      "inputs": [
        {
          "internalType": "address",
          "name": "dest",
          "type": "address"
        },
        {
          "internalType": "uint256",
          "name": "count",
          "type": "uint256"
        }
      ],
      "name": "mintIncentive",
      "outputs": [],
      "stateMutability": "nonpayable",
      "type": "function"
    },
    {
      "inputs": [
        {
          "internalType": "address",
          "name": "dest",
          "type": "address"
        },
        {
          "internalType": "uint256",
          "name": "count",
          "type": "uint256"
        }
      ],
      "name": "mintVotingRewards",
      "outputs": [],
      "stateMutability": "nonpayable",
      "type": "function"
    },
    {
      "inputs": [],
      "name": "periodLength",
      "outputs": [
        {
          "internalType": "uint64",
          "name": "",
          "type": "uint64"
        }
      ],
      "stateMutability": "view",
      "type": "function"
    },
    {
      "inputs": [
        {
          "internalType": "uint64",
          "name": "period",
          "type": "uint64"
        }
      ],
      "name": "periodToTime",
      "outputs": [
        {
          "internalType": "uint64",
          "name": "",
          "type": "uint64"
        }
      ],
      "stateMutability": "view",
      "type": "function"
    },
    {
      "inputs": [
        {
          "internalType": "uint64",
          "name": "positionNFTTokenID",
          "type": "uint64"
        }
      ],
      "name": "positionIsAbleToBeUnlocked",
      "outputs": [
        {
          "internalType": "bool",
          "name": "",
          "type": "bool"
        }
      ],
      "stateMutability": "view",
      "type": "function"
    },
    {
      "inputs": [
        {
          "internalType": "uint16",
          "name": "tokenID",
          "type": "uint16"
        }
      ],
      "name": "selfDelegate",
      "outputs": [],
      "stateMutability": "nonpayable",
      "type": "function"
    },
    {
      "inputs": [
        {
          "internalType": "address",
          "name": "governorAlpha",
          "type": "address"
        },
        {
          "internalType": "uint256",
          "name": "proposalID",
          "type": "uint256"
        },
        {
          "internalType": "address",
          "name": "voter",
          "type": "address"
        },
        {
          "internalType": "uint256",
          "name": "votePortion",
          "type": "uint256"
        }
      ],
      "name": "sendUnderlyingVotingRewards",
      "outputs": [],
      "stateMutability": "nonpayable",
      "type": "function"
    },
    {
      "inputs": [
        {
          "internalType": "address",
          "name": "_contract",
          "type": "address"
        }
      ],
      "name": "setIncentiveContract",
      "outputs": [],
      "stateMutability": "nonpayable",
      "type": "function"
    },
    {
      "inputs": [],
      "name": "start",
      "outputs": [],
      "stateMutability": "nonpayable",
      "type": "function"
    },
    {
      "inputs": [],
      "name": "startPeriod",
      "outputs": [
        {
          "internalType": "uint64",
          "name": "",
          "type": "uint64"
        }
      ],
      "stateMutability": "view",
      "type": "function"
    },
    {
      "inputs": [],
      "name": "tDaoGovernorAlpha",
      "outputs": [
        {
          "internalType": "address",
          "name": "",
          "type": "address"
        }
      ],
      "stateMutability": "view",
      "type": "function"
    },
    {
      "inputs": [],
      "name": "tDaoPositionNFT",
      "outputs": [
        {
          "internalType": "contract IPositionNFT",
          "name": "",
          "type": "address"
        }
      ],
      "stateMutability": "view",
      "type": "function"
    },
    {
      "inputs": [],
      "name": "tDaoToken",
      "outputs": [
        {
          "internalType": "contract TDaoToken",
          "name": "",
          "type": "address"
        }
      ],
      "stateMutability": "view",
      "type": "function"
    },
    {
      "inputs": [],
      "name": "timelock",
      "outputs": [
        {
          "internalType": "address",
          "name": "",
          "type": "address"
        }
      ],
      "stateMutability": "view",
      "type": "function"
    },
    {
      "inputs": [
        {
          "internalType": "contract IERC20",
          "name": "token",
          "type": "address"
        }
      ],
      "name": "tokenToID",
      "outputs": [
        {
          "internalType": "uint16",
          "name": "",
          "type": "uint16"
        }
      ],
      "stateMutability": "view",
      "type": "function"
    },
    {
      "inputs": [
        {
          "internalType": "uint256",
          "name": "",
          "type": "uint256"
        }
      ],
      "name": "tokens",
      "outputs": [
        {
          "internalType": "contract IERC20",
          "name": "",
          "type": "address"
        }
      ],
      "stateMutability": "view",
      "type": "function"
    },
    {
      "inputs": [],
      "name": "totalIncentivesMinted",
      "outputs": [
        {
          "internalType": "uint256",
          "name": "",
          "type": "uint256"
        }
      ],
      "stateMutability": "view",
      "type": "function"
    },
    {
      "inputs": [
        {
          "internalType": "address",
          "name": "",
          "type": "address"
        },
        {
          "internalType": "uint256",
          "name": "",
          "type": "uint256"
        }
      ],
      "name": "underlyingTokenVoteRewardCount",
      "outputs": [
        {
          "internalType": "uint248",
          "name": "count",
          "type": "uint248"
        },
        {
          "internalType": "bool",
          "name": "isSet",
          "type": "bool"
        }
      ],
      "stateMutability": "view",
      "type": "function"
    },
    {
      "inputs": [
        {
          "internalType": "uint64",
          "name": "positionNFTTokenID",
          "type": "uint64"
        }
      ],
      "name": "unlockTokens",
      "outputs": [],
      "stateMutability": "nonpayable",
      "type": "function"
    },
    {
      "inputs": [
        {
          "internalType": "uint16",
          "name": "",
          "type": "uint16"
        }
      ],
      "name": "virtualCount",
      "outputs": [
        {
          "internalType": "uint256",
          "name": "",
          "type": "uint256"
        }
      ],
      "stateMutability": "view",
      "type": "function"
    },
    {
      "inputs": [],
      "name": "votingRewardsSafe",
      "outputs": [
        {
          "internalType": "contract TDaoVotingRewardsSafe",
          "name": "",
          "type": "address"
        }
      ],
      "stateMutability": "view",
      "type": "function"
    }
  ],
  "bytecode": "0x60e06040526001600760006101000a81548167ffffffffffffffff021916908367ffffffffffffffff1602179055503480156200003c5760006000fd5b5060405162006db438038062006db48339818101604052810190620000629190620002ef565b5b81815b5b620151805b6001816200007f6200023d60201b60201c565b6200008b919062000332565b6200009791906200036d565b67ffffffffffffffff1660a08167ffffffffffffffff16815260200150508067ffffffffffffffff1660808167ffffffffffffffff16815260200150505b50600160006000508190909055505b81600e60006101000a81548173ffffffffffffffffffffffffffffffffffffffff021916908373ffffffffffffffffffffffffffffffffffffffff160217905550600a60005081908060018154018082558091505060019003906000526020600020900160005b9091909190916101000a81548173ffffffffffffffffffffffffffffffffffffffff021916908373ffffffffffffffffffffffffffffffffffffffff1602179055506040516200019b90620002bf565b604051809103906000f080158015620001b9573d600060003e3d6000fd5b5073ffffffffffffffffffffffffffffffffffffffff1660c08173ffffffffffffffffffffffffffffffffffffffff168152602001505033600d60006101000a81548173ffffffffffffffffffffffffffffffffffffffff021916908373ffffffffffffffffffffffffffffffffffffffff1602179055505b50505b5050620003ec565b600062000257426200025f60201b6200396617909060201c565b905080505b90565b60006801000000000000000082101515620002b1576040517f08c379a0000000000000000000000000000000000000000000000000000000008152600401620002a890620003ac565b60405180910390fd5b819050620002ba565b919050565b61082c80620065888339019056620003eb565b6001600160a01b03811681141515620002eb5760006000fd5b505b565b6000600060408385031215620003055760006000fd5b82516200031281620002d2565b8092505060208301516200032681620002d2565b809150505b9250929050565b60006001600160401b038084168015156200035d57634e487b7160e01b600052601260045260246000fd5b8082851604925050505b92915050565b60006001600160401b038083168185169150818110156200039e57634e487b7160e01b600052601160045260246000fd5b818103925050505b92915050565b60208152601160208201527f6d6f7265207468616e2036342062697473000000000000000000000000000000604082015260006060820190505b919050565b5b60805160a05160c0516161426200044660003960008181612812015281816133b701526133e801526000818161365801528181613c9a01526145d501526000818161367c01528181613cbb015261460e01526161426000f3fe60806040523480156100115760006000fd5b506004361061030f5760003560e01c80636ff97f1d1161019d578063b9f8ea6d116100ef578063d48bfca711610098578063d7ed153b11610072578063d7ed153b146108cd578063fcb3fa90146108fd578063fd8067c3146109195761030f565b8063d48bfca714610875578063d5f3948814610891578063d6c2875d146108af5761030f565b8063c4e3a63b116100c9578063c4e3a63b1461081b578063d2ca211514610839578063d33219b4146108575761030f565b8063b9f8ea6d146107d7578063be9a6555146107f3578063c2cc16d9146107fd5761030f565b80639383ac44116101515780639d8e09011161012b5780639d8e090114610759578063acfc7bfa14610789578063ae429833146107b95761030f565b80639383ac44146106ef578063955e232e1461070b5780639645383d1461073b5761030f565b80637ad31c98116101825780637ad31c981461068257806386fa81c7146106a057806387bbac1b146106d15761030f565b80636ff97f1d14610634578063797250e4146106525761030f565b806330bfb9bb116102615780634cd7a3151161020a5780635d5bef89116101e45780635d5bef89146105ca578063640bb8df146105e65780636c6a4f36146106045761030f565b80634cd7a315146105605780634f64b2be1461057c578063526b8712146105ac5761030f565b8063452a93201161023b578063452a9320146104f65780634540137e146105145780634b884f34146105305761030f565b806330bfb9bb1461047757806333daf5d414610495578063371f3d45146104c65761030f565b806307e54f16116102c357806314706d851161029d57806314706d851461040d5780631a30c7021461042b5780632e74e628146104475761030f565b806307e54f16146103915780630a889a8b146103c15780630f85fc5a146103dd5761030f565b806306552ff3116102f457806306552ff31461033d578063078182001461035957806307932987146103755761030f565b8063020ac54a14610315578063060406181461031f5761030f565b60006000fd5b61031d610937565b005b6103276109ae565b6040516103349190614d03565b60405180910390f35b61035760048036038101906103529190614d48565b6109c6565b005b610373600480360381019061036e9190614db0565b610c31565b005b61038f600480360381019061038a9190614dd9565b610e10565b005b6103ab60048036038101906103a69190614e0c565b610f6b565b6040516103b89190614e35565b60405180910390f35b6103db60048036038101906103d69190614e68565b61106b565b005b6103f760048036038101906103f29190614e68565b61155f565b6040516104049190614e91565b60405180910390f35b61041561183b565b6040516104229190614ef6565b60405180910390f35b61044560048036038101906104409190614f26565b611903565b005b610461600480360381019061045c9190614e68565b611c0d565b60405161046e9190614f60565b60405180910390f35b61047f611d10565b60405161048c9190614d03565b60405180910390f35b6104af60048036038101906104aa919061503e565b611d2a565b6040516104bd929190615171565b60405180910390f35b6104e060048036038101906104db9190615196565b611f8b565b6040516104ed9190614f60565b60405180910390f35b6104fe611fb0565b60405161050b91906151e7565b60405180910390f35b61052e6004803603810190610529919061520f565b611fd6565b005b61054a60048036038101906105459190614e68565b6121c0565b6040516105579190614ef6565b60405180910390f35b61057a60048036038101906105759190614dd9565b6121e7565b005b6105966004803603810190610591919061528e565b61243b565b6040516105a391906152ac565b60405180910390f35b6105b4612481565b6040516105c19190614ef6565b60405180910390f35b6105e460048036038101906105df91906152f3565b612496565b005b6105ee6125a0565b6040516105fb91906151e7565b60405180910390f35b61061e600480360381019061061991906152f3565b6125c6565b60405161062b9190615318565b60405180910390f35b61063c6126e7565b6040516106499190615335565b60405180910390f35b61066c600480360381019061066791906152f3565b61277d565b6040516106799190614ef6565b60405180910390f35b61068a612798565b6040516106979190614ef6565b60405180910390f35b6106ba60048036038101906106b59190614dd9565b6127a1565b6040516106c892919061539a565b60405180910390f35b6106d9612810565b6040516106e691906153d6565b60405180910390f35b61070960048036038101906107049190614dd9565b612834565b005b61072560048036038101906107209190614e68565b612a74565b6040516107329190614d03565b60405180910390f35b610743612a91565b60405161075091906153fe565b60405180910390f35b610773600480360381019061076e91906152f3565b612ab7565b60405161078091906152ac565b60405180910390f35b6107a3600480360381019061079e9190615426565b612b5f565b6040516107b09190614d03565b60405180910390f35b6107c1612f13565b6040516107ce919061547b565b60405180910390f35b6107f160048036038101906107ec91906154a3565b612f39565b005b6107fb613539565b005b610805613630565b60405161081291906151e7565b60405180910390f35b610823613656565b6040516108309190614d03565b60405180910390f35b61084161367a565b60405161084e9190614d03565b60405180910390f35b61085f61369e565b60405161086c91906151e7565b60405180910390f35b61088f600480360381019061088a9190614e0c565b6136c4565b005b6108996137ce565b6040516108a691906151e7565b60405180910390f35b6108b76137f4565b6040516108c49190614d03565b60405180910390f35b6108e760048036038101906108e291906154f5565b61380e565b6040516108f49190614ef6565b60405180910390f35b6109176004803603810190610912919061528e565b61382d565b005b61092161394c565b60405161092e9190614d03565b60405180910390f35b600260006000505414151515610982576040517f08c379a000000000000000000000000000000000000000000000000000000000815260040161097990615528565b60405180910390fd5b6002600060005081909090555061099d6139c263ffffffff16565b5b600160006000508190909055505b565b60006109be613c9663ffffffff16565b905080505b90565b610a25600d60009054906101000a900473ffffffffffffffffffffffffffffffffffffffff1673ffffffffffffffffffffffffffffffffffffffff163373ffffffffffffffffffffffffffffffffffffffff1614613d0463ffffffff16565b600d60006101000a81549073ffffffffffffffffffffffffffffffffffffffff021916905583600560006101000a81548173ffffffffffffffffffffffffffffffffffffffff021916908373ffffffffffffffffffffffffffffffffffffffff16021790555082600460006101000a81548173ffffffffffffffffffffffffffffffffffffffff021916908373ffffffffffffffffffffffffffffffffffffffff16021790555081600360006101000a81548173ffffffffffffffffffffffffffffffffffffffff021916908373ffffffffffffffffffffffffffffffffffffffff16021790555080600260006101000a81548173ffffffffffffffffffffffffffffffffffffffff021916908373ffffffffffffffffffffffffffffffffffffffff160217905550610b6463a9059cbb60e01b613d4a63ffffffff16565b610b7a6323b872dd60e01b613d4a63ffffffff16565b610b9063095ea7b360e01b613d4a63ffffffff16565b610ba663449a52f860e01b613d4a63ffffffff16565b610bbc6379cc679060e01b613d4a63ffffffff16565b610bd26342966c6860e01b613d4a63ffffffff16565b610be8633950935160e01b613d4a63ffffffff16565b610bfe63a457c2d760e01b613d4a63ffffffff16565b610c14633c4a25d060e01b613d4a63ffffffff16565b610c2a635c19a95c60e01b613d4a63ffffffff16565b5b50505050565b610c6e3073ffffffffffffffffffffffffffffffffffffffff163373ffffffffffffffffffffffffffffffffffffffff1614613d0463ffffffff16565b600073ffffffffffffffffffffffffffffffffffffffff16600160009054906101000a900473ffffffffffffffffffffffffffffffffffffffff1673ffffffffffffffffffffffffffffffffffffffff16141515610d01576040517f08c379a0000000000000000000000000000000000000000000000000000000008152600401610cf890615567565b60405180910390fd5b610d1081613dbb63ffffffff16565b1515610d51576040517f08c379a0000000000000000000000000000000000000000000000000000000008152600401610d48906155a6565b60405180910390fd5b80600160006101000a81548173ffffffffffffffffffffffffffffffffffffffff021916908373ffffffffffffffffffffffffffffffffffffffff160217905550610da0613c9663ffffffff16565b600f60006101000a81548167ffffffffffffffff021916908367ffffffffffffffff1602179055508073ffffffffffffffffffffffffffffffffffffffff167f6765bf0cc4e3defc42bfa6ac394241a5f702ee760529c922874f15c4ad35edc760405160405180910390a25b5b50565b600260006000505414151515610e5b576040517f08c379a0000000000000000000000000000000000000000000000000000000008152600401610e5290615528565b60405180910390fd5b60026000600050819090905550610ec7600360009054906101000a900473ffffffffffffffffffffffffffffffffffffffff1673ffffffffffffffffffffffffffffffffffffffff163373ffffffffffffffffffffffffffffffffffffffff1614613d0463ffffffff16565b600460009054906101000a900473ffffffffffffffffffffffffffffffffffffffff1673ffffffffffffffffffffffffffffffffffffffff1663449a52f883836040518363ffffffff1660e01b8152600401610f249291906155e5565b600060405180830381600087803b158015610f3f5760006000fd5b505af1158015610f54573d600060003e3d6000fd5b505050505b600160006000508190909055505b5050565b60006000600090505b600a6000508054905081101561102a578273ffffffffffffffffffffffffffffffffffffffff16600a60005082815481101515610fb457610fb3615614565b5b906000526020600020900160005b9054906101000a900473ffffffffffffffffffffffffffffffffffffffff1673ffffffffffffffffffffffffffffffffffffffff1614156110165761100e81613de4909063ffffffff16565b915050611066565b5b808061102290615676565b915050610f74565b506040517f08c379a000000000000000000000000000000000000000000000000000000000815260040161105d906156b5565b60405180910390fd5b919050565b6002600060005054141515156110b6576040517f08c379a00000000000000000000000000000000000000000000000000000000081526004016110ad90615528565b60405180910390fd5b600260006000508190909055506000339050611175600560009054906101000a900473ffffffffffffffffffffffffffffffffffffffff1673ffffffffffffffffffffffffffffffffffffffff1663430c208183856040518363ffffffff1660e01b81526004016111289291906156f4565b602060405180830381865afa158015611146573d600060003e3d6000fd5b505050506040513d601f19601f8201168201806040525081019061116a919061574a565b613d0463ffffffff16565b600061118683613e3a63ffffffff16565b9050611196613c9663ffffffff16565b67ffffffffffffffff16816080015167ffffffffffffffff16111515156111f2576040517f08c379a00000000000000000000000000000000000000000000000000000000081526004016111e99061576f565b60405180910390fd5b61124161120d82600001518360a001516140fc63ffffffff16565b600960005060008460c0015161ffff1661ffff1681526020019081526020016000206000505461412b90919063ffffffff16565b600960005060008360c0015161ffff1661ffff168152602001908152602001600020600050819090905550600b60005060008467ffffffffffffffff1667ffffffffffffffff16815260200190815260200160002060006000820160006101000a8154906fffffffffffffffffffffffffffffffff02191690556000820160106101000a8154906fffffffffffffffffffffffffffffffff02191690556001820160006101000a81549076ffffffffffffffffffffffffffffffffffffffffffffff02191690556001820160176101000a81549061ffff02191690556001820160196101000a81549061ffff021916905560018201601b6101000a81549061ffff021916905560018201601d6101000a81549060ff021916905550506000600560009054906101000a900473ffffffffffffffffffffffffffffffffffffffff1673ffffffffffffffffffffffffffffffffffffffff16636352211e856040518263ffffffff1660e01b81526004016113ba91906157ae565b602060405180830381865afa1580156113d8573d600060003e3d6000fd5b505050506040513d601f19601f820116820180604052508101906113fc91906157ca565b9050600560009054906101000a900473ffffffffffffffffffffffffffffffffffffffff1673ffffffffffffffffffffffffffffffffffffffff16639dbead42856040518263ffffffff1660e01b81526004016114599190614d03565b600060405180830381600087803b1580156114745760006000fd5b505af1158015611489573d600060003e3d6000fd5b505050508273ffffffffffffffffffffffffffffffffffffffff168260c0015161ffff167fbf347141bee0ba9c777fbef9a14008be9f56f2b2f90f0e63cfed8a96a3b506c784600001516040516114e09190614ef6565b60405180910390a361154a600a6000508360c0015161ffff1681548110151561150c5761150b615614565b5b906000526020600020900160005b9054906101000a900473ffffffffffffffffffffffffffffffffffffffff1682846000015161414663ffffffff16565b5050505b600160006000508190909055505b50565b611567614c80565b6000600b60005060008467ffffffffffffffff1667ffffffffffffffff1681526020019081526020016000206000506040518060e00160405290816000820160009054906101000a90046fffffffffffffffffffffffffffffffff166fffffffffffffffffffffffffffffffff166fffffffffffffffffffffffffffffffff1681526020016000820160109054906101000a90046fffffffffffffffffffffffffffffffff166fffffffffffffffffffffffffffffffff166fffffffffffffffffffffffffffffffff1681526020016001820160009054906101000a900476ffffffffffffffffffffffffffffffffffffffffffffff1676ffffffffffffffffffffffffffffffffffffffffffffff1676ffffffffffffffffffffffffffffffffffffffffffffff1681526020016001820160179054906101000a900461ffff1661ffff1661ffff1681526020016001820160199054906101000a900461ffff1661ffff1661ffff16815260200160018201601b9054906101000a900461ffff1661ffff1661ffff16815260200160018201601d9054906101000a900460ff1660ff1660ff16815260200150509050600081600001516fffffffffffffffffffffffffffffffff16111515611771576040517f08c379a0000000000000000000000000000000000000000000000000000000008152600401611768906157f3565b60405180910390fd5b6040518060e0016040528082600001516fffffffffffffffffffffffffffffffff16815260200182602001516fffffffffffffffffffffffffffffffff168152602001826040015176ffffffffffffffffffffffffffffffffffffffffffffff168152602001826060015161ffff1667ffffffffffffffff168152602001826080015161ffff1667ffffffffffffffff1681526020018260c0015160ff1667ffffffffffffffff1681526020018260a0015161ffff1681526020015091505061183656505b919050565b60006000600e60149054906101000a900467ffffffffffffffff1667ffffffffffffffff16141561186f5760009050611900565b600073ffffffffffffffffffffffffffffffffffffffff16600160009054906101000a900473ffffffffffffffffffffffffffffffffffffffff1673ffffffffffffffffffffffffffffffffffffffff161415156118ee5769021e19e0c9bab240000069152d02c7e14af68000006118e79190615832565b9050611900565b69152d02c7e14af68000009050611900565b90565b60026000600050541415151561194e576040517f08c379a000000000000000000000000000000000000000000000000000000000815260040161194590615528565b60405180910390fd5b6002600060005081909090555061196a816141d363ffffffff16565b611a17600560009054906101000a900473ffffffffffffffffffffffffffffffffffffffff1673ffffffffffffffffffffffffffffffffffffffff1663430c208133856040518363ffffffff1660e01b81526004016119ca9291906156f4565b602060405180830381865afa1580156119e8573d600060003e3d6000fd5b505050506040513d601f19601f82011682018060405250810190611a0c919061574a565b613d0463ffffffff16565b6000611a2883613e3a63ffffffff16565b90508060a0015167ffffffffffffffff168260ff1667ffffffffffffffff16111515611a89576040517f08c379a0000000000000000000000000000000000000000000000000000000008152600401611a8090615851565b60405180910390fd5b611b00611aa382600001518460ff166140fc63ffffffff16565b611af2611abe84600001518560a001516140fc63ffffffff16565b600960005060008660c0015161ffff1661ffff1681526020019081526020016000206000505461412b90919063ffffffff16565b61426990919063ffffffff16565b600960005060008360c0015161ffff1661ffff168152602001908152602001600020600050819090905550611b66611b408360ff1661428463ffffffff16565b611b4e613c9663ffffffff16565b67ffffffffffffffff166142bd90919063ffffffff16565b816080019067ffffffffffffffff16908167ffffffffffffffff16815260200150508160ff168160a0019067ffffffffffffffff16908167ffffffffffffffff1681526020015050611bbe83826142d863ffffffff16565b8160ff168367ffffffffffffffff167fb39e6330051c3e584367d7d1f1ff3fb0cdd824478fd7d7f257005c83c010b8a160405160405180910390a3505b600160006000508190909055505b5050565b6000600a60005080549050600b60005060008467ffffffffffffffff1667ffffffffffffffff168152602001908152602001600020600050600101601b9054906101000a900461ffff1661ffff16101515611c9d576040517f08c379a0000000000000000000000000000000000000000000000000000000008152600401611c9490615890565b60405180910390fd5b611cab613c9663ffffffff16565b67ffffffffffffffff16600b60005060008467ffffffffffffffff1667ffffffffffffffff16815260200190815260200160002060005060010160199054906101000a900461ffff1661ffff1667ffffffffffffffff1611159050611d0b565b919050565b600e60149054906101000a900467ffffffffffffffff1681565b60006060600260006000505414151515611d79576040517f08c379a0000000000000000000000000000000000000000000000000000000008152600401611d7090615528565b60405180910390fd5b60026000600050819090905550611de5600260009054906101000a900473ffffffffffffffffffffffffffffffffffffffff1673ffffffffffffffffffffffffffffffffffffffff163373ffffffffffffffffffffffffffffffffffffffff1614613d0463ffffffff16565b6000611df68561457e63ffffffff16565b9050600c6000506000827bffffffffffffffffffffffffffffffffffffffffffffffffffffffff19167bffffffffffffffffffffffffffffffffffffffffffffffffffffffff1916815260200190815260200160002060009054906101000a900460ff16151515611e9c576040517f08c379a0000000000000000000000000000000000000000000000000000000008152600401611e93906158cf565b60405180910390fd5b8573ffffffffffffffffffffffffffffffffffffffff168185604051602001611ec692919061590e565b604051602081830303815290604052604051611ee29190615959565b6000604051808303816000865af19150503d8060008114611f1f576040519150601f19603f3d011682016040523d82523d6000602084013e611f24565b606091505b5080935081945050508282901515611f72576040517f08c379a0000000000000000000000000000000000000000000000000000000008152600401611f699190615978565b60405180910390fd5b50505b600160006000508190909055505b935093915050565b600c60005060205280600052604060002060009150909054906101000a900460ff1681565b600e60009054906101000a900473ffffffffffffffffffffffffffffffffffffffff1681565b600260006000505414151515612021576040517f08c379a000000000000000000000000000000000000000000000000000000000815260040161201890615528565b60405180910390fd5b600260006000508190909055506000612038614c80565b6000600090505b848490508110156121aa57848482818110151561205f5761205e615614565b5b90506020020160208101906120749190614e68565b92508250612125600560009054906101000a900473ffffffffffffffffffffffffffffffffffffffff1673ffffffffffffffffffffffffffffffffffffffff1663430c208133866040518363ffffffff1660e01b81526004016120d89291906156f4565b602060405180830381865afa1580156120f6573d600060003e3d6000fd5b505050506040513d601f19601f8201168201806040525081019061211a919061574a565b613d0463ffffffff16565b61213483613e3a63ffffffff16565b9150815061214883836142d863ffffffff16565b3373ffffffffffffffffffffffffffffffffffffffff168367ffffffffffffffff167f39c278b054e152450e4295bdf59d7edbaba35cb21d4248658680e61dac39eebb60405160405180910390a35b80806121a290615676565b91505061203f565b5050505b600160006000508190909055505b5050565b60006121d18261428463ffffffff16565b67ffffffffffffffff1690506121e2565b919050565b6122243073ffffffffffffffffffffffffffffffffffffffff163373ffffffffffffffffffffffffffffffffffffffff1614613d0463ffffffff16565b6032600460009054906101000a900473ffffffffffffffffffffffffffffffffffffffff1673ffffffffffffffffffffffffffffffffffffffff166318160ddd6040518163ffffffff1660e01b8152600401602060405180830381865afa158015612294573d600060003e3d6000fd5b505050506040513d601f19601f820116820180604052508101906122b89190615994565b6122c291906159e3565b8111151515612306576040517f08c379a00000000000000000000000000000000000000000000000000000000081526004016122fd90615a01565b60405180910390fd5b61231582613dbb63ffffffff16565b1515612356576040517f08c379a000000000000000000000000000000000000000000000000000000000815260040161234d906155a6565b60405180910390fd5b600460009054906101000a900473ffffffffffffffffffffffffffffffffffffffff1673ffffffffffffffffffffffffffffffffffffffff1663449a52f883836040518363ffffffff1660e01b81526004016123b39291906155e5565b600060405180830381600087803b1580156123ce5760006000fd5b505af11580156123e3573d600060003e3d6000fd5b505050508173ffffffffffffffffffffffffffffffffffffffff167f15c222d39f56077620782fcc367cdd020fddac1f6129c77ec7ca1c5025659dda8260405161242d9190614ef6565b60405180910390a25b5b5050565b600a600050818154811061244e57600080fd5b906000526020600020900160005b9150909054906101000a900473ffffffffffffffffffffffffffffffffffffffff1681565b6000600a600050805490509050612493565b90565b600a600050805490508161ffff161015156124e6576040517f08c379a00000000000000000000000000000000000000000000000000000000081526004016124dd90615a40565b60405180910390fd5b600a6000508161ffff1681548110151561250357612502615614565b5b906000526020600020900160005b9054906101000a900473ffffffffffffffffffffffffffffffffffffffff1673ffffffffffffffffffffffffffffffffffffffff16635c19a95c306040518263ffffffff1660e01b815260040161256891906151e7565b600060405180830381600087803b1580156125835760006000fd5b505af1158015612598573d600060003e3d6000fd5b505050505b50565b600360009054906101000a900473ffffffffffffffffffffffffffffffffffffffff1681565b6125ce614ce2565b6000600860005060008461ffff1661ffff1681526020019081526020016000206000506040518060400160405290816000820160009054906101000a90046fffffffffffffffffffffffffffffffff166fffffffffffffffffffffffffffffffff166fffffffffffffffffffffffffffffffff1681526020016000820160109054906101000a90046fffffffffffffffffffffffffffffffff166fffffffffffffffffffffffffffffffff166fffffffffffffffffffffffffffffffff16815260200150509050604051806040016040528082600001516fffffffffffffffffffffffffffffffff16815260200182602001516fffffffffffffffffffffffffffffffff168152602001509150506126e256505b919050565b6060600a60005080548060200260200160405190810160405280929190818152602001828054801561276e57602002820191906000526020600020905b8160009054906101000a900473ffffffffffffffffffffffffffffffffffffffff1673ffffffffffffffffffffffffffffffffffffffff1681526020019060010190808311612724575b5050505050905061277a565b90565b60096000506020528060005260406000206000915090505481565b60106000505481565b6006600050602052816000526040600020600050602052806000526040600020600091509150508060000160009054906101000a90047effffffffffffffffffffffffffffffffffffffffffffffffffffffffffffff169080600001601f9054906101000a900460ff16905082565b7f000000000000000000000000000000000000000000000000000000000000000081565b60026000600050541415151561287f576040517f08c379a000000000000000000000000000000000000000000000000000000000815260040161287690615528565b60405180910390fd5b600260006000508190909055506128eb600160009054906101000a900473ffffffffffffffffffffffffffffffffffffffff1673ffffffffffffffffffffffffffffffffffffffff163373ffffffffffffffffffffffffffffffffffffffff1614613d0463ffffffff16565b60006129058260106000505461426990919063ffffffff16565b9050600061297b69021e19e0c9bab2400000612963600f60009054906101000a900467ffffffffffffffff166001612941613c9663ffffffff16565b61294b9190615a7f565b67ffffffffffffffff1661459490919063ffffffff16565b67ffffffffffffffff166145af90919063ffffffff16565b90508082111515156129c2576040517f08c379a00000000000000000000000000000000000000000000000000000000081526004016129b990615ab2565b60405180910390fd5b816010600050819090905550600460009054906101000a900473ffffffffffffffffffffffffffffffffffffffff1673ffffffffffffffffffffffffffffffffffffffff1663449a52f885856040518363ffffffff1660e01b8152600401612a2b9291906155e5565b600060405180830381600087803b158015612a465760006000fd5b505af1158015612a5b573d600060003e3d6000fd5b5050505050505b600160006000508190909055505b5050565b6000612a85826145ca63ffffffff16565b9050612a8c565b919050565b600460009054906101000a900473ffffffffffffffffffffffffffffffffffffffff1681565b6000600a600050805490508261ffff16101515612b09576040517f08c379a0000000000000000000000000000000000000000000000000000000008152600401612b0090615af1565b60405180910390fd5b600a6000508261ffff16815481101515612b2657612b25615614565b5b906000526020600020900160005b9054906101000a900473ffffffffffffffffffffffffffffffffffffffff169050612b5a565b919050565b6000600260006000505414151515612bac576040517f08c379a0000000000000000000000000000000000000000000000000000000008152600401612ba390615528565b60405180910390fd5b60026000600050819090905550600a600050805490508561ffff16101515612c09576040517f08c379a0000000000000000000000000000000000000000000000000000000008152600401612c0090615a40565b60405180910390fd5b600084111515612c4e576040517f08c379a0000000000000000000000000000000000000000000000000000000008152600401612c4590615b30565b60405180910390fd5b612c5d836141d363ffffffff16565b612c6b6139c263ffffffff16565b6000612c7c866125c663ffffffff16565b9050612cc4612c94868660ff166140fc63ffffffff16565b600960005060008961ffff1661ffff1681526020019081526020016000206000505461426990919063ffffffff16565b600960005060008861ffff1661ffff168152602001908152602001600020600050819090905550600560009054906101000a900473ffffffffffffffffffffffffffffffffffffffff1673ffffffffffffffffffffffffffffffffffffffff1663755edd17846040518263ffffffff1660e01b8152600401612d4691906151e7565b6020604051808303816000875af1158015612d66573d600060003e3d6000fd5b505050506040513d601f19601f82011682018060405250810190612d8a9190615b6f565b915081506000612d9e613c9663ffffffff16565b9050612e3f836040518060e0016040528089815260200185602001518152602001856000015181526020018467ffffffffffffffff168152602001612e07612dee8a60ff1661428463ffffffff16565b8667ffffffffffffffff166142bd90919063ffffffff16565b67ffffffffffffffff1681526020018860ff1667ffffffffffffffff1681526020018a61ffff168152602001506142d863ffffffff16565b612e9a600a6000508861ffff16815481101515612e5f57612e5e615614565b5b906000526020600020900160005b9054906101000a900473ffffffffffffffffffffffffffffffffffffffff1633308961464f63ffffffff16565b8460ff168473ffffffffffffffffffffffffffffffffffffffff168861ffff167ffd5af8482cd27088275e2c1370259ff534cf1c987cf2105e24da196377e5c98d89604051612ee99190614ef6565b60405180910390a48292505050612efd5650505b600160006000508190909055505b949350505050565b600560009054906101000a900473ffffffffffffffffffffffffffffffffffffffff1681565b612f98600360009054906101000a900473ffffffffffffffffffffffffffffffffffffffff1673ffffffffffffffffffffffffffffffffffffffff163373ffffffffffffffffffffffffffffffffffffffff1614613d0463ffffffff16565b60008473ffffffffffffffffffffffffffffffffffffffff16637e90f9ab6040518163ffffffff1660e01b8152600401602060405180830381865afa158015612fe6573d600060003e3d6000fd5b505050506040513d601f19601f8201168201806040525081019061300a91906157ca565b9050600660005060008673ffffffffffffffffffffffffffffffffffffffff1673ffffffffffffffffffffffffffffffffffffffff1681526020019081526020016000206000506000858152602001908152602001600020600050600001601f9054906101000a900460ff1615156133e65760008173ffffffffffffffffffffffffffffffffffffffff166370a08231306040518263ffffffff1660e01b81526004016130b791906151e7565b602060405180830381865afa1580156130d5573d600060003e3d6000fd5b505050506040513d601f19601f820116820180604052508101906130f99190615994565b90506000600167ffffffffffffffff81111561311857613117614f74565b5b6040519080825280602002602001820160405280156131465781602001602082028036833780820191505090505b509050858160008151811015156131605761315f615614565b5b60200260200101909081815260200150508673ffffffffffffffffffffffffffffffffffffffff1663062f1466826040518263ffffffff1660e01b81526004016131aa9190615b98565b600060405180830381600087803b1580156131c55760006000fd5b505af11580156131da573d600060003e3d6000fd5b50505050600061326d838573ffffffffffffffffffffffffffffffffffffffff166370a08231306040518263ffffffff1660e01b815260040161321d91906151e7565b602060405180830381865afa15801561323b573d600060003e3d6000fd5b505050506040513d601f19601f8201168201806040525081019061325f9190615994565b61412b90919063ffffffff16565b9050604051806040016040528061328b836146df909063ffffffff16565b7affffffffffffffffffffffffffffffffffffffffffffffffffffff167effffffffffffffffffffffffffffffffffffffffffffffffffffffffffffff16815260200160011515815260200150600660005060008a73ffffffffffffffffffffffffffffffffffffffff1673ffffffffffffffffffffffffffffffffffffffff168152602001908152602001600020600050600089815260200190815260200160002060005060008201518160000160006101000a8154817effffffffffffffffffffffffffffffffffffffffffffffffffffffffffffff02191690837effffffffffffffffffffffffffffffffffffffffffffffffffffffffffffff160217905550602082015181600001601f6101000a81548160ff0219169083151502179055509050506133e2847f00000000000000000000000000000000000000000000000000000000000000008361414663ffffffff16565b5050505b7f000000000000000000000000000000000000000000000000000000000000000073ffffffffffffffffffffffffffffffffffffffff1663d1660f9982856134df86600660005060008c73ffffffffffffffffffffffffffffffffffffffff1673ffffffffffffffffffffffffffffffffffffffff16815260200190815260200160002060005060008b815260200190815260200160002060005060000160009054906101000a90047effffffffffffffffffffffffffffffffffffffffffffffffffffffffffffff167effffffffffffffffffffffffffffffffffffffffffffffffffffffffffffff1661474e90919063ffffffff16565b6040518463ffffffff1660e01b81526004016134fd93929190615be7565b600060405180830381600087803b1580156135185760006000fd5b505af115801561352d573d600060003e3d6000fd5b50505050505b50505050565b613598600e60009054906101000a900473ffffffffffffffffffffffffffffffffffffffff1673ffffffffffffffffffffffffffffffffffffffff163373ffffffffffffffffffffffffffffffffffffffff1614613d0463ffffffff16565b600e60006101000a81549073ffffffffffffffffffffffffffffffffffffffff02191690556135cb6139c263ffffffff16565b6135d9613c9663ffffffff16565b600e60146101000a81548167ffffffffffffffff021916908367ffffffffffffffff1602179055507fe0c110dd4938fc8e228e75a489735745046395ad536dd80c35559debe653714760405160405180910390a15b565b600160009054906101000a900473ffffffffffffffffffffffffffffffffffffffff1681565b7f000000000000000000000000000000000000000000000000000000000000000081565b7f000000000000000000000000000000000000000000000000000000000000000081565b600260009054906101000a900473ffffffffffffffffffffffffffffffffffffffff1681565b6137013073ffffffffffffffffffffffffffffffffffffffff163373ffffffffffffffffffffffffffffffffffffffff1614613d0463ffffffff16565b61ffff61ffff16600a6000508054905010151561371e5760006000fd5b600a60005081908060018154018082558091505060019003906000526020600020900160005b9091909190916101000a81548173ffffffffffffffffffffffffffffffffffffffff021916908373ffffffffffffffffffffffffffffffffffffffff1602179055508073ffffffffffffffffffffffffffffffffffffffff167f784c8f4dbf0ffedd6e72c76501c545a70f8b203b30a26ce542bf92ba87c248a460405160405180910390a25b5b50565b600d60009054906101000a900473ffffffffffffffffffffffffffffffffffffffff1681565b600760009054906101000a900467ffffffffffffffff1681565b600061382083836140fc63ffffffff16565b9050613827565b92915050565b600060006000600360009054906101000a900473ffffffffffffffffffffffffffffffffffffffff1673ffffffffffffffffffffffffffffffffffffffff166383b0ce15856040518263ffffffff1660e01b815260040161388e9190614ef6565b606060405180830381865afa1580156138ac573d600060003e3d6000fd5b505050506040513d601f19601f820116820180604052508101906138d09190615c21565b9250925092508273ffffffffffffffffffffffffffffffffffffffff166315373e3d83836040518363ffffffff1660e01b8152600401613911929190615c64565b600060405180830381600087803b15801561392c5760006000fd5b505af1158015613941573d600060003e3d6000fd5b505050505050505b50565b600f60009054906101000a900467ffffffffffffffff1681565b600068010000000000000000821015156139b5576040517f08c379a00000000000000000000000000000000000000000000000000000000081526004016139ac90615c7f565b60405180910390fd5b8190506139bd565b919050565b60006139d2613c9663ffffffff16565b9050600760009054906101000a900467ffffffffffffffff1667ffffffffffffffff168167ffffffffffffffff16111515613a0d5750613c94565b6000600760009054906101000a900467ffffffffffffffff1682613a319190615cbe565b90506000600a600050805490509050600081613a6d8467ffffffffffffffff16613a5f61183b63ffffffff16565b6145af90919063ffffffff16565b613a7791906159e3565b9050613a81614ce2565b6000600090505b838161ffff161015613c2257613aa3816125c663ffffffff16565b915081506040518060400160405280613b16613b09613af68967ffffffffffffffff16600960005060008861ffff1661ffff168152602001908152602001600020600050546145af90919063ffffffff16565b866000015161426990919063ffffffff16565b614774909063ffffffff16565b6fffffffffffffffffffffffffffffffff168152602001613b54613b4786866020015161426990919063ffffffff16565b614774909063ffffffff16565b6fffffffffffffffffffffffffffffffff16815260200150600860005060008361ffff1661ffff16815260200190815260200160002060005060008201518160000160006101000a8154816fffffffffffffffffffffffffffffffff02191690836fffffffffffffffffffffffffffffffff16021790555060208201518160000160106101000a8154816fffffffffffffffffffffffffffffffff02191690836fffffffffffffffffffffffffffffffff1602179055509050505b8080613c1a90615cf0565b915050613a88565b5084600760006101000a81548167ffffffffffffffff021916908367ffffffffffffffff1602179055508467ffffffffffffffff167f5df8d820031efa286b254435a169e0eda922fa20c466be6471c6deaa51dc116585604051613c869190614d03565b60405180910390a250505050505b565b60007f00000000000000000000000000000000000000000000000000000000000000007f0000000000000000000000000000000000000000000000000000000000000000613ce86147d863ffffffff16565b613cf29190615d17565b613cfc9190615cbe565b905080505b90565b801515613d46576040517f08c379a0000000000000000000000000000000000000000000000000000000008152600401613d3d90615d45565b60405180910390fd5b5b50565b6001600c6000506000837bffffffffffffffffffffffffffffffffffffffffffffffffffffffff19167bffffffffffffffffffffffffffffffffffffffffffffffffffffffff1916815260200190815260200160002060006101000a81548160ff0219169083151502179055505b50565b600060008273ffffffffffffffffffffffffffffffffffffffff163b119050613ddf565b919050565b60006201000082101515613e2d576040517f08c379a0000000000000000000000000000000000000000000000000000000008152600401613e2490615d84565b60405180910390fd5b819050613e35565b919050565b613e42614c80565b613e518261155f63ffffffff16565b90508050613e636139c263ffffffff16565b600760009054906101000a900467ffffffffffffffff1667ffffffffffffffff16816060015167ffffffffffffffff16101515613ea2578090506140f7565b6000613eb78260c001516125c663ffffffff16565b905060008260600151600760009054906101000a900467ffffffffffffffff16613ee19190615cbe565b67ffffffffffffffff16613f068460400151846000015161412b90919063ffffffff16565b613f1091906159e3565b90506000613f5a613f328560200151856020015161412b90919063ffffffff16565b83613f4b87600001518860a001516140fc63ffffffff16565b6147f39092919063ffffffff16565b9050600081111561409357600460009054906101000a900473ffffffffffffffffffffffffffffffffffffffff1673ffffffffffffffffffffffffffffffffffffffff1663449a52f8600560009054906101000a900473ffffffffffffffffffffffffffffffffffffffff1673ffffffffffffffffffffffffffffffffffffffff16636352211e886040518263ffffffff1660e01b8152600401613ffe91906157ae565b602060405180830381865afa15801561401c573d600060003e3d6000fd5b505050506040513d601f19601f8201168201806040525081019061404091906157ca565b836040518363ffffffff1660e01b815260040161405e9291906155e5565b600060405180830381600087803b1580156140795760006000fd5b505af115801561408e573d600060003e3d6000fd5b505050505b82602001518460200190908181526020015050826000015184604001909081815260200150506140c7613c9663ffffffff16565b846060019067ffffffffffffffff16908167ffffffffffffffff16815260200150508393505050506140f7565050505b919050565b600061411e8267ffffffffffffffff16600c856147f39092919063ffffffff16565b9050614125565b92915050565b600081836141399190615832565b9050614140565b92915050565b6141cd8363a9059cbb60e01b84846040516024016141659291906155e5565b604051602081830303815290604052907bffffffffffffffffffffffffffffffffffffffffffffffffffffffff19166020820180517bffffffffffffffffffffffffffffffffffffffffffffffffffffffff838183161783525050505061491763ffffffff16565b5b505050565b8060ff16600667ffffffffffffffff16111580156141ff5750603067ffffffffffffffff168160ff1611155b80156142245750600060038260ff166142189190615dc3565b67ffffffffffffffff16145b1515614265576040517f08c379a000000000000000000000000000000000000000000000000000000000815260040161425c90615df1565b60405180910390fd5b5b50565b600081836142779190615e30565b905061427e565b92915050565b6000600c6142a761016d8467ffffffffffffffff166149e490919063ffffffff16565b6142b19190615d17565b90506142b8565b919050565b600081836142cb9190615a7f565b90506142d2565b92915050565b6040518060e001604052806142f88360000151614774909063ffffffff16565b6fffffffffffffffffffffffffffffffff1681526020016143248360200151614774909063ffffffff16565b6fffffffffffffffffffffffffffffffff16815260200161435083604001516149ff909063ffffffff16565b76ffffffffffffffffffffffffffffffffffffffffffffff16815260200161438d836060015167ffffffffffffffff16613de4909063ffffffff16565b61ffff1681526020016143b5836080015167ffffffffffffffff16613de4909063ffffffff16565b61ffff1681526020018260c0015161ffff1681526020016143eb8360a0015167ffffffffffffffff16614a6a909063ffffffff16565b60ff16815260200150600b60005060008467ffffffffffffffff1667ffffffffffffffff16815260200190815260200160002060005060008201518160000160006101000a8154816fffffffffffffffffffffffffffffffff02191690836fffffffffffffffffffffffffffffffff16021790555060208201518160000160106101000a8154816fffffffffffffffffffffffffffffffff02191690836fffffffffffffffffffffffffffffffff16021790555060408201518160010160006101000a81548176ffffffffffffffffffffffffffffffffffffffffffffff021916908376ffffffffffffffffffffffffffffffffffffffffffffff16021790555060608201518160010160176101000a81548161ffff021916908361ffff16021790555060808201518160010160196101000a81548161ffff021916908361ffff16021790555060a082015181600101601b6101000a81548161ffff021916908361ffff16021790555060c082015181600101601d6101000a81548160ff021916908360ff1602179055509050505b5050565b60008180519060200120905061458f565b919050565b600081836145a29190615cbe565b90506145a9565b92915050565b600081836145bd9190615e50565b90506145c4565b92915050565b600061464561460c837f000000000000000000000000000000000000000000000000000000000000000067ffffffffffffffff166142bd90919063ffffffff16565b7f000000000000000000000000000000000000000000000000000000000000000067ffffffffffffffff166149e490919063ffffffff16565b905080505b919050565b6146d8846323b872dd60e01b85858560405160240161467093929190615e95565b604051602081830303815290604052907bffffffffffffffffffffffffffffffffffffffffffffffffffffffff19166020820180517bffffffffffffffffffffffffffffffffffffffffffffffffffffffff838183161783525050505061491763ffffffff16565b5b50505050565b60007b0100000000000000000000000000000000000000000000000000000082101515614741576040517f08c379a000000000000000000000000000000000000000000000000000000000815260040161473890615ecf565b60405180910390fd5b819050614749565b919050565b60006147698383670de0b6b3a76400006147f363ffffffff16565b905080505b92915050565b6000700100000000000000000000000000000000821015156147cb576040517f08c379a00000000000000000000000000000000000000000000000000000000081526004016147c290615f0e565b60405180910390fd5b8190506147d3565b919050565b60006147eb42613966909063ffffffff16565b905080505b90565b6000600060006000198587098587029250828110838203039150506000811415614836576000841115156148275760006000fd5b83820492508292505050614910565b80841115156148455760006000fd5b60008486880990508281118203915080830392506000856001877fffffffffffffffffffffffffffffffffffffffffffffffffffffffffffffffff03011690508050808604955080840493506001818260000304019050808302841793508350600060028760030218905080870260020381029050805080870260020381029050805080870260020381029050805080870260020381029050805080870260020381029050805080870260020381029050805080850295508550508494505050505061491056505050505b9392505050565b600061497c826040518060400160405280602081526020017f5361666545524332303a206c6f772d6c6576656c2063616c6c206661696c65648152602001508573ffffffffffffffffffffffffffffffffffffffff16614abf9092919063ffffffff16565b90506000815111156149de578080602001905181019061499c919061574a565b15156149dd576040517f08c379a00000000000000000000000000000000000000000000000000000000081526004016149d490615f4d565b60405180910390fd5b5b505b5050565b600081836149f29190615fb2565b90506149f9565b92915050565b60007701000000000000000000000000000000000000000000000082101515614a5d576040517f08c379a0000000000000000000000000000000000000000000000000000000008152600401614a5490615fe9565b60405180910390fd5b819050614a65565b919050565b600061010082101515614ab2576040517f08c379a0000000000000000000000000000000000000000000000000000000008152600401614aa990616028565b60405180910390fd5b819050614aba565b919050565b6060614ad48484600085614ae263ffffffff16565b9050614adb565b9392505050565b6060824710151515614b29576040517f08c379a0000000000000000000000000000000000000000000000000000000008152600401614b2090616067565b60405180910390fd5b614b3885613dbb63ffffffff16565b1515614b79576040517f08c379a0000000000000000000000000000000000000000000000000000000008152600401614b70906160cc565b60405180910390fd5b600060008673ffffffffffffffffffffffffffffffffffffffff168587604051614ba39190615959565b60006040518083038185875af1925050503d8060008114614be0576040519150601f19603f3d011682016040523d82523d6000602084013e614be5565b606091505b5091509150614bfb828286614c0e63ffffffff16565b92505050614c065650505b949350505050565b60608315614c2257829050614c7956614c78565b600083511115614c3a5782518084602001fd50614c77565b816040517f08c379a0000000000000000000000000000000000000000000000000000000008152600401614c6e9190615978565b60405180910390fd5b5b5b9392505050565b6040518060e00160405280600081526020016000815260200160008152602001600067ffffffffffffffff168152602001600067ffffffffffffffff168152602001600067ffffffffffffffff168152602001600061ffff1681526020015090565b6040518060400160405280600081526020016000815260200150905661610b565b600060208201905067ffffffffffffffff831682525b92915050565b73ffffffffffffffffffffffffffffffffffffffff811681141515614d445760006000fd5b505b565b600060006000600060808587031215614d615760006000fd5b8435614d6c81614d1f565b809450506020850135614d7e81614d1f565b809350506040850135614d9081614d1f565b809250506060850135614da281614d1f565b809150505b92959194509250565b600060208284031215614dc35760006000fd5b8135614dce81614d1f565b809150505b92915050565b6000600060408385031215614dee5760006000fd5b8235614df981614d1f565b80925050602083013590505b9250929050565b600060208284031215614e1f5760006000fd5b8135614e2a81614d1f565b809150505b92915050565b600060208201905061ffff831682525b92915050565b67ffffffffffffffff811681141515614e645760006000fd5b505b565b600060208284031215614e7b5760006000fd5b8135614e8681614e4b565b809150505b92915050565b600060e082019050825182526020830151602083015260408301516040830152606083015167ffffffffffffffff80821660608501528060808601511660808501528060a08601511660a0850152505061ffff60c08401511660c08301525b92915050565b60006020820190508282525b92915050565b60008135905060ff811681141515614f205760006000fd5b5b919050565b6000600060408385031215614f3b5760006000fd5b8235614f4681614e4b565b80925050614f5660208401614f08565b90505b9250929050565b600060208201905082151582525b92915050565b7f4e487b7100000000000000000000000000000000000000000000000000000000600052604160045260246000fd5b565b600067ffffffffffffffff80841115614fc157614fc0614f74565b5b7fffffffffffffffffffffffffffffffffffffffffffffffffffffffffffffffe060405181603f83601f890116011681019150808210838311171561500957615008614f74565b5b816040528093508581528686860111156150235760006000fd5b858560208301376000602087830101525050505b9392505050565b600060006000606084860312156150555760006000fd5b833561506081614d1f565b80935050602084013567ffffffffffffffff808211156150805760006000fd5b818601915086601f83011215156150975760006000fd5b6150a687833560208501614fa5565b935060408601359150808211156150bd5760006000fd5b50808501905085601f82011215156150d55760006000fd5b6150e486823560208401614fa5565b9150505b9250925092565b60005b8381101561510e5780820151818401525b6020810190506150f2565b8381111561511d576000848401525b505050505b565b6000815180845261513c8160208601602086016150ef565b60207fffffffffffffffffffffffffffffffffffffffffffffffffffffffffffffffe0601f8301168501019150505b92915050565b821515815260406020820152600061518c6040830184615124565b90505b9392505050565b6000602082840312156151a95760006000fd5b81357fffffffff000000000000000000000000000000000000000000000000000000008116811415156151dc5760006000fd5b809150505b92915050565b600060208201905073ffffffffffffffffffffffffffffffffffffffff831682525b92915050565b60006000602083850312156152245760006000fd5b823567ffffffffffffffff8082111561523d5760006000fd5b818501915085601f83011215156152545760006000fd5b8135818111156152645760006000fd5b8660208260051b850101111561527a5760006000fd5b6020830194508093505050505b9250929050565b6000602082840312156152a15760006000fd5b813590505b92915050565b600060208201905073ffffffffffffffffffffffffffffffffffffffff831682525b92915050565b60008135905061ffff8116811415156152ed5760006000fd5b5b919050565b6000602082840312156153065760006000fd5b61530f826152d4565b90505b92915050565b600060408201905082518252602083015160208301525b92915050565b60006020808301818452808551808352604086019150838701925060005b8181101561538b5773ffffffffffffffffffffffffffffffffffffffff8451168352848301925084840193505b600181019050615353565b50508093505050505b92915050565b60006040820190507effffffffffffffffffffffffffffffffffffffffffffffffffffffffffffff8416825282151560208301525b9392505050565b600060208201905073ffffffffffffffffffffffffffffffffffffffff831682525b92915050565b600060208201905073ffffffffffffffffffffffffffffffffffffffff831682525b92915050565b60006000600060006080858703121561543f5760006000fd5b615448856152d4565b93506020850135925061545d60408601614f08565b9150606085013561546d81614d1f565b809150505b92959194509250565b600060208201905073ffffffffffffffffffffffffffffffffffffffff831682525b92915050565b6000600060006000608085870312156154bc5760006000fd5b84356154c781614d1f565b809450506020850135925060408501356154e081614d1f565b80925050606085013590505b92959194509250565b600060006040838503121561550a5760006000fd5b82359150602083013561551c81614e4b565b809150505b9250929050565b60208152601f60208201527f5265656e7472616e637947756172643a207265656e7472616e742063616c6c00604082015260006060820190505b919050565b60208152601460208201527f436f6e747261637420616c726561647920736574000000000000000000000000604082015260006060820190505b919050565b60208152600e60208201527f4e6f74206120636f6e7472616374000000000000000000000000000000000000604082015260006060820190505b919050565b600060408201905073ffffffffffffffffffffffffffffffffffffffff841682528260208301525b9392505050565b7f4e487b7100000000000000000000000000000000000000000000000000000000600052603260045260246000fd5b565b7f4e487b7100000000000000000000000000000000000000000000000000000000600052601160045260246000fd5b565b60007fffffffffffffffffffffffffffffffffffffffffffffffffffffffffffffffff8214156156a9576156a8615645565b5b6001820190505b919050565b60208152601560208201527f5444616f3a20546f6b656e206e6f7420666f756e640000000000000000000000604082015260006060820190505b919050565b600060408201905073ffffffffffffffffffffffffffffffffffffffff8416825267ffffffffffffffff831660208301525b9392505050565b600081519050801515811415156157445760006000fd5b5b919050565b60006020828403121561575d5760006000fd5b6157668261572d565b90505b92915050565b60208152600c60208201527f5374696c6c206c6f636b65640000000000000000000000000000000000000000604082015260006060820190505b919050565b600060208201905067ffffffffffffffff831682525b92915050565b6000602082840312156157dd5760006000fd5b81516157e881614d1f565b809150505b92915050565b60208152600c60208201527f506f736974696f6e20444e450000000000000000000000000000000000000000604082015260006060820190505b919050565b60008282101561584557615844615645565b5b82820390505b92915050565b60208152601b60208201527f4d75737420696e637265617365206c6f636b206475726174696f6e0000000000604082015260006060820190505b919050565b60208152601060208201527f496e76616c696420706f736974696f6e00000000000000000000000000000000604082015260006060820190505b919050565b60208152601260208201527f416374696f6e20626c61636b6c69737465640000000000000000000000000000604082015260006060820190505b919050565b7fffffffff0000000000000000000000000000000000000000000000000000000083168152600082516159488160048501602087016150ef565b6004818401019150505b9392505050565b6000825161596b8184602087016150ef565b8083019150505b92915050565b60208152600061598b6020830184615124565b90505b92915050565b6000602082840312156159a75760006000fd5b815190505b92915050565b7f4e487b7100000000000000000000000000000000000000000000000000000000600052601260045260246000fd5b565b60008215156159f5576159f46159b2565b5b82820490505b92915050565b60208152601660208201527f4d6f7265207468616e203225206f6620737570706c7900000000000000000000604082015260006060820190505b919050565b60208152601160208201527f556e737570706f7274656420746f6b656e000000000000000000000000000000604082015260006060820190505b919050565b600067ffffffffffffffff808316818516808303821115615aa357615aa2615645565b5b80820193505050505b92915050565b60208152601260208201527f416c6c6f746d656e742065786365656465640000000000000000000000000000604082015260006060820190505b919050565b60208152601060208201527f496e76616c696420746f6b656e20494400000000000000000000000000000000604082015260006060820190505b919050565b60208152600460208201527f4e6f6f7000000000000000000000000000000000000000000000000000000000604082015260006060820190505b919050565b600060208284031215615b825760006000fd5b8151615b8d81614e4b565b809150505b92915050565b60006020808301818452808551808352604086019150838701925060005b81811015615bd85783518352848301925084840193505b600181019050615bb6565b50508093505050505b92915050565b600060608201905073ffffffffffffffffffffffffffffffffffffffff80861683528085166020840152508260408301525b949350505050565b60006000600060608486031215615c385760006000fd5b8351615c4381614d1f565b8093505060208401519150615c5a6040850161572d565b90505b9250925092565b600060408201905083825282151560208301525b9392505050565b60208152601160208201527f6d6f7265207468616e2036342062697473000000000000000000000000000000604082015260006060820190505b919050565b600067ffffffffffffffff808316818516915081811015615ce257615ce1615645565b5b818103925050505b92915050565b600061ffff80831681811415615d0957615d08615645565b5b60018101925050505b919050565b600067ffffffffffffffff808416801515615d3557615d346159b2565b5b8082851604925050505b92915050565b60208152600e60208201527f4e6f7420417574686f72697a6564000000000000000000000000000000000000604082015260006060820190505b919050565b60208152601160208201527f6d6f7265207468616e2031362062697473000000000000000000000000000000604082015260006060820190505b919050565b600067ffffffffffffffff808416801515615de157615de06159b2565b5b8082851606925050505b92915050565b60208152601560208201527f496e76616c6964206c6f636b206475726174696f6e0000000000000000000000604082015260006060820190505b919050565b60008219821115615e4457615e43615645565b5b82820190505b92915050565b6000817fffffffffffffffffffffffffffffffffffffffffffffffffffffffffffffffff0483118215151615615e8957615e88615645565b5b82820290505b92915050565b600060608201905073ffffffffffffffffffffffffffffffffffffffff80861683528085166020840152508260408301525b949350505050565b60208152601260208201527f6d6f7265207468616e2032313620626974730000000000000000000000000000604082015260006060820190505b919050565b60208152601260208201527f6d6f7265207468616e2031323820626974730000000000000000000000000000604082015260006060820190505b919050565b60208152602a60208201527f5361666545524332303a204552433230206f7065726174696f6e20646964206e60408201527f6f74207375636365656400000000000000000000000000000000000000000000606082015260006080820190505b919050565b600067ffffffffffffffff80831681851681830481118215151615615fda57615fd9615645565b5b80820293505050505b92915050565b60208152601260208201527f6d6f7265207468616e2031383420626974730000000000000000000000000000604082015260006060820190505b919050565b60208152601060208201527f6d6f7265207468616e2038206269747300000000000000000000000000000000604082015260006060820190505b919050565b60208152602660208201527f416464726573733a20696e73756666696369656e742062616c616e636520666f60408201527f722063616c6c0000000000000000000000000000000000000000000000000000606082015260006080820190505b919050565b60208152601d60208201527f416464726573733a2063616c6c20746f206e6f6e2d636f6e7472616374000000604082015260006060820190505b919050565bfea26469706673582212200446bca8cdeb109c79519fe40cc036052a98434e52d057c5d43638f626229bb764736f6c634300080c003360a06040523480156100115760006000fd5b505b3373ffffffffffffffffffffffffffffffffffffffff1660808173ffffffffffffffffffffffffffffffffffffffff16815260200150505b610050565b6080516107bb61007160003960008181607d015261013201526107bb6000f3fe60806040523480156100115760006000fd5b506004361061003b5760003560e01c8063d1660f9914610041578063de9375f21461005d5761003b565b60006000fd5b61005b600480360381019061005691906104c5565b61007b565b005b610065610130565b604051610072919061050c565b60405180910390f35b7f000000000000000000000000000000000000000000000000000000000000000073ffffffffffffffffffffffffffffffffffffffff163373ffffffffffffffffffffffffffffffffffffffff1614151561010b576040517f08c379a000000000000000000000000000000000000000000000000000000000815260040161010290610534565b60405180910390fd5b60008114156101195761012b565b61012a83838361015463ffffffff16565b5b505050565b7f000000000000000000000000000000000000000000000000000000000000000081565b6101db8363a9059cbb60e01b8484604051602401610173929190610573565b604051602081830303815290604052907bffffffffffffffffffffffffffffffffffffffffffffffffffffffff19166020820180517bffffffffffffffffffffffffffffffffffffffffffffffffffffffff83818316178352505050506101e163ffffffff16565b5b505050565b6000610246826040518060400160405280602081526020017f5361666545524332303a206c6f772d6c6576656c2063616c6c206661696c65648152602001508573ffffffffffffffffffffffffffffffffffffffff166102ae9092919063ffffffff16565b90506000815111156102a8578080602001905181019061026691906105a2565b15156102a7576040517f08c379a000000000000000000000000000000000000000000000000000000000815260040161029e906105d3565b60405180910390fd5b5b505b5050565b60606102c384846000856102d163ffffffff16565b90506102ca565b9392505050565b6060824710151515610318576040517f08c379a000000000000000000000000000000000000000000000000000000000815260040161030f90610638565b60405180910390fd5b610327856103fd63ffffffff16565b1515610368576040517f08c379a000000000000000000000000000000000000000000000000000000000815260040161035f9061069d565b60405180910390fd5b600060008673ffffffffffffffffffffffffffffffffffffffff1685876040516103929190610711565b60006040518083038185875af1925050503d80600081146103cf576040519150601f19603f3d011682016040523d82523d6000602084013e6103d4565b606091505b50915091506103ea82828661042663ffffffff16565b925050506103f55650505b949350505050565b600060008273ffffffffffffffffffffffffffffffffffffffff163b119050610421565b919050565b6060831561043a5782905061049156610490565b6000835111156104525782518084602001fd5061048f565b816040517f08c379a00000000000000000000000000000000000000000000000000000000081526004016104869190610730565b60405180910390fd5b5b5b939250505056610784565b73ffffffffffffffffffffffffffffffffffffffff8116811415156104c15760006000fd5b505b565b600060006000606084860312156104dc5760006000fd5b83356104e78161049c565b8093505060208401356104f98161049c565b80925050604084013590505b9250925092565b600060208201905073ffffffffffffffffffffffffffffffffffffffff831682525b92915050565b60208152600e60208201527f4e6f7420417574686f72697a6564000000000000000000000000000000000000604082015260006060820190505b919050565b600060408201905073ffffffffffffffffffffffffffffffffffffffff841682528260208301525b9392505050565b6000602082840312156105b55760006000fd5b8151801515811415156105c85760006000fd5b809150505b92915050565b60208152602a60208201527f5361666545524332303a204552433230206f7065726174696f6e20646964206e60408201527f6f74207375636365656400000000000000000000000000000000000000000000606082015260006080820190505b919050565b60208152602660208201527f416464726573733a20696e73756666696369656e742062616c616e636520666f60408201527f722063616c6c0000000000000000000000000000000000000000000000000000606082015260006080820190505b919050565b60208152601d60208201527f416464726573733a2063616c6c20746f206e6f6e2d636f6e7472616374000000604082015260006060820190505b919050565b60005b838110156106fb5780820151818401525b6020810190506106df565b8381111561070a576000848401525b505050505b565b600082516107238184602087016106dc565b8083019150505b92915050565b602081526000825180602084015261074f8160408501602087016106dc565b60407fffffffffffffffffffffffffffffffffffffffffffffffffffffffffffffffe0601f8301168401019150505b92915050565bfea2646970667358221220b3f55949f5afbca746228654ecdc5408be86400cf5a330f382255a3803b2282564736f6c634300080c0033",
  "linkReferences": {},
  "deployedLinkReferences": {}
}