{
  "_format": "hh-sol-artifact-1",
  "contractName": "TDao",
  "sourceName": "contracts/core/TDao/TDao.sol",
  "abi": [
    {
      "inputs": [
        {
          "internalType": "address",
          "name": "_guardian",
          "type": "address"
        }
      ],
      "stateMutability": "nonpayable",
      "type": "constructor"
    },
    {
      "anonymous": false,
      "inputs": [
        {
          "indexed": true,
          "internalType": "address",
          "name": "token",
          "type": "address"
        },
        {
          "indexed": false,
          "internalType": "uint256",
          "name": "count",
          "type": "uint256"
        }
      ],
      "name": "IncentiveMinted",
      "type": "event"
    },
    {
      "anonymous": false,
      "inputs": [
        {
          "indexed": true,
          "internalType": "uint64",
          "name": "currentPeriod",
          "type": "uint64"
        },
        {
          "indexed": false,
          "internalType": "uint64",
          "name": "periods",
          "type": "uint64"
        }
      ],
      "name": "InflationAccrued",
      "type": "event"
    },
    {
      "anonymous": false,
      "inputs": [
        {
          "indexed": true,
          "internalType": "address",
          "name": "_contract",
          "type": "address"
        }
      ],
      "name": "LiquidationIncentiveContractSet",
      "type": "event"
    },
    {
      "anonymous": false,
      "inputs": [
        {
          "indexed": true,
          "internalType": "uint64",
          "name": "positionNFTTokenID",
          "type": "uint64"
        },
        {
          "indexed": true,
          "internalType": "uint16",
          "name": "lockDurationMonths",
          "type": "uint16"
        }
      ],
      "name": "LockDurationIncrease",
      "type": "event"
    },
    {
      "anonymous": false,
      "inputs": [
        {
          "indexed": true,
          "internalType": "uint64",
          "name": "positionNFTTokenID",
          "type": "uint64"
        },
        {
          "indexed": true,
          "internalType": "address",
          "name": "owner",
          "type": "address"
        }
      ],
      "name": "RewardsClaimed",
      "type": "event"
    },
    {
      "anonymous": false,
      "inputs": [],
      "name": "TDaoStarted",
      "type": "event"
    },
    {
      "anonymous": false,
      "inputs": [
        {
          "indexed": true,
          "internalType": "address",
          "name": "token",
          "type": "address"
        }
      ],
      "name": "TokenAdded",
      "type": "event"
    },
    {
      "anonymous": false,
      "inputs": [
        {
          "indexed": true,
          "internalType": "uint16",
          "name": "tokenID",
          "type": "uint16"
        },
        {
          "indexed": true,
          "internalType": "address",
          "name": "initialOwner",
          "type": "address"
        },
        {
          "indexed": true,
          "internalType": "uint8",
          "name": "lockDurationMonths",
          "type": "uint8"
        },
        {
          "indexed": false,
          "internalType": "uint256",
          "name": "count",
          "type": "uint256"
        }
      ],
      "name": "TokensLocked",
      "type": "event"
    },
    {
      "anonymous": false,
      "inputs": [
        {
          "indexed": true,
          "internalType": "uint16",
          "name": "tokenID",
          "type": "uint16"
        },
        {
          "indexed": true,
          "internalType": "address",
          "name": "owner",
          "type": "address"
        },
        {
          "indexed": false,
          "internalType": "uint256",
          "name": "count",
          "type": "uint256"
        }
      ],
      "name": "TokensUnlocked",
      "type": "event"
    },
    {
      "inputs": [],
      "name": "accrueInflation",
      "outputs": [],
      "stateMutability": "nonpayable",
      "type": "function"
    },
    {
      "inputs": [
        {
          "internalType": "contract IERC20",
          "name": "token",
          "type": "address"
        }
      ],
      "name": "addToken",
      "outputs": [],
      "stateMutability": "nonpayable",
      "type": "function"
    },
    {
      "inputs": [
        {
          "internalType": "bytes4",
          "name": "",
          "type": "bytes4"
        }
      ],
      "name": "blacklistedAction",
      "outputs": [
        {
          "internalType": "bool",
          "name": "",
          "type": "bool"
        }
      ],
      "stateMutability": "view",
      "type": "function"
    },
    {
      "inputs": [],
      "name": "countUnderlyingProtocolTokens",
      "outputs": [
        {
          "internalType": "uint16",
          "name": "",
          "type": "uint16"
        }
      ],
      "stateMutability": "view",
      "type": "function"
    },
    {
      "inputs": [],
      "name": "currentPeriod",
      "outputs": [
        {
          "internalType": "uint64",
          "name": "period",
          "type": "uint64"
        }
      ],
      "stateMutability": "view",
      "type": "function"
    },
    {
      "inputs": [],
      "name": "dailyProtocolTDaoIncentiveCount",
      "outputs": [
        {
          "internalType": "uint256",
          "name": "",
          "type": "uint256"
        }
      ],
      "stateMutability": "view",
      "type": "function"
    },
    {
      "inputs": [],
      "name": "deployer",
      "outputs": [
        {
          "internalType": "address",
          "name": "",
          "type": "address"
        }
      ],
      "stateMutability": "view",
      "type": "function"
    },
    {
      "inputs": [
        {
          "internalType": "address",
          "name": "target",
          "type": "address"
        },
        {
          "internalType": "string",
          "name": "signature",
          "type": "string"
        },
        {
          "internalType": "bytes",
          "name": "data",
          "type": "bytes"
        }
      ],
      "name": "execute",
      "outputs": [
        {
          "internalType": "bool",
          "name": "success",
          "type": "bool"
        },
        {
          "internalType": "bytes",
          "name": "returnData",
          "type": "bytes"
        }
      ],
      "stateMutability": "nonpayable",
      "type": "function"
    },
    {
      "inputs": [
        {
          "internalType": "uint256",
          "name": "metaProposalID",
          "type": "uint256"
        }
      ],
      "name": "executeMetaProposalVote",
      "outputs": [],
      "stateMutability": "nonpayable",
      "type": "function"
    },
    {
      "inputs": [],
      "name": "firstPeriod",
      "outputs": [
        {
          "internalType": "uint64",
          "name": "",
          "type": "uint64"
        }
      ],
      "stateMutability": "view",
      "type": "function"
    },
    {
      "inputs": [
        {
          "internalType": "uint64",
          "name": "positionNFTTokenID",
          "type": "uint64"
        }
      ],
      "name": "getPosition",
      "outputs": [
        {
          "components": [
            {
              "internalType": "uint256",
              "name": "count",
              "type": "uint256"
            },
            {
              "internalType": "uint256",
              "name": "startTotalRewards",
              "type": "uint256"
            },
            {
              "internalType": "uint256",
              "name": "startCumulativeVirtualCount",
              "type": "uint256"
            },
            {
              "internalType": "uint64",
              "name": "lastPeriodUpdated",
              "type": "uint64"
            },
            {
              "internalType": "uint64",
              "name": "endPeriod",
              "type": "uint64"
            },
            {
              "internalType": "uint64",
              "name": "durationMonths",
              "type": "uint64"
            },
            {
              "internalType": "uint16",
              "name": "tokenID",
              "type": "uint16"
            }
          ],
          "internalType": "struct ITDao.TokenPosition",
          "name": "",
          "type": "tuple"
        }
      ],
      "stateMutability": "view",
      "type": "function"
    },
    {
      "inputs": [
        {
          "internalType": "uint64",
          "name": "positionNFTTokenID",
          "type": "uint64"
        }
      ],
      "name": "getRewards",
      "outputs": [],
      "stateMutability": "nonpayable",
      "type": "function"
    },
    {
      "inputs": [
        {
          "internalType": "uint16",
          "name": "_tokenID",
          "type": "uint16"
        }
      ],
      "name": "getRewardsStatus",
      "outputs": [
        {
          "components": [
            {
              "internalType": "uint256",
              "name": "cumulativeVirtualCount",
              "type": "uint256"
            },
            {
              "internalType": "uint256",
              "name": "totalRewards",
              "type": "uint256"
            }
          ],
          "internalType": "struct ITDao.TokenRewardsStatus",
          "name": "",
          "type": "tuple"
        }
      ],
      "stateMutability": "view",
      "type": "function"
    },
    {
      "inputs": [],
      "name": "guardian",
      "outputs": [
        {
          "internalType": "address",
          "name": "",
          "type": "address"
        }
      ],
      "stateMutability": "view",
      "type": "function"
    },
    {
      "inputs": [
        {
          "internalType": "uint16",
          "name": "",
          "type": "uint16"
        }
      ],
      "name": "idToToken",
      "outputs": [
        {
          "internalType": "contract IERC20",
          "name": "",
          "type": "address"
        }
      ],
      "stateMutability": "view",
      "type": "function"
    },
    {
      "inputs": [],
      "name": "incentiveContract",
      "outputs": [
        {
          "internalType": "address",
          "name": "",
          "type": "address"
        }
      ],
      "stateMutability": "view",
      "type": "function"
    },
    {
      "inputs": [
        {
          "internalType": "address",
          "name": "dest",
          "type": "address"
        },
        {
          "internalType": "uint256",
          "name": "count",
          "type": "uint256"
        }
      ],
      "name": "incentiveContractMint",
      "outputs": [],
      "stateMutability": "nonpayable",
      "type": "function"
    },
    {
      "inputs": [],
      "name": "incentivesStartPeriod",
      "outputs": [
        {
          "internalType": "uint64",
          "name": "",
          "type": "uint64"
        }
      ],
      "stateMutability": "view",
      "type": "function"
    },
    {
      "inputs": [
        {
          "internalType": "uint64",
          "name": "positionNFTTokenID",
          "type": "uint64"
        },
        {
          "internalType": "uint8",
          "name": "lockDurationMonths",
          "type": "uint8"
        }
      ],
      "name": "increaseLockDuration",
      "outputs": [],
      "stateMutability": "nonpayable",
      "type": "function"
    },
    {
      "inputs": [
        {
          "internalType": "contract IPositionNFT",
          "name": "_tDaoPositionNFT",
          "type": "address"
        },
        {
          "internalType": "contract IProtocolToken",
          "name": "_tDaoToken",
          "type": "address"
        },
        {
          "internalType": "address",
          "name": "_tDaoGovernorAlpha",
          "type": "address"
        },
        {
          "internalType": "address",
          "name": "_timelock",
          "type": "address"
        }
      ],
      "name": "init",
      "outputs": [],
      "stateMutability": "nonpayable",
      "type": "function"
    },
    {
      "inputs": [],
      "name": "lastPeriodGlobalInflationUpdated",
      "outputs": [
        {
          "internalType": "uint64",
          "name": "",
          "type": "uint64"
        }
      ],
      "stateMutability": "view",
      "type": "function"
    },
    {
      "inputs": [
        {
          "internalType": "contract IERC20",
          "name": "token",
          "type": "address"
        },
        {
          "internalType": "uint256",
          "name": "count",
          "type": "uint256"
        },
        {
          "internalType": "uint8",
          "name": "lockDurationMonths",
          "type": "uint8"
        },
        {
          "internalType": "address",
          "name": "to",
          "type": "address"
        }
      ],
      "name": "lockTokens",
      "outputs": [
        {
          "internalType": "uint64",
          "name": "positionNFTTokenID",
          "type": "uint64"
        }
      ],
      "stateMutability": "nonpayable",
      "type": "function"
    },
    {
      "inputs": [
        {
          "internalType": "address",
          "name": "dest",
          "type": "address"
        },
        {
          "internalType": "uint256",
          "name": "count",
          "type": "uint256"
        }
      ],
      "name": "mintIncentive",
      "outputs": [],
      "stateMutability": "nonpayable",
      "type": "function"
    },
    {
      "inputs": [
        {
          "internalType": "address",
          "name": "dest",
          "type": "address"
        },
        {
          "internalType": "uint256",
          "name": "count",
          "type": "uint256"
        }
      ],
      "name": "mintVotingRewards",
      "outputs": [],
      "stateMutability": "nonpayable",
      "type": "function"
    },
    {
      "inputs": [],
      "name": "periodLength",
      "outputs": [
        {
          "internalType": "uint64",
          "name": "",
          "type": "uint64"
        }
      ],
      "stateMutability": "view",
      "type": "function"
    },
    {
      "inputs": [
        {
          "internalType": "uint64",
          "name": "period",
          "type": "uint64"
        }
      ],
      "name": "periodToTime",
      "outputs": [
        {
          "internalType": "uint64",
          "name": "",
          "type": "uint64"
        }
      ],
      "stateMutability": "view",
      "type": "function"
    },
    {
      "inputs": [
        {
          "internalType": "uint64",
          "name": "positionNFTTokenID",
          "type": "uint64"
        }
      ],
      "name": "positionIsAbleToBeUnlocked",
      "outputs": [
        {
          "internalType": "bool",
          "name": "",
          "type": "bool"
        }
      ],
      "stateMutability": "view",
      "type": "function"
    },
    {
      "inputs": [
        {
          "internalType": "contract IERC20",
          "name": "token",
          "type": "address"
        }
      ],
      "name": "selfDelegate",
      "outputs": [],
      "stateMutability": "nonpayable",
      "type": "function"
    },
    {
      "inputs": [
        {
          "internalType": "address",
          "name": "governorAlpha",
          "type": "address"
        },
        {
          "internalType": "uint256",
          "name": "proposalID",
          "type": "uint256"
        },
        {
          "internalType": "address",
          "name": "voter",
          "type": "address"
        },
        {
          "internalType": "uint256",
          "name": "votePortion",
          "type": "uint256"
        }
      ],
      "name": "sendUnderlyingVotingRewards",
      "outputs": [],
      "stateMutability": "nonpayable",
      "type": "function"
    },
    {
      "inputs": [
        {
          "internalType": "contract IERC20",
          "name": "firstToken",
          "type": "address"
        }
      ],
      "name": "setFirstToken",
      "outputs": [],
      "stateMutability": "nonpayable",
      "type": "function"
    },
    {
      "inputs": [
        {
          "internalType": "address",
          "name": "_contract",
          "type": "address"
        }
      ],
      "name": "setIncentiveContract",
      "outputs": [],
      "stateMutability": "nonpayable",
      "type": "function"
    },
    {
      "inputs": [],
      "name": "start",
      "outputs": [],
      "stateMutability": "nonpayable",
      "type": "function"
    },
    {
      "inputs": [],
      "name": "startPeriod",
      "outputs": [
        {
          "internalType": "uint64",
          "name": "",
          "type": "uint64"
        }
      ],
      "stateMutability": "view",
      "type": "function"
    },
    {
      "inputs": [],
      "name": "tDaoGovernorAlpha",
      "outputs": [
        {
          "internalType": "address",
          "name": "",
          "type": "address"
        }
      ],
      "stateMutability": "view",
      "type": "function"
    },
    {
      "inputs": [],
      "name": "tDaoPositionNFT",
      "outputs": [
        {
          "internalType": "contract IPositionNFT",
          "name": "",
          "type": "address"
        }
      ],
      "stateMutability": "view",
      "type": "function"
    },
    {
      "inputs": [],
      "name": "tDaoToken",
      "outputs": [
        {
          "internalType": "contract IProtocolToken",
          "name": "",
          "type": "address"
        }
      ],
      "stateMutability": "view",
      "type": "function"
    },
    {
      "inputs": [],
      "name": "timelock",
      "outputs": [
        {
          "internalType": "address",
          "name": "",
          "type": "address"
        }
      ],
      "stateMutability": "view",
      "type": "function"
    },
    {
      "inputs": [
        {
          "internalType": "contract IERC20",
          "name": "",
          "type": "address"
        }
      ],
      "name": "tokenToID",
      "outputs": [
        {
          "internalType": "uint16",
          "name": "",
          "type": "uint16"
        }
      ],
      "stateMutability": "view",
      "type": "function"
    },
    {
      "inputs": [],
      "name": "totalIncentivesMinted",
      "outputs": [
        {
          "internalType": "uint256",
          "name": "",
          "type": "uint256"
        }
      ],
      "stateMutability": "view",
      "type": "function"
    },
    {
      "inputs": [
        {
          "internalType": "address",
          "name": "",
          "type": "address"
        },
        {
          "internalType": "uint256",
          "name": "",
          "type": "uint256"
        }
      ],
      "name": "underlyingTokenVoteRewardCount",
      "outputs": [
        {
          "internalType": "uint248",
          "name": "count",
          "type": "uint248"
        },
        {
          "internalType": "bool",
          "name": "isSet",
          "type": "bool"
        }
      ],
      "stateMutability": "view",
      "type": "function"
    },
    {
      "inputs": [
        {
          "internalType": "uint64",
          "name": "positionNFTTokenID",
          "type": "uint64"
        }
      ],
      "name": "unlockTokens",
      "outputs": [],
      "stateMutability": "nonpayable",
      "type": "function"
    },
    {
      "inputs": [
        {
          "internalType": "uint16",
          "name": "",
          "type": "uint16"
        }
      ],
      "name": "virtualCount",
      "outputs": [
        {
          "internalType": "uint256",
          "name": "",
          "type": "uint256"
        }
      ],
      "stateMutability": "view",
      "type": "function"
    },
    {
      "inputs": [],
      "name": "votingRewardsSafe",
      "outputs": [
        {
          "internalType": "contract TDaoVotingRewardsSafe",
          "name": "",
          "type": "address"
        }
      ],
      "stateMutability": "view",
      "type": "function"
    }
  ],
  "bytecode": "0x60e06040526001600760006101000a81548167ffffffffffffffff021916908367ffffffffffffffff1602179055503480156200003c5760006000fd5b5060405162006518380380620065188339818101604052810190620000629190620002a8565b5b5b620151805b60018167ffffffffffffffff1662000086620001df60201b60201c565b67ffffffffffffffff168115156200009a57fe5b040367ffffffffffffffff1660a08167ffffffffffffffff1660c01b815260080150508067ffffffffffffffff1660808167ffffffffffffffff1660c01b815260080150505b50600160006000508190909055505b80601060006101000a81548173ffffffffffffffffffffffffffffffffffffffff021916908373ffffffffffffffffffffffffffffffffffffffff1602179055506040516200013e9062000295565b604051809103906000f0801580156200015c573d600060003e3d6000fd5b5073ffffffffffffffffffffffffffffffffffffffff1660c08173ffffffffffffffffffffffffffffffffffffffff1660601b8152601401505033600f60006101000a81548173ffffffffffffffffffffffffffffffffffffffff021916908373ffffffffffffffffffffffffffffffffffffffff1602179055505b50620002df565b6000620001f9426200020160201b620036ff17909060201c565b905080505b90565b6000680100000000000000008210151562000287576040517f08c379a00000000000000000000000000000000000000000000000000000000081526004018080602001828103825260118152602001807f6d6f7265207468616e203634206269747300000000000000000000000000000081526020015060200191505060405180910390fd5b81905062000290565b919050565b6104a9806200606f8339019056620002de565b600060208284031215620002ba578081fd5b81516001600160a01b03811681141515620002d3578182fd5b809150505b92915050565b5b60805160c01c60a05160c01c60c05160601c615d3c6200033360003980612850528061304552806131b75250806134275280613a67528061497052508061344b5280613a8852806149a95250615d3c6000f3fe60806040523480156100115760006000fd5b50600436106102ee5760003560e01c80637ad31c9811610192578063be9a6555116100e4578063d48bfca711610098578063f0f091c311610072578063f0f091c31461082e578063fcb3fa901461084a578063fd8067c314610866576102ee565b8063d48bfca7146107d6578063d5f39488146107f2578063d6c2875d14610810576102ee565b8063c4e3a63b116100c9578063c4e3a63b1461077c578063d2ca21151461079a578063d33219b4146107b8576102ee565b8063be9a655514610754578063c2cc16d91461075e576102ee565b8063955e232e11610146578063ae42983311610120578063ae429833146106fe578063b551a00d1461071c578063b9f8ea6d14610738576102ee565b8063955e232e146106805780639645383d146106b05780639d8e0901146106ce576102ee565b806386fa81c71161017757806386fa81c71461061557806387bbac1b146106465780639383ac4414610664576102ee565b80637ad31c98146105db57806382b5e889146105f9576102ee565b806327fb04741161024b578063452a9320116101ff578063640bb8df116101d9578063640bb8df1461055d5780636c6a4f361461057b578063797250e4146105ab576102ee565b8063452a9320146105055780634cd7a31514610523578063526b87121461053f576102ee565b806330bfb9bb1161023057806330bfb9bb1461048657806333daf5d4146104a4578063371f3d45146104d5576102ee565b806327fb0474146104265780632e74e62814610456576102ee565b806307e54f16116102a25780630f85fc5a116102875780630f85fc5a146103bc57806314706d85146103ec5780631a30c7021461040a576102ee565b806307e54f16146103705780630a889a8b146103a0576102ee565b806306552ff3116102d357806306552ff31461031c57806307818200146103385780630793298714610354576102ee565b8063020ac54a146102f457806306040618146102fe576102ee565b60006000fd5b6102fc610884565b005b610306610931565b6040516103139190615c6e565b60405180910390f35b6103366004803603810190610331919061545b565b610949565b005b610352600480360381019061034d91906151b6565b610bb4565b005b61036e600480360381019061036991906152ab565b610d93565b005b61038a600480360381019061038591906153dd565b610f24565b6040516103979190615bd3565b60405180910390f35b6103ba60048036038101906103b59190615528565b610f4a565b005b6103d660048036038101906103d19190615528565b611489565b6040516103e39190615b51565b60405180910390f35b6103f4611765565b6040516104019190615c25565b60405180910390f35b610424600480360381019061041f9190615576565b611824565b005b610440600480360381019061043b9190615404565b611b7a565b60405161044d9190615c6e565b60405180910390f35b610470600480360381019061046b9190615528565b611f7b565b60405161047d9190615768565b60405180910390f35b61048e611ff0565b60405161049b9190615c6e565b60405180910390f35b6104be60048036038101906104b99190615204565b61200a565b6040516104cc92919061577c565b60405180910390f35b6104ef60048036038101906104ea9190615390565b6122a1565b6040516104fc9190615768565b60405180910390f35b61050d6122c6565b60405161051a9190615665565b60405180910390f35b61053d600480360381019061053891906152ab565b6122ec565b005b610547612550565b6040516105549190615bd3565b60405180910390f35b610565612564565b6040516105729190615665565b60405180910390f35b610595600480360381019061059091906154c1565b61258a565b6040516105a29190615bb6565b60405180910390f35b6105c560048036038101906105c091906154c1565b6126ab565b6040516105d29190615c25565b60405180910390f35b6105e36126c6565b6040516105f09190615c25565b60405180910390f35b610613600480360381019061060e91906153dd565b6126cf565b005b61062f600480360381019061062a91906152ab565b6127df565b60405161063d929190615be9565b60405180910390f35b61064e61284e565b60405161065b9190615819565b60405180910390f35b61067e600480360381019061067991906152ab565b612872565b005b61069a60048036038101906106959190615528565b612adf565b6040516106a79190615c6e565b60405180910390f35b6106b8612afc565b6040516106c591906157f1565b60405180910390f35b6106e860048036038101906106e391906154c1565b612b22565b6040516106f591906157a1565b60405180910390f35b610706612b5a565b60405161071391906157c9565b60405180910390f35b61073660048036038101906107319190615528565b612b80565b005b610752600480360381019061074d91906152dc565b612d4f565b005b61075c613308565b005b6107666133ff565b6040516107739190615665565b60405180910390f35b610784613425565b6040516107919190615c6e565b60405180910390f35b6107a2613449565b6040516107af9190615c6e565b60405180910390f35b6107c061346d565b6040516107cd9190615665565b60405180910390f35b6107f060048036038101906107eb91906153dd565b613493565b005b6107fa6134e4565b6040516108079190615665565b60405180910390f35b61081861350a565b6040516108259190615c6e565b60405180910390f35b610848600480360381019061084391906153dd565b613524565b005b610864600480360381019061085f91906154f0565b6135b6565b005b61086e6136e5565b60405161087b9190615c6e565b60405180910390f35b600260006000505414151515610905576040517f08c379a000000000000000000000000000000000000000000000000000000000815260040180806020018281038252601f8152602001807f5265656e7472616e637947756172643a207265656e7472616e742063616c6c0081526020015060200191505060405180910390fd5b6002600060005081909090555061092061379163ffffffff16565b5b600160006000508190909055505b565b6000610941613a6363ffffffff16565b905080505b90565b6109a8600f60009054906101000a900473ffffffffffffffffffffffffffffffffffffffff1673ffffffffffffffffffffffffffffffffffffffff163373ffffffffffffffffffffffffffffffffffffffff1614613adc63ffffffff16565b600f60006101000a81549073ffffffffffffffffffffffffffffffffffffffff021916905583600560006101000a81548173ffffffffffffffffffffffffffffffffffffffff021916908373ffffffffffffffffffffffffffffffffffffffff16021790555082600460006101000a81548173ffffffffffffffffffffffffffffffffffffffff021916908373ffffffffffffffffffffffffffffffffffffffff16021790555081600360006101000a81548173ffffffffffffffffffffffffffffffffffffffff021916908373ffffffffffffffffffffffffffffffffffffffff16021790555080600260006101000a81548173ffffffffffffffffffffffffffffffffffffffff021916908373ffffffffffffffffffffffffffffffffffffffff160217905550610ae763a9059cbb60e01b613b2263ffffffff16565b610afd6323b872dd60e01b613b2263ffffffff16565b610b1363095ea7b360e01b613b2263ffffffff16565b610b2963449a52f860e01b613b2263ffffffff16565b610b3f6379cc679060e01b613b2263ffffffff16565b610b556342966c6860e01b613b2263ffffffff16565b610b6b633950935160e01b613b2263ffffffff16565b610b8163a457c2d760e01b613b2263ffffffff16565b610b97633c4a25d060e01b613b2263ffffffff16565b610bad635c19a95c60e01b613b2263ffffffff16565b5b50505050565b610bf13073ffffffffffffffffffffffffffffffffffffffff163373ffffffffffffffffffffffffffffffffffffffff1614613adc63ffffffff16565b600073ffffffffffffffffffffffffffffffffffffffff16600160009054906101000a900473ffffffffffffffffffffffffffffffffffffffff1673ffffffffffffffffffffffffffffffffffffffff16141515610c84576040517f08c379a0000000000000000000000000000000000000000000000000000000008152600401610c7b90615ad3565b60405180910390fd5b610c9381613b9363ffffffff16565b1515610cd4576040517f08c379a0000000000000000000000000000000000000000000000000000000008152600401610ccb90615a94565b60405180910390fd5b80600160006101000a81548173ffffffffffffffffffffffffffffffffffffffff021916908373ffffffffffffffffffffffffffffffffffffffff160217905550610d23613a6363ffffffff16565b601160006101000a81548167ffffffffffffffff021916908367ffffffffffffffff1602179055508073ffffffffffffffffffffffffffffffffffffffff167f6765bf0cc4e3defc42bfa6ac394241a5f702ee760529c922874f15c4ad35edc760405160405180910390a25b5b50565b600260006000505414151515610e14576040517f08c379a000000000000000000000000000000000000000000000000000000000815260040180806020018281038252601f8152602001807f5265656e7472616e637947756172643a207265656e7472616e742063616c6c0081526020015060200191505060405180910390fd5b60026000600050819090905550610e80600360009054906101000a900473ffffffffffffffffffffffffffffffffffffffff1673ffffffffffffffffffffffffffffffffffffffff163373ffffffffffffffffffffffffffffffffffffffff1614613adc63ffffffff16565b600460009054906101000a900473ffffffffffffffffffffffffffffffffffffffff1673ffffffffffffffffffffffffffffffffffffffff1663449a52f883836040518363ffffffff1660e01b8152600401610edd929190615700565b600060405180830381600087803b158015610ef85760006000fd5b505af1158015610f0d573d600060003e3d6000fd5b505050505b600160006000508190909055505b5050565b600b60005060205280600052604060002060009150909054906101000a900461ffff1681565b600260006000505414151515610fcb576040517f08c379a000000000000000000000000000000000000000000000000000000000815260040180806020018281038252601f8152602001807f5265656e7472616e637947756172643a207265656e7472616e742063616c6c0081526020015060200191505060405180910390fd5b60026000600050819090905550600033905061109a600560009054906101000a900473ffffffffffffffffffffffffffffffffffffffff1673ffffffffffffffffffffffffffffffffffffffff1663430c208183856040518363ffffffff1660e01b815260040161103d92919061572f565b60206040518083038186803b1580156110565760006000fd5b505afa15801561106b573d600060003e3d6000fd5b505050506040513d601f19601f8201168201806040525081019061108f919061536d565b613adc63ffffffff16565b60006110ab83613bad63ffffffff16565b90506110bb613a6363ffffffff16565b67ffffffffffffffff16816080015167ffffffffffffffff1611151515611117576040517f08c379a000000000000000000000000000000000000000000000000000000000815260040161110e906159d7565b60405180910390fd5b61116661113282600001518360a00151613e7663ffffffff16565b600960005060008460c0015161ffff1661ffff16815260200190815260200160002060005054613ea590919063ffffffff16565b600960005060008360c0015161ffff1661ffff168152602001908152602001600020600050819090905550600d60005060008467ffffffffffffffff1667ffffffffffffffff16815260200190815260200160002060006000820160006101000a8154906fffffffffffffffffffffffffffffffff02191690556000820160106101000a8154906fffffffffffffffffffffffffffffffff02191690556001820160006101000a81549076ffffffffffffffffffffffffffffffffffffffffffffff02191690556001820160176101000a81549061ffff02191690556001820160196101000a81549061ffff021916905560018201601b6101000a81549061ffff021916905560018201601d6101000a81549060ff021916905550506000600560009054906101000a900473ffffffffffffffffffffffffffffffffffffffff1673ffffffffffffffffffffffffffffffffffffffff16636352211e856040518263ffffffff1660e01b81526004016112df9190615c52565b60206040518083038186803b1580156112f85760006000fd5b505afa15801561130d573d600060003e3d6000fd5b505050506040513d601f19601f8201168201806040525081019061133191906151dd565b9050600560009054906101000a900473ffffffffffffffffffffffffffffffffffffffff1673ffffffffffffffffffffffffffffffffffffffff16639dbead42856040518263ffffffff1660e01b815260040161138e9190615c6e565b600060405180830381600087803b1580156113a95760006000fd5b505af11580156113be573d600060003e3d6000fd5b505050508273ffffffffffffffffffffffffffffffffffffffff168260c0015161ffff167fbf347141bee0ba9c777fbef9a14008be9f56f2b2f90f0e63cfed8a96a3b506c784600001516040516114159190615c25565b60405180910390a3611474600c60005060008460c0015161ffff1661ffff16815260200190815260200160002060009054906101000a900473ffffffffffffffffffffffffffffffffffffffff16828460000151613f2e63ffffffff16565b5050505b600160006000508190909055505b50565b611491615072565b6000600d60005060008467ffffffffffffffff1667ffffffffffffffff1681526020019081526020016000206000506040518060e00160405290816000820160009054906101000a90046fffffffffffffffffffffffffffffffff166fffffffffffffffffffffffffffffffff166fffffffffffffffffffffffffffffffff1681526020016000820160109054906101000a90046fffffffffffffffffffffffffffffffff166fffffffffffffffffffffffffffffffff166fffffffffffffffffffffffffffffffff1681526020016001820160009054906101000a900476ffffffffffffffffffffffffffffffffffffffffffffff1676ffffffffffffffffffffffffffffffffffffffffffffff1676ffffffffffffffffffffffffffffffffffffffffffffff1681526020016001820160179054906101000a900461ffff1661ffff1661ffff1681526020016001820160199054906101000a900461ffff1661ffff1661ffff16815260200160018201601b9054906101000a900461ffff1661ffff1661ffff16815260200160018201601d9054906101000a900460ff1660ff1660ff16815260200150509050600081600001516fffffffffffffffffffffffffffffffff1611151561169b576040517f08c379a000000000000000000000000000000000000000000000000000000000815260040161169290615a16565b60405180910390fd5b6040518060e0016040528082600001516fffffffffffffffffffffffffffffffff16815260200182602001516fffffffffffffffffffffffffffffffff168152602001826040015176ffffffffffffffffffffffffffffffffffffffffffffff168152602001826060015161ffff1667ffffffffffffffff168152602001826080015161ffff1667ffffffffffffffff1681526020018260c0015160ff1667ffffffffffffffff1681526020018260a0015161ffff1681526020015091505061176056505b919050565b60006000601060149054906101000a900467ffffffffffffffff1667ffffffffffffffff1614156117995760009050611821565b600073ffffffffffffffffffffffffffffffffffffffff16600160009054906101000a900473ffffffffffffffffffffffffffffffffffffffff1673ffffffffffffffffffffffffffffffffffffffff1614151561180f5769021e19e0c9bab240000069152d02c7e14af6800000039050611821565b69152d02c7e14af68000009050611821565b90565b6002600060005054141515156118a5576040517f08c379a000000000000000000000000000000000000000000000000000000000815260040180806020018281038252601f8152602001807f5265656e7472616e637947756172643a207265656e7472616e742063616c6c0081526020015060200191505060405180910390fd5b600260006000508190909055506118c18161413a63ffffffff16565b6000339050611983600560009054906101000a900473ffffffffffffffffffffffffffffffffffffffff1673ffffffffffffffffffffffffffffffffffffffff1663430c208183866040518363ffffffff1660e01b815260040161192692919061572f565b60206040518083038186803b15801561193f5760006000fd5b505afa158015611954573d600060003e3d6000fd5b505050506040513d601f19601f82011682018060405250810190611978919061536d565b613adc63ffffffff16565b600061199484613bad63ffffffff16565b90508060a0015167ffffffffffffffff168360ff1667ffffffffffffffff161115156119f5576040517f08c379a00000000000000000000000000000000000000000000000000000000081526004016119ec906158db565b60405180910390fd5b611a6c611a0f82600001518560ff16613e7663ffffffff16565b611a5e611a2a84600001518560a00151613e7663ffffffff16565b600960005060008660c0015161ffff1661ffff16815260200190815260200160002060005054613ea590919063ffffffff16565b6141da90919063ffffffff16565b600960005060008360c0015161ffff1661ffff168152602001908152602001600020600050819090905550611ad2611aac8460ff1661426363ffffffff16565b611aba613a6363ffffffff16565b67ffffffffffffffff166142a690919063ffffffff16565b816080019067ffffffffffffffff16908167ffffffffffffffff16815260200150508260ff168160a0019067ffffffffffffffff16908167ffffffffffffffff1681526020015050611b2a848261434363ffffffff16565b8260ff168467ffffffffffffffff167fb39e6330051c3e584367d7d1f1ff3fb0cdd824478fd7d7f257005c83c010b8a160405160405180910390a350505b600160006000508190909055505b5050565b6000600260006000505414151515611bfd576040517f08c379a000000000000000000000000000000000000000000000000000000000815260040180806020018281038252601f8152602001807f5265656e7472616e637947756172643a207265656e7472616e742063616c6c0081526020015060200191505060405180910390fd5b600260006000508190909055506000600b60005060008773ffffffffffffffffffffffffffffffffffffffff1673ffffffffffffffffffffffffffffffffffffffff16815260200190815260200160002060009054906101000a900461ffff16905060008161ffff16111515611ca8576040517f08c379a0000000000000000000000000000000000000000000000000000000008152600401611c9f9061589c565b60405180910390fd5b600085111515611ced576040517f08c379a0000000000000000000000000000000000000000000000000000000008152600401611ce490615959565b60405180910390fd5b611cfc8461413a63ffffffff16565b611d0a61379163ffffffff16565b6000611d1b8261258a63ffffffff16565b9050611d63611d33878760ff16613e7663ffffffff16565b600960005060008561ffff1661ffff168152602001908152602001600020600050546141da90919063ffffffff16565b600960005060008461ffff1661ffff168152602001908152602001600020600050819090905550600560009054906101000a900473ffffffffffffffffffffffffffffffffffffffff1673ffffffffffffffffffffffffffffffffffffffff1663755edd17856040518263ffffffff1660e01b8152600401611de59190615665565b602060405180830381600087803b158015611e005760006000fd5b505af1158015611e15573d600060003e3d6000fd5b505050506040513d601f19601f82011682018060405250810190611e39919061554f565b925082506000611e4d613a6363ffffffff16565b9050611eee846040518060e001604052808a815260200185602001518152602001856000015181526020018467ffffffffffffffff168152602001611eb6611e9d8b60ff1661426363ffffffff16565b8667ffffffffffffffff166142a690919063ffffffff16565b67ffffffffffffffff1681526020018960ff1667ffffffffffffffff1681526020018661ffff1681526020015061434363ffffffff16565b611f008833308a6145e963ffffffff16565b8560ff168573ffffffffffffffffffffffffffffffffffffffff168461ffff167ffd5af8482cd27088275e2c1370259ff534cf1c987cf2105e24da196377e5c98d8a604051611f4f9190615c25565b60405180910390a4839350505050611f65565050505b600160006000508190909055505b949350505050565b6000611f8b613a6363ffffffff16565b67ffffffffffffffff16600d60005060008467ffffffffffffffff1667ffffffffffffffff16815260200190815260200160002060005060010160199054906101000a900461ffff1661ffff1667ffffffffffffffff1611159050611feb565b919050565b601060149054906101000a900467ffffffffffffffff1681565b6000606060026000600050541415151561208f576040517f08c379a000000000000000000000000000000000000000000000000000000000815260040180806020018281038252601f8152602001807f5265656e7472616e637947756172643a207265656e7472616e742063616c6c0081526020015060200191505060405180910390fd5b600260006000508190909055506120fb600260009054906101000a900473ffffffffffffffffffffffffffffffffffffffff1673ffffffffffffffffffffffffffffffffffffffff163373ffffffffffffffffffffffffffffffffffffffff1614613adc63ffffffff16565b600061210c8561481463ffffffff16565b9050600e6000506000827bffffffffffffffffffffffffffffffffffffffffffffffffffffffff19167bffffffffffffffffffffffffffffffffffffffffffffffffffffffff1916815260200190815260200160002060009054906101000a900460ff161515156121b2576040517f08c379a00000000000000000000000000000000000000000000000000000000081526004016121a990615998565b60405180910390fd5b8573ffffffffffffffffffffffffffffffffffffffff1681856040516020016121dc9291906155fb565b6040516020818303038152906040526040516121f89190615646565b6000604051808303816000865af19150503d8060008114612235576040519150601f19603f3d011682016040523d82523d6000602084013e61223a565b606091505b5080935081945050508282901515612288576040517f08c379a000000000000000000000000000000000000000000000000000000000815260040161227f9190615841565b60405180910390fd5b50505b600160006000508190909055505b935093915050565b600e60005060205280600052604060002060009150909054906101000a900460ff1681565b601060009054906101000a900473ffffffffffffffffffffffffffffffffffffffff1681565b6123293073ffffffffffffffffffffffffffffffffffffffff163373ffffffffffffffffffffffffffffffffffffffff1614613adc63ffffffff16565b6032600460009054906101000a900473ffffffffffffffffffffffffffffffffffffffff1673ffffffffffffffffffffffffffffffffffffffff166318160ddd6040518163ffffffff1660e01b815260040160206040518083038186803b1580156123945760006000fd5b505afa1580156123a9573d600060003e3d6000fd5b505050506040513d601f19601f820116820180604052508101906123cd919061550c565b8115156123d657fe5b04811115151561241b576040517f08c379a000000000000000000000000000000000000000000000000000000000815260040161241290615b12565b60405180910390fd5b61242a82613b9363ffffffff16565b151561246b576040517f08c379a000000000000000000000000000000000000000000000000000000000815260040161246290615a94565b60405180910390fd5b600460009054906101000a900473ffffffffffffffffffffffffffffffffffffffff1673ffffffffffffffffffffffffffffffffffffffff1663449a52f883836040518363ffffffff1660e01b81526004016124c8929190615700565b600060405180830381600087803b1580156124e35760006000fd5b505af11580156124f8573d600060003e3d6000fd5b505050508173ffffffffffffffffffffffffffffffffffffffff167f15c222d39f56077620782fcc367cdd020fddac1f6129c77ec7ca1c5025659dda826040516125429190615c25565b60405180910390a25b5b5050565b600a60009054906101000a900461ffff1681565b600360009054906101000a900473ffffffffffffffffffffffffffffffffffffffff1681565b6125926150d4565b6000600860005060008461ffff1661ffff1681526020019081526020016000206000506040518060400160405290816000820160009054906101000a90046fffffffffffffffffffffffffffffffff166fffffffffffffffffffffffffffffffff166fffffffffffffffffffffffffffffffff1681526020016000820160109054906101000a90046fffffffffffffffffffffffffffffffff166fffffffffffffffffffffffffffffffff166fffffffffffffffffffffffffffffffff16815260200150509050604051806040016040528082600001516fffffffffffffffffffffffffffffffff16815260200182602001516fffffffffffffffffffffffffffffffff168152602001509150506126a656505b919050565b60096000506020528060005260406000206000915090505481565b60126000505481565b6000600b60005060008373ffffffffffffffffffffffffffffffffffffffff1673ffffffffffffffffffffffffffffffffffffffff16815260200190815260200160002060009054906101000a900461ffff16905060008161ffff1611151561276d576040517f08c379a00000000000000000000000000000000000000000000000000000000081526004016127649061589c565b60405180910390fd5b8173ffffffffffffffffffffffffffffffffffffffff16635c19a95c306040518263ffffffff1660e01b81526004016127a69190615665565b600060405180830381600087803b1580156127c15760006000fd5b505af11580156127d6573d600060003e3d6000fd5b50505050505b50565b6006600050602052816000526040600020600050602052806000526040600020600091509150508060000160009054906101000a90047effffffffffffffffffffffffffffffffffffffffffffffffffffffffffffff169080600001601f9054906101000a900460ff16905082565b7f000000000000000000000000000000000000000000000000000000000000000081565b6002600060005054141515156128f3576040517f08c379a000000000000000000000000000000000000000000000000000000000815260040180806020018281038252601f8152602001807f5265656e7472616e637947756172643a207265656e7472616e742063616c6c0081526020015060200191505060405180910390fd5b6002600060005081909090555061295f600160009054906101000a900473ffffffffffffffffffffffffffffffffffffffff1673ffffffffffffffffffffffffffffffffffffffff163373ffffffffffffffffffffffffffffffffffffffff1614613adc63ffffffff16565b6000612979826012600050546141da90919063ffffffff16565b905060006129e669021e19e0c9bab24000006129ce601160009054906101000a900467ffffffffffffffff1660016129b5613a6363ffffffff16565b0167ffffffffffffffff1661482a90919063ffffffff16565b67ffffffffffffffff166148c790919063ffffffff16565b9050808211151515612a2d576040517f08c379a0000000000000000000000000000000000000000000000000000000008152600401612a2490615a55565b60405180910390fd5b816012600050819090905550600460009054906101000a900473ffffffffffffffffffffffffffffffffffffffff1673ffffffffffffffffffffffffffffffffffffffff1663449a52f885856040518363ffffffff1660e01b8152600401612a96929190615700565b600060405180830381600087803b158015612ab15760006000fd5b505af1158015612ac6573d600060003e3d6000fd5b5050505050505b600160006000508190909055505b5050565b6000612af08261496563ffffffff16565b9050612af7565b919050565b600460009054906101000a900473ffffffffffffffffffffffffffffffffffffffff1681565b600c60005060205280600052604060002060009150909054906101000a900473ffffffffffffffffffffffffffffffffffffffff1681565b600560009054906101000a900473ffffffffffffffffffffffffffffffffffffffff1681565b600260006000505414151515612c01576040517f08c379a000000000000000000000000000000000000000000000000000000000815260040180806020018281038252601f8152602001807f5265656e7472616e637947756172643a207265656e7472616e742063616c6c0081526020015060200191505060405180910390fd5b60026000600050819090905550612ccb600560009054906101000a900473ffffffffffffffffffffffffffffffffffffffff1673ffffffffffffffffffffffffffffffffffffffff1663430c208133846040518363ffffffff1660e01b8152600401612c6e92919061568d565b60206040518083038186803b158015612c875760006000fd5b505afa158015612c9c573d600060003e3d6000fd5b505050506040513d601f19601f82011682018060405250810190612cc0919061536d565b613adc63ffffffff16565b6000612cdc82613bad63ffffffff16565b9050612cee828261434363ffffffff16565b3373ffffffffffffffffffffffffffffffffffffffff168267ffffffffffffffff167f39c278b054e152450e4295bdf59d7edbaba35cb21d4248658680e61dac39eebb60405160405180910390a3505b600160006000508190909055505b50565b612dae600360009054906101000a900473ffffffffffffffffffffffffffffffffffffffff1673ffffffffffffffffffffffffffffffffffffffff163373ffffffffffffffffffffffffffffffffffffffff1614613adc63ffffffff16565b60008473ffffffffffffffffffffffffffffffffffffffff16637e90f9ab6040518163ffffffff1660e01b815260040160206040518083038186803b158015612df75760006000fd5b505afa158015612e0c573d600060003e3d6000fd5b505050506040513d601f19601f82011682018060405250810190612e3091906151dd565b9050600660005060008673ffffffffffffffffffffffffffffffffffffffff1673ffffffffffffffffffffffffffffffffffffffff1681526020019081526020016000206000506000858152602001908152602001600020600050600001601f9054906101000a900460ff1615156131b55760008173ffffffffffffffffffffffffffffffffffffffff166370a08231306040518263ffffffff1660e01b8152600401612edd9190615665565b60206040518083038186803b158015612ef65760006000fd5b505afa158015612f0b573d600060003e3d6000fd5b505050506040513d601f19601f82011682018060405250810190612f2f919061550c565b90508573ffffffffffffffffffffffffffffffffffffffff1663b525867f866040518263ffffffff1660e01b8152600401612f6a9190615c25565b600060405180830381600087803b158015612f855760006000fd5b505af1158015612f9a573d600060003e3d6000fd5b50505050600061303d828473ffffffffffffffffffffffffffffffffffffffff166370a08231306040518263ffffffff1660e01b8152600401612fdd9190615665565b60206040518083038186803b158015612ff65760006000fd5b505afa15801561300b573d600060003e3d6000fd5b505050506040513d601f19601f8201168201806040525081019061302f919061550c565b613ea590919063ffffffff16565b9050613070837f000000000000000000000000000000000000000000000000000000000000000083613f2e63ffffffff16565b604051806040016040528061308c836149ea909063ffffffff16565b7affffffffffffffffffffffffffffffffffffffffffffffffffffff167effffffffffffffffffffffffffffffffffffffffffffffffffffffffffffff16815260200160011515815260200150600660005060008973ffffffffffffffffffffffffffffffffffffffff1673ffffffffffffffffffffffffffffffffffffffff168152602001908152602001600020600050600088815260200190815260200160002060005060008201518160000160006101000a8154817effffffffffffffffffffffffffffffffffffffffffffffffffffffffffffff02191690837effffffffffffffffffffffffffffffffffffffffffffffffffffffffffffff160217905550602082015181600001601f6101000a81548160ff02191690831515021790555090505050505b7f000000000000000000000000000000000000000000000000000000000000000073ffffffffffffffffffffffffffffffffffffffff1663d1660f9982856132ae86600660005060008c73ffffffffffffffffffffffffffffffffffffffff1673ffffffffffffffffffffffffffffffffffffffff16815260200190815260200160002060005060008b815260200190815260200160002060005060000160009054906101000a90047effffffffffffffffffffffffffffffffffffffffffffffffffffffffffffff167effffffffffffffffffffffffffffffffffffffffffffffffffffffffffffff16614a8f90919063ffffffff16565b6040518463ffffffff1660e01b81526004016132cc939291906156c6565b600060405180830381600087803b1580156132e75760006000fd5b505af11580156132fc573d600060003e3d6000fd5b50505050505b50505050565b613367601060009054906101000a900473ffffffffffffffffffffffffffffffffffffffff1673ffffffffffffffffffffffffffffffffffffffff163373ffffffffffffffffffffffffffffffffffffffff1614613adc63ffffffff16565b601060006101000a81549073ffffffffffffffffffffffffffffffffffffffff021916905561339a61379163ffffffff16565b6133a8613a6363ffffffff16565b601060146101000a81548167ffffffffffffffff021916908367ffffffffffffffff1602179055507fe0c110dd4938fc8e228e75a489735745046395ad536dd80c35559debe653714760405160405180910390a15b565b600160009054906101000a900473ffffffffffffffffffffffffffffffffffffffff1681565b7f000000000000000000000000000000000000000000000000000000000000000081565b7f000000000000000000000000000000000000000000000000000000000000000081565b600260009054906101000a900473ffffffffffffffffffffffffffffffffffffffff1681565b6134d03073ffffffffffffffffffffffffffffffffffffffff163373ffffffffffffffffffffffffffffffffffffffff1614613adc63ffffffff16565b6134df81614ab563ffffffff16565b5b5b50565b600f60009054906101000a900473ffffffffffffffffffffffffffffffffffffffff1681565b600760009054906101000a900467ffffffffffffffff1681565b6135a3601060009054906101000a900473ffffffffffffffffffffffffffffffffffffffff1673ffffffffffffffffffffffffffffffffffffffff163373ffffffffffffffffffffffffffffffffffffffff1614801561359857506000600a60009054906101000a900461ffff1661ffff16145b613adc63ffffffff16565b6135b281614ab563ffffffff16565b5b50565b600060006000600360009054906101000a900473ffffffffffffffffffffffffffffffffffffffff1673ffffffffffffffffffffffffffffffffffffffff166383b0ce15856040518263ffffffff1660e01b81526004016136179190615c25565b60606040518083038186803b1580156136305760006000fd5b505afa158015613645573d600060003e3d6000fd5b505050506040513d601f19601f82011682018060405250810190613669919061532c565b9250925092508273ffffffffffffffffffffffffffffffffffffffff166315373e3d83836040518363ffffffff1660e01b81526004016136aa929190615c37565b600060405180830381600087803b1580156136c55760006000fd5b505af11580156136da573d600060003e3d6000fd5b505050505050505b50565b601160009054906101000a900467ffffffffffffffff1681565b60006801000000000000000082101515613784576040517f08c379a00000000000000000000000000000000000000000000000000000000081526004018080602001828103825260118152602001807f6d6f7265207468616e203634206269747300000000000000000000000000000081526020015060200191505060405180910390fd5b81905061378c565b919050565b60006137a1613a6363ffffffff16565b9050600760009054906101000a900467ffffffffffffffff1667ffffffffffffffff168167ffffffffffffffff161115156137dc5750613a61565b6000600760009054906101000a900467ffffffffffffffff16820390506000600a60009054906101000a900461ffff1661ffff16905060008161383f8467ffffffffffffffff1661383161176563ffffffff16565b6148c790919063ffffffff16565b81151561384857fe5b0490506138536150d4565b6000600190505b838161ffff161115156139ef576138768161258a63ffffffff16565b9150815060405180604001604052806138e96138dc6138c98967ffffffffffffffff16600960005060008861ffff1661ffff168152602001908152602001600020600050546148c790919063ffffffff16565b86600001516141da90919063ffffffff16565b614c34909063ffffffff16565b6fffffffffffffffffffffffffffffffff16815260200161392761391a8686602001516141da90919063ffffffff16565b614c34909063ffffffff16565b6fffffffffffffffffffffffffffffffff16815260200150600860005060008361ffff1661ffff16815260200190815260200160002060005060008201518160000160006101000a8154816fffffffffffffffffffffffffffffffff02191690836fffffffffffffffffffffffffffffffff16021790555060208201518160000160106101000a8154816fffffffffffffffffffffffffffffffff02191690836fffffffffffffffffffffffffffffffff1602179055509050505b808060010191505061385a565b5084600760006101000a81548167ffffffffffffffff021916908367ffffffffffffffff1602179055508467ffffffffffffffff167f5df8d820031efa286b254435a169e0eda922fa20c466be6471c6deaa51dc116585604051613a539190615c6e565b60405180910390a250505050505b565b60007f00000000000000000000000000000000000000000000000000000000000000007f000000000000000000000000000000000000000000000000000000000000000067ffffffffffffffff16613abf614cce63ffffffff16565b67ffffffffffffffff16811515613ad257fe5b0403905080505b90565b801515613b1e576040517f08c379a0000000000000000000000000000000000000000000000000000000008152600401613b159061591a565b60405180910390fd5b5b50565b6001600e6000506000837bffffffffffffffffffffffffffffffffffffffffffffffffffffffff19167bffffffffffffffffffffffffffffffffffffffffffffffffffffffff1916815260200190815260200160002060006101000a81548160ff0219169083151502179055505b50565b60006000823b905060008111915050613ba856505b919050565b613bb5615072565b613bc48261148963ffffffff16565b90508050613bd661379163ffffffff16565b600760009054906101000a900467ffffffffffffffff1667ffffffffffffffff16816060015167ffffffffffffffff16101515613c1557809050613e71565b6000613c2a8260c0015161258a63ffffffff16565b905060008260600151600760009054906101000a900467ffffffffffffffff160367ffffffffffffffff16613c7084604001518460000151613ea590919063ffffffff16565b811515613c7957fe5b0490506000613cc4613c9c85602001518560200151613ea590919063ffffffff16565b83613cb587600001518860a00151613e7663ffffffff16565b614ce99092919063ffffffff16565b90506000811115613e0d57600460009054906101000a900473ffffffffffffffffffffffffffffffffffffffff1673ffffffffffffffffffffffffffffffffffffffff1663449a52f8600560009054906101000a900473ffffffffffffffffffffffffffffffffffffffff1673ffffffffffffffffffffffffffffffffffffffff16636352211e886040518263ffffffff1660e01b8152600401613d689190615c52565b60206040518083038186803b158015613d815760006000fd5b505afa158015613d96573d600060003e3d6000fd5b505050506040513d601f19601f82011682018060405250810190613dba91906151dd565b836040518363ffffffff1660e01b8152600401613dd8929190615700565b600060405180830381600087803b158015613df35760006000fd5b505af1158015613e08573d600060003e3d6000fd5b505050505b8260200151846020019090818152602001505082600001518460400190908181526020015050613e41613a6363ffffffff16565b846060019067ffffffffffffffff16908167ffffffffffffffff1681526020015050839350505050613e71565050505b919050565b6000613e988267ffffffffffffffff16600c85614ce99092919063ffffffff16565b9050613e9f565b92915050565b60008282840391508111151515613f27576040517f08c379a000000000000000000000000000000000000000000000000000000000815260040180806020018281038252600d8152602001807f7375622d756e646572666c6f770000000000000000000000000000000000000081526020015060200191505060405180910390fd5b5b92915050565b600060008473ffffffffffffffffffffffffffffffffffffffff1663a9059cbb60e01b8585604051602401808373ffffffffffffffffffffffffffffffffffffffff16815260200182815260200192505050604051602081830303815290604052907bffffffffffffffffffffffffffffffffffffffffffffffffffffffff19166020820180517bffffffffffffffffffffffffffffffffffffffffffffffffffffffff83818316178352505050506040518082805190602001908083835b60208310151561401357805182525b602082019150602081019050602083039250613fed565b6001836020036101000a0380198251168184511680821785525050505050509050019150506000604051808303816000865af19150503d8060008114614075576040519150601f19603f3d011682016040523d82523d6000602084013e61407a565b606091505b50915091508180156140bb57506000815114806140ba57508080602001905160208110156140a85760006000fd5b81019080805190602001909291905050505b5b1515614132576040517f08c379a00000000000000000000000000000000000000000000000000000000081526004018080602001828103825260028152602001807f535400000000000000000000000000000000000000000000000000000000000081526020015060200191505060405180910390fd5b50505b505050565b8060ff16600667ffffffffffffffff16111580156141665750603067ffffffffffffffff168160ff1611155b801561419557506000600367ffffffffffffffff168260ff1681151561418857fe5b0667ffffffffffffffff16145b15156141d6576040517f08c379a00000000000000000000000000000000000000000000000000000000081526004016141cd9061585d565b60405180910390fd5b5b50565b6000828284019150811015151561425c576040517f08c379a000000000000000000000000000000000000000000000000000000000815260040180806020018281038252600c8152602001807f6164642d6f766572666c6f77000000000000000000000000000000000000000081526020015060200191505060405180910390fd5b5b92915050565b6000600c61428661016d8467ffffffffffffffff16614dea90919063ffffffff16565b67ffffffffffffffff1681151561429957fe5b0490506142a1565b919050565b60008267ffffffffffffffff1682840191508167ffffffffffffffff161015151561433c576040517f08c379a000000000000000000000000000000000000000000000000000000000815260040180806020018281038252600c8152602001807f6164642d6f766572666c6f77000000000000000000000000000000000000000081526020015060200191505060405180910390fd5b5b92915050565b6040518060e001604052806143638360000151614c34909063ffffffff16565b6fffffffffffffffffffffffffffffffff16815260200161438f8360200151614c34909063ffffffff16565b6fffffffffffffffffffffffffffffffff1681526020016143bb8360400151614eba909063ffffffff16565b76ffffffffffffffffffffffffffffffffffffffffffffff1681526020016143f8836060015167ffffffffffffffff16614f5b909063ffffffff16565b61ffff168152602001614420836080015167ffffffffffffffff16614f5b909063ffffffff16565b61ffff1681526020018260c0015161ffff1681526020016144568360a0015167ffffffffffffffff16614fe7909063ffffffff16565b60ff16815260200150600d60005060008467ffffffffffffffff1667ffffffffffffffff16815260200190815260200160002060005060008201518160000160006101000a8154816fffffffffffffffffffffffffffffffff02191690836fffffffffffffffffffffffffffffffff16021790555060208201518160000160106101000a8154816fffffffffffffffffffffffffffffffff02191690836fffffffffffffffffffffffffffffffff16021790555060408201518160010160006101000a81548176ffffffffffffffffffffffffffffffffffffffffffffff021916908376ffffffffffffffffffffffffffffffffffffffffffffff16021790555060608201518160010160176101000a81548161ffff021916908361ffff16021790555060808201518160010160196101000a81548161ffff021916908361ffff16021790555060a082015181600101601b6101000a81548161ffff021916908361ffff16021790555060c082015181600101601d6101000a81548160ff021916908360ff1602179055509050505b5050565b600060008573ffffffffffffffffffffffffffffffffffffffff166323b872dd60e01b868686604051602401808473ffffffffffffffffffffffffffffffffffffffff1681526020018373ffffffffffffffffffffffffffffffffffffffff1681526020018281526020019350505050604051602081830303815290604052907bffffffffffffffffffffffffffffffffffffffffffffffffffffffff19166020820180517bffffffffffffffffffffffffffffffffffffffffffffffffffffffff83818316178352505050506040518082805190602001908083835b6020831015156146ec57805182525b6020820191506020810190506020830392506146c6565b6001836020036101000a0380198251168184511680821785525050505050509050019150506000604051808303816000865af19150503d806000811461474e576040519150601f19603f3d011682016040523d82523d6000602084013e614753565b606091505b5091509150818015614794575060008151148061479357508080602001905160208110156147815760006000fd5b81019080805190602001909291905050505b5b151561480b576040517f08c379a00000000000000000000000000000000000000000000000000000000081526004018080602001828103825260038152602001807f535446000000000000000000000000000000000000000000000000000000000081526020015060200191505060405180910390fd5b50505b50505050565b600081805190602001209050614825565b919050565b60008267ffffffffffffffff1682840391508167ffffffffffffffff16111515156148c0576040517f08c379a000000000000000000000000000000000000000000000000000000000815260040180806020018281038252600d8152602001807f7375622d756e646572666c6f770000000000000000000000000000000000000081526020015060200191505060405180910390fd5b5b92915050565b600060008214806148e7575082828385029250828115156148e457fe5b04145b151561495e576040517f08c379a000000000000000000000000000000000000000000000000000000000815260040180806020018281038252600c8152602001807f6d756c2d6f766572666c6f77000000000000000000000000000000000000000081526020015060200191505060405180910390fd5b5b92915050565b60006149e06149a7837f000000000000000000000000000000000000000000000000000000000000000067ffffffffffffffff166142a690919063ffffffff16565b7f000000000000000000000000000000000000000000000000000000000000000067ffffffffffffffff16614dea90919063ffffffff16565b905080505b919050565b60007b0100000000000000000000000000000000000000000000000000000082101515614a82576040517f08c379a00000000000000000000000000000000000000000000000000000000081526004018080602001828103825260128152602001807f6d6f7265207468616e203231362062697473000000000000000000000000000081526020015060200191505060405180910390fd5b819050614a8a565b919050565b6000614aaa8383670de0b6b3a7640000614ce963ffffffff16565b905080505b92915050565b61ffff61ffff16600a60009054906101000a900461ffff1661ffff16101515614ade5760006000fd5b600a600081819054906101000a900461ffff168092919060010191906101000a81548161ffff021916908361ffff1602179055505080600c6000506000600a60009054906101000a900461ffff1661ffff1661ffff16815260200190815260200160002060006101000a81548173ffffffffffffffffffffffffffffffffffffffff021916908373ffffffffffffffffffffffffffffffffffffffff160217905550600a60009054906101000a900461ffff16600b60005060008373ffffffffffffffffffffffffffffffffffffffff1673ffffffffffffffffffffffffffffffffffffffff16815260200190815260200160002060006101000a81548161ffff021916908361ffff1602179055508073ffffffffffffffffffffffffffffffffffffffff167f784c8f4dbf0ffedd6e72c76501c545a70f8b203b30a26ce542bf92ba87c248a460405160405180910390a25b50565b600070010000000000000000000000000000000082101515614cc1576040517f08c379a00000000000000000000000000000000000000000000000000000000081526004018080602001828103825260128152602001807f6d6f7265207468616e203132382062697473000000000000000000000000000081526020015060200191505060405180910390fd5b819050614cc9565b919050565b6000614ce1426136ff909063ffffffff16565b905080505b90565b6000600060006000198587098587029250828110838203039150506000811415614d2c57600084111515614d1d5760006000fd5b83820492508292505050614de3565b8084111515614d3b5760006000fd5b6000848688099050828111820391508083039250600085866000031690508086049550808404935060018182600003040190508083028417935083506000600287600302189050808702600203810290508050808702600203810290508050808702600203810290508050808702600203810290508050808702600203810290508050808702600203810290508050808502955085508595505050505050614de35650505050505b9392505050565b600060008267ffffffffffffffff161480614e3c57508267ffffffffffffffff168267ffffffffffffffff1683850292508267ffffffffffffffff16811515614e2f57fe5b0467ffffffffffffffff16145b1515614eb3576040517f08c379a000000000000000000000000000000000000000000000000000000000815260040180806020018281038252600c8152602001807f6d756c2d6f766572666c6f77000000000000000000000000000000000000000081526020015060200191505060405180910390fd5b5b92915050565b60007701000000000000000000000000000000000000000000000082101515614f4e576040517f08c379a00000000000000000000000000000000000000000000000000000000081526004018080602001828103825260128152602001807f6d6f7265207468616e203138342062697473000000000000000000000000000081526020015060200191505060405180910390fd5b819050614f56565b919050565b60006201000082101515614fda576040517f08c379a00000000000000000000000000000000000000000000000000000000081526004018080602001828103825260118152602001807f6d6f7265207468616e203136206269747300000000000000000000000000000081526020015060200191505060405180910390fd5b819050614fe2565b919050565b600061010082101515615065576040517f08c379a00000000000000000000000000000000000000000000000000000000081526004018080602001828103825260108152602001807f6d6f7265207468616e203820626974730000000000000000000000000000000081526020015060200191505060405180910390fd5b81905061506d565b919050565b6040518060e00160405280600081526020016000815260200160008152602001600067ffffffffffffffff168152602001600067ffffffffffffffff168152602001600067ffffffffffffffff168152602001600061ffff1681526020015090565b60405180604001604052806000815260200160008152602001509056615d05565b600067ffffffffffffffff8084111561510a57fe5b60405160207fffffffffffffffffffffffffffffffffffffffffffffffffffffffffffffffe0601f870116820101818110838211171561514657fe5b80604052508092508481528585850111156151615760006000fd5b8484602083013760006020868301015250505b9392505050565b600081519050801515811415156151925760006000fd5b5b919050565b60008135905060ff8116811415156151b05760006000fd5b5b919050565b6000602082840312156151c7578081fd5b81356151d281615cbf565b809150505b92915050565b6000602082840312156151ee578081fd5b81516151f981615cbf565b809150505b92915050565b60006000600060608486031215615219578182fd5b833561522481615cbf565b80935050602084013567ffffffffffffffff80821115615242578384fd5b818601915086601f8301121515615257578384fd5b615266878335602085016150f5565b9350604086013591508082111561527b578283fd5b50808501905085601f8201121515615291578182fd5b6152a0868235602084016150f5565b9150505b9250925092565b60006000604083850312156152be578182fd5b82356152c981615cbf565b80925050602083013590505b9250929050565b6000600060006000608085870312156152f3578081fd5b84356152fe81615cbf565b8094505060208501359250604085013561531781615cbf565b80925050606085013590505b92959194509250565b60006000600060608486031215615341578283fd5b835161534c81615cbf565b80935050602084015191506153636040850161517b565b90505b9250925092565b60006020828403121561537e578081fd5b6153878261517b565b90505b92915050565b6000602082840312156153a1578081fd5b81357fffffffff000000000000000000000000000000000000000000000000000000008116811415156153d2578182fd5b809150505b92915050565b6000602082840312156153ee578081fd5b81356153f981615cbf565b809150505b92915050565b60006000600060006080858703121561541b578182fd5b843561542681615cbf565b809450506020850135925061543d60408601615198565b9150606085013561544d81615cbf565b809150505b92959194509250565b600060006000600060808587031215615472578182fd5b843561547d81615cbf565b80945050602085013561548f81615cbf565b8093505060408501356154a181615cbf565b8092505060608501356154b381615cbf565b809150505b92959194509250565b6000602082840312156154d2578081fd5b813561ffff8116811415156154e5578182fd5b809150505b92915050565b600060208284031215615501578081fd5b813590505b92915050565b60006020828403121561551d578081fd5b815190505b92915050565b600060208284031215615539578081fd5b813561554481615ce8565b809150505b92915050565b600060208284031215615560578081fd5b815161556b81615ce8565b809150505b92915050565b6000600060408385031215615589578182fd5b823561559481615ce8565b809250506155a460208401615198565b90505b9250929050565b600081518084526155c6816020860160208601615c8a565b60207fffffffffffffffffffffffffffffffffffffffffffffffffffffffffffffffe0601f8301168501019150505b92915050565b60007fffffffff00000000000000000000000000000000000000000000000000000000841682528251615635816004850160208701615c8a565b6004818401019150505b9392505050565b60008251615658818460208701615c8a565b8083019150505b92915050565b600060208201905073ffffffffffffffffffffffffffffffffffffffff831682525b92915050565b600060408201905073ffffffffffffffffffffffffffffffffffffffff8416825267ffffffffffffffff831660208301525b9392505050565b600060608201905073ffffffffffffffffffffffffffffffffffffffff80861683528085166020840152508260408301525b949350505050565b600060408201905073ffffffffffffffffffffffffffffffffffffffff841682528260208301525b9392505050565b600060408201905073ffffffffffffffffffffffffffffffffffffffff8416825267ffffffffffffffff831660208301525b9392505050565b600060208201905082151582525b92915050565b600083151582526040602083015261579760408301846155ae565b90505b9392505050565b600060208201905073ffffffffffffffffffffffffffffffffffffffff831682525b92915050565b600060208201905073ffffffffffffffffffffffffffffffffffffffff831682525b92915050565b600060208201905073ffffffffffffffffffffffffffffffffffffffff831682525b92915050565b600060208201905073ffffffffffffffffffffffffffffffffffffffff831682525b92915050565b60006020825261585460208301846155ae565b90505b92915050565b600060208252601560208301527f496e76616c6964206c6f636b206475726174696f6e000000000000000000000060408301526060820190505b919050565b600060208252601160208301527f556e737570706f7274656420746f6b656e00000000000000000000000000000060408301526060820190505b919050565b600060208252601b60208301527f4d75737420696e637265617365206c6f636b206475726174696f6e000000000060408301526060820190505b919050565b600060208252600e60208301527f4e6f7420417574686f72697a656400000000000000000000000000000000000060408301526060820190505b919050565b600060208252600460208301527f4e6f6f700000000000000000000000000000000000000000000000000000000060408301526060820190505b919050565b600060208252601260208301527f416374696f6e20626c61636b6c6973746564000000000000000000000000000060408301526060820190505b919050565b600060208252600c60208301527f5374696c6c206c6f636b6564000000000000000000000000000000000000000060408301526060820190505b919050565b600060208252600c60208301527f506f736974696f6e20444e45000000000000000000000000000000000000000060408301526060820190505b919050565b600060208252601260208301527f416c6c6f746d656e74206578636565646564000000000000000000000000000060408301526060820190505b919050565b600060208252600e60208301527f4e6f74206120636f6e747261637400000000000000000000000000000000000060408301526060820190505b919050565b600060208252601460208301527f436f6e747261637420616c72656164792073657400000000000000000000000060408301526060820190505b919050565b600060208252601660208301527f4d6f7265207468616e203225206f6620737570706c790000000000000000000060408301526060820190505b919050565b600060e082019050825182526020830151602083015260408301516040830152606083015167ffffffffffffffff80821660608501528060808601511660808501528060a08601511660a0850152505061ffff60c08401511660c08301525b92915050565b600060408201905082518252602083015160208301525b92915050565b600060208201905061ffff831682525b92915050565b60006040820190507effffffffffffffffffffffffffffffffffffffffffffffffffffffffffffff8416825282151560208301525b9392505050565b60006020820190508282525b92915050565b600060408201905083825282151560208301525b9392505050565b600060208201905067ffffffffffffffff831682525b92915050565b600060208201905067ffffffffffffffff831682525b92915050565b60005b83811015615ca95780820151818401525b602081019050615c8d565b83811115615cb8576000848401525b505b505050565b73ffffffffffffffffffffffffffffffffffffffff811681141515615ce45760006000fd5b5b50565b67ffffffffffffffff811681141515615d015760006000fd5b5b50565bfea26469706673582212202559d9e4c4fbb4f2db7f9003ae658b2344c4e90a12c5156bbbf0cd93cc79ffeb64736f6c6343000706003360a06040523480156100115760006000fd5b505b3373ffffffffffffffffffffffffffffffffffffffff1660808173ffffffffffffffffffffffffffffffffffffffff1660601b815260140150505b610053565b60805160601c6104356100746000398060e652806101d152506104356000f3fe60806040523480156100115760006000fd5b506004361061003b5760003560e01c8063d1660f9914610041578063de9375f2146100b05761003b565b60006000fd5b6100ae600480360360608110156100585760006000fd5b81019080803573ffffffffffffffffffffffffffffffffffffffff169060200190929190803573ffffffffffffffffffffffffffffffffffffffff169060200190929190803590602001909291905050506100e4565b005b6100b86101cf565b604051808273ffffffffffffffffffffffffffffffffffffffff16815260200191505060405180910390f35b7f000000000000000000000000000000000000000000000000000000000000000073ffffffffffffffffffffffffffffffffffffffff163373ffffffffffffffffffffffffffffffffffffffff161415156101aa576040517f08c379a000000000000000000000000000000000000000000000000000000000815260040180806020018281038252600e8152602001807f4e6f7420417574686f72697a656400000000000000000000000000000000000081526020015060200191505060405180910390fd5b60008114156101b8576101ca565b6101c98383836101f363ffffffff16565b5b505050565b7f000000000000000000000000000000000000000000000000000000000000000081565b600060008473ffffffffffffffffffffffffffffffffffffffff1663a9059cbb60e01b8585604051602401808373ffffffffffffffffffffffffffffffffffffffff16815260200182815260200192505050604051602081830303815290604052907bffffffffffffffffffffffffffffffffffffffffffffffffffffffff19166020820180517bffffffffffffffffffffffffffffffffffffffffffffffffffffffff83818316178352505050506040518082805190602001908083835b6020831015156102d857805182525b6020820191506020810190506020830392506102b2565b6001836020036101000a0380198251168184511680821785525050505050509050019150506000604051808303816000865af19150503d806000811461033a576040519150601f19603f3d011682016040523d82523d6000602084013e61033f565b606091505b5091509150818015610380575060008151148061037f575080806020019051602081101561036d5760006000fd5b81019080805190602001909291905050505b5b15156103f7576040517f08c379a00000000000000000000000000000000000000000000000000000000081526004018080602001828103825260028152602001807f535400000000000000000000000000000000000000000000000000000000000081526020015060200191505060405180910390fd5b50505b50505056fea2646970667358221220a09fa674e24bee1d9e1df7bc0570046e4c432e836610f7a105a97cba2ac2d0cf64736f6c63430007060033",
  "linkReferences": {},
  "deployedLinkReferences": {}
}