{
  "_format": "hh-sol-artifact-1",
  "contractName": "TDao",
  "sourceName": "contracts/core/TDao/TDao.sol",
  "abi": [
    {
      "inputs": [
        {
          "internalType": "address",
          "name": "_guardian",
          "type": "address"
        }
      ],
      "stateMutability": "nonpayable",
      "type": "constructor"
    },
    {
      "anonymous": false,
      "inputs": [
        {
          "indexed": true,
          "internalType": "address",
          "name": "token",
          "type": "address"
        },
        {
          "indexed": false,
          "internalType": "uint256",
          "name": "count",
          "type": "uint256"
        }
      ],
      "name": "IncentiveMinted",
      "type": "event"
    },
    {
      "anonymous": false,
      "inputs": [
        {
          "indexed": true,
          "internalType": "uint64",
          "name": "currentPeriod",
          "type": "uint64"
        },
        {
          "indexed": false,
          "internalType": "uint64",
          "name": "periods",
          "type": "uint64"
        }
      ],
      "name": "InflationAccrued",
      "type": "event"
    },
    {
      "anonymous": false,
      "inputs": [
        {
          "indexed": true,
          "internalType": "address",
          "name": "_contract",
          "type": "address"
        }
      ],
      "name": "LiquidationIncentiveContractSet",
      "type": "event"
    },
    {
      "anonymous": false,
      "inputs": [
        {
          "indexed": true,
          "internalType": "uint64",
          "name": "positionNFTTokenID",
          "type": "uint64"
        },
        {
          "indexed": true,
          "internalType": "uint16",
          "name": "lockDurationMonths",
          "type": "uint16"
        }
      ],
      "name": "LockDurationIncrease",
      "type": "event"
    },
    {
      "anonymous": false,
      "inputs": [
        {
          "indexed": true,
          "internalType": "uint64",
          "name": "positionNFTTokenID",
          "type": "uint64"
        },
        {
          "indexed": true,
          "internalType": "address",
          "name": "owner",
          "type": "address"
        }
      ],
      "name": "RewardsClaimed",
      "type": "event"
    },
    {
      "anonymous": false,
      "inputs": [],
      "name": "TDaoStarted",
      "type": "event"
    },
    {
      "anonymous": false,
      "inputs": [
        {
          "indexed": true,
          "internalType": "address",
          "name": "token",
          "type": "address"
        }
      ],
      "name": "TokenAdded",
      "type": "event"
    },
    {
      "anonymous": false,
      "inputs": [
        {
          "indexed": true,
          "internalType": "uint16",
          "name": "tokenID",
          "type": "uint16"
        },
        {
          "indexed": true,
          "internalType": "address",
          "name": "initialOwner",
          "type": "address"
        },
        {
          "indexed": true,
          "internalType": "uint8",
          "name": "lockDurationMonths",
          "type": "uint8"
        },
        {
          "indexed": false,
          "internalType": "uint256",
          "name": "count",
          "type": "uint256"
        }
      ],
      "name": "TokensLocked",
      "type": "event"
    },
    {
      "anonymous": false,
      "inputs": [
        {
          "indexed": true,
          "internalType": "uint16",
          "name": "tokenID",
          "type": "uint16"
        },
        {
          "indexed": true,
          "internalType": "address",
          "name": "owner",
          "type": "address"
        },
        {
          "indexed": false,
          "internalType": "uint256",
          "name": "count",
          "type": "uint256"
        }
      ],
      "name": "TokensUnlocked",
      "type": "event"
    },
    {
      "inputs": [],
      "name": "accrueInflation",
      "outputs": [],
      "stateMutability": "nonpayable",
      "type": "function"
    },
    {
      "inputs": [
        {
          "internalType": "contract IERC20",
          "name": "token",
          "type": "address"
        }
      ],
      "name": "addToken",
      "outputs": [],
      "stateMutability": "nonpayable",
      "type": "function"
    },
    {
      "inputs": [
        {
          "internalType": "bytes4",
          "name": "",
          "type": "bytes4"
        }
      ],
      "name": "blacklistedAction",
      "outputs": [
        {
          "internalType": "bool",
          "name": "",
          "type": "bool"
        }
      ],
      "stateMutability": "view",
      "type": "function"
    },
    {
      "inputs": [],
      "name": "countUnderlyingProtocolTokens",
      "outputs": [
        {
          "internalType": "uint16",
          "name": "",
          "type": "uint16"
        }
      ],
      "stateMutability": "view",
      "type": "function"
    },
    {
      "inputs": [],
      "name": "currentPeriod",
      "outputs": [
        {
          "internalType": "uint64",
          "name": "period",
          "type": "uint64"
        }
      ],
      "stateMutability": "view",
      "type": "function"
    },
    {
      "inputs": [],
      "name": "dailyProtocolTDaoIncentiveCount",
      "outputs": [
        {
          "internalType": "uint256",
          "name": "",
          "type": "uint256"
        }
      ],
      "stateMutability": "view",
      "type": "function"
    },
    {
      "inputs": [],
      "name": "deployer",
      "outputs": [
        {
          "internalType": "address",
          "name": "",
          "type": "address"
        }
      ],
      "stateMutability": "view",
      "type": "function"
    },
    {
      "inputs": [
        {
          "internalType": "address",
          "name": "target",
          "type": "address"
        },
        {
          "internalType": "string",
          "name": "signature",
          "type": "string"
        },
        {
          "internalType": "bytes",
          "name": "data",
          "type": "bytes"
        }
      ],
      "name": "execute",
      "outputs": [
        {
          "internalType": "bool",
          "name": "success",
          "type": "bool"
        },
        {
          "internalType": "bytes",
          "name": "returnData",
          "type": "bytes"
        }
      ],
      "stateMutability": "nonpayable",
      "type": "function"
    },
    {
      "inputs": [
        {
          "internalType": "uint256",
          "name": "metaProposalID",
          "type": "uint256"
        }
      ],
      "name": "executeMetaProposalVote",
      "outputs": [],
      "stateMutability": "nonpayable",
      "type": "function"
    },
    {
      "inputs": [],
      "name": "firstPeriod",
      "outputs": [
        {
          "internalType": "uint64",
          "name": "",
          "type": "uint64"
        }
      ],
      "stateMutability": "view",
      "type": "function"
    },
    {
      "inputs": [
        {
          "internalType": "uint64",
          "name": "positionNFTTokenID",
          "type": "uint64"
        }
      ],
      "name": "getPosition",
      "outputs": [
        {
          "components": [
            {
              "internalType": "uint256",
              "name": "count",
              "type": "uint256"
            },
            {
              "internalType": "uint256",
              "name": "startTotalRewards",
              "type": "uint256"
            },
            {
              "internalType": "uint256",
              "name": "startCumulativeVirtualCount",
              "type": "uint256"
            },
            {
              "internalType": "uint64",
              "name": "lastPeriodUpdated",
              "type": "uint64"
            },
            {
              "internalType": "uint64",
              "name": "endPeriod",
              "type": "uint64"
            },
            {
              "internalType": "uint64",
              "name": "durationMonths",
              "type": "uint64"
            },
            {
              "internalType": "uint16",
              "name": "tokenID",
              "type": "uint16"
            }
          ],
          "internalType": "struct ITDao.TokenPosition",
          "name": "",
          "type": "tuple"
        }
      ],
      "stateMutability": "view",
      "type": "function"
    },
    {
      "inputs": [
        {
          "internalType": "uint64[]",
          "name": "positionNFTTokenIDs",
          "type": "uint64[]"
        }
      ],
      "name": "getRewards",
      "outputs": [],
      "stateMutability": "nonpayable",
      "type": "function"
    },
    {
      "inputs": [
        {
          "internalType": "uint16",
          "name": "_tokenID",
          "type": "uint16"
        }
      ],
      "name": "getRewardsStatus",
      "outputs": [
        {
          "components": [
            {
              "internalType": "uint256",
              "name": "cumulativeVirtualCount",
              "type": "uint256"
            },
            {
              "internalType": "uint256",
              "name": "totalRewards",
              "type": "uint256"
            }
          ],
          "internalType": "struct ITDao.TokenRewardsStatus",
          "name": "",
          "type": "tuple"
        }
      ],
      "stateMutability": "view",
      "type": "function"
    },
    {
      "inputs": [],
      "name": "guardian",
      "outputs": [
        {
          "internalType": "address",
          "name": "",
          "type": "address"
        }
      ],
      "stateMutability": "view",
      "type": "function"
    },
    {
      "inputs": [
        {
          "internalType": "uint16",
          "name": "",
          "type": "uint16"
        }
      ],
      "name": "idToToken",
      "outputs": [
        {
          "internalType": "contract IERC20",
          "name": "",
          "type": "address"
        }
      ],
      "stateMutability": "view",
      "type": "function"
    },
    {
      "inputs": [],
      "name": "incentiveContract",
      "outputs": [
        {
          "internalType": "address",
          "name": "",
          "type": "address"
        }
      ],
      "stateMutability": "view",
      "type": "function"
    },
    {
      "inputs": [
        {
          "internalType": "address",
          "name": "dest",
          "type": "address"
        },
        {
          "internalType": "uint256",
          "name": "count",
          "type": "uint256"
        }
      ],
      "name": "incentiveContractMint",
      "outputs": [],
      "stateMutability": "nonpayable",
      "type": "function"
    },
    {
      "inputs": [],
      "name": "incentivesStartPeriod",
      "outputs": [
        {
          "internalType": "uint64",
          "name": "",
          "type": "uint64"
        }
      ],
      "stateMutability": "view",
      "type": "function"
    },
    {
      "inputs": [
        {
          "internalType": "uint64",
          "name": "positionNFTTokenID",
          "type": "uint64"
        },
        {
          "internalType": "uint8",
          "name": "lockDurationMonths",
          "type": "uint8"
        }
      ],
      "name": "increaseLockDuration",
      "outputs": [],
      "stateMutability": "nonpayable",
      "type": "function"
    },
    {
      "inputs": [
        {
          "internalType": "contract IPositionNFT",
          "name": "_tDaoPositionNFT",
          "type": "address"
        },
        {
          "internalType": "contract IProtocolToken",
          "name": "_tDaoToken",
          "type": "address"
        },
        {
          "internalType": "address",
          "name": "_tDaoGovernorAlpha",
          "type": "address"
        },
        {
          "internalType": "address",
          "name": "_timelock",
          "type": "address"
        }
      ],
      "name": "init",
      "outputs": [],
      "stateMutability": "nonpayable",
      "type": "function"
    },
    {
      "inputs": [],
      "name": "lastPeriodGlobalInflationUpdated",
      "outputs": [
        {
          "internalType": "uint64",
          "name": "",
          "type": "uint64"
        }
      ],
      "stateMutability": "view",
      "type": "function"
    },
    {
      "inputs": [
        {
          "internalType": "contract IERC20",
          "name": "token",
          "type": "address"
        },
        {
          "internalType": "uint256",
          "name": "count",
          "type": "uint256"
        },
        {
          "internalType": "uint8",
          "name": "lockDurationMonths",
          "type": "uint8"
        },
        {
          "internalType": "address",
          "name": "to",
          "type": "address"
        }
      ],
      "name": "lockTokens",
      "outputs": [
        {
          "internalType": "uint64",
          "name": "positionNFTTokenID",
          "type": "uint64"
        }
      ],
      "stateMutability": "nonpayable",
      "type": "function"
    },
    {
      "inputs": [
        {
          "internalType": "address",
          "name": "dest",
          "type": "address"
        },
        {
          "internalType": "uint256",
          "name": "count",
          "type": "uint256"
        }
      ],
      "name": "mintIncentive",
      "outputs": [],
      "stateMutability": "nonpayable",
      "type": "function"
    },
    {
      "inputs": [
        {
          "internalType": "address",
          "name": "dest",
          "type": "address"
        },
        {
          "internalType": "uint256",
          "name": "count",
          "type": "uint256"
        }
      ],
      "name": "mintVotingRewards",
      "outputs": [],
      "stateMutability": "nonpayable",
      "type": "function"
    },
    {
      "inputs": [],
      "name": "periodLength",
      "outputs": [
        {
          "internalType": "uint64",
          "name": "",
          "type": "uint64"
        }
      ],
      "stateMutability": "view",
      "type": "function"
    },
    {
      "inputs": [
        {
          "internalType": "uint64",
          "name": "period",
          "type": "uint64"
        }
      ],
      "name": "periodToTime",
      "outputs": [
        {
          "internalType": "uint64",
          "name": "",
          "type": "uint64"
        }
      ],
      "stateMutability": "view",
      "type": "function"
    },
    {
      "inputs": [
        {
          "internalType": "uint64",
          "name": "positionNFTTokenID",
          "type": "uint64"
        }
      ],
      "name": "positionIsAbleToBeUnlocked",
      "outputs": [
        {
          "internalType": "bool",
          "name": "",
          "type": "bool"
        }
      ],
      "stateMutability": "view",
      "type": "function"
    },
    {
      "inputs": [
        {
          "internalType": "contract IERC20",
          "name": "token",
          "type": "address"
        }
      ],
      "name": "selfDelegate",
      "outputs": [],
      "stateMutability": "nonpayable",
      "type": "function"
    },
    {
      "inputs": [
        {
          "internalType": "address",
          "name": "governorAlpha",
          "type": "address"
        },
        {
          "internalType": "uint256",
          "name": "proposalID",
          "type": "uint256"
        },
        {
          "internalType": "address",
          "name": "voter",
          "type": "address"
        },
        {
          "internalType": "uint256",
          "name": "votePortion",
          "type": "uint256"
        }
      ],
      "name": "sendUnderlyingVotingRewards",
      "outputs": [],
      "stateMutability": "nonpayable",
      "type": "function"
    },
    {
      "inputs": [
        {
          "internalType": "contract IERC20",
          "name": "firstToken",
          "type": "address"
        }
      ],
      "name": "setFirstToken",
      "outputs": [],
      "stateMutability": "nonpayable",
      "type": "function"
    },
    {
      "inputs": [
        {
          "internalType": "address",
          "name": "_contract",
          "type": "address"
        }
      ],
      "name": "setIncentiveContract",
      "outputs": [],
      "stateMutability": "nonpayable",
      "type": "function"
    },
    {
      "inputs": [],
      "name": "start",
      "outputs": [],
      "stateMutability": "nonpayable",
      "type": "function"
    },
    {
      "inputs": [],
      "name": "startPeriod",
      "outputs": [
        {
          "internalType": "uint64",
          "name": "",
          "type": "uint64"
        }
      ],
      "stateMutability": "view",
      "type": "function"
    },
    {
      "inputs": [],
      "name": "tDaoGovernorAlpha",
      "outputs": [
        {
          "internalType": "address",
          "name": "",
          "type": "address"
        }
      ],
      "stateMutability": "view",
      "type": "function"
    },
    {
      "inputs": [],
      "name": "tDaoPositionNFT",
      "outputs": [
        {
          "internalType": "contract IPositionNFT",
          "name": "",
          "type": "address"
        }
      ],
      "stateMutability": "view",
      "type": "function"
    },
    {
      "inputs": [],
      "name": "tDaoToken",
      "outputs": [
        {
          "internalType": "contract IProtocolToken",
          "name": "",
          "type": "address"
        }
      ],
      "stateMutability": "view",
      "type": "function"
    },
    {
      "inputs": [],
      "name": "timelock",
      "outputs": [
        {
          "internalType": "address",
          "name": "",
          "type": "address"
        }
      ],
      "stateMutability": "view",
      "type": "function"
    },
    {
      "inputs": [
        {
          "internalType": "contract IERC20",
          "name": "",
          "type": "address"
        }
      ],
      "name": "tokenToID",
      "outputs": [
        {
          "internalType": "uint16",
          "name": "",
          "type": "uint16"
        }
      ],
      "stateMutability": "view",
      "type": "function"
    },
    {
      "inputs": [],
      "name": "totalIncentivesMinted",
      "outputs": [
        {
          "internalType": "uint256",
          "name": "",
          "type": "uint256"
        }
      ],
      "stateMutability": "view",
      "type": "function"
    },
    {
      "inputs": [
        {
          "internalType": "address",
          "name": "",
          "type": "address"
        },
        {
          "internalType": "uint256",
          "name": "",
          "type": "uint256"
        }
      ],
      "name": "underlyingTokenVoteRewardCount",
      "outputs": [
        {
          "internalType": "uint248",
          "name": "count",
          "type": "uint248"
        },
        {
          "internalType": "bool",
          "name": "isSet",
          "type": "bool"
        }
      ],
      "stateMutability": "view",
      "type": "function"
    },
    {
      "inputs": [
        {
          "internalType": "uint64",
          "name": "positionNFTTokenID",
          "type": "uint64"
        }
      ],
      "name": "unlockTokens",
      "outputs": [],
      "stateMutability": "nonpayable",
      "type": "function"
    },
    {
      "inputs": [
        {
          "internalType": "uint16",
          "name": "",
          "type": "uint16"
        }
      ],
      "name": "virtualCount",
      "outputs": [
        {
          "internalType": "uint256",
          "name": "",
          "type": "uint256"
        }
      ],
      "stateMutability": "view",
      "type": "function"
    },
    {
      "inputs": [],
      "name": "votingRewardsSafe",
      "outputs": [
        {
          "internalType": "contract TDaoVotingRewardsSafe",
          "name": "",
          "type": "address"
        }
      ],
      "stateMutability": "view",
      "type": "function"
    }
  ],
  "bytecode": "0x60e06040526001600760006101000a81548167ffffffffffffffff021916908367ffffffffffffffff1602179055503480156200003c5760006000fd5b50604051620066a0380380620066a08339818101604052810190620000629190620002a8565b5b5b620151805b60018167ffffffffffffffff1662000086620001df60201b60201c565b67ffffffffffffffff168115156200009a57fe5b040367ffffffffffffffff1660a08167ffffffffffffffff1660c01b815260080150508067ffffffffffffffff1660808167ffffffffffffffff1660c01b815260080150505b50600160006000508190909055505b80601060006101000a81548173ffffffffffffffffffffffffffffffffffffffff021916908373ffffffffffffffffffffffffffffffffffffffff1602179055506040516200013e9062000295565b604051809103906000f0801580156200015c573d600060003e3d6000fd5b5073ffffffffffffffffffffffffffffffffffffffff1660c08173ffffffffffffffffffffffffffffffffffffffff1660601b8152601401505033600f60006101000a81548173ffffffffffffffffffffffffffffffffffffffff021916908373ffffffffffffffffffffffffffffffffffffffff1602179055505b50620002df565b6000620001f9426200020160201b620037d317909060201c565b905080505b90565b6000680100000000000000008210151562000287576040517f08c379a00000000000000000000000000000000000000000000000000000000081526004018080602001828103825260118152602001807f6d6f7265207468616e203634206269747300000000000000000000000000000081526020015060200191505060405180910390fd5b81905062000290565b919050565b6104a980620061f78339019056620002de565b600060208284031215620002ba578081fd5b81516001600160a01b03811681141515620002d3578182fd5b809150505b92915050565b5b60805160c01c60a05160c01c60c05160601c615ec46200033360003980612af35280613119528061328b5250806134fb5280613b3b5280614a4452508061351f5280613b5c5280614a7d5250615ec46000f3fe60806040523480156100115760006000fd5b50600436106102ee5760003560e01c8063797250e411610192578063be9a6555116100e4578063d48bfca711610098578063f0f091c311610072578063f0f091c31461082e578063fcb3fa901461084a578063fd8067c314610866576102ee565b8063d48bfca7146107d6578063d5f39488146107f2578063d6c2875d14610810576102ee565b8063c4e3a63b116100c9578063c4e3a63b1461077c578063d2ca21151461079a578063d33219b4146107b8576102ee565b8063be9a655514610754578063c2cc16d91461075e576102ee565b80639383ac44116101465780639d8e0901116101205780639d8e0901146106ea578063ae4298331461071a578063b9f8ea6d14610738576102ee565b80639383ac4414610680578063955e232e1461069c5780639645383d146106cc576102ee565b806382b5e8891161017757806382b5e8891461061557806386fa81c71461063157806387bbac1b14610662576102ee565b8063797250e4146105c75780637ad31c98146105f7576102ee565b806327fb04741161024b578063452a9320116101ff578063526b8712116101d9578063526b87121461055b578063640bb8df146105795780636c6a4f3614610597576102ee565b8063452a9320146105055780634540137e146105235780634cd7a3151461053f576102ee565b806330bfb9bb1161023057806330bfb9bb1461048657806333daf5d4146104a4578063371f3d45146104d5576102ee565b806327fb0474146104265780632e74e62814610456576102ee565b806307e54f16116102a25780630f85fc5a116102875780630f85fc5a146103bc57806314706d85146103ec5780631a30c7021461040a576102ee565b806307e54f16146103705780630a889a8b146103a0576102ee565b806306552ff3116102d357806306552ff31461031c57806307818200146103385780630793298714610354576102ee565b8063020ac54a146102f457806306040618146102fe576102ee565b60006000fd5b6102fc610884565b005b610306610931565b6040516103139190615df6565b60405180910390f35b610336600480360381019061033191906155a4565b610949565b005b610352600480360381019061034d919061528a565b610bb4565b005b61036e6004803603810190610369919061537f565b610d93565b005b61038a60048036038101906103859190615526565b610f24565b6040516103979190615d5b565b60405180910390f35b6103ba60048036038101906103b59190615671565b610f4a565b005b6103d660048036038101906103d19190615671565b611489565b6040516103e39190615cd9565b60405180910390f35b6103f4611765565b6040516104019190615dad565b60405180910390f35b610424600480360381019061041f91906156bf565b611824565b005b610440600480360381019061043b919061554d565b611b7a565b60405161044d9190615df6565b60405180910390f35b610470600480360381019061046b9190615671565b611f7b565b60405161047d91906158b1565b60405180910390f35b61048e612078565b60405161049b9190615df6565b60405180910390f35b6104be60048036038101906104b991906152d8565b612092565b6040516104cc9291906158c5565b60405180910390f35b6104ef60048036038101906104ea91906154d9565b612329565b6040516104fc91906158b1565b60405180910390f35b61050d61234e565b60405161051a91906157ae565b60405180910390f35b61053d60048036038101906105389190615441565b612374565b005b6105596004803603810190610554919061537f565b61258f565b005b6105636127f3565b6040516105709190615d5b565b60405180910390f35b610581612807565b60405161058e91906157ae565b60405180910390f35b6105b160048036038101906105ac919061560a565b61282d565b6040516105be9190615d3e565b60405180910390f35b6105e160048036038101906105dc919061560a565b61294e565b6040516105ee9190615dad565b60405180910390f35b6105ff612969565b60405161060c9190615dad565b60405180910390f35b61062f600480360381019061062a9190615526565b612972565b005b61064b6004803603810190610646919061537f565b612a82565b604051610659929190615d71565b60405180910390f35b61066a612af1565b6040516106779190615962565b60405180910390f35b61069a6004803603810190610695919061537f565b612b15565b005b6106b660048036038101906106b19190615671565b612d82565b6040516106c39190615df6565b60405180910390f35b6106d4612d9f565b6040516106e1919061593a565b60405180910390f35b61070460048036038101906106ff919061560a565b612dc5565b60405161071191906158ea565b60405180910390f35b610722612dfd565b60405161072f9190615912565b60405180910390f35b610752600480360381019061074d91906153b0565b612e23565b005b61075c6133dc565b005b6107666134d3565b60405161077391906157ae565b60405180910390f35b6107846134f9565b6040516107919190615df6565b60405180910390f35b6107a261351d565b6040516107af9190615df6565b60405180910390f35b6107c0613541565b6040516107cd91906157ae565b60405180910390f35b6107f060048036038101906107eb9190615526565b613567565b005b6107fa6135b8565b60405161080791906157ae565b60405180910390f35b6108186135de565b6040516108259190615df6565b60405180910390f35b61084860048036038101906108439190615526565b6135f8565b005b610864600480360381019061085f9190615639565b61368a565b005b61086e6137b9565b60405161087b9190615df6565b60405180910390f35b600260006000505414151515610905576040517f08c379a000000000000000000000000000000000000000000000000000000000815260040180806020018281038252601f8152602001807f5265656e7472616e637947756172643a207265656e7472616e742063616c6c0081526020015060200191505060405180910390fd5b6002600060005081909090555061092061386563ffffffff16565b5b600160006000508190909055505b565b6000610941613b3763ffffffff16565b905080505b90565b6109a8600f60009054906101000a900473ffffffffffffffffffffffffffffffffffffffff1673ffffffffffffffffffffffffffffffffffffffff163373ffffffffffffffffffffffffffffffffffffffff1614613bb063ffffffff16565b600f60006101000a81549073ffffffffffffffffffffffffffffffffffffffff021916905583600560006101000a81548173ffffffffffffffffffffffffffffffffffffffff021916908373ffffffffffffffffffffffffffffffffffffffff16021790555082600460006101000a81548173ffffffffffffffffffffffffffffffffffffffff021916908373ffffffffffffffffffffffffffffffffffffffff16021790555081600360006101000a81548173ffffffffffffffffffffffffffffffffffffffff021916908373ffffffffffffffffffffffffffffffffffffffff16021790555080600260006101000a81548173ffffffffffffffffffffffffffffffffffffffff021916908373ffffffffffffffffffffffffffffffffffffffff160217905550610ae763a9059cbb60e01b613bf663ffffffff16565b610afd6323b872dd60e01b613bf663ffffffff16565b610b1363095ea7b360e01b613bf663ffffffff16565b610b2963449a52f860e01b613bf663ffffffff16565b610b3f6379cc679060e01b613bf663ffffffff16565b610b556342966c6860e01b613bf663ffffffff16565b610b6b633950935160e01b613bf663ffffffff16565b610b8163a457c2d760e01b613bf663ffffffff16565b610b97633c4a25d060e01b613bf663ffffffff16565b610bad635c19a95c60e01b613bf663ffffffff16565b5b50505050565b610bf13073ffffffffffffffffffffffffffffffffffffffff163373ffffffffffffffffffffffffffffffffffffffff1614613bb063ffffffff16565b600073ffffffffffffffffffffffffffffffffffffffff16600160009054906101000a900473ffffffffffffffffffffffffffffffffffffffff1673ffffffffffffffffffffffffffffffffffffffff16141515610c84576040517f08c379a0000000000000000000000000000000000000000000000000000000008152600401610c7b90615c5b565b60405180910390fd5b610c9381613c6763ffffffff16565b1515610cd4576040517f08c379a0000000000000000000000000000000000000000000000000000000008152600401610ccb90615c1c565b60405180910390fd5b80600160006101000a81548173ffffffffffffffffffffffffffffffffffffffff021916908373ffffffffffffffffffffffffffffffffffffffff160217905550610d23613b3763ffffffff16565b601160006101000a81548167ffffffffffffffff021916908367ffffffffffffffff1602179055508073ffffffffffffffffffffffffffffffffffffffff167f6765bf0cc4e3defc42bfa6ac394241a5f702ee760529c922874f15c4ad35edc760405160405180910390a25b5b50565b600260006000505414151515610e14576040517f08c379a000000000000000000000000000000000000000000000000000000000815260040180806020018281038252601f8152602001807f5265656e7472616e637947756172643a207265656e7472616e742063616c6c0081526020015060200191505060405180910390fd5b60026000600050819090905550610e80600360009054906101000a900473ffffffffffffffffffffffffffffffffffffffff1673ffffffffffffffffffffffffffffffffffffffff163373ffffffffffffffffffffffffffffffffffffffff1614613bb063ffffffff16565b600460009054906101000a900473ffffffffffffffffffffffffffffffffffffffff1673ffffffffffffffffffffffffffffffffffffffff1663449a52f883836040518363ffffffff1660e01b8152600401610edd929190615849565b600060405180830381600087803b158015610ef85760006000fd5b505af1158015610f0d573d600060003e3d6000fd5b505050505b600160006000508190909055505b5050565b600b60005060205280600052604060002060009150909054906101000a900461ffff1681565b600260006000505414151515610fcb576040517f08c379a000000000000000000000000000000000000000000000000000000000815260040180806020018281038252601f8152602001807f5265656e7472616e637947756172643a207265656e7472616e742063616c6c0081526020015060200191505060405180910390fd5b60026000600050819090905550600033905061109a600560009054906101000a900473ffffffffffffffffffffffffffffffffffffffff1673ffffffffffffffffffffffffffffffffffffffff1663430c208183856040518363ffffffff1660e01b815260040161103d929190615878565b60206040518083038186803b1580156110565760006000fd5b505afa15801561106b573d600060003e3d6000fd5b505050506040513d601f19601f8201168201806040525081019061108f91906154b6565b613bb063ffffffff16565b60006110ab83613c8163ffffffff16565b90506110bb613b3763ffffffff16565b67ffffffffffffffff16816080015167ffffffffffffffff1611151515611117576040517f08c379a000000000000000000000000000000000000000000000000000000000815260040161110e90615b5f565b60405180910390fd5b61116661113282600001518360a00151613f4a63ffffffff16565b600960005060008460c0015161ffff1661ffff16815260200190815260200160002060005054613f7990919063ffffffff16565b600960005060008360c0015161ffff1661ffff168152602001908152602001600020600050819090905550600d60005060008467ffffffffffffffff1667ffffffffffffffff16815260200190815260200160002060006000820160006101000a8154906fffffffffffffffffffffffffffffffff02191690556000820160106101000a8154906fffffffffffffffffffffffffffffffff02191690556001820160006101000a81549076ffffffffffffffffffffffffffffffffffffffffffffff02191690556001820160176101000a81549061ffff02191690556001820160196101000a81549061ffff021916905560018201601b6101000a81549061ffff021916905560018201601d6101000a81549060ff021916905550506000600560009054906101000a900473ffffffffffffffffffffffffffffffffffffffff1673ffffffffffffffffffffffffffffffffffffffff16636352211e856040518263ffffffff1660e01b81526004016112df9190615dda565b60206040518083038186803b1580156112f85760006000fd5b505afa15801561130d573d600060003e3d6000fd5b505050506040513d601f19601f8201168201806040525081019061133191906152b1565b9050600560009054906101000a900473ffffffffffffffffffffffffffffffffffffffff1673ffffffffffffffffffffffffffffffffffffffff16639dbead42856040518263ffffffff1660e01b815260040161138e9190615df6565b600060405180830381600087803b1580156113a95760006000fd5b505af11580156113be573d600060003e3d6000fd5b505050508273ffffffffffffffffffffffffffffffffffffffff168260c0015161ffff167fbf347141bee0ba9c777fbef9a14008be9f56f2b2f90f0e63cfed8a96a3b506c784600001516040516114159190615dad565b60405180910390a3611474600c60005060008460c0015161ffff1661ffff16815260200190815260200160002060009054906101000a900473ffffffffffffffffffffffffffffffffffffffff1682846000015161400263ffffffff16565b5050505b600160006000508190909055505b50565b611491615146565b6000600d60005060008467ffffffffffffffff1667ffffffffffffffff1681526020019081526020016000206000506040518060e00160405290816000820160009054906101000a90046fffffffffffffffffffffffffffffffff166fffffffffffffffffffffffffffffffff166fffffffffffffffffffffffffffffffff1681526020016000820160109054906101000a90046fffffffffffffffffffffffffffffffff166fffffffffffffffffffffffffffffffff166fffffffffffffffffffffffffffffffff1681526020016001820160009054906101000a900476ffffffffffffffffffffffffffffffffffffffffffffff1676ffffffffffffffffffffffffffffffffffffffffffffff1676ffffffffffffffffffffffffffffffffffffffffffffff1681526020016001820160179054906101000a900461ffff1661ffff1661ffff1681526020016001820160199054906101000a900461ffff1661ffff1661ffff16815260200160018201601b9054906101000a900461ffff1661ffff1661ffff16815260200160018201601d9054906101000a900460ff1660ff1660ff16815260200150509050600081600001516fffffffffffffffffffffffffffffffff1611151561169b576040517f08c379a000000000000000000000000000000000000000000000000000000000815260040161169290615b9e565b60405180910390fd5b6040518060e0016040528082600001516fffffffffffffffffffffffffffffffff16815260200182602001516fffffffffffffffffffffffffffffffff168152602001826040015176ffffffffffffffffffffffffffffffffffffffffffffff168152602001826060015161ffff1667ffffffffffffffff168152602001826080015161ffff1667ffffffffffffffff1681526020018260c0015160ff1667ffffffffffffffff1681526020018260a0015161ffff1681526020015091505061176056505b919050565b60006000601060149054906101000a900467ffffffffffffffff1667ffffffffffffffff1614156117995760009050611821565b600073ffffffffffffffffffffffffffffffffffffffff16600160009054906101000a900473ffffffffffffffffffffffffffffffffffffffff1673ffffffffffffffffffffffffffffffffffffffff1614151561180f5769021e19e0c9bab240000069152d02c7e14af6800000039050611821565b69152d02c7e14af68000009050611821565b90565b6002600060005054141515156118a5576040517f08c379a000000000000000000000000000000000000000000000000000000000815260040180806020018281038252601f8152602001807f5265656e7472616e637947756172643a207265656e7472616e742063616c6c0081526020015060200191505060405180910390fd5b600260006000508190909055506118c18161420e63ffffffff16565b6000339050611983600560009054906101000a900473ffffffffffffffffffffffffffffffffffffffff1673ffffffffffffffffffffffffffffffffffffffff1663430c208183866040518363ffffffff1660e01b8152600401611926929190615878565b60206040518083038186803b15801561193f5760006000fd5b505afa158015611954573d600060003e3d6000fd5b505050506040513d601f19601f8201168201806040525081019061197891906154b6565b613bb063ffffffff16565b600061199484613c8163ffffffff16565b90508060a0015167ffffffffffffffff168360ff1667ffffffffffffffff161115156119f5576040517f08c379a00000000000000000000000000000000000000000000000000000000081526004016119ec90615a63565b60405180910390fd5b611a6c611a0f82600001518560ff16613f4a63ffffffff16565b611a5e611a2a84600001518560a00151613f4a63ffffffff16565b600960005060008660c0015161ffff1661ffff16815260200190815260200160002060005054613f7990919063ffffffff16565b6142ae90919063ffffffff16565b600960005060008360c0015161ffff1661ffff168152602001908152602001600020600050819090905550611ad2611aac8460ff1661433763ffffffff16565b611aba613b3763ffffffff16565b67ffffffffffffffff1661437a90919063ffffffff16565b816080019067ffffffffffffffff16908167ffffffffffffffff16815260200150508260ff168160a0019067ffffffffffffffff16908167ffffffffffffffff1681526020015050611b2a848261441763ffffffff16565b8260ff168467ffffffffffffffff167fb39e6330051c3e584367d7d1f1ff3fb0cdd824478fd7d7f257005c83c010b8a160405160405180910390a350505b600160006000508190909055505b5050565b6000600260006000505414151515611bfd576040517f08c379a000000000000000000000000000000000000000000000000000000000815260040180806020018281038252601f8152602001807f5265656e7472616e637947756172643a207265656e7472616e742063616c6c0081526020015060200191505060405180910390fd5b600260006000508190909055506000600b60005060008773ffffffffffffffffffffffffffffffffffffffff1673ffffffffffffffffffffffffffffffffffffffff16815260200190815260200160002060009054906101000a900461ffff16905060008161ffff16111515611ca8576040517f08c379a0000000000000000000000000000000000000000000000000000000008152600401611c9f90615a24565b60405180910390fd5b600085111515611ced576040517f08c379a0000000000000000000000000000000000000000000000000000000008152600401611ce490615ae1565b60405180910390fd5b611cfc8461420e63ffffffff16565b611d0a61386563ffffffff16565b6000611d1b8261282d63ffffffff16565b9050611d63611d33878760ff16613f4a63ffffffff16565b600960005060008561ffff1661ffff168152602001908152602001600020600050546142ae90919063ffffffff16565b600960005060008461ffff1661ffff168152602001908152602001600020600050819090905550600560009054906101000a900473ffffffffffffffffffffffffffffffffffffffff1673ffffffffffffffffffffffffffffffffffffffff1663755edd17856040518263ffffffff1660e01b8152600401611de591906157ae565b602060405180830381600087803b158015611e005760006000fd5b505af1158015611e15573d600060003e3d6000fd5b505050506040513d601f19601f82011682018060405250810190611e399190615698565b925082506000611e4d613b3763ffffffff16565b9050611eee846040518060e001604052808a815260200185602001518152602001856000015181526020018467ffffffffffffffff168152602001611eb6611e9d8b60ff1661433763ffffffff16565b8667ffffffffffffffff1661437a90919063ffffffff16565b67ffffffffffffffff1681526020018960ff1667ffffffffffffffff1681526020018661ffff1681526020015061441763ffffffff16565b611f008833308a6146bd63ffffffff16565b8560ff168573ffffffffffffffffffffffffffffffffffffffff168461ffff167ffd5af8482cd27088275e2c1370259ff534cf1c987cf2105e24da196377e5c98d8a604051611f4f9190615dad565b60405180910390a4839350505050611f65565050505b600160006000508190909055505b949350505050565b60006000600d60005060008467ffffffffffffffff1667ffffffffffffffff168152602001908152602001600020600050600101601b9054906101000a900461ffff1661ffff1614151515612005576040517f08c379a0000000000000000000000000000000000000000000000000000000008152600401611ffc906159a6565b60405180910390fd5b612013613b3763ffffffff16565b67ffffffffffffffff16600d60005060008467ffffffffffffffff1667ffffffffffffffff16815260200190815260200160002060005060010160199054906101000a900461ffff1661ffff1667ffffffffffffffff1611159050612073565b919050565b601060149054906101000a900467ffffffffffffffff1681565b60006060600260006000505414151515612117576040517f08c379a000000000000000000000000000000000000000000000000000000000815260040180806020018281038252601f8152602001807f5265656e7472616e637947756172643a207265656e7472616e742063616c6c0081526020015060200191505060405180910390fd5b60026000600050819090905550612183600260009054906101000a900473ffffffffffffffffffffffffffffffffffffffff1673ffffffffffffffffffffffffffffffffffffffff163373ffffffffffffffffffffffffffffffffffffffff1614613bb063ffffffff16565b6000612194856148e863ffffffff16565b9050600e6000506000827bffffffffffffffffffffffffffffffffffffffffffffffffffffffff19167bffffffffffffffffffffffffffffffffffffffffffffffffffffffff1916815260200190815260200160002060009054906101000a900460ff1615151561223a576040517f08c379a000000000000000000000000000000000000000000000000000000000815260040161223190615b20565b60405180910390fd5b8573ffffffffffffffffffffffffffffffffffffffff168185604051602001612264929190615744565b604051602081830303815290604052604051612280919061578f565b6000604051808303816000865af19150503d80600081146122bd576040519150601f19603f3d011682016040523d82523d6000602084013e6122c2565b606091505b5080935081945050508282901515612310576040517f08c379a0000000000000000000000000000000000000000000000000000000008152600401612307919061598a565b60405180910390fd5b50505b600160006000508190909055505b935093915050565b600e60005060205280600052604060002060009150909054906101000a900460ff1681565b601060009054906101000a900473ffffffffffffffffffffffffffffffffffffffff1681565b6002600060005054141515156123f5576040517f08c379a000000000000000000000000000000000000000000000000000000000815260040180806020018281038252601f8152602001807f5265656e7472616e637947756172643a207265656e7472616e742063616c6c0081526020015060200191505060405180910390fd5b6002600060005081909090555060006000600090505b8383905081101561257a57838382818110151561242457fe5b90506020020160208101906124399190615671565b915081506124fa600560009054906101000a900473ffffffffffffffffffffffffffffffffffffffff1673ffffffffffffffffffffffffffffffffffffffff1663430c208133856040518363ffffffff1660e01b815260040161249d9291906157d6565b60206040518083038186803b1580156124b65760006000fd5b505afa1580156124cb573d600060003e3d6000fd5b505050506040513d601f19601f820116820180604052508101906124ef91906154b6565b613bb063ffffffff16565b600061250b83613c8163ffffffff16565b905061251d838261441763ffffffff16565b3373ffffffffffffffffffffffffffffffffffffffff168367ffffffffffffffff167f39c278b054e152450e4295bdf59d7edbaba35cb21d4248658680e61dac39eebb60405160405180910390a3505b808060010191505061240b565b50505b600160006000508190909055505b5050565b6125cc3073ffffffffffffffffffffffffffffffffffffffff163373ffffffffffffffffffffffffffffffffffffffff1614613bb063ffffffff16565b6032600460009054906101000a900473ffffffffffffffffffffffffffffffffffffffff1673ffffffffffffffffffffffffffffffffffffffff166318160ddd6040518163ffffffff1660e01b815260040160206040518083038186803b1580156126375760006000fd5b505afa15801561264c573d600060003e3d6000fd5b505050506040513d601f19601f820116820180604052508101906126709190615655565b81151561267957fe5b0481111515156126be576040517f08c379a00000000000000000000000000000000000000000000000000000000081526004016126b590615c9a565b60405180910390fd5b6126cd82613c6763ffffffff16565b151561270e576040517f08c379a000000000000000000000000000000000000000000000000000000000815260040161270590615c1c565b60405180910390fd5b600460009054906101000a900473ffffffffffffffffffffffffffffffffffffffff1673ffffffffffffffffffffffffffffffffffffffff1663449a52f883836040518363ffffffff1660e01b815260040161276b929190615849565b600060405180830381600087803b1580156127865760006000fd5b505af115801561279b573d600060003e3d6000fd5b505050508173ffffffffffffffffffffffffffffffffffffffff167f15c222d39f56077620782fcc367cdd020fddac1f6129c77ec7ca1c5025659dda826040516127e59190615dad565b60405180910390a25b5b5050565b600a60009054906101000a900461ffff1681565b600360009054906101000a900473ffffffffffffffffffffffffffffffffffffffff1681565b6128356151a8565b6000600860005060008461ffff1661ffff1681526020019081526020016000206000506040518060400160405290816000820160009054906101000a90046fffffffffffffffffffffffffffffffff166fffffffffffffffffffffffffffffffff166fffffffffffffffffffffffffffffffff1681526020016000820160109054906101000a90046fffffffffffffffffffffffffffffffff166fffffffffffffffffffffffffffffffff166fffffffffffffffffffffffffffffffff16815260200150509050604051806040016040528082600001516fffffffffffffffffffffffffffffffff16815260200182602001516fffffffffffffffffffffffffffffffff1681526020015091505061294956505b919050565b60096000506020528060005260406000206000915090505481565b60126000505481565b6000600b60005060008373ffffffffffffffffffffffffffffffffffffffff1673ffffffffffffffffffffffffffffffffffffffff16815260200190815260200160002060009054906101000a900461ffff16905060008161ffff16111515612a10576040517f08c379a0000000000000000000000000000000000000000000000000000000008152600401612a0790615a24565b60405180910390fd5b8173ffffffffffffffffffffffffffffffffffffffff16635c19a95c306040518263ffffffff1660e01b8152600401612a4991906157ae565b600060405180830381600087803b158015612a645760006000fd5b505af1158015612a79573d600060003e3d6000fd5b50505050505b50565b6006600050602052816000526040600020600050602052806000526040600020600091509150508060000160009054906101000a90047effffffffffffffffffffffffffffffffffffffffffffffffffffffffffffff169080600001601f9054906101000a900460ff16905082565b7f000000000000000000000000000000000000000000000000000000000000000081565b600260006000505414151515612b96576040517f08c379a000000000000000000000000000000000000000000000000000000000815260040180806020018281038252601f8152602001807f5265656e7472616e637947756172643a207265656e7472616e742063616c6c0081526020015060200191505060405180910390fd5b60026000600050819090905550612c02600160009054906101000a900473ffffffffffffffffffffffffffffffffffffffff1673ffffffffffffffffffffffffffffffffffffffff163373ffffffffffffffffffffffffffffffffffffffff1614613bb063ffffffff16565b6000612c1c826012600050546142ae90919063ffffffff16565b90506000612c8969021e19e0c9bab2400000612c71601160009054906101000a900467ffffffffffffffff166001612c58613b3763ffffffff16565b0167ffffffffffffffff166148fe90919063ffffffff16565b67ffffffffffffffff1661499b90919063ffffffff16565b9050808211151515612cd0576040517f08c379a0000000000000000000000000000000000000000000000000000000008152600401612cc790615bdd565b60405180910390fd5b816012600050819090905550600460009054906101000a900473ffffffffffffffffffffffffffffffffffffffff1673ffffffffffffffffffffffffffffffffffffffff1663449a52f885856040518363ffffffff1660e01b8152600401612d39929190615849565b600060405180830381600087803b158015612d545760006000fd5b505af1158015612d69573d600060003e3d6000fd5b5050505050505b600160006000508190909055505b5050565b6000612d9382614a3963ffffffff16565b9050612d9a565b919050565b600460009054906101000a900473ffffffffffffffffffffffffffffffffffffffff1681565b600c60005060205280600052604060002060009150909054906101000a900473ffffffffffffffffffffffffffffffffffffffff1681565b600560009054906101000a900473ffffffffffffffffffffffffffffffffffffffff1681565b612e82600360009054906101000a900473ffffffffffffffffffffffffffffffffffffffff1673ffffffffffffffffffffffffffffffffffffffff163373ffffffffffffffffffffffffffffffffffffffff1614613bb063ffffffff16565b60008473ffffffffffffffffffffffffffffffffffffffff16637e90f9ab6040518163ffffffff1660e01b815260040160206040518083038186803b158015612ecb5760006000fd5b505afa158015612ee0573d600060003e3d6000fd5b505050506040513d601f19601f82011682018060405250810190612f0491906152b1565b9050600660005060008673ffffffffffffffffffffffffffffffffffffffff1673ffffffffffffffffffffffffffffffffffffffff1681526020019081526020016000206000506000858152602001908152602001600020600050600001601f9054906101000a900460ff1615156132895760008173ffffffffffffffffffffffffffffffffffffffff166370a08231306040518263ffffffff1660e01b8152600401612fb191906157ae565b60206040518083038186803b158015612fca5760006000fd5b505afa158015612fdf573d600060003e3d6000fd5b505050506040513d601f19601f820116820180604052508101906130039190615655565b90508573ffffffffffffffffffffffffffffffffffffffff1663b525867f866040518263ffffffff1660e01b815260040161303e9190615dad565b600060405180830381600087803b1580156130595760006000fd5b505af115801561306e573d600060003e3d6000fd5b505050506000613111828473ffffffffffffffffffffffffffffffffffffffff166370a08231306040518263ffffffff1660e01b81526004016130b191906157ae565b60206040518083038186803b1580156130ca5760006000fd5b505afa1580156130df573d600060003e3d6000fd5b505050506040513d601f19601f820116820180604052508101906131039190615655565b613f7990919063ffffffff16565b9050613144837f00000000000000000000000000000000000000000000000000000000000000008361400263ffffffff16565b604051806040016040528061316083614abe909063ffffffff16565b7affffffffffffffffffffffffffffffffffffffffffffffffffffff167effffffffffffffffffffffffffffffffffffffffffffffffffffffffffffff16815260200160011515815260200150600660005060008973ffffffffffffffffffffffffffffffffffffffff1673ffffffffffffffffffffffffffffffffffffffff168152602001908152602001600020600050600088815260200190815260200160002060005060008201518160000160006101000a8154817effffffffffffffffffffffffffffffffffffffffffffffffffffffffffffff02191690837effffffffffffffffffffffffffffffffffffffffffffffffffffffffffffff160217905550602082015181600001601f6101000a81548160ff02191690831515021790555090505050505b7f000000000000000000000000000000000000000000000000000000000000000073ffffffffffffffffffffffffffffffffffffffff1663d1660f99828561338286600660005060008c73ffffffffffffffffffffffffffffffffffffffff1673ffffffffffffffffffffffffffffffffffffffff16815260200190815260200160002060005060008b815260200190815260200160002060005060000160009054906101000a90047effffffffffffffffffffffffffffffffffffffffffffffffffffffffffffff167effffffffffffffffffffffffffffffffffffffffffffffffffffffffffffff16614b6390919063ffffffff16565b6040518463ffffffff1660e01b81526004016133a09392919061580f565b600060405180830381600087803b1580156133bb5760006000fd5b505af11580156133d0573d600060003e3d6000fd5b50505050505b50505050565b61343b601060009054906101000a900473ffffffffffffffffffffffffffffffffffffffff1673ffffffffffffffffffffffffffffffffffffffff163373ffffffffffffffffffffffffffffffffffffffff1614613bb063ffffffff16565b601060006101000a81549073ffffffffffffffffffffffffffffffffffffffff021916905561346e61386563ffffffff16565b61347c613b3763ffffffff16565b601060146101000a81548167ffffffffffffffff021916908367ffffffffffffffff1602179055507fe0c110dd4938fc8e228e75a489735745046395ad536dd80c35559debe653714760405160405180910390a15b565b600160009054906101000a900473ffffffffffffffffffffffffffffffffffffffff1681565b7f000000000000000000000000000000000000000000000000000000000000000081565b7f000000000000000000000000000000000000000000000000000000000000000081565b600260009054906101000a900473ffffffffffffffffffffffffffffffffffffffff1681565b6135a43073ffffffffffffffffffffffffffffffffffffffff163373ffffffffffffffffffffffffffffffffffffffff1614613bb063ffffffff16565b6135b381614b8963ffffffff16565b5b5b50565b600f60009054906101000a900473ffffffffffffffffffffffffffffffffffffffff1681565b600760009054906101000a900467ffffffffffffffff1681565b613677601060009054906101000a900473ffffffffffffffffffffffffffffffffffffffff1673ffffffffffffffffffffffffffffffffffffffff163373ffffffffffffffffffffffffffffffffffffffff1614801561366c57506000600a60009054906101000a900461ffff1661ffff16145b613bb063ffffffff16565b61368681614b8963ffffffff16565b5b50565b600060006000600360009054906101000a900473ffffffffffffffffffffffffffffffffffffffff1673ffffffffffffffffffffffffffffffffffffffff166383b0ce15856040518263ffffffff1660e01b81526004016136eb9190615dad565b60606040518083038186803b1580156137045760006000fd5b505afa158015613719573d600060003e3d6000fd5b505050506040513d601f19601f8201168201806040525081019061373d9190615400565b9250925092508273ffffffffffffffffffffffffffffffffffffffff166315373e3d83836040518363ffffffff1660e01b815260040161377e929190615dbf565b600060405180830381600087803b1580156137995760006000fd5b505af11580156137ae573d600060003e3d6000fd5b505050505050505b50565b601160009054906101000a900467ffffffffffffffff1681565b60006801000000000000000082101515613858576040517f08c379a00000000000000000000000000000000000000000000000000000000081526004018080602001828103825260118152602001807f6d6f7265207468616e203634206269747300000000000000000000000000000081526020015060200191505060405180910390fd5b819050613860565b919050565b6000613875613b3763ffffffff16565b9050600760009054906101000a900467ffffffffffffffff1667ffffffffffffffff168167ffffffffffffffff161115156138b05750613b35565b6000600760009054906101000a900467ffffffffffffffff16820390506000600a60009054906101000a900461ffff1661ffff1690506000816139138467ffffffffffffffff1661390561176563ffffffff16565b61499b90919063ffffffff16565b81151561391c57fe5b0490506139276151a8565b6000600190505b838161ffff16111515613ac35761394a8161282d63ffffffff16565b9150815060405180604001604052806139bd6139b061399d8967ffffffffffffffff16600960005060008861ffff1661ffff1681526020019081526020016000206000505461499b90919063ffffffff16565b86600001516142ae90919063ffffffff16565b614d08909063ffffffff16565b6fffffffffffffffffffffffffffffffff1681526020016139fb6139ee8686602001516142ae90919063ffffffff16565b614d08909063ffffffff16565b6fffffffffffffffffffffffffffffffff16815260200150600860005060008361ffff1661ffff16815260200190815260200160002060005060008201518160000160006101000a8154816fffffffffffffffffffffffffffffffff02191690836fffffffffffffffffffffffffffffffff16021790555060208201518160000160106101000a8154816fffffffffffffffffffffffffffffffff02191690836fffffffffffffffffffffffffffffffff1602179055509050505b808060010191505061392e565b5084600760006101000a81548167ffffffffffffffff021916908367ffffffffffffffff1602179055508467ffffffffffffffff167f5df8d820031efa286b254435a169e0eda922fa20c466be6471c6deaa51dc116585604051613b279190615df6565b60405180910390a250505050505b565b60007f00000000000000000000000000000000000000000000000000000000000000007f000000000000000000000000000000000000000000000000000000000000000067ffffffffffffffff16613b93614da263ffffffff16565b67ffffffffffffffff16811515613ba657fe5b0403905080505b90565b801515613bf2576040517f08c379a0000000000000000000000000000000000000000000000000000000008152600401613be990615aa2565b60405180910390fd5b5b50565b6001600e6000506000837bffffffffffffffffffffffffffffffffffffffffffffffffffffffff19167bffffffffffffffffffffffffffffffffffffffffffffffffffffffff1916815260200190815260200160002060006101000a81548160ff0219169083151502179055505b50565b60006000823b905060008111915050613c7c56505b919050565b613c89615146565b613c988261148963ffffffff16565b90508050613caa61386563ffffffff16565b600760009054906101000a900467ffffffffffffffff1667ffffffffffffffff16816060015167ffffffffffffffff16101515613ce957809050613f45565b6000613cfe8260c0015161282d63ffffffff16565b905060008260600151600760009054906101000a900467ffffffffffffffff160367ffffffffffffffff16613d4484604001518460000151613f7990919063ffffffff16565b811515613d4d57fe5b0490506000613d98613d7085602001518560200151613f7990919063ffffffff16565b83613d8987600001518860a00151613f4a63ffffffff16565b614dbd9092919063ffffffff16565b90506000811115613ee157600460009054906101000a900473ffffffffffffffffffffffffffffffffffffffff1673ffffffffffffffffffffffffffffffffffffffff1663449a52f8600560009054906101000a900473ffffffffffffffffffffffffffffffffffffffff1673ffffffffffffffffffffffffffffffffffffffff16636352211e886040518263ffffffff1660e01b8152600401613e3c9190615dda565b60206040518083038186803b158015613e555760006000fd5b505afa158015613e6a573d600060003e3d6000fd5b505050506040513d601f19601f82011682018060405250810190613e8e91906152b1565b836040518363ffffffff1660e01b8152600401613eac929190615849565b600060405180830381600087803b158015613ec75760006000fd5b505af1158015613edc573d600060003e3d6000fd5b505050505b8260200151846020019090818152602001505082600001518460400190908181526020015050613f15613b3763ffffffff16565b846060019067ffffffffffffffff16908167ffffffffffffffff1681526020015050839350505050613f45565050505b919050565b6000613f6c8267ffffffffffffffff16600c85614dbd9092919063ffffffff16565b9050613f73565b92915050565b60008282840391508111151515613ffb576040517f08c379a000000000000000000000000000000000000000000000000000000000815260040180806020018281038252600d8152602001807f7375622d756e646572666c6f770000000000000000000000000000000000000081526020015060200191505060405180910390fd5b5b92915050565b600060008473ffffffffffffffffffffffffffffffffffffffff1663a9059cbb60e01b8585604051602401808373ffffffffffffffffffffffffffffffffffffffff16815260200182815260200192505050604051602081830303815290604052907bffffffffffffffffffffffffffffffffffffffffffffffffffffffff19166020820180517bffffffffffffffffffffffffffffffffffffffffffffffffffffffff83818316178352505050506040518082805190602001908083835b6020831015156140e757805182525b6020820191506020810190506020830392506140c1565b6001836020036101000a0380198251168184511680821785525050505050509050019150506000604051808303816000865af19150503d8060008114614149576040519150601f19603f3d011682016040523d82523d6000602084013e61414e565b606091505b509150915081801561418f575060008151148061418e575080806020019051602081101561417c5760006000fd5b81019080805190602001909291905050505b5b1515614206576040517f08c379a00000000000000000000000000000000000000000000000000000000081526004018080602001828103825260028152602001807f535400000000000000000000000000000000000000000000000000000000000081526020015060200191505060405180910390fd5b50505b505050565b8060ff16600667ffffffffffffffff161115801561423a5750603067ffffffffffffffff168160ff1611155b801561426957506000600367ffffffffffffffff168260ff1681151561425c57fe5b0667ffffffffffffffff16145b15156142aa576040517f08c379a00000000000000000000000000000000000000000000000000000000081526004016142a1906159e5565b60405180910390fd5b5b50565b60008282840191508110151515614330576040517f08c379a000000000000000000000000000000000000000000000000000000000815260040180806020018281038252600c8152602001807f6164642d6f766572666c6f77000000000000000000000000000000000000000081526020015060200191505060405180910390fd5b5b92915050565b6000600c61435a61016d8467ffffffffffffffff16614ebe90919063ffffffff16565b67ffffffffffffffff1681151561436d57fe5b049050614375565b919050565b60008267ffffffffffffffff1682840191508167ffffffffffffffff1610151515614410576040517f08c379a000000000000000000000000000000000000000000000000000000000815260040180806020018281038252600c8152602001807f6164642d6f766572666c6f77000000000000000000000000000000000000000081526020015060200191505060405180910390fd5b5b92915050565b6040518060e001604052806144378360000151614d08909063ffffffff16565b6fffffffffffffffffffffffffffffffff1681526020016144638360200151614d08909063ffffffff16565b6fffffffffffffffffffffffffffffffff16815260200161448f8360400151614f8e909063ffffffff16565b76ffffffffffffffffffffffffffffffffffffffffffffff1681526020016144cc836060015167ffffffffffffffff1661502f909063ffffffff16565b61ffff1681526020016144f4836080015167ffffffffffffffff1661502f909063ffffffff16565b61ffff1681526020018260c0015161ffff16815260200161452a8360a0015167ffffffffffffffff166150bb909063ffffffff16565b60ff16815260200150600d60005060008467ffffffffffffffff1667ffffffffffffffff16815260200190815260200160002060005060008201518160000160006101000a8154816fffffffffffffffffffffffffffffffff02191690836fffffffffffffffffffffffffffffffff16021790555060208201518160000160106101000a8154816fffffffffffffffffffffffffffffffff02191690836fffffffffffffffffffffffffffffffff16021790555060408201518160010160006101000a81548176ffffffffffffffffffffffffffffffffffffffffffffff021916908376ffffffffffffffffffffffffffffffffffffffffffffff16021790555060608201518160010160176101000a81548161ffff021916908361ffff16021790555060808201518160010160196101000a81548161ffff021916908361ffff16021790555060a082015181600101601b6101000a81548161ffff021916908361ffff16021790555060c082015181600101601d6101000a81548160ff021916908360ff1602179055509050505b5050565b600060008573ffffffffffffffffffffffffffffffffffffffff166323b872dd60e01b868686604051602401808473ffffffffffffffffffffffffffffffffffffffff1681526020018373ffffffffffffffffffffffffffffffffffffffff1681526020018281526020019350505050604051602081830303815290604052907bffffffffffffffffffffffffffffffffffffffffffffffffffffffff19166020820180517bffffffffffffffffffffffffffffffffffffffffffffffffffffffff83818316178352505050506040518082805190602001908083835b6020831015156147c057805182525b60208201915060208101905060208303925061479a565b6001836020036101000a0380198251168184511680821785525050505050509050019150506000604051808303816000865af19150503d8060008114614822576040519150601f19603f3d011682016040523d82523d6000602084013e614827565b606091505b5091509150818015614868575060008151148061486757508080602001905160208110156148555760006000fd5b81019080805190602001909291905050505b5b15156148df576040517f08c379a00000000000000000000000000000000000000000000000000000000081526004018080602001828103825260038152602001807f535446000000000000000000000000000000000000000000000000000000000081526020015060200191505060405180910390fd5b50505b50505050565b6000818051906020012090506148f9565b919050565b60008267ffffffffffffffff1682840391508167ffffffffffffffff1611151515614994576040517f08c379a000000000000000000000000000000000000000000000000000000000815260040180806020018281038252600d8152602001807f7375622d756e646572666c6f770000000000000000000000000000000000000081526020015060200191505060405180910390fd5b5b92915050565b600060008214806149bb575082828385029250828115156149b857fe5b04145b1515614a32576040517f08c379a000000000000000000000000000000000000000000000000000000000815260040180806020018281038252600c8152602001807f6d756c2d6f766572666c6f77000000000000000000000000000000000000000081526020015060200191505060405180910390fd5b5b92915050565b6000614ab4614a7b837f000000000000000000000000000000000000000000000000000000000000000067ffffffffffffffff1661437a90919063ffffffff16565b7f000000000000000000000000000000000000000000000000000000000000000067ffffffffffffffff16614ebe90919063ffffffff16565b905080505b919050565b60007b0100000000000000000000000000000000000000000000000000000082101515614b56576040517f08c379a00000000000000000000000000000000000000000000000000000000081526004018080602001828103825260128152602001807f6d6f7265207468616e203231362062697473000000000000000000000000000081526020015060200191505060405180910390fd5b819050614b5e565b919050565b6000614b7e8383670de0b6b3a7640000614dbd63ffffffff16565b905080505b92915050565b61ffff61ffff16600a60009054906101000a900461ffff1661ffff16101515614bb25760006000fd5b600a600081819054906101000a900461ffff168092919060010191906101000a81548161ffff021916908361ffff1602179055505080600c6000506000600a60009054906101000a900461ffff1661ffff1661ffff16815260200190815260200160002060006101000a81548173ffffffffffffffffffffffffffffffffffffffff021916908373ffffffffffffffffffffffffffffffffffffffff160217905550600a60009054906101000a900461ffff16600b60005060008373ffffffffffffffffffffffffffffffffffffffff1673ffffffffffffffffffffffffffffffffffffffff16815260200190815260200160002060006101000a81548161ffff021916908361ffff1602179055508073ffffffffffffffffffffffffffffffffffffffff167f784c8f4dbf0ffedd6e72c76501c545a70f8b203b30a26ce542bf92ba87c248a460405160405180910390a25b50565b600070010000000000000000000000000000000082101515614d95576040517f08c379a00000000000000000000000000000000000000000000000000000000081526004018080602001828103825260128152602001807f6d6f7265207468616e203132382062697473000000000000000000000000000081526020015060200191505060405180910390fd5b819050614d9d565b919050565b6000614db5426137d3909063ffffffff16565b905080505b90565b6000600060006000198587098587029250828110838203039150506000811415614e0057600084111515614df15760006000fd5b83820492508292505050614eb7565b8084111515614e0f5760006000fd5b6000848688099050828111820391508083039250600085866000031690508086049550808404935060018182600003040190508083028417935083506000600287600302189050808702600203810290508050808702600203810290508050808702600203810290508050808702600203810290508050808702600203810290508050808702600203810290508050808502955085508595505050505050614eb75650505050505b9392505050565b600060008267ffffffffffffffff161480614f1057508267ffffffffffffffff168267ffffffffffffffff1683850292508267ffffffffffffffff16811515614f0357fe5b0467ffffffffffffffff16145b1515614f87576040517f08c379a000000000000000000000000000000000000000000000000000000000815260040180806020018281038252600c8152602001807f6d756c2d6f766572666c6f77000000000000000000000000000000000000000081526020015060200191505060405180910390fd5b5b92915050565b60007701000000000000000000000000000000000000000000000082101515615022576040517f08c379a00000000000000000000000000000000000000000000000000000000081526004018080602001828103825260128152602001807f6d6f7265207468616e203138342062697473000000000000000000000000000081526020015060200191505060405180910390fd5b81905061502a565b919050565b600062010000821015156150ae576040517f08c379a00000000000000000000000000000000000000000000000000000000081526004018080602001828103825260118152602001807f6d6f7265207468616e203136206269747300000000000000000000000000000081526020015060200191505060405180910390fd5b8190506150b6565b919050565b600061010082101515615139576040517f08c379a00000000000000000000000000000000000000000000000000000000081526004018080602001828103825260108152602001807f6d6f7265207468616e203820626974730000000000000000000000000000000081526020015060200191505060405180910390fd5b819050615141565b919050565b6040518060e00160405280600081526020016000815260200160008152602001600067ffffffffffffffff168152602001600067ffffffffffffffff168152602001600067ffffffffffffffff168152602001600061ffff1681526020015090565b60405180604001604052806000815260200160008152602001509056615e8d565b600067ffffffffffffffff808411156151de57fe5b60405160207fffffffffffffffffffffffffffffffffffffffffffffffffffffffffffffffe0601f870116820101818110838211171561521a57fe5b80604052508092508481528585850111156152355760006000fd5b8484602083013760006020868301015250505b9392505050565b600081519050801515811415156152665760006000fd5b5b919050565b60008135905060ff8116811415156152845760006000fd5b5b919050565b60006020828403121561529b578081fd5b81356152a681615e47565b809150505b92915050565b6000602082840312156152c2578081fd5b81516152cd81615e47565b809150505b92915050565b600060006000606084860312156152ed578182fd5b83356152f881615e47565b80935050602084013567ffffffffffffffff80821115615316578384fd5b818601915086601f830112151561532b578384fd5b61533a878335602085016151c9565b9350604086013591508082111561534f578283fd5b50808501905085601f8201121515615365578182fd5b615374868235602084016151c9565b9150505b9250925092565b6000600060408385031215615392578182fd5b823561539d81615e47565b80925050602083013590505b9250929050565b6000600060006000608085870312156153c7578081fd5b84356153d281615e47565b809450506020850135925060408501356153eb81615e47565b80925050606085013590505b92959194509250565b60006000600060608486031215615415578283fd5b835161542081615e47565b80935050602084015191506154376040850161524f565b90505b9250925092565b6000600060208385031215615454578182fd5b823567ffffffffffffffff8082111561546b578384fd5b818501915085601f8301121515615480578384fd5b81358181111561548e578485fd5b8660206020830285010111156154a2578485fd5b6020830194508093505050505b9250929050565b6000602082840312156154c7578081fd5b6154d08261524f565b90505b92915050565b6000602082840312156154ea578081fd5b81357fffffffff0000000000000000000000000000000000000000000000000000000081168114151561551b578182fd5b809150505b92915050565b600060208284031215615537578081fd5b813561554281615e47565b809150505b92915050565b600060006000600060808587031215615564578182fd5b843561556f81615e47565b80945050602085013592506155866040860161526c565b9150606085013561559681615e47565b809150505b92959194509250565b6000600060006000608085870312156155bb578182fd5b84356155c681615e47565b8094505060208501356155d881615e47565b8093505060408501356155ea81615e47565b8092505060608501356155fc81615e47565b809150505b92959194509250565b60006020828403121561561b578081fd5b813561ffff81168114151561562e578182fd5b809150505b92915050565b60006020828403121561564a578081fd5b813590505b92915050565b600060208284031215615666578081fd5b815190505b92915050565b600060208284031215615682578081fd5b813561568d81615e70565b809150505b92915050565b6000602082840312156156a9578081fd5b81516156b481615e70565b809150505b92915050565b60006000604083850312156156d2578182fd5b82356156dd81615e70565b809250506156ed6020840161526c565b90505b9250929050565b6000815180845261570f816020860160208601615e12565b60207fffffffffffffffffffffffffffffffffffffffffffffffffffffffffffffffe0601f8301168501019150505b92915050565b60007fffffffff0000000000000000000000000000000000000000000000000000000084168252825161577e816004850160208701615e12565b6004818401019150505b9392505050565b600082516157a1818460208701615e12565b8083019150505b92915050565b600060208201905073ffffffffffffffffffffffffffffffffffffffff831682525b92915050565b600060408201905073ffffffffffffffffffffffffffffffffffffffff8416825267ffffffffffffffff831660208301525b9392505050565b600060608201905073ffffffffffffffffffffffffffffffffffffffff80861683528085166020840152508260408301525b949350505050565b600060408201905073ffffffffffffffffffffffffffffffffffffffff841682528260208301525b9392505050565b600060408201905073ffffffffffffffffffffffffffffffffffffffff8416825267ffffffffffffffff831660208301525b9392505050565b600060208201905082151582525b92915050565b60008315158252604060208301526158e060408301846156f7565b90505b9392505050565b600060208201905073ffffffffffffffffffffffffffffffffffffffff831682525b92915050565b600060208201905073ffffffffffffffffffffffffffffffffffffffff831682525b92915050565b600060208201905073ffffffffffffffffffffffffffffffffffffffff831682525b92915050565b600060208201905073ffffffffffffffffffffffffffffffffffffffff831682525b92915050565b60006020825261599d60208301846156f7565b90505b92915050565b600060208252601060208301527f496e76616c696420706f736974696f6e0000000000000000000000000000000060408301526060820190505b919050565b600060208252601560208301527f496e76616c6964206c6f636b206475726174696f6e000000000000000000000060408301526060820190505b919050565b600060208252601160208301527f556e737570706f7274656420746f6b656e00000000000000000000000000000060408301526060820190505b919050565b600060208252601b60208301527f4d75737420696e637265617365206c6f636b206475726174696f6e000000000060408301526060820190505b919050565b600060208252600e60208301527f4e6f7420417574686f72697a656400000000000000000000000000000000000060408301526060820190505b919050565b600060208252600460208301527f4e6f6f700000000000000000000000000000000000000000000000000000000060408301526060820190505b919050565b600060208252601260208301527f416374696f6e20626c61636b6c6973746564000000000000000000000000000060408301526060820190505b919050565b600060208252600c60208301527f5374696c6c206c6f636b6564000000000000000000000000000000000000000060408301526060820190505b919050565b600060208252600c60208301527f506f736974696f6e20444e45000000000000000000000000000000000000000060408301526060820190505b919050565b600060208252601260208301527f416c6c6f746d656e74206578636565646564000000000000000000000000000060408301526060820190505b919050565b600060208252600e60208301527f4e6f74206120636f6e747261637400000000000000000000000000000000000060408301526060820190505b919050565b600060208252601460208301527f436f6e747261637420616c72656164792073657400000000000000000000000060408301526060820190505b919050565b600060208252601660208301527f4d6f7265207468616e203225206f6620737570706c790000000000000000000060408301526060820190505b919050565b600060e082019050825182526020830151602083015260408301516040830152606083015167ffffffffffffffff80821660608501528060808601511660808501528060a08601511660a0850152505061ffff60c08401511660c08301525b92915050565b600060408201905082518252602083015160208301525b92915050565b600060208201905061ffff831682525b92915050565b60006040820190507effffffffffffffffffffffffffffffffffffffffffffffffffffffffffffff8416825282151560208301525b9392505050565b60006020820190508282525b92915050565b600060408201905083825282151560208301525b9392505050565b600060208201905067ffffffffffffffff831682525b92915050565b600060208201905067ffffffffffffffff831682525b92915050565b60005b83811015615e315780820151818401525b602081019050615e15565b83811115615e40576000848401525b505b505050565b73ffffffffffffffffffffffffffffffffffffffff811681141515615e6c5760006000fd5b5b50565b67ffffffffffffffff811681141515615e895760006000fd5b5b50565bfea2646970667358221220d93c5da74e8ba72df8441be40f343fe95e2fbc50760f8f0322da574e31beece564736f6c6343000706003360a06040523480156100115760006000fd5b505b3373ffffffffffffffffffffffffffffffffffffffff1660808173ffffffffffffffffffffffffffffffffffffffff1660601b815260140150505b610053565b60805160601c6104356100746000398060e652806101d152506104356000f3fe60806040523480156100115760006000fd5b506004361061003b5760003560e01c8063d1660f9914610041578063de9375f2146100b05761003b565b60006000fd5b6100ae600480360360608110156100585760006000fd5b81019080803573ffffffffffffffffffffffffffffffffffffffff169060200190929190803573ffffffffffffffffffffffffffffffffffffffff169060200190929190803590602001909291905050506100e4565b005b6100b86101cf565b604051808273ffffffffffffffffffffffffffffffffffffffff16815260200191505060405180910390f35b7f000000000000000000000000000000000000000000000000000000000000000073ffffffffffffffffffffffffffffffffffffffff163373ffffffffffffffffffffffffffffffffffffffff161415156101aa576040517f08c379a000000000000000000000000000000000000000000000000000000000815260040180806020018281038252600e8152602001807f4e6f7420417574686f72697a656400000000000000000000000000000000000081526020015060200191505060405180910390fd5b60008114156101b8576101ca565b6101c98383836101f363ffffffff16565b5b505050565b7f000000000000000000000000000000000000000000000000000000000000000081565b600060008473ffffffffffffffffffffffffffffffffffffffff1663a9059cbb60e01b8585604051602401808373ffffffffffffffffffffffffffffffffffffffff16815260200182815260200192505050604051602081830303815290604052907bffffffffffffffffffffffffffffffffffffffffffffffffffffffff19166020820180517bffffffffffffffffffffffffffffffffffffffffffffffffffffffff83818316178352505050506040518082805190602001908083835b6020831015156102d857805182525b6020820191506020810190506020830392506102b2565b6001836020036101000a0380198251168184511680821785525050505050509050019150506000604051808303816000865af19150503d806000811461033a576040519150601f19603f3d011682016040523d82523d6000602084013e61033f565b606091505b5091509150818015610380575060008151148061037f575080806020019051602081101561036d5760006000fd5b81019080805190602001909291905050505b5b15156103f7576040517f08c379a00000000000000000000000000000000000000000000000000000000081526004018080602001828103825260028152602001807f535400000000000000000000000000000000000000000000000000000000000081526020015060200191505060405180910390fd5b50505b50505056fea2646970667358221220a09fa674e24bee1d9e1df7bc0570046e4c432e836610f7a105a97cba2ac2d0cf64736f6c63430007060033",
  "linkReferences": {},
  "deployedLinkReferences": {}
}