{
  "_format": "hh-sol-artifact-1",
  "contractName": "TDao",
  "sourceName": "contracts/core/TDao/TDao.sol",
  "abi": [
    {
      "inputs": [
        {
          "internalType": "address",
          "name": "_guardian",
          "type": "address"
        },
        {
          "internalType": "contract IERC20",
          "name": "firstToken",
          "type": "address"
        }
      ],
      "stateMutability": "nonpayable",
      "type": "constructor"
    },
    {
      "anonymous": false,
      "inputs": [
        {
          "indexed": true,
          "internalType": "address",
          "name": "token",
          "type": "address"
        },
        {
          "indexed": false,
          "internalType": "uint256",
          "name": "count",
          "type": "uint256"
        }
      ],
      "name": "IncentiveMinted",
      "type": "event"
    },
    {
      "anonymous": false,
      "inputs": [
        {
          "indexed": true,
          "internalType": "uint64",
          "name": "currentPeriod",
          "type": "uint64"
        },
        {
          "indexed": false,
          "internalType": "uint64",
          "name": "periods",
          "type": "uint64"
        }
      ],
      "name": "InflationAccrued",
      "type": "event"
    },
    {
      "anonymous": false,
      "inputs": [
        {
          "indexed": true,
          "internalType": "address",
          "name": "_contract",
          "type": "address"
        }
      ],
      "name": "LiquidationIncentiveContractSet",
      "type": "event"
    },
    {
      "anonymous": false,
      "inputs": [
        {
          "indexed": true,
          "internalType": "uint64",
          "name": "positionNFTTokenID",
          "type": "uint64"
        },
        {
          "indexed": true,
          "internalType": "uint16",
          "name": "lockDurationMonths",
          "type": "uint16"
        }
      ],
      "name": "LockDurationIncrease",
      "type": "event"
    },
    {
      "anonymous": false,
      "inputs": [
        {
          "indexed": true,
          "internalType": "uint64",
          "name": "positionNFTTokenID",
          "type": "uint64"
        },
        {
          "indexed": true,
          "internalType": "address",
          "name": "owner",
          "type": "address"
        }
      ],
      "name": "RewardsClaimed",
      "type": "event"
    },
    {
      "anonymous": false,
      "inputs": [],
      "name": "TDaoStarted",
      "type": "event"
    },
    {
      "anonymous": false,
      "inputs": [
        {
          "indexed": true,
          "internalType": "address",
          "name": "token",
          "type": "address"
        }
      ],
      "name": "TokenAdded",
      "type": "event"
    },
    {
      "anonymous": false,
      "inputs": [
        {
          "indexed": true,
          "internalType": "uint16",
          "name": "tokenID",
          "type": "uint16"
        },
        {
          "indexed": true,
          "internalType": "address",
          "name": "initialOwner",
          "type": "address"
        },
        {
          "indexed": true,
          "internalType": "uint8",
          "name": "lockDurationMonths",
          "type": "uint8"
        },
        {
          "indexed": false,
          "internalType": "uint256",
          "name": "count",
          "type": "uint256"
        }
      ],
      "name": "TokensLocked",
      "type": "event"
    },
    {
      "anonymous": false,
      "inputs": [
        {
          "indexed": true,
          "internalType": "uint16",
          "name": "tokenID",
          "type": "uint16"
        },
        {
          "indexed": true,
          "internalType": "address",
          "name": "owner",
          "type": "address"
        },
        {
          "indexed": false,
          "internalType": "uint256",
          "name": "count",
          "type": "uint256"
        }
      ],
      "name": "TokensUnlocked",
      "type": "event"
    },
    {
      "inputs": [],
      "name": "accrueInflation",
      "outputs": [],
      "stateMutability": "nonpayable",
      "type": "function"
    },
    {
      "inputs": [
        {
          "internalType": "contract IERC20",
          "name": "token",
          "type": "address"
        }
      ],
      "name": "addToken",
      "outputs": [],
      "stateMutability": "nonpayable",
      "type": "function"
    },
    {
      "inputs": [],
      "name": "allTokens",
      "outputs": [
        {
          "internalType": "contract IERC20[]",
          "name": "",
          "type": "address[]"
        }
      ],
      "stateMutability": "view",
      "type": "function"
    },
    {
      "inputs": [
        {
          "internalType": "bytes4",
          "name": "",
          "type": "bytes4"
        }
      ],
      "name": "blacklistedAction",
      "outputs": [
        {
          "internalType": "bool",
          "name": "",
          "type": "bool"
        }
      ],
      "stateMutability": "view",
      "type": "function"
    },
    {
      "inputs": [],
      "name": "countUnderlyingProtocolTokens",
      "outputs": [
        {
          "internalType": "uint256",
          "name": "",
          "type": "uint256"
        }
      ],
      "stateMutability": "view",
      "type": "function"
    },
    {
      "inputs": [],
      "name": "currentPeriod",
      "outputs": [
        {
          "internalType": "uint64",
          "name": "period",
          "type": "uint64"
        }
      ],
      "stateMutability": "view",
      "type": "function"
    },
    {
      "inputs": [],
      "name": "dailyProtocolTDaoIncentiveCount",
      "outputs": [
        {
          "internalType": "uint256",
          "name": "",
          "type": "uint256"
        }
      ],
      "stateMutability": "view",
      "type": "function"
    },
    {
      "inputs": [],
      "name": "deployer",
      "outputs": [
        {
          "internalType": "address",
          "name": "",
          "type": "address"
        }
      ],
      "stateMutability": "view",
      "type": "function"
    },
    {
      "inputs": [
        {
          "internalType": "address",
          "name": "target",
          "type": "address"
        },
        {
          "internalType": "string",
          "name": "signature",
          "type": "string"
        },
        {
          "internalType": "bytes",
          "name": "data",
          "type": "bytes"
        }
      ],
      "name": "execute",
      "outputs": [
        {
          "internalType": "bool",
          "name": "success",
          "type": "bool"
        },
        {
          "internalType": "bytes",
          "name": "returnData",
          "type": "bytes"
        }
      ],
      "stateMutability": "nonpayable",
      "type": "function"
    },
    {
      "inputs": [
        {
          "internalType": "uint256",
          "name": "metaProposalID",
          "type": "uint256"
        }
      ],
      "name": "executeMetaProposalVote",
      "outputs": [],
      "stateMutability": "nonpayable",
      "type": "function"
    },
    {
      "inputs": [],
      "name": "firstPeriod",
      "outputs": [
        {
          "internalType": "uint64",
          "name": "",
          "type": "uint64"
        }
      ],
      "stateMutability": "view",
      "type": "function"
    },
    {
      "inputs": [
        {
          "internalType": "uint64",
          "name": "positionNFTTokenID",
          "type": "uint64"
        }
      ],
      "name": "getPosition",
      "outputs": [
        {
          "components": [
            {
              "internalType": "uint256",
              "name": "count",
              "type": "uint256"
            },
            {
              "internalType": "uint256",
              "name": "startTotalRewards",
              "type": "uint256"
            },
            {
              "internalType": "uint256",
              "name": "startCumulativeVirtualCount",
              "type": "uint256"
            },
            {
              "internalType": "uint64",
              "name": "lastPeriodUpdated",
              "type": "uint64"
            },
            {
              "internalType": "uint64",
              "name": "endPeriod",
              "type": "uint64"
            },
            {
              "internalType": "uint64",
              "name": "durationMonths",
              "type": "uint64"
            },
            {
              "internalType": "uint16",
              "name": "tokenID",
              "type": "uint16"
            }
          ],
          "internalType": "struct ITDao.TokenPosition",
          "name": "",
          "type": "tuple"
        }
      ],
      "stateMutability": "view",
      "type": "function"
    },
    {
      "inputs": [
        {
          "internalType": "uint64[]",
          "name": "positionNFTTokenIDs",
          "type": "uint64[]"
        }
      ],
      "name": "getRewards",
      "outputs": [],
      "stateMutability": "nonpayable",
      "type": "function"
    },
    {
      "inputs": [
        {
          "internalType": "uint16",
          "name": "tokenID",
          "type": "uint16"
        }
      ],
      "name": "getRewardsStatus",
      "outputs": [
        {
          "components": [
            {
              "internalType": "uint256",
              "name": "cumulativeVirtualCount",
              "type": "uint256"
            },
            {
              "internalType": "uint256",
              "name": "totalRewards",
              "type": "uint256"
            }
          ],
          "internalType": "struct ITDao.TokenRewardsStatus",
          "name": "",
          "type": "tuple"
        }
      ],
      "stateMutability": "view",
      "type": "function"
    },
    {
      "inputs": [],
      "name": "guardian",
      "outputs": [
        {
          "internalType": "address",
          "name": "",
          "type": "address"
        }
      ],
      "stateMutability": "view",
      "type": "function"
    },
    {
      "inputs": [
        {
          "internalType": "uint16",
          "name": "tokenID",
          "type": "uint16"
        }
      ],
      "name": "idToToken",
      "outputs": [
        {
          "internalType": "contract IERC20",
          "name": "",
          "type": "address"
        }
      ],
      "stateMutability": "view",
      "type": "function"
    },
    {
      "inputs": [],
      "name": "incentiveContract",
      "outputs": [
        {
          "internalType": "address",
          "name": "",
          "type": "address"
        }
      ],
      "stateMutability": "view",
      "type": "function"
    },
    {
      "inputs": [
        {
          "internalType": "address",
          "name": "dest",
          "type": "address"
        },
        {
          "internalType": "uint256",
          "name": "count",
          "type": "uint256"
        }
      ],
      "name": "incentiveContractMint",
      "outputs": [],
      "stateMutability": "nonpayable",
      "type": "function"
    },
    {
      "inputs": [],
      "name": "incentivesStartPeriod",
      "outputs": [
        {
          "internalType": "uint64",
          "name": "",
          "type": "uint64"
        }
      ],
      "stateMutability": "view",
      "type": "function"
    },
    {
      "inputs": [
        {
          "internalType": "uint64",
          "name": "positionNFTTokenID",
          "type": "uint64"
        },
        {
          "internalType": "uint8",
          "name": "lockDurationMonths",
          "type": "uint8"
        }
      ],
      "name": "increaseLockDuration",
      "outputs": [],
      "stateMutability": "nonpayable",
      "type": "function"
    },
    {
      "inputs": [
        {
          "internalType": "contract IPositionNFT",
          "name": "_tDaoPositionNFT",
          "type": "address"
        },
        {
          "internalType": "contract TDaoToken",
          "name": "_tDaoToken",
          "type": "address"
        },
        {
          "internalType": "address",
          "name": "_tDaoGovernorAlpha",
          "type": "address"
        },
        {
          "internalType": "address",
          "name": "_timelock",
          "type": "address"
        }
      ],
      "name": "init",
      "outputs": [],
      "stateMutability": "nonpayable",
      "type": "function"
    },
    {
      "inputs": [],
      "name": "lastPeriodGlobalInflationUpdated",
      "outputs": [
        {
          "internalType": "uint64",
          "name": "",
          "type": "uint64"
        }
      ],
      "stateMutability": "view",
      "type": "function"
    },
    {
      "inputs": [
        {
          "internalType": "uint16",
          "name": "tokenID",
          "type": "uint16"
        },
        {
          "internalType": "uint256",
          "name": "count",
          "type": "uint256"
        },
        {
          "internalType": "uint8",
          "name": "lockDurationMonths",
          "type": "uint8"
        },
        {
          "internalType": "address",
          "name": "to",
          "type": "address"
        }
      ],
      "name": "lockTokens",
      "outputs": [
        {
          "internalType": "uint64",
          "name": "positionNFTTokenID",
          "type": "uint64"
        }
      ],
      "stateMutability": "nonpayable",
      "type": "function"
    },
    {
      "inputs": [
        {
          "internalType": "address",
          "name": "dest",
          "type": "address"
        },
        {
          "internalType": "uint256",
          "name": "count",
          "type": "uint256"
        }
      ],
      "name": "mintIncentive",
      "outputs": [],
      "stateMutability": "nonpayable",
      "type": "function"
    },
    {
      "inputs": [
        {
          "internalType": "address",
          "name": "dest",
          "type": "address"
        },
        {
          "internalType": "uint256",
          "name": "count",
          "type": "uint256"
        }
      ],
      "name": "mintVotingRewards",
      "outputs": [],
      "stateMutability": "nonpayable",
      "type": "function"
    },
    {
      "inputs": [],
      "name": "periodLength",
      "outputs": [
        {
          "internalType": "uint64",
          "name": "",
          "type": "uint64"
        }
      ],
      "stateMutability": "view",
      "type": "function"
    },
    {
      "inputs": [
        {
          "internalType": "uint64",
          "name": "period",
          "type": "uint64"
        }
      ],
      "name": "periodToTime",
      "outputs": [
        {
          "internalType": "uint64",
          "name": "",
          "type": "uint64"
        }
      ],
      "stateMutability": "view",
      "type": "function"
    },
    {
      "inputs": [
        {
          "internalType": "uint64",
          "name": "positionNFTTokenID",
          "type": "uint64"
        }
      ],
      "name": "positionIsAbleToBeUnlocked",
      "outputs": [
        {
          "internalType": "bool",
          "name": "",
          "type": "bool"
        }
      ],
      "stateMutability": "view",
      "type": "function"
    },
    {
      "inputs": [
        {
          "internalType": "uint16",
          "name": "tokenID",
          "type": "uint16"
        }
      ],
      "name": "selfDelegate",
      "outputs": [],
      "stateMutability": "nonpayable",
      "type": "function"
    },
    {
      "inputs": [
        {
          "internalType": "address",
          "name": "governorAlpha",
          "type": "address"
        },
        {
          "internalType": "uint256",
          "name": "proposalID",
          "type": "uint256"
        },
        {
          "internalType": "address",
          "name": "voter",
          "type": "address"
        },
        {
          "internalType": "uint256",
          "name": "votePortion",
          "type": "uint256"
        }
      ],
      "name": "sendUnderlyingVotingRewards",
      "outputs": [],
      "stateMutability": "nonpayable",
      "type": "function"
    },
    {
      "inputs": [
        {
          "internalType": "address",
          "name": "_contract",
          "type": "address"
        }
      ],
      "name": "setIncentiveContract",
      "outputs": [],
      "stateMutability": "nonpayable",
      "type": "function"
    },
    {
      "inputs": [],
      "name": "start",
      "outputs": [],
      "stateMutability": "nonpayable",
      "type": "function"
    },
    {
      "inputs": [],
      "name": "startPeriod",
      "outputs": [
        {
          "internalType": "uint64",
          "name": "",
          "type": "uint64"
        }
      ],
      "stateMutability": "view",
      "type": "function"
    },
    {
      "inputs": [],
      "name": "tDaoGovernorAlpha",
      "outputs": [
        {
          "internalType": "address",
          "name": "",
          "type": "address"
        }
      ],
      "stateMutability": "view",
      "type": "function"
    },
    {
      "inputs": [],
      "name": "tDaoPositionNFT",
      "outputs": [
        {
          "internalType": "contract IPositionNFT",
          "name": "",
          "type": "address"
        }
      ],
      "stateMutability": "view",
      "type": "function"
    },
    {
      "inputs": [],
      "name": "tDaoToken",
      "outputs": [
        {
          "internalType": "contract TDaoToken",
          "name": "",
          "type": "address"
        }
      ],
      "stateMutability": "view",
      "type": "function"
    },
    {
      "inputs": [],
      "name": "timelock",
      "outputs": [
        {
          "internalType": "address",
          "name": "",
          "type": "address"
        }
      ],
      "stateMutability": "view",
      "type": "function"
    },
    {
      "inputs": [
        {
          "internalType": "contract IERC20",
          "name": "token",
          "type": "address"
        }
      ],
      "name": "tokenToID",
      "outputs": [
        {
          "internalType": "uint16",
          "name": "",
          "type": "uint16"
        }
      ],
      "stateMutability": "view",
      "type": "function"
    },
    {
      "inputs": [
        {
          "internalType": "uint256",
          "name": "",
          "type": "uint256"
        }
      ],
      "name": "tokens",
      "outputs": [
        {
          "internalType": "contract IERC20",
          "name": "",
          "type": "address"
        }
      ],
      "stateMutability": "view",
      "type": "function"
    },
    {
      "inputs": [],
      "name": "totalIncentivesMinted",
      "outputs": [
        {
          "internalType": "uint256",
          "name": "",
          "type": "uint256"
        }
      ],
      "stateMutability": "view",
      "type": "function"
    },
    {
      "inputs": [
        {
          "internalType": "address",
          "name": "",
          "type": "address"
        },
        {
          "internalType": "uint256",
          "name": "",
          "type": "uint256"
        }
      ],
      "name": "underlyingTokenVoteRewardCount",
      "outputs": [
        {
          "internalType": "uint248",
          "name": "count",
          "type": "uint248"
        },
        {
          "internalType": "bool",
          "name": "isSet",
          "type": "bool"
        }
      ],
      "stateMutability": "view",
      "type": "function"
    },
    {
      "inputs": [
        {
          "internalType": "uint64",
          "name": "positionNFTTokenID",
          "type": "uint64"
        }
      ],
      "name": "unlockTokens",
      "outputs": [],
      "stateMutability": "nonpayable",
      "type": "function"
    },
    {
      "inputs": [
        {
          "internalType": "uint16",
          "name": "",
          "type": "uint16"
        }
      ],
      "name": "virtualCount",
      "outputs": [
        {
          "internalType": "uint256",
          "name": "",
          "type": "uint256"
        }
      ],
      "stateMutability": "view",
      "type": "function"
    },
    {
      "inputs": [],
      "name": "votingRewardsSafe",
      "outputs": [
        {
          "internalType": "contract TDaoVotingRewardsSafe",
          "name": "",
          "type": "address"
        }
      ],
      "stateMutability": "view",
      "type": "function"
    }
  ],
  "bytecode": "0x60e06040526001600760006101000a81548167ffffffffffffffff021916908367ffffffffffffffff1602179055503480156200003c5760006000fd5b5060405162006cbf38038062006cbf8339818101604052810190620000629190620002e9565b5b5b620151805b6001816200007c6200023760201b60201c565b6200008891906200032c565b62000094919062000367565b67ffffffffffffffff1660a08167ffffffffffffffff16815260200150508067ffffffffffffffff1660808167ffffffffffffffff16815260200150505b50600160006000508190909055505b81600e60006101000a81548173ffffffffffffffffffffffffffffffffffffffff021916908373ffffffffffffffffffffffffffffffffffffffff160217905550600a60005081908060018154018082558091505060019003906000526020600020900160005b9091909190916101000a81548173ffffffffffffffffffffffffffffffffffffffff021916908373ffffffffffffffffffffffffffffffffffffffff1602179055506040516200019890620002b9565b604051809103906000f080158015620001b6573d600060003e3d6000fd5b5073ffffffffffffffffffffffffffffffffffffffff1660c08173ffffffffffffffffffffffffffffffffffffffff168152602001505033600d60006101000a81548173ffffffffffffffffffffffffffffffffffffffff021916908373ffffffffffffffffffffffffffffffffffffffff1602179055505b5050620003e6565b600062000251426200025960201b620038aa17909060201c565b905080505b90565b60006801000000000000000082101515620002ab576040517f08c379a0000000000000000000000000000000000000000000000000000000008152600401620002a290620003a6565b60405180910390fd5b819050620002b4565b919050565b61082c80620064938339019056620003e5565b6001600160a01b03811681141515620002e55760006000fd5b505b565b6000600060408385031215620002ff5760006000fd5b82516200030c81620002cc565b8092505060208301516200032081620002cc565b809150505b9250929050565b60006001600160401b038084168015156200035757634e487b7160e01b600052601260045260246000fd5b8082851604925050505b92915050565b60006001600160401b038083168185169150818110156200039857634e487b7160e01b600052601160045260246000fd5b818103925050505b92915050565b60208152601160208201527f6d6f7265207468616e2036342062697473000000000000000000000000000000604082015260006060820190505b919050565b5b60805160a05160c05161605362000440600039600081816127750152818161331a015261334b0152600081816135bb01528181613bde01526145190152600081816135df01528181613bff015261455201526160536000f3fe60806040523480156100115760006000fd5b50600436106102f95760003560e01c80636ff97f1d11610192578063b9f8ea6d116100e4578063d33219b411610098578063d6c2875d11610072578063d6c2875d14610869578063fcb3fa9014610887578063fd8067c3146108a3576102f9565b8063d33219b414610811578063d48bfca71461082f578063d5f394881461084b576102f9565b8063c2cc16d9116100c9578063c2cc16d9146107b7578063c4e3a63b146107d5578063d2ca2115146107f3576102f9565b8063b9f8ea6d14610791578063be9a6555146107ad576102f9565b80639383ac44116101465780639d8e0901116101205780639d8e090114610713578063acfc7bfa14610743578063ae42983314610773576102f9565b80639383ac44146106a9578063955e232e146106c55780639645383d146106f5576102f9565b80637ad31c98116101775780637ad31c981461063c57806386fa81c71461065a57806387bbac1b1461068b576102f9565b80636ff97f1d146105ee578063797250e41461060c576102f9565b806330bfb9bb1161024b5780634cd7a315116101ff5780635d5bef89116101d95780635d5bef8914610584578063640bb8df146105a05780636c6a4f36146105be576102f9565b80634cd7a3151461051a5780634f64b2be14610536578063526b871214610566576102f9565b8063371f3d4511610230578063371f3d45146104b0578063452a9320146104e05780634540137e146104fe576102f9565b806330bfb9bb1461046157806333daf5d41461047f576102f9565b806307e54f16116102ad57806314706d851161028757806314706d85146103f75780631a30c702146104155780632e74e62814610431576102f9565b806307e54f161461037b5780630a889a8b146103ab5780630f85fc5a146103c7576102f9565b806306552ff3116102de57806306552ff3146103275780630781820014610343578063079329871461035f576102f9565b8063020ac54a146102ff5780630604061814610309576102f9565b60006000fd5b6103076108c1565b005b610311610938565b60405161031e9190614c47565b60405180910390f35b610341600480360381019061033c9190614c8c565b610950565b005b61035d60048036038101906103589190614cf4565b610bbb565b005b61037960048036038101906103749190614d1d565b610d9a565b005b61039560048036038101906103909190614d50565b610ef5565b6040516103a29190614d79565b60405180910390f35b6103c560048036038101906103c09190614dac565b610ff5565b005b6103e160048036038101906103dc9190614dac565b6114e9565b6040516103ee9190614dd5565b60405180910390f35b6103ff6117c5565b60405161040c9190614e3a565b60405180910390f35b61042f600480360381019061042a9190614e6a565b61188d565b005b61044b60048036038101906104469190614dac565b611b97565b6040516104589190614ea4565b60405180910390f35b610469611c9a565b6040516104769190614c47565b60405180910390f35b61049960048036038101906104949190614f82565b611cb4565b6040516104a79291906150b5565b60405180910390f35b6104ca60048036038101906104c591906150da565b611f15565b6040516104d79190614ea4565b60405180910390f35b6104e8611f3a565b6040516104f5919061512b565b60405180910390f35b61051860048036038101906105139190615153565b611f60565b005b610534600480360381019061052f9190614d1d565b61214a565b005b610550600480360381019061054b91906151d2565b61239e565b60405161055d91906151f0565b60405180910390f35b61056e6123e4565b60405161057b9190614e3a565b60405180910390f35b61059e60048036038101906105999190615237565b6123f9565b005b6105a8612503565b6040516105b5919061512b565b60405180910390f35b6105d860048036038101906105d39190615237565b612529565b6040516105e5919061525c565b60405180910390f35b6105f661264a565b6040516106039190615279565b60405180910390f35b61062660048036038101906106219190615237565b6126e0565b6040516106339190614e3a565b60405180910390f35b6106446126fb565b6040516106519190614e3a565b60405180910390f35b610674600480360381019061066f9190614d1d565b612704565b6040516106829291906152de565b60405180910390f35b610693612773565b6040516106a0919061531a565b60405180910390f35b6106c360048036038101906106be9190614d1d565b612797565b005b6106df60048036038101906106da9190614dac565b6129d7565b6040516106ec9190614c47565b60405180910390f35b6106fd6129f4565b60405161070a9190615342565b60405180910390f35b61072d60048036038101906107289190615237565b612a1a565b60405161073a91906151f0565b60405180910390f35b61075d6004803603810190610758919061536a565b612ac2565b60405161076a9190614c47565b60405180910390f35b61077b612e76565b60405161078891906153bf565b60405180910390f35b6107ab60048036038101906107a691906153e7565b612e9c565b005b6107b561349c565b005b6107bf613593565b6040516107cc919061512b565b60405180910390f35b6107dd6135b9565b6040516107ea9190614c47565b60405180910390f35b6107fb6135dd565b6040516108089190614c47565b60405180910390f35b610819613601565b604051610826919061512b565b60405180910390f35b61084960048036038101906108449190614d50565b613627565b005b610853613731565b604051610860919061512b565b60405180910390f35b610871613757565b60405161087e9190614c47565b60405180910390f35b6108a1600480360381019061089c91906151d2565b613771565b005b6108ab613890565b6040516108b89190614c47565b60405180910390f35b60026000600050541415151561090c576040517f08c379a000000000000000000000000000000000000000000000000000000000815260040161090390615439565b60405180910390fd5b6002600060005081909090555061092761390663ffffffff16565b5b600160006000508190909055505b565b6000610948613bda63ffffffff16565b905080505b90565b6109af600d60009054906101000a900473ffffffffffffffffffffffffffffffffffffffff1673ffffffffffffffffffffffffffffffffffffffff163373ffffffffffffffffffffffffffffffffffffffff1614613c4863ffffffff16565b600d60006101000a81549073ffffffffffffffffffffffffffffffffffffffff021916905583600560006101000a81548173ffffffffffffffffffffffffffffffffffffffff021916908373ffffffffffffffffffffffffffffffffffffffff16021790555082600460006101000a81548173ffffffffffffffffffffffffffffffffffffffff021916908373ffffffffffffffffffffffffffffffffffffffff16021790555081600360006101000a81548173ffffffffffffffffffffffffffffffffffffffff021916908373ffffffffffffffffffffffffffffffffffffffff16021790555080600260006101000a81548173ffffffffffffffffffffffffffffffffffffffff021916908373ffffffffffffffffffffffffffffffffffffffff160217905550610aee63a9059cbb60e01b613c8e63ffffffff16565b610b046323b872dd60e01b613c8e63ffffffff16565b610b1a63095ea7b360e01b613c8e63ffffffff16565b610b3063449a52f860e01b613c8e63ffffffff16565b610b466379cc679060e01b613c8e63ffffffff16565b610b5c6342966c6860e01b613c8e63ffffffff16565b610b72633950935160e01b613c8e63ffffffff16565b610b8863a457c2d760e01b613c8e63ffffffff16565b610b9e633c4a25d060e01b613c8e63ffffffff16565b610bb4635c19a95c60e01b613c8e63ffffffff16565b5b50505050565b610bf83073ffffffffffffffffffffffffffffffffffffffff163373ffffffffffffffffffffffffffffffffffffffff1614613c4863ffffffff16565b600073ffffffffffffffffffffffffffffffffffffffff16600160009054906101000a900473ffffffffffffffffffffffffffffffffffffffff1673ffffffffffffffffffffffffffffffffffffffff16141515610c8b576040517f08c379a0000000000000000000000000000000000000000000000000000000008152600401610c8290615478565b60405180910390fd5b610c9a81613cff63ffffffff16565b1515610cdb576040517f08c379a0000000000000000000000000000000000000000000000000000000008152600401610cd2906154b7565b60405180910390fd5b80600160006101000a81548173ffffffffffffffffffffffffffffffffffffffff021916908373ffffffffffffffffffffffffffffffffffffffff160217905550610d2a613bda63ffffffff16565b600f60006101000a81548167ffffffffffffffff021916908367ffffffffffffffff1602179055508073ffffffffffffffffffffffffffffffffffffffff167f6765bf0cc4e3defc42bfa6ac394241a5f702ee760529c922874f15c4ad35edc760405160405180910390a25b5b50565b600260006000505414151515610de5576040517f08c379a0000000000000000000000000000000000000000000000000000000008152600401610ddc90615439565b60405180910390fd5b60026000600050819090905550610e51600360009054906101000a900473ffffffffffffffffffffffffffffffffffffffff1673ffffffffffffffffffffffffffffffffffffffff163373ffffffffffffffffffffffffffffffffffffffff1614613c4863ffffffff16565b600460009054906101000a900473ffffffffffffffffffffffffffffffffffffffff1673ffffffffffffffffffffffffffffffffffffffff1663449a52f883836040518363ffffffff1660e01b8152600401610eae9291906154f6565b600060405180830381600087803b158015610ec95760006000fd5b505af1158015610ede573d600060003e3d6000fd5b505050505b600160006000508190909055505b5050565b60006000600090505b600a60005080549050811015610fb4578273ffffffffffffffffffffffffffffffffffffffff16600a60005082815481101515610f3e57610f3d615525565b5b906000526020600020900160005b9054906101000a900473ffffffffffffffffffffffffffffffffffffffff1673ffffffffffffffffffffffffffffffffffffffff161415610fa057610f9881613d28909063ffffffff16565b915050610ff0565b5b8080610fac90615587565b915050610efe565b506040517f08c379a0000000000000000000000000000000000000000000000000000000008152600401610fe7906155c6565b60405180910390fd5b919050565b600260006000505414151515611040576040517f08c379a000000000000000000000000000000000000000000000000000000000815260040161103790615439565b60405180910390fd5b6002600060005081909090555060003390506110ff600560009054906101000a900473ffffffffffffffffffffffffffffffffffffffff1673ffffffffffffffffffffffffffffffffffffffff1663430c208183856040518363ffffffff1660e01b81526004016110b2929190615605565b602060405180830381865afa1580156110d0573d600060003e3d6000fd5b505050506040513d601f19601f820116820180604052508101906110f4919061565b565b613c4863ffffffff16565b600061111083613d7e63ffffffff16565b9050611120613bda63ffffffff16565b67ffffffffffffffff16816080015167ffffffffffffffff161115151561117c576040517f08c379a000000000000000000000000000000000000000000000000000000000815260040161117390615680565b60405180910390fd5b6111cb61119782600001518360a0015161404063ffffffff16565b600960005060008460c0015161ffff1661ffff1681526020019081526020016000206000505461406f90919063ffffffff16565b600960005060008360c0015161ffff1661ffff168152602001908152602001600020600050819090905550600b60005060008467ffffffffffffffff1667ffffffffffffffff16815260200190815260200160002060006000820160006101000a8154906fffffffffffffffffffffffffffffffff02191690556000820160106101000a8154906fffffffffffffffffffffffffffffffff02191690556001820160006101000a81549076ffffffffffffffffffffffffffffffffffffffffffffff02191690556001820160176101000a81549061ffff02191690556001820160196101000a81549061ffff021916905560018201601b6101000a81549061ffff021916905560018201601d6101000a81549060ff021916905550506000600560009054906101000a900473ffffffffffffffffffffffffffffffffffffffff1673ffffffffffffffffffffffffffffffffffffffff16636352211e856040518263ffffffff1660e01b815260040161134491906156bf565b602060405180830381865afa158015611362573d600060003e3d6000fd5b505050506040513d601f19601f8201168201806040525081019061138691906156db565b9050600560009054906101000a900473ffffffffffffffffffffffffffffffffffffffff1673ffffffffffffffffffffffffffffffffffffffff16639dbead42856040518263ffffffff1660e01b81526004016113e39190614c47565b600060405180830381600087803b1580156113fe5760006000fd5b505af1158015611413573d600060003e3d6000fd5b505050508273ffffffffffffffffffffffffffffffffffffffff168260c0015161ffff167fbf347141bee0ba9c777fbef9a14008be9f56f2b2f90f0e63cfed8a96a3b506c7846000015160405161146a9190614e3a565b60405180910390a36114d4600a6000508360c0015161ffff1681548110151561149657611495615525565b5b906000526020600020900160005b9054906101000a900473ffffffffffffffffffffffffffffffffffffffff1682846000015161408a63ffffffff16565b5050505b600160006000508190909055505b50565b6114f1614bc4565b6000600b60005060008467ffffffffffffffff1667ffffffffffffffff1681526020019081526020016000206000506040518060e00160405290816000820160009054906101000a90046fffffffffffffffffffffffffffffffff166fffffffffffffffffffffffffffffffff166fffffffffffffffffffffffffffffffff1681526020016000820160109054906101000a90046fffffffffffffffffffffffffffffffff166fffffffffffffffffffffffffffffffff166fffffffffffffffffffffffffffffffff1681526020016001820160009054906101000a900476ffffffffffffffffffffffffffffffffffffffffffffff1676ffffffffffffffffffffffffffffffffffffffffffffff1676ffffffffffffffffffffffffffffffffffffffffffffff1681526020016001820160179054906101000a900461ffff1661ffff1661ffff1681526020016001820160199054906101000a900461ffff1661ffff1661ffff16815260200160018201601b9054906101000a900461ffff1661ffff1661ffff16815260200160018201601d9054906101000a900460ff1660ff1660ff16815260200150509050600081600001516fffffffffffffffffffffffffffffffff161115156116fb576040517f08c379a00000000000000000000000000000000000000000000000000000000081526004016116f290615704565b60405180910390fd5b6040518060e0016040528082600001516fffffffffffffffffffffffffffffffff16815260200182602001516fffffffffffffffffffffffffffffffff168152602001826040015176ffffffffffffffffffffffffffffffffffffffffffffff168152602001826060015161ffff1667ffffffffffffffff168152602001826080015161ffff1667ffffffffffffffff1681526020018260c0015160ff1667ffffffffffffffff1681526020018260a0015161ffff168152602001509150506117c056505b919050565b60006000600e60149054906101000a900467ffffffffffffffff1667ffffffffffffffff1614156117f9576000905061188a565b600073ffffffffffffffffffffffffffffffffffffffff16600160009054906101000a900473ffffffffffffffffffffffffffffffffffffffff1673ffffffffffffffffffffffffffffffffffffffff161415156118785769021e19e0c9bab240000069152d02c7e14af68000006118719190615743565b905061188a565b69152d02c7e14af6800000905061188a565b90565b6002600060005054141515156118d8576040517f08c379a00000000000000000000000000000000000000000000000000000000081526004016118cf90615439565b60405180910390fd5b600260006000508190909055506118f48161411763ffffffff16565b6119a1600560009054906101000a900473ffffffffffffffffffffffffffffffffffffffff1673ffffffffffffffffffffffffffffffffffffffff1663430c208133856040518363ffffffff1660e01b8152600401611954929190615605565b602060405180830381865afa158015611972573d600060003e3d6000fd5b505050506040513d601f19601f82011682018060405250810190611996919061565b565b613c4863ffffffff16565b60006119b283613d7e63ffffffff16565b90508060a0015167ffffffffffffffff168260ff1667ffffffffffffffff16111515611a13576040517f08c379a0000000000000000000000000000000000000000000000000000000008152600401611a0a90615762565b60405180910390fd5b611a8a611a2d82600001518460ff1661404063ffffffff16565b611a7c611a4884600001518560a0015161404063ffffffff16565b600960005060008660c0015161ffff1661ffff1681526020019081526020016000206000505461406f90919063ffffffff16565b6141ad90919063ffffffff16565b600960005060008360c0015161ffff1661ffff168152602001908152602001600020600050819090905550611af0611aca8360ff166141c863ffffffff16565b611ad8613bda63ffffffff16565b67ffffffffffffffff1661420190919063ffffffff16565b816080019067ffffffffffffffff16908167ffffffffffffffff16815260200150508160ff168160a0019067ffffffffffffffff16908167ffffffffffffffff1681526020015050611b48838261421c63ffffffff16565b8160ff168367ffffffffffffffff167fb39e6330051c3e584367d7d1f1ff3fb0cdd824478fd7d7f257005c83c010b8a160405160405180910390a3505b600160006000508190909055505b5050565b6000600a60005080549050600b60005060008467ffffffffffffffff1667ffffffffffffffff168152602001908152602001600020600050600101601b9054906101000a900461ffff1661ffff16101515611c27576040517f08c379a0000000000000000000000000000000000000000000000000000000008152600401611c1e906157a1565b60405180910390fd5b611c35613bda63ffffffff16565b67ffffffffffffffff16600b60005060008467ffffffffffffffff1667ffffffffffffffff16815260200190815260200160002060005060010160199054906101000a900461ffff1661ffff1667ffffffffffffffff1611159050611c95565b919050565b600e60149054906101000a900467ffffffffffffffff1681565b60006060600260006000505414151515611d03576040517f08c379a0000000000000000000000000000000000000000000000000000000008152600401611cfa90615439565b60405180910390fd5b60026000600050819090905550611d6f600260009054906101000a900473ffffffffffffffffffffffffffffffffffffffff1673ffffffffffffffffffffffffffffffffffffffff163373ffffffffffffffffffffffffffffffffffffffff1614613c4863ffffffff16565b6000611d80856144c263ffffffff16565b9050600c6000506000827bffffffffffffffffffffffffffffffffffffffffffffffffffffffff19167bffffffffffffffffffffffffffffffffffffffffffffffffffffffff1916815260200190815260200160002060009054906101000a900460ff16151515611e26576040517f08c379a0000000000000000000000000000000000000000000000000000000008152600401611e1d906157e0565b60405180910390fd5b8573ffffffffffffffffffffffffffffffffffffffff168185604051602001611e5092919061581f565b604051602081830303815290604052604051611e6c919061586a565b6000604051808303816000865af19150503d8060008114611ea9576040519150601f19603f3d011682016040523d82523d6000602084013e611eae565b606091505b5080935081945050508282901515611efc576040517f08c379a0000000000000000000000000000000000000000000000000000000008152600401611ef39190615889565b60405180910390fd5b50505b600160006000508190909055505b935093915050565b600c60005060205280600052604060002060009150909054906101000a900460ff1681565b600e60009054906101000a900473ffffffffffffffffffffffffffffffffffffffff1681565b600260006000505414151515611fab576040517f08c379a0000000000000000000000000000000000000000000000000000000008152600401611fa290615439565b60405180910390fd5b600260006000508190909055506000611fc2614bc4565b6000600090505b84849050811015612134578484828181101515611fe957611fe8615525565b5b9050602002016020810190611ffe9190614dac565b925082506120af600560009054906101000a900473ffffffffffffffffffffffffffffffffffffffff1673ffffffffffffffffffffffffffffffffffffffff1663430c208133866040518363ffffffff1660e01b8152600401612062929190615605565b602060405180830381865afa158015612080573d600060003e3d6000fd5b505050506040513d601f19601f820116820180604052508101906120a4919061565b565b613c4863ffffffff16565b6120be83613d7e63ffffffff16565b915081506120d2838361421c63ffffffff16565b3373ffffffffffffffffffffffffffffffffffffffff168367ffffffffffffffff167f39c278b054e152450e4295bdf59d7edbaba35cb21d4248658680e61dac39eebb60405160405180910390a35b808061212c90615587565b915050611fc9565b5050505b600160006000508190909055505b5050565b6121873073ffffffffffffffffffffffffffffffffffffffff163373ffffffffffffffffffffffffffffffffffffffff1614613c4863ffffffff16565b6032600460009054906101000a900473ffffffffffffffffffffffffffffffffffffffff1673ffffffffffffffffffffffffffffffffffffffff166318160ddd6040518163ffffffff1660e01b8152600401602060405180830381865afa1580156121f7573d600060003e3d6000fd5b505050506040513d601f19601f8201168201806040525081019061221b91906158a5565b61222591906158f4565b8111151515612269576040517f08c379a000000000000000000000000000000000000000000000000000000000815260040161226090615912565b60405180910390fd5b61227882613cff63ffffffff16565b15156122b9576040517f08c379a00000000000000000000000000000000000000000000000000000000081526004016122b0906154b7565b60405180910390fd5b600460009054906101000a900473ffffffffffffffffffffffffffffffffffffffff1673ffffffffffffffffffffffffffffffffffffffff1663449a52f883836040518363ffffffff1660e01b81526004016123169291906154f6565b600060405180830381600087803b1580156123315760006000fd5b505af1158015612346573d600060003e3d6000fd5b505050508173ffffffffffffffffffffffffffffffffffffffff167f15c222d39f56077620782fcc367cdd020fddac1f6129c77ec7ca1c5025659dda826040516123909190614e3a565b60405180910390a25b5b5050565b600a60005081815481106123b157600080fd5b906000526020600020900160005b9150909054906101000a900473ffffffffffffffffffffffffffffffffffffffff1681565b6000600a6000508054905090506123f6565b90565b600a600050805490508161ffff16101515612449576040517f08c379a000000000000000000000000000000000000000000000000000000000815260040161244090615951565b60405180910390fd5b600a6000508161ffff1681548110151561246657612465615525565b5b906000526020600020900160005b9054906101000a900473ffffffffffffffffffffffffffffffffffffffff1673ffffffffffffffffffffffffffffffffffffffff16635c19a95c306040518263ffffffff1660e01b81526004016124cb919061512b565b600060405180830381600087803b1580156124e65760006000fd5b505af11580156124fb573d600060003e3d6000fd5b505050505b50565b600360009054906101000a900473ffffffffffffffffffffffffffffffffffffffff1681565b612531614c26565b6000600860005060008461ffff1661ffff1681526020019081526020016000206000506040518060400160405290816000820160009054906101000a90046fffffffffffffffffffffffffffffffff166fffffffffffffffffffffffffffffffff166fffffffffffffffffffffffffffffffff1681526020016000820160109054906101000a90046fffffffffffffffffffffffffffffffff166fffffffffffffffffffffffffffffffff166fffffffffffffffffffffffffffffffff16815260200150509050604051806040016040528082600001516fffffffffffffffffffffffffffffffff16815260200182602001516fffffffffffffffffffffffffffffffff1681526020015091505061264556505b919050565b6060600a6000508054806020026020016040519081016040528092919081815260200182805480156126d157602002820191906000526020600020905b8160009054906101000a900473ffffffffffffffffffffffffffffffffffffffff1673ffffffffffffffffffffffffffffffffffffffff1681526020019060010190808311612687575b505050505090506126dd565b90565b60096000506020528060005260406000206000915090505481565b60106000505481565b6006600050602052816000526040600020600050602052806000526040600020600091509150508060000160009054906101000a90047effffffffffffffffffffffffffffffffffffffffffffffffffffffffffffff169080600001601f9054906101000a900460ff16905082565b7f000000000000000000000000000000000000000000000000000000000000000081565b6002600060005054141515156127e2576040517f08c379a00000000000000000000000000000000000000000000000000000000081526004016127d990615439565b60405180910390fd5b6002600060005081909090555061284e600160009054906101000a900473ffffffffffffffffffffffffffffffffffffffff1673ffffffffffffffffffffffffffffffffffffffff163373ffffffffffffffffffffffffffffffffffffffff1614613c4863ffffffff16565b6000612868826010600050546141ad90919063ffffffff16565b905060006128de69021e19e0c9bab24000006128c6600f60009054906101000a900467ffffffffffffffff1660016128a4613bda63ffffffff16565b6128ae9190615990565b67ffffffffffffffff166144d890919063ffffffff16565b67ffffffffffffffff166144f390919063ffffffff16565b9050808211151515612925576040517f08c379a000000000000000000000000000000000000000000000000000000000815260040161291c906159c3565b60405180910390fd5b816010600050819090905550600460009054906101000a900473ffffffffffffffffffffffffffffffffffffffff1673ffffffffffffffffffffffffffffffffffffffff1663449a52f885856040518363ffffffff1660e01b815260040161298e9291906154f6565b600060405180830381600087803b1580156129a95760006000fd5b505af11580156129be573d600060003e3d6000fd5b5050505050505b600160006000508190909055505b5050565b60006129e88261450e63ffffffff16565b90506129ef565b919050565b600460009054906101000a900473ffffffffffffffffffffffffffffffffffffffff1681565b6000600a600050805490508261ffff16101515612a6c576040517f08c379a0000000000000000000000000000000000000000000000000000000008152600401612a6390615a02565b60405180910390fd5b600a6000508261ffff16815481101515612a8957612a88615525565b5b906000526020600020900160005b9054906101000a900473ffffffffffffffffffffffffffffffffffffffff169050612abd565b919050565b6000600260006000505414151515612b0f576040517f08c379a0000000000000000000000000000000000000000000000000000000008152600401612b0690615439565b60405180910390fd5b60026000600050819090905550600a600050805490508561ffff16101515612b6c576040517f08c379a0000000000000000000000000000000000000000000000000000000008152600401612b6390615951565b60405180910390fd5b600084111515612bb1576040517f08c379a0000000000000000000000000000000000000000000000000000000008152600401612ba890615a41565b60405180910390fd5b612bc08361411763ffffffff16565b612bce61390663ffffffff16565b6000612bdf8661252963ffffffff16565b9050612c27612bf7868660ff1661404063ffffffff16565b600960005060008961ffff1661ffff168152602001908152602001600020600050546141ad90919063ffffffff16565b600960005060008861ffff1661ffff168152602001908152602001600020600050819090905550600560009054906101000a900473ffffffffffffffffffffffffffffffffffffffff1673ffffffffffffffffffffffffffffffffffffffff1663755edd17846040518263ffffffff1660e01b8152600401612ca9919061512b565b6020604051808303816000875af1158015612cc9573d600060003e3d6000fd5b505050506040513d601f19601f82011682018060405250810190612ced9190615a80565b915081506000612d01613bda63ffffffff16565b9050612da2836040518060e0016040528089815260200185602001518152602001856000015181526020018467ffffffffffffffff168152602001612d6a612d518a60ff166141c863ffffffff16565b8667ffffffffffffffff1661420190919063ffffffff16565b67ffffffffffffffff1681526020018860ff1667ffffffffffffffff1681526020018a61ffff1681526020015061421c63ffffffff16565b612dfd600a6000508861ffff16815481101515612dc257612dc1615525565b5b906000526020600020900160005b9054906101000a900473ffffffffffffffffffffffffffffffffffffffff1633308961459363ffffffff16565b8460ff168473ffffffffffffffffffffffffffffffffffffffff168861ffff167ffd5af8482cd27088275e2c1370259ff534cf1c987cf2105e24da196377e5c98d89604051612e4c9190614e3a565b60405180910390a48292505050612e605650505b600160006000508190909055505b949350505050565b600560009054906101000a900473ffffffffffffffffffffffffffffffffffffffff1681565b612efb600360009054906101000a900473ffffffffffffffffffffffffffffffffffffffff1673ffffffffffffffffffffffffffffffffffffffff163373ffffffffffffffffffffffffffffffffffffffff1614613c4863ffffffff16565b60008473ffffffffffffffffffffffffffffffffffffffff16637e90f9ab6040518163ffffffff1660e01b8152600401602060405180830381865afa158015612f49573d600060003e3d6000fd5b505050506040513d601f19601f82011682018060405250810190612f6d91906156db565b9050600660005060008673ffffffffffffffffffffffffffffffffffffffff1673ffffffffffffffffffffffffffffffffffffffff1681526020019081526020016000206000506000858152602001908152602001600020600050600001601f9054906101000a900460ff1615156133495760008173ffffffffffffffffffffffffffffffffffffffff166370a08231306040518263ffffffff1660e01b815260040161301a919061512b565b602060405180830381865afa158015613038573d600060003e3d6000fd5b505050506040513d601f19601f8201168201806040525081019061305c91906158a5565b90506000600167ffffffffffffffff81111561307b5761307a614eb8565b5b6040519080825280602002602001820160405280156130a95781602001602082028036833780820191505090505b509050858160008151811015156130c3576130c2615525565b5b60200260200101909081815260200150508673ffffffffffffffffffffffffffffffffffffffff1663062f1466826040518263ffffffff1660e01b815260040161310d9190615aa9565b600060405180830381600087803b1580156131285760006000fd5b505af115801561313d573d600060003e3d6000fd5b5050505060006131d0838573ffffffffffffffffffffffffffffffffffffffff166370a08231306040518263ffffffff1660e01b8152600401613180919061512b565b602060405180830381865afa15801561319e573d600060003e3d6000fd5b505050506040513d601f19601f820116820180604052508101906131c291906158a5565b61406f90919063ffffffff16565b905060405180604001604052806131ee83614623909063ffffffff16565b7affffffffffffffffffffffffffffffffffffffffffffffffffffff167effffffffffffffffffffffffffffffffffffffffffffffffffffffffffffff16815260200160011515815260200150600660005060008a73ffffffffffffffffffffffffffffffffffffffff1673ffffffffffffffffffffffffffffffffffffffff168152602001908152602001600020600050600089815260200190815260200160002060005060008201518160000160006101000a8154817effffffffffffffffffffffffffffffffffffffffffffffffffffffffffffff02191690837effffffffffffffffffffffffffffffffffffffffffffffffffffffffffffff160217905550602082015181600001601f6101000a81548160ff021916908315150217905550905050613345847f00000000000000000000000000000000000000000000000000000000000000008361408a63ffffffff16565b5050505b7f000000000000000000000000000000000000000000000000000000000000000073ffffffffffffffffffffffffffffffffffffffff1663d1660f99828561344286600660005060008c73ffffffffffffffffffffffffffffffffffffffff1673ffffffffffffffffffffffffffffffffffffffff16815260200190815260200160002060005060008b815260200190815260200160002060005060000160009054906101000a90047effffffffffffffffffffffffffffffffffffffffffffffffffffffffffffff167effffffffffffffffffffffffffffffffffffffffffffffffffffffffffffff1661469290919063ffffffff16565b6040518463ffffffff1660e01b815260040161346093929190615af8565b600060405180830381600087803b15801561347b5760006000fd5b505af1158015613490573d600060003e3d6000fd5b50505050505b50505050565b6134fb600e60009054906101000a900473ffffffffffffffffffffffffffffffffffffffff1673ffffffffffffffffffffffffffffffffffffffff163373ffffffffffffffffffffffffffffffffffffffff1614613c4863ffffffff16565b600e60006101000a81549073ffffffffffffffffffffffffffffffffffffffff021916905561352e61390663ffffffff16565b61353c613bda63ffffffff16565b600e60146101000a81548167ffffffffffffffff021916908367ffffffffffffffff1602179055507fe0c110dd4938fc8e228e75a489735745046395ad536dd80c35559debe653714760405160405180910390a15b565b600160009054906101000a900473ffffffffffffffffffffffffffffffffffffffff1681565b7f000000000000000000000000000000000000000000000000000000000000000081565b7f000000000000000000000000000000000000000000000000000000000000000081565b600260009054906101000a900473ffffffffffffffffffffffffffffffffffffffff1681565b6136643073ffffffffffffffffffffffffffffffffffffffff163373ffffffffffffffffffffffffffffffffffffffff1614613c4863ffffffff16565b61ffff61ffff16600a600050805490501015156136815760006000fd5b600a60005081908060018154018082558091505060019003906000526020600020900160005b9091909190916101000a81548173ffffffffffffffffffffffffffffffffffffffff021916908373ffffffffffffffffffffffffffffffffffffffff1602179055508073ffffffffffffffffffffffffffffffffffffffff167f784c8f4dbf0ffedd6e72c76501c545a70f8b203b30a26ce542bf92ba87c248a460405160405180910390a25b5b50565b600d60009054906101000a900473ffffffffffffffffffffffffffffffffffffffff1681565b600760009054906101000a900467ffffffffffffffff1681565b600060006000600360009054906101000a900473ffffffffffffffffffffffffffffffffffffffff1673ffffffffffffffffffffffffffffffffffffffff166383b0ce15856040518263ffffffff1660e01b81526004016137d29190614e3a565b606060405180830381865afa1580156137f0573d600060003e3d6000fd5b505050506040513d601f19601f820116820180604052508101906138149190615b32565b9250925092508273ffffffffffffffffffffffffffffffffffffffff166315373e3d83836040518363ffffffff1660e01b8152600401613855929190615b75565b600060405180830381600087803b1580156138705760006000fd5b505af1158015613885573d600060003e3d6000fd5b505050505050505b50565b600f60009054906101000a900467ffffffffffffffff1681565b600068010000000000000000821015156138f9576040517f08c379a00000000000000000000000000000000000000000000000000000000081526004016138f090615b90565b60405180910390fd5b819050613901565b919050565b6000613916613bda63ffffffff16565b9050600760009054906101000a900467ffffffffffffffff1667ffffffffffffffff168167ffffffffffffffff161115156139515750613bd8565b6000600760009054906101000a900467ffffffffffffffff16826139759190615bcf565b90506000600a6000508054905090506000816139b18467ffffffffffffffff166139a36117c563ffffffff16565b6144f390919063ffffffff16565b6139bb91906158f4565b90506139c5614c26565b6000600090505b838161ffff161015613b66576139e78161252963ffffffff16565b915081506040518060400160405280613a5a613a4d613a3a8967ffffffffffffffff16600960005060008861ffff1661ffff168152602001908152602001600020600050546144f390919063ffffffff16565b86600001516141ad90919063ffffffff16565b6146b8909063ffffffff16565b6fffffffffffffffffffffffffffffffff168152602001613a98613a8b8686602001516141ad90919063ffffffff16565b6146b8909063ffffffff16565b6fffffffffffffffffffffffffffffffff16815260200150600860005060008361ffff1661ffff16815260200190815260200160002060005060008201518160000160006101000a8154816fffffffffffffffffffffffffffffffff02191690836fffffffffffffffffffffffffffffffff16021790555060208201518160000160106101000a8154816fffffffffffffffffffffffffffffffff02191690836fffffffffffffffffffffffffffffffff1602179055509050505b8080613b5e90615c01565b9150506139cc565b5084600760006101000a81548167ffffffffffffffff021916908367ffffffffffffffff1602179055508467ffffffffffffffff167f5df8d820031efa286b254435a169e0eda922fa20c466be6471c6deaa51dc116585604051613bca9190614c47565b60405180910390a250505050505b565b60007f00000000000000000000000000000000000000000000000000000000000000007f0000000000000000000000000000000000000000000000000000000000000000613c2c61471c63ffffffff16565b613c369190615c28565b613c409190615bcf565b905080505b90565b801515613c8a576040517f08c379a0000000000000000000000000000000000000000000000000000000008152600401613c8190615c56565b60405180910390fd5b5b50565b6001600c6000506000837bffffffffffffffffffffffffffffffffffffffffffffffffffffffff19167bffffffffffffffffffffffffffffffffffffffffffffffffffffffff1916815260200190815260200160002060006101000a81548160ff0219169083151502179055505b50565b600060008273ffffffffffffffffffffffffffffffffffffffff163b119050613d23565b919050565b60006201000082101515613d71576040517f08c379a0000000000000000000000000000000000000000000000000000000008152600401613d6890615c95565b60405180910390fd5b819050613d79565b919050565b613d86614bc4565b613d95826114e963ffffffff16565b90508050613da761390663ffffffff16565b600760009054906101000a900467ffffffffffffffff1667ffffffffffffffff16816060015167ffffffffffffffff16101515613de65780905061403b565b6000613dfb8260c0015161252963ffffffff16565b905060008260600151600760009054906101000a900467ffffffffffffffff16613e259190615bcf565b67ffffffffffffffff16613e4a8460400151846000015161406f90919063ffffffff16565b613e5491906158f4565b90506000613e9e613e768560200151856020015161406f90919063ffffffff16565b83613e8f87600001518860a0015161404063ffffffff16565b6147379092919063ffffffff16565b90506000811115613fd757600460009054906101000a900473ffffffffffffffffffffffffffffffffffffffff1673ffffffffffffffffffffffffffffffffffffffff1663449a52f8600560009054906101000a900473ffffffffffffffffffffffffffffffffffffffff1673ffffffffffffffffffffffffffffffffffffffff16636352211e886040518263ffffffff1660e01b8152600401613f4291906156bf565b602060405180830381865afa158015613f60573d600060003e3d6000fd5b505050506040513d601f19601f82011682018060405250810190613f8491906156db565b836040518363ffffffff1660e01b8152600401613fa29291906154f6565b600060405180830381600087803b158015613fbd5760006000fd5b505af1158015613fd2573d600060003e3d6000fd5b505050505b826020015184602001909081815260200150508260000151846040019090818152602001505061400b613bda63ffffffff16565b846060019067ffffffffffffffff16908167ffffffffffffffff168152602001505083935050505061403b565050505b919050565b60006140628267ffffffffffffffff16600c856147379092919063ffffffff16565b9050614069565b92915050565b6000818361407d9190615743565b9050614084565b92915050565b6141118363a9059cbb60e01b84846040516024016140a99291906154f6565b604051602081830303815290604052907bffffffffffffffffffffffffffffffffffffffffffffffffffffffff19166020820180517bffffffffffffffffffffffffffffffffffffffffffffffffffffffff838183161783525050505061485b63ffffffff16565b5b505050565b8060ff16600667ffffffffffffffff16111580156141435750603067ffffffffffffffff168160ff1611155b80156141685750600060038260ff1661415c9190615cd4565b67ffffffffffffffff16145b15156141a9576040517f08c379a00000000000000000000000000000000000000000000000000000000081526004016141a090615d02565b60405180910390fd5b5b50565b600081836141bb9190615d41565b90506141c2565b92915050565b6000600c6141eb61016d8467ffffffffffffffff1661492890919063ffffffff16565b6141f59190615c28565b90506141fc565b919050565b6000818361420f9190615990565b9050614216565b92915050565b6040518060e0016040528061423c83600001516146b8909063ffffffff16565b6fffffffffffffffffffffffffffffffff16815260200161426883602001516146b8909063ffffffff16565b6fffffffffffffffffffffffffffffffff1681526020016142948360400151614943909063ffffffff16565b76ffffffffffffffffffffffffffffffffffffffffffffff1681526020016142d1836060015167ffffffffffffffff16613d28909063ffffffff16565b61ffff1681526020016142f9836080015167ffffffffffffffff16613d28909063ffffffff16565b61ffff1681526020018260c0015161ffff16815260200161432f8360a0015167ffffffffffffffff166149ae909063ffffffff16565b60ff16815260200150600b60005060008467ffffffffffffffff1667ffffffffffffffff16815260200190815260200160002060005060008201518160000160006101000a8154816fffffffffffffffffffffffffffffffff02191690836fffffffffffffffffffffffffffffffff16021790555060208201518160000160106101000a8154816fffffffffffffffffffffffffffffffff02191690836fffffffffffffffffffffffffffffffff16021790555060408201518160010160006101000a81548176ffffffffffffffffffffffffffffffffffffffffffffff021916908376ffffffffffffffffffffffffffffffffffffffffffffff16021790555060608201518160010160176101000a81548161ffff021916908361ffff16021790555060808201518160010160196101000a81548161ffff021916908361ffff16021790555060a082015181600101601b6101000a81548161ffff021916908361ffff16021790555060c082015181600101601d6101000a81548160ff021916908360ff1602179055509050505b5050565b6000818051906020012090506144d3565b919050565b600081836144e69190615bcf565b90506144ed565b92915050565b600081836145019190615d61565b9050614508565b92915050565b6000614589614550837f000000000000000000000000000000000000000000000000000000000000000067ffffffffffffffff1661420190919063ffffffff16565b7f000000000000000000000000000000000000000000000000000000000000000067ffffffffffffffff1661492890919063ffffffff16565b905080505b919050565b61461c846323b872dd60e01b8585856040516024016145b493929190615da6565b604051602081830303815290604052907bffffffffffffffffffffffffffffffffffffffffffffffffffffffff19166020820180517bffffffffffffffffffffffffffffffffffffffffffffffffffffffff838183161783525050505061485b63ffffffff16565b5b50505050565b60007b0100000000000000000000000000000000000000000000000000000082101515614685576040517f08c379a000000000000000000000000000000000000000000000000000000000815260040161467c90615de0565b60405180910390fd5b81905061468d565b919050565b60006146ad8383670de0b6b3a764000061473763ffffffff16565b905080505b92915050565b60007001000000000000000000000000000000008210151561470f576040517f08c379a000000000000000000000000000000000000000000000000000000000815260040161470690615e1f565b60405180910390fd5b819050614717565b919050565b600061472f426138aa909063ffffffff16565b905080505b90565b600060006000600019858709858702925082811083820303915050600081141561477a5760008411151561476b5760006000fd5b83820492508292505050614854565b80841115156147895760006000fd5b60008486880990508281118203915080830392506000856001877fffffffffffffffffffffffffffffffffffffffffffffffffffffffffffffffff03011690508050808604955080840493506001818260000304019050808302841793508350600060028760030218905080870260020381029050805080870260020381029050805080870260020381029050805080870260020381029050805080870260020381029050805080870260020381029050805080850295508550508494505050505061485456505050505b9392505050565b60006148c0826040518060400160405280602081526020017f5361666545524332303a206c6f772d6c6576656c2063616c6c206661696c65648152602001508573ffffffffffffffffffffffffffffffffffffffff16614a039092919063ffffffff16565b905060008151111561492257808060200190518101906148e0919061565b565b1515614921576040517f08c379a000000000000000000000000000000000000000000000000000000000815260040161491890615e5e565b60405180910390fd5b5b505b5050565b600081836149369190615ec3565b905061493d565b92915050565b600077010000000000000000000000000000000000000000000000821015156149a1576040517f08c379a000000000000000000000000000000000000000000000000000000000815260040161499890615efa565b60405180910390fd5b8190506149a9565b919050565b6000610100821015156149f6576040517f08c379a00000000000000000000000000000000000000000000000000000000081526004016149ed90615f39565b60405180910390fd5b8190506149fe565b919050565b6060614a188484600085614a2663ffffffff16565b9050614a1f565b9392505050565b6060824710151515614a6d576040517f08c379a0000000000000000000000000000000000000000000000000000000008152600401614a6490615f78565b60405180910390fd5b614a7c85613cff63ffffffff16565b1515614abd576040517f08c379a0000000000000000000000000000000000000000000000000000000008152600401614ab490615fdd565b60405180910390fd5b600060008673ffffffffffffffffffffffffffffffffffffffff168587604051614ae7919061586a565b60006040518083038185875af1925050503d8060008114614b24576040519150601f19603f3d011682016040523d82523d6000602084013e614b29565b606091505b5091509150614b3f828286614b5263ffffffff16565b92505050614b4a5650505b949350505050565b60608315614b6657829050614bbd56614bbc565b600083511115614b7e5782518084602001fd50614bbb565b816040517f08c379a0000000000000000000000000000000000000000000000000000000008152600401614bb29190615889565b60405180910390fd5b5b5b9392505050565b6040518060e00160405280600081526020016000815260200160008152602001600067ffffffffffffffff168152602001600067ffffffffffffffff168152602001600067ffffffffffffffff168152602001600061ffff1681526020015090565b6040518060400160405280600081526020016000815260200150905661601c565b600060208201905067ffffffffffffffff831682525b92915050565b73ffffffffffffffffffffffffffffffffffffffff811681141515614c885760006000fd5b505b565b600060006000600060808587031215614ca55760006000fd5b8435614cb081614c63565b809450506020850135614cc281614c63565b809350506040850135614cd481614c63565b809250506060850135614ce681614c63565b809150505b92959194509250565b600060208284031215614d075760006000fd5b8135614d1281614c63565b809150505b92915050565b6000600060408385031215614d325760006000fd5b8235614d3d81614c63565b80925050602083013590505b9250929050565b600060208284031215614d635760006000fd5b8135614d6e81614c63565b809150505b92915050565b600060208201905061ffff831682525b92915050565b67ffffffffffffffff811681141515614da85760006000fd5b505b565b600060208284031215614dbf5760006000fd5b8135614dca81614d8f565b809150505b92915050565b600060e082019050825182526020830151602083015260408301516040830152606083015167ffffffffffffffff80821660608501528060808601511660808501528060a08601511660a0850152505061ffff60c08401511660c08301525b92915050565b60006020820190508282525b92915050565b60008135905060ff811681141515614e645760006000fd5b5b919050565b6000600060408385031215614e7f5760006000fd5b8235614e8a81614d8f565b80925050614e9a60208401614e4c565b90505b9250929050565b600060208201905082151582525b92915050565b7f4e487b7100000000000000000000000000000000000000000000000000000000600052604160045260246000fd5b565b600067ffffffffffffffff80841115614f0557614f04614eb8565b5b7fffffffffffffffffffffffffffffffffffffffffffffffffffffffffffffffe060405181603f83601f8901160116810191508082108383111715614f4d57614f4c614eb8565b5b81604052809350858152868686011115614f675760006000fd5b858560208301376000602087830101525050505b9392505050565b60006000600060608486031215614f995760006000fd5b8335614fa481614c63565b80935050602084013567ffffffffffffffff80821115614fc45760006000fd5b818601915086601f8301121515614fdb5760006000fd5b614fea87833560208501614ee9565b935060408601359150808211156150015760006000fd5b50808501905085601f82011215156150195760006000fd5b61502886823560208401614ee9565b9150505b9250925092565b60005b838110156150525780820151818401525b602081019050615036565b83811115615061576000848401525b505050505b565b60008151808452615080816020860160208601615033565b60207fffffffffffffffffffffffffffffffffffffffffffffffffffffffffffffffe0601f8301168501019150505b92915050565b82151581526040602082015260006150d06040830184615068565b90505b9392505050565b6000602082840312156150ed5760006000fd5b81357fffffffff000000000000000000000000000000000000000000000000000000008116811415156151205760006000fd5b809150505b92915050565b600060208201905073ffffffffffffffffffffffffffffffffffffffff831682525b92915050565b60006000602083850312156151685760006000fd5b823567ffffffffffffffff808211156151815760006000fd5b818501915085601f83011215156151985760006000fd5b8135818111156151a85760006000fd5b8660208260051b85010111156151be5760006000fd5b6020830194508093505050505b9250929050565b6000602082840312156151e55760006000fd5b813590505b92915050565b600060208201905073ffffffffffffffffffffffffffffffffffffffff831682525b92915050565b60008135905061ffff8116811415156152315760006000fd5b5b919050565b60006020828403121561524a5760006000fd5b61525382615218565b90505b92915050565b600060408201905082518252602083015160208301525b92915050565b60006020808301818452808551808352604086019150838701925060005b818110156152cf5773ffffffffffffffffffffffffffffffffffffffff8451168352848301925084840193505b600181019050615297565b50508093505050505b92915050565b60006040820190507effffffffffffffffffffffffffffffffffffffffffffffffffffffffffffff8416825282151560208301525b9392505050565b600060208201905073ffffffffffffffffffffffffffffffffffffffff831682525b92915050565b600060208201905073ffffffffffffffffffffffffffffffffffffffff831682525b92915050565b6000600060006000608085870312156153835760006000fd5b61538c85615218565b9350602085013592506153a160408601614e4c565b915060608501356153b181614c63565b809150505b92959194509250565b600060208201905073ffffffffffffffffffffffffffffffffffffffff831682525b92915050565b6000600060006000608085870312156154005760006000fd5b843561540b81614c63565b8094505060208501359250604085013561542481614c63565b80925050606085013590505b92959194509250565b60208152601f60208201527f5265656e7472616e637947756172643a207265656e7472616e742063616c6c00604082015260006060820190505b919050565b60208152601460208201527f436f6e747261637420616c726561647920736574000000000000000000000000604082015260006060820190505b919050565b60208152600e60208201527f4e6f74206120636f6e7472616374000000000000000000000000000000000000604082015260006060820190505b919050565b600060408201905073ffffffffffffffffffffffffffffffffffffffff841682528260208301525b9392505050565b7f4e487b7100000000000000000000000000000000000000000000000000000000600052603260045260246000fd5b565b7f4e487b7100000000000000000000000000000000000000000000000000000000600052601160045260246000fd5b565b60007fffffffffffffffffffffffffffffffffffffffffffffffffffffffffffffffff8214156155ba576155b9615556565b5b6001820190505b919050565b60208152601560208201527f5444616f3a20546f6b656e206e6f7420666f756e640000000000000000000000604082015260006060820190505b919050565b600060408201905073ffffffffffffffffffffffffffffffffffffffff8416825267ffffffffffffffff831660208301525b9392505050565b600081519050801515811415156156555760006000fd5b5b919050565b60006020828403121561566e5760006000fd5b6156778261563e565b90505b92915050565b60208152600c60208201527f5374696c6c206c6f636b65640000000000000000000000000000000000000000604082015260006060820190505b919050565b600060208201905067ffffffffffffffff831682525b92915050565b6000602082840312156156ee5760006000fd5b81516156f981614c63565b809150505b92915050565b60208152600c60208201527f506f736974696f6e20444e450000000000000000000000000000000000000000604082015260006060820190505b919050565b60008282101561575657615755615556565b5b82820390505b92915050565b60208152601b60208201527f4d75737420696e637265617365206c6f636b206475726174696f6e0000000000604082015260006060820190505b919050565b60208152601060208201527f496e76616c696420706f736974696f6e00000000000000000000000000000000604082015260006060820190505b919050565b60208152601260208201527f416374696f6e20626c61636b6c69737465640000000000000000000000000000604082015260006060820190505b919050565b7fffffffff000000000000000000000000000000000000000000000000000000008316815260008251615859816004850160208701615033565b6004818401019150505b9392505050565b6000825161587c818460208701615033565b8083019150505b92915050565b60208152600061589c6020830184615068565b90505b92915050565b6000602082840312156158b85760006000fd5b815190505b92915050565b7f4e487b7100000000000000000000000000000000000000000000000000000000600052601260045260246000fd5b565b6000821515615906576159056158c3565b5b82820490505b92915050565b60208152601660208201527f4d6f7265207468616e203225206f6620737570706c7900000000000000000000604082015260006060820190505b919050565b60208152601160208201527f556e737570706f7274656420746f6b656e000000000000000000000000000000604082015260006060820190505b919050565b600067ffffffffffffffff8083168185168083038211156159b4576159b3615556565b5b80820193505050505b92915050565b60208152601260208201527f416c6c6f746d656e742065786365656465640000000000000000000000000000604082015260006060820190505b919050565b60208152601060208201527f496e76616c696420746f6b656e20494400000000000000000000000000000000604082015260006060820190505b919050565b60208152600460208201527f4e6f6f7000000000000000000000000000000000000000000000000000000000604082015260006060820190505b919050565b600060208284031215615a935760006000fd5b8151615a9e81614d8f565b809150505b92915050565b60006020808301818452808551808352604086019150838701925060005b81811015615ae95783518352848301925084840193505b600181019050615ac7565b50508093505050505b92915050565b600060608201905073ffffffffffffffffffffffffffffffffffffffff80861683528085166020840152508260408301525b949350505050565b60006000600060608486031215615b495760006000fd5b8351615b5481614c63565b8093505060208401519150615b6b6040850161563e565b90505b9250925092565b600060408201905083825282151560208301525b9392505050565b60208152601160208201527f6d6f7265207468616e2036342062697473000000000000000000000000000000604082015260006060820190505b919050565b600067ffffffffffffffff808316818516915081811015615bf357615bf2615556565b5b818103925050505b92915050565b600061ffff80831681811415615c1a57615c19615556565b5b60018101925050505b919050565b600067ffffffffffffffff808416801515615c4657615c456158c3565b5b8082851604925050505b92915050565b60208152600e60208201527f4e6f7420417574686f72697a6564000000000000000000000000000000000000604082015260006060820190505b919050565b60208152601160208201527f6d6f7265207468616e2031362062697473000000000000000000000000000000604082015260006060820190505b919050565b600067ffffffffffffffff808416801515615cf257615cf16158c3565b5b8082851606925050505b92915050565b60208152601560208201527f496e76616c6964206c6f636b206475726174696f6e0000000000000000000000604082015260006060820190505b919050565b60008219821115615d5557615d54615556565b5b82820190505b92915050565b6000817fffffffffffffffffffffffffffffffffffffffffffffffffffffffffffffffff0483118215151615615d9a57615d99615556565b5b82820290505b92915050565b600060608201905073ffffffffffffffffffffffffffffffffffffffff80861683528085166020840152508260408301525b949350505050565b60208152601260208201527f6d6f7265207468616e2032313620626974730000000000000000000000000000604082015260006060820190505b919050565b60208152601260208201527f6d6f7265207468616e2031323820626974730000000000000000000000000000604082015260006060820190505b919050565b60208152602a60208201527f5361666545524332303a204552433230206f7065726174696f6e20646964206e60408201527f6f74207375636365656400000000000000000000000000000000000000000000606082015260006080820190505b919050565b600067ffffffffffffffff80831681851681830481118215151615615eeb57615eea615556565b5b80820293505050505b92915050565b60208152601260208201527f6d6f7265207468616e2031383420626974730000000000000000000000000000604082015260006060820190505b919050565b60208152601060208201527f6d6f7265207468616e2038206269747300000000000000000000000000000000604082015260006060820190505b919050565b60208152602660208201527f416464726573733a20696e73756666696369656e742062616c616e636520666f60408201527f722063616c6c0000000000000000000000000000000000000000000000000000606082015260006080820190505b919050565b60208152601d60208201527f416464726573733a2063616c6c20746f206e6f6e2d636f6e7472616374000000604082015260006060820190505b919050565bfea26469706673582212200713e69464d4538115ffb46f22103d0a8e36fbae4331bd9591e0de0011afe72264736f6c634300080c003360a06040523480156100115760006000fd5b505b3373ffffffffffffffffffffffffffffffffffffffff1660808173ffffffffffffffffffffffffffffffffffffffff16815260200150505b610050565b6080516107bb61007160003960008181607d015261013201526107bb6000f3fe60806040523480156100115760006000fd5b506004361061003b5760003560e01c8063d1660f9914610041578063de9375f21461005d5761003b565b60006000fd5b61005b600480360381019061005691906104c5565b61007b565b005b610065610130565b604051610072919061050c565b60405180910390f35b7f000000000000000000000000000000000000000000000000000000000000000073ffffffffffffffffffffffffffffffffffffffff163373ffffffffffffffffffffffffffffffffffffffff1614151561010b576040517f08c379a000000000000000000000000000000000000000000000000000000000815260040161010290610534565b60405180910390fd5b60008114156101195761012b565b61012a83838361015463ffffffff16565b5b505050565b7f000000000000000000000000000000000000000000000000000000000000000081565b6101db8363a9059cbb60e01b8484604051602401610173929190610573565b604051602081830303815290604052907bffffffffffffffffffffffffffffffffffffffffffffffffffffffff19166020820180517bffffffffffffffffffffffffffffffffffffffffffffffffffffffff83818316178352505050506101e163ffffffff16565b5b505050565b6000610246826040518060400160405280602081526020017f5361666545524332303a206c6f772d6c6576656c2063616c6c206661696c65648152602001508573ffffffffffffffffffffffffffffffffffffffff166102ae9092919063ffffffff16565b90506000815111156102a8578080602001905181019061026691906105a2565b15156102a7576040517f08c379a000000000000000000000000000000000000000000000000000000000815260040161029e906105d3565b60405180910390fd5b5b505b5050565b60606102c384846000856102d163ffffffff16565b90506102ca565b9392505050565b6060824710151515610318576040517f08c379a000000000000000000000000000000000000000000000000000000000815260040161030f90610638565b60405180910390fd5b610327856103fd63ffffffff16565b1515610368576040517f08c379a000000000000000000000000000000000000000000000000000000000815260040161035f9061069d565b60405180910390fd5b600060008673ffffffffffffffffffffffffffffffffffffffff1685876040516103929190610711565b60006040518083038185875af1925050503d80600081146103cf576040519150601f19603f3d011682016040523d82523d6000602084013e6103d4565b606091505b50915091506103ea82828661042663ffffffff16565b925050506103f55650505b949350505050565b600060008273ffffffffffffffffffffffffffffffffffffffff163b119050610421565b919050565b6060831561043a5782905061049156610490565b6000835111156104525782518084602001fd5061048f565b816040517f08c379a00000000000000000000000000000000000000000000000000000000081526004016104869190610730565b60405180910390fd5b5b5b939250505056610784565b73ffffffffffffffffffffffffffffffffffffffff8116811415156104c15760006000fd5b505b565b600060006000606084860312156104dc5760006000fd5b83356104e78161049c565b8093505060208401356104f98161049c565b80925050604084013590505b9250925092565b600060208201905073ffffffffffffffffffffffffffffffffffffffff831682525b92915050565b60208152600e60208201527f4e6f7420417574686f72697a6564000000000000000000000000000000000000604082015260006060820190505b919050565b600060408201905073ffffffffffffffffffffffffffffffffffffffff841682528260208301525b9392505050565b6000602082840312156105b55760006000fd5b8151801515811415156105c85760006000fd5b809150505b92915050565b60208152602a60208201527f5361666545524332303a204552433230206f7065726174696f6e20646964206e60408201527f6f74207375636365656400000000000000000000000000000000000000000000606082015260006080820190505b919050565b60208152602660208201527f416464726573733a20696e73756666696369656e742062616c616e636520666f60408201527f722063616c6c0000000000000000000000000000000000000000000000000000606082015260006080820190505b919050565b60208152601d60208201527f416464726573733a2063616c6c20746f206e6f6e2d636f6e7472616374000000604082015260006060820190505b919050565b60005b838110156106fb5780820151818401525b6020810190506106df565b8381111561070a576000848401525b505050505b565b600082516107238184602087016106dc565b8083019150505b92915050565b602081526000825180602084015261074f8160408501602087016106dc565b60407fffffffffffffffffffffffffffffffffffffffffffffffffffffffffffffffe0601f8301168401019150505b92915050565bfea2646970667358221220b3f55949f5afbca746228654ecdc5408be86400cf5a330f382255a3803b2282564736f6c634300080c0033",
  "linkReferences": {},
  "deployedLinkReferences": {}
}