{
  "_format": "hh-sol-artifact-1",
  "contractName": "TDao",
  "sourceName": "contracts/core/TDao/TDao.sol",
  "abi": [
    {
      "inputs": [
        {
          "internalType": "address",
          "name": "_guardian",
          "type": "address"
        },
        {
          "internalType": "contract IERC20",
          "name": "firstToken",
          "type": "address"
        }
      ],
      "stateMutability": "nonpayable",
      "type": "constructor"
    },
    {
      "anonymous": false,
      "inputs": [
        {
          "indexed": true,
          "internalType": "address",
          "name": "token",
          "type": "address"
        },
        {
          "indexed": false,
          "internalType": "uint256",
          "name": "count",
          "type": "uint256"
        }
      ],
      "name": "IncentiveMinted",
      "type": "event"
    },
    {
      "anonymous": false,
      "inputs": [
        {
          "indexed": true,
          "internalType": "uint64",
          "name": "currentPeriod",
          "type": "uint64"
        },
        {
          "indexed": false,
          "internalType": "uint64",
          "name": "periods",
          "type": "uint64"
        }
      ],
      "name": "InflationAccrued",
      "type": "event"
    },
    {
      "anonymous": false,
      "inputs": [
        {
          "indexed": true,
          "internalType": "address",
          "name": "_contract",
          "type": "address"
        }
      ],
      "name": "LiquidationIncentiveContractSet",
      "type": "event"
    },
    {
      "anonymous": false,
      "inputs": [
        {
          "indexed": true,
          "internalType": "uint64",
          "name": "positionNFTTokenID",
          "type": "uint64"
        },
        {
          "indexed": true,
          "internalType": "uint16",
          "name": "lockDurationMonths",
          "type": "uint16"
        }
      ],
      "name": "LockDurationIncrease",
      "type": "event"
    },
    {
      "anonymous": false,
      "inputs": [
        {
          "indexed": true,
          "internalType": "uint64",
          "name": "positionNFTTokenID",
          "type": "uint64"
        },
        {
          "indexed": true,
          "internalType": "address",
          "name": "owner",
          "type": "address"
        }
      ],
      "name": "RewardsClaimed",
      "type": "event"
    },
    {
      "anonymous": false,
      "inputs": [],
      "name": "TDaoStarted",
      "type": "event"
    },
    {
      "anonymous": false,
      "inputs": [
        {
          "indexed": true,
          "internalType": "address",
          "name": "token",
          "type": "address"
        }
      ],
      "name": "TokenAdded",
      "type": "event"
    },
    {
      "anonymous": false,
      "inputs": [
        {
          "indexed": true,
          "internalType": "uint16",
          "name": "tokenID",
          "type": "uint16"
        },
        {
          "indexed": true,
          "internalType": "address",
          "name": "initialOwner",
          "type": "address"
        },
        {
          "indexed": true,
          "internalType": "uint8",
          "name": "lockDurationMonths",
          "type": "uint8"
        },
        {
          "indexed": false,
          "internalType": "uint256",
          "name": "count",
          "type": "uint256"
        }
      ],
      "name": "TokensLocked",
      "type": "event"
    },
    {
      "anonymous": false,
      "inputs": [
        {
          "indexed": true,
          "internalType": "uint16",
          "name": "tokenID",
          "type": "uint16"
        },
        {
          "indexed": true,
          "internalType": "address",
          "name": "owner",
          "type": "address"
        },
        {
          "indexed": false,
          "internalType": "uint256",
          "name": "count",
          "type": "uint256"
        }
      ],
      "name": "TokensUnlocked",
      "type": "event"
    },
    {
      "inputs": [],
      "name": "accrueInflation",
      "outputs": [],
      "stateMutability": "nonpayable",
      "type": "function"
    },
    {
      "inputs": [
        {
          "internalType": "contract IERC20",
          "name": "token",
          "type": "address"
        }
      ],
      "name": "addToken",
      "outputs": [],
      "stateMutability": "nonpayable",
      "type": "function"
    },
    {
      "inputs": [],
      "name": "allTokens",
      "outputs": [
        {
          "internalType": "contract IERC20[]",
          "name": "",
          "type": "address[]"
        }
      ],
      "stateMutability": "view",
      "type": "function"
    },
    {
      "inputs": [
        {
          "internalType": "bytes4",
          "name": "",
          "type": "bytes4"
        }
      ],
      "name": "blacklistedAction",
      "outputs": [
        {
          "internalType": "bool",
          "name": "",
          "type": "bool"
        }
      ],
      "stateMutability": "view",
      "type": "function"
    },
    {
      "inputs": [],
      "name": "countUnderlyingProtocolTokens",
      "outputs": [
        {
          "internalType": "uint256",
          "name": "",
          "type": "uint256"
        }
      ],
      "stateMutability": "view",
      "type": "function"
    },
    {
      "inputs": [],
      "name": "currentPeriod",
      "outputs": [
        {
          "internalType": "uint64",
          "name": "period",
          "type": "uint64"
        }
      ],
      "stateMutability": "view",
      "type": "function"
    },
    {
      "inputs": [],
      "name": "dailyProtocolTDaoIncentiveCount",
      "outputs": [
        {
          "internalType": "uint256",
          "name": "",
          "type": "uint256"
        }
      ],
      "stateMutability": "view",
      "type": "function"
    },
    {
      "inputs": [],
      "name": "deployer",
      "outputs": [
        {
          "internalType": "address",
          "name": "",
          "type": "address"
        }
      ],
      "stateMutability": "view",
      "type": "function"
    },
    {
      "inputs": [
        {
          "internalType": "address",
          "name": "target",
          "type": "address"
        },
        {
          "internalType": "string",
          "name": "signature",
          "type": "string"
        },
        {
          "internalType": "bytes",
          "name": "data",
          "type": "bytes"
        }
      ],
      "name": "execute",
      "outputs": [
        {
          "internalType": "bool",
          "name": "success",
          "type": "bool"
        },
        {
          "internalType": "bytes",
          "name": "returnData",
          "type": "bytes"
        }
      ],
      "stateMutability": "nonpayable",
      "type": "function"
    },
    {
      "inputs": [
        {
          "internalType": "uint256",
          "name": "metaProposalID",
          "type": "uint256"
        }
      ],
      "name": "executeMetaProposalVote",
      "outputs": [],
      "stateMutability": "nonpayable",
      "type": "function"
    },
    {
      "inputs": [],
      "name": "firstPeriod",
      "outputs": [
        {
          "internalType": "uint64",
          "name": "",
          "type": "uint64"
        }
      ],
      "stateMutability": "view",
      "type": "function"
    },
    {
      "inputs": [
        {
          "internalType": "uint64",
          "name": "positionNFTTokenID",
          "type": "uint64"
        }
      ],
      "name": "getPosition",
      "outputs": [
        {
          "components": [
            {
              "internalType": "uint256",
              "name": "count",
              "type": "uint256"
            },
            {
              "internalType": "uint256",
              "name": "startTotalRewards",
              "type": "uint256"
            },
            {
              "internalType": "uint256",
              "name": "startCumulativeVirtualCount",
              "type": "uint256"
            },
            {
              "internalType": "uint64",
              "name": "lastPeriodUpdated",
              "type": "uint64"
            },
            {
              "internalType": "uint64",
              "name": "endPeriod",
              "type": "uint64"
            },
            {
              "internalType": "uint64",
              "name": "durationMonths",
              "type": "uint64"
            },
            {
              "internalType": "uint16",
              "name": "tokenID",
              "type": "uint16"
            }
          ],
          "internalType": "struct ITDao.TokenPosition",
          "name": "",
          "type": "tuple"
        }
      ],
      "stateMutability": "view",
      "type": "function"
    },
    {
      "inputs": [
        {
          "internalType": "uint64[]",
          "name": "positionNFTTokenIDs",
          "type": "uint64[]"
        }
      ],
      "name": "getRewards",
      "outputs": [],
      "stateMutability": "nonpayable",
      "type": "function"
    },
    {
      "inputs": [
        {
          "internalType": "uint16",
          "name": "tokenID",
          "type": "uint16"
        }
      ],
      "name": "getRewardsStatus",
      "outputs": [
        {
          "components": [
            {
              "internalType": "uint256",
              "name": "cumulativeVirtualCount",
              "type": "uint256"
            },
            {
              "internalType": "uint256",
              "name": "totalRewards",
              "type": "uint256"
            }
          ],
          "internalType": "struct ITDao.TokenRewardsStatus",
          "name": "",
          "type": "tuple"
        }
      ],
      "stateMutability": "view",
      "type": "function"
    },
    {
      "inputs": [],
      "name": "guardian",
      "outputs": [
        {
          "internalType": "address",
          "name": "",
          "type": "address"
        }
      ],
      "stateMutability": "view",
      "type": "function"
    },
    {
      "inputs": [
        {
          "internalType": "uint16",
          "name": "tokenID",
          "type": "uint16"
        }
      ],
      "name": "idToToken",
      "outputs": [
        {
          "internalType": "contract IERC20",
          "name": "",
          "type": "address"
        }
      ],
      "stateMutability": "view",
      "type": "function"
    },
    {
      "inputs": [],
      "name": "incentiveContract",
      "outputs": [
        {
          "internalType": "address",
          "name": "",
          "type": "address"
        }
      ],
      "stateMutability": "view",
      "type": "function"
    },
    {
      "inputs": [
        {
          "internalType": "address",
          "name": "dest",
          "type": "address"
        },
        {
          "internalType": "uint256",
          "name": "count",
          "type": "uint256"
        }
      ],
      "name": "incentiveContractMint",
      "outputs": [],
      "stateMutability": "nonpayable",
      "type": "function"
    },
    {
      "inputs": [],
      "name": "incentivesStartPeriod",
      "outputs": [
        {
          "internalType": "uint64",
          "name": "",
          "type": "uint64"
        }
      ],
      "stateMutability": "view",
      "type": "function"
    },
    {
      "inputs": [
        {
          "internalType": "uint64",
          "name": "positionNFTTokenID",
          "type": "uint64"
        },
        {
          "internalType": "uint8",
          "name": "lockDurationMonths",
          "type": "uint8"
        }
      ],
      "name": "increaseLockDuration",
      "outputs": [],
      "stateMutability": "nonpayable",
      "type": "function"
    },
    {
      "inputs": [
        {
          "internalType": "contract IPositionNFT",
          "name": "_tDaoPositionNFT",
          "type": "address"
        },
        {
          "internalType": "contract TDaoToken",
          "name": "_tDaoToken",
          "type": "address"
        },
        {
          "internalType": "address",
          "name": "_tDaoGovernorAlpha",
          "type": "address"
        },
        {
          "internalType": "address",
          "name": "_timelock",
          "type": "address"
        }
      ],
      "name": "init",
      "outputs": [],
      "stateMutability": "nonpayable",
      "type": "function"
    },
    {
      "inputs": [],
      "name": "lastPeriodGlobalInflationUpdated",
      "outputs": [
        {
          "internalType": "uint64",
          "name": "",
          "type": "uint64"
        }
      ],
      "stateMutability": "view",
      "type": "function"
    },
    {
      "inputs": [
        {
          "internalType": "uint16",
          "name": "tokenID",
          "type": "uint16"
        },
        {
          "internalType": "uint256",
          "name": "count",
          "type": "uint256"
        },
        {
          "internalType": "uint8",
          "name": "lockDurationMonths",
          "type": "uint8"
        },
        {
          "internalType": "address",
          "name": "to",
          "type": "address"
        }
      ],
      "name": "lockTokens",
      "outputs": [
        {
          "internalType": "uint64",
          "name": "positionNFTTokenID",
          "type": "uint64"
        }
      ],
      "stateMutability": "nonpayable",
      "type": "function"
    },
    {
      "inputs": [
        {
          "internalType": "address",
          "name": "dest",
          "type": "address"
        },
        {
          "internalType": "uint256",
          "name": "count",
          "type": "uint256"
        }
      ],
      "name": "mintIncentive",
      "outputs": [],
      "stateMutability": "nonpayable",
      "type": "function"
    },
    {
      "inputs": [
        {
          "internalType": "address",
          "name": "dest",
          "type": "address"
        },
        {
          "internalType": "uint256",
          "name": "count",
          "type": "uint256"
        }
      ],
      "name": "mintVotingRewards",
      "outputs": [],
      "stateMutability": "nonpayable",
      "type": "function"
    },
    {
      "inputs": [],
      "name": "periodLength",
      "outputs": [
        {
          "internalType": "uint64",
          "name": "",
          "type": "uint64"
        }
      ],
      "stateMutability": "view",
      "type": "function"
    },
    {
      "inputs": [
        {
          "internalType": "uint64",
          "name": "period",
          "type": "uint64"
        }
      ],
      "name": "periodToTime",
      "outputs": [
        {
          "internalType": "uint64",
          "name": "",
          "type": "uint64"
        }
      ],
      "stateMutability": "view",
      "type": "function"
    },
    {
      "inputs": [
        {
          "internalType": "uint64",
          "name": "positionNFTTokenID",
          "type": "uint64"
        }
      ],
      "name": "positionIsAbleToBeUnlocked",
      "outputs": [
        {
          "internalType": "bool",
          "name": "",
          "type": "bool"
        }
      ],
      "stateMutability": "view",
      "type": "function"
    },
    {
      "inputs": [
        {
          "internalType": "uint16",
          "name": "tokenID",
          "type": "uint16"
        }
      ],
      "name": "selfDelegate",
      "outputs": [],
      "stateMutability": "nonpayable",
      "type": "function"
    },
    {
      "inputs": [
        {
          "internalType": "address",
          "name": "governorAlpha",
          "type": "address"
        },
        {
          "internalType": "uint256",
          "name": "proposalID",
          "type": "uint256"
        },
        {
          "internalType": "address",
          "name": "voter",
          "type": "address"
        },
        {
          "internalType": "uint256",
          "name": "votePortion",
          "type": "uint256"
        }
      ],
      "name": "sendUnderlyingVotingRewards",
      "outputs": [],
      "stateMutability": "nonpayable",
      "type": "function"
    },
    {
      "inputs": [
        {
          "internalType": "address",
          "name": "_contract",
          "type": "address"
        }
      ],
      "name": "setIncentiveContract",
      "outputs": [],
      "stateMutability": "nonpayable",
      "type": "function"
    },
    {
      "inputs": [],
      "name": "start",
      "outputs": [],
      "stateMutability": "nonpayable",
      "type": "function"
    },
    {
      "inputs": [],
      "name": "startPeriod",
      "outputs": [
        {
          "internalType": "uint64",
          "name": "",
          "type": "uint64"
        }
      ],
      "stateMutability": "view",
      "type": "function"
    },
    {
      "inputs": [],
      "name": "tDaoGovernorAlpha",
      "outputs": [
        {
          "internalType": "address",
          "name": "",
          "type": "address"
        }
      ],
      "stateMutability": "view",
      "type": "function"
    },
    {
      "inputs": [],
      "name": "tDaoPositionNFT",
      "outputs": [
        {
          "internalType": "contract IPositionNFT",
          "name": "",
          "type": "address"
        }
      ],
      "stateMutability": "view",
      "type": "function"
    },
    {
      "inputs": [],
      "name": "tDaoToken",
      "outputs": [
        {
          "internalType": "contract TDaoToken",
          "name": "",
          "type": "address"
        }
      ],
      "stateMutability": "view",
      "type": "function"
    },
    {
      "inputs": [],
      "name": "timelock",
      "outputs": [
        {
          "internalType": "address",
          "name": "",
          "type": "address"
        }
      ],
      "stateMutability": "view",
      "type": "function"
    },
    {
      "inputs": [
        {
          "internalType": "contract IERC20",
          "name": "token",
          "type": "address"
        }
      ],
      "name": "tokenToID",
      "outputs": [
        {
          "internalType": "uint16",
          "name": "",
          "type": "uint16"
        }
      ],
      "stateMutability": "view",
      "type": "function"
    },
    {
      "inputs": [
        {
          "internalType": "uint256",
          "name": "",
          "type": "uint256"
        }
      ],
      "name": "tokens",
      "outputs": [
        {
          "internalType": "contract IERC20",
          "name": "",
          "type": "address"
        }
      ],
      "stateMutability": "view",
      "type": "function"
    },
    {
      "inputs": [],
      "name": "totalIncentivesMinted",
      "outputs": [
        {
          "internalType": "uint256",
          "name": "",
          "type": "uint256"
        }
      ],
      "stateMutability": "view",
      "type": "function"
    },
    {
      "inputs": [
        {
          "internalType": "address",
          "name": "",
          "type": "address"
        },
        {
          "internalType": "uint256",
          "name": "",
          "type": "uint256"
        }
      ],
      "name": "underlyingTokenVoteRewardCount",
      "outputs": [
        {
          "internalType": "uint248",
          "name": "count",
          "type": "uint248"
        },
        {
          "internalType": "bool",
          "name": "isSet",
          "type": "bool"
        }
      ],
      "stateMutability": "view",
      "type": "function"
    },
    {
      "inputs": [
        {
          "internalType": "uint64",
          "name": "positionNFTTokenID",
          "type": "uint64"
        }
      ],
      "name": "unlockTokens",
      "outputs": [],
      "stateMutability": "nonpayable",
      "type": "function"
    },
    {
      "inputs": [
        {
          "internalType": "uint16",
          "name": "",
          "type": "uint16"
        }
      ],
      "name": "virtualCount",
      "outputs": [
        {
          "internalType": "uint256",
          "name": "",
          "type": "uint256"
        }
      ],
      "stateMutability": "view",
      "type": "function"
    },
    {
      "inputs": [],
      "name": "votingRewardsSafe",
      "outputs": [
        {
          "internalType": "contract TDaoVotingRewardsSafe",
          "name": "",
          "type": "address"
        }
      ],
      "stateMutability": "view",
      "type": "function"
    }
  ],
  "bytecode": "0x60e06040526001600760006101000a81548167ffffffffffffffff021916908367ffffffffffffffff1602179055503480156200003c5760006000fd5b50604051620069c1380380620069c1833981810160405281019062000062919062000311565b5b5b620151805b60018167ffffffffffffffff16620000866200024860201b60201c565b67ffffffffffffffff168115156200009a57fe5b040367ffffffffffffffff1660a08167ffffffffffffffff1660c01b815260080150508067ffffffffffffffff1660808167ffffffffffffffff1660c01b815260080150505b50600160006000508190909055505b81600e60006101000a81548173ffffffffffffffffffffffffffffffffffffffff021916908373ffffffffffffffffffffffffffffffffffffffff160217905550600a60005081908060018154018082558091505060019003906000526020600020900160005b9091909190916101000a81548173ffffffffffffffffffffffffffffffffffffffff021916908373ffffffffffffffffffffffffffffffffffffffff160217905550604051620001a690620002fe565b604051809103906000f080158015620001c4573d600060003e3d6000fd5b5073ffffffffffffffffffffffffffffffffffffffff1660c08173ffffffffffffffffffffffffffffffffffffffff1660601b8152601401505033600d60006101000a81548173ffffffffffffffffffffffffffffffffffffffff021916908373ffffffffffffffffffffffffffffffffffffffff1602179055505b505062000370565b600062000262426200026a60201b62003ab017909060201c565b905080505b90565b60006801000000000000000082101515620002f0576040517f08c379a00000000000000000000000000000000000000000000000000000000081526004018080602001828103825260118152602001807f6d6f7265207468616e203634206269747300000000000000000000000000000081526020015060200191505060405180910390fd5b819050620002f9565b919050565b6104a9806200651883390190566200036f565b600060006040838503121562000325578182fd5b8251620003328162000352565b809250506020830151620003468162000352565b809150505b9250929050565b6001600160a01b038116811415156200036b5760006000fd5b5b50565b5b60805160c01c60a05160c01c60c05160601c616154620003c4600039806128de528061351052806135415250806137b15280613e0b5280614b755250806137d55280613e2c5280614bae52506161546000f3fe60806040523480156100115760006000fd5b50600436106102f95760003560e01c80636ff97f1d11610192578063b9f8ea6d116100e4578063d33219b411610098578063d6c2875d11610072578063d6c2875d14610869578063fcb3fa9014610887578063fd8067c3146108a3576102f9565b8063d33219b414610811578063d48bfca71461082f578063d5f394881461084b576102f9565b8063c2cc16d9116100c9578063c2cc16d9146107b7578063c4e3a63b146107d5578063d2ca2115146107f3576102f9565b8063b9f8ea6d14610791578063be9a6555146107ad576102f9565b80639383ac44116101465780639d8e0901116101205780639d8e090114610713578063acfc7bfa14610743578063ae42983314610773576102f9565b80639383ac44146106a9578063955e232e146106c55780639645383d146106f5576102f9565b80637ad31c98116101775780637ad31c981461063c57806386fa81c71461065a57806387bbac1b1461068b576102f9565b80636ff97f1d146105ee578063797250e41461060c576102f9565b806330bfb9bb1161024b5780634cd7a315116101ff5780635d5bef89116101d95780635d5bef8914610584578063640bb8df146105a05780636c6a4f36146105be576102f9565b80634cd7a3151461051a5780634f64b2be14610536578063526b871214610566576102f9565b8063371f3d4511610230578063371f3d45146104b0578063452a9320146104e05780634540137e146104fe576102f9565b806330bfb9bb1461046157806333daf5d41461047f576102f9565b806307e54f16116102ad57806314706d851161028757806314706d85146103f75780631a30c702146104155780632e74e62814610431576102f9565b806307e54f161461037b5780630a889a8b146103ab5780630f85fc5a146103c7576102f9565b806306552ff3116102de57806306552ff3146103275780630781820014610343578063079329871461035f576102f9565b8063020ac54a146102ff5780630604061814610309576102f9565b60006000fd5b6103076108c1565b005b61031161096e565b60405161031e9190616086565b60405180910390f35b610341600480360381019061033c91906156bd565b610986565b005b61035d600480360381019061035891906153fa565b610bf1565b005b610379600480360381019061037491906154ef565b610dd0565b005b61039560048036038101906103909190615696565b610f61565b6040516103a29190615feb565b60405180910390f35b6103c560048036038101906103c091906157d1565b611054565b005b6103e160048036038101906103dc91906157d1565b611597565b6040516103ee9190615f69565b60405180910390f35b6103ff611873565b60405161040c919061603d565b60405180910390f35b61042f600480360381019061042a919061581f565b611932565b005b61044b600480360381019061044691906157d1565b611c88565b6040516104589190615ac3565b60405180910390f35b610469611d8b565b6040516104769190616086565b60405180910390f35b61049960048036038101906104949190615448565b611da5565b6040516104a7929190615ad7565b60405180910390f35b6104ca60048036038101906104c59190615649565b61203c565b6040516104d79190615ac3565b60405180910390f35b6104e8612061565b6040516104f5919061590e565b60405180910390f35b610518600480360381019061051391906155b1565b612087565b005b610534600480360381019061052f91906154ef565b6122aa565b005b610550600480360381019061054b9190615799565b61250e565b60405161055d9190615afc565b60405180910390f35b61056e612554565b60405161057b919061603d565b60405180910390f35b61059e60048036038101906105999190615723565b612569565b005b6105a861266c565b6040516105b5919061590e565b60405180910390f35b6105d860048036038101906105d39190615723565b612692565b6040516105e59190615fce565b60405180910390f35b6105f66127b3565b6040516106039190615a11565b60405180910390f35b61062660048036038101906106219190615723565b612849565b604051610633919061603d565b60405180910390f35b610644612864565b604051610651919061603d565b60405180910390f35b610674600480360381019061066f91906154ef565b61286d565b604051610682929190616001565b60405180910390f35b6106936128dc565b6040516106a09190615b74565b60405180910390f35b6106c360048036038101906106be91906154ef565b612900565b005b6106df60048036038101906106da91906157d1565b612b6d565b6040516106ec9190616086565b60405180910390f35b6106fd612b8a565b60405161070a9190615b4c565b60405180910390f35b61072d60048036038101906107289190615723565b612bb0565b60405161073a9190615afc565b60405180910390f35b61075d60048036038101906107589190615746565b612c51565b60405161076a9190616086565b60405180910390f35b61077b613044565b6040516107889190615b24565b60405180910390f35b6107ab60048036038101906107a69190615520565b61306a565b005b6107b5613692565b005b6107bf613789565b6040516107cc919061590e565b60405180910390f35b6107dd6137af565b6040516107ea9190616086565b60405180910390f35b6107fb6137d3565b6040516108089190616086565b60405180910390f35b6108196137f7565b604051610826919061590e565b60405180910390f35b61084960048036038101906108449190615696565b61381d565b005b610853613927565b604051610860919061590e565b60405180910390f35b61087161394d565b60405161087e9190616086565b60405180910390f35b6108a1600480360381019061089c9190615799565b613967565b005b6108ab613a96565b6040516108b89190616086565b60405180910390f35b600260006000505414151515610942576040517f08c379a000000000000000000000000000000000000000000000000000000000815260040180806020018281038252601f8152602001807f5265656e7472616e637947756172643a207265656e7472616e742063616c6c0081526020015060200191505060405180910390fd5b6002600060005081909090555061095d613b4263ffffffff16565b5b600160006000508190909055505b565b600061097e613e0763ffffffff16565b905080505b90565b6109e5600d60009054906101000a900473ffffffffffffffffffffffffffffffffffffffff1673ffffffffffffffffffffffffffffffffffffffff163373ffffffffffffffffffffffffffffffffffffffff1614613e8063ffffffff16565b600d60006101000a81549073ffffffffffffffffffffffffffffffffffffffff021916905583600560006101000a81548173ffffffffffffffffffffffffffffffffffffffff021916908373ffffffffffffffffffffffffffffffffffffffff16021790555082600460006101000a81548173ffffffffffffffffffffffffffffffffffffffff021916908373ffffffffffffffffffffffffffffffffffffffff16021790555081600360006101000a81548173ffffffffffffffffffffffffffffffffffffffff021916908373ffffffffffffffffffffffffffffffffffffffff16021790555080600260006101000a81548173ffffffffffffffffffffffffffffffffffffffff021916908373ffffffffffffffffffffffffffffffffffffffff160217905550610b2463a9059cbb60e01b613ec663ffffffff16565b610b3a6323b872dd60e01b613ec663ffffffff16565b610b5063095ea7b360e01b613ec663ffffffff16565b610b6663449a52f860e01b613ec663ffffffff16565b610b7c6379cc679060e01b613ec663ffffffff16565b610b926342966c6860e01b613ec663ffffffff16565b610ba8633950935160e01b613ec663ffffffff16565b610bbe63a457c2d760e01b613ec663ffffffff16565b610bd4633c4a25d060e01b613ec663ffffffff16565b610bea635c19a95c60e01b613ec663ffffffff16565b5b50505050565b610c2e3073ffffffffffffffffffffffffffffffffffffffff163373ffffffffffffffffffffffffffffffffffffffff1614613e8063ffffffff16565b600073ffffffffffffffffffffffffffffffffffffffff16600160009054906101000a900473ffffffffffffffffffffffffffffffffffffffff1673ffffffffffffffffffffffffffffffffffffffff16141515610cc1576040517f08c379a0000000000000000000000000000000000000000000000000000000008152600401610cb890615e6d565b60405180910390fd5b610cd081613f3763ffffffff16565b1515610d11576040517f08c379a0000000000000000000000000000000000000000000000000000000008152600401610d0890615e2e565b60405180910390fd5b80600160006101000a81548173ffffffffffffffffffffffffffffffffffffffff021916908373ffffffffffffffffffffffffffffffffffffffff160217905550610d60613e0763ffffffff16565b600f60006101000a81548167ffffffffffffffff021916908367ffffffffffffffff1602179055508073ffffffffffffffffffffffffffffffffffffffff167f6765bf0cc4e3defc42bfa6ac394241a5f702ee760529c922874f15c4ad35edc760405160405180910390a25b5b50565b600260006000505414151515610e51576040517f08c379a000000000000000000000000000000000000000000000000000000000815260040180806020018281038252601f8152602001807f5265656e7472616e637947756172643a207265656e7472616e742063616c6c0081526020015060200191505060405180910390fd5b60026000600050819090905550610ebd600360009054906101000a900473ffffffffffffffffffffffffffffffffffffffff1673ffffffffffffffffffffffffffffffffffffffff163373ffffffffffffffffffffffffffffffffffffffff1614613e8063ffffffff16565b600460009054906101000a900473ffffffffffffffffffffffffffffffffffffffff1673ffffffffffffffffffffffffffffffffffffffff1663449a52f883836040518363ffffffff1660e01b8152600401610f1a9291906159a9565b600060405180830381600087803b158015610f355760006000fd5b505af1158015610f4a573d600060003e3d6000fd5b505050505b600160006000508190909055505b5050565b60006000600090505b600a60005080549050811015611013578273ffffffffffffffffffffffffffffffffffffffff16600a60005082815481101515610fa357fe5b906000526020600020900160005b9054906101000a900473ffffffffffffffffffffffffffffffffffffffff1673ffffffffffffffffffffffffffffffffffffffff16141561100557610ffd81613f51909063ffffffff16565b91505061104f565b5b8080600101915050610f6a565b506040517f08c379a000000000000000000000000000000000000000000000000000000000815260040161104690615eeb565b60405180910390fd5b919050565b6002600060005054141515156110d5576040517f08c379a000000000000000000000000000000000000000000000000000000000815260040180806020018281038252601f8152602001807f5265656e7472616e637947756172643a207265656e7472616e742063616c6c0081526020015060200191505060405180910390fd5b6002600060005081909090555060003390506111a4600560009054906101000a900473ffffffffffffffffffffffffffffffffffffffff1673ffffffffffffffffffffffffffffffffffffffff1663430c208183856040518363ffffffff1660e01b81526004016111479291906159d8565b60206040518083038186803b1580156111605760006000fd5b505afa158015611175573d600060003e3d6000fd5b505050506040513d601f19601f820116820180604052508101906111999190615626565b613e8063ffffffff16565b60006111b583613fdd63ffffffff16565b90506111c5613e0763ffffffff16565b67ffffffffffffffff16816080015167ffffffffffffffff1611151515611221576040517f08c379a000000000000000000000000000000000000000000000000000000000815260040161121890615d71565b60405180910390fd5b61127061123c82600001518360a001516142a663ffffffff16565b600960005060008460c0015161ffff1661ffff168152602001908152602001600020600050546142d590919063ffffffff16565b600960005060008360c0015161ffff1661ffff168152602001908152602001600020600050819090905550600b60005060008467ffffffffffffffff1667ffffffffffffffff16815260200190815260200160002060006000820160006101000a8154906fffffffffffffffffffffffffffffffff02191690556000820160106101000a8154906fffffffffffffffffffffffffffffffff02191690556001820160006101000a81549076ffffffffffffffffffffffffffffffffffffffffffffff02191690556001820160176101000a81549061ffff02191690556001820160196101000a81549061ffff021916905560018201601b6101000a81549061ffff021916905560018201601d6101000a81549060ff021916905550506000600560009054906101000a900473ffffffffffffffffffffffffffffffffffffffff1673ffffffffffffffffffffffffffffffffffffffff16636352211e856040518263ffffffff1660e01b81526004016113e9919061606a565b60206040518083038186803b1580156114025760006000fd5b505afa158015611417573d600060003e3d6000fd5b505050506040513d601f19601f8201168201806040525081019061143b9190615421565b9050600560009054906101000a900473ffffffffffffffffffffffffffffffffffffffff1673ffffffffffffffffffffffffffffffffffffffff16639dbead42856040518263ffffffff1660e01b81526004016114989190616086565b600060405180830381600087803b1580156114b35760006000fd5b505af11580156114c8573d600060003e3d6000fd5b505050508273ffffffffffffffffffffffffffffffffffffffff168260c0015161ffff167fbf347141bee0ba9c777fbef9a14008be9f56f2b2f90f0e63cfed8a96a3b506c7846000015160405161151f919061603d565b60405180910390a3611582600a6000508360c0015161ffff1681548110151561154457fe5b906000526020600020900160005b9054906101000a900473ffffffffffffffffffffffffffffffffffffffff1682846000015161435e63ffffffff16565b5050505b600160006000508190909055505b50565b61159f615297565b6000600b60005060008467ffffffffffffffff1667ffffffffffffffff1681526020019081526020016000206000506040518060e00160405290816000820160009054906101000a90046fffffffffffffffffffffffffffffffff166fffffffffffffffffffffffffffffffff166fffffffffffffffffffffffffffffffff1681526020016000820160109054906101000a90046fffffffffffffffffffffffffffffffff166fffffffffffffffffffffffffffffffff166fffffffffffffffffffffffffffffffff1681526020016001820160009054906101000a900476ffffffffffffffffffffffffffffffffffffffffffffff1676ffffffffffffffffffffffffffffffffffffffffffffff1676ffffffffffffffffffffffffffffffffffffffffffffff1681526020016001820160179054906101000a900461ffff1661ffff1661ffff1681526020016001820160199054906101000a900461ffff1661ffff1661ffff16815260200160018201601b9054906101000a900461ffff1661ffff1661ffff16815260200160018201601d9054906101000a900460ff1660ff1660ff16815260200150509050600081600001516fffffffffffffffffffffffffffffffff161115156117a9576040517f08c379a00000000000000000000000000000000000000000000000000000000081526004016117a090615db0565b60405180910390fd5b6040518060e0016040528082600001516fffffffffffffffffffffffffffffffff16815260200182602001516fffffffffffffffffffffffffffffffff168152602001826040015176ffffffffffffffffffffffffffffffffffffffffffffff168152602001826060015161ffff1667ffffffffffffffff168152602001826080015161ffff1667ffffffffffffffff1681526020018260c0015160ff1667ffffffffffffffff1681526020018260a0015161ffff1681526020015091505061186e56505b919050565b60006000600e60149054906101000a900467ffffffffffffffff1667ffffffffffffffff1614156118a7576000905061192f565b600073ffffffffffffffffffffffffffffffffffffffff16600160009054906101000a900473ffffffffffffffffffffffffffffffffffffffff1673ffffffffffffffffffffffffffffffffffffffff1614151561191d5769021e19e0c9bab240000069152d02c7e14af680000003905061192f565b69152d02c7e14af6800000905061192f565b90565b6002600060005054141515156119b3576040517f08c379a000000000000000000000000000000000000000000000000000000000815260040180806020018281038252601f8152602001807f5265656e7472616e637947756172643a207265656e7472616e742063616c6c0081526020015060200191505060405180910390fd5b600260006000508190909055506119cf8161456a63ffffffff16565b6000339050611a91600560009054906101000a900473ffffffffffffffffffffffffffffffffffffffff1673ffffffffffffffffffffffffffffffffffffffff1663430c208183866040518363ffffffff1660e01b8152600401611a349291906159d8565b60206040518083038186803b158015611a4d5760006000fd5b505afa158015611a62573d600060003e3d6000fd5b505050506040513d601f19601f82011682018060405250810190611a869190615626565b613e8063ffffffff16565b6000611aa284613fdd63ffffffff16565b90508060a0015167ffffffffffffffff168360ff1667ffffffffffffffff16111515611b03576040517f08c379a0000000000000000000000000000000000000000000000000000000008152600401611afa90615c75565b60405180910390fd5b611b7a611b1d82600001518560ff166142a663ffffffff16565b611b6c611b3884600001518560a001516142a663ffffffff16565b600960005060008660c0015161ffff1661ffff168152602001908152602001600020600050546142d590919063ffffffff16565b61460a90919063ffffffff16565b600960005060008360c0015161ffff1661ffff168152602001908152602001600020600050819090905550611be0611bba8460ff1661469363ffffffff16565b611bc8613e0763ffffffff16565b67ffffffffffffffff166146d690919063ffffffff16565b816080019067ffffffffffffffff16908167ffffffffffffffff16815260200150508260ff168160a0019067ffffffffffffffff16908167ffffffffffffffff1681526020015050611c38848261477363ffffffff16565b8260ff168467ffffffffffffffff167fb39e6330051c3e584367d7d1f1ff3fb0cdd824478fd7d7f257005c83c010b8a160405160405180910390a350505b600160006000508190909055505b5050565b6000600a60005080549050600b60005060008467ffffffffffffffff1667ffffffffffffffff168152602001908152602001600020600050600101601b9054906101000a900461ffff1661ffff16101515611d18576040517f08c379a0000000000000000000000000000000000000000000000000000000008152600401611d0f90615bb8565b60405180910390fd5b611d26613e0763ffffffff16565b67ffffffffffffffff16600b60005060008467ffffffffffffffff1667ffffffffffffffff16815260200190815260200160002060005060010160199054906101000a900461ffff1661ffff1667ffffffffffffffff1611159050611d86565b919050565b600e60149054906101000a900467ffffffffffffffff1681565b60006060600260006000505414151515611e2a576040517f08c379a000000000000000000000000000000000000000000000000000000000815260040180806020018281038252601f8152602001807f5265656e7472616e637947756172643a207265656e7472616e742063616c6c0081526020015060200191505060405180910390fd5b60026000600050819090905550611e96600260009054906101000a900473ffffffffffffffffffffffffffffffffffffffff1673ffffffffffffffffffffffffffffffffffffffff163373ffffffffffffffffffffffffffffffffffffffff1614613e8063ffffffff16565b6000611ea785614a1963ffffffff16565b9050600c6000506000827bffffffffffffffffffffffffffffffffffffffffffffffffffffffff19167bffffffffffffffffffffffffffffffffffffffffffffffffffffffff1916815260200190815260200160002060009054906101000a900460ff16151515611f4d576040517f08c379a0000000000000000000000000000000000000000000000000000000008152600401611f4490615d32565b60405180910390fd5b8573ffffffffffffffffffffffffffffffffffffffff168185604051602001611f779291906158a4565b604051602081830303815290604052604051611f9391906158ef565b6000604051808303816000865af19150503d8060008114611fd0576040519150601f19603f3d011682016040523d82523d6000602084013e611fd5565b606091505b5080935081945050508282901515612023576040517f08c379a000000000000000000000000000000000000000000000000000000000815260040161201a9190615b9c565b60405180910390fd5b50505b600160006000508190909055505b935093915050565b600c60005060205280600052604060002060009150909054906101000a900460ff1681565b600e60009054906101000a900473ffffffffffffffffffffffffffffffffffffffff1681565b600260006000505414151515612108576040517f08c379a000000000000000000000000000000000000000000000000000000000815260040180806020018281038252601f8152602001807f5265656e7472616e637947756172643a207265656e7472616e742063616c6c0081526020015060200191505060405180910390fd5b60026000600050819090905550600061211f615297565b6000600090505b8484905081101561229457848482818110151561213f57fe5b905060200201602081019061215491906157d1565b92508250612215600560009054906101000a900473ffffffffffffffffffffffffffffffffffffffff1673ffffffffffffffffffffffffffffffffffffffff1663430c208133866040518363ffffffff1660e01b81526004016121b8929190615936565b60206040518083038186803b1580156121d15760006000fd5b505afa1580156121e6573d600060003e3d6000fd5b505050506040513d601f19601f8201168201806040525081019061220a9190615626565b613e8063ffffffff16565b61222483613fdd63ffffffff16565b91508150612238838361477363ffffffff16565b3373ffffffffffffffffffffffffffffffffffffffff168367ffffffffffffffff167f39c278b054e152450e4295bdf59d7edbaba35cb21d4248658680e61dac39eebb60405160405180910390a35b8080600101915050612126565b5050505b600160006000508190909055505b5050565b6122e73073ffffffffffffffffffffffffffffffffffffffff163373ffffffffffffffffffffffffffffffffffffffff1614613e8063ffffffff16565b6032600460009054906101000a900473ffffffffffffffffffffffffffffffffffffffff1673ffffffffffffffffffffffffffffffffffffffff166318160ddd6040518163ffffffff1660e01b815260040160206040518083038186803b1580156123525760006000fd5b505afa158015612367573d600060003e3d6000fd5b505050506040513d601f19601f8201168201806040525081019061238b91906157b5565b81151561239457fe5b0481111515156123d9576040517f08c379a00000000000000000000000000000000000000000000000000000000081526004016123d090615f2a565b60405180910390fd5b6123e882613f3763ffffffff16565b1515612429576040517f08c379a000000000000000000000000000000000000000000000000000000000815260040161242090615e2e565b60405180910390fd5b600460009054906101000a900473ffffffffffffffffffffffffffffffffffffffff1673ffffffffffffffffffffffffffffffffffffffff1663449a52f883836040518363ffffffff1660e01b81526004016124869291906159a9565b600060405180830381600087803b1580156124a15760006000fd5b505af11580156124b6573d600060003e3d6000fd5b505050508173ffffffffffffffffffffffffffffffffffffffff167f15c222d39f56077620782fcc367cdd020fddac1f6129c77ec7ca1c5025659dda82604051612500919061603d565b60405180910390a25b5b5050565b600a600050818154811061252157600080fd5b906000526020600020900160005b9150909054906101000a900473ffffffffffffffffffffffffffffffffffffffff1681565b6000600a600050805490509050612566565b90565b600a600050805490508161ffff161015156125b9576040517f08c379a00000000000000000000000000000000000000000000000000000000081526004016125b090615c36565b60405180910390fd5b600a6000508161ffff168154811015156125cf57fe5b906000526020600020900160005b9054906101000a900473ffffffffffffffffffffffffffffffffffffffff1673ffffffffffffffffffffffffffffffffffffffff16635c19a95c306040518263ffffffff1660e01b8152600401612634919061590e565b600060405180830381600087803b15801561264f5760006000fd5b505af1158015612664573d600060003e3d6000fd5b505050505b50565b600360009054906101000a900473ffffffffffffffffffffffffffffffffffffffff1681565b61269a6152f9565b6000600860005060008461ffff1661ffff1681526020019081526020016000206000506040518060400160405290816000820160009054906101000a90046fffffffffffffffffffffffffffffffff166fffffffffffffffffffffffffffffffff166fffffffffffffffffffffffffffffffff1681526020016000820160109054906101000a90046fffffffffffffffffffffffffffffffff166fffffffffffffffffffffffffffffffff166fffffffffffffffffffffffffffffffff16815260200150509050604051806040016040528082600001516fffffffffffffffffffffffffffffffff16815260200182602001516fffffffffffffffffffffffffffffffff168152602001509150506127ae56505b919050565b6060600a60005080548060200260200160405190810160405280929190818152602001828054801561283a57602002820191906000526020600020905b8160009054906101000a900473ffffffffffffffffffffffffffffffffffffffff1673ffffffffffffffffffffffffffffffffffffffff16815260200190600101908083116127f0575b50505050509050612846565b90565b60096000506020528060005260406000206000915090505481565b60106000505481565b6006600050602052816000526040600020600050602052806000526040600020600091509150508060000160009054906101000a90047effffffffffffffffffffffffffffffffffffffffffffffffffffffffffffff169080600001601f9054906101000a900460ff16905082565b7f000000000000000000000000000000000000000000000000000000000000000081565b600260006000505414151515612981576040517f08c379a000000000000000000000000000000000000000000000000000000000815260040180806020018281038252601f8152602001807f5265656e7472616e637947756172643a207265656e7472616e742063616c6c0081526020015060200191505060405180910390fd5b600260006000508190909055506129ed600160009054906101000a900473ffffffffffffffffffffffffffffffffffffffff1673ffffffffffffffffffffffffffffffffffffffff163373ffffffffffffffffffffffffffffffffffffffff1614613e8063ffffffff16565b6000612a078260106000505461460a90919063ffffffff16565b90506000612a7469021e19e0c9bab2400000612a5c600f60009054906101000a900467ffffffffffffffff166001612a43613e0763ffffffff16565b0167ffffffffffffffff16614a2f90919063ffffffff16565b67ffffffffffffffff16614acc90919063ffffffff16565b9050808211151515612abb576040517f08c379a0000000000000000000000000000000000000000000000000000000008152600401612ab290615def565b60405180910390fd5b816010600050819090905550600460009054906101000a900473ffffffffffffffffffffffffffffffffffffffff1673ffffffffffffffffffffffffffffffffffffffff1663449a52f885856040518363ffffffff1660e01b8152600401612b249291906159a9565b600060405180830381600087803b158015612b3f5760006000fd5b505af1158015612b54573d600060003e3d6000fd5b5050505050505b600160006000508190909055505b5050565b6000612b7e82614b6a63ffffffff16565b9050612b85565b919050565b600460009054906101000a900473ffffffffffffffffffffffffffffffffffffffff1681565b6000600a600050805490508261ffff16101515612c02576040517f08c379a0000000000000000000000000000000000000000000000000000000008152600401612bf990615eac565b60405180910390fd5b600a6000508261ffff16815481101515612c1857fe5b906000526020600020900160005b9054906101000a900473ffffffffffffffffffffffffffffffffffffffff169050612c4c565b919050565b6000600260006000505414151515612cd4576040517f08c379a000000000000000000000000000000000000000000000000000000000815260040180806020018281038252601f8152602001807f5265656e7472616e637947756172643a207265656e7472616e742063616c6c0081526020015060200191505060405180910390fd5b60026000600050819090905550600a600050805490508561ffff16101515612d31576040517f08c379a0000000000000000000000000000000000000000000000000000000008152600401612d2890615c36565b60405180910390fd5b600084111515612d76576040517f08c379a0000000000000000000000000000000000000000000000000000000008152600401612d6d90615cf3565b60405180910390fd5b612d858361456a63ffffffff16565b612d93613b4263ffffffff16565b6000612da48661269263ffffffff16565b9050612dec612dbc868660ff166142a663ffffffff16565b600960005060008961ffff1661ffff1681526020019081526020016000206000505461460a90919063ffffffff16565b600960005060008861ffff1661ffff168152602001908152602001600020600050819090905550600560009054906101000a900473ffffffffffffffffffffffffffffffffffffffff1673ffffffffffffffffffffffffffffffffffffffff1663755edd17846040518263ffffffff1660e01b8152600401612e6e919061590e565b602060405180830381600087803b158015612e895760006000fd5b505af1158015612e9e573d600060003e3d6000fd5b505050506040513d601f19601f82011682018060405250810190612ec291906157f8565b915081506000612ed6613e0763ffffffff16565b9050612f77836040518060e0016040528089815260200185602001518152602001856000015181526020018467ffffffffffffffff168152602001612f3f612f268a60ff1661469363ffffffff16565b8667ffffffffffffffff166146d690919063ffffffff16565b67ffffffffffffffff1681526020018860ff1667ffffffffffffffff1681526020018a61ffff1681526020015061477363ffffffff16565b612fcb600a6000508861ffff16815481101515612f9057fe5b906000526020600020900160005b9054906101000a900473ffffffffffffffffffffffffffffffffffffffff16333089614bef63ffffffff16565b8460ff168473ffffffffffffffffffffffffffffffffffffffff168861ffff167ffd5af8482cd27088275e2c1370259ff534cf1c987cf2105e24da196377e5c98d8960405161301a919061603d565b60405180910390a4829250505061302e5650505b600160006000508190909055505b949350505050565b600560009054906101000a900473ffffffffffffffffffffffffffffffffffffffff1681565b6130c9600360009054906101000a900473ffffffffffffffffffffffffffffffffffffffff1673ffffffffffffffffffffffffffffffffffffffff163373ffffffffffffffffffffffffffffffffffffffff1614613e8063ffffffff16565b60008473ffffffffffffffffffffffffffffffffffffffff16637e90f9ab6040518163ffffffff1660e01b815260040160206040518083038186803b1580156131125760006000fd5b505afa158015613127573d600060003e3d6000fd5b505050506040513d601f19601f8201168201806040525081019061314b9190615421565b9050600660005060008673ffffffffffffffffffffffffffffffffffffffff1673ffffffffffffffffffffffffffffffffffffffff1681526020019081526020016000206000506000858152602001908152602001600020600050600001601f9054906101000a900460ff16151561353f5760008173ffffffffffffffffffffffffffffffffffffffff166370a08231306040518263ffffffff1660e01b81526004016131f8919061590e565b60206040518083038186803b1580156132115760006000fd5b505afa158015613226573d600060003e3d6000fd5b505050506040513d601f19601f8201168201806040525081019061324a91906157b5565b90506000600167ffffffffffffffff811180156132675760006000fd5b506040519080825280602002602001820160405280156132965781602001602082028036833780820191505090505b509050858160008151811015156132a957fe5b60200260200101909081815260200150508673ffffffffffffffffffffffffffffffffffffffff1663062f1466826040518263ffffffff1660e01b81526004016132f39190615a75565b600060405180830381600087803b15801561330e5760006000fd5b505af1158015613323573d600060003e3d6000fd5b5050505060006133c6838573ffffffffffffffffffffffffffffffffffffffff166370a08231306040518263ffffffff1660e01b8152600401613366919061590e565b60206040518083038186803b15801561337f5760006000fd5b505afa158015613394573d600060003e3d6000fd5b505050506040513d601f19601f820116820180604052508101906133b891906157b5565b6142d590919063ffffffff16565b905060405180604001604052806133e483614e1a909063ffffffff16565b7affffffffffffffffffffffffffffffffffffffffffffffffffffff167effffffffffffffffffffffffffffffffffffffffffffffffffffffffffffff16815260200160011515815260200150600660005060008a73ffffffffffffffffffffffffffffffffffffffff1673ffffffffffffffffffffffffffffffffffffffff168152602001908152602001600020600050600089815260200190815260200160002060005060008201518160000160006101000a8154817effffffffffffffffffffffffffffffffffffffffffffffffffffffffffffff02191690837effffffffffffffffffffffffffffffffffffffffffffffffffffffffffffff160217905550602082015181600001601f6101000a81548160ff02191690831515021790555090505061353b847f00000000000000000000000000000000000000000000000000000000000000008361435e63ffffffff16565b5050505b7f000000000000000000000000000000000000000000000000000000000000000073ffffffffffffffffffffffffffffffffffffffff1663d1660f99828561363886600660005060008c73ffffffffffffffffffffffffffffffffffffffff1673ffffffffffffffffffffffffffffffffffffffff16815260200190815260200160002060005060008b815260200190815260200160002060005060000160009054906101000a90047effffffffffffffffffffffffffffffffffffffffffffffffffffffffffffff167effffffffffffffffffffffffffffffffffffffffffffffffffffffffffffff16614ebf90919063ffffffff16565b6040518463ffffffff1660e01b81526004016136569392919061596f565b600060405180830381600087803b1580156136715760006000fd5b505af1158015613686573d600060003e3d6000fd5b50505050505b50505050565b6136f1600e60009054906101000a900473ffffffffffffffffffffffffffffffffffffffff1673ffffffffffffffffffffffffffffffffffffffff163373ffffffffffffffffffffffffffffffffffffffff1614613e8063ffffffff16565b600e60006101000a81549073ffffffffffffffffffffffffffffffffffffffff0219169055613724613b4263ffffffff16565b613732613e0763ffffffff16565b600e60146101000a81548167ffffffffffffffff021916908367ffffffffffffffff1602179055507fe0c110dd4938fc8e228e75a489735745046395ad536dd80c35559debe653714760405160405180910390a15b565b600160009054906101000a900473ffffffffffffffffffffffffffffffffffffffff1681565b7f000000000000000000000000000000000000000000000000000000000000000081565b7f000000000000000000000000000000000000000000000000000000000000000081565b600260009054906101000a900473ffffffffffffffffffffffffffffffffffffffff1681565b61385a3073ffffffffffffffffffffffffffffffffffffffff163373ffffffffffffffffffffffffffffffffffffffff1614613e8063ffffffff16565b61ffff61ffff16600a600050805490501015156138775760006000fd5b600a60005081908060018154018082558091505060019003906000526020600020900160005b9091909190916101000a81548173ffffffffffffffffffffffffffffffffffffffff021916908373ffffffffffffffffffffffffffffffffffffffff1602179055508073ffffffffffffffffffffffffffffffffffffffff167f784c8f4dbf0ffedd6e72c76501c545a70f8b203b30a26ce542bf92ba87c248a460405160405180910390a25b5b50565b600d60009054906101000a900473ffffffffffffffffffffffffffffffffffffffff1681565b600760009054906101000a900467ffffffffffffffff1681565b600060006000600360009054906101000a900473ffffffffffffffffffffffffffffffffffffffff1673ffffffffffffffffffffffffffffffffffffffff166383b0ce15856040518263ffffffff1660e01b81526004016139c8919061603d565b60606040518083038186803b1580156139e15760006000fd5b505afa1580156139f6573d600060003e3d6000fd5b505050506040513d601f19601f82011682018060405250810190613a1a9190615570565b9250925092508273ffffffffffffffffffffffffffffffffffffffff166315373e3d83836040518363ffffffff1660e01b8152600401613a5b92919061604f565b600060405180830381600087803b158015613a765760006000fd5b505af1158015613a8b573d600060003e3d6000fd5b505050505050505b50565b600f60009054906101000a900467ffffffffffffffff1681565b60006801000000000000000082101515613b35576040517f08c379a00000000000000000000000000000000000000000000000000000000081526004018080602001828103825260118152602001807f6d6f7265207468616e203634206269747300000000000000000000000000000081526020015060200191505060405180910390fd5b819050613b3d565b919050565b6000613b52613e0763ffffffff16565b9050600760009054906101000a900467ffffffffffffffff1667ffffffffffffffff168167ffffffffffffffff16111515613b8d5750613e05565b6000600760009054906101000a900467ffffffffffffffff16820390506000600a600050805490509050600081613be48467ffffffffffffffff16613bd661187363ffffffff16565b614acc90919063ffffffff16565b811515613bed57fe5b049050613bf86152f9565b6000600090505b838161ffff161015613d9357613c1a8161269263ffffffff16565b915081506040518060400160405280613c8d613c80613c6d8967ffffffffffffffff16600960005060008861ffff1661ffff16815260200190815260200160002060005054614acc90919063ffffffff16565b866000015161460a90919063ffffffff16565b614ee5909063ffffffff16565b6fffffffffffffffffffffffffffffffff168152602001613ccb613cbe86866020015161460a90919063ffffffff16565b614ee5909063ffffffff16565b6fffffffffffffffffffffffffffffffff16815260200150600860005060008361ffff1661ffff16815260200190815260200160002060005060008201518160000160006101000a8154816fffffffffffffffffffffffffffffffff02191690836fffffffffffffffffffffffffffffffff16021790555060208201518160000160106101000a8154816fffffffffffffffffffffffffffffffff02191690836fffffffffffffffffffffffffffffffff1602179055509050505b8080600101915050613bff565b5084600760006101000a81548167ffffffffffffffff021916908367ffffffffffffffff1602179055508467ffffffffffffffff167f5df8d820031efa286b254435a169e0eda922fa20c466be6471c6deaa51dc116585604051613df79190616086565b60405180910390a250505050505b565b60007f00000000000000000000000000000000000000000000000000000000000000007f000000000000000000000000000000000000000000000000000000000000000067ffffffffffffffff16613e63614f7f63ffffffff16565b67ffffffffffffffff16811515613e7657fe5b0403905080505b90565b801515613ec2576040517f08c379a0000000000000000000000000000000000000000000000000000000008152600401613eb990615cb4565b60405180910390fd5b5b50565b6001600c6000506000837bffffffffffffffffffffffffffffffffffffffffffffffffffffffff19167bffffffffffffffffffffffffffffffffffffffffffffffffffffffff1916815260200190815260200160002060006101000a81548160ff0219169083151502179055505b50565b60006000823b905060008111915050613f4c56505b919050565b60006201000082101515613fd0576040517f08c379a00000000000000000000000000000000000000000000000000000000081526004018080602001828103825260118152602001807f6d6f7265207468616e203136206269747300000000000000000000000000000081526020015060200191505060405180910390fd5b819050613fd8565b919050565b613fe5615297565b613ff48261159763ffffffff16565b90508050614006613b4263ffffffff16565b600760009054906101000a900467ffffffffffffffff1667ffffffffffffffff16816060015167ffffffffffffffff16101515614045578090506142a1565b600061405a8260c0015161269263ffffffff16565b905060008260600151600760009054906101000a900467ffffffffffffffff160367ffffffffffffffff166140a0846040015184600001516142d590919063ffffffff16565b8115156140a957fe5b04905060006140f46140cc856020015185602001516142d590919063ffffffff16565b836140e587600001518860a001516142a663ffffffff16565b614f9a9092919063ffffffff16565b9050600081111561423d57600460009054906101000a900473ffffffffffffffffffffffffffffffffffffffff1673ffffffffffffffffffffffffffffffffffffffff1663449a52f8600560009054906101000a900473ffffffffffffffffffffffffffffffffffffffff1673ffffffffffffffffffffffffffffffffffffffff16636352211e886040518263ffffffff1660e01b8152600401614198919061606a565b60206040518083038186803b1580156141b15760006000fd5b505afa1580156141c6573d600060003e3d6000fd5b505050506040513d601f19601f820116820180604052508101906141ea9190615421565b836040518363ffffffff1660e01b81526004016142089291906159a9565b600060405180830381600087803b1580156142235760006000fd5b505af1158015614238573d600060003e3d6000fd5b505050505b8260200151846020019090818152602001505082600001518460400190908181526020015050614271613e0763ffffffff16565b846060019067ffffffffffffffff16908167ffffffffffffffff16815260200150508393505050506142a1565050505b919050565b60006142c88267ffffffffffffffff16600c85614f9a9092919063ffffffff16565b90506142cf565b92915050565b60008282840391508111151515614357576040517f08c379a000000000000000000000000000000000000000000000000000000000815260040180806020018281038252600d8152602001807f7375622d756e646572666c6f770000000000000000000000000000000000000081526020015060200191505060405180910390fd5b5b92915050565b600060008473ffffffffffffffffffffffffffffffffffffffff1663a9059cbb60e01b8585604051602401808373ffffffffffffffffffffffffffffffffffffffff16815260200182815260200192505050604051602081830303815290604052907bffffffffffffffffffffffffffffffffffffffffffffffffffffffff19166020820180517bffffffffffffffffffffffffffffffffffffffffffffffffffffffff83818316178352505050506040518082805190602001908083835b60208310151561444357805182525b60208201915060208101905060208303925061441d565b6001836020036101000a0380198251168184511680821785525050505050509050019150506000604051808303816000865af19150503d80600081146144a5576040519150601f19603f3d011682016040523d82523d6000602084013e6144aa565b606091505b50915091508180156144eb57506000815114806144ea57508080602001905160208110156144d85760006000fd5b81019080805190602001909291905050505b5b1515614562576040517f08c379a00000000000000000000000000000000000000000000000000000000081526004018080602001828103825260028152602001807f535400000000000000000000000000000000000000000000000000000000000081526020015060200191505060405180910390fd5b50505b505050565b8060ff16600667ffffffffffffffff16111580156145965750603067ffffffffffffffff168160ff1611155b80156145c557506000600367ffffffffffffffff168260ff168115156145b857fe5b0667ffffffffffffffff16145b1515614606576040517f08c379a00000000000000000000000000000000000000000000000000000000081526004016145fd90615bf7565b60405180910390fd5b5b50565b6000828284019150811015151561468c576040517f08c379a000000000000000000000000000000000000000000000000000000000815260040180806020018281038252600c8152602001807f6164642d6f766572666c6f77000000000000000000000000000000000000000081526020015060200191505060405180910390fd5b5b92915050565b6000600c6146b661016d8467ffffffffffffffff1661509b90919063ffffffff16565b67ffffffffffffffff168115156146c957fe5b0490506146d1565b919050565b60008267ffffffffffffffff1682840191508167ffffffffffffffff161015151561476c576040517f08c379a000000000000000000000000000000000000000000000000000000000815260040180806020018281038252600c8152602001807f6164642d6f766572666c6f77000000000000000000000000000000000000000081526020015060200191505060405180910390fd5b5b92915050565b6040518060e001604052806147938360000151614ee5909063ffffffff16565b6fffffffffffffffffffffffffffffffff1681526020016147bf8360200151614ee5909063ffffffff16565b6fffffffffffffffffffffffffffffffff1681526020016147eb836040015161516b909063ffffffff16565b76ffffffffffffffffffffffffffffffffffffffffffffff168152602001614828836060015167ffffffffffffffff16613f51909063ffffffff16565b61ffff168152602001614850836080015167ffffffffffffffff16613f51909063ffffffff16565b61ffff1681526020018260c0015161ffff1681526020016148868360a0015167ffffffffffffffff1661520c909063ffffffff16565b60ff16815260200150600b60005060008467ffffffffffffffff1667ffffffffffffffff16815260200190815260200160002060005060008201518160000160006101000a8154816fffffffffffffffffffffffffffffffff02191690836fffffffffffffffffffffffffffffffff16021790555060208201518160000160106101000a8154816fffffffffffffffffffffffffffffffff02191690836fffffffffffffffffffffffffffffffff16021790555060408201518160010160006101000a81548176ffffffffffffffffffffffffffffffffffffffffffffff021916908376ffffffffffffffffffffffffffffffffffffffffffffff16021790555060608201518160010160176101000a81548161ffff021916908361ffff16021790555060808201518160010160196101000a81548161ffff021916908361ffff16021790555060a082015181600101601b6101000a81548161ffff021916908361ffff16021790555060c082015181600101601d6101000a81548160ff021916908360ff1602179055509050505b5050565b600081805190602001209050614a2a565b919050565b60008267ffffffffffffffff1682840391508167ffffffffffffffff1611151515614ac5576040517f08c379a000000000000000000000000000000000000000000000000000000000815260040180806020018281038252600d8152602001807f7375622d756e646572666c6f770000000000000000000000000000000000000081526020015060200191505060405180910390fd5b5b92915050565b60006000821480614aec57508282838502925082811515614ae957fe5b04145b1515614b63576040517f08c379a000000000000000000000000000000000000000000000000000000000815260040180806020018281038252600c8152602001807f6d756c2d6f766572666c6f77000000000000000000000000000000000000000081526020015060200191505060405180910390fd5b5b92915050565b6000614be5614bac837f000000000000000000000000000000000000000000000000000000000000000067ffffffffffffffff166146d690919063ffffffff16565b7f000000000000000000000000000000000000000000000000000000000000000067ffffffffffffffff1661509b90919063ffffffff16565b905080505b919050565b600060008573ffffffffffffffffffffffffffffffffffffffff166323b872dd60e01b868686604051602401808473ffffffffffffffffffffffffffffffffffffffff1681526020018373ffffffffffffffffffffffffffffffffffffffff1681526020018281526020019350505050604051602081830303815290604052907bffffffffffffffffffffffffffffffffffffffffffffffffffffffff19166020820180517bffffffffffffffffffffffffffffffffffffffffffffffffffffffff83818316178352505050506040518082805190602001908083835b602083101515614cf257805182525b602082019150602081019050602083039250614ccc565b6001836020036101000a0380198251168184511680821785525050505050509050019150506000604051808303816000865af19150503d8060008114614d54576040519150601f19603f3d011682016040523d82523d6000602084013e614d59565b606091505b5091509150818015614d9a5750600081511480614d995750808060200190516020811015614d875760006000fd5b81019080805190602001909291905050505b5b1515614e11576040517f08c379a00000000000000000000000000000000000000000000000000000000081526004018080602001828103825260038152602001807f535446000000000000000000000000000000000000000000000000000000000081526020015060200191505060405180910390fd5b50505b50505050565b60007b0100000000000000000000000000000000000000000000000000000082101515614eb2576040517f08c379a00000000000000000000000000000000000000000000000000000000081526004018080602001828103825260128152602001807f6d6f7265207468616e203231362062697473000000000000000000000000000081526020015060200191505060405180910390fd5b819050614eba565b919050565b6000614eda8383670de0b6b3a7640000614f9a63ffffffff16565b905080505b92915050565b600070010000000000000000000000000000000082101515614f72576040517f08c379a00000000000000000000000000000000000000000000000000000000081526004018080602001828103825260128152602001807f6d6f7265207468616e203132382062697473000000000000000000000000000081526020015060200191505060405180910390fd5b819050614f7a565b919050565b6000614f9242613ab0909063ffffffff16565b905080505b90565b6000600060006000198587098587029250828110838203039150506000811415614fdd57600084111515614fce5760006000fd5b83820492508292505050615094565b8084111515614fec5760006000fd5b60008486880990508281118203915080830392506000858660000316905080860495508084049350600181826000030401905080830284179350835060006002876003021890508087026002038102905080508087026002038102905080508087026002038102905080508087026002038102905080508087026002038102905080508087026002038102905080508085029550855085955050505050506150945650505050505b9392505050565b600060008267ffffffffffffffff1614806150ed57508267ffffffffffffffff168267ffffffffffffffff1683850292508267ffffffffffffffff168115156150e057fe5b0467ffffffffffffffff16145b1515615164576040517f08c379a000000000000000000000000000000000000000000000000000000000815260040180806020018281038252600c8152602001807f6d756c2d6f766572666c6f77000000000000000000000000000000000000000081526020015060200191505060405180910390fd5b5b92915050565b600077010000000000000000000000000000000000000000000000821015156151ff576040517f08c379a00000000000000000000000000000000000000000000000000000000081526004018080602001828103825260128152602001807f6d6f7265207468616e203138342062697473000000000000000000000000000081526020015060200191505060405180910390fd5b819050615207565b919050565b60006101008210151561528a576040517f08c379a00000000000000000000000000000000000000000000000000000000081526004018080602001828103825260108152602001807f6d6f7265207468616e203820626974730000000000000000000000000000000081526020015060200191505060405180910390fd5b819050615292565b919050565b6040518060e00160405280600081526020016000815260200160008152602001600067ffffffffffffffff168152602001600067ffffffffffffffff168152602001600067ffffffffffffffff168152602001600061ffff1681526020015090565b6040518060400160405280600081526020016000815260200150905661611d565b600067ffffffffffffffff8084111561532f57fe5b60405160207fffffffffffffffffffffffffffffffffffffffffffffffffffffffffffffffe0601f870116820101818110838211171561536b57fe5b80604052508092508481528585850111156153865760006000fd5b8484602083013760006020868301015250505b9392505050565b600081519050801515811415156153b75760006000fd5b5b919050565b60008135905061ffff8116811415156153d65760006000fd5b5b919050565b60008135905060ff8116811415156153f45760006000fd5b5b919050565b60006020828403121561540b578081fd5b8135615416816160d7565b809150505b92915050565b600060208284031215615432578081fd5b815161543d816160d7565b809150505b92915050565b6000600060006060848603121561545d578182fd5b8335615468816160d7565b80935050602084013567ffffffffffffffff80821115615486578384fd5b818601915086601f830112151561549b578384fd5b6154aa8783356020850161531a565b935060408601359150808211156154bf578283fd5b50808501905085601f82011215156154d5578182fd5b6154e48682356020840161531a565b9150505b9250925092565b6000600060408385031215615502578182fd5b823561550d816160d7565b80925050602083013590505b9250929050565b600060006000600060808587031215615537578081fd5b8435615542816160d7565b8094505060208501359250604085013561555b816160d7565b80925050606085013590505b92959194509250565b60006000600060608486031215615585578283fd5b8351615590816160d7565b80935050602084015191506155a7604085016153a0565b90505b9250925092565b60006000602083850312156155c4578182fd5b823567ffffffffffffffff808211156155db578384fd5b818501915085601f83011215156155f0578384fd5b8135818111156155fe578485fd5b866020602083028501011115615612578485fd5b6020830194508093505050505b9250929050565b600060208284031215615637578081fd5b615640826153a0565b90505b92915050565b60006020828403121561565a578081fd5b81357fffffffff0000000000000000000000000000000000000000000000000000000081168114151561568b578182fd5b809150505b92915050565b6000602082840312156156a7578081fd5b81356156b2816160d7565b809150505b92915050565b6000600060006000608085870312156156d4578182fd5b84356156df816160d7565b8094505060208501356156f1816160d7565b809350506040850135615703816160d7565b809250506060850135615715816160d7565b809150505b92959194509250565b600060208284031215615734578081fd5b61573d826153bd565b90505b92915050565b60006000600060006080858703121561575d578182fd5b615766856153bd565b93506020850135925061577b604086016153dc565b9150606085013561578b816160d7565b809150505b92959194509250565b6000602082840312156157aa578081fd5b813590505b92915050565b6000602082840312156157c6578081fd5b815190505b92915050565b6000602082840312156157e2578081fd5b81356157ed81616100565b809150505b92915050565b600060208284031215615809578081fd5b815161581481616100565b809150505b92915050565b6000600060408385031215615832578182fd5b823561583d81616100565b8092505061584d602084016153dc565b90505b9250929050565b6000815180845261586f8160208601602086016160a2565b60207fffffffffffffffffffffffffffffffffffffffffffffffffffffffffffffffe0601f8301168501019150505b92915050565b60007fffffffff000000000000000000000000000000000000000000000000000000008416825282516158de8160048501602087016160a2565b6004818401019150505b9392505050565b600082516159018184602087016160a2565b8083019150505b92915050565b600060208201905073ffffffffffffffffffffffffffffffffffffffff831682525b92915050565b600060408201905073ffffffffffffffffffffffffffffffffffffffff8416825267ffffffffffffffff831660208301525b9392505050565b600060608201905073ffffffffffffffffffffffffffffffffffffffff80861683528085166020840152508260408301525b949350505050565b600060408201905073ffffffffffffffffffffffffffffffffffffffff841682528260208301525b9392505050565b600060408201905073ffffffffffffffffffffffffffffffffffffffff8416825267ffffffffffffffff831660208301525b9392505050565b600060208083018184528085518083526040860191508387019250845b81811015615a665773ffffffffffffffffffffffffffffffffffffffff8451168352848301925084840193505b600181019050615a2e565b50508093505050505b92915050565b600060208083018184528085518083526040860191508387019250845b81811015615ab45783518352848301925084840193505b600181019050615a92565b50508093505050505b92915050565b600060208201905082151582525b92915050565b6000831515825260406020830152615af26040830184615857565b90505b9392505050565b600060208201905073ffffffffffffffffffffffffffffffffffffffff831682525b92915050565b600060208201905073ffffffffffffffffffffffffffffffffffffffff831682525b92915050565b600060208201905073ffffffffffffffffffffffffffffffffffffffff831682525b92915050565b600060208201905073ffffffffffffffffffffffffffffffffffffffff831682525b92915050565b600060208252615baf6020830184615857565b90505b92915050565b600060208252601060208301527f496e76616c696420706f736974696f6e0000000000000000000000000000000060408301526060820190505b919050565b600060208252601560208301527f496e76616c6964206c6f636b206475726174696f6e000000000000000000000060408301526060820190505b919050565b600060208252601160208301527f556e737570706f7274656420746f6b656e00000000000000000000000000000060408301526060820190505b919050565b600060208252601b60208301527f4d75737420696e637265617365206c6f636b206475726174696f6e000000000060408301526060820190505b919050565b600060208252600e60208301527f4e6f7420417574686f72697a656400000000000000000000000000000000000060408301526060820190505b919050565b600060208252600460208301527f4e6f6f700000000000000000000000000000000000000000000000000000000060408301526060820190505b919050565b600060208252601260208301527f416374696f6e20626c61636b6c6973746564000000000000000000000000000060408301526060820190505b919050565b600060208252600c60208301527f5374696c6c206c6f636b6564000000000000000000000000000000000000000060408301526060820190505b919050565b600060208252600c60208301527f506f736974696f6e20444e45000000000000000000000000000000000000000060408301526060820190505b919050565b600060208252601260208301527f416c6c6f746d656e74206578636565646564000000000000000000000000000060408301526060820190505b919050565b600060208252600e60208301527f4e6f74206120636f6e747261637400000000000000000000000000000000000060408301526060820190505b919050565b600060208252601460208301527f436f6e747261637420616c72656164792073657400000000000000000000000060408301526060820190505b919050565b600060208252601060208301527f496e76616c696420746f6b656e2049440000000000000000000000000000000060408301526060820190505b919050565b600060208252601560208301527f5444616f3a20546f6b656e206e6f7420666f756e64000000000000000000000060408301526060820190505b919050565b600060208252601660208301527f4d6f7265207468616e203225206f6620737570706c790000000000000000000060408301526060820190505b919050565b600060e082019050825182526020830151602083015260408301516040830152606083015167ffffffffffffffff80821660608501528060808601511660808501528060a08601511660a0850152505061ffff60c08401511660c08301525b92915050565b600060408201905082518252602083015160208301525b92915050565b600060208201905061ffff831682525b92915050565b60006040820190507effffffffffffffffffffffffffffffffffffffffffffffffffffffffffffff8416825282151560208301525b9392505050565b60006020820190508282525b92915050565b600060408201905083825282151560208301525b9392505050565b600060208201905067ffffffffffffffff831682525b92915050565b600060208201905067ffffffffffffffff831682525b92915050565b60005b838110156160c15780820151818401525b6020810190506160a5565b838111156160d0576000848401525b505b505050565b73ffffffffffffffffffffffffffffffffffffffff8116811415156160fc5760006000fd5b5b50565b67ffffffffffffffff8116811415156161195760006000fd5b5b50565bfea26469706673582212200747e70a76eae58666b86a2740170b8ead944b8c8d5031840c112b861c3a202464736f6c6343000706003360a06040523480156100115760006000fd5b505b3373ffffffffffffffffffffffffffffffffffffffff1660808173ffffffffffffffffffffffffffffffffffffffff1660601b815260140150505b610053565b60805160601c6104356100746000398060e652806101d152506104356000f3fe60806040523480156100115760006000fd5b506004361061003b5760003560e01c8063d1660f9914610041578063de9375f2146100b05761003b565b60006000fd5b6100ae600480360360608110156100585760006000fd5b81019080803573ffffffffffffffffffffffffffffffffffffffff169060200190929190803573ffffffffffffffffffffffffffffffffffffffff169060200190929190803590602001909291905050506100e4565b005b6100b86101cf565b604051808273ffffffffffffffffffffffffffffffffffffffff16815260200191505060405180910390f35b7f000000000000000000000000000000000000000000000000000000000000000073ffffffffffffffffffffffffffffffffffffffff163373ffffffffffffffffffffffffffffffffffffffff161415156101aa576040517f08c379a000000000000000000000000000000000000000000000000000000000815260040180806020018281038252600e8152602001807f4e6f7420417574686f72697a656400000000000000000000000000000000000081526020015060200191505060405180910390fd5b60008114156101b8576101ca565b6101c98383836101f363ffffffff16565b5b505050565b7f000000000000000000000000000000000000000000000000000000000000000081565b600060008473ffffffffffffffffffffffffffffffffffffffff1663a9059cbb60e01b8585604051602401808373ffffffffffffffffffffffffffffffffffffffff16815260200182815260200192505050604051602081830303815290604052907bffffffffffffffffffffffffffffffffffffffffffffffffffffffff19166020820180517bffffffffffffffffffffffffffffffffffffffffffffffffffffffff83818316178352505050506040518082805190602001908083835b6020831015156102d857805182525b6020820191506020810190506020830392506102b2565b6001836020036101000a0380198251168184511680821785525050505050509050019150506000604051808303816000865af19150503d806000811461033a576040519150601f19603f3d011682016040523d82523d6000602084013e61033f565b606091505b5091509150818015610380575060008151148061037f575080806020019051602081101561036d5760006000fd5b81019080805190602001909291905050505b5b15156103f7576040517f08c379a00000000000000000000000000000000000000000000000000000000081526004018080602001828103825260028152602001807f535400000000000000000000000000000000000000000000000000000000000081526020015060200191505060405180910390fd5b50505b50505056fea2646970667358221220a09fa674e24bee1d9e1df7bc0570046e4c432e836610f7a105a97cba2ac2d0cf64736f6c63430007060033",
  "linkReferences": {},
  "deployedLinkReferences": {}
}