{
  "_format": "hh-sol-artifact-1",
  "contractName": "TDao",
  "sourceName": "contracts/core/TDao/TDao.sol",
  "abi": [
    {
      "inputs": [
        {
          "internalType": "address",
          "name": "_guardian",
          "type": "address"
        }
      ],
      "stateMutability": "nonpayable",
      "type": "constructor"
    },
    {
      "anonymous": false,
      "inputs": [
        {
          "indexed": true,
          "internalType": "address",
          "name": "token",
          "type": "address"
        },
        {
          "indexed": false,
          "internalType": "uint256",
          "name": "count",
          "type": "uint256"
        }
      ],
      "name": "IncentiveMinted",
      "type": "event"
    },
    {
      "anonymous": false,
      "inputs": [
        {
          "indexed": true,
          "internalType": "uint64",
          "name": "currentPeriod",
          "type": "uint64"
        },
        {
          "indexed": false,
          "internalType": "uint64",
          "name": "periods",
          "type": "uint64"
        }
      ],
      "name": "InflationAccrued",
      "type": "event"
    },
    {
      "anonymous": false,
      "inputs": [
        {
          "indexed": true,
          "internalType": "address",
          "name": "_contract",
          "type": "address"
        }
      ],
      "name": "LiquidationIncentiveContractSet",
      "type": "event"
    },
    {
      "anonymous": false,
      "inputs": [
        {
          "indexed": true,
          "internalType": "uint64",
          "name": "positionNFTTokenID",
          "type": "uint64"
        },
        {
          "indexed": true,
          "internalType": "uint16",
          "name": "lockDurationMonths",
          "type": "uint16"
        }
      ],
      "name": "LockDurationIncrease",
      "type": "event"
    },
    {
      "anonymous": false,
      "inputs": [
        {
          "indexed": true,
          "internalType": "uint64",
          "name": "positionNFTTokenID",
          "type": "uint64"
        },
        {
          "indexed": true,
          "internalType": "address",
          "name": "owner",
          "type": "address"
        }
      ],
      "name": "RewardsClaimed",
      "type": "event"
    },
    {
      "anonymous": false,
      "inputs": [],
      "name": "TDaoStarted",
      "type": "event"
    },
    {
      "anonymous": false,
      "inputs": [
        {
          "indexed": true,
          "internalType": "address",
          "name": "token",
          "type": "address"
        }
      ],
      "name": "TokenAdded",
      "type": "event"
    },
    {
      "anonymous": false,
      "inputs": [
        {
          "indexed": true,
          "internalType": "uint16",
          "name": "tokenID",
          "type": "uint16"
        },
        {
          "indexed": true,
          "internalType": "address",
          "name": "initialOwner",
          "type": "address"
        },
        {
          "indexed": true,
          "internalType": "uint8",
          "name": "lockDurationMonths",
          "type": "uint8"
        },
        {
          "indexed": false,
          "internalType": "uint256",
          "name": "count",
          "type": "uint256"
        }
      ],
      "name": "TokensLocked",
      "type": "event"
    },
    {
      "anonymous": false,
      "inputs": [
        {
          "indexed": true,
          "internalType": "uint16",
          "name": "tokenID",
          "type": "uint16"
        },
        {
          "indexed": true,
          "internalType": "address",
          "name": "owner",
          "type": "address"
        },
        {
          "indexed": false,
          "internalType": "uint256",
          "name": "count",
          "type": "uint256"
        }
      ],
      "name": "TokensUnlocked",
      "type": "event"
    },
    {
      "inputs": [],
      "name": "accrueInflation",
      "outputs": [],
      "stateMutability": "nonpayable",
      "type": "function"
    },
    {
      "inputs": [
        {
          "internalType": "contract IERC20",
          "name": "token",
          "type": "address"
        }
      ],
      "name": "addToken",
      "outputs": [],
      "stateMutability": "nonpayable",
      "type": "function"
    },
    {
      "inputs": [
        {
          "internalType": "bytes4",
          "name": "",
          "type": "bytes4"
        }
      ],
      "name": "blacklistedAction",
      "outputs": [
        {
          "internalType": "bool",
          "name": "",
          "type": "bool"
        }
      ],
      "stateMutability": "view",
      "type": "function"
    },
    {
      "inputs": [],
      "name": "countUnderlyingProtocolTokens",
      "outputs": [
        {
          "internalType": "uint16",
          "name": "",
          "type": "uint16"
        }
      ],
      "stateMutability": "view",
      "type": "function"
    },
    {
      "inputs": [],
      "name": "currentPeriod",
      "outputs": [
        {
          "internalType": "uint64",
          "name": "period",
          "type": "uint64"
        }
      ],
      "stateMutability": "view",
      "type": "function"
    },
    {
      "inputs": [],
      "name": "dailyProtocolTDaoIncentiveCount",
      "outputs": [
        {
          "internalType": "uint256",
          "name": "",
          "type": "uint256"
        }
      ],
      "stateMutability": "view",
      "type": "function"
    },
    {
      "inputs": [],
      "name": "deployer",
      "outputs": [
        {
          "internalType": "address",
          "name": "",
          "type": "address"
        }
      ],
      "stateMutability": "view",
      "type": "function"
    },
    {
      "inputs": [
        {
          "internalType": "address",
          "name": "target",
          "type": "address"
        },
        {
          "internalType": "string",
          "name": "signature",
          "type": "string"
        },
        {
          "internalType": "bytes",
          "name": "data",
          "type": "bytes"
        }
      ],
      "name": "execute",
      "outputs": [
        {
          "internalType": "bool",
          "name": "success",
          "type": "bool"
        },
        {
          "internalType": "bytes",
          "name": "returnData",
          "type": "bytes"
        }
      ],
      "stateMutability": "nonpayable",
      "type": "function"
    },
    {
      "inputs": [
        {
          "internalType": "uint256",
          "name": "metaProposalID",
          "type": "uint256"
        }
      ],
      "name": "executeMetaProposalVote",
      "outputs": [],
      "stateMutability": "nonpayable",
      "type": "function"
    },
    {
      "inputs": [],
      "name": "firstPeriod",
      "outputs": [
        {
          "internalType": "uint64",
          "name": "",
          "type": "uint64"
        }
      ],
      "stateMutability": "view",
      "type": "function"
    },
    {
      "inputs": [
        {
          "internalType": "uint64",
          "name": "positionNFTTokenID",
          "type": "uint64"
        }
      ],
      "name": "getPosition",
      "outputs": [
        {
          "components": [
            {
              "internalType": "uint256",
              "name": "count",
              "type": "uint256"
            },
            {
              "internalType": "uint256",
              "name": "startTotalRewards",
              "type": "uint256"
            },
            {
              "internalType": "uint256",
              "name": "startCumulativeVirtualCount",
              "type": "uint256"
            },
            {
              "internalType": "uint64",
              "name": "lastPeriodUpdated",
              "type": "uint64"
            },
            {
              "internalType": "uint64",
              "name": "endPeriod",
              "type": "uint64"
            },
            {
              "internalType": "uint64",
              "name": "durationMonths",
              "type": "uint64"
            },
            {
              "internalType": "uint16",
              "name": "tokenID",
              "type": "uint16"
            }
          ],
          "internalType": "struct ITDao.TokenPosition",
          "name": "",
          "type": "tuple"
        }
      ],
      "stateMutability": "view",
      "type": "function"
    },
    {
      "inputs": [
        {
          "internalType": "uint64[]",
          "name": "positionNFTTokenIDs",
          "type": "uint64[]"
        }
      ],
      "name": "getRewards",
      "outputs": [],
      "stateMutability": "nonpayable",
      "type": "function"
    },
    {
      "inputs": [
        {
          "internalType": "uint16",
          "name": "_tokenID",
          "type": "uint16"
        }
      ],
      "name": "getRewardsStatus",
      "outputs": [
        {
          "components": [
            {
              "internalType": "uint256",
              "name": "cumulativeVirtualCount",
              "type": "uint256"
            },
            {
              "internalType": "uint256",
              "name": "totalRewards",
              "type": "uint256"
            }
          ],
          "internalType": "struct ITDao.TokenRewardsStatus",
          "name": "",
          "type": "tuple"
        }
      ],
      "stateMutability": "view",
      "type": "function"
    },
    {
      "inputs": [],
      "name": "guardian",
      "outputs": [
        {
          "internalType": "address",
          "name": "",
          "type": "address"
        }
      ],
      "stateMutability": "view",
      "type": "function"
    },
    {
      "inputs": [
        {
          "internalType": "uint16",
          "name": "",
          "type": "uint16"
        }
      ],
      "name": "idToToken",
      "outputs": [
        {
          "internalType": "contract IERC20",
          "name": "",
          "type": "address"
        }
      ],
      "stateMutability": "view",
      "type": "function"
    },
    {
      "inputs": [],
      "name": "incentiveContract",
      "outputs": [
        {
          "internalType": "address",
          "name": "",
          "type": "address"
        }
      ],
      "stateMutability": "view",
      "type": "function"
    },
    {
      "inputs": [
        {
          "internalType": "address",
          "name": "dest",
          "type": "address"
        },
        {
          "internalType": "uint256",
          "name": "count",
          "type": "uint256"
        }
      ],
      "name": "incentiveContractMint",
      "outputs": [],
      "stateMutability": "nonpayable",
      "type": "function"
    },
    {
      "inputs": [],
      "name": "incentivesStartPeriod",
      "outputs": [
        {
          "internalType": "uint64",
          "name": "",
          "type": "uint64"
        }
      ],
      "stateMutability": "view",
      "type": "function"
    },
    {
      "inputs": [
        {
          "internalType": "uint64",
          "name": "positionNFTTokenID",
          "type": "uint64"
        },
        {
          "internalType": "uint8",
          "name": "lockDurationMonths",
          "type": "uint8"
        }
      ],
      "name": "increaseLockDuration",
      "outputs": [],
      "stateMutability": "nonpayable",
      "type": "function"
    },
    {
      "inputs": [
        {
          "internalType": "contract IPositionNFT",
          "name": "_tDaoPositionNFT",
          "type": "address"
        },
        {
          "internalType": "contract TDaoToken",
          "name": "_tDaoToken",
          "type": "address"
        },
        {
          "internalType": "address",
          "name": "_tDaoGovernorAlpha",
          "type": "address"
        },
        {
          "internalType": "address",
          "name": "_timelock",
          "type": "address"
        }
      ],
      "name": "init",
      "outputs": [],
      "stateMutability": "nonpayable",
      "type": "function"
    },
    {
      "inputs": [],
      "name": "lastPeriodGlobalInflationUpdated",
      "outputs": [
        {
          "internalType": "uint64",
          "name": "",
          "type": "uint64"
        }
      ],
      "stateMutability": "view",
      "type": "function"
    },
    {
      "inputs": [
        {
          "internalType": "contract IERC20",
          "name": "token",
          "type": "address"
        },
        {
          "internalType": "uint256",
          "name": "count",
          "type": "uint256"
        },
        {
          "internalType": "uint8",
          "name": "lockDurationMonths",
          "type": "uint8"
        },
        {
          "internalType": "address",
          "name": "to",
          "type": "address"
        }
      ],
      "name": "lockTokens",
      "outputs": [
        {
          "internalType": "uint64",
          "name": "positionNFTTokenID",
          "type": "uint64"
        }
      ],
      "stateMutability": "nonpayable",
      "type": "function"
    },
    {
      "inputs": [
        {
          "internalType": "address",
          "name": "dest",
          "type": "address"
        },
        {
          "internalType": "uint256",
          "name": "count",
          "type": "uint256"
        }
      ],
      "name": "mintIncentive",
      "outputs": [],
      "stateMutability": "nonpayable",
      "type": "function"
    },
    {
      "inputs": [
        {
          "internalType": "address",
          "name": "dest",
          "type": "address"
        },
        {
          "internalType": "uint256",
          "name": "count",
          "type": "uint256"
        }
      ],
      "name": "mintVotingRewards",
      "outputs": [],
      "stateMutability": "nonpayable",
      "type": "function"
    },
    {
      "inputs": [],
      "name": "periodLength",
      "outputs": [
        {
          "internalType": "uint64",
          "name": "",
          "type": "uint64"
        }
      ],
      "stateMutability": "view",
      "type": "function"
    },
    {
      "inputs": [
        {
          "internalType": "uint64",
          "name": "period",
          "type": "uint64"
        }
      ],
      "name": "periodToTime",
      "outputs": [
        {
          "internalType": "uint64",
          "name": "",
          "type": "uint64"
        }
      ],
      "stateMutability": "view",
      "type": "function"
    },
    {
      "inputs": [
        {
          "internalType": "uint64",
          "name": "positionNFTTokenID",
          "type": "uint64"
        }
      ],
      "name": "positionIsAbleToBeUnlocked",
      "outputs": [
        {
          "internalType": "bool",
          "name": "",
          "type": "bool"
        }
      ],
      "stateMutability": "view",
      "type": "function"
    },
    {
      "inputs": [
        {
          "internalType": "contract IERC20",
          "name": "token",
          "type": "address"
        }
      ],
      "name": "selfDelegate",
      "outputs": [],
      "stateMutability": "nonpayable",
      "type": "function"
    },
    {
      "inputs": [
        {
          "internalType": "address",
          "name": "governorAlpha",
          "type": "address"
        },
        {
          "internalType": "uint256",
          "name": "proposalID",
          "type": "uint256"
        },
        {
          "internalType": "address",
          "name": "voter",
          "type": "address"
        },
        {
          "internalType": "uint256",
          "name": "votePortion",
          "type": "uint256"
        }
      ],
      "name": "sendUnderlyingVotingRewards",
      "outputs": [],
      "stateMutability": "nonpayable",
      "type": "function"
    },
    {
      "inputs": [
        {
          "internalType": "contract IERC20",
          "name": "firstToken",
          "type": "address"
        }
      ],
      "name": "setFirstToken",
      "outputs": [],
      "stateMutability": "nonpayable",
      "type": "function"
    },
    {
      "inputs": [
        {
          "internalType": "address",
          "name": "_contract",
          "type": "address"
        }
      ],
      "name": "setIncentiveContract",
      "outputs": [],
      "stateMutability": "nonpayable",
      "type": "function"
    },
    {
      "inputs": [],
      "name": "start",
      "outputs": [],
      "stateMutability": "nonpayable",
      "type": "function"
    },
    {
      "inputs": [],
      "name": "startPeriod",
      "outputs": [
        {
          "internalType": "uint64",
          "name": "",
          "type": "uint64"
        }
      ],
      "stateMutability": "view",
      "type": "function"
    },
    {
      "inputs": [],
      "name": "tDaoGovernorAlpha",
      "outputs": [
        {
          "internalType": "address",
          "name": "",
          "type": "address"
        }
      ],
      "stateMutability": "view",
      "type": "function"
    },
    {
      "inputs": [],
      "name": "tDaoPositionNFT",
      "outputs": [
        {
          "internalType": "contract IPositionNFT",
          "name": "",
          "type": "address"
        }
      ],
      "stateMutability": "view",
      "type": "function"
    },
    {
      "inputs": [],
      "name": "tDaoToken",
      "outputs": [
        {
          "internalType": "contract TDaoToken",
          "name": "",
          "type": "address"
        }
      ],
      "stateMutability": "view",
      "type": "function"
    },
    {
      "inputs": [],
      "name": "timelock",
      "outputs": [
        {
          "internalType": "address",
          "name": "",
          "type": "address"
        }
      ],
      "stateMutability": "view",
      "type": "function"
    },
    {
      "inputs": [
        {
          "internalType": "contract IERC20",
          "name": "",
          "type": "address"
        }
      ],
      "name": "tokenToID",
      "outputs": [
        {
          "internalType": "uint16",
          "name": "",
          "type": "uint16"
        }
      ],
      "stateMutability": "view",
      "type": "function"
    },
    {
      "inputs": [],
      "name": "totalIncentivesMinted",
      "outputs": [
        {
          "internalType": "uint256",
          "name": "",
          "type": "uint256"
        }
      ],
      "stateMutability": "view",
      "type": "function"
    },
    {
      "inputs": [
        {
          "internalType": "address",
          "name": "",
          "type": "address"
        },
        {
          "internalType": "uint256",
          "name": "",
          "type": "uint256"
        }
      ],
      "name": "underlyingTokenVoteRewardCount",
      "outputs": [
        {
          "internalType": "uint248",
          "name": "count",
          "type": "uint248"
        },
        {
          "internalType": "bool",
          "name": "isSet",
          "type": "bool"
        }
      ],
      "stateMutability": "view",
      "type": "function"
    },
    {
      "inputs": [
        {
          "internalType": "uint64",
          "name": "positionNFTTokenID",
          "type": "uint64"
        }
      ],
      "name": "unlockTokens",
      "outputs": [],
      "stateMutability": "nonpayable",
      "type": "function"
    },
    {
      "inputs": [
        {
          "internalType": "uint16",
          "name": "",
          "type": "uint16"
        }
      ],
      "name": "virtualCount",
      "outputs": [
        {
          "internalType": "uint256",
          "name": "",
          "type": "uint256"
        }
      ],
      "stateMutability": "view",
      "type": "function"
    },
    {
      "inputs": [],
      "name": "votingRewardsSafe",
      "outputs": [
        {
          "internalType": "contract TDaoVotingRewardsSafe",
          "name": "",
          "type": "address"
        }
      ],
      "stateMutability": "view",
      "type": "function"
    }
  ],
  "bytecode": "0x60e06040526001600760006101000a81548167ffffffffffffffff021916908367ffffffffffffffff1602179055503480156200003c5760006000fd5b5060405162006785380380620067858339818101604052810190620000629190620002a8565b5b5b620151805b60018167ffffffffffffffff1662000086620001df60201b60201c565b67ffffffffffffffff168115156200009a57fe5b040367ffffffffffffffff1660a08167ffffffffffffffff1660c01b815260080150508067ffffffffffffffff1660808167ffffffffffffffff1660c01b815260080150505b50600160006000508190909055505b80601060006101000a81548173ffffffffffffffffffffffffffffffffffffffff021916908373ffffffffffffffffffffffffffffffffffffffff1602179055506040516200013e9062000295565b604051809103906000f0801580156200015c573d600060003e3d6000fd5b5073ffffffffffffffffffffffffffffffffffffffff1660c08173ffffffffffffffffffffffffffffffffffffffff1660601b8152601401505033600f60006101000a81548173ffffffffffffffffffffffffffffffffffffffff021916908373ffffffffffffffffffffffffffffffffffffffff1602179055505b50620002df565b6000620001f9426200020160201b6200386a17909060201c565b905080505b90565b6000680100000000000000008210151562000287576040517f08c379a00000000000000000000000000000000000000000000000000000000081526004018080602001828103825260118152602001807f6d6f7265207468616e203634206269747300000000000000000000000000000081526020015060200191505060405180910390fd5b81905062000290565b919050565b6104a980620062dc8339019056620002de565b600060208284031215620002ba578081fd5b81516001600160a01b03811681141515620002d3578182fd5b809150505b92915050565b5b60805160c01c60a05160c01c60c05160601c615fa96200033360003980612afb52806132d152806133025250806135925280613bd25280614adb5250806135b65280613bf35280614b145250615fa96000f3fe60806040523480156100115760006000fd5b50600436106102ee5760003560e01c8063797250e411610192578063be9a6555116100e4578063d48bfca711610098578063f0f091c311610072578063f0f091c31461082e578063fcb3fa901461084a578063fd8067c314610866576102ee565b8063d48bfca7146107d6578063d5f39488146107f2578063d6c2875d14610810576102ee565b8063c4e3a63b116100c9578063c4e3a63b1461077c578063d2ca21151461079a578063d33219b4146107b8576102ee565b8063be9a655514610754578063c2cc16d91461075e576102ee565b80639383ac44116101465780639d8e0901116101205780639d8e0901146106ea578063ae4298331461071a578063b9f8ea6d14610738576102ee565b80639383ac4414610680578063955e232e1461069c5780639645383d146106cc576102ee565b806382b5e8891161017757806382b5e8891461061557806386fa81c71461063157806387bbac1b14610662576102ee565b8063797250e4146105c75780637ad31c98146105f7576102ee565b806327fb04741161024b578063452a9320116101ff578063526b8712116101d9578063526b87121461055b578063640bb8df146105795780636c6a4f3614610597576102ee565b8063452a9320146105055780634540137e146105235780634cd7a3151461053f576102ee565b806330bfb9bb1161023057806330bfb9bb1461048657806333daf5d4146104a4578063371f3d45146104d5576102ee565b806327fb0474146104265780632e74e62814610456576102ee565b806307e54f16116102a25780630f85fc5a116102875780630f85fc5a146103bc57806314706d85146103ec5780631a30c7021461040a576102ee565b806307e54f16146103705780630a889a8b146103a0576102ee565b806306552ff3116102d357806306552ff31461031c57806307818200146103385780630793298714610354576102ee565b8063020ac54a146102f457806306040618146102fe576102ee565b60006000fd5b6102fc610884565b005b610306610931565b6040516103139190615edb565b60405180910390f35b6103366004803603810190610331919061563b565b610949565b005b610352600480360381019061034d9190615321565b610bb4565b005b61036e60048036038101906103699190615416565b610d93565b005b61038a600480360381019061038591906155bd565b610f24565b6040516103979190615e40565b60405180910390f35b6103ba60048036038101906103b59190615708565b610f4a565b005b6103d660048036038101906103d19190615708565b611489565b6040516103e39190615dbe565b60405180910390f35b6103f4611765565b6040516104019190615e92565b60405180910390f35b610424600480360381019061041f9190615756565b611824565b005b610440600480360381019061043b91906155e4565b611b7a565b60405161044d9190615edb565b60405180910390f35b610470600480360381019061046b9190615708565b611f7b565b60405161047d9190615996565b60405180910390f35b61048e612078565b60405161049b9190615edb565b60405180910390f35b6104be60048036038101906104b9919061536f565b612092565b6040516104cc9291906159aa565b60405180910390f35b6104ef60048036038101906104ea9190615570565b612329565b6040516104fc9190615996565b60405180910390f35b61050d61234e565b60405161051a9190615845565b60405180910390f35b61053d600480360381019061053891906154d8565b612374565b005b61055960048036038101906105549190615416565b612597565b005b6105636127fb565b6040516105709190615e40565b60405180910390f35b61058161280f565b60405161058e9190615845565b60405180910390f35b6105b160048036038101906105ac91906156a1565b612835565b6040516105be9190615e23565b60405180910390f35b6105e160048036038101906105dc91906156a1565b612956565b6040516105ee9190615e92565b60405180910390f35b6105ff612971565b60405161060c9190615e92565b60405180910390f35b61062f600480360381019061062a91906155bd565b61297a565b005b61064b60048036038101906106469190615416565b612a8a565b604051610659929190615e56565b60405180910390f35b61066a612af9565b6040516106779190615a47565b60405180910390f35b61069a60048036038101906106959190615416565b612b1d565b005b6106b660048036038101906106b19190615708565b612d8a565b6040516106c39190615edb565b60405180910390f35b6106d4612da7565b6040516106e19190615a1f565b60405180910390f35b61070460048036038101906106ff91906156a1565b612dcd565b60405161071191906159cf565b60405180910390f35b610722612e05565b60405161072f91906159f7565b60405180910390f35b610752600480360381019061074d9190615447565b612e2b565b005b61075c613453565b005b61076661356a565b6040516107739190615845565b60405180910390f35b610784613590565b6040516107919190615edb565b60405180910390f35b6107a26135b4565b6040516107af9190615edb565b60405180910390f35b6107c06135d8565b6040516107cd9190615845565b60405180910390f35b6107f060048036038101906107eb91906155bd565b6135fe565b005b6107fa61364f565b6040516108079190615845565b60405180910390f35b610818613675565b6040516108259190615edb565b60405180910390f35b610848600480360381019061084391906155bd565b61368f565b005b610864600480360381019061085f91906156d0565b613721565b005b61086e613850565b60405161087b9190615edb565b60405180910390f35b600260006000505414151515610905576040517f08c379a000000000000000000000000000000000000000000000000000000000815260040180806020018281038252601f8152602001807f5265656e7472616e637947756172643a207265656e7472616e742063616c6c0081526020015060200191505060405180910390fd5b600260006000508190909055506109206138fc63ffffffff16565b5b600160006000508190909055505b565b6000610941613bce63ffffffff16565b905080505b90565b6109a8600f60009054906101000a900473ffffffffffffffffffffffffffffffffffffffff1673ffffffffffffffffffffffffffffffffffffffff163373ffffffffffffffffffffffffffffffffffffffff1614613c4763ffffffff16565b600f60006101000a81549073ffffffffffffffffffffffffffffffffffffffff021916905583600560006101000a81548173ffffffffffffffffffffffffffffffffffffffff021916908373ffffffffffffffffffffffffffffffffffffffff16021790555082600460006101000a81548173ffffffffffffffffffffffffffffffffffffffff021916908373ffffffffffffffffffffffffffffffffffffffff16021790555081600360006101000a81548173ffffffffffffffffffffffffffffffffffffffff021916908373ffffffffffffffffffffffffffffffffffffffff16021790555080600260006101000a81548173ffffffffffffffffffffffffffffffffffffffff021916908373ffffffffffffffffffffffffffffffffffffffff160217905550610ae763a9059cbb60e01b613c8d63ffffffff16565b610afd6323b872dd60e01b613c8d63ffffffff16565b610b1363095ea7b360e01b613c8d63ffffffff16565b610b2963449a52f860e01b613c8d63ffffffff16565b610b3f6379cc679060e01b613c8d63ffffffff16565b610b556342966c6860e01b613c8d63ffffffff16565b610b6b633950935160e01b613c8d63ffffffff16565b610b8163a457c2d760e01b613c8d63ffffffff16565b610b97633c4a25d060e01b613c8d63ffffffff16565b610bad635c19a95c60e01b613c8d63ffffffff16565b5b50505050565b610bf13073ffffffffffffffffffffffffffffffffffffffff163373ffffffffffffffffffffffffffffffffffffffff1614613c4763ffffffff16565b600073ffffffffffffffffffffffffffffffffffffffff16600160009054906101000a900473ffffffffffffffffffffffffffffffffffffffff1673ffffffffffffffffffffffffffffffffffffffff16141515610c84576040517f08c379a0000000000000000000000000000000000000000000000000000000008152600401610c7b90615d40565b60405180910390fd5b610c9381613cfe63ffffffff16565b1515610cd4576040517f08c379a0000000000000000000000000000000000000000000000000000000008152600401610ccb90615d01565b60405180910390fd5b80600160006101000a81548173ffffffffffffffffffffffffffffffffffffffff021916908373ffffffffffffffffffffffffffffffffffffffff160217905550610d23613bce63ffffffff16565b601160006101000a81548167ffffffffffffffff021916908367ffffffffffffffff1602179055508073ffffffffffffffffffffffffffffffffffffffff167f6765bf0cc4e3defc42bfa6ac394241a5f702ee760529c922874f15c4ad35edc760405160405180910390a25b5b50565b600260006000505414151515610e14576040517f08c379a000000000000000000000000000000000000000000000000000000000815260040180806020018281038252601f8152602001807f5265656e7472616e637947756172643a207265656e7472616e742063616c6c0081526020015060200191505060405180910390fd5b60026000600050819090905550610e80600360009054906101000a900473ffffffffffffffffffffffffffffffffffffffff1673ffffffffffffffffffffffffffffffffffffffff163373ffffffffffffffffffffffffffffffffffffffff1614613c4763ffffffff16565b600460009054906101000a900473ffffffffffffffffffffffffffffffffffffffff1673ffffffffffffffffffffffffffffffffffffffff1663449a52f883836040518363ffffffff1660e01b8152600401610edd9291906158e0565b600060405180830381600087803b158015610ef85760006000fd5b505af1158015610f0d573d600060003e3d6000fd5b505050505b600160006000508190909055505b5050565b600b60005060205280600052604060002060009150909054906101000a900461ffff1681565b600260006000505414151515610fcb576040517f08c379a000000000000000000000000000000000000000000000000000000000815260040180806020018281038252601f8152602001807f5265656e7472616e637947756172643a207265656e7472616e742063616c6c0081526020015060200191505060405180910390fd5b60026000600050819090905550600033905061109a600560009054906101000a900473ffffffffffffffffffffffffffffffffffffffff1673ffffffffffffffffffffffffffffffffffffffff1663430c208183856040518363ffffffff1660e01b815260040161103d92919061590f565b60206040518083038186803b1580156110565760006000fd5b505afa15801561106b573d600060003e3d6000fd5b505050506040513d601f19601f8201168201806040525081019061108f919061554d565b613c4763ffffffff16565b60006110ab83613d1863ffffffff16565b90506110bb613bce63ffffffff16565b67ffffffffffffffff16816080015167ffffffffffffffff1611151515611117576040517f08c379a000000000000000000000000000000000000000000000000000000000815260040161110e90615c44565b60405180910390fd5b61116661113282600001518360a00151613fe163ffffffff16565b600960005060008460c0015161ffff1661ffff1681526020019081526020016000206000505461401090919063ffffffff16565b600960005060008360c0015161ffff1661ffff168152602001908152602001600020600050819090905550600d60005060008467ffffffffffffffff1667ffffffffffffffff16815260200190815260200160002060006000820160006101000a8154906fffffffffffffffffffffffffffffffff02191690556000820160106101000a8154906fffffffffffffffffffffffffffffffff02191690556001820160006101000a81549076ffffffffffffffffffffffffffffffffffffffffffffff02191690556001820160176101000a81549061ffff02191690556001820160196101000a81549061ffff021916905560018201601b6101000a81549061ffff021916905560018201601d6101000a81549060ff021916905550506000600560009054906101000a900473ffffffffffffffffffffffffffffffffffffffff1673ffffffffffffffffffffffffffffffffffffffff16636352211e856040518263ffffffff1660e01b81526004016112df9190615ebf565b60206040518083038186803b1580156112f85760006000fd5b505afa15801561130d573d600060003e3d6000fd5b505050506040513d601f19601f820116820180604052508101906113319190615348565b9050600560009054906101000a900473ffffffffffffffffffffffffffffffffffffffff1673ffffffffffffffffffffffffffffffffffffffff16639dbead42856040518263ffffffff1660e01b815260040161138e9190615edb565b600060405180830381600087803b1580156113a95760006000fd5b505af11580156113be573d600060003e3d6000fd5b505050508273ffffffffffffffffffffffffffffffffffffffff168260c0015161ffff167fbf347141bee0ba9c777fbef9a14008be9f56f2b2f90f0e63cfed8a96a3b506c784600001516040516114159190615e92565b60405180910390a3611474600c60005060008460c0015161ffff1661ffff16815260200190815260200160002060009054906101000a900473ffffffffffffffffffffffffffffffffffffffff1682846000015161409963ffffffff16565b5050505b600160006000508190909055505b50565b6114916151dd565b6000600d60005060008467ffffffffffffffff1667ffffffffffffffff1681526020019081526020016000206000506040518060e00160405290816000820160009054906101000a90046fffffffffffffffffffffffffffffffff166fffffffffffffffffffffffffffffffff166fffffffffffffffffffffffffffffffff1681526020016000820160109054906101000a90046fffffffffffffffffffffffffffffffff166fffffffffffffffffffffffffffffffff166fffffffffffffffffffffffffffffffff1681526020016001820160009054906101000a900476ffffffffffffffffffffffffffffffffffffffffffffff1676ffffffffffffffffffffffffffffffffffffffffffffff1676ffffffffffffffffffffffffffffffffffffffffffffff1681526020016001820160179054906101000a900461ffff1661ffff1661ffff1681526020016001820160199054906101000a900461ffff1661ffff1661ffff16815260200160018201601b9054906101000a900461ffff1661ffff1661ffff16815260200160018201601d9054906101000a900460ff1660ff1660ff16815260200150509050600081600001516fffffffffffffffffffffffffffffffff1611151561169b576040517f08c379a000000000000000000000000000000000000000000000000000000000815260040161169290615c83565b60405180910390fd5b6040518060e0016040528082600001516fffffffffffffffffffffffffffffffff16815260200182602001516fffffffffffffffffffffffffffffffff168152602001826040015176ffffffffffffffffffffffffffffffffffffffffffffff168152602001826060015161ffff1667ffffffffffffffff168152602001826080015161ffff1667ffffffffffffffff1681526020018260c0015160ff1667ffffffffffffffff1681526020018260a0015161ffff1681526020015091505061176056505b919050565b60006000601060149054906101000a900467ffffffffffffffff1667ffffffffffffffff1614156117995760009050611821565b600073ffffffffffffffffffffffffffffffffffffffff16600160009054906101000a900473ffffffffffffffffffffffffffffffffffffffff1673ffffffffffffffffffffffffffffffffffffffff1614151561180f5769021e19e0c9bab240000069152d02c7e14af6800000039050611821565b69152d02c7e14af68000009050611821565b90565b6002600060005054141515156118a5576040517f08c379a000000000000000000000000000000000000000000000000000000000815260040180806020018281038252601f8152602001807f5265656e7472616e637947756172643a207265656e7472616e742063616c6c0081526020015060200191505060405180910390fd5b600260006000508190909055506118c1816142a563ffffffff16565b6000339050611983600560009054906101000a900473ffffffffffffffffffffffffffffffffffffffff1673ffffffffffffffffffffffffffffffffffffffff1663430c208183866040518363ffffffff1660e01b815260040161192692919061590f565b60206040518083038186803b15801561193f5760006000fd5b505afa158015611954573d600060003e3d6000fd5b505050506040513d601f19601f82011682018060405250810190611978919061554d565b613c4763ffffffff16565b600061199484613d1863ffffffff16565b90508060a0015167ffffffffffffffff168360ff1667ffffffffffffffff161115156119f5576040517f08c379a00000000000000000000000000000000000000000000000000000000081526004016119ec90615b48565b60405180910390fd5b611a6c611a0f82600001518560ff16613fe163ffffffff16565b611a5e611a2a84600001518560a00151613fe163ffffffff16565b600960005060008660c0015161ffff1661ffff1681526020019081526020016000206000505461401090919063ffffffff16565b61434590919063ffffffff16565b600960005060008360c0015161ffff1661ffff168152602001908152602001600020600050819090905550611ad2611aac8460ff166143ce63ffffffff16565b611aba613bce63ffffffff16565b67ffffffffffffffff1661441190919063ffffffff16565b816080019067ffffffffffffffff16908167ffffffffffffffff16815260200150508260ff168160a0019067ffffffffffffffff16908167ffffffffffffffff1681526020015050611b2a84826144ae63ffffffff16565b8260ff168467ffffffffffffffff167fb39e6330051c3e584367d7d1f1ff3fb0cdd824478fd7d7f257005c83c010b8a160405160405180910390a350505b600160006000508190909055505b5050565b6000600260006000505414151515611bfd576040517f08c379a000000000000000000000000000000000000000000000000000000000815260040180806020018281038252601f8152602001807f5265656e7472616e637947756172643a207265656e7472616e742063616c6c0081526020015060200191505060405180910390fd5b600260006000508190909055506000600b60005060008773ffffffffffffffffffffffffffffffffffffffff1673ffffffffffffffffffffffffffffffffffffffff16815260200190815260200160002060009054906101000a900461ffff16905060008161ffff16111515611ca8576040517f08c379a0000000000000000000000000000000000000000000000000000000008152600401611c9f90615b09565b60405180910390fd5b600085111515611ced576040517f08c379a0000000000000000000000000000000000000000000000000000000008152600401611ce490615bc6565b60405180910390fd5b611cfc846142a563ffffffff16565b611d0a6138fc63ffffffff16565b6000611d1b8261283563ffffffff16565b9050611d63611d33878760ff16613fe163ffffffff16565b600960005060008561ffff1661ffff1681526020019081526020016000206000505461434590919063ffffffff16565b600960005060008461ffff1661ffff168152602001908152602001600020600050819090905550600560009054906101000a900473ffffffffffffffffffffffffffffffffffffffff1673ffffffffffffffffffffffffffffffffffffffff1663755edd17856040518263ffffffff1660e01b8152600401611de59190615845565b602060405180830381600087803b158015611e005760006000fd5b505af1158015611e15573d600060003e3d6000fd5b505050506040513d601f19601f82011682018060405250810190611e39919061572f565b925082506000611e4d613bce63ffffffff16565b9050611eee846040518060e001604052808a815260200185602001518152602001856000015181526020018467ffffffffffffffff168152602001611eb6611e9d8b60ff166143ce63ffffffff16565b8667ffffffffffffffff1661441190919063ffffffff16565b67ffffffffffffffff1681526020018960ff1667ffffffffffffffff1681526020018661ffff168152602001506144ae63ffffffff16565b611f008833308a61475463ffffffff16565b8560ff168573ffffffffffffffffffffffffffffffffffffffff168461ffff167ffd5af8482cd27088275e2c1370259ff534cf1c987cf2105e24da196377e5c98d8a604051611f4f9190615e92565b60405180910390a4839350505050611f65565050505b600160006000508190909055505b949350505050565b60006000600d60005060008467ffffffffffffffff1667ffffffffffffffff168152602001908152602001600020600050600101601b9054906101000a900461ffff1661ffff1614151515612005576040517f08c379a0000000000000000000000000000000000000000000000000000000008152600401611ffc90615a8b565b60405180910390fd5b612013613bce63ffffffff16565b67ffffffffffffffff16600d60005060008467ffffffffffffffff1667ffffffffffffffff16815260200190815260200160002060005060010160199054906101000a900461ffff1661ffff1667ffffffffffffffff1611159050612073565b919050565b601060149054906101000a900467ffffffffffffffff1681565b60006060600260006000505414151515612117576040517f08c379a000000000000000000000000000000000000000000000000000000000815260040180806020018281038252601f8152602001807f5265656e7472616e637947756172643a207265656e7472616e742063616c6c0081526020015060200191505060405180910390fd5b60026000600050819090905550612183600260009054906101000a900473ffffffffffffffffffffffffffffffffffffffff1673ffffffffffffffffffffffffffffffffffffffff163373ffffffffffffffffffffffffffffffffffffffff1614613c4763ffffffff16565b60006121948561497f63ffffffff16565b9050600e6000506000827bffffffffffffffffffffffffffffffffffffffffffffffffffffffff19167bffffffffffffffffffffffffffffffffffffffffffffffffffffffff1916815260200190815260200160002060009054906101000a900460ff1615151561223a576040517f08c379a000000000000000000000000000000000000000000000000000000000815260040161223190615c05565b60405180910390fd5b8573ffffffffffffffffffffffffffffffffffffffff1681856040516020016122649291906157db565b6040516020818303038152906040526040516122809190615826565b6000604051808303816000865af19150503d80600081146122bd576040519150601f19603f3d011682016040523d82523d6000602084013e6122c2565b606091505b5080935081945050508282901515612310576040517f08c379a00000000000000000000000000000000000000000000000000000000081526004016123079190615a6f565b60405180910390fd5b50505b600160006000508190909055505b935093915050565b600e60005060205280600052604060002060009150909054906101000a900460ff1681565b601060009054906101000a900473ffffffffffffffffffffffffffffffffffffffff1681565b6002600060005054141515156123f5576040517f08c379a000000000000000000000000000000000000000000000000000000000815260040180806020018281038252601f8152602001807f5265656e7472616e637947756172643a207265656e7472616e742063616c6c0081526020015060200191505060405180910390fd5b60026000600050819090905550600061240c6151dd565b6000600090505b8484905081101561258157848482818110151561242c57fe5b90506020020160208101906124419190615708565b92508250612502600560009054906101000a900473ffffffffffffffffffffffffffffffffffffffff1673ffffffffffffffffffffffffffffffffffffffff1663430c208133866040518363ffffffff1660e01b81526004016124a592919061586d565b60206040518083038186803b1580156124be5760006000fd5b505afa1580156124d3573d600060003e3d6000fd5b505050506040513d601f19601f820116820180604052508101906124f7919061554d565b613c4763ffffffff16565b61251183613d1863ffffffff16565b9150815061252583836144ae63ffffffff16565b3373ffffffffffffffffffffffffffffffffffffffff168367ffffffffffffffff167f39c278b054e152450e4295bdf59d7edbaba35cb21d4248658680e61dac39eebb60405160405180910390a35b8080600101915050612413565b5050505b600160006000508190909055505b5050565b6125d43073ffffffffffffffffffffffffffffffffffffffff163373ffffffffffffffffffffffffffffffffffffffff1614613c4763ffffffff16565b6032600460009054906101000a900473ffffffffffffffffffffffffffffffffffffffff1673ffffffffffffffffffffffffffffffffffffffff166318160ddd6040518163ffffffff1660e01b815260040160206040518083038186803b15801561263f5760006000fd5b505afa158015612654573d600060003e3d6000fd5b505050506040513d601f19601f8201168201806040525081019061267891906156ec565b81151561268157fe5b0481111515156126c6576040517f08c379a00000000000000000000000000000000000000000000000000000000081526004016126bd90615d7f565b60405180910390fd5b6126d582613cfe63ffffffff16565b1515612716576040517f08c379a000000000000000000000000000000000000000000000000000000000815260040161270d90615d01565b60405180910390fd5b600460009054906101000a900473ffffffffffffffffffffffffffffffffffffffff1673ffffffffffffffffffffffffffffffffffffffff1663449a52f883836040518363ffffffff1660e01b81526004016127739291906158e0565b600060405180830381600087803b15801561278e5760006000fd5b505af11580156127a3573d600060003e3d6000fd5b505050508173ffffffffffffffffffffffffffffffffffffffff167f15c222d39f56077620782fcc367cdd020fddac1f6129c77ec7ca1c5025659dda826040516127ed9190615e92565b60405180910390a25b5b5050565b600a60009054906101000a900461ffff1681565b600360009054906101000a900473ffffffffffffffffffffffffffffffffffffffff1681565b61283d61523f565b6000600860005060008461ffff1661ffff1681526020019081526020016000206000506040518060400160405290816000820160009054906101000a90046fffffffffffffffffffffffffffffffff166fffffffffffffffffffffffffffffffff166fffffffffffffffffffffffffffffffff1681526020016000820160109054906101000a90046fffffffffffffffffffffffffffffffff166fffffffffffffffffffffffffffffffff166fffffffffffffffffffffffffffffffff16815260200150509050604051806040016040528082600001516fffffffffffffffffffffffffffffffff16815260200182602001516fffffffffffffffffffffffffffffffff1681526020015091505061295156505b919050565b60096000506020528060005260406000206000915090505481565b60126000505481565b6000600b60005060008373ffffffffffffffffffffffffffffffffffffffff1673ffffffffffffffffffffffffffffffffffffffff16815260200190815260200160002060009054906101000a900461ffff16905060008161ffff16111515612a18576040517f08c379a0000000000000000000000000000000000000000000000000000000008152600401612a0f90615b09565b60405180910390fd5b8173ffffffffffffffffffffffffffffffffffffffff16635c19a95c306040518263ffffffff1660e01b8152600401612a519190615845565b600060405180830381600087803b158015612a6c5760006000fd5b505af1158015612a81573d600060003e3d6000fd5b50505050505b50565b6006600050602052816000526040600020600050602052806000526040600020600091509150508060000160009054906101000a90047effffffffffffffffffffffffffffffffffffffffffffffffffffffffffffff169080600001601f9054906101000a900460ff16905082565b7f000000000000000000000000000000000000000000000000000000000000000081565b600260006000505414151515612b9e576040517f08c379a000000000000000000000000000000000000000000000000000000000815260040180806020018281038252601f8152602001807f5265656e7472616e637947756172643a207265656e7472616e742063616c6c0081526020015060200191505060405180910390fd5b60026000600050819090905550612c0a600160009054906101000a900473ffffffffffffffffffffffffffffffffffffffff1673ffffffffffffffffffffffffffffffffffffffff163373ffffffffffffffffffffffffffffffffffffffff1614613c4763ffffffff16565b6000612c248260126000505461434590919063ffffffff16565b90506000612c9169021e19e0c9bab2400000612c79601160009054906101000a900467ffffffffffffffff166001612c60613bce63ffffffff16565b0167ffffffffffffffff1661499590919063ffffffff16565b67ffffffffffffffff16614a3290919063ffffffff16565b9050808211151515612cd8576040517f08c379a0000000000000000000000000000000000000000000000000000000008152600401612ccf90615cc2565b60405180910390fd5b816012600050819090905550600460009054906101000a900473ffffffffffffffffffffffffffffffffffffffff1673ffffffffffffffffffffffffffffffffffffffff1663449a52f885856040518363ffffffff1660e01b8152600401612d419291906158e0565b600060405180830381600087803b158015612d5c5760006000fd5b505af1158015612d71573d600060003e3d6000fd5b5050505050505b600160006000508190909055505b5050565b6000612d9b82614ad063ffffffff16565b9050612da2565b919050565b600460009054906101000a900473ffffffffffffffffffffffffffffffffffffffff1681565b600c60005060205280600052604060002060009150909054906101000a900473ffffffffffffffffffffffffffffffffffffffff1681565b600560009054906101000a900473ffffffffffffffffffffffffffffffffffffffff1681565b612e8a600360009054906101000a900473ffffffffffffffffffffffffffffffffffffffff1673ffffffffffffffffffffffffffffffffffffffff163373ffffffffffffffffffffffffffffffffffffffff1614613c4763ffffffff16565b60008473ffffffffffffffffffffffffffffffffffffffff16637e90f9ab6040518163ffffffff1660e01b815260040160206040518083038186803b158015612ed35760006000fd5b505afa158015612ee8573d600060003e3d6000fd5b505050506040513d601f19601f82011682018060405250810190612f0c9190615348565b9050600660005060008673ffffffffffffffffffffffffffffffffffffffff1673ffffffffffffffffffffffffffffffffffffffff1681526020019081526020016000206000506000858152602001908152602001600020600050600001601f9054906101000a900460ff1615156133005760008173ffffffffffffffffffffffffffffffffffffffff166370a08231306040518263ffffffff1660e01b8152600401612fb99190615845565b60206040518083038186803b158015612fd25760006000fd5b505afa158015612fe7573d600060003e3d6000fd5b505050506040513d601f19601f8201168201806040525081019061300b91906156ec565b90506000600167ffffffffffffffff811180156130285760006000fd5b506040519080825280602002602001820160405280156130575781602001602082028036833780820191505090505b5090508581600081518110151561306a57fe5b60200260200101909081815260200150508673ffffffffffffffffffffffffffffffffffffffff1663062f1466826040518263ffffffff1660e01b81526004016130b49190615948565b600060405180830381600087803b1580156130cf5760006000fd5b505af11580156130e4573d600060003e3d6000fd5b505050506000613187838573ffffffffffffffffffffffffffffffffffffffff166370a08231306040518263ffffffff1660e01b81526004016131279190615845565b60206040518083038186803b1580156131405760006000fd5b505afa158015613155573d600060003e3d6000fd5b505050506040513d601f19601f8201168201806040525081019061317991906156ec565b61401090919063ffffffff16565b905060405180604001604052806131a583614b55909063ffffffff16565b7affffffffffffffffffffffffffffffffffffffffffffffffffffff167effffffffffffffffffffffffffffffffffffffffffffffffffffffffffffff16815260200160011515815260200150600660005060008a73ffffffffffffffffffffffffffffffffffffffff1673ffffffffffffffffffffffffffffffffffffffff168152602001908152602001600020600050600089815260200190815260200160002060005060008201518160000160006101000a8154817effffffffffffffffffffffffffffffffffffffffffffffffffffffffffffff02191690837effffffffffffffffffffffffffffffffffffffffffffffffffffffffffffff160217905550602082015181600001601f6101000a81548160ff0219169083151502179055509050506132fc847f00000000000000000000000000000000000000000000000000000000000000008361409963ffffffff16565b5050505b7f000000000000000000000000000000000000000000000000000000000000000073ffffffffffffffffffffffffffffffffffffffff1663d1660f9982856133f986600660005060008c73ffffffffffffffffffffffffffffffffffffffff1673ffffffffffffffffffffffffffffffffffffffff16815260200190815260200160002060005060008b815260200190815260200160002060005060000160009054906101000a90047effffffffffffffffffffffffffffffffffffffffffffffffffffffffffffff167effffffffffffffffffffffffffffffffffffffffffffffffffffffffffffff16614bfa90919063ffffffff16565b6040518463ffffffff1660e01b8152600401613417939291906158a6565b600060405180830381600087803b1580156134325760006000fd5b505af1158015613447573d600060003e3d6000fd5b50505050505b50505050565b6134d2601060009054906101000a900473ffffffffffffffffffffffffffffffffffffffff1673ffffffffffffffffffffffffffffffffffffffff163373ffffffffffffffffffffffffffffffffffffffff161480156134c757506000600a60009054906101000a900461ffff1661ffff16115b613c4763ffffffff16565b601060006101000a81549073ffffffffffffffffffffffffffffffffffffffff02191690556135056138fc63ffffffff16565b613513613bce63ffffffff16565b601060146101000a81548167ffffffffffffffff021916908367ffffffffffffffff1602179055507fe0c110dd4938fc8e228e75a489735745046395ad536dd80c35559debe653714760405160405180910390a15b565b600160009054906101000a900473ffffffffffffffffffffffffffffffffffffffff1681565b7f000000000000000000000000000000000000000000000000000000000000000081565b7f000000000000000000000000000000000000000000000000000000000000000081565b600260009054906101000a900473ffffffffffffffffffffffffffffffffffffffff1681565b61363b3073ffffffffffffffffffffffffffffffffffffffff163373ffffffffffffffffffffffffffffffffffffffff1614613c4763ffffffff16565b61364a81614c2063ffffffff16565b5b5b50565b600f60009054906101000a900473ffffffffffffffffffffffffffffffffffffffff1681565b600760009054906101000a900467ffffffffffffffff1681565b61370e601060009054906101000a900473ffffffffffffffffffffffffffffffffffffffff1673ffffffffffffffffffffffffffffffffffffffff163373ffffffffffffffffffffffffffffffffffffffff1614801561370357506000600a60009054906101000a900461ffff1661ffff16145b613c4763ffffffff16565b61371d81614c2063ffffffff16565b5b50565b600060006000600360009054906101000a900473ffffffffffffffffffffffffffffffffffffffff1673ffffffffffffffffffffffffffffffffffffffff166383b0ce15856040518263ffffffff1660e01b81526004016137829190615e92565b60606040518083038186803b15801561379b5760006000fd5b505afa1580156137b0573d600060003e3d6000fd5b505050506040513d601f19601f820116820180604052508101906137d49190615497565b9250925092508273ffffffffffffffffffffffffffffffffffffffff166315373e3d83836040518363ffffffff1660e01b8152600401613815929190615ea4565b600060405180830381600087803b1580156138305760006000fd5b505af1158015613845573d600060003e3d6000fd5b505050505050505b50565b601160009054906101000a900467ffffffffffffffff1681565b600068010000000000000000821015156138ef576040517f08c379a00000000000000000000000000000000000000000000000000000000081526004018080602001828103825260118152602001807f6d6f7265207468616e203634206269747300000000000000000000000000000081526020015060200191505060405180910390fd5b8190506138f7565b919050565b600061390c613bce63ffffffff16565b9050600760009054906101000a900467ffffffffffffffff1667ffffffffffffffff168167ffffffffffffffff161115156139475750613bcc565b6000600760009054906101000a900467ffffffffffffffff16820390506000600a60009054906101000a900461ffff1661ffff1690506000816139aa8467ffffffffffffffff1661399c61176563ffffffff16565b614a3290919063ffffffff16565b8115156139b357fe5b0490506139be61523f565b6000600190505b838161ffff16111515613b5a576139e18161283563ffffffff16565b915081506040518060400160405280613a54613a47613a348967ffffffffffffffff16600960005060008861ffff1661ffff16815260200190815260200160002060005054614a3290919063ffffffff16565b866000015161434590919063ffffffff16565b614d9f909063ffffffff16565b6fffffffffffffffffffffffffffffffff168152602001613a92613a8586866020015161434590919063ffffffff16565b614d9f909063ffffffff16565b6fffffffffffffffffffffffffffffffff16815260200150600860005060008361ffff1661ffff16815260200190815260200160002060005060008201518160000160006101000a8154816fffffffffffffffffffffffffffffffff02191690836fffffffffffffffffffffffffffffffff16021790555060208201518160000160106101000a8154816fffffffffffffffffffffffffffffffff02191690836fffffffffffffffffffffffffffffffff1602179055509050505b80806001019150506139c5565b5084600760006101000a81548167ffffffffffffffff021916908367ffffffffffffffff1602179055508467ffffffffffffffff167f5df8d820031efa286b254435a169e0eda922fa20c466be6471c6deaa51dc116585604051613bbe9190615edb565b60405180910390a250505050505b565b60007f00000000000000000000000000000000000000000000000000000000000000007f000000000000000000000000000000000000000000000000000000000000000067ffffffffffffffff16613c2a614e3963ffffffff16565b67ffffffffffffffff16811515613c3d57fe5b0403905080505b90565b801515613c89576040517f08c379a0000000000000000000000000000000000000000000000000000000008152600401613c8090615b87565b60405180910390fd5b5b50565b6001600e6000506000837bffffffffffffffffffffffffffffffffffffffffffffffffffffffff19167bffffffffffffffffffffffffffffffffffffffffffffffffffffffff1916815260200190815260200160002060006101000a81548160ff0219169083151502179055505b50565b60006000823b905060008111915050613d1356505b919050565b613d206151dd565b613d2f8261148963ffffffff16565b90508050613d416138fc63ffffffff16565b600760009054906101000a900467ffffffffffffffff1667ffffffffffffffff16816060015167ffffffffffffffff16101515613d8057809050613fdc565b6000613d958260c0015161283563ffffffff16565b905060008260600151600760009054906101000a900467ffffffffffffffff160367ffffffffffffffff16613ddb8460400151846000015161401090919063ffffffff16565b811515613de457fe5b0490506000613e2f613e078560200151856020015161401090919063ffffffff16565b83613e2087600001518860a00151613fe163ffffffff16565b614e549092919063ffffffff16565b90506000811115613f7857600460009054906101000a900473ffffffffffffffffffffffffffffffffffffffff1673ffffffffffffffffffffffffffffffffffffffff1663449a52f8600560009054906101000a900473ffffffffffffffffffffffffffffffffffffffff1673ffffffffffffffffffffffffffffffffffffffff16636352211e886040518263ffffffff1660e01b8152600401613ed39190615ebf565b60206040518083038186803b158015613eec5760006000fd5b505afa158015613f01573d600060003e3d6000fd5b505050506040513d601f19601f82011682018060405250810190613f259190615348565b836040518363ffffffff1660e01b8152600401613f439291906158e0565b600060405180830381600087803b158015613f5e5760006000fd5b505af1158015613f73573d600060003e3d6000fd5b505050505b8260200151846020019090818152602001505082600001518460400190908181526020015050613fac613bce63ffffffff16565b846060019067ffffffffffffffff16908167ffffffffffffffff1681526020015050839350505050613fdc565050505b919050565b60006140038267ffffffffffffffff16600c85614e549092919063ffffffff16565b905061400a565b92915050565b60008282840391508111151515614092576040517f08c379a000000000000000000000000000000000000000000000000000000000815260040180806020018281038252600d8152602001807f7375622d756e646572666c6f770000000000000000000000000000000000000081526020015060200191505060405180910390fd5b5b92915050565b600060008473ffffffffffffffffffffffffffffffffffffffff1663a9059cbb60e01b8585604051602401808373ffffffffffffffffffffffffffffffffffffffff16815260200182815260200192505050604051602081830303815290604052907bffffffffffffffffffffffffffffffffffffffffffffffffffffffff19166020820180517bffffffffffffffffffffffffffffffffffffffffffffffffffffffff83818316178352505050506040518082805190602001908083835b60208310151561417e57805182525b602082019150602081019050602083039250614158565b6001836020036101000a0380198251168184511680821785525050505050509050019150506000604051808303816000865af19150503d80600081146141e0576040519150601f19603f3d011682016040523d82523d6000602084013e6141e5565b606091505b5091509150818015614226575060008151148061422557508080602001905160208110156142135760006000fd5b81019080805190602001909291905050505b5b151561429d576040517f08c379a00000000000000000000000000000000000000000000000000000000081526004018080602001828103825260028152602001807f535400000000000000000000000000000000000000000000000000000000000081526020015060200191505060405180910390fd5b50505b505050565b8060ff16600667ffffffffffffffff16111580156142d15750603067ffffffffffffffff168160ff1611155b801561430057506000600367ffffffffffffffff168260ff168115156142f357fe5b0667ffffffffffffffff16145b1515614341576040517f08c379a000000000000000000000000000000000000000000000000000000000815260040161433890615aca565b60405180910390fd5b5b50565b600082828401915081101515156143c7576040517f08c379a000000000000000000000000000000000000000000000000000000000815260040180806020018281038252600c8152602001807f6164642d6f766572666c6f77000000000000000000000000000000000000000081526020015060200191505060405180910390fd5b5b92915050565b6000600c6143f161016d8467ffffffffffffffff16614f5590919063ffffffff16565b67ffffffffffffffff1681151561440457fe5b04905061440c565b919050565b60008267ffffffffffffffff1682840191508167ffffffffffffffff16101515156144a7576040517f08c379a000000000000000000000000000000000000000000000000000000000815260040180806020018281038252600c8152602001807f6164642d6f766572666c6f77000000000000000000000000000000000000000081526020015060200191505060405180910390fd5b5b92915050565b6040518060e001604052806144ce8360000151614d9f909063ffffffff16565b6fffffffffffffffffffffffffffffffff1681526020016144fa8360200151614d9f909063ffffffff16565b6fffffffffffffffffffffffffffffffff1681526020016145268360400151615025909063ffffffff16565b76ffffffffffffffffffffffffffffffffffffffffffffff168152602001614563836060015167ffffffffffffffff166150c6909063ffffffff16565b61ffff16815260200161458b836080015167ffffffffffffffff166150c6909063ffffffff16565b61ffff1681526020018260c0015161ffff1681526020016145c18360a0015167ffffffffffffffff16615152909063ffffffff16565b60ff16815260200150600d60005060008467ffffffffffffffff1667ffffffffffffffff16815260200190815260200160002060005060008201518160000160006101000a8154816fffffffffffffffffffffffffffffffff02191690836fffffffffffffffffffffffffffffffff16021790555060208201518160000160106101000a8154816fffffffffffffffffffffffffffffffff02191690836fffffffffffffffffffffffffffffffff16021790555060408201518160010160006101000a81548176ffffffffffffffffffffffffffffffffffffffffffffff021916908376ffffffffffffffffffffffffffffffffffffffffffffff16021790555060608201518160010160176101000a81548161ffff021916908361ffff16021790555060808201518160010160196101000a81548161ffff021916908361ffff16021790555060a082015181600101601b6101000a81548161ffff021916908361ffff16021790555060c082015181600101601d6101000a81548160ff021916908360ff1602179055509050505b5050565b600060008573ffffffffffffffffffffffffffffffffffffffff166323b872dd60e01b868686604051602401808473ffffffffffffffffffffffffffffffffffffffff1681526020018373ffffffffffffffffffffffffffffffffffffffff1681526020018281526020019350505050604051602081830303815290604052907bffffffffffffffffffffffffffffffffffffffffffffffffffffffff19166020820180517bffffffffffffffffffffffffffffffffffffffffffffffffffffffff83818316178352505050506040518082805190602001908083835b60208310151561485757805182525b602082019150602081019050602083039250614831565b6001836020036101000a0380198251168184511680821785525050505050509050019150506000604051808303816000865af19150503d80600081146148b9576040519150601f19603f3d011682016040523d82523d6000602084013e6148be565b606091505b50915091508180156148ff57506000815114806148fe57508080602001905160208110156148ec5760006000fd5b81019080805190602001909291905050505b5b1515614976576040517f08c379a00000000000000000000000000000000000000000000000000000000081526004018080602001828103825260038152602001807f535446000000000000000000000000000000000000000000000000000000000081526020015060200191505060405180910390fd5b50505b50505050565b600081805190602001209050614990565b919050565b60008267ffffffffffffffff1682840391508167ffffffffffffffff1611151515614a2b576040517f08c379a000000000000000000000000000000000000000000000000000000000815260040180806020018281038252600d8152602001807f7375622d756e646572666c6f770000000000000000000000000000000000000081526020015060200191505060405180910390fd5b5b92915050565b60006000821480614a5257508282838502925082811515614a4f57fe5b04145b1515614ac9576040517f08c379a000000000000000000000000000000000000000000000000000000000815260040180806020018281038252600c8152602001807f6d756c2d6f766572666c6f77000000000000000000000000000000000000000081526020015060200191505060405180910390fd5b5b92915050565b6000614b4b614b12837f000000000000000000000000000000000000000000000000000000000000000067ffffffffffffffff1661441190919063ffffffff16565b7f000000000000000000000000000000000000000000000000000000000000000067ffffffffffffffff16614f5590919063ffffffff16565b905080505b919050565b60007b0100000000000000000000000000000000000000000000000000000082101515614bed576040517f08c379a00000000000000000000000000000000000000000000000000000000081526004018080602001828103825260128152602001807f6d6f7265207468616e203231362062697473000000000000000000000000000081526020015060200191505060405180910390fd5b819050614bf5565b919050565b6000614c158383670de0b6b3a7640000614e5463ffffffff16565b905080505b92915050565b61ffff61ffff16600a60009054906101000a900461ffff1661ffff16101515614c495760006000fd5b600a600081819054906101000a900461ffff168092919060010191906101000a81548161ffff021916908361ffff1602179055505080600c6000506000600a60009054906101000a900461ffff1661ffff1661ffff16815260200190815260200160002060006101000a81548173ffffffffffffffffffffffffffffffffffffffff021916908373ffffffffffffffffffffffffffffffffffffffff160217905550600a60009054906101000a900461ffff16600b60005060008373ffffffffffffffffffffffffffffffffffffffff1673ffffffffffffffffffffffffffffffffffffffff16815260200190815260200160002060006101000a81548161ffff021916908361ffff1602179055508073ffffffffffffffffffffffffffffffffffffffff167f784c8f4dbf0ffedd6e72c76501c545a70f8b203b30a26ce542bf92ba87c248a460405160405180910390a25b50565b600070010000000000000000000000000000000082101515614e2c576040517f08c379a00000000000000000000000000000000000000000000000000000000081526004018080602001828103825260128152602001807f6d6f7265207468616e203132382062697473000000000000000000000000000081526020015060200191505060405180910390fd5b819050614e34565b919050565b6000614e4c4261386a909063ffffffff16565b905080505b90565b6000600060006000198587098587029250828110838203039150506000811415614e9757600084111515614e885760006000fd5b83820492508292505050614f4e565b8084111515614ea65760006000fd5b6000848688099050828111820391508083039250600085866000031690508086049550808404935060018182600003040190508083028417935083506000600287600302189050808702600203810290508050808702600203810290508050808702600203810290508050808702600203810290508050808702600203810290508050808702600203810290508050808502955085508595505050505050614f4e5650505050505b9392505050565b600060008267ffffffffffffffff161480614fa757508267ffffffffffffffff168267ffffffffffffffff1683850292508267ffffffffffffffff16811515614f9a57fe5b0467ffffffffffffffff16145b151561501e576040517f08c379a000000000000000000000000000000000000000000000000000000000815260040180806020018281038252600c8152602001807f6d756c2d6f766572666c6f77000000000000000000000000000000000000000081526020015060200191505060405180910390fd5b5b92915050565b600077010000000000000000000000000000000000000000000000821015156150b9576040517f08c379a00000000000000000000000000000000000000000000000000000000081526004018080602001828103825260128152602001807f6d6f7265207468616e203138342062697473000000000000000000000000000081526020015060200191505060405180910390fd5b8190506150c1565b919050565b60006201000082101515615145576040517f08c379a00000000000000000000000000000000000000000000000000000000081526004018080602001828103825260118152602001807f6d6f7265207468616e203136206269747300000000000000000000000000000081526020015060200191505060405180910390fd5b81905061514d565b919050565b6000610100821015156151d0576040517f08c379a00000000000000000000000000000000000000000000000000000000081526004018080602001828103825260108152602001807f6d6f7265207468616e203820626974730000000000000000000000000000000081526020015060200191505060405180910390fd5b8190506151d8565b919050565b6040518060e00160405280600081526020016000815260200160008152602001600067ffffffffffffffff168152602001600067ffffffffffffffff168152602001600067ffffffffffffffff168152602001600061ffff1681526020015090565b60405180604001604052806000815260200160008152602001509056615f72565b600067ffffffffffffffff8084111561527557fe5b60405160207fffffffffffffffffffffffffffffffffffffffffffffffffffffffffffffffe0601f87011682010181811083821117156152b157fe5b80604052508092508481528585850111156152cc5760006000fd5b8484602083013760006020868301015250505b9392505050565b600081519050801515811415156152fd5760006000fd5b5b919050565b60008135905060ff81168114151561531b5760006000fd5b5b919050565b600060208284031215615332578081fd5b813561533d81615f2c565b809150505b92915050565b600060208284031215615359578081fd5b815161536481615f2c565b809150505b92915050565b60006000600060608486031215615384578182fd5b833561538f81615f2c565b80935050602084013567ffffffffffffffff808211156153ad578384fd5b818601915086601f83011215156153c2578384fd5b6153d187833560208501615260565b935060408601359150808211156153e6578283fd5b50808501905085601f82011215156153fc578182fd5b61540b86823560208401615260565b9150505b9250925092565b6000600060408385031215615429578182fd5b823561543481615f2c565b80925050602083013590505b9250929050565b60006000600060006080858703121561545e578081fd5b843561546981615f2c565b8094505060208501359250604085013561548281615f2c565b80925050606085013590505b92959194509250565b600060006000606084860312156154ac578283fd5b83516154b781615f2c565b80935050602084015191506154ce604085016152e6565b90505b9250925092565b60006000602083850312156154eb578182fd5b823567ffffffffffffffff80821115615502578384fd5b818501915085601f8301121515615517578384fd5b813581811115615525578485fd5b866020602083028501011115615539578485fd5b6020830194508093505050505b9250929050565b60006020828403121561555e578081fd5b615567826152e6565b90505b92915050565b600060208284031215615581578081fd5b81357fffffffff000000000000000000000000000000000000000000000000000000008116811415156155b2578182fd5b809150505b92915050565b6000602082840312156155ce578081fd5b81356155d981615f2c565b809150505b92915050565b6000600060006000608085870312156155fb578182fd5b843561560681615f2c565b809450506020850135925061561d60408601615303565b9150606085013561562d81615f2c565b809150505b92959194509250565b600060006000600060808587031215615652578182fd5b843561565d81615f2c565b80945050602085013561566f81615f2c565b80935050604085013561568181615f2c565b80925050606085013561569381615f2c565b809150505b92959194509250565b6000602082840312156156b2578081fd5b813561ffff8116811415156156c5578182fd5b809150505b92915050565b6000602082840312156156e1578081fd5b813590505b92915050565b6000602082840312156156fd578081fd5b815190505b92915050565b600060208284031215615719578081fd5b813561572481615f55565b809150505b92915050565b600060208284031215615740578081fd5b815161574b81615f55565b809150505b92915050565b6000600060408385031215615769578182fd5b823561577481615f55565b8092505061578460208401615303565b90505b9250929050565b600081518084526157a6816020860160208601615ef7565b60207fffffffffffffffffffffffffffffffffffffffffffffffffffffffffffffffe0601f8301168501019150505b92915050565b60007fffffffff00000000000000000000000000000000000000000000000000000000841682528251615815816004850160208701615ef7565b6004818401019150505b9392505050565b60008251615838818460208701615ef7565b8083019150505b92915050565b600060208201905073ffffffffffffffffffffffffffffffffffffffff831682525b92915050565b600060408201905073ffffffffffffffffffffffffffffffffffffffff8416825267ffffffffffffffff831660208301525b9392505050565b600060608201905073ffffffffffffffffffffffffffffffffffffffff80861683528085166020840152508260408301525b949350505050565b600060408201905073ffffffffffffffffffffffffffffffffffffffff841682528260208301525b9392505050565b600060408201905073ffffffffffffffffffffffffffffffffffffffff8416825267ffffffffffffffff831660208301525b9392505050565b600060208083018184528085518083526040860191508387019250845b818110156159875783518352848301925084840193505b600181019050615965565b50508093505050505b92915050565b600060208201905082151582525b92915050565b60008315158252604060208301526159c5604083018461578e565b90505b9392505050565b600060208201905073ffffffffffffffffffffffffffffffffffffffff831682525b92915050565b600060208201905073ffffffffffffffffffffffffffffffffffffffff831682525b92915050565b600060208201905073ffffffffffffffffffffffffffffffffffffffff831682525b92915050565b600060208201905073ffffffffffffffffffffffffffffffffffffffff831682525b92915050565b600060208252615a82602083018461578e565b90505b92915050565b600060208252601060208301527f496e76616c696420706f736974696f6e0000000000000000000000000000000060408301526060820190505b919050565b600060208252601560208301527f496e76616c6964206c6f636b206475726174696f6e000000000000000000000060408301526060820190505b919050565b600060208252601160208301527f556e737570706f7274656420746f6b656e00000000000000000000000000000060408301526060820190505b919050565b600060208252601b60208301527f4d75737420696e637265617365206c6f636b206475726174696f6e000000000060408301526060820190505b919050565b600060208252600e60208301527f4e6f7420417574686f72697a656400000000000000000000000000000000000060408301526060820190505b919050565b600060208252600460208301527f4e6f6f700000000000000000000000000000000000000000000000000000000060408301526060820190505b919050565b600060208252601260208301527f416374696f6e20626c61636b6c6973746564000000000000000000000000000060408301526060820190505b919050565b600060208252600c60208301527f5374696c6c206c6f636b6564000000000000000000000000000000000000000060408301526060820190505b919050565b600060208252600c60208301527f506f736974696f6e20444e45000000000000000000000000000000000000000060408301526060820190505b919050565b600060208252601260208301527f416c6c6f746d656e74206578636565646564000000000000000000000000000060408301526060820190505b919050565b600060208252600e60208301527f4e6f74206120636f6e747261637400000000000000000000000000000000000060408301526060820190505b919050565b600060208252601460208301527f436f6e747261637420616c72656164792073657400000000000000000000000060408301526060820190505b919050565b600060208252601660208301527f4d6f7265207468616e203225206f6620737570706c790000000000000000000060408301526060820190505b919050565b600060e082019050825182526020830151602083015260408301516040830152606083015167ffffffffffffffff80821660608501528060808601511660808501528060a08601511660a0850152505061ffff60c08401511660c08301525b92915050565b600060408201905082518252602083015160208301525b92915050565b600060208201905061ffff831682525b92915050565b60006040820190507effffffffffffffffffffffffffffffffffffffffffffffffffffffffffffff8416825282151560208301525b9392505050565b60006020820190508282525b92915050565b600060408201905083825282151560208301525b9392505050565b600060208201905067ffffffffffffffff831682525b92915050565b600060208201905067ffffffffffffffff831682525b92915050565b60005b83811015615f165780820151818401525b602081019050615efa565b83811115615f25576000848401525b505b505050565b73ffffffffffffffffffffffffffffffffffffffff811681141515615f515760006000fd5b5b50565b67ffffffffffffffff811681141515615f6e5760006000fd5b5b50565bfea2646970667358221220ca7bba3181fb55482b9e334c990683ce50e6c3fa32a2f9ed4567fd649c3b963d64736f6c6343000706003360a06040523480156100115760006000fd5b505b3373ffffffffffffffffffffffffffffffffffffffff1660808173ffffffffffffffffffffffffffffffffffffffff1660601b815260140150505b610053565b60805160601c6104356100746000398060e652806101d152506104356000f3fe60806040523480156100115760006000fd5b506004361061003b5760003560e01c8063d1660f9914610041578063de9375f2146100b05761003b565b60006000fd5b6100ae600480360360608110156100585760006000fd5b81019080803573ffffffffffffffffffffffffffffffffffffffff169060200190929190803573ffffffffffffffffffffffffffffffffffffffff169060200190929190803590602001909291905050506100e4565b005b6100b86101cf565b604051808273ffffffffffffffffffffffffffffffffffffffff16815260200191505060405180910390f35b7f000000000000000000000000000000000000000000000000000000000000000073ffffffffffffffffffffffffffffffffffffffff163373ffffffffffffffffffffffffffffffffffffffff161415156101aa576040517f08c379a000000000000000000000000000000000000000000000000000000000815260040180806020018281038252600e8152602001807f4e6f7420417574686f72697a656400000000000000000000000000000000000081526020015060200191505060405180910390fd5b60008114156101b8576101ca565b6101c98383836101f363ffffffff16565b5b505050565b7f000000000000000000000000000000000000000000000000000000000000000081565b600060008473ffffffffffffffffffffffffffffffffffffffff1663a9059cbb60e01b8585604051602401808373ffffffffffffffffffffffffffffffffffffffff16815260200182815260200192505050604051602081830303815290604052907bffffffffffffffffffffffffffffffffffffffffffffffffffffffff19166020820180517bffffffffffffffffffffffffffffffffffffffffffffffffffffffff83818316178352505050506040518082805190602001908083835b6020831015156102d857805182525b6020820191506020810190506020830392506102b2565b6001836020036101000a0380198251168184511680821785525050505050509050019150506000604051808303816000865af19150503d806000811461033a576040519150601f19603f3d011682016040523d82523d6000602084013e61033f565b606091505b5091509150818015610380575060008151148061037f575080806020019051602081101561036d5760006000fd5b81019080805190602001909291905050505b5b15156103f7576040517f08c379a00000000000000000000000000000000000000000000000000000000081526004018080602001828103825260028152602001807f535400000000000000000000000000000000000000000000000000000000000081526020015060200191505060405180910390fd5b50505b50505056fea2646970667358221220a09fa674e24bee1d9e1df7bc0570046e4c432e836610f7a105a97cba2ac2d0cf64736f6c63430007060033",
  "linkReferences": {},
  "deployedLinkReferences": {}
}