{
  "_format": "hh-sol-artifact-1",
  "contractName": "TickOverflowSafetyEchidnaTest",
  "sourceName": "contracts/uniswap-v3-core/test/TickOverflowSafetyEchidnaTest.sol",
  "abi": [
    {
      "inputs": [
        {
          "internalType": "uint256",
          "name": "amount",
          "type": "uint256"
        }
      ],
      "name": "increaseFeeGrowthGlobal0X128",
      "outputs": [],
      "stateMutability": "nonpayable",
      "type": "function"
    },
    {
      "inputs": [
        {
          "internalType": "uint256",
          "name": "amount",
          "type": "uint256"
        }
      ],
      "name": "increaseFeeGrowthGlobal1X128",
      "outputs": [],
      "stateMutability": "nonpayable",
      "type": "function"
    },
    {
      "inputs": [
        {
          "internalType": "int24",
          "name": "target",
          "type": "int24"
        }
      ],
      "name": "moveToTick",
      "outputs": [],
      "stateMutability": "nonpayable",
      "type": "function"
    },
    {
      "inputs": [
        {
          "internalType": "int24",
          "name": "tickLower",
          "type": "int24"
        },
        {
          "internalType": "int24",
          "name": "tickUpper",
          "type": "int24"
        },
        {
          "internalType": "int128",
          "name": "liquidityDelta",
          "type": "int128"
        }
      ],
      "name": "setPosition",
      "outputs": [],
      "stateMutability": "nonpayable",
      "type": "function"
    }
  ],
  "bytecode": "0x60806040526000600160006101000a81548162ffffff021916908360020b62ffffff1602179055506000600260005090905560027fffffffffffffffffffffffffffffffffffffffffffffffffffffffffffffffff61005e91906100c6565b600360005090905560027fffffffffffffffffffffffffffffffffffffffffffffffffffffffffffffffff61009391906100c6565b600460005090905560006005600050909055600060066000509090553480156100bc5760006000fd5b506100f2566100f1565b60008215156100e557634e487b7160e01b600052601260045260246000fd5b82820490505b92915050565b5b6114a4806101016000396000f3fe60806040523480156100115760006000fd5b50600436106100515760003560e01c80630b0c061f146100575780633f03e19414610073578063541bdfb11461008f578063af759368146100ab57610051565b60006000fd5b610071600480360381019061006c9190610e7a565b6100c7565b005b61008d60048036038101906100889190610e7a565b610129565b005b6100a960048036038101906100a49190610eb6565b61018b565b005b6100c560048036038101906100c09190610f09565b61050b565b005b600560005054816005600050546100de9190610f5f565b1115156100eb5760006000fd5b806003600082828250546100ff9190610f5f565b9250508190909055508060056000828282505461011c9190610f5f565b9250508190909055505b50565b600660005054816006600050546101409190610f5f565b11151561014d5760006000fd5b806004600082828250546101619190610f5f565b9250508190909055508060066000828282505461017e9190610f5f565b9250508190909055505b50565b7ffffffffffffffffffffffffffffffffffffffffffffffffffffffffffffffff060020b8360020b1315156101c05760006000fd5b601060020b8260020b1215156101d65760006000fd5b8160020b8360020b1215156101eb5760006000fd5b600061024e84600160009054906101000a900460020b846003600050546004600050546000600042600060206fffffffffffffffffffffffffffffffff6102329190610f7f565b6000600050610783909a9998979695949392919063ffffffff16565b905060006102b384600160009054906101000a900460020b856003600050546004600050546000600042600160206fffffffffffffffffffffffffffffffff6102979190610f7f565b6000600050610783909a9998979695949392919063ffffffff16565b905081156103ab57600083600f0b1215610346576000600060005060008760020b60020b815260200190815260200160002060005060000160009054906101000a90046fffffffffffffffffffffffffffffffff166fffffffffffffffffffffffffffffffff1614151561032a57610329610fdb565b5b610341856000600050610a7d90919063ffffffff16565b6103aa565b6000600060005060008760020b60020b815260200190815260200160002060005060000160009054906101000a90046fffffffffffffffffffffffffffffffff166fffffffffffffffffffffffffffffffff161115156103a9576103a8610fdb565b5b5b5b80156104a157600083600f0b121561043c576000600060005060008660020b60020b815260200190815260200160002060005060000160009054906101000a90046fffffffffffffffffffffffffffffffff166fffffffffffffffffffffffffffffffff161415156104205761041f610fdb565b5b610437846000600050610a7d90919063ffffffff16565b6104a0565b6000600060005060008660020b60020b815260200190815260200160002060005060000160009054906101000a90046fffffffffffffffffffffffffffffffff166fffffffffffffffffffffffffffffffff1611151561049f5761049e610fdb565b5b5b5b82600f0b6002600082828250546104b8919061100c565b9250508190909055506000600260005054121515156104da576104d9610fdb565b5b600060026000505414156105035760006005600050819090905550600060066000508190909055505b50505b505050565b7ffffffffffffffffffffffffffffffffffffffffffffffffffffffffffffffff060020b8160020b1315156105405760006000fd5b601060020b8160020b1215156105565760006000fd5b5b8060020b600160009054906101000a900460020b60020b14151561077f578060020b600160009054906101000a900460020b60020b1215610694576000600060005060006001600160009054906101000a900460020b6105b7919061108a565b60020b60020b815260200190815260200160002060005060000160009054906101000a90046fffffffffffffffffffffffffffffffff166fffffffffffffffffffffffffffffffff1611156106505761064e6001600160009054906101000a900460020b610625919061108a565b60036000505460046000505460006000426000600050610b66909695949392919063ffffffff16565b505b6001600081819054906101000a900460020b8092919061066f906110f5565b91906101000a81548162ffffff021916908360020b62ffffff1602179055505061077a565b600060006000506000600160009054906101000a900460020b60020b60020b815260200190815260200160002060005060000160009054906101000a90046fffffffffffffffffffffffffffffffff166fffffffffffffffffffffffffffffffff16111561073a57610738600160009054906101000a900460020b60036000505460046000505460006000426000600050610b66909695949392919063ffffffff16565b505b6001600081819054906101000a900460020b809291906107599061111c565b91906101000a81548162ffffff021916908360020b62ffffff160217905550505b610557565b5b50565b600060008c60008d60020b60020b8152602001908152602001600020600050905060008160000160009054906101000a90046fffffffffffffffffffffffffffffffff16905060006107db828d610ce663ffffffff16565b9050846fffffffffffffffffffffffffffffffff16816fffffffffffffffffffffffffffffffff1611151515610846576040517f08c379a000000000000000000000000000000000000000000000000000000000815260040161083d9061117f565b60405180910390fd5b6000826fffffffffffffffffffffffffffffffff161415156000826fffffffffffffffffffffffffffffffff161415151415935083506000826fffffffffffffffffffffffffffffffff161415610973578c60020b8e60020b131515610955578a836001016000508190909055508983600201600050819090905550888360030160076101000a81548173ffffffffffffffffffffffffffffffffffffffff021916908373ffffffffffffffffffffffffffffffffffffffff160217905550878360030160006101000a81548166ffffffffffffff021916908360060b66ffffffffffffff1602179055508683600301601b6101000a81548163ffffffff021916908363ffffffff1602179055505b600183600301601f6101000a81548160ff0219169083151502179055505b808360000160006101000a8154816fffffffffffffffffffffffffffffffff02191690836fffffffffffffffffffffffffffffffff160217905550856109f2576109ed6109e08d600f0b8560000160109054906101000a9004600f0b600f0b610df790919063ffffffff16565b610e28909063ffffffff16565b610a2d565b610a2c610a1f8d600f0b8560000160109054906101000a9004600f0b600f0b610e4590919063ffffffff16565b610e28909063ffffffff16565b5b8360000160106101000a8154816fffffffffffffffffffffffffffffffff0219169083600f0b6fffffffffffffffffffffffffffffffff1602179055505050505b9b9a5050505050505050505050565b8160008260020b60020b815260200190815260200160002060006000820160006101000a8154906fffffffffffffffffffffffffffffffff02191690556000820160106101000a8154906fffffffffffffffffffffffffffffffff0219169055600182016000506000905560028201600050600090556003820160006101000a81549066ffffffffffffff02191690556003820160076101000a81549073ffffffffffffffffffffffffffffffffffffffff021916905560038201601b6101000a81549063ffffffff021916905560038201601f6101000a81549060ff021916905550505b5050565b600060008860008960020b60020b81526020019081526020016000206000509050806001016000505487610b9a91906111be565b81600101600050819090905550806002016000505486610bba91906111be565b816002016000508190909055508060030160079054906101000a900473ffffffffffffffffffffffffffffffffffffffff1685610bf791906111dd565b8160030160076101000a81548173ffffffffffffffffffffffffffffffffffffffff021916908373ffffffffffffffffffffffffffffffffffffffff1602179055508060030160009054906101000a900460060b84610c56919061121b565b8160030160006101000a81548166ffffffffffffff021916908360060b66ffffffffffffff16021790555080600301601b9054906101000a900463ffffffff1683610ca1919061128a565b81600301601b6101000a81548163ffffffff021916908363ffffffff1602179055508060000160109054906101000a9004600f0b91508150505b979650505050505050565b6000600082600f0b1215610d7857826fffffffffffffffffffffffffffffffff1682610d11906112b8565b84610d1c91906112fc565b9150816fffffffffffffffffffffffffffffffff16101515610d73576040517f08c379a0000000000000000000000000000000000000000000000000000000008152600401610d6a90611336565b60405180910390fd5b610df0565b826fffffffffffffffffffffffffffffffff168284610d979190611375565b9150816fffffffffffffffffffffffffffffffff1610151515610def576040517f08c379a0000000000000000000000000000000000000000000000000000000008152600401610de6906113b0565b60405180910390fd5b5b5b92915050565b600060008212151515838385610e0d919061100c565b92508212151515141515610e215760006000fd5b5b92915050565b60008182915081600f0b141515610e3f5760006000fd5b5b919050565b600060008212151515838385610e5b91906113ef565b92508213151515141515610e6f5760006000fd5b5b929150505661146d565b600060208284031215610e8d5760006000fd5b813590505b92915050565b6000813590508060020b81141515610eb05760006000fd5b5b919050565b60006000600060608486031215610ecd5760006000fd5b610ed684610e98565b9250610ee460208501610e98565b9150604084013580600f0b81141515610efd5760006000fd5b809150505b9250925092565b600060208284031215610f1c5760006000fd5b610f2582610e98565b90505b92915050565b7f4e487b7100000000000000000000000000000000000000000000000000000000600052601160045260246000fd5b565b60008219821115610f7357610f72610f2e565b5b82820190505b92915050565b60006fffffffffffffffffffffffffffffffff808416801515610fcb577f4e487b7100000000000000000000000000000000000000000000000000000000600052601260045260246000fd5b8082851604925050505b92915050565b7f4e487b7100000000000000000000000000000000000000000000000000000000600052600160045260246000fd5b565b600060008212827f7fffffffffffffffffffffffffffffffffffffffffffffffffffffffffffffff0384138115161561104857611047610f2e565b5b827f800000000000000000000000000000000000000000000000000000000000000003841281161561107d5761107c610f2e565b5b5082820190505b92915050565b60008160020b8360020b6000821282627fffff038213811516156110b1576110b0610f2e565b5b827fffffffffffffffffffffffffffffffffffffffffffffffffffffffffff8000000382128116156110e6576110e5610f2e565b5b50808201925050505b92915050565b60008160020b627fffff81141561110f5761110e610f2e565b5b600181019150505b919050565b60008160020b7fffffffffffffffffffffffffffffffffffffffffffffffffffffffffff80000081141561115357611152610f2e565b5b7fffffffffffffffffffffffffffffffffffffffffffffffffffffffffffffffff81019150505b919050565b60208152600260208201527f4c4f000000000000000000000000000000000000000000000000000000000000604082015260006060820190505b919050565b6000828210156111d1576111d0610f2e565b5b82820390505b92915050565b600073ffffffffffffffffffffffffffffffffffffffff80831681851691508181101561120d5761120c610f2e565b5b818103925050505b92915050565b60008160060b8360060b60008112817fffffffffffffffffffffffffffffffffffffffffffffffffff800000000000000183128115161561125f5761125e610f2e565b5b81667fffffffffffff01831381161561127b5761127a610f2e565b5b50808203925050505b92915050565b600063ffffffff8083168185169150818110156112aa576112a9610f2e565b5b818103925050505b92915050565b600081600f0b7fffffffffffffffffffffffffffffffff800000000000000000000000000000008114156112ef576112ee610f2e565b5b806000039150505b919050565b60006fffffffffffffffffffffffffffffffff80831681851691508181101561132857611327610f2e565b5b818103925050505b92915050565b60208152600260208201527f4c53000000000000000000000000000000000000000000000000000000000000604082015260006060820190505b919050565b60006fffffffffffffffffffffffffffffffff8083168185168083038211156113a1576113a0610f2e565b5b80820193505050505b92915050565b60208152600260208201527f4c41000000000000000000000000000000000000000000000000000000000000604082015260006060820190505b919050565b600060008312837f80000000000000000000000000000000000000000000000000000000000000000183128115161561142b5761142a610f2e565b5b837f7fffffffffffffffffffffffffffffffffffffffffffffffffffffffffffffff0183138116156114605761145f610f2e565b5b5082820390505b92915050565bfea2646970667358221220d690ca449b1ef389e8d8173e3b9b5bb623bc19b242ba1e28c4953d00e0acdc1f64736f6c634300080c0033",
  "linkReferences": {},
  "deployedLinkReferences": {}
}