{
  "_format": "hh-sol-artifact-1",
  "contractName": "AccountingTestable",
  "sourceName": "contracts/mocks/AccountingTestable.sol",
  "abi": [
    {
      "inputs": [
        {
          "components": [
            {
              "internalType": "contract IGovernor",
              "name": "Governor",
              "type": "address"
            },
            {
              "internalType": "contract IHue",
              "name": "Hue",
              "type": "address"
            },
            {
              "internalType": "contract INonfungiblePositionManager",
              "name": "NftPositionManager",
              "type": "address"
            }
          ],
          "internalType": "struct IAccounting.ConstructorParams",
          "name": "params",
          "type": "tuple"
        }
      ],
      "stateMutability": "nonpayable",
      "type": "constructor"
    },
    {
      "anonymous": false,
      "inputs": [],
      "name": "DebtPositionIndexingDisabled",
      "type": "event"
    },
    {
      "anonymous": false,
      "inputs": [],
      "name": "PoolPositionIndexingDisabled",
      "type": "event"
    },
    {
      "anonymous": false,
      "inputs": [],
      "name": "Stopped",
      "type": "event"
    },
    {
      "anonymous": false,
      "inputs": [
        {
          "indexed": true,
          "internalType": "uint32",
          "name": "interfaceID",
          "type": "uint32"
        },
        {
          "indexed": true,
          "internalType": "address",
          "name": "kickbackDestination",
          "type": "address"
        },
        {
          "indexed": false,
          "internalType": "string",
          "name": "ipfsHash",
          "type": "string"
        }
      ],
      "name": "UIInitialized",
      "type": "event"
    },
    {
      "anonymous": false,
      "inputs": [
        {
          "indexed": true,
          "internalType": "uint32",
          "name": "interfaceID",
          "type": "uint32"
        },
        {
          "indexed": true,
          "internalType": "address",
          "name": "kickbackDestination",
          "type": "address"
        },
        {
          "indexed": true,
          "internalType": "uint24",
          "name": "tags",
          "type": "uint24"
        },
        {
          "indexed": false,
          "internalType": "uint256",
          "name": "kickbackPortion",
          "type": "uint256"
        }
      ],
      "name": "UIRegistered",
      "type": "event"
    },
    {
      "anonymous": false,
      "inputs": [
        {
          "indexed": false,
          "internalType": "uint32[]",
          "name": "uis",
          "type": "uint32[]"
        }
      ],
      "name": "UIsApproved",
      "type": "event"
    },
    {
      "anonymous": false,
      "inputs": [
        {
          "indexed": false,
          "internalType": "uint32[]",
          "name": "uis",
          "type": "uint32[]"
        }
      ],
      "name": "UIsDisapproved",
      "type": "event"
    },
    {
      "inputs": [],
      "name": "TICK_SPACING",
      "outputs": [
        {
          "internalType": "int24",
          "name": "",
          "type": "int24"
        }
      ],
      "stateMutability": "view",
      "type": "function"
    },
    {
      "inputs": [
        {
          "internalType": "address",
          "name": "owner",
          "type": "address"
        },
        {
          "internalType": "uint256",
          "name": "nftID",
          "type": "uint256"
        }
      ],
      "name": "__addPositionToIndex",
      "outputs": [],
      "stateMutability": "nonpayable",
      "type": "function"
    },
    {
      "inputs": [
        {
          "internalType": "address",
          "name": "owner",
          "type": "address"
        },
        {
          "internalType": "uint256",
          "name": "nftID",
          "type": "uint256"
        }
      ],
      "name": "addPositionToIndex",
      "outputs": [],
      "stateMutability": "nonpayable",
      "type": "function"
    },
    {
      "inputs": [
        {
          "internalType": "uint32[]",
          "name": "ids",
          "type": "uint32[]"
        }
      ],
      "name": "approveUIs",
      "outputs": [],
      "stateMutability": "nonpayable",
      "type": "function"
    },
    {
      "inputs": [],
      "name": "debt",
      "outputs": [
        {
          "internalType": "uint256",
          "name": "",
          "type": "uint256"
        }
      ],
      "stateMutability": "view",
      "type": "function"
    },
    {
      "inputs": [],
      "name": "debtPositionIndexingEnabled",
      "outputs": [
        {
          "internalType": "bool",
          "name": "",
          "type": "bool"
        }
      ],
      "stateMutability": "view",
      "type": "function"
    },
    {
      "inputs": [
        {
          "internalType": "uint256",
          "name": "count",
          "type": "uint256"
        }
      ],
      "name": "decreaseDebt",
      "outputs": [],
      "stateMutability": "nonpayable",
      "type": "function"
    },
    {
      "inputs": [
        {
          "internalType": "contract IUniswapV3Pool",
          "name": "pool",
          "type": "address"
        },
        {
          "internalType": "uint256",
          "name": "liquidity",
          "type": "uint256"
        }
      ],
      "name": "decreasePoolLiquidity",
      "outputs": [],
      "stateMutability": "nonpayable",
      "type": "function"
    },
    {
      "inputs": [
        {
          "internalType": "uint256",
          "name": "nftID",
          "type": "uint256"
        }
      ],
      "name": "deletePoolPosition",
      "outputs": [],
      "stateMutability": "nonpayable",
      "type": "function"
    },
    {
      "inputs": [],
      "name": "deployer",
      "outputs": [
        {
          "internalType": "address",
          "name": "",
          "type": "address"
        }
      ],
      "stateMutability": "view",
      "type": "function"
    },
    {
      "inputs": [
        {
          "internalType": "uint32[]",
          "name": "ids",
          "type": "uint32[]"
        }
      ],
      "name": "disapproveUIs",
      "outputs": [],
      "stateMutability": "nonpayable",
      "type": "function"
    },
    {
      "inputs": [
        {
          "internalType": "uint64",
          "name": "positionID",
          "type": "uint64"
        }
      ],
      "name": "getBasicPositionInfo",
      "outputs": [
        {
          "internalType": "uint256",
          "name": "debtCount",
          "type": "uint256"
        },
        {
          "internalType": "uint256",
          "name": "collateralCount",
          "type": "uint256"
        }
      ],
      "stateMutability": "view",
      "type": "function"
    },
    {
      "inputs": [
        {
          "internalType": "uint256",
          "name": "nftID",
          "type": "uint256"
        }
      ],
      "name": "getPoolPosition",
      "outputs": [
        {
          "components": [
            {
              "internalType": "address",
              "name": "owner",
              "type": "address"
            },
            {
              "internalType": "uint16",
              "name": "poolID",
              "type": "uint16"
            },
            {
              "internalType": "uint256",
              "name": "cumulativeLiquidity",
              "type": "uint256"
            },
            {
              "internalType": "uint256",
              "name": "totalRewards",
              "type": "uint256"
            },
            {
              "internalType": "uint256",
              "name": "lastBlockPositionIncreased",
              "type": "uint256"
            },
            {
              "internalType": "uint128",
              "name": "liquidity",
              "type": "uint128"
            },
            {
              "internalType": "uint64",
              "name": "lastTimeRewarded",
              "type": "uint64"
            },
            {
              "internalType": "int24",
              "name": "tickLower",
              "type": "int24"
            },
            {
              "internalType": "int24",
              "name": "tickUpper",
              "type": "int24"
            },
            {
              "internalType": "uint32",
              "name": "ui",
              "type": "uint32"
            },
            {
              "internalType": "address",
              "name": "kickbackDestination",
              "type": "address"
            },
            {
              "internalType": "uint64",
              "name": "kickbackPortion",
              "type": "uint64"
            }
          ],
          "internalType": "struct IAccounting.PoolPosition",
          "name": "pp",
          "type": "tuple"
        }
      ],
      "stateMutability": "view",
      "type": "function"
    },
    {
      "inputs": [
        {
          "internalType": "address",
          "name": "owner",
          "type": "address"
        }
      ],
      "name": "getPoolPositionNftIdsByOwner",
      "outputs": [
        {
          "internalType": "uint128[]",
          "name": "",
          "type": "uint128[]"
        }
      ],
      "stateMutability": "view",
      "type": "function"
    },
    {
      "inputs": [
        {
          "internalType": "uint64",
          "name": "positionID",
          "type": "uint64"
        }
      ],
      "name": "getPosition",
      "outputs": [
        {
          "components": [
            {
              "internalType": "uint256",
              "name": "startCumulativeDebt",
              "type": "uint256"
            },
            {
              "internalType": "uint256",
              "name": "collateral",
              "type": "uint256"
            },
            {
              "internalType": "uint256",
              "name": "debt",
              "type": "uint256"
            },
            {
              "internalType": "uint256",
              "name": "startDebtExchangeRate",
              "type": "uint256"
            },
            {
              "internalType": "uint256",
              "name": "startTCPRewards",
              "type": "uint256"
            },
            {
              "internalType": "uint64",
              "name": "lastTimeUpdated",
              "type": "uint64"
            },
            {
              "internalType": "uint64",
              "name": "lastBorrowTime",
              "type": "uint64"
            },
            {
              "internalType": "int24",
              "name": "tick",
              "type": "int24"
            },
            {
              "internalType": "bool",
              "name": "tickSet",
              "type": "bool"
            },
            {
              "internalType": "uint64",
              "name": "tickIndex",
              "type": "uint64"
            },
            {
              "internalType": "uint32",
              "name": "ui",
              "type": "uint32"
            },
            {
              "internalType": "address",
              "name": "kickbackDestination",
              "type": "address"
            },
            {
              "internalType": "uint64",
              "name": "kickbackPortion",
              "type": "uint64"
            }
          ],
          "internalType": "struct IAccounting.DebtPosition",
          "name": "dp",
          "type": "tuple"
        }
      ],
      "stateMutability": "view",
      "type": "function"
    },
    {
      "inputs": [
        {
          "internalType": "uint16",
          "name": "poolID",
          "type": "uint16"
        }
      ],
      "name": "getRewardStatus",
      "outputs": [
        {
          "components": [
            {
              "internalType": "uint256",
              "name": "totalRewards",
              "type": "uint256"
            },
            {
              "internalType": "uint256",
              "name": "cumulativeLiquidity",
              "type": "uint256"
            }
          ],
          "internalType": "struct IAccounting.RewardStatus",
          "name": "",
          "type": "tuple"
        }
      ],
      "stateMutability": "view",
      "type": "function"
    },
    {
      "inputs": [],
      "name": "getSystemDebtInfo",
      "outputs": [
        {
          "components": [
            {
              "internalType": "uint256",
              "name": "debt",
              "type": "uint256"
            },
            {
              "internalType": "uint256",
              "name": "totalTCPRewards",
              "type": "uint256"
            },
            {
              "internalType": "uint256",
              "name": "cumulativeDebt",
              "type": "uint256"
            },
            {
              "internalType": "uint256",
              "name": "debtExchangeRate",
              "type": "uint256"
            }
          ],
          "internalType": "struct IAccounting.SystemDebtInfo",
          "name": "",
          "type": "tuple"
        }
      ],
      "stateMutability": "view",
      "type": "function"
    },
    {
      "inputs": [
        {
          "internalType": "uint256",
          "name": "collateralCount",
          "type": "uint256"
        },
        {
          "internalType": "uint256",
          "name": "debtCount",
          "type": "uint256"
        }
      ],
      "name": "getTick",
      "outputs": [
        {
          "internalType": "int24",
          "name": "",
          "type": "int24"
        }
      ],
      "stateMutability": "pure",
      "type": "function"
    },
    {
      "inputs": [
        {
          "internalType": "uint32",
          "name": "start",
          "type": "uint32"
        },
        {
          "internalType": "uint32",
          "name": "end",
          "type": "uint32"
        }
      ],
      "name": "getUIs",
      "outputs": [
        {
          "components": [
            {
              "internalType": "address",
              "name": "kickbackDestination",
              "type": "address"
            },
            {
              "internalType": "uint64",
              "name": "kickbackPortion",
              "type": "uint64"
            },
            {
              "internalType": "enum IAccounting.UIGovernanceRating",
              "name": "governanceRating",
              "type": "uint8"
            },
            {
              "internalType": "uint24",
              "name": "tags",
              "type": "uint24"
            },
            {
              "internalType": "string",
              "name": "ipfsHash",
              "type": "string"
            }
          ],
          "internalType": "struct IAccounting.UserInterface[]",
          "name": "uis",
          "type": "tuple[]"
        }
      ],
      "stateMutability": "view",
      "type": "function"
    },
    {
      "inputs": [],
      "name": "governor",
      "outputs": [
        {
          "internalType": "contract IGovernor",
          "name": "",
          "type": "address"
        }
      ],
      "stateMutability": "view",
      "type": "function"
    },
    {
      "inputs": [],
      "name": "hue",
      "outputs": [
        {
          "internalType": "contract IHue",
          "name": "",
          "type": "address"
        }
      ],
      "stateMutability": "view",
      "type": "function"
    },
    {
      "inputs": [
        {
          "internalType": "uint256",
          "name": "count",
          "type": "uint256"
        }
      ],
      "name": "increaseDebt",
      "outputs": [],
      "stateMutability": "nonpayable",
      "type": "function"
    },
    {
      "inputs": [
        {
          "internalType": "uint256",
          "name": "count",
          "type": "uint256"
        }
      ],
      "name": "increaseLentHue",
      "outputs": [],
      "stateMutability": "nonpayable",
      "type": "function"
    },
    {
      "inputs": [
        {
          "internalType": "contract IUniswapV3Pool",
          "name": "pool",
          "type": "address"
        },
        {
          "internalType": "uint256",
          "name": "liquidity",
          "type": "uint256"
        }
      ],
      "name": "increasePoolLiquidity",
      "outputs": [],
      "stateMutability": "nonpayable",
      "type": "function"
    },
    {
      "inputs": [],
      "name": "init",
      "outputs": [],
      "stateMutability": "nonpayable",
      "type": "function"
    },
    {
      "inputs": [
        {
          "internalType": "uint32",
          "name": "interfaceID",
          "type": "uint32"
        },
        {
          "internalType": "string",
          "name": "ipfsHash",
          "type": "string"
        }
      ],
      "name": "initializeUI",
      "outputs": [],
      "stateMutability": "nonpayable",
      "type": "function"
    },
    {
      "inputs": [],
      "name": "lentHue",
      "outputs": [
        {
          "internalType": "uint256",
          "name": "",
          "type": "uint256"
        }
      ],
      "stateMutability": "view",
      "type": "function"
    },
    {
      "inputs": [],
      "name": "nextUserInterfaceID",
      "outputs": [
        {
          "internalType": "uint32",
          "name": "",
          "type": "uint32"
        }
      ],
      "stateMutability": "view",
      "type": "function"
    },
    {
      "inputs": [],
      "name": "nftPositionManager",
      "outputs": [
        {
          "internalType": "contract INonfungiblePositionManager",
          "name": "",
          "type": "address"
        }
      ],
      "stateMutability": "view",
      "type": "function"
    },
    {
      "inputs": [
        {
          "internalType": "address",
          "name": "",
          "type": "address"
        },
        {
          "internalType": "address",
          "name": "",
          "type": "address"
        },
        {
          "internalType": "uint256",
          "name": "",
          "type": "uint256"
        },
        {
          "internalType": "bytes",
          "name": "",
          "type": "bytes"
        }
      ],
      "name": "onERC721Received",
      "outputs": [
        {
          "internalType": "bytes4",
          "name": "",
          "type": "bytes4"
        }
      ],
      "stateMutability": "pure",
      "type": "function"
    },
    {
      "inputs": [
        {
          "internalType": "address",
          "name": "newRewards",
          "type": "address"
        }
      ],
      "name": "onRewardsUpgrade",
      "outputs": [],
      "stateMutability": "nonpayable",
      "type": "function"
    },
    {
      "inputs": [
        {
          "internalType": "contract IUniswapV3Pool",
          "name": "",
          "type": "address"
        }
      ],
      "name": "poolLiquidity",
      "outputs": [
        {
          "internalType": "uint256",
          "name": "",
          "type": "uint256"
        }
      ],
      "stateMutability": "view",
      "type": "function"
    },
    {
      "inputs": [],
      "name": "poolPositionIndexingEnabled",
      "outputs": [
        {
          "internalType": "bool",
          "name": "",
          "type": "bool"
        }
      ],
      "stateMutability": "view",
      "type": "function"
    },
    {
      "inputs": [
        {
          "internalType": "int24",
          "name": "tick",
          "type": "int24"
        }
      ],
      "name": "positionsForTick",
      "outputs": [
        {
          "internalType": "uint64[]",
          "name": "",
          "type": "uint64[]"
        }
      ],
      "stateMutability": "view",
      "type": "function"
    },
    {
      "inputs": [
        {
          "internalType": "uint64",
          "name": "kickbackPortion",
          "type": "uint64"
        },
        {
          "internalType": "uint24",
          "name": "tags",
          "type": "uint24"
        }
      ],
      "name": "registerUI",
      "outputs": [
        {
          "internalType": "uint32",
          "name": "",
          "type": "uint32"
        }
      ],
      "stateMutability": "nonpayable",
      "type": "function"
    },
    {
      "inputs": [
        {
          "internalType": "address payable",
          "name": "dest",
          "type": "address"
        },
        {
          "internalType": "uint256",
          "name": "count",
          "type": "uint256"
        }
      ],
      "name": "sendCollateral",
      "outputs": [],
      "stateMutability": "nonpayable",
      "type": "function"
    },
    {
      "inputs": [
        {
          "internalType": "address",
          "name": "dest",
          "type": "address"
        },
        {
          "internalType": "uint256",
          "name": "count",
          "type": "uint256"
        }
      ],
      "name": "sendLentHue",
      "outputs": [],
      "stateMutability": "nonpayable",
      "type": "function"
    },
    {
      "inputs": [
        {
          "internalType": "uint256",
          "name": "nftID",
          "type": "uint256"
        },
        {
          "components": [
            {
              "internalType": "address",
              "name": "owner",
              "type": "address"
            },
            {
              "internalType": "uint16",
              "name": "poolID",
              "type": "uint16"
            },
            {
              "internalType": "uint256",
              "name": "cumulativeLiquidity",
              "type": "uint256"
            },
            {
              "internalType": "uint256",
              "name": "totalRewards",
              "type": "uint256"
            },
            {
              "internalType": "uint256",
              "name": "lastBlockPositionIncreased",
              "type": "uint256"
            },
            {
              "internalType": "uint128",
              "name": "liquidity",
              "type": "uint128"
            },
            {
              "internalType": "uint64",
              "name": "lastTimeRewarded",
              "type": "uint64"
            },
            {
              "internalType": "int24",
              "name": "tickLower",
              "type": "int24"
            },
            {
              "internalType": "int24",
              "name": "tickUpper",
              "type": "int24"
            },
            {
              "internalType": "uint32",
              "name": "ui",
              "type": "uint32"
            },
            {
              "internalType": "address",
              "name": "kickbackDestination",
              "type": "address"
            },
            {
              "internalType": "uint64",
              "name": "kickbackPortion",
              "type": "uint64"
            }
          ],
          "internalType": "struct IAccounting.PoolPosition",
          "name": "pp",
          "type": "tuple"
        }
      ],
      "name": "setPoolPosition",
      "outputs": [],
      "stateMutability": "nonpayable",
      "type": "function"
    },
    {
      "inputs": [
        {
          "internalType": "uint64",
          "name": "positionID",
          "type": "uint64"
        },
        {
          "components": [
            {
              "internalType": "uint256",
              "name": "startCumulativeDebt",
              "type": "uint256"
            },
            {
              "internalType": "uint256",
              "name": "collateral",
              "type": "uint256"
            },
            {
              "internalType": "uint256",
              "name": "debt",
              "type": "uint256"
            },
            {
              "internalType": "uint256",
              "name": "startDebtExchangeRate",
              "type": "uint256"
            },
            {
              "internalType": "uint256",
              "name": "startTCPRewards",
              "type": "uint256"
            },
            {
              "internalType": "uint64",
              "name": "lastTimeUpdated",
              "type": "uint64"
            },
            {
              "internalType": "uint64",
              "name": "lastBorrowTime",
              "type": "uint64"
            },
            {
              "internalType": "int24",
              "name": "tick",
              "type": "int24"
            },
            {
              "internalType": "bool",
              "name": "tickSet",
              "type": "bool"
            },
            {
              "internalType": "uint64",
              "name": "tickIndex",
              "type": "uint64"
            },
            {
              "internalType": "uint32",
              "name": "ui",
              "type": "uint32"
            },
            {
              "internalType": "address",
              "name": "kickbackDestination",
              "type": "address"
            },
            {
              "internalType": "uint64",
              "name": "kickbackPortion",
              "type": "uint64"
            }
          ],
          "internalType": "struct IAccounting.DebtPosition",
          "name": "dp",
          "type": "tuple"
        }
      ],
      "name": "setPosition",
      "outputs": [],
      "stateMutability": "nonpayable",
      "type": "function"
    },
    {
      "inputs": [
        {
          "internalType": "uint16",
          "name": "poolID",
          "type": "uint16"
        },
        {
          "components": [
            {
              "internalType": "uint256",
              "name": "totalRewards",
              "type": "uint256"
            },
            {
              "internalType": "uint256",
              "name": "cumulativeLiquidity",
              "type": "uint256"
            }
          ],
          "internalType": "struct IAccounting.RewardStatus",
          "name": "rs",
          "type": "tuple"
        }
      ],
      "name": "setRewardStatus",
      "outputs": [],
      "stateMutability": "nonpayable",
      "type": "function"
    },
    {
      "inputs": [
        {
          "components": [
            {
              "internalType": "uint256",
              "name": "debt",
              "type": "uint256"
            },
            {
              "internalType": "uint256",
              "name": "totalTCPRewards",
              "type": "uint256"
            },
            {
              "internalType": "uint256",
              "name": "cumulativeDebt",
              "type": "uint256"
            },
            {
              "internalType": "uint256",
              "name": "debtExchangeRate",
              "type": "uint256"
            }
          ],
          "internalType": "struct IAccounting.SystemDebtInfo",
          "name": "_sdi",
          "type": "tuple"
        }
      ],
      "name": "setSystemDebtInfo",
      "outputs": [],
      "stateMutability": "nonpayable",
      "type": "function"
    },
    {
      "inputs": [
        {
          "internalType": "int24",
          "name": "rawTick",
          "type": "int24"
        },
        {
          "internalType": "int24",
          "name": "tickSpacing",
          "type": "int24"
        }
      ],
      "name": "snapRawTickToSpacing",
      "outputs": [
        {
          "internalType": "int24",
          "name": "",
          "type": "int24"
        }
      ],
      "stateMutability": "pure",
      "type": "function"
    },
    {
      "inputs": [],
      "name": "stopIndexingDebtPositions",
      "outputs": [],
      "stateMutability": "nonpayable",
      "type": "function"
    },
    {
      "inputs": [],
      "name": "stopIndexingPoolPositions",
      "outputs": [],
      "stateMutability": "nonpayable",
      "type": "function"
    },
    {
      "inputs": [],
      "name": "stopped",
      "outputs": [
        {
          "internalType": "bool",
          "name": "",
          "type": "bool"
        }
      ],
      "stateMutability": "view",
      "type": "function"
    },
    {
      "inputs": [],
      "name": "sweepHue",
      "outputs": [],
      "stateMutability": "nonpayable",
      "type": "function"
    },
    {
      "inputs": [
        {
          "internalType": "uint256",
          "name": "",
          "type": "uint256"
        }
      ],
      "name": "userInterfaces",
      "outputs": [
        {
          "internalType": "address",
          "name": "kickbackDestination",
          "type": "address"
        },
        {
          "internalType": "uint64",
          "name": "kickbackPortion",
          "type": "uint64"
        },
        {
          "internalType": "enum IAccounting.UIGovernanceRating",
          "name": "governanceRating",
          "type": "uint8"
        },
        {
          "internalType": "uint24",
          "name": "tags",
          "type": "uint24"
        },
        {
          "internalType": "string",
          "name": "ipfsHash",
          "type": "string"
        }
      ],
      "stateMutability": "view",
      "type": "function"
    },
    {
      "inputs": [
        {
          "internalType": "bytes4",
          "name": "",
          "type": "bytes4"
        }
      ],
      "name": "validUpdate",
      "outputs": [
        {
          "internalType": "bool",
          "name": "",
          "type": "bool"
        }
      ],
      "stateMutability": "view",
      "type": "function"
    },
    {
      "stateMutability": "payable",
      "type": "receive"
    }
  ],
  "bytecode": "0x60e0604052600160026000509090556001600560006101000a81548160ff0219169083151502179055506001600560016101000a81548160ff0219169083151502179055506001600f60006101000a81548163ffffffff021916908363ffffffff160217905550348015620000745760006000fd5b5060405162007e0838038062007e0883398181016040528101906200009a919062000475565b5b805b80600001515b8073ffffffffffffffffffffffffffffffffffffffff1660808173ffffffffffffffffffffffffffffffffffffffff1660601b815260140150505b50806020015173ffffffffffffffffffffffffffffffffffffffff1660c08173ffffffffffffffffffffffffffffffffffffffff1660601b81526014015050806040015173ffffffffffffffffffffffffffffffffffffffff1660a08173ffffffffffffffffffffffffffffffffffffffff1660601b815260140150506200017b670de0b6b3a7640000620003d460201b6200356017909060201c565b600860005060010160106101000a8154816fffffffffffffffffffffffffffffffff02191690836fffffffffffffffffffffffffffffffff16021790555060016001600050600063461054a360e01b7bffffffffffffffffffffffffffffffffffffffffffffffffffffffff19167bffffffffffffffffffffffffffffffffffffffffffffffffffffffff1916815260200190815260200160002060006101000a81548160ff02191690831515021790555060016001600050600063602db56b60e01b7bffffffffffffffffffffffffffffffffffffffffffffffffffffffff19167bffffffffffffffffffffffffffffffffffffffffffffffffffffffff1916815260200190815260200160002060006101000a81548160ff02191690831515021790555060016001600050600063397d359260e01b7bffffffffffffffffffffffffffffffffffffffffffffffffffffffff19167bffffffffffffffffffffffffffffffffffffffffffffffffffffffff1916815260200190815260200160002060006101000a81548160ff021916908315150217905550600160016000506000630b218d2460e01b7bffffffffffffffffffffffffffffffffffffffffffffffffffffffff19167bffffffffffffffffffffffffffffffffffffffffffffffffffffffff1916815260200190815260200160002060006101000a81548160ff02191690831515021790555033600360006101000a81548173ffffffffffffffffffffffffffffffffffffffff021916908373ffffffffffffffffffffffffffffffffffffffff1602179055505b505b5062000511565b60007001000000000000000000000000000000008210151562000462576040517f08c379a00000000000000000000000000000000000000000000000000000000081526004018080602001828103825260128152602001807f6d6f7265207468616e203132382062697473000000000000000000000000000081526020015060200191505060405180910390fd5b8190506200046b565b9190505662000510565b60006060828403121562000487578081fd5b604051606081018181106001600160401b0382111715620004a457fe5b80604052508251620004b681620004f3565b808252506020830151620004ca81620004f3565b806020830152506040830151620004e181620004f3565b80604083015250809150505b92915050565b6001600160a01b038116811415156200050c5760006000fd5b5b50565b5b60805160601c60a05160601c60c05160601c61785d620005ab6000398061187752806125505280612606528061262752806126515250806123df52806132c55280614de052508061031f5280610dc05280610f7c528061129c52806115d452806117685280611a8e52806120bb52806121cd52806122e2528061245152806130a2528061341f528061377f5280613fa2525061785d6000f3fe6080604052600436106103175760003560e01c80636594da9f1161019a578063c0c899ff116100e1578063dfff5dc41161008a578063f34348f111610064578063f34348f114610c35578063f709960714610c73578063fd9c749214610c9d576103f6565b8063dfff5dc414610bb3578063e1c7392a14610bf1578063e2b1e9e314610c09576103f6565b8063d159b4ae116100bb578063d159b4ae14610b0b578063d5f3948814610b49578063d99f572614610b75576103f6565b8063c0c899ff14610a65578063c3c837ba14610a8f578063c7711db414610acd576103f6565b80638439788811610143578063b241bbac1161011d578063b241bbac146109e5578063b87e8d5814610a0f578063bdb2a49614610a4d576103f6565b80638439788814610951578063a135ef171461097d578063a678f336146109bb576103f6565b806378efc6b01161017457806378efc6b0146108d15780637f250c61146108fb578063816aaa2514610927576103f6565b80636594da9f1461083c57806375ea13ca1461087b57806375f12b21146108a5576103f6565b80632a7ba1f71161025e57806346ca626b116102075780635a6beaf4116101e15780635a6beaf4146107d0578063602db56b146107fa5780636250216914610812576103f6565b806346ca626b1461073c57806351ad51f714610768578063530c1ccb146107a6576103f6565b8063323741741161023857806332374174146106ce578063397d3592146106fa578063461054a314610724576103f6565b80632a7ba1f7146106505780632b7c7b111461067a5780632c73f09e146106a4576103f6565b8063113cf1ab116102c057806318a15e791161029a57806318a15e79146105ba578063230173e0146105fc57806326879a4e14610626576103f6565b8063113cf1ab146105145780631428561d14610552578063150b7a021461057c576103f6565b80630c340a24116102f15780630c340a241461047e5780630dca59c1146104aa5780630f85fc5a146104d6576103f6565b806306ef2d80146103fc578063092a26c3146104285780630b218d2414610454576103f6565b366103f6575b7f000000000000000000000000000000000000000000000000000000000000000073ffffffffffffffffffffffffffffffffffffffff166380f556056040518163ffffffff1660e01b815260040160206040518083038186803b1580156103845760006000fd5b505afa158015610399573d600060003e3d6000fd5b505050506040513d601f19601f820116820180604052508101906103bd919061685c565b73ffffffffffffffffffffffffffffffffffffffff163373ffffffffffffffffffffffffffffffffffffffff161415156103f357fe5b5b005b60006000fd5b3480156104095760006000fd5b50610412610cc9565b60405161041f91906176ef565b60405180910390f35b3480156104355760006000fd5b5061043e610ce9565b60405161044b919061732e565b60405180910390f35b3480156104615760006000fd5b5061047c6004803603810190610477919061675b565b610cfc565b005b34801561048b5760006000fd5b50610494610dbe565b6040516104a19190617376565b60405180910390f35b3480156104b75760006000fd5b506104c0610de2565b6040516104cd9190617720565b60405180910390f35b3480156104e35760006000fd5b506104fe60048036038101906104f99190616ce3565b610e25565b60405161050b919061751b565b60405180910390f35b3480156105215760006000fd5b5061053c6004803603810190610537919061680f565b610f44565b604051610549919061732e565b60405180910390f35b34801561055f5760006000fd5b5061057a600480360381019061057591906168d1565b610f69565b005b3480156105895760006000fd5b506105a4600480360381019061059f9190616684565b61110a565b6040516105b19190617342565b60405180910390f35b3480156105c75760006000fd5b506105e260048036038101906105dd9190616a76565b611150565b6040516105f39594939291906170d4565b60405180910390f35b3480156106095760006000fd5b50610624600480360381019061061f919061672a565b611274565b005b3480156106335760006000fd5b5061064e60048036038101906106499190616a76565b611289565b005b34801561065d5760006000fd5b5061067860048036038101906106739190616a76565b6114fb565b005b3480156106875760006000fd5b506106a2600480360381019061069d9190616a76565b6115c1565b005b3480156106b15760006000fd5b506106cc60048036038101906106c79190616a76565b611755565b005b3480156106db5760006000fd5b506106e4611875565b6040516106f1919061739e565b60405180910390f35b3480156107075760006000fd5b50610722600480360381019061071d919061675b565b611899565b005b3480156107315760006000fd5b5061073a6119c0565b005b3480156107495760006000fd5b50610752611a19565b60405161075f91906173ee565b60405180910390f35b3480156107755760006000fd5b50610790600480360381019061078b91906169c5565b611a1e565b60405161079d91906176d2565b60405180910390f35b3480156107b35760006000fd5b506107ce60048036038101906107c991906168d1565b611a7b565b005b3480156107dd5760006000fd5b506107f860048036038101906107f39190616d06565b611c1c565b005b3480156108075760006000fd5b50610810611e17565b005b34801561081f5760006000fd5b5061083a60048036038101906108359190616653565b611e70565b005b3480156108495760006000fd5b50610864600480360381019061085f9190616ce3565b611ee8565b604051610872929190617732565b60405180910390f35b3480156108885760006000fd5b506108a3600480360381019061089e919061672a565b61209b565b005b3480156108b25760006000fd5b506108bb6121a7565b6040516108c8919061732e565b60405180910390f35b3480156108de5760006000fd5b506108f960048036038101906108f49190616965565b6121ba565b005b3480156109085760006000fd5b506109116122c6565b60405161091e9190617720565b60405180910390f35b3480156109345760006000fd5b5061094f600480360381019061094a9190616aae565b6122cf565b005b34801561095e5760006000fd5b506109676123dd565b60405161097491906173c6565b60405180910390f35b34801561098a5760006000fd5b506109a560048036038101906109a091906168aa565b612401565b6040516109b29190617720565b60405180910390f35b3480156109c85760006000fd5b506109e360048036038101906109de919061662c565b61241c565b005b3480156109f25760006000fd5b50610a0d6004803603810190610a08919061672a565b61243e565b005b348015610a1c5760006000fd5b50610a376004803603810190610a32919061662c565b612590565b604051610a449190617222565b60405180910390f35b348015610a5a5760006000fd5b50610a636125f3565b005b348015610a725760006000fd5b50610a8d6004803603810190610a889190616bf2565b612725565b005b348015610a9c5760006000fd5b50610ab76004803603810190610ab29190616caf565b6128f0565b604051610ac49190617138565b60405180910390f35b348015610ada5760006000fd5b50610af56004803603810190610af09190616902565b612b5f565b604051610b0291906172d6565b60405180910390f35b348015610b185760006000fd5b50610b336004803603810190610b2e9190616bcc565b612c1f565b604051610b4091906173ee565b60405180910390f35b348015610b565760006000fd5b50610b5f612cb5565b604051610b6c9190617053565b60405180910390f35b348015610b825760006000fd5b50610b9d6004803603810190610b989190616929565b612cdb565b604051610baa91906173ee565b60405180910390f35b348015610bc05760006000fd5b50610bdb6004803603810190610bd69190616e31565b612d4c565b604051610be8919061774b565b60405180910390f35b348015610bfe5760006000fd5b50610c07613019565b005b348015610c165760006000fd5b50610c1f61314e565b604051610c2c919061774b565b60405180910390f35b348015610c425760006000fd5b50610c5d6004803603810190610c589190616a76565b613164565b604051610c6a91906175f9565b60405180910390f35b348015610c805760006000fd5b50610c9b6004803603810190610c9691906169e8565b61340c565b005b348015610caa5760006000fd5b50610cb361354d565b604051610cc0919061732e565b60405180910390f35b610cd1616239565b610cdf6135fa63ffffffff16565b9050610ce6565b90565b600560009054906101000a900460ff1681565b610d0a61377a63ffffffff16565b6000600090505b8151811015610d81576003601060005060008484815181101515610d3157fe5b602002602001015163ffffffff168152602001908152602001600020600050600001601c6101000a81548160ff02191690836003811115610d6e57fe5b02179055505b8080600101915050610d11565b507f7264e0084cbb7692193b834f40153b973ff4f827f8ed45da32ae6d8e486bb0c781604051610db19190617282565b60405180910390a15b5b50565b7f000000000000000000000000000000000000000000000000000000000000000081565b6000600860005060010160009054906101000a90046fffffffffffffffffffffffffffffffff166fffffffffffffffffffffffffffffffff169050610e22565b90565b610e2d616264565b610e3c826137da63ffffffff16565b90508050600081610140015163ffffffff161115610f37576010600050600082610140015163ffffffff16815260200190815260200160002060005060000160009054906101000a900473ffffffffffffffffffffffffffffffffffffffff1681610160019073ffffffffffffffffffffffffffffffffffffffff16908173ffffffffffffffffffffffffffffffffffffffff16815260200150506010600050600082610140015163ffffffff16815260200190815260200160002060005060000160149054906101000a900467ffffffffffffffff1681610180019067ffffffffffffffff16908167ffffffffffffffff16815260200150505b809050610f3f565b919050565b600160005060205280600052604060002060009150909054906101000a900460ff1681565b610f77613b7663ffffffff16565b6110537f000000000000000000000000000000000000000000000000000000000000000073ffffffffffffffffffffffffffffffffffffffff16639ec5a8946040518163ffffffff1660e01b815260040160206040518083038186803b158015610fe15760006000fd5b505afa158015610ff6573d600060003e3d6000fd5b505050506040513d601f19601f8201168201806040525081019061101a9190616883565b73ffffffffffffffffffffffffffffffffffffffff163373ffffffffffffffffffffffffffffffffffffffff1614613c0763ffffffff16565b6110ab81600d60005060008573ffffffffffffffffffffffffffffffffffffffff1673ffffffffffffffffffffffffffffffffffffffff16815260200190815260200160002060005054613c8390919063ffffffff16565b600d60005060008473ffffffffffffffffffffffffffffffffffffffff1673ffffffffffffffffffffffffffffffffffffffff1681526020019081526020016000206000508190909055505b611105613d0c63ffffffff16565b5b5050565b60006040517f08c379a000000000000000000000000000000000000000000000000000000000815260040161113e9061749d565b60405180910390fd5b95945050505050565b60106000506020528060005260406000206000915090508060000160009054906101000a900473ffffffffffffffffffffffffffffffffffffffff16908060000160149054906101000a900467ffffffffffffffff169080600001601c9054906101000a900460ff169080600001601d9054906101000a900462ffffff1690806001016000508054600181600116156101000203166002900480601f01602080910402602001604051908101604052809291908181526020018280546001816001161561010002031660029004801561126a5780601f1061123f5761010080835404028352916020019161126a565b820191906000526020600020905b81548152906001019060200180831161124d57829003601f168201915b5050505050905085565b6112848282613d1c63ffffffff16565b5b5050565b611297613b7663ffffffff16565b6113737f000000000000000000000000000000000000000000000000000000000000000073ffffffffffffffffffffffffffffffffffffffff16639ec5a8946040518163ffffffff1660e01b815260040160206040518083038186803b1580156113015760006000fd5b505afa158015611316573d600060003e3d6000fd5b505050506040513d601f19601f8201168201806040525081019061133a9190616883565b73ffffffffffffffffffffffffffffffffffffffff163373ffffffffffffffffffffffffffffffffffffffff1614613c0763ffffffff16565b61141661138782613560909063ffffffff16565b600e6000506000600c600050600086815260200190815260200160002060005060000160009054906101000a900473ffffffffffffffffffffffffffffffffffffffff1673ffffffffffffffffffffffffffffffffffffffff1673ffffffffffffffffffffffffffffffffffffffff168152602001908152602001600020600050613d8990919063ffffffff16565b50600c600050600082815260200190815260200160002060006000820160006101000a81549073ffffffffffffffffffffffffffffffffffffffff02191690556000820160146101000a81549061ffff02191690556000820160166101000a81549063ffffffff021916905560018201600050600090556002820160006101000a81549075ffffffffffffffffffffffffffffffffffffffffffff02191690556002820160166101000a81549064ffffffffff021916905560028201601b6101000a81549064ffffffffff021916905550505b6114f7613d0c63ffffffff16565b5b50565b611509613b7663ffffffff16565b611517613fa063ffffffff16565b61157061152b82613560909063ffffffff16565b600860005060010160009054906101000a90046fffffffffffffffffffffffffffffffff166fffffffffffffffffffffffffffffffff1661402e90919063ffffffff16565b600860005060010160006101000a8154816fffffffffffffffffffffffffffffffff02191690836fffffffffffffffffffffffffffffffff1602179055505b6115bd613d0c63ffffffff16565b5b50565b6115cf613b7663ffffffff16565b6116ab7f000000000000000000000000000000000000000000000000000000000000000073ffffffffffffffffffffffffffffffffffffffff166380f556056040518163ffffffff1660e01b815260040160206040518083038186803b1580156116395760006000fd5b505afa15801561164e573d600060003e3d6000fd5b505050506040513d601f19601f82011682018060405250810190611672919061685c565b73ffffffffffffffffffffffffffffffffffffffff163373ffffffffffffffffffffffffffffffffffffffff1614613c0763ffffffff16565b6117046116bf82613560909063ffffffff16565b600860005060010160009054906101000a90046fffffffffffffffffffffffffffffffff166fffffffffffffffffffffffffffffffff166140db90919063ffffffff16565b600860005060010160006101000a8154816fffffffffffffffffffffffffffffffff02191690836fffffffffffffffffffffffffffffffff1602179055505b611751613d0c63ffffffff16565b5b50565b611763613b7663ffffffff16565b61183f7f000000000000000000000000000000000000000000000000000000000000000073ffffffffffffffffffffffffffffffffffffffff166380f556056040518163ffffffff1660e01b815260040160206040518083038186803b1580156117cd5760006000fd5b505afa1580156117e2573d600060003e3d6000fd5b505050506040513d601f19601f82011682018060405250810190611806919061685c565b73ffffffffffffffffffffffffffffffffffffffff163373ffffffffffffffffffffffffffffffffffffffff1614613c0763ffffffff16565b61185781600760005054613c8390919063ffffffff16565b60076000508190909055505b611871613d0c63ffffffff16565b5b50565b7f000000000000000000000000000000000000000000000000000000000000000081565b6118a761377a63ffffffff16565b6000600090505b815181101561198357600060038111156118c457fe5b6010600050600084848151811015156118d957fe5b602002602001015163ffffffff168152602001908152602001600020600050600001601c9054906101000a900460ff16600381111561191457fe5b14151561197557600260106000506000848481518110151561193257fe5b602002602001015163ffffffff168152602001908152602001600020600050600001601c6101000a81548160ff0219169083600381111561196f57fe5b02179055505b5b80806001019150506118ae565b507f2e54370527117fb69828eac075cb3ed33fe59712134dfd3ef6efc9bd8b60c1ec816040516119b39190617282565b60405180910390a15b5b50565b6119ce61377a63ffffffff16565b6000600560006101000a81548160ff0219169083151502179055507f262b602ad12e3e551a407d5246b500f4ca5a01cc76bbf03e925db643a62a692f60405160405180910390a15b5b565b60c881565b611a26616318565b600b60005060008361ffff1661ffff168152602001908152602001600020600050604051806040016040529081600082016000505481526020016001820160005054815260200150509050611a76565b919050565b611a89613b7663ffffffff16565b611b657f000000000000000000000000000000000000000000000000000000000000000073ffffffffffffffffffffffffffffffffffffffff16639ec5a8946040518163ffffffff1660e01b815260040160206040518083038186803b158015611af35760006000fd5b505afa158015611b08573d600060003e3d6000fd5b505050506040513d601f19601f82011682018060405250810190611b2c9190616883565b73ffffffffffffffffffffffffffffffffffffffff163373ffffffffffffffffffffffffffffffffffffffff1614613c0763ffffffff16565b611bbd81600d60005060008573ffffffffffffffffffffffffffffffffffffffff1673ffffffffffffffffffffffffffffffffffffffff1681526020019081526020016000206000505461418890919063ffffffff16565b600d60005060008473ffffffffffffffffffffffffffffffffffffffff1673ffffffffffffffffffffffffffffffffffffffff1681526020019081526020016000206000508190909055505b611c17613d0c63ffffffff16565b5b5050565b611c2a613b7663ffffffff16565b611c38613fa063ffffffff16565b600560009054906101000a900460ff168015611c5f575060008267ffffffffffffffff1614155b15611c7957611c74828261421163ffffffff16565b905080505b60008160200151148015611c91575060008160400151145b15611df257600460005060008367ffffffffffffffff1667ffffffffffffffff168152602001908152602001600020600060008201600050600090556001820160006101000a8154906fffffffffffffffffffffffffffffffff02191690556001820160106101000a8154906fffffffffffffffffffffffffffffffff02191690556002820160006101000a8154906fffffffffffffffffffffffffffffffff02191690556002820160106101000a8154906fffffffffffffffffffffffffffffffff02191690556003820160006101000a81549067ffffffffffffffff02191690556003820160086101000a81549067ffffffffffffffff02191690556003820160106101000a81549062ffffff02191690556003820160136101000a81549060ff02191690556003820160146101000a81549067ffffffffffffffff021916905560038201601c6101000a81549063ffffffff02191690555050611e03565b611e0282826145cc63ffffffff16565b5b5b611e12613d0c63ffffffff16565b5b5050565b611e2561377a63ffffffff16565b6000600560016101000a81548160ff0219169083151502179055507fc4f6661464541d662c51191d4da5a7a1cc8bca2631698fd030e21b52520a549c60405160405180910390a15b5b565b611e7e613b7663ffffffff16565b611e8c613fa063ffffffff16565b8173ffffffffffffffffffffffffffffffffffffffff166108fc829081150290604051600060405180830381858888f19350505050158015611ed3573d600060003e3d6000fd5b505b611ee3613d0c63ffffffff16565b5b5050565b60006000600460005060008467ffffffffffffffff1667ffffffffffffffff16815260200190815260200160002060005060010160109054906101000a90046fffffffffffffffffffffffffffffffff166fffffffffffffffffffffffffffffffff1691508150600460005060008467ffffffffffffffff1667ffffffffffffffff16815260200190815260200160002060005060010160009054906101000a90046fffffffffffffffffffffffffffffffff166fffffffffffffffffffffffffffffffff16905080506000600460005060008567ffffffffffffffff1667ffffffffffffffff16815260200190815260200160002060005060020160009054906101000a90046fffffffffffffffffffffffffffffffff166fffffffffffffffffffffffffffffffff16905060008314806120245750600081145b156120355782829250925050612096565b6000600860005060010160109054906101000a90046fffffffffffffffffffffffffffffffff166fffffffffffffffffffffffffffffffff16905080821415156120935761208e81838661493a9092919063ffffffff16565b935083505b50505b915091565b600560019054906101000a900460ff1615156120b6576121a3565b6121927f000000000000000000000000000000000000000000000000000000000000000073ffffffffffffffffffffffffffffffffffffffff16639ec5a8946040518163ffffffff1660e01b815260040160206040518083038186803b1580156121205760006000fd5b505afa158015612135573d600060003e3d6000fd5b505050506040513d601f19601f820116820180604052508101906121599190616883565b73ffffffffffffffffffffffffffffffffffffffff163373ffffffffffffffffffffffffffffffffffffffff1614613c0763ffffffff16565b6121a28282613d1c63ffffffff16565b5b5050565b600060009054906101000a900460ff1681565b6121c8613b7663ffffffff16565b6122a47f000000000000000000000000000000000000000000000000000000000000000073ffffffffffffffffffffffffffffffffffffffff166380f556056040518163ffffffff1660e01b815260040160206040518083038186803b1580156122325760006000fd5b505afa158015612247573d600060003e3d6000fd5b505050506040513d601f19601f8201168201806040525081019061226b919061685c565b73ffffffffffffffffffffffffffffffffffffffff163373ffffffffffffffffffffffffffffffffffffffff1614613c0763ffffffff16565b6122b381614a3b63ffffffff16565b5b6122c2613d0c63ffffffff16565b5b50565b60076000505481565b6122dd613b7663ffffffff16565b6123b97f000000000000000000000000000000000000000000000000000000000000000073ffffffffffffffffffffffffffffffffffffffff16639ec5a8946040518163ffffffff1660e01b815260040160206040518083038186803b1580156123475760006000fd5b505afa15801561235c573d600060003e3d6000fd5b505050506040513d601f19601f820116820180604052508101906123809190616883565b73ffffffffffffffffffffffffffffffffffffffff163373ffffffffffffffffffffffffffffffffffffffff1614613c0763ffffffff16565b6123c98282614bad63ffffffff16565b5b6123d8613d0c63ffffffff16565b5b5050565b7f000000000000000000000000000000000000000000000000000000000000000081565b600d6000506020528060005260406000206000915090505481565b61242a61377a63ffffffff16565b61243981614dde63ffffffff16565b5b5b50565b61244c613b7663ffffffff16565b6125287f000000000000000000000000000000000000000000000000000000000000000073ffffffffffffffffffffffffffffffffffffffff166380f556056040518163ffffffff1660e01b815260040160206040518083038186803b1580156124b65760006000fd5b505afa1580156124cb573d600060003e3d6000fd5b505050506040513d601f19601f820116820180604052508101906124ef919061685c565b73ffffffffffffffffffffffffffffffffffffffff163373ffffffffffffffffffffffffffffffffffffffff1614613c0763ffffffff16565b6125408160076000505461418890919063ffffffff16565b600760005081909090555061257c7f00000000000000000000000000000000000000000000000000000000000000008383614e7263ffffffff16565b5b61258b613d0c63ffffffff16565b5b5050565b60606125e7600e60005060008473ffffffffffffffffffffffffffffffffffffffff1673ffffffffffffffffffffffffffffffffffffffff16815260200190815260200160002060005061507e909063ffffffff16565b90506125ee565b919050565b612601613b7663ffffffff16565b6127137f00000000000000000000000000000000000000000000000000000000000000007f00000000000000000000000000000000000000000000000000000000000000006127086007600050547f000000000000000000000000000000000000000000000000000000000000000073ffffffffffffffffffffffffffffffffffffffff166370a08231306040518263ffffffff1660e01b81526004016126a8919061707b565b60206040518083038186803b1580156126c15760006000fd5b505afa1580156126d6573d600060003e3d6000fd5b505050506040513d601f19601f820116820180604052508101906126fa9190616a92565b61418890919063ffffffff16565b614e7263ffffffff16565b5b612722613d0c63ffffffff16565b5b565b612733613b7663ffffffff16565b6127b23373ffffffffffffffffffffffffffffffffffffffff16601060005060008563ffffffff16815260200190815260200160002060005060000160009054906101000a900473ffffffffffffffffffffffffffffffffffffffff1673ffffffffffffffffffffffffffffffffffffffff1614613c0763ffffffff16565b612809600060038111156127c257fe5b601060005060008563ffffffff168152602001908152602001600020600050600001601c9054906101000a900460ff1660038111156127fd57fe5b14613c0763ffffffff16565b6001601060005060008463ffffffff168152602001908152602001600020600050600001601c6101000a81548160ff0219169083600381111561284857fe5b021790555080601060005060008463ffffffff1681526020019081526020016000206000506001016000509080519060200190612886929190616335565b503373ffffffffffffffffffffffffffffffffffffffff168263ffffffff167fec673006d787a8f7beffb5435d65c9380768a511390c957f84092e507033f218836040516128d49190617403565b60405180910390a35b6128eb613d0c63ffffffff16565b5b5050565b60608163ffffffff168363ffffffff1610151561290d5760006000fd5b82820363ffffffff1667ffffffffffffffff8111801561292d5760006000fd5b5060405190808252806020026020018201604052801561296757816020015b6129546163c8565b81526020019060019003908161294c5790505b509050805060005b8263ffffffff168463ffffffff161015612b5757601060005060008580600101965063ffffffff1681526020019081526020016000206000506040518060a00160405290816000820160009054906101000a900473ffffffffffffffffffffffffffffffffffffffff1673ffffffffffffffffffffffffffffffffffffffff1673ffffffffffffffffffffffffffffffffffffffff1681526020016000820160149054906101000a900467ffffffffffffffff1667ffffffffffffffff1667ffffffffffffffff16815260200160008201601c9054906101000a900460ff166003811115612a5957fe5b6003811115612a6457fe5b815260200160008201601d9054906101000a900462ffffff1662ffffff1662ffffff168152602001600182016000508054600181600116156101000203166002900480601f016020809104026020016040519081016040528092919081815260200182805460018160011615610100020316600290048015612b275780601f10612afc57610100808354040283529160200191612b27565b820191906000526020600020905b815481529060010190602001808311612b0a57829003601f168201915b5050505050815260200150508282806001019350815181101515612b4757fe5b602002602001018190525061296f565b505b92915050565b606060066000506000612b798460c8612cdb63ffffffff16565b60020b60020b8152602001908152602001600020600050805480602002602001604051908101604052809291908181526020018280548015612c0e57602002820191906000526020600020906000905b82829054906101000a900467ffffffffffffffff1667ffffffffffffffff1681526020019060080190602082600701049283019260010382029150808411612bc95790505b50505050509050612c1a565b919050565b60006000821415612c3557627fffff9050612caf565b600083111515612c7a576040517f08c379a0000000000000000000000000000000000000000000000000000000008152600401612c719061745e565b60405180910390fd5b612ca8612c9b612c90858561512463ffffffff16565b61518c63ffffffff16565b60c8612cdb63ffffffff16565b9050612caf565b92915050565b600360009054906101000a900473ffffffffffffffffffffffffffffffffffffffff1681565b600060008360020b905060008360020b82811515612cf557fe5b0790506000811415612d0b578492505050612d46565b600060008313612d22578460020b82840303612d26565b8183035b9050612d39816155a0909063ffffffff16565b9350505050612d46565050505b92915050565b6000612d5c613b7663ffffffff16565b6703782dace9d9000067ffffffffffffffff168367ffffffffffffffff1611151515612dbd576040517f08c379a0000000000000000000000000000000000000000000000000000000008152600401612db4906174dc565b60405180910390fd5b63ffffffff63ffffffff16600f60009054906101000a900463ffffffff1663ffffffff16101515612dee5760006000fd5b6000600f600081819054906101000a900463ffffffff168092919060010191906101000a81548163ffffffff021916908363ffffffff16021790555090506040518060a001604052803373ffffffffffffffffffffffffffffffffffffffff1681526020018567ffffffffffffffff16815260200160006003811115612e7057fe5b81526020018462ffffff16815260200160405180602001604052806000815260200150815260200150601060005060008363ffffffff16815260200190815260200160002060005060008201518160000160006101000a81548173ffffffffffffffffffffffffffffffffffffffff021916908373ffffffffffffffffffffffffffffffffffffffff16021790555060208201518160000160146101000a81548167ffffffffffffffff021916908367ffffffffffffffff160217905550604082015181600001601c6101000a81548160ff02191690836003811115612f5257fe5b0217905550606082015181600001601d6101000a81548162ffffff021916908362ffffff1602179055506080820151816001016000509080519060200190612f9b929190616335565b509050508262ffffff163373ffffffffffffffffffffffffffffffffffffffff168263ffffffff167f46f1b99a43c800f57b28bd687fe2fc54e883b31ff06b2a6d863d52892505974887604051612ff29190617763565b60405180910390a48091505061300456505b613012613d0c63ffffffff16565b5b92915050565b613078600360009054906101000a900473ffffffffffffffffffffffffffffffffffffffff1673ffffffffffffffffffffffffffffffffffffffff163373ffffffffffffffffffffffffffffffffffffffff1614613c0763ffffffff16565b600360006101000a81549073ffffffffffffffffffffffffffffffffffffffff021916905561314b7f000000000000000000000000000000000000000000000000000000000000000073ffffffffffffffffffffffffffffffffffffffff16639ec5a8946040518163ffffffff1660e01b815260040160206040518083038186803b1580156131075760006000fd5b505afa15801561311c573d600060003e3d6000fd5b505050506040513d601f19601f820116820180604052508101906131409190616883565b614dde63ffffffff16565b5b565b600f60009054906101000a900463ffffffff1681565b61316c61642a565b61317b8261565863ffffffff16565b905080506000816020015161ffff161115156131cc576040517f08c379a00000000000000000000000000000000000000000000000000000000081526004016131c39061741f565b60405180910390fd5b600081610120015163ffffffff1611156132c3576010600050600082610120015163ffffffff16815260200190815260200160002060005060000160149054906101000a900467ffffffffffffffff1681610160019067ffffffffffffffff16908167ffffffffffffffff16815260200150506010600050600082610120015163ffffffff16815260200190815260200160002060005060000160009054906101000a900473ffffffffffffffffffffffffffffffffffffffff1681610140019073ffffffffffffffffffffffffffffffffffffffff16908173ffffffffffffffffffffffffffffffffffffffff16815260200150505b7f000000000000000000000000000000000000000000000000000000000000000073ffffffffffffffffffffffffffffffffffffffff166399fbab88836040518263ffffffff1660e01b815260040161331c9190617720565b6101806040518083038186803b1580156133365760006000fd5b505afa15801561334b573d600060003e3d6000fd5b505050506040513d601f19601f8201168201806040525081019061336f9190616e69565b909192939495969798999a509091929394959697989950909192939495969798509091929394959697509091929394959650909192509091509050508360e00184610100018560a0018390906fffffffffffffffffffffffffffffffff166fffffffffffffffffffffffffffffffff1681526020015083909060020b60020b81526020015083909060020b60020b8152602001505050505b919050565b61341a613b7663ffffffff16565b6134f67f000000000000000000000000000000000000000000000000000000000000000073ffffffffffffffffffffffffffffffffffffffff16639ec5a8946040518163ffffffff1660e01b815260040160206040518083038186803b1580156134845760006000fd5b505afa158015613499573d600060003e3d6000fd5b505050506040513d601f19601f820116820180604052508101906134bd9190616883565b73ffffffffffffffffffffffffffffffffffffffff163373ffffffffffffffffffffffffffffffffffffffff1614613c0763ffffffff16565b80600b60005060008461ffff1661ffff1681526020019081526020016000206000506000820151816000016000509090556020820151816001016000509090559050505b613548613d0c63ffffffff16565b5b5050565b600560019054906101000a900460ff1681565b6000700100000000000000000000000000000000821015156135ed576040517f08c379a00000000000000000000000000000000000000000000000000000000081526004018080602001828103825260128152602001807f6d6f7265207468616e203132382062697473000000000000000000000000000081526020015060200191505060405180910390fd5b8190506135f5565b919050565b613602616239565b60006008600050604051806080016040529081600082016000505481526020016001820160009054906101000a90046fffffffffffffffffffffffffffffffff166fffffffffffffffffffffffffffffffff166fffffffffffffffffffffffffffffffff1681526020016001820160109054906101000a90046fffffffffffffffffffffffffffffffff166fffffffffffffffffffffffffffffffff166fffffffffffffffffffffffffffffffff1681526020016002820160009054906101000a90046fffffffffffffffffffffffffffffffff166fffffffffffffffffffffffffffffffff166fffffffffffffffffffffffffffffffff16815260200150509050604051806080016040528082602001516fffffffffffffffffffffffffffffffff16815260200182606001516fffffffffffffffffffffffffffffffff1681526020018260000151815260200182604001516fffffffffffffffffffffffffffffffff1681526020015091505061377756505b90565b6137d77f000000000000000000000000000000000000000000000000000000000000000073ffffffffffffffffffffffffffffffffffffffff163373ffffffffffffffffffffffffffffffffffffffff1614613c0763ffffffff16565b5b565b6137e2616264565b6000600460005060008467ffffffffffffffff1667ffffffffffffffff16815260200190815260200160002060005060405180610160016040529081600082016000505481526020016001820160009054906101000a90046fffffffffffffffffffffffffffffffff166fffffffffffffffffffffffffffffffff166fffffffffffffffffffffffffffffffff1681526020016001820160109054906101000a90046fffffffffffffffffffffffffffffffff166fffffffffffffffffffffffffffffffff166fffffffffffffffffffffffffffffffff1681526020016002820160009054906101000a90046fffffffffffffffffffffffffffffffff166fffffffffffffffffffffffffffffffff166fffffffffffffffffffffffffffffffff1681526020016002820160109054906101000a90046fffffffffffffffffffffffffffffffff166fffffffffffffffffffffffffffffffff166fffffffffffffffffffffffffffffffff1681526020016003820160009054906101000a900467ffffffffffffffff1667ffffffffffffffff1667ffffffffffffffff1681526020016003820160089054906101000a900467ffffffffffffffff1667ffffffffffffffff1667ffffffffffffffff1681526020016003820160109054906101000a900460020b60020b60020b81526020016003820160139054906101000a900460ff161515151581526020016003820160149054906101000a900467ffffffffffffffff1667ffffffffffffffff1667ffffffffffffffff16815260200160038201601c9054906101000a900463ffffffff1663ffffffff1663ffffffff16815260200150509050604051806101a001604052808260000151815260200182602001516fffffffffffffffffffffffffffffffff16815260200182604001516fffffffffffffffffffffffffffffffff16815260200182606001516fffffffffffffffffffffffffffffffff16815260200182608001516fffffffffffffffffffffffffffffffff1681526020018260a0015167ffffffffffffffff1681526020018260c0015167ffffffffffffffff1681526020018260e0015160020b81526020018261010001511515815260200182610120015167ffffffffffffffff16815260200182610140015163ffffffff168152602001600073ffffffffffffffffffffffffffffffffffffffff168152602001600067ffffffffffffffff16815260200150915050613b7156505b919050565b600260026000505414151515613bf7576040517f08c379a000000000000000000000000000000000000000000000000000000000815260040180806020018281038252600d8152602001807f4c43205265656e7472616e63790000000000000000000000000000000000000081526020015060200191505060405180910390fd5b600260026000508190909055505b565b801515613c7f576040517f08c379a000000000000000000000000000000000000000000000000000000000815260040180806020018281038252600e8152602001807f4e6f7420417574686f72697a656400000000000000000000000000000000000081526020015060200191505060405180910390fd5b5b50565b60008282840191508110151515613d05576040517f08c379a000000000000000000000000000000000000000000000000000000000815260040180806020018281038252600c8152602001807f6164642d6f766572666c6f77000000000000000000000000000000000000000081526020015060200191505060405180910390fd5b5b92915050565b600160026000508190909055505b565b613d83613d3082613560909063ffffffff16565b600e60005060008573ffffffffffffffffffffffffffffffffffffffff1673ffffffffffffffffffffffffffffffffffffffff1681526020019081526020016000206000506158ee90919063ffffffff16565b505b5050565b60006000836001016000506000846fffffffffffffffffffffffffffffffff166fffffffffffffffffffffffffffffffff168152602001908152602001600020600050549050600081141515613f8e57600060018203905060006001866000016000508054905003905060008660000160005082815481101515613e0957fe5b90600052602060002090600291828204019190066010025b9054906101000a90046fffffffffffffffffffffffffffffffff169050808760000160005084815481101515613e5357fe5b90600052602060002090600291828204019190066010025b6101000a8154816fffffffffffffffffffffffffffffffff02191690836fffffffffffffffffffffffffffffffff16021790555060018301876001016000506000836fffffffffffffffffffffffffffffffff166fffffffffffffffffffffffffffffffff168152602001908152602001600020600050819090905550866000016000508054801515613efa57fe5b60019003818190600052602060002090600291828204019190066010025b6101000a8154906fffffffffffffffffffffffffffffffff02191690559055866001016000506000876fffffffffffffffffffffffffffffffff166fffffffffffffffffffffffffffffffff168152602001908152602001600020600050600090556001945050505050613f9a56505050613f98565b6000915050613f9a565b505b92915050565b7f000000000000000000000000000000000000000000000000000000000000000073ffffffffffffffffffffffffffffffffffffffff16637c114fed336040518263ffffffff1660e01b8152600401613ff9919061707b565b60006040518083038186803b1580156140125760006000fd5b505afa158015614027573d600060003e3d6000fd5b505050505b565b6000826fffffffffffffffffffffffffffffffff168284039150816fffffffffffffffffffffffffffffffff16111515156140d4576040517f08c379a000000000000000000000000000000000000000000000000000000000815260040180806020018281038252600d8152602001807f7375622d756e646572666c6f770000000000000000000000000000000000000081526020015060200191505060405180910390fd5b5b92915050565b6000826fffffffffffffffffffffffffffffffff168284019150816fffffffffffffffffffffffffffffffff1610151515614181576040517f08c379a000000000000000000000000000000000000000000000000000000000815260040180806020018281038252600c8152602001807f6164642d6f766572666c6f77000000000000000000000000000000000000000081526020015060200191505060405180910390fd5b5b92915050565b6000828284039150811115151561420a576040517f08c379a000000000000000000000000000000000000000000000000000000000815260040180806020018281038252600d8152602001807f7375622d756e646572666c6f770000000000000000000000000000000000000081526020015060200191505060405180910390fd5b5b92915050565b614219616264565b6000600460005060008567ffffffffffffffff1667ffffffffffffffff16815260200190815260200160002060005060030160139054906101000a900460ff16905060008161426b57627fffff6142aa565b600460005060008667ffffffffffffffff1667ffffffffffffffff16815260200190815260200160002060005060030160109054906101000a900460020b5b90506000600460005060008767ffffffffffffffff1667ffffffffffffffff16815260200190815260200160002060005060030160149054906101000a900467ffffffffffffffff169050600061430f86602001518760400151612c1f63ffffffff16565b90508060020b8360020b1415156145b657808660e0019060020b908160020b815260200150506000627fffff60020b8460020b12156144dc57600660005060008560020b60020b815260200190815260200160002060005090508050600061438560018380549050036159df909063ffffffff16565b90508067ffffffffffffffff168467ffffffffffffffff16141515614499576000828267ffffffffffffffff168154811015156143be57fe5b90600052602060002090600491828204019190066008025b9054906101000a900467ffffffffffffffff16905080838667ffffffffffffffff1681548110151561440457fe5b90600052602060002090600491828204019190066008025b6101000a81548167ffffffffffffffff021916908367ffffffffffffffff16021790555084600460005060008367ffffffffffffffff1667ffffffffffffffff16815260200190815260200160002060005060030160146101000a81548167ffffffffffffffff021916908367ffffffffffffffff160217905550505b8180548015156144a557fe5b60019003818190600052602060002090600491828204019190066008025b6101000a81549067ffffffffffffffff02191690559055505b627fffff60020b8260020b12156145b457600660005060008360020b60020b81526020019081526020016000206000509050805061452581805490506159df909063ffffffff16565b87610120019067ffffffffffffffff16908167ffffffffffffffff1681526020015050600187610100019015159081151581526020015050808890806001815401808255809150506001900390600052602060002090600491828204019190066008025b9091909190916101000a81548167ffffffffffffffff021916908367ffffffffffffffff1602179055505b505b859450505050506145c656505050505b92915050565b604051806101600160405280826000015181526020016145f78360200151613560909063ffffffff16565b6fffffffffffffffffffffffffffffffff1681526020016146238360400151613560909063ffffffff16565b6fffffffffffffffffffffffffffffffff16815260200161464f8360600151613560909063ffffffff16565b6fffffffffffffffffffffffffffffffff16815260200161467b8360800151613560909063ffffffff16565b6fffffffffffffffffffffffffffffffff1681526020018260a0015167ffffffffffffffff1681526020018260c0015167ffffffffffffffff1681526020018260e0015160020b81526020018261010001511515815260200182610120015167ffffffffffffffff16815260200182610140015163ffffffff16815260200150600460005060008467ffffffffffffffff1667ffffffffffffffff16815260200190815260200160002060005060008201518160000160005090905560208201518160010160006101000a8154816fffffffffffffffffffffffffffffffff02191690836fffffffffffffffffffffffffffffffff16021790555060408201518160010160106101000a8154816fffffffffffffffffffffffffffffffff02191690836fffffffffffffffffffffffffffffffff16021790555060608201518160020160006101000a8154816fffffffffffffffffffffffffffffffff02191690836fffffffffffffffffffffffffffffffff16021790555060808201518160020160106101000a8154816fffffffffffffffffffffffffffffffff02191690836fffffffffffffffffffffffffffffffff16021790555060a08201518160030160006101000a81548167ffffffffffffffff021916908367ffffffffffffffff16021790555060c08201518160030160086101000a81548167ffffffffffffffff021916908367ffffffffffffffff16021790555060e08201518160030160106101000a81548162ffffff021916908360020b62ffffff1602179055506101008201518160030160136101000a81548160ff0219169083151502179055506101208201518160030160146101000a81548167ffffffffffffffff021916908367ffffffffffffffff16021790555061014082015181600301601c6101000a81548163ffffffff021916908363ffffffff1602179055509050505b5050565b600060006000600019858709858702925082811083820303915050600081141561497d5760008411151561496e5760006000fd5b83820492508292505050614a34565b808411151561498c5760006000fd5b6000848688099050828111820391508083039250600085866000031690508086049550808404935060018182600003040190508083028417935083506000600287600302189050808702600203810290508050808702600203810290508050808702600203810290508050808702600203810290508050808702600203810290508050808702600203810290508050808502955085508595505050505050614a345650505050505b9392505050565b604051806080016040528082604001518152602001614a658360000151613560909063ffffffff16565b6fffffffffffffffffffffffffffffffff168152602001614a918360600151613560909063ffffffff16565b6fffffffffffffffffffffffffffffffff168152602001614abd8360200151613560909063ffffffff16565b6fffffffffffffffffffffffffffffffff16815260200150600860005060008201518160000160005090905560208201518160010160006101000a8154816fffffffffffffffffffffffffffffffff02191690836fffffffffffffffffffffffffffffffff16021790555060408201518160010160106101000a8154816fffffffffffffffffffffffffffffffff02191690836fffffffffffffffffffffffffffffffff16021790555060608201518160020160006101000a8154816fffffffffffffffffffffffffffffffff02191690836fffffffffffffffffffffffffffffffff1602179055509050505b50565b6040518060e00160405280826000015173ffffffffffffffffffffffffffffffffffffffff168152602001826020015161ffff16815260200182610120015163ffffffff16815260200182604001518152602001614c168360600151615a71909063ffffffff16565b75ffffffffffffffffffffffffffffffffffffffffffff168152602001614c528360c0015167ffffffffffffffff16615b11909063ffffffff16565b64ffffffffff168152602001614c738360800151615b11909063ffffffff16565b64ffffffffff16815260200150600c600050600084815260200190815260200160002060005060008201518160000160006101000a81548173ffffffffffffffffffffffffffffffffffffffff021916908373ffffffffffffffffffffffffffffffffffffffff16021790555060208201518160000160146101000a81548161ffff021916908361ffff16021790555060408201518160000160166101000a81548163ffffffff021916908363ffffffff16021790555060608201518160010160005090905560808201518160020160006101000a81548175ffffffffffffffffffffffffffffffffffffffffffff021916908375ffffffffffffffffffffffffffffffffffffffffffff16021790555060a08201518160020160166101000a81548164ffffffffff021916908364ffffffffff16021790555060c082015181600201601b6101000a81548164ffffffffff021916908364ffffffffff1602179055509050505b5050565b7f000000000000000000000000000000000000000000000000000000000000000073ffffffffffffffffffffffffffffffffffffffff1663a22cb4658260016040518363ffffffff1660e01b8152600401614e3a9291906170a3565b600060405180830381600087803b158015614e555760006000fd5b505af1158015614e6a573d600060003e3d6000fd5b505050505b50565b600060008473ffffffffffffffffffffffffffffffffffffffff1663a9059cbb60e01b8585604051602401808373ffffffffffffffffffffffffffffffffffffffff16815260200182815260200192505050604051602081830303815290604052907bffffffffffffffffffffffffffffffffffffffffffffffffffffffff19166020820180517bffffffffffffffffffffffffffffffffffffffffffffffffffffffff83818316178352505050506040518082805190602001908083835b602083101515614f5757805182525b602082019150602081019050602083039250614f31565b6001836020036101000a0380198251168184511680821785525050505050509050019150506000604051808303816000865af19150503d8060008114614fb9576040519150601f19603f3d011682016040523d82523d6000602084013e614fbe565b606091505b5091509150818015614fff5750600081511480614ffe5750808060200190516020811015614fec5760006000fd5b81019080805190602001909291905050505b5b1515615076576040517f08c379a00000000000000000000000000000000000000000000000000000000081526004018080602001828103825260028152602001807f535400000000000000000000000000000000000000000000000000000000000081526020015060200191505060405180910390fd5b50505b505050565b60608160000160005080548060200260200160405190810160405280929190818152602001828054801561511557602002820191906000526020600020906000905b82829054906101000a90046fffffffffffffffffffffffffffffffff166fffffffffffffffffffffffffffffffff1681526020019060100190602082600f010492830192600103820291508084116150c05790505b5050505050905080505b919050565b600061517f61517266010000000000006151646151596c01000000000000000000000000878961493a9092919063ffffffff16565b615ba063ffffffff16565b615c1390919063ffffffff16565b615cb1909063ffffffff16565b9050615186565b92915050565b60006401000276a373ffffffffffffffffffffffffffffffffffffffff168273ffffffffffffffffffffffffffffffffffffffff161015801561520e575073fffd8963efd1fc6a506488495d951d5263988d2673ffffffffffffffffffffffffffffffffffffffff168273ffffffffffffffffffffffffffffffffffffffff16105b1515615285576040517f08c379a00000000000000000000000000000000000000000000000000000000081526004018080602001828103825260018152602001807f520000000000000000000000000000000000000000000000000000000000000081526020015060200191505060405180910390fd5b600060208373ffffffffffffffffffffffffffffffffffffffff16901b905060008190506000600090506fffffffffffffffffffffffffffffffff821160071b808217915082811c92505067ffffffffffffffff821160061b808217915082811c92505063ffffffff821160051b808217915082811c92505061ffff821160041b808217915082811c92505060ff821160031b808217915082811c925050600f821160021b808217915082811c9250506003821160011b808217915082811c9250506001821180821791505060808110151561536b57607f810383901c91508150615377565b80607f0383901b915081505b6000604060808303901b9050828302607f1c92508260801c80603f1b8217915083811c935050828302607f1c92508260801c80603e1b8217915083811c935050828302607f1c92508260801c80603d1b8217915083811c935050828302607f1c92508260801c80603c1b8217915083811c935050828302607f1c92508260801c80603b1b8217915083811c935050828302607f1c92508260801c80603a1b8217915083811c935050828302607f1c92508260801c8060391b8217915083811c935050828302607f1c92508260801c8060381b8217915083811c935050828302607f1c92508260801c8060371b8217915083811c935050828302607f1c92508260801c8060361b8217915083811c935050828302607f1c92508260801c8060351b8217915083811c935050828302607f1c92508260801c8060341b8217915083811c935050828302607f1c92508260801c8060331b8217915083811c935050828302607f1c92508260801c8060321b82179150506000693627a301d71055774c8582029050600060806f028f6481ab7f045a5af012a19d003aaa8303901d9050600060806fdb2df09e81959a81455e260799a0632f8401901d90508060020b8260020b1461558d578873ffffffffffffffffffffffffffffffffffffffff1661556482615d4f63ffffffff16565b73ffffffffffffffffffffffffffffffffffffffff1611156155865781615588565b805b61558f565b815b97508750505050505050505b919050565b60007fffffffffffffffffffffffffffffffffffffffffffffffffffffffffff80000082121580156155d457506280000082125b151561564b576040517f08c379a00000000000000000000000000000000000000000000000000000000081526004018080602001828103825260118152602001807f6d6f7265207468616e203234206269747300000000000000000000000000000081526020015060200191505060405180910390fd5b819050615653565b919050565b61566061642a565b6000600c60005060008481526020019081526020016000206000506040518060e00160405290816000820160009054906101000a900473ffffffffffffffffffffffffffffffffffffffff1673ffffffffffffffffffffffffffffffffffffffff1673ffffffffffffffffffffffffffffffffffffffff1681526020016000820160149054906101000a900461ffff1661ffff1661ffff1681526020016000820160169054906101000a900463ffffffff1663ffffffff1663ffffffff168152602001600182016000505481526020016002820160009054906101000a900475ffffffffffffffffffffffffffffffffffffffffffff1675ffffffffffffffffffffffffffffffffffffffffffff1675ffffffffffffffffffffffffffffffffffffffffffff1681526020016002820160169054906101000a900464ffffffffff1664ffffffffff1664ffffffffff16815260200160028201601b9054906101000a900464ffffffffff1664ffffffffff1664ffffffffff16815260200150509050604051806101800160405280826000015173ffffffffffffffffffffffffffffffffffffffff168152602001826020015161ffff16815260200182606001518152602001826080015175ffffffffffffffffffffffffffffffffffffffffffff1681526020018260c0015164ffffffffff16815260200160006fffffffffffffffffffffffffffffffff1681526020018260a0015164ffffffffff1667ffffffffffffffff168152602001600060020b8152602001600060020b8152602001826040015163ffffffff168152602001600073ffffffffffffffffffffffffffffffffffffffff168152602001600067ffffffffffffffff168152602001509150506158e956505b919050565b600061590083836161e663ffffffff16565b15156159cf57826000016000508290806001815401808255809150506001900390600052602060002090600291828204019190066010025b9091909190916101000a8154816fffffffffffffffffffffffffffffffff02191690836fffffffffffffffffffffffffffffffff1602179055508260000160005080549050836001016000506000846fffffffffffffffffffffffffffffffff166fffffffffffffffffffffffffffffffff168152602001908152602001600020600050819090905550600190506159d9566159d8565b600090506159d9565b5b92915050565b60006801000000000000000082101515615a64576040517f08c379a00000000000000000000000000000000000000000000000000000000081526004018080602001828103825260118152602001807f6d6f7265207468616e203634206269747300000000000000000000000000000081526020015060200191505060405180910390fd5b819050615a6c565b919050565b600076010000000000000000000000000000000000000000000082101515615b04576040517f08c379a00000000000000000000000000000000000000000000000000000000081526004018080602001828103825260128152602001807f6d6f7265207468616e203137362062697473000000000000000000000000000081526020015060200191505060405180910390fd5b819050615b0c565b919050565b60006501000000000082101515615b93576040517f08c379a00000000000000000000000000000000000000000000000000000000081526004018080602001828103825260118152602001807f6d6f7265207468616e203430206269747300000000000000000000000000000081526020015060200191505060405180910390fd5b819050615b9b565b919050565b60006003821115615bfb57819050805060006001600284811515615bc057fe5b040190505b81811015615bf55780915081506002818285811515615be057fe5b0401811515615beb57fe5b0490508050615bc5565b50615c0d565b600082141515615c0c576001905080505b5b5b919050565b60006000821480615c3357508282838502925082811515615c3057fe5b04145b1515615caa576040517f08c379a000000000000000000000000000000000000000000000000000000000815260040180806020018281038252600c8152602001807f6d756c2d6f766572666c6f77000000000000000000000000000000000000000081526020015060200191505060405180910390fd5b5b92915050565b60007401000000000000000000000000000000000000000082101515615d42576040517f08c379a00000000000000000000000000000000000000000000000000000000081526004018080602001828103825260128152602001807f6d6f7265207468616e203136302062697473000000000000000000000000000081526020015060200191505060405180910390fd5b819050615d4a565b919050565b6000600060008360020b12615d67578260020b615d6f565b8260020b6000035b90507ffffffffffffffffffffffffffffffffffffffffffffffffffffffffffff2761860000360020b8111151515615e12576040517f08c379a00000000000000000000000000000000000000000000000000000000081526004018080602001828103825260018152602001807f540000000000000000000000000000000000000000000000000000000000000081526020015060200191505060405180910390fd5b60006000600183161415615e3757700100000000000000000000000000000000615e49565b6ffffcb933bd6fad37aa2d162d1a5940015b70ffffffffffffffffffffffffffffffffff169050600060028316141515615e875760806ffff97272373d413259a46990580e213a8202901c905080505b600060048316141515615eb05760806ffff2e50f5f656932ef12357cf3c7fdcc8202901c905080505b600060088316141515615ed95760806fffe5caca7e10e4e61c3624eaa0941cd08202901c905080505b600060108316141515615f025760806fffcb9843d60f6159c9db58835c9266448202901c905080505b600060208316141515615f2b5760806fff973b41fa98c081472e6896dfb254c08202901c905080505b600060408316141515615f545760806fff2ea16466c96a3843ec78b326b528618202901c905080505b600060808316141515615f7d5760806ffe5dee046a99a2a811c461f1969c30538202901c905080505b60006101008316141515615fa75760806ffcbe86c7900a88aedcffc83b479aa3a48202901c905080505b60006102008316141515615fd15760806ff987a7253ac413176f2b074cf7815e548202901c905080505b60006104008316141515615ffb5760806ff3392b0822b70005940c7a398e4b70f38202901c905080505b600061080083161415156160255760806fe7159475a2c29b7443b29c7fa6e889d98202901c905080505b6000611000831614151561604f5760806fd097f3bdfd2022b8845ad8f792aa58258202901c905080505b600061200083161415156160795760806fa9f746462d870fdf8a65dc1f90e061e58202901c905080505b600061400083161415156160a35760806f70d869a156d2a1b890bb3df62baf32f78202901c905080505b600061800083161415156160cd5760806f31be135f97d08fd981231505542fcfa68202901c905080505b60006201000083161415156160f85760806f09aa508b5b7a84e1c677de54f3e99bc98202901c905080505b60006202000083161415156161225760806e5d6af8dedb81196699c329225ee6048202901c905080505b600062040000831614151561614b5760806d2216e584f5fa1ea926041bedfe988202901c905080505b60006208000083161415156161725760806b048a170391f7dc42444e8fa28202901c905080505b60008460020b13156161af57807fffffffffffffffffffffffffffffffffffffffffffffffffffffffffffffffff8115156161a957fe5b04905080505b6000640100000000828115156161c157fe5b06146161ce5760016161d1565b60005b60ff16602082901c019250825050505b919050565b60006000836001016000506000846fffffffffffffffffffffffffffffffff166fffffffffffffffffffffffffffffffff1681526020019081526020016000206000505414159050616233565b92915050565b6040518060800160405280600081526020016000815260200160008152602001600081526020015090565b604051806101a001604052806000815260200160008152602001600081526020016000815260200160008152602001600067ffffffffffffffff168152602001600067ffffffffffffffff168152602001600060020b8152602001600015158152602001600067ffffffffffffffff168152602001600063ffffffff168152602001600073ffffffffffffffffffffffffffffffffffffffff168152602001600067ffffffffffffffff1681526020015090565b604051806040016040528060008152602001600081526020015090565b828054600181600116156101000203166002900490600052602060002090601f01602090048101928261636b57600085556163b7565b82601f1061638457805160ff19168380011785556163b7565b828001600101855582156163b7579182015b828111156163b65782518260005090905591602001919060010190616396565b5b5090506163c491906164f0565b5090565b6040518060a00160405280600073ffffffffffffffffffffffffffffffffffffffff168152602001600067ffffffffffffffff1681526020016000600381111561640e57fe5b8152602001600062ffffff168152602001606081526020015090565b604051806101800160405280600073ffffffffffffffffffffffffffffffffffffffff168152602001600061ffff16815260200160008152602001600081526020016000815260200160006fffffffffffffffffffffffffffffffff168152602001600067ffffffffffffffff168152602001600060020b8152602001600060020b8152602001600063ffffffff168152602001600073ffffffffffffffffffffffffffffffffffffffff168152602001600067ffffffffffffffff1681526020015090565b6164f5565b8082111561650f57600081815060009055506001016164f5565b509056617826565b600081359050616526816177aa565b5b919050565b60008151905061653b816177aa565b5b919050565b600081359050801515811415156165585760006000fd5b5b919050565b60008135905061656d816177d3565b5b919050565b600081519050616582816177d3565b5b919050565b600081359050616597816177e9565b5b919050565b6000815190506165ac816177e9565b5b919050565b60008135905061ffff8116811415156165cb5760006000fd5b5b919050565b6000815190506165e08161780e565b5b919050565b60008135905063ffffffff8116811415156166015760006000fd5b5b919050565b60008135905067ffffffffffffffff8116811415156166265760006000fd5b5b919050565b60006020828403121561663d578081fd5b8135616648816177aa565b809150505b92915050565b6000600060408385031215616666578081fd5b8235616671816177aa565b80925050602083013590505b9250929050565b600060006000600060006080868803121561669d578081fd5b85356166a8816177aa565b8095505060208601356166ba816177aa565b8094505060408601359250606086013567ffffffffffffffff808211156166df578283fd5b818801915088601f83011215156166f4578283fd5b813581811115616702578384fd5b896020828501011115616713578384fd5b6020830194508093505050505b9295509295909350565b600060006040838503121561673d578182fd5b8235616748816177aa565b80925050602083013590505b9250929050565b6000602080838503121561676d578182fd5b823567ffffffffffffffff80821115616784578384fd5b818501915085601f8301121515616799578384fd5b8135818111156167a557fe5b83810291506167b584830161777f565b80828252858201915085850189878688010111156167d1578788fd5b8795505b838610156167fe576167e6816165e6565b8352868301925086810190505b6001860195506167d5565b508096505050505050505b92915050565b600060208284031215616820578081fd5b81357fffffffff00000000000000000000000000000000000000000000000000000000811681141515616851578182fd5b809150505b92915050565b60006020828403121561686d578081fd5b8151616878816177aa565b809150505b92915050565b600060208284031215616894578081fd5b815161689f816177aa565b809150505b92915050565b6000602082840312156168bb578081fd5b81356168c6816177aa565b809150505b92915050565b60006000604083850312156168e4578182fd5b82356168ef816177aa565b80925050602083013590505b9250929050565b600060208284031215616913578081fd5b813561691e816177d3565b809150505b92915050565b600060006040838503121561693c578182fd5b8235616947816177d3565b809250506020830135616959816177d3565b809150505b9250929050565b600060808284031215616976578081fd5b6040516080810181811067ffffffffffffffff8211171561699357fe5b806040525082358152602083013560208201526040830135604082015260608301356060820152809150505b92915050565b6000602082840312156169d6578081fd5b6169df826165b2565b90505b92915050565b6000600082840360608112156169fc578283fd5b616a05846165b2565b925060407fffffffffffffffffffffffffffffffffffffffffffffffffffffffffffffffe082011215616a36578182fd5b506040516040810181811067ffffffffffffffff82111715616a5457fe5b80604052506020840135815260408401356020820152809150505b9250929050565b600060208284031215616a87578081fd5b813590505b92915050565b600060208284031215616aa3578081fd5b815190505b92915050565b600060008284036101a0811215616ac3578283fd5b83359250610180807fffffffffffffffffffffffffffffffffffffffffffffffffffffffffffffffe083011215616af8578283fd5b616b018161777f565b9150616b0f60208601616517565b8252616b1d604086016165b2565b6020830152606085013560408301526080850135606083015260a08501356080830152616b4c60c08601616588565b60a0830152616b5d60e08601616607565b60c0830152610100616b7081870161655e565b60e0840152610120616b8381880161655e565b828501526101409150616b978288016165e6565b8185015250610160616baa818801616517565b82850152616bb9838801616607565b81850152505050809150505b9250929050565b6000600060408385031215616bdf578182fd5b82359150602083013590505b9250929050565b6000600060408385031215616c05578182fd5b616c0e836165e6565b915060208084013567ffffffffffffffff80821115616c2b578384fd5b818601915086601f8301121515616c40578384fd5b813581811115616c4c57fe5b616c7c847fffffffffffffffffffffffffffffffffffffffffffffffffffffffffffffffe0601f8401160161777f565b91508082528784828501011115616c91578485fd5b808484018584013784848284010152508093505050505b9250929050565b6000600060408385031215616cc2578182fd5b616ccb836165e6565b9150616cd9602084016165e6565b90505b9250929050565b600060208284031215616cf4578081fd5b616cfd82616607565b90505b92915050565b600060008284036101c0811215616d1b578283fd5b616d2484616607565b92506101a0807fffffffffffffffffffffffffffffffffffffffffffffffffffffffffffffffe083011215616d57578283fd5b616d608161777f565b91506020850135825260408501356020830152606085013560408301526080850135606083015260a08501356080830152616d9d60c08601616607565b60a0830152616dae60e08601616607565b60c0830152610100616dc181870161655e565b60e0840152610120616dd4818801616541565b828501526101409150616de8828801616607565b8185015250610160616dfb8188016165e6565b828501526101809150616e0f828801616517565b8185015250616e1f828701616607565b818401525050809150505b9250929050565b6000600060408385031215616e44578182fd5b616e4d83616607565b91506020830135616e5d8161780e565b809150505b9250929050565b6000600060006000600060006000600060006000600060006101808d8f031215616e9157898afd5b8c516bffffffffffffffffffffffff811681141515616eae578a8bfd5b809c5050616ebe60208e0161652c565b9a50616ecc60408e0161652c565b9950616eda60608e0161652c565b9850616ee860808e016165d1565b9750616ef660a08e01616573565b9650616f0460c08e01616573565b9550616f1260e08e0161659d565b94506101008d015193506101208d01519250616f316101408e0161659d565b9150616f406101608e0161659d565b90505b9295989b509295989b509295989b565b73ffffffffffffffffffffffffffffffffffffffff811682525b5050565b80151582525b5050565b600481101515616f8757fe5b8082525b5050565b8060020b82525b5050565b60008151808452815b81811015616fc6576020808286010151818388010152505b602081019050616fa3565b81811115616fd75782602083870101525b5060207fffffffffffffffffffffffffffffffffffffffffffffffffffffffffffffffe0601f8301168501019150505b92915050565b6fffffffffffffffffffffffffffffffff811682525b5050565b61ffff811682525b5050565b63ffffffff811682525b5050565b67ffffffffffffffff811682525b5050565b600060208201905073ffffffffffffffffffffffffffffffffffffffff831682525b92915050565b600060208201905073ffffffffffffffffffffffffffffffffffffffff831682525b92915050565b600060408201905073ffffffffffffffffffffffffffffffffffffffff8416825282151560208301525b9392505050565b600073ffffffffffffffffffffffffffffffffffffffff8716825267ffffffffffffffff8616602083015261710c6040830186616f7b565b62ffffff8416606083015260a0608083015261712b60a0830184616f9a565b90505b9695505050505050565b6000602080830181845280855180835260409250828601915082848202870101848801865b83811015617211577fffffffffffffffffffffffffffffffffffffffffffffffffffffffffffffffc0898403018552815160a073ffffffffffffffffffffffffffffffffffffffff825116855267ffffffffffffffff898301511689860152878201516171cc89870182616f7b565b50606062ffffff8184015116818701525060808083015192508181870152506171f781860183616f9a565b94505050868201915086850194505b60018101905061715d565b505080955050505050505b92915050565b600060208083018184528085518083526040860191508387019250845b81811015617273576fffffffffffffffffffffffffffffffff8451168352848301925084840193505b60018101905061723f565b50508093505050505b92915050565b600060208083018184528085518083526040860191508387019250845b818110156172c75763ffffffff8451168352848301925084840193505b60018101905061729f565b50508093505050505b92915050565b600060208083018184528085518083526040860191508387019250845b8181101561731f5767ffffffffffffffff8451168352848301925084840193505b6001810190506172f3565b50508093505050505b92915050565b600060208201905082151582525b92915050565b60006020820190507fffffffff00000000000000000000000000000000000000000000000000000000831682525b92915050565b600060208201905073ffffffffffffffffffffffffffffffffffffffff831682525b92915050565b600060208201905073ffffffffffffffffffffffffffffffffffffffff831682525b92915050565b600060208201905073ffffffffffffffffffffffffffffffffffffffff831682525b92915050565b60006020820190508260020b82525b92915050565b6000602082526174166020830184616f9a565b90505b92915050565b600060208252600c60208301527f506f736974696f6e20444e45000000000000000000000000000000000000000060408301526060820190505b919050565b600060208252601760208301527f4465627420776974686f757420636f6c6c61746572616c00000000000000000060408301526060820190505b919050565b600060208252601d60208301527f446f6573206e6f7420616363657074204e465473206469726563746c7900000060408301526060820190505b919050565b600060208252601560208301527f4d6178206b69636b6261636b206578636565646564000000000000000000000060408301526060820190505b919050565b60006101a082019050825182526020830151602083015260408301516040830152606083015160608301526080830151608083015260a083015161756260a0840182617041565b5060c083015161757560c0840182617041565b5060e083015161758860e0840182616f8f565b506101008084015161759c82850182616f71565b5050610120808401516175b182850182617041565b5050610140808401516175c682850182617033565b5050610160808401516175db82850182616f53565b5050610180808401516175f082850182617041565b50505b92915050565b60006101808201905061760d828451616f53565b602083015161761f6020840182617027565b5060408301516040830152606083015160608301526080830151608083015260a083015161765060a084018261700d565b5060c083015161766360c0840182617041565b5060e083015161767660e0840182616f8f565b506101008084015161768a82850182616f8f565b50506101208084015161769f82850182617033565b5050610140808401516176b482850182616f53565b5050610160808401516176c982850182617041565b50505b92915050565b600060408201905082518252602083015160208301525b92915050565b6000608082019050825182526020830151602083015260408301516040830152606083015160608301525b92915050565b60006020820190508282525b92915050565b60006040820190508382528260208301525b9392505050565b600060208201905063ffffffff831682525b92915050565b600060208201905067ffffffffffffffff831682525b92915050565b6000604051905081810181811067ffffffffffffffff8211171561779f57fe5b80604052505b919050565b73ffffffffffffffffffffffffffffffffffffffff8116811415156177cf5760006000fd5b5b50565b8060020b811415156177e55760006000fd5b5b50565b6fffffffffffffffffffffffffffffffff81168114151561780a5760006000fd5b5b50565b62ffffff8116811415156178225760006000fd5b5b50565bfea26469706673582212206fc9e52bfa6d40363bb09aa9ecdfb7b85a5d73ddb7617cb6b339fccb096540c164736f6c63430007060033",
  "linkReferences": {},
  "deployedLinkReferences": {}
}