{
  "_format": "hh-sol-artifact-1",
  "contractName": "AccountingTestable",
  "sourceName": "contracts/mocks/AccountingTestable.sol",
  "abi": [
    {
      "inputs": [
        {
          "components": [
            {
              "internalType": "contract IGovernor",
              "name": "Governor",
              "type": "address"
            },
            {
              "internalType": "contract IHue",
              "name": "Hue",
              "type": "address"
            },
            {
              "internalType": "contract INonfungiblePositionManager",
              "name": "NftPositionManager",
              "type": "address"
            }
          ],
          "internalType": "struct IAccounting.ConstructorParams",
          "name": "params",
          "type": "tuple"
        }
      ],
      "stateMutability": "nonpayable",
      "type": "constructor"
    },
    {
      "anonymous": false,
      "inputs": [],
      "name": "DebtPositionIndexingDisabled",
      "type": "event"
    },
    {
      "anonymous": false,
      "inputs": [],
      "name": "PoolPositionIndexingDisabled",
      "type": "event"
    },
    {
      "anonymous": false,
      "inputs": [],
      "name": "Stopped",
      "type": "event"
    },
    {
      "anonymous": false,
      "inputs": [
        {
          "indexed": true,
          "internalType": "uint32",
          "name": "interfaceID",
          "type": "uint32"
        },
        {
          "indexed": true,
          "internalType": "address",
          "name": "kickbackDestination",
          "type": "address"
        },
        {
          "indexed": false,
          "internalType": "string",
          "name": "ipfsHash",
          "type": "string"
        }
      ],
      "name": "UIInitialized",
      "type": "event"
    },
    {
      "anonymous": false,
      "inputs": [
        {
          "indexed": true,
          "internalType": "uint32",
          "name": "interfaceID",
          "type": "uint32"
        },
        {
          "indexed": true,
          "internalType": "address",
          "name": "kickbackDestination",
          "type": "address"
        },
        {
          "indexed": true,
          "internalType": "uint24",
          "name": "tags",
          "type": "uint24"
        },
        {
          "indexed": false,
          "internalType": "uint256",
          "name": "kickbackPortion",
          "type": "uint256"
        }
      ],
      "name": "UIRegistered",
      "type": "event"
    },
    {
      "anonymous": false,
      "inputs": [
        {
          "indexed": false,
          "internalType": "uint32[]",
          "name": "uis",
          "type": "uint32[]"
        }
      ],
      "name": "UIsApproved",
      "type": "event"
    },
    {
      "anonymous": false,
      "inputs": [
        {
          "indexed": false,
          "internalType": "uint32[]",
          "name": "uis",
          "type": "uint32[]"
        }
      ],
      "name": "UIsDisapproved",
      "type": "event"
    },
    {
      "inputs": [],
      "name": "TICK_SPACING",
      "outputs": [
        {
          "internalType": "int24",
          "name": "",
          "type": "int24"
        }
      ],
      "stateMutability": "view",
      "type": "function"
    },
    {
      "inputs": [
        {
          "internalType": "address",
          "name": "owner",
          "type": "address"
        },
        {
          "internalType": "uint256",
          "name": "nftID",
          "type": "uint256"
        }
      ],
      "name": "__addPositionToIndex",
      "outputs": [],
      "stateMutability": "nonpayable",
      "type": "function"
    },
    {
      "inputs": [
        {
          "internalType": "address",
          "name": "owner",
          "type": "address"
        },
        {
          "internalType": "uint256",
          "name": "nftID",
          "type": "uint256"
        }
      ],
      "name": "addPositionToIndex",
      "outputs": [],
      "stateMutability": "nonpayable",
      "type": "function"
    },
    {
      "inputs": [
        {
          "internalType": "uint32[]",
          "name": "ids",
          "type": "uint32[]"
        }
      ],
      "name": "approveUIs",
      "outputs": [],
      "stateMutability": "nonpayable",
      "type": "function"
    },
    {
      "inputs": [],
      "name": "debt",
      "outputs": [
        {
          "internalType": "uint256",
          "name": "",
          "type": "uint256"
        }
      ],
      "stateMutability": "view",
      "type": "function"
    },
    {
      "inputs": [],
      "name": "debtPositionIndexingEnabled",
      "outputs": [
        {
          "internalType": "bool",
          "name": "",
          "type": "bool"
        }
      ],
      "stateMutability": "view",
      "type": "function"
    },
    {
      "inputs": [
        {
          "internalType": "uint256",
          "name": "count",
          "type": "uint256"
        }
      ],
      "name": "decreaseDebt",
      "outputs": [],
      "stateMutability": "nonpayable",
      "type": "function"
    },
    {
      "inputs": [
        {
          "internalType": "contract IUniswapV3Pool",
          "name": "pool",
          "type": "address"
        },
        {
          "internalType": "uint256",
          "name": "liquidity",
          "type": "uint256"
        }
      ],
      "name": "decreasePoolLiquidity",
      "outputs": [],
      "stateMutability": "nonpayable",
      "type": "function"
    },
    {
      "inputs": [
        {
          "internalType": "uint256",
          "name": "nftID",
          "type": "uint256"
        }
      ],
      "name": "deletePoolPosition",
      "outputs": [],
      "stateMutability": "nonpayable",
      "type": "function"
    },
    {
      "inputs": [],
      "name": "deployer",
      "outputs": [
        {
          "internalType": "address",
          "name": "",
          "type": "address"
        }
      ],
      "stateMutability": "view",
      "type": "function"
    },
    {
      "inputs": [
        {
          "internalType": "uint32[]",
          "name": "ids",
          "type": "uint32[]"
        }
      ],
      "name": "disapproveUIs",
      "outputs": [],
      "stateMutability": "nonpayable",
      "type": "function"
    },
    {
      "inputs": [
        {
          "internalType": "uint64",
          "name": "positionID",
          "type": "uint64"
        }
      ],
      "name": "getBasicPositionInfo",
      "outputs": [
        {
          "internalType": "uint256",
          "name": "debtCount",
          "type": "uint256"
        },
        {
          "internalType": "uint256",
          "name": "collateralCount",
          "type": "uint256"
        }
      ],
      "stateMutability": "view",
      "type": "function"
    },
    {
      "inputs": [
        {
          "internalType": "uint256",
          "name": "nftID",
          "type": "uint256"
        }
      ],
      "name": "getPoolPosition",
      "outputs": [
        {
          "components": [
            {
              "internalType": "address",
              "name": "owner",
              "type": "address"
            },
            {
              "internalType": "uint16",
              "name": "poolID",
              "type": "uint16"
            },
            {
              "internalType": "uint256",
              "name": "cumulativeLiquidity",
              "type": "uint256"
            },
            {
              "internalType": "uint256",
              "name": "totalRewards",
              "type": "uint256"
            },
            {
              "internalType": "uint256",
              "name": "lastBlockPositionIncreased",
              "type": "uint256"
            },
            {
              "internalType": "uint128",
              "name": "liquidity",
              "type": "uint128"
            },
            {
              "internalType": "uint64",
              "name": "lastTimeRewarded",
              "type": "uint64"
            },
            {
              "internalType": "int24",
              "name": "tickLower",
              "type": "int24"
            },
            {
              "internalType": "int24",
              "name": "tickUpper",
              "type": "int24"
            },
            {
              "internalType": "uint32",
              "name": "ui",
              "type": "uint32"
            },
            {
              "internalType": "address",
              "name": "kickbackDestination",
              "type": "address"
            },
            {
              "internalType": "uint64",
              "name": "kickbackPortion",
              "type": "uint64"
            }
          ],
          "internalType": "struct IAccounting.PoolPosition",
          "name": "pp",
          "type": "tuple"
        }
      ],
      "stateMutability": "view",
      "type": "function"
    },
    {
      "inputs": [
        {
          "internalType": "address",
          "name": "owner",
          "type": "address"
        }
      ],
      "name": "getPoolPositionNftIdsByOwner",
      "outputs": [
        {
          "internalType": "uint128[]",
          "name": "",
          "type": "uint128[]"
        }
      ],
      "stateMutability": "view",
      "type": "function"
    },
    {
      "inputs": [
        {
          "internalType": "uint64",
          "name": "positionID",
          "type": "uint64"
        }
      ],
      "name": "getPosition",
      "outputs": [
        {
          "components": [
            {
              "internalType": "uint256",
              "name": "startCumulativeDebt",
              "type": "uint256"
            },
            {
              "internalType": "uint256",
              "name": "collateral",
              "type": "uint256"
            },
            {
              "internalType": "uint256",
              "name": "debt",
              "type": "uint256"
            },
            {
              "internalType": "uint256",
              "name": "startDebtExchangeRate",
              "type": "uint256"
            },
            {
              "internalType": "uint256",
              "name": "startTCPRewards",
              "type": "uint256"
            },
            {
              "internalType": "uint64",
              "name": "lastTimeUpdated",
              "type": "uint64"
            },
            {
              "internalType": "uint64",
              "name": "lastBorrowTime",
              "type": "uint64"
            },
            {
              "internalType": "int24",
              "name": "tick",
              "type": "int24"
            },
            {
              "internalType": "bool",
              "name": "tickSet",
              "type": "bool"
            },
            {
              "internalType": "uint64",
              "name": "tickIndex",
              "type": "uint64"
            },
            {
              "internalType": "uint32",
              "name": "ui",
              "type": "uint32"
            },
            {
              "internalType": "address",
              "name": "kickbackDestination",
              "type": "address"
            },
            {
              "internalType": "uint64",
              "name": "kickbackPortion",
              "type": "uint64"
            }
          ],
          "internalType": "struct IAccounting.DebtPosition",
          "name": "dp",
          "type": "tuple"
        }
      ],
      "stateMutability": "view",
      "type": "function"
    },
    {
      "inputs": [
        {
          "internalType": "contract IUniswapV3Pool",
          "name": "pool",
          "type": "address"
        }
      ],
      "name": "getRewardStatus",
      "outputs": [
        {
          "components": [
            {
              "internalType": "uint256",
              "name": "totalRewards",
              "type": "uint256"
            },
            {
              "internalType": "uint256",
              "name": "cumulativeLiquidity",
              "type": "uint256"
            }
          ],
          "internalType": "struct IAccounting.RewardStatus",
          "name": "",
          "type": "tuple"
        }
      ],
      "stateMutability": "view",
      "type": "function"
    },
    {
      "inputs": [],
      "name": "getSystemDebtInfo",
      "outputs": [
        {
          "components": [
            {
              "internalType": "uint256",
              "name": "debt",
              "type": "uint256"
            },
            {
              "internalType": "uint256",
              "name": "totalTCPRewards",
              "type": "uint256"
            },
            {
              "internalType": "uint256",
              "name": "cumulativeDebt",
              "type": "uint256"
            },
            {
              "internalType": "uint256",
              "name": "debtExchangeRate",
              "type": "uint256"
            }
          ],
          "internalType": "struct IAccounting.SystemDebtInfo",
          "name": "",
          "type": "tuple"
        }
      ],
      "stateMutability": "view",
      "type": "function"
    },
    {
      "inputs": [
        {
          "internalType": "uint256",
          "name": "collateralCount",
          "type": "uint256"
        },
        {
          "internalType": "uint256",
          "name": "debtCount",
          "type": "uint256"
        }
      ],
      "name": "getTick",
      "outputs": [
        {
          "internalType": "int24",
          "name": "",
          "type": "int24"
        }
      ],
      "stateMutability": "pure",
      "type": "function"
    },
    {
      "inputs": [
        {
          "internalType": "uint32",
          "name": "start",
          "type": "uint32"
        },
        {
          "internalType": "uint32",
          "name": "end",
          "type": "uint32"
        }
      ],
      "name": "getUIs",
      "outputs": [
        {
          "components": [
            {
              "internalType": "address",
              "name": "kickbackDestination",
              "type": "address"
            },
            {
              "internalType": "uint64",
              "name": "kickbackPortion",
              "type": "uint64"
            },
            {
              "internalType": "enum IAccounting.UIGovernanceRating",
              "name": "governanceRating",
              "type": "uint8"
            },
            {
              "internalType": "uint24",
              "name": "tags",
              "type": "uint24"
            },
            {
              "internalType": "string",
              "name": "ipfsHash",
              "type": "string"
            }
          ],
          "internalType": "struct IAccounting.UserInterface[]",
          "name": "uis",
          "type": "tuple[]"
        }
      ],
      "stateMutability": "view",
      "type": "function"
    },
    {
      "inputs": [],
      "name": "governor",
      "outputs": [
        {
          "internalType": "contract IGovernor",
          "name": "",
          "type": "address"
        }
      ],
      "stateMutability": "view",
      "type": "function"
    },
    {
      "inputs": [],
      "name": "hue",
      "outputs": [
        {
          "internalType": "contract IHue",
          "name": "",
          "type": "address"
        }
      ],
      "stateMutability": "view",
      "type": "function"
    },
    {
      "inputs": [
        {
          "internalType": "uint256",
          "name": "count",
          "type": "uint256"
        }
      ],
      "name": "increaseDebt",
      "outputs": [],
      "stateMutability": "nonpayable",
      "type": "function"
    },
    {
      "inputs": [
        {
          "internalType": "uint256",
          "name": "count",
          "type": "uint256"
        }
      ],
      "name": "increaseLentHue",
      "outputs": [],
      "stateMutability": "nonpayable",
      "type": "function"
    },
    {
      "inputs": [
        {
          "internalType": "contract IUniswapV3Pool",
          "name": "pool",
          "type": "address"
        },
        {
          "internalType": "uint256",
          "name": "liquidity",
          "type": "uint256"
        }
      ],
      "name": "increasePoolLiquidity",
      "outputs": [],
      "stateMutability": "nonpayable",
      "type": "function"
    },
    {
      "inputs": [],
      "name": "init",
      "outputs": [],
      "stateMutability": "nonpayable",
      "type": "function"
    },
    {
      "inputs": [
        {
          "internalType": "uint32",
          "name": "interfaceID",
          "type": "uint32"
        },
        {
          "internalType": "string",
          "name": "ipfsHash",
          "type": "string"
        }
      ],
      "name": "initializeUI",
      "outputs": [],
      "stateMutability": "nonpayable",
      "type": "function"
    },
    {
      "inputs": [],
      "name": "lentHue",
      "outputs": [
        {
          "internalType": "uint256",
          "name": "",
          "type": "uint256"
        }
      ],
      "stateMutability": "view",
      "type": "function"
    },
    {
      "inputs": [],
      "name": "nextUserInterfaceID",
      "outputs": [
        {
          "internalType": "uint32",
          "name": "",
          "type": "uint32"
        }
      ],
      "stateMutability": "view",
      "type": "function"
    },
    {
      "inputs": [],
      "name": "nftPositionManager",
      "outputs": [
        {
          "internalType": "contract INonfungiblePositionManager",
          "name": "",
          "type": "address"
        }
      ],
      "stateMutability": "view",
      "type": "function"
    },
    {
      "inputs": [
        {
          "internalType": "address",
          "name": "",
          "type": "address"
        },
        {
          "internalType": "address",
          "name": "",
          "type": "address"
        },
        {
          "internalType": "uint256",
          "name": "",
          "type": "uint256"
        },
        {
          "internalType": "bytes",
          "name": "",
          "type": "bytes"
        }
      ],
      "name": "onERC721Received",
      "outputs": [
        {
          "internalType": "bytes4",
          "name": "",
          "type": "bytes4"
        }
      ],
      "stateMutability": "pure",
      "type": "function"
    },
    {
      "inputs": [
        {
          "internalType": "address",
          "name": "newRewards",
          "type": "address"
        }
      ],
      "name": "onRewardsUpgrade",
      "outputs": [],
      "stateMutability": "nonpayable",
      "type": "function"
    },
    {
      "inputs": [
        {
          "internalType": "contract IUniswapV3Pool",
          "name": "",
          "type": "address"
        }
      ],
      "name": "poolLiquidity",
      "outputs": [
        {
          "internalType": "uint256",
          "name": "",
          "type": "uint256"
        }
      ],
      "stateMutability": "view",
      "type": "function"
    },
    {
      "inputs": [],
      "name": "poolPositionIndexingEnabled",
      "outputs": [
        {
          "internalType": "bool",
          "name": "",
          "type": "bool"
        }
      ],
      "stateMutability": "view",
      "type": "function"
    },
    {
      "inputs": [
        {
          "internalType": "int24",
          "name": "tick",
          "type": "int24"
        }
      ],
      "name": "positionsForTick",
      "outputs": [
        {
          "internalType": "uint64[]",
          "name": "",
          "type": "uint64[]"
        }
      ],
      "stateMutability": "view",
      "type": "function"
    },
    {
      "inputs": [
        {
          "internalType": "uint64",
          "name": "kickbackPortion",
          "type": "uint64"
        },
        {
          "internalType": "uint24",
          "name": "tags",
          "type": "uint24"
        }
      ],
      "name": "registerUI",
      "outputs": [
        {
          "internalType": "uint32",
          "name": "",
          "type": "uint32"
        }
      ],
      "stateMutability": "nonpayable",
      "type": "function"
    },
    {
      "inputs": [
        {
          "internalType": "address payable",
          "name": "dest",
          "type": "address"
        },
        {
          "internalType": "uint256",
          "name": "count",
          "type": "uint256"
        }
      ],
      "name": "sendCollateral",
      "outputs": [],
      "stateMutability": "nonpayable",
      "type": "function"
    },
    {
      "inputs": [
        {
          "internalType": "address",
          "name": "dest",
          "type": "address"
        },
        {
          "internalType": "uint256",
          "name": "count",
          "type": "uint256"
        }
      ],
      "name": "sendLentHue",
      "outputs": [],
      "stateMutability": "nonpayable",
      "type": "function"
    },
    {
      "inputs": [
        {
          "internalType": "uint256",
          "name": "nftID",
          "type": "uint256"
        },
        {
          "components": [
            {
              "internalType": "address",
              "name": "owner",
              "type": "address"
            },
            {
              "internalType": "uint16",
              "name": "poolID",
              "type": "uint16"
            },
            {
              "internalType": "uint256",
              "name": "cumulativeLiquidity",
              "type": "uint256"
            },
            {
              "internalType": "uint256",
              "name": "totalRewards",
              "type": "uint256"
            },
            {
              "internalType": "uint256",
              "name": "lastBlockPositionIncreased",
              "type": "uint256"
            },
            {
              "internalType": "uint128",
              "name": "liquidity",
              "type": "uint128"
            },
            {
              "internalType": "uint64",
              "name": "lastTimeRewarded",
              "type": "uint64"
            },
            {
              "internalType": "int24",
              "name": "tickLower",
              "type": "int24"
            },
            {
              "internalType": "int24",
              "name": "tickUpper",
              "type": "int24"
            },
            {
              "internalType": "uint32",
              "name": "ui",
              "type": "uint32"
            },
            {
              "internalType": "address",
              "name": "kickbackDestination",
              "type": "address"
            },
            {
              "internalType": "uint64",
              "name": "kickbackPortion",
              "type": "uint64"
            }
          ],
          "internalType": "struct IAccounting.PoolPosition",
          "name": "pp",
          "type": "tuple"
        }
      ],
      "name": "setPoolPosition",
      "outputs": [],
      "stateMutability": "nonpayable",
      "type": "function"
    },
    {
      "inputs": [
        {
          "internalType": "uint64",
          "name": "positionID",
          "type": "uint64"
        },
        {
          "components": [
            {
              "internalType": "uint256",
              "name": "startCumulativeDebt",
              "type": "uint256"
            },
            {
              "internalType": "uint256",
              "name": "collateral",
              "type": "uint256"
            },
            {
              "internalType": "uint256",
              "name": "debt",
              "type": "uint256"
            },
            {
              "internalType": "uint256",
              "name": "startDebtExchangeRate",
              "type": "uint256"
            },
            {
              "internalType": "uint256",
              "name": "startTCPRewards",
              "type": "uint256"
            },
            {
              "internalType": "uint64",
              "name": "lastTimeUpdated",
              "type": "uint64"
            },
            {
              "internalType": "uint64",
              "name": "lastBorrowTime",
              "type": "uint64"
            },
            {
              "internalType": "int24",
              "name": "tick",
              "type": "int24"
            },
            {
              "internalType": "bool",
              "name": "tickSet",
              "type": "bool"
            },
            {
              "internalType": "uint64",
              "name": "tickIndex",
              "type": "uint64"
            },
            {
              "internalType": "uint32",
              "name": "ui",
              "type": "uint32"
            },
            {
              "internalType": "address",
              "name": "kickbackDestination",
              "type": "address"
            },
            {
              "internalType": "uint64",
              "name": "kickbackPortion",
              "type": "uint64"
            }
          ],
          "internalType": "struct IAccounting.DebtPosition",
          "name": "dp",
          "type": "tuple"
        }
      ],
      "name": "setPosition",
      "outputs": [],
      "stateMutability": "nonpayable",
      "type": "function"
    },
    {
      "inputs": [
        {
          "internalType": "contract IUniswapV3Pool",
          "name": "pool",
          "type": "address"
        },
        {
          "components": [
            {
              "internalType": "uint256",
              "name": "totalRewards",
              "type": "uint256"
            },
            {
              "internalType": "uint256",
              "name": "cumulativeLiquidity",
              "type": "uint256"
            }
          ],
          "internalType": "struct IAccounting.RewardStatus",
          "name": "rs",
          "type": "tuple"
        }
      ],
      "name": "setRewardStatus",
      "outputs": [],
      "stateMutability": "nonpayable",
      "type": "function"
    },
    {
      "inputs": [
        {
          "components": [
            {
              "internalType": "uint256",
              "name": "debt",
              "type": "uint256"
            },
            {
              "internalType": "uint256",
              "name": "totalTCPRewards",
              "type": "uint256"
            },
            {
              "internalType": "uint256",
              "name": "cumulativeDebt",
              "type": "uint256"
            },
            {
              "internalType": "uint256",
              "name": "debtExchangeRate",
              "type": "uint256"
            }
          ],
          "internalType": "struct IAccounting.SystemDebtInfo",
          "name": "_sdi",
          "type": "tuple"
        }
      ],
      "name": "setSystemDebtInfo",
      "outputs": [],
      "stateMutability": "nonpayable",
      "type": "function"
    },
    {
      "inputs": [
        {
          "internalType": "int24",
          "name": "rawTick",
          "type": "int24"
        },
        {
          "internalType": "int24",
          "name": "tickSpacing",
          "type": "int24"
        }
      ],
      "name": "snapRawTickToSpacing",
      "outputs": [
        {
          "internalType": "int24",
          "name": "",
          "type": "int24"
        }
      ],
      "stateMutability": "pure",
      "type": "function"
    },
    {
      "inputs": [],
      "name": "stopIndexingDebtPositions",
      "outputs": [],
      "stateMutability": "nonpayable",
      "type": "function"
    },
    {
      "inputs": [],
      "name": "stopIndexingPoolPositions",
      "outputs": [],
      "stateMutability": "nonpayable",
      "type": "function"
    },
    {
      "inputs": [],
      "name": "stopped",
      "outputs": [
        {
          "internalType": "bool",
          "name": "",
          "type": "bool"
        }
      ],
      "stateMutability": "view",
      "type": "function"
    },
    {
      "inputs": [],
      "name": "sweepHue",
      "outputs": [],
      "stateMutability": "nonpayable",
      "type": "function"
    },
    {
      "inputs": [
        {
          "internalType": "uint256",
          "name": "",
          "type": "uint256"
        }
      ],
      "name": "userInterfaces",
      "outputs": [
        {
          "internalType": "address",
          "name": "kickbackDestination",
          "type": "address"
        },
        {
          "internalType": "uint64",
          "name": "kickbackPortion",
          "type": "uint64"
        },
        {
          "internalType": "enum IAccounting.UIGovernanceRating",
          "name": "governanceRating",
          "type": "uint8"
        },
        {
          "internalType": "uint24",
          "name": "tags",
          "type": "uint24"
        },
        {
          "internalType": "string",
          "name": "ipfsHash",
          "type": "string"
        }
      ],
      "stateMutability": "view",
      "type": "function"
    },
    {
      "inputs": [
        {
          "internalType": "bytes4",
          "name": "",
          "type": "bytes4"
        }
      ],
      "name": "validUpdate",
      "outputs": [
        {
          "internalType": "bool",
          "name": "",
          "type": "bool"
        }
      ],
      "stateMutability": "view",
      "type": "function"
    },
    {
      "stateMutability": "payable",
      "type": "receive"
    }
  ],
  "bytecode": "0x60e0604052600160026000509090556001600560006101000a81548160ff0219169083151502179055506001600560016101000a81548160ff0219169083151502179055506001600f60006101000a81548163ffffffff021916908363ffffffff160217905550348015620000745760006000fd5b5060405162007e3138038062007e3183398181016040528101906200009a919062000475565b5b805b80600001515b8073ffffffffffffffffffffffffffffffffffffffff1660808173ffffffffffffffffffffffffffffffffffffffff1660601b815260140150505b50806020015173ffffffffffffffffffffffffffffffffffffffff1660c08173ffffffffffffffffffffffffffffffffffffffff1660601b81526014015050806040015173ffffffffffffffffffffffffffffffffffffffff1660a08173ffffffffffffffffffffffffffffffffffffffff1660601b815260140150506200017b670de0b6b3a7640000620003d460201b620035a817909060201c565b600860005060010160106101000a8154816fffffffffffffffffffffffffffffffff02191690836fffffffffffffffffffffffffffffffff16021790555060016001600050600063461054a360e01b7bffffffffffffffffffffffffffffffffffffffffffffffffffffffff19167bffffffffffffffffffffffffffffffffffffffffffffffffffffffff1916815260200190815260200160002060006101000a81548160ff02191690831515021790555060016001600050600063602db56b60e01b7bffffffffffffffffffffffffffffffffffffffffffffffffffffffff19167bffffffffffffffffffffffffffffffffffffffffffffffffffffffff1916815260200190815260200160002060006101000a81548160ff02191690831515021790555060016001600050600063397d359260e01b7bffffffffffffffffffffffffffffffffffffffffffffffffffffffff19167bffffffffffffffffffffffffffffffffffffffffffffffffffffffff1916815260200190815260200160002060006101000a81548160ff021916908315150217905550600160016000506000630b218d2460e01b7bffffffffffffffffffffffffffffffffffffffffffffffffffffffff19167bffffffffffffffffffffffffffffffffffffffffffffffffffffffff1916815260200190815260200160002060006101000a81548160ff02191690831515021790555033600360006101000a81548173ffffffffffffffffffffffffffffffffffffffff021916908373ffffffffffffffffffffffffffffffffffffffff1602179055505b505b5062000511565b60007001000000000000000000000000000000008210151562000462576040517f08c379a00000000000000000000000000000000000000000000000000000000081526004018080602001828103825260128152602001807f6d6f7265207468616e203132382062697473000000000000000000000000000081526020015060200191505060405180910390fd5b8190506200046b565b9190505662000510565b60006060828403121562000487578081fd5b604051606081018181106001600160401b0382111715620004a457fe5b80604052508251620004b681620004f3565b808252506020830151620004ca81620004f3565b806020830152506040830151620004e181620004f3565b80604083015250809150505b92915050565b6001600160a01b038116811415156200050c5760006000fd5b5b50565b5b60805160601c60a05160601c60c05160601c617886620005ab600039806118f852806126d9528061278f52806127b052806127da525080612403528061344e5280614e2852508061031f5280610dc05280610f7c528061131d528061165552806117e95280611ab252806120df52806121f15280612306528061243852806125da528061322b52806137c75280613fea52506178866000f3fe6080604052600436106103175760003560e01c80636594da9f1161019a578063bdb2a496116100e1578063d99f57261161008a578063e2b1e9e311610064578063e2b1e9e314610c33578063f34348f114610c5f578063fd9c749214610c9d576103f6565b8063d99f572614610b9f578063dfff5dc414610bdd578063e1c7392a14610c1b576103f6565b8063c7711db4116100bb578063c7711db414610af7578063d159b4ae14610b35578063d5f3948814610b73576103f6565b8063bdb2a49614610a77578063c0c899ff14610a8f578063c3c837ba14610ab9576103f6565b80638439788811610143578063a678f3361161011d578063a678f336146109e5578063b241bbac14610a0f578063b87e8d5814610a39576103f6565b8063843978881461095157806396122a5c1461097d578063a135ef17146109a7576103f6565b806378efc6b01161017457806378efc6b0146108d15780637f250c61146108fb578063816aaa2514610927576103f6565b80636594da9f1461083c57806375ea13ca1461087b57806375f12b21146108a5576103f6565b806326879a4e1161025e578063461054a3116102075780635a6beaf4116101e15780635a6beaf4146107d0578063602db56b146107fa5780636250216914610812576103f6565b8063461054a31461076257806346ca626b1461077a578063530c1ccb146107a6576103f6565b80632c73f09e116102385780632c73f09e146106e2578063323741741461070c578063397d359214610738576103f6565b806326879a4e146106645780632a7ba1f71461068e5780632b7c7b11146106b8576103f6565b8063113cf1ab116102c057806318a15e791161029a57806318a15e79146105ba5780631cef92b1146105fc578063230173e01461063a576103f6565b8063113cf1ab146105145780631428561d14610552578063150b7a021461057c576103f6565b80630c340a24116102f15780630c340a241461047e5780630dca59c1146104aa5780630f85fc5a146104d6576103f6565b806306ef2d80146103fc578063092a26c3146104285780630b218d2414610454576103f6565b366103f6575b7f000000000000000000000000000000000000000000000000000000000000000073ffffffffffffffffffffffffffffffffffffffff166380f556056040518163ffffffff1660e01b815260040160206040518083038186803b1580156103845760006000fd5b505afa158015610399573d600060003e3d6000fd5b505050506040513d601f19601f820116820180604052508101906103bd91906168a4565b73ffffffffffffffffffffffffffffffffffffffff163373ffffffffffffffffffffffffffffffffffffffff161415156103f357fe5b5b005b60006000fd5b3480156104095760006000fd5b50610412610cc9565b60405161041f9190617718565b60405180910390f35b3480156104355760006000fd5b5061043e610ce9565b60405161044b9190617357565b60405180910390f35b3480156104615760006000fd5b5061047c600480360381019061047791906167a3565b610cfc565b005b34801561048b5760006000fd5b50610494610dbe565b6040516104a1919061739f565b60405180910390f35b3480156104b75760006000fd5b506104c0610de2565b6040516104cd9190617749565b60405180910390f35b3480156104e35760006000fd5b506104fe60048036038101906104f99190616d0c565b610e25565b60405161050b9190617544565b60405180910390f35b3480156105215760006000fd5b5061053c60048036038101906105379190616857565b610f44565b6040516105499190617357565b60405180910390f35b34801561055f5760006000fd5b5061057a600480360381019061057591906169ab565b610f69565b005b3480156105895760006000fd5b506105a4600480360381019061059f91906166cc565b61110a565b6040516105b1919061736b565b60405180910390f35b3480156105c75760006000fd5b506105e260048036038101906105dd9190616a9f565b611150565b6040516105f39594939291906170fd565b60405180910390f35b3480156106095760006000fd5b50610624600480360381019061061f91906168f2565b611274565b60405161063191906176fb565b60405180910390f35b3480156106475760006000fd5b50610662600480360381019061065d9190616772565b6112f5565b005b3480156106715760006000fd5b5061068c60048036038101906106879190616a9f565b61130a565b005b34801561069b5760006000fd5b506106b660048036038101906106b19190616a9f565b61157c565b005b3480156106c55760006000fd5b506106e060048036038101906106db9190616a9f565b611642565b005b3480156106ef5760006000fd5b5061070a60048036038101906107059190616a9f565b6117d6565b005b3480156107195760006000fd5b506107226118f6565b60405161072f91906173c7565b60405180910390f35b3480156107455760006000fd5b50610760600480360381019061075b91906167a3565b61191a565b005b34801561076f5760006000fd5b50610778611a41565b005b3480156107875760006000fd5b50610790611a9a565b60405161079d9190617417565b60405180910390f35b3480156107b35760006000fd5b506107ce60048036038101906107c991906169ab565b611a9f565b005b3480156107dd5760006000fd5b506107f860048036038101906107f39190616d2f565b611c40565b005b3480156108075760006000fd5b50610810611e3b565b005b34801561081f5760006000fd5b5061083a6004803603810190610835919061669b565b611e94565b005b3480156108495760006000fd5b50610864600480360381019061085f9190616d0c565b611f0c565b60405161087292919061775b565b60405180910390f35b3480156108885760006000fd5b506108a3600480360381019061089e9190616772565b6120bf565b005b3480156108b25760006000fd5b506108bb6121cb565b6040516108c89190617357565b60405180910390f35b3480156108de5760006000fd5b506108f960048036038101906108f49190616a3f565b6121de565b005b3480156109085760006000fd5b506109116122ea565b60405161091e9190617749565b60405180910390f35b3480156109345760006000fd5b5061094f600480360381019061094a9190616ad7565b6122f3565b005b34801561095e5760006000fd5b50610967612401565b60405161097491906173ef565b60405180910390f35b34801561098a5760006000fd5b506109a560048036038101906109a09190616919565b612425565b005b3480156109b45760006000fd5b506109cf60048036038101906109ca91906168f2565b61258a565b6040516109dc9190617749565b60405180910390f35b3480156109f25760006000fd5b50610a0d6004803603810190610a089190616674565b6125a5565b005b348015610a1c5760006000fd5b50610a376004803603810190610a329190616772565b6125c7565b005b348015610a465760006000fd5b50610a616004803603810190610a5c9190616674565b612719565b604051610a6e919061724b565b60405180910390f35b348015610a845760006000fd5b50610a8d61277c565b005b348015610a9c5760006000fd5b50610ab76004803603810190610ab29190616c1b565b6128ae565b005b348015610ac65760006000fd5b50610ae16004803603810190610adc9190616cd8565b612a79565b604051610aee9190617161565b60405180910390f35b348015610b045760006000fd5b50610b1f6004803603810190610b1a91906169dc565b612ce8565b604051610b2c91906172ff565b60405180910390f35b348015610b425760006000fd5b50610b5d6004803603810190610b589190616bf5565b612da8565b604051610b6a9190617417565b60405180910390f35b348015610b805760006000fd5b50610b89612e3e565b604051610b96919061707c565b60405180910390f35b348015610bac5760006000fd5b50610bc76004803603810190610bc29190616a03565b612e64565b604051610bd49190617417565b60405180910390f35b348015610bea5760006000fd5b50610c056004803603810190610c009190616e5a565b612ed5565b604051610c129190617774565b60405180910390f35b348015610c285760006000fd5b50610c316131a2565b005b348015610c405760006000fd5b50610c496132d7565b604051610c569190617774565b60405180910390f35b348015610c6c5760006000fd5b50610c876004803603810190610c829190616a9f565b6132ed565b604051610c949190617622565b60405180910390f35b348015610caa5760006000fd5b50610cb3613595565b604051610cc09190617357565b60405180910390f35b610cd1616281565b610cdf61364263ffffffff16565b9050610ce6565b90565b600560009054906101000a900460ff1681565b610d0a6137c263ffffffff16565b6000600090505b8151811015610d81576003601060005060008484815181101515610d3157fe5b602002602001015163ffffffff168152602001908152602001600020600050600001601c6101000a81548160ff02191690836003811115610d6e57fe5b02179055505b8080600101915050610d11565b507f7264e0084cbb7692193b834f40153b973ff4f827f8ed45da32ae6d8e486bb0c781604051610db191906172ab565b60405180910390a15b5b50565b7f000000000000000000000000000000000000000000000000000000000000000081565b6000600860005060010160009054906101000a90046fffffffffffffffffffffffffffffffff166fffffffffffffffffffffffffffffffff169050610e22565b90565b610e2d6162ac565b610e3c8261382263ffffffff16565b90508050600081610140015163ffffffff161115610f37576010600050600082610140015163ffffffff16815260200190815260200160002060005060000160009054906101000a900473ffffffffffffffffffffffffffffffffffffffff1681610160019073ffffffffffffffffffffffffffffffffffffffff16908173ffffffffffffffffffffffffffffffffffffffff16815260200150506010600050600082610140015163ffffffff16815260200190815260200160002060005060000160149054906101000a900467ffffffffffffffff1681610180019067ffffffffffffffff16908167ffffffffffffffff16815260200150505b809050610f3f565b919050565b600160005060205280600052604060002060009150909054906101000a900460ff1681565b610f77613bbe63ffffffff16565b6110537f000000000000000000000000000000000000000000000000000000000000000073ffffffffffffffffffffffffffffffffffffffff16639ec5a8946040518163ffffffff1660e01b815260040160206040518083038186803b158015610fe15760006000fd5b505afa158015610ff6573d600060003e3d6000fd5b505050506040513d601f19601f8201168201806040525081019061101a91906168cb565b73ffffffffffffffffffffffffffffffffffffffff163373ffffffffffffffffffffffffffffffffffffffff1614613c4f63ffffffff16565b6110ab81600d60005060008573ffffffffffffffffffffffffffffffffffffffff1673ffffffffffffffffffffffffffffffffffffffff16815260200190815260200160002060005054613ccb90919063ffffffff16565b600d60005060008473ffffffffffffffffffffffffffffffffffffffff1673ffffffffffffffffffffffffffffffffffffffff1681526020019081526020016000206000508190909055505b611105613d5463ffffffff16565b5b5050565b60006040517f08c379a000000000000000000000000000000000000000000000000000000000815260040161113e906174c6565b60405180910390fd5b95945050505050565b60106000506020528060005260406000206000915090508060000160009054906101000a900473ffffffffffffffffffffffffffffffffffffffff16908060000160149054906101000a900467ffffffffffffffff169080600001601c9054906101000a900460ff169080600001601d9054906101000a900462ffffff1690806001016000508054600181600116156101000203166002900480601f01602080910402602001604051908101604052809291908181526020018280546001816001161561010002031660029004801561126a5780601f1061123f5761010080835404028352916020019161126a565b820191906000526020600020905b81548152906001019060200180831161124d57829003601f168201915b5050505050905085565b61127c616360565b600b60005060008373ffffffffffffffffffffffffffffffffffffffff1673ffffffffffffffffffffffffffffffffffffffff1681526020019081526020016000206000506040518060400160405290816000820160005054815260200160018201600050548152602001505090506112f0565b919050565b6113058282613d6463ffffffff16565b5b5050565b611318613bbe63ffffffff16565b6113f47f000000000000000000000000000000000000000000000000000000000000000073ffffffffffffffffffffffffffffffffffffffff16639ec5a8946040518163ffffffff1660e01b815260040160206040518083038186803b1580156113825760006000fd5b505afa158015611397573d600060003e3d6000fd5b505050506040513d601f19601f820116820180604052508101906113bb91906168cb565b73ffffffffffffffffffffffffffffffffffffffff163373ffffffffffffffffffffffffffffffffffffffff1614613c4f63ffffffff16565b611497611408826135a8909063ffffffff16565b600e6000506000600c600050600086815260200190815260200160002060005060000160009054906101000a900473ffffffffffffffffffffffffffffffffffffffff1673ffffffffffffffffffffffffffffffffffffffff1673ffffffffffffffffffffffffffffffffffffffff168152602001908152602001600020600050613dd190919063ffffffff16565b50600c600050600082815260200190815260200160002060006000820160006101000a81549073ffffffffffffffffffffffffffffffffffffffff02191690556000820160146101000a81549061ffff02191690556000820160166101000a81549063ffffffff021916905560018201600050600090556002820160006101000a81549075ffffffffffffffffffffffffffffffffffffffffffff02191690556002820160166101000a81549064ffffffffff021916905560028201601b6101000a81549064ffffffffff021916905550505b611578613d5463ffffffff16565b5b50565b61158a613bbe63ffffffff16565b611598613fe863ffffffff16565b6115f16115ac826135a8909063ffffffff16565b600860005060010160009054906101000a90046fffffffffffffffffffffffffffffffff166fffffffffffffffffffffffffffffffff1661407690919063ffffffff16565b600860005060010160006101000a8154816fffffffffffffffffffffffffffffffff02191690836fffffffffffffffffffffffffffffffff1602179055505b61163e613d5463ffffffff16565b5b50565b611650613bbe63ffffffff16565b61172c7f000000000000000000000000000000000000000000000000000000000000000073ffffffffffffffffffffffffffffffffffffffff166380f556056040518163ffffffff1660e01b815260040160206040518083038186803b1580156116ba5760006000fd5b505afa1580156116cf573d600060003e3d6000fd5b505050506040513d601f19601f820116820180604052508101906116f391906168a4565b73ffffffffffffffffffffffffffffffffffffffff163373ffffffffffffffffffffffffffffffffffffffff1614613c4f63ffffffff16565b611785611740826135a8909063ffffffff16565b600860005060010160009054906101000a90046fffffffffffffffffffffffffffffffff166fffffffffffffffffffffffffffffffff1661412390919063ffffffff16565b600860005060010160006101000a8154816fffffffffffffffffffffffffffffffff02191690836fffffffffffffffffffffffffffffffff1602179055505b6117d2613d5463ffffffff16565b5b50565b6117e4613bbe63ffffffff16565b6118c07f000000000000000000000000000000000000000000000000000000000000000073ffffffffffffffffffffffffffffffffffffffff166380f556056040518163ffffffff1660e01b815260040160206040518083038186803b15801561184e5760006000fd5b505afa158015611863573d600060003e3d6000fd5b505050506040513d601f19601f8201168201806040525081019061188791906168a4565b73ffffffffffffffffffffffffffffffffffffffff163373ffffffffffffffffffffffffffffffffffffffff1614613c4f63ffffffff16565b6118d881600760005054613ccb90919063ffffffff16565b60076000508190909055505b6118f2613d5463ffffffff16565b5b50565b7f000000000000000000000000000000000000000000000000000000000000000081565b6119286137c263ffffffff16565b6000600090505b8151811015611a04576000600381111561194557fe5b60106000506000848481518110151561195a57fe5b602002602001015163ffffffff168152602001908152602001600020600050600001601c9054906101000a900460ff16600381111561199557fe5b1415156119f65760026010600050600084848151811015156119b357fe5b602002602001015163ffffffff168152602001908152602001600020600050600001601c6101000a81548160ff021916908360038111156119f057fe5b02179055505b5b808060010191505061192f565b507f2e54370527117fb69828eac075cb3ed33fe59712134dfd3ef6efc9bd8b60c1ec81604051611a3491906172ab565b60405180910390a15b5b50565b611a4f6137c263ffffffff16565b6000600560006101000a81548160ff0219169083151502179055507f262b602ad12e3e551a407d5246b500f4ca5a01cc76bbf03e925db643a62a692f60405160405180910390a15b5b565b60c881565b611aad613bbe63ffffffff16565b611b897f000000000000000000000000000000000000000000000000000000000000000073ffffffffffffffffffffffffffffffffffffffff16639ec5a8946040518163ffffffff1660e01b815260040160206040518083038186803b158015611b175760006000fd5b505afa158015611b2c573d600060003e3d6000fd5b505050506040513d601f19601f82011682018060405250810190611b5091906168cb565b73ffffffffffffffffffffffffffffffffffffffff163373ffffffffffffffffffffffffffffffffffffffff1614613c4f63ffffffff16565b611be181600d60005060008573ffffffffffffffffffffffffffffffffffffffff1673ffffffffffffffffffffffffffffffffffffffff168152602001908152602001600020600050546141d090919063ffffffff16565b600d60005060008473ffffffffffffffffffffffffffffffffffffffff1673ffffffffffffffffffffffffffffffffffffffff1681526020019081526020016000206000508190909055505b611c3b613d5463ffffffff16565b5b5050565b611c4e613bbe63ffffffff16565b611c5c613fe863ffffffff16565b600560009054906101000a900460ff168015611c83575060008267ffffffffffffffff1614155b15611c9d57611c98828261425963ffffffff16565b905080505b60008160200151148015611cb5575060008160400151145b15611e1657600460005060008367ffffffffffffffff1667ffffffffffffffff168152602001908152602001600020600060008201600050600090556001820160006101000a8154906fffffffffffffffffffffffffffffffff02191690556001820160106101000a8154906fffffffffffffffffffffffffffffffff02191690556002820160006101000a8154906fffffffffffffffffffffffffffffffff02191690556002820160106101000a8154906fffffffffffffffffffffffffffffffff02191690556003820160006101000a81549067ffffffffffffffff02191690556003820160086101000a81549067ffffffffffffffff02191690556003820160106101000a81549062ffffff02191690556003820160136101000a81549060ff02191690556003820160146101000a81549067ffffffffffffffff021916905560038201601c6101000a81549063ffffffff02191690555050611e27565b611e26828261461463ffffffff16565b5b5b611e36613d5463ffffffff16565b5b5050565b611e496137c263ffffffff16565b6000600560016101000a81548160ff0219169083151502179055507fc4f6661464541d662c51191d4da5a7a1cc8bca2631698fd030e21b52520a549c60405160405180910390a15b5b565b611ea2613bbe63ffffffff16565b611eb0613fe863ffffffff16565b8173ffffffffffffffffffffffffffffffffffffffff166108fc829081150290604051600060405180830381858888f19350505050158015611ef7573d600060003e3d6000fd5b505b611f07613d5463ffffffff16565b5b5050565b60006000600460005060008467ffffffffffffffff1667ffffffffffffffff16815260200190815260200160002060005060010160109054906101000a90046fffffffffffffffffffffffffffffffff166fffffffffffffffffffffffffffffffff1691508150600460005060008467ffffffffffffffff1667ffffffffffffffff16815260200190815260200160002060005060010160009054906101000a90046fffffffffffffffffffffffffffffffff166fffffffffffffffffffffffffffffffff16905080506000600460005060008567ffffffffffffffff1667ffffffffffffffff16815260200190815260200160002060005060020160009054906101000a90046fffffffffffffffffffffffffffffffff166fffffffffffffffffffffffffffffffff16905060008314806120485750600081145b1561205957828292509250506120ba565b6000600860005060010160109054906101000a90046fffffffffffffffffffffffffffffffff166fffffffffffffffffffffffffffffffff16905080821415156120b7576120b28183866149829092919063ffffffff16565b935083505b50505b915091565b600560019054906101000a900460ff1615156120da576121c7565b6121b67f000000000000000000000000000000000000000000000000000000000000000073ffffffffffffffffffffffffffffffffffffffff16639ec5a8946040518163ffffffff1660e01b815260040160206040518083038186803b1580156121445760006000fd5b505afa158015612159573d600060003e3d6000fd5b505050506040513d601f19601f8201168201806040525081019061217d91906168cb565b73ffffffffffffffffffffffffffffffffffffffff163373ffffffffffffffffffffffffffffffffffffffff1614613c4f63ffffffff16565b6121c68282613d6463ffffffff16565b5b5050565b600060009054906101000a900460ff1681565b6121ec613bbe63ffffffff16565b6122c87f000000000000000000000000000000000000000000000000000000000000000073ffffffffffffffffffffffffffffffffffffffff166380f556056040518163ffffffff1660e01b815260040160206040518083038186803b1580156122565760006000fd5b505afa15801561226b573d600060003e3d6000fd5b505050506040513d601f19601f8201168201806040525081019061228f91906168a4565b73ffffffffffffffffffffffffffffffffffffffff163373ffffffffffffffffffffffffffffffffffffffff1614613c4f63ffffffff16565b6122d781614a8363ffffffff16565b5b6122e6613d5463ffffffff16565b5b50565b60076000505481565b612301613bbe63ffffffff16565b6123dd7f000000000000000000000000000000000000000000000000000000000000000073ffffffffffffffffffffffffffffffffffffffff16639ec5a8946040518163ffffffff1660e01b815260040160206040518083038186803b15801561236b5760006000fd5b505afa158015612380573d600060003e3d6000fd5b505050506040513d601f19601f820116820180604052508101906123a491906168cb565b73ffffffffffffffffffffffffffffffffffffffff163373ffffffffffffffffffffffffffffffffffffffff1614613c4f63ffffffff16565b6123ed8282614bf563ffffffff16565b5b6123fc613d5463ffffffff16565b5b5050565b7f000000000000000000000000000000000000000000000000000000000000000081565b612433613bbe63ffffffff16565b61250f7f000000000000000000000000000000000000000000000000000000000000000073ffffffffffffffffffffffffffffffffffffffff16639ec5a8946040518163ffffffff1660e01b815260040160206040518083038186803b15801561249d5760006000fd5b505afa1580156124b2573d600060003e3d6000fd5b505050506040513d601f19601f820116820180604052508101906124d691906168cb565b73ffffffffffffffffffffffffffffffffffffffff163373ffffffffffffffffffffffffffffffffffffffff1614613c4f63ffffffff16565b80600b60005060008473ffffffffffffffffffffffffffffffffffffffff1673ffffffffffffffffffffffffffffffffffffffff1681526020019081526020016000206000506000820151816000016000509090556020820151816001016000509090559050505b612585613d5463ffffffff16565b5b5050565b600d6000506020528060005260406000206000915090505481565b6125b36137c263ffffffff16565b6125c281614e2663ffffffff16565b5b5b50565b6125d5613bbe63ffffffff16565b6126b17f000000000000000000000000000000000000000000000000000000000000000073ffffffffffffffffffffffffffffffffffffffff166380f556056040518163ffffffff1660e01b815260040160206040518083038186803b15801561263f5760006000fd5b505afa158015612654573d600060003e3d6000fd5b505050506040513d601f19601f8201168201806040525081019061267891906168a4565b73ffffffffffffffffffffffffffffffffffffffff163373ffffffffffffffffffffffffffffffffffffffff1614613c4f63ffffffff16565b6126c9816007600050546141d090919063ffffffff16565b60076000508190909055506127057f00000000000000000000000000000000000000000000000000000000000000008383614eba63ffffffff16565b5b612714613d5463ffffffff16565b5b5050565b6060612770600e60005060008473ffffffffffffffffffffffffffffffffffffffff1673ffffffffffffffffffffffffffffffffffffffff1681526020019081526020016000206000506150c6909063ffffffff16565b9050612777565b919050565b61278a613bbe63ffffffff16565b61289c7f00000000000000000000000000000000000000000000000000000000000000007f00000000000000000000000000000000000000000000000000000000000000006128916007600050547f000000000000000000000000000000000000000000000000000000000000000073ffffffffffffffffffffffffffffffffffffffff166370a08231306040518263ffffffff1660e01b815260040161283191906170a4565b60206040518083038186803b15801561284a5760006000fd5b505afa15801561285f573d600060003e3d6000fd5b505050506040513d601f19601f820116820180604052508101906128839190616abb565b6141d090919063ffffffff16565b614eba63ffffffff16565b5b6128ab613d5463ffffffff16565b5b565b6128bc613bbe63ffffffff16565b61293b3373ffffffffffffffffffffffffffffffffffffffff16601060005060008563ffffffff16815260200190815260200160002060005060000160009054906101000a900473ffffffffffffffffffffffffffffffffffffffff1673ffffffffffffffffffffffffffffffffffffffff1614613c4f63ffffffff16565b6129926000600381111561294b57fe5b601060005060008563ffffffff168152602001908152602001600020600050600001601c9054906101000a900460ff16600381111561298657fe5b14613c4f63ffffffff16565b6001601060005060008463ffffffff168152602001908152602001600020600050600001601c6101000a81548160ff021916908360038111156129d157fe5b021790555080601060005060008463ffffffff1681526020019081526020016000206000506001016000509080519060200190612a0f92919061637d565b503373ffffffffffffffffffffffffffffffffffffffff168263ffffffff167fec673006d787a8f7beffb5435d65c9380768a511390c957f84092e507033f21883604051612a5d919061742c565b60405180910390a35b612a74613d5463ffffffff16565b5b5050565b60608163ffffffff168363ffffffff16101515612a965760006000fd5b82820363ffffffff1667ffffffffffffffff81118015612ab65760006000fd5b50604051908082528060200260200182016040528015612af057816020015b612add616410565b815260200190600190039081612ad55790505b509050805060005b8263ffffffff168463ffffffff161015612ce057601060005060008580600101965063ffffffff1681526020019081526020016000206000506040518060a00160405290816000820160009054906101000a900473ffffffffffffffffffffffffffffffffffffffff1673ffffffffffffffffffffffffffffffffffffffff1673ffffffffffffffffffffffffffffffffffffffff1681526020016000820160149054906101000a900467ffffffffffffffff1667ffffffffffffffff1667ffffffffffffffff16815260200160008201601c9054906101000a900460ff166003811115612be257fe5b6003811115612bed57fe5b815260200160008201601d9054906101000a900462ffffff1662ffffff1662ffffff168152602001600182016000508054600181600116156101000203166002900480601f016020809104026020016040519081016040528092919081815260200182805460018160011615610100020316600290048015612cb05780601f10612c8557610100808354040283529160200191612cb0565b820191906000526020600020905b815481529060010190602001808311612c9357829003601f168201915b5050505050815260200150508282806001019350815181101515612cd057fe5b6020026020010181905250612af8565b505b92915050565b606060066000506000612d028460c8612e6463ffffffff16565b60020b60020b8152602001908152602001600020600050805480602002602001604051908101604052809291908181526020018280548015612d9757602002820191906000526020600020906000905b82829054906101000a900467ffffffffffffffff1667ffffffffffffffff1681526020019060080190602082600701049283019260010382029150808411612d525790505b50505050509050612da3565b919050565b60006000821415612dbe57627fffff9050612e38565b600083111515612e03576040517f08c379a0000000000000000000000000000000000000000000000000000000008152600401612dfa90617487565b60405180910390fd5b612e31612e24612e19858561516c63ffffffff16565b6151d463ffffffff16565b60c8612e6463ffffffff16565b9050612e38565b92915050565b600360009054906101000a900473ffffffffffffffffffffffffffffffffffffffff1681565b600060008360020b905060008360020b82811515612e7e57fe5b0790506000811415612e94578492505050612ecf565b600060008313612eab578460020b82840303612eaf565b8183035b9050612ec2816155e8909063ffffffff16565b9350505050612ecf565050505b92915050565b6000612ee5613bbe63ffffffff16565b6703782dace9d9000067ffffffffffffffff168367ffffffffffffffff1611151515612f46576040517f08c379a0000000000000000000000000000000000000000000000000000000008152600401612f3d90617505565b60405180910390fd5b63ffffffff63ffffffff16600f60009054906101000a900463ffffffff1663ffffffff16101515612f775760006000fd5b6000600f600081819054906101000a900463ffffffff168092919060010191906101000a81548163ffffffff021916908363ffffffff16021790555090506040518060a001604052803373ffffffffffffffffffffffffffffffffffffffff1681526020018567ffffffffffffffff16815260200160006003811115612ff957fe5b81526020018462ffffff16815260200160405180602001604052806000815260200150815260200150601060005060008363ffffffff16815260200190815260200160002060005060008201518160000160006101000a81548173ffffffffffffffffffffffffffffffffffffffff021916908373ffffffffffffffffffffffffffffffffffffffff16021790555060208201518160000160146101000a81548167ffffffffffffffff021916908367ffffffffffffffff160217905550604082015181600001601c6101000a81548160ff021916908360038111156130db57fe5b0217905550606082015181600001601d6101000a81548162ffffff021916908362ffffff160217905550608082015181600101600050908051906020019061312492919061637d565b509050508262ffffff163373ffffffffffffffffffffffffffffffffffffffff168263ffffffff167f46f1b99a43c800f57b28bd687fe2fc54e883b31ff06b2a6d863d5289250597488760405161317b919061778c565b60405180910390a48091505061318d56505b61319b613d5463ffffffff16565b5b92915050565b613201600360009054906101000a900473ffffffffffffffffffffffffffffffffffffffff1673ffffffffffffffffffffffffffffffffffffffff163373ffffffffffffffffffffffffffffffffffffffff1614613c4f63ffffffff16565b600360006101000a81549073ffffffffffffffffffffffffffffffffffffffff02191690556132d47f000000000000000000000000000000000000000000000000000000000000000073ffffffffffffffffffffffffffffffffffffffff16639ec5a8946040518163ffffffff1660e01b815260040160206040518083038186803b1580156132905760006000fd5b505afa1580156132a5573d600060003e3d6000fd5b505050506040513d601f19601f820116820180604052508101906132c991906168cb565b614e2663ffffffff16565b5b565b600f60009054906101000a900463ffffffff1681565b6132f5616472565b613304826156a063ffffffff16565b905080506000816020015161ffff16111515613355576040517f08c379a000000000000000000000000000000000000000000000000000000000815260040161334c90617448565b60405180910390fd5b600081610120015163ffffffff16111561344c576010600050600082610120015163ffffffff16815260200190815260200160002060005060000160149054906101000a900467ffffffffffffffff1681610160019067ffffffffffffffff16908167ffffffffffffffff16815260200150506010600050600082610120015163ffffffff16815260200190815260200160002060005060000160009054906101000a900473ffffffffffffffffffffffffffffffffffffffff1681610140019073ffffffffffffffffffffffffffffffffffffffff16908173ffffffffffffffffffffffffffffffffffffffff16815260200150505b7f000000000000000000000000000000000000000000000000000000000000000073ffffffffffffffffffffffffffffffffffffffff166399fbab88836040518263ffffffff1660e01b81526004016134a59190617749565b6101806040518083038186803b1580156134bf5760006000fd5b505afa1580156134d4573d600060003e3d6000fd5b505050506040513d601f19601f820116820180604052508101906134f89190616e92565b909192939495969798999a509091929394959697989950909192939495969798509091929394959697509091929394959650909192509091509050508360e00184610100018560a0018390906fffffffffffffffffffffffffffffffff166fffffffffffffffffffffffffffffffff1681526020015083909060020b60020b81526020015083909060020b60020b8152602001505050505b919050565b600560019054906101000a900460ff1681565b600070010000000000000000000000000000000082101515613635576040517f08c379a00000000000000000000000000000000000000000000000000000000081526004018080602001828103825260128152602001807f6d6f7265207468616e203132382062697473000000000000000000000000000081526020015060200191505060405180910390fd5b81905061363d565b919050565b61364a616281565b60006008600050604051806080016040529081600082016000505481526020016001820160009054906101000a90046fffffffffffffffffffffffffffffffff166fffffffffffffffffffffffffffffffff166fffffffffffffffffffffffffffffffff1681526020016001820160109054906101000a90046fffffffffffffffffffffffffffffffff166fffffffffffffffffffffffffffffffff166fffffffffffffffffffffffffffffffff1681526020016002820160009054906101000a90046fffffffffffffffffffffffffffffffff166fffffffffffffffffffffffffffffffff166fffffffffffffffffffffffffffffffff16815260200150509050604051806080016040528082602001516fffffffffffffffffffffffffffffffff16815260200182606001516fffffffffffffffffffffffffffffffff1681526020018260000151815260200182604001516fffffffffffffffffffffffffffffffff168152602001509150506137bf56505b90565b61381f7f000000000000000000000000000000000000000000000000000000000000000073ffffffffffffffffffffffffffffffffffffffff163373ffffffffffffffffffffffffffffffffffffffff1614613c4f63ffffffff16565b5b565b61382a6162ac565b6000600460005060008467ffffffffffffffff1667ffffffffffffffff16815260200190815260200160002060005060405180610160016040529081600082016000505481526020016001820160009054906101000a90046fffffffffffffffffffffffffffffffff166fffffffffffffffffffffffffffffffff166fffffffffffffffffffffffffffffffff1681526020016001820160109054906101000a90046fffffffffffffffffffffffffffffffff166fffffffffffffffffffffffffffffffff166fffffffffffffffffffffffffffffffff1681526020016002820160009054906101000a90046fffffffffffffffffffffffffffffffff166fffffffffffffffffffffffffffffffff166fffffffffffffffffffffffffffffffff1681526020016002820160109054906101000a90046fffffffffffffffffffffffffffffffff166fffffffffffffffffffffffffffffffff166fffffffffffffffffffffffffffffffff1681526020016003820160009054906101000a900467ffffffffffffffff1667ffffffffffffffff1667ffffffffffffffff1681526020016003820160089054906101000a900467ffffffffffffffff1667ffffffffffffffff1667ffffffffffffffff1681526020016003820160109054906101000a900460020b60020b60020b81526020016003820160139054906101000a900460ff161515151581526020016003820160149054906101000a900467ffffffffffffffff1667ffffffffffffffff1667ffffffffffffffff16815260200160038201601c9054906101000a900463ffffffff1663ffffffff1663ffffffff16815260200150509050604051806101a001604052808260000151815260200182602001516fffffffffffffffffffffffffffffffff16815260200182604001516fffffffffffffffffffffffffffffffff16815260200182606001516fffffffffffffffffffffffffffffffff16815260200182608001516fffffffffffffffffffffffffffffffff1681526020018260a0015167ffffffffffffffff1681526020018260c0015167ffffffffffffffff1681526020018260e0015160020b81526020018261010001511515815260200182610120015167ffffffffffffffff16815260200182610140015163ffffffff168152602001600073ffffffffffffffffffffffffffffffffffffffff168152602001600067ffffffffffffffff16815260200150915050613bb956505b919050565b600260026000505414151515613c3f576040517f08c379a000000000000000000000000000000000000000000000000000000000815260040180806020018281038252600d8152602001807f4c43205265656e7472616e63790000000000000000000000000000000000000081526020015060200191505060405180910390fd5b600260026000508190909055505b565b801515613cc7576040517f08c379a000000000000000000000000000000000000000000000000000000000815260040180806020018281038252600e8152602001807f4e6f7420417574686f72697a656400000000000000000000000000000000000081526020015060200191505060405180910390fd5b5b50565b60008282840191508110151515613d4d576040517f08c379a000000000000000000000000000000000000000000000000000000000815260040180806020018281038252600c8152602001807f6164642d6f766572666c6f77000000000000000000000000000000000000000081526020015060200191505060405180910390fd5b5b92915050565b600160026000508190909055505b565b613dcb613d78826135a8909063ffffffff16565b600e60005060008573ffffffffffffffffffffffffffffffffffffffff1673ffffffffffffffffffffffffffffffffffffffff16815260200190815260200160002060005061593690919063ffffffff16565b505b5050565b60006000836001016000506000846fffffffffffffffffffffffffffffffff166fffffffffffffffffffffffffffffffff168152602001908152602001600020600050549050600081141515613fd657600060018203905060006001866000016000508054905003905060008660000160005082815481101515613e5157fe5b90600052602060002090600291828204019190066010025b9054906101000a90046fffffffffffffffffffffffffffffffff169050808760000160005084815481101515613e9b57fe5b90600052602060002090600291828204019190066010025b6101000a8154816fffffffffffffffffffffffffffffffff02191690836fffffffffffffffffffffffffffffffff16021790555060018301876001016000506000836fffffffffffffffffffffffffffffffff166fffffffffffffffffffffffffffffffff168152602001908152602001600020600050819090905550866000016000508054801515613f4257fe5b60019003818190600052602060002090600291828204019190066010025b6101000a8154906fffffffffffffffffffffffffffffffff02191690559055866001016000506000876fffffffffffffffffffffffffffffffff166fffffffffffffffffffffffffffffffff168152602001908152602001600020600050600090556001945050505050613fe256505050613fe0565b6000915050613fe2565b505b92915050565b7f000000000000000000000000000000000000000000000000000000000000000073ffffffffffffffffffffffffffffffffffffffff16637c114fed336040518263ffffffff1660e01b815260040161404191906170a4565b60006040518083038186803b15801561405a5760006000fd5b505afa15801561406f573d600060003e3d6000fd5b505050505b565b6000826fffffffffffffffffffffffffffffffff168284039150816fffffffffffffffffffffffffffffffff161115151561411c576040517f08c379a000000000000000000000000000000000000000000000000000000000815260040180806020018281038252600d8152602001807f7375622d756e646572666c6f770000000000000000000000000000000000000081526020015060200191505060405180910390fd5b5b92915050565b6000826fffffffffffffffffffffffffffffffff168284019150816fffffffffffffffffffffffffffffffff16101515156141c9576040517f08c379a000000000000000000000000000000000000000000000000000000000815260040180806020018281038252600c8152602001807f6164642d6f766572666c6f77000000000000000000000000000000000000000081526020015060200191505060405180910390fd5b5b92915050565b60008282840391508111151515614252576040517f08c379a000000000000000000000000000000000000000000000000000000000815260040180806020018281038252600d8152602001807f7375622d756e646572666c6f770000000000000000000000000000000000000081526020015060200191505060405180910390fd5b5b92915050565b6142616162ac565b6000600460005060008567ffffffffffffffff1667ffffffffffffffff16815260200190815260200160002060005060030160139054906101000a900460ff1690506000816142b357627fffff6142f2565b600460005060008667ffffffffffffffff1667ffffffffffffffff16815260200190815260200160002060005060030160109054906101000a900460020b5b90506000600460005060008767ffffffffffffffff1667ffffffffffffffff16815260200190815260200160002060005060030160149054906101000a900467ffffffffffffffff169050600061435786602001518760400151612da863ffffffff16565b90508060020b8360020b1415156145fe57808660e0019060020b908160020b815260200150506000627fffff60020b8460020b121561452457600660005060008560020b60020b81526020019081526020016000206000509050805060006143cd6001838054905003615a27909063ffffffff16565b90508067ffffffffffffffff168467ffffffffffffffff161415156144e1576000828267ffffffffffffffff1681548110151561440657fe5b90600052602060002090600491828204019190066008025b9054906101000a900467ffffffffffffffff16905080838667ffffffffffffffff1681548110151561444c57fe5b90600052602060002090600491828204019190066008025b6101000a81548167ffffffffffffffff021916908367ffffffffffffffff16021790555084600460005060008367ffffffffffffffff1667ffffffffffffffff16815260200190815260200160002060005060030160146101000a81548167ffffffffffffffff021916908367ffffffffffffffff160217905550505b8180548015156144ed57fe5b60019003818190600052602060002090600491828204019190066008025b6101000a81549067ffffffffffffffff02191690559055505b627fffff60020b8260020b12156145fc57600660005060008360020b60020b81526020019081526020016000206000509050805061456d8180549050615a27909063ffffffff16565b87610120019067ffffffffffffffff16908167ffffffffffffffff1681526020015050600187610100019015159081151581526020015050808890806001815401808255809150506001900390600052602060002090600491828204019190066008025b9091909190916101000a81548167ffffffffffffffff021916908367ffffffffffffffff1602179055505b505b8594505050505061460e56505050505b92915050565b6040518061016001604052808260000151815260200161463f83602001516135a8909063ffffffff16565b6fffffffffffffffffffffffffffffffff16815260200161466b83604001516135a8909063ffffffff16565b6fffffffffffffffffffffffffffffffff16815260200161469783606001516135a8909063ffffffff16565b6fffffffffffffffffffffffffffffffff1681526020016146c383608001516135a8909063ffffffff16565b6fffffffffffffffffffffffffffffffff1681526020018260a0015167ffffffffffffffff1681526020018260c0015167ffffffffffffffff1681526020018260e0015160020b81526020018261010001511515815260200182610120015167ffffffffffffffff16815260200182610140015163ffffffff16815260200150600460005060008467ffffffffffffffff1667ffffffffffffffff16815260200190815260200160002060005060008201518160000160005090905560208201518160010160006101000a8154816fffffffffffffffffffffffffffffffff02191690836fffffffffffffffffffffffffffffffff16021790555060408201518160010160106101000a8154816fffffffffffffffffffffffffffffffff02191690836fffffffffffffffffffffffffffffffff16021790555060608201518160020160006101000a8154816fffffffffffffffffffffffffffffffff02191690836fffffffffffffffffffffffffffffffff16021790555060808201518160020160106101000a8154816fffffffffffffffffffffffffffffffff02191690836fffffffffffffffffffffffffffffffff16021790555060a08201518160030160006101000a81548167ffffffffffffffff021916908367ffffffffffffffff16021790555060c08201518160030160086101000a81548167ffffffffffffffff021916908367ffffffffffffffff16021790555060e08201518160030160106101000a81548162ffffff021916908360020b62ffffff1602179055506101008201518160030160136101000a81548160ff0219169083151502179055506101208201518160030160146101000a81548167ffffffffffffffff021916908367ffffffffffffffff16021790555061014082015181600301601c6101000a81548163ffffffff021916908363ffffffff1602179055509050505b5050565b60006000600060001985870985870292508281108382030391505060008114156149c5576000841115156149b65760006000fd5b83820492508292505050614a7c565b80841115156149d45760006000fd5b6000848688099050828111820391508083039250600085866000031690508086049550808404935060018182600003040190508083028417935083506000600287600302189050808702600203810290508050808702600203810290508050808702600203810290508050808702600203810290508050808702600203810290508050808702600203810290508050808502955085508595505050505050614a7c5650505050505b9392505050565b604051806080016040528082604001518152602001614aad83600001516135a8909063ffffffff16565b6fffffffffffffffffffffffffffffffff168152602001614ad983606001516135a8909063ffffffff16565b6fffffffffffffffffffffffffffffffff168152602001614b0583602001516135a8909063ffffffff16565b6fffffffffffffffffffffffffffffffff16815260200150600860005060008201518160000160005090905560208201518160010160006101000a8154816fffffffffffffffffffffffffffffffff02191690836fffffffffffffffffffffffffffffffff16021790555060408201518160010160106101000a8154816fffffffffffffffffffffffffffffffff02191690836fffffffffffffffffffffffffffffffff16021790555060608201518160020160006101000a8154816fffffffffffffffffffffffffffffffff02191690836fffffffffffffffffffffffffffffffff1602179055509050505b50565b6040518060e00160405280826000015173ffffffffffffffffffffffffffffffffffffffff168152602001826020015161ffff16815260200182610120015163ffffffff16815260200182604001518152602001614c5e8360600151615ab9909063ffffffff16565b75ffffffffffffffffffffffffffffffffffffffffffff168152602001614c9a8360c0015167ffffffffffffffff16615b59909063ffffffff16565b64ffffffffff168152602001614cbb8360800151615b59909063ffffffff16565b64ffffffffff16815260200150600c600050600084815260200190815260200160002060005060008201518160000160006101000a81548173ffffffffffffffffffffffffffffffffffffffff021916908373ffffffffffffffffffffffffffffffffffffffff16021790555060208201518160000160146101000a81548161ffff021916908361ffff16021790555060408201518160000160166101000a81548163ffffffff021916908363ffffffff16021790555060608201518160010160005090905560808201518160020160006101000a81548175ffffffffffffffffffffffffffffffffffffffffffff021916908375ffffffffffffffffffffffffffffffffffffffffffff16021790555060a08201518160020160166101000a81548164ffffffffff021916908364ffffffffff16021790555060c082015181600201601b6101000a81548164ffffffffff021916908364ffffffffff1602179055509050505b5050565b7f000000000000000000000000000000000000000000000000000000000000000073ffffffffffffffffffffffffffffffffffffffff1663a22cb4658260016040518363ffffffff1660e01b8152600401614e829291906170cc565b600060405180830381600087803b158015614e9d5760006000fd5b505af1158015614eb2573d600060003e3d6000fd5b505050505b50565b600060008473ffffffffffffffffffffffffffffffffffffffff1663a9059cbb60e01b8585604051602401808373ffffffffffffffffffffffffffffffffffffffff16815260200182815260200192505050604051602081830303815290604052907bffffffffffffffffffffffffffffffffffffffffffffffffffffffff19166020820180517bffffffffffffffffffffffffffffffffffffffffffffffffffffffff83818316178352505050506040518082805190602001908083835b602083101515614f9f57805182525b602082019150602081019050602083039250614f79565b6001836020036101000a0380198251168184511680821785525050505050509050019150506000604051808303816000865af19150503d8060008114615001576040519150601f19603f3d011682016040523d82523d6000602084013e615006565b606091505b5091509150818015615047575060008151148061504657508080602001905160208110156150345760006000fd5b81019080805190602001909291905050505b5b15156150be576040517f08c379a00000000000000000000000000000000000000000000000000000000081526004018080602001828103825260028152602001807f535400000000000000000000000000000000000000000000000000000000000081526020015060200191505060405180910390fd5b50505b505050565b60608160000160005080548060200260200160405190810160405280929190818152602001828054801561515d57602002820191906000526020600020906000905b82829054906101000a90046fffffffffffffffffffffffffffffffff166fffffffffffffffffffffffffffffffff1681526020019060100190602082600f010492830192600103820291508084116151085790505b5050505050905080505b919050565b60006151c76151ba66010000000000006151ac6151a16c0100000000000000000000000087896149829092919063ffffffff16565b615be863ffffffff16565b615c5b90919063ffffffff16565b615cf9909063ffffffff16565b90506151ce565b92915050565b60006401000276a373ffffffffffffffffffffffffffffffffffffffff168273ffffffffffffffffffffffffffffffffffffffff1610158015615256575073fffd8963efd1fc6a506488495d951d5263988d2673ffffffffffffffffffffffffffffffffffffffff168273ffffffffffffffffffffffffffffffffffffffff16105b15156152cd576040517f08c379a00000000000000000000000000000000000000000000000000000000081526004018080602001828103825260018152602001807f520000000000000000000000000000000000000000000000000000000000000081526020015060200191505060405180910390fd5b600060208373ffffffffffffffffffffffffffffffffffffffff16901b905060008190506000600090506fffffffffffffffffffffffffffffffff821160071b808217915082811c92505067ffffffffffffffff821160061b808217915082811c92505063ffffffff821160051b808217915082811c92505061ffff821160041b808217915082811c92505060ff821160031b808217915082811c925050600f821160021b808217915082811c9250506003821160011b808217915082811c925050600182118082179150506080811015156153b357607f810383901c915081506153bf565b80607f0383901b915081505b6000604060808303901b9050828302607f1c92508260801c80603f1b8217915083811c935050828302607f1c92508260801c80603e1b8217915083811c935050828302607f1c92508260801c80603d1b8217915083811c935050828302607f1c92508260801c80603c1b8217915083811c935050828302607f1c92508260801c80603b1b8217915083811c935050828302607f1c92508260801c80603a1b8217915083811c935050828302607f1c92508260801c8060391b8217915083811c935050828302607f1c92508260801c8060381b8217915083811c935050828302607f1c92508260801c8060371b8217915083811c935050828302607f1c92508260801c8060361b8217915083811c935050828302607f1c92508260801c8060351b8217915083811c935050828302607f1c92508260801c8060341b8217915083811c935050828302607f1c92508260801c8060331b8217915083811c935050828302607f1c92508260801c8060321b82179150506000693627a301d71055774c8582029050600060806f028f6481ab7f045a5af012a19d003aaa8303901d9050600060806fdb2df09e81959a81455e260799a0632f8401901d90508060020b8260020b146155d5578873ffffffffffffffffffffffffffffffffffffffff166155ac82615d9763ffffffff16565b73ffffffffffffffffffffffffffffffffffffffff1611156155ce57816155d0565b805b6155d7565b815b97508750505050505050505b919050565b60007fffffffffffffffffffffffffffffffffffffffffffffffffffffffffff800000821215801561561c57506280000082125b1515615693576040517f08c379a00000000000000000000000000000000000000000000000000000000081526004018080602001828103825260118152602001807f6d6f7265207468616e203234206269747300000000000000000000000000000081526020015060200191505060405180910390fd5b81905061569b565b919050565b6156a8616472565b6000600c60005060008481526020019081526020016000206000506040518060e00160405290816000820160009054906101000a900473ffffffffffffffffffffffffffffffffffffffff1673ffffffffffffffffffffffffffffffffffffffff1673ffffffffffffffffffffffffffffffffffffffff1681526020016000820160149054906101000a900461ffff1661ffff1661ffff1681526020016000820160169054906101000a900463ffffffff1663ffffffff1663ffffffff168152602001600182016000505481526020016002820160009054906101000a900475ffffffffffffffffffffffffffffffffffffffffffff1675ffffffffffffffffffffffffffffffffffffffffffff1675ffffffffffffffffffffffffffffffffffffffffffff1681526020016002820160169054906101000a900464ffffffffff1664ffffffffff1664ffffffffff16815260200160028201601b9054906101000a900464ffffffffff1664ffffffffff1664ffffffffff16815260200150509050604051806101800160405280826000015173ffffffffffffffffffffffffffffffffffffffff168152602001826020015161ffff16815260200182606001518152602001826080015175ffffffffffffffffffffffffffffffffffffffffffff1681526020018260c0015164ffffffffff16815260200160006fffffffffffffffffffffffffffffffff1681526020018260a0015164ffffffffff1667ffffffffffffffff168152602001600060020b8152602001600060020b8152602001826040015163ffffffff168152602001600073ffffffffffffffffffffffffffffffffffffffff168152602001600067ffffffffffffffff1681526020015091505061593156505b919050565b6000615948838361622e63ffffffff16565b1515615a1757826000016000508290806001815401808255809150506001900390600052602060002090600291828204019190066010025b9091909190916101000a8154816fffffffffffffffffffffffffffffffff02191690836fffffffffffffffffffffffffffffffff1602179055508260000160005080549050836001016000506000846fffffffffffffffffffffffffffffffff166fffffffffffffffffffffffffffffffff16815260200190815260200160002060005081909090555060019050615a2156615a20565b60009050615a21565b5b92915050565b60006801000000000000000082101515615aac576040517f08c379a00000000000000000000000000000000000000000000000000000000081526004018080602001828103825260118152602001807f6d6f7265207468616e203634206269747300000000000000000000000000000081526020015060200191505060405180910390fd5b819050615ab4565b919050565b600076010000000000000000000000000000000000000000000082101515615b4c576040517f08c379a00000000000000000000000000000000000000000000000000000000081526004018080602001828103825260128152602001807f6d6f7265207468616e203137362062697473000000000000000000000000000081526020015060200191505060405180910390fd5b819050615b54565b919050565b60006501000000000082101515615bdb576040517f08c379a00000000000000000000000000000000000000000000000000000000081526004018080602001828103825260118152602001807f6d6f7265207468616e203430206269747300000000000000000000000000000081526020015060200191505060405180910390fd5b819050615be3565b919050565b60006003821115615c4357819050805060006001600284811515615c0857fe5b040190505b81811015615c3d5780915081506002818285811515615c2857fe5b0401811515615c3357fe5b0490508050615c0d565b50615c55565b600082141515615c54576001905080505b5b5b919050565b60006000821480615c7b57508282838502925082811515615c7857fe5b04145b1515615cf2576040517f08c379a000000000000000000000000000000000000000000000000000000000815260040180806020018281038252600c8152602001807f6d756c2d6f766572666c6f77000000000000000000000000000000000000000081526020015060200191505060405180910390fd5b5b92915050565b60007401000000000000000000000000000000000000000082101515615d8a576040517f08c379a00000000000000000000000000000000000000000000000000000000081526004018080602001828103825260128152602001807f6d6f7265207468616e203136302062697473000000000000000000000000000081526020015060200191505060405180910390fd5b819050615d92565b919050565b6000600060008360020b12615daf578260020b615db7565b8260020b6000035b90507ffffffffffffffffffffffffffffffffffffffffffffffffffffffffffff2761860000360020b8111151515615e5a576040517f08c379a00000000000000000000000000000000000000000000000000000000081526004018080602001828103825260018152602001807f540000000000000000000000000000000000000000000000000000000000000081526020015060200191505060405180910390fd5b60006000600183161415615e7f57700100000000000000000000000000000000615e91565b6ffffcb933bd6fad37aa2d162d1a5940015b70ffffffffffffffffffffffffffffffffff169050600060028316141515615ecf5760806ffff97272373d413259a46990580e213a8202901c905080505b600060048316141515615ef85760806ffff2e50f5f656932ef12357cf3c7fdcc8202901c905080505b600060088316141515615f215760806fffe5caca7e10e4e61c3624eaa0941cd08202901c905080505b600060108316141515615f4a5760806fffcb9843d60f6159c9db58835c9266448202901c905080505b600060208316141515615f735760806fff973b41fa98c081472e6896dfb254c08202901c905080505b600060408316141515615f9c5760806fff2ea16466c96a3843ec78b326b528618202901c905080505b600060808316141515615fc55760806ffe5dee046a99a2a811c461f1969c30538202901c905080505b60006101008316141515615fef5760806ffcbe86c7900a88aedcffc83b479aa3a48202901c905080505b600061020083161415156160195760806ff987a7253ac413176f2b074cf7815e548202901c905080505b600061040083161415156160435760806ff3392b0822b70005940c7a398e4b70f38202901c905080505b6000610800831614151561606d5760806fe7159475a2c29b7443b29c7fa6e889d98202901c905080505b600061100083161415156160975760806fd097f3bdfd2022b8845ad8f792aa58258202901c905080505b600061200083161415156160c15760806fa9f746462d870fdf8a65dc1f90e061e58202901c905080505b600061400083161415156160eb5760806f70d869a156d2a1b890bb3df62baf32f78202901c905080505b600061800083161415156161155760806f31be135f97d08fd981231505542fcfa68202901c905080505b60006201000083161415156161405760806f09aa508b5b7a84e1c677de54f3e99bc98202901c905080505b600062020000831614151561616a5760806e5d6af8dedb81196699c329225ee6048202901c905080505b60006204000083161415156161935760806d2216e584f5fa1ea926041bedfe988202901c905080505b60006208000083161415156161ba5760806b048a170391f7dc42444e8fa28202901c905080505b60008460020b13156161f757807fffffffffffffffffffffffffffffffffffffffffffffffffffffffffffffffff8115156161f157fe5b04905080505b60006401000000008281151561620957fe5b0614616216576001616219565b60005b60ff16602082901c019250825050505b919050565b60006000836001016000506000846fffffffffffffffffffffffffffffffff166fffffffffffffffffffffffffffffffff168152602001908152602001600020600050541415905061627b565b92915050565b6040518060800160405280600081526020016000815260200160008152602001600081526020015090565b604051806101a001604052806000815260200160008152602001600081526020016000815260200160008152602001600067ffffffffffffffff168152602001600067ffffffffffffffff168152602001600060020b8152602001600015158152602001600067ffffffffffffffff168152602001600063ffffffff168152602001600073ffffffffffffffffffffffffffffffffffffffff168152602001600067ffffffffffffffff1681526020015090565b604051806040016040528060008152602001600081526020015090565b828054600181600116156101000203166002900490600052602060002090601f0160209004810192826163b357600085556163ff565b82601f106163cc57805160ff19168380011785556163ff565b828001600101855582156163ff579182015b828111156163fe57825182600050909055916020019190600101906163de565b5b50905061640c9190616538565b5090565b6040518060a00160405280600073ffffffffffffffffffffffffffffffffffffffff168152602001600067ffffffffffffffff1681526020016000600381111561645657fe5b8152602001600062ffffff168152602001606081526020015090565b604051806101800160405280600073ffffffffffffffffffffffffffffffffffffffff168152602001600061ffff16815260200160008152602001600081526020016000815260200160006fffffffffffffffffffffffffffffffff168152602001600067ffffffffffffffff168152602001600060020b8152602001600060020b8152602001600063ffffffff168152602001600073ffffffffffffffffffffffffffffffffffffffff168152602001600067ffffffffffffffff1681526020015090565b61653d565b80821115616557576000818150600090555060010161653d565b50905661784f565b60008135905061656e816177d3565b5b919050565b600081519050616583816177d3565b5b919050565b600081359050801515811415156165a05760006000fd5b5b919050565b6000813590506165b5816177fc565b5b919050565b6000815190506165ca816177fc565b5b919050565b6000813590506165df81617812565b5b919050565b6000815190506165f481617812565b5b919050565b60008135905061ffff8116811415156166135760006000fd5b5b919050565b60008151905061662881617837565b5b919050565b60008135905063ffffffff8116811415156166495760006000fd5b5b919050565b60008135905067ffffffffffffffff81168114151561666e5760006000fd5b5b919050565b600060208284031215616685578081fd5b8135616690816177d3565b809150505b92915050565b60006000604083850312156166ae578081fd5b82356166b9816177d3565b80925050602083013590505b9250929050565b60006000600060006000608086880312156166e5578081fd5b85356166f0816177d3565b809550506020860135616702816177d3565b8094505060408601359250606086013567ffffffffffffffff80821115616727578283fd5b818801915088601f830112151561673c578283fd5b81358181111561674a578384fd5b89602082850101111561675b578384fd5b6020830194508093505050505b9295509295909350565b6000600060408385031215616785578182fd5b8235616790816177d3565b80925050602083013590505b9250929050565b600060208083850312156167b5578182fd5b823567ffffffffffffffff808211156167cc578384fd5b818501915085601f83011215156167e1578384fd5b8135818111156167ed57fe5b83810291506167fd8483016177a8565b8082825285820191508585018987868801011115616819578788fd5b8795505b838610156168465761682e8161662e565b8352868301925086810190505b60018601955061681d565b508096505050505050505b92915050565b600060208284031215616868578081fd5b81357fffffffff00000000000000000000000000000000000000000000000000000000811681141515616899578182fd5b809150505b92915050565b6000602082840312156168b5578081fd5b81516168c0816177d3565b809150505b92915050565b6000602082840312156168dc578081fd5b81516168e7816177d3565b809150505b92915050565b600060208284031215616903578081fd5b813561690e816177d3565b809150505b92915050565b60006000828403606081121561692d578283fd5b8335616938816177d3565b8093505060407fffffffffffffffffffffffffffffffffffffffffffffffffffffffffffffffe08201121561696b578182fd5b506040516040810181811067ffffffffffffffff8211171561698957fe5b80604052506020840135815260408401356020820152809150505b9250929050565b60006000604083850312156169be578182fd5b82356169c9816177d3565b80925050602083013590505b9250929050565b6000602082840312156169ed578081fd5b81356169f8816177fc565b809150505b92915050565b6000600060408385031215616a16578182fd5b8235616a21816177fc565b809250506020830135616a33816177fc565b809150505b9250929050565b600060808284031215616a50578081fd5b6040516080810181811067ffffffffffffffff82111715616a6d57fe5b806040525082358152602083013560208201526040830135604082015260608301356060820152809150505b92915050565b600060208284031215616ab0578081fd5b813590505b92915050565b600060208284031215616acc578081fd5b815190505b92915050565b600060008284036101a0811215616aec578283fd5b83359250610180807fffffffffffffffffffffffffffffffffffffffffffffffffffffffffffffffe083011215616b21578283fd5b616b2a816177a8565b9150616b386020860161655f565b8252616b46604086016165fa565b6020830152606085013560408301526080850135606083015260a08501356080830152616b7560c086016165d0565b60a0830152616b8660e0860161664f565b60c0830152610100616b998187016165a6565b60e0840152610120616bac8188016165a6565b828501526101409150616bc082880161662e565b8185015250610160616bd381880161655f565b82850152616be283880161664f565b81850152505050809150505b9250929050565b6000600060408385031215616c08578182fd5b82359150602083013590505b9250929050565b6000600060408385031215616c2e578182fd5b616c378361662e565b915060208084013567ffffffffffffffff80821115616c54578384fd5b818601915086601f8301121515616c69578384fd5b813581811115616c7557fe5b616ca5847fffffffffffffffffffffffffffffffffffffffffffffffffffffffffffffffe0601f840116016177a8565b91508082528784828501011115616cba578485fd5b808484018584013784848284010152508093505050505b9250929050565b6000600060408385031215616ceb578182fd5b616cf48361662e565b9150616d026020840161662e565b90505b9250929050565b600060208284031215616d1d578081fd5b616d268261664f565b90505b92915050565b600060008284036101c0811215616d44578283fd5b616d4d8461664f565b92506101a0807fffffffffffffffffffffffffffffffffffffffffffffffffffffffffffffffe083011215616d80578283fd5b616d89816177a8565b91506020850135825260408501356020830152606085013560408301526080850135606083015260a08501356080830152616dc660c0860161664f565b60a0830152616dd760e0860161664f565b60c0830152610100616dea8187016165a6565b60e0840152610120616dfd818801616589565b828501526101409150616e1182880161664f565b8185015250610160616e2481880161662e565b828501526101809150616e3882880161655f565b8185015250616e4882870161664f565b818401525050809150505b9250929050565b6000600060408385031215616e6d578182fd5b616e768361664f565b91506020830135616e8681617837565b809150505b9250929050565b6000600060006000600060006000600060006000600060006101808d8f031215616eba57898afd5b8c516bffffffffffffffffffffffff811681141515616ed7578a8bfd5b809c5050616ee760208e01616574565b9a50616ef560408e01616574565b9950616f0360608e01616574565b9850616f1160808e01616619565b9750616f1f60a08e016165bb565b9650616f2d60c08e016165bb565b9550616f3b60e08e016165e5565b94506101008d015193506101208d01519250616f5a6101408e016165e5565b9150616f696101608e016165e5565b90505b9295989b509295989b509295989b565b73ffffffffffffffffffffffffffffffffffffffff811682525b5050565b80151582525b5050565b600481101515616fb057fe5b8082525b5050565b8060020b82525b5050565b60008151808452815b81811015616fef576020808286010151818388010152505b602081019050616fcc565b818111156170005782602083870101525b5060207fffffffffffffffffffffffffffffffffffffffffffffffffffffffffffffffe0601f8301168501019150505b92915050565b6fffffffffffffffffffffffffffffffff811682525b5050565b61ffff811682525b5050565b63ffffffff811682525b5050565b67ffffffffffffffff811682525b5050565b600060208201905073ffffffffffffffffffffffffffffffffffffffff831682525b92915050565b600060208201905073ffffffffffffffffffffffffffffffffffffffff831682525b92915050565b600060408201905073ffffffffffffffffffffffffffffffffffffffff8416825282151560208301525b9392505050565b600073ffffffffffffffffffffffffffffffffffffffff8716825267ffffffffffffffff861660208301526171356040830186616fa4565b62ffffff8416606083015260a0608083015261715460a0830184616fc3565b90505b9695505050505050565b6000602080830181845280855180835260409250828601915082848202870101848801865b8381101561723a577fffffffffffffffffffffffffffffffffffffffffffffffffffffffffffffffc0898403018552815160a073ffffffffffffffffffffffffffffffffffffffff825116855267ffffffffffffffff898301511689860152878201516171f589870182616fa4565b50606062ffffff81840151168187015250608080830151925081818701525061722081860183616fc3565b94505050868201915086850194505b600181019050617186565b505080955050505050505b92915050565b600060208083018184528085518083526040860191508387019250845b8181101561729c576fffffffffffffffffffffffffffffffff8451168352848301925084840193505b600181019050617268565b50508093505050505b92915050565b600060208083018184528085518083526040860191508387019250845b818110156172f05763ffffffff8451168352848301925084840193505b6001810190506172c8565b50508093505050505b92915050565b600060208083018184528085518083526040860191508387019250845b818110156173485767ffffffffffffffff8451168352848301925084840193505b60018101905061731c565b50508093505050505b92915050565b600060208201905082151582525b92915050565b60006020820190507fffffffff00000000000000000000000000000000000000000000000000000000831682525b92915050565b600060208201905073ffffffffffffffffffffffffffffffffffffffff831682525b92915050565b600060208201905073ffffffffffffffffffffffffffffffffffffffff831682525b92915050565b600060208201905073ffffffffffffffffffffffffffffffffffffffff831682525b92915050565b60006020820190508260020b82525b92915050565b60006020825261743f6020830184616fc3565b90505b92915050565b600060208252600c60208301527f506f736974696f6e20444e45000000000000000000000000000000000000000060408301526060820190505b919050565b600060208252601760208301527f4465627420776974686f757420636f6c6c61746572616c00000000000000000060408301526060820190505b919050565b600060208252601d60208301527f446f6573206e6f7420616363657074204e465473206469726563746c7900000060408301526060820190505b919050565b600060208252601560208301527f4d6178206b69636b6261636b206578636565646564000000000000000000000060408301526060820190505b919050565b60006101a082019050825182526020830151602083015260408301516040830152606083015160608301526080830151608083015260a083015161758b60a084018261706a565b5060c083015161759e60c084018261706a565b5060e08301516175b160e0840182616fb8565b50610100808401516175c582850182616f9a565b5050610120808401516175da8285018261706a565b5050610140808401516175ef8285018261705c565b50506101608084015161760482850182616f7c565b5050610180808401516176198285018261706a565b50505b92915050565b600061018082019050617636828451616f7c565b60208301516176486020840182617050565b5060408301516040830152606083015160608301526080830151608083015260a083015161767960a0840182617036565b5060c083015161768c60c084018261706a565b5060e083015161769f60e0840182616fb8565b50610100808401516176b382850182616fb8565b5050610120808401516176c88285018261705c565b5050610140808401516176dd82850182616f7c565b5050610160808401516176f28285018261706a565b50505b92915050565b600060408201905082518252602083015160208301525b92915050565b6000608082019050825182526020830151602083015260408301516040830152606083015160608301525b92915050565b60006020820190508282525b92915050565b60006040820190508382528260208301525b9392505050565b600060208201905063ffffffff831682525b92915050565b600060208201905067ffffffffffffffff831682525b92915050565b6000604051905081810181811067ffffffffffffffff821117156177c857fe5b80604052505b919050565b73ffffffffffffffffffffffffffffffffffffffff8116811415156177f85760006000fd5b5b50565b8060020b8114151561780e5760006000fd5b5b50565b6fffffffffffffffffffffffffffffffff8116811415156178335760006000fd5b5b50565b62ffffff81168114151561784b5760006000fd5b5b50565bfea264697066735822122090472c75a8ac982d5c01942d7467bdf8639eed089eea5e84de60ac03507152a264736f6c63430007060033",
  "linkReferences": {},
  "deployedLinkReferences": {}
}