{
  "_format": "hh-sol-artifact-1",
  "contractName": "SafeMath256Testable",
  "sourceName": "contracts/core/mocks/SafeMath256Testable.sol",
  "abi": [
    {
      "inputs": [
        {
          "internalType": "uint256",
          "name": "a",
          "type": "uint256"
        },
        {
          "internalType": "uint256",
          "name": "b",
          "type": "uint256"
        }
      ],
      "name": "add",
      "outputs": [
        {
          "internalType": "uint256",
          "name": "r",
          "type": "uint256"
        }
      ],
      "stateMutability": "pure",
      "type": "function"
    },
    {
      "inputs": [
        {
          "internalType": "uint256",
          "name": "a",
          "type": "uint256"
        },
        {
          "internalType": "uint256",
          "name": "b",
          "type": "uint256"
        }
      ],
      "name": "mul",
      "outputs": [
        {
          "internalType": "uint256",
          "name": "r",
          "type": "uint256"
        }
      ],
      "stateMutability": "pure",
      "type": "function"
    },
    {
      "inputs": [
        {
          "internalType": "uint256",
          "name": "a",
          "type": "uint256"
        },
        {
          "internalType": "uint256",
          "name": "b",
          "type": "uint256"
        }
      ],
      "name": "sub",
      "outputs": [
        {
          "internalType": "uint256",
          "name": "r",
          "type": "uint256"
        }
      ],
      "stateMutability": "pure",
      "type": "function"
    }
  ],
  "bytecode": "0x60806040523480156100115760006000fd5b50610017565b6102b7806100266000396000f3fe60806040523480156100115760006000fd5b50600436106100465760003560e01c8063771602f71461004c578063b67d77c51461007c578063c8a4ac9c146100ac57610046565b60006000fd5b61006660048036038101906100619190610191565b6100dc565b60405161007391906101b9565b60405180910390f35b61009660048036038101906100919190610191565b6100fc565b6040516100a391906101b9565b60405180910390f35b6100c660048036038101906100c19190610191565b61011c565b6040516100d391906101b9565b60405180910390f35b60006100f1828461013c90919063ffffffff16565b905080505b92915050565b6000610111828461015790919063ffffffff16565b905080505b92915050565b6000610131828461017290919063ffffffff16565b905080505b92915050565b6000818361014a91906101fc565b9050610151565b92915050565b60008183610165919061021c565b905061016c565b92915050565b60008183610180919061023b565b9050610187565b9291505056610280565b60006000604083850312156101a65760006000fd5b82359150602083013590505b9250929050565b60006020820190508282525b92915050565b7f4e487b7100000000000000000000000000000000000000000000000000000000600052601160045260246000fd5b565b600082198211156102105761020f6101cb565b5b82820190505b92915050565b60008282101561022f5761022e6101cb565b5b82820390505b92915050565b6000817fffffffffffffffffffffffffffffffffffffffffffffffffffffffffffffffff0483118215151615610274576102736101cb565b5b82820290505b92915050565bfea264697066735822122027a5537070d236e557b6070ca7c78aa0183eb5064a6fbf441d7b338c083aea2964736f6c634300080c0033",
  "linkReferences": {},
  "deployedLinkReferences": {}
}