{
  "_format": "hh-sol-artifact-1",
  "contractName": "LowGasSafeMathEchidnaTest",
  "sourceName": "contracts/uniswap-v3-core/test/LowGasSafeMathEchidnaTest.sol",
  "abi": [
    {
      "inputs": [
        {
          "internalType": "uint256",
          "name": "x",
          "type": "uint256"
        },
        {
          "internalType": "uint256",
          "name": "y",
          "type": "uint256"
        }
      ],
      "name": "checkAdd",
      "outputs": [],
      "stateMutability": "pure",
      "type": "function"
    },
    {
      "inputs": [
        {
          "internalType": "int256",
          "name": "x",
          "type": "int256"
        },
        {
          "internalType": "int256",
          "name": "y",
          "type": "int256"
        }
      ],
      "name": "checkAddi",
      "outputs": [],
      "stateMutability": "pure",
      "type": "function"
    },
    {
      "inputs": [
        {
          "internalType": "uint256",
          "name": "x",
          "type": "uint256"
        },
        {
          "internalType": "uint256",
          "name": "y",
          "type": "uint256"
        }
      ],
      "name": "checkMul",
      "outputs": [],
      "stateMutability": "pure",
      "type": "function"
    },
    {
      "inputs": [
        {
          "internalType": "uint256",
          "name": "x",
          "type": "uint256"
        },
        {
          "internalType": "uint256",
          "name": "y",
          "type": "uint256"
        }
      ],
      "name": "checkSub",
      "outputs": [],
      "stateMutability": "pure",
      "type": "function"
    },
    {
      "inputs": [
        {
          "internalType": "int256",
          "name": "x",
          "type": "int256"
        },
        {
          "internalType": "int256",
          "name": "y",
          "type": "int256"
        }
      ],
      "name": "checkSubi",
      "outputs": [],
      "stateMutability": "pure",
      "type": "function"
    }
  ],
  "bytecode": "0x60806040523480156100115760006000fd5b50610017565b61065d806100266000396000f3fe60806040523480156100115760006000fd5b506004361061006c5760003560e01c80636d886fae116100515780636d886fae146100aa5780639239e777146100c6578063bd78b20d146100e25761006c565b80630f935000146100725780630fe48c5c1461008e5761006c565b60006000fd5b61008c600480360381019061008791906103b0565b6100fe565b005b6100a860048036038101906100a391906103b0565b610154565b005b6100c460048036038101906100bf91906103b0565b6101c0565b005b6100e060048036038101906100db91906103d8565b61020a565b005b6100fc60048036038101906100f791906103d8565b610265565b005b600061011083836102c063ffffffff16565b9050818361011e9190610431565b8114151561012f5761012e610451565b5b82811015801561013f5750818110155b151561014e5761014d610451565b5b505b5050565b600061016683836102e763ffffffff16565b905081836101749190610482565b8114151561018557610184610451565b5b60008314806101945750600082145b806101ab57508281101580156101aa5750818110155b5b15156101ba576101b9610451565b5b505b5050565b60006101d2838361032363ffffffff16565b905081836101e091906104c7565b811415156101f1576101f0610451565b5b82811115151561020457610203610451565b5b505b5050565b600061021c838361034a63ffffffff16565b9050818361022a91906104e6565b8114151561023b5761023a610451565b5b6000821261024c5782811215610250565b8281125b151561025f5761025e610451565b5b505b5050565b6000610277838361037b63ffffffff16565b905081836102859190610564565b8114151561029657610295610451565b5b600082126102a757828113156102ab565b8281135b15156102ba576102b9610451565b5b505b5050565b60008282846102cf9190610431565b915081101515156102e05760006000fd5b5b92915050565b600060008314806103105750818383856103019190610482565b92508261030e91906105e2565b145b151561031c5760006000fd5b5b92915050565b600082828461033291906104c7565b915081111515156103435760006000fd5b5b92915050565b60006000821215151583838561036091906104e6565b925082121515151415156103745760006000fd5b5b92915050565b6000600082121515158383856103919190610564565b925082131515151415156103a55760006000fd5b5b9291505056610626565b60006000604083850312156103c55760006000fd5b82359150602083013590505b9250929050565b60006000604083850312156103ed5760006000fd5b82359150602083013590505b9250929050565b7f4e487b7100000000000000000000000000000000000000000000000000000000600052601160045260246000fd5b565b6000821982111561044557610444610400565b5b82820190505b92915050565b7f4e487b7100000000000000000000000000000000000000000000000000000000600052600160045260246000fd5b565b6000817fffffffffffffffffffffffffffffffffffffffffffffffffffffffffffffffff04831182151516156104bb576104ba610400565b5b82820290505b92915050565b6000828210156104da576104d9610400565b5b82820390505b92915050565b600060008212827f7fffffffffffffffffffffffffffffffffffffffffffffffffffffffffffffff0384138115161561052257610521610400565b5b827f800000000000000000000000000000000000000000000000000000000000000003841281161561055757610556610400565b5b5082820190505b92915050565b600060008312837f8000000000000000000000000000000000000000000000000000000000000000018312811516156105a05761059f610400565b5b837f7fffffffffffffffffffffffffffffffffffffffffffffffffffffffffffffff0183138116156105d5576105d4610400565b5b5082820390505b92915050565b600082151561061a577f4e487b7100000000000000000000000000000000000000000000000000000000600052601260045260246000fd5b82820490505b92915050565bfea26469706673582212200fb668b108efaefa3cef55a62655c9433f83f9982638b7e39efcb2e722a7656664736f6c634300080c0033",
  "linkReferences": {},
  "deployedLinkReferences": {}
}