{
  "_format": "hh-sol-artifact-1",
  "contractName": "TDaoToken",
  "sourceName": "contracts/core/TDao/TDaoToken.sol",
  "abi": [
    {
      "inputs": [
        {
          "internalType": "address",
          "name": "_governor",
          "type": "address"
        }
      ],
      "stateMutability": "nonpayable",
      "type": "constructor"
    },
    {
      "anonymous": false,
      "inputs": [
        {
          "indexed": true,
          "internalType": "address",
          "name": "owner",
          "type": "address"
        },
        {
          "indexed": true,
          "internalType": "address",
          "name": "spender",
          "type": "address"
        },
        {
          "indexed": false,
          "internalType": "uint256",
          "name": "amount",
          "type": "uint256"
        }
      ],
      "name": "Approval",
      "type": "event"
    },
    {
      "anonymous": false,
      "inputs": [
        {
          "indexed": true,
          "internalType": "address",
          "name": "delegator",
          "type": "address"
        },
        {
          "indexed": true,
          "internalType": "address",
          "name": "fromDelegate",
          "type": "address"
        },
        {
          "indexed": true,
          "internalType": "address",
          "name": "toDelegate",
          "type": "address"
        }
      ],
      "name": "DelegateChanged",
      "type": "event"
    },
    {
      "anonymous": false,
      "inputs": [
        {
          "indexed": true,
          "internalType": "address",
          "name": "delegate",
          "type": "address"
        },
        {
          "indexed": false,
          "internalType": "uint256",
          "name": "previousBalance",
          "type": "uint256"
        },
        {
          "indexed": false,
          "internalType": "uint256",
          "name": "newBalance",
          "type": "uint256"
        }
      ],
      "name": "DelegateVotesChanged",
      "type": "event"
    },
    {
      "anonymous": false,
      "inputs": [
        {
          "indexed": true,
          "internalType": "address",
          "name": "newGovernor",
          "type": "address"
        }
      ],
      "name": "GovernorAdded",
      "type": "event"
    },
    {
      "anonymous": false,
      "inputs": [
        {
          "indexed": true,
          "internalType": "address",
          "name": "from",
          "type": "address"
        },
        {
          "indexed": true,
          "internalType": "address",
          "name": "to",
          "type": "address"
        },
        {
          "indexed": false,
          "internalType": "uint256",
          "name": "amount",
          "type": "uint256"
        }
      ],
      "name": "Transfer",
      "type": "event"
    },
    {
      "inputs": [],
      "name": "DELEGATION_TYPEHASH",
      "outputs": [
        {
          "internalType": "bytes32",
          "name": "",
          "type": "bytes32"
        }
      ],
      "stateMutability": "view",
      "type": "function"
    },
    {
      "inputs": [],
      "name": "DOMAIN_TYPEHASH",
      "outputs": [
        {
          "internalType": "bytes32",
          "name": "",
          "type": "bytes32"
        }
      ],
      "stateMutability": "view",
      "type": "function"
    },
    {
      "inputs": [
        {
          "internalType": "address",
          "name": "newGovernor",
          "type": "address"
        }
      ],
      "name": "addGovernor",
      "outputs": [],
      "stateMutability": "nonpayable",
      "type": "function"
    },
    {
      "inputs": [
        {
          "internalType": "address",
          "name": "account",
          "type": "address"
        },
        {
          "internalType": "address",
          "name": "spender",
          "type": "address"
        }
      ],
      "name": "allowance",
      "outputs": [
        {
          "internalType": "uint256",
          "name": "",
          "type": "uint256"
        }
      ],
      "stateMutability": "view",
      "type": "function"
    },
    {
      "inputs": [
        {
          "internalType": "address",
          "name": "spender",
          "type": "address"
        },
        {
          "internalType": "uint256",
          "name": "amount",
          "type": "uint256"
        }
      ],
      "name": "approve",
      "outputs": [
        {
          "internalType": "bool",
          "name": "",
          "type": "bool"
        }
      ],
      "stateMutability": "nonpayable",
      "type": "function"
    },
    {
      "inputs": [
        {
          "internalType": "address",
          "name": "account",
          "type": "address"
        }
      ],
      "name": "balanceOf",
      "outputs": [
        {
          "internalType": "uint256",
          "name": "",
          "type": "uint256"
        }
      ],
      "stateMutability": "view",
      "type": "function"
    },
    {
      "inputs": [
        {
          "internalType": "uint256",
          "name": "amount",
          "type": "uint256"
        }
      ],
      "name": "burn",
      "outputs": [],
      "stateMutability": "nonpayable",
      "type": "function"
    },
    {
      "inputs": [
        {
          "internalType": "address",
          "name": "account",
          "type": "address"
        },
        {
          "internalType": "uint256",
          "name": "amount",
          "type": "uint256"
        }
      ],
      "name": "burnFrom",
      "outputs": [],
      "stateMutability": "nonpayable",
      "type": "function"
    },
    {
      "inputs": [
        {
          "internalType": "address",
          "name": "",
          "type": "address"
        },
        {
          "internalType": "uint32",
          "name": "",
          "type": "uint32"
        }
      ],
      "name": "checkpoints",
      "outputs": [
        {
          "internalType": "uint32",
          "name": "fromBlock",
          "type": "uint32"
        },
        {
          "internalType": "uint224",
          "name": "votes",
          "type": "uint224"
        }
      ],
      "stateMutability": "view",
      "type": "function"
    },
    {
      "inputs": [],
      "name": "decimals",
      "outputs": [
        {
          "internalType": "uint8",
          "name": "",
          "type": "uint8"
        }
      ],
      "stateMutability": "view",
      "type": "function"
    },
    {
      "inputs": [
        {
          "internalType": "address",
          "name": "spender",
          "type": "address"
        },
        {
          "internalType": "uint256",
          "name": "subtractedValue",
          "type": "uint256"
        }
      ],
      "name": "decreaseAllowance",
      "outputs": [
        {
          "internalType": "bool",
          "name": "",
          "type": "bool"
        }
      ],
      "stateMutability": "nonpayable",
      "type": "function"
    },
    {
      "inputs": [
        {
          "internalType": "address",
          "name": "delegatee",
          "type": "address"
        }
      ],
      "name": "delegate",
      "outputs": [],
      "stateMutability": "nonpayable",
      "type": "function"
    },
    {
      "inputs": [
        {
          "internalType": "address",
          "name": "delegatee",
          "type": "address"
        },
        {
          "internalType": "uint256",
          "name": "nonce",
          "type": "uint256"
        },
        {
          "internalType": "uint256",
          "name": "expiry",
          "type": "uint256"
        },
        {
          "internalType": "uint8",
          "name": "v",
          "type": "uint8"
        },
        {
          "internalType": "bytes32",
          "name": "r",
          "type": "bytes32"
        },
        {
          "internalType": "bytes32",
          "name": "s",
          "type": "bytes32"
        }
      ],
      "name": "delegateBySig",
      "outputs": [],
      "stateMutability": "nonpayable",
      "type": "function"
    },
    {
      "inputs": [
        {
          "internalType": "address",
          "name": "",
          "type": "address"
        }
      ],
      "name": "delegates",
      "outputs": [
        {
          "internalType": "address",
          "name": "",
          "type": "address"
        }
      ],
      "stateMutability": "view",
      "type": "function"
    },
    {
      "inputs": [
        {
          "internalType": "address",
          "name": "account",
          "type": "address"
        }
      ],
      "name": "getCurrentVotes",
      "outputs": [
        {
          "internalType": "uint256",
          "name": "",
          "type": "uint256"
        }
      ],
      "stateMutability": "view",
      "type": "function"
    },
    {
      "inputs": [
        {
          "internalType": "address",
          "name": "account",
          "type": "address"
        },
        {
          "internalType": "uint256",
          "name": "blockNumber",
          "type": "uint256"
        }
      ],
      "name": "getPriorVotes",
      "outputs": [
        {
          "internalType": "uint256",
          "name": "",
          "type": "uint256"
        }
      ],
      "stateMutability": "view",
      "type": "function"
    },
    {
      "inputs": [
        {
          "internalType": "address",
          "name": "",
          "type": "address"
        }
      ],
      "name": "governor",
      "outputs": [
        {
          "internalType": "bool",
          "name": "",
          "type": "bool"
        }
      ],
      "stateMutability": "view",
      "type": "function"
    },
    {
      "inputs": [
        {
          "internalType": "address",
          "name": "spender",
          "type": "address"
        },
        {
          "internalType": "uint256",
          "name": "addedValue",
          "type": "uint256"
        }
      ],
      "name": "increaseAllowance",
      "outputs": [
        {
          "internalType": "bool",
          "name": "",
          "type": "bool"
        }
      ],
      "stateMutability": "nonpayable",
      "type": "function"
    },
    {
      "inputs": [
        {
          "internalType": "address",
          "name": "dest",
          "type": "address"
        },
        {
          "internalType": "uint256",
          "name": "count",
          "type": "uint256"
        }
      ],
      "name": "mintTo",
      "outputs": [],
      "stateMutability": "nonpayable",
      "type": "function"
    },
    {
      "inputs": [],
      "name": "name",
      "outputs": [
        {
          "internalType": "string",
          "name": "",
          "type": "string"
        }
      ],
      "stateMutability": "view",
      "type": "function"
    },
    {
      "inputs": [
        {
          "internalType": "address",
          "name": "",
          "type": "address"
        }
      ],
      "name": "nonces",
      "outputs": [
        {
          "internalType": "uint256",
          "name": "",
          "type": "uint256"
        }
      ],
      "stateMutability": "view",
      "type": "function"
    },
    {
      "inputs": [
        {
          "internalType": "address",
          "name": "",
          "type": "address"
        }
      ],
      "name": "numCheckpoints",
      "outputs": [
        {
          "internalType": "uint32",
          "name": "",
          "type": "uint32"
        }
      ],
      "stateMutability": "view",
      "type": "function"
    },
    {
      "inputs": [],
      "name": "symbol",
      "outputs": [
        {
          "internalType": "string",
          "name": "",
          "type": "string"
        }
      ],
      "stateMutability": "view",
      "type": "function"
    },
    {
      "inputs": [],
      "name": "totalSupply",
      "outputs": [
        {
          "internalType": "uint256",
          "name": "",
          "type": "uint256"
        }
      ],
      "stateMutability": "view",
      "type": "function"
    },
    {
      "inputs": [
        {
          "internalType": "address",
          "name": "dst",
          "type": "address"
        },
        {
          "internalType": "uint256",
          "name": "amount",
          "type": "uint256"
        }
      ],
      "name": "transfer",
      "outputs": [
        {
          "internalType": "bool",
          "name": "",
          "type": "bool"
        }
      ],
      "stateMutability": "nonpayable",
      "type": "function"
    },
    {
      "inputs": [
        {
          "internalType": "address",
          "name": "src",
          "type": "address"
        },
        {
          "internalType": "address",
          "name": "dst",
          "type": "address"
        },
        {
          "internalType": "uint256",
          "name": "amount",
          "type": "uint256"
        }
      ],
      "name": "transferFrom",
      "outputs": [
        {
          "internalType": "bool",
          "name": "",
          "type": "bool"
        }
      ],
      "stateMutability": "nonpayable",
      "type": "function"
    }
  ],
  "bytecode": "0x6080604052600160096000509090553480156200001c5760006000fd5b5060405162003f5b38038062003f5b83398181016040528101906200004291906200026f565b5b6040518060400160405280600d81526020017f54727573746c6573732044616f000000000000000000000000000000000000008152602001506040518060400160405280600481526020017f5444616f00000000000000000000000000000000000000000000000000000000815260200150825b8260006000509080519060200190620000d2929190620001ae565b508160016000509080519060200190620000ee929190620001ae565b5062000100816200010c60201b60201c565b5b5050505b50620002ee565b6001600a60005060008373ffffffffffffffffffffffffffffffffffffffff1673ffffffffffffffffffffffffffffffffffffffff16815260200190815260200160002060006101000a81548160ff0219169083151502179055508073ffffffffffffffffffffffffffffffffffffffff167fdc5a48d79e2e147530ff63ecdbed5a5a66adb9d5cf339384d5d076da197c40b560405160405180910390a25b50565b828054620001bc90620002a9565b90600052602060002090601f016020900481019282620001e0576000855562000231565b82601f10620001fb57805160ff191683800117855562000231565b8280016001018555821562000231579182015b828111156200023057825182600050909055916020019190600101906200020e565b5b50905062000240919062000244565b5090565b6200024a565b808211156200026657600081815060009055506001016200024a565b509056620002ed565b600060208284031215620002835760006000fd5b81516001600160a01b038116811415156200029e5760006000fd5b809150505b92915050565b60008160011c905060018216801515620002c457607f821691505b60208210811415620002e657634e487b7160e01b600052602260045260246000fd5b505b919050565b5b613c5d80620002fe6000396000f3fe60806040523480156100115760006000fd5b50600436106101b35760003560e01c806370a08231116100ef578063a457c2d711610098578063c3cda52011610072578063c3cda5201461051b578063dd62ed3e14610537578063e7a324dc14610567578063f1127ed814610585576101b3565b8063a457c2d71461048b578063a9059cbb146104bb578063b4b5ea57146104eb576101b3565b806379cc6790116100c957806379cc6790146104215780637ecebe001461043d57806395d89b411461046d576101b3565b806370a082311461039157806370ec42e8146103c1578063782d6fe1146103f1576101b3565b8063395093511161015c578063449a52f811610136578063449a52f8146102f9578063587cde1e146103155780635c19a95c146103455780636fcfff4514610361576101b3565b806339509351146102915780633c4a25d0146102c157806342966c68146102dd576101b3565b806320606b701161018d57806320606b701461022557806323b872dd14610243578063313ce56714610273576101b3565b806306fdde03146101b9578063095ea7b3146101d757806318160ddd14610207576101b3565b60006000fd5b6101c16105b6565b6040516101ce9190612fc5565b60405180910390f35b6101f160048036038101906101ec9190613070565b610647565b6040516101fe919061309f565b60405180910390f35b61020f6107bb565b60405161021c91906130b3565b60405180910390f35b61022d6107c4565b60405161023a91906130c5565b60405180910390f35b61025d600480360381019061025891906130d7565b6107e8565b60405161026a919061309f565b60405180910390f35b61027b6109f3565b6040516102889190613116565b60405180910390f35b6102ab60048036038101906102a69190613070565b6109f8565b6040516102b8919061309f565b60405180910390f35b6102db60048036038101906102d6919061312b565b610ac7565b005b6102f760048036038101906102f29190613150565b610b6c565b005b610313600480360381019061030e9190613070565b610b80565b005b61032f600480360381019061032a919061312b565b610c8c565b60405161033c919061316e565b60405180910390f35b61035f600480360381019061035a919061312b565b610cc4565b005b61037b6004803603810190610376919061312b565b610cdc565b6040516103889190613196565b60405180910390f35b6103ab60048036038101906103a6919061312b565b610d04565b6040516103b891906130b3565b60405180910390f35b6103db60048036038101906103d6919061312b565b610d58565b6040516103e8919061309f565b60405180910390f35b61040b60048036038101906104069190613070565b610d7d565b60405161041891906130b3565b60405180910390f35b61043b60048036038101906104369190613070565b6112af565b005b6104576004803603810190610452919061312b565b611388565b60405161046491906130b3565b60405180910390f35b6104756113a3565b6040516104829190612fc5565b60405180910390f35b6104a560048036038101906104a09190613070565b611434565b6040516104b2919061309f565b60405180910390f35b6104d560048036038101906104d09190613070565b611503565b6040516104e2919061309f565b60405180910390f35b6105056004803603810190610500919061312b565b611525565b60405161051291906130b3565b60405180910390f35b610535600480360381019061053091906131ae565b61165d565b005b610551600480360381019061054c9190613218565b611913565b60405161055e91906130b3565b60405180910390f35b61056f6119a8565b60405161057c91906130c5565b60405180910390f35b61059f600480360381019061059a919061324e565b6119cc565b6040516105ad929190613294565b60405180910390f35b600060005080546105c6906132d1565b80601f01602080910402602001604051908101604052809291908181526020018280546105f2906132d1565b801561063f5780601f106106145761010080835404028352916020019161063f565b820191906000526020600020905b81548152906001019060200180831161062257829003601f168201915b505050505081565b6000600073ffffffffffffffffffffffffffffffffffffffff168373ffffffffffffffffffffffffffffffffffffffff16141515156106bb576040517f08c379a00000000000000000000000000000000000000000000000000000000081526004016106b29061332c565b60405180910390fd5b81600360005060003373ffffffffffffffffffffffffffffffffffffffff1673ffffffffffffffffffffffffffffffffffffffff16815260200190815260200160002060005060008573ffffffffffffffffffffffffffffffffffffffff1673ffffffffffffffffffffffffffffffffffffffff1681526020019081526020016000206000508190909055508273ffffffffffffffffffffffffffffffffffffffff163373ffffffffffffffffffffffffffffffffffffffff167f8c5be1e5ebec7d5bd14f71427d1e84f3dd0314c0f7b2291e5b200ac8c7c3b925846040516107a491906130b3565b60405180910390a3600190506107b5565b92915050565b60026000505481565b7f8cad95687ba82c2ce50e74f7b754645e5117c3a5bec8151c0726d5857980a86681565b600060003390506000600360005060008773ffffffffffffffffffffffffffffffffffffffff1673ffffffffffffffffffffffffffffffffffffffff16815260200190815260200160002060005060008373ffffffffffffffffffffffffffffffffffffffff1673ffffffffffffffffffffffffffffffffffffffff16815260200190815260200160002060005054905061088a868686611a3b63ffffffff16565b8573ffffffffffffffffffffffffffffffffffffffff168273ffffffffffffffffffffffffffffffffffffffff161415156109df5760006108ea8286604051806060016040528060288152602001613b4660289139611df163ffffffff16565b905080600360005060008973ffffffffffffffffffffffffffffffffffffffff1673ffffffffffffffffffffffffffffffffffffffff16815260200190815260200160002060005060008573ffffffffffffffffffffffffffffffffffffffff1673ffffffffffffffffffffffffffffffffffffffff1681526020019081526020016000206000508190909055508273ffffffffffffffffffffffffffffffffffffffff168773ffffffffffffffffffffffffffffffffffffffff167f8c5be1e5ebec7d5bd14f71427d1e84f3dd0314c0f7b2291e5b200ac8c7c3b925836040516109d591906130b3565b60405180910390a3505b6001925050506109ec5650505b9392505050565b601281565b6000610ab83384610aad600360005060003373ffffffffffffffffffffffffffffffffffffffff1673ffffffffffffffffffffffffffffffffffffffff16815260200190815260200160002060005060008873ffffffffffffffffffffffffffffffffffffffff1673ffffffffffffffffffffffffffffffffffffffff1681526020019081526020016000206000505486604051806060016040528060228152602001613ad760229139611e5663ffffffff16565b611ec263ffffffff16565b60019050610ac1565b92915050565b600a60005060003373ffffffffffffffffffffffffffffffffffffffff1673ffffffffffffffffffffffffffffffffffffffff16815260200190815260200160002060009054906101000a900460ff161515610b58576040517f08c379a0000000000000000000000000000000000000000000000000000000008152600401610b4f90613391565b60405180910390fd5b610b678161209d63ffffffff16565b5b5b50565b610b7c338261213f63ffffffff16565b5b50565b6001600960005054141515610bca576040517f08c379a0000000000000000000000000000000000000000000000000000000008152600401610bc1906133d0565b60405180910390fd5b60006009600050819090905550600a60005060003373ffffffffffffffffffffffffffffffffffffffff1673ffffffffffffffffffffffffffffffffffffffff16815260200190815260200160002060009054906101000a900460ff161515610c68576040517f08c379a0000000000000000000000000000000000000000000000000000000008152600401610c5f90613391565b60405180910390fd5b610c78828261238263ffffffff16565b5b5b600160096000508190909055505b5050565b600560005060205280600052604060002060009150909054906101000a900473ffffffffffffffffffffffffffffffffffffffff1681565b610cd4338261260563ffffffff16565b610cd9565b50565b600760005060205280600052604060002060009150909054906101000a900463ffffffff1681565b6000600460005060008373ffffffffffffffffffffffffffffffffffffffff1673ffffffffffffffffffffffffffffffffffffffff168152602001908152602001600020600050549050610d53565b919050565b600a60005060205280600052604060002060009150909054906101000a900460ff1681565b60004382101515610dc3576040517f08c379a0000000000000000000000000000000000000000000000000000000008152600401610dba9061340f565b60405180910390fd5b6000600760005060008573ffffffffffffffffffffffffffffffffffffffff1673ffffffffffffffffffffffffffffffffffffffff16815260200190815260200160002060009054906101000a900463ffffffff16905060008163ffffffff161415610e335760009150506112a9565b82600660005060008673ffffffffffffffffffffffffffffffffffffffff1673ffffffffffffffffffffffffffffffffffffffff1681526020019081526020016000206000506000600184610e8891906134a5565b63ffffffff1663ffffffff16815260200190815260200160002060005060000160009054906101000a900463ffffffff1663ffffffff16111515610f8957600660005060008573ffffffffffffffffffffffffffffffffffffffff1673ffffffffffffffffffffffffffffffffffffffff1681526020019081526020016000206000506000600183610f1a91906134a5565b63ffffffff1663ffffffff16815260200190815260200160002060005060000160049054906101000a90047bffffffffffffffffffffffffffffffffffffffffffffffffffffffff167bffffffffffffffffffffffffffffffffffffffffffffffffffffffff169150506112a9565b82600660005060008673ffffffffffffffffffffffffffffffffffffffff1673ffffffffffffffffffffffffffffffffffffffff1681526020019081526020016000206000506000600063ffffffff16815260200190815260200160002060005060000160009054906101000a900463ffffffff1663ffffffff1611156110145760009150506112a9565b600060009050600060018361102991906134a5565b90505b8163ffffffff168163ffffffff1611156111ed5760006002838361105091906134a5565b61105a91906134d3565b8261106591906134a5565b90506000600660005060008973ffffffffffffffffffffffffffffffffffffffff1673ffffffffffffffffffffffffffffffffffffffff16815260200190815260200160002060005060008363ffffffff1663ffffffff1681526020019081526020016000206000506040518060400160405290816000820160009054906101000a900463ffffffff1663ffffffff1663ffffffff1681526020016000820160049054906101000a90047bffffffffffffffffffffffffffffffffffffffffffffffffffffffff167bffffffffffffffffffffffffffffffffffffffffffffffffffffffff167bffffffffffffffffffffffffffffffffffffffffffffffffffffffff1681526020015050905086816000015163ffffffff1614156111b75780602001517bffffffffffffffffffffffffffffffffffffffffffffffffffffffff16955050505050506112a9566111e6565b86816000015163ffffffff1610156111d35781935083506111e5565b6001826111e091906134a5565b925082505b5b505061102c565b600660005060008773ffffffffffffffffffffffffffffffffffffffff1673ffffffffffffffffffffffffffffffffffffffff16815260200190815260200160002060005060008363ffffffff1663ffffffff16815260200190815260200160002060005060000160049054906101000a90047bffffffffffffffffffffffffffffffffffffffffffffffffffffffff167bffffffffffffffffffffffffffffffffffffffffffffffffffffffff1693505050506112a9565050505b92915050565b600061135f600360005060008573ffffffffffffffffffffffffffffffffffffffff1673ffffffffffffffffffffffffffffffffffffffff16815260200190815260200160002060005060003373ffffffffffffffffffffffffffffffffffffffff1673ffffffffffffffffffffffffffffffffffffffff1681526020019081526020016000206000505483604051806060016040528060248152602001613b6e60249139611df163ffffffff16565b9050611372833383611ec263ffffffff16565b611382838361213f63ffffffff16565b505b5050565b60086000506020528060005260406000206000915090505481565b600160005080546113b3906132d1565b80601f01602080910402602001604051908101604052809291908181526020018280546113df906132d1565b801561142c5780601f106114015761010080835404028352916020019161142c565b820191906000526020600020905b81548152906001019060200180831161140f57829003601f168201915b505050505081565b60006114f433846114e9600360005060003373ffffffffffffffffffffffffffffffffffffffff1673ffffffffffffffffffffffffffffffffffffffff16815260200190815260200160002060005060008873ffffffffffffffffffffffffffffffffffffffff1673ffffffffffffffffffffffffffffffffffffffff1681526020019081526020016000206000505486604051806060016040528060258152602001613c0360259139611df163ffffffff16565b611ec263ffffffff16565b600190506114fd565b92915050565b6000611516338484611a3b63ffffffff16565b6001905061151f565b92915050565b60006000600760005060008473ffffffffffffffffffffffffffffffffffffffff1673ffffffffffffffffffffffffffffffffffffffff16815260200190815260200160002060009054906101000a900463ffffffff16905060008163ffffffff1611611593576000611631565b600660005060008473ffffffffffffffffffffffffffffffffffffffff1673ffffffffffffffffffffffffffffffffffffffff16815260200190815260200160002060005060006001836115e791906134a5565b63ffffffff1663ffffffff16815260200190815260200160002060005060000160049054906101000a90047bffffffffffffffffffffffffffffffffffffffffffffffffffffffff165b7bffffffffffffffffffffffffffffffffffffffffffffffffffffffff1691505061165856505b919050565b60007f8cad95687ba82c2ce50e74f7b754645e5117c3a5bec8151c0726d5857980a86660006000506040516116929190613535565b604051809103902046306040516020016116af9493929190613615565b60405160208183030381529060405280519060200120905060007fe48329057bfd03d55e49b547132e39cffd9c1820ad7b9d4c5307691425d15adf8888886040516020016117009493929190613652565b6040516020818303038152906040528051906020012090506000828260405160200161172d92919061368f565b60405160208183030381529060405280519060200120905060006001828888886040516000815260200160405260405161176a94939291906136ce565b6020604051602081039080840390855afa15801561178d573d600060003e3d6000fd5b505050602060405103519050600073ffffffffffffffffffffffffffffffffffffffff168173ffffffffffffffffffffffffffffffffffffffff161415151561180b576040517f08c379a0000000000000000000000000000000000000000000000000000000008152600401611802906136f8565b60405180910390fd5b600860005060008273ffffffffffffffffffffffffffffffffffffffff1673ffffffffffffffffffffffffffffffffffffffff1681526020019081526020016000206000818150548092919061186090613737565b919050909055891415156118a9576040517f08c379a00000000000000000000000000000000000000000000000000000000081526004016118a090613776565b60405180910390fd5b8742111515156118ee576040517f08c379a00000000000000000000000000000000000000000000000000000000081526004016118e5906137b5565b60405180910390fd5b6118fe818b61260563ffffffff16565b5050505061190b56505050505b505050505050565b6000600360005060008473ffffffffffffffffffffffffffffffffffffffff1673ffffffffffffffffffffffffffffffffffffffff16815260200190815260200160002060005060008373ffffffffffffffffffffffffffffffffffffffff1673ffffffffffffffffffffffffffffffffffffffff1681526020019081526020016000206000505490506119a2565b92915050565b7fe48329057bfd03d55e49b547132e39cffd9c1820ad7b9d4c5307691425d15adf81565b6006600050602052816000526040600020600050602052806000526040600020600091509150508060000160009054906101000a900463ffffffff16908060000160049054906101000a90047bffffffffffffffffffffffffffffffffffffffffffffffffffffffff16905082565b600073ffffffffffffffffffffffffffffffffffffffff168373ffffffffffffffffffffffffffffffffffffffff1614151515611aad576040517f08c379a0000000000000000000000000000000000000000000000000000000008152600401611aa4906137f4565b60405180910390fd5b600073ffffffffffffffffffffffffffffffffffffffff168273ffffffffffffffffffffffffffffffffffffffff1614151515611b1f576040517f08c379a0000000000000000000000000000000000000000000000000000000008152600401611b1690613859565b60405180910390fd5b611b8d600460005060008573ffffffffffffffffffffffffffffffffffffffff1673ffffffffffffffffffffffffffffffffffffffff1681526020019081526020016000206000505482604051806060016040528060268152602001613af960269139611df163ffffffff16565b600460005060008573ffffffffffffffffffffffffffffffffffffffff1673ffffffffffffffffffffffffffffffffffffffff168152602001908152602001600020600050819090905550611c66600460005060008473ffffffffffffffffffffffffffffffffffffffff1673ffffffffffffffffffffffffffffffffffffffff16815260200190815260200160002060005054826040518060400160405280602081526020017f45524332303a207472616e7366657220616d6f756e74206f766572666c6f7773815260200150611e5663ffffffff16565b600460005060008473ffffffffffffffffffffffffffffffffffffffff1673ffffffffffffffffffffffffffffffffffffffff1681526020019081526020016000206000508190909055508173ffffffffffffffffffffffffffffffffffffffff168373ffffffffffffffffffffffffffffffffffffffff167fddf252ad1be2c89b69c2b068fc378daa952ba7f163c4a11628f55a4df523b3ef83604051611d0e91906130b3565b60405180910390a3611deb600560005060008573ffffffffffffffffffffffffffffffffffffffff1673ffffffffffffffffffffffffffffffffffffffff16815260200190815260200160002060009054906101000a900473ffffffffffffffffffffffffffffffffffffffff16600560005060008573ffffffffffffffffffffffffffffffffffffffff1673ffffffffffffffffffffffffffffffffffffffff16815260200190815260200160002060009054906101000a900473ffffffffffffffffffffffffffffffffffffffff16836127c063ffffffff16565b5b505050565b60008383111582901515611e3b576040517f08c379a0000000000000000000000000000000000000000000000000000000008152600401611e329190612fc5565b60405180910390fd5b508284611e4891906138be565b9050611e4f565b9392505050565b600060008385611e6691906138dd565b90508481101583901515611eb0576040517f08c379a0000000000000000000000000000000000000000000000000000000008152600401611ea79190612fc5565b60405180910390fd5b5080915050611ebb56505b9392505050565b600073ffffffffffffffffffffffffffffffffffffffff168373ffffffffffffffffffffffffffffffffffffffff1614151515611f34576040517f08c379a0000000000000000000000000000000000000000000000000000000008152600401611f2b906138fd565b60405180910390fd5b600073ffffffffffffffffffffffffffffffffffffffff168273ffffffffffffffffffffffffffffffffffffffff1614151515611fa6576040517f08c379a0000000000000000000000000000000000000000000000000000000008152600401611f9d9061332c565b60405180910390fd5b80600360005060008573ffffffffffffffffffffffffffffffffffffffff1673ffffffffffffffffffffffffffffffffffffffff16815260200190815260200160002060005060008473ffffffffffffffffffffffffffffffffffffffff1673ffffffffffffffffffffffffffffffffffffffff1681526020019081526020016000206000508190909055508173ffffffffffffffffffffffffffffffffffffffff168373ffffffffffffffffffffffffffffffffffffffff167f8c5be1e5ebec7d5bd14f71427d1e84f3dd0314c0f7b2291e5b200ac8c7c3b9258360405161208f91906130b3565b60405180910390a35b505050565b6001600a60005060008373ffffffffffffffffffffffffffffffffffffffff1673ffffffffffffffffffffffffffffffffffffffff16815260200190815260200160002060006101000a81548160ff0219169083151502179055508073ffffffffffffffffffffffffffffffffffffffff167fdc5a48d79e2e147530ff63ecdbed5a5a66adb9d5cf339384d5d076da197c40b560405160405180910390a25b50565b600073ffffffffffffffffffffffffffffffffffffffff168273ffffffffffffffffffffffffffffffffffffffff16141515156121b1576040517f08c379a00000000000000000000000000000000000000000000000000000000081526004016121a890613962565b60405180910390fd5b61221f600460005060008473ffffffffffffffffffffffffffffffffffffffff1673ffffffffffffffffffffffffffffffffffffffff1681526020019081526020016000206000505482604051806060016040528060228152602001613ab560229139611df163ffffffff16565b600460005060008473ffffffffffffffffffffffffffffffffffffffff1673ffffffffffffffffffffffffffffffffffffffff16815260200190815260200160002060005081909090555061229860026000505482604051806060016040528060278152602001613b1f60279139611df163ffffffff16565b6002600050819090905550600073ffffffffffffffffffffffffffffffffffffffff168273ffffffffffffffffffffffffffffffffffffffff167fddf252ad1be2c89b69c2b068fc378daa952ba7f163c4a11628f55a4df523b3ef8360405161230191906130b3565b60405180910390a361237d600560005060008473ffffffffffffffffffffffffffffffffffffffff1673ffffffffffffffffffffffffffffffffffffffff16815260200190815260200160002060009054906101000a900473ffffffffffffffffffffffffffffffffffffffff166000836127c063ffffffff16565b5b5050565b600073ffffffffffffffffffffffffffffffffffffffff168273ffffffffffffffffffffffffffffffffffffffff16141515156123f4576040517f08c379a00000000000000000000000000000000000000000000000000000000081526004016123eb906139c7565b60405180910390fd5b612442600260005054826040518060400160405280601881526020017f45524332303a206164646974696f6e206f766572666c6f770000000000000000815260200150611e5663ffffffff16565b60026000508190909055506124db600460005060008473ffffffffffffffffffffffffffffffffffffffff1673ffffffffffffffffffffffffffffffffffffffff16815260200190815260200160002060005054826040518060400160405280601881526020017f45524332303a206164646974696f6e206f766572666c6f770000000000000000815260200150611e5663ffffffff16565b600460005060008473ffffffffffffffffffffffffffffffffffffffff1673ffffffffffffffffffffffffffffffffffffffff1681526020019081526020016000206000508190909055508173ffffffffffffffffffffffffffffffffffffffff16600073ffffffffffffffffffffffffffffffffffffffff167fddf252ad1be2c89b69c2b068fc378daa952ba7f163c4a11628f55a4df523b3ef8360405161258491906130b3565b60405180910390a36126006000600560005060008573ffffffffffffffffffffffffffffffffffffffff1673ffffffffffffffffffffffffffffffffffffffff16815260200190815260200160002060009054906101000a900473ffffffffffffffffffffffffffffffffffffffff16836127c063ffffffff16565b5b5050565b6000600560005060008473ffffffffffffffffffffffffffffffffffffffff1673ffffffffffffffffffffffffffffffffffffffff16815260200190815260200160002060009054906101000a900473ffffffffffffffffffffffffffffffffffffffff1690506000600460005060008573ffffffffffffffffffffffffffffffffffffffff1673ffffffffffffffffffffffffffffffffffffffff16815260200190815260200160002060005054905082600560005060008673ffffffffffffffffffffffffffffffffffffffff1673ffffffffffffffffffffffffffffffffffffffff16815260200190815260200160002060006101000a81548173ffffffffffffffffffffffffffffffffffffffff021916908373ffffffffffffffffffffffffffffffffffffffff1602179055508273ffffffffffffffffffffffffffffffffffffffff168273ffffffffffffffffffffffffffffffffffffffff168573ffffffffffffffffffffffffffffffffffffffff167f3134e8a2e6d97e929a7e54011ea5485d7d196dd5f0ba4d4ef95803e8e3fc257f60405160405180910390a46127b98284836127c063ffffffff16565b50505b5050565b8173ffffffffffffffffffffffffffffffffffffffff168373ffffffffffffffffffffffffffffffffffffffff16141580156127fc5750600081115b15612b4c57600073ffffffffffffffffffffffffffffffffffffffff168373ffffffffffffffffffffffffffffffffffffffff161415156129a6576000600760005060008573ffffffffffffffffffffffffffffffffffffffff1673ffffffffffffffffffffffffffffffffffffffff16815260200190815260200160002060009054906101000a900463ffffffff169050600060008263ffffffff16116128a5576000612943565b600660005060008673ffffffffffffffffffffffffffffffffffffffff1673ffffffffffffffffffffffffffffffffffffffff16815260200190815260200160002060005060006001846128f991906134a5565b63ffffffff1663ffffffff16815260200190815260200160002060005060000160049054906101000a90047bffffffffffffffffffffffffffffffffffffffffffffffffffffffff165b7bffffffffffffffffffffffffffffffffffffffffffffffffffffffff169050600061298e8285604051806060016040528060228152602001613bc060229139611df163ffffffff16565b90506129a286848484612b5263ffffffff16565b5050505b600073ffffffffffffffffffffffffffffffffffffffff168273ffffffffffffffffffffffffffffffffffffffff16141515612b4b576000600760005060008473ffffffffffffffffffffffffffffffffffffffff1673ffffffffffffffffffffffffffffffffffffffff16815260200190815260200160002060009054906101000a900463ffffffff169050600060008263ffffffff1611612a4a576000612ae8565b600660005060008573ffffffffffffffffffffffffffffffffffffffff1673ffffffffffffffffffffffffffffffffffffffff1681526020019081526020016000206000506000600184612a9e91906134a5565b63ffffffff1663ffffffff16815260200190815260200160002060005060000160049054906101000a90047bffffffffffffffffffffffffffffffffffffffffffffffffffffffff165b7bffffffffffffffffffffffffffffffffffffffffffffffffffffffff1690506000612b338285604051806060016040528060218152602001613be260219139611e5663ffffffff16565b9050612b4785848484612b5263ffffffff16565b5050505b5b5b505050565b6000612b7c436040518060600160405280602e8152602001613b92602e9139612ef463ffffffff16565b905060008463ffffffff16118015612c2357508063ffffffff16600660005060008773ffffffffffffffffffffffffffffffffffffffff1673ffffffffffffffffffffffffffffffffffffffff1681526020019081526020016000206000506000600187612bea91906134a5565b63ffffffff1663ffffffff16815260200190815260200160002060005060000160009054906101000a900463ffffffff1663ffffffff16145b15612cfe57612c3782612f5163ffffffff16565b600660005060008773ffffffffffffffffffffffffffffffffffffffff1673ffffffffffffffffffffffffffffffffffffffff1681526020019081526020016000206000506000600187612c8b91906134a5565b63ffffffff1663ffffffff16815260200190815260200160002060005060000160046101000a8154817bffffffffffffffffffffffffffffffffffffffffffffffffffffffff02191690837bffffffffffffffffffffffffffffffffffffffffffffffffffffffff160217905550612e9c565b60405180604001604052808263ffffffff168152602001612d2484612f5163ffffffff16565b7bffffffffffffffffffffffffffffffffffffffffffffffffffffffff16815260200150600660005060008773ffffffffffffffffffffffffffffffffffffffff1673ffffffffffffffffffffffffffffffffffffffff16815260200190815260200160002060005060008663ffffffff1663ffffffff16815260200190815260200160002060005060008201518160000160006101000a81548163ffffffff021916908363ffffffff16021790555060208201518160000160046101000a8154817bffffffffffffffffffffffffffffffffffffffffffffffffffffffff02191690837bffffffffffffffffffffffffffffffffffffffffffffffffffffffff160217905550905050600184612e3b9190613a06565b600760005060008773ffffffffffffffffffffffffffffffffffffffff1673ffffffffffffffffffffffffffffffffffffffff16815260200190815260200160002060006101000a81548163ffffffff021916908363ffffffff1602179055505b8473ffffffffffffffffffffffffffffffffffffffff167fdec2bacdd2f05b59de34da9b523dff8be42e5e38e818c82fdb0bae774387a7248484604051612ee4929190613a35565b60405180910390a2505b50505050565b6000640100000000831082901515612f42576040517f08c379a0000000000000000000000000000000000000000000000000000000008152600401612f399190612fc5565b60405180910390fd5b50829050612f4b565b92915050565b60007c010000000000000000000000000000000000000000000000000000000082101515612fb4576040517f08c379a0000000000000000000000000000000000000000000000000000000008152600401612fab90613a4e565b60405180910390fd5b819050612fbc565b91905056613ab3565b600060208083528351808285015260005b81811015612ff657828187010151604082870101525b8281019050612fd6565b81811115613008576000604083870101525b5060407fffffffffffffffffffffffffffffffffffffffffffffffffffffffffffffffe0601f830116850101925050505b92915050565b60008135905073ffffffffffffffffffffffffffffffffffffffff81168114151561306a5760006000fd5b5b919050565b60006000604083850312156130855760006000fd5b61308e8361303f565b9150602083013590505b9250929050565b600060208201905082151582525b92915050565b60006020820190508282525b92915050565b60006020820190508282525b92915050565b600060006000606084860312156130ee5760006000fd5b6130f78461303f565b92506131056020850161303f565b9150604084013590505b9250925092565b600060208201905060ff831682525b92915050565b60006020828403121561313e5760006000fd5b6131478261303f565b90505b92915050565b6000602082840312156131635760006000fd5b813590505b92915050565b600060208201905073ffffffffffffffffffffffffffffffffffffffff831682525b92915050565b600060208201905063ffffffff831682525b92915050565b60006000600060006000600060c087890312156131cb5760006000fd5b6131d48761303f565b95506020870135945060408701359350606087013560ff8116811415156131fb5760006000fd5b809350506080870135915060a087013590505b9295509295509295565b600060006040838503121561322d5760006000fd5b6132368361303f565b91506132446020840161303f565b90505b9250929050565b60006000604083850312156132635760006000fd5b61326c8361303f565b9150602083013563ffffffff8116811415156132885760006000fd5b809150505b9250929050565b600060408201905063ffffffff841682527bffffffffffffffffffffffffffffffffffffffffffffffffffffffff831660208301525b9392505050565b60008160011c9050600182168015156132eb57607f821691505b60208210811415613325577f4e487b7100000000000000000000000000000000000000000000000000000000600052602260045260246000fd5b505b919050565b60208152602260208201527f45524332303a20617070726f766520746f20746865207a65726f20616464726560408201527f7373000000000000000000000000000000000000000000000000000000000000606082015260006080820190505b919050565b60208152600e60208201527f4e6f7420417574686f72697a6564000000000000000000000000000000000000604082015260006060820190505b919050565b60208152600660208201527f4c4f434b45440000000000000000000000000000000000000000000000000000604082015260006060820190505b919050565b60208152602160208201527f6765745072696f72566f7465733a206e6f74207965742064657465726d696e6560408201527f6400000000000000000000000000000000000000000000000000000000000000606082015260006080820190505b919050565b7f4e487b7100000000000000000000000000000000000000000000000000000000600052601160045260246000fd5b565b600063ffffffff8083168185169150818110156134c5576134c4613474565b5b818103925050505b92915050565b600063ffffffff808416801515613513577f4e487b7100000000000000000000000000000000000000000000000000000000600052601260045260246000fd5b8082851604925050505b92915050565b80600052506000602060002090505b90565b60006000835481600182811c915080831680151561355457607f831692505b602080841082141561358d577f4e487b710000000000000000000000000000000000000000000000000000000086526022600452602486fd5b81600081146135a357600181146135d257613604565b7fffffffffffffffffffffffffffffffffffffffffffffffffffffffffffffff00861689528489019650613604565b6135db8a613523565b60005b868110156135fc578154818c015285820191505b83810190506135de565b505084890196505b505050505050809150505b92915050565b600060808201905085825284602083015283604083015273ffffffffffffffffffffffffffffffffffffffff831660608301525b95945050505050565b600060808201905085825273ffffffffffffffffffffffffffffffffffffffff851660208301528360408301528260608301525b95945050505050565b7f1901000000000000000000000000000000000000000000000000000000000000815282600282015281602282015260006042820190505b9392505050565b600060808201905085825260ff851660208301528360408301528260608301525b95945050505050565b60208152602060208201527f64656c656761746542795369673a20696e76616c6964207369676e6174757265604082015260006060820190505b919050565b60007fffffffffffffffffffffffffffffffffffffffffffffffffffffffffffffffff82141561376a57613769613474565b5b6001820190505b919050565b60208152601c60208201527f64656c656761746542795369673a20696e76616c6964206e6f6e636500000000604082015260006060820190505b919050565b60208152602060208201527f64656c656761746542795369673a207369676e61747572652065787069726564604082015260006060820190505b919050565b60208152602560208201527f45524332303a207472616e736665722066726f6d20746865207a65726f20616460408201527f6472657373000000000000000000000000000000000000000000000000000000606082015260006080820190505b919050565b60208152602360208201527f45524332303a207472616e7366657220746f20746865207a65726f206164647260408201527f6573730000000000000000000000000000000000000000000000000000000000606082015260006080820190505b919050565b6000828210156138d1576138d0613474565b5b82820390505b92915050565b600082198211156138f1576138f0613474565b5b82820190505b92915050565b60208152602460208201527f45524332303a20617070726f76652066726f6d20746865207a65726f2061646460408201527f7265737300000000000000000000000000000000000000000000000000000000606082015260006080820190505b919050565b60208152602160208201527f45524332303a206275726e2066726f6d20746865207a65726f2061646472657360408201527f7300000000000000000000000000000000000000000000000000000000000000606082015260006080820190505b919050565b60208152601f60208201527f45524332303a206d696e7420746f20746865207a65726f206164647265737300604082015260006060820190505b919050565b600063ffffffff808316818516808303821115613a2657613a25613474565b5b80820193505050505b92915050565b60006040820190508382528260208301525b9392505050565b60208152602760208201527f53616665436173743a2076616c756520646f65736e27742066697420696e203260408201527f3234206269747300000000000000000000000000000000000000000000000000606082015260006080820190505b919050565bfe45524332303a206275726e20616d6f756e7420657863656564732062616c616e636545524332303a20696e63726561736520616c6c6f77616e6365206f766572666c6f7745524332303a207472616e7366657220616d6f756e7420657863656564732062616c616e636545524332303a206275726e20616d6f756e74206578636565647320746f74616c20737570706c7945524332303a207472616e7366657220616d6f756e74206578636565647320616c6c6f77616e636545524332303a206275726e20616d6f756e74206578636565647320616c6c6f77616e63655f7772697465436865636b706f696e743a20626c6f636b206e756d626572206578636565647320333220626974735f6d6f7665566f7465733a20766f746520616d6f756e7420756e646572666c6f77735f6d6f7665566f7465733a20766f746520616d6f756e74206f766572666c6f777345524332303a2064656372656173656420616c6c6f77616e63652062656c6f77207a65726fa264697066735822122033e238b06383330601d8d20ea1acf2708130176d19aa39989aa446a5f10bfb1764736f6c634300080c0033",
  "linkReferences": {},
  "deployedLinkReferences": {}
}