{
  "_format": "hh-sol-artifact-1",
  "contractName": "Market",
  "sourceName": "contracts/core/logic/Market.sol",
  "abi": [
    {
      "inputs": [
        {
          "components": [
            {
              "internalType": "contract IGovernor",
              "name": "Governor",
              "type": "address"
            },
            {
              "internalType": "contract IProtocolLock",
              "name": "ProtocolLock",
              "type": "address"
            },
            {
              "internalType": "contract IPositionNFT",
              "name": "HuePositionNFT",
              "type": "address"
            },
            {
              "internalType": "contract IHue",
              "name": "Hue",
              "type": "address"
            },
            {
              "internalType": "contract ILendHue",
              "name": "LendHue",
              "type": "address"
            },
            {
              "internalType": "contract IAccounting",
              "name": "Accounting",
              "type": "address"
            },
            {
              "internalType": "contract IERC20",
              "name": "TruEth",
              "type": "address"
            }
          ],
          "internalType": "struct IMarket.ConstructorParams",
          "name": "params",
          "type": "tuple"
        }
      ],
      "stateMutability": "nonpayable",
      "type": "constructor"
    },
    {
      "anonymous": false,
      "inputs": [
        {
          "indexed": false,
          "internalType": "uint256",
          "name": "requirement",
          "type": "uint256"
        }
      ],
      "name": "CollateralizationRequirementUpdated",
      "type": "event"
    },
    {
      "anonymous": false,
      "inputs": [
        {
          "indexed": true,
          "internalType": "uint64",
          "name": "period",
          "type": "uint64"
        },
        {
          "indexed": false,
          "internalType": "uint64",
          "name": "periods",
          "type": "uint64"
        },
        {
          "indexed": false,
          "internalType": "uint256",
          "name": "newDebt",
          "type": "uint256"
        },
        {
          "indexed": false,
          "internalType": "uint256",
          "name": "rewardCount",
          "type": "uint256"
        },
        {
          "indexed": false,
          "internalType": "uint256",
          "name": "cumulativeDebt",
          "type": "uint256"
        },
        {
          "indexed": false,
          "internalType": "uint256",
          "name": "debtExchangeRate",
          "type": "uint256"
        }
      ],
      "name": "InterestAccrued",
      "type": "event"
    },
    {
      "anonymous": false,
      "inputs": [
        {
          "indexed": false,
          "internalType": "uint256",
          "name": "percentage",
          "type": "uint256"
        }
      ],
      "name": "InterestPortionToLendersUpdated",
      "type": "event"
    },
    {
      "anonymous": false,
      "inputs": [
        {
          "indexed": true,
          "internalType": "address",
          "name": "account",
          "type": "address"
        },
        {
          "indexed": false,
          "internalType": "uint256",
          "name": "hueCount",
          "type": "uint256"
        },
        {
          "indexed": false,
          "internalType": "uint256",
          "name": "lendTokenCount",
          "type": "uint256"
        }
      ],
      "name": "Lend",
      "type": "event"
    },
    {
      "anonymous": false,
      "inputs": [
        {
          "indexed": false,
          "internalType": "uint256",
          "name": "size",
          "type": "uint256"
        }
      ],
      "name": "MinPositionSizeUpdated",
      "type": "event"
    },
    {
      "anonymous": false,
      "inputs": [
        {
          "indexed": true,
          "internalType": "uint64",
          "name": "positionID",
          "type": "uint64"
        },
        {
          "indexed": false,
          "internalType": "uint256",
          "name": "debtIncrease",
          "type": "uint256"
        },
        {
          "indexed": false,
          "internalType": "uint256",
          "name": "debtDecrease",
          "type": "uint256"
        },
        {
          "indexed": false,
          "internalType": "uint256",
          "name": "collateralIncrease",
          "type": "uint256"
        },
        {
          "indexed": false,
          "internalType": "uint256",
          "name": "collateralDecrease",
          "type": "uint256"
        },
        {
          "indexed": false,
          "internalType": "uint256",
          "name": "newDebt",
          "type": "uint256"
        },
        {
          "indexed": false,
          "internalType": "uint256",
          "name": "newCollateral",
          "type": "uint256"
        }
      ],
      "name": "PositionAdjusted",
      "type": "event"
    },
    {
      "anonymous": false,
      "inputs": [
        {
          "indexed": true,
          "internalType": "address",
          "name": "creator",
          "type": "address"
        },
        {
          "indexed": true,
          "internalType": "uint64",
          "name": "positionID",
          "type": "uint64"
        },
        {
          "indexed": false,
          "internalType": "uint256",
          "name": "initialDebt",
          "type": "uint256"
        }
      ],
      "name": "PositionCreated",
      "type": "event"
    },
    {
      "anonymous": false,
      "inputs": [
        {
          "indexed": true,
          "internalType": "uint256",
          "name": "positionID",
          "type": "uint256"
        },
        {
          "indexed": true,
          "internalType": "uint64",
          "name": "period",
          "type": "uint64"
        },
        {
          "indexed": false,
          "internalType": "uint256",
          "name": "debtAfter",
          "type": "uint256"
        },
        {
          "indexed": false,
          "internalType": "uint256",
          "name": "tcpRewards",
          "type": "uint256"
        }
      ],
      "name": "PositionUpdated",
      "type": "event"
    },
    {
      "anonymous": false,
      "inputs": [
        {
          "indexed": true,
          "internalType": "address",
          "name": "account",
          "type": "address"
        },
        {
          "indexed": true,
          "internalType": "bool",
          "name": "isKickback",
          "type": "bool"
        },
        {
          "indexed": false,
          "internalType": "uint256",
          "name": "tcpRewards",
          "type": "uint256"
        }
      ],
      "name": "RewardsDistributed",
      "type": "event"
    },
    {
      "anonymous": false,
      "inputs": [],
      "name": "Stopped",
      "type": "event"
    },
    {
      "anonymous": false,
      "inputs": [
        {
          "indexed": false,
          "internalType": "uint32",
          "name": "duration",
          "type": "uint32"
        }
      ],
      "name": "TwapDurationUpdated",
      "type": "event"
    },
    {
      "anonymous": false,
      "inputs": [
        {
          "indexed": true,
          "internalType": "address",
          "name": "account",
          "type": "address"
        },
        {
          "indexed": false,
          "internalType": "uint256",
          "name": "hueCount",
          "type": "uint256"
        },
        {
          "indexed": false,
          "internalType": "uint256",
          "name": "lendTokenCount",
          "type": "uint256"
        }
      ],
      "name": "Unlend",
      "type": "event"
    },
    {
      "inputs": [],
      "name": "accounting",
      "outputs": [
        {
          "internalType": "contract IAccounting",
          "name": "",
          "type": "address"
        }
      ],
      "stateMutability": "view",
      "type": "function"
    },
    {
      "inputs": [],
      "name": "accrueInterest",
      "outputs": [],
      "stateMutability": "nonpayable",
      "type": "function"
    },
    {
      "inputs": [
        {
          "internalType": "uint64",
          "name": "positionID",
          "type": "uint64"
        },
        {
          "internalType": "int256",
          "name": "debtChange",
          "type": "int256"
        },
        {
          "internalType": "uint256",
          "name": "collateralIncrease",
          "type": "uint256"
        },
        {
          "internalType": "uint256",
          "name": "collateralDecrease",
          "type": "uint256"
        },
        {
          "internalType": "uint32",
          "name": "ui",
          "type": "uint32"
        }
      ],
      "name": "adjustPosition",
      "outputs": [],
      "stateMutability": "nonpayable",
      "type": "function"
    },
    {
      "inputs": [
        {
          "internalType": "uint64[]",
          "name": "positionIDs",
          "type": "uint64[]"
        },
        {
          "internalType": "uint32",
          "name": "ui",
          "type": "uint32"
        }
      ],
      "name": "claimAllRewards",
      "outputs": [],
      "stateMutability": "nonpayable",
      "type": "function"
    },
    {
      "inputs": [],
      "name": "collateralizationRequirement",
      "outputs": [
        {
          "internalType": "uint256",
          "name": "",
          "type": "uint256"
        }
      ],
      "stateMutability": "view",
      "type": "function"
    },
    {
      "inputs": [
        {
          "internalType": "uint256",
          "name": "initialCollateral",
          "type": "uint256"
        },
        {
          "internalType": "uint256",
          "name": "initialDebt",
          "type": "uint256"
        },
        {
          "internalType": "uint32",
          "name": "ui",
          "type": "uint32"
        }
      ],
      "name": "createPosition",
      "outputs": [
        {
          "internalType": "uint64",
          "name": "positionID",
          "type": "uint64"
        }
      ],
      "stateMutability": "nonpayable",
      "type": "function"
    },
    {
      "inputs": [],
      "name": "currentPeriod",
      "outputs": [
        {
          "internalType": "uint64",
          "name": "period",
          "type": "uint64"
        }
      ],
      "stateMutability": "view",
      "type": "function"
    },
    {
      "inputs": [],
      "name": "deployer",
      "outputs": [
        {
          "internalType": "address",
          "name": "",
          "type": "address"
        }
      ],
      "stateMutability": "view",
      "type": "function"
    },
    {
      "inputs": [],
      "name": "firstPeriod",
      "outputs": [
        {
          "internalType": "uint64",
          "name": "",
          "type": "uint64"
        }
      ],
      "stateMutability": "view",
      "type": "function"
    },
    {
      "inputs": [],
      "name": "governor",
      "outputs": [
        {
          "internalType": "contract IGovernor",
          "name": "",
          "type": "address"
        }
      ],
      "stateMutability": "view",
      "type": "function"
    },
    {
      "inputs": [],
      "name": "hue",
      "outputs": [
        {
          "internalType": "contract IHue",
          "name": "",
          "type": "address"
        }
      ],
      "stateMutability": "view",
      "type": "function"
    },
    {
      "inputs": [],
      "name": "huePositionNFT",
      "outputs": [
        {
          "internalType": "contract IPositionNFT",
          "name": "",
          "type": "address"
        }
      ],
      "stateMutability": "view",
      "type": "function"
    },
    {
      "inputs": [],
      "name": "init",
      "outputs": [],
      "stateMutability": "nonpayable",
      "type": "function"
    },
    {
      "inputs": [],
      "name": "interestPortionToLenders",
      "outputs": [
        {
          "internalType": "uint256",
          "name": "",
          "type": "uint256"
        }
      ],
      "stateMutability": "view",
      "type": "function"
    },
    {
      "inputs": [],
      "name": "lastPeriodGlobalInterestAccrued",
      "outputs": [
        {
          "internalType": "uint64",
          "name": "",
          "type": "uint64"
        }
      ],
      "stateMutability": "view",
      "type": "function"
    },
    {
      "inputs": [
        {
          "internalType": "uint256",
          "name": "hueCount",
          "type": "uint256"
        }
      ],
      "name": "lend",
      "outputs": [],
      "stateMutability": "nonpayable",
      "type": "function"
    },
    {
      "inputs": [],
      "name": "lendHue",
      "outputs": [
        {
          "internalType": "contract ILendHue",
          "name": "",
          "type": "address"
        }
      ],
      "stateMutability": "view",
      "type": "function"
    },
    {
      "inputs": [],
      "name": "minPositionSize",
      "outputs": [
        {
          "internalType": "uint256",
          "name": "",
          "type": "uint256"
        }
      ],
      "stateMutability": "view",
      "type": "function"
    },
    {
      "inputs": [],
      "name": "periodLength",
      "outputs": [
        {
          "internalType": "uint64",
          "name": "",
          "type": "uint64"
        }
      ],
      "stateMutability": "view",
      "type": "function"
    },
    {
      "inputs": [
        {
          "internalType": "uint64",
          "name": "positionID",
          "type": "uint64"
        }
      ],
      "name": "removeKickback",
      "outputs": [],
      "stateMutability": "nonpayable",
      "type": "function"
    },
    {
      "inputs": [
        {
          "internalType": "uint256",
          "name": "requirement",
          "type": "uint256"
        }
      ],
      "name": "setCollateralizationRequirement",
      "outputs": [],
      "stateMutability": "nonpayable",
      "type": "function"
    },
    {
      "inputs": [
        {
          "internalType": "uint256",
          "name": "percentage",
          "type": "uint256"
        }
      ],
      "name": "setInterestPortionToLenders",
      "outputs": [],
      "stateMutability": "nonpayable",
      "type": "function"
    },
    {
      "inputs": [
        {
          "internalType": "uint256",
          "name": "size",
          "type": "uint256"
        }
      ],
      "name": "setMinPositionSize",
      "outputs": [],
      "stateMutability": "nonpayable",
      "type": "function"
    },
    {
      "inputs": [
        {
          "internalType": "uint32",
          "name": "duration",
          "type": "uint32"
        }
      ],
      "name": "setTwapDuration",
      "outputs": [],
      "stateMutability": "nonpayable",
      "type": "function"
    },
    {
      "inputs": [],
      "name": "stop",
      "outputs": [],
      "stateMutability": "nonpayable",
      "type": "function"
    },
    {
      "inputs": [],
      "name": "stopped",
      "outputs": [
        {
          "internalType": "bool",
          "name": "",
          "type": "bool"
        }
      ],
      "stateMutability": "view",
      "type": "function"
    },
    {
      "inputs": [
        {
          "internalType": "uint64",
          "name": "positionID",
          "type": "uint64"
        }
      ],
      "name": "systemGetUpdatedPosition",
      "outputs": [
        {
          "components": [
            {
              "internalType": "uint256",
              "name": "startCumulativeDebt",
              "type": "uint256"
            },
            {
              "internalType": "uint256",
              "name": "collateral",
              "type": "uint256"
            },
            {
              "internalType": "uint256",
              "name": "debt",
              "type": "uint256"
            },
            {
              "internalType": "uint256",
              "name": "startDebtExchangeRate",
              "type": "uint256"
            },
            {
              "internalType": "uint256",
              "name": "startTCPRewards",
              "type": "uint256"
            },
            {
              "internalType": "uint64",
              "name": "lastTimeUpdated",
              "type": "uint64"
            },
            {
              "internalType": "uint64",
              "name": "lastBlockPositionIncreased",
              "type": "uint64"
            },
            {
              "internalType": "int24",
              "name": "tick",
              "type": "int24"
            },
            {
              "internalType": "bool",
              "name": "tickSet",
              "type": "bool"
            },
            {
              "internalType": "uint64",
              "name": "tickIndex",
              "type": "uint64"
            },
            {
              "internalType": "uint32",
              "name": "ui",
              "type": "uint32"
            },
            {
              "internalType": "address",
              "name": "kickbackDestination",
              "type": "address"
            },
            {
              "internalType": "uint64",
              "name": "kickbackPortion",
              "type": "uint64"
            }
          ],
          "internalType": "struct IAccounting.DebtPosition",
          "name": "",
          "type": "tuple"
        }
      ],
      "stateMutability": "nonpayable",
      "type": "function"
    },
    {
      "inputs": [],
      "name": "truEth",
      "outputs": [
        {
          "internalType": "contract IERC20",
          "name": "",
          "type": "address"
        }
      ],
      "stateMutability": "view",
      "type": "function"
    },
    {
      "inputs": [],
      "name": "twapDuration",
      "outputs": [
        {
          "internalType": "uint32",
          "name": "",
          "type": "uint32"
        }
      ],
      "stateMutability": "view",
      "type": "function"
    },
    {
      "inputs": [
        {
          "internalType": "uint256",
          "name": "lendTokenCount",
          "type": "uint256"
        }
      ],
      "name": "unlend",
      "outputs": [],
      "stateMutability": "nonpayable",
      "type": "function"
    },
    {
      "inputs": [
        {
          "internalType": "bytes4",
          "name": "",
          "type": "bytes4"
        }
      ],
      "name": "validUpdate",
      "outputs": [
        {
          "internalType": "bool",
          "name": "",
          "type": "bool"
        }
      ],
      "stateMutability": "view",
      "type": "function"
    },
    {
      "inputs": [
        {
          "internalType": "uint256",
          "name": "lendTokenCount",
          "type": "uint256"
        }
      ],
      "name": "valueOfLendTokensInHue",
      "outputs": [
        {
          "internalType": "uint256",
          "name": "",
          "type": "uint256"
        }
      ],
      "stateMutability": "view",
      "type": "function"
    }
  ],
  "bytecode": "0x6101a0604052600160026000509090556714d1120d7b160000600360005090905568056bc75e2d6310000060046000509090556702c68af0bb1400006005600050909055610708600660006101000a81548163ffffffff021916908363ffffffff160217905550348015620000745760006000fd5b5060405162005c5938038062005c5983398181016040528101906200009a91906200059a565b5b603c5b816000015182602001515b815b8073ffffffffffffffffffffffffffffffffffffffff1660808173ffffffffffffffffffffffffffffffffffffffff16815260200150505b508073ffffffffffffffffffffffffffffffffffffffff1660a08173ffffffffffffffffffffffffffffffffffffffff16815260200150505b505060018162000131620004ee60201b60201c565b6200013d919062000686565b620001499190620006c1565b67ffffffffffffffff1660e08167ffffffffffffffff16815260200150508067ffffffffffffffff1660c08167ffffffffffffffff16815260200150505b50806040015173ffffffffffffffffffffffffffffffffffffffff166101008173ffffffffffffffffffffffffffffffffffffffff1681526020015050806060015173ffffffffffffffffffffffffffffffffffffffff166101208173ffffffffffffffffffffffffffffffffffffffff1681526020015050806080015173ffffffffffffffffffffffffffffffffffffffff166101408173ffffffffffffffffffffffffffffffffffffffff16815260200150508060a0015173ffffffffffffffffffffffffffffffffffffffff166101608173ffffffffffffffffffffffffffffffffffffffff16815260200150508060c0015173ffffffffffffffffffffffffffffffffffffffff166101808173ffffffffffffffffffffffffffffffffffffffff16815260200150506000604051806080016040528063ef5e1cac60e01b7bffffffffffffffffffffffffffffffffffffffffffffffffffffffff19167bffffffffffffffffffffffffffffffffffffffffffffffffffffffff1916815260200163c433c80a60e01b7bffffffffffffffffffffffffffffffffffffffffffffffffffffffff19167bffffffffffffffffffffffffffffffffffffffffffffffffffffffff191681526020016306972dcd60e01b7bffffffffffffffffffffffffffffffffffffffffffffffffffffffff19167bffffffffffffffffffffffffffffffffffffffffffffffffffffffff19168152602001635a6127a960e01b7bffffffffffffffffffffffffffffffffffffffffffffffffffffffff19167bffffffffffffffffffffffffffffffffffffffffffffffffffffffff191681526020015090506000600090505b81506004811015620004a3576001600160005060008484600481101515620004245762000423620006f5565b5b60200201517bffffffffffffffffffffffffffffffffffffffffffffffffffffffff19167bffffffffffffffffffffffffffffffffffffffffffffffffffffffff1916815260200190815260200160002060006101000a81548160ff0219169083151502179055505b80806200049a906200070d565b915050620003f7565b50336006600c6101000a81548173ffffffffffffffffffffffffffffffffffffffff021916908373ffffffffffffffffffffffffffffffffffffffff160217905550505b5062000771565b600062000508426200051060201b620019cb17909060201c565b905080505b90565b6000680100000000000000008210151562000562576040517f08c379a0000000000000000000000000000000000000000000000000000000008152600401620005599062000731565b60405180910390fd5b8190506200056b565b9190505662000770565b6000815190506001600160a01b03811681141515620005945760006000fd5b5b919050565b600060e08284031215620005ae5760006000fd5b60405160e081018181106001600160401b0382111715620005df57634e487b7160e01b600052604160045260246000fd5b8060405250620005ef8362000575565b8152620005ff6020840162000575565b6020820152620006126040840162000575565b6040820152620006256060840162000575565b6060820152620006386080840162000575565b60808201526200064b60a0840162000575565b60a08201526200065e60c0840162000575565b60c0820152809150505b92915050565b634e487b7160e01b600052601160045260246000fd5b565b60006001600160401b03808416801515620006b157634e487b7160e01b600052601260045260246000fd5b8082851604925050505b92915050565b60006001600160401b03808316818516915081811015620006e757620006e66200066e565b5b818103925050505b92915050565b634e487b7160e01b600052603260045260246000fd5b565b60006000198214156200072557620007246200066e565b5b6001820190505b919050565b60208152601160208201527f6d6f7265207468616e2036342062697473000000000000000000000000000000604082015260006060820190505b919050565b5b60805160a05160c05160e05161010051610120516101405161016051610180516152fd6200095c600039600081816110eb01526128c30152600081816107630152818161096901528181610b0d01528181610b9601528181610c4801528181610e9301528181610f59015281816113fc0152818161149c015281816115ef015281816117d20152818161189901528181611f120152818161246401528181612581015281816126f6015281816128e50152818161291c01528181612a7d01528181612e7f01528181612f420152818161300f015261324e0152600081816106d40152818161086e01528181610c7501526132e2015260008181610a5a01528181610c260152818161278e0152818161282701528181612c8a01528181612fd301528181613094015281816130d001526131550152600081816108b101528181610d9801528181610ddb01528181611198015281816113c00152818161171c015261214e0152600081816110a301528181611a2b01526136760152600081816110c701528181611a4c0152613697015260008181611b410152611cc60152600081816106450152818161155601528181611a9a01528181611d5901528181612048015281816121eb01528181612b1101528181612d57015281816135a2015261389d01526152fd6000f3fe60806040523480156100115760006000fd5b50600436106101f55760003560e01c8063a89f51ae11610110578063d5f39488116100a3578063eb6843ce11610072578063eb6843ce1461052f578063ed92182f1461055f578063ef5e1cac1461057b578063f6979f2914610597576101f5565b8063d5f39488146104a7578063d68f2af2146104c5578063e11c8762146104f5578063e1c7392a14610525576101f5565b8063c433c80a116100df578063c433c80a14610431578063c4e3a63b1461044d578063d2ca21151461046b578063d2f827eb14610489576101f5565b8063a89f51ae146103bb578063b2326b57146103d9578063b6ae213a146103f5578063bb8313c214610413576101f5565b80632e51bde61161018857806375f12b211161015757806375f12b21146103595780639624e83e14610377578063a6aa57ce14610395578063a6afed95146103b1576101f5565b80632e51bde6146102e557806332374174146103015780635658c0121461031f5780635a6127a91461033d576101f5565b8063113cf1ab116101c4578063113cf1ab1461025d578063197b1bf51461028d57806326d89545146102a95780632cae0269146102c7576101f5565b806306040618146101fb57806306972dcd1461021957806307da68f5146102355780630c340a241461023f576101f5565b60006000fd5b6102036105b5565b604051610210919061415e565b60405180910390f35b610233600480360381019061022e919061417a565b6105cd565b005b61023d610623565b005b610247610643565b6040516102549190614198565b60405180910390f35b610277600480360381019061027291906141c0565b610667565b604051610284919061421b565b60405180910390f35b6102a760048036038101906102a2919061417a565b61068c565b005b6102b1610856565b6040516102be919061423d565b60405180910390f35b6102cf61086c565b6040516102dc9190614255565b60405180910390f35b6102ff60048036038101906102fa91906142b3565b610890565b005b610309610a58565b604051610316919061430f565b60405180910390f35b610327610a7c565b6040516103349190614337565b60405180910390f35b6103576004803603810190610352919061417a565b610a85565b005b610361610af8565b60405161036e919061421b565b60405180910390f35b61037f610b0b565b60405161038c9190614349565b60405180910390f35b6103af60048036038101906103aa919061417a565b610b2f565b005b6103b9610d68565b005b6103c3610d96565b6040516103d09190614371565b60405180910390f35b6103f360048036038101906103ee9190614399565b610dba565b005b6103fd610ffb565b60405161040a919061415e565b60405180910390f35b61041b611015565b6040516104289190614337565b60405180910390f35b61044b600480360381019061044691906143c2565b61101e565b005b6104556110a1565b604051610462919061415e565b60405180910390f35b6104736110c5565b604051610480919061415e565b60405180910390f35b6104916110e9565b60405161049e91906143eb565b60405180910390f35b6104af61110d565b6040516104bc9190614431565b60405180910390f35b6104df60048036038101906104da9190614459565b611133565b6040516104ec919061415e565b60405180910390f35b61050f600480360381019061050a919061417a565b61130a565b60405161051c9190614337565b60405180910390f35b61052d611338565b005b61054960048036038101906105449190614399565b61153e565b6040516105569190614573565b60405180910390f35b6105796004803603810190610574919061458d565b6116af565b005b6105956004803603810190610590919061417a565b611954565b005b61059f6119c2565b6040516105ac9190614337565b60405180910390f35b60006105c5611a2763ffffffff16565b905080505b90565b6105db611a9563ffffffff16565b8060046000508190909055507f113d15441cef41c1a48eb1bc2c6fa7b881b201a5c4b2913272f80defe12ce3c3816040516106169190614337565b60405180910390a15b5b50565b610631611a9563ffffffff16565b61063f611af563ffffffff16565b5b5b565b7f000000000000000000000000000000000000000000000000000000000000000081565b600160005060205280600052604060002060009150909054906101000a900460ff1681565b61069a611b3f63ffffffff16565b6106a8611c1c63ffffffff16565b6106ba60008211611c7163ffffffff16565b600033905060006106d08361130a63ffffffff16565b90507f000000000000000000000000000000000000000000000000000000000000000073ffffffffffffffffffffffffffffffffffffffff166379cc679083856040518363ffffffff1660e01b815260040161072d929190614620565b600060405180830381600087803b1580156107485760006000fd5b505af115801561075d573d600060003e3d6000fd5b505050507f000000000000000000000000000000000000000000000000000000000000000073ffffffffffffffffffffffffffffffffffffffff1663b241bbac83836040518363ffffffff1660e01b81526004016107bc929190614620565b600060405180830381600087803b1580156107d75760006000fd5b505af11580156107ec573d600060003e3d6000fd5b505050508173ffffffffffffffffffffffffffffffffffffffff167fefc56a1a7590fc4eb13cd40b6a2ceee41f3869c6ea818d20d9a18f2d6315ca18828560405161083892919061464f565b60405180910390a250505b5b610852611cb763ffffffff16565b5b50565b600660009054906101000a900463ffffffff1681565b7f000000000000000000000000000000000000000000000000000000000000000081565b61089e611b3f63ffffffff16565b6108ac611d4963ffffffff16565b6109577f000000000000000000000000000000000000000000000000000000000000000073ffffffffffffffffffffffffffffffffffffffff1663430c208133886040518363ffffffff1660e01b815260040161090a929190614668565b602060405180830381865afa158015610928573d600060003e3d6000fd5b505050506040513d601f19601f8201168201806040525081019061094c91906146be565b611e2c63ffffffff16565b6000610a0e8667ffffffffffffffff167f000000000000000000000000000000000000000000000000000000000000000073ffffffffffffffffffffffffffffffffffffffff16630f85fc5a896040518263ffffffff1660e01b81526004016109c0919061415e565b6101a060405180830381865afa1580156109df573d600060003e3d6000fd5b505050506040513d601f19601f82011682018060405250810190610a0391906147c1565b611e7263ffffffff16565b90508181610140019063ffffffff16908163ffffffff1681526020015050610a3f818787878761232063ffffffff16565b505b5b610a50611cb763ffffffff16565b5b5050505050565b7f000000000000000000000000000000000000000000000000000000000000000081565b60036000505481565b610a93611a9563ffffffff16565b806005600050819090905550670de0b6b3a764000060056000505411151515610abc5760006000fd5b7f95c718270dc047bb0f84e533ee71ed5ee3961f14be924c0e493ba6e1ff078ae281604051610aeb9190614337565b60405180910390a15b5b50565b600060009054906101000a900460ff1681565b7f000000000000000000000000000000000000000000000000000000000000000081565b610b3d611b3f63ffffffff16565b610b4b611d4963ffffffff16565b610b5d60008211611c7163ffffffff16565b6000339050610b70612a0863ffffffff16565b6000610b92610b8361324863ffffffff16565b846133b590919063ffffffff16565b90507f000000000000000000000000000000000000000000000000000000000000000073ffffffffffffffffffffffffffffffffffffffff16632c73f09e846040518263ffffffff1660e01b8152600401610bed9190614337565b600060405180830381600087803b158015610c085760006000fd5b505af1158015610c1d573d600060003e3d6000fd5b50505050610c737f0000000000000000000000000000000000000000000000000000000000000000837f0000000000000000000000000000000000000000000000000000000000000000866133db63ffffffff16565b7f000000000000000000000000000000000000000000000000000000000000000073ffffffffffffffffffffffffffffffffffffffff1663449a52f883836040518363ffffffff1660e01b8152600401610cce929190614620565b600060405180830381600087803b158015610ce95760006000fd5b505af1158015610cfe573d600060003e3d6000fd5b505050508173ffffffffffffffffffffffffffffffffffffffff167f8fff79b574da9a93d7a5408c2fc00c4a9b2b462321c1659b2fbbb9ff3dd221ff8483604051610d4a92919061464f565b60405180910390a250505b5b610d64611cb763ffffffff16565b5b50565b610d7661346b63ffffffff16565b610d84612a0863ffffffff16565b5b610d936134c663ffffffff16565b5b565b7f000000000000000000000000000000000000000000000000000000000000000081565b610dc8611b3f63ffffffff16565b610dd6611d4963ffffffff16565b610e817f000000000000000000000000000000000000000000000000000000000000000073ffffffffffffffffffffffffffffffffffffffff1663430c208133846040518363ffffffff1660e01b8152600401610e34929190614668565b602060405180830381865afa158015610e52573d600060003e3d6000fd5b505050506040513d601f19601f82011682018060405250810190610e7691906146be565b611e2c63ffffffff16565b6000610f388267ffffffffffffffff167f000000000000000000000000000000000000000000000000000000000000000073ffffffffffffffffffffffffffffffffffffffff16630f85fc5a856040518263ffffffff1660e01b8152600401610eea919061415e565b6101a060405180830381865afa158015610f09573d600060003e3d6000fd5b505050506040513d601f19601f82011682018060405250810190610f2d91906147c1565b611e7263ffffffff16565b9050600081610140019063ffffffff16908163ffffffff16815260200150507f000000000000000000000000000000000000000000000000000000000000000073ffffffffffffffffffffffffffffffffffffffff16635a6beaf483836040518363ffffffff1660e01b8152600401610fb29291906148a6565b600060405180830381600087803b158015610fcd5760006000fd5b505af1158015610fe2573d600060003e3d6000fd5b50505050505b5b610ff7611cb763ffffffff16565b5b50565b600660049054906101000a900467ffffffffffffffff1681565b60046000505481565b61102c611a9563ffffffff16565b61012c8163ffffffff16101515156110445760006000fd5b80600660006101000a81548163ffffffff021916908363ffffffff1602179055507f670aac3910a07dcfe5267c8b0bf2357abdb454e509764d13e94e85ee13c6da2081604051611094919061423d565b60405180910390a15b5b50565b7f000000000000000000000000000000000000000000000000000000000000000081565b7f000000000000000000000000000000000000000000000000000000000000000081565b7f000000000000000000000000000000000000000000000000000000000000000081565b6006600c9054906101000a900473ffffffffffffffffffffffffffffffffffffffff1681565b6000611143611b3f63ffffffff16565b611151611d4963ffffffff16565b600084111515611196576040517f08c379a000000000000000000000000000000000000000000000000000000000815260040161118d906148d1565b60405180910390fd5b7f000000000000000000000000000000000000000000000000000000000000000073ffffffffffffffffffffffffffffffffffffffff1663755edd17336040518263ffffffff1660e01b81526004016111ef9190614431565b6020604051808303816000875af115801561120f573d600060003e3d6000fd5b505050506040513d601f19601f820116820180604052508101906112339190614910565b9050805061123f614062565b8281610140019063ffffffff16908163ffffffff16815260200150506112986112788367ffffffffffffffff1683611e7263ffffffff16565b8361128a876134d6909063ffffffff16565b88600061232063ffffffff16565b8167ffffffffffffffff163373ffffffffffffffffffffffffffffffffffffffff167f24c9bb74341922446798a07669f56d3efec500a78e81429643958e7a42cb6b12866040516112e99190614337565b60405180910390a3505b5b611302611cb763ffffffff16565b5b9392505050565b600061132c61131d61324863ffffffff16565b8361354990919063ffffffff16565b9050611333565b919050565b6113976006600c9054906101000a900473ffffffffffffffffffffffffffffffffffffffff1673ffffffffffffffffffffffffffffffffffffffff163373ffffffffffffffffffffffffffffffffffffffff1614611e2c63ffffffff16565b6006600c6101000a81549073ffffffffffffffffffffffffffffffffffffffff021916905560007f000000000000000000000000000000000000000000000000000000000000000073ffffffffffffffffffffffffffffffffffffffff1663755edd177f00000000000000000000000000000000000000000000000000000000000000006040518263ffffffff1660e01b81526004016114379190614431565b6020604051808303816000875af1158015611457573d600060003e3d6000fd5b505050506040513d601f19601f8201168201806040525081019061147b9190614910565b67ffffffffffffffff161415156114925760006000fd5b61149a614062565b7f000000000000000000000000000000000000000000000000000000000000000073ffffffffffffffffffffffffffffffffffffffff16635a6beaf460006114e9600085611e7263ffffffff16565b6040518363ffffffff1660e01b8152600401611506929190614939565b600060405180830381600087803b1580156115215760006000fd5b505af1158015611536573d600060003e3d6000fd5b50505050505b565b611546614062565b61155461346b63ffffffff16565b7f000000000000000000000000000000000000000000000000000000000000000073ffffffffffffffffffffffffffffffffffffffff16639622cd8f336040518263ffffffff1660e01b81526004016115ad9190614431565b60006040518083038186803b1580156115c65760006000fd5b505afa1580156115db573d600060003e3d6000fd5b505050506116948267ffffffffffffffff167f000000000000000000000000000000000000000000000000000000000000000073ffffffffffffffffffffffffffffffffffffffff16630f85fc5a856040518263ffffffff1660e01b8152600401611646919061415e565b6101a060405180830381865afa158015611665573d600060003e3d6000fd5b505050506040513d601f19601f8201168201806040525081019061168991906147c1565b611e7263ffffffff16565b905061169b565b6116a96134c663ffffffff16565b5b919050565b6116bd611b3f63ffffffff16565b6116cb611c1c63ffffffff16565b60008383905090506116db614062565b60006000600090505b8381101561193a57868682818110151561170157611700614964565b5b90506020020160208101906117169190614399565b915081507f000000000000000000000000000000000000000000000000000000000000000073ffffffffffffffffffffffffffffffffffffffff1663430c208133846040518363ffffffff1660e01b8152600401611775929190614668565b602060405180830381865afa158015611793573d600060003e3d6000fd5b505050506040513d601f19601f820116820180604052508101906117b791906146be565b15156117c257611927565b6118778267ffffffffffffffff167f000000000000000000000000000000000000000000000000000000000000000073ffffffffffffffffffffffffffffffffffffffff16630f85fc5a856040518263ffffffff1660e01b8152600401611829919061415e565b6101a060405180830381865afa158015611848573d600060003e3d6000fd5b505050506040513d601f19601f8201168201806040525081019061186c91906147c1565b611e7263ffffffff16565b925082508483610140019063ffffffff16908163ffffffff16815260200150507f000000000000000000000000000000000000000000000000000000000000000073ffffffffffffffffffffffffffffffffffffffff16635a6beaf483856040518363ffffffff1660e01b81526004016118f29291906148a6565b600060405180830381600087803b15801561190d5760006000fd5b505af1158015611922573d600060003e3d6000fd5b505050505b8080611932906149c6565b9150506116e4565b505050505b5b61194e611cb763ffffffff16565b5b505050565b611962611a9563ffffffff16565b806003600050819090905550670de0b6b3a764000081101515156119865760006000fd5b7f52640f3e2df50709ead28077e905b85df7544c73c32a40259dff3ac35927d5ce816040516119b59190614337565b60405180910390a15b5b50565b60056000505481565b60006801000000000000000082101515611a1a576040517f08c379a0000000000000000000000000000000000000000000000000000000008152600401611a1190614a05565b60405180910390fd5b819050611a22565b919050565b60007f00000000000000000000000000000000000000000000000000000000000000007f0000000000000000000000000000000000000000000000000000000000000000611a7961356f63ffffffff16565b611a839190614a75565b611a8d9190614aa3565b905080505b90565b611af27f000000000000000000000000000000000000000000000000000000000000000073ffffffffffffffffffffffffffffffffffffffff163373ffffffffffffffffffffffffffffffffffffffff1614611e2c63ffffffff16565b5b565b6001600060006101000a81548160ff0219169083151502179055507f7acc84e34091ae817647a4c49116f5cc07f319078ba80f8f5fde37ea7e25cbd660405160405180910390a15b565b7f000000000000000000000000000000000000000000000000000000000000000073ffffffffffffffffffffffffffffffffffffffff1663e97dcb626040518163ffffffff1660e01b8152600401600060405180830381600087803b158015611ba85760006000fd5b505af1158015611bbd573d600060003e3d6000fd5b50505050600260026000505414151515611c0c576040517f08c379a0000000000000000000000000000000000000000000000000000000008152600401611c0390614ad5565b60405180910390fd5b600260026000508190909055505b565b600060009054906101000a900460ff16151515611c6e576040517f08c379a0000000000000000000000000000000000000000000000000000000008152600401611c6590614b14565b60405180910390fd5b5b565b801515611cb3576040517f08c379a0000000000000000000000000000000000000000000000000000000008152600401611caa90614b53565b60405180910390fd5b5b50565b600160026000508190909055507f000000000000000000000000000000000000000000000000000000000000000073ffffffffffffffffffffffffffffffffffffffff1663e9fad8ee6040518163ffffffff1660e01b8152600401600060405180830381600087803b158015611d2d5760006000fd5b505af1158015611d42573d600060003e3d6000fd5b505050505b565b611d57611c1c63ffffffff16565b7f000000000000000000000000000000000000000000000000000000000000000073ffffffffffffffffffffffffffffffffffffffff1663bf86d6906040518163ffffffff1660e01b8152600401602060405180830381865afa158015611dc3573d600060003e3d6000fd5b505050506040513d601f19601f82011682018060405250810190611de791906146be565b151515611e29576040517f08c379a0000000000000000000000000000000000000000000000000000000008152600401611e2090614b92565b60405180910390fd5b5b565b801515611e6e576040517f08c379a0000000000000000000000000000000000000000000000000000000008152600401611e6590614bd1565b60405180910390fd5b5b50565b611e7a614062565b6000611e8a61358a63ffffffff16565b90506000611e9d8261366f63ffffffff16565b9050600060008560a0015167ffffffffffffffff1614611ecf57611eca8560a0015161366f63ffffffff16565b611ed2565b60005b90508067ffffffffffffffff168267ffffffffffffffff16111515611efc5784935050505061231a565b611f0a612a0863ffffffff16565b6000611fac867f000000000000000000000000000000000000000000000000000000000000000073ffffffffffffffffffffffffffffffffffffffff166306ef2d806040518163ffffffff1660e01b8152600401608060405180830381865afa158015611f7c573d600060003e3d6000fd5b505050506040513d601f19601f82011682018060405250810190611fa09190614c10565b866136e363ffffffff16565b8092508196505050600081118015611fc5575060008714155b156122cc57600073ffffffffffffffffffffffffffffffffffffffff1685610160015173ffffffffffffffffffffffffffffffffffffffff161415801561201b5750600085610180015167ffffffffffffffff16115b1561214a57600061204486610180015167ffffffffffffffff16836133b590919063ffffffff16565b90507f000000000000000000000000000000000000000000000000000000000000000073ffffffffffffffffffffffffffffffffffffffff16634d6729f5876101600151836040518363ffffffff1660e01b81526004016120a6929190614620565b600060405180830381600087803b1580156120c15760006000fd5b505af11580156120d6573d600060003e3d6000fd5b505050506001151586610160015173ffffffffffffffffffffffffffffffffffffffff167f8079a05488a0f375c08504c3ba8b3a1371f5a192b7a141bc9294ef7ad41389d9836040516121299190614337565b60405180910390a3612144818361384890919063ffffffff16565b91508150505b60007f000000000000000000000000000000000000000000000000000000000000000073ffffffffffffffffffffffffffffffffffffffff16636352211e896040518263ffffffff1660e01b81526004016121a59190614337565b602060405180830381865afa1580156121c3573d600060003e3d6000fd5b505050506040513d601f19601f820116820180604052508101906121e79190614c9f565b90507f000000000000000000000000000000000000000000000000000000000000000073ffffffffffffffffffffffffffffffffffffffff16634d6729f582846040518363ffffffff1660e01b8152600401612244929190614620565b600060405180830381600087803b15801561225f5760006000fd5b505af1158015612274573d600060003e3d6000fd5b50505050600015158173ffffffffffffffffffffffffffffffffffffffff167f8079a05488a0f375c08504c3ba8b3a1371f5a192b7a141bc9294ef7ad41389d9846040516122c29190614337565b60405180910390a3505b8267ffffffffffffffff16877fc99ac0d15229fa72f1b0756c0eed4e7ede3d80f4e4e0d308ce7a56d1366b8a0387604001518460405161230d92919061464f565b60405180910390a3505050505b92915050565b600060008413612331576000612333565b835b905060006000851261234657600061237a565b6123797fffffffffffffffffffffffffffffffffffffffffffffffffffffffffffffffff8661386390919063ffffffff16565b5b905060008411801561238c5750600083115b1515156123ce576040517f08c379a00000000000000000000000000000000000000000000000000000000081526004016123c590614cc8565b60405180910390fd5b61240160008511806123e05750600084115b806123eb5750600083115b806123f65750600082115b611c7163ffffffff16565b60008211156124f05761241b436119cb909063ffffffff16565b8760c0019067ffffffffffffffff16908167ffffffffffffffff168152602001505061245482886040015161387e90919063ffffffff16565b87604001909081815260200150507f000000000000000000000000000000000000000000000000000000000000000073ffffffffffffffffffffffffffffffffffffffff16632b7c7b11836040518263ffffffff1660e01b81526004016124bb9190614337565b600060405180830381600087803b1580156124d65760006000fd5b505af11580156124eb573d600060003e3d6000fd5b505050505b600081111561260d57438760c0015167ffffffffffffffff1610151561254b576040517f08c379a000000000000000000000000000000000000000000000000000000000815260040161254290614d2d565b60405180910390fd5b8087604001511015612561578660400151905080505b80876040018181516125739190614d6c565b9150909081815260200150507f000000000000000000000000000000000000000000000000000000000000000073ffffffffffffffffffffffffffffffffffffffff16632a7ba1f7826040518263ffffffff1660e01b81526004016125d89190614337565b600060405180830381600087803b1580156125f35760006000fd5b505af1158015612608573d600060003e3d6000fd5b505050505b600084111561263c5761262d84886020015161387e90919063ffffffff16565b87602001909081815260200150505b600083111561266b5761265c83886020015161384890919063ffffffff16565b87602001909081815260200150505b6000876040015111156126f4576004600050548760400151101515156126c6576040517f08c379a00000000000000000000000000000000000000000000000000000000081526004016126bd90614d8b565b60405180910390fd5b60008311806126d55750600082115b156126f3576126f28760400151886020015161389963ffffffff16565b5b5b7f000000000000000000000000000000000000000000000000000000000000000073ffffffffffffffffffffffffffffffffffffffff16635a6beaf487896040518363ffffffff1660e01b815260040161274f9291906148a6565b600060405180830381600087803b15801561276a5760006000fd5b505af115801561277f573d600060003e3d6000fd5b50505050600082111561281c577f000000000000000000000000000000000000000000000000000000000000000073ffffffffffffffffffffffffffffffffffffffff1663449a52f833846040518363ffffffff1660e01b81526004016127e7929190614620565b600060405180830381600087803b1580156128025760006000fd5b505af1158015612817573d600060003e3d6000fd5b505050505b60008111156128b5577f000000000000000000000000000000000000000000000000000000000000000073ffffffffffffffffffffffffffffffffffffffff166379cc679033836040518363ffffffff1660e01b8152600401612880929190614620565b600060405180830381600087803b15801561289b5760006000fd5b505af11580156128b0573d600060003e3d6000fd5b505050505b6000841115612911576129107f0000000000000000000000000000000000000000000000000000000000000000337f0000000000000000000000000000000000000000000000000000000000000000876133db63ffffffff16565b5b60008311156129aa577f000000000000000000000000000000000000000000000000000000000000000073ffffffffffffffffffffffffffffffffffffffff16636250216933856040518363ffffffff1660e01b8152600401612975929190614620565b600060405180830381600087803b1580156129905760006000fd5b505af11580156129a5573d600060003e3d6000fd5b505050505b8567ffffffffffffffff167fdbaad0966fb140906c77f54a38b3e1ce6c60e87527bbc4ee0b9ad893e3de453b838387878c604001518d602001516040516129f696959493929190614dca565b60405180910390a250505b5050505050565b6000612a18613a2d63ffffffff16565b9050600660049054906101000a900467ffffffffffffffff1667ffffffffffffffff168167ffffffffffffffff16111515612a535750613246565b6000600660049054906101000a900467ffffffffffffffff1682612a779190614aa3565b905060007f000000000000000000000000000000000000000000000000000000000000000073ffffffffffffffffffffffffffffffffffffffff166306ef2d806040518163ffffffff1660e01b8152600401608060405180830381865afa158015612ae7573d600060003e3d6000fd5b505050506040513d601f19601f82011682018060405250810190612b0b9190614c10565b905060007f000000000000000000000000000000000000000000000000000000000000000073ffffffffffffffffffffffffffffffffffffffff166343f48fbd6040518163ffffffff1660e01b8152600401602060405180830381865afa158015612b7b573d600060003e3d6000fd5b505050506040513d601f19601f82011682018060405250810190612b9f9190614dff565b90506000612d2983858473ffffffffffffffffffffffffffffffffffffffff1663a0fc0eda6040518163ffffffff1660e01b8152600401602060405180830381865afa158015612bf4573d600060003e3d6000fd5b505050506040513d601f19601f82011682018060405250810190612c189190614e28565b8573ffffffffffffffffffffffffffffffffffffffff16636d7fa6646040518163ffffffff1660e01b8152600401602060405180830381865afa158015612c64573d600060003e3d6000fd5b505050506040513d601f19601f82011682018060405250810190612c8891906146be565b7f000000000000000000000000000000000000000000000000000000000000000073ffffffffffffffffffffffffffffffffffffffff166375172a8b6040518163ffffffff1660e01b8152600401602060405180830381865afa158015612cf4573d600060003e3d6000fd5b505050506040513d601f19601f82011682018060405250810190612d189190614e28565b600560005054613a5363ffffffff16565b90506000603c62015180612d3d9190614a75565b67ffffffffffffffff16612df58667ffffffffffffffff167f000000000000000000000000000000000000000000000000000000000000000073ffffffffffffffffffffffffffffffffffffffff1663a5d4198b6040518163ffffffff1660e01b81526004016020604051808303816000875af1158015612dc3573d600060003e3d6000fd5b505050506040513d601f19601f82011682018060405250810190612de79190614e28565b613c5190919063ffffffff16565b612dff9190614e46565b9050604051806080016040528083600001518152602001612e2d83876020015161387e90919063ffffffff16565b8152602001612e69612e568867ffffffffffffffff168860000151613c5190919063ffffffff16565b876040015161387e90919063ffffffff16565b81526020018360200151815260200150935083507f000000000000000000000000000000000000000000000000000000000000000073ffffffffffffffffffffffffffffffffffffffff166378efc6b0856040518263ffffffff1660e01b8152600401612ed69190614e64565b600060405180830381600087803b158015612ef15760006000fd5b505af1158015612f06573d600060003e3d6000fd5b5050505085600660046101000a81548167ffffffffffffffff021916908367ffffffffffffffff160217905550600082606001511115613085577f000000000000000000000000000000000000000000000000000000000000000073ffffffffffffffffffffffffffffffffffffffff16632c73f09e83606001516040518263ffffffff1660e01b8152600401612f9d9190614337565b600060405180830381600087803b158015612fb85760006000fd5b505af1158015612fcd573d600060003e3d6000fd5b505050507f000000000000000000000000000000000000000000000000000000000000000073ffffffffffffffffffffffffffffffffffffffff1663449a52f87f000000000000000000000000000000000000000000000000000000000000000084606001516040518363ffffffff1660e01b8152600401613050929190614620565b600060405180830381600087803b15801561306b5760006000fd5b505af1158015613080573d600060003e3d6000fd5b505050505b600082604001511115613146577f000000000000000000000000000000000000000000000000000000000000000073ffffffffffffffffffffffffffffffffffffffff1663449a52f87f000000000000000000000000000000000000000000000000000000000000000084604001516040518363ffffffff1660e01b8152600401613111929190614620565b600060405180830381600087803b15801561312c5760006000fd5b505af1158015613141573d600060003e3d6000fd5b505050505b6000826080015111156131e5577f000000000000000000000000000000000000000000000000000000000000000073ffffffffffffffffffffffffffffffffffffffff1663c59fb1ab83608001516040518263ffffffff1660e01b81526004016131b09190614337565b600060405180830381600087803b1580156131cb5760006000fd5b505af11580156131e0573d600060003e3d6000fd5b505050505b8567ffffffffffffffff167fdfc2183705a66b49f12c66a6d3b2fa5cf3b7c67086e9c6e90d144befc94f436c868660000151876020015188604001518960600151604051613237959493929190614e95565b60405180910390a25050505050505b565b600060007f000000000000000000000000000000000000000000000000000000000000000073ffffffffffffffffffffffffffffffffffffffff16637f250c616040518163ffffffff1660e01b8152600401602060405180830381865afa1580156132b8573d600060003e3d6000fd5b505050506040513d601f19601f820116820180604052508101906132dc9190614e28565b905060007f000000000000000000000000000000000000000000000000000000000000000073ffffffffffffffffffffffffffffffffffffffff166318160ddd6040518163ffffffff1660e01b8152600401602060405180830381865afa15801561334c573d600060003e3d6000fd5b505050506040513d601f19601f820116820180604052508101906133709190614e28565b905060008114806133815750600082145b61339d57613398828261354990919063ffffffff16565b6133a7565b670de0b6b3a76400005b925050506133b25650505b90565b60006133d08383670de0b6b3a7640000613c6c63ffffffff16565b905080505b92915050565b613464846323b872dd60e01b8585856040516024016133fc93929190614ecd565b604051602081830303815290604052907bffffffffffffffffffffffffffffffffffffffffffffffffffffffff19166020820180517bffffffffffffffffffffffffffffffffffffffffffffffffffffffff8381831617835250505050613d9063ffffffff16565b5b50505050565b6002600260005054141515156134b6576040517f08c379a00000000000000000000000000000000000000000000000000000000081526004016134ad90614f07565b60405180910390fd5b600260026000508190909055505b565b600160026000508190909055505b565b60007f80000000000000000000000000000000000000000000000000000000000000008210151561353c576040517f08c379a000000000000000000000000000000000000000000000000000000000815260040161353390614f46565b60405180910390fd5b819050613544565b919050565b600061356483670de0b6b3a764000084613c6c63ffffffff16565b905080505b92915050565b6000613582426119cb909063ffffffff16565b905080505b90565b600061359a61356f63ffffffff16565b9050805060007f000000000000000000000000000000000000000000000000000000000000000073ffffffffffffffffffffffffffffffffffffffff1663585690816040518163ffffffff1660e01b8152600401602060405180830381865afa15801561360c573d600060003e3d6000fd5b505050506040513d601f19601f820116820180604052508101906136309190614910565b905060008167ffffffffffffffff1611801561365f57508167ffffffffffffffff168167ffffffffffffffff16105b1561366a5780915081505b505b90565b60006136d97f00000000000000000000000000000000000000000000000000000000000000007f0000000000000000000000000000000000000000000000000000000000000000846136c19190614a75565b67ffffffffffffffff16613e5d90919063ffffffff16565b905080505b919050565b6136eb614062565b6000849150815060008260a0015167ffffffffffffffff16118015613714575060008260400151115b156137e35761373a846060015183606001518460400151613c6c9092919063ffffffff16565b82604001909081815260200150506137de61376c8360a001518567ffffffffffffffff16613e5d90919063ffffffff16565b67ffffffffffffffff16603c67ffffffffffffffff166137cf6137a08660800151896020015161384890919063ffffffff16565b6137bb87600001518a6040015161384890919063ffffffff16565b8760400151613c6c9092919063ffffffff16565b613c6c9092919063ffffffff16565b905080505b836060015182606001909081815260200150508360200151826080019090818152602001505083604001518260000190908181526020015050828260a0019067ffffffffffffffff16908167ffffffffffffffff16815260200150505b935093915050565b600081836138569190614d6c565b905061385d565b92915050565b600081836138719190614f85565b9050613878565b92915050565b6000818361388c9190615048565b9050613893565b92915050565b60007f000000000000000000000000000000000000000000000000000000000000000073ffffffffffffffffffffffffffffffffffffffff1663d3419bf36040518163ffffffff1660e01b8152600401602060405180830381865afa158015613907573d600060003e3d6000fd5b505050506040513d601f19601f8201168201806040525081019061392b9190615068565b73ffffffffffffffffffffffffffffffffffffffff1663fa42dcf4600660009054906101000a900463ffffffff166040518263ffffffff1660e01b8152600401613975919061423d565b602060405180830381865afa158015613993573d600060003e3d6000fd5b505050506040513d601f19601f820116820180604052508101906139b79190614e28565b90506139d183600360005054613c5190919063ffffffff16565b6139e48284613c5190919063ffffffff16565b10151515613a27576040517f08c379a0000000000000000000000000000000000000000000000000000000008152600401613a1e90615091565b60405180910390fd5b505b5050565b6000613a4b613a4061358a63ffffffff16565b61366f63ffffffff16565b905080505b90565b613a5b614116565b6000851415613a92578660000151816000019090818152602001505086606001518160200190908181526020015050809050613c47565b6000613acd8767ffffffffffffffff16603c6301e13380613ab39190614a75565b67ffffffffffffffff1688613c6c9092919063ffffffff16565b9050600085613af657613af182670de0b6b3a764000061384890919063ffffffff16565b613b12565b613b1182670de0b6b3a764000061387e90919063ffffffff16565b5b9050613b2b818a606001516133b590919063ffffffff16565b8360200190908181526020015050613b5a83602001518a606001518b60000151613c6c9092919063ffffffff16565b8360000190908181526020015050886000015183600001511115613bd557600089600001518460000151613b8e9190614d6c565b9050613ba385826133b590919063ffffffff16565b8460600190908181526020015050836060015181613bc19190614d6c565b846040019090818152602001505050613c44565b886000015183600001511015613c4357600083600001518a60000151613bfb9190614d6c565b90508581101515613c31578960000151846000019090818152602001505089606001518460200190908181526020015050613c41565b8084608001909081815260200150505b505b5b50505b9695505050505050565b60008183613c5f91906150d0565b9050613c66565b92915050565b6000600060006000198587098587029250828110838203039150506000811415613caf57600084111515613ca05760006000fd5b83820492508292505050613d89565b8084111515613cbe5760006000fd5b60008486880990508281118203915080830392506000856001877fffffffffffffffffffffffffffffffffffffffffffffffffffffffffffffffff030116905080508086049550808404935060018182600003040190508083028417935083506000600287600302189050808702600203810290508050808702600203810290508050808702600203810290508050808702600203810290508050808702600203810290508050808702600203810290508050808502955085505084945050505050613d8956505050505b9392505050565b6000613df5826040518060400160405280602081526020017f5361666545524332303a206c6f772d6c6576656c2063616c6c206661696c65648152602001508573ffffffffffffffffffffffffffffffffffffffff16613e789092919063ffffffff16565b9050600081511115613e575780806020019051810190613e1591906146be565b1515613e56576040517f08c379a0000000000000000000000000000000000000000000000000000000008152600401613e4d90615115565b60405180910390fd5b5b505b5050565b60008183613e6b9190614aa3565b9050613e72565b92915050565b6060613e8d8484600085613e9b63ffffffff16565b9050613e94565b9392505050565b6060824710151515613ee2576040517f08c379a0000000000000000000000000000000000000000000000000000000008152600401613ed99061517a565b60405180910390fd5b613ef185613fc763ffffffff16565b1515613f32576040517f08c379a0000000000000000000000000000000000000000000000000000000008152600401613f29906151df565b60405180910390fd5b600060008673ffffffffffffffffffffffffffffffffffffffff168587604051613f5c9190615253565b60006040518083038185875af1925050503d8060008114613f99576040519150601f19603f3d011682016040523d82523d6000602084013e613f9e565b606091505b5091509150613fb4828286613ff063ffffffff16565b92505050613fbf5650505b949350505050565b600060008273ffffffffffffffffffffffffffffffffffffffff163b119050613feb565b919050565b606083156140045782905061405b5661405a565b60008351111561401c5782518084602001fd50614059565b816040517f08c379a00000000000000000000000000000000000000000000000000000000081526004016140509190615272565b60405180910390fd5b5b5b9392505050565b604051806101a001604052806000815260200160008152602001600081526020016000815260200160008152602001600067ffffffffffffffff168152602001600067ffffffffffffffff168152602001600060020b8152602001600015158152602001600067ffffffffffffffff168152602001600063ffffffff168152602001600073ffffffffffffffffffffffffffffffffffffffff168152602001600067ffffffffffffffff1681526020015090565b6040518060a0016040528060008152602001600081526020016000815260200160008152602001600081526020015090566152c6565b67ffffffffffffffff8116825250505b565b600060208201905067ffffffffffffffff831682525b92915050565b60006020828403121561418d5760006000fd5b813590505b92915050565b600060208201905073ffffffffffffffffffffffffffffffffffffffff831682525b92915050565b6000602082840312156141d35760006000fd5b81357fffffffff000000000000000000000000000000000000000000000000000000008116811415156142065760006000fd5b809150505b92915050565b801515825250505b565b600060208201905082151582525b92915050565b63ffffffff8116825250505b565b600060208201905063ffffffff831682525b92915050565b600060208201905073ffffffffffffffffffffffffffffffffffffffff831682525b92915050565b67ffffffffffffffff8116811415156142965760006000fd5b505b565b63ffffffff8116811415156142af5760006000fd5b505b565b6000600060006000600060a086880312156142ce5760006000fd5b85356142d98161427d565b8095505060208601359350604086013592506060860135915060808601356143008161429a565b809150505b9295509295909350565b600060208201905073ffffffffffffffffffffffffffffffffffffffff831682525b92915050565b60006020820190508282525b92915050565b600060208201905073ffffffffffffffffffffffffffffffffffffffff831682525b92915050565b600060208201905073ffffffffffffffffffffffffffffffffffffffff831682525b92915050565b6000602082840312156143ac5760006000fd5b81356143b78161427d565b809150505b92915050565b6000602082840312156143d55760006000fd5b81356143e08161429a565b809150505b92915050565b600060208201905073ffffffffffffffffffffffffffffffffffffffff831682525b92915050565b73ffffffffffffffffffffffffffffffffffffffff8116825250505b565b600060208201905073ffffffffffffffffffffffffffffffffffffffff831682525b92915050565b600060006000606084860312156144705760006000fd5b833592506020840135915060408401356144898161429a565b809150505b9250925092565b8060020b825250505b565b805182526020810151602083015260408101516040830152606081015160608301526080810151608083015260a08101516144de60a084018261414c565b5060c08101516144f160c084018261414c565b5060e081015161450460e0840182614495565b506101008082015161451882850182614211565b50506101208082015161452d8285018261414c565b5050610140808201516145428285018261422f565b50506101608082015161455782850182614413565b50506101808082015161456c8285018261414c565b505050505b565b60006101a08201905061458682846144a0565b5b92915050565b600060006000604084860312156145a45760006000fd5b833567ffffffffffffffff808211156145bd5760006000fd5b818601915086601f83011215156145d45760006000fd5b8135818111156145e45760006000fd5b8760208260051b85010111156145fa5760006000fd5b60208301955080945050505060208401356146148161429a565b809150505b9250925092565b600060408201905073ffffffffffffffffffffffffffffffffffffffff841682528260208301525b9392505050565b60006040820190508382528260208301525b9392505050565b600060408201905073ffffffffffffffffffffffffffffffffffffffff8416825267ffffffffffffffff831660208301525b9392505050565b600081519050801515811415156146b85760006000fd5b5b919050565b6000602082840312156146d15760006000fd5b6146da826146a1565b90505b92915050565b600060405190506101a0810181811067ffffffffffffffff82111715614732577f4e487b7100000000000000000000000000000000000000000000000000000000600052604160045260246000fd5b80604052505b90565b60008151905061474a8161427d565b5b919050565b6000815190508060020b811415156147685760006000fd5b5b919050565b60008151905061477d8161429a565b5b919050565b73ffffffffffffffffffffffffffffffffffffffff8116811415156147a85760006000fd5b505b565b6000815190506147bb81614783565b5b919050565b60006101a082840312156147d55760006000fd5b6147dd6146e3565b825181526020830151602082015260408301516040820152606083015160608201526080830151608082015261481560a0840161473b565b60a082015261482660c0840161473b565b60c082015261483760e08401614750565b60e082015261010061484a8185016146a1565b818301525061012061485d81850161473b565b818301525061014061487081850161476e565b81830152506101606148838185016147ac565b818301525061018061489681850161473b565b8183015250809150505b92915050565b60006101c08201905067ffffffffffffffff841682526148c960208301846144a0565b5b9392505050565b60208152601360208201527f4d7573742061646420636f6c6c61746572616c00000000000000000000000000604082015260006060820190505b919050565b6000602082840312156149235760006000fd5b815161492e8161427d565b809150505b92915050565b60006101c08201905067ffffffffffffffff8416825261495c60208301846144a0565b5b9392505050565b7f4e487b7100000000000000000000000000000000000000000000000000000000600052603260045260246000fd5b565b7f4e487b7100000000000000000000000000000000000000000000000000000000600052601160045260246000fd5b565b60007fffffffffffffffffffffffffffffffffffffffffffffffffffffffffffffffff8214156149f9576149f8614995565b5b6001820190505b919050565b60208152601160208201527f6d6f7265207468616e2036342062697473000000000000000000000000000000604082015260006060820190505b919050565b7f4e487b7100000000000000000000000000000000000000000000000000000000600052601260045260246000fd5b565b600067ffffffffffffffff808416801515614a9357614a92614a44565b5b8082851604925050505b92915050565b600067ffffffffffffffff808316818516915081811015614ac757614ac6614995565b5b818103925050505b92915050565b60208152600d60208201527f4c50205265656e7472616e637900000000000000000000000000000000000000604082015260006060820190505b919050565b60208152601360208201527f436f6e74726163742069732073746f7070656400000000000000000000000000604082015260006060820190505b919050565b60208152600460208201527f4e6f6f7000000000000000000000000000000000000000000000000000000000604082015260006060820190505b919050565b60208152601160208201527f50726f746f636f6c2073687574646f776e000000000000000000000000000000604082015260006060820190505b919050565b60208152600e60208201527f4e6f7420417574686f72697a6564000000000000000000000000000000000000604082015260006060820190505b919050565b600060808284031215614c235760006000fd5b6040516080810181811067ffffffffffffffff82111715614c6d577f4e487b7100000000000000000000000000000000000000000000000000000000600052604160045260246000fd5b806040525082518152602083015160208201526040830151604082015260608301516060820152809150505b92915050565b600060208284031215614cb25760006000fd5b8151614cbd81614783565b809150505b92915050565b60208152602360208201527f43616e7420696e637265617365202620646563726561736520636f6c6c61746560408201527f72616c0000000000000000000000000000000000000000000000000000000000606082015260006080820190505b919050565b60208152600f60208201527f4e6f20666c61736820626f72726f770000000000000000000000000000000000604082015260006060820190505b919050565b600082821015614d7f57614d7e614995565b5b82820390505b92915050565b60208152601260208201527f506f736974696f6e20746f6f20736d616c6c0000000000000000000000000000604082015260006060820190505b919050565b600060c0820190508782528660208301528560408301528460608301528360808301528260a08301525b979650505050505050565b600060208284031215614e125760006000fd5b8151614e1d81614783565b809150505b92915050565b600060208284031215614e3b5760006000fd5b815190505b92915050565b6000821515614e5857614e57614a44565b5b82820490505b92915050565b6000608082019050825182526020830151602083015260408301516040830152606083015160608301525b92915050565b600060a08201905067ffffffffffffffff871682528560208301528460408301528360608301528260808301525b9695505050505050565b600060608201905073ffffffffffffffffffffffffffffffffffffffff80861683528085166020840152508260408301525b949350505050565b60208152600d60208201527f4c43205265656e7472616e637900000000000000000000000000000000000000604082015260006060820190505b919050565b60208152601260208201527f746f6f2062696720666f7220696e743235360000000000000000000000000000604082015260006060820190505b919050565b60007f7fffffffffffffffffffffffffffffffffffffffffffffffffffffffffffffff600084136000841385830485118282161615614fc757614fc6614995565b5b7f8000000000000000000000000000000000000000000000000000000000000000600087128682058812818416161561500357615002614995565b5b600087129250878205871284841616156150205761501f614995565b5b8785058712818416161561503757615036614995565b5b505050505082820290505b92915050565b6000821982111561505c5761505b614995565b5b82820190505b92915050565b60006020828403121561507b5760006000fd5b815161508681614783565b809150505b92915050565b60208152601760208201527f496e73756666696369656e7420636f6c6c61746572616c000000000000000000604082015260006060820190505b919050565b6000817fffffffffffffffffffffffffffffffffffffffffffffffffffffffffffffffff048311821515161561510957615108614995565b5b82820290505b92915050565b60208152602a60208201527f5361666545524332303a204552433230206f7065726174696f6e20646964206e60408201527f6f74207375636365656400000000000000000000000000000000000000000000606082015260006080820190505b919050565b60208152602660208201527f416464726573733a20696e73756666696369656e742062616c616e636520666f60408201527f722063616c6c0000000000000000000000000000000000000000000000000000606082015260006080820190505b919050565b60208152601d60208201527f416464726573733a2063616c6c20746f206e6f6e2d636f6e7472616374000000604082015260006060820190505b919050565b60005b8381101561523d5780820151818401525b602081019050615221565b8381111561524c576000848401525b505050505b565b6000825161526581846020870161521e565b8083019150505b92915050565b602081526000825180602084015261529181604085016020870161521e565b60407fffffffffffffffffffffffffffffffffffffffffffffffffffffffffffffffe0601f8301168401019150505b92915050565bfea264697066735822122049fd8053a4790ed2527026cc92877ecb9e91517df50c677264cfb8eb3d736e7864736f6c634300080c0033",
  "linkReferences": {},
  "deployedLinkReferences": {}
}