{
  "_format": "hh-sol-artifact-1",
  "contractName": "Market",
  "sourceName": "contracts/core/logic/Market.sol",
  "abi": [
    {
      "inputs": [
        {
          "components": [
            {
              "internalType": "contract IGovernor",
              "name": "Governor",
              "type": "address"
            },
            {
              "internalType": "contract IProtocolLock",
              "name": "ProtocolLock",
              "type": "address"
            },
            {
              "internalType": "contract IPositionNFT",
              "name": "HuePositionNFT",
              "type": "address"
            },
            {
              "internalType": "contract IHue",
              "name": "Hue",
              "type": "address"
            },
            {
              "internalType": "contract ILendHue",
              "name": "LendHue",
              "type": "address"
            },
            {
              "internalType": "contract IAccounting",
              "name": "Accounting",
              "type": "address"
            }
          ],
          "internalType": "struct IMarket.ConstructorParams",
          "name": "params",
          "type": "tuple"
        }
      ],
      "stateMutability": "nonpayable",
      "type": "constructor"
    },
    {
      "anonymous": false,
      "inputs": [
        {
          "indexed": false,
          "internalType": "uint256",
          "name": "requirement",
          "type": "uint256"
        }
      ],
      "name": "CollateralizationRequirementUpdated",
      "type": "event"
    },
    {
      "anonymous": false,
      "inputs": [
        {
          "indexed": true,
          "internalType": "uint64",
          "name": "period",
          "type": "uint64"
        },
        {
          "indexed": false,
          "internalType": "uint64",
          "name": "periods",
          "type": "uint64"
        },
        {
          "indexed": false,
          "internalType": "uint256",
          "name": "newDebt",
          "type": "uint256"
        },
        {
          "indexed": false,
          "internalType": "uint256",
          "name": "rewardCount",
          "type": "uint256"
        },
        {
          "indexed": false,
          "internalType": "uint256",
          "name": "cumulativeDebt",
          "type": "uint256"
        },
        {
          "indexed": false,
          "internalType": "uint256",
          "name": "debtExchangeRate",
          "type": "uint256"
        }
      ],
      "name": "InterestAccrued",
      "type": "event"
    },
    {
      "anonymous": false,
      "inputs": [
        {
          "indexed": false,
          "internalType": "uint256",
          "name": "percentage",
          "type": "uint256"
        }
      ],
      "name": "InterestPortionToLendersUpdated",
      "type": "event"
    },
    {
      "anonymous": false,
      "inputs": [
        {
          "indexed": true,
          "internalType": "address",
          "name": "account",
          "type": "address"
        },
        {
          "indexed": false,
          "internalType": "uint256",
          "name": "hueCount",
          "type": "uint256"
        },
        {
          "indexed": false,
          "internalType": "uint256",
          "name": "lendTokenCount",
          "type": "uint256"
        }
      ],
      "name": "Lend",
      "type": "event"
    },
    {
      "anonymous": false,
      "inputs": [
        {
          "indexed": false,
          "internalType": "uint256",
          "name": "size",
          "type": "uint256"
        }
      ],
      "name": "MinPositionSizeUpdated",
      "type": "event"
    },
    {
      "anonymous": false,
      "inputs": [
        {
          "indexed": true,
          "internalType": "uint64",
          "name": "positionID",
          "type": "uint64"
        },
        {
          "indexed": false,
          "internalType": "uint256",
          "name": "debtIncrease",
          "type": "uint256"
        },
        {
          "indexed": false,
          "internalType": "uint256",
          "name": "debtDecrease",
          "type": "uint256"
        },
        {
          "indexed": false,
          "internalType": "uint256",
          "name": "collateralIncrease",
          "type": "uint256"
        },
        {
          "indexed": false,
          "internalType": "uint256",
          "name": "collateralDecrease",
          "type": "uint256"
        },
        {
          "indexed": false,
          "internalType": "uint256",
          "name": "newDebt",
          "type": "uint256"
        },
        {
          "indexed": false,
          "internalType": "uint256",
          "name": "newCollateral",
          "type": "uint256"
        }
      ],
      "name": "PositionAdjusted",
      "type": "event"
    },
    {
      "anonymous": false,
      "inputs": [
        {
          "indexed": true,
          "internalType": "address",
          "name": "creator",
          "type": "address"
        },
        {
          "indexed": true,
          "internalType": "uint64",
          "name": "positionID",
          "type": "uint64"
        },
        {
          "indexed": false,
          "internalType": "uint256",
          "name": "initialDebt",
          "type": "uint256"
        }
      ],
      "name": "PositionCreated",
      "type": "event"
    },
    {
      "anonymous": false,
      "inputs": [
        {
          "indexed": true,
          "internalType": "uint256",
          "name": "positionID",
          "type": "uint256"
        },
        {
          "indexed": true,
          "internalType": "uint64",
          "name": "period",
          "type": "uint64"
        },
        {
          "indexed": false,
          "internalType": "uint256",
          "name": "debtAfter",
          "type": "uint256"
        },
        {
          "indexed": false,
          "internalType": "uint256",
          "name": "tcpRewards",
          "type": "uint256"
        }
      ],
      "name": "PositionUpdated",
      "type": "event"
    },
    {
      "anonymous": false,
      "inputs": [
        {
          "indexed": true,
          "internalType": "address",
          "name": "account",
          "type": "address"
        },
        {
          "indexed": true,
          "internalType": "bool",
          "name": "isKickback",
          "type": "bool"
        },
        {
          "indexed": false,
          "internalType": "uint256",
          "name": "tcpRewards",
          "type": "uint256"
        }
      ],
      "name": "RewardsDistributed",
      "type": "event"
    },
    {
      "anonymous": false,
      "inputs": [],
      "name": "Stopped",
      "type": "event"
    },
    {
      "anonymous": false,
      "inputs": [
        {
          "indexed": false,
          "internalType": "uint32",
          "name": "duration",
          "type": "uint32"
        }
      ],
      "name": "TwapDurationUpdated",
      "type": "event"
    },
    {
      "anonymous": false,
      "inputs": [
        {
          "indexed": true,
          "internalType": "address",
          "name": "account",
          "type": "address"
        },
        {
          "indexed": false,
          "internalType": "uint256",
          "name": "hueCount",
          "type": "uint256"
        },
        {
          "indexed": false,
          "internalType": "uint256",
          "name": "lendTokenCount",
          "type": "uint256"
        }
      ],
      "name": "Unlend",
      "type": "event"
    },
    {
      "inputs": [],
      "name": "accounting",
      "outputs": [
        {
          "internalType": "contract IAccounting",
          "name": "",
          "type": "address"
        }
      ],
      "stateMutability": "view",
      "type": "function"
    },
    {
      "inputs": [],
      "name": "accrueInterest",
      "outputs": [],
      "stateMutability": "nonpayable",
      "type": "function"
    },
    {
      "inputs": [
        {
          "internalType": "uint64",
          "name": "positionID",
          "type": "uint64"
        },
        {
          "internalType": "int256",
          "name": "debtChange",
          "type": "int256"
        },
        {
          "internalType": "uint256",
          "name": "collateralDecrease",
          "type": "uint256"
        },
        {
          "internalType": "uint32",
          "name": "ui",
          "type": "uint32"
        }
      ],
      "name": "adjustPosition",
      "outputs": [],
      "stateMutability": "payable",
      "type": "function"
    },
    {
      "inputs": [
        {
          "internalType": "uint64[]",
          "name": "positionIDs",
          "type": "uint64[]"
        },
        {
          "internalType": "uint32",
          "name": "ui",
          "type": "uint32"
        }
      ],
      "name": "claimAllRewards",
      "outputs": [],
      "stateMutability": "nonpayable",
      "type": "function"
    },
    {
      "inputs": [
        {
          "internalType": "uint64",
          "name": "positionID",
          "type": "uint64"
        },
        {
          "internalType": "uint32",
          "name": "ui",
          "type": "uint32"
        }
      ],
      "name": "claimRewards",
      "outputs": [],
      "stateMutability": "nonpayable",
      "type": "function"
    },
    {
      "inputs": [],
      "name": "collateralizationRequirement",
      "outputs": [
        {
          "internalType": "uint256",
          "name": "",
          "type": "uint256"
        }
      ],
      "stateMutability": "view",
      "type": "function"
    },
    {
      "inputs": [
        {
          "internalType": "uint256",
          "name": "initialDebt",
          "type": "uint256"
        },
        {
          "internalType": "uint32",
          "name": "ui",
          "type": "uint32"
        }
      ],
      "name": "createPosition",
      "outputs": [
        {
          "internalType": "uint64",
          "name": "positionID",
          "type": "uint64"
        }
      ],
      "stateMutability": "payable",
      "type": "function"
    },
    {
      "inputs": [],
      "name": "currentPeriod",
      "outputs": [
        {
          "internalType": "uint64",
          "name": "period",
          "type": "uint64"
        }
      ],
      "stateMutability": "view",
      "type": "function"
    },
    {
      "inputs": [],
      "name": "deployer",
      "outputs": [
        {
          "internalType": "address",
          "name": "",
          "type": "address"
        }
      ],
      "stateMutability": "view",
      "type": "function"
    },
    {
      "inputs": [],
      "name": "firstPeriod",
      "outputs": [
        {
          "internalType": "uint64",
          "name": "",
          "type": "uint64"
        }
      ],
      "stateMutability": "view",
      "type": "function"
    },
    {
      "inputs": [],
      "name": "governor",
      "outputs": [
        {
          "internalType": "contract IGovernor",
          "name": "",
          "type": "address"
        }
      ],
      "stateMutability": "view",
      "type": "function"
    },
    {
      "inputs": [],
      "name": "hue",
      "outputs": [
        {
          "internalType": "contract IHue",
          "name": "",
          "type": "address"
        }
      ],
      "stateMutability": "view",
      "type": "function"
    },
    {
      "inputs": [],
      "name": "huePositionNFT",
      "outputs": [
        {
          "internalType": "contract IPositionNFT",
          "name": "",
          "type": "address"
        }
      ],
      "stateMutability": "view",
      "type": "function"
    },
    {
      "inputs": [],
      "name": "init",
      "outputs": [],
      "stateMutability": "nonpayable",
      "type": "function"
    },
    {
      "inputs": [],
      "name": "interestPortionToLenders",
      "outputs": [
        {
          "internalType": "uint256",
          "name": "",
          "type": "uint256"
        }
      ],
      "stateMutability": "view",
      "type": "function"
    },
    {
      "inputs": [],
      "name": "lastPeriodGlobalInterestAccrued",
      "outputs": [
        {
          "internalType": "uint64",
          "name": "",
          "type": "uint64"
        }
      ],
      "stateMutability": "view",
      "type": "function"
    },
    {
      "inputs": [
        {
          "internalType": "uint256",
          "name": "hueCount",
          "type": "uint256"
        }
      ],
      "name": "lend",
      "outputs": [],
      "stateMutability": "nonpayable",
      "type": "function"
    },
    {
      "inputs": [],
      "name": "lendHue",
      "outputs": [
        {
          "internalType": "contract ILendHue",
          "name": "",
          "type": "address"
        }
      ],
      "stateMutability": "view",
      "type": "function"
    },
    {
      "inputs": [],
      "name": "minPositionSize",
      "outputs": [
        {
          "internalType": "uint256",
          "name": "",
          "type": "uint256"
        }
      ],
      "stateMutability": "view",
      "type": "function"
    },
    {
      "inputs": [],
      "name": "periodLength",
      "outputs": [
        {
          "internalType": "uint64",
          "name": "",
          "type": "uint64"
        }
      ],
      "stateMutability": "view",
      "type": "function"
    },
    {
      "inputs": [
        {
          "internalType": "uint64",
          "name": "positionID",
          "type": "uint64"
        }
      ],
      "name": "removeKickback",
      "outputs": [],
      "stateMutability": "nonpayable",
      "type": "function"
    },
    {
      "inputs": [
        {
          "internalType": "uint256",
          "name": "requirement",
          "type": "uint256"
        }
      ],
      "name": "setCollateralizationRequirement",
      "outputs": [],
      "stateMutability": "nonpayable",
      "type": "function"
    },
    {
      "inputs": [
        {
          "internalType": "uint256",
          "name": "percentage",
          "type": "uint256"
        }
      ],
      "name": "setInterestPortionToLenders",
      "outputs": [],
      "stateMutability": "nonpayable",
      "type": "function"
    },
    {
      "inputs": [
        {
          "internalType": "uint256",
          "name": "size",
          "type": "uint256"
        }
      ],
      "name": "setMinPositionSize",
      "outputs": [],
      "stateMutability": "nonpayable",
      "type": "function"
    },
    {
      "inputs": [
        {
          "internalType": "uint32",
          "name": "duration",
          "type": "uint32"
        }
      ],
      "name": "setTwapDuration",
      "outputs": [],
      "stateMutability": "nonpayable",
      "type": "function"
    },
    {
      "inputs": [],
      "name": "stop",
      "outputs": [],
      "stateMutability": "nonpayable",
      "type": "function"
    },
    {
      "inputs": [],
      "name": "stopped",
      "outputs": [
        {
          "internalType": "bool",
          "name": "",
          "type": "bool"
        }
      ],
      "stateMutability": "view",
      "type": "function"
    },
    {
      "inputs": [
        {
          "internalType": "uint64",
          "name": "positionID",
          "type": "uint64"
        }
      ],
      "name": "systemGetUpdatedPosition",
      "outputs": [
        {
          "components": [
            {
              "internalType": "uint256",
              "name": "startCumulativeDebt",
              "type": "uint256"
            },
            {
              "internalType": "uint256",
              "name": "collateral",
              "type": "uint256"
            },
            {
              "internalType": "uint256",
              "name": "debt",
              "type": "uint256"
            },
            {
              "internalType": "uint256",
              "name": "startDebtExchangeRate",
              "type": "uint256"
            },
            {
              "internalType": "uint256",
              "name": "startTCPRewards",
              "type": "uint256"
            },
            {
              "internalType": "uint64",
              "name": "lastTimeUpdated",
              "type": "uint64"
            },
            {
              "internalType": "uint64",
              "name": "lastBorrowTime",
              "type": "uint64"
            },
            {
              "internalType": "int24",
              "name": "tick",
              "type": "int24"
            },
            {
              "internalType": "bool",
              "name": "tickSet",
              "type": "bool"
            },
            {
              "internalType": "uint64",
              "name": "tickIndex",
              "type": "uint64"
            },
            {
              "internalType": "uint32",
              "name": "ui",
              "type": "uint32"
            },
            {
              "internalType": "address",
              "name": "kickbackDestination",
              "type": "address"
            },
            {
              "internalType": "uint64",
              "name": "kickbackPortion",
              "type": "uint64"
            }
          ],
          "internalType": "struct IAccounting.DebtPosition",
          "name": "",
          "type": "tuple"
        }
      ],
      "stateMutability": "nonpayable",
      "type": "function"
    },
    {
      "inputs": [],
      "name": "twapDuration",
      "outputs": [
        {
          "internalType": "uint32",
          "name": "",
          "type": "uint32"
        }
      ],
      "stateMutability": "view",
      "type": "function"
    },
    {
      "inputs": [
        {
          "internalType": "uint256",
          "name": "lendTokenCount",
          "type": "uint256"
        }
      ],
      "name": "unlend",
      "outputs": [],
      "stateMutability": "nonpayable",
      "type": "function"
    },
    {
      "inputs": [
        {
          "internalType": "bytes4",
          "name": "",
          "type": "bytes4"
        }
      ],
      "name": "validUpdate",
      "outputs": [
        {
          "internalType": "bool",
          "name": "",
          "type": "bool"
        }
      ],
      "stateMutability": "view",
      "type": "function"
    },
    {
      "inputs": [
        {
          "internalType": "uint256",
          "name": "lendTokenCount",
          "type": "uint256"
        }
      ],
      "name": "valueOfLendTokensInHue",
      "outputs": [
        {
          "internalType": "uint256",
          "name": "",
          "type": "uint256"
        }
      ],
      "stateMutability": "view",
      "type": "function"
    }
  ],
  "bytecode": "0x610180604052600160026000509090556714d1120d7b160000600360005090905568878678326eac90000060046000509090556702c68af0bb1400006005600050909055610708600660006101000a81548163ffffffff021916908363ffffffff160217905550348015620000745760006000fd5b5060405162005f9938038062005f9983398181016040528101906200009a919062000594565b5b610e105b816000015182602001515b815b8073ffffffffffffffffffffffffffffffffffffffff1660808173ffffffffffffffffffffffffffffffffffffffff1660601b815260140150505b508073ffffffffffffffffffffffffffffffffffffffff1660a08173ffffffffffffffffffffffffffffffffffffffff1660601b815260140150505b505060018167ffffffffffffffff1662000142620004c260201b60201c565b67ffffffffffffffff168115156200015657fe5b040367ffffffffffffffff1660e08167ffffffffffffffff1660c01b815260080150508067ffffffffffffffff1660c08167ffffffffffffffff1660c01b815260080150505b50806040015173ffffffffffffffffffffffffffffffffffffffff166101008173ffffffffffffffffffffffffffffffffffffffff1660601b81526014015050806060015173ffffffffffffffffffffffffffffffffffffffff166101208173ffffffffffffffffffffffffffffffffffffffff1660601b81526014015050806080015173ffffffffffffffffffffffffffffffffffffffff166101408173ffffffffffffffffffffffffffffffffffffffff1660601b815260140150508060a0015173ffffffffffffffffffffffffffffffffffffffff166101608173ffffffffffffffffffffffffffffffffffffffff1660601b815260140150506000604051806080016040528063ef5e1cac60e01b7bffffffffffffffffffffffffffffffffffffffffffffffffffffffff19167bffffffffffffffffffffffffffffffffffffffffffffffffffffffff1916815260200163c433c80a60e01b7bffffffffffffffffffffffffffffffffffffffffffffffffffffffff19167bffffffffffffffffffffffffffffffffffffffffffffffffffffffff191681526020016306972dcd60e01b7bffffffffffffffffffffffffffffffffffffffffffffffffffffffff19167bffffffffffffffffffffffffffffffffffffffffffffffffffffffff19168152602001635a6127a960e01b7bffffffffffffffffffffffffffffffffffffffffffffffffffffffff19167bffffffffffffffffffffffffffffffffffffffffffffffffffffffff191681526020015090506000600090505b81506004811015620004775760016001600050600084846004811015156200040057fe5b60200201517bffffffffffffffffffffffffffffffffffffffffffffffffffffffff19167bffffffffffffffffffffffffffffffffffffffffffffffffffffffff1916815260200190815260200160002060006101000a81548160ff0219169083151502179055505b8080600101915050620003dc565b50336006600c6101000a81548173ffffffffffffffffffffffffffffffffffffffff021916908373ffffffffffffffffffffffffffffffffffffffff160217905550505b5062000669565b6000620004dc42620004e460201b62001e1b17909060201c565b905080505b90565b600068010000000000000000821015156200056a576040517f08c379a00000000000000000000000000000000000000000000000000000000081526004018080602001828103825260118152602001807f6d6f7265207468616e203634206269747300000000000000000000000000000081526020015060200191505060405180910390fd5b81905062000573565b9190505662000668565b6000815190506200058e816200064b565b5b919050565b600060c08284031215620005a6578081fd5b60405160c081018181106001600160401b0382111715620005c357fe5b80604052508251620005d5816200064b565b808252506020830151620005e9816200064b565b80602083015250604083015162000600816200064b565b8060408301525062000615606084016200057d565b606082015262000628608084016200057d565b60808201526200063b60a084016200057d565b60a0820152809150505b92915050565b6001600160a01b03811681141515620006645760006000fd5b5b50565b5b60805160601c60a05160601c60c05160c01c60e05160c01c6101005160601c6101205160601c6101405160601c6101605160601c6157a2620007f7600039806108f75280610da55280610f8b52806110605280611105528061118e5280611240528061149b5280611571528061181952806118c95280611a1c5280611c185280611cef52806124135280612a305280612b7d5280612cf25280612ebf5280612ef652806130ca528061353752806135fa52806136c752806139065250806108685280610a02528061126d52806139aa525080610c0b528061121e5280612d8a5280612e235280613317528061368b528061374c5280613788528061380d525080610a895280610cdd5280610ec3528061139052806113d352806117dd5280611b52528061265f5250806116bb5280611eb15280613ebc5250806116df5280611ed25280613edd525080611fd252806121c35250806107d952806119835280611f2b52806122565280612559528061270c528061316e52806133ff5280613dd8528061438c52506157a26000f3fe6080604052600436106101e75760003560e01c8063a6aa57ce11610102578063d2ca211511610095578063eb6843ce11610064578063eb6843ce1461068b578063ed92182f146106c9578063ef5e1cac146106f3578063f6979f291461071d576101e7565b8063d2ca2115146105dd578063d5f3948814610609578063e11c876214610635578063e1c7392a14610673576101e7565b8063b6ae213a116100d1578063b6ae213a1461052f578063bb8313c21461055b578063c433c80a14610587578063c4e3a63b146105b1576101e7565b8063a6aa57ce14610497578063a6afed95146104c1578063a89f51ae146104d9578063b2326b5714610505576101e7565b80632e6c6f841161017a57806375f12b211161014957806375f12b21146103f95780637b809bdd14610425578063875bbc51146104415780639624e83e1461046b576101e7565b80632e6c6f841461034757806332374174146103775780635658c012146103a35780635a6127a9146103cf576101e7565b8063113cf1ab116101b6578063113cf1ab14610287578063197b1bf5146102c557806326d89545146102ef5780632cae02691461031b576101e7565b806306040618146101ed57806306972dcd1461021957806307da68f5146102435780630c340a241461025b576101e7565b60006000fd5b3480156101fa5760006000fd5b50610203610749565b604051610210919061563b565b60405180910390f35b3480156102265760006000fd5b50610241600480360381019061023c9190614f2b565b610761565b005b3480156102505760006000fd5b506102596107b7565b005b3480156102685760006000fd5b506102716107d7565b60405161027e919061530d565b60405180910390f35b3480156102945760006000fd5b506102af60048036038101906102aa9190614d49565b6107fb565b6040516102bc91906152d1565b60405180910390f35b3480156102d25760006000fd5b506102ed60048036038101906102e89190614f2b565b610820565b005b3480156102fc5760006000fd5b506103056109ea565b6040516103129190615623565b60405180910390f35b3480156103285760006000fd5b50610331610a00565b60405161033e919061535d565b60405180910390f35b610361600480360381019061035c9190614f63565b610a24565b60405161036e919061563b565b60405180910390f35b3480156103845760006000fd5b5061038d610c09565b60405161039a9190615335565b60405180910390f35b3480156103b05760006000fd5b506103b9610c2d565b6040516103c691906155c3565b60405180910390f35b3480156103dc5760006000fd5b506103f760048036038101906103f29190614f2b565b610c36565b005b3480156104065760006000fd5b5061040f610ca9565b60405161041c91906152d1565b60405180910390f35b61043f600480360381019061043a9190615009565b610cbc565b005b34801561044e5760006000fd5b5061046960048036038101906104649190615059565b610ea2565b005b3480156104785760006000fd5b50610481611103565b60405161048e91906152e5565b60405180910390f35b3480156104a45760006000fd5b506104bf60048036038101906104ba9190614f2b565b611127565b005b3480156104ce5760006000fd5b506104d7611360565b005b3480156104e65760006000fd5b506104ef61138e565b6040516104fc9190615385565b60405180910390f35b3480156105125760006000fd5b5061052d60048036038101906105289190614fbb565b6113b2565b005b34801561053c5760006000fd5b50610545611613565b604051610552919061563b565b60405180910390f35b3480156105685760006000fd5b5061057161162d565b60405161057e91906155c3565b60405180910390f35b3480156105945760006000fd5b506105af60048036038101906105aa9190614f94565b611636565b005b3480156105be5760006000fd5b506105c76116b9565b6040516105d4919061563b565b60405180910390f35b3480156105ea5760006000fd5b506105f36116dd565b604051610600919061563b565b60405180910390f35b3480156106165760006000fd5b5061061f611701565b60405161062c91906151bb565b60405180910390f35b3480156106425760006000fd5b5061065d60048036038101906106589190614f2b565b611727565b60405161066a91906155c3565b60405180910390f35b3480156106805760006000fd5b50610689611755565b005b3480156106985760006000fd5b506106b360048036038101906106ae9190614fbb565b61196b565b6040516106c09190615578565b60405180910390f35b3480156106d65760006000fd5b506106f160048036038101906106ec9190614c9d565b611aec565b005b3480156107005760006000fd5b5061071b60048036038101906107169190614f2b565b611da4565b005b34801561072a5760006000fd5b50610733611e12565b60405161074091906155c3565b60405180910390f35b6000610759611ead63ffffffff16565b905080505b90565b61076f611f2663ffffffff16565b8060046000508190909055507f113d15441cef41c1a48eb1bc2c6fa7b881b201a5c4b2913272f80defe12ce3c3816040516107aa91906155c3565b60405180910390a15b5b50565b6107c5611f2663ffffffff16565b6107d3611f8663ffffffff16565b5b5b565b7f000000000000000000000000000000000000000000000000000000000000000081565b600160005060205280600052604060002060009150909054906101000a900460ff1681565b61082e611fd063ffffffff16565b61083c6120e363ffffffff16565b61084e6000821161216e63ffffffff16565b600033905060006108648361172763ffffffff16565b90507f000000000000000000000000000000000000000000000000000000000000000073ffffffffffffffffffffffffffffffffffffffff166379cc679083856040518363ffffffff1660e01b81526004016108c19291906152a2565b600060405180830381600087803b1580156108dc5760006000fd5b505af11580156108f1573d600060003e3d6000fd5b505050507f000000000000000000000000000000000000000000000000000000000000000073ffffffffffffffffffffffffffffffffffffffff1663b241bbac83836040518363ffffffff1660e01b81526004016109509291906152a2565b600060405180830381600087803b15801561096b5760006000fd5b505af1158015610980573d600060003e3d6000fd5b505050508173ffffffffffffffffffffffffffffffffffffffff167fefc56a1a7590fc4eb13cd40b6a2ceee41f3869c6ea818d20d9a18f2d6315ca1882856040516109cc9291906155d5565b60405180910390a250505b5b6109e66121b463ffffffff16565b5b50565b600660009054906101000a900463ffffffff1681565b7f000000000000000000000000000000000000000000000000000000000000000081565b6000610a34611fd063ffffffff16565b610a4261224663ffffffff16565b600034111515610a87576040517f08c379a0000000000000000000000000000000000000000000000000000000008152600401610a7e90615456565b60405180910390fd5b7f000000000000000000000000000000000000000000000000000000000000000073ffffffffffffffffffffffffffffffffffffffff1663755edd17336040518263ffffffff1660e01b8152600401610ae091906151e3565b602060405180830381600087803b158015610afb5760006000fd5b505af1158015610b10573d600060003e3d6000fd5b505050506040513d601f19601f82011682018060405250810190610b349190614fe2565b90508050610b40614b12565b8281610140019063ffffffff16908163ffffffff1681526020015050610b98610b798367ffffffffffffffff168361237363ffffffff16565b83610b8b87612841909063ffffffff16565b60006128ea63ffffffff16565b8167ffffffffffffffff163373ffffffffffffffffffffffffffffffffffffffff167f24c9bb74341922446798a07669f56d3efec500a78e81429643958e7a42cb6b1286604051610be991906155c3565b60405180910390a3505b5b610c026121b463ffffffff16565b5b92915050565b7f000000000000000000000000000000000000000000000000000000000000000081565b60036000505481565b610c44611f2663ffffffff16565b806005600050819090905550670de0b6b3a764000060056000505411151515610c6d5760006000fd5b7f95c718270dc047bb0f84e533ee71ed5ee3961f14be924c0e493ba6e1ff078ae281604051610c9c91906155c3565b60405180910390a15b5b50565b600060009054906101000a900460ff1681565b610cca611fd063ffffffff16565b610cd861224663ffffffff16565b610d937f000000000000000000000000000000000000000000000000000000000000000073ffffffffffffffffffffffffffffffffffffffff1663430c208133876040518363ffffffff1660e01b8152600401610d36929190615269565b60206040518083038186803b158015610d4f5760006000fd5b505afa158015610d64573d600060003e3d6000fd5b505050506040513d601f19601f82011682018060405250810190610d889190614d26565b612fe263ffffffff16565b6000610e5a8567ffffffffffffffff167f000000000000000000000000000000000000000000000000000000000000000073ffffffffffffffffffffffffffffffffffffffff16630f85fc5a886040518263ffffffff1660e01b8152600401610dfc919061563b565b6101a06040518083038186803b158015610e165760006000fd5b505afa158015610e2b573d600060003e3d6000fd5b505050506040513d601f19601f82011682018060405250810190610e4f9190614de4565b61237363ffffffff16565b90508181610140019063ffffffff16908163ffffffff1681526020015050610e8a818686866128ea63ffffffff16565b505b5b610e9b6121b463ffffffff16565b5b50505050565b610eb0611fd063ffffffff16565b610ebe6120e363ffffffff16565b610f797f000000000000000000000000000000000000000000000000000000000000000073ffffffffffffffffffffffffffffffffffffffff1663430c208133856040518363ffffffff1660e01b8152600401610f1c929190615269565b60206040518083038186803b158015610f355760006000fd5b505afa158015610f4a573d600060003e3d6000fd5b505050506040513d601f19601f82011682018060405250810190610f6e9190614d26565b612fe263ffffffff16565b60006110408367ffffffffffffffff167f000000000000000000000000000000000000000000000000000000000000000073ffffffffffffffffffffffffffffffffffffffff16630f85fc5a866040518263ffffffff1660e01b8152600401610fe2919061563b565b6101a06040518083038186803b158015610ffc5760006000fd5b505afa158015611011573d600060003e3d6000fd5b505050506040513d601f19601f820116820180604052508101906110359190614de4565b61237363ffffffff16565b90508181610140019063ffffffff16908163ffffffff16815260200150507f000000000000000000000000000000000000000000000000000000000000000073ffffffffffffffffffffffffffffffffffffffff16635a6beaf484836040518363ffffffff1660e01b81526004016110b9929190615657565b600060405180830381600087803b1580156110d45760006000fd5b505af11580156110e9573d600060003e3d6000fd5b50505050505b5b6110fe6121b463ffffffff16565b5b5050565b7f000000000000000000000000000000000000000000000000000000000000000081565b611135611fd063ffffffff16565b61114361224663ffffffff16565b6111556000821161216e63ffffffff16565b600033905061116861305e63ffffffff16565b600061118a61117b61390063ffffffff16565b84613a8d90919063ffffffff16565b90507f000000000000000000000000000000000000000000000000000000000000000073ffffffffffffffffffffffffffffffffffffffff16632c73f09e846040518263ffffffff1660e01b81526004016111e591906155c3565b600060405180830381600087803b1580156112005760006000fd5b505af1158015611215573d600060003e3d6000fd5b5050505061126b7f0000000000000000000000000000000000000000000000000000000000000000837f000000000000000000000000000000000000000000000000000000000000000086613ab363ffffffff16565b7f000000000000000000000000000000000000000000000000000000000000000073ffffffffffffffffffffffffffffffffffffffff1663449a52f883836040518363ffffffff1660e01b81526004016112c69291906152a2565b600060405180830381600087803b1580156112e15760006000fd5b505af11580156112f6573d600060003e3d6000fd5b505050508173ffffffffffffffffffffffffffffffffffffffff167f8fff79b574da9a93d7a5408c2fc00c4a9b2b462321c1659b2fbbb9ff3dd221ff84836040516113429291906155d5565b60405180910390a250505b5b61135c6121b463ffffffff16565b5b50565b61136e613cde63ffffffff16565b61137c61305e63ffffffff16565b5b61138b613d6f63ffffffff16565b5b565b7f000000000000000000000000000000000000000000000000000000000000000081565b6113c0611fd063ffffffff16565b6113ce61224663ffffffff16565b6114897f000000000000000000000000000000000000000000000000000000000000000073ffffffffffffffffffffffffffffffffffffffff1663430c208133846040518363ffffffff1660e01b815260040161142c929190615269565b60206040518083038186803b1580156114455760006000fd5b505afa15801561145a573d600060003e3d6000fd5b505050506040513d601f19601f8201168201806040525081019061147e9190614d26565b612fe263ffffffff16565b60006115508267ffffffffffffffff167f000000000000000000000000000000000000000000000000000000000000000073ffffffffffffffffffffffffffffffffffffffff16630f85fc5a856040518263ffffffff1660e01b81526004016114f2919061563b565b6101a06040518083038186803b15801561150c5760006000fd5b505afa158015611521573d600060003e3d6000fd5b505050506040513d601f19601f820116820180604052508101906115459190614de4565b61237363ffffffff16565b9050600081610140019063ffffffff16908163ffffffff16815260200150507f000000000000000000000000000000000000000000000000000000000000000073ffffffffffffffffffffffffffffffffffffffff16635a6beaf483836040518363ffffffff1660e01b81526004016115ca929190615657565b600060405180830381600087803b1580156115e55760006000fd5b505af11580156115fa573d600060003e3d6000fd5b50505050505b5b61160f6121b463ffffffff16565b5b50565b600660049054906101000a900467ffffffffffffffff1681565b60046000505481565b611644611f2663ffffffff16565b61012c8163ffffffff161015151561165c5760006000fd5b80600660006101000a81548163ffffffff021916908363ffffffff1602179055507f670aac3910a07dcfe5267c8b0bf2357abdb454e509764d13e94e85ee13c6da20816040516116ac9190615623565b60405180910390a15b5b50565b7f000000000000000000000000000000000000000000000000000000000000000081565b7f000000000000000000000000000000000000000000000000000000000000000081565b6006600c9054906101000a900473ffffffffffffffffffffffffffffffffffffffff1681565b600061174961173a61390063ffffffff16565b83613d7f90919063ffffffff16565b9050611750565b919050565b6117b46006600c9054906101000a900473ffffffffffffffffffffffffffffffffffffffff1673ffffffffffffffffffffffffffffffffffffffff163373ffffffffffffffffffffffffffffffffffffffff1614612fe263ffffffff16565b6006600c6101000a81549073ffffffffffffffffffffffffffffffffffffffff021916905560007f000000000000000000000000000000000000000000000000000000000000000073ffffffffffffffffffffffffffffffffffffffff1663755edd177f00000000000000000000000000000000000000000000000000000000000000006040518263ffffffff1660e01b815260040161185491906151bb565b602060405180830381600087803b15801561186f5760006000fd5b505af1158015611884573d600060003e3d6000fd5b505050506040513d601f19601f820116820180604052508101906118a89190614fe2565b67ffffffffffffffff161415156118bf5760006000fd5b6118c7614b12565b7f000000000000000000000000000000000000000000000000000000000000000073ffffffffffffffffffffffffffffffffffffffff16635a6beaf4600061191660008561237363ffffffff16565b6040518363ffffffff1660e01b81526004016119339291906153ad565b600060405180830381600087803b15801561194e5760006000fd5b505af1158015611963573d600060003e3d6000fd5b50505050505b565b611973614b12565b611981613cde63ffffffff16565b7f000000000000000000000000000000000000000000000000000000000000000073ffffffffffffffffffffffffffffffffffffffff16639622cd8f336040518263ffffffff1660e01b81526004016119da91906151e3565b60006040518083038186803b1580156119f35760006000fd5b505afa158015611a08573d600060003e3d6000fd5b50505050611ad18267ffffffffffffffff167f000000000000000000000000000000000000000000000000000000000000000073ffffffffffffffffffffffffffffffffffffffff16630f85fc5a856040518263ffffffff1660e01b8152600401611a73919061563b565b6101a06040518083038186803b158015611a8d5760006000fd5b505afa158015611aa2573d600060003e3d6000fd5b505050506040513d601f19601f82011682018060405250810190611ac69190614de4565b61237363ffffffff16565b9050611ad8565b611ae6613d6f63ffffffff16565b5b919050565b611afa611fd063ffffffff16565b611b086120e363ffffffff16565b6000838390509050611b18614b12565b60006000600090505b83811015611d8a578686828181101515611b3757fe5b9050602002016020810190611b4c9190614fbb565b915081507f000000000000000000000000000000000000000000000000000000000000000073ffffffffffffffffffffffffffffffffffffffff1663430c208133846040518363ffffffff1660e01b8152600401611bab929190615269565b60206040518083038186803b158015611bc45760006000fd5b505afa158015611bd9573d600060003e3d6000fd5b505050506040513d601f19601f82011682018060405250810190611bfd9190614d26565b1515611c0857611d7d565b611ccd8267ffffffffffffffff167f000000000000000000000000000000000000000000000000000000000000000073ffffffffffffffffffffffffffffffffffffffff16630f85fc5a856040518263ffffffff1660e01b8152600401611c6f919061563b565b6101a06040518083038186803b158015611c895760006000fd5b505afa158015611c9e573d600060003e3d6000fd5b505050506040513d601f19601f82011682018060405250810190611cc29190614de4565b61237363ffffffff16565b925082508483610140019063ffffffff16908163ffffffff16815260200150507f000000000000000000000000000000000000000000000000000000000000000073ffffffffffffffffffffffffffffffffffffffff16635a6beaf483856040518363ffffffff1660e01b8152600401611d48929190615657565b600060405180830381600087803b158015611d635760006000fd5b505af1158015611d78573d600060003e3d6000fd5b505050505b8080600101915050611b21565b505050505b5b611d9e6121b463ffffffff16565b5b505050565b611db2611f2663ffffffff16565b806003600050819090905550670de0b6b3a76400008110151515611dd65760006000fd5b7f52640f3e2df50709ead28077e905b85df7544c73c32a40259dff3ac35927d5ce81604051611e0591906155c3565b60405180910390a15b5b50565b60056000505481565b60006801000000000000000082101515611ea0576040517f08c379a00000000000000000000000000000000000000000000000000000000081526004018080602001828103825260118152602001807f6d6f7265207468616e203634206269747300000000000000000000000000000081526020015060200191505060405180910390fd5b819050611ea8565b919050565b60007f00000000000000000000000000000000000000000000000000000000000000007f000000000000000000000000000000000000000000000000000000000000000067ffffffffffffffff16611f09613da563ffffffff16565b67ffffffffffffffff16811515611f1c57fe5b0403905080505b90565b611f837f000000000000000000000000000000000000000000000000000000000000000073ffffffffffffffffffffffffffffffffffffffff163373ffffffffffffffffffffffffffffffffffffffff1614612fe263ffffffff16565b5b565b6001600060006101000a81548160ff0219169083151502179055507f7acc84e34091ae817647a4c49116f5cc07f319078ba80f8f5fde37ea7e25cbd660405160405180910390a15b565b7f000000000000000000000000000000000000000000000000000000000000000073ffffffffffffffffffffffffffffffffffffffff1663e97dcb626040518163ffffffff1660e01b8152600401600060405180830381600087803b1580156120395760006000fd5b505af115801561204e573d600060003e3d6000fd5b505050506002600260005054141515156120d3576040517f08c379a000000000000000000000000000000000000000000000000000000000815260040180806020018281038252600d8152602001807f4c50205265656e7472616e63790000000000000000000000000000000000000081526020015060200191505060405180910390fd5b600260026000508190909055505b565b600060009054906101000a900460ff1615151561216b576040517f08c379a00000000000000000000000000000000000000000000000000000000081526004018080602001828103825260138152602001807f436f6e74726163742069732073746f707065640000000000000000000000000081526020015060200191505060405180910390fd5b5b565b8015156121b0576040517f08c379a00000000000000000000000000000000000000000000000000000000081526004016121a790615417565b60405180910390fd5b5b50565b600160026000508190909055507f000000000000000000000000000000000000000000000000000000000000000073ffffffffffffffffffffffffffffffffffffffff1663e9fad8ee6040518163ffffffff1660e01b8152600401600060405180830381600087803b15801561222a5760006000fd5b505af115801561223f573d600060003e3d6000fd5b505050505b565b6122546120e363ffffffff16565b7f000000000000000000000000000000000000000000000000000000000000000073ffffffffffffffffffffffffffffffffffffffff1663bf86d6906040518163ffffffff1660e01b815260040160206040518083038186803b1580156122bb5760006000fd5b505afa1580156122d0573d600060003e3d6000fd5b505050506040513d60208110156122e75760006000fd5b8101908080519060200190929190505050151515612370576040517f08c379a00000000000000000000000000000000000000000000000000000000081526004018080602001828103825260118152602001807f50726f746f636f6c2073687574646f776e00000000000000000000000000000081526020015060200191505060405180910390fd5b5b565b61237b614b12565b600061238b613dc063ffffffff16565b9050600061239e82613eb563ffffffff16565b9050600060008560a0015167ffffffffffffffff16146123d0576123cb8560a00151613eb563ffffffff16565b6123d3565b60005b90508067ffffffffffffffff168267ffffffffffffffff161115156123fd5784935050505061283b565b61240b61305e63ffffffff16565b60006124bd867f000000000000000000000000000000000000000000000000000000000000000073ffffffffffffffffffffffffffffffffffffffff166306ef2d806040518163ffffffff1660e01b815260040160806040518083038186803b1580156124785760006000fd5b505afa15801561248d573d600060003e3d6000fd5b505050506040513d601f19601f820116820180604052508101906124b19190614ecb565b86613f3d63ffffffff16565b80925081965050506000811180156124d6575060008714155b156127ed57600073ffffffffffffffffffffffffffffffffffffffff1685610160015173ffffffffffffffffffffffffffffffffffffffff161415801561252c5750600085610180015167ffffffffffffffff16115b1561265b57600061255586610180015167ffffffffffffffff1683613a8d90919063ffffffff16565b90507f000000000000000000000000000000000000000000000000000000000000000073ffffffffffffffffffffffffffffffffffffffff16634d6729f5876101600151836040518363ffffffff1660e01b81526004016125b79291906152a2565b600060405180830381600087803b1580156125d25760006000fd5b505af11580156125e7573d600060003e3d6000fd5b505050506001151586610160015173ffffffffffffffffffffffffffffffffffffffff167f8079a05488a0f375c08504c3ba8b3a1371f5a192b7a141bc9294ef7ad41389d98360405161263a91906155c3565b60405180910390a361265581836140a390919063ffffffff16565b91508150505b60007f000000000000000000000000000000000000000000000000000000000000000073ffffffffffffffffffffffffffffffffffffffff16636352211e896040518263ffffffff1660e01b81526004016126b691906155c3565b60206040518083038186803b1580156126cf5760006000fd5b505afa1580156126e4573d600060003e3d6000fd5b505050506040513d601f19601f820116820180604052508101906127089190614c76565b90507f000000000000000000000000000000000000000000000000000000000000000073ffffffffffffffffffffffffffffffffffffffff16634d6729f582846040518363ffffffff1660e01b81526004016127659291906152a2565b600060405180830381600087803b1580156127805760006000fd5b505af1158015612795573d600060003e3d6000fd5b50505050600015158173ffffffffffffffffffffffffffffffffffffffff167f8079a05488a0f375c08504c3ba8b3a1371f5a192b7a141bc9294ef7ad41389d9846040516127e391906155c3565b60405180910390a3505b8267ffffffffffffffff16877fc99ac0d15229fa72f1b0756c0eed4e7ede3d80f4e4e0d308ce7a56d1366b8a0387604001518460405161282e9291906155d5565b60405180910390a3505050505b92915050565b60007f8000000000000000000000000000000000000000000000000000000000000000821015156128dd576040517f08c379a00000000000000000000000000000000000000000000000000000000081526004018080602001828103825260128152602001807f746f6f2062696720666f7220696e74323536000000000000000000000000000081526020015060200191505060405180910390fd5b8190506128e5565b919050565b6000349050600060008413612900576000612902565b835b9050600060008512612915576000612949565b6129487fffffffffffffffffffffffffffffffffffffffffffffffffffffffffffffffff8661412c90919063ffffffff16565b5b905060008311801561295b5750600084115b15151561299d576040517f08c379a000000000000000000000000000000000000000000000000000000000815260040161299490615495565b60405180910390fd5b6129d060008411806129af5750600085115b806129ba5750600083115b806129c55750600082115b61216e63ffffffff16565b6000821115612abc576129e7613da563ffffffff16565b8760c0019067ffffffffffffffff16908167ffffffffffffffff1681526020015050612a2082886040015161426290919063ffffffff16565b87604001909081815260200150507f000000000000000000000000000000000000000000000000000000000000000073ffffffffffffffffffffffffffffffffffffffff16632b7c7b11836040518263ffffffff1660e01b8152600401612a8791906155c3565b600060405180830381600087803b158015612aa25760006000fd5b505af1158015612ab7573d600060003e3d6000fd5b505050505b6000811115612c0957612ad3613da563ffffffff16565b67ffffffffffffffff16612b04610708610e10018960c0015167ffffffffffffffff166142eb90919063ffffffff16565b67ffffffffffffffff16101515612b50576040517f08c379a0000000000000000000000000000000000000000000000000000000008152600401612b47906153d8565b60405180910390fd5b8087604001511015612b66578660400151905080505b8087604001818151039150909081815260200150507f000000000000000000000000000000000000000000000000000000000000000073ffffffffffffffffffffffffffffffffffffffff16632a7ba1f7826040518263ffffffff1660e01b8152600401612bd491906155c3565b600060405180830381600087803b158015612bef5760006000fd5b505af1158015612c04573d600060003e3d6000fd5b505050505b6000831115612c3857612c2983886020015161426290919063ffffffff16565b87602001909081815260200150505b6000841115612c6757612c588488602001516140a390919063ffffffff16565b87602001909081815260200150505b600087604001511115612cf057600460005054876040015110151515612cc2576040517f08c379a0000000000000000000000000000000000000000000000000000000008152600401612cb9906154fa565b60405180910390fd5b6000841180612cd15750600082115b15612cef57612cee8760400151886020015161438863ffffffff16565b5b5b7f000000000000000000000000000000000000000000000000000000000000000073ffffffffffffffffffffffffffffffffffffffff16635a6beaf487896040518363ffffffff1660e01b8152600401612d4b929190615657565b600060405180830381600087803b158015612d665760006000fd5b505af1158015612d7b573d600060003e3d6000fd5b505050506000821115612e18577f000000000000000000000000000000000000000000000000000000000000000073ffffffffffffffffffffffffffffffffffffffff1663449a52f833846040518363ffffffff1660e01b8152600401612de392919061523a565b600060405180830381600087803b158015612dfe5760006000fd5b505af1158015612e13573d600060003e3d6000fd5b505050505b6000811115612eb1577f000000000000000000000000000000000000000000000000000000000000000073ffffffffffffffffffffffffffffffffffffffff166379cc679033836040518363ffffffff1660e01b8152600401612e7c92919061523a565b600060405180830381600087803b158015612e975760006000fd5b505af1158015612eac573d600060003e3d6000fd5b505050505b6000831115612eeb57612eea7f00000000000000000000000000000000000000000000000000000000000000008461453c63ffffffff16565b5b6000841115612f84577f000000000000000000000000000000000000000000000000000000000000000073ffffffffffffffffffffffffffffffffffffffff16636250216933866040518363ffffffff1660e01b8152600401612f4f92919061520b565b600060405180830381600087803b158015612f6a5760006000fd5b505af1158015612f7f573d600060003e3d6000fd5b505050505b8567ffffffffffffffff167fdbaad0966fb140906c77f54a38b3e1ce6c60e87527bbc4ee0b9ad893e3de453b838386888c604001518d60200151604051612fd0969594939291906155ee565b60405180910390a25050505b50505050565b80151561305a576040517f08c379a000000000000000000000000000000000000000000000000000000000815260040180806020018281038252600e8152602001807f4e6f7420417574686f72697a656400000000000000000000000000000000000081526020015060200191505060405180910390fd5b5b50565b600061306e6146c263ffffffff16565b9050600660049054906101000a900467ffffffffffffffff1667ffffffffffffffff168167ffffffffffffffff161115156130a957506138fe565b6000600660049054906101000a900467ffffffffffffffff168203905060007f000000000000000000000000000000000000000000000000000000000000000073ffffffffffffffffffffffffffffffffffffffff166306ef2d806040518163ffffffff1660e01b815260040160806040518083038186803b15801561312f5760006000fd5b505afa158015613144573d600060003e3d6000fd5b505050506040513d601f19601f820116820180604052508101906131689190614ecb565b905060007f000000000000000000000000000000000000000000000000000000000000000073ffffffffffffffffffffffffffffffffffffffff166343f48fbd6040518163ffffffff1660e01b815260040160206040518083038186803b1580156131d35760006000fd5b505afa1580156131e8573d600060003e3d6000fd5b505050506040513d601f19601f8201168201806040525081019061320c9190614dbd565b905060006133c683858473ffffffffffffffffffffffffffffffffffffffff1663a0fc0eda6040518163ffffffff1660e01b815260040160206040518083038186803b15801561325c5760006000fd5b505afa158015613271573d600060003e3d6000fd5b505050506040513d601f19601f820116820180604052508101906132959190614f47565b8573ffffffffffffffffffffffffffffffffffffffff16636d7fa6646040518163ffffffff1660e01b815260040160206040518083038186803b1580156132dc5760006000fd5b505afa1580156132f1573d600060003e3d6000fd5b505050506040513d601f19601f820116820180604052508101906133159190614d26565b7f000000000000000000000000000000000000000000000000000000000000000073ffffffffffffffffffffffffffffffffffffffff166375172a8b6040518163ffffffff1660e01b815260040160206040518083038186803b15801561337c5760006000fd5b505afa158015613391573d600060003e3d6000fd5b505050506040513d601f19601f820116820180604052508101906133b59190614f47565b6005600050546146e863ffffffff16565b90506000610e1067ffffffffffffffff16620151808115156133e457fe5b0467ffffffffffffffff166134ad8667ffffffffffffffff167f000000000000000000000000000000000000000000000000000000000000000073ffffffffffffffffffffffffffffffffffffffff1663a5d4198b6040518163ffffffff1660e01b8152600401602060405180830381600087803b1580156134665760006000fd5b505af115801561347b573d600060003e3d6000fd5b505050506040513d601f19601f8201168201806040525081019061349f9190614f47565b6148d690919063ffffffff16565b8115156134b657fe5b0490506040518060800160405280836000015181526020016134e583876020015161426290919063ffffffff16565b815260200161352161350e8867ffffffffffffffff1688600001516148d690919063ffffffff16565b876040015161426290919063ffffffff16565b81526020018360200151815260200150935083507f000000000000000000000000000000000000000000000000000000000000000073ffffffffffffffffffffffffffffffffffffffff166378efc6b0856040518263ffffffff1660e01b815260040161358e9190615592565b600060405180830381600087803b1580156135a95760006000fd5b505af11580156135be573d600060003e3d6000fd5b5050505085600660046101000a81548167ffffffffffffffff021916908367ffffffffffffffff16021790555060008260600151111561373d577f000000000000000000000000000000000000000000000000000000000000000073ffffffffffffffffffffffffffffffffffffffff16632c73f09e83606001516040518263ffffffff1660e01b815260040161365591906155c3565b600060405180830381600087803b1580156136705760006000fd5b505af1158015613685573d600060003e3d6000fd5b505050507f000000000000000000000000000000000000000000000000000000000000000073ffffffffffffffffffffffffffffffffffffffff1663449a52f87f000000000000000000000000000000000000000000000000000000000000000084606001516040518363ffffffff1660e01b81526004016137089291906152a2565b600060405180830381600087803b1580156137235760006000fd5b505af1158015613738573d600060003e3d6000fd5b505050505b6000826040015111156137fe577f000000000000000000000000000000000000000000000000000000000000000073ffffffffffffffffffffffffffffffffffffffff1663449a52f87f000000000000000000000000000000000000000000000000000000000000000084604001516040518363ffffffff1660e01b81526004016137c99291906152a2565b600060405180830381600087803b1580156137e45760006000fd5b505af11580156137f9573d600060003e3d6000fd5b505050505b60008260800151111561389d577f000000000000000000000000000000000000000000000000000000000000000073ffffffffffffffffffffffffffffffffffffffff1663c59fb1ab83608001516040518263ffffffff1660e01b815260040161386891906155c3565b600060405180830381600087803b1580156138835760006000fd5b505af1158015613898573d600060003e3d6000fd5b505050505b8567ffffffffffffffff167fdfc2183705a66b49f12c66a6d3b2fa5cf3b7c67086e9c6e90d144befc94f436c8686600001518760200151886040015189606001516040516138ef959493929190615682565b60405180910390a25050505050505b565b600060007f000000000000000000000000000000000000000000000000000000000000000073ffffffffffffffffffffffffffffffffffffffff16637f250c616040518163ffffffff1660e01b815260040160206040518083038186803b15801561396b5760006000fd5b505afa158015613980573d600060003e3d6000fd5b505050506040513d601f19601f820116820180604052508101906139a49190614f47565b905060007f000000000000000000000000000000000000000000000000000000000000000073ffffffffffffffffffffffffffffffffffffffff166318160ddd6040518163ffffffff1660e01b815260040160206040518083038186803b158015613a0f5760006000fd5b505afa158015613a24573d600060003e3d6000fd5b505050506040513d601f19601f82011682018060405250810190613a489190614f47565b90506000811480613a595750600082145b613a7557613a708282613d7f90919063ffffffff16565b613a7f565b670de0b6b3a76400005b92505050613a8a5650505b90565b6000613aa88383670de0b6b3a764000061497463ffffffff16565b905080505b92915050565b600060008573ffffffffffffffffffffffffffffffffffffffff166323b872dd60e01b868686604051602401808473ffffffffffffffffffffffffffffffffffffffff1681526020018373ffffffffffffffffffffffffffffffffffffffff1681526020018281526020019350505050604051602081830303815290604052907bffffffffffffffffffffffffffffffffffffffffffffffffffffffff19166020820180517bffffffffffffffffffffffffffffffffffffffffffffffffffffffff83818316178352505050506040518082805190602001908083835b602083101515613bb657805182525b602082019150602081019050602083039250613b90565b6001836020036101000a0380198251168184511680821785525050505050509050019150506000604051808303816000865af19150503d8060008114613c18576040519150601f19603f3d011682016040523d82523d6000602084013e613c1d565b606091505b5091509150818015613c5e5750600081511480613c5d5750808060200190516020811015613c4b5760006000fd5b81019080805190602001909291905050505b5b1515613cd5576040517f08c379a00000000000000000000000000000000000000000000000000000000081526004018080602001828103825260038152602001807f535446000000000000000000000000000000000000000000000000000000000081526020015060200191505060405180910390fd5b50505b50505050565b600260026000505414151515613d5f576040517f08c379a000000000000000000000000000000000000000000000000000000000815260040180806020018281038252600d8152602001807f4c43205265656e7472616e63790000000000000000000000000000000000000081526020015060200191505060405180910390fd5b600260026000508190909055505b565b600160026000508190909055505b565b6000613d9a83670de0b6b3a76400008461497463ffffffff16565b905080505b92915050565b6000613db842611e1b909063ffffffff16565b905080505b90565b6000613dd0613da563ffffffff16565b9050805060007f000000000000000000000000000000000000000000000000000000000000000073ffffffffffffffffffffffffffffffffffffffff1663585690816040518163ffffffff1660e01b815260040160206040518083038186803b158015613e3d5760006000fd5b505afa158015613e52573d600060003e3d6000fd5b505050506040513d601f19601f82011682018060405250810190613e769190614fe2565b905060008167ffffffffffffffff16118015613ea557508167ffffffffffffffff168167ffffffffffffffff16105b15613eb05780915081505b505b90565b6000613f337f00000000000000000000000000000000000000000000000000000000000000007f000000000000000000000000000000000000000000000000000000000000000067ffffffffffffffff168467ffffffffffffffff16811515613f1a57fe5b0467ffffffffffffffff16614a7590919063ffffffff16565b905080505b919050565b613f45614b12565b6000849150815060008260a0015167ffffffffffffffff16118015613f6e575060008260400151115b1561403e57613f948460600151836060015184604001516149749092919063ffffffff16565b8260400190908181526020015050614039613fc68360a001518567ffffffffffffffff16614a7590919063ffffffff16565b67ffffffffffffffff16610e1067ffffffffffffffff1661402a613ffb866080015189602001516140a390919063ffffffff16565b61401687600001518a604001516140a390919063ffffffff16565b87604001516149749092919063ffffffff16565b6149749092919063ffffffff16565b905080505b836060015182606001909081815260200150508360200151826080019090818152602001505083604001518260000190908181526020015050828260a0019067ffffffffffffffff16908167ffffffffffffffff16815260200150505b935093915050565b60008282840391508111151515614125576040517f08c379a000000000000000000000000000000000000000000000000000000000815260040180806020018281038252600d8152602001807f7375622d756e646572666c6f770000000000000000000000000000000000000081526020015060200191505060405180910390fd5b5b92915050565b60006000831415614140576000905061425c565b7fffffffffffffffffffffffffffffffffffffffffffffffffffffffffffffffff8314801561418e57507f800000000000000000000000000000000000000000000000000000000000000082145b1515156141e6576040517f08c379a00000000000000000000000000000000000000000000000000000000081526004018080602001828103825260278152602001806157466027913960400191505060405180910390fd5b600082840290508284828115156141f957fe5b05141515614252576040517f08c379a00000000000000000000000000000000000000000000000000000000081526004018080602001828103825260278152602001806157466027913960400191505060405180910390fd5b8091505061425c56505b92915050565b600082828401915081101515156142e4576040517f08c379a000000000000000000000000000000000000000000000000000000000815260040180806020018281038252600c8152602001807f6164642d6f766572666c6f77000000000000000000000000000000000000000081526020015060200191505060405180910390fd5b5b92915050565b60008267ffffffffffffffff1682840191508167ffffffffffffffff1610151515614381576040517f08c379a000000000000000000000000000000000000000000000000000000000815260040180806020018281038252600c8152602001807f6164642d6f766572666c6f77000000000000000000000000000000000000000081526020015060200191505060405180910390fd5b5b92915050565b60007f000000000000000000000000000000000000000000000000000000000000000073ffffffffffffffffffffffffffffffffffffffff1663d3419bf36040518163ffffffff1660e01b815260040160206040518083038186803b1580156143f15760006000fd5b505afa158015614406573d600060003e3d6000fd5b505050506040513d601f19601f8201168201806040525081019061442a9190614d96565b73ffffffffffffffffffffffffffffffffffffffff1663fa42dcf4600660009054906101000a900463ffffffff166040518263ffffffff1660e01b81526004016144749190615623565b60206040518083038186803b15801561448d5760006000fd5b505afa1580156144a2573d600060003e3d6000fd5b505050506040513d601f19601f820116820180604052508101906144c69190614f47565b90506144e0836003600050546148d690919063ffffffff16565b6144f382846148d690919063ffffffff16565b10151515614536576040517f08c379a000000000000000000000000000000000000000000000000000000000815260040161452d90615539565b60405180910390fd5b505b5050565b60008273ffffffffffffffffffffffffffffffffffffffff1682600067ffffffffffffffff8111801561456f5760006000fd5b506040519080825280601f01601f1916602001820160405280156145a25781602001600182028036833780820191505090505b506040518082805190602001908083835b6020831015156145d957805182525b6020820191506020810190506020830392506145b3565b6001836020036101000a03801982511681845116808217855250505050505090500191505060006040518083038185875af1925050503d806000811461463b576040519150601f19603f3d011682016040523d82523d6000602084013e614640565b606091505b505090508015156146bc576040517f08c379a00000000000000000000000000000000000000000000000000000000081526004018080602001828103825260038152602001807f535445000000000000000000000000000000000000000000000000000000000081526020015060200191505060405180910390fd5b505b5050565b60006146e06146d5613dc063ffffffff16565b613eb563ffffffff16565b905080505b90565b6146f0614bc6565b60008514156147275786600001518160000190908181526020015050866060015181602001909081815260200150508090506148cc565b600061476d8767ffffffffffffffff16610e1067ffffffffffffffff166301e1338081151561475257fe5b0467ffffffffffffffff16886149749092919063ffffffff16565b90506000856147965761479182670de0b6b3a76400006140a390919063ffffffff16565b6147b2565b6147b182670de0b6b3a764000061426290919063ffffffff16565b5b90506147cb818a60600151613a8d90919063ffffffff16565b83602001909081815260200150506147fa83602001518a606001518b600001516149749092919063ffffffff16565b83600001909081815260200150508860000151836000015111156148635760008960000151846000015103905061483a8582613a8d90919063ffffffff16565b8460600190908181526020015050836060015181038460400190908181526020015050506148c9565b8860000151836000015110156148c857600083600001518a6000015103905085811015156148b65789600001518460000190908181526020015050896060015184602001909081815260200150506148c6565b8084608001909081815260200150505b505b5b50505b9695505050505050565b600060008214806148f6575082828385029250828115156148f357fe5b04145b151561496d576040517f08c379a000000000000000000000000000000000000000000000000000000000815260040180806020018281038252600c8152602001807f6d756c2d6f766572666c6f77000000000000000000000000000000000000000081526020015060200191505060405180910390fd5b5b92915050565b60006000600060001985870985870292508281108382030391505060008114156149b7576000841115156149a85760006000fd5b83820492508292505050614a6e565b80841115156149c65760006000fd5b6000848688099050828111820391508083039250600085866000031690508086049550808404935060018182600003040190508083028417935083506000600287600302189050808702600203810290508050808702600203810290508050808702600203810290508050808702600203810290508050808702600203810290508050808702600203810290508050808502955085508595505050505050614a6e5650505050505b9392505050565b60008267ffffffffffffffff1682840391508167ffffffffffffffff1611151515614b0b576040517f08c379a000000000000000000000000000000000000000000000000000000000815260040180806020018281038252600d8152602001807f7375622d756e646572666c6f770000000000000000000000000000000000000081526020015060200191505060405180910390fd5b5b92915050565b604051806101a001604052806000815260200160008152602001600081526020016000815260200160008152602001600067ffffffffffffffff168152602001600067ffffffffffffffff168152602001600060020b8152602001600015158152602001600067ffffffffffffffff168152602001600063ffffffff168152602001600073ffffffffffffffffffffffffffffffffffffffff168152602001600067ffffffffffffffff1681526020015090565b6040518060a001604052806000815260200160008152602001600081526020016000815260200160008152602001509056615744565b600081519050614c0b816156e5565b5b919050565b60008151905080151581141515614c285760006000fd5b5b919050565b6000815190508060020b81141515614c465760006000fd5b5b919050565b600081519050614c5b8161570e565b5b919050565b600081519050614c7081615727565b5b919050565b600060208284031215614c87578081fd5b8151614c92816156e5565b809150505b92915050565b60006000600060408486031215614cb2578182fd5b833567ffffffffffffffff80821115614cc9578384fd5b818601915086601f8301121515614cde578384fd5b813581811115614cec578485fd5b876020602083028501011115614d00578485fd5b6020830195508094505050506020840135614d1a8161570e565b809150505b9250925092565b600060208284031215614d37578081fd5b614d4082614c11565b90505b92915050565b600060208284031215614d5a578081fd5b81357fffffffff00000000000000000000000000000000000000000000000000000000811681141515614d8b578182fd5b809150505b92915050565b600060208284031215614da7578081fd5b8151614db2816156e5565b809150505b92915050565b600060208284031215614dce578081fd5b8151614dd9816156e5565b809150505b92915050565b60006101a0808385031215614df7578182fd5b614e00816156ba565b90508251815260208301516020820152604083015160408201526060830151606082015260808301516080820152614e3a60a08401614c61565b60a0820152614e4b60c08401614c61565b60c0820152614e5c60e08401614c2e565b60e0820152610100614e6f818501614c11565b8183015250610120614e82818501614c61565b8183015250610140614e95818501614c4c565b8183015250610160614ea8818501614bfc565b8183015250610180614ebb818501614c61565b8183015250809150505b92915050565b600060808284031215614edc578081fd5b6040516080810181811067ffffffffffffffff82111715614ef957fe5b806040525082518152602083015160208201526040830151604082015260608301516060820152809150505b92915050565b600060208284031215614f3c578081fd5b813590505b92915050565b600060208284031215614f58578081fd5b815190505b92915050565b6000600060408385031215614f76578182fd5b823591506020830135614f888161570e565b809150505b9250929050565b600060208284031215614fa5578081fd5b8135614fb08161570e565b809150505b92915050565b600060208284031215614fcc578081fd5b8135614fd781615727565b809150505b92915050565b600060208284031215614ff3578081fd5b8151614ffe81615727565b809150505b92915050565b600060006000600060808587031215615020578182fd5b843561502b81615727565b809450506020850135925060408501359150606085013561504b8161570e565b809150505b92959194509250565b600060006040838503121561506c578182fd5b823561507781615727565b8092505060208301356150898161570e565b809150505b9250929050565b73ffffffffffffffffffffffffffffffffffffffff811682525b5050565b80151582525b5050565b8060020b82525b5050565b805182526020810151602083015260408101516040830152606081015160608301526080810151608083015260a081015161510660a08401826151a9565b5060c081015161511960c08401826151a9565b5060e081015161512c60e08401826150bd565b5061010080820151615140828501826150b3565b505061012080820151615155828501826151a9565b50506101408082015161516a8285018261519b565b50506101608082015161517f82850182615095565b505061018080820151615194828501826151a9565b50505b5050565b63ffffffff811682525b5050565b67ffffffffffffffff811682525b5050565b600060208201905073ffffffffffffffffffffffffffffffffffffffff831682525b92915050565b600060208201905073ffffffffffffffffffffffffffffffffffffffff831682525b92915050565b600060408201905073ffffffffffffffffffffffffffffffffffffffff841682528260208301525b9392505050565b600060408201905073ffffffffffffffffffffffffffffffffffffffff841682528260208301525b9392505050565b600060408201905073ffffffffffffffffffffffffffffffffffffffff8416825267ffffffffffffffff831660208301525b9392505050565b600060408201905073ffffffffffffffffffffffffffffffffffffffff841682528260208301525b9392505050565b600060208201905082151582525b92915050565b600060208201905073ffffffffffffffffffffffffffffffffffffffff831682525b92915050565b600060208201905073ffffffffffffffffffffffffffffffffffffffff831682525b92915050565b600060208201905073ffffffffffffffffffffffffffffffffffffffff831682525b92915050565b600060208201905073ffffffffffffffffffffffffffffffffffffffff831682525b92915050565b600060208201905073ffffffffffffffffffffffffffffffffffffffff831682525b92915050565b60006101c08201905067ffffffffffffffff841682526153d060208301846150c8565b5b9392505050565b600060208252600f60208301527f4e6f20666c61736820626f72726f77000000000000000000000000000000000060408301526060820190505b919050565b600060208252600460208301527f4e6f6f700000000000000000000000000000000000000000000000000000000060408301526060820190505b919050565b600060208252601360208301527f4d7573742061646420636f6c6c61746572616c0000000000000000000000000060408301526060820190505b919050565b600060208252602360208301527f43616e7420696e637265617365202620646563726561736520636f6c6c61746560408301527f72616c000000000000000000000000000000000000000000000000000000000060608301526080820190505b919050565b600060208252601260208301527f506f736974696f6e20746f6f20736d616c6c000000000000000000000000000060408301526060820190505b919050565b600060208252601760208301527f496e73756666696369656e7420636f6c6c61746572616c00000000000000000060408301526060820190505b919050565b60006101a08201905061558b82846150c8565b5b92915050565b6000608082019050825182526020830151602083015260408301516040830152606083015160608301525b92915050565b60006020820190508282525b92915050565b60006040820190508382528260208301525b9392505050565b600060c0820190508782528660208301528560408301528460608301528360808301528260a08301525b979650505050505050565b600060208201905063ffffffff831682525b92915050565b600060208201905067ffffffffffffffff831682525b92915050565b60006101c08201905067ffffffffffffffff8416825261567a60208301846150c8565b5b9392505050565b600060a08201905067ffffffffffffffff871682528560208301528460408301528360608301528260808301525b9695505050505050565b6000604051905081810181811067ffffffffffffffff821117156156da57fe5b80604052505b919050565b73ffffffffffffffffffffffffffffffffffffffff81168114151561570a5760006000fd5b5b50565b63ffffffff8116811415156157235760006000fd5b5b50565b67ffffffffffffffff8116811415156157405760006000fd5b5b50565bfe5369676e6564536166654d6174683a206d756c7469706c69636174696f6e206f766572666c6f77a2646970667358221220b621e11dbf206749dadece3d882747b763b6027bc83a12d9af631393a350f02264736f6c63430007060033",
  "linkReferences": {},
  "deployedLinkReferences": {}
}