{
  "_format": "hh-sol-artifact-1",
  "contractName": "Market",
  "sourceName": "contracts/core/logic/Market.sol",
  "abi": [
    {
      "inputs": [
        {
          "components": [
            {
              "internalType": "contract IGovernor",
              "name": "Governor",
              "type": "address"
            },
            {
              "internalType": "contract IProtocolLock",
              "name": "ProtocolLock",
              "type": "address"
            },
            {
              "internalType": "contract IPositionNFT",
              "name": "HuePositionNFT",
              "type": "address"
            },
            {
              "internalType": "contract IHue",
              "name": "Hue",
              "type": "address"
            },
            {
              "internalType": "contract ILendHue",
              "name": "LendHue",
              "type": "address"
            },
            {
              "internalType": "contract IAccounting",
              "name": "Accounting",
              "type": "address"
            }
          ],
          "internalType": "struct IMarket.ConstructorParams",
          "name": "params",
          "type": "tuple"
        }
      ],
      "stateMutability": "nonpayable",
      "type": "constructor"
    },
    {
      "anonymous": false,
      "inputs": [
        {
          "indexed": false,
          "internalType": "uint256",
          "name": "requirement",
          "type": "uint256"
        }
      ],
      "name": "CollateralizationRequirementUpdated",
      "type": "event"
    },
    {
      "anonymous": false,
      "inputs": [
        {
          "indexed": true,
          "internalType": "uint64",
          "name": "period",
          "type": "uint64"
        },
        {
          "indexed": false,
          "internalType": "uint64",
          "name": "periods",
          "type": "uint64"
        },
        {
          "indexed": false,
          "internalType": "uint256",
          "name": "newDebt",
          "type": "uint256"
        },
        {
          "indexed": false,
          "internalType": "uint256",
          "name": "rewardCount",
          "type": "uint256"
        },
        {
          "indexed": false,
          "internalType": "uint256",
          "name": "cumulativeDebt",
          "type": "uint256"
        },
        {
          "indexed": false,
          "internalType": "uint256",
          "name": "debtExchangeRate",
          "type": "uint256"
        }
      ],
      "name": "InterestAccrued",
      "type": "event"
    },
    {
      "anonymous": false,
      "inputs": [
        {
          "indexed": false,
          "internalType": "uint256",
          "name": "percentage",
          "type": "uint256"
        }
      ],
      "name": "InterestPortionToLendersUpdated",
      "type": "event"
    },
    {
      "anonymous": false,
      "inputs": [
        {
          "indexed": true,
          "internalType": "address",
          "name": "account",
          "type": "address"
        },
        {
          "indexed": false,
          "internalType": "uint256",
          "name": "hueCount",
          "type": "uint256"
        },
        {
          "indexed": false,
          "internalType": "uint256",
          "name": "lendTokenCount",
          "type": "uint256"
        }
      ],
      "name": "Lend",
      "type": "event"
    },
    {
      "anonymous": false,
      "inputs": [
        {
          "indexed": false,
          "internalType": "uint256",
          "name": "size",
          "type": "uint256"
        }
      ],
      "name": "MinPositionSizeUpdated",
      "type": "event"
    },
    {
      "anonymous": false,
      "inputs": [
        {
          "indexed": true,
          "internalType": "uint64",
          "name": "positionID",
          "type": "uint64"
        },
        {
          "indexed": false,
          "internalType": "uint256",
          "name": "debtIncrease",
          "type": "uint256"
        },
        {
          "indexed": false,
          "internalType": "uint256",
          "name": "debtDecrease",
          "type": "uint256"
        },
        {
          "indexed": false,
          "internalType": "uint256",
          "name": "collateralIncrease",
          "type": "uint256"
        },
        {
          "indexed": false,
          "internalType": "uint256",
          "name": "collateralDecrease",
          "type": "uint256"
        },
        {
          "indexed": false,
          "internalType": "uint256",
          "name": "newDebt",
          "type": "uint256"
        },
        {
          "indexed": false,
          "internalType": "uint256",
          "name": "newCollateral",
          "type": "uint256"
        }
      ],
      "name": "PositionAdjusted",
      "type": "event"
    },
    {
      "anonymous": false,
      "inputs": [
        {
          "indexed": true,
          "internalType": "address",
          "name": "creator",
          "type": "address"
        },
        {
          "indexed": true,
          "internalType": "uint64",
          "name": "positionID",
          "type": "uint64"
        },
        {
          "indexed": false,
          "internalType": "uint256",
          "name": "initialDebt",
          "type": "uint256"
        }
      ],
      "name": "PositionCreated",
      "type": "event"
    },
    {
      "anonymous": false,
      "inputs": [
        {
          "indexed": true,
          "internalType": "uint256",
          "name": "positionID",
          "type": "uint256"
        },
        {
          "indexed": true,
          "internalType": "uint64",
          "name": "period",
          "type": "uint64"
        },
        {
          "indexed": false,
          "internalType": "uint256",
          "name": "debtAfter",
          "type": "uint256"
        },
        {
          "indexed": false,
          "internalType": "uint256",
          "name": "tcpRewards",
          "type": "uint256"
        }
      ],
      "name": "PositionUpdated",
      "type": "event"
    },
    {
      "anonymous": false,
      "inputs": [
        {
          "indexed": true,
          "internalType": "address",
          "name": "account",
          "type": "address"
        },
        {
          "indexed": true,
          "internalType": "bool",
          "name": "isKickback",
          "type": "bool"
        },
        {
          "indexed": false,
          "internalType": "uint256",
          "name": "tcpRewards",
          "type": "uint256"
        }
      ],
      "name": "RewardsDistributed",
      "type": "event"
    },
    {
      "anonymous": false,
      "inputs": [],
      "name": "Stopped",
      "type": "event"
    },
    {
      "anonymous": false,
      "inputs": [
        {
          "indexed": false,
          "internalType": "uint32",
          "name": "duration",
          "type": "uint32"
        }
      ],
      "name": "TwapDurationUpdated",
      "type": "event"
    },
    {
      "anonymous": false,
      "inputs": [
        {
          "indexed": true,
          "internalType": "address",
          "name": "account",
          "type": "address"
        },
        {
          "indexed": false,
          "internalType": "uint256",
          "name": "hueCount",
          "type": "uint256"
        },
        {
          "indexed": false,
          "internalType": "uint256",
          "name": "lendTokenCount",
          "type": "uint256"
        }
      ],
      "name": "Unlend",
      "type": "event"
    },
    {
      "inputs": [],
      "name": "accounting",
      "outputs": [
        {
          "internalType": "contract IAccounting",
          "name": "",
          "type": "address"
        }
      ],
      "stateMutability": "view",
      "type": "function"
    },
    {
      "inputs": [],
      "name": "accrueInterest",
      "outputs": [],
      "stateMutability": "nonpayable",
      "type": "function"
    },
    {
      "inputs": [
        {
          "internalType": "uint64",
          "name": "positionID",
          "type": "uint64"
        },
        {
          "internalType": "int256",
          "name": "debtChange",
          "type": "int256"
        },
        {
          "internalType": "uint256",
          "name": "collateralDecrease",
          "type": "uint256"
        },
        {
          "internalType": "uint32",
          "name": "ui",
          "type": "uint32"
        }
      ],
      "name": "adjustPosition",
      "outputs": [],
      "stateMutability": "payable",
      "type": "function"
    },
    {
      "inputs": [
        {
          "internalType": "uint64[]",
          "name": "positionIDs",
          "type": "uint64[]"
        },
        {
          "internalType": "uint32",
          "name": "ui",
          "type": "uint32"
        }
      ],
      "name": "claimAllRewards",
      "outputs": [],
      "stateMutability": "nonpayable",
      "type": "function"
    },
    {
      "inputs": [],
      "name": "collateralizationRequirement",
      "outputs": [
        {
          "internalType": "uint256",
          "name": "",
          "type": "uint256"
        }
      ],
      "stateMutability": "view",
      "type": "function"
    },
    {
      "inputs": [
        {
          "internalType": "uint256",
          "name": "initialDebt",
          "type": "uint256"
        },
        {
          "internalType": "uint32",
          "name": "ui",
          "type": "uint32"
        }
      ],
      "name": "createPosition",
      "outputs": [
        {
          "internalType": "uint64",
          "name": "positionID",
          "type": "uint64"
        }
      ],
      "stateMutability": "payable",
      "type": "function"
    },
    {
      "inputs": [],
      "name": "currentPeriod",
      "outputs": [
        {
          "internalType": "uint64",
          "name": "period",
          "type": "uint64"
        }
      ],
      "stateMutability": "view",
      "type": "function"
    },
    {
      "inputs": [],
      "name": "deployer",
      "outputs": [
        {
          "internalType": "address",
          "name": "",
          "type": "address"
        }
      ],
      "stateMutability": "view",
      "type": "function"
    },
    {
      "inputs": [],
      "name": "firstPeriod",
      "outputs": [
        {
          "internalType": "uint64",
          "name": "",
          "type": "uint64"
        }
      ],
      "stateMutability": "view",
      "type": "function"
    },
    {
      "inputs": [],
      "name": "governor",
      "outputs": [
        {
          "internalType": "contract IGovernor",
          "name": "",
          "type": "address"
        }
      ],
      "stateMutability": "view",
      "type": "function"
    },
    {
      "inputs": [],
      "name": "hue",
      "outputs": [
        {
          "internalType": "contract IHue",
          "name": "",
          "type": "address"
        }
      ],
      "stateMutability": "view",
      "type": "function"
    },
    {
      "inputs": [],
      "name": "huePositionNFT",
      "outputs": [
        {
          "internalType": "contract IPositionNFT",
          "name": "",
          "type": "address"
        }
      ],
      "stateMutability": "view",
      "type": "function"
    },
    {
      "inputs": [],
      "name": "init",
      "outputs": [],
      "stateMutability": "nonpayable",
      "type": "function"
    },
    {
      "inputs": [],
      "name": "interestPortionToLenders",
      "outputs": [
        {
          "internalType": "uint256",
          "name": "",
          "type": "uint256"
        }
      ],
      "stateMutability": "view",
      "type": "function"
    },
    {
      "inputs": [],
      "name": "lastPeriodGlobalInterestAccrued",
      "outputs": [
        {
          "internalType": "uint64",
          "name": "",
          "type": "uint64"
        }
      ],
      "stateMutability": "view",
      "type": "function"
    },
    {
      "inputs": [
        {
          "internalType": "uint256",
          "name": "hueCount",
          "type": "uint256"
        }
      ],
      "name": "lend",
      "outputs": [],
      "stateMutability": "nonpayable",
      "type": "function"
    },
    {
      "inputs": [],
      "name": "lendHue",
      "outputs": [
        {
          "internalType": "contract ILendHue",
          "name": "",
          "type": "address"
        }
      ],
      "stateMutability": "view",
      "type": "function"
    },
    {
      "inputs": [],
      "name": "minPositionSize",
      "outputs": [
        {
          "internalType": "uint256",
          "name": "",
          "type": "uint256"
        }
      ],
      "stateMutability": "view",
      "type": "function"
    },
    {
      "inputs": [],
      "name": "periodLength",
      "outputs": [
        {
          "internalType": "uint64",
          "name": "",
          "type": "uint64"
        }
      ],
      "stateMutability": "view",
      "type": "function"
    },
    {
      "inputs": [
        {
          "internalType": "uint64",
          "name": "positionID",
          "type": "uint64"
        }
      ],
      "name": "removeKickback",
      "outputs": [],
      "stateMutability": "nonpayable",
      "type": "function"
    },
    {
      "inputs": [
        {
          "internalType": "uint256",
          "name": "requirement",
          "type": "uint256"
        }
      ],
      "name": "setCollateralizationRequirement",
      "outputs": [],
      "stateMutability": "nonpayable",
      "type": "function"
    },
    {
      "inputs": [
        {
          "internalType": "uint256",
          "name": "percentage",
          "type": "uint256"
        }
      ],
      "name": "setInterestPortionToLenders",
      "outputs": [],
      "stateMutability": "nonpayable",
      "type": "function"
    },
    {
      "inputs": [
        {
          "internalType": "uint256",
          "name": "size",
          "type": "uint256"
        }
      ],
      "name": "setMinPositionSize",
      "outputs": [],
      "stateMutability": "nonpayable",
      "type": "function"
    },
    {
      "inputs": [
        {
          "internalType": "uint32",
          "name": "duration",
          "type": "uint32"
        }
      ],
      "name": "setTwapDuration",
      "outputs": [],
      "stateMutability": "nonpayable",
      "type": "function"
    },
    {
      "inputs": [],
      "name": "stop",
      "outputs": [],
      "stateMutability": "nonpayable",
      "type": "function"
    },
    {
      "inputs": [],
      "name": "stopped",
      "outputs": [
        {
          "internalType": "bool",
          "name": "",
          "type": "bool"
        }
      ],
      "stateMutability": "view",
      "type": "function"
    },
    {
      "inputs": [
        {
          "internalType": "uint64",
          "name": "positionID",
          "type": "uint64"
        }
      ],
      "name": "systemGetUpdatedPosition",
      "outputs": [
        {
          "components": [
            {
              "internalType": "uint256",
              "name": "startCumulativeDebt",
              "type": "uint256"
            },
            {
              "internalType": "uint256",
              "name": "collateral",
              "type": "uint256"
            },
            {
              "internalType": "uint256",
              "name": "debt",
              "type": "uint256"
            },
            {
              "internalType": "uint256",
              "name": "startDebtExchangeRate",
              "type": "uint256"
            },
            {
              "internalType": "uint256",
              "name": "startTCPRewards",
              "type": "uint256"
            },
            {
              "internalType": "uint64",
              "name": "lastTimeUpdated",
              "type": "uint64"
            },
            {
              "internalType": "uint64",
              "name": "lastBorrowTime",
              "type": "uint64"
            },
            {
              "internalType": "int24",
              "name": "tick",
              "type": "int24"
            },
            {
              "internalType": "bool",
              "name": "tickSet",
              "type": "bool"
            },
            {
              "internalType": "uint64",
              "name": "tickIndex",
              "type": "uint64"
            },
            {
              "internalType": "uint32",
              "name": "ui",
              "type": "uint32"
            },
            {
              "internalType": "address",
              "name": "kickbackDestination",
              "type": "address"
            },
            {
              "internalType": "uint64",
              "name": "kickbackPortion",
              "type": "uint64"
            }
          ],
          "internalType": "struct IAccounting.DebtPosition",
          "name": "",
          "type": "tuple"
        }
      ],
      "stateMutability": "nonpayable",
      "type": "function"
    },
    {
      "inputs": [],
      "name": "twapDuration",
      "outputs": [
        {
          "internalType": "uint32",
          "name": "",
          "type": "uint32"
        }
      ],
      "stateMutability": "view",
      "type": "function"
    },
    {
      "inputs": [
        {
          "internalType": "uint256",
          "name": "lendTokenCount",
          "type": "uint256"
        }
      ],
      "name": "unlend",
      "outputs": [],
      "stateMutability": "nonpayable",
      "type": "function"
    },
    {
      "inputs": [
        {
          "internalType": "bytes4",
          "name": "",
          "type": "bytes4"
        }
      ],
      "name": "validUpdate",
      "outputs": [
        {
          "internalType": "bool",
          "name": "",
          "type": "bool"
        }
      ],
      "stateMutability": "view",
      "type": "function"
    },
    {
      "inputs": [
        {
          "internalType": "uint256",
          "name": "lendTokenCount",
          "type": "uint256"
        }
      ],
      "name": "valueOfLendTokensInHue",
      "outputs": [
        {
          "internalType": "uint256",
          "name": "",
          "type": "uint256"
        }
      ],
      "stateMutability": "view",
      "type": "function"
    }
  ],
  "bytecode": "0x610180604052600160026000509090556714d1120d7b160000600360005090905568878678326eac90000060046000509090556702c68af0bb1400006005600050909055610708600660006101000a81548163ffffffff021916908363ffffffff160217905550348015620000745760006000fd5b5060405162005cb838038062005cb883398181016040528101906200009a919062000594565b5b610e105b816000015182602001515b815b8073ffffffffffffffffffffffffffffffffffffffff1660808173ffffffffffffffffffffffffffffffffffffffff1660601b815260140150505b508073ffffffffffffffffffffffffffffffffffffffff1660a08173ffffffffffffffffffffffffffffffffffffffff1660601b815260140150505b505060018167ffffffffffffffff1662000142620004c260201b60201c565b67ffffffffffffffff168115156200015657fe5b040367ffffffffffffffff1660e08167ffffffffffffffff1660c01b815260080150508067ffffffffffffffff1660c08167ffffffffffffffff1660c01b815260080150505b50806040015173ffffffffffffffffffffffffffffffffffffffff166101008173ffffffffffffffffffffffffffffffffffffffff1660601b81526014015050806060015173ffffffffffffffffffffffffffffffffffffffff166101208173ffffffffffffffffffffffffffffffffffffffff1660601b81526014015050806080015173ffffffffffffffffffffffffffffffffffffffff166101408173ffffffffffffffffffffffffffffffffffffffff1660601b815260140150508060a0015173ffffffffffffffffffffffffffffffffffffffff166101608173ffffffffffffffffffffffffffffffffffffffff1660601b815260140150506000604051806080016040528063ef5e1cac60e01b7bffffffffffffffffffffffffffffffffffffffffffffffffffffffff19167bffffffffffffffffffffffffffffffffffffffffffffffffffffffff1916815260200163c433c80a60e01b7bffffffffffffffffffffffffffffffffffffffffffffffffffffffff19167bffffffffffffffffffffffffffffffffffffffffffffffffffffffff191681526020016306972dcd60e01b7bffffffffffffffffffffffffffffffffffffffffffffffffffffffff19167bffffffffffffffffffffffffffffffffffffffffffffffffffffffff19168152602001635a6127a960e01b7bffffffffffffffffffffffffffffffffffffffffffffffffffffffff19167bffffffffffffffffffffffffffffffffffffffffffffffffffffffff191681526020015090506000600090505b81506004811015620004775760016001600050600084846004811015156200040057fe5b60200201517bffffffffffffffffffffffffffffffffffffffffffffffffffffffff19167bffffffffffffffffffffffffffffffffffffffffffffffffffffffff1916815260200190815260200160002060006101000a81548160ff0219169083151502179055505b8080600101915050620003dc565b50336006600c6101000a81548173ffffffffffffffffffffffffffffffffffffffff021916908373ffffffffffffffffffffffffffffffffffffffff160217905550505b5062000669565b6000620004dc42620004e460201b62001b8517909060201c565b905080505b90565b600068010000000000000000821015156200056a576040517f08c379a00000000000000000000000000000000000000000000000000000000081526004018080602001828103825260118152602001807f6d6f7265207468616e203634206269747300000000000000000000000000000081526020015060200191505060405180910390fd5b81905062000573565b9190505662000668565b6000815190506200058e816200064b565b5b919050565b600060c08284031215620005a6578081fd5b60405160c081018181106001600160401b0382111715620005c357fe5b80604052508251620005d5816200064b565b808252506020830151620005e9816200064b565b80602083015250604083015162000600816200064b565b8060408301525062000615606084016200057d565b606082015262000628608084016200057d565b60808201526200063b60a084016200057d565b60a0820152809150505b92915050565b6001600160a01b03811681141515620006645760006000fd5b5b50565b5b60805160601c60a05160601c60c05160c01c60e05160c01c6101005160601c6101205160601c6101405160601c6101605160601c6154d0620007e8600039806108c25280610d705280610e6f5280610ef85280610faa528061120552806112db52806115835280611633528061178652806119825280611a59528061217d528061279a52806128e75280612a5c5280612c295280612c605280612e3452806132a152806133645280613431528061367052508061083352806109cd5280610fd75280613714525080610bd65280610f885280612af45280612b8d528061308152806133f552806134b652806134f25280613577525080610a545280610ca852806110fa528061113d528061154752806118bc52806123c95250806114255280611c1b5280613c265250806114495280611c3c5280613c47525080611d3c5280611f2d5250806107a452806116ed5280611c955280611fc052806122c352806124765280612ed852806131695280613b4252806140f652506154d06000f3fe6080604052600436106101dc5760003560e01c8063a6aa57ce11610102578063d2ca211511610095578063eb6843ce11610064578063eb6843ce14610656578063ed92182f14610694578063ef5e1cac146106be578063f6979f29146106e8576101dc565b8063d2ca2115146105a8578063d5f39488146105d4578063e11c876214610600578063e1c7392a1461063e576101dc565b8063b6ae213a116100d1578063b6ae213a146104fa578063bb8313c214610526578063c433c80a14610552578063c4e3a63b1461057c576101dc565b8063a6aa57ce14610462578063a6afed951461048c578063a89f51ae146104a4578063b2326b57146104d0576101dc565b80632cae02691161017a5780635a6127a9116101495780635a6127a9146103c457806375f12b21146103ee5780637b809bdd1461041a5780639624e83e14610436576101dc565b80632cae0269146103105780632e6c6f841461033c578063323741741461036c5780635658c01214610398576101dc565b80630c340a24116101b65780630c340a2414610250578063113cf1ab1461027c578063197b1bf5146102ba57806326d89545146102e4576101dc565b806306040618146101e257806306972dcd1461020e57806307da68f514610238576101dc565b60006000fd5b3480156101ef5760006000fd5b506101f8610714565b6040516102059190615369565b60405180910390f35b34801561021b5760006000fd5b5061023660048036038101906102319190614c95565b61072c565b005b3480156102455760006000fd5b5061024e610782565b005b34801561025d5760006000fd5b506102666107a2565b604051610273919061503b565b60405180910390f35b3480156102895760006000fd5b506102a4600480360381019061029f9190614ab3565b6107c6565b6040516102b19190614fff565b60405180910390f35b3480156102c75760006000fd5b506102e260048036038101906102dd9190614c95565b6107eb565b005b3480156102f15760006000fd5b506102fa6109b5565b6040516103079190615351565b60405180910390f35b34801561031d5760006000fd5b506103266109cb565b604051610333919061508b565b60405180910390f35b61035660048036038101906103519190614ccd565b6109ef565b6040516103639190615369565b60405180910390f35b3480156103795760006000fd5b50610382610bd4565b60405161038f9190615063565b60405180910390f35b3480156103a55760006000fd5b506103ae610bf8565b6040516103bb91906152f1565b60405180910390f35b3480156103d15760006000fd5b506103ec60048036038101906103e79190614c95565b610c01565b005b3480156103fb5760006000fd5b50610404610c74565b6040516104119190614fff565b60405180910390f35b610434600480360381019061042f9190614d73565b610c87565b005b3480156104435760006000fd5b5061044c610e6d565b6040516104599190615013565b60405180910390f35b34801561046f5760006000fd5b5061048a60048036038101906104859190614c95565b610e91565b005b3480156104995760006000fd5b506104a26110ca565b005b3480156104b15760006000fd5b506104ba6110f8565b6040516104c791906150b3565b60405180910390f35b3480156104dd5760006000fd5b506104f860048036038101906104f39190614d25565b61111c565b005b3480156105075760006000fd5b5061051061137d565b60405161051d9190615369565b60405180910390f35b3480156105335760006000fd5b5061053c611397565b60405161054991906152f1565b60405180910390f35b34801561055f5760006000fd5b5061057a60048036038101906105759190614cfe565b6113a0565b005b3480156105895760006000fd5b50610592611423565b60405161059f9190615369565b60405180910390f35b3480156105b55760006000fd5b506105be611447565b6040516105cb9190615369565b60405180910390f35b3480156105e15760006000fd5b506105ea61146b565b6040516105f79190614ee9565b60405180910390f35b34801561060d5760006000fd5b5061062860048036038101906106239190614c95565b611491565b60405161063591906152f1565b60405180910390f35b34801561064b5760006000fd5b506106546114bf565b005b3480156106635760006000fd5b5061067e60048036038101906106799190614d25565b6116d5565b60405161068b91906152a6565b60405180910390f35b3480156106a15760006000fd5b506106bc60048036038101906106b79190614a07565b611856565b005b3480156106cb5760006000fd5b506106e660048036038101906106e19190614c95565b611b0e565b005b3480156106f55760006000fd5b506106fe611b7c565b60405161070b91906152f1565b60405180910390f35b6000610724611c1763ffffffff16565b905080505b90565b61073a611c9063ffffffff16565b8060046000508190909055507f113d15441cef41c1a48eb1bc2c6fa7b881b201a5c4b2913272f80defe12ce3c38160405161077591906152f1565b60405180910390a15b5b50565b610790611c9063ffffffff16565b61079e611cf063ffffffff16565b5b5b565b7f000000000000000000000000000000000000000000000000000000000000000081565b600160005060205280600052604060002060009150909054906101000a900460ff1681565b6107f9611d3a63ffffffff16565b610807611e4d63ffffffff16565b61081960008211611ed863ffffffff16565b6000339050600061082f8361149163ffffffff16565b90507f000000000000000000000000000000000000000000000000000000000000000073ffffffffffffffffffffffffffffffffffffffff166379cc679083856040518363ffffffff1660e01b815260040161088c929190614fd0565b600060405180830381600087803b1580156108a75760006000fd5b505af11580156108bc573d600060003e3d6000fd5b505050507f000000000000000000000000000000000000000000000000000000000000000073ffffffffffffffffffffffffffffffffffffffff1663b241bbac83836040518363ffffffff1660e01b815260040161091b929190614fd0565b600060405180830381600087803b1580156109365760006000fd5b505af115801561094b573d600060003e3d6000fd5b505050508173ffffffffffffffffffffffffffffffffffffffff167fefc56a1a7590fc4eb13cd40b6a2ceee41f3869c6ea818d20d9a18f2d6315ca188285604051610997929190615303565b60405180910390a250505b5b6109b1611f1e63ffffffff16565b5b50565b600660009054906101000a900463ffffffff1681565b7f000000000000000000000000000000000000000000000000000000000000000081565b60006109ff611d3a63ffffffff16565b610a0d611fb063ffffffff16565b600034111515610a52576040517f08c379a0000000000000000000000000000000000000000000000000000000008152600401610a4990615184565b60405180910390fd5b7f000000000000000000000000000000000000000000000000000000000000000073ffffffffffffffffffffffffffffffffffffffff1663755edd17336040518263ffffffff1660e01b8152600401610aab9190614f11565b602060405180830381600087803b158015610ac65760006000fd5b505af1158015610adb573d600060003e3d6000fd5b505050506040513d601f19601f82011682018060405250810190610aff9190614d4c565b90508050610b0b61487c565b8281610140019063ffffffff16908163ffffffff1681526020015050610b63610b448367ffffffffffffffff16836120dd63ffffffff16565b83610b56876125ab909063ffffffff16565b600061265463ffffffff16565b8167ffffffffffffffff163373ffffffffffffffffffffffffffffffffffffffff167f24c9bb74341922446798a07669f56d3efec500a78e81429643958e7a42cb6b1286604051610bb491906152f1565b60405180910390a3505b5b610bcd611f1e63ffffffff16565b5b92915050565b7f000000000000000000000000000000000000000000000000000000000000000081565b60036000505481565b610c0f611c9063ffffffff16565b806005600050819090905550670de0b6b3a764000060056000505411151515610c385760006000fd5b7f95c718270dc047bb0f84e533ee71ed5ee3961f14be924c0e493ba6e1ff078ae281604051610c6791906152f1565b60405180910390a15b5b50565b600060009054906101000a900460ff1681565b610c95611d3a63ffffffff16565b610ca3611fb063ffffffff16565b610d5e7f000000000000000000000000000000000000000000000000000000000000000073ffffffffffffffffffffffffffffffffffffffff1663430c208133876040518363ffffffff1660e01b8152600401610d01929190614f97565b60206040518083038186803b158015610d1a5760006000fd5b505afa158015610d2f573d600060003e3d6000fd5b505050506040513d601f19601f82011682018060405250810190610d539190614a90565b612d4c63ffffffff16565b6000610e258567ffffffffffffffff167f000000000000000000000000000000000000000000000000000000000000000073ffffffffffffffffffffffffffffffffffffffff16630f85fc5a886040518263ffffffff1660e01b8152600401610dc79190615369565b6101a06040518083038186803b158015610de15760006000fd5b505afa158015610df6573d600060003e3d6000fd5b505050506040513d601f19601f82011682018060405250810190610e1a9190614b4e565b6120dd63ffffffff16565b90508181610140019063ffffffff16908163ffffffff1681526020015050610e558186868661265463ffffffff16565b505b5b610e66611f1e63ffffffff16565b5b50505050565b7f000000000000000000000000000000000000000000000000000000000000000081565b610e9f611d3a63ffffffff16565b610ead611fb063ffffffff16565b610ebf60008211611ed863ffffffff16565b6000339050610ed2612dc863ffffffff16565b6000610ef4610ee561366a63ffffffff16565b846137f790919063ffffffff16565b90507f000000000000000000000000000000000000000000000000000000000000000073ffffffffffffffffffffffffffffffffffffffff16632c73f09e846040518263ffffffff1660e01b8152600401610f4f91906152f1565b600060405180830381600087803b158015610f6a5760006000fd5b505af1158015610f7f573d600060003e3d6000fd5b50505050610fd57f0000000000000000000000000000000000000000000000000000000000000000837f00000000000000000000000000000000000000000000000000000000000000008661381d63ffffffff16565b7f000000000000000000000000000000000000000000000000000000000000000073ffffffffffffffffffffffffffffffffffffffff1663449a52f883836040518363ffffffff1660e01b8152600401611030929190614fd0565b600060405180830381600087803b15801561104b5760006000fd5b505af1158015611060573d600060003e3d6000fd5b505050508173ffffffffffffffffffffffffffffffffffffffff167f8fff79b574da9a93d7a5408c2fc00c4a9b2b462321c1659b2fbbb9ff3dd221ff84836040516110ac929190615303565b60405180910390a250505b5b6110c6611f1e63ffffffff16565b5b50565b6110d8613a4863ffffffff16565b6110e6612dc863ffffffff16565b5b6110f5613ad963ffffffff16565b5b565b7f000000000000000000000000000000000000000000000000000000000000000081565b61112a611d3a63ffffffff16565b611138611fb063ffffffff16565b6111f37f000000000000000000000000000000000000000000000000000000000000000073ffffffffffffffffffffffffffffffffffffffff1663430c208133846040518363ffffffff1660e01b8152600401611196929190614f97565b60206040518083038186803b1580156111af5760006000fd5b505afa1580156111c4573d600060003e3d6000fd5b505050506040513d601f19601f820116820180604052508101906111e89190614a90565b612d4c63ffffffff16565b60006112ba8267ffffffffffffffff167f000000000000000000000000000000000000000000000000000000000000000073ffffffffffffffffffffffffffffffffffffffff16630f85fc5a856040518263ffffffff1660e01b815260040161125c9190615369565b6101a06040518083038186803b1580156112765760006000fd5b505afa15801561128b573d600060003e3d6000fd5b505050506040513d601f19601f820116820180604052508101906112af9190614b4e565b6120dd63ffffffff16565b9050600081610140019063ffffffff16908163ffffffff16815260200150507f000000000000000000000000000000000000000000000000000000000000000073ffffffffffffffffffffffffffffffffffffffff16635a6beaf483836040518363ffffffff1660e01b8152600401611334929190615385565b600060405180830381600087803b15801561134f5760006000fd5b505af1158015611364573d600060003e3d6000fd5b50505050505b5b611379611f1e63ffffffff16565b5b50565b600660049054906101000a900467ffffffffffffffff1681565b60046000505481565b6113ae611c9063ffffffff16565b61012c8163ffffffff16101515156113c65760006000fd5b80600660006101000a81548163ffffffff021916908363ffffffff1602179055507f670aac3910a07dcfe5267c8b0bf2357abdb454e509764d13e94e85ee13c6da20816040516114169190615351565b60405180910390a15b5b50565b7f000000000000000000000000000000000000000000000000000000000000000081565b7f000000000000000000000000000000000000000000000000000000000000000081565b6006600c9054906101000a900473ffffffffffffffffffffffffffffffffffffffff1681565b60006114b36114a461366a63ffffffff16565b83613ae990919063ffffffff16565b90506114ba565b919050565b61151e6006600c9054906101000a900473ffffffffffffffffffffffffffffffffffffffff1673ffffffffffffffffffffffffffffffffffffffff163373ffffffffffffffffffffffffffffffffffffffff1614612d4c63ffffffff16565b6006600c6101000a81549073ffffffffffffffffffffffffffffffffffffffff021916905560007f000000000000000000000000000000000000000000000000000000000000000073ffffffffffffffffffffffffffffffffffffffff1663755edd177f00000000000000000000000000000000000000000000000000000000000000006040518263ffffffff1660e01b81526004016115be9190614ee9565b602060405180830381600087803b1580156115d95760006000fd5b505af11580156115ee573d600060003e3d6000fd5b505050506040513d601f19601f820116820180604052508101906116129190614d4c565b67ffffffffffffffff161415156116295760006000fd5b61163161487c565b7f000000000000000000000000000000000000000000000000000000000000000073ffffffffffffffffffffffffffffffffffffffff16635a6beaf460006116806000856120dd63ffffffff16565b6040518363ffffffff1660e01b815260040161169d9291906150db565b600060405180830381600087803b1580156116b85760006000fd5b505af11580156116cd573d600060003e3d6000fd5b50505050505b565b6116dd61487c565b6116eb613a4863ffffffff16565b7f000000000000000000000000000000000000000000000000000000000000000073ffffffffffffffffffffffffffffffffffffffff16639622cd8f336040518263ffffffff1660e01b81526004016117449190614f11565b60006040518083038186803b15801561175d5760006000fd5b505afa158015611772573d600060003e3d6000fd5b5050505061183b8267ffffffffffffffff167f000000000000000000000000000000000000000000000000000000000000000073ffffffffffffffffffffffffffffffffffffffff16630f85fc5a856040518263ffffffff1660e01b81526004016117dd9190615369565b6101a06040518083038186803b1580156117f75760006000fd5b505afa15801561180c573d600060003e3d6000fd5b505050506040513d601f19601f820116820180604052508101906118309190614b4e565b6120dd63ffffffff16565b9050611842565b611850613ad963ffffffff16565b5b919050565b611864611d3a63ffffffff16565b611872611e4d63ffffffff16565b600083839050905061188261487c565b60006000600090505b83811015611af45786868281811015156118a157fe5b90506020020160208101906118b69190614d25565b915081507f000000000000000000000000000000000000000000000000000000000000000073ffffffffffffffffffffffffffffffffffffffff1663430c208133846040518363ffffffff1660e01b8152600401611915929190614f97565b60206040518083038186803b15801561192e5760006000fd5b505afa158015611943573d600060003e3d6000fd5b505050506040513d601f19601f820116820180604052508101906119679190614a90565b151561197257611ae7565b611a378267ffffffffffffffff167f000000000000000000000000000000000000000000000000000000000000000073ffffffffffffffffffffffffffffffffffffffff16630f85fc5a856040518263ffffffff1660e01b81526004016119d99190615369565b6101a06040518083038186803b1580156119f35760006000fd5b505afa158015611a08573d600060003e3d6000fd5b505050506040513d601f19601f82011682018060405250810190611a2c9190614b4e565b6120dd63ffffffff16565b925082508483610140019063ffffffff16908163ffffffff16815260200150507f000000000000000000000000000000000000000000000000000000000000000073ffffffffffffffffffffffffffffffffffffffff16635a6beaf483856040518363ffffffff1660e01b8152600401611ab2929190615385565b600060405180830381600087803b158015611acd5760006000fd5b505af1158015611ae2573d600060003e3d6000fd5b505050505b808060010191505061188b565b505050505b5b611b08611f1e63ffffffff16565b5b505050565b611b1c611c9063ffffffff16565b806003600050819090905550670de0b6b3a76400008110151515611b405760006000fd5b7f52640f3e2df50709ead28077e905b85df7544c73c32a40259dff3ac35927d5ce81604051611b6f91906152f1565b60405180910390a15b5b50565b60056000505481565b60006801000000000000000082101515611c0a576040517f08c379a00000000000000000000000000000000000000000000000000000000081526004018080602001828103825260118152602001807f6d6f7265207468616e203634206269747300000000000000000000000000000081526020015060200191505060405180910390fd5b819050611c12565b919050565b60007f00000000000000000000000000000000000000000000000000000000000000007f000000000000000000000000000000000000000000000000000000000000000067ffffffffffffffff16611c73613b0f63ffffffff16565b67ffffffffffffffff16811515611c8657fe5b0403905080505b90565b611ced7f000000000000000000000000000000000000000000000000000000000000000073ffffffffffffffffffffffffffffffffffffffff163373ffffffffffffffffffffffffffffffffffffffff1614612d4c63ffffffff16565b5b565b6001600060006101000a81548160ff0219169083151502179055507f7acc84e34091ae817647a4c49116f5cc07f319078ba80f8f5fde37ea7e25cbd660405160405180910390a15b565b7f000000000000000000000000000000000000000000000000000000000000000073ffffffffffffffffffffffffffffffffffffffff1663e97dcb626040518163ffffffff1660e01b8152600401600060405180830381600087803b158015611da35760006000fd5b505af1158015611db8573d600060003e3d6000fd5b50505050600260026000505414151515611e3d576040517f08c379a000000000000000000000000000000000000000000000000000000000815260040180806020018281038252600d8152602001807f4c50205265656e7472616e63790000000000000000000000000000000000000081526020015060200191505060405180910390fd5b600260026000508190909055505b565b600060009054906101000a900460ff16151515611ed5576040517f08c379a00000000000000000000000000000000000000000000000000000000081526004018080602001828103825260138152602001807f436f6e74726163742069732073746f707065640000000000000000000000000081526020015060200191505060405180910390fd5b5b565b801515611f1a576040517f08c379a0000000000000000000000000000000000000000000000000000000008152600401611f1190615145565b60405180910390fd5b5b50565b600160026000508190909055507f000000000000000000000000000000000000000000000000000000000000000073ffffffffffffffffffffffffffffffffffffffff1663e9fad8ee6040518163ffffffff1660e01b8152600401600060405180830381600087803b158015611f945760006000fd5b505af1158015611fa9573d600060003e3d6000fd5b505050505b565b611fbe611e4d63ffffffff16565b7f000000000000000000000000000000000000000000000000000000000000000073ffffffffffffffffffffffffffffffffffffffff1663bf86d6906040518163ffffffff1660e01b815260040160206040518083038186803b1580156120255760006000fd5b505afa15801561203a573d600060003e3d6000fd5b505050506040513d60208110156120515760006000fd5b81019080805190602001909291905050501515156120da576040517f08c379a00000000000000000000000000000000000000000000000000000000081526004018080602001828103825260118152602001807f50726f746f636f6c2073687574646f776e00000000000000000000000000000081526020015060200191505060405180910390fd5b5b565b6120e561487c565b60006120f5613b2a63ffffffff16565b9050600061210882613c1f63ffffffff16565b9050600060008560a0015167ffffffffffffffff161461213a576121358560a00151613c1f63ffffffff16565b61213d565b60005b90508067ffffffffffffffff168267ffffffffffffffff16111515612167578493505050506125a5565b612175612dc863ffffffff16565b6000612227867f000000000000000000000000000000000000000000000000000000000000000073ffffffffffffffffffffffffffffffffffffffff166306ef2d806040518163ffffffff1660e01b815260040160806040518083038186803b1580156121e25760006000fd5b505afa1580156121f7573d600060003e3d6000fd5b505050506040513d601f19601f8201168201806040525081019061221b9190614c35565b86613ca763ffffffff16565b8092508196505050600081118015612240575060008714155b1561255757600073ffffffffffffffffffffffffffffffffffffffff1685610160015173ffffffffffffffffffffffffffffffffffffffff16141580156122965750600085610180015167ffffffffffffffff16115b156123c55760006122bf86610180015167ffffffffffffffff16836137f790919063ffffffff16565b90507f000000000000000000000000000000000000000000000000000000000000000073ffffffffffffffffffffffffffffffffffffffff16634d6729f5876101600151836040518363ffffffff1660e01b8152600401612321929190614fd0565b600060405180830381600087803b15801561233c5760006000fd5b505af1158015612351573d600060003e3d6000fd5b505050506001151586610160015173ffffffffffffffffffffffffffffffffffffffff167f8079a05488a0f375c08504c3ba8b3a1371f5a192b7a141bc9294ef7ad41389d9836040516123a491906152f1565b60405180910390a36123bf8183613e0d90919063ffffffff16565b91508150505b60007f000000000000000000000000000000000000000000000000000000000000000073ffffffffffffffffffffffffffffffffffffffff16636352211e896040518263ffffffff1660e01b815260040161242091906152f1565b60206040518083038186803b1580156124395760006000fd5b505afa15801561244e573d600060003e3d6000fd5b505050506040513d601f19601f8201168201806040525081019061247291906149e0565b90507f000000000000000000000000000000000000000000000000000000000000000073ffffffffffffffffffffffffffffffffffffffff16634d6729f582846040518363ffffffff1660e01b81526004016124cf929190614fd0565b600060405180830381600087803b1580156124ea5760006000fd5b505af11580156124ff573d600060003e3d6000fd5b50505050600015158173ffffffffffffffffffffffffffffffffffffffff167f8079a05488a0f375c08504c3ba8b3a1371f5a192b7a141bc9294ef7ad41389d98460405161254d91906152f1565b60405180910390a3505b8267ffffffffffffffff16877fc99ac0d15229fa72f1b0756c0eed4e7ede3d80f4e4e0d308ce7a56d1366b8a03876040015184604051612598929190615303565b60405180910390a3505050505b92915050565b60007f800000000000000000000000000000000000000000000000000000000000000082101515612647576040517f08c379a00000000000000000000000000000000000000000000000000000000081526004018080602001828103825260128152602001807f746f6f2062696720666f7220696e74323536000000000000000000000000000081526020015060200191505060405180910390fd5b81905061264f565b919050565b600034905060006000841361266a57600061266c565b835b905060006000851261267f5760006126b3565b6126b27fffffffffffffffffffffffffffffffffffffffffffffffffffffffffffffffff86613e9690919063ffffffff16565b5b90506000831180156126c55750600084115b151515612707576040517f08c379a00000000000000000000000000000000000000000000000000000000081526004016126fe906151c3565b60405180910390fd5b61273a60008411806127195750600085115b806127245750600083115b8061272f5750600082115b611ed863ffffffff16565b600082111561282657612751613b0f63ffffffff16565b8760c0019067ffffffffffffffff16908167ffffffffffffffff168152602001505061278a828860400151613fcc90919063ffffffff16565b87604001909081815260200150507f000000000000000000000000000000000000000000000000000000000000000073ffffffffffffffffffffffffffffffffffffffff16632b7c7b11836040518263ffffffff1660e01b81526004016127f191906152f1565b600060405180830381600087803b15801561280c5760006000fd5b505af1158015612821573d600060003e3d6000fd5b505050505b60008111156129735761283d613b0f63ffffffff16565b67ffffffffffffffff1661286e610708610e10018960c0015167ffffffffffffffff1661405590919063ffffffff16565b67ffffffffffffffff161015156128ba576040517f08c379a00000000000000000000000000000000000000000000000000000000081526004016128b190615106565b60405180910390fd5b80876040015110156128d0578660400151905080505b8087604001818151039150909081815260200150507f000000000000000000000000000000000000000000000000000000000000000073ffffffffffffffffffffffffffffffffffffffff16632a7ba1f7826040518263ffffffff1660e01b815260040161293e91906152f1565b600060405180830381600087803b1580156129595760006000fd5b505af115801561296e573d600060003e3d6000fd5b505050505b60008311156129a257612993838860200151613fcc90919063ffffffff16565b87602001909081815260200150505b60008411156129d1576129c2848860200151613e0d90919063ffffffff16565b87602001909081815260200150505b600087604001511115612a5a57600460005054876040015110151515612a2c576040517f08c379a0000000000000000000000000000000000000000000000000000000008152600401612a2390615228565b60405180910390fd5b6000841180612a3b5750600082115b15612a5957612a58876040015188602001516140f263ffffffff16565b5b5b7f000000000000000000000000000000000000000000000000000000000000000073ffffffffffffffffffffffffffffffffffffffff16635a6beaf487896040518363ffffffff1660e01b8152600401612ab5929190615385565b600060405180830381600087803b158015612ad05760006000fd5b505af1158015612ae5573d600060003e3d6000fd5b505050506000821115612b82577f000000000000000000000000000000000000000000000000000000000000000073ffffffffffffffffffffffffffffffffffffffff1663449a52f833846040518363ffffffff1660e01b8152600401612b4d929190614f68565b600060405180830381600087803b158015612b685760006000fd5b505af1158015612b7d573d600060003e3d6000fd5b505050505b6000811115612c1b577f000000000000000000000000000000000000000000000000000000000000000073ffffffffffffffffffffffffffffffffffffffff166379cc679033836040518363ffffffff1660e01b8152600401612be6929190614f68565b600060405180830381600087803b158015612c015760006000fd5b505af1158015612c16573d600060003e3d6000fd5b505050505b6000831115612c5557612c547f0000000000000000000000000000000000000000000000000000000000000000846142a663ffffffff16565b5b6000841115612cee577f000000000000000000000000000000000000000000000000000000000000000073ffffffffffffffffffffffffffffffffffffffff16636250216933866040518363ffffffff1660e01b8152600401612cb9929190614f39565b600060405180830381600087803b158015612cd45760006000fd5b505af1158015612ce9573d600060003e3d6000fd5b505050505b8567ffffffffffffffff167fdbaad0966fb140906c77f54a38b3e1ce6c60e87527bbc4ee0b9ad893e3de453b838386888c604001518d60200151604051612d3a9695949392919061531c565b60405180910390a25050505b50505050565b801515612dc4576040517f08c379a000000000000000000000000000000000000000000000000000000000815260040180806020018281038252600e8152602001807f4e6f7420417574686f72697a656400000000000000000000000000000000000081526020015060200191505060405180910390fd5b5b50565b6000612dd861442c63ffffffff16565b9050600660049054906101000a900467ffffffffffffffff1667ffffffffffffffff168167ffffffffffffffff16111515612e135750613668565b6000600660049054906101000a900467ffffffffffffffff168203905060007f000000000000000000000000000000000000000000000000000000000000000073ffffffffffffffffffffffffffffffffffffffff166306ef2d806040518163ffffffff1660e01b815260040160806040518083038186803b158015612e995760006000fd5b505afa158015612eae573d600060003e3d6000fd5b505050506040513d601f19601f82011682018060405250810190612ed29190614c35565b905060007f000000000000000000000000000000000000000000000000000000000000000073ffffffffffffffffffffffffffffffffffffffff166343f48fbd6040518163ffffffff1660e01b815260040160206040518083038186803b158015612f3d5760006000fd5b505afa158015612f52573d600060003e3d6000fd5b505050506040513d601f19601f82011682018060405250810190612f769190614b27565b9050600061313083858473ffffffffffffffffffffffffffffffffffffffff1663a0fc0eda6040518163ffffffff1660e01b815260040160206040518083038186803b158015612fc65760006000fd5b505afa158015612fdb573d600060003e3d6000fd5b505050506040513d601f19601f82011682018060405250810190612fff9190614cb1565b8573ffffffffffffffffffffffffffffffffffffffff16636d7fa6646040518163ffffffff1660e01b815260040160206040518083038186803b1580156130465760006000fd5b505afa15801561305b573d600060003e3d6000fd5b505050506040513d601f19601f8201168201806040525081019061307f9190614a90565b7f000000000000000000000000000000000000000000000000000000000000000073ffffffffffffffffffffffffffffffffffffffff166375172a8b6040518163ffffffff1660e01b815260040160206040518083038186803b1580156130e65760006000fd5b505afa1580156130fb573d600060003e3d6000fd5b505050506040513d601f19601f8201168201806040525081019061311f9190614cb1565b60056000505461445263ffffffff16565b90506000610e1067ffffffffffffffff166201518081151561314e57fe5b0467ffffffffffffffff166132178667ffffffffffffffff167f000000000000000000000000000000000000000000000000000000000000000073ffffffffffffffffffffffffffffffffffffffff1663a5d4198b6040518163ffffffff1660e01b8152600401602060405180830381600087803b1580156131d05760006000fd5b505af11580156131e5573d600060003e3d6000fd5b505050506040513d601f19601f820116820180604052508101906132099190614cb1565b61464090919063ffffffff16565b81151561322057fe5b04905060405180608001604052808360000151815260200161324f838760200151613fcc90919063ffffffff16565b815260200161328b6132788867ffffffffffffffff16886000015161464090919063ffffffff16565b8760400151613fcc90919063ffffffff16565b81526020018360200151815260200150935083507f000000000000000000000000000000000000000000000000000000000000000073ffffffffffffffffffffffffffffffffffffffff166378efc6b0856040518263ffffffff1660e01b81526004016132f891906152c0565b600060405180830381600087803b1580156133135760006000fd5b505af1158015613328573d600060003e3d6000fd5b5050505085600660046101000a81548167ffffffffffffffff021916908367ffffffffffffffff1602179055506000826060015111156134a7577f000000000000000000000000000000000000000000000000000000000000000073ffffffffffffffffffffffffffffffffffffffff16632c73f09e83606001516040518263ffffffff1660e01b81526004016133bf91906152f1565b600060405180830381600087803b1580156133da5760006000fd5b505af11580156133ef573d600060003e3d6000fd5b505050507f000000000000000000000000000000000000000000000000000000000000000073ffffffffffffffffffffffffffffffffffffffff1663449a52f87f000000000000000000000000000000000000000000000000000000000000000084606001516040518363ffffffff1660e01b8152600401613472929190614fd0565b600060405180830381600087803b15801561348d5760006000fd5b505af11580156134a2573d600060003e3d6000fd5b505050505b600082604001511115613568577f000000000000000000000000000000000000000000000000000000000000000073ffffffffffffffffffffffffffffffffffffffff1663449a52f87f000000000000000000000000000000000000000000000000000000000000000084604001516040518363ffffffff1660e01b8152600401613533929190614fd0565b600060405180830381600087803b15801561354e5760006000fd5b505af1158015613563573d600060003e3d6000fd5b505050505b600082608001511115613607577f000000000000000000000000000000000000000000000000000000000000000073ffffffffffffffffffffffffffffffffffffffff1663c59fb1ab83608001516040518263ffffffff1660e01b81526004016135d291906152f1565b600060405180830381600087803b1580156135ed5760006000fd5b505af1158015613602573d600060003e3d6000fd5b505050505b8567ffffffffffffffff167fdfc2183705a66b49f12c66a6d3b2fa5cf3b7c67086e9c6e90d144befc94f436c8686600001518760200151886040015189606001516040516136599594939291906153b0565b60405180910390a25050505050505b565b600060007f000000000000000000000000000000000000000000000000000000000000000073ffffffffffffffffffffffffffffffffffffffff16637f250c616040518163ffffffff1660e01b815260040160206040518083038186803b1580156136d55760006000fd5b505afa1580156136ea573d600060003e3d6000fd5b505050506040513d601f19601f8201168201806040525081019061370e9190614cb1565b905060007f000000000000000000000000000000000000000000000000000000000000000073ffffffffffffffffffffffffffffffffffffffff166318160ddd6040518163ffffffff1660e01b815260040160206040518083038186803b1580156137795760006000fd5b505afa15801561378e573d600060003e3d6000fd5b505050506040513d601f19601f820116820180604052508101906137b29190614cb1565b905060008114806137c35750600082145b6137df576137da8282613ae990919063ffffffff16565b6137e9565b670de0b6b3a76400005b925050506137f45650505b90565b60006138128383670de0b6b3a76400006146de63ffffffff16565b905080505b92915050565b600060008573ffffffffffffffffffffffffffffffffffffffff166323b872dd60e01b868686604051602401808473ffffffffffffffffffffffffffffffffffffffff1681526020018373ffffffffffffffffffffffffffffffffffffffff1681526020018281526020019350505050604051602081830303815290604052907bffffffffffffffffffffffffffffffffffffffffffffffffffffffff19166020820180517bffffffffffffffffffffffffffffffffffffffffffffffffffffffff83818316178352505050506040518082805190602001908083835b60208310151561392057805182525b6020820191506020810190506020830392506138fa565b6001836020036101000a0380198251168184511680821785525050505050509050019150506000604051808303816000865af19150503d8060008114613982576040519150601f19603f3d011682016040523d82523d6000602084013e613987565b606091505b50915091508180156139c857506000815114806139c757508080602001905160208110156139b55760006000fd5b81019080805190602001909291905050505b5b1515613a3f576040517f08c379a00000000000000000000000000000000000000000000000000000000081526004018080602001828103825260038152602001807f535446000000000000000000000000000000000000000000000000000000000081526020015060200191505060405180910390fd5b50505b50505050565b600260026000505414151515613ac9576040517f08c379a000000000000000000000000000000000000000000000000000000000815260040180806020018281038252600d8152602001807f4c43205265656e7472616e63790000000000000000000000000000000000000081526020015060200191505060405180910390fd5b600260026000508190909055505b565b600160026000508190909055505b565b6000613b0483670de0b6b3a7640000846146de63ffffffff16565b905080505b92915050565b6000613b2242611b85909063ffffffff16565b905080505b90565b6000613b3a613b0f63ffffffff16565b9050805060007f000000000000000000000000000000000000000000000000000000000000000073ffffffffffffffffffffffffffffffffffffffff1663585690816040518163ffffffff1660e01b815260040160206040518083038186803b158015613ba75760006000fd5b505afa158015613bbc573d600060003e3d6000fd5b505050506040513d601f19601f82011682018060405250810190613be09190614d4c565b905060008167ffffffffffffffff16118015613c0f57508167ffffffffffffffff168167ffffffffffffffff16105b15613c1a5780915081505b505b90565b6000613c9d7f00000000000000000000000000000000000000000000000000000000000000007f000000000000000000000000000000000000000000000000000000000000000067ffffffffffffffff168467ffffffffffffffff16811515613c8457fe5b0467ffffffffffffffff166147df90919063ffffffff16565b905080505b919050565b613caf61487c565b6000849150815060008260a0015167ffffffffffffffff16118015613cd8575060008260400151115b15613da857613cfe8460600151836060015184604001516146de9092919063ffffffff16565b8260400190908181526020015050613da3613d308360a001518567ffffffffffffffff166147df90919063ffffffff16565b67ffffffffffffffff16610e1067ffffffffffffffff16613d94613d6586608001518960200151613e0d90919063ffffffff16565b613d8087600001518a60400151613e0d90919063ffffffff16565b87604001516146de9092919063ffffffff16565b6146de9092919063ffffffff16565b905080505b836060015182606001909081815260200150508360200151826080019090818152602001505083604001518260000190908181526020015050828260a0019067ffffffffffffffff16908167ffffffffffffffff16815260200150505b935093915050565b60008282840391508111151515613e8f576040517f08c379a000000000000000000000000000000000000000000000000000000000815260040180806020018281038252600d8152602001807f7375622d756e646572666c6f770000000000000000000000000000000000000081526020015060200191505060405180910390fd5b5b92915050565b60006000831415613eaa5760009050613fc6565b7fffffffffffffffffffffffffffffffffffffffffffffffffffffffffffffffff83148015613ef857507f800000000000000000000000000000000000000000000000000000000000000082145b151515613f50576040517f08c379a00000000000000000000000000000000000000000000000000000000081526004018080602001828103825260278152602001806154746027913960400191505060405180910390fd5b60008284029050828482811515613f6357fe5b05141515613fbc576040517f08c379a00000000000000000000000000000000000000000000000000000000081526004018080602001828103825260278152602001806154746027913960400191505060405180910390fd5b80915050613fc656505b92915050565b6000828284019150811015151561404e576040517f08c379a000000000000000000000000000000000000000000000000000000000815260040180806020018281038252600c8152602001807f6164642d6f766572666c6f77000000000000000000000000000000000000000081526020015060200191505060405180910390fd5b5b92915050565b60008267ffffffffffffffff1682840191508167ffffffffffffffff16101515156140eb576040517f08c379a000000000000000000000000000000000000000000000000000000000815260040180806020018281038252600c8152602001807f6164642d6f766572666c6f77000000000000000000000000000000000000000081526020015060200191505060405180910390fd5b5b92915050565b60007f000000000000000000000000000000000000000000000000000000000000000073ffffffffffffffffffffffffffffffffffffffff1663d3419bf36040518163ffffffff1660e01b815260040160206040518083038186803b15801561415b5760006000fd5b505afa158015614170573d600060003e3d6000fd5b505050506040513d601f19601f820116820180604052508101906141949190614b00565b73ffffffffffffffffffffffffffffffffffffffff1663fa42dcf4600660009054906101000a900463ffffffff166040518263ffffffff1660e01b81526004016141de9190615351565b60206040518083038186803b1580156141f75760006000fd5b505afa15801561420c573d600060003e3d6000fd5b505050506040513d601f19601f820116820180604052508101906142309190614cb1565b905061424a8360036000505461464090919063ffffffff16565b61425d828461464090919063ffffffff16565b101515156142a0576040517f08c379a000000000000000000000000000000000000000000000000000000000815260040161429790615267565b60405180910390fd5b505b5050565b60008273ffffffffffffffffffffffffffffffffffffffff1682600067ffffffffffffffff811180156142d95760006000fd5b506040519080825280601f01601f19166020018201604052801561430c5781602001600182028036833780820191505090505b506040518082805190602001908083835b60208310151561434357805182525b60208201915060208101905060208303925061431d565b6001836020036101000a03801982511681845116808217855250505050505090500191505060006040518083038185875af1925050503d80600081146143a5576040519150601f19603f3d011682016040523d82523d6000602084013e6143aa565b606091505b50509050801515614426576040517f08c379a00000000000000000000000000000000000000000000000000000000081526004018080602001828103825260038152602001807f535445000000000000000000000000000000000000000000000000000000000081526020015060200191505060405180910390fd5b505b5050565b600061444a61443f613b2a63ffffffff16565b613c1f63ffffffff16565b905080505b90565b61445a614930565b6000851415614491578660000151816000019090818152602001505086606001518160200190908181526020015050809050614636565b60006144d78767ffffffffffffffff16610e1067ffffffffffffffff166301e133808115156144bc57fe5b0467ffffffffffffffff16886146de9092919063ffffffff16565b9050600085614500576144fb82670de0b6b3a7640000613e0d90919063ffffffff16565b61451c565b61451b82670de0b6b3a7640000613fcc90919063ffffffff16565b5b9050614535818a606001516137f790919063ffffffff16565b836020019090818152602001505061456483602001518a606001518b600001516146de9092919063ffffffff16565b83600001909081815260200150508860000151836000015111156145cd576000896000015184600001510390506145a485826137f790919063ffffffff16565b846060019090818152602001505083606001518103846040019090818152602001505050614633565b88600001518360000151101561463257600083600001518a600001510390508581101515614620578960000151846000019090818152602001505089606001518460200190908181526020015050614630565b8084608001909081815260200150505b505b5b50505b9695505050505050565b600060008214806146605750828283850292508281151561465d57fe5b04145b15156146d7576040517f08c379a000000000000000000000000000000000000000000000000000000000815260040180806020018281038252600c8152602001807f6d756c2d6f766572666c6f77000000000000000000000000000000000000000081526020015060200191505060405180910390fd5b5b92915050565b6000600060006000198587098587029250828110838203039150506000811415614721576000841115156147125760006000fd5b838204925082925050506147d8565b80841115156147305760006000fd5b60008486880990508281118203915080830392506000858660000316905080860495508084049350600181826000030401905080830284179350835060006002876003021890508087026002038102905080508087026002038102905080508087026002038102905080508087026002038102905080508087026002038102905080508087026002038102905080508085029550855085955050505050506147d85650505050505b9392505050565b60008267ffffffffffffffff1682840391508167ffffffffffffffff1611151515614875576040517f08c379a000000000000000000000000000000000000000000000000000000000815260040180806020018281038252600d8152602001807f7375622d756e646572666c6f770000000000000000000000000000000000000081526020015060200191505060405180910390fd5b5b92915050565b604051806101a001604052806000815260200160008152602001600081526020016000815260200160008152602001600067ffffffffffffffff168152602001600067ffffffffffffffff168152602001600060020b8152602001600015158152602001600067ffffffffffffffff168152602001600063ffffffff168152602001600073ffffffffffffffffffffffffffffffffffffffff168152602001600067ffffffffffffffff1681526020015090565b6040518060a001604052806000815260200160008152602001600081526020016000815260200160008152602001509056615472565b60008151905061497581615413565b5b919050565b600081519050801515811415156149925760006000fd5b5b919050565b6000815190508060020b811415156149b05760006000fd5b5b919050565b6000815190506149c58161543c565b5b919050565b6000815190506149da81615455565b5b919050565b6000602082840312156149f1578081fd5b81516149fc81615413565b809150505b92915050565b60006000600060408486031215614a1c578182fd5b833567ffffffffffffffff80821115614a33578384fd5b818601915086601f8301121515614a48578384fd5b813581811115614a56578485fd5b876020602083028501011115614a6a578485fd5b6020830195508094505050506020840135614a848161543c565b809150505b9250925092565b600060208284031215614aa1578081fd5b614aaa8261497b565b90505b92915050565b600060208284031215614ac4578081fd5b81357fffffffff00000000000000000000000000000000000000000000000000000000811681141515614af5578182fd5b809150505b92915050565b600060208284031215614b11578081fd5b8151614b1c81615413565b809150505b92915050565b600060208284031215614b38578081fd5b8151614b4381615413565b809150505b92915050565b60006101a0808385031215614b61578182fd5b614b6a816153e8565b90508251815260208301516020820152604083015160408201526060830151606082015260808301516080820152614ba460a084016149cb565b60a0820152614bb560c084016149cb565b60c0820152614bc660e08401614998565b60e0820152610100614bd981850161497b565b8183015250610120614bec8185016149cb565b8183015250610140614bff8185016149b6565b8183015250610160614c12818501614966565b8183015250610180614c258185016149cb565b8183015250809150505b92915050565b600060808284031215614c46578081fd5b6040516080810181811067ffffffffffffffff82111715614c6357fe5b806040525082518152602083015160208201526040830151604082015260608301516060820152809150505b92915050565b600060208284031215614ca6578081fd5b813590505b92915050565b600060208284031215614cc2578081fd5b815190505b92915050565b6000600060408385031215614ce0578182fd5b823591506020830135614cf28161543c565b809150505b9250929050565b600060208284031215614d0f578081fd5b8135614d1a8161543c565b809150505b92915050565b600060208284031215614d36578081fd5b8135614d4181615455565b809150505b92915050565b600060208284031215614d5d578081fd5b8151614d6881615455565b809150505b92915050565b600060006000600060808587031215614d8a578182fd5b8435614d9581615455565b8094505060208501359250604085013591506060850135614db58161543c565b809150505b92959194509250565b73ffffffffffffffffffffffffffffffffffffffff811682525b5050565b80151582525b5050565b8060020b82525b5050565b805182526020810151602083015260408101516040830152606081015160608301526080810151608083015260a0810151614e3460a0840182614ed7565b5060c0810151614e4760c0840182614ed7565b5060e0810151614e5a60e0840182614deb565b5061010080820151614e6e82850182614de1565b505061012080820151614e8382850182614ed7565b505061014080820151614e9882850182614ec9565b505061016080820151614ead82850182614dc3565b505061018080820151614ec282850182614ed7565b50505b5050565b63ffffffff811682525b5050565b67ffffffffffffffff811682525b5050565b600060208201905073ffffffffffffffffffffffffffffffffffffffff831682525b92915050565b600060208201905073ffffffffffffffffffffffffffffffffffffffff831682525b92915050565b600060408201905073ffffffffffffffffffffffffffffffffffffffff841682528260208301525b9392505050565b600060408201905073ffffffffffffffffffffffffffffffffffffffff841682528260208301525b9392505050565b600060408201905073ffffffffffffffffffffffffffffffffffffffff8416825267ffffffffffffffff831660208301525b9392505050565b600060408201905073ffffffffffffffffffffffffffffffffffffffff841682528260208301525b9392505050565b600060208201905082151582525b92915050565b600060208201905073ffffffffffffffffffffffffffffffffffffffff831682525b92915050565b600060208201905073ffffffffffffffffffffffffffffffffffffffff831682525b92915050565b600060208201905073ffffffffffffffffffffffffffffffffffffffff831682525b92915050565b600060208201905073ffffffffffffffffffffffffffffffffffffffff831682525b92915050565b600060208201905073ffffffffffffffffffffffffffffffffffffffff831682525b92915050565b60006101c08201905067ffffffffffffffff841682526150fe6020830184614df6565b5b9392505050565b600060208252600f60208301527f4e6f20666c61736820626f72726f77000000000000000000000000000000000060408301526060820190505b919050565b600060208252600460208301527f4e6f6f700000000000000000000000000000000000000000000000000000000060408301526060820190505b919050565b600060208252601360208301527f4d7573742061646420636f6c6c61746572616c0000000000000000000000000060408301526060820190505b919050565b600060208252602360208301527f43616e7420696e637265617365202620646563726561736520636f6c6c61746560408301527f72616c000000000000000000000000000000000000000000000000000000000060608301526080820190505b919050565b600060208252601260208301527f506f736974696f6e20746f6f20736d616c6c000000000000000000000000000060408301526060820190505b919050565b600060208252601760208301527f496e73756666696369656e7420636f6c6c61746572616c00000000000000000060408301526060820190505b919050565b60006101a0820190506152b98284614df6565b5b92915050565b6000608082019050825182526020830151602083015260408301516040830152606083015160608301525b92915050565b60006020820190508282525b92915050565b60006040820190508382528260208301525b9392505050565b600060c0820190508782528660208301528560408301528460608301528360808301528260a08301525b979650505050505050565b600060208201905063ffffffff831682525b92915050565b600060208201905067ffffffffffffffff831682525b92915050565b60006101c08201905067ffffffffffffffff841682526153a86020830184614df6565b5b9392505050565b600060a08201905067ffffffffffffffff871682528560208301528460408301528360608301528260808301525b9695505050505050565b6000604051905081810181811067ffffffffffffffff8211171561540857fe5b80604052505b919050565b73ffffffffffffffffffffffffffffffffffffffff8116811415156154385760006000fd5b5b50565b63ffffffff8116811415156154515760006000fd5b5b50565b67ffffffffffffffff81168114151561546e5760006000fd5b5b50565bfe5369676e6564536166654d6174683a206d756c7469706c69636174696f6e206f766572666c6f77a2646970667358221220bb93a262b404d7193112f50b70f1443789bf5b6b4a95a605f2470f661a8ba13764736f6c63430007060033",
  "linkReferences": {},
  "deployedLinkReferences": {}
}