{
  "_format": "hh-sol-artifact-1",
  "contractName": "Market",
  "sourceName": "contracts/core/logic/Market.sol",
  "abi": [
    {
      "inputs": [
        {
          "components": [
            {
              "internalType": "contract IGovernor",
              "name": "Governor",
              "type": "address"
            },
            {
              "internalType": "contract IProtocolLock",
              "name": "ProtocolLock",
              "type": "address"
            },
            {
              "internalType": "contract IPositionNFT",
              "name": "HuePositionNFT",
              "type": "address"
            },
            {
              "internalType": "contract IHue",
              "name": "Hue",
              "type": "address"
            },
            {
              "internalType": "contract ILendHue",
              "name": "LendHue",
              "type": "address"
            },
            {
              "internalType": "contract IAccounting",
              "name": "Accounting",
              "type": "address"
            }
          ],
          "internalType": "struct IMarket.ConstructorParams",
          "name": "params",
          "type": "tuple"
        }
      ],
      "stateMutability": "nonpayable",
      "type": "constructor"
    },
    {
      "anonymous": false,
      "inputs": [
        {
          "indexed": false,
          "internalType": "uint256",
          "name": "requirement",
          "type": "uint256"
        }
      ],
      "name": "CollateralizationRequirementUpdated",
      "type": "event"
    },
    {
      "anonymous": false,
      "inputs": [
        {
          "indexed": true,
          "internalType": "uint64",
          "name": "period",
          "type": "uint64"
        },
        {
          "indexed": false,
          "internalType": "uint64",
          "name": "periods",
          "type": "uint64"
        },
        {
          "indexed": false,
          "internalType": "uint256",
          "name": "newDebt",
          "type": "uint256"
        },
        {
          "indexed": false,
          "internalType": "uint256",
          "name": "rewardCount",
          "type": "uint256"
        },
        {
          "indexed": false,
          "internalType": "uint256",
          "name": "cumulativeDebt",
          "type": "uint256"
        },
        {
          "indexed": false,
          "internalType": "uint256",
          "name": "debtExchangeRate",
          "type": "uint256"
        }
      ],
      "name": "InterestAccrued",
      "type": "event"
    },
    {
      "anonymous": false,
      "inputs": [
        {
          "indexed": false,
          "internalType": "uint256",
          "name": "percentage",
          "type": "uint256"
        }
      ],
      "name": "InterestPortionToLendersUpdated",
      "type": "event"
    },
    {
      "anonymous": false,
      "inputs": [
        {
          "indexed": true,
          "internalType": "address",
          "name": "account",
          "type": "address"
        },
        {
          "indexed": false,
          "internalType": "uint256",
          "name": "hueCount",
          "type": "uint256"
        },
        {
          "indexed": false,
          "internalType": "uint256",
          "name": "lendTokenCount",
          "type": "uint256"
        }
      ],
      "name": "Lend",
      "type": "event"
    },
    {
      "anonymous": false,
      "inputs": [
        {
          "indexed": false,
          "internalType": "uint256",
          "name": "size",
          "type": "uint256"
        }
      ],
      "name": "MinPositionSizeUpdated",
      "type": "event"
    },
    {
      "anonymous": false,
      "inputs": [
        {
          "indexed": true,
          "internalType": "uint64",
          "name": "positionID",
          "type": "uint64"
        },
        {
          "indexed": false,
          "internalType": "uint256",
          "name": "debtIncrease",
          "type": "uint256"
        },
        {
          "indexed": false,
          "internalType": "uint256",
          "name": "debtDecrease",
          "type": "uint256"
        },
        {
          "indexed": false,
          "internalType": "uint256",
          "name": "collateralIncrease",
          "type": "uint256"
        },
        {
          "indexed": false,
          "internalType": "uint256",
          "name": "collateralDecrease",
          "type": "uint256"
        },
        {
          "indexed": false,
          "internalType": "uint256",
          "name": "newDebt",
          "type": "uint256"
        },
        {
          "indexed": false,
          "internalType": "uint256",
          "name": "newCollateral",
          "type": "uint256"
        }
      ],
      "name": "PositionAdjusted",
      "type": "event"
    },
    {
      "anonymous": false,
      "inputs": [
        {
          "indexed": true,
          "internalType": "address",
          "name": "creator",
          "type": "address"
        },
        {
          "indexed": true,
          "internalType": "uint64",
          "name": "positionID",
          "type": "uint64"
        },
        {
          "indexed": false,
          "internalType": "uint256",
          "name": "initialDebt",
          "type": "uint256"
        }
      ],
      "name": "PositionCreated",
      "type": "event"
    },
    {
      "anonymous": false,
      "inputs": [
        {
          "indexed": true,
          "internalType": "uint256",
          "name": "positionID",
          "type": "uint256"
        },
        {
          "indexed": true,
          "internalType": "uint64",
          "name": "period",
          "type": "uint64"
        },
        {
          "indexed": false,
          "internalType": "uint256",
          "name": "debtAfter",
          "type": "uint256"
        },
        {
          "indexed": false,
          "internalType": "uint256",
          "name": "tcpRewards",
          "type": "uint256"
        }
      ],
      "name": "PositionUpdated",
      "type": "event"
    },
    {
      "anonymous": false,
      "inputs": [
        {
          "indexed": true,
          "internalType": "address",
          "name": "account",
          "type": "address"
        },
        {
          "indexed": true,
          "internalType": "bool",
          "name": "isKickback",
          "type": "bool"
        },
        {
          "indexed": false,
          "internalType": "uint256",
          "name": "tcpRewards",
          "type": "uint256"
        }
      ],
      "name": "RewardsDistributed",
      "type": "event"
    },
    {
      "anonymous": false,
      "inputs": [],
      "name": "Stopped",
      "type": "event"
    },
    {
      "anonymous": false,
      "inputs": [
        {
          "indexed": false,
          "internalType": "uint32",
          "name": "duration",
          "type": "uint32"
        }
      ],
      "name": "TwapDurationUpdated",
      "type": "event"
    },
    {
      "anonymous": false,
      "inputs": [
        {
          "indexed": true,
          "internalType": "address",
          "name": "account",
          "type": "address"
        },
        {
          "indexed": false,
          "internalType": "uint256",
          "name": "hueCount",
          "type": "uint256"
        },
        {
          "indexed": false,
          "internalType": "uint256",
          "name": "lendTokenCount",
          "type": "uint256"
        }
      ],
      "name": "Unlend",
      "type": "event"
    },
    {
      "inputs": [],
      "name": "accounting",
      "outputs": [
        {
          "internalType": "contract IAccounting",
          "name": "",
          "type": "address"
        }
      ],
      "stateMutability": "view",
      "type": "function"
    },
    {
      "inputs": [],
      "name": "accrueInterest",
      "outputs": [],
      "stateMutability": "nonpayable",
      "type": "function"
    },
    {
      "inputs": [
        {
          "internalType": "uint64",
          "name": "positionID",
          "type": "uint64"
        },
        {
          "internalType": "int256",
          "name": "debtChange",
          "type": "int256"
        },
        {
          "internalType": "uint256",
          "name": "collateralDecrease",
          "type": "uint256"
        },
        {
          "internalType": "uint32",
          "name": "ui",
          "type": "uint32"
        }
      ],
      "name": "adjustPosition",
      "outputs": [],
      "stateMutability": "payable",
      "type": "function"
    },
    {
      "inputs": [
        {
          "internalType": "uint64[]",
          "name": "positionIDs",
          "type": "uint64[]"
        },
        {
          "internalType": "uint32",
          "name": "ui",
          "type": "uint32"
        }
      ],
      "name": "claimAllRewards",
      "outputs": [],
      "stateMutability": "nonpayable",
      "type": "function"
    },
    {
      "inputs": [],
      "name": "collateralizationRequirement",
      "outputs": [
        {
          "internalType": "uint256",
          "name": "",
          "type": "uint256"
        }
      ],
      "stateMutability": "view",
      "type": "function"
    },
    {
      "inputs": [
        {
          "internalType": "uint256",
          "name": "initialDebt",
          "type": "uint256"
        },
        {
          "internalType": "uint32",
          "name": "ui",
          "type": "uint32"
        }
      ],
      "name": "createPosition",
      "outputs": [
        {
          "internalType": "uint64",
          "name": "positionID",
          "type": "uint64"
        }
      ],
      "stateMutability": "payable",
      "type": "function"
    },
    {
      "inputs": [],
      "name": "currentPeriod",
      "outputs": [
        {
          "internalType": "uint64",
          "name": "period",
          "type": "uint64"
        }
      ],
      "stateMutability": "view",
      "type": "function"
    },
    {
      "inputs": [],
      "name": "deployer",
      "outputs": [
        {
          "internalType": "address",
          "name": "",
          "type": "address"
        }
      ],
      "stateMutability": "view",
      "type": "function"
    },
    {
      "inputs": [],
      "name": "firstPeriod",
      "outputs": [
        {
          "internalType": "uint64",
          "name": "",
          "type": "uint64"
        }
      ],
      "stateMutability": "view",
      "type": "function"
    },
    {
      "inputs": [],
      "name": "governor",
      "outputs": [
        {
          "internalType": "contract IGovernor",
          "name": "",
          "type": "address"
        }
      ],
      "stateMutability": "view",
      "type": "function"
    },
    {
      "inputs": [],
      "name": "hue",
      "outputs": [
        {
          "internalType": "contract IHue",
          "name": "",
          "type": "address"
        }
      ],
      "stateMutability": "view",
      "type": "function"
    },
    {
      "inputs": [],
      "name": "huePositionNFT",
      "outputs": [
        {
          "internalType": "contract IPositionNFT",
          "name": "",
          "type": "address"
        }
      ],
      "stateMutability": "view",
      "type": "function"
    },
    {
      "inputs": [],
      "name": "init",
      "outputs": [],
      "stateMutability": "nonpayable",
      "type": "function"
    },
    {
      "inputs": [],
      "name": "interestPortionToLenders",
      "outputs": [
        {
          "internalType": "uint256",
          "name": "",
          "type": "uint256"
        }
      ],
      "stateMutability": "view",
      "type": "function"
    },
    {
      "inputs": [],
      "name": "lastPeriodGlobalInterestAccrued",
      "outputs": [
        {
          "internalType": "uint64",
          "name": "",
          "type": "uint64"
        }
      ],
      "stateMutability": "view",
      "type": "function"
    },
    {
      "inputs": [
        {
          "internalType": "uint256",
          "name": "hueCount",
          "type": "uint256"
        }
      ],
      "name": "lend",
      "outputs": [],
      "stateMutability": "nonpayable",
      "type": "function"
    },
    {
      "inputs": [],
      "name": "lendHue",
      "outputs": [
        {
          "internalType": "contract ILendHue",
          "name": "",
          "type": "address"
        }
      ],
      "stateMutability": "view",
      "type": "function"
    },
    {
      "inputs": [],
      "name": "minPositionSize",
      "outputs": [
        {
          "internalType": "uint256",
          "name": "",
          "type": "uint256"
        }
      ],
      "stateMutability": "view",
      "type": "function"
    },
    {
      "inputs": [],
      "name": "periodLength",
      "outputs": [
        {
          "internalType": "uint64",
          "name": "",
          "type": "uint64"
        }
      ],
      "stateMutability": "view",
      "type": "function"
    },
    {
      "inputs": [
        {
          "internalType": "uint64",
          "name": "positionID",
          "type": "uint64"
        }
      ],
      "name": "removeKickback",
      "outputs": [],
      "stateMutability": "nonpayable",
      "type": "function"
    },
    {
      "inputs": [
        {
          "internalType": "uint256",
          "name": "requirement",
          "type": "uint256"
        }
      ],
      "name": "setCollateralizationRequirement",
      "outputs": [],
      "stateMutability": "nonpayable",
      "type": "function"
    },
    {
      "inputs": [
        {
          "internalType": "uint256",
          "name": "percentage",
          "type": "uint256"
        }
      ],
      "name": "setInterestPortionToLenders",
      "outputs": [],
      "stateMutability": "nonpayable",
      "type": "function"
    },
    {
      "inputs": [
        {
          "internalType": "uint256",
          "name": "size",
          "type": "uint256"
        }
      ],
      "name": "setMinPositionSize",
      "outputs": [],
      "stateMutability": "nonpayable",
      "type": "function"
    },
    {
      "inputs": [
        {
          "internalType": "uint32",
          "name": "duration",
          "type": "uint32"
        }
      ],
      "name": "setTwapDuration",
      "outputs": [],
      "stateMutability": "nonpayable",
      "type": "function"
    },
    {
      "inputs": [],
      "name": "stop",
      "outputs": [],
      "stateMutability": "nonpayable",
      "type": "function"
    },
    {
      "inputs": [],
      "name": "stopped",
      "outputs": [
        {
          "internalType": "bool",
          "name": "",
          "type": "bool"
        }
      ],
      "stateMutability": "view",
      "type": "function"
    },
    {
      "inputs": [
        {
          "internalType": "uint64",
          "name": "positionID",
          "type": "uint64"
        }
      ],
      "name": "systemGetUpdatedPosition",
      "outputs": [
        {
          "components": [
            {
              "internalType": "uint256",
              "name": "startCumulativeDebt",
              "type": "uint256"
            },
            {
              "internalType": "uint256",
              "name": "collateral",
              "type": "uint256"
            },
            {
              "internalType": "uint256",
              "name": "debt",
              "type": "uint256"
            },
            {
              "internalType": "uint256",
              "name": "startDebtExchangeRate",
              "type": "uint256"
            },
            {
              "internalType": "uint256",
              "name": "startTCPRewards",
              "type": "uint256"
            },
            {
              "internalType": "uint64",
              "name": "lastTimeUpdated",
              "type": "uint64"
            },
            {
              "internalType": "uint64",
              "name": "lastBorrowTime",
              "type": "uint64"
            },
            {
              "internalType": "int24",
              "name": "tick",
              "type": "int24"
            },
            {
              "internalType": "bool",
              "name": "tickSet",
              "type": "bool"
            },
            {
              "internalType": "uint64",
              "name": "tickIndex",
              "type": "uint64"
            },
            {
              "internalType": "uint32",
              "name": "ui",
              "type": "uint32"
            },
            {
              "internalType": "address",
              "name": "kickbackDestination",
              "type": "address"
            },
            {
              "internalType": "uint64",
              "name": "kickbackPortion",
              "type": "uint64"
            }
          ],
          "internalType": "struct IAccounting.DebtPosition",
          "name": "",
          "type": "tuple"
        }
      ],
      "stateMutability": "nonpayable",
      "type": "function"
    },
    {
      "inputs": [],
      "name": "twapDuration",
      "outputs": [
        {
          "internalType": "uint32",
          "name": "",
          "type": "uint32"
        }
      ],
      "stateMutability": "view",
      "type": "function"
    },
    {
      "inputs": [
        {
          "internalType": "uint256",
          "name": "lendTokenCount",
          "type": "uint256"
        }
      ],
      "name": "unlend",
      "outputs": [],
      "stateMutability": "nonpayable",
      "type": "function"
    },
    {
      "inputs": [
        {
          "internalType": "bytes4",
          "name": "",
          "type": "bytes4"
        }
      ],
      "name": "validUpdate",
      "outputs": [
        {
          "internalType": "bool",
          "name": "",
          "type": "bool"
        }
      ],
      "stateMutability": "view",
      "type": "function"
    },
    {
      "inputs": [
        {
          "internalType": "uint256",
          "name": "lendTokenCount",
          "type": "uint256"
        }
      ],
      "name": "valueOfLendTokensInHue",
      "outputs": [
        {
          "internalType": "uint256",
          "name": "",
          "type": "uint256"
        }
      ],
      "stateMutability": "view",
      "type": "function"
    }
  ],
  "bytecode": "0x610180604052600160026000509090556714d1120d7b160000600360005090905568056bc75e2d6310000060046000509090556702c68af0bb1400006005600050909055610708600660006101000a81548163ffffffff021916908363ffffffff160217905550348015620000745760006000fd5b506040516200605d3803806200605d83398181016040528101906200009a91906200059b565b5b610e105b816000015182602001515b815b8073ffffffffffffffffffffffffffffffffffffffff1660808173ffffffffffffffffffffffffffffffffffffffff1660601b815260140150505b508073ffffffffffffffffffffffffffffffffffffffff1660a08173ffffffffffffffffffffffffffffffffffffffff1660601b815260140150505b505060018162000138620004ef60201b60201c565b62000144919062000697565b620001509190620006d0565b67ffffffffffffffff1660e08167ffffffffffffffff1660c01b815260080150508067ffffffffffffffff1660c08167ffffffffffffffff1660c01b815260080150505b50806040015173ffffffffffffffffffffffffffffffffffffffff166101008173ffffffffffffffffffffffffffffffffffffffff1660601b81526014015050806060015173ffffffffffffffffffffffffffffffffffffffff166101208173ffffffffffffffffffffffffffffffffffffffff1660601b81526014015050806080015173ffffffffffffffffffffffffffffffffffffffff166101408173ffffffffffffffffffffffffffffffffffffffff1660601b815260140150508060a0015173ffffffffffffffffffffffffffffffffffffffff166101608173ffffffffffffffffffffffffffffffffffffffff1660601b815260140150506000604051806080016040528063ef5e1cac60e01b7bffffffffffffffffffffffffffffffffffffffffffffffffffffffff19167bffffffffffffffffffffffffffffffffffffffffffffffffffffffff1916815260200163c433c80a60e01b7bffffffffffffffffffffffffffffffffffffffffffffffffffffffff19167bffffffffffffffffffffffffffffffffffffffffffffffffffffffff191681526020016306972dcd60e01b7bffffffffffffffffffffffffffffffffffffffffffffffffffffffff19167bffffffffffffffffffffffffffffffffffffffffffffffffffffffff19168152602001635a6127a960e01b7bffffffffffffffffffffffffffffffffffffffffffffffffffffffff19167bffffffffffffffffffffffffffffffffffffffffffffffffffffffff191681526020015090506000600090505b81506004811015620004a457600160016000506000848460048110151562000425577f4e487b7100000000000000000000000000000000000000000000000000000000600052603260045260246000fd5b60200201517bffffffffffffffffffffffffffffffffffffffffffffffffffffffff19167bffffffffffffffffffffffffffffffffffffffffffffffffffffffff1916815260200190815260200160002060006101000a81548160ff0219169083151502179055505b80806200049b9062000704565b915050620003d4565b50336006600c6101000a81548173ffffffffffffffffffffffffffffffffffffffff021916908373ffffffffffffffffffffffffffffffffffffffff160217905550505b5062000741565b600062000509426200051160201b62001bb817909060201c565b905080505b90565b6000680100000000000000008210151562000563576040517f08c379a00000000000000000000000000000000000000000000000000000000081526004016200055a9062000658565b60405180910390fd5b8190506200056c565b9190505662000740565b6000815190506001600160a01b03811681141515620005955760006000fd5b5b919050565b600060c08284031215620005ad578081fd5b60405160c081018181106001600160401b0382111715620005dc57634e487b7160e01b83526041600452602483fd5b8060405250620005ec8362000576565b8152620005fc6020840162000576565b60208201526200060f6040840162000576565b6040820152620006226060840162000576565b6060820152620006356080840162000576565b60808201526200064860a0840162000576565b60a0820152809150505b92915050565b60208152601160208201527f6d6f7265207468616e2036342062697473000000000000000000000000000000604082015260006060820190505b919050565b60006001600160401b03808416801515620006c057634e487b7160e01b83526012600452602483fd5b8082851604925050505b92915050565b60006001600160401b03808316818516915081811015620006f657620006f562000728565b5b818103925050505b92915050565b60006000198214156200071c576200071b62000728565b5b6001820190505b919050565b634e487b7160e01b600052601160045260246000fd5b565b5b60805160601c60a05160601c60c05160c01c60e05160c01c6101005160601c6101205160601c6101405160601c6101605160601c61572b62000932600039600081816108c201528181610d7001528181610e6f01528181610ef801528181610faa01528181611205015281816112db015281816115830152818161163301528181611786015281816119af01528181611a86015281816120c9015281816126b00152818161280f0152818161298401528181612b5101528181612b8801528181612d2f0152818161319201528181613255015281816133220152613561015260008181610833015281816109cd01528181610fd70152613605015260008181610bd601528181610f8801528181612a1c01528181612ab501528181612f7c015281816132e6015281816133a7015281816133e30152613468015260008181610a5401528181610ca8015281816110fa0152818161113d01528181611547015281816118e9015261231501526000818161142501528181611c18015261394601526000818161144901528181611c390152613967015260008181611d2e0152611eb30152600081816107a4015281816116ed01528181611c8701528181611f460152818161220f015281816123c201528181612dd30152818161305a015281816138620152613b89015261572b6000f3fe6080604052600436106101dc5760003560e01c8063a6aa57ce11610102578063d2ca211511610095578063eb6843ce11610064578063eb6843ce14610656578063ed92182f14610694578063ef5e1cac146106be578063f6979f29146106e8576101dc565b8063d2ca2115146105a8578063d5f39488146105d4578063e11c876214610600578063e1c7392a1461063e576101dc565b8063b6ae213a116100d1578063b6ae213a146104fa578063bb8313c214610526578063c433c80a14610552578063c4e3a63b1461057c576101dc565b8063a6aa57ce14610462578063a6afed951461048c578063a89f51ae146104a4578063b2326b57146104d0576101dc565b80632cae02691161017a5780635a6127a9116101495780635a6127a9146103c457806375f12b21146103ee5780637b809bdd1461041a5780639624e83e14610436576101dc565b80632cae0269146103105780632e6c6f841461033c578063323741741461036c5780635658c01214610398576101dc565b80630c340a24116101b65780630c340a2414610250578063113cf1ab1461027c578063197b1bf5146102ba57806326d89545146102e4576101dc565b806306040618146101e257806306972dcd1461020e57806307da68f514610238576101dc565b60006000fd5b3480156101ef5760006000fd5b506101f8610714565b60405161020591906152f4565b60405180910390f35b34801561021b5760006000fd5b50610236600480360381019061023191906148c9565b61072c565b005b3480156102455760006000fd5b5061024e610782565b005b34801561025d5760006000fd5b506102666107a2565b6040516102739190614c71565b60405180910390f35b3480156102895760006000fd5b506102a4600480360381019061029f91906146c0565b6107c6565b6040516102b19190614c35565b60405180910390f35b3480156102c75760006000fd5b506102e260048036038101906102dd91906148c9565b6107eb565b005b3480156102f15760006000fd5b506102fa6109b5565b60405161030791906152dc565b60405180910390f35b34801561031d5760006000fd5b506103266109cb565b6040516103339190614cc1565b60405180910390f35b61035660048036038101906103519190614901565b6109ef565b60405161036391906152f4565b60405180910390f35b3480156103795760006000fd5b50610382610bd4565b60405161038f9190614c99565b60405180910390f35b3480156103a55760006000fd5b506103ae610bf8565b6040516103bb919061527c565b60405180910390f35b3480156103d15760006000fd5b506103ec60048036038101906103e791906148c9565b610c01565b005b3480156103fb5760006000fd5b50610404610c74565b6040516104119190614c35565b60405180910390f35b610434600480360381019061042f91906149a7565b610c87565b005b3480156104435760006000fd5b5061044c610e6d565b6040516104599190614c49565b60405180910390f35b34801561046f5760006000fd5b5061048a600480360381019061048591906148c9565b610e91565b005b3480156104995760006000fd5b506104a26110ca565b005b3480156104b15760006000fd5b506104ba6110f8565b6040516104c79190614ce9565b60405180910390f35b3480156104dd5760006000fd5b506104f860048036038101906104f39190614959565b61111c565b005b3480156105075760006000fd5b5061051061137d565b60405161051d91906152f4565b60405180910390f35b3480156105335760006000fd5b5061053c611397565b604051610549919061527c565b60405180910390f35b34801561055f5760006000fd5b5061057a60048036038101906105759190614932565b6113a0565b005b3480156105895760006000fd5b50610592611423565b60405161059f91906152f4565b60405180910390f35b3480156105b55760006000fd5b506105be611447565b6040516105cb91906152f4565b60405180910390f35b3480156105e15760006000fd5b506105ea61146b565b6040516105f79190614b3c565b60405180910390f35b34801561060d5760006000fd5b50610628600480360381019061062391906148c9565b611491565b604051610635919061527c565b60405180910390f35b34801561064b5760006000fd5b506106546114bf565b005b3480156106635760006000fd5b5061067e60048036038101906106799190614959565b6116d5565b60405161068b9190615231565b60405180910390f35b3480156106a15760006000fd5b506106bc60048036038101906106b79190614614565b611856565b005b3480156106cb5760006000fd5b506106e660048036038101906106e191906148c9565b611b41565b005b3480156106f55760006000fd5b506106fe611baf565b60405161070b919061527c565b60405180910390f35b6000610724611c1463ffffffff16565b905080505b90565b61073a611c8263ffffffff16565b8060046000508190909055507f113d15441cef41c1a48eb1bc2c6fa7b881b201a5c4b2913272f80defe12ce3c381604051610775919061527c565b60405180910390a15b5b50565b610790611c8263ffffffff16565b61079e611ce263ffffffff16565b5b5b565b7f000000000000000000000000000000000000000000000000000000000000000081565b600160005060205280600052604060002060009150909054906101000a900460ff1681565b6107f9611d2c63ffffffff16565b610807611e0963ffffffff16565b61081960008211611e5e63ffffffff16565b6000339050600061082f8361149163ffffffff16565b90507f000000000000000000000000000000000000000000000000000000000000000073ffffffffffffffffffffffffffffffffffffffff166379cc679083856040518363ffffffff1660e01b815260040161088c929190614bcd565b600060405180830381600087803b1580156108a75760006000fd5b505af11580156108bc573d600060003e3d6000fd5b505050507f000000000000000000000000000000000000000000000000000000000000000073ffffffffffffffffffffffffffffffffffffffff1663b241bbac83836040518363ffffffff1660e01b815260040161091b929190614bcd565b600060405180830381600087803b1580156109365760006000fd5b505af115801561094b573d600060003e3d6000fd5b505050508173ffffffffffffffffffffffffffffffffffffffff167fefc56a1a7590fc4eb13cd40b6a2ceee41f3869c6ea818d20d9a18f2d6315ca18828560405161099792919061528e565b60405180910390a250505b5b6109b1611ea463ffffffff16565b5b50565b600660009054906101000a900463ffffffff1681565b7f000000000000000000000000000000000000000000000000000000000000000081565b60006109ff611d2c63ffffffff16565b610a0d611f3663ffffffff16565b600034111515610a52576040517f08c379a0000000000000000000000000000000000000000000000000000000008152600401610a4990614fae565b60405180910390fd5b7f000000000000000000000000000000000000000000000000000000000000000073ffffffffffffffffffffffffffffffffffffffff1663755edd17336040518263ffffffff1660e01b8152600401610aab9190614b3c565b602060405180830381600087803b158015610ac65760006000fd5b505af1158015610adb573d600060003e3d6000fd5b505050506040513d601f19601f82011682018060405250810190610aff9190614980565b90508050610b0b614489565b8281610140019063ffffffff16908163ffffffff1681526020015050610b63610b448367ffffffffffffffff168361202963ffffffff16565b83610b56876124f7909063ffffffff16565b600061256a63ffffffff16565b8167ffffffffffffffff163373ffffffffffffffffffffffffffffffffffffffff167f24c9bb74341922446798a07669f56d3efec500a78e81429643958e7a42cb6b1286604051610bb4919061527c565b60405180910390a3505b5b610bcd611ea463ffffffff16565b5b92915050565b7f000000000000000000000000000000000000000000000000000000000000000081565b60036000505481565b610c0f611c8263ffffffff16565b806005600050819090905550670de0b6b3a764000060056000505411151515610c385760006000fd5b7f95c718270dc047bb0f84e533ee71ed5ee3961f14be924c0e493ba6e1ff078ae281604051610c67919061527c565b60405180910390a15b5b50565b600060009054906101000a900460ff1681565b610c95611d2c63ffffffff16565b610ca3611f3663ffffffff16565b610d5e7f000000000000000000000000000000000000000000000000000000000000000073ffffffffffffffffffffffffffffffffffffffff1663430c208133876040518363ffffffff1660e01b8152600401610d01929190614bfc565b60206040518083038186803b158015610d1a5760006000fd5b505afa158015610d2f573d600060003e3d6000fd5b505050506040513d601f19601f82011682018060405250810190610d53919061469d565b612c7463ffffffff16565b6000610e258567ffffffffffffffff167f000000000000000000000000000000000000000000000000000000000000000073ffffffffffffffffffffffffffffffffffffffff16630f85fc5a886040518263ffffffff1660e01b8152600401610dc791906152f4565b6101a06040518083038186803b158015610de15760006000fd5b505afa158015610df6573d600060003e3d6000fd5b505050506040513d601f19601f82011682018060405250810190610e1a919061475b565b61202963ffffffff16565b90508181610140019063ffffffff16908163ffffffff1681526020015050610e558186868661256a63ffffffff16565b505b5b610e66611ea463ffffffff16565b5b50505050565b7f000000000000000000000000000000000000000000000000000000000000000081565b610e9f611d2c63ffffffff16565b610ead611f3663ffffffff16565b610ebf60008211611e5e63ffffffff16565b6000339050610ed2612cba63ffffffff16565b6000610ef4610ee561355b63ffffffff16565b846136e890919063ffffffff16565b90507f000000000000000000000000000000000000000000000000000000000000000073ffffffffffffffffffffffffffffffffffffffff16632c73f09e846040518263ffffffff1660e01b8152600401610f4f919061527c565b600060405180830381600087803b158015610f6a5760006000fd5b505af1158015610f7f573d600060003e3d6000fd5b50505050610fd57f0000000000000000000000000000000000000000000000000000000000000000837f00000000000000000000000000000000000000000000000000000000000000008661370e63ffffffff16565b7f000000000000000000000000000000000000000000000000000000000000000073ffffffffffffffffffffffffffffffffffffffff1663449a52f883836040518363ffffffff1660e01b8152600401611030929190614bcd565b600060405180830381600087803b15801561104b5760006000fd5b505af1158015611060573d600060003e3d6000fd5b505050508173ffffffffffffffffffffffffffffffffffffffff167f8fff79b574da9a93d7a5408c2fc00c4a9b2b462321c1659b2fbbb9ff3dd221ff84836040516110ac92919061528e565b60405180910390a250505b5b6110c6611ea463ffffffff16565b5b50565b6110d861379e63ffffffff16565b6110e6612cba63ffffffff16565b5b6110f56137f963ffffffff16565b5b565b7f000000000000000000000000000000000000000000000000000000000000000081565b61112a611d2c63ffffffff16565b611138611f3663ffffffff16565b6111f37f000000000000000000000000000000000000000000000000000000000000000073ffffffffffffffffffffffffffffffffffffffff1663430c208133846040518363ffffffff1660e01b8152600401611196929190614bfc565b60206040518083038186803b1580156111af5760006000fd5b505afa1580156111c4573d600060003e3d6000fd5b505050506040513d601f19601f820116820180604052508101906111e8919061469d565b612c7463ffffffff16565b60006112ba8267ffffffffffffffff167f000000000000000000000000000000000000000000000000000000000000000073ffffffffffffffffffffffffffffffffffffffff16630f85fc5a856040518263ffffffff1660e01b815260040161125c91906152f4565b6101a06040518083038186803b1580156112765760006000fd5b505afa15801561128b573d600060003e3d6000fd5b505050506040513d601f19601f820116820180604052508101906112af919061475b565b61202963ffffffff16565b9050600081610140019063ffffffff16908163ffffffff16815260200150507f000000000000000000000000000000000000000000000000000000000000000073ffffffffffffffffffffffffffffffffffffffff16635a6beaf483836040518363ffffffff1660e01b8152600401611334929190615310565b600060405180830381600087803b15801561134f5760006000fd5b505af1158015611364573d600060003e3d6000fd5b50505050505b5b611379611ea463ffffffff16565b5b50565b600660049054906101000a900467ffffffffffffffff1681565b60046000505481565b6113ae611c8263ffffffff16565b61012c8163ffffffff16101515156113c65760006000fd5b80600660006101000a81548163ffffffff021916908363ffffffff1602179055507f670aac3910a07dcfe5267c8b0bf2357abdb454e509764d13e94e85ee13c6da208160405161141691906152dc565b60405180910390a15b5b50565b7f000000000000000000000000000000000000000000000000000000000000000081565b7f000000000000000000000000000000000000000000000000000000000000000081565b6006600c9054906101000a900473ffffffffffffffffffffffffffffffffffffffff1681565b60006114b36114a461355b63ffffffff16565b8361380990919063ffffffff16565b90506114ba565b919050565b61151e6006600c9054906101000a900473ffffffffffffffffffffffffffffffffffffffff1673ffffffffffffffffffffffffffffffffffffffff163373ffffffffffffffffffffffffffffffffffffffff1614612c7463ffffffff16565b6006600c6101000a81549073ffffffffffffffffffffffffffffffffffffffff021916905560007f000000000000000000000000000000000000000000000000000000000000000073ffffffffffffffffffffffffffffffffffffffff1663755edd177f00000000000000000000000000000000000000000000000000000000000000006040518263ffffffff1660e01b81526004016115be9190614b3c565b602060405180830381600087803b1580156115d95760006000fd5b505af11580156115ee573d600060003e3d6000fd5b505050506040513d601f19601f820116820180604052508101906116129190614980565b67ffffffffffffffff161415156116295760006000fd5b611631614489565b7f000000000000000000000000000000000000000000000000000000000000000073ffffffffffffffffffffffffffffffffffffffff16635a6beaf4600061168060008561202963ffffffff16565b6040518363ffffffff1660e01b815260040161169d929190614d11565b600060405180830381600087803b1580156116b85760006000fd5b505af11580156116cd573d600060003e3d6000fd5b50505050505b565b6116dd614489565b6116eb61379e63ffffffff16565b7f000000000000000000000000000000000000000000000000000000000000000073ffffffffffffffffffffffffffffffffffffffff16639622cd8f336040518263ffffffff1660e01b81526004016117449190614b3c565b60006040518083038186803b15801561175d5760006000fd5b505afa158015611772573d600060003e3d6000fd5b5050505061183b8267ffffffffffffffff167f000000000000000000000000000000000000000000000000000000000000000073ffffffffffffffffffffffffffffffffffffffff16630f85fc5a856040518263ffffffff1660e01b81526004016117dd91906152f4565b6101a06040518083038186803b1580156117f75760006000fd5b505afa15801561180c573d600060003e3d6000fd5b505050506040513d601f19601f82011682018060405250810190611830919061475b565b61202963ffffffff16565b9050611842565b6118506137f963ffffffff16565b5b919050565b611864611d2c63ffffffff16565b611872611e0963ffffffff16565b6000838390509050611882614489565b60006000600090505b83811015611b275786868281811015156118ce577f4e487b7100000000000000000000000000000000000000000000000000000000600052603260045260246000fd5b90506020020160208101906118e39190614959565b915081507f000000000000000000000000000000000000000000000000000000000000000073ffffffffffffffffffffffffffffffffffffffff1663430c208133846040518363ffffffff1660e01b8152600401611942929190614bfc565b60206040518083038186803b15801561195b5760006000fd5b505afa158015611970573d600060003e3d6000fd5b505050506040513d601f19601f82011682018060405250810190611994919061469d565b151561199f57611b14565b611a648267ffffffffffffffff167f000000000000000000000000000000000000000000000000000000000000000073ffffffffffffffffffffffffffffffffffffffff16630f85fc5a856040518263ffffffff1660e01b8152600401611a0691906152f4565b6101a06040518083038186803b158015611a205760006000fd5b505afa158015611a35573d600060003e3d6000fd5b505050506040513d601f19601f82011682018060405250810190611a59919061475b565b61202963ffffffff16565b925082508483610140019063ffffffff16908163ffffffff16815260200150507f000000000000000000000000000000000000000000000000000000000000000073ffffffffffffffffffffffffffffffffffffffff16635a6beaf483856040518363ffffffff1660e01b8152600401611adf929190615310565b600060405180830381600087803b158015611afa5760006000fd5b505af1158015611b0f573d600060003e3d6000fd5b505050505b8080611b1f906155f4565b91505061188b565b505050505b5b611b3b611ea463ffffffff16565b5b505050565b611b4f611c8263ffffffff16565b806003600050819090905550670de0b6b3a76400008110151515611b735760006000fd5b7f52640f3e2df50709ead28077e905b85df7544c73c32a40259dff3ac35927d5ce81604051611ba2919061527c565b60405180910390a15b5b50565b60056000505481565b60006801000000000000000082101515611c07576040517f08c379a0000000000000000000000000000000000000000000000000000000008152600401611bfe906151f2565b60405180910390fd5b819050611c0f565b919050565b60007f00000000000000000000000000000000000000000000000000000000000000007f0000000000000000000000000000000000000000000000000000000000000000611c6661382f63ffffffff16565b611c70919061543c565b611c7a919061558d565b905080505b90565b611cdf7f000000000000000000000000000000000000000000000000000000000000000073ffffffffffffffffffffffffffffffffffffffff163373ffffffffffffffffffffffffffffffffffffffff1614612c7463ffffffff16565b5b565b6001600060006101000a81548160ff0219169083151502179055507f7acc84e34091ae817647a4c49116f5cc07f319078ba80f8f5fde37ea7e25cbd660405160405180910390a15b565b7f000000000000000000000000000000000000000000000000000000000000000073ffffffffffffffffffffffffffffffffffffffff1663e97dcb626040518163ffffffff1660e01b8152600401600060405180830381600087803b158015611d955760006000fd5b505af1158015611daa573d600060003e3d6000fd5b50505050600260026000505414151515611df9576040517f08c379a0000000000000000000000000000000000000000000000000000000008152600401611df090614f6f565b60405180910390fd5b600260026000508190909055505b565b600060009054906101000a900460ff16151515611e5b576040517f08c379a0000000000000000000000000000000000000000000000000000000008152600401611e52906150d0565b60405180910390fd5b5b565b801515611ea0576040517f08c379a0000000000000000000000000000000000000000000000000000000008152600401611e9790614f30565b60405180910390fd5b5b50565b600160026000508190909055507f000000000000000000000000000000000000000000000000000000000000000073ffffffffffffffffffffffffffffffffffffffff1663e9fad8ee6040518163ffffffff1660e01b8152600401600060405180830381600087803b158015611f1a5760006000fd5b505af1158015611f2f573d600060003e3d6000fd5b505050505b565b611f44611e0963ffffffff16565b7f000000000000000000000000000000000000000000000000000000000000000073ffffffffffffffffffffffffffffffffffffffff1663bf86d6906040518163ffffffff1660e01b815260040160206040518083038186803b158015611fab5760006000fd5b505afa158015611fc0573d600060003e3d6000fd5b505050506040513d601f19601f82011682018060405250810190611fe4919061469d565b151515612026576040517f08c379a000000000000000000000000000000000000000000000000000000000815260040161201d90614d90565b60405180910390fd5b5b565b612031614489565b600061204161384a63ffffffff16565b905060006120548261393f63ffffffff16565b9050600060008560a0015167ffffffffffffffff1614612086576120818560a0015161393f63ffffffff16565b612089565b60005b90508067ffffffffffffffff168267ffffffffffffffff161115156120b3578493505050506124f1565b6120c1612cba63ffffffff16565b6000612173867f000000000000000000000000000000000000000000000000000000000000000073ffffffffffffffffffffffffffffffffffffffff166306ef2d806040518163ffffffff1660e01b815260040160806040518083038186803b15801561212e5760006000fd5b505afa158015612143573d600060003e3d6000fd5b505050506040513d601f19601f82011682018060405250810190612167919061483e565b866139b363ffffffff16565b809250819650505060008111801561218c575060008714155b156124a357600073ffffffffffffffffffffffffffffffffffffffff1685610160015173ffffffffffffffffffffffffffffffffffffffff16141580156121e25750600085610180015167ffffffffffffffff16115b1561231157600061220b86610180015167ffffffffffffffff16836136e890919063ffffffff16565b90507f000000000000000000000000000000000000000000000000000000000000000073ffffffffffffffffffffffffffffffffffffffff16634d6729f5876101600151836040518363ffffffff1660e01b815260040161226d929190614bcd565b600060405180830381600087803b1580156122885760006000fd5b505af115801561229d573d600060003e3d6000fd5b505050506001151586610160015173ffffffffffffffffffffffffffffffffffffffff167f8079a05488a0f375c08504c3ba8b3a1371f5a192b7a141bc9294ef7ad41389d9836040516122f0919061527c565b60405180910390a361230b8183613b1990919063ffffffff16565b91508150505b60007f000000000000000000000000000000000000000000000000000000000000000073ffffffffffffffffffffffffffffffffffffffff16636352211e896040518263ffffffff1660e01b815260040161236c919061527c565b60206040518083038186803b1580156123855760006000fd5b505afa15801561239a573d600060003e3d6000fd5b505050506040513d601f19601f820116820180604052508101906123be91906145ed565b90507f000000000000000000000000000000000000000000000000000000000000000073ffffffffffffffffffffffffffffffffffffffff16634d6729f582846040518363ffffffff1660e01b815260040161241b929190614bcd565b600060405180830381600087803b1580156124365760006000fd5b505af115801561244b573d600060003e3d6000fd5b50505050600015158173ffffffffffffffffffffffffffffffffffffffff167f8079a05488a0f375c08504c3ba8b3a1371f5a192b7a141bc9294ef7ad41389d984604051612499919061527c565b60405180910390a3505b8267ffffffffffffffff16877fc99ac0d15229fa72f1b0756c0eed4e7ede3d80f4e4e0d308ce7a56d1366b8a038760400151846040516124e492919061528e565b60405180910390a3505050505b92915050565b60007f80000000000000000000000000000000000000000000000000000000000000008210151561255d576040517f08c379a000000000000000000000000000000000000000000000000000000000815260040161255490614fed565b60405180910390fd5b819050612565565b919050565b6000349050600060008413612580576000612582565b835b90506000600085126125955760006125c9565b6125c87fffffffffffffffffffffffffffffffffffffffffffffffffffffffffffffffff86613b3490919063ffffffff16565b5b90506000831180156125db5750600084115b15151561261d576040517f08c379a00000000000000000000000000000000000000000000000000000000081526004016126149061502c565b60405180910390fd5b612650600084118061262f5750600085115b8061263a5750600083115b806126455750600082115b611e5e63ffffffff16565b600082111561273c5761266761382f63ffffffff16565b8760c0019067ffffffffffffffff16908167ffffffffffffffff16815260200150506126a0828860400151613b4f90919063ffffffff16565b87604001909081815260200150507f000000000000000000000000000000000000000000000000000000000000000073ffffffffffffffffffffffffffffffffffffffff16632b7c7b11836040518263ffffffff1660e01b8152600401612707919061527c565b600060405180830381600087803b1580156127225760006000fd5b505af1158015612737573d600060003e3d6000fd5b505050505b600081111561289b5761275361382f63ffffffff16565b67ffffffffffffffff1661278d610708610e1061277091906153eb565b8960c0015167ffffffffffffffff16613b6a90919063ffffffff16565b67ffffffffffffffff161015156127d9576040517f08c379a00000000000000000000000000000000000000000000000000000000081526004016127d090614eb2565b60405180910390fd5b80876040015110156127ef578660400151905080505b8087604001818151612801919061556e565b9150909081815260200150507f000000000000000000000000000000000000000000000000000000000000000073ffffffffffffffffffffffffffffffffffffffff16632a7ba1f7826040518263ffffffff1660e01b8152600401612866919061527c565b600060405180830381600087803b1580156128815760006000fd5b505af1158015612896573d600060003e3d6000fd5b505050505b60008311156128ca576128bb838860200151613b4f90919063ffffffff16565b87602001909081815260200150505b60008411156128f9576128ea848860200151613b1990919063ffffffff16565b87602001909081815260200150505b60008760400151111561298257600460005054876040015110151515612954576040517f08c379a000000000000000000000000000000000000000000000000000000000815260040161294b90615091565b60405180910390fd5b60008411806129635750600082115b156129815761298087604001518860200151613b8563ffffffff16565b5b5b7f000000000000000000000000000000000000000000000000000000000000000073ffffffffffffffffffffffffffffffffffffffff16635a6beaf487896040518363ffffffff1660e01b81526004016129dd929190615310565b600060405180830381600087803b1580156129f85760006000fd5b505af1158015612a0d573d600060003e3d6000fd5b505050506000821115612aaa577f000000000000000000000000000000000000000000000000000000000000000073ffffffffffffffffffffffffffffffffffffffff1663449a52f833846040518363ffffffff1660e01b8152600401612a75929190614bcd565b600060405180830381600087803b158015612a905760006000fd5b505af1158015612aa5573d600060003e3d6000fd5b505050505b6000811115612b43577f000000000000000000000000000000000000000000000000000000000000000073ffffffffffffffffffffffffffffffffffffffff166379cc679033836040518363ffffffff1660e01b8152600401612b0e929190614bcd565b600060405180830381600087803b158015612b295760006000fd5b505af1158015612b3e573d600060003e3d6000fd5b505050505b6000831115612b7d57612b7c7f000000000000000000000000000000000000000000000000000000000000000084613d3963ffffffff16565b5b6000841115612c16577f000000000000000000000000000000000000000000000000000000000000000073ffffffffffffffffffffffffffffffffffffffff16636250216933866040518363ffffffff1660e01b8152600401612be1929190614b64565b600060405180830381600087803b158015612bfc5760006000fd5b505af1158015612c11573d600060003e3d6000fd5b505050505b8567ffffffffffffffff167fdbaad0966fb140906c77f54a38b3e1ce6c60e87527bbc4ee0b9ad893e3de453b838386888c604001518d60200151604051612c62969594939291906152a7565b60405180910390a25050505b50505050565b801515612cb6576040517f08c379a0000000000000000000000000000000000000000000000000000000008152600401612cad90614ef1565b60405180910390fd5b5b50565b6000612cca613e6263ffffffff16565b9050600660049054906101000a900467ffffffffffffffff1667ffffffffffffffff168167ffffffffffffffff16111515612d055750613559565b6000600660049054906101000a900467ffffffffffffffff1682612d29919061558d565b905060007f000000000000000000000000000000000000000000000000000000000000000073ffffffffffffffffffffffffffffffffffffffff166306ef2d806040518163ffffffff1660e01b815260040160806040518083038186803b158015612d945760006000fd5b505afa158015612da9573d600060003e3d6000fd5b505050506040513d601f19601f82011682018060405250810190612dcd919061483e565b905060007f000000000000000000000000000000000000000000000000000000000000000073ffffffffffffffffffffffffffffffffffffffff166343f48fbd6040518163ffffffff1660e01b815260040160206040518083038186803b158015612e385760006000fd5b505afa158015612e4d573d600060003e3d6000fd5b505050506040513d601f19601f82011682018060405250810190612e719190614734565b9050600061302b83858473ffffffffffffffffffffffffffffffffffffffff1663a0fc0eda6040518163ffffffff1660e01b815260040160206040518083038186803b158015612ec15760006000fd5b505afa158015612ed6573d600060003e3d6000fd5b505050506040513d601f19601f82011682018060405250810190612efa91906148e5565b8573ffffffffffffffffffffffffffffffffffffffff16636d7fa6646040518163ffffffff1660e01b815260040160206040518083038186803b158015612f415760006000fd5b505afa158015612f56573d600060003e3d6000fd5b505050506040513d601f19601f82011682018060405250810190612f7a919061469d565b7f000000000000000000000000000000000000000000000000000000000000000073ffffffffffffffffffffffffffffffffffffffff166375172a8b6040518163ffffffff1660e01b815260040160206040518083038186803b158015612fe15760006000fd5b505afa158015612ff6573d600060003e3d6000fd5b505050506040513d601f19601f8201168201806040525081019061301a91906148e5565b600560005054613e8863ffffffff16565b90506000610e1062015180613040919061543c565b67ffffffffffffffff166131088667ffffffffffffffff167f000000000000000000000000000000000000000000000000000000000000000073ffffffffffffffffffffffffffffffffffffffff1663a5d4198b6040518163ffffffff1660e01b8152600401602060405180830381600087803b1580156130c15760006000fd5b505af11580156130d6573d600060003e3d6000fd5b505050506040513d601f19601f820116820180604052508101906130fa91906148e5565b61408790919063ffffffff16565b613112919061541e565b9050604051806080016040528083600001518152602001613140838760200151613b4f90919063ffffffff16565b815260200161317c6131698867ffffffffffffffff16886000015161408790919063ffffffff16565b8760400151613b4f90919063ffffffff16565b81526020018360200151815260200150935083507f000000000000000000000000000000000000000000000000000000000000000073ffffffffffffffffffffffffffffffffffffffff166378efc6b0856040518263ffffffff1660e01b81526004016131e9919061524b565b600060405180830381600087803b1580156132045760006000fd5b505af1158015613219573d600060003e3d6000fd5b5050505085600660046101000a81548167ffffffffffffffff021916908367ffffffffffffffff160217905550600082606001511115613398577f000000000000000000000000000000000000000000000000000000000000000073ffffffffffffffffffffffffffffffffffffffff16632c73f09e83606001516040518263ffffffff1660e01b81526004016132b0919061527c565b600060405180830381600087803b1580156132cb5760006000fd5b505af11580156132e0573d600060003e3d6000fd5b505050507f000000000000000000000000000000000000000000000000000000000000000073ffffffffffffffffffffffffffffffffffffffff1663449a52f87f000000000000000000000000000000000000000000000000000000000000000084606001516040518363ffffffff1660e01b8152600401613363929190614bcd565b600060405180830381600087803b15801561337e5760006000fd5b505af1158015613393573d600060003e3d6000fd5b505050505b600082604001511115613459577f000000000000000000000000000000000000000000000000000000000000000073ffffffffffffffffffffffffffffffffffffffff1663449a52f87f000000000000000000000000000000000000000000000000000000000000000084604001516040518363ffffffff1660e01b8152600401613424929190614bcd565b600060405180830381600087803b15801561343f5760006000fd5b505af1158015613454573d600060003e3d6000fd5b505050505b6000826080015111156134f8577f000000000000000000000000000000000000000000000000000000000000000073ffffffffffffffffffffffffffffffffffffffff1663c59fb1ab83608001516040518263ffffffff1660e01b81526004016134c3919061527c565b600060405180830381600087803b1580156134de5760006000fd5b505af11580156134f3573d600060003e3d6000fd5b505050505b8567ffffffffffffffff167fdfc2183705a66b49f12c66a6d3b2fa5cf3b7c67086e9c6e90d144befc94f436c86866000015187602001518860400151896060015160405161354a95949392919061533b565b60405180910390a25050505050505b565b600060007f000000000000000000000000000000000000000000000000000000000000000073ffffffffffffffffffffffffffffffffffffffff16637f250c616040518163ffffffff1660e01b815260040160206040518083038186803b1580156135c65760006000fd5b505afa1580156135db573d600060003e3d6000fd5b505050506040513d601f19601f820116820180604052508101906135ff91906148e5565b905060007f000000000000000000000000000000000000000000000000000000000000000073ffffffffffffffffffffffffffffffffffffffff166318160ddd6040518163ffffffff1660e01b815260040160206040518083038186803b15801561366a5760006000fd5b505afa15801561367f573d600060003e3d6000fd5b505050506040513d601f19601f820116820180604052508101906136a391906148e5565b905060008114806136b45750600082145b6136d0576136cb828261380990919063ffffffff16565b6136da565b670de0b6b3a76400005b925050506136e55650505b90565b60006137038383670de0b6b3a76400006140a263ffffffff16565b905080505b92915050565b613797846323b872dd60e01b85858560405160240161372f93929190614b93565b604051602081830303815290604052907bffffffffffffffffffffffffffffffffffffffffffffffffffffffff19166020820180517bffffffffffffffffffffffffffffffffffffffffffffffffffffffff83818316178352505050506141c663ffffffff16565b5b50505050565b6002600260005054141515156137e9576040517f08c379a00000000000000000000000000000000000000000000000000000000081526004016137e090614dcf565b60405180910390fd5b600260026000508190909055505b565b600160026000508190909055505b565b600061382483670de0b6b3a7640000846140a263ffffffff16565b905080505b92915050565b600061384242611bb8909063ffffffff16565b905080505b90565b600061385a61382f63ffffffff16565b9050805060007f000000000000000000000000000000000000000000000000000000000000000073ffffffffffffffffffffffffffffffffffffffff1663585690816040518163ffffffff1660e01b815260040160206040518083038186803b1580156138c75760006000fd5b505afa1580156138dc573d600060003e3d6000fd5b505050506040513d601f19601f820116820180604052508101906139009190614980565b905060008167ffffffffffffffff1611801561392f57508167ffffffffffffffff168167ffffffffffffffff16105b1561393a5780915081505b505b90565b60006139a97f00000000000000000000000000000000000000000000000000000000000000007f000000000000000000000000000000000000000000000000000000000000000084613991919061543c565b67ffffffffffffffff1661429390919063ffffffff16565b905080505b919050565b6139bb614489565b6000849150815060008260a0015167ffffffffffffffff161180156139e4575060008260400151115b15613ab457613a0a8460600151836060015184604001516140a29092919063ffffffff16565b8260400190908181526020015050613aaf613a3c8360a001518567ffffffffffffffff1661429390919063ffffffff16565b67ffffffffffffffff16610e1067ffffffffffffffff16613aa0613a7186608001518960200151613b1990919063ffffffff16565b613a8c87600001518a60400151613b1990919063ffffffff16565b87604001516140a29092919063ffffffff16565b6140a29092919063ffffffff16565b905080505b836060015182606001909081815260200150508360200151826080019090818152602001505083604001518260000190908181526020015050828260a0019067ffffffffffffffff16908167ffffffffffffffff16815260200150505b935093915050565b60008183613b27919061556e565b9050613b2e565b92915050565b60008183613b42919061546a565b9050613b49565b92915050565b60008183613b5d91906153cb565b9050613b64565b92915050565b60008183613b7891906153eb565b9050613b7f565b92915050565b60007f000000000000000000000000000000000000000000000000000000000000000073ffffffffffffffffffffffffffffffffffffffff1663d3419bf36040518163ffffffff1660e01b815260040160206040518083038186803b158015613bee5760006000fd5b505afa158015613c03573d600060003e3d6000fd5b505050506040513d601f19601f82011682018060405250810190613c27919061470d565b73ffffffffffffffffffffffffffffffffffffffff1663fa42dcf4600660009054906101000a900463ffffffff166040518263ffffffff1660e01b8152600401613c7191906152dc565b60206040518083038186803b158015613c8a5760006000fd5b505afa158015613c9f573d600060003e3d6000fd5b505050506040513d601f19601f82011682018060405250810190613cc391906148e5565b9050613cdd8360036000505461408790919063ffffffff16565b613cf0828461408790919063ffffffff16565b10151515613d33576040517f08c379a0000000000000000000000000000000000000000000000000000000008152600401613d2a9061510f565b60405180910390fd5b505b5050565b60008273ffffffffffffffffffffffffffffffffffffffff1682600067ffffffffffffffff811115613d94577f4e487b7100000000000000000000000000000000000000000000000000000000600052604160045260246000fd5b6040519080825280601f01601f191660200182016040528015613dc65781602001600182028036833780820191505090505b50604051613dd49190614b1d565b60006040518083038185875af1925050503d8060008114613e11576040519150601f19603f3d011682016040523d82523d6000602084013e613e16565b606091505b50509050801515613e5c576040517f08c379a0000000000000000000000000000000000000000000000000000000008152600401613e5390614e0e565b60405180910390fd5b505b5050565b6000613e80613e7561384a63ffffffff16565b61393f63ffffffff16565b905080505b90565b613e9061453d565b6000851415613ec757866000015181600001909081815260200150508660600151816020019090818152602001505080905061407d565b6000613f038767ffffffffffffffff16610e106301e13380613ee9919061543c565b67ffffffffffffffff16886140a29092919063ffffffff16565b9050600085613f2c57613f2782670de0b6b3a7640000613b1990919063ffffffff16565b613f48565b613f4782670de0b6b3a7640000613b4f90919063ffffffff16565b5b9050613f61818a606001516136e890919063ffffffff16565b8360200190908181526020015050613f9083602001518a606001518b600001516140a29092919063ffffffff16565b836000019090818152602001505088600001518360000151111561400b57600089600001518460000151613fc4919061556e565b9050613fd985826136e890919063ffffffff16565b8460600190908181526020015050836060015181613ff7919061556e565b84604001909081815260200150505061407a565b88600001518360000151101561407957600083600001518a60000151614031919061556e565b90508581101515614067578960000151846000019090818152602001505089606001518460200190908181526020015050614077565b8084608001909081815260200150505b505b5b50505b9695505050505050565b600081836140959190615529565b905061409c565b92915050565b60006000600060001985870985870292508281108382030391505060008114156140e5576000841115156140d65760006000fd5b838204925082925050506141bf565b80841115156140f45760006000fd5b60008486880990508281118203915080830392506000856001877fffffffffffffffffffffffffffffffffffffffffffffffffffffffffffffffff0301169050805080860495508084049350600181826000030401905080830284179350835060006002876003021890508087026002038102905080508087026002038102905080508087026002038102905080508087026002038102905080508087026002038102905080508087026002038102905080508085029550855050849450505050506141bf56505050505b9392505050565b600061422b826040518060400160405280602081526020017f5361666545524332303a206c6f772d6c6576656c2063616c6c206661696c65648152602001508573ffffffffffffffffffffffffffffffffffffffff166142ae9092919063ffffffff16565b905060008151111561428d578080602001905181019061424b919061469d565b151561428c576040517f08c379a00000000000000000000000000000000000000000000000000000000081526004016142839061518d565b60405180910390fd5b5b505b5050565b600081836142a1919061558d565b90506142a8565b92915050565b60606142c384846000856142d163ffffffff16565b90506142ca565b9392505050565b6060824710151515614318576040517f08c379a000000000000000000000000000000000000000000000000000000000815260040161430f90614e4d565b60405180910390fd5b614327856143fd63ffffffff16565b1515614368576040517f08c379a000000000000000000000000000000000000000000000000000000000815260040161435f9061514e565b60405180910390fd5b600060008673ffffffffffffffffffffffffffffffffffffffff1685876040516143929190614b1d565b60006040518083038185875af1925050503d80600081146143cf576040519150601f19603f3d011682016040523d82523d6000602084013e6143d4565b606091505b50915091506143ea82828661441763ffffffff16565b925050506143f55650505b949350505050565b60006000823b90506000811191505061441256505b919050565b6060831561442b5782905061448256614481565b6000835111156144435782518084602001fd50614480565b816040517f08c379a00000000000000000000000000000000000000000000000000000000081526004016144779190614d3c565b60405180910390fd5b5b5b9392505050565b604051806101a001604052806000815260200160008152602001600081526020016000815260200160008152602001600067ffffffffffffffff168152602001600067ffffffffffffffff168152602001600060020b8152602001600015158152602001600067ffffffffffffffff168152602001600063ffffffff168152602001600073ffffffffffffffffffffffffffffffffffffffff168152602001600067ffffffffffffffff1681526020015090565b6040518060a0016040528060008152602001600081526020016000815260200160008152602001600081526020015090566156f4565b60008151905061458281615695565b5b919050565b6000815190508015158114151561459f5760006000fd5b5b919050565b6000815190508060020b811415156145bd5760006000fd5b5b919050565b6000815190506145d2816156be565b5b919050565b6000815190506145e7816156d7565b5b919050565b6000602082840312156145fe578081fd5b815161460981615695565b809150505b92915050565b60006000600060408486031215614629578182fd5b833567ffffffffffffffff80821115614640578384fd5b818601915086601f8301121515614655578384fd5b813581811115614663578485fd5b8760208260051b8501011115614677578485fd5b6020830195508094505050506020840135614691816156be565b809150505b9250925092565b6000602082840312156146ae578081fd5b6146b782614588565b90505b92915050565b6000602082840312156146d1578081fd5b81357fffffffff00000000000000000000000000000000000000000000000000000000811681141515614702578182fd5b809150505b92915050565b60006020828403121561471e578081fd5b815161472981615695565b809150505b92915050565b600060208284031215614745578081fd5b815161475081615695565b809150505b92915050565b60006101a0828403121561476d578081fd5b614775615373565b82518152602083015160208201526040830151604082015260608301516060820152608083015160808201526147ad60a084016145d8565b60a08201526147be60c084016145d8565b60c08201526147cf60e084016145a5565b60e08201526101006147e2818501614588565b81830152506101206147f58185016145d8565b81830152506101406148088185016145c3565b818301525061016061481b818501614573565b818301525061018061482e8185016145d8565b8183015250809150505b92915050565b60006080828403121561484f578081fd5b6040516080810181811067ffffffffffffffff82111715614897577f4e487b710000000000000000000000000000000000000000000000000000000083526041600452602483fd5b806040525082518152602083015160208201526040830151604082015260608301516060820152809150505b92915050565b6000602082840312156148da578081fd5b813590505b92915050565b6000602082840312156148f6578081fd5b815190505b92915050565b6000600060408385031215614914578182fd5b823591506020830135614926816156be565b809150505b9250929050565b600060208284031215614943578081fd5b813561494e816156be565b809150505b92915050565b60006020828403121561496a578081fd5b8135614975816156d7565b809150505b92915050565b600060208284031215614991578081fd5b815161499c816156d7565b809150505b92915050565b6000600060006000608085870312156149be578182fd5b84356149c9816156d7565b80945050602085013592506040850135915060608501356149e9816156be565b809150505b92959194509250565b73ffffffffffffffffffffffffffffffffffffffff8116825250505b565b801515825250505b565b8060020b825250505b565b805182526020810151602083015260408101516040830152606081015160608301526080810151608083015260a0810151614a6860a0840182614b0b565b5060c0810151614a7b60c0840182614b0b565b5060e0810151614a8e60e0840182614a1f565b5061010080820151614aa282850182614a15565b505061012080820151614ab782850182614b0b565b505061014080820151614acc82850182614afd565b505061016080820151614ae1828501826149f7565b505061018080820151614af682850182614b0b565b505050505b565b63ffffffff8116825250505b565b67ffffffffffffffff8116825250505b565b60008251614b2f8184602087016155bf565b8083019150505b92915050565b600060208201905073ffffffffffffffffffffffffffffffffffffffff831682525b92915050565b600060408201905073ffffffffffffffffffffffffffffffffffffffff841682528260208301525b9392505050565b600060608201905073ffffffffffffffffffffffffffffffffffffffff80861683528085166020840152508260408301525b949350505050565b600060408201905073ffffffffffffffffffffffffffffffffffffffff841682528260208301525b9392505050565b600060408201905073ffffffffffffffffffffffffffffffffffffffff8416825267ffffffffffffffff831660208301525b9392505050565b600060208201905082151582525b92915050565b600060208201905073ffffffffffffffffffffffffffffffffffffffff831682525b92915050565b600060208201905073ffffffffffffffffffffffffffffffffffffffff831682525b92915050565b600060208201905073ffffffffffffffffffffffffffffffffffffffff831682525b92915050565b600060208201905073ffffffffffffffffffffffffffffffffffffffff831682525b92915050565b600060208201905073ffffffffffffffffffffffffffffffffffffffff831682525b92915050565b60006101c08201905067ffffffffffffffff84168252614d346020830184614a2a565b5b9392505050565b6020815260008251806020840152614d5b8160408501602087016155bf565b60407fffffffffffffffffffffffffffffffffffffffffffffffffffffffffffffffe0601f8301168401019150505b92915050565b60208152601160208201527f50726f746f636f6c2073687574646f776e000000000000000000000000000000604082015260006060820190505b919050565b60208152600d60208201527f4c43205265656e7472616e637900000000000000000000000000000000000000604082015260006060820190505b919050565b60208152600360208201527f5354450000000000000000000000000000000000000000000000000000000000604082015260006060820190505b919050565b60208152602660208201527f416464726573733a20696e73756666696369656e742062616c616e636520666f60408201527f722063616c6c0000000000000000000000000000000000000000000000000000606082015260006080820190505b919050565b60208152600f60208201527f4e6f20666c61736820626f72726f770000000000000000000000000000000000604082015260006060820190505b919050565b60208152600e60208201527f4e6f7420417574686f72697a6564000000000000000000000000000000000000604082015260006060820190505b919050565b60208152600460208201527f4e6f6f7000000000000000000000000000000000000000000000000000000000604082015260006060820190505b919050565b60208152600d60208201527f4c50205265656e7472616e637900000000000000000000000000000000000000604082015260006060820190505b919050565b60208152601360208201527f4d7573742061646420636f6c6c61746572616c00000000000000000000000000604082015260006060820190505b919050565b60208152601260208201527f746f6f2062696720666f7220696e743235360000000000000000000000000000604082015260006060820190505b919050565b60208152602360208201527f43616e7420696e637265617365202620646563726561736520636f6c6c61746560408201527f72616c0000000000000000000000000000000000000000000000000000000000606082015260006080820190505b919050565b60208152601260208201527f506f736974696f6e20746f6f20736d616c6c0000000000000000000000000000604082015260006060820190505b919050565b60208152601360208201527f436f6e74726163742069732073746f7070656400000000000000000000000000604082015260006060820190505b919050565b60208152601760208201527f496e73756666696369656e7420636f6c6c61746572616c000000000000000000604082015260006060820190505b919050565b60208152601d60208201527f416464726573733a2063616c6c20746f206e6f6e2d636f6e7472616374000000604082015260006060820190505b919050565b60208152602a60208201527f5361666545524332303a204552433230206f7065726174696f6e20646964206e60408201527f6f74207375636365656400000000000000000000000000000000000000000000606082015260006080820190505b919050565b60208152601160208201527f6d6f7265207468616e2036342062697473000000000000000000000000000000604082015260006060820190505b919050565b60006101a0820190506152448284614a2a565b5b92915050565b6000608082019050825182526020830151602083015260408301516040830152606083015160608301525b92915050565b60006020820190508282525b92915050565b60006040820190508382528260208301525b9392505050565b600060c0820190508782528660208301528560408301528460608301528360808301528260a08301525b979650505050505050565b600060208201905063ffffffff831682525b92915050565b600060208201905067ffffffffffffffff831682525b92915050565b60006101c08201905067ffffffffffffffff841682526153336020830184614a2a565b5b9392505050565b600060a08201905067ffffffffffffffff871682528560208301528460408301528360608301528260808301525b9695505050505050565b600060405190506101a0810181811067ffffffffffffffff821117156153c2577f4e487b7100000000000000000000000000000000000000000000000000000000600052604160045260246000fd5b80604052505b90565b600082198211156153df576153de615633565b5b82820190505b92915050565b600067ffffffffffffffff80831681851680830382111561540f5761540e615633565b5b80820193505050505b92915050565b60008215156154305761542f615664565b5b82820490505b92915050565b600067ffffffffffffffff80841680151561545a57615459615664565b5b8082851604925050505b92915050565b60007f7fffffffffffffffffffffffffffffffffffffffffffffffffffffffffffffff818413828413858304851182821616156154aa576154a9615633565b5b7f8000000000000000000000000000000000000000000000000000000000000000848712868205881281841616156154e5576154e4615633565b5b85871292508782058712848416161561550157615500615633565b5b8785058712818416161561551857615517615633565b5b505050505082820290505b92915050565b6000817fffffffffffffffffffffffffffffffffffffffffffffffffffffffffffffffff048311821515161561556257615561615633565b5b82820290505b92915050565b60008282101561558157615580615633565b5b82820390505b92915050565b600067ffffffffffffffff8083168185169150818110156155b1576155b0615633565b5b818103925050505b92915050565b60005b838110156155de5780820151818401525b6020810190506155c2565b838111156155ed576000848401525b505050505b565b60007fffffffffffffffffffffffffffffffffffffffffffffffffffffffffffffffff82141561562757615626615633565b5b6001820190505b919050565b7f4e487b7100000000000000000000000000000000000000000000000000000000600052601160045260246000fd5b565b7f4e487b7100000000000000000000000000000000000000000000000000000000600052601260045260246000fd5b565b73ffffffffffffffffffffffffffffffffffffffff8116811415156156ba5760006000fd5b505b565b63ffffffff8116811415156156d35760006000fd5b505b565b67ffffffffffffffff8116811415156156f05760006000fd5b505b565bfea2646970667358221220cef622f362f039c7e5ca06a7252a77d1d95156de6f2cbae8cae2f2676d2612c564736f6c63430008040033",
  "linkReferences": {},
  "deployedLinkReferences": {}
}