{
  "_format": "hh-sol-artifact-1",
  "contractName": "TickTest",
  "sourceName": "contracts/uniswap-v3-core/test/TickTest.sol",
  "abi": [
    {
      "inputs": [
        {
          "internalType": "int24",
          "name": "tick",
          "type": "int24"
        }
      ],
      "name": "clear",
      "outputs": [],
      "stateMutability": "nonpayable",
      "type": "function"
    },
    {
      "inputs": [
        {
          "internalType": "int24",
          "name": "tick",
          "type": "int24"
        },
        {
          "internalType": "uint256",
          "name": "feeGrowthGlobal0X128",
          "type": "uint256"
        },
        {
          "internalType": "uint256",
          "name": "feeGrowthGlobal1X128",
          "type": "uint256"
        },
        {
          "internalType": "uint160",
          "name": "secondsPerLiquidityCumulativeX128",
          "type": "uint160"
        },
        {
          "internalType": "int56",
          "name": "tickCumulative",
          "type": "int56"
        },
        {
          "internalType": "uint32",
          "name": "time",
          "type": "uint32"
        }
      ],
      "name": "cross",
      "outputs": [
        {
          "internalType": "int128",
          "name": "liquidityNet",
          "type": "int128"
        }
      ],
      "stateMutability": "nonpayable",
      "type": "function"
    },
    {
      "inputs": [
        {
          "internalType": "int24",
          "name": "tickLower",
          "type": "int24"
        },
        {
          "internalType": "int24",
          "name": "tickUpper",
          "type": "int24"
        },
        {
          "internalType": "int24",
          "name": "tickCurrent",
          "type": "int24"
        },
        {
          "internalType": "uint256",
          "name": "feeGrowthGlobal0X128",
          "type": "uint256"
        },
        {
          "internalType": "uint256",
          "name": "feeGrowthGlobal1X128",
          "type": "uint256"
        }
      ],
      "name": "getFeeGrowthInside",
      "outputs": [
        {
          "internalType": "uint256",
          "name": "feeGrowthInside0X128",
          "type": "uint256"
        },
        {
          "internalType": "uint256",
          "name": "feeGrowthInside1X128",
          "type": "uint256"
        }
      ],
      "stateMutability": "view",
      "type": "function"
    },
    {
      "inputs": [
        {
          "internalType": "int24",
          "name": "tick",
          "type": "int24"
        },
        {
          "components": [
            {
              "internalType": "uint128",
              "name": "liquidityGross",
              "type": "uint128"
            },
            {
              "internalType": "int128",
              "name": "liquidityNet",
              "type": "int128"
            },
            {
              "internalType": "uint256",
              "name": "feeGrowthOutside0X128",
              "type": "uint256"
            },
            {
              "internalType": "uint256",
              "name": "feeGrowthOutside1X128",
              "type": "uint256"
            },
            {
              "internalType": "int56",
              "name": "tickCumulativeOutside",
              "type": "int56"
            },
            {
              "internalType": "uint160",
              "name": "secondsPerLiquidityOutsideX128",
              "type": "uint160"
            },
            {
              "internalType": "uint32",
              "name": "secondsOutside",
              "type": "uint32"
            },
            {
              "internalType": "bool",
              "name": "initialized",
              "type": "bool"
            }
          ],
          "internalType": "struct Tick.Info",
          "name": "info",
          "type": "tuple"
        }
      ],
      "name": "setTick",
      "outputs": [],
      "stateMutability": "nonpayable",
      "type": "function"
    },
    {
      "inputs": [
        {
          "internalType": "int24",
          "name": "tickSpacing",
          "type": "int24"
        }
      ],
      "name": "tickSpacingToMaxLiquidityPerTick",
      "outputs": [
        {
          "internalType": "uint128",
          "name": "",
          "type": "uint128"
        }
      ],
      "stateMutability": "pure",
      "type": "function"
    },
    {
      "inputs": [
        {
          "internalType": "int24",
          "name": "",
          "type": "int24"
        }
      ],
      "name": "ticks",
      "outputs": [
        {
          "internalType": "uint128",
          "name": "liquidityGross",
          "type": "uint128"
        },
        {
          "internalType": "int128",
          "name": "liquidityNet",
          "type": "int128"
        },
        {
          "internalType": "uint256",
          "name": "feeGrowthOutside0X128",
          "type": "uint256"
        },
        {
          "internalType": "uint256",
          "name": "feeGrowthOutside1X128",
          "type": "uint256"
        },
        {
          "internalType": "int56",
          "name": "tickCumulativeOutside",
          "type": "int56"
        },
        {
          "internalType": "uint160",
          "name": "secondsPerLiquidityOutsideX128",
          "type": "uint160"
        },
        {
          "internalType": "uint32",
          "name": "secondsOutside",
          "type": "uint32"
        },
        {
          "internalType": "bool",
          "name": "initialized",
          "type": "bool"
        }
      ],
      "stateMutability": "view",
      "type": "function"
    },
    {
      "inputs": [
        {
          "internalType": "int24",
          "name": "tick",
          "type": "int24"
        },
        {
          "internalType": "int24",
          "name": "tickCurrent",
          "type": "int24"
        },
        {
          "internalType": "int128",
          "name": "liquidityDelta",
          "type": "int128"
        },
        {
          "internalType": "uint256",
          "name": "feeGrowthGlobal0X128",
          "type": "uint256"
        },
        {
          "internalType": "uint256",
          "name": "feeGrowthGlobal1X128",
          "type": "uint256"
        },
        {
          "internalType": "uint160",
          "name": "secondsPerLiquidityCumulativeX128",
          "type": "uint160"
        },
        {
          "internalType": "int56",
          "name": "tickCumulative",
          "type": "int56"
        },
        {
          "internalType": "uint32",
          "name": "time",
          "type": "uint32"
        },
        {
          "internalType": "bool",
          "name": "upper",
          "type": "bool"
        },
        {
          "internalType": "uint128",
          "name": "maxLiquidity",
          "type": "uint128"
        }
      ],
      "name": "update",
      "outputs": [
        {
          "internalType": "bool",
          "name": "flipped",
          "type": "bool"
        }
      ],
      "stateMutability": "nonpayable",
      "type": "function"
    }
  ],
  "bytecode": "0x60806040523480156100115760006000fd5b50610017565b6118dd806100266000396000f3fe60806040523480156100115760006000fd5b50600436106100825760003560e01c806382c66f871161005c57806382c66f8714610105578063b613524a14610135578063df33fa8814610151578063f30dba931461018157610082565b806320b90da91461008857806330e3ff4c146100b85780635cb083ce146100e957610082565b60006000fd5b6100a2600480360381019061009d9190610ef2565b6101b8565b6040516100af9190610fa5565b60405180910390f35b6100d260048036038101906100cd9190610fb9565b6101f8565b6040516100e0929190611014565b60405180910390f35b61010360048036038101906100fe919061102d565b61022e565b005b61011f600480360381019061011a9190611155565b6103b3565b60405161012c919061117a565b60405180910390f35b61014f600480360381019061014a9190611155565b6103d0565b005b61016b6004803603810190610166919061119e565b6103eb565b6040516101789190611209565b60405180910390f35b61019b60048036038101906101969190611155565b61041f565b6040516101af98979695949392919061121e565b60405180910390f35b60006101e38b8b8b8b8b8b8b8b8b8b60006000506104e3909a9998979695949392919063ffffffff16565b90506101ea565b9a9950505050505050505050565b6000600061021b878787878760006000506107dd9095949392919063ffffffff16565b91509150610224565b9550959350505050565b80600060005060008460020b60020b815260200190815260200160002060005060008201518160000160006101000a8154816fffffffffffffffffffffffffffffffff02191690836fffffffffffffffffffffffffffffffff16021790555060208201518160000160106101000a8154816fffffffffffffffffffffffffffffffff0219169083600f0b6fffffffffffffffffffffffffffffffff16021790555060408201518160010160005090905560608201518160020160005090905560808201518160030160006101000a81548166ffffffffffffff021916908360060b66ffffffffffffff16021790555060a08201518160030160076101000a81548173ffffffffffffffffffffffffffffffffffffffff021916908373ffffffffffffffffffffffffffffffffffffffff16021790555060c082015181600301601b6101000a81548163ffffffff021916908363ffffffff16021790555060e082015181600301601f6101000a81548160ff0219169083151502179055509050505b5050565b60006103c48261092463ffffffff16565b90506103cb565b919050565b6103e78160006000506109ff90919063ffffffff16565b5b50565b600061040e8787878787876000600050610ae8909695949392919063ffffffff16565b9050610415565b9695505050505050565b60006000506020528060005260406000206000915090508060000160009054906101000a90046fffffffffffffffffffffffffffffffff16908060000160109054906101000a9004600f0b908060010160005054908060020160005054908060030160009054906101000a900460060b908060030160079054906101000a900473ffffffffffffffffffffffffffffffffffffffff169080600301601b9054906101000a900463ffffffff169080600301601f9054906101000a900460ff16905088565b600060008c60008d60020b60020b8152602001908152602001600020600050905060008160000160009054906101000a90046fffffffffffffffffffffffffffffffff169050600061053b828d610c6863ffffffff16565b9050846fffffffffffffffffffffffffffffffff16816fffffffffffffffffffffffffffffffff16111515156105a6576040517f08c379a000000000000000000000000000000000000000000000000000000000815260040161059d90611298565b60405180910390fd5b6000826fffffffffffffffffffffffffffffffff161415156000826fffffffffffffffffffffffffffffffff161415151415935083506000826fffffffffffffffffffffffffffffffff1614156106d3578c60020b8e60020b1315156106b5578a836001016000508190909055508983600201600050819090905550888360030160076101000a81548173ffffffffffffffffffffffffffffffffffffffff021916908373ffffffffffffffffffffffffffffffffffffffff160217905550878360030160006101000a81548166ffffffffffffff021916908360060b66ffffffffffffff1602179055508683600301601b6101000a81548163ffffffff021916908363ffffffff1602179055505b600183600301601f6101000a81548160ff0219169083151502179055505b808360000160006101000a8154816fffffffffffffffffffffffffffffffff02191690836fffffffffffffffffffffffffffffffff160217905550856107525761074d6107408d600f0b8560000160109054906101000a9004600f0b600f0b610d7990919063ffffffff16565b610daa909063ffffffff16565b61078d565b61078c61077f8d600f0b8560000160109054906101000a9004600f0b600f0b610dc790919063ffffffff16565b610daa909063ffffffff16565b5b8360000160106101000a8154816fffffffffffffffffffffffffffffffff0219169083600f0b6fffffffffffffffffffffffffffffffff1602179055505050505b9b9a5050505050505050505050565b6000600060008860008960020b60020b8152602001908152602001600020600050905060008960008960020b60020b81526020019081526020016000206000509050600060008a60020b8960020b12151561084f5783600101600050549150815083600201600050549050805061087e565b8360010160005054886108629190611308565b915081508360020160005054876108799190611308565b905080505b600060008b60020b8b60020b12156108ad578460010160005054915081508460020160005054905080506108dc565b84600101600050548a6108c09190611308565b915081508460020160005054896108d79190611308565b905080505b81848b6108e99190611308565b6108f39190611308565b9750875080838a6109049190611308565b61090e9190611308565b965086505050505050505b965096945050505050565b6000600082837ffffffffffffffffffffffffffffffffffffffffffffffffffffffffffff276186109559190611358565b61095f91906113d5565b9050600083847ffffffffffffffffffffffffffffffffffffffffffffffffffffffffffff2761861098f90611485565b6109999190611358565b6109a391906113d5565b9050600060018584846109b691906114c9565b6109c09190611358565b6109ca9190611534565b90508062ffffff166fffffffffffffffffffffffffffffffff6109ed9190611562565b93505050506109fa565050505b919050565b8160008260020b60020b815260200190815260200160002060006000820160006101000a8154906fffffffffffffffffffffffffffffffff02191690556000820160106101000a8154906fffffffffffffffffffffffffffffffff0219169055600182016000506000905560028201600050600090556003820160006101000a81549066ffffffffffffff02191690556003820160076101000a81549073ffffffffffffffffffffffffffffffffffffffff021916905560038201601b6101000a81549063ffffffff021916905560038201601f6101000a81549060ff021916905550505b5050565b600060008860008960020b60020b81526020019081526020016000206000509050806001016000505487610b1c9190611308565b81600101600050819090905550806002016000505486610b3c9190611308565b816002016000508190909055508060030160079054906101000a900473ffffffffffffffffffffffffffffffffffffffff1685610b799190611598565b8160030160076101000a81548173ffffffffffffffffffffffffffffffffffffffff021916908373ffffffffffffffffffffffffffffffffffffffff1602179055508060030160009054906101000a900460060b84610bd891906115d6565b8160030160006101000a81548166ffffffffffffff021916908360060b66ffffffffffffff16021790555080600301601b9054906101000a900463ffffffff1683610c239190611645565b81600301601b6101000a81548163ffffffff021916908363ffffffff1602179055508060000160109054906101000a9004600f0b91508150505b979650505050505050565b6000600082600f0b1215610cfa57826fffffffffffffffffffffffffffffffff1682610c9390611673565b84610c9e91906116b7565b9150816fffffffffffffffffffffffffffffffff16101515610cf5576040517f08c379a0000000000000000000000000000000000000000000000000000000008152600401610cec906116f1565b60405180910390fd5b610d72565b826fffffffffffffffffffffffffffffffff168284610d199190611730565b9150816fffffffffffffffffffffffffffffffff1610151515610d71576040517f08c379a0000000000000000000000000000000000000000000000000000000008152600401610d689061176b565b60405180910390fd5b5b5b92915050565b600060008212151515838385610d8f91906117aa565b92508212151515141515610da35760006000fd5b5b92915050565b60008182915081600f0b141515610dc15760006000fd5b5b919050565b600060008212151515838385610ddd9190611828565b92508213151515141515610df15760006000fd5b5b92915050566118a6565b6000813590508060020b81141515610e145760006000fd5b5b919050565b60008135905080600f0b81141515610e325760006000fd5b5b919050565b60008135905073ffffffffffffffffffffffffffffffffffffffff811681141515610e635760006000fd5b5b919050565b6000813590508060060b81141515610e815760006000fd5b5b919050565b60008135905063ffffffff811681141515610ea25760006000fd5b5b919050565b60008135905080151581141515610ebf5760006000fd5b5b919050565b6000813590506fffffffffffffffffffffffffffffffff811681141515610eec5760006000fd5b5b919050565b60006000600060006000600060006000600060006101408b8d031215610f185760006000fd5b610f218b610dfc565b9950610f2f60208c01610dfc565b9850610f3d60408c01610e1a565b975060608b0135965060808b01359550610f5960a08c01610e38565b9450610f6760c08c01610e69565b9350610f7560e08c01610e87565b9250610f846101008c01610ea8565b9150610f936101208c01610ec5565b90505b9295989b9194979a5092959850565b600060208201905082151582525b92915050565b6000600060006000600060a08688031215610fd45760006000fd5b610fdd86610dfc565b9450610feb60208701610dfc565b9350610ff960408701610dfc565b925060608601359150608086013590505b9295509295909350565b60006040820190508382528260208301525b9392505050565b600060008284036101208112156110445760006000fd5b61104d84610dfc565b9250610100807fffffffffffffffffffffffffffffffffffffffffffffffffffffffffffffffe0830112156110825760006000fd5b604051915080820182811067ffffffffffffffff821117156110cd577f4e487b7100000000000000000000000000000000000000000000000000000000600052604160045260246000fd5b80604052506110de60208601610ec5565b82526110ec60408601610e1a565b6020830152606085013560408301526080850135606083015261111160a08601610e69565b608083015261112260c08601610e38565b60a083015261113360e08601610e87565b60c0830152611143818601610ea8565b60e083015250809150505b9250929050565b6000602082840312156111685760006000fd5b61117182610dfc565b90505b92915050565b60006020820190506fffffffffffffffffffffffffffffffff831682525b92915050565b60006000600060006000600060c087890312156111bb5760006000fd5b6111c487610dfc565b955060208701359450604087013593506111e060608801610e38565b92506111ee60808801610e69565b91506111fc60a08801610e87565b90505b9295509295509295565b600060208201905082600f0b82525b92915050565b6000610100820190506fffffffffffffffffffffffffffffffff8a16825288600f0b60208301528760408301528660608301528560060b608083015273ffffffffffffffffffffffffffffffffffffffff851660a083015263ffffffff841660c083015282151560e08301525b9998505050505050505050565b60208152600260208201527f4c4f000000000000000000000000000000000000000000000000000000000000604082015260006060820190505b919050565b7f4e487b7100000000000000000000000000000000000000000000000000000000600052601160045260246000fd5b565b60008282101561131b5761131a6112d7565b5b82820390505b92915050565b7f4e487b7100000000000000000000000000000000000000000000000000000000600052601260045260246000fd5b565b60008160020b8360020b80151561137257611371611327565b5b7fffffffffffffffffffffffffffffffffffffffffffffffffffffffffffffffff81147fffffffffffffffffffffffffffffffffffffffffffffffffffffffffff800000831416156113c7576113c66112d7565b5b808205925050505b92915050565b60008160020b8360020b627fffff600082136000841383830485118282161615611402576114016112d7565b5b7fffffffffffffffffffffffffffffffffffffffffffffffffffffffffff800000600085128682058612818416161561143e5761143d6112d7565b5b6000871292508582058712848416161561145b5761145a6112d7565b5b85850587128184161615611472576114716112d7565b5b5050505050808202925050505b92915050565b60008160020b7fffffffffffffffffffffffffffffffffffffffffffffffffffffffffff8000008114156114bc576114bb6112d7565b5b806000039150505b919050565b60008160020b8360020b60008112817fffffffffffffffffffffffffffffffffffffffffffffffffffffffffff8000000183128115161561150d5761150c6112d7565b5b81627fffff018313811615611525576115246112d7565b5b50808203925050505b92915050565b600062ffffff808316818516808303821115611553576115526112d7565b5b80820193505050505b92915050565b60006fffffffffffffffffffffffffffffffff80841680151561158857611587611327565b5b8082851604925050505b92915050565b600073ffffffffffffffffffffffffffffffffffffffff8083168185169150818110156115c8576115c76112d7565b5b818103925050505b92915050565b60008160060b8360060b60008112817fffffffffffffffffffffffffffffffffffffffffffffffffff800000000000000183128115161561161a576116196112d7565b5b81667fffffffffffff018313811615611636576116356112d7565b5b50808203925050505b92915050565b600063ffffffff808316818516915081811015611665576116646112d7565b5b818103925050505b92915050565b600081600f0b7fffffffffffffffffffffffffffffffff800000000000000000000000000000008114156116aa576116a96112d7565b5b806000039150505b919050565b60006fffffffffffffffffffffffffffffffff8083168185169150818110156116e3576116e26112d7565b5b818103925050505b92915050565b60208152600260208201527f4c53000000000000000000000000000000000000000000000000000000000000604082015260006060820190505b919050565b60006fffffffffffffffffffffffffffffffff80831681851680830382111561175c5761175b6112d7565b5b80820193505050505b92915050565b60208152600260208201527f4c41000000000000000000000000000000000000000000000000000000000000604082015260006060820190505b919050565b600060008212827f7fffffffffffffffffffffffffffffffffffffffffffffffffffffffffffffff038413811516156117e6576117e56112d7565b5b827f800000000000000000000000000000000000000000000000000000000000000003841281161561181b5761181a6112d7565b5b5082820190505b92915050565b600060008312837f800000000000000000000000000000000000000000000000000000000000000001831281151615611864576118636112d7565b5b837f7fffffffffffffffffffffffffffffffffffffffffffffffffffffffffffffff018313811615611899576118986112d7565b5b5082820390505b92915050565bfea2646970667358221220befcdb937937569891a14791d3f4989e2f49d5dfb79399c0e032f1c860ea4d0a64736f6c634300080c0033",
  "linkReferences": {},
  "deployedLinkReferences": {}
}