{
  "_format": "hh-sol-artifact-1",
  "contractName": "TestUniswapV3Callee",
  "sourceName": "contracts/uniswap-v3-core/test/TestUniswapV3Callee.sol",
  "abi": [
    {
      "anonymous": false,
      "inputs": [
        {
          "indexed": false,
          "internalType": "uint256",
          "name": "fee0",
          "type": "uint256"
        },
        {
          "indexed": false,
          "internalType": "uint256",
          "name": "fee1",
          "type": "uint256"
        }
      ],
      "name": "FlashCallback",
      "type": "event"
    },
    {
      "anonymous": false,
      "inputs": [
        {
          "indexed": false,
          "internalType": "uint256",
          "name": "amount0Owed",
          "type": "uint256"
        },
        {
          "indexed": false,
          "internalType": "uint256",
          "name": "amount1Owed",
          "type": "uint256"
        }
      ],
      "name": "MintCallback",
      "type": "event"
    },
    {
      "anonymous": false,
      "inputs": [
        {
          "indexed": false,
          "internalType": "int256",
          "name": "amount0Delta",
          "type": "int256"
        },
        {
          "indexed": false,
          "internalType": "int256",
          "name": "amount1Delta",
          "type": "int256"
        }
      ],
      "name": "SwapCallback",
      "type": "event"
    },
    {
      "inputs": [
        {
          "internalType": "address",
          "name": "pool",
          "type": "address"
        },
        {
          "internalType": "address",
          "name": "recipient",
          "type": "address"
        },
        {
          "internalType": "uint256",
          "name": "amount0",
          "type": "uint256"
        },
        {
          "internalType": "uint256",
          "name": "amount1",
          "type": "uint256"
        },
        {
          "internalType": "uint256",
          "name": "pay0",
          "type": "uint256"
        },
        {
          "internalType": "uint256",
          "name": "pay1",
          "type": "uint256"
        }
      ],
      "name": "flash",
      "outputs": [],
      "stateMutability": "nonpayable",
      "type": "function"
    },
    {
      "inputs": [
        {
          "internalType": "address",
          "name": "pool",
          "type": "address"
        },
        {
          "internalType": "address",
          "name": "recipient",
          "type": "address"
        },
        {
          "internalType": "int24",
          "name": "tickLower",
          "type": "int24"
        },
        {
          "internalType": "int24",
          "name": "tickUpper",
          "type": "int24"
        },
        {
          "internalType": "uint128",
          "name": "amount",
          "type": "uint128"
        }
      ],
      "name": "mint",
      "outputs": [],
      "stateMutability": "nonpayable",
      "type": "function"
    },
    {
      "inputs": [
        {
          "internalType": "address",
          "name": "pool",
          "type": "address"
        },
        {
          "internalType": "uint256",
          "name": "amount1Out",
          "type": "uint256"
        },
        {
          "internalType": "address",
          "name": "recipient",
          "type": "address"
        },
        {
          "internalType": "uint160",
          "name": "sqrtPriceLimitX96",
          "type": "uint160"
        }
      ],
      "name": "swap0ForExact1",
      "outputs": [],
      "stateMutability": "nonpayable",
      "type": "function"
    },
    {
      "inputs": [
        {
          "internalType": "address",
          "name": "pool",
          "type": "address"
        },
        {
          "internalType": "uint256",
          "name": "amount0Out",
          "type": "uint256"
        },
        {
          "internalType": "address",
          "name": "recipient",
          "type": "address"
        },
        {
          "internalType": "uint160",
          "name": "sqrtPriceLimitX96",
          "type": "uint160"
        }
      ],
      "name": "swap1ForExact0",
      "outputs": [],
      "stateMutability": "nonpayable",
      "type": "function"
    },
    {
      "inputs": [
        {
          "internalType": "address",
          "name": "pool",
          "type": "address"
        },
        {
          "internalType": "uint256",
          "name": "amount0In",
          "type": "uint256"
        },
        {
          "internalType": "address",
          "name": "recipient",
          "type": "address"
        },
        {
          "internalType": "uint160",
          "name": "sqrtPriceLimitX96",
          "type": "uint160"
        }
      ],
      "name": "swapExact0For1",
      "outputs": [],
      "stateMutability": "nonpayable",
      "type": "function"
    },
    {
      "inputs": [
        {
          "internalType": "address",
          "name": "pool",
          "type": "address"
        },
        {
          "internalType": "uint256",
          "name": "amount1In",
          "type": "uint256"
        },
        {
          "internalType": "address",
          "name": "recipient",
          "type": "address"
        },
        {
          "internalType": "uint160",
          "name": "sqrtPriceLimitX96",
          "type": "uint160"
        }
      ],
      "name": "swapExact1For0",
      "outputs": [],
      "stateMutability": "nonpayable",
      "type": "function"
    },
    {
      "inputs": [
        {
          "internalType": "address",
          "name": "pool",
          "type": "address"
        },
        {
          "internalType": "uint160",
          "name": "sqrtPriceX96",
          "type": "uint160"
        },
        {
          "internalType": "address",
          "name": "recipient",
          "type": "address"
        }
      ],
      "name": "swapToHigherSqrtPrice",
      "outputs": [],
      "stateMutability": "nonpayable",
      "type": "function"
    },
    {
      "inputs": [
        {
          "internalType": "address",
          "name": "pool",
          "type": "address"
        },
        {
          "internalType": "uint160",
          "name": "sqrtPriceX96",
          "type": "uint160"
        },
        {
          "internalType": "address",
          "name": "recipient",
          "type": "address"
        }
      ],
      "name": "swapToLowerSqrtPrice",
      "outputs": [],
      "stateMutability": "nonpayable",
      "type": "function"
    },
    {
      "inputs": [
        {
          "internalType": "uint256",
          "name": "fee0",
          "type": "uint256"
        },
        {
          "internalType": "uint256",
          "name": "fee1",
          "type": "uint256"
        },
        {
          "internalType": "bytes",
          "name": "data",
          "type": "bytes"
        }
      ],
      "name": "uniswapV3FlashCallback",
      "outputs": [],
      "stateMutability": "nonpayable",
      "type": "function"
    },
    {
      "inputs": [
        {
          "internalType": "uint256",
          "name": "amount0Owed",
          "type": "uint256"
        },
        {
          "internalType": "uint256",
          "name": "amount1Owed",
          "type": "uint256"
        },
        {
          "internalType": "bytes",
          "name": "data",
          "type": "bytes"
        }
      ],
      "name": "uniswapV3MintCallback",
      "outputs": [],
      "stateMutability": "nonpayable",
      "type": "function"
    },
    {
      "inputs": [
        {
          "internalType": "int256",
          "name": "amount0Delta",
          "type": "int256"
        },
        {
          "internalType": "int256",
          "name": "amount1Delta",
          "type": "int256"
        },
        {
          "internalType": "bytes",
          "name": "data",
          "type": "bytes"
        }
      ],
      "name": "uniswapV3SwapCallback",
      "outputs": [],
      "stateMutability": "nonpayable",
      "type": "function"
    }
  ],
  "bytecode": "0x60806040523480156100115760006000fd5b50610017565b61165d806100266000396000f3fe60806040523480156100115760006000fd5b50600436106100ce5760003560e01c8063bac7bf7811610082578063e9cbafb01161005c578063e9cbafb0146101b4578063f603482c146101d0578063fa461e33146101ec576100ce565b8063bac7bf7814610160578063d34879971461017c578063e2be910914610198576100ce565b80636dfc0ddb116100b35780636dfc0ddb1461010c5780637b4f5327146101285780639e77b80514610144576100ce565b8063034b0f8f146100d45780632ec20bf9146100f0576100ce565b60006000fd5b6100ee60048036038101906100e99190610f73565b610208565b005b61010a60048036038101906101059190610fd8565b6102a7565b005b6101266004803603810190610121919061102a565b610374565b005b610142600480360381019061013d91906110a5565b610432565b005b61015e60048036038101906101599190610fd8565b6104e0565b005b61017a6004803603810190610175919061102a565b6105ad565b005b61019660048036038101906101919190611183565b610674565b005b6101b260048036038101906101ad919061102a565b6108be565b005b6101ce60048036038101906101c99190611183565b61097c565b005b6101ea60048036038101906101e5919061102a565b610bd0565b005b610206600480360381019061020191906111e2565b610c97565b005b8573ffffffffffffffffffffffffffffffffffffffff1663490e6cbc86868633878760405160200161023c93929190611241565b6040516020818303038152906040526040518563ffffffff1660e01b815260040161026a94939291906112ec565b600060405180830381600087803b1580156102855760006000fd5b505af115801561029a573d600060003e3d6000fd5b505050505b505050505050565b8273ffffffffffffffffffffffffffffffffffffffff1663128acb088260017f7fffffffffffffffffffffffffffffffffffffffffffffffffffffffffffffff86336040516020016102f99190611333565b6040516020818303038152906040526040518663ffffffff1660e01b815260040161032895949392919061135b565b6040604051808303816000875af1158015610348573d600060003e3d6000fd5b505050506040513d601f19601f8201168201806040525081019061036c91906113af565b50505b505050565b8373ffffffffffffffffffffffffffffffffffffffff1663128acb088360016103a487610f0a909063ffffffff16565b85336040516020016103b69190611333565b6040516020818303038152906040526040518663ffffffff1660e01b81526004016103e595949392919061135b565b6040604051808303816000875af1158015610405573d600060003e3d6000fd5b505050506040513d601f19601f8201168201806040525081019061042991906113af565b50505b50505050565b8473ffffffffffffffffffffffffffffffffffffffff16633c8a7d8d85858585336040516020016104639190611333565b6040516020818303038152906040526040518663ffffffff1660e01b81526004016104929594939291906113d7565b6040604051808303816000875af11580156104b2573d600060003e3d6000fd5b505050506040513d601f19601f820116820180604052508101906104d6919061143d565b50505b5050505050565b8273ffffffffffffffffffffffffffffffffffffffff1663128acb088260007f7fffffffffffffffffffffffffffffffffffffffffffffffffffffffffffffff86336040516020016105329190611333565b6040516020818303038152906040526040518663ffffffff1660e01b815260040161056195949392919061135b565b6040604051808303816000875af1158015610581573d600060003e3d6000fd5b505050506040513d601f19601f820116820180604052508101906105a591906113af565b50505b505050565b8373ffffffffffffffffffffffffffffffffffffffff1663128acb088360016105dd87610f0a909063ffffffff16565b6105e690611465565b85336040516020016105f89190611333565b6040516020818303038152906040526040518663ffffffff1660e01b815260040161062795949392919061135b565b6040604051808303816000875af1158015610647573d600060003e3d6000fd5b505050506040513d601f19601f8201168201806040525081019061066b91906113af565b50505b50505050565b6000828281019061068591906114ca565b90507fa0968be00566083701c9ef671c169d7fb05ac8907de4ca17185de74ccbb694d485856040516106b89291906114f3565b60405180910390a160008511156107bb573373ffffffffffffffffffffffffffffffffffffffff16630dfe16816040518163ffffffff1660e01b8152600401602060405180830381865afa158015610715573d600060003e3d6000fd5b505050506040513d601f19601f82011682018060405250810190610739919061150c565b73ffffffffffffffffffffffffffffffffffffffff166323b872dd8233886040518463ffffffff1660e01b815260040161077593929190611535565b6020604051808303816000875af1158015610795573d600060003e3d6000fd5b505050506040513d601f19601f820116820180604052508101906107b9919061156f565b505b60008411156108b6573373ffffffffffffffffffffffffffffffffffffffff1663d21220a76040518163ffffffff1660e01b8152600401602060405180830381865afa158015610810573d600060003e3d6000fd5b505050506040513d601f19601f82011682018060405250810190610834919061150c565b73ffffffffffffffffffffffffffffffffffffffff166323b872dd8233876040518463ffffffff1660e01b815260040161087093929190611535565b6020604051808303816000875af1158015610890573d600060003e3d6000fd5b505050506040513d601f19601f820116820180604052508101906108b4919061156f565b505b505b50505050565b8373ffffffffffffffffffffffffffffffffffffffff1663128acb088360006108ee87610f0a909063ffffffff16565b85336040516020016109009190611333565b6040516020818303038152906040526040518663ffffffff1660e01b815260040161092f95949392919061135b565b6040604051808303816000875af115801561094f573d600060003e3d6000fd5b505050506040513d601f19601f8201168201806040525081019061097391906113af565b50505b50505050565b7f2b0391b4fa408cfe47abd1977d72985695b2e5ebd3175f55be25f2c68c5df21b84846040516109ad9291906114f3565b60405180910390a160006000600084848101906109ca91906115a0565b9250925092506000821115610acb573373ffffffffffffffffffffffffffffffffffffffff16630dfe16816040518163ffffffff1660e01b8152600401602060405180830381865afa158015610a25573d600060003e3d6000fd5b505050506040513d601f19601f82011682018060405250810190610a49919061150c565b73ffffffffffffffffffffffffffffffffffffffff166323b872dd8433856040518463ffffffff1660e01b8152600401610a8593929190611535565b6020604051808303816000875af1158015610aa5573d600060003e3d6000fd5b505050506040513d601f19601f82011682018060405250810190610ac9919061156f565b505b6000811115610bc6573373ffffffffffffffffffffffffffffffffffffffff1663d21220a76040518163ffffffff1660e01b8152600401602060405180830381865afa158015610b20573d600060003e3d6000fd5b505050506040513d601f19601f82011682018060405250810190610b44919061150c565b73ffffffffffffffffffffffffffffffffffffffff166323b872dd8433846040518463ffffffff1660e01b8152600401610b8093929190611535565b6020604051808303816000875af1158015610ba0573d600060003e3d6000fd5b505050506040513d601f19601f82011682018060405250810190610bc4919061156f565b505b5050505b50505050565b8373ffffffffffffffffffffffffffffffffffffffff1663128acb08836000610c0087610f0a909063ffffffff16565b610c0990611465565b8533604051602001610c1b9190611333565b6040516020818303038152906040526040518663ffffffff1660e01b8152600401610c4a95949392919061135b565b6040604051808303816000875af1158015610c6a573d600060003e3d6000fd5b505050506040513d601f19601f82011682018060405250810190610c8e91906113af565b50505b50505050565b60008282810190610ca891906114ca565b90507fd48241df4a75e663b29e55f9506b31f77ed0f48cfe7e7612d1163144995dc1ca8585604051610cdb9291906115dc565b60405180910390a16000851315610de2573373ffffffffffffffffffffffffffffffffffffffff16630dfe16816040518163ffffffff1660e01b8152600401602060405180830381865afa158015610d38573d600060003e3d6000fd5b505050506040513d601f19601f82011682018060405250810190610d5c919061150c565b73ffffffffffffffffffffffffffffffffffffffff166323b872dd8233886040518463ffffffff1660e01b8152600401610d9893929190611535565b6020604051808303816000875af1158015610db8573d600060003e3d6000fd5b505050506040513d601f19601f82011682018060405250810190610ddc919061156f565b50610f02565b6000841315610ee1573373ffffffffffffffffffffffffffffffffffffffff1663d21220a76040518163ffffffff1660e01b8152600401602060405180830381865afa158015610e37573d600060003e3d6000fd5b505050506040513d601f19601f82011682018060405250810190610e5b919061150c565b73ffffffffffffffffffffffffffffffffffffffff166323b872dd8233876040518463ffffffff1660e01b8152600401610e9793929190611535565b6020604051808303816000875af1158015610eb7573d600060003e3d6000fd5b505050506040513d601f19601f82011682018060405250810190610edb919061156f565b50610f01565b600085148015610ef15750600084145b1515610f0057610eff6115f5565b5b5b5b505b50505050565b60007f800000000000000000000000000000000000000000000000000000000000000082101515610f3b5760006000fd5b81905080505b91905056611626565b73ffffffffffffffffffffffffffffffffffffffff811681141515610f6f5760006000fd5b505b565b60006000600060006000600060c08789031215610f905760006000fd5b8635610f9b81610f4a565b809650506020870135610fad81610f4a565b8095505060408701359350606087013592506080870135915060a087013590505b9295509295509295565b60006000600060608486031215610fef5760006000fd5b8335610ffa81610f4a565b80935050602084013561100c81610f4a565b80925050604084013561101e81610f4a565b809150505b9250925092565b6000600060006000608085870312156110435760006000fd5b843561104e81610f4a565b8094505060208501359250604085013561106781610f4a565b80925050606085013561107981610f4a565b809150505b92959194509250565b6000813590508060020b8114151561109f5760006000fd5b5b919050565b6000600060006000600060a086880312156110c05760006000fd5b85356110cb81610f4a565b8095505060208601356110dd81610f4a565b809450506110ed60408701611087565b92506110fb60608701611087565b915060808601356fffffffffffffffffffffffffffffffff8116811415156111235760006000fd5b809150505b9295509295909350565b6000600083601f84011215156111485760006000fd5b8235905067ffffffffffffffff8111156111625760006000fd5b60208301915083602082850101111561117b5760006000fd5b5b9250929050565b60006000600060006060858703121561119c5760006000fd5b8435935060208501359250604085013567ffffffffffffffff8111156111c25760006000fd5b6111ce87828801611132565b915080935050809150505b92959194509250565b6000600060006000606085870312156111fb5760006000fd5b8435935060208501359250604085013567ffffffffffffffff8111156112215760006000fd5b61122d87828801611132565b915080935050809150505b92959194509250565b600060608201905073ffffffffffffffffffffffffffffffffffffffff851682528360208301528260408301525b949350505050565b6000815180845260005b818110156112a4576020808286010151818388010152505b602081019050611281565b818111156112b6576000602083870101525b5060207fffffffffffffffffffffffffffffffffffffffffffffffffffffffffffffffe0601f8301168501019150505b92915050565b73ffffffffffffffffffffffffffffffffffffffff851681528360208201528260408201526080606082015260006113276080830184611277565b90505b95945050505050565b600060208201905073ffffffffffffffffffffffffffffffffffffffff831682525b92915050565b600073ffffffffffffffffffffffffffffffffffffffff8088168352861515602084015285604084015280851660608401525060a060808301526113a260a0830184611277565b90505b9695505050505050565b60006000604083850312156113c45760006000fd5b82519150602083015190505b9250929050565b73ffffffffffffffffffffffffffffffffffffffff861681528460020b60208201528360020b60408201526fffffffffffffffffffffffffffffffff8316606082015260a06080820152600061143060a0830184611277565b90505b9695505050505050565b60006000604083850312156114525760006000fd5b82519150602083015190505b9250929050565b60007f80000000000000000000000000000000000000000000000000000000000000008214156114be577f4e487b7100000000000000000000000000000000000000000000000000000000600052601160045260246000fd5b8160000390505b919050565b6000602082840312156114dd5760006000fd5b81356114e881610f4a565b809150505b92915050565b60006040820190508382528260208301525b9392505050565b60006020828403121561151f5760006000fd5b815161152a81610f4a565b809150505b92915050565b600060608201905073ffffffffffffffffffffffffffffffffffffffff80861683528085166020840152508260408301525b949350505050565b6000602082840312156115825760006000fd5b8151801515811415156115955760006000fd5b809150505b92915050565b600060006000606084860312156115b75760006000fd5b83356115c281610f4a565b8093505060208401359150604084013590505b9250925092565b60006040820190508382528260208301525b9392505050565b7f4e487b7100000000000000000000000000000000000000000000000000000000600052600160045260246000fd5b565bfea26469706673582212209eb5706ff0044667a87aa104e0189ed853fd9d4581ad43a3b93a025b91a3d1cd64736f6c634300080c0033",
  "linkReferences": {},
  "deployedLinkReferences": {}
}