{
  "_format": "hh-sol-artifact-1",
  "contractName": "MockTcpAllocation",
  "sourceName": "contracts/mocks/MockTcpAllocation.sol",
  "abi": [
    {
      "inputs": [
        {
          "internalType": "address",
          "name": "",
          "type": "address"
        }
      ],
      "name": "allocations",
      "outputs": [
        {
          "internalType": "uint128",
          "name": "",
          "type": "uint128"
        }
      ],
      "stateMutability": "view",
      "type": "function"
    },
    {
      "inputs": [
        {
          "internalType": "address",
          "name": "",
          "type": "address"
        },
        {
          "internalType": "uint128",
          "name": "",
          "type": "uint128"
        }
      ],
      "name": "getTokens",
      "outputs": [],
      "stateMutability": "nonpayable",
      "type": "function"
    },
    {
      "inputs": [],
      "name": "incentiveGuardian",
      "outputs": [
        {
          "internalType": "address",
          "name": "",
          "type": "address"
        }
      ],
      "stateMutability": "view",
      "type": "function"
    },
    {
      "inputs": [
        {
          "internalType": "address",
          "name": "allocatee",
          "type": "address"
        },
        {
          "internalType": "uint128",
          "name": "count",
          "type": "uint128"
        }
      ],
      "name": "increaseAllocation",
      "outputs": [],
      "stateMutability": "nonpayable",
      "type": "function"
    },
    {
      "inputs": [
        {
          "internalType": "address",
          "name": "",
          "type": "address"
        },
        {
          "internalType": "uint128",
          "name": "",
          "type": "uint128"
        },
        {
          "internalType": "uint8",
          "name": "",
          "type": "uint8"
        }
      ],
      "name": "lockTokensIntoDao",
      "outputs": [],
      "stateMutability": "nonpayable",
      "type": "function"
    }
  ],
  "bytecode": "0x60806040523480156100115760006000fd5b50610017565b610551806100266000396000f3fe60806040523480156100115760006000fd5b506004361061006c5760003560e01c806368f3ba0d1161005157806368f3ba0d1461014b578063a9778eb01461017f578063ee5f1ee4146101e05761006c565b806352a9039c14610072578063628e2e85146100dd5761006c565b60006000fd5b6100b5600480360360208110156100895760006000fd5b81019080803573ffffffffffffffffffffffffffffffffffffffff169060200190929190505050610241565b60405180826fffffffffffffffffffffffffffffffff16815260200191505060405180910390f35b610149600480360360608110156100f45760006000fd5b81019080803573ffffffffffffffffffffffffffffffffffffffff16906020019092919080356fffffffffffffffffffffffffffffffff169060200190929190803560ff169060200190929190505050610275565b005b6101536102eb565b604051808273ffffffffffffffffffffffffffffffffffffffff16815260200191505060405180910390f35b6101de600480360360408110156101965760006000fd5b81019080803573ffffffffffffffffffffffffffffffffffffffff16906020019092919080356fffffffffffffffffffffffffffffffff1690602001909291905050506102f9565b005b61023f600480360360408110156101f75760006000fd5b81019080803573ffffffffffffffffffffffffffffffffffffffff16906020019092919080356fffffffffffffffffffffffffffffffff16906020019092919050505061036e565b005b600060005060205280600052604060002060009150909054906101000a90046fffffffffffffffffffffffffffffffff1681565b6040517f08c379a000000000000000000000000000000000000000000000000000000000815260040180806020018281038252600f8152602001807f4e6f7420496d706c656d656e746564000000000000000000000000000000000081526020015060200191505060405180910390fd5b505050565b6000600090506102f6565b90565b6040517f08c379a000000000000000000000000000000000000000000000000000000000815260040180806020018281038252600f8152602001807f4e6f7420496d706c656d656e746564000000000000000000000000000000000081526020015060200191505060405180910390fd5b5050565b6103f181600060005060008573ffffffffffffffffffffffffffffffffffffffff1673ffffffffffffffffffffffffffffffffffffffff16815260200190815260200160002060009054906101000a90046fffffffffffffffffffffffffffffffff166fffffffffffffffffffffffffffffffff1661046e90919063ffffffff16565b600060005060008473ffffffffffffffffffffffffffffffffffffffff1673ffffffffffffffffffffffffffffffffffffffff16815260200190815260200160002060006101000a8154816fffffffffffffffffffffffffffffffff02191690836fffffffffffffffffffffffffffffffff1602179055505b5050565b6000826fffffffffffffffffffffffffffffffff168284019150816fffffffffffffffffffffffffffffffff1610151515610514576040517f08c379a000000000000000000000000000000000000000000000000000000000815260040180806020018281038252600c8152602001807f6164642d6f766572666c6f77000000000000000000000000000000000000000081526020015060200191505060405180910390fd5b5b9291505056fea2646970667358221220042f6cdea82e31a74d1fe4279440aad7f55bc63f0f2072856ff77c048a87def364736f6c63430007060033",
  "linkReferences": {},
  "deployedLinkReferences": {}
}