{
  "_format": "hh-sol-artifact-1",
  "contractName": "SqrtPriceMathEchidnaTest",
  "sourceName": "contracts/uniswap-v3-core/test/SqrtPriceMathEchidnaTest.sol",
  "abi": [
    {
      "inputs": [
        {
          "internalType": "uint160",
          "name": "sqrtP",
          "type": "uint160"
        },
        {
          "internalType": "uint160",
          "name": "sqrtQ",
          "type": "uint160"
        },
        {
          "internalType": "uint128",
          "name": "liquidity",
          "type": "uint128"
        },
        {
          "internalType": "bool",
          "name": "roundUp",
          "type": "bool"
        }
      ],
      "name": "getAmount0DeltaEquivalency",
      "outputs": [],
      "stateMutability": "pure",
      "type": "function"
    },
    {
      "inputs": [
        {
          "internalType": "uint160",
          "name": "sqrtP",
          "type": "uint160"
        },
        {
          "internalType": "uint160",
          "name": "sqrtQ",
          "type": "uint160"
        },
        {
          "internalType": "uint128",
          "name": "liquidity",
          "type": "uint128"
        }
      ],
      "name": "getAmount0DeltaInvariants",
      "outputs": [],
      "stateMutability": "pure",
      "type": "function"
    },
    {
      "inputs": [
        {
          "internalType": "uint160",
          "name": "sqrtP",
          "type": "uint160"
        },
        {
          "internalType": "uint160",
          "name": "sqrtQ",
          "type": "uint160"
        },
        {
          "internalType": "int128",
          "name": "liquidity",
          "type": "int128"
        }
      ],
      "name": "getAmount0DeltaSignedInvariants",
      "outputs": [],
      "stateMutability": "pure",
      "type": "function"
    },
    {
      "inputs": [
        {
          "internalType": "uint160",
          "name": "sqrtP",
          "type": "uint160"
        },
        {
          "internalType": "uint160",
          "name": "sqrtQ",
          "type": "uint160"
        },
        {
          "internalType": "uint128",
          "name": "liquidity",
          "type": "uint128"
        }
      ],
      "name": "getAmount1DeltaInvariants",
      "outputs": [],
      "stateMutability": "pure",
      "type": "function"
    },
    {
      "inputs": [
        {
          "internalType": "uint160",
          "name": "sqrtP",
          "type": "uint160"
        },
        {
          "internalType": "uint160",
          "name": "sqrtQ",
          "type": "uint160"
        },
        {
          "internalType": "int128",
          "name": "liquidity",
          "type": "int128"
        }
      ],
      "name": "getAmount1DeltaSignedInvariants",
      "outputs": [],
      "stateMutability": "pure",
      "type": "function"
    },
    {
      "inputs": [
        {
          "internalType": "uint160",
          "name": "sqrtLower",
          "type": "uint160"
        },
        {
          "internalType": "uint160",
          "name": "sqrtCurrent",
          "type": "uint160"
        },
        {
          "internalType": "uint160",
          "name": "sqrtUpper",
          "type": "uint160"
        },
        {
          "internalType": "int128",
          "name": "liquidity",
          "type": "int128"
        }
      ],
      "name": "getInRangeMintInvariants",
      "outputs": [],
      "stateMutability": "pure",
      "type": "function"
    },
    {
      "inputs": [
        {
          "internalType": "uint160",
          "name": "sqrtPX96",
          "type": "uint160"
        },
        {
          "internalType": "uint128",
          "name": "liquidity",
          "type": "uint128"
        },
        {
          "internalType": "uint256",
          "name": "amount",
          "type": "uint256"
        },
        {
          "internalType": "bool",
          "name": "add",
          "type": "bool"
        }
      ],
      "name": "getNextSqrtPriceFromAmount0RoundingUpInvariants",
      "outputs": [],
      "stateMutability": "pure",
      "type": "function"
    },
    {
      "inputs": [
        {
          "internalType": "uint160",
          "name": "sqrtPX96",
          "type": "uint160"
        },
        {
          "internalType": "uint128",
          "name": "liquidity",
          "type": "uint128"
        },
        {
          "internalType": "uint256",
          "name": "amount",
          "type": "uint256"
        },
        {
          "internalType": "bool",
          "name": "add",
          "type": "bool"
        }
      ],
      "name": "getNextSqrtPriceFromAmount1RoundingDownInvariants",
      "outputs": [],
      "stateMutability": "pure",
      "type": "function"
    },
    {
      "inputs": [
        {
          "internalType": "uint160",
          "name": "sqrtP",
          "type": "uint160"
        },
        {
          "internalType": "uint128",
          "name": "liquidity",
          "type": "uint128"
        },
        {
          "internalType": "uint256",
          "name": "amountIn",
          "type": "uint256"
        },
        {
          "internalType": "bool",
          "name": "zeroForOne",
          "type": "bool"
        }
      ],
      "name": "getNextSqrtPriceFromInputInvariants",
      "outputs": [],
      "stateMutability": "pure",
      "type": "function"
    },
    {
      "inputs": [
        {
          "internalType": "uint160",
          "name": "sqrtP",
          "type": "uint160"
        },
        {
          "internalType": "uint128",
          "name": "liquidity",
          "type": "uint128"
        },
        {
          "internalType": "uint256",
          "name": "amountOut",
          "type": "uint256"
        },
        {
          "internalType": "bool",
          "name": "zeroForOne",
          "type": "bool"
        }
      ],
      "name": "getNextSqrtPriceFromOutputInvariants",
      "outputs": [],
      "stateMutability": "pure",
      "type": "function"
    },
    {
      "inputs": [
        {
          "internalType": "uint160",
          "name": "sqrtA",
          "type": "uint160"
        },
        {
          "internalType": "uint160",
          "name": "sqrtB",
          "type": "uint160"
        },
        {
          "internalType": "int128",
          "name": "liquidity",
          "type": "int128"
        }
      ],
      "name": "getOutOfRangeMintInvariants",
      "outputs": [],
      "stateMutability": "pure",
      "type": "function"
    },
    {
      "inputs": [
        {
          "internalType": "uint256",
          "name": "x",
          "type": "uint256"
        },
        {
          "internalType": "uint256",
          "name": "y",
          "type": "uint256"
        },
        {
          "internalType": "uint256",
          "name": "z",
          "type": "uint256"
        }
      ],
      "name": "mulDivRoundingUpInvariants",
      "outputs": [],
      "stateMutability": "pure",
      "type": "function"
    }
  ],
  "bytecode": "0x60806040523480156100115760006000fd5b50610017565b611f34806100266000396000f3fe60806040523480156100115760006000fd5b50600436106100d95760003560e01c80638e13a4b911610082578063b712c47c1161005c578063b712c47c146101db578063c8569d88146101f7578063f157fb5014610213576100d9565b80638e13a4b914610187578063b29f199e146101a3578063b46e6714146101bf576100d9565b806339933d51116100b357806339933d51146101335780633d7291471461014f5780636e6238d71461016b576100d9565b80631faf4a39146100df57806321e14f8b146100fb5780633001e65e14610117576100d9565b60006000fd5b6100f960048036038101906100f49190611a6f565b61022f565b005b61011560048036038101906101109190611a6f565b610321565b005b610131600480360381019061012c9190611ac0565b610459565b005b61014d60048036038101906101489190611b24565b610550565b005b61016960048036038101906101649190611b7c565b610689565b005b61018560048036038101906101809190611bad565b610762565b005b6101a1600480360381019061019c9190611bf3565b610874565b005b6101bd60048036038101906101b89190611bad565b610a2e565b005b6101d960048036038101906101d49190611a6f565b610b40565b005b6101f560048036038101906101f09190611bad565b610c78565b005b610211600480360381019061020c9190611ac0565b610d8b565b005b61022d60048036038101906102289190611a6f565b610e82565b005b600061024385858585610f9d63ffffffff16565b905081156102b4578473ffffffffffffffffffffffffffffffffffffffff168173ffffffffffffffffffffffffffffffffffffffff161115151561028a57610289611c4b565b5b61029d818686600161102763ffffffff16565b83101515156102af576102ae611c4b565b5b610319565b8473ffffffffffffffffffffffffffffffffffffffff168173ffffffffffffffffffffffffffffffffffffffff16101515156102f3576102f2611c4b565b5b610306858286600161118463ffffffff16565b831015151561031857610317611c4b565b5b5b505b50505050565b60008473ffffffffffffffffffffffffffffffffffffffff161115156103475760006000fd5b6000836fffffffffffffffffffffffffffffffff161115156103695760006000fd5b600061037d8585858561128163ffffffff16565b905081156103c9578473ffffffffffffffffffffffffffffffffffffffff168173ffffffffffffffffffffffffffffffffffffffff16101515156103c4576103c3611c4b565b5b610409565b8473ffffffffffffffffffffffffffffffffffffffff168173ffffffffffffffffffffffffffffffffffffffff161115151561040857610407611c4b565b5b5b6000831415610451578073ffffffffffffffffffffffffffffffffffffffff168573ffffffffffffffffffffffffffffffffffffffff161415156104505761044f611c4b565b5b5b505b50505050565b60008373ffffffffffffffffffffffffffffffffffffffff16118015610495575060008273ffffffffffffffffffffffffffffffffffffffff16115b15156104a15760006000fd5b60006104b6838584600061102763ffffffff16565b90506104cb848484600061102763ffffffff16565b811415156104dc576104db611c4b565b5b60006104f1848685600161102763ffffffff16565b9050610506858585600161102763ffffffff16565b8114151561051757610516611c4b565b5b80821115151561052a57610529611c4b565b5b600282826105389190611cad565b10151561054857610547611c4b565b5b50505b505050565b60008473ffffffffffffffffffffffffffffffffffffffff161115156105765760006000fd5b8173ffffffffffffffffffffffffffffffffffffffff168473ffffffffffffffffffffffffffffffffffffffff161015156105b15760006000fd5b8273ffffffffffffffffffffffffffffffffffffffff168473ffffffffffffffffffffffffffffffffffffffff161115801561061957508173ffffffffffffffffffffffffffffffffffffffff168373ffffffffffffffffffffffffffffffffffffffff1611155b15156106255760006000fd5b600081600f0b1315156106385760006000fd5b600061064b84848461144e63ffffffff16565b905060006106608686856114c763ffffffff16565b905060008213806106715750600081135b15156106805761067f611c4b565b5b50505b50505050565b6000811115156106995760006000fd5b60006106ac84848461154063ffffffff16565b905060006106c185858561166463ffffffff16565b90508181101515156106d6576106d5611c4b565b5b600282826106e49190611cad565b1015156106f4576106f3611c4b565b5b600182826107029190611cad565b14156107335760008380151561071b5761071a611ccc565b5b85870911151561072e5761072d611c4b565b5b61075a565b60008380151561074657610745611ccc565b5b85870914151561075957610758611c4b565b5b5b50505b505050565b60008373ffffffffffffffffffffffffffffffffffffffff1611801561079e575060008273ffffffffffffffffffffffffffffffffffffffff16115b15156107aa5760006000fd5b60006107bd8484846114c763ffffffff16565b9050600082600f0b12156107e057600081131515156107df576107de611c4b565b5b5b600082600f0b131561084d578273ffffffffffffffffffffffffffffffffffffffff168473ffffffffffffffffffffffffffffffffffffffff1614156108385760008114151561083357610832611c4b565b5b61084c565b60008113151561084b5761084a611c4b565b5b5b5b600082600f0b141561086d5760008114151561086c5761086b611c4b565b5b5b505b505050565b8273ffffffffffffffffffffffffffffffffffffffff168473ffffffffffffffffffffffffffffffffffffffff16101515156108b05760006000fd5b60008473ffffffffffffffffffffffffffffffffffffffff161180156108ec575060008373ffffffffffffffffffffffffffffffffffffffff16115b15156108f85760006000fd5b8273ffffffffffffffffffffffffffffffffffffffff1684848661091c9190611cfd565b6109269190611d40565b73ffffffffffffffffffffffffffffffffffffffff161415156109495760006000fd5b6000606060ff16836fffffffffffffffffffffffffffffffff16901b9050600084866109759190611d7a565b73ffffffffffffffffffffffffffffffffffffffff16905060008573ffffffffffffffffffffffffffffffffffffffff168773ffffffffffffffffffffffffffffffffffffffff166109c79190611db8565b90506000846109e6576109e184848461154063ffffffff16565b6109f8565b6109f784848461166463ffffffff16565b5b90506000610a0e888a898961102763ffffffff16565b90508082141515610a2257610a21611c4b565b5b50505050505b50505050565b60008373ffffffffffffffffffffffffffffffffffffffff16118015610a6a575060008273ffffffffffffffffffffffffffffffffffffffff16115b1515610a765760006000fd5b6000610a8983858461144e63ffffffff16565b9050600082600f0b1215610aac5760008113151515610aab57610aaa611c4b565b5b5b600082600f0b1315610b19578273ffffffffffffffffffffffffffffffffffffffff168473ffffffffffffffffffffffffffffffffffffffff161415610b0457600081141515610aff57610afe611c4b565b5b610b18565b600081131515610b1757610b16611c4b565b5b5b5b600082600f0b1415610b3957600081141515610b3857610b37611c4b565b5b5b505b505050565b60008473ffffffffffffffffffffffffffffffffffffffff16111515610b665760006000fd5b6000836fffffffffffffffffffffffffffffffff16111515610b885760006000fd5b6000610b9c858585856116dd63ffffffff16565b90508115610be8578473ffffffffffffffffffffffffffffffffffffffff168173ffffffffffffffffffffffffffffffffffffffff1611151515610be357610be2611c4b565b5b610c28565b8473ffffffffffffffffffffffffffffffffffffffff168173ffffffffffffffffffffffffffffffffffffffff1610151515610c2757610c26611c4b565b5b5b6000831415610c70578073ffffffffffffffffffffffffffffffffffffffff168573ffffffffffffffffffffffffffffffffffffffff16141515610c6f57610c6e611c4b565b5b5b505b50505050565b60008373ffffffffffffffffffffffffffffffffffffffff16118015610cb4575060008273ffffffffffffffffffffffffffffffffffffffff16115b1515610cc05760006000fd5b600081600f0b131515610cd35760006000fd5b6000610ce684848461144e63ffffffff16565b90506000610cfb8585856114c763ffffffff16565b90508373ffffffffffffffffffffffffffffffffffffffff168573ffffffffffffffffffffffffffffffffffffffff161415610d5c57600082141515610d4457610d43611c4b565b5b600081141515610d5757610d56611c4b565b5b610d83565b600082131515610d6f57610d6e611c4b565b5b600081131515610d8257610d81611c4b565b5b5b50505b505050565b60008373ffffffffffffffffffffffffffffffffffffffff16118015610dc7575060008273ffffffffffffffffffffffffffffffffffffffff16115b1515610dd35760006000fd5b6000610de8848484600061118463ffffffff16565b9050610dfd838584600061118463ffffffff16565b81141515610e0e57610e0d611c4b565b5b6000610e23858585600161118463ffffffff16565b9050610e38848685600161118463ffffffff16565b81141515610e4957610e48611c4b565b5b808211151515610e5c57610e5b611c4b565b5b60028282610e6a9190611cad565b101515610e7a57610e79611c4b565b5b50505b505050565b6000610e96858585856118be63ffffffff16565b90508115610f07578473ffffffffffffffffffffffffffffffffffffffff168173ffffffffffffffffffffffffffffffffffffffff1611151515610edd57610edc611c4b565b5b610ef0818686600061118463ffffffff16565b8311151515610f0257610f01611c4b565b5b610f95565b60008173ffffffffffffffffffffffffffffffffffffffff16111515610f3057610f2f611c4b565b5b8473ffffffffffffffffffffffffffffffffffffffff168173ffffffffffffffffffffffffffffffffffffffff1610151515610f6f57610f6e611c4b565b5b610f82858286600061102763ffffffff16565b8311151515610f9457610f93611c4b565b5b5b505b50505050565b600060008573ffffffffffffffffffffffffffffffffffffffff16111515610fc55760006000fd5b6000846fffffffffffffffffffffffffffffffff16111515610fe75760006000fd5b8161100457610fff858585600161128163ffffffff16565b611018565b61101785858560016116dd63ffffffff16565b5b905061101f565b949350505050565b60008373ffffffffffffffffffffffffffffffffffffffff168573ffffffffffffffffffffffffffffffffffffffff16111561106857838580955081965050505b6000606060ff16846fffffffffffffffffffffffffffffffff16901b9050600086866110949190611d7a565b73ffffffffffffffffffffffffffffffffffffffff16905060008773ffffffffffffffffffffffffffffffffffffffff161115156110d25760006000fd5b83611124578673ffffffffffffffffffffffffffffffffffffffff1661111583838973ffffffffffffffffffffffffffffffffffffffff1661154063ffffffff16565b61111f9190611dfd565b611171565b61117061114e83838973ffffffffffffffffffffffffffffffffffffffff1661166463ffffffff16565b8873ffffffffffffffffffffffffffffffffffffffff1661194863ffffffff16565b5b9250505061117c5650505b949350505050565b60008373ffffffffffffffffffffffffffffffffffffffff168573ffffffffffffffffffffffffffffffffffffffff1611156111c557838580955081965050505b816112205761121b836fffffffffffffffffffffffffffffffff1686866111ec9190611d7a565b73ffffffffffffffffffffffffffffffffffffffff166c0100000000000000000000000061154063ffffffff16565b611272565b611271836fffffffffffffffffffffffffffffffff1686866112429190611d7a565b73ffffffffffffffffffffffffffffffffffffffff166c0100000000000000000000000061166463ffffffff16565b5b9050611279565b949350505050565b6000811561136057600073ffffffffffffffffffffffffffffffffffffffff73ffffffffffffffffffffffffffffffffffffffff168411156112f2576112ed846c01000000000000000000000000876fffffffffffffffffffffffffffffffff1661154063ffffffff16565b611318565b846fffffffffffffffffffffffffffffffff16606060ff1685901b6113179190611dfd565b5b9050611353611346828873ffffffffffffffffffffffffffffffffffffffff1661195d90919063ffffffff16565b611984909063ffffffff16565b9150506114465650611445565b600073ffffffffffffffffffffffffffffffffffffffff73ffffffffffffffffffffffffffffffffffffffff168411156113c9576113c4846c01000000000000000000000000876fffffffffffffffffffffffffffffffff1661166463ffffffff16565b6113f3565b6113f2606060ff1685901b866fffffffffffffffffffffffffffffffff1661194863ffffffff16565b5b9050808673ffffffffffffffffffffffffffffffffffffffff1611151561141a5760006000fd5b808673ffffffffffffffffffffffffffffffffffffffff1661143c9190611cad565b91505061144656505b5b949350505050565b6000600082600f0b126114835761147e611471858585600161102763ffffffff16565b6119b4909063ffffffff16565b6114b9565b6114af6114a285858561149590611e1b565b600061102763ffffffff16565b6119b4909063ffffffff16565b6114b890611e5f565b5b90506114c0565b9392505050565b6000600082600f0b126114fc576114f76114ea858585600161118463ffffffff16565b6119b4909063ffffffff16565b611532565b61152861151b85858561150e90611e1b565b600061118463ffffffff16565b6119b4909063ffffffff16565b61153190611e5f565b5b9050611539565b9392505050565b6000600060006000198587098587029250828110838203039150506000811415611583576000841115156115745760006000fd5b8382049250829250505061165d565b80841115156115925760006000fd5b60008486880990508281118203915080830392506000856001877fffffffffffffffffffffffffffffffffffffffffffffffffffffffffffffffff03011690508050808604955080840493506001818260000304019050808302841793508350600060028760030218905080870260020381029050805080870260020381029050805080870260020381029050805080870260020381029050805080870260020381029050805080870260020381029050805080850295508550508494505050505061165d56505050505b9392505050565b600061167784848461154063ffffffff16565b9050805060008280151561168e5761168d611ccc565b5b84860911156116d5577fffffffffffffffffffffffffffffffffffffffffffffffffffffffffffffffff811015156116c65760006000fd5b80806116d190611e9e565b9150505b5b9392505050565b600060008314156116f0578490506118b6565b6000606060ff16856fffffffffffffffffffffffffffffffff16901b905082156118005760008673ffffffffffffffffffffffffffffffffffffffff16858873ffffffffffffffffffffffffffffffffffffffff16876117509190611db8565b92508261175d9190611dfd565b14156117af57600081836117719190611edd565b905082811015156117ad576117a3838973ffffffffffffffffffffffffffffffffffffffff168361166463ffffffff16565b93505050506118b6565b505b6117f2826117e7878a73ffffffffffffffffffffffffffffffffffffffff16866117d99190611dfd565b61195d90919063ffffffff16565b61194863ffffffff16565b925050506118b656506118b4565b60008673ffffffffffffffffffffffffffffffffffffffff16858873ffffffffffffffffffffffffffffffffffffffff168761183c9190611db8565b9250826118499190611dfd565b14801561185557508082115b15156118615760006000fd5b6000818361186f9190611cad565b90506118a861189b848a73ffffffffffffffffffffffffffffffffffffffff168461166463ffffffff16565b611984909063ffffffff16565b93505050506118b65650505b505b949350505050565b600060008573ffffffffffffffffffffffffffffffffffffffff161115156118e65760006000fd5b6000846fffffffffffffffffffffffffffffffff161115156119085760006000fd5b816119255761192085858560006116dd63ffffffff16565b611939565b611938858585600061128163ffffffff16565b5b9050611940565b949350505050565b60006000828406118284040190505b92915050565b600082828461196c9190611edd565b9150811015151561197d5760006000fd5b5b92915050565b6000818291508173ffffffffffffffffffffffffffffffffffffffff161415156119ae5760006000fd5b5b919050565b60007f8000000000000000000000000000000000000000000000000000000000000000821015156119e55760006000fd5b81905080505b91905056611efd565b60008135905073ffffffffffffffffffffffffffffffffffffffff811681141515611a1f5760006000fd5b5b919050565b6000813590506fffffffffffffffffffffffffffffffff811681141515611a4c5760006000fd5b5b919050565b60008135905080151581141515611a695760006000fd5b5b919050565b600060006000600060808587031215611a885760006000fd5b611a91856119f4565b9350611a9f60208601611a25565b925060408501359150611ab460608601611a52565b90505b92959194509250565b60006000600060608486031215611ad75760006000fd5b611ae0846119f4565b9250611aee602085016119f4565b9150611afc60408501611a25565b90505b9250925092565b60008135905080600f0b81141515611b1e5760006000fd5b5b919050565b600060006000600060808587031215611b3d5760006000fd5b611b46856119f4565b9350611b54602086016119f4565b9250611b62604086016119f4565b9150611b7060608601611b06565b90505b92959194509250565b60006000600060608486031215611b935760006000fd5b8335925060208401359150604084013590505b9250925092565b60006000600060608486031215611bc45760006000fd5b611bcd846119f4565b9250611bdb602085016119f4565b9150611be960408501611b06565b90505b9250925092565b600060006000600060808587031215611c0c5760006000fd5b611c15856119f4565b9350611c23602086016119f4565b9250611c3160408601611a25565b9150611c3f60608601611a52565b90505b92959194509250565b7f4e487b7100000000000000000000000000000000000000000000000000000000600052600160045260246000fd5b565b7f4e487b7100000000000000000000000000000000000000000000000000000000600052601160045260246000fd5b565b600082821015611cc057611cbf611c7c565b5b82820390505b92915050565b7f4e487b7100000000000000000000000000000000000000000000000000000000600052601260045260246000fd5b565b600073ffffffffffffffffffffffffffffffffffffffff80831681851681830481118215151615611d3157611d30611c7c565b5b80820293505050505b92915050565b600073ffffffffffffffffffffffffffffffffffffffff808416801515611d6a57611d69611ccc565b5b8082851604925050505b92915050565b600073ffffffffffffffffffffffffffffffffffffffff808316818516915081811015611daa57611da9611c7c565b5b818103925050505b92915050565b6000817fffffffffffffffffffffffffffffffffffffffffffffffffffffffffffffffff0483118215151615611df157611df0611c7c565b5b82820290505b92915050565b6000821515611e0f57611e0e611ccc565b5b82820490505b92915050565b600081600f0b7fffffffffffffffffffffffffffffffff80000000000000000000000000000000811415611e5257611e51611c7c565b5b806000039150505b919050565b60007f8000000000000000000000000000000000000000000000000000000000000000821415611e9257611e91611c7c565b5b8160000390505b919050565b60007fffffffffffffffffffffffffffffffffffffffffffffffffffffffffffffffff821415611ed157611ed0611c7c565b5b6001820190505b919050565b60008219821115611ef157611ef0611c7c565b5b82820190505b92915050565bfea264697066735822122038e3cf0bed9e7a467dd81309d93d102b1c6c6ed53801a51be4ca5c1417bcb47864736f6c634300080c0033",
  "linkReferences": {},
  "deployedLinkReferences": {}
}