{
  "_format": "hh-sol-artifact-1",
  "contractName": "RatesTestable",
  "sourceName": "contracts/mocks/RatesTestable.sol",
  "abi": [
    {
      "inputs": [
        {
          "components": [
            {
              "internalType": "contract IGovernor",
              "name": "Governor",
              "type": "address"
            },
            {
              "internalType": "contract IProtocolLock",
              "name": "ProtocolLock",
              "type": "address"
            },
            {
              "internalType": "contract IUniswapV3Pool",
              "name": "CollateralPool",
              "type": "address"
            },
            {
              "internalType": "contract IUniswapV3Pool[]",
              "name": "ReferencePools",
              "type": "address[]"
            }
          ],
          "internalType": "struct IRates.ConstructorParams",
          "name": "params",
          "type": "tuple"
        }
      ],
      "stateMutability": "nonpayable",
      "type": "constructor"
    },
    {
      "anonymous": false,
      "inputs": [
        {
          "indexed": false,
          "internalType": "uint128",
          "name": "error",
          "type": "uint128"
        }
      ],
      "name": "AcceptableErrorUpdated",
      "type": "event"
    },
    {
      "anonymous": false,
      "inputs": [
        {
          "indexed": false,
          "internalType": "uint128",
          "name": "error",
          "type": "uint128"
        }
      ],
      "name": "ErrorIntervalUpdated",
      "type": "event"
    },
    {
      "anonymous": false,
      "inputs": [
        {
          "indexed": false,
          "internalType": "uint128",
          "name": "step",
          "type": "uint128"
        }
      ],
      "name": "InterestRateStepUpdated",
      "type": "event"
    },
    {
      "anonymous": false,
      "inputs": [
        {
          "indexed": false,
          "internalType": "int128",
          "name": "max",
          "type": "int128"
        }
      ],
      "name": "MaxRateUpdated",
      "type": "event"
    },
    {
      "anonymous": false,
      "inputs": [
        {
          "indexed": false,
          "internalType": "uint64",
          "name": "steps",
          "type": "uint64"
        }
      ],
      "name": "MaxStepsUpdated",
      "type": "event"
    },
    {
      "anonymous": false,
      "inputs": [
        {
          "indexed": false,
          "internalType": "int128",
          "name": "min",
          "type": "int128"
        }
      ],
      "name": "MinRateUpdated",
      "type": "event"
    },
    {
      "anonymous": false,
      "inputs": [
        {
          "indexed": false,
          "internalType": "uint64",
          "name": "time",
          "type": "uint64"
        }
      ],
      "name": "MinTimeBetweenUpdatesUpdated",
      "type": "event"
    },
    {
      "anonymous": false,
      "inputs": [
        {
          "indexed": false,
          "internalType": "int256",
          "name": "interestRate",
          "type": "int256"
        },
        {
          "indexed": false,
          "internalType": "uint256",
          "name": "price",
          "type": "uint256"
        },
        {
          "indexed": false,
          "internalType": "uint256",
          "name": "rewardCount",
          "type": "uint256"
        },
        {
          "indexed": false,
          "internalType": "uint64",
          "name": "nextUpdateTime",
          "type": "uint64"
        }
      ],
      "name": "RateUpdated",
      "type": "event"
    },
    {
      "anonymous": false,
      "inputs": [
        {
          "indexed": false,
          "internalType": "address",
          "name": "pool",
          "type": "address"
        }
      ],
      "name": "ReferencePoolAdded",
      "type": "event"
    },
    {
      "anonymous": false,
      "inputs": [
        {
          "indexed": false,
          "internalType": "address",
          "name": "pool",
          "type": "address"
        }
      ],
      "name": "ReferencePoolRemoved",
      "type": "event"
    },
    {
      "anonymous": false,
      "inputs": [],
      "name": "Stopped",
      "type": "event"
    },
    {
      "inputs": [
        {
          "internalType": "contract IUniswapV3Pool",
          "name": "pool",
          "type": "address"
        }
      ],
      "name": "addReferencePool",
      "outputs": [],
      "stateMutability": "nonpayable",
      "type": "function"
    },
    {
      "inputs": [
        {
          "internalType": "uint256[]",
          "name": "referencePrices",
          "type": "uint256[]"
        },
        {
          "internalType": "uint256",
          "name": "collateralPrice",
          "type": "uint256"
        }
      ],
      "name": "calculatePrice",
      "outputs": [
        {
          "internalType": "uint256",
          "name": "",
          "type": "uint256"
        }
      ],
      "stateMutability": "pure",
      "type": "function"
    },
    {
      "inputs": [
        {
          "internalType": "int256",
          "name": "rate",
          "type": "int256"
        },
        {
          "components": [
            {
              "internalType": "uint128",
              "name": "acceptableError",
              "type": "uint128"
            },
            {
              "internalType": "uint128",
              "name": "errorInterval",
              "type": "uint128"
            },
            {
              "internalType": "uint128",
              "name": "interestRateStep",
              "type": "uint128"
            },
            {
              "internalType": "uint64",
              "name": "maxSteps",
              "type": "uint64"
            },
            {
              "internalType": "int128",
              "name": "minRate",
              "type": "int128"
            },
            {
              "internalType": "int128",
              "name": "maxRate",
              "type": "int128"
            }
          ],
          "internalType": "struct Rates.InterestRateParameters",
          "name": "rp",
          "type": "tuple"
        },
        {
          "internalType": "uint256",
          "name": "price",
          "type": "uint256"
        }
      ],
      "name": "calculateRate",
      "outputs": [
        {
          "internalType": "int256",
          "name": "",
          "type": "int256"
        }
      ],
      "stateMutability": "pure",
      "type": "function"
    },
    {
      "inputs": [
        {
          "components": [
            {
              "internalType": "int256",
              "name": "rate",
              "type": "int256"
            },
            {
              "internalType": "uint64",
              "name": "nextUpdateTime",
              "type": "uint64"
            },
            {
              "internalType": "uint128",
              "name": "rewardCount",
              "type": "uint128"
            }
          ],
          "internalType": "struct Rates.RateData",
          "name": "rd",
          "type": "tuple"
        },
        {
          "internalType": "uint64",
          "name": "currentTime",
          "type": "uint64"
        }
      ],
      "name": "calculateRewardCount",
      "outputs": [
        {
          "internalType": "uint256",
          "name": "",
          "type": "uint256"
        }
      ],
      "stateMutability": "pure",
      "type": "function"
    },
    {
      "inputs": [],
      "name": "collateralPool",
      "outputs": [
        {
          "internalType": "contract IUniswapV3Pool",
          "name": "",
          "type": "address"
        }
      ],
      "stateMutability": "view",
      "type": "function"
    },
    {
      "inputs": [
        {
          "internalType": "contract IUniswapV3Pool[]",
          "name": "pools",
          "type": "address[]"
        },
        {
          "internalType": "contract IUniswapV3Pool",
          "name": "pool",
          "type": "address"
        }
      ],
      "name": "contains",
      "outputs": [
        {
          "internalType": "bool",
          "name": "",
          "type": "bool"
        }
      ],
      "stateMutability": "pure",
      "type": "function"
    },
    {
      "inputs": [],
      "name": "currentRateData",
      "outputs": [
        {
          "internalType": "int256",
          "name": "rate",
          "type": "int256"
        },
        {
          "internalType": "uint64",
          "name": "nextUpdateTime",
          "type": "uint64"
        },
        {
          "internalType": "uint128",
          "name": "rewardCount",
          "type": "uint128"
        }
      ],
      "stateMutability": "view",
      "type": "function"
    },
    {
      "inputs": [],
      "name": "deployer",
      "outputs": [
        {
          "internalType": "address",
          "name": "",
          "type": "address"
        }
      ],
      "stateMutability": "view",
      "type": "function"
    },
    {
      "inputs": [],
      "name": "getReferencePools",
      "outputs": [
        {
          "internalType": "contract IUniswapV3Pool[]",
          "name": "",
          "type": "address[]"
        }
      ],
      "stateMutability": "view",
      "type": "function"
    },
    {
      "inputs": [],
      "name": "getRewardCount",
      "outputs": [
        {
          "internalType": "uint256",
          "name": "",
          "type": "uint256"
        }
      ],
      "stateMutability": "view",
      "type": "function"
    },
    {
      "inputs": [],
      "name": "governor",
      "outputs": [
        {
          "internalType": "contract IGovernor",
          "name": "",
          "type": "address"
        }
      ],
      "stateMutability": "view",
      "type": "function"
    },
    {
      "inputs": [],
      "name": "init",
      "outputs": [],
      "stateMutability": "nonpayable",
      "type": "function"
    },
    {
      "inputs": [],
      "name": "interestRateAbsoluteValue",
      "outputs": [
        {
          "internalType": "uint256",
          "name": "",
          "type": "uint256"
        }
      ],
      "stateMutability": "view",
      "type": "function"
    },
    {
      "inputs": [],
      "name": "interestRateParameters",
      "outputs": [
        {
          "internalType": "uint128",
          "name": "acceptableError",
          "type": "uint128"
        },
        {
          "internalType": "uint128",
          "name": "errorInterval",
          "type": "uint128"
        },
        {
          "internalType": "uint128",
          "name": "interestRateStep",
          "type": "uint128"
        },
        {
          "internalType": "uint64",
          "name": "maxSteps",
          "type": "uint64"
        },
        {
          "internalType": "int128",
          "name": "minRate",
          "type": "int128"
        },
        {
          "internalType": "int128",
          "name": "maxRate",
          "type": "int128"
        }
      ],
      "stateMutability": "view",
      "type": "function"
    },
    {
      "inputs": [
        {
          "internalType": "uint256[]",
          "name": "values",
          "type": "uint256[]"
        }
      ],
      "name": "median",
      "outputs": [
        {
          "internalType": "uint256",
          "name": "",
          "type": "uint256"
        }
      ],
      "stateMutability": "pure",
      "type": "function"
    },
    {
      "inputs": [],
      "name": "minTimeBetweenUpdates",
      "outputs": [
        {
          "internalType": "uint64",
          "name": "",
          "type": "uint64"
        }
      ],
      "stateMutability": "view",
      "type": "function"
    },
    {
      "inputs": [],
      "name": "positiveInterestRate",
      "outputs": [
        {
          "internalType": "bool",
          "name": "",
          "type": "bool"
        }
      ],
      "stateMutability": "view",
      "type": "function"
    },
    {
      "inputs": [],
      "name": "predictInterestRate",
      "outputs": [
        {
          "internalType": "uint256",
          "name": "price",
          "type": "uint256"
        },
        {
          "internalType": "int256",
          "name": "rate",
          "type": "int256"
        }
      ],
      "stateMutability": "view",
      "type": "function"
    },
    {
      "inputs": [
        {
          "internalType": "uint256",
          "name": "",
          "type": "uint256"
        }
      ],
      "name": "referencePools",
      "outputs": [
        {
          "internalType": "contract IUniswapV3Pool",
          "name": "",
          "type": "address"
        }
      ],
      "stateMutability": "view",
      "type": "function"
    },
    {
      "inputs": [
        {
          "internalType": "contract IUniswapV3Pool[]",
          "name": "pools",
          "type": "address[]"
        },
        {
          "internalType": "contract IUniswapV3Pool",
          "name": "pool",
          "type": "address"
        }
      ],
      "name": "removePoolFromPools",
      "outputs": [
        {
          "internalType": "contract IUniswapV3Pool[]",
          "name": "",
          "type": "address[]"
        }
      ],
      "stateMutability": "pure",
      "type": "function"
    },
    {
      "inputs": [
        {
          "internalType": "contract IUniswapV3Pool",
          "name": "pool",
          "type": "address"
        }
      ],
      "name": "removeReferencePool",
      "outputs": [],
      "stateMutability": "nonpayable",
      "type": "function"
    },
    {
      "inputs": [
        {
          "internalType": "uint128",
          "name": "error",
          "type": "uint128"
        }
      ],
      "name": "setAcceptableError",
      "outputs": [],
      "stateMutability": "nonpayable",
      "type": "function"
    },
    {
      "inputs": [
        {
          "internalType": "uint128",
          "name": "interval",
          "type": "uint128"
        }
      ],
      "name": "setErrorInterval",
      "outputs": [],
      "stateMutability": "nonpayable",
      "type": "function"
    },
    {
      "inputs": [
        {
          "internalType": "uint128",
          "name": "step",
          "type": "uint128"
        }
      ],
      "name": "setInterestRateStep",
      "outputs": [],
      "stateMutability": "nonpayable",
      "type": "function"
    },
    {
      "inputs": [
        {
          "internalType": "int128",
          "name": "max",
          "type": "int128"
        }
      ],
      "name": "setMaxRate",
      "outputs": [],
      "stateMutability": "nonpayable",
      "type": "function"
    },
    {
      "inputs": [
        {
          "internalType": "uint64",
          "name": "steps",
          "type": "uint64"
        }
      ],
      "name": "setMaxSteps",
      "outputs": [],
      "stateMutability": "nonpayable",
      "type": "function"
    },
    {
      "inputs": [
        {
          "internalType": "int128",
          "name": "min",
          "type": "int128"
        }
      ],
      "name": "setMinRate",
      "outputs": [],
      "stateMutability": "nonpayable",
      "type": "function"
    },
    {
      "inputs": [
        {
          "internalType": "uint64",
          "name": "time",
          "type": "uint64"
        }
      ],
      "name": "setMinTimeBetweenUpdates",
      "outputs": [],
      "stateMutability": "nonpayable",
      "type": "function"
    },
    {
      "inputs": [],
      "name": "stop",
      "outputs": [],
      "stateMutability": "nonpayable",
      "type": "function"
    },
    {
      "inputs": [],
      "name": "stopped",
      "outputs": [
        {
          "internalType": "bool",
          "name": "",
          "type": "bool"
        }
      ],
      "stateMutability": "view",
      "type": "function"
    },
    {
      "inputs": [],
      "name": "update",
      "outputs": [],
      "stateMutability": "nonpayable",
      "type": "function"
    },
    {
      "inputs": [
        {
          "internalType": "bytes4",
          "name": "",
          "type": "bytes4"
        }
      ],
      "name": "validUpdate",
      "outputs": [
        {
          "internalType": "bool",
          "name": "",
          "type": "bool"
        }
      ],
      "stateMutability": "view",
      "type": "function"
    }
  ],
  "bytecode": "0x60e06040526001600260005090905562014a78600460006101000a81548167ffffffffffffffff021916908367ffffffffffffffff160217905550348015620000485760006000fd5b5060405162004ab738038062004ab783398181016040528101906200006e919062000a76565b5b805b806000015181602001515b815b8073ffffffffffffffffffffffffffffffffffffffff1660808173ffffffffffffffffffffffffffffffffffffffff1660601b815260140150505b508073ffffffffffffffffffffffffffffffffffffffff1660a08173ffffffffffffffffffffffffffffffffffffffff1660601b815260140150505b5050806040015173ffffffffffffffffffffffffffffffffffffffff1660c08173ffffffffffffffffffffffffffffffffffffffff1660601b8152601401505080606001516003600050908051906020019062000154929190620008f8565b506040518060c0016040528066038d7ea4c680006fffffffffffffffffffffffffffffffff1681526020016611c37937e080006fffffffffffffffffffffffffffffffff1681526020016611c37937e080006fffffffffffffffffffffffffffffffff168152602001600567ffffffffffffffff1681526020017ffffffffffffffffffffffffffffffffffffffffffffffffffdeb17cb73b10000600f0b81526020016706f05b59d3b20000600f0b815260200150600560005060008201518160000160006101000a8154816fffffffffffffffffffffffffffffffff02191690836fffffffffffffffffffffffffffffffff16021790555060208201518160000160106101000a8154816fffffffffffffffffffffffffffffffff02191690836fffffffffffffffffffffffffffffffff16021790555060408201518160010160006101000a8154816fffffffffffffffffffffffffffffffff02191690836fffffffffffffffffffffffffffffffff16021790555060608201518160010160106101000a81548167ffffffffffffffff021916908367ffffffffffffffff16021790555060808201518160020160006101000a8154816fffffffffffffffffffffffffffffffff0219169083600f0b6fffffffffffffffffffffffffffffffff16021790555060a08201518160020160106101000a8154816fffffffffffffffffffffffffffffffff0219169083600f0b6fffffffffffffffffffffffffffffffff160217905550905050604051806060016040528066b1a2bc2ec500008152602001620003e2600460009054906101000a900467ffffffffffffffff16620003c4620007a460201b60201c565b67ffffffffffffffff16620007c660201b6200206f1790919060201c565b67ffffffffffffffff16815260200168056bc75e2d631000006fffffffffffffffffffffffffffffffff16815260200150600860005060008201518160000160005090905560208201518160010160006101000a81548167ffffffffffffffff021916908367ffffffffffffffff16021790555060408201518160010160086101000a8154816fffffffffffffffffffffffffffffffff02191690836fffffffffffffffffffffffffffffffff16021790555090505060006040518060e001604052806380ddbdb460e01b7bffffffffffffffffffffffffffffffffffffffffffffffffffffffff19167bffffffffffffffffffffffffffffffffffffffffffffffffffffffff19168152602001635fd019ad60e01b7bffffffffffffffffffffffffffffffffffffffffffffffffffffffff19167bffffffffffffffffffffffffffffffffffffffffffffffffffffffff19168152602001636e16ead260e01b7bffffffffffffffffffffffffffffffffffffffffffffffffffffffff19167bffffffffffffffffffffffffffffffffffffffffffffffffffffffff19168152602001635d8350b460e01b7bffffffffffffffffffffffffffffffffffffffffffffffffffffffff19167bffffffffffffffffffffffffffffffffffffffffffffffffffffffff1916815260200163d3ab388860e01b7bffffffffffffffffffffffffffffffffffffffffffffffffffffffff19167bffffffffffffffffffffffffffffffffffffffffffffffffffffffff1916815260200163ee47304d60e01b7bffffffffffffffffffffffffffffffffffffffffffffffffffffffff19167bffffffffffffffffffffffffffffffffffffffffffffffffffffffff1916815260200163eec3f6f160e01b7bffffffffffffffffffffffffffffffffffffffffffffffffffffffff19167bffffffffffffffffffffffffffffffffffffffffffffffffffffffff191681526020015090506000600090505b8150600781101562000757576001600160005060008484600781101515620006e057fe5b60200201517bffffffffffffffffffffffffffffffffffffffffffffffffffffffff19167bffffffffffffffffffffffffffffffffffffffffffffffffffffffff1916815260200190815260200160002060006101000a81548160ff0219169083151502179055505b8080600101915050620006bc565b5033600a60006101000a81548173ffffffffffffffffffffffffffffffffffffffff021916908373ffffffffffffffffffffffffffffffffffffffff160217905550505b505b5062000b5b565b6000620007be426200086460201b6200210c17909060201c565b905080505b90565b60008267ffffffffffffffff1682840191508167ffffffffffffffff16101515156200085d576040517f08c379a000000000000000000000000000000000000000000000000000000000815260040180806020018281038252600c8152602001807f6164642d6f766572666c6f77000000000000000000000000000000000000000081526020015060200191505060405180910390fd5b5b92915050565b60006801000000000000000082101515620008ea576040517f08c379a00000000000000000000000000000000000000000000000000000000081526004018080602001828103825260118152602001807f6d6f7265207468616e203634206269747300000000000000000000000000000081526020015060200191505060405180910390fd5b819050620008f3565b919050565b82805482825590600052602060002090810192821562000974579160200282015b82811115620009735782518260006101000a81548173ffffffffffffffffffffffffffffffffffffffff021916908373ffffffffffffffffffffffffffffffffffffffff1602179055509160200191906001019062000919565b5b50905062000983919062000987565b5090565b6200098d565b80821115620009a957600081815060009055506001016200098d565b50905662000b5a565b600082601f8301121515620009c5578081fd5b815160206001600160401b0380831115620009dc57fe5b81830260405183828201018181108482111715620009f657fe5b806040525080925084815283810192508387018885848a0101111562000a1a578687fd5b8692505b8583101562000a4f57805162000a348162000b3d565b80855250848401935084810190505b60018301925062000a1e565b5080955050505050505b92915050565b60008151905062000a708162000b3d565b5b919050565b60006020828403121562000a88578081fd5b81516001600160401b038082111562000a9f578283fd5b81840191506080828603121562000ab4578283fd5b60405160808101818110838211171562000aca57fe5b8060405250825162000adc8162000b3d565b80825250602083015162000af08162000b3d565b8060208301525062000b056040840162000a5f565b604082015260608301518281111562000b1c578485fd5b62000b2a87828601620009b2565b6060830152508093505050505b92915050565b6001600160a01b0381168114151562000b565760006000fd5b5b50565b5b60805160601c60a05160601c60c05160601c613eef62000bc860003980610a2152806115175280611d9b528061204d5250806126d452806129f152508061062752806107fd52806112f252806118395280611ce052806121a352806127f55280612a765250613eef6000f3fe60806040523480156100115760006000fd5b50600436106101f55760003560e01c806380ddbdb411610110578063ce62a3bf116100a3578063e1c7392a11610072578063e1c7392a146105a5578063ee47304d146105af578063eec3f6f1146105cb578063ff0eccf6146105e7576101f5565b8063ce62a3bf1461050b578063ceec5d6f1461053b578063d3ab38881461056b578063d5f3948814610587576101f5565b8063a2e62045116100df578063a2e6204514610497578063ab658be2146104a1578063bf5d5ae3146104bf578063c381c1e6146104ef576101f5565b806380ddbdb41461040a57806384333cc71461042657806395563b4714610456578063a0fc0eda14610479576101f5565b80631f244faf116101885780636d7fa664116101575780636d7fa664146103945780636e16ead2146103b257806375f12b21146103ce5780637e7e8eec146103ec576101f5565b80631f244faf1461030c5780633da80d661461032c5780635d8350b41461035c5780635fd019ad14610378576101f5565b80631268d3be116101c45780631268d3be14610283578063150147d7146102b3578063178d1226146102cf57806319a6e9e6146102ee576101f5565b806307da68f5146101fb5780630c340a2414610205578063113cf1ab1461022357806311994c2914610253576101f5565b60006000fd5b610203610605565b005b61020d610625565b60405161021a9190613a93565b60405180910390f35b61023d6004803603810190610238919061370f565b610649565b60405161024a9190613a7f565b60405180910390f35b61026d600480360381019061026891906138b0565b61066e565b60405161027a9190613db5565b60405180910390f35b61029d6004803603810190610298919061369b565b61068d565b6040516102aa9190613db5565b60405180910390f35b6102cd60048036038101906102c89190613783565b6106ac565b005b6102d76107f5565b6040516102e5929190613dc7565b60405180910390f35b6102f6610c51565b6040516103039190613de0565b60405180910390f35b610314610c6b565b60405161032393929190613b7e565b60405180910390f35b6103466004803603810190610341919061359e565b610cb9565b6040516103539190613a7f565b60405180910390f35b6103766004803603810190610371919061398f565b610cd8565b005b610392600480360381019061038d9190613934565b610d7b565b005b61039c610e4b565b6040516103a99190613a7f565b60405180910390f35b6103cc60048036038101906103c79190613934565b610e67565b005b6103d6610f19565b6040516103e39190613a7f565b60405180910390f35b6103f4610f2c565b6040516104019190613db5565b60405180910390f35b610424600480360381019061041f9190613934565b610ff0565b005b610440600480360381019061043b9190613957565b6110a2565b60405161044d9190613abb565b60405180910390f35b61045e6110e8565b60405161047096959493929190613d58565b60405180910390f35b610481611197565b60405161048e9190613db5565b60405180910390f35b61049f6111c8565b005b6104a961192c565b6040516104b69190613a1b565b60405180910390f35b6104d960048036038101906104d4919061359e565b6119c2565b6040516104e69190613a1b565b60405180910390f35b61050960048036038101906105049190613783565b6119e1565b005b6105256004803603810190610520919061365e565b611b7d565b6040516105329190613db5565b60405180910390f35b610555600480360381019061055091906137cd565b611b9a565b6040516105629190613b29565b60405180910390f35b6105856004803603810190610580919061398f565b611bbb565b005b61058f611c34565b60405161059c91906139b2565b60405180910390f35b6105ad611c5a565b005b6105c960048036038101906105c491906137aa565b611edf565b005b6105e560048036038101906105e091906137aa565b611f95565b005b6105ef61204b565b6040516105fc9190613abb565b60405180910390f35b61061361219e63ffffffff16565b6106216121fe63ffffffff16565b5b5b565b7f000000000000000000000000000000000000000000000000000000000000000081565b600160005060205280600052604060002060009150909054906101000a900460ff1681565b6000610680838361224863ffffffff16565b9050610687565b92915050565b600061069f838361233963ffffffff16565b90506106a6565b92915050565b6106ba61219e63ffffffff16565b6001600360005080549050111515610707576040517f08c379a00000000000000000000000000000000000000000000000000000000081526004016106fe90613cb6565b60405180910390fd5b6107a0600360005080548060200260200160405190810160405280929190818152602001828054801561078f57602002820191906000526020600020905b8160009054906101000a900473ffffffffffffffffffffffffffffffffffffffff1673ffffffffffffffffffffffffffffffffffffffff1681526020019060010190808311610745575b50505050508261238463ffffffff16565b600360005090805190602001906107b89291906133ef565b507fe0c45385660471da2afc510ebde41d5f9361442fcda1f7a196e554fe3f6b5611816040516107e891906139b2565b60405180910390a15b5b50565b6000600060007f000000000000000000000000000000000000000000000000000000000000000073ffffffffffffffffffffffffffffffffffffffff1663d3419bf36040518163ffffffff1660e01b815260040160206040518083038186803b1580156108625760006000fd5b505afa158015610877573d600060003e3d6000fd5b505050506040513d601f19601f8201168201806040525081019061089b919061375c565b90506000600360005080549050905060008167ffffffffffffffff811180156108c45760006000fd5b506040519080825280602002602001820160405280156108f35781602001602082028036833780820191505090505b5090506000600090505b828110156109fe578373ffffffffffffffffffffffffffffffffffffffff16633c63a9cd60036000508381548110151561093357fe5b906000526020600020900160005b9054906101000a900473ffffffffffffffffffffffffffffffffffffffff1660016040518363ffffffff1660e01b815260040161097f929190613ae3565b60206040518083038186803b1580156109985760006000fd5b505afa1580156109ad573d600060003e3d6000fd5b505050506040513d601f19601f820116820180604052508101906109d19190613973565b82828151811015156109df57fe5b60200260200101909081815260200150505b80806001019150506108fd565b50610abc818473ffffffffffffffffffffffffffffffffffffffff16633c63a9cd7f000000000000000000000000000000000000000000000000000000000000000060016040518363ffffffff1660e01b8152600401610a5f929190613ae3565b60206040518083038186803b158015610a785760006000fd5b505afa158015610a8d573d600060003e3d6000fd5b505050506040513d601f19601f82011682018060405250810190610ab19190613973565b61233963ffffffff16565b94508450610c3860086000506000016000505460056000506040518060c00160405290816000820160009054906101000a90046fffffffffffffffffffffffffffffffff166fffffffffffffffffffffffffffffffff166fffffffffffffffffffffffffffffffff1681526020016000820160109054906101000a90046fffffffffffffffffffffffffffffffff166fffffffffffffffffffffffffffffffff166fffffffffffffffffffffffffffffffff1681526020016001820160009054906101000a90046fffffffffffffffffffffffffffffffff166fffffffffffffffffffffffffffffffff166fffffffffffffffffffffffffffffffff1681526020016001820160109054906101000a900467ffffffffffffffff1667ffffffffffffffff1667ffffffffffffffff1681526020016002820160009054906101000a9004600f0b600f0b600f0b81526020016002820160109054906101000a9004600f0b600f0b600f0b81526020015050876124f563ffffffff16565b93508350848494509450505050610c4d565050505b9091565b600460009054906101000a900467ffffffffffffffff1681565b60086000508060000160005054908060010160009054906101000a900467ffffffffffffffff16908060010160089054906101000a90046fffffffffffffffffffffffffffffffff16905083565b6000610ccb838361267563ffffffff16565b9050610cd2565b92915050565b610ce661219e63ffffffff16565b80600460006101000a81548167ffffffffffffffff021916908367ffffffffffffffff1602179055506000600460009054906101000a900467ffffffffffffffff1667ffffffffffffffff16111515610d3f5760006000fd5b7f517c1f8e39144dc2198ca9c7f0cb04ac8ecbffef718abb8a24b56d2ae881e0fe81604051610d6e9190613de0565b60405180910390a15b5b50565b610d8961219e63ffffffff16565b806fffffffffffffffffffffffffffffffff166000108015610dc45750670de0b6b3a7640000816fffffffffffffffffffffffffffffffff16105b1515610dd05760006000fd5b80600560005060000160106101000a8154816fffffffffffffffffffffffffffffffff02191690836fffffffffffffffffffffffffffffffff1602179055507f265b81e00f507e5ddfcde5e43ed2952f0462df065bf26eebc1c5bf184ab31cd381604051610e3e9190613d34565b60405180910390a15b5b50565b6000600060086000506000016000505412159050610e64565b90565b610e7561219e63ffffffff16565b670de0b6b3a7640000816fffffffffffffffffffffffffffffffff16101515610e9e5760006000fd5b80600560005060010160006101000a8154816fffffffffffffffffffffffffffffffff02191690836fffffffffffffffffffffffffffffffff1602179055507fbf56c5a0ff5b41763e4284940e0db09730e97d817e41e1396be9b9f2a9ed38fb81604051610f0c9190613d34565b60405180910390a15b5b50565b600060009054906101000a900460ff1681565b6000610fe66008600050604051806060016040529081600082016000505481526020016001820160009054906101000a900467ffffffffffffffff1667ffffffffffffffff1667ffffffffffffffff1681526020016001820160089054906101000a90046fffffffffffffffffffffffffffffffff166fffffffffffffffffffffffffffffffff166fffffffffffffffffffffffffffffffff1681526020015050610fdb6126b763ffffffff16565b61224863ffffffff16565b9050610fed565b90565b610ffe61219e63ffffffff16565b670de0b6b3a7640000816fffffffffffffffffffffffffffffffff161015156110275760006000fd5b80600560005060000160006101000a8154816fffffffffffffffffffffffffffffffff02191690836fffffffffffffffffffffffffffffffff1602179055507f94ff7d36ecf3da5a6cb7d7be5b429c938850be85f46d1d256c0dafe008b590a3816040516110959190613d34565b60405180910390a15b5b50565b600360005081815481106110b557600080fd5b906000526020600020900160005b9150909054906101000a900473ffffffffffffffffffffffffffffffffffffffff1681565b60056000508060000160009054906101000a90046fffffffffffffffffffffffffffffffff16908060000160109054906101000a90046fffffffffffffffffffffffffffffffff16908060010160009054906101000a90046fffffffffffffffffffffffffffffffff16908060010160109054906101000a900467ffffffffffffffff16908060020160009054906101000a9004600f0b908060020160109054906101000a9004600f0b905086565b600060006008600050600001600050549050600081126111b757806111bc565b806000035b9150506111c556505b90565b6111d66126d263ffffffff16565b6111e46127e563ffffffff16565b60006008600050604051806060016040529081600082016000505481526020016001820160009054906101000a900467ffffffffffffffff1667ffffffffffffffff1667ffffffffffffffff1681526020016001820160089054906101000a90046fffffffffffffffffffffffffffffffff166fffffffffffffffffffffffffffffffff166fffffffffffffffffffffffffffffffff168152602001505090506112926126b763ffffffff16565b67ffffffffffffffff16816020015167ffffffffffffffff16111515156112ee576040517f08c379a00000000000000000000000000000000000000000000000000000000081526004016112e590613c77565b60405180910390fd5b60007f000000000000000000000000000000000000000000000000000000000000000073ffffffffffffffffffffffffffffffffffffffff1663d3419bf36040518163ffffffff1660e01b815260040160206040518083038186803b1580156113575760006000fd5b505afa15801561136c573d600060003e3d6000fd5b505050506040513d601f19601f82011682018060405250810190611390919061375c565b90506000600360005080549050905060008167ffffffffffffffff811180156113b95760006000fd5b506040519080825280602002602001820160405280156113e85781602001602082028036833780820191505090505b5090506000600090505b828110156114f2578373ffffffffffffffffffffffffffffffffffffffff1663ce403c1360036000508381548110151561142857fe5b906000526020600020900160005b9054906101000a900473ffffffffffffffffffffffffffffffffffffffff166040518263ffffffff1660e01b81526004016114719190613abb565b602060405180830381600087803b15801561148c5760006000fd5b505af11580156114a1573d600060003e3d6000fd5b505050506040513d601f19601f820116820180604052508101906114c59190613973565b82828151811015156114d357fe5b60200260200101909081815260200150505b80806001019150506113f2565b5060006115b1828573ffffffffffffffffffffffffffffffffffffffff1663ce403c137f00000000000000000000000000000000000000000000000000000000000000006040518263ffffffff1660e01b81526004016115529190613abb565b602060405180830381600087803b15801561156d5760006000fd5b505af1158015611582573d600060003e3d6000fd5b505050506040513d601f19601f820116820180604052508101906115a69190613973565b61233963ffffffff16565b905060006040518060600160405280611731886000015160056000506040518060c00160405290816000820160009054906101000a90046fffffffffffffffffffffffffffffffff166fffffffffffffffffffffffffffffffff166fffffffffffffffffffffffffffffffff1681526020016000820160109054906101000a90046fffffffffffffffffffffffffffffffff166fffffffffffffffffffffffffffffffff166fffffffffffffffffffffffffffffffff1681526020016001820160009054906101000a90046fffffffffffffffffffffffffffffffff166fffffffffffffffffffffffffffffffff166fffffffffffffffffffffffffffffffff1681526020016001820160109054906101000a900467ffffffffffffffff1667ffffffffffffffff1667ffffffffffffffff1681526020016002820160009054906101000a9004600f0b600f0b600f0b81526020016002820160109054906101000a9004600f0b600f0b600f0b81526020015050866124f563ffffffff16565b815260200161175b600460009054906101000a900467ffffffffffffffff1661291263ffffffff16565b67ffffffffffffffff16815260200161179761178a8961177f6126b763ffffffff16565b61224863ffffffff16565b612948909063ffffffff16565b6fffffffffffffffffffffffffffffffff16815260200150905080600860005060008201518160000160005090905560208201518160010160006101000a81548167ffffffffffffffff021916908367ffffffffffffffff16021790555060408201518160010160086101000a8154816fffffffffffffffffffffffffffffffff02191690836fffffffffffffffffffffffffffffffff1602179055509050507f000000000000000000000000000000000000000000000000000000000000000073ffffffffffffffffffffffffffffffffffffffff1663ef7a7cfa3383604001516040518363ffffffff1660e01b81526004016118969291906139da565b600060405180830381600087803b1580156118b15760006000fd5b505af11580156118c6573d600060003e3d6000fd5b505050507f9f912bcb7b057a4f10fbbee5785670aecb2ab545144237646e17398d55de72dc8160000151838360400151846020015160405161190b9493929190613b3b565b60405180910390a15050505050505b5b6119296129e263ffffffff16565b5b565b606060036000508054806020026020016040519081016040528092919081815260200182805480156119b357602002820191906000526020600020905b8160009054906101000a900473ffffffffffffffffffffffffffffffffffffffff1673ffffffffffffffffffffffffffffffffffffffff1681526020019060010190808311611969575b505050505090506119bf565b90565b60606119d4838361238463ffffffff16565b90506119db565b92915050565b6119ef61219e63ffffffff16565b611a886003600050805480602002602001604051908101604052809291908181526020018280548015611a7757602002820191906000526020600020905b8160009054906101000a900473ffffffffffffffffffffffffffffffffffffffff1673ffffffffffffffffffffffffffffffffffffffff1681526020019060010190808311611a2d575b50505050508261267563ffffffff16565b151515611aca576040517f08c379a0000000000000000000000000000000000000000000000000000000008152600401611ac190613cf5565b60405180910390fd5b611ad981612a7463ffffffff16565b600360005081908060018154018082558091505060019003906000526020600020900160005b9091909190916101000a81548173ffffffffffffffffffffffffffffffffffffffff021916908373ffffffffffffffffffffffffffffffffffffffff1602179055507fd815dd7ac4a8a5f5f1d3b09c4fb82cdf04e21e127619c6fca60b8f80e420492a81604051611b7091906139b2565b60405180910390a15b5b50565b6000611b8e82612b8463ffffffff16565b9050611b95565b919050565b6000611bad8484846124f563ffffffff16565b9050611bb4565b9392505050565b611bc961219e63ffffffff16565b80600560005060010160106101000a81548167ffffffffffffffff021916908367ffffffffffffffff1602179055507fcf58c4278b7362e258dd9a03400b38f692197a7ceb18b1c31ff440c1f9d5062f81604051611c279190613de0565b60405180910390a15b5b50565b600a60009054906101000a900473ffffffffffffffffffffffffffffffffffffffff1681565b611cb9600a60009054906101000a900473ffffffffffffffffffffffffffffffffffffffff1673ffffffffffffffffffffffffffffffffffffffff163373ffffffffffffffffffffffffffffffffffffffff1614612e0763ffffffff16565b600a60006101000a81549073ffffffffffffffffffffffffffffffffffffffff02191690557f000000000000000000000000000000000000000000000000000000000000000073ffffffffffffffffffffffffffffffffffffffff1663d3419bf36040518163ffffffff1660e01b815260040160206040518083038186803b158015611d455760006000fd5b505afa158015611d5a573d600060003e3d6000fd5b505050506040513d601f19601f82011682018060405250810190611d7e919061375c565b73ffffffffffffffffffffffffffffffffffffffff1663532cec7c7f00000000000000000000000000000000000000000000000000000000000000006040518263ffffffff1660e01b8152600401611dd69190613abb565b60206040518083038186803b158015611def5760006000fd5b505afa158015611e04573d600060003e3d6000fd5b505050506040513d601f19601f82011682018060405250810190611e2891906136e2565b1515611e69576040517f08c379a0000000000000000000000000000000000000000000000000000000008152600401611e6090613bf9565b60405180910390fd5b6000600090505b600360005080549050811015611edb57611ecd600360005082815481101515611e9557fe5b906000526020600020900160005b9054906101000a900473ffffffffffffffffffffffffffffffffffffffff16612a7463ffffffff16565b5b8080600101915050611e70565b505b565b611eed61219e63ffffffff16565b600560005060020160109054906101000a9004600f0b600f0b81600f0b121515611f175760006000fd5b80600560005060020160006101000a8154816fffffffffffffffffffffffffffffffff0219169083600f0b6fffffffffffffffffffffffffffffffff1602179055507fc24e66dcb27dbd285d47a59317af2469aaec7df1cbef5058516e9f09c363a37581604051611f889190613b14565b60405180910390a15b5b50565b611fa361219e63ffffffff16565b80600f0b600560005060020160009054906101000a9004600f0b600f0b121515611fcd5760006000fd5b80600560005060020160106101000a8154816fffffffffffffffffffffffffffffffff0219169083600f0b6fffffffffffffffffffffffffffffffff1602179055507fddfcfaec23708d16c646e9e109985f7db635f6a645245e87946f7d2f64f4bb6a8160405161203e9190613b14565b60405180910390a15b5b50565b7f000000000000000000000000000000000000000000000000000000000000000081565b60008267ffffffffffffffff1682840191508167ffffffffffffffff1610151515612105576040517f08c379a000000000000000000000000000000000000000000000000000000000815260040180806020018281038252600c8152602001807f6164642d6f766572666c6f77000000000000000000000000000000000000000081526020015060200191505060405180910390fd5b5b92915050565b60006801000000000000000082101515612191576040517f08c379a00000000000000000000000000000000000000000000000000000000081526004018080602001828103825260118152602001807f6d6f7265207468616e203634206269747300000000000000000000000000000081526020015060200191505060405180910390fd5b819050612199565b919050565b6121fb7f000000000000000000000000000000000000000000000000000000000000000073ffffffffffffffffffffffffffffffffffffffff163373ffffffffffffffffffffffffffffffffffffffff1614612e0763ffffffff16565b5b565b6001600060006101000a81548160ff0219169083151502179055507f7acc84e34091ae817647a4c49116f5cc07f319078ba80f8f5fde37ea7e25cbd660405160405180910390a15b565b6000826020015167ffffffffffffffff168267ffffffffffffffff161115156122745760009050612333565b6000600284604001516fffffffffffffffffffffffffffffffff1681151561229857fe5b046fffffffffffffffffffffffffffffffff16905060006122d68560200151850367ffffffffffffffff1661070884612e839092919063ffffffff16565b82019050612328612307600587604001516fffffffffffffffffffffffffffffffff16612f8490919063ffffffff16565b6fffffffffffffffffffffffffffffffff168261307c90919063ffffffff16565b925050506123335650505b92915050565b60008161234b84612b8463ffffffff16565b760a70c3c40a64e6c51999090b65f67d924000000000000081151561236c57fe5b0481151561237657fe5b04905061237e565b92915050565b60606000612398848461309a63ffffffff16565b90507fffffffffffffffffffffffffffffffffffffffffffffffffffffffffffffffff81141515156123ff576040517f08c379a00000000000000000000000000000000000000000000000000000000081526004016123f690613bba565b60405180910390fd5b6000600185510367ffffffffffffffff8111801561241d5760006000fd5b5060405190808252806020026020018201604052801561244c5781602001602082028036833780820191505090505b50905060006000600090505b86518110156124e05783811415156124d257868181518110151561247857fe5b6020026020010151838380600101945081518110151561249457fe5b602002602001019073ffffffffffffffffffffffffffffffffffffffff16908173ffffffffffffffffffffffffffffffffffffffff16815260200150505b5b8080600101915050612458565b508193505050506124ef565050505b92915050565b60006000670de0b6b3a76400008310905060008161251d57670de0b6b3a76400008403612529565b83670de0b6b3a7640000035b905084600001516fffffffffffffffffffffffffffffffff168110151561262a5760006125a1612594600188602001516fffffffffffffffffffffffffffffffff168581151561257557fe5b0401886060015167ffffffffffffffff1661307c90919063ffffffff16565b612948909063ffffffff16565b905060006125f06125d18389604001516fffffffffffffffffffffffffffffffff16612f8490919063ffffffff16565b6fffffffffffffffffffffffffffffffff1661313b909063ffffffff16565b90508361260f5761260a81896131e490919063ffffffff16565b612623565b612622818961327b90919063ffffffff16565b5b9750875050505b8460800151600f0b861215612646578460800151600f0b955085505b8460a00151600f0b861315612662578460a00151600f0b955085505b859250505061266e5650505b9392505050565b60007fffffffffffffffffffffffffffffffffffffffffffffffffffffffffffffffff6126a8848461309a63ffffffff16565b141590506126b1565b92915050565b60006126ca4261210c909063ffffffff16565b905080505b90565b7f000000000000000000000000000000000000000000000000000000000000000073ffffffffffffffffffffffffffffffffffffffff1663e97dcb626040518163ffffffff1660e01b8152600401600060405180830381600087803b15801561273b5760006000fd5b505af1158015612750573d600060003e3d6000fd5b505050506002600260005054141515156127d5576040517f08c379a000000000000000000000000000000000000000000000000000000000815260040180806020018281038252600d8152602001807f4c50205265656e7472616e63790000000000000000000000000000000000000081526020015060200191505060405180910390fd5b600260026000508190909055505b565b6127f361331263ffffffff16565b7f000000000000000000000000000000000000000000000000000000000000000073ffffffffffffffffffffffffffffffffffffffff1663bf86d6906040518163ffffffff1660e01b815260040160206040518083038186803b15801561285a5760006000fd5b505afa15801561286f573d600060003e3d6000fd5b505050506040513d60208110156128865760006000fd5b810190808051906020019092919050505015151561290f576040517f08c379a00000000000000000000000000000000000000000000000000000000081526004018080602001828103825260118152602001807f50726f746f636f6c2073687574646f776e00000000000000000000000000000081526020015060200191505060405180910390fd5b5b565b600061293e826129266126b763ffffffff16565b67ffffffffffffffff1661206f90919063ffffffff16565b905080505b919050565b6000700100000000000000000000000000000000821015156129d5576040517f08c379a00000000000000000000000000000000000000000000000000000000081526004018080602001828103825260128152602001807f6d6f7265207468616e203132382062697473000000000000000000000000000081526020015060200191505060405180910390fd5b8190506129dd565b919050565b600160026000508190909055507f000000000000000000000000000000000000000000000000000000000000000073ffffffffffffffffffffffffffffffffffffffff1663e9fad8ee6040518163ffffffff1660e01b8152600401600060405180830381600087803b158015612a585760006000fd5b505af1158015612a6d573d600060003e3d6000fd5b505050505b565b7f000000000000000000000000000000000000000000000000000000000000000073ffffffffffffffffffffffffffffffffffffffff1663d3419bf36040518163ffffffff1660e01b815260040160206040518083038186803b158015612adb5760006000fd5b505afa158015612af0573d600060003e3d6000fd5b505050506040513d601f19601f82011682018060405250810190612b14919061375c565b73ffffffffffffffffffffffffffffffffffffffff16637c5b9011826040518263ffffffff1660e01b8152600401612b4c9190613abb565b600060405180830381600087803b158015612b675760006000fd5b505af1158015612b7c573d600060003e3d6000fd5b505050505b50565b6000600082519050600081111515612bd1576040517f08c379a0000000000000000000000000000000000000000000000000000000008152600401612bc890613c38565b60405180910390fd5b6000600060005b6002841115612d8457856000815181101515612bf057fe5b602002602001015191508150856000815181101515612c0b57fe5b6020026020010151905080506000600190505b84811015612c6a578681815181101515612c3457fe5b60200260200101519350835082841015612c4e5783925082505b81841115612c5c5783915081505b5b8080600101915050612c1e565b5080821415612c7f5781945050505050612e02565b60006002850367ffffffffffffffff81118015612c9c5760006000fd5b50604051908082528060200260200182016040528015612ccb5781602001602082028036833780820191505090505b5090506000600060006000600090505b88811015612d6d578a81815181101515612cf157fe5b6020026020010151975087508688148015612d0a575081155b15612d1a57600191508150612d5f565b8588148015612d27575082155b15612d3757600192508250612d5e565b878585806001019650815181101515612d4c57fe5b60200260200101909081815260200150505b5b5b8080600101915050612cdb565b506002880397508750839950895050505050612bd8565b6001841415612db357856000815181101515612d9c57fe5b6020026020010151945050505050612e0256612dfd565b612df2866001815181101515612dc557fe5b6020026020010151876000815181101515612ddc57fe5b602002602001015161339d90919063ffffffff16565b945050505050612e02565b505050505b919050565b801515612e7f576040517f08c379a000000000000000000000000000000000000000000000000000000000815260040180806020018281038252600e8152602001807f4e6f7420417574686f72697a656400000000000000000000000000000000000081526020015060200191505060405180910390fd5b5b50565b6000600060006000198587098587029250828110838203039150506000811415612ec657600084111515612eb75760006000fd5b83820492508292505050612f7d565b8084111515612ed55760006000fd5b6000848688099050828111820391508083039250600085866000031690508086049550808404935060018182600003040190508083028417935083506000600287600302189050808702600203810290508050808702600203810290508050808702600203810290508050808702600203810290508050808702600203810290508050808702600203810290508050808502955085508595505050505050612f7d5650505050505b9392505050565b60006000826fffffffffffffffffffffffffffffffff161480612ffe5750826fffffffffffffffffffffffffffffffff16826fffffffffffffffffffffffffffffffff168385029250826fffffffffffffffffffffffffffffffff16811515612fe957fe5b046fffffffffffffffffffffffffffffffff16145b1515613075576040517f08c379a000000000000000000000000000000000000000000000000000000000815260040180806020018281038252600c8152602001807f6d756c2d6f766572666c6f77000000000000000000000000000000000000000081526020015060200191505060405180910390fd5b5b92915050565b600081831061308b578161308d565b825b9050613094565b92915050565b60006000600090505b835181101561310c578273ffffffffffffffffffffffffffffffffffffffff1684828151811015156130d157fe5b602002602001015173ffffffffffffffffffffffffffffffffffffffff1614156130fe5780915050613135565b5b80806001019150506130a3565b507fffffffffffffffffffffffffffffffffffffffffffffffffffffffffffffffff9050613135565b92915050565b60007f8000000000000000000000000000000000000000000000000000000000000000821015156131d7576040517f08c379a00000000000000000000000000000000000000000000000000000000081526004018080602001828103825260128152602001807f746f6f2062696720666f7220696e74323536000000000000000000000000000081526020015060200191505060405180910390fd5b8190506131df565b919050565b600060008284039050600083121580156131fe5750838113155b80613214575060008312801561321357508381135b5b151561326b576040517f08c379a0000000000000000000000000000000000000000000000000000000008152600401808060200182810382526024815260200180613e966024913960400191505060405180910390fd5b8091505061327556505b92915050565b600060008284019050600083121580156132955750838112155b806132ab57506000831280156132aa57508381125b5b1515613302576040517f08c379a0000000000000000000000000000000000000000000000000000000008152600401808060200182810382526021815260200180613e756021913960400191505060405180910390fd5b8091505061330c56505b92915050565b600060009054906101000a900460ff1615151561339a576040517f08c379a00000000000000000000000000000000000000000000000000000000081526004018080602001828103825260138152602001807f436f6e74726163742069732073746f707065640000000000000000000000000081526020015060200191505060405180910390fd5b5b565b600060026002838115156133ad57fe5b066002858115156133ba57fe5b06018115156133c557fe5b046002838115156133d257fe5b046002858115156133df57fe5b04010190506133e9565b92915050565b828054828255906000526020600020908101928215613468579160200282015b828111156134675782518260006101000a81548173ffffffffffffffffffffffffffffffffffffffff021916908373ffffffffffffffffffffffffffffffffffffffff1602179055509160200191906001019061340f565b5b5090506134759190613479565b5090565b61347e565b80821115613498576000818150600090555060010161347e565b509056613e73565b600082601f83011215156134b2578081fd5b813560206134c76134c283613e27565b613dfc565b808382528282019150828601878485870289010111156134e5578586fd5b855b858110156135095781358452848401935084820191505b6001810190506134e7565b5050809450505050505b92915050565b60008135905061352881613e4a565b5b919050565b60008135905080600f0b811415156135465760006000fd5b5b919050565b6000813590506fffffffffffffffffffffffffffffffff8116811415156135735760006000fd5b5b919050565b60008135905067ffffffffffffffff8116811415156135985760006000fd5b5b919050565b60006000604083850312156135b1578182fd5b823567ffffffffffffffff8111156135c7578283fd5b808401905084601f82011215156135dc578283fd5b803560206135f16135ec83613e27565b613dfc565b8083825282820191508285018984858702880101111561360f578788fd5b8795505b8486101561364057803561362681613e4a565b80845250838301925083810190505b600186019550613613565b508096505050613651818701613519565b93505050505b9250929050565b60006020828403121561366f578081fd5b813567ffffffffffffffff811115613685578182fd5b613691848285016134a0565b9150505b92915050565b60006000604083850312156136ae578182fd5b823567ffffffffffffffff8111156136c4578283fd5b6136d0858286016134a0565b925050602083013590505b9250929050565b6000602082840312156136f3578081fd5b815180151581141515613704578182fd5b809150505b92915050565b600060208284031215613720578081fd5b81357fffffffff00000000000000000000000000000000000000000000000000000000811681141515613751578182fd5b809150505b92915050565b60006020828403121561376d578081fd5b815161377881613e4a565b809150505b92915050565b600060208284031215613794578081fd5b813561379f81613e4a565b809150505b92915050565b6000602082840312156137bb578081fd5b6137c48261352e565b90505b92915050565b6000600060008385036101008112156137e4578182fd5b8435935060c07fffffffffffffffffffffffffffffffffffffffffffffffffffffffffffffffe082011215613817578182fd5b5060405160c0810181811067ffffffffffffffff8211171561383557fe5b80604052506138466020860161354c565b81526138546040860161354c565b60208201526138656060860161354c565b604082015261387660808601613579565b606082015261388760a0860161352e565b608082015261389860c0860161352e565b60a08201528092505060e084013590505b9250925092565b6000600082840360808112156138c4578283fd5b60608112156138d1578283fd5b506040516060810181811067ffffffffffffffff821117156138ef57fe5b80604052508335815261390460208501613579565b60208201526139156040850161354c565b60408201528092505061392a60608401613579565b90505b9250929050565b600060208284031215613945578081fd5b61394e8261354c565b90505b92915050565b600060208284031215613968578081fd5b813590505b92915050565b600060208284031215613984578081fd5b815190505b92915050565b6000602082840312156139a0578081fd5b6139a982613579565b90505b92915050565b600060208201905073ffffffffffffffffffffffffffffffffffffffff831682525b92915050565b600060408201905073ffffffffffffffffffffffffffffffffffffffff841682526fffffffffffffffffffffffffffffffff831660208301525b9392505050565b600060208083018184528085518083526040860191508387019250845b81811015613a705773ffffffffffffffffffffffffffffffffffffffff8451168352848301925084840193505b600181019050613a38565b50508093505050505b92915050565b600060208201905082151582525b92915050565b600060208201905073ffffffffffffffffffffffffffffffffffffffff831682525b92915050565b600060208201905073ffffffffffffffffffffffffffffffffffffffff831682525b92915050565b600060408201905073ffffffffffffffffffffffffffffffffffffffff8416825282151560208301525b9392505050565b600060208201905082600f0b82525b92915050565b60006020820190508282525b92915050565b60006080820190508582528460208301526fffffffffffffffffffffffffffffffff8416604083015267ffffffffffffffff831660608301525b95945050505050565b600060608201905084825267ffffffffffffffff841660208301526fffffffffffffffffffffffffffffffff831660408301525b949350505050565b600060208252600960208301527f4e6f7420666f756e64000000000000000000000000000000000000000000000060408301526060820190505b919050565b600060208252601460208301527f506f6f6c206e6f7420696e697469616c697a656400000000000000000000000060408301526060820190505b919050565b600060208252600560208301527f656d70747900000000000000000000000000000000000000000000000000000060408301526060820190505b919050565b600060208252601060208301527f557064617465206e6f742072656164790000000000000000000000000000000060408301526060820190505b919050565b600060208252600d60208301527f4f6e6c79206f6e6520706f6f6c0000000000000000000000000000000000000060408301526060820190505b919050565b600060208252600d60208301527f416c72656164792061646465640000000000000000000000000000000000000060408301526060820190505b919050565b60006020820190506fffffffffffffffffffffffffffffffff831682525b92915050565b600060c0820190506fffffffffffffffffffffffffffffffff8089168352808816602084015280871660408401525067ffffffffffffffff8516606083015283600f0b608083015282600f0b60a08301525b979650505050505050565b60006020820190508282525b92915050565b60006040820190508382528260208301525b9392505050565b600060208201905067ffffffffffffffff831682525b92915050565b6000604051905081810181811067ffffffffffffffff82111715613e1c57fe5b80604052505b919050565b600067ffffffffffffffff821115613e3b57fe5b6020602083020190505b919050565b73ffffffffffffffffffffffffffffffffffffffff811681141515613e6f5760006000fd5b5b50565bfe5369676e6564536166654d6174683a206164646974696f6e206f766572666c6f775369676e6564536166654d6174683a207375627472616374696f6e206f766572666c6f77a264697066735822122087db7c77029d8d8f4cf521f48688d5b7a643108e73df97892c8f9e7c61f6353164736f6c63430007060033",
  "linkReferences": {},
  "deployedLinkReferences": {}
}