{
  "_format": "hh-sol-artifact-1",
  "contractName": "ProtocolLock",
  "sourceName": "contracts/core/utils/ProtocolLock.sol",
  "abi": [
    {
      "inputs": [
        {
          "components": [
            {
              "internalType": "contract IGovernor",
              "name": "Governor",
              "type": "address"
            }
          ],
          "internalType": "struct IProtocolLock.ConstructorParams",
          "name": "params",
          "type": "tuple"
        }
      ],
      "stateMutability": "nonpayable",
      "type": "constructor"
    },
    {
      "anonymous": false,
      "inputs": [
        {
          "indexed": true,
          "internalType": "address",
          "name": "caller",
          "type": "address"
        }
      ],
      "name": "CallerAuthorized",
      "type": "event"
    },
    {
      "anonymous": false,
      "inputs": [
        {
          "indexed": true,
          "internalType": "address",
          "name": "caller",
          "type": "address"
        }
      ],
      "name": "CallerUnauthorized",
      "type": "event"
    },
    {
      "inputs": [
        {
          "internalType": "address",
          "name": "caller",
          "type": "address"
        }
      ],
      "name": "authorizeCaller",
      "outputs": [],
      "stateMutability": "nonpayable",
      "type": "function"
    },
    {
      "inputs": [
        {
          "internalType": "address",
          "name": "",
          "type": "address"
        }
      ],
      "name": "authorizedCaller",
      "outputs": [
        {
          "internalType": "bool",
          "name": "",
          "type": "bool"
        }
      ],
      "stateMutability": "view",
      "type": "function"
    },
    {
      "inputs": [],
      "name": "enter",
      "outputs": [],
      "stateMutability": "nonpayable",
      "type": "function"
    },
    {
      "inputs": [],
      "name": "exit",
      "outputs": [],
      "stateMutability": "nonpayable",
      "type": "function"
    },
    {
      "inputs": [],
      "name": "governor",
      "outputs": [
        {
          "internalType": "contract IGovernor",
          "name": "",
          "type": "address"
        }
      ],
      "stateMutability": "view",
      "type": "function"
    },
    {
      "inputs": [
        {
          "internalType": "address",
          "name": "caller",
          "type": "address"
        }
      ],
      "name": "unauthorizeCaller",
      "outputs": [],
      "stateMutability": "nonpayable",
      "type": "function"
    }
  ],
  "bytecode": "0x60a06040526001600160005090905534801561001b5760006000fd5b506040516107b13803806107b1833981810160405281019061003d9190610084565b5b806000015173ffffffffffffffffffffffffffffffffffffffff1660808173ffffffffffffffffffffffffffffffffffffffff16815260200150505b506100f6566100f5565b6000602082840312156100975760006000fd5b604051602081018181106001600160401b03821117156100c757634e487b7160e01b600052604160045260246000fd5b806040525082516001600160a01b038116811415156100e65760006000fd5b80825250809150505b92915050565b5b60805161069261011f6000396000818161011901528181610140015261024001526106926000f3fe60806040523480156100115760006000fd5b50600436106100775760003560e01c806398f6ef121161005157806398f6ef12146100d3578063e97dcb6214610103578063e9fad8ee1461010d57610077565b80630c340a241461007d5780632c388d5d1461009b5780634ac8c5ae146100b757610077565b60006000fd5b610085610117565b604051610092919061051d565b60405180910390f35b6100b560048036038101906100b09190610545565b61013b565b005b6100d160048036038101906100cc9190610545565b61023b565b005b6100ed60048036038101906100e89190610545565b61033b565b6040516100fa919061058a565b60405180910390f35b61010b610360565b005b61011561041a565b005b7f000000000000000000000000000000000000000000000000000000000000000081565b6101987f000000000000000000000000000000000000000000000000000000000000000073ffffffffffffffffffffffffffffffffffffffff163373ffffffffffffffffffffffffffffffffffffffff16146104d363ffffffff16565b6001600060005060008373ffffffffffffffffffffffffffffffffffffffff1673ffffffffffffffffffffffffffffffffffffffff16815260200190815260200160002060006101000a81548160ff0219169083151502179055508073ffffffffffffffffffffffffffffffffffffffff167f6acfd92212f0ec670af78f8ba2273e4a85ac17023475650c25be0440602bff2d60405160405180910390a25b5b50565b6102987f000000000000000000000000000000000000000000000000000000000000000073ffffffffffffffffffffffffffffffffffffffff163373ffffffffffffffffffffffffffffffffffffffff16146104d363ffffffff16565b6000600060005060008373ffffffffffffffffffffffffffffffffffffffff1673ffffffffffffffffffffffffffffffffffffffff16815260200190815260200160002060006101000a81548160ff0219169083151502179055508073ffffffffffffffffffffffffffffffffffffffff167f37967118b05f7af84a44112f7e4b59ab8aa3a73cebb4154828b43b934224522a60405160405180910390a25b5b50565b600060005060205280600052604060002060009150909054906101000a900460ff1681565b6103be600060005060003373ffffffffffffffffffffffffffffffffffffffff1673ffffffffffffffffffffffffffffffffffffffff16815260200190815260200160002060009054906101000a900460ff166104d363ffffffff16565b600260016000505414151515610409576040517f08c379a00000000000000000000000000000000000000000000000000000000081526004016104009061059e565b60405180910390fd5b600260016000508190909055505b5b565b610478600060005060003373ffffffffffffffffffffffffffffffffffffffff1673ffffffffffffffffffffffffffffffffffffffff16815260200190815260200160002060009054906101000a900460ff166104d363ffffffff16565b60026001600050541415156104c2576040517f08c379a00000000000000000000000000000000000000000000000000000000081526004016104b9906105dd565b60405180910390fd5b600160016000508190909055505b5b565b801515610515576040517f08c379a000000000000000000000000000000000000000000000000000000000815260040161050c9061061c565b60405180910390fd5b5b505661065b565b600060208201905073ffffffffffffffffffffffffffffffffffffffff831682525b92915050565b6000602082840312156105585760006000fd5b813573ffffffffffffffffffffffffffffffffffffffff81168114151561057f5760006000fd5b809150505b92915050565b600060208201905082151582525b92915050565b60208152600d60208201527f504c205265656e7472616e637900000000000000000000000000000000000000604082015260006060820190505b919050565b60208152600860208201527f504c206572726f72000000000000000000000000000000000000000000000000604082015260006060820190505b919050565b60208152601260208201527f504c3a204e6f7420417574686f72697a65640000000000000000000000000000604082015260006060820190505b919050565bfea264697066735822122029a7d7d44ce40177d054274cbb591a91f1d91d8e126aa7c74c672c8515c2c01064736f6c634300080c0033",
  "linkReferences": {},
  "deployedLinkReferences": {}
}