{
  "_format": "hh-sol-artifact-1",
  "contractName": "SqrtPriceMathTest",
  "sourceName": "contracts/uniswap-v3-core/test/SqrtPriceMathTest.sol",
  "abi": [
    {
      "inputs": [
        {
          "internalType": "uint160",
          "name": "sqrtLower",
          "type": "uint160"
        },
        {
          "internalType": "uint160",
          "name": "sqrtUpper",
          "type": "uint160"
        },
        {
          "internalType": "uint128",
          "name": "liquidity",
          "type": "uint128"
        },
        {
          "internalType": "bool",
          "name": "roundUp",
          "type": "bool"
        }
      ],
      "name": "getAmount0Delta",
      "outputs": [
        {
          "internalType": "uint256",
          "name": "amount0",
          "type": "uint256"
        }
      ],
      "stateMutability": "pure",
      "type": "function"
    },
    {
      "inputs": [
        {
          "internalType": "uint160",
          "name": "sqrtLower",
          "type": "uint160"
        },
        {
          "internalType": "uint160",
          "name": "sqrtUpper",
          "type": "uint160"
        },
        {
          "internalType": "uint128",
          "name": "liquidity",
          "type": "uint128"
        },
        {
          "internalType": "bool",
          "name": "roundUp",
          "type": "bool"
        }
      ],
      "name": "getAmount1Delta",
      "outputs": [
        {
          "internalType": "uint256",
          "name": "amount1",
          "type": "uint256"
        }
      ],
      "stateMutability": "pure",
      "type": "function"
    },
    {
      "inputs": [
        {
          "internalType": "uint160",
          "name": "sqrtLower",
          "type": "uint160"
        },
        {
          "internalType": "uint160",
          "name": "sqrtUpper",
          "type": "uint160"
        },
        {
          "internalType": "uint128",
          "name": "liquidity",
          "type": "uint128"
        },
        {
          "internalType": "bool",
          "name": "roundUp",
          "type": "bool"
        }
      ],
      "name": "getGasCostOfGetAmount0Delta",
      "outputs": [
        {
          "internalType": "uint256",
          "name": "",
          "type": "uint256"
        }
      ],
      "stateMutability": "view",
      "type": "function"
    },
    {
      "inputs": [
        {
          "internalType": "uint160",
          "name": "sqrtLower",
          "type": "uint160"
        },
        {
          "internalType": "uint160",
          "name": "sqrtUpper",
          "type": "uint160"
        },
        {
          "internalType": "uint128",
          "name": "liquidity",
          "type": "uint128"
        },
        {
          "internalType": "bool",
          "name": "roundUp",
          "type": "bool"
        }
      ],
      "name": "getGasCostOfGetAmount1Delta",
      "outputs": [
        {
          "internalType": "uint256",
          "name": "",
          "type": "uint256"
        }
      ],
      "stateMutability": "view",
      "type": "function"
    },
    {
      "inputs": [
        {
          "internalType": "uint160",
          "name": "sqrtP",
          "type": "uint160"
        },
        {
          "internalType": "uint128",
          "name": "liquidity",
          "type": "uint128"
        },
        {
          "internalType": "uint256",
          "name": "amountIn",
          "type": "uint256"
        },
        {
          "internalType": "bool",
          "name": "zeroForOne",
          "type": "bool"
        }
      ],
      "name": "getGasCostOfGetNextSqrtPriceFromInput",
      "outputs": [
        {
          "internalType": "uint256",
          "name": "",
          "type": "uint256"
        }
      ],
      "stateMutability": "view",
      "type": "function"
    },
    {
      "inputs": [
        {
          "internalType": "uint160",
          "name": "sqrtP",
          "type": "uint160"
        },
        {
          "internalType": "uint128",
          "name": "liquidity",
          "type": "uint128"
        },
        {
          "internalType": "uint256",
          "name": "amountOut",
          "type": "uint256"
        },
        {
          "internalType": "bool",
          "name": "zeroForOne",
          "type": "bool"
        }
      ],
      "name": "getGasCostOfGetNextSqrtPriceFromOutput",
      "outputs": [
        {
          "internalType": "uint256",
          "name": "",
          "type": "uint256"
        }
      ],
      "stateMutability": "view",
      "type": "function"
    },
    {
      "inputs": [
        {
          "internalType": "uint160",
          "name": "sqrtP",
          "type": "uint160"
        },
        {
          "internalType": "uint128",
          "name": "liquidity",
          "type": "uint128"
        },
        {
          "internalType": "uint256",
          "name": "amountIn",
          "type": "uint256"
        },
        {
          "internalType": "bool",
          "name": "zeroForOne",
          "type": "bool"
        }
      ],
      "name": "getNextSqrtPriceFromInput",
      "outputs": [
        {
          "internalType": "uint160",
          "name": "sqrtQ",
          "type": "uint160"
        }
      ],
      "stateMutability": "pure",
      "type": "function"
    },
    {
      "inputs": [
        {
          "internalType": "uint160",
          "name": "sqrtP",
          "type": "uint160"
        },
        {
          "internalType": "uint128",
          "name": "liquidity",
          "type": "uint128"
        },
        {
          "internalType": "uint256",
          "name": "amountOut",
          "type": "uint256"
        },
        {
          "internalType": "bool",
          "name": "zeroForOne",
          "type": "bool"
        }
      ],
      "name": "getNextSqrtPriceFromOutput",
      "outputs": [
        {
          "internalType": "uint160",
          "name": "sqrtQ",
          "type": "uint160"
        }
      ],
      "stateMutability": "pure",
      "type": "function"
    }
  ],
  "bytecode": "0x60806040523480156100115760006000fd5b50610017565b610fe0806100266000396000f3fe60806040523480156100115760006000fd5b506004361061008d5760003560e01c8063af955e3b1161005c578063af955e3b14610153578063d7cdaf7114610183578063e20f7ac0146101b3578063fedf2b5f146101e35761008d565b8063034d21e4146100935780632c32d4b6146100c357806348a0c5bd146100f3578063aa58276a146101235761008d565b60006000fd5b6100ad60048036038101906100a89190610d1f565b610213565b6040516100ba9190610d70565b60405180910390f35b6100dd60048036038101906100d89190610d82565b61024a565b6040516100ea9190610d70565b60405180910390f35b61010d60048036038101906101089190610d82565b61026d565b60405161011a9190610d70565b60405180910390f35b61013d60048036038101906101389190610d1f565b610290565b60405161014a9190610dda565b60405180910390f35b61016d60048036038101906101689190610d82565b6102b3565b60405161017a9190610d70565b60405180910390f35b61019d60048036038101906101989190610d82565b6102ea565b6040516101aa9190610d70565b60405180910390f35b6101cd60048036038101906101c89190610d1f565b610321565b6040516101da9190610d70565b60405180910390f35b6101fd60048036038101906101f89190610d1f565b610358565b60405161020a9190610dda565b60405180910390f35b600060005a905061022c8686868661037b63ffffffff16565b505a816102399190610e33565b91505061024256505b949350505050565b600061025e8585858561040563ffffffff16565b9050610265565b949350505050565b60006102818585858561056263ffffffff16565b9050610288565b949350505050565b60006102a48585858561037b63ffffffff16565b90506102ab565b949350505050565b600060005a90506102cc8686868661056263ffffffff16565b505a816102d99190610e33565b9150506102e256505b949350505050565b600060005a90506103038686868661040563ffffffff16565b505a816103109190610e33565b91505061031956505b949350505050565b600060005a905061033a8686868661065f63ffffffff16565b505a816103479190610e33565b91505061035056505b949350505050565b600061036c8585858561065f63ffffffff16565b9050610373565b949350505050565b600060008573ffffffffffffffffffffffffffffffffffffffff161115156103a35760006000fd5b6000846fffffffffffffffffffffffffffffffff161115156103c55760006000fd5b816103e2576103dd85858560016106e963ffffffff16565b6103f6565b6103f585858560016108b663ffffffff16565b5b90506103fd565b949350505050565b60008373ffffffffffffffffffffffffffffffffffffffff168573ffffffffffffffffffffffffffffffffffffffff16111561044657838580955081965050505b6000606060ff16846fffffffffffffffffffffffffffffffff16901b9050600086866104729190610e52565b73ffffffffffffffffffffffffffffffffffffffff16905060008773ffffffffffffffffffffffffffffffffffffffff161115156104b05760006000fd5b83610502578673ffffffffffffffffffffffffffffffffffffffff166104f383838973ffffffffffffffffffffffffffffffffffffffff16610a9763ffffffff16565b6104fd9190610ec1565b61054f565b61054e61052c83838973ffffffffffffffffffffffffffffffffffffffff16610bbb63ffffffff16565b8873ffffffffffffffffffffffffffffffffffffffff16610c3463ffffffff16565b5b9250505061055a5650505b949350505050565b60008373ffffffffffffffffffffffffffffffffffffffff168573ffffffffffffffffffffffffffffffffffffffff1611156105a357838580955081965050505b816105fe576105f9836fffffffffffffffffffffffffffffffff1686866105ca9190610e52565b73ffffffffffffffffffffffffffffffffffffffff166c01000000000000000000000000610a9763ffffffff16565b610650565b61064f836fffffffffffffffffffffffffffffffff1686866106209190610e52565b73ffffffffffffffffffffffffffffffffffffffff166c01000000000000000000000000610bbb63ffffffff16565b5b9050610657565b949350505050565b600060008573ffffffffffffffffffffffffffffffffffffffff161115156106875760006000fd5b6000846fffffffffffffffffffffffffffffffff161115156106a95760006000fd5b816106c6576106c185858560006108b663ffffffff16565b6106da565b6106d985858560006106e963ffffffff16565b5b90506106e1565b949350505050565b600081156107c857600073ffffffffffffffffffffffffffffffffffffffff73ffffffffffffffffffffffffffffffffffffffff1684111561075a57610755846c01000000000000000000000000876fffffffffffffffffffffffffffffffff16610a9763ffffffff16565b610780565b846fffffffffffffffffffffffffffffffff16606060ff1685901b61077f9190610ec1565b5b90506107bb6107ae828873ffffffffffffffffffffffffffffffffffffffff16610c4990919063ffffffff16565b610c70909063ffffffff16565b9150506108ae56506108ad565b600073ffffffffffffffffffffffffffffffffffffffff73ffffffffffffffffffffffffffffffffffffffff168411156108315761082c846c01000000000000000000000000876fffffffffffffffffffffffffffffffff16610bbb63ffffffff16565b61085b565b61085a606060ff1685901b866fffffffffffffffffffffffffffffffff16610c3463ffffffff16565b5b9050808673ffffffffffffffffffffffffffffffffffffffff161115156108825760006000fd5b808673ffffffffffffffffffffffffffffffffffffffff166108a49190610e33565b9150506108ae56505b5b949350505050565b600060008314156108c957849050610a8f565b6000606060ff16856fffffffffffffffffffffffffffffffff16901b905082156109d95760008673ffffffffffffffffffffffffffffffffffffffff16858873ffffffffffffffffffffffffffffffffffffffff16876109299190610f05565b9250826109369190610ec1565b1415610988576000818361094a9190610f4a565b905082811015156109865761097c838973ffffffffffffffffffffffffffffffffffffffff1683610bbb63ffffffff16565b9350505050610a8f565b505b6109cb826109c0878a73ffffffffffffffffffffffffffffffffffffffff16866109b29190610ec1565b610c4990919063ffffffff16565b610c3463ffffffff16565b92505050610a8f5650610a8d565b60008673ffffffffffffffffffffffffffffffffffffffff16858873ffffffffffffffffffffffffffffffffffffffff1687610a159190610f05565b925082610a229190610ec1565b148015610a2e57508082115b1515610a3a5760006000fd5b60008183610a489190610e33565b9050610a81610a74848a73ffffffffffffffffffffffffffffffffffffffff1684610bbb63ffffffff16565b610c70909063ffffffff16565b9350505050610a8f5650505b505b949350505050565b6000600060006000198587098587029250828110838203039150506000811415610ada57600084111515610acb5760006000fd5b83820492508292505050610bb4565b8084111515610ae95760006000fd5b60008486880990508281118203915080830392506000856001877fffffffffffffffffffffffffffffffffffffffffffffffffffffffffffffffff030116905080508086049550808404935060018182600003040190508083028417935083506000600287600302189050808702600203810290508050808702600203810290508050808702600203810290508050808702600203810290508050808702600203810290508050808702600203810290508050808502955085505084945050505050610bb456505050505b9392505050565b6000610bce848484610a9763ffffffff16565b90508050600082801515610be557610be4610e90565b5b8486091115610c2c577fffffffffffffffffffffffffffffffffffffffffffffffffffffffffffffffff81101515610c1d5760006000fd5b8080610c2890610f6a565b9150505b5b9392505050565b60006000828406118284040190505b92915050565b6000828284610c589190610f4a565b91508110151515610c695760006000fd5b5b92915050565b6000818291508173ffffffffffffffffffffffffffffffffffffffff16141515610c9a5760006000fd5b5b91905056610fa9565b60008135905073ffffffffffffffffffffffffffffffffffffffff811681141515610ccf5760006000fd5b5b919050565b6000813590506fffffffffffffffffffffffffffffffff811681141515610cfc5760006000fd5b5b919050565b60008135905080151581141515610d195760006000fd5b5b919050565b600060006000600060808587031215610d385760006000fd5b610d4185610ca4565b9350610d4f60208601610cd5565b925060408501359150610d6460608601610d02565b90505b92959194509250565b60006020820190508282525b92915050565b600060006000600060808587031215610d9b5760006000fd5b610da485610ca4565b9350610db260208601610ca4565b9250610dc060408601610cd5565b9150610dce60608601610d02565b90505b92959194509250565b600060208201905073ffffffffffffffffffffffffffffffffffffffff831682525b92915050565b7f4e487b7100000000000000000000000000000000000000000000000000000000600052601160045260246000fd5b565b600082821015610e4657610e45610e02565b5b82820390505b92915050565b600073ffffffffffffffffffffffffffffffffffffffff808316818516915081811015610e8257610e81610e02565b5b818103925050505b92915050565b7f4e487b7100000000000000000000000000000000000000000000000000000000600052601260045260246000fd5b565b6000821515610ef9577f4e487b7100000000000000000000000000000000000000000000000000000000600052601260045260246000fd5b82820490505b92915050565b6000817fffffffffffffffffffffffffffffffffffffffffffffffffffffffffffffffff0483118215151615610f3e57610f3d610e02565b5b82820290505b92915050565b60008219821115610f5e57610f5d610e02565b5b82820190505b92915050565b60007fffffffffffffffffffffffffffffffffffffffffffffffffffffffffffffffff821415610f9d57610f9c610e02565b5b6001820190505b919050565bfea264697066735822122041ace9ffe0318e4148a50cf188551b860a085936a1db964c955bbbfbdbca2b2264736f6c634300080c0033",
  "linkReferences": {},
  "deployedLinkReferences": {}
}