{
  "_format": "hh-sol-artifact-1",
  "contractName": "RatesTestable",
  "sourceName": "contracts/core/mocks/RatesTestable.sol",
  "abi": [
    {
      "inputs": [
        {
          "components": [
            {
              "internalType": "contract IGovernor",
              "name": "Governor",
              "type": "address"
            },
            {
              "internalType": "contract IProtocolLock",
              "name": "ProtocolLock",
              "type": "address"
            },
            {
              "internalType": "contract IUniswapV3Pool",
              "name": "CollateralPool",
              "type": "address"
            }
          ],
          "internalType": "struct IRates.ConstructorParams",
          "name": "params",
          "type": "tuple"
        }
      ],
      "stateMutability": "nonpayable",
      "type": "constructor"
    },
    {
      "anonymous": false,
      "inputs": [
        {
          "indexed": false,
          "internalType": "uint128",
          "name": "error",
          "type": "uint128"
        }
      ],
      "name": "AcceptableErrorUpdated",
      "type": "event"
    },
    {
      "anonymous": false,
      "inputs": [
        {
          "indexed": false,
          "internalType": "uint128",
          "name": "error",
          "type": "uint128"
        }
      ],
      "name": "ErrorIntervalUpdated",
      "type": "event"
    },
    {
      "anonymous": false,
      "inputs": [
        {
          "indexed": false,
          "internalType": "uint128",
          "name": "step",
          "type": "uint128"
        }
      ],
      "name": "InterestRateStepUpdated",
      "type": "event"
    },
    {
      "anonymous": false,
      "inputs": [
        {
          "indexed": false,
          "internalType": "int128",
          "name": "max",
          "type": "int128"
        }
      ],
      "name": "MaxRateUpdated",
      "type": "event"
    },
    {
      "anonymous": false,
      "inputs": [
        {
          "indexed": false,
          "internalType": "uint64",
          "name": "steps",
          "type": "uint64"
        }
      ],
      "name": "MaxStepsUpdated",
      "type": "event"
    },
    {
      "anonymous": false,
      "inputs": [
        {
          "indexed": false,
          "internalType": "int128",
          "name": "min",
          "type": "int128"
        }
      ],
      "name": "MinRateUpdated",
      "type": "event"
    },
    {
      "anonymous": false,
      "inputs": [
        {
          "indexed": false,
          "internalType": "uint64",
          "name": "time",
          "type": "uint64"
        }
      ],
      "name": "MinTimeBetweenUpdatesUpdated",
      "type": "event"
    },
    {
      "anonymous": false,
      "inputs": [
        {
          "indexed": false,
          "internalType": "int256",
          "name": "interestRate",
          "type": "int256"
        },
        {
          "indexed": false,
          "internalType": "uint256",
          "name": "price",
          "type": "uint256"
        },
        {
          "indexed": false,
          "internalType": "uint256",
          "name": "rewardCount",
          "type": "uint256"
        },
        {
          "indexed": false,
          "internalType": "uint64",
          "name": "nextUpdateTime",
          "type": "uint64"
        }
      ],
      "name": "RateUpdated",
      "type": "event"
    },
    {
      "anonymous": false,
      "inputs": [
        {
          "indexed": true,
          "internalType": "address",
          "name": "ratesUpdateContract",
          "type": "address"
        }
      ],
      "name": "RatesContractUpdated",
      "type": "event"
    },
    {
      "anonymous": false,
      "inputs": [
        {
          "indexed": false,
          "internalType": "address",
          "name": "pool",
          "type": "address"
        }
      ],
      "name": "ReferencePoolAdded",
      "type": "event"
    },
    {
      "anonymous": false,
      "inputs": [
        {
          "indexed": false,
          "internalType": "address",
          "name": "pool",
          "type": "address"
        }
      ],
      "name": "ReferencePoolRemoved",
      "type": "event"
    },
    {
      "anonymous": false,
      "inputs": [],
      "name": "Stopped",
      "type": "event"
    },
    {
      "inputs": [
        {
          "internalType": "contract IUniswapV3Pool",
          "name": "pool",
          "type": "address"
        }
      ],
      "name": "addReferencePool",
      "outputs": [],
      "stateMutability": "nonpayable",
      "type": "function"
    },
    {
      "inputs": [
        {
          "internalType": "uint256[]",
          "name": "referencePrices",
          "type": "uint256[]"
        },
        {
          "internalType": "uint256",
          "name": "collateralPrice",
          "type": "uint256"
        }
      ],
      "name": "calculatePrice",
      "outputs": [
        {
          "internalType": "uint256",
          "name": "",
          "type": "uint256"
        }
      ],
      "stateMutability": "pure",
      "type": "function"
    },
    {
      "inputs": [
        {
          "internalType": "int256",
          "name": "rate",
          "type": "int256"
        },
        {
          "components": [
            {
              "internalType": "uint128",
              "name": "acceptableError",
              "type": "uint128"
            },
            {
              "internalType": "uint128",
              "name": "errorInterval",
              "type": "uint128"
            },
            {
              "internalType": "uint128",
              "name": "interestRateStep",
              "type": "uint128"
            },
            {
              "internalType": "uint64",
              "name": "maxSteps",
              "type": "uint64"
            },
            {
              "internalType": "int128",
              "name": "minRate",
              "type": "int128"
            },
            {
              "internalType": "int128",
              "name": "maxRate",
              "type": "int128"
            }
          ],
          "internalType": "struct Rates.InterestRateParameters",
          "name": "rp",
          "type": "tuple"
        },
        {
          "internalType": "uint256",
          "name": "price",
          "type": "uint256"
        }
      ],
      "name": "calculateRate",
      "outputs": [
        {
          "internalType": "int256",
          "name": "",
          "type": "int256"
        }
      ],
      "stateMutability": "pure",
      "type": "function"
    },
    {
      "inputs": [
        {
          "components": [
            {
              "internalType": "int256",
              "name": "rate",
              "type": "int256"
            },
            {
              "internalType": "uint64",
              "name": "nextUpdateTime",
              "type": "uint64"
            },
            {
              "internalType": "uint128",
              "name": "rewardCount",
              "type": "uint128"
            }
          ],
          "internalType": "struct Rates.RateData",
          "name": "rd",
          "type": "tuple"
        },
        {
          "internalType": "uint64",
          "name": "currentTime",
          "type": "uint64"
        }
      ],
      "name": "calculateRewardCount",
      "outputs": [
        {
          "internalType": "uint256",
          "name": "",
          "type": "uint256"
        }
      ],
      "stateMutability": "pure",
      "type": "function"
    },
    {
      "inputs": [],
      "name": "collateralPool",
      "outputs": [
        {
          "internalType": "contract IUniswapV3Pool",
          "name": "",
          "type": "address"
        }
      ],
      "stateMutability": "view",
      "type": "function"
    },
    {
      "inputs": [
        {
          "internalType": "contract IUniswapV3Pool[]",
          "name": "pools",
          "type": "address[]"
        },
        {
          "internalType": "contract IUniswapV3Pool",
          "name": "pool",
          "type": "address"
        }
      ],
      "name": "contains",
      "outputs": [
        {
          "internalType": "bool",
          "name": "",
          "type": "bool"
        }
      ],
      "stateMutability": "pure",
      "type": "function"
    },
    {
      "inputs": [],
      "name": "currentRateData",
      "outputs": [
        {
          "internalType": "int256",
          "name": "rate",
          "type": "int256"
        },
        {
          "internalType": "uint64",
          "name": "nextUpdateTime",
          "type": "uint64"
        },
        {
          "internalType": "uint128",
          "name": "rewardCount",
          "type": "uint128"
        }
      ],
      "stateMutability": "view",
      "type": "function"
    },
    {
      "inputs": [],
      "name": "deployer",
      "outputs": [
        {
          "internalType": "address",
          "name": "",
          "type": "address"
        }
      ],
      "stateMutability": "view",
      "type": "function"
    },
    {
      "inputs": [
        {
          "internalType": "int256",
          "name": "newRate",
          "type": "int256"
        }
      ],
      "name": "executeRatesUpdateContractUpdate",
      "outputs": [],
      "stateMutability": "nonpayable",
      "type": "function"
    },
    {
      "inputs": [],
      "name": "getReferencePools",
      "outputs": [
        {
          "internalType": "contract IUniswapV3Pool[]",
          "name": "",
          "type": "address[]"
        }
      ],
      "stateMutability": "view",
      "type": "function"
    },
    {
      "inputs": [],
      "name": "getRewardCount",
      "outputs": [
        {
          "internalType": "uint256",
          "name": "",
          "type": "uint256"
        }
      ],
      "stateMutability": "view",
      "type": "function"
    },
    {
      "inputs": [],
      "name": "governor",
      "outputs": [
        {
          "internalType": "contract IGovernor",
          "name": "",
          "type": "address"
        }
      ],
      "stateMutability": "view",
      "type": "function"
    },
    {
      "inputs": [],
      "name": "init",
      "outputs": [],
      "stateMutability": "nonpayable",
      "type": "function"
    },
    {
      "inputs": [],
      "name": "interestRateAbsoluteValue",
      "outputs": [
        {
          "internalType": "uint256",
          "name": "",
          "type": "uint256"
        }
      ],
      "stateMutability": "view",
      "type": "function"
    },
    {
      "inputs": [],
      "name": "interestRateParameters",
      "outputs": [
        {
          "internalType": "uint128",
          "name": "acceptableError",
          "type": "uint128"
        },
        {
          "internalType": "uint128",
          "name": "errorInterval",
          "type": "uint128"
        },
        {
          "internalType": "uint128",
          "name": "interestRateStep",
          "type": "uint128"
        },
        {
          "internalType": "uint64",
          "name": "maxSteps",
          "type": "uint64"
        },
        {
          "internalType": "int128",
          "name": "minRate",
          "type": "int128"
        },
        {
          "internalType": "int128",
          "name": "maxRate",
          "type": "int128"
        }
      ],
      "stateMutability": "view",
      "type": "function"
    },
    {
      "inputs": [
        {
          "internalType": "uint256[]",
          "name": "values",
          "type": "uint256[]"
        }
      ],
      "name": "median",
      "outputs": [
        {
          "internalType": "uint256",
          "name": "",
          "type": "uint256"
        }
      ],
      "stateMutability": "pure",
      "type": "function"
    },
    {
      "inputs": [],
      "name": "minTimeBetweenUpdates",
      "outputs": [
        {
          "internalType": "uint64",
          "name": "",
          "type": "uint64"
        }
      ],
      "stateMutability": "view",
      "type": "function"
    },
    {
      "inputs": [],
      "name": "positiveInterestRate",
      "outputs": [
        {
          "internalType": "bool",
          "name": "",
          "type": "bool"
        }
      ],
      "stateMutability": "view",
      "type": "function"
    },
    {
      "inputs": [],
      "name": "predictInterestRate",
      "outputs": [
        {
          "internalType": "uint256",
          "name": "price",
          "type": "uint256"
        },
        {
          "internalType": "int256",
          "name": "rate",
          "type": "int256"
        }
      ],
      "stateMutability": "view",
      "type": "function"
    },
    {
      "inputs": [],
      "name": "ratesUpdateContract",
      "outputs": [
        {
          "internalType": "address",
          "name": "",
          "type": "address"
        }
      ],
      "stateMutability": "view",
      "type": "function"
    },
    {
      "inputs": [
        {
          "internalType": "uint256",
          "name": "",
          "type": "uint256"
        }
      ],
      "name": "referencePools",
      "outputs": [
        {
          "internalType": "contract IUniswapV3Pool",
          "name": "",
          "type": "address"
        }
      ],
      "stateMutability": "view",
      "type": "function"
    },
    {
      "inputs": [
        {
          "internalType": "contract IUniswapV3Pool[]",
          "name": "pools",
          "type": "address[]"
        },
        {
          "internalType": "contract IUniswapV3Pool",
          "name": "pool",
          "type": "address"
        }
      ],
      "name": "removePoolFromPools",
      "outputs": [
        {
          "internalType": "contract IUniswapV3Pool[]",
          "name": "",
          "type": "address[]"
        }
      ],
      "stateMutability": "pure",
      "type": "function"
    },
    {
      "inputs": [
        {
          "internalType": "contract IUniswapV3Pool",
          "name": "pool",
          "type": "address"
        }
      ],
      "name": "removeReferencePool",
      "outputs": [],
      "stateMutability": "nonpayable",
      "type": "function"
    },
    {
      "inputs": [
        {
          "internalType": "uint128",
          "name": "error",
          "type": "uint128"
        }
      ],
      "name": "setAcceptableError",
      "outputs": [],
      "stateMutability": "nonpayable",
      "type": "function"
    },
    {
      "inputs": [
        {
          "internalType": "uint128",
          "name": "interval",
          "type": "uint128"
        }
      ],
      "name": "setErrorInterval",
      "outputs": [],
      "stateMutability": "nonpayable",
      "type": "function"
    },
    {
      "inputs": [
        {
          "internalType": "uint128",
          "name": "step",
          "type": "uint128"
        }
      ],
      "name": "setInterestRateStep",
      "outputs": [],
      "stateMutability": "nonpayable",
      "type": "function"
    },
    {
      "inputs": [
        {
          "internalType": "int128",
          "name": "max",
          "type": "int128"
        }
      ],
      "name": "setMaxRate",
      "outputs": [],
      "stateMutability": "nonpayable",
      "type": "function"
    },
    {
      "inputs": [
        {
          "internalType": "uint64",
          "name": "steps",
          "type": "uint64"
        }
      ],
      "name": "setMaxSteps",
      "outputs": [],
      "stateMutability": "nonpayable",
      "type": "function"
    },
    {
      "inputs": [
        {
          "internalType": "int128",
          "name": "min",
          "type": "int128"
        }
      ],
      "name": "setMinRate",
      "outputs": [],
      "stateMutability": "nonpayable",
      "type": "function"
    },
    {
      "inputs": [
        {
          "internalType": "uint64",
          "name": "time",
          "type": "uint64"
        }
      ],
      "name": "setMinTimeBetweenUpdates",
      "outputs": [],
      "stateMutability": "nonpayable",
      "type": "function"
    },
    {
      "inputs": [
        {
          "internalType": "address",
          "name": "_ratesUpdateContract",
          "type": "address"
        }
      ],
      "name": "setRatesUpdateContract",
      "outputs": [],
      "stateMutability": "nonpayable",
      "type": "function"
    },
    {
      "inputs": [],
      "name": "stop",
      "outputs": [],
      "stateMutability": "nonpayable",
      "type": "function"
    },
    {
      "inputs": [],
      "name": "stopped",
      "outputs": [
        {
          "internalType": "bool",
          "name": "",
          "type": "bool"
        }
      ],
      "stateMutability": "view",
      "type": "function"
    },
    {
      "inputs": [],
      "name": "update",
      "outputs": [],
      "stateMutability": "nonpayable",
      "type": "function"
    },
    {
      "inputs": [
        {
          "internalType": "bytes4",
          "name": "",
          "type": "bytes4"
        }
      ],
      "name": "validUpdate",
      "outputs": [
        {
          "internalType": "bool",
          "name": "",
          "type": "bool"
        }
      ],
      "stateMutability": "view",
      "type": "function"
    }
  ],
  "bytecode": "0x60e06040526001600260005090905562014a78600460006101000a81548167ffffffffffffffff021916908367ffffffffffffffff160217905550348015620000485760006000fd5b5060405162004f8738038062004f8783398181016040528101906200006e9190620008b7565b5b805b806000015181602001515b815b8073ffffffffffffffffffffffffffffffffffffffff1660808173ffffffffffffffffffffffffffffffffffffffff16815260200150505b508073ffffffffffffffffffffffffffffffffffffffff1660a08173ffffffffffffffffffffffffffffffffffffffff16815260200150505b5050806040015173ffffffffffffffffffffffffffffffffffffffff1660c08173ffffffffffffffffffffffffffffffffffffffff16815260200150506040518060c0016040528066038d7ea4c680006fffffffffffffffffffffffffffffffff1681526020016611c37937e080006fffffffffffffffffffffffffffffffff1681526020016611c37937e080006fffffffffffffffffffffffffffffffff168152602001600567ffffffffffffffff1681526020017ffffffffffffffffffffffffffffffffffffffffffffffffffdeb17cb73b10000600f0b81526020016706f05b59d3b20000600f0b815260200150600560005060008201518160000160006101000a8154816fffffffffffffffffffffffffffffffff02191690836fffffffffffffffffffffffffffffffff16021790555060208201518160000160106101000a8154816fffffffffffffffffffffffffffffffff02191690836fffffffffffffffffffffffffffffffff16021790555060408201518160010160006101000a8154816fffffffffffffffffffffffffffffffff02191690836fffffffffffffffffffffffffffffffff16021790555060608201518160010160106101000a81548167ffffffffffffffff021916908367ffffffffffffffff16021790555060808201518160020160006101000a8154816fffffffffffffffffffffffffffffffff0219169083600f0b6fffffffffffffffffffffffffffffffff16021790555060a08201518160020160106101000a8154816fffffffffffffffffffffffffffffffff0219169083600f0b6fffffffffffffffffffffffffffffffff1602179055509050506040518060600160405280666a94d74f430000815260200162000397600460009054906101000a900467ffffffffffffffff16620007b660201b60201c565b67ffffffffffffffff16815260200168056bc75e2d631000006fffffffffffffffffffffffffffffffff16815260200150600860005060008201518160000160005090905560208201518160010160006101000a81548167ffffffffffffffff021916908367ffffffffffffffff16021790555060408201518160010160086101000a8154816fffffffffffffffffffffffffffffffff02191690836fffffffffffffffffffffffffffffffff16021790555090505060006040518061010001604052806380ddbdb460e01b7bffffffffffffffffffffffffffffffffffffffffffffffffffffffff19167bffffffffffffffffffffffffffffffffffffffffffffffffffffffff19168152602001635fd019ad60e01b7bffffffffffffffffffffffffffffffffffffffffffffffffffffffff19167bffffffffffffffffffffffffffffffffffffffffffffffffffffffff19168152602001636e16ead260e01b7bffffffffffffffffffffffffffffffffffffffffffffffffffffffff19167bffffffffffffffffffffffffffffffffffffffffffffffffffffffff1916815260200163d3ab388860e01b7bffffffffffffffffffffffffffffffffffffffffffffffffffffffff19167bffffffffffffffffffffffffffffffffffffffffffffffffffffffff1916815260200163ee47304d60e01b7bffffffffffffffffffffffffffffffffffffffffffffffffffffffff19167bffffffffffffffffffffffffffffffffffffffffffffffffffffffff1916815260200163eec3f6f160e01b7bffffffffffffffffffffffffffffffffffffffffffffffffffffffff19167bffffffffffffffffffffffffffffffffffffffffffffffffffffffff19168152602001635d8350b460e01b7bffffffffffffffffffffffffffffffffffffffffffffffffffffffff19167bffffffffffffffffffffffffffffffffffffffffffffffffffffffff1916815260200163fc2a11e860e01b7bffffffffffffffffffffffffffffffffffffffffffffffffffffffff19167bffffffffffffffffffffffffffffffffffffffffffffffffffffffff191681526020015090506000600090505b8150600881101562000769576001600160005060008484600881101515620006ea57620006e96200094b565b5b60200201517bffffffffffffffffffffffffffffffffffffffffffffffffffffffff19167bffffffffffffffffffffffffffffffffffffffffffffffffffffffff1916815260200190815260200160002060006101000a81548160ff0219169083151502179055505b808062000760906200097b565b915050620006bd565b5033600a60006101000a81548173ffffffffffffffffffffffffffffffffffffffff021916908373ffffffffffffffffffffffffffffffffffffffff160217905550505b505b5062000a14565b6000620007eb82620007cd620007f560201b60201c565b67ffffffffffffffff166200081760201b620023731790919060201c565b905080505b919050565b60006200080f426200083560201b6200238e17909060201c565b905080505b90565b600081836200082791906200099f565b90506200082f565b92915050565b6000680100000000000000008210151562000887576040517f08c379a00000000000000000000000000000000000000000000000000000000081526004016200087e90620009d4565b60405180910390fd5b81905062000890565b9190505662000a13565b6001600160a01b03811681141515620008b35760006000fd5b505b565b600060608284031215620008cb5760006000fd5b604051606081018181106001600160401b0382111715620008fc57634e487b7160e01b600052604160045260246000fd5b806040525082516200090e816200089a565b80825250602083015162000922816200089a565b80602083015250604083015162000939816200089a565b80604083015250809150505b92915050565b634e487b7160e01b600052603260045260246000fd5b565b634e487b7160e01b600052601160045260246000fd5b565b600060001982141562000993576200099262000963565b5b6001820190505b919050565b60006001600160401b03808316818516808303821115620009c557620009c462000963565b5b80820193505050505b92915050565b60208152601160208201527f6d6f7265207468616e2036342062697473000000000000000000000000000000604082015260006060820190505b919050565b5b60805160a05160c0516144f662000a9160003960008181610ab50152818161173501528181611f9901526123510152600081816129440152612b570152600081816106ce01528181610857015281816114d601528181611a4701528181611eee015281816123ef01528181612a2f0152612c9101526144f66000f3fe60806040523480156100115760006000fd5b50600436106102465760003560e01c806380ddbdb411610146578063ce62a3bf116100be578063e1c7392a1161008d578063eec3f6f111610072578063eec3f6f114610656578063fc2a11e814610672578063ff0eccf61461068e57610246565b8063e1c7392a14610630578063ee47304d1461063a57610246565b8063ce62a3bf14610596578063ceec5d6f146105c6578063d3ab3888146105f6578063d5f394881461061257610246565b8063a0fc0eda11610115578063ab658be2116100fa578063ab658be21461052c578063bf5d5ae31461054a578063c381c1e61461057a57610246565b8063a0fc0eda14610504578063a2e620451461052257610246565b806380ddbdb41461047757806384333cc71461049357806395563b47146104c3578063a03cada9146104e657610246565b80631f244faf116101d95780636d7fa664116101a85780636e16ead21161018d5780636e16ead21461041f57806375f12b211461043b5780637e7e8eec1461045957610246565b80636d7fa664146103e55780636dc14c8e1461040357610246565b80631f244faf1461035d5780633da80d661461037d5780635d8350b4146103ad5780635fd019ad146103c957610246565b80631268d3be116102155780631268d3be146102d4578063150147d714610304578063178d12261461032057806319a6e9e61461033f57610246565b806307da68f51461024c5780630c340a2414610256578063113cf1ab1461027457806311994c29146102a457610246565b60006000fd5b6102546106ac565b005b61025e6106cc565b60405161026b919061347d565b60405180910390f35b61028e600480360381019061028991906134a5565b6106f0565b60405161029b91906134f6565b60405180910390f35b6102be60048036038101906102b99190613615565b610715565b6040516102cb91906136a4565b60405180910390f35b6102ee60048036038101906102e99190613759565b610734565b6040516102fb91906136a4565b60405180910390f35b61031e600480360381019061031991906137e2565b610753565b005b61032861084f565b60405161033692919061380b565b60405180910390f35b610347610cd5565b6040516103549190613824565b60405180910390f35b610365610cef565b60405161037493929190613840565b60405180910390f35b6103976004803603810190610392919061387c565b610d3d565b6040516103a491906134f6565b60405180910390f35b6103c760048036038101906103c29190613940565b610d5c565b005b6103e360048036038101906103de9190613965565b610dff565b005b6103ed610ecf565b6040516103fa91906134f6565b60405180910390f35b61041d6004803603810190610418919061398a565b610eeb565b005b61043960048036038101906104349190613965565b610f8c565b005b61044361103e565b60405161045091906134f6565b60405180910390f35b610461611051565b60405161046e91906136a4565b60405180910390f35b610491600480360381019061048c9190613965565b611115565b005b6104ad60048036038101906104a891906139a8565b6111c7565b6040516104ba91906139c6565b60405180910390f35b6104cb61120d565b6040516104dd969594939291906139ee565b60405180910390f35b6104ee6112bc565b6040516104fb9190613a4b565b60405180910390f35b61050c6112e2565b60405161051991906136a4565b60405180910390f35b61052a611319565b005b610534611b3a565b6040516105419190613a73565b60405180910390f35b610564600480360381019061055f919061387c565b611bd0565b6040516105719190613a73565b60405180910390f35b610594600480360381019061058f91906137e2565b611bef565b005b6105b060048036038101906105ab9190613ad8565b611d8b565b6040516105bd91906136a4565b60405180910390f35b6105e060048036038101906105db9190613b37565b611da8565b6040516105ed9190613c04565b60405180910390f35b610610600480360381019061060b9190613940565b611dc9565b005b61061a611e42565b6040516106279190613a4b565b60405180910390f35b610638611e68565b005b610654600480360381019061064f9190613c16565b6120da565b005b610670600480360381019061066b9190613c16565b612190565b005b61068c60048036038101906106879190613c3b565b612246565b005b61069661234f565b6040516106a391906139c6565b60405180910390f35b6106ba6123ea63ffffffff16565b6106c861244a63ffffffff16565b5b5b565b7f000000000000000000000000000000000000000000000000000000000000000081565b600160005060205280600052604060002060009150909054906101000a900460ff1681565b6000610727838361249463ffffffff16565b905061072e565b92915050565b6000610746838361258563ffffffff16565b905061074d565b92915050565b6107616123ea63ffffffff16565b6107fa60036000508054806020026020016040519081016040528092919081815260200182805480156107e957602002820191906000526020600020905b8160009054906101000a900473ffffffffffffffffffffffffffffffffffffffff1673ffffffffffffffffffffffffffffffffffffffff168152602001906001019080831161079f575b5050505050826125d063ffffffff16565b600360005090805190602001906108129291906133cc565b507fe0c45385660471da2afc510ebde41d5f9361442fcda1f7a196e554fe3f6b5611816040516108429190613a4b565b60405180910390a15b5b50565b6000600060007f000000000000000000000000000000000000000000000000000000000000000073ffffffffffffffffffffffffffffffffffffffff1663d3419bf36040518163ffffffff1660e01b8152600401602060405180830381865afa1580156108c1573d600060003e3d6000fd5b505050506040513d601f19601f820116820180604052508101906108e59190613c64565b905060006003600050805490509050600081111515610939576040517f08c379a000000000000000000000000000000000000000000000000000000000815260040161093090613c8d565b60405180910390fd5b60008167ffffffffffffffff8111156109555761095461350a565b5b6040519080825280602002602001820160405280156109835781602001602082028036833780820191505090505b5090506000600090505b82811015610a92578373ffffffffffffffffffffffffffffffffffffffff16633c63a9cd6003600050838154811015156109ca576109c9613ccc565b5b906000526020600020900160005b9054906101000a900473ffffffffffffffffffffffffffffffffffffffff1660016040518363ffffffff1660e01b8152600401610a16929190613cfd565b602060405180830381865afa158015610a34573d600060003e3d6000fd5b505050506040513d601f19601f82011682018060405250810190610a589190613d2e565b8282815181101515610a6d57610a6c613ccc565b5b60200260200101909081815260200150505b8080610a8a90613d7d565b91505061098d565b50610b40818473ffffffffffffffffffffffffffffffffffffffff16633c63a9cd7f000000000000000000000000000000000000000000000000000000000000000060016040518363ffffffff1660e01b8152600401610af3929190613cfd565b602060405180830381865afa158015610b11573d600060003e3d6000fd5b505050506040513d601f19601f82011682018060405250810190610b359190613d2e565b61258563ffffffff16565b94508450610cbc60086000506000016000505460056000506040518060c00160405290816000820160009054906101000a90046fffffffffffffffffffffffffffffffff166fffffffffffffffffffffffffffffffff166fffffffffffffffffffffffffffffffff1681526020016000820160109054906101000a90046fffffffffffffffffffffffffffffffff166fffffffffffffffffffffffffffffffff166fffffffffffffffffffffffffffffffff1681526020016001820160009054906101000a90046fffffffffffffffffffffffffffffffff166fffffffffffffffffffffffffffffffff166fffffffffffffffffffffffffffffffff1681526020016001820160109054906101000a900467ffffffffffffffff1667ffffffffffffffff1667ffffffffffffffff1681526020016002820160009054906101000a9004600f0b600f0b600f0b81526020016002820160109054906101000a9004600f0b600f0b600f0b815260200150508761276563ffffffff16565b93508350848494509450505050610cd1565050505b9091565b600460009054906101000a900467ffffffffffffffff1681565b60086000508060000160005054908060010160009054906101000a900467ffffffffffffffff16908060010160089054906101000a90046fffffffffffffffffffffffffffffffff16905083565b6000610d4f838361290063ffffffff16565b9050610d56565b92915050565b610d6a6123ea63ffffffff16565b80600460006101000a81548167ffffffffffffffff021916908367ffffffffffffffff1602179055506000600460009054906101000a900467ffffffffffffffff1667ffffffffffffffff16111515610dc35760006000fd5b7f517c1f8e39144dc2198ca9c7f0cb04ac8ecbffef718abb8a24b56d2ae881e0fe81604051610df29190613824565b60405180910390a15b5b50565b610e0d6123ea63ffffffff16565b806fffffffffffffffffffffffffffffffff166000108015610e485750670de0b6b3a7640000816fffffffffffffffffffffffffffffffff16105b1515610e545760006000fd5b80600560005060000160106101000a8154816fffffffffffffffffffffffffffffffff02191690836fffffffffffffffffffffffffffffffff1602179055507f265b81e00f507e5ddfcde5e43ed2952f0462df065bf26eebc1c5bf184ab31cd381604051610ec29190613dbc565b60405180910390a15b5b50565b6000600060086000506000016000505412159050610ee8565b90565b610ef961294263ffffffff16565b610f07612a1f63ffffffff16565b610f66600460089054906101000a900473ffffffffffffffffffffffffffffffffffffffff1673ffffffffffffffffffffffffffffffffffffffff163373ffffffffffffffffffffffffffffffffffffffff1614612b0263ffffffff16565b8060086000506000016000508190909055505b5b610f88612b4863ffffffff16565b5b50565b610f9a6123ea63ffffffff16565b670de0b6b3a7640000816fffffffffffffffffffffffffffffffff16101515610fc35760006000fd5b80600560005060010160006101000a8154816fffffffffffffffffffffffffffffffff02191690836fffffffffffffffffffffffffffffffff1602179055507fbf56c5a0ff5b41763e4284940e0db09730e97d817e41e1396be9b9f2a9ed38fb816040516110319190613dbc565b60405180910390a15b5b50565b600060009054906101000a900460ff1681565b600061110b6008600050604051806060016040529081600082016000505481526020016001820160009054906101000a900467ffffffffffffffff1667ffffffffffffffff1667ffffffffffffffff1681526020016001820160089054906101000a90046fffffffffffffffffffffffffffffffff166fffffffffffffffffffffffffffffffff166fffffffffffffffffffffffffffffffff1681526020015050611100612bda63ffffffff16565b61249463ffffffff16565b9050611112565b90565b6111236123ea63ffffffff16565b670de0b6b3a7640000816fffffffffffffffffffffffffffffffff1610151561114c5760006000fd5b80600560005060000160006101000a8154816fffffffffffffffffffffffffffffffff02191690836fffffffffffffffffffffffffffffffff1602179055507f94ff7d36ecf3da5a6cb7d7be5b429c938850be85f46d1d256c0dafe008b590a3816040516111ba9190613dbc565b60405180910390a15b5b50565b600360005081815481106111da57600080fd5b906000526020600020900160005b9150909054906101000a900473ffffffffffffffffffffffffffffffffffffffff1681565b60056000508060000160009054906101000a90046fffffffffffffffffffffffffffffffff16908060000160109054906101000a90046fffffffffffffffffffffffffffffffff16908060010160009054906101000a90046fffffffffffffffffffffffffffffffff16908060010160109054906101000a900467ffffffffffffffff16908060020160009054906101000a9004600f0b908060020160109054906101000a9004600f0b905086565b600460089054906101000a900473ffffffffffffffffffffffffffffffffffffffff1681565b60006000600860005060000160005054905060008112611302578061130d565b8061130c90613de0565b5b91505061131656505b90565b61132761294263ffffffff16565b611335612a1f63ffffffff16565b600073ffffffffffffffffffffffffffffffffffffffff16600460089054906101000a900473ffffffffffffffffffffffffffffffffffffffff1673ffffffffffffffffffffffffffffffffffffffff161415156113c8576040517f08c379a00000000000000000000000000000000000000000000000000000000081526004016113bf90613e1f565b60405180910390fd5b60006008600050604051806060016040529081600082016000505481526020016001820160009054906101000a900467ffffffffffffffff1667ffffffffffffffff1667ffffffffffffffff1681526020016001820160089054906101000a90046fffffffffffffffffffffffffffffffff166fffffffffffffffffffffffffffffffff166fffffffffffffffffffffffffffffffff16815260200150509050611476612bda63ffffffff16565b67ffffffffffffffff16816020015167ffffffffffffffff16111515156114d2576040517f08c379a00000000000000000000000000000000000000000000000000000000081526004016114c990613e5e565b60405180910390fd5b60007f000000000000000000000000000000000000000000000000000000000000000073ffffffffffffffffffffffffffffffffffffffff1663d3419bf36040518163ffffffff1660e01b8152600401602060405180830381865afa158015611540573d600060003e3d6000fd5b505050506040513d601f19601f820116820180604052508101906115649190613c64565b9050600060036000508054905090506000811115156115b8576040517f08c379a00000000000000000000000000000000000000000000000000000000081526004016115af90613c8d565b60405180910390fd5b60008167ffffffffffffffff8111156115d4576115d361350a565b5b6040519080825280602002602001820160405280156116025781602001602082028036833780820191505090505b5090506000600090505b82811015611710578373ffffffffffffffffffffffffffffffffffffffff1663ce403c1360036000508381548110151561164957611648613ccc565b5b906000526020600020900160005b9054906101000a900473ffffffffffffffffffffffffffffffffffffffff166040518263ffffffff1660e01b815260040161169291906139c6565b6020604051808303816000875af11580156116b2573d600060003e3d6000fd5b505050506040513d601f19601f820116820180604052508101906116d69190613d2e565b82828151811015156116eb576116ea613ccc565b5b60200260200101909081815260200150505b808061170890613d7d565b91505061160c565b5060006117bf828573ffffffffffffffffffffffffffffffffffffffff1663ce403c137f00000000000000000000000000000000000000000000000000000000000000006040518263ffffffff1660e01b815260040161177091906139c6565b6020604051808303816000875af1158015611790573d600060003e3d6000fd5b505050506040513d601f19601f820116820180604052508101906117b49190613d2e565b61258563ffffffff16565b90506000604051806060016040528061193f886000015160056000506040518060c00160405290816000820160009054906101000a90046fffffffffffffffffffffffffffffffff166fffffffffffffffffffffffffffffffff166fffffffffffffffffffffffffffffffff1681526020016000820160109054906101000a90046fffffffffffffffffffffffffffffffff166fffffffffffffffffffffffffffffffff166fffffffffffffffffffffffffffffffff1681526020016001820160009054906101000a90046fffffffffffffffffffffffffffffffff166fffffffffffffffffffffffffffffffff166fffffffffffffffffffffffffffffffff1681526020016001820160109054906101000a900467ffffffffffffffff1667ffffffffffffffff1667ffffffffffffffff1681526020016002820160009054906101000a9004600f0b600f0b600f0b81526020016002820160109054906101000a9004600f0b600f0b600f0b815260200150508661276563ffffffff16565b8152602001611969600460009054906101000a900467ffffffffffffffff16612bf563ffffffff16565b67ffffffffffffffff1681526020016119a56119988961198d612bda63ffffffff16565b61249463ffffffff16565b612c2b909063ffffffff16565b6fffffffffffffffffffffffffffffffff16815260200150905080600860005060008201518160000160005090905560208201518160010160006101000a81548167ffffffffffffffff021916908367ffffffffffffffff16021790555060408201518160010160086101000a8154816fffffffffffffffffffffffffffffffff02191690836fffffffffffffffffffffffffffffffff1602179055509050507f000000000000000000000000000000000000000000000000000000000000000073ffffffffffffffffffffffffffffffffffffffff16634cd7a3153383604001516040518363ffffffff1660e01b8152600401611aa4929190613e9d565b600060405180830381600087803b158015611abf5760006000fd5b505af1158015611ad4573d600060003e3d6000fd5b505050507f9f912bcb7b057a4f10fbbee5785670aecb2ab545144237646e17398d55de72dc81600001518383604001518460200151604051611b199493929190613ede565b60405180910390a15050505050505b5b611b37612b4863ffffffff16565b5b565b60606003600050805480602002602001604051908101604052809291908181526020018280548015611bc157602002820191906000526020600020905b8160009054906101000a900473ffffffffffffffffffffffffffffffffffffffff1673ffffffffffffffffffffffffffffffffffffffff1681526020019060010190808311611b77575b50505050509050611bcd565b90565b6060611be283836125d063ffffffff16565b9050611be9565b92915050565b611bfd6123ea63ffffffff16565b611c966003600050805480602002602001604051908101604052809291908181526020018280548015611c8557602002820191906000526020600020905b8160009054906101000a900473ffffffffffffffffffffffffffffffffffffffff1673ffffffffffffffffffffffffffffffffffffffff1681526020019060010190808311611c3b575b50505050508261290063ffffffff16565b151515611cd8576040517f08c379a0000000000000000000000000000000000000000000000000000000008152600401611ccf90613f21565b60405180910390fd5b611ce781612c8f63ffffffff16565b600360005081908060018154018082558091505060019003906000526020600020900160005b9091909190916101000a81548173ffffffffffffffffffffffffffffffffffffffff021916908373ffffffffffffffffffffffffffffffffffffffff1602179055507fd815dd7ac4a8a5f5f1d3b09c4fb82cdf04e21e127619c6fca60b8f80e420492a81604051611d7e9190613a4b565b60405180910390a15b5b50565b6000611d9c82612d8f63ffffffff16565b9050611da3565b919050565b6000611dbb84848461276563ffffffff16565b9050611dc2565b9392505050565b611dd76123ea63ffffffff16565b80600560005060010160106101000a81548167ffffffffffffffff021916908367ffffffffffffffff1602179055507fcf58c4278b7362e258dd9a03400b38f692197a7ceb18b1c31ff440c1f9d5062f81604051611e359190613824565b60405180910390a15b5b50565b600a60009054906101000a900473ffffffffffffffffffffffffffffffffffffffff1681565b611ec7600a60009054906101000a900473ffffffffffffffffffffffffffffffffffffffff1673ffffffffffffffffffffffffffffffffffffffff163373ffffffffffffffffffffffffffffffffffffffff1614612b0263ffffffff16565b600a60006101000a81549073ffffffffffffffffffffffffffffffffffffffff02191690557f000000000000000000000000000000000000000000000000000000000000000073ffffffffffffffffffffffffffffffffffffffff1663d3419bf36040518163ffffffff1660e01b8152600401602060405180830381865afa158015611f58573d600060003e3d6000fd5b505050506040513d601f19601f82011682018060405250810190611f7c9190613c64565b73ffffffffffffffffffffffffffffffffffffffff1663532cec7c7f00000000000000000000000000000000000000000000000000000000000000006040518263ffffffff1660e01b8152600401611fd491906139c6565b602060405180830381865afa158015611ff2573d600060003e3d6000fd5b505050506040513d601f19601f820116820180604052508101906120169190613f60565b1515612057576040517f08c379a000000000000000000000000000000000000000000000000000000000815260040161204e90613f91565b60405180910390fd5b6000600090505b6003600050805490508110156120d6576120c260036000508281548110151561208a57612089613ccc565b5b906000526020600020900160005b9054906101000a900473ffffffffffffffffffffffffffffffffffffffff16612c8f63ffffffff16565b5b80806120ce90613d7d565b91505061205e565b505b565b6120e86123ea63ffffffff16565b600560005060020160109054906101000a9004600f0b600f0b81600f0b1215156121125760006000fd5b80600560005060020160006101000a8154816fffffffffffffffffffffffffffffffff0219169083600f0b6fffffffffffffffffffffffffffffffff1602179055507fc24e66dcb27dbd285d47a59317af2469aaec7df1cbef5058516e9f09c363a375816040516121839190613fd0565b60405180910390a15b5b50565b61219e6123ea63ffffffff16565b80600f0b600560005060020160009054906101000a9004600f0b600f0b1215156121c85760006000fd5b80600560005060020160106101000a8154816fffffffffffffffffffffffffffffffff0219169083600f0b6fffffffffffffffffffffffffffffffff1602179055507fddfcfaec23708d16c646e9e109985f7db635f6a645245e87946f7d2f64f4bb6a816040516122399190613fd0565b60405180910390a15b5b50565b6122546123ea63ffffffff16565b6122638161306f63ffffffff16565b15156122a4576040517f08c379a000000000000000000000000000000000000000000000000000000000815260040161229b90613fe5565b60405180910390fd5b80600460086101000a81548173ffffffffffffffffffffffffffffffffffffffff021916908373ffffffffffffffffffffffffffffffffffffffff160217905550600460089054906101000a900473ffffffffffffffffffffffffffffffffffffffff1673ffffffffffffffffffffffffffffffffffffffff167fe0b059e7224cb02077d499d3dcdb8b5fd92486104e56578599357ed67977c1f860405160405180910390a25b5b50565b7f000000000000000000000000000000000000000000000000000000000000000081565b600081836123819190614024565b9050612388565b92915050565b600068010000000000000000821015156123dd576040517f08c379a00000000000000000000000000000000000000000000000000000000081526004016123d490614057565b60405180910390fd5b8190506123e5565b919050565b6124477f000000000000000000000000000000000000000000000000000000000000000073ffffffffffffffffffffffffffffffffffffffff163373ffffffffffffffffffffffffffffffffffffffff1614612b0263ffffffff16565b5b565b6001600060006101000a81548160ff0219169083151502179055507f7acc84e34091ae817647a4c49116f5cc07f319078ba80f8f5fde37ea7e25cbd660405160405180910390a15b565b6000826020015167ffffffffffffffff168267ffffffffffffffff161115156124c0576000905061257f565b6000600284604001516124d391906140c7565b6fffffffffffffffffffffffffffffffff16905060006125198560200151856124fc91906140fd565b67ffffffffffffffff16610708846130989092919063ffffffff16565b82612524919061412f565b9050612574612553600587604001516fffffffffffffffffffffffffffffffff166131bc90919063ffffffff16565b6fffffffffffffffffffffffffffffffff16826131d790919063ffffffff16565b9250505061257f5650505b92915050565b60008161259784612d8f63ffffffff16565b760a70c3c40a64e6c51999090b65f67d92400000000000006125b9919061414f565b6125c3919061414f565b90506125ca565b92915050565b606060006125e484846131f563ffffffff16565b90507fffffffffffffffffffffffffffffffffffffffffffffffffffffffffffffffff811415151561264b576040517f08c379a00000000000000000000000000000000000000000000000000000000081526004016126429061416d565b60405180910390fd5b60006001855161265b91906141ac565b67ffffffffffffffff8111156126745761267361350a565b5b6040519080825280602002602001820160405280156126a25781602001602082028036833780820191505090505b50905060006000600090505b865181101561275057838114151561273c5786818151811015156126d5576126d4613ccc565b5b60200260200101518383806126e990613d7d565b94508151811015156126fe576126fd613ccc565b5b602002602001019073ffffffffffffffffffffffffffffffffffffffff16908173ffffffffffffffffffffffffffffffffffffffff16815260200150505b5b808061274890613d7d565b9150506126ae565b5081935050505061275f565050505b92915050565b60006000670de0b6b3a76400008310905060008161279657670de0b6b3a76400008461279191906141ac565b6127ab565b83670de0b6b3a76400006127aa91906141ac565b5b905084600001516fffffffffffffffffffffffffffffffff16811015156128b557600061282c61281f600188602001516fffffffffffffffffffffffffffffffff16856127f8919061414f565b612802919061412f565b886060015167ffffffffffffffff166131d790919063ffffffff16565b612c2b909063ffffffff16565b9050600061287b61285c8389604001516fffffffffffffffffffffffffffffffff166131bc90919063ffffffff16565b6fffffffffffffffffffffffffffffffff166132a3909063ffffffff16565b90508361289a57612895818961331690919063ffffffff16565b6128ae565b6128ad818961333190919063ffffffff16565b5b9750875050505b8460800151600f0b8612156128d1578460800151600f0b955085505b8460a00151600f0b8613156128ed578460a00151600f0b955085505b85925050506128f95650505b9392505050565b60007fffffffffffffffffffffffffffffffffffffffffffffffffffffffffffffffff61293384846131f563ffffffff16565b1415905061293c565b92915050565b7f000000000000000000000000000000000000000000000000000000000000000073ffffffffffffffffffffffffffffffffffffffff1663e97dcb626040518163ffffffff1660e01b8152600401600060405180830381600087803b1580156129ab5760006000fd5b505af11580156129c0573d600060003e3d6000fd5b50505050600260026000505414151515612a0f576040517f08c379a0000000000000000000000000000000000000000000000000000000008152600401612a06906141cb565b60405180910390fd5b600260026000508190909055505b565b612a2d61334c63ffffffff16565b7f000000000000000000000000000000000000000000000000000000000000000073ffffffffffffffffffffffffffffffffffffffff1663bf86d6906040518163ffffffff1660e01b8152600401602060405180830381865afa158015612a99573d600060003e3d6000fd5b505050506040513d601f19601f82011682018060405250810190612abd9190613f60565b151515612aff576040517f08c379a0000000000000000000000000000000000000000000000000000000008152600401612af69061420a565b60405180910390fd5b5b565b801515612b44576040517f08c379a0000000000000000000000000000000000000000000000000000000008152600401612b3b90614249565b60405180910390fd5b5b50565b600160026000508190909055507f000000000000000000000000000000000000000000000000000000000000000073ffffffffffffffffffffffffffffffffffffffff1663e9fad8ee6040518163ffffffff1660e01b8152600401600060405180830381600087803b158015612bbe5760006000fd5b505af1158015612bd3573d600060003e3d6000fd5b505050505b565b6000612bed4261238e909063ffffffff16565b905080505b90565b6000612c2182612c09612bda63ffffffff16565b67ffffffffffffffff1661237390919063ffffffff16565b905080505b919050565b600070010000000000000000000000000000000082101515612c82576040517f08c379a0000000000000000000000000000000000000000000000000000000008152600401612c7990614288565b60405180910390fd5b819050612c8a565b919050565b7f000000000000000000000000000000000000000000000000000000000000000073ffffffffffffffffffffffffffffffffffffffff1663d3419bf36040518163ffffffff1660e01b8152600401602060405180830381865afa158015612cfb573d600060003e3d6000fd5b505050506040513d601f19601f82011682018060405250810190612d1f9190613c64565b73ffffffffffffffffffffffffffffffffffffffff16637c5b9011826040518263ffffffff1660e01b8152600401612d5791906139c6565b600060405180830381600087803b158015612d725760006000fd5b505af1158015612d87573d600060003e3d6000fd5b505050505b50565b6000600082519050600081111515612ddc576040517f08c379a0000000000000000000000000000000000000000000000000000000008152600401612dd3906142c7565b60405180910390fd5b6000600060005b6002841115612fd757856000815181101515612e0257612e01613ccc565b5b602002602001015191508150856000815181101515612e2457612e23613ccc565b5b6020026020010151905080506000600190505b84811015612e90578681815181101515612e5457612e53613ccc565b5b60200260200101519350835082841015612e6e5783925082505b81841115612e7c5783915081505b5b8080612e8890613d7d565b915050612e37565b5080821415612ea5578194505050505061306a565b6000600285612eb491906141ac565b67ffffffffffffffff811115612ecd57612ecc61350a565b5b604051908082528060200260200182016040528015612efb5781602001602082028036833780820191505090505b5090506000600060006000600090505b88811015612fb7578a81815181101515612f2857612f27613ccc565b5b6020026020010151975087508688148015612f41575081155b15612f5157600191508150612fa3565b8588148015612f5e575082155b15612f6e57600192508250612fa2565b87858580612f7b90613d7d565b9650815181101515612f9057612f8f613ccc565b5b60200260200101909081815260200150505b5b5b8080612faf90613d7d565b915050612f0b565b50600288612fc591906141ac565b97508750839950895050505050612de3565b600184141561300d57856000815181101515612ff657612ff5613ccc565b5b602002602001015194505050505061306a56613065565b61305a86600181518110151561302657613025613ccc565b5b602002602001015187600081518110151561304457613043613ccc565b5b60200260200101516133a190919063ffffffff16565b94505050505061306a565b505050505b919050565b600060008273ffffffffffffffffffffffffffffffffffffffff163b119050613093565b919050565b60006000600060001985870985870292508281108382030391505060008114156130db576000841115156130cc5760006000fd5b838204925082925050506131b5565b80841115156130ea5760006000fd5b60008486880990508281118203915080830392506000856001877fffffffffffffffffffffffffffffffffffffffffffffffffffffffffffffffff0301169050805080860495508084049350600181826000030401905080830284179350835060006002876003021890508087026002038102905080508087026002038102905080508087026002038102905080508087026002038102905080508087026002038102905080508087026002038102905080508085029550855050849450505050506131b556505050505b9392505050565b600081836131ca9190614306565b90506131d1565b92915050565b60008183106131e657816131e8565b825b90506131ef565b92915050565b60006000600090505b8351811015613274578273ffffffffffffffffffffffffffffffffffffffff16848281518110151561323357613232613ccc565b5b602002602001015173ffffffffffffffffffffffffffffffffffffffff161415613260578091505061329d565b5b808061326c90613d7d565b9150506131fe565b507fffffffffffffffffffffffffffffffffffffffffffffffffffffffffffffffff905061329d565b92915050565b60007f800000000000000000000000000000000000000000000000000000000000000082101515613309576040517f08c379a000000000000000000000000000000000000000000000000000000000815260040161330090614345565b60405180910390fd5b819050613311565b919050565b600081836133249190614384565b905061332b565b92915050565b6000818361333f9190614402565b9050613346565b92915050565b600060009054906101000a900460ff1615151561339e576040517f08c379a000000000000000000000000000000000000000000000000000000000815260040161339590614480565b60405180910390fd5b5b565b600060028284186133b2919061414f565b8284166133bf919061412f565b90506133c6565b92915050565b828054828255906000526020600020908101928215613445579160200282015b828111156134445782518260006101000a81548173ffffffffffffffffffffffffffffffffffffffff021916908373ffffffffffffffffffffffffffffffffffffffff160217905550916020019190600101906133ec565b5b5090506134529190613456565b5090565b61345b565b80821115613475576000818150600090555060010161345b565b5090566144bf565b600060208201905073ffffffffffffffffffffffffffffffffffffffff831682525b92915050565b6000602082840312156134b85760006000fd5b81357fffffffff000000000000000000000000000000000000000000000000000000008116811415156134eb5760006000fd5b809150505b92915050565b600060208201905082151582525b92915050565b7f4e487b7100000000000000000000000000000000000000000000000000000000600052604160045260246000fd5b565b6000604051905060c0810181811067ffffffffffffffff821117156135635761356261350a565b5b80604052505b90565b600060405190507fffffffffffffffffffffffffffffffffffffffffffffffffffffffffffffffe0601f830116810181811067ffffffffffffffff821117156135b8576135b761350a565b5b80604052505b919050565b60008135905067ffffffffffffffff8116811415156135e25760006000fd5b5b919050565b6000813590506fffffffffffffffffffffffffffffffff81168114151561360f5760006000fd5b5b919050565b60006000828403608081121561362b5760006000fd5b606081121561363a5760006000fd5b506040516060810181811067ffffffffffffffff8211171561365f5761365e61350a565b5b806040525083358152613674602085016135c3565b6020820152613685604085016135e8565b60408201528092505061369a606084016135c3565b90505b9250929050565b60006020820190508282525b92915050565b600067ffffffffffffffff8211156136d1576136d061350a565b5b60208260051b0190505b919050565b600082601f83011215156136f45760006000fd5b81356020613709613704836136b6565b61356c565b808382528282019150828460051b87010193508684111561372a5760006000fd5b8286015b8481101561374a578035835283830192505b838101905061372e565b50809450505050505b92915050565b600060006040838503121561376e5760006000fd5b823567ffffffffffffffff8111156137865760006000fd5b613792858286016136e0565b925050602083013590505b9250929050565b73ffffffffffffffffffffffffffffffffffffffff8116811415156137c95760006000fd5b505b565b6000813590506137dc816137a4565b5b919050565b6000602082840312156137f55760006000fd5b8135613800816137a4565b809150505b92915050565b60006040820190508382528260208301525b9392505050565b600060208201905067ffffffffffffffff831682525b92915050565b600060608201905084825267ffffffffffffffff841660208301526fffffffffffffffffffffffffffffffff831660408301525b949350505050565b60006000604083850312156138915760006000fd5b823567ffffffffffffffff8111156138a95760006000fd5b808401905084601f82011215156138c05760006000fd5b803560206138d56138d0836136b6565b61356c565b808382528282019150828460051b8601019350888411156138f65760006000fd5b82850194505b8385101561392357843561390f816137a4565b8083525082820191505b82850194506138fc565b80965050506139338187016137cd565b93505050505b9250929050565b6000602082840312156139535760006000fd5b61395c826135c3565b90505b92915050565b6000602082840312156139785760006000fd5b613981826135e8565b90505b92915050565b60006020828403121561399d5760006000fd5b813590505b92915050565b6000602082840312156139bb5760006000fd5b813590505b92915050565b600060208201905073ffffffffffffffffffffffffffffffffffffffff831682525b92915050565b600060c0820190506fffffffffffffffffffffffffffffffff8089168352808816602084015280871660408401525067ffffffffffffffff8516606083015283600f0b608083015282600f0b60a08301525b979650505050505050565b600060208201905073ffffffffffffffffffffffffffffffffffffffff831682525b92915050565b60006020808301818452808551808352604086019150838701925060005b81811015613ac95773ffffffffffffffffffffffffffffffffffffffff8451168352848301925084840193505b600181019050613a91565b50508093505050505b92915050565b600060208284031215613aeb5760006000fd5b813567ffffffffffffffff811115613b035760006000fd5b613b0f848285016136e0565b9150505b92915050565b60008135905080600f0b81141515613b315760006000fd5b5b919050565b600060006000838503610100811215613b505760006000fd5b8435935060c07fffffffffffffffffffffffffffffffffffffffffffffffffffffffffffffffe082011215613b855760006000fd5b50613b8e61353b565b613b9a602086016135e8565b8152613ba8604086016135e8565b6020820152613bb9606086016135e8565b6040820152613bca608086016135c3565b6060820152613bdb60a08601613b19565b6080820152613bec60c08601613b19565b60a08201528092505060e084013590505b9250925092565b60006020820190508282525b92915050565b600060208284031215613c295760006000fd5b613c3282613b19565b90505b92915050565b600060208284031215613c4e5760006000fd5b8135613c59816137a4565b809150505b92915050565b600060208284031215613c775760006000fd5b8151613c82816137a4565b809150505b92915050565b60208152601260208201527f4e6f207265666572656e636520706f6f6c730000000000000000000000000000604082015260006060820190505b919050565b7f4e487b7100000000000000000000000000000000000000000000000000000000600052603260045260246000fd5b565b600060408201905073ffffffffffffffffffffffffffffffffffffffff8416825282151560208301525b9392505050565b600060208284031215613d415760006000fd5b815190505b92915050565b7f4e487b7100000000000000000000000000000000000000000000000000000000600052601160045260246000fd5b565b60007fffffffffffffffffffffffffffffffffffffffffffffffffffffffffffffffff821415613db057613daf613d4c565b5b6001820190505b919050565b60006020820190506fffffffffffffffffffffffffffffffff831682525b92915050565b60007f8000000000000000000000000000000000000000000000000000000000000000821415613e1357613e12613d4c565b5b8160000390505b919050565b60208152601960208201527f5261746573207570646174652064656c65676174652073657400000000000000604082015260006060820190505b919050565b60208152601060208201527f557064617465206e6f7420726561647900000000000000000000000000000000604082015260006060820190505b919050565b600060408201905073ffffffffffffffffffffffffffffffffffffffff841682526fffffffffffffffffffffffffffffffff831660208301525b9392505050565b60006080820190508582528460208301526fffffffffffffffffffffffffffffffff8416604083015267ffffffffffffffff831660608301525b95945050505050565b60208152600d60208201527f416c726561647920616464656400000000000000000000000000000000000000604082015260006060820190505b919050565b600060208284031215613f735760006000fd5b815180151581141515613f865760006000fd5b809150505b92915050565b60208152601460208201527f506f6f6c206e6f7420696e697469616c697a6564000000000000000000000000604082015260006060820190505b919050565b600060208201905082600f0b82525b92915050565b60208152600e60208201527f4e6f74206120636f6e7472616374000000000000000000000000000000000000604082015260006060820190505b919050565b600067ffffffffffffffff80831681851680830382111561404857614047613d4c565b5b80820193505050505b92915050565b60208152601160208201527f6d6f7265207468616e2036342062697473000000000000000000000000000000604082015260006060820190505b919050565b7f4e487b7100000000000000000000000000000000000000000000000000000000600052601260045260246000fd5b565b60006fffffffffffffffffffffffffffffffff8084168015156140ed576140ec614096565b5b8082851604925050505b92915050565b600067ffffffffffffffff80831681851691508181101561412157614120613d4c565b5b818103925050505b92915050565b6000821982111561414357614142613d4c565b5b82820190505b92915050565b600082151561416157614160614096565b5b82820490505b92915050565b60208152600960208201527f4e6f7420666f756e640000000000000000000000000000000000000000000000604082015260006060820190505b919050565b6000828210156141bf576141be613d4c565b5b82820390505b92915050565b60208152600d60208201527f4c50205265656e7472616e637900000000000000000000000000000000000000604082015260006060820190505b919050565b60208152601160208201527f50726f746f636f6c2073687574646f776e000000000000000000000000000000604082015260006060820190505b919050565b60208152600e60208201527f4e6f7420417574686f72697a6564000000000000000000000000000000000000604082015260006060820190505b919050565b60208152601260208201527f6d6f7265207468616e2031323820626974730000000000000000000000000000604082015260006060820190505b919050565b60208152600560208201527f656d707479000000000000000000000000000000000000000000000000000000604082015260006060820190505b919050565b60006fffffffffffffffffffffffffffffffff8083168185168183048111821515161561433657614335613d4c565b5b80820293505050505b92915050565b60208152601260208201527f746f6f2062696720666f7220696e743235360000000000000000000000000000604082015260006060820190505b919050565b600060008312837f8000000000000000000000000000000000000000000000000000000000000000018312811516156143c0576143bf613d4c565b5b837f7fffffffffffffffffffffffffffffffffffffffffffffffffffffffffffffff0183138116156143f5576143f4613d4c565b5b5082820390505b92915050565b600060008212827f7fffffffffffffffffffffffffffffffffffffffffffffffffffffffffffffff0384138115161561443e5761443d613d4c565b5b827f800000000000000000000000000000000000000000000000000000000000000003841281161561447357614472613d4c565b5b5082820190505b92915050565b60208152601360208201527f436f6e74726163742069732073746f7070656400000000000000000000000000604082015260006060820190505b919050565bfea2646970667358221220841dd6dcdf553116be3f8a7fb808ecff748a1caf0f89457f22f53534b65dfd6964736f6c634300080c0033",
  "linkReferences": {},
  "deployedLinkReferences": {}
}