{
  "_format": "hh-sol-artifact-1",
  "contractName": "RatesTestable",
  "sourceName": "contracts/core/mocks/RatesTestable.sol",
  "abi": [
    {
      "inputs": [
        {
          "components": [
            {
              "internalType": "contract IGovernor",
              "name": "Governor",
              "type": "address"
            },
            {
              "internalType": "contract IProtocolLock",
              "name": "ProtocolLock",
              "type": "address"
            },
            {
              "internalType": "contract IUniswapV3Pool",
              "name": "CollateralPool",
              "type": "address"
            }
          ],
          "internalType": "struct IRates.ConstructorParams",
          "name": "params",
          "type": "tuple"
        }
      ],
      "stateMutability": "nonpayable",
      "type": "constructor"
    },
    {
      "anonymous": false,
      "inputs": [
        {
          "indexed": false,
          "internalType": "uint128",
          "name": "error",
          "type": "uint128"
        }
      ],
      "name": "AcceptableErrorUpdated",
      "type": "event"
    },
    {
      "anonymous": false,
      "inputs": [
        {
          "indexed": false,
          "internalType": "uint128",
          "name": "error",
          "type": "uint128"
        }
      ],
      "name": "ErrorIntervalUpdated",
      "type": "event"
    },
    {
      "anonymous": false,
      "inputs": [
        {
          "indexed": false,
          "internalType": "uint128",
          "name": "step",
          "type": "uint128"
        }
      ],
      "name": "InterestRateStepUpdated",
      "type": "event"
    },
    {
      "anonymous": false,
      "inputs": [
        {
          "indexed": false,
          "internalType": "int128",
          "name": "max",
          "type": "int128"
        }
      ],
      "name": "MaxRateUpdated",
      "type": "event"
    },
    {
      "anonymous": false,
      "inputs": [
        {
          "indexed": false,
          "internalType": "uint64",
          "name": "steps",
          "type": "uint64"
        }
      ],
      "name": "MaxStepsUpdated",
      "type": "event"
    },
    {
      "anonymous": false,
      "inputs": [
        {
          "indexed": false,
          "internalType": "int128",
          "name": "min",
          "type": "int128"
        }
      ],
      "name": "MinRateUpdated",
      "type": "event"
    },
    {
      "anonymous": false,
      "inputs": [
        {
          "indexed": false,
          "internalType": "uint64",
          "name": "time",
          "type": "uint64"
        }
      ],
      "name": "MinTimeBetweenUpdatesUpdated",
      "type": "event"
    },
    {
      "anonymous": false,
      "inputs": [
        {
          "indexed": false,
          "internalType": "int256",
          "name": "interestRate",
          "type": "int256"
        },
        {
          "indexed": false,
          "internalType": "uint256",
          "name": "price",
          "type": "uint256"
        },
        {
          "indexed": false,
          "internalType": "uint256",
          "name": "rewardCount",
          "type": "uint256"
        },
        {
          "indexed": false,
          "internalType": "uint64",
          "name": "nextUpdateTime",
          "type": "uint64"
        }
      ],
      "name": "RateUpdated",
      "type": "event"
    },
    {
      "anonymous": false,
      "inputs": [
        {
          "indexed": true,
          "internalType": "address",
          "name": "ratesUpdateContract",
          "type": "address"
        }
      ],
      "name": "RatesContractUpdated",
      "type": "event"
    },
    {
      "anonymous": false,
      "inputs": [
        {
          "indexed": false,
          "internalType": "address",
          "name": "pool",
          "type": "address"
        }
      ],
      "name": "ReferencePoolAdded",
      "type": "event"
    },
    {
      "anonymous": false,
      "inputs": [
        {
          "indexed": false,
          "internalType": "address",
          "name": "pool",
          "type": "address"
        }
      ],
      "name": "ReferencePoolRemoved",
      "type": "event"
    },
    {
      "anonymous": false,
      "inputs": [],
      "name": "Stopped",
      "type": "event"
    },
    {
      "inputs": [
        {
          "internalType": "contract IUniswapV3Pool",
          "name": "pool",
          "type": "address"
        }
      ],
      "name": "addReferencePool",
      "outputs": [],
      "stateMutability": "nonpayable",
      "type": "function"
    },
    {
      "inputs": [
        {
          "internalType": "uint256[]",
          "name": "referencePrices",
          "type": "uint256[]"
        },
        {
          "internalType": "uint256",
          "name": "collateralPrice",
          "type": "uint256"
        }
      ],
      "name": "calculatePrice",
      "outputs": [
        {
          "internalType": "uint256",
          "name": "",
          "type": "uint256"
        }
      ],
      "stateMutability": "pure",
      "type": "function"
    },
    {
      "inputs": [
        {
          "internalType": "int256",
          "name": "rate",
          "type": "int256"
        },
        {
          "components": [
            {
              "internalType": "uint128",
              "name": "acceptableError",
              "type": "uint128"
            },
            {
              "internalType": "uint128",
              "name": "errorInterval",
              "type": "uint128"
            },
            {
              "internalType": "uint128",
              "name": "interestRateStep",
              "type": "uint128"
            },
            {
              "internalType": "uint64",
              "name": "maxSteps",
              "type": "uint64"
            },
            {
              "internalType": "int128",
              "name": "minRate",
              "type": "int128"
            },
            {
              "internalType": "int128",
              "name": "maxRate",
              "type": "int128"
            }
          ],
          "internalType": "struct Rates.InterestRateParameters",
          "name": "rp",
          "type": "tuple"
        },
        {
          "internalType": "uint256",
          "name": "price",
          "type": "uint256"
        }
      ],
      "name": "calculateRate",
      "outputs": [
        {
          "internalType": "int256",
          "name": "",
          "type": "int256"
        }
      ],
      "stateMutability": "pure",
      "type": "function"
    },
    {
      "inputs": [
        {
          "components": [
            {
              "internalType": "int256",
              "name": "rate",
              "type": "int256"
            },
            {
              "internalType": "uint64",
              "name": "nextUpdateTime",
              "type": "uint64"
            },
            {
              "internalType": "uint128",
              "name": "rewardCount",
              "type": "uint128"
            }
          ],
          "internalType": "struct Rates.RateData",
          "name": "rd",
          "type": "tuple"
        },
        {
          "internalType": "uint64",
          "name": "currentTime",
          "type": "uint64"
        }
      ],
      "name": "calculateRewardCount",
      "outputs": [
        {
          "internalType": "uint256",
          "name": "",
          "type": "uint256"
        }
      ],
      "stateMutability": "pure",
      "type": "function"
    },
    {
      "inputs": [],
      "name": "collateralPool",
      "outputs": [
        {
          "internalType": "contract IUniswapV3Pool",
          "name": "",
          "type": "address"
        }
      ],
      "stateMutability": "view",
      "type": "function"
    },
    {
      "inputs": [
        {
          "internalType": "contract IUniswapV3Pool[]",
          "name": "pools",
          "type": "address[]"
        },
        {
          "internalType": "contract IUniswapV3Pool",
          "name": "pool",
          "type": "address"
        }
      ],
      "name": "contains",
      "outputs": [
        {
          "internalType": "bool",
          "name": "",
          "type": "bool"
        }
      ],
      "stateMutability": "pure",
      "type": "function"
    },
    {
      "inputs": [],
      "name": "currentRateData",
      "outputs": [
        {
          "internalType": "int256",
          "name": "rate",
          "type": "int256"
        },
        {
          "internalType": "uint64",
          "name": "nextUpdateTime",
          "type": "uint64"
        },
        {
          "internalType": "uint128",
          "name": "rewardCount",
          "type": "uint128"
        }
      ],
      "stateMutability": "view",
      "type": "function"
    },
    {
      "inputs": [],
      "name": "deployer",
      "outputs": [
        {
          "internalType": "address",
          "name": "",
          "type": "address"
        }
      ],
      "stateMutability": "view",
      "type": "function"
    },
    {
      "inputs": [
        {
          "internalType": "int256",
          "name": "newRate",
          "type": "int256"
        }
      ],
      "name": "executeRatesUpdateContractUpdate",
      "outputs": [],
      "stateMutability": "nonpayable",
      "type": "function"
    },
    {
      "inputs": [],
      "name": "getReferencePools",
      "outputs": [
        {
          "internalType": "contract IUniswapV3Pool[]",
          "name": "",
          "type": "address[]"
        }
      ],
      "stateMutability": "view",
      "type": "function"
    },
    {
      "inputs": [],
      "name": "getRewardCount",
      "outputs": [
        {
          "internalType": "uint256",
          "name": "",
          "type": "uint256"
        }
      ],
      "stateMutability": "view",
      "type": "function"
    },
    {
      "inputs": [],
      "name": "governor",
      "outputs": [
        {
          "internalType": "contract IGovernor",
          "name": "",
          "type": "address"
        }
      ],
      "stateMutability": "view",
      "type": "function"
    },
    {
      "inputs": [],
      "name": "init",
      "outputs": [],
      "stateMutability": "nonpayable",
      "type": "function"
    },
    {
      "inputs": [],
      "name": "interestRateAbsoluteValue",
      "outputs": [
        {
          "internalType": "uint256",
          "name": "",
          "type": "uint256"
        }
      ],
      "stateMutability": "view",
      "type": "function"
    },
    {
      "inputs": [],
      "name": "interestRateParameters",
      "outputs": [
        {
          "internalType": "uint128",
          "name": "acceptableError",
          "type": "uint128"
        },
        {
          "internalType": "uint128",
          "name": "errorInterval",
          "type": "uint128"
        },
        {
          "internalType": "uint128",
          "name": "interestRateStep",
          "type": "uint128"
        },
        {
          "internalType": "uint64",
          "name": "maxSteps",
          "type": "uint64"
        },
        {
          "internalType": "int128",
          "name": "minRate",
          "type": "int128"
        },
        {
          "internalType": "int128",
          "name": "maxRate",
          "type": "int128"
        }
      ],
      "stateMutability": "view",
      "type": "function"
    },
    {
      "inputs": [
        {
          "internalType": "uint256[]",
          "name": "values",
          "type": "uint256[]"
        }
      ],
      "name": "median",
      "outputs": [
        {
          "internalType": "uint256",
          "name": "",
          "type": "uint256"
        }
      ],
      "stateMutability": "pure",
      "type": "function"
    },
    {
      "inputs": [],
      "name": "minTimeBetweenUpdates",
      "outputs": [
        {
          "internalType": "uint64",
          "name": "",
          "type": "uint64"
        }
      ],
      "stateMutability": "view",
      "type": "function"
    },
    {
      "inputs": [],
      "name": "positiveInterestRate",
      "outputs": [
        {
          "internalType": "bool",
          "name": "",
          "type": "bool"
        }
      ],
      "stateMutability": "view",
      "type": "function"
    },
    {
      "inputs": [],
      "name": "predictInterestRate",
      "outputs": [
        {
          "internalType": "uint256",
          "name": "price",
          "type": "uint256"
        },
        {
          "internalType": "int256",
          "name": "rate",
          "type": "int256"
        }
      ],
      "stateMutability": "view",
      "type": "function"
    },
    {
      "inputs": [],
      "name": "ratesUpdateContract",
      "outputs": [
        {
          "internalType": "address",
          "name": "",
          "type": "address"
        }
      ],
      "stateMutability": "view",
      "type": "function"
    },
    {
      "inputs": [
        {
          "internalType": "uint256",
          "name": "",
          "type": "uint256"
        }
      ],
      "name": "referencePools",
      "outputs": [
        {
          "internalType": "contract IUniswapV3Pool",
          "name": "",
          "type": "address"
        }
      ],
      "stateMutability": "view",
      "type": "function"
    },
    {
      "inputs": [
        {
          "internalType": "contract IUniswapV3Pool[]",
          "name": "pools",
          "type": "address[]"
        },
        {
          "internalType": "contract IUniswapV3Pool",
          "name": "pool",
          "type": "address"
        }
      ],
      "name": "removePoolFromPools",
      "outputs": [
        {
          "internalType": "contract IUniswapV3Pool[]",
          "name": "",
          "type": "address[]"
        }
      ],
      "stateMutability": "pure",
      "type": "function"
    },
    {
      "inputs": [
        {
          "internalType": "contract IUniswapV3Pool",
          "name": "pool",
          "type": "address"
        }
      ],
      "name": "removeReferencePool",
      "outputs": [],
      "stateMutability": "nonpayable",
      "type": "function"
    },
    {
      "inputs": [
        {
          "internalType": "uint128",
          "name": "error",
          "type": "uint128"
        }
      ],
      "name": "setAcceptableError",
      "outputs": [],
      "stateMutability": "nonpayable",
      "type": "function"
    },
    {
      "inputs": [
        {
          "internalType": "uint128",
          "name": "interval",
          "type": "uint128"
        }
      ],
      "name": "setErrorInterval",
      "outputs": [],
      "stateMutability": "nonpayable",
      "type": "function"
    },
    {
      "inputs": [
        {
          "internalType": "uint128",
          "name": "step",
          "type": "uint128"
        }
      ],
      "name": "setInterestRateStep",
      "outputs": [],
      "stateMutability": "nonpayable",
      "type": "function"
    },
    {
      "inputs": [
        {
          "internalType": "int128",
          "name": "max",
          "type": "int128"
        }
      ],
      "name": "setMaxRate",
      "outputs": [],
      "stateMutability": "nonpayable",
      "type": "function"
    },
    {
      "inputs": [
        {
          "internalType": "uint64",
          "name": "steps",
          "type": "uint64"
        }
      ],
      "name": "setMaxSteps",
      "outputs": [],
      "stateMutability": "nonpayable",
      "type": "function"
    },
    {
      "inputs": [
        {
          "internalType": "int128",
          "name": "min",
          "type": "int128"
        }
      ],
      "name": "setMinRate",
      "outputs": [],
      "stateMutability": "nonpayable",
      "type": "function"
    },
    {
      "inputs": [
        {
          "internalType": "uint64",
          "name": "time",
          "type": "uint64"
        }
      ],
      "name": "setMinTimeBetweenUpdates",
      "outputs": [],
      "stateMutability": "nonpayable",
      "type": "function"
    },
    {
      "inputs": [
        {
          "internalType": "address",
          "name": "_ratesUpdateContract",
          "type": "address"
        }
      ],
      "name": "setRatesUpdateContract",
      "outputs": [],
      "stateMutability": "nonpayable",
      "type": "function"
    },
    {
      "inputs": [],
      "name": "stop",
      "outputs": [],
      "stateMutability": "nonpayable",
      "type": "function"
    },
    {
      "inputs": [],
      "name": "stopped",
      "outputs": [
        {
          "internalType": "bool",
          "name": "",
          "type": "bool"
        }
      ],
      "stateMutability": "view",
      "type": "function"
    },
    {
      "inputs": [],
      "name": "update",
      "outputs": [],
      "stateMutability": "nonpayable",
      "type": "function"
    },
    {
      "inputs": [
        {
          "internalType": "bytes4",
          "name": "",
          "type": "bytes4"
        }
      ],
      "name": "validUpdate",
      "outputs": [
        {
          "internalType": "bool",
          "name": "",
          "type": "bool"
        }
      ],
      "stateMutability": "view",
      "type": "function"
    }
  ],
  "bytecode": "0x60e06040526001600260005090905562014a78600460006101000a81548167ffffffffffffffff021916908367ffffffffffffffff160217905550348015620000485760006000fd5b50604051620052ac380380620052ac83398181016040528101906200006e9190620008aa565b5b805b806000015181602001515b815b8073ffffffffffffffffffffffffffffffffffffffff1660808173ffffffffffffffffffffffffffffffffffffffff1660601b815260140150505b508073ffffffffffffffffffffffffffffffffffffffff1660a08173ffffffffffffffffffffffffffffffffffffffff1660601b815260140150505b5050806040015173ffffffffffffffffffffffffffffffffffffffff1660c08173ffffffffffffffffffffffffffffffffffffffff1660601b815260140150506040518060c0016040528066038d7ea4c680006fffffffffffffffffffffffffffffffff1681526020016611c37937e080006fffffffffffffffffffffffffffffffff1681526020016611c37937e080006fffffffffffffffffffffffffffffffff168152602001600567ffffffffffffffff1681526020017ffffffffffffffffffffffffffffffffffffffffffffffffffdeb17cb73b10000600f0b81526020016706f05b59d3b20000600f0b815260200150600560005060008201518160000160006101000a8154816fffffffffffffffffffffffffffffffff02191690836fffffffffffffffffffffffffffffffff16021790555060208201518160000160106101000a8154816fffffffffffffffffffffffffffffffff02191690836fffffffffffffffffffffffffffffffff16021790555060408201518160010160006101000a8154816fffffffffffffffffffffffffffffffff02191690836fffffffffffffffffffffffffffffffff16021790555060608201518160010160106101000a81548167ffffffffffffffff021916908367ffffffffffffffff16021790555060808201518160020160006101000a8154816fffffffffffffffffffffffffffffffff0219169083600f0b6fffffffffffffffffffffffffffffffff16021790555060a08201518160020160106101000a8154816fffffffffffffffffffffffffffffffff0219169083600f0b6fffffffffffffffffffffffffffffffff1602179055509050506040518060600160405280666a94d74f4300008152602001620003c2600460009054906101000a900467ffffffffffffffff16620003a46200080560201b60201c565b67ffffffffffffffff166200082760201b620024fd1790919060201c565b67ffffffffffffffff16815260200168056bc75e2d631000006fffffffffffffffffffffffffffffffff16815260200150600860005060008201518160000160005090905560208201518160010160006101000a81548167ffffffffffffffff021916908367ffffffffffffffff16021790555060408201518160010160086101000a8154816fffffffffffffffffffffffffffffffff02191690836fffffffffffffffffffffffffffffffff16021790555090505060006040518061010001604052806380ddbdb460e01b7bffffffffffffffffffffffffffffffffffffffffffffffffffffffff19167bffffffffffffffffffffffffffffffffffffffffffffffffffffffff19168152602001635fd019ad60e01b7bffffffffffffffffffffffffffffffffffffffffffffffffffffffff19167bffffffffffffffffffffffffffffffffffffffffffffffffffffffff19168152602001636e16ead260e01b7bffffffffffffffffffffffffffffffffffffffffffffffffffffffff19167bffffffffffffffffffffffffffffffffffffffffffffffffffffffff1916815260200163d3ab388860e01b7bffffffffffffffffffffffffffffffffffffffffffffffffffffffff19167bffffffffffffffffffffffffffffffffffffffffffffffffffffffff1916815260200163ee47304d60e01b7bffffffffffffffffffffffffffffffffffffffffffffffffffffffff19167bffffffffffffffffffffffffffffffffffffffffffffffffffffffff1916815260200163eec3f6f160e01b7bffffffffffffffffffffffffffffffffffffffffffffffffffffffff19167bffffffffffffffffffffffffffffffffffffffffffffffffffffffff19168152602001635d8350b460e01b7bffffffffffffffffffffffffffffffffffffffffffffffffffffffff19167bffffffffffffffffffffffffffffffffffffffffffffffffffffffff1916815260200163fc2a11e860e01b7bffffffffffffffffffffffffffffffffffffffffffffffffffffffff19167bffffffffffffffffffffffffffffffffffffffffffffffffffffffff191681526020015090506000600090505b81506008811015620007b857600160016000506000848460088110151562000739577f4e487b7100000000000000000000000000000000000000000000000000000000600052603260045260246000fd5b60200201517bffffffffffffffffffffffffffffffffffffffffffffffffffffffff19167bffffffffffffffffffffffffffffffffffffffffffffffffffffffff1916815260200190815260200160002060006101000a81548160ff0219169083151502179055505b8080620007af90620009ae565b915050620006e8565b5033600a60006101000a81548173ffffffffffffffffffffffffffffffffffffffff021916908373ffffffffffffffffffffffffffffffffffffffff160217905550505b505b5062000a08565b60006200081f426200084560201b6200251817909060201c565b905080505b90565b6000818362000837919062000979565b90506200083f565b92915050565b6000680100000000000000008210151562000897576040517f08c379a00000000000000000000000000000000000000000000000000000000081526004016200088e906200093a565b60405180910390fd5b819050620008a0565b9190505662000a07565b600060608284031215620008bc578081fd5b604051606081018181106001600160401b0382111715620008eb57634e487b7160e01b83526041600452602483fd5b80604052508251620008fd81620009ea565b8082525060208301516200091181620009ea565b8060208301525060408301516200092881620009ea565b80604083015250809150505b92915050565b60208152601160208201527f6d6f7265207468616e2036342062697473000000000000000000000000000000604082015260006060820190505b919050565b60006001600160401b038083168185168083038211156200099f576200099e620009d2565b5b80820193505050505b92915050565b6000600019821415620009c657620009c5620009d2565b5b6001820190505b919050565b634e487b7160e01b600052601160045260246000fd5b565b6001600160a01b0381168114151562000a035760006000fd5b505b565b5b60805160601c60a05160601c60c05160601c61481e62000a8e60003960008181610b4701528181611869015281816120ed01526124db015260008181612b400152612d630152600081816106ce015281816108570152818161157801528181611b8b015281816120320152818161257901528181612c2b0152612e9d015261481e6000f3fe60806040523480156100115760006000fd5b50600436106102465760003560e01c806380ddbdb411610146578063ce62a3bf116100be578063e1c7392a1161008d578063eec3f6f111610072578063eec3f6f114610656578063fc2a11e814610672578063ff0eccf61461068e57610246565b8063e1c7392a14610630578063ee47304d1461063a57610246565b8063ce62a3bf14610596578063ceec5d6f146105c6578063d3ab3888146105f6578063d5f394881461061257610246565b8063a0fc0eda11610115578063ab658be2116100fa578063ab658be21461052c578063bf5d5ae31461054a578063c381c1e61461057a57610246565b8063a0fc0eda14610504578063a2e620451461052257610246565b806380ddbdb41461047757806384333cc71461049357806395563b47146104c3578063a03cada9146104e657610246565b80631f244faf116101d95780636d7fa664116101a85780636e16ead21161018d5780636e16ead21461041f57806375f12b211461043b5780637e7e8eec1461045957610246565b80636d7fa664146103e55780636dc14c8e1461040357610246565b80631f244faf1461035d5780633da80d661461037d5780635d8350b4146103ad5780635fd019ad146103c957610246565b80631268d3be116102155780631268d3be146102d4578063150147d714610304578063178d12261461032057806319a6e9e61461033f57610246565b806307da68f51461024c5780630c340a2414610256578063113cf1ab1461027457806311994c29146102a457610246565b60006000fd5b6102546106ac565b005b61025e6106cc565b60405161026b9190613e2b565b60405180910390f35b61028e60048036038101906102899190613a9e565b6106f0565b60405161029b9190613e17565b60405180910390f35b6102be60048036038101906102b99190613c41565b610715565b6040516102cb9190614384565b60405180910390f35b6102ee60048036038101906102e99190613a2a565b610734565b6040516102fb9190614384565b60405180910390f35b61031e60048036038101906103199190613b12565b610753565b005b61032861084f565b604051610336929190614396565b60405180910390f35b610347610d77565b60405161035491906143af565b60405180910390f35b610365610d91565b60405161037493929190613f16565b60405180910390f35b6103976004803603810190610392919061392c565b610ddf565b6040516103a49190613e17565b60405180910390f35b6103c760048036038101906103c29190613d27565b610dfe565b005b6103e360048036038101906103de9190613ccc565b610ea1565b005b6103ed610f71565b6040516103fa9190613e17565b60405180910390f35b61041d60048036038101906104189190613b5c565b610f8d565b005b61043960048036038101906104349190613ccc565b61102e565b005b6104436110e0565b6040516104509190613e17565b60405180910390f35b6104616110f3565b60405161046e9190614384565b60405180910390f35b610491600480360381019061048c9190613ccc565b6111b7565b005b6104ad60048036038101906104a89190613cef565b611269565b6040516104ba9190613e53565b60405180910390f35b6104cb6112af565b6040516104dd96959493929190614327565b60405180910390f35b6104ee61135e565b6040516104fb9190613d4a565b60405180910390f35b61050c611384565b6040516105199190614384565b60405180910390f35b61052a6113bb565b005b610534611c7e565b6040516105419190613db3565b60405180910390f35b610564600480360381019061055f919061392c565b611d14565b6040516105719190613db3565b60405180910390f35b610594600480360381019061058f9190613b12565b611d33565b005b6105b060048036038101906105ab91906139ed565b611ecf565b6040516105bd9190614384565b60405180910390f35b6105e060048036038101906105db9190613b78565b611eec565b6040516105ed9190613ec1565b60405180910390f35b610610600480360381019061060b9190613d27565b611f0d565b005b61061a611f86565b6040516106279190613d4a565b60405180910390f35b610638611fac565b005b610654600480360381019061064f9190613b39565b612264565b005b610670600480360381019061066b9190613b39565b61231a565b005b61068c60048036038101906106879190613905565b6123d0565b005b6106966124d9565b6040516106a39190613e53565b60405180910390f35b6106ba61257463ffffffff16565b6106c86125d463ffffffff16565b5b5b565b7f000000000000000000000000000000000000000000000000000000000000000081565b600160005060205280600052604060002060009150909054906101000a900460ff1681565b6000610727838361261e63ffffffff16565b905061072e565b92915050565b6000610746838361270f63ffffffff16565b905061074d565b92915050565b61076161257463ffffffff16565b6107fa60036000508054806020026020016040519081016040528092919081815260200182805480156107e957602002820191906000526020600020905b8160009054906101000a900473ffffffffffffffffffffffffffffffffffffffff1673ffffffffffffffffffffffffffffffffffffffff168152602001906001019080831161079f575b50505050508261275a63ffffffff16565b60036000509080519060200190610812929190613755565b507fe0c45385660471da2afc510ebde41d5f9361442fcda1f7a196e554fe3f6b5611816040516108429190613d4a565b60405180910390a15b5b50565b6000600060007f000000000000000000000000000000000000000000000000000000000000000073ffffffffffffffffffffffffffffffffffffffff1663d3419bf36040518163ffffffff1660e01b815260040160206040518083038186803b1580156108bc5760006000fd5b505afa1580156108d1573d600060003e3d6000fd5b505050506040513d601f19601f820116820180604052508101906108f59190613aeb565b905060006003600050805490509050600081111515610949576040517f08c379a000000000000000000000000000000000000000000000000000000000815260040161094090613fd0565b60405180910390fd5b60008167ffffffffffffffff81111561098b577f4e487b7100000000000000000000000000000000000000000000000000000000600052604160045260246000fd5b6040519080825280602002602001820160405280156109b95781602001602082028036833780820191505090505b5090506000600090505b82811015610b24578373ffffffffffffffffffffffffffffffffffffffff16633c63a9cd600360005083815481101515610a26577f4e487b7100000000000000000000000000000000000000000000000000000000600052603260045260246000fd5b906000526020600020900160005b9054906101000a900473ffffffffffffffffffffffffffffffffffffffff1660016040518363ffffffff1660e01b8152600401610a72929190613e7b565b60206040518083038186803b158015610a8b5760006000fd5b505afa158015610aa0573d600060003e3d6000fd5b505050506040513d601f19601f82011682018060405250810190610ac49190613d0b565b8282815181101515610aff577f4e487b7100000000000000000000000000000000000000000000000000000000600052603260045260246000fd5b60200260200101909081815260200150505b8080610b1c906146ae565b9150506109c3565b50610be2818473ffffffffffffffffffffffffffffffffffffffff16633c63a9cd7f000000000000000000000000000000000000000000000000000000000000000060016040518363ffffffff1660e01b8152600401610b85929190613e7b565b60206040518083038186803b158015610b9e5760006000fd5b505afa158015610bb3573d600060003e3d6000fd5b505050506040513d601f19601f82011682018060405250810190610bd79190613d0b565b61270f63ffffffff16565b94508450610d5e60086000506000016000505460056000506040518060c00160405290816000820160009054906101000a90046fffffffffffffffffffffffffffffffff166fffffffffffffffffffffffffffffffff166fffffffffffffffffffffffffffffffff1681526020016000820160109054906101000a90046fffffffffffffffffffffffffffffffff166fffffffffffffffffffffffffffffffff166fffffffffffffffffffffffffffffffff1681526020016001820160009054906101000a90046fffffffffffffffffffffffffffffffff166fffffffffffffffffffffffffffffffff166fffffffffffffffffffffffffffffffff1681526020016001820160109054906101000a900467ffffffffffffffff1667ffffffffffffffff1667ffffffffffffffff1681526020016002820160009054906101000a9004600f0b600f0b600f0b81526020016002820160109054906101000a9004600f0b600f0b600f0b815260200150508761296163ffffffff16565b93508350848494509450505050610d73565050505b9091565b600460009054906101000a900467ffffffffffffffff1681565b60086000508060000160005054908060010160009054906101000a900467ffffffffffffffff16908060010160089054906101000a90046fffffffffffffffffffffffffffffffff16905083565b6000610df18383612afc63ffffffff16565b9050610df8565b92915050565b610e0c61257463ffffffff16565b80600460006101000a81548167ffffffffffffffff021916908367ffffffffffffffff1602179055506000600460009054906101000a900467ffffffffffffffff1667ffffffffffffffff16111515610e655760006000fd5b7f517c1f8e39144dc2198ca9c7f0cb04ac8ecbffef718abb8a24b56d2ae881e0fe81604051610e9491906143af565b60405180910390a15b5b50565b610eaf61257463ffffffff16565b806fffffffffffffffffffffffffffffffff166000108015610eea5750670de0b6b3a7640000816fffffffffffffffffffffffffffffffff16105b1515610ef65760006000fd5b80600560005060000160106101000a8154816fffffffffffffffffffffffffffffffff02191690836fffffffffffffffffffffffffffffffff1602179055507f265b81e00f507e5ddfcde5e43ed2952f0462df065bf26eebc1c5bf184ab31cd381604051610f649190614303565b60405180910390a15b5b50565b6000600060086000506000016000505412159050610f8a565b90565b610f9b612b3e63ffffffff16565b610fa9612c1b63ffffffff16565b611008600460089054906101000a900473ffffffffffffffffffffffffffffffffffffffff1673ffffffffffffffffffffffffffffffffffffffff163373ffffffffffffffffffffffffffffffffffffffff1614612d0e63ffffffff16565b8060086000506000016000508190909055505b5b61102a612d5463ffffffff16565b5b50565b61103c61257463ffffffff16565b670de0b6b3a7640000816fffffffffffffffffffffffffffffffff161015156110655760006000fd5b80600560005060010160006101000a8154816fffffffffffffffffffffffffffffffff02191690836fffffffffffffffffffffffffffffffff1602179055507fbf56c5a0ff5b41763e4284940e0db09730e97d817e41e1396be9b9f2a9ed38fb816040516110d39190614303565b60405180910390a15b5b50565b600060009054906101000a900460ff1681565b60006111ad6008600050604051806060016040529081600082016000505481526020016001820160009054906101000a900467ffffffffffffffff1667ffffffffffffffff1667ffffffffffffffff1681526020016001820160089054906101000a90046fffffffffffffffffffffffffffffffff166fffffffffffffffffffffffffffffffff166fffffffffffffffffffffffffffffffff16815260200150506111a2612de663ffffffff16565b61261e63ffffffff16565b90506111b4565b90565b6111c561257463ffffffff16565b670de0b6b3a7640000816fffffffffffffffffffffffffffffffff161015156111ee5760006000fd5b80600560005060000160006101000a8154816fffffffffffffffffffffffffffffffff02191690836fffffffffffffffffffffffffffffffff1602179055507f94ff7d36ecf3da5a6cb7d7be5b429c938850be85f46d1d256c0dafe008b590a38160405161125c9190614303565b60405180910390a15b5b50565b6003600050818154811061127c57600080fd5b906000526020600020900160005b9150909054906101000a900473ffffffffffffffffffffffffffffffffffffffff1681565b60056000508060000160009054906101000a90046fffffffffffffffffffffffffffffffff16908060000160109054906101000a90046fffffffffffffffffffffffffffffffff16908060010160009054906101000a90046fffffffffffffffffffffffffffffffff16908060010160109054906101000a900467ffffffffffffffff16908060020160009054906101000a9004600f0b908060020160109054906101000a9004600f0b905086565b600460089054906101000a900473ffffffffffffffffffffffffffffffffffffffff1681565b600060006008600050600001600050549050600081126113a457806113af565b806113ae906146ed565b5b9150506113b856505b90565b6113c9612b3e63ffffffff16565b6113d7612c1b63ffffffff16565b600073ffffffffffffffffffffffffffffffffffffffff16600460089054906101000a900473ffffffffffffffffffffffffffffffffffffffff1673ffffffffffffffffffffffffffffffffffffffff1614151561146a576040517f08c379a00000000000000000000000000000000000000000000000000000000081526004016114619061408d565b60405180910390fd5b60006008600050604051806060016040529081600082016000505481526020016001820160009054906101000a900467ffffffffffffffff1667ffffffffffffffff1667ffffffffffffffff1681526020016001820160089054906101000a90046fffffffffffffffffffffffffffffffff166fffffffffffffffffffffffffffffffff166fffffffffffffffffffffffffffffffff16815260200150509050611518612de663ffffffff16565b67ffffffffffffffff16816020015167ffffffffffffffff1611151515611574576040517f08c379a000000000000000000000000000000000000000000000000000000000815260040161156b90614189565b60405180910390fd5b60007f000000000000000000000000000000000000000000000000000000000000000073ffffffffffffffffffffffffffffffffffffffff1663d3419bf36040518163ffffffff1660e01b815260040160206040518083038186803b1580156115dd5760006000fd5b505afa1580156115f2573d600060003e3d6000fd5b505050506040513d601f19601f820116820180604052508101906116169190613aeb565b90506000600360005080549050905060008111151561166a576040517f08c379a000000000000000000000000000000000000000000000000000000000815260040161166190613fd0565b60405180910390fd5b60008167ffffffffffffffff8111156116ac577f4e487b7100000000000000000000000000000000000000000000000000000000600052604160045260246000fd5b6040519080825280602002602001820160405280156116da5781602001602082028036833780820191505090505b5090506000600090505b82811015611844578373ffffffffffffffffffffffffffffffffffffffff1663ce403c13600360005083815481101515611747577f4e487b7100000000000000000000000000000000000000000000000000000000600052603260045260246000fd5b906000526020600020900160005b9054906101000a900473ffffffffffffffffffffffffffffffffffffffff166040518263ffffffff1660e01b81526004016117909190613e53565b602060405180830381600087803b1580156117ab5760006000fd5b505af11580156117c0573d600060003e3d6000fd5b505050506040513d601f19601f820116820180604052508101906117e49190613d0b565b828281518110151561181f577f4e487b7100000000000000000000000000000000000000000000000000000000600052603260045260246000fd5b60200260200101909081815260200150505b808061183c906146ae565b9150506116e4565b506000611903828573ffffffffffffffffffffffffffffffffffffffff1663ce403c137f00000000000000000000000000000000000000000000000000000000000000006040518263ffffffff1660e01b81526004016118a49190613e53565b602060405180830381600087803b1580156118bf5760006000fd5b505af11580156118d4573d600060003e3d6000fd5b505050506040513d601f19601f820116820180604052508101906118f89190613d0b565b61270f63ffffffff16565b905060006040518060600160405280611a83886000015160056000506040518060c00160405290816000820160009054906101000a90046fffffffffffffffffffffffffffffffff166fffffffffffffffffffffffffffffffff166fffffffffffffffffffffffffffffffff1681526020016000820160109054906101000a90046fffffffffffffffffffffffffffffffff166fffffffffffffffffffffffffffffffff166fffffffffffffffffffffffffffffffff1681526020016001820160009054906101000a90046fffffffffffffffffffffffffffffffff166fffffffffffffffffffffffffffffffff166fffffffffffffffffffffffffffffffff1681526020016001820160109054906101000a900467ffffffffffffffff1667ffffffffffffffff1667ffffffffffffffff1681526020016002820160009054906101000a9004600f0b600f0b600f0b81526020016002820160109054906101000a9004600f0b600f0b600f0b815260200150508661296163ffffffff16565b8152602001611aad600460009054906101000a900467ffffffffffffffff16612e0163ffffffff16565b67ffffffffffffffff168152602001611ae9611adc89611ad1612de663ffffffff16565b61261e63ffffffff16565b612e37909063ffffffff16565b6fffffffffffffffffffffffffffffffff16815260200150905080600860005060008201518160000160005090905560208201518160010160006101000a81548167ffffffffffffffff021916908367ffffffffffffffff16021790555060408201518160010160086101000a8154816fffffffffffffffffffffffffffffffff02191690836fffffffffffffffffffffffffffffffff1602179055509050507f000000000000000000000000000000000000000000000000000000000000000073ffffffffffffffffffffffffffffffffffffffff16634cd7a3153383604001516040518363ffffffff1660e01b8152600401611be8929190613d72565b600060405180830381600087803b158015611c035760006000fd5b505af1158015611c18573d600060003e3d6000fd5b505050507f9f912bcb7b057a4f10fbbee5785670aecb2ab545144237646e17398d55de72dc81600001518383604001518460200151604051611c5d9493929190613ed3565b60405180910390a15050505050505b5b611c7b612d5463ffffffff16565b5b565b60606003600050805480602002602001604051908101604052809291908181526020018280548015611d0557602002820191906000526020600020905b8160009054906101000a900473ffffffffffffffffffffffffffffffffffffffff1673ffffffffffffffffffffffffffffffffffffffff1681526020019060010190808311611cbb575b50505050509050611d11565b90565b6060611d26838361275a63ffffffff16565b9050611d2d565b92915050565b611d4161257463ffffffff16565b611dda6003600050805480602002602001604051908101604052809291908181526020018280548015611dc957602002820191906000526020600020905b8160009054906101000a900473ffffffffffffffffffffffffffffffffffffffff1673ffffffffffffffffffffffffffffffffffffffff1681526020019060010190808311611d7f575b505050505082612afc63ffffffff16565b151515611e1c576040517f08c379a0000000000000000000000000000000000000000000000000000000008152600401611e1390614246565b60405180910390fd5b611e2b81612e9b63ffffffff16565b600360005081908060018154018082558091505060019003906000526020600020900160005b9091909190916101000a81548173ffffffffffffffffffffffffffffffffffffffff021916908373ffffffffffffffffffffffffffffffffffffffff1602179055507fd815dd7ac4a8a5f5f1d3b09c4fb82cdf04e21e127619c6fca60b8f80e420492a81604051611ec29190613d4a565b60405180910390a15b5b50565b6000611ee082612fab63ffffffff16565b9050611ee7565b919050565b6000611eff84848461296163ffffffff16565b9050611f06565b9392505050565b611f1b61257463ffffffff16565b80600560005060010160106101000a81548167ffffffffffffffff021916908367ffffffffffffffff1602179055507fcf58c4278b7362e258dd9a03400b38f692197a7ceb18b1c31ff440c1f9d5062f81604051611f7991906143af565b60405180910390a15b5b50565b600a60009054906101000a900473ffffffffffffffffffffffffffffffffffffffff1681565b61200b600a60009054906101000a900473ffffffffffffffffffffffffffffffffffffffff1673ffffffffffffffffffffffffffffffffffffffff163373ffffffffffffffffffffffffffffffffffffffff1614612d0e63ffffffff16565b600a60006101000a81549073ffffffffffffffffffffffffffffffffffffffff02191690557f000000000000000000000000000000000000000000000000000000000000000073ffffffffffffffffffffffffffffffffffffffff1663d3419bf36040518163ffffffff1660e01b815260040160206040518083038186803b1580156120975760006000fd5b505afa1580156120ac573d600060003e3d6000fd5b505050506040513d601f19601f820116820180604052508101906120d09190613aeb565b73ffffffffffffffffffffffffffffffffffffffff1663532cec7c7f00000000000000000000000000000000000000000000000000000000000000006040518263ffffffff1660e01b81526004016121289190613e53565b60206040518083038186803b1580156121415760006000fd5b505afa158015612156573d600060003e3d6000fd5b505050506040513d601f19601f8201168201806040525081019061217a9190613a71565b15156121bb576040517f08c379a00000000000000000000000000000000000000000000000000000000081526004016121b29061400f565b60405180910390fd5b6000600090505b6003600050805490508110156122605761224c600360005082815481101515612214577f4e487b7100000000000000000000000000000000000000000000000000000000600052603260045260246000fd5b906000526020600020900160005b9054906101000a900473ffffffffffffffffffffffffffffffffffffffff16612e9b63ffffffff16565b5b8080612258906146ae565b9150506121c2565b505b565b61227261257463ffffffff16565b600560005060020160109054906101000a9004600f0b600f0b81600f0b12151561229c5760006000fd5b80600560005060020160006101000a8154816fffffffffffffffffffffffffffffffff0219169083600f0b6fffffffffffffffffffffffffffffffff1602179055507fc24e66dcb27dbd285d47a59317af2469aaec7df1cbef5058516e9f09c363a3758160405161230d9190613eac565b60405180910390a15b5b50565b61232861257463ffffffff16565b80600f0b600560005060020160009054906101000a9004600f0b600f0b1215156123525760006000fd5b80600560005060020160106101000a8154816fffffffffffffffffffffffffffffffff0219169083600f0b6fffffffffffffffffffffffffffffffff1602179055507fddfcfaec23708d16c646e9e109985f7db635f6a645245e87946f7d2f64f4bb6a816040516123c39190613eac565b60405180910390a15b5b50565b6123de61257463ffffffff16565b6123ed816133e163ffffffff16565b151561242e576040517f08c379a000000000000000000000000000000000000000000000000000000000815260040161242590614207565b60405180910390fd5b80600460086101000a81548173ffffffffffffffffffffffffffffffffffffffff021916908373ffffffffffffffffffffffffffffffffffffffff160217905550600460089054906101000a900473ffffffffffffffffffffffffffffffffffffffff1673ffffffffffffffffffffffffffffffffffffffff167fe0b059e7224cb02077d499d3dcdb8b5fd92486104e56578599357ed67977c1f860405160405180910390a25b5b50565b7f000000000000000000000000000000000000000000000000000000000000000081565b6000818361250b919061451a565b9050612512565b92915050565b60006801000000000000000082101515612567576040517f08c379a000000000000000000000000000000000000000000000000000000000815260040161255e906142c4565b60405180910390fd5b81905061256f565b919050565b6125d17f000000000000000000000000000000000000000000000000000000000000000073ffffffffffffffffffffffffffffffffffffffff163373ffffffffffffffffffffffffffffffffffffffff1614612d0e63ffffffff16565b5b565b6001600060006101000a81548160ff0219169083151502179055507f7acc84e34091ae817647a4c49116f5cc07f319078ba80f8f5fde37ea7e25cbd660405160405180910390a15b565b6000826020015167ffffffffffffffff168267ffffffffffffffff1611151561264a5760009050612709565b60006002846040015161265d919061454d565b6fffffffffffffffffffffffffffffffff16905060006126a3856020015185612686919061467c565b67ffffffffffffffff16610708846133fb9092919063ffffffff16565b826126ae91906144fa565b90506126fe6126dd600587604001516fffffffffffffffffffffffffffffffff1661351f90919063ffffffff16565b6fffffffffffffffffffffffffffffffff168261353a90919063ffffffff16565b925050506127095650505b92915050565b60008161272184612fab63ffffffff16565b760a70c3c40a64e6c51999090b65f67d92400000000000006127439190614583565b61274d9190614583565b9050612754565b92915050565b6060600061276e848461355863ffffffff16565b90507fffffffffffffffffffffffffffffffffffffffffffffffffffffffffffffffff81141515156127d5576040517f08c379a00000000000000000000000000000000000000000000000000000000081526004016127cc90613f91565b60405180910390fd5b6000600185516127e5919061465d565b67ffffffffffffffff811115612824577f4e487b7100000000000000000000000000000000000000000000000000000000600052604160045260246000fd5b6040519080825280602002602001820160405280156128525781602001602082028036833780820191505090505b50905060006000600090505b865181101561294c5783811415156129385786818151811015156128ab577f4e487b7100000000000000000000000000000000000000000000000000000000600052603260045260246000fd5b60200260200101518383806128bf906146ae565b94508151811015156128fa577f4e487b7100000000000000000000000000000000000000000000000000000000600052603260045260246000fd5b602002602001019073ffffffffffffffffffffffffffffffffffffffff16908173ffffffffffffffffffffffffffffffffffffffff16815260200150505b5b8080612944906146ae565b91505061285e565b5081935050505061295b565050505b92915050565b60006000670de0b6b3a76400008310905060008161299257670de0b6b3a76400008461298d919061465d565b6129a7565b83670de0b6b3a76400006129a6919061465d565b5b905084600001516fffffffffffffffffffffffffffffffff1681101515612ab1576000612a28612a1b600188602001516fffffffffffffffffffffffffffffffff16856129f49190614583565b6129fe91906144fa565b886060015167ffffffffffffffff1661353a90919063ffffffff16565b612e37909063ffffffff16565b90506000612a77612a588389604001516fffffffffffffffffffffffffffffffff1661351f90919063ffffffff16565b6fffffffffffffffffffffffffffffffff1661362c909063ffffffff16565b905083612a9657612a91818961369f90919063ffffffff16565b612aaa565b612aa981896136ba90919063ffffffff16565b5b9750875050505b8460800151600f0b861215612acd578460800151600f0b955085505b8460a00151600f0b861315612ae9578460a00151600f0b955085505b8592505050612af55650505b9392505050565b60007fffffffffffffffffffffffffffffffffffffffffffffffffffffffffffffffff612b2f848461355863ffffffff16565b14159050612b38565b92915050565b7f000000000000000000000000000000000000000000000000000000000000000073ffffffffffffffffffffffffffffffffffffffff1663e97dcb626040518163ffffffff1660e01b8152600401600060405180830381600087803b158015612ba75760006000fd5b505af1158015612bbc573d600060003e3d6000fd5b50505050600260026000505414151515612c0b576040517f08c379a0000000000000000000000000000000000000000000000000000000008152600401612c02906140cc565b60405180910390fd5b600260026000508190909055505b565b612c296136d563ffffffff16565b7f000000000000000000000000000000000000000000000000000000000000000073ffffffffffffffffffffffffffffffffffffffff1663bf86d6906040518163ffffffff1660e01b815260040160206040518083038186803b158015612c905760006000fd5b505afa158015612ca5573d600060003e3d6000fd5b505050506040513d601f19601f82011682018060405250810190612cc99190613a71565b151515612d0b576040517f08c379a0000000000000000000000000000000000000000000000000000000008152600401612d0290613f52565b60405180910390fd5b5b565b801515612d50576040517f08c379a0000000000000000000000000000000000000000000000000000000008152600401612d479061404e565b60405180910390fd5b5b50565b600160026000508190909055507f000000000000000000000000000000000000000000000000000000000000000073ffffffffffffffffffffffffffffffffffffffff1663e9fad8ee6040518163ffffffff1660e01b8152600401600060405180830381600087803b158015612dca5760006000fd5b505af1158015612ddf573d600060003e3d6000fd5b505050505b565b6000612df942612518909063ffffffff16565b905080505b90565b6000612e2d82612e15612de663ffffffff16565b67ffffffffffffffff166124fd90919063ffffffff16565b905080505b919050565b600070010000000000000000000000000000000082101515612e8e576040517f08c379a0000000000000000000000000000000000000000000000000000000008152600401612e85906141c8565b60405180910390fd5b819050612e96565b919050565b7f000000000000000000000000000000000000000000000000000000000000000073ffffffffffffffffffffffffffffffffffffffff1663d3419bf36040518163ffffffff1660e01b815260040160206040518083038186803b158015612f025760006000fd5b505afa158015612f17573d600060003e3d6000fd5b505050506040513d601f19601f82011682018060405250810190612f3b9190613aeb565b73ffffffffffffffffffffffffffffffffffffffff16637c5b9011826040518263ffffffff1660e01b8152600401612f739190613e53565b600060405180830381600087803b158015612f8e5760006000fd5b505af1158015612fa3573d600060003e3d6000fd5b505050505b50565b6000600082519050600081111515612ff8576040517f08c379a0000000000000000000000000000000000000000000000000000000008152600401612fef9061410b565b60405180910390fd5b6000600060005b60028411156132d757856000815181101515613044577f4e487b7100000000000000000000000000000000000000000000000000000000600052603260045260246000fd5b60200260200101519150815085600081518110151561308c577f4e487b7100000000000000000000000000000000000000000000000000000000600052603260045260246000fd5b6020026020010151905080506000600190505b8481101561311e5786818151811015156130e2577f4e487b7100000000000000000000000000000000000000000000000000000000600052603260045260246000fd5b602002602001015193508350828410156130fc5783925082505b8184111561310a5783915081505b5b8080613116906146ae565b91505061309f565b508082141561313357819450505050506133dc565b6000600285613142919061465d565b67ffffffffffffffff811115613181577f4e487b7100000000000000000000000000000000000000000000000000000000600052604160045260246000fd5b6040519080825280602002602001820160405280156131af5781602001602082028036833780820191505090505b5090506000600060006000600090505b888110156132b7578a81815181101515613202577f4e487b7100000000000000000000000000000000000000000000000000000000600052603260045260246000fd5b602002602001015197508750868814801561321b575081155b1561322b576001915081506132a3565b8588148015613238575082155b15613248576001925082506132a2565b87858580613255906146ae565b9650815181101515613290577f4e487b7100000000000000000000000000000000000000000000000000000000600052603260045260246000fd5b60200260200101909081815260200150505b5b5b80806132af906146ae565b9150506131bf565b506002886132c5919061465d565b97508750839950895050505050612fff565b60018414156133335785600081518110151561331c577f4e487b7100000000000000000000000000000000000000000000000000000000600052603260045260246000fd5b60200260200101519450505050506133dc566133d7565b6133cc866001815181101515613372577f4e487b7100000000000000000000000000000000000000000000000000000000600052603260045260246000fd5b60200260200101518760008151811015156133b6577f4e487b7100000000000000000000000000000000000000000000000000000000600052603260045260246000fd5b602002602001015161372a90919063ffffffff16565b9450505050506133dc565b505050505b919050565b60006000823b9050600081119150506133f656505b919050565b600060006000600019858709858702925082811083820303915050600081141561343e5760008411151561342f5760006000fd5b83820492508292505050613518565b808411151561344d5760006000fd5b60008486880990508281118203915080830392506000856001877fffffffffffffffffffffffffffffffffffffffffffffffffffffffffffffffff03011690508050808604955080840493506001818260000304019050808302841793508350600060028760030218905080870260020381029050805080870260020381029050805080870260020381029050805080870260020381029050805080870260020381029050805080870260020381029050805080850295508550508494505050505061351856505050505b9392505050565b6000818361352d91906145a1565b9050613534565b92915050565b6000818310613549578161354b565b825b9050613552565b92915050565b60006000600090505b83518110156135fd578273ffffffffffffffffffffffffffffffffffffffff1684828151811015156135bc577f4e487b7100000000000000000000000000000000000000000000000000000000600052603260045260246000fd5b602002602001015173ffffffffffffffffffffffffffffffffffffffff1614156135e95780915050613626565b5b80806135f5906146ae565b915050613561565b507fffffffffffffffffffffffffffffffffffffffffffffffffffffffffffffffff9050613626565b92915050565b60007f800000000000000000000000000000000000000000000000000000000000000082101515613692576040517f08c379a00000000000000000000000000000000000000000000000000000000081526004016136899061414a565b60405180910390fd5b81905061369a565b919050565b600081836136ad91906145e0565b90506136b4565b92915050565b600081836136c8919061447d565b90506136cf565b92915050565b600060009054906101000a900460ff16151515613727576040517f08c379a000000000000000000000000000000000000000000000000000000000815260040161371e90614285565b60405180910390fd5b5b565b6000600282841861373b9190614583565b82841661374891906144fa565b905061374f565b92915050565b8280548282559060005260206000209081019282156137ce579160200282015b828111156137cd5782518260006101000a81548173ffffffffffffffffffffffffffffffffffffffff021916908373ffffffffffffffffffffffffffffffffffffffff16021790555091602001919060010190613775565b5b5090506137db91906137df565b5090565b6137e4565b808211156137fe57600081815060009055506001016137e4565b5090566147e7565b600082601f8301121515613818578081fd5b8135602061382d61382883614453565b6143fc565b80838252828201915082860187848660051b890101111561384c578586fd5b855b858110156138705781358452848401935084820191505b60018101905061384e565b5050809450505050505b92915050565b60008135905061388f816147be565b5b919050565b60008135905080600f0b811415156138ad5760006000fd5b5b919050565b6000813590506fffffffffffffffffffffffffffffffff8116811415156138da5760006000fd5b5b919050565b60008135905067ffffffffffffffff8116811415156138ff5760006000fd5b5b919050565b600060208284031215613916578081fd5b8135613921816147be565b809150505b92915050565b600060006040838503121561393f578081fd5b823567ffffffffffffffff811115613955578182fd5b808401905084601f820112151561396a578182fd5b8035602061397f61397a83614453565b6143fc565b80838252828201915082850189848660051b880101111561399e578687fd5b8695505b848610156139cf5780356139b5816147be565b80845250838301925083810190505b6001860195506139a2565b5080965050506139e0818701613880565b93505050505b9250929050565b6000602082840312156139fe578081fd5b813567ffffffffffffffff811115613a14578182fd5b613a2084828501613806565b9150505b92915050565b6000600060408385031215613a3d578182fd5b823567ffffffffffffffff811115613a53578283fd5b613a5f85828601613806565b925050602083013590505b9250929050565b600060208284031215613a82578081fd5b815180151581141515613a93578182fd5b809150505b92915050565b600060208284031215613aaf578081fd5b81357fffffffff00000000000000000000000000000000000000000000000000000000811681141515613ae0578182fd5b809150505b92915050565b600060208284031215613afc578081fd5b8151613b07816147be565b809150505b92915050565b600060208284031215613b23578081fd5b8135613b2e816147be565b809150505b92915050565b600060208284031215613b4a578081fd5b613b5382613895565b90505b92915050565b600060208284031215613b6d578081fd5b813590505b92915050565b600060006000838503610100811215613b8f578182fd5b8435935060c07fffffffffffffffffffffffffffffffffffffffffffffffffffffffffffffffe082011215613bc2578182fd5b50613bcb6143cb565b613bd7602086016138b3565b8152613be5604086016138b3565b6020820152613bf6606086016138b3565b6040820152613c07608086016138e0565b6060820152613c1860a08601613895565b6080820152613c2960c08601613895565b60a08201528092505060e084013590505b9250925092565b600060008284036080811215613c55578283fd5b6060811215613c62578283fd5b506040516060810181811067ffffffffffffffff82111715613c8757613c8661478d565b5b806040525083358152613c9c602085016138e0565b6020820152613cad604085016138b3565b604082015280925050613cc2606084016138e0565b90505b9250929050565b600060208284031215613cdd578081fd5b613ce6826138b3565b90505b92915050565b600060208284031215613d00578081fd5b813590505b92915050565b600060208284031215613d1c578081fd5b815190505b92915050565b600060208284031215613d38578081fd5b613d41826138e0565b90505b92915050565b600060208201905073ffffffffffffffffffffffffffffffffffffffff831682525b92915050565b600060408201905073ffffffffffffffffffffffffffffffffffffffff841682526fffffffffffffffffffffffffffffffff831660208301525b9392505050565b600060208083018184528085518083526040860191508387019250845b81811015613e085773ffffffffffffffffffffffffffffffffffffffff8451168352848301925084840193505b600181019050613dd0565b50508093505050505b92915050565b600060208201905082151582525b92915050565b600060208201905073ffffffffffffffffffffffffffffffffffffffff831682525b92915050565b600060208201905073ffffffffffffffffffffffffffffffffffffffff831682525b92915050565b600060408201905073ffffffffffffffffffffffffffffffffffffffff8416825282151560208301525b9392505050565b600060208201905082600f0b82525b92915050565b60006020820190508282525b92915050565b60006080820190508582528460208301526fffffffffffffffffffffffffffffffff8416604083015267ffffffffffffffff831660608301525b95945050505050565b600060608201905084825267ffffffffffffffff841660208301526fffffffffffffffffffffffffffffffff831660408301525b949350505050565b60208152601160208201527f50726f746f636f6c2073687574646f776e000000000000000000000000000000604082015260006060820190505b919050565b60208152600960208201527f4e6f7420666f756e640000000000000000000000000000000000000000000000604082015260006060820190505b919050565b60208152601260208201527f4e6f207265666572656e636520706f6f6c730000000000000000000000000000604082015260006060820190505b919050565b60208152601460208201527f506f6f6c206e6f7420696e697469616c697a6564000000000000000000000000604082015260006060820190505b919050565b60208152600e60208201527f4e6f7420417574686f72697a6564000000000000000000000000000000000000604082015260006060820190505b919050565b60208152601960208201527f5261746573207570646174652064656c65676174652073657400000000000000604082015260006060820190505b919050565b60208152600d60208201527f4c50205265656e7472616e637900000000000000000000000000000000000000604082015260006060820190505b919050565b60208152600560208201527f656d707479000000000000000000000000000000000000000000000000000000604082015260006060820190505b919050565b60208152601260208201527f746f6f2062696720666f7220696e743235360000000000000000000000000000604082015260006060820190505b919050565b60208152601060208201527f557064617465206e6f7420726561647900000000000000000000000000000000604082015260006060820190505b919050565b60208152601260208201527f6d6f7265207468616e2031323820626974730000000000000000000000000000604082015260006060820190505b919050565b60208152600e60208201527f4e6f74206120636f6e7472616374000000000000000000000000000000000000604082015260006060820190505b919050565b60208152600d60208201527f416c726561647920616464656400000000000000000000000000000000000000604082015260006060820190505b919050565b60208152601360208201527f436f6e74726163742069732073746f7070656400000000000000000000000000604082015260006060820190505b919050565b60208152601160208201527f6d6f7265207468616e2036342062697473000000000000000000000000000000604082015260006060820190505b919050565b60006020820190506fffffffffffffffffffffffffffffffff831682525b92915050565b600060c0820190506fffffffffffffffffffffffffffffffff8089168352808816602084015280871660408401525067ffffffffffffffff8516606083015283600f0b608083015282600f0b60a08301525b979650505050505050565b60006020820190508282525b92915050565b60006040820190508382528260208301525b9392505050565b600060208201905067ffffffffffffffff831682525b92915050565b6000604051905060c0810181811067ffffffffffffffff821117156143f3576143f261478d565b5b80604052505b90565b600060405190507fffffffffffffffffffffffffffffffffffffffffffffffffffffffffffffffe0601f830116810181811067ffffffffffffffff821117156144485761444761478d565b5b80604052505b919050565b600067ffffffffffffffff82111561446e5761446d61478d565b5b60208260051b0190505b919050565b6000808212827f7fffffffffffffffffffffffffffffffffffffffffffffffffffffffffffffff038413811516156144b8576144b761472b565b5b827f80000000000000000000000000000000000000000000000000000000000000000384128116156144ed576144ec61472b565b5b5082820190505b92915050565b6000821982111561450e5761450d61472b565b5b82820190505b92915050565b600067ffffffffffffffff80831681851680830382111561453e5761453d61472b565b5b80820193505050505b92915050565b60006fffffffffffffffffffffffffffffffff8084168015156145735761457261475c565b5b8082851604925050505b92915050565b60008215156145955761459461475c565b5b82820490505b92915050565b60006fffffffffffffffffffffffffffffffff808316818516818304811182151516156145d1576145d061472b565b5b80820293505050505b92915050565b6000808312837f80000000000000000000000000000000000000000000000000000000000000000183128115161561461b5761461a61472b565b5b837f7fffffffffffffffffffffffffffffffffffffffffffffffffffffffffffffff0183138116156146505761464f61472b565b5b5082820390505b92915050565b6000828210156146705761466f61472b565b5b82820390505b92915050565b600067ffffffffffffffff8083168185169150818110156146a05761469f61472b565b5b818103925050505b92915050565b60007fffffffffffffffffffffffffffffffffffffffffffffffffffffffffffffffff8214156146e1576146e061472b565b5b6001820190505b919050565b60007f80000000000000000000000000000000000000000000000000000000000000008214156147205761471f61472b565b5b81810390505b919050565b7f4e487b7100000000000000000000000000000000000000000000000000000000600052601160045260246000fd5b565b7f4e487b7100000000000000000000000000000000000000000000000000000000600052601260045260246000fd5b565b7f4e487b7100000000000000000000000000000000000000000000000000000000600052604160045260246000fd5b565b73ffffffffffffffffffffffffffffffffffffffff8116811415156147e35760006000fd5b505b565bfea2646970667358221220c5ca32016b12e6ba5fd71f83a7e6f38e3d5bd458facea9d976be6895a14da1a964736f6c63430008040033",
  "linkReferences": {},
  "deployedLinkReferences": {}
}