{
  "_format": "hh-sol-artifact-1",
  "contractName": "Prices",
  "sourceName": "contracts/core/logic/Prices.sol",
  "abi": [
    {
      "inputs": [
        {
          "components": [
            {
              "internalType": "contract IGovernor",
              "name": "Governor",
              "type": "address"
            },
            {
              "internalType": "address",
              "name": "Tcp",
              "type": "address"
            },
            {
              "internalType": "address",
              "name": "Hue",
              "type": "address"
            },
            {
              "internalType": "contract IUniswapV3Pool",
              "name": "CollateralPool",
              "type": "address"
            },
            {
              "internalType": "contract IUniswapV3Pool",
              "name": "ProtocolPool",
              "type": "address"
            },
            {
              "internalType": "address",
              "name": "TruEth",
              "type": "address"
            }
          ],
          "internalType": "struct IPrices.ConstructorParams",
          "name": "params",
          "type": "tuple"
        }
      ],
      "stateMutability": "nonpayable",
      "type": "constructor"
    },
    {
      "anonymous": false,
      "inputs": [
        {
          "indexed": true,
          "internalType": "address",
          "name": "pool",
          "type": "address"
        },
        {
          "indexed": false,
          "internalType": "uint256",
          "name": "price",
          "type": "uint256"
        },
        {
          "indexed": false,
          "internalType": "int24",
          "name": "tick",
          "type": "int24"
        }
      ],
      "name": "PriceUpdated",
      "type": "event"
    },
    {
      "anonymous": false,
      "inputs": [],
      "name": "Stopped",
      "type": "event"
    },
    {
      "inputs": [
        {
          "internalType": "uint32",
          "name": "twapDuration",
          "type": "uint32"
        }
      ],
      "name": "calculateInstantCollateralPrice",
      "outputs": [
        {
          "internalType": "uint256",
          "name": "",
          "type": "uint256"
        }
      ],
      "stateMutability": "view",
      "type": "function"
    },
    {
      "inputs": [
        {
          "internalType": "contract IUniswapV3Pool",
          "name": "pool",
          "type": "address"
        },
        {
          "internalType": "uint32",
          "name": "twapDuration",
          "type": "uint32"
        }
      ],
      "name": "calculateInstantTwappedPrice",
      "outputs": [
        {
          "internalType": "uint256",
          "name": "",
          "type": "uint256"
        }
      ],
      "stateMutability": "view",
      "type": "function"
    },
    {
      "inputs": [
        {
          "internalType": "contract IUniswapV3Pool",
          "name": "pool",
          "type": "address"
        },
        {
          "internalType": "uint32",
          "name": "twapDuration",
          "type": "uint32"
        }
      ],
      "name": "calculateInstantTwappedTick",
      "outputs": [
        {
          "internalType": "int24",
          "name": "tick",
          "type": "int24"
        }
      ],
      "stateMutability": "view",
      "type": "function"
    },
    {
      "inputs": [
        {
          "internalType": "contract IUniswapV3Pool",
          "name": "pool",
          "type": "address"
        },
        {
          "internalType": "bool",
          "name": "normalizeDecimals",
          "type": "bool"
        }
      ],
      "name": "calculateTwappedPrice",
      "outputs": [
        {
          "internalType": "uint256",
          "name": "price",
          "type": "uint256"
        }
      ],
      "stateMutability": "view",
      "type": "function"
    },
    {
      "inputs": [],
      "name": "collateralPool",
      "outputs": [
        {
          "internalType": "contract IUniswapV3Pool",
          "name": "",
          "type": "address"
        }
      ],
      "stateMutability": "view",
      "type": "function"
    },
    {
      "inputs": [],
      "name": "deployer",
      "outputs": [
        {
          "internalType": "address",
          "name": "",
          "type": "address"
        }
      ],
      "stateMutability": "view",
      "type": "function"
    },
    {
      "inputs": [],
      "name": "governor",
      "outputs": [
        {
          "internalType": "contract IGovernor",
          "name": "",
          "type": "address"
        }
      ],
      "stateMutability": "view",
      "type": "function"
    },
    {
      "inputs": [],
      "name": "hue",
      "outputs": [
        {
          "internalType": "address",
          "name": "",
          "type": "address"
        }
      ],
      "stateMutability": "view",
      "type": "function"
    },
    {
      "inputs": [
        {
          "internalType": "uint32",
          "name": "twapDuration",
          "type": "uint32"
        }
      ],
      "name": "hueTcpPrice",
      "outputs": [
        {
          "internalType": "uint256",
          "name": "",
          "type": "uint256"
        }
      ],
      "stateMutability": "view",
      "type": "function"
    },
    {
      "inputs": [],
      "name": "init",
      "outputs": [],
      "stateMutability": "nonpayable",
      "type": "function"
    },
    {
      "inputs": [
        {
          "internalType": "contract IUniswapV3Pool",
          "name": "pool",
          "type": "address"
        }
      ],
      "name": "initializePool",
      "outputs": [],
      "stateMutability": "nonpayable",
      "type": "function"
    },
    {
      "inputs": [
        {
          "internalType": "contract IUniswapV3Pool",
          "name": "pool",
          "type": "address"
        }
      ],
      "name": "initializeWethPool",
      "outputs": [],
      "stateMutability": "nonpayable",
      "type": "function"
    },
    {
      "inputs": [
        {
          "internalType": "contract IUniswapV3Pool",
          "name": "pool",
          "type": "address"
        }
      ],
      "name": "isPoolInitialized",
      "outputs": [
        {
          "internalType": "bool",
          "name": "",
          "type": "bool"
        }
      ],
      "stateMutability": "view",
      "type": "function"
    },
    {
      "inputs": [
        {
          "internalType": "contract IUniswapV3Pool",
          "name": "",
          "type": "address"
        }
      ],
      "name": "priceInfo",
      "outputs": [
        {
          "internalType": "uint64",
          "name": "startTime",
          "type": "uint64"
        },
        {
          "internalType": "int56",
          "name": "tickCumulative",
          "type": "int56"
        },
        {
          "internalType": "int24",
          "name": "tick",
          "type": "int24"
        },
        {
          "internalType": "uint8",
          "name": "otherTokenDecimals",
          "type": "uint8"
        },
        {
          "internalType": "bool",
          "name": "isToken0",
          "type": "bool"
        },
        {
          "internalType": "bool",
          "name": "valid",
          "type": "bool"
        }
      ],
      "stateMutability": "view",
      "type": "function"
    },
    {
      "inputs": [],
      "name": "protocolPool",
      "outputs": [
        {
          "internalType": "contract IUniswapV3Pool",
          "name": "",
          "type": "address"
        }
      ],
      "stateMutability": "view",
      "type": "function"
    },
    {
      "inputs": [],
      "name": "stop",
      "outputs": [],
      "stateMutability": "nonpayable",
      "type": "function"
    },
    {
      "inputs": [],
      "name": "stopped",
      "outputs": [
        {
          "internalType": "bool",
          "name": "",
          "type": "bool"
        }
      ],
      "stateMutability": "view",
      "type": "function"
    },
    {
      "inputs": [
        {
          "internalType": "contract IUniswapV3Pool",
          "name": "pool",
          "type": "address"
        }
      ],
      "name": "systemObtainReferencePrice",
      "outputs": [
        {
          "internalType": "uint256",
          "name": "",
          "type": "uint256"
        }
      ],
      "stateMutability": "nonpayable",
      "type": "function"
    },
    {
      "inputs": [],
      "name": "tcp",
      "outputs": [
        {
          "internalType": "address",
          "name": "",
          "type": "address"
        }
      ],
      "stateMutability": "view",
      "type": "function"
    },
    {
      "inputs": [],
      "name": "truEth",
      "outputs": [
        {
          "internalType": "address",
          "name": "",
          "type": "address"
        }
      ],
      "stateMutability": "view",
      "type": "function"
    },
    {
      "inputs": [
        {
          "internalType": "bytes4",
          "name": "",
          "type": "bytes4"
        }
      ],
      "name": "validUpdate",
      "outputs": [
        {
          "internalType": "bool",
          "name": "",
          "type": "bool"
        }
      ],
      "stateMutability": "view",
      "type": "function"
    }
  ],
  "bytecode": "0x610140604052600160026000509090553480156200001d5760006000fd5b5060405162003ade38038062003ade83398181016040528101906200004391906200021f565b5b80600001515b8073ffffffffffffffffffffffffffffffffffffffff1660808173ffffffffffffffffffffffffffffffffffffffff16815260200150505b508060a0015173ffffffffffffffffffffffffffffffffffffffff1660e08173ffffffffffffffffffffffffffffffffffffffff1681526020015050806020015173ffffffffffffffffffffffffffffffffffffffff166101008173ffffffffffffffffffffffffffffffffffffffff1681526020015050806040015173ffffffffffffffffffffffffffffffffffffffff166101208173ffffffffffffffffffffffffffffffffffffffff1681526020015050806060015173ffffffffffffffffffffffffffffffffffffffff1660a08173ffffffffffffffffffffffffffffffffffffffff1681526020015050806080015173ffffffffffffffffffffffffffffffffffffffff1660c08173ffffffffffffffffffffffffffffffffffffffff168152602001505033600460006101000a81548173ffffffffffffffffffffffffffffffffffffffff021916908373ffffffffffffffffffffffffffffffffffffffff1602179055505b50620002e156620002e0565b6000815190506001600160a01b03811681141515620002195760006000fd5b5b919050565b600060c08284031215620002335760006000fd5b60405160c081018181106001600160401b03821117156200026457634e487b7160e01b600052604160045260246000fd5b80604052506200027483620001fa565b81526200028460208401620001fa565b60208201526200029760408401620001fa565b6040820152620002aa60608401620001fa565b6060820152620002bd60808401620001fa565b6080820152620002d060a08401620001fa565b60a0820152809150505b92915050565b5b60805160a05160c05160e0516101005161012051613736620003a8600039600081816104de015281816108e90152818161091e015281816113af01526113ff015260008181610502015281816109bd01526109f20152600081816109530152818161098801528181610c48015261129e015260008181610c7801528181610ca101526113de01526000818161138e01528181611433015261148b015260008181610495015281816107e601528181610b4501528181610cea01526114b201526137366000f3fe60806040523480156100115760006000fd5b506004361061017c5760003560e01c80637c5b9011116100d9578063d5f394881161008d578063fa42dcf411610067578063fa42dcf4146103f5578063fcebd71c14610425578063ff0eccf6146104555761017c565b8063d5f394881461039d578063d97e6400146103bb578063e1c7392a146103eb5761017c565b80638d02a08a116100be5780638d02a08a1461031f578063ce403c131461034f578063d2f827eb1461037f5761017c565b80637c5b9011146102e55780638396cf69146103015761017c565b80633c63a9cd11610130578063532cec7c11610115578063532cec7c146102625780636d048d531461029257806375f12b21146102c75761017c565b80633c63a9cd14610216578063407431f7146102465761017c565b8063113cf1ab11610161578063113cf1ab146101aa57806332374174146101da57806336fc02f4146101f85761017c565b806307da68f5146101825780630c340a241461018c5761017c565b60006000fd5b61018a610473565b005b610194610493565b6040516101a1919061292a565b60405180910390f35b6101c460048036038101906101bf9190612952565b6104b7565b6040516101d191906129a3565b60405180910390f35b6101e26104dc565b6040516101ef91906129b7565b60405180910390f35b610200610500565b60405161020d91906129b7565b60405180910390f35b610230600480360381019061022b9190612a1d565b610524565b60405161023d9190612a5b565b60405180910390f35b610260600480360381019061025b9190612a6d565b6107e4565b005b61027c60048036038101906102779190612a6d565b610a38565b60405161028991906129a3565b60405180910390f35b6102ac60048036038101906102a79190612a6d565b610a9c565b6040516102be96959493929190612a96565b60405180910390f35b6102cf610b30565b6040516102dc91906129a3565b60405180910390f35b6102ff60048036038101906102fa9190612a6d565b610b43565b005b610309610c76565b6040516103169190612ae2565b60405180910390f35b61033960048036038101906103349190612b2b565b610c9a565b6040516103469190612a5b565b60405180910390f35b61036960048036038101906103649190612a6d565b610cd8565b6040516103769190612a5b565b60405180910390f35b61038761129c565b60405161039491906129b7565b60405180910390f35b6103a56112c0565b6040516103b291906129b7565b60405180910390f35b6103d560048036038101906103d09190612b50565b6112e6565b6040516103e29190612a5b565b60405180910390f35b6103f3611305565b005b61040f600480360381019061040a9190612b2b565b61142c565b60405161041c9190612a5b565b60405180910390f35b61043f600480360381019061043a9190612b50565b61146a565b60405161044c9190612b8a565b60405180910390f35b61045d611489565b60405161046a9190612ae2565b60405180910390f35b6104816114ad63ffffffff16565b61048f61150d63ffffffff16565b5b5b565b7f000000000000000000000000000000000000000000000000000000000000000081565b600160005060205280600052604060002060009150909054906101000a900460ff1681565b7f000000000000000000000000000000000000000000000000000000000000000081565b7f000000000000000000000000000000000000000000000000000000000000000081565b60006000600360005060008573ffffffffffffffffffffffffffffffffffffffff1673ffffffffffffffffffffffffffffffffffffffff1681526020019081526020016000206000506040518060c00160405290816000820160009054906101000a900467ffffffffffffffff1667ffffffffffffffff1667ffffffffffffffff1681526020016000820160089054906101000a900460060b60060b60060b815260200160008201600f9054906101000a900460020b60020b60020b81526020016000820160129054906101000a900460ff1660ff1660ff1681526020016000820160139054906101000a900460ff161515151581526020016000820160149054906101000a900460ff161515151581526020015050905061064f8160a0015161155763ffffffff16565b600061065f61159d63ffffffff16565b90508067ffffffffffffffff16826000015167ffffffffffffffff161015156106bd576040517f08c379a00000000000000000000000000000000000000000000000000000000081526004016106b490612b9f565b60405180910390fd5b60008573ffffffffffffffffffffffffffffffffffffffff1663883bdbfd6106e96115b863ffffffff16565b6040518263ffffffff1660e01b81526004016107059190612bde565b600060405180830381865afa158015610723573d600060003e3d6000fd5b505050506040513d6000823e3d601f19601f8201168201806040525081019061074c9190612d69565b5090506107b16107a184602001518360008151811015156107705761076f612e4e565b5b602002602001015161079687600001518761078b9190612eb0565b61164163ffffffff16565b6116a363ffffffff16565b846080015161171b63ffffffff16565b93508350846107c057836107d1565b6107d0848461175c63ffffffff16565b5b93505050506107de565050505b92915050565b7f000000000000000000000000000000000000000000000000000000000000000073ffffffffffffffffffffffffffffffffffffffff16639ec5a8946040518163ffffffff1660e01b8152600401602060405180830381865afa158015610850573d600060003e3d6000fd5b505050506040513d601f19601f820116820180604052508101906108749190612ee2565b73ffffffffffffffffffffffffffffffffffffffff163373ffffffffffffffffffffffffffffffffffffffff161415156108e3576040517f08c379a00000000000000000000000000000000000000000000000000000000081526004016108da90612f0b565b60405180910390fd5b610913817f000000000000000000000000000000000000000000000000000000000000000061180f63ffffffff16565b1561094d57610948817f000000000000000000000000000000000000000000000000000000000000000061196163ffffffff16565b610a34565b61097d817f000000000000000000000000000000000000000000000000000000000000000061180f63ffffffff16565b156109b7576109b2817f000000000000000000000000000000000000000000000000000000000000000061196163ffffffff16565b610a33565b6109e7817f000000000000000000000000000000000000000000000000000000000000000061180f63ffffffff16565b15610a2157610a1c817f000000000000000000000000000000000000000000000000000000000000000061196163ffffffff16565b610a32565b610a31600061155763ffffffff16565b5b5b5b5b50565b6000600360005060008373ffffffffffffffffffffffffffffffffffffffff1673ffffffffffffffffffffffffffffffffffffffff16815260200190815260200160002060005060000160149054906101000a900460ff169050610a97565b919050565b60036000506020528060005260406000206000915090508060000160009054906101000a900467ffffffffffffffff16908060000160089054906101000a900460060b9080600001600f9054906101000a900460020b908060000160129054906101000a900460ff16908060000160139054906101000a900460ff16908060000160149054906101000a900460ff16905086565b600060009054906101000a900460ff1681565b7f000000000000000000000000000000000000000000000000000000000000000073ffffffffffffffffffffffffffffffffffffffff166343f48fbd6040518163ffffffff1660e01b8152600401602060405180830381865afa158015610baf573d600060003e3d6000fd5b505050506040513d601f19601f82011682018060405250810190610bd39190612f4a565b73ffffffffffffffffffffffffffffffffffffffff163373ffffffffffffffffffffffffffffffffffffffff16141515610c42576040517f08c379a0000000000000000000000000000000000000000000000000000000008152600401610c3990612f0b565b60405180910390fd5b610c72817f000000000000000000000000000000000000000000000000000000000000000061196163ffffffff16565b5b50565b7f000000000000000000000000000000000000000000000000000000000000000081565b6000610ccc7f000000000000000000000000000000000000000000000000000000000000000083611e5c63ffffffff16565b9050610cd3565b919050565b6000610ce8611f2b63ffffffff16565b7f000000000000000000000000000000000000000000000000000000000000000073ffffffffffffffffffffffffffffffffffffffff166343f48fbd6040518163ffffffff1660e01b8152600401602060405180830381865afa158015610d54573d600060003e3d6000fd5b505050506040513d601f19601f82011682018060405250810190610d789190612f4a565b73ffffffffffffffffffffffffffffffffffffffff163373ffffffffffffffffffffffffffffffffffffffff16141515610de7576040517f08c379a0000000000000000000000000000000000000000000000000000000008152600401610dde90612f0b565b60405180910390fd5b6000600360005060008473ffffffffffffffffffffffffffffffffffffffff1673ffffffffffffffffffffffffffffffffffffffff1681526020019081526020016000206000506040518060c00160405290816000820160009054906101000a900467ffffffffffffffff1667ffffffffffffffff1667ffffffffffffffff1681526020016000820160089054906101000a900460060b60060b60060b815260200160008201600f9054906101000a900460020b60020b60020b81526020016000820160129054906101000a900460ff1660ff1660ff1681526020016000820160139054906101000a900460ff161515151581526020016000820160149054906101000a900460ff1615151515815260200150509050610f108160a0015161155763ffffffff16565b6000610f2061159d63ffffffff16565b90508067ffffffffffffffff16826000015167ffffffffffffffff16101515610f7e576040517f08c379a0000000000000000000000000000000000000000000000000000000008152600401610f7590612f73565b60405180910390fd5b60008473ffffffffffffffffffffffffffffffffffffffff1663883bdbfd610faa6115b863ffffffff16565b6040518263ffffffff1660e01b8152600401610fc69190612bde565b600060405180830381865afa158015610fe4573d600060003e3d6000fd5b505050506040513d6000823e3d601f19601f8201168201806040525081019061100d9190612d69565b50905061105f836020015182600081518110151561102e5761102d612e4e565b5b60200260200101516110548660000151866110499190612eb0565b61164163ffffffff16565b6116a363ffffffff16565b836040019060020b908160020b8152602001505080600081518110151561108957611088612e4e565b5b6020026020010151836020019060060b908160060b8152602001505081836000019067ffffffffffffffff16908167ffffffffffffffff168152602001505082600360005060008773ffffffffffffffffffffffffffffffffffffffff1673ffffffffffffffffffffffffffffffffffffffff16815260200190815260200160002060005060008201518160000160006101000a81548167ffffffffffffffff021916908367ffffffffffffffff16021790555060208201518160000160086101000a81548166ffffffffffffff021916908360060b66ffffffffffffff160217905550604082015181600001600f6101000a81548162ffffff021916908360020b62ffffff16021790555060608201518160000160126101000a81548160ff021916908360ff16021790555060808201518160000160136101000a81548160ff02191690831515021790555060a08201518160000160146101000a81548160ff02191690831515021790555090505060006112226112168560400151866080015161171b63ffffffff16565b8561175c63ffffffff16565b90508573ffffffffffffffffffffffffffffffffffffffff167f4aec2babed558ca204f263d79ac04efaccd05cd4b7bebfa21beeb221330062d3828660400151604051611270929190612fb2565b60405180910390a28094505050505061128856505050505b611296611f8663ffffffff16565b5b919050565b7f000000000000000000000000000000000000000000000000000000000000000081565b600460009054906101000a900473ffffffffffffffffffffffffffffffffffffffff1681565b60006112f88383611e5c63ffffffff16565b90506112ff565b92915050565b611364600460009054906101000a900473ffffffffffffffffffffffffffffffffffffffff1673ffffffffffffffffffffffffffffffffffffffff163373ffffffffffffffffffffffffffffffffffffffff1614611f9663ffffffff16565b600460006101000a81549073ffffffffffffffffffffffffffffffffffffffff02191690556113d97f00000000000000000000000000000000000000000000000000000000000000007f000000000000000000000000000000000000000000000000000000000000000061196163ffffffff16565b6114297f00000000000000000000000000000000000000000000000000000000000000007f000000000000000000000000000000000000000000000000000000000000000061196163ffffffff16565b5b565b600061145e7f000000000000000000000000000000000000000000000000000000000000000083611e5c63ffffffff16565b9050611465565b919050565b600061147c8383611fdc63ffffffff16565b9050611483565b92915050565b7f000000000000000000000000000000000000000000000000000000000000000081565b61150a7f000000000000000000000000000000000000000000000000000000000000000073ffffffffffffffffffffffffffffffffffffffff163373ffffffffffffffffffffffffffffffffffffffff1614611f9663ffffffff16565b5b565b6001600060006101000a81548160ff0219169083151502179055507f7acc84e34091ae817647a4c49116f5cc07f319078ba80f8f5fde37ea7e25cbd660405160405180910390a15b565b801515611599576040517f08c379a000000000000000000000000000000000000000000000000000000000815260040161159090612fce565b60405180910390fd5b5b50565b60006115b0426121c1909063ffffffff16565b905080505b90565b6060600167ffffffffffffffff8111156115d5576115d4612c33565b5b6040519080825280602002602001820160405280156116035781602001602082028036833780820191505090505b509050805060008160008151811015156116205761161f612e4e565b5b602002602001019063ffffffff16908163ffffffff16815260200150505b90565b60006401000000008267ffffffffffffffff16101515611696576040517f08c379a000000000000000000000000000000000000000000000000000000000815260040161168d9061300d565b60405180910390fd5b81905061169e565b919050565b6000600084846116b3919061304c565b905060008363ffffffff169050600081836116ce91906130ec565b905060008360060b1280156116f25750600082846116ec9190613169565b60060b14155b156117065780806117029061318f565b9150505b809350505050611714565050505b9392505050565b600061174f6117448361172e5784611739565b84611738906131f2565b5b61221d63ffffffff16565b61273e63ffffffff16565b9050611756565b92915050565b6000601260ff16826060015160ff16141561177957829050611809565b6000601260ff16836060015160ff161090506000816117a857601284606001516117a39190613236565b6117ba565b836060015160126117b99190613236565b5b9050816117e5576117e081600a6117d191906133a1565b8661279b90919063ffffffff16565b6117fe565b80600a6117f291906133a1565b856117fd91906133b9565b5b925050506118095650505b92915050565b60008173ffffffffffffffffffffffffffffffffffffffff168373ffffffffffffffffffffffffffffffffffffffff16630dfe16816040518163ffffffff1660e01b8152600401602060405180830381865afa158015611874573d600060003e3d6000fd5b505050506040513d601f19601f8201168201806040525081019061189891906133d7565b73ffffffffffffffffffffffffffffffffffffffff16148061195457508173ffffffffffffffffffffffffffffffffffffffff168373ffffffffffffffffffffffffffffffffffffffff1663d21220a76040518163ffffffff1660e01b8152600401602060405180830381865afa158015611918573d600060003e3d6000fd5b505050506040513d601f19601f8201168201806040525081019061193c91906133d7565b73ffffffffffffffffffffffffffffffffffffffff16145b905061195b565b92915050565b61197f611974838361180f63ffffffff16565b61155763ffffffff16565b600060008373ffffffffffffffffffffffffffffffffffffffff16633850c7bd6040518163ffffffff1660e01b815260040160e060405180830381865afa1580156119cf573d600060003e3d6000fd5b505050506040513d601f19601f820116820180604052508101906119f3919061343d565b505050505091509150611a2460008373ffffffffffffffffffffffffffffffffffffffff161161155763ffffffff16565b60008473ffffffffffffffffffffffffffffffffffffffff1663883bdbfd611a506115b863ffffffff16565b6040518263ffffffff1660e01b8152600401611a6c9190612bde565b600060405180830381865afa158015611a8a573d600060003e3d6000fd5b505050506040513d6000823e3d601f19601f82011682018060405250810190611ab39190612d69565b50905060008473ffffffffffffffffffffffffffffffffffffffff168673ffffffffffffffffffffffffffffffffffffffff16630dfe16816040518163ffffffff1660e01b8152600401602060405180830381865afa158015611b1b573d600060003e3d6000fd5b505050506040513d601f19601f82011682018060405250810190611b3f91906133d7565b73ffffffffffffffffffffffffffffffffffffffff161490506040518060c00160405280611b7161159d63ffffffff16565b67ffffffffffffffff168152602001836000815181101515611b9657611b95612e4e565b5b602002602001015160060b81526020018460020b815260200182611c29578773ffffffffffffffffffffffffffffffffffffffff16630dfe16816040518163ffffffff1660e01b8152600401602060405180830381865afa158015611c00573d600060003e3d6000fd5b505050506040513d601f19601f82011682018060405250810190611c2491906133d7565b611c9a565b8773ffffffffffffffffffffffffffffffffffffffff1663d21220a76040518163ffffffff1660e01b8152600401602060405180830381865afa158015611c75573d600060003e3d6000fd5b505050506040513d601f19601f82011682018060405250810190611c9991906133d7565b5b73ffffffffffffffffffffffffffffffffffffffff1663313ce5676040518163ffffffff1660e01b8152600401602060405180830381865afa158015611ce5573d600060003e3d6000fd5b505050506040513d601f19601f82011682018060405250810190611d0991906134dd565b60ff168152602001821515815260200160011515815260200150600360005060008873ffffffffffffffffffffffffffffffffffffffff1673ffffffffffffffffffffffffffffffffffffffff16815260200190815260200160002060005060008201518160000160006101000a81548167ffffffffffffffff021916908367ffffffffffffffff16021790555060208201518160000160086101000a81548166ffffffffffffff021916908360060b66ffffffffffffff160217905550604082015181600001600f6101000a81548162ffffff021916908360020b62ffffff16021790555060608201518160000160126101000a81548160ff021916908360ff16021790555060808201518160000160136101000a81548160ff02191690831515021790555060a08201518160000160146101000a81548160ff021916908315150217905550905050505050505b5050565b60006000611ed4611e738585611fdc63ffffffff16565b600360005060008773ffffffffffffffffffffffffffffffffffffffff1673ffffffffffffffffffffffffffffffffffffffff16815260200190815260200160002060005060000160139054906101000a900460ff1661171b63ffffffff16565b9050600081111515611f1b576040517f08c379a0000000000000000000000000000000000000000000000000000000008152600401611f1290613502565b60405180910390fd5b80915050611f2556505b92915050565b600260026000505414151515611f76576040517f08c379a0000000000000000000000000000000000000000000000000000000008152600401611f6d90613541565b60405180910390fd5b600260026000508190909055505b565b600160026000508190909055505b565b801515611fd8576040517f08c379a0000000000000000000000000000000000000000000000000000000008152600401611fcf90612f0b565b60405180910390fd5b5b50565b600060008263ffffffff16111515612029576040517f08c379a000000000000000000000000000000000000000000000000000000000815260040161202090613580565b60405180910390fd5b6000600267ffffffffffffffff81111561204657612045612c33565b5b6040519080825280602002602001820160405280156120745781602001602082028036833780820191505090505b5090508281600081518110151561208e5761208d612e4e565b5b602002602001019063ffffffff16908163ffffffff168152602001505060008160018151811015156120c3576120c2612e4e565b5b602002602001019063ffffffff16908163ffffffff168152602001505060008473ffffffffffffffffffffffffffffffffffffffff1663883bdbfd836040518263ffffffff1660e01b815260040161211b9190612bde565b600060405180830381865afa158015612139573d600060003e3d6000fd5b505050506040513d6000823e3d601f19601f820116820180604052508101906121629190612d69565b5090506121b081600081518110151561217e5761217d612e4e565b5b602002602001015182600181518110151561219c5761219b612e4e565b5b6020026020010151866116a363ffffffff16565b925050506121bb5650505b92915050565b60006801000000000000000082101515612210576040517f08c379a0000000000000000000000000000000000000000000000000000000008152600401612207906135bf565b60405180910390fd5b819050612218565b919050565b6000600060008360020b12612235578260020b612243565b8260020b612242906135fe565b5b90507ffffffffffffffffffffffffffffffffffffffffffffffffffffffffffff2761861226f906131f2565b60020b81111515156122b6576040517f08c379a00000000000000000000000000000000000000000000000000000000081526004016122ad9061363d565b60405180910390fd5b600060006001831614156122db577001000000000000000000000000000000006122ed565b6ffffcb933bd6fad37aa2d162d1a5940015b70ffffffffffffffffffffffffffffffffff1690506000600283161415156123345760806ffff97272373d413259a46990580e213a8261232d919061367c565b901c905080505b6000600483161415156123665760806ffff2e50f5f656932ef12357cf3c7fdcc8261235f919061367c565b901c905080505b6000600883161415156123985760806fffe5caca7e10e4e61c3624eaa0941cd082612391919061367c565b901c905080505b6000601083161415156123ca5760806fffcb9843d60f6159c9db58835c926644826123c3919061367c565b901c905080505b6000602083161415156123fc5760806fff973b41fa98c081472e6896dfb254c0826123f5919061367c565b901c905080505b60006040831614151561242e5760806fff2ea16466c96a3843ec78b326b5286182612427919061367c565b901c905080505b6000608083161415156124605760806ffe5dee046a99a2a811c461f1969c305382612459919061367c565b901c905080505b600061010083161415156124935760806ffcbe86c7900a88aedcffc83b479aa3a48261248c919061367c565b901c905080505b600061020083161415156124c65760806ff987a7253ac413176f2b074cf7815e54826124bf919061367c565b901c905080505b600061040083161415156124f95760806ff3392b0822b70005940c7a398e4b70f3826124f2919061367c565b901c905080505b6000610800831614151561252c5760806fe7159475a2c29b7443b29c7fa6e889d982612525919061367c565b901c905080505b6000611000831614151561255f5760806fd097f3bdfd2022b8845ad8f792aa582582612558919061367c565b901c905080505b600061200083161415156125925760806fa9f746462d870fdf8a65dc1f90e061e58261258b919061367c565b901c905080505b600061400083161415156125c55760806f70d869a156d2a1b890bb3df62baf32f7826125be919061367c565b901c905080505b600061800083161415156125f85760806f31be135f97d08fd981231505542fcfa6826125f1919061367c565b901c905080505b600062010000831614151561262c5760806f09aa508b5b7a84e1c677de54f3e99bc982612625919061367c565b901c905080505b600062020000831614151561265f5760806e5d6af8dedb81196699c329225ee60482612658919061367c565b901c905080505b60006204000083161415156126915760806d2216e584f5fa1ea926041bedfe988261268a919061367c565b901c905080505b60006208000083161415156126c15760806b048a170391f7dc42444e8fa2826126ba919061367c565b901c905080505b60008460020b13156126fe57807fffffffffffffffffffffffffffffffffffffffffffffffffffffffffffffffff6126f991906133b9565b905080505b60006401000000008261271191906136c1565b1461271d576001612720565b60005b60ff16602082901c61273291906136df565b9250825050505b919050565b600060006127786c010000000000000000000000008473ffffffffffffffffffffffffffffffffffffffff166127b690919063ffffffff16565b905061278d81826127dc90919063ffffffff16565b91505061279656505b919050565b600081836127a9919061367c565b90506127b0565b92915050565b60006127d183670de0b6b3a76400008461280263ffffffff16565b905080505b92915050565b60006127f78383670de0b6b3a764000061280263ffffffff16565b905080505b92915050565b6000600060006000198587098587029250828110838203039150506000811415612845576000841115156128365760006000fd5b8382049250829250505061291f565b80841115156128545760006000fd5b60008486880990508281118203915080830392506000856001877fffffffffffffffffffffffffffffffffffffffffffffffffffffffffffffffff03011690508050808604955080840493506001818260000304019050808302841793508350600060028760030218905080870260020381029050805080870260020381029050805080870260020381029050805080870260020381029050805080870260020381029050805080870260020381029050805080850295508550508494505050505061291f56505050505b9392505050566136ff565b600060208201905073ffffffffffffffffffffffffffffffffffffffff831682525b92915050565b6000602082840312156129655760006000fd5b81357fffffffff000000000000000000000000000000000000000000000000000000008116811415156129985760006000fd5b809150505b92915050565b600060208201905082151582525b92915050565b600060208201905073ffffffffffffffffffffffffffffffffffffffff831682525b92915050565b73ffffffffffffffffffffffffffffffffffffffff811681141515612a045760006000fd5b505b565b80151581141515612a195760006000fd5b505b565b6000600060408385031215612a325760006000fd5b8235612a3d816129df565b809250506020830135612a4f81612a08565b809150505b9250929050565b60006020820190508282525b92915050565b600060208284031215612a805760006000fd5b8135612a8b816129df565b809150505b92915050565b600060c08201905067ffffffffffffffff881682528660060b60208301528560020b604083015260ff85166060830152831515608083015282151560a08301525b979650505050505050565b600060208201905073ffffffffffffffffffffffffffffffffffffffff831682525b92915050565b60008135905063ffffffff811681141515612b255760006000fd5b5b919050565b600060208284031215612b3e5760006000fd5b612b4782612b0a565b90505b92915050565b6000600060408385031215612b655760006000fd5b8235612b70816129df565b80925050612b8060208401612b0a565b90505b9250929050565b60006020820190508260020b82525b92915050565b60208152601360208201527f54776170706564207072696365206572726f7200000000000000000000000000604082015260006060820190505b919050565b60006020808301818452808551808352604086019150838701925060005b81811015612c245763ffffffff8451168352848301925084840193505b600181019050612bfc565b50508093505050505b92915050565b7f4e487b7100000000000000000000000000000000000000000000000000000000600052604160045260246000fd5b565b600060405190507fffffffffffffffffffffffffffffffffffffffffffffffffffffffffffffffe0601f830116810181811067ffffffffffffffff82111715612cb057612caf612c33565b5b80604052505b919050565b600067ffffffffffffffff821115612cd657612cd5612c33565b5b60208260051b0190505b919050565b600082601f8301121515612cf95760006000fd5b81516020612d0e612d0983612cbb565b612c64565b808382528282019150828460051b870101935086841115612d2f5760006000fd5b8286015b84811015612d5a578051612d46816129df565b8084525083830192505b8381019050612d33565b50809450505050505b92915050565b6000600060408385031215612d7e5760006000fd5b825167ffffffffffffffff80821115612d975760006000fd5b818501915085601f8301121515612dae5760006000fd5b81516020612dc3612dbe83612cbb565b612c64565b808382528282019150828460051b870101935089841115612de45760006000fd5b82860195505b83861015612e1b5785518060060b81141515612e075760008081fd505b8083525082820191505b8286019550612dea565b8097505050808701519350505080821115612e365760006000fd5b50612e4385828601612ce5565b9150505b9250929050565b7f4e487b7100000000000000000000000000000000000000000000000000000000600052603260045260246000fd5b565b7f4e487b7100000000000000000000000000000000000000000000000000000000600052601160045260246000fd5b565b600067ffffffffffffffff808316818516915081811015612ed457612ed3612e7f565b5b818103925050505b92915050565b600060208284031215612ef55760006000fd5b8151612f00816129df565b809150505b92915050565b60208152600e60208201527f4e6f7420417574686f72697a6564000000000000000000000000000000000000604082015260006060820190505b919050565b600060208284031215612f5d5760006000fd5b8151612f68816129df565b809150505b92915050565b60208152600260208201527f5445000000000000000000000000000000000000000000000000000000000000604082015260006060820190505b919050565b60006040820190508382528260020b60208301525b9392505050565b60208152600c60208201527f496e76616c696420706f6f6c0000000000000000000000000000000000000000604082015260006060820190505b919050565b60208152601360208201527f626967676572207468616e203332206269747300000000000000000000000000604082015260006060820190505b919050565b60008160060b8360060b60008112817fffffffffffffffffffffffffffffffffffffffffffffffffff80000000000000018312811516156130905761308f612e7f565b5b81667fffffffffffff0183138116156130ac576130ab612e7f565b5b50808203925050505b92915050565b7f4e487b7100000000000000000000000000000000000000000000000000000000600052601260045260246000fd5b565b60008160060b8360060b801515613106576131056130bb565b5b7fffffffffffffffffffffffffffffffffffffffffffffffffffffffffffffffff81147fffffffffffffffffffffffffffffffffffffffffffffffffff800000000000008314161561315b5761315a612e7f565b5b808205925050505b92915050565b60008260060b80151561317f5761317e6130bb565b5b808360060b079150505b92915050565b60008160020b7fffffffffffffffffffffffffffffffffffffffffffffffffffffffffff8000008114156131c6576131c5612e7f565b5b7fffffffffffffffffffffffffffffffffffffffffffffffffffffffffffffffff81019150505b919050565b60008160020b7fffffffffffffffffffffffffffffffffffffffffffffffffffffffffff80000081141561322957613228612e7f565b5b806000039150505b919050565b600060ff821660ff84168082101561325157613250612e7f565b5b808203925050505b92915050565b6000600060018092508391505b808511156132c557817fffffffffffffffffffffffffffffffffffffffffffffffffffffffffffffffff048211156132a7576132a6612e7f565b5b808516156132b55781830292505b818202915084811c94505b61326c565b505b9250929050565b60008215156132e0576001905061339b565b8115156132f0576000905061339b565b8160018114613306576002811461331457613332565b600191505061339b56613332565b60ff84111561332657613325612e7f565b5b6001841b91505061339b565b5060208310610133831016604e8410600b84101617156133565782820a905061339b565b613360838361325f565b807fffffffffffffffffffffffffffffffffffffffffffffffffffffffffffffffff0482111561339357613392612e7f565b5b808202925050505b92915050565b60006133b060ff8416836132ce565b90505b92915050565b60008215156133cb576133ca6130bb565b5b82820490505b92915050565b6000602082840312156133ea5760006000fd5b81516133f5816129df565b809150505b92915050565b60008151905061ffff8116811415156134195760006000fd5b5b919050565b60008151905060ff8116811415156134375760006000fd5b5b919050565b600060006000600060006000600060e0888a03121561345c5760006000fd5b8751613467816129df565b8097505060208801518060020b811415156134825760006000fd5b8096505061349260408901613400565b94506134a060608901613400565b93506134ae60808901613400565b92506134bc60a0890161341f565b915060c08801516134cc81612a08565b809150505b92959891949750929550565b6000602082840312156134f05760006000fd5b6134f98261341f565b90505b92915050565b60208152601360208201527f496e7374616e74207072696365206572726f7200000000000000000000000000604082015260006060820190505b919050565b60208152600d60208201527f4c43205265656e7472616e637900000000000000000000000000000000000000604082015260006060820190505b919050565b60208152601260208201527f496e7374616e74207469636b206572726f720000000000000000000000000000604082015260006060820190505b919050565b60208152601160208201527f6d6f7265207468616e2036342062697473000000000000000000000000000000604082015260006060820190505b919050565b60007f800000000000000000000000000000000000000000000000000000000000000082141561363157613630612e7f565b5b8160000390505b919050565b60208152600160208201527f5400000000000000000000000000000000000000000000000000000000000000604082015260006060820190505b919050565b6000817fffffffffffffffffffffffffffffffffffffffffffffffffffffffffffffffff04831182151516156136b5576136b4612e7f565b5b82820290505b92915050565b60008215156136d3576136d26130bb565b5b82820690505b92915050565b600082198211156136f3576136f2612e7f565b5b82820190505b92915050565bfea26469706673582212205eae6ecc96a395c435dd871628a9c896da96cd990872e8173b3b5318871147c564736f6c634300080c0033",
  "linkReferences": {},
  "deployedLinkReferences": {}
}