{
  "_format": "hh-sol-artifact-1",
  "contractName": "MockProtocolToken",
  "sourceName": "contracts/core/mocks/MockProtocolToken.sol",
  "abi": [
    {
      "inputs": [
        {
          "internalType": "address",
          "name": "delegatee",
          "type": "address"
        }
      ],
      "name": "delegate",
      "outputs": [],
      "stateMutability": "nonpayable",
      "type": "function"
    }
  ],
  "bytecode": "0x60806040523480156100115760006000fd5b50610017565b60c7806100256000396000f3fe608060405234801560105760006000fd5b5060043610602c5760003560e01c80635c19a95c14603257602c565b60006000fd5b60486004803603810190604491906051565b604a565b005b5b50566090565b6000602082840312156061578081fd5b813573ffffffffffffffffffffffffffffffffffffffff8116811415156085578182fd5b809150505b92915050565bfea264697066735822122091b2b924a4f7768fdad64eabef30757f980aeac9aef5baaf22fe3f65703014eb64736f6c63430008040033",
  "linkReferences": {},
  "deployedLinkReferences": {}
}