{
  "_format": "hh-sol-artifact-1",
  "contractName": "TickMathEchidnaTest",
  "sourceName": "contracts/uniswap-v3-core/test/TickMathEchidnaTest.sol",
  "abi": [
    {
      "inputs": [
        {
          "internalType": "int24",
          "name": "tick",
          "type": "int24"
        }
      ],
      "name": "checkGetSqrtRatioAtTickInvariants",
      "outputs": [],
      "stateMutability": "pure",
      "type": "function"
    },
    {
      "inputs": [
        {
          "internalType": "uint160",
          "name": "ratio",
          "type": "uint160"
        }
      ],
      "name": "checkGetTickAtSqrtRatioInvariants",
      "outputs": [],
      "stateMutability": "pure",
      "type": "function"
    }
  ],
  "bytecode": "0x60806040523480156100115760006000fd5b50610017565b6111d1806100266000396000f3fe60806040523480156100115760006000fd5b506004361061003b5760003560e01c806347d38f4d14610041578063df01e52d1461005d5761003b565b60006000fd5b61005b60048036038101906100569190610c3a565b610079565b005b61007760048036038101906100729190610c6c565b6101d1565b005b600061008a8261030163ffffffff16565b90508073ffffffffffffffffffffffffffffffffffffffff166100be6001846100b39190610ce2565b61030163ffffffff16565b73ffffffffffffffffffffffffffffffffffffffff1610801561012657506100f76001836100ec9190610d4d565b61030163ffffffff16565b73ffffffffffffffffffffffffffffffffffffffff168173ffffffffffffffffffffffffffffffffffffffff16105b151561013557610134610db8565b5b6401000276a373ffffffffffffffffffffffffffffffffffffffff168173ffffffffffffffffffffffffffffffffffffffff161015151561017957610178610db8565b5b73fffd8963efd1fc6a506488495d951d5263988d2673ffffffffffffffffffffffffffffffffffffffff168173ffffffffffffffffffffffffffffffffffffffff16111515156101cc576101cb610db8565b5b505b50565b60006101e28261082263ffffffff16565b90506101f38161030163ffffffff16565b73ffffffffffffffffffffffffffffffffffffffff168273ffffffffffffffffffffffffffffffffffffffff161015801561027357506102446001826102399190610d4d565b61030163ffffffff16565b73ffffffffffffffffffffffffffffffffffffffff168273ffffffffffffffffffffffffffffffffffffffff16105b151561028257610281610db8565b5b7ffffffffffffffffffffffffffffffffffffffffffffffffffffffffffff2761860020b8160020b121515156102bb576102ba610db8565b5b7ffffffffffffffffffffffffffffffffffffffffffffffffffffffffffff276186102e590610de9565b60020b8160020b1215156102fc576102fb610db8565b5b505b50565b6000600060008360020b12610319578260020b610327565b8260020b61032690610e2d565b5b90507ffffffffffffffffffffffffffffffffffffffffffffffffffffffffffff2761861035390610de9565b60020b811115151561039a576040517f08c379a000000000000000000000000000000000000000000000000000000000815260040161039190610e6c565b60405180910390fd5b600060006001831614156103bf577001000000000000000000000000000000006103d1565b6ffffcb933bd6fad37aa2d162d1a5940015b70ffffffffffffffffffffffffffffffffff1690506000600283161415156104185760806ffff97272373d413259a46990580e213a826104119190610eab565b901c905080505b60006004831614151561044a5760806ffff2e50f5f656932ef12357cf3c7fdcc826104439190610eab565b901c905080505b60006008831614151561047c5760806fffe5caca7e10e4e61c3624eaa0941cd0826104759190610eab565b901c905080505b6000601083161415156104ae5760806fffcb9843d60f6159c9db58835c926644826104a79190610eab565b901c905080505b6000602083161415156104e05760806fff973b41fa98c081472e6896dfb254c0826104d99190610eab565b901c905080505b6000604083161415156105125760806fff2ea16466c96a3843ec78b326b528618261050b9190610eab565b901c905080505b6000608083161415156105445760806ffe5dee046a99a2a811c461f1969c30538261053d9190610eab565b901c905080505b600061010083161415156105775760806ffcbe86c7900a88aedcffc83b479aa3a4826105709190610eab565b901c905080505b600061020083161415156105aa5760806ff987a7253ac413176f2b074cf7815e54826105a39190610eab565b901c905080505b600061040083161415156105dd5760806ff3392b0822b70005940c7a398e4b70f3826105d69190610eab565b901c905080505b600061080083161415156106105760806fe7159475a2c29b7443b29c7fa6e889d9826106099190610eab565b901c905080505b600061100083161415156106435760806fd097f3bdfd2022b8845ad8f792aa58258261063c9190610eab565b901c905080505b600061200083161415156106765760806fa9f746462d870fdf8a65dc1f90e061e58261066f9190610eab565b901c905080505b600061400083161415156106a95760806f70d869a156d2a1b890bb3df62baf32f7826106a29190610eab565b901c905080505b600061800083161415156106dc5760806f31be135f97d08fd981231505542fcfa6826106d59190610eab565b901c905080505b60006201000083161415156107105760806f09aa508b5b7a84e1c677de54f3e99bc9826107099190610eab565b901c905080505b60006202000083161415156107435760806e5d6af8dedb81196699c329225ee6048261073c9190610eab565b901c905080505b60006204000083161415156107755760806d2216e584f5fa1ea926041bedfe988261076e9190610eab565b901c905080505b60006208000083161415156107a55760806b048a170391f7dc42444e8fa28261079e9190610eab565b901c905080505b60008460020b13156107e257807fffffffffffffffffffffffffffffffffffffffffffffffffffffffffffffffff6107dd9190610f21565b905080505b6000640100000000826107f59190610f3f565b14610801576001610804565b60005b60ff16602082901c6108169190610f5d565b9250825050505b919050565b60006401000276a373ffffffffffffffffffffffffffffffffffffffff168273ffffffffffffffffffffffffffffffffffffffff16101580156108a4575073fffd8963efd1fc6a506488495d951d5263988d2673ffffffffffffffffffffffffffffffffffffffff168273ffffffffffffffffffffffffffffffffffffffff16105b15156108e5576040517f08c379a00000000000000000000000000000000000000000000000000000000081526004016108dc90610f7d565b60405180910390fd5b600060208373ffffffffffffffffffffffffffffffffffffffff16901b905060008190506000600090506fffffffffffffffffffffffffffffffff821160071b808217915082811c92505067ffffffffffffffff821160061b808217915082811c92505063ffffffff821160051b808217915082811c92505061ffff821160041b808217915082811c92505060ff821160031b808217915082811c925050600f821160021b808217915082811c9250506003821160011b808217915082811c925050600182118082179150506080811015156109d457607f816109c89190610fbc565b83901c915081506109e9565b80607f6109e19190610fbc565b83901b915081505b600060406080836109fa9190610fdb565b901b9050828302607f1c92508260801c80603f1b8217915083811c935050828302607f1c92508260801c80603e1b8217915083811c935050828302607f1c92508260801c80603d1b8217915083811c935050828302607f1c92508260801c80603c1b8217915083811c935050828302607f1c92508260801c80603b1b8217915083811c935050828302607f1c92508260801c80603a1b8217915083811c935050828302607f1c92508260801c8060391b8217915083811c935050828302607f1c92508260801c8060381b8217915083811c935050828302607f1c92508260801c8060371b8217915083811c935050828302607f1c92508260801c8060361b8217915083811c935050828302607f1c92508260801c8060351b8217915083811c935050828302607f1c92508260801c8060341b8217915083811c935050828302607f1c92508260801c8060331b8217915083811c935050828302607f1c92508260801c8060321b82179150506000693627a301d71055774c8582610b7d9190611059565b9050600060806f028f6481ab7f045a5af012a19d003aaa83610b9f9190610fdb565b901d9050600060806fdb2df09e81959a81455e260799a0632f84610bc3919061111c565b901d90508060020b8260020b14610c23578873ffffffffffffffffffffffffffffffffffffffff16610bfa8261030163ffffffff16565b73ffffffffffffffffffffffffffffffffffffffff161115610c1c5781610c1e565b805b610c25565b815b97508750505050505050505b9190505661119a565b600060208284031215610c4d5760006000fd5b81358060020b81141515610c615760006000fd5b809150505b92915050565b600060208284031215610c7f5760006000fd5b813573ffffffffffffffffffffffffffffffffffffffff811681141515610ca65760006000fd5b809150505b92915050565b7f4e487b7100000000000000000000000000000000000000000000000000000000600052601160045260246000fd5b565b60008160020b8360020b60008112817fffffffffffffffffffffffffffffffffffffffffffffffffffffffffff80000001831281151615610d2657610d25610cb1565b5b81627fffff018313811615610d3e57610d3d610cb1565b5b50808203925050505b92915050565b60008160020b8360020b6000821282627fffff03821381151615610d7457610d73610cb1565b5b827fffffffffffffffffffffffffffffffffffffffffffffffffffffffffff800000038212811615610da957610da8610cb1565b5b50808201925050505b92915050565b7f4e487b7100000000000000000000000000000000000000000000000000000000600052600160045260246000fd5b565b60008160020b7fffffffffffffffffffffffffffffffffffffffffffffffffffffffffff800000811415610e2057610e1f610cb1565b5b806000039150505b919050565b60007f8000000000000000000000000000000000000000000000000000000000000000821415610e6057610e5f610cb1565b5b8160000390505b919050565b60208152600160208201527f5400000000000000000000000000000000000000000000000000000000000000604082015260006060820190505b919050565b6000817fffffffffffffffffffffffffffffffffffffffffffffffffffffffffffffffff0483118215151615610ee457610ee3610cb1565b5b82820290505b92915050565b7f4e487b7100000000000000000000000000000000000000000000000000000000600052601260045260246000fd5b565b6000821515610f3357610f32610ef0565b5b82820490505b92915050565b6000821515610f5157610f50610ef0565b5b82820690505b92915050565b60008219821115610f7157610f70610cb1565b5b82820190505b92915050565b60208152600160208201527f5200000000000000000000000000000000000000000000000000000000000000604082015260006060820190505b919050565b600082821015610fcf57610fce610cb1565b5b82820390505b92915050565b600060008312837f80000000000000000000000000000000000000000000000000000000000000000183128115161561101757611016610cb1565b5b837f7fffffffffffffffffffffffffffffffffffffffffffffffffffffffffffffff01831381161561104c5761104b610cb1565b5b5082820390505b92915050565b60007f7fffffffffffffffffffffffffffffffffffffffffffffffffffffffffffffff60008413600084138583048511828216161561109b5761109a610cb1565b5b7f800000000000000000000000000000000000000000000000000000000000000060008712868205881281841616156110d7576110d6610cb1565b5b600087129250878205871284841616156110f4576110f3610cb1565b5b8785058712818416161561110b5761110a610cb1565b5b505050505082820290505b92915050565b600060008212827f7fffffffffffffffffffffffffffffffffffffffffffffffffffffffffffffff0384138115161561115857611157610cb1565b5b827f800000000000000000000000000000000000000000000000000000000000000003841281161561118d5761118c610cb1565b5b5082820190505b92915050565bfea2646970667358221220b83d72432e608366039ed8a7d6b15f88b67bf37b8025ff0553536111f8c1ad4b64736f6c634300080c0033",
  "linkReferences": {},
  "deployedLinkReferences": {}
}