{
  "_format": "hh-sol-artifact-1",
  "contractName": "HuePositionNFT",
  "sourceName": "contracts/core/tokens/HuePositionNFT.sol",
  "abi": [
    {
      "inputs": [
        {
          "components": [
            {
              "internalType": "contract IGovernor",
              "name": "Governor",
              "type": "address"
            }
          ],
          "internalType": "struct HuePositionNFT.ConstructorParams",
          "name": "params",
          "type": "tuple"
        }
      ],
      "stateMutability": "nonpayable",
      "type": "constructor"
    },
    {
      "anonymous": false,
      "inputs": [
        {
          "indexed": true,
          "internalType": "address",
          "name": "owner",
          "type": "address"
        },
        {
          "indexed": true,
          "internalType": "address",
          "name": "approved",
          "type": "address"
        },
        {
          "indexed": true,
          "internalType": "uint256",
          "name": "tokenId",
          "type": "uint256"
        }
      ],
      "name": "Approval",
      "type": "event"
    },
    {
      "anonymous": false,
      "inputs": [
        {
          "indexed": true,
          "internalType": "address",
          "name": "owner",
          "type": "address"
        },
        {
          "indexed": true,
          "internalType": "address",
          "name": "operator",
          "type": "address"
        },
        {
          "indexed": false,
          "internalType": "bool",
          "name": "approved",
          "type": "bool"
        }
      ],
      "name": "ApprovalForAll",
      "type": "event"
    },
    {
      "anonymous": false,
      "inputs": [
        {
          "indexed": true,
          "internalType": "address",
          "name": "from",
          "type": "address"
        },
        {
          "indexed": true,
          "internalType": "address",
          "name": "to",
          "type": "address"
        },
        {
          "indexed": true,
          "internalType": "uint256",
          "name": "tokenId",
          "type": "uint256"
        }
      ],
      "name": "Transfer",
      "type": "event"
    },
    {
      "inputs": [
        {
          "internalType": "address",
          "name": "to",
          "type": "address"
        },
        {
          "internalType": "uint256",
          "name": "tokenId",
          "type": "uint256"
        }
      ],
      "name": "approve",
      "outputs": [],
      "stateMutability": "nonpayable",
      "type": "function"
    },
    {
      "inputs": [
        {
          "internalType": "address",
          "name": "owner",
          "type": "address"
        }
      ],
      "name": "balanceOf",
      "outputs": [
        {
          "internalType": "uint256",
          "name": "",
          "type": "uint256"
        }
      ],
      "stateMutability": "view",
      "type": "function"
    },
    {
      "inputs": [
        {
          "internalType": "uint64",
          "name": "tokenID",
          "type": "uint64"
        }
      ],
      "name": "burn",
      "outputs": [],
      "stateMutability": "nonpayable",
      "type": "function"
    },
    {
      "inputs": [
        {
          "internalType": "uint256",
          "name": "tokenId",
          "type": "uint256"
        }
      ],
      "name": "getApproved",
      "outputs": [
        {
          "internalType": "address",
          "name": "",
          "type": "address"
        }
      ],
      "stateMutability": "view",
      "type": "function"
    },
    {
      "inputs": [],
      "name": "governor",
      "outputs": [
        {
          "internalType": "contract IGovernor",
          "name": "",
          "type": "address"
        }
      ],
      "stateMutability": "view",
      "type": "function"
    },
    {
      "inputs": [
        {
          "internalType": "address",
          "name": "owner",
          "type": "address"
        },
        {
          "internalType": "address",
          "name": "operator",
          "type": "address"
        }
      ],
      "name": "isApprovedForAll",
      "outputs": [
        {
          "internalType": "bool",
          "name": "",
          "type": "bool"
        }
      ],
      "stateMutability": "view",
      "type": "function"
    },
    {
      "inputs": [
        {
          "internalType": "address",
          "name": "account",
          "type": "address"
        },
        {
          "internalType": "uint256",
          "name": "tokenID",
          "type": "uint256"
        }
      ],
      "name": "isApprovedOrOwner",
      "outputs": [
        {
          "internalType": "bool",
          "name": "",
          "type": "bool"
        }
      ],
      "stateMutability": "view",
      "type": "function"
    },
    {
      "inputs": [
        {
          "internalType": "address",
          "name": "dest",
          "type": "address"
        }
      ],
      "name": "mintTo",
      "outputs": [
        {
          "internalType": "uint64",
          "name": "id",
          "type": "uint64"
        }
      ],
      "stateMutability": "nonpayable",
      "type": "function"
    },
    {
      "inputs": [],
      "name": "name",
      "outputs": [
        {
          "internalType": "string",
          "name": "",
          "type": "string"
        }
      ],
      "stateMutability": "view",
      "type": "function"
    },
    {
      "inputs": [],
      "name": "nextPositionID",
      "outputs": [
        {
          "internalType": "uint64",
          "name": "",
          "type": "uint64"
        }
      ],
      "stateMutability": "view",
      "type": "function"
    },
    {
      "inputs": [
        {
          "internalType": "uint256",
          "name": "tokenId",
          "type": "uint256"
        }
      ],
      "name": "ownerOf",
      "outputs": [
        {
          "internalType": "address",
          "name": "",
          "type": "address"
        }
      ],
      "stateMutability": "view",
      "type": "function"
    },
    {
      "inputs": [
        {
          "internalType": "address",
          "name": "account",
          "type": "address"
        }
      ],
      "name": "positionIDs",
      "outputs": [
        {
          "internalType": "uint64[]",
          "name": "IDs",
          "type": "uint64[]"
        }
      ],
      "stateMutability": "view",
      "type": "function"
    },
    {
      "inputs": [
        {
          "internalType": "address",
          "name": "from",
          "type": "address"
        },
        {
          "internalType": "address",
          "name": "to",
          "type": "address"
        },
        {
          "internalType": "uint256",
          "name": "tokenId",
          "type": "uint256"
        }
      ],
      "name": "safeTransferFrom",
      "outputs": [],
      "stateMutability": "nonpayable",
      "type": "function"
    },
    {
      "inputs": [
        {
          "internalType": "address",
          "name": "from",
          "type": "address"
        },
        {
          "internalType": "address",
          "name": "to",
          "type": "address"
        },
        {
          "internalType": "uint256",
          "name": "tokenId",
          "type": "uint256"
        },
        {
          "internalType": "bytes",
          "name": "_data",
          "type": "bytes"
        }
      ],
      "name": "safeTransferFrom",
      "outputs": [],
      "stateMutability": "nonpayable",
      "type": "function"
    },
    {
      "inputs": [
        {
          "internalType": "address",
          "name": "operator",
          "type": "address"
        },
        {
          "internalType": "bool",
          "name": "approved",
          "type": "bool"
        }
      ],
      "name": "setApprovalForAll",
      "outputs": [],
      "stateMutability": "nonpayable",
      "type": "function"
    },
    {
      "inputs": [
        {
          "internalType": "bytes4",
          "name": "interfaceId",
          "type": "bytes4"
        }
      ],
      "name": "supportsInterface",
      "outputs": [
        {
          "internalType": "bool",
          "name": "",
          "type": "bool"
        }
      ],
      "stateMutability": "view",
      "type": "function"
    },
    {
      "inputs": [],
      "name": "symbol",
      "outputs": [
        {
          "internalType": "string",
          "name": "",
          "type": "string"
        }
      ],
      "stateMutability": "view",
      "type": "function"
    },
    {
      "inputs": [
        {
          "internalType": "uint256",
          "name": "index",
          "type": "uint256"
        }
      ],
      "name": "tokenByIndex",
      "outputs": [
        {
          "internalType": "uint256",
          "name": "",
          "type": "uint256"
        }
      ],
      "stateMutability": "view",
      "type": "function"
    },
    {
      "inputs": [
        {
          "internalType": "address",
          "name": "owner",
          "type": "address"
        },
        {
          "internalType": "uint256",
          "name": "index",
          "type": "uint256"
        }
      ],
      "name": "tokenOfOwnerByIndex",
      "outputs": [
        {
          "internalType": "uint256",
          "name": "",
          "type": "uint256"
        }
      ],
      "stateMutability": "view",
      "type": "function"
    },
    {
      "inputs": [
        {
          "internalType": "uint256",
          "name": "tokenId",
          "type": "uint256"
        }
      ],
      "name": "tokenURI",
      "outputs": [
        {
          "internalType": "string",
          "name": "",
          "type": "string"
        }
      ],
      "stateMutability": "view",
      "type": "function"
    },
    {
      "inputs": [],
      "name": "totalSupply",
      "outputs": [
        {
          "internalType": "uint256",
          "name": "",
          "type": "uint256"
        }
      ],
      "stateMutability": "view",
      "type": "function"
    },
    {
      "inputs": [
        {
          "internalType": "address",
          "name": "from",
          "type": "address"
        },
        {
          "internalType": "address",
          "name": "to",
          "type": "address"
        },
        {
          "internalType": "uint256",
          "name": "tokenId",
          "type": "uint256"
        }
      ],
      "name": "transferFrom",
      "outputs": [],
      "stateMutability": "nonpayable",
      "type": "function"
    }
  ],
  "bytecode": "0x60a0604052348015620000125760006000fd5b50604051620036e3380380620036e38339818101604052810190620000389190620001f4565b5b6040518060400160405280601b81526020017f48554520546f6b656e697a6564204465627420506f736974696f6e00000000008152602001506040518060400160405280600581526020017f48756544500000000000000000000000000000000000000000000000000000008152602001505b81815b8160006000509080519060200190620000ca92919062000133565b508060016000509080519060200190620000e692919062000133565b505b50505b5050806000015173ffffffffffffffffffffffffffffffffffffffff1660808173ffffffffffffffffffffffffffffffffffffffff1660601b815260140150505b50620002a7565b828054620001419062000262565b90600052602060002090601f016020900481019282620001655760008555620001b6565b82601f106200018057805160ff1916838001178555620001b6565b82800160010185558215620001b6579182015b82811115620001b5578251826000509090559160200191906001019062000193565b5b509050620001c59190620001c9565b5090565b620001cf565b80821115620001eb5760008181506000905550600101620001cf565b509056620002a6565b60006020828403121562000206578081fd5b604051602081018181106001600160401b03821117156200023557634e487b7160e01b83526041600452602483fd5b806040525082516001600160a01b0381168114151562000253578283fd5b80825250809150505b92915050565b60008160011c9050600182168015156200027d57607f821691505b602082108114156200029f57634e487b7160e01b600052602260045260246000fd5b505b919050565b5b60805160601c613416620002cd600039600081816107cc015261170001526134166000f3fe60806040523480156100115760006000fd5b50600436106101875760003560e01c80634f6ccce7116100d957806395d89b411161008d578063b88d4fde11610067578063b88d4fde1461045f578063c87b56dd1461047b578063e985e9c5146104ab57610187565b806395d89b41146104095780639dbead4214610427578063a22cb4651461044357610187565b80636352211e116100be5780636352211e1461037957806370a08231146103a9578063755edd17146103d957610187565b80634f6ccce7146103195780635a11a9ad1461034957610187565b806318160ddd1161013b5780632f745c59116101155780632f745c591461029d57806342842e0e146102cd578063430c2081146102e957610187565b806318160ddd146102455780631c8249051461026357806323b872dd1461028157610187565b8063081812fc1161016c578063081812fc146101db578063095ea7b31461020b5780630c340a241461022757610187565b806301ffc9a71461018d57806306fdde03146101bd57610187565b60006000fd5b6101a760048036038101906101a29190612881565b6104db565b6040516101b49190612a95565b60405180910390f35b6101c5610560565b6040516101d29190612ad1565b60405180910390f35b6101f560048036038101906101f091906128f6565b6105fa565b60405161020291906129ca565b60405180910390f35b61022560048036038101906102209190612850565b61068f565b005b61022f6107ca565b60405161023c9190612aa9565b60405180910390f35b61024d6107ee565b60405161025a9190613149565b60405180910390f35b61026b610803565b604051610278919061315b565b60405180910390f35b61029b600480360381019061029691906126c4565b61081d565b005b6102b760048036038101906102b29190612850565b610892565b6040516102c49190613149565b60405180910390f35b6102e760048036038101906102e291906126c4565b61094d565b005b61030360048036038101906102fe9190612850565b610977565b6040516103109190612a95565b60405180910390f35b610333600480360381019061032e91906128f6565b610996565b6040516103409190613149565b60405180910390f35b610363600480360381019061035e9190612661565b610a44565b6040516103709190612a3d565b60405180910390f35b610393600480360381019061038e91906128f6565b610b67565b6040516103a091906129ca565b60405180910390f35b6103c360048036038101906103be9190612661565b610c25565b6040516103d09190613149565b60405180910390f35b6103f360048036038101906103ee9190612661565b610ceb565b604051610400919061315b565b60405180910390f35b610411610e42565b60405161041e9190612ad1565b60405180910390f35b610441600480360381019061043c9190612912565b610edc565b005b61045d6004803603810190610458919061280e565b610f49565b005b61047960048036038101906104749190612709565b610f6c565b005b610495600480360381019061049091906128f6565b610fe3565b6040516104a29190612ad1565b60405180910390f35b6104c560048036038101906104c09190612688565b6110a9565b6040516104d29190612a95565b60405180910390f35b60007f780e9d63000000000000000000000000000000000000000000000000000000007bffffffffffffffffffffffffffffffffffffffffffffffffffffffff1916827bffffffffffffffffffffffffffffffffffffffffffffffffffffffff1916148061055457506105538261114863ffffffff16565b5b905061055b565b919050565b60606000600050805461057290613209565b80601f016020809104026020016040519081016040528092919081815260200182805461059e90613209565b80156105eb5780601f106105c0576101008083540402835291602001916105eb565b820191906000526020600020905b8154815290600101906020018083116105ce57829003601f168201915b505050505090506105f7565b90565b600061060b8261123563ffffffff16565b151561064c576040517f08c379a000000000000000000000000000000000000000000000000000000000815260040161064390612eeb565b60405180910390fd5b6004600050600083815260200190815260200160002060009054906101000a900473ffffffffffffffffffffffffffffffffffffffff16905061068a565b919050565b60006106a082610b6763ffffffff16565b90508073ffffffffffffffffffffffffffffffffffffffff168373ffffffffffffffffffffffffffffffffffffffff1614151515610713576040517f08c379a000000000000000000000000000000000000000000000000000000000815260040161070a9061301a565b60405180910390fd5b8073ffffffffffffffffffffffffffffffffffffffff166107386112aa63ffffffff16565b73ffffffffffffffffffffffffffffffffffffffff1614806107735750610772816107676112aa63ffffffff16565b6110a963ffffffff16565b5b15156107b4576040517f08c379a00000000000000000000000000000000000000000000000000000000081526004016107ab90612d7d565b60405180910390fd5b6107c483836112b763ffffffff16565b505b5050565b7f000000000000000000000000000000000000000000000000000000000000000081565b60006008600050805490509050610800565b90565b600a60009054906101000a900467ffffffffffffffff1681565b61083a61082e6112aa63ffffffff16565b8261137a63ffffffff16565b151561087b576040517f08c379a00000000000000000000000000000000000000000000000000000000081526004016108729061307f565b60405180910390fd5b61088c83838361147863ffffffff16565b5b505050565b60006108a383610c2563ffffffff16565b821015156108e6576040517f08c379a00000000000000000000000000000000000000000000000000000000081526004016108dd90612b2c565b60405180910390fd5b600660005060008473ffffffffffffffffffffffffffffffffffffffff1673ffffffffffffffffffffffffffffffffffffffff1681526020019081526020016000206000506000838152602001908152602001600020600050549050610947565b92915050565b61097183838360405180602001604052806000815260200150610f6c63ffffffff16565b5b505050565b6000610989838361137a63ffffffff16565b9050610990565b92915050565b60006109a66107ee63ffffffff16565b821015156109e9576040517f08c379a00000000000000000000000000000000000000000000000000000000081526004016109e0906130e4565b60405180910390fd5b600860005082815481101515610a28577f4e487b7100000000000000000000000000000000000000000000000000000000600052603260045260246000fd5b906000526020600020900160005b50549050610a3f565b919050565b60606000610a5783610c2563ffffffff16565b90508067ffffffffffffffff811115610a99577f4e487b7100000000000000000000000000000000000000000000000000000000600052604160045260246000fd5b604051908082528060200260200182016040528015610ac75781602001602082028036833780820191505090505b50915081506000600090505b81811015610b5f57610aeb848261089263ffffffff16565b8382815181101515610b26577f4e487b7100000000000000000000000000000000000000000000000000000000600052603260045260246000fd5b602002602001019067ffffffffffffffff16908167ffffffffffffffff16815260200150505b8080610b5790613264565b915050610ad3565b50505b919050565b600060006002600050600084815260200190815260200160002060009054906101000a900473ffffffffffffffffffffffffffffffffffffffff169050600073ffffffffffffffffffffffffffffffffffffffff168173ffffffffffffffffffffffffffffffffffffffff1614151515610c16576040517f08c379a0000000000000000000000000000000000000000000000000000000008152600401610c0d90612e47565b60405180910390fd5b80915050610c2056505b919050565b6000600073ffffffffffffffffffffffffffffffffffffffff168273ffffffffffffffffffffffffffffffffffffffff1614151515610c99576040517f08c379a0000000000000000000000000000000000000000000000000000000008152600401610c9090612de2565b60405180910390fd5b600360005060008373ffffffffffffffffffffffffffffffffffffffff1673ffffffffffffffffffffffffffffffffffffffff168152602001908152602001600020600050549050610ce6565b919050565b6000610cfc336116fc63ffffffff16565b1515610d3d576040517f08c379a0000000000000000000000000000000000000000000000000000000008152600401610d3490612d3e565b60405180910390fd5b67ffffffffffffffff67ffffffffffffffff16600a60009054906101000a900467ffffffffffffffff1667ffffffffffffffff16101515610db3576040517f08c379a0000000000000000000000000000000000000000000000000000000008152600401610daa90612aed565b60405180910390fd5b600a60009054906101000a900467ffffffffffffffff1690508050600a600081819054906101000a900467ffffffffffffffff1680929190610df4906132a3565b91906101000a81548167ffffffffffffffff021916908367ffffffffffffffff16021790555050610e35828267ffffffffffffffff166117d863ffffffff16565b809050610e3d565b919050565b606060016000508054610e5490613209565b80601f0160208091040260200160405190810160405280929190818152602001828054610e8090613209565b8015610ecd5780601f10610ea257610100808354040283529160200191610ecd565b820191906000526020600020905b815481529060010190602001808311610eb057829003601f168201915b50505050509050610ed9565b90565b610eeb336119c163ffffffff16565b1515610f2c576040517f08c379a0000000000000000000000000000000000000000000000000000000008152600401610f2390612d3e565b60405180910390fd5b610f458167ffffffffffffffff166119d163ffffffff16565b5b50565b610f67610f5a6112aa63ffffffff16565b8383611aff63ffffffff16565b5b5050565b610f89610f7d6112aa63ffffffff16565b8361137a63ffffffff16565b1515610fca576040517f08c379a0000000000000000000000000000000000000000000000000000000008152600401610fc19061307f565b60405180910390fd5b610fdc84848484611c7563ffffffff16565b5b50505050565b6060610ff48261123563ffffffff16565b1515611035576040517f08c379a000000000000000000000000000000000000000000000000000000000815260040161102c90612fb5565b60405180910390fd5b6000611045611ce063ffffffff16565b90506000815111611068576040518060200160405280600081526020015061109b565b8061107a84611cff909063ffffffff16565b60405160200161108b929190612994565b6040516020818303038152906040525b9150506110a456505b919050565b6000600560005060008473ffffffffffffffffffffffffffffffffffffffff1673ffffffffffffffffffffffffffffffffffffffff16815260200190815260200160002060005060008373ffffffffffffffffffffffffffffffffffffffff1673ffffffffffffffffffffffffffffffffffffffff16815260200190815260200160002060009054906101000a900460ff169050611142565b92915050565b60007f80ac58cd000000000000000000000000000000000000000000000000000000007bffffffffffffffffffffffffffffffffffffffffffffffffffffffff1916827bffffffffffffffffffffffffffffffffffffffffffffffffffffffff1916148061121357507f5b5e139f000000000000000000000000000000000000000000000000000000007bffffffffffffffffffffffffffffffffffffffffffffffffffffffff1916827bffffffffffffffffffffffffffffffffffffffffffffffffffffffff1916145b80611229575061122882611ec263ffffffff16565b5b9050611230565b919050565b6000600073ffffffffffffffffffffffffffffffffffffffff166002600050600084815260200190815260200160002060009054906101000a900473ffffffffffffffffffffffffffffffffffffffff1673ffffffffffffffffffffffffffffffffffffffff16141590506112a5565b919050565b60003390506112b4565b90565b816004600050600083815260200190815260200160002060006101000a81548173ffffffffffffffffffffffffffffffffffffffff021916908373ffffffffffffffffffffffffffffffffffffffff160217905550808273ffffffffffffffffffffffffffffffffffffffff1661133383610b6763ffffffff16565b73ffffffffffffffffffffffffffffffffffffffff167f8c5be1e5ebec7d5bd14f71427d1e84f3dd0314c0f7b2291e5b200ac8c7c3b92560405160405180910390a45b5050565b600061138b8261123563ffffffff16565b15156113cc576040517f08c379a00000000000000000000000000000000000000000000000000000000081526004016113c390612cd9565b60405180910390fd5b60006113dd83610b6763ffffffff16565b90508073ffffffffffffffffffffffffffffffffffffffff168473ffffffffffffffffffffffffffffffffffffffff16148061145257508373ffffffffffffffffffffffffffffffffffffffff1661143a846105fa63ffffffff16565b73ffffffffffffffffffffffffffffffffffffffff16145b80611469575061146881856110a963ffffffff16565b5b91505061147256505b92915050565b8273ffffffffffffffffffffffffffffffffffffffff1661149e82610b6763ffffffff16565b73ffffffffffffffffffffffffffffffffffffffff161415156114f6576040517f08c379a00000000000000000000000000000000000000000000000000000000081526004016114ed90612f50565b60405180910390fd5b600073ffffffffffffffffffffffffffffffffffffffff168273ffffffffffffffffffffffffffffffffffffffff1614151515611568576040517f08c379a000000000000000000000000000000000000000000000000000000000815260040161155f90612c35565b60405180910390fd5b611579838383611f3163ffffffff16565b61158a6000826112b763ffffffff16565b6001600360005060008573ffffffffffffffffffffffffffffffffffffffff1673ffffffffffffffffffffffffffffffffffffffff168152602001908152602001600020600082828250546115df91906131b5565b9250508190909055506001600360005060008473ffffffffffffffffffffffffffffffffffffffff1673ffffffffffffffffffffffffffffffffffffffff1681526020019081526020016000206000828282505461163d9190613177565b925050819090905550816002600050600083815260200190815260200160002060006101000a81548173ffffffffffffffffffffffffffffffffffffffff021916908373ffffffffffffffffffffffffffffffffffffffff160217905550808273ffffffffffffffffffffffffffffffffffffffff168473ffffffffffffffffffffffffffffffffffffffff167fddf252ad1be2c89b69c2b068fc378daa952ba7f163c4a11628f55a4df523b3ef60405160405180910390a45b505050565b60007f000000000000000000000000000000000000000000000000000000000000000073ffffffffffffffffffffffffffffffffffffffff166380f556056040518163ffffffff1660e01b815260040160206040518083038186803b1580156117655760006000fd5b505afa15801561177a573d600060003e3d6000fd5b505050506040513d601f19601f8201168201806040525081019061179e91906128cf565b73ffffffffffffffffffffffffffffffffffffffff168273ffffffffffffffffffffffffffffffffffffffff161490506117d3565b919050565b600073ffffffffffffffffffffffffffffffffffffffff168273ffffffffffffffffffffffffffffffffffffffff161415151561184a576040517f08c379a000000000000000000000000000000000000000000000000000000000815260040161184190612eac565b60405180910390fd5b6118598161123563ffffffff16565b15151561189b576040517f08c379a000000000000000000000000000000000000000000000000000000000815260040161189290612bf6565b60405180910390fd5b6118ad60008383611f3163ffffffff16565b6001600360005060008473ffffffffffffffffffffffffffffffffffffffff1673ffffffffffffffffffffffffffffffffffffffff168152602001908152602001600020600082828250546119029190613177565b925050819090905550816002600050600083815260200190815260200160002060006101000a81548173ffffffffffffffffffffffffffffffffffffffff021916908373ffffffffffffffffffffffffffffffffffffffff160217905550808273ffffffffffffffffffffffffffffffffffffffff16600073ffffffffffffffffffffffffffffffffffffffff167fddf252ad1be2c89b69c2b068fc378daa952ba7f163c4a11628f55a4df523b3ef60405160405180910390a45b5050565b6000600090506119cc565b919050565b60006119e282610b6763ffffffff16565b90506119f681600084611f3163ffffffff16565b611a076000836112b763ffffffff16565b6001600360005060008373ffffffffffffffffffffffffffffffffffffffff1673ffffffffffffffffffffffffffffffffffffffff16815260200190815260200160002060008282825054611a5c91906131b5565b9250508190909055506002600050600083815260200190815260200160002060006101000a81549073ffffffffffffffffffffffffffffffffffffffff021916905581600073ffffffffffffffffffffffffffffffffffffffff168273ffffffffffffffffffffffffffffffffffffffff167fddf252ad1be2c89b69c2b068fc378daa952ba7f163c4a11628f55a4df523b3ef60405160405180910390a4505b50565b8173ffffffffffffffffffffffffffffffffffffffff168373ffffffffffffffffffffffffffffffffffffffff1614151515611b70576040517f08c379a0000000000000000000000000000000000000000000000000000000008152600401611b6790612c9a565b60405180910390fd5b80600560005060008573ffffffffffffffffffffffffffffffffffffffff1673ffffffffffffffffffffffffffffffffffffffff16815260200190815260200160002060005060008473ffffffffffffffffffffffffffffffffffffffff1673ffffffffffffffffffffffffffffffffffffffff16815260200190815260200160002060006101000a81548160ff0219169083151502179055508173ffffffffffffffffffffffffffffffffffffffff168373ffffffffffffffffffffffffffffffffffffffff167f17307eab39ab6107e8899845ad3d59bd9653f200f220920489ca2b5937696c3183604051611c679190612a95565b60405180910390a35b505050565b611c8684848461147863ffffffff16565b611c988484848461206863ffffffff16565b1515611cd9576040517f08c379a0000000000000000000000000000000000000000000000000000000008152600401611cd090612b91565b60405180910390fd5b5b50505050565b6060604051806020016040528060008152602001509050611cfc565b90565b60606000821415611d4a576040518060400160405280600181526020017f30000000000000000000000000000000000000000000000000000000000000008152602001509050611ebd565b600082905060005b600082141515611d80578080611d6790613264565b915050600a82611d779190613197565b91508150611d52565b60008167ffffffffffffffff811115611dc2577f4e487b7100000000000000000000000000000000000000000000000000000000600052604160045260246000fd5b6040519080825280601f01601f191660200182016040528015611df45781602001600182028036833780820191505090505b5090505b600085141515611eaf57600182611e0f91906131b5565b91508150600a85611e2091906132d0565b6030611e2c9190613177565b60f81b8183815181101515611e6a577f4e487b7100000000000000000000000000000000000000000000000000000000600052603260045260246000fd5b60200101907effffffffffffffffffffffffffffffffffffffffffffffffffffffffffffff1916908160001a905350600a85611ea69190613197565b94508450611df8565b809350505050611ebd565050505b919050565b60007f01ffc9a7000000000000000000000000000000000000000000000000000000007bffffffffffffffffffffffffffffffffffffffffffffffffffffffff1916827bffffffffffffffffffffffffffffffffffffffffffffffffffffffff1916149050611f2c565b919050565b611f4283838361222663ffffffff16565b600073ffffffffffffffffffffffffffffffffffffffff168373ffffffffffffffffffffffffffffffffffffffff161415611f8b57611f868161222c63ffffffff16565b611fd2565b8173ffffffffffffffffffffffffffffffffffffffff168373ffffffffffffffffffffffffffffffffffffffff16141515611fd157611fd0838261228863ffffffff16565b5b5b600073ffffffffffffffffffffffffffffffffffffffff168273ffffffffffffffffffffffffffffffffffffffff16141561201b576120168161242f63ffffffff16565b612062565b8273ffffffffffffffffffffffffffffffffffffffff168273ffffffffffffffffffffffffffffffffffffffff161415156120615761206082826125aa63ffffffff16565b5b5b5b505050565b60006120918473ffffffffffffffffffffffffffffffffffffffff16612643909063ffffffff16565b15612214578373ffffffffffffffffffffffffffffffffffffffff1663150b7a026120c06112aa63ffffffff16565b8786866040518563ffffffff1660e01b81526004016120e294939291906129f2565b602060405180830381600087803b1580156120fd5760006000fd5b505af192505050801561212e57506040513d601f19601f8201168201806040525081019061212b91906128a8565b60015b6121be575b5b3d8060008114612160576040519150601f19603f3d011682016040523d82523d6000602084013e612165565b606091505b506000815114156121af576040517f08c379a00000000000000000000000000000000000000000000000000000000081526004016121a290612b91565b60405180910390fd6121b7565b805181602001fd5b505b61220f565b63150b7a0260e01b7bffffffffffffffffffffffffffffffffffffffffffffffffffffffff1916817bffffffffffffffffffffffffffffffffffffffffffffffffffffffff19161491505061221e56505b61221d565b6001905061221e565b5b949350505050565b5b505050565b60086000508054905060096000506000838152602001908152602001600020600050819090905550600860005081908060018154018082558091505060019003906000526020600020900160005b909190919091509090555b50565b6000600161229b84610c2563ffffffff16565b6122a591906131b5565b905060006007600050600084815260200190815260200160002060005054905081811415156123ae576000600660005060008673ffffffffffffffffffffffffffffffffffffffff1673ffffffffffffffffffffffffffffffffffffffff168152602001908152602001600020600050600084815260200190815260200160002060005054905080600660005060008773ffffffffffffffffffffffffffffffffffffffff1673ffffffffffffffffffffffffffffffffffffffff16815260200190815260200160002060005060008481526020019081526020016000206000508190909055508160076000506000838152602001908152602001600020600050819090905550505b6007600050600084815260200190815260200160002060005060009055600660005060008573ffffffffffffffffffffffffffffffffffffffff1673ffffffffffffffffffffffffffffffffffffffff16815260200190815260200160002060005060008381526020019081526020016000206000506000905550505b5050565b6000600160086000508054905061244691906131b5565b905060006009600050600084815260200190815260200160002060005054905060006008600050838154811015156124a7577f4e487b7100000000000000000000000000000000000000000000000000000000600052603260045260246000fd5b906000526020600020900160005b50549050806008600050838154811015156124f9577f4e487b7100000000000000000000000000000000000000000000000000000000600052603260045260246000fd5b906000526020600020900160005b508190909055508160096000506000838152602001908152602001600020600050819090905550600960005060008581526020019081526020016000206000506000905560086000508054801515612588577f4e487b7100000000000000000000000000000000000000000000000000000000600052603160045260246000fd5b600190038181906000526020600020900160005b506000905590555050505b50565b60006125bb83610c2563ffffffff16565b905081600660005060008573ffffffffffffffffffffffffffffffffffffffff1673ffffffffffffffffffffffffffffffffffffffff16815260200190815260200160002060005060008381526020019081526020016000206000508190909055508060076000506000848152602001908152602001600020600050819090905550505b5050565b60006000823b90506000811191505061265856505b919050566133df565b600060208284031215612672578081fd5b813561267d81613381565b809150505b92915050565b600060006040838503121561269b578081fd5b82356126a681613381565b8092505060208301356126b881613381565b809150505b9250929050565b600060006000606084860312156126d9578081fd5b83356126e481613381565b8093505060208401356126f681613381565b80925050604084013590505b9250925092565b600060006000600060808587031215612720578081fd5b843561272b81613381565b80945050602085013561273d81613381565b8093505060408501359150606085013567ffffffffffffffff80821115612762578283fd5b818701915087601f8301121515612777578283fd5b81358181111561278a57612789613350565b5b7fffffffffffffffffffffffffffffffffffffffffffffffffffffffffffffffe060405181603f83601f86011601168101915080821084831117156127d2576127d1613350565b5b816040528281528a60208487010111156127ea578586fd5b82602086016020830137856020848301015280955050505050505b92959194509250565b6000600060408385031215612821578182fd5b823561282c81613381565b80925050602083013580151581141515612844578182fd5b809150505b9250929050565b6000600060408385031215612863578182fd5b823561286e81613381565b80925050602083013590505b9250929050565b600060208284031215612892578081fd5b813561289d816133aa565b809150505b92915050565b6000602082840312156128b9578081fd5b81516128c4816133aa565b809150505b92915050565b6000602082840312156128e0578081fd5b81516128eb81613381565b809150505b92915050565b600060208284031215612907578081fd5b813590505b92915050565b600060208284031215612923578081fd5b813567ffffffffffffffff81168114151561293c578182fd5b809150505b92915050565b6000815180845261295f8160208601602086016131d4565b60207fffffffffffffffffffffffffffffffffffffffffffffffffffffffffffffffe0601f8301168501019150505b92915050565b600083516129a68184602088016131d4565b808301905083516129bb8183602088016131d4565b808201925050505b9392505050565b600060208201905073ffffffffffffffffffffffffffffffffffffffff831682525b92915050565b600073ffffffffffffffffffffffffffffffffffffffff808716835280861660208401525083604083015260806060830152612a316080830184612947565b90505b95945050505050565b600060208083018184528085518083526040860191508387019250845b81811015612a865767ffffffffffffffff8451168352848301925084840193505b600181019050612a5a565b50508093505050505b92915050565b600060208201905082151582525b92915050565b600060208201905073ffffffffffffffffffffffffffffffffffffffff831682525b92915050565b602081526000612ae46020830184612947565b90505b92915050565b60208152600860208201527f4f766572666c6f77000000000000000000000000000000000000000000000000604082015260006060820190505b919050565b60208152602b60208201527f455243373231456e756d657261626c653a206f776e657220696e646578206f7560408201527f74206f6620626f756e6473000000000000000000000000000000000000000000606082015260006080820190505b919050565b60208152603260208201527f4552433732313a207472616e7366657220746f206e6f6e20455243373231526560408201527f63656976657220696d706c656d656e7465720000000000000000000000000000606082015260006080820190505b919050565b60208152601c60208201527f4552433732313a20746f6b656e20616c7265616479206d696e74656400000000604082015260006060820190505b919050565b60208152602460208201527f4552433732313a207472616e7366657220746f20746865207a65726f2061646460408201527f7265737300000000000000000000000000000000000000000000000000000000606082015260006080820190505b919050565b60208152601960208201527f4552433732313a20617070726f766520746f2063616c6c657200000000000000604082015260006060820190505b919050565b60208152602c60208201527f4552433732313a206f70657261746f7220717565727920666f72206e6f6e657860408201527f697374656e7420746f6b656e0000000000000000000000000000000000000000606082015260006080820190505b919050565b60208152600e60208201527f4e6f7420417574686f72697a6564000000000000000000000000000000000000604082015260006060820190505b919050565b60208152603860208201527f4552433732313a20617070726f76652063616c6c6572206973206e6f74206f7760408201527f6e6572206e6f7220617070726f76656420666f7220616c6c0000000000000000606082015260006080820190505b919050565b60208152602a60208201527f4552433732313a2062616c616e636520717565727920666f7220746865207a6560408201527f726f206164647265737300000000000000000000000000000000000000000000606082015260006080820190505b919050565b60208152602960208201527f4552433732313a206f776e657220717565727920666f72206e6f6e657869737460408201527f656e7420746f6b656e0000000000000000000000000000000000000000000000606082015260006080820190505b919050565b60208152602060208201527f4552433732313a206d696e7420746f20746865207a65726f2061646472657373604082015260006060820190505b919050565b60208152602c60208201527f4552433732313a20617070726f76656420717565727920666f72206e6f6e657860408201527f697374656e7420746f6b656e0000000000000000000000000000000000000000606082015260006080820190505b919050565b60208152602960208201527f4552433732313a207472616e73666572206f6620746f6b656e2074686174206960408201527f73206e6f74206f776e0000000000000000000000000000000000000000000000606082015260006080820190505b919050565b60208152602f60208201527f4552433732314d657461646174613a2055524920717565727920666f72206e6f60408201527f6e6578697374656e7420746f6b656e0000000000000000000000000000000000606082015260006080820190505b919050565b60208152602160208201527f4552433732313a20617070726f76616c20746f2063757272656e74206f776e6560408201527f7200000000000000000000000000000000000000000000000000000000000000606082015260006080820190505b919050565b60208152603160208201527f4552433732313a207472616e736665722063616c6c6572206973206e6f74206f60408201527f776e6572206e6f7220617070726f766564000000000000000000000000000000606082015260006080820190505b919050565b60208152602c60208201527f455243373231456e756d657261626c653a20676c6f62616c20696e646578206f60408201527f7574206f6620626f756e64730000000000000000000000000000000000000000606082015260006080820190505b919050565b60006020820190508282525b92915050565b600060208201905067ffffffffffffffff831682525b92915050565b6000821982111561318b5761318a6132ee565b5b82820190505b92915050565b60008215156131a9576131a861331f565b5b82820490505b92915050565b6000828210156131c8576131c76132ee565b5b82820390505b92915050565b60005b838110156131f35780820151818401525b6020810190506131d7565b83811115613202576000848401525b505050505b565b60008160011c90506001821680151561322357607f821691505b6020821081141561325d577f4e487b7100000000000000000000000000000000000000000000000000000000600052602260045260246000fd5b505b919050565b60007fffffffffffffffffffffffffffffffffffffffffffffffffffffffffffffffff821415613297576132966132ee565b5b6001820190505b919050565b600067ffffffffffffffff808316818114156132c2576132c16132ee565b5b60018101925050505b919050565b60008215156132e2576132e161331f565b5b82820690505b92915050565b7f4e487b7100000000000000000000000000000000000000000000000000000000600052601160045260246000fd5b565b7f4e487b7100000000000000000000000000000000000000000000000000000000600052601260045260246000fd5b565b7f4e487b7100000000000000000000000000000000000000000000000000000000600052604160045260246000fd5b565b73ffffffffffffffffffffffffffffffffffffffff8116811415156133a65760006000fd5b505b565b7fffffffff000000000000000000000000000000000000000000000000000000008116811415156133db5760006000fd5b505b565bfea26469706673582212205993def39792f96ec659090f8d7686d44f03f87f65d5b9864ba374d7e788eca164736f6c63430008040033",
  "linkReferences": {},
  "deployedLinkReferences": {}
}