{
  "_format": "hh-sol-artifact-1",
  "contractName": "TDaoGovernorAlpha",
  "sourceName": "contracts/core/TDao/TDaoGovernorAlpha.sol",
  "abi": [
    {
      "inputs": [
        {
          "internalType": "address",
          "name": "timelock_",
          "type": "address"
        },
        {
          "internalType": "address",
          "name": "votingToken_",
          "type": "address"
        },
        {
          "internalType": "address",
          "name": "guardian_",
          "type": "address"
        },
        {
          "internalType": "uint48",
          "name": "votingPeriodBlocks_",
          "type": "uint48"
        },
        {
          "internalType": "contract ITDao",
          "name": "tDao_",
          "type": "address"
        }
      ],
      "stateMutability": "nonpayable",
      "type": "constructor"
    },
    {
      "anonymous": false,
      "inputs": [
        {
          "indexed": true,
          "internalType": "uint256",
          "name": "id",
          "type": "uint256"
        }
      ],
      "name": "ProposalCanceled",
      "type": "event"
    },
    {
      "anonymous": false,
      "inputs": [
        {
          "indexed": true,
          "internalType": "uint256",
          "name": "id",
          "type": "uint256"
        },
        {
          "indexed": true,
          "internalType": "address",
          "name": "proposer",
          "type": "address"
        }
      ],
      "name": "ProposalCreated",
      "type": "event"
    },
    {
      "anonymous": false,
      "inputs": [
        {
          "indexed": true,
          "internalType": "uint256",
          "name": "id",
          "type": "uint256"
        }
      ],
      "name": "ProposalExecuted",
      "type": "event"
    },
    {
      "anonymous": false,
      "inputs": [
        {
          "indexed": true,
          "internalType": "uint256",
          "name": "id",
          "type": "uint256"
        },
        {
          "indexed": false,
          "internalType": "uint256",
          "name": "eta",
          "type": "uint256"
        }
      ],
      "name": "ProposalQueued",
      "type": "event"
    },
    {
      "anonymous": false,
      "inputs": [
        {
          "indexed": true,
          "internalType": "address",
          "name": "caller",
          "type": "address"
        },
        {
          "indexed": true,
          "internalType": "uint256",
          "name": "proposalID",
          "type": "uint256"
        }
      ],
      "name": "UnderlyingVotingRewardsDistributed",
      "type": "event"
    },
    {
      "anonymous": false,
      "inputs": [
        {
          "indexed": true,
          "internalType": "address",
          "name": "voter",
          "type": "address"
        },
        {
          "indexed": true,
          "internalType": "uint256",
          "name": "proposalId",
          "type": "uint256"
        },
        {
          "indexed": true,
          "internalType": "bool",
          "name": "support",
          "type": "bool"
        },
        {
          "indexed": false,
          "internalType": "uint256",
          "name": "votes",
          "type": "uint256"
        }
      ],
      "name": "VoteCast",
      "type": "event"
    },
    {
      "anonymous": false,
      "inputs": [
        {
          "indexed": true,
          "internalType": "address",
          "name": "voter",
          "type": "address"
        },
        {
          "indexed": false,
          "internalType": "uint256",
          "name": "count",
          "type": "uint256"
        }
      ],
      "name": "VotingRewardsDistributed",
      "type": "event"
    },
    {
      "inputs": [],
      "name": "BALLOT_TYPEHASH",
      "outputs": [
        {
          "internalType": "bytes32",
          "name": "",
          "type": "bytes32"
        }
      ],
      "stateMutability": "view",
      "type": "function"
    },
    {
      "inputs": [],
      "name": "DOMAIN_TYPEHASH",
      "outputs": [
        {
          "internalType": "bytes32",
          "name": "",
          "type": "bytes32"
        }
      ],
      "stateMutability": "view",
      "type": "function"
    },
    {
      "inputs": [],
      "name": "INFLATION_PERCENTAGE",
      "outputs": [
        {
          "internalType": "uint256",
          "name": "",
          "type": "uint256"
        }
      ],
      "stateMutability": "view",
      "type": "function"
    },
    {
      "inputs": [],
      "name": "__abdicate",
      "outputs": [],
      "stateMutability": "nonpayable",
      "type": "function"
    },
    {
      "inputs": [
        {
          "internalType": "uint256",
          "name": "proposalId",
          "type": "uint256"
        }
      ],
      "name": "cancel",
      "outputs": [],
      "stateMutability": "nonpayable",
      "type": "function"
    },
    {
      "inputs": [
        {
          "internalType": "uint256",
          "name": "proposalId",
          "type": "uint256"
        },
        {
          "internalType": "bool",
          "name": "support",
          "type": "bool"
        }
      ],
      "name": "castVote",
      "outputs": [],
      "stateMutability": "nonpayable",
      "type": "function"
    },
    {
      "inputs": [
        {
          "internalType": "uint256",
          "name": "proposalId",
          "type": "uint256"
        },
        {
          "internalType": "bool",
          "name": "support",
          "type": "bool"
        },
        {
          "internalType": "uint8",
          "name": "v",
          "type": "uint8"
        },
        {
          "internalType": "bytes32",
          "name": "r",
          "type": "bytes32"
        },
        {
          "internalType": "bytes32",
          "name": "s",
          "type": "bytes32"
        }
      ],
      "name": "castVoteBySig",
      "outputs": [],
      "stateMutability": "nonpayable",
      "type": "function"
    },
    {
      "inputs": [
        {
          "internalType": "uint256[]",
          "name": "proposalIDs",
          "type": "uint256[]"
        }
      ],
      "name": "claimUnderlyingVotingRewards",
      "outputs": [],
      "stateMutability": "nonpayable",
      "type": "function"
    },
    {
      "inputs": [
        {
          "internalType": "uint256[]",
          "name": "proposalIDs",
          "type": "uint256[]"
        }
      ],
      "name": "claimVotingRewards",
      "outputs": [],
      "stateMutability": "nonpayable",
      "type": "function"
    },
    {
      "inputs": [
        {
          "internalType": "uint256",
          "name": "proposalID",
          "type": "uint256"
        },
        {
          "internalType": "address",
          "name": "voter",
          "type": "address"
        }
      ],
      "name": "countVotingRewards",
      "outputs": [
        {
          "internalType": "uint256",
          "name": "",
          "type": "uint256"
        }
      ],
      "stateMutability": "view",
      "type": "function"
    },
    {
      "inputs": [
        {
          "internalType": "uint256",
          "name": "proposalId",
          "type": "uint256"
        }
      ],
      "name": "execute",
      "outputs": [],
      "stateMutability": "nonpayable",
      "type": "function"
    },
    {
      "inputs": [
        {
          "internalType": "uint256",
          "name": "proposalId",
          "type": "uint256"
        }
      ],
      "name": "getActions",
      "outputs": [
        {
          "internalType": "address[]",
          "name": "targets",
          "type": "address[]"
        },
        {
          "internalType": "string[]",
          "name": "signatures",
          "type": "string[]"
        },
        {
          "internalType": "bytes[]",
          "name": "calldatas",
          "type": "bytes[]"
        }
      ],
      "stateMutability": "view",
      "type": "function"
    },
    {
      "inputs": [
        {
          "internalType": "uint256",
          "name": "proposalID",
          "type": "uint256"
        }
      ],
      "name": "getMetaProposalParameters",
      "outputs": [
        {
          "internalType": "address",
          "name": "governorAlpha",
          "type": "address"
        },
        {
          "internalType": "uint256",
          "name": "underlyingProposalID",
          "type": "uint256"
        },
        {
          "internalType": "bool",
          "name": "moreForThanAgainst",
          "type": "bool"
        }
      ],
      "stateMutability": "view",
      "type": "function"
    },
    {
      "inputs": [
        {
          "internalType": "address",
          "name": "voter",
          "type": "address"
        }
      ],
      "name": "getProposalsInfo",
      "outputs": [
        {
          "components": [
            {
              "internalType": "address[]",
              "name": "targets",
              "type": "address[]"
            },
            {
              "internalType": "string[]",
              "name": "signatures",
              "type": "string[]"
            },
            {
              "internalType": "bytes[]",
              "name": "calldatas",
              "type": "bytes[]"
            },
            {
              "internalType": "string",
              "name": "title",
              "type": "string"
            },
            {
              "internalType": "string",
              "name": "ipfsHash",
              "type": "string"
            },
            {
              "internalType": "address",
              "name": "proposer",
              "type": "address"
            },
            {
              "internalType": "uint48",
              "name": "eta",
              "type": "uint48"
            },
            {
              "internalType": "uint48",
              "name": "id",
              "type": "uint48"
            },
            {
              "internalType": "uint128",
              "name": "forVotes",
              "type": "uint128"
            },
            {
              "internalType": "uint48",
              "name": "startBlock",
              "type": "uint48"
            },
            {
              "internalType": "uint48",
              "name": "endBlock",
              "type": "uint48"
            },
            {
              "internalType": "bool",
              "name": "canceled",
              "type": "bool"
            },
            {
              "internalType": "bool",
              "name": "executed",
              "type": "bool"
            },
            {
              "internalType": "uint128",
              "name": "againstVotes",
              "type": "uint128"
            },
            {
              "internalType": "uint128",
              "name": "initialSupply",
              "type": "uint128"
            },
            {
              "internalType": "enum GovernorAlpha.ProposalState",
              "name": "state",
              "type": "uint8"
            },
            {
              "components": [
                {
                  "internalType": "bool",
                  "name": "hasVoted",
                  "type": "bool"
                },
                {
                  "internalType": "bool",
                  "name": "support",
                  "type": "bool"
                },
                {
                  "internalType": "bool",
                  "name": "rewardReceived",
                  "type": "bool"
                },
                {
                  "internalType": "uint184",
                  "name": "votes",
                  "type": "uint184"
                }
              ],
              "internalType": "struct GovernorAlpha.Receipt",
              "name": "receipt",
              "type": "tuple"
            },
            {
              "internalType": "uint256",
              "name": "votingPower",
              "type": "uint256"
            },
            {
              "internalType": "uint256",
              "name": "votingRewards",
              "type": "uint256"
            }
          ],
          "internalType": "struct GovernorAlphaWithVotingRewards.ProposalInfo[]",
          "name": "proposalsInfo",
          "type": "tuple[]"
        }
      ],
      "stateMutability": "view",
      "type": "function"
    },
    {
      "inputs": [
        {
          "internalType": "uint256",
          "name": "proposalId",
          "type": "uint256"
        },
        {
          "internalType": "address",
          "name": "voter",
          "type": "address"
        }
      ],
      "name": "getReceipt",
      "outputs": [
        {
          "components": [
            {
              "internalType": "bool",
              "name": "hasVoted",
              "type": "bool"
            },
            {
              "internalType": "bool",
              "name": "support",
              "type": "bool"
            },
            {
              "internalType": "bool",
              "name": "rewardReceived",
              "type": "bool"
            },
            {
              "internalType": "uint184",
              "name": "votes",
              "type": "uint184"
            }
          ],
          "internalType": "struct GovernorAlpha.Receipt",
          "name": "",
          "type": "tuple"
        }
      ],
      "stateMutability": "view",
      "type": "function"
    },
    {
      "inputs": [],
      "name": "guardian",
      "outputs": [
        {
          "internalType": "address",
          "name": "",
          "type": "address"
        }
      ],
      "stateMutability": "view",
      "type": "function"
    },
    {
      "inputs": [
        {
          "internalType": "uint256",
          "name": "",
          "type": "uint256"
        },
        {
          "internalType": "address",
          "name": "",
          "type": "address"
        }
      ],
      "name": "hasClaimedUnderlyingRewards",
      "outputs": [
        {
          "internalType": "bool",
          "name": "",
          "type": "bool"
        }
      ],
      "stateMutability": "view",
      "type": "function"
    },
    {
      "inputs": [],
      "name": "implementsVotingRewardsWithToken",
      "outputs": [
        {
          "internalType": "address",
          "name": "",
          "type": "address"
        }
      ],
      "stateMutability": "view",
      "type": "function"
    },
    {
      "inputs": [
        {
          "internalType": "address",
          "name": "",
          "type": "address"
        }
      ],
      "name": "latestProposalIds",
      "outputs": [
        {
          "internalType": "uint256",
          "name": "",
          "type": "uint256"
        }
      ],
      "stateMutability": "view",
      "type": "function"
    },
    {
      "inputs": [],
      "name": "name",
      "outputs": [
        {
          "internalType": "string",
          "name": "",
          "type": "string"
        }
      ],
      "stateMutability": "view",
      "type": "function"
    },
    {
      "inputs": [],
      "name": "proposalCount",
      "outputs": [
        {
          "internalType": "uint48",
          "name": "",
          "type": "uint48"
        }
      ],
      "stateMutability": "view",
      "type": "function"
    },
    {
      "inputs": [],
      "name": "proposalMaxOperations",
      "outputs": [
        {
          "internalType": "uint256",
          "name": "",
          "type": "uint256"
        }
      ],
      "stateMutability": "pure",
      "type": "function"
    },
    {
      "inputs": [],
      "name": "proposalThreshold",
      "outputs": [
        {
          "internalType": "uint256",
          "name": "",
          "type": "uint256"
        }
      ],
      "stateMutability": "view",
      "type": "function"
    },
    {
      "inputs": [
        {
          "internalType": "uint256",
          "name": "",
          "type": "uint256"
        }
      ],
      "name": "proposals",
      "outputs": [
        {
          "internalType": "string",
          "name": "title",
          "type": "string"
        },
        {
          "internalType": "string",
          "name": "ipfsHash",
          "type": "string"
        },
        {
          "internalType": "address",
          "name": "proposer",
          "type": "address"
        },
        {
          "internalType": "uint48",
          "name": "eta",
          "type": "uint48"
        },
        {
          "internalType": "uint48",
          "name": "id",
          "type": "uint48"
        },
        {
          "internalType": "uint128",
          "name": "forVotes",
          "type": "uint128"
        },
        {
          "internalType": "uint48",
          "name": "startBlock",
          "type": "uint48"
        },
        {
          "internalType": "uint48",
          "name": "endBlock",
          "type": "uint48"
        },
        {
          "internalType": "bool",
          "name": "canceled",
          "type": "bool"
        },
        {
          "internalType": "bool",
          "name": "executed",
          "type": "bool"
        },
        {
          "internalType": "uint128",
          "name": "againstVotes",
          "type": "uint128"
        },
        {
          "internalType": "uint128",
          "name": "initialSupply",
          "type": "uint128"
        }
      ],
      "stateMutability": "view",
      "type": "function"
    },
    {
      "inputs": [
        {
          "internalType": "address[]",
          "name": "targets",
          "type": "address[]"
        },
        {
          "internalType": "string[]",
          "name": "signatures",
          "type": "string[]"
        },
        {
          "internalType": "bytes[]",
          "name": "calldatas",
          "type": "bytes[]"
        },
        {
          "internalType": "string",
          "name": "title",
          "type": "string"
        },
        {
          "internalType": "string",
          "name": "ipfsHash",
          "type": "string"
        }
      ],
      "name": "propose",
      "outputs": [
        {
          "internalType": "uint256",
          "name": "",
          "type": "uint256"
        }
      ],
      "stateMutability": "nonpayable",
      "type": "function"
    },
    {
      "inputs": [
        {
          "internalType": "uint256",
          "name": "proposalId",
          "type": "uint256"
        }
      ],
      "name": "queue",
      "outputs": [],
      "stateMutability": "nonpayable",
      "type": "function"
    },
    {
      "inputs": [],
      "name": "quorumVotes",
      "outputs": [
        {
          "internalType": "uint256",
          "name": "",
          "type": "uint256"
        }
      ],
      "stateMutability": "view",
      "type": "function"
    },
    {
      "inputs": [
        {
          "internalType": "uint256",
          "name": "proposalId",
          "type": "uint256"
        }
      ],
      "name": "state",
      "outputs": [
        {
          "internalType": "enum GovernorAlpha.ProposalState",
          "name": "",
          "type": "uint8"
        }
      ],
      "stateMutability": "view",
      "type": "function"
    },
    {
      "inputs": [],
      "name": "tDao",
      "outputs": [
        {
          "internalType": "contract ITDao",
          "name": "",
          "type": "address"
        }
      ],
      "stateMutability": "view",
      "type": "function"
    },
    {
      "inputs": [],
      "name": "timelock",
      "outputs": [
        {
          "internalType": "contract TimelockInterface",
          "name": "",
          "type": "address"
        }
      ],
      "stateMutability": "view",
      "type": "function"
    },
    {
      "inputs": [
        {
          "internalType": "contract GovernorAlpha",
          "name": "",
          "type": "address"
        },
        {
          "internalType": "uint256",
          "name": "",
          "type": "uint256"
        }
      ],
      "name": "voteInUnderlyingProtocol",
      "outputs": [],
      "stateMutability": "pure",
      "type": "function"
    },
    {
      "inputs": [],
      "name": "votingDelay",
      "outputs": [
        {
          "internalType": "uint256",
          "name": "",
          "type": "uint256"
        }
      ],
      "stateMutability": "pure",
      "type": "function"
    },
    {
      "inputs": [],
      "name": "votingPeriod",
      "outputs": [
        {
          "internalType": "uint256",
          "name": "",
          "type": "uint256"
        }
      ],
      "stateMutability": "view",
      "type": "function"
    },
    {
      "inputs": [],
      "name": "votingPeriodBlocks",
      "outputs": [
        {
          "internalType": "uint48",
          "name": "",
          "type": "uint48"
        }
      ],
      "stateMutability": "view",
      "type": "function"
    },
    {
      "inputs": [],
      "name": "votingToken",
      "outputs": [
        {
          "internalType": "contract VotingTokenInterface",
          "name": "",
          "type": "address"
        }
      ],
      "stateMutability": "view",
      "type": "function"
    }
  ],
  "bytecode": "0x610100604052348015620000135760006000fd5b5060405162007afa38038062007afa83398181016040528101906200003991906200034b565b5b6040518060400160405280601381526020017f5444616f20476f7665726e6f7220416c70686100000000000000000000000000815260200150858585855b84848484845b8460006000509080519060200190620000999291906200028a565b50600073ffffffffffffffffffffffffffffffffffffffff168473ffffffffffffffffffffffffffffffffffffffff1614158015620001055750600073ffffffffffffffffffffffffffffffffffffffff168373ffffffffffffffffffffffffffffffffffffffff1614155b80156200013f5750600073ffffffffffffffffffffffffffffffffffffffff168273ffffffffffffffffffffffffffffffffffffffff1614155b15156200014c5760006000fd5b8373ffffffffffffffffffffffffffffffffffffffff1660808173ffffffffffffffffffffffffffffffffffffffff1660601b815260140150508273ffffffffffffffffffffffffffffffffffffffff1660c08173ffffffffffffffffffffffffffffffffffffffff1660601b8152601401505081600160006101000a81548173ffffffffffffffffffffffffffffffffffffffff021916908373ffffffffffffffffffffffffffffffffffffffff16021790555060008165ffffffffffff161115156200021a5760006000fd5b8065ffffffffffff1660a08165ffffffffffff1660d01b815260060150505b50505050505b50505050508073ffffffffffffffffffffffffffffffffffffffff1660e08173ffffffffffffffffffffffffffffffffffffffff1660601b815260140150505b50505050506200043e565b8280546200029890620003dc565b90600052602060002090601f016020900481019282620002bc57600085556200030d565b82601f10620002d757805160ff19168380011785556200030d565b828001600101855582156200030d579182015b828111156200030c5782518260005090905591602001919060010190620002ea565b5b5090506200031c919062000320565b5090565b62000326565b8082111562000342576000818150600090555060010162000326565b5090566200043d565b6000600060006000600060a0868803121562000365578081fd5b8551620003728162000420565b809550506020860151620003868162000420565b8094505060408601516200039a8162000420565b80935050606086015165ffffffffffff811681141515620003b9578182fd5b809250506080860151620003cd8162000420565b809150505b9295509295909350565b60008160011c905060018216801515620003f757607f821691505b602082108114156200041957634e487b7160e01b600052602260045260246000fd5b505b919050565b6001600160a01b03811681141515620004395760006000fd5b505b565b5b60805160601c60a05160d01c60c05160601c60e05160601c6175ff620004fb6000396000818161243e01528181612cc301526145d8015260008181610d4601528181611c0401528181611ef30152818161250c01528181612783015281816127cf01528181612e040152818161342f015261480101526000818161095801526127a70152600081816112f20152818161204d01528181612db80152818161396b01528181613f8301528181614fc801526150e101526175ff6000f3fe60806040523480156100115760006000fd5b50600436106102465760003560e01c80634e9568ef11610146578063d0b8bffe116100be578063ddf0b0091161008d578063e23a9a5211610072578063e23a9a5214610689578063e3a5bcaf146106b9578063fe0d94c1146106e957610246565b8063ddf0b0091461064f578063deaaa7cc1461066b57610246565b8063d0b8bffe146105c7578063d33219b4146105e3578063da35c66414610601578063db1165111461061f57610246565b806383b0ce1511610115578063b24b7ffd116100fa578063b24b7ffd1461055b578063b58131b014610579578063c5b3116d1461059757610246565b806383b0ce151461050b578063b03401231461053d57610246565b80634e9568ef146104a9578063760fbc13146104c55780637bdbe4d0146104cf5780637e90f9ab146104ed57610246565b806329c0e5fd116101d95780633ea24796116101a8578063452a93201161018d578063452a9320146104515780634634c61f1461046f5780634c92beb71461048b57610246565b80633ea247961461040557806340e58ee51461043557610246565b806329c0e5fd14610367578063328dd982146103855780633932abb1146103b75780633e4f49e6146103d557610246565b806315373e3d1161021557806315373e3d146102df57806317977c61146102fb57806320606b701461032b57806324bc1a641461034957610246565b8063013cf08b1461024c57806302a251a314610287578063062f1466146102a557806306fdde03146102c157610246565b60006000fd5b61026660048036038101906102619190615d35565b610705565b60405161027e9c9b9a999897969594939291906166ea565b60405180910390f35b61028f610954565b60405161029c9190617283565b60405180910390f35b6102bf60048036038101906102ba9190615bcb565b610989565b005b6102c9610c56565b6040516102d691906166ce565b60405180910390f35b6102f960048036038101906102f49190615d9e565b610ce7565b005b61031560048036038101906103109190615aa4565b610d01565b6040516103229190617283565b60405180910390f35b610333610d1c565b60405161034091906165a2565b60405180910390f35b610351610d40565b60405161035e9190617283565b60405180910390f35b61036f610df8565b60405161037c9190617283565b60405180910390f35b61039f600480360381019061039a9190615d35565b610e03565b6040516103ae93929190616338565b60405180910390f35b6103bf611087565b6040516103cc9190617283565b60405180910390f35b6103ef60048036038101906103ea9190615d35565b611095565b6040516103fc91906166b5565b60405180910390f35b61041f600480360381019061041a9190615aa4565b6113c8565b60405161042c919061637d565b60405180910390f35b61044f600480360381019061044a9190615d35565b611d49565b005b610459612245565b6040516104669190616181565b60405180910390f35b61048960048036038101906104849190615dcf565b61226b565b005b61049361243c565b6040516104a0919061663d565b60405180910390f35b6104c360048036038101906104be9190615d04565b612460565b005b6104cd612465565b005b6104d76124fa565b6040516104e49190617283565b60405180910390f35b6104f5612508565b6040516105029190616181565b60405180910390f35b61052560048036038101906105209190615d35565b612535565b604051610534939291906162c9565b60405180910390f35b610545612781565b604051610552919061668d565b60405180910390f35b6105636127a5565b6040516105709190617295565b60405180910390f35b6105816127c9565b60405161058e9190617283565b60405180910390f35b6105b160048036038101906105ac9190615d6d565b612881565b6040516105be9190617283565b60405180910390f35b6105e160048036038101906105dc9190615bcb565b6128a0565b005b6105eb612db6565b6040516105f89190616665565b60405180910390f35b610609612dda565b6040516106169190617295565b60405180910390f35b61063960048036038101906106349190615afc565b612df2565b6040516106469190617283565b60405180910390f35b61066960048036038101906106649190615d35565b613883565b005b610673613ce6565b60405161068091906165a2565b60405180910390f35b6106a3600480360381019061069e9190615d6d565b613d0a565b6040516106b0919061726a565b60405180910390f35b6106d360048036038101906106ce9190615d6d565b613e36565b6040516106e0919061658e565b60405180910390f35b61070360048036038101906106fe9190615d35565b613e6b565b005b600360005060205280600052604060002060009150905080600301600050805461072e90617463565b80601f016020809104026020016040519081016040528092919081815260200182805461075a90617463565b80156107a75780601f1061077c576101008083540402835291602001916107a7565b820191906000526020600020905b81548152906001019060200180831161078a57829003601f168201915b5050505050908060040160005080546107bf90617463565b80601f01602080910402602001604051908101604052809291908181526020018280546107eb90617463565b80156108385780601f1061080d57610100808354040283529160200191610838565b820191906000526020600020905b81548152906001019060200180831161081b57829003601f168201915b5050505050908060050160009054906101000a900473ffffffffffffffffffffffffffffffffffffffff16908060050160149054906101000a900465ffffffffffff169080600501601a9054906101000a900465ffffffffffff16908060060160009054906101000a90046fffffffffffffffffffffffffffffffff16908060060160109054906101000a900465ffffffffffff16908060060160169054906101000a900465ffffffffffff169080600601601c9054906101000a900460ff169080600601601d9054906101000a900460ff16908060070160009054906101000a90046fffffffffffffffffffffffffffffffff16908060070160109054906101000a90046fffffffffffffffffffffffffffffffff1690508c565b60007f000000000000000000000000000000000000000000000000000000000000000065ffffffffffff169050610986565b90565b600060006000600090505b84849050811015610be65784848281811015156109da577f4e487b7100000000000000000000000000000000000000000000000000000000600052603260045260246000fd5b90506020020135915081506109f4826141a263ffffffff16565b1515610a35576040517f08c379a0000000000000000000000000000000000000000000000000000000008152600401610a2c90616919565b60405180910390fd5b6002600050600083815260200190815260200160002060005060003373ffffffffffffffffffffffffffffffffffffffff1673ffffffffffffffffffffffffffffffffffffffff16815260200190815260200160002060005060000160009054906101000a900460ff161515610ae0576040517f08c379a0000000000000000000000000000000000000000000000000000000008152600401610ad7906169fc565b60405180910390fd5b60006002600050600084815260200190815260200160002060005060003373ffffffffffffffffffffffffffffffffffffffff1673ffffffffffffffffffffffffffffffffffffffff16815260200190815260200160002060005090508060000160029054906101000a900460ff16151515610b91576040517f08c379a0000000000000000000000000000000000000000000000000000000008152600401610b8890616dbb565b60405180910390fd5b60018160000160026101000a81548160ff021916908315150217905550610bcd84610bc285336143aa63ffffffff16565b61456563ffffffff16565b93508350505b8080610bde906174be565b915050610994565b506000821115610c4f57610c0033836145cc63ffffffff16565b3373ffffffffffffffffffffffffffffffffffffffff167f56cd411799f8eaf36ff267057223a17836afa0a91a109fe7e102ef919e6fa19d83604051610c469190617283565b60405180910390a25b50505b5050565b60006000508054610c6690617463565b80601f0160208091040260200160405190810160405280929190818152602001828054610c9290617463565b8015610cdf5780601f10610cb457610100808354040283529160200191610cdf565b820191906000526020600020905b815481529060010190602001808311610cc257829003601f168201915b505050505081565b610cf833838361466b63ffffffff16565b610cfd565b5050565b60046000506020528060005260406000206000915090505481565b7f8cad95687ba82c2ce50e74f7b754645e5117c3a5bec8151c0726d5857980a86681565b600060287f000000000000000000000000000000000000000000000000000000000000000073ffffffffffffffffffffffffffffffffffffffff166318160ddd6040518163ffffffff1660e01b815260040160206040518083038186803b158015610dab5760006000fd5b505afa158015610dc0573d600060003e3d6000fd5b505050506040513d601f19601f82011682018060405250810190610de49190615d51565b610dee91906173cd565b9050610df5565b90565b6611c37937e0800081565b606060606060600060036000506000868152602001908152602001600020600050905080600001600050816001016000508260020160005082805480602002602001604051908101604052809291908181526020018280548015610ebc57602002820191906000526020600020905b8160009054906101000a900473ffffffffffffffffffffffffffffffffffffffff1673ffffffffffffffffffffffffffffffffffffffff1681526020019060010190808311610e72575b5050505050925081805480602002602001604051908101604052809291908181526020016000905b82821015610f95578382906000526020600020900160005b508054610f0890617463565b80601f0160208091040260200160405190810160405280929190818152602001828054610f3490617463565b8015610f815780601f10610f5657610100808354040283529160200191610f81565b820191906000526020600020905b815481529060010190602001808311610f6457829003601f168201915b505050505081526020019060010190610ee4565b50505050915080805480602002602001604051908101604052809291908181526020016000905b8282101561106d578382906000526020600020900160005b508054610fe090617463565b80601f016020809104026020016040519081016040528092919081815260200182805461100c90617463565b80156110595780601f1061102e57610100808354040283529160200191611059565b820191906000526020600020905b81548152906001019060200180831161103c57829003601f168201915b505050505081526020019060010190610fbc565b5050505090509350935093505061108056505b9193909250565b600060019050611092565b90565b600081600160149054906101000a900465ffffffffffff1665ffffffffffff16101580156110c35750600082115b1515611104576040517f08c379a00000000000000000000000000000000000000000000000000000000081526004016110fb90616997565b60405180910390fd5b600060036000506000848152602001908152602001600020600050905080600601601c9054906101000a900460ff16156111465760029150506113c3566113c1565b8060060160109054906101000a900465ffffffffffff1665ffffffffffff164311151561117b5760009150506113c3566113c0565b8060060160169054906101000a900465ffffffffffff1665ffffffffffff16431115156111b05760019150506113c3566113bf565b8060070160009054906101000a90046fffffffffffffffffffffffffffffffff166fffffffffffffffffffffffffffffffff168160060160009054906101000a90046fffffffffffffffffffffffffffffffff166fffffffffffffffffffffffffffffffff16111580611261575061122c610d4063ffffffff16565b8160060160009054906101000a90046fffffffffffffffffffffffffffffffff166fffffffffffffffffffffffffffffffff16105b156112745760039150506113c3566113be565b60008160050160149054906101000a900465ffffffffffff1665ffffffffffff1614156112a95760049150506113c3566113bd565b80600601601d9054906101000a900460ff16156112ce5760079150506113c3566113bc565b61139b8160050160149054906101000a900465ffffffffffff1665ffffffffffff167f000000000000000000000000000000000000000000000000000000000000000073ffffffffffffffffffffffffffffffffffffffff1663c1a287e26040518163ffffffff1660e01b815260040160206040518083038186803b1580156113575760006000fd5b505afa15801561136c573d600060003e3d6000fd5b505050506040513d601f19601f820116820180604052508101906113909190615d51565b61456563ffffffff16565b421015156113b15760069150506113c3566113bb565b60059150506113c3565b5b5b5b5b5b5b505b919050565b6060600160149054906101000a900465ffffffffffff1665ffffffffffff1667ffffffffffffffff811115611426577f4e487b7100000000000000000000000000000000000000000000000000000000600052604160045260246000fd5b60405190808252806020026020018201604052801561145f57816020015b61144c61537f565b8152602001906001900390816114445790505b50905080506000600090505b600160149054906101000a900465ffffffffffff1665ffffffffffff168165ffffffffffff161015611d3b5760006001826114a6919061739c565b65ffffffffffff169050600060036000506000838152602001908152602001600020600050604051806101e00160405290816000820160005080548060200260200160405190810160405280929190818152602001828054801561155f57602002820191906000526020600020905b8160009054906101000a900473ffffffffffffffffffffffffffffffffffffffff1673ffffffffffffffffffffffffffffffffffffffff1681526020019060010190808311611515575b5050505050815260200160018201600050805480602002602001604051908101604052809291908181526020016000905b82821015611641578382906000526020600020900160005b5080546115b490617463565b80601f01602080910402602001604051908101604052809291908181526020018280546115e090617463565b801561162d5780601f106116025761010080835404028352916020019161162d565b820191906000526020600020905b81548152906001019060200180831161161057829003601f168201915b505050505081526020019060010190611590565b50505050815260200160028201600050805480602002602001604051908101604052809291908181526020016000905b82821015611722578382906000526020600020900160005b50805461169590617463565b80601f01602080910402602001604051908101604052809291908181526020018280546116c190617463565b801561170e5780601f106116e35761010080835404028352916020019161170e565b820191906000526020600020905b8154815290600101906020018083116116f157829003601f168201915b505050505081526020019060010190611671565b50505050815260200160038201600050805461173d90617463565b80601f016020809104026020016040519081016040528092919081815260200182805461176990617463565b80156117b65780601f1061178b576101008083540402835291602001916117b6565b820191906000526020600020905b81548152906001019060200180831161179957829003601f168201915b505050505081526020016004820160005080546117d290617463565b80601f01602080910402602001604051908101604052809291908181526020018280546117fe90617463565b801561184b5780601f106118205761010080835404028352916020019161184b565b820191906000526020600020905b81548152906001019060200180831161182e57829003601f168201915b505050505081526020016005820160009054906101000a900473ffffffffffffffffffffffffffffffffffffffff1673ffffffffffffffffffffffffffffffffffffffff1673ffffffffffffffffffffffffffffffffffffffff1681526020016005820160149054906101000a900465ffffffffffff1665ffffffffffff1665ffffffffffff16815260200160058201601a9054906101000a900465ffffffffffff1665ffffffffffff1665ffffffffffff1681526020016006820160009054906101000a90046fffffffffffffffffffffffffffffffff166fffffffffffffffffffffffffffffffff166fffffffffffffffffffffffffffffffff1681526020016006820160109054906101000a900465ffffffffffff1665ffffffffffff1665ffffffffffff1681526020016006820160169054906101000a900465ffffffffffff1665ffffffffffff1665ffffffffffff16815260200160068201601c9054906101000a900460ff1615151515815260200160068201601d9054906101000a900460ff161515151581526020016007820160009054906101000a90046fffffffffffffffffffffffffffffffff166fffffffffffffffffffffffffffffffff166fffffffffffffffffffffffffffffffff1681526020016007820160109054906101000a90046fffffffffffffffffffffffffffffffff166fffffffffffffffffffffffffffffffff166fffffffffffffffffffffffffffffffff1681526020015050905060405180610260016040528082600001518152602001826020015181526020018260400151815260200182606001518152602001826080015181526020018260a0015173ffffffffffffffffffffffffffffffffffffffff1681526020018260c0015165ffffffffffff1681526020018260e0015165ffffffffffff1681526020018261010001516fffffffffffffffffffffffffffffffff16815260200182610120015165ffffffffffff16815260200182610140015165ffffffffffff1681526020018261016001511515815260200182610180015115158152602001826101a001516fffffffffffffffffffffffffffffffff168152602001826101c001516fffffffffffffffffffffffffffffffff168152602001611b9b8461109563ffffffff16565b6007811115611bd3577f4e487b7100000000000000000000000000000000000000000000000000000000600052602160045260246000fd5b8152602001611be88488613d0a63ffffffff16565b81526020014383610120015165ffffffffffff161015611cb9577f000000000000000000000000000000000000000000000000000000000000000073ffffffffffffffffffffffffffffffffffffffff1663782d6fe1888561012001516040518363ffffffff1660e01b8152600401611c62929190616301565b60206040518083038186803b158015611c7b5760006000fd5b505afa158015611c90573d600060003e3d6000fd5b505050506040513d601f19601f82011682018060405250810190611cb49190615d51565b611cbc565b60005b8152602001611cd184886143aa63ffffffff16565b815260200150848465ffffffffffff16815181101515611d1a577f4e487b7100000000000000000000000000000000000000000000000000000000600052603260045260246000fd5b602002602001018190525050505b8080611d33906174fd565b91505061146b565b50809050611d44565b919050565b60076007811115611d83577f4e487b7100000000000000000000000000000000000000000000000000000000600052602160045260246000fd5b611d928261109563ffffffff16565b6007811115611dca577f4e487b7100000000000000000000000000000000000000000000000000000000600052602160045260246000fd5b14151515611e0d576040517f08c379a0000000000000000000000000000000000000000000000000000000008152600401611e0490617122565b60405180910390fd5b60006003600050600083815260200190815260200160002060005090508060060160169054906101000a900465ffffffffffff1665ffffffffffff1643101515611e8c576040517f08c379a0000000000000000000000000000000000000000000000000000000008152600401611e8390616e85565b60405180910390fd5b600160009054906101000a900473ffffffffffffffffffffffffffffffffffffffff1673ffffffffffffffffffffffffffffffffffffffff163373ffffffffffffffffffffffffffffffffffffffff161480611fd45750611ef16127c963ffffffff16565b7f000000000000000000000000000000000000000000000000000000000000000073ffffffffffffffffffffffffffffffffffffffff1663782d6fe18360050160009054906101000a900473ffffffffffffffffffffffffffffffffffffffff16611f63436001614b9a63ffffffff16565b6040518363ffffffff1660e01b8152600401611f80929190616259565b60206040518083038186803b158015611f995760006000fd5b505afa158015611fae573d600060003e3d6000fd5b505050506040513d601f19601f82011682018060405250810190611fd29190615d51565b105b1515612015576040517f08c379a000000000000000000000000000000000000000000000000000000000815260040161200c90616d56565b60405180910390fd5b600181600601601c6101000a81548160ff0219169083151502179055506000600090505b8160000160005080549050811015612212577f000000000000000000000000000000000000000000000000000000000000000073ffffffffffffffffffffffffffffffffffffffff16624b1f1283600001600050838154811015156120c7577f4e487b7100000000000000000000000000000000000000000000000000000000600052603260045260246000fd5b906000526020600020900160005b9054906101000a900473ffffffffffffffffffffffffffffffffffffffff168460010160005084815481101515612135577f4e487b7100000000000000000000000000000000000000000000000000000000600052603260045260246000fd5b906000526020600020900160005b508560020160005085815481101515612185577f4e487b7100000000000000000000000000000000000000000000000000000000600052603260045260246000fd5b906000526020600020900160005b508660050160149054906101000a900465ffffffffffff166040518563ffffffff1660e01b81526004016121ca94939291906161fd565b600060405180830381600087803b1580156121e55760006000fd5b505af11580156121fa573d600060003e3d6000fd5b505050505b808061220a906174be565b915050612039565b50817f789cf55be980739dad1d0699b93b58e806b51c9d96619bfa8fe0a28abaa7b30c60405160405180910390a2505b50565b600160009054906101000a900473ffffffffffffffffffffffffffffffffffffffff1681565b60007f8cad95687ba82c2ce50e74f7b754645e5117c3a5bec8151c0726d5857980a86660006000506040516122a091906160ab565b604051809103902046306040516020016122bd94939291906165b4565b60405160208183030381529060405280519060200120905060007f8e25870c07e0b0b3884c78da52790939a455c275406c44ae8b434b692fb916ee878760405160200161230c939291906165f1565b60405160208183030381529060405280519060200120905060008282604051602001612339929190616142565b6040516020818303038152906040528051906020012090506000600182888888604051600081526020016040526040516123769493929190616613565b6020604051602081039080840390855afa158015612399573d600060003e3d6000fd5b505050602060405103519050600073ffffffffffffffffffffffffffffffffffffffff168173ffffffffffffffffffffffffffffffffffffffff1614151515612417576040517f08c379a000000000000000000000000000000000000000000000000000000000815260040161240e90616ff3565b60405180910390fd5b612428818a8a61466b63ffffffff16565b5050505061243556505050505b5050505050565b7f000000000000000000000000000000000000000000000000000000000000000081565b5b5050565b61247433614bfa63ffffffff16565b15156124b5576040517f08c379a00000000000000000000000000000000000000000000000000000000081526004016124ac90616a7a565b60405180910390fd5b6000600160006101000a81548173ffffffffffffffffffffffffffffffffffffffff021916908373ffffffffffffffffffffffffffffffffffffffff1602179055505b565b6000600a9050612505565b90565b60007f00000000000000000000000000000000000000000000000000000000000000009050612532565b90565b60006000600061254a846141a263ffffffff16565b151561258b576040517f08c379a000000000000000000000000000000000000000000000000000000000815260040161258290616919565b60405180910390fd5b61259a84614c0a63ffffffff16565b15156125db576040517f08c379a00000000000000000000000000000000000000000000000000000000081526004016125d290616b1e565b60405180910390fd5b60006003600050600086815260200190815260200160002060005060060160009054906101000a90046fffffffffffffffffffffffffffffffff16905060006003600050600087815260200190815260200160002060005060070160009054906101000a90046fffffffffffffffffffffffffffffffff169050806fffffffffffffffffffffffffffffffff16826fffffffffffffffffffffffffffffffff161192508250826126ed57612693610d4063ffffffff16565b816fffffffffffffffffffffffffffffffff161115156126e8576040517f08c379a00000000000000000000000000000000000000000000000000000000081526004016126df906168da565b60405180910390fd5b612751565b6126fb610d4063ffffffff16565b826fffffffffffffffffffffffffffffffff16111515612750576040517f08c379a000000000000000000000000000000000000000000000000000000000815260040161274790616a3b565b60405180910390fd5b5b61276086614d7363ffffffff16565b8095508196505050848484945094509450505061277a5650505b9193909250565b7f000000000000000000000000000000000000000000000000000000000000000081565b7f000000000000000000000000000000000000000000000000000000000000000081565b600060c87f000000000000000000000000000000000000000000000000000000000000000073ffffffffffffffffffffffffffffffffffffffff166318160ddd6040518163ffffffff1660e01b815260040160206040518083038186803b1580156128345760006000fd5b505afa158015612849573d600060003e3d6000fd5b505050506040513d601f19601f8201168201806040525081019061286d9190615d51565b61287791906173cd565b905061287e565b90565b600061289383836143aa63ffffffff16565b905061289a565b92915050565b6000600090505b82829050811015612db057600083838381811015156128ef577f4e487b7100000000000000000000000000000000000000000000000000000000600052603260045260246000fd5b905060200201359050612907816141a263ffffffff16565b1515612948576040517f08c379a000000000000000000000000000000000000000000000000000000000815260040161293f90616919565b60405180910390fd5b61295781614c0a63ffffffff16565b1515612998576040517f08c379a000000000000000000000000000000000000000000000000000000000815260040161298f90616b1e565b60405180910390fd5b6002600050600082815260200190815260200160002060005060003373ffffffffffffffffffffffffffffffffffffffff1673ffffffffffffffffffffffffffffffffffffffff16815260200190815260200160002060005060000160009054906101000a900460ff161515612a43576040517f08c379a0000000000000000000000000000000000000000000000000000000008152600401612a3a906169fc565b60405180910390fd5b6005600050600082815260200190815260200160002060005060003373ffffffffffffffffffffffffffffffffffffffff1673ffffffffffffffffffffffffffffffffffffffff16815260200190815260200160002060009054906101000a900460ff16151515612ae9576040517f08c379a0000000000000000000000000000000000000000000000000000000008152600401612ae090616c8c565b60405180910390fd5b60016005600050600083815260200190815260200160002060005060003373ffffffffffffffffffffffffffffffffffffffff1673ffffffffffffffffffffffffffffffffffffffff16815260200190815260200160002060006101000a81548160ff02191690831515021790555060006000612b6b83614d7363ffffffff16565b915091506000612cbf612c186003600050600087815260200190815260200160002060005060060160009054906101000a90046fffffffffffffffffffffffffffffffff166fffffffffffffffffffffffffffffffff166003600050600088815260200190815260200160002060005060070160009054906101000a90046fffffffffffffffffffffffffffffffff166fffffffffffffffffffffffffffffffff1661456563ffffffff16565b6002600050600087815260200190815260200160002060005060003373ffffffffffffffffffffffffffffffffffffffff1673ffffffffffffffffffffffffffffffffffffffff16815260200190815260200160002060005060000160039054906101000a900476ffffffffffffffffffffffffffffffffffffffffffffff1676ffffffffffffffffffffffffffffffffffffffffffffff16614e8d90919063ffffffff16565b90507f000000000000000000000000000000000000000000000000000000000000000073ffffffffffffffffffffffffffffffffffffffff1663b9f8ea6d848433856040518563ffffffff1660e01b8152600401612d209493929190616288565b600060405180830381600087803b158015612d3b5760006000fd5b505af1158015612d50573d600060003e3d6000fd5b50505050833373ffffffffffffffffffffffffffffffffffffffff167f28df778d69fdf2ff5a7357c6ab2ed2b2366966f5baf183da0e39b42577c6bc7c60405160405180910390a3505050505b8080612da8906174be565b9150506128a7565b505b5050565b7f000000000000000000000000000000000000000000000000000000000000000081565b600160149054906101000a900465ffffffffffff1681565b6000612e026127c963ffffffff16565b7f000000000000000000000000000000000000000000000000000000000000000073ffffffffffffffffffffffffffffffffffffffff1663782d6fe133612e50436001614b9a63ffffffff16565b6040518363ffffffff1660e01b8152600401612e6d929190616259565b60206040518083038186803b158015612e865760006000fd5b505afa158015612e9b573d600060003e3d6000fd5b505050506040513d601f19601f82011682018060405250810190612ebf9190615d51565b111515612f01576040517f08c379a0000000000000000000000000000000000000000000000000000000008152600401612ef890616f8e565b60405180910390fd5b84518651148015612f13575083518651145b1515612f54576040517f08c379a0000000000000000000000000000000000000000000000000000000008152600401612f4b90616ccb565b60405180910390fd5b60008651111515612f9a576040517f08c379a0000000000000000000000000000000000000000000000000000000008152600401612f9190616f29565b60405180910390fd5b612fa86124fa63ffffffff16565b865111151515612fed576040517f08c379a0000000000000000000000000000000000000000000000000000000008152600401612fe490616be8565b60405180910390fd5b6000600460005060003373ffffffffffffffffffffffffffffffffffffffff1673ffffffffffffffffffffffffffffffffffffffff16815260200190815260200160002060005054905060008111156131c15760006130518261109563ffffffff16565b90506001600781111561308d577f4e487b7100000000000000000000000000000000000000000000000000000000600052602160045260246000fd5b8160078111156130c6577f4e487b7100000000000000000000000000000000000000000000000000000000600052602160045260246000fd5b14151515613109576040517f08c379a000000000000000000000000000000000000000000000000000000000815260040161310090617058565b60405180910390fd5b60006007811115613143577f4e487b7100000000000000000000000000000000000000000000000000000000600052602160045260246000fd5b81600781111561317c577f4e487b7100000000000000000000000000000000000000000000000000000000600052602160045260246000fd5b141515156131bf576040517f08c379a00000000000000000000000000000000000000000000000000000000081526004016131b690616b5d565b60405180910390fd5b505b6000600090505b865181101561327957613265888281518110151561320f577f4e487b7100000000000000000000000000000000000000000000000000000000600052603260045260246000fd5b60200260200101518883815181101515613252577f4e487b7100000000000000000000000000000000000000000000000000000000600052603260045260246000fd5b6020026020010151614eb363ffffffff16565b5b8080613271906174be565b9150506131c8565b5060006132994361328e61108763ffffffff16565b61456563ffffffff16565b905060006132ba826132af61095463ffffffff16565b61456563ffffffff16565b90506001601481819054906101000a900465ffffffffffff16809291906132e0906174fd565b91906101000a81548165ffffffffffff021916908365ffffffffffff160217905550506601000000000000600160149054906101000a900465ffffffffffff1665ffffffffffff161015156133355760006000fd5b6000604051806101e001604052808b81526020018a81526020018981526020018881526020018781526020013373ffffffffffffffffffffffffffffffffffffffff168152602001600065ffffffffffff168152602001600160149054906101000a900465ffffffffffff1665ffffffffffff16815260200160006fffffffffffffffffffffffffffffffff1681526020016133d685614f0863ffffffff16565b65ffffffffffff1681526020016133f284614f0863ffffffff16565b65ffffffffffff16815260200160001515815260200160001515815260200160006fffffffffffffffffffffffffffffffff1681526020016134d87f000000000000000000000000000000000000000000000000000000000000000073ffffffffffffffffffffffffffffffffffffffff166318160ddd6040518163ffffffff1660e01b815260040160206040518083038186803b1580156134945760006000fd5b505afa1580156134a9573d600060003e3d6000fd5b505050506040513d601f19601f820116820180604052508101906134cd9190615d51565b614f6263ffffffff16565b6fffffffffffffffffffffffffffffffff16815260200150905080600360005060008360e0015165ffffffffffff16815260200190815260200160002060005060008201518160000160005090805190602001906135379291906154c2565b50602082015181600101600050908051906020019061355792919061554c565b5060408201518160020160005090805190602001906135779291906155ac565b50606082015181600301600050908051906020019061359792919061560c565b5060808201518160040160005090805190602001906135b792919061560c565b5060a08201518160050160006101000a81548173ffffffffffffffffffffffffffffffffffffffff021916908373ffffffffffffffffffffffffffffffffffffffff16021790555060c08201518160050160146101000a81548165ffffffffffff021916908365ffffffffffff16021790555060e082015181600501601a6101000a81548165ffffffffffff021916908365ffffffffffff1602179055506101008201518160060160006101000a8154816fffffffffffffffffffffffffffffffff02191690836fffffffffffffffffffffffffffffffff1602179055506101208201518160060160106101000a81548165ffffffffffff021916908365ffffffffffff1602179055506101408201518160060160166101000a81548165ffffffffffff021916908365ffffffffffff16021790555061016082015181600601601c6101000a81548160ff02191690831515021790555061018082015181600601601d6101000a81548160ff0219169083151502179055506101a08201518160070160006101000a8154816fffffffffffffffffffffffffffffffff02191690836fffffffffffffffffffffffffffffffff1602179055506101c08201518160070160106101000a8154816fffffffffffffffffffffffffffffffff02191690836fffffffffffffffffffffffffffffffff1602179055509050508060e0015165ffffffffffff16600460005060008360a0015173ffffffffffffffffffffffffffffffffffffffff1673ffffffffffffffffffffffffffffffffffffffff1681526020019081526020016000206000508190909055503373ffffffffffffffffffffffffffffffffffffffff168160e0015165ffffffffffff167fcd423cc1203c0af96b9b3d68d73b3064a69de2d14450bb7181c5e5df2132b35860405160405180910390a38060e0015165ffffffffffff1694505050505061387a56505050505b95945050505050565b600460078111156138bd577f4e487b7100000000000000000000000000000000000000000000000000000000600052602160045260246000fd5b6138cc8261109563ffffffff16565b6007811115613904577f4e487b7100000000000000000000000000000000000000000000000000000000600052602160045260246000fd5b141515613946576040517f08c379a000000000000000000000000000000000000000000000000000000000815260040161393d906167c4565b60405180910390fd5b60006003600050600083815260200190815260200160002060005090506000613a14427f000000000000000000000000000000000000000000000000000000000000000073ffffffffffffffffffffffffffffffffffffffff16636a42b8f86040518163ffffffff1660e01b815260040160206040518083038186803b1580156139d05760006000fd5b505afa1580156139e5573d600060003e3d6000fd5b505050506040513d601f19601f82011682018060405250810190613a099190615d51565b61456563ffffffff16565b90506000600090505b8260000160005080549050811015613c7257613c5e8360000160005082815481101515613a73577f4e487b7100000000000000000000000000000000000000000000000000000000600052603260045260246000fd5b906000526020600020900160005b9054906101000a900473ffffffffffffffffffffffffffffffffffffffff168460010160005083815481101515613ae1577f4e487b7100000000000000000000000000000000000000000000000000000000600052603260045260246000fd5b906000526020600020900160005b508054613afb90617463565b80601f0160208091040260200160405190810160405280929190818152602001828054613b2790617463565b8015613b745780601f10613b4957610100808354040283529160200191613b74565b820191906000526020600020905b815481529060010190602001808311613b5757829003601f168201915b50505050508560020160005084815481101515613bba577f4e487b7100000000000000000000000000000000000000000000000000000000600052603260045260246000fd5b906000526020600020900160005b508054613bd490617463565b80601f0160208091040260200160405190810160405280929190818152602001828054613c0090617463565b8015613c4d5780601f10613c2257610100808354040283529160200191613c4d565b820191906000526020600020905b815481529060010190602001808311613c3057829003601f168201915b505050505085614fc663ffffffff16565b5b8080613c6a906174be565b915050613a1d565b50613c8281614f0863ffffffff16565b8260050160146101000a81548165ffffffffffff021916908365ffffffffffff160217905550827f9a2e42fd6722813d69113e7d0079d3d940171428df7373df9c7f7617cfda289282604051613cd89190617283565b60405180910390a250505b50565b7f8e25870c07e0b0b3884c78da52790939a455c275406c44ae8b434b692fb916ee81565b613d12615697565b6002600050600084815260200190815260200160002060005060008373ffffffffffffffffffffffffffffffffffffffff1673ffffffffffffffffffffffffffffffffffffffff1681526020019081526020016000206000506040518060800160405290816000820160009054906101000a900460ff161515151581526020016000820160019054906101000a900460ff161515151581526020016000820160029054906101000a900460ff161515151581526020016000820160039054906101000a900476ffffffffffffffffffffffffffffffffffffffffffffff1676ffffffffffffffffffffffffffffffffffffffffffffff1676ffffffffffffffffffffffffffffffffffffffffffffff16815260200150509050613e30565b92915050565b60056000506020528160005260406000206000506020528060005260406000206000915091509054906101000a900460ff1681565b60056007811115613ea5577f4e487b7100000000000000000000000000000000000000000000000000000000600052602160045260246000fd5b613eb48261109563ffffffff16565b6007811115613eec577f4e487b7100000000000000000000000000000000000000000000000000000000600052602160045260246000fd5b141515613f2e576040517f08c379a0000000000000000000000000000000000000000000000000000000008152600401613f259061684f565b60405180910390fd5b6000600360005060008381526020019081526020016000206000509050600181600601601d6101000a81548160ff0219169083151502179055506000600090505b816000016000508054905081101561416f577f000000000000000000000000000000000000000000000000000000000000000073ffffffffffffffffffffffffffffffffffffffff16633ec5ab328360000160005083815481101515613ffe577f4e487b7100000000000000000000000000000000000000000000000000000000600052603260045260246000fd5b906000526020600020900160005b9054906101000a900473ffffffffffffffffffffffffffffffffffffffff16846001016000508481548110151561406c577f4e487b7100000000000000000000000000000000000000000000000000000000600052603260045260246000fd5b906000526020600020900160005b5085600201600050858154811015156140bc577f4e487b7100000000000000000000000000000000000000000000000000000000600052603260045260246000fd5b906000526020600020900160005b508660050160149054906101000a900465ffffffffffff166040518563ffffffff1660e01b815260040161410194939291906161fd565b600060405180830381600087803b15801561411c5760006000fd5b505af1158015614131573d600060003e3d6000fd5b505050506040513d6000823e3d601f19601f8201168201806040525081019061415a9190615c83565b505b8080614167906174be565b915050613f6f565b50817f712ae1383f79ac853f8d882153778e0260ef8f03b504e2866e0593e04d2b291f60405160405180910390a2505b50565b600060006141b58361109563ffffffff16565b9050600460078111156141f1577f4e487b7100000000000000000000000000000000000000000000000000000000600052602160045260246000fd5b81600781111561422a577f4e487b7100000000000000000000000000000000000000000000000000000000600052602160045260246000fd5b14806142a657506003600781111561426b577f4e487b7100000000000000000000000000000000000000000000000000000000600052602160045260246000fd5b8160078111156142a4577f4e487b7100000000000000000000000000000000000000000000000000000000600052602160045260246000fd5b145b806143215750600560078111156142e6577f4e487b7100000000000000000000000000000000000000000000000000000000600052602160045260246000fd5b81600781111561431f577f4e487b7100000000000000000000000000000000000000000000000000000000600052602160045260246000fd5b145b8061439c575060076007811115614361577f4e487b7100000000000000000000000000000000000000000000000000000000600052602160045260246000fd5b81600781111561439a577f4e487b7100000000000000000000000000000000000000000000000000000000600052602160045260246000fd5b145b9150506143a556505b919050565b60006000600360005060008581526020019081526020016000206000509050600061443f8260060160009054906101000a90046fffffffffffffffffffffffffffffffff166fffffffffffffffffffffffffffffffff168360070160009054906101000a90046fffffffffffffffffffffffffffffffff166fffffffffffffffffffffffffffffffff1661456563ffffffff16565b905060008114156144555760009250505061455f565b60006144a36611c37937e080008460070160109054906101000a90046fffffffffffffffffffffffffffffffff166fffffffffffffffffffffffffffffffff1661519a90919063ffffffff16565b90506145526002600050600088815260200190815260200160002060005060008773ffffffffffffffffffffffffffffffffffffffff1673ffffffffffffffffffffffffffffffffffffffff16815260200190815260200160002060005060000160039054906101000a900476ffffffffffffffffffffffffffffffffffffffffffffff1676ffffffffffffffffffffffffffffffffffffffffffffff1683836151c09092919063ffffffff16565b935050505061455f565050505b92915050565b600060008284614575919061737c565b90508381101515156145bc576040517f08c379a00000000000000000000000000000000000000000000000000000000081526004016145b390616c4d565b60405180910390fd5b809150506145c656505b92915050565b600081141515614666577f000000000000000000000000000000000000000000000000000000000000000073ffffffffffffffffffffffffffffffffffffffff16630793298783836040518363ffffffff1660e01b8152600401614631929190616259565b600060405180830381600087803b15801561464c5760006000fd5b505af1158015614661573d600060003e3d6000fd5b505050505b5b5050565b600160078111156146a5577f4e487b7100000000000000000000000000000000000000000000000000000000600052602160045260246000fd5b6146b48361109563ffffffff16565b60078111156146ec577f4e487b7100000000000000000000000000000000000000000000000000000000600052602160045260246000fd5b14151561472e576040517f08c379a000000000000000000000000000000000000000000000000000000000815260040161472590617187565b60405180910390fd5b6000600360005060008481526020019081526020016000206000509050600015156002600050600085815260200190815260200160002060005060008673ffffffffffffffffffffffffffffffffffffffff1673ffffffffffffffffffffffffffffffffffffffff16815260200190815260200160002060005060000160009054906101000a900460ff1615151415156147fd576040517f08c379a00000000000000000000000000000000000000000000000000000000081526004016147f490616ab9565b60405180910390fd5b60007f000000000000000000000000000000000000000000000000000000000000000073ffffffffffffffffffffffffffffffffffffffff1663782d6fe1868460060160109054906101000a900465ffffffffffff166040518363ffffffff1660e01b8152600401614870929190616301565b60206040518083038186803b1580156148895760006000fd5b505afa15801561489e573d600060003e3d6000fd5b505050506040513d601f19601f820116820180604052508101906148c29190615d51565b905082156149595761491a61490f8360060160009054906101000a90046fffffffffffffffffffffffffffffffff166fffffffffffffffffffffffffffffffff168361456563ffffffff16565b614f6263ffffffff16565b8260060160006101000a8154816fffffffffffffffffffffffffffffffff02191690836fffffffffffffffffffffffffffffffff1602179055506149e4565b6149a961499e8360070160009054906101000a90046fffffffffffffffffffffffffffffffff166fffffffffffffffffffffffffffffffff168361456563ffffffff16565b614f6263ffffffff16565b8260070160006101000a8154816fffffffffffffffffffffffffffffffff02191690836fffffffffffffffffffffffffffffffff1602179055505b60405180608001604052806001151581526020018415158152602001600015158152602001614a18836152e463ffffffff16565b76ffffffffffffffffffffffffffffffffffffffffffffff168152602001506002600050600086815260200190815260200160002060005060008773ffffffffffffffffffffffffffffffffffffffff1673ffffffffffffffffffffffffffffffffffffffff16815260200190815260200160002060005060008201518160000160006101000a81548160ff02191690831515021790555060208201518160000160016101000a81548160ff02191690831515021790555060408201518160000160026101000a81548160ff02191690831515021790555060608201518160000160036101000a81548176ffffffffffffffffffffffffffffffffffffffffffffff021916908376ffffffffffffffffffffffffffffffffffffffffffffff160217905550905050821515848673ffffffffffffffffffffffffffffffffffffffff167f877856338e13f63d0c36822ff0ef736b80934cd90574a3a5bc9262c39d217c4684604051614b8a9190617283565b60405180910390a450505b505050565b6000828211151515614be1576040517f08c379a0000000000000000000000000000000000000000000000000000000008152600401614bd89061722b565b60405180910390fd5b8183614bed919061740f565b9050614bf4565b92915050565b600060019050614c05565b919050565b6000600060006000614c2185610e0363ffffffff16565b92509250925060018351148015614c39575060018251145b8015614c46575060018151145b8015614cc057503073ffffffffffffffffffffffffffffffffffffffff16836000815181101515614ca0577f4e487b7100000000000000000000000000000000000000000000000000000000600052603260045260246000fd5b602002602001015173ffffffffffffffffffffffffffffffffffffffff16145b8015614d615750634e9568ef60e01b7bffffffffffffffffffffffffffffffffffffffffffffffffffffffff1916614d40836000815181101515614d2d577f4e487b7100000000000000000000000000000000000000000000000000000000600052603260045260246000fd5b602002602001015161534f63ffffffff16565b7bffffffffffffffffffffffffffffffffffffffffffffffffffffffff1916145b9350505050614d6e565050505b919050565b60006000600360005060008481526020019081526020016000206000506002016000506000815481101515614dd1577f4e487b7100000000000000000000000000000000000000000000000000000000600052603260045260246000fd5b906000526020600020900160005b508054614deb90617463565b80601f0160208091040260200160405190810160405280929190818152602001828054614e1790617463565b8015614e645780601f10614e3957610100808354040283529160200191614e64565b820191906000526020600020905b815481529060010190602001808311614e4757829003601f168201915b5050505050806020019051810190614e7c9190615acb565b81915091509150614e88565b915091565b6000614ea883670de0b6b3a7640000846151c063ffffffff16565b905080505b92915050565b614ec28261536563ffffffff16565b1515614f03576040517f08c379a0000000000000000000000000000000000000000000000000000000008152600401614efa90616eea565b60405180910390fd5b5b5050565b6000660100000000000082101515614f55576040517f08c379a0000000000000000000000000000000000000000000000000000000008152600401614f4c906170e3565b60405180910390fd5b819050614f5d565b919050565b600070010000000000000000000000000000000082101515614fb9576040517f08c379a0000000000000000000000000000000000000000000000000000000008152600401614fb090616958565b60405180910390fd5b819050614fc1565b919050565b7f000000000000000000000000000000000000000000000000000000000000000073ffffffffffffffffffffffffffffffffffffffff1663f2b065378585858560405160200161501994939291906161a9565b604051602081830303815290604052805190602001206040518263ffffffff1660e01b815260040161504b91906165a2565b60206040518083038186803b1580156150645760006000fd5b505afa158015615079573d600060003e3d6000fd5b505050506040513d601f19601f8201168201806040525081019061509d9190615c40565b1515156150df576040517f08c379a00000000000000000000000000000000000000000000000000000000081526004016150d690616dfa565b60405180910390fd5b7f000000000000000000000000000000000000000000000000000000000000000073ffffffffffffffffffffffffffffffffffffffff16630e70eace858585856040518563ffffffff1660e01b815260040161513e94939291906161a9565b602060405180830381600087803b1580156151595760006000fd5b505af115801561516e573d600060003e3d6000fd5b505050506040513d601f19601f820116820180604052508101906151929190615c67565b505b50505050565b60006151b58383670de0b6b3a76400006151c063ffffffff16565b905080505b92915050565b6000600060006000198587098587029250828110838203039150506000811415615203576000841115156151f45760006000fd5b838204925082925050506152dd565b80841115156152125760006000fd5b60008486880990508281118203915080830392506000856001877fffffffffffffffffffffffffffffffffffffffffffffffffffffffffffffffff0301169050805080860495508084049350600181826000030401905080830284179350835060006002876003021890508087026002038102905080508087026002038102905080508087026002038102905080508087026002038102905080508087026002038102905080508087026002038102905080508085029550855050849450505050506152dd56505050505b9392505050565b60007701000000000000000000000000000000000000000000000082101515615342576040517f08c379a0000000000000000000000000000000000000000000000000000000008152600401615339906171ec565b60405180910390fd5b81905061534a565b919050565b600081805190602001209050615360565b919050565b60006000823b90506000811191505061537a56505b919050565b6040518061026001604052806060815260200160608152602001606081526020016060815260200160608152602001600073ffffffffffffffffffffffffffffffffffffffff168152602001600065ffffffffffff168152602001600065ffffffffffff16815260200160006fffffffffffffffffffffffffffffffff168152602001600065ffffffffffff168152602001600065ffffffffffff16815260200160001515815260200160001515815260200160006fffffffffffffffffffffffffffffffff16815260200160006fffffffffffffffffffffffffffffffff1681526020016000600781111561549e577f4e487b7100000000000000000000000000000000000000000000000000000000600052602160045260246000fd5b81526020016154ab615697565b815260200160008152602001600081526020015090565b82805482825590600052602060002090810192821561553b579160200282015b8281111561553a5782518260006101000a81548173ffffffffffffffffffffffffffffffffffffffff021916908373ffffffffffffffffffffffffffffffffffffffff160217905550916020019190600101906154e2565b5b50905061554891906156e1565b5090565b82805482825590600052602060002090810192821561559b579160200282015b8281111561559a57825182908051906020019061558a92919061560c565b509160200191906001019061556c565b5b5090506155a89190615704565b5090565b8280548282559060005260206000209081019282156155fb579160200282015b828111156155fa5782518290805190602001906155ea92919061572c565b50916020019190600101906155cc565b5b50905061560891906157b7565b5090565b82805461561890617463565b90600052602060002090601f01602090048101928261563a5760008555615686565b82601f1061565357805160ff1916838001178555615686565b82800160010185558215615686579182015b828111156156855782518260005090905591602001919060010190615665565b5b50905061569391906156e1565b5090565b6040518060800160405280600015158152602001600015158152602001600015158152602001600076ffffffffffffffffffffffffffffffffffffffffffffff1681526020015090565b6156e6565b8082111561570057600081815060009055506001016156e6565b5090565b615709565b80821115615728576000818161571f91906157df565b50600101615709565b5090565b82805461573890617463565b90600052602060002090601f01602090048101928261575a57600085556157a6565b82601f1061577357805160ff19168380011785556157a6565b828001600101855582156157a6579182015b828111156157a55782518260005090905591602001919060010190615785565b5b5090506157b391906156e1565b5090565b6157bc565b808211156157db57600081816157d2919061581f565b506001016157bc565b5090565b5080546157eb90617463565b6000825580601f106157fd575061581c565b601f01602090049060005260206000209081019061581b91906156e1565b5b50565b50805461582b90617463565b6000825580601f1061583d575061585c565b601f01602090049060005260206000209081019061585b91906156e1565b5b50566175c8565b600061587661587184617330565b6172af565b905082815283838301111561588b5760006000fd5b828260208301376000602084830101525b9392505050565b600082601f83011215156158b5578081fd5b813560206158ca6158c583617306565b6172af565b80838252828201915082860187848660051b89010111156158e9578586fd5b855b858110156159185781356158fe8161758a565b80855250848401935084820191505b6001810190506158eb565b5050809450505050505b92915050565b600082601f830112151561593a578081fd5b8135602061594f61594a83617306565b6172af565b80838252828201915082860187848660051b890101111561596e578586fd5b855b858110156159cd57813567ffffffffffffffff81111561598e578788fd5b808901905089603f82011215156159a3578788fd5b6159b48a8783013560408401615863565b855250848401935084820191505b600181019050615970565b5050809450505050505b92915050565b600082601f83011215156159ef578081fd5b81356020615a046159ff83617306565b6172af565b80838252828201915082860187848660051b8901011115615a23578586fd5b855b85811015615a6a57813567ffffffffffffffff811115615a43578788fd5b615a518a87838c0101615a7a565b855250848401935084820191505b600181019050615a25565b5050809450505050505b92915050565b600082601f8301121515615a8c578081fd5b615a9b83833560208501615863565b90505b92915050565b600060208284031215615ab5578081fd5b8135615ac08161758a565b809150505b92915050565b6000600060408385031215615ade578081fd5b8251615ae98161758a565b80925050602083015190505b9250929050565b6000600060006000600060a08688031215615b15578081fd5b853567ffffffffffffffff80821115615b2c578283fd5b615b3889838a016158a3565b96506020880135915080821115615b4d578283fd5b615b5989838a016159dd565b95506040880135915080821115615b6e578283fd5b615b7a89838a01615928565b94506060880135915080821115615b8f578283fd5b615b9b89838a01615a7a565b93506080880135915080821115615bb0578283fd5b50615bbd88828901615a7a565b9150505b9295509295909350565b6000600060208385031215615bde578182fd5b823567ffffffffffffffff80821115615bf5578384fd5b818501915085601f8301121515615c0a578384fd5b813581811115615c18578485fd5b8660208260051b8501011115615c2c578485fd5b6020830194508093505050505b9250929050565b600060208284031215615c51578081fd5b8151615c5c816175b3565b809150505b92915050565b600060208284031215615c78578081fd5b815190505b92915050565b600060208284031215615c94578081fd5b815167ffffffffffffffff811115615caa578182fd5b808301905083601f8201121515615cbf578182fd5b8051615cd2615ccd82617330565b6172af565b818152856020838501011115615ce6578384fd5b615cf782602083016020860161742e565b8093505050505b92915050565b6000600060408385031215615d17578182fd5b8235615d228161758a565b80925050602083013590505b9250929050565b600060208284031215615d46578081fd5b813590505b92915050565b600060208284031215615d62578081fd5b815190505b92915050565b6000600060408385031215615d80578182fd5b823591506020830135615d928161758a565b809150505b9250929050565b6000600060408385031215615db1578182fd5b823591506020830135615dc3816175b3565b809150505b9250929050565b6000600060006000600060a08688031215615de8578283fd5b853594506020860135615dfa816175b3565b80945050604086013560ff811681141515615e13578384fd5b8093505060608601359150608086013590505b9295509295909350565b73ffffffffffffffffffffffffffffffffffffffff8116825250505b565b6000815180845260208085019450808401835b83811015615e995773ffffffffffffffffffffffffffffffffffffffff8251168752828701965082820191505b600181019050615e61565b505050508290505b92915050565b600081518084526020808501808196508360051b81019150828601855b85811015615ef4578284038952615edc848351615f0e565b9350848201915084890198505b600181019050615ec4565b5050508093505050505b92915050565b801515825250505b565b60008151808452615f2681602086016020860161742e565b60207fffffffffffffffffffffffffffffffffffffffffffffffffffffffffffffffe0601f8301168501019150505b92915050565b60008154615f6881617463565b8085526020600180841660008114615f875760018114615fb957615fee565b7fffffffffffffffffffffffffffffffffffffffffffffffffffffffffffffff00851683890152604088019550615fee565b866000528260002060005b85811015615fe457815485828c01015283820191505b8481019050615fc4565b84818b0101975050505b50505050505b92915050565b600881101515616033577f4e487b7100000000000000000000000000000000000000000000000000000000600052602160045260246000fd5b80825250505b565b80511515825260208101511515602083015260408101511515604083015276ffffffffffffffffffffffffffffffffffffffffffffff606082015116606083015250505b565b6fffffffffffffffffffffffffffffffff8116825250505b565b65ffffffffffff8116825250505b565b60008083546160b981617463565b6001808316600081146160d3576001811461610257616133565b7fffffffffffffffffffffffffffffffffffffffffffffffffffffffffffffff00841687528287019450616133565b8786526020808720875b8581101561612a578154818b015284820191505b828101905061610c565b50505082870194505b50505050809150505b92915050565b7f1901000000000000000000000000000000000000000000000000000000000000815282600282015281602282015260006042820190505b9392505050565b600060208201905073ffffffffffffffffffffffffffffffffffffffff831682525b92915050565b73ffffffffffffffffffffffffffffffffffffffff851681526080602082015260006161d86080830186615f0e565b82810360408401526161ea8186615f0e565b9150508260608301525b95945050505050565b73ffffffffffffffffffffffffffffffffffffffff8516815260806020820152600061622c6080830186615f5b565b828103604084015261623e8186615f5b565b91505065ffffffffffff831660608301525b95945050505050565b600060408201905073ffffffffffffffffffffffffffffffffffffffff841682528260208301525b9392505050565b600060808201905073ffffffffffffffffffffffffffffffffffffffff80871683528560208401528085166040840152508260608301525b95945050505050565b600060608201905073ffffffffffffffffffffffffffffffffffffffff8516825283602083015282151560408301525b949350505050565b600060408201905073ffffffffffffffffffffffffffffffffffffffff8416825265ffffffffffff831660208301525b9392505050565b60608152600061634b6060830186615e4e565b828103602084015261635d8186615ea7565b905082810360408401526163718185615ea7565b9150505b949350505050565b60006020808301818452808551808352604092508286019150828160051b870101848801865b8381101561657d577fffffffffffffffffffffffffffffffffffffffffffffffffffffffffffffffc089840301855281516102c081518186526163e882870182615e4e565b915050888201518582038a8701526164008282615ea7565b91505087820151858203898701526164188282615ea7565b915050606080830151868303828801526164328382615f0e565b925050506080808301518683038288015261644d8382615f0e565b9250505060a08083015161646382880182615e30565b505060c0808301516164778288018261609b565b505060e08083015161648b8288018261609b565b5050610100808301516164a082880182616081565b5050610120808301516164b58288018261609b565b5050610140808301516164ca8288018261609b565b5050610160808301516164df82880182615f04565b5050610180808301516164f482880182615f04565b50506101a08083015161650982880182616081565b50506101c08083015161651e82880182616081565b50506101e08083015161653382880182615ffa565b5050610200808301516165488288018261603b565b50506102208201516102808601526102408201516102a08601528094505050868201915086850194505b6001810190506163a3565b505080955050505050505b92915050565b600060208201905082151582525b92915050565b60006020820190508282525b92915050565b600060808201905085825284602083015283604083015273ffffffffffffffffffffffffffffffffffffffff831660608301525b95945050505050565b600060608201905084825283602083015282151560408301525b949350505050565b600060808201905085825260ff851660208301528360408301528260608301525b95945050505050565b600060208201905073ffffffffffffffffffffffffffffffffffffffff831682525b92915050565b600060208201905073ffffffffffffffffffffffffffffffffffffffff831682525b92915050565b600060208201905073ffffffffffffffffffffffffffffffffffffffff831682525b92915050565b60006020820190506166c78284615ffa565b5b92915050565b6020815260006166e16020830184615f0e565b90505b92915050565b610180815260006166ff61018083018f615f0e565b8281036020840152616711818f615f0e565b91505073ffffffffffffffffffffffffffffffffffffffff8c16604083015265ffffffffffff808c166060840152808b166080840152506fffffffffffffffffffffffffffffffff891660a083015261676d60c083018961609b565b61677a60e083018861609b565b616788610100830187615f04565b616796610120830186615f04565b6167a4610140830185616081565b6167b2610160830184616081565b5b9d9c50505050505050505050505050565b60208152604460208201527f476f7665726e6f72416c7068613a3a71756575653a2070726f706f73616c206360408201527f616e206f6e6c792062652071756575656420696620697420697320737563636560608201527f65646564000000000000000000000000000000000000000000000000000000006080820152600060a0820190505b919050565b60208152604560208201527f476f7665726e6f72416c7068613a3a657865637574653a2070726f706f73616c60408201527f2063616e206f6e6c79206265206578656375746564206966206974206973207160608201527f75657565640000000000000000000000000000000000000000000000000000006080820152600060a0820190505b919050565b60208152601a60208201527f496e73756666696369656e7420616761696e737420766f746573000000000000604082015260006060820190505b919050565b60208152601560208201527f50726f706f73616c206e6f7420636f6d706c6574650000000000000000000000604082015260006060820190505b919050565b60208152601060208201527f4578636565647320313238206269747300000000000000000000000000000000604082015260006060820190505b919050565b60208152602960208201527f476f7665726e6f72416c7068613a3a73746174653a20696e76616c696420707260408201527f6f706f73616c2069640000000000000000000000000000000000000000000000606082015260006080820190505b919050565b60208152600d60208201527f486173206e6f7420766f74656400000000000000000000000000000000000000604082015260006060820190505b919050565b60208152601660208201527f496e73756666696369656e7420666f7220766f74657300000000000000000000604082015260006060820190505b919050565b60208152600e60208201527f4e6f7420417574686f72697a6564000000000000000000000000000000000000604082015260006060820190505b919050565b60208152602d60208201527f476f7665726e6f72416c7068613a3a5f63617374566f74653a20766f7465722060408201527f616c726561647920766f74656400000000000000000000000000000000000000606082015260006080820190505b919050565b60208152601360208201527f4e6f742061206d6574612070726f706f73616c00000000000000000000000000604082015260006060820190505b919050565b60208152605960208201527f476f7665726e6f72416c7068613a3a70726f706f73653a206f6e65206c69766560408201527f2070726f706f73616c207065722070726f706f7365722c20666f756e6420616e60608201527f20616c72656164792070656e64696e672070726f706f73616c000000000000006080820152600060a0820190505b919050565b60208152602860208201527f476f7665726e6f72416c7068613a3a70726f706f73653a20746f6f206d616e7960408201527f20616374696f6e73000000000000000000000000000000000000000000000000606082015260006080820190505b919050565b60208152601160208201527f6164646974696f6e206f766572666c6f77000000000000000000000000000000604082015260006060820190505b919050565b60208152600f60208201527f416c726561647920636c61696d65640000000000000000000000000000000000604082015260006060820190505b919050565b60208152604460208201527f476f7665726e6f72416c7068613a3a70726f706f73653a2070726f706f73616c60408201527f2066756e6374696f6e20696e666f726d6174696f6e206172697479206d69736d60608201527f61746368000000000000000000000000000000000000000000000000000000006080820152600060a0820190505b919050565b60208152602f60208201527f476f7665726e6f72416c7068613a3a63616e63656c3a2070726f706f7365722060408201527f61626f7665207468726573686f6c640000000000000000000000000000000000606082015260006080820190505b919050565b60208152601860208201527f5265776172647320616c72656164792072656365697665640000000000000000604082015260006060820190505b919050565b60208152604460208201527f476f7665726e6f72416c7068613a3a5f71756575654f725265766572743a207060408201527f726f706f73616c20616374696f6e20616c72656164792071756575656420617460608201527f20657461000000000000000000000000000000000000000000000000000000006080820152600060a0820190505b919050565b60208152602560208201527f43616e742063616e63656c20616674657220766f74696e6720697320636f6d7060408201527f6c65746564000000000000000000000000000000000000000000000000000000606082015260006080820190505b919050565b60208152600e60208201527f4e6f74206120636f6e7472616374000000000000000000000000000000000000604082015260006060820190505b919050565b60208152602c60208201527f476f7665726e6f72416c7068613a3a70726f706f73653a206d7573742070726f60408201527f7669646520616374696f6e730000000000000000000000000000000000000000606082015260006080820190505b919050565b60208152603f60208201527f476f7665726e6f72416c7068613a3a70726f706f73653a2070726f706f73657260408201527f20766f7465732062656c6f772070726f706f73616c207468726573686f6c6400606082015260006080820190505b919050565b60208152602f60208201527f476f7665726e6f72416c7068613a3a63617374566f746542795369673a20696e60408201527f76616c6964207369676e61747572650000000000000000000000000000000000606082015260006080820190505b919050565b60208152605860208201527f476f7665726e6f72416c7068613a3a70726f706f73653a206f6e65206c69766560408201527f2070726f706f73616c207065722070726f706f7365722c20666f756e6420616e60608201527f20616c7265616479206163746976652070726f706f73616c00000000000000006080820152600060a0820190505b919050565b60208152600f60208201527f4578636565647320343820626974730000000000000000000000000000000000604082015260006060820190505b919050565b60208152603660208201527f476f7665726e6f72416c7068613a3a63616e63656c3a2063616e6e6f7420636160408201527f6e63656c2065786563757465642070726f706f73616c00000000000000000000606082015260006080820190505b919050565b60208152602a60208201527f476f7665726e6f72416c7068613a3a5f63617374566f74653a20766f74696e6760408201527f20697320636c6f73656400000000000000000000000000000000000000000000606082015260006080820190505b919050565b60208152601060208201527f4578636565647320313834206269747300000000000000000000000000000000604082015260006060820190505b919050565b60208152601560208201527f7375627472616374696f6e20756e646572666c6f770000000000000000000000604082015260006060820190505b919050565b600060808201905061727c828461603b565b5b92915050565b60006020820190508282525b92915050565b600060208201905065ffffffffffff831682525b92915050565b600060405190507fffffffffffffffffffffffffffffffffffffffffffffffffffffffffffffffe0601f830116810181811067ffffffffffffffff821117156172fb576172fa617559565b5b80604052505b919050565b600067ffffffffffffffff82111561732157617320617559565b5b60208260051b0190505b919050565b600067ffffffffffffffff82111561734b5761734a617559565b5b60207fffffffffffffffffffffffffffffffffffffffffffffffffffffffffffffffe0601f8401160190505b919050565b600082198211156173905761738f617528565b5b82820190505b92915050565b600065ffffffffffff8083168185168083038211156173be576173bd617528565b5b80820193505050505b92915050565b6000821515617403577f4e487b710000000000000000000000000000000000000000000000000000000081526012600452602481fd5b82820490505b92915050565b60008282101561742257617421617528565b5b82820390505b92915050565b60005b8381101561744d5780820151818401525b602081019050617431565b8381111561745c576000848401525b505050505b565b60008160011c90506001821680151561747d57607f821691505b602082108114156174b7577f4e487b7100000000000000000000000000000000000000000000000000000000600052602260045260246000fd5b505b919050565b60007fffffffffffffffffffffffffffffffffffffffffffffffffffffffffffffffff8214156174f1576174f0617528565b5b6001820190505b919050565b600065ffffffffffff8083168181141561751a57617519617528565b5b60018101925050505b919050565b7f4e487b7100000000000000000000000000000000000000000000000000000000600052601160045260246000fd5b565b7f4e487b7100000000000000000000000000000000000000000000000000000000600052604160045260246000fd5b565b73ffffffffffffffffffffffffffffffffffffffff8116811415156175af5760006000fd5b505b565b801515811415156175c45760006000fd5b505b565bfea2646970667358221220dc627b4b4c208b7e53f8b93040b21170708d8bad84e283d138980e2e897fe71864736f6c63430008040033",
  "linkReferences": {},
  "deployedLinkReferences": {}
}