{
  "_format": "hh-sol-artifact-1",
  "contractName": "TDaoGovernorAlpha",
  "sourceName": "contracts/core/TDao/TDaoGovernorAlpha.sol",
  "abi": [
    {
      "inputs": [
        {
          "internalType": "address",
          "name": "timelock_",
          "type": "address"
        },
        {
          "internalType": "address",
          "name": "votingToken_",
          "type": "address"
        },
        {
          "internalType": "address",
          "name": "guardian_",
          "type": "address"
        },
        {
          "internalType": "uint48",
          "name": "votingPeriodBlocks_",
          "type": "uint48"
        },
        {
          "internalType": "contract ITDao",
          "name": "tDao_",
          "type": "address"
        }
      ],
      "stateMutability": "nonpayable",
      "type": "constructor"
    },
    {
      "anonymous": false,
      "inputs": [
        {
          "indexed": true,
          "internalType": "uint256",
          "name": "id",
          "type": "uint256"
        }
      ],
      "name": "ProposalCanceled",
      "type": "event"
    },
    {
      "anonymous": false,
      "inputs": [
        {
          "indexed": true,
          "internalType": "uint256",
          "name": "id",
          "type": "uint256"
        },
        {
          "indexed": true,
          "internalType": "address",
          "name": "proposer",
          "type": "address"
        }
      ],
      "name": "ProposalCreated",
      "type": "event"
    },
    {
      "anonymous": false,
      "inputs": [
        {
          "indexed": true,
          "internalType": "uint256",
          "name": "id",
          "type": "uint256"
        }
      ],
      "name": "ProposalExecuted",
      "type": "event"
    },
    {
      "anonymous": false,
      "inputs": [
        {
          "indexed": true,
          "internalType": "uint256",
          "name": "id",
          "type": "uint256"
        },
        {
          "indexed": false,
          "internalType": "uint256",
          "name": "eta",
          "type": "uint256"
        }
      ],
      "name": "ProposalQueued",
      "type": "event"
    },
    {
      "anonymous": false,
      "inputs": [
        {
          "indexed": true,
          "internalType": "address",
          "name": "caller",
          "type": "address"
        },
        {
          "indexed": true,
          "internalType": "uint256",
          "name": "proposalID",
          "type": "uint256"
        }
      ],
      "name": "UnderlyingVotingRewardsDistributed",
      "type": "event"
    },
    {
      "anonymous": false,
      "inputs": [
        {
          "indexed": true,
          "internalType": "address",
          "name": "voter",
          "type": "address"
        },
        {
          "indexed": true,
          "internalType": "uint256",
          "name": "proposalId",
          "type": "uint256"
        },
        {
          "indexed": true,
          "internalType": "bool",
          "name": "support",
          "type": "bool"
        },
        {
          "indexed": false,
          "internalType": "uint256",
          "name": "votes",
          "type": "uint256"
        }
      ],
      "name": "VoteCast",
      "type": "event"
    },
    {
      "anonymous": false,
      "inputs": [
        {
          "indexed": true,
          "internalType": "address",
          "name": "voter",
          "type": "address"
        },
        {
          "indexed": false,
          "internalType": "uint256",
          "name": "count",
          "type": "uint256"
        }
      ],
      "name": "VotingRewardsDistributed",
      "type": "event"
    },
    {
      "inputs": [],
      "name": "BALLOT_TYPEHASH",
      "outputs": [
        {
          "internalType": "bytes32",
          "name": "",
          "type": "bytes32"
        }
      ],
      "stateMutability": "view",
      "type": "function"
    },
    {
      "inputs": [],
      "name": "DOMAIN_TYPEHASH",
      "outputs": [
        {
          "internalType": "bytes32",
          "name": "",
          "type": "bytes32"
        }
      ],
      "stateMutability": "view",
      "type": "function"
    },
    {
      "inputs": [],
      "name": "INFLATION_PERCENTAGE",
      "outputs": [
        {
          "internalType": "uint256",
          "name": "",
          "type": "uint256"
        }
      ],
      "stateMutability": "view",
      "type": "function"
    },
    {
      "inputs": [],
      "name": "__abdicate",
      "outputs": [],
      "stateMutability": "nonpayable",
      "type": "function"
    },
    {
      "inputs": [
        {
          "internalType": "uint256",
          "name": "proposalId",
          "type": "uint256"
        }
      ],
      "name": "cancel",
      "outputs": [],
      "stateMutability": "nonpayable",
      "type": "function"
    },
    {
      "inputs": [
        {
          "internalType": "uint256",
          "name": "proposalId",
          "type": "uint256"
        },
        {
          "internalType": "bool",
          "name": "support",
          "type": "bool"
        }
      ],
      "name": "castVote",
      "outputs": [],
      "stateMutability": "nonpayable",
      "type": "function"
    },
    {
      "inputs": [
        {
          "internalType": "uint256",
          "name": "proposalId",
          "type": "uint256"
        },
        {
          "internalType": "bool",
          "name": "support",
          "type": "bool"
        },
        {
          "internalType": "uint8",
          "name": "v",
          "type": "uint8"
        },
        {
          "internalType": "bytes32",
          "name": "r",
          "type": "bytes32"
        },
        {
          "internalType": "bytes32",
          "name": "s",
          "type": "bytes32"
        }
      ],
      "name": "castVoteBySig",
      "outputs": [],
      "stateMutability": "nonpayable",
      "type": "function"
    },
    {
      "inputs": [
        {
          "internalType": "uint256[]",
          "name": "proposalIDs",
          "type": "uint256[]"
        }
      ],
      "name": "claimUnderlyingVotingRewards",
      "outputs": [],
      "stateMutability": "nonpayable",
      "type": "function"
    },
    {
      "inputs": [
        {
          "internalType": "uint256[]",
          "name": "proposalIDs",
          "type": "uint256[]"
        }
      ],
      "name": "claimVotingRewards",
      "outputs": [],
      "stateMutability": "nonpayable",
      "type": "function"
    },
    {
      "inputs": [
        {
          "internalType": "uint256",
          "name": "proposalId",
          "type": "uint256"
        }
      ],
      "name": "execute",
      "outputs": [],
      "stateMutability": "nonpayable",
      "type": "function"
    },
    {
      "inputs": [
        {
          "internalType": "uint256",
          "name": "proposalId",
          "type": "uint256"
        }
      ],
      "name": "getActions",
      "outputs": [
        {
          "internalType": "address[]",
          "name": "targets",
          "type": "address[]"
        },
        {
          "internalType": "string[]",
          "name": "signatures",
          "type": "string[]"
        },
        {
          "internalType": "bytes[]",
          "name": "calldatas",
          "type": "bytes[]"
        }
      ],
      "stateMutability": "view",
      "type": "function"
    },
    {
      "inputs": [
        {
          "internalType": "address",
          "name": "voter",
          "type": "address"
        }
      ],
      "name": "getAllProposals",
      "outputs": [
        {
          "components": [
            {
              "internalType": "address[]",
              "name": "targets",
              "type": "address[]"
            },
            {
              "internalType": "string[]",
              "name": "signatures",
              "type": "string[]"
            },
            {
              "internalType": "bytes[]",
              "name": "calldatas",
              "type": "bytes[]"
            },
            {
              "internalType": "string",
              "name": "ipfsHash",
              "type": "string"
            },
            {
              "internalType": "address",
              "name": "proposer",
              "type": "address"
            },
            {
              "internalType": "uint48",
              "name": "eta",
              "type": "uint48"
            },
            {
              "internalType": "uint48",
              "name": "id",
              "type": "uint48"
            },
            {
              "internalType": "uint128",
              "name": "forVotes",
              "type": "uint128"
            },
            {
              "internalType": "uint48",
              "name": "startBlock",
              "type": "uint48"
            },
            {
              "internalType": "uint48",
              "name": "endBlock",
              "type": "uint48"
            },
            {
              "internalType": "bool",
              "name": "canceled",
              "type": "bool"
            },
            {
              "internalType": "bool",
              "name": "executed",
              "type": "bool"
            },
            {
              "internalType": "uint128",
              "name": "againstVotes",
              "type": "uint128"
            },
            {
              "internalType": "uint128",
              "name": "initialSupply",
              "type": "uint128"
            }
          ],
          "internalType": "struct GovernorAlpha.Proposal[]",
          "name": "_proposals",
          "type": "tuple[]"
        },
        {
          "internalType": "enum GovernorAlpha.ProposalState[]",
          "name": "_proposalStates",
          "type": "uint8[]"
        },
        {
          "components": [
            {
              "internalType": "bool",
              "name": "hasVoted",
              "type": "bool"
            },
            {
              "internalType": "bool",
              "name": "support",
              "type": "bool"
            },
            {
              "internalType": "bool",
              "name": "rewardReceived",
              "type": "bool"
            },
            {
              "internalType": "uint184",
              "name": "votes",
              "type": "uint184"
            }
          ],
          "internalType": "struct GovernorAlpha.Receipt[]",
          "name": "_receipts",
          "type": "tuple[]"
        }
      ],
      "stateMutability": "view",
      "type": "function"
    },
    {
      "inputs": [
        {
          "internalType": "uint256",
          "name": "proposalID",
          "type": "uint256"
        }
      ],
      "name": "getMetaProposalParameters",
      "outputs": [
        {
          "internalType": "address",
          "name": "governorAlpha",
          "type": "address"
        },
        {
          "internalType": "uint256",
          "name": "underlyingProposalID",
          "type": "uint256"
        },
        {
          "internalType": "bool",
          "name": "moreForThanAgainst",
          "type": "bool"
        }
      ],
      "stateMutability": "view",
      "type": "function"
    },
    {
      "inputs": [
        {
          "internalType": "uint256",
          "name": "proposalId",
          "type": "uint256"
        },
        {
          "internalType": "address",
          "name": "voter",
          "type": "address"
        }
      ],
      "name": "getReceipt",
      "outputs": [
        {
          "components": [
            {
              "internalType": "bool",
              "name": "hasVoted",
              "type": "bool"
            },
            {
              "internalType": "bool",
              "name": "support",
              "type": "bool"
            },
            {
              "internalType": "bool",
              "name": "rewardReceived",
              "type": "bool"
            },
            {
              "internalType": "uint184",
              "name": "votes",
              "type": "uint184"
            }
          ],
          "internalType": "struct GovernorAlpha.Receipt",
          "name": "",
          "type": "tuple"
        }
      ],
      "stateMutability": "view",
      "type": "function"
    },
    {
      "inputs": [],
      "name": "guardian",
      "outputs": [
        {
          "internalType": "address",
          "name": "",
          "type": "address"
        }
      ],
      "stateMutability": "view",
      "type": "function"
    },
    {
      "inputs": [
        {
          "internalType": "uint256",
          "name": "",
          "type": "uint256"
        },
        {
          "internalType": "address",
          "name": "",
          "type": "address"
        }
      ],
      "name": "hasClaimedUnderlyingRewards",
      "outputs": [
        {
          "internalType": "bool",
          "name": "",
          "type": "bool"
        }
      ],
      "stateMutability": "view",
      "type": "function"
    },
    {
      "inputs": [],
      "name": "implementsVotingRewardsWithToken",
      "outputs": [
        {
          "internalType": "address",
          "name": "",
          "type": "address"
        }
      ],
      "stateMutability": "view",
      "type": "function"
    },
    {
      "inputs": [
        {
          "internalType": "address",
          "name": "",
          "type": "address"
        }
      ],
      "name": "latestProposalIds",
      "outputs": [
        {
          "internalType": "uint256",
          "name": "",
          "type": "uint256"
        }
      ],
      "stateMutability": "view",
      "type": "function"
    },
    {
      "inputs": [],
      "name": "name",
      "outputs": [
        {
          "internalType": "string",
          "name": "",
          "type": "string"
        }
      ],
      "stateMutability": "view",
      "type": "function"
    },
    {
      "inputs": [],
      "name": "proposalCount",
      "outputs": [
        {
          "internalType": "uint48",
          "name": "",
          "type": "uint48"
        }
      ],
      "stateMutability": "view",
      "type": "function"
    },
    {
      "inputs": [],
      "name": "proposalMaxOperations",
      "outputs": [
        {
          "internalType": "uint256",
          "name": "",
          "type": "uint256"
        }
      ],
      "stateMutability": "pure",
      "type": "function"
    },
    {
      "inputs": [],
      "name": "proposalThreshold",
      "outputs": [
        {
          "internalType": "uint256",
          "name": "",
          "type": "uint256"
        }
      ],
      "stateMutability": "view",
      "type": "function"
    },
    {
      "inputs": [
        {
          "internalType": "uint256",
          "name": "",
          "type": "uint256"
        }
      ],
      "name": "proposals",
      "outputs": [
        {
          "internalType": "string",
          "name": "ipfsHash",
          "type": "string"
        },
        {
          "internalType": "address",
          "name": "proposer",
          "type": "address"
        },
        {
          "internalType": "uint48",
          "name": "eta",
          "type": "uint48"
        },
        {
          "internalType": "uint48",
          "name": "id",
          "type": "uint48"
        },
        {
          "internalType": "uint128",
          "name": "forVotes",
          "type": "uint128"
        },
        {
          "internalType": "uint48",
          "name": "startBlock",
          "type": "uint48"
        },
        {
          "internalType": "uint48",
          "name": "endBlock",
          "type": "uint48"
        },
        {
          "internalType": "bool",
          "name": "canceled",
          "type": "bool"
        },
        {
          "internalType": "bool",
          "name": "executed",
          "type": "bool"
        },
        {
          "internalType": "uint128",
          "name": "againstVotes",
          "type": "uint128"
        },
        {
          "internalType": "uint128",
          "name": "initialSupply",
          "type": "uint128"
        }
      ],
      "stateMutability": "view",
      "type": "function"
    },
    {
      "inputs": [
        {
          "internalType": "address[]",
          "name": "targets",
          "type": "address[]"
        },
        {
          "internalType": "string[]",
          "name": "signatures",
          "type": "string[]"
        },
        {
          "internalType": "bytes[]",
          "name": "calldatas",
          "type": "bytes[]"
        },
        {
          "internalType": "string",
          "name": "ipfsHash",
          "type": "string"
        }
      ],
      "name": "propose",
      "outputs": [
        {
          "internalType": "uint256",
          "name": "",
          "type": "uint256"
        }
      ],
      "stateMutability": "nonpayable",
      "type": "function"
    },
    {
      "inputs": [
        {
          "internalType": "uint256",
          "name": "proposalId",
          "type": "uint256"
        }
      ],
      "name": "queue",
      "outputs": [],
      "stateMutability": "nonpayable",
      "type": "function"
    },
    {
      "inputs": [],
      "name": "quorumVotes",
      "outputs": [
        {
          "internalType": "uint256",
          "name": "",
          "type": "uint256"
        }
      ],
      "stateMutability": "view",
      "type": "function"
    },
    {
      "inputs": [
        {
          "internalType": "uint256",
          "name": "proposalId",
          "type": "uint256"
        }
      ],
      "name": "state",
      "outputs": [
        {
          "internalType": "enum GovernorAlpha.ProposalState",
          "name": "",
          "type": "uint8"
        }
      ],
      "stateMutability": "view",
      "type": "function"
    },
    {
      "inputs": [],
      "name": "tDao",
      "outputs": [
        {
          "internalType": "contract ITDao",
          "name": "",
          "type": "address"
        }
      ],
      "stateMutability": "view",
      "type": "function"
    },
    {
      "inputs": [],
      "name": "timelock",
      "outputs": [
        {
          "internalType": "contract TimelockInterface",
          "name": "",
          "type": "address"
        }
      ],
      "stateMutability": "view",
      "type": "function"
    },
    {
      "inputs": [
        {
          "internalType": "contract GovernorAlpha",
          "name": "",
          "type": "address"
        },
        {
          "internalType": "uint256",
          "name": "",
          "type": "uint256"
        }
      ],
      "name": "voteInUnderlyingProtocol",
      "outputs": [],
      "stateMutability": "pure",
      "type": "function"
    },
    {
      "inputs": [],
      "name": "votingDelay",
      "outputs": [
        {
          "internalType": "uint256",
          "name": "",
          "type": "uint256"
        }
      ],
      "stateMutability": "pure",
      "type": "function"
    },
    {
      "inputs": [],
      "name": "votingPeriod",
      "outputs": [
        {
          "internalType": "uint256",
          "name": "",
          "type": "uint256"
        }
      ],
      "stateMutability": "view",
      "type": "function"
    },
    {
      "inputs": [],
      "name": "votingPeriodBlocks",
      "outputs": [
        {
          "internalType": "uint48",
          "name": "",
          "type": "uint48"
        }
      ],
      "stateMutability": "view",
      "type": "function"
    },
    {
      "inputs": [],
      "name": "votingToken",
      "outputs": [
        {
          "internalType": "contract VotingTokenInterface",
          "name": "",
          "type": "address"
        }
      ],
      "stateMutability": "view",
      "type": "function"
    }
  ],
  "bytecode": "0x610100604052348015620000135760006000fd5b5060405162006df538038062006df5833981810160405281019062000039919062000351565b5b6040518060400160405280601381526020017f5444616f20476f7665726e6f7220416c70686100000000000000000000000000815260200150858585855b84848484845b8460006000509080519060200190620000999291906200028a565b50600073ffffffffffffffffffffffffffffffffffffffff168473ffffffffffffffffffffffffffffffffffffffff1614158015620001055750600073ffffffffffffffffffffffffffffffffffffffff168373ffffffffffffffffffffffffffffffffffffffff1614155b80156200013f5750600073ffffffffffffffffffffffffffffffffffffffff168273ffffffffffffffffffffffffffffffffffffffff1614155b15156200014c5760006000fd5b8373ffffffffffffffffffffffffffffffffffffffff1660808173ffffffffffffffffffffffffffffffffffffffff1660601b815260140150508273ffffffffffffffffffffffffffffffffffffffff1660c08173ffffffffffffffffffffffffffffffffffffffff1660601b8152601401505081600160006101000a81548173ffffffffffffffffffffffffffffffffffffffff021916908373ffffffffffffffffffffffffffffffffffffffff16021790555060008165ffffffffffff161115156200021a5760006000fd5b8065ffffffffffff1660a08165ffffffffffff1660d01b815260060150505b50505050505b50505050508073ffffffffffffffffffffffffffffffffffffffff1660e08173ffffffffffffffffffffffffffffffffffffffff1660601b815260140150505b505050505062000400565b828054600181600116156101000203166002900490600052602060002090601f016020900481019282620002c2576000855562000313565b82601f10620002dd57805160ff191683800117855562000313565b8280016001018555821562000313579182015b82811115620003125782518260005090905591602001919060010190620002f0565b5b50905062000322919062000326565b5090565b6200032c565b808211156200034857600081815060009055506001016200032c565b509056620003ff565b6000600060006000600060a086880312156200036b578081fd5b85516200037881620003e2565b8095505060208601516200038c81620003e2565b809450506040860151620003a081620003e2565b80935050606086015165ffffffffffff811681141515620003bf578182fd5b809250506080860151620003d381620003e2565b809150505b9295509295909350565b6001600160a01b03811681141515620003fb5760006000fd5b5b50565b5b60805160601c60a05160d01c60c05160601c60e05160601c616963620004926000398061237a528061331d5280613dde525080610d21528061122c52806116bd5280611eaf52806124485280612e295280612e75528061411652508061088d5280612e4d525080611c895280612009528061340c52806134d45280613a255280614707528061482052506169636000f3fe60806040523480156100115760006000fd5b506004361061022b5760003560e01c80634e9568ef1161012b578063b58131b0116100be578063ddf0b0091161008d578063e23a9a5211610072578063e23a9a521461063f578063e3a5bcaf1461066f578063fe0d94c11461069f5761022b565b8063ddf0b00914610605578063deaaa7cc146106215761022b565b8063b58131b01461058f578063d0b8bffe146105ad578063d33219b4146105c9578063da35c664146105e75761022b565b806383b0ce15116100fa57806383b0ce15146104ef5780639853d92214610521578063b034012314610553578063b24b7ffd146105715761022b565b80634e9568ef1461048d578063760fbc13146104a95780637bdbe4d0146104b35780637e90f9ab146104d15761022b565b806324bc1a64116101be5780633e4f49e61161018d578063452a932011610172578063452a9320146104355780634634c61f146104535780634c92beb71461046f5761022b565b80633e4f49e6146103e957806340e58ee5146104195761022b565b806324bc1a641461035d57806329c0e5fd1461037b578063328dd982146103995780633932abb1146103cb5761022b565b806311e91b9a116101fa57806311e91b9a146102c357806315373e3d146102f357806317977c611461030f57806320606b701461033f5761022b565b8063013cf08b1461023157806302a251a31461026b578063062f14661461028957806306fdde03146102a55761022b565b60006000fd5b61024b6004803603810190610246919061525f565b6106bb565b6040516102629b9a99989796959493929190615c79565b60405180910390f35b610273610889565b60405161028091906167e9565b60405180910390f35b6102a3600480360381019061029e91906150f5565b6108be565b005b6102ad610c6e565b6040516102ba9190615c5d565b60405180910390f35b6102dd60048036038101906102d89190614fd8565b610d0f565b6040516102ea91906167e9565b60405180910390f35b61030d600480360381019061030891906152c8565b61165e565b005b61032960048036038101906103249190614f80565b611678565b60405161033691906167e9565b60405180910390f35b610347611693565b6040516103549190615b31565b60405180910390f35b6103656116b7565b60405161037291906167e9565b60405180910390f35b61038361176f565b60405161039091906167e9565b60405180910390f35b6103b360048036038101906103ae919061525f565b61177a565b6040516103c2939291906158ff565b60405180910390f35b6103d3611a1e565b6040516103e091906167e9565b60405180910390f35b61040360048036038101906103fe919061525f565b611a2c565b6040516104109190615c44565b60405180910390f35b610433600480360381019061042e919061525f565b611d5f565b005b61043d612174565b60405161044a9190615719565b60405180910390f35b61046d600480360381019061046891906152f9565b61219a565b005b610477612378565b6040516104849190615bcc565b60405180910390f35b6104a760048036038101906104a2919061522e565b61239c565b005b6104b16123a1565b005b6104bb612436565b6040516104c891906167e9565b60405180910390f35b6104d9612444565b6040516104e69190615719565b60405180910390f35b6105096004803603810190610504919061525f565b612471565b60405161051893929190615890565b60405180910390f35b61053b60048036038101906105369190614f80565b6126bd565b60405161054a93929190615944565b60405180910390f35b61055b612e27565b6040516105689190615c1c565b60405180910390f35b610579612e4b565b60405161058691906167fb565b60405180910390f35b610597612e6f565b6040516105a491906167e9565b60405180910390f35b6105c760048036038101906105c291906150f5565b612f27565b005b6105d161340a565b6040516105de9190615bf4565b60405180910390f35b6105ef61342e565b6040516105fc91906167fb565b60405180910390f35b61061f600480360381019061061a919061525f565b613446565b005b6106296137e2565b6040516106369190615b31565b60405180910390f35b61065960048036038101906106549190615297565b613806565b60405161066691906167d0565b60405180910390f35b61068960048036038101906106849190615297565b613932565b6040516106969190615b1d565b60405180910390f35b6106b960048036038101906106b4919061525f565b613967565b005b6003600050602052806000526040600020600091509050806003016000508054600181600116156101000203166002900480601f01602080910402602001604051908101604052809291908181526020018280546001816001161561010002031660029004801561076d5780601f106107425761010080835404028352916020019161076d565b820191906000526020600020905b81548152906001019060200180831161075057829003601f168201915b5050505050908060040160009054906101000a900473ffffffffffffffffffffffffffffffffffffffff16908060040160149054906101000a900465ffffffffffff169080600401601a9054906101000a900465ffffffffffff16908060050160009054906101000a90046fffffffffffffffffffffffffffffffff16908060050160109054906101000a900465ffffffffffff16908060050160169054906101000a900465ffffffffffff169080600501601c9054906101000a900460ff169080600501601d9054906101000a900460ff16908060060160009054906101000a90046fffffffffffffffffffffffffffffffff16908060060160109054906101000a90046fffffffffffffffffffffffffffffffff1690508b565b60007f000000000000000000000000000000000000000000000000000000000000000065ffffffffffff1690506108bb565b90565b6000600090505b82829050811015610c6857600083838381811015156108e057fe5b9050602002013590506108f881613bb763ffffffff16565b1515610939576040517f08c379a000000000000000000000000000000000000000000000000000000000815260040161093090615e7f565b60405180910390fd5b6002600050600082815260200190815260200160002060005060003373ffffffffffffffffffffffffffffffffffffffff1673ffffffffffffffffffffffffffffffffffffffff16815260200190815260200160002060005060000160009054906101000a900460ff1615156109e4576040517f08c379a00000000000000000000000000000000000000000000000000000000081526004016109db90615f62565b60405180910390fd5b60006002600050600083815260200190815260200160002060005060003373ffffffffffffffffffffffffffffffffffffffff1673ffffffffffffffffffffffffffffffffffffffff16815260200190815260200160002060005090508060000160029054906101000a900460ff16151515610a95576040517f08c379a0000000000000000000000000000000000000000000000000000000008152600401610a8c90616321565b60405180910390fd5b60018160000160026101000a81548160ff021916908315150217905550600060036000506000848152602001908152602001600020600050905060008260000160039054906101000a900476ffffffffffffffffffffffffffffffffffffffffffffff1676ffffffffffffffffffffffffffffffffffffffffffffff1690506000610b8a8360050160009054906101000a90046fffffffffffffffffffffffffffffffff166fffffffffffffffffffffffffffffffff168460060160009054906101000a90046fffffffffffffffffffffffffffffffff166fffffffffffffffffffffffffffffffff16613c5763ffffffff16565b90506000610bda6611c37937e080008560060160109054906101000a90046fffffffffffffffffffffffffffffffff166fffffffffffffffffffffffffffffffff16613cb590919063ffffffff16565b90506000610bf3848484613cdb9092919063ffffffff16565b9050610c053382613ddc63ffffffff16565b3373ffffffffffffffffffffffffffffffffffffffff167f56cd411799f8eaf36ff267057223a17836afa0a91a109fe7e102ef919e6fa19d82604051610c4b91906167e9565b60405180910390a2505050505050505b80806001019150506108c5565b505b5050565b60006000508054600181600116156101000203166002900480601f016020809104026020016040519081016040528092919081815260200182805460018160011615610100020316600290048015610d075780601f10610cdc57610100808354040283529160200191610d07565b820191906000526020600020905b815481529060010190602001808311610cea57829003601f168201915b505050505081565b6000610d1f612e6f63ffffffff16565b7f000000000000000000000000000000000000000000000000000000000000000073ffffffffffffffffffffffffffffffffffffffff1663782d6fe133610d6d436001613e7063ffffffff16565b6040518363ffffffff1660e01b8152600401610d8a929190615741565b60206040518083038186803b158015610da35760006000fd5b505afa158015610db8573d600060003e3d6000fd5b505050506040513d601f19601f82011682018060405250810190610ddc919061527b565b111515610e1e576040517f08c379a0000000000000000000000000000000000000000000000000000000008152600401610e15906164f4565b60405180910390fd5b83518551148015610e30575082518551145b1515610e71576040517f08c379a0000000000000000000000000000000000000000000000000000000008152600401610e6890616231565b60405180910390fd5b60008551111515610eb7576040517f08c379a0000000000000000000000000000000000000000000000000000000008152600401610eae9061648f565b60405180910390fd5b610ec561243663ffffffff16565b855111151515610f0a576040517f08c379a0000000000000000000000000000000000000000000000000000000008152600401610f019061614e565b60405180910390fd5b6000600460005060003373ffffffffffffffffffffffffffffffffffffffff1673ffffffffffffffffffffffffffffffffffffffff168152602001908152602001600020600050549050600081111561102a576000610f6e82611a2c63ffffffff16565b905060016007811115610f7d57fe5b816007811115610f8957fe5b14151515610fcc576040517f08c379a0000000000000000000000000000000000000000000000000000000008152600401610fc3906165be565b60405180910390fd5b60006007811115610fd957fe5b816007811115610fe557fe5b14151515611028576040517f08c379a000000000000000000000000000000000000000000000000000000000815260040161101f906160c3565b60405180910390fd5b505b6000600090505b855181101561108257611074878281518110151561104b57fe5b6020026020010151878381518110151561106157fe5b6020026020010151613ec763ffffffff16565b5b8080600101915050611031565b5060006110a243611097611a1e63ffffffff16565b613c5763ffffffff16565b905060006110c3826110b861088963ffffffff16565b613c5763ffffffff16565b90506001601481819054906101000a900465ffffffffffff168092919060010191906101000a81548165ffffffffffff021916908365ffffffffffff160217905550506601000000000000600160149054906101000a900465ffffffffffff1665ffffffffffff161015156111385760006000fd5b6000604051806101c001604052808a81526020018981526020018881526020018781526020013373ffffffffffffffffffffffffffffffffffffffff168152602001600065ffffffffffff168152602001600160149054906101000a900465ffffffffffff1665ffffffffffff16815260200160006fffffffffffffffffffffffffffffffff1681526020016111d385613f1c63ffffffff16565b65ffffffffffff1681526020016111ef84613f1c63ffffffff16565b65ffffffffffff16815260200160001515815260200160001515815260200160006fffffffffffffffffffffffffffffffff1681526020016112d57f000000000000000000000000000000000000000000000000000000000000000073ffffffffffffffffffffffffffffffffffffffff166318160ddd6040518163ffffffff1660e01b815260040160206040518083038186803b1580156112915760006000fd5b505afa1580156112a6573d600060003e3d6000fd5b505050506040513d601f19601f820116820180604052508101906112ca919061527b565b613f7663ffffffff16565b6fffffffffffffffffffffffffffffffff16815260200150905080600360005060008360c0015165ffffffffffff1681526020019081526020016000206000506000820151816000016000509080519060200190611334929190614974565b5060208201518160010160005090805190602001906113549291906149fe565b506040820151816002016000509080519060200190611374929190614a5e565b506060820151816003016000509080519060200190611394929190614abe565b5060808201518160040160006101000a81548173ffffffffffffffffffffffffffffffffffffffff021916908373ffffffffffffffffffffffffffffffffffffffff16021790555060a08201518160040160146101000a81548165ffffffffffff021916908365ffffffffffff16021790555060c082015181600401601a6101000a81548165ffffffffffff021916908365ffffffffffff16021790555060e08201518160050160006101000a8154816fffffffffffffffffffffffffffffffff02191690836fffffffffffffffffffffffffffffffff1602179055506101008201518160050160106101000a81548165ffffffffffff021916908365ffffffffffff1602179055506101208201518160050160166101000a81548165ffffffffffff021916908365ffffffffffff16021790555061014082015181600501601c6101000a81548160ff02191690831515021790555061016082015181600501601d6101000a81548160ff0219169083151502179055506101808201518160060160006101000a8154816fffffffffffffffffffffffffffffffff02191690836fffffffffffffffffffffffffffffffff1602179055506101a08201518160060160106101000a8154816fffffffffffffffffffffffffffffffff02191690836fffffffffffffffffffffffffffffffff1602179055509050508060c0015165ffffffffffff1660046000506000836080015173ffffffffffffffffffffffffffffffffffffffff1673ffffffffffffffffffffffffffffffffffffffff1681526020019081526020016000206000508190909055503373ffffffffffffffffffffffffffffffffffffffff168160c0015165ffffffffffff167fcd423cc1203c0af96b9b3d68d73b3064a69de2d14450bb7181c5e5df2132b35860405160405180910390a38060c0015165ffffffffffff1694505050505061165656505050505b949350505050565b61166f338383613fda63ffffffff16565b611674565b5050565b60046000506020528060005260406000206000915090505481565b7f8cad95687ba82c2ce50e74f7b754645e5117c3a5bec8151c0726d5857980a86681565b600060287f000000000000000000000000000000000000000000000000000000000000000073ffffffffffffffffffffffffffffffffffffffff166318160ddd6040518163ffffffff1660e01b815260040160206040518083038186803b1580156117225760006000fd5b505afa158015611737573d600060003e3d6000fd5b505050506040513d601f19601f8201168201806040525081019061175b919061527b565b81151561176457fe5b04905061176c565b90565b6611c37937e0800081565b60606060606060006003600050600086815260200190815260200160002060005090508060000160005081600101600050826002016000508280548060200260200160405190810160405280929190818152602001828054801561183357602002820191906000526020600020905b8160009054906101000a900473ffffffffffffffffffffffffffffffffffffffff1673ffffffffffffffffffffffffffffffffffffffff16815260200190600101908083116117e9575b5050505050925081805480602002602001604051908101604052809291908181526020016000905b8282101561191c578382906000526020600020900160005b508054600181600116156101000203166002900480601f0160208091040260200160405190810160405280929190818152602001828054600181600116156101000203166002900480156119085780601f106118dd57610100808354040283529160200191611908565b820191906000526020600020905b8154815290600101906020018083116118eb57829003601f168201915b50505050508152602001906001019061185b565b50505050915080805480602002602001604051908101604052809291908181526020016000905b82821015611a04578382906000526020600020900160005b508054600181600116156101000203166002900480601f0160208091040260200160405190810160405280929190818152602001828054600181600116156101000203166002900480156119f05780601f106119c5576101008083540402835291602001916119f0565b820191906000526020600020905b8154815290600101906020018083116119d357829003601f168201915b505050505081526020019060010190611943565b50505050905093509350935050611a1756505b9193909250565b600060019050611a29565b90565b600081600160149054906101000a900465ffffffffffff1665ffffffffffff1610158015611a5a5750600082115b1515611a9b576040517f08c379a0000000000000000000000000000000000000000000000000000000008152600401611a9290615efd565b60405180910390fd5b600060036000506000848152602001908152602001600020600050905080600501601c9054906101000a900460ff1615611add576002915050611d5a56611d58565b8060050160109054906101000a900465ffffffffffff1665ffffffffffff1643111515611b12576000915050611d5a56611d57565b8060050160169054906101000a900465ffffffffffff1665ffffffffffff1643111515611b47576001915050611d5a56611d56565b8060060160009054906101000a90046fffffffffffffffffffffffffffffffff166fffffffffffffffffffffffffffffffff168160050160009054906101000a90046fffffffffffffffffffffffffffffffff166fffffffffffffffffffffffffffffffff16111580611bf85750611bc36116b763ffffffff16565b8160050160009054906101000a90046fffffffffffffffffffffffffffffffff166fffffffffffffffffffffffffffffffff16105b15611c0b576003915050611d5a56611d55565b60008160040160149054906101000a900465ffffffffffff1665ffffffffffff161415611c40576004915050611d5a56611d54565b80600501601d9054906101000a900460ff1615611c65576007915050611d5a56611d53565b611d328160040160149054906101000a900465ffffffffffff1665ffffffffffff167f000000000000000000000000000000000000000000000000000000000000000073ffffffffffffffffffffffffffffffffffffffff1663c1a287e26040518163ffffffff1660e01b815260040160206040518083038186803b158015611cee5760006000fd5b505afa158015611d03573d600060003e3d6000fd5b505050506040513d601f19601f82011682018060405250810190611d27919061527b565b613c5763ffffffff16565b42101515611d48576006915050611d5a56611d52565b6005915050611d5a565b5b5b5b5b5b5b505b919050565b60076007811115611d6c57fe5b611d7b82611a2c63ffffffff16565b6007811115611d8657fe5b14151515611dc9576040517f08c379a0000000000000000000000000000000000000000000000000000000008152600401611dc090616688565b60405180910390fd5b60006003600050600083815260200190815260200160002060005090508060050160169054906101000a900465ffffffffffff1665ffffffffffff1643101515611e48576040517f08c379a0000000000000000000000000000000000000000000000000000000008152600401611e3f906163eb565b60405180910390fd5b600160009054906101000a900473ffffffffffffffffffffffffffffffffffffffff1673ffffffffffffffffffffffffffffffffffffffff163373ffffffffffffffffffffffffffffffffffffffff161480611f905750611ead612e6f63ffffffff16565b7f000000000000000000000000000000000000000000000000000000000000000073ffffffffffffffffffffffffffffffffffffffff1663782d6fe18360040160009054906101000a900473ffffffffffffffffffffffffffffffffffffffff16611f1f436001613e7063ffffffff16565b6040518363ffffffff1660e01b8152600401611f3c929190615820565b60206040518083038186803b158015611f555760006000fd5b505afa158015611f6a573d600060003e3d6000fd5b505050506040513d601f19601f82011682018060405250810190611f8e919061527b565b105b1515611fd1576040517f08c379a0000000000000000000000000000000000000000000000000000000008152600401611fc8906162bc565b60405180910390fd5b600181600501601c6101000a81548160ff0219169083151502179055506000600090505b8160000160005080549050811015612141577f000000000000000000000000000000000000000000000000000000000000000073ffffffffffffffffffffffffffffffffffffffff16624b1f12836000016000508381548110151561205657fe5b906000526020600020900160005b9054906101000a900473ffffffffffffffffffffffffffffffffffffffff16846001016000508481548110151561209757fe5b906000526020600020900160005b5085600201600050858154811015156120ba57fe5b906000526020600020900160005b508660040160149054906101000a900465ffffffffffff166040518563ffffffff1660e01b81526004016120ff94939291906157c4565b600060405180830381600087803b15801561211a5760006000fd5b505af115801561212f573d600060003e3d6000fd5b505050505b8080600101915050611ff5565b50817f789cf55be980739dad1d0699b93b58e806b51c9d96619bfa8fe0a28abaa7b30c60405160405180910390a2505b50565b600160009054906101000a900473ffffffffffffffffffffffffffffffffffffffff1681565b60007f8cad95687ba82c2ce50e74f7b754645e5117c3a5bec8151c0726d5857980a86660006000506040516121cf9190615642565b60405180910390206121e56144af63ffffffff16565b306040516020016121f99493929190615b43565b60405160208183030381529060405280519060200120905060007f8e25870c07e0b0b3884c78da52790939a455c275406c44ae8b434b692fb916ee878760405160200161224893929190615b80565b604051602081830303815290604052805190602001209050600082826040516020016122759291906156da565b6040516020818303038152906040528051906020012090506000600182888888604051600081526020016040526040516122b29493929190615ba2565b6020604051602081039080840390855afa1580156122d5573d600060003e3d6000fd5b505050602060405103519050600073ffffffffffffffffffffffffffffffffffffffff168173ffffffffffffffffffffffffffffffffffffffff1614151515612353576040517f08c379a000000000000000000000000000000000000000000000000000000000815260040161234a90616559565b60405180910390fd5b612364818a8a613fda63ffffffff16565b5050505061237156505050505b5050505050565b7f000000000000000000000000000000000000000000000000000000000000000081565b5b5050565b6123b0336144c363ffffffff16565b15156123f1576040517f08c379a00000000000000000000000000000000000000000000000000000000081526004016123e890615fe0565b60405180910390fd5b6000600160006101000a81548173ffffffffffffffffffffffffffffffffffffffff021916908373ffffffffffffffffffffffffffffffffffffffff1602179055505b565b6000600a9050612441565b90565b60007f0000000000000000000000000000000000000000000000000000000000000000905061246e565b90565b60006000600061248684613bb763ffffffff16565b15156124c7576040517f08c379a00000000000000000000000000000000000000000000000000000000081526004016124be90615e7f565b60405180910390fd5b6124d6846144d363ffffffff16565b1515612517576040517f08c379a000000000000000000000000000000000000000000000000000000000815260040161250e90616084565b60405180910390fd5b60006003600050600086815260200190815260200160002060005060050160009054906101000a90046fffffffffffffffffffffffffffffffff16905060006003600050600087815260200190815260200160002060005060060160009054906101000a90046fffffffffffffffffffffffffffffffff169050806fffffffffffffffffffffffffffffffff16826fffffffffffffffffffffffffffffffff16119250825082612629576125cf6116b763ffffffff16565b816fffffffffffffffffffffffffffffffff16111515612624576040517f08c379a000000000000000000000000000000000000000000000000000000000815260040161261b90615e40565b60405180910390fd5b61268d565b6126376116b763ffffffff16565b826fffffffffffffffffffffffffffffffff1611151561268c576040517f08c379a000000000000000000000000000000000000000000000000000000000815260040161268390615fa1565b60405180910390fd5b5b61269c866145e263ffffffff16565b809550819650505084848494509450945050506126b65650505b9193909250565b6060606060606000600160149054906101000a900465ffffffffffff1665ffffffffffff1690508067ffffffffffffffff811180156126fc5760006000fd5b5060405190808252806020026020018201604052801561273657816020015b612723614b51565b81526020019060019003908161271b5790505b50935083508067ffffffffffffffff811180156127535760006000fd5b506040519080825280602002602001820160405280156127825781602001602082028036833780820191505090505b50925082508067ffffffffffffffff8111801561279f5760006000fd5b506040519080825280602002602001820160405280156127d957816020015b6127c6614c33565b8152602001906001900390816127be5790505b50915081506000600190505b818165ffffffffffff16111515612e1d57600360005060008265ffffffffffff168152602001908152602001600020600050604051806101c0016040529081600082016000508054806020026020016040519081016040528092919081815260200182805480156128ab57602002820191906000526020600020905b8160009054906101000a900473ffffffffffffffffffffffffffffffffffffffff1673ffffffffffffffffffffffffffffffffffffffff1681526020019060010190808311612861575b5050505050815260200160018201600050805480602002602001604051908101604052809291908181526020016000905b8282101561299d578382906000526020600020900160005b508054600181600116156101000203166002900480601f0160208091040260200160405190810160405280929190818152602001828054600181600116156101000203166002900480156129895780601f1061295e57610100808354040283529160200191612989565b820191906000526020600020905b81548152906001019060200180831161296c57829003601f168201915b5050505050815260200190600101906128dc565b50505050815260200160028201600050805480602002602001604051908101604052809291908181526020016000905b82821015612a8e578382906000526020600020900160005b508054600181600116156101000203166002900480601f016020809104026020016040519081016040528092919081815260200182805460018160011615610100020316600290048015612a7a5780601f10612a4f57610100808354040283529160200191612a7a565b820191906000526020600020905b815481529060010190602001808311612a5d57829003601f168201915b5050505050815260200190600101906129cd565b505050508152602001600382016000508054600181600116156101000203166002900480601f016020809104026020016040519081016040528092919081815260200182805460018160011615610100020316600290048015612b325780601f10612b0757610100808354040283529160200191612b32565b820191906000526020600020905b815481529060010190602001808311612b1557829003601f168201915b505050505081526020016004820160009054906101000a900473ffffffffffffffffffffffffffffffffffffffff1673ffffffffffffffffffffffffffffffffffffffff1673ffffffffffffffffffffffffffffffffffffffff1681526020016004820160149054906101000a900465ffffffffffff1665ffffffffffff1665ffffffffffff16815260200160048201601a9054906101000a900465ffffffffffff1665ffffffffffff1665ffffffffffff1681526020016005820160009054906101000a90046fffffffffffffffffffffffffffffffff166fffffffffffffffffffffffffffffffff166fffffffffffffffffffffffffffffffff1681526020016005820160109054906101000a900465ffffffffffff1665ffffffffffff1665ffffffffffff1681526020016005820160169054906101000a900465ffffffffffff1665ffffffffffff1665ffffffffffff16815260200160058201601c9054906101000a900460ff1615151515815260200160058201601d9054906101000a900460ff161515151581526020016006820160009054906101000a90046fffffffffffffffffffffffffffffffff166fffffffffffffffffffffffffffffffff166fffffffffffffffffffffffffffffffff1681526020016006820160109054906101000a90046fffffffffffffffffffffffffffffffff166fffffffffffffffffffffffffffffffff166fffffffffffffffffffffffffffffffff1681526020015050856001830365ffffffffffff16815181101515612d7157fe5b6020026020010181905250612d938165ffffffffffff16611a2c63ffffffff16565b846001830365ffffffffffff16815181101515612dac57fe5b60200260200101906007811115612dbf57fe5b90816007811115612dcc57fe5b81526020015050612deb8165ffffffffffff168761380663ffffffff16565b836001830365ffffffffffff16815181101515612e0457fe5b60200260200101819052505b80806001019150506127e5565b50505b9193909250565b7f000000000000000000000000000000000000000000000000000000000000000081565b7f000000000000000000000000000000000000000000000000000000000000000081565b600060c87f000000000000000000000000000000000000000000000000000000000000000073ffffffffffffffffffffffffffffffffffffffff166318160ddd6040518163ffffffff1660e01b815260040160206040518083038186803b158015612eda5760006000fd5b505afa158015612eef573d600060003e3d6000fd5b505050506040513d601f19601f82011682018060405250810190612f13919061527b565b811515612f1c57fe5b049050612f24565b90565b6000600090505b828290508110156134045760008383838181101515612f4957fe5b905060200201359050612f6181613bb763ffffffff16565b1515612fa2576040517f08c379a0000000000000000000000000000000000000000000000000000000008152600401612f9990615e7f565b60405180910390fd5b612fb1816144d363ffffffff16565b1515612ff2576040517f08c379a0000000000000000000000000000000000000000000000000000000008152600401612fe990616084565b60405180910390fd5b6002600050600082815260200190815260200160002060005060003373ffffffffffffffffffffffffffffffffffffffff1673ffffffffffffffffffffffffffffffffffffffff16815260200190815260200160002060005060000160009054906101000a900460ff16151561309d576040517f08c379a000000000000000000000000000000000000000000000000000000000815260040161309490615f62565b60405180910390fd5b6005600050600082815260200190815260200160002060005060003373ffffffffffffffffffffffffffffffffffffffff1673ffffffffffffffffffffffffffffffffffffffff16815260200190815260200160002060009054906101000a900460ff16151515613143576040517f08c379a000000000000000000000000000000000000000000000000000000000815260040161313a906161f2565b60405180910390fd5b60016005600050600083815260200190815260200160002060005060003373ffffffffffffffffffffffffffffffffffffffff1673ffffffffffffffffffffffffffffffffffffffff16815260200190815260200160002060006101000a81548160ff021916908315150217905550600060006131c5836145e263ffffffff16565b9150915060006133196132726003600050600087815260200190815260200160002060005060050160009054906101000a90046fffffffffffffffffffffffffffffffff166fffffffffffffffffffffffffffffffff166003600050600088815260200190815260200160002060005060060160009054906101000a90046fffffffffffffffffffffffffffffffff166fffffffffffffffffffffffffffffffff16613c5763ffffffff16565b6002600050600087815260200190815260200160002060005060003373ffffffffffffffffffffffffffffffffffffffff1673ffffffffffffffffffffffffffffffffffffffff16815260200190815260200160002060005060000160039054906101000a900476ffffffffffffffffffffffffffffffffffffffffffffff1676ffffffffffffffffffffffffffffffffffffffffffffff166146df90919063ffffffff16565b90507f000000000000000000000000000000000000000000000000000000000000000073ffffffffffffffffffffffffffffffffffffffff1663b9f8ea6d848433856040518563ffffffff1660e01b815260040161337a949392919061584f565b600060405180830381600087803b1580156133955760006000fd5b505af11580156133aa573d600060003e3d6000fd5b50505050833373ffffffffffffffffffffffffffffffffffffffff167f28df778d69fdf2ff5a7357c6ab2ed2b2366966f5baf183da0e39b42577c6bc7c60405160405180910390a3505050505b8080600101915050612f2e565b505b5050565b7f000000000000000000000000000000000000000000000000000000000000000081565b600160149054906101000a900465ffffffffffff1681565b6004600781111561345357fe5b61346282611a2c63ffffffff16565b600781111561346d57fe5b1415156134af576040517f08c379a00000000000000000000000000000000000000000000000000000000081526004016134a690615d2a565b60405180910390fd5b6000600360005060008381526020019081526020016000206000509050600061357d427f000000000000000000000000000000000000000000000000000000000000000073ffffffffffffffffffffffffffffffffffffffff16636a42b8f86040518163ffffffff1660e01b815260040160206040518083038186803b1580156135395760006000fd5b505afa15801561354e573d600060003e3d6000fd5b505050506040513d601f19601f82011682018060405250810190613572919061527b565b613c5763ffffffff16565b90506000600090505b826000016000508054905081101561376e5761376083600001600050828154811015156135af57fe5b906000526020600020900160005b9054906101000a900473ffffffffffffffffffffffffffffffffffffffff1684600101600050838154811015156135f057fe5b906000526020600020900160005b508054600181600116156101000203166002900480601f0160208091040260200160405190810160405280929190818152602001828054600181600116156101000203166002900480156136935780601f1061366857610100808354040283529160200191613693565b820191906000526020600020905b81548152906001019060200180831161367657829003601f168201915b505050505085600201600050848154811015156136ac57fe5b906000526020600020900160005b508054600181600116156101000203166002900480601f01602080910402602001604051908101604052809291908181526020018280546001816001161561010002031660029004801561374f5780601f106137245761010080835404028352916020019161374f565b820191906000526020600020905b81548152906001019060200180831161373257829003601f168201915b50505050508561470563ffffffff16565b5b8080600101915050613586565b5061377e81613f1c63ffffffff16565b8260040160146101000a81548165ffffffffffff021916908365ffffffffffff160217905550827f9a2e42fd6722813d69113e7d0079d3d940171428df7373df9c7f7617cfda2892826040516137d491906167e9565b60405180910390a250505b50565b7f8e25870c07e0b0b3884c78da52790939a455c275406c44ae8b434b692fb916ee81565b61380e614c33565b6002600050600084815260200190815260200160002060005060008373ffffffffffffffffffffffffffffffffffffffff1673ffffffffffffffffffffffffffffffffffffffff1681526020019081526020016000206000506040518060800160405290816000820160009054906101000a900460ff161515151581526020016000820160019054906101000a900460ff161515151581526020016000820160029054906101000a900460ff161515151581526020016000820160039054906101000a900476ffffffffffffffffffffffffffffffffffffffffffffff1676ffffffffffffffffffffffffffffffffffffffffffffff1676ffffffffffffffffffffffffffffffffffffffffffffff1681526020015050905061392c565b92915050565b60056000506020528160005260406000206000506020528060005260406000206000915091509054906101000a900460ff1681565b6005600781111561397457fe5b61398382611a2c63ffffffff16565b600781111561398e57fe5b1415156139d0576040517f08c379a00000000000000000000000000000000000000000000000000000000081526004016139c790615db5565b60405180910390fd5b6000600360005060008381526020019081526020016000206000509050600181600501601d6101000a81548160ff0219169083151502179055506000600090505b8160000160005080549050811015613b84577f000000000000000000000000000000000000000000000000000000000000000073ffffffffffffffffffffffffffffffffffffffff16633ec5ab328360000160005083815481101515613a7357fe5b906000526020600020900160005b9054906101000a900473ffffffffffffffffffffffffffffffffffffffff168460010160005084815481101515613ab457fe5b906000526020600020900160005b508560020160005085815481101515613ad757fe5b906000526020600020900160005b508660040160149054906101000a900465ffffffffffff166040518563ffffffff1660e01b8152600401613b1c94939291906157c4565b600060405180830381600087803b158015613b375760006000fd5b505af1158015613b4c573d600060003e3d6000fd5b505050506040513d6000823e3d601f19601f82011682018060405250810190613b7591906151ad565b505b8080600101915050613a11565b50817f712ae1383f79ac853f8d882153778e0260ef8f03b504e2866e0593e04d2b291f60405160405180910390a2505b50565b60006000613bca83611a2c63ffffffff16565b905060046007811115613bd957fe5b816007811115613be557fe5b1480613c07575060036007811115613bf957fe5b816007811115613c0557fe5b145b80613c28575060056007811115613c1a57fe5b816007811115613c2657fe5b145b80613c49575060076007811115613c3b57fe5b816007811115613c4757fe5b145b915050613c5256505b919050565b600060008284019050838110151515613ca5576040517f08c379a0000000000000000000000000000000000000000000000000000000008152600401613c9c906161b3565b60405180910390fd5b80915050613caf56505b92915050565b6000613cd08383670de0b6b3a7640000613cdb63ffffffff16565b905080505b92915050565b6000600060006000198587098587029250828110838203039150506000811415613d1e57600084111515613d0f5760006000fd5b83820492508292505050613dd5565b8084111515613d2d5760006000fd5b6000848688099050828111820391508083039250600085866000031690508086049550808404935060018182600003040190508083028417935083506000600287600302189050808702600203810290508050808702600203810290508050808702600203810290508050808702600203810290508050808702600203810290508050808702600203810290508050808502955085508595505050505050613dd55650505050505b9392505050565b7f000000000000000000000000000000000000000000000000000000000000000073ffffffffffffffffffffffffffffffffffffffff16630793298783836040518363ffffffff1660e01b8152600401613e37929190615820565b600060405180830381600087803b158015613e525760006000fd5b505af1158015613e67573d600060003e3d6000fd5b505050505b5050565b6000828211151515613eb7576040517f08c379a0000000000000000000000000000000000000000000000000000000008152600401613eae90616791565b60405180910390fd5b8183039050613ec1565b92915050565b613ed6826148d963ffffffff16565b1515613f17576040517f08c379a0000000000000000000000000000000000000000000000000000000008152600401613f0e90616450565b60405180910390fd5b5b5050565b6000660100000000000082101515613f69576040517f08c379a0000000000000000000000000000000000000000000000000000000008152600401613f6090616649565b60405180910390fd5b819050613f71565b919050565b600070010000000000000000000000000000000082101515613fcd576040517f08c379a0000000000000000000000000000000000000000000000000000000008152600401613fc490615ebe565b60405180910390fd5b819050613fd5565b919050565b60016007811115613fe757fe5b613ff683611a2c63ffffffff16565b600781111561400157fe5b141515614043576040517f08c379a000000000000000000000000000000000000000000000000000000000815260040161403a906166ed565b60405180910390fd5b6000600360005060008481526020019081526020016000206000509050600015156002600050600085815260200190815260200160002060005060008673ffffffffffffffffffffffffffffffffffffffff1673ffffffffffffffffffffffffffffffffffffffff16815260200190815260200160002060005060000160009054906101000a900460ff161515141515614112576040517f08c379a00000000000000000000000000000000000000000000000000000000081526004016141099061601f565b60405180910390fd5b60007f000000000000000000000000000000000000000000000000000000000000000073ffffffffffffffffffffffffffffffffffffffff1663782d6fe1868460050160109054906101000a900465ffffffffffff166040518363ffffffff1660e01b81526004016141859291906158c8565b60206040518083038186803b15801561419e5760006000fd5b505afa1580156141b3573d600060003e3d6000fd5b505050506040513d601f19601f820116820180604052508101906141d7919061527b565b9050821561426e5761422f6142248360050160009054906101000a90046fffffffffffffffffffffffffffffffff166fffffffffffffffffffffffffffffffff1683613c5763ffffffff16565b613f7663ffffffff16565b8260050160006101000a8154816fffffffffffffffffffffffffffffffff02191690836fffffffffffffffffffffffffffffffff1602179055506142f9565b6142be6142b38360060160009054906101000a90046fffffffffffffffffffffffffffffffff166fffffffffffffffffffffffffffffffff1683613c5763ffffffff16565b613f7663ffffffff16565b8260060160006101000a8154816fffffffffffffffffffffffffffffffff02191690836fffffffffffffffffffffffffffffffff1602179055505b6040518060800160405280600115158152602001841515815260200160001515815260200161432d836148f363ffffffff16565b76ffffffffffffffffffffffffffffffffffffffffffffff168152602001506002600050600086815260200190815260200160002060005060008773ffffffffffffffffffffffffffffffffffffffff1673ffffffffffffffffffffffffffffffffffffffff16815260200190815260200160002060005060008201518160000160006101000a81548160ff02191690831515021790555060208201518160000160016101000a81548160ff02191690831515021790555060408201518160000160026101000a81548160ff02191690831515021790555060608201518160000160036101000a81548176ffffffffffffffffffffffffffffffffffffffffffffff021916908376ffffffffffffffffffffffffffffffffffffffffffffff160217905550905050821515848673ffffffffffffffffffffffffffffffffffffffff167f877856338e13f63d0c36822ff0ef736b80934cd90574a3a5bc9262c39d217c468460405161449f91906167e9565b60405180910390a450505b505050565b60006000469050809150506144c056505b90565b6000600190506144ce565b919050565b60006000600060006144ea8561177a63ffffffff16565b92509250925060018351148015614502575060018251145b801561450f575060018151145b801561455c57503073ffffffffffffffffffffffffffffffffffffffff1683600081518110151561453c57fe5b602002602001015173ffffffffffffffffffffffffffffffffffffffff16145b80156145d05750634e9568ef60e01b7bffffffffffffffffffffffffffffffffffffffffffffffffffffffff19166145af83600081518110151561459c57fe5b602002602001015161495e63ffffffff16565b7bffffffffffffffffffffffffffffffffffffffffffffffffffffffff1916145b93505050506145dd565050505b919050565b6000600060036000506000848152602001908152602001600020600050600201600050600081548110151561461357fe5b906000526020600020900160005b508054600181600116156101000203166002900480601f0160208091040260200160405190810160405280929190818152602001828054600181600116156101000203166002900480156146b65780601f1061468b576101008083540402835291602001916146b6565b820191906000526020600020905b81548152906001019060200180831161469957829003601f168201915b50505050508060200190518101906146ce9190614fa7565b819150915091506146da565b915091565b60006146fa83670de0b6b3a764000084613cdb63ffffffff16565b905080505b92915050565b7f000000000000000000000000000000000000000000000000000000000000000073ffffffffffffffffffffffffffffffffffffffff1663f2b06537858585856040516020016147589493929190615770565b604051602081830303815290604052805190602001206040518263ffffffff1660e01b815260040161478a9190615b31565b60206040518083038186803b1580156147a35760006000fd5b505afa1580156147b8573d600060003e3d6000fd5b505050506040513d601f19601f820116820180604052508101906147dc919061516a565b15151561481e576040517f08c379a000000000000000000000000000000000000000000000000000000000815260040161481590616360565b60405180910390fd5b7f000000000000000000000000000000000000000000000000000000000000000073ffffffffffffffffffffffffffffffffffffffff16630e70eace858585856040518563ffffffff1660e01b815260040161487d9493929190615770565b602060405180830381600087803b1580156148985760006000fd5b505af11580156148ad573d600060003e3d6000fd5b505050506040513d601f19601f820116820180604052508101906148d19190615191565b505b50505050565b60006000823b9050600081119150506148ee56505b919050565b60007701000000000000000000000000000000000000000000000082101515614951576040517f08c379a000000000000000000000000000000000000000000000000000000000815260040161494890616752565b60405180910390fd5b819050614959565b919050565b60008180519060200120905061496f565b919050565b8280548282559060005260206000209081019282156149ed579160200282015b828111156149ec5782518260006101000a81548173ffffffffffffffffffffffffffffffffffffffff021916908373ffffffffffffffffffffffffffffffffffffffff16021790555091602001919060010190614994565b5b5090506149fa9190614c7d565b5090565b828054828255906000526020600020908101928215614a4d579160200282015b82811115614a4c578251829080519060200190614a3c929190614abe565b5091602001919060010190614a1e565b5b509050614a5a9190614ca0565b5090565b828054828255906000526020600020908101928215614aad579160200282015b82811115614aac578251829080519060200190614a9c929190614cc8565b5091602001919060010190614a7e565b5b509050614aba9190614d5b565b5090565b828054600181600116156101000203166002900490600052602060002090601f016020900481019282614af45760008555614b40565b82601f10614b0d57805160ff1916838001178555614b40565b82800160010185558215614b40579182015b82811115614b3f5782518260005090905591602001919060010190614b1f565b5b509050614b4d9190614c7d565b5090565b604051806101c0016040528060608152602001606081526020016060815260200160608152602001600073ffffffffffffffffffffffffffffffffffffffff168152602001600065ffffffffffff168152602001600065ffffffffffff16815260200160006fffffffffffffffffffffffffffffffff168152602001600065ffffffffffff168152602001600065ffffffffffff16815260200160001515815260200160001515815260200160006fffffffffffffffffffffffffffffffff16815260200160006fffffffffffffffffffffffffffffffff1681526020015090565b6040518060800160405280600015158152602001600015158152602001600015158152602001600076ffffffffffffffffffffffffffffffffffffffffffffff1681526020015090565b614c82565b80821115614c9c5760008181506000905550600101614c82565b5090565b614ca5565b80821115614cc45760008181614cbb9190614d83565b50600101614ca5565b5090565b828054600181600116156101000203166002900490600052602060002090601f016020900481019282614cfe5760008555614d4a565b82601f10614d1757805160ff1916838001178555614d4a565b82800160010185558215614d4a579182015b82811115614d495782518260005090905591602001919060010190614d29565b5b509050614d579190614c7d565b5090565b614d60565b80821115614d7f5760008181614d769190614dcb565b50600101614d60565b5090565b50805460018160011615610100020316600290046000825580601f10614da95750614dc8565b601f016020900490600052602060002090810190614dc79190614c7d565b5b50565b50805460018160011615610100020316600290046000825580601f10614df15750614e10565b601f016020900490600052602060002090810190614e0f9190614c7d565b5b505661692c565b6000614e2a614e2584616863565b616815565b9050828152838383011115614e3f5760006000fd5b828260208301376000602084830101525b9392505050565b600082601f8301121515614e69578081fd5b81356020614e7e614e7983616840565b616815565b808382528282019150828601855b85811015614ed2578135880189603f8201121515614ea8578788fd5b614eb98a8783013560408401614e17565b855250848401935084820191505b600181019050614e8c565b5050809450505050505b92915050565b600082601f8301121515614ef4578081fd5b81356020614f09614f0483616840565b616815565b808382528282019150828601855b85811015614f4657614f2e898684358b0101614f56565b8452848401935084820191505b600181019050614f17565b5050809450505050505b92915050565b600082601f8301121515614f68578081fd5b614f7783833560208501614e17565b90505b92915050565b600060208284031215614f91578081fd5b8135614f9c816168ee565b809150505b92915050565b6000600060408385031215614fba578081fd5b8251614fc5816168ee565b80925050602083015190505b9250929050565b600060006000600060808587031215614fef578182fd5b843567ffffffffffffffff80821115615006578384fd5b818701915087601f830112151561501b578384fd5b8135602061503061502b83616840565b616815565b8083825282820191508286018c84858702890101111561504e578889fd5b8896505b8487101561507f578035615065816168ee565b80845250838301925083810190505b600187019650615052565b508099505050808901359350505080821115615099578384fd5b6150a588838901614ee2565b945060408701359150808211156150ba578384fd5b6150c688838901614e57565b935060608701359150808211156150db578283fd5b506150e887828801614f56565b9150505b92959194509250565b6000600060208385031215615108578182fd5b823567ffffffffffffffff8082111561511f578384fd5b818501915085601f8301121515615134578384fd5b813581811115615142578485fd5b866020602083028501011115615156578485fd5b6020830194508093505050505b9250929050565b60006020828403121561517b578081fd5b815161518681616917565b809150505b92915050565b6000602082840312156151a2578081fd5b815190505b92915050565b6000602082840312156151be578081fd5b815167ffffffffffffffff8111156151d4578182fd5b808301905083601f82011215156151e9578182fd5b80516151fc6151f782616863565b616815565b818152856020838501011115615210578384fd5b6152218260208301602086016168b9565b8093505050505b92915050565b6000600060408385031215615241578182fd5b823561524c816168ee565b80925050602083013590505b9250929050565b600060208284031215615270578081fd5b813590505b92915050565b60006020828403121561528c578081fd5b815190505b92915050565b60006000604083850312156152aa578182fd5b8235915060208301356152bc816168ee565b809150505b9250929050565b60006000604083850312156152db578182fd5b8235915060208301356152ed81616917565b809150505b9250929050565b6000600060006000600060a08688031215615312578283fd5b85359450602086013561532481616917565b80945050604086013560ff81168114151561533d578384fd5b8093505060608601359150608086013590505b9295509295909350565b73ffffffffffffffffffffffffffffffffffffffff811682525b5050565b6000815180845260208085019450808401835b838110156153c35773ffffffffffffffffffffffffffffffffffffffff8251168752828701965082820191505b60018101905061538b565b505050508290505b92915050565b6000815180845260208085018081965082840281019150828601855b8581101561541d5782840389526154058483516154cc565b9350848201915084890198505b6001810190506153ed565b5050508093505050505b92915050565b6000815180845260208085019450808401835b83811015615469576154538783516155be565b828701965082820191505b600181019050615440565b505050508290505b92915050565b6000815180845260208085019450808401835b838110156154b45761549d8783516155d2565b60808701965082820191505b60018101905061548a565b505050508290505b92915050565b80151582525b5050565b600081518084526154e48160208601602086016168b9565b60207fffffffffffffffffffffffffffffffffffffffffffffffffffffffffffffffe0601f8301168501019150505b92915050565b600081546001808216600081146155375760018114615573576155b4565b607f600284041686527fffffffffffffffffffffffffffffffffffffffffffffffffffffffffffffff00831660208701526040860193506155b4565b60028304808752615583866168a8565b60005b828110156155a85781546020828b01015284820191505b602081019050615586565b6020818a010196505050505b5050505b92915050565b6008811015156155ca57fe5b8082525b5050565b80511515825260208101511515602083015260408101511515604083015276ffffffffffffffffffffffffffffffffffffffffffffff60608201511660608301525b5050565b6fffffffffffffffffffffffffffffffff811682525b5050565b65ffffffffffff811682525b5050565b60008083546001808216600081146156615760018114615696576156cc565b7fffffffffffffffffffffffffffffffffffffffffffffffffffffffffffffff0083168652607f6002840416860193506156cc565b600283048786526020808720875b838110156156c2578154818b015285820191505b82810190506156a4565b5050508087019450505b505050809150505b92915050565b60007f190100000000000000000000000000000000000000000000000000000000000082528360028301528260228301526042820190505b9392505050565b600060208201905073ffffffffffffffffffffffffffffffffffffffff831682525b92915050565b600060408201905073ffffffffffffffffffffffffffffffffffffffff841682528260208301525b9392505050565b600073ffffffffffffffffffffffffffffffffffffffff861682526080602083015261579f60808301866154cc565b82810360408401526157b181866154cc565b9150508260608301525b95945050505050565b600073ffffffffffffffffffffffffffffffffffffffff86168252608060208301526157f36080830186615519565b82810360408401526158058186615519565b91505065ffffffffffff831660608301525b95945050505050565b600060408201905073ffffffffffffffffffffffffffffffffffffffff841682528260208301525b9392505050565b600060808201905073ffffffffffffffffffffffffffffffffffffffff80871683528560208401528085166040840152508260608301525b95945050505050565b600060608201905073ffffffffffffffffffffffffffffffffffffffff8516825283602083015282151560408301525b949350505050565b600060408201905073ffffffffffffffffffffffffffffffffffffffff8416825265ffffffffffff831660208301525b9392505050565b6000606082526159126060830186615378565b828103602084015261592481866153d1565b9050828103604084015261593881856153d1565b9150505b949350505050565b60006060808301818452808751808352608092508286019150602083818302880101818b01875b84811015615ae5577fffffffffffffffffffffffffffffffffffffffffffffffffffffffffffffff808a840301865281516101c081518186526159b082870182615378565b91505085820151858203878701526159c882826153d1565b915050604080830151868303828801526159e283826153d1565b92505050898201518582038b8701526159fb82826154cc565b91505088820151615a0e8a87018261535a565b5060a080830151615a2182880182615632565b505060c080830151615a3582880182615632565b505060e080830151615a4982880182615618565b505061010080830151615a5e82880182615632565b505061012080830151615a7382880182615632565b505061014080830151615a88828801826154c2565b505061016080830151615a9d828801826154c2565b505061018080830151615ab282880182615618565b50506101a0808301519250615ac981870184615618565b508094505050838201915083860195505b60018101905061596b565b505087810382890152615af8818b61542d565b955050505050508281036040840152615b118185615477565b9150505b949350505050565b600060208201905082151582525b92915050565b60006020820190508282525b92915050565b600060808201905085825284602083015283604083015273ffffffffffffffffffffffffffffffffffffffff831660608301525b95945050505050565b600060608201905084825283602083015282151560408301525b949350505050565b600060808201905085825260ff851660208301528360408301528260608301525b95945050505050565b600060208201905073ffffffffffffffffffffffffffffffffffffffff831682525b92915050565b600060208201905073ffffffffffffffffffffffffffffffffffffffff831682525b92915050565b600060208201905073ffffffffffffffffffffffffffffffffffffffff831682525b92915050565b6000602082019050615c5682846155be565b5b92915050565b600060208252615c7060208301846154cc565b90505b92915050565b6000610160808352615c8d8184018f6154cc565b91505073ffffffffffffffffffffffffffffffffffffffff8c16602083015265ffffffffffff808c166040840152808b1660608401526fffffffffffffffffffffffffffffffff8a16608084015280891660a084015280881660c08401525085151560e0830152841515610100830152615d0b610120830185615618565b615d19610140830184615618565b5b9c9b505050505050505050505050565b600060208252604460208301527f476f7665726e6f72416c7068613a3a71756575653a2070726f706f73616c206360408301527f616e206f6e6c792062652071756575656420696620697420697320737563636560608301527f6564656400000000000000000000000000000000000000000000000000000000608083015260a0820190505b919050565b600060208252604560208301527f476f7665726e6f72416c7068613a3a657865637574653a2070726f706f73616c60408301527f2063616e206f6e6c79206265206578656375746564206966206974206973207160608301527f7565756564000000000000000000000000000000000000000000000000000000608083015260a0820190505b919050565b600060208252601a60208301527f496e73756666696369656e7420616761696e737420766f74657300000000000060408301526060820190505b919050565b600060208252601560208301527f50726f706f73616c206e6f7420636f6d706c657465000000000000000000000060408301526060820190505b919050565b600060208252601060208301527f457863656564732031323820626974730000000000000000000000000000000060408301526060820190505b919050565b600060208252602960208301527f476f7665726e6f72416c7068613a3a73746174653a20696e76616c696420707260408301527f6f706f73616c206964000000000000000000000000000000000000000000000060608301526080820190505b919050565b600060208252600d60208301527f486173206e6f7420766f7465640000000000000000000000000000000000000060408301526060820190505b919050565b600060208252601660208301527f496e73756666696369656e7420666f7220766f7465730000000000000000000060408301526060820190505b919050565b600060208252600e60208301527f4e6f7420417574686f72697a656400000000000000000000000000000000000060408301526060820190505b919050565b600060208252602d60208301527f476f7665726e6f72416c7068613a3a5f63617374566f74653a20766f7465722060408301527f616c726561647920766f7465640000000000000000000000000000000000000060608301526080820190505b919050565b600060208252601360208301527f4e6f742061206d6574612070726f706f73616c0000000000000000000000000060408301526060820190505b919050565b600060208252605960208301527f476f7665726e6f72416c7068613a3a70726f706f73653a206f6e65206c69766560408301527f2070726f706f73616c207065722070726f706f7365722c20666f756e6420616e60608301527f20616c72656164792070656e64696e672070726f706f73616c00000000000000608083015260a0820190505b919050565b600060208252602860208301527f476f7665726e6f72416c7068613a3a70726f706f73653a20746f6f206d616e7960408301527f20616374696f6e7300000000000000000000000000000000000000000000000060608301526080820190505b919050565b600060208252601160208301527f6164646974696f6e206f766572666c6f7700000000000000000000000000000060408301526060820190505b919050565b600060208252600f60208301527f416c726561647920636c61696d6564000000000000000000000000000000000060408301526060820190505b919050565b600060208252604460208301527f476f7665726e6f72416c7068613a3a70726f706f73653a2070726f706f73616c60408301527f2066756e6374696f6e20696e666f726d6174696f6e206172697479206d69736d60608301527f6174636800000000000000000000000000000000000000000000000000000000608083015260a0820190505b919050565b600060208252602f60208301527f476f7665726e6f72416c7068613a3a63616e63656c3a2070726f706f7365722060408301527f61626f7665207468726573686f6c64000000000000000000000000000000000060608301526080820190505b919050565b600060208252601860208301527f5265776172647320616c7265616479207265636569766564000000000000000060408301526060820190505b919050565b600060208252604460208301527f476f7665726e6f72416c7068613a3a5f71756575654f725265766572743a207060408301527f726f706f73616c20616374696f6e20616c72656164792071756575656420617460608301527f2065746100000000000000000000000000000000000000000000000000000000608083015260a0820190505b919050565b600060208252602560208301527f43616e742063616e63656c20616674657220766f74696e6720697320636f6d7060408301527f6c6574656400000000000000000000000000000000000000000000000000000060608301526080820190505b919050565b600060208252600e60208301527f4e6f74206120636f6e747261637400000000000000000000000000000000000060408301526060820190505b919050565b600060208252602c60208301527f476f7665726e6f72416c7068613a3a70726f706f73653a206d7573742070726f60408301527f7669646520616374696f6e73000000000000000000000000000000000000000060608301526080820190505b919050565b600060208252603f60208301527f476f7665726e6f72416c7068613a3a70726f706f73653a2070726f706f73657260408301527f20766f7465732062656c6f772070726f706f73616c207468726573686f6c640060608301526080820190505b919050565b600060208252602f60208301527f476f7665726e6f72416c7068613a3a63617374566f746542795369673a20696e60408301527f76616c6964207369676e6174757265000000000000000000000000000000000060608301526080820190505b919050565b600060208252605860208301527f476f7665726e6f72416c7068613a3a70726f706f73653a206f6e65206c69766560408301527f2070726f706f73616c207065722070726f706f7365722c20666f756e6420616e60608301527f20616c7265616479206163746976652070726f706f73616c0000000000000000608083015260a0820190505b919050565b600060208252600f60208301527f457863656564732034382062697473000000000000000000000000000000000060408301526060820190505b919050565b600060208252603660208301527f476f7665726e6f72416c7068613a3a63616e63656c3a2063616e6e6f7420636160408301527f6e63656c2065786563757465642070726f706f73616c0000000000000000000060608301526080820190505b919050565b600060208252602a60208301527f476f7665726e6f72416c7068613a3a5f63617374566f74653a20766f74696e6760408301527f20697320636c6f7365640000000000000000000000000000000000000000000060608301526080820190505b919050565b600060208252601060208301527f457863656564732031383420626974730000000000000000000000000000000060408301526060820190505b919050565b600060208252601560208301527f7375627472616374696f6e20756e646572666c6f77000000000000000000000060408301526060820190505b919050565b60006080820190506167e282846155d2565b5b92915050565b60006020820190508282525b92915050565b600060208201905065ffffffffffff831682525b92915050565b6000604051905081810181811067ffffffffffffffff8211171561683557fe5b80604052505b919050565b600067ffffffffffffffff82111561685457fe5b6020602083020190505b919050565b600067ffffffffffffffff82111561687757fe5b60207fffffffffffffffffffffffffffffffffffffffffffffffffffffffffffffffe0601f8401160190505b919050565b60008181526020812090505b919050565b60005b838110156168d85780820151818401525b6020810190506168bc565b838111156168e7576000848401525b505b505050565b73ffffffffffffffffffffffffffffffffffffffff8116811415156169135760006000fd5b5b50565b801515811415156169285760006000fd5b5b50565bfea26469706673582212204411d1f33118ebf8a91c6ef475816ac61d4d2578ce1c66de32949cef147ddac164736f6c63430007060033",
  "linkReferences": {},
  "deployedLinkReferences": {}
}