{
  "_format": "hh-sol-artifact-1",
  "contractName": "TDaoGovernorAlpha",
  "sourceName": "contracts/core/TDao/TDaoGovernorAlpha.sol",
  "abi": [
    {
      "inputs": [
        {
          "internalType": "address",
          "name": "timelock_",
          "type": "address"
        },
        {
          "internalType": "address",
          "name": "votingToken_",
          "type": "address"
        },
        {
          "internalType": "address",
          "name": "guardian_",
          "type": "address"
        },
        {
          "internalType": "uint48",
          "name": "votingPeriodBlocks_",
          "type": "uint48"
        },
        {
          "internalType": "contract ITDao",
          "name": "tDao_",
          "type": "address"
        }
      ],
      "stateMutability": "nonpayable",
      "type": "constructor"
    },
    {
      "anonymous": false,
      "inputs": [
        {
          "indexed": true,
          "internalType": "uint256",
          "name": "id",
          "type": "uint256"
        }
      ],
      "name": "ProposalCanceled",
      "type": "event"
    },
    {
      "anonymous": false,
      "inputs": [
        {
          "indexed": true,
          "internalType": "uint256",
          "name": "id",
          "type": "uint256"
        },
        {
          "indexed": true,
          "internalType": "address",
          "name": "proposer",
          "type": "address"
        }
      ],
      "name": "ProposalCreated",
      "type": "event"
    },
    {
      "anonymous": false,
      "inputs": [
        {
          "indexed": true,
          "internalType": "uint256",
          "name": "id",
          "type": "uint256"
        }
      ],
      "name": "ProposalExecuted",
      "type": "event"
    },
    {
      "anonymous": false,
      "inputs": [
        {
          "indexed": true,
          "internalType": "uint256",
          "name": "id",
          "type": "uint256"
        },
        {
          "indexed": false,
          "internalType": "uint256",
          "name": "eta",
          "type": "uint256"
        }
      ],
      "name": "ProposalQueued",
      "type": "event"
    },
    {
      "anonymous": false,
      "inputs": [
        {
          "indexed": true,
          "internalType": "address",
          "name": "caller",
          "type": "address"
        },
        {
          "indexed": true,
          "internalType": "uint256",
          "name": "proposalID",
          "type": "uint256"
        }
      ],
      "name": "UnderlyingVotingRewardsDistributed",
      "type": "event"
    },
    {
      "anonymous": false,
      "inputs": [
        {
          "indexed": true,
          "internalType": "address",
          "name": "voter",
          "type": "address"
        },
        {
          "indexed": true,
          "internalType": "uint256",
          "name": "proposalId",
          "type": "uint256"
        },
        {
          "indexed": true,
          "internalType": "bool",
          "name": "support",
          "type": "bool"
        },
        {
          "indexed": false,
          "internalType": "uint256",
          "name": "votes",
          "type": "uint256"
        }
      ],
      "name": "VoteCast",
      "type": "event"
    },
    {
      "anonymous": false,
      "inputs": [
        {
          "indexed": true,
          "internalType": "address",
          "name": "voter",
          "type": "address"
        },
        {
          "indexed": false,
          "internalType": "uint256",
          "name": "count",
          "type": "uint256"
        }
      ],
      "name": "VotingRewardsDistributed",
      "type": "event"
    },
    {
      "inputs": [],
      "name": "BALLOT_TYPEHASH",
      "outputs": [
        {
          "internalType": "bytes32",
          "name": "",
          "type": "bytes32"
        }
      ],
      "stateMutability": "view",
      "type": "function"
    },
    {
      "inputs": [],
      "name": "DOMAIN_TYPEHASH",
      "outputs": [
        {
          "internalType": "bytes32",
          "name": "",
          "type": "bytes32"
        }
      ],
      "stateMutability": "view",
      "type": "function"
    },
    {
      "inputs": [],
      "name": "INFLATION_PERCENTAGE",
      "outputs": [
        {
          "internalType": "uint256",
          "name": "",
          "type": "uint256"
        }
      ],
      "stateMutability": "view",
      "type": "function"
    },
    {
      "inputs": [],
      "name": "__abdicate",
      "outputs": [],
      "stateMutability": "nonpayable",
      "type": "function"
    },
    {
      "inputs": [
        {
          "internalType": "uint256",
          "name": "proposalId",
          "type": "uint256"
        }
      ],
      "name": "cancel",
      "outputs": [],
      "stateMutability": "nonpayable",
      "type": "function"
    },
    {
      "inputs": [
        {
          "internalType": "uint256",
          "name": "proposalId",
          "type": "uint256"
        },
        {
          "internalType": "bool",
          "name": "support",
          "type": "bool"
        }
      ],
      "name": "castVote",
      "outputs": [],
      "stateMutability": "nonpayable",
      "type": "function"
    },
    {
      "inputs": [
        {
          "internalType": "uint256",
          "name": "proposalId",
          "type": "uint256"
        },
        {
          "internalType": "bool",
          "name": "support",
          "type": "bool"
        },
        {
          "internalType": "uint8",
          "name": "v",
          "type": "uint8"
        },
        {
          "internalType": "bytes32",
          "name": "r",
          "type": "bytes32"
        },
        {
          "internalType": "bytes32",
          "name": "s",
          "type": "bytes32"
        }
      ],
      "name": "castVoteBySig",
      "outputs": [],
      "stateMutability": "nonpayable",
      "type": "function"
    },
    {
      "inputs": [
        {
          "internalType": "uint256[]",
          "name": "proposalIDs",
          "type": "uint256[]"
        }
      ],
      "name": "claimUnderlyingVotingRewards",
      "outputs": [],
      "stateMutability": "nonpayable",
      "type": "function"
    },
    {
      "inputs": [
        {
          "internalType": "uint256[]",
          "name": "proposalIDs",
          "type": "uint256[]"
        }
      ],
      "name": "claimVotingRewards",
      "outputs": [],
      "stateMutability": "nonpayable",
      "type": "function"
    },
    {
      "inputs": [
        {
          "internalType": "uint256",
          "name": "proposalID",
          "type": "uint256"
        },
        {
          "internalType": "address",
          "name": "voter",
          "type": "address"
        }
      ],
      "name": "countVotingRewards",
      "outputs": [
        {
          "internalType": "uint256",
          "name": "",
          "type": "uint256"
        }
      ],
      "stateMutability": "view",
      "type": "function"
    },
    {
      "inputs": [
        {
          "internalType": "uint256",
          "name": "proposalId",
          "type": "uint256"
        }
      ],
      "name": "execute",
      "outputs": [],
      "stateMutability": "nonpayable",
      "type": "function"
    },
    {
      "inputs": [
        {
          "internalType": "uint256",
          "name": "proposalId",
          "type": "uint256"
        }
      ],
      "name": "getActions",
      "outputs": [
        {
          "internalType": "address[]",
          "name": "targets",
          "type": "address[]"
        },
        {
          "internalType": "string[]",
          "name": "signatures",
          "type": "string[]"
        },
        {
          "internalType": "bytes[]",
          "name": "calldatas",
          "type": "bytes[]"
        }
      ],
      "stateMutability": "view",
      "type": "function"
    },
    {
      "inputs": [
        {
          "internalType": "uint256",
          "name": "proposalID",
          "type": "uint256"
        }
      ],
      "name": "getMetaProposalParameters",
      "outputs": [
        {
          "internalType": "address",
          "name": "governorAlpha",
          "type": "address"
        },
        {
          "internalType": "uint256",
          "name": "underlyingProposalID",
          "type": "uint256"
        },
        {
          "internalType": "bool",
          "name": "moreForThanAgainst",
          "type": "bool"
        }
      ],
      "stateMutability": "view",
      "type": "function"
    },
    {
      "inputs": [],
      "name": "getProposals",
      "outputs": [
        {
          "components": [
            {
              "internalType": "address[]",
              "name": "targets",
              "type": "address[]"
            },
            {
              "internalType": "string[]",
              "name": "signatures",
              "type": "string[]"
            },
            {
              "internalType": "bytes[]",
              "name": "calldatas",
              "type": "bytes[]"
            },
            {
              "internalType": "string",
              "name": "title",
              "type": "string"
            },
            {
              "internalType": "string",
              "name": "ipfsHash",
              "type": "string"
            },
            {
              "internalType": "address",
              "name": "proposer",
              "type": "address"
            },
            {
              "internalType": "uint48",
              "name": "eta",
              "type": "uint48"
            },
            {
              "internalType": "uint48",
              "name": "id",
              "type": "uint48"
            },
            {
              "internalType": "uint128",
              "name": "forVotes",
              "type": "uint128"
            },
            {
              "internalType": "uint48",
              "name": "startBlock",
              "type": "uint48"
            },
            {
              "internalType": "uint48",
              "name": "endBlock",
              "type": "uint48"
            },
            {
              "internalType": "bool",
              "name": "canceled",
              "type": "bool"
            },
            {
              "internalType": "bool",
              "name": "executed",
              "type": "bool"
            },
            {
              "internalType": "uint128",
              "name": "againstVotes",
              "type": "uint128"
            },
            {
              "internalType": "uint128",
              "name": "initialSupply",
              "type": "uint128"
            },
            {
              "internalType": "enum GovernorAlpha.ProposalState",
              "name": "state",
              "type": "uint8"
            }
          ],
          "internalType": "struct GovernorAlphaWithVotingRewards.ProposalInfo[]",
          "name": "proposalsInfo",
          "type": "tuple[]"
        }
      ],
      "stateMutability": "view",
      "type": "function"
    },
    {
      "inputs": [
        {
          "internalType": "address",
          "name": "voter",
          "type": "address"
        }
      ],
      "name": "getProposalsVoterInfo",
      "outputs": [
        {
          "components": [
            {
              "internalType": "uint48",
              "name": "id",
              "type": "uint48"
            },
            {
              "components": [
                {
                  "internalType": "bool",
                  "name": "hasVoted",
                  "type": "bool"
                },
                {
                  "internalType": "bool",
                  "name": "support",
                  "type": "bool"
                },
                {
                  "internalType": "bool",
                  "name": "rewardReceived",
                  "type": "bool"
                },
                {
                  "internalType": "uint184",
                  "name": "votes",
                  "type": "uint184"
                }
              ],
              "internalType": "struct GovernorAlpha.Receipt",
              "name": "receipt",
              "type": "tuple"
            },
            {
              "internalType": "uint256",
              "name": "votingPower",
              "type": "uint256"
            },
            {
              "internalType": "uint256",
              "name": "votingRewards",
              "type": "uint256"
            }
          ],
          "internalType": "struct GovernorAlphaWithVotingRewards.ProposalVoterInfo[]",
          "name": "proposalsVoterInfo",
          "type": "tuple[]"
        }
      ],
      "stateMutability": "view",
      "type": "function"
    },
    {
      "inputs": [
        {
          "internalType": "uint256",
          "name": "proposalId",
          "type": "uint256"
        },
        {
          "internalType": "address",
          "name": "voter",
          "type": "address"
        }
      ],
      "name": "getReceipt",
      "outputs": [
        {
          "components": [
            {
              "internalType": "bool",
              "name": "hasVoted",
              "type": "bool"
            },
            {
              "internalType": "bool",
              "name": "support",
              "type": "bool"
            },
            {
              "internalType": "bool",
              "name": "rewardReceived",
              "type": "bool"
            },
            {
              "internalType": "uint184",
              "name": "votes",
              "type": "uint184"
            }
          ],
          "internalType": "struct GovernorAlpha.Receipt",
          "name": "",
          "type": "tuple"
        }
      ],
      "stateMutability": "view",
      "type": "function"
    },
    {
      "inputs": [],
      "name": "guardian",
      "outputs": [
        {
          "internalType": "address",
          "name": "",
          "type": "address"
        }
      ],
      "stateMutability": "view",
      "type": "function"
    },
    {
      "inputs": [
        {
          "internalType": "uint256",
          "name": "",
          "type": "uint256"
        },
        {
          "internalType": "address",
          "name": "",
          "type": "address"
        }
      ],
      "name": "hasClaimedUnderlyingRewards",
      "outputs": [
        {
          "internalType": "bool",
          "name": "",
          "type": "bool"
        }
      ],
      "stateMutability": "view",
      "type": "function"
    },
    {
      "inputs": [],
      "name": "implementsVotingRewardsWithToken",
      "outputs": [
        {
          "internalType": "address",
          "name": "",
          "type": "address"
        }
      ],
      "stateMutability": "view",
      "type": "function"
    },
    {
      "inputs": [
        {
          "internalType": "address",
          "name": "",
          "type": "address"
        }
      ],
      "name": "latestProposalIds",
      "outputs": [
        {
          "internalType": "uint256",
          "name": "",
          "type": "uint256"
        }
      ],
      "stateMutability": "view",
      "type": "function"
    },
    {
      "inputs": [],
      "name": "name",
      "outputs": [
        {
          "internalType": "string",
          "name": "",
          "type": "string"
        }
      ],
      "stateMutability": "view",
      "type": "function"
    },
    {
      "inputs": [],
      "name": "proposalCount",
      "outputs": [
        {
          "internalType": "uint48",
          "name": "",
          "type": "uint48"
        }
      ],
      "stateMutability": "view",
      "type": "function"
    },
    {
      "inputs": [],
      "name": "proposalMaxOperations",
      "outputs": [
        {
          "internalType": "uint256",
          "name": "",
          "type": "uint256"
        }
      ],
      "stateMutability": "pure",
      "type": "function"
    },
    {
      "inputs": [],
      "name": "proposalThreshold",
      "outputs": [
        {
          "internalType": "uint256",
          "name": "",
          "type": "uint256"
        }
      ],
      "stateMutability": "view",
      "type": "function"
    },
    {
      "inputs": [
        {
          "internalType": "uint256",
          "name": "",
          "type": "uint256"
        }
      ],
      "name": "proposals",
      "outputs": [
        {
          "internalType": "string",
          "name": "title",
          "type": "string"
        },
        {
          "internalType": "string",
          "name": "ipfsHash",
          "type": "string"
        },
        {
          "internalType": "address",
          "name": "proposer",
          "type": "address"
        },
        {
          "internalType": "uint48",
          "name": "eta",
          "type": "uint48"
        },
        {
          "internalType": "uint48",
          "name": "id",
          "type": "uint48"
        },
        {
          "internalType": "uint128",
          "name": "forVotes",
          "type": "uint128"
        },
        {
          "internalType": "uint48",
          "name": "startBlock",
          "type": "uint48"
        },
        {
          "internalType": "uint48",
          "name": "endBlock",
          "type": "uint48"
        },
        {
          "internalType": "bool",
          "name": "canceled",
          "type": "bool"
        },
        {
          "internalType": "bool",
          "name": "executed",
          "type": "bool"
        },
        {
          "internalType": "uint128",
          "name": "againstVotes",
          "type": "uint128"
        },
        {
          "internalType": "uint128",
          "name": "initialSupply",
          "type": "uint128"
        }
      ],
      "stateMutability": "view",
      "type": "function"
    },
    {
      "inputs": [
        {
          "internalType": "address[]",
          "name": "targets",
          "type": "address[]"
        },
        {
          "internalType": "string[]",
          "name": "signatures",
          "type": "string[]"
        },
        {
          "internalType": "bytes[]",
          "name": "calldatas",
          "type": "bytes[]"
        },
        {
          "internalType": "string",
          "name": "title",
          "type": "string"
        },
        {
          "internalType": "string",
          "name": "ipfsHash",
          "type": "string"
        }
      ],
      "name": "propose",
      "outputs": [
        {
          "internalType": "uint256",
          "name": "",
          "type": "uint256"
        }
      ],
      "stateMutability": "nonpayable",
      "type": "function"
    },
    {
      "inputs": [
        {
          "internalType": "uint256",
          "name": "proposalId",
          "type": "uint256"
        }
      ],
      "name": "queue",
      "outputs": [],
      "stateMutability": "nonpayable",
      "type": "function"
    },
    {
      "inputs": [],
      "name": "quorumVotes",
      "outputs": [
        {
          "internalType": "uint256",
          "name": "",
          "type": "uint256"
        }
      ],
      "stateMutability": "view",
      "type": "function"
    },
    {
      "inputs": [
        {
          "internalType": "uint256",
          "name": "proposalId",
          "type": "uint256"
        }
      ],
      "name": "state",
      "outputs": [
        {
          "internalType": "enum GovernorAlpha.ProposalState",
          "name": "",
          "type": "uint8"
        }
      ],
      "stateMutability": "view",
      "type": "function"
    },
    {
      "inputs": [],
      "name": "tDao",
      "outputs": [
        {
          "internalType": "contract ITDao",
          "name": "",
          "type": "address"
        }
      ],
      "stateMutability": "view",
      "type": "function"
    },
    {
      "inputs": [],
      "name": "timelock",
      "outputs": [
        {
          "internalType": "contract TimelockInterface",
          "name": "",
          "type": "address"
        }
      ],
      "stateMutability": "view",
      "type": "function"
    },
    {
      "inputs": [
        {
          "internalType": "contract GovernorAlpha",
          "name": "",
          "type": "address"
        },
        {
          "internalType": "uint256",
          "name": "",
          "type": "uint256"
        }
      ],
      "name": "voteInUnderlyingProtocol",
      "outputs": [],
      "stateMutability": "pure",
      "type": "function"
    },
    {
      "inputs": [],
      "name": "votingDelay",
      "outputs": [
        {
          "internalType": "uint256",
          "name": "",
          "type": "uint256"
        }
      ],
      "stateMutability": "pure",
      "type": "function"
    },
    {
      "inputs": [],
      "name": "votingPeriod",
      "outputs": [
        {
          "internalType": "uint256",
          "name": "",
          "type": "uint256"
        }
      ],
      "stateMutability": "view",
      "type": "function"
    },
    {
      "inputs": [],
      "name": "votingPeriodBlocks",
      "outputs": [
        {
          "internalType": "uint48",
          "name": "",
          "type": "uint48"
        }
      ],
      "stateMutability": "view",
      "type": "function"
    },
    {
      "inputs": [],
      "name": "votingToken",
      "outputs": [
        {
          "internalType": "contract VotingTokenInterface",
          "name": "",
          "type": "address"
        }
      ],
      "stateMutability": "view",
      "type": "function"
    }
  ],
  "bytecode": "0x610100604052348015620000135760006000fd5b5060405162007ccd38038062007ccd83398181016040528101906200003991906200035c565b5b6040518060400160405280601381526020017f5444616f20476f7665726e6f7220416c70686100000000000000000000000000815260200150858585855b84848484845b8460006000509080519060200190620000999291906200027e565b50600073ffffffffffffffffffffffffffffffffffffffff168473ffffffffffffffffffffffffffffffffffffffff1614158015620001055750600073ffffffffffffffffffffffffffffffffffffffff168373ffffffffffffffffffffffffffffffffffffffff1614155b80156200013f5750600073ffffffffffffffffffffffffffffffffffffffff168273ffffffffffffffffffffffffffffffffffffffff1614155b15156200014c5760006000fd5b8373ffffffffffffffffffffffffffffffffffffffff1660808173ffffffffffffffffffffffffffffffffffffffff16815260200150508273ffffffffffffffffffffffffffffffffffffffff1660c08173ffffffffffffffffffffffffffffffffffffffff168152602001505081600160006101000a81548173ffffffffffffffffffffffffffffffffffffffff021916908373ffffffffffffffffffffffffffffffffffffffff16021790555060008165ffffffffffff16111515620002145760006000fd5b8065ffffffffffff1660a08165ffffffffffff16815260200150505b50505050505b50505050508073ffffffffffffffffffffffffffffffffffffffff1660e08173ffffffffffffffffffffffffffffffffffffffff16815260200150505b505050505062000436565b8280546200028c90620003f1565b90600052602060002090601f016020900481019282620002b0576000855562000301565b82601f10620002cb57805160ff191683800117855562000301565b8280016001018555821562000301579182015b82811115620003005782518260005090905591602001919060010190620002de565b5b50905062000310919062000314565b5090565b6200031a565b808211156200033657600081815060009055506001016200031a565b50905662000435565b6001600160a01b03811681141515620003585760006000fd5b505b565b6000600060006000600060a08688031215620003785760006000fd5b855162000385816200033f565b80955050602086015162000399816200033f565b809450506040860151620003ad816200033f565b80935050606086015165ffffffffffff811681141515620003ce5760006000fd5b809250506080860151620003e2816200033f565b809150505b9295509295909350565b60008160011c9050600182168015156200040c57607f821691505b602082108114156200042e57634e487b7160e01b600052602260045260246000fd5b505b919050565b5b60805160a05160c05160e0516177e6620004e7600039600081816121bf0152818161321d0152614762015260008181610d5901528181611519015281816120ae01528181612a9c01528181612d1301528181612d5f0152818161335e01528181613895015261493f0152600081816109910152612d370152600081816112f5015281816116630152818161331201528181613d75015281816142bf01528181615084015261518d01526177e66000f3fe60806040523480156100115760006000fd5b50600436106102615760003560e01c806362564c4811610146578063d0b8bffe116100be578063ddf0b0091161008d578063e23a9a5211610072578063e23a9a52146106c2578063e3a5bcaf146106f2578063fe0d94c11461072257610261565b8063ddf0b00914610688578063deaaa7cc146106a457610261565b8063d0b8bffe14610600578063d33219b41461061c578063da35c6641461063a578063db1165111461065857610261565b806383b0ce1511610115578063b24b7ffd116100fa578063b24b7ffd14610594578063b58131b0146105b2578063c5b3116d146105d057610261565b806383b0ce1514610544578063b03401231461057657610261565b806362564c48146104e0578063760fbc13146104fe5780637bdbe4d0146105085780637e90f9ab1461052657610261565b8063328dd982116101d9578063452a9320116101a85780634761e2041161018d5780634761e204146104765780634c92beb7146104a65780634e9568ef146104c457610261565b8063452a93201461043c5780634634c61f1461045a57610261565b8063328dd982146103a05780633932abb1146103d25780633e4f49e6146103f057806340e58ee51461042057610261565b806315373e3d1161023057806320606b701161021557806320606b701461034657806324bc1a641461036457806329c0e5fd1461038257610261565b806315373e3d146102fa57806317977c611461031657610261565b8063013cf08b1461026757806302a251a3146102a2578063062f1466146102c057806306fdde03146102dc57610261565b60006000fd5b610281600480360381019061027c9190615906565b61073e565b6040516102999c9b9a999897969594939291906159f8565b60405180910390f35b6102aa61098d565b6040516102b79190615ad2565b60405180910390f35b6102da60048036038101906102d59190615ae4565b6109c2565b005b6102e4610c69565b6040516102f19190615b63565b60405180910390f35b610314600480360381019061030f9190615b94565b610cfa565b005b610330600480360381019061032b9190615bf0565b610d14565b60405161033d9190615ad2565b60405180910390f35b61034e610d2f565b60405161035b9190615c19565b60405180910390f35b61036c610d53565b6040516103799190615ad2565b60405180910390f35b61038a610dfb565b6040516103979190615ad2565b60405180910390f35b6103ba60048036038101906103b59190615906565b610e06565b6040516103c993929190615c89565b60405180910390f35b6103da61108a565b6040516103e79190615ad2565b60405180910390f35b61040a60048036038101906104059190615906565b611098565b6040516104179190615d88565b60405180910390f35b61043a60048036038101906104359190615906565b6113bb565b005b6104446117e9565b6040516104519190615da1565b60405180910390f35b610474600480360381019061046f9190615dc9565b61180f565b005b610490600480360381019061048b9190615bf0565b6119e0565b60405161049d9190615e74565b60405180910390f35b6104ae6121bd565b6040516104bb9190615ef5565b60405180910390f35b6104de60048036038101906104d99190615f1d565b6121e1565b005b6104e86121e6565b6040516104f59190615faa565b60405180910390f35b6105066129f5565b005b610510612a8a565b60405161051d9190615ad2565b60405180910390f35b61052e612a98565b60405161053b9190615da1565b60405180910390f35b61055e60048036038101906105599190615906565b612ac5565b60405161056d93929190616190565b60405180910390f35b61057e612d11565b60405161058b91906161c8565b60405180910390f35b61059c612d35565b6040516105a991906161f0565b60405180910390f35b6105ba612d59565b6040516105c79190615ad2565b60405180910390f35b6105ea60048036038101906105e5919061620a565b612e01565b6040516105f79190615ad2565b60405180910390f35b61061a60048036038101906106159190615ae4565b612e20565b005b610624613310565b604051610631919061623d565b60405180910390f35b610642613334565b60405161064f91906161f0565b60405180910390f35b610672600480360381019061066d91906165ac565b61334c565b60405161067f9190615ad2565b60405180910390f35b6106a2600480360381019061069d9190615906565b613cd9565b005b6106ac61406e565b6040516106b99190615c19565b60405180910390f35b6106dc60048036038101906106d7919061620a565b614092565b6040516106e99190616687565b60405180910390f35b61070c6004803603810190610707919061620a565b6141be565b60405161071991906166a0565b60405180910390f35b61073c60048036038101906107379190615906565b6141f3565b005b6003600050602052806000526040600020600091509050806003016000508054610767906166b4565b80601f0160208091040260200160405190810160405280929190818152602001828054610793906166b4565b80156107e05780601f106107b5576101008083540402835291602001916107e0565b820191906000526020600020905b8154815290600101906020018083116107c357829003601f168201915b5050505050908060040160005080546107f8906166b4565b80601f0160208091040260200160405190810160405280929190818152602001828054610824906166b4565b80156108715780601f1061084657610100808354040283529160200191610871565b820191906000526020600020905b81548152906001019060200180831161085457829003601f168201915b5050505050908060050160009054906101000a900473ffffffffffffffffffffffffffffffffffffffff16908060050160149054906101000a900465ffffffffffff169080600501601a9054906101000a900465ffffffffffff16908060060160009054906101000a90046fffffffffffffffffffffffffffffffff16908060060160109054906101000a900465ffffffffffff16908060060160169054906101000a900465ffffffffffff169080600601601c9054906101000a900460ff169080600601601d9054906101000a900460ff16908060070160009054906101000a90046fffffffffffffffffffffffffffffffff16908060070160109054906101000a90046fffffffffffffffffffffffffffffffff1690508c565b60007f000000000000000000000000000000000000000000000000000000000000000065ffffffffffff1690506109bf565b90565b600060006000600090505b84849050811015610bf95784848281811015156109ed576109ec61670f565b5b9050602002013591508150610a078261445c63ffffffff16565b1515610a48576040517f08c379a0000000000000000000000000000000000000000000000000000000008152600401610a3f90616740565b60405180910390fd5b6002600050600083815260200190815260200160002060005060003373ffffffffffffffffffffffffffffffffffffffff1673ffffffffffffffffffffffffffffffffffffffff16815260200190815260200160002060005060000160009054906101000a900460ff161515610af3576040517f08c379a0000000000000000000000000000000000000000000000000000000008152600401610aea9061677f565b60405180910390fd5b60006002600050600084815260200190815260200160002060005060003373ffffffffffffffffffffffffffffffffffffffff1673ffffffffffffffffffffffffffffffffffffffff16815260200190815260200160002060005090508060000160029054906101000a900460ff16151515610ba4576040517f08c379a0000000000000000000000000000000000000000000000000000000008152600401610b9b906167be565b60405180910390fd5b60018160000160026101000a81548160ff021916908315150217905550610be084610bd5853361453463ffffffff16565b6146ef63ffffffff16565b93508350505b8080610bf19061682e565b9150506109cd565b506000821115610c6257610c13338361475663ffffffff16565b3373ffffffffffffffffffffffffffffffffffffffff167f56cd411799f8eaf36ff267057223a17836afa0a91a109fe7e102ef919e6fa19d83604051610c599190615ad2565b60405180910390a25b50505b5050565b60006000508054610c79906166b4565b80601f0160208091040260200160405190810160405280929190818152602001828054610ca5906166b4565b8015610cf25780601f10610cc757610100808354040283529160200191610cf2565b820191906000526020600020905b815481529060010190602001808311610cd557829003601f168201915b505050505081565b610d0b3383836147f563ffffffff16565b610d10565b5050565b60046000506020528060005260406000206000915090505481565b7f8cad95687ba82c2ce50e74f7b754645e5117c3a5bec8151c0726d5857980a86681565b600060287f000000000000000000000000000000000000000000000000000000000000000073ffffffffffffffffffffffffffffffffffffffff166318160ddd6040518163ffffffff1660e01b8152600401602060405180830381865afa158015610dc3573d600060003e3d6000fd5b505050506040513d601f19601f82011682018060405250810190610de7919061686d565b610df1919061688b565b9050610df8565b90565b6611c37937e0800081565b606060606060600060036000506000868152602001908152602001600020600050905080600001600050816001016000508260020160005082805480602002602001604051908101604052809291908181526020018280548015610ebf57602002820191906000526020600020905b8160009054906101000a900473ffffffffffffffffffffffffffffffffffffffff1673ffffffffffffffffffffffffffffffffffffffff1681526020019060010190808311610e75575b5050505050925081805480602002602001604051908101604052809291908181526020016000905b82821015610f98578382906000526020600020900160005b508054610f0b906166b4565b80601f0160208091040260200160405190810160405280929190818152602001828054610f37906166b4565b8015610f845780601f10610f5957610100808354040283529160200191610f84565b820191906000526020600020905b815481529060010190602001808311610f6757829003601f168201915b505050505081526020019060010190610ee7565b50505050915080805480602002602001604051908101604052809291908181526020016000905b82821015611070578382906000526020600020900160005b508054610fe3906166b4565b80601f016020809104026020016040519081016040528092919081815260200182805461100f906166b4565b801561105c5780601f106110315761010080835404028352916020019161105c565b820191906000526020600020905b81548152906001019060200180831161103f57829003601f168201915b505050505081526020019060010190610fbf565b5050505090509350935093505061108356505b9193909250565b600060019050611095565b90565b600081600160149054906101000a900465ffffffffffff1665ffffffffffff16101580156110c65750600082115b1515611107576040517f08c379a00000000000000000000000000000000000000000000000000000000081526004016110fe906168cf565b60405180910390fd5b600060036000506000848152602001908152602001600020600050905080600601601c9054906101000a900460ff16156111495760029150506113b6566113b4565b8060060160109054906101000a900465ffffffffffff1665ffffffffffff164311151561117e5760009150506113b6566113b3565b8060060160169054906101000a900465ffffffffffff1665ffffffffffff16431115156111b35760019150506113b6566113b2565b8060070160009054906101000a90046fffffffffffffffffffffffffffffffff166fffffffffffffffffffffffffffffffff168160060160009054906101000a90046fffffffffffffffffffffffffffffffff166fffffffffffffffffffffffffffffffff16111580611264575061122f610d5363ffffffff16565b8160060160009054906101000a90046fffffffffffffffffffffffffffffffff166fffffffffffffffffffffffffffffffff16105b156112775760039150506113b6566113b1565b60008160050160149054906101000a900465ffffffffffff1665ffffffffffff1614156112ac5760049150506113b6566113b0565b80600601601d9054906101000a900460ff16156112d15760079150506113b6566113af565b61138e8160050160149054906101000a900465ffffffffffff1665ffffffffffff167f000000000000000000000000000000000000000000000000000000000000000073ffffffffffffffffffffffffffffffffffffffff1663c1a287e26040518163ffffffff1660e01b8152600401602060405180830381865afa15801561135f573d600060003e3d6000fd5b505050506040513d601f19601f82011682018060405250810190611383919061686d565b6146ef63ffffffff16565b421015156113a45760069150506113b6566113ae565b60059150506113b6565b5b5b5b5b5b5b505b919050565b600760078111156113cf576113ce615d16565b5b6113de8261109863ffffffff16565b60078111156113f0576113ef615d16565b5b14151515611433576040517f08c379a000000000000000000000000000000000000000000000000000000000815260040161142a90616934565b60405180910390fd5b60006003600050600083815260200190815260200160002060005090508060060160169054906101000a900465ffffffffffff1665ffffffffffff16431015156114b2576040517f08c379a00000000000000000000000000000000000000000000000000000000081526004016114a990616999565b60405180910390fd5b600160009054906101000a900473ffffffffffffffffffffffffffffffffffffffff1673ffffffffffffffffffffffffffffffffffffffff163373ffffffffffffffffffffffffffffffffffffffff1614806115ea5750611517612d5963ffffffff16565b7f000000000000000000000000000000000000000000000000000000000000000073ffffffffffffffffffffffffffffffffffffffff1663782d6fe18360050160009054906101000a900473ffffffffffffffffffffffffffffffffffffffff16611589436001614cc863ffffffff16565b6040518363ffffffff1660e01b81526004016115a69291906169fe565b602060405180830381865afa1580156115c4573d600060003e3d6000fd5b505050506040513d601f19601f820116820180604052508101906115e8919061686d565b105b151561162b576040517f08c379a000000000000000000000000000000000000000000000000000000000815260040161162290616a2d565b60405180910390fd5b600181600601601c6101000a81548160ff0219169083151502179055506000600090505b81600001600050805490508110156117b6577f000000000000000000000000000000000000000000000000000000000000000073ffffffffffffffffffffffffffffffffffffffff16624b1f1283600001600050838154811015156116b7576116b661670f565b5b906000526020600020900160005b9054906101000a900473ffffffffffffffffffffffffffffffffffffffff1684600101600050848154811015156116ff576116fe61670f565b5b906000526020600020900160005b5085600201600050858154811015156117295761172861670f565b5b906000526020600020900160005b508660050160149054906101000a900465ffffffffffff166040518563ffffffff1660e01b815260040161176e9493929190616b31565b600060405180830381600087803b1580156117895760006000fd5b505af115801561179e573d600060003e3d6000fd5b505050505b80806117ae9061682e565b91505061164f565b50817f789cf55be980739dad1d0699b93b58e806b51c9d96619bfa8fe0a28abaa7b30c60405160405180910390a2505b50565b600160009054906101000a900473ffffffffffffffffffffffffffffffffffffffff1681565b60007f8cad95687ba82c2ce50e74f7b754645e5117c3a5bec8151c0726d5857980a86660006000506040516118449190616b8d565b604051809103902046306040516020016118619493929190616c28565b60405160208183030381529060405280519060200120905060007f8e25870c07e0b0b3884c78da52790939a455c275406c44ae8b434b692fb916ee87876040516020016118b093929190616c65565b604051602081830303815290604052805190602001209050600082826040516020016118dd929190616c87565b60405160208183030381529060405280519060200120905060006001828888886040516000815260200160405260405161191a9493929190616cc6565b6020604051602081039080840390855afa15801561193d573d600060003e3d6000fd5b505050602060405103519050600073ffffffffffffffffffffffffffffffffffffffff168173ffffffffffffffffffffffffffffffffffffffff16141515156119bb576040517f08c379a00000000000000000000000000000000000000000000000000000000081526004016119b290616cf0565b60405180910390fd5b6119cc818a8a6147f563ffffffff16565b505050506119d956505050505b5050505050565b6060600160149054906101000a900465ffffffffffff1665ffffffffffff1667ffffffffffffffff811115611a1857611a17616265565b5b604051908082528060200260200182016040528015611a5157816020015b611a3e61542a565b815260200190600190039081611a365790505b50905080506000600090505b600160149054906101000a900465ffffffffffff1665ffffffffffff168165ffffffffffff1610156121af576000600182611a989190616d55565b65ffffffffffff169050600060036000506000838152602001908152602001600020600050604051806101e001604052908160008201600050805480602002602001604051908101604052809291908181526020018280548015611b5157602002820191906000526020600020905b8160009054906101000a900473ffffffffffffffffffffffffffffffffffffffff1673ffffffffffffffffffffffffffffffffffffffff1681526020019060010190808311611b07575b5050505050815260200160018201600050805480602002602001604051908101604052809291908181526020016000905b82821015611c33578382906000526020600020900160005b508054611ba6906166b4565b80601f0160208091040260200160405190810160405280929190818152602001828054611bd2906166b4565b8015611c1f5780601f10611bf457610100808354040283529160200191611c1f565b820191906000526020600020905b815481529060010190602001808311611c0257829003601f168201915b505050505081526020019060010190611b82565b50505050815260200160028201600050805480602002602001604051908101604052809291908181526020016000905b82821015611d14578382906000526020600020900160005b508054611c87906166b4565b80601f0160208091040260200160405190810160405280929190818152602001828054611cb3906166b4565b8015611d005780601f10611cd557610100808354040283529160200191611d00565b820191906000526020600020905b815481529060010190602001808311611ce357829003601f168201915b505050505081526020019060010190611c63565b505050508152602001600382016000508054611d2f906166b4565b80601f0160208091040260200160405190810160405280929190818152602001828054611d5b906166b4565b8015611da85780601f10611d7d57610100808354040283529160200191611da8565b820191906000526020600020905b815481529060010190602001808311611d8b57829003601f168201915b50505050508152602001600482016000508054611dc4906166b4565b80601f0160208091040260200160405190810160405280929190818152602001828054611df0906166b4565b8015611e3d5780601f10611e1257610100808354040283529160200191611e3d565b820191906000526020600020905b815481529060010190602001808311611e2057829003601f168201915b505050505081526020016005820160009054906101000a900473ffffffffffffffffffffffffffffffffffffffff1673ffffffffffffffffffffffffffffffffffffffff1673ffffffffffffffffffffffffffffffffffffffff1681526020016005820160149054906101000a900465ffffffffffff1665ffffffffffff1665ffffffffffff16815260200160058201601a9054906101000a900465ffffffffffff1665ffffffffffff1665ffffffffffff1681526020016006820160009054906101000a90046fffffffffffffffffffffffffffffffff166fffffffffffffffffffffffffffffffff166fffffffffffffffffffffffffffffffff1681526020016006820160109054906101000a900465ffffffffffff1665ffffffffffff1665ffffffffffff1681526020016006820160169054906101000a900465ffffffffffff1665ffffffffffff1665ffffffffffff16815260200160068201601c9054906101000a900460ff1615151515815260200160068201601d9054906101000a900460ff161515151581526020016007820160009054906101000a90046fffffffffffffffffffffffffffffffff166fffffffffffffffffffffffffffffffff166fffffffffffffffffffffffffffffffff1681526020016007820160109054906101000a90046fffffffffffffffffffffffffffffffff166fffffffffffffffffffffffffffffffff166fffffffffffffffffffffffffffffffff1681526020015050905060405180608001604052808260e0015165ffffffffffff168152602001612092848861409263ffffffff16565b81526020014383610120015165ffffffffffff161015612153577f000000000000000000000000000000000000000000000000000000000000000073ffffffffffffffffffffffffffffffffffffffff1663782d6fe1888561012001516040518363ffffffff1660e01b815260040161210c929190616d86565b602060405180830381865afa15801561212a573d600060003e3d6000fd5b505050506040513d601f19601f8201168201806040525081019061214e919061686d565b612156565b60005b815260200161216b848861453463ffffffff16565b815260200150848465ffffffffffff1681518110151561218e5761218d61670f565b5b602002602001018190525050505b80806121a790616dbd565b915050611a5d565b508090506121b8565b919050565b7f000000000000000000000000000000000000000000000000000000000000000081565b5b5050565b6060600160149054906101000a900465ffffffffffff1665ffffffffffff1667ffffffffffffffff81111561221e5761221d616265565b5b60405190808252806020026020018201604052801561225757816020015b612244615463565b81526020019060019003908161223c5790505b50905080506000600090505b600160149054906101000a900465ffffffffffff1665ffffffffffff168165ffffffffffff1610156129e957600060018261229e9190616d55565b65ffffffffffff169050600060036000506000838152602001908152602001600020600050604051806101e00160405290816000820160005080548060200260200160405190810160405280929190818152602001828054801561235757602002820191906000526020600020905b8160009054906101000a900473ffffffffffffffffffffffffffffffffffffffff1673ffffffffffffffffffffffffffffffffffffffff168152602001906001019080831161230d575b5050505050815260200160018201600050805480602002602001604051908101604052809291908181526020016000905b82821015612439578382906000526020600020900160005b5080546123ac906166b4565b80601f01602080910402602001604051908101604052809291908181526020018280546123d8906166b4565b80156124255780601f106123fa57610100808354040283529160200191612425565b820191906000526020600020905b81548152906001019060200180831161240857829003601f168201915b505050505081526020019060010190612388565b50505050815260200160028201600050805480602002602001604051908101604052809291908181526020016000905b8282101561251a578382906000526020600020900160005b50805461248d906166b4565b80601f01602080910402602001604051908101604052809291908181526020018280546124b9906166b4565b80156125065780601f106124db57610100808354040283529160200191612506565b820191906000526020600020905b8154815290600101906020018083116124e957829003601f168201915b505050505081526020019060010190612469565b505050508152602001600382016000508054612535906166b4565b80601f0160208091040260200160405190810160405280929190818152602001828054612561906166b4565b80156125ae5780601f10612583576101008083540402835291602001916125ae565b820191906000526020600020905b81548152906001019060200180831161259157829003601f168201915b505050505081526020016004820160005080546125ca906166b4565b80601f01602080910402602001604051908101604052809291908181526020018280546125f6906166b4565b80156126435780601f1061261857610100808354040283529160200191612643565b820191906000526020600020905b81548152906001019060200180831161262657829003601f168201915b505050505081526020016005820160009054906101000a900473ffffffffffffffffffffffffffffffffffffffff1673ffffffffffffffffffffffffffffffffffffffff1673ffffffffffffffffffffffffffffffffffffffff1681526020016005820160149054906101000a900465ffffffffffff1665ffffffffffff1665ffffffffffff16815260200160058201601a9054906101000a900465ffffffffffff1665ffffffffffff1665ffffffffffff1681526020016006820160009054906101000a90046fffffffffffffffffffffffffffffffff166fffffffffffffffffffffffffffffffff166fffffffffffffffffffffffffffffffff1681526020016006820160109054906101000a900465ffffffffffff1665ffffffffffff1665ffffffffffff1681526020016006820160169054906101000a900465ffffffffffff1665ffffffffffff1665ffffffffffff16815260200160068201601c9054906101000a900460ff1615151515815260200160068201601d9054906101000a900460ff161515151581526020016007820160009054906101000a90046fffffffffffffffffffffffffffffffff166fffffffffffffffffffffffffffffffff166fffffffffffffffffffffffffffffffff1681526020016007820160109054906101000a90046fffffffffffffffffffffffffffffffff166fffffffffffffffffffffffffffffffff166fffffffffffffffffffffffffffffffff1681526020015050905060405180610200016040528082600001518152602001826020015181526020018260400151815260200182606001518152602001826080015181526020018260a0015173ffffffffffffffffffffffffffffffffffffffff1681526020018260c0015165ffffffffffff1681526020018260e0015165ffffffffffff1681526020018261010001516fffffffffffffffffffffffffffffffff16815260200182610120015165ffffffffffff16815260200182610140015165ffffffffffff1681526020018261016001511515815260200182610180015115158152602001826101a001516fffffffffffffffffffffffffffffffff168152602001826101c001516fffffffffffffffffffffffffffffffff1681526020016129938461109863ffffffff16565b60078111156129a5576129a4615d16565b5b815260200150848465ffffffffffff168151811015156129c8576129c761670f565b5b602002602001018190525050505b80806129e190616dbd565b915050612263565b508090506129f2565b90565b612a0433614d2863ffffffff16565b1515612a45576040517f08c379a0000000000000000000000000000000000000000000000000000000008152600401612a3c90616de8565b60405180910390fd5b6000600160006101000a81548173ffffffffffffffffffffffffffffffffffffffff021916908373ffffffffffffffffffffffffffffffffffffffff1602179055505b565b6000600a9050612a95565b90565b60007f00000000000000000000000000000000000000000000000000000000000000009050612ac2565b90565b600060006000612ada8461445c63ffffffff16565b1515612b1b576040517f08c379a0000000000000000000000000000000000000000000000000000000008152600401612b1290616740565b60405180910390fd5b612b2a84614d3863ffffffff16565b1515612b6b576040517f08c379a0000000000000000000000000000000000000000000000000000000008152600401612b6290616e27565b60405180910390fd5b60006003600050600086815260200190815260200160002060005060060160009054906101000a90046fffffffffffffffffffffffffffffffff16905060006003600050600087815260200190815260200160002060005060070160009054906101000a90046fffffffffffffffffffffffffffffffff169050806fffffffffffffffffffffffffffffffff16826fffffffffffffffffffffffffffffffff16119250825082612c7d57612c23610d5363ffffffff16565b816fffffffffffffffffffffffffffffffff16111515612c78576040517f08c379a0000000000000000000000000000000000000000000000000000000008152600401612c6f90616e66565b60405180910390fd5b612ce1565b612c8b610d5363ffffffff16565b826fffffffffffffffffffffffffffffffff16111515612ce0576040517f08c379a0000000000000000000000000000000000000000000000000000000008152600401612cd790616ea5565b60405180910390fd5b5b612cf086614e5563ffffffff16565b80955081965050508484849450945094505050612d0a5650505b9193909250565b7f000000000000000000000000000000000000000000000000000000000000000081565b7f000000000000000000000000000000000000000000000000000000000000000081565b600060c87f000000000000000000000000000000000000000000000000000000000000000073ffffffffffffffffffffffffffffffffffffffff166318160ddd6040518163ffffffff1660e01b8152600401602060405180830381865afa158015612dc9573d600060003e3d6000fd5b505050506040513d601f19601f82011682018060405250810190612ded919061686d565b612df7919061688b565b9050612dfe565b90565b6000612e13838361453463ffffffff16565b9050612e1a565b92915050565b6000600090505b8282905081101561330a5760008383838181101515612e4957612e4861670f565b5b905060200201359050612e618161445c63ffffffff16565b1515612ea2576040517f08c379a0000000000000000000000000000000000000000000000000000000008152600401612e9990616740565b60405180910390fd5b612eb181614d3863ffffffff16565b1515612ef2576040517f08c379a0000000000000000000000000000000000000000000000000000000008152600401612ee990616e27565b60405180910390fd5b6002600050600082815260200190815260200160002060005060003373ffffffffffffffffffffffffffffffffffffffff1673ffffffffffffffffffffffffffffffffffffffff16815260200190815260200160002060005060000160009054906101000a900460ff161515612f9d576040517f08c379a0000000000000000000000000000000000000000000000000000000008152600401612f949061677f565b60405180910390fd5b6005600050600082815260200190815260200160002060005060003373ffffffffffffffffffffffffffffffffffffffff1673ffffffffffffffffffffffffffffffffffffffff16815260200190815260200160002060009054906101000a900460ff16151515613043576040517f08c379a000000000000000000000000000000000000000000000000000000000815260040161303a90616ee4565b60405180910390fd5b60016005600050600083815260200190815260200160002060005060003373ffffffffffffffffffffffffffffffffffffffff1673ffffffffffffffffffffffffffffffffffffffff16815260200190815260200160002060006101000a81548160ff021916908315150217905550600060006130c583614e5563ffffffff16565b9150915060006132196131726003600050600087815260200190815260200160002060005060060160009054906101000a90046fffffffffffffffffffffffffffffffff166fffffffffffffffffffffffffffffffff166003600050600088815260200190815260200160002060005060070160009054906101000a90046fffffffffffffffffffffffffffffffff166fffffffffffffffffffffffffffffffff166146ef63ffffffff16565b6002600050600087815260200190815260200160002060005060003373ffffffffffffffffffffffffffffffffffffffff1673ffffffffffffffffffffffffffffffffffffffff16815260200190815260200160002060005060000160039054906101000a900476ffffffffffffffffffffffffffffffffffffffffffffff1676ffffffffffffffffffffffffffffffffffffffffffffff16614f4990919063ffffffff16565b90507f000000000000000000000000000000000000000000000000000000000000000073ffffffffffffffffffffffffffffffffffffffff1663b9f8ea6d848433856040518563ffffffff1660e01b815260040161327a9493929190616f23565b600060405180830381600087803b1580156132955760006000fd5b505af11580156132aa573d600060003e3d6000fd5b50505050833373ffffffffffffffffffffffffffffffffffffffff167f28df778d69fdf2ff5a7357c6ab2ed2b2366966f5baf183da0e39b42577c6bc7c60405160405180910390a3505050505b80806133029061682e565b915050612e27565b505b5050565b7f000000000000000000000000000000000000000000000000000000000000000081565b600160149054906101000a900465ffffffffffff1681565b600061335c612d5963ffffffff16565b7f000000000000000000000000000000000000000000000000000000000000000073ffffffffffffffffffffffffffffffffffffffff1663782d6fe1336133aa436001614cc863ffffffff16565b6040518363ffffffff1660e01b81526004016133c79291906169fe565b602060405180830381865afa1580156133e5573d600060003e3d6000fd5b505050506040513d601f19601f82011682018060405250810190613409919061686d565b11151561344b576040517f08c379a000000000000000000000000000000000000000000000000000000000815260040161344290616f64565b60405180910390fd5b8451865114801561345d575083518651145b151561349e576040517f08c379a000000000000000000000000000000000000000000000000000000000815260040161349590616fc9565b60405180910390fd5b600086511115156134e4576040517f08c379a00000000000000000000000000000000000000000000000000000000081526004016134db90617054565b60405180910390fd5b6134f2612a8a63ffffffff16565b865111151515613537576040517f08c379a000000000000000000000000000000000000000000000000000000000815260040161352e906170b9565b60405180910390fd5b6000600460005060003373ffffffffffffffffffffffffffffffffffffffff1673ffffffffffffffffffffffffffffffffffffffff168152602001908152602001600020600050549050600081111561367357600061359b8261109863ffffffff16565b9050600160078111156135b1576135b0615d16565b5b8160078111156135c4576135c3615d16565b5b14151515613607576040517f08c379a00000000000000000000000000000000000000000000000000000000081526004016135fe9061711e565b60405180910390fd5b6000600781111561361b5761361a615d16565b5b81600781111561362e5761362d615d16565b5b14151515613671576040517f08c379a0000000000000000000000000000000000000000000000000000000008152600401613668906171a9565b60405180910390fd5b505b6000600090505b86518110156136df576136cb888281518110151561369b5761369a61670f565b5b602002602001015188838151811015156136b8576136b761670f565b5b6020026020010151614f6f63ffffffff16565b5b80806136d79061682e565b91505061367a565b5060006136ff436136f461108a63ffffffff16565b6146ef63ffffffff16565b905060006137208261371561098d63ffffffff16565b6146ef63ffffffff16565b90506001601481819054906101000a900465ffffffffffff168092919061374690616dbd565b91906101000a81548165ffffffffffff021916908365ffffffffffff160217905550506601000000000000600160149054906101000a900465ffffffffffff1665ffffffffffff1610151561379b5760006000fd5b6000604051806101e001604052808b81526020018a81526020018981526020018881526020018781526020013373ffffffffffffffffffffffffffffffffffffffff168152602001600065ffffffffffff168152602001600160149054906101000a900465ffffffffffff1665ffffffffffff16815260200160006fffffffffffffffffffffffffffffffff16815260200161383c85614fc463ffffffff16565b65ffffffffffff16815260200161385884614fc463ffffffff16565b65ffffffffffff16815260200160001515815260200160001515815260200160006fffffffffffffffffffffffffffffffff16815260200161392e7f000000000000000000000000000000000000000000000000000000000000000073ffffffffffffffffffffffffffffffffffffffff166318160ddd6040518163ffffffff1660e01b8152600401602060405180830381865afa1580156138ff573d600060003e3d6000fd5b505050506040513d601f19601f82011682018060405250810190613923919061686d565b61501e63ffffffff16565b6fffffffffffffffffffffffffffffffff16815260200150905080600360005060008360e0015165ffffffffffff168152602001908152602001600020600050600082015181600001600050908051906020019061398d929190615565565b5060208201518160010160005090805190602001906139ad9291906155ef565b5060408201518160020160005090805190602001906139cd92919061564f565b5060608201518160030160005090805190602001906139ed9291906156af565b506080820151816004016000509080519060200190613a0d9291906156af565b5060a08201518160050160006101000a81548173ffffffffffffffffffffffffffffffffffffffff021916908373ffffffffffffffffffffffffffffffffffffffff16021790555060c08201518160050160146101000a81548165ffffffffffff021916908365ffffffffffff16021790555060e082015181600501601a6101000a81548165ffffffffffff021916908365ffffffffffff1602179055506101008201518160060160006101000a8154816fffffffffffffffffffffffffffffffff02191690836fffffffffffffffffffffffffffffffff1602179055506101208201518160060160106101000a81548165ffffffffffff021916908365ffffffffffff1602179055506101408201518160060160166101000a81548165ffffffffffff021916908365ffffffffffff16021790555061016082015181600601601c6101000a81548160ff02191690831515021790555061018082015181600601601d6101000a81548160ff0219169083151502179055506101a08201518160070160006101000a8154816fffffffffffffffffffffffffffffffff02191690836fffffffffffffffffffffffffffffffff1602179055506101c08201518160070160106101000a8154816fffffffffffffffffffffffffffffffff02191690836fffffffffffffffffffffffffffffffff1602179055509050508060e0015165ffffffffffff16600460005060008360a0015173ffffffffffffffffffffffffffffffffffffffff1673ffffffffffffffffffffffffffffffffffffffff1681526020019081526020016000206000508190909055503373ffffffffffffffffffffffffffffffffffffffff168160e0015165ffffffffffff167fcd423cc1203c0af96b9b3d68d73b3064a69de2d14450bb7181c5e5df2132b35860405160405180910390a38060e0015165ffffffffffff16945050505050613cd056505050505b95945050505050565b60046007811115613ced57613cec615d16565b5b613cfc8261109863ffffffff16565b6007811115613d0e57613d0d615d16565b5b141515613d50576040517f08c379a0000000000000000000000000000000000000000000000000000000008152600401613d4790617234565b60405180910390fd5b60006003600050600083815260200190815260200160002060005090506000613e0e427f000000000000000000000000000000000000000000000000000000000000000073ffffffffffffffffffffffffffffffffffffffff16636a42b8f86040518163ffffffff1660e01b8152600401602060405180830381865afa158015613ddf573d600060003e3d6000fd5b505050506040513d601f19601f82011682018060405250810190613e03919061686d565b6146ef63ffffffff16565b90506000600090505b8260000160005080549050811015613ffa57613fe68360000160005082815481101515613e4757613e4661670f565b5b906000526020600020900160005b9054906101000a900473ffffffffffffffffffffffffffffffffffffffff168460010160005083815481101515613e8f57613e8e61670f565b5b906000526020600020900160005b508054613ea9906166b4565b80601f0160208091040260200160405190810160405280929190818152602001828054613ed5906166b4565b8015613f225780601f10613ef757610100808354040283529160200191613f22565b820191906000526020600020905b815481529060010190602001808311613f0557829003601f168201915b50505050508560020160005084815481101515613f4257613f4161670f565b5b906000526020600020900160005b508054613f5c906166b4565b80601f0160208091040260200160405190810160405280929190818152602001828054613f88906166b4565b8015613fd55780601f10613faa57610100808354040283529160200191613fd5565b820191906000526020600020905b815481529060010190602001808311613fb857829003601f168201915b50505050508561508263ffffffff16565b5b8080613ff29061682e565b915050613e17565b5061400a81614fc463ffffffff16565b8260050160146101000a81548165ffffffffffff021916908365ffffffffffff160217905550827f9a2e42fd6722813d69113e7d0079d3d940171428df7373df9c7f7617cfda2892826040516140609190615ad2565b60405180910390a250505b50565b7f8e25870c07e0b0b3884c78da52790939a455c275406c44ae8b434b692fb916ee81565b61409a61573a565b6002600050600084815260200190815260200160002060005060008373ffffffffffffffffffffffffffffffffffffffff1673ffffffffffffffffffffffffffffffffffffffff1681526020019081526020016000206000506040518060800160405290816000820160009054906101000a900460ff161515151581526020016000820160019054906101000a900460ff161515151581526020016000820160029054906101000a900460ff161515151581526020016000820160039054906101000a900476ffffffffffffffffffffffffffffffffffffffffffffff1676ffffffffffffffffffffffffffffffffffffffffffffff1676ffffffffffffffffffffffffffffffffffffffffffffff168152602001505090506141b8565b92915050565b60056000506020528160005260406000206000506020528060005260406000206000915091509054906101000a900460ff1681565b6005600781111561420757614206615d16565b5b6142168261109863ffffffff16565b600781111561422857614227615d16565b5b14151561426a576040517f08c379a0000000000000000000000000000000000000000000000000000000008152600401614261906172bf565b60405180910390fd5b6000600360005060008381526020019081526020016000206000509050600181600601601d6101000a81548160ff0219169083151502179055506000600090505b8160000160005080549050811015614429577f000000000000000000000000000000000000000000000000000000000000000073ffffffffffffffffffffffffffffffffffffffff16633ec5ab3283600001600050838154811015156143145761431361670f565b5b906000526020600020900160005b9054906101000a900473ffffffffffffffffffffffffffffffffffffffff16846001016000508481548110151561435c5761435b61670f565b5b906000526020600020900160005b5085600201600050858154811015156143865761438561670f565b5b906000526020600020900160005b508660050160149054906101000a900465ffffffffffff166040518563ffffffff1660e01b81526004016143cb9493929190616b31565b6000604051808303816000875af11580156143eb573d600060003e3d6000fd5b505050506040513d6000823e3d601f19601f82011682018060405250810190614414919061734a565b505b80806144219061682e565b9150506142ab565b50817f712ae1383f79ac853f8d882153778e0260ef8f03b504e2866e0593e04d2b291f60405160405180910390a2505b50565b6000600061446f8361109863ffffffff16565b90506004600781111561448557614484615d16565b5b81600781111561449857614497615d16565b5b14806144c85750600360078111156144b3576144b2615d16565b5b8160078111156144c6576144c5615d16565b5b145b806144f75750600560078111156144e2576144e1615d16565b5b8160078111156144f5576144f4615d16565b5b145b8061452657506007600781111561451157614510615d16565b5b81600781111561452457614523615d16565b5b145b91505061452f56505b919050565b6000600060036000506000858152602001908152602001600020600050905060006145c98260060160009054906101000a90046fffffffffffffffffffffffffffffffff166fffffffffffffffffffffffffffffffff168360070160009054906101000a90046fffffffffffffffffffffffffffffffff166fffffffffffffffffffffffffffffffff166146ef63ffffffff16565b905060008114156145df576000925050506146e9565b600061462d6611c37937e080008460070160109054906101000a90046fffffffffffffffffffffffffffffffff166fffffffffffffffffffffffffffffffff1661523690919063ffffffff16565b90506146dc6002600050600088815260200190815260200160002060005060008773ffffffffffffffffffffffffffffffffffffffff1673ffffffffffffffffffffffffffffffffffffffff16815260200190815260200160002060005060000160039054906101000a900476ffffffffffffffffffffffffffffffffffffffffffffff1676ffffffffffffffffffffffffffffffffffffffffffffff16838361525c9092919063ffffffff16565b93505050506146e9565050505b92915050565b6000600082846146ff91906173d3565b9050838110151515614746576040517f08c379a000000000000000000000000000000000000000000000000000000000815260040161473d906173f3565b60405180910390fd5b8091505061475056505b92915050565b6000811415156147f0577f000000000000000000000000000000000000000000000000000000000000000073ffffffffffffffffffffffffffffffffffffffff16630793298783836040518363ffffffff1660e01b81526004016147bb9291906169fe565b600060405180830381600087803b1580156147d65760006000fd5b505af11580156147eb573d600060003e3d6000fd5b505050505b5b5050565b6001600781111561480957614808615d16565b5b6148188361109863ffffffff16565b600781111561482a57614829615d16565b5b14151561486c576040517f08c379a000000000000000000000000000000000000000000000000000000000815260040161486390617432565b60405180910390fd5b6000600360005060008481526020019081526020016000206000509050600015156002600050600085815260200190815260200160002060005060008673ffffffffffffffffffffffffffffffffffffffff1673ffffffffffffffffffffffffffffffffffffffff16815260200190815260200160002060005060000160009054906101000a900460ff16151514151561493b576040517f08c379a000000000000000000000000000000000000000000000000000000000815260040161493290617497565b60405180910390fd5b60007f000000000000000000000000000000000000000000000000000000000000000073ffffffffffffffffffffffffffffffffffffffff1663782d6fe1868460060160109054906101000a900465ffffffffffff166040518363ffffffff1660e01b81526004016149ae929190616d86565b602060405180830381865afa1580156149cc573d600060003e3d6000fd5b505050506040513d601f19601f820116820180604052508101906149f0919061686d565b90508215614a8757614a48614a3d8360060160009054906101000a90046fffffffffffffffffffffffffffffffff166fffffffffffffffffffffffffffffffff16836146ef63ffffffff16565b61501e63ffffffff16565b8260060160006101000a8154816fffffffffffffffffffffffffffffffff02191690836fffffffffffffffffffffffffffffffff160217905550614b12565b614ad7614acc8360070160009054906101000a90046fffffffffffffffffffffffffffffffff166fffffffffffffffffffffffffffffffff16836146ef63ffffffff16565b61501e63ffffffff16565b8260070160006101000a8154816fffffffffffffffffffffffffffffffff02191690836fffffffffffffffffffffffffffffffff1602179055505b60405180608001604052806001151581526020018415158152602001600015158152602001614b468361538063ffffffff16565b76ffffffffffffffffffffffffffffffffffffffffffffff168152602001506002600050600086815260200190815260200160002060005060008773ffffffffffffffffffffffffffffffffffffffff1673ffffffffffffffffffffffffffffffffffffffff16815260200190815260200160002060005060008201518160000160006101000a81548160ff02191690831515021790555060208201518160000160016101000a81548160ff02191690831515021790555060408201518160000160026101000a81548160ff02191690831515021790555060608201518160000160036101000a81548176ffffffffffffffffffffffffffffffffffffffffffffff021916908376ffffffffffffffffffffffffffffffffffffffffffffff160217905550905050821515848673ffffffffffffffffffffffffffffffffffffffff167f877856338e13f63d0c36822ff0ef736b80934cd90574a3a5bc9262c39d217c4684604051614cb89190615ad2565b60405180910390a450505b505050565b6000828211151515614d0f576040517f08c379a0000000000000000000000000000000000000000000000000000000008152600401614d06906174fc565b60405180910390fd5b8183614d1b919061753b565b9050614d22565b92915050565b600060019050614d33565b919050565b6000600060006000614d4f85610e0663ffffffff16565b92509250925060018351148015614d67575060018251145b8015614d74575060018151145b8015614dc857503073ffffffffffffffffffffffffffffffffffffffff16836000815181101515614da857614da761670f565b5b602002602001015173ffffffffffffffffffffffffffffffffffffffff16145b8015614e435750634e9568ef60e01b7bffffffffffffffffffffffffffffffffffffffffffffffffffffffff1916614e22836000815181101515614e0f57614e0e61670f565b5b60200260200101516153eb63ffffffff16565b7bffffffffffffffffffffffffffffffffffffffffffffffffffffffff1916145b9350505050614e50565050505b919050565b60006000600360005060008481526020019081526020016000206000506002016000506000815481101515614e8d57614e8c61670f565b5b906000526020600020900160005b508054614ea7906166b4565b80601f0160208091040260200160405190810160405280929190818152602001828054614ed3906166b4565b8015614f205780601f10614ef557610100808354040283529160200191614f20565b820191906000526020600020905b815481529060010190602001808311614f0357829003601f168201915b5050505050806020019051810190614f38919061755a565b81915091509150614f44565b915091565b6000614f6483670de0b6b3a76400008461525c63ffffffff16565b905080505b92915050565b614f7e8261540163ffffffff16565b1515614fbf576040517f08c379a0000000000000000000000000000000000000000000000000000000008152600401614fb69061758d565b60405180910390fd5b5b5050565b6000660100000000000082101515615011576040517f08c379a0000000000000000000000000000000000000000000000000000000008152600401615008906175cc565b60405180910390fd5b819050615019565b919050565b600070010000000000000000000000000000000082101515615075576040517f08c379a000000000000000000000000000000000000000000000000000000000815260040161506c9061760b565b60405180910390fd5b81905061507d565b919050565b7f000000000000000000000000000000000000000000000000000000000000000073ffffffffffffffffffffffffffffffffffffffff1663f2b06537858585856040516020016150d5949392919061764a565b604051602081830303815290604052805190602001206040518263ffffffff1660e01b81526004016151079190615c19565b602060405180830381865afa158015615125573d600060003e3d6000fd5b505050506040513d601f19601f82011682018060405250810190615149919061769e565b15151561518b576040517f08c379a0000000000000000000000000000000000000000000000000000000008152600401615182906176c7565b60405180910390fd5b7f000000000000000000000000000000000000000000000000000000000000000073ffffffffffffffffffffffffffffffffffffffff16630e70eace858585856040518563ffffffff1660e01b81526004016151ea949392919061764a565b6020604051808303816000875af115801561520a573d600060003e3d6000fd5b505050506040513d601f19601f8201168201806040525081019061522e9190617752565b505b50505050565b60006152518383670de0b6b3a764000061525c63ffffffff16565b905080505b92915050565b600060006000600019858709858702925082811083820303915050600081141561529f576000841115156152905760006000fd5b83820492508292505050615379565b80841115156152ae5760006000fd5b60008486880990508281118203915080830392506000856001877fffffffffffffffffffffffffffffffffffffffffffffffffffffffffffffffff03011690508050808604955080840493506001818260000304019050808302841793508350600060028760030218905080870260020381029050805080870260020381029050805080870260020381029050805080870260020381029050805080870260020381029050805080870260020381029050805080850295508550508494505050505061537956505050505b9392505050565b600077010000000000000000000000000000000000000000000000821015156153de576040517f08c379a00000000000000000000000000000000000000000000000000000000081526004016153d590617770565b60405180910390fd5b8190506153e6565b919050565b6000818051906020012090506153fc565b919050565b600060008273ffffffffffffffffffffffffffffffffffffffff163b119050615425565b919050565b6040518060800160405280600065ffffffffffff16815260200161544c61573a565b815260200160008152602001600081526020015090565b6040518061020001604052806060815260200160608152602001606081526020016060815260200160608152602001600073ffffffffffffffffffffffffffffffffffffffff168152602001600065ffffffffffff168152602001600065ffffffffffff16815260200160006fffffffffffffffffffffffffffffffff168152602001600065ffffffffffff168152602001600065ffffffffffff16815260200160001515815260200160001515815260200160006fffffffffffffffffffffffffffffffff16815260200160006fffffffffffffffffffffffffffffffff1681526020016000600781111561555c5761555b615d16565b5b81526020015090565b8280548282559060005260206000209081019282156155de579160200282015b828111156155dd5782518260006101000a81548173ffffffffffffffffffffffffffffffffffffffff021916908373ffffffffffffffffffffffffffffffffffffffff16021790555091602001919060010190615585565b5b5090506155eb9190615784565b5090565b82805482825590600052602060002090810192821561563e579160200282015b8281111561563d57825182908051906020019061562d9291906156af565b509160200191906001019061560f565b5b50905061564b91906157a7565b5090565b82805482825590600052602060002090810192821561569e579160200282015b8281111561569d57825182908051906020019061568d9291906157cf565b509160200191906001019061566f565b5b5090506156ab919061585a565b5090565b8280546156bb906166b4565b90600052602060002090601f0160209004810192826156dd5760008555615729565b82601f106156f657805160ff1916838001178555615729565b82800160010185558215615729579182015b828111156157285782518260005090905591602001919060010190615708565b5b5090506157369190615784565b5090565b6040518060800160405280600015158152602001600015158152602001600015158152602001600076ffffffffffffffffffffffffffffffffffffffffffffff1681526020015090565b615789565b808211156157a35760008181506000905550600101615789565b5090565b6157ac565b808211156157cb57600081816157c29190615882565b506001016157ac565b5090565b8280546157db906166b4565b90600052602060002090601f0160209004810192826157fd5760008555615849565b82601f1061581657805160ff1916838001178555615849565b82800160010185558215615849579182015b828111156158485782518260005090905591602001919060010190615828565b5b5090506158569190615784565b5090565b61585f565b8082111561587e576000818161587591906158c2565b5060010161585f565b5090565b50805461588e906166b4565b6000825580601f106158a057506158bf565b601f0160209004906000526020600020908101906158be9190615784565b5b50565b5080546158ce906166b4565b6000825580601f106158e057506158ff565b601f0160209004906000526020600020908101906158fe9190615784565b5b50566177af565b6000602082840312156159195760006000fd5b813590505b92915050565b60005b838110156159435780820151818401525b602081019050615927565b83811115615952576000848401525b505050505b565b60008151808452615971816020860160208601615924565b60207fffffffffffffffffffffffffffffffffffffffffffffffffffffffffffffffe0601f8301168501019150505b92915050565b73ffffffffffffffffffffffffffffffffffffffff8116825250505b565b65ffffffffffff8116825250505b565b6fffffffffffffffffffffffffffffffff8116825250505b565b801515825250505b565b61018081526000615a0d61018083018f615959565b8281036020840152615a1f818f615959565b91505073ffffffffffffffffffffffffffffffffffffffff8c16604083015265ffffffffffff808c166060840152808b166080840152506fffffffffffffffffffffffffffffffff891660a0830152615a7b60c08301896159c4565b615a8860e08301886159c4565b615a966101008301876159ee565b615aa46101208301866159ee565b615ab26101408301856159d4565b615ac06101608301846159d4565b5b9d9c50505050505050505050505050565b60006020820190508282525b92915050565b6000600060208385031215615af95760006000fd5b823567ffffffffffffffff80821115615b125760006000fd5b818501915085601f8301121515615b295760006000fd5b813581811115615b395760006000fd5b8660208260051b8501011115615b4f5760006000fd5b6020830194508093505050505b9250929050565b602081526000615b766020830184615959565b90505b92915050565b80151581141515615b905760006000fd5b505b565b6000600060408385031215615ba95760006000fd5b823591506020830135615bbb81615b7f565b809150505b9250929050565b73ffffffffffffffffffffffffffffffffffffffff811681141515615bec5760006000fd5b505b565b600060208284031215615c035760006000fd5b8135615c0e81615bc7565b809150505b92915050565b60006020820190508282525b92915050565b600081518084526020808501808196508360051b8101915082860160005b85811015615c79578284038952615c61848351615959565b9350848201915084890198505b600181019050615c49565b5050508093505050505b92915050565b600060608201606083528086518083526080850191506020925082880160005b82811015615ce15773ffffffffffffffffffffffffffffffffffffffff8251168452848401935084820191505b600181019050615ca9565b50505083810382850152615cf58187615c2b565b9150508281036040840152615d0a8185615c2b565b9150505b949350505050565b7f4e487b7100000000000000000000000000000000000000000000000000000000600052602160045260246000fd5b565b600881101515615d80577f4e487b7100000000000000000000000000000000000000000000000000000000600052602160045260246000fd5b80825250505b565b6000602082019050615d9a8284615d47565b5b92915050565b600060208201905073ffffffffffffffffffffffffffffffffffffffff831682525b92915050565b6000600060006000600060a08688031215615de45760006000fd5b853594506020860135615df681615b7f565b80945050604086013560ff811681141515615e115760006000fd5b8093505060608601359150608086013590505b9295509295909350565b80511515825260208101511515602083015260408101511515604083015276ffffffffffffffffffffffffffffffffffffffffffffff606082015116606083015250505b565b6000602080830181845280855180835260409250828601915083870160005b82811015615ee557815165ffffffffffff815116855286810151615eb988870182615e2e565b508581015160a0860152606081015160c08601525060e08401935085820191505b600181019050615e93565b5050508093505050505b92915050565b600060208201905073ffffffffffffffffffffffffffffffffffffffff831682525b92915050565b6000600060408385031215615f325760006000fd5b8235615f3d81615bc7565b80925050602083013590505b9250929050565b600081518084526020808501945080840160005b83811015615f9c5773ffffffffffffffffffffffffffffffffffffffff8251168752828701965082820191505b600181019050615f64565b505050508290505b92915050565b60006020808301818452808551808352604092508286019150828160051b87010184880160005b8381101561617f577fffffffffffffffffffffffffffffffffffffffffffffffffffffffffffffffc08984030185528151610200815181865261601682870182615f50565b915050888201518582038a87015261602e8282615c2b565b91505087820151858203898701526160468282615c2b565b915050606080830151868303828801526160608382615959565b925050506080808301518683038288015261607b8382615959565b9250505060a080830151616091828801826159a6565b505060c0808301516160a5828801826159c4565b505060e0808301516160b9828801826159c4565b5050610100808301516160ce828801826159d4565b5050610120808301516160e3828801826159c4565b5050610140808301516160f8828801826159c4565b50506101608083015161610d828801826159ee565b505061018080830151616122828801826159ee565b50506101a080830151616137828801826159d4565b50506101c08083015161614c828801826159d4565b50506101e080830151925061616381870184615d47565b508094505050868201915086850194505b600181019050615fd1565b505080955050505050505b92915050565b600060608201905073ffffffffffffffffffffffffffffffffffffffff8516825283602083015282151560408301525b949350505050565b600060208201905073ffffffffffffffffffffffffffffffffffffffff831682525b92915050565b600060208201905065ffffffffffff831682525b92915050565b600060006040838503121561621f5760006000fd5b82359150602083013561623181615bc7565b809150505b9250929050565b600060208201905073ffffffffffffffffffffffffffffffffffffffff831682525b92915050565b7f4e487b7100000000000000000000000000000000000000000000000000000000600052604160045260246000fd5b565b600060405190507fffffffffffffffffffffffffffffffffffffffffffffffffffffffffffffffe0601f830116810181811067ffffffffffffffff821117156162e2576162e1616265565b5b80604052505b919050565b600067ffffffffffffffff82111561630857616307616265565b5b60208260051b0190505b919050565b600082601f830112151561632b5760006000fd5b8135602061634061633b836162ed565b616296565b808382528282019150828460051b8701019350868411156163615760006000fd5b8286015b8481101561638c57803561637881615bc7565b8084525083830192505b8381019050616365565b50809450505050505b92915050565b600067ffffffffffffffff8211156163b6576163b5616265565b5b60207fffffffffffffffffffffffffffffffffffffffffffffffffffffffffffffffe0601f8401160190505b919050565b60006163fa6163f58461639b565b616296565b905082815283838301111561640f5760006000fd5b828260208301376000602084830101525b9392505050565b600082601f830112151561643b5760006000fd5b61644a838335602085016163e7565b90505b92915050565b600082601f83011215156164675760006000fd5b8135602061647c616477836162ed565b616296565b808382528282019150828460051b87010193508684111561649d5760006000fd5b8286015b848110156164e357803567ffffffffffffffff8111156164c25760008081fd505b6164d08986838b0101616427565b84525083830192505b83810190506164a1565b50809450505050505b92915050565b600082601f83011215156165065760006000fd5b8135602061651b616516836162ed565b616296565b808382528282019150828460051b87010193508684111561653c5760006000fd5b8286015b8481101561659d57803567ffffffffffffffff8111156165615760008081fd505b808801905088603f82011215156165795760008081fd505b61658a8986830135604084016163e7565b84525083830192505b8381019050616540565b50809450505050505b92915050565b6000600060006000600060a086880312156165c75760006000fd5b853567ffffffffffffffff808211156165e05760006000fd5b6165ec89838a01616317565b965060208801359150808211156166035760006000fd5b61660f89838a01616453565b955060408801359150808211156166265760006000fd5b61663289838a016164f2565b945060608801359150808211156166495760006000fd5b61665589838a01616427565b9350608088013591508082111561666c5760006000fd5b5061667988828901616427565b9150505b9295509295909350565b60006080820190506166998284615e2e565b5b92915050565b600060208201905082151582525b92915050565b60008160011c9050600182168015156166ce57607f821691505b60208210811415616708577f4e487b7100000000000000000000000000000000000000000000000000000000600052602260045260246000fd5b505b919050565b7f4e487b7100000000000000000000000000000000000000000000000000000000600052603260045260246000fd5b565b60208152601560208201527f50726f706f73616c206e6f7420636f6d706c6574650000000000000000000000604082015260006060820190505b919050565b60208152600d60208201527f486173206e6f7420766f74656400000000000000000000000000000000000000604082015260006060820190505b919050565b60208152601860208201527f5265776172647320616c72656164792072656365697665640000000000000000604082015260006060820190505b919050565b7f4e487b7100000000000000000000000000000000000000000000000000000000600052601160045260246000fd5b565b60007fffffffffffffffffffffffffffffffffffffffffffffffffffffffffffffffff821415616861576168606167fd565b5b6001820190505b919050565b6000602082840312156168805760006000fd5b815190505b92915050565b60008215156168c3577f4e487b7100000000000000000000000000000000000000000000000000000000600052601260045260246000fd5b82820490505b92915050565b60208152602960208201527f476f7665726e6f72416c7068613a3a73746174653a20696e76616c696420707260408201527f6f706f73616c2069640000000000000000000000000000000000000000000000606082015260006080820190505b919050565b60208152603660208201527f476f7665726e6f72416c7068613a3a63616e63656c3a2063616e6e6f7420636160408201527f6e63656c2065786563757465642070726f706f73616c00000000000000000000606082015260006080820190505b919050565b60208152602560208201527f43616e742063616e63656c20616674657220766f74696e6720697320636f6d7060408201527f6c65746564000000000000000000000000000000000000000000000000000000606082015260006080820190505b919050565b600060408201905073ffffffffffffffffffffffffffffffffffffffff841682528260208301525b9392505050565b60208152602f60208201527f476f7665726e6f72416c7068613a3a63616e63656c3a2070726f706f7365722060408201527f61626f7665207468726573686f6c640000000000000000000000000000000000606082015260006080820190505b919050565b60008154616a9f816166b4565b8085526020600180841660008114616abe5760018114616af057616b25565b7fffffffffffffffffffffffffffffffffffffffffffffffffffffffffffffff00851683890152604088019550616b25565b866000528260002060005b85811015616b1b57815485828c01015283820191505b8481019050616afb565b84818b0101975050505b50505050505b92915050565b73ffffffffffffffffffffffffffffffffffffffff85168152608060208201526000616b606080830186616a92565b8281036040840152616b728186616a92565b91505065ffffffffffff831660608301525b95945050505050565b600060008354616b9c816166b4565b600180831660008114616bb65760018114616be557616c19565b7fffffffffffffffffffffffffffffffffffffffffffffffffffffffffffffff00841687528287019450616c19565b8760005260208060002060005b85811015616c10578154818b015284820191505b8281019050616bf2565b50505082870194505b50505050809150505b92915050565b600060808201905085825284602083015283604083015273ffffffffffffffffffffffffffffffffffffffff831660608301525b95945050505050565b600060608201905084825283602083015282151560408301525b949350505050565b7f1901000000000000000000000000000000000000000000000000000000000000815282600282015281602282015260006042820190505b9392505050565b600060808201905085825260ff851660208301528360408301528260608301525b95945050505050565b60208152602f60208201527f476f7665726e6f72416c7068613a3a63617374566f746542795369673a20696e60408201527f76616c6964207369676e61747572650000000000000000000000000000000000606082015260006080820190505b919050565b600065ffffffffffff808316818516808303821115616d7757616d766167fd565b5b80820193505050505b92915050565b600060408201905073ffffffffffffffffffffffffffffffffffffffff8416825265ffffffffffff831660208301525b9392505050565b600065ffffffffffff80831681811415616dda57616dd96167fd565b5b60018101925050505b919050565b60208152600e60208201527f4e6f7420417574686f72697a6564000000000000000000000000000000000000604082015260006060820190505b919050565b60208152601360208201527f4e6f742061206d6574612070726f706f73616c00000000000000000000000000604082015260006060820190505b919050565b60208152601a60208201527f496e73756666696369656e7420616761696e737420766f746573000000000000604082015260006060820190505b919050565b60208152601660208201527f496e73756666696369656e7420666f7220766f74657300000000000000000000604082015260006060820190505b919050565b60208152600f60208201527f416c726561647920636c61696d65640000000000000000000000000000000000604082015260006060820190505b919050565b600060808201905073ffffffffffffffffffffffffffffffffffffffff80871683528560208401528085166040840152508260608301525b95945050505050565b60208152603f60208201527f476f7665726e6f72416c7068613a3a70726f706f73653a2070726f706f73657260408201527f20766f7465732062656c6f772070726f706f73616c207468726573686f6c6400606082015260006080820190505b919050565b60208152604460208201527f476f7665726e6f72416c7068613a3a70726f706f73653a2070726f706f73616c60408201527f2066756e6374696f6e20696e666f726d6174696f6e206172697479206d69736d60608201527f61746368000000000000000000000000000000000000000000000000000000006080820152600060a0820190505b919050565b60208152602c60208201527f476f7665726e6f72416c7068613a3a70726f706f73653a206d7573742070726f60408201527f7669646520616374696f6e730000000000000000000000000000000000000000606082015260006080820190505b919050565b60208152602860208201527f476f7665726e6f72416c7068613a3a70726f706f73653a20746f6f206d616e7960408201527f20616374696f6e73000000000000000000000000000000000000000000000000606082015260006080820190505b919050565b60208152605860208201527f476f7665726e6f72416c7068613a3a70726f706f73653a206f6e65206c69766560408201527f2070726f706f73616c207065722070726f706f7365722c20666f756e6420616e60608201527f20616c7265616479206163746976652070726f706f73616c00000000000000006080820152600060a0820190505b919050565b60208152605960208201527f476f7665726e6f72416c7068613a3a70726f706f73653a206f6e65206c69766560408201527f2070726f706f73616c207065722070726f706f7365722c20666f756e6420616e60608201527f20616c72656164792070656e64696e672070726f706f73616c000000000000006080820152600060a0820190505b919050565b60208152604460208201527f476f7665726e6f72416c7068613a3a71756575653a2070726f706f73616c206360408201527f616e206f6e6c792062652071756575656420696620697420697320737563636560608201527f65646564000000000000000000000000000000000000000000000000000000006080820152600060a0820190505b919050565b60208152604560208201527f476f7665726e6f72416c7068613a3a657865637574653a2070726f706f73616c60408201527f2063616e206f6e6c79206265206578656375746564206966206974206973207160608201527f75657565640000000000000000000000000000000000000000000000000000006080820152600060a0820190505b919050565b60006020828403121561735d5760006000fd5b815167ffffffffffffffff8111156173755760006000fd5b808301905083601f820112151561738c5760006000fd5b805161739f61739a8261639b565b616296565b8181528560208385010111156173b55760006000fd5b6173c6826020830160208601615924565b8093505050505b92915050565b600082198211156173e7576173e66167fd565b5b82820190505b92915050565b60208152601160208201527f6164646974696f6e206f766572666c6f77000000000000000000000000000000604082015260006060820190505b919050565b60208152602a60208201527f476f7665726e6f72416c7068613a3a5f63617374566f74653a20766f74696e6760408201527f20697320636c6f73656400000000000000000000000000000000000000000000606082015260006080820190505b919050565b60208152602d60208201527f476f7665726e6f72416c7068613a3a5f63617374566f74653a20766f7465722060408201527f616c726561647920766f74656400000000000000000000000000000000000000606082015260006080820190505b919050565b60208152601560208201527f7375627472616374696f6e20756e646572666c6f770000000000000000000000604082015260006060820190505b919050565b60008282101561754e5761754d6167fd565b5b82820390505b92915050565b600060006040838503121561756f5760006000fd5b825161757a81615bc7565b80925050602083015190505b9250929050565b60208152600e60208201527f4e6f74206120636f6e7472616374000000000000000000000000000000000000604082015260006060820190505b919050565b60208152600f60208201527f4578636565647320343820626974730000000000000000000000000000000000604082015260006060820190505b919050565b60208152601060208201527f4578636565647320313238206269747300000000000000000000000000000000604082015260006060820190505b919050565b73ffffffffffffffffffffffffffffffffffffffff851681526080602082015260006176796080830186615959565b828103604084015261768b8186615959565b9150508260608301525b95945050505050565b6000602082840312156176b15760006000fd5b81516176bc81615b7f565b809150505b92915050565b60208152604460208201527f476f7665726e6f72416c7068613a3a5f71756575654f725265766572743a207060408201527f726f706f73616c20616374696f6e20616c72656164792071756575656420617460608201527f20657461000000000000000000000000000000000000000000000000000000006080820152600060a0820190505b919050565b6000602082840312156177655760006000fd5b815190505b92915050565b60208152601060208201527f4578636565647320313834206269747300000000000000000000000000000000604082015260006060820190505b919050565bfea2646970667358221220371c3a50adbd386aaa75d92a743177cfcd71ec3924b2f92ef67ecbe263ad566d64736f6c634300080c0033",
  "linkReferences": {},
  "deployedLinkReferences": {}
}