{
  "_format": "hh-sol-artifact-1",
  "contractName": "TDaoGovernorAlpha",
  "sourceName": "contracts/core/TDao/TDaoGovernorAlpha.sol",
  "abi": [
    {
      "inputs": [
        {
          "internalType": "address",
          "name": "timelock_",
          "type": "address"
        },
        {
          "internalType": "address",
          "name": "votingToken_",
          "type": "address"
        },
        {
          "internalType": "address",
          "name": "guardian_",
          "type": "address"
        },
        {
          "internalType": "uint48",
          "name": "votingPeriodBlocks_",
          "type": "uint48"
        },
        {
          "internalType": "contract ITDao",
          "name": "tDao_",
          "type": "address"
        }
      ],
      "stateMutability": "nonpayable",
      "type": "constructor"
    },
    {
      "anonymous": false,
      "inputs": [
        {
          "indexed": true,
          "internalType": "uint256",
          "name": "id",
          "type": "uint256"
        }
      ],
      "name": "ProposalCanceled",
      "type": "event"
    },
    {
      "anonymous": false,
      "inputs": [
        {
          "indexed": true,
          "internalType": "uint256",
          "name": "id",
          "type": "uint256"
        },
        {
          "indexed": true,
          "internalType": "address",
          "name": "proposer",
          "type": "address"
        }
      ],
      "name": "ProposalCreated",
      "type": "event"
    },
    {
      "anonymous": false,
      "inputs": [
        {
          "indexed": true,
          "internalType": "uint256",
          "name": "id",
          "type": "uint256"
        }
      ],
      "name": "ProposalExecuted",
      "type": "event"
    },
    {
      "anonymous": false,
      "inputs": [
        {
          "indexed": true,
          "internalType": "uint256",
          "name": "id",
          "type": "uint256"
        },
        {
          "indexed": false,
          "internalType": "uint256",
          "name": "eta",
          "type": "uint256"
        }
      ],
      "name": "ProposalQueued",
      "type": "event"
    },
    {
      "anonymous": false,
      "inputs": [
        {
          "indexed": true,
          "internalType": "address",
          "name": "caller",
          "type": "address"
        },
        {
          "indexed": true,
          "internalType": "uint256",
          "name": "proposalID",
          "type": "uint256"
        }
      ],
      "name": "UnderlyingVotingRewardsDistributed",
      "type": "event"
    },
    {
      "anonymous": false,
      "inputs": [
        {
          "indexed": true,
          "internalType": "address",
          "name": "voter",
          "type": "address"
        },
        {
          "indexed": true,
          "internalType": "uint256",
          "name": "proposalId",
          "type": "uint256"
        },
        {
          "indexed": true,
          "internalType": "bool",
          "name": "support",
          "type": "bool"
        },
        {
          "indexed": false,
          "internalType": "uint256",
          "name": "votes",
          "type": "uint256"
        }
      ],
      "name": "VoteCast",
      "type": "event"
    },
    {
      "anonymous": false,
      "inputs": [
        {
          "indexed": true,
          "internalType": "address",
          "name": "voter",
          "type": "address"
        },
        {
          "indexed": false,
          "internalType": "uint256",
          "name": "count",
          "type": "uint256"
        }
      ],
      "name": "VotingRewardsDistributed",
      "type": "event"
    },
    {
      "inputs": [],
      "name": "BALLOT_TYPEHASH",
      "outputs": [
        {
          "internalType": "bytes32",
          "name": "",
          "type": "bytes32"
        }
      ],
      "stateMutability": "view",
      "type": "function"
    },
    {
      "inputs": [],
      "name": "DOMAIN_TYPEHASH",
      "outputs": [
        {
          "internalType": "bytes32",
          "name": "",
          "type": "bytes32"
        }
      ],
      "stateMutability": "view",
      "type": "function"
    },
    {
      "inputs": [],
      "name": "INFLATION_PERCENTAGE",
      "outputs": [
        {
          "internalType": "uint256",
          "name": "",
          "type": "uint256"
        }
      ],
      "stateMutability": "view",
      "type": "function"
    },
    {
      "inputs": [],
      "name": "__abdicate",
      "outputs": [],
      "stateMutability": "nonpayable",
      "type": "function"
    },
    {
      "inputs": [
        {
          "internalType": "uint256",
          "name": "proposalId",
          "type": "uint256"
        }
      ],
      "name": "cancel",
      "outputs": [],
      "stateMutability": "nonpayable",
      "type": "function"
    },
    {
      "inputs": [
        {
          "internalType": "uint256",
          "name": "proposalId",
          "type": "uint256"
        },
        {
          "internalType": "bool",
          "name": "support",
          "type": "bool"
        }
      ],
      "name": "castVote",
      "outputs": [],
      "stateMutability": "nonpayable",
      "type": "function"
    },
    {
      "inputs": [
        {
          "internalType": "uint256",
          "name": "proposalId",
          "type": "uint256"
        },
        {
          "internalType": "bool",
          "name": "support",
          "type": "bool"
        },
        {
          "internalType": "uint8",
          "name": "v",
          "type": "uint8"
        },
        {
          "internalType": "bytes32",
          "name": "r",
          "type": "bytes32"
        },
        {
          "internalType": "bytes32",
          "name": "s",
          "type": "bytes32"
        }
      ],
      "name": "castVoteBySig",
      "outputs": [],
      "stateMutability": "nonpayable",
      "type": "function"
    },
    {
      "inputs": [
        {
          "internalType": "uint256[]",
          "name": "proposalIDs",
          "type": "uint256[]"
        }
      ],
      "name": "claimUnderlyingVotingRewards",
      "outputs": [],
      "stateMutability": "nonpayable",
      "type": "function"
    },
    {
      "inputs": [
        {
          "internalType": "uint256[]",
          "name": "proposalIDs",
          "type": "uint256[]"
        }
      ],
      "name": "claimVotingRewards",
      "outputs": [],
      "stateMutability": "nonpayable",
      "type": "function"
    },
    {
      "inputs": [
        {
          "internalType": "uint256",
          "name": "proposalID",
          "type": "uint256"
        },
        {
          "internalType": "address",
          "name": "voter",
          "type": "address"
        }
      ],
      "name": "countVotingRewards",
      "outputs": [
        {
          "internalType": "uint256",
          "name": "",
          "type": "uint256"
        }
      ],
      "stateMutability": "view",
      "type": "function"
    },
    {
      "inputs": [
        {
          "internalType": "uint256",
          "name": "proposalId",
          "type": "uint256"
        }
      ],
      "name": "execute",
      "outputs": [],
      "stateMutability": "nonpayable",
      "type": "function"
    },
    {
      "inputs": [
        {
          "internalType": "uint256",
          "name": "proposalId",
          "type": "uint256"
        }
      ],
      "name": "getActions",
      "outputs": [
        {
          "internalType": "address[]",
          "name": "targets",
          "type": "address[]"
        },
        {
          "internalType": "string[]",
          "name": "signatures",
          "type": "string[]"
        },
        {
          "internalType": "bytes[]",
          "name": "calldatas",
          "type": "bytes[]"
        }
      ],
      "stateMutability": "view",
      "type": "function"
    },
    {
      "inputs": [
        {
          "internalType": "uint256",
          "name": "proposalID",
          "type": "uint256"
        }
      ],
      "name": "getMetaProposalParameters",
      "outputs": [
        {
          "internalType": "address",
          "name": "governorAlpha",
          "type": "address"
        },
        {
          "internalType": "uint256",
          "name": "underlyingProposalID",
          "type": "uint256"
        },
        {
          "internalType": "bool",
          "name": "moreForThanAgainst",
          "type": "bool"
        }
      ],
      "stateMutability": "view",
      "type": "function"
    },
    {
      "inputs": [],
      "name": "getProposals",
      "outputs": [
        {
          "components": [
            {
              "internalType": "address[]",
              "name": "targets",
              "type": "address[]"
            },
            {
              "internalType": "string[]",
              "name": "signatures",
              "type": "string[]"
            },
            {
              "internalType": "bytes[]",
              "name": "calldatas",
              "type": "bytes[]"
            },
            {
              "internalType": "string",
              "name": "title",
              "type": "string"
            },
            {
              "internalType": "string",
              "name": "ipfsHash",
              "type": "string"
            },
            {
              "internalType": "address",
              "name": "proposer",
              "type": "address"
            },
            {
              "internalType": "uint48",
              "name": "eta",
              "type": "uint48"
            },
            {
              "internalType": "uint48",
              "name": "id",
              "type": "uint48"
            },
            {
              "internalType": "uint128",
              "name": "forVotes",
              "type": "uint128"
            },
            {
              "internalType": "uint48",
              "name": "startBlock",
              "type": "uint48"
            },
            {
              "internalType": "uint48",
              "name": "endBlock",
              "type": "uint48"
            },
            {
              "internalType": "bool",
              "name": "canceled",
              "type": "bool"
            },
            {
              "internalType": "bool",
              "name": "executed",
              "type": "bool"
            },
            {
              "internalType": "uint128",
              "name": "againstVotes",
              "type": "uint128"
            },
            {
              "internalType": "uint128",
              "name": "initialSupply",
              "type": "uint128"
            },
            {
              "internalType": "enum GovernorAlpha.ProposalState",
              "name": "state",
              "type": "uint8"
            }
          ],
          "internalType": "struct GovernorAlphaWithVotingRewards.ProposalInfo[]",
          "name": "proposalsInfo",
          "type": "tuple[]"
        }
      ],
      "stateMutability": "view",
      "type": "function"
    },
    {
      "inputs": [
        {
          "internalType": "address",
          "name": "voter",
          "type": "address"
        }
      ],
      "name": "getProposalsVoterInfo",
      "outputs": [
        {
          "components": [
            {
              "internalType": "uint48",
              "name": "id",
              "type": "uint48"
            },
            {
              "components": [
                {
                  "internalType": "bool",
                  "name": "hasVoted",
                  "type": "bool"
                },
                {
                  "internalType": "bool",
                  "name": "support",
                  "type": "bool"
                },
                {
                  "internalType": "bool",
                  "name": "rewardReceived",
                  "type": "bool"
                },
                {
                  "internalType": "uint184",
                  "name": "votes",
                  "type": "uint184"
                }
              ],
              "internalType": "struct GovernorAlpha.Receipt",
              "name": "receipt",
              "type": "tuple"
            },
            {
              "internalType": "uint256",
              "name": "votingPower",
              "type": "uint256"
            },
            {
              "internalType": "uint256",
              "name": "votingRewards",
              "type": "uint256"
            }
          ],
          "internalType": "struct GovernorAlphaWithVotingRewards.ProposalVoterInfo[]",
          "name": "proposalsVoterInfo",
          "type": "tuple[]"
        }
      ],
      "stateMutability": "view",
      "type": "function"
    },
    {
      "inputs": [
        {
          "internalType": "uint256",
          "name": "proposalId",
          "type": "uint256"
        },
        {
          "internalType": "address",
          "name": "voter",
          "type": "address"
        }
      ],
      "name": "getReceipt",
      "outputs": [
        {
          "components": [
            {
              "internalType": "bool",
              "name": "hasVoted",
              "type": "bool"
            },
            {
              "internalType": "bool",
              "name": "support",
              "type": "bool"
            },
            {
              "internalType": "bool",
              "name": "rewardReceived",
              "type": "bool"
            },
            {
              "internalType": "uint184",
              "name": "votes",
              "type": "uint184"
            }
          ],
          "internalType": "struct GovernorAlpha.Receipt",
          "name": "",
          "type": "tuple"
        }
      ],
      "stateMutability": "view",
      "type": "function"
    },
    {
      "inputs": [],
      "name": "guardian",
      "outputs": [
        {
          "internalType": "address",
          "name": "",
          "type": "address"
        }
      ],
      "stateMutability": "view",
      "type": "function"
    },
    {
      "inputs": [
        {
          "internalType": "uint256",
          "name": "",
          "type": "uint256"
        },
        {
          "internalType": "address",
          "name": "",
          "type": "address"
        }
      ],
      "name": "hasClaimedUnderlyingRewards",
      "outputs": [
        {
          "internalType": "bool",
          "name": "",
          "type": "bool"
        }
      ],
      "stateMutability": "view",
      "type": "function"
    },
    {
      "inputs": [],
      "name": "implementsVotingRewardsWithToken",
      "outputs": [
        {
          "internalType": "address",
          "name": "",
          "type": "address"
        }
      ],
      "stateMutability": "view",
      "type": "function"
    },
    {
      "inputs": [
        {
          "internalType": "address",
          "name": "",
          "type": "address"
        }
      ],
      "name": "latestProposalIds",
      "outputs": [
        {
          "internalType": "uint256",
          "name": "",
          "type": "uint256"
        }
      ],
      "stateMutability": "view",
      "type": "function"
    },
    {
      "inputs": [],
      "name": "name",
      "outputs": [
        {
          "internalType": "string",
          "name": "",
          "type": "string"
        }
      ],
      "stateMutability": "view",
      "type": "function"
    },
    {
      "inputs": [],
      "name": "proposalCount",
      "outputs": [
        {
          "internalType": "uint48",
          "name": "",
          "type": "uint48"
        }
      ],
      "stateMutability": "view",
      "type": "function"
    },
    {
      "inputs": [],
      "name": "proposalMaxOperations",
      "outputs": [
        {
          "internalType": "uint256",
          "name": "",
          "type": "uint256"
        }
      ],
      "stateMutability": "pure",
      "type": "function"
    },
    {
      "inputs": [],
      "name": "proposalThreshold",
      "outputs": [
        {
          "internalType": "uint256",
          "name": "",
          "type": "uint256"
        }
      ],
      "stateMutability": "view",
      "type": "function"
    },
    {
      "inputs": [
        {
          "internalType": "uint256",
          "name": "",
          "type": "uint256"
        }
      ],
      "name": "proposals",
      "outputs": [
        {
          "internalType": "string",
          "name": "title",
          "type": "string"
        },
        {
          "internalType": "string",
          "name": "ipfsHash",
          "type": "string"
        },
        {
          "internalType": "address",
          "name": "proposer",
          "type": "address"
        },
        {
          "internalType": "uint48",
          "name": "eta",
          "type": "uint48"
        },
        {
          "internalType": "uint48",
          "name": "id",
          "type": "uint48"
        },
        {
          "internalType": "uint128",
          "name": "forVotes",
          "type": "uint128"
        },
        {
          "internalType": "uint48",
          "name": "startBlock",
          "type": "uint48"
        },
        {
          "internalType": "uint48",
          "name": "endBlock",
          "type": "uint48"
        },
        {
          "internalType": "bool",
          "name": "canceled",
          "type": "bool"
        },
        {
          "internalType": "bool",
          "name": "executed",
          "type": "bool"
        },
        {
          "internalType": "uint128",
          "name": "againstVotes",
          "type": "uint128"
        },
        {
          "internalType": "uint128",
          "name": "initialSupply",
          "type": "uint128"
        }
      ],
      "stateMutability": "view",
      "type": "function"
    },
    {
      "inputs": [
        {
          "internalType": "address[]",
          "name": "targets",
          "type": "address[]"
        },
        {
          "internalType": "string[]",
          "name": "signatures",
          "type": "string[]"
        },
        {
          "internalType": "bytes[]",
          "name": "calldatas",
          "type": "bytes[]"
        },
        {
          "internalType": "string",
          "name": "title",
          "type": "string"
        },
        {
          "internalType": "string",
          "name": "ipfsHash",
          "type": "string"
        }
      ],
      "name": "propose",
      "outputs": [
        {
          "internalType": "uint256",
          "name": "",
          "type": "uint256"
        }
      ],
      "stateMutability": "nonpayable",
      "type": "function"
    },
    {
      "inputs": [
        {
          "internalType": "uint256",
          "name": "proposalId",
          "type": "uint256"
        }
      ],
      "name": "queue",
      "outputs": [],
      "stateMutability": "nonpayable",
      "type": "function"
    },
    {
      "inputs": [],
      "name": "quorumVotes",
      "outputs": [
        {
          "internalType": "uint256",
          "name": "",
          "type": "uint256"
        }
      ],
      "stateMutability": "view",
      "type": "function"
    },
    {
      "inputs": [
        {
          "internalType": "uint256",
          "name": "proposalId",
          "type": "uint256"
        }
      ],
      "name": "state",
      "outputs": [
        {
          "internalType": "enum GovernorAlpha.ProposalState",
          "name": "",
          "type": "uint8"
        }
      ],
      "stateMutability": "view",
      "type": "function"
    },
    {
      "inputs": [],
      "name": "tDao",
      "outputs": [
        {
          "internalType": "contract ITDao",
          "name": "",
          "type": "address"
        }
      ],
      "stateMutability": "view",
      "type": "function"
    },
    {
      "inputs": [],
      "name": "timelock",
      "outputs": [
        {
          "internalType": "contract TimelockInterface",
          "name": "",
          "type": "address"
        }
      ],
      "stateMutability": "view",
      "type": "function"
    },
    {
      "inputs": [
        {
          "internalType": "contract GovernorAlpha",
          "name": "",
          "type": "address"
        },
        {
          "internalType": "uint256",
          "name": "",
          "type": "uint256"
        }
      ],
      "name": "voteInUnderlyingProtocol",
      "outputs": [],
      "stateMutability": "pure",
      "type": "function"
    },
    {
      "inputs": [],
      "name": "votingDelay",
      "outputs": [
        {
          "internalType": "uint256",
          "name": "",
          "type": "uint256"
        }
      ],
      "stateMutability": "pure",
      "type": "function"
    },
    {
      "inputs": [],
      "name": "votingPeriod",
      "outputs": [
        {
          "internalType": "uint256",
          "name": "",
          "type": "uint256"
        }
      ],
      "stateMutability": "view",
      "type": "function"
    },
    {
      "inputs": [],
      "name": "votingPeriodBlocks",
      "outputs": [
        {
          "internalType": "uint48",
          "name": "",
          "type": "uint48"
        }
      ],
      "stateMutability": "view",
      "type": "function"
    },
    {
      "inputs": [],
      "name": "votingToken",
      "outputs": [
        {
          "internalType": "contract VotingTokenInterface",
          "name": "",
          "type": "address"
        }
      ],
      "stateMutability": "view",
      "type": "function"
    }
  ],
  "bytecode": "0x610100604052348015620000135760006000fd5b50604051620082de380380620082de83398181016040528101906200003991906200034b565b5b6040518060400160405280601381526020017f5444616f20476f7665726e6f7220416c70686100000000000000000000000000815260200150858585855b84848484845b8460006000509080519060200190620000999291906200028a565b50600073ffffffffffffffffffffffffffffffffffffffff168473ffffffffffffffffffffffffffffffffffffffff1614158015620001055750600073ffffffffffffffffffffffffffffffffffffffff168373ffffffffffffffffffffffffffffffffffffffff1614155b80156200013f5750600073ffffffffffffffffffffffffffffffffffffffff168273ffffffffffffffffffffffffffffffffffffffff1614155b15156200014c5760006000fd5b8373ffffffffffffffffffffffffffffffffffffffff1660808173ffffffffffffffffffffffffffffffffffffffff1660601b815260140150508273ffffffffffffffffffffffffffffffffffffffff1660c08173ffffffffffffffffffffffffffffffffffffffff1660601b8152601401505081600160006101000a81548173ffffffffffffffffffffffffffffffffffffffff021916908373ffffffffffffffffffffffffffffffffffffffff16021790555060008165ffffffffffff161115156200021a5760006000fd5b8065ffffffffffff1660a08165ffffffffffff1660d01b815260060150505b50505050505b50505050508073ffffffffffffffffffffffffffffffffffffffff1660e08173ffffffffffffffffffffffffffffffffffffffff1660601b815260140150505b50505050506200043e565b8280546200029890620003dc565b90600052602060002090601f016020900481019282620002bc57600085556200030d565b82601f10620002d757805160ff19168380011785556200030d565b828001600101855582156200030d579182015b828111156200030c5782518260005090905591602001919060010190620002ea565b5b5090506200031c919062000320565b5090565b62000326565b8082111562000342576000818150600090555060010162000326565b5090566200043d565b6000600060006000600060a0868803121562000365578081fd5b8551620003728162000420565b809550506020860151620003868162000420565b8094505060408601516200039a8162000420565b80935050606086015165ffffffffffff811681141515620003b9578182fd5b809250506080860151620003cd8162000420565b809150505b9295509295909350565b60008160011c905060018216801515620003f757607f821691505b602082108114156200041957634e487b7160e01b600052602260045260246000fd5b505b919050565b6001600160a01b03811681141515620004395760006000fd5b505b565b5b60805160601c60a05160d01c60c05160601c60e05160601c617de3620004fb6000396000818161232f015281816134350152614d4a015260008181610d7f015281816115ab015281816121e801528181612c7e01528181612ef501528181612f410152818161357601528181613ba10152614f730152600081816109910152612f1901526000818161132b015281816117050152818161352a015281816140dd015281816146f50152818161573a01526158530152617de36000f3fe60806040523480156100115760006000fd5b50600436106102615760003560e01c806362564c4811610146578063d0b8bffe116100be578063ddf0b0091161008d578063e23a9a5211610072578063e23a9a52146106c2578063e3a5bcaf146106f2578063fe0d94c11461072257610261565b8063ddf0b00914610688578063deaaa7cc146106a457610261565b8063d0b8bffe14610600578063d33219b41461061c578063da35c6641461063a578063db1165111461065857610261565b806383b0ce1511610115578063b24b7ffd116100fa578063b24b7ffd14610594578063b58131b0146105b2578063c5b3116d146105d057610261565b806383b0ce1514610544578063b03401231461057657610261565b806362564c48146104e0578063760fbc13146104fe5780637bdbe4d0146105085780637e90f9ab1461052657610261565b8063328dd982116101d9578063452a9320116101a85780634761e2041161018d5780634761e204146104765780634c92beb7146104a65780634e9568ef146104c457610261565b8063452a93201461043c5780634634c61f1461045a57610261565b8063328dd982146103a05780633932abb1146103d25780633e4f49e6146103f057806340e58ee51461042057610261565b806315373e3d1161023057806320606b701161021557806320606b701461034657806324bc1a641461036457806329c0e5fd1461038257610261565b806315373e3d146102fa57806317977c611461031657610261565b8063013cf08b1461026757806302a251a3146102a2578063062f1466146102c057806306fdde03146102dc57610261565b60006000fd5b610281600480360381019061027c91906164c5565b61073e565b6040516102999c9b9a99989796959493929190616ece565b60405180910390f35b6102aa61098d565b6040516102b79190617a67565b60405180910390f35b6102da60048036038101906102d5919061635b565b6109c2565b005b6102e4610c8f565b6040516102f19190616eb2565b60405180910390f35b610314600480360381019061030f919061652e565b610d20565b005b610330600480360381019061032b9190616234565b610d3a565b60405161033d9190617a67565b60405180910390f35b61034e610d55565b60405161035b9190616d86565b60405180910390f35b61036c610d79565b6040516103799190617a67565b60405180910390f35b61038a610e31565b6040516103979190617a67565b60405180910390f35b6103ba60048036038101906103b591906164c5565b610e3c565b6040516103c993929190616ac8565b60405180910390f35b6103da6110c0565b6040516103e79190617a67565b60405180910390f35b61040a600480360381019061040591906164c5565b6110ce565b6040516104179190616e99565b60405180910390f35b61043a600480360381019061043591906164c5565b611401565b005b6104446118fd565b6040516104519190616911565b60405180910390f35b610474600480360381019061046f919061655f565b611923565b005b610490600480360381019061048b9190616234565b611af4565b60405161049d9190616cf2565b60405180910390f35b6104ae61232d565b6040516104bb9190616e21565b60405180910390f35b6104de60048036038101906104d99190616494565b612351565b005b6104e8612356565b6040516104f59190616b0d565b60405180910390f35b610506612bd7565b005b610510612c6c565b60405161051d9190617a67565b60405180910390f35b61052e612c7a565b60405161053b9190616911565b60405180910390f35b61055e600480360381019061055991906164c5565b612ca7565b60405161056d93929190616a59565b60405180910390f35b61057e612ef3565b60405161058b9190616e71565b60405180910390f35b61059c612f17565b6040516105a99190617a79565b60405180910390f35b6105ba612f3b565b6040516105c79190617a67565b60405180910390f35b6105ea60048036038101906105e591906164fd565b612ff3565b6040516105f79190617a67565b60405180910390f35b61061a6004803603810190610615919061635b565b613012565b005b610624613528565b6040516106319190616e49565b60405180910390f35b61064261354c565b60405161064f9190617a79565b60405180910390f35b610672600480360381019061066d919061628c565b613564565b60405161067f9190617a67565b60405180910390f35b6106a2600480360381019061069d91906164c5565b613ff5565b005b6106ac614458565b6040516106b99190616d86565b60405180910390f35b6106dc60048036038101906106d791906164fd565b61447c565b6040516106e99190617a4e565b60405180910390f35b61070c600480360381019061070791906164fd565b6145a8565b6040516107199190616d72565b60405180910390f35b61073c600480360381019061073791906164c5565b6145dd565b005b600360005060205280600052604060002060009150905080600301600050805461076790617c47565b80601f016020809104026020016040519081016040528092919081815260200182805461079390617c47565b80156107e05780601f106107b5576101008083540402835291602001916107e0565b820191906000526020600020905b8154815290600101906020018083116107c357829003601f168201915b5050505050908060040160005080546107f890617c47565b80601f016020809104026020016040519081016040528092919081815260200182805461082490617c47565b80156108715780601f1061084657610100808354040283529160200191610871565b820191906000526020600020905b81548152906001019060200180831161085457829003601f168201915b5050505050908060050160009054906101000a900473ffffffffffffffffffffffffffffffffffffffff16908060050160149054906101000a900465ffffffffffff169080600501601a9054906101000a900465ffffffffffff16908060060160009054906101000a90046fffffffffffffffffffffffffffffffff16908060060160109054906101000a900465ffffffffffff16908060060160169054906101000a900465ffffffffffff169080600601601c9054906101000a900460ff169080600601601d9054906101000a900460ff16908060070160009054906101000a90046fffffffffffffffffffffffffffffffff16908060070160109054906101000a90046fffffffffffffffffffffffffffffffff1690508c565b60007f000000000000000000000000000000000000000000000000000000000000000065ffffffffffff1690506109bf565b90565b600060006000600090505b84849050811015610c1f578484828181101515610a13577f4e487b7100000000000000000000000000000000000000000000000000000000600052603260045260246000fd5b9050602002013591508150610a2d8261491463ffffffff16565b1515610a6e576040517f08c379a0000000000000000000000000000000000000000000000000000000008152600401610a65906170fd565b60405180910390fd5b6002600050600083815260200190815260200160002060005060003373ffffffffffffffffffffffffffffffffffffffff1673ffffffffffffffffffffffffffffffffffffffff16815260200190815260200160002060005060000160009054906101000a900460ff161515610b19576040517f08c379a0000000000000000000000000000000000000000000000000000000008152600401610b10906171e0565b60405180910390fd5b60006002600050600084815260200190815260200160002060005060003373ffffffffffffffffffffffffffffffffffffffff1673ffffffffffffffffffffffffffffffffffffffff16815260200190815260200160002060005090508060000160029054906101000a900460ff16151515610bca576040517f08c379a0000000000000000000000000000000000000000000000000000000008152600401610bc19061759f565b60405180910390fd5b60018160000160026101000a81548160ff021916908315150217905550610c0684610bfb8533614b1c63ffffffff16565b614cd763ffffffff16565b93508350505b8080610c1790617ca2565b9150506109cd565b506000821115610c8857610c393383614d3e63ffffffff16565b3373ffffffffffffffffffffffffffffffffffffffff167f56cd411799f8eaf36ff267057223a17836afa0a91a109fe7e102ef919e6fa19d83604051610c7f9190617a67565b60405180910390a25b50505b5050565b60006000508054610c9f90617c47565b80601f0160208091040260200160405190810160405280929190818152602001828054610ccb90617c47565b8015610d185780601f10610ced57610100808354040283529160200191610d18565b820191906000526020600020905b815481529060010190602001808311610cfb57829003601f168201915b505050505081565b610d31338383614ddd63ffffffff16565b610d36565b5050565b60046000506020528060005260406000206000915090505481565b7f8cad95687ba82c2ce50e74f7b754645e5117c3a5bec8151c0726d5857980a86681565b600060287f000000000000000000000000000000000000000000000000000000000000000073ffffffffffffffffffffffffffffffffffffffff166318160ddd6040518163ffffffff1660e01b815260040160206040518083038186803b158015610de45760006000fd5b505afa158015610df9573d600060003e3d6000fd5b505050506040513d601f19601f82011682018060405250810190610e1d91906164e1565b610e279190617bb1565b9050610e2e565b90565b6611c37937e0800081565b606060606060600060036000506000868152602001908152602001600020600050905080600001600050816001016000508260020160005082805480602002602001604051908101604052809291908181526020018280548015610ef557602002820191906000526020600020905b8160009054906101000a900473ffffffffffffffffffffffffffffffffffffffff1673ffffffffffffffffffffffffffffffffffffffff1681526020019060010190808311610eab575b5050505050925081805480602002602001604051908101604052809291908181526020016000905b82821015610fce578382906000526020600020900160005b508054610f4190617c47565b80601f0160208091040260200160405190810160405280929190818152602001828054610f6d90617c47565b8015610fba5780601f10610f8f57610100808354040283529160200191610fba565b820191906000526020600020905b815481529060010190602001808311610f9d57829003601f168201915b505050505081526020019060010190610f1d565b50505050915080805480602002602001604051908101604052809291908181526020016000905b828210156110a6578382906000526020600020900160005b50805461101990617c47565b80601f016020809104026020016040519081016040528092919081815260200182805461104590617c47565b80156110925780601f1061106757610100808354040283529160200191611092565b820191906000526020600020905b81548152906001019060200180831161107557829003601f168201915b505050505081526020019060010190610ff5565b505050509050935093509350506110b956505b9193909250565b6000600190506110cb565b90565b600081600160149054906101000a900465ffffffffffff1665ffffffffffff16101580156110fc5750600082115b151561113d576040517f08c379a00000000000000000000000000000000000000000000000000000000081526004016111349061717b565b60405180910390fd5b600060036000506000848152602001908152602001600020600050905080600601601c9054906101000a900460ff161561117f5760029150506113fc566113fa565b8060060160109054906101000a900465ffffffffffff1665ffffffffffff16431115156111b45760009150506113fc566113f9565b8060060160169054906101000a900465ffffffffffff1665ffffffffffff16431115156111e95760019150506113fc566113f8565b8060070160009054906101000a90046fffffffffffffffffffffffffffffffff166fffffffffffffffffffffffffffffffff168160060160009054906101000a90046fffffffffffffffffffffffffffffffff166fffffffffffffffffffffffffffffffff1611158061129a5750611265610d7963ffffffff16565b8160060160009054906101000a90046fffffffffffffffffffffffffffffffff166fffffffffffffffffffffffffffffffff16105b156112ad5760039150506113fc566113f7565b60008160050160149054906101000a900465ffffffffffff1665ffffffffffff1614156112e25760049150506113fc566113f6565b80600601601d9054906101000a900460ff16156113075760079150506113fc566113f5565b6113d48160050160149054906101000a900465ffffffffffff1665ffffffffffff167f000000000000000000000000000000000000000000000000000000000000000073ffffffffffffffffffffffffffffffffffffffff1663c1a287e26040518163ffffffff1660e01b815260040160206040518083038186803b1580156113905760006000fd5b505afa1580156113a5573d600060003e3d6000fd5b505050506040513d601f19601f820116820180604052508101906113c991906164e1565b614cd763ffffffff16565b421015156113ea5760069150506113fc566113f4565b60059150506113fc565b5b5b5b5b5b5b505b919050565b6007600781111561143b577f4e487b7100000000000000000000000000000000000000000000000000000000600052602160045260246000fd5b61144a826110ce63ffffffff16565b6007811115611482577f4e487b7100000000000000000000000000000000000000000000000000000000600052602160045260246000fd5b141515156114c5576040517f08c379a00000000000000000000000000000000000000000000000000000000081526004016114bc90617906565b60405180910390fd5b60006003600050600083815260200190815260200160002060005090508060060160169054906101000a900465ffffffffffff1665ffffffffffff1643101515611544576040517f08c379a000000000000000000000000000000000000000000000000000000000815260040161153b90617669565b60405180910390fd5b600160009054906101000a900473ffffffffffffffffffffffffffffffffffffffff1673ffffffffffffffffffffffffffffffffffffffff163373ffffffffffffffffffffffffffffffffffffffff16148061168c57506115a9612f3b63ffffffff16565b7f000000000000000000000000000000000000000000000000000000000000000073ffffffffffffffffffffffffffffffffffffffff1663782d6fe18360050160009054906101000a900473ffffffffffffffffffffffffffffffffffffffff1661161b43600161530c63ffffffff16565b6040518363ffffffff1660e01b81526004016116389291906169e9565b60206040518083038186803b1580156116515760006000fd5b505afa158015611666573d600060003e3d6000fd5b505050506040513d601f19601f8201168201806040525081019061168a91906164e1565b105b15156116cd576040517f08c379a00000000000000000000000000000000000000000000000000000000081526004016116c49061753a565b60405180910390fd5b600181600601601c6101000a81548160ff0219169083151502179055506000600090505b81600001600050805490508110156118ca577f000000000000000000000000000000000000000000000000000000000000000073ffffffffffffffffffffffffffffffffffffffff16624b1f12836000016000508381548110151561177f577f4e487b7100000000000000000000000000000000000000000000000000000000600052603260045260246000fd5b906000526020600020900160005b9054906101000a900473ffffffffffffffffffffffffffffffffffffffff1684600101600050848154811015156117ed577f4e487b7100000000000000000000000000000000000000000000000000000000600052603260045260246000fd5b906000526020600020900160005b50856002016000508581548110151561183d577f4e487b7100000000000000000000000000000000000000000000000000000000600052603260045260246000fd5b906000526020600020900160005b508660050160149054906101000a900465ffffffffffff166040518563ffffffff1660e01b8152600401611882949392919061698d565b600060405180830381600087803b15801561189d5760006000fd5b505af11580156118b2573d600060003e3d6000fd5b505050505b80806118c290617ca2565b9150506116f1565b50817f789cf55be980739dad1d0699b93b58e806b51c9d96619bfa8fe0a28abaa7b30c60405160405180910390a2505b50565b600160009054906101000a900473ffffffffffffffffffffffffffffffffffffffff1681565b60007f8cad95687ba82c2ce50e74f7b754645e5117c3a5bec8151c0726d5857980a8666000600050604051611958919061683b565b604051809103902046306040516020016119759493929190616d98565b60405160208183030381529060405280519060200120905060007f8e25870c07e0b0b3884c78da52790939a455c275406c44ae8b434b692fb916ee87876040516020016119c493929190616dd5565b604051602081830303815290604052805190602001209050600082826040516020016119f19291906168d2565b604051602081830303815290604052805190602001209050600060018288888860405160008152602001604052604051611a2e9493929190616df7565b6020604051602081039080840390855afa158015611a51573d600060003e3d6000fd5b505050602060405103519050600073ffffffffffffffffffffffffffffffffffffffff168173ffffffffffffffffffffffffffffffffffffffff1614151515611acf576040517f08c379a0000000000000000000000000000000000000000000000000000000008152600401611ac6906177d7565b60405180910390fd5b611ae0818a8a614ddd63ffffffff16565b50505050611aed56505050505b5050505050565b6060600160149054906101000a900465ffffffffffff1665ffffffffffff1667ffffffffffffffff811115611b52577f4e487b7100000000000000000000000000000000000000000000000000000000600052604160045260246000fd5b604051908082528060200260200182016040528015611b8b57816020015b611b78615af1565b815260200190600190039081611b705790505b50905080506000600090505b600160149054906101000a900465ffffffffffff1665ffffffffffff168165ffffffffffff16101561231f576000600182611bd29190617b80565b65ffffffffffff169050600060036000506000838152602001908152602001600020600050604051806101e001604052908160008201600050805480602002602001604051908101604052809291908181526020018280548015611c8b57602002820191906000526020600020905b8160009054906101000a900473ffffffffffffffffffffffffffffffffffffffff1673ffffffffffffffffffffffffffffffffffffffff1681526020019060010190808311611c41575b5050505050815260200160018201600050805480602002602001604051908101604052809291908181526020016000905b82821015611d6d578382906000526020600020900160005b508054611ce090617c47565b80601f0160208091040260200160405190810160405280929190818152602001828054611d0c90617c47565b8015611d595780601f10611d2e57610100808354040283529160200191611d59565b820191906000526020600020905b815481529060010190602001808311611d3c57829003601f168201915b505050505081526020019060010190611cbc565b50505050815260200160028201600050805480602002602001604051908101604052809291908181526020016000905b82821015611e4e578382906000526020600020900160005b508054611dc190617c47565b80601f0160208091040260200160405190810160405280929190818152602001828054611ded90617c47565b8015611e3a5780601f10611e0f57610100808354040283529160200191611e3a565b820191906000526020600020905b815481529060010190602001808311611e1d57829003601f168201915b505050505081526020019060010190611d9d565b505050508152602001600382016000508054611e6990617c47565b80601f0160208091040260200160405190810160405280929190818152602001828054611e9590617c47565b8015611ee25780601f10611eb757610100808354040283529160200191611ee2565b820191906000526020600020905b815481529060010190602001808311611ec557829003601f168201915b50505050508152602001600482016000508054611efe90617c47565b80601f0160208091040260200160405190810160405280929190818152602001828054611f2a90617c47565b8015611f775780601f10611f4c57610100808354040283529160200191611f77565b820191906000526020600020905b815481529060010190602001808311611f5a57829003601f168201915b505050505081526020016005820160009054906101000a900473ffffffffffffffffffffffffffffffffffffffff1673ffffffffffffffffffffffffffffffffffffffff1673ffffffffffffffffffffffffffffffffffffffff1681526020016005820160149054906101000a900465ffffffffffff1665ffffffffffff1665ffffffffffff16815260200160058201601a9054906101000a900465ffffffffffff1665ffffffffffff1665ffffffffffff1681526020016006820160009054906101000a90046fffffffffffffffffffffffffffffffff166fffffffffffffffffffffffffffffffff166fffffffffffffffffffffffffffffffff1681526020016006820160109054906101000a900465ffffffffffff1665ffffffffffff1665ffffffffffff1681526020016006820160169054906101000a900465ffffffffffff1665ffffffffffff1665ffffffffffff16815260200160068201601c9054906101000a900460ff1615151515815260200160068201601d9054906101000a900460ff161515151581526020016007820160009054906101000a90046fffffffffffffffffffffffffffffffff166fffffffffffffffffffffffffffffffff166fffffffffffffffffffffffffffffffff1681526020016007820160109054906101000a90046fffffffffffffffffffffffffffffffff166fffffffffffffffffffffffffffffffff166fffffffffffffffffffffffffffffffff1681526020015050905060405180608001604052808260e0015165ffffffffffff1681526020016121cc848861447c63ffffffff16565b81526020014383610120015165ffffffffffff16101561229d577f000000000000000000000000000000000000000000000000000000000000000073ffffffffffffffffffffffffffffffffffffffff1663782d6fe1888561012001516040518363ffffffff1660e01b8152600401612246929190616a91565b60206040518083038186803b15801561225f5760006000fd5b505afa158015612274573d600060003e3d6000fd5b505050506040513d601f19601f8201168201806040525081019061229891906164e1565b6122a0565b60005b81526020016122b58488614b1c63ffffffff16565b815260200150848465ffffffffffff168151811015156122fe577f4e487b7100000000000000000000000000000000000000000000000000000000600052603260045260246000fd5b602002602001018190525050505b808061231790617ce1565b915050611b97565b50809050612328565b919050565b7f000000000000000000000000000000000000000000000000000000000000000081565b5b5050565b6060600160149054906101000a900465ffffffffffff1665ffffffffffff1667ffffffffffffffff8111156123b4577f4e487b7100000000000000000000000000000000000000000000000000000000600052604160045260246000fd5b6040519080825280602002602001820160405280156123ed57816020015b6123da615b2a565b8152602001906001900390816123d25790505b50905080506000600090505b600160149054906101000a900465ffffffffffff1665ffffffffffff168165ffffffffffff161015612bcb5760006001826124349190617b80565b65ffffffffffff169050600060036000506000838152602001908152602001600020600050604051806101e0016040529081600082016000508054806020026020016040519081016040528092919081815260200182805480156124ed57602002820191906000526020600020905b8160009054906101000a900473ffffffffffffffffffffffffffffffffffffffff1673ffffffffffffffffffffffffffffffffffffffff16815260200190600101908083116124a3575b5050505050815260200160018201600050805480602002602001604051908101604052809291908181526020016000905b828210156125cf578382906000526020600020900160005b50805461254290617c47565b80601f016020809104026020016040519081016040528092919081815260200182805461256e90617c47565b80156125bb5780601f10612590576101008083540402835291602001916125bb565b820191906000526020600020905b81548152906001019060200180831161259e57829003601f168201915b50505050508152602001906001019061251e565b50505050815260200160028201600050805480602002602001604051908101604052809291908181526020016000905b828210156126b0578382906000526020600020900160005b50805461262390617c47565b80601f016020809104026020016040519081016040528092919081815260200182805461264f90617c47565b801561269c5780601f106126715761010080835404028352916020019161269c565b820191906000526020600020905b81548152906001019060200180831161267f57829003601f168201915b5050505050815260200190600101906125ff565b5050505081526020016003820160005080546126cb90617c47565b80601f01602080910402602001604051908101604052809291908181526020018280546126f790617c47565b80156127445780601f1061271957610100808354040283529160200191612744565b820191906000526020600020905b81548152906001019060200180831161272757829003601f168201915b5050505050815260200160048201600050805461276090617c47565b80601f016020809104026020016040519081016040528092919081815260200182805461278c90617c47565b80156127d95780601f106127ae576101008083540402835291602001916127d9565b820191906000526020600020905b8154815290600101906020018083116127bc57829003601f168201915b505050505081526020016005820160009054906101000a900473ffffffffffffffffffffffffffffffffffffffff1673ffffffffffffffffffffffffffffffffffffffff1673ffffffffffffffffffffffffffffffffffffffff1681526020016005820160149054906101000a900465ffffffffffff1665ffffffffffff1665ffffffffffff16815260200160058201601a9054906101000a900465ffffffffffff1665ffffffffffff1665ffffffffffff1681526020016006820160009054906101000a90046fffffffffffffffffffffffffffffffff166fffffffffffffffffffffffffffffffff166fffffffffffffffffffffffffffffffff1681526020016006820160109054906101000a900465ffffffffffff1665ffffffffffff1665ffffffffffff1681526020016006820160169054906101000a900465ffffffffffff1665ffffffffffff1665ffffffffffff16815260200160068201601c9054906101000a900460ff1615151515815260200160068201601d9054906101000a900460ff161515151581526020016007820160009054906101000a90046fffffffffffffffffffffffffffffffff166fffffffffffffffffffffffffffffffff166fffffffffffffffffffffffffffffffff1681526020016007820160109054906101000a90046fffffffffffffffffffffffffffffffff166fffffffffffffffffffffffffffffffff166fffffffffffffffffffffffffffffffff1681526020015050905060405180610200016040528082600001518152602001826020015181526020018260400151815260200182606001518152602001826080015181526020018260a0015173ffffffffffffffffffffffffffffffffffffffff1681526020018260c0015165ffffffffffff1681526020018260e0015165ffffffffffff1681526020018261010001516fffffffffffffffffffffffffffffffff16815260200182610120015165ffffffffffff16815260200182610140015165ffffffffffff1681526020018261016001511515815260200182610180015115158152602001826101a001516fffffffffffffffffffffffffffffffff168152602001826101c001516fffffffffffffffffffffffffffffffff168152602001612b29846110ce63ffffffff16565b6007811115612b61577f4e487b7100000000000000000000000000000000000000000000000000000000600052602160045260246000fd5b815260200150848465ffffffffffff16815181101515612baa577f4e487b7100000000000000000000000000000000000000000000000000000000600052603260045260246000fd5b602002602001018190525050505b8080612bc390617ce1565b9150506123f9565b50809050612bd4565b90565b612be63361536c63ffffffff16565b1515612c27576040517f08c379a0000000000000000000000000000000000000000000000000000000008152600401612c1e9061725e565b60405180910390fd5b6000600160006101000a81548173ffffffffffffffffffffffffffffffffffffffff021916908373ffffffffffffffffffffffffffffffffffffffff1602179055505b565b6000600a9050612c77565b90565b60007f00000000000000000000000000000000000000000000000000000000000000009050612ca4565b90565b600060006000612cbc8461491463ffffffff16565b1515612cfd576040517f08c379a0000000000000000000000000000000000000000000000000000000008152600401612cf4906170fd565b60405180910390fd5b612d0c8461537c63ffffffff16565b1515612d4d576040517f08c379a0000000000000000000000000000000000000000000000000000000008152600401612d4490617302565b60405180910390fd5b60006003600050600086815260200190815260200160002060005060060160009054906101000a90046fffffffffffffffffffffffffffffffff16905060006003600050600087815260200190815260200160002060005060070160009054906101000a90046fffffffffffffffffffffffffffffffff169050806fffffffffffffffffffffffffffffffff16826fffffffffffffffffffffffffffffffff16119250825082612e5f57612e05610d7963ffffffff16565b816fffffffffffffffffffffffffffffffff16111515612e5a576040517f08c379a0000000000000000000000000000000000000000000000000000000008152600401612e51906170be565b60405180910390fd5b612ec3565b612e6d610d7963ffffffff16565b826fffffffffffffffffffffffffffffffff16111515612ec2576040517f08c379a0000000000000000000000000000000000000000000000000000000008152600401612eb99061721f565b60405180910390fd5b5b612ed2866154e563ffffffff16565b80955081965050508484849450945094505050612eec5650505b9193909250565b7f000000000000000000000000000000000000000000000000000000000000000081565b7f000000000000000000000000000000000000000000000000000000000000000081565b600060c87f000000000000000000000000000000000000000000000000000000000000000073ffffffffffffffffffffffffffffffffffffffff166318160ddd6040518163ffffffff1660e01b815260040160206040518083038186803b158015612fa65760006000fd5b505afa158015612fbb573d600060003e3d6000fd5b505050506040513d601f19601f82011682018060405250810190612fdf91906164e1565b612fe99190617bb1565b9050612ff0565b90565b60006130058383614b1c63ffffffff16565b905061300c565b92915050565b6000600090505b828290508110156135225760008383838181101515613061577f4e487b7100000000000000000000000000000000000000000000000000000000600052603260045260246000fd5b9050602002013590506130798161491463ffffffff16565b15156130ba576040517f08c379a00000000000000000000000000000000000000000000000000000000081526004016130b1906170fd565b60405180910390fd5b6130c98161537c63ffffffff16565b151561310a576040517f08c379a000000000000000000000000000000000000000000000000000000000815260040161310190617302565b60405180910390fd5b6002600050600082815260200190815260200160002060005060003373ffffffffffffffffffffffffffffffffffffffff1673ffffffffffffffffffffffffffffffffffffffff16815260200190815260200160002060005060000160009054906101000a900460ff1615156131b5576040517f08c379a00000000000000000000000000000000000000000000000000000000081526004016131ac906171e0565b60405180910390fd5b6005600050600082815260200190815260200160002060005060003373ffffffffffffffffffffffffffffffffffffffff1673ffffffffffffffffffffffffffffffffffffffff16815260200190815260200160002060009054906101000a900460ff1615151561325b576040517f08c379a000000000000000000000000000000000000000000000000000000000815260040161325290617470565b60405180910390fd5b60016005600050600083815260200190815260200160002060005060003373ffffffffffffffffffffffffffffffffffffffff1673ffffffffffffffffffffffffffffffffffffffff16815260200190815260200160002060006101000a81548160ff021916908315150217905550600060006132dd836154e563ffffffff16565b91509150600061343161338a6003600050600087815260200190815260200160002060005060060160009054906101000a90046fffffffffffffffffffffffffffffffff166fffffffffffffffffffffffffffffffff166003600050600088815260200190815260200160002060005060070160009054906101000a90046fffffffffffffffffffffffffffffffff166fffffffffffffffffffffffffffffffff16614cd763ffffffff16565b6002600050600087815260200190815260200160002060005060003373ffffffffffffffffffffffffffffffffffffffff1673ffffffffffffffffffffffffffffffffffffffff16815260200190815260200160002060005060000160039054906101000a900476ffffffffffffffffffffffffffffffffffffffffffffff1676ffffffffffffffffffffffffffffffffffffffffffffff166155ff90919063ffffffff16565b90507f000000000000000000000000000000000000000000000000000000000000000073ffffffffffffffffffffffffffffffffffffffff1663b9f8ea6d848433856040518563ffffffff1660e01b81526004016134929493929190616a18565b600060405180830381600087803b1580156134ad5760006000fd5b505af11580156134c2573d600060003e3d6000fd5b50505050833373ffffffffffffffffffffffffffffffffffffffff167f28df778d69fdf2ff5a7357c6ab2ed2b2366966f5baf183da0e39b42577c6bc7c60405160405180910390a3505050505b808061351a90617ca2565b915050613019565b505b5050565b7f000000000000000000000000000000000000000000000000000000000000000081565b600160149054906101000a900465ffffffffffff1681565b6000613574612f3b63ffffffff16565b7f000000000000000000000000000000000000000000000000000000000000000073ffffffffffffffffffffffffffffffffffffffff1663782d6fe1336135c243600161530c63ffffffff16565b6040518363ffffffff1660e01b81526004016135df9291906169e9565b60206040518083038186803b1580156135f85760006000fd5b505afa15801561360d573d600060003e3d6000fd5b505050506040513d601f19601f8201168201806040525081019061363191906164e1565b111515613673576040517f08c379a000000000000000000000000000000000000000000000000000000000815260040161366a90617772565b60405180910390fd5b84518651148015613685575083518651145b15156136c6576040517f08c379a00000000000000000000000000000000000000000000000000000000081526004016136bd906174af565b60405180910390fd5b6000865111151561370c576040517f08c379a00000000000000000000000000000000000000000000000000000000081526004016137039061770d565b60405180910390fd5b61371a612c6c63ffffffff16565b86511115151561375f576040517f08c379a0000000000000000000000000000000000000000000000000000000008152600401613756906173cc565b60405180910390fd5b6000600460005060003373ffffffffffffffffffffffffffffffffffffffff1673ffffffffffffffffffffffffffffffffffffffff16815260200190815260200160002060005054905060008111156139335760006137c3826110ce63ffffffff16565b9050600160078111156137ff577f4e487b7100000000000000000000000000000000000000000000000000000000600052602160045260246000fd5b816007811115613838577f4e487b7100000000000000000000000000000000000000000000000000000000600052602160045260246000fd5b1415151561387b576040517f08c379a00000000000000000000000000000000000000000000000000000000081526004016138729061783c565b60405180910390fd5b600060078111156138b5577f4e487b7100000000000000000000000000000000000000000000000000000000600052602160045260246000fd5b8160078111156138ee577f4e487b7100000000000000000000000000000000000000000000000000000000600052602160045260246000fd5b14151515613931576040517f08c379a000000000000000000000000000000000000000000000000000000000815260040161392890617341565b60405180910390fd5b505b6000600090505b86518110156139eb576139d78882815181101515613981577f4e487b7100000000000000000000000000000000000000000000000000000000600052603260045260246000fd5b602002602001015188838151811015156139c4577f4e487b7100000000000000000000000000000000000000000000000000000000600052603260045260246000fd5b602002602001015161562563ffffffff16565b5b80806139e390617ca2565b91505061393a565b506000613a0b43613a006110c063ffffffff16565b614cd763ffffffff16565b90506000613a2c82613a2161098d63ffffffff16565b614cd763ffffffff16565b90506001601481819054906101000a900465ffffffffffff1680929190613a5290617ce1565b91906101000a81548165ffffffffffff021916908365ffffffffffff160217905550506601000000000000600160149054906101000a900465ffffffffffff1665ffffffffffff16101515613aa75760006000fd5b6000604051806101e001604052808b81526020018a81526020018981526020018881526020018781526020013373ffffffffffffffffffffffffffffffffffffffff168152602001600065ffffffffffff168152602001600160149054906101000a900465ffffffffffff1665ffffffffffff16815260200160006fffffffffffffffffffffffffffffffff168152602001613b488561567a63ffffffff16565b65ffffffffffff168152602001613b648461567a63ffffffff16565b65ffffffffffff16815260200160001515815260200160001515815260200160006fffffffffffffffffffffffffffffffff168152602001613c4a7f000000000000000000000000000000000000000000000000000000000000000073ffffffffffffffffffffffffffffffffffffffff166318160ddd6040518163ffffffff1660e01b815260040160206040518083038186803b158015613c065760006000fd5b505afa158015613c1b573d600060003e3d6000fd5b505050506040513d601f19601f82011682018060405250810190613c3f91906164e1565b6156d463ffffffff16565b6fffffffffffffffffffffffffffffffff16815260200150905080600360005060008360e0015165ffffffffffff1681526020019081526020016000206000506000820151816000016000509080519060200190613ca9929190615c52565b506020820151816001016000509080519060200190613cc9929190615cdc565b506040820151816002016000509080519060200190613ce9929190615d3c565b506060820151816003016000509080519060200190613d09929190615d9c565b506080820151816004016000509080519060200190613d29929190615d9c565b5060a08201518160050160006101000a81548173ffffffffffffffffffffffffffffffffffffffff021916908373ffffffffffffffffffffffffffffffffffffffff16021790555060c08201518160050160146101000a81548165ffffffffffff021916908365ffffffffffff16021790555060e082015181600501601a6101000a81548165ffffffffffff021916908365ffffffffffff1602179055506101008201518160060160006101000a8154816fffffffffffffffffffffffffffffffff02191690836fffffffffffffffffffffffffffffffff1602179055506101208201518160060160106101000a81548165ffffffffffff021916908365ffffffffffff1602179055506101408201518160060160166101000a81548165ffffffffffff021916908365ffffffffffff16021790555061016082015181600601601c6101000a81548160ff02191690831515021790555061018082015181600601601d6101000a81548160ff0219169083151502179055506101a08201518160070160006101000a8154816fffffffffffffffffffffffffffffffff02191690836fffffffffffffffffffffffffffffffff1602179055506101c08201518160070160106101000a8154816fffffffffffffffffffffffffffffffff02191690836fffffffffffffffffffffffffffffffff1602179055509050508060e0015165ffffffffffff16600460005060008360a0015173ffffffffffffffffffffffffffffffffffffffff1673ffffffffffffffffffffffffffffffffffffffff1681526020019081526020016000206000508190909055503373ffffffffffffffffffffffffffffffffffffffff168160e0015165ffffffffffff167fcd423cc1203c0af96b9b3d68d73b3064a69de2d14450bb7181c5e5df2132b35860405160405180910390a38060e0015165ffffffffffff16945050505050613fec56505050505b95945050505050565b6004600781111561402f577f4e487b7100000000000000000000000000000000000000000000000000000000600052602160045260246000fd5b61403e826110ce63ffffffff16565b6007811115614076577f4e487b7100000000000000000000000000000000000000000000000000000000600052602160045260246000fd5b1415156140b8576040517f08c379a00000000000000000000000000000000000000000000000000000000081526004016140af90616fa8565b60405180910390fd5b60006003600050600083815260200190815260200160002060005090506000614186427f000000000000000000000000000000000000000000000000000000000000000073ffffffffffffffffffffffffffffffffffffffff16636a42b8f86040518163ffffffff1660e01b815260040160206040518083038186803b1580156141425760006000fd5b505afa158015614157573d600060003e3d6000fd5b505050506040513d601f19601f8201168201806040525081019061417b91906164e1565b614cd763ffffffff16565b90506000600090505b82600001600050805490508110156143e4576143d083600001600050828154811015156141e5577f4e487b7100000000000000000000000000000000000000000000000000000000600052603260045260246000fd5b906000526020600020900160005b9054906101000a900473ffffffffffffffffffffffffffffffffffffffff168460010160005083815481101515614253577f4e487b7100000000000000000000000000000000000000000000000000000000600052603260045260246000fd5b906000526020600020900160005b50805461426d90617c47565b80601f016020809104026020016040519081016040528092919081815260200182805461429990617c47565b80156142e65780601f106142bb576101008083540402835291602001916142e6565b820191906000526020600020905b8154815290600101906020018083116142c957829003601f168201915b5050505050856002016000508481548110151561432c577f4e487b7100000000000000000000000000000000000000000000000000000000600052603260045260246000fd5b906000526020600020900160005b50805461434690617c47565b80601f016020809104026020016040519081016040528092919081815260200182805461437290617c47565b80156143bf5780601f10614394576101008083540402835291602001916143bf565b820191906000526020600020905b8154815290600101906020018083116143a257829003601f168201915b50505050508561573863ffffffff16565b5b80806143dc90617ca2565b91505061418f565b506143f48161567a63ffffffff16565b8260050160146101000a81548165ffffffffffff021916908365ffffffffffff160217905550827f9a2e42fd6722813d69113e7d0079d3d940171428df7373df9c7f7617cfda28928260405161444a9190617a67565b60405180910390a250505b50565b7f8e25870c07e0b0b3884c78da52790939a455c275406c44ae8b434b692fb916ee81565b614484615e27565b6002600050600084815260200190815260200160002060005060008373ffffffffffffffffffffffffffffffffffffffff1673ffffffffffffffffffffffffffffffffffffffff1681526020019081526020016000206000506040518060800160405290816000820160009054906101000a900460ff161515151581526020016000820160019054906101000a900460ff161515151581526020016000820160029054906101000a900460ff161515151581526020016000820160039054906101000a900476ffffffffffffffffffffffffffffffffffffffffffffff1676ffffffffffffffffffffffffffffffffffffffffffffff1676ffffffffffffffffffffffffffffffffffffffffffffff168152602001505090506145a2565b92915050565b60056000506020528160005260406000206000506020528060005260406000206000915091509054906101000a900460ff1681565b60056007811115614617577f4e487b7100000000000000000000000000000000000000000000000000000000600052602160045260246000fd5b614626826110ce63ffffffff16565b600781111561465e577f4e487b7100000000000000000000000000000000000000000000000000000000600052602160045260246000fd5b1415156146a0576040517f08c379a000000000000000000000000000000000000000000000000000000000815260040161469790617033565b60405180910390fd5b6000600360005060008381526020019081526020016000206000509050600181600601601d6101000a81548160ff0219169083151502179055506000600090505b81600001600050805490508110156148e1577f000000000000000000000000000000000000000000000000000000000000000073ffffffffffffffffffffffffffffffffffffffff16633ec5ab328360000160005083815481101515614770577f4e487b7100000000000000000000000000000000000000000000000000000000600052603260045260246000fd5b906000526020600020900160005b9054906101000a900473ffffffffffffffffffffffffffffffffffffffff1684600101600050848154811015156147de577f4e487b7100000000000000000000000000000000000000000000000000000000600052603260045260246000fd5b906000526020600020900160005b50856002016000508581548110151561482e577f4e487b7100000000000000000000000000000000000000000000000000000000600052603260045260246000fd5b906000526020600020900160005b508660050160149054906101000a900465ffffffffffff166040518563ffffffff1660e01b8152600401614873949392919061698d565b600060405180830381600087803b15801561488e5760006000fd5b505af11580156148a3573d600060003e3d6000fd5b505050506040513d6000823e3d601f19601f820116820180604052508101906148cc9190616413565b505b80806148d990617ca2565b9150506146e1565b50817f712ae1383f79ac853f8d882153778e0260ef8f03b504e2866e0593e04d2b291f60405160405180910390a2505b50565b60006000614927836110ce63ffffffff16565b905060046007811115614963577f4e487b7100000000000000000000000000000000000000000000000000000000600052602160045260246000fd5b81600781111561499c577f4e487b7100000000000000000000000000000000000000000000000000000000600052602160045260246000fd5b1480614a185750600360078111156149dd577f4e487b7100000000000000000000000000000000000000000000000000000000600052602160045260246000fd5b816007811115614a16577f4e487b7100000000000000000000000000000000000000000000000000000000600052602160045260246000fd5b145b80614a93575060056007811115614a58577f4e487b7100000000000000000000000000000000000000000000000000000000600052602160045260246000fd5b816007811115614a91577f4e487b7100000000000000000000000000000000000000000000000000000000600052602160045260246000fd5b145b80614b0e575060076007811115614ad3577f4e487b7100000000000000000000000000000000000000000000000000000000600052602160045260246000fd5b816007811115614b0c577f4e487b7100000000000000000000000000000000000000000000000000000000600052602160045260246000fd5b145b915050614b1756505b919050565b600060006003600050600085815260200190815260200160002060005090506000614bb18260060160009054906101000a90046fffffffffffffffffffffffffffffffff166fffffffffffffffffffffffffffffffff168360070160009054906101000a90046fffffffffffffffffffffffffffffffff166fffffffffffffffffffffffffffffffff16614cd763ffffffff16565b90506000811415614bc757600092505050614cd1565b6000614c156611c37937e080008460070160109054906101000a90046fffffffffffffffffffffffffffffffff166fffffffffffffffffffffffffffffffff1661590c90919063ffffffff16565b9050614cc46002600050600088815260200190815260200160002060005060008773ffffffffffffffffffffffffffffffffffffffff1673ffffffffffffffffffffffffffffffffffffffff16815260200190815260200160002060005060000160039054906101000a900476ffffffffffffffffffffffffffffffffffffffffffffff1676ffffffffffffffffffffffffffffffffffffffffffffff1683836159329092919063ffffffff16565b9350505050614cd1565050505b92915050565b600060008284614ce79190617b60565b9050838110151515614d2e576040517f08c379a0000000000000000000000000000000000000000000000000000000008152600401614d2590617431565b60405180910390fd5b80915050614d3856505b92915050565b600081141515614dd8577f000000000000000000000000000000000000000000000000000000000000000073ffffffffffffffffffffffffffffffffffffffff16630793298783836040518363ffffffff1660e01b8152600401614da39291906169e9565b600060405180830381600087803b158015614dbe5760006000fd5b505af1158015614dd3573d600060003e3d6000fd5b505050505b5b5050565b60016007811115614e17577f4e487b7100000000000000000000000000000000000000000000000000000000600052602160045260246000fd5b614e26836110ce63ffffffff16565b6007811115614e5e577f4e487b7100000000000000000000000000000000000000000000000000000000600052602160045260246000fd5b141515614ea0576040517f08c379a0000000000000000000000000000000000000000000000000000000008152600401614e979061796b565b60405180910390fd5b6000600360005060008481526020019081526020016000206000509050600015156002600050600085815260200190815260200160002060005060008673ffffffffffffffffffffffffffffffffffffffff1673ffffffffffffffffffffffffffffffffffffffff16815260200190815260200160002060005060000160009054906101000a900460ff161515141515614f6f576040517f08c379a0000000000000000000000000000000000000000000000000000000008152600401614f669061729d565b60405180910390fd5b60007f000000000000000000000000000000000000000000000000000000000000000073ffffffffffffffffffffffffffffffffffffffff1663782d6fe1868460060160109054906101000a900465ffffffffffff166040518363ffffffff1660e01b8152600401614fe2929190616a91565b60206040518083038186803b158015614ffb5760006000fd5b505afa158015615010573d600060003e3d6000fd5b505050506040513d601f19601f8201168201806040525081019061503491906164e1565b905082156150cb5761508c6150818360060160009054906101000a90046fffffffffffffffffffffffffffffffff166fffffffffffffffffffffffffffffffff1683614cd763ffffffff16565b6156d463ffffffff16565b8260060160006101000a8154816fffffffffffffffffffffffffffffffff02191690836fffffffffffffffffffffffffffffffff160217905550615156565b61511b6151108360070160009054906101000a90046fffffffffffffffffffffffffffffffff166fffffffffffffffffffffffffffffffff1683614cd763ffffffff16565b6156d463ffffffff16565b8260070160006101000a8154816fffffffffffffffffffffffffffffffff02191690836fffffffffffffffffffffffffffffffff1602179055505b6040518060800160405280600115158152602001841515815260200160001515815260200161518a83615a5663ffffffff16565b76ffffffffffffffffffffffffffffffffffffffffffffff168152602001506002600050600086815260200190815260200160002060005060008773ffffffffffffffffffffffffffffffffffffffff1673ffffffffffffffffffffffffffffffffffffffff16815260200190815260200160002060005060008201518160000160006101000a81548160ff02191690831515021790555060208201518160000160016101000a81548160ff02191690831515021790555060408201518160000160026101000a81548160ff02191690831515021790555060608201518160000160036101000a81548176ffffffffffffffffffffffffffffffffffffffffffffff021916908376ffffffffffffffffffffffffffffffffffffffffffffff160217905550905050821515848673ffffffffffffffffffffffffffffffffffffffff167f877856338e13f63d0c36822ff0ef736b80934cd90574a3a5bc9262c39d217c46846040516152fc9190617a67565b60405180910390a450505b505050565b6000828211151515615353576040517f08c379a000000000000000000000000000000000000000000000000000000000815260040161534a90617a0f565b60405180910390fd5b818361535f9190617bf3565b9050615366565b92915050565b600060019050615377565b919050565b600060006000600061539385610e3c63ffffffff16565b925092509250600183511480156153ab575060018251145b80156153b8575060018151145b801561543257503073ffffffffffffffffffffffffffffffffffffffff16836000815181101515615412577f4e487b7100000000000000000000000000000000000000000000000000000000600052603260045260246000fd5b602002602001015173ffffffffffffffffffffffffffffffffffffffff16145b80156154d35750634e9568ef60e01b7bffffffffffffffffffffffffffffffffffffffffffffffffffffffff19166154b283600081518110151561549f577f4e487b7100000000000000000000000000000000000000000000000000000000600052603260045260246000fd5b6020026020010151615ac163ffffffff16565b7bffffffffffffffffffffffffffffffffffffffffffffffffffffffff1916145b93505050506154e0565050505b919050565b60006000600360005060008481526020019081526020016000206000506002016000506000815481101515615543577f4e487b7100000000000000000000000000000000000000000000000000000000600052603260045260246000fd5b906000526020600020900160005b50805461555d90617c47565b80601f016020809104026020016040519081016040528092919081815260200182805461558990617c47565b80156155d65780601f106155ab576101008083540402835291602001916155d6565b820191906000526020600020905b8154815290600101906020018083116155b957829003601f168201915b50505050508060200190518101906155ee919061625b565b819150915091506155fa565b915091565b600061561a83670de0b6b3a76400008461593263ffffffff16565b905080505b92915050565b61563482615ad763ffffffff16565b1515615675576040517f08c379a000000000000000000000000000000000000000000000000000000000815260040161566c906176ce565b60405180910390fd5b5b5050565b60006601000000000000821015156156c7576040517f08c379a00000000000000000000000000000000000000000000000000000000081526004016156be906178c7565b60405180910390fd5b8190506156cf565b919050565b60007001000000000000000000000000000000008210151561572b576040517f08c379a00000000000000000000000000000000000000000000000000000000081526004016157229061713c565b60405180910390fd5b819050615733565b919050565b7f000000000000000000000000000000000000000000000000000000000000000073ffffffffffffffffffffffffffffffffffffffff1663f2b065378585858560405160200161578b9493929190616939565b604051602081830303815290604052805190602001206040518263ffffffff1660e01b81526004016157bd9190616d86565b60206040518083038186803b1580156157d65760006000fd5b505afa1580156157eb573d600060003e3d6000fd5b505050506040513d601f19601f8201168201806040525081019061580f91906163d0565b151515615851576040517f08c379a0000000000000000000000000000000000000000000000000000000008152600401615848906175de565b60405180910390fd5b7f000000000000000000000000000000000000000000000000000000000000000073ffffffffffffffffffffffffffffffffffffffff16630e70eace858585856040518563ffffffff1660e01b81526004016158b09493929190616939565b602060405180830381600087803b1580156158cb5760006000fd5b505af11580156158e0573d600060003e3d6000fd5b505050506040513d601f19601f8201168201806040525081019061590491906163f7565b505b50505050565b60006159278383670de0b6b3a764000061593263ffffffff16565b905080505b92915050565b6000600060006000198587098587029250828110838203039150506000811415615975576000841115156159665760006000fd5b83820492508292505050615a4f565b80841115156159845760006000fd5b60008486880990508281118203915080830392506000856001877fffffffffffffffffffffffffffffffffffffffffffffffffffffffffffffffff030116905080508086049550808404935060018182600003040190508083028417935083506000600287600302189050808702600203810290508050808702600203810290508050808702600203810290508050808702600203810290508050808702600203810290508050808702600203810290508050808502955085505084945050505050615a4f56505050505b9392505050565b60007701000000000000000000000000000000000000000000000082101515615ab4576040517f08c379a0000000000000000000000000000000000000000000000000000000008152600401615aab906179d0565b60405180910390fd5b819050615abc565b919050565b600081805190602001209050615ad2565b919050565b60006000823b905060008111915050615aec56505b919050565b6040518060800160405280600065ffffffffffff168152602001615b13615e27565b815260200160008152602001600081526020015090565b6040518061020001604052806060815260200160608152602001606081526020016060815260200160608152602001600073ffffffffffffffffffffffffffffffffffffffff168152602001600065ffffffffffff168152602001600065ffffffffffff16815260200160006fffffffffffffffffffffffffffffffff168152602001600065ffffffffffff168152602001600065ffffffffffff16815260200160001515815260200160001515815260200160006fffffffffffffffffffffffffffffffff16815260200160006fffffffffffffffffffffffffffffffff16815260200160006007811115615c49577f4e487b7100000000000000000000000000000000000000000000000000000000600052602160045260246000fd5b81526020015090565b828054828255906000526020600020908101928215615ccb579160200282015b82811115615cca5782518260006101000a81548173ffffffffffffffffffffffffffffffffffffffff021916908373ffffffffffffffffffffffffffffffffffffffff16021790555091602001919060010190615c72565b5b509050615cd89190615e71565b5090565b828054828255906000526020600020908101928215615d2b579160200282015b82811115615d2a578251829080519060200190615d1a929190615d9c565b5091602001919060010190615cfc565b5b509050615d389190615e94565b5090565b828054828255906000526020600020908101928215615d8b579160200282015b82811115615d8a578251829080519060200190615d7a929190615ebc565b5091602001919060010190615d5c565b5b509050615d989190615f47565b5090565b828054615da890617c47565b90600052602060002090601f016020900481019282615dca5760008555615e16565b82601f10615de357805160ff1916838001178555615e16565b82800160010185558215615e16579182015b82811115615e155782518260005090905591602001919060010190615df5565b5b509050615e239190615e71565b5090565b6040518060800160405280600015158152602001600015158152602001600015158152602001600076ffffffffffffffffffffffffffffffffffffffffffffff1681526020015090565b615e76565b80821115615e905760008181506000905550600101615e76565b5090565b615e99565b80821115615eb85760008181615eaf9190615f6f565b50600101615e99565b5090565b828054615ec890617c47565b90600052602060002090601f016020900481019282615eea5760008555615f36565b82601f10615f0357805160ff1916838001178555615f36565b82800160010185558215615f36579182015b82811115615f355782518260005090905591602001919060010190615f15565b5b509050615f439190615e71565b5090565b615f4c565b80821115615f6b5760008181615f629190615faf565b50600101615f4c565b5090565b508054615f7b90617c47565b6000825580601f10615f8d5750615fac565b601f016020900490600052602060002090810190615fab9190615e71565b5b50565b508054615fbb90617c47565b6000825580601f10615fcd5750615fec565b601f016020900490600052602060002090810190615feb9190615e71565b5b5056617dac565b600061600661600184617b14565b617a93565b905082815283838301111561601b5760006000fd5b828260208301376000602084830101525b9392505050565b600082601f8301121515616045578081fd5b8135602061605a61605583617aea565b617a93565b80838252828201915082860187848660051b8901011115616079578586fd5b855b858110156160a857813561608e81617d6e565b80855250848401935084820191505b60018101905061607b565b5050809450505050505b92915050565b600082601f83011215156160ca578081fd5b813560206160df6160da83617aea565b617a93565b80838252828201915082860187848660051b89010111156160fe578586fd5b855b8581101561615d57813567ffffffffffffffff81111561611e578788fd5b808901905089603f8201121515616133578788fd5b6161448a8783013560408401615ff3565b855250848401935084820191505b600181019050616100565b5050809450505050505b92915050565b600082601f830112151561617f578081fd5b8135602061619461618f83617aea565b617a93565b80838252828201915082860187848660051b89010111156161b3578586fd5b855b858110156161fa57813567ffffffffffffffff8111156161d3578788fd5b6161e18a87838c010161620a565b855250848401935084820191505b6001810190506161b5565b5050809450505050505b92915050565b600082601f830112151561621c578081fd5b61622b83833560208501615ff3565b90505b92915050565b600060208284031215616245578081fd5b813561625081617d6e565b809150505b92915050565b600060006040838503121561626e578081fd5b825161627981617d6e565b80925050602083015190505b9250929050565b6000600060006000600060a086880312156162a5578081fd5b853567ffffffffffffffff808211156162bc578283fd5b6162c889838a01616033565b965060208801359150808211156162dd578283fd5b6162e989838a0161616d565b955060408801359150808211156162fe578283fd5b61630a89838a016160b8565b9450606088013591508082111561631f578283fd5b61632b89838a0161620a565b93506080880135915080821115616340578283fd5b5061634d8882890161620a565b9150505b9295509295909350565b600060006020838503121561636e578182fd5b823567ffffffffffffffff80821115616385578384fd5b818501915085601f830112151561639a578384fd5b8135818111156163a8578485fd5b8660208260051b85010111156163bc578485fd5b6020830194508093505050505b9250929050565b6000602082840312156163e1578081fd5b81516163ec81617d97565b809150505b92915050565b600060208284031215616408578081fd5b815190505b92915050565b600060208284031215616424578081fd5b815167ffffffffffffffff81111561643a578182fd5b808301905083601f820112151561644f578182fd5b805161646261645d82617b14565b617a93565b818152856020838501011115616476578384fd5b616487826020830160208601617c12565b8093505050505b92915050565b60006000604083850312156164a7578182fd5b82356164b281617d6e565b80925050602083013590505b9250929050565b6000602082840312156164d6578081fd5b813590505b92915050565b6000602082840312156164f2578081fd5b815190505b92915050565b6000600060408385031215616510578182fd5b82359150602083013561652281617d6e565b809150505b9250929050565b6000600060408385031215616541578182fd5b82359150602083013561655381617d97565b809150505b9250929050565b6000600060006000600060a08688031215616578578283fd5b85359450602086013561658a81617d97565b80945050604086013560ff8116811415156165a3578384fd5b8093505060608601359150608086013590505b9295509295909350565b73ffffffffffffffffffffffffffffffffffffffff8116825250505b565b6000815180845260208085019450808401835b838110156166295773ffffffffffffffffffffffffffffffffffffffff8251168752828701965082820191505b6001810190506165f1565b505050508290505b92915050565b600081518084526020808501808196508360051b81019150828601855b8581101561668457828403895261666c84835161669e565b9350848201915084890198505b600181019050616654565b5050508093505050505b92915050565b801515825250505b565b600081518084526166b6816020860160208601617c12565b60207fffffffffffffffffffffffffffffffffffffffffffffffffffffffffffffffe0601f8301168501019150505b92915050565b600081546166f881617c47565b808552602060018084166000811461671757600181146167495761677e565b7fffffffffffffffffffffffffffffffffffffffffffffffffffffffffffffff0085168389015260408801955061677e565b866000528260002060005b8581101561677457815485828c01015283820191505b8481019050616754565b84818b0101975050505b50505050505b92915050565b6008811015156167c3577f4e487b7100000000000000000000000000000000000000000000000000000000600052602160045260246000fd5b80825250505b565b80511515825260208101511515602083015260408101511515604083015276ffffffffffffffffffffffffffffffffffffffffffffff606082015116606083015250505b565b6fffffffffffffffffffffffffffffffff8116825250505b565b65ffffffffffff8116825250505b565b600080835461684981617c47565b6001808316600081146168635760018114616892576168c3565b7fffffffffffffffffffffffffffffffffffffffffffffffffffffffffffffff008416875282870194506168c3565b8786526020808720875b858110156168ba578154818b015284820191505b828101905061689c565b50505082870194505b50505050809150505b92915050565b7f1901000000000000000000000000000000000000000000000000000000000000815282600282015281602282015260006042820190505b9392505050565b600060208201905073ffffffffffffffffffffffffffffffffffffffff831682525b92915050565b73ffffffffffffffffffffffffffffffffffffffff85168152608060208201526000616968608083018661669e565b828103604084015261697a818661669e565b9150508260608301525b95945050505050565b73ffffffffffffffffffffffffffffffffffffffff851681526080602082015260006169bc60808301866166eb565b82810360408401526169ce81866166eb565b91505065ffffffffffff831660608301525b95945050505050565b600060408201905073ffffffffffffffffffffffffffffffffffffffff841682528260208301525b9392505050565b600060808201905073ffffffffffffffffffffffffffffffffffffffff80871683528560208401528085166040840152508260608301525b95945050505050565b600060608201905073ffffffffffffffffffffffffffffffffffffffff8516825283602083015282151560408301525b949350505050565b600060408201905073ffffffffffffffffffffffffffffffffffffffff8416825265ffffffffffff831660208301525b9392505050565b606081526000616adb60608301866165de565b8281036020840152616aed8186616637565b90508281036040840152616b018185616637565b9150505b949350505050565b60006020808301818452808551808352604092508286019150828160051b870101848801865b83811015616ce1577fffffffffffffffffffffffffffffffffffffffffffffffffffffffffffffffc089840301855281516102008151818652616b78828701826165de565b915050888201518582038a870152616b908282616637565b9150508782015185820389870152616ba88282616637565b91505060608083015186830382880152616bc2838261669e565b9250505060808083015186830382880152616bdd838261669e565b9250505060a080830151616bf3828801826165c0565b505060c080830151616c078288018261682b565b505060e080830151616c1b8288018261682b565b505061010080830151616c3082880182616811565b505061012080830151616c458288018261682b565b505061014080830151616c5a8288018261682b565b505061016080830151616c6f82880182616694565b505061018080830151616c8482880182616694565b50506101a080830151616c9982880182616811565b50506101c080830151616cae82880182616811565b50506101e0808301519250616cc58187018461678a565b508094505050868201915086850194505b600181019050616b33565b505080955050505050505b92915050565b60006020808301818452808551808352604092508286019150838701855b82811015616d6257815165ffffffffffff815116855286810151616d36888701826167cb565b508581015160a0860152606081015160c08601525060e08401935085820191505b600181019050616d10565b5050508093505050505b92915050565b600060208201905082151582525b92915050565b60006020820190508282525b92915050565b600060808201905085825284602083015283604083015273ffffffffffffffffffffffffffffffffffffffff831660608301525b95945050505050565b600060608201905084825283602083015282151560408301525b949350505050565b600060808201905085825260ff851660208301528360408301528260608301525b95945050505050565b600060208201905073ffffffffffffffffffffffffffffffffffffffff831682525b92915050565b600060208201905073ffffffffffffffffffffffffffffffffffffffff831682525b92915050565b600060208201905073ffffffffffffffffffffffffffffffffffffffff831682525b92915050565b6000602082019050616eab828461678a565b5b92915050565b602081526000616ec5602083018461669e565b90505b92915050565b61018081526000616ee361018083018f61669e565b8281036020840152616ef5818f61669e565b91505073ffffffffffffffffffffffffffffffffffffffff8c16604083015265ffffffffffff808c166060840152808b166080840152506fffffffffffffffffffffffffffffffff891660a0830152616f5160c083018961682b565b616f5e60e083018861682b565b616f6c610100830187616694565b616f7a610120830186616694565b616f88610140830185616811565b616f96610160830184616811565b5b9d9c50505050505050505050505050565b60208152604460208201527f476f7665726e6f72416c7068613a3a71756575653a2070726f706f73616c206360408201527f616e206f6e6c792062652071756575656420696620697420697320737563636560608201527f65646564000000000000000000000000000000000000000000000000000000006080820152600060a0820190505b919050565b60208152604560208201527f476f7665726e6f72416c7068613a3a657865637574653a2070726f706f73616c60408201527f2063616e206f6e6c79206265206578656375746564206966206974206973207160608201527f75657565640000000000000000000000000000000000000000000000000000006080820152600060a0820190505b919050565b60208152601a60208201527f496e73756666696369656e7420616761696e737420766f746573000000000000604082015260006060820190505b919050565b60208152601560208201527f50726f706f73616c206e6f7420636f6d706c6574650000000000000000000000604082015260006060820190505b919050565b60208152601060208201527f4578636565647320313238206269747300000000000000000000000000000000604082015260006060820190505b919050565b60208152602960208201527f476f7665726e6f72416c7068613a3a73746174653a20696e76616c696420707260408201527f6f706f73616c2069640000000000000000000000000000000000000000000000606082015260006080820190505b919050565b60208152600d60208201527f486173206e6f7420766f74656400000000000000000000000000000000000000604082015260006060820190505b919050565b60208152601660208201527f496e73756666696369656e7420666f7220766f74657300000000000000000000604082015260006060820190505b919050565b60208152600e60208201527f4e6f7420417574686f72697a6564000000000000000000000000000000000000604082015260006060820190505b919050565b60208152602d60208201527f476f7665726e6f72416c7068613a3a5f63617374566f74653a20766f7465722060408201527f616c726561647920766f74656400000000000000000000000000000000000000606082015260006080820190505b919050565b60208152601360208201527f4e6f742061206d6574612070726f706f73616c00000000000000000000000000604082015260006060820190505b919050565b60208152605960208201527f476f7665726e6f72416c7068613a3a70726f706f73653a206f6e65206c69766560408201527f2070726f706f73616c207065722070726f706f7365722c20666f756e6420616e60608201527f20616c72656164792070656e64696e672070726f706f73616c000000000000006080820152600060a0820190505b919050565b60208152602860208201527f476f7665726e6f72416c7068613a3a70726f706f73653a20746f6f206d616e7960408201527f20616374696f6e73000000000000000000000000000000000000000000000000606082015260006080820190505b919050565b60208152601160208201527f6164646974696f6e206f766572666c6f77000000000000000000000000000000604082015260006060820190505b919050565b60208152600f60208201527f416c726561647920636c61696d65640000000000000000000000000000000000604082015260006060820190505b919050565b60208152604460208201527f476f7665726e6f72416c7068613a3a70726f706f73653a2070726f706f73616c60408201527f2066756e6374696f6e20696e666f726d6174696f6e206172697479206d69736d60608201527f61746368000000000000000000000000000000000000000000000000000000006080820152600060a0820190505b919050565b60208152602f60208201527f476f7665726e6f72416c7068613a3a63616e63656c3a2070726f706f7365722060408201527f61626f7665207468726573686f6c640000000000000000000000000000000000606082015260006080820190505b919050565b60208152601860208201527f5265776172647320616c72656164792072656365697665640000000000000000604082015260006060820190505b919050565b60208152604460208201527f476f7665726e6f72416c7068613a3a5f71756575654f725265766572743a207060408201527f726f706f73616c20616374696f6e20616c72656164792071756575656420617460608201527f20657461000000000000000000000000000000000000000000000000000000006080820152600060a0820190505b919050565b60208152602560208201527f43616e742063616e63656c20616674657220766f74696e6720697320636f6d7060408201527f6c65746564000000000000000000000000000000000000000000000000000000606082015260006080820190505b919050565b60208152600e60208201527f4e6f74206120636f6e7472616374000000000000000000000000000000000000604082015260006060820190505b919050565b60208152602c60208201527f476f7665726e6f72416c7068613a3a70726f706f73653a206d7573742070726f60408201527f7669646520616374696f6e730000000000000000000000000000000000000000606082015260006080820190505b919050565b60208152603f60208201527f476f7665726e6f72416c7068613a3a70726f706f73653a2070726f706f73657260408201527f20766f7465732062656c6f772070726f706f73616c207468726573686f6c6400606082015260006080820190505b919050565b60208152602f60208201527f476f7665726e6f72416c7068613a3a63617374566f746542795369673a20696e60408201527f76616c6964207369676e61747572650000000000000000000000000000000000606082015260006080820190505b919050565b60208152605860208201527f476f7665726e6f72416c7068613a3a70726f706f73653a206f6e65206c69766560408201527f2070726f706f73616c207065722070726f706f7365722c20666f756e6420616e60608201527f20616c7265616479206163746976652070726f706f73616c00000000000000006080820152600060a0820190505b919050565b60208152600f60208201527f4578636565647320343820626974730000000000000000000000000000000000604082015260006060820190505b919050565b60208152603660208201527f476f7665726e6f72416c7068613a3a63616e63656c3a2063616e6e6f7420636160408201527f6e63656c2065786563757465642070726f706f73616c00000000000000000000606082015260006080820190505b919050565b60208152602a60208201527f476f7665726e6f72416c7068613a3a5f63617374566f74653a20766f74696e6760408201527f20697320636c6f73656400000000000000000000000000000000000000000000606082015260006080820190505b919050565b60208152601060208201527f4578636565647320313834206269747300000000000000000000000000000000604082015260006060820190505b919050565b60208152601560208201527f7375627472616374696f6e20756e646572666c6f770000000000000000000000604082015260006060820190505b919050565b6000608082019050617a6082846167cb565b5b92915050565b60006020820190508282525b92915050565b600060208201905065ffffffffffff831682525b92915050565b600060405190507fffffffffffffffffffffffffffffffffffffffffffffffffffffffffffffffe0601f830116810181811067ffffffffffffffff82111715617adf57617ade617d3d565b5b80604052505b919050565b600067ffffffffffffffff821115617b0557617b04617d3d565b5b60208260051b0190505b919050565b600067ffffffffffffffff821115617b2f57617b2e617d3d565b5b60207fffffffffffffffffffffffffffffffffffffffffffffffffffffffffffffffe0601f8401160190505b919050565b60008219821115617b7457617b73617d0c565b5b82820190505b92915050565b600065ffffffffffff808316818516808303821115617ba257617ba1617d0c565b5b80820193505050505b92915050565b6000821515617be7577f4e487b710000000000000000000000000000000000000000000000000000000081526012600452602481fd5b82820490505b92915050565b600082821015617c0657617c05617d0c565b5b82820390505b92915050565b60005b83811015617c315780820151818401525b602081019050617c15565b83811115617c40576000848401525b505050505b565b60008160011c905060018216801515617c6157607f821691505b60208210811415617c9b577f4e487b7100000000000000000000000000000000000000000000000000000000600052602260045260246000fd5b505b919050565b60007fffffffffffffffffffffffffffffffffffffffffffffffffffffffffffffffff821415617cd557617cd4617d0c565b5b6001820190505b919050565b600065ffffffffffff80831681811415617cfe57617cfd617d0c565b5b60018101925050505b919050565b7f4e487b7100000000000000000000000000000000000000000000000000000000600052601160045260246000fd5b565b7f4e487b7100000000000000000000000000000000000000000000000000000000600052604160045260246000fd5b565b73ffffffffffffffffffffffffffffffffffffffff811681141515617d935760006000fd5b505b565b80151581141515617da85760006000fd5b505b565bfea2646970667358221220fab46c70a3317b890d99c77941fbecc17799c6f75d7b7b2d5feaf70754e26b8e64736f6c63430008040033",
  "linkReferences": {},
  "deployedLinkReferences": {}
}