{
  "_format": "hh-sol-artifact-1",
  "contractName": "TDaoGovernorAlpha",
  "sourceName": "contracts/core/TDao/TDaoGovernorAlpha.sol",
  "abi": [
    {
      "inputs": [
        {
          "internalType": "address",
          "name": "timelock_",
          "type": "address"
        },
        {
          "internalType": "address",
          "name": "votingToken_",
          "type": "address"
        },
        {
          "internalType": "address",
          "name": "guardian_",
          "type": "address"
        },
        {
          "internalType": "uint48",
          "name": "votingPeriodBlocks_",
          "type": "uint48"
        },
        {
          "internalType": "contract ITDao",
          "name": "tDao_",
          "type": "address"
        }
      ],
      "stateMutability": "nonpayable",
      "type": "constructor"
    },
    {
      "anonymous": false,
      "inputs": [
        {
          "indexed": true,
          "internalType": "uint256",
          "name": "id",
          "type": "uint256"
        }
      ],
      "name": "ProposalCanceled",
      "type": "event"
    },
    {
      "anonymous": false,
      "inputs": [
        {
          "indexed": true,
          "internalType": "uint256",
          "name": "id",
          "type": "uint256"
        },
        {
          "indexed": true,
          "internalType": "address",
          "name": "proposer",
          "type": "address"
        }
      ],
      "name": "ProposalCreated",
      "type": "event"
    },
    {
      "anonymous": false,
      "inputs": [
        {
          "indexed": true,
          "internalType": "uint256",
          "name": "id",
          "type": "uint256"
        }
      ],
      "name": "ProposalExecuted",
      "type": "event"
    },
    {
      "anonymous": false,
      "inputs": [
        {
          "indexed": true,
          "internalType": "uint256",
          "name": "id",
          "type": "uint256"
        },
        {
          "indexed": false,
          "internalType": "uint256",
          "name": "eta",
          "type": "uint256"
        }
      ],
      "name": "ProposalQueued",
      "type": "event"
    },
    {
      "anonymous": false,
      "inputs": [
        {
          "indexed": true,
          "internalType": "address",
          "name": "caller",
          "type": "address"
        },
        {
          "indexed": true,
          "internalType": "uint256",
          "name": "proposalID",
          "type": "uint256"
        }
      ],
      "name": "UnderlyingVotingRewardsDistributed",
      "type": "event"
    },
    {
      "anonymous": false,
      "inputs": [
        {
          "indexed": true,
          "internalType": "address",
          "name": "voter",
          "type": "address"
        },
        {
          "indexed": true,
          "internalType": "uint256",
          "name": "proposalId",
          "type": "uint256"
        },
        {
          "indexed": true,
          "internalType": "bool",
          "name": "support",
          "type": "bool"
        },
        {
          "indexed": false,
          "internalType": "uint256",
          "name": "votes",
          "type": "uint256"
        }
      ],
      "name": "VoteCast",
      "type": "event"
    },
    {
      "anonymous": false,
      "inputs": [
        {
          "indexed": true,
          "internalType": "address",
          "name": "voter",
          "type": "address"
        },
        {
          "indexed": false,
          "internalType": "uint256",
          "name": "count",
          "type": "uint256"
        }
      ],
      "name": "VotingRewardsDistributed",
      "type": "event"
    },
    {
      "inputs": [],
      "name": "BALLOT_TYPEHASH",
      "outputs": [
        {
          "internalType": "bytes32",
          "name": "",
          "type": "bytes32"
        }
      ],
      "stateMutability": "view",
      "type": "function"
    },
    {
      "inputs": [],
      "name": "DOMAIN_TYPEHASH",
      "outputs": [
        {
          "internalType": "bytes32",
          "name": "",
          "type": "bytes32"
        }
      ],
      "stateMutability": "view",
      "type": "function"
    },
    {
      "inputs": [],
      "name": "INFLATION_PERCENTAGE",
      "outputs": [
        {
          "internalType": "uint256",
          "name": "",
          "type": "uint256"
        }
      ],
      "stateMutability": "view",
      "type": "function"
    },
    {
      "inputs": [],
      "name": "__abdicate",
      "outputs": [],
      "stateMutability": "nonpayable",
      "type": "function"
    },
    {
      "inputs": [
        {
          "internalType": "uint256",
          "name": "proposalId",
          "type": "uint256"
        }
      ],
      "name": "cancel",
      "outputs": [],
      "stateMutability": "nonpayable",
      "type": "function"
    },
    {
      "inputs": [
        {
          "internalType": "uint256",
          "name": "proposalId",
          "type": "uint256"
        },
        {
          "internalType": "bool",
          "name": "support",
          "type": "bool"
        }
      ],
      "name": "castVote",
      "outputs": [],
      "stateMutability": "nonpayable",
      "type": "function"
    },
    {
      "inputs": [
        {
          "internalType": "uint256",
          "name": "proposalId",
          "type": "uint256"
        },
        {
          "internalType": "bool",
          "name": "support",
          "type": "bool"
        },
        {
          "internalType": "uint8",
          "name": "v",
          "type": "uint8"
        },
        {
          "internalType": "bytes32",
          "name": "r",
          "type": "bytes32"
        },
        {
          "internalType": "bytes32",
          "name": "s",
          "type": "bytes32"
        }
      ],
      "name": "castVoteBySig",
      "outputs": [],
      "stateMutability": "nonpayable",
      "type": "function"
    },
    {
      "inputs": [
        {
          "internalType": "uint256[]",
          "name": "proposalIDs",
          "type": "uint256[]"
        }
      ],
      "name": "claimUnderlyingVotingRewards",
      "outputs": [],
      "stateMutability": "nonpayable",
      "type": "function"
    },
    {
      "inputs": [
        {
          "internalType": "uint256[]",
          "name": "proposalIDs",
          "type": "uint256[]"
        }
      ],
      "name": "claimVotingRewards",
      "outputs": [],
      "stateMutability": "nonpayable",
      "type": "function"
    },
    {
      "inputs": [
        {
          "internalType": "uint256",
          "name": "proposalID",
          "type": "uint256"
        },
        {
          "internalType": "address",
          "name": "voter",
          "type": "address"
        }
      ],
      "name": "countVotingRewards",
      "outputs": [
        {
          "internalType": "uint256",
          "name": "",
          "type": "uint256"
        }
      ],
      "stateMutability": "view",
      "type": "function"
    },
    {
      "inputs": [
        {
          "internalType": "uint256",
          "name": "proposalId",
          "type": "uint256"
        }
      ],
      "name": "execute",
      "outputs": [],
      "stateMutability": "nonpayable",
      "type": "function"
    },
    {
      "inputs": [
        {
          "internalType": "uint256",
          "name": "proposalId",
          "type": "uint256"
        }
      ],
      "name": "getActions",
      "outputs": [
        {
          "internalType": "address[]",
          "name": "targets",
          "type": "address[]"
        },
        {
          "internalType": "string[]",
          "name": "signatures",
          "type": "string[]"
        },
        {
          "internalType": "bytes[]",
          "name": "calldatas",
          "type": "bytes[]"
        }
      ],
      "stateMutability": "view",
      "type": "function"
    },
    {
      "inputs": [
        {
          "internalType": "uint256",
          "name": "proposalID",
          "type": "uint256"
        }
      ],
      "name": "getMetaProposalParameters",
      "outputs": [
        {
          "internalType": "address",
          "name": "governorAlpha",
          "type": "address"
        },
        {
          "internalType": "uint256",
          "name": "underlyingProposalID",
          "type": "uint256"
        },
        {
          "internalType": "bool",
          "name": "moreForThanAgainst",
          "type": "bool"
        }
      ],
      "stateMutability": "view",
      "type": "function"
    },
    {
      "inputs": [
        {
          "internalType": "uint256",
          "name": "proposalID",
          "type": "uint256"
        },
        {
          "internalType": "address",
          "name": "voter",
          "type": "address"
        }
      ],
      "name": "getProposalInfo",
      "outputs": [
        {
          "components": [
            {
              "internalType": "address[]",
              "name": "targets",
              "type": "address[]"
            },
            {
              "internalType": "string[]",
              "name": "signatures",
              "type": "string[]"
            },
            {
              "internalType": "bytes[]",
              "name": "calldatas",
              "type": "bytes[]"
            },
            {
              "internalType": "string",
              "name": "title",
              "type": "string"
            },
            {
              "internalType": "string",
              "name": "ipfsHash",
              "type": "string"
            },
            {
              "internalType": "address",
              "name": "proposer",
              "type": "address"
            },
            {
              "internalType": "uint48",
              "name": "eta",
              "type": "uint48"
            },
            {
              "internalType": "uint48",
              "name": "id",
              "type": "uint48"
            },
            {
              "internalType": "uint128",
              "name": "forVotes",
              "type": "uint128"
            },
            {
              "internalType": "uint48",
              "name": "startBlock",
              "type": "uint48"
            },
            {
              "internalType": "uint48",
              "name": "endBlock",
              "type": "uint48"
            },
            {
              "internalType": "bool",
              "name": "canceled",
              "type": "bool"
            },
            {
              "internalType": "bool",
              "name": "executed",
              "type": "bool"
            },
            {
              "internalType": "uint128",
              "name": "againstVotes",
              "type": "uint128"
            },
            {
              "internalType": "uint128",
              "name": "initialSupply",
              "type": "uint128"
            },
            {
              "internalType": "enum GovernorAlpha.ProposalState",
              "name": "state",
              "type": "uint8"
            },
            {
              "internalType": "bool",
              "name": "hasVoted",
              "type": "bool"
            },
            {
              "internalType": "bool",
              "name": "support",
              "type": "bool"
            },
            {
              "internalType": "bool",
              "name": "rewardReceived",
              "type": "bool"
            },
            {
              "internalType": "uint184",
              "name": "votes",
              "type": "uint184"
            },
            {
              "internalType": "uint256",
              "name": "votingPower",
              "type": "uint256"
            }
          ],
          "internalType": "struct GovernorAlpha.ProposalInfo",
          "name": "",
          "type": "tuple"
        }
      ],
      "stateMutability": "view",
      "type": "function"
    },
    {
      "inputs": [
        {
          "internalType": "uint256",
          "name": "proposalId",
          "type": "uint256"
        },
        {
          "internalType": "address",
          "name": "voter",
          "type": "address"
        }
      ],
      "name": "getReceipt",
      "outputs": [
        {
          "components": [
            {
              "internalType": "bool",
              "name": "hasVoted",
              "type": "bool"
            },
            {
              "internalType": "bool",
              "name": "support",
              "type": "bool"
            },
            {
              "internalType": "bool",
              "name": "rewardReceived",
              "type": "bool"
            },
            {
              "internalType": "uint184",
              "name": "votes",
              "type": "uint184"
            }
          ],
          "internalType": "struct GovernorAlpha.Receipt",
          "name": "",
          "type": "tuple"
        }
      ],
      "stateMutability": "view",
      "type": "function"
    },
    {
      "inputs": [],
      "name": "guardian",
      "outputs": [
        {
          "internalType": "address",
          "name": "",
          "type": "address"
        }
      ],
      "stateMutability": "view",
      "type": "function"
    },
    {
      "inputs": [
        {
          "internalType": "uint256",
          "name": "",
          "type": "uint256"
        },
        {
          "internalType": "address",
          "name": "",
          "type": "address"
        }
      ],
      "name": "hasClaimedUnderlyingRewards",
      "outputs": [
        {
          "internalType": "bool",
          "name": "",
          "type": "bool"
        }
      ],
      "stateMutability": "view",
      "type": "function"
    },
    {
      "inputs": [],
      "name": "implementsVotingRewardsWithToken",
      "outputs": [
        {
          "internalType": "address",
          "name": "",
          "type": "address"
        }
      ],
      "stateMutability": "view",
      "type": "function"
    },
    {
      "inputs": [
        {
          "internalType": "address",
          "name": "",
          "type": "address"
        }
      ],
      "name": "latestProposalIds",
      "outputs": [
        {
          "internalType": "uint256",
          "name": "",
          "type": "uint256"
        }
      ],
      "stateMutability": "view",
      "type": "function"
    },
    {
      "inputs": [],
      "name": "name",
      "outputs": [
        {
          "internalType": "string",
          "name": "",
          "type": "string"
        }
      ],
      "stateMutability": "view",
      "type": "function"
    },
    {
      "inputs": [],
      "name": "proposalCount",
      "outputs": [
        {
          "internalType": "uint48",
          "name": "",
          "type": "uint48"
        }
      ],
      "stateMutability": "view",
      "type": "function"
    },
    {
      "inputs": [],
      "name": "proposalMaxOperations",
      "outputs": [
        {
          "internalType": "uint256",
          "name": "",
          "type": "uint256"
        }
      ],
      "stateMutability": "pure",
      "type": "function"
    },
    {
      "inputs": [],
      "name": "proposalThreshold",
      "outputs": [
        {
          "internalType": "uint256",
          "name": "",
          "type": "uint256"
        }
      ],
      "stateMutability": "view",
      "type": "function"
    },
    {
      "inputs": [
        {
          "internalType": "uint256",
          "name": "",
          "type": "uint256"
        }
      ],
      "name": "proposals",
      "outputs": [
        {
          "internalType": "string",
          "name": "title",
          "type": "string"
        },
        {
          "internalType": "string",
          "name": "ipfsHash",
          "type": "string"
        },
        {
          "internalType": "address",
          "name": "proposer",
          "type": "address"
        },
        {
          "internalType": "uint48",
          "name": "eta",
          "type": "uint48"
        },
        {
          "internalType": "uint48",
          "name": "id",
          "type": "uint48"
        },
        {
          "internalType": "uint128",
          "name": "forVotes",
          "type": "uint128"
        },
        {
          "internalType": "uint48",
          "name": "startBlock",
          "type": "uint48"
        },
        {
          "internalType": "uint48",
          "name": "endBlock",
          "type": "uint48"
        },
        {
          "internalType": "bool",
          "name": "canceled",
          "type": "bool"
        },
        {
          "internalType": "bool",
          "name": "executed",
          "type": "bool"
        },
        {
          "internalType": "uint128",
          "name": "againstVotes",
          "type": "uint128"
        },
        {
          "internalType": "uint128",
          "name": "initialSupply",
          "type": "uint128"
        }
      ],
      "stateMutability": "view",
      "type": "function"
    },
    {
      "inputs": [
        {
          "internalType": "address[]",
          "name": "targets",
          "type": "address[]"
        },
        {
          "internalType": "string[]",
          "name": "signatures",
          "type": "string[]"
        },
        {
          "internalType": "bytes[]",
          "name": "calldatas",
          "type": "bytes[]"
        },
        {
          "internalType": "string",
          "name": "title",
          "type": "string"
        },
        {
          "internalType": "string",
          "name": "ipfsHash",
          "type": "string"
        }
      ],
      "name": "propose",
      "outputs": [
        {
          "internalType": "uint256",
          "name": "",
          "type": "uint256"
        }
      ],
      "stateMutability": "nonpayable",
      "type": "function"
    },
    {
      "inputs": [
        {
          "internalType": "uint256",
          "name": "proposalId",
          "type": "uint256"
        }
      ],
      "name": "queue",
      "outputs": [],
      "stateMutability": "nonpayable",
      "type": "function"
    },
    {
      "inputs": [],
      "name": "quorumVotes",
      "outputs": [
        {
          "internalType": "uint256",
          "name": "",
          "type": "uint256"
        }
      ],
      "stateMutability": "view",
      "type": "function"
    },
    {
      "inputs": [
        {
          "internalType": "uint256",
          "name": "proposalId",
          "type": "uint256"
        }
      ],
      "name": "state",
      "outputs": [
        {
          "internalType": "enum GovernorAlpha.ProposalState",
          "name": "",
          "type": "uint8"
        }
      ],
      "stateMutability": "view",
      "type": "function"
    },
    {
      "inputs": [],
      "name": "tDao",
      "outputs": [
        {
          "internalType": "contract ITDao",
          "name": "",
          "type": "address"
        }
      ],
      "stateMutability": "view",
      "type": "function"
    },
    {
      "inputs": [],
      "name": "timelock",
      "outputs": [
        {
          "internalType": "contract TimelockInterface",
          "name": "",
          "type": "address"
        }
      ],
      "stateMutability": "view",
      "type": "function"
    },
    {
      "inputs": [
        {
          "internalType": "contract GovernorAlpha",
          "name": "",
          "type": "address"
        },
        {
          "internalType": "uint256",
          "name": "",
          "type": "uint256"
        }
      ],
      "name": "voteInUnderlyingProtocol",
      "outputs": [],
      "stateMutability": "pure",
      "type": "function"
    },
    {
      "inputs": [],
      "name": "votingDelay",
      "outputs": [
        {
          "internalType": "uint256",
          "name": "",
          "type": "uint256"
        }
      ],
      "stateMutability": "pure",
      "type": "function"
    },
    {
      "inputs": [],
      "name": "votingPeriod",
      "outputs": [
        {
          "internalType": "uint256",
          "name": "",
          "type": "uint256"
        }
      ],
      "stateMutability": "view",
      "type": "function"
    },
    {
      "inputs": [],
      "name": "votingPeriodBlocks",
      "outputs": [
        {
          "internalType": "uint48",
          "name": "",
          "type": "uint48"
        }
      ],
      "stateMutability": "view",
      "type": "function"
    },
    {
      "inputs": [],
      "name": "votingToken",
      "outputs": [
        {
          "internalType": "contract VotingTokenInterface",
          "name": "",
          "type": "address"
        }
      ],
      "stateMutability": "view",
      "type": "function"
    }
  ],
  "bytecode": "0x610100604052348015620000135760006000fd5b506040516200715538038062007155833981810160405281019062000039919062000351565b5b6040518060400160405280601381526020017f5444616f20476f7665726e6f7220416c70686100000000000000000000000000815260200150858585855b84848484845b8460006000509080519060200190620000999291906200028a565b50600073ffffffffffffffffffffffffffffffffffffffff168473ffffffffffffffffffffffffffffffffffffffff1614158015620001055750600073ffffffffffffffffffffffffffffffffffffffff168373ffffffffffffffffffffffffffffffffffffffff1614155b80156200013f5750600073ffffffffffffffffffffffffffffffffffffffff168273ffffffffffffffffffffffffffffffffffffffff1614155b15156200014c5760006000fd5b8373ffffffffffffffffffffffffffffffffffffffff1660808173ffffffffffffffffffffffffffffffffffffffff1660601b815260140150508273ffffffffffffffffffffffffffffffffffffffff1660c08173ffffffffffffffffffffffffffffffffffffffff1660601b8152601401505081600160006101000a81548173ffffffffffffffffffffffffffffffffffffffff021916908373ffffffffffffffffffffffffffffffffffffffff16021790555060008165ffffffffffff161115156200021a5760006000fd5b8065ffffffffffff1660a08165ffffffffffff1660d01b815260060150505b50505050505b50505050508073ffffffffffffffffffffffffffffffffffffffff1660e08173ffffffffffffffffffffffffffffffffffffffff1660601b815260140150505b505050505062000400565b828054600181600116156101000203166002900490600052602060002090601f016020900481019282620002c2576000855562000313565b82601f10620002dd57805160ff191683800117855562000313565b8280016001018555821562000313579182015b82811115620003125782518260005090905591602001919060010190620002f0565b5b50905062000322919062000326565b5090565b6200032c565b808211156200034857600081815060009055506001016200032c565b509056620003ff565b6000600060006000600060a086880312156200036b578081fd5b85516200037881620003e2565b8095505060208601516200038c81620003e2565b809450506040860151620003a081620003e2565b80935050606086015165ffffffffffff811681141515620003bf578182fd5b809250506080860151620003d381620003e2565b809150505b9295509295909350565b6001600160a01b03811681141515620003fb5760006000fd5b5b50565b5b60805160601c60a05160d01c60c05160601c60e05160601c616cbe6200049760003980611a0052806122585280613fa5525080610d4352806115355280611ace5280611d455280611d91528061239352806128a452806139ce52806141745250806109785280611d6952508061130f528061168f52806123475280612d865280613b5b52806148cf52806149e85250616cbe6000f3fe60806040523480156100115760006000fd5b50600436106102465760003560e01c8063760fbc1311610146578063d33219b4116100be578063deaaa7cc1161008d578063e3a5bcaf11610072578063e3a5bcaf14610689578063eea540e1146106b9578063fe0d94c1146106e957610246565b8063deaaa7cc1461063b578063e23a9a521461065957610246565b8063d33219b4146105b3578063da35c664146105d1578063db116511146105ef578063ddf0b0091461061f57610246565b8063b034012311610115578063b58131b0116100fa578063b58131b014610549578063c5b3116d14610567578063d0b8bffe1461059757610246565b8063b03401231461050d578063b24b7ffd1461052b57610246565b8063760fbc13146104955780637bdbe4d01461049f5780637e90f9ab146104bd57806383b0ce15146104db57610246565b806329c0e5fd116101d957806340e58ee5116101a85780634634c61f1161018d5780634634c61f1461043f5780634c92beb71461045b5780634e9568ef1461047957610246565b806340e58ee514610405578063452a93201461042157610246565b806329c0e5fd14610367578063328dd982146103855780633932abb1146103b75780633e4f49e6146103d557610246565b806315373e3d1161021557806315373e3d146102df57806317977c61146102fb57806320606b701461032b57806324bc1a641461034957610246565b8063013cf08b1461024c57806302a251a314610287578063062f1466146102a557806306fdde03146102c157610246565b60006000fd5b610266600480360381019061026191906155df565b610705565b60405161027e9c9b9a99989796959493929190615d66565b60405180910390f35b61028f610974565b60405161029c9190616b44565b60405180910390f35b6102bf60048036038101906102ba9190615475565b6109a9565b005b6102c9610c43565b6040516102d69190615d4a565b60405180910390f35b6102f960048036038101906102f49190615648565b610ce4565b005b6103156004803603810190610310919061534e565b610cfe565b6040516103229190616b44565b60405180910390f35b610333610d19565b6040516103409190615c1e565b60405180910390f35b610351610d3d565b60405161035e9190616b44565b60405180910390f35b61036f610df5565b60405161037c9190616b44565b60405180910390f35b61039f600480360381019061039a91906155df565b610e00565b6040516103ae93929190615bc5565b60405180910390f35b6103bf6110a4565b6040516103cc9190616b44565b60405180910390f35b6103ef60048036038101906103ea91906155df565b6110b2565b6040516103fc9190615d31565b60405180910390f35b61041f600480360381019061041a91906155df565b6113e5565b005b6104296117fa565b60405161043691906159df565b60405180910390f35b61045960048036038101906104549190615679565b611820565b005b6104636119fe565b6040516104709190615cb9565b60405180910390f35b610493600480360381019061048e91906155ae565b611a22565b005b61049d611a27565b005b6104a7611abc565b6040516104b49190616b44565b60405180910390f35b6104c5611aca565b6040516104d291906159df565b60405180910390f35b6104f560048036038101906104f091906155df565b611af7565b60405161050493929190615b56565b60405180910390f35b610515611d43565b6040516105229190615d09565b60405180910390f35b610533611d67565b6040516105409190616b56565b60405180910390f35b610551611d8b565b60405161055e9190616b44565b60405180910390f35b610581600480360381019061057c9190615617565b611e43565b60405161058e9190616b44565b60405180910390f35b6105b160048036038101906105ac9190615475565b611e62565b005b6105bb612345565b6040516105c89190615ce1565b60405180910390f35b6105d9612369565b6040516105e69190616b56565b60405180910390f35b610609600480360381019061060491906153a6565b612381565b6040516106169190616b44565b60405180910390f35b610639600480360381019061063491906155df565b612cf8565b005b610643613094565b6040516106509190615c1e565b60405180910390f35b610673600480360381019061066e9190615617565b6130b8565b6040516106809190616af4565b60405180910390f35b6106a3600480360381019061069e9190615617565b6131e4565b6040516106b09190615c0a565b60405180910390f35b6106d360048036038101906106ce9190615617565b613219565b6040516106e091906168e6565b60405180910390f35b61070360048036038101906106fe91906155df565b613a9d565b005b6003600050602052806000526040600020600091509050806003016000508054600181600116156101000203166002900480601f0160208091040260200160405190810160405280929190818152602001828054600181600116156101000203166002900480156107b75780601f1061078c576101008083540402835291602001916107b7565b820191906000526020600020905b81548152906001019060200180831161079a57829003601f168201915b505050505090806004016000508054600181600116156101000203166002900480601f0160208091040260200160405190810160405280929190818152602001828054600181600116156101000203166002900480156108585780601f1061082d57610100808354040283529160200191610858565b820191906000526020600020905b81548152906001019060200180831161083b57829003601f168201915b5050505050908060050160009054906101000a900473ffffffffffffffffffffffffffffffffffffffff16908060050160149054906101000a900465ffffffffffff169080600501601a9054906101000a900465ffffffffffff16908060060160009054906101000a90046fffffffffffffffffffffffffffffffff16908060060160109054906101000a900465ffffffffffff16908060060160169054906101000a900465ffffffffffff169080600601601c9054906101000a900460ff169080600601601d9054906101000a900460ff16908060070160009054906101000a90046fffffffffffffffffffffffffffffffff16908060070160109054906101000a90046fffffffffffffffffffffffffffffffff1690508c565b60007f000000000000000000000000000000000000000000000000000000000000000065ffffffffffff1690506109a6565b90565b600060006000600090505b84849050811015610bd35784848281811015156109cd57fe5b90506020020135915081506109e782613ced63ffffffff16565b1515610a28576040517f08c379a0000000000000000000000000000000000000000000000000000000008152600401610a1f90615f95565b60405180910390fd5b6002600050600083815260200190815260200160002060005060003373ffffffffffffffffffffffffffffffffffffffff1673ffffffffffffffffffffffffffffffffffffffff16815260200190815260200160002060005060000160009054906101000a900460ff161515610ad3576040517f08c379a0000000000000000000000000000000000000000000000000000000008152600401610aca90616078565b60405180910390fd5b60006002600050600084815260200190815260200160002060005060003373ffffffffffffffffffffffffffffffffffffffff1673ffffffffffffffffffffffffffffffffffffffff16815260200190815260200160002060005090508060000160029054906101000a900460ff16151515610b84576040517f08c379a0000000000000000000000000000000000000000000000000000000008152600401610b7b90616437565b60405180910390fd5b60018160000160026101000a81548160ff021916908315150217905550610bc084610bb58533613d8d63ffffffff16565b613f3b63ffffffff16565b93508350505b80806001019150506109b4565b506000821115610c3c57610bed3383613f9963ffffffff16565b3373ffffffffffffffffffffffffffffffffffffffff167f56cd411799f8eaf36ff267057223a17836afa0a91a109fe7e102ef919e6fa19d83604051610c339190616b44565b60405180910390a25b50505b5050565b60006000508054600181600116156101000203166002900480601f016020809104026020016040519081016040528092919081815260200182805460018160011615610100020316600290048015610cdc5780601f10610cb157610100808354040283529160200191610cdc565b820191906000526020600020905b815481529060010190602001808311610cbf57829003601f168201915b505050505081565b610cf533838361403863ffffffff16565b610cfa565b5050565b60046000506020528060005260406000206000915090505481565b7f8cad95687ba82c2ce50e74f7b754645e5117c3a5bec8151c0726d5857980a86681565b600060287f000000000000000000000000000000000000000000000000000000000000000073ffffffffffffffffffffffffffffffffffffffff166318160ddd6040518163ffffffff1660e01b815260040160206040518083038186803b158015610da85760006000fd5b505afa158015610dbd573d600060003e3d6000fd5b505050506040513d601f19601f82011682018060405250810190610de191906155fb565b811515610dea57fe5b049050610df2565b90565b6611c37937e0800081565b606060606060600060036000506000868152602001908152602001600020600050905080600001600050816001016000508260020160005082805480602002602001604051908101604052809291908181526020018280548015610eb957602002820191906000526020600020905b8160009054906101000a900473ffffffffffffffffffffffffffffffffffffffff1673ffffffffffffffffffffffffffffffffffffffff1681526020019060010190808311610e6f575b5050505050925081805480602002602001604051908101604052809291908181526020016000905b82821015610fa2578382906000526020600020900160005b508054600181600116156101000203166002900480601f016020809104026020016040519081016040528092919081815260200182805460018160011615610100020316600290048015610f8e5780601f10610f6357610100808354040283529160200191610f8e565b820191906000526020600020905b815481529060010190602001808311610f7157829003601f168201915b505050505081526020019060010190610ee1565b50505050915080805480602002602001604051908101604052809291908181526020016000905b8282101561108a578382906000526020600020900160005b508054600181600116156101000203166002900480601f0160208091040260200160405190810160405280929190818152602001828054600181600116156101000203166002900480156110765780601f1061104b57610100808354040283529160200191611076565b820191906000526020600020905b81548152906001019060200180831161105957829003601f168201915b505050505081526020019060010190610fc9565b5050505090509350935093505061109d56505b9193909250565b6000600190506110af565b90565b600081600160149054906101000a900465ffffffffffff1665ffffffffffff16101580156110e05750600082115b1515611121576040517f08c379a000000000000000000000000000000000000000000000000000000000815260040161111890616013565b60405180910390fd5b600060036000506000848152602001908152602001600020600050905080600601601c9054906101000a900460ff16156111635760029150506113e0566113de565b8060060160109054906101000a900465ffffffffffff1665ffffffffffff16431115156111985760009150506113e0566113dd565b8060060160169054906101000a900465ffffffffffff1665ffffffffffff16431115156111cd5760019150506113e0566113dc565b8060070160009054906101000a90046fffffffffffffffffffffffffffffffff166fffffffffffffffffffffffffffffffff168160060160009054906101000a90046fffffffffffffffffffffffffffffffff166fffffffffffffffffffffffffffffffff1611158061127e5750611249610d3d63ffffffff16565b8160060160009054906101000a90046fffffffffffffffffffffffffffffffff166fffffffffffffffffffffffffffffffff16105b156112915760039150506113e0566113db565b60008160050160149054906101000a900465ffffffffffff1665ffffffffffff1614156112c65760049150506113e0566113da565b80600601601d9054906101000a900460ff16156112eb5760079150506113e0566113d9565b6113b88160050160149054906101000a900465ffffffffffff1665ffffffffffff167f000000000000000000000000000000000000000000000000000000000000000073ffffffffffffffffffffffffffffffffffffffff1663c1a287e26040518163ffffffff1660e01b815260040160206040518083038186803b1580156113745760006000fd5b505afa158015611389573d600060003e3d6000fd5b505050506040513d601f19601f820116820180604052508101906113ad91906155fb565b613f3b63ffffffff16565b421015156113ce5760069150506113e0566113d8565b60059150506113e0565b5b5b5b5b5b5b505b919050565b600760078111156113f257fe5b611401826110b263ffffffff16565b600781111561140c57fe5b1415151561144f576040517f08c379a00000000000000000000000000000000000000000000000000000000081526004016114469061679e565b60405180910390fd5b60006003600050600083815260200190815260200160002060005090508060060160169054906101000a900465ffffffffffff1665ffffffffffff16431015156114ce576040517f08c379a00000000000000000000000000000000000000000000000000000000081526004016114c590616501565b60405180910390fd5b600160009054906101000a900473ffffffffffffffffffffffffffffffffffffffff1673ffffffffffffffffffffffffffffffffffffffff163373ffffffffffffffffffffffffffffffffffffffff1614806116165750611533611d8b63ffffffff16565b7f000000000000000000000000000000000000000000000000000000000000000073ffffffffffffffffffffffffffffffffffffffff1663782d6fe18360050160009054906101000a900473ffffffffffffffffffffffffffffffffffffffff166115a543600161450d63ffffffff16565b6040518363ffffffff1660e01b81526004016115c2929190615ae6565b60206040518083038186803b1580156115db5760006000fd5b505afa1580156115f0573d600060003e3d6000fd5b505050506040513d601f19601f8201168201806040525081019061161491906155fb565b105b1515611657576040517f08c379a000000000000000000000000000000000000000000000000000000000815260040161164e906163d2565b60405180910390fd5b600181600601601c6101000a81548160ff0219169083151502179055506000600090505b81600001600050805490508110156117c7577f000000000000000000000000000000000000000000000000000000000000000073ffffffffffffffffffffffffffffffffffffffff16624b1f1283600001600050838154811015156116dc57fe5b906000526020600020900160005b9054906101000a900473ffffffffffffffffffffffffffffffffffffffff16846001016000508481548110151561171d57fe5b906000526020600020900160005b50856002016000508581548110151561174057fe5b906000526020600020900160005b508660050160149054906101000a900465ffffffffffff166040518563ffffffff1660e01b81526004016117859493929190615a8a565b600060405180830381600087803b1580156117a05760006000fd5b505af11580156117b5573d600060003e3d6000fd5b505050505b808060010191505061167b565b50817f789cf55be980739dad1d0699b93b58e806b51c9d96619bfa8fe0a28abaa7b30c60405160405180910390a2505b50565b600160009054906101000a900473ffffffffffffffffffffffffffffffffffffffff1681565b60007f8cad95687ba82c2ce50e74f7b754645e5117c3a5bec8151c0726d5857980a86660006000506040516118559190615908565b604051809103902061186b61456463ffffffff16565b3060405160200161187f9493929190615c30565b60405160208183030381529060405280519060200120905060007f8e25870c07e0b0b3884c78da52790939a455c275406c44ae8b434b692fb916ee87876040516020016118ce93929190615c6d565b604051602081830303815290604052805190602001209050600082826040516020016118fb9291906159a0565b6040516020818303038152906040528051906020012090506000600182888888604051600081526020016040526040516119389493929190615c8f565b6020604051602081039080840390855afa15801561195b573d600060003e3d6000fd5b505050602060405103519050600073ffffffffffffffffffffffffffffffffffffffff168173ffffffffffffffffffffffffffffffffffffffff16141515156119d9576040517f08c379a00000000000000000000000000000000000000000000000000000000081526004016119d09061666f565b60405180910390fd5b6119ea818a8a61403863ffffffff16565b505050506119f756505050505b5050505050565b7f000000000000000000000000000000000000000000000000000000000000000081565b5b5050565b611a363361457863ffffffff16565b1515611a77576040517f08c379a0000000000000000000000000000000000000000000000000000000008152600401611a6e906160f6565b60405180910390fd5b6000600160006101000a81548173ffffffffffffffffffffffffffffffffffffffff021916908373ffffffffffffffffffffffffffffffffffffffff1602179055505b565b6000600a9050611ac7565b90565b60007f00000000000000000000000000000000000000000000000000000000000000009050611af4565b90565b600060006000611b0c84613ced63ffffffff16565b1515611b4d576040517f08c379a0000000000000000000000000000000000000000000000000000000008152600401611b4490615f95565b60405180910390fd5b611b5c8461458863ffffffff16565b1515611b9d576040517f08c379a0000000000000000000000000000000000000000000000000000000008152600401611b949061619a565b60405180910390fd5b60006003600050600086815260200190815260200160002060005060060160009054906101000a90046fffffffffffffffffffffffffffffffff16905060006003600050600087815260200190815260200160002060005060070160009054906101000a90046fffffffffffffffffffffffffffffffff169050806fffffffffffffffffffffffffffffffff16826fffffffffffffffffffffffffffffffff16119250825082611caf57611c55610d3d63ffffffff16565b816fffffffffffffffffffffffffffffffff16111515611caa576040517f08c379a0000000000000000000000000000000000000000000000000000000008152600401611ca190615f56565b60405180910390fd5b611d13565b611cbd610d3d63ffffffff16565b826fffffffffffffffffffffffffffffffff16111515611d12576040517f08c379a0000000000000000000000000000000000000000000000000000000008152600401611d09906160b7565b60405180910390fd5b5b611d228661469763ffffffff16565b80955081965050508484849450945094505050611d3c5650505b9193909250565b7f000000000000000000000000000000000000000000000000000000000000000081565b7f000000000000000000000000000000000000000000000000000000000000000081565b600060c87f000000000000000000000000000000000000000000000000000000000000000073ffffffffffffffffffffffffffffffffffffffff166318160ddd6040518163ffffffff1660e01b815260040160206040518083038186803b158015611df65760006000fd5b505afa158015611e0b573d600060003e3d6000fd5b505050506040513d601f19601f82011682018060405250810190611e2f91906155fb565b811515611e3857fe5b049050611e40565b90565b6000611e558383613d8d63ffffffff16565b9050611e5c565b92915050565b6000600090505b8282905081101561233f5760008383838181101515611e8457fe5b905060200201359050611e9c81613ced63ffffffff16565b1515611edd576040517f08c379a0000000000000000000000000000000000000000000000000000000008152600401611ed490615f95565b60405180910390fd5b611eec8161458863ffffffff16565b1515611f2d576040517f08c379a0000000000000000000000000000000000000000000000000000000008152600401611f249061619a565b60405180910390fd5b6002600050600082815260200190815260200160002060005060003373ffffffffffffffffffffffffffffffffffffffff1673ffffffffffffffffffffffffffffffffffffffff16815260200190815260200160002060005060000160009054906101000a900460ff161515611fd8576040517f08c379a0000000000000000000000000000000000000000000000000000000008152600401611fcf90616078565b60405180910390fd5b6005600050600082815260200190815260200160002060005060003373ffffffffffffffffffffffffffffffffffffffff1673ffffffffffffffffffffffffffffffffffffffff16815260200190815260200160002060009054906101000a900460ff1615151561207e576040517f08c379a000000000000000000000000000000000000000000000000000000000815260040161207590616308565b60405180910390fd5b60016005600050600083815260200190815260200160002060005060003373ffffffffffffffffffffffffffffffffffffffff1673ffffffffffffffffffffffffffffffffffffffff16815260200190815260200160002060006101000a81548160ff021916908315150217905550600060006121008361469763ffffffff16565b9150915060006122546121ad6003600050600087815260200190815260200160002060005060060160009054906101000a90046fffffffffffffffffffffffffffffffff166fffffffffffffffffffffffffffffffff166003600050600088815260200190815260200160002060005060070160009054906101000a90046fffffffffffffffffffffffffffffffff166fffffffffffffffffffffffffffffffff16613f3b63ffffffff16565b6002600050600087815260200190815260200160002060005060003373ffffffffffffffffffffffffffffffffffffffff1673ffffffffffffffffffffffffffffffffffffffff16815260200190815260200160002060005060000160039054906101000a900476ffffffffffffffffffffffffffffffffffffffffffffff1676ffffffffffffffffffffffffffffffffffffffffffffff1661479490919063ffffffff16565b90507f000000000000000000000000000000000000000000000000000000000000000073ffffffffffffffffffffffffffffffffffffffff1663b9f8ea6d848433856040518563ffffffff1660e01b81526004016122b59493929190615b15565b600060405180830381600087803b1580156122d05760006000fd5b505af11580156122e5573d600060003e3d6000fd5b50505050833373ffffffffffffffffffffffffffffffffffffffff167f28df778d69fdf2ff5a7357c6ab2ed2b2366966f5baf183da0e39b42577c6bc7c60405160405180910390a3505050505b8080600101915050611e69565b505b5050565b7f000000000000000000000000000000000000000000000000000000000000000081565b600160149054906101000a900465ffffffffffff1681565b6000612391611d8b63ffffffff16565b7f000000000000000000000000000000000000000000000000000000000000000073ffffffffffffffffffffffffffffffffffffffff1663782d6fe1336123df43600161450d63ffffffff16565b6040518363ffffffff1660e01b81526004016123fc929190615a07565b60206040518083038186803b1580156124155760006000fd5b505afa15801561242a573d600060003e3d6000fd5b505050506040513d601f19601f8201168201806040525081019061244e91906155fb565b111515612490576040517f08c379a00000000000000000000000000000000000000000000000000000000081526004016124879061660a565b60405180910390fd5b845186511480156124a2575083518651145b15156124e3576040517f08c379a00000000000000000000000000000000000000000000000000000000081526004016124da90616347565b60405180910390fd5b60008651111515612529576040517f08c379a0000000000000000000000000000000000000000000000000000000008152600401612520906165a5565b60405180910390fd5b612537611abc63ffffffff16565b86511115151561257c576040517f08c379a000000000000000000000000000000000000000000000000000000000815260040161257390616264565b60405180910390fd5b6000600460005060003373ffffffffffffffffffffffffffffffffffffffff1673ffffffffffffffffffffffffffffffffffffffff168152602001908152602001600020600050549050600081111561269c5760006125e0826110b263ffffffff16565b9050600160078111156125ef57fe5b8160078111156125fb57fe5b1415151561263e576040517f08c379a0000000000000000000000000000000000000000000000000000000008152600401612635906166d4565b60405180910390fd5b6000600781111561264b57fe5b81600781111561265757fe5b1415151561269a576040517f08c379a0000000000000000000000000000000000000000000000000000000008152600401612691906161d9565b60405180910390fd5b505b6000600090505b86518110156126f4576126e688828151811015156126bd57fe5b602002602001015188838151811015156126d357fe5b60200260200101516147ba63ffffffff16565b5b80806001019150506126a3565b506000612714436127096110a463ffffffff16565b613f3b63ffffffff16565b905060006127358261272a61097463ffffffff16565b613f3b63ffffffff16565b90506001601481819054906101000a900465ffffffffffff168092919060010191906101000a81548165ffffffffffff021916908365ffffffffffff160217905550506601000000000000600160149054906101000a900465ffffffffffff1665ffffffffffff161015156127aa5760006000fd5b6000604051806101e001604052808b81526020018a81526020018981526020018881526020018781526020013373ffffffffffffffffffffffffffffffffffffffff168152602001600065ffffffffffff168152602001600160149054906101000a900465ffffffffffff1665ffffffffffff16815260200160006fffffffffffffffffffffffffffffffff16815260200161284b8561480f63ffffffff16565b65ffffffffffff1681526020016128678461480f63ffffffff16565b65ffffffffffff16815260200160001515815260200160001515815260200160006fffffffffffffffffffffffffffffffff16815260200161294d7f000000000000000000000000000000000000000000000000000000000000000073ffffffffffffffffffffffffffffffffffffffff166318160ddd6040518163ffffffff1660e01b815260040160206040518083038186803b1580156129095760006000fd5b505afa15801561291e573d600060003e3d6000fd5b505050506040513d601f19601f8201168201806040525081019061294291906155fb565b61486963ffffffff16565b6fffffffffffffffffffffffffffffffff16815260200150905080600360005060008360e0015165ffffffffffff16815260200190815260200160002060005060008201518160000160005090805190602001906129ac929190614c63565b5060208201518160010160005090805190602001906129cc929190614ced565b5060408201518160020160005090805190602001906129ec929190614d4d565b506060820151816003016000509080519060200190612a0c929190614dad565b506080820151816004016000509080519060200190612a2c929190614dad565b5060a08201518160050160006101000a81548173ffffffffffffffffffffffffffffffffffffffff021916908373ffffffffffffffffffffffffffffffffffffffff16021790555060c08201518160050160146101000a81548165ffffffffffff021916908365ffffffffffff16021790555060e082015181600501601a6101000a81548165ffffffffffff021916908365ffffffffffff1602179055506101008201518160060160006101000a8154816fffffffffffffffffffffffffffffffff02191690836fffffffffffffffffffffffffffffffff1602179055506101208201518160060160106101000a81548165ffffffffffff021916908365ffffffffffff1602179055506101408201518160060160166101000a81548165ffffffffffff021916908365ffffffffffff16021790555061016082015181600601601c6101000a81548160ff02191690831515021790555061018082015181600601601d6101000a81548160ff0219169083151502179055506101a08201518160070160006101000a8154816fffffffffffffffffffffffffffffffff02191690836fffffffffffffffffffffffffffffffff1602179055506101c08201518160070160106101000a8154816fffffffffffffffffffffffffffffffff02191690836fffffffffffffffffffffffffffffffff1602179055509050508060e0015165ffffffffffff16600460005060008360a0015173ffffffffffffffffffffffffffffffffffffffff1673ffffffffffffffffffffffffffffffffffffffff1681526020019081526020016000206000508190909055503373ffffffffffffffffffffffffffffffffffffffff168160e0015165ffffffffffff167fcd423cc1203c0af96b9b3d68d73b3064a69de2d14450bb7181c5e5df2132b35860405160405180910390a38060e0015165ffffffffffff16945050505050612cef56505050505b95945050505050565b60046007811115612d0557fe5b612d14826110b263ffffffff16565b6007811115612d1f57fe5b141515612d61576040517f08c379a0000000000000000000000000000000000000000000000000000000008152600401612d5890615e40565b60405180910390fd5b60006003600050600083815260200190815260200160002060005090506000612e2f427f000000000000000000000000000000000000000000000000000000000000000073ffffffffffffffffffffffffffffffffffffffff16636a42b8f86040518163ffffffff1660e01b815260040160206040518083038186803b158015612deb5760006000fd5b505afa158015612e00573d600060003e3d6000fd5b505050506040513d601f19601f82011682018060405250810190612e2491906155fb565b613f3b63ffffffff16565b90506000600090505b8260000160005080549050811015613020576130128360000160005082815481101515612e6157fe5b906000526020600020900160005b9054906101000a900473ffffffffffffffffffffffffffffffffffffffff168460010160005083815481101515612ea257fe5b906000526020600020900160005b508054600181600116156101000203166002900480601f016020809104026020016040519081016040528092919081815260200182805460018160011615610100020316600290048015612f455780601f10612f1a57610100808354040283529160200191612f45565b820191906000526020600020905b815481529060010190602001808311612f2857829003601f168201915b50505050508560020160005084815481101515612f5e57fe5b906000526020600020900160005b508054600181600116156101000203166002900480601f0160208091040260200160405190810160405280929190818152602001828054600181600116156101000203166002900480156130015780601f10612fd657610100808354040283529160200191613001565b820191906000526020600020905b815481529060010190602001808311612fe457829003601f168201915b5050505050856148cd63ffffffff16565b5b8080600101915050612e38565b506130308161480f63ffffffff16565b8260050160146101000a81548165ffffffffffff021916908365ffffffffffff160217905550827f9a2e42fd6722813d69113e7d0079d3d940171428df7373df9c7f7617cfda2892826040516130869190616b44565b60405180910390a250505b50565b7f8e25870c07e0b0b3884c78da52790939a455c275406c44ae8b434b692fb916ee81565b6130c0614e40565b6002600050600084815260200190815260200160002060005060008373ffffffffffffffffffffffffffffffffffffffff1673ffffffffffffffffffffffffffffffffffffffff1681526020019081526020016000206000506040518060800160405290816000820160009054906101000a900460ff161515151581526020016000820160019054906101000a900460ff161515151581526020016000820160029054906101000a900460ff161515151581526020016000820160039054906101000a900476ffffffffffffffffffffffffffffffffffffffffffffff1676ffffffffffffffffffffffffffffffffffffffffffffff1676ffffffffffffffffffffffffffffffffffffffffffffff168152602001505090506131de565b92915050565b60056000506020528160005260406000206000506020528060005260406000206000915091509054906101000a900460ff1681565b613221614e8a565b600060036000506000858152602001908152602001600020600050604051806101e0016040529081600082016000508054806020026020016040519081016040528092919081815260200182805480156132d057602002820191906000526020600020905b8160009054906101000a900473ffffffffffffffffffffffffffffffffffffffff1673ffffffffffffffffffffffffffffffffffffffff1681526020019060010190808311613286575b5050505050815260200160018201600050805480602002602001604051908101604052809291908181526020016000905b828210156133c2578382906000526020600020900160005b508054600181600116156101000203166002900480601f0160208091040260200160405190810160405280929190818152602001828054600181600116156101000203166002900480156133ae5780601f10613383576101008083540402835291602001916133ae565b820191906000526020600020905b81548152906001019060200180831161339157829003601f168201915b505050505081526020019060010190613301565b50505050815260200160028201600050805480602002602001604051908101604052809291908181526020016000905b828210156134b3578382906000526020600020900160005b508054600181600116156101000203166002900480601f01602080910402602001604051908101604052809291908181526020018280546001816001161561010002031660029004801561349f5780601f106134745761010080835404028352916020019161349f565b820191906000526020600020905b81548152906001019060200180831161348257829003601f168201915b5050505050815260200190600101906133f2565b505050508152602001600382016000508054600181600116156101000203166002900480601f0160208091040260200160405190810160405280929190818152602001828054600181600116156101000203166002900480156135575780601f1061352c57610100808354040283529160200191613557565b820191906000526020600020905b81548152906001019060200180831161353a57829003601f168201915b50505050508152602001600482016000508054600181600116156101000203166002900480601f0160208091040260200160405190810160405280929190818152602001828054600181600116156101000203166002900480156135fc5780601f106135d1576101008083540402835291602001916135fc565b820191906000526020600020905b8154815290600101906020018083116135df57829003601f168201915b505050505081526020016005820160009054906101000a900473ffffffffffffffffffffffffffffffffffffffff1673ffffffffffffffffffffffffffffffffffffffff1673ffffffffffffffffffffffffffffffffffffffff1681526020016005820160149054906101000a900465ffffffffffff1665ffffffffffff1665ffffffffffff16815260200160058201601a9054906101000a900465ffffffffffff1665ffffffffffff1665ffffffffffff1681526020016006820160009054906101000a90046fffffffffffffffffffffffffffffffff166fffffffffffffffffffffffffffffffff166fffffffffffffffffffffffffffffffff1681526020016006820160109054906101000a900465ffffffffffff1665ffffffffffff1665ffffffffffff1681526020016006820160169054906101000a900465ffffffffffff1665ffffffffffff1665ffffffffffff16815260200160068201601c9054906101000a900460ff1615151515815260200160068201601d9054906101000a900460ff161515151581526020016007820160009054906101000a90046fffffffffffffffffffffffffffffffff166fffffffffffffffffffffffffffffffff166fffffffffffffffffffffffffffffffff1681526020016007820160109054906101000a90046fffffffffffffffffffffffffffffffff166fffffffffffffffffffffffffffffffff166fffffffffffffffffffffffffffffffff16815260200150509050600061383685856130b863ffffffff16565b9050604051806102a0016040528083600001518152602001836020015181526020018360400151815260200183606001518152602001836080015181526020018360a0015173ffffffffffffffffffffffffffffffffffffffff1681526020018360c0015165ffffffffffff1681526020018360e0015165ffffffffffff1681526020018361010001516fffffffffffffffffffffffffffffffff16815260200183610120015165ffffffffffff16815260200183610140015165ffffffffffff1681526020018361016001511515815260200183610180015115158152602001836101a001516fffffffffffffffffffffffffffffffff168152602001836101c001516fffffffffffffffffffffffffffffffff168152602001613960876110b263ffffffff16565b600781111561396b57fe5b8152602001826000015115158152602001826020015115158152602001826040015115158152602001826060015176ffffffffffffffffffffffffffffffffffffffffffffff1681526020014384610120015165ffffffffffff161015613a83577f000000000000000000000000000000000000000000000000000000000000000073ffffffffffffffffffffffffffffffffffffffff1663782d6fe1878661012001516040518363ffffffff1660e01b8152600401613a2c929190615b8e565b60206040518083038186803b158015613a455760006000fd5b505afa158015613a5a573d600060003e3d6000fd5b505050506040513d601f19601f82011682018060405250810190613a7e91906155fb565b613a86565b60005b81526020015092505050613a975650505b92915050565b60056007811115613aaa57fe5b613ab9826110b263ffffffff16565b6007811115613ac457fe5b141515613b06576040517f08c379a0000000000000000000000000000000000000000000000000000000008152600401613afd90615ecb565b60405180910390fd5b6000600360005060008381526020019081526020016000206000509050600181600601601d6101000a81548160ff0219169083151502179055506000600090505b8160000160005080549050811015613cba577f000000000000000000000000000000000000000000000000000000000000000073ffffffffffffffffffffffffffffffffffffffff16633ec5ab328360000160005083815481101515613ba957fe5b906000526020600020900160005b9054906101000a900473ffffffffffffffffffffffffffffffffffffffff168460010160005084815481101515613bea57fe5b906000526020600020900160005b508560020160005085815481101515613c0d57fe5b906000526020600020900160005b508660050160149054906101000a900465ffffffffffff166040518563ffffffff1660e01b8152600401613c529493929190615a8a565b600060405180830381600087803b158015613c6d5760006000fd5b505af1158015613c82573d600060003e3d6000fd5b505050506040513d6000823e3d601f19601f82011682018060405250810190613cab919061552d565b505b8080600101915050613b47565b50817f712ae1383f79ac853f8d882153778e0260ef8f03b504e2866e0593e04d2b291f60405160405180910390a2505b50565b60006000613d00836110b263ffffffff16565b905060046007811115613d0f57fe5b816007811115613d1b57fe5b1480613d3d575060036007811115613d2f57fe5b816007811115613d3b57fe5b145b80613d5e575060056007811115613d5057fe5b816007811115613d5c57fe5b145b80613d7f575060076007811115613d7157fe5b816007811115613d7d57fe5b145b915050613d8856505b919050565b600060006003600050600085815260200190815260200160002060005090506000613dfa6611c37937e080008360070160109054906101000a90046fffffffffffffffffffffffffffffffff166fffffffffffffffffffffffffffffffff16614aa190919063ffffffff16565b905060006002600050600087815260200190815260200160002060005060008673ffffffffffffffffffffffffffffffffffffffff1673ffffffffffffffffffffffffffffffffffffffff16815260200190815260200160002060005060000160039054906101000a900476ffffffffffffffffffffffffffffffffffffffffffffff1676ffffffffffffffffffffffffffffffffffffffffffffff1690506000613f0f8460060160009054906101000a90046fffffffffffffffffffffffffffffffff166fffffffffffffffffffffffffffffffff168560070160009054906101000a90046fffffffffffffffffffffffffffffffff166fffffffffffffffffffffffffffffffff16613f3b63ffffffff16565b9050613f26828285614ac79092919063ffffffff16565b945050505050613f3556505050505b92915050565b600060008284019050838110151515613f89576040517f08c379a0000000000000000000000000000000000000000000000000000000008152600401613f80906162c9565b60405180910390fd5b80915050613f9356505b92915050565b600081141515614033577f000000000000000000000000000000000000000000000000000000000000000073ffffffffffffffffffffffffffffffffffffffff16630793298783836040518363ffffffff1660e01b8152600401613ffe929190615ae6565b600060405180830381600087803b1580156140195760006000fd5b505af115801561402e573d600060003e3d6000fd5b505050505b5b5050565b6001600781111561404557fe5b614054836110b263ffffffff16565b600781111561405f57fe5b1415156140a1576040517f08c379a000000000000000000000000000000000000000000000000000000000815260040161409890616803565b60405180910390fd5b6000600360005060008481526020019081526020016000206000509050600015156002600050600085815260200190815260200160002060005060008673ffffffffffffffffffffffffffffffffffffffff1673ffffffffffffffffffffffffffffffffffffffff16815260200190815260200160002060005060000160009054906101000a900460ff161515141515614170576040517f08c379a000000000000000000000000000000000000000000000000000000000815260040161416790616135565b60405180910390fd5b60007f000000000000000000000000000000000000000000000000000000000000000073ffffffffffffffffffffffffffffffffffffffff1663782d6fe1868460060160109054906101000a900465ffffffffffff166040518363ffffffff1660e01b81526004016141e3929190615b8e565b60206040518083038186803b1580156141fc5760006000fd5b505afa158015614211573d600060003e3d6000fd5b505050506040513d601f19601f8201168201806040525081019061423591906155fb565b905082156142cc5761428d6142828360060160009054906101000a90046fffffffffffffffffffffffffffffffff166fffffffffffffffffffffffffffffffff1683613f3b63ffffffff16565b61486963ffffffff16565b8260060160006101000a8154816fffffffffffffffffffffffffffffffff02191690836fffffffffffffffffffffffffffffffff160217905550614357565b61431c6143118360070160009054906101000a90046fffffffffffffffffffffffffffffffff166fffffffffffffffffffffffffffffffff1683613f3b63ffffffff16565b61486963ffffffff16565b8260070160006101000a8154816fffffffffffffffffffffffffffffffff02191690836fffffffffffffffffffffffffffffffff1602179055505b6040518060800160405280600115158152602001841515815260200160001515815260200161438b83614bc863ffffffff16565b76ffffffffffffffffffffffffffffffffffffffffffffff168152602001506002600050600086815260200190815260200160002060005060008773ffffffffffffffffffffffffffffffffffffffff1673ffffffffffffffffffffffffffffffffffffffff16815260200190815260200160002060005060008201518160000160006101000a81548160ff02191690831515021790555060208201518160000160016101000a81548160ff02191690831515021790555060408201518160000160026101000a81548160ff02191690831515021790555060608201518160000160036101000a81548176ffffffffffffffffffffffffffffffffffffffffffffff021916908376ffffffffffffffffffffffffffffffffffffffffffffff160217905550905050821515848673ffffffffffffffffffffffffffffffffffffffff167f877856338e13f63d0c36822ff0ef736b80934cd90574a3a5bc9262c39d217c46846040516144fd9190616b44565b60405180910390a450505b505050565b6000828211151515614554576040517f08c379a000000000000000000000000000000000000000000000000000000000815260040161454b906168a7565b60405180910390fd5b818303905061455e565b92915050565b600060004690508091505061457556505b90565b600060019050614583565b919050565b600060006000600061459f85610e0063ffffffff16565b925092509250600183511480156145b7575060018251145b80156145c4575060018151145b801561461157503073ffffffffffffffffffffffffffffffffffffffff168360008151811015156145f157fe5b602002602001015173ffffffffffffffffffffffffffffffffffffffff16145b80156146855750634e9568ef60e01b7bffffffffffffffffffffffffffffffffffffffffffffffffffffffff191661466483600081518110151561465157fe5b6020026020010151614c3363ffffffff16565b7bffffffffffffffffffffffffffffffffffffffffffffffffffffffff1916145b9350505050614692565050505b919050565b600060006003600050600084815260200190815260200160002060005060020160005060008154811015156146c857fe5b906000526020600020900160005b508054600181600116156101000203166002900480601f01602080910402602001604051908101604052809291908181526020018280546001816001161561010002031660029004801561476b5780601f106147405761010080835404028352916020019161476b565b820191906000526020600020905b81548152906001019060200180831161474e57829003601f168201915b50505050508060200190518101906147839190615375565b8191509150915061478f565b915091565b60006147af83670de0b6b3a764000084614ac763ffffffff16565b905080505b92915050565b6147c982614c4963ffffffff16565b151561480a576040517f08c379a000000000000000000000000000000000000000000000000000000000815260040161480190616566565b60405180910390fd5b5b5050565b600066010000000000008210151561485c576040517f08c379a00000000000000000000000000000000000000000000000000000000081526004016148539061675f565b60405180910390fd5b819050614864565b919050565b6000700100000000000000000000000000000000821015156148c0576040517f08c379a00000000000000000000000000000000000000000000000000000000081526004016148b790615fd4565b60405180910390fd5b8190506148c8565b919050565b7f000000000000000000000000000000000000000000000000000000000000000073ffffffffffffffffffffffffffffffffffffffff1663f2b06537858585856040516020016149209493929190615a36565b604051602081830303815290604052805190602001206040518263ffffffff1660e01b81526004016149529190615c1e565b60206040518083038186803b15801561496b5760006000fd5b505afa158015614980573d600060003e3d6000fd5b505050506040513d601f19601f820116820180604052508101906149a491906154ea565b1515156149e6576040517f08c379a00000000000000000000000000000000000000000000000000000000081526004016149dd90616476565b60405180910390fd5b7f000000000000000000000000000000000000000000000000000000000000000073ffffffffffffffffffffffffffffffffffffffff16630e70eace858585856040518563ffffffff1660e01b8152600401614a459493929190615a36565b602060405180830381600087803b158015614a605760006000fd5b505af1158015614a75573d600060003e3d6000fd5b505050506040513d601f19601f82011682018060405250810190614a999190615511565b505b50505050565b6000614abc8383670de0b6b3a7640000614ac763ffffffff16565b905080505b92915050565b6000600060006000198587098587029250828110838203039150506000811415614b0a57600084111515614afb5760006000fd5b83820492508292505050614bc1565b8084111515614b195760006000fd5b6000848688099050828111820391508083039250600085866000031690508086049550808404935060018182600003040190508083028417935083506000600287600302189050808702600203810290508050808702600203810290508050808702600203810290508050808702600203810290508050808702600203810290508050808702600203810290508050808502955085508595505050505050614bc15650505050505b9392505050565b60007701000000000000000000000000000000000000000000000082101515614c26576040517f08c379a0000000000000000000000000000000000000000000000000000000008152600401614c1d90616868565b60405180910390fd5b819050614c2e565b919050565b600081805190602001209050614c44565b919050565b60006000823b905060008111915050614c5e56505b919050565b828054828255906000526020600020908101928215614cdc579160200282015b82811115614cdb5782518260006101000a81548173ffffffffffffffffffffffffffffffffffffffff021916908373ffffffffffffffffffffffffffffffffffffffff16021790555091602001919060010190614c83565b5b509050614ce99190614fc7565b5090565b828054828255906000526020600020908101928215614d3c579160200282015b82811115614d3b578251829080519060200190614d2b929190614dad565b5091602001919060010190614d0d565b5b509050614d499190614fea565b5090565b828054828255906000526020600020908101928215614d9c579160200282015b82811115614d9b578251829080519060200190614d8b929190615012565b5091602001919060010190614d6d565b5b509050614da991906150a5565b5090565b828054600181600116156101000203166002900490600052602060002090601f016020900481019282614de35760008555614e2f565b82601f10614dfc57805160ff1916838001178555614e2f565b82800160010185558215614e2f579182015b82811115614e2e5782518260005090905591602001919060010190614e0e565b5b509050614e3c9190614fc7565b5090565b6040518060800160405280600015158152602001600015158152602001600015158152602001600076ffffffffffffffffffffffffffffffffffffffffffffff1681526020015090565b604051806102a001604052806060815260200160608152602001606081526020016060815260200160608152602001600073ffffffffffffffffffffffffffffffffffffffff168152602001600065ffffffffffff168152602001600065ffffffffffff16815260200160006fffffffffffffffffffffffffffffffff168152602001600065ffffffffffff168152602001600065ffffffffffff16815260200160001515815260200160001515815260200160006fffffffffffffffffffffffffffffffff16815260200160006fffffffffffffffffffffffffffffffff16815260200160006007811115614f7c57fe5b8152602001600015158152602001600015158152602001600015158152602001600076ffffffffffffffffffffffffffffffffffffffffffffff168152602001600081526020015090565b614fcc565b80821115614fe65760008181506000905550600101614fcc565b5090565b614fef565b8082111561500e576000818161500591906150cd565b50600101614fef565b5090565b828054600181600116156101000203166002900490600052602060002090601f0160209004810192826150485760008555615094565b82601f1061506157805160ff1916838001178555615094565b82800160010185558215615094579182015b828111156150935782518260005090905591602001919060010190615073565b5b5090506150a19190614fc7565b5090565b6150aa565b808211156150c957600081816150c09190615115565b506001016150aa565b5090565b50805460018160011615610100020316600290046000825580601f106150f35750615112565b601f0160209004906000526020600020908101906151119190614fc7565b5b50565b50805460018160011615610100020316600290046000825580601f1061513b575061515a565b601f0160209004906000526020600020908101906151599190614fc7565b5b5056616c87565b600061517461516f84616bbe565b616b70565b90508281528383830111156151895760006000fd5b828260208301376000602084830101525b9392505050565b600082601f83011215156151b3578081fd5b813560206151c86151c383616b9b565b616b70565b808382528282019150828601878485870289010111156151e6578586fd5b855b858110156152155781356151fb81616c49565b80855250848401935084820191505b6001810190506151e8565b5050809450505050505b92915050565b600082601f8301121515615237578081fd5b8135602061524c61524783616b9b565b616b70565b808382528282019150828601855b858110156152a0578135880189603f8201121515615276578788fd5b6152878a8783013560408401615161565b855250848401935084820191505b60018101905061525a565b5050809450505050505b92915050565b600082601f83011215156152c2578081fd5b813560206152d76152d283616b9b565b616b70565b808382528282019150828601855b85811015615314576152fc898684358b0101615324565b8452848401935084820191505b6001810190506152e5565b5050809450505050505b92915050565b600082601f8301121515615336578081fd5b61534583833560208501615161565b90505b92915050565b60006020828403121561535f578081fd5b813561536a81616c49565b809150505b92915050565b6000600060408385031215615388578081fd5b825161539381616c49565b80925050602083015190505b9250929050565b6000600060006000600060a086880312156153bf578081fd5b853567ffffffffffffffff808211156153d6578283fd5b6153e289838a016151a1565b965060208801359150808211156153f7578283fd5b61540389838a016152b0565b95506040880135915080821115615418578283fd5b61542489838a01615225565b94506060880135915080821115615439578283fd5b61544589838a01615324565b9350608088013591508082111561545a578283fd5b5061546788828901615324565b9150505b9295509295909350565b6000600060208385031215615488578182fd5b823567ffffffffffffffff8082111561549f578384fd5b818501915085601f83011215156154b4578384fd5b8135818111156154c2578485fd5b8660206020830285010111156154d6578485fd5b6020830194508093505050505b9250929050565b6000602082840312156154fb578081fd5b815161550681616c72565b809150505b92915050565b600060208284031215615522578081fd5b815190505b92915050565b60006020828403121561553e578081fd5b815167ffffffffffffffff811115615554578182fd5b808301905083601f8201121515615569578182fd5b805161557c61557782616bbe565b616b70565b818152856020838501011115615590578384fd5b6155a1826020830160208601616c14565b8093505050505b92915050565b60006000604083850312156155c1578182fd5b82356155cc81616c49565b80925050602083013590505b9250929050565b6000602082840312156155f0578081fd5b813590505b92915050565b60006020828403121561560c578081fd5b815190505b92915050565b600060006040838503121561562a578182fd5b82359150602083013561563c81616c49565b809150505b9250929050565b600060006040838503121561565b578182fd5b82359150602083013561566d81616c72565b809150505b9250929050565b6000600060006000600060a08688031215615692578283fd5b8535945060208601356156a481616c72565b80945050604086013560ff8116811415156156bd578384fd5b8093505060608601359150608086013590505b9295509295909350565b73ffffffffffffffffffffffffffffffffffffffff811682525b5050565b6000815180845260208085019450808401835b838110156157435773ffffffffffffffffffffffffffffffffffffffff8251168752828701965082820191505b60018101905061570b565b505050508290505b92915050565b6000815180845260208085018081965082840281019150828601855b8581101561579d5782840389526157858483516157b7565b9350848201915084890198505b60018101905061576d565b5050508093505050505b92915050565b80151582525b5050565b600081518084526157cf816020860160208601616c14565b60207fffffffffffffffffffffffffffffffffffffffffffffffffffffffffffffffe0601f8301168501019150505b92915050565b60008154600180821660008114615822576001811461585e5761589f565b607f600284041686527fffffffffffffffffffffffffffffffffffffffffffffffffffffffffffffff008316602087015260408601935061589f565b6002830480875261586e86616c03565b60005b828110156158935781546020828b01015284820191505b602081019050615871565b6020818a010196505050505b5050505b92915050565b6008811015156158b557fe5b8082525b5050565b6fffffffffffffffffffffffffffffffff811682525b5050565b76ffffffffffffffffffffffffffffffffffffffffffffff811682525b5050565b65ffffffffffff811682525b5050565b6000808354600180821660008114615927576001811461595c57615992565b7fffffffffffffffffffffffffffffffffffffffffffffffffffffffffffffff0083168652607f600284041686019350615992565b600283048786526020808720875b83811015615988578154818b015285820191505b828101905061596a565b5050508087019450505b505050809150505b92915050565b60007f190100000000000000000000000000000000000000000000000000000000000082528360028301528260228301526042820190505b9392505050565b600060208201905073ffffffffffffffffffffffffffffffffffffffff831682525b92915050565b600060408201905073ffffffffffffffffffffffffffffffffffffffff841682528260208301525b9392505050565b600073ffffffffffffffffffffffffffffffffffffffff8616825260806020830152615a6560808301866157b7565b8281036040840152615a7781866157b7565b9150508260608301525b95945050505050565b600073ffffffffffffffffffffffffffffffffffffffff8616825260806020830152615ab96080830186615804565b8281036040840152615acb8186615804565b91505065ffffffffffff831660608301525b95945050505050565b600060408201905073ffffffffffffffffffffffffffffffffffffffff841682528260208301525b9392505050565b600060808201905073ffffffffffffffffffffffffffffffffffffffff80871683528560208401528085166040840152508260608301525b95945050505050565b600060608201905073ffffffffffffffffffffffffffffffffffffffff8516825283602083015282151560408301525b949350505050565b600060408201905073ffffffffffffffffffffffffffffffffffffffff8416825265ffffffffffff831660208301525b9392505050565b600060608252615bd860608301866156f8565b8281036020840152615bea8186615751565b90508281036040840152615bfe8185615751565b9150505b949350505050565b600060208201905082151582525b92915050565b60006020820190508282525b92915050565b600060808201905085825284602083015283604083015273ffffffffffffffffffffffffffffffffffffffff831660608301525b95945050505050565b600060608201905084825283602083015282151560408301525b949350505050565b600060808201905085825260ff851660208301528360408301528260608301525b95945050505050565b600060208201905073ffffffffffffffffffffffffffffffffffffffff831682525b92915050565b600060208201905073ffffffffffffffffffffffffffffffffffffffff831682525b92915050565b600060208201905073ffffffffffffffffffffffffffffffffffffffff831682525b92915050565b6000602082019050615d4382846158a9565b5b92915050565b600060208252615d5d60208301846157b7565b90505b92915050565b60006101808252615d7b61018083018f6157b7565b8281036020840152615d8d818f6157b7565b91505073ffffffffffffffffffffffffffffffffffffffff8c16604083015265ffffffffffff808c166060840152808b166080840152506fffffffffffffffffffffffffffffffff891660a0830152615de960c08301896158f8565b615df660e08301886158f8565b615e046101008301876157ad565b615e126101208301866157ad565b615e206101408301856158bd565b615e2e6101608301846158bd565b5b9d9c50505050505050505050505050565b600060208252604460208301527f476f7665726e6f72416c7068613a3a71756575653a2070726f706f73616c206360408301527f616e206f6e6c792062652071756575656420696620697420697320737563636560608301527f6564656400000000000000000000000000000000000000000000000000000000608083015260a0820190505b919050565b600060208252604560208301527f476f7665726e6f72416c7068613a3a657865637574653a2070726f706f73616c60408301527f2063616e206f6e6c79206265206578656375746564206966206974206973207160608301527f7565756564000000000000000000000000000000000000000000000000000000608083015260a0820190505b919050565b600060208252601a60208301527f496e73756666696369656e7420616761696e737420766f74657300000000000060408301526060820190505b919050565b600060208252601560208301527f50726f706f73616c206e6f7420636f6d706c657465000000000000000000000060408301526060820190505b919050565b600060208252601060208301527f457863656564732031323820626974730000000000000000000000000000000060408301526060820190505b919050565b600060208252602960208301527f476f7665726e6f72416c7068613a3a73746174653a20696e76616c696420707260408301527f6f706f73616c206964000000000000000000000000000000000000000000000060608301526080820190505b919050565b600060208252600d60208301527f486173206e6f7420766f7465640000000000000000000000000000000000000060408301526060820190505b919050565b600060208252601660208301527f496e73756666696369656e7420666f7220766f7465730000000000000000000060408301526060820190505b919050565b600060208252600e60208301527f4e6f7420417574686f72697a656400000000000000000000000000000000000060408301526060820190505b919050565b600060208252602d60208301527f476f7665726e6f72416c7068613a3a5f63617374566f74653a20766f7465722060408301527f616c726561647920766f7465640000000000000000000000000000000000000060608301526080820190505b919050565b600060208252601360208301527f4e6f742061206d6574612070726f706f73616c0000000000000000000000000060408301526060820190505b919050565b600060208252605960208301527f476f7665726e6f72416c7068613a3a70726f706f73653a206f6e65206c69766560408301527f2070726f706f73616c207065722070726f706f7365722c20666f756e6420616e60608301527f20616c72656164792070656e64696e672070726f706f73616c00000000000000608083015260a0820190505b919050565b600060208252602860208301527f476f7665726e6f72416c7068613a3a70726f706f73653a20746f6f206d616e7960408301527f20616374696f6e7300000000000000000000000000000000000000000000000060608301526080820190505b919050565b600060208252601160208301527f6164646974696f6e206f766572666c6f7700000000000000000000000000000060408301526060820190505b919050565b600060208252600f60208301527f416c726561647920636c61696d6564000000000000000000000000000000000060408301526060820190505b919050565b600060208252604460208301527f476f7665726e6f72416c7068613a3a70726f706f73653a2070726f706f73616c60408301527f2066756e6374696f6e20696e666f726d6174696f6e206172697479206d69736d60608301527f6174636800000000000000000000000000000000000000000000000000000000608083015260a0820190505b919050565b600060208252602f60208301527f476f7665726e6f72416c7068613a3a63616e63656c3a2070726f706f7365722060408301527f61626f7665207468726573686f6c64000000000000000000000000000000000060608301526080820190505b919050565b600060208252601860208301527f5265776172647320616c7265616479207265636569766564000000000000000060408301526060820190505b919050565b600060208252604460208301527f476f7665726e6f72416c7068613a3a5f71756575654f725265766572743a207060408301527f726f706f73616c20616374696f6e20616c72656164792071756575656420617460608301527f2065746100000000000000000000000000000000000000000000000000000000608083015260a0820190505b919050565b600060208252602560208301527f43616e742063616e63656c20616674657220766f74696e6720697320636f6d7060408301527f6c6574656400000000000000000000000000000000000000000000000000000060608301526080820190505b919050565b600060208252600e60208301527f4e6f74206120636f6e747261637400000000000000000000000000000000000060408301526060820190505b919050565b600060208252602c60208301527f476f7665726e6f72416c7068613a3a70726f706f73653a206d7573742070726f60408301527f7669646520616374696f6e73000000000000000000000000000000000000000060608301526080820190505b919050565b600060208252603f60208301527f476f7665726e6f72416c7068613a3a70726f706f73653a2070726f706f73657260408301527f20766f7465732062656c6f772070726f706f73616c207468726573686f6c640060608301526080820190505b919050565b600060208252602f60208301527f476f7665726e6f72416c7068613a3a63617374566f746542795369673a20696e60408301527f76616c6964207369676e6174757265000000000000000000000000000000000060608301526080820190505b919050565b600060208252605860208301527f476f7665726e6f72416c7068613a3a70726f706f73653a206f6e65206c69766560408301527f2070726f706f73616c207065722070726f706f7365722c20666f756e6420616e60608301527f20616c7265616479206163746976652070726f706f73616c0000000000000000608083015260a0820190505b919050565b600060208252600f60208301527f457863656564732034382062697473000000000000000000000000000000000060408301526060820190505b919050565b600060208252603660208301527f476f7665726e6f72416c7068613a3a63616e63656c3a2063616e6e6f7420636160408301527f6e63656c2065786563757465642070726f706f73616c0000000000000000000060608301526080820190505b919050565b600060208252602a60208301527f476f7665726e6f72416c7068613a3a5f63617374566f74653a20766f74696e6760408301527f20697320636c6f7365640000000000000000000000000000000000000000000060608301526080820190505b919050565b600060208252601060208301527f457863656564732031383420626974730000000000000000000000000000000060408301526060820190505b919050565b600060208252601560208301527f7375627472616374696f6e20756e646572666c6f77000000000000000000000060408301526060820190505b919050565b60006020825282516102a08060208501526169056102c08501836156f8565b915060208501517fffffffffffffffffffffffffffffffffffffffffffffffffffffffffffffffe0808685030160408701526169418483615751565b9350604087015191508086850301606087015261695e8483615751565b9350606087015191508086850301608087015261697b84836157b7565b935060808701519150808685030160a08701525061699983826157b7565b92505060a08501516169ae60c08601826156da565b5060c08501516169c160e08601826158f8565b5060e08501516101006169d6818701836158f8565b808701519150506101206169ec818701836158bd565b80870151915050610140616a02818701836158f8565b80870151915050610160616a18818701836158f8565b80870151915050610180616a2e818701836157ad565b808701519150506101a0616a44818701836157ad565b808701519150506101c0616a5a818701836158bd565b808701519150506101e0616a70818701836158bd565b80870151915050610200616a86818701836158a9565b80870151915050610220616a9c818701836157ad565b80870151915050610240616ab2818701836157ad565b80870151915050610260616ac8818701836157ad565b80870151915050610280616ade818701836158d7565b8087015183870152505050809150505b92915050565b600060808201905082511515825260208301511515602083015260408301511515604083015276ffffffffffffffffffffffffffffffffffffffffffffff60608401511660608301525b92915050565b60006020820190508282525b92915050565b600060208201905065ffffffffffff831682525b92915050565b6000604051905081810181811067ffffffffffffffff82111715616b9057fe5b80604052505b919050565b600067ffffffffffffffff821115616baf57fe5b6020602083020190505b919050565b600067ffffffffffffffff821115616bd257fe5b60207fffffffffffffffffffffffffffffffffffffffffffffffffffffffffffffffe0601f8401160190505b919050565b60008181526020812090505b919050565b60005b83811015616c335780820151818401525b602081019050616c17565b83811115616c42576000848401525b505b505050565b73ffffffffffffffffffffffffffffffffffffffff811681141515616c6e5760006000fd5b5b50565b80151581141515616c835760006000fd5b5b50565bfea2646970667358221220f18ec3bd12a56313ecdad13d2753003aded4730effd78c39e3c55f25fcb0ef7d64736f6c63430007060033",
  "linkReferences": {},
  "deployedLinkReferences": {}
}