{
  "_format": "hh-sol-artifact-1",
  "contractName": "TDaoGovernorAlpha",
  "sourceName": "contracts/core/TDao/TDaoGovernorAlpha.sol",
  "abi": [
    {
      "inputs": [
        {
          "internalType": "address",
          "name": "timelock_",
          "type": "address"
        },
        {
          "internalType": "address",
          "name": "votingToken_",
          "type": "address"
        },
        {
          "internalType": "address",
          "name": "guardian_",
          "type": "address"
        },
        {
          "internalType": "uint48",
          "name": "votingPeriodBlocks_",
          "type": "uint48"
        },
        {
          "internalType": "contract ITDao",
          "name": "tDao_",
          "type": "address"
        }
      ],
      "stateMutability": "nonpayable",
      "type": "constructor"
    },
    {
      "anonymous": false,
      "inputs": [
        {
          "indexed": true,
          "internalType": "uint256",
          "name": "id",
          "type": "uint256"
        }
      ],
      "name": "ProposalCanceled",
      "type": "event"
    },
    {
      "anonymous": false,
      "inputs": [
        {
          "indexed": true,
          "internalType": "uint256",
          "name": "id",
          "type": "uint256"
        },
        {
          "indexed": true,
          "internalType": "address",
          "name": "proposer",
          "type": "address"
        }
      ],
      "name": "ProposalCreated",
      "type": "event"
    },
    {
      "anonymous": false,
      "inputs": [
        {
          "indexed": true,
          "internalType": "uint256",
          "name": "id",
          "type": "uint256"
        }
      ],
      "name": "ProposalExecuted",
      "type": "event"
    },
    {
      "anonymous": false,
      "inputs": [
        {
          "indexed": true,
          "internalType": "uint256",
          "name": "id",
          "type": "uint256"
        },
        {
          "indexed": false,
          "internalType": "uint256",
          "name": "eta",
          "type": "uint256"
        }
      ],
      "name": "ProposalQueued",
      "type": "event"
    },
    {
      "anonymous": false,
      "inputs": [
        {
          "indexed": true,
          "internalType": "address",
          "name": "caller",
          "type": "address"
        },
        {
          "indexed": true,
          "internalType": "uint256",
          "name": "proposalID",
          "type": "uint256"
        }
      ],
      "name": "UnderlyingVotingRewardsDistributed",
      "type": "event"
    },
    {
      "anonymous": false,
      "inputs": [
        {
          "indexed": true,
          "internalType": "address",
          "name": "voter",
          "type": "address"
        },
        {
          "indexed": true,
          "internalType": "uint256",
          "name": "proposalId",
          "type": "uint256"
        },
        {
          "indexed": true,
          "internalType": "bool",
          "name": "support",
          "type": "bool"
        },
        {
          "indexed": false,
          "internalType": "uint256",
          "name": "votes",
          "type": "uint256"
        }
      ],
      "name": "VoteCast",
      "type": "event"
    },
    {
      "anonymous": false,
      "inputs": [
        {
          "indexed": true,
          "internalType": "address",
          "name": "voter",
          "type": "address"
        },
        {
          "indexed": false,
          "internalType": "uint256",
          "name": "count",
          "type": "uint256"
        }
      ],
      "name": "VotingRewardsDistributed",
      "type": "event"
    },
    {
      "inputs": [],
      "name": "BALLOT_TYPEHASH",
      "outputs": [
        {
          "internalType": "bytes32",
          "name": "",
          "type": "bytes32"
        }
      ],
      "stateMutability": "view",
      "type": "function"
    },
    {
      "inputs": [],
      "name": "DOMAIN_TYPEHASH",
      "outputs": [
        {
          "internalType": "bytes32",
          "name": "",
          "type": "bytes32"
        }
      ],
      "stateMutability": "view",
      "type": "function"
    },
    {
      "inputs": [],
      "name": "INFLATION_PERCENTAGE",
      "outputs": [
        {
          "internalType": "uint256",
          "name": "",
          "type": "uint256"
        }
      ],
      "stateMutability": "view",
      "type": "function"
    },
    {
      "inputs": [],
      "name": "__abdicate",
      "outputs": [],
      "stateMutability": "nonpayable",
      "type": "function"
    },
    {
      "inputs": [
        {
          "internalType": "uint256",
          "name": "proposalId",
          "type": "uint256"
        }
      ],
      "name": "cancel",
      "outputs": [],
      "stateMutability": "nonpayable",
      "type": "function"
    },
    {
      "inputs": [
        {
          "internalType": "uint256",
          "name": "proposalId",
          "type": "uint256"
        },
        {
          "internalType": "bool",
          "name": "support",
          "type": "bool"
        }
      ],
      "name": "castVote",
      "outputs": [],
      "stateMutability": "nonpayable",
      "type": "function"
    },
    {
      "inputs": [
        {
          "internalType": "uint256",
          "name": "proposalId",
          "type": "uint256"
        },
        {
          "internalType": "bool",
          "name": "support",
          "type": "bool"
        },
        {
          "internalType": "uint8",
          "name": "v",
          "type": "uint8"
        },
        {
          "internalType": "bytes32",
          "name": "r",
          "type": "bytes32"
        },
        {
          "internalType": "bytes32",
          "name": "s",
          "type": "bytes32"
        }
      ],
      "name": "castVoteBySig",
      "outputs": [],
      "stateMutability": "nonpayable",
      "type": "function"
    },
    {
      "inputs": [
        {
          "internalType": "uint256[]",
          "name": "proposalIDs",
          "type": "uint256[]"
        }
      ],
      "name": "claimUnderlyingVotingRewards",
      "outputs": [],
      "stateMutability": "nonpayable",
      "type": "function"
    },
    {
      "inputs": [
        {
          "internalType": "uint256[]",
          "name": "proposalIDs",
          "type": "uint256[]"
        }
      ],
      "name": "claimVotingRewards",
      "outputs": [],
      "stateMutability": "nonpayable",
      "type": "function"
    },
    {
      "inputs": [
        {
          "internalType": "uint256",
          "name": "proposalId",
          "type": "uint256"
        }
      ],
      "name": "execute",
      "outputs": [],
      "stateMutability": "nonpayable",
      "type": "function"
    },
    {
      "inputs": [
        {
          "internalType": "uint256",
          "name": "proposalId",
          "type": "uint256"
        }
      ],
      "name": "getActions",
      "outputs": [
        {
          "internalType": "address[]",
          "name": "targets",
          "type": "address[]"
        },
        {
          "internalType": "string[]",
          "name": "signatures",
          "type": "string[]"
        },
        {
          "internalType": "bytes[]",
          "name": "calldatas",
          "type": "bytes[]"
        }
      ],
      "stateMutability": "view",
      "type": "function"
    },
    {
      "inputs": [
        {
          "internalType": "address",
          "name": "voter",
          "type": "address"
        }
      ],
      "name": "getAllProposals",
      "outputs": [
        {
          "components": [
            {
              "internalType": "address[]",
              "name": "targets",
              "type": "address[]"
            },
            {
              "internalType": "string[]",
              "name": "signatures",
              "type": "string[]"
            },
            {
              "internalType": "bytes[]",
              "name": "calldatas",
              "type": "bytes[]"
            },
            {
              "internalType": "string",
              "name": "title",
              "type": "string"
            },
            {
              "internalType": "string",
              "name": "ipfsHash",
              "type": "string"
            },
            {
              "internalType": "address",
              "name": "proposer",
              "type": "address"
            },
            {
              "internalType": "uint48",
              "name": "eta",
              "type": "uint48"
            },
            {
              "internalType": "uint48",
              "name": "id",
              "type": "uint48"
            },
            {
              "internalType": "uint128",
              "name": "forVotes",
              "type": "uint128"
            },
            {
              "internalType": "uint48",
              "name": "startBlock",
              "type": "uint48"
            },
            {
              "internalType": "uint48",
              "name": "endBlock",
              "type": "uint48"
            },
            {
              "internalType": "bool",
              "name": "canceled",
              "type": "bool"
            },
            {
              "internalType": "bool",
              "name": "executed",
              "type": "bool"
            },
            {
              "internalType": "uint128",
              "name": "againstVotes",
              "type": "uint128"
            },
            {
              "internalType": "uint128",
              "name": "initialSupply",
              "type": "uint128"
            }
          ],
          "internalType": "struct GovernorAlpha.Proposal[]",
          "name": "_proposals",
          "type": "tuple[]"
        },
        {
          "internalType": "enum GovernorAlpha.ProposalState[]",
          "name": "_proposalStates",
          "type": "uint8[]"
        },
        {
          "components": [
            {
              "internalType": "bool",
              "name": "hasVoted",
              "type": "bool"
            },
            {
              "internalType": "bool",
              "name": "support",
              "type": "bool"
            },
            {
              "internalType": "bool",
              "name": "rewardReceived",
              "type": "bool"
            },
            {
              "internalType": "uint184",
              "name": "votes",
              "type": "uint184"
            }
          ],
          "internalType": "struct GovernorAlpha.Receipt[]",
          "name": "_receipts",
          "type": "tuple[]"
        }
      ],
      "stateMutability": "view",
      "type": "function"
    },
    {
      "inputs": [
        {
          "internalType": "uint256",
          "name": "proposalID",
          "type": "uint256"
        }
      ],
      "name": "getMetaProposalParameters",
      "outputs": [
        {
          "internalType": "address",
          "name": "governorAlpha",
          "type": "address"
        },
        {
          "internalType": "uint256",
          "name": "underlyingProposalID",
          "type": "uint256"
        },
        {
          "internalType": "bool",
          "name": "moreForThanAgainst",
          "type": "bool"
        }
      ],
      "stateMutability": "view",
      "type": "function"
    },
    {
      "inputs": [
        {
          "internalType": "uint256",
          "name": "proposalId",
          "type": "uint256"
        },
        {
          "internalType": "address",
          "name": "voter",
          "type": "address"
        }
      ],
      "name": "getReceipt",
      "outputs": [
        {
          "components": [
            {
              "internalType": "bool",
              "name": "hasVoted",
              "type": "bool"
            },
            {
              "internalType": "bool",
              "name": "support",
              "type": "bool"
            },
            {
              "internalType": "bool",
              "name": "rewardReceived",
              "type": "bool"
            },
            {
              "internalType": "uint184",
              "name": "votes",
              "type": "uint184"
            }
          ],
          "internalType": "struct GovernorAlpha.Receipt",
          "name": "",
          "type": "tuple"
        }
      ],
      "stateMutability": "view",
      "type": "function"
    },
    {
      "inputs": [],
      "name": "guardian",
      "outputs": [
        {
          "internalType": "address",
          "name": "",
          "type": "address"
        }
      ],
      "stateMutability": "view",
      "type": "function"
    },
    {
      "inputs": [
        {
          "internalType": "uint256",
          "name": "",
          "type": "uint256"
        },
        {
          "internalType": "address",
          "name": "",
          "type": "address"
        }
      ],
      "name": "hasClaimedUnderlyingRewards",
      "outputs": [
        {
          "internalType": "bool",
          "name": "",
          "type": "bool"
        }
      ],
      "stateMutability": "view",
      "type": "function"
    },
    {
      "inputs": [],
      "name": "implementsVotingRewardsWithToken",
      "outputs": [
        {
          "internalType": "address",
          "name": "",
          "type": "address"
        }
      ],
      "stateMutability": "view",
      "type": "function"
    },
    {
      "inputs": [
        {
          "internalType": "address",
          "name": "",
          "type": "address"
        }
      ],
      "name": "latestProposalIds",
      "outputs": [
        {
          "internalType": "uint256",
          "name": "",
          "type": "uint256"
        }
      ],
      "stateMutability": "view",
      "type": "function"
    },
    {
      "inputs": [],
      "name": "name",
      "outputs": [
        {
          "internalType": "string",
          "name": "",
          "type": "string"
        }
      ],
      "stateMutability": "view",
      "type": "function"
    },
    {
      "inputs": [],
      "name": "proposalCount",
      "outputs": [
        {
          "internalType": "uint48",
          "name": "",
          "type": "uint48"
        }
      ],
      "stateMutability": "view",
      "type": "function"
    },
    {
      "inputs": [],
      "name": "proposalMaxOperations",
      "outputs": [
        {
          "internalType": "uint256",
          "name": "",
          "type": "uint256"
        }
      ],
      "stateMutability": "pure",
      "type": "function"
    },
    {
      "inputs": [],
      "name": "proposalThreshold",
      "outputs": [
        {
          "internalType": "uint256",
          "name": "",
          "type": "uint256"
        }
      ],
      "stateMutability": "view",
      "type": "function"
    },
    {
      "inputs": [
        {
          "internalType": "uint256",
          "name": "",
          "type": "uint256"
        }
      ],
      "name": "proposals",
      "outputs": [
        {
          "internalType": "string",
          "name": "title",
          "type": "string"
        },
        {
          "internalType": "string",
          "name": "ipfsHash",
          "type": "string"
        },
        {
          "internalType": "address",
          "name": "proposer",
          "type": "address"
        },
        {
          "internalType": "uint48",
          "name": "eta",
          "type": "uint48"
        },
        {
          "internalType": "uint48",
          "name": "id",
          "type": "uint48"
        },
        {
          "internalType": "uint128",
          "name": "forVotes",
          "type": "uint128"
        },
        {
          "internalType": "uint48",
          "name": "startBlock",
          "type": "uint48"
        },
        {
          "internalType": "uint48",
          "name": "endBlock",
          "type": "uint48"
        },
        {
          "internalType": "bool",
          "name": "canceled",
          "type": "bool"
        },
        {
          "internalType": "bool",
          "name": "executed",
          "type": "bool"
        },
        {
          "internalType": "uint128",
          "name": "againstVotes",
          "type": "uint128"
        },
        {
          "internalType": "uint128",
          "name": "initialSupply",
          "type": "uint128"
        }
      ],
      "stateMutability": "view",
      "type": "function"
    },
    {
      "inputs": [
        {
          "internalType": "address[]",
          "name": "targets",
          "type": "address[]"
        },
        {
          "internalType": "string[]",
          "name": "signatures",
          "type": "string[]"
        },
        {
          "internalType": "bytes[]",
          "name": "calldatas",
          "type": "bytes[]"
        },
        {
          "internalType": "string",
          "name": "title",
          "type": "string"
        },
        {
          "internalType": "string",
          "name": "ipfsHash",
          "type": "string"
        }
      ],
      "name": "propose",
      "outputs": [
        {
          "internalType": "uint256",
          "name": "",
          "type": "uint256"
        }
      ],
      "stateMutability": "nonpayable",
      "type": "function"
    },
    {
      "inputs": [
        {
          "internalType": "uint256",
          "name": "proposalId",
          "type": "uint256"
        }
      ],
      "name": "queue",
      "outputs": [],
      "stateMutability": "nonpayable",
      "type": "function"
    },
    {
      "inputs": [],
      "name": "quorumVotes",
      "outputs": [
        {
          "internalType": "uint256",
          "name": "",
          "type": "uint256"
        }
      ],
      "stateMutability": "view",
      "type": "function"
    },
    {
      "inputs": [
        {
          "internalType": "uint256",
          "name": "proposalId",
          "type": "uint256"
        }
      ],
      "name": "state",
      "outputs": [
        {
          "internalType": "enum GovernorAlpha.ProposalState",
          "name": "",
          "type": "uint8"
        }
      ],
      "stateMutability": "view",
      "type": "function"
    },
    {
      "inputs": [],
      "name": "tDao",
      "outputs": [
        {
          "internalType": "contract ITDao",
          "name": "",
          "type": "address"
        }
      ],
      "stateMutability": "view",
      "type": "function"
    },
    {
      "inputs": [],
      "name": "timelock",
      "outputs": [
        {
          "internalType": "contract TimelockInterface",
          "name": "",
          "type": "address"
        }
      ],
      "stateMutability": "view",
      "type": "function"
    },
    {
      "inputs": [
        {
          "internalType": "contract GovernorAlpha",
          "name": "",
          "type": "address"
        },
        {
          "internalType": "uint256",
          "name": "",
          "type": "uint256"
        }
      ],
      "name": "voteInUnderlyingProtocol",
      "outputs": [],
      "stateMutability": "pure",
      "type": "function"
    },
    {
      "inputs": [],
      "name": "votingDelay",
      "outputs": [
        {
          "internalType": "uint256",
          "name": "",
          "type": "uint256"
        }
      ],
      "stateMutability": "pure",
      "type": "function"
    },
    {
      "inputs": [],
      "name": "votingPeriod",
      "outputs": [
        {
          "internalType": "uint256",
          "name": "",
          "type": "uint256"
        }
      ],
      "stateMutability": "view",
      "type": "function"
    },
    {
      "inputs": [],
      "name": "votingPeriodBlocks",
      "outputs": [
        {
          "internalType": "uint48",
          "name": "",
          "type": "uint48"
        }
      ],
      "stateMutability": "view",
      "type": "function"
    },
    {
      "inputs": [],
      "name": "votingToken",
      "outputs": [
        {
          "internalType": "contract VotingTokenInterface",
          "name": "",
          "type": "address"
        }
      ],
      "stateMutability": "view",
      "type": "function"
    }
  ],
  "bytecode": "0x610100604052348015620000135760006000fd5b5060405162006fe638038062006fe6833981810160405281019062000039919062000351565b5b6040518060400160405280601381526020017f5444616f20476f7665726e6f7220416c70686100000000000000000000000000815260200150858585855b84848484845b8460006000509080519060200190620000999291906200028a565b50600073ffffffffffffffffffffffffffffffffffffffff168473ffffffffffffffffffffffffffffffffffffffff1614158015620001055750600073ffffffffffffffffffffffffffffffffffffffff168373ffffffffffffffffffffffffffffffffffffffff1614155b80156200013f5750600073ffffffffffffffffffffffffffffffffffffffff168273ffffffffffffffffffffffffffffffffffffffff1614155b15156200014c5760006000fd5b8373ffffffffffffffffffffffffffffffffffffffff1660808173ffffffffffffffffffffffffffffffffffffffff1660601b815260140150508273ffffffffffffffffffffffffffffffffffffffff1660c08173ffffffffffffffffffffffffffffffffffffffff1660601b8152601401505081600160006101000a81548173ffffffffffffffffffffffffffffffffffffffff021916908373ffffffffffffffffffffffffffffffffffffffff16021790555060008165ffffffffffff161115156200021a5760006000fd5b8065ffffffffffff1660a08165ffffffffffff1660d01b815260060150505b50505050505b50505050508073ffffffffffffffffffffffffffffffffffffffff1660e08173ffffffffffffffffffffffffffffffffffffffff1660601b815260140150505b505050505062000400565b828054600181600116156101000203166002900490600052602060002090601f016020900481019282620002c2576000855562000313565b82601f10620002dd57805160ff191683800117855562000313565b8280016001018555821562000313579182015b82811115620003125782518260005090905591602001919060010190620002f0565b5b50905062000322919062000326565b5090565b6200032c565b808211156200034857600081815060009055506001016200032c565b509056620003ff565b6000600060006000600060a086880312156200036b578081fd5b85516200037881620003e2565b8095505060208601516200038c81620003e2565b809450506040860151620003a081620003e2565b80935050606086015165ffffffffffff811681141515620003bf578182fd5b809250506080860151620003d381620003e2565b809150505b9295509295909350565b6001600160a01b03811681141515620003fb5760006000fd5b5b50565b5b60805160601c60a05160d01c60c05160601c60e05160601c616b546200049260003980611acd5280612b155280613f4d525080610e1052806116025280611b9b5280612621528061266d5280612c505280613161528061411b52508061092f52806126455250806113dc528061175c5280612c0452806136435280613b945280614876528061498f5250616b546000f3fe60806040523480156100115760006000fd5b506004361061022b5760003560e01c8063760fbc131161012b578063d0b8bffe116100be578063ddf0b0091161008d578063e23a9a5211610072578063e23a9a5214610640578063e3a5bcaf14610670578063fe0d94c1146106a05761022b565b8063ddf0b00914610606578063deaaa7cc146106225761022b565b8063d0b8bffe1461057e578063d33219b41461059a578063da35c664146105b8578063db116511146105d65761022b565b80639853d922116100fa5780639853d922146104f2578063b034012314610524578063b24b7ffd14610542578063b58131b0146105605761022b565b8063760fbc131461047a5780637bdbe4d0146104845780637e90f9ab146104a257806383b0ce15146104c05761022b565b806329c0e5fd116101be57806340e58ee51161018d5780634634c61f116101725780634634c61f146104245780634c92beb7146104405780634e9568ef1461045e5761022b565b806340e58ee5146103ea578063452a9320146104065761022b565b806329c0e5fd1461034c578063328dd9821461036a5780633932abb11461039c5780633e4f49e6146103ba5761022b565b806315373e3d116101fa57806315373e3d146102c457806317977c61146102e057806320606b701461031057806324bc1a641461032e5761022b565b8063013cf08b1461023157806302a251a31461026c578063062f14661461028a57806306fdde03146102a65761022b565b60006000fd5b61024b6004803603810190610246919061540b565b6106bc565b6040516102639c9b9a99989796959493929190615e41565b60405180910390f35b61027461092b565b60405161028191906169da565b60405180910390f35b6102a4600480360381019061029f91906152a1565b610960565b005b6102ae610d10565b6040516102bb9190615e25565b60405180910390f35b6102de60048036038101906102d99190615474565b610db1565b005b6102fa60048036038101906102f5919061517a565b610dcb565b60405161030791906169da565b60405180910390f35b610318610de6565b6040516103259190615cf9565b60405180910390f35b610336610e0a565b60405161034391906169da565b60405180910390f35b610354610ec2565b60405161036191906169da565b60405180910390f35b610384600480360381019061037f919061540b565b610ecd565b60405161039393929190615aab565b60405180910390f35b6103a4611171565b6040516103b191906169da565b60405180910390f35b6103d460048036038101906103cf919061540b565b61117f565b6040516103e19190615e0c565b60405180910390f35b61040460048036038101906103ff919061540b565b6114b2565b005b61040e6118c7565b60405161041b91906158c5565b60405180910390f35b61043e600480360381019061043991906154a5565b6118ed565b005b610448611acb565b6040516104559190615d94565b60405180910390f35b610478600480360381019061047391906153da565b611aef565b005b610482611af4565b005b61048c611b89565b60405161049991906169da565b60405180910390f35b6104aa611b97565b6040516104b791906158c5565b60405180910390f35b6104da60048036038101906104d5919061540b565b611bc4565b6040516104e993929190615a3c565b60405180910390f35b61050c6004803603810190610507919061517a565b611e10565b60405161051b93929190615af0565b60405180910390f35b61052c61261f565b6040516105399190615de4565b60405180910390f35b61054a612643565b60405161055791906169ec565b60405180910390f35b610568612667565b60405161057591906169da565b60405180910390f35b610598600480360381019061059391906152a1565b61271f565b005b6105a2612c02565b6040516105af9190615dbc565b60405180910390f35b6105c0612c26565b6040516105cd91906169ec565b60405180910390f35b6105f060048036038101906105eb91906151d2565b612c3e565b6040516105fd91906169da565b60405180910390f35b610620600480360381019061061b919061540b565b6135b5565b005b61062a613951565b6040516106379190615cf9565b60405180910390f35b61065a60048036038101906106559190615443565b613975565b60405161066791906169c1565b60405180910390f35b61068a60048036038101906106859190615443565b613aa1565b6040516106979190615ce5565b60405180910390f35b6106ba60048036038101906106b5919061540b565b613ad6565b005b6003600050602052806000526040600020600091509050806003016000508054600181600116156101000203166002900480601f01602080910402602001604051908101604052809291908181526020018280546001816001161561010002031660029004801561076e5780601f106107435761010080835404028352916020019161076e565b820191906000526020600020905b81548152906001019060200180831161075157829003601f168201915b505050505090806004016000508054600181600116156101000203166002900480601f01602080910402602001604051908101604052809291908181526020018280546001816001161561010002031660029004801561080f5780601f106107e45761010080835404028352916020019161080f565b820191906000526020600020905b8154815290600101906020018083116107f257829003601f168201915b5050505050908060050160009054906101000a900473ffffffffffffffffffffffffffffffffffffffff16908060050160149054906101000a900465ffffffffffff169080600501601a9054906101000a900465ffffffffffff16908060060160009054906101000a90046fffffffffffffffffffffffffffffffff16908060060160109054906101000a900465ffffffffffff16908060060160169054906101000a900465ffffffffffff169080600601601c9054906101000a900460ff169080600601601d9054906101000a900460ff16908060070160009054906101000a90046fffffffffffffffffffffffffffffffff16908060070160109054906101000a90046fffffffffffffffffffffffffffffffff1690508c565b60007f000000000000000000000000000000000000000000000000000000000000000065ffffffffffff16905061095d565b90565b6000600090505b82829050811015610d0a576000838383818110151561098257fe5b90506020020135905061099a81613d2663ffffffff16565b15156109db576040517f08c379a00000000000000000000000000000000000000000000000000000000081526004016109d290616070565b60405180910390fd5b6002600050600082815260200190815260200160002060005060003373ffffffffffffffffffffffffffffffffffffffff1673ffffffffffffffffffffffffffffffffffffffff16815260200190815260200160002060005060000160009054906101000a900460ff161515610a86576040517f08c379a0000000000000000000000000000000000000000000000000000000008152600401610a7d90616153565b60405180910390fd5b60006002600050600083815260200190815260200160002060005060003373ffffffffffffffffffffffffffffffffffffffff1673ffffffffffffffffffffffffffffffffffffffff16815260200190815260200160002060005090508060000160029054906101000a900460ff16151515610b37576040517f08c379a0000000000000000000000000000000000000000000000000000000008152600401610b2e90616512565b60405180910390fd5b60018160000160026101000a81548160ff021916908315150217905550600060036000506000848152602001908152602001600020600050905060008260000160039054906101000a900476ffffffffffffffffffffffffffffffffffffffffffffff1676ffffffffffffffffffffffffffffffffffffffffffffff1690506000610c2c8360060160009054906101000a90046fffffffffffffffffffffffffffffffff166fffffffffffffffffffffffffffffffff168460070160009054906101000a90046fffffffffffffffffffffffffffffffff166fffffffffffffffffffffffffffffffff16613dc663ffffffff16565b90506000610c7c6611c37937e080008560070160109054906101000a90046fffffffffffffffffffffffffffffffff166fffffffffffffffffffffffffffffffff16613e2490919063ffffffff16565b90506000610c95848484613e4a9092919063ffffffff16565b9050610ca73382613f4b63ffffffff16565b3373ffffffffffffffffffffffffffffffffffffffff167f56cd411799f8eaf36ff267057223a17836afa0a91a109fe7e102ef919e6fa19d82604051610ced91906169da565b60405180910390a2505050505050505b8080600101915050610967565b505b5050565b60006000508054600181600116156101000203166002900480601f016020809104026020016040519081016040528092919081815260200182805460018160011615610100020316600290048015610da95780601f10610d7e57610100808354040283529160200191610da9565b820191906000526020600020905b815481529060010190602001808311610d8c57829003601f168201915b505050505081565b610dc2338383613fdf63ffffffff16565b610dc7565b5050565b60046000506020528060005260406000206000915090505481565b7f8cad95687ba82c2ce50e74f7b754645e5117c3a5bec8151c0726d5857980a86681565b600060287f000000000000000000000000000000000000000000000000000000000000000073ffffffffffffffffffffffffffffffffffffffff166318160ddd6040518163ffffffff1660e01b815260040160206040518083038186803b158015610e755760006000fd5b505afa158015610e8a573d600060003e3d6000fd5b505050506040513d601f19601f82011682018060405250810190610eae9190615427565b811515610eb757fe5b049050610ebf565b90565b6611c37937e0800081565b606060606060600060036000506000868152602001908152602001600020600050905080600001600050816001016000508260020160005082805480602002602001604051908101604052809291908181526020018280548015610f8657602002820191906000526020600020905b8160009054906101000a900473ffffffffffffffffffffffffffffffffffffffff1673ffffffffffffffffffffffffffffffffffffffff1681526020019060010190808311610f3c575b5050505050925081805480602002602001604051908101604052809291908181526020016000905b8282101561106f578382906000526020600020900160005b508054600181600116156101000203166002900480601f01602080910402602001604051908101604052809291908181526020018280546001816001161561010002031660029004801561105b5780601f106110305761010080835404028352916020019161105b565b820191906000526020600020905b81548152906001019060200180831161103e57829003601f168201915b505050505081526020019060010190610fae565b50505050915080805480602002602001604051908101604052809291908181526020016000905b82821015611157578382906000526020600020900160005b508054600181600116156101000203166002900480601f0160208091040260200160405190810160405280929190818152602001828054600181600116156101000203166002900480156111435780601f1061111857610100808354040283529160200191611143565b820191906000526020600020905b81548152906001019060200180831161112657829003601f168201915b505050505081526020019060010190611096565b5050505090509350935093505061116a56505b9193909250565b60006001905061117c565b90565b600081600160149054906101000a900465ffffffffffff1665ffffffffffff16101580156111ad5750600082115b15156111ee576040517f08c379a00000000000000000000000000000000000000000000000000000000081526004016111e5906160ee565b60405180910390fd5b600060036000506000848152602001908152602001600020600050905080600601601c9054906101000a900460ff16156112305760029150506114ad566114ab565b8060060160109054906101000a900465ffffffffffff1665ffffffffffff16431115156112655760009150506114ad566114aa565b8060060160169054906101000a900465ffffffffffff1665ffffffffffff164311151561129a5760019150506114ad566114a9565b8060070160009054906101000a90046fffffffffffffffffffffffffffffffff166fffffffffffffffffffffffffffffffff168160060160009054906101000a90046fffffffffffffffffffffffffffffffff166fffffffffffffffffffffffffffffffff1611158061134b5750611316610e0a63ffffffff16565b8160060160009054906101000a90046fffffffffffffffffffffffffffffffff166fffffffffffffffffffffffffffffffff16105b1561135e5760039150506114ad566114a8565b60008160050160149054906101000a900465ffffffffffff1665ffffffffffff1614156113935760049150506114ad566114a7565b80600601601d9054906101000a900460ff16156113b85760079150506114ad566114a6565b6114858160050160149054906101000a900465ffffffffffff1665ffffffffffff167f000000000000000000000000000000000000000000000000000000000000000073ffffffffffffffffffffffffffffffffffffffff1663c1a287e26040518163ffffffff1660e01b815260040160206040518083038186803b1580156114415760006000fd5b505afa158015611456573d600060003e3d6000fd5b505050506040513d601f19601f8201168201806040525081019061147a9190615427565b613dc663ffffffff16565b4210151561149b5760069150506114ad566114a5565b60059150506114ad565b5b5b5b5b5b5b505b919050565b600760078111156114bf57fe5b6114ce8261117f63ffffffff16565b60078111156114d957fe5b1415151561151c576040517f08c379a000000000000000000000000000000000000000000000000000000000815260040161151390616879565b60405180910390fd5b60006003600050600083815260200190815260200160002060005090508060060160169054906101000a900465ffffffffffff1665ffffffffffff164310151561159b576040517f08c379a0000000000000000000000000000000000000000000000000000000008152600401611592906165dc565b60405180910390fd5b600160009054906101000a900473ffffffffffffffffffffffffffffffffffffffff1673ffffffffffffffffffffffffffffffffffffffff163373ffffffffffffffffffffffffffffffffffffffff1614806116e3575061160061266763ffffffff16565b7f000000000000000000000000000000000000000000000000000000000000000073ffffffffffffffffffffffffffffffffffffffff1663782d6fe18360050160009054906101000a900473ffffffffffffffffffffffffffffffffffffffff166116724360016144b463ffffffff16565b6040518363ffffffff1660e01b815260040161168f9291906159cc565b60206040518083038186803b1580156116a85760006000fd5b505afa1580156116bd573d600060003e3d6000fd5b505050506040513d601f19601f820116820180604052508101906116e19190615427565b105b1515611724576040517f08c379a000000000000000000000000000000000000000000000000000000000815260040161171b906164ad565b60405180910390fd5b600181600601601c6101000a81548160ff0219169083151502179055506000600090505b8160000160005080549050811015611894577f000000000000000000000000000000000000000000000000000000000000000073ffffffffffffffffffffffffffffffffffffffff16624b1f1283600001600050838154811015156117a957fe5b906000526020600020900160005b9054906101000a900473ffffffffffffffffffffffffffffffffffffffff1684600101600050848154811015156117ea57fe5b906000526020600020900160005b50856002016000508581548110151561180d57fe5b906000526020600020900160005b508660050160149054906101000a900465ffffffffffff166040518563ffffffff1660e01b81526004016118529493929190615970565b600060405180830381600087803b15801561186d5760006000fd5b505af1158015611882573d600060003e3d6000fd5b505050505b8080600101915050611748565b50817f789cf55be980739dad1d0699b93b58e806b51c9d96619bfa8fe0a28abaa7b30c60405160405180910390a2505b50565b600160009054906101000a900473ffffffffffffffffffffffffffffffffffffffff1681565b60007f8cad95687ba82c2ce50e74f7b754645e5117c3a5bec8151c0726d5857980a866600060005060405161192291906157ee565b604051809103902061193861450b63ffffffff16565b3060405160200161194c9493929190615d0b565b60405160208183030381529060405280519060200120905060007f8e25870c07e0b0b3884c78da52790939a455c275406c44ae8b434b692fb916ee878760405160200161199b93929190615d48565b604051602081830303815290604052805190602001209050600082826040516020016119c8929190615886565b604051602081830303815290604052805190602001209050600060018288888860405160008152602001604052604051611a059493929190615d6a565b6020604051602081039080840390855afa158015611a28573d600060003e3d6000fd5b505050602060405103519050600073ffffffffffffffffffffffffffffffffffffffff168173ffffffffffffffffffffffffffffffffffffffff1614151515611aa6576040517f08c379a0000000000000000000000000000000000000000000000000000000008152600401611a9d9061674a565b60405180910390fd5b611ab7818a8a613fdf63ffffffff16565b50505050611ac456505050505b5050505050565b7f000000000000000000000000000000000000000000000000000000000000000081565b5b5050565b611b033361451f63ffffffff16565b1515611b44576040517f08c379a0000000000000000000000000000000000000000000000000000000008152600401611b3b906161d1565b60405180910390fd5b6000600160006101000a81548173ffffffffffffffffffffffffffffffffffffffff021916908373ffffffffffffffffffffffffffffffffffffffff1602179055505b565b6000600a9050611b94565b90565b60007f00000000000000000000000000000000000000000000000000000000000000009050611bc1565b90565b600060006000611bd984613d2663ffffffff16565b1515611c1a576040517f08c379a0000000000000000000000000000000000000000000000000000000008152600401611c1190616070565b60405180910390fd5b611c298461452f63ffffffff16565b1515611c6a576040517f08c379a0000000000000000000000000000000000000000000000000000000008152600401611c6190616275565b60405180910390fd5b60006003600050600086815260200190815260200160002060005060060160009054906101000a90046fffffffffffffffffffffffffffffffff16905060006003600050600087815260200190815260200160002060005060070160009054906101000a90046fffffffffffffffffffffffffffffffff169050806fffffffffffffffffffffffffffffffff16826fffffffffffffffffffffffffffffffff16119250825082611d7c57611d22610e0a63ffffffff16565b816fffffffffffffffffffffffffffffffff16111515611d77576040517f08c379a0000000000000000000000000000000000000000000000000000000008152600401611d6e90616031565b60405180910390fd5b611de0565b611d8a610e0a63ffffffff16565b826fffffffffffffffffffffffffffffffff16111515611ddf576040517f08c379a0000000000000000000000000000000000000000000000000000000008152600401611dd690616192565b60405180910390fd5b5b611def8661463e63ffffffff16565b80955081965050508484849450945094505050611e095650505b9193909250565b6060606060606000600160149054906101000a900465ffffffffffff1665ffffffffffff1690508067ffffffffffffffff81118015611e4f5760006000fd5b50604051908082528060200260200182016040528015611e8957816020015b611e76614ae3565b815260200190600190039081611e6e5790505b50935083508067ffffffffffffffff81118015611ea65760006000fd5b50604051908082528060200260200182016040528015611ed55781602001602082028036833780820191505090505b50925082508067ffffffffffffffff81118015611ef25760006000fd5b50604051908082528060200260200182016040528015611f2c57816020015b611f19614bcc565b815260200190600190039081611f115790505b50915081506000600190505b818165ffffffffffff1611151561261557600360005060008265ffffffffffff168152602001908152602001600020600050604051806101e001604052908160008201600050805480602002602001604051908101604052809291908181526020018280548015611ffe57602002820191906000526020600020905b8160009054906101000a900473ffffffffffffffffffffffffffffffffffffffff1673ffffffffffffffffffffffffffffffffffffffff1681526020019060010190808311611fb4575b5050505050815260200160018201600050805480602002602001604051908101604052809291908181526020016000905b828210156120f0578382906000526020600020900160005b508054600181600116156101000203166002900480601f0160208091040260200160405190810160405280929190818152602001828054600181600116156101000203166002900480156120dc5780601f106120b1576101008083540402835291602001916120dc565b820191906000526020600020905b8154815290600101906020018083116120bf57829003601f168201915b50505050508152602001906001019061202f565b50505050815260200160028201600050805480602002602001604051908101604052809291908181526020016000905b828210156121e1578382906000526020600020900160005b508054600181600116156101000203166002900480601f0160208091040260200160405190810160405280929190818152602001828054600181600116156101000203166002900480156121cd5780601f106121a2576101008083540402835291602001916121cd565b820191906000526020600020905b8154815290600101906020018083116121b057829003601f168201915b505050505081526020019060010190612120565b505050508152602001600382016000508054600181600116156101000203166002900480601f0160208091040260200160405190810160405280929190818152602001828054600181600116156101000203166002900480156122855780601f1061225a57610100808354040283529160200191612285565b820191906000526020600020905b81548152906001019060200180831161226857829003601f168201915b50505050508152602001600482016000508054600181600116156101000203166002900480601f01602080910402602001604051908101604052809291908181526020018280546001816001161561010002031660029004801561232a5780601f106122ff5761010080835404028352916020019161232a565b820191906000526020600020905b81548152906001019060200180831161230d57829003601f168201915b505050505081526020016005820160009054906101000a900473ffffffffffffffffffffffffffffffffffffffff1673ffffffffffffffffffffffffffffffffffffffff1673ffffffffffffffffffffffffffffffffffffffff1681526020016005820160149054906101000a900465ffffffffffff1665ffffffffffff1665ffffffffffff16815260200160058201601a9054906101000a900465ffffffffffff1665ffffffffffff1665ffffffffffff1681526020016006820160009054906101000a90046fffffffffffffffffffffffffffffffff166fffffffffffffffffffffffffffffffff166fffffffffffffffffffffffffffffffff1681526020016006820160109054906101000a900465ffffffffffff1665ffffffffffff1665ffffffffffff1681526020016006820160169054906101000a900465ffffffffffff1665ffffffffffff1665ffffffffffff16815260200160068201601c9054906101000a900460ff1615151515815260200160068201601d9054906101000a900460ff161515151581526020016007820160009054906101000a90046fffffffffffffffffffffffffffffffff166fffffffffffffffffffffffffffffffff166fffffffffffffffffffffffffffffffff1681526020016007820160109054906101000a90046fffffffffffffffffffffffffffffffff166fffffffffffffffffffffffffffffffff166fffffffffffffffffffffffffffffffff1681526020015050856001830365ffffffffffff1681518110151561256957fe5b602002602001018190525061258b8165ffffffffffff1661117f63ffffffff16565b846001830365ffffffffffff168151811015156125a457fe5b602002602001019060078111156125b757fe5b908160078111156125c457fe5b815260200150506125e38165ffffffffffff168761397563ffffffff16565b836001830365ffffffffffff168151811015156125fc57fe5b60200260200101819052505b8080600101915050611f38565b50505b9193909250565b7f000000000000000000000000000000000000000000000000000000000000000081565b7f000000000000000000000000000000000000000000000000000000000000000081565b600060c87f000000000000000000000000000000000000000000000000000000000000000073ffffffffffffffffffffffffffffffffffffffff166318160ddd6040518163ffffffff1660e01b815260040160206040518083038186803b1580156126d25760006000fd5b505afa1580156126e7573d600060003e3d6000fd5b505050506040513d601f19601f8201168201806040525081019061270b9190615427565b81151561271457fe5b04905061271c565b90565b6000600090505b82829050811015612bfc576000838383818110151561274157fe5b90506020020135905061275981613d2663ffffffff16565b151561279a576040517f08c379a000000000000000000000000000000000000000000000000000000000815260040161279190616070565b60405180910390fd5b6127a98161452f63ffffffff16565b15156127ea576040517f08c379a00000000000000000000000000000000000000000000000000000000081526004016127e190616275565b60405180910390fd5b6002600050600082815260200190815260200160002060005060003373ffffffffffffffffffffffffffffffffffffffff1673ffffffffffffffffffffffffffffffffffffffff16815260200190815260200160002060005060000160009054906101000a900460ff161515612895576040517f08c379a000000000000000000000000000000000000000000000000000000000815260040161288c90616153565b60405180910390fd5b6005600050600082815260200190815260200160002060005060003373ffffffffffffffffffffffffffffffffffffffff1673ffffffffffffffffffffffffffffffffffffffff16815260200190815260200160002060009054906101000a900460ff1615151561293b576040517f08c379a0000000000000000000000000000000000000000000000000000000008152600401612932906163e3565b60405180910390fd5b60016005600050600083815260200190815260200160002060005060003373ffffffffffffffffffffffffffffffffffffffff1673ffffffffffffffffffffffffffffffffffffffff16815260200190815260200160002060006101000a81548160ff021916908315150217905550600060006129bd8361463e63ffffffff16565b915091506000612b11612a6a6003600050600087815260200190815260200160002060005060060160009054906101000a90046fffffffffffffffffffffffffffffffff166fffffffffffffffffffffffffffffffff166003600050600088815260200190815260200160002060005060070160009054906101000a90046fffffffffffffffffffffffffffffffff166fffffffffffffffffffffffffffffffff16613dc663ffffffff16565b6002600050600087815260200190815260200160002060005060003373ffffffffffffffffffffffffffffffffffffffff1673ffffffffffffffffffffffffffffffffffffffff16815260200190815260200160002060005060000160039054906101000a900476ffffffffffffffffffffffffffffffffffffffffffffff1676ffffffffffffffffffffffffffffffffffffffffffffff1661473b90919063ffffffff16565b90507f000000000000000000000000000000000000000000000000000000000000000073ffffffffffffffffffffffffffffffffffffffff1663b9f8ea6d848433856040518563ffffffff1660e01b8152600401612b7294939291906159fb565b600060405180830381600087803b158015612b8d5760006000fd5b505af1158015612ba2573d600060003e3d6000fd5b50505050833373ffffffffffffffffffffffffffffffffffffffff167f28df778d69fdf2ff5a7357c6ab2ed2b2366966f5baf183da0e39b42577c6bc7c60405160405180910390a3505050505b8080600101915050612726565b505b5050565b7f000000000000000000000000000000000000000000000000000000000000000081565b600160149054906101000a900465ffffffffffff1681565b6000612c4e61266763ffffffff16565b7f000000000000000000000000000000000000000000000000000000000000000073ffffffffffffffffffffffffffffffffffffffff1663782d6fe133612c9c4360016144b463ffffffff16565b6040518363ffffffff1660e01b8152600401612cb99291906158ed565b60206040518083038186803b158015612cd25760006000fd5b505afa158015612ce7573d600060003e3d6000fd5b505050506040513d601f19601f82011682018060405250810190612d0b9190615427565b111515612d4d576040517f08c379a0000000000000000000000000000000000000000000000000000000008152600401612d44906166e5565b60405180910390fd5b84518651148015612d5f575083518651145b1515612da0576040517f08c379a0000000000000000000000000000000000000000000000000000000008152600401612d9790616422565b60405180910390fd5b60008651111515612de6576040517f08c379a0000000000000000000000000000000000000000000000000000000008152600401612ddd90616680565b60405180910390fd5b612df4611b8963ffffffff16565b865111151515612e39576040517f08c379a0000000000000000000000000000000000000000000000000000000008152600401612e309061633f565b60405180910390fd5b6000600460005060003373ffffffffffffffffffffffffffffffffffffffff1673ffffffffffffffffffffffffffffffffffffffff1681526020019081526020016000206000505490506000811115612f59576000612e9d8261117f63ffffffff16565b905060016007811115612eac57fe5b816007811115612eb857fe5b14151515612efb576040517f08c379a0000000000000000000000000000000000000000000000000000000008152600401612ef2906167af565b60405180910390fd5b60006007811115612f0857fe5b816007811115612f1457fe5b14151515612f57576040517f08c379a0000000000000000000000000000000000000000000000000000000008152600401612f4e906162b4565b60405180910390fd5b505b6000600090505b8651811015612fb157612fa38882815181101515612f7a57fe5b60200260200101518883815181101515612f9057fe5b602002602001015161476163ffffffff16565b5b8080600101915050612f60565b506000612fd143612fc661117163ffffffff16565b613dc663ffffffff16565b90506000612ff282612fe761092b63ffffffff16565b613dc663ffffffff16565b90506001601481819054906101000a900465ffffffffffff168092919060010191906101000a81548165ffffffffffff021916908365ffffffffffff160217905550506601000000000000600160149054906101000a900465ffffffffffff1665ffffffffffff161015156130675760006000fd5b6000604051806101e001604052808b81526020018a81526020018981526020018881526020018781526020013373ffffffffffffffffffffffffffffffffffffffff168152602001600065ffffffffffff168152602001600160149054906101000a900465ffffffffffff1665ffffffffffff16815260200160006fffffffffffffffffffffffffffffffff168152602001613108856147b663ffffffff16565b65ffffffffffff168152602001613124846147b663ffffffff16565b65ffffffffffff16815260200160001515815260200160001515815260200160006fffffffffffffffffffffffffffffffff16815260200161320a7f000000000000000000000000000000000000000000000000000000000000000073ffffffffffffffffffffffffffffffffffffffff166318160ddd6040518163ffffffff1660e01b815260040160206040518083038186803b1580156131c65760006000fd5b505afa1580156131db573d600060003e3d6000fd5b505050506040513d601f19601f820116820180604052508101906131ff9190615427565b61481063ffffffff16565b6fffffffffffffffffffffffffffffffff16815260200150905080600360005060008360e0015165ffffffffffff1681526020019081526020016000206000506000820151816000016000509080519060200190613269929190614c16565b506020820151816001016000509080519060200190613289929190614ca0565b5060408201518160020160005090805190602001906132a9929190614d00565b5060608201518160030160005090805190602001906132c9929190614d60565b5060808201518160040160005090805190602001906132e9929190614d60565b5060a08201518160050160006101000a81548173ffffffffffffffffffffffffffffffffffffffff021916908373ffffffffffffffffffffffffffffffffffffffff16021790555060c08201518160050160146101000a81548165ffffffffffff021916908365ffffffffffff16021790555060e082015181600501601a6101000a81548165ffffffffffff021916908365ffffffffffff1602179055506101008201518160060160006101000a8154816fffffffffffffffffffffffffffffffff02191690836fffffffffffffffffffffffffffffffff1602179055506101208201518160060160106101000a81548165ffffffffffff021916908365ffffffffffff1602179055506101408201518160060160166101000a81548165ffffffffffff021916908365ffffffffffff16021790555061016082015181600601601c6101000a81548160ff02191690831515021790555061018082015181600601601d6101000a81548160ff0219169083151502179055506101a08201518160070160006101000a8154816fffffffffffffffffffffffffffffffff02191690836fffffffffffffffffffffffffffffffff1602179055506101c08201518160070160106101000a8154816fffffffffffffffffffffffffffffffff02191690836fffffffffffffffffffffffffffffffff1602179055509050508060e0015165ffffffffffff16600460005060008360a0015173ffffffffffffffffffffffffffffffffffffffff1673ffffffffffffffffffffffffffffffffffffffff1681526020019081526020016000206000508190909055503373ffffffffffffffffffffffffffffffffffffffff168160e0015165ffffffffffff167fcd423cc1203c0af96b9b3d68d73b3064a69de2d14450bb7181c5e5df2132b35860405160405180910390a38060e0015165ffffffffffff169450505050506135ac56505050505b95945050505050565b600460078111156135c257fe5b6135d18261117f63ffffffff16565b60078111156135dc57fe5b14151561361e576040517f08c379a000000000000000000000000000000000000000000000000000000000815260040161361590615f1b565b60405180910390fd5b600060036000506000838152602001908152602001600020600050905060006136ec427f000000000000000000000000000000000000000000000000000000000000000073ffffffffffffffffffffffffffffffffffffffff16636a42b8f86040518163ffffffff1660e01b815260040160206040518083038186803b1580156136a85760006000fd5b505afa1580156136bd573d600060003e3d6000fd5b505050506040513d601f19601f820116820180604052508101906136e19190615427565b613dc663ffffffff16565b90506000600090505b82600001600050805490508110156138dd576138cf836000016000508281548110151561371e57fe5b906000526020600020900160005b9054906101000a900473ffffffffffffffffffffffffffffffffffffffff16846001016000508381548110151561375f57fe5b906000526020600020900160005b508054600181600116156101000203166002900480601f0160208091040260200160405190810160405280929190818152602001828054600181600116156101000203166002900480156138025780601f106137d757610100808354040283529160200191613802565b820191906000526020600020905b8154815290600101906020018083116137e557829003601f168201915b5050505050856002016000508481548110151561381b57fe5b906000526020600020900160005b508054600181600116156101000203166002900480601f0160208091040260200160405190810160405280929190818152602001828054600181600116156101000203166002900480156138be5780601f10613893576101008083540402835291602001916138be565b820191906000526020600020905b8154815290600101906020018083116138a157829003601f168201915b50505050508561487463ffffffff16565b5b80806001019150506136f5565b506138ed816147b663ffffffff16565b8260050160146101000a81548165ffffffffffff021916908365ffffffffffff160217905550827f9a2e42fd6722813d69113e7d0079d3d940171428df7373df9c7f7617cfda28928260405161394391906169da565b60405180910390a250505b50565b7f8e25870c07e0b0b3884c78da52790939a455c275406c44ae8b434b692fb916ee81565b61397d614bcc565b6002600050600084815260200190815260200160002060005060008373ffffffffffffffffffffffffffffffffffffffff1673ffffffffffffffffffffffffffffffffffffffff1681526020019081526020016000206000506040518060800160405290816000820160009054906101000a900460ff161515151581526020016000820160019054906101000a900460ff161515151581526020016000820160029054906101000a900460ff161515151581526020016000820160039054906101000a900476ffffffffffffffffffffffffffffffffffffffffffffff1676ffffffffffffffffffffffffffffffffffffffffffffff1676ffffffffffffffffffffffffffffffffffffffffffffff16815260200150509050613a9b565b92915050565b60056000506020528160005260406000206000506020528060005260406000206000915091509054906101000a900460ff1681565b60056007811115613ae357fe5b613af28261117f63ffffffff16565b6007811115613afd57fe5b141515613b3f576040517f08c379a0000000000000000000000000000000000000000000000000000000008152600401613b3690615fa6565b60405180910390fd5b6000600360005060008381526020019081526020016000206000509050600181600601601d6101000a81548160ff0219169083151502179055506000600090505b8160000160005080549050811015613cf3577f000000000000000000000000000000000000000000000000000000000000000073ffffffffffffffffffffffffffffffffffffffff16633ec5ab328360000160005083815481101515613be257fe5b906000526020600020900160005b9054906101000a900473ffffffffffffffffffffffffffffffffffffffff168460010160005084815481101515613c2357fe5b906000526020600020900160005b508560020160005085815481101515613c4657fe5b906000526020600020900160005b508660050160149054906101000a900465ffffffffffff166040518563ffffffff1660e01b8152600401613c8b9493929190615970565b600060405180830381600087803b158015613ca65760006000fd5b505af1158015613cbb573d600060003e3d6000fd5b505050506040513d6000823e3d601f19601f82011682018060405250810190613ce49190615359565b505b8080600101915050613b80565b50817f712ae1383f79ac853f8d882153778e0260ef8f03b504e2866e0593e04d2b291f60405160405180910390a2505b50565b60006000613d398361117f63ffffffff16565b905060046007811115613d4857fe5b816007811115613d5457fe5b1480613d76575060036007811115613d6857fe5b816007811115613d7457fe5b145b80613d97575060056007811115613d8957fe5b816007811115613d9557fe5b145b80613db8575060076007811115613daa57fe5b816007811115613db657fe5b145b915050613dc156505b919050565b600060008284019050838110151515613e14576040517f08c379a0000000000000000000000000000000000000000000000000000000008152600401613e0b906163a4565b60405180910390fd5b80915050613e1e56505b92915050565b6000613e3f8383670de0b6b3a7640000613e4a63ffffffff16565b905080505b92915050565b6000600060006000198587098587029250828110838203039150506000811415613e8d57600084111515613e7e5760006000fd5b83820492508292505050613f44565b8084111515613e9c5760006000fd5b6000848688099050828111820391508083039250600085866000031690508086049550808404935060018182600003040190508083028417935083506000600287600302189050808702600203810290508050808702600203810290508050808702600203810290508050808702600203810290508050808702600203810290508050808702600203810290508050808502955085508595505050505050613f445650505050505b9392505050565b7f000000000000000000000000000000000000000000000000000000000000000073ffffffffffffffffffffffffffffffffffffffff16630793298783836040518363ffffffff1660e01b8152600401613fa69291906159cc565b600060405180830381600087803b158015613fc15760006000fd5b505af1158015613fd6573d600060003e3d6000fd5b505050505b5050565b60016007811115613fec57fe5b613ffb8361117f63ffffffff16565b600781111561400657fe5b141515614048576040517f08c379a000000000000000000000000000000000000000000000000000000000815260040161403f906168de565b60405180910390fd5b6000600360005060008481526020019081526020016000206000509050600015156002600050600085815260200190815260200160002060005060008673ffffffffffffffffffffffffffffffffffffffff1673ffffffffffffffffffffffffffffffffffffffff16815260200190815260200160002060005060000160009054906101000a900460ff161515141515614117576040517f08c379a000000000000000000000000000000000000000000000000000000000815260040161410e90616210565b60405180910390fd5b60007f000000000000000000000000000000000000000000000000000000000000000073ffffffffffffffffffffffffffffffffffffffff1663782d6fe1868460060160109054906101000a900465ffffffffffff166040518363ffffffff1660e01b815260040161418a929190615a74565b60206040518083038186803b1580156141a35760006000fd5b505afa1580156141b8573d600060003e3d6000fd5b505050506040513d601f19601f820116820180604052508101906141dc9190615427565b90508215614273576142346142298360060160009054906101000a90046fffffffffffffffffffffffffffffffff166fffffffffffffffffffffffffffffffff1683613dc663ffffffff16565b61481063ffffffff16565b8260060160006101000a8154816fffffffffffffffffffffffffffffffff02191690836fffffffffffffffffffffffffffffffff1602179055506142fe565b6142c36142b88360070160009054906101000a90046fffffffffffffffffffffffffffffffff166fffffffffffffffffffffffffffffffff1683613dc663ffffffff16565b61481063ffffffff16565b8260070160006101000a8154816fffffffffffffffffffffffffffffffff02191690836fffffffffffffffffffffffffffffffff1602179055505b6040518060800160405280600115158152602001841515815260200160001515815260200161433283614a4863ffffffff16565b76ffffffffffffffffffffffffffffffffffffffffffffff168152602001506002600050600086815260200190815260200160002060005060008773ffffffffffffffffffffffffffffffffffffffff1673ffffffffffffffffffffffffffffffffffffffff16815260200190815260200160002060005060008201518160000160006101000a81548160ff02191690831515021790555060208201518160000160016101000a81548160ff02191690831515021790555060408201518160000160026101000a81548160ff02191690831515021790555060608201518160000160036101000a81548176ffffffffffffffffffffffffffffffffffffffffffffff021916908376ffffffffffffffffffffffffffffffffffffffffffffff160217905550905050821515848673ffffffffffffffffffffffffffffffffffffffff167f877856338e13f63d0c36822ff0ef736b80934cd90574a3a5bc9262c39d217c46846040516144a491906169da565b60405180910390a450505b505050565b60008282111515156144fb576040517f08c379a00000000000000000000000000000000000000000000000000000000081526004016144f290616982565b60405180910390fd5b8183039050614505565b92915050565b600060004690508091505061451c56505b90565b60006001905061452a565b919050565b600060006000600061454685610ecd63ffffffff16565b9250925092506001835114801561455e575060018251145b801561456b575060018151145b80156145b857503073ffffffffffffffffffffffffffffffffffffffff1683600081518110151561459857fe5b602002602001015173ffffffffffffffffffffffffffffffffffffffff16145b801561462c5750634e9568ef60e01b7bffffffffffffffffffffffffffffffffffffffffffffffffffffffff191661460b8360008151811015156145f857fe5b6020026020010151614ab363ffffffff16565b7bffffffffffffffffffffffffffffffffffffffffffffffffffffffff1916145b9350505050614639565050505b919050565b6000600060036000506000848152602001908152602001600020600050600201600050600081548110151561466f57fe5b906000526020600020900160005b508054600181600116156101000203166002900480601f0160208091040260200160405190810160405280929190818152602001828054600181600116156101000203166002900480156147125780601f106146e757610100808354040283529160200191614712565b820191906000526020600020905b8154815290600101906020018083116146f557829003601f168201915b505050505080602001905181019061472a91906151a1565b81915091509150614736565b915091565b600061475683670de0b6b3a764000084613e4a63ffffffff16565b905080505b92915050565b61477082614ac963ffffffff16565b15156147b1576040517f08c379a00000000000000000000000000000000000000000000000000000000081526004016147a890616641565b60405180910390fd5b5b5050565b6000660100000000000082101515614803576040517f08c379a00000000000000000000000000000000000000000000000000000000081526004016147fa9061683a565b60405180910390fd5b81905061480b565b919050565b600070010000000000000000000000000000000082101515614867576040517f08c379a000000000000000000000000000000000000000000000000000000000815260040161485e906160af565b60405180910390fd5b81905061486f565b919050565b7f000000000000000000000000000000000000000000000000000000000000000073ffffffffffffffffffffffffffffffffffffffff1663f2b06537858585856040516020016148c7949392919061591c565b604051602081830303815290604052805190602001206040518263ffffffff1660e01b81526004016148f99190615cf9565b60206040518083038186803b1580156149125760006000fd5b505afa158015614927573d600060003e3d6000fd5b505050506040513d601f19601f8201168201806040525081019061494b9190615316565b15151561498d576040517f08c379a000000000000000000000000000000000000000000000000000000000815260040161498490616551565b60405180910390fd5b7f000000000000000000000000000000000000000000000000000000000000000073ffffffffffffffffffffffffffffffffffffffff16630e70eace858585856040518563ffffffff1660e01b81526004016149ec949392919061591c565b602060405180830381600087803b158015614a075760006000fd5b505af1158015614a1c573d600060003e3d6000fd5b505050506040513d601f19601f82011682018060405250810190614a40919061533d565b505b50505050565b60007701000000000000000000000000000000000000000000000082101515614aa6576040517f08c379a0000000000000000000000000000000000000000000000000000000008152600401614a9d90616943565b60405180910390fd5b819050614aae565b919050565b600081805190602001209050614ac4565b919050565b60006000823b905060008111915050614ade56505b919050565b604051806101e001604052806060815260200160608152602001606081526020016060815260200160608152602001600073ffffffffffffffffffffffffffffffffffffffff168152602001600065ffffffffffff168152602001600065ffffffffffff16815260200160006fffffffffffffffffffffffffffffffff168152602001600065ffffffffffff168152602001600065ffffffffffff16815260200160001515815260200160001515815260200160006fffffffffffffffffffffffffffffffff16815260200160006fffffffffffffffffffffffffffffffff1681526020015090565b6040518060800160405280600015158152602001600015158152602001600015158152602001600076ffffffffffffffffffffffffffffffffffffffffffffff1681526020015090565b828054828255906000526020600020908101928215614c8f579160200282015b82811115614c8e5782518260006101000a81548173ffffffffffffffffffffffffffffffffffffffff021916908373ffffffffffffffffffffffffffffffffffffffff16021790555091602001919060010190614c36565b5b509050614c9c9190614df3565b5090565b828054828255906000526020600020908101928215614cef579160200282015b82811115614cee578251829080519060200190614cde929190614d60565b5091602001919060010190614cc0565b5b509050614cfc9190614e16565b5090565b828054828255906000526020600020908101928215614d4f579160200282015b82811115614d4e578251829080519060200190614d3e929190614e3e565b5091602001919060010190614d20565b5b509050614d5c9190614ed1565b5090565b828054600181600116156101000203166002900490600052602060002090601f016020900481019282614d965760008555614de2565b82601f10614daf57805160ff1916838001178555614de2565b82800160010185558215614de2579182015b82811115614de15782518260005090905591602001919060010190614dc1565b5b509050614def9190614df3565b5090565b614df8565b80821115614e125760008181506000905550600101614df8565b5090565b614e1b565b80821115614e3a5760008181614e319190614ef9565b50600101614e1b565b5090565b828054600181600116156101000203166002900490600052602060002090601f016020900481019282614e745760008555614ec0565b82601f10614e8d57805160ff1916838001178555614ec0565b82800160010185558215614ec0579182015b82811115614ebf5782518260005090905591602001919060010190614e9f565b5b509050614ecd9190614df3565b5090565b614ed6565b80821115614ef55760008181614eec9190614f41565b50600101614ed6565b5090565b50805460018160011615610100020316600290046000825580601f10614f1f5750614f3e565b601f016020900490600052602060002090810190614f3d9190614df3565b5b50565b50805460018160011615610100020316600290046000825580601f10614f675750614f86565b601f016020900490600052602060002090810190614f859190614df3565b5b5056616b1d565b6000614fa0614f9b84616a54565b616a06565b9050828152838383011115614fb55760006000fd5b828260208301376000602084830101525b9392505050565b600082601f8301121515614fdf578081fd5b81356020614ff4614fef83616a31565b616a06565b80838252828201915082860187848587028901011115615012578586fd5b855b8581101561504157813561502781616adf565b80855250848401935084820191505b600181019050615014565b5050809450505050505b92915050565b600082601f8301121515615063578081fd5b8135602061507861507383616a31565b616a06565b808382528282019150828601855b858110156150cc578135880189603f82011215156150a2578788fd5b6150b38a8783013560408401614f8d565b855250848401935084820191505b600181019050615086565b5050809450505050505b92915050565b600082601f83011215156150ee578081fd5b813560206151036150fe83616a31565b616a06565b808382528282019150828601855b8581101561514057615128898684358b0101615150565b8452848401935084820191505b600181019050615111565b5050809450505050505b92915050565b600082601f8301121515615162578081fd5b61517183833560208501614f8d565b90505b92915050565b60006020828403121561518b578081fd5b813561519681616adf565b809150505b92915050565b60006000604083850312156151b4578081fd5b82516151bf81616adf565b80925050602083015190505b9250929050565b6000600060006000600060a086880312156151eb578081fd5b853567ffffffffffffffff80821115615202578283fd5b61520e89838a01614fcd565b96506020880135915080821115615223578283fd5b61522f89838a016150dc565b95506040880135915080821115615244578283fd5b61525089838a01615051565b94506060880135915080821115615265578283fd5b61527189838a01615150565b93506080880135915080821115615286578283fd5b5061529388828901615150565b9150505b9295509295909350565b60006000602083850312156152b4578182fd5b823567ffffffffffffffff808211156152cb578384fd5b818501915085601f83011215156152e0578384fd5b8135818111156152ee578485fd5b866020602083028501011115615302578485fd5b6020830194508093505050505b9250929050565b600060208284031215615327578081fd5b815161533281616b08565b809150505b92915050565b60006020828403121561534e578081fd5b815190505b92915050565b60006020828403121561536a578081fd5b815167ffffffffffffffff811115615380578182fd5b808301905083601f8201121515615395578182fd5b80516153a86153a382616a54565b616a06565b8181528560208385010111156153bc578384fd5b6153cd826020830160208601616aaa565b8093505050505b92915050565b60006000604083850312156153ed578182fd5b82356153f881616adf565b80925050602083013590505b9250929050565b60006020828403121561541c578081fd5b813590505b92915050565b600060208284031215615438578081fd5b815190505b92915050565b6000600060408385031215615456578182fd5b82359150602083013561546881616adf565b809150505b9250929050565b6000600060408385031215615487578182fd5b82359150602083013561549981616b08565b809150505b9250929050565b6000600060006000600060a086880312156154be578283fd5b8535945060208601356154d081616b08565b80945050604086013560ff8116811415156154e9578384fd5b8093505060608601359150608086013590505b9295509295909350565b73ffffffffffffffffffffffffffffffffffffffff811682525b5050565b6000815180845260208085019450808401835b8381101561556f5773ffffffffffffffffffffffffffffffffffffffff8251168752828701965082820191505b600181019050615537565b505050508290505b92915050565b6000815180845260208085018081965082840281019150828601855b858110156155c95782840389526155b1848351615678565b9350848201915084890198505b600181019050615599565b5050508093505050505b92915050565b6000815180845260208085019450808401835b83811015615615576155ff87835161576a565b828701965082820191505b6001810190506155ec565b505050508290505b92915050565b6000815180845260208085019450808401835b838110156156605761564987835161577e565b60808701965082820191505b600181019050615636565b505050508290505b92915050565b80151582525b5050565b60008151808452615690816020860160208601616aaa565b60207fffffffffffffffffffffffffffffffffffffffffffffffffffffffffffffffe0601f8301168501019150505b92915050565b600081546001808216600081146156e3576001811461571f57615760565b607f600284041686527fffffffffffffffffffffffffffffffffffffffffffffffffffffffffffffff0083166020870152604086019350615760565b6002830480875261572f86616a99565b60005b828110156157545781546020828b01015284820191505b602081019050615732565b6020818a010196505050505b5050505b92915050565b60088110151561577657fe5b8082525b5050565b80511515825260208101511515602083015260408101511515604083015276ffffffffffffffffffffffffffffffffffffffffffffff60608201511660608301525b5050565b6fffffffffffffffffffffffffffffffff811682525b5050565b65ffffffffffff811682525b5050565b600080835460018082166000811461580d576001811461584257615878565b7fffffffffffffffffffffffffffffffffffffffffffffffffffffffffffffff0083168652607f600284041686019350615878565b600283048786526020808720875b8381101561586e578154818b015285820191505b8281019050615850565b5050508087019450505b505050809150505b92915050565b60007f190100000000000000000000000000000000000000000000000000000000000082528360028301528260228301526042820190505b9392505050565b600060208201905073ffffffffffffffffffffffffffffffffffffffff831682525b92915050565b600060408201905073ffffffffffffffffffffffffffffffffffffffff841682528260208301525b9392505050565b600073ffffffffffffffffffffffffffffffffffffffff861682526080602083015261594b6080830186615678565b828103604084015261595d8186615678565b9150508260608301525b95945050505050565b600073ffffffffffffffffffffffffffffffffffffffff861682526080602083015261599f60808301866156c5565b82810360408401526159b181866156c5565b91505065ffffffffffff831660608301525b95945050505050565b600060408201905073ffffffffffffffffffffffffffffffffffffffff841682528260208301525b9392505050565b600060808201905073ffffffffffffffffffffffffffffffffffffffff80871683528560208401528085166040840152508260608301525b95945050505050565b600060608201905073ffffffffffffffffffffffffffffffffffffffff8516825283602083015282151560408301525b949350505050565b600060408201905073ffffffffffffffffffffffffffffffffffffffff8416825265ffffffffffff831660208301525b9392505050565b600060608252615abe6060830186615524565b8281036020840152615ad0818661557d565b90508281036040840152615ae4818561557d565b9150505b949350505050565b60006060808301818452808751808352608092508286019150602083818302880101818b01875b84811015615cad577fffffffffffffffffffffffffffffffffffffffffffffffffffffffffffffff808a840301865281516101e08151818652615b5c82870182615524565b9150508582015185820387870152615b74828261557d565b91505060408083015186830382880152615b8e838261557d565b92505050898201518582038b870152615ba78282615678565b915050888201518582038a870152615bbf8282615678565b91505060a080830151615bd482880182615506565b505060c080830151615be8828801826157de565b505060e080830151615bfc828801826157de565b505061010080830151615c11828801826157c4565b505061012080830151615c26828801826157de565b505061014080830151615c3b828801826157de565b505061016080830151615c508288018261566e565b505061018080830151615c658288018261566e565b50506101a080830151615c7a828801826157c4565b50506101c0808301519250615c91818701846157c4565b508094505050838201915083860195505b600181019050615b17565b505087810382890152615cc0818b6155d9565b955050505050508281036040840152615cd98185615623565b9150505b949350505050565b600060208201905082151582525b92915050565b60006020820190508282525b92915050565b600060808201905085825284602083015283604083015273ffffffffffffffffffffffffffffffffffffffff831660608301525b95945050505050565b600060608201905084825283602083015282151560408301525b949350505050565b600060808201905085825260ff851660208301528360408301528260608301525b95945050505050565b600060208201905073ffffffffffffffffffffffffffffffffffffffff831682525b92915050565b600060208201905073ffffffffffffffffffffffffffffffffffffffff831682525b92915050565b600060208201905073ffffffffffffffffffffffffffffffffffffffff831682525b92915050565b6000602082019050615e1e828461576a565b5b92915050565b600060208252615e386020830184615678565b90505b92915050565b60006101808252615e5661018083018f615678565b8281036020840152615e68818f615678565b91505073ffffffffffffffffffffffffffffffffffffffff8c16604083015265ffffffffffff808c166060840152808b166080840152506fffffffffffffffffffffffffffffffff891660a0830152615ec460c08301896157de565b615ed160e08301886157de565b615edf61010083018761566e565b615eed61012083018661566e565b615efb6101408301856157c4565b615f096101608301846157c4565b5b9d9c50505050505050505050505050565b600060208252604460208301527f476f7665726e6f72416c7068613a3a71756575653a2070726f706f73616c206360408301527f616e206f6e6c792062652071756575656420696620697420697320737563636560608301527f6564656400000000000000000000000000000000000000000000000000000000608083015260a0820190505b919050565b600060208252604560208301527f476f7665726e6f72416c7068613a3a657865637574653a2070726f706f73616c60408301527f2063616e206f6e6c79206265206578656375746564206966206974206973207160608301527f7565756564000000000000000000000000000000000000000000000000000000608083015260a0820190505b919050565b600060208252601a60208301527f496e73756666696369656e7420616761696e737420766f74657300000000000060408301526060820190505b919050565b600060208252601560208301527f50726f706f73616c206e6f7420636f6d706c657465000000000000000000000060408301526060820190505b919050565b600060208252601060208301527f457863656564732031323820626974730000000000000000000000000000000060408301526060820190505b919050565b600060208252602960208301527f476f7665726e6f72416c7068613a3a73746174653a20696e76616c696420707260408301527f6f706f73616c206964000000000000000000000000000000000000000000000060608301526080820190505b919050565b600060208252600d60208301527f486173206e6f7420766f7465640000000000000000000000000000000000000060408301526060820190505b919050565b600060208252601660208301527f496e73756666696369656e7420666f7220766f7465730000000000000000000060408301526060820190505b919050565b600060208252600e60208301527f4e6f7420417574686f72697a656400000000000000000000000000000000000060408301526060820190505b919050565b600060208252602d60208301527f476f7665726e6f72416c7068613a3a5f63617374566f74653a20766f7465722060408301527f616c726561647920766f7465640000000000000000000000000000000000000060608301526080820190505b919050565b600060208252601360208301527f4e6f742061206d6574612070726f706f73616c0000000000000000000000000060408301526060820190505b919050565b600060208252605960208301527f476f7665726e6f72416c7068613a3a70726f706f73653a206f6e65206c69766560408301527f2070726f706f73616c207065722070726f706f7365722c20666f756e6420616e60608301527f20616c72656164792070656e64696e672070726f706f73616c00000000000000608083015260a0820190505b919050565b600060208252602860208301527f476f7665726e6f72416c7068613a3a70726f706f73653a20746f6f206d616e7960408301527f20616374696f6e7300000000000000000000000000000000000000000000000060608301526080820190505b919050565b600060208252601160208301527f6164646974696f6e206f766572666c6f7700000000000000000000000000000060408301526060820190505b919050565b600060208252600f60208301527f416c726561647920636c61696d6564000000000000000000000000000000000060408301526060820190505b919050565b600060208252604460208301527f476f7665726e6f72416c7068613a3a70726f706f73653a2070726f706f73616c60408301527f2066756e6374696f6e20696e666f726d6174696f6e206172697479206d69736d60608301527f6174636800000000000000000000000000000000000000000000000000000000608083015260a0820190505b919050565b600060208252602f60208301527f476f7665726e6f72416c7068613a3a63616e63656c3a2070726f706f7365722060408301527f61626f7665207468726573686f6c64000000000000000000000000000000000060608301526080820190505b919050565b600060208252601860208301527f5265776172647320616c7265616479207265636569766564000000000000000060408301526060820190505b919050565b600060208252604460208301527f476f7665726e6f72416c7068613a3a5f71756575654f725265766572743a207060408301527f726f706f73616c20616374696f6e20616c72656164792071756575656420617460608301527f2065746100000000000000000000000000000000000000000000000000000000608083015260a0820190505b919050565b600060208252602560208301527f43616e742063616e63656c20616674657220766f74696e6720697320636f6d7060408301527f6c6574656400000000000000000000000000000000000000000000000000000060608301526080820190505b919050565b600060208252600e60208301527f4e6f74206120636f6e747261637400000000000000000000000000000000000060408301526060820190505b919050565b600060208252602c60208301527f476f7665726e6f72416c7068613a3a70726f706f73653a206d7573742070726f60408301527f7669646520616374696f6e73000000000000000000000000000000000000000060608301526080820190505b919050565b600060208252603f60208301527f476f7665726e6f72416c7068613a3a70726f706f73653a2070726f706f73657260408301527f20766f7465732062656c6f772070726f706f73616c207468726573686f6c640060608301526080820190505b919050565b600060208252602f60208301527f476f7665726e6f72416c7068613a3a63617374566f746542795369673a20696e60408301527f76616c6964207369676e6174757265000000000000000000000000000000000060608301526080820190505b919050565b600060208252605860208301527f476f7665726e6f72416c7068613a3a70726f706f73653a206f6e65206c69766560408301527f2070726f706f73616c207065722070726f706f7365722c20666f756e6420616e60608301527f20616c7265616479206163746976652070726f706f73616c0000000000000000608083015260a0820190505b919050565b600060208252600f60208301527f457863656564732034382062697473000000000000000000000000000000000060408301526060820190505b919050565b600060208252603660208301527f476f7665726e6f72416c7068613a3a63616e63656c3a2063616e6e6f7420636160408301527f6e63656c2065786563757465642070726f706f73616c0000000000000000000060608301526080820190505b919050565b600060208252602a60208301527f476f7665726e6f72416c7068613a3a5f63617374566f74653a20766f74696e6760408301527f20697320636c6f7365640000000000000000000000000000000000000000000060608301526080820190505b919050565b600060208252601060208301527f457863656564732031383420626974730000000000000000000000000000000060408301526060820190505b919050565b600060208252601560208301527f7375627472616374696f6e20756e646572666c6f77000000000000000000000060408301526060820190505b919050565b60006080820190506169d3828461577e565b5b92915050565b60006020820190508282525b92915050565b600060208201905065ffffffffffff831682525b92915050565b6000604051905081810181811067ffffffffffffffff82111715616a2657fe5b80604052505b919050565b600067ffffffffffffffff821115616a4557fe5b6020602083020190505b919050565b600067ffffffffffffffff821115616a6857fe5b60207fffffffffffffffffffffffffffffffffffffffffffffffffffffffffffffffe0601f8401160190505b919050565b60008181526020812090505b919050565b60005b83811015616ac95780820151818401525b602081019050616aad565b83811115616ad8576000848401525b505b505050565b73ffffffffffffffffffffffffffffffffffffffff811681141515616b045760006000fd5b5b50565b80151581141515616b195760006000fd5b5b50565bfea26469706673582212200617ba073c948be593e98f89c0a745182c77a4dd871e2d464f8ba5ab9479557664736f6c63430007060033",
  "linkReferences": {},
  "deployedLinkReferences": {}
}