{
  "_format": "hh-sol-artifact-1",
  "contractName": "TcpTimelock",
  "sourceName": "contracts/core/governance/TcpTimelock.sol",
  "abi": [
    {
      "inputs": [
        {
          "components": [
            {
              "internalType": "contract IGovernor",
              "name": "Governor",
              "type": "address"
            },
            {
              "internalType": "address",
              "name": "Guardian",
              "type": "address"
            }
          ],
          "internalType": "struct TcpTimelock.ConstructorParams",
          "name": "params",
          "type": "tuple"
        }
      ],
      "stateMutability": "nonpayable",
      "type": "constructor"
    },
    {
      "anonymous": false,
      "inputs": [
        {
          "indexed": true,
          "internalType": "bytes32",
          "name": "txHash",
          "type": "bytes32"
        },
        {
          "indexed": true,
          "internalType": "address",
          "name": "target",
          "type": "address"
        },
        {
          "indexed": false,
          "internalType": "string",
          "name": "signature",
          "type": "string"
        },
        {
          "indexed": false,
          "internalType": "bytes",
          "name": "data",
          "type": "bytes"
        },
        {
          "indexed": false,
          "internalType": "uint256",
          "name": "eta",
          "type": "uint256"
        }
      ],
      "name": "CancelTransaction",
      "type": "event"
    },
    {
      "anonymous": false,
      "inputs": [
        {
          "indexed": true,
          "internalType": "bytes32",
          "name": "txHash",
          "type": "bytes32"
        },
        {
          "indexed": true,
          "internalType": "address",
          "name": "target",
          "type": "address"
        },
        {
          "indexed": false,
          "internalType": "string",
          "name": "signature",
          "type": "string"
        },
        {
          "indexed": false,
          "internalType": "bytes",
          "name": "data",
          "type": "bytes"
        },
        {
          "indexed": false,
          "internalType": "uint256",
          "name": "eta",
          "type": "uint256"
        }
      ],
      "name": "ExecuteTransaction",
      "type": "event"
    },
    {
      "anonymous": false,
      "inputs": [
        {
          "indexed": true,
          "internalType": "address",
          "name": "newAdmin",
          "type": "address"
        }
      ],
      "name": "NewAdmin",
      "type": "event"
    },
    {
      "anonymous": false,
      "inputs": [
        {
          "indexed": true,
          "internalType": "uint256",
          "name": "newDelay",
          "type": "uint256"
        }
      ],
      "name": "NewDelay",
      "type": "event"
    },
    {
      "anonymous": false,
      "inputs": [
        {
          "indexed": true,
          "internalType": "address",
          "name": "newPendingAdmin",
          "type": "address"
        }
      ],
      "name": "NewPendingAdmin",
      "type": "event"
    },
    {
      "anonymous": false,
      "inputs": [
        {
          "indexed": true,
          "internalType": "bytes32",
          "name": "txHash",
          "type": "bytes32"
        },
        {
          "indexed": true,
          "internalType": "address",
          "name": "target",
          "type": "address"
        },
        {
          "indexed": false,
          "internalType": "string",
          "name": "signature",
          "type": "string"
        },
        {
          "indexed": false,
          "internalType": "bytes",
          "name": "data",
          "type": "bytes"
        },
        {
          "indexed": false,
          "internalType": "uint256",
          "name": "eta",
          "type": "uint256"
        }
      ],
      "name": "QueueTransaction",
      "type": "event"
    },
    {
      "inputs": [],
      "name": "GRACE_PERIOD",
      "outputs": [
        {
          "internalType": "uint256",
          "name": "",
          "type": "uint256"
        }
      ],
      "stateMutability": "view",
      "type": "function"
    },
    {
      "inputs": [],
      "name": "MAXIMUM_DELAY",
      "outputs": [
        {
          "internalType": "uint256",
          "name": "",
          "type": "uint256"
        }
      ],
      "stateMutability": "view",
      "type": "function"
    },
    {
      "inputs": [],
      "name": "MINIMUM_DELAY",
      "outputs": [
        {
          "internalType": "uint256",
          "name": "",
          "type": "uint256"
        }
      ],
      "stateMutability": "view",
      "type": "function"
    },
    {
      "inputs": [],
      "name": "admin",
      "outputs": [
        {
          "internalType": "address",
          "name": "",
          "type": "address"
        }
      ],
      "stateMutability": "view",
      "type": "function"
    },
    {
      "inputs": [
        {
          "internalType": "address",
          "name": "target",
          "type": "address"
        },
        {
          "internalType": "string",
          "name": "signature",
          "type": "string"
        },
        {
          "internalType": "bytes",
          "name": "data",
          "type": "bytes"
        },
        {
          "internalType": "uint256",
          "name": "eta",
          "type": "uint256"
        }
      ],
      "name": "cancelTransaction",
      "outputs": [],
      "stateMutability": "nonpayable",
      "type": "function"
    },
    {
      "inputs": [],
      "name": "delay",
      "outputs": [
        {
          "internalType": "uint256",
          "name": "",
          "type": "uint256"
        }
      ],
      "stateMutability": "view",
      "type": "function"
    },
    {
      "inputs": [],
      "name": "deployer",
      "outputs": [
        {
          "internalType": "address",
          "name": "",
          "type": "address"
        }
      ],
      "stateMutability": "view",
      "type": "function"
    },
    {
      "inputs": [
        {
          "internalType": "address",
          "name": "target",
          "type": "address"
        },
        {
          "internalType": "string",
          "name": "signature",
          "type": "string"
        },
        {
          "internalType": "bytes",
          "name": "data",
          "type": "bytes"
        },
        {
          "internalType": "uint256",
          "name": "eta",
          "type": "uint256"
        }
      ],
      "name": "executeTransaction",
      "outputs": [
        {
          "internalType": "bytes",
          "name": "returnData",
          "type": "bytes"
        }
      ],
      "stateMutability": "nonpayable",
      "type": "function"
    },
    {
      "inputs": [],
      "name": "getAdmin",
      "outputs": [
        {
          "internalType": "address",
          "name": "",
          "type": "address"
        }
      ],
      "stateMutability": "view",
      "type": "function"
    },
    {
      "inputs": [],
      "name": "guardian",
      "outputs": [
        {
          "internalType": "address",
          "name": "",
          "type": "address"
        }
      ],
      "stateMutability": "view",
      "type": "function"
    },
    {
      "inputs": [
        {
          "internalType": "address",
          "name": "_admin",
          "type": "address"
        }
      ],
      "name": "init",
      "outputs": [],
      "stateMutability": "nonpayable",
      "type": "function"
    },
    {
      "inputs": [
        {
          "internalType": "address",
          "name": "target",
          "type": "address"
        },
        {
          "internalType": "string",
          "name": "signature",
          "type": "string"
        },
        {
          "internalType": "bytes",
          "name": "data",
          "type": "bytes"
        },
        {
          "internalType": "uint256",
          "name": "eta",
          "type": "uint256"
        }
      ],
      "name": "queueTransaction",
      "outputs": [
        {
          "internalType": "bytes32",
          "name": "",
          "type": "bytes32"
        }
      ],
      "stateMutability": "nonpayable",
      "type": "function"
    },
    {
      "inputs": [
        {
          "internalType": "bytes32",
          "name": "",
          "type": "bytes32"
        }
      ],
      "name": "queuedTransactions",
      "outputs": [
        {
          "internalType": "bool",
          "name": "",
          "type": "bool"
        }
      ],
      "stateMutability": "view",
      "type": "function"
    },
    {
      "inputs": [
        {
          "internalType": "uint256",
          "name": "delay_",
          "type": "uint256"
        }
      ],
      "name": "setDelay",
      "outputs": [],
      "stateMutability": "nonpayable",
      "type": "function"
    },
    {
      "inputs": [
        {
          "internalType": "bytes4",
          "name": "action",
          "type": "bytes4"
        }
      ],
      "name": "validUpdate",
      "outputs": [
        {
          "internalType": "bool",
          "name": "",
          "type": "bool"
        }
      ],
      "stateMutability": "pure",
      "type": "function"
    }
  ],
  "bytecode": "0x60c0604052348015620000125760006000fd5b5060405162001c2c38038062001c2c83398181016040528101906200003891906200020c565b5b6202a30081600001515b62000054826200011260201b60201c565b8073ffffffffffffffffffffffffffffffffffffffff1660808173ffffffffffffffffffffffffffffffffffffffff168152602001505033600360006101000a81548173ffffffffffffffffffffffffffffffffffffffff021916908373ffffffffffffffffffffffffffffffffffffffff1602179055505b5050806020015173ffffffffffffffffffffffffffffffffffffffff1660a08173ffffffffffffffffffffffffffffffffffffffff16815260200150505b5062000354565b6201518081101515156200015d576040517f08c379a0000000000000000000000000000000000000000000000000000000008152600401620001549062000289565b60405180910390fd5b621275008111151515620001a8576040517f08c379a00000000000000000000000000000000000000000000000000000000081526004016200019f90620002ee565b60405180910390fd5b8060016000508190909055506001600050547f948b1f6a42ee138b7e34058ba85a37f716d55ff25ff05a763f15bed6a04c8d2c60405160405180910390a25b505662000353565b6001600160a01b03811681141515620002085760006000fd5b505b565b600060408284031215620002205760006000fd5b604051604081018181106001600160401b03821117156200025157634e487b7160e01b600052604160045260246000fd5b806040525082516200026381620001ef565b8082525060208301516200027781620001ef565b80602083015250809150505b92915050565b60208152603460208201527f54696d656c6f636b3a3a73657444656c61793a2044656c6179206d757374206560408201527f7863656564206d696e696d756d2064656c61792e000000000000000000000000606082015260006080820190505b919050565b60208152603860208201527f54696d656c6f636b3a3a73657444656c61793a2044656c6179206d757374206e60408201527f6f7420657863656564206d6178696d756d2064656c61792e0000000000000000606082015260006080820190505b919050565b5b60805160a05161189d6200038f60003960008181610a790152610b6a01526000818161092701528181610aaa0152610bd1015261189d6000f3fe60806040523480156100115760006000fd5b50600436106100f95760003560e01c80636e9960c311610098578063d5f3948811610067578063d5f394881461027b578063e177246e14610299578063f2b06537146102b5578063f851a440146102e5576100f9565b80636e9960c3146102035780637d645fab14610221578063b1b43ae51461023f578063c1a287e21461025d576100f9565b806319ab453c116100d457806319ab453c1461017b5780633ec5ab3214610197578063452a9320146101c75780636a42b8f8146101e5576100f9565b80624b1f12146100ff5780630e70eace1461011b578063113cf1ab1461014b576100f9565b60006000fd5b61011960048036038101906101149190610f4c565b610303565b005b61013560048036038101906101309190610f4c565b610447565b6040516101429190611004565b60405180910390f35b61016560048036038101906101609190611016565b6105fc565b6040516101729190611067565b60405180910390f35b6101956004803603810190610190919061107b565b610652565b005b6101b160048036038101906101ac9190610f4c565b610719565b6040516101be9190611122565b60405180910390f35b6101cf610a77565b6040516101dc919061113e565b60405180910390f35b6101ed610a9b565b6040516101fa9190611166565b60405180910390f35b61020b610aa4565b604051610218919061113e565b60405180910390f35b610229610b94565b6040516102369190611166565b60405180910390f35b610247610b9b565b6040516102549190611166565b60405180910390f35b610265610ba2565b6040516102729190611166565b60405180910390f35b610283610ba9565b604051610290919061113e565b60405180910390f35b6102b360048036038101906102ae9190611178565b610bcf565b005b6102cf60048036038101906102ca9190611196565b610c72565b6040516102dc9190611067565b60405180910390f35b6102ed610c97565b6040516102fa919061113e565b60405180910390f35b610311610aa463ffffffff16565b73ffffffffffffffffffffffffffffffffffffffff163373ffffffffffffffffffffffffffffffffffffffff16141515610380576040517f08c379a0000000000000000000000000000000000000000000000000000000008152600401610377906111b4565b60405180910390fd5b6000848484846040516020016103999493929190611219565b604051602081830303815290604052805190602001209050600060026000506000836000191660001916815260200190815260200160002060006101000a81548160ff0219169083151502179055508473ffffffffffffffffffffffffffffffffffffffff1681600019167f39805be0099a319b88cf17675318997e223b45eef7836c0bdfa20b4009e67cc68686866040516104379392919061126d565b60405180910390a3505b50505050565b6000610457610aa463ffffffff16565b73ffffffffffffffffffffffffffffffffffffffff163373ffffffffffffffffffffffffffffffffffffffff161415156104c6576040517f08c379a00000000000000000000000000000000000000000000000000000000081526004016104bd906112a4565b60405180910390fd5b6104e86104d7610cbd63ffffffff16565b600160005054610cca63ffffffff16565b821015151561052c576040517f08c379a000000000000000000000000000000000000000000000000000000000815260040161052390611309565b60405180910390fd5b6000858585856040516020016105459493929190611219565b604051602081830303815290604052805190602001209050600160026000506000836000191660001916815260200190815260200160002060006101000a81548160ff0219169083151502179055508573ffffffffffffffffffffffffffffffffffffffff1681600019167ed038d9209423c0ba06a7d606d7a0eeafe97cb5bdb3a9dd5b35c019b0966a958787876040516105e29392919061126d565b60405180910390a3809150506105f456505b949350505050565b600063e177246e60e01b7bffffffffffffffffffffffffffffffffffffffffffffffffffffffff1916827bffffffffffffffffffffffffffffffffffffffffffffffffffffffff191614905061064d565b919050565b600360009054906101000a900473ffffffffffffffffffffffffffffffffffffffff1673ffffffffffffffffffffffffffffffffffffffff163373ffffffffffffffffffffffffffffffffffffffff161415156106af5760006000fd5b600360006101000a81549073ffffffffffffffffffffffffffffffffffffffff021916905580600060006101000a81548173ffffffffffffffffffffffffffffffffffffffff021916908373ffffffffffffffffffffffffffffffffffffffff1602179055505b50565b6060610729610aa463ffffffff16565b73ffffffffffffffffffffffffffffffffffffffff163373ffffffffffffffffffffffffffffffffffffffff16141515610798576040517f08c379a000000000000000000000000000000000000000000000000000000000815260040161078f90611394565b60405180910390fd5b6000858585856040516020016107b19493929190611219565b60405160208183030381529060405280519060200120905060026000506000826000191660001916815260200190815260200160002060009054906101000a900460ff161515610836576040517f08c379a000000000000000000000000000000000000000000000000000000000815260040161082d906113f9565b60405180910390fd5b82610845610cbd63ffffffff16565b10151515610888576040517f08c379a000000000000000000000000000000000000000000000000000000000815260040161087f9061145e565b60405180910390fd5b61089b8362093a80610cca63ffffffff16565b6108a9610cbd63ffffffff16565b111515156108ec576040517f08c379a00000000000000000000000000000000000000000000000000000000081526004016108e3906114e9565b60405180910390fd5b600060026000506000836000191660001916815260200190815260200160002060006101000a81548160ff02191690831515021790555060007f000000000000000000000000000000000000000000000000000000000000000073ffffffffffffffffffffffffffffffffffffffff166333daf5d48888886040518463ffffffff1660e01b81526004016109829392919061154e565b6000604051808303816000875af11580156109a2573d600060003e3d6000fd5b505050506040513d6000823e3d601f19601f820116820180604052508101906109cb919061159b565b8094508192505050801515610a15576040517f08c379a0000000000000000000000000000000000000000000000000000000008152600401610a0c90611641565b60405180910390fd5b8673ffffffffffffffffffffffffffffffffffffffff1682600019167f73bcadb73827ad9a900198359278e77086ae03e9e17ef173ad7de9e7e39acaff888888604051610a649392919061126d565b60405180910390a350505b949350505050565b7f000000000000000000000000000000000000000000000000000000000000000081565b60016000505481565b600060007f000000000000000000000000000000000000000000000000000000000000000073ffffffffffffffffffffffffffffffffffffffff1663055ad42e6040518163ffffffff1660e01b8152600401602060405180830381865afa158015610b14573d600060003e3d6000fd5b505050506040513d601f19601f82011682018060405250810190610b3891906116a6565b60ff1614610b6857600060009054906101000a900473ffffffffffffffffffffffffffffffffffffffff16610b8a565b7f00000000000000000000000000000000000000000000000000000000000000005b9050610b91565b90565b6212750081565b6201518081565b62093a8081565b600360009054906101000a900473ffffffffffffffffffffffffffffffffffffffff1681565b7f000000000000000000000000000000000000000000000000000000000000000073ffffffffffffffffffffffffffffffffffffffff163373ffffffffffffffffffffffffffffffffffffffff16141515610c5f576040517f08c379a0000000000000000000000000000000000000000000000000000000008152600401610c56906116d8565b60405180910390fd5b610c6e81610d3163ffffffff16565b5b50565b600260005060205280600052604060002060009150909054906101000a900460ff1681565b600060009054906101000a900473ffffffffffffffffffffffffffffffffffffffff1681565b6000429050610cc7565b90565b600060008284610cda9190611717565b9050838110151515610d21576040517f08c379a0000000000000000000000000000000000000000000000000000000008152600401610d189061175d565b60405180910390fd5b80915050610d2b56505b92915050565b620151808110151515610d79576040517f08c379a0000000000000000000000000000000000000000000000000000000008152600401610d709061179c565b60405180910390fd5b621275008111151515610dc1576040517f08c379a0000000000000000000000000000000000000000000000000000000008152600401610db890611801565b60405180910390fd5b8060016000508190909055506001600050547f948b1f6a42ee138b7e34058ba85a37f716d55ff25ff05a763f15bed6a04c8d2c60405160405180910390a25b5056611866565b60008135905073ffffffffffffffffffffffffffffffffffffffff811681141515610e325760006000fd5b5b919050565b7f4e487b7100000000000000000000000000000000000000000000000000000000600052604160045260246000fd5b565b600060405190507fffffffffffffffffffffffffffffffffffffffffffffffffffffffffffffffe0601f830116810181811067ffffffffffffffff82111715610eb557610eb4610e38565b5b80604052505b919050565b600067ffffffffffffffff821115610edb57610eda610e38565b5b60207fffffffffffffffffffffffffffffffffffffffffffffffffffffffffffffffe0601f8401160190505b919050565b6000610f1f610f1a84610ec0565b610e69565b9050828152838383011115610f345760006000fd5b828260208301376000602084830101525b9392505050565b600060006000600060808587031215610f655760006000fd5b610f6e85610e07565b9350602085013567ffffffffffffffff80821115610f8c5760006000fd5b818701915087601f8301121515610fa35760006000fd5b610fb288833560208501610f0c565b94506040870135915080821115610fc95760006000fd5b50808601905086601f8201121515610fe15760006000fd5b610ff087823560208401610f0c565b925050606085013590505b92959194509250565b60006020820190508282525b92915050565b6000602082840312156110295760006000fd5b81357fffffffff0000000000000000000000000000000000000000000000000000000081168114151561105c5760006000fd5b809150505b92915050565b600060208201905082151582525b92915050565b60006020828403121561108e5760006000fd5b61109782610e07565b90505b92915050565b60005b838110156110bf5780820151818401525b6020810190506110a3565b838111156110ce576000848401525b505050505b565b600081518084526110ed8160208601602086016110a0565b60207fffffffffffffffffffffffffffffffffffffffffffffffffffffffffffffffe0601f8301168501019150505b92915050565b60208152600061113560208301846110d5565b90505b92915050565b600060208201905073ffffffffffffffffffffffffffffffffffffffff831682525b92915050565b60006020820190508282525b92915050565b60006020828403121561118b5760006000fd5b813590505b92915050565b6000602082840312156111a95760006000fd5b813590505b92915050565b60208152603760208201527f54696d656c6f636b3a3a63616e63656c5472616e73616374696f6e3a2043616c60408201527f6c206d75737420636f6d652066726f6d2061646d696e2e000000000000000000606082015260006080820190505b919050565b73ffffffffffffffffffffffffffffffffffffffff8516815260806020820152600061124860808301866110d5565b828103604084015261125a81866110d5565b9150508260608301525b95945050505050565b60608152600061128060608301866110d5565b828103602084015261129281866110d5565b9150508260408301525b949350505050565b60208152603660208201527f54696d656c6f636b3a3a71756575655472616e73616374696f6e3a2043616c6c60408201527f206d75737420636f6d652066726f6d2061646d696e2e00000000000000000000606082015260006080820190505b919050565b60208152604960208201527f54696d656c6f636b3a3a71756575655472616e73616374696f6e3a204573746960408201527f6d6174656420657865637574696f6e20626c6f636b206d75737420736174697360608201527f66792064656c61792e00000000000000000000000000000000000000000000006080820152600060a0820190505b919050565b60208152603860208201527f54696d656c6f636b3a3a657865637574655472616e73616374696f6e3a20436160408201527f6c6c206d75737420636f6d652066726f6d2061646d696e2e0000000000000000606082015260006080820190505b919050565b60208152603d60208201527f54696d656c6f636b3a3a657865637574655472616e73616374696f6e3a20547260408201527f616e73616374696f6e206861736e2774206265656e207175657565642e000000606082015260006080820190505b919050565b60208152604560208201527f54696d656c6f636b3a3a657865637574655472616e73616374696f6e3a20547260408201527f616e73616374696f6e206861736e2774207375727061737365642074696d652060608201527f6c6f636b2e0000000000000000000000000000000000000000000000000000006080820152600060a0820190505b919050565b60208152603360208201527f54696d656c6f636b3a3a657865637574655472616e73616374696f6e3a20547260408201527f616e73616374696f6e206973207374616c652e00000000000000000000000000606082015260006080820190505b919050565b73ffffffffffffffffffffffffffffffffffffffff8416815260606020820152600061157d60608301856110d5565b828103604084015261158f81856110d5565b9150505b949350505050565b60006000604083850312156115b05760006000fd5b8251801515811415156115c35760006000fd5b80925050602083015167ffffffffffffffff8111156115e25760006000fd5b808401905084601f82011215156115f95760006000fd5b805161160c61160782610ec0565b610e69565b8181528660208385010111156116225760006000fd5b6116338260208301602086016110a0565b8093505050505b9250929050565b60208152603c60208201527f54696d656c6f636b3a3a657865637574655472616e73616374696f6e3a20547260408201527f616e73616374696f6e20657865637574696f6e20726576657274656400000000606082015260006080820190505b919050565b6000602082840312156116b95760006000fd5b815160ff8116811415156116cd5760006000fd5b809150505b92915050565b60208152601d60208201527f43616c6c206d75737420636f6d652066726f6d206578656375746f722e000000604082015260006060820190505b919050565b60008219821115611751577f4e487b7100000000000000000000000000000000000000000000000000000000600052601160045260246000fd5b82820190505b92915050565b60208152601160208201527f6164646974696f6e206f766572666c6f77000000000000000000000000000000604082015260006060820190505b919050565b60208152603460208201527f54696d656c6f636b3a3a73657444656c61793a2044656c6179206d757374206560408201527f7863656564206d696e696d756d2064656c61792e000000000000000000000000606082015260006080820190505b919050565b60208152603860208201527f54696d656c6f636b3a3a73657444656c61793a2044656c6179206d757374206e60408201527f6f7420657863656564206d6178696d756d2064656c61792e0000000000000000606082015260006080820190505b919050565bfea264697066735822122023a89f942ab6b23ee1c4c66ec1fbf4e37d1a717e98581ef71b9b2649b9b9c5c264736f6c634300080c0033",
  "linkReferences": {},
  "deployedLinkReferences": {}
}