{
  "_format": "hh-sol-artifact-1",
  "contractName": "TcpTimelock",
  "sourceName": "contracts/core/governance/TcpTimelock.sol",
  "abi": [
    {
      "inputs": [
        {
          "components": [
            {
              "internalType": "contract IGovernor",
              "name": "Governor",
              "type": "address"
            },
            {
              "internalType": "address",
              "name": "Guardian",
              "type": "address"
            }
          ],
          "internalType": "struct TcpTimelock.ConstructorParams",
          "name": "params",
          "type": "tuple"
        }
      ],
      "stateMutability": "nonpayable",
      "type": "constructor"
    },
    {
      "anonymous": false,
      "inputs": [
        {
          "indexed": true,
          "internalType": "bytes32",
          "name": "txHash",
          "type": "bytes32"
        },
        {
          "indexed": true,
          "internalType": "address",
          "name": "target",
          "type": "address"
        },
        {
          "indexed": false,
          "internalType": "string",
          "name": "signature",
          "type": "string"
        },
        {
          "indexed": false,
          "internalType": "bytes",
          "name": "data",
          "type": "bytes"
        },
        {
          "indexed": false,
          "internalType": "uint256",
          "name": "eta",
          "type": "uint256"
        }
      ],
      "name": "CancelTransaction",
      "type": "event"
    },
    {
      "anonymous": false,
      "inputs": [
        {
          "indexed": true,
          "internalType": "bytes32",
          "name": "txHash",
          "type": "bytes32"
        },
        {
          "indexed": true,
          "internalType": "address",
          "name": "target",
          "type": "address"
        },
        {
          "indexed": false,
          "internalType": "string",
          "name": "signature",
          "type": "string"
        },
        {
          "indexed": false,
          "internalType": "bytes",
          "name": "data",
          "type": "bytes"
        },
        {
          "indexed": false,
          "internalType": "uint256",
          "name": "eta",
          "type": "uint256"
        }
      ],
      "name": "ExecuteTransaction",
      "type": "event"
    },
    {
      "anonymous": false,
      "inputs": [
        {
          "indexed": true,
          "internalType": "address",
          "name": "newAdmin",
          "type": "address"
        }
      ],
      "name": "NewAdmin",
      "type": "event"
    },
    {
      "anonymous": false,
      "inputs": [
        {
          "indexed": true,
          "internalType": "uint256",
          "name": "newDelay",
          "type": "uint256"
        }
      ],
      "name": "NewDelay",
      "type": "event"
    },
    {
      "anonymous": false,
      "inputs": [
        {
          "indexed": true,
          "internalType": "address",
          "name": "newPendingAdmin",
          "type": "address"
        }
      ],
      "name": "NewPendingAdmin",
      "type": "event"
    },
    {
      "anonymous": false,
      "inputs": [
        {
          "indexed": true,
          "internalType": "bytes32",
          "name": "txHash",
          "type": "bytes32"
        },
        {
          "indexed": true,
          "internalType": "address",
          "name": "target",
          "type": "address"
        },
        {
          "indexed": false,
          "internalType": "string",
          "name": "signature",
          "type": "string"
        },
        {
          "indexed": false,
          "internalType": "bytes",
          "name": "data",
          "type": "bytes"
        },
        {
          "indexed": false,
          "internalType": "uint256",
          "name": "eta",
          "type": "uint256"
        }
      ],
      "name": "QueueTransaction",
      "type": "event"
    },
    {
      "inputs": [],
      "name": "GRACE_PERIOD",
      "outputs": [
        {
          "internalType": "uint256",
          "name": "",
          "type": "uint256"
        }
      ],
      "stateMutability": "view",
      "type": "function"
    },
    {
      "inputs": [],
      "name": "MAXIMUM_DELAY",
      "outputs": [
        {
          "internalType": "uint256",
          "name": "",
          "type": "uint256"
        }
      ],
      "stateMutability": "view",
      "type": "function"
    },
    {
      "inputs": [],
      "name": "MINIMUM_DELAY",
      "outputs": [
        {
          "internalType": "uint256",
          "name": "",
          "type": "uint256"
        }
      ],
      "stateMutability": "view",
      "type": "function"
    },
    {
      "inputs": [],
      "name": "admin",
      "outputs": [
        {
          "internalType": "address",
          "name": "",
          "type": "address"
        }
      ],
      "stateMutability": "view",
      "type": "function"
    },
    {
      "inputs": [
        {
          "internalType": "address",
          "name": "target",
          "type": "address"
        },
        {
          "internalType": "string",
          "name": "signature",
          "type": "string"
        },
        {
          "internalType": "bytes",
          "name": "data",
          "type": "bytes"
        },
        {
          "internalType": "uint256",
          "name": "eta",
          "type": "uint256"
        }
      ],
      "name": "cancelTransaction",
      "outputs": [],
      "stateMutability": "nonpayable",
      "type": "function"
    },
    {
      "inputs": [],
      "name": "delay",
      "outputs": [
        {
          "internalType": "uint256",
          "name": "",
          "type": "uint256"
        }
      ],
      "stateMutability": "view",
      "type": "function"
    },
    {
      "inputs": [],
      "name": "deployer",
      "outputs": [
        {
          "internalType": "address",
          "name": "",
          "type": "address"
        }
      ],
      "stateMutability": "view",
      "type": "function"
    },
    {
      "inputs": [
        {
          "internalType": "address",
          "name": "target",
          "type": "address"
        },
        {
          "internalType": "string",
          "name": "signature",
          "type": "string"
        },
        {
          "internalType": "bytes",
          "name": "data",
          "type": "bytes"
        },
        {
          "internalType": "uint256",
          "name": "eta",
          "type": "uint256"
        }
      ],
      "name": "executeTransaction",
      "outputs": [
        {
          "internalType": "bytes",
          "name": "returnData",
          "type": "bytes"
        }
      ],
      "stateMutability": "nonpayable",
      "type": "function"
    },
    {
      "inputs": [],
      "name": "getAdmin",
      "outputs": [
        {
          "internalType": "address",
          "name": "",
          "type": "address"
        }
      ],
      "stateMutability": "view",
      "type": "function"
    },
    {
      "inputs": [],
      "name": "guardian",
      "outputs": [
        {
          "internalType": "address",
          "name": "",
          "type": "address"
        }
      ],
      "stateMutability": "view",
      "type": "function"
    },
    {
      "inputs": [
        {
          "internalType": "address",
          "name": "_admin",
          "type": "address"
        }
      ],
      "name": "init",
      "outputs": [],
      "stateMutability": "nonpayable",
      "type": "function"
    },
    {
      "inputs": [
        {
          "internalType": "address",
          "name": "target",
          "type": "address"
        },
        {
          "internalType": "string",
          "name": "signature",
          "type": "string"
        },
        {
          "internalType": "bytes",
          "name": "data",
          "type": "bytes"
        },
        {
          "internalType": "uint256",
          "name": "eta",
          "type": "uint256"
        }
      ],
      "name": "queueTransaction",
      "outputs": [
        {
          "internalType": "bytes32",
          "name": "",
          "type": "bytes32"
        }
      ],
      "stateMutability": "nonpayable",
      "type": "function"
    },
    {
      "inputs": [
        {
          "internalType": "bytes32",
          "name": "",
          "type": "bytes32"
        }
      ],
      "name": "queuedTransactions",
      "outputs": [
        {
          "internalType": "bool",
          "name": "",
          "type": "bool"
        }
      ],
      "stateMutability": "view",
      "type": "function"
    },
    {
      "inputs": [
        {
          "internalType": "uint256",
          "name": "delay_",
          "type": "uint256"
        }
      ],
      "name": "setDelay",
      "outputs": [],
      "stateMutability": "nonpayable",
      "type": "function"
    },
    {
      "inputs": [
        {
          "internalType": "bytes4",
          "name": "action",
          "type": "bytes4"
        }
      ],
      "name": "validUpdate",
      "outputs": [
        {
          "internalType": "bool",
          "name": "",
          "type": "bool"
        }
      ],
      "stateMutability": "pure",
      "type": "function"
    }
  ],
  "bytecode": "0x60c0604052348015620000125760006000fd5b5060405162001c3038038062001c308339818101604052810190620000389190620001f5565b5b6202a30081600001515b62000054826200011860201b60201c565b8073ffffffffffffffffffffffffffffffffffffffff1660808173ffffffffffffffffffffffffffffffffffffffff1660601b8152601401505033600360006101000a81548173ffffffffffffffffffffffffffffffffffffffff021916908373ffffffffffffffffffffffffffffffffffffffff1602179055505b5050806020015173ffffffffffffffffffffffffffffffffffffffff1660a08173ffffffffffffffffffffffffffffffffffffffff1660601b815260140150505b5062000356565b62015180811015151562000163576040517f08c379a00000000000000000000000000000000000000000000000000000000081526004016200015a906200026e565b60405180910390fd5b621275008111151515620001ae576040517f08c379a0000000000000000000000000000000000000000000000000000000008152600401620001a590620002d3565b60405180910390fd5b8060016000508190909055506001600050547f948b1f6a42ee138b7e34058ba85a37f716d55ff25ff05a763f15bed6a04c8d2c60405160405180910390a25b505662000355565b60006040828403121562000207578081fd5b604051604081018181106001600160401b03821117156200023657634e487b7160e01b83526041600452602483fd5b80604052508251620002488162000338565b8082525060208301516200025c8162000338565b80602083015250809150505b92915050565b60208152603460208201527f54696d656c6f636b3a3a73657444656c61793a2044656c6179206d757374206560408201527f7863656564206d696e696d756d2064656c61792e000000000000000000000000606082015260006080820190505b919050565b60208152603860208201527f54696d656c6f636b3a3a73657444656c61793a2044656c6179206d757374206e60408201527f6f7420657863656564206d6178696d756d2064656c61792e0000000000000000606082015260006080820190505b919050565b6001600160a01b03811681141515620003515760006000fd5b505b565b5b60805160601c60a05160601c6118996200039760003960008181610a890152610b8a01526000818161092701528181610aba0152610bf101526118996000f3fe60806040523480156100115760006000fd5b50600436106100f95760003560e01c80636e9960c311610098578063d5f3948811610067578063d5f394881461027b578063e177246e14610299578063f2b06537146102b5578063f851a440146102e5576100f9565b80636e9960c3146102035780637d645fab14610221578063b1b43ae51461023f578063c1a287e21461025d576100f9565b806319ab453c116100d457806319ab453c1461017b5780633ec5ab3214610197578063452a9320146101c75780636a42b8f8146101e5576100f9565b80624b1f12146100ff5780630e70eace1461011b578063113cf1ab1461014b576100f9565b60006000fd5b61011960048036038101906101149190610ebb565b610303565b005b61013560048036038101906101309190610ebb565b610447565b60405161014291906111e2565b60405180910390f35b61016560048036038101906101609190611021565b6105fc565b60405161017291906111ce565b60405180910390f35b61019560048036038101906101909190610e98565b610652565b005b6101b160048036038101906101ac9190610ebb565b610719565b6040516101be91906111f4565b60405180910390f35b6101cf610a87565b6040516101dc9190611105565b60405180910390f35b6101ed610aab565b6040516101fa9190611703565b60405180910390f35b61020b610ab4565b6040516102189190611105565b60405180910390f35b610229610bb4565b6040516102369190611703565b60405180910390f35b610247610bbb565b6040516102549190611703565b60405180910390f35b610265610bc2565b6040516102729190611703565b60405180910390f35b610283610bc9565b6040516102909190611105565b60405180910390f35b6102b360048036038101906102ae919061106e565b610bef565b005b6102cf60048036038101906102ca9190611005565b610c92565b6040516102dc91906111ce565b60405180910390f35b6102ed610cb7565b6040516102fa9190611105565b60405180910390f35b610311610ab463ffffffff16565b73ffffffffffffffffffffffffffffffffffffffff163373ffffffffffffffffffffffffffffffffffffffff16141515610380576040517f08c379a000000000000000000000000000000000000000000000000000000000815260040161037790611311565b60405180910390fd5b600084848484604051602001610399949392919061117a565b604051602081830303815290604052805190602001209050600060026000506000836000191660001916815260200190815260200160002060006101000a81548160ff0219169083151502179055508473ffffffffffffffffffffffffffffffffffffffff1681600019167f39805be0099a319b88cf17675318997e223b45eef7836c0bdfa20b4009e67cc686868660405161043793929190611210565b60405180910390a3505b50505050565b6000610457610ab463ffffffff16565b73ffffffffffffffffffffffffffffffffffffffff163373ffffffffffffffffffffffffffffffffffffffff161415156104c6576040517f08c379a00000000000000000000000000000000000000000000000000000000081526004016104bd90611613565b60405180910390fd5b6104e86104d7610cdd63ffffffff16565b600160005054610cea63ffffffff16565b821015151561052c576040517f08c379a000000000000000000000000000000000000000000000000000000000815260040161052390611678565b60405180910390fd5b600085858585604051602001610545949392919061117a565b604051602081830303815290604052805190602001209050600160026000506000836000191660001916815260200190815260200160002060006101000a81548160ff0219169083151502179055508573ffffffffffffffffffffffffffffffffffffffff1681600019167ed038d9209423c0ba06a7d606d7a0eeafe97cb5bdb3a9dd5b35c019b0966a958787876040516105e293929190611210565b60405180910390a3809150506105f456505b949350505050565b600063e177246e60e01b7bffffffffffffffffffffffffffffffffffffffffffffffffffffffff1916827bffffffffffffffffffffffffffffffffffffffffffffffffffffffff191614905061064d565b919050565b600360009054906101000a900473ffffffffffffffffffffffffffffffffffffffff1673ffffffffffffffffffffffffffffffffffffffff163373ffffffffffffffffffffffffffffffffffffffff161415156106af5760006000fd5b600360006101000a81549073ffffffffffffffffffffffffffffffffffffffff021916905580600060006101000a81548173ffffffffffffffffffffffffffffffffffffffff021916908373ffffffffffffffffffffffffffffffffffffffff1602179055505b50565b6060610729610ab463ffffffff16565b73ffffffffffffffffffffffffffffffffffffffff163373ffffffffffffffffffffffffffffffffffffffff16141515610798576040517f08c379a000000000000000000000000000000000000000000000000000000000815260040161078f906112ac565b60405180910390fd5b6000858585856040516020016107b1949392919061117a565b60405160208183030381529060405280519060200120905060026000506000826000191660001916815260200190815260200160002060009054906101000a900460ff161515610836576040517f08c379a000000000000000000000000000000000000000000000000000000000815260040161082d90611530565b60405180910390fd5b82610845610cdd63ffffffff16565b10151515610888576040517f08c379a000000000000000000000000000000000000000000000000000000000815260040161087f906113db565b60405180910390fd5b61089b8362093a80610cea63ffffffff16565b6108a9610cdd63ffffffff16565b111515156108ec576040517f08c379a00000000000000000000000000000000000000000000000000000000081526004016108e390611376565b60405180910390fd5b600060026000506000836000191660001916815260200190815260200160002060006101000a81548160ff02191690831515021790555060007f000000000000000000000000000000000000000000000000000000000000000073ffffffffffffffffffffffffffffffffffffffff166333daf5d48888886040518463ffffffff1660e01b81526004016109829392919061112d565b600060405180830381600087803b15801561099d5760006000fd5b505af11580156109b2573d600060003e3d6000fd5b505050506040513d6000823e3d601f19601f820116820180604052508101906109db9190610f69565b8094508192505050801515610a25576040517f08c379a0000000000000000000000000000000000000000000000000000000008152600401610a1c90611247565b60405180910390fd5b8673ffffffffffffffffffffffffffffffffffffffff1682600019167f73bcadb73827ad9a900198359278e77086ae03e9e17ef173ad7de9e7e39acaff888888604051610a7493929190611210565b60405180910390a350505b949350505050565b7f000000000000000000000000000000000000000000000000000000000000000081565b60016000505481565b600060007f000000000000000000000000000000000000000000000000000000000000000073ffffffffffffffffffffffffffffffffffffffff1663055ad42e6040518163ffffffff1660e01b815260040160206040518083038186803b158015610b1f5760006000fd5b505afa158015610b34573d600060003e3d6000fd5b505050506040513d601f19601f82011682018060405250810190610b58919061108a565b60ff1614610b8857600060009054906101000a900473ffffffffffffffffffffffffffffffffffffffff16610baa565b7f00000000000000000000000000000000000000000000000000000000000000005b9050610bb1565b90565b6212750081565b6201518081565b62093a8081565b600360009054906101000a900473ffffffffffffffffffffffffffffffffffffffff1681565b7f000000000000000000000000000000000000000000000000000000000000000073ffffffffffffffffffffffffffffffffffffffff163373ffffffffffffffffffffffffffffffffffffffff16141515610c7f576040517f08c379a0000000000000000000000000000000000000000000000000000000008152600401610c7690611595565b60405180910390fd5b610c8e81610d5163ffffffff16565b5b50565b600260005060205280600052604060002060009150909054906101000a900460ff1681565b600060009054906101000a900473ffffffffffffffffffffffffffffffffffffffff1681565b6000429050610ce7565b90565b600060008284610cfa91906117b8565b9050838110151515610d41576040517f08c379a0000000000000000000000000000000000000000000000000000000008152600401610d38906115d4565b60405180910390fd5b80915050610d4b56505b92915050565b620151808110151515610d99576040517f08c379a0000000000000000000000000000000000000000000000000000000008152600401610d9090611466565b60405180910390fd5b621275008111151515610de1576040517f08c379a0000000000000000000000000000000000000000000000000000000008152600401610dd8906114cb565b60405180910390fd5b8060016000508190909055506001600050547f948b1f6a42ee138b7e34058ba85a37f716d55ff25ff05a763f15bed6a04c8d2c60405160405180910390a25b5056611862565b6000610e3a610e358461176c565b611715565b9050828152838383011115610e4f5760006000fd5b828260208301376000602084830101525b9392505050565b60008135905073ffffffffffffffffffffffffffffffffffffffff811681141515610e925760006000fd5b5b919050565b600060208284031215610ea9578081fd5b610eb282610e67565b90505b92915050565b600060006000600060808587031215610ed2578283fd5b610edb85610e67565b9350602085013567ffffffffffffffff80821115610ef7578485fd5b818701915087601f8301121515610f0c578485fd5b610f1b88833560208501610e27565b94506040870135915080821115610f30578384fd5b50808601905086601f8201121515610f46578283fd5b610f5587823560208401610e27565b925050606085013590505b92959194509250565b6000600060408385031215610f7c578182fd5b825180151581141515610f8d578283fd5b80925050602083015167ffffffffffffffff811115610faa578182fd5b808401905084601f8201121515610fbf578182fd5b8051610fd2610fcd8261176c565b611715565b818152866020838501011115610fe6578384fd5b610ff78260208301602086016117fc565b8093505050505b9250929050565b600060208284031215611016578081fd5b813590505b92915050565b600060208284031215611032578081fd5b81357fffffffff00000000000000000000000000000000000000000000000000000000811681141515611063578182fd5b809150505b92915050565b60006020828403121561107f578081fd5b813590505b92915050565b60006020828403121561109b578081fd5b815160ff8116811415156110ad578182fd5b809150505b92915050565b600081518084526110d08160208601602086016117fc565b60207fffffffffffffffffffffffffffffffffffffffffffffffffffffffffffffffe0601f8301168501019150505b92915050565b600060208201905073ffffffffffffffffffffffffffffffffffffffff831682525b92915050565b73ffffffffffffffffffffffffffffffffffffffff8416815260606020820152600061115c60608301856110b8565b828103604084015261116e81856110b8565b9150505b949350505050565b73ffffffffffffffffffffffffffffffffffffffff851681526080602082015260006111a960808301866110b8565b82810360408401526111bb81866110b8565b9150508260608301525b95945050505050565b600060208201905082151582525b92915050565b60006020820190508282525b92915050565b60208152600061120760208301846110b8565b90505b92915050565b60608152600061122360608301866110b8565b828103602084015261123581866110b8565b9150508260408301525b949350505050565b60208152603c60208201527f54696d656c6f636b3a3a657865637574655472616e73616374696f6e3a20547260408201527f616e73616374696f6e20657865637574696f6e20726576657274656400000000606082015260006080820190505b919050565b60208152603860208201527f54696d656c6f636b3a3a657865637574655472616e73616374696f6e3a20436160408201527f6c6c206d75737420636f6d652066726f6d2061646d696e2e0000000000000000606082015260006080820190505b919050565b60208152603760208201527f54696d656c6f636b3a3a63616e63656c5472616e73616374696f6e3a2043616c60408201527f6c206d75737420636f6d652066726f6d2061646d696e2e000000000000000000606082015260006080820190505b919050565b60208152603360208201527f54696d656c6f636b3a3a657865637574655472616e73616374696f6e3a20547260408201527f616e73616374696f6e206973207374616c652e00000000000000000000000000606082015260006080820190505b919050565b60208152604560208201527f54696d656c6f636b3a3a657865637574655472616e73616374696f6e3a20547260408201527f616e73616374696f6e206861736e2774207375727061737365642074696d652060608201527f6c6f636b2e0000000000000000000000000000000000000000000000000000006080820152600060a0820190505b919050565b60208152603460208201527f54696d656c6f636b3a3a73657444656c61793a2044656c6179206d757374206560408201527f7863656564206d696e696d756d2064656c61792e000000000000000000000000606082015260006080820190505b919050565b60208152603860208201527f54696d656c6f636b3a3a73657444656c61793a2044656c6179206d757374206e60408201527f6f7420657863656564206d6178696d756d2064656c61792e0000000000000000606082015260006080820190505b919050565b60208152603d60208201527f54696d656c6f636b3a3a657865637574655472616e73616374696f6e3a20547260408201527f616e73616374696f6e206861736e2774206265656e207175657565642e000000606082015260006080820190505b919050565b60208152601d60208201527f43616c6c206d75737420636f6d652066726f6d206578656375746f722e000000604082015260006060820190505b919050565b60208152601160208201527f6164646974696f6e206f766572666c6f77000000000000000000000000000000604082015260006060820190505b919050565b60208152603660208201527f54696d656c6f636b3a3a71756575655472616e73616374696f6e3a2043616c6c60408201527f206d75737420636f6d652066726f6d2061646d696e2e00000000000000000000606082015260006080820190505b919050565b60208152604960208201527f54696d656c6f636b3a3a71756575655472616e73616374696f6e3a204573746960408201527f6d6174656420657865637574696f6e20626c6f636b206d75737420736174697360608201527f66792064656c61792e00000000000000000000000000000000000000000000006080820152600060a0820190505b919050565b60006020820190508282525b92915050565b600060405190507fffffffffffffffffffffffffffffffffffffffffffffffffffffffffffffffe0601f830116810181811067ffffffffffffffff8211171561176157611760611831565b5b80604052505b919050565b600067ffffffffffffffff82111561178757611786611831565b5b60207fffffffffffffffffffffffffffffffffffffffffffffffffffffffffffffffe0601f8401160190505b919050565b600082198211156117f0577f4e487b710000000000000000000000000000000000000000000000000000000081526011600452602481fd5b82820190505b92915050565b60005b8381101561181b5780820151818401525b6020810190506117ff565b8381111561182a576000848401525b505050505b565b7f4e487b7100000000000000000000000000000000000000000000000000000000600052604160045260246000fd5b565bfea2646970667358221220a9ec78867f14a12963fcd45d5a7546d441f1959dcf347746f8ce9e4c2f0fc6cb64736f6c63430008040033",
  "linkReferences": {},
  "deployedLinkReferences": {}
}