{
  "_format": "hh-sol-artifact-1",
  "contractName": "TimeTestable",
  "sourceName": "contracts/core/mocks/TimeTestable.sol",
  "abi": [
    {
      "inputs": [
        {
          "internalType": "uint64",
          "name": "periodLength",
          "type": "uint64"
        }
      ],
      "stateMutability": "nonpayable",
      "type": "constructor"
    },
    {
      "inputs": [],
      "name": "currentPeriod",
      "outputs": [
        {
          "internalType": "uint64",
          "name": "period",
          "type": "uint64"
        }
      ],
      "stateMutability": "view",
      "type": "function"
    },
    {
      "inputs": [],
      "name": "currentTime",
      "outputs": [
        {
          "internalType": "uint64",
          "name": "time",
          "type": "uint64"
        }
      ],
      "stateMutability": "view",
      "type": "function"
    },
    {
      "inputs": [],
      "name": "firstPeriod",
      "outputs": [
        {
          "internalType": "uint64",
          "name": "",
          "type": "uint64"
        }
      ],
      "stateMutability": "view",
      "type": "function"
    },
    {
      "inputs": [
        {
          "internalType": "uint64",
          "name": "addition",
          "type": "uint64"
        }
      ],
      "name": "futureTime",
      "outputs": [
        {
          "internalType": "uint64",
          "name": "time",
          "type": "uint64"
        }
      ],
      "stateMutability": "view",
      "type": "function"
    },
    {
      "inputs": [],
      "name": "getPeriodLength",
      "outputs": [
        {
          "internalType": "uint64",
          "name": "length",
          "type": "uint64"
        }
      ],
      "stateMutability": "view",
      "type": "function"
    },
    {
      "inputs": [],
      "name": "periodLength",
      "outputs": [
        {
          "internalType": "uint64",
          "name": "",
          "type": "uint64"
        }
      ],
      "stateMutability": "view",
      "type": "function"
    },
    {
      "inputs": [
        {
          "internalType": "uint64",
          "name": "period",
          "type": "uint64"
        }
      ],
      "name": "periodToTime",
      "outputs": [
        {
          "internalType": "uint64",
          "name": "time",
          "type": "uint64"
        }
      ],
      "stateMutability": "view",
      "type": "function"
    },
    {
      "inputs": [
        {
          "internalType": "uint64",
          "name": "time",
          "type": "uint64"
        }
      ],
      "name": "timeToPeriod",
      "outputs": [
        {
          "internalType": "uint64",
          "name": "period",
          "type": "uint64"
        }
      ],
      "stateMutability": "view",
      "type": "function"
    }
  ],
  "bytecode": "0x60c06040523480156100115760006000fd5b5060405161096638038061096683398181016040528101906100339190610126565b5b805b6001816100476100a760201b60201c565b6100519190610199565b61005b91906101d1565b67ffffffffffffffff1660a08167ffffffffffffffff1660c01b815260080150508067ffffffffffffffff1660808167ffffffffffffffff1660c01b815260080150505b505b5061020e565b60006100be426100c660201b6102ad17909060201c565b905080505b90565b60006801000000000000000082101515610115576040517f08c379a000000000000000000000000000000000000000000000000000000000815260040161010c9061015a565b60405180910390fd5b81905061011d565b9190505661020d565b600060208284031215610137578081fd5b81516001600160401b0381168114151561014f578182fd5b809150505b92915050565b60208152601160208201527f6d6f7265207468616e2036342062697473000000000000000000000000000000604082015260006060820190505b919050565b60006001600160401b038084168015156101c157634e487b7160e01b83526012600452602483fd5b8082851604925050505b92915050565b60006001600160401b038083168185169150818110156101ff57634e487b7160e01b83526011600452602483fd5b818103925050505b92915050565b5b60805160c01c60a05160c01c6106fc61026a600039600081816102340152818161030d015281816103b801526104540152600081816101f0015281816102700152818161032e015281816103f1015261047501526106fc6000f3fe60806040523480156100115760006000fd5b506004361061008d5760003560e01c8063c4e3a63b1161005c578063c4e3a63b1461012f578063d18e81b31461014d578063d2ca21151461016b578063dccee221146101895761008d565b806306040618146100935780631ef293eb146100b15780638469ddc7146100e1578063955e232e146100ff5761008d565b60006000fd5b61009b6101b9565b6040516100a8919061058a565b60405180910390f35b6100cb60048036038101906100c69190610516565b6101d1565b6040516100d8919061058a565b60405180910390f35b6100e96101ec565b6040516100f6919061058a565b60405180910390f35b61011960048036038101906101149190610516565b610217565b604051610126919061058a565b60405180910390f35b610137610232565b604051610144919061058a565b60405180910390f35b610155610256565b604051610162919061058a565b60405180910390f35b61017361026e565b604051610180919061058a565b60405180910390f35b6101a3600480360381019061019e9190610516565b610292565b6040516101b0919061058a565b60405180910390f35b60006101c961030963ffffffff16565b905080505b90565b60006101e28261037763ffffffff16565b905080505b919050565b60007f0000000000000000000000000000000000000000000000000000000000000000905080505b90565b6000610228826103ad63ffffffff16565b905080505b919050565b7f000000000000000000000000000000000000000000000000000000000000000081565b600061026661043263ffffffff16565b905080505b90565b7f000000000000000000000000000000000000000000000000000000000000000081565b60006102a38261044d63ffffffff16565b905080505b919050565b600068010000000000000000821015156102fc576040517f08c379a00000000000000000000000000000000000000000000000000000000081526004016102f39061054b565b60405180910390fd5b819050610304565b919050565b60007f00000000000000000000000000000000000000000000000000000000000000007f000000000000000000000000000000000000000000000000000000000000000061035b61043263ffffffff16565b61036591906105d9565b61036f9190610662565b905080505b90565b60006103a38261038b61043263ffffffff16565b67ffffffffffffffff166104c190919063ffffffff16565b905080505b919050565b60006104286103ef837f000000000000000000000000000000000000000000000000000000000000000067ffffffffffffffff166104c190919063ffffffff16565b7f000000000000000000000000000000000000000000000000000000000000000067ffffffffffffffff166104dc90919063ffffffff16565b905080505b919050565b6000610445426102ad909063ffffffff16565b905080505b90565b60006104b77f00000000000000000000000000000000000000000000000000000000000000007f00000000000000000000000000000000000000000000000000000000000000008461049f91906105d9565b67ffffffffffffffff166104f790919063ffffffff16565b905080505b919050565b600081836104cf91906105a6565b90506104d6565b92915050565b600081836104ea919061062b565b90506104f1565b92915050565b600081836105059190610662565b905061050c565b92915050566106c5565b600060208284031215610527578081fd5b813567ffffffffffffffff811681141515610540578182fd5b809150505b92915050565b60208152601160208201527f6d6f7265207468616e2036342062697473000000000000000000000000000000604082015260006060820190505b919050565b600060208201905067ffffffffffffffff831682525b92915050565b600067ffffffffffffffff8083168185168083038211156105ca576105c9610694565b5b80820193505050505b92915050565b600067ffffffffffffffff80841680151561061b577f4e487b710000000000000000000000000000000000000000000000000000000083526012600452602483fd5b8082851604925050505b92915050565b600067ffffffffffffffff8083168185168183048111821515161561065357610652610694565b5b80820293505050505b92915050565b600067ffffffffffffffff80831681851691508181101561068657610685610694565b5b818103925050505b92915050565b7f4e487b7100000000000000000000000000000000000000000000000000000000600052601160045260246000fd5b565bfea26469706673582212204cecf63b7d0d2089c7fed2c18e5b2f11aa4b35cafd071584f6ae419732505b0b64736f6c63430008040033",
  "linkReferences": {},
  "deployedLinkReferences": {}
}