{
  "_format": "hh-sol-artifact-1",
  "contractName": "TimeTestable",
  "sourceName": "contracts/core/mocks/TimeTestable.sol",
  "abi": [
    {
      "inputs": [
        {
          "internalType": "uint64",
          "name": "periodLength",
          "type": "uint64"
        }
      ],
      "stateMutability": "nonpayable",
      "type": "constructor"
    },
    {
      "inputs": [],
      "name": "currentPeriod",
      "outputs": [
        {
          "internalType": "uint64",
          "name": "period",
          "type": "uint64"
        }
      ],
      "stateMutability": "view",
      "type": "function"
    },
    {
      "inputs": [],
      "name": "currentTime",
      "outputs": [
        {
          "internalType": "uint64",
          "name": "time",
          "type": "uint64"
        }
      ],
      "stateMutability": "view",
      "type": "function"
    },
    {
      "inputs": [],
      "name": "firstPeriod",
      "outputs": [
        {
          "internalType": "uint64",
          "name": "",
          "type": "uint64"
        }
      ],
      "stateMutability": "view",
      "type": "function"
    },
    {
      "inputs": [
        {
          "internalType": "uint64",
          "name": "addition",
          "type": "uint64"
        }
      ],
      "name": "futureTime",
      "outputs": [
        {
          "internalType": "uint64",
          "name": "time",
          "type": "uint64"
        }
      ],
      "stateMutability": "view",
      "type": "function"
    },
    {
      "inputs": [],
      "name": "getPeriodLength",
      "outputs": [
        {
          "internalType": "uint64",
          "name": "length",
          "type": "uint64"
        }
      ],
      "stateMutability": "view",
      "type": "function"
    },
    {
      "inputs": [],
      "name": "periodLength",
      "outputs": [
        {
          "internalType": "uint64",
          "name": "",
          "type": "uint64"
        }
      ],
      "stateMutability": "view",
      "type": "function"
    },
    {
      "inputs": [
        {
          "internalType": "uint64",
          "name": "period",
          "type": "uint64"
        }
      ],
      "name": "periodToTime",
      "outputs": [
        {
          "internalType": "uint64",
          "name": "time",
          "type": "uint64"
        }
      ],
      "stateMutability": "view",
      "type": "function"
    },
    {
      "inputs": [
        {
          "internalType": "uint64",
          "name": "time",
          "type": "uint64"
        }
      ],
      "name": "timeToPeriod",
      "outputs": [
        {
          "internalType": "uint64",
          "name": "period",
          "type": "uint64"
        }
      ],
      "stateMutability": "view",
      "type": "function"
    }
  ],
  "bytecode": "0x60c06040523480156100115760006000fd5b5060405161096838038061096883398181016040528101906100339190610120565b5b805b6001816100476100a160201b60201c565b6100519190610158565b61005b9190610192565b67ffffffffffffffff1660a08167ffffffffffffffff16815260200150508067ffffffffffffffff1660808167ffffffffffffffff16815260200150505b505b50610210565b60006100b8426100c060201b6102ad17909060201c565b905080505b90565b6000680100000000000000008210151561010f576040517f08c379a0000000000000000000000000000000000000000000000000000000008152600401610106906101d0565b60405180910390fd5b819050610117565b9190505661020f565b6000602082840312156101335760006000fd5b81516001600160401b0381168114151561014d5760006000fd5b809150505b92915050565b60006001600160401b0380841680151561018257634e487b7160e01b600052601260045260246000fd5b8082851604925050505b92915050565b60006001600160401b038083168185169150818110156101c257634e487b7160e01b600052601160045260246000fd5b818103925050505b92915050565b60208152601160208201527f6d6f7265207468616e2036342062697473000000000000000000000000000000604082015260006060820190505b919050565b5b60805160a051610702610266600039600081816102340152818161030d015281816103b801526104540152600081816101f0015281816102700152818161032e015281816103f1015261047501526107026000f3fe60806040523480156100115760006000fd5b506004361061008d5760003560e01c8063c4e3a63b1161005c578063c4e3a63b1461012f578063d18e81b31461014d578063d2ca21151461016b578063dccee221146101895761008d565b806306040618146100935780631ef293eb146100b15780638469ddc7146100e1578063955e232e146100ff5761008d565b60006000fd5b61009b6101b9565b6040516100a89190610516565b60405180910390f35b6100cb60048036038101906100c69190610532565b6101d1565b6040516100d89190610516565b60405180910390f35b6100e96101ec565b6040516100f69190610516565b60405180910390f35b61011960048036038101906101149190610532565b610217565b6040516101269190610516565b60405180910390f35b610137610232565b6040516101449190610516565b60405180910390f35b610155610256565b6040516101629190610516565b60405180910390f35b61017361026e565b6040516101809190610516565b60405180910390f35b6101a3600480360381019061019e9190610532565b610292565b6040516101b09190610516565b60405180910390f35b60006101c961030963ffffffff16565b905080505b90565b60006101e28261037763ffffffff16565b905080505b919050565b60007f0000000000000000000000000000000000000000000000000000000000000000905080505b90565b6000610228826103ad63ffffffff16565b905080505b919050565b7f000000000000000000000000000000000000000000000000000000000000000081565b600061026661043263ffffffff16565b905080505b90565b7f000000000000000000000000000000000000000000000000000000000000000081565b60006102a38261044d63ffffffff16565b905080505b919050565b600068010000000000000000821015156102fc576040517f08c379a00000000000000000000000000000000000000000000000000000000081526004016102f39061056b565b60405180910390fd5b819050610304565b919050565b60007f00000000000000000000000000000000000000000000000000000000000000007f000000000000000000000000000000000000000000000000000000000000000061035b61043263ffffffff16565b61036591906105db565b61036f919061062f565b905080505b90565b60006103a38261038b61043263ffffffff16565b67ffffffffffffffff166104c190919063ffffffff16565b905080505b919050565b60006104286103ef837f000000000000000000000000000000000000000000000000000000000000000067ffffffffffffffff166104c190919063ffffffff16565b7f000000000000000000000000000000000000000000000000000000000000000067ffffffffffffffff166104dc90919063ffffffff16565b905080505b919050565b6000610445426102ad909063ffffffff16565b905080505b90565b60006104b77f00000000000000000000000000000000000000000000000000000000000000007f00000000000000000000000000000000000000000000000000000000000000008461049f91906105db565b67ffffffffffffffff166104f790919063ffffffff16565b905080505b919050565b600081836104cf9190610661565b90506104d6565b92915050565b600081836104ea9190610694565b90506104f1565b92915050565b60008183610505919061062f565b905061050c565b92915050566106cb565b600060208201905067ffffffffffffffff831682525b92915050565b6000602082840312156105455760006000fd5b813567ffffffffffffffff8116811415156105605760006000fd5b809150505b92915050565b60208152601160208201527f6d6f7265207468616e2036342062697473000000000000000000000000000000604082015260006060820190505b919050565b7f4e487b7100000000000000000000000000000000000000000000000000000000600052601160045260246000fd5b565b600067ffffffffffffffff80841680151561061f577f4e487b7100000000000000000000000000000000000000000000000000000000600052601260045260246000fd5b8082851604925050505b92915050565b600067ffffffffffffffff808316818516915081811015610653576106526105aa565b5b818103925050505b92915050565b600067ffffffffffffffff808316818516808303821115610685576106846105aa565b5b80820193505050505b92915050565b600067ffffffffffffffff808316818516818304811182151516156106bc576106bb6105aa565b5b80820293505050505b92915050565bfea26469706673582212204fe77d8dfc29e390c918c7a07bc1f90618270484c65d4d29de0b181656cb4e5864736f6c634300080c0033",
  "linkReferences": {},
  "deployedLinkReferences": {}
}