{
  "_format": "hh-sol-artifact-1",
  "contractName": "AuctionsTestable",
  "sourceName": "contracts/core/mocks/AuctionsTestable.sol",
  "abi": [
    {
      "inputs": [
        {
          "components": [
            {
              "internalType": "contract IGovernor",
              "name": "Governor",
              "type": "address"
            },
            {
              "internalType": "contract IProtocolLock",
              "name": "ProtocolLock",
              "type": "address"
            },
            {
              "internalType": "contract IHue",
              "name": "Hue",
              "type": "address"
            }
          ],
          "internalType": "struct IAuctions.ConstructorParams",
          "name": "params",
          "type": "tuple"
        }
      ],
      "stateMutability": "nonpayable",
      "type": "constructor"
    },
    {
      "anonymous": false,
      "inputs": [
        {
          "indexed": true,
          "internalType": "uint64",
          "name": "auctionID",
          "type": "uint64"
        },
        {
          "indexed": true,
          "internalType": "address",
          "name": "bidder",
          "type": "address"
        },
        {
          "indexed": false,
          "internalType": "uint256",
          "name": "bid",
          "type": "uint256"
        }
      ],
      "name": "DeficitAuctionBid",
      "type": "event"
    },
    {
      "anonymous": false,
      "inputs": [
        {
          "indexed": true,
          "internalType": "uint64",
          "name": "auctionID",
          "type": "uint64"
        },
        {
          "indexed": true,
          "internalType": "address",
          "name": "winner",
          "type": "address"
        }
      ],
      "name": "DeficitAuctionSettled",
      "type": "event"
    },
    {
      "anonymous": false,
      "inputs": [
        {
          "indexed": true,
          "internalType": "uint64",
          "name": "auctionID",
          "type": "uint64"
        },
        {
          "indexed": true,
          "internalType": "uint256",
          "name": "count",
          "type": "uint256"
        },
        {
          "indexed": false,
          "internalType": "uint64",
          "name": "maxEndTime",
          "type": "uint64"
        }
      ],
      "name": "DeficitAuctionStarted",
      "type": "event"
    },
    {
      "anonymous": false,
      "inputs": [
        {
          "indexed": false,
          "internalType": "uint64",
          "name": "extension",
          "type": "uint64"
        }
      ],
      "name": "ExtensionPerBidUpdated",
      "type": "event"
    },
    {
      "anonymous": false,
      "inputs": [
        {
          "indexed": false,
          "internalType": "uint64",
          "name": "duration",
          "type": "uint64"
        }
      ],
      "name": "MaxAuctionDurationUpdated",
      "type": "event"
    },
    {
      "anonymous": false,
      "inputs": [
        {
          "indexed": false,
          "internalType": "uint64",
          "name": "size",
          "type": "uint64"
        }
      ],
      "name": "MaxBatchSizeUpdated",
      "type": "event"
    },
    {
      "anonymous": false,
      "inputs": [
        {
          "indexed": false,
          "internalType": "uint256",
          "name": "size",
          "type": "uint256"
        }
      ],
      "name": "MaxSurplusLotSizeUpdated",
      "type": "event"
    },
    {
      "anonymous": false,
      "inputs": [
        {
          "indexed": false,
          "internalType": "uint64",
          "name": "duration",
          "type": "uint64"
        }
      ],
      "name": "MinAuctionDurationUpdated",
      "type": "event"
    },
    {
      "anonymous": false,
      "inputs": [
        {
          "indexed": false,
          "internalType": "uint256",
          "name": "delta",
          "type": "uint256"
        }
      ],
      "name": "MinBidDeltaUpdated",
      "type": "event"
    },
    {
      "anonymous": false,
      "inputs": [
        {
          "indexed": false,
          "internalType": "uint256",
          "name": "size",
          "type": "uint256"
        }
      ],
      "name": "MinLotSizeUpdated",
      "type": "event"
    },
    {
      "anonymous": false,
      "inputs": [
        {
          "indexed": false,
          "internalType": "uint256",
          "name": "bound",
          "type": "uint256"
        }
      ],
      "name": "ReservesBufferLowerBoundUpdated",
      "type": "event"
    },
    {
      "anonymous": false,
      "inputs": [
        {
          "indexed": false,
          "internalType": "uint256",
          "name": "bound",
          "type": "uint256"
        }
      ],
      "name": "ReservesBufferUpperBoundUpdated",
      "type": "event"
    },
    {
      "anonymous": false,
      "inputs": [],
      "name": "Stopped",
      "type": "event"
    },
    {
      "anonymous": false,
      "inputs": [
        {
          "indexed": true,
          "internalType": "uint64",
          "name": "auctionID",
          "type": "uint64"
        },
        {
          "indexed": true,
          "internalType": "address",
          "name": "bidder",
          "type": "address"
        },
        {
          "indexed": false,
          "internalType": "uint256",
          "name": "bid",
          "type": "uint256"
        }
      ],
      "name": "SurplusAuctionBid",
      "type": "event"
    },
    {
      "anonymous": false,
      "inputs": [
        {
          "indexed": true,
          "internalType": "uint64",
          "name": "auctionID",
          "type": "uint64"
        },
        {
          "indexed": true,
          "internalType": "address",
          "name": "winner",
          "type": "address"
        }
      ],
      "name": "SurplusAuctionSettled",
      "type": "event"
    },
    {
      "anonymous": false,
      "inputs": [
        {
          "indexed": true,
          "internalType": "uint64",
          "name": "auctionID",
          "type": "uint64"
        },
        {
          "indexed": true,
          "internalType": "uint256",
          "name": "count",
          "type": "uint256"
        },
        {
          "indexed": false,
          "internalType": "uint64",
          "name": "maxEndTime",
          "type": "uint64"
        }
      ],
      "name": "SurplusAuctionStarted",
      "type": "event"
    },
    {
      "anonymous": false,
      "inputs": [
        {
          "indexed": false,
          "internalType": "uint32",
          "name": "duration",
          "type": "uint32"
        }
      ],
      "name": "TwapDurationUpdated",
      "type": "event"
    },
    {
      "anonymous": false,
      "inputs": [
        {
          "indexed": false,
          "internalType": "uint256",
          "name": "size",
          "type": "uint256"
        }
      ],
      "name": "maxDeficitLotSizeUpdated",
      "type": "event"
    },
    {
      "inputs": [
        {
          "internalType": "uint256",
          "name": "amtIn",
          "type": "uint256"
        },
        {
          "internalType": "uint256",
          "name": "lotSize",
          "type": "uint256"
        }
      ],
      "name": "aggregateAuctionSize",
      "outputs": [
        {
          "internalType": "uint256",
          "name": "size",
          "type": "uint256"
        }
      ],
      "stateMutability": "view",
      "type": "function"
    },
    {
      "inputs": [
        {
          "internalType": "uint64",
          "name": "auctionID",
          "type": "uint64"
        },
        {
          "internalType": "uint128",
          "name": "bid",
          "type": "uint128"
        }
      ],
      "name": "bidDeficitAuction",
      "outputs": [],
      "stateMutability": "nonpayable",
      "type": "function"
    },
    {
      "inputs": [
        {
          "internalType": "uint64",
          "name": "auctionID",
          "type": "uint64"
        },
        {
          "internalType": "uint128",
          "name": "bid",
          "type": "uint128"
        }
      ],
      "name": "bidSurplusAuction",
      "outputs": [],
      "stateMutability": "nonpayable",
      "type": "function"
    },
    {
      "inputs": [],
      "name": "checkReservesAndStartAuctions",
      "outputs": [],
      "stateMutability": "nonpayable",
      "type": "function"
    },
    {
      "inputs": [
        {
          "internalType": "uint64",
          "name": "",
          "type": "uint64"
        }
      ],
      "name": "deficitAuction",
      "outputs": [
        {
          "internalType": "uint128",
          "name": "count",
          "type": "uint128"
        },
        {
          "internalType": "uint128",
          "name": "bid",
          "type": "uint128"
        },
        {
          "internalType": "address",
          "name": "bidder",
          "type": "address"
        },
        {
          "internalType": "uint48",
          "name": "endTime",
          "type": "uint48"
        },
        {
          "internalType": "uint48",
          "name": "maxEndTime",
          "type": "uint48"
        }
      ],
      "stateMutability": "view",
      "type": "function"
    },
    {
      "inputs": [
        {
          "internalType": "uint64",
          "name": "auctionID",
          "type": "uint64"
        }
      ],
      "name": "deficitAuctionComplete",
      "outputs": [
        {
          "internalType": "bool",
          "name": "",
          "type": "bool"
        }
      ],
      "stateMutability": "view",
      "type": "function"
    },
    {
      "inputs": [],
      "name": "deficitAuctionCount",
      "outputs": [
        {
          "internalType": "uint64",
          "name": "",
          "type": "uint64"
        }
      ],
      "stateMutability": "view",
      "type": "function"
    },
    {
      "inputs": [
        {
          "internalType": "uint64",
          "name": "id",
          "type": "uint64"
        }
      ],
      "name": "deficitAuctionExists",
      "outputs": [
        {
          "internalType": "bool",
          "name": "",
          "type": "bool"
        }
      ],
      "stateMutability": "view",
      "type": "function"
    },
    {
      "inputs": [
        {
          "internalType": "uint64",
          "name": "auctionID",
          "type": "uint64"
        }
      ],
      "name": "deficitAuctionLive",
      "outputs": [
        {
          "internalType": "bool",
          "name": "",
          "type": "bool"
        }
      ],
      "stateMutability": "view",
      "type": "function"
    },
    {
      "inputs": [],
      "name": "extensionPerBid",
      "outputs": [
        {
          "internalType": "uint64",
          "name": "",
          "type": "uint64"
        }
      ],
      "stateMutability": "view",
      "type": "function"
    },
    {
      "inputs": [
        {
          "internalType": "uint64",
          "name": "start",
          "type": "uint64"
        },
        {
          "internalType": "bool",
          "name": "surplus",
          "type": "bool"
        }
      ],
      "name": "getAllAuctions",
      "outputs": [
        {
          "components": [
            {
              "internalType": "uint128",
              "name": "count",
              "type": "uint128"
            },
            {
              "internalType": "uint128",
              "name": "bid",
              "type": "uint128"
            },
            {
              "internalType": "address",
              "name": "bidder",
              "type": "address"
            },
            {
              "internalType": "uint48",
              "name": "endTime",
              "type": "uint48"
            },
            {
              "internalType": "uint48",
              "name": "maxEndTime",
              "type": "uint48"
            }
          ],
          "internalType": "struct IAuctions.Auction[]",
          "name": "_auctions",
          "type": "tuple[]"
        },
        {
          "internalType": "uint256[]",
          "name": "_auctionIDs",
          "type": "uint256[]"
        },
        {
          "internalType": "bool[]",
          "name": "_isComplete",
          "type": "bool[]"
        }
      ],
      "stateMutability": "view",
      "type": "function"
    },
    {
      "inputs": [],
      "name": "governor",
      "outputs": [
        {
          "internalType": "contract IGovernor",
          "name": "",
          "type": "address"
        }
      ],
      "stateMutability": "view",
      "type": "function"
    },
    {
      "inputs": [],
      "name": "hue",
      "outputs": [
        {
          "internalType": "contract IHue",
          "name": "",
          "type": "address"
        }
      ],
      "stateMutability": "view",
      "type": "function"
    },
    {
      "inputs": [],
      "name": "hueToBeBought",
      "outputs": [
        {
          "internalType": "uint256",
          "name": "",
          "type": "uint256"
        }
      ],
      "stateMutability": "view",
      "type": "function"
    },
    {
      "inputs": [],
      "name": "hueToBeSold",
      "outputs": [
        {
          "internalType": "uint256",
          "name": "",
          "type": "uint256"
        }
      ],
      "stateMutability": "view",
      "type": "function"
    },
    {
      "inputs": [],
      "name": "latestAuctionCompletionTime",
      "outputs": [
        {
          "internalType": "uint64",
          "name": "",
          "type": "uint64"
        }
      ],
      "stateMutability": "view",
      "type": "function"
    },
    {
      "inputs": [],
      "name": "maxAuctionDuration",
      "outputs": [
        {
          "internalType": "uint64",
          "name": "",
          "type": "uint64"
        }
      ],
      "stateMutability": "view",
      "type": "function"
    },
    {
      "inputs": [],
      "name": "maxBatchSize",
      "outputs": [
        {
          "internalType": "uint64",
          "name": "",
          "type": "uint64"
        }
      ],
      "stateMutability": "view",
      "type": "function"
    },
    {
      "inputs": [],
      "name": "maxDeficitLotSize",
      "outputs": [
        {
          "internalType": "uint256",
          "name": "",
          "type": "uint256"
        }
      ],
      "stateMutability": "view",
      "type": "function"
    },
    {
      "inputs": [],
      "name": "maxSurplusLotSize",
      "outputs": [
        {
          "internalType": "uint256",
          "name": "",
          "type": "uint256"
        }
      ],
      "stateMutability": "view",
      "type": "function"
    },
    {
      "inputs": [],
      "name": "minAuctionDuration",
      "outputs": [
        {
          "internalType": "uint64",
          "name": "",
          "type": "uint64"
        }
      ],
      "stateMutability": "view",
      "type": "function"
    },
    {
      "inputs": [],
      "name": "minBidDelta",
      "outputs": [
        {
          "internalType": "uint256",
          "name": "",
          "type": "uint256"
        }
      ],
      "stateMutability": "view",
      "type": "function"
    },
    {
      "inputs": [],
      "name": "minLotSize",
      "outputs": [
        {
          "internalType": "uint256",
          "name": "",
          "type": "uint256"
        }
      ],
      "stateMutability": "view",
      "type": "function"
    },
    {
      "inputs": [],
      "name": "reservesBufferLowerBound",
      "outputs": [
        {
          "internalType": "uint256",
          "name": "",
          "type": "uint256"
        }
      ],
      "stateMutability": "view",
      "type": "function"
    },
    {
      "inputs": [],
      "name": "reservesBufferUpperBound",
      "outputs": [
        {
          "internalType": "uint256",
          "name": "",
          "type": "uint256"
        }
      ],
      "stateMutability": "view",
      "type": "function"
    },
    {
      "inputs": [
        {
          "internalType": "uint64",
          "name": "extension",
          "type": "uint64"
        }
      ],
      "name": "setExtensionPerBid",
      "outputs": [],
      "stateMutability": "nonpayable",
      "type": "function"
    },
    {
      "inputs": [
        {
          "internalType": "uint64",
          "name": "duration",
          "type": "uint64"
        }
      ],
      "name": "setMaxAuctionDuration",
      "outputs": [],
      "stateMutability": "nonpayable",
      "type": "function"
    },
    {
      "inputs": [
        {
          "internalType": "uint64",
          "name": "size",
          "type": "uint64"
        }
      ],
      "name": "setMaxBatchSize",
      "outputs": [],
      "stateMutability": "nonpayable",
      "type": "function"
    },
    {
      "inputs": [
        {
          "internalType": "uint256",
          "name": "size",
          "type": "uint256"
        }
      ],
      "name": "setMaxDeficitLotSize",
      "outputs": [],
      "stateMutability": "nonpayable",
      "type": "function"
    },
    {
      "inputs": [
        {
          "internalType": "uint256",
          "name": "size",
          "type": "uint256"
        }
      ],
      "name": "setMaxSurplusLotSize",
      "outputs": [],
      "stateMutability": "nonpayable",
      "type": "function"
    },
    {
      "inputs": [
        {
          "internalType": "uint64",
          "name": "duration",
          "type": "uint64"
        }
      ],
      "name": "setMinAuctionDuration",
      "outputs": [],
      "stateMutability": "nonpayable",
      "type": "function"
    },
    {
      "inputs": [
        {
          "internalType": "uint256",
          "name": "delta",
          "type": "uint256"
        }
      ],
      "name": "setMinBidDelta",
      "outputs": [],
      "stateMutability": "nonpayable",
      "type": "function"
    },
    {
      "inputs": [
        {
          "internalType": "uint256",
          "name": "size",
          "type": "uint256"
        }
      ],
      "name": "setMinLotSize",
      "outputs": [],
      "stateMutability": "nonpayable",
      "type": "function"
    },
    {
      "inputs": [
        {
          "internalType": "uint256",
          "name": "bound",
          "type": "uint256"
        }
      ],
      "name": "setReservesBufferLowerBound",
      "outputs": [],
      "stateMutability": "nonpayable",
      "type": "function"
    },
    {
      "inputs": [
        {
          "internalType": "uint256",
          "name": "bound",
          "type": "uint256"
        }
      ],
      "name": "setReservesBufferUpperBound",
      "outputs": [],
      "stateMutability": "nonpayable",
      "type": "function"
    },
    {
      "inputs": [
        {
          "internalType": "uint32",
          "name": "duration",
          "type": "uint32"
        }
      ],
      "name": "setTwapDuration",
      "outputs": [],
      "stateMutability": "nonpayable",
      "type": "function"
    },
    {
      "inputs": [
        {
          "internalType": "uint64",
          "name": "auctionID",
          "type": "uint64"
        }
      ],
      "name": "settleDeficitAuction",
      "outputs": [],
      "stateMutability": "nonpayable",
      "type": "function"
    },
    {
      "inputs": [
        {
          "internalType": "uint64",
          "name": "auctionID",
          "type": "uint64"
        }
      ],
      "name": "settleSurplusAuction",
      "outputs": [],
      "stateMutability": "nonpayable",
      "type": "function"
    },
    {
      "inputs": [],
      "name": "shouldStartAuctions",
      "outputs": [
        {
          "internalType": "uint256",
          "name": "surplusAmount",
          "type": "uint256"
        },
        {
          "internalType": "uint256",
          "name": "deficitAmount",
          "type": "uint256"
        }
      ],
      "stateMutability": "view",
      "type": "function"
    },
    {
      "inputs": [
        {
          "internalType": "uint256",
          "name": "count",
          "type": "uint256"
        },
        {
          "internalType": "bool",
          "name": "isSurplus",
          "type": "bool"
        }
      ],
      "name": "startAuction",
      "outputs": [],
      "stateMutability": "nonpayable",
      "type": "function"
    },
    {
      "inputs": [
        {
          "internalType": "uint256",
          "name": "amt",
          "type": "uint256"
        },
        {
          "internalType": "bool",
          "name": "isSurplus",
          "type": "bool"
        }
      ],
      "name": "startAuctions",
      "outputs": [],
      "stateMutability": "nonpayable",
      "type": "function"
    },
    {
      "inputs": [],
      "name": "stop",
      "outputs": [],
      "stateMutability": "nonpayable",
      "type": "function"
    },
    {
      "inputs": [],
      "name": "stopped",
      "outputs": [
        {
          "internalType": "bool",
          "name": "",
          "type": "bool"
        }
      ],
      "stateMutability": "view",
      "type": "function"
    },
    {
      "inputs": [
        {
          "internalType": "uint64",
          "name": "",
          "type": "uint64"
        }
      ],
      "name": "surplusAuction",
      "outputs": [
        {
          "internalType": "uint128",
          "name": "count",
          "type": "uint128"
        },
        {
          "internalType": "uint128",
          "name": "bid",
          "type": "uint128"
        },
        {
          "internalType": "address",
          "name": "bidder",
          "type": "address"
        },
        {
          "internalType": "uint48",
          "name": "endTime",
          "type": "uint48"
        },
        {
          "internalType": "uint48",
          "name": "maxEndTime",
          "type": "uint48"
        }
      ],
      "stateMutability": "view",
      "type": "function"
    },
    {
      "inputs": [
        {
          "internalType": "uint64",
          "name": "auctionID",
          "type": "uint64"
        }
      ],
      "name": "surplusAuctionComplete",
      "outputs": [
        {
          "internalType": "bool",
          "name": "",
          "type": "bool"
        }
      ],
      "stateMutability": "view",
      "type": "function"
    },
    {
      "inputs": [],
      "name": "surplusAuctionCount",
      "outputs": [
        {
          "internalType": "uint64",
          "name": "",
          "type": "uint64"
        }
      ],
      "stateMutability": "view",
      "type": "function"
    },
    {
      "inputs": [
        {
          "internalType": "uint64",
          "name": "id",
          "type": "uint64"
        }
      ],
      "name": "surplusAuctionExists",
      "outputs": [
        {
          "internalType": "bool",
          "name": "",
          "type": "bool"
        }
      ],
      "stateMutability": "view",
      "type": "function"
    },
    {
      "inputs": [
        {
          "internalType": "uint64",
          "name": "auctionID",
          "type": "uint64"
        }
      ],
      "name": "surplusAuctionLive",
      "outputs": [
        {
          "internalType": "bool",
          "name": "",
          "type": "bool"
        }
      ],
      "stateMutability": "view",
      "type": "function"
    },
    {
      "inputs": [],
      "name": "twapDuration",
      "outputs": [
        {
          "internalType": "uint32",
          "name": "",
          "type": "uint32"
        }
      ],
      "stateMutability": "view",
      "type": "function"
    },
    {
      "inputs": [
        {
          "internalType": "bytes4",
          "name": "",
          "type": "bytes4"
        }
      ],
      "name": "validUpdate",
      "outputs": [
        {
          "internalType": "bool",
          "name": "",
          "type": "bool"
        }
      ],
      "stateMutability": "view",
      "type": "function"
    }
  ],
  "bytecode": "0x60e060405260016002600050909055670e4b4b8af6a70000600360005090905568878678326eac900000600460005090905569043c33c1937564800000600560005090905569043c33c19375648000006006600050909055662386f26fc10000600760005090905566b1a2bc2ec5000060086000509090556005600960006101000a81548167ffffffffffffffff021916908367ffffffffffffffff160217905550610708600960086101000a81548167ffffffffffffffff021916908367ffffffffffffffff16021790555062015180600960106101000a81548167ffffffffffffffff021916908367ffffffffffffffff1602179055506202a300600960186101000a81548167ffffffffffffffff021916908367ffffffffffffffff160217905550610708600c60186101000a81548163ffffffff021916908363ffffffff160217905550348015620001555760006000fd5b50604051620061f3380380620061f383398181016040528101906200017b919062000674565b5b805b806000015181602001515b815b8073ffffffffffffffffffffffffffffffffffffffff1660808173ffffffffffffffffffffffffffffffffffffffff1660601b815260140150505b508073ffffffffffffffffffffffffffffffffffffffff1660a08173ffffffffffffffffffffffffffffffffffffffff1660601b815260140150505b5050806040015173ffffffffffffffffffffffffffffffffffffffff1660c08173ffffffffffffffffffffffffffffffffffffffff1660601b81526014015050600060405180610160016040528063ddf31e6760e01b7bffffffffffffffffffffffffffffffffffffffffffffffffffffffff19167bffffffffffffffffffffffffffffffffffffffffffffffffffffffff191681526020016334b1447560e01b7bffffffffffffffffffffffffffffffffffffffffffffffffffffffff19167bffffffffffffffffffffffffffffffffffffffffffffffffffffffff19168152602001638d56248a60e01b7bffffffffffffffffffffffffffffffffffffffffffffffffffffffff19167bffffffffffffffffffffffffffffffffffffffffffffffffffffffff19168152602001633a3a63df60e01b7bffffffffffffffffffffffffffffffffffffffffffffffffffffffff19167bffffffffffffffffffffffffffffffffffffffffffffffffffffffff1916815260200163887c67d960e01b7bffffffffffffffffffffffffffffffffffffffffffffffffffffffff19167bffffffffffffffffffffffffffffffffffffffffffffffffffffffff19168152602001634ae8470d60e01b7bffffffffffffffffffffffffffffffffffffffffffffffffffffffff19167bffffffffffffffffffffffffffffffffffffffffffffffffffffffff1916815260200163afea44ef60e01b7bffffffffffffffffffffffffffffffffffffffffffffffffffffffff19167bffffffffffffffffffffffffffffffffffffffffffffffffffffffff19168152602001630fb4e2b360e01b7bffffffffffffffffffffffffffffffffffffffffffffffffffffffff19167bffffffffffffffffffffffffffffffffffffffffffffffffffffffff191681526020016375d0ef5260e01b7bffffffffffffffffffffffffffffffffffffffffffffffffffffffff19167bffffffffffffffffffffffffffffffffffffffffffffffffffffffff191681526020016337ca44fc60e01b7bffffffffffffffffffffffffffffffffffffffffffffffffffffffff19167bffffffffffffffffffffffffffffffffffffffffffffffffffffffff1916815260200163c433c80a60e01b7bffffffffffffffffffffffffffffffffffffffffffffffffffffffff19167bffffffffffffffffffffffffffffffffffffffffffffffffffffffff191681526020015090506000600090505b8150600b81101562000663576001600160005060008484600b81101515620005e4577f4e487b7100000000000000000000000000000000000000000000000000000000600052603260045260246000fd5b60200201517bffffffffffffffffffffffffffffffffffffffffffffffffffffffff19167bffffffffffffffffffffffffffffffffffffffffffffffffffffffff1916815260200190815260200160002060006101000a81548160ff0219169083151502179055505b80806200065a9062000704565b91505062000593565b50505b505b506200074f566200074e565b60006060828403121562000686578081fd5b604051606081018181106001600160401b0382111715620006b557634e487b7160e01b83526041600452602483fd5b80604052508251620006c78162000731565b808252506020830151620006db8162000731565b806020830152506040830151620006f28162000731565b80604083015250809150505b92915050565b60006000198214156200072557634e487b7160e01b81526011600452602481fd5b6001820190505b919050565b6001600160a01b038116811415156200074a5760006000fd5b505b565b5b60805160601c60a05160601c60c05160601c615a17620007dc60003960008181610bd701528181610efd01528181612543015281816128370152612dfa015260008181613af30152613c320152600081816109c601528181610add01528181610c7b015281816114ee015281816135aa015281816137ff01528181613cbc01526144dc0152615a176000f3fe60806040523480156100115760006000fd5b506004361061033b5760003560e01c8063597e899f116101b357806399e1998f116100fa578063c433c80a116100a3578063d005d2eb1161007d578063d005d2eb14610932578063d7abba0c1461094e578063ddf31e671461096a578063faf95d2d146109865761033b565b8063c433c80a146108ca578063caa98b60146108e6578063cdbd373b146109165761033b565b8063a958c033116100d4578063a958c03314610886578063afea44ef14610890578063c2b6722a146108ac5761033b565b806399e1998f1461081e5780639d5318571461083a578063a65c030a146108565761033b565b80637d6953511161015c578063887c67d911610136578063887c67d9146107c85780638d56248a146107e45780639052537e146108005761033b565b80637d6953511461075a5780637eb12af71461078c57806387d2fecd146107aa5761033b565b8063651cf64d1161018d578063651cf64d146106ec57806375d0ef521461072057806375f12b211461073c5761033b565b8063597e899f1461068057806360aad9bf146106b0578063616cb0cf146106ce5761033b565b80633427c4ef11610282578063437992271161022b5780634ae8470d116102055780634ae8470d1461060a578063541348761461062657806354cccf081461064457806354f634fb146106625761033b565b806343799227146105a057806348c9581e146105d05780634a2304b1146105ee5761033b565b80633a3a63df1161025c5780633a3a63df1461052457806340601add146105405780634079b8fc146105705761033b565b80633427c4ef146104b857806334b14475146104ec57806337ca44fc146105085761033b565b80631b875768116102e457806327399e21116102be57806327399e211461045e5780632913daa01461047c578063323741741461049a5761033b565b80631b8757681461040357806325df95381461042157806326d89545146104405761033b565b80630fb4e2b3116103155780630fb4e2b3146103995780630fe86907146103b5578063113cf1ab146103d35761033b565b806307da68f5146103415780630c340a241461034b5780630d5cd0e1146103695761033b565b60006000fd5b6103496109a4565b005b6103536109c4565b604051610360919061512b565b60405180910390f35b610383600480360381019061037e9190614e43565b6109e8565b6040516103909190615117565b60405180910390f35b6103b360048036038101906103ae9190614e43565b610a05565b005b6103bd610a78565b6040516103ca9190615713565b60405180910390f35b6103ed60048036038101906103e89190614c9a565b610a81565b6040516103fa9190615117565b60405180910390f35b61040b610aa6565b6040516104189190615756565b60405180910390f35b610429610ac0565b604051610437929190615725565b60405180910390f35b610448610ec2565b604051610455919061573e565b60405180910390f35b610466610ed8565b6040516104739190615713565b60405180910390f35b610484610ee1565b6040516104919190615756565b60405180910390f35b6104a2610efb565b6040516104af9190615153565b60405180910390f35b6104d260048036038101906104cd9190614e43565b610f1f565b6040516104e39594939291906156ad565b60405180910390f35b61050660048036038101906105019190614d83565b610fd4565b005b610522600480360381019061051d9190614e43565b611071565b005b61053e60048036038101906105399190614d83565b611133565b005b61055a60048036038101906105559190614e43565b6111a2565b6040516105679190615117565b60405180910390f35b61058a60048036038101906105859190614e43565b611207565b6040516105979190615117565b60405180910390f35b6105ba60048036038101906105b59190614dec565b61126c565b6040516105c79190615713565b60405180910390f35b6105d8611289565b6040516105e59190615756565b60405180910390f35b61060860048036038101906106039190614e43565b6112a3565b005b610624600480360381019061061f9190614d83565b6116f6565b005b61062e611781565b60405161063b9190615756565b60405180910390f35b61064c61179b565b6040516106599190615713565b60405180910390f35b61066a6117a4565b6040516106779190615713565b60405180910390f35b61069a60048036038101906106959190614e43565b6117ad565b6040516106a79190615117565b60405180910390f35b6106b8611811565b6040516106c59190615713565b60405180910390f35b6106d661181a565b6040516106e39190615713565b60405180910390f35b61070660048036038101906107019190614e43565b611823565b6040516107179594939291906156ad565b60405180910390f35b61073a60048036038101906107359190614e43565b6118d8565b005b61074461199a565b6040516107519190615117565b60405180910390f35b610774600480360381019061076f9190614e66565b6119ad565b6040516107839392919061503d565b60405180910390f35b610794612144565b6040516107a19190615756565b60405180910390f35b6107b261215e565b6040516107bf9190615713565b60405180910390f35b6107e260048036038101906107dd9190614d83565b612167565b005b6107fe60048036038101906107f99190614d83565b6121d6565b005b610808612245565b6040516108159190615713565b60405180910390f35b61083860048036038101906108339190614e9e565b61224e565b005b610854600480360381019061084f9190614dbb565b6128ec565b005b610870600480360381019061086b9190614e43565b612901565b60405161087d9190615117565b60405180910390f35b61088e61291e565b005b6108aa60048036038101906108a59190614e43565b6129df565b005b6108b4612a82565b6040516108c19190615756565b60405180910390f35b6108e460048036038101906108df9190614e12565b612a9c565b005b61090060048036038101906108fb9190614e43565b612b1f565b60405161090d9190615117565b60405180910390f35b610930600480360381019061092b9190614dbb565b612b83565b005b61094c60048036038101906109479190614e43565b612b98565b005b61096860048036038101906109639190614e9e565b612fc4565b005b610984600480360381019061097f9190614d83565b61376e565b005b61098e6137e0565b60405161099b9190615756565b60405180910390f35b6109b26137fa63ffffffff16565b6109c061385a63ffffffff16565b5b5b565b7f000000000000000000000000000000000000000000000000000000000000000081565b60006109f9826138a463ffffffff16565b9050610a00565b919050565b610a136137fa63ffffffff16565b80600960086101000a81548167ffffffffffffffff021916908367ffffffffffffffff1602179055507fc41bd7d4803c68b43810c1acff639a83bc8d9f370d8aafaf52bf152c732e0caf81604051610a6b9190615756565b60405180910390a15b5b50565b60066000505481565b600160005060205280600052604060002060009150909054906101000a900460ff1681565b600c60109054906101000a900467ffffffffffffffff1681565b600060003073ffffffffffffffffffffffffffffffffffffffff167f000000000000000000000000000000000000000000000000000000000000000073ffffffffffffffffffffffffffffffffffffffff166385aa61036040518163ffffffff1660e01b815260040160206040518083038186803b158015610b425760006000fd5b505afa158015610b57573d600060003e3d6000fd5b505050506040513d601f19601f82011682018060405250810190610b7b9190614d0e565b73ffffffffffffffffffffffffffffffffffffffff16141515610bd3576040517f08c379a0000000000000000000000000000000000000000000000000000000008152600401610bca906152cb565b60405180910390fd5b60007f000000000000000000000000000000000000000000000000000000000000000073ffffffffffffffffffffffffffffffffffffffff166375172a8b6040518163ffffffff1660e01b815260040160206040518083038186803b158015610c3c5760006000fd5b505afa158015610c51573d600060003e3d6000fd5b505050506040513d601f19601f82011682018060405250810190610c759190614d9f565b905060007f000000000000000000000000000000000000000000000000000000000000000073ffffffffffffffffffffffffffffffffffffffff16639624e83e6040518163ffffffff1660e01b815260040160206040518083038186803b158015610ce05760006000fd5b505afa158015610cf5573d600060003e3d6000fd5b505050506040513d601f19601f82011682018060405250810190610d199190614ce7565b73ffffffffffffffffffffffffffffffffffffffff16630dca59c16040518163ffffffff1660e01b815260040160206040518083038186803b158015610d5f5760006000fd5b505afa158015610d74573d600060003e3d6000fd5b505050506040513d601f19601f82011682018060405250810190610d989190614d9f565b90506000610db46008600050548361391490919063ffffffff16565b90506000610dd06007600050548461391490919063ffffffff16565b90506000600a610de9838561393a90919063ffffffff16565b610df391906157c5565b905082610e0e600d600050548761393a90919063ffffffff16565b1115610e58578083600d6000505487610e279190615862565b610e319190615862565b610e3b9190615772565b96508650600460005054871015610e53576000965086505b610eb8565b81610e71600e600050548761395590919063ffffffff16565b1015610eb75780600e6000505486610e899190615772565b83610e949190615862565b610e9e9190615772565b95508550600460005054861015610eb6576000955085505b5b5b50505050505b9091565b600c60189054906101000a900463ffffffff1681565b600d6000505481565b600960009054906101000a900467ffffffffffffffff1681565b7f000000000000000000000000000000000000000000000000000000000000000081565b600a6000506020528060005260406000206000915090508060000160009054906101000a90046fffffffffffffffffffffffffffffffff16908060000160109054906101000a90046fffffffffffffffffffffffffffffffff16908060010160009054906101000a900473ffffffffffffffffffffffffffffffffffffffff16908060010160149054906101000a900465ffffffffffff169080600101601a9054906101000a900465ffffffffffff16905085565b610fe26137fa63ffffffff16565b80600460005081909090555060046000505460001015156110035760006000fd5b60056000505460046000505410151561101c5760006000fd5b6006600050546004600050541015156110355760006000fd5b7f4ef33b2d85532aa2e1ae3100d20137f031644ce9fdce16cef60da325607dd042816040516110649190615713565b60405180910390a15b5b50565b61107f6137fa63ffffffff16565b80600960186101000a81548167ffffffffffffffff021916908367ffffffffffffffff160217905550600960189054906101000a900467ffffffffffffffff1667ffffffffffffffff16600960109054906101000a900467ffffffffffffffff1667ffffffffffffffff161015156110f75760006000fd5b7f18f52500bf2819c004e98748a693e237955bc5aca194741a0d3954775257e869816040516111269190615756565b60405180910390a15b5b50565b6111416137fa63ffffffff16565b8060066000508190909055506006600050546004600050541015156111665760006000fd5b7f366fef0231e50d43e76d8b48806aa9f2b349a6ad9725d47012f8c2e8c37f23fb816040516111959190615713565b60405180910390a15b5b50565b60006111b3826138a463ffffffff16565b6111be5760006111fb565b6111f9600b60005060008467ffffffffffffffff1667ffffffffffffffff16815260200190815260200160002060005061397063ffffffff16565b155b9050611202565b919050565b6000611218826139ef63ffffffff16565b611223576000611260565b61125e600a60005060008467ffffffffffffffff1667ffffffffffffffff16815260200190815260200160002060005061397063ffffffff16565b155b9050611267565b919050565b600061127e8383613a5f63ffffffff16565b905080505b92915050565b600960189054906101000a900467ffffffffffffffff1681565b6112b1613af163ffffffff16565b6112bf613bce63ffffffff16565b6112ce816117ad63ffffffff16565b151561130f576040517f08c379a00000000000000000000000000000000000000000000000000000000081526004016113069061524d565b60405180910390fd5b6000600b60005060008367ffffffffffffffff1667ffffffffffffffff1681526020019081526020016000206000506040518060a00160405290816000820160009054906101000a90046fffffffffffffffffffffffffffffffff166fffffffffffffffffffffffffffffffff166fffffffffffffffffffffffffffffffff1681526020016000820160109054906101000a90046fffffffffffffffffffffffffffffffff166fffffffffffffffffffffffffffffffff166fffffffffffffffffffffffffffffffff1681526020016001820160009054906101000a900473ffffffffffffffffffffffffffffffffffffffff1673ffffffffffffffffffffffffffffffffffffffff1673ffffffffffffffffffffffffffffffffffffffff1681526020016001820160149054906101000a900465ffffffffffff1665ffffffffffff1665ffffffffffff16815260200160018201601a9054906101000a900465ffffffffffff1665ffffffffffff1665ffffffffffff16815260200150509050600073ffffffffffffffffffffffffffffffffffffffff16816040015173ffffffffffffffffffffffffffffffffffffffff16141580156114e75750600081602001516fffffffffffffffffffffffffffffffff16115b15611588577f000000000000000000000000000000000000000000000000000000000000000073ffffffffffffffffffffffffffffffffffffffff16634cd7a315826040015183602001516040518363ffffffff1660e01b815260040161154f929190614fcd565b600060405180830381600087803b15801561156a5760006000fd5b505af115801561157f573d600060003e3d6000fd5b505050506115c2565b6115b681600001516fffffffffffffffffffffffffffffffff16600e6000505461393a90919063ffffffff16565b600e6000508190909055505b806040015173ffffffffffffffffffffffffffffffffffffffff168267ffffffffffffffff167fd1b34ce351dc1a4cb6c40bb878ba19a12c4c44d35e7bdbeca7b5ebe947da312f60405160405180910390a3600b60005060008367ffffffffffffffff1667ffffffffffffffff16815260200190815260200160002060006000820160006101000a8154906fffffffffffffffffffffffffffffffff02191690556000820160106101000a8154906fffffffffffffffffffffffffffffffff02191690556001820160006101000a81549073ffffffffffffffffffffffffffffffffffffffff02191690556001820160146101000a81549065ffffffffffff021916905560018201601a6101000a81549065ffffffffffff02191690555050505b5b6116f2613c2363ffffffff16565b5b50565b6117046137fa63ffffffff16565b8060086000508190909055506008600050546007600050541015156117295760006000fd5b670de0b6b3a76400006008600050541015156117455760006000fd5b7f4bc8e401359fe0a4abb5d7751170f1b17eabe34299bc6311dedc5ac91cdf8dbf816040516117749190615713565b60405180910390a15b5b50565b600960109054906101000a900467ffffffffffffffff1681565b60086000505481565b60036000505481565b60006117be826138a463ffffffff16565b6117c9576000611805565b611804600b60005060008467ffffffffffffffff1667ffffffffffffffff16815260200190815260200160002060005061397063ffffffff16565b5b905061180c565b919050565b60056000505481565b60076000505481565b600b6000506020528060005260406000206000915090508060000160009054906101000a90046fffffffffffffffffffffffffffffffff16908060000160109054906101000a90046fffffffffffffffffffffffffffffffff16908060010160009054906101000a900473ffffffffffffffffffffffffffffffffffffffff16908060010160149054906101000a900465ffffffffffff169080600101601a9054906101000a900465ffffffffffff16905085565b6118e66137fa63ffffffff16565b80600960106101000a81548167ffffffffffffffff021916908367ffffffffffffffff160217905550600960189054906101000a900467ffffffffffffffff1667ffffffffffffffff16600960109054906101000a900467ffffffffffffffff1667ffffffffffffffff1610151561195e5760006000fd5b7fac2bc07b99cee6cd70e0c8cef6d433d70824a6a3d1eee502bc8938640a980a948160405161198d9190615756565b60405180910390a15b5b50565b600060009054906101000a900460ff1681565b6060606060606000846119d657600c60089054906101000a900467ffffffffffffffff166119ee565b600c60009054906101000a900467ffffffffffffffff165b67ffffffffffffffff169050600060008790505b828167ffffffffffffffff161015611a655786611a2d57611a28816138a463ffffffff16565b611a3d565b611a3c816139ef63ffffffff16565b5b15611a51578180611a4d906158b6565b9250505b5b8080611a5d906158f5565b915050611a02565b508067ffffffffffffffff811115611aa6577f4e487b7100000000000000000000000000000000000000000000000000000000600052604160045260246000fd5b604051908082528060200260200182016040528015611adf57816020015b611acc614bce565b815260200190600190039081611ac45790505b50945084508067ffffffffffffffff811115611b24577f4e487b7100000000000000000000000000000000000000000000000000000000600052604160045260246000fd5b604051908082528060200260200182016040528015611b525781602001602082028036833780820191505090505b50935083508067ffffffffffffffff811115611b97577f4e487b7100000000000000000000000000000000000000000000000000000000600052604160045260246000fd5b604051908082528060200260200182016040528015611bc55781602001602082028036833780820191505090505b5092508250600060008890505b838167ffffffffffffffff161015612138578715611e8257611bf9816139ef63ffffffff16565b1515611c0457612125565b600a60005060008267ffffffffffffffff1667ffffffffffffffff1681526020019081526020016000206000506040518060a00160405290816000820160009054906101000a90046fffffffffffffffffffffffffffffffff166fffffffffffffffffffffffffffffffff166fffffffffffffffffffffffffffffffff1681526020016000820160109054906101000a90046fffffffffffffffffffffffffffffffff166fffffffffffffffffffffffffffffffff166fffffffffffffffffffffffffffffffff1681526020016001820160009054906101000a900473ffffffffffffffffffffffffffffffffffffffff1673ffffffffffffffffffffffffffffffffffffffff1673ffffffffffffffffffffffffffffffffffffffff1681526020016001820160149054906101000a900465ffffffffffff1665ffffffffffff1665ffffffffffff16815260200160018201601a9054906101000a900465ffffffffffff1665ffffffffffff1665ffffffffffff16815260200150508783815181101515611dbc577f4e487b7100000000000000000000000000000000000000000000000000000000600052603260045260246000fd5b60200260200101819052508067ffffffffffffffff168683815181101515611e0d577f4e487b7100000000000000000000000000000000000000000000000000000000600052603260045260246000fd5b6020026020010190908181526020015050611e2d81612b1f63ffffffff16565b8583815181101515611e68577f4e487b7100000000000000000000000000000000000000000000000000000000600052603260045260246000fd5b602002602001019015159081151581526020015050612116565b611e91816138a463ffffffff16565b1515611e9c57612125565b600b60005060008267ffffffffffffffff1667ffffffffffffffff1681526020019081526020016000206000506040518060a00160405290816000820160009054906101000a90046fffffffffffffffffffffffffffffffff166fffffffffffffffffffffffffffffffff166fffffffffffffffffffffffffffffffff1681526020016000820160109054906101000a90046fffffffffffffffffffffffffffffffff166fffffffffffffffffffffffffffffffff166fffffffffffffffffffffffffffffffff1681526020016001820160009054906101000a900473ffffffffffffffffffffffffffffffffffffffff1673ffffffffffffffffffffffffffffffffffffffff1673ffffffffffffffffffffffffffffffffffffffff1681526020016001820160149054906101000a900465ffffffffffff1665ffffffffffff1665ffffffffffff16815260200160018201601a9054906101000a900465ffffffffffff1665ffffffffffff1665ffffffffffff16815260200150508783815181101515612054577f4e487b7100000000000000000000000000000000000000000000000000000000600052603260045260246000fd5b60200260200101819052508067ffffffffffffffff1686838151811015156120a5577f4e487b7100000000000000000000000000000000000000000000000000000000600052603260045260246000fd5b60200260200101909081815260200150506120c5816117ad63ffffffff16565b8583815181101515612100577f4e487b7100000000000000000000000000000000000000000000000000000000600052603260045260246000fd5b6020026020010190151590811515815260200150505b8180612121906158b6565b9250505b8080612130906158f5565b915050611bd2565b505050505b9250925092565b600c60089054906101000a900467ffffffffffffffff1681565b600e6000505481565b6121756137fa63ffffffff16565b80600760005081909090555060086000505460076000505410151561219a5760006000fd5b7f98de8134f58d0f83d8490533bdf2ea621691a0d73aa5af21c25f64e237d0510c816040516121c99190615713565b60405180910390a15b5b50565b6121e46137fa63ffffffff16565b8060056000508190909055506005600050546004600050541015156122095760006000fd5b7f1a947e1e83119fe73dfbcae0f4777aac4937059cc8fa08b6edad794bb2bbacd6816040516122389190615713565b60405180910390a15b5b50565b60046000505481565b61225c613af163ffffffff16565b61226a613bce63ffffffff16565b612279826111a263ffffffff16565b15156122ba576040517f08c379a00000000000000000000000000000000000000000000000000000000081526004016122b19061560b565b60405180910390fd5b6000600b60005060008467ffffffffffffffff1667ffffffffffffffff1681526020019081526020016000206000506040518060a00160405290816000820160009054906101000a90046fffffffffffffffffffffffffffffffff166fffffffffffffffffffffffffffffffff166fffffffffffffffffffffffffffffffff1681526020016000820160109054906101000a90046fffffffffffffffffffffffffffffffff166fffffffffffffffffffffffffffffffff166fffffffffffffffffffffffffffffffff1681526020016001820160009054906101000a900473ffffffffffffffffffffffffffffffffffffffff1673ffffffffffffffffffffffffffffffffffffffff1673ffffffffffffffffffffffffffffffffffffffff1681526020016001820160149054906101000a900465ffffffffffff1665ffffffffffff1665ffffffffffff16815260200160018201601a9054906101000a900465ffffffffffff1665ffffffffffff1665ffffffffffff1681526020015050905060003390506000600073ffffffffffffffffffffffffffffffffffffffff16836040015173ffffffffffffffffffffffffffffffffffffffff16141561256b576124b3600a6124a585600001516fffffffffffffffffffffffffffffffff16613cb563ffffffff16565b613e1190919063ffffffff16565b846fffffffffffffffffffffffffffffffff16101515612508576040517f08c379a00000000000000000000000000000000000000000000000000000000081526004016124ff9061546b565b60405180910390fd5b61253683600001516fffffffffffffffffffffffffffffffff16600e6000505461393a90919063ffffffff16565b600e6000508190909055507f0000000000000000000000000000000000000000000000000000000000000000905080506125f9565b61259960036000505484602001516fffffffffffffffffffffffffffffffff16613e2c90919063ffffffff16565b846fffffffffffffffffffffffffffffffff16111515156125ef576040517f08c379a00000000000000000000000000000000000000000000000000000000081526004016125e69061528c565b60405180910390fd5b8260400151905080505b81836040019073ffffffffffffffffffffffffffffffffffffffff16908173ffffffffffffffffffffffffffffffffffffffff16815260200150508383602001906fffffffffffffffffffffffffffffffff1690816fffffffffffffffffffffffffffffffff168152602001505060006126a8612691600960089054906101000a900467ffffffffffffffff16613e5263ffffffff16565b67ffffffffffffffff16613e88909063ffffffff16565b90508065ffffffffffff16846060015165ffffffffffff1610156126e65780846060019065ffffffffffff16908165ffffffffffff16815260200150505b83600b60005060008867ffffffffffffffff1667ffffffffffffffff16815260200190815260200160002060005060008201518160000160006101000a8154816fffffffffffffffffffffffffffffffff02191690836fffffffffffffffffffffffffffffffff16021790555060208201518160000160106101000a8154816fffffffffffffffffffffffffffffffff02191690836fffffffffffffffffffffffffffffffff16021790555060408201518160010160006101000a81548173ffffffffffffffffffffffffffffffffffffffff021916908373ffffffffffffffffffffffffffffffffffffffff16021790555060608201518160010160146101000a81548165ffffffffffff021916908365ffffffffffff160217905550608082015181600101601a6101000a81548165ffffffffffff021916908365ffffffffffff16021790555090505061287a7f0000000000000000000000000000000000000000000000000000000000000000848487600001516fffffffffffffffffffffffffffffffff16613ee263ffffffff16565b8273ffffffffffffffffffffffffffffffffffffffff168667ffffffffffffffff167f3e40664282966c0a42567d60514e22e8d06206cbcaa7d79f53dc8fcd8c724246876040516128cb9190615689565b60405180910390a3505050505b5b6128e7613c2363ffffffff16565b5b5050565b6128fc8282613f7263ffffffff16565b5b5050565b6000612912826139ef63ffffffff16565b9050612919565b919050565b61292c613af163ffffffff16565b61293a6144cc63ffffffff16565b6000600061294c610ac063ffffffff16565b91509150600082111561296f5761296a8260016145bf63ffffffff16565b6129ca565b600081111561298e576129898160006145bf63ffffffff16565b6129c9565b6040517f08c379a00000000000000000000000000000000000000000000000000000000081526004016129c090615567565b60405180910390fd5b5b50505b5b6129dc613c2363ffffffff16565b5b565b6129ed6137fa63ffffffff16565b80600960006101000a81548167ffffffffffffffff021916908367ffffffffffffffff1602179055506000600960009054906101000a900467ffffffffffffffff1667ffffffffffffffff16111515612a465760006000fd5b7f6e9f93976a1fde110a0da07558361d4ab428d9b65b5c53d5c09c0cf5f69a32f981604051612a759190615756565b60405180910390a15b5b50565b600c60009054906101000a900467ffffffffffffffff1681565b612aaa6137fa63ffffffff16565b61012c8163ffffffff1610151515612ac25760006000fd5b80600c60186101000a81548163ffffffff021916908363ffffffff1602179055507f670aac3910a07dcfe5267c8b0bf2357abdb454e509764d13e94e85ee13c6da2081604051612b12919061573e565b60405180910390a15b5b50565b6000612b30826139ef63ffffffff16565b612b3b576000612b77565b612b76600a60005060008467ffffffffffffffff1667ffffffffffffffff16815260200190815260200160002060005061397063ffffffff16565b5b9050612b7e565b919050565b612b9382826145bf63ffffffff16565b5b5050565b612ba6613af163ffffffff16565b612bb4613bce63ffffffff16565b612bc381612b1f63ffffffff16565b1515612c04576040517f08c379a0000000000000000000000000000000000000000000000000000000008152600401612bfb9061524d565b60405180910390fd5b6000600a60005060008367ffffffffffffffff1667ffffffffffffffff1681526020019081526020016000206000506040518060a00160405290816000820160009054906101000a90046fffffffffffffffffffffffffffffffff166fffffffffffffffffffffffffffffffff166fffffffffffffffffffffffffffffffff1681526020016000820160109054906101000a90046fffffffffffffffffffffffffffffffff166fffffffffffffffffffffffffffffffff166fffffffffffffffffffffffffffffffff1681526020016001820160009054906101000a900473ffffffffffffffffffffffffffffffffffffffff1673ffffffffffffffffffffffffffffffffffffffff1673ffffffffffffffffffffffffffffffffffffffff1681526020016001820160149054906101000a900465ffffffffffff1665ffffffffffff1665ffffffffffff16815260200160018201601a9054906101000a900465ffffffffffff1665ffffffffffff1665ffffffffffff16815260200150509050612db381600001516fffffffffffffffffffffffffffffffff16600d6000505461393a90919063ffffffff16565b600d600050819090905550600073ffffffffffffffffffffffffffffffffffffffff16816040015173ffffffffffffffffffffffffffffffffffffffff16141515612e90577f000000000000000000000000000000000000000000000000000000000000000073ffffffffffffffffffffffffffffffffffffffff166316f9428f826040015183600001516040518363ffffffff1660e01b8152600401612e5b929190614fcd565b600060405180830381600087803b158015612e765760006000fd5b505af1158015612e8b573d600060003e3d6000fd5b505050505b806040015173ffffffffffffffffffffffffffffffffffffffff168267ffffffffffffffff167f596e5ff4197d4a01b2406d4c0717653cbc9166cf6ab2bdf78272eb99d191a09360405160405180910390a3600a60005060008367ffffffffffffffff1667ffffffffffffffff16815260200190815260200160002060006000820160006101000a8154906fffffffffffffffffffffffffffffffff02191690556000820160106101000a8154906fffffffffffffffffffffffffffffffff02191690556001820160006101000a81549073ffffffffffffffffffffffffffffffffffffffff02191690556001820160146101000a81549065ffffffffffff021916905560018201601a6101000a81549065ffffffffffff02191690555050505b5b612fc0613c2363ffffffff16565b5b50565b612fd2613af163ffffffff16565b612fe0613bce63ffffffff16565b612fef8261120763ffffffff16565b1515613030576040517f08c379a00000000000000000000000000000000000000000000000000000000081526004016130279061560b565b60405180910390fd5b60003390506000600a60005060008567ffffffffffffffff1667ffffffffffffffff1681526020019081526020016000206000506040518060a00160405290816000820160009054906101000a90046fffffffffffffffffffffffffffffffff166fffffffffffffffffffffffffffffffff166fffffffffffffffffffffffffffffffff1681526020016000820160109054906101000a90046fffffffffffffffffffffffffffffffff166fffffffffffffffffffffffffffffffff166fffffffffffffffffffffffffffffffff1681526020016001820160009054906101000a900473ffffffffffffffffffffffffffffffffffffffff1673ffffffffffffffffffffffffffffffffffffffff1673ffffffffffffffffffffffffffffffffffffffff1681526020016001820160149054906101000a900465ffffffffffff1665ffffffffffff1665ffffffffffff16815260200160018201601a9054906101000a900465ffffffffffff1665ffffffffffff1665ffffffffffff16815260200150509050600060006000600073ffffffffffffffffffffffffffffffffffffffff16846040015173ffffffffffffffffffffffffffffffffffffffff16141561329757600a61321c85600001516fffffffffffffffffffffffffffffffff16613cb563ffffffff16565b61322691906157c5565b866fffffffffffffffffffffffffffffffff1611151561327b576040517f08c379a00000000000000000000000000000000000000000000000000000000081526004016132729061520e565b60405180910390fd5b856fffffffffffffffffffffffffffffffff169250825061336d565b6132c560036000505485602001516fffffffffffffffffffffffffffffffff1661391490919063ffffffff16565b866fffffffffffffffffffffffffffffffff161015151561331b576040517f08c379a00000000000000000000000000000000000000000000000000000000081526004016133129061530a565b60405180910390fd5b8360200151915081508360400151905080506133568460200151876fffffffffffffffffffffffffffffffff1661468d90919063ffffffff16565b6fffffffffffffffffffffffffffffffff16925082505b84846040019073ffffffffffffffffffffffffffffffffffffffff16908173ffffffffffffffffffffffffffffffffffffffff16815260200150508584602001906fffffffffffffffffffffffffffffffff1690816fffffffffffffffffffffffffffffffff1681526020015050600061341c613405600960089054906101000a900467ffffffffffffffff16613e5263ffffffff16565b67ffffffffffffffff16613e88909063ffffffff16565b90508065ffffffffffff16856060015165ffffffffffff16101561345a5780856060019065ffffffffffff16908165ffffffffffff16815260200150505b84600a60005060008a67ffffffffffffffff1667ffffffffffffffff16815260200190815260200160002060005060008201518160000160006101000a8154816fffffffffffffffffffffffffffffffff02191690836fffffffffffffffffffffffffffffffff16021790555060208201518160000160106101000a8154816fffffffffffffffffffffffffffffffff02191690836fffffffffffffffffffffffffffffffff16021790555060408201518160010160006101000a81548173ffffffffffffffffffffffffffffffffffffffff021916908373ffffffffffffffffffffffffffffffffffffffff16021790555060608201518160010160146101000a81548165ffffffffffff021916908365ffffffffffff160217905550608082015181600101601a6101000a81548165ffffffffffff021916908365ffffffffffff16021790555090505060007f000000000000000000000000000000000000000000000000000000000000000073ffffffffffffffffffffffffffffffffffffffff166336fc02f46040518163ffffffff1660e01b815260040160206040518083038186803b15801561360f5760006000fd5b505afa158015613624573d600060003e3d6000fd5b505050506040513d601f19601f820116820180604052508101906136489190614d5c565b90506000846fffffffffffffffffffffffffffffffff16111561368a57613689818885876fffffffffffffffffffffffffffffffff16613ee263ffffffff16565b5b8073ffffffffffffffffffffffffffffffffffffffff166379cc679088876040518363ffffffff1660e01b81526004016136c592919061500e565b600060405180830381600087803b1580156136e05760006000fd5b505af11580156136f5573d600060003e3d6000fd5b505050508673ffffffffffffffffffffffffffffffffffffffff168967ffffffffffffffff167fd428196c29fb7877242c66ff296d926b10a5051d369acf8fe5eb3ea21bb6ec988a60405161374a9190615689565b60405180910390a3505050505050505b5b613769613c2363ffffffff16565b5b5050565b61377c6137fa63ffffffff16565b806003600050819090905550670de0b6b3a76400006003600050541115156137a45760006000fd5b7fbd478b21e3ce5dd7a0c7b139cab55a02b5b6c2f952b522fcea53df127ac14be9816040516137d39190615713565b60405180910390a15b5b50565b600960089054906101000a900467ffffffffffffffff1681565b6138577f000000000000000000000000000000000000000000000000000000000000000073ffffffffffffffffffffffffffffffffffffffff163373ffffffffffffffffffffffffffffffffffffffff16146146a863ffffffff16565b5b565b6001600060006101000a81548160ff0219169083151502179055507f7acc84e34091ae817647a4c49116f5cc07f319078ba80f8f5fde37ea7e25cbd660405160405180910390a15b565b60006000600b60005060008467ffffffffffffffff1667ffffffffffffffff16815260200190815260200160002060005060000160009054906101000a90046fffffffffffffffffffffffffffffffff166fffffffffffffffffffffffffffffffff1611905061390f565b919050565b600061392f8383670de0b6b3a76400006146ee63ffffffff16565b905080505b92915050565b600081836139489190615862565b905061394f565b92915050565b600081836139639190615772565b905061396a565b92915050565b6000600061398261481263ffffffff16565b90508067ffffffffffffffff168360010160149054906101000a900465ffffffffffff1665ffffffffffff1610806139e157508067ffffffffffffffff1683600101601a9054906101000a900465ffffffffffff1665ffffffffffff16105b9150506139ea56505b919050565b60006000600a60005060008467ffffffffffffffff1667ffffffffffffffff16815260200190815260200160002060005060000160009054906101000a90046fffffffffffffffffffffffffffffffff166fffffffffffffffffffffffffffffffff16119050613a5a565b919050565b60006000613a96600960009054906101000a900467ffffffffffffffff1667ffffffffffffffff1684613e1190919063ffffffff16565b905060008385613aa69190615922565b905060006004600050548210613abc5785613ac9565b8186613ac89190615862565b5b9050613ade818461482d90919063ffffffff16565b9350505050613aeb565050505b92915050565b7f000000000000000000000000000000000000000000000000000000000000000073ffffffffffffffffffffffffffffffffffffffff1663e97dcb626040518163ffffffff1660e01b8152600401600060405180830381600087803b158015613b5a5760006000fd5b505af1158015613b6f573d600060003e3d6000fd5b50505050600260026000505414151515613bbe576040517f08c379a0000000000000000000000000000000000000000000000000000000008152600401613bb59061542c565b60405180910390fd5b600260026000508190909055505b565b600060009054906101000a900460ff16151515613c20576040517f08c379a0000000000000000000000000000000000000000000000000000000008152600401613c17906154e9565b60405180910390fd5b5b565b600160026000508190909055507f000000000000000000000000000000000000000000000000000000000000000073ffffffffffffffffffffffffffffffffffffffff1663e9fad8ee6040518163ffffffff1660e01b8152600401600060405180830381600087803b158015613c995760006000fd5b505af1158015613cae573d600060003e3d6000fd5b505050505b565b6000613e057f000000000000000000000000000000000000000000000000000000000000000073ffffffffffffffffffffffffffffffffffffffff1663d3419bf36040518163ffffffff1660e01b815260040160206040518083038186803b158015613d215760006000fd5b505afa158015613d36573d600060003e3d6000fd5b505050506040513d601f19601f82011682018060405250810190613d5a9190614d35565b73ffffffffffffffffffffffffffffffffffffffff16638d02a08a600c60189054906101000a900463ffffffff166040518263ffffffff1660e01b8152600401613da4919061573e565b60206040518083038186803b158015613dbd5760006000fd5b505afa158015613dd2573d600060003e3d6000fd5b505050506040513d601f19601f82011682018060405250810190613df69190614d9f565b83613e2c90919063ffffffff16565b9050613e0c565b919050565b60008183613e1f91906157e3565b9050613e26565b92915050565b6000613e4783670de0b6b3a7640000846146ee63ffffffff16565b905080505b92915050565b6000613e7e82613e6661481263ffffffff16565b67ffffffffffffffff1661484b90919063ffffffff16565b905080505b919050565b6000660100000000000082101515613ed5576040517f08c379a0000000000000000000000000000000000000000000000000000000008152600401613ecc90615349565b60405180910390fd5b819050613edd565b919050565b613f6b846323b872dd60e01b858585604051602401613f0393929190614f93565b604051602081830303815290604052907bffffffffffffffffffffffffffffffffffffffffffffffffffffffff19166020820180517bffffffffffffffffffffffffffffffffffffffffffffffffffffffff838183161783525050505061486663ffffffff16565b5b50505050565b6000613f99600960189054906101000a900467ffffffffffffffff16613e5263ffffffff16565b90508067ffffffffffffffff16600c60109054906101000a900467ffffffffffffffff1667ffffffffffffffff161015613ff75780600c60106101000a81548167ffffffffffffffff021916908367ffffffffffffffff1602179055505b60006040518060a0016040528061401586614933909063ffffffff16565b6fffffffffffffffffffffffffffffffff16815260200160006fffffffffffffffffffffffffffffffff168152602001600073ffffffffffffffffffffffffffffffffffffffff1681526020016140a161408a600960109054906101000a900467ffffffffffffffff16613e5263ffffffff16565b67ffffffffffffffff16613e88909063ffffffff16565b65ffffffffffff1681526020016140c98467ffffffffffffffff16613e88909063ffffffff16565b65ffffffffffff16815260200150905082156142d45780600a6000506000600c60009054906101000a900467ffffffffffffffff1667ffffffffffffffff1667ffffffffffffffff16815260200190815260200160002060005060008201518160000160006101000a8154816fffffffffffffffffffffffffffffffff02191690836fffffffffffffffffffffffffffffffff16021790555060208201518160000160106101000a8154816fffffffffffffffffffffffffffffffff02191690836fffffffffffffffffffffffffffffffff16021790555060408201518160010160006101000a81548173ffffffffffffffffffffffffffffffffffffffff021916908373ffffffffffffffffffffffffffffffffffffffff16021790555060608201518160010160146101000a81548165ffffffffffff021916908365ffffffffffff160217905550608082015181600101601a6101000a81548165ffffffffffff021916908365ffffffffffff16021790555090505083600c600081819054906101000a900467ffffffffffffffff1680929190614268906158f5565b91906101000a81548167ffffffffffffffff021916908367ffffffffffffffff16021790555067ffffffffffffffff167fb706108f90fb9e0fadc5f3feaa02b4c23b9d569ad7b46408c64eb4f224eba7cd846040516142c79190615756565b60405180910390a36144c5565b80600b6000506000600c60089054906101000a900467ffffffffffffffff1667ffffffffffffffff1667ffffffffffffffff16815260200190815260200160002060005060008201518160000160006101000a8154816fffffffffffffffffffffffffffffffff02191690836fffffffffffffffffffffffffffffffff16021790555060208201518160000160106101000a8154816fffffffffffffffffffffffffffffffff02191690836fffffffffffffffffffffffffffffffff16021790555060408201518160010160006101000a81548173ffffffffffffffffffffffffffffffffffffffff021916908373ffffffffffffffffffffffffffffffffffffffff16021790555060608201518160010160146101000a81548165ffffffffffff021916908365ffffffffffff160217905550608082015181600101601a6101000a81548165ffffffffffff021916908365ffffffffffff16021790555090505083600c600881819054906101000a900467ffffffffffffffff168092919061445d906158f5565b91906101000a81548167ffffffffffffffff021916908367ffffffffffffffff16021790555067ffffffffffffffff167f4e673c0fa7786d8c4c1cba0d1678d726ef2cb772cc6abbe3cea73c1a6d9a681e846040516144bc9190615756565b60405180910390a35b50505b5050565b6144da613bce63ffffffff16565b7f000000000000000000000000000000000000000000000000000000000000000073ffffffffffffffffffffffffffffffffffffffff1663bf86d6906040518163ffffffff1660e01b815260040160206040518083038186803b1580156145415760006000fd5b505afa158015614556573d600060003e3d6000fd5b505050506040513d601f19601f8201168201806040525081019061457a9190614c73565b1515156145bc576040517f08c379a00000000000000000000000000000000000000000000000000000000081526004016145b3906151cf565b60405180910390fd5b5b565b6000816145d1576006600050546145d8565b6005600050545b90506145ea8382613a5f63ffffffff16565b92508250811561461c5761460c83600d6000505461395590919063ffffffff16565b600d600050819090905550614640565b61463483600e6000505461395590919063ffffffff16565b600e6000508190909055505b60005b614656828561482d90919063ffffffff16565b9050805061466a8184613f7263ffffffff16565b80846146769190615862565b935083505b600084111515614643575b50505b5050565b6000818361469b9190615828565b90506146a2565b92915050565b8015156146ea576040517f08c379a00000000000000000000000000000000000000000000000000000000081526004016146e1906153ed565b60405180910390fd5b5b50565b6000600060006000198587098587029250828110838203039150506000811415614731576000841115156147225760006000fd5b8382049250829250505061480b565b80841115156147405760006000fd5b60008486880990508281118203915080830392506000856001877fffffffffffffffffffffffffffffffffffffffffffffffffffffffffffffffff03011690508050808604955080840493506001818260000304019050808302841793508350600060028760030218905080870260020381029050805080870260020381029050805080870260020381029050805080870260020381029050805080870260020381029050805080870260020381029050805080850295508550508494505050505061480b56505050505b9392505050565b600061482542614997909063ffffffff16565b905080505b90565b600081831061483c578161483e565b825b9050614845565b92915050565b600081836148599190615792565b9050614860565b92915050565b60006148cb826040518060400160405280602081526020017f5361666545524332303a206c6f772d6c6576656c2063616c6c206661696c65648152602001508573ffffffffffffffffffffffffffffffffffffffff166149f39092919063ffffffff16565b905060008151111561492d57808060200190518101906148eb9190614c73565b151561492c576040517f08c379a0000000000000000000000000000000000000000000000000000000008152600401614923906155a6565b60405180910390fd5b5b505b5050565b60007001000000000000000000000000000000008210151561498a576040517f08c379a0000000000000000000000000000000000000000000000000000000008152600401614981906154aa565b60405180910390fd5b819050614992565b919050565b600068010000000000000000821015156149e6576040517f08c379a00000000000000000000000000000000000000000000000000000000081526004016149dd9061564a565b60405180910390fd5b8190506149ee565b919050565b6060614a088484600085614a1663ffffffff16565b9050614a0f565b9392505050565b6060824710151515614a5d576040517f08c379a0000000000000000000000000000000000000000000000000000000008152600401614a5490615388565b60405180910390fd5b614a6c85614b4263ffffffff16565b1515614aad576040517f08c379a0000000000000000000000000000000000000000000000000000000008152600401614aa490615528565b60405180910390fd5b600060008673ffffffffffffffffffffffffffffffffffffffff168587604051614ad79190614f74565b60006040518083038185875af1925050503d8060008114614b14576040519150601f19603f3d011682016040523d82523d6000602084013e614b19565b606091505b5091509150614b2f828286614b5c63ffffffff16565b92505050614b3a5650505b949350505050565b60006000823b905060008111915050614b5756505b919050565b60608315614b7057829050614bc756614bc6565b600083511115614b885782518084602001fd50614bc5565b816040517f08c379a0000000000000000000000000000000000000000000000000000000008152600401614bbc919061517b565b60405180910390fd5b5b5b9392505050565b6040518060a0016040528060006fffffffffffffffffffffffffffffffff16815260200160006fffffffffffffffffffffffffffffffff168152602001600073ffffffffffffffffffffffffffffffffffffffff168152602001600065ffffffffffff168152602001600065ffffffffffff1681526020015090566159e0565b60008135905067ffffffffffffffff811681141515614c6d5760006000fd5b5b919050565b600060208284031215614c84578081fd5b8151614c8f816159a2565b809150505b92915050565b600060208284031215614cab578081fd5b81357fffffffff00000000000000000000000000000000000000000000000000000000811681141515614cdc578182fd5b809150505b92915050565b600060208284031215614cf8578081fd5b8151614d03816159b7565b809150505b92915050565b600060208284031215614d1f578081fd5b8151614d2a816159b7565b809150505b92915050565b600060208284031215614d46578081fd5b8151614d51816159b7565b809150505b92915050565b600060208284031215614d6d578081fd5b8151614d78816159b7565b809150505b92915050565b600060208284031215614d94578081fd5b813590505b92915050565b600060208284031215614db0578081fd5b815190505b92915050565b6000600060408385031215614dce578081fd5b823591506020830135614de0816159a2565b809150505b9250929050565b6000600060408385031215614dff578182fd5b82359150602083013590505b9250929050565b600060208284031215614e23578081fd5b813563ffffffff811681141515614e38578182fd5b809150505b92915050565b600060208284031215614e54578081fd5b614e5d82614c4e565b90505b92915050565b6000600060408385031215614e79578182fd5b614e8283614c4e565b91506020830135614e92816159a2565b809150505b9250929050565b6000600060408385031215614eb1578182fd5b614eba83614c4e565b915060208301356fffffffffffffffffffffffffffffffff811681141515614ee0578182fd5b809150505b9250929050565b6000815180845260208085019450808401835b83811015614f2357815115158752828701965082820191505b600181019050614eff565b505050508290505b92915050565b6000815180845260208085019450808401835b83811015614f665781518752828701965082820191505b600181019050614f44565b505050508290505b92915050565b60008251614f86818460208701615881565b8083019150505b92915050565b600060608201905073ffffffffffffffffffffffffffffffffffffffff80861683528085166020840152508260408301525b949350505050565b600060408201905073ffffffffffffffffffffffffffffffffffffffff841682526fffffffffffffffffffffffffffffffff831660208301525b9392505050565b600060408201905073ffffffffffffffffffffffffffffffffffffffff841682528260208301525b9392505050565b600060608083018184528087518083526080925082860191506020808a01865b838110156150e05781516fffffffffffffffffffffffffffffffff8082511687528085830151168588015250604073ffffffffffffffffffffffffffffffffffffffff818301511681880152508781015165ffffffffffff8082168a8901528089840151168989015250505060a08501945082820191505b60018101905061505d565b50508683038188015250506150f58188614f31565b92505050828103604084015261510b8185614eec565b9150505b949350505050565b600060208201905082151582525b92915050565b600060208201905073ffffffffffffffffffffffffffffffffffffffff831682525b92915050565b600060208201905073ffffffffffffffffffffffffffffffffffffffff831682525b92915050565b602081526000825180602084015261519a816040850160208701615881565b60407fffffffffffffffffffffffffffffffffffffffffffffffffffffffffffffffe0601f8301168401019150505b92915050565b60208152601160208201527f50726f746f636f6c2073687574646f776e000000000000000000000000000000604082015260006060820190505b919050565b60208152600b60208201527f42696420746f6f206c6f77000000000000000000000000000000000000000000604082015260006060820190505b919050565b60208152601460208201527f41756374696f6e206e6f7420636f6d706c657465000000000000000000000000604082015260006060820190505b919050565b60208152601160208201527f446964206e6f7420756e64657220626964000000000000000000000000000000604082015260006060820190505b919050565b60208152601360208201527f557365206c617465737420636f6e747261637400000000000000000000000000604082015260006060820190505b919050565b60208152600f60208201527f446964206e6f74206f7574206269640000000000000000000000000000000000604082015260006060820190505b919050565b60208152601160208201527f6d6f7265207468616e2034382062697473000000000000000000000000000000604082015260006060820190505b919050565b60208152602660208201527f416464726573733a20696e73756666696369656e742062616c616e636520666f60408201527f722063616c6c0000000000000000000000000000000000000000000000000000606082015260006080820190505b919050565b60208152600e60208201527f4e6f7420417574686f72697a6564000000000000000000000000000000000000604082015260006060820190505b919050565b60208152600d60208201527f4c50205265656e7472616e637900000000000000000000000000000000000000604082015260006060820190505b919050565b60208152600c60208201527f42696420746f6f20686967680000000000000000000000000000000000000000604082015260006060820190505b919050565b60208152601260208201527f6d6f7265207468616e2031323820626974730000000000000000000000000000604082015260006060820190505b919050565b60208152601360208201527f436f6e74726163742069732073746f7070656400000000000000000000000000604082015260006060820190505b919050565b60208152601d60208201527f416464726573733a2063616c6c20746f206e6f6e2d636f6e7472616374000000604082015260006060820190505b919050565b60208152601460208201527f4e6f2061756374696f6e7320746f207374617274000000000000000000000000604082015260006060820190505b919050565b60208152602a60208201527f5361666545524332303a204552433230206f7065726174696f6e20646964206e60408201527f6f74207375636365656400000000000000000000000000000000000000000000606082015260006080820190505b919050565b60208152601060208201527f41756374696f6e206e6f74206c69766500000000000000000000000000000000604082015260006060820190505b919050565b60208152601160208201527f6d6f7265207468616e2036342062697473000000000000000000000000000000604082015260006060820190505b919050565b60006020820190506fffffffffffffffffffffffffffffffff831682525b92915050565b600060a0820190506fffffffffffffffffffffffffffffffff808816835280871660208401525073ffffffffffffffffffffffffffffffffffffffff8516604083015265ffffffffffff80851660608401528084166080840152505b9695505050505050565b60006020820190508282525b92915050565b60006040820190508382528260208301525b9392505050565b600060208201905063ffffffff831682525b92915050565b600060208201905067ffffffffffffffff831682525b92915050565b6000821982111561578657615785615940565b5b82820190505b92915050565b600067ffffffffffffffff8083168185168083038211156157b6576157b5615940565b5b80820193505050505b92915050565b60008215156157d7576157d6615971565b5b82820490505b92915050565b6000817fffffffffffffffffffffffffffffffffffffffffffffffffffffffffffffffff048311821515161561581c5761581b615940565b5b82820290505b92915050565b60006fffffffffffffffffffffffffffffffff80831681851691508181101561585457615853615940565b5b818103925050505b92915050565b60008282101561587557615874615940565b5b82820390505b92915050565b60005b838110156158a05780820151818401525b602081019050615884565b838111156158af576000848401525b505050505b565b60007fffffffffffffffffffffffffffffffffffffffffffffffffffffffffffffffff8214156158e9576158e8615940565b5b6001820190505b919050565b600067ffffffffffffffff8083168181141561591457615913615940565b5b60018101925050505b919050565b600082151561593457615933615971565b5b82820690505b92915050565b7f4e487b7100000000000000000000000000000000000000000000000000000000600052601160045260246000fd5b565b7f4e487b7100000000000000000000000000000000000000000000000000000000600052601260045260246000fd5b565b801515811415156159b35760006000fd5b505b565b73ffffffffffffffffffffffffffffffffffffffff8116811415156159dc5760006000fd5b505b565bfea2646970667358221220fb447408f6b617b13d7842eaf5ff9c907bc103f183851bf8391892d9e138a38e64736f6c63430008040033",
  "linkReferences": {},
  "deployedLinkReferences": {}
}