{
  "_format": "hh-sol-artifact-1",
  "contractName": "AuctionsTestable",
  "sourceName": "contracts/core/mocks/AuctionsTestable.sol",
  "abi": [
    {
      "inputs": [
        {
          "components": [
            {
              "internalType": "contract IGovernor",
              "name": "Governor",
              "type": "address"
            },
            {
              "internalType": "contract IProtocolLock",
              "name": "ProtocolLock",
              "type": "address"
            },
            {
              "internalType": "contract IHue",
              "name": "Hue",
              "type": "address"
            }
          ],
          "internalType": "struct IAuctions.ConstructorParams",
          "name": "params",
          "type": "tuple"
        }
      ],
      "stateMutability": "nonpayable",
      "type": "constructor"
    },
    {
      "anonymous": false,
      "inputs": [
        {
          "indexed": true,
          "internalType": "uint64",
          "name": "auctionID",
          "type": "uint64"
        },
        {
          "indexed": true,
          "internalType": "address",
          "name": "bidder",
          "type": "address"
        },
        {
          "indexed": false,
          "internalType": "uint256",
          "name": "bid",
          "type": "uint256"
        }
      ],
      "name": "DeficitAuctionBid",
      "type": "event"
    },
    {
      "anonymous": false,
      "inputs": [
        {
          "indexed": true,
          "internalType": "uint64",
          "name": "auctionID",
          "type": "uint64"
        },
        {
          "indexed": true,
          "internalType": "address",
          "name": "winner",
          "type": "address"
        }
      ],
      "name": "DeficitAuctionSettled",
      "type": "event"
    },
    {
      "anonymous": false,
      "inputs": [
        {
          "indexed": true,
          "internalType": "uint64",
          "name": "auctionID",
          "type": "uint64"
        },
        {
          "indexed": true,
          "internalType": "uint256",
          "name": "count",
          "type": "uint256"
        },
        {
          "indexed": false,
          "internalType": "uint64",
          "name": "maxEndTime",
          "type": "uint64"
        }
      ],
      "name": "DeficitAuctionStarted",
      "type": "event"
    },
    {
      "anonymous": false,
      "inputs": [
        {
          "indexed": false,
          "internalType": "uint64",
          "name": "extension",
          "type": "uint64"
        }
      ],
      "name": "ExtensionPerBidUpdated",
      "type": "event"
    },
    {
      "anonymous": false,
      "inputs": [
        {
          "indexed": false,
          "internalType": "uint64",
          "name": "duration",
          "type": "uint64"
        }
      ],
      "name": "MaxAuctionDurationUpdated",
      "type": "event"
    },
    {
      "anonymous": false,
      "inputs": [
        {
          "indexed": false,
          "internalType": "uint64",
          "name": "size",
          "type": "uint64"
        }
      ],
      "name": "MaxBatchSizeUpdated",
      "type": "event"
    },
    {
      "anonymous": false,
      "inputs": [
        {
          "indexed": false,
          "internalType": "uint256",
          "name": "size",
          "type": "uint256"
        }
      ],
      "name": "MaxSurplusLotSizeUpdated",
      "type": "event"
    },
    {
      "anonymous": false,
      "inputs": [
        {
          "indexed": false,
          "internalType": "uint64",
          "name": "duration",
          "type": "uint64"
        }
      ],
      "name": "MinAuctionDurationUpdated",
      "type": "event"
    },
    {
      "anonymous": false,
      "inputs": [
        {
          "indexed": false,
          "internalType": "uint256",
          "name": "delta",
          "type": "uint256"
        }
      ],
      "name": "MinBidDeltaUpdated",
      "type": "event"
    },
    {
      "anonymous": false,
      "inputs": [
        {
          "indexed": false,
          "internalType": "uint256",
          "name": "size",
          "type": "uint256"
        }
      ],
      "name": "MinLotSizeUpdated",
      "type": "event"
    },
    {
      "anonymous": false,
      "inputs": [
        {
          "indexed": false,
          "internalType": "uint256",
          "name": "bound",
          "type": "uint256"
        }
      ],
      "name": "ReservesBufferLowerBoundUpdated",
      "type": "event"
    },
    {
      "anonymous": false,
      "inputs": [
        {
          "indexed": false,
          "internalType": "uint256",
          "name": "bound",
          "type": "uint256"
        }
      ],
      "name": "ReservesBufferUpperBoundUpdated",
      "type": "event"
    },
    {
      "anonymous": false,
      "inputs": [],
      "name": "Stopped",
      "type": "event"
    },
    {
      "anonymous": false,
      "inputs": [
        {
          "indexed": true,
          "internalType": "uint64",
          "name": "auctionID",
          "type": "uint64"
        },
        {
          "indexed": true,
          "internalType": "address",
          "name": "bidder",
          "type": "address"
        },
        {
          "indexed": false,
          "internalType": "uint256",
          "name": "bid",
          "type": "uint256"
        }
      ],
      "name": "SurplusAuctionBid",
      "type": "event"
    },
    {
      "anonymous": false,
      "inputs": [
        {
          "indexed": true,
          "internalType": "uint64",
          "name": "auctionID",
          "type": "uint64"
        },
        {
          "indexed": true,
          "internalType": "address",
          "name": "winner",
          "type": "address"
        }
      ],
      "name": "SurplusAuctionSettled",
      "type": "event"
    },
    {
      "anonymous": false,
      "inputs": [
        {
          "indexed": true,
          "internalType": "uint64",
          "name": "auctionID",
          "type": "uint64"
        },
        {
          "indexed": true,
          "internalType": "uint256",
          "name": "count",
          "type": "uint256"
        },
        {
          "indexed": false,
          "internalType": "uint64",
          "name": "maxEndTime",
          "type": "uint64"
        }
      ],
      "name": "SurplusAuctionStarted",
      "type": "event"
    },
    {
      "anonymous": false,
      "inputs": [
        {
          "indexed": false,
          "internalType": "uint32",
          "name": "duration",
          "type": "uint32"
        }
      ],
      "name": "TwapDurationUpdated",
      "type": "event"
    },
    {
      "anonymous": false,
      "inputs": [
        {
          "indexed": false,
          "internalType": "uint256",
          "name": "size",
          "type": "uint256"
        }
      ],
      "name": "maxDeficitLotSizeUpdated",
      "type": "event"
    },
    {
      "inputs": [
        {
          "internalType": "uint256",
          "name": "amtIn",
          "type": "uint256"
        },
        {
          "internalType": "uint256",
          "name": "lotSize",
          "type": "uint256"
        }
      ],
      "name": "aggregateAuctionSize",
      "outputs": [
        {
          "internalType": "uint256",
          "name": "size",
          "type": "uint256"
        }
      ],
      "stateMutability": "view",
      "type": "function"
    },
    {
      "inputs": [
        {
          "internalType": "uint64",
          "name": "auctionID",
          "type": "uint64"
        },
        {
          "internalType": "uint128",
          "name": "bid",
          "type": "uint128"
        }
      ],
      "name": "bidDeficitAuction",
      "outputs": [],
      "stateMutability": "nonpayable",
      "type": "function"
    },
    {
      "inputs": [
        {
          "internalType": "uint64",
          "name": "auctionID",
          "type": "uint64"
        },
        {
          "internalType": "uint128",
          "name": "bid",
          "type": "uint128"
        }
      ],
      "name": "bidSurplusAuction",
      "outputs": [],
      "stateMutability": "nonpayable",
      "type": "function"
    },
    {
      "inputs": [],
      "name": "checkReservesAndStartAuctions",
      "outputs": [],
      "stateMutability": "nonpayable",
      "type": "function"
    },
    {
      "inputs": [
        {
          "internalType": "uint64",
          "name": "",
          "type": "uint64"
        }
      ],
      "name": "deficitAuction",
      "outputs": [
        {
          "internalType": "uint128",
          "name": "count",
          "type": "uint128"
        },
        {
          "internalType": "uint128",
          "name": "bid",
          "type": "uint128"
        },
        {
          "internalType": "address",
          "name": "bidder",
          "type": "address"
        },
        {
          "internalType": "uint48",
          "name": "endTime",
          "type": "uint48"
        },
        {
          "internalType": "uint48",
          "name": "maxEndTime",
          "type": "uint48"
        }
      ],
      "stateMutability": "view",
      "type": "function"
    },
    {
      "inputs": [
        {
          "internalType": "uint64",
          "name": "auctionID",
          "type": "uint64"
        }
      ],
      "name": "deficitAuctionComplete",
      "outputs": [
        {
          "internalType": "bool",
          "name": "",
          "type": "bool"
        }
      ],
      "stateMutability": "view",
      "type": "function"
    },
    {
      "inputs": [],
      "name": "deficitAuctionCount",
      "outputs": [
        {
          "internalType": "uint64",
          "name": "",
          "type": "uint64"
        }
      ],
      "stateMutability": "view",
      "type": "function"
    },
    {
      "inputs": [
        {
          "internalType": "uint64",
          "name": "id",
          "type": "uint64"
        }
      ],
      "name": "deficitAuctionExists",
      "outputs": [
        {
          "internalType": "bool",
          "name": "",
          "type": "bool"
        }
      ],
      "stateMutability": "view",
      "type": "function"
    },
    {
      "inputs": [
        {
          "internalType": "uint64",
          "name": "auctionID",
          "type": "uint64"
        }
      ],
      "name": "deficitAuctionLive",
      "outputs": [
        {
          "internalType": "bool",
          "name": "",
          "type": "bool"
        }
      ],
      "stateMutability": "view",
      "type": "function"
    },
    {
      "inputs": [],
      "name": "extensionPerBid",
      "outputs": [
        {
          "internalType": "uint64",
          "name": "",
          "type": "uint64"
        }
      ],
      "stateMutability": "view",
      "type": "function"
    },
    {
      "inputs": [
        {
          "internalType": "uint64",
          "name": "start",
          "type": "uint64"
        },
        {
          "internalType": "bool",
          "name": "surplus",
          "type": "bool"
        }
      ],
      "name": "getAllAuctions",
      "outputs": [
        {
          "components": [
            {
              "internalType": "uint128",
              "name": "count",
              "type": "uint128"
            },
            {
              "internalType": "uint128",
              "name": "bid",
              "type": "uint128"
            },
            {
              "internalType": "address",
              "name": "bidder",
              "type": "address"
            },
            {
              "internalType": "uint48",
              "name": "endTime",
              "type": "uint48"
            },
            {
              "internalType": "uint48",
              "name": "maxEndTime",
              "type": "uint48"
            }
          ],
          "internalType": "struct IAuctions.Auction[]",
          "name": "_auctions",
          "type": "tuple[]"
        },
        {
          "internalType": "uint256[]",
          "name": "_auctionIDs",
          "type": "uint256[]"
        },
        {
          "internalType": "bool[]",
          "name": "_isComplete",
          "type": "bool[]"
        }
      ],
      "stateMutability": "view",
      "type": "function"
    },
    {
      "inputs": [],
      "name": "governor",
      "outputs": [
        {
          "internalType": "contract IGovernor",
          "name": "",
          "type": "address"
        }
      ],
      "stateMutability": "view",
      "type": "function"
    },
    {
      "inputs": [],
      "name": "hue",
      "outputs": [
        {
          "internalType": "contract IHue",
          "name": "",
          "type": "address"
        }
      ],
      "stateMutability": "view",
      "type": "function"
    },
    {
      "inputs": [],
      "name": "hueToBeBought",
      "outputs": [
        {
          "internalType": "uint256",
          "name": "",
          "type": "uint256"
        }
      ],
      "stateMutability": "view",
      "type": "function"
    },
    {
      "inputs": [],
      "name": "hueToBeSold",
      "outputs": [
        {
          "internalType": "uint256",
          "name": "",
          "type": "uint256"
        }
      ],
      "stateMutability": "view",
      "type": "function"
    },
    {
      "inputs": [],
      "name": "latestAuctionCompletionTime",
      "outputs": [
        {
          "internalType": "uint64",
          "name": "",
          "type": "uint64"
        }
      ],
      "stateMutability": "view",
      "type": "function"
    },
    {
      "inputs": [],
      "name": "maxAuctionDuration",
      "outputs": [
        {
          "internalType": "uint64",
          "name": "",
          "type": "uint64"
        }
      ],
      "stateMutability": "view",
      "type": "function"
    },
    {
      "inputs": [],
      "name": "maxBatchSize",
      "outputs": [
        {
          "internalType": "uint64",
          "name": "",
          "type": "uint64"
        }
      ],
      "stateMutability": "view",
      "type": "function"
    },
    {
      "inputs": [],
      "name": "maxDeficitLotSize",
      "outputs": [
        {
          "internalType": "uint256",
          "name": "",
          "type": "uint256"
        }
      ],
      "stateMutability": "view",
      "type": "function"
    },
    {
      "inputs": [],
      "name": "maxSurplusLotSize",
      "outputs": [
        {
          "internalType": "uint256",
          "name": "",
          "type": "uint256"
        }
      ],
      "stateMutability": "view",
      "type": "function"
    },
    {
      "inputs": [],
      "name": "minAuctionDuration",
      "outputs": [
        {
          "internalType": "uint64",
          "name": "",
          "type": "uint64"
        }
      ],
      "stateMutability": "view",
      "type": "function"
    },
    {
      "inputs": [],
      "name": "minBidDelta",
      "outputs": [
        {
          "internalType": "uint256",
          "name": "",
          "type": "uint256"
        }
      ],
      "stateMutability": "view",
      "type": "function"
    },
    {
      "inputs": [],
      "name": "minLotSize",
      "outputs": [
        {
          "internalType": "uint256",
          "name": "",
          "type": "uint256"
        }
      ],
      "stateMutability": "view",
      "type": "function"
    },
    {
      "inputs": [],
      "name": "reservesBufferLowerBound",
      "outputs": [
        {
          "internalType": "uint256",
          "name": "",
          "type": "uint256"
        }
      ],
      "stateMutability": "view",
      "type": "function"
    },
    {
      "inputs": [],
      "name": "reservesBufferUpperBound",
      "outputs": [
        {
          "internalType": "uint256",
          "name": "",
          "type": "uint256"
        }
      ],
      "stateMutability": "view",
      "type": "function"
    },
    {
      "inputs": [
        {
          "internalType": "uint64",
          "name": "extension",
          "type": "uint64"
        }
      ],
      "name": "setExtensionPerBid",
      "outputs": [],
      "stateMutability": "nonpayable",
      "type": "function"
    },
    {
      "inputs": [
        {
          "internalType": "uint64",
          "name": "duration",
          "type": "uint64"
        }
      ],
      "name": "setMaxAuctionDuration",
      "outputs": [],
      "stateMutability": "nonpayable",
      "type": "function"
    },
    {
      "inputs": [
        {
          "internalType": "uint64",
          "name": "size",
          "type": "uint64"
        }
      ],
      "name": "setMaxBatchSize",
      "outputs": [],
      "stateMutability": "nonpayable",
      "type": "function"
    },
    {
      "inputs": [
        {
          "internalType": "uint256",
          "name": "size",
          "type": "uint256"
        }
      ],
      "name": "setMaxDeficitLotSize",
      "outputs": [],
      "stateMutability": "nonpayable",
      "type": "function"
    },
    {
      "inputs": [
        {
          "internalType": "uint256",
          "name": "size",
          "type": "uint256"
        }
      ],
      "name": "setMaxSurplusLotSize",
      "outputs": [],
      "stateMutability": "nonpayable",
      "type": "function"
    },
    {
      "inputs": [
        {
          "internalType": "uint64",
          "name": "duration",
          "type": "uint64"
        }
      ],
      "name": "setMinAuctionDuration",
      "outputs": [],
      "stateMutability": "nonpayable",
      "type": "function"
    },
    {
      "inputs": [
        {
          "internalType": "uint256",
          "name": "delta",
          "type": "uint256"
        }
      ],
      "name": "setMinBidDelta",
      "outputs": [],
      "stateMutability": "nonpayable",
      "type": "function"
    },
    {
      "inputs": [
        {
          "internalType": "uint256",
          "name": "size",
          "type": "uint256"
        }
      ],
      "name": "setMinLotSize",
      "outputs": [],
      "stateMutability": "nonpayable",
      "type": "function"
    },
    {
      "inputs": [
        {
          "internalType": "uint256",
          "name": "bound",
          "type": "uint256"
        }
      ],
      "name": "setReservesBufferLowerBound",
      "outputs": [],
      "stateMutability": "nonpayable",
      "type": "function"
    },
    {
      "inputs": [
        {
          "internalType": "uint256",
          "name": "bound",
          "type": "uint256"
        }
      ],
      "name": "setReservesBufferUpperBound",
      "outputs": [],
      "stateMutability": "nonpayable",
      "type": "function"
    },
    {
      "inputs": [
        {
          "internalType": "uint32",
          "name": "duration",
          "type": "uint32"
        }
      ],
      "name": "setTwapDuration",
      "outputs": [],
      "stateMutability": "nonpayable",
      "type": "function"
    },
    {
      "inputs": [
        {
          "internalType": "uint64",
          "name": "auctionID",
          "type": "uint64"
        }
      ],
      "name": "settleDeficitAuction",
      "outputs": [],
      "stateMutability": "nonpayable",
      "type": "function"
    },
    {
      "inputs": [
        {
          "internalType": "uint64",
          "name": "auctionID",
          "type": "uint64"
        }
      ],
      "name": "settleSurplusAuction",
      "outputs": [],
      "stateMutability": "nonpayable",
      "type": "function"
    },
    {
      "inputs": [],
      "name": "shouldStartAuctions",
      "outputs": [
        {
          "internalType": "uint256",
          "name": "surplusAmount",
          "type": "uint256"
        },
        {
          "internalType": "uint256",
          "name": "deficitAmount",
          "type": "uint256"
        }
      ],
      "stateMutability": "view",
      "type": "function"
    },
    {
      "inputs": [
        {
          "internalType": "uint256",
          "name": "count",
          "type": "uint256"
        },
        {
          "internalType": "bool",
          "name": "isSurplus",
          "type": "bool"
        }
      ],
      "name": "startAuction",
      "outputs": [],
      "stateMutability": "nonpayable",
      "type": "function"
    },
    {
      "inputs": [
        {
          "internalType": "uint256",
          "name": "amt",
          "type": "uint256"
        },
        {
          "internalType": "bool",
          "name": "isSurplus",
          "type": "bool"
        }
      ],
      "name": "startAuctions",
      "outputs": [],
      "stateMutability": "nonpayable",
      "type": "function"
    },
    {
      "inputs": [],
      "name": "stop",
      "outputs": [],
      "stateMutability": "nonpayable",
      "type": "function"
    },
    {
      "inputs": [],
      "name": "stopped",
      "outputs": [
        {
          "internalType": "bool",
          "name": "",
          "type": "bool"
        }
      ],
      "stateMutability": "view",
      "type": "function"
    },
    {
      "inputs": [
        {
          "internalType": "uint64",
          "name": "",
          "type": "uint64"
        }
      ],
      "name": "surplusAuction",
      "outputs": [
        {
          "internalType": "uint128",
          "name": "count",
          "type": "uint128"
        },
        {
          "internalType": "uint128",
          "name": "bid",
          "type": "uint128"
        },
        {
          "internalType": "address",
          "name": "bidder",
          "type": "address"
        },
        {
          "internalType": "uint48",
          "name": "endTime",
          "type": "uint48"
        },
        {
          "internalType": "uint48",
          "name": "maxEndTime",
          "type": "uint48"
        }
      ],
      "stateMutability": "view",
      "type": "function"
    },
    {
      "inputs": [
        {
          "internalType": "uint64",
          "name": "auctionID",
          "type": "uint64"
        }
      ],
      "name": "surplusAuctionComplete",
      "outputs": [
        {
          "internalType": "bool",
          "name": "",
          "type": "bool"
        }
      ],
      "stateMutability": "view",
      "type": "function"
    },
    {
      "inputs": [],
      "name": "surplusAuctionCount",
      "outputs": [
        {
          "internalType": "uint64",
          "name": "",
          "type": "uint64"
        }
      ],
      "stateMutability": "view",
      "type": "function"
    },
    {
      "inputs": [
        {
          "internalType": "uint64",
          "name": "id",
          "type": "uint64"
        }
      ],
      "name": "surplusAuctionExists",
      "outputs": [
        {
          "internalType": "bool",
          "name": "",
          "type": "bool"
        }
      ],
      "stateMutability": "view",
      "type": "function"
    },
    {
      "inputs": [
        {
          "internalType": "uint64",
          "name": "auctionID",
          "type": "uint64"
        }
      ],
      "name": "surplusAuctionLive",
      "outputs": [
        {
          "internalType": "bool",
          "name": "",
          "type": "bool"
        }
      ],
      "stateMutability": "view",
      "type": "function"
    },
    {
      "inputs": [],
      "name": "twapDuration",
      "outputs": [
        {
          "internalType": "uint32",
          "name": "",
          "type": "uint32"
        }
      ],
      "stateMutability": "view",
      "type": "function"
    },
    {
      "inputs": [
        {
          "internalType": "bytes4",
          "name": "",
          "type": "bytes4"
        }
      ],
      "name": "validUpdate",
      "outputs": [
        {
          "internalType": "bool",
          "name": "",
          "type": "bool"
        }
      ],
      "stateMutability": "view",
      "type": "function"
    }
  ],
  "bytecode": "0x60e060405260016002600050909055670e4b4b8af6a70000600360005090905568878678326eac900000600460005090905569043c33c1937564800000600560005090905569043c33c19375648000006006600050909055662386f26fc10000600760005090905566b1a2bc2ec5000060086000509090556005600960006101000a81548167ffffffffffffffff021916908367ffffffffffffffff160217905550610708600960086101000a81548167ffffffffffffffff021916908367ffffffffffffffff16021790555062015180600960106101000a81548167ffffffffffffffff021916908367ffffffffffffffff1602179055506202a300600960186101000a81548167ffffffffffffffff021916908367ffffffffffffffff160217905550610708600c60186101000a81548163ffffffff021916908363ffffffff160217905550348015620001555760006000fd5b506040516200609b3803806200609b83398181016040528101906200017b919062000664565b5b805b806000015181602001515b815b8073ffffffffffffffffffffffffffffffffffffffff1660808173ffffffffffffffffffffffffffffffffffffffff16815260200150505b508073ffffffffffffffffffffffffffffffffffffffff1660a08173ffffffffffffffffffffffffffffffffffffffff16815260200150505b5050806040015173ffffffffffffffffffffffffffffffffffffffff1660c08173ffffffffffffffffffffffffffffffffffffffff1681526020015050600060405180610160016040528063ddf31e6760e01b7bffffffffffffffffffffffffffffffffffffffffffffffffffffffff19167bffffffffffffffffffffffffffffffffffffffffffffffffffffffff191681526020016334b1447560e01b7bffffffffffffffffffffffffffffffffffffffffffffffffffffffff19167bffffffffffffffffffffffffffffffffffffffffffffffffffffffff19168152602001638d56248a60e01b7bffffffffffffffffffffffffffffffffffffffffffffffffffffffff19167bffffffffffffffffffffffffffffffffffffffffffffffffffffffff19168152602001633a3a63df60e01b7bffffffffffffffffffffffffffffffffffffffffffffffffffffffff19167bffffffffffffffffffffffffffffffffffffffffffffffffffffffff1916815260200163887c67d960e01b7bffffffffffffffffffffffffffffffffffffffffffffffffffffffff19167bffffffffffffffffffffffffffffffffffffffffffffffffffffffff19168152602001634ae8470d60e01b7bffffffffffffffffffffffffffffffffffffffffffffffffffffffff19167bffffffffffffffffffffffffffffffffffffffffffffffffffffffff1916815260200163afea44ef60e01b7bffffffffffffffffffffffffffffffffffffffffffffffffffffffff19167bffffffffffffffffffffffffffffffffffffffffffffffffffffffff19168152602001630fb4e2b360e01b7bffffffffffffffffffffffffffffffffffffffffffffffffffffffff19167bffffffffffffffffffffffffffffffffffffffffffffffffffffffff191681526020016375d0ef5260e01b7bffffffffffffffffffffffffffffffffffffffffffffffffffffffff19167bffffffffffffffffffffffffffffffffffffffffffffffffffffffff191681526020016337ca44fc60e01b7bffffffffffffffffffffffffffffffffffffffffffffffffffffffff19167bffffffffffffffffffffffffffffffffffffffffffffffffffffffff1916815260200163c433c80a60e01b7bffffffffffffffffffffffffffffffffffffffffffffffffffffffff19167bffffffffffffffffffffffffffffffffffffffffffffffffffffffff191681526020015090506000600090505b8150600b81101562000636576001600160005060008484600b81101515620005b757620005b6620006f8565b5b60200201517bffffffffffffffffffffffffffffffffffffffffffffffffffffffff19167bffffffffffffffffffffffffffffffffffffffffffffffffffffffff1916815260200190815260200160002060006101000a81548160ff0219169083151502179055505b80806200062d9062000710565b9150506200058a565b50505b505b5062000740566200073f565b6001600160a01b03811681141515620006605760006000fd5b505b565b600060608284031215620006785760006000fd5b604051606081018181106001600160401b0382111715620006a957634e487b7160e01b600052604160045260246000fd5b80604052508251620006bb8162000647565b808252506020830151620006cf8162000647565b806020830152506040830151620006e68162000647565b80604083015250809150505b92915050565b634e487b7160e01b600052603260045260246000fd5b565b60006000198214156200073357634e487b7160e01b600052601160045260246000fd5b6001820190505b919050565b5b60805160a05160c0516158d7620007c460003960008181610bc701528181610ebd015281816123ad015281816126a10152612c6401526000818161394d0152613a8c0152600081816109c601528181610add01528181610c5b015281816114ae015281816134140152818161365901528181613b16015261431601526158d76000f3fe60806040523480156100115760006000fd5b506004361061033b5760003560e01c8063597e899f116101b357806399e1998f116100fa578063c433c80a116100a3578063d005d2eb1161007d578063d005d2eb14610932578063d7abba0c1461094e578063ddf31e671461096a578063faf95d2d146109865761033b565b8063c433c80a146108ca578063caa98b60146108e6578063cdbd373b146109165761033b565b8063a958c033116100d4578063a958c03314610886578063afea44ef14610890578063c2b6722a146108ac5761033b565b806399e1998f1461081e5780639d5318571461083a578063a65c030a146108565761033b565b80637d6953511161015c578063887c67d911610136578063887c67d9146107c85780638d56248a146107e45780639052537e146108005761033b565b80637d6953511461075a5780637eb12af71461078c57806387d2fecd146107aa5761033b565b8063651cf64d1161018d578063651cf64d146106ec57806375d0ef521461072057806375f12b211461073c5761033b565b8063597e899f1461068057806360aad9bf146106b0578063616cb0cf146106ce5761033b565b80633427c4ef11610282578063437992271161022b5780634ae8470d116102055780634ae8470d1461060a578063541348761461062657806354cccf081461064457806354f634fb146106625761033b565b806343799227146105a057806348c9581e146105d05780634a2304b1146105ee5761033b565b80633a3a63df1161025c5780633a3a63df1461052457806340601add146105405780634079b8fc146105705761033b565b80633427c4ef146104b857806334b14475146104ec57806337ca44fc146105085761033b565b80631b875768116102e457806327399e21116102be57806327399e211461045e5780632913daa01461047c578063323741741461049a5761033b565b80631b8757681461040357806325df95381461042157806326d89545146104405761033b565b80630fb4e2b3116103155780630fb4e2b3146103995780630fe86907146103b5578063113cf1ab146103d35761033b565b806307da68f5146103415780630c340a241461034b5780630d5cd0e1146103695761033b565b60006000fd5b6103496109a4565b005b6103536109c4565b6040516103609190614a87565b60405180910390f35b610383600480360381019061037e9190614ad4565b6109e8565b6040516103909190614af9565b60405180910390f35b6103b360048036038101906103ae9190614ad4565b610a05565b005b6103bd610a78565b6040516103ca9190614b0d565b60405180910390f35b6103ed60048036038101906103e89190614b1f565b610a81565b6040516103fa9190614af9565b60405180910390f35b61040b610aa6565b6040516104189190614b70565b60405180910390f35b610429610ac0565b604051610437929190614b8c565b60405180910390f35b610448610e82565b6040516104559190614ba5565b60405180910390f35b610466610e98565b6040516104739190614b0d565b60405180910390f35b610484610ea1565b6040516104919190614b70565b60405180910390f35b6104a2610ebb565b6040516104af9190614bbd565b60405180910390f35b6104d260048036038101906104cd9190614ad4565b610edf565b6040516104e3959493929190614be5565b60405180910390f35b61050660048036038101906105019190614c4b565b610f94565b005b610522600480360381019061051d9190614ad4565b611031565b005b61053e60048036038101906105399190614c4b565b6110f3565b005b61055a60048036038101906105559190614ad4565b611162565b6040516105679190614af9565b60405180910390f35b61058a60048036038101906105859190614ad4565b6111c7565b6040516105979190614af9565b60405180910390f35b6105ba60048036038101906105b59190614c69565b61122c565b6040516105c79190614b0d565b60405180910390f35b6105d8611249565b6040516105e59190614b70565b60405180910390f35b61060860048036038101906106039190614ad4565b611263565b005b610624600480360381019061061f9190614c4b565b6116b6565b005b61062e611741565b60405161063b9190614b70565b60405180910390f35b61064c61175b565b6040516106599190614b0d565b60405180910390f35b61066a611764565b6040516106779190614b0d565b60405180910390f35b61069a60048036038101906106959190614ad4565b61176d565b6040516106a79190614af9565b60405180910390f35b6106b86117d1565b6040516106c59190614b0d565b60405180910390f35b6106d66117da565b6040516106e39190614b0d565b60405180910390f35b61070660048036038101906107019190614ad4565b6117e3565b604051610717959493929190614be5565b60405180910390f35b61073a60048036038101906107359190614ad4565b611898565b005b61074461195a565b6040516107519190614af9565b60405180910390f35b610774600480360381019061076f9190614ca6565b61196d565b60405161078393929190614d6a565b60405180910390f35b610794611fae565b6040516107a19190614b70565b60405180910390f35b6107b2611fc8565b6040516107bf9190614b0d565b60405180910390f35b6107e260048036038101906107dd9190614c4b565b611fd1565b005b6107fe60048036038101906107f99190614c4b565b612040565b005b6108086120af565b6040516108159190614b0d565b60405180910390f35b61083860048036038101906108339190614e45565b6120b8565b005b610854600480360381019061084f9190614e97565b612756565b005b610870600480360381019061086b9190614ad4565b61276b565b60405161087d9190614af9565b60405180910390f35b61088e612788565b005b6108aa60048036038101906108a59190614ad4565b612849565b005b6108b46128ec565b6040516108c19190614b70565b60405180910390f35b6108e460048036038101906108df9190614eca565b612906565b005b61090060048036038101906108fb9190614ad4565b612989565b60405161090d9190614af9565b60405180910390f35b610930600480360381019061092b9190614e97565b6129ed565b005b61094c60048036038101906109479190614ad4565b612a02565b005b61096860048036038101906109639190614e45565b612e2e565b005b610984600480360381019061097f9190614c4b565b6135c8565b005b61098e61363a565b60405161099b9190614b70565b60405180910390f35b6109b261365463ffffffff16565b6109c06136b463ffffffff16565b5b5b565b7f000000000000000000000000000000000000000000000000000000000000000081565b60006109f9826136fe63ffffffff16565b9050610a00565b919050565b610a1361365463ffffffff16565b80600960086101000a81548167ffffffffffffffff021916908367ffffffffffffffff1602179055507fc41bd7d4803c68b43810c1acff639a83bc8d9f370d8aafaf52bf152c732e0caf81604051610a6b9190614b70565b60405180910390a15b5b50565b60066000505481565b600160005060205280600052604060002060009150909054906101000a900460ff1681565b600c60109054906101000a900467ffffffffffffffff1681565b600060003073ffffffffffffffffffffffffffffffffffffffff167f000000000000000000000000000000000000000000000000000000000000000073ffffffffffffffffffffffffffffffffffffffff166385aa61036040518163ffffffff1660e01b8152600401602060405180830381865afa158015610b47573d600060003e3d6000fd5b505050506040513d601f19601f82011682018060405250810190610b6b9190614f28565b73ffffffffffffffffffffffffffffffffffffffff16141515610bc3576040517f08c379a0000000000000000000000000000000000000000000000000000000008152600401610bba90614f51565b60405180910390fd5b60007f000000000000000000000000000000000000000000000000000000000000000073ffffffffffffffffffffffffffffffffffffffff166375172a8b6040518163ffffffff1660e01b8152600401602060405180830381865afa158015610c31573d600060003e3d6000fd5b505050506040513d601f19601f82011682018060405250810190610c559190614f90565b905060007f000000000000000000000000000000000000000000000000000000000000000073ffffffffffffffffffffffffffffffffffffffff16639624e83e6040518163ffffffff1660e01b8152600401602060405180830381865afa158015610cc5573d600060003e3d6000fd5b505050506040513d601f19601f82011682018060405250810190610ce99190614fae565b73ffffffffffffffffffffffffffffffffffffffff16630dca59c16040518163ffffffff1660e01b8152600401602060405180830381865afa158015610d34573d600060003e3d6000fd5b505050506040513d601f19601f82011682018060405250810190610d589190614f90565b90506000610d746008600050548361376e90919063ffffffff16565b90506000610d906007600050548461376e90919063ffffffff16565b90506000600a610da9838561379490919063ffffffff16565b610db39190615039565b905082610dce600d600050548761379490919063ffffffff16565b1115610e18578083600d6000505487610de79190615057565b610df19190615057565b610dfb9190615076565b96508650600460005054871015610e13576000965086505b610e78565b81610e31600e60005054876137af90919063ffffffff16565b1015610e775780600e6000505486610e499190615076565b83610e549190615057565b610e5e9190615076565b95508550600460005054861015610e76576000955085505b5b5b50505050505b9091565b600c60189054906101000a900463ffffffff1681565b600d6000505481565b600960009054906101000a900467ffffffffffffffff1681565b7f000000000000000000000000000000000000000000000000000000000000000081565b600a6000506020528060005260406000206000915090508060000160009054906101000a90046fffffffffffffffffffffffffffffffff16908060000160109054906101000a90046fffffffffffffffffffffffffffffffff16908060010160009054906101000a900473ffffffffffffffffffffffffffffffffffffffff16908060010160149054906101000a900465ffffffffffff169080600101601a9054906101000a900465ffffffffffff16905085565b610fa261365463ffffffff16565b8060046000508190909055506004600050546000101515610fc35760006000fd5b600560005054600460005054101515610fdc5760006000fd5b600660005054600460005054101515610ff55760006000fd5b7f4ef33b2d85532aa2e1ae3100d20137f031644ce9fdce16cef60da325607dd042816040516110249190614b0d565b60405180910390a15b5b50565b61103f61365463ffffffff16565b80600960186101000a81548167ffffffffffffffff021916908367ffffffffffffffff160217905550600960189054906101000a900467ffffffffffffffff1667ffffffffffffffff16600960109054906101000a900467ffffffffffffffff1667ffffffffffffffff161015156110b75760006000fd5b7f18f52500bf2819c004e98748a693e237955bc5aca194741a0d3954775257e869816040516110e69190614b70565b60405180910390a15b5b50565b61110161365463ffffffff16565b8060066000508190909055506006600050546004600050541015156111265760006000fd5b7f366fef0231e50d43e76d8b48806aa9f2b349a6ad9725d47012f8c2e8c37f23fb816040516111559190614b0d565b60405180910390a15b5b50565b6000611173826136fe63ffffffff16565b61117e5760006111bb565b6111b9600b60005060008467ffffffffffffffff1667ffffffffffffffff1681526020019081526020016000206000506137ca63ffffffff16565b155b90506111c2565b919050565b60006111d88261384963ffffffff16565b6111e3576000611220565b61121e600a60005060008467ffffffffffffffff1667ffffffffffffffff1681526020019081526020016000206000506137ca63ffffffff16565b155b9050611227565b919050565b600061123e83836138b963ffffffff16565b905080505b92915050565b600960189054906101000a900467ffffffffffffffff1681565b61127161394b63ffffffff16565b61127f613a2863ffffffff16565b61128e8161176d63ffffffff16565b15156112cf576040517f08c379a00000000000000000000000000000000000000000000000000000000081526004016112c690615096565b60405180910390fd5b6000600b60005060008367ffffffffffffffff1667ffffffffffffffff1681526020019081526020016000206000506040518060a00160405290816000820160009054906101000a90046fffffffffffffffffffffffffffffffff166fffffffffffffffffffffffffffffffff166fffffffffffffffffffffffffffffffff1681526020016000820160109054906101000a90046fffffffffffffffffffffffffffffffff166fffffffffffffffffffffffffffffffff166fffffffffffffffffffffffffffffffff1681526020016001820160009054906101000a900473ffffffffffffffffffffffffffffffffffffffff1673ffffffffffffffffffffffffffffffffffffffff1673ffffffffffffffffffffffffffffffffffffffff1681526020016001820160149054906101000a900465ffffffffffff1665ffffffffffff1665ffffffffffff16815260200160018201601a9054906101000a900465ffffffffffff1665ffffffffffff1665ffffffffffff16815260200150509050600073ffffffffffffffffffffffffffffffffffffffff16816040015173ffffffffffffffffffffffffffffffffffffffff16141580156114a75750600081602001516fffffffffffffffffffffffffffffffff16115b15611548577f000000000000000000000000000000000000000000000000000000000000000073ffffffffffffffffffffffffffffffffffffffff16634cd7a315826040015183602001516040518363ffffffff1660e01b815260040161150f9291906150d5565b600060405180830381600087803b15801561152a5760006000fd5b505af115801561153f573d600060003e3d6000fd5b50505050611582565b61157681600001516fffffffffffffffffffffffffffffffff16600e6000505461379490919063ffffffff16565b600e6000508190909055505b806040015173ffffffffffffffffffffffffffffffffffffffff168267ffffffffffffffff167fd1b34ce351dc1a4cb6c40bb878ba19a12c4c44d35e7bdbeca7b5ebe947da312f60405160405180910390a3600b60005060008367ffffffffffffffff1667ffffffffffffffff16815260200190815260200160002060006000820160006101000a8154906fffffffffffffffffffffffffffffffff02191690556000820160106101000a8154906fffffffffffffffffffffffffffffffff02191690556001820160006101000a81549073ffffffffffffffffffffffffffffffffffffffff02191690556001820160146101000a81549065ffffffffffff021916905560018201601a6101000a81549065ffffffffffff02191690555050505b5b6116b2613a7d63ffffffff16565b5b50565b6116c461365463ffffffff16565b8060086000508190909055506008600050546007600050541015156116e95760006000fd5b670de0b6b3a76400006008600050541015156117055760006000fd5b7f4bc8e401359fe0a4abb5d7751170f1b17eabe34299bc6311dedc5ac91cdf8dbf816040516117349190614b0d565b60405180910390a15b5b50565b600960109054906101000a900467ffffffffffffffff1681565b60086000505481565b60036000505481565b600061177e826136fe63ffffffff16565b6117895760006117c5565b6117c4600b60005060008467ffffffffffffffff1667ffffffffffffffff1681526020019081526020016000206000506137ca63ffffffff16565b5b90506117cc565b919050565b60056000505481565b60076000505481565b600b6000506020528060005260406000206000915090508060000160009054906101000a90046fffffffffffffffffffffffffffffffff16908060000160109054906101000a90046fffffffffffffffffffffffffffffffff16908060010160009054906101000a900473ffffffffffffffffffffffffffffffffffffffff16908060010160149054906101000a900465ffffffffffff169080600101601a9054906101000a900465ffffffffffff16905085565b6118a661365463ffffffff16565b80600960106101000a81548167ffffffffffffffff021916908367ffffffffffffffff160217905550600960189054906101000a900467ffffffffffffffff1667ffffffffffffffff16600960109054906101000a900467ffffffffffffffff1667ffffffffffffffff1610151561191e5760006000fd5b7fac2bc07b99cee6cd70e0c8cef6d433d70824a6a3d1eee502bc8938640a980a948160405161194d9190614b70565b60405180910390a15b5b50565b600060009054906101000a900460ff1681565b60606060606060008461199657600c60089054906101000a900467ffffffffffffffff166119ae565b600c60009054906101000a900467ffffffffffffffff165b67ffffffffffffffff169050600060008790505b828167ffffffffffffffff161015611a2557866119ed576119e8816136fe63ffffffff16565b6119fd565b6119fc8161384963ffffffff16565b5b15611a11578180611a0d90615116565b9250505b5b8080611a1d90615155565b9150506119c2565b508067ffffffffffffffff811115611a4057611a3f615182565b5b604051908082528060200260200182016040528015611a7957816020015b611a66614a07565b815260200190600190039081611a5e5790505b50945084508067ffffffffffffffff811115611a9857611a97615182565b5b604051908082528060200260200182016040528015611ac65781602001602082028036833780820191505090505b50935083508067ffffffffffffffff811115611ae557611ae4615182565b5b604051908082528060200260200182016040528015611b135781602001602082028036833780820191505090505b5092508250600060008890505b838167ffffffffffffffff161015611fa2578715611d5e57611b478161384963ffffffff16565b1515611b5257611f8f565b600a60005060008267ffffffffffffffff1667ffffffffffffffff1681526020019081526020016000206000506040518060a00160405290816000820160009054906101000a90046fffffffffffffffffffffffffffffffff166fffffffffffffffffffffffffffffffff166fffffffffffffffffffffffffffffffff1681526020016000820160109054906101000a90046fffffffffffffffffffffffffffffffff166fffffffffffffffffffffffffffffffff166fffffffffffffffffffffffffffffffff1681526020016001820160009054906101000a900473ffffffffffffffffffffffffffffffffffffffff1673ffffffffffffffffffffffffffffffffffffffff1673ffffffffffffffffffffffffffffffffffffffff1681526020016001820160149054906101000a900465ffffffffffff1665ffffffffffff1665ffffffffffff16815260200160018201601a9054906101000a900465ffffffffffff1665ffffffffffff1665ffffffffffff16815260200150508783815181101515611ce457611ce36151b3565b5b60200260200101819052508067ffffffffffffffff168683815181101515611d0f57611d0e6151b3565b5b6020026020010190908181526020015050611d2f8161298963ffffffff16565b8583815181101515611d4457611d436151b3565b5b602002602001019015159081151581526020015050611f80565b611d6d816136fe63ffffffff16565b1515611d7857611f8f565b600b60005060008267ffffffffffffffff1667ffffffffffffffff1681526020019081526020016000206000506040518060a00160405290816000820160009054906101000a90046fffffffffffffffffffffffffffffffff166fffffffffffffffffffffffffffffffff166fffffffffffffffffffffffffffffffff1681526020016000820160109054906101000a90046fffffffffffffffffffffffffffffffff166fffffffffffffffffffffffffffffffff166fffffffffffffffffffffffffffffffff1681526020016001820160009054906101000a900473ffffffffffffffffffffffffffffffffffffffff1673ffffffffffffffffffffffffffffffffffffffff1673ffffffffffffffffffffffffffffffffffffffff1681526020016001820160149054906101000a900465ffffffffffff1665ffffffffffff1665ffffffffffff16815260200160018201601a9054906101000a900465ffffffffffff1665ffffffffffff1665ffffffffffff16815260200150508783815181101515611f0a57611f096151b3565b5b60200260200101819052508067ffffffffffffffff168683815181101515611f3557611f346151b3565b5b6020026020010190908181526020015050611f558161176d63ffffffff16565b8583815181101515611f6a57611f696151b3565b5b6020026020010190151590811515815260200150505b8180611f8b90615116565b9250505b8080611f9a90615155565b915050611b20565b505050505b9250925092565b600c60089054906101000a900467ffffffffffffffff1681565b600e6000505481565b611fdf61365463ffffffff16565b8060076000508190909055506008600050546007600050541015156120045760006000fd5b7f98de8134f58d0f83d8490533bdf2ea621691a0d73aa5af21c25f64e237d0510c816040516120339190614b0d565b60405180910390a15b5b50565b61204e61365463ffffffff16565b8060056000508190909055506005600050546004600050541015156120735760006000fd5b7f1a947e1e83119fe73dfbcae0f4777aac4937059cc8fa08b6edad794bb2bbacd6816040516120a29190614b0d565b60405180910390a15b5b50565b60046000505481565b6120c661394b63ffffffff16565b6120d4613a2863ffffffff16565b6120e38261116263ffffffff16565b1515612124576040517f08c379a000000000000000000000000000000000000000000000000000000000815260040161211b906151e4565b60405180910390fd5b6000600b60005060008467ffffffffffffffff1667ffffffffffffffff1681526020019081526020016000206000506040518060a00160405290816000820160009054906101000a90046fffffffffffffffffffffffffffffffff166fffffffffffffffffffffffffffffffff166fffffffffffffffffffffffffffffffff1681526020016000820160109054906101000a90046fffffffffffffffffffffffffffffffff166fffffffffffffffffffffffffffffffff166fffffffffffffffffffffffffffffffff1681526020016001820160009054906101000a900473ffffffffffffffffffffffffffffffffffffffff1673ffffffffffffffffffffffffffffffffffffffff1673ffffffffffffffffffffffffffffffffffffffff1681526020016001820160149054906101000a900465ffffffffffff1665ffffffffffff1665ffffffffffff16815260200160018201601a9054906101000a900465ffffffffffff1665ffffffffffff1665ffffffffffff1681526020015050905060003390506000600073ffffffffffffffffffffffffffffffffffffffff16836040015173ffffffffffffffffffffffffffffffffffffffff1614156123d55761231d600a61230f85600001516fffffffffffffffffffffffffffffffff16613b0f63ffffffff16565b613c4b90919063ffffffff16565b846fffffffffffffffffffffffffffffffff16101515612372576040517f08c379a000000000000000000000000000000000000000000000000000000000815260040161236990615223565b60405180910390fd5b6123a083600001516fffffffffffffffffffffffffffffffff16600e6000505461379490919063ffffffff16565b600e6000508190909055507f000000000000000000000000000000000000000000000000000000000000000090508050612463565b61240360036000505484602001516fffffffffffffffffffffffffffffffff16613c6690919063ffffffff16565b846fffffffffffffffffffffffffffffffff1611151515612459576040517f08c379a000000000000000000000000000000000000000000000000000000000815260040161245090615262565b60405180910390fd5b8260400151905080505b81836040019073ffffffffffffffffffffffffffffffffffffffff16908173ffffffffffffffffffffffffffffffffffffffff16815260200150508383602001906fffffffffffffffffffffffffffffffff1690816fffffffffffffffffffffffffffffffff168152602001505060006125126124fb600960089054906101000a900467ffffffffffffffff16613c8c63ffffffff16565b67ffffffffffffffff16613cc2909063ffffffff16565b90508065ffffffffffff16846060015165ffffffffffff1610156125505780846060019065ffffffffffff16908165ffffffffffff16815260200150505b83600b60005060008867ffffffffffffffff1667ffffffffffffffff16815260200190815260200160002060005060008201518160000160006101000a8154816fffffffffffffffffffffffffffffffff02191690836fffffffffffffffffffffffffffffffff16021790555060208201518160000160106101000a8154816fffffffffffffffffffffffffffffffff02191690836fffffffffffffffffffffffffffffffff16021790555060408201518160010160006101000a81548173ffffffffffffffffffffffffffffffffffffffff021916908373ffffffffffffffffffffffffffffffffffffffff16021790555060608201518160010160146101000a81548165ffffffffffff021916908365ffffffffffff160217905550608082015181600101601a6101000a81548165ffffffffffff021916908365ffffffffffff1602179055509050506126e47f0000000000000000000000000000000000000000000000000000000000000000848487600001516fffffffffffffffffffffffffffffffff16613d1c63ffffffff16565b8273ffffffffffffffffffffffffffffffffffffffff168667ffffffffffffffff167f3e40664282966c0a42567d60514e22e8d06206cbcaa7d79f53dc8fcd8c7242468760405161273591906152a1565b60405180910390a3505050505b5b612751613a7d63ffffffff16565b5b5050565b6127668282613dac63ffffffff16565b5b5050565b600061277c8261384963ffffffff16565b9050612783565b919050565b61279661394b63ffffffff16565b6127a461430663ffffffff16565b600060006127b6610ac063ffffffff16565b9150915060008211156127d9576127d48260016143e963ffffffff16565b612834565b60008111156127f8576127f38160006143e963ffffffff16565b612833565b6040517f08c379a000000000000000000000000000000000000000000000000000000000815260040161282a906152c5565b60405180910390fd5b5b50505b5b612846613a7d63ffffffff16565b5b565b61285761365463ffffffff16565b80600960006101000a81548167ffffffffffffffff021916908367ffffffffffffffff1602179055506000600960009054906101000a900467ffffffffffffffff1667ffffffffffffffff161115156128b05760006000fd5b7f6e9f93976a1fde110a0da07558361d4ab428d9b65b5c53d5c09c0cf5f69a32f9816040516128df9190614b70565b60405180910390a15b5b50565b600c60009054906101000a900467ffffffffffffffff1681565b61291461365463ffffffff16565b61012c8163ffffffff161015151561292c5760006000fd5b80600c60186101000a81548163ffffffff021916908363ffffffff1602179055507f670aac3910a07dcfe5267c8b0bf2357abdb454e509764d13e94e85ee13c6da208160405161297c9190614ba5565b60405180910390a15b5b50565b600061299a8261384963ffffffff16565b6129a55760006129e1565b6129e0600a60005060008467ffffffffffffffff1667ffffffffffffffff1681526020019081526020016000206000506137ca63ffffffff16565b5b90506129e8565b919050565b6129fd82826143e963ffffffff16565b5b5050565b612a1061394b63ffffffff16565b612a1e613a2863ffffffff16565b612a2d8161298963ffffffff16565b1515612a6e576040517f08c379a0000000000000000000000000000000000000000000000000000000008152600401612a6590615096565b60405180910390fd5b6000600a60005060008367ffffffffffffffff1667ffffffffffffffff1681526020019081526020016000206000506040518060a00160405290816000820160009054906101000a90046fffffffffffffffffffffffffffffffff166fffffffffffffffffffffffffffffffff166fffffffffffffffffffffffffffffffff1681526020016000820160109054906101000a90046fffffffffffffffffffffffffffffffff166fffffffffffffffffffffffffffffffff166fffffffffffffffffffffffffffffffff1681526020016001820160009054906101000a900473ffffffffffffffffffffffffffffffffffffffff1673ffffffffffffffffffffffffffffffffffffffff1673ffffffffffffffffffffffffffffffffffffffff1681526020016001820160149054906101000a900465ffffffffffff1665ffffffffffff1665ffffffffffff16815260200160018201601a9054906101000a900465ffffffffffff1665ffffffffffff1665ffffffffffff16815260200150509050612c1d81600001516fffffffffffffffffffffffffffffffff16600d6000505461379490919063ffffffff16565b600d600050819090905550600073ffffffffffffffffffffffffffffffffffffffff16816040015173ffffffffffffffffffffffffffffffffffffffff16141515612cfa577f000000000000000000000000000000000000000000000000000000000000000073ffffffffffffffffffffffffffffffffffffffff166316f9428f826040015183600001516040518363ffffffff1660e01b8152600401612cc59291906150d5565b600060405180830381600087803b158015612ce05760006000fd5b505af1158015612cf5573d600060003e3d6000fd5b505050505b806040015173ffffffffffffffffffffffffffffffffffffffff168267ffffffffffffffff167f596e5ff4197d4a01b2406d4c0717653cbc9166cf6ab2bdf78272eb99d191a09360405160405180910390a3600a60005060008367ffffffffffffffff1667ffffffffffffffff16815260200190815260200160002060006000820160006101000a8154906fffffffffffffffffffffffffffffffff02191690556000820160106101000a8154906fffffffffffffffffffffffffffffffff02191690556001820160006101000a81549073ffffffffffffffffffffffffffffffffffffffff02191690556001820160146101000a81549065ffffffffffff021916905560018201601a6101000a81549065ffffffffffff02191690555050505b5b612e2a613a7d63ffffffff16565b5b50565b612e3c61394b63ffffffff16565b612e4a613a2863ffffffff16565b612e59826111c763ffffffff16565b1515612e9a576040517f08c379a0000000000000000000000000000000000000000000000000000000008152600401612e91906151e4565b60405180910390fd5b60003390506000600a60005060008567ffffffffffffffff1667ffffffffffffffff1681526020019081526020016000206000506040518060a00160405290816000820160009054906101000a90046fffffffffffffffffffffffffffffffff166fffffffffffffffffffffffffffffffff166fffffffffffffffffffffffffffffffff1681526020016000820160109054906101000a90046fffffffffffffffffffffffffffffffff166fffffffffffffffffffffffffffffffff166fffffffffffffffffffffffffffffffff1681526020016001820160009054906101000a900473ffffffffffffffffffffffffffffffffffffffff1673ffffffffffffffffffffffffffffffffffffffff1673ffffffffffffffffffffffffffffffffffffffff1681526020016001820160149054906101000a900465ffffffffffff1665ffffffffffff1665ffffffffffff16815260200160018201601a9054906101000a900465ffffffffffff1665ffffffffffff1665ffffffffffff16815260200150509050600060006000600073ffffffffffffffffffffffffffffffffffffffff16846040015173ffffffffffffffffffffffffffffffffffffffff16141561310157600a61308685600001516fffffffffffffffffffffffffffffffff16613b0f63ffffffff16565b6130909190615039565b866fffffffffffffffffffffffffffffffff161115156130e5576040517f08c379a00000000000000000000000000000000000000000000000000000000081526004016130dc90615304565b60405180910390fd5b856fffffffffffffffffffffffffffffffff16925082506131d7565b61312f60036000505485602001516fffffffffffffffffffffffffffffffff1661376e90919063ffffffff16565b866fffffffffffffffffffffffffffffffff1610151515613185576040517f08c379a000000000000000000000000000000000000000000000000000000000815260040161317c90615343565b60405180910390fd5b8360200151915081508360400151905080506131c08460200151876fffffffffffffffffffffffffffffffff166144b790919063ffffffff16565b6fffffffffffffffffffffffffffffffff16925082505b84846040019073ffffffffffffffffffffffffffffffffffffffff16908173ffffffffffffffffffffffffffffffffffffffff16815260200150508584602001906fffffffffffffffffffffffffffffffff1690816fffffffffffffffffffffffffffffffff1681526020015050600061328661326f600960089054906101000a900467ffffffffffffffff16613c8c63ffffffff16565b67ffffffffffffffff16613cc2909063ffffffff16565b90508065ffffffffffff16856060015165ffffffffffff1610156132c45780856060019065ffffffffffff16908165ffffffffffff16815260200150505b84600a60005060008a67ffffffffffffffff1667ffffffffffffffff16815260200190815260200160002060005060008201518160000160006101000a8154816fffffffffffffffffffffffffffffffff02191690836fffffffffffffffffffffffffffffffff16021790555060208201518160000160106101000a8154816fffffffffffffffffffffffffffffffff02191690836fffffffffffffffffffffffffffffffff16021790555060408201518160010160006101000a81548173ffffffffffffffffffffffffffffffffffffffff021916908373ffffffffffffffffffffffffffffffffffffffff16021790555060608201518160010160146101000a81548165ffffffffffff021916908365ffffffffffff160217905550608082015181600101601a6101000a81548165ffffffffffff021916908365ffffffffffff16021790555090505060007f000000000000000000000000000000000000000000000000000000000000000073ffffffffffffffffffffffffffffffffffffffff166336fc02f46040518163ffffffff1660e01b8152600401602060405180830381865afa15801561347e573d600060003e3d6000fd5b505050506040513d601f19601f820116820180604052508101906134a29190615382565b90506000846fffffffffffffffffffffffffffffffff1611156134e4576134e3818885876fffffffffffffffffffffffffffffffff16613d1c63ffffffff16565b5b8073ffffffffffffffffffffffffffffffffffffffff166379cc679088876040518363ffffffff1660e01b815260040161351f9291906153ab565b600060405180830381600087803b15801561353a5760006000fd5b505af115801561354f573d600060003e3d6000fd5b505050508673ffffffffffffffffffffffffffffffffffffffff168967ffffffffffffffff167fd428196c29fb7877242c66ff296d926b10a5051d369acf8fe5eb3ea21bb6ec988a6040516135a491906152a1565b60405180910390a3505050505050505b5b6135c3613a7d63ffffffff16565b5b5050565b6135d661365463ffffffff16565b806003600050819090905550670de0b6b3a76400006003600050541115156135fe5760006000fd5b7fbd478b21e3ce5dd7a0c7b139cab55a02b5b6c2f952b522fcea53df127ac14be98160405161362d9190614b0d565b60405180910390a15b5b50565b600960089054906101000a900467ffffffffffffffff1681565b6136b17f000000000000000000000000000000000000000000000000000000000000000073ffffffffffffffffffffffffffffffffffffffff163373ffffffffffffffffffffffffffffffffffffffff16146144d263ffffffff16565b5b565b6001600060006101000a81548160ff0219169083151502179055507f7acc84e34091ae817647a4c49116f5cc07f319078ba80f8f5fde37ea7e25cbd660405160405180910390a15b565b60006000600b60005060008467ffffffffffffffff1667ffffffffffffffff16815260200190815260200160002060005060000160009054906101000a90046fffffffffffffffffffffffffffffffff166fffffffffffffffffffffffffffffffff16119050613769565b919050565b60006137898383670de0b6b3a764000061451863ffffffff16565b905080505b92915050565b600081836137a29190615057565b90506137a9565b92915050565b600081836137bd9190615076565b90506137c4565b92915050565b600060006137dc61463c63ffffffff16565b90508067ffffffffffffffff168360010160149054906101000a900465ffffffffffff1665ffffffffffff16108061383b57508067ffffffffffffffff1683600101601a9054906101000a900465ffffffffffff1665ffffffffffff16105b91505061384456505b919050565b60006000600a60005060008467ffffffffffffffff1667ffffffffffffffff16815260200190815260200160002060005060000160009054906101000a90046fffffffffffffffffffffffffffffffff166fffffffffffffffffffffffffffffffff161190506138b4565b919050565b600060006138f0600960009054906101000a900467ffffffffffffffff1667ffffffffffffffff1684613c4b90919063ffffffff16565b90506000838561390091906153da565b9050600060046000505482106139165785613923565b81866139229190615057565b5b9050613938818461465790919063ffffffff16565b9350505050613945565050505b92915050565b7f000000000000000000000000000000000000000000000000000000000000000073ffffffffffffffffffffffffffffffffffffffff1663e97dcb626040518163ffffffff1660e01b8152600401600060405180830381600087803b1580156139b45760006000fd5b505af11580156139c9573d600060003e3d6000fd5b50505050600260026000505414151515613a18576040517f08c379a0000000000000000000000000000000000000000000000000000000008152600401613a0f906153f8565b60405180910390fd5b600260026000508190909055505b565b600060009054906101000a900460ff16151515613a7a576040517f08c379a0000000000000000000000000000000000000000000000000000000008152600401613a7190615437565b60405180910390fd5b5b565b600160026000508190909055507f000000000000000000000000000000000000000000000000000000000000000073ffffffffffffffffffffffffffffffffffffffff1663e9fad8ee6040518163ffffffff1660e01b8152600401600060405180830381600087803b158015613af35760006000fd5b505af1158015613b08573d600060003e3d6000fd5b505050505b565b6000613c3f7f000000000000000000000000000000000000000000000000000000000000000073ffffffffffffffffffffffffffffffffffffffff1663d3419bf36040518163ffffffff1660e01b8152600401602060405180830381865afa158015613b80573d600060003e3d6000fd5b505050506040513d601f19601f82011682018060405250810190613ba49190615476565b73ffffffffffffffffffffffffffffffffffffffff16638d02a08a600c60189054906101000a900463ffffffff166040518263ffffffff1660e01b8152600401613bee9190614ba5565b602060405180830381865afa158015613c0c573d600060003e3d6000fd5b505050506040513d601f19601f82011682018060405250810190613c309190614f90565b83613c6690919063ffffffff16565b9050613c46565b919050565b60008183613c59919061549f565b9050613c60565b92915050565b6000613c8183670de0b6b3a76400008461451863ffffffff16565b905080505b92915050565b6000613cb882613ca061463c63ffffffff16565b67ffffffffffffffff1661467590919063ffffffff16565b905080505b919050565b6000660100000000000082101515613d0f576040517f08c379a0000000000000000000000000000000000000000000000000000000008152600401613d06906154e4565b60405180910390fd5b819050613d17565b919050565b613da5846323b872dd60e01b858585604051602401613d3d93929190615523565b604051602081830303815290604052907bffffffffffffffffffffffffffffffffffffffffffffffffffffffff19166020820180517bffffffffffffffffffffffffffffffffffffffffffffffffffffffff838183161783525050505061469063ffffffff16565b5b50505050565b6000613dd3600960189054906101000a900467ffffffffffffffff16613c8c63ffffffff16565b90508067ffffffffffffffff16600c60109054906101000a900467ffffffffffffffff1667ffffffffffffffff161015613e315780600c60106101000a81548167ffffffffffffffff021916908367ffffffffffffffff1602179055505b60006040518060a00160405280613e4f8661475d909063ffffffff16565b6fffffffffffffffffffffffffffffffff16815260200160006fffffffffffffffffffffffffffffffff168152602001600073ffffffffffffffffffffffffffffffffffffffff168152602001613edb613ec4600960109054906101000a900467ffffffffffffffff16613c8c63ffffffff16565b67ffffffffffffffff16613cc2909063ffffffff16565b65ffffffffffff168152602001613f038467ffffffffffffffff16613cc2909063ffffffff16565b65ffffffffffff168152602001509050821561410e5780600a6000506000600c60009054906101000a900467ffffffffffffffff1667ffffffffffffffff1667ffffffffffffffff16815260200190815260200160002060005060008201518160000160006101000a8154816fffffffffffffffffffffffffffffffff02191690836fffffffffffffffffffffffffffffffff16021790555060208201518160000160106101000a8154816fffffffffffffffffffffffffffffffff02191690836fffffffffffffffffffffffffffffffff16021790555060408201518160010160006101000a81548173ffffffffffffffffffffffffffffffffffffffff021916908373ffffffffffffffffffffffffffffffffffffffff16021790555060608201518160010160146101000a81548165ffffffffffff021916908365ffffffffffff160217905550608082015181600101601a6101000a81548165ffffffffffff021916908365ffffffffffff16021790555090505083600c600081819054906101000a900467ffffffffffffffff16809291906140a290615155565b91906101000a81548167ffffffffffffffff021916908367ffffffffffffffff16021790555067ffffffffffffffff167fb706108f90fb9e0fadc5f3feaa02b4c23b9d569ad7b46408c64eb4f224eba7cd846040516141019190614b70565b60405180910390a36142ff565b80600b6000506000600c60089054906101000a900467ffffffffffffffff1667ffffffffffffffff1667ffffffffffffffff16815260200190815260200160002060005060008201518160000160006101000a8154816fffffffffffffffffffffffffffffffff02191690836fffffffffffffffffffffffffffffffff16021790555060208201518160000160106101000a8154816fffffffffffffffffffffffffffffffff02191690836fffffffffffffffffffffffffffffffff16021790555060408201518160010160006101000a81548173ffffffffffffffffffffffffffffffffffffffff021916908373ffffffffffffffffffffffffffffffffffffffff16021790555060608201518160010160146101000a81548165ffffffffffff021916908365ffffffffffff160217905550608082015181600101601a6101000a81548165ffffffffffff021916908365ffffffffffff16021790555090505083600c600881819054906101000a900467ffffffffffffffff168092919061429790615155565b91906101000a81548167ffffffffffffffff021916908367ffffffffffffffff16021790555067ffffffffffffffff167f4e673c0fa7786d8c4c1cba0d1678d726ef2cb772cc6abbe3cea73c1a6d9a681e846040516142f69190614b70565b60405180910390a35b50505b5050565b614314613a2863ffffffff16565b7f000000000000000000000000000000000000000000000000000000000000000073ffffffffffffffffffffffffffffffffffffffff1663bf86d6906040518163ffffffff1660e01b8152600401602060405180830381865afa158015614380573d600060003e3d6000fd5b505050506040513d601f19601f820116820180604052508101906143a4919061555d565b1515156143e6576040517f08c379a00000000000000000000000000000000000000000000000000000000081526004016143dd90615586565b60405180910390fd5b5b565b6000816143fb57600660005054614402565b6005600050545b905061441483826138b963ffffffff16565b9250825081156144465761443683600d600050546137af90919063ffffffff16565b600d60005081909090555061446a565b61445e83600e600050546137af90919063ffffffff16565b600e6000508190909055505b60005b614480828561465790919063ffffffff16565b905080506144948184613dac63ffffffff16565b80846144a09190615057565b935083505b60008411151561446d575b50505b5050565b600081836144c591906155c5565b90506144cc565b92915050565b801515614514576040517f08c379a000000000000000000000000000000000000000000000000000000000815260040161450b906155ff565b60405180910390fd5b5b50565b600060006000600019858709858702925082811083820303915050600081141561455b5760008411151561454c5760006000fd5b83820492508292505050614635565b808411151561456a5760006000fd5b60008486880990508281118203915080830392506000856001877fffffffffffffffffffffffffffffffffffffffffffffffffffffffffffffffff03011690508050808604955080840493506001818260000304019050808302841793508350600060028760030218905080870260020381029050805080870260020381029050805080870260020381029050805080870260020381029050805080870260020381029050805080870260020381029050805080850295508550508494505050505061463556505050505b9392505050565b600061464f426147c1909063ffffffff16565b905080505b90565b60008183106146665781614668565b825b905061466f565b92915050565b60008183614683919061563e565b905061468a565b92915050565b60006146f5826040518060400160405280602081526020017f5361666545524332303a206c6f772d6c6576656c2063616c6c206661696c65648152602001508573ffffffffffffffffffffffffffffffffffffffff1661481d9092919063ffffffff16565b90506000815111156147575780806020019051810190614715919061555d565b1515614756576040517f08c379a000000000000000000000000000000000000000000000000000000000815260040161474d90615671565b60405180910390fd5b5b505b5050565b6000700100000000000000000000000000000000821015156147b4576040517f08c379a00000000000000000000000000000000000000000000000000000000081526004016147ab906156d6565b60405180910390fd5b8190506147bc565b919050565b60006801000000000000000082101515614810576040517f08c379a000000000000000000000000000000000000000000000000000000000815260040161480790615715565b60405180910390fd5b819050614818565b919050565b6060614832848460008561484063ffffffff16565b9050614839565b9392505050565b6060824710151515614887576040517f08c379a000000000000000000000000000000000000000000000000000000000815260040161487e90615754565b60405180910390fd5b6148968561496c63ffffffff16565b15156148d7576040517f08c379a00000000000000000000000000000000000000000000000000000000081526004016148ce906157b9565b60405180910390fd5b600060008673ffffffffffffffffffffffffffffffffffffffff168587604051614901919061582d565b60006040518083038185875af1925050503d806000811461493e576040519150601f19603f3d011682016040523d82523d6000602084013e614943565b606091505b509150915061495982828661499563ffffffff16565b925050506149645650505b949350505050565b600060008273ffffffffffffffffffffffffffffffffffffffff163b119050614990565b919050565b606083156149a957829050614a00566149ff565b6000835111156149c15782518084602001fd506149fe565b816040517f08c379a00000000000000000000000000000000000000000000000000000000081526004016149f5919061584c565b60405180910390fd5b5b5b9392505050565b6040518060a0016040528060006fffffffffffffffffffffffffffffffff16815260200160006fffffffffffffffffffffffffffffffff168152602001600073ffffffffffffffffffffffffffffffffffffffff168152602001600065ffffffffffff168152602001600065ffffffffffff1681526020015090566158a0565b600060208201905073ffffffffffffffffffffffffffffffffffffffff831682525b92915050565b60008135905067ffffffffffffffff811681141515614ace5760006000fd5b5b919050565b600060208284031215614ae75760006000fd5b614af082614aaf565b90505b92915050565b600060208201905082151582525b92915050565b60006020820190508282525b92915050565b600060208284031215614b325760006000fd5b81357fffffffff00000000000000000000000000000000000000000000000000000000811681141515614b655760006000fd5b809150505b92915050565b600060208201905067ffffffffffffffff831682525b92915050565b60006040820190508382528260208301525b9392505050565b600060208201905063ffffffff831682525b92915050565b600060208201905073ffffffffffffffffffffffffffffffffffffffff831682525b92915050565b600060a0820190506fffffffffffffffffffffffffffffffff808816835280871660208401525073ffffffffffffffffffffffffffffffffffffffff8516604083015265ffffffffffff80851660608401528084166080840152505b9695505050505050565b600060208284031215614c5e5760006000fd5b813590505b92915050565b6000600060408385031215614c7e5760006000fd5b82359150602083013590505b9250929050565b80151581141515614ca25760006000fd5b505b565b6000600060408385031215614cbb5760006000fd5b614cc483614aaf565b91506020830135614cd481614c91565b809150505b9250929050565b600081518084526020808501945080840160005b83811015614d165781518752828701965082820191505b600181019050614cf4565b505050508290505b92915050565b600081518084526020808501945080840160005b83811015614d5c57815115158752828701965082820191505b600181019050614d38565b505050508290505b92915050565b600060608083018184528087518083526080925082860191506020808a0160005b83811015614e0e5781516fffffffffffffffffffffffffffffffff8082511687528085830151168588015250604073ffffffffffffffffffffffffffffffffffffffff818301511681880152508781015165ffffffffffff8082168a8901528089840151168989015250505060a08501945082820191505b600181019050614d8b565b5050868303818801525050614e238188614ce0565b925050508281036040840152614e398185614d24565b9150505b949350505050565b6000600060408385031215614e5a5760006000fd5b614e6383614aaf565b915060208301356fffffffffffffffffffffffffffffffff811681141515614e8b5760006000fd5b809150505b9250929050565b6000600060408385031215614eac5760006000fd5b823591506020830135614ebe81614c91565b809150505b9250929050565b600060208284031215614edd5760006000fd5b813563ffffffff811681141515614ef45760006000fd5b809150505b92915050565b73ffffffffffffffffffffffffffffffffffffffff811681141515614f245760006000fd5b505b565b600060208284031215614f3b5760006000fd5b8151614f4681614eff565b809150505b92915050565b60208152601360208201527f557365206c617465737420636f6e747261637400000000000000000000000000604082015260006060820190505b919050565b600060208284031215614fa35760006000fd5b815190505b92915050565b600060208284031215614fc15760006000fd5b8151614fcc81614eff565b809150505b92915050565b7f4e487b7100000000000000000000000000000000000000000000000000000000600052601260045260246000fd5b565b7f4e487b7100000000000000000000000000000000000000000000000000000000600052601160045260246000fd5b565b600082151561504b5761504a614fd7565b5b82820490505b92915050565b60008282101561506a57615069615008565b5b82820390505b92915050565b6000821982111561508a57615089615008565b5b82820190505b92915050565b60208152601460208201527f41756374696f6e206e6f7420636f6d706c657465000000000000000000000000604082015260006060820190505b919050565b600060408201905073ffffffffffffffffffffffffffffffffffffffff841682526fffffffffffffffffffffffffffffffff831660208301525b9392505050565b60007fffffffffffffffffffffffffffffffffffffffffffffffffffffffffffffffff82141561514957615148615008565b5b6001820190505b919050565b600067ffffffffffffffff8083168181141561517457615173615008565b5b60018101925050505b919050565b7f4e487b7100000000000000000000000000000000000000000000000000000000600052604160045260246000fd5b565b7f4e487b7100000000000000000000000000000000000000000000000000000000600052603260045260246000fd5b565b60208152601060208201527f41756374696f6e206e6f74206c69766500000000000000000000000000000000604082015260006060820190505b919050565b60208152600c60208201527f42696420746f6f20686967680000000000000000000000000000000000000000604082015260006060820190505b919050565b60208152601160208201527f446964206e6f7420756e64657220626964000000000000000000000000000000604082015260006060820190505b919050565b60006020820190506fffffffffffffffffffffffffffffffff831682525b92915050565b60208152601460208201527f4e6f2061756374696f6e7320746f207374617274000000000000000000000000604082015260006060820190505b919050565b60208152600b60208201527f42696420746f6f206c6f77000000000000000000000000000000000000000000604082015260006060820190505b919050565b60208152600f60208201527f446964206e6f74206f7574206269640000000000000000000000000000000000604082015260006060820190505b919050565b6000602082840312156153955760006000fd5b81516153a081614eff565b809150505b92915050565b600060408201905073ffffffffffffffffffffffffffffffffffffffff841682528260208301525b9392505050565b60008215156153ec576153eb614fd7565b5b82820690505b92915050565b60208152600d60208201527f4c50205265656e7472616e637900000000000000000000000000000000000000604082015260006060820190505b919050565b60208152601360208201527f436f6e74726163742069732073746f7070656400000000000000000000000000604082015260006060820190505b919050565b6000602082840312156154895760006000fd5b815161549481614eff565b809150505b92915050565b6000817fffffffffffffffffffffffffffffffffffffffffffffffffffffffffffffffff04831182151516156154d8576154d7615008565b5b82820290505b92915050565b60208152601160208201527f6d6f7265207468616e2034382062697473000000000000000000000000000000604082015260006060820190505b919050565b600060608201905073ffffffffffffffffffffffffffffffffffffffff80861683528085166020840152508260408301525b949350505050565b6000602082840312156155705760006000fd5b815161557b81614c91565b809150505b92915050565b60208152601160208201527f50726f746f636f6c2073687574646f776e000000000000000000000000000000604082015260006060820190505b919050565b60006fffffffffffffffffffffffffffffffff8083168185169150818110156155f1576155f0615008565b5b818103925050505b92915050565b60208152600e60208201527f4e6f7420417574686f72697a6564000000000000000000000000000000000000604082015260006060820190505b919050565b600067ffffffffffffffff80831681851680830382111561566257615661615008565b5b80820193505050505b92915050565b60208152602a60208201527f5361666545524332303a204552433230206f7065726174696f6e20646964206e60408201527f6f74207375636365656400000000000000000000000000000000000000000000606082015260006080820190505b919050565b60208152601260208201527f6d6f7265207468616e2031323820626974730000000000000000000000000000604082015260006060820190505b919050565b60208152601160208201527f6d6f7265207468616e2036342062697473000000000000000000000000000000604082015260006060820190505b919050565b60208152602660208201527f416464726573733a20696e73756666696369656e742062616c616e636520666f60408201527f722063616c6c0000000000000000000000000000000000000000000000000000606082015260006080820190505b919050565b60208152601d60208201527f416464726573733a2063616c6c20746f206e6f6e2d636f6e7472616374000000604082015260006060820190505b919050565b60005b838110156158175780820151818401525b6020810190506157fb565b83811115615826576000848401525b505050505b565b6000825161583f8184602087016157f8565b8083019150505b92915050565b602081526000825180602084015261586b8160408501602087016157f8565b60407fffffffffffffffffffffffffffffffffffffffffffffffffffffffffffffffe0601f8301168401019150505b92915050565bfea2646970667358221220fc81f55a1291ff3c9084035a6130a1fd1e5bec0ddae5973c8a35912b72ebf7e364736f6c634300080c0033",
  "linkReferences": {},
  "deployedLinkReferences": {}
}