{
  "_format": "hh-sol-artifact-1",
  "contractName": "Accounting",
  "sourceName": "contracts/core/storage/Accounting.sol",
  "abi": [
    {
      "inputs": [
        {
          "components": [
            {
              "internalType": "contract IGovernor",
              "name": "Governor",
              "type": "address"
            },
            {
              "internalType": "contract IHue",
              "name": "Hue",
              "type": "address"
            },
            {
              "internalType": "contract IERC20",
              "name": "TruEth",
              "type": "address"
            }
          ],
          "internalType": "struct IAccounting.ConstructorParams",
          "name": "params",
          "type": "tuple"
        }
      ],
      "stateMutability": "nonpayable",
      "type": "constructor"
    },
    {
      "anonymous": false,
      "inputs": [],
      "name": "DebtPositionIndexingDisabled",
      "type": "event"
    },
    {
      "anonymous": false,
      "inputs": [],
      "name": "PoolPositionIndexingDisabled",
      "type": "event"
    },
    {
      "anonymous": false,
      "inputs": [],
      "name": "Stopped",
      "type": "event"
    },
    {
      "anonymous": false,
      "inputs": [
        {
          "indexed": true,
          "internalType": "uint32",
          "name": "interfaceID",
          "type": "uint32"
        },
        {
          "indexed": true,
          "internalType": "address",
          "name": "kickbackDestination",
          "type": "address"
        },
        {
          "indexed": false,
          "internalType": "string",
          "name": "ipfsHash",
          "type": "string"
        }
      ],
      "name": "UIInitialized",
      "type": "event"
    },
    {
      "anonymous": false,
      "inputs": [
        {
          "indexed": true,
          "internalType": "uint32",
          "name": "interfaceID",
          "type": "uint32"
        },
        {
          "indexed": true,
          "internalType": "address",
          "name": "kickbackDestination",
          "type": "address"
        },
        {
          "indexed": true,
          "internalType": "uint24",
          "name": "tags",
          "type": "uint24"
        },
        {
          "indexed": false,
          "internalType": "uint256",
          "name": "kickbackPortion",
          "type": "uint256"
        }
      ],
      "name": "UIRegistered",
      "type": "event"
    },
    {
      "anonymous": false,
      "inputs": [
        {
          "indexed": false,
          "internalType": "uint32[]",
          "name": "uis",
          "type": "uint32[]"
        }
      ],
      "name": "UIsApproved",
      "type": "event"
    },
    {
      "anonymous": false,
      "inputs": [
        {
          "indexed": false,
          "internalType": "uint32[]",
          "name": "uis",
          "type": "uint32[]"
        }
      ],
      "name": "UIsDisapproved",
      "type": "event"
    },
    {
      "inputs": [
        {
          "internalType": "uint32[]",
          "name": "ids",
          "type": "uint32[]"
        }
      ],
      "name": "approveUIs",
      "outputs": [],
      "stateMutability": "nonpayable",
      "type": "function"
    },
    {
      "inputs": [],
      "name": "debt",
      "outputs": [
        {
          "internalType": "uint256",
          "name": "",
          "type": "uint256"
        }
      ],
      "stateMutability": "view",
      "type": "function"
    },
    {
      "inputs": [],
      "name": "debtPositionIndexingEnabled",
      "outputs": [
        {
          "internalType": "bool",
          "name": "",
          "type": "bool"
        }
      ],
      "stateMutability": "view",
      "type": "function"
    },
    {
      "inputs": [
        {
          "internalType": "uint256",
          "name": "count",
          "type": "uint256"
        }
      ],
      "name": "decreaseDebt",
      "outputs": [],
      "stateMutability": "nonpayable",
      "type": "function"
    },
    {
      "inputs": [
        {
          "internalType": "contract CharmWrapper",
          "name": "pool",
          "type": "address"
        },
        {
          "internalType": "uint256",
          "name": "liquidity",
          "type": "uint256"
        }
      ],
      "name": "decreasePoolLiquidity",
      "outputs": [],
      "stateMutability": "nonpayable",
      "type": "function"
    },
    {
      "inputs": [
        {
          "internalType": "uint32[]",
          "name": "ids",
          "type": "uint32[]"
        }
      ],
      "name": "disapproveUIs",
      "outputs": [],
      "stateMutability": "nonpayable",
      "type": "function"
    },
    {
      "inputs": [
        {
          "internalType": "uint64",
          "name": "positionID",
          "type": "uint64"
        }
      ],
      "name": "getBasicPositionInfo",
      "outputs": [
        {
          "internalType": "uint256",
          "name": "debtCount",
          "type": "uint256"
        },
        {
          "internalType": "uint256",
          "name": "collateralCount",
          "type": "uint256"
        }
      ],
      "stateMutability": "view",
      "type": "function"
    },
    {
      "inputs": [
        {
          "internalType": "address",
          "name": "owner",
          "type": "address"
        },
        {
          "internalType": "contract CharmWrapper",
          "name": "pool",
          "type": "address"
        }
      ],
      "name": "getPoolPosition",
      "outputs": [
        {
          "components": [
            {
              "internalType": "address",
              "name": "owner",
              "type": "address"
            },
            {
              "internalType": "uint256",
              "name": "cumulativeLiquidity",
              "type": "uint256"
            },
            {
              "internalType": "uint256",
              "name": "totalRewards",
              "type": "uint256"
            },
            {
              "internalType": "uint256",
              "name": "lastBlockPositionIncreased",
              "type": "uint256"
            },
            {
              "internalType": "uint128",
              "name": "liquidity",
              "type": "uint128"
            },
            {
              "internalType": "uint64",
              "name": "lastTimeRewarded",
              "type": "uint64"
            },
            {
              "internalType": "uint32",
              "name": "ui",
              "type": "uint32"
            },
            {
              "internalType": "address",
              "name": "kickbackDestination",
              "type": "address"
            },
            {
              "internalType": "uint64",
              "name": "kickbackPortion",
              "type": "uint64"
            }
          ],
          "internalType": "struct IAccounting.PoolPosition",
          "name": "pp",
          "type": "tuple"
        }
      ],
      "stateMutability": "view",
      "type": "function"
    },
    {
      "inputs": [
        {
          "internalType": "uint64",
          "name": "positionID",
          "type": "uint64"
        }
      ],
      "name": "getPosition",
      "outputs": [
        {
          "components": [
            {
              "internalType": "uint256",
              "name": "startCumulativeDebt",
              "type": "uint256"
            },
            {
              "internalType": "uint256",
              "name": "collateral",
              "type": "uint256"
            },
            {
              "internalType": "uint256",
              "name": "debt",
              "type": "uint256"
            },
            {
              "internalType": "uint256",
              "name": "startDebtExchangeRate",
              "type": "uint256"
            },
            {
              "internalType": "uint256",
              "name": "startTCPRewards",
              "type": "uint256"
            },
            {
              "internalType": "uint64",
              "name": "lastTimeUpdated",
              "type": "uint64"
            },
            {
              "internalType": "uint64",
              "name": "lastBlockPositionIncreased",
              "type": "uint64"
            },
            {
              "internalType": "int24",
              "name": "tick",
              "type": "int24"
            },
            {
              "internalType": "bool",
              "name": "tickSet",
              "type": "bool"
            },
            {
              "internalType": "uint64",
              "name": "tickIndex",
              "type": "uint64"
            },
            {
              "internalType": "uint32",
              "name": "ui",
              "type": "uint32"
            },
            {
              "internalType": "address",
              "name": "kickbackDestination",
              "type": "address"
            },
            {
              "internalType": "uint64",
              "name": "kickbackPortion",
              "type": "uint64"
            }
          ],
          "internalType": "struct IAccounting.DebtPosition",
          "name": "dp",
          "type": "tuple"
        }
      ],
      "stateMutability": "view",
      "type": "function"
    },
    {
      "inputs": [
        {
          "internalType": "contract CharmWrapper",
          "name": "pool",
          "type": "address"
        }
      ],
      "name": "getRewardStatus",
      "outputs": [
        {
          "components": [
            {
              "internalType": "uint256",
              "name": "totalRewards",
              "type": "uint256"
            },
            {
              "internalType": "uint256",
              "name": "cumulativeLiquidity",
              "type": "uint256"
            }
          ],
          "internalType": "struct IAccounting.RewardStatus",
          "name": "",
          "type": "tuple"
        }
      ],
      "stateMutability": "view",
      "type": "function"
    },
    {
      "inputs": [],
      "name": "getSystemDebtInfo",
      "outputs": [
        {
          "components": [
            {
              "internalType": "uint256",
              "name": "debt",
              "type": "uint256"
            },
            {
              "internalType": "uint256",
              "name": "totalTCPRewards",
              "type": "uint256"
            },
            {
              "internalType": "uint256",
              "name": "cumulativeDebt",
              "type": "uint256"
            },
            {
              "internalType": "uint256",
              "name": "debtExchangeRate",
              "type": "uint256"
            }
          ],
          "internalType": "struct IAccounting.SystemDebtInfo",
          "name": "",
          "type": "tuple"
        }
      ],
      "stateMutability": "view",
      "type": "function"
    },
    {
      "inputs": [
        {
          "internalType": "uint256",
          "name": "collateralCount",
          "type": "uint256"
        },
        {
          "internalType": "uint256",
          "name": "debtCount",
          "type": "uint256"
        }
      ],
      "name": "getTick",
      "outputs": [
        {
          "internalType": "int24",
          "name": "",
          "type": "int24"
        }
      ],
      "stateMutability": "pure",
      "type": "function"
    },
    {
      "inputs": [
        {
          "internalType": "uint32",
          "name": "start",
          "type": "uint32"
        },
        {
          "internalType": "uint32",
          "name": "end",
          "type": "uint32"
        }
      ],
      "name": "getUIs",
      "outputs": [
        {
          "components": [
            {
              "internalType": "address",
              "name": "kickbackDestination",
              "type": "address"
            },
            {
              "internalType": "uint64",
              "name": "kickbackPortion",
              "type": "uint64"
            },
            {
              "internalType": "enum IAccounting.UIGovernanceRating",
              "name": "governanceRating",
              "type": "uint8"
            },
            {
              "internalType": "uint24",
              "name": "tags",
              "type": "uint24"
            },
            {
              "internalType": "string",
              "name": "ipfsHash",
              "type": "string"
            }
          ],
          "internalType": "struct IAccounting.UserInterface[]",
          "name": "uis",
          "type": "tuple[]"
        }
      ],
      "stateMutability": "view",
      "type": "function"
    },
    {
      "inputs": [],
      "name": "governor",
      "outputs": [
        {
          "internalType": "contract IGovernor",
          "name": "",
          "type": "address"
        }
      ],
      "stateMutability": "view",
      "type": "function"
    },
    {
      "inputs": [
        {
          "internalType": "uint256",
          "name": "count",
          "type": "uint256"
        }
      ],
      "name": "increaseDebt",
      "outputs": [],
      "stateMutability": "nonpayable",
      "type": "function"
    },
    {
      "inputs": [
        {
          "internalType": "uint256",
          "name": "count",
          "type": "uint256"
        }
      ],
      "name": "increaseLentHue",
      "outputs": [],
      "stateMutability": "nonpayable",
      "type": "function"
    },
    {
      "inputs": [
        {
          "internalType": "contract CharmWrapper",
          "name": "pool",
          "type": "address"
        },
        {
          "internalType": "uint256",
          "name": "liquidity",
          "type": "uint256"
        }
      ],
      "name": "increasePoolLiquidity",
      "outputs": [],
      "stateMutability": "nonpayable",
      "type": "function"
    },
    {
      "inputs": [
        {
          "internalType": "uint32",
          "name": "interfaceID",
          "type": "uint32"
        },
        {
          "internalType": "string",
          "name": "ipfsHash",
          "type": "string"
        }
      ],
      "name": "initializeUI",
      "outputs": [],
      "stateMutability": "nonpayable",
      "type": "function"
    },
    {
      "inputs": [],
      "name": "lentHue",
      "outputs": [
        {
          "internalType": "uint256",
          "name": "",
          "type": "uint256"
        }
      ],
      "stateMutability": "view",
      "type": "function"
    },
    {
      "inputs": [],
      "name": "nextUserInterfaceID",
      "outputs": [
        {
          "internalType": "uint32",
          "name": "",
          "type": "uint32"
        }
      ],
      "stateMutability": "view",
      "type": "function"
    },
    {
      "inputs": [
        {
          "internalType": "address",
          "name": "",
          "type": "address"
        },
        {
          "internalType": "address",
          "name": "",
          "type": "address"
        },
        {
          "internalType": "uint256",
          "name": "",
          "type": "uint256"
        },
        {
          "internalType": "bytes",
          "name": "",
          "type": "bytes"
        }
      ],
      "name": "onERC721Received",
      "outputs": [
        {
          "internalType": "bytes4",
          "name": "",
          "type": "bytes4"
        }
      ],
      "stateMutability": "pure",
      "type": "function"
    },
    {
      "inputs": [
        {
          "internalType": "contract CharmWrapper",
          "name": "",
          "type": "address"
        }
      ],
      "name": "poolLiquidity",
      "outputs": [
        {
          "internalType": "uint256",
          "name": "",
          "type": "uint256"
        }
      ],
      "stateMutability": "view",
      "type": "function"
    },
    {
      "inputs": [],
      "name": "poolPositionIndexingEnabled",
      "outputs": [
        {
          "internalType": "bool",
          "name": "",
          "type": "bool"
        }
      ],
      "stateMutability": "view",
      "type": "function"
    },
    {
      "inputs": [
        {
          "internalType": "int24",
          "name": "tick",
          "type": "int24"
        }
      ],
      "name": "positionsForTick",
      "outputs": [
        {
          "internalType": "uint64[]",
          "name": "",
          "type": "uint64[]"
        }
      ],
      "stateMutability": "view",
      "type": "function"
    },
    {
      "inputs": [
        {
          "internalType": "uint64",
          "name": "kickbackPortion",
          "type": "uint64"
        },
        {
          "internalType": "uint24",
          "name": "tags",
          "type": "uint24"
        }
      ],
      "name": "registerUI",
      "outputs": [
        {
          "internalType": "uint32",
          "name": "",
          "type": "uint32"
        }
      ],
      "stateMutability": "nonpayable",
      "type": "function"
    },
    {
      "inputs": [
        {
          "internalType": "address",
          "name": "dest",
          "type": "address"
        },
        {
          "internalType": "uint256",
          "name": "count",
          "type": "uint256"
        }
      ],
      "name": "sendCollateral",
      "outputs": [],
      "stateMutability": "nonpayable",
      "type": "function"
    },
    {
      "inputs": [
        {
          "internalType": "address",
          "name": "dest",
          "type": "address"
        },
        {
          "internalType": "uint256",
          "name": "count",
          "type": "uint256"
        }
      ],
      "name": "sendLentHue",
      "outputs": [],
      "stateMutability": "nonpayable",
      "type": "function"
    },
    {
      "inputs": [
        {
          "internalType": "address",
          "name": "owner",
          "type": "address"
        },
        {
          "internalType": "contract CharmWrapper",
          "name": "pool",
          "type": "address"
        },
        {
          "components": [
            {
              "internalType": "address",
              "name": "owner",
              "type": "address"
            },
            {
              "internalType": "uint256",
              "name": "cumulativeLiquidity",
              "type": "uint256"
            },
            {
              "internalType": "uint256",
              "name": "totalRewards",
              "type": "uint256"
            },
            {
              "internalType": "uint256",
              "name": "lastBlockPositionIncreased",
              "type": "uint256"
            },
            {
              "internalType": "uint128",
              "name": "liquidity",
              "type": "uint128"
            },
            {
              "internalType": "uint64",
              "name": "lastTimeRewarded",
              "type": "uint64"
            },
            {
              "internalType": "uint32",
              "name": "ui",
              "type": "uint32"
            },
            {
              "internalType": "address",
              "name": "kickbackDestination",
              "type": "address"
            },
            {
              "internalType": "uint64",
              "name": "kickbackPortion",
              "type": "uint64"
            }
          ],
          "internalType": "struct IAccounting.PoolPosition",
          "name": "pp",
          "type": "tuple"
        }
      ],
      "name": "setPoolPosition",
      "outputs": [],
      "stateMutability": "nonpayable",
      "type": "function"
    },
    {
      "inputs": [
        {
          "internalType": "uint64",
          "name": "positionID",
          "type": "uint64"
        },
        {
          "components": [
            {
              "internalType": "uint256",
              "name": "startCumulativeDebt",
              "type": "uint256"
            },
            {
              "internalType": "uint256",
              "name": "collateral",
              "type": "uint256"
            },
            {
              "internalType": "uint256",
              "name": "debt",
              "type": "uint256"
            },
            {
              "internalType": "uint256",
              "name": "startDebtExchangeRate",
              "type": "uint256"
            },
            {
              "internalType": "uint256",
              "name": "startTCPRewards",
              "type": "uint256"
            },
            {
              "internalType": "uint64",
              "name": "lastTimeUpdated",
              "type": "uint64"
            },
            {
              "internalType": "uint64",
              "name": "lastBlockPositionIncreased",
              "type": "uint64"
            },
            {
              "internalType": "int24",
              "name": "tick",
              "type": "int24"
            },
            {
              "internalType": "bool",
              "name": "tickSet",
              "type": "bool"
            },
            {
              "internalType": "uint64",
              "name": "tickIndex",
              "type": "uint64"
            },
            {
              "internalType": "uint32",
              "name": "ui",
              "type": "uint32"
            },
            {
              "internalType": "address",
              "name": "kickbackDestination",
              "type": "address"
            },
            {
              "internalType": "uint64",
              "name": "kickbackPortion",
              "type": "uint64"
            }
          ],
          "internalType": "struct IAccounting.DebtPosition",
          "name": "dp",
          "type": "tuple"
        }
      ],
      "name": "setPosition",
      "outputs": [],
      "stateMutability": "nonpayable",
      "type": "function"
    },
    {
      "inputs": [
        {
          "internalType": "contract CharmWrapper",
          "name": "pool",
          "type": "address"
        },
        {
          "components": [
            {
              "internalType": "uint256",
              "name": "totalRewards",
              "type": "uint256"
            },
            {
              "internalType": "uint256",
              "name": "cumulativeLiquidity",
              "type": "uint256"
            }
          ],
          "internalType": "struct IAccounting.RewardStatus",
          "name": "rs",
          "type": "tuple"
        }
      ],
      "name": "setRewardStatus",
      "outputs": [],
      "stateMutability": "nonpayable",
      "type": "function"
    },
    {
      "inputs": [
        {
          "components": [
            {
              "internalType": "uint256",
              "name": "debt",
              "type": "uint256"
            },
            {
              "internalType": "uint256",
              "name": "totalTCPRewards",
              "type": "uint256"
            },
            {
              "internalType": "uint256",
              "name": "cumulativeDebt",
              "type": "uint256"
            },
            {
              "internalType": "uint256",
              "name": "debtExchangeRate",
              "type": "uint256"
            }
          ],
          "internalType": "struct IAccounting.SystemDebtInfo",
          "name": "_sdi",
          "type": "tuple"
        }
      ],
      "name": "setSystemDebtInfo",
      "outputs": [],
      "stateMutability": "nonpayable",
      "type": "function"
    },
    {
      "inputs": [
        {
          "internalType": "int24",
          "name": "rawTick",
          "type": "int24"
        },
        {
          "internalType": "int24",
          "name": "tickSpacing",
          "type": "int24"
        }
      ],
      "name": "snapRawTickToSpacing",
      "outputs": [
        {
          "internalType": "int24",
          "name": "",
          "type": "int24"
        }
      ],
      "stateMutability": "pure",
      "type": "function"
    },
    {
      "inputs": [],
      "name": "stopIndexingDebtPositions",
      "outputs": [],
      "stateMutability": "nonpayable",
      "type": "function"
    },
    {
      "inputs": [],
      "name": "stopIndexingPoolPositions",
      "outputs": [],
      "stateMutability": "nonpayable",
      "type": "function"
    },
    {
      "inputs": [],
      "name": "stopped",
      "outputs": [
        {
          "internalType": "bool",
          "name": "",
          "type": "bool"
        }
      ],
      "stateMutability": "view",
      "type": "function"
    },
    {
      "inputs": [],
      "name": "sweepHue",
      "outputs": [],
      "stateMutability": "nonpayable",
      "type": "function"
    },
    {
      "inputs": [],
      "name": "truEth",
      "outputs": [
        {
          "internalType": "contract IERC20",
          "name": "",
          "type": "address"
        }
      ],
      "stateMutability": "view",
      "type": "function"
    },
    {
      "inputs": [
        {
          "internalType": "uint256",
          "name": "",
          "type": "uint256"
        }
      ],
      "name": "userInterfaces",
      "outputs": [
        {
          "internalType": "address",
          "name": "kickbackDestination",
          "type": "address"
        },
        {
          "internalType": "uint64",
          "name": "kickbackPortion",
          "type": "uint64"
        },
        {
          "internalType": "enum IAccounting.UIGovernanceRating",
          "name": "governanceRating",
          "type": "uint8"
        },
        {
          "internalType": "uint24",
          "name": "tags",
          "type": "uint24"
        },
        {
          "internalType": "string",
          "name": "ipfsHash",
          "type": "string"
        }
      ],
      "stateMutability": "view",
      "type": "function"
    },
    {
      "inputs": [
        {
          "internalType": "bytes4",
          "name": "",
          "type": "bytes4"
        }
      ],
      "name": "validUpdate",
      "outputs": [
        {
          "internalType": "bool",
          "name": "",
          "type": "bool"
        }
      ],
      "stateMutability": "view",
      "type": "function"
    }
  ],
  "bytecode": "0x60e0604052600160026000509090556001600460006101000a81548160ff0219169083151502179055506001600460016101000a81548160ff0219169083151502179055506001600d60006101000a81548163ffffffff021916908363ffffffff160217905550348015620000745760006000fd5b5060405162006b9b38038062006b9b83398181016040528101906200009a919062000410565b5b80600001515b8073ffffffffffffffffffffffffffffffffffffffff1660808173ffffffffffffffffffffffffffffffffffffffff16815260200150505b50806020015173ffffffffffffffffffffffffffffffffffffffff1660a08173ffffffffffffffffffffffffffffffffffffffff1681526020015050806040015173ffffffffffffffffffffffffffffffffffffffff1660c08173ffffffffffffffffffffffffffffffffffffffff168152602001505062000170670de0b6b3a76400006200038660201b6200228717909060201c565b600760005060010160106101000a8154816fffffffffffffffffffffffffffffffff02191690836fffffffffffffffffffffffffffffffff16021790555060016001600050600063461054a360e01b7bffffffffffffffffffffffffffffffffffffffffffffffffffffffff19167bffffffffffffffffffffffffffffffffffffffffffffffffffffffff1916815260200190815260200160002060006101000a81548160ff02191690831515021790555060016001600050600063602db56b60e01b7bffffffffffffffffffffffffffffffffffffffffffffffffffffffff19167bffffffffffffffffffffffffffffffffffffffffffffffffffffffff1916815260200190815260200160002060006101000a81548160ff02191690831515021790555060016001600050600063397d359260e01b7bffffffffffffffffffffffffffffffffffffffffffffffffffffffff19167bffffffffffffffffffffffffffffffffffffffffffffffffffffffff1916815260200190815260200160002060006101000a81548160ff021916908315150217905550600160016000506000630b218d2460e01b7bffffffffffffffffffffffffffffffffffffffffffffffffffffffff19167bffffffffffffffffffffffffffffffffffffffffffffffffffffffff1916815260200190815260200160002060006101000a81548160ff0219169083151502179055505b50620004e4565b600070010000000000000000000000000000000082101515620003e0576040517f08c379a0000000000000000000000000000000000000000000000000000000008152600401620003d790620004a4565b60405180910390fd5b819050620003e9565b91905056620004e3565b6001600160a01b038116811415156200040c5760006000fd5b505b565b600060608284031215620004245760006000fd5b604051606081018181106001600160401b03821117156200045557634e487b7160e01b600052604160045260246000fd5b806040525082516200046781620003f3565b8082525060208301516200047b81620003f3565b8060208301525060408301516200049281620003f3565b80604083015250809150505b92915050565b60208152601260208201527f6d6f7265207468616e2031323820626974730000000000000000000000000000604082015260006060820190505b919050565b5b60805160a05160c05161664f6200054c600039600081816113b30152611ef40152600081816116ef0152818161174201528181611763015261178a0152600081816108ec01528181612470015281816128c7015281816129750152612a06015261664f6000f3fe60806040523480156100115760006000fd5b50600436106102b25760003560e01c8063602db56b1161017c578063c0c899ff116100d9578063d2f827eb1161008d578063dfff5dc411610072578063dfff5dc414610775578063e2b1e9e3146107a5578063fd9c7492146107c3576102b2565b8063d2f827eb14610727578063d99f572614610745576102b2565b8063c3c837ba116100be578063c3c837ba14610697578063c7711db4146106c7578063d159b4ae146106f7576102b2565b8063c0c899ff1461064b578063c32bfdaa14610667576102b2565b80637f250c6111610130578063a135ef1711610115578063a135ef17146105f5578063b241bbac14610625578063bdb2a49614610641576102b2565b80637f250c61146105bb57806396122a5c146105d9576102b2565b80636594da9f116101615780636594da9f1461055057806375f12b211461058157806378efc6b01461059f576102b2565b8063602db56b1461052a5780636250216914610534576102b2565b806318a15e791161022a578063397d3592116101de578063530c1ccb116101c3578063530c1ccb146104d65780635374a6da146104f25780635a6beaf41461050e576102b2565b8063397d3592146104b0578063461054a3146104cc576102b2565b80632a7ba1f71161020f5780632a7ba1f71461045c5780632b7c7b11146104785780632c73f09e14610494576102b2565b806318a15e79146103f85780631cef92b11461042c576102b2565b80630dca59c111610281578063113cf1ab11610266578063113cf1ab1461037c5780631428561d146103ac578063150b7a02146103c8576102b2565b80630dca59c11461032e5780630f85fc5a1461034c576102b2565b806306ef2d80146102b8578063092a26c3146102d65780630b218d24146102f45780630c340a2414610310576102b2565b60006000fd5b6102c06107e1565b6040516102cd9190614bbe565b60405180910390f35b6102de610801565b6040516102eb9190614bf9565b60405180910390f35b61030e60048036038101906103099190614d1a565b610814565b005b6103186108ea565b6040516103259190614dd9565b60405180910390f35b61033661090e565b6040516103439190614e01565b60405180910390f35b61036660048036038101906103619190614e38565b610951565b6040516103739190614ea6565b60405180910390f35b61039660048036038101906103919190614f84565b610a70565b6040516103a39190614bf9565b60405180910390f35b6103c660048036038101906103c19190614ffe565b610a95565b005b6103e260048036038101906103dd9190615046565b610b22565b6040516103ef91906150f6565b60405180910390f35b610412600480360381019061040d919061512a565b610b68565b60405161042395949392919061523c565b60405180910390f35b610446600480360381019061044191906152a0565b610c7c565b60405161045391906152c9565b60405180910390f35b6104766004803603810190610471919061512a565b610cfd565b005b610492600480360381019061048d919061512a565b610dbc565b005b6104ae60048036038101906104a9919061512a565b610e7b565b005b6104ca60048036038101906104c59190614d1a565b610ec6565b005b6104d4611016565b005b6104f060048036038101906104eb9190614ffe565b61106f565b005b61050c60048036038101906105079190615313565b6110fc565b005b61052860048036038101906105239190615462565b61113e565b005b610532611339565b005b61054e60048036038101906105499190615590565b611392565b005b61056a60048036038101906105659190614e38565b6113f3565b6040516105789291906155c3565b60405180910390f35b6105896115a6565b6040516105969190614bf9565b60405180910390f35b6105b960048036038101906105b491906155dc565b6115b9565b005b6105c36115f7565b6040516105d09190614e01565b60405180910390f35b6105f360048036038101906105ee9190615645565b611600565b005b61060f600480360381019061060a91906152a0565b611697565b60405161061c9190614e01565b60405180910390f35b61063f600480360381019061063a9190615590565b6116b2565b005b61064961172f565b005b610665600480360381019061066091906156e2565b61184a565b005b610681600480360381019061067c91906157af565b6119fc565b60405161068e91906157ed565b60405180910390f35b6106b160048036038101906106ac919061589f565b611b12565b6040516106be91906158d5565b60405180910390f35b6106e160048036038101906106dc91906159c1565b611d9c565b6040516106ee91906159e6565b60405180910390f35b610711600480360381019061070c9190615a3f565b611e5c565b60405161071e9190615a67565b60405180910390f35b61072f611ef2565b60405161073c9190615a7c565b60405180910390f35b61075f600480360381019061075a9190615aa4565b611f16565b60405161076c9190615a67565b60405180910390f35b61078f600480360381019061078a9190615ada565b611f7d565b60405161079c9190615b1f565b60405180910390f35b6107ad61225e565b6040516107ba9190615b1f565b60405180910390f35b6107cb612274565b6040516107d89190614bf9565b60405180910390f35b6107e9614900565b6107f76122eb63ffffffff16565b90506107fe565b90565b600460009054906101000a900460ff1681565b61082261246b63ffffffff16565b6000600090505b81518110156108ad576003600e600050600084848151811015156108505761084f615b37565b5b602002602001015163ffffffff168152602001908152602001600020600050600001601c6101000a81548160ff0219169083600381111561089457610893615148565b5b02179055505b80806108a590615b99565b915050610829565b507f7264e0084cbb7692193b834f40153b973ff4f827f8ed45da32ae6d8e486bb0c7816040516108dd9190615bd8565b60405180910390a15b5b50565b7f000000000000000000000000000000000000000000000000000000000000000081565b6000600760005060010160009054906101000a90046fffffffffffffffffffffffffffffffff166fffffffffffffffffffffffffffffffff16905061094e565b90565b61095961492b565b610968826124cb63ffffffff16565b90508050600081610140015163ffffffff161115610a6357600e600050600082610140015163ffffffff16815260200190815260200160002060005060000160009054906101000a900473ffffffffffffffffffffffffffffffffffffffff1681610160019073ffffffffffffffffffffffffffffffffffffffff16908173ffffffffffffffffffffffffffffffffffffffff1681526020015050600e600050600082610140015163ffffffff16815260200190815260200160002060005060000160149054906101000a900467ffffffffffffffff1681610180019067ffffffffffffffff16908167ffffffffffffffff16815260200150505b809050610a6b565b919050565b600160005060205280600052604060002060009150909054906101000a900460ff1681565b610aa361286763ffffffff16565b610ab16128c263ffffffff16565b80600c60005060008473ffffffffffffffffffffffffffffffffffffffff1673ffffffffffffffffffffffffffffffffffffffff16815260200190815260200160002060008282825054610b059190615c2d565b9250508190909055505b610b1d61296363ffffffff16565b5b5050565b60006040517f08c379a0000000000000000000000000000000000000000000000000000000008152600401610b5690615c4d565b60405180910390fd5b95945050505050565b600e6000506020528060005260406000206000915090508060000160009054906101000a900473ffffffffffffffffffffffffffffffffffffffff16908060000160149054906101000a900467ffffffffffffffff169080600001601c9054906101000a900460ff169080600001601d9054906101000a900462ffffff1690806001016000508054610bf990615c8c565b80601f0160208091040260200160405190810160405280929190818152602001828054610c2590615c8c565b8015610c725780601f10610c4757610100808354040283529160200191610c72565b820191906000526020600020905b815481529060010190602001808311610c5557829003601f168201915b5050505050905085565b610c846149df565b600a60005060008373ffffffffffffffffffffffffffffffffffffffff1673ffffffffffffffffffffffffffffffffffffffff168152602001908152602001600020600050604051806040016040529081600082016000505481526020016001820160005054815260200150509050610cf8565b919050565b610d0b61286763ffffffff16565b610d1961297363ffffffff16565b610d6b81600760005060010160009054906101000a90046fffffffffffffffffffffffffffffffff166fffffffffffffffffffffffffffffffff16610d5e9190615ce7565b612287909063ffffffff16565b600760005060010160006101000a8154816fffffffffffffffffffffffffffffffff02191690836fffffffffffffffffffffffffffffffff1602179055505b610db861296363ffffffff16565b5b50565b610dca61286763ffffffff16565b610dd8612a0163ffffffff16565b610e2a81600760005060010160009054906101000a90046fffffffffffffffffffffffffffffffff166fffffffffffffffffffffffffffffffff16610e1d9190615c2d565b612287909063ffffffff16565b600760005060010160006101000a8154816fffffffffffffffffffffffffffffffff02191690836fffffffffffffffffffffffffffffffff1602179055505b610e7761296363ffffffff16565b5b50565b610e8961286763ffffffff16565b610e97612a0163ffffffff16565b80600660005054610ea89190615c2d565b60066000508190909055505b610ec261296363ffffffff16565b5b50565b610ed461246b63ffffffff16565b6000600090505b8151811015610fd95760006003811115610ef857610ef7615148565b5b600e60005060008484815181101515610f1457610f13615b37565b5b602002602001015163ffffffff168152602001908152602001600020600050600001601c9054906101000a900460ff166003811115610f5657610f55615148565b5b141515610fc5576002600e60005060008484815181101515610f7b57610f7a615b37565b5b602002602001015163ffffffff168152602001908152602001600020600050600001601c6101000a81548160ff02191690836003811115610fbf57610fbe615148565b5b02179055505b5b8080610fd190615b99565b915050610edb565b507f2e54370527117fb69828eac075cb3ed33fe59712134dfd3ef6efc9bd8b60c1ec816040516110099190615bd8565b60405180910390a15b5b50565b61102461246b63ffffffff16565b6000600460006101000a81548160ff0219169083151502179055507f262b602ad12e3e551a407d5246b500f4ca5a01cc76bbf03e925db643a62a692f60405160405180910390a15b5b565b61107d61286763ffffffff16565b61108b6128c263ffffffff16565b80600c60005060008473ffffffffffffffffffffffffffffffffffffffff1673ffffffffffffffffffffffffffffffffffffffff168152602001908152602001600020600082828250546110df9190615ce7565b9250508190909055505b6110f761296363ffffffff16565b5b5050565b61110a61286763ffffffff16565b6111186128c263ffffffff16565b611129838383612aa263ffffffff16565b5b61113861296363ffffffff16565b5b505050565b61114c61286763ffffffff16565b61115a61297363ffffffff16565b600460009054906101000a900460ff168015611181575060008267ffffffffffffffff1614155b1561119b576111968282612d0263ffffffff16565b905080505b600081602001511480156111b3575060008160400151145b1561131457600360005060008367ffffffffffffffff1667ffffffffffffffff168152602001908152602001600020600060008201600050600090556001820160006101000a8154906fffffffffffffffffffffffffffffffff02191690556001820160106101000a8154906fffffffffffffffffffffffffffffffff02191690556002820160006101000a8154906fffffffffffffffffffffffffffffffff02191690556002820160106101000a8154906fffffffffffffffffffffffffffffffff02191690556003820160006101000a81549067ffffffffffffffff02191690556003820160086101000a81549067ffffffffffffffff02191690556003820160106101000a81549062ffffff02191690556003820160136101000a81549060ff02191690556003820160146101000a81549067ffffffffffffffff021916905560038201601c6101000a81549063ffffffff02191690555050611325565b61132482826130db63ffffffff16565b5b5b61133461296363ffffffff16565b5b5050565b61134761246b63ffffffff16565b6000600460016101000a81548160ff0219169083151502179055507fc4f6661464541d662c51191d4da5a7a1cc8bca2631698fd030e21b52520a549c60405160405180910390a15b5b565b6113a061286763ffffffff16565b6113ae61297363ffffffff16565b6113df7f0000000000000000000000000000000000000000000000000000000000000000838361344963ffffffff16565b5b6113ee61296363ffffffff16565b5b5050565b60006000600360005060008467ffffffffffffffff1667ffffffffffffffff16815260200190815260200160002060005060010160109054906101000a90046fffffffffffffffffffffffffffffffff166fffffffffffffffffffffffffffffffff1691508150600360005060008467ffffffffffffffff1667ffffffffffffffff16815260200190815260200160002060005060010160009054906101000a90046fffffffffffffffffffffffffffffffff166fffffffffffffffffffffffffffffffff16905080506000600360005060008567ffffffffffffffff1667ffffffffffffffff16815260200190815260200160002060005060020160009054906101000a90046fffffffffffffffffffffffffffffffff166fffffffffffffffffffffffffffffffff169050600083148061152f5750600081145b1561154057828292509250506115a1565b6000600760005060010160109054906101000a90046fffffffffffffffffffffffffffffffff166fffffffffffffffffffffffffffffffff169050808214151561159e576115998183866134d69092919063ffffffff16565b935083505b50505b915091565b600060009054906101000a900460ff1681565b6115c761286763ffffffff16565b6115d5612a0163ffffffff16565b6115e4816135fa63ffffffff16565b5b6115f361296363ffffffff16565b5b50565b60066000505481565b61160e61286763ffffffff16565b61161c6128c263ffffffff16565b80600a60005060008473ffffffffffffffffffffffffffffffffffffffff1673ffffffffffffffffffffffffffffffffffffffff1681526020019081526020016000206000506000820151816000016000509090556020820151816001016000509090559050505b61169261296363ffffffff16565b5b5050565b600c6000506020528060005260406000206000915090505481565b6116c061286763ffffffff16565b6116ce612a0163ffffffff16565b806006600050546116df9190615ce7565b600660005081909090555061171b7f0000000000000000000000000000000000000000000000000000000000000000838361344963ffffffff16565b5b61172a61296363ffffffff16565b5b5050565b61173d61286763ffffffff16565b6118387f00000000000000000000000000000000000000000000000000000000000000007f00000000000000000000000000000000000000000000000000000000000000006006600050547f000000000000000000000000000000000000000000000000000000000000000073ffffffffffffffffffffffffffffffffffffffff166370a08231306040518263ffffffff1660e01b81526004016117e19190615d06565b602060405180830381865afa1580156117ff573d600060003e3d6000fd5b505050506040513d601f19601f820116820180604052508101906118239190615d2e565b61182d9190615ce7565b61344963ffffffff16565b5b61184761296363ffffffff16565b5b565b61185861286763ffffffff16565b6118a9600e60005060008463ffffffff16815260200190815260200160002060005060000160009054906101000a900473ffffffffffffffffffffffffffffffffffffffff1661376c63ffffffff16565b61190e600060038111156118c0576118bf615148565b5b600e60005060008563ffffffff168152602001908152602001600020600050600001601c9054906101000a900460ff16600381111561190257611901615148565b5b146137ad63ffffffff16565b6001600e60005060008463ffffffff168152602001908152602001600020600050600001601c6101000a81548160ff0219169083600381111561195457611953615148565b5b021790555080600e60005060008463ffffffff16815260200190815260200160002060005060010160005090805190602001906119929291906149fc565b503373ffffffffffffffffffffffffffffffffffffffff168263ffffffff167fec673006d787a8f7beffb5435d65c9380768a511390c957f84092e507033f218836040516119e09190615d4c565b60405180910390a35b6119f761296363ffffffff16565b5b5050565b611a04614a87565b611a1483836137f363ffffffff16565b9050805060008160c0015163ffffffff161115611b0b57600e60005060008260c0015163ffffffff16815260200190815260200160002060005060000160149054906101000a900467ffffffffffffffff1681610100019067ffffffffffffffff16908167ffffffffffffffff1681526020015050600e60005060008260c0015163ffffffff16815260200190815260200160002060005060000160009054906101000a900473ffffffffffffffffffffffffffffffffffffffff168160e0019073ffffffffffffffffffffffffffffffffffffffff16908173ffffffffffffffffffffffffffffffffffffffff16815260200150505b5b92915050565b60608163ffffffff168363ffffffff16101515611b2f5760006000fd5b8282611b3b9190615d68565b63ffffffff1667ffffffffffffffff811115611b5a57611b59614c0d565b5b604051908082528060200260200182016040528015611b9357816020015b611b80614b2e565b815260200190600190039081611b785790505b509050805060005b8263ffffffff168463ffffffff161015611d9457600e60005060008580611bc190615d96565b965063ffffffff1681526020019081526020016000206000506040518060a00160405290816000820160009054906101000a900473ffffffffffffffffffffffffffffffffffffffff1673ffffffffffffffffffffffffffffffffffffffff1673ffffffffffffffffffffffffffffffffffffffff1681526020016000820160149054906101000a900467ffffffffffffffff1667ffffffffffffffff1667ffffffffffffffff16815260200160008201601c9054906101000a900460ff166003811115611c9257611c91615148565b5b6003811115611ca457611ca3615148565b5b815260200160008201601d9054906101000a900462ffffff1662ffffff1662ffffff168152602001600182016000508054611cde90615c8c565b80601f0160208091040260200160405190810160405280929190818152602001828054611d0a90615c8c565b8015611d575780601f10611d2c57610100808354040283529160200191611d57565b820191906000526020600020905b815481529060010190602001808311611d3a57829003601f168201915b505050505081526020015050828280611d6f90615b99565b9350815181101515611d8457611d83615b37565b5b6020026020010181905250611b9b565b505b92915050565b606060056000506000611db68460c8611f1663ffffffff16565b60020b60020b8152602001908152602001600020600050805480602002602001604051908101604052809291908181526020018280548015611e4b57602002820191906000526020600020906000905b82829054906101000a900467ffffffffffffffff1667ffffffffffffffff1681526020019060080190602082600701049283019260010382029150808411611e065790505b50505050509050611e57565b919050565b60006000821415611e7257627fffff9050611eec565b600083111515611eb7576040517f08c379a0000000000000000000000000000000000000000000000000000000008152600401611eae90615dbf565b60405180910390fd5b611ee5611ed8611ecd8585613aa763ffffffff16565b613b0863ffffffff16565b60c8611f1663ffffffff16565b9050611eec565b92915050565b7f000000000000000000000000000000000000000000000000000000000000000081565b600060008284611f269190615e2f565b905060008160020b14611f6c5760008460020b13611f5a57828185611f4b9190615e55565b611f559190615e55565b611f67565b8084611f669190615e55565b5b611f6e565b835b915050611f7756505b92915050565b6000611f8d61286763ffffffff16565b6703782dace9d9000067ffffffffffffffff168367ffffffffffffffff1611151515611fee576040517f08c379a0000000000000000000000000000000000000000000000000000000008152600401611fe590615ec0565b60405180910390fd5b63ffffffff63ffffffff16600d60009054906101000a900463ffffffff1663ffffffff1610151561201f5760006000fd5b6000600d600081819054906101000a900463ffffffff168092919061204390615d96565b91906101000a81548163ffffffff021916908363ffffffff16021790555090506040518060a001604052803373ffffffffffffffffffffffffffffffffffffffff1681526020018567ffffffffffffffff168152602001600060038111156120ae576120ad615148565b5b81526020018462ffffff16815260200160405180602001604052806000815260200150815260200150600e60005060008363ffffffff16815260200190815260200160002060005060008201518160000160006101000a81548173ffffffffffffffffffffffffffffffffffffffff021916908373ffffffffffffffffffffffffffffffffffffffff16021790555060208201518160000160146101000a81548167ffffffffffffffff021916908367ffffffffffffffff160217905550604082015181600001601c6101000a81548160ff0219169083600381111561219757612196615148565b5b0217905550606082015181600001601d6101000a81548162ffffff021916908362ffffff16021790555060808201518160010160005090805190602001906121e09291906149fc565b509050508262ffffff163373ffffffffffffffffffffffffffffffffffffffff168263ffffffff167f46f1b99a43c800f57b28bd687fe2fc54e883b31ff06b2a6d863d528925059748876040516122379190615eff565b60405180910390a48091505061224956505b61225761296363ffffffff16565b5b92915050565b600d60009054906101000a900463ffffffff1681565b600460019054906101000a900460ff1681565b6000700100000000000000000000000000000000821015156122de576040517f08c379a00000000000000000000000000000000000000000000000000000000081526004016122d590615f1b565b60405180910390fd5b8190506122e6565b919050565b6122f3614900565b60006007600050604051806080016040529081600082016000505481526020016001820160009054906101000a90046fffffffffffffffffffffffffffffffff166fffffffffffffffffffffffffffffffff166fffffffffffffffffffffffffffffffff1681526020016001820160109054906101000a90046fffffffffffffffffffffffffffffffff166fffffffffffffffffffffffffffffffff166fffffffffffffffffffffffffffffffff1681526020016002820160009054906101000a90046fffffffffffffffffffffffffffffffff166fffffffffffffffffffffffffffffffff166fffffffffffffffffffffffffffffffff16815260200150509050604051806080016040528082602001516fffffffffffffffffffffffffffffffff16815260200182606001516fffffffffffffffffffffffffffffffff1681526020018260000151815260200182604001516fffffffffffffffffffffffffffffffff1681526020015091505061246856505b90565b6124c87f000000000000000000000000000000000000000000000000000000000000000073ffffffffffffffffffffffffffffffffffffffff163373ffffffffffffffffffffffffffffffffffffffff16146137ad63ffffffff16565b5b565b6124d361492b565b6000600360005060008467ffffffffffffffff1667ffffffffffffffff16815260200190815260200160002060005060405180610160016040529081600082016000505481526020016001820160009054906101000a90046fffffffffffffffffffffffffffffffff166fffffffffffffffffffffffffffffffff166fffffffffffffffffffffffffffffffff1681526020016001820160109054906101000a90046fffffffffffffffffffffffffffffffff166fffffffffffffffffffffffffffffffff166fffffffffffffffffffffffffffffffff1681526020016002820160009054906101000a90046fffffffffffffffffffffffffffffffff166fffffffffffffffffffffffffffffffff166fffffffffffffffffffffffffffffffff1681526020016002820160109054906101000a90046fffffffffffffffffffffffffffffffff166fffffffffffffffffffffffffffffffff166fffffffffffffffffffffffffffffffff1681526020016003820160009054906101000a900467ffffffffffffffff1667ffffffffffffffff1667ffffffffffffffff1681526020016003820160089054906101000a900467ffffffffffffffff1667ffffffffffffffff1667ffffffffffffffff1681526020016003820160109054906101000a900460020b60020b60020b81526020016003820160139054906101000a900460ff161515151581526020016003820160149054906101000a900467ffffffffffffffff1667ffffffffffffffff1667ffffffffffffffff16815260200160038201601c9054906101000a900463ffffffff1663ffffffff1663ffffffff16815260200150509050604051806101a001604052808260000151815260200182602001516fffffffffffffffffffffffffffffffff16815260200182604001516fffffffffffffffffffffffffffffffff16815260200182606001516fffffffffffffffffffffffffffffffff16815260200182608001516fffffffffffffffffffffffffffffffff1681526020018260a0015167ffffffffffffffff1681526020018260c0015167ffffffffffffffff1681526020018260e0015160020b81526020018261010001511515815260200182610120015167ffffffffffffffff16815260200182610140015163ffffffff168152602001600073ffffffffffffffffffffffffffffffffffffffff168152602001600067ffffffffffffffff1681526020015091505061286256505b919050565b6002600260005054141515156128b2576040517f08c379a00000000000000000000000000000000000000000000000000000000081526004016128a990615f5a565b60405180910390fd5b600260026000508190909055505b565b6129607f000000000000000000000000000000000000000000000000000000000000000073ffffffffffffffffffffffffffffffffffffffff16639ec5a8946040518163ffffffff1660e01b8152600401602060405180830381865afa158015612931573d600060003e3d6000fd5b505050506040513d601f19601f820116820180604052508101906129559190615f99565b61376c63ffffffff16565b5b565b600160026000508190909055505b565b7f000000000000000000000000000000000000000000000000000000000000000073ffffffffffffffffffffffffffffffffffffffff16637c114fed336040518263ffffffff1660e01b81526004016129cc9190615d06565b60006040518083038186803b1580156129e55760006000fd5b505afa1580156129fa573d600060003e3d6000fd5b505050505b565b612a9f7f000000000000000000000000000000000000000000000000000000000000000073ffffffffffffffffffffffffffffffffffffffff166380f556056040518163ffffffff1660e01b8152600401602060405180830381865afa158015612a70573d600060003e3d6000fd5b505050506040513d601f19601f82011682018060405250810190612a949190615fc2565b61376c63ffffffff16565b5b565b6040518060c001604052808260c0015163ffffffff16815260200182608001516fffffffffffffffffffffffffffffffff16815260200182602001518152602001612af88360400151613f1c909063ffffffff16565b75ffffffffffffffffffffffffffffffffffffffffffff168152602001612b348360a0015167ffffffffffffffff16613f86909063ffffffff16565b64ffffffffff168152602001612b558360600151613f86909063ffffffff16565b64ffffffffff16815260200150600b60005060008573ffffffffffffffffffffffffffffffffffffffff1673ffffffffffffffffffffffffffffffffffffffff16815260200190815260200160002060005060008473ffffffffffffffffffffffffffffffffffffffff1673ffffffffffffffffffffffffffffffffffffffff16815260200190815260200160002060005060008201518160000160006101000a81548163ffffffff021916908363ffffffff16021790555060208201518160000160046101000a8154816fffffffffffffffffffffffffffffffff02191690836fffffffffffffffffffffffffffffffff16021790555060408201518160010160005090905560608201518160020160006101000a81548175ffffffffffffffffffffffffffffffffffffffffffff021916908375ffffffffffffffffffffffffffffffffffffffffffff16021790555060808201518160020160166101000a81548164ffffffffff021916908364ffffffffff16021790555060a082015181600201601b6101000a81548164ffffffffff021916908364ffffffffff1602179055509050505b505050565b612d0a61492b565b6000600360005060008567ffffffffffffffff1667ffffffffffffffff16815260200190815260200160002060005060030160139054906101000a900460ff169050600081612d5c57627fffff612d9b565b600360005060008667ffffffffffffffff1667ffffffffffffffff16815260200190815260200160002060005060030160109054906101000a900460020b5b90506000600360005060008767ffffffffffffffff1667ffffffffffffffff16815260200190815260200160002060005060030160149054906101000a900467ffffffffffffffff1690506000612e0086602001518760400151611e5c63ffffffff16565b90508060020b8360020b1415156130c557808660e0019060020b908160020b815260200150506000627fffff60020b8460020b1215612feb57600560005060008560020b60020b8152602001908152602001600020600050905080506000612e7f60018380549050612e729190615ce7565b613fdf909063ffffffff16565b90508067ffffffffffffffff168467ffffffffffffffff16141515612fa1576000828267ffffffffffffffff16815481101515612ebf57612ebe615b37565b5b90600052602060002090600491828204019190066008025b9054906101000a900467ffffffffffffffff16905080838667ffffffffffffffff16815481101515612f0c57612f0b615b37565b5b90600052602060002090600491828204019190066008025b6101000a81548167ffffffffffffffff021916908367ffffffffffffffff16021790555084600360005060008367ffffffffffffffff1667ffffffffffffffff16815260200190815260200160002060005060030160146101000a81548167ffffffffffffffff021916908367ffffffffffffffff160217905550505b818054801515612fb457612fb3615feb565b5b60019003818190600052602060002090600491828204019190066008025b6101000a81549067ffffffffffffffff02191690559055505b627fffff60020b8260020b12156130c357600560005060008360020b60020b8152602001908152602001600020600050905080506130348180549050613fdf909063ffffffff16565b87610120019067ffffffffffffffff16908167ffffffffffffffff1681526020015050600187610100019015159081151581526020015050808890806001815401808255809150506001900390600052602060002090600491828204019190066008025b9091909190916101000a81548167ffffffffffffffff021916908367ffffffffffffffff1602179055505b505b859450505050506130d556505050505b92915050565b604051806101600160405280826000015181526020016131068360200151612287909063ffffffff16565b6fffffffffffffffffffffffffffffffff1681526020016131328360400151612287909063ffffffff16565b6fffffffffffffffffffffffffffffffff16815260200161315e8360600151612287909063ffffffff16565b6fffffffffffffffffffffffffffffffff16815260200161318a8360800151612287909063ffffffff16565b6fffffffffffffffffffffffffffffffff1681526020018260a0015167ffffffffffffffff1681526020018260c0015167ffffffffffffffff1681526020018260e0015160020b81526020018261010001511515815260200182610120015167ffffffffffffffff16815260200182610140015163ffffffff16815260200150600360005060008467ffffffffffffffff1667ffffffffffffffff16815260200190815260200160002060005060008201518160000160005090905560208201518160010160006101000a8154816fffffffffffffffffffffffffffffffff02191690836fffffffffffffffffffffffffffffffff16021790555060408201518160010160106101000a8154816fffffffffffffffffffffffffffffffff02191690836fffffffffffffffffffffffffffffffff16021790555060608201518160020160006101000a8154816fffffffffffffffffffffffffffffffff02191690836fffffffffffffffffffffffffffffffff16021790555060808201518160020160106101000a8154816fffffffffffffffffffffffffffffffff02191690836fffffffffffffffffffffffffffffffff16021790555060a08201518160030160006101000a81548167ffffffffffffffff021916908367ffffffffffffffff16021790555060c08201518160030160086101000a81548167ffffffffffffffff021916908367ffffffffffffffff16021790555060e08201518160030160106101000a81548162ffffff021916908360020b62ffffff1602179055506101008201518160030160136101000a81548160ff0219169083151502179055506101208201518160030160146101000a81548167ffffffffffffffff021916908367ffffffffffffffff16021790555061014082015181600301601c6101000a81548163ffffffff021916908363ffffffff1602179055509050505b5050565b6134d08363a9059cbb60e01b848460405160240161346892919061601c565b604051602081830303815290604052907bffffffffffffffffffffffffffffffffffffffffffffffffffffffff19166020820180517bffffffffffffffffffffffffffffffffffffffffffffffffffffffff838183161783525050505061403b63ffffffff16565b5b505050565b60006000600060001985870985870292508281108382030391505060008114156135195760008411151561350a5760006000fd5b838204925082925050506135f3565b80841115156135285760006000fd5b60008486880990508281118203915080830392506000856001877fffffffffffffffffffffffffffffffffffffffffffffffffffffffffffffffff0301169050805080860495508084049350600181826000030401905080830284179350835060006002876003021890508087026002038102905080508087026002038102905080508087026002038102905080508087026002038102905080508087026002038102905080508087026002038102905080508085029550855050849450505050506135f356505050505b9392505050565b6040518060800160405280826040015181526020016136248360000151612287909063ffffffff16565b6fffffffffffffffffffffffffffffffff1681526020016136508360600151612287909063ffffffff16565b6fffffffffffffffffffffffffffffffff16815260200161367c8360200151612287909063ffffffff16565b6fffffffffffffffffffffffffffffffff16815260200150600760005060008201518160000160005090905560208201518160010160006101000a8154816fffffffffffffffffffffffffffffffff02191690836fffffffffffffffffffffffffffffffff16021790555060408201518160010160106101000a8154816fffffffffffffffffffffffffffffffff02191690836fffffffffffffffffffffffffffffffff16021790555060608201518160020160006101000a8154816fffffffffffffffffffffffffffffffff02191690836fffffffffffffffffffffffffffffffff1602179055509050505b50565b6137a98173ffffffffffffffffffffffffffffffffffffffff163373ffffffffffffffffffffffffffffffffffffffff16146137ad63ffffffff16565b5b50565b8015156137ef576040517f08c379a00000000000000000000000000000000000000000000000000000000081526004016137e69061604b565b60405180910390fd5b5b50565b6137fb614a87565b6000600b60005060008573ffffffffffffffffffffffffffffffffffffffff1673ffffffffffffffffffffffffffffffffffffffff16815260200190815260200160002060005060008473ffffffffffffffffffffffffffffffffffffffff1673ffffffffffffffffffffffffffffffffffffffff1681526020019081526020016000206000506040518060c00160405290816000820160009054906101000a900463ffffffff1663ffffffff1663ffffffff1681526020016000820160049054906101000a90046fffffffffffffffffffffffffffffffff166fffffffffffffffffffffffffffffffff166fffffffffffffffffffffffffffffffff168152602001600182016000505481526020016002820160009054906101000a900475ffffffffffffffffffffffffffffffffffffffffffff1675ffffffffffffffffffffffffffffffffffffffffffff1675ffffffffffffffffffffffffffffffffffffffffffff1681526020016002820160169054906101000a900464ffffffffff1664ffffffffff1664ffffffffff16815260200160028201601b9054906101000a900464ffffffffff1664ffffffffff1664ffffffffff168152602001505090506040518061012001604052808573ffffffffffffffffffffffffffffffffffffffff16815260200182604001518152602001826060015175ffffffffffffffffffffffffffffffffffffffffffff1681526020018260a0015164ffffffffff16815260200182602001516fffffffffffffffffffffffffffffffff168152602001826080015164ffffffffff1667ffffffffffffffff168152602001826000015163ffffffff168152602001600073ffffffffffffffffffffffffffffffffffffffff168152602001600067ffffffffffffffff16815260200150915050613aa156505b92915050565b6000613afb6601000000000000613ae4613ad96c0100000000000000000000000086886134d69092919063ffffffff16565b61410863ffffffff16565b613aee919061608a565b61418d909063ffffffff16565b9050613b02565b92915050565b60006401000276a373ffffffffffffffffffffffffffffffffffffffff168273ffffffffffffffffffffffffffffffffffffffff1610158015613b8a575073fffd8963efd1fc6a506488495d951d5263988d2673ffffffffffffffffffffffffffffffffffffffff168273ffffffffffffffffffffffffffffffffffffffff16105b1515613bcb576040517f08c379a0000000000000000000000000000000000000000000000000000000008152600401613bc2906160cf565b60405180910390fd5b600060208373ffffffffffffffffffffffffffffffffffffffff16901b905060008190506000600090506fffffffffffffffffffffffffffffffff821160071b808217915082811c92505067ffffffffffffffff821160061b808217915082811c92505063ffffffff821160051b808217915082811c92505061ffff821160041b808217915082811c92505060ff821160031b808217915082811c925050600f821160021b808217915082811c9250506003821160011b808217915082811c92505060018211808217915050608081101515613cba57607f81613cae9190615ce7565b83901c91508150613ccf565b80607f613cc79190615ce7565b83901b915081505b60006040608083613ce0919061610e565b901b9050828302607f1c92508260801c80603f1b8217915083811c935050828302607f1c92508260801c80603e1b8217915083811c935050828302607f1c92508260801c80603d1b8217915083811c935050828302607f1c92508260801c80603c1b8217915083811c935050828302607f1c92508260801c80603b1b8217915083811c935050828302607f1c92508260801c80603a1b8217915083811c935050828302607f1c92508260801c8060391b8217915083811c935050828302607f1c92508260801c8060381b8217915083811c935050828302607f1c92508260801c8060371b8217915083811c935050828302607f1c92508260801c8060361b8217915083811c935050828302607f1c92508260801c8060351b8217915083811c935050828302607f1c92508260801c8060341b8217915083811c935050828302607f1c92508260801c8060331b8217915083811c935050828302607f1c92508260801c8060321b82179150506000693627a301d71055774c8582613e63919061618c565b9050600060806f028f6481ab7f045a5af012a19d003aaa83613e85919061610e565b901d9050600060806fdb2df09e81959a81455e260799a0632f84613ea9919061624f565b901d90508060020b8260020b14613f09578873ffffffffffffffffffffffffffffffffffffffff16613ee0826141f563ffffffff16565b73ffffffffffffffffffffffffffffffffffffffff161115613f025781613f04565b805b613f0b565b815b97508750505050505050505b919050565b600076010000000000000000000000000000000000000000000082101515613f79576040517f08c379a0000000000000000000000000000000000000000000000000000000008152600401613f70906162cd565b60405180910390fd5b819050613f81565b919050565b60006501000000000082101515613fd2576040517f08c379a0000000000000000000000000000000000000000000000000000000008152600401613fc99061630c565b60405180910390fd5b819050613fda565b919050565b6000680100000000000000008210151561402e576040517f08c379a00000000000000000000000000000000000000000000000000000000081526004016140259061634b565b60405180910390fd5b819050614036565b919050565b60006140a0826040518060400160405280602081526020017f5361666545524332303a206c6f772d6c6576656c2063616c6c206661696c65648152602001508573ffffffffffffffffffffffffffffffffffffffff166147169092919063ffffffff16565b905060008151111561410257808060200190518101906140c0919061638a565b1515614101576040517f08c379a00000000000000000000000000000000000000000000000000000000081526004016140f8906163b3565b60405180910390fd5b5b505b5050565b60006003821115614175578190508050600060016002846141299190616418565b6141339190615c2d565b90505b8181101561416f57809150815060028182856141529190616418565b61415c9190615c2d565b6141669190616418565b90508050614136565b50614187565b600082141515614186576001905080505b5b5b919050565b600074010000000000000000000000000000000000000000821015156141e8576040517f08c379a00000000000000000000000000000000000000000000000000000000081526004016141df90616436565b60405180910390fd5b8190506141f0565b919050565b6000600060008360020b1261420d578260020b61421b565b8260020b61421a90616475565b5b90507ffffffffffffffffffffffffffffffffffffffffffffffffffffffffffff27618614247906164b4565b60020b811115151561428e576040517f08c379a0000000000000000000000000000000000000000000000000000000008152600401614285906164f8565b60405180910390fd5b600060006001831614156142b3577001000000000000000000000000000000006142c5565b6ffffcb933bd6fad37aa2d162d1a5940015b70ffffffffffffffffffffffffffffffffff16905060006002831614151561430c5760806ffff97272373d413259a46990580e213a82614305919061608a565b901c905080505b60006004831614151561433e5760806ffff2e50f5f656932ef12357cf3c7fdcc82614337919061608a565b901c905080505b6000600883161415156143705760806fffe5caca7e10e4e61c3624eaa0941cd082614369919061608a565b901c905080505b6000601083161415156143a25760806fffcb9843d60f6159c9db58835c9266448261439b919061608a565b901c905080505b6000602083161415156143d45760806fff973b41fa98c081472e6896dfb254c0826143cd919061608a565b901c905080505b6000604083161415156144065760806fff2ea16466c96a3843ec78b326b52861826143ff919061608a565b901c905080505b6000608083161415156144385760806ffe5dee046a99a2a811c461f1969c305382614431919061608a565b901c905080505b6000610100831614151561446b5760806ffcbe86c7900a88aedcffc83b479aa3a482614464919061608a565b901c905080505b6000610200831614151561449e5760806ff987a7253ac413176f2b074cf7815e5482614497919061608a565b901c905080505b600061040083161415156144d15760806ff3392b0822b70005940c7a398e4b70f3826144ca919061608a565b901c905080505b600061080083161415156145045760806fe7159475a2c29b7443b29c7fa6e889d9826144fd919061608a565b901c905080505b600061100083161415156145375760806fd097f3bdfd2022b8845ad8f792aa582582614530919061608a565b901c905080505b6000612000831614151561456a5760806fa9f746462d870fdf8a65dc1f90e061e582614563919061608a565b901c905080505b6000614000831614151561459d5760806f70d869a156d2a1b890bb3df62baf32f782614596919061608a565b901c905080505b600061800083161415156145d05760806f31be135f97d08fd981231505542fcfa6826145c9919061608a565b901c905080505b60006201000083161415156146045760806f09aa508b5b7a84e1c677de54f3e99bc9826145fd919061608a565b901c905080505b60006202000083161415156146375760806e5d6af8dedb81196699c329225ee60482614630919061608a565b901c905080505b60006204000083161415156146695760806d2216e584f5fa1ea926041bedfe9882614662919061608a565b901c905080505b60006208000083161415156146995760806b048a170391f7dc42444e8fa282614692919061608a565b901c905080505b60008460020b13156146d657807fffffffffffffffffffffffffffffffffffffffffffffffffffffffffffffffff6146d19190616418565b905080505b6000640100000000826146e99190616537565b146146f55760016146f8565b60005b60ff16602082901c61470a9190615c2d565b9250825050505b919050565b606061472b848460008561473963ffffffff16565b9050614732565b9392505050565b6060824710151515614780576040517f08c379a000000000000000000000000000000000000000000000000000000000815260040161477790616555565b60405180910390fd5b61478f8561486563ffffffff16565b15156147d0576040517f08c379a00000000000000000000000000000000000000000000000000000000081526004016147c7906165ba565b60405180910390fd5b600060008673ffffffffffffffffffffffffffffffffffffffff1685876040516147fa91906165f9565b60006040518083038185875af1925050503d8060008114614837576040519150601f19603f3d011682016040523d82523d6000602084013e61483c565b606091505b509150915061485282828661488e63ffffffff16565b9250505061485d5650505b949350505050565b600060008273ffffffffffffffffffffffffffffffffffffffff163b119050614889565b919050565b606083156148a2578290506148f9566148f8565b6000835111156148ba5782518084602001fd506148f7565b816040517f08c379a00000000000000000000000000000000000000000000000000000000081526004016148ee9190615d4c565b60405180910390fd5b5b5b9392505050565b6040518060800160405280600081526020016000815260200160008152602001600081526020015090565b604051806101a001604052806000815260200160008152602001600081526020016000815260200160008152602001600067ffffffffffffffff168152602001600067ffffffffffffffff168152602001600060020b8152602001600015158152602001600067ffffffffffffffff168152602001600063ffffffff168152602001600073ffffffffffffffffffffffffffffffffffffffff168152602001600067ffffffffffffffff1681526020015090565b604051806040016040528060008152602001600081526020015090565b828054614a0890615c8c565b90600052602060002090601f016020900481019282614a2a5760008555614a76565b82601f10614a4357805160ff1916838001178555614a76565b82800160010185558215614a76579182015b82811115614a755782518260005090905591602001919060010190614a55565b5b509050614a839190614b97565b5090565b604051806101200160405280600073ffffffffffffffffffffffffffffffffffffffff16815260200160008152602001600081526020016000815260200160006fffffffffffffffffffffffffffffffff168152602001600067ffffffffffffffff168152602001600063ffffffff168152602001600073ffffffffffffffffffffffffffffffffffffffff168152602001600067ffffffffffffffff1681526020015090565b6040518060a00160405280600073ffffffffffffffffffffffffffffffffffffffff168152602001600067ffffffffffffffff16815260200160006003811115614b7b57614b7a615148565b5b8152602001600062ffffff168152602001606081526020015090565b614b9c565b80821115614bb65760008181506000905550600101614b9c565b509056616618565b6000608082019050825182526020830151602083015260408301516040830152606083015160608301525b92915050565b801515825250505b565b600060208201905082151582525b92915050565b7f4e487b7100000000000000000000000000000000000000000000000000000000600052604160045260246000fd5b565b60006040519050610120810181811067ffffffffffffffff82111715614c6757614c66614c0d565b5b80604052505b90565b600060405190506101a0810181811067ffffffffffffffff82111715614c9957614c98614c0d565b5b80604052505b90565b600060405190507fffffffffffffffffffffffffffffffffffffffffffffffffffffffffffffffe0601f830116810181811067ffffffffffffffff82111715614cee57614ced614c0d565b5b80604052505b919050565b60008135905063ffffffff811681141515614d145760006000fd5b5b919050565b60006020808385031215614d2e5760006000fd5b823567ffffffffffffffff80821115614d475760006000fd5b818501915085601f8301121515614d5e5760006000fd5b813581811115614d7157614d70614c0d565b5b8060051b9150614d82848301614ca2565b8082825285820191508584860101935088841115614da05760006000fd5b85850194505b83851015614dc957614db785614cf9565b825285820191505b8585019450614da6565b8096505050505050505b92915050565b600060208201905073ffffffffffffffffffffffffffffffffffffffff831682525b92915050565b60006020820190508282525b92915050565b60008135905067ffffffffffffffff811681141515614e325760006000fd5b5b919050565b600060208284031215614e4b5760006000fd5b614e5482614e13565b90505b92915050565b67ffffffffffffffff8116825250505b565b8060020b825250505b565b63ffffffff8116825250505b565b73ffffffffffffffffffffffffffffffffffffffff8116825250505b565b60006101a082019050825182526020830151602083015260408301516040830152606083015160608301526080830151608083015260a0830151614eed60a0840182614e5d565b5060c0830151614f0060c0840182614e5d565b5060e0830151614f1360e0840182614e6f565b5061010080840151614f2782850182614bef565b505061012080840151614f3c82850182614e5d565b505061014080840151614f5182850182614e7a565b505061016080840151614f6682850182614e88565b505061018080840151614f7b82850182614e5d565b50505b92915050565b600060208284031215614f975760006000fd5b81357fffffffff00000000000000000000000000000000000000000000000000000000811681141515614fca5760006000fd5b809150505b92915050565b73ffffffffffffffffffffffffffffffffffffffff811681141515614ffa5760006000fd5b505b565b60006000604083850312156150135760006000fd5b823561501e81614fd5565b80925050602083013590505b9250929050565b60008135905061504081614fd5565b5b919050565b60006000600060006000608086880312156150615760006000fd5b853561506c81614fd5565b80955050602086013561507e81614fd5565b8094505060408601359250606086013567ffffffffffffffff808211156150a55760006000fd5b818801915088601f83011215156150bc5760006000fd5b8135818111156150cc5760006000fd5b8960208285010111156150df5760006000fd5b6020830194508093505050505b9295509295909350565b60006020820190507fffffffff00000000000000000000000000000000000000000000000000000000831682525b92915050565b60006020828403121561513d5760006000fd5b813590505b92915050565b7f4e487b7100000000000000000000000000000000000000000000000000000000600052602160045260246000fd5b565b6004811015156151b2577f4e487b7100000000000000000000000000000000000000000000000000000000600052602160045260246000fd5b80825250505b565b60005b838110156151d95780820151818401525b6020810190506151bd565b838111156151e8576000848401525b505050505b565b600081518084526152078160208601602086016151ba565b60207fffffffffffffffffffffffffffffffffffffffffffffffffffffffffffffffe0601f8301168501019150505b92915050565b73ffffffffffffffffffffffffffffffffffffffff8616815267ffffffffffffffff851660208201526152726040820185615179565b62ffffff8316606082015260a06080820152600061529360a08301846151ef565b90505b9695505050505050565b6000602082840312156152b35760006000fd5b81356152be81614fd5565b809150505b92915050565b600060408201905082518252602083015160208301525b92915050565b6000813590506fffffffffffffffffffffffffffffffff81168114151561530d5760006000fd5b5b919050565b60006000600083850361016081121561532c5760006000fd5b843561533781614fd5565b80945050602085013561534981614fd5565b80935050610120807fffffffffffffffffffffffffffffffffffffffffffffffffffffffffffffffc0830112156153805760006000fd5b615388614c3e565b915061539660408701615031565b8252606086013560208301526080860135604083015260a086013560608301526153c260c087016152e6565b60808301526153d360e08701614e13565b60a08301526101006153e6818801614cf9565b60c08401526153f6828801615031565b60e08401526154086101408801614e13565b818401525050809150505b9250925092565b6000813590508060020b811415156154325760006000fd5b5b919050565b801515811415156154495760006000fd5b505b565b60008135905061545c81615438565b5b919050565b600060008284036101c08112156154795760006000fd5b61548284614e13565b92506101a0807fffffffffffffffffffffffffffffffffffffffffffffffffffffffffffffffe0830112156154b75760006000fd5b6154bf614c70565b91506020850135825260408501356020830152606085013560408301526080850135606083015260a085013560808301526154fc60c08601614e13565b60a083015261550d60e08601614e13565b60c083015261010061552081870161541a565b60e084015261012061553381880161544d565b828501526101409150615547828801614e13565b818501525061016061555a818801614cf9565b82850152610180915061556e828801615031565b818501525061557e828701614e13565b818401525050809150505b9250929050565b60006000604083850312156155a55760006000fd5b82356155b081614fd5565b80925050602083013590505b9250929050565b60006040820190508382528260208301525b9392505050565b6000608082840312156155ef5760006000fd5b6040516080810181811067ffffffffffffffff8211171561561357615612614c0d565b5b806040525082358152602083013560208201526040830135604082015260608301356060820152809150505b92915050565b60006000828403606081121561565b5760006000fd5b833561566681614fd5565b8093505060407fffffffffffffffffffffffffffffffffffffffffffffffffffffffffffffffe08201121561569b5760006000fd5b506040516040810181811067ffffffffffffffff821117156156c0576156bf614c0d565b5b80604052506020840135815260408401356020820152809150505b9250929050565b60006000604083850312156156f75760006000fd5b61570083614cf9565b915060208084013567ffffffffffffffff8082111561571f5760006000fd5b818601915086601f83011215156157365760006000fd5b81358181111561574957615748614c0d565b5b615779847fffffffffffffffffffffffffffffffffffffffffffffffffffffffffffffffe0601f84011601614ca2565b915080825287848285010111156157905760006000fd5b80848401858401376000848284010152508093505050505b9250929050565b60006000604083850312156157c45760006000fd5b82356157cf81614fd5565b8092505060208301356157e181614fd5565b809150505b9250929050565b60006101208201905073ffffffffffffffffffffffffffffffffffffffff83511682526020830151602083015260408301516040830152606083015160608301526fffffffffffffffffffffffffffffffff608084015116608083015260a083015161585c60a0840182614e5d565b5060c083015161586f60c0840182614e7a565b5060e083015161588260e0840182614e88565b506101008084015161589682850182614e5d565b50505b92915050565b60006000604083850312156158b45760006000fd5b6158bd83614cf9565b91506158cb60208401614cf9565b90505b9250929050565b60006020808301818452808551808352604092508286019150828160051b87010184880160005b838110156159b0577fffffffffffffffffffffffffffffffffffffffffffffffffffffffffffffffc0898403018552815160a073ffffffffffffffffffffffffffffffffffffffff825116855267ffffffffffffffff8983015116898601528782015161596b89870182615179565b50606062ffffff818401511681870152506080808301519250818187015250615996818601836151ef565b94505050868201915086850194505b6001810190506158fc565b505080955050505050505b92915050565b6000602082840312156159d45760006000fd5b6159dd8261541a565b90505b92915050565b60006020808301818452808551808352604086019150838701925060005b81811015615a305767ffffffffffffffff8451168352848301925084840193505b600181019050615a04565b50508093505050505b92915050565b6000600060408385031215615a545760006000fd5b82359150602083013590505b9250929050565b60006020820190508260020b82525b92915050565b600060208201905073ffffffffffffffffffffffffffffffffffffffff831682525b92915050565b6000600060408385031215615ab95760006000fd5b615ac28361541a565b9150615ad06020840161541a565b90505b9250929050565b6000600060408385031215615aef5760006000fd5b615af883614e13565b9150602083013562ffffff811681141515615b135760006000fd5b809150505b9250929050565b600060208201905063ffffffff831682525b92915050565b7f4e487b7100000000000000000000000000000000000000000000000000000000600052603260045260246000fd5b565b7f4e487b7100000000000000000000000000000000000000000000000000000000600052601160045260246000fd5b565b60007fffffffffffffffffffffffffffffffffffffffffffffffffffffffffffffffff821415615bcc57615bcb615b68565b5b6001820190505b919050565b60006020808301818452808551808352604086019150838701925060005b81811015615c1e5763ffffffff8451168352848301925084840193505b600181019050615bf6565b50508093505050505b92915050565b60008219821115615c4157615c40615b68565b5b82820190505b92915050565b60208152601d60208201527f446f6573206e6f7420616363657074204e465473206469726563746c79000000604082015260006060820190505b919050565b60008160011c905060018216801515615ca657607f821691505b60208210811415615ce0577f4e487b7100000000000000000000000000000000000000000000000000000000600052602260045260246000fd5b505b919050565b600082821015615cfa57615cf9615b68565b5b82820390505b92915050565b600060208201905073ffffffffffffffffffffffffffffffffffffffff831682525b92915050565b600060208284031215615d415760006000fd5b815190505b92915050565b602081526000615d5f60208301846151ef565b90505b92915050565b600063ffffffff808316818516915081811015615d8857615d87615b68565b5b818103925050505b92915050565b600063ffffffff80831681811415615db157615db0615b68565b5b60018101925050505b919050565b60208152601760208201527f4465627420776974686f757420636f6c6c61746572616c000000000000000000604082015260006060820190505b919050565b7f4e487b7100000000000000000000000000000000000000000000000000000000600052601260045260246000fd5b565b60008260020b801515615e4557615e44615dfe565b5b808360020b079150505b92915050565b60008160020b8360020b60008112817fffffffffffffffffffffffffffffffffffffffffffffffffffffffffff80000001831281151615615e9957615e98615b68565b5b81627fffff018313811615615eb157615eb0615b68565b5b50808203925050505b92915050565b60208152601560208201527f4d6178206b69636b6261636b2065786365656465640000000000000000000000604082015260006060820190505b919050565b600060208201905067ffffffffffffffff831682525b92915050565b60208152601260208201527f6d6f7265207468616e2031323820626974730000000000000000000000000000604082015260006060820190505b919050565b60208152600d60208201527f4c43205265656e7472616e637900000000000000000000000000000000000000604082015260006060820190505b919050565b600060208284031215615fac5760006000fd5b8151615fb781614fd5565b809150505b92915050565b600060208284031215615fd55760006000fd5b8151615fe081614fd5565b809150505b92915050565b7f4e487b7100000000000000000000000000000000000000000000000000000000600052603160045260246000fd5b565b600060408201905073ffffffffffffffffffffffffffffffffffffffff841682528260208301525b9392505050565b60208152600e60208201527f4e6f7420417574686f72697a6564000000000000000000000000000000000000604082015260006060820190505b919050565b6000817fffffffffffffffffffffffffffffffffffffffffffffffffffffffffffffffff04831182151516156160c3576160c2615b68565b5b82820290505b92915050565b60208152600160208201527f5200000000000000000000000000000000000000000000000000000000000000604082015260006060820190505b919050565b600060008312837f80000000000000000000000000000000000000000000000000000000000000000183128115161561614a57616149615b68565b5b837f7fffffffffffffffffffffffffffffffffffffffffffffffffffffffffffffff01831381161561617f5761617e615b68565b5b5082820390505b92915050565b60007f7fffffffffffffffffffffffffffffffffffffffffffffffffffffffffffffff6000841360008413858304851182821616156161ce576161cd615b68565b5b7f8000000000000000000000000000000000000000000000000000000000000000600087128682058812818416161561620a57616209615b68565b5b6000871292508782058712848416161561622757616226615b68565b5b8785058712818416161561623e5761623d615b68565b5b505050505082820290505b92915050565b600060008212827f7fffffffffffffffffffffffffffffffffffffffffffffffffffffffffffffff0384138115161561628b5761628a615b68565b5b827f80000000000000000000000000000000000000000000000000000000000000000384128116156162c0576162bf615b68565b5b5082820190505b92915050565b60208152601260208201527f6d6f7265207468616e2031373620626974730000000000000000000000000000604082015260006060820190505b919050565b60208152601160208201527f6d6f7265207468616e2034302062697473000000000000000000000000000000604082015260006060820190505b919050565b60208152601160208201527f6d6f7265207468616e2036342062697473000000000000000000000000000000604082015260006060820190505b919050565b60006020828403121561639d5760006000fd5b81516163a881615438565b809150505b92915050565b60208152602a60208201527f5361666545524332303a204552433230206f7065726174696f6e20646964206e60408201527f6f74207375636365656400000000000000000000000000000000000000000000606082015260006080820190505b919050565b600082151561642a57616429615dfe565b5b82820490505b92915050565b60208152601260208201527f6d6f7265207468616e2031363020626974730000000000000000000000000000604082015260006060820190505b919050565b60007f80000000000000000000000000000000000000000000000000000000000000008214156164a8576164a7615b68565b5b8160000390505b919050565b60008160020b7fffffffffffffffffffffffffffffffffffffffffffffffffffffffffff8000008114156164eb576164ea615b68565b5b806000039150505b919050565b60208152600160208201527f5400000000000000000000000000000000000000000000000000000000000000604082015260006060820190505b919050565b600082151561654957616548615dfe565b5b82820690505b92915050565b60208152602660208201527f416464726573733a20696e73756666696369656e742062616c616e636520666f60408201527f722063616c6c0000000000000000000000000000000000000000000000000000606082015260006080820190505b919050565b60208152601d60208201527f416464726573733a2063616c6c20746f206e6f6e2d636f6e7472616374000000604082015260006060820190505b919050565b6000825161660b8184602087016151ba565b8083019150505b92915050565bfea264697066735822122085a374969e9e2ddcbcae951bbfa04788627e7be3f5892c12e7cf6daa1e9313a464736f6c634300080c0033",
  "linkReferences": {},
  "deployedLinkReferences": {}
}