{
  "_format": "hh-sol-artifact-1",
  "contractName": "Accounting",
  "sourceName": "contracts/core/storage/Accounting.sol",
  "abi": [
    {
      "inputs": [
        {
          "components": [
            {
              "internalType": "contract IGovernor",
              "name": "Governor",
              "type": "address"
            },
            {
              "internalType": "contract IHue",
              "name": "Hue",
              "type": "address"
            },
            {
              "internalType": "contract INonfungiblePositionManager",
              "name": "NftPositionManager",
              "type": "address"
            }
          ],
          "internalType": "struct IAccounting.ConstructorParams",
          "name": "params",
          "type": "tuple"
        }
      ],
      "stateMutability": "nonpayable",
      "type": "constructor"
    },
    {
      "anonymous": false,
      "inputs": [],
      "name": "DebtPositionIndexingDisabled",
      "type": "event"
    },
    {
      "anonymous": false,
      "inputs": [],
      "name": "PoolPositionIndexingDisabled",
      "type": "event"
    },
    {
      "anonymous": false,
      "inputs": [],
      "name": "Stopped",
      "type": "event"
    },
    {
      "anonymous": false,
      "inputs": [
        {
          "indexed": true,
          "internalType": "uint32",
          "name": "interfaceID",
          "type": "uint32"
        },
        {
          "indexed": true,
          "internalType": "address",
          "name": "kickbackDestination",
          "type": "address"
        },
        {
          "indexed": false,
          "internalType": "string",
          "name": "ipfsHash",
          "type": "string"
        }
      ],
      "name": "UIInitialized",
      "type": "event"
    },
    {
      "anonymous": false,
      "inputs": [
        {
          "indexed": true,
          "internalType": "uint32",
          "name": "interfaceID",
          "type": "uint32"
        },
        {
          "indexed": true,
          "internalType": "address",
          "name": "kickbackDestination",
          "type": "address"
        },
        {
          "indexed": true,
          "internalType": "uint24",
          "name": "tags",
          "type": "uint24"
        },
        {
          "indexed": false,
          "internalType": "uint256",
          "name": "kickbackPortion",
          "type": "uint256"
        }
      ],
      "name": "UIRegistered",
      "type": "event"
    },
    {
      "anonymous": false,
      "inputs": [
        {
          "indexed": false,
          "internalType": "uint32[]",
          "name": "uis",
          "type": "uint32[]"
        }
      ],
      "name": "UIsApproved",
      "type": "event"
    },
    {
      "anonymous": false,
      "inputs": [
        {
          "indexed": false,
          "internalType": "uint32[]",
          "name": "uis",
          "type": "uint32[]"
        }
      ],
      "name": "UIsDisapproved",
      "type": "event"
    },
    {
      "inputs": [
        {
          "internalType": "address",
          "name": "owner",
          "type": "address"
        },
        {
          "internalType": "uint256",
          "name": "nftID",
          "type": "uint256"
        }
      ],
      "name": "addPositionToIndex",
      "outputs": [],
      "stateMutability": "nonpayable",
      "type": "function"
    },
    {
      "inputs": [
        {
          "internalType": "uint32[]",
          "name": "ids",
          "type": "uint32[]"
        }
      ],
      "name": "approveUIs",
      "outputs": [],
      "stateMutability": "nonpayable",
      "type": "function"
    },
    {
      "inputs": [],
      "name": "debt",
      "outputs": [
        {
          "internalType": "uint256",
          "name": "",
          "type": "uint256"
        }
      ],
      "stateMutability": "view",
      "type": "function"
    },
    {
      "inputs": [],
      "name": "debtPositionIndexingEnabled",
      "outputs": [
        {
          "internalType": "bool",
          "name": "",
          "type": "bool"
        }
      ],
      "stateMutability": "view",
      "type": "function"
    },
    {
      "inputs": [
        {
          "internalType": "uint256",
          "name": "count",
          "type": "uint256"
        }
      ],
      "name": "decreaseDebt",
      "outputs": [],
      "stateMutability": "nonpayable",
      "type": "function"
    },
    {
      "inputs": [
        {
          "internalType": "contract IUniswapV3Pool",
          "name": "pool",
          "type": "address"
        },
        {
          "internalType": "uint256",
          "name": "liquidity",
          "type": "uint256"
        }
      ],
      "name": "decreasePoolLiquidity",
      "outputs": [],
      "stateMutability": "nonpayable",
      "type": "function"
    },
    {
      "inputs": [
        {
          "internalType": "uint256",
          "name": "nftID",
          "type": "uint256"
        }
      ],
      "name": "deletePoolPosition",
      "outputs": [],
      "stateMutability": "nonpayable",
      "type": "function"
    },
    {
      "inputs": [],
      "name": "deployer",
      "outputs": [
        {
          "internalType": "address",
          "name": "",
          "type": "address"
        }
      ],
      "stateMutability": "view",
      "type": "function"
    },
    {
      "inputs": [
        {
          "internalType": "uint32[]",
          "name": "ids",
          "type": "uint32[]"
        }
      ],
      "name": "disapproveUIs",
      "outputs": [],
      "stateMutability": "nonpayable",
      "type": "function"
    },
    {
      "inputs": [
        {
          "internalType": "uint64",
          "name": "positionID",
          "type": "uint64"
        }
      ],
      "name": "getBasicPositionInfo",
      "outputs": [
        {
          "internalType": "uint256",
          "name": "debtCount",
          "type": "uint256"
        },
        {
          "internalType": "uint256",
          "name": "collateralCount",
          "type": "uint256"
        }
      ],
      "stateMutability": "view",
      "type": "function"
    },
    {
      "inputs": [
        {
          "internalType": "uint256",
          "name": "nftID",
          "type": "uint256"
        }
      ],
      "name": "getPoolPosition",
      "outputs": [
        {
          "components": [
            {
              "internalType": "address",
              "name": "owner",
              "type": "address"
            },
            {
              "internalType": "uint16",
              "name": "poolID",
              "type": "uint16"
            },
            {
              "internalType": "uint256",
              "name": "cumulativeLiquidity",
              "type": "uint256"
            },
            {
              "internalType": "uint256",
              "name": "totalRewards",
              "type": "uint256"
            },
            {
              "internalType": "uint256",
              "name": "lastBlockPositionIncreased",
              "type": "uint256"
            },
            {
              "internalType": "uint128",
              "name": "liquidity",
              "type": "uint128"
            },
            {
              "internalType": "uint64",
              "name": "lastTimeRewarded",
              "type": "uint64"
            },
            {
              "internalType": "int24",
              "name": "tickLower",
              "type": "int24"
            },
            {
              "internalType": "int24",
              "name": "tickUpper",
              "type": "int24"
            },
            {
              "internalType": "uint32",
              "name": "ui",
              "type": "uint32"
            },
            {
              "internalType": "address",
              "name": "kickbackDestination",
              "type": "address"
            },
            {
              "internalType": "uint64",
              "name": "kickbackPortion",
              "type": "uint64"
            }
          ],
          "internalType": "struct IAccounting.PoolPosition",
          "name": "pp",
          "type": "tuple"
        }
      ],
      "stateMutability": "view",
      "type": "function"
    },
    {
      "inputs": [
        {
          "internalType": "address",
          "name": "owner",
          "type": "address"
        }
      ],
      "name": "getPoolPositionNftIdsByOwner",
      "outputs": [
        {
          "internalType": "uint128[]",
          "name": "",
          "type": "uint128[]"
        }
      ],
      "stateMutability": "view",
      "type": "function"
    },
    {
      "inputs": [
        {
          "internalType": "uint64",
          "name": "positionID",
          "type": "uint64"
        }
      ],
      "name": "getPosition",
      "outputs": [
        {
          "components": [
            {
              "internalType": "uint256",
              "name": "startCumulativeDebt",
              "type": "uint256"
            },
            {
              "internalType": "uint256",
              "name": "collateral",
              "type": "uint256"
            },
            {
              "internalType": "uint256",
              "name": "debt",
              "type": "uint256"
            },
            {
              "internalType": "uint256",
              "name": "startDebtExchangeRate",
              "type": "uint256"
            },
            {
              "internalType": "uint256",
              "name": "startTCPRewards",
              "type": "uint256"
            },
            {
              "internalType": "uint64",
              "name": "lastTimeUpdated",
              "type": "uint64"
            },
            {
              "internalType": "uint64",
              "name": "lastBorrowTime",
              "type": "uint64"
            },
            {
              "internalType": "int24",
              "name": "tick",
              "type": "int24"
            },
            {
              "internalType": "bool",
              "name": "tickSet",
              "type": "bool"
            },
            {
              "internalType": "uint64",
              "name": "tickIndex",
              "type": "uint64"
            },
            {
              "internalType": "uint32",
              "name": "ui",
              "type": "uint32"
            },
            {
              "internalType": "address",
              "name": "kickbackDestination",
              "type": "address"
            },
            {
              "internalType": "uint64",
              "name": "kickbackPortion",
              "type": "uint64"
            }
          ],
          "internalType": "struct IAccounting.DebtPosition",
          "name": "dp",
          "type": "tuple"
        }
      ],
      "stateMutability": "view",
      "type": "function"
    },
    {
      "inputs": [
        {
          "internalType": "contract IUniswapV3Pool",
          "name": "pool",
          "type": "address"
        }
      ],
      "name": "getRewardStatus",
      "outputs": [
        {
          "components": [
            {
              "internalType": "uint256",
              "name": "totalRewards",
              "type": "uint256"
            },
            {
              "internalType": "uint256",
              "name": "cumulativeLiquidity",
              "type": "uint256"
            }
          ],
          "internalType": "struct IAccounting.RewardStatus",
          "name": "",
          "type": "tuple"
        }
      ],
      "stateMutability": "view",
      "type": "function"
    },
    {
      "inputs": [],
      "name": "getSystemDebtInfo",
      "outputs": [
        {
          "components": [
            {
              "internalType": "uint256",
              "name": "debt",
              "type": "uint256"
            },
            {
              "internalType": "uint256",
              "name": "totalTCPRewards",
              "type": "uint256"
            },
            {
              "internalType": "uint256",
              "name": "cumulativeDebt",
              "type": "uint256"
            },
            {
              "internalType": "uint256",
              "name": "debtExchangeRate",
              "type": "uint256"
            }
          ],
          "internalType": "struct IAccounting.SystemDebtInfo",
          "name": "",
          "type": "tuple"
        }
      ],
      "stateMutability": "view",
      "type": "function"
    },
    {
      "inputs": [
        {
          "internalType": "uint256",
          "name": "collateralCount",
          "type": "uint256"
        },
        {
          "internalType": "uint256",
          "name": "debtCount",
          "type": "uint256"
        }
      ],
      "name": "getTick",
      "outputs": [
        {
          "internalType": "int24",
          "name": "",
          "type": "int24"
        }
      ],
      "stateMutability": "pure",
      "type": "function"
    },
    {
      "inputs": [
        {
          "internalType": "uint32",
          "name": "start",
          "type": "uint32"
        },
        {
          "internalType": "uint32",
          "name": "end",
          "type": "uint32"
        }
      ],
      "name": "getUIs",
      "outputs": [
        {
          "components": [
            {
              "internalType": "address",
              "name": "kickbackDestination",
              "type": "address"
            },
            {
              "internalType": "uint64",
              "name": "kickbackPortion",
              "type": "uint64"
            },
            {
              "internalType": "enum IAccounting.UIGovernanceRating",
              "name": "governanceRating",
              "type": "uint8"
            },
            {
              "internalType": "uint24",
              "name": "tags",
              "type": "uint24"
            },
            {
              "internalType": "string",
              "name": "ipfsHash",
              "type": "string"
            }
          ],
          "internalType": "struct IAccounting.UserInterface[]",
          "name": "uis",
          "type": "tuple[]"
        }
      ],
      "stateMutability": "view",
      "type": "function"
    },
    {
      "inputs": [],
      "name": "governor",
      "outputs": [
        {
          "internalType": "contract IGovernor",
          "name": "",
          "type": "address"
        }
      ],
      "stateMutability": "view",
      "type": "function"
    },
    {
      "inputs": [
        {
          "internalType": "uint256",
          "name": "count",
          "type": "uint256"
        }
      ],
      "name": "increaseDebt",
      "outputs": [],
      "stateMutability": "nonpayable",
      "type": "function"
    },
    {
      "inputs": [
        {
          "internalType": "uint256",
          "name": "count",
          "type": "uint256"
        }
      ],
      "name": "increaseLentHue",
      "outputs": [],
      "stateMutability": "nonpayable",
      "type": "function"
    },
    {
      "inputs": [
        {
          "internalType": "contract IUniswapV3Pool",
          "name": "pool",
          "type": "address"
        },
        {
          "internalType": "uint256",
          "name": "liquidity",
          "type": "uint256"
        }
      ],
      "name": "increasePoolLiquidity",
      "outputs": [],
      "stateMutability": "nonpayable",
      "type": "function"
    },
    {
      "inputs": [],
      "name": "init",
      "outputs": [],
      "stateMutability": "nonpayable",
      "type": "function"
    },
    {
      "inputs": [
        {
          "internalType": "uint32",
          "name": "interfaceID",
          "type": "uint32"
        },
        {
          "internalType": "string",
          "name": "ipfsHash",
          "type": "string"
        }
      ],
      "name": "initializeUI",
      "outputs": [],
      "stateMutability": "nonpayable",
      "type": "function"
    },
    {
      "inputs": [],
      "name": "lentHue",
      "outputs": [
        {
          "internalType": "uint256",
          "name": "",
          "type": "uint256"
        }
      ],
      "stateMutability": "view",
      "type": "function"
    },
    {
      "inputs": [],
      "name": "nextUserInterfaceID",
      "outputs": [
        {
          "internalType": "uint32",
          "name": "",
          "type": "uint32"
        }
      ],
      "stateMutability": "view",
      "type": "function"
    },
    {
      "inputs": [
        {
          "internalType": "address",
          "name": "",
          "type": "address"
        },
        {
          "internalType": "address",
          "name": "",
          "type": "address"
        },
        {
          "internalType": "uint256",
          "name": "",
          "type": "uint256"
        },
        {
          "internalType": "bytes",
          "name": "",
          "type": "bytes"
        }
      ],
      "name": "onERC721Received",
      "outputs": [
        {
          "internalType": "bytes4",
          "name": "",
          "type": "bytes4"
        }
      ],
      "stateMutability": "pure",
      "type": "function"
    },
    {
      "inputs": [
        {
          "internalType": "address",
          "name": "newRewards",
          "type": "address"
        }
      ],
      "name": "onRewardsUpgrade",
      "outputs": [],
      "stateMutability": "nonpayable",
      "type": "function"
    },
    {
      "inputs": [
        {
          "internalType": "contract IUniswapV3Pool",
          "name": "",
          "type": "address"
        }
      ],
      "name": "poolLiquidity",
      "outputs": [
        {
          "internalType": "uint256",
          "name": "",
          "type": "uint256"
        }
      ],
      "stateMutability": "view",
      "type": "function"
    },
    {
      "inputs": [],
      "name": "poolPositionIndexingEnabled",
      "outputs": [
        {
          "internalType": "bool",
          "name": "",
          "type": "bool"
        }
      ],
      "stateMutability": "view",
      "type": "function"
    },
    {
      "inputs": [
        {
          "internalType": "int24",
          "name": "tick",
          "type": "int24"
        }
      ],
      "name": "positionsForTick",
      "outputs": [
        {
          "internalType": "uint64[]",
          "name": "",
          "type": "uint64[]"
        }
      ],
      "stateMutability": "view",
      "type": "function"
    },
    {
      "inputs": [
        {
          "internalType": "uint64",
          "name": "kickbackPortion",
          "type": "uint64"
        },
        {
          "internalType": "uint24",
          "name": "tags",
          "type": "uint24"
        }
      ],
      "name": "registerUI",
      "outputs": [
        {
          "internalType": "uint32",
          "name": "",
          "type": "uint32"
        }
      ],
      "stateMutability": "nonpayable",
      "type": "function"
    },
    {
      "inputs": [
        {
          "internalType": "address payable",
          "name": "dest",
          "type": "address"
        },
        {
          "internalType": "uint256",
          "name": "count",
          "type": "uint256"
        }
      ],
      "name": "sendCollateral",
      "outputs": [],
      "stateMutability": "nonpayable",
      "type": "function"
    },
    {
      "inputs": [
        {
          "internalType": "address",
          "name": "dest",
          "type": "address"
        },
        {
          "internalType": "uint256",
          "name": "count",
          "type": "uint256"
        }
      ],
      "name": "sendLentHue",
      "outputs": [],
      "stateMutability": "nonpayable",
      "type": "function"
    },
    {
      "inputs": [
        {
          "internalType": "uint256",
          "name": "nftID",
          "type": "uint256"
        },
        {
          "components": [
            {
              "internalType": "address",
              "name": "owner",
              "type": "address"
            },
            {
              "internalType": "uint16",
              "name": "poolID",
              "type": "uint16"
            },
            {
              "internalType": "uint256",
              "name": "cumulativeLiquidity",
              "type": "uint256"
            },
            {
              "internalType": "uint256",
              "name": "totalRewards",
              "type": "uint256"
            },
            {
              "internalType": "uint256",
              "name": "lastBlockPositionIncreased",
              "type": "uint256"
            },
            {
              "internalType": "uint128",
              "name": "liquidity",
              "type": "uint128"
            },
            {
              "internalType": "uint64",
              "name": "lastTimeRewarded",
              "type": "uint64"
            },
            {
              "internalType": "int24",
              "name": "tickLower",
              "type": "int24"
            },
            {
              "internalType": "int24",
              "name": "tickUpper",
              "type": "int24"
            },
            {
              "internalType": "uint32",
              "name": "ui",
              "type": "uint32"
            },
            {
              "internalType": "address",
              "name": "kickbackDestination",
              "type": "address"
            },
            {
              "internalType": "uint64",
              "name": "kickbackPortion",
              "type": "uint64"
            }
          ],
          "internalType": "struct IAccounting.PoolPosition",
          "name": "pp",
          "type": "tuple"
        }
      ],
      "name": "setPoolPosition",
      "outputs": [],
      "stateMutability": "nonpayable",
      "type": "function"
    },
    {
      "inputs": [
        {
          "internalType": "uint64",
          "name": "positionID",
          "type": "uint64"
        },
        {
          "components": [
            {
              "internalType": "uint256",
              "name": "startCumulativeDebt",
              "type": "uint256"
            },
            {
              "internalType": "uint256",
              "name": "collateral",
              "type": "uint256"
            },
            {
              "internalType": "uint256",
              "name": "debt",
              "type": "uint256"
            },
            {
              "internalType": "uint256",
              "name": "startDebtExchangeRate",
              "type": "uint256"
            },
            {
              "internalType": "uint256",
              "name": "startTCPRewards",
              "type": "uint256"
            },
            {
              "internalType": "uint64",
              "name": "lastTimeUpdated",
              "type": "uint64"
            },
            {
              "internalType": "uint64",
              "name": "lastBorrowTime",
              "type": "uint64"
            },
            {
              "internalType": "int24",
              "name": "tick",
              "type": "int24"
            },
            {
              "internalType": "bool",
              "name": "tickSet",
              "type": "bool"
            },
            {
              "internalType": "uint64",
              "name": "tickIndex",
              "type": "uint64"
            },
            {
              "internalType": "uint32",
              "name": "ui",
              "type": "uint32"
            },
            {
              "internalType": "address",
              "name": "kickbackDestination",
              "type": "address"
            },
            {
              "internalType": "uint64",
              "name": "kickbackPortion",
              "type": "uint64"
            }
          ],
          "internalType": "struct IAccounting.DebtPosition",
          "name": "dp",
          "type": "tuple"
        }
      ],
      "name": "setPosition",
      "outputs": [],
      "stateMutability": "nonpayable",
      "type": "function"
    },
    {
      "inputs": [
        {
          "internalType": "contract IUniswapV3Pool",
          "name": "pool",
          "type": "address"
        },
        {
          "components": [
            {
              "internalType": "uint256",
              "name": "totalRewards",
              "type": "uint256"
            },
            {
              "internalType": "uint256",
              "name": "cumulativeLiquidity",
              "type": "uint256"
            }
          ],
          "internalType": "struct IAccounting.RewardStatus",
          "name": "rs",
          "type": "tuple"
        }
      ],
      "name": "setRewardStatus",
      "outputs": [],
      "stateMutability": "nonpayable",
      "type": "function"
    },
    {
      "inputs": [
        {
          "components": [
            {
              "internalType": "uint256",
              "name": "debt",
              "type": "uint256"
            },
            {
              "internalType": "uint256",
              "name": "totalTCPRewards",
              "type": "uint256"
            },
            {
              "internalType": "uint256",
              "name": "cumulativeDebt",
              "type": "uint256"
            },
            {
              "internalType": "uint256",
              "name": "debtExchangeRate",
              "type": "uint256"
            }
          ],
          "internalType": "struct IAccounting.SystemDebtInfo",
          "name": "_sdi",
          "type": "tuple"
        }
      ],
      "name": "setSystemDebtInfo",
      "outputs": [],
      "stateMutability": "nonpayable",
      "type": "function"
    },
    {
      "inputs": [
        {
          "internalType": "int24",
          "name": "rawTick",
          "type": "int24"
        },
        {
          "internalType": "int24",
          "name": "tickSpacing",
          "type": "int24"
        }
      ],
      "name": "snapRawTickToSpacing",
      "outputs": [
        {
          "internalType": "int24",
          "name": "",
          "type": "int24"
        }
      ],
      "stateMutability": "pure",
      "type": "function"
    },
    {
      "inputs": [],
      "name": "stopIndexingDebtPositions",
      "outputs": [],
      "stateMutability": "nonpayable",
      "type": "function"
    },
    {
      "inputs": [],
      "name": "stopIndexingPoolPositions",
      "outputs": [],
      "stateMutability": "nonpayable",
      "type": "function"
    },
    {
      "inputs": [],
      "name": "stopped",
      "outputs": [
        {
          "internalType": "bool",
          "name": "",
          "type": "bool"
        }
      ],
      "stateMutability": "view",
      "type": "function"
    },
    {
      "inputs": [],
      "name": "sweepHue",
      "outputs": [],
      "stateMutability": "nonpayable",
      "type": "function"
    },
    {
      "inputs": [
        {
          "internalType": "uint256",
          "name": "",
          "type": "uint256"
        }
      ],
      "name": "userInterfaces",
      "outputs": [
        {
          "internalType": "address",
          "name": "kickbackDestination",
          "type": "address"
        },
        {
          "internalType": "uint64",
          "name": "kickbackPortion",
          "type": "uint64"
        },
        {
          "internalType": "enum IAccounting.UIGovernanceRating",
          "name": "governanceRating",
          "type": "uint8"
        },
        {
          "internalType": "uint24",
          "name": "tags",
          "type": "uint24"
        },
        {
          "internalType": "string",
          "name": "ipfsHash",
          "type": "string"
        }
      ],
      "stateMutability": "view",
      "type": "function"
    },
    {
      "inputs": [
        {
          "internalType": "bytes4",
          "name": "",
          "type": "bytes4"
        }
      ],
      "name": "validUpdate",
      "outputs": [
        {
          "internalType": "bool",
          "name": "",
          "type": "bool"
        }
      ],
      "stateMutability": "view",
      "type": "function"
    },
    {
      "stateMutability": "payable",
      "type": "receive"
    }
  ],
  "bytecode": "0x60e0604052600160026000509090556001600560006101000a81548160ff0219169083151502179055506001600560016101000a81548160ff0219169083151502179055506001600f60006101000a81548163ffffffff021916908363ffffffff160217905550348015620000745760006000fd5b5060405162007fe538038062007fe583398181016040528101906200009a91906200043d565b5b80600001515b8073ffffffffffffffffffffffffffffffffffffffff1660808173ffffffffffffffffffffffffffffffffffffffff1660601b815260140150505b50806020015173ffffffffffffffffffffffffffffffffffffffff1660c08173ffffffffffffffffffffffffffffffffffffffff1660601b81526014015050806040015173ffffffffffffffffffffffffffffffffffffffff1660a08173ffffffffffffffffffffffffffffffffffffffff1660601b8152601401505062000179670de0b6b3a7640000620003d060201b62002dcd17909060201c565b600860005060010160106101000a8154816fffffffffffffffffffffffffffffffff02191690836fffffffffffffffffffffffffffffffff16021790555060016001600050600063461054a360e01b7bffffffffffffffffffffffffffffffffffffffffffffffffffffffff19167bffffffffffffffffffffffffffffffffffffffffffffffffffffffff1916815260200190815260200160002060006101000a81548160ff02191690831515021790555060016001600050600063602db56b60e01b7bffffffffffffffffffffffffffffffffffffffffffffffffffffffff19167bffffffffffffffffffffffffffffffffffffffffffffffffffffffff1916815260200190815260200160002060006101000a81548160ff02191690831515021790555060016001600050600063397d359260e01b7bffffffffffffffffffffffffffffffffffffffffffffffffffffffff19167bffffffffffffffffffffffffffffffffffffffffffffffffffffffff1916815260200190815260200160002060006101000a81548160ff021916908315150217905550600160016000506000630b218d2460e01b7bffffffffffffffffffffffffffffffffffffffffffffffffffffffff19167bffffffffffffffffffffffffffffffffffffffffffffffffffffffff1916815260200190815260200160002060006101000a81548160ff02191690831515021790555033600360006101000a81548173ffffffffffffffffffffffffffffffffffffffff021916908373ffffffffffffffffffffffffffffffffffffffff1602179055505b506200052a565b6000700100000000000000000000000000000000821015156200042a576040517f08c379a00000000000000000000000000000000000000000000000000000000081526004016200042190620004cd565b60405180910390fd5b81905062000433565b9190505662000529565b6000606082840312156200044f578081fd5b604051606081018181106001600160401b03821117156200047e57634e487b7160e01b83526041600452602483fd5b8060405250825162000490816200050c565b808252506020830151620004a4816200050c565b806020830152506040830151620004bb816200050c565b80604083015250809150505b92915050565b60208152601260208201527f6d6f7265207468616e2031323820626974730000000000000000000000000000604082015260006060820190505b919050565b6001600160a01b03811681141515620005255760006000fd5b505b565b5b60805160601c60a05160601c60c05160601c617a43620005a260003960008181611dd101528181611e8701528181611ea80152611ecf015260008181612c730152614669015260008181610b2c01528181610d2f01528181612a5001528181612ff70152818161344e01526137c50152617a436000f3fe6080604052600436106102eb5760003560e01c806375ea13ca11610184578063c0c899ff116100d6578063d99f57261161008a578063e2b1e9e311610064578063e2b1e9e314610a91578063f34348f114610abd578063fd9c749214610afb57610302565b8063d99f5726146109fd578063dfff5dc414610a3b578063e1c7392a14610a7957610302565b8063c7711db4116100bb578063c7711db414610955578063d159b4ae14610993578063d5f39488146109d157610302565b8063c0c899ff146108ed578063c3c837ba1461091757610302565b806396122a5c11610138578063b241bbac11610112578063b241bbac1461086d578063b87e8d5814610897578063bdb2a496146108d557610302565b806396122a5c146107db578063a135ef1714610805578063a678f3361461084357610302565b806378efc6b01161016957806378efc6b01461075b5780637f250c6114610785578063816aaa25146107b157610302565b806375ea13ca1461070557806375f12b211461072f57610302565b806326879a4e1161023d578063461054a3116101f1578063602db56b116101cb578063602db56b14610684578063625021691461069c5780636594da9f146106c657610302565b8063461054a314610618578063530c1ccb146106305780635a6beaf41461065a57610302565b80632b7c7b11116102225780632b7c7b111461059a5780632c73f09e146105c4578063397d3592146105ee57610302565b806326879a4e146105465780632a7ba1f71461057057610302565b80630f85fc5a1161029f578063150b7a0211610279578063150b7a021461048857806318a15e79146104c65780631cef92b11461050857610302565b80630f85fc5a146103e2578063113cf1ab146104205780631428561d1461045e57610302565b80630b218d24116102d05780630b218d24146103605780630c340a241461038a5780630dca59c1146103b657610302565b806306ef2d8014610308578063092a26c31461033457610302565b36610302575b6102ff610b2763ffffffff16565b5b005b60006000fd5b3480156103155760006000fd5b5061031e610bd8565b60405161032b91906172ed565b60405180910390f35b3480156103415760006000fd5b5061034a610bf8565b6040516103579190616bfd565b60405180910390f35b34801561036d5760006000fd5b5061038860048036038101906103839190615fd9565b610c0b565b005b3480156103975760006000fd5b506103a0610d2d565b6040516103ad9190616c45565b60405180910390f35b3480156103c35760006000fd5b506103cc610d51565b6040516103d9919061731e565b60405180910390f35b3480156103ef5760006000fd5b5061040a60048036038101906104059190616585565b610d94565b6040516104179190617119565b60405180910390f35b34801561042d5760006000fd5b50610448600480360381019061044391906160bc565b610eb3565b6040516104559190616bfd565b60405180910390f35b34801561046b5760006000fd5b5061048660048036038101906104819190616217565b610ed8565b005b3480156104955760006000fd5b506104b060048036038101906104ab9190615f02565b610f65565b6040516104bd9190616c11565b60405180910390f35b3480156104d35760006000fd5b506104ee60048036038101906104e99190616312565b610fab565b6040516104ff9594939291906169a2565b60405180910390f35b3480156105155760006000fd5b50610530600480360381019061052b9190616157565b6110bf565b60405161053d91906172d0565b60405180910390f35b3480156105535760006000fd5b5061056e60048036038101906105699190616312565b611140565b005b34801561057d5760006000fd5b5061059860048036038101906105939190616312565b6112e4565b005b3480156105a75760006000fd5b506105c260048036038101906105bd9190616312565b6113a3565b005b3480156105d15760006000fd5b506105ec60048036038101906105e79190616312565b611462565b005b3480156105fb5760006000fd5b5061061660048036038101906106119190615fd9565b6114ad565b005b3480156106255760006000fd5b5061062e6116bb565b005b34801561063d5760006000fd5b5061065860048036038101906106539190616217565b611714565b005b3480156106675760006000fd5b50610682600480360381019061067d91906165a8565b6117a1565b005b3480156106915760006000fd5b5061069a61199c565b005b3480156106a95760006000fd5b506106c460048036038101906106bf9190615ed1565b6119f5565b005b3480156106d35760006000fd5b506106ee60048036038101906106e99190616585565b611a35565b6040516106fc929190617330565b60405180910390f35b3480156107125760006000fd5b5061072d60048036038101906107289190615fa8565b611be8565b005b34801561073c5760006000fd5b50610745611c26565b6040516107529190616bfd565b60405180910390f35b3480156107685760006000fd5b50610783600480360381019061077e91906162ab565b611c39565b005b3480156107925760006000fd5b5061079b611c77565b6040516107a8919061731e565b60405180910390f35b3480156107be5760006000fd5b506107d960048036038101906107d4919061634a565b611c80565b005b3480156107e85760006000fd5b5061080360048036038101906107fe919061617e565b611cc0565b005b3480156108125760006000fd5b5061082d60048036038101906108289190616157565b611d57565b60405161083a919061731e565b60405180910390f35b3480156108505760006000fd5b5061086b60048036038101906108669190615eaa565b611d72565b005b34801561087a5760006000fd5b5061089560048036038101906108909190615fa8565b611d94565b005b3480156108a45760006000fd5b506108bf60048036038101906108ba9190615eaa565b611e11565b6040516108cc9190616af1565b60405180910390f35b3480156108e25760006000fd5b506108eb611e74565b005b3480156108fa5760006000fd5b506109156004803603810190610910919061648d565b611f9f565b005b3480156109245760006000fd5b5061093f600480360381019061093a9190616551565b6121c3565b60405161094c9190616a06565b60405180910390f35b3480156109625760006000fd5b5061097d60048036038101906109789190616248565b6124e5565b60405161098a9190616ba5565b60405180910390f35b3480156109a05760006000fd5b506109bb60048036038101906109b69190616467565b6125a5565b6040516109c89190616c6d565b60405180910390f35b3480156109de5760006000fd5b506109e761263b565b6040516109f4919061691a565b60405180910390f35b348015610a0a5760006000fd5b50610a256004803603810190610a20919061626f565b612661565b604051610a329190616c6d565b60405180910390f35b348015610a485760006000fd5b50610a636004803603810190610a5e91906166d2565b6126c8565b604051610a709190617349565b60405180910390f35b348015610a865760006000fd5b50610a8f6129f5565b005b348015610a9e5760006000fd5b50610aa7612afc565b604051610ab49190617349565b60405180910390f35b348015610aca5760006000fd5b50610ae56004803603810190610ae09190616312565b612b12565b604051610af291906171f7565b60405180910390f35b348015610b085760006000fd5b50610b11612dba565b604051610b1e9190616bfd565b60405180910390f35b610bd57f000000000000000000000000000000000000000000000000000000000000000073ffffffffffffffffffffffffffffffffffffffff166380f556056040518163ffffffff1660e01b815260040160206040518083038186803b158015610b915760006000fd5b505afa158015610ba6573d600060003e3d6000fd5b505050506040513d601f19601f82011682018060405250810190610bca9190616109565b612e3163ffffffff16565b5b565b610be0615a9a565b610bee612e7263ffffffff16565b9050610bf5565b90565b600560009054906101000a900460ff1681565b610c19612ff263ffffffff16565b6000600090505b8151811015610cf0576003601060005060008484815181101515610c6d577f4e487b7100000000000000000000000000000000000000000000000000000000600052603260045260246000fd5b602002602001015163ffffffff168152602001908152602001600020600050600001601c6101000a81548160ff02191690836003811115610cd7577f4e487b7100000000000000000000000000000000000000000000000000000000600052602160045260246000fd5b02179055505b8080610ce8906177bb565b915050610c20565b507f7264e0084cbb7692193b834f40153b973ff4f827f8ed45da32ae6d8e486bb0c781604051610d209190616b51565b60405180910390a15b5b50565b7f000000000000000000000000000000000000000000000000000000000000000081565b6000600860005060010160009054906101000a90046fffffffffffffffffffffffffffffffff166fffffffffffffffffffffffffffffffff169050610d91565b90565b610d9c615ac5565b610dab8261305263ffffffff16565b90508050600081610140015163ffffffff161115610ea6576010600050600082610140015163ffffffff16815260200190815260200160002060005060000160009054906101000a900473ffffffffffffffffffffffffffffffffffffffff1681610160019073ffffffffffffffffffffffffffffffffffffffff16908173ffffffffffffffffffffffffffffffffffffffff16815260200150506010600050600082610140015163ffffffff16815260200190815260200160002060005060000160149054906101000a900467ffffffffffffffff1681610180019067ffffffffffffffff16908167ffffffffffffffff16815260200150505b809050610eae565b919050565b600160005060205280600052604060002060009150909054906101000a900460ff1681565b610ee66133ee63ffffffff16565b610ef461344963ffffffff16565b80600d60005060008473ffffffffffffffffffffffffffffffffffffffff1673ffffffffffffffffffffffffffffffffffffffff16815260200190815260200160002060008282825054610f4891906174b5565b9250508190909055505b610f606134fa63ffffffff16565b5b5050565b60006040517f08c379a0000000000000000000000000000000000000000000000000000000008152600401610f9990616f3a565b60405180910390fd5b95945050505050565b60106000506020528060005260406000206000915090508060000160009054906101000a900473ffffffffffffffffffffffffffffffffffffffff16908060000160149054906101000a900467ffffffffffffffff169080600001601c9054906101000a900460ff169080600001601d9054906101000a900462ffffff169080600101600050805461103c90617760565b80601f016020809104026020016040519081016040528092919081815260200182805461106890617760565b80156110b55780601f1061108a576101008083540402835291602001916110b5565b820191906000526020600020905b81548152906001019060200180831161109857829003601f168201915b5050505050905085565b6110c7615b79565b600b60005060008373ffffffffffffffffffffffffffffffffffffffff1673ffffffffffffffffffffffffffffffffffffffff16815260200190815260200160002060005060405180604001604052908160008201600050548152602001600182016000505481526020015050905061113b565b919050565b61114e6133ee63ffffffff16565b61115c61344963ffffffff16565b6111ff61117082612dcd909063ffffffff16565b600e6000506000600c600050600086815260200190815260200160002060005060000160009054906101000a900473ffffffffffffffffffffffffffffffffffffffff1673ffffffffffffffffffffffffffffffffffffffff1673ffffffffffffffffffffffffffffffffffffffff16815260200190815260200160002060005061350a90919063ffffffff16565b50600c600050600082815260200190815260200160002060006000820160006101000a81549073ffffffffffffffffffffffffffffffffffffffff02191690556000820160146101000a81549061ffff02191690556000820160166101000a81549063ffffffff021916905560018201600050600090556002820160006101000a81549075ffffffffffffffffffffffffffffffffffffffffffff02191690556002820160166101000a81549064ffffffffff021916905560028201601b6101000a81549064ffffffffff021916905550505b6112e06134fa63ffffffff16565b5b50565b6112f26133ee63ffffffff16565b6113006137c363ffffffff16565b61135281600860005060010160009054906101000a90046fffffffffffffffffffffffffffffffff166fffffffffffffffffffffffffffffffff1661134591906176de565b612dcd909063ffffffff16565b600860005060010160006101000a8154816fffffffffffffffffffffffffffffffff02191690836fffffffffffffffffffffffffffffffff1602179055505b61139f6134fa63ffffffff16565b5b50565b6113b16133ee63ffffffff16565b6113bf610b2763ffffffff16565b61141181600860005060010160009054906101000a90046fffffffffffffffffffffffffffffffff166fffffffffffffffffffffffffffffffff1661140491906174b5565b612dcd909063ffffffff16565b600860005060010160006101000a8154816fffffffffffffffffffffffffffffffff02191690836fffffffffffffffffffffffffffffffff1602179055505b61145e6134fa63ffffffff16565b5b50565b6114706133ee63ffffffff16565b61147e610b2763ffffffff16565b8060076000505461148f91906174b5565b60076000508190909055505b6114a96134fa63ffffffff16565b5b50565b6114bb612ff263ffffffff16565b6000600090505b815181101561167e5760006003811115611505577f4e487b7100000000000000000000000000000000000000000000000000000000600052602160045260246000fd5b601060005060008484815181101515611547577f4e487b7100000000000000000000000000000000000000000000000000000000600052603260045260246000fd5b602002602001015163ffffffff168152602001908152602001600020600050600001601c9054906101000a900460ff1660038111156115af577f4e487b7100000000000000000000000000000000000000000000000000000000600052602160045260246000fd5b14151561166a5760026010600050600084848151811015156115fa577f4e487b7100000000000000000000000000000000000000000000000000000000600052603260045260246000fd5b602002602001015163ffffffff168152602001908152602001600020600050600001601c6101000a81548160ff02191690836003811115611664577f4e487b7100000000000000000000000000000000000000000000000000000000600052602160045260246000fd5b02179055505b5b8080611676906177bb565b9150506114c2565b507f2e54370527117fb69828eac075cb3ed33fe59712134dfd3ef6efc9bd8b60c1ec816040516116ae9190616b51565b60405180910390a15b5b50565b6116c9612ff263ffffffff16565b6000600560006101000a81548160ff0219169083151502179055507f262b602ad12e3e551a407d5246b500f4ca5a01cc76bbf03e925db643a62a692f60405160405180910390a15b5b565b6117226133ee63ffffffff16565b61173061344963ffffffff16565b80600d60005060008473ffffffffffffffffffffffffffffffffffffffff1673ffffffffffffffffffffffffffffffffffffffff1681526020019081526020016000206000828282505461178491906176de565b9250508190909055505b61179c6134fa63ffffffff16565b5b5050565b6117af6133ee63ffffffff16565b6117bd6137c363ffffffff16565b600560009054906101000a900460ff1680156117e4575060008267ffffffffffffffff1614155b156117fe576117f9828261385163ffffffff16565b905080505b60008160200151148015611816575060008160400151145b1561197757600460005060008367ffffffffffffffff1667ffffffffffffffff168152602001908152602001600020600060008201600050600090556001820160006101000a8154906fffffffffffffffffffffffffffffffff02191690556001820160106101000a8154906fffffffffffffffffffffffffffffffff02191690556002820160006101000a8154906fffffffffffffffffffffffffffffffff02191690556002820160106101000a8154906fffffffffffffffffffffffffffffffff02191690556003820160006101000a81549067ffffffffffffffff02191690556003820160086101000a81549067ffffffffffffffff02191690556003820160106101000a81549062ffffff02191690556003820160136101000a81549060ff02191690556003820160146101000a81549067ffffffffffffffff021916905560038201601c6101000a81549063ffffffff02191690555050611988565b6119878282613c9c63ffffffff16565b5b5b6119976134fa63ffffffff16565b5b5050565b6119aa612ff263ffffffff16565b6000600560016101000a81548160ff0219169083151502179055507fc4f6661464541d662c51191d4da5a7a1cc8bca2631698fd030e21b52520a549c60405160405180910390a15b5b565b611a036133ee63ffffffff16565b611a116137c363ffffffff16565b611a21828261400a63ffffffff16565b5b611a306134fa63ffffffff16565b5b5050565b60006000600460005060008467ffffffffffffffff1667ffffffffffffffff16815260200190815260200160002060005060010160109054906101000a90046fffffffffffffffffffffffffffffffff166fffffffffffffffffffffffffffffffff1691508150600460005060008467ffffffffffffffff1667ffffffffffffffff16815260200190815260200160002060005060010160009054906101000a90046fffffffffffffffffffffffffffffffff166fffffffffffffffffffffffffffffffff16905080506000600460005060008567ffffffffffffffff1667ffffffffffffffff16815260200190815260200160002060005060020160009054906101000a90046fffffffffffffffffffffffffffffffff166fffffffffffffffffffffffffffffffff1690506000831480611b715750600081145b15611b825782829250925050611be3565b6000600860005060010160109054906101000a90046fffffffffffffffffffffffffffffffff166fffffffffffffffffffffffffffffffff1690508082141515611be057611bdb8183866141339092919063ffffffff16565b935083505b50505b915091565b600560019054906101000a900460ff161515611c0357611c22565b611c1161344963ffffffff16565b611c21828261425763ffffffff16565b5b5050565b600060009054906101000a900460ff1681565b611c476133ee63ffffffff16565b611c55610b2763ffffffff16565b611c64816142c463ffffffff16565b5b611c736134fa63ffffffff16565b5b50565b60076000505481565b611c8e6133ee63ffffffff16565b611c9c61344963ffffffff16565b611cac828261443663ffffffff16565b5b611cbb6134fa63ffffffff16565b5b5050565b611cce6133ee63ffffffff16565b611cdc61344963ffffffff16565b80600b60005060008473ffffffffffffffffffffffffffffffffffffffff1673ffffffffffffffffffffffffffffffffffffffff1681526020019081526020016000206000506000820151816000016000509090556020820151816001016000509090559050505b611d526134fa63ffffffff16565b5b5050565b600d6000506020528060005260406000206000915090505481565b611d80612ff263ffffffff16565b611d8f8161466763ffffffff16565b5b5b50565b611da26133ee63ffffffff16565b611db0610b2763ffffffff16565b80600760005054611dc191906176de565b6007600050819090905550611dfd7f000000000000000000000000000000000000000000000000000000000000000083836146fb63ffffffff16565b5b611e0c6134fa63ffffffff16565b5b5050565b6060611e68600e60005060008473ffffffffffffffffffffffffffffffffffffffff1673ffffffffffffffffffffffffffffffffffffffff168152602001908152602001600020600050614788909063ffffffff16565b9050611e6f565b919050565b611e826133ee63ffffffff16565b611f8d7f00000000000000000000000000000000000000000000000000000000000000007f00000000000000000000000000000000000000000000000000000000000000006007600050547f000000000000000000000000000000000000000000000000000000000000000073ffffffffffffffffffffffffffffffffffffffff166370a08231306040518263ffffffff1660e01b8152600401611f26919061691a565b60206040518083038186803b158015611f3f5760006000fd5b505afa158015611f54573d600060003e3d6000fd5b505050506040513d601f19601f82011682018060405250810190611f78919061632e565b611f8291906176de565b6146fb63ffffffff16565b5b611f9c6134fa63ffffffff16565b5b565b611fad6133ee63ffffffff16565b611ffe601060005060008463ffffffff16815260200190815260200160002060005060000160009054906101000a900473ffffffffffffffffffffffffffffffffffffffff16612e3163ffffffff16565b6120af6000600381111561203b577f4e487b7100000000000000000000000000000000000000000000000000000000600052602160045260246000fd5b601060005060008563ffffffff168152602001908152602001600020600050600001601c9054906101000a900460ff1660038111156120a3577f4e487b7100000000000000000000000000000000000000000000000000000000600052602160045260246000fd5b1461482e63ffffffff16565b6001601060005060008463ffffffff168152602001908152602001600020600050600001601c6101000a81548160ff0219169083600381111561211b577f4e487b7100000000000000000000000000000000000000000000000000000000600052602160045260246000fd5b021790555080601060005060008463ffffffff1681526020019081526020016000206000506001016000509080519060200190612159929190615b96565b503373ffffffffffffffffffffffffffffffffffffffff168263ffffffff167fec673006d787a8f7beffb5435d65c9380768a511390c957f84092e507033f218836040516121a79190616c82565b60405180910390a35b6121be6134fa63ffffffff16565b5b5050565b60608163ffffffff168363ffffffff161015156121e05760006000fd5b82826121ec91906176fd565b63ffffffff1667ffffffffffffffff811115612231577f4e487b7100000000000000000000000000000000000000000000000000000000600052604160045260246000fd5b60405190808252806020026020018201604052801561226a57816020015b612257615c21565b81526020019060019003908161224f5790505b509050805060005b8263ffffffff168463ffffffff1610156124dd57601060005060008580612298906177fa565b965063ffffffff1681526020019081526020016000206000506040518060a00160405290816000820160009054906101000a900473ffffffffffffffffffffffffffffffffffffffff1673ffffffffffffffffffffffffffffffffffffffff1673ffffffffffffffffffffffffffffffffffffffff1681526020016000820160149054906101000a900467ffffffffffffffff1667ffffffffffffffff1667ffffffffffffffff16815260200160008201601c9054906101000a900460ff16600381111561238f577f4e487b7100000000000000000000000000000000000000000000000000000000600052602160045260246000fd5b60038111156123c7577f4e487b7100000000000000000000000000000000000000000000000000000000600052602160045260246000fd5b815260200160008201601d9054906101000a900462ffffff1662ffffff1662ffffff16815260200160018201600050805461240190617760565b80601f016020809104026020016040519081016040528092919081815260200182805461242d90617760565b801561247a5780601f1061244f5761010080835404028352916020019161247a565b820191906000526020600020905b81548152906001019060200180831161245d57829003601f168201915b505050505081526020015050828280612492906177bb565b93508151811015156124cd577f4e487b7100000000000000000000000000000000000000000000000000000000600052603260045260246000fd5b6020026020010181905250612272565b505b92915050565b6060600660005060006124ff8460c861266163ffffffff16565b60020b60020b815260200190815260200160002060005080548060200260200160405190810160405280929190818152602001828054801561259457602002820191906000526020600020906000905b82829054906101000a900467ffffffffffffffff1667ffffffffffffffff168152602001906008019060208260070104928301926001038202915080841161254f5790505b505050505090506125a0565b919050565b600060008214156125bb57627fffff9050612635565b600083111515612600576040517f08c379a00000000000000000000000000000000000000000000000000000000081526004016125f790616e7d565b60405180910390fd5b61262e612621612616858561487463ffffffff16565b6148d563ffffffff16565b60c861266163ffffffff16565b9050612635565b92915050565b600360009054906101000a900473ffffffffffffffffffffffffffffffffffffffff1681565b6000600082846126719190617823565b905060008160020b146126b75760008460020b136126a55782818561269691906175f7565b6126a091906175f7565b6126b2565b80846126b191906175f7565b5b6126b9565b835b9150506126c256505b92915050565b60006126d86133ee63ffffffff16565b6703782dace9d9000067ffffffffffffffff168367ffffffffffffffff1611151515612739576040517f08c379a000000000000000000000000000000000000000000000000000000000815260040161273090616fb8565b60405180910390fd5b63ffffffff63ffffffff16600f60009054906101000a900463ffffffff1663ffffffff1610151561276a5760006000fd5b6000600f600081819054906101000a900463ffffffff168092919061278e906177fa565b91906101000a81548163ffffffff021916908363ffffffff16021790555090506040518060a001604052803373ffffffffffffffffffffffffffffffffffffffff1681526020018567ffffffffffffffff1681526020016000600381111561281f577f4e487b7100000000000000000000000000000000000000000000000000000000600052602160045260246000fd5b81526020018462ffffff16815260200160405180602001604052806000815260200150815260200150601060005060008363ffffffff16815260200190815260200160002060005060008201518160000160006101000a81548173ffffffffffffffffffffffffffffffffffffffff021916908373ffffffffffffffffffffffffffffffffffffffff16021790555060208201518160000160146101000a81548167ffffffffffffffff021916908367ffffffffffffffff160217905550604082015181600001601c6101000a81548160ff0219169083600381111561292e577f4e487b7100000000000000000000000000000000000000000000000000000000600052602160045260246000fd5b0217905550606082015181600001601d6101000a81548162ffffff021916908362ffffff1602179055506080820151816001016000509080519060200190612977929190615b96565b509050508262ffffff163373ffffffffffffffffffffffffffffffffffffffff168263ffffffff167f46f1b99a43c800f57b28bd687fe2fc54e883b31ff06b2a6d863d528925059748876040516129ce9190617361565b60405180910390a4809150506129e056505b6129ee6134fa63ffffffff16565b5b92915050565b612a26600360009054906101000a900473ffffffffffffffffffffffffffffffffffffffff16612e3163ffffffff16565b600360006101000a81549073ffffffffffffffffffffffffffffffffffffffff0219169055612af97f000000000000000000000000000000000000000000000000000000000000000073ffffffffffffffffffffffffffffffffffffffff16639ec5a8946040518163ffffffff1660e01b815260040160206040518083038186803b158015612ab55760006000fd5b505afa158015612aca573d600060003e3d6000fd5b505050506040513d601f19601f82011682018060405250810190612aee9190616130565b61466763ffffffff16565b5b565b600f60009054906101000a900463ffffffff1681565b612b1a615cb0565b612b2982614ce963ffffffff16565b905080506000816020015161ffff16111515612b7a576040517f08c379a0000000000000000000000000000000000000000000000000000000008152600401612b7190616e3e565b60405180910390fd5b600081610120015163ffffffff161115612c71576010600050600082610120015163ffffffff16815260200190815260200160002060005060000160149054906101000a900467ffffffffffffffff1681610160019067ffffffffffffffff16908167ffffffffffffffff16815260200150506010600050600082610120015163ffffffff16815260200190815260200160002060005060000160009054906101000a900473ffffffffffffffffffffffffffffffffffffffff1681610140019073ffffffffffffffffffffffffffffffffffffffff16908173ffffffffffffffffffffffffffffffffffffffff16815260200150505b7f000000000000000000000000000000000000000000000000000000000000000073ffffffffffffffffffffffffffffffffffffffff166399fbab88836040518263ffffffff1660e01b8152600401612cca919061731e565b6101806040518083038186803b158015612ce45760006000fd5b505afa158015612cf9573d600060003e3d6000fd5b505050506040513d601f19601f82011682018060405250810190612d1d919061670a565b909192939495969798999a509091929394959697989950909192939495969798509091929394959697509091929394959650909192509091509050508360e00184610100018560a0018390906fffffffffffffffffffffffffffffffff166fffffffffffffffffffffffffffffffff1681526020015083909060020b60020b81526020015083909060020b60020b8152602001505050505b919050565b600560019054906101000a900460ff1681565b600070010000000000000000000000000000000082101515612e24576040517f08c379a0000000000000000000000000000000000000000000000000000000008152600401612e1b90616efb565b60405180910390fd5b819050612e2c565b919050565b612e6e8173ffffffffffffffffffffffffffffffffffffffff163373ffffffffffffffffffffffffffffffffffffffff161461482e63ffffffff16565b5b50565b612e7a615a9a565b60006008600050604051806080016040529081600082016000505481526020016001820160009054906101000a90046fffffffffffffffffffffffffffffffff166fffffffffffffffffffffffffffffffff166fffffffffffffffffffffffffffffffff1681526020016001820160109054906101000a90046fffffffffffffffffffffffffffffffff166fffffffffffffffffffffffffffffffff166fffffffffffffffffffffffffffffffff1681526020016002820160009054906101000a90046fffffffffffffffffffffffffffffffff166fffffffffffffffffffffffffffffffff166fffffffffffffffffffffffffffffffff16815260200150509050604051806080016040528082602001516fffffffffffffffffffffffffffffffff16815260200182606001516fffffffffffffffffffffffffffffffff1681526020018260000151815260200182604001516fffffffffffffffffffffffffffffffff16815260200150915050612fef56505b90565b61304f7f000000000000000000000000000000000000000000000000000000000000000073ffffffffffffffffffffffffffffffffffffffff163373ffffffffffffffffffffffffffffffffffffffff161461482e63ffffffff16565b5b565b61305a615ac5565b6000600460005060008467ffffffffffffffff1667ffffffffffffffff16815260200190815260200160002060005060405180610160016040529081600082016000505481526020016001820160009054906101000a90046fffffffffffffffffffffffffffffffff166fffffffffffffffffffffffffffffffff166fffffffffffffffffffffffffffffffff1681526020016001820160109054906101000a90046fffffffffffffffffffffffffffffffff166fffffffffffffffffffffffffffffffff166fffffffffffffffffffffffffffffffff1681526020016002820160009054906101000a90046fffffffffffffffffffffffffffffffff166fffffffffffffffffffffffffffffffff166fffffffffffffffffffffffffffffffff1681526020016002820160109054906101000a90046fffffffffffffffffffffffffffffffff166fffffffffffffffffffffffffffffffff166fffffffffffffffffffffffffffffffff1681526020016003820160009054906101000a900467ffffffffffffffff1667ffffffffffffffff1667ffffffffffffffff1681526020016003820160089054906101000a900467ffffffffffffffff1667ffffffffffffffff1667ffffffffffffffff1681526020016003820160109054906101000a900460020b60020b60020b81526020016003820160139054906101000a900460ff161515151581526020016003820160149054906101000a900467ffffffffffffffff1667ffffffffffffffff1667ffffffffffffffff16815260200160038201601c9054906101000a900463ffffffff1663ffffffff1663ffffffff16815260200150509050604051806101a001604052808260000151815260200182602001516fffffffffffffffffffffffffffffffff16815260200182604001516fffffffffffffffffffffffffffffffff16815260200182606001516fffffffffffffffffffffffffffffffff16815260200182608001516fffffffffffffffffffffffffffffffff1681526020018260a0015167ffffffffffffffff1681526020018260c0015167ffffffffffffffff1681526020018260e0015160020b81526020018261010001511515815260200182610120015167ffffffffffffffff16815260200182610140015163ffffffff168152602001600073ffffffffffffffffffffffffffffffffffffffff168152602001600067ffffffffffffffff168152602001509150506133e956505b919050565b600260026000505414151515613439576040517f08c379a000000000000000000000000000000000000000000000000000000000815260040161343090616c9e565b60405180910390fd5b600260026000508190909055505b565b6134f77f000000000000000000000000000000000000000000000000000000000000000073ffffffffffffffffffffffffffffffffffffffff16639ec5a8946040518163ffffffff1660e01b815260040160206040518083038186803b1580156134b35760006000fd5b505afa1580156134c8573d600060003e3d6000fd5b505050506040513d601f19601f820116820180604052508101906134ec9190616130565b612e3163ffffffff16565b5b565b600160026000508190909055505b565b60006000836001016000506000846fffffffffffffffffffffffffffffffff166fffffffffffffffffffffffffffffffff1681526020019081526020016000206000505490506000811415156137b157600060018261356991906176de565b905060006001866000016000508054905061358491906176de565b9050600086600001600050828154811015156135c9577f4e487b7100000000000000000000000000000000000000000000000000000000600052603260045260246000fd5b90600052602060002090600291828204019190066010025b9054906101000a90046fffffffffffffffffffffffffffffffff169050808760000160005084815481101515613640577f4e487b7100000000000000000000000000000000000000000000000000000000600052603260045260246000fd5b90600052602060002090600291828204019190066010025b6101000a8154816fffffffffffffffffffffffffffffffff02191690836fffffffffffffffffffffffffffffffff16021790555060018361369991906174b5565b876001016000506000836fffffffffffffffffffffffffffffffff166fffffffffffffffffffffffffffffffff16815260200190815260200160002060005081909090555086600001600050805480151561371d577f4e487b7100000000000000000000000000000000000000000000000000000000600052603160045260246000fd5b60019003818190600052602060002090600291828204019190066010025b6101000a8154906fffffffffffffffffffffffffffffffff02191690559055866001016000506000876fffffffffffffffffffffffffffffffff166fffffffffffffffffffffffffffffffff1681526020019081526020016000206000506000905560019450505050506137bd565050506137bb565b60009150506137bd565b505b92915050565b7f000000000000000000000000000000000000000000000000000000000000000073ffffffffffffffffffffffffffffffffffffffff16637c114fed336040518263ffffffff1660e01b815260040161381c919061691a565b60006040518083038186803b1580156138355760006000fd5b505afa15801561384a573d600060003e3d6000fd5b505050505b565b613859615ac5565b6000600460005060008567ffffffffffffffff1667ffffffffffffffff16815260200190815260200160002060005060030160139054906101000a900460ff1690506000816138ab57627fffff6138ea565b600460005060008667ffffffffffffffff1667ffffffffffffffff16815260200190815260200160002060005060030160109054906101000a900460020b5b90506000600460005060008767ffffffffffffffff1667ffffffffffffffff16815260200190815260200160002060005060030160149054906101000a900467ffffffffffffffff169050600061394f866020015187604001516125a563ffffffff16565b90508060020b8360020b141515613c8657808660e0019060020b908160020b815260200150506000627fffff60020b8460020b1215613bac57600660005060008560020b60020b81526020019081526020016000206000509050805060006139ce600183805490506139c191906176de565b614f7f909063ffffffff16565b90508067ffffffffffffffff168467ffffffffffffffff16141515613b3c576000828267ffffffffffffffff16815481101515613a34577f4e487b7100000000000000000000000000000000000000000000000000000000600052603260045260246000fd5b90600052602060002090600491828204019190066008025b9054906101000a900467ffffffffffffffff16905080838667ffffffffffffffff16815481101515613aa7577f4e487b7100000000000000000000000000000000000000000000000000000000600052603260045260246000fd5b90600052602060002090600491828204019190066008025b6101000a81548167ffffffffffffffff021916908367ffffffffffffffff16021790555084600460005060008367ffffffffffffffff1667ffffffffffffffff16815260200190815260200160002060005060030160146101000a81548167ffffffffffffffff021916908367ffffffffffffffff160217905550505b818054801515613b75577f4e487b7100000000000000000000000000000000000000000000000000000000600052603160045260246000fd5b60019003818190600052602060002090600491828204019190066008025b6101000a81549067ffffffffffffffff02191690559055505b627fffff60020b8260020b1215613c8457600660005060008360020b60020b815260200190815260200160002060005090508050613bf58180549050614f7f909063ffffffff16565b87610120019067ffffffffffffffff16908167ffffffffffffffff1681526020015050600187610100019015159081151581526020015050808890806001815401808255809150506001900390600052602060002090600491828204019190066008025b9091909190916101000a81548167ffffffffffffffff021916908367ffffffffffffffff1602179055505b505b85945050505050613c9656505050505b92915050565b60405180610160016040528082600001518152602001613cc78360200151612dcd909063ffffffff16565b6fffffffffffffffffffffffffffffffff168152602001613cf38360400151612dcd909063ffffffff16565b6fffffffffffffffffffffffffffffffff168152602001613d1f8360600151612dcd909063ffffffff16565b6fffffffffffffffffffffffffffffffff168152602001613d4b8360800151612dcd909063ffffffff16565b6fffffffffffffffffffffffffffffffff1681526020018260a0015167ffffffffffffffff1681526020018260c0015167ffffffffffffffff1681526020018260e0015160020b81526020018261010001511515815260200182610120015167ffffffffffffffff16815260200182610140015163ffffffff16815260200150600460005060008467ffffffffffffffff1667ffffffffffffffff16815260200190815260200160002060005060008201518160000160005090905560208201518160010160006101000a8154816fffffffffffffffffffffffffffffffff02191690836fffffffffffffffffffffffffffffffff16021790555060408201518160010160106101000a8154816fffffffffffffffffffffffffffffffff02191690836fffffffffffffffffffffffffffffffff16021790555060608201518160020160006101000a8154816fffffffffffffffffffffffffffffffff02191690836fffffffffffffffffffffffffffffffff16021790555060808201518160020160106101000a8154816fffffffffffffffffffffffffffffffff02191690836fffffffffffffffffffffffffffffffff16021790555060a08201518160030160006101000a81548167ffffffffffffffff021916908367ffffffffffffffff16021790555060c08201518160030160086101000a81548167ffffffffffffffff021916908367ffffffffffffffff16021790555060e08201518160030160106101000a81548162ffffff021916908360020b62ffffff1602179055506101008201518160030160136101000a81548160ff0219169083151502179055506101208201518160030160146101000a81548167ffffffffffffffff021916908367ffffffffffffffff16021790555061014082015181600301601c6101000a81548163ffffffff021916908363ffffffff1602179055509050505b5050565b60008273ffffffffffffffffffffffffffffffffffffffff1682600067ffffffffffffffff811115614065577f4e487b7100000000000000000000000000000000000000000000000000000000600052604160045260246000fd5b6040519080825280601f01601f1916602001820160405280156140975781602001600182028036833780820191505090505b506040516140a591906168fb565b60006040518083038185875af1925050503d80600081146140e2576040519150601f19603f3d011682016040523d82523d6000602084013e6140e7565b606091505b5050905080151561412d576040517f08c379a000000000000000000000000000000000000000000000000000000000815260040161412490616cdd565b60405180910390fd5b505b5050565b6000600060006000198587098587029250828110838203039150506000811415614176576000841115156141675760006000fd5b83820492508292505050614250565b80841115156141855760006000fd5b60008486880990508281118203915080830392506000856001877fffffffffffffffffffffffffffffffffffffffffffffffffffffffffffffffff03011690508050808604955080840493506001818260000304019050808302841793508350600060028760030218905080870260020381029050805080870260020381029050805080870260020381029050805080870260020381029050805080870260020381029050805080870260020381029050805080850295508550508494505050505061425056505050505b9392505050565b6142be61426b82612dcd909063ffffffff16565b600e60005060008573ffffffffffffffffffffffffffffffffffffffff1673ffffffffffffffffffffffffffffffffffffffff168152602001908152602001600020600050614fdb90919063ffffffff16565b505b5050565b6040518060800160405280826040015181526020016142ee8360000151612dcd909063ffffffff16565b6fffffffffffffffffffffffffffffffff16815260200161431a8360600151612dcd909063ffffffff16565b6fffffffffffffffffffffffffffffffff1681526020016143468360200151612dcd909063ffffffff16565b6fffffffffffffffffffffffffffffffff16815260200150600860005060008201518160000160005090905560208201518160010160006101000a8154816fffffffffffffffffffffffffffffffff02191690836fffffffffffffffffffffffffffffffff16021790555060408201518160010160106101000a8154816fffffffffffffffffffffffffffffffff02191690836fffffffffffffffffffffffffffffffff16021790555060608201518160020160006101000a8154816fffffffffffffffffffffffffffffffff02191690836fffffffffffffffffffffffffffffffff1602179055509050505b50565b6040518060e00160405280826000015173ffffffffffffffffffffffffffffffffffffffff168152602001826020015161ffff16815260200182610120015163ffffffff1681526020018260400151815260200161449f83606001516150cc909063ffffffff16565b75ffffffffffffffffffffffffffffffffffffffffffff1681526020016144db8360c0015167ffffffffffffffff16615136909063ffffffff16565b64ffffffffff1681526020016144fc8360800151615136909063ffffffff16565b64ffffffffff16815260200150600c600050600084815260200190815260200160002060005060008201518160000160006101000a81548173ffffffffffffffffffffffffffffffffffffffff021916908373ffffffffffffffffffffffffffffffffffffffff16021790555060208201518160000160146101000a81548161ffff021916908361ffff16021790555060408201518160000160166101000a81548163ffffffff021916908363ffffffff16021790555060608201518160010160005090905560808201518160020160006101000a81548175ffffffffffffffffffffffffffffffffffffffffffff021916908375ffffffffffffffffffffffffffffffffffffffffffff16021790555060a08201518160020160166101000a81548164ffffffffff021916908364ffffffffff16021790555060c082015181600201601b6101000a81548164ffffffffff021916908364ffffffffff1602179055509050505b5050565b7f000000000000000000000000000000000000000000000000000000000000000073ffffffffffffffffffffffffffffffffffffffff1663a22cb4658260016040518363ffffffff1660e01b81526004016146c3929190616942565b600060405180830381600087803b1580156146de5760006000fd5b505af11580156146f3573d600060003e3d6000fd5b505050505b50565b6147828363a9059cbb60e01b848460405160240161471a929190616973565b604051602081830303815290604052907bffffffffffffffffffffffffffffffffffffffffffffffffffffffff19166020820180517bffffffffffffffffffffffffffffffffffffffffffffffffffffffff838183161783525050505061518f63ffffffff16565b5b505050565b60608160000160005080548060200260200160405190810160405280929190818152602001828054801561481f57602002820191906000526020600020906000905b82829054906101000a90046fffffffffffffffffffffffffffffffff166fffffffffffffffffffffffffffffffff1681526020019060100190602082600f010492830192600103820291508084116147ca5790505b5050505050905080505b919050565b801515614870576040517f08c379a000000000000000000000000000000000000000000000000000000000815260040161486790616dc0565b60405180910390fd5b5b50565b60006148c866010000000000006148b16148a66c0100000000000000000000000086886141339092919063ffffffff16565b61525c63ffffffff16565b6148bb91906175b2565b6152e1909063ffffffff16565b90506148cf565b92915050565b60006401000276a373ffffffffffffffffffffffffffffffffffffffff168273ffffffffffffffffffffffffffffffffffffffff1610158015614957575073fffd8963efd1fc6a506488495d951d5263988d2673ffffffffffffffffffffffffffffffffffffffff168273ffffffffffffffffffffffffffffffffffffffff16105b1515614998576040517f08c379a000000000000000000000000000000000000000000000000000000000815260040161498f906170da565b60405180910390fd5b600060208373ffffffffffffffffffffffffffffffffffffffff16901b905060008190506000600090506fffffffffffffffffffffffffffffffff821160071b808217915082811c92505067ffffffffffffffff821160061b808217915082811c92505063ffffffff821160051b808217915082811c92505061ffff821160041b808217915082811c92505060ff821160031b808217915082811c925050600f821160021b808217915082811c9250506003821160011b808217915082811c92505060018211808217915050608081101515614a8757607f81614a7b91906176de565b83901c91508150614a9c565b80607f614a9491906176de565b83901b915081505b60006040608083614aad9190617661565b901b9050828302607f1c92508260801c80603f1b8217915083811c935050828302607f1c92508260801c80603e1b8217915083811c935050828302607f1c92508260801c80603d1b8217915083811c935050828302607f1c92508260801c80603c1b8217915083811c935050828302607f1c92508260801c80603b1b8217915083811c935050828302607f1c92508260801c80603a1b8217915083811c935050828302607f1c92508260801c8060391b8217915083811c935050828302607f1c92508260801c8060381b8217915083811c935050828302607f1c92508260801c8060371b8217915083811c935050828302607f1c92508260801c8060361b8217915083811c935050828302607f1c92508260801c8060351b8217915083811c935050828302607f1c92508260801c8060341b8217915083811c935050828302607f1c92508260801c8060331b8217915083811c935050828302607f1c92508260801c8060321b82179150506000693627a301d71055774c8582614c3091906174f3565b9050600060806f028f6481ab7f045a5af012a19d003aaa83614c529190617661565b901d9050600060806fdb2df09e81959a81455e260799a0632f84614c769190617438565b901d90508060020b8260020b14614cd6578873ffffffffffffffffffffffffffffffffffffffff16614cad8261534963ffffffff16565b73ffffffffffffffffffffffffffffffffffffffff161115614ccf5781614cd1565b805b614cd8565b815b97508750505050505050505b919050565b614cf1615cb0565b6000600c60005060008481526020019081526020016000206000506040518060e00160405290816000820160009054906101000a900473ffffffffffffffffffffffffffffffffffffffff1673ffffffffffffffffffffffffffffffffffffffff1673ffffffffffffffffffffffffffffffffffffffff1681526020016000820160149054906101000a900461ffff1661ffff1661ffff1681526020016000820160169054906101000a900463ffffffff1663ffffffff1663ffffffff168152602001600182016000505481526020016002820160009054906101000a900475ffffffffffffffffffffffffffffffffffffffffffff1675ffffffffffffffffffffffffffffffffffffffffffff1675ffffffffffffffffffffffffffffffffffffffffffff1681526020016002820160169054906101000a900464ffffffffff1664ffffffffff1664ffffffffff16815260200160028201601b9054906101000a900464ffffffffff1664ffffffffff1664ffffffffff16815260200150509050604051806101800160405280826000015173ffffffffffffffffffffffffffffffffffffffff168152602001826020015161ffff16815260200182606001518152602001826080015175ffffffffffffffffffffffffffffffffffffffffffff1681526020018260c0015164ffffffffff16815260200160006fffffffffffffffffffffffffffffffff1681526020018260a0015164ffffffffff1667ffffffffffffffff168152602001600060020b8152602001600060020b8152602001826040015163ffffffff168152602001600073ffffffffffffffffffffffffffffffffffffffff168152602001600067ffffffffffffffff16815260200150915050614f7a56505b919050565b60006801000000000000000082101515614fce576040517f08c379a0000000000000000000000000000000000000000000000000000000008152600401614fc59061709b565b60405180910390fd5b819050614fd6565b919050565b6000614fed838361586c63ffffffff16565b15156150bc57826000016000508290806001815401808255809150506001900390600052602060002090600291828204019190066010025b9091909190916101000a8154816fffffffffffffffffffffffffffffffff02191690836fffffffffffffffffffffffffffffffff1602179055508260000160005080549050836001016000506000846fffffffffffffffffffffffffffffffff166fffffffffffffffffffffffffffffffff168152602001908152602001600020600050819090905550600190506150c6566150c5565b600090506150c6565b5b92915050565b600076010000000000000000000000000000000000000000000082101515615129576040517f08c379a000000000000000000000000000000000000000000000000000000000815260040161512090616ebc565b60405180910390fd5b819050615131565b919050565b60006501000000000082101515615182576040517f08c379a000000000000000000000000000000000000000000000000000000000815260040161517990616d1c565b60405180910390fd5b81905061518a565b919050565b60006151f4826040518060400160405280602081526020017f5361666545524332303a206c6f772d6c6576656c2063616c6c206661696c65648152602001508573ffffffffffffffffffffffffffffffffffffffff166158bf9092919063ffffffff16565b905060008151111561525657808060200190518101906152149190616095565b1515615255576040517f08c379a000000000000000000000000000000000000000000000000000000000815260040161524c90617036565b60405180910390fd5b5b505b5050565b600060038211156152c95781905080506000600160028461527d91906174d5565b61528791906174b5565b90505b818110156152c357809150815060028182856152a691906174d5565b6152b091906174b5565b6152ba91906174d5565b9050805061528a565b506152db565b6000821415156152da576001905080505b5b5b919050565b6000740100000000000000000000000000000000000000008210151561533c576040517f08c379a000000000000000000000000000000000000000000000000000000000815260040161533390616ff7565b60405180910390fd5b819050615344565b919050565b6000600060008360020b12615361578260020b61536f565b8260020b61536e906178aa565b5b90507ffffffffffffffffffffffffffffffffffffffffffffffffffffffffffff2761861539b90617867565b62ffffff1681111515156153e4576040517f08c379a00000000000000000000000000000000000000000000000000000000081526004016153db90616dff565b60405180910390fd5b600060006001831614156154095770010000000000000000000000000000000061541b565b6ffffcb933bd6fad37aa2d162d1a5940015b70ffffffffffffffffffffffffffffffffff1690506000600283161415156154625760806ffff97272373d413259a46990580e213a8261545b91906175b2565b901c905080505b6000600483161415156154945760806ffff2e50f5f656932ef12357cf3c7fdcc8261548d91906175b2565b901c905080505b6000600883161415156154c65760806fffe5caca7e10e4e61c3624eaa0941cd0826154bf91906175b2565b901c905080505b6000601083161415156154f85760806fffcb9843d60f6159c9db58835c926644826154f191906175b2565b901c905080505b60006020831614151561552a5760806fff973b41fa98c081472e6896dfb254c08261552391906175b2565b901c905080505b60006040831614151561555c5760806fff2ea16466c96a3843ec78b326b528618261555591906175b2565b901c905080505b60006080831614151561558e5760806ffe5dee046a99a2a811c461f1969c30538261558791906175b2565b901c905080505b600061010083161415156155c15760806ffcbe86c7900a88aedcffc83b479aa3a4826155ba91906175b2565b901c905080505b600061020083161415156155f45760806ff987a7253ac413176f2b074cf7815e54826155ed91906175b2565b901c905080505b600061040083161415156156275760806ff3392b0822b70005940c7a398e4b70f38261562091906175b2565b901c905080505b6000610800831614151561565a5760806fe7159475a2c29b7443b29c7fa6e889d98261565391906175b2565b901c905080505b6000611000831614151561568d5760806fd097f3bdfd2022b8845ad8f792aa58258261568691906175b2565b901c905080505b600061200083161415156156c05760806fa9f746462d870fdf8a65dc1f90e061e5826156b991906175b2565b901c905080505b600061400083161415156156f35760806f70d869a156d2a1b890bb3df62baf32f7826156ec91906175b2565b901c905080505b600061800083161415156157265760806f31be135f97d08fd981231505542fcfa68261571f91906175b2565b901c905080505b600062010000831614151561575a5760806f09aa508b5b7a84e1c677de54f3e99bc98261575391906175b2565b901c905080505b600062020000831614151561578d5760806e5d6af8dedb81196699c329225ee6048261578691906175b2565b901c905080505b60006204000083161415156157bf5760806d2216e584f5fa1ea926041bedfe98826157b891906175b2565b901c905080505b60006208000083161415156157ef5760806b048a170391f7dc42444e8fa2826157e891906175b2565b901c905080505b60008460020b131561582c57807fffffffffffffffffffffffffffffffffffffffffffffffffffffffffffffffff61582791906174d5565b905080505b60006401000000008261583f9190617849565b1461584b57600161584e565b60005b60ff16602082901c61586091906174b5565b9250825050505b919050565b60006000836001016000506000846fffffffffffffffffffffffffffffffff166fffffffffffffffffffffffffffffffff16815260200190815260200160002060005054141590506158b9565b92915050565b60606158d484846000856158e263ffffffff16565b90506158db565b9392505050565b6060824710151515615929576040517f08c379a000000000000000000000000000000000000000000000000000000000815260040161592090616d5b565b60405180910390fd5b61593885615a0e63ffffffff16565b1515615979576040517f08c379a000000000000000000000000000000000000000000000000000000000815260040161597090616f79565b60405180910390fd5b600060008673ffffffffffffffffffffffffffffffffffffffff1685876040516159a391906168fb565b60006040518083038185875af1925050503d80600081146159e0576040519150601f19603f3d011682016040523d82523d6000602084013e6159e5565b606091505b50915091506159fb828286615a2863ffffffff16565b92505050615a065650505b949350505050565b60006000823b905060008111915050615a2356505b919050565b60608315615a3c57829050615a9356615a92565b600083511115615a545782518084602001fd50615a91565b816040517f08c379a0000000000000000000000000000000000000000000000000000000008152600401615a889190616c82565b60405180910390fd5b5b5b9392505050565b6040518060800160405280600081526020016000815260200160008152602001600081526020015090565b604051806101a001604052806000815260200160008152602001600081526020016000815260200160008152602001600067ffffffffffffffff168152602001600067ffffffffffffffff168152602001600060020b8152602001600015158152602001600067ffffffffffffffff168152602001600063ffffffff168152602001600073ffffffffffffffffffffffffffffffffffffffff168152602001600067ffffffffffffffff1681526020015090565b604051806040016040528060008152602001600081526020015090565b828054615ba290617760565b90600052602060002090601f016020900481019282615bc45760008555615c10565b82601f10615bdd57805160ff1916838001178555615c10565b82800160010185558215615c10579182015b82811115615c0f5782518260005090905591602001919060010190615bef565b5b509050615c1d9190615d76565b5090565b6040518060a00160405280600073ffffffffffffffffffffffffffffffffffffffff168152602001600067ffffffffffffffff16815260200160006003811115615c94577f4e487b7100000000000000000000000000000000000000000000000000000000600052602160045260246000fd5b8152602001600062ffffff168152602001606081526020015090565b604051806101800160405280600073ffffffffffffffffffffffffffffffffffffffff168152602001600061ffff16815260200160008152602001600081526020016000815260200160006fffffffffffffffffffffffffffffffff168152602001600067ffffffffffffffff168152602001600060020b8152602001600060020b8152602001600063ffffffff168152602001600073ffffffffffffffffffffffffffffffffffffffff168152602001600067ffffffffffffffff1681526020015090565b615d7b565b80821115615d955760008181506000905550600101615d7b565b509056617a0c565b600081359050615dac8161797b565b5b919050565b600081519050615dc18161797b565b5b919050565b600081359050615dd6816179a4565b5b919050565b600081359050615deb816179b9565b5b919050565b600081519050615e00816179b9565b5b919050565b600081359050615e15816179cf565b5b919050565b600081519050615e2a816179cf565b5b919050565b60008135905061ffff811681141515615e495760006000fd5b5b919050565b600081519050615e5e816179f4565b5b919050565b60008135905063ffffffff811681141515615e7f5760006000fd5b5b919050565b60008135905067ffffffffffffffff811681141515615ea45760006000fd5b5b919050565b600060208284031215615ebb578081fd5b8135615ec68161797b565b809150505b92915050565b6000600060408385031215615ee4578081fd5b8235615eef8161797b565b80925050602083013590505b9250929050565b6000600060006000600060808688031215615f1b578081fd5b8535615f268161797b565b809550506020860135615f388161797b565b8094505060408601359250606086013567ffffffffffffffff80821115615f5d578283fd5b818801915088601f8301121515615f72578283fd5b813581811115615f80578384fd5b896020828501011115615f91578384fd5b6020830194508093505050505b9295509295909350565b6000600060408385031215615fbb578182fd5b8235615fc68161797b565b80925050602083013590505b9250929050565b60006020808385031215615feb578182fd5b823567ffffffffffffffff80821115616002578384fd5b818501915085601f8301121515616017578384fd5b81358181111561602a5761602961794a565b5b8060051b915061603b8483016173e1565b8082825285820191508585018987868801011115616057578788fd5b8795505b838610156160845761606c81615e64565b8352868301925086810190505b60018601955061605b565b508096505050505050505b92915050565b6000602082840312156160a6578081fd5b81516160b1816179a4565b809150505b92915050565b6000602082840312156160cd578081fd5b81357fffffffff000000000000000000000000000000000000000000000000000000008116811415156160fe578182fd5b809150505b92915050565b60006020828403121561611a578081fd5b81516161258161797b565b809150505b92915050565b600060208284031215616141578081fd5b815161614c8161797b565b809150505b92915050565b600060208284031215616168578081fd5b81356161738161797b565b809150505b92915050565b600060008284036060811215616192578283fd5b833561619d8161797b565b8093505060407fffffffffffffffffffffffffffffffffffffffffffffffffffffffffffffffe0820112156161d0578182fd5b506040516040810181811067ffffffffffffffff821117156161f5576161f461794a565b5b80604052506020840135815260408401356020820152809150505b9250929050565b600060006040838503121561622a578182fd5b82356162358161797b565b80925050602083013590505b9250929050565b600060208284031215616259578081fd5b8135616264816179b9565b809150505b92915050565b6000600060408385031215616282578182fd5b823561628d816179b9565b80925050602083013561629f816179b9565b809150505b9250929050565b6000608082840312156162bc578081fd5b6040516080810181811067ffffffffffffffff821117156162e0576162df61794a565b5b806040525082358152602083013560208201526040830135604082015260608301356060820152809150505b92915050565b600060208284031215616323578081fd5b813590505b92915050565b60006020828403121561633f578081fd5b815190505b92915050565b600060008284036101a081121561635f578283fd5b83359250610180807fffffffffffffffffffffffffffffffffffffffffffffffffffffffffffffffe083011215616394578283fd5b61639c61737d565b91506163aa60208601615d9d565b82526163b860408601615e30565b6020830152606085013560408301526080850135606083015260a085013560808301526163e760c08601615e06565b60a08301526163f860e08601615e85565b60c083015261010061640b818701615ddc565b60e084015261012061641e818801615ddc565b828501526101409150616432828801615e64565b8185015250610160616445818801615d9d565b82850152616454838801615e85565b81850152505050809150505b9250929050565b600060006040838503121561647a578182fd5b82359150602083013590505b9250929050565b60006000604083850312156164a0578182fd5b6164a983615e64565b915060208084013567ffffffffffffffff808211156164c6578384fd5b818601915086601f83011215156164db578384fd5b8135818111156164ee576164ed61794a565b5b61651e847fffffffffffffffffffffffffffffffffffffffffffffffffffffffffffffffe0601f840116016173e1565b91508082528784828501011115616533578485fd5b808484018584013784848284010152508093505050505b9250929050565b6000600060408385031215616564578182fd5b61656d83615e64565b915061657b60208401615e64565b90505b9250929050565b600060208284031215616596578081fd5b61659f82615e85565b90505b92915050565b600060008284036101c08112156165bd578283fd5b6165c684615e85565b92506101a0807fffffffffffffffffffffffffffffffffffffffffffffffffffffffffffffffe0830112156165f9578283fd5b6166016173af565b91506020850135825260408501356020830152606085013560408301526080850135606083015260a0850135608083015261663e60c08601615e85565b60a083015261664f60e08601615e85565b60c0830152610100616662818701615ddc565b60e0840152610120616675818801615dc7565b828501526101409150616689828801615e85565b818501525061016061669c818801615e64565b8285015261018091506166b0828801615d9d565b81850152506166c0828701615e85565b818401525050809150505b9250929050565b60006000604083850312156166e5578182fd5b6166ee83615e85565b915060208301356166fe816179f4565b809150505b9250929050565b6000600060006000600060006000600060006000600060006101808d8f03121561673257898afd5b8c516bffffffffffffffffffffffff81168114151561674f578a8bfd5b809c505061675f60208e01615db2565b9a5061676d60408e01615db2565b995061677b60608e01615db2565b985061678960808e01615e4f565b975061679760a08e01615df1565b96506167a560c08e01615df1565b95506167b360e08e01615e1b565b94506101008d015193506101208d015192506167d26101408e01615e1b565b91506167e16101608e01615e1b565b90505b9295989b509295989b509295989b565b73ffffffffffffffffffffffffffffffffffffffff8116825250505b565b801515825250505b565b600481101515616855577f4e487b7100000000000000000000000000000000000000000000000000000000600052602160045260246000fd5b80825250505b565b8060020b825250505b565b6000815180845261688081602086016020860161772b565b60207fffffffffffffffffffffffffffffffffffffffffffffffffffffffffffffffe0601f8301168501019150505b92915050565b6fffffffffffffffffffffffffffffffff8116825250505b565b61ffff8116825250505b565b63ffffffff8116825250505b565b67ffffffffffffffff8116825250505b565b6000825161690d81846020870161772b565b8083019150505b92915050565b600060208201905073ffffffffffffffffffffffffffffffffffffffff831682525b92915050565b600060408201905073ffffffffffffffffffffffffffffffffffffffff8416825282151560208301525b9392505050565b600060408201905073ffffffffffffffffffffffffffffffffffffffff841682528260208301525b9392505050565b73ffffffffffffffffffffffffffffffffffffffff8616815267ffffffffffffffff851660208201526169d8604082018561681c565b62ffffff8316606082015260a0608082015260006169f960a0830184616868565b90505b9695505050505050565b60006020808301818452808551808352604092508286019150828160051b870101848801865b83811015616ae0577fffffffffffffffffffffffffffffffffffffffffffffffffffffffffffffffc0898403018552815160a073ffffffffffffffffffffffffffffffffffffffff825116855267ffffffffffffffff89830151168986015287820151616a9b8987018261681c565b50606062ffffff818401511681870152506080808301519250818187015250616ac681860183616868565b94505050868201915086850194505b600181019050616a2c565b505080955050505050505b92915050565b600060208083018184528085518083526040860191508387019250845b81811015616b42576fffffffffffffffffffffffffffffffff8451168352848301925084840193505b600181019050616b0e565b50508093505050505b92915050565b600060208083018184528085518083526040860191508387019250845b81811015616b965763ffffffff8451168352848301925084840193505b600181019050616b6e565b50508093505050505b92915050565b600060208083018184528085518083526040860191508387019250845b81811015616bee5767ffffffffffffffff8451168352848301925084840193505b600181019050616bc2565b50508093505050505b92915050565b600060208201905082151582525b92915050565b60006020820190507fffffffff00000000000000000000000000000000000000000000000000000000831682525b92915050565b600060208201905073ffffffffffffffffffffffffffffffffffffffff831682525b92915050565b60006020820190508260020b82525b92915050565b602081526000616c956020830184616868565b90505b92915050565b60208152600d60208201527f4c43205265656e7472616e637900000000000000000000000000000000000000604082015260006060820190505b919050565b60208152600360208201527f5354450000000000000000000000000000000000000000000000000000000000604082015260006060820190505b919050565b60208152601160208201527f6d6f7265207468616e2034302062697473000000000000000000000000000000604082015260006060820190505b919050565b60208152602660208201527f416464726573733a20696e73756666696369656e742062616c616e636520666f60408201527f722063616c6c0000000000000000000000000000000000000000000000000000606082015260006080820190505b919050565b60208152600e60208201527f4e6f7420417574686f72697a6564000000000000000000000000000000000000604082015260006060820190505b919050565b60208152600160208201527f5400000000000000000000000000000000000000000000000000000000000000604082015260006060820190505b919050565b60208152600c60208201527f506f736974696f6e20444e450000000000000000000000000000000000000000604082015260006060820190505b919050565b60208152601760208201527f4465627420776974686f757420636f6c6c61746572616c000000000000000000604082015260006060820190505b919050565b60208152601260208201527f6d6f7265207468616e2031373620626974730000000000000000000000000000604082015260006060820190505b919050565b60208152601260208201527f6d6f7265207468616e2031323820626974730000000000000000000000000000604082015260006060820190505b919050565b60208152601d60208201527f446f6573206e6f7420616363657074204e465473206469726563746c79000000604082015260006060820190505b919050565b60208152601d60208201527f416464726573733a2063616c6c20746f206e6f6e2d636f6e7472616374000000604082015260006060820190505b919050565b60208152601560208201527f4d6178206b69636b6261636b2065786365656465640000000000000000000000604082015260006060820190505b919050565b60208152601260208201527f6d6f7265207468616e2031363020626974730000000000000000000000000000604082015260006060820190505b919050565b60208152602a60208201527f5361666545524332303a204552433230206f7065726174696f6e20646964206e60408201527f6f74207375636365656400000000000000000000000000000000000000000000606082015260006080820190505b919050565b60208152601160208201527f6d6f7265207468616e2036342062697473000000000000000000000000000000604082015260006060820190505b919050565b60208152600160208201527f5200000000000000000000000000000000000000000000000000000000000000604082015260006060820190505b919050565b60006101a082019050825182526020830151602083015260408301516040830152606083015160608301526080830151608083015260a083015161716060a08401826168e9565b5060c083015161717360c08401826168e9565b5060e083015161718660e084018261685d565b506101008084015161719a82850182616812565b5050610120808401516171af828501826168e9565b5050610140808401516171c4828501826168db565b5050610160808401516171d9828501826167f4565b5050610180808401516171ee828501826168e9565b50505b92915050565b60006101808201905061720b8284516167f4565b602083015161721d60208401826168cf565b5060408301516040830152606083015160608301526080830151608083015260a083015161724e60a08401826168b5565b5060c083015161726160c08401826168e9565b5060e083015161727460e084018261685d565b50610100808401516172888285018261685d565b50506101208084015161729d828501826168db565b5050610140808401516172b2828501826167f4565b5050610160808401516172c7828501826168e9565b50505b92915050565b600060408201905082518252602083015160208301525b92915050565b6000608082019050825182526020830151602083015260408301516040830152606083015160608301525b92915050565b60006020820190508282525b92915050565b60006040820190508382528260208301525b9392505050565b600060208201905063ffffffff831682525b92915050565b600060208201905067ffffffffffffffff831682525b92915050565b60006040519050610180810181811067ffffffffffffffff821117156173a6576173a561794a565b5b80604052505b90565b600060405190506101a0810181811067ffffffffffffffff821117156173d8576173d761794a565b5b80604052505b90565b600060405190507fffffffffffffffffffffffffffffffffffffffffffffffffffffffffffffffe0601f830116810181811067ffffffffffffffff8211171561742d5761742c61794a565b5b80604052505b919050565b6000808212827f7fffffffffffffffffffffffffffffffffffffffffffffffffffffffffffffff03841381151615617473576174726178e8565b5b827f80000000000000000000000000000000000000000000000000000000000000000384128116156174a8576174a76178e8565b5b5082820190505b92915050565b600082198211156174c9576174c86178e8565b5b82820190505b92915050565b60008215156174e7576174e6617919565b5b82820490505b92915050565b60007f7fffffffffffffffffffffffffffffffffffffffffffffffffffffffffffffff81841382841385830485118282161615617533576175326178e8565b5b7f80000000000000000000000000000000000000000000000000000000000000008487128682058812818416161561756e5761756d6178e8565b5b85871292508782058712848416161561758a576175896178e8565b5b878505871281841616156175a1576175a06178e8565b5b505050505082820290505b92915050565b6000817fffffffffffffffffffffffffffffffffffffffffffffffffffffffffffffffff04831182151516156175eb576175ea6178e8565b5b82820290505b92915050565b60008160020b8360020b828112817fffffffffffffffffffffffffffffffffffffffffffffffffffffffffff8000000183128115161561763a576176396178e8565b5b81627fffff018313811615617652576176516178e8565b5b50808203925050505b92915050565b6000808312837f80000000000000000000000000000000000000000000000000000000000000000183128115161561769c5761769b6178e8565b5b837f7fffffffffffffffffffffffffffffffffffffffffffffffffffffffffffffff0183138116156176d1576176d06178e8565b5b5082820390505b92915050565b6000828210156176f1576176f06178e8565b5b82820390505b92915050565b600063ffffffff80831681851691508181101561771d5761771c6178e8565b5b818103925050505b92915050565b60005b8381101561774a5780820151818401525b60208101905061772e565b83811115617759576000848401525b505050505b565b60008160011c90506001821680151561777a57607f821691505b602082108114156177b4577f4e487b7100000000000000000000000000000000000000000000000000000000600052602260045260246000fd5b505b919050565b60007fffffffffffffffffffffffffffffffffffffffffffffffffffffffffffffffff8214156177ee576177ed6178e8565b5b6001820190505b919050565b600063ffffffff80831681811415617815576178146178e8565b5b60018101925050505b919050565b60008260020b80151561783957617838617919565b5b808360020b079150505b92915050565b600082151561785b5761785a617919565b5b82820690505b92915050565b60008160020b7fffffffffffffffffffffffffffffffffffffffffffffffffffffffffff80000081141561789e5761789d6178e8565b5b8082039150505b919050565b60007f80000000000000000000000000000000000000000000000000000000000000008214156178dd576178dc6178e8565b5b81810390505b919050565b7f4e487b7100000000000000000000000000000000000000000000000000000000600052601160045260246000fd5b565b7f4e487b7100000000000000000000000000000000000000000000000000000000600052601260045260246000fd5b565b7f4e487b7100000000000000000000000000000000000000000000000000000000600052604160045260246000fd5b565b73ffffffffffffffffffffffffffffffffffffffff8116811415156179a05760006000fd5b505b565b801515811415156179b55760006000fd5b505b565b8060020b811415156179cb5760006000fd5b505b565b6fffffffffffffffffffffffffffffffff8116811415156179f05760006000fd5b505b565b62ffffff811681141515617a085760006000fd5b505b565bfea2646970667358221220f2c31cac1d0bab9c8f967d35855bdb32648338d488f07320acfea25603cda04364736f6c63430008040033",
  "linkReferences": {},
  "deployedLinkReferences": {}
}