{
  "_format": "hh-sol-artifact-1",
  "contractName": "Accounting",
  "sourceName": "contracts/core/storage/Accounting.sol",
  "abi": [
    {
      "inputs": [
        {
          "components": [
            {
              "internalType": "contract IGovernor",
              "name": "Governor",
              "type": "address"
            },
            {
              "internalType": "contract IHue",
              "name": "Hue",
              "type": "address"
            },
            {
              "internalType": "contract INonfungiblePositionManager",
              "name": "NftPositionManager",
              "type": "address"
            }
          ],
          "internalType": "struct IAccounting.ConstructorParams",
          "name": "params",
          "type": "tuple"
        }
      ],
      "stateMutability": "nonpayable",
      "type": "constructor"
    },
    {
      "anonymous": false,
      "inputs": [],
      "name": "DebtPositionIndexingDisabled",
      "type": "event"
    },
    {
      "anonymous": false,
      "inputs": [],
      "name": "PoolPositionIndexingDisabled",
      "type": "event"
    },
    {
      "anonymous": false,
      "inputs": [],
      "name": "Stopped",
      "type": "event"
    },
    {
      "anonymous": false,
      "inputs": [
        {
          "indexed": true,
          "internalType": "uint32",
          "name": "interfaceID",
          "type": "uint32"
        },
        {
          "indexed": true,
          "internalType": "address",
          "name": "kickbackDestination",
          "type": "address"
        },
        {
          "indexed": false,
          "internalType": "string",
          "name": "ipfsHash",
          "type": "string"
        }
      ],
      "name": "UIInitialized",
      "type": "event"
    },
    {
      "anonymous": false,
      "inputs": [
        {
          "indexed": true,
          "internalType": "uint32",
          "name": "interfaceID",
          "type": "uint32"
        },
        {
          "indexed": true,
          "internalType": "address",
          "name": "kickbackDestination",
          "type": "address"
        },
        {
          "indexed": true,
          "internalType": "uint24",
          "name": "tags",
          "type": "uint24"
        },
        {
          "indexed": false,
          "internalType": "uint256",
          "name": "kickbackPortion",
          "type": "uint256"
        }
      ],
      "name": "UIRegistered",
      "type": "event"
    },
    {
      "anonymous": false,
      "inputs": [
        {
          "indexed": false,
          "internalType": "uint32[]",
          "name": "uis",
          "type": "uint32[]"
        }
      ],
      "name": "UIsApproved",
      "type": "event"
    },
    {
      "anonymous": false,
      "inputs": [
        {
          "indexed": false,
          "internalType": "uint32[]",
          "name": "uis",
          "type": "uint32[]"
        }
      ],
      "name": "UIsDisapproved",
      "type": "event"
    },
    {
      "inputs": [],
      "name": "TICK_SPACING",
      "outputs": [
        {
          "internalType": "int24",
          "name": "",
          "type": "int24"
        }
      ],
      "stateMutability": "view",
      "type": "function"
    },
    {
      "inputs": [
        {
          "internalType": "address",
          "name": "owner",
          "type": "address"
        },
        {
          "internalType": "uint256",
          "name": "nftID",
          "type": "uint256"
        }
      ],
      "name": "addPositionToIndex",
      "outputs": [],
      "stateMutability": "nonpayable",
      "type": "function"
    },
    {
      "inputs": [
        {
          "internalType": "uint32[]",
          "name": "ids",
          "type": "uint32[]"
        }
      ],
      "name": "approveUIs",
      "outputs": [],
      "stateMutability": "nonpayable",
      "type": "function"
    },
    {
      "inputs": [],
      "name": "debt",
      "outputs": [
        {
          "internalType": "uint256",
          "name": "",
          "type": "uint256"
        }
      ],
      "stateMutability": "view",
      "type": "function"
    },
    {
      "inputs": [],
      "name": "debtPositionIndexingEnabled",
      "outputs": [
        {
          "internalType": "bool",
          "name": "",
          "type": "bool"
        }
      ],
      "stateMutability": "view",
      "type": "function"
    },
    {
      "inputs": [
        {
          "internalType": "uint256",
          "name": "count",
          "type": "uint256"
        }
      ],
      "name": "decreaseDebt",
      "outputs": [],
      "stateMutability": "nonpayable",
      "type": "function"
    },
    {
      "inputs": [
        {
          "internalType": "contract IUniswapV3Pool",
          "name": "pool",
          "type": "address"
        },
        {
          "internalType": "uint256",
          "name": "liquidity",
          "type": "uint256"
        }
      ],
      "name": "decreasePoolLiquidity",
      "outputs": [],
      "stateMutability": "nonpayable",
      "type": "function"
    },
    {
      "inputs": [
        {
          "internalType": "uint256",
          "name": "nftID",
          "type": "uint256"
        }
      ],
      "name": "deletePoolPosition",
      "outputs": [],
      "stateMutability": "nonpayable",
      "type": "function"
    },
    {
      "inputs": [],
      "name": "deployer",
      "outputs": [
        {
          "internalType": "address",
          "name": "",
          "type": "address"
        }
      ],
      "stateMutability": "view",
      "type": "function"
    },
    {
      "inputs": [
        {
          "internalType": "uint32[]",
          "name": "ids",
          "type": "uint32[]"
        }
      ],
      "name": "disapproveUIs",
      "outputs": [],
      "stateMutability": "nonpayable",
      "type": "function"
    },
    {
      "inputs": [
        {
          "internalType": "uint64",
          "name": "positionID",
          "type": "uint64"
        }
      ],
      "name": "getBasicPositionInfo",
      "outputs": [
        {
          "internalType": "uint256",
          "name": "debtCount",
          "type": "uint256"
        },
        {
          "internalType": "uint256",
          "name": "collateralCount",
          "type": "uint256"
        }
      ],
      "stateMutability": "view",
      "type": "function"
    },
    {
      "inputs": [
        {
          "internalType": "uint256",
          "name": "nftID",
          "type": "uint256"
        }
      ],
      "name": "getPoolPosition",
      "outputs": [
        {
          "components": [
            {
              "internalType": "address",
              "name": "owner",
              "type": "address"
            },
            {
              "internalType": "uint16",
              "name": "poolID",
              "type": "uint16"
            },
            {
              "internalType": "uint256",
              "name": "cumulativeLiquidity",
              "type": "uint256"
            },
            {
              "internalType": "uint256",
              "name": "totalRewards",
              "type": "uint256"
            },
            {
              "internalType": "uint256",
              "name": "lastBlockPositionIncreased",
              "type": "uint256"
            },
            {
              "internalType": "uint128",
              "name": "liquidity",
              "type": "uint128"
            },
            {
              "internalType": "uint64",
              "name": "lastTimeRewarded",
              "type": "uint64"
            },
            {
              "internalType": "int24",
              "name": "tickLower",
              "type": "int24"
            },
            {
              "internalType": "int24",
              "name": "tickUpper",
              "type": "int24"
            },
            {
              "internalType": "uint32",
              "name": "ui",
              "type": "uint32"
            },
            {
              "internalType": "address",
              "name": "kickbackDestination",
              "type": "address"
            },
            {
              "internalType": "uint64",
              "name": "kickbackPortion",
              "type": "uint64"
            }
          ],
          "internalType": "struct IAccounting.PoolPosition",
          "name": "pp",
          "type": "tuple"
        }
      ],
      "stateMutability": "view",
      "type": "function"
    },
    {
      "inputs": [
        {
          "internalType": "address",
          "name": "owner",
          "type": "address"
        }
      ],
      "name": "getPoolPositionNftIdsByOwner",
      "outputs": [
        {
          "internalType": "uint128[]",
          "name": "",
          "type": "uint128[]"
        }
      ],
      "stateMutability": "view",
      "type": "function"
    },
    {
      "inputs": [
        {
          "internalType": "uint64",
          "name": "positionID",
          "type": "uint64"
        }
      ],
      "name": "getPosition",
      "outputs": [
        {
          "components": [
            {
              "internalType": "uint256",
              "name": "startCumulativeDebt",
              "type": "uint256"
            },
            {
              "internalType": "uint256",
              "name": "collateral",
              "type": "uint256"
            },
            {
              "internalType": "uint256",
              "name": "debt",
              "type": "uint256"
            },
            {
              "internalType": "uint256",
              "name": "startDebtExchangeRate",
              "type": "uint256"
            },
            {
              "internalType": "uint256",
              "name": "startTCPRewards",
              "type": "uint256"
            },
            {
              "internalType": "uint64",
              "name": "lastTimeUpdated",
              "type": "uint64"
            },
            {
              "internalType": "uint64",
              "name": "lastBorrowTime",
              "type": "uint64"
            },
            {
              "internalType": "int24",
              "name": "tick",
              "type": "int24"
            },
            {
              "internalType": "bool",
              "name": "tickSet",
              "type": "bool"
            },
            {
              "internalType": "uint64",
              "name": "tickIndex",
              "type": "uint64"
            },
            {
              "internalType": "uint32",
              "name": "ui",
              "type": "uint32"
            },
            {
              "internalType": "address",
              "name": "kickbackDestination",
              "type": "address"
            },
            {
              "internalType": "uint64",
              "name": "kickbackPortion",
              "type": "uint64"
            }
          ],
          "internalType": "struct IAccounting.DebtPosition",
          "name": "dp",
          "type": "tuple"
        }
      ],
      "stateMutability": "view",
      "type": "function"
    },
    {
      "inputs": [
        {
          "internalType": "uint16",
          "name": "poolID",
          "type": "uint16"
        }
      ],
      "name": "getRewardStatus",
      "outputs": [
        {
          "components": [
            {
              "internalType": "uint256",
              "name": "totalRewards",
              "type": "uint256"
            },
            {
              "internalType": "uint256",
              "name": "cumulativeLiquidity",
              "type": "uint256"
            }
          ],
          "internalType": "struct IAccounting.RewardStatus",
          "name": "",
          "type": "tuple"
        }
      ],
      "stateMutability": "view",
      "type": "function"
    },
    {
      "inputs": [],
      "name": "getSystemDebtInfo",
      "outputs": [
        {
          "components": [
            {
              "internalType": "uint256",
              "name": "debt",
              "type": "uint256"
            },
            {
              "internalType": "uint256",
              "name": "totalTCPRewards",
              "type": "uint256"
            },
            {
              "internalType": "uint256",
              "name": "cumulativeDebt",
              "type": "uint256"
            },
            {
              "internalType": "uint256",
              "name": "debtExchangeRate",
              "type": "uint256"
            }
          ],
          "internalType": "struct IAccounting.SystemDebtInfo",
          "name": "",
          "type": "tuple"
        }
      ],
      "stateMutability": "view",
      "type": "function"
    },
    {
      "inputs": [
        {
          "internalType": "uint256",
          "name": "collateralCount",
          "type": "uint256"
        },
        {
          "internalType": "uint256",
          "name": "debtCount",
          "type": "uint256"
        }
      ],
      "name": "getTick",
      "outputs": [
        {
          "internalType": "int24",
          "name": "",
          "type": "int24"
        }
      ],
      "stateMutability": "pure",
      "type": "function"
    },
    {
      "inputs": [
        {
          "internalType": "uint32",
          "name": "start",
          "type": "uint32"
        },
        {
          "internalType": "uint32",
          "name": "end",
          "type": "uint32"
        }
      ],
      "name": "getUIs",
      "outputs": [
        {
          "components": [
            {
              "internalType": "address",
              "name": "kickbackDestination",
              "type": "address"
            },
            {
              "internalType": "uint64",
              "name": "kickbackPortion",
              "type": "uint64"
            },
            {
              "internalType": "enum IAccounting.UIGovernanceRating",
              "name": "governanceRating",
              "type": "uint8"
            },
            {
              "internalType": "uint24",
              "name": "tags",
              "type": "uint24"
            },
            {
              "internalType": "string",
              "name": "ipfsHash",
              "type": "string"
            }
          ],
          "internalType": "struct IAccounting.UserInterface[]",
          "name": "uis",
          "type": "tuple[]"
        }
      ],
      "stateMutability": "view",
      "type": "function"
    },
    {
      "inputs": [],
      "name": "governor",
      "outputs": [
        {
          "internalType": "contract IGovernor",
          "name": "",
          "type": "address"
        }
      ],
      "stateMutability": "view",
      "type": "function"
    },
    {
      "inputs": [],
      "name": "hue",
      "outputs": [
        {
          "internalType": "contract IHue",
          "name": "",
          "type": "address"
        }
      ],
      "stateMutability": "view",
      "type": "function"
    },
    {
      "inputs": [
        {
          "internalType": "uint256",
          "name": "count",
          "type": "uint256"
        }
      ],
      "name": "increaseDebt",
      "outputs": [],
      "stateMutability": "nonpayable",
      "type": "function"
    },
    {
      "inputs": [
        {
          "internalType": "uint256",
          "name": "count",
          "type": "uint256"
        }
      ],
      "name": "increaseLentHue",
      "outputs": [],
      "stateMutability": "nonpayable",
      "type": "function"
    },
    {
      "inputs": [
        {
          "internalType": "contract IUniswapV3Pool",
          "name": "pool",
          "type": "address"
        },
        {
          "internalType": "uint256",
          "name": "liquidity",
          "type": "uint256"
        }
      ],
      "name": "increasePoolLiquidity",
      "outputs": [],
      "stateMutability": "nonpayable",
      "type": "function"
    },
    {
      "inputs": [],
      "name": "init",
      "outputs": [],
      "stateMutability": "nonpayable",
      "type": "function"
    },
    {
      "inputs": [
        {
          "internalType": "uint32",
          "name": "interfaceID",
          "type": "uint32"
        },
        {
          "internalType": "string",
          "name": "ipfsHash",
          "type": "string"
        }
      ],
      "name": "initializeUI",
      "outputs": [],
      "stateMutability": "nonpayable",
      "type": "function"
    },
    {
      "inputs": [],
      "name": "lentHue",
      "outputs": [
        {
          "internalType": "uint256",
          "name": "",
          "type": "uint256"
        }
      ],
      "stateMutability": "view",
      "type": "function"
    },
    {
      "inputs": [],
      "name": "nextUserInterfaceID",
      "outputs": [
        {
          "internalType": "uint32",
          "name": "",
          "type": "uint32"
        }
      ],
      "stateMutability": "view",
      "type": "function"
    },
    {
      "inputs": [],
      "name": "nftPositionManager",
      "outputs": [
        {
          "internalType": "contract INonfungiblePositionManager",
          "name": "",
          "type": "address"
        }
      ],
      "stateMutability": "view",
      "type": "function"
    },
    {
      "inputs": [
        {
          "internalType": "address",
          "name": "",
          "type": "address"
        },
        {
          "internalType": "address",
          "name": "",
          "type": "address"
        },
        {
          "internalType": "uint256",
          "name": "",
          "type": "uint256"
        },
        {
          "internalType": "bytes",
          "name": "",
          "type": "bytes"
        }
      ],
      "name": "onERC721Received",
      "outputs": [
        {
          "internalType": "bytes4",
          "name": "",
          "type": "bytes4"
        }
      ],
      "stateMutability": "pure",
      "type": "function"
    },
    {
      "inputs": [
        {
          "internalType": "address",
          "name": "newRewards",
          "type": "address"
        }
      ],
      "name": "onRewardsUpgrade",
      "outputs": [],
      "stateMutability": "nonpayable",
      "type": "function"
    },
    {
      "inputs": [
        {
          "internalType": "contract IUniswapV3Pool",
          "name": "",
          "type": "address"
        }
      ],
      "name": "poolLiquidity",
      "outputs": [
        {
          "internalType": "uint256",
          "name": "",
          "type": "uint256"
        }
      ],
      "stateMutability": "view",
      "type": "function"
    },
    {
      "inputs": [],
      "name": "poolPositionIndexingEnabled",
      "outputs": [
        {
          "internalType": "bool",
          "name": "",
          "type": "bool"
        }
      ],
      "stateMutability": "view",
      "type": "function"
    },
    {
      "inputs": [
        {
          "internalType": "int24",
          "name": "tick",
          "type": "int24"
        }
      ],
      "name": "positionsForTick",
      "outputs": [
        {
          "internalType": "uint64[]",
          "name": "",
          "type": "uint64[]"
        }
      ],
      "stateMutability": "view",
      "type": "function"
    },
    {
      "inputs": [
        {
          "internalType": "uint64",
          "name": "kickbackPortion",
          "type": "uint64"
        },
        {
          "internalType": "uint24",
          "name": "tags",
          "type": "uint24"
        }
      ],
      "name": "registerUI",
      "outputs": [
        {
          "internalType": "uint32",
          "name": "",
          "type": "uint32"
        }
      ],
      "stateMutability": "nonpayable",
      "type": "function"
    },
    {
      "inputs": [
        {
          "internalType": "address payable",
          "name": "dest",
          "type": "address"
        },
        {
          "internalType": "uint256",
          "name": "count",
          "type": "uint256"
        }
      ],
      "name": "sendCollateral",
      "outputs": [],
      "stateMutability": "nonpayable",
      "type": "function"
    },
    {
      "inputs": [
        {
          "internalType": "address",
          "name": "dest",
          "type": "address"
        },
        {
          "internalType": "uint256",
          "name": "count",
          "type": "uint256"
        }
      ],
      "name": "sendLentHue",
      "outputs": [],
      "stateMutability": "nonpayable",
      "type": "function"
    },
    {
      "inputs": [
        {
          "internalType": "uint256",
          "name": "nftID",
          "type": "uint256"
        },
        {
          "components": [
            {
              "internalType": "address",
              "name": "owner",
              "type": "address"
            },
            {
              "internalType": "uint16",
              "name": "poolID",
              "type": "uint16"
            },
            {
              "internalType": "uint256",
              "name": "cumulativeLiquidity",
              "type": "uint256"
            },
            {
              "internalType": "uint256",
              "name": "totalRewards",
              "type": "uint256"
            },
            {
              "internalType": "uint256",
              "name": "lastBlockPositionIncreased",
              "type": "uint256"
            },
            {
              "internalType": "uint128",
              "name": "liquidity",
              "type": "uint128"
            },
            {
              "internalType": "uint64",
              "name": "lastTimeRewarded",
              "type": "uint64"
            },
            {
              "internalType": "int24",
              "name": "tickLower",
              "type": "int24"
            },
            {
              "internalType": "int24",
              "name": "tickUpper",
              "type": "int24"
            },
            {
              "internalType": "uint32",
              "name": "ui",
              "type": "uint32"
            },
            {
              "internalType": "address",
              "name": "kickbackDestination",
              "type": "address"
            },
            {
              "internalType": "uint64",
              "name": "kickbackPortion",
              "type": "uint64"
            }
          ],
          "internalType": "struct IAccounting.PoolPosition",
          "name": "pp",
          "type": "tuple"
        }
      ],
      "name": "setPoolPosition",
      "outputs": [],
      "stateMutability": "nonpayable",
      "type": "function"
    },
    {
      "inputs": [
        {
          "internalType": "uint64",
          "name": "positionID",
          "type": "uint64"
        },
        {
          "components": [
            {
              "internalType": "uint256",
              "name": "startCumulativeDebt",
              "type": "uint256"
            },
            {
              "internalType": "uint256",
              "name": "collateral",
              "type": "uint256"
            },
            {
              "internalType": "uint256",
              "name": "debt",
              "type": "uint256"
            },
            {
              "internalType": "uint256",
              "name": "startDebtExchangeRate",
              "type": "uint256"
            },
            {
              "internalType": "uint256",
              "name": "startTCPRewards",
              "type": "uint256"
            },
            {
              "internalType": "uint64",
              "name": "lastTimeUpdated",
              "type": "uint64"
            },
            {
              "internalType": "uint64",
              "name": "lastBorrowTime",
              "type": "uint64"
            },
            {
              "internalType": "int24",
              "name": "tick",
              "type": "int24"
            },
            {
              "internalType": "bool",
              "name": "tickSet",
              "type": "bool"
            },
            {
              "internalType": "uint64",
              "name": "tickIndex",
              "type": "uint64"
            },
            {
              "internalType": "uint32",
              "name": "ui",
              "type": "uint32"
            },
            {
              "internalType": "address",
              "name": "kickbackDestination",
              "type": "address"
            },
            {
              "internalType": "uint64",
              "name": "kickbackPortion",
              "type": "uint64"
            }
          ],
          "internalType": "struct IAccounting.DebtPosition",
          "name": "dp",
          "type": "tuple"
        }
      ],
      "name": "setPosition",
      "outputs": [],
      "stateMutability": "nonpayable",
      "type": "function"
    },
    {
      "inputs": [
        {
          "internalType": "uint16",
          "name": "poolID",
          "type": "uint16"
        },
        {
          "components": [
            {
              "internalType": "uint256",
              "name": "totalRewards",
              "type": "uint256"
            },
            {
              "internalType": "uint256",
              "name": "cumulativeLiquidity",
              "type": "uint256"
            }
          ],
          "internalType": "struct IAccounting.RewardStatus",
          "name": "rs",
          "type": "tuple"
        }
      ],
      "name": "setRewardStatus",
      "outputs": [],
      "stateMutability": "nonpayable",
      "type": "function"
    },
    {
      "inputs": [
        {
          "components": [
            {
              "internalType": "uint256",
              "name": "debt",
              "type": "uint256"
            },
            {
              "internalType": "uint256",
              "name": "totalTCPRewards",
              "type": "uint256"
            },
            {
              "internalType": "uint256",
              "name": "cumulativeDebt",
              "type": "uint256"
            },
            {
              "internalType": "uint256",
              "name": "debtExchangeRate",
              "type": "uint256"
            }
          ],
          "internalType": "struct IAccounting.SystemDebtInfo",
          "name": "_sdi",
          "type": "tuple"
        }
      ],
      "name": "setSystemDebtInfo",
      "outputs": [],
      "stateMutability": "nonpayable",
      "type": "function"
    },
    {
      "inputs": [
        {
          "internalType": "int24",
          "name": "rawTick",
          "type": "int24"
        },
        {
          "internalType": "int24",
          "name": "tickSpacing",
          "type": "int24"
        }
      ],
      "name": "snapRawTickToSpacing",
      "outputs": [
        {
          "internalType": "int24",
          "name": "",
          "type": "int24"
        }
      ],
      "stateMutability": "pure",
      "type": "function"
    },
    {
      "inputs": [],
      "name": "stopIndexingDebtPositions",
      "outputs": [],
      "stateMutability": "nonpayable",
      "type": "function"
    },
    {
      "inputs": [],
      "name": "stopIndexingPoolPositions",
      "outputs": [],
      "stateMutability": "nonpayable",
      "type": "function"
    },
    {
      "inputs": [],
      "name": "stopped",
      "outputs": [
        {
          "internalType": "bool",
          "name": "",
          "type": "bool"
        }
      ],
      "stateMutability": "view",
      "type": "function"
    },
    {
      "inputs": [],
      "name": "sweepHue",
      "outputs": [],
      "stateMutability": "nonpayable",
      "type": "function"
    },
    {
      "inputs": [
        {
          "internalType": "uint256",
          "name": "",
          "type": "uint256"
        }
      ],
      "name": "userInterfaces",
      "outputs": [
        {
          "internalType": "address",
          "name": "kickbackDestination",
          "type": "address"
        },
        {
          "internalType": "uint64",
          "name": "kickbackPortion",
          "type": "uint64"
        },
        {
          "internalType": "enum IAccounting.UIGovernanceRating",
          "name": "governanceRating",
          "type": "uint8"
        },
        {
          "internalType": "uint24",
          "name": "tags",
          "type": "uint24"
        },
        {
          "internalType": "string",
          "name": "ipfsHash",
          "type": "string"
        }
      ],
      "stateMutability": "view",
      "type": "function"
    },
    {
      "inputs": [
        {
          "internalType": "bytes4",
          "name": "",
          "type": "bytes4"
        }
      ],
      "name": "validUpdate",
      "outputs": [
        {
          "internalType": "bool",
          "name": "",
          "type": "bool"
        }
      ],
      "stateMutability": "view",
      "type": "function"
    },
    {
      "stateMutability": "payable",
      "type": "receive"
    }
  ],
  "bytecode": "0x60e0604052600160026000509090556001600560006101000a81548160ff0219169083151502179055506001600560016101000a81548160ff0219169083151502179055506001600f60006101000a81548163ffffffff021916908363ffffffff160217905550348015620000745760006000fd5b5060405162007dba38038062007dba83398181016040528101906200009a919062000471565b5b80600001515b8073ffffffffffffffffffffffffffffffffffffffff1660808173ffffffffffffffffffffffffffffffffffffffff1660601b815260140150505b50806020015173ffffffffffffffffffffffffffffffffffffffff1660c08173ffffffffffffffffffffffffffffffffffffffff1660601b81526014015050806040015173ffffffffffffffffffffffffffffffffffffffff1660a08173ffffffffffffffffffffffffffffffffffffffff1660601b8152601401505062000179670de0b6b3a7640000620003d060201b6200351617909060201c565b600860005060010160106101000a8154816fffffffffffffffffffffffffffffffff02191690836fffffffffffffffffffffffffffffffff16021790555060016001600050600063461054a360e01b7bffffffffffffffffffffffffffffffffffffffffffffffffffffffff19167bffffffffffffffffffffffffffffffffffffffffffffffffffffffff1916815260200190815260200160002060006101000a81548160ff02191690831515021790555060016001600050600063602db56b60e01b7bffffffffffffffffffffffffffffffffffffffffffffffffffffffff19167bffffffffffffffffffffffffffffffffffffffffffffffffffffffff1916815260200190815260200160002060006101000a81548160ff02191690831515021790555060016001600050600063397d359260e01b7bffffffffffffffffffffffffffffffffffffffffffffffffffffffff19167bffffffffffffffffffffffffffffffffffffffffffffffffffffffff1916815260200190815260200160002060006101000a81548160ff021916908315150217905550600160016000506000630b218d2460e01b7bffffffffffffffffffffffffffffffffffffffffffffffffffffffff19167bffffffffffffffffffffffffffffffffffffffffffffffffffffffff1916815260200190815260200160002060006101000a81548160ff02191690831515021790555033600360006101000a81548173ffffffffffffffffffffffffffffffffffffffff021916908373ffffffffffffffffffffffffffffffffffffffff1602179055505b506200050d565b6000700100000000000000000000000000000000821015156200045e576040517f08c379a00000000000000000000000000000000000000000000000000000000081526004018080602001828103825260128152602001807f6d6f7265207468616e203132382062697473000000000000000000000000000081526020015060200191505060405180910390fd5b81905062000467565b919050566200050c565b60006060828403121562000483578081fd5b604051606081018181106001600160401b0382111715620004a057fe5b80604052508251620004b281620004ef565b808252506020830151620004c681620004ef565b806020830152506040830151620004dd81620004ef565b80604083015250809150505b92915050565b6001600160a01b03811681141515620005085760006000fd5b5b50565b5b60805160601c60a05160601c60c05160601c617813620005a76000398061182d528061250652806125bc52806125dd5280612607525080612395528061327b5280614d965250806103145280610d8b5280610f475280611252528061158a528061171e5280611a445280612071528061218352806122985280612407528061305852806133d552806137355280613eeb52506178136000f3fe60806040526004361061030c5760003560e01c80636594da9f1161019a578063c0c899ff116100e1578063dfff5dc41161008a578063f34348f111610064578063f34348f114610c00578063f709960714610c3e578063fd9c749214610c68576103eb565b8063dfff5dc414610b7e578063e1c7392a14610bbc578063e2b1e9e314610bd4576103eb565b8063d159b4ae116100bb578063d159b4ae14610ad6578063d5f3948814610b14578063d99f572614610b40576103eb565b8063c0c899ff14610a30578063c3c837ba14610a5a578063c7711db414610a98576103eb565b80638439788811610143578063b241bbac1161011d578063b241bbac146109b0578063b87e8d58146109da578063bdb2a49614610a18576103eb565b8063843978881461091c578063a135ef1714610948578063a678f33614610986576103eb565b806378efc6b01161017457806378efc6b01461089c5780637f250c61146108c6578063816aaa25146108f2576103eb565b80636594da9f1461080757806375ea13ca1461084657806375f12b2114610870576103eb565b80632a7ba1f71161025e57806346ca626b116102075780635a6beaf4116101e15780635a6beaf41461079b578063602db56b146107c557806362502169146107dd576103eb565b806346ca626b1461070757806351ad51f714610733578063530c1ccb14610771576103eb565b806332374174116102385780633237417414610699578063397d3592146106c5578063461054a3146106ef576103eb565b80632a7ba1f71461061b5780632b7c7b11146106455780632c73f09e1461066f576103eb565b80630f85fc5a116102c0578063150b7a021161029a578063150b7a021461057157806318a15e79146105af57806326879a4e146105f1576103eb565b80630f85fc5a146104cb578063113cf1ab146105095780631428561d14610547576103eb565b80630b218d24116102f15780630b218d24146104495780630c340a24146104735780630dca59c11461049f576103eb565b806306ef2d80146103f1578063092a26c31461041d576103eb565b366103eb575b7f000000000000000000000000000000000000000000000000000000000000000073ffffffffffffffffffffffffffffffffffffffff166380f556056040518163ffffffff1660e01b815260040160206040518083038186803b1580156103795760006000fd5b505afa15801561038e573d600060003e3d6000fd5b505050506040513d601f19601f820116820180604052508101906103b29190616812565b73ffffffffffffffffffffffffffffffffffffffff163373ffffffffffffffffffffffffffffffffffffffff161415156103e857fe5b5b005b60006000fd5b3480156103fe5760006000fd5b50610407610c94565b60405161041491906176a5565b60405180910390f35b34801561042a5760006000fd5b50610433610cb4565b60405161044091906172e4565b60405180910390f35b3480156104565760006000fd5b50610471600480360381019061046c9190616711565b610cc7565b005b3480156104805760006000fd5b50610489610d89565b604051610496919061732c565b60405180910390f35b3480156104ac5760006000fd5b506104b5610dad565b6040516104c291906176d6565b60405180910390f35b3480156104d85760006000fd5b506104f360048036038101906104ee9190616c99565b610df0565b60405161050091906174d1565b60405180910390f35b3480156105165760006000fd5b50610531600480360381019061052c91906167c5565b610f0f565b60405161053e91906172e4565b60405180910390f35b3480156105545760006000fd5b5061056f600480360381019061056a9190616887565b610f34565b005b34801561057e5760006000fd5b506105996004803603810190610594919061663a565b6110d5565b6040516105a691906172f8565b60405180910390f35b3480156105bc5760006000fd5b506105d760048036038101906105d29190616a2c565b61111b565b6040516105e895949392919061708a565b60405180910390f35b3480156105fe5760006000fd5b5061061960048036038101906106149190616a2c565b61123f565b005b3480156106285760006000fd5b50610643600480360381019061063e9190616a2c565b6114b1565b005b3480156106525760006000fd5b5061066d60048036038101906106689190616a2c565b611577565b005b34801561067c5760006000fd5b5061069760048036038101906106929190616a2c565b61170b565b005b3480156106a65760006000fd5b506106af61182b565b6040516106bc9190617354565b60405180910390f35b3480156106d25760006000fd5b506106ed60048036038101906106e89190616711565b61184f565b005b3480156106fc5760006000fd5b50610705611976565b005b3480156107145760006000fd5b5061071d6119cf565b60405161072a91906173a4565b60405180910390f35b3480156107405760006000fd5b5061075b6004803603810190610756919061697b565b6119d4565b6040516107689190617688565b60405180910390f35b34801561077e5760006000fd5b5061079960048036038101906107949190616887565b611a31565b005b3480156107a85760006000fd5b506107c360048036038101906107be9190616cbc565b611bd2565b005b3480156107d25760006000fd5b506107db611dcd565b005b3480156107ea5760006000fd5b5061080560048036038101906108009190616609565b611e26565b005b3480156108145760006000fd5b5061082f600480360381019061082a9190616c99565b611e9e565b60405161083d9291906176e8565b60405180910390f35b3480156108535760006000fd5b5061086e600480360381019061086991906166e0565b612051565b005b34801561087d5760006000fd5b5061088661215d565b60405161089391906172e4565b60405180910390f35b3480156108a95760006000fd5b506108c460048036038101906108bf919061691b565b612170565b005b3480156108d35760006000fd5b506108dc61227c565b6040516108e991906176d6565b60405180910390f35b3480156108ff5760006000fd5b5061091a60048036038101906109159190616a64565b612285565b005b3480156109295760006000fd5b50610932612393565b60405161093f919061737c565b60405180910390f35b3480156109555760006000fd5b50610970600480360381019061096b9190616860565b6123b7565b60405161097d91906176d6565b60405180910390f35b3480156109935760006000fd5b506109ae60048036038101906109a991906165e2565b6123d2565b005b3480156109bd5760006000fd5b506109d860048036038101906109d391906166e0565b6123f4565b005b3480156109e75760006000fd5b50610a0260048036038101906109fd91906165e2565b612546565b604051610a0f91906171d8565b60405180910390f35b348015610a255760006000fd5b50610a2e6125a9565b005b348015610a3d5760006000fd5b50610a586004803603810190610a539190616ba8565b6126db565b005b348015610a675760006000fd5b50610a826004803603810190610a7d9190616c65565b6128a6565b604051610a8f91906170ee565b60405180910390f35b348015610aa55760006000fd5b50610ac06004803603810190610abb91906168b8565b612b15565b604051610acd919061728c565b60405180910390f35b348015610ae35760006000fd5b50610afe6004803603810190610af99190616b82565b612bd5565b604051610b0b91906173a4565b60405180910390f35b348015610b215760006000fd5b50610b2a612c6b565b604051610b379190617009565b60405180910390f35b348015610b4d5760006000fd5b50610b686004803603810190610b6391906168df565b612c91565b604051610b7591906173a4565b60405180910390f35b348015610b8b5760006000fd5b50610ba66004803603810190610ba19190616de7565b612d02565b604051610bb39190617701565b60405180910390f35b348015610bc95760006000fd5b50610bd2612fcf565b005b348015610be15760006000fd5b50610bea613104565b604051610bf79190617701565b60405180910390f35b348015610c0d5760006000fd5b50610c286004803603810190610c239190616a2c565b61311a565b604051610c3591906175af565b60405180910390f35b348015610c4b5760006000fd5b50610c666004803603810190610c61919061699e565b6133c2565b005b348015610c755760006000fd5b50610c7e613503565b604051610c8b91906172e4565b60405180910390f35b610c9c6161ef565b610caa6135b063ffffffff16565b9050610cb1565b90565b600560009054906101000a900460ff1681565b610cd561373063ffffffff16565b6000600090505b8151811015610d4c576003601060005060008484815181101515610cfc57fe5b602002602001015163ffffffff168152602001908152602001600020600050600001601c6101000a81548160ff02191690836003811115610d3957fe5b02179055505b8080600101915050610cdc565b507f7264e0084cbb7692193b834f40153b973ff4f827f8ed45da32ae6d8e486bb0c781604051610d7c9190617238565b60405180910390a15b5b50565b7f000000000000000000000000000000000000000000000000000000000000000081565b6000600860005060010160009054906101000a90046fffffffffffffffffffffffffffffffff166fffffffffffffffffffffffffffffffff169050610ded565b90565b610df861621a565b610e078261379063ffffffff16565b90508050600081610140015163ffffffff161115610f02576010600050600082610140015163ffffffff16815260200190815260200160002060005060000160009054906101000a900473ffffffffffffffffffffffffffffffffffffffff1681610160019073ffffffffffffffffffffffffffffffffffffffff16908173ffffffffffffffffffffffffffffffffffffffff16815260200150506010600050600082610140015163ffffffff16815260200190815260200160002060005060000160149054906101000a900467ffffffffffffffff1681610180019067ffffffffffffffff16908167ffffffffffffffff16815260200150505b809050610f0a565b919050565b600160005060205280600052604060002060009150909054906101000a900460ff1681565b610f42613b2c63ffffffff16565b61101e7f000000000000000000000000000000000000000000000000000000000000000073ffffffffffffffffffffffffffffffffffffffff16639ec5a8946040518163ffffffff1660e01b815260040160206040518083038186803b158015610fac5760006000fd5b505afa158015610fc1573d600060003e3d6000fd5b505050506040513d601f19601f82011682018060405250810190610fe59190616839565b73ffffffffffffffffffffffffffffffffffffffff163373ffffffffffffffffffffffffffffffffffffffff1614613bbd63ffffffff16565b61107681600d60005060008573ffffffffffffffffffffffffffffffffffffffff1673ffffffffffffffffffffffffffffffffffffffff16815260200190815260200160002060005054613c3990919063ffffffff16565b600d60005060008473ffffffffffffffffffffffffffffffffffffffff1673ffffffffffffffffffffffffffffffffffffffff1681526020019081526020016000206000508190909055505b6110d0613cc263ffffffff16565b5b5050565b60006040517f08c379a000000000000000000000000000000000000000000000000000000000815260040161110990617453565b60405180910390fd5b95945050505050565b60106000506020528060005260406000206000915090508060000160009054906101000a900473ffffffffffffffffffffffffffffffffffffffff16908060000160149054906101000a900467ffffffffffffffff169080600001601c9054906101000a900460ff169080600001601d9054906101000a900462ffffff1690806001016000508054600181600116156101000203166002900480601f0160208091040260200160405190810160405280929190818152602001828054600181600116156101000203166002900480156112355780601f1061120a57610100808354040283529160200191611235565b820191906000526020600020905b81548152906001019060200180831161121857829003601f168201915b5050505050905085565b61124d613b2c63ffffffff16565b6113297f000000000000000000000000000000000000000000000000000000000000000073ffffffffffffffffffffffffffffffffffffffff16639ec5a8946040518163ffffffff1660e01b815260040160206040518083038186803b1580156112b75760006000fd5b505afa1580156112cc573d600060003e3d6000fd5b505050506040513d601f19601f820116820180604052508101906112f09190616839565b73ffffffffffffffffffffffffffffffffffffffff163373ffffffffffffffffffffffffffffffffffffffff1614613bbd63ffffffff16565b6113cc61133d82613516909063ffffffff16565b600e6000506000600c600050600086815260200190815260200160002060005060000160009054906101000a900473ffffffffffffffffffffffffffffffffffffffff1673ffffffffffffffffffffffffffffffffffffffff1673ffffffffffffffffffffffffffffffffffffffff168152602001908152602001600020600050613cd290919063ffffffff16565b50600c600050600082815260200190815260200160002060006000820160006101000a81549073ffffffffffffffffffffffffffffffffffffffff02191690556000820160146101000a81549061ffff02191690556000820160166101000a81549063ffffffff021916905560018201600050600090556002820160006101000a81549075ffffffffffffffffffffffffffffffffffffffffffff02191690556002820160166101000a81549064ffffffffff021916905560028201601b6101000a81549064ffffffffff021916905550505b6114ad613cc263ffffffff16565b5b50565b6114bf613b2c63ffffffff16565b6114cd613ee963ffffffff16565b6115266114e182613516909063ffffffff16565b600860005060010160009054906101000a90046fffffffffffffffffffffffffffffffff166fffffffffffffffffffffffffffffffff16613f7790919063ffffffff16565b600860005060010160006101000a8154816fffffffffffffffffffffffffffffffff02191690836fffffffffffffffffffffffffffffffff1602179055505b611573613cc263ffffffff16565b5b50565b611585613b2c63ffffffff16565b6116617f000000000000000000000000000000000000000000000000000000000000000073ffffffffffffffffffffffffffffffffffffffff166380f556056040518163ffffffff1660e01b815260040160206040518083038186803b1580156115ef5760006000fd5b505afa158015611604573d600060003e3d6000fd5b505050506040513d601f19601f820116820180604052508101906116289190616812565b73ffffffffffffffffffffffffffffffffffffffff163373ffffffffffffffffffffffffffffffffffffffff1614613bbd63ffffffff16565b6116ba61167582613516909063ffffffff16565b600860005060010160009054906101000a90046fffffffffffffffffffffffffffffffff166fffffffffffffffffffffffffffffffff1661402490919063ffffffff16565b600860005060010160006101000a8154816fffffffffffffffffffffffffffffffff02191690836fffffffffffffffffffffffffffffffff1602179055505b611707613cc263ffffffff16565b5b50565b611719613b2c63ffffffff16565b6117f57f000000000000000000000000000000000000000000000000000000000000000073ffffffffffffffffffffffffffffffffffffffff166380f556056040518163ffffffff1660e01b815260040160206040518083038186803b1580156117835760006000fd5b505afa158015611798573d600060003e3d6000fd5b505050506040513d601f19601f820116820180604052508101906117bc9190616812565b73ffffffffffffffffffffffffffffffffffffffff163373ffffffffffffffffffffffffffffffffffffffff1614613bbd63ffffffff16565b61180d81600760005054613c3990919063ffffffff16565b60076000508190909055505b611827613cc263ffffffff16565b5b50565b7f000000000000000000000000000000000000000000000000000000000000000081565b61185d61373063ffffffff16565b6000600090505b8151811015611939576000600381111561187a57fe5b60106000506000848481518110151561188f57fe5b602002602001015163ffffffff168152602001908152602001600020600050600001601c9054906101000a900460ff1660038111156118ca57fe5b14151561192b5760026010600050600084848151811015156118e857fe5b602002602001015163ffffffff168152602001908152602001600020600050600001601c6101000a81548160ff0219169083600381111561192557fe5b02179055505b5b8080600101915050611864565b507f2e54370527117fb69828eac075cb3ed33fe59712134dfd3ef6efc9bd8b60c1ec816040516119699190617238565b60405180910390a15b5b50565b61198461373063ffffffff16565b6000600560006101000a81548160ff0219169083151502179055507f262b602ad12e3e551a407d5246b500f4ca5a01cc76bbf03e925db643a62a692f60405160405180910390a15b5b565b60c881565b6119dc6162ce565b600b60005060008361ffff1661ffff168152602001908152602001600020600050604051806040016040529081600082016000505481526020016001820160005054815260200150509050611a2c565b919050565b611a3f613b2c63ffffffff16565b611b1b7f000000000000000000000000000000000000000000000000000000000000000073ffffffffffffffffffffffffffffffffffffffff16639ec5a8946040518163ffffffff1660e01b815260040160206040518083038186803b158015611aa95760006000fd5b505afa158015611abe573d600060003e3d6000fd5b505050506040513d601f19601f82011682018060405250810190611ae29190616839565b73ffffffffffffffffffffffffffffffffffffffff163373ffffffffffffffffffffffffffffffffffffffff1614613bbd63ffffffff16565b611b7381600d60005060008573ffffffffffffffffffffffffffffffffffffffff1673ffffffffffffffffffffffffffffffffffffffff168152602001908152602001600020600050546140d190919063ffffffff16565b600d60005060008473ffffffffffffffffffffffffffffffffffffffff1673ffffffffffffffffffffffffffffffffffffffff1681526020019081526020016000206000508190909055505b611bcd613cc263ffffffff16565b5b5050565b611be0613b2c63ffffffff16565b611bee613ee963ffffffff16565b600560009054906101000a900460ff168015611c15575060008267ffffffffffffffff1614155b15611c2f57611c2a828261415a63ffffffff16565b905080505b60008160200151148015611c47575060008160400151145b15611da857600460005060008367ffffffffffffffff1667ffffffffffffffff168152602001908152602001600020600060008201600050600090556001820160006101000a8154906fffffffffffffffffffffffffffffffff02191690556001820160106101000a8154906fffffffffffffffffffffffffffffffff02191690556002820160006101000a8154906fffffffffffffffffffffffffffffffff02191690556002820160106101000a8154906fffffffffffffffffffffffffffffffff02191690556003820160006101000a81549067ffffffffffffffff02191690556003820160086101000a81549067ffffffffffffffff02191690556003820160106101000a81549062ffffff02191690556003820160136101000a81549060ff02191690556003820160146101000a81549067ffffffffffffffff021916905560038201601c6101000a81549063ffffffff02191690555050611db9565b611db8828261451563ffffffff16565b5b5b611dc8613cc263ffffffff16565b5b5050565b611ddb61373063ffffffff16565b6000600560016101000a81548160ff0219169083151502179055507fc4f6661464541d662c51191d4da5a7a1cc8bca2631698fd030e21b52520a549c60405160405180910390a15b5b565b611e34613b2c63ffffffff16565b611e42613ee963ffffffff16565b8173ffffffffffffffffffffffffffffffffffffffff166108fc829081150290604051600060405180830381858888f19350505050158015611e89573d600060003e3d6000fd5b505b611e99613cc263ffffffff16565b5b5050565b60006000600460005060008467ffffffffffffffff1667ffffffffffffffff16815260200190815260200160002060005060010160109054906101000a90046fffffffffffffffffffffffffffffffff166fffffffffffffffffffffffffffffffff1691508150600460005060008467ffffffffffffffff1667ffffffffffffffff16815260200190815260200160002060005060010160009054906101000a90046fffffffffffffffffffffffffffffffff166fffffffffffffffffffffffffffffffff16905080506000600460005060008567ffffffffffffffff1667ffffffffffffffff16815260200190815260200160002060005060020160009054906101000a90046fffffffffffffffffffffffffffffffff166fffffffffffffffffffffffffffffffff1690506000831480611fda5750600081145b15611feb578282925092505061204c565b6000600860005060010160109054906101000a90046fffffffffffffffffffffffffffffffff166fffffffffffffffffffffffffffffffff1690508082141515612049576120448183866148839092919063ffffffff16565b935083505b50505b915091565b600560019054906101000a900460ff16151561206c57612159565b6121487f000000000000000000000000000000000000000000000000000000000000000073ffffffffffffffffffffffffffffffffffffffff16639ec5a8946040518163ffffffff1660e01b815260040160206040518083038186803b1580156120d65760006000fd5b505afa1580156120eb573d600060003e3d6000fd5b505050506040513d601f19601f8201168201806040525081019061210f9190616839565b73ffffffffffffffffffffffffffffffffffffffff163373ffffffffffffffffffffffffffffffffffffffff1614613bbd63ffffffff16565b612158828261498463ffffffff16565b5b5050565b600060009054906101000a900460ff1681565b61217e613b2c63ffffffff16565b61225a7f000000000000000000000000000000000000000000000000000000000000000073ffffffffffffffffffffffffffffffffffffffff166380f556056040518163ffffffff1660e01b815260040160206040518083038186803b1580156121e85760006000fd5b505afa1580156121fd573d600060003e3d6000fd5b505050506040513d601f19601f820116820180604052508101906122219190616812565b73ffffffffffffffffffffffffffffffffffffffff163373ffffffffffffffffffffffffffffffffffffffff1614613bbd63ffffffff16565b612269816149f163ffffffff16565b5b612278613cc263ffffffff16565b5b50565b60076000505481565b612293613b2c63ffffffff16565b61236f7f000000000000000000000000000000000000000000000000000000000000000073ffffffffffffffffffffffffffffffffffffffff16639ec5a8946040518163ffffffff1660e01b815260040160206040518083038186803b1580156122fd5760006000fd5b505afa158015612312573d600060003e3d6000fd5b505050506040513d601f19601f820116820180604052508101906123369190616839565b73ffffffffffffffffffffffffffffffffffffffff163373ffffffffffffffffffffffffffffffffffffffff1614613bbd63ffffffff16565b61237f8282614b6363ffffffff16565b5b61238e613cc263ffffffff16565b5b5050565b7f000000000000000000000000000000000000000000000000000000000000000081565b600d6000506020528060005260406000206000915090505481565b6123e061373063ffffffff16565b6123ef81614d9463ffffffff16565b5b5b50565b612402613b2c63ffffffff16565b6124de7f000000000000000000000000000000000000000000000000000000000000000073ffffffffffffffffffffffffffffffffffffffff166380f556056040518163ffffffff1660e01b815260040160206040518083038186803b15801561246c5760006000fd5b505afa158015612481573d600060003e3d6000fd5b505050506040513d601f19601f820116820180604052508101906124a59190616812565b73ffffffffffffffffffffffffffffffffffffffff163373ffffffffffffffffffffffffffffffffffffffff1614613bbd63ffffffff16565b6124f6816007600050546140d190919063ffffffff16565b60076000508190909055506125327f00000000000000000000000000000000000000000000000000000000000000008383614e2863ffffffff16565b5b612541613cc263ffffffff16565b5b5050565b606061259d600e60005060008473ffffffffffffffffffffffffffffffffffffffff1673ffffffffffffffffffffffffffffffffffffffff168152602001908152602001600020600050615034909063ffffffff16565b90506125a4565b919050565b6125b7613b2c63ffffffff16565b6126c97f00000000000000000000000000000000000000000000000000000000000000007f00000000000000000000000000000000000000000000000000000000000000006126be6007600050547f000000000000000000000000000000000000000000000000000000000000000073ffffffffffffffffffffffffffffffffffffffff166370a08231306040518263ffffffff1660e01b815260040161265e9190617031565b60206040518083038186803b1580156126775760006000fd5b505afa15801561268c573d600060003e3d6000fd5b505050506040513d601f19601f820116820180604052508101906126b09190616a48565b6140d190919063ffffffff16565b614e2863ffffffff16565b5b6126d8613cc263ffffffff16565b5b565b6126e9613b2c63ffffffff16565b6127683373ffffffffffffffffffffffffffffffffffffffff16601060005060008563ffffffff16815260200190815260200160002060005060000160009054906101000a900473ffffffffffffffffffffffffffffffffffffffff1673ffffffffffffffffffffffffffffffffffffffff1614613bbd63ffffffff16565b6127bf6000600381111561277857fe5b601060005060008563ffffffff168152602001908152602001600020600050600001601c9054906101000a900460ff1660038111156127b357fe5b14613bbd63ffffffff16565b6001601060005060008463ffffffff168152602001908152602001600020600050600001601c6101000a81548160ff021916908360038111156127fe57fe5b021790555080601060005060008463ffffffff168152602001908152602001600020600050600101600050908051906020019061283c9291906162eb565b503373ffffffffffffffffffffffffffffffffffffffff168263ffffffff167fec673006d787a8f7beffb5435d65c9380768a511390c957f84092e507033f2188360405161288a91906173b9565b60405180910390a35b6128a1613cc263ffffffff16565b5b5050565b60608163ffffffff168363ffffffff161015156128c35760006000fd5b82820363ffffffff1667ffffffffffffffff811180156128e35760006000fd5b5060405190808252806020026020018201604052801561291d57816020015b61290a61637e565b8152602001906001900390816129025790505b509050805060005b8263ffffffff168463ffffffff161015612b0d57601060005060008580600101965063ffffffff1681526020019081526020016000206000506040518060a00160405290816000820160009054906101000a900473ffffffffffffffffffffffffffffffffffffffff1673ffffffffffffffffffffffffffffffffffffffff1673ffffffffffffffffffffffffffffffffffffffff1681526020016000820160149054906101000a900467ffffffffffffffff1667ffffffffffffffff1667ffffffffffffffff16815260200160008201601c9054906101000a900460ff166003811115612a0f57fe5b6003811115612a1a57fe5b815260200160008201601d9054906101000a900462ffffff1662ffffff1662ffffff168152602001600182016000508054600181600116156101000203166002900480601f016020809104026020016040519081016040528092919081815260200182805460018160011615610100020316600290048015612add5780601f10612ab257610100808354040283529160200191612add565b820191906000526020600020905b815481529060010190602001808311612ac057829003601f168201915b5050505050815260200150508282806001019350815181101515612afd57fe5b6020026020010181905250612925565b505b92915050565b606060066000506000612b2f8460c8612c9163ffffffff16565b60020b60020b8152602001908152602001600020600050805480602002602001604051908101604052809291908181526020018280548015612bc457602002820191906000526020600020906000905b82829054906101000a900467ffffffffffffffff1667ffffffffffffffff1681526020019060080190602082600701049283019260010382029150808411612b7f5790505b50505050509050612bd0565b919050565b60006000821415612beb57627fffff9050612c65565b600083111515612c30576040517f08c379a0000000000000000000000000000000000000000000000000000000008152600401612c2790617414565b60405180910390fd5b612c5e612c51612c4685856150da63ffffffff16565b61514263ffffffff16565b60c8612c9163ffffffff16565b9050612c65565b92915050565b600360009054906101000a900473ffffffffffffffffffffffffffffffffffffffff1681565b600060008360020b905060008360020b82811515612cab57fe5b0790506000811415612cc1578492505050612cfc565b600060008313612cd8578460020b82840303612cdc565b8183035b9050612cef81615556909063ffffffff16565b9350505050612cfc565050505b92915050565b6000612d12613b2c63ffffffff16565b6703782dace9d9000067ffffffffffffffff168367ffffffffffffffff1611151515612d73576040517f08c379a0000000000000000000000000000000000000000000000000000000008152600401612d6a90617492565b60405180910390fd5b63ffffffff63ffffffff16600f60009054906101000a900463ffffffff1663ffffffff16101515612da45760006000fd5b6000600f600081819054906101000a900463ffffffff168092919060010191906101000a81548163ffffffff021916908363ffffffff16021790555090506040518060a001604052803373ffffffffffffffffffffffffffffffffffffffff1681526020018567ffffffffffffffff16815260200160006003811115612e2657fe5b81526020018462ffffff16815260200160405180602001604052806000815260200150815260200150601060005060008363ffffffff16815260200190815260200160002060005060008201518160000160006101000a81548173ffffffffffffffffffffffffffffffffffffffff021916908373ffffffffffffffffffffffffffffffffffffffff16021790555060208201518160000160146101000a81548167ffffffffffffffff021916908367ffffffffffffffff160217905550604082015181600001601c6101000a81548160ff02191690836003811115612f0857fe5b0217905550606082015181600001601d6101000a81548162ffffff021916908362ffffff1602179055506080820151816001016000509080519060200190612f519291906162eb565b509050508262ffffff163373ffffffffffffffffffffffffffffffffffffffff168263ffffffff167f46f1b99a43c800f57b28bd687fe2fc54e883b31ff06b2a6d863d52892505974887604051612fa89190617719565b60405180910390a480915050612fba56505b612fc8613cc263ffffffff16565b5b92915050565b61302e600360009054906101000a900473ffffffffffffffffffffffffffffffffffffffff1673ffffffffffffffffffffffffffffffffffffffff163373ffffffffffffffffffffffffffffffffffffffff1614613bbd63ffffffff16565b600360006101000a81549073ffffffffffffffffffffffffffffffffffffffff02191690556131017f000000000000000000000000000000000000000000000000000000000000000073ffffffffffffffffffffffffffffffffffffffff16639ec5a8946040518163ffffffff1660e01b815260040160206040518083038186803b1580156130bd5760006000fd5b505afa1580156130d2573d600060003e3d6000fd5b505050506040513d601f19601f820116820180604052508101906130f69190616839565b614d9463ffffffff16565b5b565b600f60009054906101000a900463ffffffff1681565b6131226163e0565b6131318261560e63ffffffff16565b905080506000816020015161ffff16111515613182576040517f08c379a0000000000000000000000000000000000000000000000000000000008152600401613179906173d5565b60405180910390fd5b600081610120015163ffffffff161115613279576010600050600082610120015163ffffffff16815260200190815260200160002060005060000160149054906101000a900467ffffffffffffffff1681610160019067ffffffffffffffff16908167ffffffffffffffff16815260200150506010600050600082610120015163ffffffff16815260200190815260200160002060005060000160009054906101000a900473ffffffffffffffffffffffffffffffffffffffff1681610140019073ffffffffffffffffffffffffffffffffffffffff16908173ffffffffffffffffffffffffffffffffffffffff16815260200150505b7f000000000000000000000000000000000000000000000000000000000000000073ffffffffffffffffffffffffffffffffffffffff166399fbab88836040518263ffffffff1660e01b81526004016132d291906176d6565b6101806040518083038186803b1580156132ec5760006000fd5b505afa158015613301573d600060003e3d6000fd5b505050506040513d601f19601f820116820180604052508101906133259190616e1f565b909192939495969798999a509091929394959697989950909192939495969798509091929394959697509091929394959650909192509091509050508360e00184610100018560a0018390906fffffffffffffffffffffffffffffffff166fffffffffffffffffffffffffffffffff1681526020015083909060020b60020b81526020015083909060020b60020b8152602001505050505b919050565b6133d0613b2c63ffffffff16565b6134ac7f000000000000000000000000000000000000000000000000000000000000000073ffffffffffffffffffffffffffffffffffffffff16639ec5a8946040518163ffffffff1660e01b815260040160206040518083038186803b15801561343a5760006000fd5b505afa15801561344f573d600060003e3d6000fd5b505050506040513d601f19601f820116820180604052508101906134739190616839565b73ffffffffffffffffffffffffffffffffffffffff163373ffffffffffffffffffffffffffffffffffffffff1614613bbd63ffffffff16565b80600b60005060008461ffff1661ffff1681526020019081526020016000206000506000820151816000016000509090556020820151816001016000509090559050505b6134fe613cc263ffffffff16565b5b5050565b600560019054906101000a900460ff1681565b6000700100000000000000000000000000000000821015156135a3576040517f08c379a00000000000000000000000000000000000000000000000000000000081526004018080602001828103825260128152602001807f6d6f7265207468616e203132382062697473000000000000000000000000000081526020015060200191505060405180910390fd5b8190506135ab565b919050565b6135b86161ef565b60006008600050604051806080016040529081600082016000505481526020016001820160009054906101000a90046fffffffffffffffffffffffffffffffff166fffffffffffffffffffffffffffffffff166fffffffffffffffffffffffffffffffff1681526020016001820160109054906101000a90046fffffffffffffffffffffffffffffffff166fffffffffffffffffffffffffffffffff166fffffffffffffffffffffffffffffffff1681526020016002820160009054906101000a90046fffffffffffffffffffffffffffffffff166fffffffffffffffffffffffffffffffff166fffffffffffffffffffffffffffffffff16815260200150509050604051806080016040528082602001516fffffffffffffffffffffffffffffffff16815260200182606001516fffffffffffffffffffffffffffffffff1681526020018260000151815260200182604001516fffffffffffffffffffffffffffffffff1681526020015091505061372d56505b90565b61378d7f000000000000000000000000000000000000000000000000000000000000000073ffffffffffffffffffffffffffffffffffffffff163373ffffffffffffffffffffffffffffffffffffffff1614613bbd63ffffffff16565b5b565b61379861621a565b6000600460005060008467ffffffffffffffff1667ffffffffffffffff16815260200190815260200160002060005060405180610160016040529081600082016000505481526020016001820160009054906101000a90046fffffffffffffffffffffffffffffffff166fffffffffffffffffffffffffffffffff166fffffffffffffffffffffffffffffffff1681526020016001820160109054906101000a90046fffffffffffffffffffffffffffffffff166fffffffffffffffffffffffffffffffff166fffffffffffffffffffffffffffffffff1681526020016002820160009054906101000a90046fffffffffffffffffffffffffffffffff166fffffffffffffffffffffffffffffffff166fffffffffffffffffffffffffffffffff1681526020016002820160109054906101000a90046fffffffffffffffffffffffffffffffff166fffffffffffffffffffffffffffffffff166fffffffffffffffffffffffffffffffff1681526020016003820160009054906101000a900467ffffffffffffffff1667ffffffffffffffff1667ffffffffffffffff1681526020016003820160089054906101000a900467ffffffffffffffff1667ffffffffffffffff1667ffffffffffffffff1681526020016003820160109054906101000a900460020b60020b60020b81526020016003820160139054906101000a900460ff161515151581526020016003820160149054906101000a900467ffffffffffffffff1667ffffffffffffffff1667ffffffffffffffff16815260200160038201601c9054906101000a900463ffffffff1663ffffffff1663ffffffff16815260200150509050604051806101a001604052808260000151815260200182602001516fffffffffffffffffffffffffffffffff16815260200182604001516fffffffffffffffffffffffffffffffff16815260200182606001516fffffffffffffffffffffffffffffffff16815260200182608001516fffffffffffffffffffffffffffffffff1681526020018260a0015167ffffffffffffffff1681526020018260c0015167ffffffffffffffff1681526020018260e0015160020b81526020018261010001511515815260200182610120015167ffffffffffffffff16815260200182610140015163ffffffff168152602001600073ffffffffffffffffffffffffffffffffffffffff168152602001600067ffffffffffffffff16815260200150915050613b2756505b919050565b600260026000505414151515613bad576040517f08c379a000000000000000000000000000000000000000000000000000000000815260040180806020018281038252600d8152602001807f4c43205265656e7472616e63790000000000000000000000000000000000000081526020015060200191505060405180910390fd5b600260026000508190909055505b565b801515613c35576040517f08c379a000000000000000000000000000000000000000000000000000000000815260040180806020018281038252600e8152602001807f4e6f7420417574686f72697a656400000000000000000000000000000000000081526020015060200191505060405180910390fd5b5b50565b60008282840191508110151515613cbb576040517f08c379a000000000000000000000000000000000000000000000000000000000815260040180806020018281038252600c8152602001807f6164642d6f766572666c6f77000000000000000000000000000000000000000081526020015060200191505060405180910390fd5b5b92915050565b600160026000508190909055505b565b60006000836001016000506000846fffffffffffffffffffffffffffffffff166fffffffffffffffffffffffffffffffff168152602001908152602001600020600050549050600081141515613ed757600060018203905060006001866000016000508054905003905060008660000160005082815481101515613d5257fe5b90600052602060002090600291828204019190066010025b9054906101000a90046fffffffffffffffffffffffffffffffff169050808760000160005084815481101515613d9c57fe5b90600052602060002090600291828204019190066010025b6101000a8154816fffffffffffffffffffffffffffffffff02191690836fffffffffffffffffffffffffffffffff16021790555060018301876001016000506000836fffffffffffffffffffffffffffffffff166fffffffffffffffffffffffffffffffff168152602001908152602001600020600050819090905550866000016000508054801515613e4357fe5b60019003818190600052602060002090600291828204019190066010025b6101000a8154906fffffffffffffffffffffffffffffffff02191690559055866001016000506000876fffffffffffffffffffffffffffffffff166fffffffffffffffffffffffffffffffff168152602001908152602001600020600050600090556001945050505050613ee356505050613ee1565b6000915050613ee3565b505b92915050565b7f000000000000000000000000000000000000000000000000000000000000000073ffffffffffffffffffffffffffffffffffffffff16637c114fed336040518263ffffffff1660e01b8152600401613f429190617031565b60006040518083038186803b158015613f5b5760006000fd5b505afa158015613f70573d600060003e3d6000fd5b505050505b565b6000826fffffffffffffffffffffffffffffffff168284039150816fffffffffffffffffffffffffffffffff161115151561401d576040517f08c379a000000000000000000000000000000000000000000000000000000000815260040180806020018281038252600d8152602001807f7375622d756e646572666c6f770000000000000000000000000000000000000081526020015060200191505060405180910390fd5b5b92915050565b6000826fffffffffffffffffffffffffffffffff168284019150816fffffffffffffffffffffffffffffffff16101515156140ca576040517f08c379a000000000000000000000000000000000000000000000000000000000815260040180806020018281038252600c8152602001807f6164642d6f766572666c6f77000000000000000000000000000000000000000081526020015060200191505060405180910390fd5b5b92915050565b60008282840391508111151515614153576040517f08c379a000000000000000000000000000000000000000000000000000000000815260040180806020018281038252600d8152602001807f7375622d756e646572666c6f770000000000000000000000000000000000000081526020015060200191505060405180910390fd5b5b92915050565b61416261621a565b6000600460005060008567ffffffffffffffff1667ffffffffffffffff16815260200190815260200160002060005060030160139054906101000a900460ff1690506000816141b457627fffff6141f3565b600460005060008667ffffffffffffffff1667ffffffffffffffff16815260200190815260200160002060005060030160109054906101000a900460020b5b90506000600460005060008767ffffffffffffffff1667ffffffffffffffff16815260200190815260200160002060005060030160149054906101000a900467ffffffffffffffff169050600061425886602001518760400151612bd563ffffffff16565b90508060020b8360020b1415156144ff57808660e0019060020b908160020b815260200150506000627fffff60020b8460020b121561442557600660005060008560020b60020b81526020019081526020016000206000509050805060006142ce60018380549050036158a4909063ffffffff16565b90508067ffffffffffffffff168467ffffffffffffffff161415156143e2576000828267ffffffffffffffff1681548110151561430757fe5b90600052602060002090600491828204019190066008025b9054906101000a900467ffffffffffffffff16905080838667ffffffffffffffff1681548110151561434d57fe5b90600052602060002090600491828204019190066008025b6101000a81548167ffffffffffffffff021916908367ffffffffffffffff16021790555084600460005060008367ffffffffffffffff1667ffffffffffffffff16815260200190815260200160002060005060030160146101000a81548167ffffffffffffffff021916908367ffffffffffffffff160217905550505b8180548015156143ee57fe5b60019003818190600052602060002090600491828204019190066008025b6101000a81549067ffffffffffffffff02191690559055505b627fffff60020b8260020b12156144fd57600660005060008360020b60020b81526020019081526020016000206000509050805061446e81805490506158a4909063ffffffff16565b87610120019067ffffffffffffffff16908167ffffffffffffffff1681526020015050600187610100019015159081151581526020015050808890806001815401808255809150506001900390600052602060002090600491828204019190066008025b9091909190916101000a81548167ffffffffffffffff021916908367ffffffffffffffff1602179055505b505b8594505050505061450f56505050505b92915050565b604051806101600160405280826000015181526020016145408360200151613516909063ffffffff16565b6fffffffffffffffffffffffffffffffff16815260200161456c8360400151613516909063ffffffff16565b6fffffffffffffffffffffffffffffffff1681526020016145988360600151613516909063ffffffff16565b6fffffffffffffffffffffffffffffffff1681526020016145c48360800151613516909063ffffffff16565b6fffffffffffffffffffffffffffffffff1681526020018260a0015167ffffffffffffffff1681526020018260c0015167ffffffffffffffff1681526020018260e0015160020b81526020018261010001511515815260200182610120015167ffffffffffffffff16815260200182610140015163ffffffff16815260200150600460005060008467ffffffffffffffff1667ffffffffffffffff16815260200190815260200160002060005060008201518160000160005090905560208201518160010160006101000a8154816fffffffffffffffffffffffffffffffff02191690836fffffffffffffffffffffffffffffffff16021790555060408201518160010160106101000a8154816fffffffffffffffffffffffffffffffff02191690836fffffffffffffffffffffffffffffffff16021790555060608201518160020160006101000a8154816fffffffffffffffffffffffffffffffff02191690836fffffffffffffffffffffffffffffffff16021790555060808201518160020160106101000a8154816fffffffffffffffffffffffffffffffff02191690836fffffffffffffffffffffffffffffffff16021790555060a08201518160030160006101000a81548167ffffffffffffffff021916908367ffffffffffffffff16021790555060c08201518160030160086101000a81548167ffffffffffffffff021916908367ffffffffffffffff16021790555060e08201518160030160106101000a81548162ffffff021916908360020b62ffffff1602179055506101008201518160030160136101000a81548160ff0219169083151502179055506101208201518160030160146101000a81548167ffffffffffffffff021916908367ffffffffffffffff16021790555061014082015181600301601c6101000a81548163ffffffff021916908363ffffffff1602179055509050505b5050565b60006000600060001985870985870292508281108382030391505060008114156148c6576000841115156148b75760006000fd5b8382049250829250505061497d565b80841115156148d55760006000fd5b600084868809905082811182039150808303925060008586600003169050808604955080840493506001818260000304019050808302841793508350600060028760030218905080870260020381029050805080870260020381029050805080870260020381029050805080870260020381029050805080870260020381029050805080870260020381029050805080850295508550859550505050505061497d5650505050505b9392505050565b6149eb61499882613516909063ffffffff16565b600e60005060008573ffffffffffffffffffffffffffffffffffffffff1673ffffffffffffffffffffffffffffffffffffffff16815260200190815260200160002060005061593690919063ffffffff16565b505b5050565b604051806080016040528082604001518152602001614a1b8360000151613516909063ffffffff16565b6fffffffffffffffffffffffffffffffff168152602001614a478360600151613516909063ffffffff16565b6fffffffffffffffffffffffffffffffff168152602001614a738360200151613516909063ffffffff16565b6fffffffffffffffffffffffffffffffff16815260200150600860005060008201518160000160005090905560208201518160010160006101000a8154816fffffffffffffffffffffffffffffffff02191690836fffffffffffffffffffffffffffffffff16021790555060408201518160010160106101000a8154816fffffffffffffffffffffffffffffffff02191690836fffffffffffffffffffffffffffffffff16021790555060608201518160020160006101000a8154816fffffffffffffffffffffffffffffffff02191690836fffffffffffffffffffffffffffffffff1602179055509050505b50565b6040518060e00160405280826000015173ffffffffffffffffffffffffffffffffffffffff168152602001826020015161ffff16815260200182610120015163ffffffff16815260200182604001518152602001614bcc8360600151615a27909063ffffffff16565b75ffffffffffffffffffffffffffffffffffffffffffff168152602001614c088360c0015167ffffffffffffffff16615ac7909063ffffffff16565b64ffffffffff168152602001614c298360800151615ac7909063ffffffff16565b64ffffffffff16815260200150600c600050600084815260200190815260200160002060005060008201518160000160006101000a81548173ffffffffffffffffffffffffffffffffffffffff021916908373ffffffffffffffffffffffffffffffffffffffff16021790555060208201518160000160146101000a81548161ffff021916908361ffff16021790555060408201518160000160166101000a81548163ffffffff021916908363ffffffff16021790555060608201518160010160005090905560808201518160020160006101000a81548175ffffffffffffffffffffffffffffffffffffffffffff021916908375ffffffffffffffffffffffffffffffffffffffffffff16021790555060a08201518160020160166101000a81548164ffffffffff021916908364ffffffffff16021790555060c082015181600201601b6101000a81548164ffffffffff021916908364ffffffffff1602179055509050505b5050565b7f000000000000000000000000000000000000000000000000000000000000000073ffffffffffffffffffffffffffffffffffffffff1663a22cb4658260016040518363ffffffff1660e01b8152600401614df0929190617059565b600060405180830381600087803b158015614e0b5760006000fd5b505af1158015614e20573d600060003e3d6000fd5b505050505b50565b600060008473ffffffffffffffffffffffffffffffffffffffff1663a9059cbb60e01b8585604051602401808373ffffffffffffffffffffffffffffffffffffffff16815260200182815260200192505050604051602081830303815290604052907bffffffffffffffffffffffffffffffffffffffffffffffffffffffff19166020820180517bffffffffffffffffffffffffffffffffffffffffffffffffffffffff83818316178352505050506040518082805190602001908083835b602083101515614f0d57805182525b602082019150602081019050602083039250614ee7565b6001836020036101000a0380198251168184511680821785525050505050509050019150506000604051808303816000865af19150503d8060008114614f6f576040519150601f19603f3d011682016040523d82523d6000602084013e614f74565b606091505b5091509150818015614fb55750600081511480614fb45750808060200190516020811015614fa25760006000fd5b81019080805190602001909291905050505b5b151561502c576040517f08c379a00000000000000000000000000000000000000000000000000000000081526004018080602001828103825260028152602001807f535400000000000000000000000000000000000000000000000000000000000081526020015060200191505060405180910390fd5b50505b505050565b6060816000016000508054806020026020016040519081016040528092919081815260200182805480156150cb57602002820191906000526020600020906000905b82829054906101000a90046fffffffffffffffffffffffffffffffff166fffffffffffffffffffffffffffffffff1681526020019060100190602082600f010492830192600103820291508084116150765790505b5050505050905080505b919050565b6000615135615128660100000000000061511a61510f6c0100000000000000000000000087896148839092919063ffffffff16565b615b5663ffffffff16565b615bc990919063ffffffff16565b615c67909063ffffffff16565b905061513c565b92915050565b60006401000276a373ffffffffffffffffffffffffffffffffffffffff168273ffffffffffffffffffffffffffffffffffffffff16101580156151c4575073fffd8963efd1fc6a506488495d951d5263988d2673ffffffffffffffffffffffffffffffffffffffff168273ffffffffffffffffffffffffffffffffffffffff16105b151561523b576040517f08c379a00000000000000000000000000000000000000000000000000000000081526004018080602001828103825260018152602001807f520000000000000000000000000000000000000000000000000000000000000081526020015060200191505060405180910390fd5b600060208373ffffffffffffffffffffffffffffffffffffffff16901b905060008190506000600090506fffffffffffffffffffffffffffffffff821160071b808217915082811c92505067ffffffffffffffff821160061b808217915082811c92505063ffffffff821160051b808217915082811c92505061ffff821160041b808217915082811c92505060ff821160031b808217915082811c925050600f821160021b808217915082811c9250506003821160011b808217915082811c9250506001821180821791505060808110151561532157607f810383901c9150815061532d565b80607f0383901b915081505b6000604060808303901b9050828302607f1c92508260801c80603f1b8217915083811c935050828302607f1c92508260801c80603e1b8217915083811c935050828302607f1c92508260801c80603d1b8217915083811c935050828302607f1c92508260801c80603c1b8217915083811c935050828302607f1c92508260801c80603b1b8217915083811c935050828302607f1c92508260801c80603a1b8217915083811c935050828302607f1c92508260801c8060391b8217915083811c935050828302607f1c92508260801c8060381b8217915083811c935050828302607f1c92508260801c8060371b8217915083811c935050828302607f1c92508260801c8060361b8217915083811c935050828302607f1c92508260801c8060351b8217915083811c935050828302607f1c92508260801c8060341b8217915083811c935050828302607f1c92508260801c8060331b8217915083811c935050828302607f1c92508260801c8060321b82179150506000693627a301d71055774c8582029050600060806f028f6481ab7f045a5af012a19d003aaa8303901d9050600060806fdb2df09e81959a81455e260799a0632f8401901d90508060020b8260020b14615543578873ffffffffffffffffffffffffffffffffffffffff1661551a82615d0563ffffffff16565b73ffffffffffffffffffffffffffffffffffffffff16111561553c578161553e565b805b615545565b815b97508750505050505050505b919050565b60007fffffffffffffffffffffffffffffffffffffffffffffffffffffffffff800000821215801561558a57506280000082125b1515615601576040517f08c379a00000000000000000000000000000000000000000000000000000000081526004018080602001828103825260118152602001807f6d6f7265207468616e203234206269747300000000000000000000000000000081526020015060200191505060405180910390fd5b819050615609565b919050565b6156166163e0565b6000600c60005060008481526020019081526020016000206000506040518060e00160405290816000820160009054906101000a900473ffffffffffffffffffffffffffffffffffffffff1673ffffffffffffffffffffffffffffffffffffffff1673ffffffffffffffffffffffffffffffffffffffff1681526020016000820160149054906101000a900461ffff1661ffff1661ffff1681526020016000820160169054906101000a900463ffffffff1663ffffffff1663ffffffff168152602001600182016000505481526020016002820160009054906101000a900475ffffffffffffffffffffffffffffffffffffffffffff1675ffffffffffffffffffffffffffffffffffffffffffff1675ffffffffffffffffffffffffffffffffffffffffffff1681526020016002820160169054906101000a900464ffffffffff1664ffffffffff1664ffffffffff16815260200160028201601b9054906101000a900464ffffffffff1664ffffffffff1664ffffffffff16815260200150509050604051806101800160405280826000015173ffffffffffffffffffffffffffffffffffffffff168152602001826020015161ffff16815260200182606001518152602001826080015175ffffffffffffffffffffffffffffffffffffffffffff1681526020018260c0015164ffffffffff16815260200160006fffffffffffffffffffffffffffffffff1681526020018260a0015164ffffffffff1667ffffffffffffffff168152602001600060020b8152602001600060020b8152602001826040015163ffffffff168152602001600073ffffffffffffffffffffffffffffffffffffffff168152602001600067ffffffffffffffff1681526020015091505061589f56505b919050565b60006801000000000000000082101515615929576040517f08c379a00000000000000000000000000000000000000000000000000000000081526004018080602001828103825260118152602001807f6d6f7265207468616e203634206269747300000000000000000000000000000081526020015060200191505060405180910390fd5b819050615931565b919050565b6000615948838361619c63ffffffff16565b1515615a1757826000016000508290806001815401808255809150506001900390600052602060002090600291828204019190066010025b9091909190916101000a8154816fffffffffffffffffffffffffffffffff02191690836fffffffffffffffffffffffffffffffff1602179055508260000160005080549050836001016000506000846fffffffffffffffffffffffffffffffff166fffffffffffffffffffffffffffffffff16815260200190815260200160002060005081909090555060019050615a2156615a20565b60009050615a21565b5b92915050565b600076010000000000000000000000000000000000000000000082101515615aba576040517f08c379a00000000000000000000000000000000000000000000000000000000081526004018080602001828103825260128152602001807f6d6f7265207468616e203137362062697473000000000000000000000000000081526020015060200191505060405180910390fd5b819050615ac2565b919050565b60006501000000000082101515615b49576040517f08c379a00000000000000000000000000000000000000000000000000000000081526004018080602001828103825260118152602001807f6d6f7265207468616e203430206269747300000000000000000000000000000081526020015060200191505060405180910390fd5b819050615b51565b919050565b60006003821115615bb157819050805060006001600284811515615b7657fe5b040190505b81811015615bab5780915081506002818285811515615b9657fe5b0401811515615ba157fe5b0490508050615b7b565b50615bc3565b600082141515615bc2576001905080505b5b5b919050565b60006000821480615be957508282838502925082811515615be657fe5b04145b1515615c60576040517f08c379a000000000000000000000000000000000000000000000000000000000815260040180806020018281038252600c8152602001807f6d756c2d6f766572666c6f77000000000000000000000000000000000000000081526020015060200191505060405180910390fd5b5b92915050565b60007401000000000000000000000000000000000000000082101515615cf8576040517f08c379a00000000000000000000000000000000000000000000000000000000081526004018080602001828103825260128152602001807f6d6f7265207468616e203136302062697473000000000000000000000000000081526020015060200191505060405180910390fd5b819050615d00565b919050565b6000600060008360020b12615d1d578260020b615d25565b8260020b6000035b90507ffffffffffffffffffffffffffffffffffffffffffffffffffffffffffff2761860000360020b8111151515615dc8576040517f08c379a00000000000000000000000000000000000000000000000000000000081526004018080602001828103825260018152602001807f540000000000000000000000000000000000000000000000000000000000000081526020015060200191505060405180910390fd5b60006000600183161415615ded57700100000000000000000000000000000000615dff565b6ffffcb933bd6fad37aa2d162d1a5940015b70ffffffffffffffffffffffffffffffffff169050600060028316141515615e3d5760806ffff97272373d413259a46990580e213a8202901c905080505b600060048316141515615e665760806ffff2e50f5f656932ef12357cf3c7fdcc8202901c905080505b600060088316141515615e8f5760806fffe5caca7e10e4e61c3624eaa0941cd08202901c905080505b600060108316141515615eb85760806fffcb9843d60f6159c9db58835c9266448202901c905080505b600060208316141515615ee15760806fff973b41fa98c081472e6896dfb254c08202901c905080505b600060408316141515615f0a5760806fff2ea16466c96a3843ec78b326b528618202901c905080505b600060808316141515615f335760806ffe5dee046a99a2a811c461f1969c30538202901c905080505b60006101008316141515615f5d5760806ffcbe86c7900a88aedcffc83b479aa3a48202901c905080505b60006102008316141515615f875760806ff987a7253ac413176f2b074cf7815e548202901c905080505b60006104008316141515615fb15760806ff3392b0822b70005940c7a398e4b70f38202901c905080505b60006108008316141515615fdb5760806fe7159475a2c29b7443b29c7fa6e889d98202901c905080505b600061100083161415156160055760806fd097f3bdfd2022b8845ad8f792aa58258202901c905080505b6000612000831614151561602f5760806fa9f746462d870fdf8a65dc1f90e061e58202901c905080505b600061400083161415156160595760806f70d869a156d2a1b890bb3df62baf32f78202901c905080505b600061800083161415156160835760806f31be135f97d08fd981231505542fcfa68202901c905080505b60006201000083161415156160ae5760806f09aa508b5b7a84e1c677de54f3e99bc98202901c905080505b60006202000083161415156160d85760806e5d6af8dedb81196699c329225ee6048202901c905080505b60006204000083161415156161015760806d2216e584f5fa1ea926041bedfe988202901c905080505b60006208000083161415156161285760806b048a170391f7dc42444e8fa28202901c905080505b60008460020b131561616557807fffffffffffffffffffffffffffffffffffffffffffffffffffffffffffffffff81151561615f57fe5b04905080505b60006401000000008281151561617757fe5b0614616184576001616187565b60005b60ff16602082901c019250825050505b919050565b60006000836001016000506000846fffffffffffffffffffffffffffffffff166fffffffffffffffffffffffffffffffff16815260200190815260200160002060005054141590506161e9565b92915050565b6040518060800160405280600081526020016000815260200160008152602001600081526020015090565b604051806101a001604052806000815260200160008152602001600081526020016000815260200160008152602001600067ffffffffffffffff168152602001600067ffffffffffffffff168152602001600060020b8152602001600015158152602001600067ffffffffffffffff168152602001600063ffffffff168152602001600073ffffffffffffffffffffffffffffffffffffffff168152602001600067ffffffffffffffff1681526020015090565b604051806040016040528060008152602001600081526020015090565b828054600181600116156101000203166002900490600052602060002090601f016020900481019282616321576000855561636d565b82601f1061633a57805160ff191683800117855561636d565b8280016001018555821561636d579182015b8281111561636c578251826000509090559160200191906001019061634c565b5b50905061637a91906164a6565b5090565b6040518060a00160405280600073ffffffffffffffffffffffffffffffffffffffff168152602001600067ffffffffffffffff168152602001600060038111156163c457fe5b8152602001600062ffffff168152602001606081526020015090565b604051806101800160405280600073ffffffffffffffffffffffffffffffffffffffff168152602001600061ffff16815260200160008152602001600081526020016000815260200160006fffffffffffffffffffffffffffffffff168152602001600067ffffffffffffffff168152602001600060020b8152602001600060020b8152602001600063ffffffff168152602001600073ffffffffffffffffffffffffffffffffffffffff168152602001600067ffffffffffffffff1681526020015090565b6164ab565b808211156164c557600081815060009055506001016164ab565b5090566177dc565b6000813590506164dc81617760565b5b919050565b6000815190506164f181617760565b5b919050565b6000813590508015158114151561650e5760006000fd5b5b919050565b60008135905061652381617789565b5b919050565b60008151905061653881617789565b5b919050565b60008135905061654d8161779f565b5b919050565b6000815190506165628161779f565b5b919050565b60008135905061ffff8116811415156165815760006000fd5b5b919050565b600081519050616596816177c4565b5b919050565b60008135905063ffffffff8116811415156165b75760006000fd5b5b919050565b60008135905067ffffffffffffffff8116811415156165dc5760006000fd5b5b919050565b6000602082840312156165f3578081fd5b81356165fe81617760565b809150505b92915050565b600060006040838503121561661c578081fd5b823561662781617760565b80925050602083013590505b9250929050565b6000600060006000600060808688031215616653578081fd5b853561665e81617760565b80955050602086013561667081617760565b8094505060408601359250606086013567ffffffffffffffff80821115616695578283fd5b818801915088601f83011215156166aa578283fd5b8135818111156166b8578384fd5b8960208285010111156166c9578384fd5b6020830194508093505050505b9295509295909350565b60006000604083850312156166f3578182fd5b82356166fe81617760565b80925050602083013590505b9250929050565b60006020808385031215616723578182fd5b823567ffffffffffffffff8082111561673a578384fd5b818501915085601f830112151561674f578384fd5b81358181111561675b57fe5b838102915061676b848301617735565b8082825285820191508585018987868801011115616787578788fd5b8795505b838610156167b45761679c8161659c565b8352868301925086810190505b60018601955061678b565b508096505050505050505b92915050565b6000602082840312156167d6578081fd5b81357fffffffff00000000000000000000000000000000000000000000000000000000811681141515616807578182fd5b809150505b92915050565b600060208284031215616823578081fd5b815161682e81617760565b809150505b92915050565b60006020828403121561684a578081fd5b815161685581617760565b809150505b92915050565b600060208284031215616871578081fd5b813561687c81617760565b809150505b92915050565b600060006040838503121561689a578182fd5b82356168a581617760565b80925050602083013590505b9250929050565b6000602082840312156168c9578081fd5b81356168d481617789565b809150505b92915050565b60006000604083850312156168f2578182fd5b82356168fd81617789565b80925050602083013561690f81617789565b809150505b9250929050565b60006080828403121561692c578081fd5b6040516080810181811067ffffffffffffffff8211171561694957fe5b806040525082358152602083013560208201526040830135604082015260608301356060820152809150505b92915050565b60006020828403121561698c578081fd5b61699582616568565b90505b92915050565b6000600082840360608112156169b2578283fd5b6169bb84616568565b925060407fffffffffffffffffffffffffffffffffffffffffffffffffffffffffffffffe0820112156169ec578182fd5b506040516040810181811067ffffffffffffffff82111715616a0a57fe5b80604052506020840135815260408401356020820152809150505b9250929050565b600060208284031215616a3d578081fd5b813590505b92915050565b600060208284031215616a59578081fd5b815190505b92915050565b600060008284036101a0811215616a79578283fd5b83359250610180807fffffffffffffffffffffffffffffffffffffffffffffffffffffffffffffffe083011215616aae578283fd5b616ab781617735565b9150616ac5602086016164cd565b8252616ad360408601616568565b6020830152606085013560408301526080850135606083015260a08501356080830152616b0260c0860161653e565b60a0830152616b1360e086016165bd565b60c0830152610100616b26818701616514565b60e0840152610120616b39818801616514565b828501526101409150616b4d82880161659c565b8185015250610160616b608188016164cd565b82850152616b6f8388016165bd565b81850152505050809150505b9250929050565b6000600060408385031215616b95578182fd5b82359150602083013590505b9250929050565b6000600060408385031215616bbb578182fd5b616bc48361659c565b915060208084013567ffffffffffffffff80821115616be1578384fd5b818601915086601f8301121515616bf6578384fd5b813581811115616c0257fe5b616c32847fffffffffffffffffffffffffffffffffffffffffffffffffffffffffffffffe0601f84011601617735565b91508082528784828501011115616c47578485fd5b808484018584013784848284010152508093505050505b9250929050565b6000600060408385031215616c78578182fd5b616c818361659c565b9150616c8f6020840161659c565b90505b9250929050565b600060208284031215616caa578081fd5b616cb3826165bd565b90505b92915050565b600060008284036101c0811215616cd1578283fd5b616cda846165bd565b92506101a0807fffffffffffffffffffffffffffffffffffffffffffffffffffffffffffffffe083011215616d0d578283fd5b616d1681617735565b91506020850135825260408501356020830152606085013560408301526080850135606083015260a08501356080830152616d5360c086016165bd565b60a0830152616d6460e086016165bd565b60c0830152610100616d77818701616514565b60e0840152610120616d8a8188016164f7565b828501526101409150616d9e8288016165bd565b8185015250610160616db181880161659c565b828501526101809150616dc58288016164cd565b8185015250616dd58287016165bd565b818401525050809150505b9250929050565b6000600060408385031215616dfa578182fd5b616e03836165bd565b91506020830135616e13816177c4565b809150505b9250929050565b6000600060006000600060006000600060006000600060006101808d8f031215616e4757898afd5b8c516bffffffffffffffffffffffff811681141515616e64578a8bfd5b809c5050616e7460208e016164e2565b9a50616e8260408e016164e2565b9950616e9060608e016164e2565b9850616e9e60808e01616587565b9750616eac60a08e01616529565b9650616eba60c08e01616529565b9550616ec860e08e01616553565b94506101008d015193506101208d01519250616ee76101408e01616553565b9150616ef66101608e01616553565b90505b9295989b509295989b509295989b565b73ffffffffffffffffffffffffffffffffffffffff811682525b5050565b80151582525b5050565b600481101515616f3d57fe5b8082525b5050565b8060020b82525b5050565b60008151808452815b81811015616f7c576020808286010151818388010152505b602081019050616f59565b81811115616f8d5782602083870101525b5060207fffffffffffffffffffffffffffffffffffffffffffffffffffffffffffffffe0601f8301168501019150505b92915050565b6fffffffffffffffffffffffffffffffff811682525b5050565b61ffff811682525b5050565b63ffffffff811682525b5050565b67ffffffffffffffff811682525b5050565b600060208201905073ffffffffffffffffffffffffffffffffffffffff831682525b92915050565b600060208201905073ffffffffffffffffffffffffffffffffffffffff831682525b92915050565b600060408201905073ffffffffffffffffffffffffffffffffffffffff8416825282151560208301525b9392505050565b600073ffffffffffffffffffffffffffffffffffffffff8716825267ffffffffffffffff861660208301526170c26040830186616f31565b62ffffff8416606083015260a060808301526170e160a0830184616f50565b90505b9695505050505050565b6000602080830181845280855180835260409250828601915082848202870101848801865b838110156171c7577fffffffffffffffffffffffffffffffffffffffffffffffffffffffffffffffc0898403018552815160a073ffffffffffffffffffffffffffffffffffffffff825116855267ffffffffffffffff8983015116898601528782015161718289870182616f31565b50606062ffffff8184015116818701525060808083015192508181870152506171ad81860183616f50565b94505050868201915086850194505b600181019050617113565b505080955050505050505b92915050565b600060208083018184528085518083526040860191508387019250845b81811015617229576fffffffffffffffffffffffffffffffff8451168352848301925084840193505b6001810190506171f5565b50508093505050505b92915050565b600060208083018184528085518083526040860191508387019250845b8181101561727d5763ffffffff8451168352848301925084840193505b600181019050617255565b50508093505050505b92915050565b600060208083018184528085518083526040860191508387019250845b818110156172d55767ffffffffffffffff8451168352848301925084840193505b6001810190506172a9565b50508093505050505b92915050565b600060208201905082151582525b92915050565b60006020820190507fffffffff00000000000000000000000000000000000000000000000000000000831682525b92915050565b600060208201905073ffffffffffffffffffffffffffffffffffffffff831682525b92915050565b600060208201905073ffffffffffffffffffffffffffffffffffffffff831682525b92915050565b600060208201905073ffffffffffffffffffffffffffffffffffffffff831682525b92915050565b60006020820190508260020b82525b92915050565b6000602082526173cc6020830184616f50565b90505b92915050565b600060208252600c60208301527f506f736974696f6e20444e45000000000000000000000000000000000000000060408301526060820190505b919050565b600060208252601760208301527f4465627420776974686f757420636f6c6c61746572616c00000000000000000060408301526060820190505b919050565b600060208252601d60208301527f446f6573206e6f7420616363657074204e465473206469726563746c7900000060408301526060820190505b919050565b600060208252601560208301527f4d6178206b69636b6261636b206578636565646564000000000000000000000060408301526060820190505b919050565b60006101a082019050825182526020830151602083015260408301516040830152606083015160608301526080830151608083015260a083015161751860a0840182616ff7565b5060c083015161752b60c0840182616ff7565b5060e083015161753e60e0840182616f45565b506101008084015161755282850182616f27565b50506101208084015161756782850182616ff7565b50506101408084015161757c82850182616fe9565b50506101608084015161759182850182616f09565b5050610180808401516175a682850182616ff7565b50505b92915050565b6000610180820190506175c3828451616f09565b60208301516175d56020840182616fdd565b5060408301516040830152606083015160608301526080830151608083015260a083015161760660a0840182616fc3565b5060c083015161761960c0840182616ff7565b5060e083015161762c60e0840182616f45565b506101008084015161764082850182616f45565b50506101208084015161765582850182616fe9565b50506101408084015161766a82850182616f09565b50506101608084015161767f82850182616ff7565b50505b92915050565b600060408201905082518252602083015160208301525b92915050565b6000608082019050825182526020830151602083015260408301516040830152606083015160608301525b92915050565b60006020820190508282525b92915050565b60006040820190508382528260208301525b9392505050565b600060208201905063ffffffff831682525b92915050565b600060208201905067ffffffffffffffff831682525b92915050565b6000604051905081810181811067ffffffffffffffff8211171561775557fe5b80604052505b919050565b73ffffffffffffffffffffffffffffffffffffffff8116811415156177855760006000fd5b5b50565b8060020b8114151561779b5760006000fd5b5b50565b6fffffffffffffffffffffffffffffffff8116811415156177c05760006000fd5b5b50565b62ffffff8116811415156177d85760006000fd5b5b50565bfea264697066735822122074b0ffe14250d5fa14461d9d589652a79afcf9d7a50e426353361457d25b06ca64736f6c63430007060033",
  "linkReferences": {},
  "deployedLinkReferences": {}
}