{
  "_format": "hh-sol-artifact-1",
  "contractName": "Accounting",
  "sourceName": "contracts/core/storage/Accounting.sol",
  "abi": [
    {
      "inputs": [
        {
          "components": [
            {
              "internalType": "contract IGovernor",
              "name": "Governor",
              "type": "address"
            },
            {
              "internalType": "contract IHue",
              "name": "Hue",
              "type": "address"
            },
            {
              "internalType": "contract INonfungiblePositionManager",
              "name": "NftPositionManager",
              "type": "address"
            }
          ],
          "internalType": "struct IAccounting.ConstructorParams",
          "name": "params",
          "type": "tuple"
        }
      ],
      "stateMutability": "nonpayable",
      "type": "constructor"
    },
    {
      "anonymous": false,
      "inputs": [],
      "name": "DebtPositionIndexingDisabled",
      "type": "event"
    },
    {
      "anonymous": false,
      "inputs": [],
      "name": "PoolPositionIndexingDisabled",
      "type": "event"
    },
    {
      "anonymous": false,
      "inputs": [],
      "name": "Stopped",
      "type": "event"
    },
    {
      "anonymous": false,
      "inputs": [
        {
          "indexed": true,
          "internalType": "uint32",
          "name": "interfaceID",
          "type": "uint32"
        },
        {
          "indexed": true,
          "internalType": "address",
          "name": "kickbackDestination",
          "type": "address"
        },
        {
          "indexed": false,
          "internalType": "string",
          "name": "ipfsHash",
          "type": "string"
        }
      ],
      "name": "UIInitialized",
      "type": "event"
    },
    {
      "anonymous": false,
      "inputs": [
        {
          "indexed": true,
          "internalType": "uint32",
          "name": "interfaceID",
          "type": "uint32"
        },
        {
          "indexed": true,
          "internalType": "address",
          "name": "kickbackDestination",
          "type": "address"
        },
        {
          "indexed": true,
          "internalType": "uint24",
          "name": "tags",
          "type": "uint24"
        },
        {
          "indexed": false,
          "internalType": "uint256",
          "name": "kickbackPortion",
          "type": "uint256"
        }
      ],
      "name": "UIRegistered",
      "type": "event"
    },
    {
      "anonymous": false,
      "inputs": [
        {
          "indexed": false,
          "internalType": "uint32[]",
          "name": "uis",
          "type": "uint32[]"
        }
      ],
      "name": "UIsApproved",
      "type": "event"
    },
    {
      "anonymous": false,
      "inputs": [
        {
          "indexed": false,
          "internalType": "uint32[]",
          "name": "uis",
          "type": "uint32[]"
        }
      ],
      "name": "UIsDisapproved",
      "type": "event"
    },
    {
      "inputs": [],
      "name": "TICK_SPACING",
      "outputs": [
        {
          "internalType": "int24",
          "name": "",
          "type": "int24"
        }
      ],
      "stateMutability": "view",
      "type": "function"
    },
    {
      "inputs": [
        {
          "internalType": "address",
          "name": "owner",
          "type": "address"
        },
        {
          "internalType": "uint256",
          "name": "nftID",
          "type": "uint256"
        }
      ],
      "name": "addPositionToIndex",
      "outputs": [],
      "stateMutability": "nonpayable",
      "type": "function"
    },
    {
      "inputs": [
        {
          "internalType": "uint32[]",
          "name": "ids",
          "type": "uint32[]"
        }
      ],
      "name": "approveUIs",
      "outputs": [],
      "stateMutability": "nonpayable",
      "type": "function"
    },
    {
      "inputs": [],
      "name": "debt",
      "outputs": [
        {
          "internalType": "uint256",
          "name": "",
          "type": "uint256"
        }
      ],
      "stateMutability": "view",
      "type": "function"
    },
    {
      "inputs": [],
      "name": "debtPositionIndexingEnabled",
      "outputs": [
        {
          "internalType": "bool",
          "name": "",
          "type": "bool"
        }
      ],
      "stateMutability": "view",
      "type": "function"
    },
    {
      "inputs": [
        {
          "internalType": "uint256",
          "name": "count",
          "type": "uint256"
        }
      ],
      "name": "decreaseDebt",
      "outputs": [],
      "stateMutability": "nonpayable",
      "type": "function"
    },
    {
      "inputs": [
        {
          "internalType": "contract IUniswapV3Pool",
          "name": "pool",
          "type": "address"
        },
        {
          "internalType": "uint256",
          "name": "liquidity",
          "type": "uint256"
        }
      ],
      "name": "decreasePoolLiquidity",
      "outputs": [],
      "stateMutability": "nonpayable",
      "type": "function"
    },
    {
      "inputs": [
        {
          "internalType": "uint256",
          "name": "nftID",
          "type": "uint256"
        }
      ],
      "name": "deletePoolPosition",
      "outputs": [],
      "stateMutability": "nonpayable",
      "type": "function"
    },
    {
      "inputs": [],
      "name": "deployer",
      "outputs": [
        {
          "internalType": "address",
          "name": "",
          "type": "address"
        }
      ],
      "stateMutability": "view",
      "type": "function"
    },
    {
      "inputs": [
        {
          "internalType": "uint32[]",
          "name": "ids",
          "type": "uint32[]"
        }
      ],
      "name": "disapproveUIs",
      "outputs": [],
      "stateMutability": "nonpayable",
      "type": "function"
    },
    {
      "inputs": [
        {
          "internalType": "uint64",
          "name": "positionID",
          "type": "uint64"
        }
      ],
      "name": "getBasicPositionInfo",
      "outputs": [
        {
          "internalType": "uint256",
          "name": "debtCount",
          "type": "uint256"
        },
        {
          "internalType": "uint256",
          "name": "collateralCount",
          "type": "uint256"
        }
      ],
      "stateMutability": "view",
      "type": "function"
    },
    {
      "inputs": [
        {
          "internalType": "uint256",
          "name": "nftID",
          "type": "uint256"
        }
      ],
      "name": "getPoolPosition",
      "outputs": [
        {
          "components": [
            {
              "internalType": "address",
              "name": "owner",
              "type": "address"
            },
            {
              "internalType": "uint16",
              "name": "poolID",
              "type": "uint16"
            },
            {
              "internalType": "uint256",
              "name": "cumulativeLiquidity",
              "type": "uint256"
            },
            {
              "internalType": "uint256",
              "name": "totalRewards",
              "type": "uint256"
            },
            {
              "internalType": "uint256",
              "name": "lastBlockPositionIncreased",
              "type": "uint256"
            },
            {
              "internalType": "uint128",
              "name": "liquidity",
              "type": "uint128"
            },
            {
              "internalType": "uint64",
              "name": "lastTimeRewarded",
              "type": "uint64"
            },
            {
              "internalType": "int24",
              "name": "tickLower",
              "type": "int24"
            },
            {
              "internalType": "int24",
              "name": "tickUpper",
              "type": "int24"
            },
            {
              "internalType": "uint32",
              "name": "ui",
              "type": "uint32"
            },
            {
              "internalType": "address",
              "name": "kickbackDestination",
              "type": "address"
            },
            {
              "internalType": "uint64",
              "name": "kickbackPortion",
              "type": "uint64"
            }
          ],
          "internalType": "struct IAccounting.PoolPosition",
          "name": "pp",
          "type": "tuple"
        }
      ],
      "stateMutability": "view",
      "type": "function"
    },
    {
      "inputs": [
        {
          "internalType": "address",
          "name": "owner",
          "type": "address"
        }
      ],
      "name": "getPoolPositionNftIdsByOwner",
      "outputs": [
        {
          "internalType": "uint128[]",
          "name": "",
          "type": "uint128[]"
        }
      ],
      "stateMutability": "view",
      "type": "function"
    },
    {
      "inputs": [
        {
          "internalType": "uint64",
          "name": "positionID",
          "type": "uint64"
        }
      ],
      "name": "getPosition",
      "outputs": [
        {
          "components": [
            {
              "internalType": "uint256",
              "name": "startCumulativeDebt",
              "type": "uint256"
            },
            {
              "internalType": "uint256",
              "name": "collateral",
              "type": "uint256"
            },
            {
              "internalType": "uint256",
              "name": "debt",
              "type": "uint256"
            },
            {
              "internalType": "uint256",
              "name": "startDebtExchangeRate",
              "type": "uint256"
            },
            {
              "internalType": "uint256",
              "name": "startTCPRewards",
              "type": "uint256"
            },
            {
              "internalType": "uint64",
              "name": "lastTimeUpdated",
              "type": "uint64"
            },
            {
              "internalType": "uint64",
              "name": "lastBorrowTime",
              "type": "uint64"
            },
            {
              "internalType": "int24",
              "name": "tick",
              "type": "int24"
            },
            {
              "internalType": "bool",
              "name": "tickSet",
              "type": "bool"
            },
            {
              "internalType": "uint64",
              "name": "tickIndex",
              "type": "uint64"
            },
            {
              "internalType": "uint32",
              "name": "ui",
              "type": "uint32"
            },
            {
              "internalType": "address",
              "name": "kickbackDestination",
              "type": "address"
            },
            {
              "internalType": "uint64",
              "name": "kickbackPortion",
              "type": "uint64"
            }
          ],
          "internalType": "struct IAccounting.DebtPosition",
          "name": "dp",
          "type": "tuple"
        }
      ],
      "stateMutability": "view",
      "type": "function"
    },
    {
      "inputs": [
        {
          "internalType": "contract IUniswapV3Pool",
          "name": "pool",
          "type": "address"
        }
      ],
      "name": "getRewardStatus",
      "outputs": [
        {
          "components": [
            {
              "internalType": "uint256",
              "name": "totalRewards",
              "type": "uint256"
            },
            {
              "internalType": "uint256",
              "name": "cumulativeLiquidity",
              "type": "uint256"
            }
          ],
          "internalType": "struct IAccounting.RewardStatus",
          "name": "",
          "type": "tuple"
        }
      ],
      "stateMutability": "view",
      "type": "function"
    },
    {
      "inputs": [],
      "name": "getSystemDebtInfo",
      "outputs": [
        {
          "components": [
            {
              "internalType": "uint256",
              "name": "debt",
              "type": "uint256"
            },
            {
              "internalType": "uint256",
              "name": "totalTCPRewards",
              "type": "uint256"
            },
            {
              "internalType": "uint256",
              "name": "cumulativeDebt",
              "type": "uint256"
            },
            {
              "internalType": "uint256",
              "name": "debtExchangeRate",
              "type": "uint256"
            }
          ],
          "internalType": "struct IAccounting.SystemDebtInfo",
          "name": "",
          "type": "tuple"
        }
      ],
      "stateMutability": "view",
      "type": "function"
    },
    {
      "inputs": [
        {
          "internalType": "uint256",
          "name": "collateralCount",
          "type": "uint256"
        },
        {
          "internalType": "uint256",
          "name": "debtCount",
          "type": "uint256"
        }
      ],
      "name": "getTick",
      "outputs": [
        {
          "internalType": "int24",
          "name": "",
          "type": "int24"
        }
      ],
      "stateMutability": "pure",
      "type": "function"
    },
    {
      "inputs": [
        {
          "internalType": "uint32",
          "name": "start",
          "type": "uint32"
        },
        {
          "internalType": "uint32",
          "name": "end",
          "type": "uint32"
        }
      ],
      "name": "getUIs",
      "outputs": [
        {
          "components": [
            {
              "internalType": "address",
              "name": "kickbackDestination",
              "type": "address"
            },
            {
              "internalType": "uint64",
              "name": "kickbackPortion",
              "type": "uint64"
            },
            {
              "internalType": "enum IAccounting.UIGovernanceRating",
              "name": "governanceRating",
              "type": "uint8"
            },
            {
              "internalType": "uint24",
              "name": "tags",
              "type": "uint24"
            },
            {
              "internalType": "string",
              "name": "ipfsHash",
              "type": "string"
            }
          ],
          "internalType": "struct IAccounting.UserInterface[]",
          "name": "uis",
          "type": "tuple[]"
        }
      ],
      "stateMutability": "view",
      "type": "function"
    },
    {
      "inputs": [],
      "name": "governor",
      "outputs": [
        {
          "internalType": "contract IGovernor",
          "name": "",
          "type": "address"
        }
      ],
      "stateMutability": "view",
      "type": "function"
    },
    {
      "inputs": [],
      "name": "hue",
      "outputs": [
        {
          "internalType": "contract IHue",
          "name": "",
          "type": "address"
        }
      ],
      "stateMutability": "view",
      "type": "function"
    },
    {
      "inputs": [
        {
          "internalType": "uint256",
          "name": "count",
          "type": "uint256"
        }
      ],
      "name": "increaseDebt",
      "outputs": [],
      "stateMutability": "nonpayable",
      "type": "function"
    },
    {
      "inputs": [
        {
          "internalType": "uint256",
          "name": "count",
          "type": "uint256"
        }
      ],
      "name": "increaseLentHue",
      "outputs": [],
      "stateMutability": "nonpayable",
      "type": "function"
    },
    {
      "inputs": [
        {
          "internalType": "contract IUniswapV3Pool",
          "name": "pool",
          "type": "address"
        },
        {
          "internalType": "uint256",
          "name": "liquidity",
          "type": "uint256"
        }
      ],
      "name": "increasePoolLiquidity",
      "outputs": [],
      "stateMutability": "nonpayable",
      "type": "function"
    },
    {
      "inputs": [],
      "name": "init",
      "outputs": [],
      "stateMutability": "nonpayable",
      "type": "function"
    },
    {
      "inputs": [
        {
          "internalType": "uint32",
          "name": "interfaceID",
          "type": "uint32"
        },
        {
          "internalType": "string",
          "name": "ipfsHash",
          "type": "string"
        }
      ],
      "name": "initializeUI",
      "outputs": [],
      "stateMutability": "nonpayable",
      "type": "function"
    },
    {
      "inputs": [],
      "name": "lentHue",
      "outputs": [
        {
          "internalType": "uint256",
          "name": "",
          "type": "uint256"
        }
      ],
      "stateMutability": "view",
      "type": "function"
    },
    {
      "inputs": [],
      "name": "nextUserInterfaceID",
      "outputs": [
        {
          "internalType": "uint32",
          "name": "",
          "type": "uint32"
        }
      ],
      "stateMutability": "view",
      "type": "function"
    },
    {
      "inputs": [],
      "name": "nftPositionManager",
      "outputs": [
        {
          "internalType": "contract INonfungiblePositionManager",
          "name": "",
          "type": "address"
        }
      ],
      "stateMutability": "view",
      "type": "function"
    },
    {
      "inputs": [
        {
          "internalType": "address",
          "name": "",
          "type": "address"
        },
        {
          "internalType": "address",
          "name": "",
          "type": "address"
        },
        {
          "internalType": "uint256",
          "name": "",
          "type": "uint256"
        },
        {
          "internalType": "bytes",
          "name": "",
          "type": "bytes"
        }
      ],
      "name": "onERC721Received",
      "outputs": [
        {
          "internalType": "bytes4",
          "name": "",
          "type": "bytes4"
        }
      ],
      "stateMutability": "pure",
      "type": "function"
    },
    {
      "inputs": [
        {
          "internalType": "address",
          "name": "newRewards",
          "type": "address"
        }
      ],
      "name": "onRewardsUpgrade",
      "outputs": [],
      "stateMutability": "nonpayable",
      "type": "function"
    },
    {
      "inputs": [
        {
          "internalType": "contract IUniswapV3Pool",
          "name": "",
          "type": "address"
        }
      ],
      "name": "poolLiquidity",
      "outputs": [
        {
          "internalType": "uint256",
          "name": "",
          "type": "uint256"
        }
      ],
      "stateMutability": "view",
      "type": "function"
    },
    {
      "inputs": [],
      "name": "poolPositionIndexingEnabled",
      "outputs": [
        {
          "internalType": "bool",
          "name": "",
          "type": "bool"
        }
      ],
      "stateMutability": "view",
      "type": "function"
    },
    {
      "inputs": [
        {
          "internalType": "int24",
          "name": "tick",
          "type": "int24"
        }
      ],
      "name": "positionsForTick",
      "outputs": [
        {
          "internalType": "uint64[]",
          "name": "",
          "type": "uint64[]"
        }
      ],
      "stateMutability": "view",
      "type": "function"
    },
    {
      "inputs": [
        {
          "internalType": "uint64",
          "name": "kickbackPortion",
          "type": "uint64"
        },
        {
          "internalType": "uint24",
          "name": "tags",
          "type": "uint24"
        }
      ],
      "name": "registerUI",
      "outputs": [
        {
          "internalType": "uint32",
          "name": "",
          "type": "uint32"
        }
      ],
      "stateMutability": "nonpayable",
      "type": "function"
    },
    {
      "inputs": [
        {
          "internalType": "address payable",
          "name": "dest",
          "type": "address"
        },
        {
          "internalType": "uint256",
          "name": "count",
          "type": "uint256"
        }
      ],
      "name": "sendCollateral",
      "outputs": [],
      "stateMutability": "nonpayable",
      "type": "function"
    },
    {
      "inputs": [
        {
          "internalType": "address",
          "name": "dest",
          "type": "address"
        },
        {
          "internalType": "uint256",
          "name": "count",
          "type": "uint256"
        }
      ],
      "name": "sendLentHue",
      "outputs": [],
      "stateMutability": "nonpayable",
      "type": "function"
    },
    {
      "inputs": [
        {
          "internalType": "uint256",
          "name": "nftID",
          "type": "uint256"
        },
        {
          "components": [
            {
              "internalType": "address",
              "name": "owner",
              "type": "address"
            },
            {
              "internalType": "uint16",
              "name": "poolID",
              "type": "uint16"
            },
            {
              "internalType": "uint256",
              "name": "cumulativeLiquidity",
              "type": "uint256"
            },
            {
              "internalType": "uint256",
              "name": "totalRewards",
              "type": "uint256"
            },
            {
              "internalType": "uint256",
              "name": "lastBlockPositionIncreased",
              "type": "uint256"
            },
            {
              "internalType": "uint128",
              "name": "liquidity",
              "type": "uint128"
            },
            {
              "internalType": "uint64",
              "name": "lastTimeRewarded",
              "type": "uint64"
            },
            {
              "internalType": "int24",
              "name": "tickLower",
              "type": "int24"
            },
            {
              "internalType": "int24",
              "name": "tickUpper",
              "type": "int24"
            },
            {
              "internalType": "uint32",
              "name": "ui",
              "type": "uint32"
            },
            {
              "internalType": "address",
              "name": "kickbackDestination",
              "type": "address"
            },
            {
              "internalType": "uint64",
              "name": "kickbackPortion",
              "type": "uint64"
            }
          ],
          "internalType": "struct IAccounting.PoolPosition",
          "name": "pp",
          "type": "tuple"
        }
      ],
      "name": "setPoolPosition",
      "outputs": [],
      "stateMutability": "nonpayable",
      "type": "function"
    },
    {
      "inputs": [
        {
          "internalType": "uint64",
          "name": "positionID",
          "type": "uint64"
        },
        {
          "components": [
            {
              "internalType": "uint256",
              "name": "startCumulativeDebt",
              "type": "uint256"
            },
            {
              "internalType": "uint256",
              "name": "collateral",
              "type": "uint256"
            },
            {
              "internalType": "uint256",
              "name": "debt",
              "type": "uint256"
            },
            {
              "internalType": "uint256",
              "name": "startDebtExchangeRate",
              "type": "uint256"
            },
            {
              "internalType": "uint256",
              "name": "startTCPRewards",
              "type": "uint256"
            },
            {
              "internalType": "uint64",
              "name": "lastTimeUpdated",
              "type": "uint64"
            },
            {
              "internalType": "uint64",
              "name": "lastBorrowTime",
              "type": "uint64"
            },
            {
              "internalType": "int24",
              "name": "tick",
              "type": "int24"
            },
            {
              "internalType": "bool",
              "name": "tickSet",
              "type": "bool"
            },
            {
              "internalType": "uint64",
              "name": "tickIndex",
              "type": "uint64"
            },
            {
              "internalType": "uint32",
              "name": "ui",
              "type": "uint32"
            },
            {
              "internalType": "address",
              "name": "kickbackDestination",
              "type": "address"
            },
            {
              "internalType": "uint64",
              "name": "kickbackPortion",
              "type": "uint64"
            }
          ],
          "internalType": "struct IAccounting.DebtPosition",
          "name": "dp",
          "type": "tuple"
        }
      ],
      "name": "setPosition",
      "outputs": [],
      "stateMutability": "nonpayable",
      "type": "function"
    },
    {
      "inputs": [
        {
          "internalType": "contract IUniswapV3Pool",
          "name": "pool",
          "type": "address"
        },
        {
          "components": [
            {
              "internalType": "uint256",
              "name": "totalRewards",
              "type": "uint256"
            },
            {
              "internalType": "uint256",
              "name": "cumulativeLiquidity",
              "type": "uint256"
            }
          ],
          "internalType": "struct IAccounting.RewardStatus",
          "name": "rs",
          "type": "tuple"
        }
      ],
      "name": "setRewardStatus",
      "outputs": [],
      "stateMutability": "nonpayable",
      "type": "function"
    },
    {
      "inputs": [
        {
          "components": [
            {
              "internalType": "uint256",
              "name": "debt",
              "type": "uint256"
            },
            {
              "internalType": "uint256",
              "name": "totalTCPRewards",
              "type": "uint256"
            },
            {
              "internalType": "uint256",
              "name": "cumulativeDebt",
              "type": "uint256"
            },
            {
              "internalType": "uint256",
              "name": "debtExchangeRate",
              "type": "uint256"
            }
          ],
          "internalType": "struct IAccounting.SystemDebtInfo",
          "name": "_sdi",
          "type": "tuple"
        }
      ],
      "name": "setSystemDebtInfo",
      "outputs": [],
      "stateMutability": "nonpayable",
      "type": "function"
    },
    {
      "inputs": [
        {
          "internalType": "int24",
          "name": "rawTick",
          "type": "int24"
        },
        {
          "internalType": "int24",
          "name": "tickSpacing",
          "type": "int24"
        }
      ],
      "name": "snapRawTickToSpacing",
      "outputs": [
        {
          "internalType": "int24",
          "name": "",
          "type": "int24"
        }
      ],
      "stateMutability": "pure",
      "type": "function"
    },
    {
      "inputs": [],
      "name": "stopIndexingDebtPositions",
      "outputs": [],
      "stateMutability": "nonpayable",
      "type": "function"
    },
    {
      "inputs": [],
      "name": "stopIndexingPoolPositions",
      "outputs": [],
      "stateMutability": "nonpayable",
      "type": "function"
    },
    {
      "inputs": [],
      "name": "stopped",
      "outputs": [
        {
          "internalType": "bool",
          "name": "",
          "type": "bool"
        }
      ],
      "stateMutability": "view",
      "type": "function"
    },
    {
      "inputs": [],
      "name": "sweepHue",
      "outputs": [],
      "stateMutability": "nonpayable",
      "type": "function"
    },
    {
      "inputs": [
        {
          "internalType": "uint256",
          "name": "",
          "type": "uint256"
        }
      ],
      "name": "userInterfaces",
      "outputs": [
        {
          "internalType": "address",
          "name": "kickbackDestination",
          "type": "address"
        },
        {
          "internalType": "uint64",
          "name": "kickbackPortion",
          "type": "uint64"
        },
        {
          "internalType": "enum IAccounting.UIGovernanceRating",
          "name": "governanceRating",
          "type": "uint8"
        },
        {
          "internalType": "uint24",
          "name": "tags",
          "type": "uint24"
        },
        {
          "internalType": "string",
          "name": "ipfsHash",
          "type": "string"
        }
      ],
      "stateMutability": "view",
      "type": "function"
    },
    {
      "inputs": [
        {
          "internalType": "bytes4",
          "name": "",
          "type": "bytes4"
        }
      ],
      "name": "validUpdate",
      "outputs": [
        {
          "internalType": "bool",
          "name": "",
          "type": "bool"
        }
      ],
      "stateMutability": "view",
      "type": "function"
    },
    {
      "stateMutability": "payable",
      "type": "receive"
    }
  ],
  "bytecode": "0x60e0604052600160026000509090556001600560006101000a81548160ff0219169083151502179055506001600560016101000a81548160ff0219169083151502179055506001600f60006101000a81548163ffffffff021916908363ffffffff160217905550348015620000745760006000fd5b5060405162007de338038062007de383398181016040528101906200009a919062000471565b5b80600001515b8073ffffffffffffffffffffffffffffffffffffffff1660808173ffffffffffffffffffffffffffffffffffffffff1660601b815260140150505b50806020015173ffffffffffffffffffffffffffffffffffffffff1660c08173ffffffffffffffffffffffffffffffffffffffff1660601b81526014015050806040015173ffffffffffffffffffffffffffffffffffffffff1660a08173ffffffffffffffffffffffffffffffffffffffff1660601b8152601401505062000179670de0b6b3a7640000620003d060201b6200355e17909060201c565b600860005060010160106101000a8154816fffffffffffffffffffffffffffffffff02191690836fffffffffffffffffffffffffffffffff16021790555060016001600050600063461054a360e01b7bffffffffffffffffffffffffffffffffffffffffffffffffffffffff19167bffffffffffffffffffffffffffffffffffffffffffffffffffffffff1916815260200190815260200160002060006101000a81548160ff02191690831515021790555060016001600050600063602db56b60e01b7bffffffffffffffffffffffffffffffffffffffffffffffffffffffff19167bffffffffffffffffffffffffffffffffffffffffffffffffffffffff1916815260200190815260200160002060006101000a81548160ff02191690831515021790555060016001600050600063397d359260e01b7bffffffffffffffffffffffffffffffffffffffffffffffffffffffff19167bffffffffffffffffffffffffffffffffffffffffffffffffffffffff1916815260200190815260200160002060006101000a81548160ff021916908315150217905550600160016000506000630b218d2460e01b7bffffffffffffffffffffffffffffffffffffffffffffffffffffffff19167bffffffffffffffffffffffffffffffffffffffffffffffffffffffff1916815260200190815260200160002060006101000a81548160ff02191690831515021790555033600360006101000a81548173ffffffffffffffffffffffffffffffffffffffff021916908373ffffffffffffffffffffffffffffffffffffffff1602179055505b506200050d565b6000700100000000000000000000000000000000821015156200045e576040517f08c379a00000000000000000000000000000000000000000000000000000000081526004018080602001828103825260128152602001807f6d6f7265207468616e203132382062697473000000000000000000000000000081526020015060200191505060405180910390fd5b81905062000467565b919050566200050c565b60006060828403121562000483578081fd5b604051606081018181106001600160401b0382111715620004a057fe5b80604052508251620004b281620004ef565b808252506020830151620004c681620004ef565b806020830152506040830151620004dd81620004ef565b80604083015250809150505b92915050565b6001600160a01b03811681141515620005085760006000fd5b5b50565b5b60805160601c60a05160601c60c05160601c61783c620005a7600039806118ae528061268f5280612745528061276652806127905250806123b952806134045280614dde5250806103145280610d8b5280610f4752806112d3528061160b528061179f5280611a68528061209552806121a752806122bc52806123ee528061259052806131e1528061377d5280613f33525061783c6000f3fe60806040526004361061030c5760003560e01c80636594da9f1161019a578063bdb2a496116100e1578063d99f57261161008a578063e2b1e9e311610064578063e2b1e9e314610bfe578063f34348f114610c2a578063fd9c749214610c68576103eb565b8063d99f572614610b6a578063dfff5dc414610ba8578063e1c7392a14610be6576103eb565b8063c7711db4116100bb578063c7711db414610ac2578063d159b4ae14610b00578063d5f3948814610b3e576103eb565b8063bdb2a49614610a42578063c0c899ff14610a5a578063c3c837ba14610a84576103eb565b80638439788811610143578063a678f3361161011d578063a678f336146109b0578063b241bbac146109da578063b87e8d5814610a04576103eb565b8063843978881461091c57806396122a5c14610948578063a135ef1714610972576103eb565b806378efc6b01161017457806378efc6b01461089c5780637f250c61146108c6578063816aaa25146108f2576103eb565b80636594da9f1461080757806375ea13ca1461084657806375f12b2114610870576103eb565b806326879a4e1161025e578063461054a3116102075780635a6beaf4116101e15780635a6beaf41461079b578063602db56b146107c557806362502169146107dd576103eb565b8063461054a31461072d57806346ca626b14610745578063530c1ccb14610771576103eb565b80632c73f09e116102385780632c73f09e146106ad57806332374174146106d7578063397d359214610703576103eb565b806326879a4e1461062f5780632a7ba1f7146106595780632b7c7b1114610683576103eb565b80630f85fc5a116102c0578063150b7a021161029a578063150b7a021461057157806318a15e79146105af5780631cef92b1146105f1576103eb565b80630f85fc5a146104cb578063113cf1ab146105095780631428561d14610547576103eb565b80630b218d24116102f15780630b218d24146104495780630c340a24146104735780630dca59c11461049f576103eb565b806306ef2d80146103f1578063092a26c31461041d576103eb565b366103eb575b7f000000000000000000000000000000000000000000000000000000000000000073ffffffffffffffffffffffffffffffffffffffff166380f556056040518163ffffffff1660e01b815260040160206040518083038186803b1580156103795760006000fd5b505afa15801561038e573d600060003e3d6000fd5b505050506040513d601f19601f820116820180604052508101906103b2919061685a565b73ffffffffffffffffffffffffffffffffffffffff163373ffffffffffffffffffffffffffffffffffffffff161415156103e857fe5b5b005b60006000fd5b3480156103fe5760006000fd5b50610407610c94565b60405161041491906176ce565b60405180910390f35b34801561042a5760006000fd5b50610433610cb4565b604051610440919061730d565b60405180910390f35b3480156104565760006000fd5b50610471600480360381019061046c9190616759565b610cc7565b005b3480156104805760006000fd5b50610489610d89565b6040516104969190617355565b60405180910390f35b3480156104ac5760006000fd5b506104b5610dad565b6040516104c291906176ff565b60405180910390f35b3480156104d85760006000fd5b506104f360048036038101906104ee9190616cc2565b610df0565b60405161050091906174fa565b60405180910390f35b3480156105165760006000fd5b50610531600480360381019061052c919061680d565b610f0f565b60405161053e919061730d565b60405180910390f35b3480156105545760006000fd5b5061056f600480360381019061056a9190616961565b610f34565b005b34801561057e5760006000fd5b5061059960048036038101906105949190616682565b6110d5565b6040516105a69190617321565b60405180910390f35b3480156105bc5760006000fd5b506105d760048036038101906105d29190616a55565b61111b565b6040516105e89594939291906170b3565b60405180910390f35b3480156105fe5760006000fd5b50610619600480360381019061061491906168a8565b61123f565b60405161062691906176b1565b60405180910390f35b34801561063c5760006000fd5b5061065760048036038101906106529190616a55565b6112c0565b005b3480156106665760006000fd5b50610681600480360381019061067c9190616a55565b611532565b005b3480156106905760006000fd5b506106ab60048036038101906106a69190616a55565b6115f8565b005b3480156106ba5760006000fd5b506106d560048036038101906106d09190616a55565b61178c565b005b3480156106e45760006000fd5b506106ed6118ac565b6040516106fa919061737d565b60405180910390f35b3480156107105760006000fd5b5061072b60048036038101906107269190616759565b6118d0565b005b34801561073a5760006000fd5b506107436119f7565b005b3480156107525760006000fd5b5061075b611a50565b60405161076891906173cd565b60405180910390f35b34801561077e5760006000fd5b5061079960048036038101906107949190616961565b611a55565b005b3480156107a85760006000fd5b506107c360048036038101906107be9190616ce5565b611bf6565b005b3480156107d25760006000fd5b506107db611df1565b005b3480156107ea5760006000fd5b5061080560048036038101906108009190616651565b611e4a565b005b3480156108145760006000fd5b5061082f600480360381019061082a9190616cc2565b611ec2565b60405161083d929190617711565b60405180910390f35b3480156108535760006000fd5b5061086e60048036038101906108699190616728565b612075565b005b34801561087d5760006000fd5b50610886612181565b604051610893919061730d565b60405180910390f35b3480156108a95760006000fd5b506108c460048036038101906108bf91906169f5565b612194565b005b3480156108d35760006000fd5b506108dc6122a0565b6040516108e991906176ff565b60405180910390f35b3480156108ff5760006000fd5b5061091a60048036038101906109159190616a8d565b6122a9565b005b3480156109295760006000fd5b506109326123b7565b60405161093f91906173a5565b60405180910390f35b3480156109555760006000fd5b50610970600480360381019061096b91906168cf565b6123db565b005b34801561097f5760006000fd5b5061099a600480360381019061099591906168a8565b612540565b6040516109a791906176ff565b60405180910390f35b3480156109bd5760006000fd5b506109d860048036038101906109d3919061662a565b61255b565b005b3480156109e75760006000fd5b50610a0260048036038101906109fd9190616728565b61257d565b005b348015610a115760006000fd5b50610a2c6004803603810190610a27919061662a565b6126cf565b604051610a399190617201565b60405180910390f35b348015610a4f5760006000fd5b50610a58612732565b005b348015610a675760006000fd5b50610a826004803603810190610a7d9190616bd1565b612864565b005b348015610a915760006000fd5b50610aac6004803603810190610aa79190616c8e565b612a2f565b604051610ab99190617117565b60405180910390f35b348015610acf5760006000fd5b50610aea6004803603810190610ae59190616992565b612c9e565b604051610af791906172b5565b60405180910390f35b348015610b0d5760006000fd5b50610b286004803603810190610b239190616bab565b612d5e565b604051610b3591906173cd565b60405180910390f35b348015610b4b5760006000fd5b50610b54612df4565b604051610b619190617032565b60405180910390f35b348015610b775760006000fd5b50610b926004803603810190610b8d91906169b9565b612e1a565b604051610b9f91906173cd565b60405180910390f35b348015610bb55760006000fd5b50610bd06004803603810190610bcb9190616e10565b612e8b565b604051610bdd919061772a565b60405180910390f35b348015610bf35760006000fd5b50610bfc613158565b005b348015610c0b5760006000fd5b50610c1461328d565b604051610c21919061772a565b60405180910390f35b348015610c375760006000fd5b50610c526004803603810190610c4d9190616a55565b6132a3565b604051610c5f91906175d8565b60405180910390f35b348015610c755760006000fd5b50610c7e61354b565b604051610c8b919061730d565b60405180910390f35b610c9c616237565b610caa6135f863ffffffff16565b9050610cb1565b90565b600560009054906101000a900460ff1681565b610cd561377863ffffffff16565b6000600090505b8151811015610d4c576003601060005060008484815181101515610cfc57fe5b602002602001015163ffffffff168152602001908152602001600020600050600001601c6101000a81548160ff02191690836003811115610d3957fe5b02179055505b8080600101915050610cdc565b507f7264e0084cbb7692193b834f40153b973ff4f827f8ed45da32ae6d8e486bb0c781604051610d7c9190617261565b60405180910390a15b5b50565b7f000000000000000000000000000000000000000000000000000000000000000081565b6000600860005060010160009054906101000a90046fffffffffffffffffffffffffffffffff166fffffffffffffffffffffffffffffffff169050610ded565b90565b610df8616262565b610e07826137d863ffffffff16565b90508050600081610140015163ffffffff161115610f02576010600050600082610140015163ffffffff16815260200190815260200160002060005060000160009054906101000a900473ffffffffffffffffffffffffffffffffffffffff1681610160019073ffffffffffffffffffffffffffffffffffffffff16908173ffffffffffffffffffffffffffffffffffffffff16815260200150506010600050600082610140015163ffffffff16815260200190815260200160002060005060000160149054906101000a900467ffffffffffffffff1681610180019067ffffffffffffffff16908167ffffffffffffffff16815260200150505b809050610f0a565b919050565b600160005060205280600052604060002060009150909054906101000a900460ff1681565b610f42613b7463ffffffff16565b61101e7f000000000000000000000000000000000000000000000000000000000000000073ffffffffffffffffffffffffffffffffffffffff16639ec5a8946040518163ffffffff1660e01b815260040160206040518083038186803b158015610fac5760006000fd5b505afa158015610fc1573d600060003e3d6000fd5b505050506040513d601f19601f82011682018060405250810190610fe59190616881565b73ffffffffffffffffffffffffffffffffffffffff163373ffffffffffffffffffffffffffffffffffffffff1614613c0563ffffffff16565b61107681600d60005060008573ffffffffffffffffffffffffffffffffffffffff1673ffffffffffffffffffffffffffffffffffffffff16815260200190815260200160002060005054613c8190919063ffffffff16565b600d60005060008473ffffffffffffffffffffffffffffffffffffffff1673ffffffffffffffffffffffffffffffffffffffff1681526020019081526020016000206000508190909055505b6110d0613d0a63ffffffff16565b5b5050565b60006040517f08c379a00000000000000000000000000000000000000000000000000000000081526004016111099061747c565b60405180910390fd5b95945050505050565b60106000506020528060005260406000206000915090508060000160009054906101000a900473ffffffffffffffffffffffffffffffffffffffff16908060000160149054906101000a900467ffffffffffffffff169080600001601c9054906101000a900460ff169080600001601d9054906101000a900462ffffff1690806001016000508054600181600116156101000203166002900480601f0160208091040260200160405190810160405280929190818152602001828054600181600116156101000203166002900480156112355780601f1061120a57610100808354040283529160200191611235565b820191906000526020600020905b81548152906001019060200180831161121857829003601f168201915b5050505050905085565b611247616316565b600b60005060008373ffffffffffffffffffffffffffffffffffffffff1673ffffffffffffffffffffffffffffffffffffffff1681526020019081526020016000206000506040518060400160405290816000820160005054815260200160018201600050548152602001505090506112bb565b919050565b6112ce613b7463ffffffff16565b6113aa7f000000000000000000000000000000000000000000000000000000000000000073ffffffffffffffffffffffffffffffffffffffff16639ec5a8946040518163ffffffff1660e01b815260040160206040518083038186803b1580156113385760006000fd5b505afa15801561134d573d600060003e3d6000fd5b505050506040513d601f19601f820116820180604052508101906113719190616881565b73ffffffffffffffffffffffffffffffffffffffff163373ffffffffffffffffffffffffffffffffffffffff1614613c0563ffffffff16565b61144d6113be8261355e909063ffffffff16565b600e6000506000600c600050600086815260200190815260200160002060005060000160009054906101000a900473ffffffffffffffffffffffffffffffffffffffff1673ffffffffffffffffffffffffffffffffffffffff1673ffffffffffffffffffffffffffffffffffffffff168152602001908152602001600020600050613d1a90919063ffffffff16565b50600c600050600082815260200190815260200160002060006000820160006101000a81549073ffffffffffffffffffffffffffffffffffffffff02191690556000820160146101000a81549061ffff02191690556000820160166101000a81549063ffffffff021916905560018201600050600090556002820160006101000a81549075ffffffffffffffffffffffffffffffffffffffffffff02191690556002820160166101000a81549064ffffffffff021916905560028201601b6101000a81549064ffffffffff021916905550505b61152e613d0a63ffffffff16565b5b50565b611540613b7463ffffffff16565b61154e613f3163ffffffff16565b6115a76115628261355e909063ffffffff16565b600860005060010160009054906101000a90046fffffffffffffffffffffffffffffffff166fffffffffffffffffffffffffffffffff16613fbf90919063ffffffff16565b600860005060010160006101000a8154816fffffffffffffffffffffffffffffffff02191690836fffffffffffffffffffffffffffffffff1602179055505b6115f4613d0a63ffffffff16565b5b50565b611606613b7463ffffffff16565b6116e27f000000000000000000000000000000000000000000000000000000000000000073ffffffffffffffffffffffffffffffffffffffff166380f556056040518163ffffffff1660e01b815260040160206040518083038186803b1580156116705760006000fd5b505afa158015611685573d600060003e3d6000fd5b505050506040513d601f19601f820116820180604052508101906116a9919061685a565b73ffffffffffffffffffffffffffffffffffffffff163373ffffffffffffffffffffffffffffffffffffffff1614613c0563ffffffff16565b61173b6116f68261355e909063ffffffff16565b600860005060010160009054906101000a90046fffffffffffffffffffffffffffffffff166fffffffffffffffffffffffffffffffff1661406c90919063ffffffff16565b600860005060010160006101000a8154816fffffffffffffffffffffffffffffffff02191690836fffffffffffffffffffffffffffffffff1602179055505b611788613d0a63ffffffff16565b5b50565b61179a613b7463ffffffff16565b6118767f000000000000000000000000000000000000000000000000000000000000000073ffffffffffffffffffffffffffffffffffffffff166380f556056040518163ffffffff1660e01b815260040160206040518083038186803b1580156118045760006000fd5b505afa158015611819573d600060003e3d6000fd5b505050506040513d601f19601f8201168201806040525081019061183d919061685a565b73ffffffffffffffffffffffffffffffffffffffff163373ffffffffffffffffffffffffffffffffffffffff1614613c0563ffffffff16565b61188e81600760005054613c8190919063ffffffff16565b60076000508190909055505b6118a8613d0a63ffffffff16565b5b50565b7f000000000000000000000000000000000000000000000000000000000000000081565b6118de61377863ffffffff16565b6000600090505b81518110156119ba57600060038111156118fb57fe5b60106000506000848481518110151561191057fe5b602002602001015163ffffffff168152602001908152602001600020600050600001601c9054906101000a900460ff16600381111561194b57fe5b1415156119ac57600260106000506000848481518110151561196957fe5b602002602001015163ffffffff168152602001908152602001600020600050600001601c6101000a81548160ff021916908360038111156119a657fe5b02179055505b5b80806001019150506118e5565b507f2e54370527117fb69828eac075cb3ed33fe59712134dfd3ef6efc9bd8b60c1ec816040516119ea9190617261565b60405180910390a15b5b50565b611a0561377863ffffffff16565b6000600560006101000a81548160ff0219169083151502179055507f262b602ad12e3e551a407d5246b500f4ca5a01cc76bbf03e925db643a62a692f60405160405180910390a15b5b565b60c881565b611a63613b7463ffffffff16565b611b3f7f000000000000000000000000000000000000000000000000000000000000000073ffffffffffffffffffffffffffffffffffffffff16639ec5a8946040518163ffffffff1660e01b815260040160206040518083038186803b158015611acd5760006000fd5b505afa158015611ae2573d600060003e3d6000fd5b505050506040513d601f19601f82011682018060405250810190611b069190616881565b73ffffffffffffffffffffffffffffffffffffffff163373ffffffffffffffffffffffffffffffffffffffff1614613c0563ffffffff16565b611b9781600d60005060008573ffffffffffffffffffffffffffffffffffffffff1673ffffffffffffffffffffffffffffffffffffffff1681526020019081526020016000206000505461411990919063ffffffff16565b600d60005060008473ffffffffffffffffffffffffffffffffffffffff1673ffffffffffffffffffffffffffffffffffffffff1681526020019081526020016000206000508190909055505b611bf1613d0a63ffffffff16565b5b5050565b611c04613b7463ffffffff16565b611c12613f3163ffffffff16565b600560009054906101000a900460ff168015611c39575060008267ffffffffffffffff1614155b15611c5357611c4e82826141a263ffffffff16565b905080505b60008160200151148015611c6b575060008160400151145b15611dcc57600460005060008367ffffffffffffffff1667ffffffffffffffff168152602001908152602001600020600060008201600050600090556001820160006101000a8154906fffffffffffffffffffffffffffffffff02191690556001820160106101000a8154906fffffffffffffffffffffffffffffffff02191690556002820160006101000a8154906fffffffffffffffffffffffffffffffff02191690556002820160106101000a8154906fffffffffffffffffffffffffffffffff02191690556003820160006101000a81549067ffffffffffffffff02191690556003820160086101000a81549067ffffffffffffffff02191690556003820160106101000a81549062ffffff02191690556003820160136101000a81549060ff02191690556003820160146101000a81549067ffffffffffffffff021916905560038201601c6101000a81549063ffffffff02191690555050611ddd565b611ddc828261455d63ffffffff16565b5b5b611dec613d0a63ffffffff16565b5b5050565b611dff61377863ffffffff16565b6000600560016101000a81548160ff0219169083151502179055507fc4f6661464541d662c51191d4da5a7a1cc8bca2631698fd030e21b52520a549c60405160405180910390a15b5b565b611e58613b7463ffffffff16565b611e66613f3163ffffffff16565b8173ffffffffffffffffffffffffffffffffffffffff166108fc829081150290604051600060405180830381858888f19350505050158015611ead573d600060003e3d6000fd5b505b611ebd613d0a63ffffffff16565b5b5050565b60006000600460005060008467ffffffffffffffff1667ffffffffffffffff16815260200190815260200160002060005060010160109054906101000a90046fffffffffffffffffffffffffffffffff166fffffffffffffffffffffffffffffffff1691508150600460005060008467ffffffffffffffff1667ffffffffffffffff16815260200190815260200160002060005060010160009054906101000a90046fffffffffffffffffffffffffffffffff166fffffffffffffffffffffffffffffffff16905080506000600460005060008567ffffffffffffffff1667ffffffffffffffff16815260200190815260200160002060005060020160009054906101000a90046fffffffffffffffffffffffffffffffff166fffffffffffffffffffffffffffffffff1690506000831480611ffe5750600081145b1561200f5782829250925050612070565b6000600860005060010160109054906101000a90046fffffffffffffffffffffffffffffffff166fffffffffffffffffffffffffffffffff169050808214151561206d576120688183866148cb9092919063ffffffff16565b935083505b50505b915091565b600560019054906101000a900460ff1615156120905761217d565b61216c7f000000000000000000000000000000000000000000000000000000000000000073ffffffffffffffffffffffffffffffffffffffff16639ec5a8946040518163ffffffff1660e01b815260040160206040518083038186803b1580156120fa5760006000fd5b505afa15801561210f573d600060003e3d6000fd5b505050506040513d601f19601f820116820180604052508101906121339190616881565b73ffffffffffffffffffffffffffffffffffffffff163373ffffffffffffffffffffffffffffffffffffffff1614613c0563ffffffff16565b61217c82826149cc63ffffffff16565b5b5050565b600060009054906101000a900460ff1681565b6121a2613b7463ffffffff16565b61227e7f000000000000000000000000000000000000000000000000000000000000000073ffffffffffffffffffffffffffffffffffffffff166380f556056040518163ffffffff1660e01b815260040160206040518083038186803b15801561220c5760006000fd5b505afa158015612221573d600060003e3d6000fd5b505050506040513d601f19601f82011682018060405250810190612245919061685a565b73ffffffffffffffffffffffffffffffffffffffff163373ffffffffffffffffffffffffffffffffffffffff1614613c0563ffffffff16565b61228d81614a3963ffffffff16565b5b61229c613d0a63ffffffff16565b5b50565b60076000505481565b6122b7613b7463ffffffff16565b6123937f000000000000000000000000000000000000000000000000000000000000000073ffffffffffffffffffffffffffffffffffffffff16639ec5a8946040518163ffffffff1660e01b815260040160206040518083038186803b1580156123215760006000fd5b505afa158015612336573d600060003e3d6000fd5b505050506040513d601f19601f8201168201806040525081019061235a9190616881565b73ffffffffffffffffffffffffffffffffffffffff163373ffffffffffffffffffffffffffffffffffffffff1614613c0563ffffffff16565b6123a38282614bab63ffffffff16565b5b6123b2613d0a63ffffffff16565b5b5050565b7f000000000000000000000000000000000000000000000000000000000000000081565b6123e9613b7463ffffffff16565b6124c57f000000000000000000000000000000000000000000000000000000000000000073ffffffffffffffffffffffffffffffffffffffff16639ec5a8946040518163ffffffff1660e01b815260040160206040518083038186803b1580156124535760006000fd5b505afa158015612468573d600060003e3d6000fd5b505050506040513d601f19601f8201168201806040525081019061248c9190616881565b73ffffffffffffffffffffffffffffffffffffffff163373ffffffffffffffffffffffffffffffffffffffff1614613c0563ffffffff16565b80600b60005060008473ffffffffffffffffffffffffffffffffffffffff1673ffffffffffffffffffffffffffffffffffffffff1681526020019081526020016000206000506000820151816000016000509090556020820151816001016000509090559050505b61253b613d0a63ffffffff16565b5b5050565b600d6000506020528060005260406000206000915090505481565b61256961377863ffffffff16565b61257881614ddc63ffffffff16565b5b5b50565b61258b613b7463ffffffff16565b6126677f000000000000000000000000000000000000000000000000000000000000000073ffffffffffffffffffffffffffffffffffffffff166380f556056040518163ffffffff1660e01b815260040160206040518083038186803b1580156125f55760006000fd5b505afa15801561260a573d600060003e3d6000fd5b505050506040513d601f19601f8201168201806040525081019061262e919061685a565b73ffffffffffffffffffffffffffffffffffffffff163373ffffffffffffffffffffffffffffffffffffffff1614613c0563ffffffff16565b61267f8160076000505461411990919063ffffffff16565b60076000508190909055506126bb7f00000000000000000000000000000000000000000000000000000000000000008383614e7063ffffffff16565b5b6126ca613d0a63ffffffff16565b5b5050565b6060612726600e60005060008473ffffffffffffffffffffffffffffffffffffffff1673ffffffffffffffffffffffffffffffffffffffff16815260200190815260200160002060005061507c909063ffffffff16565b905061272d565b919050565b612740613b7463ffffffff16565b6128527f00000000000000000000000000000000000000000000000000000000000000007f00000000000000000000000000000000000000000000000000000000000000006128476007600050547f000000000000000000000000000000000000000000000000000000000000000073ffffffffffffffffffffffffffffffffffffffff166370a08231306040518263ffffffff1660e01b81526004016127e7919061705a565b60206040518083038186803b1580156128005760006000fd5b505afa158015612815573d600060003e3d6000fd5b505050506040513d601f19601f820116820180604052508101906128399190616a71565b61411990919063ffffffff16565b614e7063ffffffff16565b5b612861613d0a63ffffffff16565b5b565b612872613b7463ffffffff16565b6128f13373ffffffffffffffffffffffffffffffffffffffff16601060005060008563ffffffff16815260200190815260200160002060005060000160009054906101000a900473ffffffffffffffffffffffffffffffffffffffff1673ffffffffffffffffffffffffffffffffffffffff1614613c0563ffffffff16565b6129486000600381111561290157fe5b601060005060008563ffffffff168152602001908152602001600020600050600001601c9054906101000a900460ff16600381111561293c57fe5b14613c0563ffffffff16565b6001601060005060008463ffffffff168152602001908152602001600020600050600001601c6101000a81548160ff0219169083600381111561298757fe5b021790555080601060005060008463ffffffff16815260200190815260200160002060005060010160005090805190602001906129c5929190616333565b503373ffffffffffffffffffffffffffffffffffffffff168263ffffffff167fec673006d787a8f7beffb5435d65c9380768a511390c957f84092e507033f21883604051612a1391906173e2565b60405180910390a35b612a2a613d0a63ffffffff16565b5b5050565b60608163ffffffff168363ffffffff16101515612a4c5760006000fd5b82820363ffffffff1667ffffffffffffffff81118015612a6c5760006000fd5b50604051908082528060200260200182016040528015612aa657816020015b612a936163c6565b815260200190600190039081612a8b5790505b509050805060005b8263ffffffff168463ffffffff161015612c9657601060005060008580600101965063ffffffff1681526020019081526020016000206000506040518060a00160405290816000820160009054906101000a900473ffffffffffffffffffffffffffffffffffffffff1673ffffffffffffffffffffffffffffffffffffffff1673ffffffffffffffffffffffffffffffffffffffff1681526020016000820160149054906101000a900467ffffffffffffffff1667ffffffffffffffff1667ffffffffffffffff16815260200160008201601c9054906101000a900460ff166003811115612b9857fe5b6003811115612ba357fe5b815260200160008201601d9054906101000a900462ffffff1662ffffff1662ffffff168152602001600182016000508054600181600116156101000203166002900480601f016020809104026020016040519081016040528092919081815260200182805460018160011615610100020316600290048015612c665780601f10612c3b57610100808354040283529160200191612c66565b820191906000526020600020905b815481529060010190602001808311612c4957829003601f168201915b5050505050815260200150508282806001019350815181101515612c8657fe5b6020026020010181905250612aae565b505b92915050565b606060066000506000612cb88460c8612e1a63ffffffff16565b60020b60020b8152602001908152602001600020600050805480602002602001604051908101604052809291908181526020018280548015612d4d57602002820191906000526020600020906000905b82829054906101000a900467ffffffffffffffff1667ffffffffffffffff1681526020019060080190602082600701049283019260010382029150808411612d085790505b50505050509050612d59565b919050565b60006000821415612d7457627fffff9050612dee565b600083111515612db9576040517f08c379a0000000000000000000000000000000000000000000000000000000008152600401612db09061743d565b60405180910390fd5b612de7612dda612dcf858561512263ffffffff16565b61518a63ffffffff16565b60c8612e1a63ffffffff16565b9050612dee565b92915050565b600360009054906101000a900473ffffffffffffffffffffffffffffffffffffffff1681565b600060008360020b905060008360020b82811515612e3457fe5b0790506000811415612e4a578492505050612e85565b600060008313612e61578460020b82840303612e65565b8183035b9050612e788161559e909063ffffffff16565b9350505050612e85565050505b92915050565b6000612e9b613b7463ffffffff16565b6703782dace9d9000067ffffffffffffffff168367ffffffffffffffff1611151515612efc576040517f08c379a0000000000000000000000000000000000000000000000000000000008152600401612ef3906174bb565b60405180910390fd5b63ffffffff63ffffffff16600f60009054906101000a900463ffffffff1663ffffffff16101515612f2d5760006000fd5b6000600f600081819054906101000a900463ffffffff168092919060010191906101000a81548163ffffffff021916908363ffffffff16021790555090506040518060a001604052803373ffffffffffffffffffffffffffffffffffffffff1681526020018567ffffffffffffffff16815260200160006003811115612faf57fe5b81526020018462ffffff16815260200160405180602001604052806000815260200150815260200150601060005060008363ffffffff16815260200190815260200160002060005060008201518160000160006101000a81548173ffffffffffffffffffffffffffffffffffffffff021916908373ffffffffffffffffffffffffffffffffffffffff16021790555060208201518160000160146101000a81548167ffffffffffffffff021916908367ffffffffffffffff160217905550604082015181600001601c6101000a81548160ff0219169083600381111561309157fe5b0217905550606082015181600001601d6101000a81548162ffffff021916908362ffffff16021790555060808201518160010160005090805190602001906130da929190616333565b509050508262ffffff163373ffffffffffffffffffffffffffffffffffffffff168263ffffffff167f46f1b99a43c800f57b28bd687fe2fc54e883b31ff06b2a6d863d528925059748876040516131319190617742565b60405180910390a48091505061314356505b613151613d0a63ffffffff16565b5b92915050565b6131b7600360009054906101000a900473ffffffffffffffffffffffffffffffffffffffff1673ffffffffffffffffffffffffffffffffffffffff163373ffffffffffffffffffffffffffffffffffffffff1614613c0563ffffffff16565b600360006101000a81549073ffffffffffffffffffffffffffffffffffffffff021916905561328a7f000000000000000000000000000000000000000000000000000000000000000073ffffffffffffffffffffffffffffffffffffffff16639ec5a8946040518163ffffffff1660e01b815260040160206040518083038186803b1580156132465760006000fd5b505afa15801561325b573d600060003e3d6000fd5b505050506040513d601f19601f8201168201806040525081019061327f9190616881565b614ddc63ffffffff16565b5b565b600f60009054906101000a900463ffffffff1681565b6132ab616428565b6132ba8261565663ffffffff16565b905080506000816020015161ffff1611151561330b576040517f08c379a0000000000000000000000000000000000000000000000000000000008152600401613302906173fe565b60405180910390fd5b600081610120015163ffffffff161115613402576010600050600082610120015163ffffffff16815260200190815260200160002060005060000160149054906101000a900467ffffffffffffffff1681610160019067ffffffffffffffff16908167ffffffffffffffff16815260200150506010600050600082610120015163ffffffff16815260200190815260200160002060005060000160009054906101000a900473ffffffffffffffffffffffffffffffffffffffff1681610140019073ffffffffffffffffffffffffffffffffffffffff16908173ffffffffffffffffffffffffffffffffffffffff16815260200150505b7f000000000000000000000000000000000000000000000000000000000000000073ffffffffffffffffffffffffffffffffffffffff166399fbab88836040518263ffffffff1660e01b815260040161345b91906176ff565b6101806040518083038186803b1580156134755760006000fd5b505afa15801561348a573d600060003e3d6000fd5b505050506040513d601f19601f820116820180604052508101906134ae9190616e48565b909192939495969798999a509091929394959697989950909192939495969798509091929394959697509091929394959650909192509091509050508360e00184610100018560a0018390906fffffffffffffffffffffffffffffffff166fffffffffffffffffffffffffffffffff1681526020015083909060020b60020b81526020015083909060020b60020b8152602001505050505b919050565b600560019054906101000a900460ff1681565b6000700100000000000000000000000000000000821015156135eb576040517f08c379a00000000000000000000000000000000000000000000000000000000081526004018080602001828103825260128152602001807f6d6f7265207468616e203132382062697473000000000000000000000000000081526020015060200191505060405180910390fd5b8190506135f3565b919050565b613600616237565b60006008600050604051806080016040529081600082016000505481526020016001820160009054906101000a90046fffffffffffffffffffffffffffffffff166fffffffffffffffffffffffffffffffff166fffffffffffffffffffffffffffffffff1681526020016001820160109054906101000a90046fffffffffffffffffffffffffffffffff166fffffffffffffffffffffffffffffffff166fffffffffffffffffffffffffffffffff1681526020016002820160009054906101000a90046fffffffffffffffffffffffffffffffff166fffffffffffffffffffffffffffffffff166fffffffffffffffffffffffffffffffff16815260200150509050604051806080016040528082602001516fffffffffffffffffffffffffffffffff16815260200182606001516fffffffffffffffffffffffffffffffff1681526020018260000151815260200182604001516fffffffffffffffffffffffffffffffff1681526020015091505061377556505b90565b6137d57f000000000000000000000000000000000000000000000000000000000000000073ffffffffffffffffffffffffffffffffffffffff163373ffffffffffffffffffffffffffffffffffffffff1614613c0563ffffffff16565b5b565b6137e0616262565b6000600460005060008467ffffffffffffffff1667ffffffffffffffff16815260200190815260200160002060005060405180610160016040529081600082016000505481526020016001820160009054906101000a90046fffffffffffffffffffffffffffffffff166fffffffffffffffffffffffffffffffff166fffffffffffffffffffffffffffffffff1681526020016001820160109054906101000a90046fffffffffffffffffffffffffffffffff166fffffffffffffffffffffffffffffffff166fffffffffffffffffffffffffffffffff1681526020016002820160009054906101000a90046fffffffffffffffffffffffffffffffff166fffffffffffffffffffffffffffffffff166fffffffffffffffffffffffffffffffff1681526020016002820160109054906101000a90046fffffffffffffffffffffffffffffffff166fffffffffffffffffffffffffffffffff166fffffffffffffffffffffffffffffffff1681526020016003820160009054906101000a900467ffffffffffffffff1667ffffffffffffffff1667ffffffffffffffff1681526020016003820160089054906101000a900467ffffffffffffffff1667ffffffffffffffff1667ffffffffffffffff1681526020016003820160109054906101000a900460020b60020b60020b81526020016003820160139054906101000a900460ff161515151581526020016003820160149054906101000a900467ffffffffffffffff1667ffffffffffffffff1667ffffffffffffffff16815260200160038201601c9054906101000a900463ffffffff1663ffffffff1663ffffffff16815260200150509050604051806101a001604052808260000151815260200182602001516fffffffffffffffffffffffffffffffff16815260200182604001516fffffffffffffffffffffffffffffffff16815260200182606001516fffffffffffffffffffffffffffffffff16815260200182608001516fffffffffffffffffffffffffffffffff1681526020018260a0015167ffffffffffffffff1681526020018260c0015167ffffffffffffffff1681526020018260e0015160020b81526020018261010001511515815260200182610120015167ffffffffffffffff16815260200182610140015163ffffffff168152602001600073ffffffffffffffffffffffffffffffffffffffff168152602001600067ffffffffffffffff16815260200150915050613b6f56505b919050565b600260026000505414151515613bf5576040517f08c379a000000000000000000000000000000000000000000000000000000000815260040180806020018281038252600d8152602001807f4c43205265656e7472616e63790000000000000000000000000000000000000081526020015060200191505060405180910390fd5b600260026000508190909055505b565b801515613c7d576040517f08c379a000000000000000000000000000000000000000000000000000000000815260040180806020018281038252600e8152602001807f4e6f7420417574686f72697a656400000000000000000000000000000000000081526020015060200191505060405180910390fd5b5b50565b60008282840191508110151515613d03576040517f08c379a000000000000000000000000000000000000000000000000000000000815260040180806020018281038252600c8152602001807f6164642d6f766572666c6f77000000000000000000000000000000000000000081526020015060200191505060405180910390fd5b5b92915050565b600160026000508190909055505b565b60006000836001016000506000846fffffffffffffffffffffffffffffffff166fffffffffffffffffffffffffffffffff168152602001908152602001600020600050549050600081141515613f1f57600060018203905060006001866000016000508054905003905060008660000160005082815481101515613d9a57fe5b90600052602060002090600291828204019190066010025b9054906101000a90046fffffffffffffffffffffffffffffffff169050808760000160005084815481101515613de457fe5b90600052602060002090600291828204019190066010025b6101000a8154816fffffffffffffffffffffffffffffffff02191690836fffffffffffffffffffffffffffffffff16021790555060018301876001016000506000836fffffffffffffffffffffffffffffffff166fffffffffffffffffffffffffffffffff168152602001908152602001600020600050819090905550866000016000508054801515613e8b57fe5b60019003818190600052602060002090600291828204019190066010025b6101000a8154906fffffffffffffffffffffffffffffffff02191690559055866001016000506000876fffffffffffffffffffffffffffffffff166fffffffffffffffffffffffffffffffff168152602001908152602001600020600050600090556001945050505050613f2b56505050613f29565b6000915050613f2b565b505b92915050565b7f000000000000000000000000000000000000000000000000000000000000000073ffffffffffffffffffffffffffffffffffffffff16637c114fed336040518263ffffffff1660e01b8152600401613f8a919061705a565b60006040518083038186803b158015613fa35760006000fd5b505afa158015613fb8573d600060003e3d6000fd5b505050505b565b6000826fffffffffffffffffffffffffffffffff168284039150816fffffffffffffffffffffffffffffffff1611151515614065576040517f08c379a000000000000000000000000000000000000000000000000000000000815260040180806020018281038252600d8152602001807f7375622d756e646572666c6f770000000000000000000000000000000000000081526020015060200191505060405180910390fd5b5b92915050565b6000826fffffffffffffffffffffffffffffffff168284019150816fffffffffffffffffffffffffffffffff1610151515614112576040517f08c379a000000000000000000000000000000000000000000000000000000000815260040180806020018281038252600c8152602001807f6164642d6f766572666c6f77000000000000000000000000000000000000000081526020015060200191505060405180910390fd5b5b92915050565b6000828284039150811115151561419b576040517f08c379a000000000000000000000000000000000000000000000000000000000815260040180806020018281038252600d8152602001807f7375622d756e646572666c6f770000000000000000000000000000000000000081526020015060200191505060405180910390fd5b5b92915050565b6141aa616262565b6000600460005060008567ffffffffffffffff1667ffffffffffffffff16815260200190815260200160002060005060030160139054906101000a900460ff1690506000816141fc57627fffff61423b565b600460005060008667ffffffffffffffff1667ffffffffffffffff16815260200190815260200160002060005060030160109054906101000a900460020b5b90506000600460005060008767ffffffffffffffff1667ffffffffffffffff16815260200190815260200160002060005060030160149054906101000a900467ffffffffffffffff16905060006142a086602001518760400151612d5e63ffffffff16565b90508060020b8360020b14151561454757808660e0019060020b908160020b815260200150506000627fffff60020b8460020b121561446d57600660005060008560020b60020b815260200190815260200160002060005090508050600061431660018380549050036158ec909063ffffffff16565b90508067ffffffffffffffff168467ffffffffffffffff1614151561442a576000828267ffffffffffffffff1681548110151561434f57fe5b90600052602060002090600491828204019190066008025b9054906101000a900467ffffffffffffffff16905080838667ffffffffffffffff1681548110151561439557fe5b90600052602060002090600491828204019190066008025b6101000a81548167ffffffffffffffff021916908367ffffffffffffffff16021790555084600460005060008367ffffffffffffffff1667ffffffffffffffff16815260200190815260200160002060005060030160146101000a81548167ffffffffffffffff021916908367ffffffffffffffff160217905550505b81805480151561443657fe5b60019003818190600052602060002090600491828204019190066008025b6101000a81549067ffffffffffffffff02191690559055505b627fffff60020b8260020b121561454557600660005060008360020b60020b8152602001908152602001600020600050905080506144b681805490506158ec909063ffffffff16565b87610120019067ffffffffffffffff16908167ffffffffffffffff1681526020015050600187610100019015159081151581526020015050808890806001815401808255809150506001900390600052602060002090600491828204019190066008025b9091909190916101000a81548167ffffffffffffffff021916908367ffffffffffffffff1602179055505b505b8594505050505061455756505050505b92915050565b60405180610160016040528082600001518152602001614588836020015161355e909063ffffffff16565b6fffffffffffffffffffffffffffffffff1681526020016145b4836040015161355e909063ffffffff16565b6fffffffffffffffffffffffffffffffff1681526020016145e0836060015161355e909063ffffffff16565b6fffffffffffffffffffffffffffffffff16815260200161460c836080015161355e909063ffffffff16565b6fffffffffffffffffffffffffffffffff1681526020018260a0015167ffffffffffffffff1681526020018260c0015167ffffffffffffffff1681526020018260e0015160020b81526020018261010001511515815260200182610120015167ffffffffffffffff16815260200182610140015163ffffffff16815260200150600460005060008467ffffffffffffffff1667ffffffffffffffff16815260200190815260200160002060005060008201518160000160005090905560208201518160010160006101000a8154816fffffffffffffffffffffffffffffffff02191690836fffffffffffffffffffffffffffffffff16021790555060408201518160010160106101000a8154816fffffffffffffffffffffffffffffffff02191690836fffffffffffffffffffffffffffffffff16021790555060608201518160020160006101000a8154816fffffffffffffffffffffffffffffffff02191690836fffffffffffffffffffffffffffffffff16021790555060808201518160020160106101000a8154816fffffffffffffffffffffffffffffffff02191690836fffffffffffffffffffffffffffffffff16021790555060a08201518160030160006101000a81548167ffffffffffffffff021916908367ffffffffffffffff16021790555060c08201518160030160086101000a81548167ffffffffffffffff021916908367ffffffffffffffff16021790555060e08201518160030160106101000a81548162ffffff021916908360020b62ffffff1602179055506101008201518160030160136101000a81548160ff0219169083151502179055506101208201518160030160146101000a81548167ffffffffffffffff021916908367ffffffffffffffff16021790555061014082015181600301601c6101000a81548163ffffffff021916908363ffffffff1602179055509050505b5050565b600060006000600019858709858702925082811083820303915050600081141561490e576000841115156148ff5760006000fd5b838204925082925050506149c5565b808411151561491d5760006000fd5b60008486880990508281118203915080830392506000858660000316905080860495508084049350600181826000030401905080830284179350835060006002876003021890508087026002038102905080508087026002038102905080508087026002038102905080508087026002038102905080508087026002038102905080508087026002038102905080508085029550855085955050505050506149c55650505050505b9392505050565b614a336149e08261355e909063ffffffff16565b600e60005060008573ffffffffffffffffffffffffffffffffffffffff1673ffffffffffffffffffffffffffffffffffffffff16815260200190815260200160002060005061597e90919063ffffffff16565b505b5050565b604051806080016040528082604001518152602001614a63836000015161355e909063ffffffff16565b6fffffffffffffffffffffffffffffffff168152602001614a8f836060015161355e909063ffffffff16565b6fffffffffffffffffffffffffffffffff168152602001614abb836020015161355e909063ffffffff16565b6fffffffffffffffffffffffffffffffff16815260200150600860005060008201518160000160005090905560208201518160010160006101000a8154816fffffffffffffffffffffffffffffffff02191690836fffffffffffffffffffffffffffffffff16021790555060408201518160010160106101000a8154816fffffffffffffffffffffffffffffffff02191690836fffffffffffffffffffffffffffffffff16021790555060608201518160020160006101000a8154816fffffffffffffffffffffffffffffffff02191690836fffffffffffffffffffffffffffffffff1602179055509050505b50565b6040518060e00160405280826000015173ffffffffffffffffffffffffffffffffffffffff168152602001826020015161ffff16815260200182610120015163ffffffff16815260200182604001518152602001614c148360600151615a6f909063ffffffff16565b75ffffffffffffffffffffffffffffffffffffffffffff168152602001614c508360c0015167ffffffffffffffff16615b0f909063ffffffff16565b64ffffffffff168152602001614c718360800151615b0f909063ffffffff16565b64ffffffffff16815260200150600c600050600084815260200190815260200160002060005060008201518160000160006101000a81548173ffffffffffffffffffffffffffffffffffffffff021916908373ffffffffffffffffffffffffffffffffffffffff16021790555060208201518160000160146101000a81548161ffff021916908361ffff16021790555060408201518160000160166101000a81548163ffffffff021916908363ffffffff16021790555060608201518160010160005090905560808201518160020160006101000a81548175ffffffffffffffffffffffffffffffffffffffffffff021916908375ffffffffffffffffffffffffffffffffffffffffffff16021790555060a08201518160020160166101000a81548164ffffffffff021916908364ffffffffff16021790555060c082015181600201601b6101000a81548164ffffffffff021916908364ffffffffff1602179055509050505b5050565b7f000000000000000000000000000000000000000000000000000000000000000073ffffffffffffffffffffffffffffffffffffffff1663a22cb4658260016040518363ffffffff1660e01b8152600401614e38929190617082565b600060405180830381600087803b158015614e535760006000fd5b505af1158015614e68573d600060003e3d6000fd5b505050505b50565b600060008473ffffffffffffffffffffffffffffffffffffffff1663a9059cbb60e01b8585604051602401808373ffffffffffffffffffffffffffffffffffffffff16815260200182815260200192505050604051602081830303815290604052907bffffffffffffffffffffffffffffffffffffffffffffffffffffffff19166020820180517bffffffffffffffffffffffffffffffffffffffffffffffffffffffff83818316178352505050506040518082805190602001908083835b602083101515614f5557805182525b602082019150602081019050602083039250614f2f565b6001836020036101000a0380198251168184511680821785525050505050509050019150506000604051808303816000865af19150503d8060008114614fb7576040519150601f19603f3d011682016040523d82523d6000602084013e614fbc565b606091505b5091509150818015614ffd5750600081511480614ffc5750808060200190516020811015614fea5760006000fd5b81019080805190602001909291905050505b5b1515615074576040517f08c379a00000000000000000000000000000000000000000000000000000000081526004018080602001828103825260028152602001807f535400000000000000000000000000000000000000000000000000000000000081526020015060200191505060405180910390fd5b50505b505050565b60608160000160005080548060200260200160405190810160405280929190818152602001828054801561511357602002820191906000526020600020906000905b82829054906101000a90046fffffffffffffffffffffffffffffffff166fffffffffffffffffffffffffffffffff1681526020019060100190602082600f010492830192600103820291508084116150be5790505b5050505050905080505b919050565b600061517d61517066010000000000006151626151576c0100000000000000000000000087896148cb9092919063ffffffff16565b615b9e63ffffffff16565b615c1190919063ffffffff16565b615caf909063ffffffff16565b9050615184565b92915050565b60006401000276a373ffffffffffffffffffffffffffffffffffffffff168273ffffffffffffffffffffffffffffffffffffffff161015801561520c575073fffd8963efd1fc6a506488495d951d5263988d2673ffffffffffffffffffffffffffffffffffffffff168273ffffffffffffffffffffffffffffffffffffffff16105b1515615283576040517f08c379a00000000000000000000000000000000000000000000000000000000081526004018080602001828103825260018152602001807f520000000000000000000000000000000000000000000000000000000000000081526020015060200191505060405180910390fd5b600060208373ffffffffffffffffffffffffffffffffffffffff16901b905060008190506000600090506fffffffffffffffffffffffffffffffff821160071b808217915082811c92505067ffffffffffffffff821160061b808217915082811c92505063ffffffff821160051b808217915082811c92505061ffff821160041b808217915082811c92505060ff821160031b808217915082811c925050600f821160021b808217915082811c9250506003821160011b808217915082811c9250506001821180821791505060808110151561536957607f810383901c91508150615375565b80607f0383901b915081505b6000604060808303901b9050828302607f1c92508260801c80603f1b8217915083811c935050828302607f1c92508260801c80603e1b8217915083811c935050828302607f1c92508260801c80603d1b8217915083811c935050828302607f1c92508260801c80603c1b8217915083811c935050828302607f1c92508260801c80603b1b8217915083811c935050828302607f1c92508260801c80603a1b8217915083811c935050828302607f1c92508260801c8060391b8217915083811c935050828302607f1c92508260801c8060381b8217915083811c935050828302607f1c92508260801c8060371b8217915083811c935050828302607f1c92508260801c8060361b8217915083811c935050828302607f1c92508260801c8060351b8217915083811c935050828302607f1c92508260801c8060341b8217915083811c935050828302607f1c92508260801c8060331b8217915083811c935050828302607f1c92508260801c8060321b82179150506000693627a301d71055774c8582029050600060806f028f6481ab7f045a5af012a19d003aaa8303901d9050600060806fdb2df09e81959a81455e260799a0632f8401901d90508060020b8260020b1461558b578873ffffffffffffffffffffffffffffffffffffffff1661556282615d4d63ffffffff16565b73ffffffffffffffffffffffffffffffffffffffff1611156155845781615586565b805b61558d565b815b97508750505050505050505b919050565b60007fffffffffffffffffffffffffffffffffffffffffffffffffffffffffff80000082121580156155d257506280000082125b1515615649576040517f08c379a00000000000000000000000000000000000000000000000000000000081526004018080602001828103825260118152602001807f6d6f7265207468616e203234206269747300000000000000000000000000000081526020015060200191505060405180910390fd5b819050615651565b919050565b61565e616428565b6000600c60005060008481526020019081526020016000206000506040518060e00160405290816000820160009054906101000a900473ffffffffffffffffffffffffffffffffffffffff1673ffffffffffffffffffffffffffffffffffffffff1673ffffffffffffffffffffffffffffffffffffffff1681526020016000820160149054906101000a900461ffff1661ffff1661ffff1681526020016000820160169054906101000a900463ffffffff1663ffffffff1663ffffffff168152602001600182016000505481526020016002820160009054906101000a900475ffffffffffffffffffffffffffffffffffffffffffff1675ffffffffffffffffffffffffffffffffffffffffffff1675ffffffffffffffffffffffffffffffffffffffffffff1681526020016002820160169054906101000a900464ffffffffff1664ffffffffff1664ffffffffff16815260200160028201601b9054906101000a900464ffffffffff1664ffffffffff1664ffffffffff16815260200150509050604051806101800160405280826000015173ffffffffffffffffffffffffffffffffffffffff168152602001826020015161ffff16815260200182606001518152602001826080015175ffffffffffffffffffffffffffffffffffffffffffff1681526020018260c0015164ffffffffff16815260200160006fffffffffffffffffffffffffffffffff1681526020018260a0015164ffffffffff1667ffffffffffffffff168152602001600060020b8152602001600060020b8152602001826040015163ffffffff168152602001600073ffffffffffffffffffffffffffffffffffffffff168152602001600067ffffffffffffffff168152602001509150506158e756505b919050565b60006801000000000000000082101515615971576040517f08c379a00000000000000000000000000000000000000000000000000000000081526004018080602001828103825260118152602001807f6d6f7265207468616e203634206269747300000000000000000000000000000081526020015060200191505060405180910390fd5b819050615979565b919050565b600061599083836161e463ffffffff16565b1515615a5f57826000016000508290806001815401808255809150506001900390600052602060002090600291828204019190066010025b9091909190916101000a8154816fffffffffffffffffffffffffffffffff02191690836fffffffffffffffffffffffffffffffff1602179055508260000160005080549050836001016000506000846fffffffffffffffffffffffffffffffff166fffffffffffffffffffffffffffffffff16815260200190815260200160002060005081909090555060019050615a6956615a68565b60009050615a69565b5b92915050565b600076010000000000000000000000000000000000000000000082101515615b02576040517f08c379a00000000000000000000000000000000000000000000000000000000081526004018080602001828103825260128152602001807f6d6f7265207468616e203137362062697473000000000000000000000000000081526020015060200191505060405180910390fd5b819050615b0a565b919050565b60006501000000000082101515615b91576040517f08c379a00000000000000000000000000000000000000000000000000000000081526004018080602001828103825260118152602001807f6d6f7265207468616e203430206269747300000000000000000000000000000081526020015060200191505060405180910390fd5b819050615b99565b919050565b60006003821115615bf957819050805060006001600284811515615bbe57fe5b040190505b81811015615bf35780915081506002818285811515615bde57fe5b0401811515615be957fe5b0490508050615bc3565b50615c0b565b600082141515615c0a576001905080505b5b5b919050565b60006000821480615c3157508282838502925082811515615c2e57fe5b04145b1515615ca8576040517f08c379a000000000000000000000000000000000000000000000000000000000815260040180806020018281038252600c8152602001807f6d756c2d6f766572666c6f77000000000000000000000000000000000000000081526020015060200191505060405180910390fd5b5b92915050565b60007401000000000000000000000000000000000000000082101515615d40576040517f08c379a00000000000000000000000000000000000000000000000000000000081526004018080602001828103825260128152602001807f6d6f7265207468616e203136302062697473000000000000000000000000000081526020015060200191505060405180910390fd5b819050615d48565b919050565b6000600060008360020b12615d65578260020b615d6d565b8260020b6000035b90507ffffffffffffffffffffffffffffffffffffffffffffffffffffffffffff2761860000360020b8111151515615e10576040517f08c379a00000000000000000000000000000000000000000000000000000000081526004018080602001828103825260018152602001807f540000000000000000000000000000000000000000000000000000000000000081526020015060200191505060405180910390fd5b60006000600183161415615e3557700100000000000000000000000000000000615e47565b6ffffcb933bd6fad37aa2d162d1a5940015b70ffffffffffffffffffffffffffffffffff169050600060028316141515615e855760806ffff97272373d413259a46990580e213a8202901c905080505b600060048316141515615eae5760806ffff2e50f5f656932ef12357cf3c7fdcc8202901c905080505b600060088316141515615ed75760806fffe5caca7e10e4e61c3624eaa0941cd08202901c905080505b600060108316141515615f005760806fffcb9843d60f6159c9db58835c9266448202901c905080505b600060208316141515615f295760806fff973b41fa98c081472e6896dfb254c08202901c905080505b600060408316141515615f525760806fff2ea16466c96a3843ec78b326b528618202901c905080505b600060808316141515615f7b5760806ffe5dee046a99a2a811c461f1969c30538202901c905080505b60006101008316141515615fa55760806ffcbe86c7900a88aedcffc83b479aa3a48202901c905080505b60006102008316141515615fcf5760806ff987a7253ac413176f2b074cf7815e548202901c905080505b60006104008316141515615ff95760806ff3392b0822b70005940c7a398e4b70f38202901c905080505b600061080083161415156160235760806fe7159475a2c29b7443b29c7fa6e889d98202901c905080505b6000611000831614151561604d5760806fd097f3bdfd2022b8845ad8f792aa58258202901c905080505b600061200083161415156160775760806fa9f746462d870fdf8a65dc1f90e061e58202901c905080505b600061400083161415156160a15760806f70d869a156d2a1b890bb3df62baf32f78202901c905080505b600061800083161415156160cb5760806f31be135f97d08fd981231505542fcfa68202901c905080505b60006201000083161415156160f65760806f09aa508b5b7a84e1c677de54f3e99bc98202901c905080505b60006202000083161415156161205760806e5d6af8dedb81196699c329225ee6048202901c905080505b60006204000083161415156161495760806d2216e584f5fa1ea926041bedfe988202901c905080505b60006208000083161415156161705760806b048a170391f7dc42444e8fa28202901c905080505b60008460020b13156161ad57807fffffffffffffffffffffffffffffffffffffffffffffffffffffffffffffffff8115156161a757fe5b04905080505b6000640100000000828115156161bf57fe5b06146161cc5760016161cf565b60005b60ff16602082901c019250825050505b919050565b60006000836001016000506000846fffffffffffffffffffffffffffffffff166fffffffffffffffffffffffffffffffff1681526020019081526020016000206000505414159050616231565b92915050565b6040518060800160405280600081526020016000815260200160008152602001600081526020015090565b604051806101a001604052806000815260200160008152602001600081526020016000815260200160008152602001600067ffffffffffffffff168152602001600067ffffffffffffffff168152602001600060020b8152602001600015158152602001600067ffffffffffffffff168152602001600063ffffffff168152602001600073ffffffffffffffffffffffffffffffffffffffff168152602001600067ffffffffffffffff1681526020015090565b604051806040016040528060008152602001600081526020015090565b828054600181600116156101000203166002900490600052602060002090601f01602090048101928261636957600085556163b5565b82601f1061638257805160ff19168380011785556163b5565b828001600101855582156163b5579182015b828111156163b45782518260005090905591602001919060010190616394565b5b5090506163c291906164ee565b5090565b6040518060a00160405280600073ffffffffffffffffffffffffffffffffffffffff168152602001600067ffffffffffffffff1681526020016000600381111561640c57fe5b8152602001600062ffffff168152602001606081526020015090565b604051806101800160405280600073ffffffffffffffffffffffffffffffffffffffff168152602001600061ffff16815260200160008152602001600081526020016000815260200160006fffffffffffffffffffffffffffffffff168152602001600067ffffffffffffffff168152602001600060020b8152602001600060020b8152602001600063ffffffff168152602001600073ffffffffffffffffffffffffffffffffffffffff168152602001600067ffffffffffffffff1681526020015090565b6164f3565b8082111561650d57600081815060009055506001016164f3565b509056617805565b60008135905061652481617789565b5b919050565b60008151905061653981617789565b5b919050565b600081359050801515811415156165565760006000fd5b5b919050565b60008135905061656b816177b2565b5b919050565b600081519050616580816177b2565b5b919050565b600081359050616595816177c8565b5b919050565b6000815190506165aa816177c8565b5b919050565b60008135905061ffff8116811415156165c95760006000fd5b5b919050565b6000815190506165de816177ed565b5b919050565b60008135905063ffffffff8116811415156165ff5760006000fd5b5b919050565b60008135905067ffffffffffffffff8116811415156166245760006000fd5b5b919050565b60006020828403121561663b578081fd5b813561664681617789565b809150505b92915050565b6000600060408385031215616664578081fd5b823561666f81617789565b80925050602083013590505b9250929050565b600060006000600060006080868803121561669b578081fd5b85356166a681617789565b8095505060208601356166b881617789565b8094505060408601359250606086013567ffffffffffffffff808211156166dd578283fd5b818801915088601f83011215156166f2578283fd5b813581811115616700578384fd5b896020828501011115616711578384fd5b6020830194508093505050505b9295509295909350565b600060006040838503121561673b578182fd5b823561674681617789565b80925050602083013590505b9250929050565b6000602080838503121561676b578182fd5b823567ffffffffffffffff80821115616782578384fd5b818501915085601f8301121515616797578384fd5b8135818111156167a357fe5b83810291506167b384830161775e565b80828252858201915085850189878688010111156167cf578788fd5b8795505b838610156167fc576167e4816165e4565b8352868301925086810190505b6001860195506167d3565b508096505050505050505b92915050565b60006020828403121561681e578081fd5b81357fffffffff0000000000000000000000000000000000000000000000000000000081168114151561684f578182fd5b809150505b92915050565b60006020828403121561686b578081fd5b815161687681617789565b809150505b92915050565b600060208284031215616892578081fd5b815161689d81617789565b809150505b92915050565b6000602082840312156168b9578081fd5b81356168c481617789565b809150505b92915050565b6000600082840360608112156168e3578283fd5b83356168ee81617789565b8093505060407fffffffffffffffffffffffffffffffffffffffffffffffffffffffffffffffe082011215616921578182fd5b506040516040810181811067ffffffffffffffff8211171561693f57fe5b80604052506020840135815260408401356020820152809150505b9250929050565b6000600060408385031215616974578182fd5b823561697f81617789565b80925050602083013590505b9250929050565b6000602082840312156169a3578081fd5b81356169ae816177b2565b809150505b92915050565b60006000604083850312156169cc578182fd5b82356169d7816177b2565b8092505060208301356169e9816177b2565b809150505b9250929050565b600060808284031215616a06578081fd5b6040516080810181811067ffffffffffffffff82111715616a2357fe5b806040525082358152602083013560208201526040830135604082015260608301356060820152809150505b92915050565b600060208284031215616a66578081fd5b813590505b92915050565b600060208284031215616a82578081fd5b815190505b92915050565b600060008284036101a0811215616aa2578283fd5b83359250610180807fffffffffffffffffffffffffffffffffffffffffffffffffffffffffffffffe083011215616ad7578283fd5b616ae08161775e565b9150616aee60208601616515565b8252616afc604086016165b0565b6020830152606085013560408301526080850135606083015260a08501356080830152616b2b60c08601616586565b60a0830152616b3c60e08601616605565b60c0830152610100616b4f81870161655c565b60e0840152610120616b6281880161655c565b828501526101409150616b768288016165e4565b8185015250610160616b89818801616515565b82850152616b98838801616605565b81850152505050809150505b9250929050565b6000600060408385031215616bbe578182fd5b82359150602083013590505b9250929050565b6000600060408385031215616be4578182fd5b616bed836165e4565b915060208084013567ffffffffffffffff80821115616c0a578384fd5b818601915086601f8301121515616c1f578384fd5b813581811115616c2b57fe5b616c5b847fffffffffffffffffffffffffffffffffffffffffffffffffffffffffffffffe0601f8401160161775e565b91508082528784828501011115616c70578485fd5b808484018584013784848284010152508093505050505b9250929050565b6000600060408385031215616ca1578182fd5b616caa836165e4565b9150616cb8602084016165e4565b90505b9250929050565b600060208284031215616cd3578081fd5b616cdc82616605565b90505b92915050565b600060008284036101c0811215616cfa578283fd5b616d0384616605565b92506101a0807fffffffffffffffffffffffffffffffffffffffffffffffffffffffffffffffe083011215616d36578283fd5b616d3f8161775e565b91506020850135825260408501356020830152606085013560408301526080850135606083015260a08501356080830152616d7c60c08601616605565b60a0830152616d8d60e08601616605565b60c0830152610100616da081870161655c565b60e0840152610120616db381880161653f565b828501526101409150616dc7828801616605565b8185015250610160616dda8188016165e4565b828501526101809150616dee828801616515565b8185015250616dfe828701616605565b818401525050809150505b9250929050565b6000600060408385031215616e23578182fd5b616e2c83616605565b91506020830135616e3c816177ed565b809150505b9250929050565b6000600060006000600060006000600060006000600060006101808d8f031215616e7057898afd5b8c516bffffffffffffffffffffffff811681141515616e8d578a8bfd5b809c5050616e9d60208e0161652a565b9a50616eab60408e0161652a565b9950616eb960608e0161652a565b9850616ec760808e016165cf565b9750616ed560a08e01616571565b9650616ee360c08e01616571565b9550616ef160e08e0161659b565b94506101008d015193506101208d01519250616f106101408e0161659b565b9150616f1f6101608e0161659b565b90505b9295989b509295989b509295989b565b73ffffffffffffffffffffffffffffffffffffffff811682525b5050565b80151582525b5050565b600481101515616f6657fe5b8082525b5050565b8060020b82525b5050565b60008151808452815b81811015616fa5576020808286010151818388010152505b602081019050616f82565b81811115616fb65782602083870101525b5060207fffffffffffffffffffffffffffffffffffffffffffffffffffffffffffffffe0601f8301168501019150505b92915050565b6fffffffffffffffffffffffffffffffff811682525b5050565b61ffff811682525b5050565b63ffffffff811682525b5050565b67ffffffffffffffff811682525b5050565b600060208201905073ffffffffffffffffffffffffffffffffffffffff831682525b92915050565b600060208201905073ffffffffffffffffffffffffffffffffffffffff831682525b92915050565b600060408201905073ffffffffffffffffffffffffffffffffffffffff8416825282151560208301525b9392505050565b600073ffffffffffffffffffffffffffffffffffffffff8716825267ffffffffffffffff861660208301526170eb6040830186616f5a565b62ffffff8416606083015260a0608083015261710a60a0830184616f79565b90505b9695505050505050565b6000602080830181845280855180835260409250828601915082848202870101848801865b838110156171f0577fffffffffffffffffffffffffffffffffffffffffffffffffffffffffffffffc0898403018552815160a073ffffffffffffffffffffffffffffffffffffffff825116855267ffffffffffffffff898301511689860152878201516171ab89870182616f5a565b50606062ffffff8184015116818701525060808083015192508181870152506171d681860183616f79565b94505050868201915086850194505b60018101905061713c565b505080955050505050505b92915050565b600060208083018184528085518083526040860191508387019250845b81811015617252576fffffffffffffffffffffffffffffffff8451168352848301925084840193505b60018101905061721e565b50508093505050505b92915050565b600060208083018184528085518083526040860191508387019250845b818110156172a65763ffffffff8451168352848301925084840193505b60018101905061727e565b50508093505050505b92915050565b600060208083018184528085518083526040860191508387019250845b818110156172fe5767ffffffffffffffff8451168352848301925084840193505b6001810190506172d2565b50508093505050505b92915050565b600060208201905082151582525b92915050565b60006020820190507fffffffff00000000000000000000000000000000000000000000000000000000831682525b92915050565b600060208201905073ffffffffffffffffffffffffffffffffffffffff831682525b92915050565b600060208201905073ffffffffffffffffffffffffffffffffffffffff831682525b92915050565b600060208201905073ffffffffffffffffffffffffffffffffffffffff831682525b92915050565b60006020820190508260020b82525b92915050565b6000602082526173f56020830184616f79565b90505b92915050565b600060208252600c60208301527f506f736974696f6e20444e45000000000000000000000000000000000000000060408301526060820190505b919050565b600060208252601760208301527f4465627420776974686f757420636f6c6c61746572616c00000000000000000060408301526060820190505b919050565b600060208252601d60208301527f446f6573206e6f7420616363657074204e465473206469726563746c7900000060408301526060820190505b919050565b600060208252601560208301527f4d6178206b69636b6261636b206578636565646564000000000000000000000060408301526060820190505b919050565b60006101a082019050825182526020830151602083015260408301516040830152606083015160608301526080830151608083015260a083015161754160a0840182617020565b5060c083015161755460c0840182617020565b5060e083015161756760e0840182616f6e565b506101008084015161757b82850182616f50565b50506101208084015161759082850182617020565b5050610140808401516175a582850182617012565b5050610160808401516175ba82850182616f32565b5050610180808401516175cf82850182617020565b50505b92915050565b6000610180820190506175ec828451616f32565b60208301516175fe6020840182617006565b5060408301516040830152606083015160608301526080830151608083015260a083015161762f60a0840182616fec565b5060c083015161764260c0840182617020565b5060e083015161765560e0840182616f6e565b506101008084015161766982850182616f6e565b50506101208084015161767e82850182617012565b50506101408084015161769382850182616f32565b5050610160808401516176a882850182617020565b50505b92915050565b600060408201905082518252602083015160208301525b92915050565b6000608082019050825182526020830151602083015260408301516040830152606083015160608301525b92915050565b60006020820190508282525b92915050565b60006040820190508382528260208301525b9392505050565b600060208201905063ffffffff831682525b92915050565b600060208201905067ffffffffffffffff831682525b92915050565b6000604051905081810181811067ffffffffffffffff8211171561777e57fe5b80604052505b919050565b73ffffffffffffffffffffffffffffffffffffffff8116811415156177ae5760006000fd5b5b50565b8060020b811415156177c45760006000fd5b5b50565b6fffffffffffffffffffffffffffffffff8116811415156177e95760006000fd5b5b50565b62ffffff8116811415156178015760006000fd5b5b50565bfea26469706673582212200cb2542c4bb936a99a922d425c7c6226685df631907fc0d5d7468759acdeb07364736f6c63430007060033",
  "linkReferences": {},
  "deployedLinkReferences": {}
}