{
  "_format": "hh-sol-artifact-1",
  "contractName": "Accounting",
  "sourceName": "contracts/core/storage/Accounting.sol",
  "abi": [
    {
      "inputs": [
        {
          "components": [
            {
              "internalType": "contract IGovernor",
              "name": "Governor",
              "type": "address"
            },
            {
              "internalType": "contract IHue",
              "name": "Hue",
              "type": "address"
            },
            {
              "internalType": "contract INonfungiblePositionManager",
              "name": "NftPositionManager",
              "type": "address"
            }
          ],
          "internalType": "struct IAccounting.ConstructorParams",
          "name": "params",
          "type": "tuple"
        }
      ],
      "stateMutability": "nonpayable",
      "type": "constructor"
    },
    {
      "anonymous": false,
      "inputs": [],
      "name": "DebtPositionIndexingDisabled",
      "type": "event"
    },
    {
      "anonymous": false,
      "inputs": [],
      "name": "PoolPositionIndexingDisabled",
      "type": "event"
    },
    {
      "anonymous": false,
      "inputs": [],
      "name": "Stopped",
      "type": "event"
    },
    {
      "anonymous": false,
      "inputs": [
        {
          "indexed": true,
          "internalType": "uint32",
          "name": "interfaceID",
          "type": "uint32"
        },
        {
          "indexed": true,
          "internalType": "address",
          "name": "kickbackDestination",
          "type": "address"
        },
        {
          "indexed": false,
          "internalType": "string",
          "name": "ipfsHash",
          "type": "string"
        }
      ],
      "name": "UIInitialized",
      "type": "event"
    },
    {
      "anonymous": false,
      "inputs": [
        {
          "indexed": true,
          "internalType": "uint32",
          "name": "interfaceID",
          "type": "uint32"
        },
        {
          "indexed": true,
          "internalType": "address",
          "name": "kickbackDestination",
          "type": "address"
        },
        {
          "indexed": true,
          "internalType": "uint24",
          "name": "tags",
          "type": "uint24"
        },
        {
          "indexed": false,
          "internalType": "uint256",
          "name": "kickbackPortion",
          "type": "uint256"
        }
      ],
      "name": "UIRegistered",
      "type": "event"
    },
    {
      "anonymous": false,
      "inputs": [
        {
          "indexed": false,
          "internalType": "uint32[]",
          "name": "uis",
          "type": "uint32[]"
        }
      ],
      "name": "UIsApproved",
      "type": "event"
    },
    {
      "anonymous": false,
      "inputs": [
        {
          "indexed": false,
          "internalType": "uint32[]",
          "name": "uis",
          "type": "uint32[]"
        }
      ],
      "name": "UIsDisapproved",
      "type": "event"
    },
    {
      "inputs": [],
      "name": "TICK_SPACING",
      "outputs": [
        {
          "internalType": "int24",
          "name": "",
          "type": "int24"
        }
      ],
      "stateMutability": "view",
      "type": "function"
    },
    {
      "inputs": [
        {
          "internalType": "address",
          "name": "owner",
          "type": "address"
        },
        {
          "internalType": "uint256",
          "name": "nftID",
          "type": "uint256"
        }
      ],
      "name": "addPositionToIndex",
      "outputs": [],
      "stateMutability": "nonpayable",
      "type": "function"
    },
    {
      "inputs": [
        {
          "internalType": "uint32[]",
          "name": "ids",
          "type": "uint32[]"
        }
      ],
      "name": "approveUIs",
      "outputs": [],
      "stateMutability": "nonpayable",
      "type": "function"
    },
    {
      "inputs": [],
      "name": "debt",
      "outputs": [
        {
          "internalType": "uint256",
          "name": "",
          "type": "uint256"
        }
      ],
      "stateMutability": "view",
      "type": "function"
    },
    {
      "inputs": [],
      "name": "debtPositionIndexingEnabled",
      "outputs": [
        {
          "internalType": "bool",
          "name": "",
          "type": "bool"
        }
      ],
      "stateMutability": "view",
      "type": "function"
    },
    {
      "inputs": [
        {
          "internalType": "uint256",
          "name": "count",
          "type": "uint256"
        }
      ],
      "name": "decreaseDebt",
      "outputs": [],
      "stateMutability": "nonpayable",
      "type": "function"
    },
    {
      "inputs": [
        {
          "internalType": "contract IUniswapV3Pool",
          "name": "pool",
          "type": "address"
        },
        {
          "internalType": "uint256",
          "name": "liquidity",
          "type": "uint256"
        }
      ],
      "name": "decreasePoolLiquidity",
      "outputs": [],
      "stateMutability": "nonpayable",
      "type": "function"
    },
    {
      "inputs": [
        {
          "internalType": "uint256",
          "name": "nftID",
          "type": "uint256"
        }
      ],
      "name": "deletePoolPosition",
      "outputs": [],
      "stateMutability": "nonpayable",
      "type": "function"
    },
    {
      "inputs": [],
      "name": "deployer",
      "outputs": [
        {
          "internalType": "address",
          "name": "",
          "type": "address"
        }
      ],
      "stateMutability": "view",
      "type": "function"
    },
    {
      "inputs": [
        {
          "internalType": "uint32[]",
          "name": "ids",
          "type": "uint32[]"
        }
      ],
      "name": "disapproveUIs",
      "outputs": [],
      "stateMutability": "nonpayable",
      "type": "function"
    },
    {
      "inputs": [
        {
          "internalType": "uint64",
          "name": "positionID",
          "type": "uint64"
        }
      ],
      "name": "getBasicPositionInfo",
      "outputs": [
        {
          "internalType": "uint256",
          "name": "debtCount",
          "type": "uint256"
        },
        {
          "internalType": "uint256",
          "name": "collateralCount",
          "type": "uint256"
        }
      ],
      "stateMutability": "view",
      "type": "function"
    },
    {
      "inputs": [
        {
          "internalType": "uint256",
          "name": "nftID",
          "type": "uint256"
        }
      ],
      "name": "getPoolPosition",
      "outputs": [
        {
          "components": [
            {
              "internalType": "address",
              "name": "owner",
              "type": "address"
            },
            {
              "internalType": "uint16",
              "name": "poolID",
              "type": "uint16"
            },
            {
              "internalType": "uint256",
              "name": "cumulativeLiquidity",
              "type": "uint256"
            },
            {
              "internalType": "uint256",
              "name": "totalRewards",
              "type": "uint256"
            },
            {
              "internalType": "uint256",
              "name": "lastBlockPositionIncreased",
              "type": "uint256"
            },
            {
              "internalType": "uint128",
              "name": "liquidity",
              "type": "uint128"
            },
            {
              "internalType": "uint64",
              "name": "lastTimeRewarded",
              "type": "uint64"
            },
            {
              "internalType": "int24",
              "name": "tickLower",
              "type": "int24"
            },
            {
              "internalType": "int24",
              "name": "tickUpper",
              "type": "int24"
            },
            {
              "internalType": "uint32",
              "name": "ui",
              "type": "uint32"
            },
            {
              "internalType": "address",
              "name": "kickbackDestination",
              "type": "address"
            },
            {
              "internalType": "uint64",
              "name": "kickbackPortion",
              "type": "uint64"
            }
          ],
          "internalType": "struct IAccounting.PoolPosition",
          "name": "pp",
          "type": "tuple"
        }
      ],
      "stateMutability": "view",
      "type": "function"
    },
    {
      "inputs": [
        {
          "internalType": "address",
          "name": "owner",
          "type": "address"
        }
      ],
      "name": "getPoolPositionNftIdsByOwner",
      "outputs": [
        {
          "internalType": "uint128[]",
          "name": "",
          "type": "uint128[]"
        }
      ],
      "stateMutability": "view",
      "type": "function"
    },
    {
      "inputs": [
        {
          "internalType": "uint64",
          "name": "positionID",
          "type": "uint64"
        }
      ],
      "name": "getPosition",
      "outputs": [
        {
          "components": [
            {
              "internalType": "uint256",
              "name": "startCumulativeDebt",
              "type": "uint256"
            },
            {
              "internalType": "uint256",
              "name": "collateral",
              "type": "uint256"
            },
            {
              "internalType": "uint256",
              "name": "debt",
              "type": "uint256"
            },
            {
              "internalType": "uint256",
              "name": "startDebtExchangeRate",
              "type": "uint256"
            },
            {
              "internalType": "uint256",
              "name": "startTCPRewards",
              "type": "uint256"
            },
            {
              "internalType": "uint64",
              "name": "lastTimeUpdated",
              "type": "uint64"
            },
            {
              "internalType": "uint64",
              "name": "lastBorrowTime",
              "type": "uint64"
            },
            {
              "internalType": "int24",
              "name": "tick",
              "type": "int24"
            },
            {
              "internalType": "bool",
              "name": "tickSet",
              "type": "bool"
            },
            {
              "internalType": "uint64",
              "name": "tickIndex",
              "type": "uint64"
            },
            {
              "internalType": "uint32",
              "name": "ui",
              "type": "uint32"
            },
            {
              "internalType": "address",
              "name": "kickbackDestination",
              "type": "address"
            },
            {
              "internalType": "uint64",
              "name": "kickbackPortion",
              "type": "uint64"
            }
          ],
          "internalType": "struct IAccounting.DebtPosition",
          "name": "dp",
          "type": "tuple"
        }
      ],
      "stateMutability": "view",
      "type": "function"
    },
    {
      "inputs": [
        {
          "internalType": "contract IUniswapV3Pool",
          "name": "pool",
          "type": "address"
        }
      ],
      "name": "getRewardStatus",
      "outputs": [
        {
          "components": [
            {
              "internalType": "uint256",
              "name": "totalRewards",
              "type": "uint256"
            },
            {
              "internalType": "uint256",
              "name": "cumulativeLiquidity",
              "type": "uint256"
            }
          ],
          "internalType": "struct IAccounting.RewardStatus",
          "name": "",
          "type": "tuple"
        }
      ],
      "stateMutability": "view",
      "type": "function"
    },
    {
      "inputs": [],
      "name": "getSystemDebtInfo",
      "outputs": [
        {
          "components": [
            {
              "internalType": "uint256",
              "name": "debt",
              "type": "uint256"
            },
            {
              "internalType": "uint256",
              "name": "totalTCPRewards",
              "type": "uint256"
            },
            {
              "internalType": "uint256",
              "name": "cumulativeDebt",
              "type": "uint256"
            },
            {
              "internalType": "uint256",
              "name": "debtExchangeRate",
              "type": "uint256"
            }
          ],
          "internalType": "struct IAccounting.SystemDebtInfo",
          "name": "",
          "type": "tuple"
        }
      ],
      "stateMutability": "view",
      "type": "function"
    },
    {
      "inputs": [
        {
          "internalType": "uint256",
          "name": "collateralCount",
          "type": "uint256"
        },
        {
          "internalType": "uint256",
          "name": "debtCount",
          "type": "uint256"
        }
      ],
      "name": "getTick",
      "outputs": [
        {
          "internalType": "int24",
          "name": "",
          "type": "int24"
        }
      ],
      "stateMutability": "pure",
      "type": "function"
    },
    {
      "inputs": [
        {
          "internalType": "uint32",
          "name": "start",
          "type": "uint32"
        },
        {
          "internalType": "uint32",
          "name": "end",
          "type": "uint32"
        }
      ],
      "name": "getUIs",
      "outputs": [
        {
          "components": [
            {
              "internalType": "address",
              "name": "kickbackDestination",
              "type": "address"
            },
            {
              "internalType": "uint64",
              "name": "kickbackPortion",
              "type": "uint64"
            },
            {
              "internalType": "enum IAccounting.UIGovernanceRating",
              "name": "governanceRating",
              "type": "uint8"
            },
            {
              "internalType": "uint24",
              "name": "tags",
              "type": "uint24"
            },
            {
              "internalType": "string",
              "name": "ipfsHash",
              "type": "string"
            }
          ],
          "internalType": "struct IAccounting.UserInterface[]",
          "name": "uis",
          "type": "tuple[]"
        }
      ],
      "stateMutability": "view",
      "type": "function"
    },
    {
      "inputs": [],
      "name": "governor",
      "outputs": [
        {
          "internalType": "contract IGovernor",
          "name": "",
          "type": "address"
        }
      ],
      "stateMutability": "view",
      "type": "function"
    },
    {
      "inputs": [],
      "name": "hue",
      "outputs": [
        {
          "internalType": "contract IHue",
          "name": "",
          "type": "address"
        }
      ],
      "stateMutability": "view",
      "type": "function"
    },
    {
      "inputs": [
        {
          "internalType": "uint256",
          "name": "count",
          "type": "uint256"
        }
      ],
      "name": "increaseDebt",
      "outputs": [],
      "stateMutability": "nonpayable",
      "type": "function"
    },
    {
      "inputs": [
        {
          "internalType": "uint256",
          "name": "count",
          "type": "uint256"
        }
      ],
      "name": "increaseLentHue",
      "outputs": [],
      "stateMutability": "nonpayable",
      "type": "function"
    },
    {
      "inputs": [
        {
          "internalType": "contract IUniswapV3Pool",
          "name": "pool",
          "type": "address"
        },
        {
          "internalType": "uint256",
          "name": "liquidity",
          "type": "uint256"
        }
      ],
      "name": "increasePoolLiquidity",
      "outputs": [],
      "stateMutability": "nonpayable",
      "type": "function"
    },
    {
      "inputs": [],
      "name": "init",
      "outputs": [],
      "stateMutability": "nonpayable",
      "type": "function"
    },
    {
      "inputs": [
        {
          "internalType": "uint32",
          "name": "interfaceID",
          "type": "uint32"
        },
        {
          "internalType": "string",
          "name": "ipfsHash",
          "type": "string"
        }
      ],
      "name": "initializeUI",
      "outputs": [],
      "stateMutability": "nonpayable",
      "type": "function"
    },
    {
      "inputs": [],
      "name": "lentHue",
      "outputs": [
        {
          "internalType": "uint256",
          "name": "",
          "type": "uint256"
        }
      ],
      "stateMutability": "view",
      "type": "function"
    },
    {
      "inputs": [],
      "name": "nextUserInterfaceID",
      "outputs": [
        {
          "internalType": "uint32",
          "name": "",
          "type": "uint32"
        }
      ],
      "stateMutability": "view",
      "type": "function"
    },
    {
      "inputs": [],
      "name": "nftPositionManager",
      "outputs": [
        {
          "internalType": "contract INonfungiblePositionManager",
          "name": "",
          "type": "address"
        }
      ],
      "stateMutability": "view",
      "type": "function"
    },
    {
      "inputs": [
        {
          "internalType": "address",
          "name": "",
          "type": "address"
        },
        {
          "internalType": "address",
          "name": "",
          "type": "address"
        },
        {
          "internalType": "uint256",
          "name": "",
          "type": "uint256"
        },
        {
          "internalType": "bytes",
          "name": "",
          "type": "bytes"
        }
      ],
      "name": "onERC721Received",
      "outputs": [
        {
          "internalType": "bytes4",
          "name": "",
          "type": "bytes4"
        }
      ],
      "stateMutability": "pure",
      "type": "function"
    },
    {
      "inputs": [
        {
          "internalType": "address",
          "name": "newRewards",
          "type": "address"
        }
      ],
      "name": "onRewardsUpgrade",
      "outputs": [],
      "stateMutability": "nonpayable",
      "type": "function"
    },
    {
      "inputs": [
        {
          "internalType": "contract IUniswapV3Pool",
          "name": "",
          "type": "address"
        }
      ],
      "name": "poolLiquidity",
      "outputs": [
        {
          "internalType": "uint256",
          "name": "",
          "type": "uint256"
        }
      ],
      "stateMutability": "view",
      "type": "function"
    },
    {
      "inputs": [],
      "name": "poolPositionIndexingEnabled",
      "outputs": [
        {
          "internalType": "bool",
          "name": "",
          "type": "bool"
        }
      ],
      "stateMutability": "view",
      "type": "function"
    },
    {
      "inputs": [
        {
          "internalType": "int24",
          "name": "tick",
          "type": "int24"
        }
      ],
      "name": "positionsForTick",
      "outputs": [
        {
          "internalType": "uint64[]",
          "name": "",
          "type": "uint64[]"
        }
      ],
      "stateMutability": "view",
      "type": "function"
    },
    {
      "inputs": [
        {
          "internalType": "uint64",
          "name": "kickbackPortion",
          "type": "uint64"
        },
        {
          "internalType": "uint24",
          "name": "tags",
          "type": "uint24"
        }
      ],
      "name": "registerUI",
      "outputs": [
        {
          "internalType": "uint32",
          "name": "",
          "type": "uint32"
        }
      ],
      "stateMutability": "nonpayable",
      "type": "function"
    },
    {
      "inputs": [
        {
          "internalType": "address payable",
          "name": "dest",
          "type": "address"
        },
        {
          "internalType": "uint256",
          "name": "count",
          "type": "uint256"
        }
      ],
      "name": "sendCollateral",
      "outputs": [],
      "stateMutability": "nonpayable",
      "type": "function"
    },
    {
      "inputs": [
        {
          "internalType": "address",
          "name": "dest",
          "type": "address"
        },
        {
          "internalType": "uint256",
          "name": "count",
          "type": "uint256"
        }
      ],
      "name": "sendLentHue",
      "outputs": [],
      "stateMutability": "nonpayable",
      "type": "function"
    },
    {
      "inputs": [
        {
          "internalType": "uint256",
          "name": "nftID",
          "type": "uint256"
        },
        {
          "components": [
            {
              "internalType": "address",
              "name": "owner",
              "type": "address"
            },
            {
              "internalType": "uint16",
              "name": "poolID",
              "type": "uint16"
            },
            {
              "internalType": "uint256",
              "name": "cumulativeLiquidity",
              "type": "uint256"
            },
            {
              "internalType": "uint256",
              "name": "totalRewards",
              "type": "uint256"
            },
            {
              "internalType": "uint256",
              "name": "lastBlockPositionIncreased",
              "type": "uint256"
            },
            {
              "internalType": "uint128",
              "name": "liquidity",
              "type": "uint128"
            },
            {
              "internalType": "uint64",
              "name": "lastTimeRewarded",
              "type": "uint64"
            },
            {
              "internalType": "int24",
              "name": "tickLower",
              "type": "int24"
            },
            {
              "internalType": "int24",
              "name": "tickUpper",
              "type": "int24"
            },
            {
              "internalType": "uint32",
              "name": "ui",
              "type": "uint32"
            },
            {
              "internalType": "address",
              "name": "kickbackDestination",
              "type": "address"
            },
            {
              "internalType": "uint64",
              "name": "kickbackPortion",
              "type": "uint64"
            }
          ],
          "internalType": "struct IAccounting.PoolPosition",
          "name": "pp",
          "type": "tuple"
        }
      ],
      "name": "setPoolPosition",
      "outputs": [],
      "stateMutability": "nonpayable",
      "type": "function"
    },
    {
      "inputs": [
        {
          "internalType": "uint64",
          "name": "positionID",
          "type": "uint64"
        },
        {
          "components": [
            {
              "internalType": "uint256",
              "name": "startCumulativeDebt",
              "type": "uint256"
            },
            {
              "internalType": "uint256",
              "name": "collateral",
              "type": "uint256"
            },
            {
              "internalType": "uint256",
              "name": "debt",
              "type": "uint256"
            },
            {
              "internalType": "uint256",
              "name": "startDebtExchangeRate",
              "type": "uint256"
            },
            {
              "internalType": "uint256",
              "name": "startTCPRewards",
              "type": "uint256"
            },
            {
              "internalType": "uint64",
              "name": "lastTimeUpdated",
              "type": "uint64"
            },
            {
              "internalType": "uint64",
              "name": "lastBorrowTime",
              "type": "uint64"
            },
            {
              "internalType": "int24",
              "name": "tick",
              "type": "int24"
            },
            {
              "internalType": "bool",
              "name": "tickSet",
              "type": "bool"
            },
            {
              "internalType": "uint64",
              "name": "tickIndex",
              "type": "uint64"
            },
            {
              "internalType": "uint32",
              "name": "ui",
              "type": "uint32"
            },
            {
              "internalType": "address",
              "name": "kickbackDestination",
              "type": "address"
            },
            {
              "internalType": "uint64",
              "name": "kickbackPortion",
              "type": "uint64"
            }
          ],
          "internalType": "struct IAccounting.DebtPosition",
          "name": "dp",
          "type": "tuple"
        }
      ],
      "name": "setPosition",
      "outputs": [],
      "stateMutability": "nonpayable",
      "type": "function"
    },
    {
      "inputs": [
        {
          "internalType": "contract IUniswapV3Pool",
          "name": "pool",
          "type": "address"
        },
        {
          "components": [
            {
              "internalType": "uint256",
              "name": "totalRewards",
              "type": "uint256"
            },
            {
              "internalType": "uint256",
              "name": "cumulativeLiquidity",
              "type": "uint256"
            }
          ],
          "internalType": "struct IAccounting.RewardStatus",
          "name": "rs",
          "type": "tuple"
        }
      ],
      "name": "setRewardStatus",
      "outputs": [],
      "stateMutability": "nonpayable",
      "type": "function"
    },
    {
      "inputs": [
        {
          "components": [
            {
              "internalType": "uint256",
              "name": "debt",
              "type": "uint256"
            },
            {
              "internalType": "uint256",
              "name": "totalTCPRewards",
              "type": "uint256"
            },
            {
              "internalType": "uint256",
              "name": "cumulativeDebt",
              "type": "uint256"
            },
            {
              "internalType": "uint256",
              "name": "debtExchangeRate",
              "type": "uint256"
            }
          ],
          "internalType": "struct IAccounting.SystemDebtInfo",
          "name": "_sdi",
          "type": "tuple"
        }
      ],
      "name": "setSystemDebtInfo",
      "outputs": [],
      "stateMutability": "nonpayable",
      "type": "function"
    },
    {
      "inputs": [
        {
          "internalType": "int24",
          "name": "rawTick",
          "type": "int24"
        },
        {
          "internalType": "int24",
          "name": "tickSpacing",
          "type": "int24"
        }
      ],
      "name": "snapRawTickToSpacing",
      "outputs": [
        {
          "internalType": "int24",
          "name": "",
          "type": "int24"
        }
      ],
      "stateMutability": "pure",
      "type": "function"
    },
    {
      "inputs": [],
      "name": "stopIndexingDebtPositions",
      "outputs": [],
      "stateMutability": "nonpayable",
      "type": "function"
    },
    {
      "inputs": [],
      "name": "stopIndexingPoolPositions",
      "outputs": [],
      "stateMutability": "nonpayable",
      "type": "function"
    },
    {
      "inputs": [],
      "name": "stopped",
      "outputs": [
        {
          "internalType": "bool",
          "name": "",
          "type": "bool"
        }
      ],
      "stateMutability": "view",
      "type": "function"
    },
    {
      "inputs": [],
      "name": "sweepHue",
      "outputs": [],
      "stateMutability": "nonpayable",
      "type": "function"
    },
    {
      "inputs": [
        {
          "internalType": "uint256",
          "name": "",
          "type": "uint256"
        }
      ],
      "name": "userInterfaces",
      "outputs": [
        {
          "internalType": "address",
          "name": "kickbackDestination",
          "type": "address"
        },
        {
          "internalType": "uint64",
          "name": "kickbackPortion",
          "type": "uint64"
        },
        {
          "internalType": "enum IAccounting.UIGovernanceRating",
          "name": "governanceRating",
          "type": "uint8"
        },
        {
          "internalType": "uint24",
          "name": "tags",
          "type": "uint24"
        },
        {
          "internalType": "string",
          "name": "ipfsHash",
          "type": "string"
        }
      ],
      "stateMutability": "view",
      "type": "function"
    },
    {
      "inputs": [
        {
          "internalType": "bytes4",
          "name": "",
          "type": "bytes4"
        }
      ],
      "name": "validUpdate",
      "outputs": [
        {
          "internalType": "bool",
          "name": "",
          "type": "bool"
        }
      ],
      "stateMutability": "view",
      "type": "function"
    },
    {
      "stateMutability": "payable",
      "type": "receive"
    }
  ],
  "bytecode": "0x60e0604052600160026000509090556001600560006101000a81548160ff0219169083151502179055506001600560016101000a81548160ff0219169083151502179055506001600f60006101000a81548163ffffffff021916908363ffffffff160217905550348015620000745760006000fd5b5060405162008b5438038062008b5483398181016040528101906200009a91906200043d565b5b80600001515b8073ffffffffffffffffffffffffffffffffffffffff1660808173ffffffffffffffffffffffffffffffffffffffff1660601b815260140150505b50806020015173ffffffffffffffffffffffffffffffffffffffff1660c08173ffffffffffffffffffffffffffffffffffffffff1660601b81526014015050806040015173ffffffffffffffffffffffffffffffffffffffff1660a08173ffffffffffffffffffffffffffffffffffffffff1660601b8152601401505062000179670de0b6b3a7640000620003d060201b6200383f17909060201c565b600860005060010160106101000a8154816fffffffffffffffffffffffffffffffff02191690836fffffffffffffffffffffffffffffffff16021790555060016001600050600063461054a360e01b7bffffffffffffffffffffffffffffffffffffffffffffffffffffffff19167bffffffffffffffffffffffffffffffffffffffffffffffffffffffff1916815260200190815260200160002060006101000a81548160ff02191690831515021790555060016001600050600063602db56b60e01b7bffffffffffffffffffffffffffffffffffffffffffffffffffffffff19167bffffffffffffffffffffffffffffffffffffffffffffffffffffffff1916815260200190815260200160002060006101000a81548160ff02191690831515021790555060016001600050600063397d359260e01b7bffffffffffffffffffffffffffffffffffffffffffffffffffffffff19167bffffffffffffffffffffffffffffffffffffffffffffffffffffffff1916815260200190815260200160002060006101000a81548160ff021916908315150217905550600160016000506000630b218d2460e01b7bffffffffffffffffffffffffffffffffffffffffffffffffffffffff19167bffffffffffffffffffffffffffffffffffffffffffffffffffffffff1916815260200190815260200160002060006101000a81548160ff02191690831515021790555033600360006101000a81548173ffffffffffffffffffffffffffffffffffffffff021916908373ffffffffffffffffffffffffffffffffffffffff1602179055505b506200052a565b6000700100000000000000000000000000000000821015156200042a576040517f08c379a00000000000000000000000000000000000000000000000000000000081526004016200042190620004cd565b60405180910390fd5b81905062000433565b9190505662000529565b6000606082840312156200044f578081fd5b604051606081018181106001600160401b03821117156200047e57634e487b7160e01b83526041600452602483fd5b8060405250825162000490816200050c565b808252506020830151620004a4816200050c565b806020830152506040830151620004bb816200050c565b80604083015250809150505b92915050565b60208152601260208201527f6d6f7265207468616e2031323820626974730000000000000000000000000000604082015260006060820190505b919050565b6001600160a01b03811681141515620005255760006000fd5b505b565b5b60805160601c60a05160601c60c05160601c618565620005ef6000396000818161192b015281816127bb015281816128710152818161289201526128bc0152600081816124e5015281816136e5015261509b01526000818161031401528181610e1801528181610fd401528181611350015281816116880152818161181c01528181611bcc015281816121c1015281816122d3015281816123e80152818161251a015281816126bc015281816134c201528181613a2801526141a601526185656000f3fe60806040526004361061030c5760003560e01c80636594da9f1161019a578063bdb2a496116100e1578063d99f57261161008a578063e2b1e9e311610064578063e2b1e9e314610c2b578063f34348f114610c57578063fd9c749214610c9557610418565b8063d99f572614610b97578063dfff5dc414610bd5578063e1c7392a14610c1357610418565b8063c7711db4116100bb578063c7711db414610aef578063d159b4ae14610b2d578063d5f3948814610b6b57610418565b8063bdb2a49614610a6f578063c0c899ff14610a87578063c3c837ba14610ab157610418565b80638439788811610143578063a678f3361161011d578063a678f336146109dd578063b241bbac14610a07578063b87e8d5814610a3157610418565b8063843978881461094957806396122a5c14610975578063a135ef171461099f57610418565b806378efc6b01161017457806378efc6b0146108c95780637f250c61146108f3578063816aaa251461091f57610418565b80636594da9f1461083457806375ea13ca1461087357806375f12b211461089d57610418565b806326879a4e1161025e578063461054a3116102075780635a6beaf4116101e15780635a6beaf4146107c8578063602db56b146107f2578063625021691461080a57610418565b8063461054a31461075a57806346ca626b14610772578063530c1ccb1461079e57610418565b80632c73f09e116102385780632c73f09e146106da5780633237417414610704578063397d35921461073057610418565b806326879a4e1461065c5780632a7ba1f7146106865780632b7c7b11146106b057610418565b80630f85fc5a116102c0578063150b7a021161029a578063150b7a021461059e57806318a15e79146105dc5780631cef92b11461061e57610418565b80630f85fc5a146104f8578063113cf1ab146105365780631428561d1461057457610418565b80630b218d24116102f15780630b218d24146104765780630c340a24146104a05780630dca59c1146104cc57610418565b806306ef2d801461041e578063092a26c31461044a57610418565b36610418575b7f000000000000000000000000000000000000000000000000000000000000000073ffffffffffffffffffffffffffffffffffffffff166380f556056040518163ffffffff1660e01b815260040160206040518083038186803b1580156103795760006000fd5b505afa15801561038e573d600060003e3d6000fd5b505050506040513d601f19601f820116820180604052508101906103b29190616b99565b73ffffffffffffffffffffffffffffffffffffffff163373ffffffffffffffffffffffffffffffffffffffff16141515610415577f4e487b7100000000000000000000000000000000000000000000000000000000600052600160045260246000fd5b5b005b60006000fd5b34801561042b5760006000fd5b50610434610cc1565b6040516104419190617e0c565b60405180910390f35b3480156104575760006000fd5b50610460610ce1565b60405161046d919061768d565b60405180910390f35b3480156104835760006000fd5b5061049e60048036038101906104999190616a69565b610cf4565b005b3480156104ad5760006000fd5b506104b6610e16565b6040516104c391906176d5565b60405180910390f35b3480156104d95760006000fd5b506104e2610e3a565b6040516104ef9190617e3d565b60405180910390f35b3480156105055760006000fd5b50610520600480360381019061051b9190617015565b610e7d565b60405161052d9190617c38565b60405180910390f35b3480156105435760006000fd5b5061055e60048036038101906105599190616b4c565b610f9c565b60405161056b919061768d565b60405180910390f35b3480156105815760006000fd5b5061059c60048036038101906105979190616ca7565b610fc1565b005b3480156105ab5760006000fd5b506105c660048036038101906105c19190616992565b611162565b6040516105d391906176a1565b60405180910390f35b3480156105e95760006000fd5b5061060460048036038101906105ff9190616da2565b6111a8565b604051610615959493929190617432565b60405180910390f35b34801561062b5760006000fd5b5061064660048036038101906106419190616be7565b6112bc565b6040516106539190617def565b60405180910390f35b3480156106695760006000fd5b50610684600480360381019061067f9190616da2565b61133d565b005b3480156106935760006000fd5b506106ae60048036038101906106a99190616da2565b6115af565b005b3480156106bd5760006000fd5b506106d860048036038101906106d39190616da2565b611675565b005b3480156106e75760006000fd5b5061070260048036038101906106fd9190616da2565b611809565b005b3480156107115760006000fd5b5061071a611929565b60405161072791906176fd565b60405180910390f35b34801561073d5760006000fd5b5061075860048036038101906107539190616a69565b61194d565b005b3480156107675760006000fd5b50610770611b5b565b005b34801561077f5760006000fd5b50610788611bb4565b604051610795919061774d565b60405180910390f35b3480156107ab5760006000fd5b506107c660048036038101906107c19190616ca7565b611bb9565b005b3480156107d55760006000fd5b506107f060048036038101906107eb9190617038565b611d5a565b005b3480156107ff5760006000fd5b50610808611f55565b005b3480156108175760006000fd5b50610832600480360381019061082d9190616961565b611fae565b005b3480156108415760006000fd5b5061085c60048036038101906108579190617015565b611fee565b60405161086a929190617e4f565b60405180910390f35b3480156108805760006000fd5b5061089b60048036038101906108969190616a38565b6121a1565b005b3480156108aa5760006000fd5b506108b36122ad565b6040516108c0919061768d565b60405180910390f35b3480156108d65760006000fd5b506108f160048036038101906108ec9190616d3b565b6122c0565b005b3480156109005760006000fd5b506109096123cc565b6040516109169190617e3d565b60405180910390f35b34801561092c5760006000fd5b5061094760048036038101906109429190616dda565b6123d5565b005b3480156109565760006000fd5b5061095f6124e3565b60405161096c9190617725565b60405180910390f35b3480156109825760006000fd5b5061099d60048036038101906109989190616c0e565b612507565b005b3480156109ac5760006000fd5b506109c760048036038101906109c29190616be7565b61266c565b6040516109d49190617e3d565b60405180910390f35b3480156109ea5760006000fd5b50610a056004803603810190610a00919061693a565b612687565b005b348015610a145760006000fd5b50610a2f6004803603810190610a2a9190616a38565b6126a9565b005b348015610a3e5760006000fd5b50610a596004803603810190610a54919061693a565b6127fb565b604051610a669190617581565b60405180910390f35b348015610a7c5760006000fd5b50610a8561285e565b005b348015610a945760006000fd5b50610aaf6004803603810190610aaa9190616f1d565b612990565b005b348015610abe5760006000fd5b50610ad96004803603810190610ad49190616fe1565b612be2565b604051610ae69190617496565b60405180910390f35b348015610afc5760006000fd5b50610b176004803603810190610b129190616cd8565b612f04565b604051610b249190617635565b60405180910390f35b348015610b3a5760006000fd5b50610b556004803603810190610b509190616ef7565b612fc4565b604051610b62919061774d565b60405180910390f35b348015610b785760006000fd5b50610b8161305a565b604051610b8e91906173aa565b60405180910390f35b348015610ba45760006000fd5b50610bbf6004803603810190610bba9190616cff565b613080565b604051610bcc919061774d565b60405180910390f35b348015610be25760006000fd5b50610bfd6004803603810190610bf89190617162565b61310c565b604051610c0a9190617e68565b60405180910390f35b348015610c205760006000fd5b50610c29613439565b005b348015610c385760006000fd5b50610c4161356e565b604051610c4e9190617e68565b60405180910390f35b348015610c645760006000fd5b50610c7f6004803603810190610c7a9190616da2565b613584565b604051610c8c9190617d16565b60405180910390f35b348015610ca25760006000fd5b50610cab61382c565b604051610cb8919061768d565b60405180910390f35b610cc961652a565b610cd76138a363ffffffff16565b9050610cde565b90565b600560009054906101000a900460ff1681565b610d02613a2363ffffffff16565b6000600090505b8151811015610dd9576003601060005060008484815181101515610d56577f4e487b7100000000000000000000000000000000000000000000000000000000600052603260045260246000fd5b602002602001015163ffffffff168152602001908152602001600020600050600001601c6101000a81548160ff02191690836003811115610dc0577f4e487b7100000000000000000000000000000000000000000000000000000000600052602160045260246000fd5b02179055505b8080610dd1906182e5565b915050610d09565b507f7264e0084cbb7692193b834f40153b973ff4f827f8ed45da32ae6d8e486bb0c781604051610e0991906175e1565b60405180910390a15b5b50565b7f000000000000000000000000000000000000000000000000000000000000000081565b6000600860005060010160009054906101000a90046fffffffffffffffffffffffffffffffff166fffffffffffffffffffffffffffffffff169050610e7a565b90565b610e85616555565b610e9482613a8363ffffffff16565b90508050600081610140015163ffffffff161115610f8f576010600050600082610140015163ffffffff16815260200190815260200160002060005060000160009054906101000a900473ffffffffffffffffffffffffffffffffffffffff1681610160019073ffffffffffffffffffffffffffffffffffffffff16908173ffffffffffffffffffffffffffffffffffffffff16815260200150506010600050600082610140015163ffffffff16815260200190815260200160002060005060000160149054906101000a900467ffffffffffffffff1681610180019067ffffffffffffffff16908167ffffffffffffffff16815260200150505b809050610f97565b919050565b600160005060205280600052604060002060009150909054906101000a900460ff1681565b610fcf613e1f63ffffffff16565b6110ab7f000000000000000000000000000000000000000000000000000000000000000073ffffffffffffffffffffffffffffffffffffffff16639ec5a8946040518163ffffffff1660e01b815260040160206040518083038186803b1580156110395760006000fd5b505afa15801561104e573d600060003e3d6000fd5b505050506040513d601f19601f820116820180604052508101906110729190616bc0565b73ffffffffffffffffffffffffffffffffffffffff163373ffffffffffffffffffffffffffffffffffffffff1614613e7a63ffffffff16565b61110381600d60005060008573ffffffffffffffffffffffffffffffffffffffff1673ffffffffffffffffffffffffffffffffffffffff16815260200190815260200160002060005054613ec090919063ffffffff16565b600d60005060008473ffffffffffffffffffffffffffffffffffffffff1673ffffffffffffffffffffffffffffffffffffffff1681526020019081526020016000206000508190909055505b61115d613edb63ffffffff16565b5b5050565b60006040517f08c379a000000000000000000000000000000000000000000000000000000000815260040161119690617a59565b60405180910390fd5b95945050505050565b60106000506020528060005260406000206000915090508060000160009054906101000a900473ffffffffffffffffffffffffffffffffffffffff16908060000160149054906101000a900467ffffffffffffffff169080600001601c9054906101000a900460ff169080600001601d9054906101000a900462ffffff16908060010160005080546112399061828a565b80601f01602080910402602001604051908101604052809291908181526020018280546112659061828a565b80156112b25780601f10611287576101008083540402835291602001916112b2565b820191906000526020600020905b81548152906001019060200180831161129557829003601f168201915b5050505050905085565b6112c4616609565b600b60005060008373ffffffffffffffffffffffffffffffffffffffff1673ffffffffffffffffffffffffffffffffffffffff168152602001908152602001600020600050604051806040016040529081600082016000505481526020016001820160005054815260200150509050611338565b919050565b61134b613e1f63ffffffff16565b6114277f000000000000000000000000000000000000000000000000000000000000000073ffffffffffffffffffffffffffffffffffffffff16639ec5a8946040518163ffffffff1660e01b815260040160206040518083038186803b1580156113b55760006000fd5b505afa1580156113ca573d600060003e3d6000fd5b505050506040513d601f19601f820116820180604052508101906113ee9190616bc0565b73ffffffffffffffffffffffffffffffffffffffff163373ffffffffffffffffffffffffffffffffffffffff1614613e7a63ffffffff16565b6114ca61143b8261383f909063ffffffff16565b600e6000506000600c600050600086815260200190815260200160002060005060000160009054906101000a900473ffffffffffffffffffffffffffffffffffffffff1673ffffffffffffffffffffffffffffffffffffffff1673ffffffffffffffffffffffffffffffffffffffff168152602001908152602001600020600050613eeb90919063ffffffff16565b50600c600050600082815260200190815260200160002060006000820160006101000a81549073ffffffffffffffffffffffffffffffffffffffff02191690556000820160146101000a81549061ffff02191690556000820160166101000a81549063ffffffff021916905560018201600050600090556002820160006101000a81549075ffffffffffffffffffffffffffffffffffffffffffff02191690556002820160166101000a81549064ffffffffff021916905560028201601b6101000a81549064ffffffffff021916905550505b6115ab613edb63ffffffff16565b5b50565b6115bd613e1f63ffffffff16565b6115cb6141a463ffffffff16565b6116246115df8261383f909063ffffffff16565b600860005060010160009054906101000a90046fffffffffffffffffffffffffffffffff166fffffffffffffffffffffffffffffffff1661423290919063ffffffff16565b600860005060010160006101000a8154816fffffffffffffffffffffffffffffffff02191690836fffffffffffffffffffffffffffffffff1602179055505b611671613edb63ffffffff16565b5b50565b611683613e1f63ffffffff16565b61175f7f000000000000000000000000000000000000000000000000000000000000000073ffffffffffffffffffffffffffffffffffffffff166380f556056040518163ffffffff1660e01b815260040160206040518083038186803b1580156116ed5760006000fd5b505afa158015611702573d600060003e3d6000fd5b505050506040513d601f19601f820116820180604052508101906117269190616b99565b73ffffffffffffffffffffffffffffffffffffffff163373ffffffffffffffffffffffffffffffffffffffff1614613e7a63ffffffff16565b6117b86117738261383f909063ffffffff16565b600860005060010160009054906101000a90046fffffffffffffffffffffffffffffffff166fffffffffffffffffffffffffffffffff1661424d90919063ffffffff16565b600860005060010160006101000a8154816fffffffffffffffffffffffffffffffff02191690836fffffffffffffffffffffffffffffffff1602179055505b611805613edb63ffffffff16565b5b50565b611817613e1f63ffffffff16565b6118f37f000000000000000000000000000000000000000000000000000000000000000073ffffffffffffffffffffffffffffffffffffffff166380f556056040518163ffffffff1660e01b815260040160206040518083038186803b1580156118815760006000fd5b505afa158015611896573d600060003e3d6000fd5b505050506040513d601f19601f820116820180604052508101906118ba9190616b99565b73ffffffffffffffffffffffffffffffffffffffff163373ffffffffffffffffffffffffffffffffffffffff1614613e7a63ffffffff16565b61190b81600760005054613ec090919063ffffffff16565b60076000508190909055505b611925613edb63ffffffff16565b5b50565b7f000000000000000000000000000000000000000000000000000000000000000081565b61195b613a2363ffffffff16565b6000600090505b8151811015611b1e57600060038111156119a5577f4e487b7100000000000000000000000000000000000000000000000000000000600052602160045260246000fd5b6010600050600084848151811015156119e7577f4e487b7100000000000000000000000000000000000000000000000000000000600052603260045260246000fd5b602002602001015163ffffffff168152602001908152602001600020600050600001601c9054906101000a900460ff166003811115611a4f577f4e487b7100000000000000000000000000000000000000000000000000000000600052602160045260246000fd5b141515611b0a576002601060005060008484815181101515611a9a577f4e487b7100000000000000000000000000000000000000000000000000000000600052603260045260246000fd5b602002602001015163ffffffff168152602001908152602001600020600050600001601c6101000a81548160ff02191690836003811115611b04577f4e487b7100000000000000000000000000000000000000000000000000000000600052602160045260246000fd5b02179055505b5b8080611b16906182e5565b915050611962565b507f2e54370527117fb69828eac075cb3ed33fe59712134dfd3ef6efc9bd8b60c1ec81604051611b4e91906175e1565b60405180910390a15b5b50565b611b69613a2363ffffffff16565b6000600560006101000a81548160ff0219169083151502179055507f262b602ad12e3e551a407d5246b500f4ca5a01cc76bbf03e925db643a62a692f60405160405180910390a15b5b565b60c881565b611bc7613e1f63ffffffff16565b611ca37f000000000000000000000000000000000000000000000000000000000000000073ffffffffffffffffffffffffffffffffffffffff16639ec5a8946040518163ffffffff1660e01b815260040160206040518083038186803b158015611c315760006000fd5b505afa158015611c46573d600060003e3d6000fd5b505050506040513d601f19601f82011682018060405250810190611c6a9190616bc0565b73ffffffffffffffffffffffffffffffffffffffff163373ffffffffffffffffffffffffffffffffffffffff1614613e7a63ffffffff16565b611cfb81600d60005060008573ffffffffffffffffffffffffffffffffffffffff1673ffffffffffffffffffffffffffffffffffffffff1681526020019081526020016000206000505461426890919063ffffffff16565b600d60005060008473ffffffffffffffffffffffffffffffffffffffff1673ffffffffffffffffffffffffffffffffffffffff1681526020019081526020016000206000508190909055505b611d55613edb63ffffffff16565b5b5050565b611d68613e1f63ffffffff16565b611d766141a463ffffffff16565b600560009054906101000a900460ff168015611d9d575060008267ffffffffffffffff1614155b15611db757611db2828261428363ffffffff16565b905080505b60008160200151148015611dcf575060008160400151145b15611f3057600460005060008367ffffffffffffffff1667ffffffffffffffff168152602001908152602001600020600060008201600050600090556001820160006101000a8154906fffffffffffffffffffffffffffffffff02191690556001820160106101000a8154906fffffffffffffffffffffffffffffffff02191690556002820160006101000a8154906fffffffffffffffffffffffffffffffff02191690556002820160106101000a8154906fffffffffffffffffffffffffffffffff02191690556003820160006101000a81549067ffffffffffffffff02191690556003820160086101000a81549067ffffffffffffffff02191690556003820160106101000a81549062ffffff02191690556003820160136101000a81549060ff02191690556003820160146101000a81549067ffffffffffffffff021916905560038201601c6101000a81549063ffffffff02191690555050611f41565b611f4082826146ce63ffffffff16565b5b5b611f50613edb63ffffffff16565b5b5050565b611f63613a2363ffffffff16565b6000600560016101000a81548160ff0219169083151502179055507fc4f6661464541d662c51191d4da5a7a1cc8bca2631698fd030e21b52520a549c60405160405180910390a15b5b565b611fbc613e1f63ffffffff16565b611fca6141a463ffffffff16565b611fda8282614a3c63ffffffff16565b5b611fe9613edb63ffffffff16565b5b5050565b60006000600460005060008467ffffffffffffffff1667ffffffffffffffff16815260200190815260200160002060005060010160109054906101000a90046fffffffffffffffffffffffffffffffff166fffffffffffffffffffffffffffffffff1691508150600460005060008467ffffffffffffffff1667ffffffffffffffff16815260200190815260200160002060005060010160009054906101000a90046fffffffffffffffffffffffffffffffff166fffffffffffffffffffffffffffffffff16905080506000600460005060008567ffffffffffffffff1667ffffffffffffffff16815260200190815260200160002060005060020160009054906101000a90046fffffffffffffffffffffffffffffffff166fffffffffffffffffffffffffffffffff169050600083148061212a5750600081145b1561213b578282925092505061219c565b6000600860005060010160109054906101000a90046fffffffffffffffffffffffffffffffff166fffffffffffffffffffffffffffffffff169050808214151561219957612194818386614b659092919063ffffffff16565b935083505b50505b915091565b600560019054906101000a900460ff1615156121bc576122a9565b6122987f000000000000000000000000000000000000000000000000000000000000000073ffffffffffffffffffffffffffffffffffffffff16639ec5a8946040518163ffffffff1660e01b815260040160206040518083038186803b1580156122265760006000fd5b505afa15801561223b573d600060003e3d6000fd5b505050506040513d601f19601f8201168201806040525081019061225f9190616bc0565b73ffffffffffffffffffffffffffffffffffffffff163373ffffffffffffffffffffffffffffffffffffffff1614613e7a63ffffffff16565b6122a88282614c8963ffffffff16565b5b5050565b600060009054906101000a900460ff1681565b6122ce613e1f63ffffffff16565b6123aa7f000000000000000000000000000000000000000000000000000000000000000073ffffffffffffffffffffffffffffffffffffffff166380f556056040518163ffffffff1660e01b815260040160206040518083038186803b1580156123385760006000fd5b505afa15801561234d573d600060003e3d6000fd5b505050506040513d601f19601f820116820180604052508101906123719190616b99565b73ffffffffffffffffffffffffffffffffffffffff163373ffffffffffffffffffffffffffffffffffffffff1614613e7a63ffffffff16565b6123b981614cf663ffffffff16565b5b6123c8613edb63ffffffff16565b5b50565b60076000505481565b6123e3613e1f63ffffffff16565b6124bf7f000000000000000000000000000000000000000000000000000000000000000073ffffffffffffffffffffffffffffffffffffffff16639ec5a8946040518163ffffffff1660e01b815260040160206040518083038186803b15801561244d5760006000fd5b505afa158015612462573d600060003e3d6000fd5b505050506040513d601f19601f820116820180604052508101906124869190616bc0565b73ffffffffffffffffffffffffffffffffffffffff163373ffffffffffffffffffffffffffffffffffffffff1614613e7a63ffffffff16565b6124cf8282614e6863ffffffff16565b5b6124de613edb63ffffffff16565b5b5050565b7f000000000000000000000000000000000000000000000000000000000000000081565b612515613e1f63ffffffff16565b6125f17f000000000000000000000000000000000000000000000000000000000000000073ffffffffffffffffffffffffffffffffffffffff16639ec5a8946040518163ffffffff1660e01b815260040160206040518083038186803b15801561257f5760006000fd5b505afa158015612594573d600060003e3d6000fd5b505050506040513d601f19601f820116820180604052508101906125b89190616bc0565b73ffffffffffffffffffffffffffffffffffffffff163373ffffffffffffffffffffffffffffffffffffffff1614613e7a63ffffffff16565b80600b60005060008473ffffffffffffffffffffffffffffffffffffffff1673ffffffffffffffffffffffffffffffffffffffff1681526020019081526020016000206000506000820151816000016000509090556020820151816001016000509090559050505b612667613edb63ffffffff16565b5b5050565b600d6000506020528060005260406000206000915090505481565b612695613a2363ffffffff16565b6126a48161509963ffffffff16565b5b5b50565b6126b7613e1f63ffffffff16565b6127937f000000000000000000000000000000000000000000000000000000000000000073ffffffffffffffffffffffffffffffffffffffff166380f556056040518163ffffffff1660e01b815260040160206040518083038186803b1580156127215760006000fd5b505afa158015612736573d600060003e3d6000fd5b505050506040513d601f19601f8201168201806040525081019061275a9190616b99565b73ffffffffffffffffffffffffffffffffffffffff163373ffffffffffffffffffffffffffffffffffffffff1614613e7a63ffffffff16565b6127ab8160076000505461426890919063ffffffff16565b60076000508190909055506127e77f0000000000000000000000000000000000000000000000000000000000000000838361512d63ffffffff16565b5b6127f6613edb63ffffffff16565b5b5050565b6060612852600e60005060008473ffffffffffffffffffffffffffffffffffffffff1673ffffffffffffffffffffffffffffffffffffffff1681526020019081526020016000206000506151ba909063ffffffff16565b9050612859565b919050565b61286c613e1f63ffffffff16565b61297e7f00000000000000000000000000000000000000000000000000000000000000007f00000000000000000000000000000000000000000000000000000000000000006129736007600050547f000000000000000000000000000000000000000000000000000000000000000073ffffffffffffffffffffffffffffffffffffffff166370a08231306040518263ffffffff1660e01b815260040161291391906173aa565b60206040518083038186803b15801561292c5760006000fd5b505afa158015612941573d600060003e3d6000fd5b505050506040513d601f19601f820116820180604052508101906129659190616dbe565b61426890919063ffffffff16565b61512d63ffffffff16565b5b61298d613edb63ffffffff16565b5b565b61299e613e1f63ffffffff16565b612a1d3373ffffffffffffffffffffffffffffffffffffffff16601060005060008563ffffffff16815260200190815260200160002060005060000160009054906101000a900473ffffffffffffffffffffffffffffffffffffffff1673ffffffffffffffffffffffffffffffffffffffff1614613e7a63ffffffff16565b612ace60006003811115612a5a577f4e487b7100000000000000000000000000000000000000000000000000000000600052602160045260246000fd5b601060005060008563ffffffff168152602001908152602001600020600050600001601c9054906101000a900460ff166003811115612ac2577f4e487b7100000000000000000000000000000000000000000000000000000000600052602160045260246000fd5b14613e7a63ffffffff16565b6001601060005060008463ffffffff168152602001908152602001600020600050600001601c6101000a81548160ff02191690836003811115612b3a577f4e487b7100000000000000000000000000000000000000000000000000000000600052602160045260246000fd5b021790555080601060005060008463ffffffff1681526020019081526020016000206000506001016000509080519060200190612b78929190616626565b503373ffffffffffffffffffffffffffffffffffffffff168263ffffffff167fec673006d787a8f7beffb5435d65c9380768a511390c957f84092e507033f21883604051612bc69190617762565b60405180910390a35b612bdd613edb63ffffffff16565b5b5050565b60608163ffffffff168363ffffffff16101515612bff5760006000fd5b8282612c0b9190618227565b63ffffffff1667ffffffffffffffff811115612c50577f4e487b7100000000000000000000000000000000000000000000000000000000600052604160045260246000fd5b604051908082528060200260200182016040528015612c8957816020015b612c766166b1565b815260200190600190039081612c6e5790505b509050805060005b8263ffffffff168463ffffffff161015612efc57601060005060008580612cb790618324565b965063ffffffff1681526020019081526020016000206000506040518060a00160405290816000820160009054906101000a900473ffffffffffffffffffffffffffffffffffffffff1673ffffffffffffffffffffffffffffffffffffffff1673ffffffffffffffffffffffffffffffffffffffff1681526020016000820160149054906101000a900467ffffffffffffffff1667ffffffffffffffff1667ffffffffffffffff16815260200160008201601c9054906101000a900460ff166003811115612dae577f4e487b7100000000000000000000000000000000000000000000000000000000600052602160045260246000fd5b6003811115612de6577f4e487b7100000000000000000000000000000000000000000000000000000000600052602160045260246000fd5b815260200160008201601d9054906101000a900462ffffff1662ffffff1662ffffff168152602001600182016000508054612e209061828a565b80601f0160208091040260200160405190810160405280929190818152602001828054612e4c9061828a565b8015612e995780601f10612e6e57610100808354040283529160200191612e99565b820191906000526020600020905b815481529060010190602001808311612e7c57829003601f168201915b505050505081526020015050828280612eb1906182e5565b9350815181101515612eec577f4e487b7100000000000000000000000000000000000000000000000000000000600052603260045260246000fd5b6020026020010181905250612c91565b505b92915050565b606060066000506000612f1e8460c861308063ffffffff16565b60020b60020b8152602001908152602001600020600050805480602002602001604051908101604052809291908181526020018280548015612fb357602002820191906000526020600020906000905b82829054906101000a900467ffffffffffffffff1667ffffffffffffffff1681526020019060080190602082600701049283019260010382029150808411612f6e5790505b50505050509050612fbf565b919050565b60006000821415612fda57627fffff9050613054565b60008311151561301f576040517f08c379a00000000000000000000000000000000000000000000000000000000081526004016130169061795d565b60405180910390fd5b61304d613040613035858561526063ffffffff16565b6152c863ffffffff16565b60c861308063ffffffff16565b9050613054565b92915050565b600360009054906101000a900473ffffffffffffffffffffffffffffffffffffffff1681565b600060008360020b905060008360020b8261309b919061834d565b905060008114156130b0578492505050613106565b6000600083136130d9578460020b82846130ca9190618151565b6130d49190618151565b6130e6565b81836130e59190618151565b5b90506130f9816156dc909063ffffffff16565b9350505050613106565050505b92915050565b600061311c613e1f63ffffffff16565b6703782dace9d9000067ffffffffffffffff168367ffffffffffffffff161115151561317d576040517f08c379a000000000000000000000000000000000000000000000000000000000815260040161317490617ad7565b60405180910390fd5b63ffffffff63ffffffff16600f60009054906101000a900463ffffffff1663ffffffff161015156131ae5760006000fd5b6000600f600081819054906101000a900463ffffffff16809291906131d290618324565b91906101000a81548163ffffffff021916908363ffffffff16021790555090506040518060a001604052803373ffffffffffffffffffffffffffffffffffffffff1681526020018567ffffffffffffffff16815260200160006003811115613263577f4e487b7100000000000000000000000000000000000000000000000000000000600052602160045260246000fd5b81526020018462ffffff16815260200160405180602001604052806000815260200150815260200150601060005060008363ffffffff16815260200190815260200160002060005060008201518160000160006101000a81548173ffffffffffffffffffffffffffffffffffffffff021916908373ffffffffffffffffffffffffffffffffffffffff16021790555060208201518160000160146101000a81548167ffffffffffffffff021916908367ffffffffffffffff160217905550604082015181600001601c6101000a81548160ff02191690836003811115613372577f4e487b7100000000000000000000000000000000000000000000000000000000600052602160045260246000fd5b0217905550606082015181600001601d6101000a81548162ffffff021916908362ffffff16021790555060808201518160010160005090805190602001906133bb929190616626565b509050508262ffffff163373ffffffffffffffffffffffffffffffffffffffff168263ffffffff167f46f1b99a43c800f57b28bd687fe2fc54e883b31ff06b2a6d863d528925059748876040516134129190617e80565b60405180910390a48091505061342456505b613432613edb63ffffffff16565b5b92915050565b613498600360009054906101000a900473ffffffffffffffffffffffffffffffffffffffff1673ffffffffffffffffffffffffffffffffffffffff163373ffffffffffffffffffffffffffffffffffffffff1614613e7a63ffffffff16565b600360006101000a81549073ffffffffffffffffffffffffffffffffffffffff021916905561356b7f000000000000000000000000000000000000000000000000000000000000000073ffffffffffffffffffffffffffffffffffffffff16639ec5a8946040518163ffffffff1660e01b815260040160206040518083038186803b1580156135275760006000fd5b505afa15801561353c573d600060003e3d6000fd5b505050506040513d601f19601f820116820180604052508101906135609190616bc0565b61509963ffffffff16565b5b565b600f60009054906101000a900463ffffffff1681565b61358c616740565b61359b8261575e63ffffffff16565b905080506000816020015161ffff161115156135ec576040517f08c379a00000000000000000000000000000000000000000000000000000000081526004016135e39061791e565b60405180910390fd5b600081610120015163ffffffff1611156136e3576010600050600082610120015163ffffffff16815260200190815260200160002060005060000160149054906101000a900467ffffffffffffffff1681610160019067ffffffffffffffff16908167ffffffffffffffff16815260200150506010600050600082610120015163ffffffff16815260200190815260200160002060005060000160009054906101000a900473ffffffffffffffffffffffffffffffffffffffff1681610140019073ffffffffffffffffffffffffffffffffffffffff16908173ffffffffffffffffffffffffffffffffffffffff16815260200150505b7f000000000000000000000000000000000000000000000000000000000000000073ffffffffffffffffffffffffffffffffffffffff166399fbab88836040518263ffffffff1660e01b815260040161373c9190617e3d565b6101806040518083038186803b1580156137565760006000fd5b505afa15801561376b573d600060003e3d6000fd5b505050506040513d601f19601f8201168201806040525081019061378f919061719a565b909192939495969798999a509091929394959697989950909192939495969798509091929394959697509091929394959650909192509091509050508360e00184610100018560a0018390906fffffffffffffffffffffffffffffffff166fffffffffffffffffffffffffffffffff1681526020015083909060020b60020b81526020015083909060020b60020b8152602001505050505b919050565b600560019054906101000a900460ff1681565b600070010000000000000000000000000000000082101515613896576040517f08c379a000000000000000000000000000000000000000000000000000000000815260040161388d906179db565b60405180910390fd5b81905061389e565b919050565b6138ab61652a565b60006008600050604051806080016040529081600082016000505481526020016001820160009054906101000a90046fffffffffffffffffffffffffffffffff166fffffffffffffffffffffffffffffffff166fffffffffffffffffffffffffffffffff1681526020016001820160109054906101000a90046fffffffffffffffffffffffffffffffff166fffffffffffffffffffffffffffffffff166fffffffffffffffffffffffffffffffff1681526020016002820160009054906101000a90046fffffffffffffffffffffffffffffffff166fffffffffffffffffffffffffffffffff166fffffffffffffffffffffffffffffffff16815260200150509050604051806080016040528082602001516fffffffffffffffffffffffffffffffff16815260200182606001516fffffffffffffffffffffffffffffffff1681526020018260000151815260200182604001516fffffffffffffffffffffffffffffffff16815260200150915050613a2056505b90565b613a807f000000000000000000000000000000000000000000000000000000000000000073ffffffffffffffffffffffffffffffffffffffff163373ffffffffffffffffffffffffffffffffffffffff1614613e7a63ffffffff16565b5b565b613a8b616555565b6000600460005060008467ffffffffffffffff1667ffffffffffffffff16815260200190815260200160002060005060405180610160016040529081600082016000505481526020016001820160009054906101000a90046fffffffffffffffffffffffffffffffff166fffffffffffffffffffffffffffffffff166fffffffffffffffffffffffffffffffff1681526020016001820160109054906101000a90046fffffffffffffffffffffffffffffffff166fffffffffffffffffffffffffffffffff166fffffffffffffffffffffffffffffffff1681526020016002820160009054906101000a90046fffffffffffffffffffffffffffffffff166fffffffffffffffffffffffffffffffff166fffffffffffffffffffffffffffffffff1681526020016002820160109054906101000a90046fffffffffffffffffffffffffffffffff166fffffffffffffffffffffffffffffffff166fffffffffffffffffffffffffffffffff1681526020016003820160009054906101000a900467ffffffffffffffff1667ffffffffffffffff1667ffffffffffffffff1681526020016003820160089054906101000a900467ffffffffffffffff1667ffffffffffffffff1667ffffffffffffffff1681526020016003820160109054906101000a900460020b60020b60020b81526020016003820160139054906101000a900460ff161515151581526020016003820160149054906101000a900467ffffffffffffffff1667ffffffffffffffff1667ffffffffffffffff16815260200160038201601c9054906101000a900463ffffffff1663ffffffff1663ffffffff16815260200150509050604051806101a001604052808260000151815260200182602001516fffffffffffffffffffffffffffffffff16815260200182604001516fffffffffffffffffffffffffffffffff16815260200182606001516fffffffffffffffffffffffffffffffff16815260200182608001516fffffffffffffffffffffffffffffffff1681526020018260a0015167ffffffffffffffff1681526020018260c0015167ffffffffffffffff1681526020018260e0015160020b81526020018261010001511515815260200182610120015167ffffffffffffffff16815260200182610140015163ffffffff168152602001600073ffffffffffffffffffffffffffffffffffffffff168152602001600067ffffffffffffffff16815260200150915050613e1a56505b919050565b600260026000505414151515613e6a576040517f08c379a0000000000000000000000000000000000000000000000000000000008152600401613e619061777e565b60405180910390fd5b600260026000508190909055505b565b801515613ebc576040517f08c379a0000000000000000000000000000000000000000000000000000000008152600401613eb3906178a0565b60405180910390fd5b5b50565b60008183613ece919061800f565b9050613ed5565b92915050565b600160026000508190909055505b565b60006000836001016000506000846fffffffffffffffffffffffffffffffff166fffffffffffffffffffffffffffffffff168152602001908152602001600020600050549050600081141515614192576000600182613f4a9190618208565b9050600060018660000160005080549050613f659190618208565b905060008660000160005082815481101515613faa577f4e487b7100000000000000000000000000000000000000000000000000000000600052603260045260246000fd5b90600052602060002090600291828204019190066010025b9054906101000a90046fffffffffffffffffffffffffffffffff169050808760000160005084815481101515614021577f4e487b7100000000000000000000000000000000000000000000000000000000600052603260045260246000fd5b90600052602060002090600291828204019190066010025b6101000a8154816fffffffffffffffffffffffffffffffff02191690836fffffffffffffffffffffffffffffffff16021790555060018361407a919061800f565b876001016000506000836fffffffffffffffffffffffffffffffff166fffffffffffffffffffffffffffffffff1681526020019081526020016000206000508190909055508660000160005080548015156140fe577f4e487b7100000000000000000000000000000000000000000000000000000000600052603160045260246000fd5b60019003818190600052602060002090600291828204019190066010025b6101000a8154906fffffffffffffffffffffffffffffffff02191690559055866001016000506000876fffffffffffffffffffffffffffffffff166fffffffffffffffffffffffffffffffff16815260200190815260200160002060005060009055600194505050505061419e5650505061419c565b600091505061419e565b505b92915050565b7f000000000000000000000000000000000000000000000000000000000000000073ffffffffffffffffffffffffffffffffffffffff16637c114fed336040518263ffffffff1660e01b81526004016141fd91906173aa565b60006040518083038186803b1580156142165760006000fd5b505afa15801561422b573d600060003e3d6000fd5b505050505b565b6000818361424091906181ce565b9050614247565b92915050565b6000818361425b9190617fd4565b9050614262565b92915050565b600081836142769190618208565b905061427d565b92915050565b61428b616555565b6000600460005060008567ffffffffffffffff1667ffffffffffffffff16815260200190815260200160002060005060030160139054906101000a900460ff1690506000816142dd57627fffff61431c565b600460005060008667ffffffffffffffff1667ffffffffffffffff16815260200190815260200160002060005060030160109054906101000a900460020b5b90506000600460005060008767ffffffffffffffff1667ffffffffffffffff16815260200190815260200160002060005060030160149054906101000a900467ffffffffffffffff169050600061438186602001518760400151612fc463ffffffff16565b90508060020b8360020b1415156146b857808660e0019060020b908160020b815260200150506000627fffff60020b8460020b12156145de57600660005060008560020b60020b8152602001908152602001600020600050905080506000614400600183805490506143f39190618208565b6159f4909063ffffffff16565b90508067ffffffffffffffff168467ffffffffffffffff1614151561456e576000828267ffffffffffffffff16815481101515614466577f4e487b7100000000000000000000000000000000000000000000000000000000600052603260045260246000fd5b90600052602060002090600491828204019190066008025b9054906101000a900467ffffffffffffffff16905080838667ffffffffffffffff168154811015156144d9577f4e487b7100000000000000000000000000000000000000000000000000000000600052603260045260246000fd5b90600052602060002090600491828204019190066008025b6101000a81548167ffffffffffffffff021916908367ffffffffffffffff16021790555084600460005060008367ffffffffffffffff1667ffffffffffffffff16815260200190815260200160002060005060030160146101000a81548167ffffffffffffffff021916908367ffffffffffffffff160217905550505b8180548015156145a7577f4e487b7100000000000000000000000000000000000000000000000000000000600052603160045260246000fd5b60019003818190600052602060002090600491828204019190066008025b6101000a81549067ffffffffffffffff02191690559055505b627fffff60020b8260020b12156146b657600660005060008360020b60020b81526020019081526020016000206000509050805061462781805490506159f4909063ffffffff16565b87610120019067ffffffffffffffff16908167ffffffffffffffff1681526020015050600187610100019015159081151581526020015050808890806001815401808255809150506001900390600052602060002090600491828204019190066008025b9091909190916101000a81548167ffffffffffffffff021916908367ffffffffffffffff1602179055505b505b859450505050506146c856505050505b92915050565b604051806101600160405280826000015181526020016146f9836020015161383f909063ffffffff16565b6fffffffffffffffffffffffffffffffff168152602001614725836040015161383f909063ffffffff16565b6fffffffffffffffffffffffffffffffff168152602001614751836060015161383f909063ffffffff16565b6fffffffffffffffffffffffffffffffff16815260200161477d836080015161383f909063ffffffff16565b6fffffffffffffffffffffffffffffffff1681526020018260a0015167ffffffffffffffff1681526020018260c0015167ffffffffffffffff1681526020018260e0015160020b81526020018261010001511515815260200182610120015167ffffffffffffffff16815260200182610140015163ffffffff16815260200150600460005060008467ffffffffffffffff1667ffffffffffffffff16815260200190815260200160002060005060008201518160000160005090905560208201518160010160006101000a8154816fffffffffffffffffffffffffffffffff02191690836fffffffffffffffffffffffffffffffff16021790555060408201518160010160106101000a8154816fffffffffffffffffffffffffffffffff02191690836fffffffffffffffffffffffffffffffff16021790555060608201518160020160006101000a8154816fffffffffffffffffffffffffffffffff02191690836fffffffffffffffffffffffffffffffff16021790555060808201518160020160106101000a8154816fffffffffffffffffffffffffffffffff02191690836fffffffffffffffffffffffffffffffff16021790555060a08201518160030160006101000a81548167ffffffffffffffff021916908367ffffffffffffffff16021790555060c08201518160030160086101000a81548167ffffffffffffffff021916908367ffffffffffffffff16021790555060e08201518160030160106101000a81548162ffffff021916908360020b62ffffff1602179055506101008201518160030160136101000a81548160ff0219169083151502179055506101208201518160030160146101000a81548167ffffffffffffffff021916908367ffffffffffffffff16021790555061014082015181600301601c6101000a81548163ffffffff021916908363ffffffff1602179055509050505b5050565b60008273ffffffffffffffffffffffffffffffffffffffff1682600067ffffffffffffffff811115614a97577f4e487b7100000000000000000000000000000000000000000000000000000000600052604160045260246000fd5b6040519080825280601f01601f191660200182016040528015614ac95781602001600182028036833780820191505090505b50604051614ad7919061738b565b60006040518083038185875af1925050503d8060008114614b14576040519150601f19603f3d011682016040523d82523d6000602084013e614b19565b606091505b50509050801515614b5f576040517f08c379a0000000000000000000000000000000000000000000000000000000008152600401614b56906177bd565b60405180910390fd5b505b5050565b6000600060006000198587098587029250828110838203039150506000811415614ba857600084111515614b995760006000fd5b83820492508292505050614c82565b8084111515614bb75760006000fd5b60008486880990508281118203915080830392506000856001877fffffffffffffffffffffffffffffffffffffffffffffffffffffffffffffffff030116905080508086049550808404935060018182600003040190508083028417935083506000600287600302189050808702600203810290508050808702600203810290508050808702600203810290508050808702600203810290508050808702600203810290508050808702600203810290508050808502955085505084945050505050614c8256505050505b9392505050565b614cf0614c9d8261383f909063ffffffff16565b600e60005060008573ffffffffffffffffffffffffffffffffffffffff1673ffffffffffffffffffffffffffffffffffffffff168152602001908152602001600020600050615a5090919063ffffffff16565b505b5050565b604051806080016040528082604001518152602001614d20836000015161383f909063ffffffff16565b6fffffffffffffffffffffffffffffffff168152602001614d4c836060015161383f909063ffffffff16565b6fffffffffffffffffffffffffffffffff168152602001614d78836020015161383f909063ffffffff16565b6fffffffffffffffffffffffffffffffff16815260200150600860005060008201518160000160005090905560208201518160010160006101000a8154816fffffffffffffffffffffffffffffffff02191690836fffffffffffffffffffffffffffffffff16021790555060408201518160010160106101000a8154816fffffffffffffffffffffffffffffffff02191690836fffffffffffffffffffffffffffffffff16021790555060608201518160020160006101000a8154816fffffffffffffffffffffffffffffffff02191690836fffffffffffffffffffffffffffffffff1602179055509050505b50565b6040518060e00160405280826000015173ffffffffffffffffffffffffffffffffffffffff168152602001826020015161ffff16815260200182610120015163ffffffff16815260200182604001518152602001614ed18360600151615b41909063ffffffff16565b75ffffffffffffffffffffffffffffffffffffffffffff168152602001614f0d8360c0015167ffffffffffffffff16615bab909063ffffffff16565b64ffffffffff168152602001614f2e8360800151615bab909063ffffffff16565b64ffffffffff16815260200150600c600050600084815260200190815260200160002060005060008201518160000160006101000a81548173ffffffffffffffffffffffffffffffffffffffff021916908373ffffffffffffffffffffffffffffffffffffffff16021790555060208201518160000160146101000a81548161ffff021916908361ffff16021790555060408201518160000160166101000a81548163ffffffff021916908363ffffffff16021790555060608201518160010160005090905560808201518160020160006101000a81548175ffffffffffffffffffffffffffffffffffffffffffff021916908375ffffffffffffffffffffffffffffffffffffffffffff16021790555060a08201518160020160166101000a81548164ffffffffff021916908364ffffffffff16021790555060c082015181600201601b6101000a81548164ffffffffff021916908364ffffffffff1602179055509050505b5050565b7f000000000000000000000000000000000000000000000000000000000000000073ffffffffffffffffffffffffffffffffffffffff1663a22cb4658260016040518363ffffffff1660e01b81526004016150f59291906173d2565b600060405180830381600087803b1580156151105760006000fd5b505af1158015615125573d600060003e3d6000fd5b505050505b50565b6151b48363a9059cbb60e01b848460405160240161514c929190617403565b604051602081830303815290604052907bffffffffffffffffffffffffffffffffffffffffffffffffffffffff19166020820180517bffffffffffffffffffffffffffffffffffffffffffffffffffffffff8381831617835250505050615c0463ffffffff16565b5b505050565b60608160000160005080548060200260200160405190810160405280929190818152602001828054801561525157602002820191906000526020600020906000905b82829054906101000a90046fffffffffffffffffffffffffffffffff166fffffffffffffffffffffffffffffffff1681526020019060100190602082600f010492830192600103820291508084116151fc5790505b5050505050905080505b919050565b60006152bb6152ae66010000000000006152a06152956c010000000000000000000000008789614b659092919063ffffffff16565b615cd163ffffffff16565b615d5690919063ffffffff16565b615d71909063ffffffff16565b90506152c2565b92915050565b60006401000276a373ffffffffffffffffffffffffffffffffffffffff168273ffffffffffffffffffffffffffffffffffffffff161015801561534a575073fffd8963efd1fc6a506488495d951d5263988d2673ffffffffffffffffffffffffffffffffffffffff168273ffffffffffffffffffffffffffffffffffffffff16105b151561538b576040517f08c379a000000000000000000000000000000000000000000000000000000000815260040161538290617bf9565b60405180910390fd5b600060208373ffffffffffffffffffffffffffffffffffffffff16901b905060008190506000600090506fffffffffffffffffffffffffffffffff821160071b808217915082811c92505067ffffffffffffffff821160061b808217915082811c92505063ffffffff821160051b808217915082811c92505061ffff821160041b808217915082811c92505060ff821160031b808217915082811c925050600f821160021b808217915082811c9250506003821160011b808217915082811c9250506001821180821791505060808110151561547a57607f8161546e9190618208565b83901c9150815061548f565b80607f6154879190618208565b83901b915081505b600060406080836154a09190618151565b901b9050828302607f1c92508260801c80603f1b8217915083811c935050828302607f1c92508260801c80603e1b8217915083811c935050828302607f1c92508260801c80603d1b8217915083811c935050828302607f1c92508260801c80603c1b8217915083811c935050828302607f1c92508260801c80603b1b8217915083811c935050828302607f1c92508260801c80603a1b8217915083811c935050828302607f1c92508260801c8060391b8217915083811c935050828302607f1c92508260801c8060381b8217915083811c935050828302607f1c92508260801c8060371b8217915083811c935050828302607f1c92508260801c8060361b8217915083811c935050828302607f1c92508260801c8060351b8217915083811c935050828302607f1c92508260801c8060341b8217915083811c935050828302607f1c92508260801c8060331b8217915083811c935050828302607f1c92508260801c8060321b82179150506000693627a301d71055774c8582615623919061804d565b9050600060806f028f6481ab7f045a5af012a19d003aaa836156459190618151565b901d9050600060806fdb2df09e81959a81455e260799a0632f846156699190617f57565b901d90508060020b8260020b146156c9578873ffffffffffffffffffffffffffffffffffffffff166156a082615dd963ffffffff16565b73ffffffffffffffffffffffffffffffffffffffff1611156156c257816156c4565b805b6156cb565b815b97508750505050505050505b919050565b60007fffffffffffffffffffffffffffffffffffffffffffffffffffffffffff800000821215801561571057506280000082125b1515615751576040517f08c379a000000000000000000000000000000000000000000000000000000000815260040161574890617a1a565b60405180910390fd5b819050615759565b919050565b615766616740565b6000600c60005060008481526020019081526020016000206000506040518060e00160405290816000820160009054906101000a900473ffffffffffffffffffffffffffffffffffffffff1673ffffffffffffffffffffffffffffffffffffffff1673ffffffffffffffffffffffffffffffffffffffff1681526020016000820160149054906101000a900461ffff1661ffff1661ffff1681526020016000820160169054906101000a900463ffffffff1663ffffffff1663ffffffff168152602001600182016000505481526020016002820160009054906101000a900475ffffffffffffffffffffffffffffffffffffffffffff1675ffffffffffffffffffffffffffffffffffffffffffff1675ffffffffffffffffffffffffffffffffffffffffffff1681526020016002820160169054906101000a900464ffffffffff1664ffffffffff1664ffffffffff16815260200160028201601b9054906101000a900464ffffffffff1664ffffffffff1664ffffffffff16815260200150509050604051806101800160405280826000015173ffffffffffffffffffffffffffffffffffffffff168152602001826020015161ffff16815260200182606001518152602001826080015175ffffffffffffffffffffffffffffffffffffffffffff1681526020018260c0015164ffffffffff16815260200160006fffffffffffffffffffffffffffffffff1681526020018260a0015164ffffffffff1667ffffffffffffffff168152602001600060020b8152602001600060020b8152602001826040015163ffffffff168152602001600073ffffffffffffffffffffffffffffffffffffffff168152602001600067ffffffffffffffff168152602001509150506159ef56505b919050565b60006801000000000000000082101515615a43576040517f08c379a0000000000000000000000000000000000000000000000000000000008152600401615a3a90617bba565b60405180910390fd5b819050615a4b565b919050565b6000615a6283836162fc63ffffffff16565b1515615b3157826000016000508290806001815401808255809150506001900390600052602060002090600291828204019190066010025b9091909190916101000a8154816fffffffffffffffffffffffffffffffff02191690836fffffffffffffffffffffffffffffffff1602179055508260000160005080549050836001016000506000846fffffffffffffffffffffffffffffffff166fffffffffffffffffffffffffffffffff16815260200190815260200160002060005081909090555060019050615b3b56615b3a565b60009050615b3b565b5b92915050565b600076010000000000000000000000000000000000000000000082101515615b9e576040517f08c379a0000000000000000000000000000000000000000000000000000000008152600401615b959061799c565b60405180910390fd5b819050615ba6565b919050565b60006501000000000082101515615bf7576040517f08c379a0000000000000000000000000000000000000000000000000000000008152600401615bee906177fc565b60405180910390fd5b819050615bff565b919050565b6000615c69826040518060400160405280602081526020017f5361666545524332303a206c6f772d6c6576656c2063616c6c206661696c65648152602001508573ffffffffffffffffffffffffffffffffffffffff1661634f9092919063ffffffff16565b9050600081511115615ccb5780806020019051810190615c899190616b25565b1515615cca576040517f08c379a0000000000000000000000000000000000000000000000000000000008152600401615cc190617b55565b60405180910390fd5b5b505b5050565b60006003821115615d3e57819050805060006001600284615cf2919061802f565b615cfc919061800f565b90505b81811015615d385780915081506002818285615d1b919061802f565b615d25919061800f565b615d2f919061802f565b90508050615cff565b50615d50565b600082141515615d4f576001905080505b5b5b919050565b60008183615d64919061810c565b9050615d6b565b92915050565b60007401000000000000000000000000000000000000000082101515615dcc576040517f08c379a0000000000000000000000000000000000000000000000000000000008152600401615dc390617b16565b60405180910390fd5b819050615dd4565b919050565b6000600060008360020b12615df1578260020b615dff565b8260020b615dfe906183cc565b5b90507ffffffffffffffffffffffffffffffffffffffffffffffffffffffffffff27618615e2b90618389565b62ffffff168111151515615e74576040517f08c379a0000000000000000000000000000000000000000000000000000000008152600401615e6b906178df565b60405180910390fd5b60006000600183161415615e9957700100000000000000000000000000000000615eab565b6ffffcb933bd6fad37aa2d162d1a5940015b70ffffffffffffffffffffffffffffffffff169050600060028316141515615ef25760806ffff97272373d413259a46990580e213a82615eeb919061810c565b901c905080505b600060048316141515615f245760806ffff2e50f5f656932ef12357cf3c7fdcc82615f1d919061810c565b901c905080505b600060088316141515615f565760806fffe5caca7e10e4e61c3624eaa0941cd082615f4f919061810c565b901c905080505b600060108316141515615f885760806fffcb9843d60f6159c9db58835c92664482615f81919061810c565b901c905080505b600060208316141515615fba5760806fff973b41fa98c081472e6896dfb254c082615fb3919061810c565b901c905080505b600060408316141515615fec5760806fff2ea16466c96a3843ec78b326b5286182615fe5919061810c565b901c905080505b60006080831614151561601e5760806ffe5dee046a99a2a811c461f1969c305382616017919061810c565b901c905080505b600061010083161415156160515760806ffcbe86c7900a88aedcffc83b479aa3a48261604a919061810c565b901c905080505b600061020083161415156160845760806ff987a7253ac413176f2b074cf7815e548261607d919061810c565b901c905080505b600061040083161415156160b75760806ff3392b0822b70005940c7a398e4b70f3826160b0919061810c565b901c905080505b600061080083161415156160ea5760806fe7159475a2c29b7443b29c7fa6e889d9826160e3919061810c565b901c905080505b6000611000831614151561611d5760806fd097f3bdfd2022b8845ad8f792aa582582616116919061810c565b901c905080505b600061200083161415156161505760806fa9f746462d870fdf8a65dc1f90e061e582616149919061810c565b901c905080505b600061400083161415156161835760806f70d869a156d2a1b890bb3df62baf32f78261617c919061810c565b901c905080505b600061800083161415156161b65760806f31be135f97d08fd981231505542fcfa6826161af919061810c565b901c905080505b60006201000083161415156161ea5760806f09aa508b5b7a84e1c677de54f3e99bc9826161e3919061810c565b901c905080505b600062020000831614151561621d5760806e5d6af8dedb81196699c329225ee60482616216919061810c565b901c905080505b600062040000831614151561624f5760806d2216e584f5fa1ea926041bedfe9882616248919061810c565b901c905080505b600062080000831614151561627f5760806b048a170391f7dc42444e8fa282616278919061810c565b901c905080505b60008460020b13156162bc57807fffffffffffffffffffffffffffffffffffffffffffffffffffffffffffffffff6162b7919061802f565b905080505b6000640100000000826162cf919061836b565b146162db5760016162de565b60005b60ff16602082901c6162f0919061800f565b9250825050505b919050565b60006000836001016000506000846fffffffffffffffffffffffffffffffff166fffffffffffffffffffffffffffffffff1681526020019081526020016000206000505414159050616349565b92915050565b6060616364848460008561637263ffffffff16565b905061636b565b9392505050565b60608247101515156163b9576040517f08c379a00000000000000000000000000000000000000000000000000000000081526004016163b09061783b565b60405180910390fd5b6163c88561649e63ffffffff16565b1515616409576040517f08c379a000000000000000000000000000000000000000000000000000000000815260040161640090617a98565b60405180910390fd5b600060008673ffffffffffffffffffffffffffffffffffffffff168587604051616433919061738b565b60006040518083038185875af1925050503d8060008114616470576040519150601f19603f3d011682016040523d82523d6000602084013e616475565b606091505b509150915061648b8282866164b863ffffffff16565b925050506164965650505b949350505050565b60006000823b9050600081119150506164b356505b919050565b606083156164cc5782905061652356616522565b6000835111156164e45782518084602001fd50616521565b816040517f08c379a00000000000000000000000000000000000000000000000000000000081526004016165189190617762565b60405180910390fd5b5b5b9392505050565b6040518060800160405280600081526020016000815260200160008152602001600081526020015090565b604051806101a001604052806000815260200160008152602001600081526020016000815260200160008152602001600067ffffffffffffffff168152602001600067ffffffffffffffff168152602001600060020b8152602001600015158152602001600067ffffffffffffffff168152602001600063ffffffff168152602001600073ffffffffffffffffffffffffffffffffffffffff168152602001600067ffffffffffffffff1681526020015090565b604051806040016040528060008152602001600081526020015090565b8280546166329061828a565b90600052602060002090601f01602090048101928261665457600085556166a0565b82601f1061666d57805160ff19168380011785556166a0565b828001600101855582156166a0579182015b8281111561669f578251826000509090559160200191906001019061667f565b5b5090506166ad9190616806565b5090565b6040518060a00160405280600073ffffffffffffffffffffffffffffffffffffffff168152602001600067ffffffffffffffff16815260200160006003811115616724577f4e487b7100000000000000000000000000000000000000000000000000000000600052602160045260246000fd5b8152602001600062ffffff168152602001606081526020015090565b604051806101800160405280600073ffffffffffffffffffffffffffffffffffffffff168152602001600061ffff16815260200160008152602001600081526020016000815260200160006fffffffffffffffffffffffffffffffff168152602001600067ffffffffffffffff168152602001600060020b8152602001600060020b8152602001600063ffffffff168152602001600073ffffffffffffffffffffffffffffffffffffffff168152602001600067ffffffffffffffff1681526020015090565b61680b565b80821115616825576000818150600090555060010161680b565b50905661852e565b60008135905061683c8161849d565b5b919050565b6000815190506168518161849d565b5b919050565b600081359050616866816184c6565b5b919050565b60008135905061687b816184db565b5b919050565b600081519050616890816184db565b5b919050565b6000813590506168a5816184f1565b5b919050565b6000815190506168ba816184f1565b5b919050565b60008135905061ffff8116811415156168d95760006000fd5b5b919050565b6000815190506168ee81618516565b5b919050565b60008135905063ffffffff81168114151561690f5760006000fd5b5b919050565b60008135905067ffffffffffffffff8116811415156169345760006000fd5b5b919050565b60006020828403121561694b578081fd5b81356169568161849d565b809150505b92915050565b6000600060408385031215616974578081fd5b823561697f8161849d565b80925050602083013590505b9250929050565b60006000600060006000608086880312156169ab578081fd5b85356169b68161849d565b8095505060208601356169c88161849d565b8094505060408601359250606086013567ffffffffffffffff808211156169ed578283fd5b818801915088601f8301121515616a02578283fd5b813581811115616a10578384fd5b896020828501011115616a21578384fd5b6020830194508093505050505b9295509295909350565b6000600060408385031215616a4b578182fd5b8235616a568161849d565b80925050602083013590505b9250929050565b60006020808385031215616a7b578182fd5b823567ffffffffffffffff80821115616a92578384fd5b818501915085601f8301121515616aa7578384fd5b813581811115616aba57616ab961846c565b5b8060051b9150616acb848301617f00565b8082825285820191508585018987868801011115616ae7578788fd5b8795505b83861015616b1457616afc816168f4565b8352868301925086810190505b600186019550616aeb565b508096505050505050505b92915050565b600060208284031215616b36578081fd5b8151616b41816184c6565b809150505b92915050565b600060208284031215616b5d578081fd5b81357fffffffff00000000000000000000000000000000000000000000000000000000811681141515616b8e578182fd5b809150505b92915050565b600060208284031215616baa578081fd5b8151616bb58161849d565b809150505b92915050565b600060208284031215616bd1578081fd5b8151616bdc8161849d565b809150505b92915050565b600060208284031215616bf8578081fd5b8135616c038161849d565b809150505b92915050565b600060008284036060811215616c22578283fd5b8335616c2d8161849d565b8093505060407fffffffffffffffffffffffffffffffffffffffffffffffffffffffffffffffe082011215616c60578182fd5b506040516040810181811067ffffffffffffffff82111715616c8557616c8461846c565b5b80604052506020840135815260408401356020820152809150505b9250929050565b6000600060408385031215616cba578182fd5b8235616cc58161849d565b80925050602083013590505b9250929050565b600060208284031215616ce9578081fd5b8135616cf4816184db565b809150505b92915050565b6000600060408385031215616d12578182fd5b8235616d1d816184db565b809250506020830135616d2f816184db565b809150505b9250929050565b600060808284031215616d4c578081fd5b6040516080810181811067ffffffffffffffff82111715616d7057616d6f61846c565b5b806040525082358152602083013560208201526040830135604082015260608301356060820152809150505b92915050565b600060208284031215616db3578081fd5b813590505b92915050565b600060208284031215616dcf578081fd5b815190505b92915050565b600060008284036101a0811215616def578283fd5b83359250610180807fffffffffffffffffffffffffffffffffffffffffffffffffffffffffffffffe083011215616e24578283fd5b616e2c617e9c565b9150616e3a6020860161682d565b8252616e48604086016168c0565b6020830152606085013560408301526080850135606083015260a08501356080830152616e7760c08601616896565b60a0830152616e8860e08601616915565b60c0830152610100616e9b81870161686c565b60e0840152610120616eae81880161686c565b828501526101409150616ec28288016168f4565b8185015250610160616ed581880161682d565b82850152616ee4838801616915565b81850152505050809150505b9250929050565b6000600060408385031215616f0a578182fd5b82359150602083013590505b9250929050565b6000600060408385031215616f30578182fd5b616f39836168f4565b915060208084013567ffffffffffffffff80821115616f56578384fd5b818601915086601f8301121515616f6b578384fd5b813581811115616f7e57616f7d61846c565b5b616fae847fffffffffffffffffffffffffffffffffffffffffffffffffffffffffffffffe0601f84011601617f00565b91508082528784828501011115616fc3578485fd5b808484018584013784848284010152508093505050505b9250929050565b6000600060408385031215616ff4578182fd5b616ffd836168f4565b915061700b602084016168f4565b90505b9250929050565b600060208284031215617026578081fd5b61702f82616915565b90505b92915050565b600060008284036101c081121561704d578283fd5b61705684616915565b92506101a0807fffffffffffffffffffffffffffffffffffffffffffffffffffffffffffffffe083011215617089578283fd5b617091617ece565b91506020850135825260408501356020830152606085013560408301526080850135606083015260a085013560808301526170ce60c08601616915565b60a08301526170df60e08601616915565b60c08301526101006170f281870161686c565b60e0840152610120617105818801616857565b828501526101409150617119828801616915565b818501525061016061712c8188016168f4565b82850152610180915061714082880161682d565b8185015250617150828701616915565b818401525050809150505b9250929050565b6000600060408385031215617175578182fd5b61717e83616915565b9150602083013561718e81618516565b809150505b9250929050565b6000600060006000600060006000600060006000600060006101808d8f0312156171c257898afd5b8c516bffffffffffffffffffffffff8116811415156171df578a8bfd5b809c50506171ef60208e01616842565b9a506171fd60408e01616842565b995061720b60608e01616842565b985061721960808e016168df565b975061722760a08e01616881565b965061723560c08e01616881565b955061724360e08e016168ab565b94506101008d015193506101208d015192506172626101408e016168ab565b91506172716101608e016168ab565b90505b9295989b509295989b509295989b565b73ffffffffffffffffffffffffffffffffffffffff8116825250505b565b801515825250505b565b6004811015156172e5577f4e487b7100000000000000000000000000000000000000000000000000000000600052602160045260246000fd5b80825250505b565b8060020b825250505b565b60008151808452617310816020860160208601618255565b60207fffffffffffffffffffffffffffffffffffffffffffffffffffffffffffffffe0601f8301168501019150505b92915050565b6fffffffffffffffffffffffffffffffff8116825250505b565b61ffff8116825250505b565b63ffffffff8116825250505b565b67ffffffffffffffff8116825250505b565b6000825161739d818460208701618255565b8083019150505b92915050565b600060208201905073ffffffffffffffffffffffffffffffffffffffff831682525b92915050565b600060408201905073ffffffffffffffffffffffffffffffffffffffff8416825282151560208301525b9392505050565b600060408201905073ffffffffffffffffffffffffffffffffffffffff841682528260208301525b9392505050565b73ffffffffffffffffffffffffffffffffffffffff8616815267ffffffffffffffff8516602082015261746860408201856172ac565b62ffffff8316606082015260a06080820152600061748960a08301846172f8565b90505b9695505050505050565b60006020808301818452808551808352604092508286019150828160051b870101848801865b83811015617570577fffffffffffffffffffffffffffffffffffffffffffffffffffffffffffffffc0898403018552815160a073ffffffffffffffffffffffffffffffffffffffff825116855267ffffffffffffffff8983015116898601528782015161752b898701826172ac565b50606062ffffff818401511681870152506080808301519250818187015250617556818601836172f8565b94505050868201915086850194505b6001810190506174bc565b505080955050505050505b92915050565b600060208083018184528085518083526040860191508387019250845b818110156175d2576fffffffffffffffffffffffffffffffff8451168352848301925084840193505b60018101905061759e565b50508093505050505b92915050565b600060208083018184528085518083526040860191508387019250845b818110156176265763ffffffff8451168352848301925084840193505b6001810190506175fe565b50508093505050505b92915050565b600060208083018184528085518083526040860191508387019250845b8181101561767e5767ffffffffffffffff8451168352848301925084840193505b600181019050617652565b50508093505050505b92915050565b600060208201905082151582525b92915050565b60006020820190507fffffffff00000000000000000000000000000000000000000000000000000000831682525b92915050565b600060208201905073ffffffffffffffffffffffffffffffffffffffff831682525b92915050565b600060208201905073ffffffffffffffffffffffffffffffffffffffff831682525b92915050565b600060208201905073ffffffffffffffffffffffffffffffffffffffff831682525b92915050565b60006020820190508260020b82525b92915050565b60208152600061777560208301846172f8565b90505b92915050565b60208152600d60208201527f4c43205265656e7472616e637900000000000000000000000000000000000000604082015260006060820190505b919050565b60208152600360208201527f5354450000000000000000000000000000000000000000000000000000000000604082015260006060820190505b919050565b60208152601160208201527f6d6f7265207468616e2034302062697473000000000000000000000000000000604082015260006060820190505b919050565b60208152602660208201527f416464726573733a20696e73756666696369656e742062616c616e636520666f60408201527f722063616c6c0000000000000000000000000000000000000000000000000000606082015260006080820190505b919050565b60208152600e60208201527f4e6f7420417574686f72697a6564000000000000000000000000000000000000604082015260006060820190505b919050565b60208152600160208201527f5400000000000000000000000000000000000000000000000000000000000000604082015260006060820190505b919050565b60208152600c60208201527f506f736974696f6e20444e450000000000000000000000000000000000000000604082015260006060820190505b919050565b60208152601760208201527f4465627420776974686f757420636f6c6c61746572616c000000000000000000604082015260006060820190505b919050565b60208152601260208201527f6d6f7265207468616e2031373620626974730000000000000000000000000000604082015260006060820190505b919050565b60208152601260208201527f6d6f7265207468616e2031323820626974730000000000000000000000000000604082015260006060820190505b919050565b60208152601160208201527f6d6f7265207468616e2032342062697473000000000000000000000000000000604082015260006060820190505b919050565b60208152601d60208201527f446f6573206e6f7420616363657074204e465473206469726563746c79000000604082015260006060820190505b919050565b60208152601d60208201527f416464726573733a2063616c6c20746f206e6f6e2d636f6e7472616374000000604082015260006060820190505b919050565b60208152601560208201527f4d6178206b69636b6261636b2065786365656465640000000000000000000000604082015260006060820190505b919050565b60208152601260208201527f6d6f7265207468616e2031363020626974730000000000000000000000000000604082015260006060820190505b919050565b60208152602a60208201527f5361666545524332303a204552433230206f7065726174696f6e20646964206e60408201527f6f74207375636365656400000000000000000000000000000000000000000000606082015260006080820190505b919050565b60208152601160208201527f6d6f7265207468616e2036342062697473000000000000000000000000000000604082015260006060820190505b919050565b60208152600160208201527f5200000000000000000000000000000000000000000000000000000000000000604082015260006060820190505b919050565b60006101a082019050825182526020830151602083015260408301516040830152606083015160608301526080830151608083015260a0830151617c7f60a0840182617379565b5060c0830151617c9260c0840182617379565b5060e0830151617ca560e08401826172ed565b5061010080840151617cb9828501826172a2565b505061012080840151617cce82850182617379565b505061014080840151617ce38285018261736b565b505061016080840151617cf882850182617284565b505061018080840151617d0d82850182617379565b50505b92915050565b600061018082019050617d2a828451617284565b6020830151617d3c602084018261735f565b5060408301516040830152606083015160608301526080830151608083015260a0830151617d6d60a0840182617345565b5060c0830151617d8060c0840182617379565b5060e0830151617d9360e08401826172ed565b5061010080840151617da7828501826172ed565b505061012080840151617dbc8285018261736b565b505061014080840151617dd182850182617284565b505061016080840151617de682850182617379565b50505b92915050565b600060408201905082518252602083015160208301525b92915050565b6000608082019050825182526020830151602083015260408301516040830152606083015160608301525b92915050565b60006020820190508282525b92915050565b60006040820190508382528260208301525b9392505050565b600060208201905063ffffffff831682525b92915050565b600060208201905067ffffffffffffffff831682525b92915050565b60006040519050610180810181811067ffffffffffffffff82111715617ec557617ec461846c565b5b80604052505b90565b600060405190506101a0810181811067ffffffffffffffff82111715617ef757617ef661846c565b5b80604052505b90565b600060405190507fffffffffffffffffffffffffffffffffffffffffffffffffffffffffffffffe0601f830116810181811067ffffffffffffffff82111715617f4c57617f4b61846c565b5b80604052505b919050565b6000808212827f7fffffffffffffffffffffffffffffffffffffffffffffffffffffffffffffff03841381151615617f9257617f9161840a565b5b827f8000000000000000000000000000000000000000000000000000000000000000038412811615617fc757617fc661840a565b5b5082820190505b92915050565b60006fffffffffffffffffffffffffffffffff80831681851680830382111561800057617fff61840a565b5b80820193505050505b92915050565b600082198211156180235761802261840a565b5b82820190505b92915050565b60008215156180415761804061843b565b5b82820490505b92915050565b60007f7fffffffffffffffffffffffffffffffffffffffffffffffffffffffffffffff8184138284138583048511828216161561808d5761808c61840a565b5b7f8000000000000000000000000000000000000000000000000000000000000000848712868205881281841616156180c8576180c761840a565b5b8587129250878205871284841616156180e4576180e361840a565b5b878505871281841616156180fb576180fa61840a565b5b505050505082820290505b92915050565b6000817fffffffffffffffffffffffffffffffffffffffffffffffffffffffffffffffff04831182151516156181455761814461840a565b5b82820290505b92915050565b6000808312837f80000000000000000000000000000000000000000000000000000000000000000183128115161561818c5761818b61840a565b5b837f7fffffffffffffffffffffffffffffffffffffffffffffffffffffffffffffff0183138116156181c1576181c061840a565b5b5082820390505b92915050565b60006fffffffffffffffffffffffffffffffff8083168185169150818110156181fa576181f961840a565b5b818103925050505b92915050565b60008282101561821b5761821a61840a565b5b82820390505b92915050565b600063ffffffff8083168185169150818110156182475761824661840a565b5b818103925050505b92915050565b60005b838110156182745780820151818401525b602081019050618258565b83811115618283576000848401525b505050505b565b60008160011c9050600182168015156182a457607f821691505b602082108114156182de577f4e487b7100000000000000000000000000000000000000000000000000000000600052602260045260246000fd5b505b919050565b60007fffffffffffffffffffffffffffffffffffffffffffffffffffffffffffffffff8214156183185761831761840a565b5b6001820190505b919050565b600063ffffffff8083168181141561833f5761833e61840a565b5b60018101925050505b919050565b600082151561835f5761835e61843b565b5b82820790505b92915050565b600082151561837d5761837c61843b565b5b82820690505b92915050565b60008160020b7fffffffffffffffffffffffffffffffffffffffffffffffffffffffffff8000008114156183c0576183bf61840a565b5b8082039150505b919050565b60007f80000000000000000000000000000000000000000000000000000000000000008214156183ff576183fe61840a565b5b81810390505b919050565b7f4e487b7100000000000000000000000000000000000000000000000000000000600052601160045260246000fd5b565b7f4e487b7100000000000000000000000000000000000000000000000000000000600052601260045260246000fd5b565b7f4e487b7100000000000000000000000000000000000000000000000000000000600052604160045260246000fd5b565b73ffffffffffffffffffffffffffffffffffffffff8116811415156184c25760006000fd5b505b565b801515811415156184d75760006000fd5b505b565b8060020b811415156184ed5760006000fd5b505b565b6fffffffffffffffffffffffffffffffff8116811415156185125760006000fd5b505b565b62ffffff81168114151561852a5760006000fd5b505b565bfea2646970667358221220a2baccd47740b9c89b4081a038a6145ac2fd97424163f93b86acfde4a6f3937e64736f6c63430008040033",
  "linkReferences": {},
  "deployedLinkReferences": {}
}