{
  "_format": "hh-sol-artifact-1",
  "contractName": "TcpSafeMathTestable",
  "sourceName": "contracts/core/mocks/TCPSafeMathTestable.sol",
  "abi": [
    {
      "inputs": [
        {
          "internalType": "uint256",
          "name": "a",
          "type": "uint256"
        },
        {
          "internalType": "uint256",
          "name": "b",
          "type": "uint256"
        }
      ],
      "name": "_div",
      "outputs": [
        {
          "internalType": "uint256",
          "name": "r",
          "type": "uint256"
        }
      ],
      "stateMutability": "pure",
      "type": "function"
    },
    {
      "inputs": [
        {
          "internalType": "uint256",
          "name": "a",
          "type": "uint256"
        },
        {
          "internalType": "uint256",
          "name": "b",
          "type": "uint256"
        }
      ],
      "name": "_mul",
      "outputs": [
        {
          "internalType": "uint256",
          "name": "r",
          "type": "uint256"
        }
      ],
      "stateMutability": "pure",
      "type": "function"
    },
    {
      "inputs": [
        {
          "internalType": "uint256",
          "name": "a",
          "type": "uint256"
        },
        {
          "internalType": "uint256",
          "name": "b",
          "type": "uint256"
        },
        {
          "internalType": "uint256",
          "name": "c",
          "type": "uint256"
        }
      ],
      "name": "_mulDiv",
      "outputs": [
        {
          "internalType": "uint256",
          "name": "r",
          "type": "uint256"
        }
      ],
      "stateMutability": "pure",
      "type": "function"
    }
  ],
  "bytecode": "0x60806040523480156100115760006000fd5b50610017565b610351806100266000396000f3fe60806040523480156100115760006000fd5b50600436106100465760003560e01c806329f5278a1461004c57806340248bc31461007c5780634bad3327146100ac57610046565b60006000fd5b610066600480360381019061006191906102d9565b6100dc565b6040516100739190610308565b60405180910390f35b610096600480360381019061009191906102b3565b6100ff565b6040516100a39190610308565b60405180910390f35b6100c660048036038101906100c191906102b3565b61011f565b6040516100d39190610308565b60405180910390f35b60006100f383838661013f9092919063ffffffff16565b905080505b9392505050565b6000610114828461026390919063ffffffff16565b905080505b92915050565b6000610134828461028990919063ffffffff16565b905080505b92915050565b6000600060006000198587098587029250828110838203039150506000811415610182576000841115156101735760006000fd5b8382049250829250505061025c565b80841115156101915760006000fd5b60008486880990508281118203915080830392506000856001877fffffffffffffffffffffffffffffffffffffffffffffffffffffffffffffffff03011690508050808604955080840493506001818260000304019050808302841793508350600060028760030218905080870260020381029050805080870260020381029050805080870260020381029050805080870260020381029050805080870260020381029050805080870260020381029050805080850295508550508494505050505061025c56505050505b9392505050565b600061027e83670de0b6b3a76400008461013f63ffffffff16565b905080505b92915050565b60006102a48383670de0b6b3a764000061013f63ffffffff16565b905080505b929150505661031a565b60006000604083850312156102c6578182fd5b82359150602083013590505b9250929050565b600060006000606084860312156102ee578081fd5b8335925060208401359150604084013590505b9250925092565b60006020820190508282525b92915050565bfea2646970667358221220c1de6886dc9f4c4d8ac2dd623f07c6fb2408ff5209d5e5e335c32c97c4add31e64736f6c63430008040033",
  "linkReferences": {},
  "deployedLinkReferences": {}
}