{
  "_format": "hh-sol-artifact-1",
  "contractName": "UniswapV3Factory",
  "sourceName": "contracts/uniswap-v3-core/UniswapV3Factory.sol",
  "abi": [
    {
      "inputs": [],
      "stateMutability": "nonpayable",
      "type": "constructor"
    },
    {
      "anonymous": false,
      "inputs": [
        {
          "indexed": true,
          "internalType": "uint24",
          "name": "fee",
          "type": "uint24"
        },
        {
          "indexed": true,
          "internalType": "int24",
          "name": "tickSpacing",
          "type": "int24"
        }
      ],
      "name": "FeeAmountEnabled",
      "type": "event"
    },
    {
      "anonymous": false,
      "inputs": [
        {
          "indexed": true,
          "internalType": "address",
          "name": "oldOwner",
          "type": "address"
        },
        {
          "indexed": true,
          "internalType": "address",
          "name": "newOwner",
          "type": "address"
        }
      ],
      "name": "OwnerChanged",
      "type": "event"
    },
    {
      "anonymous": false,
      "inputs": [
        {
          "indexed": true,
          "internalType": "address",
          "name": "token0",
          "type": "address"
        },
        {
          "indexed": true,
          "internalType": "address",
          "name": "token1",
          "type": "address"
        },
        {
          "indexed": true,
          "internalType": "uint24",
          "name": "fee",
          "type": "uint24"
        },
        {
          "indexed": false,
          "internalType": "int24",
          "name": "tickSpacing",
          "type": "int24"
        },
        {
          "indexed": false,
          "internalType": "address",
          "name": "pool",
          "type": "address"
        }
      ],
      "name": "PoolCreated",
      "type": "event"
    },
    {
      "inputs": [
        {
          "internalType": "address",
          "name": "tokenA",
          "type": "address"
        },
        {
          "internalType": "address",
          "name": "tokenB",
          "type": "address"
        },
        {
          "internalType": "uint24",
          "name": "fee",
          "type": "uint24"
        }
      ],
      "name": "createPool",
      "outputs": [
        {
          "internalType": "address",
          "name": "pool",
          "type": "address"
        }
      ],
      "stateMutability": "nonpayable",
      "type": "function"
    },
    {
      "inputs": [
        {
          "internalType": "uint24",
          "name": "fee",
          "type": "uint24"
        },
        {
          "internalType": "int24",
          "name": "tickSpacing",
          "type": "int24"
        }
      ],
      "name": "enableFeeAmount",
      "outputs": [],
      "stateMutability": "nonpayable",
      "type": "function"
    },
    {
      "inputs": [
        {
          "internalType": "uint24",
          "name": "",
          "type": "uint24"
        }
      ],
      "name": "feeAmountTickSpacing",
      "outputs": [
        {
          "internalType": "int24",
          "name": "",
          "type": "int24"
        }
      ],
      "stateMutability": "view",
      "type": "function"
    },
    {
      "inputs": [
        {
          "internalType": "address",
          "name": "",
          "type": "address"
        },
        {
          "internalType": "address",
          "name": "",
          "type": "address"
        },
        {
          "internalType": "uint24",
          "name": "",
          "type": "uint24"
        }
      ],
      "name": "getPool",
      "outputs": [
        {
          "internalType": "address",
          "name": "",
          "type": "address"
        }
      ],
      "stateMutability": "view",
      "type": "function"
    },
    {
      "inputs": [],
      "name": "owner",
      "outputs": [
        {
          "internalType": "address",
          "name": "",
          "type": "address"
        }
      ],
      "stateMutability": "view",
      "type": "function"
    },
    {
      "inputs": [],
      "name": "parameters",
      "outputs": [
        {
          "internalType": "address",
          "name": "factory",
          "type": "address"
        },
        {
          "internalType": "address",
          "name": "token0",
          "type": "address"
        },
        {
          "internalType": "address",
          "name": "token1",
          "type": "address"
        },
        {
          "internalType": "uint24",
          "name": "fee",
          "type": "uint24"
        },
        {
          "internalType": "int24",
          "name": "tickSpacing",
          "type": "int24"
        }
      ],
      "stateMutability": "view",
      "type": "function"
    },
    {
      "inputs": [
        {
          "internalType": "address",
          "name": "_owner",
          "type": "address"
        }
      ],
      "name": "setOwner",
      "outputs": [],
      "stateMutability": "nonpayable",
      "type": "function"
    }
  ],
  "bytecode": "0x60a06040523480156100115760006000fd5b505b5b3073ffffffffffffffffffffffffffffffffffffffff1660808173ffffffffffffffffffffffffffffffffffffffff16815260200150505b33600360006101000a81548173ffffffffffffffffffffffffffffffffffffffff021916908373ffffffffffffffffffffffffffffffffffffffff1602179055503373ffffffffffffffffffffffffffffffffffffffff16600073ffffffffffffffffffffffffffffffffffffffff167fb532073b38c83145e3e5135377a08bf9aab55bc0fd7c1179cd4fb995d2a5159c60405160405180910390a3600a600460005060006101f462ffffff16815260200190815260200160002060006101000a81548162ffffff021916908360020b62ffffff160217905550600a6101f47fc66a3fdf07232cdd185febcc6579d408c241b47ae2f9907d84be655141eeaecc60405160405180910390a3603c60046000506000610bb862ffffff16815260200190815260200160002060006101000a81548162ffffff021916908360020b62ffffff160217905550603c610bb87fc66a3fdf07232cdd185febcc6579d408c241b47ae2f9907d84be655141eeaecc60405160405180910390a360c86004600050600061271062ffffff16815260200190815260200160002060006101000a81548162ffffff021916908360020b62ffffff16021790555060c86127107fc66a3fdf07232cdd185febcc6579d408c241b47ae2f9907d84be655141eeaecc60405160405180910390a35b61023b565b60805161b84a61025660003960006109e6015261b84a6000f3fe6080604052348015620000125760006000fd5b50600436106200008e5760003560e01c80638903573011620000645780638903573014620001205780638a7c195f14620001465780638da5cb5b1462000166578063a16712951462000188576200008e565b806313af403514620000945780631698ee8214620000b457806322afcccb14620000ea576200008e565b60006000fd5b620000b26004803603810190620000ac919062000d3b565b620001be565b005b620000d26004803603810190620000cc919062000d84565b620002dd565b604051620000e1919062000dd1565b60405180910390f35b62000108600480360381019062000102919062000df9565b62000335565b60405162000117919062000e21565b60405180910390f35b6200012a6200035a565b6040516200013d95949392919062000e36565b60405180910390f35b6200016460048036038101906200015e919062000e88565b620003fd565b005b6200017062000554565b6040516200017f919062000dd1565b60405180910390f35b620001a66004803603810190620001a0919062000d84565b6200057a565b604051620001b5919062000dd1565b60405180910390f35b600360009054906101000a900473ffffffffffffffffffffffffffffffffffffffff1673ffffffffffffffffffffffffffffffffffffffff163373ffffffffffffffffffffffffffffffffffffffff161415156200021c5760006000fd5b8073ffffffffffffffffffffffffffffffffffffffff16600360009054906101000a900473ffffffffffffffffffffffffffffffffffffffff1673ffffffffffffffffffffffffffffffffffffffff167fb532073b38c83145e3e5135377a08bf9aab55bc0fd7c1179cd4fb995d2a5159c60405160405180910390a380600360006101000a81548173ffffffffffffffffffffffffffffffffffffffff021916908373ffffffffffffffffffffffffffffffffffffffff1602179055505b50565b6005600050602052826000526040600020600050602052816000526040600020600050602052806000526040600020600092509250509054906101000a900473ffffffffffffffffffffffffffffffffffffffff1681565b600460005060205280600052604060002060009150909054906101000a900460020b81565b60006000508060000160009054906101000a900473ffffffffffffffffffffffffffffffffffffffff16908060010160009054906101000a900473ffffffffffffffffffffffffffffffffffffffff16908060020160009054906101000a900473ffffffffffffffffffffffffffffffffffffffff16908060020160149054906101000a900462ffffff16908060020160179054906101000a900460020b905085565b600360009054906101000a900473ffffffffffffffffffffffffffffffffffffffff1673ffffffffffffffffffffffffffffffffffffffff163373ffffffffffffffffffffffffffffffffffffffff161415156200045b5760006000fd5b620f42408262ffffff16101515620004735760006000fd5b60008160020b1380156200048b57506140008160020b125b1515620004985760006000fd5b6000600460005060008462ffffff1662ffffff16815260200190815260200160002060009054906101000a900460020b60020b141515620004d95760006000fd5b80600460005060008462ffffff1662ffffff16815260200190815260200160002060006101000a81548162ffffff021916908360020b62ffffff1602179055508060020b8262ffffff167fc66a3fdf07232cdd185febcc6579d408c241b47ae2f9907d84be655141eeaecc60405160405180910390a35b5050565b600360009054906101000a900473ffffffffffffffffffffffffffffffffffffffff1681565b60006200058c620009e463ffffffff16565b8273ffffffffffffffffffffffffffffffffffffffff168473ffffffffffffffffffffffffffffffffffffffff1614151515620005c95760006000fd5b600060008473ffffffffffffffffffffffffffffffffffffffff168673ffffffffffffffffffffffffffffffffffffffff1610620006095784866200060c565b85855b91509150600073ffffffffffffffffffffffffffffffffffffffff168273ffffffffffffffffffffffffffffffffffffffff16141515156200064e5760006000fd5b6000600460005060008662ffffff1662ffffff16815260200190815260200160002060009054906101000a900460020b905060008160020b14151515620006955760006000fd5b600073ffffffffffffffffffffffffffffffffffffffff16600560005060008573ffffffffffffffffffffffffffffffffffffffff1673ffffffffffffffffffffffffffffffffffffffff16815260200190815260200160002060005060008473ffffffffffffffffffffffffffffffffffffffff1673ffffffffffffffffffffffffffffffffffffffff16815260200190815260200160002060005060008762ffffff1662ffffff16815260200190815260200160002060009054906101000a900473ffffffffffffffffffffffffffffffffffffffff1673ffffffffffffffffffffffffffffffffffffffff16141515620007925760006000fd5b620007a7308484888562000a4363ffffffff16565b9350835083600560005060008573ffffffffffffffffffffffffffffffffffffffff1673ffffffffffffffffffffffffffffffffffffffff16815260200190815260200160002060005060008473ffffffffffffffffffffffffffffffffffffffff1673ffffffffffffffffffffffffffffffffffffffff16815260200190815260200160002060005060008762ffffff1662ffffff16815260200190815260200160002060006101000a81548173ffffffffffffffffffffffffffffffffffffffff021916908373ffffffffffffffffffffffffffffffffffffffff16021790555083600560005060008473ffffffffffffffffffffffffffffffffffffffff1673ffffffffffffffffffffffffffffffffffffffff16815260200190815260200160002060005060008573ffffffffffffffffffffffffffffffffffffffff1673ffffffffffffffffffffffffffffffffffffffff16815260200190815260200160002060005060008762ffffff1662ffffff16815260200190815260200160002060006101000a81548173ffffffffffffffffffffffffffffffffffffffff021916908373ffffffffffffffffffffffffffffffffffffffff1602179055508462ffffff168273ffffffffffffffffffffffffffffffffffffffff168473ffffffffffffffffffffffffffffffffffffffff167f783cca1c0412dd0d695e784568c96da2e9c22ff989357a2e8b1d9b2b4e6b71188488604051620009d092919062000ecf565b60405180910390a45050505b5b9392505050565b7f000000000000000000000000000000000000000000000000000000000000000073ffffffffffffffffffffffffffffffffffffffff163073ffffffffffffffffffffffffffffffffffffffff1614151562000a405760006000fd5b5b565b60006040518060a001604052808773ffffffffffffffffffffffffffffffffffffffff1681526020018673ffffffffffffffffffffffffffffffffffffffff1681526020018573ffffffffffffffffffffffffffffffffffffffff1681526020018462ffffff1681526020018360020b815260200150600060005060008201518160000160006101000a81548173ffffffffffffffffffffffffffffffffffffffff021916908373ffffffffffffffffffffffffffffffffffffffff16021790555060208201518160010160006101000a81548173ffffffffffffffffffffffffffffffffffffffff021916908373ffffffffffffffffffffffffffffffffffffffff16021790555060408201518160020160006101000a81548173ffffffffffffffffffffffffffffffffffffffff021916908373ffffffffffffffffffffffffffffffffffffffff16021790555060608201518160020160146101000a81548162ffffff021916908362ffffff16021790555060808201518160020160176101000a81548162ffffff021916908360020b62ffffff16021790555090505084848460405160200162000bfa9392919062000f01565b6040516020818303038152906040528051906020012060405162000c1e9062000cf6565b8190604051809103906000f590508015801562000c40573d600060003e3d6000fd5b5090508050600060006000820160006101000a81549073ffffffffffffffffffffffffffffffffffffffff02191690556001820160006101000a81549073ffffffffffffffffffffffffffffffffffffffff02191690556002820160006101000a81549073ffffffffffffffffffffffffffffffffffffffff02191690556002820160146101000a81549062ffffff02191690556002820160176101000a81549062ffffff021916905550505b95945050505050565b61a8d38062000f42833901905662000f40565b60008135905073ffffffffffffffffffffffffffffffffffffffff81168114151562000d355760006000fd5b5b919050565b60006020828403121562000d4f5760006000fd5b62000d5a8262000d09565b90505b92915050565b60008135905062ffffff81168114151562000d7e5760006000fd5b5b919050565b6000600060006060848603121562000d9c5760006000fd5b62000da78462000d09565b925062000db76020850162000d09565b915062000dc76040850162000d63565b90505b9250925092565b600060208201905073ffffffffffffffffffffffffffffffffffffffff831682525b92915050565b60006020828403121562000e0d5760006000fd5b62000e188262000d63565b90505b92915050565b60006020820190508260020b82525b92915050565b600060a08201905073ffffffffffffffffffffffffffffffffffffffff8088168352808716602084015280861660408401525062ffffff841660608301528260020b60808301525b9695505050505050565b600060006040838503121562000e9e5760006000fd5b62000ea98362000d63565b915060208301358060020b8114151562000ec35760006000fd5b809150505b9250929050565b60006040820190508360020b825273ffffffffffffffffffffffffffffffffffffffff831660208301525b9392505050565b600060608201905073ffffffffffffffffffffffffffffffffffffffff808616835280851660208401525062ffffff831660408301525b949350505050565bfe610160604052348015620000135760006000fd5b505b5b3073ffffffffffffffffffffffffffffffffffffffff1660808173ffffffffffffffffffffffffffffffffffffffff16815260200150505b60003373ffffffffffffffffffffffffffffffffffffffff1663890357306040518163ffffffff1660e01b815260040160a060405180830381865afa1580156200009d573d600060003e3d6000fd5b505050506040513d601f19601f82011682018060405250810190620000c39190620002f9565b8095508162ffffff166101009062ffffff168152602001508273ffffffffffffffffffffffffffffffffffffffff1660e09073ffffffffffffffffffffffffffffffffffffffff168152602001508373ffffffffffffffffffffffffffffffffffffffff1660c09073ffffffffffffffffffffffffffffffffffffffff168152602001508473ffffffffffffffffffffffffffffffffffffffff1660a09073ffffffffffffffffffffffffffffffffffffffff1681526020015050505050508060020b6101208160020b81526020015050620001aa81620001e160201b62003c7b1760201c565b6fffffffffffffffffffffffffffffffff16610140816fffffffffffffffffffffffffffffffff1681526020015050505b62000582565b6000600082837ffffffffffffffffffffffffffffffffffffffffffffffffffffffffffff27618620002149190620003b7565b62000220919062000400565b9050600083847ffffffffffffffffffffffffffffffffffffffffffffffffffffffffffff276186200025290620004a0565b6200025e9190620003b7565b6200026a919062000400565b9050600060018584846200027f9190620004cb565b6200028b9190620003b7565b62000297919062000520565b90508062ffffff166fffffffffffffffffffffffffffffffff620002bc919062000551565b9350505050620002ca565050505b9190505662000581565b6000815190506001600160a01b03811681141515620002f35760006000fd5b5b919050565b6000600060006000600060a08688031215620003155760006000fd5b6200032086620002d4565b94506200033060208701620002d4565b93506200034060408701620002d4565b9250606086015162ffffff8116811415156200035c5760006000fd5b8092505060808601518060020b81141515620003785760006000fd5b809150505b9295509295909350565b634e487b7160e01b600052601260045260246000fd5b565b634e487b7160e01b600052601160045260246000fd5b565b60008160020b8360020b801515620003d457620003d362000387565b5b6000198114627fffff1983141615620003f257620003f16200039f565b5b808205925050505b92915050565b60008160020b8360020b627fffff60008213600084138383048511828216161562000430576200042f6200039f565b5b627fffff1960008512868205861281841616156200045357620004526200039f565b5b600087129250858205871284841616156200047357620004726200039f565b5b858505871281841616156200048d576200048c6200039f565b5b5050505050808202925050505b92915050565b60008160020b627fffff19811415620004be57620004bd6200039f565b5b806000039150505b919050565b60008160020b8360020b6000811281627fffff1901831281151615620004f657620004f56200039f565b5b81627fffff0183138116156200051157620005106200039f565b5b50808203925050505b92915050565b600062ffffff8083168185168083038211156200054257620005416200039f565b5b80820193505050505b92915050565b60006001600160801b0380841680151562000571576200057062000387565b5b8082851604925050505b92915050565b5b60805160a05160c05160e05161010051610120516101405161a26a620006696000396000818161296501528181616f850152616fd3015260008181610adc015281816138be0152818161701e015261705e015260008181610d0001528181611fa101528181611fde015261390601526000818161156801528181612080015281816127ee01528181613042015281816138e2015261584d0152600081816105a20152818161169b015281816120450152818161272a01528181612f1b01526156e4015260008181612a0101528181612c6d015261389a01526000613d58015261a26a6000f3fe60806040523480156100115760006000fd5b50600436106101b35760003560e01c806370cf754a116100ef578063c45a015511610098578063ddca3f4311610072578063ddca3f4314610511578063f30583991461052f578063f30dba931461054d578063f637731d14610584576101b3565b8063c45a0155146104b7578063d0c93a7c146104d5578063d21220a7146104f3576101b3565b8063883bdbfd116100c9578063883bdbfd14610423578063a34123a714610454578063a38807f214610485576101b3565b806370cf754a146103b85780638206a4d1146103d657806385b66729146103f2576101b3565b80633850c7bd1161015c578063490e6cbc11610136578063490e6cbc146103075780634f1eb3d814610323578063514ea4bf146103545780635339c29614610388576101b3565b80633850c7bd146102945780633c8a7d8d146102b857806346141319146102e9576101b3565b80631ad8b03b1161018d5780631ad8b03b14610226578063252c09d71461024557806332148f6714610278576101b3565b80630dfe1681146101b9578063128acb08146101d75780631a68650214610208576101b3565b60006000fd5b6101c16105a0565b6040516101ce919061840c565b60405180910390f35b6101f160048036038101906101ec91906184c3565b6105c4565b6040516101ff929190618556565b60405180910390f35b610210611867565b60405161021d919061856f565b60405180910390f35b61022e611889565b60405161023c929190618593565b60405180910390f35b61025f600480360381019061025a91906185c2565b6118d6565b60405161026f94939291906185e0565b60405180910390f35b610292600480360381019061028d9190618628565b61195a565b005b61029c611aaf565b6040516102af979695949392919061865b565b60405180910390f35b6102d260048036038101906102cd919061870a565b611b53565b6040516102e092919061879c565b60405180910390f35b6102f1611e90565b6040516102fe91906187b5565b60405180910390f35b610321600480360381019061031c91906187c7565b611e99565b005b61033d6004803603810190610338919061883b565b61251c565b60405161034b929190618593565b60405180910390f35b61036e600480360381019061036991906188a8565b6128b5565b60405161037f9594939291906188c6565b60405180910390f35b6103a2600480360381019061039d919061890c565b612948565b6040516103af91906187b5565b60405180910390f35b6103c0612963565b6040516103cd919061856f565b60405180910390f35b6103f060048036038101906103eb919061895c565b612987565b005b61040c60048036038101906104079190618992565b612bef565b60405161041a929190618593565b60405180910390f35b61043d600480360381019061043891906189dc565b613114565b60405161044b929190618a5b565b60405180910390f35b61046e60048036038101906104699190618b05565b613205565b60405161047c92919061879c565b60405180910390f35b61049f600480360381019061049a9190618b4b565b613496565b6040516104ae93929190618b81565b60405180910390f35b6104bf613898565b6040516104cc919061840c565b60405180910390f35b6104dd6138bc565b6040516104ea9190618bc0565b60405180910390f35b6104fb6138e0565b604051610508919061840c565b60405180910390f35b610519613904565b6040516105269190618bd5565b60405180910390f35b610537613928565b60405161054491906187b5565b60405180910390f35b61056760048036038101906105629190618bec565b613931565b60405161057b989796959493929190618c11565b60405180910390f35b61059e60048036038101906105999190618c8b565b6139f5565b005b7f000000000000000000000000000000000000000000000000000000000000000081565b600060006105d6613d5663ffffffff16565b6000861415151561061c576040517f08c379a000000000000000000000000000000000000000000000000000000000815260040161061390618cb4565b60405180910390fd5b600060006000506040518060e00160405290816000820160009054906101000a900473ffffffffffffffffffffffffffffffffffffffff1673ffffffffffffffffffffffffffffffffffffffff1673ffffffffffffffffffffffffffffffffffffffff1681526020016000820160149054906101000a900460020b60020b60020b81526020016000820160179054906101000a900461ffff1661ffff1661ffff1681526020016000820160199054906101000a900461ffff1661ffff1661ffff16815260200160008201601b9054906101000a900461ffff1661ffff1661ffff16815260200160008201601d9054906101000a900460ff1660ff1660ff16815260200160008201601e9054906101000a900460ff16151515158152602001505090508060c001511515610784576040517f08c379a000000000000000000000000000000000000000000000000000000000815260040161077b90618cf3565b60405180910390fd5b8761080c57806000015173ffffffffffffffffffffffffffffffffffffffff168673ffffffffffffffffffffffffffffffffffffffff16118015610807575073fffd8963efd1fc6a506488495d951d5263988d2673ffffffffffffffffffffffffffffffffffffffff168673ffffffffffffffffffffffffffffffffffffffff16105b61087c565b806000015173ffffffffffffffffffffffffffffffffffffffff168673ffffffffffffffffffffffffffffffffffffffff1610801561087b57506401000276a373ffffffffffffffffffffffffffffffffffffffff168673ffffffffffffffffffffffffffffffffffffffff16115b5b15156108bd576040517f08c379a00000000000000000000000000000000000000000000000000000000081526004016108b490618d32565b60405180910390fd5b60006000600050600001601e6101000a81548160ff02191690831515021790555060006040518060c001604052808a6109015760048460a0015160ff16901c610913565b60108460a001516109129190618da2565b5b60ff168152602001600460009054906101000a90046fffffffffffffffffffffffffffffffff166fffffffffffffffffffffffffffffffff16815260200161095f613db463ffffffff16565b63ffffffff168152602001600060060b8152602001600073ffffffffffffffffffffffffffffffffffffffff168152602001600015158152602001509050600060008913905060006040518060e001604052808b815260200160008152602001856000015173ffffffffffffffffffffffffffffffffffffffff168152602001856020015160020b81526020018c6109fc57600260005054610a03565b6001600050545b815260200160006fffffffffffffffffffffffffffffffff16815260200184602001516fffffffffffffffffffffffffffffffff1681526020015090505b6000816000015114158015610a8657508873ffffffffffffffffffffffffffffffffffffffff16816040015173ffffffffffffffffffffffffffffffffffffffff1614155b156111e057610a9361834b565b8160400151816000019073ffffffffffffffffffffffffffffffffffffffff16908173ffffffffffffffffffffffffffffffffffffffff1681526020015050610b1182606001517f00000000000000000000000000000000000000000000000000000000000000008e6006600050613dc1909392919063ffffffff16565b82602001836040018290901515151581526020015082909060020b60020b81526020015050507ffffffffffffffffffffffffffffffffffffffffffffffffffffffffffff2761860020b816020015160020b1215610ba3577ffffffffffffffffffffffffffffffffffffffffffffffffffffffffffff27618816020019060020b908160020b81526020015050610c1e565b7ffffffffffffffffffffffffffffffffffffffffffffffffffffffffffff27618610bcd90618df9565b60020b816020015160020b1315610c1d577ffffffffffffffffffffffffffffffffffffffffffffffffffffffffffff27618610c0890618df9565b816020019060020b908160020b815260200150505b5b610c318160200151613fd963ffffffff16565b816060019073ffffffffffffffffffffffffffffffffffffffff16908173ffffffffffffffffffffffffffffffffffffffff1681526020015050610d2a82604001518d610cb0578b73ffffffffffffffffffffffffffffffffffffffff16836060015173ffffffffffffffffffffffffffffffffffffffff1611610ce4565b8b73ffffffffffffffffffffffffffffffffffffffff16836060015173ffffffffffffffffffffffffffffffffffffffff16105b610cf2578260600151610cf4565b8b5b8460c0015185600001517f00000000000000000000000000000000000000000000000000000000000000006144fa63ffffffff16565b85604001856080018660a0018760c00184909081526020015084909081526020015084909081526020015084909073ffffffffffffffffffffffffffffffffffffffff1673ffffffffffffffffffffffffffffffffffffffff16815260200150505050508215610e1357610db88160c001518260800151610dab9190618e3d565b6147f3909063ffffffff16565b82600001818151610dc99190618e5d565b915090908181526020015050610e00610ded8260a001516147f3909063ffffffff16565b836020015161482f90919063ffffffff16565b8260200190908181526020015050610e8e565b610e288160a001516147f3909063ffffffff16565b82600001818151610e399190618edb565b915090908181526020015050610e7f610e6c8260c001518360800151610e5f9190618e3d565b6147f3909063ffffffff16565b836020015161486090919063ffffffff16565b82602001909081815260200150505b6000846000015160ff161115610f1b576000846000015160ff168260c00151610eb79190618f59565b9050808260c001818151610ecb9190618f77565b915090908181526020015050808360a001818151610ee99190618f96565b9150906fffffffffffffffffffffffffffffffff1690816fffffffffffffffffffffffffffffffff1681526020015050505b60008260c001516fffffffffffffffffffffffffffffffff161115610f9457610f768160c001517001000000000000000000000000000000008460c001516fffffffffffffffffffffffffffffffff1661489163ffffffff16565b82608001818151610f879190618e3d565b9150909081815260200150505b806060015173ffffffffffffffffffffffffffffffffffffffff16826040015173ffffffffffffffffffffffffffffffffffffffff1614156111745780604001511561113a578360a00151151561107e5761101b846040015160008760200151886040015188602001518a6060015160086000506149b5909695949392919063ffffffff16565b856060018660800182909073ffffffffffffffffffffffffffffffffffffffff1673ffffffffffffffffffffffffffffffffffffffff1681526020015082909060060b60060b815260200150505060018460a00190151590811515815260200150505b60006110db82602001518e6110985760016000505461109e565b84608001515b8f6110ad5785608001516110b4565b6002600050545b886080015189606001518a604001516005600050614c72909695949392919063ffffffff16565b90508c156110f257806110ed90618fd1565b905080505b6111068360c0015182614df263ffffffff16565b8360c001906fffffffffffffffffffffffffffffffff1690816fffffffffffffffffffffffffffffffff1681526020015050505b8b61114957806020015161115b565b6001816020015161115a9190619015565b5b826060019060020b908160020b815260200150506111da565b806000015173ffffffffffffffffffffffffffffffffffffffff16826040015173ffffffffffffffffffffffffffffffffffffffff161415156111d9576111c48260400151614f0363ffffffff16565b826060019060020b908160020b815260200150505b5b50610a41565b836020015160020b816060015160020b14151561130c576000600061123486604001518660400151886020015188602001518a606001518b608001516008600050615317909695949392919063ffffffff16565b91509150826040015183606001518383600060005060000160006000600050600001601460006000506000016017600060005060000160198891906101000a81548161ffff021916908361ffff1602179055508791906101000a81548161ffff021916908361ffff1602179055508691906101000a81548162ffffff021916908360020b62ffffff1602179055508591906101000a81548173ffffffffffffffffffffffffffffffffffffffff021916908373ffffffffffffffffffffffffffffffffffffffff160217905550505050505050611358565b8060400151600060005060000160006101000a81548173ffffffffffffffffffffffffffffffffffffffff021916908373ffffffffffffffffffffffffffffffffffffffff1602179055505b8060c001516fffffffffffffffffffffffffffffffff1683602001516fffffffffffffffffffffffffffffffff161415156113cb578060c00151600460006101000a8154816fffffffffffffffffffffffffffffffff02191690836fffffffffffffffffffffffffffffffff1602179055505b8a15611473578060800151600160005081909090555060008160a001516fffffffffffffffffffffffffffffffff16111561146e578060a00151600360005060000160008282829054906101000a90046fffffffffffffffffffffffffffffffff166114379190618f96565b92506101000a8154816fffffffffffffffffffffffffffffffff02191690836fffffffffffffffffffffffffffffffff1602179055505b611511565b8060800151600260005081909090555060008160a001516fffffffffffffffffffffffffffffffff161115611510578060a00151600360005060000160108282829054906101000a90046fffffffffffffffffffffffffffffffff166114d99190618f96565b92506101000a8154816fffffffffffffffffffffffffffffffff02191690836fffffffffffffffffffffffffffffffff1602179055505b5b8115158b15151461153657806020015181600001518b6115319190618e5d565b61154c565b80600001518a6115469190618e5d565b81602001515b80965081975050508a1561168d57600085121561159e5761159d7f00000000000000000000000000000000000000000000000000000000000000008d8761159290619080565b61558363ffffffff16565b5b60006115ae6156dc63ffffffff16565b90503373ffffffffffffffffffffffffffffffffffffffff1663fa461e3388888c8c6040518563ffffffff1660e01b81526004016115ef9493929190619109565b600060405180830381600087803b15801561160a5760006000fd5b505af115801561161f573d600060003e3d6000fd5b505050506116316156dc63ffffffff16565b611644888361581e90919063ffffffff16565b11151515611687576040517f08c379a000000000000000000000000000000000000000000000000000000000815260040161167e90619135565b60405180910390fd5b506117bc565b60008612156116d1576116d07f00000000000000000000000000000000000000000000000000000000000000008d886116c590619080565b61558363ffffffff16565b5b60006116e161584563ffffffff16565b90503373ffffffffffffffffffffffffffffffffffffffff1663fa461e3388888c8c6040518563ffffffff1660e01b81526004016117229493929190619109565b600060405180830381600087803b15801561173d5760006000fd5b505af1158015611752573d600060003e3d6000fd5b5050505061176461584563ffffffff16565b611777878361581e90919063ffffffff16565b111515156117ba576040517f08c379a00000000000000000000000000000000000000000000000000000000081526004016117b190619135565b60405180910390fd5b505b8b73ffffffffffffffffffffffffffffffffffffffff163373ffffffffffffffffffffffffffffffffffffffff167fc42079f94a6350d7e6235f29174924f928cc2ac818eb64fed8004e115fbcca67888885604001518660c00151876060015160405161182d959493929190619174565b60405180910390a360016000600050600001601e6101000a81548160ff021916908315150217905550505050505b5b965096945050505050565b600460009054906101000a90046fffffffffffffffffffffffffffffffff1681565b60036000508060000160009054906101000a90046fffffffffffffffffffffffffffffffff16908060000160109054906101000a90046fffffffffffffffffffffffffffffffff16905082565b60086000508161ffff81106118ea57600080fd5b90900160005b915090508060000160009054906101000a900463ffffffff16908060000160049054906101000a900460060b9080600001600b9054906101000a900473ffffffffffffffffffffffffffffffffffffffff169080600001601f9054906101000a900460ff16905084565b6000600050600001601e9054906101000a900460ff1615156119b1576040517f08c379a00000000000000000000000000000000000000000000000000000000081526004016119a890618cf3565b60405180910390fd5b60006000600050600001601e6101000a81548160ff0219169083151502179055506119e0613d5663ffffffff16565b60006000600050600001601b9054906101000a900461ffff1690506000611a16828460086000506159879092919063ffffffff16565b9050806000600050600001601b6101000a81548161ffff021916908361ffff1602179055508061ffff168261ffff16141515611a86577fac49e518f90a358f652e4400164f05a5d8f7e35e7747279bc3a93dbf584e125a8282604051611a7d9291906191cd565b60405180910390a15b50505b5b60016000600050600001601e6101000a81548160ff0219169083151502179055505b50565b60006000508060000160009054906101000a900473ffffffffffffffffffffffffffffffffffffffff16908060000160149054906101000a900460020b908060000160179054906101000a900461ffff16908060000160199054906101000a900461ffff169080600001601b9054906101000a900461ffff169080600001601d9054906101000a900460ff169080600001601e9054906101000a900460ff16905087565b600060006000600050600001601e9054906101000a900460ff161515611bae576040517f08c379a0000000000000000000000000000000000000000000000000000000008152600401611ba590618cf3565b60405180910390fd5b60006000600050600001601e6101000a81548160ff0219169083151502179055506000856fffffffffffffffffffffffffffffffff16111515611bf15760006000fd5b60006000611c6860405180608001604052808c73ffffffffffffffffffffffffffffffffffffffff1681526020018b60020b81526020018a60020b8152602001611c548a6fffffffffffffffffffffffffffffffff16615a69909063ffffffff16565b600f0b815260200150615a8663ffffffff16565b925092505081935083508092508250600060006000861115611c9757611c926156dc63ffffffff16565b915081505b6000851115611cb357611cae61584563ffffffff16565b905080505b3373ffffffffffffffffffffffffffffffffffffffff1663d348799787878b8b6040518563ffffffff1660e01b8152600401611cf294939291906191ee565b600060405180830381600087803b158015611d0d5760006000fd5b505af1158015611d22573d600060003e3d6000fd5b505050506000861115611d9457611d3d6156dc63ffffffff16565b611d50878461581e90919063ffffffff16565b11151515611d93576040517f08c379a0000000000000000000000000000000000000000000000000000000008152600401611d8a9061921a565b60405180910390fd5b5b6000851115611e0257611dab61584563ffffffff16565b611dbe868361581e90919063ffffffff16565b11151515611e01576040517f08c379a0000000000000000000000000000000000000000000000000000000008152600401611df890619259565b60405180910390fd5b5b8960020b8b60020b8d73ffffffffffffffffffffffffffffffffffffffff167f7a53080ba414158be7ec69b987b5fb7d07dee101fe85488f0853ae16239d0bde338d8b8b604051611e569493929190619298565b60405180910390a4505050505b60016000600050600001601e6101000a81548160ff0219169083151502179055505b965096945050505050565b60026000505481565b6000600050600001601e9054906101000a900460ff161515611ef0576040517f08c379a0000000000000000000000000000000000000000000000000000000008152600401611ee790618cf3565b60405180910390fd5b60006000600050600001601e6101000a81548160ff021916908315150217905550611f1f613d5663ffffffff16565b6000600460009054906101000a90046fffffffffffffffffffffffffffffffff1690506000816fffffffffffffffffffffffffffffffff16111515611f99576040517f08c379a0000000000000000000000000000000000000000000000000000000008152600401611f90906192e7565b60405180910390fd5b6000611fd4867f000000000000000000000000000000000000000000000000000000000000000062ffffff16620f4240615e2563ffffffff16565b90506000612011867f000000000000000000000000000000000000000000000000000000000000000062ffffff16620f4240615e2563ffffffff16565b905060006120236156dc63ffffffff16565b9050600061203561584563ffffffff16565b90506000891115612072576120717f00000000000000000000000000000000000000000000000000000000000000008b8b61558363ffffffff16565b5b60008811156120ad576120ac7f00000000000000000000000000000000000000000000000000000000000000008b8a61558363ffffffff16565b5b3373ffffffffffffffffffffffffffffffffffffffff1663e9cbafb085858a8a6040518563ffffffff1660e01b81526004016120ec94939291906191ee565b600060405180830381600087803b1580156121075760006000fd5b505af115801561211c573d600060003e3d6000fd5b5050505060006121306156dc63ffffffff16565b9050600061214261584563ffffffff16565b905081612158878661581e90919063ffffffff16565b1115151561219b576040517f08c379a000000000000000000000000000000000000000000000000000000000815260040161219290619326565b60405180910390fd5b806121af868561581e90919063ffffffff16565b111515156121f2576040517f08c379a00000000000000000000000000000000000000000000000000000000081526004016121e990619365565b60405180910390fd5b600084836122009190618f77565b9050600084836122109190618f77565b9050600082111561234a57600060106000600050600001601d9054906101000a900460ff1661223f9190618da2565b9050600060008260ff1614612262578160ff168461225d9190618f59565b612265565b60005b90506000816fffffffffffffffffffffffffffffffff1611156122ec5780600360005060000160008282829054906101000a90046fffffffffffffffffffffffffffffffff166122b59190618f96565b92506101000a8154816fffffffffffffffffffffffffffffffff02191690836fffffffffffffffffffffffffffffffff1602179055505b61232b81856122fb9190618f77565b7001000000000000000000000000000000008d6fffffffffffffffffffffffffffffffff1661489163ffffffff16565b60016000828282505461233e9190618e3d565b92505081909090555050505b600081111561247d57600060046000600050600001601d9054906101000a900460ff1660ff16901c9050600060008260ff1614612395578160ff16836123909190618f59565b612398565b60005b90506000816fffffffffffffffffffffffffffffffff16111561241f5780600360005060000160108282829054906101000a90046fffffffffffffffffffffffffffffffff166123e89190618f96565b92506101000a8154816fffffffffffffffffffffffffffffffff02191690836fffffffffffffffffffffffffffffffff1602179055505b61245e818461242e9190618f77565b7001000000000000000000000000000000008d6fffffffffffffffffffffffffffffffff1661489163ffffffff16565b6002600082828250546124719190618e3d565b92505081909090555050505b8d73ffffffffffffffffffffffffffffffffffffffff163373ffffffffffffffffffffffffffffffffffffffff167fbdbdb71d7860376ba52b25a5028beea23581364a40522f6bcfb86bb1f2dca6338f8f86866040516124e094939291906193a4565b60405180910390a35050505050505050505b5b60016000600050600001601e6101000a81548160ff0219169083151502179055505b5050505050565b600060006000600050600001601e9054906101000a900460ff161515612577576040517f08c379a000000000000000000000000000000000000000000000000000000000815260040161256e90618cf3565b60405180910390fd5b60006000600050600001601e6101000a81548160ff02191690831515021790555060006125b53388886007600050615e9e909392919063ffffffff16565b90508060030160009054906101000a90046fffffffffffffffffffffffffffffffff166fffffffffffffffffffffffffffffffff16856fffffffffffffffffffffffffffffffff1611612608578461262a565b8060030160009054906101000a90046fffffffffffffffffffffffffffffffff165b925082508060030160109054906101000a90046fffffffffffffffffffffffffffffffff166fffffffffffffffffffffffffffffffff16846fffffffffffffffffffffffffffffffff161161267f57836126a1565b8060030160109054906101000a90046fffffffffffffffffffffffffffffffff165b915081506000836fffffffffffffffffffffffffffffffff16111561276957828160030160008282829054906101000a90046fffffffffffffffffffffffffffffffff166126ef91906193cb565b92506101000a8154816fffffffffffffffffffffffffffffffff02191690836fffffffffffffffffffffffffffffffff1602179055506127687f000000000000000000000000000000000000000000000000000000000000000089856fffffffffffffffffffffffffffffffff1661558363ffffffff16565b5b6000826fffffffffffffffffffffffffffffffff16111561282d57818160030160108282829054906101000a90046fffffffffffffffffffffffffffffffff166127b391906193cb565b92506101000a8154816fffffffffffffffffffffffffffffffff02191690836fffffffffffffffffffffffffffffffff16021790555061282c7f000000000000000000000000000000000000000000000000000000000000000089846fffffffffffffffffffffffffffffffff1661558363ffffffff16565b5b8560020b8760020b3373ffffffffffffffffffffffffffffffffffffffff167f70935338e69775456a85ddef226c395fb668b63fa0115f5f20610b388e6ca9c08b878760405161287f93929190619405565b60405180910390a4505b60016000600050600001601e6101000a81548160ff0219169083151502179055505b9550959350505050565b60076000506020528060005260406000206000915090508060000160009054906101000a90046fffffffffffffffffffffffffffffffff16908060010160005054908060020160005054908060030160009054906101000a90046fffffffffffffffffffffffffffffffff16908060030160109054906101000a90046fffffffffffffffffffffffffffffffff16905085565b60066000506020528060005260406000206000915090505481565b7f000000000000000000000000000000000000000000000000000000000000000081565b6000600050600001601e9054906101000a900460ff1615156129de576040517f08c379a00000000000000000000000000000000000000000000000000000000081526004016129d590618cf3565b60405180910390fd5b60006000600050600001601e6101000a81548160ff0219169083151502179055507f000000000000000000000000000000000000000000000000000000000000000073ffffffffffffffffffffffffffffffffffffffff16638da5cb5b6040518163ffffffff1660e01b8152600401602060405180830381865afa158015612a6b573d600060003e3d6000fd5b505050506040513d601f19601f82011682018060405250810190612a8f9190619451565b73ffffffffffffffffffffffffffffffffffffffff163373ffffffffffffffffffffffffffffffffffffffff16141515612ac95760006000fd5b60008260ff161480612aef575060048260ff1610158015612aee5750600a8260ff1611155b5b8015612b1d575060008160ff161480612b1c575060048160ff1610158015612b1b5750600a8160ff1611155b5b5b1515612b295760006000fd5b60006000600050600001601d9054906101000a900460ff16905060048260ff16901b83612b56919061947a565b6000600050600001601d6101000a81548160ff021916908360ff1602179055507f973d8d92bb299f4af6ce49b52a8adb85ae46b9f214c4c4fc06ac77401237b133601082612ba49190618da2565b60048360ff16901c8585604051612bbe94939291906194a6565b60405180910390a1505b5b60016000600050600001601e6101000a81548160ff0219169083151502179055505b5050565b600060006000600050600001601e9054906101000a900460ff161515612c4a576040517f08c379a0000000000000000000000000000000000000000000000000000000008152600401612c4190618cf3565b60405180910390fd5b60006000600050600001601e6101000a81548160ff0219169083151502179055507f000000000000000000000000000000000000000000000000000000000000000073ffffffffffffffffffffffffffffffffffffffff16638da5cb5b6040518163ffffffff1660e01b8152600401602060405180830381865afa158015612cd7573d600060003e3d6000fd5b505050506040513d601f19601f82011682018060405250810190612cfb9190619451565b73ffffffffffffffffffffffffffffffffffffffff163373ffffffffffffffffffffffffffffffffffffffff16141515612d355760006000fd5b600360005060000160009054906101000a90046fffffffffffffffffffffffffffffffff166fffffffffffffffffffffffffffffffff16846fffffffffffffffffffffffffffffffff1611612d8a5783612db0565b600360005060000160009054906101000a90046fffffffffffffffffffffffffffffffff165b91508150600360005060000160109054906101000a90046fffffffffffffffffffffffffffffffff166fffffffffffffffffffffffffffffffff16836fffffffffffffffffffffffffffffffff1611612e095782612e2f565b600360005060000160109054906101000a90046fffffffffffffffffffffffffffffffff165b905080506000826fffffffffffffffffffffffffffffffff161115612f5a57600360005060000160009054906101000a90046fffffffffffffffffffffffffffffffff166fffffffffffffffffffffffffffffffff16826fffffffffffffffffffffffffffffffff161415612ead578180612ea9906194d9565b9250505b81600360005060000160008282829054906101000a90046fffffffffffffffffffffffffffffffff16612ee091906193cb565b92506101000a8154816fffffffffffffffffffffffffffffffff02191690836fffffffffffffffffffffffffffffffff160217905550612f597f000000000000000000000000000000000000000000000000000000000000000086846fffffffffffffffffffffffffffffffff1661558363ffffffff16565b5b6000816fffffffffffffffffffffffffffffffff16111561308157600360005060000160109054906101000a90046fffffffffffffffffffffffffffffffff166fffffffffffffffffffffffffffffffff16816fffffffffffffffffffffffffffffffff161415612fd4578080612fd0906194d9565b9150505b80600360005060000160108282829054906101000a90046fffffffffffffffffffffffffffffffff1661300791906193cb565b92506101000a8154816fffffffffffffffffffffffffffffffff02191690836fffffffffffffffffffffffffffffffff1602179055506130807f000000000000000000000000000000000000000000000000000000000000000086836fffffffffffffffffffffffffffffffff1661558363ffffffff16565b5b8473ffffffffffffffffffffffffffffffffffffffff163373ffffffffffffffffffffffffffffffffffffffff167f596b573906218d3411850b26a6b437d6c4522fdb43d2d2386263f86d50b8b15184846040516130e0929190618593565b60405180910390a35b5b60016000600050600001601e6101000a81548160ff0219169083151502179055505b935093915050565b60606060613126613d5663ffffffff16565b6131f4613137613db463ffffffff16565b858580806020026020016040519081016040528093929190818152602001838360200280828437600081840152601f19601f82011690508083019250505050505050600060005060000160149054906101000a900460020b600060005060000160179054906101000a900461ffff16600460009054906101000a90046fffffffffffffffffffffffffffffffff16600060005060000160199054906101000a900461ffff166008600050615ef4909695949392919063ffffffff16565b915091506131fd565b5b9250929050565b600060006000600050600001601e9054906101000a900460ff161515613260576040517f08c379a000000000000000000000000000000000000000000000000000000000815260040161325790618cf3565b60405180910390fd5b60006000600050600001601e6101000a81548160ff02191690831515021790555060006000600061330360405180608001604052803373ffffffffffffffffffffffffffffffffffffffff1681526020018a60020b81526020018960020b81526020016132e6896fffffffffffffffffffffffffffffffff16615a69909063ffffffff16565b6132ef90618fd1565b600f0b815260200150615a8663ffffffff16565b9250925092508161331390619080565b945084508061332190619080565b9350835060008511806133345750600084115b1561340e57848360030160009054906101000a90046fffffffffffffffffffffffffffffffff166133659190618f96565b848460030160109054906101000a90046fffffffffffffffffffffffffffffffff166133919190618f96565b8460030160008660030160108491906101000a8154816fffffffffffffffffffffffffffffffff02191690836fffffffffffffffffffffffffffffffff1602179055508391906101000a8154816fffffffffffffffffffffffffffffffff02191690836fffffffffffffffffffffffffffffffff16021790555050505b8660020b8860020b3373ffffffffffffffffffffffffffffffffffffffff167f0c396cd989a39f4459b5fa1aed6a9a8dcdbc45908acfd67e028cd568da98982c8989896040516134609392919061952a565b60405180910390a45050505b60016000600050600001601e6101000a81548160ff0219169083151502179055505b935093915050565b6000600060006134aa613d5663ffffffff16565b6134ba85856160be63ffffffff16565b6000600060006000600060006000600560005060008d60020b60020b815260200190815260200160002060005090506000600560005060008d60020b60020b8152602001908152602001600020600050905060008260030160009054906101000a900460060b8360030160079054906101000a900473ffffffffffffffffffffffffffffffffffffffff1684600301601b9054906101000a900463ffffffff1685600301601f9054906101000a900460ff16809450819850829a50839c50505050508015156135895760006000fd5b60008260030160009054906101000a900460060b8360030160079054906101000a900473ffffffffffffffffffffffffffffffffffffffff1684600301601b9054906101000a900463ffffffff1685600301601f9054906101000a900460ff16809450819850829a50839c50505050508015156136065760006000fd5b50505050600060006000506040518060e00160405290816000820160009054906101000a900473ffffffffffffffffffffffffffffffffffffffff1673ffffffffffffffffffffffffffffffffffffffff1673ffffffffffffffffffffffffffffffffffffffff1681526020016000820160149054906101000a900460020b60020b60020b81526020016000820160179054906101000a900461ffff1661ffff1661ffff1681526020016000820160199054906101000a900461ffff1661ffff1661ffff16815260200160008201601b9054906101000a900461ffff1661ffff1661ffff16815260200160008201601d9054906101000a900460ff1660ff1660ff16815260200160008201601e9054906101000a900460ff16151515158152602001505090508b60020b816020015160020b121561377857858761374a919061955c565b848661375691906195cb565b83856137629190619609565b9950995099505050505050505061389056613888565b8a60020b816020015160020b121561385157600061379a613db463ffffffff16565b9050600060006137ec83600086602001518760400151600460009054906101000a90046fffffffffffffffffffffffffffffffff16896060015160086000506149b5909695949392919063ffffffff16565b91509150888a836137fd919061955c565b613807919061955c565b87898361381491906195cb565b61381e91906195cb565b86888661382b9190619609565b6138359190619609565b9c509c509c505050505050505050505061389056505050613887565b868661385d919061955c565b858561386991906195cb565b84846138759190619609565b99509950995050505050505050613890565b5b505050505050505b5b9250925092565b7f000000000000000000000000000000000000000000000000000000000000000081565b7f000000000000000000000000000000000000000000000000000000000000000081565b7f000000000000000000000000000000000000000000000000000000000000000081565b7f000000000000000000000000000000000000000000000000000000000000000081565b60016000505481565b60056000506020528060005260406000206000915090508060000160009054906101000a90046fffffffffffffffffffffffffffffffff16908060000160109054906101000a9004600f0b908060010160005054908060020160005054908060030160009054906101000a900460060b908060030160079054906101000a900473ffffffffffffffffffffffffffffffffffffffff169080600301601b9054906101000a900463ffffffff169080600301601f9054906101000a900460ff16905088565b6000600060005060000160009054906101000a900473ffffffffffffffffffffffffffffffffffffffff1673ffffffffffffffffffffffffffffffffffffffff16141515613a78576040517f08c379a0000000000000000000000000000000000000000000000000000000008152600401613a6f90619637565b60405180910390fd5b6000613a8982614f0363ffffffff16565b905060006000613ab3613aa0613db463ffffffff16565b60086000506161ec90919063ffffffff16565b915091506040518060e001604052808573ffffffffffffffffffffffffffffffffffffffff1681526020018460020b8152602001600061ffff1681526020018361ffff1681526020018261ffff168152602001600060ff16815260200160011515815260200150600060005060008201518160000160006101000a81548173ffffffffffffffffffffffffffffffffffffffff021916908373ffffffffffffffffffffffffffffffffffffffff16021790555060208201518160000160146101000a81548162ffffff021916908360020b62ffffff16021790555060408201518160000160176101000a81548161ffff021916908361ffff16021790555060608201518160000160196101000a81548161ffff021916908361ffff160217905550608082015181600001601b6101000a81548161ffff021916908361ffff16021790555060a082015181600001601d6101000a81548160ff021916908360ff16021790555060c082015181600001601e6101000a81548160ff0219169083151502179055509050507f98636036cb66a9c19a37435efc1e90142190214e8abeb821bdba3f2990dd4c958484604051613c6c929190619676565b60405180910390a15050505b50565b6000600082837ffffffffffffffffffffffffffffffffffffffffffffffffffffffffffff27618613cac91906196a8565b613cb69190619725565b9050600083847ffffffffffffffffffffffffffffffffffffffffffffffffffffffffffff27618613ce690618df9565b613cf091906196a8565b613cfa9190619725565b905060006001858484613d0d9190619015565b613d1791906196a8565b613d2191906197d5565b90508062ffffff166fffffffffffffffffffffffffffffffff613d449190619803565b9350505050613d51565050505b919050565b7f000000000000000000000000000000000000000000000000000000000000000073ffffffffffffffffffffffffffffffffffffffff163073ffffffffffffffffffffffffffffffffffffffff16141515613db15760006000fd5b5b565b6000429050613dbe565b90565b6000600060008486613dd391906196a8565b905060008660020b128015613df7575060008587613df19190619839565b60020b14155b15613e0b578080613e079061985f565b9150505b8315613ee25760006000613e248361633163ffffffff16565b9150915060008160ff166001901b60018360ff166001901b613e469190618f77565b613e509190618e3d565b90506000818b60008660010b60010b81526020019081526020016000206000505416905060008114159550855085613ea157888360ff1686613e929190619015565b613e9c9190619725565b613ed5565b88613eb18261635963ffffffff16565b84613ebc91906198c2565b60ff1686613eca9190619015565b613ed49190619725565b5b9650865050505050613fce565b60006000613f01600184613ef691906198eb565b61633163ffffffff16565b91509150600060018260ff166001901b613f1b9190618f77565b1990506000818b60008660010b60010b81526020019081526020016000206000505416905060008114159550855085613f8557888360ff613f5c91906198c2565b60ff16600187613f6c91906198eb565b613f7691906198eb565b613f809190619725565b613fc5565b8883613f96836164af63ffffffff16565b613fa091906198c2565b60ff16600187613fb091906198eb565b613fba91906198eb565b613fc49190619725565b5b96508650505050505b505b94509492505050565b6000600060008360020b12613ff1578260020b613fff565b8260020b613ffe90619080565b5b90507ffffffffffffffffffffffffffffffffffffffffffffffffffffffffffff2761861402b90618df9565b60020b8111151515614072576040517f08c379a000000000000000000000000000000000000000000000000000000000815260040161406990619956565b60405180910390fd5b60006000600183161415614097577001000000000000000000000000000000006140a9565b6ffffcb933bd6fad37aa2d162d1a5940015b70ffffffffffffffffffffffffffffffffff1690506000600283161415156140f05760806ffff97272373d413259a46990580e213a826140e99190619995565b901c905080505b6000600483161415156141225760806ffff2e50f5f656932ef12357cf3c7fdcc8261411b9190619995565b901c905080505b6000600883161415156141545760806fffe5caca7e10e4e61c3624eaa0941cd08261414d9190619995565b901c905080505b6000601083161415156141865760806fffcb9843d60f6159c9db58835c9266448261417f9190619995565b901c905080505b6000602083161415156141b85760806fff973b41fa98c081472e6896dfb254c0826141b19190619995565b901c905080505b6000604083161415156141ea5760806fff2ea16466c96a3843ec78b326b52861826141e39190619995565b901c905080505b60006080831614151561421c5760806ffe5dee046a99a2a811c461f1969c3053826142159190619995565b901c905080505b6000610100831614151561424f5760806ffcbe86c7900a88aedcffc83b479aa3a4826142489190619995565b901c905080505b600061020083161415156142825760806ff987a7253ac413176f2b074cf7815e548261427b9190619995565b901c905080505b600061040083161415156142b55760806ff3392b0822b70005940c7a398e4b70f3826142ae9190619995565b901c905080505b600061080083161415156142e85760806fe7159475a2c29b7443b29c7fa6e889d9826142e19190619995565b901c905080505b6000611000831614151561431b5760806fd097f3bdfd2022b8845ad8f792aa5825826143149190619995565b901c905080505b6000612000831614151561434e5760806fa9f746462d870fdf8a65dc1f90e061e5826143479190619995565b901c905080505b600061400083161415156143815760806f70d869a156d2a1b890bb3df62baf32f78261437a9190619995565b901c905080505b600061800083161415156143b45760806f31be135f97d08fd981231505542fcfa6826143ad9190619995565b901c905080505b60006201000083161415156143e85760806f09aa508b5b7a84e1c677de54f3e99bc9826143e19190619995565b901c905080505b600062020000831614151561441b5760806e5d6af8dedb81196699c329225ee604826144149190619995565b901c905080505b600062040000831614151561444d5760806d2216e584f5fa1ea926041bedfe98826144469190619995565b901c905080505b600062080000831614151561447d5760806b048a170391f7dc42444e8fa2826144769190619995565b901c905080505b60008460020b13156144ba57807fffffffffffffffffffffffffffffffffffffffffffffffffffffffffffffffff6144b59190618f59565b905080505b6000640100000000826144cd91906199da565b146144d95760016144dc565b60005b60ff16602082901c6144ee9190618e3d565b9250825050505b919050565b600060006000600060008873ffffffffffffffffffffffffffffffffffffffff168a73ffffffffffffffffffffffffffffffffffffffff161015905060006000881215905080156145d557600061456e8989620f424061455a91906199f8565b62ffffff16620f424061489163ffffffff16565b90508261458d576145888c8c8c600161666263ffffffff16565b6145a1565b6145a08b8d8c600161675f63ffffffff16565b5b9550855085811015156145b8578a965086506145cf565b6145ca8c8b83866168bc63ffffffff16565b965086505b50614647565b816145f2576145ed8b8b8b600061675f63ffffffff16565b614606565b6146058a8c8b600061666263ffffffff16565b5b93508350838861461590619080565b101515614626578995508550614646565b6146418b8a8a61463590619080565b8561694663ffffffff16565b955085505b5b60008673ffffffffffffffffffffffffffffffffffffffff168b73ffffffffffffffffffffffffffffffffffffffff1614905082156146de5780801561468a5750815b6146a6576146a1878d8c600161675f63ffffffff16565b6146a8565b855b955085508080156146b7575081155b6146d3576146ce878d8c600061666263ffffffff16565b6146d5565b845b94508450614738565b8080156146e85750815b614704576146ff8c888c600161666263ffffffff16565b614706565b855b95508550808015614715575081155b6147315761472c8c888c600061675f63ffffffff16565b614733565b845b945084505b8115801561474e57508861474b90619080565b85115b15614762578861475d90619080565b945084505b81801561479b57508a73ffffffffffffffffffffffffffffffffffffffff168773ffffffffffffffffffffffffffffffffffffffff1614155b156147b55785896147ac9190618f77565b935083506147e3565b6147de868962ffffff168a620f42406147ce91906199f8565b62ffffff16615e2563ffffffff16565b935083505b5050505b95509550955095915050565b60007f8000000000000000000000000000000000000000000000000000000000000000821015156148245760006000fd5b81905080505b919050565b6000600082121515158383856148459190618e5d565b925082131515151415156148595760006000fd5b5b92915050565b6000600082121515158383856148769190618edb565b9250821215151514151561488a5760006000fd5b5b92915050565b60006000600060001985870985870292508281108382030391505060008114156148d4576000841115156148c55760006000fd5b838204925082925050506149ae565b80841115156148e35760006000fd5b60008486880990508281118203915080830392506000856001877fffffffffffffffffffffffffffffffffffffffffffffffffffffffffffffffff0301169050805080860495508084049350600181826000030401905080830284179350835060006002876003021890508087026002038102905080508087026002038102905080508087026002038102905080508087026002038102905080508087026002038102905080508087026002038102905080508085029550855050849450505050506149ae56505050505b9392505050565b6000600060008763ffffffff161415614af4576000898661ffff1661ffff811015156149e4576149e3619a25565b5b90900160005b506040518060800160405290816000820160009054906101000a900463ffffffff1663ffffffff1663ffffffff1681526020016000820160049054906101000a900460060b60060b60060b815260200160008201600b9054906101000a900473ffffffffffffffffffffffffffffffffffffffff1673ffffffffffffffffffffffffffffffffffffffff1673ffffffffffffffffffffffffffffffffffffffff16815260200160008201601f9054906101000a900460ff16151515158152602001505090508863ffffffff16816000015163ffffffff16141515614adf57614ada818a89886169d063ffffffff16565b905080505b806020015181604001519250925050614c6656505b60008789614b029190619609565b905060006000614b1d8c8c858c8c8c8c616ad463ffffffff16565b91509150816000015163ffffffff168363ffffffff161415614b53578160200151826040015194509450505050614c6656614c62565b806000015163ffffffff168363ffffffff161415614b85578060200151816040015194509450505050614c6656614c61565b600082600001518260000151614b9b9190619609565b90506000836000015185614baf9190619609565b90508063ffffffff168263ffffffff1685602001518560200151614bd3919061955c565b614bdd9190619a56565b614be79190619ad3565b8460200151614bf69190619b87565b8263ffffffff168263ffffffff1686604001518660400151614c1891906195cb565b73ffffffffffffffffffffffffffffffffffffffff16614c389190619995565b614c429190618f59565b8560400151614c519190619bf6565b965096505050505050614c665650505b5b5050505b97509795505050505050565b600060008860008960020b60020b81526020019081526020016000206000509050806001016000505487614ca69190618f77565b81600101600050819090905550806002016000505486614cc69190618f77565b816002016000508190909055508060030160079054906101000a900473ffffffffffffffffffffffffffffffffffffffff1685614d0391906195cb565b8160030160076101000a81548173ffffffffffffffffffffffffffffffffffffffff021916908373ffffffffffffffffffffffffffffffffffffffff1602179055508060030160009054906101000a900460060b84614d62919061955c565b8160030160006101000a81548166ffffffffffffff021916908360060b66ffffffffffffff16021790555080600301601b9054906101000a900463ffffffff1683614dad9190619609565b81600301601b6101000a81548163ffffffff021916908363ffffffff1602179055508060000160109054906101000a9004600f0b91508150505b979650505050505050565b6000600082600f0b1215614e8457826fffffffffffffffffffffffffffffffff1682614e1d90618fd1565b84614e2891906193cb565b9150816fffffffffffffffffffffffffffffffff16101515614e7f576040517f08c379a0000000000000000000000000000000000000000000000000000000008152600401614e7690619c35565b60405180910390fd5b614efc565b826fffffffffffffffffffffffffffffffff168284614ea39190618f96565b9150816fffffffffffffffffffffffffffffffff1610151515614efb576040517f08c379a0000000000000000000000000000000000000000000000000000000008152600401614ef290619c74565b60405180910390fd5b5b5b92915050565b60006401000276a373ffffffffffffffffffffffffffffffffffffffff168273ffffffffffffffffffffffffffffffffffffffff1610158015614f85575073fffd8963efd1fc6a506488495d951d5263988d2673ffffffffffffffffffffffffffffffffffffffff168273ffffffffffffffffffffffffffffffffffffffff16105b1515614fc6576040517f08c379a0000000000000000000000000000000000000000000000000000000008152600401614fbd90619cb3565b60405180910390fd5b600060208373ffffffffffffffffffffffffffffffffffffffff16901b905060008190506000600090506fffffffffffffffffffffffffffffffff821160071b808217915082811c92505067ffffffffffffffff821160061b808217915082811c92505063ffffffff821160051b808217915082811c92505061ffff821160041b808217915082811c92505060ff821160031b808217915082811c925050600f821160021b808217915082811c9250506003821160011b808217915082811c925050600182118082179150506080811015156150b557607f816150a99190618f77565b83901c915081506150ca565b80607f6150c29190618f77565b83901b915081505b600060406080836150db9190618e5d565b901b9050828302607f1c92508260801c80603f1b8217915083811c935050828302607f1c92508260801c80603e1b8217915083811c935050828302607f1c92508260801c80603d1b8217915083811c935050828302607f1c92508260801c80603c1b8217915083811c935050828302607f1c92508260801c80603b1b8217915083811c935050828302607f1c92508260801c80603a1b8217915083811c935050828302607f1c92508260801c8060391b8217915083811c935050828302607f1c92508260801c8060381b8217915083811c935050828302607f1c92508260801c8060371b8217915083811c935050828302607f1c92508260801c8060361b8217915083811c935050828302607f1c92508260801c8060351b8217915083811c935050828302607f1c92508260801c8060341b8217915083811c935050828302607f1c92508260801c8060331b8217915083811c935050828302607f1c92508260801c8060321b82179150506000693627a301d71055774c858261525e9190619cf2565b9050600060806f028f6481ab7f045a5af012a19d003aaa836152809190618e5d565b901d9050600060806fdb2df09e81959a81455e260799a0632f846152a49190618edb565b901d90508060020b8260020b14615304578873ffffffffffffffffffffffffffffffffffffffff166152db82613fd963ffffffff16565b73ffffffffffffffffffffffffffffffffffffffff1611156152fd57816152ff565b805b615306565b815b97508750505050505050505b919050565b600060006000898961ffff1661ffff8110151561533757615336619a25565b5b90900160005b506040518060800160405290816000820160009054906101000a900463ffffffff1663ffffffff1663ffffffff1681526020016000820160049054906101000a900460060b60060b60060b815260200160008201600b9054906101000a900473ffffffffffffffffffffffffffffffffffffffff1673ffffffffffffffffffffffffffffffffffffffff1673ffffffffffffffffffffffffffffffffffffffff16815260200160008201601f9054906101000a900460ff16151515158152602001505090508763ffffffff16816000015163ffffffff1614156154265788859250925050615577565b8461ffff168461ffff1611801561545057506001856154459190619db5565b61ffff168961ffff16145b1561545f578391508150615465565b84915081505b8160018a6154739190619de1565b61547d9190619e0e565b92508250615493818989896169d063ffffffff16565b8a8461ffff1661ffff811015156154ad576154ac619a25565b5b90900160005b5060008201518160000160006101000a81548163ffffffff021916908363ffffffff16021790555060208201518160000160046101000a81548166ffffffffffffff021916908360060b66ffffffffffffff160217905550604082015181600001600b6101000a81548173ffffffffffffffffffffffffffffffffffffffff021916908373ffffffffffffffffffffffffffffffffffffffff160217905550606082015181600001601f6101000a81548160ff021916908315150217905550905050505b97509795505050505050565b600060008473ffffffffffffffffffffffffffffffffffffffff1663a9059cbb60e01b85856040516024016155b9929190619e36565b604051602081830303815290604052907bffffffffffffffffffffffffffffffffffffffffffffffffffffffff19166020820180517bffffffffffffffffffffffffffffffffffffffffffffffffffffffff83818316178352505050506040516156239190619e65565b6000604051808303816000865af19150503d8060008114615660576040519150601f19603f3d011682016040523d82523d6000602084013e615665565b606091505b509150915081801561569357506000815114806156925750808060200190518101906156919190619ea8565b5b5b15156156d4576040517f08c379a00000000000000000000000000000000000000000000000000000000081526004016156cb90619ed1565b60405180910390fd5b50505b505050565b6000600060007f000000000000000000000000000000000000000000000000000000000000000073ffffffffffffffffffffffffffffffffffffffff166370a0823160e01b30604051602401615732919061840c565b604051602081830303815290604052907bffffffffffffffffffffffffffffffffffffffffffffffffffffffff19166020820180517bffffffffffffffffffffffffffffffffffffffffffffffffffffffff838183161783525050505060405161579c9190619e65565b600060405180830381855afa9150503d80600081146157d7576040519150601f19603f3d011682016040523d82523d6000602084013e6157dc565b606091505b50915091508180156157f057506020815110155b15156157fc5760006000fd5b808060200190518101906158109190619f10565b9250505061581b5650505b90565b600082828461582d9190618e3d565b9150811015151561583e5760006000fd5b5b92915050565b6000600060007f000000000000000000000000000000000000000000000000000000000000000073ffffffffffffffffffffffffffffffffffffffff166370a0823160e01b3060405160240161589b919061840c565b604051602081830303815290604052907bffffffffffffffffffffffffffffffffffffffffffffffffffffffff19166020820180517bffffffffffffffffffffffffffffffffffffffffffffffffffffffff83818316178352505050506040516159059190619e65565b600060405180830381855afa9150503d8060008114615940576040519150601f19603f3d011682016040523d82523d6000602084013e615945565b606091505b509150915081801561595957506020815110155b15156159655760006000fd5b808060200190518101906159799190619f10565b925050506159845650505b90565b600060008361ffff161115156159d2576040517f08c379a00000000000000000000000000000000000000000000000000000000081526004016159c990619f2e565b60405180910390fd5b8261ffff168261ffff161115156159eb57829050615a62565b60008390505b8261ffff168161ffff161015615a59576001858261ffff1661ffff81101515615a1d57615a1c619a25565b5b90900160005b5060000160006101000a81548163ffffffff021916908363ffffffff1602179055505b8080615a5190619f6d565b9150506159f1565b50819050615a62565b9392505050565b60008182915081600f0b141515615a805760006000fd5b5b919050565b600060006000615a9a613d5663ffffffff16565b615ab2846020015185604001516160be63ffffffff16565b600060006000506040518060e00160405290816000820160009054906101000a900473ffffffffffffffffffffffffffffffffffffffff1673ffffffffffffffffffffffffffffffffffffffff1673ffffffffffffffffffffffffffffffffffffffff1681526020016000820160149054906101000a900460020b60020b60020b81526020016000820160179054906101000a900461ffff1661ffff1661ffff1681526020016000820160199054906101000a900461ffff1661ffff1661ffff16815260200160008201601b9054906101000a900461ffff1661ffff1661ffff16815260200160008201601d9054906101000a900460ff1660ff1660ff16815260200160008201601e9054906101000a900460ff1615151515815260200150509050615bfb85600001518660200151876040015188606001518560200151616e9563ffffffff16565b9350835060008560600151600f0b141515615e1b57846020015160020b816020015160020b1215615c6857615c5f615c3c8660200151613fd963ffffffff16565b615c4f8760400151613fd963ffffffff16565b876060015161712d63ffffffff16565b92508250615e1a565b846040015160020b816020015160020b1215615ddb576000600460009054906101000a90046fffffffffffffffffffffffffffffffff169050615cdf8260400151615cb7613db463ffffffff16565b846020015184866060015187608001516008600050615317909695949392919063ffffffff16565b60006000506000016017600060005060000160198491906101000a81548161ffff021916908361ffff1602179055508391906101000a81548161ffff021916908361ffff1602179055505050615d568260000151615d468860400151613fd963ffffffff16565b886060015161712d63ffffffff16565b93508350615d85615d708760200151613fd963ffffffff16565b836000015188606001516171a663ffffffff16565b92508250615d9d818760600151614df263ffffffff16565b600460006101000a8154816fffffffffffffffffffffffffffffffff02191690836fffffffffffffffffffffffffffffffff16021790555050615e19565b615e14615df18660200151613fd963ffffffff16565b615e048760400151613fd963ffffffff16565b87606001516171a663ffffffff16565b915081505b5b5b505b5b9193909250565b6000615e3884848461489163ffffffff16565b90508050600082801515615e4f57615e4e618d71565b5b8486091115615e96577fffffffffffffffffffffffffffffffffffffffffffffffffffffffffffffffff81101515615e875760006000fd5b8080615e9290619f94565b9150505b5b9392505050565b6000846000858585604051602001615eb893929190619fd3565b6040516020818303038152906040528051906020012060001916600019168152602001908152602001600020600050905080505b949350505050565b6060606060008361ffff16111515615f41576040517f08c379a0000000000000000000000000000000000000000000000000000000008152600401615f3890619f2e565b60405180910390fd5b865167ffffffffffffffff811115615f5c57615f5b61a01e565b5b604051908082528060200260200182016040528015615f8a5781602001602082028036833780820191505090505b5091508150865167ffffffffffffffff811115615faa57615fa961a01e565b5b604051908082528060200260200182016040528015615fd85781602001602082028036833780820191505090505b50905080506000600090505b87518110156160b05761601e8a8a8a8481518110151561600757616006619a25565b5b60200260200101518a8a8a8a6149b563ffffffff16565b848381518110151561603357616032619a25565b5b60200260200101848481518110151561604f5761604e619a25565b5b6020026020010182909073ffffffffffffffffffffffffffffffffffffffff1673ffffffffffffffffffffffffffffffffffffffff1681526020015082909060060b60060b81526020015050505b80806160a890619f94565b915050615fe4565b505b97509795505050505050565b8060020b8260020b121515616108576040517f08c379a00000000000000000000000000000000000000000000000000000000081526004016160ff9061a04f565b60405180910390fd5b7ffffffffffffffffffffffffffffffffffffffffffffffffffffffffffff2761860020b8260020b12151515616173576040517f08c379a000000000000000000000000000000000000000000000000000000000815260040161616a9061a08e565b60405180910390fd5b7ffffffffffffffffffffffffffffffffffffffffffffffffffffffffffff2761861619d90618df9565b60020b8160020b131515156161e7576040517f08c379a00000000000000000000000000000000000000000000000000000000081526004016161de9061a0cd565b60405180910390fd5b5b5050565b6000600060405180608001604052808463ffffffff168152602001600060060b8152602001600073ffffffffffffffffffffffffffffffffffffffff1681526020016001151581526020015084600061ffff8110151561624f5761624e619a25565b5b90900160005b5060008201518160000160006101000a81548163ffffffff021916908363ffffffff16021790555060208201518160000160046101000a81548166ffffffffffffff021916908360060b66ffffffffffffff160217905550604082015181600001600b6101000a81548173ffffffffffffffffffffffffffffffffffffffff021916908373ffffffffffffffffffffffffffffffffffffffff160217905550606082015181600001601f6101000a81548160ff021916908315150217905550905050600160018191508090509150915061632a565b9250929050565b6000600060088360020b901d915081506101008361634f9190619839565b905080505b915091565b600060008211151561636b5760006000fd5b700100000000000000000000000000000000821015156163a057608082901c9150815060808161639b919061947a565b905080505b68010000000000000000821015156163cd57604082901c915081506040816163c8919061947a565b905080505b640100000000821015156163f657602082901c915081506020816163f1919061947a565b905080505b620100008210151561641d57601082901c91508150601081616418919061947a565b905080505b6101008210151561644357600882901c9150815060088161643e919061947a565b905080505b60108210151561646857600482901c91508150600481616463919061947a565b905080505b60048210151561648d57600282901c91508150600281616488919061947a565b905080505b6002821015156164a9576001816164a4919061947a565b905080505b5b919050565b60006000821115156164c15760006000fd5b60ff9050805060006fffffffffffffffffffffffffffffffff6fffffffffffffffffffffffffffffffff168316111561650a5760808161650191906198c2565b90508050616514565b608082901c915081505b600067ffffffffffffffff67ffffffffffffffff16831611156165475760408161653e91906198c2565b90508050616551565b604082901c915081505b600063ffffffff63ffffffff168316111561657c5760208161657391906198c2565b90508050616586565b602082901c915081505b600061ffff61ffff16831611156165ad576010816165a491906198c2565b905080506165b7565b601082901c915081505b600060ff60ff16831611156165dc576008816165d391906198c2565b905080506165e6565b600882901c915081505b6000600f83161115616608576004816165ff91906198c2565b90508050616612565b600482901c915081505b60006003831611156166345760028161662b91906198c2565b9050805061663e565b600282901c915081505b600060018316111561665c5760018161665791906198c2565b905080505b5b919050565b60008373ffffffffffffffffffffffffffffffffffffffff168573ffffffffffffffffffffffffffffffffffffffff1611156166a357838580955081965050505b816166fe576166f9836fffffffffffffffffffffffffffffffff1686866166ca91906195cb565b73ffffffffffffffffffffffffffffffffffffffff166c0100000000000000000000000061489163ffffffff16565b616750565b61674f836fffffffffffffffffffffffffffffffff16868661672091906195cb565b73ffffffffffffffffffffffffffffffffffffffff166c01000000000000000000000000615e2563ffffffff16565b5b9050616757565b949350505050565b60008373ffffffffffffffffffffffffffffffffffffffff168573ffffffffffffffffffffffffffffffffffffffff1611156167a057838580955081965050505b6000606060ff16846fffffffffffffffffffffffffffffffff16901b9050600086866167cc91906195cb565b73ffffffffffffffffffffffffffffffffffffffff16905060008773ffffffffffffffffffffffffffffffffffffffff1611151561680a5760006000fd5b8361685c578673ffffffffffffffffffffffffffffffffffffffff1661684d83838973ffffffffffffffffffffffffffffffffffffffff1661489163ffffffff16565b6168579190618f59565b6168a9565b6168a861688683838973ffffffffffffffffffffffffffffffffffffffff16615e2563ffffffff16565b8873ffffffffffffffffffffffffffffffffffffffff1661721f63ffffffff16565b5b925050506168b45650505b949350505050565b600060008573ffffffffffffffffffffffffffffffffffffffff161115156168e45760006000fd5b6000846fffffffffffffffffffffffffffffffff161115156169065760006000fd5b816169235761691e858585600161723463ffffffff16565b616937565b616936858585600161740163ffffffff16565b5b905061693e565b949350505050565b600060008573ffffffffffffffffffffffffffffffffffffffff1611151561696e5760006000fd5b6000846fffffffffffffffffffffffffffffffff161115156169905760006000fd5b816169ad576169a8858585600061740163ffffffff16565b6169c1565b6169c0858585600061723463ffffffff16565b5b90506169c8565b949350505050565b6169d86183bc565b60008560000151856169ea9190619609565b905060405180608001604052808663ffffffff1681526020018263ffffffff168660020b616a189190619ad3565b8860200151616a279190619b87565b60060b81526020016000856fffffffffffffffffffffffffffffffff1611616a50576001616a52565b845b6fffffffffffffffffffffffffffffffff1660808463ffffffff1673ffffffffffffffffffffffffffffffffffffffff16901b616a8f919061a10c565b8860400151616a9e9190619bf6565b73ffffffffffffffffffffffffffffffffffffffff16815260200160011515815260200150915050616acc56505b949350505050565b616adc6183bc565b616ae46183bc565b888561ffff1661ffff81101515616afe57616afd619a25565b5b90900160005b506040518060800160405290816000820160009054906101000a900463ffffffff1663ffffffff1663ffffffff1681526020016000820160049054906101000a900460060b60060b60060b815260200160008201600b9054906101000a900473ffffffffffffffffffffffffffffffffffffffff1673ffffffffffffffffffffffffffffffffffffffff1673ffffffffffffffffffffffffffffffffffffffff16815260200160008201601f9054906101000a900460ff16151515158152602001505091508150616be0888360000151896175e263ffffffff16565b15616c29578663ffffffff16826000015163ffffffff161415616c0c57818191509150616e8956616c28565b81616c1f838989886169d063ffffffff16565b91509150616e89565b5b8883600187616c389190619de1565b616c429190619e0e565b61ffff1661ffff81101515616c5a57616c59619a25565b5b90900160005b506040518060800160405290816000820160009054906101000a900463ffffffff1663ffffffff1663ffffffff1681526020016000820160049054906101000a900460060b60060b60060b815260200160008201600b9054906101000a900473ffffffffffffffffffffffffffffffffffffffff1673ffffffffffffffffffffffffffffffffffffffff1673ffffffffffffffffffffffffffffffffffffffff16815260200160008201601f9054906101000a900460ff1615151515815260200150509150815081606001511515616e175788600061ffff81101515616d4957616d48619a25565b5b90900160005b506040518060800160405290816000820160009054906101000a900463ffffffff1663ffffffff1663ffffffff1681526020016000820160049054906101000a900460060b60060b60060b815260200160008201600b9054906101000a900473ffffffffffffffffffffffffffffffffffffffff1673ffffffffffffffffffffffffffffffffffffffff1673ffffffffffffffffffffffffffffffffffffffff16815260200160008201601f9054906101000a900460ff161515151581526020015050915081505b616e2c888360000151896175e263ffffffff16565b1515616e6d576040517f08c379a0000000000000000000000000000000000000000000000000000000008152600401616e649061a146565b60405180910390fd5b616e8089898988876176c263ffffffff16565b91509150616e89565b97509795505050505050565b6000616eb28686866007600050615e9e909392919063ffffffff16565b90508050600060016000505490506000600260005054905060006000600087600f0b141515617096576000616eeb613db463ffffffff16565b905060006000616f72836000600060005060000160149054906101000a900460020b600060005060000160179054906101000a900461ffff16600460009054906101000a90046fffffffffffffffffffffffffffffffff16600060005060000160199054906101000a900461ffff1660086000506149b5909695949392919063ffffffff16565b91509150616fc08c8a8c8a8a86888a60007f000000000000000000000000000000000000000000000000000000000000000060056000506179ce909a9998979695949392919063ffffffff16565b9450845061700e8b8a8c8a8a86888a60017f000000000000000000000000000000000000000000000000000000000000000060056000506179ce909a9998979695949392919063ffffffff16565b935083508415617052576170518c7f00000000000000000000000000000000000000000000000000000000000000006006600050617cc89092919063ffffffff16565b5b8315617092576170918b7f00000000000000000000000000000000000000000000000000000000000000006006600050617cc89092919063ffffffff16565b5b5050505b600060006170b98b8b8a89896005600050617d479095949392919063ffffffff16565b915091506170d48983838a617e8e909392919063ffffffff16565b600089600f0b121561711d5783156170fe576170fd8b600560005061823290919063ffffffff16565b5b821561711c5761711b8a600560005061823290919063ffffffff16565b5b5b5050505050505b95945050505050565b6000600082600f0b126171625761715d617150858585600161675f63ffffffff16565b6147f3909063ffffffff16565b617198565b61718e61718185858561717490618fd1565b600061675f63ffffffff16565b6147f3909063ffffffff16565b61719790619080565b5b905061719f565b9392505050565b6000600082600f0b126171db576171d66171c9858585600161666263ffffffff16565b6147f3909063ffffffff16565b617211565b6172076171fa8585856171ed90618fd1565b600061666263ffffffff16565b6147f3909063ffffffff16565b61721090619080565b5b9050617218565b9392505050565b60006000828406118284040190505b92915050565b6000811561731357600073ffffffffffffffffffffffffffffffffffffffff73ffffffffffffffffffffffffffffffffffffffff168411156172a5576172a0846c01000000000000000000000000876fffffffffffffffffffffffffffffffff1661489163ffffffff16565b6172cb565b846fffffffffffffffffffffffffffffffff16606060ff1685901b6172ca9190618f59565b5b90506173066172f9828873ffffffffffffffffffffffffffffffffffffffff1661581e90919063ffffffff16565b61831b909063ffffffff16565b9150506173f956506173f8565b600073ffffffffffffffffffffffffffffffffffffffff73ffffffffffffffffffffffffffffffffffffffff1684111561737c57617377846c01000000000000000000000000876fffffffffffffffffffffffffffffffff16615e2563ffffffff16565b6173a6565b6173a5606060ff1685901b866fffffffffffffffffffffffffffffffff1661721f63ffffffff16565b5b9050808673ffffffffffffffffffffffffffffffffffffffff161115156173cd5760006000fd5b808673ffffffffffffffffffffffffffffffffffffffff166173ef9190618f77565b9150506173f956505b5b949350505050565b60006000831415617414578490506175da565b6000606060ff16856fffffffffffffffffffffffffffffffff16901b905082156175245760008673ffffffffffffffffffffffffffffffffffffffff16858873ffffffffffffffffffffffffffffffffffffffff16876174749190619995565b9250826174819190618f59565b14156174d357600081836174959190618e3d565b905082811015156174d1576174c7838973ffffffffffffffffffffffffffffffffffffffff1683615e2563ffffffff16565b93505050506175da565b505b6175168261750b878a73ffffffffffffffffffffffffffffffffffffffff16866174fd9190618f59565b61581e90919063ffffffff16565b61721f63ffffffff16565b925050506175da56506175d8565b60008673ffffffffffffffffffffffffffffffffffffffff16858873ffffffffffffffffffffffffffffffffffffffff16876175609190619995565b92508261756d9190618f59565b14801561757957508082115b15156175855760006000fd5b600081836175939190618f77565b90506175cc6175bf848a73ffffffffffffffffffffffffffffffffffffffff1684615e2563ffffffff16565b61831b909063ffffffff16565b93505050506175da5650505b505b949350505050565b60008363ffffffff168363ffffffff161115801561760c57508363ffffffff168263ffffffff1611155b15617628578163ffffffff168363ffffffff16111590506176bb565b60008463ffffffff168463ffffffff1611617659576401000000008463ffffffff16617654919061a185565b617661565b8363ffffffff165b64ffffffffff16905060008563ffffffff168463ffffffff161161769b576401000000008463ffffffff16617696919061a185565b6176a3565b8363ffffffff165b64ffffffffff16905080821115925050506176bb5650505b9392505050565b6176ca6183bc565b6176d26183bc565b6000836001866176e29190619de1565b6176ec9190619e0e565b61ffff169050600060018561ffff16836177069190618e3d565b6177109190618f77565b905060005b6001156179c0576002828461772a9190618e3d565b6177349190618f59565b90508050898661ffff168261774991906199da565b61ffff8110151561775d5761775c619a25565b5b90900160005b506040518060800160405290816000820160009054906101000a900463ffffffff1663ffffffff1663ffffffff1681526020016000820160049054906101000a900460060b60060b60060b815260200160008201600b9054906101000a900473ffffffffffffffffffffffffffffffffffffffff1673ffffffffffffffffffffffffffffffffffffffff1673ffffffffffffffffffffffffffffffffffffffff16815260200160008201601f9054906101000a900460ff161515151581526020015050945084508460600151151561784b576001816178429190618e3d565b92508250617715565b898661ffff1660018361785e9190618e3d565b61786891906199da565b61ffff8110151561787c5761787b619a25565b5b90900160005b506040518060800160405290816000820160009054906101000a900463ffffffff1663ffffffff1663ffffffff1681526020016000820160049054906101000a900460060b60060b60060b815260200160008201600b9054906101000a900473ffffffffffffffffffffffffffffffffffffffff1673ffffffffffffffffffffffffffffffffffffffff1673ffffffffffffffffffffffffffffffffffffffff16815260200160008201601f9054906101000a900460ff1615151515815260200150509350835060006179608a87600001518b6175e263ffffffff16565b9050808015617980575061797f8a8a87600001516175e263ffffffff16565b5b1561798b57506179c0565b8015156179a85760018261799f9190618f77565b925082506179ba565b6001826179b59190618e3d565b935083505b50617715565b5050505b9550959350505050565b600060008c60008d60020b60020b8152602001908152602001600020600050905060008160000160009054906101000a90046fffffffffffffffffffffffffffffffff1690506000617a26828d614df263ffffffff16565b9050846fffffffffffffffffffffffffffffffff16816fffffffffffffffffffffffffffffffff1611151515617a91576040517f08c379a0000000000000000000000000000000000000000000000000000000008152600401617a889061a1b5565b60405180910390fd5b6000826fffffffffffffffffffffffffffffffff161415156000826fffffffffffffffffffffffffffffffff161415151415935083506000826fffffffffffffffffffffffffffffffff161415617bbe578c60020b8e60020b131515617ba0578a836001016000508190909055508983600201600050819090905550888360030160076101000a81548173ffffffffffffffffffffffffffffffffffffffff021916908373ffffffffffffffffffffffffffffffffffffffff160217905550878360030160006101000a81548166ffffffffffffff021916908360060b66ffffffffffffff1602179055508683600301601b6101000a81548163ffffffff021916908363ffffffff1602179055505b600183600301601f6101000a81548160ff0219169083151502179055505b808360000160006101000a8154816fffffffffffffffffffffffffffffffff02191690836fffffffffffffffffffffffffffffffff16021790555085617c3d57617c38617c2b8d600f0b8560000160109054906101000a9004600f0b600f0b61486090919063ffffffff16565b615a69909063ffffffff16565b617c78565b617c77617c6a8d600f0b8560000160109054906101000a9004600f0b600f0b61482f90919063ffffffff16565b615a69909063ffffffff16565b5b8360000160106101000a8154816fffffffffffffffffffffffffffffffff0219169083600f0b6fffffffffffffffffffffffffffffffff1602179055505050505b9b9a5050505050505050505050565b60008183617cd69190619839565b60020b141515617ce65760006000fd5b60006000617d048385617cf991906196a8565b61633163ffffffff16565b9150915060008160ff166001901b9050808660008560010b60010b815260200190815260200160002060008282825054189250508190909055505050505b505050565b6000600060008860008960020b60020b8152602001908152602001600020600050905060008960008960020b60020b81526020019081526020016000206000509050600060008a60020b8960020b121515617db957836001016000505491508150836002016000505490508050617de8565b836001016000505488617dcc9190618f77565b91508150836002016000505487617de39190618f77565b905080505b600060008b60020b8b60020b1215617e1757846001016000505491508150846002016000505490508050617e46565b84600101600050548a617e2a9190618f77565b91508150846002016000505489617e419190618f77565b905080505b81848b617e539190618f77565b617e5d9190618f77565b9750875080838a617e6e9190618f77565b617e789190618f77565b965086505050505050505b965096945050505050565b6000846040518060a00160405290816000820160009054906101000a90046fffffffffffffffffffffffffffffffff166fffffffffffffffffffffffffffffffff166fffffffffffffffffffffffffffffffff16815260200160018201600050548152602001600282016000505481526020016003820160009054906101000a90046fffffffffffffffffffffffffffffffff166fffffffffffffffffffffffffffffffff166fffffffffffffffffffffffffffffffff1681526020016003820160109054906101000a90046fffffffffffffffffffffffffffffffff166fffffffffffffffffffffffffffffffff166fffffffffffffffffffffffffffffffff168152602001505090506000600085600f0b141561801057600082600001516fffffffffffffffffffffffffffffffff16111515618002576040517f08c379a0000000000000000000000000000000000000000000000000000000008152600401617ff99061a1f4565b60405180910390fd5b816000015190508050618029565b618024826000015186614df263ffffffff16565b905080505b600061807283602001518661803e9190618f77565b84600001516fffffffffffffffffffffffffffffffff1670010000000000000000000000000000000061489163ffffffff16565b905060006180bd8460400151866180899190618f77565b85600001516fffffffffffffffffffffffffffffffff1670010000000000000000000000000000000061489163ffffffff16565b9050600087600f0b14151561810857828860000160006101000a8154816fffffffffffffffffffffffffffffffff02191690836fffffffffffffffffffffffffffffffff1602179055505b858860010160005081909090555084886002016000508190909055506000826fffffffffffffffffffffffffffffffff16118061815757506000816fffffffffffffffffffffffffffffffff16115b1561822757818860030160008282829054906101000a90046fffffffffffffffffffffffffffffffff1661818b9190618f96565b92506101000a8154816fffffffffffffffffffffffffffffffff02191690836fffffffffffffffffffffffffffffffff160217905550808860030160108282829054906101000a90046fffffffffffffffffffffffffffffffff166181f09190618f96565b92506101000a8154816fffffffffffffffffffffffffffffffff02191690836fffffffffffffffffffffffffffffffff1602179055505b505050505b50505050565b8160008260020b60020b815260200190815260200160002060006000820160006101000a8154906fffffffffffffffffffffffffffffffff02191690556000820160106101000a8154906fffffffffffffffffffffffffffffffff0219169055600182016000506000905560028201600050600090556003820160006101000a81549066ffffffffffffff02191690556003820160076101000a81549073ffffffffffffffffffffffffffffffffffffffff021916905560038201601b6101000a81549063ffffffff021916905560038201601f6101000a81549060ff021916905550505b5050565b6000818291508173ffffffffffffffffffffffffffffffffffffffff161415156183455760006000fd5b5b919050565b6040518060e00160405280600073ffffffffffffffffffffffffffffffffffffffff168152602001600060020b8152602001600015158152602001600073ffffffffffffffffffffffffffffffffffffffff1681526020016000815260200160008152602001600081526020015090565b6040518060800160405280600063ffffffff168152602001600060060b8152602001600073ffffffffffffffffffffffffffffffffffffffff16815260200160001515815260200150905661a233565b600060208201905073ffffffffffffffffffffffffffffffffffffffff831682525b92915050565b73ffffffffffffffffffffffffffffffffffffffff8116811415156184595760006000fd5b505b565b8015158114151561846e5760006000fd5b505b565b6000600083601f84011215156184885760006000fd5b8235905067ffffffffffffffff8111156184a25760006000fd5b6020830191508360208285010111156184bb5760006000fd5b5b9250929050565b60006000600060006000600060a087890312156184e05760006000fd5b86356184eb81618434565b8096505060208701356184fd8161845d565b8095505060408701359350606087013561851681618434565b80935050608087013567ffffffffffffffff8111156185355760006000fd5b61854189828a01618472565b915080935050809150505b9295509295509295565b60006040820190508382528260208301525b9392505050565b60006020820190506fffffffffffffffffffffffffffffffff831682525b92915050565b60006040820190506fffffffffffffffffffffffffffffffff80851683528084166020840152505b9392505050565b6000602082840312156185d55760006000fd5b813590505b92915050565b600060808201905063ffffffff861682528460060b602083015273ffffffffffffffffffffffffffffffffffffffff8416604083015282151560608301525b95945050505050565b60006020828403121561863b5760006000fd5b813561ffff8116811415156186505760006000fd5b809150505b92915050565b600060e08201905073ffffffffffffffffffffffffffffffffffffffff891682528760020b602083015261ffff8088166040840152808716606084015280861660808401525060ff841660a083015282151560c08301525b98975050505050505050565b6000813590508060020b811415156186d75760006000fd5b5b919050565b6000813590506fffffffffffffffffffffffffffffffff8116811415156187045760006000fd5b5b919050565b60006000600060006000600060a087890312156187275760006000fd5b863561873281618434565b80965050618742602088016186bf565b9450618750604088016186bf565b935061875e606088016186dd565b9250608087013567ffffffffffffffff81111561877b5760006000fd5b61878789828a01618472565b915080935050809150505b9295509295509295565b60006040820190508382528260208301525b9392505050565b60006020820190508282525b92915050565b60006000600060006000608086880312156187e25760006000fd5b85356187ed81618434565b809550506020860135935060408601359250606086013567ffffffffffffffff81111561881a5760006000fd5b61882688828901618472565b915080935050809150505b9295509295909350565b6000600060006000600060a086880312156188565760006000fd5b853561886181618434565b80955050618871602087016186bf565b935061887f604087016186bf565b925061888d606087016186dd565b915061889b608087016186dd565b90505b9295509295909350565b6000602082840312156188bb5760006000fd5b813590505b92915050565b600060a0820190506fffffffffffffffffffffffffffffffff808816835286602084015285604084015280851660608401528084166080840152505b9695505050505050565b60006020828403121561891f5760006000fd5b81358060010b811415156189335760006000fd5b809150505b92915050565b60008135905060ff8116811415156189565760006000fd5b5b919050565b60006000604083850312156189715760006000fd5b61897a8361893e565b91506189886020840161893e565b90505b9250929050565b600060006000606084860312156189a95760006000fd5b83356189b481618434565b809350506189c4602085016186dd565b91506189d2604085016186dd565b90505b9250925092565b60006000602083850312156189f15760006000fd5b823567ffffffffffffffff80821115618a0a5760006000fd5b818501915085601f8301121515618a215760006000fd5b813581811115618a315760006000fd5b8660208260051b8501011115618a475760006000fd5b6020830194508093505050505b9250929050565b600060408201604083528085518083526060850191506020925082870160005b82811015618aa057815160060b8452848401935084820191505b600181019050618a7b565b505050838103828501528085518083528383019150838701925060005b81811015618af55773ffffffffffffffffffffffffffffffffffffffff8451168352848301925084840193505b600181019050618abd565b50508093505050505b9392505050565b60006000600060608486031215618b1c5760006000fd5b618b25846186bf565b9250618b33602085016186bf565b9150618b41604085016186dd565b90505b9250925092565b6000600060408385031215618b605760006000fd5b618b69836186bf565b9150618b77602084016186bf565b90505b9250929050565b60006060820190508460060b825273ffffffffffffffffffffffffffffffffffffffff8416602083015263ffffffff831660408301525b949350505050565b60006020820190508260020b82525b92915050565b600060208201905062ffffff831682525b92915050565b600060208284031215618bff5760006000fd5b618c08826186bf565b90505b92915050565b6000610100820190506fffffffffffffffffffffffffffffffff8a16825288600f0b60208301528760408301528660608301528560060b608083015273ffffffffffffffffffffffffffffffffffffffff851660a083015263ffffffff841660c083015282151560e08301525b9998505050505050505050565b600060208284031215618c9e5760006000fd5b8135618ca981618434565b809150505b92915050565b60208152600260208201527f4153000000000000000000000000000000000000000000000000000000000000604082015260006060820190505b919050565b60208152600360208201527f4c4f4b0000000000000000000000000000000000000000000000000000000000604082015260006060820190505b919050565b60208152600360208201527f53504c0000000000000000000000000000000000000000000000000000000000604082015260006060820190505b919050565b7f4e487b7100000000000000000000000000000000000000000000000000000000600052601260045260246000fd5b565b600060ff8316801515618db857618db7618d71565b5b8060ff8416069150505b92915050565b7f4e487b7100000000000000000000000000000000000000000000000000000000600052601160045260246000fd5b565b60008160020b7fffffffffffffffffffffffffffffffffffffffffffffffffffffffffff800000811415618e3057618e2f618dc8565b5b806000039150505b919050565b60008219821115618e5157618e50618dc8565b5b82820190505b92915050565b600060008312837f800000000000000000000000000000000000000000000000000000000000000001831281151615618e9957618e98618dc8565b5b837f7fffffffffffffffffffffffffffffffffffffffffffffffffffffffffffffff018313811615618ece57618ecd618dc8565b5b5082820390505b92915050565b600060008212827f7fffffffffffffffffffffffffffffffffffffffffffffffffffffffffffffff03841381151615618f1757618f16618dc8565b5b827f8000000000000000000000000000000000000000000000000000000000000000038412811615618f4c57618f4b618dc8565b5b5082820190505b92915050565b6000821515618f6b57618f6a618d71565b5b82820490505b92915050565b600082821015618f8a57618f89618dc8565b5b82820390505b92915050565b60006fffffffffffffffffffffffffffffffff808316818516808303821115618fc257618fc1618dc8565b5b80820193505050505b92915050565b600081600f0b7fffffffffffffffffffffffffffffffff8000000000000000000000000000000081141561900857619007618dc8565b5b806000039150505b919050565b60008160020b8360020b60008112817fffffffffffffffffffffffffffffffffffffffffffffffffffffffffff8000000183128115161561905957619058618dc8565b5b81627fffff01831381161561907157619070618dc8565b5b50808203925050505b92915050565b60007f80000000000000000000000000000000000000000000000000000000000000008214156190b3576190b2618dc8565b5b8160000390505b919050565b8183528181602085013750600060208284010152600060207fffffffffffffffffffffffffffffffffffffffffffffffffffffffffffffffe0601f84011684010190505b92915050565b8481528360208201526060604082015260006191296060830184866190bf565b90505b95945050505050565b60208152600360208201527f4949410000000000000000000000000000000000000000000000000000000000604082015260006060820190505b919050565b600060a08201905086825285602083015273ffffffffffffffffffffffffffffffffffffffff851660408301526fffffffffffffffffffffffffffffffff841660608301528260020b60808301525b9695505050505050565b600060408201905061ffff80851683528084166020840152505b9392505050565b84815283602082015260606040820152600061920e6060830184866190bf565b90505b95945050505050565b60208152600260208201527f4d30000000000000000000000000000000000000000000000000000000000000604082015260006060820190505b919050565b60208152600260208201527f4d31000000000000000000000000000000000000000000000000000000000000604082015260006060820190505b919050565b600060808201905073ffffffffffffffffffffffffffffffffffffffff861682526fffffffffffffffffffffffffffffffff851660208301528360408301528260608301525b95945050505050565b60208152600160208201527f4c00000000000000000000000000000000000000000000000000000000000000604082015260006060820190505b919050565b60208152600260208201527f4630000000000000000000000000000000000000000000000000000000000000604082015260006060820190505b919050565b60208152600260208201527f4631000000000000000000000000000000000000000000000000000000000000604082015260006060820190505b919050565b60006080820190508582528460208301528360408301528260608301525b95945050505050565b60006fffffffffffffffffffffffffffffffff8083168185169150818110156193f7576193f6618dc8565b5b818103925050505b92915050565b600060608201905073ffffffffffffffffffffffffffffffffffffffff851682526fffffffffffffffffffffffffffffffff80851660208401528084166040840152505b949350505050565b6000602082840312156194645760006000fd5b815161946f81618434565b809150505b92915050565b600060ff821660ff84168060ff0382111561949857619497618dc8565b5b808201925050505b92915050565b600060808201905060ff8616825260ff8516602083015260ff8416604083015260ff831660608301525b95945050505050565b60006fffffffffffffffffffffffffffffffff82168015156194fe576194fd618dc8565b5b7fffffffffffffffffffffffffffffffffffffffffffffffffffffffffffffffff81019150505b919050565b60006060820190506fffffffffffffffffffffffffffffffff851682528360208301528260408301525b949350505050565b60008160060b8360060b60008112817fffffffffffffffffffffffffffffffffffffffffffffffffff80000000000000018312811516156195a05761959f618dc8565b5b81667fffffffffffff0183138116156195bc576195bb618dc8565b5b50808203925050505b92915050565b600073ffffffffffffffffffffffffffffffffffffffff8083168185169150818110156195fb576195fa618dc8565b5b818103925050505b92915050565b600063ffffffff80831681851691508181101561962957619628618dc8565b5b818103925050505b92915050565b60208152600260208201527f4149000000000000000000000000000000000000000000000000000000000000604082015260006060820190505b919050565b600060408201905073ffffffffffffffffffffffffffffffffffffffff841682528260020b60208301525b9392505050565b60008160020b8360020b8015156196c2576196c1618d71565b5b7fffffffffffffffffffffffffffffffffffffffffffffffffffffffffffffffff81147fffffffffffffffffffffffffffffffffffffffffffffffffffffffffff8000008314161561971757619716618dc8565b5b808205925050505b92915050565b60008160020b8360020b627fffff60008213600084138383048511828216161561975257619751618dc8565b5b7fffffffffffffffffffffffffffffffffffffffffffffffffffffffffff800000600085128682058612818416161561978e5761978d618dc8565b5b600087129250858205871284841616156197ab576197aa618dc8565b5b858505871281841616156197c2576197c1618dc8565b5b5050505050808202925050505b92915050565b600062ffffff8083168185168083038211156197f4576197f3618dc8565b5b80820193505050505b92915050565b60006fffffffffffffffffffffffffffffffff80841680151561982957619828618d71565b5b8082851604925050505b92915050565b60008260020b80151561984f5761984e618d71565b5b808360020b079150505b92915050565b60008160020b7fffffffffffffffffffffffffffffffffffffffffffffffffffffffffff80000081141561989657619895618dc8565b5b7fffffffffffffffffffffffffffffffffffffffffffffffffffffffffffffffff81019150505b919050565b600060ff821660ff8416808210156198dd576198dc618dc8565b5b808203925050505b92915050565b60008160020b8360020b6000821282627fffff0382138115161561991257619911618dc8565b5b827fffffffffffffffffffffffffffffffffffffffffffffffffffffffffff80000003821281161561994757619946618dc8565b5b50808201925050505b92915050565b60208152600160208201527f5400000000000000000000000000000000000000000000000000000000000000604082015260006060820190505b919050565b6000817fffffffffffffffffffffffffffffffffffffffffffffffffffffffffffffffff04831182151516156199ce576199cd618dc8565b5b82820290505b92915050565b60008215156199ec576199eb618d71565b5b82820690505b92915050565b600062ffffff808316818516915081811015619a1757619a16618dc8565b5b818103925050505b92915050565b7f4e487b7100000000000000000000000000000000000000000000000000000000600052603260045260246000fd5b565b60008160060b8360060b801515619a7057619a6f618d71565b5b7fffffffffffffffffffffffffffffffffffffffffffffffffffffffffffffffff81147fffffffffffffffffffffffffffffffffffffffffffffffffff8000000000000083141615619ac557619ac4618dc8565b5b808205925050505b92915050565b60008160060b8360060b667fffffffffffff600082136000841383830485118282161615619b0457619b03618dc8565b5b7fffffffffffffffffffffffffffffffffffffffffffffffffff800000000000006000851286820586128184161615619b4057619b3f618dc8565b5b60008712925085820587128484161615619b5d57619b5c618dc8565b5b85850587128184161615619b7457619b73618dc8565b5b5050505050808202925050505b92915050565b60008160060b8360060b6000821282667fffffffffffff03821381151615619bb257619bb1618dc8565b5b827fffffffffffffffffffffffffffffffffffffffffffffffffff80000000000000038212811615619be757619be6618dc8565b5b50808201925050505b92915050565b600073ffffffffffffffffffffffffffffffffffffffff808316818516808303821115619c2657619c25618dc8565b5b80820193505050505b92915050565b60208152600260208201527f4c53000000000000000000000000000000000000000000000000000000000000604082015260006060820190505b919050565b60208152600260208201527f4c41000000000000000000000000000000000000000000000000000000000000604082015260006060820190505b919050565b60208152600160208201527f5200000000000000000000000000000000000000000000000000000000000000604082015260006060820190505b919050565b60007f7fffffffffffffffffffffffffffffffffffffffffffffffffffffffffffffff600084136000841385830485118282161615619d3457619d33618dc8565b5b7f80000000000000000000000000000000000000000000000000000000000000006000871286820588128184161615619d7057619d6f618dc8565b5b60008712925087820587128484161615619d8d57619d8c618dc8565b5b87850587128184161615619da457619da3618dc8565b5b505050505082820290505b92915050565b600061ffff808316818516915081811015619dd357619dd2618dc8565b5b818103925050505b92915050565b600061ffff808316818516808303821115619dff57619dfe618dc8565b5b80820193505050505b92915050565b600061ffff808416801515619e2657619e25618d71565b5b8082851606925050505b92915050565b600060408201905073ffffffffffffffffffffffffffffffffffffffff841682528260208301525b9392505050565b6000825160005b81811015619e8b5760208186010151818501525b602081019050619e6c565b81811115619e9a576000828501525b508083019150505b92915050565b600060208284031215619ebb5760006000fd5b8151619ec68161845d565b809150505b92915050565b60208152600260208201527f5446000000000000000000000000000000000000000000000000000000000000604082015260006060820190505b919050565b600060208284031215619f235760006000fd5b815190505b92915050565b60208152600160208201527f4900000000000000000000000000000000000000000000000000000000000000604082015260006060820190505b919050565b600061ffff80831681811415619f8657619f85618dc8565b5b60018101925050505b919050565b60007fffffffffffffffffffffffffffffffffffffffffffffffffffffffffffffffff821415619fc757619fc6618dc8565b5b6001820190505b919050565b7fffffffffffffffffffffffffffffffffffffffff0000000000000000000000008460601b1681528260e81b60148201528160e81b60178201526000601a820190505b949350505050565b7f4e487b7100000000000000000000000000000000000000000000000000000000600052604160045260246000fd5b565b60208152600360208201527f544c550000000000000000000000000000000000000000000000000000000000604082015260006060820190505b919050565b60208152600360208201527f544c4d0000000000000000000000000000000000000000000000000000000000604082015260006060820190505b919050565b60208152600360208201527f54554d0000000000000000000000000000000000000000000000000000000000604082015260006060820190505b919050565b600073ffffffffffffffffffffffffffffffffffffffff80841680151561a1365761a135618d71565b5b8082851604925050505b92915050565b60208152600360208201527f4f4c440000000000000000000000000000000000000000000000000000000000604082015260006060820190505b919050565b600064ffffffffff80831681851680830382111561a1a65761a1a5618dc8565b5b80820193505050505b92915050565b60208152600260208201527f4c4f000000000000000000000000000000000000000000000000000000000000604082015260006060820190505b919050565b60208152600260208201527f4e50000000000000000000000000000000000000000000000000000000000000604082015260006060820190505b919050565bfea26469706673582212207cbb7fae6b6dd177ec035f178e05a6bcf315d3e285193337cffe2a2443cc6a2764736f6c634300080c0033a264697066735822122083c573a5a391fffb6b715beedf758c381dc0d6ba472c877050530e948455e19a64736f6c634300080c0033",
  "linkReferences": {},
  "deployedLinkReferences": {}
}