{
  "_format": "hh-sol-artifact-1",
  "contractName": "MarketTestable",
  "sourceName": "contracts/core/mocks/MarketTestable.sol",
  "abi": [
    {
      "inputs": [
        {
          "components": [
            {
              "internalType": "contract IGovernor",
              "name": "Governor",
              "type": "address"
            },
            {
              "internalType": "contract IProtocolLock",
              "name": "ProtocolLock",
              "type": "address"
            },
            {
              "internalType": "contract IPositionNFT",
              "name": "HuePositionNFT",
              "type": "address"
            },
            {
              "internalType": "contract IHue",
              "name": "Hue",
              "type": "address"
            },
            {
              "internalType": "contract ILendHue",
              "name": "LendHue",
              "type": "address"
            },
            {
              "internalType": "contract IAccounting",
              "name": "Accounting",
              "type": "address"
            },
            {
              "internalType": "contract IERC20",
              "name": "TruEth",
              "type": "address"
            }
          ],
          "internalType": "struct IMarket.ConstructorParams",
          "name": "params",
          "type": "tuple"
        }
      ],
      "stateMutability": "nonpayable",
      "type": "constructor"
    },
    {
      "anonymous": false,
      "inputs": [
        {
          "indexed": false,
          "internalType": "uint256",
          "name": "requirement",
          "type": "uint256"
        }
      ],
      "name": "CollateralizationRequirementUpdated",
      "type": "event"
    },
    {
      "anonymous": false,
      "inputs": [
        {
          "indexed": true,
          "internalType": "uint64",
          "name": "period",
          "type": "uint64"
        },
        {
          "indexed": false,
          "internalType": "uint64",
          "name": "periods",
          "type": "uint64"
        },
        {
          "indexed": false,
          "internalType": "uint256",
          "name": "newDebt",
          "type": "uint256"
        },
        {
          "indexed": false,
          "internalType": "uint256",
          "name": "rewardCount",
          "type": "uint256"
        },
        {
          "indexed": false,
          "internalType": "uint256",
          "name": "cumulativeDebt",
          "type": "uint256"
        },
        {
          "indexed": false,
          "internalType": "uint256",
          "name": "debtExchangeRate",
          "type": "uint256"
        }
      ],
      "name": "InterestAccrued",
      "type": "event"
    },
    {
      "anonymous": false,
      "inputs": [
        {
          "indexed": false,
          "internalType": "uint256",
          "name": "percentage",
          "type": "uint256"
        }
      ],
      "name": "InterestPortionToLendersUpdated",
      "type": "event"
    },
    {
      "anonymous": false,
      "inputs": [
        {
          "indexed": true,
          "internalType": "address",
          "name": "account",
          "type": "address"
        },
        {
          "indexed": false,
          "internalType": "uint256",
          "name": "hueCount",
          "type": "uint256"
        },
        {
          "indexed": false,
          "internalType": "uint256",
          "name": "lendTokenCount",
          "type": "uint256"
        }
      ],
      "name": "Lend",
      "type": "event"
    },
    {
      "anonymous": false,
      "inputs": [
        {
          "indexed": false,
          "internalType": "uint256",
          "name": "size",
          "type": "uint256"
        }
      ],
      "name": "MinPositionSizeUpdated",
      "type": "event"
    },
    {
      "anonymous": false,
      "inputs": [
        {
          "indexed": true,
          "internalType": "uint64",
          "name": "positionID",
          "type": "uint64"
        },
        {
          "indexed": false,
          "internalType": "uint256",
          "name": "debtIncrease",
          "type": "uint256"
        },
        {
          "indexed": false,
          "internalType": "uint256",
          "name": "debtDecrease",
          "type": "uint256"
        },
        {
          "indexed": false,
          "internalType": "uint256",
          "name": "collateralIncrease",
          "type": "uint256"
        },
        {
          "indexed": false,
          "internalType": "uint256",
          "name": "collateralDecrease",
          "type": "uint256"
        },
        {
          "indexed": false,
          "internalType": "uint256",
          "name": "newDebt",
          "type": "uint256"
        },
        {
          "indexed": false,
          "internalType": "uint256",
          "name": "newCollateral",
          "type": "uint256"
        }
      ],
      "name": "PositionAdjusted",
      "type": "event"
    },
    {
      "anonymous": false,
      "inputs": [
        {
          "indexed": true,
          "internalType": "address",
          "name": "creator",
          "type": "address"
        },
        {
          "indexed": true,
          "internalType": "uint64",
          "name": "positionID",
          "type": "uint64"
        },
        {
          "indexed": false,
          "internalType": "uint256",
          "name": "initialDebt",
          "type": "uint256"
        }
      ],
      "name": "PositionCreated",
      "type": "event"
    },
    {
      "anonymous": false,
      "inputs": [
        {
          "indexed": true,
          "internalType": "uint256",
          "name": "positionID",
          "type": "uint256"
        },
        {
          "indexed": true,
          "internalType": "uint64",
          "name": "period",
          "type": "uint64"
        },
        {
          "indexed": false,
          "internalType": "uint256",
          "name": "debtAfter",
          "type": "uint256"
        },
        {
          "indexed": false,
          "internalType": "uint256",
          "name": "tcpRewards",
          "type": "uint256"
        }
      ],
      "name": "PositionUpdated",
      "type": "event"
    },
    {
      "anonymous": false,
      "inputs": [
        {
          "indexed": true,
          "internalType": "address",
          "name": "account",
          "type": "address"
        },
        {
          "indexed": true,
          "internalType": "bool",
          "name": "isKickback",
          "type": "bool"
        },
        {
          "indexed": false,
          "internalType": "uint256",
          "name": "tcpRewards",
          "type": "uint256"
        }
      ],
      "name": "RewardsDistributed",
      "type": "event"
    },
    {
      "anonymous": false,
      "inputs": [],
      "name": "Stopped",
      "type": "event"
    },
    {
      "anonymous": false,
      "inputs": [
        {
          "indexed": false,
          "internalType": "uint32",
          "name": "duration",
          "type": "uint32"
        }
      ],
      "name": "TwapDurationUpdated",
      "type": "event"
    },
    {
      "anonymous": false,
      "inputs": [
        {
          "indexed": true,
          "internalType": "address",
          "name": "account",
          "type": "address"
        },
        {
          "indexed": false,
          "internalType": "uint256",
          "name": "hueCount",
          "type": "uint256"
        },
        {
          "indexed": false,
          "internalType": "uint256",
          "name": "lendTokenCount",
          "type": "uint256"
        }
      ],
      "name": "Unlend",
      "type": "event"
    },
    {
      "inputs": [],
      "name": "accounting",
      "outputs": [
        {
          "internalType": "contract IAccounting",
          "name": "",
          "type": "address"
        }
      ],
      "stateMutability": "view",
      "type": "function"
    },
    {
      "inputs": [],
      "name": "accrueInterest",
      "outputs": [],
      "stateMutability": "nonpayable",
      "type": "function"
    },
    {
      "inputs": [
        {
          "internalType": "uint64",
          "name": "positionID",
          "type": "uint64"
        },
        {
          "internalType": "int256",
          "name": "debtChange",
          "type": "int256"
        },
        {
          "internalType": "uint256",
          "name": "collateralIncrease",
          "type": "uint256"
        },
        {
          "internalType": "uint256",
          "name": "collateralDecrease",
          "type": "uint256"
        },
        {
          "internalType": "uint32",
          "name": "ui",
          "type": "uint32"
        }
      ],
      "name": "adjustPosition",
      "outputs": [],
      "stateMutability": "nonpayable",
      "type": "function"
    },
    {
      "inputs": [
        {
          "components": [
            {
              "internalType": "uint256",
              "name": "debt",
              "type": "uint256"
            },
            {
              "internalType": "uint256",
              "name": "totalTCPRewards",
              "type": "uint256"
            },
            {
              "internalType": "uint256",
              "name": "cumulativeDebt",
              "type": "uint256"
            },
            {
              "internalType": "uint256",
              "name": "debtExchangeRate",
              "type": "uint256"
            }
          ],
          "internalType": "struct IAccounting.SystemDebtInfo",
          "name": "sdi",
          "type": "tuple"
        },
        {
          "internalType": "uint64",
          "name": "periods",
          "type": "uint64"
        },
        {
          "internalType": "uint256",
          "name": "annualInterestRate",
          "type": "uint256"
        },
        {
          "internalType": "bool",
          "name": "positiveInterestRate",
          "type": "bool"
        },
        {
          "internalType": "uint256",
          "name": "reserves",
          "type": "uint256"
        },
        {
          "internalType": "uint256",
          "name": "_interestPortionToLenders",
          "type": "uint256"
        }
      ],
      "name": "calculateInterest",
      "outputs": [
        {
          "components": [
            {
              "internalType": "uint256",
              "name": "newDebt",
              "type": "uint256"
            },
            {
              "internalType": "uint256",
              "name": "newExchangeRate",
              "type": "uint256"
            },
            {
              "internalType": "uint256",
              "name": "additionalReserves",
              "type": "uint256"
            },
            {
              "internalType": "uint256",
              "name": "additionalLends",
              "type": "uint256"
            },
            {
              "internalType": "uint256",
              "name": "reducedReserves",
              "type": "uint256"
            }
          ],
          "internalType": "struct IMarket.CalculatedInterestInfo",
          "name": "cii",
          "type": "tuple"
        }
      ],
      "stateMutability": "pure",
      "type": "function"
    },
    {
      "inputs": [
        {
          "internalType": "uint64[]",
          "name": "positionIDs",
          "type": "uint64[]"
        },
        {
          "internalType": "uint32",
          "name": "ui",
          "type": "uint32"
        }
      ],
      "name": "claimAllRewards",
      "outputs": [],
      "stateMutability": "nonpayable",
      "type": "function"
    },
    {
      "inputs": [],
      "name": "collateralizationRequirement",
      "outputs": [
        {
          "internalType": "uint256",
          "name": "",
          "type": "uint256"
        }
      ],
      "stateMutability": "view",
      "type": "function"
    },
    {
      "inputs": [
        {
          "internalType": "uint256",
          "name": "initialCollateral",
          "type": "uint256"
        },
        {
          "internalType": "uint256",
          "name": "initialDebt",
          "type": "uint256"
        },
        {
          "internalType": "uint32",
          "name": "ui",
          "type": "uint32"
        }
      ],
      "name": "createPosition",
      "outputs": [
        {
          "internalType": "uint64",
          "name": "positionID",
          "type": "uint64"
        }
      ],
      "stateMutability": "nonpayable",
      "type": "function"
    },
    {
      "inputs": [],
      "name": "currentPeriod",
      "outputs": [
        {
          "internalType": "uint64",
          "name": "period",
          "type": "uint64"
        }
      ],
      "stateMutability": "view",
      "type": "function"
    },
    {
      "inputs": [],
      "name": "deployer",
      "outputs": [
        {
          "internalType": "address",
          "name": "",
          "type": "address"
        }
      ],
      "stateMutability": "view",
      "type": "function"
    },
    {
      "inputs": [],
      "name": "firstPeriod",
      "outputs": [
        {
          "internalType": "uint64",
          "name": "",
          "type": "uint64"
        }
      ],
      "stateMutability": "view",
      "type": "function"
    },
    {
      "inputs": [],
      "name": "governor",
      "outputs": [
        {
          "internalType": "contract IGovernor",
          "name": "",
          "type": "address"
        }
      ],
      "stateMutability": "view",
      "type": "function"
    },
    {
      "inputs": [],
      "name": "hue",
      "outputs": [
        {
          "internalType": "contract IHue",
          "name": "",
          "type": "address"
        }
      ],
      "stateMutability": "view",
      "type": "function"
    },
    {
      "inputs": [],
      "name": "huePositionNFT",
      "outputs": [
        {
          "internalType": "contract IPositionNFT",
          "name": "",
          "type": "address"
        }
      ],
      "stateMutability": "view",
      "type": "function"
    },
    {
      "inputs": [],
      "name": "init",
      "outputs": [],
      "stateMutability": "nonpayable",
      "type": "function"
    },
    {
      "inputs": [],
      "name": "interestPortionToLenders",
      "outputs": [
        {
          "internalType": "uint256",
          "name": "",
          "type": "uint256"
        }
      ],
      "stateMutability": "view",
      "type": "function"
    },
    {
      "inputs": [],
      "name": "lastPeriodGlobalInterestAccrued",
      "outputs": [
        {
          "internalType": "uint64",
          "name": "",
          "type": "uint64"
        }
      ],
      "stateMutability": "view",
      "type": "function"
    },
    {
      "inputs": [
        {
          "internalType": "uint256",
          "name": "hueCount",
          "type": "uint256"
        }
      ],
      "name": "lend",
      "outputs": [],
      "stateMutability": "nonpayable",
      "type": "function"
    },
    {
      "inputs": [],
      "name": "lendHue",
      "outputs": [
        {
          "internalType": "contract ILendHue",
          "name": "",
          "type": "address"
        }
      ],
      "stateMutability": "view",
      "type": "function"
    },
    {
      "inputs": [],
      "name": "minPositionSize",
      "outputs": [
        {
          "internalType": "uint256",
          "name": "",
          "type": "uint256"
        }
      ],
      "stateMutability": "view",
      "type": "function"
    },
    {
      "inputs": [],
      "name": "periodLength",
      "outputs": [
        {
          "internalType": "uint64",
          "name": "",
          "type": "uint64"
        }
      ],
      "stateMutability": "view",
      "type": "function"
    },
    {
      "inputs": [
        {
          "internalType": "uint64",
          "name": "positionID",
          "type": "uint64"
        }
      ],
      "name": "removeKickback",
      "outputs": [],
      "stateMutability": "nonpayable",
      "type": "function"
    },
    {
      "inputs": [
        {
          "internalType": "uint256",
          "name": "requirement",
          "type": "uint256"
        }
      ],
      "name": "setCollateralizationRequirement",
      "outputs": [],
      "stateMutability": "nonpayable",
      "type": "function"
    },
    {
      "inputs": [
        {
          "internalType": "uint256",
          "name": "percentage",
          "type": "uint256"
        }
      ],
      "name": "setInterestPortionToLenders",
      "outputs": [],
      "stateMutability": "nonpayable",
      "type": "function"
    },
    {
      "inputs": [
        {
          "internalType": "uint256",
          "name": "size",
          "type": "uint256"
        }
      ],
      "name": "setMinPositionSize",
      "outputs": [],
      "stateMutability": "nonpayable",
      "type": "function"
    },
    {
      "inputs": [
        {
          "internalType": "uint32",
          "name": "duration",
          "type": "uint32"
        }
      ],
      "name": "setTwapDuration",
      "outputs": [],
      "stateMutability": "nonpayable",
      "type": "function"
    },
    {
      "inputs": [],
      "name": "stop",
      "outputs": [],
      "stateMutability": "nonpayable",
      "type": "function"
    },
    {
      "inputs": [],
      "name": "stopped",
      "outputs": [
        {
          "internalType": "bool",
          "name": "",
          "type": "bool"
        }
      ],
      "stateMutability": "view",
      "type": "function"
    },
    {
      "inputs": [
        {
          "internalType": "uint64",
          "name": "positionID",
          "type": "uint64"
        }
      ],
      "name": "systemGetUpdatedPosition",
      "outputs": [
        {
          "components": [
            {
              "internalType": "uint256",
              "name": "startCumulativeDebt",
              "type": "uint256"
            },
            {
              "internalType": "uint256",
              "name": "collateral",
              "type": "uint256"
            },
            {
              "internalType": "uint256",
              "name": "debt",
              "type": "uint256"
            },
            {
              "internalType": "uint256",
              "name": "startDebtExchangeRate",
              "type": "uint256"
            },
            {
              "internalType": "uint256",
              "name": "startTCPRewards",
              "type": "uint256"
            },
            {
              "internalType": "uint64",
              "name": "lastTimeUpdated",
              "type": "uint64"
            },
            {
              "internalType": "uint64",
              "name": "lastBlockPositionIncreased",
              "type": "uint64"
            },
            {
              "internalType": "int24",
              "name": "tick",
              "type": "int24"
            },
            {
              "internalType": "bool",
              "name": "tickSet",
              "type": "bool"
            },
            {
              "internalType": "uint64",
              "name": "tickIndex",
              "type": "uint64"
            },
            {
              "internalType": "uint32",
              "name": "ui",
              "type": "uint32"
            },
            {
              "internalType": "address",
              "name": "kickbackDestination",
              "type": "address"
            },
            {
              "internalType": "uint64",
              "name": "kickbackPortion",
              "type": "uint64"
            }
          ],
          "internalType": "struct IAccounting.DebtPosition",
          "name": "",
          "type": "tuple"
        }
      ],
      "stateMutability": "nonpayable",
      "type": "function"
    },
    {
      "inputs": [],
      "name": "truEth",
      "outputs": [
        {
          "internalType": "contract IERC20",
          "name": "",
          "type": "address"
        }
      ],
      "stateMutability": "view",
      "type": "function"
    },
    {
      "inputs": [],
      "name": "twapDuration",
      "outputs": [
        {
          "internalType": "uint32",
          "name": "",
          "type": "uint32"
        }
      ],
      "stateMutability": "view",
      "type": "function"
    },
    {
      "inputs": [
        {
          "internalType": "uint256",
          "name": "lendTokenCount",
          "type": "uint256"
        }
      ],
      "name": "unlend",
      "outputs": [],
      "stateMutability": "nonpayable",
      "type": "function"
    },
    {
      "inputs": [
        {
          "components": [
            {
              "internalType": "uint256",
              "name": "startCumulativeDebt",
              "type": "uint256"
            },
            {
              "internalType": "uint256",
              "name": "collateral",
              "type": "uint256"
            },
            {
              "internalType": "uint256",
              "name": "debt",
              "type": "uint256"
            },
            {
              "internalType": "uint256",
              "name": "startDebtExchangeRate",
              "type": "uint256"
            },
            {
              "internalType": "uint256",
              "name": "startTCPRewards",
              "type": "uint256"
            },
            {
              "internalType": "uint64",
              "name": "lastTimeUpdated",
              "type": "uint64"
            },
            {
              "internalType": "uint64",
              "name": "lastBlockPositionIncreased",
              "type": "uint64"
            },
            {
              "internalType": "int24",
              "name": "tick",
              "type": "int24"
            },
            {
              "internalType": "bool",
              "name": "tickSet",
              "type": "bool"
            },
            {
              "internalType": "uint64",
              "name": "tickIndex",
              "type": "uint64"
            },
            {
              "internalType": "uint32",
              "name": "ui",
              "type": "uint32"
            },
            {
              "internalType": "address",
              "name": "kickbackDestination",
              "type": "address"
            },
            {
              "internalType": "uint64",
              "name": "kickbackPortion",
              "type": "uint64"
            }
          ],
          "internalType": "struct IAccounting.DebtPosition",
          "name": "_position",
          "type": "tuple"
        },
        {
          "components": [
            {
              "internalType": "uint256",
              "name": "debt",
              "type": "uint256"
            },
            {
              "internalType": "uint256",
              "name": "totalTCPRewards",
              "type": "uint256"
            },
            {
              "internalType": "uint256",
              "name": "cumulativeDebt",
              "type": "uint256"
            },
            {
              "internalType": "uint256",
              "name": "debtExchangeRate",
              "type": "uint256"
            }
          ],
          "internalType": "struct IAccounting.SystemDebtInfo",
          "name": "sdi",
          "type": "tuple"
        },
        {
          "internalType": "uint64",
          "name": "timeNow",
          "type": "uint64"
        }
      ],
      "name": "updatePositionImpl",
      "outputs": [
        {
          "components": [
            {
              "internalType": "uint256",
              "name": "startCumulativeDebt",
              "type": "uint256"
            },
            {
              "internalType": "uint256",
              "name": "collateral",
              "type": "uint256"
            },
            {
              "internalType": "uint256",
              "name": "debt",
              "type": "uint256"
            },
            {
              "internalType": "uint256",
              "name": "startDebtExchangeRate",
              "type": "uint256"
            },
            {
              "internalType": "uint256",
              "name": "startTCPRewards",
              "type": "uint256"
            },
            {
              "internalType": "uint64",
              "name": "lastTimeUpdated",
              "type": "uint64"
            },
            {
              "internalType": "uint64",
              "name": "lastBlockPositionIncreased",
              "type": "uint64"
            },
            {
              "internalType": "int24",
              "name": "tick",
              "type": "int24"
            },
            {
              "internalType": "bool",
              "name": "tickSet",
              "type": "bool"
            },
            {
              "internalType": "uint64",
              "name": "tickIndex",
              "type": "uint64"
            },
            {
              "internalType": "uint32",
              "name": "ui",
              "type": "uint32"
            },
            {
              "internalType": "address",
              "name": "kickbackDestination",
              "type": "address"
            },
            {
              "internalType": "uint64",
              "name": "kickbackPortion",
              "type": "uint64"
            }
          ],
          "internalType": "struct IAccounting.DebtPosition",
          "name": "position",
          "type": "tuple"
        },
        {
          "internalType": "uint256",
          "name": "rewards",
          "type": "uint256"
        }
      ],
      "stateMutability": "pure",
      "type": "function"
    },
    {
      "inputs": [
        {
          "internalType": "bytes4",
          "name": "",
          "type": "bytes4"
        }
      ],
      "name": "validUpdate",
      "outputs": [
        {
          "internalType": "bool",
          "name": "",
          "type": "bool"
        }
      ],
      "stateMutability": "view",
      "type": "function"
    },
    {
      "inputs": [
        {
          "internalType": "uint256",
          "name": "lendTokenCount",
          "type": "uint256"
        }
      ],
      "name": "valueOfLendTokensInHue",
      "outputs": [
        {
          "internalType": "uint256",
          "name": "",
          "type": "uint256"
        }
      ],
      "stateMutability": "view",
      "type": "function"
    }
  ],
  "bytecode": "0x6101a0604052600160026000509090556714d1120d7b160000600360005090905568056bc75e2d6310000060046000509090556702c68af0bb1400006005600050909055610708600660006101000a81548163ffffffff021916908363ffffffff160217905550348015620000745760006000fd5b50604051620060a2380380620060a283398181016040528101906200009a91906200059e565b5b805b603c5b816000015182602001515b815b8073ffffffffffffffffffffffffffffffffffffffff1660808173ffffffffffffffffffffffffffffffffffffffff16815260200150505b508073ffffffffffffffffffffffffffffffffffffffff1660a08173ffffffffffffffffffffffffffffffffffffffff16815260200150505b505060018162000133620004f260201b60201c565b6200013f91906200068a565b6200014b9190620006c5565b67ffffffffffffffff1660e08167ffffffffffffffff16815260200150508067ffffffffffffffff1660c08167ffffffffffffffff16815260200150505b50806040015173ffffffffffffffffffffffffffffffffffffffff166101008173ffffffffffffffffffffffffffffffffffffffff1681526020015050806060015173ffffffffffffffffffffffffffffffffffffffff166101208173ffffffffffffffffffffffffffffffffffffffff1681526020015050806080015173ffffffffffffffffffffffffffffffffffffffff166101408173ffffffffffffffffffffffffffffffffffffffff16815260200150508060a0015173ffffffffffffffffffffffffffffffffffffffff166101608173ffffffffffffffffffffffffffffffffffffffff16815260200150508060c0015173ffffffffffffffffffffffffffffffffffffffff166101808173ffffffffffffffffffffffffffffffffffffffff16815260200150506000604051806080016040528063ef5e1cac60e01b7bffffffffffffffffffffffffffffffffffffffffffffffffffffffff19167bffffffffffffffffffffffffffffffffffffffffffffffffffffffff1916815260200163c433c80a60e01b7bffffffffffffffffffffffffffffffffffffffffffffffffffffffff19167bffffffffffffffffffffffffffffffffffffffffffffffffffffffff191681526020016306972dcd60e01b7bffffffffffffffffffffffffffffffffffffffffffffffffffffffff19167bffffffffffffffffffffffffffffffffffffffffffffffffffffffff19168152602001635a6127a960e01b7bffffffffffffffffffffffffffffffffffffffffffffffffffffffff19167bffffffffffffffffffffffffffffffffffffffffffffffffffffffff191681526020015090506000600090505b81506004811015620004a5576001600160005060008484600481101515620004265762000425620006f9565b5b60200201517bffffffffffffffffffffffffffffffffffffffffffffffffffffffff19167bffffffffffffffffffffffffffffffffffffffffffffffffffffffff1916815260200190815260200160002060006101000a81548160ff0219169083151502179055505b80806200049c9062000711565b915050620003f9565b50336006600c6101000a81548173ffffffffffffffffffffffffffffffffffffffff021916908373ffffffffffffffffffffffffffffffffffffffff160217905550505b505b5062000775565b60006200050c426200051460201b62001aba17909060201c565b905080505b90565b6000680100000000000000008210151562000566576040517f08c379a00000000000000000000000000000000000000000000000000000000081526004016200055d9062000735565b60405180910390fd5b8190506200056f565b9190505662000774565b6000815190506001600160a01b03811681141515620005985760006000fd5b5b919050565b600060e08284031215620005b25760006000fd5b60405160e081018181106001600160401b0382111715620005e357634e487b7160e01b600052604160045260246000fd5b8060405250620005f38362000579565b8152620006036020840162000579565b6020820152620006166040840162000579565b6040820152620006296060840162000579565b60608201526200063c6080840162000579565b60808201526200064f60a0840162000579565b60a08201526200066260c0840162000579565b60c0820152809150505b92915050565b634e487b7160e01b600052601160045260246000fd5b565b60006001600160401b03808416801515620006b557634e487b7160e01b600052601260045260246000fd5b8082851604925050505b92915050565b60006001600160401b03808316818516915081811015620006eb57620006ea62000672565b5b818103925050505b92915050565b634e487b7160e01b600052603260045260246000fd5b565b600060001982141562000729576200072862000672565b5b6001820190505b919050565b60208152601160208201527f6d6f7265207468616e2036342062697473000000000000000000000000000000604082015260006060820190505b919050565b5b60805160a05160c05160e051610100516101205161014051610160516101805161574262000960600039600081816111da0152612b1701526000818161082501528181610a2b01528181610bfc01528181610c8501528181610d3701528181610f8201528181611048015281816114eb0152818161158b015281816116de015281816118c10152818161198801528181612166015281816126b8015281816127d50152818161294a01528181612b3901528181612b7001528181612ecf015281816132d1015281816133940152818161346101526136a00152600081816107960152818161093001528181610d640152613734015260008181610b1c01528181610d15015281816129e201528181612a7b015281816130dc01528181613425015281816134e60152818161352201526135a701526000818161097301528181610e8701528181610eca01528181611287015281816114af0152818161180b01526123a201526000818161119201528181611c7f0152613c220152600081816111b601528181611ca00152613c43015260008181611d950152611f1a0152600081816107070152818161164501528181611cee01528181611fad0152818161229c0152818161243f01528181612f63015281816131a901528181613b4e0152613cc901526157426000f3fe60806040523480156100115760006000fd5b506004361061022a5760003560e01c8063a6afed951161012b578063d2f827eb116100be578063e1c7392a1161008d578063ed92182f11610072578063ed92182f146105f5578063ef5e1cac14610611578063f6979f291461062d5761022a565b8063e1c7392a146105bb578063eb6843ce146105c55761022a565b8063d2f827eb1461051f578063d5f394881461053d578063d68f2af21461055b578063e11c87621461058b5761022a565b8063bb8313c2116100fa578063bb8313c2146104a9578063c433c80a146104c7578063c4e3a63b146104e3578063d2ca2115146105015761022a565b8063a6afed9514610447578063a89f51ae14610451578063b2326b571461046f578063b6ae213a1461048b5761022a565b80632cae0269116101be5780635658c0121161018d57806375f12b211161017257806375f12b21146103ef5780639624e83e1461040d578063a6aa57ce1461042b5761022a565b80635658c012146103b55780635a6127a9146103d35761022a565b80632cae02691461032d5780632e51bde61461034b57806332374174146103675780634ff34aca146103855761022a565b80630c340a24116101fa5780630c340a24146102a5578063113cf1ab146102c3578063197b1bf5146102f357806326d895451461030f5761022a565b8062b2a04414610230578063060406181461026157806306972dcd1461027f57806307da68f51461029b5761022a565b60006000fd5b61024a6004803603810190610245919061446d565b61064b565b6040516102589291906146af565b60405180910390f35b610269610677565b60405161027691906146d1565b60405180910390f35b610299600480360381019061029491906146ed565b61068f565b005b6102a36106e5565b005b6102ad610705565b6040516102ba919061470b565b60405180910390f35b6102dd60048036038101906102d89190614733565b610729565b6040516102ea9190614784565b60405180910390f35b61030d600480360381019061030891906146ed565b61074e565b005b610317610918565b6040516103249190614798565b60405180910390f35b61033561092e565b60405161034291906147b0565b60405180910390f35b610365600480360381019061036091906147d8565b610952565b005b61036f610b1a565b60405161037c9190614834565b60405180910390f35b61039f600480360381019061039a919061485c565b610b3e565b6040516103ac91906148cb565b60405180910390f35b6103bd610b6b565b6040516103ca9190614906565b60405180910390f35b6103ed60048036038101906103e891906146ed565b610b74565b005b6103f7610be7565b6040516104049190614784565b60405180910390f35b610415610bfa565b6040516104229190614918565b60405180910390f35b610445600480360381019061044091906146ed565b610c1e565b005b61044f610e57565b005b610459610e85565b6040516104669190614940565b60405180910390f35b61048960048036038101906104849190614968565b610ea9565b005b6104936110ea565b6040516104a091906146d1565b60405180910390f35b6104b1611104565b6040516104be9190614906565b60405180910390f35b6104e160048036038101906104dc9190614991565b61110d565b005b6104eb611190565b6040516104f891906146d1565b60405180910390f35b6105096111b4565b60405161051691906146d1565b60405180910390f35b6105276111d8565b60405161053491906149ba565b60405180910390f35b6105456111fc565b60405161055291906149e2565b60405180910390f35b61057560048036038101906105709190614a0a565b611222565b60405161058291906146d1565b60405180910390f35b6105a560048036038101906105a091906146ed565b6113f9565b6040516105b29190614906565b60405180910390f35b6105c3611427565b005b6105df60048036038101906105da9190614968565b61162d565b6040516105ec9190614a46565b60405180910390f35b61060f600480360381019061060a9190614a60565b61179e565b005b61062b600480360381019061062691906146ed565b611a43565b005b610635611ab1565b6040516106429190614906565b60405180910390f35b610653614151565b6000610666858585611b1663ffffffff16565b80925081935050505b935093915050565b6000610687611c7b63ffffffff16565b905080505b90565b61069d611ce963ffffffff16565b8060046000508190909055507f113d15441cef41c1a48eb1bc2c6fa7b881b201a5c4b2913272f80defe12ce3c3816040516106d89190614906565b60405180910390a15b5b50565b6106f3611ce963ffffffff16565b610701611d4963ffffffff16565b5b5b565b7f000000000000000000000000000000000000000000000000000000000000000081565b600160005060205280600052604060002060009150909054906101000a900460ff1681565b61075c611d9363ffffffff16565b61076a611e7063ffffffff16565b61077c60008211611ec563ffffffff16565b60003390506000610792836113f963ffffffff16565b90507f000000000000000000000000000000000000000000000000000000000000000073ffffffffffffffffffffffffffffffffffffffff166379cc679083856040518363ffffffff1660e01b81526004016107ef929190614af3565b600060405180830381600087803b15801561080a5760006000fd5b505af115801561081f573d600060003e3d6000fd5b505050507f000000000000000000000000000000000000000000000000000000000000000073ffffffffffffffffffffffffffffffffffffffff1663b241bbac83836040518363ffffffff1660e01b815260040161087e929190614af3565b600060405180830381600087803b1580156108995760006000fd5b505af11580156108ae573d600060003e3d6000fd5b505050508173ffffffffffffffffffffffffffffffffffffffff167fefc56a1a7590fc4eb13cd40b6a2ceee41f3869c6ea818d20d9a18f2d6315ca1882856040516108fa929190614b22565b60405180910390a250505b5b610914611f0b63ffffffff16565b5b50565b600660009054906101000a900463ffffffff1681565b7f000000000000000000000000000000000000000000000000000000000000000081565b610960611d9363ffffffff16565b61096e611f9d63ffffffff16565b610a197f000000000000000000000000000000000000000000000000000000000000000073ffffffffffffffffffffffffffffffffffffffff1663430c208133886040518363ffffffff1660e01b81526004016109cc929190614b3b565b602060405180830381865afa1580156109ea573d600060003e3d6000fd5b505050506040513d601f19601f82011682018060405250810190610a0e9190614b89565b61208063ffffffff16565b6000610ad08667ffffffffffffffff167f000000000000000000000000000000000000000000000000000000000000000073ffffffffffffffffffffffffffffffffffffffff16630f85fc5a896040518263ffffffff1660e01b8152600401610a8291906146d1565b6101a060405180830381865afa158015610aa1573d600060003e3d6000fd5b505050506040513d601f19601f82011682018060405250810190610ac59190614c06565b6120c663ffffffff16565b90508181610140019063ffffffff16908163ffffffff1681526020015050610b01818787878761257463ffffffff16565b505b5b610b12611f0b63ffffffff16565b5b5050505050565b7f000000000000000000000000000000000000000000000000000000000000000081565b610b46614205565b610b5a878787878787612c5c63ffffffff16565b9050610b61565b9695505050505050565b60036000505481565b610b82611ce963ffffffff16565b806005600050819090905550670de0b6b3a764000060056000505411151515610bab5760006000fd5b7f95c718270dc047bb0f84e533ee71ed5ee3961f14be924c0e493ba6e1ff078ae281604051610bda9190614906565b60405180910390a15b5b50565b600060009054906101000a900460ff1681565b7f000000000000000000000000000000000000000000000000000000000000000081565b610c2c611d9363ffffffff16565b610c3a611f9d63ffffffff16565b610c4c60008211611ec563ffffffff16565b6000339050610c5f612e5a63ffffffff16565b6000610c81610c7261369a63ffffffff16565b8461380790919063ffffffff16565b90507f000000000000000000000000000000000000000000000000000000000000000073ffffffffffffffffffffffffffffffffffffffff16632c73f09e846040518263ffffffff1660e01b8152600401610cdc9190614906565b600060405180830381600087803b158015610cf75760006000fd5b505af1158015610d0c573d600060003e3d6000fd5b50505050610d627f0000000000000000000000000000000000000000000000000000000000000000837f00000000000000000000000000000000000000000000000000000000000000008661382d63ffffffff16565b7f000000000000000000000000000000000000000000000000000000000000000073ffffffffffffffffffffffffffffffffffffffff1663449a52f883836040518363ffffffff1660e01b8152600401610dbd929190614af3565b600060405180830381600087803b158015610dd85760006000fd5b505af1158015610ded573d600060003e3d6000fd5b505050508173ffffffffffffffffffffffffffffffffffffffff167f8fff79b574da9a93d7a5408c2fc00c4a9b2b462321c1659b2fbbb9ff3dd221ff8483604051610e39929190614b22565b60405180910390a250505b5b610e53611f0b63ffffffff16565b5b50565b610e656138bd63ffffffff16565b610e73612e5a63ffffffff16565b5b610e8261391863ffffffff16565b5b565b7f000000000000000000000000000000000000000000000000000000000000000081565b610eb7611d9363ffffffff16565b610ec5611f9d63ffffffff16565b610f707f000000000000000000000000000000000000000000000000000000000000000073ffffffffffffffffffffffffffffffffffffffff1663430c208133846040518363ffffffff1660e01b8152600401610f23929190614b3b565b602060405180830381865afa158015610f41573d600060003e3d6000fd5b505050506040513d601f19601f82011682018060405250810190610f659190614b89565b61208063ffffffff16565b60006110278267ffffffffffffffff167f000000000000000000000000000000000000000000000000000000000000000073ffffffffffffffffffffffffffffffffffffffff16630f85fc5a856040518263ffffffff1660e01b8152600401610fd991906146d1565b6101a060405180830381865afa158015610ff8573d600060003e3d6000fd5b505050506040513d601f19601f8201168201806040525081019061101c9190614c06565b6120c663ffffffff16565b9050600081610140019063ffffffff16908163ffffffff16815260200150507f000000000000000000000000000000000000000000000000000000000000000073ffffffffffffffffffffffffffffffffffffffff16635a6beaf483836040518363ffffffff1660e01b81526004016110a1929190614ceb565b600060405180830381600087803b1580156110bc5760006000fd5b505af11580156110d1573d600060003e3d6000fd5b50505050505b5b6110e6611f0b63ffffffff16565b5b50565b600660049054906101000a900467ffffffffffffffff1681565b60046000505481565b61111b611ce963ffffffff16565b61012c8163ffffffff16101515156111335760006000fd5b80600660006101000a81548163ffffffff021916908363ffffffff1602179055507f670aac3910a07dcfe5267c8b0bf2357abdb454e509764d13e94e85ee13c6da20816040516111839190614798565b60405180910390a15b5b50565b7f000000000000000000000000000000000000000000000000000000000000000081565b7f000000000000000000000000000000000000000000000000000000000000000081565b7f000000000000000000000000000000000000000000000000000000000000000081565b6006600c9054906101000a900473ffffffffffffffffffffffffffffffffffffffff1681565b6000611232611d9363ffffffff16565b611240611f9d63ffffffff16565b600084111515611285576040517f08c379a000000000000000000000000000000000000000000000000000000000815260040161127c90614d16565b60405180910390fd5b7f000000000000000000000000000000000000000000000000000000000000000073ffffffffffffffffffffffffffffffffffffffff1663755edd17336040518263ffffffff1660e01b81526004016112de91906149e2565b6020604051808303816000875af11580156112fe573d600060003e3d6000fd5b505050506040513d601f19601f820116820180604052508101906113229190614d55565b9050805061132e614151565b8281610140019063ffffffff16908163ffffffff16815260200150506113876113678367ffffffffffffffff16836120c663ffffffff16565b8361137987613928909063ffffffff16565b88600061257463ffffffff16565b8167ffffffffffffffff163373ffffffffffffffffffffffffffffffffffffffff167f24c9bb74341922446798a07669f56d3efec500a78e81429643958e7a42cb6b12866040516113d89190614906565b60405180910390a3505b5b6113f1611f0b63ffffffff16565b5b9392505050565b600061141b61140c61369a63ffffffff16565b8361399b90919063ffffffff16565b9050611422565b919050565b6114866006600c9054906101000a900473ffffffffffffffffffffffffffffffffffffffff1673ffffffffffffffffffffffffffffffffffffffff163373ffffffffffffffffffffffffffffffffffffffff161461208063ffffffff16565b6006600c6101000a81549073ffffffffffffffffffffffffffffffffffffffff021916905560007f000000000000000000000000000000000000000000000000000000000000000073ffffffffffffffffffffffffffffffffffffffff1663755edd177f00000000000000000000000000000000000000000000000000000000000000006040518263ffffffff1660e01b815260040161152691906149e2565b6020604051808303816000875af1158015611546573d600060003e3d6000fd5b505050506040513d601f19601f8201168201806040525081019061156a9190614d55565b67ffffffffffffffff161415156115815760006000fd5b611589614151565b7f000000000000000000000000000000000000000000000000000000000000000073ffffffffffffffffffffffffffffffffffffffff16635a6beaf460006115d86000856120c663ffffffff16565b6040518363ffffffff1660e01b81526004016115f5929190614d7e565b600060405180830381600087803b1580156116105760006000fd5b505af1158015611625573d600060003e3d6000fd5b50505050505b565b611635614151565b6116436138bd63ffffffff16565b7f000000000000000000000000000000000000000000000000000000000000000073ffffffffffffffffffffffffffffffffffffffff16639622cd8f336040518263ffffffff1660e01b815260040161169c91906149e2565b60006040518083038186803b1580156116b55760006000fd5b505afa1580156116ca573d600060003e3d6000fd5b505050506117838267ffffffffffffffff167f000000000000000000000000000000000000000000000000000000000000000073ffffffffffffffffffffffffffffffffffffffff16630f85fc5a856040518263ffffffff1660e01b815260040161173591906146d1565b6101a060405180830381865afa158015611754573d600060003e3d6000fd5b505050506040513d601f19601f820116820180604052508101906117789190614c06565b6120c663ffffffff16565b905061178a565b61179861391863ffffffff16565b5b919050565b6117ac611d9363ffffffff16565b6117ba611e7063ffffffff16565b60008383905090506117ca614151565b60006000600090505b83811015611a295786868281811015156117f0576117ef614da9565b5b90506020020160208101906118059190614968565b915081507f000000000000000000000000000000000000000000000000000000000000000073ffffffffffffffffffffffffffffffffffffffff1663430c208133846040518363ffffffff1660e01b8152600401611864929190614b3b565b602060405180830381865afa158015611882573d600060003e3d6000fd5b505050506040513d601f19601f820116820180604052508101906118a69190614b89565b15156118b157611a16565b6119668267ffffffffffffffff167f000000000000000000000000000000000000000000000000000000000000000073ffffffffffffffffffffffffffffffffffffffff16630f85fc5a856040518263ffffffff1660e01b815260040161191891906146d1565b6101a060405180830381865afa158015611937573d600060003e3d6000fd5b505050506040513d601f19601f8201168201806040525081019061195b9190614c06565b6120c663ffffffff16565b925082508483610140019063ffffffff16908163ffffffff16815260200150507f000000000000000000000000000000000000000000000000000000000000000073ffffffffffffffffffffffffffffffffffffffff16635a6beaf483856040518363ffffffff1660e01b81526004016119e1929190614ceb565b600060405180830381600087803b1580156119fc5760006000fd5b505af1158015611a11573d600060003e3d6000fd5b505050505b8080611a2190614e0b565b9150506117d3565b505050505b5b611a3d611f0b63ffffffff16565b5b505050565b611a51611ce963ffffffff16565b806003600050819090905550670de0b6b3a76400008110151515611a755760006000fd5b7f52640f3e2df50709ead28077e905b85df7544c73c32a40259dff3ac35927d5ce81604051611aa49190614906565b60405180910390a15b5b50565b60056000505481565b60006801000000000000000082101515611b09576040517f08c379a0000000000000000000000000000000000000000000000000000000008152600401611b0090614e4a565b60405180910390fd5b819050611b11565b919050565b611b1e614151565b6000849150815060008260a0015167ffffffffffffffff16118015611b47575060008260400151115b15611c1657611b6d8460600151836060015184604001516139c19092919063ffffffff16565b8260400190908181526020015050611c11611b9f8360a001518567ffffffffffffffff16613ae590919063ffffffff16565b67ffffffffffffffff16603c67ffffffffffffffff16611c02611bd386608001518960200151613b0090919063ffffffff16565b611bee87600001518a60400151613b0090919063ffffffff16565b87604001516139c19092919063ffffffff16565b6139c19092919063ffffffff16565b905080505b836060015182606001909081815260200150508360200151826080019090818152602001505083604001518260000190908181526020015050828260a0019067ffffffffffffffff16908167ffffffffffffffff16815260200150505b935093915050565b60007f00000000000000000000000000000000000000000000000000000000000000007f0000000000000000000000000000000000000000000000000000000000000000611ccd613b1b63ffffffff16565b611cd79190614eba565b611ce19190614ee8565b905080505b90565b611d467f000000000000000000000000000000000000000000000000000000000000000073ffffffffffffffffffffffffffffffffffffffff163373ffffffffffffffffffffffffffffffffffffffff161461208063ffffffff16565b5b565b6001600060006101000a81548160ff0219169083151502179055507f7acc84e34091ae817647a4c49116f5cc07f319078ba80f8f5fde37ea7e25cbd660405160405180910390a15b565b7f000000000000000000000000000000000000000000000000000000000000000073ffffffffffffffffffffffffffffffffffffffff1663e97dcb626040518163ffffffff1660e01b8152600401600060405180830381600087803b158015611dfc5760006000fd5b505af1158015611e11573d600060003e3d6000fd5b50505050600260026000505414151515611e60576040517f08c379a0000000000000000000000000000000000000000000000000000000008152600401611e5790614f1a565b60405180910390fd5b600260026000508190909055505b565b600060009054906101000a900460ff16151515611ec2576040517f08c379a0000000000000000000000000000000000000000000000000000000008152600401611eb990614f59565b60405180910390fd5b5b565b801515611f07576040517f08c379a0000000000000000000000000000000000000000000000000000000008152600401611efe90614f98565b60405180910390fd5b5b50565b600160026000508190909055507f000000000000000000000000000000000000000000000000000000000000000073ffffffffffffffffffffffffffffffffffffffff1663e9fad8ee6040518163ffffffff1660e01b8152600401600060405180830381600087803b158015611f815760006000fd5b505af1158015611f96573d600060003e3d6000fd5b505050505b565b611fab611e7063ffffffff16565b7f000000000000000000000000000000000000000000000000000000000000000073ffffffffffffffffffffffffffffffffffffffff1663bf86d6906040518163ffffffff1660e01b8152600401602060405180830381865afa158015612017573d600060003e3d6000fd5b505050506040513d601f19601f8201168201806040525081019061203b9190614b89565b15151561207d576040517f08c379a000000000000000000000000000000000000000000000000000000000815260040161207490614fd7565b60405180910390fd5b5b565b8015156120c2576040517f08c379a00000000000000000000000000000000000000000000000000000000081526004016120b990615016565b60405180910390fd5b5b50565b6120ce614151565b60006120de613b3663ffffffff16565b905060006120f182613c1b63ffffffff16565b9050600060008560a0015167ffffffffffffffff16146121235761211e8560a00151613c1b63ffffffff16565b612126565b60005b90508067ffffffffffffffff168267ffffffffffffffff161115156121505784935050505061256e565b61215e612e5a63ffffffff16565b6000612200867f000000000000000000000000000000000000000000000000000000000000000073ffffffffffffffffffffffffffffffffffffffff166306ef2d806040518163ffffffff1660e01b8152600401608060405180830381865afa1580156121d0573d600060003e3d6000fd5b505050506040513d601f19601f820116820180604052508101906121f49190615055565b86611b1663ffffffff16565b8092508196505050600081118015612219575060008714155b1561252057600073ffffffffffffffffffffffffffffffffffffffff1685610160015173ffffffffffffffffffffffffffffffffffffffff161415801561226f5750600085610180015167ffffffffffffffff16115b1561239e57600061229886610180015167ffffffffffffffff168361380790919063ffffffff16565b90507f000000000000000000000000000000000000000000000000000000000000000073ffffffffffffffffffffffffffffffffffffffff16634d6729f5876101600151836040518363ffffffff1660e01b81526004016122fa929190614af3565b600060405180830381600087803b1580156123155760006000fd5b505af115801561232a573d600060003e3d6000fd5b505050506001151586610160015173ffffffffffffffffffffffffffffffffffffffff167f8079a05488a0f375c08504c3ba8b3a1371f5a192b7a141bc9294ef7ad41389d98360405161237d9190614906565b60405180910390a36123988183613b0090919063ffffffff16565b91508150505b60007f000000000000000000000000000000000000000000000000000000000000000073ffffffffffffffffffffffffffffffffffffffff16636352211e896040518263ffffffff1660e01b81526004016123f99190614906565b602060405180830381865afa158015612417573d600060003e3d6000fd5b505050506040513d601f19601f8201168201806040525081019061243b91906150e4565b90507f000000000000000000000000000000000000000000000000000000000000000073ffffffffffffffffffffffffffffffffffffffff16634d6729f582846040518363ffffffff1660e01b8152600401612498929190614af3565b600060405180830381600087803b1580156124b35760006000fd5b505af11580156124c8573d600060003e3d6000fd5b50505050600015158173ffffffffffffffffffffffffffffffffffffffff167f8079a05488a0f375c08504c3ba8b3a1371f5a192b7a141bc9294ef7ad41389d9846040516125169190614906565b60405180910390a3505b8267ffffffffffffffff16877fc99ac0d15229fa72f1b0756c0eed4e7ede3d80f4e4e0d308ce7a56d1366b8a03876040015184604051612561929190614b22565b60405180910390a3505050505b92915050565b600060008413612585576000612587565b835b905060006000851261259a5760006125ce565b6125cd7fffffffffffffffffffffffffffffffffffffffffffffffffffffffffffffffff86613c8f90919063ffffffff16565b5b90506000841180156125e05750600083115b151515612622576040517f08c379a00000000000000000000000000000000000000000000000000000000081526004016126199061510d565b60405180910390fd5b61265560008511806126345750600084115b8061263f5750600083115b8061264a5750600082115b611ec563ffffffff16565b60008211156127445761266f43611aba909063ffffffff16565b8760c0019067ffffffffffffffff16908167ffffffffffffffff16815260200150506126a8828860400151613caa90919063ffffffff16565b87604001909081815260200150507f000000000000000000000000000000000000000000000000000000000000000073ffffffffffffffffffffffffffffffffffffffff16632b7c7b11836040518263ffffffff1660e01b815260040161270f9190614906565b600060405180830381600087803b15801561272a5760006000fd5b505af115801561273f573d600060003e3d6000fd5b505050505b600081111561286157438760c0015167ffffffffffffffff1610151561279f576040517f08c379a000000000000000000000000000000000000000000000000000000000815260040161279690615172565b60405180910390fd5b80876040015110156127b5578660400151905080505b80876040018181516127c791906151b1565b9150909081815260200150507f000000000000000000000000000000000000000000000000000000000000000073ffffffffffffffffffffffffffffffffffffffff16632a7ba1f7826040518263ffffffff1660e01b815260040161282c9190614906565b600060405180830381600087803b1580156128475760006000fd5b505af115801561285c573d600060003e3d6000fd5b505050505b600084111561289057612881848860200151613caa90919063ffffffff16565b87602001909081815260200150505b60008311156128bf576128b0838860200151613b0090919063ffffffff16565b87602001909081815260200150505b6000876040015111156129485760046000505487604001511015151561291a576040517f08c379a0000000000000000000000000000000000000000000000000000000008152600401612911906151d0565b60405180910390fd5b60008311806129295750600082115b156129475761294687604001518860200151613cc563ffffffff16565b5b5b7f000000000000000000000000000000000000000000000000000000000000000073ffffffffffffffffffffffffffffffffffffffff16635a6beaf487896040518363ffffffff1660e01b81526004016129a3929190614ceb565b600060405180830381600087803b1580156129be5760006000fd5b505af11580156129d3573d600060003e3d6000fd5b505050506000821115612a70577f000000000000000000000000000000000000000000000000000000000000000073ffffffffffffffffffffffffffffffffffffffff1663449a52f833846040518363ffffffff1660e01b8152600401612a3b929190614af3565b600060405180830381600087803b158015612a565760006000fd5b505af1158015612a6b573d600060003e3d6000fd5b505050505b6000811115612b09577f000000000000000000000000000000000000000000000000000000000000000073ffffffffffffffffffffffffffffffffffffffff166379cc679033836040518363ffffffff1660e01b8152600401612ad4929190614af3565b600060405180830381600087803b158015612aef5760006000fd5b505af1158015612b04573d600060003e3d6000fd5b505050505b6000841115612b6557612b647f0000000000000000000000000000000000000000000000000000000000000000337f00000000000000000000000000000000000000000000000000000000000000008761382d63ffffffff16565b5b6000831115612bfe577f000000000000000000000000000000000000000000000000000000000000000073ffffffffffffffffffffffffffffffffffffffff16636250216933856040518363ffffffff1660e01b8152600401612bc9929190614af3565b600060405180830381600087803b158015612be45760006000fd5b505af1158015612bf9573d600060003e3d6000fd5b505050505b8567ffffffffffffffff167fdbaad0966fb140906c77f54a38b3e1ce6c60e87527bbc4ee0b9ad893e3de453b838387878c604001518d60200151604051612c4a9695949392919061520f565b60405180910390a250505b5050505050565b612c64614205565b6000851415612c9b578660000151816000019090818152602001505086606001518160200190908181526020015050809050612e50565b6000612cd68767ffffffffffffffff16603c6301e13380612cbc9190614eba565b67ffffffffffffffff16886139c19092919063ffffffff16565b9050600085612cff57612cfa82670de0b6b3a7640000613b0090919063ffffffff16565b612d1b565b612d1a82670de0b6b3a7640000613caa90919063ffffffff16565b5b9050612d34818a6060015161380790919063ffffffff16565b8360200190908181526020015050612d6383602001518a606001518b600001516139c19092919063ffffffff16565b8360000190908181526020015050886000015183600001511115612dde57600089600001518460000151612d9791906151b1565b9050612dac858261380790919063ffffffff16565b8460600190908181526020015050836060015181612dca91906151b1565b846040019090818152602001505050612e4d565b886000015183600001511015612e4c57600083600001518a60000151612e0491906151b1565b90508581101515612e3a578960000151846000019090818152602001505089606001518460200190908181526020015050612e4a565b8084608001909081815260200150505b505b5b50505b9695505050505050565b6000612e6a613e5963ffffffff16565b9050600660049054906101000a900467ffffffffffffffff1667ffffffffffffffff168167ffffffffffffffff16111515612ea55750613698565b6000600660049054906101000a900467ffffffffffffffff1682612ec99190614ee8565b905060007f000000000000000000000000000000000000000000000000000000000000000073ffffffffffffffffffffffffffffffffffffffff166306ef2d806040518163ffffffff1660e01b8152600401608060405180830381865afa158015612f39573d600060003e3d6000fd5b505050506040513d601f19601f82011682018060405250810190612f5d9190615055565b905060007f000000000000000000000000000000000000000000000000000000000000000073ffffffffffffffffffffffffffffffffffffffff166343f48fbd6040518163ffffffff1660e01b8152600401602060405180830381865afa158015612fcd573d600060003e3d6000fd5b505050506040513d601f19601f82011682018060405250810190612ff19190615244565b9050600061317b83858473ffffffffffffffffffffffffffffffffffffffff1663a0fc0eda6040518163ffffffff1660e01b8152600401602060405180830381865afa158015613046573d600060003e3d6000fd5b505050506040513d601f19601f8201168201806040525081019061306a919061526d565b8573ffffffffffffffffffffffffffffffffffffffff16636d7fa6646040518163ffffffff1660e01b8152600401602060405180830381865afa1580156130b6573d600060003e3d6000fd5b505050506040513d601f19601f820116820180604052508101906130da9190614b89565b7f000000000000000000000000000000000000000000000000000000000000000073ffffffffffffffffffffffffffffffffffffffff166375172a8b6040518163ffffffff1660e01b8152600401602060405180830381865afa158015613146573d600060003e3d6000fd5b505050506040513d601f19601f8201168201806040525081019061316a919061526d565b600560005054612c5c63ffffffff16565b90506000603c6201518061318f9190614eba565b67ffffffffffffffff166132478667ffffffffffffffff167f000000000000000000000000000000000000000000000000000000000000000073ffffffffffffffffffffffffffffffffffffffff1663a5d4198b6040518163ffffffff1660e01b81526004016020604051808303816000875af1158015613215573d600060003e3d6000fd5b505050506040513d601f19601f82011682018060405250810190613239919061526d565b613e7f90919063ffffffff16565b613251919061528b565b905060405180608001604052808360000151815260200161327f838760200151613caa90919063ffffffff16565b81526020016132bb6132a88867ffffffffffffffff168860000151613e7f90919063ffffffff16565b8760400151613caa90919063ffffffff16565b81526020018360200151815260200150935083507f000000000000000000000000000000000000000000000000000000000000000073ffffffffffffffffffffffffffffffffffffffff166378efc6b0856040518263ffffffff1660e01b815260040161332891906152a9565b600060405180830381600087803b1580156133435760006000fd5b505af1158015613358573d600060003e3d6000fd5b5050505085600660046101000a81548167ffffffffffffffff021916908367ffffffffffffffff1602179055506000826060015111156134d7577f000000000000000000000000000000000000000000000000000000000000000073ffffffffffffffffffffffffffffffffffffffff16632c73f09e83606001516040518263ffffffff1660e01b81526004016133ef9190614906565b600060405180830381600087803b15801561340a5760006000fd5b505af115801561341f573d600060003e3d6000fd5b505050507f000000000000000000000000000000000000000000000000000000000000000073ffffffffffffffffffffffffffffffffffffffff1663449a52f87f000000000000000000000000000000000000000000000000000000000000000084606001516040518363ffffffff1660e01b81526004016134a2929190614af3565b600060405180830381600087803b1580156134bd5760006000fd5b505af11580156134d2573d600060003e3d6000fd5b505050505b600082604001511115613598577f000000000000000000000000000000000000000000000000000000000000000073ffffffffffffffffffffffffffffffffffffffff1663449a52f87f000000000000000000000000000000000000000000000000000000000000000084604001516040518363ffffffff1660e01b8152600401613563929190614af3565b600060405180830381600087803b15801561357e5760006000fd5b505af1158015613593573d600060003e3d6000fd5b505050505b600082608001511115613637577f000000000000000000000000000000000000000000000000000000000000000073ffffffffffffffffffffffffffffffffffffffff1663c59fb1ab83608001516040518263ffffffff1660e01b81526004016136029190614906565b600060405180830381600087803b15801561361d5760006000fd5b505af1158015613632573d600060003e3d6000fd5b505050505b8567ffffffffffffffff167fdfc2183705a66b49f12c66a6d3b2fa5cf3b7c67086e9c6e90d144befc94f436c8686600001518760200151886040015189606001516040516136899594939291906152da565b60405180910390a25050505050505b565b600060007f000000000000000000000000000000000000000000000000000000000000000073ffffffffffffffffffffffffffffffffffffffff16637f250c616040518163ffffffff1660e01b8152600401602060405180830381865afa15801561370a573d600060003e3d6000fd5b505050506040513d601f19601f8201168201806040525081019061372e919061526d565b905060007f000000000000000000000000000000000000000000000000000000000000000073ffffffffffffffffffffffffffffffffffffffff166318160ddd6040518163ffffffff1660e01b8152600401602060405180830381865afa15801561379e573d600060003e3d6000fd5b505050506040513d601f19601f820116820180604052508101906137c2919061526d565b905060008114806137d35750600082145b6137ef576137ea828261399b90919063ffffffff16565b6137f9565b670de0b6b3a76400005b925050506138045650505b90565b60006138228383670de0b6b3a76400006139c163ffffffff16565b905080505b92915050565b6138b6846323b872dd60e01b85858560405160240161384e93929190615312565b604051602081830303815290604052907bffffffffffffffffffffffffffffffffffffffffffffffffffffffff19166020820180517bffffffffffffffffffffffffffffffffffffffffffffffffffffffff8381831617835250505050613e9a63ffffffff16565b5b50505050565b600260026000505414151515613908576040517f08c379a00000000000000000000000000000000000000000000000000000000081526004016138ff9061534c565b60405180910390fd5b600260026000508190909055505b565b600160026000508190909055505b565b60007f80000000000000000000000000000000000000000000000000000000000000008210151561398e576040517f08c379a00000000000000000000000000000000000000000000000000000000081526004016139859061538b565b60405180910390fd5b819050613996565b919050565b60006139b683670de0b6b3a7640000846139c163ffffffff16565b905080505b92915050565b6000600060006000198587098587029250828110838203039150506000811415613a04576000841115156139f55760006000fd5b83820492508292505050613ade565b8084111515613a135760006000fd5b60008486880990508281118203915080830392506000856001877fffffffffffffffffffffffffffffffffffffffffffffffffffffffffffffffff030116905080508086049550808404935060018182600003040190508083028417935083506000600287600302189050808702600203810290508050808702600203810290508050808702600203810290508050808702600203810290508050808702600203810290508050808702600203810290508050808502955085505084945050505050613ade56505050505b9392505050565b60008183613af39190614ee8565b9050613afa565b92915050565b60008183613b0e91906151b1565b9050613b15565b92915050565b6000613b2e42611aba909063ffffffff16565b905080505b90565b6000613b46613b1b63ffffffff16565b9050805060007f000000000000000000000000000000000000000000000000000000000000000073ffffffffffffffffffffffffffffffffffffffff1663585690816040518163ffffffff1660e01b8152600401602060405180830381865afa158015613bb8573d600060003e3d6000fd5b505050506040513d601f19601f82011682018060405250810190613bdc9190614d55565b905060008167ffffffffffffffff16118015613c0b57508167ffffffffffffffff168167ffffffffffffffff16105b15613c165780915081505b505b90565b6000613c857f00000000000000000000000000000000000000000000000000000000000000007f000000000000000000000000000000000000000000000000000000000000000084613c6d9190614eba565b67ffffffffffffffff16613ae590919063ffffffff16565b905080505b919050565b60008183613c9d91906153ca565b9050613ca4565b92915050565b60008183613cb8919061548d565b9050613cbf565b92915050565b60007f000000000000000000000000000000000000000000000000000000000000000073ffffffffffffffffffffffffffffffffffffffff1663d3419bf36040518163ffffffff1660e01b8152600401602060405180830381865afa158015613d33573d600060003e3d6000fd5b505050506040513d601f19601f82011682018060405250810190613d5791906154ad565b73ffffffffffffffffffffffffffffffffffffffff1663fa42dcf4600660009054906101000a900463ffffffff166040518263ffffffff1660e01b8152600401613da19190614798565b602060405180830381865afa158015613dbf573d600060003e3d6000fd5b505050506040513d601f19601f82011682018060405250810190613de3919061526d565b9050613dfd83600360005054613e7f90919063ffffffff16565b613e108284613e7f90919063ffffffff16565b10151515613e53576040517f08c379a0000000000000000000000000000000000000000000000000000000008152600401613e4a906154d6565b60405180910390fd5b505b5050565b6000613e77613e6c613b3663ffffffff16565b613c1b63ffffffff16565b905080505b90565b60008183613e8d9190615515565b9050613e94565b92915050565b6000613eff826040518060400160405280602081526020017f5361666545524332303a206c6f772d6c6576656c2063616c6c206661696c65648152602001508573ffffffffffffffffffffffffffffffffffffffff16613f679092919063ffffffff16565b9050600081511115613f615780806020019051810190613f1f9190614b89565b1515613f60576040517f08c379a0000000000000000000000000000000000000000000000000000000008152600401613f579061555a565b60405180910390fd5b5b505b5050565b6060613f7c8484600085613f8a63ffffffff16565b9050613f83565b9392505050565b6060824710151515613fd1576040517f08c379a0000000000000000000000000000000000000000000000000000000008152600401613fc8906155bf565b60405180910390fd5b613fe0856140b663ffffffff16565b1515614021576040517f08c379a000000000000000000000000000000000000000000000000000000000815260040161401890615624565b60405180910390fd5b600060008673ffffffffffffffffffffffffffffffffffffffff16858760405161404b9190615698565b60006040518083038185875af1925050503d8060008114614088576040519150601f19603f3d011682016040523d82523d6000602084013e61408d565b606091505b50915091506140a38282866140df63ffffffff16565b925050506140ae5650505b949350505050565b600060008273ffffffffffffffffffffffffffffffffffffffff163b1190506140da565b919050565b606083156140f35782905061414a56614149565b60008351111561410b5782518084602001fd50614148565b816040517f08c379a000000000000000000000000000000000000000000000000000000000815260040161413f91906156b7565b60405180910390fd5b5b5b9392505050565b604051806101a001604052806000815260200160008152602001600081526020016000815260200160008152602001600067ffffffffffffffff168152602001600067ffffffffffffffff168152602001600060020b8152602001600015158152602001600067ffffffffffffffff168152602001600063ffffffff168152602001600073ffffffffffffffffffffffffffffffffffffffff168152602001600067ffffffffffffffff1681526020015090565b6040518060a00160405280600081526020016000815260200160008152602001600081526020016000815260200150905661570b565b600060405190506101a0810181811067ffffffffffffffff8211171561428a577f4e487b7100000000000000000000000000000000000000000000000000000000600052604160045260246000fd5b80604052505b90565b600060405190506101a0810181811067ffffffffffffffff821117156142e2577f4e487b7100000000000000000000000000000000000000000000000000000000600052604160045260246000fd5b80604052505b90565b67ffffffffffffffff8116811415156143045760006000fd5b505b565b600081359050614317816142eb565b5b919050565b8060020b8114151561432f5760006000fd5b505b565b6000813590506143428161431d565b5b919050565b801515811415156143595760006000fd5b505b565b60008135905061436c81614348565b5b919050565b63ffffffff8116811415156143875760006000fd5b505b565b60008135905061439a81614372565b5b919050565b73ffffffffffffffffffffffffffffffffffffffff8116811415156143c55760006000fd5b505b565b6000813590506143d8816143a0565b5b919050565b6000608082840312156143f15760006000fd5b6040516080810181811067ffffffffffffffff8211171561443b577f4e487b7100000000000000000000000000000000000000000000000000000000600052604160045260246000fd5b806040525080915082358152602083013560208201526040830135604082015260608301356060820152505b92915050565b6000600060008385036102408112156144865760006000fd5b6101a0808212156144975760006000fd5b61449f61423b565b915085358252602086013560208301526040860135604083015260608601356060830152608086013560808301526144d960a08701614308565b60a08301526144ea60c08701614308565b60c08301526144fb60e08701614333565b60e083015261010061450e81880161435d565b8184015250610120614521818801614308565b818401525061014061453481880161438b565b81840152506101606145478188016143c9565b818401525061018061455a818801614308565b818401525081945061456e878288016143de565b9350505061457f6102208501614308565b90505b9250925092565b67ffffffffffffffff8116825250505b565b8060020b825250505b565b801515825250505b565b63ffffffff8116825250505b565b73ffffffffffffffffffffffffffffffffffffffff8116825250505b565b805182526020810151602083015260408101516040830152606081015160608301526080810151608083015260a081015161461a60a0840182614589565b5060c081015161462d60c0840182614589565b5060e081015161464060e084018261459b565b5061010080820151614654828501826145a6565b50506101208082015161466982850182614589565b50506101408082015161467e828501826145b0565b505061016080820151614693828501826145be565b5050610180808201516146a882850182614589565b505050505b565b60006101c0820190506146c282856145dc565b826101a08301525b9392505050565b600060208201905067ffffffffffffffff831682525b92915050565b6000602082840312156147005760006000fd5b813590505b92915050565b600060208201905073ffffffffffffffffffffffffffffffffffffffff831682525b92915050565b6000602082840312156147465760006000fd5b81357fffffffff000000000000000000000000000000000000000000000000000000008116811415156147795760006000fd5b809150505b92915050565b600060208201905082151582525b92915050565b600060208201905063ffffffff831682525b92915050565b600060208201905073ffffffffffffffffffffffffffffffffffffffff831682525b92915050565b6000600060006000600060a086880312156147f35760006000fd5b85356147fe816142eb565b80955050602086013593506040860135925060608601359150608086013561482581614372565b809150505b9295509295909350565b600060208201905073ffffffffffffffffffffffffffffffffffffffff831682525b92915050565b600060006000600060006000610120878903121561487a5760006000fd5b61488488886143de565b95506080870135614894816142eb565b8095505060a0870135935060c08701356148ad81614348565b8093505060e0870135915061010087013590505b9295509295509295565b600060a08201905082518252602083015160208301526040830151604083015260608301516060830152608083015160808301525b92915050565b60006020820190508282525b92915050565b600060208201905073ffffffffffffffffffffffffffffffffffffffff831682525b92915050565b600060208201905073ffffffffffffffffffffffffffffffffffffffff831682525b92915050565b60006020828403121561497b5760006000fd5b8135614986816142eb565b809150505b92915050565b6000602082840312156149a45760006000fd5b81356149af81614372565b809150505b92915050565b600060208201905073ffffffffffffffffffffffffffffffffffffffff831682525b92915050565b600060208201905073ffffffffffffffffffffffffffffffffffffffff831682525b92915050565b60006000600060608486031215614a215760006000fd5b83359250602084013591506040840135614a3a81614372565b809150505b9250925092565b60006101a082019050614a5982846145dc565b5b92915050565b60006000600060408486031215614a775760006000fd5b833567ffffffffffffffff80821115614a905760006000fd5b818601915086601f8301121515614aa75760006000fd5b813581811115614ab75760006000fd5b8760208260051b8501011115614acd5760006000fd5b6020830195508094505050506020840135614ae781614372565b809150505b9250925092565b600060408201905073ffffffffffffffffffffffffffffffffffffffff841682528260208301525b9392505050565b60006040820190508382528260208301525b9392505050565b600060408201905073ffffffffffffffffffffffffffffffffffffffff8416825267ffffffffffffffff831660208301525b9392505050565b600081519050614b8381614348565b5b919050565b600060208284031215614b9c5760006000fd5b8151614ba781614348565b809150505b92915050565b600081519050614bc1816142eb565b5b919050565b600081519050614bd68161431d565b5b919050565b600081519050614beb81614372565b5b919050565b600081519050614c00816143a0565b5b919050565b60006101a08284031215614c1a5760006000fd5b614c22614293565b8251815260208301516020820152604083015160408201526060830151606082015260808301516080820152614c5a60a08401614bb2565b60a0820152614c6b60c08401614bb2565b60c0820152614c7c60e08401614bc7565b60e0820152610100614c8f818501614b74565b8183015250610120614ca2818501614bb2565b8183015250610140614cb5818501614bdc565b8183015250610160614cc8818501614bf1565b8183015250610180614cdb818501614bb2565b8183015250809150505b92915050565b60006101c08201905067ffffffffffffffff84168252614d0e60208301846145dc565b5b9392505050565b60208152601360208201527f4d7573742061646420636f6c6c61746572616c00000000000000000000000000604082015260006060820190505b919050565b600060208284031215614d685760006000fd5b8151614d73816142eb565b809150505b92915050565b60006101c08201905067ffffffffffffffff84168252614da160208301846145dc565b5b9392505050565b7f4e487b7100000000000000000000000000000000000000000000000000000000600052603260045260246000fd5b565b7f4e487b7100000000000000000000000000000000000000000000000000000000600052601160045260246000fd5b565b60007fffffffffffffffffffffffffffffffffffffffffffffffffffffffffffffffff821415614e3e57614e3d614dda565b5b6001820190505b919050565b60208152601160208201527f6d6f7265207468616e2036342062697473000000000000000000000000000000604082015260006060820190505b919050565b7f4e487b7100000000000000000000000000000000000000000000000000000000600052601260045260246000fd5b565b600067ffffffffffffffff808416801515614ed857614ed7614e89565b5b8082851604925050505b92915050565b600067ffffffffffffffff808316818516915081811015614f0c57614f0b614dda565b5b818103925050505b92915050565b60208152600d60208201527f4c50205265656e7472616e637900000000000000000000000000000000000000604082015260006060820190505b919050565b60208152601360208201527f436f6e74726163742069732073746f7070656400000000000000000000000000604082015260006060820190505b919050565b60208152600460208201527f4e6f6f7000000000000000000000000000000000000000000000000000000000604082015260006060820190505b919050565b60208152601160208201527f50726f746f636f6c2073687574646f776e000000000000000000000000000000604082015260006060820190505b919050565b60208152600e60208201527f4e6f7420417574686f72697a6564000000000000000000000000000000000000604082015260006060820190505b919050565b6000608082840312156150685760006000fd5b6040516080810181811067ffffffffffffffff821117156150b2577f4e487b7100000000000000000000000000000000000000000000000000000000600052604160045260246000fd5b806040525082518152602083015160208201526040830151604082015260608301516060820152809150505b92915050565b6000602082840312156150f75760006000fd5b8151615102816143a0565b809150505b92915050565b60208152602360208201527f43616e7420696e637265617365202620646563726561736520636f6c6c61746560408201527f72616c0000000000000000000000000000000000000000000000000000000000606082015260006080820190505b919050565b60208152600f60208201527f4e6f20666c61736820626f72726f770000000000000000000000000000000000604082015260006060820190505b919050565b6000828210156151c4576151c3614dda565b5b82820390505b92915050565b60208152601260208201527f506f736974696f6e20746f6f20736d616c6c0000000000000000000000000000604082015260006060820190505b919050565b600060c0820190508782528660208301528560408301528460608301528360808301528260a08301525b979650505050505050565b6000602082840312156152575760006000fd5b8151615262816143a0565b809150505b92915050565b6000602082840312156152805760006000fd5b815190505b92915050565b600082151561529d5761529c614e89565b5b82820490505b92915050565b6000608082019050825182526020830151602083015260408301516040830152606083015160608301525b92915050565b600060a08201905067ffffffffffffffff871682528560208301528460408301528360608301528260808301525b9695505050505050565b600060608201905073ffffffffffffffffffffffffffffffffffffffff80861683528085166020840152508260408301525b949350505050565b60208152600d60208201527f4c43205265656e7472616e637900000000000000000000000000000000000000604082015260006060820190505b919050565b60208152601260208201527f746f6f2062696720666f7220696e743235360000000000000000000000000000604082015260006060820190505b919050565b60007f7fffffffffffffffffffffffffffffffffffffffffffffffffffffffffffffff60008413600084138583048511828216161561540c5761540b614dda565b5b7f8000000000000000000000000000000000000000000000000000000000000000600087128682058812818416161561544857615447614dda565b5b6000871292508782058712848416161561546557615464614dda565b5b8785058712818416161561547c5761547b614dda565b5b505050505082820290505b92915050565b600082198211156154a1576154a0614dda565b5b82820190505b92915050565b6000602082840312156154c05760006000fd5b81516154cb816143a0565b809150505b92915050565b60208152601760208201527f496e73756666696369656e7420636f6c6c61746572616c000000000000000000604082015260006060820190505b919050565b6000817fffffffffffffffffffffffffffffffffffffffffffffffffffffffffffffffff048311821515161561554e5761554d614dda565b5b82820290505b92915050565b60208152602a60208201527f5361666545524332303a204552433230206f7065726174696f6e20646964206e60408201527f6f74207375636365656400000000000000000000000000000000000000000000606082015260006080820190505b919050565b60208152602660208201527f416464726573733a20696e73756666696369656e742062616c616e636520666f60408201527f722063616c6c0000000000000000000000000000000000000000000000000000606082015260006080820190505b919050565b60208152601d60208201527f416464726573733a2063616c6c20746f206e6f6e2d636f6e7472616374000000604082015260006060820190505b919050565b60005b838110156156825780820151818401525b602081019050615666565b83811115615691576000848401525b505050505b565b600082516156aa818460208701615663565b8083019150505b92915050565b60208152600082518060208401526156d6816040850160208701615663565b60407fffffffffffffffffffffffffffffffffffffffffffffffffffffffffffffffe0601f8301168401019150505b92915050565bfea2646970667358221220362b1f3d8f53b7c1d55f39e479d47d66ae7be3efe82163f0b5164f5ac702af2564736f6c634300080c0033",
  "linkReferences": {},
  "deployedLinkReferences": {}
}