{
  "_format": "hh-sol-artifact-1",
  "contractName": "MarketTestable",
  "sourceName": "contracts/core/mocks/MarketTestable.sol",
  "abi": [
    {
      "inputs": [
        {
          "components": [
            {
              "internalType": "contract IGovernor",
              "name": "Governor",
              "type": "address"
            },
            {
              "internalType": "contract IProtocolLock",
              "name": "ProtocolLock",
              "type": "address"
            },
            {
              "internalType": "contract IPositionNFT",
              "name": "HuePositionNFT",
              "type": "address"
            },
            {
              "internalType": "contract IHue",
              "name": "Hue",
              "type": "address"
            },
            {
              "internalType": "contract ILendHue",
              "name": "LendHue",
              "type": "address"
            },
            {
              "internalType": "contract IAccounting",
              "name": "Accounting",
              "type": "address"
            }
          ],
          "internalType": "struct IMarket.ConstructorParams",
          "name": "params",
          "type": "tuple"
        }
      ],
      "stateMutability": "nonpayable",
      "type": "constructor"
    },
    {
      "anonymous": false,
      "inputs": [
        {
          "indexed": false,
          "internalType": "uint256",
          "name": "requirement",
          "type": "uint256"
        }
      ],
      "name": "CollateralizationRequirementUpdated",
      "type": "event"
    },
    {
      "anonymous": false,
      "inputs": [
        {
          "indexed": true,
          "internalType": "uint64",
          "name": "period",
          "type": "uint64"
        },
        {
          "indexed": false,
          "internalType": "uint64",
          "name": "periods",
          "type": "uint64"
        },
        {
          "indexed": false,
          "internalType": "uint256",
          "name": "newDebt",
          "type": "uint256"
        },
        {
          "indexed": false,
          "internalType": "uint256",
          "name": "rewardCount",
          "type": "uint256"
        },
        {
          "indexed": false,
          "internalType": "uint256",
          "name": "cumulativeDebt",
          "type": "uint256"
        },
        {
          "indexed": false,
          "internalType": "uint256",
          "name": "debtExchangeRate",
          "type": "uint256"
        }
      ],
      "name": "InterestAccrued",
      "type": "event"
    },
    {
      "anonymous": false,
      "inputs": [
        {
          "indexed": false,
          "internalType": "uint256",
          "name": "percentage",
          "type": "uint256"
        }
      ],
      "name": "InterestPortionToLendersUpdated",
      "type": "event"
    },
    {
      "anonymous": false,
      "inputs": [
        {
          "indexed": true,
          "internalType": "address",
          "name": "account",
          "type": "address"
        },
        {
          "indexed": false,
          "internalType": "uint256",
          "name": "hueCount",
          "type": "uint256"
        },
        {
          "indexed": false,
          "internalType": "uint256",
          "name": "lendTokenCount",
          "type": "uint256"
        }
      ],
      "name": "Lend",
      "type": "event"
    },
    {
      "anonymous": false,
      "inputs": [
        {
          "indexed": false,
          "internalType": "uint256",
          "name": "size",
          "type": "uint256"
        }
      ],
      "name": "MinPositionSizeUpdated",
      "type": "event"
    },
    {
      "anonymous": false,
      "inputs": [
        {
          "indexed": true,
          "internalType": "uint64",
          "name": "positionID",
          "type": "uint64"
        },
        {
          "indexed": false,
          "internalType": "uint256",
          "name": "debtIncrease",
          "type": "uint256"
        },
        {
          "indexed": false,
          "internalType": "uint256",
          "name": "debtDecrease",
          "type": "uint256"
        },
        {
          "indexed": false,
          "internalType": "uint256",
          "name": "collateralIncrease",
          "type": "uint256"
        },
        {
          "indexed": false,
          "internalType": "uint256",
          "name": "collateralDecrease",
          "type": "uint256"
        },
        {
          "indexed": false,
          "internalType": "uint256",
          "name": "newDebt",
          "type": "uint256"
        },
        {
          "indexed": false,
          "internalType": "uint256",
          "name": "newCollateral",
          "type": "uint256"
        }
      ],
      "name": "PositionAdjusted",
      "type": "event"
    },
    {
      "anonymous": false,
      "inputs": [
        {
          "indexed": true,
          "internalType": "address",
          "name": "creator",
          "type": "address"
        },
        {
          "indexed": true,
          "internalType": "uint64",
          "name": "positionID",
          "type": "uint64"
        },
        {
          "indexed": false,
          "internalType": "uint256",
          "name": "initialDebt",
          "type": "uint256"
        }
      ],
      "name": "PositionCreated",
      "type": "event"
    },
    {
      "anonymous": false,
      "inputs": [
        {
          "indexed": true,
          "internalType": "uint256",
          "name": "positionID",
          "type": "uint256"
        },
        {
          "indexed": true,
          "internalType": "uint64",
          "name": "period",
          "type": "uint64"
        },
        {
          "indexed": false,
          "internalType": "uint256",
          "name": "debtAfter",
          "type": "uint256"
        },
        {
          "indexed": false,
          "internalType": "uint256",
          "name": "tcpRewards",
          "type": "uint256"
        }
      ],
      "name": "PositionUpdated",
      "type": "event"
    },
    {
      "anonymous": false,
      "inputs": [
        {
          "indexed": true,
          "internalType": "address",
          "name": "account",
          "type": "address"
        },
        {
          "indexed": true,
          "internalType": "bool",
          "name": "isKickback",
          "type": "bool"
        },
        {
          "indexed": false,
          "internalType": "uint256",
          "name": "tcpRewards",
          "type": "uint256"
        }
      ],
      "name": "RewardsDistributed",
      "type": "event"
    },
    {
      "anonymous": false,
      "inputs": [],
      "name": "Stopped",
      "type": "event"
    },
    {
      "anonymous": false,
      "inputs": [
        {
          "indexed": false,
          "internalType": "uint32",
          "name": "duration",
          "type": "uint32"
        }
      ],
      "name": "TwapDurationUpdated",
      "type": "event"
    },
    {
      "anonymous": false,
      "inputs": [
        {
          "indexed": true,
          "internalType": "address",
          "name": "account",
          "type": "address"
        },
        {
          "indexed": false,
          "internalType": "uint256",
          "name": "hueCount",
          "type": "uint256"
        },
        {
          "indexed": false,
          "internalType": "uint256",
          "name": "lendTokenCount",
          "type": "uint256"
        }
      ],
      "name": "Unlend",
      "type": "event"
    },
    {
      "inputs": [],
      "name": "accounting",
      "outputs": [
        {
          "internalType": "contract IAccounting",
          "name": "",
          "type": "address"
        }
      ],
      "stateMutability": "view",
      "type": "function"
    },
    {
      "inputs": [],
      "name": "accrueInterest",
      "outputs": [],
      "stateMutability": "nonpayable",
      "type": "function"
    },
    {
      "inputs": [
        {
          "internalType": "uint64",
          "name": "positionID",
          "type": "uint64"
        },
        {
          "internalType": "int256",
          "name": "debtChange",
          "type": "int256"
        },
        {
          "internalType": "uint256",
          "name": "collateralDecrease",
          "type": "uint256"
        },
        {
          "internalType": "uint32",
          "name": "ui",
          "type": "uint32"
        }
      ],
      "name": "adjustPosition",
      "outputs": [],
      "stateMutability": "payable",
      "type": "function"
    },
    {
      "inputs": [
        {
          "components": [
            {
              "internalType": "uint256",
              "name": "debt",
              "type": "uint256"
            },
            {
              "internalType": "uint256",
              "name": "totalTCPRewards",
              "type": "uint256"
            },
            {
              "internalType": "uint256",
              "name": "cumulativeDebt",
              "type": "uint256"
            },
            {
              "internalType": "uint256",
              "name": "debtExchangeRate",
              "type": "uint256"
            }
          ],
          "internalType": "struct IAccounting.SystemDebtInfo",
          "name": "sdi",
          "type": "tuple"
        },
        {
          "internalType": "uint64",
          "name": "periods",
          "type": "uint64"
        },
        {
          "internalType": "uint256",
          "name": "annualInterestRate",
          "type": "uint256"
        },
        {
          "internalType": "bool",
          "name": "positiveInterestRate",
          "type": "bool"
        },
        {
          "internalType": "uint256",
          "name": "reserves",
          "type": "uint256"
        },
        {
          "internalType": "uint256",
          "name": "_interestPortionToLenders",
          "type": "uint256"
        }
      ],
      "name": "calculateInterest",
      "outputs": [
        {
          "components": [
            {
              "internalType": "uint256",
              "name": "newDebt",
              "type": "uint256"
            },
            {
              "internalType": "uint256",
              "name": "newExchangeRate",
              "type": "uint256"
            },
            {
              "internalType": "uint256",
              "name": "additionalReserves",
              "type": "uint256"
            },
            {
              "internalType": "uint256",
              "name": "additionalLends",
              "type": "uint256"
            },
            {
              "internalType": "uint256",
              "name": "reducedReserves",
              "type": "uint256"
            }
          ],
          "internalType": "struct IMarket.CalculatedInterestInfo",
          "name": "cii",
          "type": "tuple"
        }
      ],
      "stateMutability": "pure",
      "type": "function"
    },
    {
      "inputs": [
        {
          "internalType": "uint64[]",
          "name": "positionIDs",
          "type": "uint64[]"
        },
        {
          "internalType": "uint32",
          "name": "ui",
          "type": "uint32"
        }
      ],
      "name": "claimAllRewards",
      "outputs": [],
      "stateMutability": "nonpayable",
      "type": "function"
    },
    {
      "inputs": [],
      "name": "collateralizationRequirement",
      "outputs": [
        {
          "internalType": "uint256",
          "name": "",
          "type": "uint256"
        }
      ],
      "stateMutability": "view",
      "type": "function"
    },
    {
      "inputs": [
        {
          "internalType": "uint256",
          "name": "initialDebt",
          "type": "uint256"
        },
        {
          "internalType": "uint32",
          "name": "ui",
          "type": "uint32"
        }
      ],
      "name": "createPosition",
      "outputs": [
        {
          "internalType": "uint64",
          "name": "positionID",
          "type": "uint64"
        }
      ],
      "stateMutability": "payable",
      "type": "function"
    },
    {
      "inputs": [],
      "name": "currentPeriod",
      "outputs": [
        {
          "internalType": "uint64",
          "name": "period",
          "type": "uint64"
        }
      ],
      "stateMutability": "view",
      "type": "function"
    },
    {
      "inputs": [],
      "name": "deployer",
      "outputs": [
        {
          "internalType": "address",
          "name": "",
          "type": "address"
        }
      ],
      "stateMutability": "view",
      "type": "function"
    },
    {
      "inputs": [],
      "name": "firstPeriod",
      "outputs": [
        {
          "internalType": "uint64",
          "name": "",
          "type": "uint64"
        }
      ],
      "stateMutability": "view",
      "type": "function"
    },
    {
      "inputs": [],
      "name": "governor",
      "outputs": [
        {
          "internalType": "contract IGovernor",
          "name": "",
          "type": "address"
        }
      ],
      "stateMutability": "view",
      "type": "function"
    },
    {
      "inputs": [],
      "name": "hue",
      "outputs": [
        {
          "internalType": "contract IHue",
          "name": "",
          "type": "address"
        }
      ],
      "stateMutability": "view",
      "type": "function"
    },
    {
      "inputs": [],
      "name": "huePositionNFT",
      "outputs": [
        {
          "internalType": "contract IPositionNFT",
          "name": "",
          "type": "address"
        }
      ],
      "stateMutability": "view",
      "type": "function"
    },
    {
      "inputs": [],
      "name": "init",
      "outputs": [],
      "stateMutability": "nonpayable",
      "type": "function"
    },
    {
      "inputs": [],
      "name": "interestPortionToLenders",
      "outputs": [
        {
          "internalType": "uint256",
          "name": "",
          "type": "uint256"
        }
      ],
      "stateMutability": "view",
      "type": "function"
    },
    {
      "inputs": [],
      "name": "lastPeriodGlobalInterestAccrued",
      "outputs": [
        {
          "internalType": "uint64",
          "name": "",
          "type": "uint64"
        }
      ],
      "stateMutability": "view",
      "type": "function"
    },
    {
      "inputs": [
        {
          "internalType": "uint256",
          "name": "hueCount",
          "type": "uint256"
        }
      ],
      "name": "lend",
      "outputs": [],
      "stateMutability": "nonpayable",
      "type": "function"
    },
    {
      "inputs": [],
      "name": "lendHue",
      "outputs": [
        {
          "internalType": "contract ILendHue",
          "name": "",
          "type": "address"
        }
      ],
      "stateMutability": "view",
      "type": "function"
    },
    {
      "inputs": [],
      "name": "minPositionSize",
      "outputs": [
        {
          "internalType": "uint256",
          "name": "",
          "type": "uint256"
        }
      ],
      "stateMutability": "view",
      "type": "function"
    },
    {
      "inputs": [],
      "name": "periodLength",
      "outputs": [
        {
          "internalType": "uint64",
          "name": "",
          "type": "uint64"
        }
      ],
      "stateMutability": "view",
      "type": "function"
    },
    {
      "inputs": [
        {
          "internalType": "uint64",
          "name": "positionID",
          "type": "uint64"
        }
      ],
      "name": "removeKickback",
      "outputs": [],
      "stateMutability": "nonpayable",
      "type": "function"
    },
    {
      "inputs": [
        {
          "internalType": "uint256",
          "name": "requirement",
          "type": "uint256"
        }
      ],
      "name": "setCollateralizationRequirement",
      "outputs": [],
      "stateMutability": "nonpayable",
      "type": "function"
    },
    {
      "inputs": [
        {
          "internalType": "uint256",
          "name": "percentage",
          "type": "uint256"
        }
      ],
      "name": "setInterestPortionToLenders",
      "outputs": [],
      "stateMutability": "nonpayable",
      "type": "function"
    },
    {
      "inputs": [
        {
          "internalType": "uint256",
          "name": "size",
          "type": "uint256"
        }
      ],
      "name": "setMinPositionSize",
      "outputs": [],
      "stateMutability": "nonpayable",
      "type": "function"
    },
    {
      "inputs": [
        {
          "internalType": "uint32",
          "name": "duration",
          "type": "uint32"
        }
      ],
      "name": "setTwapDuration",
      "outputs": [],
      "stateMutability": "nonpayable",
      "type": "function"
    },
    {
      "inputs": [],
      "name": "stop",
      "outputs": [],
      "stateMutability": "nonpayable",
      "type": "function"
    },
    {
      "inputs": [],
      "name": "stopped",
      "outputs": [
        {
          "internalType": "bool",
          "name": "",
          "type": "bool"
        }
      ],
      "stateMutability": "view",
      "type": "function"
    },
    {
      "inputs": [
        {
          "internalType": "uint64",
          "name": "positionID",
          "type": "uint64"
        }
      ],
      "name": "systemGetUpdatedPosition",
      "outputs": [
        {
          "components": [
            {
              "internalType": "uint256",
              "name": "startCumulativeDebt",
              "type": "uint256"
            },
            {
              "internalType": "uint256",
              "name": "collateral",
              "type": "uint256"
            },
            {
              "internalType": "uint256",
              "name": "debt",
              "type": "uint256"
            },
            {
              "internalType": "uint256",
              "name": "startDebtExchangeRate",
              "type": "uint256"
            },
            {
              "internalType": "uint256",
              "name": "startTCPRewards",
              "type": "uint256"
            },
            {
              "internalType": "uint64",
              "name": "lastTimeUpdated",
              "type": "uint64"
            },
            {
              "internalType": "uint64",
              "name": "lastBorrowTime",
              "type": "uint64"
            },
            {
              "internalType": "int24",
              "name": "tick",
              "type": "int24"
            },
            {
              "internalType": "bool",
              "name": "tickSet",
              "type": "bool"
            },
            {
              "internalType": "uint64",
              "name": "tickIndex",
              "type": "uint64"
            },
            {
              "internalType": "uint32",
              "name": "ui",
              "type": "uint32"
            },
            {
              "internalType": "address",
              "name": "kickbackDestination",
              "type": "address"
            },
            {
              "internalType": "uint64",
              "name": "kickbackPortion",
              "type": "uint64"
            }
          ],
          "internalType": "struct IAccounting.DebtPosition",
          "name": "",
          "type": "tuple"
        }
      ],
      "stateMutability": "nonpayable",
      "type": "function"
    },
    {
      "inputs": [],
      "name": "twapDuration",
      "outputs": [
        {
          "internalType": "uint32",
          "name": "",
          "type": "uint32"
        }
      ],
      "stateMutability": "view",
      "type": "function"
    },
    {
      "inputs": [
        {
          "internalType": "uint256",
          "name": "lendTokenCount",
          "type": "uint256"
        }
      ],
      "name": "unlend",
      "outputs": [],
      "stateMutability": "nonpayable",
      "type": "function"
    },
    {
      "inputs": [
        {
          "components": [
            {
              "internalType": "uint256",
              "name": "startCumulativeDebt",
              "type": "uint256"
            },
            {
              "internalType": "uint256",
              "name": "collateral",
              "type": "uint256"
            },
            {
              "internalType": "uint256",
              "name": "debt",
              "type": "uint256"
            },
            {
              "internalType": "uint256",
              "name": "startDebtExchangeRate",
              "type": "uint256"
            },
            {
              "internalType": "uint256",
              "name": "startTCPRewards",
              "type": "uint256"
            },
            {
              "internalType": "uint64",
              "name": "lastTimeUpdated",
              "type": "uint64"
            },
            {
              "internalType": "uint64",
              "name": "lastBorrowTime",
              "type": "uint64"
            },
            {
              "internalType": "int24",
              "name": "tick",
              "type": "int24"
            },
            {
              "internalType": "bool",
              "name": "tickSet",
              "type": "bool"
            },
            {
              "internalType": "uint64",
              "name": "tickIndex",
              "type": "uint64"
            },
            {
              "internalType": "uint32",
              "name": "ui",
              "type": "uint32"
            },
            {
              "internalType": "address",
              "name": "kickbackDestination",
              "type": "address"
            },
            {
              "internalType": "uint64",
              "name": "kickbackPortion",
              "type": "uint64"
            }
          ],
          "internalType": "struct IAccounting.DebtPosition",
          "name": "_position",
          "type": "tuple"
        },
        {
          "components": [
            {
              "internalType": "uint256",
              "name": "debt",
              "type": "uint256"
            },
            {
              "internalType": "uint256",
              "name": "totalTCPRewards",
              "type": "uint256"
            },
            {
              "internalType": "uint256",
              "name": "cumulativeDebt",
              "type": "uint256"
            },
            {
              "internalType": "uint256",
              "name": "debtExchangeRate",
              "type": "uint256"
            }
          ],
          "internalType": "struct IAccounting.SystemDebtInfo",
          "name": "sdi",
          "type": "tuple"
        },
        {
          "internalType": "uint64",
          "name": "timeNow",
          "type": "uint64"
        }
      ],
      "name": "updatePositionImpl",
      "outputs": [
        {
          "components": [
            {
              "internalType": "uint256",
              "name": "startCumulativeDebt",
              "type": "uint256"
            },
            {
              "internalType": "uint256",
              "name": "collateral",
              "type": "uint256"
            },
            {
              "internalType": "uint256",
              "name": "debt",
              "type": "uint256"
            },
            {
              "internalType": "uint256",
              "name": "startDebtExchangeRate",
              "type": "uint256"
            },
            {
              "internalType": "uint256",
              "name": "startTCPRewards",
              "type": "uint256"
            },
            {
              "internalType": "uint64",
              "name": "lastTimeUpdated",
              "type": "uint64"
            },
            {
              "internalType": "uint64",
              "name": "lastBorrowTime",
              "type": "uint64"
            },
            {
              "internalType": "int24",
              "name": "tick",
              "type": "int24"
            },
            {
              "internalType": "bool",
              "name": "tickSet",
              "type": "bool"
            },
            {
              "internalType": "uint64",
              "name": "tickIndex",
              "type": "uint64"
            },
            {
              "internalType": "uint32",
              "name": "ui",
              "type": "uint32"
            },
            {
              "internalType": "address",
              "name": "kickbackDestination",
              "type": "address"
            },
            {
              "internalType": "uint64",
              "name": "kickbackPortion",
              "type": "uint64"
            }
          ],
          "internalType": "struct IAccounting.DebtPosition",
          "name": "position",
          "type": "tuple"
        },
        {
          "internalType": "uint256",
          "name": "rewards",
          "type": "uint256"
        }
      ],
      "stateMutability": "pure",
      "type": "function"
    },
    {
      "inputs": [
        {
          "internalType": "bytes4",
          "name": "",
          "type": "bytes4"
        }
      ],
      "name": "validUpdate",
      "outputs": [
        {
          "internalType": "bool",
          "name": "",
          "type": "bool"
        }
      ],
      "stateMutability": "view",
      "type": "function"
    },
    {
      "inputs": [
        {
          "internalType": "uint256",
          "name": "lendTokenCount",
          "type": "uint256"
        }
      ],
      "name": "valueOfLendTokensInHue",
      "outputs": [
        {
          "internalType": "uint256",
          "name": "",
          "type": "uint256"
        }
      ],
      "stateMutability": "view",
      "type": "function"
    }
  ],
  "bytecode": "0x610180604052600160026000509090556714d1120d7b160000600360005090905568056bc75e2d6310000060046000509090556702c68af0bb1400006005600050909055610708600660006101000a81548163ffffffff021916908363ffffffff160217905550348015620000745760006000fd5b50604051620064a8380380620064a883398181016040528101906200009a91906200059f565b5b805b610e105b816000015182602001515b815b8073ffffffffffffffffffffffffffffffffffffffff1660808173ffffffffffffffffffffffffffffffffffffffff1660601b815260140150505b508073ffffffffffffffffffffffffffffffffffffffff1660a08173ffffffffffffffffffffffffffffffffffffffff1660601b815260140150505b50506001816200013a620004f360201b60201c565b6200014691906200069b565b620001529190620006d4565b67ffffffffffffffff1660e08167ffffffffffffffff1660c01b815260080150508067ffffffffffffffff1660c08167ffffffffffffffff1660c01b815260080150505b50806040015173ffffffffffffffffffffffffffffffffffffffff166101008173ffffffffffffffffffffffffffffffffffffffff1660601b81526014015050806060015173ffffffffffffffffffffffffffffffffffffffff166101208173ffffffffffffffffffffffffffffffffffffffff1660601b81526014015050806080015173ffffffffffffffffffffffffffffffffffffffff166101408173ffffffffffffffffffffffffffffffffffffffff1660601b815260140150508060a0015173ffffffffffffffffffffffffffffffffffffffff166101608173ffffffffffffffffffffffffffffffffffffffff1660601b815260140150506000604051806080016040528063ef5e1cac60e01b7bffffffffffffffffffffffffffffffffffffffffffffffffffffffff19167bffffffffffffffffffffffffffffffffffffffffffffffffffffffff1916815260200163c433c80a60e01b7bffffffffffffffffffffffffffffffffffffffffffffffffffffffff19167bffffffffffffffffffffffffffffffffffffffffffffffffffffffff191681526020016306972dcd60e01b7bffffffffffffffffffffffffffffffffffffffffffffffffffffffff19167bffffffffffffffffffffffffffffffffffffffffffffffffffffffff19168152602001635a6127a960e01b7bffffffffffffffffffffffffffffffffffffffffffffffffffffffff19167bffffffffffffffffffffffffffffffffffffffffffffffffffffffff191681526020015090506000600090505b81506004811015620004a657600160016000506000848460048110151562000427577f4e487b7100000000000000000000000000000000000000000000000000000000600052603260045260246000fd5b60200201517bffffffffffffffffffffffffffffffffffffffffffffffffffffffff19167bffffffffffffffffffffffffffffffffffffffffffffffffffffffff1916815260200190815260200160002060006101000a81548160ff0219169083151502179055505b80806200049d9062000708565b915050620003d6565b50336006600c6101000a81548173ffffffffffffffffffffffffffffffffffffffff021916908373ffffffffffffffffffffffffffffffffffffffff160217905550505b505b5062000745565b60006200050d426200051560201b62001cb317909060201c565b905080505b90565b6000680100000000000000008210151562000567576040517f08c379a00000000000000000000000000000000000000000000000000000000081526004016200055e906200065c565b60405180910390fd5b81905062000570565b9190505662000744565b6000815190506001600160a01b03811681141515620005995760006000fd5b5b919050565b600060c08284031215620005b1578081fd5b60405160c081018181106001600160401b0382111715620005e057634e487b7160e01b83526041600452602483fd5b8060405250620005f0836200057a565b815262000600602084016200057a565b602082015262000613604084016200057a565b604082015262000626606084016200057a565b606082015262000639608084016200057a565b60808201526200064c60a084016200057a565b60a0820152809150505b92915050565b60208152601160208201527f6d6f7265207468616e2036342062697473000000000000000000000000000000604082015260006060820190505b919050565b60006001600160401b03808416801515620006c457634e487b7160e01b83526012600452602483fd5b8082851604925050505b92915050565b60006001600160401b03808316818516915081811015620006fa57620006f96200072c565b5b818103925050505b92915050565b600060001982141562000720576200071f6200072c565b5b6001820190505b919050565b634e487b7160e01b600052601160045260246000fd5b565b5b60805160601c60a05160601c60c05160c01c60e05160c01c6101005160601c6101205160601c6101405160601c6101605160601c615b72620009366000396000818161099001528181610e6b01528181610f6a01528181610ff3015281816110a501528181611300015281816113d60152818161167e0152818161172e0152818161188101528181611aaa01528181611b810152818161232a0152818161291101528181612a7001528181612be501528181612db201528181612de90152818161318f015281816135f2015281816136b50152818161378201526139c101526000818161090101528181610a9b015281816110d20152613a65015260008181610ca40152818161108301528181612c7d01528181612d16015281816133dc01528181613746015281816138070152818161384301526138c8015260008181610b2201528181610da3015281816111f50152818161123801528181611642015281816119e4015261257601526000818161152001528181611e790152613f0001526000818161154401528181611e9a0152613f21015260008181611f8f0152612114015260008181610872015281816117e801528181611ee8015281816121a7015281816124700152818161262301528181613233015281816134ba01528181613e1c0152613fc20152615b726000f3fe6080604052600436106102015760003560e01c80639624e83e1161011d578063c4e3a63b116100b0578063e1c7392a1161007f578063ed92182f11610064578063ed92182f14610736578063ef5e1cac14610760578063f6979f291461078a57610201565b8063e1c7392a146106e0578063eb6843ce146106f857610201565b8063c4e3a63b1461061e578063d2ca21151461064a578063d5f3948814610676578063e11c8762146106a257610201565b8063b2326b57116100ec578063b2326b5714610572578063b6ae213a1461059c578063bb8313c2146105c8578063c433c80a146105f457610201565b80639624e83e146104d8578063a6aa57ce14610504578063a6afed951461052e578063a89f51ae1461054657610201565b80632cae0269116101955780635658c012116101645780635658c0121461043a5780635a6127a91461046657806375f12b21146104905780637b809bdd146104bc57610201565b80632cae0269146103745780632e6c6f84146103a057806332374174146103d05780634ff34aca146103fc57610201565b80630c340a24116101d15780630c340a24146102b4578063113cf1ab146102e0578063197b1bf51461031e57806326d895451461034857610201565b8062b2a04414610207578063060406181461024657806306972dcd1461027257806307da68f51461029c57610201565b60006000fd5b3480156102145760006000fd5b5061022f600480360381019061022a9190614a20565b6107b6565b60405161023d9291906155ed565b60405180910390f35b3480156102535760006000fd5b5061025c6107e2565b60405161026991906156b8565b60405180910390f35b34801561027f5760006000fd5b5061029a60048036038101906102959190614c30565b6107fa565b005b3480156102a95760006000fd5b506102b2610850565b005b3480156102c15760006000fd5b506102ca610870565b6040516102d79190614fd8565b60405180910390f35b3480156102ed5760006000fd5b50610308600480360381019061030391906148a2565b610894565b6040516103159190614f9c565b60405180910390f35b34801561032b5760006000fd5b5061034660048036038101906103419190614c30565b6108b9565b005b3480156103555760006000fd5b5061035e610a83565b60405161036b91906156a0565b60405180910390f35b3480156103815760006000fd5b5061038a610a99565b6040516103979190615028565b60405180910390f35b6103ba60048036038101906103b59190614c68565b610abd565b6040516103c791906156b8565b60405180910390f35b3480156103dd5760006000fd5b506103e6610ca2565b6040516103f39190615000565b60405180910390f35b3480156104095760006000fd5b50610424600480360381019061041f9190614bc3565b610cc6565b6040516104319190615598565b60405180910390f35b3480156104475760006000fd5b50610450610cf3565b60405161045d9190615640565b60405180910390f35b3480156104735760006000fd5b5061048e60048036038101906104899190614c30565b610cfc565b005b34801561049d5760006000fd5b506104a6610d6f565b6040516104b39190614f9c565b60405180910390f35b6104d660048036038101906104d19190614d0e565b610d82565b005b3480156104e55760006000fd5b506104ee610f68565b6040516104fb9190614fb0565b60405180910390f35b3480156105115760006000fd5b5061052c60048036038101906105279190614c30565b610f8c565b005b34801561053b5760006000fd5b506105446111c5565b005b3480156105535760006000fd5b5061055c6111f3565b6040516105699190615050565b60405180910390f35b34801561057f5760006000fd5b5061059a60048036038101906105959190614cc0565b611217565b005b3480156105a95760006000fd5b506105b2611478565b6040516105bf91906156b8565b60405180910390f35b3480156105d55760006000fd5b506105de611492565b6040516105eb9190615640565b60405180910390f35b3480156106015760006000fd5b5061061c60048036038101906106179190614c99565b61149b565b005b34801561062b5760006000fd5b5061063461151e565b60405161064191906156b8565b60405180910390f35b3480156106575760006000fd5b50610660611542565b60405161066d91906156b8565b60405180910390f35b3480156106835760006000fd5b5061068c611566565b6040516106999190614ea3565b60405180910390f35b3480156106af5760006000fd5b506106ca60048036038101906106c59190614c30565b61158c565b6040516106d79190615640565b60405180910390f35b3480156106ed5760006000fd5b506106f66115ba565b005b3480156107055760006000fd5b50610720600480360381019061071b9190614cc0565b6117d0565b60405161072d91906155d3565b60405180910390f35b3480156107435760006000fd5b5061075e600480360381019061075991906147f2565b611951565b005b34801561076d5760006000fd5b5061078860048036038101906107839190614c30565b611c3c565b005b3480156107975760006000fd5b506107a0611caa565b6040516107ad9190615640565b60405180910390f35b6107be614584565b60006107d1858585611d0f63ffffffff16565b80925081935050505b935093915050565b60006107f2611e7563ffffffff16565b905080505b90565b610808611ee363ffffffff16565b8060046000508190909055507f113d15441cef41c1a48eb1bc2c6fa7b881b201a5c4b2913272f80defe12ce3c3816040516108439190615640565b60405180910390a15b5b50565b61085e611ee363ffffffff16565b61086c611f4363ffffffff16565b5b5b565b7f000000000000000000000000000000000000000000000000000000000000000081565b600160005060205280600052604060002060009150909054906101000a900460ff1681565b6108c7611f8d63ffffffff16565b6108d561206a63ffffffff16565b6108e7600082116120bf63ffffffff16565b600033905060006108fd8361158c63ffffffff16565b90507f000000000000000000000000000000000000000000000000000000000000000073ffffffffffffffffffffffffffffffffffffffff166379cc679083856040518363ffffffff1660e01b815260040161095a929190614f34565b600060405180830381600087803b1580156109755760006000fd5b505af115801561098a573d600060003e3d6000fd5b505050507f000000000000000000000000000000000000000000000000000000000000000073ffffffffffffffffffffffffffffffffffffffff1663b241bbac83836040518363ffffffff1660e01b81526004016109e9929190614f34565b600060405180830381600087803b158015610a045760006000fd5b505af1158015610a19573d600060003e3d6000fd5b505050508173ffffffffffffffffffffffffffffffffffffffff167fefc56a1a7590fc4eb13cd40b6a2ceee41f3869c6ea818d20d9a18f2d6315ca188285604051610a65929190615652565b60405180910390a250505b5b610a7f61210563ffffffff16565b5b50565b600660009054906101000a900463ffffffff1681565b7f000000000000000000000000000000000000000000000000000000000000000081565b6000610acd611f8d63ffffffff16565b610adb61219763ffffffff16565b600034111515610b20576040517f08c379a0000000000000000000000000000000000000000000000000000000008152600401610b1790615315565b60405180910390fd5b7f000000000000000000000000000000000000000000000000000000000000000073ffffffffffffffffffffffffffffffffffffffff1663755edd17336040518263ffffffff1660e01b8152600401610b799190614ea3565b602060405180830381600087803b158015610b945760006000fd5b505af1158015610ba9573d600060003e3d6000fd5b505050506040513d601f19601f82011682018060405250810190610bcd9190614ce7565b90508050610bd9614584565b8281610140019063ffffffff16908163ffffffff1681526020015050610c31610c128367ffffffffffffffff168361228a63ffffffff16565b83610c2487612758909063ffffffff16565b60006127cb63ffffffff16565b8167ffffffffffffffff163373ffffffffffffffffffffffffffffffffffffffff167f24c9bb74341922446798a07669f56d3efec500a78e81429643958e7a42cb6b1286604051610c829190615640565b60405180910390a3505b5b610c9b61210563ffffffff16565b5b92915050565b7f000000000000000000000000000000000000000000000000000000000000000081565b610cce614638565b610ce2878787878787612ed563ffffffff16565b9050610ce9565b9695505050505050565b60036000505481565b610d0a611ee363ffffffff16565b806005600050819090905550670de0b6b3a764000060056000505411151515610d335760006000fd5b7f95c718270dc047bb0f84e533ee71ed5ee3961f14be924c0e493ba6e1ff078ae281604051610d629190615640565b60405180910390a15b5b50565b600060009054906101000a900460ff1681565b610d90611f8d63ffffffff16565b610d9e61219763ffffffff16565b610e597f000000000000000000000000000000000000000000000000000000000000000073ffffffffffffffffffffffffffffffffffffffff1663430c208133876040518363ffffffff1660e01b8152600401610dfc929190614f63565b60206040518083038186803b158015610e155760006000fd5b505afa158015610e2a573d600060003e3d6000fd5b505050506040513d601f19601f82011682018060405250810190610e4e919061487b565b6130d463ffffffff16565b6000610f208567ffffffffffffffff167f000000000000000000000000000000000000000000000000000000000000000073ffffffffffffffffffffffffffffffffffffffff16630f85fc5a886040518263ffffffff1660e01b8152600401610ec291906156b8565b6101a06040518083038186803b158015610edc5760006000fd5b505afa158015610ef1573d600060003e3d6000fd5b505050506040513d601f19601f82011682018060405250810190610f15919061493d565b61228a63ffffffff16565b90508181610140019063ffffffff16908163ffffffff1681526020015050610f50818686866127cb63ffffffff16565b505b5b610f6161210563ffffffff16565b5b50505050565b7f000000000000000000000000000000000000000000000000000000000000000081565b610f9a611f8d63ffffffff16565b610fa861219763ffffffff16565b610fba600082116120bf63ffffffff16565b6000339050610fcd61311a63ffffffff16565b6000610fef610fe06139bb63ffffffff16565b84613b4890919063ffffffff16565b90507f000000000000000000000000000000000000000000000000000000000000000073ffffffffffffffffffffffffffffffffffffffff16632c73f09e846040518263ffffffff1660e01b815260040161104a9190615640565b600060405180830381600087803b1580156110655760006000fd5b505af115801561107a573d600060003e3d6000fd5b505050506110d07f0000000000000000000000000000000000000000000000000000000000000000837f000000000000000000000000000000000000000000000000000000000000000086613b6e63ffffffff16565b7f000000000000000000000000000000000000000000000000000000000000000073ffffffffffffffffffffffffffffffffffffffff1663449a52f883836040518363ffffffff1660e01b815260040161112b929190614f34565b600060405180830381600087803b1580156111465760006000fd5b505af115801561115b573d600060003e3d6000fd5b505050508173ffffffffffffffffffffffffffffffffffffffff167f8fff79b574da9a93d7a5408c2fc00c4a9b2b462321c1659b2fbbb9ff3dd221ff84836040516111a7929190615652565b60405180910390a250505b5b6111c161210563ffffffff16565b5b50565b6111d3613bfe63ffffffff16565b6111e161311a63ffffffff16565b5b6111f0613c5963ffffffff16565b5b565b7f000000000000000000000000000000000000000000000000000000000000000081565b611225611f8d63ffffffff16565b61123361219763ffffffff16565b6112ee7f000000000000000000000000000000000000000000000000000000000000000073ffffffffffffffffffffffffffffffffffffffff1663430c208133846040518363ffffffff1660e01b8152600401611291929190614f63565b60206040518083038186803b1580156112aa5760006000fd5b505afa1580156112bf573d600060003e3d6000fd5b505050506040513d601f19601f820116820180604052508101906112e3919061487b565b6130d463ffffffff16565b60006113b58267ffffffffffffffff167f000000000000000000000000000000000000000000000000000000000000000073ffffffffffffffffffffffffffffffffffffffff16630f85fc5a856040518263ffffffff1660e01b815260040161135791906156b8565b6101a06040518083038186803b1580156113715760006000fd5b505afa158015611386573d600060003e3d6000fd5b505050506040513d601f19601f820116820180604052508101906113aa919061493d565b61228a63ffffffff16565b9050600081610140019063ffffffff16908163ffffffff16815260200150507f000000000000000000000000000000000000000000000000000000000000000073ffffffffffffffffffffffffffffffffffffffff16635a6beaf483836040518363ffffffff1660e01b815260040161142f9291906156d4565b600060405180830381600087803b15801561144a5760006000fd5b505af115801561145f573d600060003e3d6000fd5b50505050505b5b61147461210563ffffffff16565b5b50565b600660049054906101000a900467ffffffffffffffff1681565b60046000505481565b6114a9611ee363ffffffff16565b61012c8163ffffffff16101515156114c15760006000fd5b80600660006101000a81548163ffffffff021916908363ffffffff1602179055507f670aac3910a07dcfe5267c8b0bf2357abdb454e509764d13e94e85ee13c6da208160405161151191906156a0565b60405180910390a15b5b50565b7f000000000000000000000000000000000000000000000000000000000000000081565b7f000000000000000000000000000000000000000000000000000000000000000081565b6006600c9054906101000a900473ffffffffffffffffffffffffffffffffffffffff1681565b60006115ae61159f6139bb63ffffffff16565b83613c6990919063ffffffff16565b90506115b5565b919050565b6116196006600c9054906101000a900473ffffffffffffffffffffffffffffffffffffffff1673ffffffffffffffffffffffffffffffffffffffff163373ffffffffffffffffffffffffffffffffffffffff16146130d463ffffffff16565b6006600c6101000a81549073ffffffffffffffffffffffffffffffffffffffff021916905560007f000000000000000000000000000000000000000000000000000000000000000073ffffffffffffffffffffffffffffffffffffffff1663755edd177f00000000000000000000000000000000000000000000000000000000000000006040518263ffffffff1660e01b81526004016116b99190614ea3565b602060405180830381600087803b1580156116d45760006000fd5b505af11580156116e9573d600060003e3d6000fd5b505050506040513d601f19601f8201168201806040525081019061170d9190614ce7565b67ffffffffffffffff161415156117245760006000fd5b61172c614584565b7f000000000000000000000000000000000000000000000000000000000000000073ffffffffffffffffffffffffffffffffffffffff16635a6beaf4600061177b60008561228a63ffffffff16565b6040518363ffffffff1660e01b8152600401611798929190615078565b600060405180830381600087803b1580156117b35760006000fd5b505af11580156117c8573d600060003e3d6000fd5b50505050505b565b6117d8614584565b6117e6613bfe63ffffffff16565b7f000000000000000000000000000000000000000000000000000000000000000073ffffffffffffffffffffffffffffffffffffffff16639622cd8f336040518263ffffffff1660e01b815260040161183f9190614ea3565b60006040518083038186803b1580156118585760006000fd5b505afa15801561186d573d600060003e3d6000fd5b505050506119368267ffffffffffffffff167f000000000000000000000000000000000000000000000000000000000000000073ffffffffffffffffffffffffffffffffffffffff16630f85fc5a856040518263ffffffff1660e01b81526004016118d891906156b8565b6101a06040518083038186803b1580156118f25760006000fd5b505afa158015611907573d600060003e3d6000fd5b505050506040513d601f19601f8201168201806040525081019061192b919061493d565b61228a63ffffffff16565b905061193d565b61194b613c5963ffffffff16565b5b919050565b61195f611f8d63ffffffff16565b61196d61206a63ffffffff16565b600083839050905061197d614584565b60006000600090505b83811015611c225786868281811015156119c9577f4e487b7100000000000000000000000000000000000000000000000000000000600052603260045260246000fd5b90506020020160208101906119de9190614cc0565b915081507f000000000000000000000000000000000000000000000000000000000000000073ffffffffffffffffffffffffffffffffffffffff1663430c208133846040518363ffffffff1660e01b8152600401611a3d929190614f63565b60206040518083038186803b158015611a565760006000fd5b505afa158015611a6b573d600060003e3d6000fd5b505050506040513d601f19601f82011682018060405250810190611a8f919061487b565b1515611a9a57611c0f565b611b5f8267ffffffffffffffff167f000000000000000000000000000000000000000000000000000000000000000073ffffffffffffffffffffffffffffffffffffffff16630f85fc5a856040518263ffffffff1660e01b8152600401611b0191906156b8565b6101a06040518083038186803b158015611b1b5760006000fd5b505afa158015611b30573d600060003e3d6000fd5b505050506040513d601f19601f82011682018060405250810190611b54919061493d565b61228a63ffffffff16565b925082508483610140019063ffffffff16908163ffffffff16815260200150507f000000000000000000000000000000000000000000000000000000000000000073ffffffffffffffffffffffffffffffffffffffff16635a6beaf483856040518363ffffffff1660e01b8152600401611bda9291906156d4565b600060405180830381600087803b158015611bf55760006000fd5b505af1158015611c0a573d600060003e3d6000fd5b505050505b8080611c1a90615a10565b915050611986565b505050505b5b611c3661210563ffffffff16565b5b505050565b611c4a611ee363ffffffff16565b806003600050819090905550670de0b6b3a76400008110151515611c6e5760006000fd5b7f52640f3e2df50709ead28077e905b85df7544c73c32a40259dff3ac35927d5ce81604051611c9d9190615640565b60405180910390a15b5b50565b60056000505481565b60006801000000000000000082101515611d02576040517f08c379a0000000000000000000000000000000000000000000000000000000008152600401611cf990615559565b60405180910390fd5b819050611d0a565b919050565b611d17614584565b6000849150815060008260a0015167ffffffffffffffff16118015611d40575060008260400151115b15611e1057611d66846060015183606001518460400151613c8f9092919063ffffffff16565b8260400190908181526020015050611e0b611d988360a001518567ffffffffffffffff16613db390919063ffffffff16565b67ffffffffffffffff16610e1067ffffffffffffffff16611dfc611dcd86608001518960200151613dce90919063ffffffff16565b611de887600001518a60400151613dce90919063ffffffff16565b8760400151613c8f9092919063ffffffff16565b613c8f9092919063ffffffff16565b905080505b836060015182606001909081815260200150508360200151826080019090818152602001505083604001518260000190908181526020015050828260a0019067ffffffffffffffff16908167ffffffffffffffff16815260200150505b935093915050565b60007f00000000000000000000000000000000000000000000000000000000000000007f0000000000000000000000000000000000000000000000000000000000000000611ec7613de963ffffffff16565b611ed19190615858565b611edb91906159a9565b905080505b90565b611f407f000000000000000000000000000000000000000000000000000000000000000073ffffffffffffffffffffffffffffffffffffffff163373ffffffffffffffffffffffffffffffffffffffff16146130d463ffffffff16565b5b565b6001600060006101000a81548160ff0219169083151502179055507f7acc84e34091ae817647a4c49116f5cc07f319078ba80f8f5fde37ea7e25cbd660405160405180910390a15b565b7f000000000000000000000000000000000000000000000000000000000000000073ffffffffffffffffffffffffffffffffffffffff1663e97dcb626040518163ffffffff1660e01b8152600401600060405180830381600087803b158015611ff65760006000fd5b505af115801561200b573d600060003e3d6000fd5b5050505060026002600050541415151561205a576040517f08c379a0000000000000000000000000000000000000000000000000000000008152600401612051906152d6565b60405180910390fd5b600260026000508190909055505b565b600060009054906101000a900460ff161515156120bc576040517f08c379a00000000000000000000000000000000000000000000000000000000081526004016120b390615437565b60405180910390fd5b5b565b801515612101576040517f08c379a00000000000000000000000000000000000000000000000000000000081526004016120f890615297565b60405180910390fd5b5b50565b600160026000508190909055507f000000000000000000000000000000000000000000000000000000000000000073ffffffffffffffffffffffffffffffffffffffff1663e9fad8ee6040518163ffffffff1660e01b8152600401600060405180830381600087803b15801561217b5760006000fd5b505af1158015612190573d600060003e3d6000fd5b505050505b565b6121a561206a63ffffffff16565b7f000000000000000000000000000000000000000000000000000000000000000073ffffffffffffffffffffffffffffffffffffffff1663bf86d6906040518163ffffffff1660e01b815260040160206040518083038186803b15801561220c5760006000fd5b505afa158015612221573d600060003e3d6000fd5b505050506040513d601f19601f82011682018060405250810190612245919061487b565b151515612287576040517f08c379a000000000000000000000000000000000000000000000000000000000815260040161227e906150f7565b60405180910390fd5b5b565b612292614584565b60006122a2613e0463ffffffff16565b905060006122b582613ef963ffffffff16565b9050600060008560a0015167ffffffffffffffff16146122e7576122e28560a00151613ef963ffffffff16565b6122ea565b60005b90508067ffffffffffffffff168267ffffffffffffffff1611151561231457849350505050612752565b61232261311a63ffffffff16565b60006123d4867f000000000000000000000000000000000000000000000000000000000000000073ffffffffffffffffffffffffffffffffffffffff166306ef2d806040518163ffffffff1660e01b815260040160806040518083038186803b15801561238f5760006000fd5b505afa1580156123a4573d600060003e3d6000fd5b505050506040513d601f19601f820116820180604052508101906123c89190614b38565b86611d0f63ffffffff16565b80925081965050506000811180156123ed575060008714155b1561270457600073ffffffffffffffffffffffffffffffffffffffff1685610160015173ffffffffffffffffffffffffffffffffffffffff16141580156124435750600085610180015167ffffffffffffffff16115b1561257257600061246c86610180015167ffffffffffffffff1683613b4890919063ffffffff16565b90507f000000000000000000000000000000000000000000000000000000000000000073ffffffffffffffffffffffffffffffffffffffff16634d6729f5876101600151836040518363ffffffff1660e01b81526004016124ce929190614f34565b600060405180830381600087803b1580156124e95760006000fd5b505af11580156124fe573d600060003e3d6000fd5b505050506001151586610160015173ffffffffffffffffffffffffffffffffffffffff167f8079a05488a0f375c08504c3ba8b3a1371f5a192b7a141bc9294ef7ad41389d9836040516125519190615640565b60405180910390a361256c8183613dce90919063ffffffff16565b91508150505b60007f000000000000000000000000000000000000000000000000000000000000000073ffffffffffffffffffffffffffffffffffffffff16636352211e896040518263ffffffff1660e01b81526004016125cd9190615640565b60206040518083038186803b1580156125e65760006000fd5b505afa1580156125fb573d600060003e3d6000fd5b505050506040513d601f19601f8201168201806040525081019061261f91906147cb565b90507f000000000000000000000000000000000000000000000000000000000000000073ffffffffffffffffffffffffffffffffffffffff16634d6729f582846040518363ffffffff1660e01b815260040161267c929190614f34565b600060405180830381600087803b1580156126975760006000fd5b505af11580156126ac573d600060003e3d6000fd5b50505050600015158173ffffffffffffffffffffffffffffffffffffffff167f8079a05488a0f375c08504c3ba8b3a1371f5a192b7a141bc9294ef7ad41389d9846040516126fa9190615640565b60405180910390a3505b8267ffffffffffffffff16877fc99ac0d15229fa72f1b0756c0eed4e7ede3d80f4e4e0d308ce7a56d1366b8a03876040015184604051612745929190615652565b60405180910390a3505050505b92915050565b60007f8000000000000000000000000000000000000000000000000000000000000000821015156127be576040517f08c379a00000000000000000000000000000000000000000000000000000000081526004016127b590615354565b60405180910390fd5b8190506127c6565b919050565b60003490506000600084136127e15760006127e3565b835b90506000600085126127f657600061282a565b6128297fffffffffffffffffffffffffffffffffffffffffffffffffffffffffffffffff86613f6d90919063ffffffff16565b5b905060008311801561283c5750600084115b15151561287e576040517f08c379a000000000000000000000000000000000000000000000000000000000815260040161287590615393565b60405180910390fd5b6128b160008411806128905750600085115b8061289b5750600083115b806128a65750600082115b6120bf63ffffffff16565b600082111561299d576128c8613de963ffffffff16565b8760c0019067ffffffffffffffff16908167ffffffffffffffff1681526020015050612901828860400151613f8890919063ffffffff16565b87604001909081815260200150507f000000000000000000000000000000000000000000000000000000000000000073ffffffffffffffffffffffffffffffffffffffff16632b7c7b11836040518263ffffffff1660e01b81526004016129689190615640565b600060405180830381600087803b1580156129835760006000fd5b505af1158015612998573d600060003e3d6000fd5b505050505b6000811115612afc576129b4613de963ffffffff16565b67ffffffffffffffff166129ee610708610e106129d19190615807565b8960c0015167ffffffffffffffff16613fa390919063ffffffff16565b67ffffffffffffffff16101515612a3a576040517f08c379a0000000000000000000000000000000000000000000000000000000008152600401612a3190615219565b60405180910390fd5b8087604001511015612a50578660400151905080505b8087604001818151612a62919061598a565b9150909081815260200150507f000000000000000000000000000000000000000000000000000000000000000073ffffffffffffffffffffffffffffffffffffffff16632a7ba1f7826040518263ffffffff1660e01b8152600401612ac79190615640565b600060405180830381600087803b158015612ae25760006000fd5b505af1158015612af7573d600060003e3d6000fd5b505050505b6000831115612b2b57612b1c838860200151613f8890919063ffffffff16565b87602001909081815260200150505b6000841115612b5a57612b4b848860200151613dce90919063ffffffff16565b87602001909081815260200150505b600087604001511115612be357600460005054876040015110151515612bb5576040517f08c379a0000000000000000000000000000000000000000000000000000000008152600401612bac906153f8565b60405180910390fd5b6000841180612bc45750600082115b15612be257612be187604001518860200151613fbe63ffffffff16565b5b5b7f000000000000000000000000000000000000000000000000000000000000000073ffffffffffffffffffffffffffffffffffffffff16635a6beaf487896040518363ffffffff1660e01b8152600401612c3e9291906156d4565b600060405180830381600087803b158015612c595760006000fd5b505af1158015612c6e573d600060003e3d6000fd5b505050506000821115612d0b577f000000000000000000000000000000000000000000000000000000000000000073ffffffffffffffffffffffffffffffffffffffff1663449a52f833846040518363ffffffff1660e01b8152600401612cd6929190614f34565b600060405180830381600087803b158015612cf15760006000fd5b505af1158015612d06573d600060003e3d6000fd5b505050505b6000811115612da4577f000000000000000000000000000000000000000000000000000000000000000073ffffffffffffffffffffffffffffffffffffffff166379cc679033836040518363ffffffff1660e01b8152600401612d6f929190614f34565b600060405180830381600087803b158015612d8a5760006000fd5b505af1158015612d9f573d600060003e3d6000fd5b505050505b6000831115612dde57612ddd7f00000000000000000000000000000000000000000000000000000000000000008461417263ffffffff16565b5b6000841115612e77577f000000000000000000000000000000000000000000000000000000000000000073ffffffffffffffffffffffffffffffffffffffff16636250216933866040518363ffffffff1660e01b8152600401612e42929190614ecb565b600060405180830381600087803b158015612e5d5760006000fd5b505af1158015612e72573d600060003e3d6000fd5b505050505b8567ffffffffffffffff167fdbaad0966fb140906c77f54a38b3e1ce6c60e87527bbc4ee0b9ad893e3de453b838386888c604001518d60200151604051612ec39695949392919061566b565b60405180910390a25050505b50505050565b612edd614638565b6000851415612f145786600001518160000190908181526020015050866060015181602001909081815260200150508090506130ca565b6000612f508767ffffffffffffffff16610e106301e13380612f369190615858565b67ffffffffffffffff1688613c8f9092919063ffffffff16565b9050600085612f7957612f7482670de0b6b3a7640000613dce90919063ffffffff16565b612f95565b612f9482670de0b6b3a7640000613f8890919063ffffffff16565b5b9050612fae818a60600151613b4890919063ffffffff16565b8360200190908181526020015050612fdd83602001518a606001518b60000151613c8f9092919063ffffffff16565b836000019090818152602001505088600001518360000151111561305857600089600001518460000151613011919061598a565b90506130268582613b4890919063ffffffff16565b8460600190908181526020015050836060015181613044919061598a565b8460400190908181526020015050506130c7565b8860000151836000015110156130c657600083600001518a6000015161307e919061598a565b905085811015156130b45789600001518460000190908181526020015050896060015184602001909081815260200150506130c4565b8084608001909081815260200150505b505b5b50505b9695505050505050565b801515613116576040517f08c379a000000000000000000000000000000000000000000000000000000000815260040161310d90615258565b60405180910390fd5b5b50565b600061312a61429b63ffffffff16565b9050600660049054906101000a900467ffffffffffffffff1667ffffffffffffffff168167ffffffffffffffff1611151561316557506139b9565b6000600660049054906101000a900467ffffffffffffffff168261318991906159a9565b905060007f000000000000000000000000000000000000000000000000000000000000000073ffffffffffffffffffffffffffffffffffffffff166306ef2d806040518163ffffffff1660e01b815260040160806040518083038186803b1580156131f45760006000fd5b505afa158015613209573d600060003e3d6000fd5b505050506040513d601f19601f8201168201806040525081019061322d9190614b38565b905060007f000000000000000000000000000000000000000000000000000000000000000073ffffffffffffffffffffffffffffffffffffffff166343f48fbd6040518163ffffffff1660e01b815260040160206040518083038186803b1580156132985760006000fd5b505afa1580156132ad573d600060003e3d6000fd5b505050506040513d601f19601f820116820180604052508101906132d19190614916565b9050600061348b83858473ffffffffffffffffffffffffffffffffffffffff1663a0fc0eda6040518163ffffffff1660e01b815260040160206040518083038186803b1580156133215760006000fd5b505afa158015613336573d600060003e3d6000fd5b505050506040513d601f19601f8201168201806040525081019061335a9190614c4c565b8573ffffffffffffffffffffffffffffffffffffffff16636d7fa6646040518163ffffffff1660e01b815260040160206040518083038186803b1580156133a15760006000fd5b505afa1580156133b6573d600060003e3d6000fd5b505050506040513d601f19601f820116820180604052508101906133da919061487b565b7f000000000000000000000000000000000000000000000000000000000000000073ffffffffffffffffffffffffffffffffffffffff166375172a8b6040518163ffffffff1660e01b815260040160206040518083038186803b1580156134415760006000fd5b505afa158015613456573d600060003e3d6000fd5b505050506040513d601f19601f8201168201806040525081019061347a9190614c4c565b600560005054612ed563ffffffff16565b90506000610e10620151806134a09190615858565b67ffffffffffffffff166135688667ffffffffffffffff167f000000000000000000000000000000000000000000000000000000000000000073ffffffffffffffffffffffffffffffffffffffff1663a5d4198b6040518163ffffffff1660e01b8152600401602060405180830381600087803b1580156135215760006000fd5b505af1158015613536573d600060003e3d6000fd5b505050506040513d601f19601f8201168201806040525081019061355a9190614c4c565b6142c190919063ffffffff16565b613572919061583a565b90506040518060800160405280836000015181526020016135a0838760200151613f8890919063ffffffff16565b81526020016135dc6135c98867ffffffffffffffff1688600001516142c190919063ffffffff16565b8760400151613f8890919063ffffffff16565b81526020018360200151815260200150935083507f000000000000000000000000000000000000000000000000000000000000000073ffffffffffffffffffffffffffffffffffffffff166378efc6b0856040518263ffffffff1660e01b8152600401613649919061560f565b600060405180830381600087803b1580156136645760006000fd5b505af1158015613679573d600060003e3d6000fd5b5050505085600660046101000a81548167ffffffffffffffff021916908367ffffffffffffffff1602179055506000826060015111156137f8577f000000000000000000000000000000000000000000000000000000000000000073ffffffffffffffffffffffffffffffffffffffff16632c73f09e83606001516040518263ffffffff1660e01b81526004016137109190615640565b600060405180830381600087803b15801561372b5760006000fd5b505af1158015613740573d600060003e3d6000fd5b505050507f000000000000000000000000000000000000000000000000000000000000000073ffffffffffffffffffffffffffffffffffffffff1663449a52f87f000000000000000000000000000000000000000000000000000000000000000084606001516040518363ffffffff1660e01b81526004016137c3929190614f34565b600060405180830381600087803b1580156137de5760006000fd5b505af11580156137f3573d600060003e3d6000fd5b505050505b6000826040015111156138b9577f000000000000000000000000000000000000000000000000000000000000000073ffffffffffffffffffffffffffffffffffffffff1663449a52f87f000000000000000000000000000000000000000000000000000000000000000084604001516040518363ffffffff1660e01b8152600401613884929190614f34565b600060405180830381600087803b15801561389f5760006000fd5b505af11580156138b4573d600060003e3d6000fd5b505050505b600082608001511115613958577f000000000000000000000000000000000000000000000000000000000000000073ffffffffffffffffffffffffffffffffffffffff1663c59fb1ab83608001516040518263ffffffff1660e01b81526004016139239190615640565b600060405180830381600087803b15801561393e5760006000fd5b505af1158015613953573d600060003e3d6000fd5b505050505b8567ffffffffffffffff167fdfc2183705a66b49f12c66a6d3b2fa5cf3b7c67086e9c6e90d144befc94f436c8686600001518760200151886040015189606001516040516139aa9594939291906156ff565b60405180910390a25050505050505b565b600060007f000000000000000000000000000000000000000000000000000000000000000073ffffffffffffffffffffffffffffffffffffffff16637f250c616040518163ffffffff1660e01b815260040160206040518083038186803b158015613a265760006000fd5b505afa158015613a3b573d600060003e3d6000fd5b505050506040513d601f19601f82011682018060405250810190613a5f9190614c4c565b905060007f000000000000000000000000000000000000000000000000000000000000000073ffffffffffffffffffffffffffffffffffffffff166318160ddd6040518163ffffffff1660e01b815260040160206040518083038186803b158015613aca5760006000fd5b505afa158015613adf573d600060003e3d6000fd5b505050506040513d601f19601f82011682018060405250810190613b039190614c4c565b90506000811480613b145750600082145b613b3057613b2b8282613c6990919063ffffffff16565b613b3a565b670de0b6b3a76400005b92505050613b455650505b90565b6000613b638383670de0b6b3a7640000613c8f63ffffffff16565b905080505b92915050565b613bf7846323b872dd60e01b858585604051602401613b8f93929190614efa565b604051602081830303815290604052907bffffffffffffffffffffffffffffffffffffffffffffffffffffffff19166020820180517bffffffffffffffffffffffffffffffffffffffffffffffffffffffff83818316178352505050506142dc63ffffffff16565b5b50505050565b600260026000505414151515613c49576040517f08c379a0000000000000000000000000000000000000000000000000000000008152600401613c4090615136565b60405180910390fd5b600260026000508190909055505b565b600160026000508190909055505b565b6000613c8483670de0b6b3a764000084613c8f63ffffffff16565b905080505b92915050565b6000600060006000198587098587029250828110838203039150506000811415613cd257600084111515613cc35760006000fd5b83820492508292505050613dac565b8084111515613ce15760006000fd5b60008486880990508281118203915080830392506000856001877fffffffffffffffffffffffffffffffffffffffffffffffffffffffffffffffff030116905080508086049550808404935060018182600003040190508083028417935083506000600287600302189050808702600203810290508050808702600203810290508050808702600203810290508050808702600203810290508050808702600203810290508050808702600203810290508050808502955085505084945050505050613dac56505050505b9392505050565b60008183613dc191906159a9565b9050613dc8565b92915050565b60008183613ddc919061598a565b9050613de3565b92915050565b6000613dfc42611cb3909063ffffffff16565b905080505b90565b6000613e14613de963ffffffff16565b9050805060007f000000000000000000000000000000000000000000000000000000000000000073ffffffffffffffffffffffffffffffffffffffff1663585690816040518163ffffffff1660e01b815260040160206040518083038186803b158015613e815760006000fd5b505afa158015613e96573d600060003e3d6000fd5b505050506040513d601f19601f82011682018060405250810190613eba9190614ce7565b905060008167ffffffffffffffff16118015613ee957508167ffffffffffffffff168167ffffffffffffffff16105b15613ef45780915081505b505b90565b6000613f637f00000000000000000000000000000000000000000000000000000000000000007f000000000000000000000000000000000000000000000000000000000000000084613f4b9190615858565b67ffffffffffffffff16613db390919063ffffffff16565b905080505b919050565b60008183613f7b9190615886565b9050613f82565b92915050565b60008183613f9691906157e7565b9050613f9d565b92915050565b60008183613fb19190615807565b9050613fb8565b92915050565b60007f000000000000000000000000000000000000000000000000000000000000000073ffffffffffffffffffffffffffffffffffffffff1663d3419bf36040518163ffffffff1660e01b815260040160206040518083038186803b1580156140275760006000fd5b505afa15801561403c573d600060003e3d6000fd5b505050506040513d601f19601f8201168201806040525081019061406091906148ef565b73ffffffffffffffffffffffffffffffffffffffff1663fa42dcf4600660009054906101000a900463ffffffff166040518263ffffffff1660e01b81526004016140aa91906156a0565b60206040518083038186803b1580156140c35760006000fd5b505afa1580156140d8573d600060003e3d6000fd5b505050506040513d601f19601f820116820180604052508101906140fc9190614c4c565b9050614116836003600050546142c190919063ffffffff16565b61412982846142c190919063ffffffff16565b1015151561416c576040517f08c379a000000000000000000000000000000000000000000000000000000000815260040161416390615476565b60405180910390fd5b505b5050565b60008273ffffffffffffffffffffffffffffffffffffffff1682600067ffffffffffffffff8111156141cd577f4e487b7100000000000000000000000000000000000000000000000000000000600052604160045260246000fd5b6040519080825280601f01601f1916602001820160405280156141ff5781602001600182028036833780820191505090505b5060405161420d9190614e84565b60006040518083038185875af1925050503d806000811461424a576040519150601f19603f3d011682016040523d82523d6000602084013e61424f565b606091505b50509050801515614295576040517f08c379a000000000000000000000000000000000000000000000000000000000815260040161428c90615175565b60405180910390fd5b505b5050565b60006142b96142ae613e0463ffffffff16565b613ef963ffffffff16565b905080505b90565b600081836142cf9190615945565b90506142d6565b92915050565b6000614341826040518060400160405280602081526020017f5361666545524332303a206c6f772d6c6576656c2063616c6c206661696c65648152602001508573ffffffffffffffffffffffffffffffffffffffff166143a99092919063ffffffff16565b90506000815111156143a35780806020019051810190614361919061487b565b15156143a2576040517f08c379a0000000000000000000000000000000000000000000000000000000008152600401614399906154f4565b60405180910390fd5b5b505b5050565b60606143be84846000856143cc63ffffffff16565b90506143c5565b9392505050565b6060824710151515614413576040517f08c379a000000000000000000000000000000000000000000000000000000000815260040161440a906151b4565b60405180910390fd5b614422856144f863ffffffff16565b1515614463576040517f08c379a000000000000000000000000000000000000000000000000000000000815260040161445a906154b5565b60405180910390fd5b600060008673ffffffffffffffffffffffffffffffffffffffff16858760405161448d9190614e84565b60006040518083038185875af1925050503d80600081146144ca576040519150601f19603f3d011682016040523d82523d6000602084013e6144cf565b606091505b50915091506144e582828661451263ffffffff16565b925050506144f05650505b949350505050565b60006000823b90506000811191505061450d56505b919050565b606083156145265782905061457d5661457c565b60008351111561453e5782518084602001fd5061457b565b816040517f08c379a000000000000000000000000000000000000000000000000000000000815260040161457291906150a3565b60405180910390fd5b5b5b9392505050565b604051806101a001604052806000815260200160008152602001600081526020016000815260200160008152602001600067ffffffffffffffff168152602001600067ffffffffffffffff168152602001600060020b8152602001600015158152602001600067ffffffffffffffff168152602001600063ffffffff168152602001600073ffffffffffffffffffffffffffffffffffffffff168152602001600067ffffffffffffffff1681526020015090565b6040518060a001604052806000815260200160008152602001600081526020016000815260200160008152602001509056615b3b565b60008135905061467d81615ab1565b5b919050565b60008151905061469281615ab1565b5b919050565b6000813590506146a781615ada565b5b919050565b6000815190506146bc81615ada565b5b919050565b6000813590506146d181615aef565b5b919050565b6000815190506146e681615aef565b5b919050565b6000608082840312156146fd578081fd5b6040516080810181811067ffffffffffffffff82111715614745577f4e487b710000000000000000000000000000000000000000000000000000000083526041600452602483fd5b806040525080915082358152602083013560208201526040830135604082015260608301356060820152505b92915050565b60008135905061478681615b05565b5b919050565b60008151905061479b81615b05565b5b919050565b6000813590506147b081615b1e565b5b919050565b6000815190506147c581615b1e565b5b919050565b6000602082840312156147dc578081fd5b81516147e781615ab1565b809150505b92915050565b60006000600060408486031215614807578182fd5b833567ffffffffffffffff8082111561481e578384fd5b818601915086601f8301121515614833578384fd5b813581811115614841578485fd5b8760208260051b8501011115614855578485fd5b602083019550809450505050602084013561486f81615b05565b809150505b9250925092565b60006020828403121561488c578081fd5b815161489781615ada565b809150505b92915050565b6000602082840312156148b3578081fd5b81357fffffffff000000000000000000000000000000000000000000000000000000008116811415156148e4578182fd5b809150505b92915050565b600060208284031215614900578081fd5b815161490b81615ab1565b809150505b92915050565b600060208284031215614927578081fd5b815161493281615ab1565b809150505b92915050565b60006101a0828403121561494f578081fd5b614957615737565b825181526020830151602082015260408301516040820152606083015160608201526080830151608082015261498f60a084016147b6565b60a08201526149a060c084016147b6565b60c08201526149b160e084016146d7565b60e08201526101006149c48185016146ad565b81830152506101206149d78185016147b6565b81830152506101406149ea81850161478c565b81830152506101606149fd818501614683565b8183015250610180614a108185016147b6565b8183015250809150505b92915050565b600060006000838503610240811215614a37578182fd5b6101a080821215614a46578283fd5b614a4e61578f565b91508535825260208601356020830152604086013560408301526060860135606083015260808601356080830152614a8860a087016147a1565b60a0830152614a9960c087016147a1565b60c0830152614aaa60e087016146c2565b60e0830152610100614abd818801614698565b8184015250610120614ad08188016147a1565b8184015250610140614ae3818801614777565b8184015250610160614af681880161466e565b8184015250610180614b098188016147a1565b8184015250819450614b1d878288016146ec565b93505050614b2e61022085016147a1565b90505b9250925092565b600060808284031215614b49578081fd5b6040516080810181811067ffffffffffffffff82111715614b91577f4e487b710000000000000000000000000000000000000000000000000000000083526041600452602483fd5b806040525082518152602083015160208201526040830151604082015260608301516060820152809150505b92915050565b6000600060006000600060006101208789031215614bdf578384fd5b614be988886146ec565b95506080870135614bf981615b1e565b8095505060a0870135935060c0870135614c1281615ada565b8093505060e0870135915061010087013590505b9295509295509295565b600060208284031215614c41578081fd5b813590505b92915050565b600060208284031215614c5d578081fd5b815190505b92915050565b6000600060408385031215614c7b578182fd5b823591506020830135614c8d81615b05565b809150505b9250929050565b600060208284031215614caa578081fd5b8135614cb581615b05565b809150505b92915050565b600060208284031215614cd1578081fd5b8135614cdc81615b1e565b809150505b92915050565b600060208284031215614cf8578081fd5b8151614d0381615b1e565b809150505b92915050565b600060006000600060808587031215614d25578182fd5b8435614d3081615b1e565b8094505060208501359250604085013591506060850135614d5081615b05565b809150505b92959194509250565b73ffffffffffffffffffffffffffffffffffffffff8116825250505b565b801515825250505b565b8060020b825250505b565b805182526020810151602083015260408101516040830152606081015160608301526080810151608083015260a0810151614dcf60a0840182614e72565b5060c0810151614de260c0840182614e72565b5060e0810151614df560e0840182614d86565b5061010080820151614e0982850182614d7c565b505061012080820151614e1e82850182614e72565b505061014080820151614e3382850182614e64565b505061016080820151614e4882850182614d5e565b505061018080820151614e5d82850182614e72565b505050505b565b63ffffffff8116825250505b565b67ffffffffffffffff8116825250505b565b60008251614e968184602087016159db565b8083019150505b92915050565b600060208201905073ffffffffffffffffffffffffffffffffffffffff831682525b92915050565b600060408201905073ffffffffffffffffffffffffffffffffffffffff841682528260208301525b9392505050565b600060608201905073ffffffffffffffffffffffffffffffffffffffff80861683528085166020840152508260408301525b949350505050565b600060408201905073ffffffffffffffffffffffffffffffffffffffff841682528260208301525b9392505050565b600060408201905073ffffffffffffffffffffffffffffffffffffffff8416825267ffffffffffffffff831660208301525b9392505050565b600060208201905082151582525b92915050565b600060208201905073ffffffffffffffffffffffffffffffffffffffff831682525b92915050565b600060208201905073ffffffffffffffffffffffffffffffffffffffff831682525b92915050565b600060208201905073ffffffffffffffffffffffffffffffffffffffff831682525b92915050565b600060208201905073ffffffffffffffffffffffffffffffffffffffff831682525b92915050565b600060208201905073ffffffffffffffffffffffffffffffffffffffff831682525b92915050565b60006101c08201905067ffffffffffffffff8416825261509b6020830184614d91565b5b9392505050565b60208152600082518060208401526150c28160408501602087016159db565b60407fffffffffffffffffffffffffffffffffffffffffffffffffffffffffffffffe0601f8301168401019150505b92915050565b60208152601160208201527f50726f746f636f6c2073687574646f776e000000000000000000000000000000604082015260006060820190505b919050565b60208152600d60208201527f4c43205265656e7472616e637900000000000000000000000000000000000000604082015260006060820190505b919050565b60208152600360208201527f5354450000000000000000000000000000000000000000000000000000000000604082015260006060820190505b919050565b60208152602660208201527f416464726573733a20696e73756666696369656e742062616c616e636520666f60408201527f722063616c6c0000000000000000000000000000000000000000000000000000606082015260006080820190505b919050565b60208152600f60208201527f4e6f20666c61736820626f72726f770000000000000000000000000000000000604082015260006060820190505b919050565b60208152600e60208201527f4e6f7420417574686f72697a6564000000000000000000000000000000000000604082015260006060820190505b919050565b60208152600460208201527f4e6f6f7000000000000000000000000000000000000000000000000000000000604082015260006060820190505b919050565b60208152600d60208201527f4c50205265656e7472616e637900000000000000000000000000000000000000604082015260006060820190505b919050565b60208152601360208201527f4d7573742061646420636f6c6c61746572616c00000000000000000000000000604082015260006060820190505b919050565b60208152601260208201527f746f6f2062696720666f7220696e743235360000000000000000000000000000604082015260006060820190505b919050565b60208152602360208201527f43616e7420696e637265617365202620646563726561736520636f6c6c61746560408201527f72616c0000000000000000000000000000000000000000000000000000000000606082015260006080820190505b919050565b60208152601260208201527f506f736974696f6e20746f6f20736d616c6c0000000000000000000000000000604082015260006060820190505b919050565b60208152601360208201527f436f6e74726163742069732073746f7070656400000000000000000000000000604082015260006060820190505b919050565b60208152601760208201527f496e73756666696369656e7420636f6c6c61746572616c000000000000000000604082015260006060820190505b919050565b60208152601d60208201527f416464726573733a2063616c6c20746f206e6f6e2d636f6e7472616374000000604082015260006060820190505b919050565b60208152602a60208201527f5361666545524332303a204552433230206f7065726174696f6e20646964206e60408201527f6f74207375636365656400000000000000000000000000000000000000000000606082015260006080820190505b919050565b60208152601160208201527f6d6f7265207468616e2036342062697473000000000000000000000000000000604082015260006060820190505b919050565b600060a08201905082518252602083015160208301526040830151604083015260608301516060830152608083015160808301525b92915050565b60006101a0820190506155e68284614d91565b5b92915050565b60006101c0820190506156008285614d91565b826101a08301525b9392505050565b6000608082019050825182526020830151602083015260408301516040830152606083015160608301525b92915050565b60006020820190508282525b92915050565b60006040820190508382528260208301525b9392505050565b600060c0820190508782528660208301528560408301528460608301528360808301528260a08301525b979650505050505050565b600060208201905063ffffffff831682525b92915050565b600060208201905067ffffffffffffffff831682525b92915050565b60006101c08201905067ffffffffffffffff841682526156f76020830184614d91565b5b9392505050565b600060a08201905067ffffffffffffffff871682528560208301528460408301528360608301528260808301525b9695505050505050565b600060405190506101a0810181811067ffffffffffffffff82111715615786577f4e487b7100000000000000000000000000000000000000000000000000000000600052604160045260246000fd5b80604052505b90565b600060405190506101a0810181811067ffffffffffffffff821117156157de577f4e487b7100000000000000000000000000000000000000000000000000000000600052604160045260246000fd5b80604052505b90565b600082198211156157fb576157fa615a4f565b5b82820190505b92915050565b600067ffffffffffffffff80831681851680830382111561582b5761582a615a4f565b5b80820193505050505b92915050565b600082151561584c5761584b615a80565b5b82820490505b92915050565b600067ffffffffffffffff80841680151561587657615875615a80565b5b8082851604925050505b92915050565b60007f7fffffffffffffffffffffffffffffffffffffffffffffffffffffffffffffff818413828413858304851182821616156158c6576158c5615a4f565b5b7f80000000000000000000000000000000000000000000000000000000000000008487128682058812818416161561590157615900615a4f565b5b85871292508782058712848416161561591d5761591c615a4f565b5b8785058712818416161561593457615933615a4f565b5b505050505082820290505b92915050565b6000817fffffffffffffffffffffffffffffffffffffffffffffffffffffffffffffffff048311821515161561597e5761597d615a4f565b5b82820290505b92915050565b60008282101561599d5761599c615a4f565b5b82820390505b92915050565b600067ffffffffffffffff8083168185169150818110156159cd576159cc615a4f565b5b818103925050505b92915050565b60005b838110156159fa5780820151818401525b6020810190506159de565b83811115615a09576000848401525b505050505b565b60007fffffffffffffffffffffffffffffffffffffffffffffffffffffffffffffffff821415615a4357615a42615a4f565b5b6001820190505b919050565b7f4e487b7100000000000000000000000000000000000000000000000000000000600052601160045260246000fd5b565b7f4e487b7100000000000000000000000000000000000000000000000000000000600052601260045260246000fd5b565b73ffffffffffffffffffffffffffffffffffffffff811681141515615ad65760006000fd5b505b565b80151581141515615aeb5760006000fd5b505b565b8060020b81141515615b015760006000fd5b505b565b63ffffffff811681141515615b1a5760006000fd5b505b565b67ffffffffffffffff811681141515615b375760006000fd5b505b565bfea2646970667358221220c9349ee32a3e6e0a3b43f5052df57572c059288a1370ca93a331776d7f94feff64736f6c63430008040033",
  "linkReferences": {},
  "deployedLinkReferences": {}
}