{
  "_format": "hh-sol-artifact-1",
  "contractName": "UniswapV3PoolDeployer",
  "sourceName": "contracts/uniswap-v3-core/UniswapV3PoolDeployer.sol",
  "abi": [
    {
      "inputs": [],
      "name": "parameters",
      "outputs": [
        {
          "internalType": "address",
          "name": "factory",
          "type": "address"
        },
        {
          "internalType": "address",
          "name": "token0",
          "type": "address"
        },
        {
          "internalType": "address",
          "name": "token1",
          "type": "address"
        },
        {
          "internalType": "uint24",
          "name": "fee",
          "type": "uint24"
        },
        {
          "internalType": "int24",
          "name": "tickSpacing",
          "type": "int24"
        }
      ],
      "stateMutability": "view",
      "type": "function"
    }
  ],
  "bytecode": "0x60806040523480156100115760006000fd5b50610017565b610188806100266000396000f3fe60806040523480156100115760006000fd5b50600436106100305760003560e01c8063890357301461003657610030565b60006000fd5b61003e610058565b60405161004f9594939291906100ff565b60405180910390f35b60006000508060000160009054906101000a900473ffffffffffffffffffffffffffffffffffffffff16908060010160009054906101000a900473ffffffffffffffffffffffffffffffffffffffff16908060020160009054906101000a900473ffffffffffffffffffffffffffffffffffffffff16908060020160149054906101000a900462ffffff16908060020160179054906101000a900460020b90508556610151565b600060a08201905073ffffffffffffffffffffffffffffffffffffffff8088168352808716602084015280861660408401525062ffffff841660608301528260020b60808301525b9695505050505050565bfea26469706673582212207bccd6fdfbb5cebac01a012c510b36f76c2db4198abf8fda244eedd2e1c6d18164736f6c634300080c0033",
  "linkReferences": {},
  "deployedLinkReferences": {}
}